{
	"data": {
		"bytecode": {
			"linkReferences": {},
			"object": "6080604052600160045534801562000015575f80fd5b5033805f8073ffffffffffffffffffffffffffffffffffffffff168273ffffffffffffffffffffffffffffffffffffffff16036200008a576040517f08c379a000000000000000000000000000000000000000000000000000000000815260040162000081906200054b565b60405180910390fd5b8160065f6101000a81548173ffffffffffffffffffffffffffffffffffffffff021916908373ffffffffffffffffffffffffffffffffffffffff1602179055505f73ffffffffffffffffffffffffffffffffffffffff168173ffffffffffffffffffffffffffffffffffffffff161462000110576200010f81620001ba60201b60201c565b5b5050506200013873326c977e6efc84e512bb9c30f76e30c160ed06fb620002e960201b60201c565b6200015d7312a3d7759f745f4cb8ee8a647038c040cb8862a56200032c60201b60201c565b620001a36040518060400160405280602081526020017f61383335366634383536396334333465616134616335666362346462356363308152506200039060201b60201c565b620001b45f620003b560201b60201c565b620007de565b3373ffffffffffffffffffffffffffffffffffffffff168173ffffffffffffffffffffffffffffffffffffffff16036200022b576040517f08c379a00000000000000000000000000000000000000000000000000000000081526004016200022290620005b9565b60405180910390fd5b8060075f6101000a81548173ffffffffffffffffffffffffffffffffffffffff021916908373ffffffffffffffffffffffffffffffffffffffff1602179055508073ffffffffffffffffffffffffffffffffffffffff1660065f9054906101000a900473ffffffffffffffffffffffffffffffffffffffff1673ffffffffffffffffffffffffffffffffffffffff167fed8889f560326eb138920d842192f0eb3dd22b4f139c87a2c57538e05bae127860405160405180910390a350565b8060025f6101000a81548173ffffffffffffffffffffffffffffffffffffffff021916908373ffffffffffffffffffffffffffffffffffffffff16021790555050565b6200033c620003fc60201b60201c565b8060085f6101000a81548173ffffffffffffffffffffffffffffffffffffffff021916908373ffffffffffffffffffffffffffffffffffffffff1602179055506200038d816200049060201b60201c565b50565b620003a0620003fc60201b60201c565b80620003ac906200061d565b60098190555050565b620003c5620003fc60201b60201c565b620003f96064670de0b6b3a764000083620003e19190620006c2565b620003ed919062000739565b620004d360201b60201c565b50565b60065f9054906101000a900473ffffffffffffffffffffffffffffffffffffffff1673ffffffffffffffffffffffffffffffffffffffff163373ffffffffffffffffffffffffffffffffffffffff16146200048e576040517f08c379a00000000000000000000000000000000000000000000000000000000081526004016200048590620007be565b60405180910390fd5b565b8060035f6101000a81548173ffffffffffffffffffffffffffffffffffffffff021916908373ffffffffffffffffffffffffffffffffffffffff16021790555050565b620004e3620003fc60201b60201c565b80600a8190555050565b5f82825260208201905092915050565b7f43616e6e6f7420736574206f776e657220746f207a65726f00000000000000005f82015250565b5f62000533601883620004ed565b91506200054082620004fd565b602082019050919050565b5f6020820190508181035f830152620005648162000525565b9050919050565b7f43616e6e6f74207472616e7366657220746f2073656c660000000000000000005f82015250565b5f620005a1601783620004ed565b9150620005ae826200056b565b602082019050919050565b5f6020820190508181035f830152620005d28162000593565b9050919050565b5f81519050919050565b5f819050602082019050919050565b5f819050919050565b5f620006088251620005f2565b80915050919050565b5f82821b905092915050565b5f6200062982620005d9565b826200063584620005e3565b90506200064281620005fb565b925060208210156200068557620006807fffffffffffffffffffffffffffffffffffffffffffffffffffffffffffffffff8360200360080262000611565b831692505b5050919050565b5f819050919050565b7f4e487b71000000000000000000000000000000000000000000000000000000005f52601160045260245ffd5b5f620006ce826200068c565b9150620006db836200068c565b9250828202620006eb816200068c565b9150828204841483151762000705576200070462000695565b5b5092915050565b7f4e487b71000000000000000000000000000000000000000000000000000000005f52601260045260245ffd5b5f62000745826200068c565b915062000752836200068c565b9250826200076557620007646200070c565b5b828204905092915050565b7f4f6e6c792063616c6c61626c65206279206f776e6572000000000000000000005f82015250565b5f620007a6601683620004ed565b9150620007b38262000770565b602082019050919050565b5f6020820190508181035f830152620007d78162000798565b9050919050565b61255380620007ec5f395ff3fe608060405234801561000f575f80fd5b50600436106100e8575f3560e01c80638da5cb5b1161008a578063b18b78dd11610064578063b18b78dd146101d6578063e3da201d146101f4578063f2fde38b14610210578063f34473a51461022c576100e8565b80638da5cb5b146101905780638dc654a2146101ae578063b02f7fe0146101b8576100e8565b80634c69c00f116100c65780634c69c00f1461012e578063562376821461014a57806379ba5097146101685780637a7f01a714610172576100e8565b8063129fc1c0146100ec578063338cdca1146101085780634357855e14610112575b5f80fd5b61010660048036038101906101019190611871565b610248565b005b610110610263565b005b61012c6004803603810190610127919061191e565b61054d565b005b610148600480360381019061014391906119b6565b610658565b005b6101526106ac565b60405161015f91906119f0565b60405180910390f35b6101706106dc565b005b61017a61086d565b60405161018791906119f0565b60405180910390f35b610198610873565b6040516101a59190611a18565b60405180910390f35b6101b661089b565b005b6101c06109e2565b6040516101cd9190611aab565b60405180910390f35b6101de610a13565b6040516101eb9190611a18565b60405180910390f35b61020e60048036038101906102099190611acb565b610a43565b005b61022a600480360381019061022591906119b6565b610a55565b005b61024660048036038101906102419190611acb565b610a69565b005b610250610a9c565b8061025a90611b2f565b60098190555050565b5f610277600954634357855e60e01b610b2d565b90506102f86040518060400160405280600681526020017f6d6574686f6400000000000000000000000000000000000000000000000000008152506040518060400160405280600381526020017f474554000000000000000000000000000000000000000000000000000000000081525083610b5d9092919063ffffffff16565b61035a6040518060400160405280600381526020017f75726c00000000000000000000000000000000000000000000000000000000008152506040518060800160405280604d8152602001612492604d913983610b5d9092919063ffffffff16565b6103bc6040518060400160405280600781526020017f68656164657273000000000000000000000000000000000000000000000000008152506040518060600160405280603f81526020016124df603f913983610b5d9092919063ffffffff16565b6104146040518060400160405280600481526020017f626f64790000000000000000000000000000000000000000000000000000000081525060405180602001604052805f81525083610b5d9092919063ffffffff16565b61046c6040518060400160405280600781526020017f636f6e746163740000000000000000000000000000000000000000000000000081525060405180602001604052805f81525083610b5d9092919063ffffffff16565b6104eb6040518060400160405280600481526020017f70617468000000000000000000000000000000000000000000000000000000008152506040518060400160405280600781526020017f4554482c5553440000000000000000000000000000000000000000000000000081525083610b5d9092919063ffffffff16565b61053d6040518060400160405280600a81526020017f6d756c7469706c69657200000000000000000000000000000000000000000000815250670de0b6b3a764000083610b909092919063ffffffff16565b61054981600a54610bc3565b5050565b8160055f8281526020019081526020015f205f9054906101000a900473ffffffffffffffffffffffffffffffffffffffff1673ffffffffffffffffffffffffffffffffffffffff163373ffffffffffffffffffffffffffffffffffffffff16146105ec576040517f08c379a00000000000000000000000000000000000000000000000000000000081526004016105e390611c05565b60405180910390fd5b60055f8281526020019081526020015f205f6101000a81549073ffffffffffffffffffffffffffffffffffffffff0219169055807f7cc135e0cebb02c3480ae5d74d377283180a2601f8f644edf7987b009316c63a60405160405180910390a281600b81905550505050565b610660610a9c565b8060085f6101000a81548173ffffffffffffffffffffffffffffffffffffffff021916908373ffffffffffffffffffffffffffffffffffffffff1602179055506106a981610bf8565b50565b5f6106b5610a9c565b670de0b6b3a76400006064600a546106cd9190611c50565b6106d79190611cbe565b905090565b60075f9054906101000a900473ffffffffffffffffffffffffffffffffffffffff1673ffffffffffffffffffffffffffffffffffffffff163373ffffffffffffffffffffffffffffffffffffffff161461076b576040517f08c379a000000000000000000000000000000000000000000000000000000000815260040161076290611d38565b60405180910390fd5b5f60065f9054906101000a900473ffffffffffffffffffffffffffffffffffffffff1690503360065f6101000a81548173ffffffffffffffffffffffffffffffffffffffff021916908373ffffffffffffffffffffffffffffffffffffffff1602179055505f60075f6101000a81548173ffffffffffffffffffffffffffffffffffffffff021916908373ffffffffffffffffffffffffffffffffffffffff1602179055503373ffffffffffffffffffffffffffffffffffffffff168173ffffffffffffffffffffffffffffffffffffffff167f8be0079c531659141344cd1fd0a4f28419497f9722a3daafe3b4186f6b6457e060405160405180910390a350565b600b5481565b5f60065f9054906101000a900473ffffffffffffffffffffffffffffffffffffffff16905090565b6108a3610a9c565b5f6108ac610c3b565b90508073ffffffffffffffffffffffffffffffffffffffff1663a9059cbb338373ffffffffffffffffffffffffffffffffffffffff166370a08231306040518263ffffffff1660e01b81526004016109049190611a18565b602060405180830381865afa15801561091f573d5f803e3d5ffd5b505050506040513d601f19601f820116820180604052508101906109439190611d6a565b6040518363ffffffff1660e01b8152600401610960929190611d95565b6020604051808303815f875af115801561097c573d5f803e3d5ffd5b505050506040513d601f19601f820116820180604052508101906109a09190611df1565b6109df576040517f08c379a00000000000000000000000000000000000000000000000000000000081526004016109d690611e66565b60405180910390fd5b50565b60606109ec610a9c565b6009546040516020016109ff9190611ea4565b604051602081830303815290604052905090565b5f610a1c610a9c565b60085f9054906101000a900473ffffffffffffffffffffffffffffffffffffffff16905090565b610a4b610a9c565b80600a8190555050565b610a5d610a9c565b610a6681610c63565b50565b610a71610a9c565b610a996064670de0b6b3a764000083610a8a9190611c50565b610a949190611cbe565b610a43565b50565b60065f9054906101000a900473ffffffffffffffffffffffffffffffffffffffff1673ffffffffffffffffffffffffffffffffffffffff163373ffffffffffffffffffffffffffffffffffffffff1614610b2b576040517f08c379a0000000000000000000000000000000000000000000000000000000008152600401610b2290611f08565b60405180910390fd5b565b610b356116a2565b610b3d6116a2565b610b5484308584610d8f909392919063ffffffff16565b91505092915050565b610b74828460800151610e3e90919063ffffffff16565b610b8b818460800151610e3e90919063ffffffff16565b505050565b610ba7828460800151610e3e90919063ffffffff16565b610bbe818460800151610e6390919063ffffffff16565b505050565b5f610bf060035f9054906101000a900473ffffffffffffffffffffffffffffffffffffffff168484610f0e565b905092915050565b8060035f6101000a81548173ffffffffffffffffffffffffffffffffffffffff021916908373ffffffffffffffffffffffffffffffffffffffff16021790555050565b5f60025f9054906101000a900473ffffffffffffffffffffffffffffffffffffffff16905090565b3373ffffffffffffffffffffffffffffffffffffffff168173ffffffffffffffffffffffffffffffffffffffff1603610cd1576040517f08c379a0000000000000000000000000000000000000000000000000000000008152600401610cc890611f70565b60405180910390fd5b8060075f6101000a81548173ffffffffffffffffffffffffffffffffffffffff021916908373ffffffffffffffffffffffffffffffffffffffff1602179055508073ffffffffffffffffffffffffffffffffffffffff1660065f9054906101000a900473ffffffffffffffffffffffffffffffffffffffff1673ffffffffffffffffffffffffffffffffffffffff167fed8889f560326eb138920d842192f0eb3dd22b4f139c87a2c57538e05bae127860405160405180910390a350565b610d976116a2565b610da78560800151610100610fd3565b5083855f01818152505082856020019073ffffffffffffffffffffffffffffffffffffffff16908173ffffffffffffffffffffffffffffffffffffffff16815250508185604001907bffffffffffffffffffffffffffffffffffffffffffffffffffffffff191690817bffffffffffffffffffffffffffffffffffffffffffffffffffffffff191681525050849050949350505050565b610e4b826003835161103b565b610e5e81836111c090919063ffffffff16565b505050565b7fffffffffffffffffffffffffffffffffffffffffffffffff0000000000000000811215610e9a57610e9582826111e1565b610f0a565b67ffffffffffffffff811315610eb957610eb48282611258565b610f09565b5f8112610ed057610ecb825f8361103b565b610f08565b610f07826001837fffffffffffffffffffffffffffffffffffffffffffffffffffffffffffffffff610f029190611f97565b61103b565b5b5b5b5050565b5f806004549050600181610f229190611fd7565b6004819055505f633c6d41b960e01b5f80875f015188604001518660028b608001515f0151604051602401610f5d979695949392919061209b565b604051602081830303815290604052907bffffffffffffffffffffffffffffffffffffffffffffffffffffffff19166020820180517bffffffffffffffffffffffffffffffffffffffffffffffffffffffff83818316178352505050509050610fc8868386846112a4565b925050509392505050565b610fdb61170b565b5f602083610fe9919061210f565b1461101557602082610ffb919061210f565b6020611007919061213f565b826110129190611fd7565b91505b818360200181815250506040518084525f81528281016020016040525082905092915050565b60178167ffffffffffffffff16116110725761106c8160058460ff16901b60ff16178461143190919063ffffffff16565b506111bb565b60ff8167ffffffffffffffff16116110c8576110a1601860058460ff16901b178461143190919063ffffffff16565b506110c28167ffffffffffffffff166001856114509092919063ffffffff16565b506111ba565b61ffff8167ffffffffffffffff161161111f576110f8601960058460ff16901b178461143190919063ffffffff16565b506111198167ffffffffffffffff166002856114509092919063ffffffff16565b506111b9565b63ffffffff8167ffffffffffffffff161161117857611151601a60058460ff16901b178461143190919063ffffffff16565b506111728167ffffffffffffffff166004856114509092919063ffffffff16565b506111b8565b611195601b60058460ff16901b178461143190919063ffffffff16565b506111b68167ffffffffffffffff166008856114509092919063ffffffff16565b505b5b5b5b505050565b6111c861170b565b6111d983845f015151848551611471565b905092915050565b6111ff60036005600660ff16901b178361143190919063ffffffff16565b5061125482827fffffffffffffffffffffffffffffffffffffffffffffffffffffffffffffffff6112309190611f97565b60405160200161124091906119f0565b60405160208183030381529060405261155d565b5050565b61127660026005600660ff16901b178361143190919063ffffffff16565b506112a0828260405160200161128c91906119f0565b60405160208183030381529060405261155d565b5050565b5f30846040516020016112b8929190612223565b6040516020818303038152906040528051906020012090508460055f8381526020019081526020015f205f6101000a81548173ffffffffffffffffffffffffffffffffffffffff021916908373ffffffffffffffffffffffffffffffffffffffff160217905550807fb5e6e01e79f91267dc17b4e6314d5d4d03593d2ceee0fbb452b750bd70ea5af960405160405180910390a260025f9054906101000a900473ffffffffffffffffffffffffffffffffffffffff1673ffffffffffffffffffffffffffffffffffffffff16634000aea08685856040518463ffffffff1660e01b81526004016113aa9392919061224e565b6020604051808303815f875af11580156113c6573d5f803e3d5ffd5b505050506040513d601f19601f820116820180604052508101906113ea9190611df1565b611429576040517f08c379a0000000000000000000000000000000000000000000000000000000008152600401611420906122fa565b60405180910390fd5b949350505050565b61143961170b565b61144883845f01515184611582565b905092915050565b61145861170b565b61146884855f01515185856115d8565b90509392505050565b61147961170b565b8251821115611486575f80fd5b846020015182856114979190611fd7565b11156114cc576114cb8560026114bc886020015188876114b79190611fd7565b611665565b6114c69190611c50565b611680565b5b5f808651805187602083010193508088870111156114ea5787860182525b60208701925050505b60208410611531578051825260208261150c9190611fd7565b915060208161151b9190611fd7565b905060208461152a919061213f565b93506114f3565b5f6001856020036101000a03905080198251168184511681811785525050508692505050949350505050565b61156a826002835161103b565b61157d81836111c090919063ffffffff16565b505050565b61158a61170b565b836020015183106115b0576115af84600286602001516115aa9190611c50565b611680565b5b835180516020858301018481538186036115cb576001820183525b5050508390509392505050565b6115e061170b565b846020015184836115f19190611fd7565b11156116195761161885600286856116099190611fd7565b6116139190611c50565b611680565b5b5f60018361010061162a9190612447565b611634919061213f565b905085518386820101858319825116178152815185880111156116575784870182525b505085915050949350505050565b5f818311156116765782905061167a565b8190505b92915050565b5f825f015190506116918383610fd3565b5061169c83826111c0565b50505050565b6040518060a001604052805f80191681526020015f73ffffffffffffffffffffffffffffffffffffffff1681526020015f7bffffffffffffffffffffffffffffffffffffffffffffffffffffffff191681526020015f815260200161170561170b565b81525090565b6040518060400160405280606081526020015f81525090565b5f604051905090565b5f80fd5b5f80fd5b5f80fd5b5f80fd5b5f601f19601f8301169050919050565b7f4e487b71000000000000000000000000000000000000000000000000000000005f52604160045260245ffd5b6117838261173d565b810181811067ffffffffffffffff821117156117a2576117a161174d565b5b80604052505050565b5f6117b4611724565b90506117c0828261177a565b919050565b5f67ffffffffffffffff8211156117df576117de61174d565b5b6117e88261173d565b9050602081019050919050565b828183375f83830152505050565b5f611815611810846117c5565b6117ab565b90508281526020810184848401111561183157611830611739565b5b61183c8482856117f5565b509392505050565b5f82601f83011261185857611857611735565b5b8135611868848260208601611803565b91505092915050565b5f602082840312156118865761188561172d565b5b5f82013567ffffffffffffffff8111156118a3576118a2611731565b5b6118af84828501611844565b91505092915050565b5f819050919050565b6118ca816118b8565b81146118d4575f80fd5b50565b5f813590506118e5816118c1565b92915050565b5f819050919050565b6118fd816118eb565b8114611907575f80fd5b50565b5f81359050611918816118f4565b92915050565b5f80604083850312156119345761193361172d565b5b5f611941858286016118d7565b92505060206119528582860161190a565b9150509250929050565b5f73ffffffffffffffffffffffffffffffffffffffff82169050919050565b5f6119858261195c565b9050919050565b6119958161197b565b811461199f575f80fd5b50565b5f813590506119b08161198c565b92915050565b5f602082840312156119cb576119ca61172d565b5b5f6119d8848285016119a2565b91505092915050565b6119ea816118eb565b82525050565b5f602082019050611a035f8301846119e1565b92915050565b611a128161197b565b82525050565b5f602082019050611a2b5f830184611a09565b92915050565b5f81519050919050565b5f82825260208201905092915050565b5f5b83811015611a68578082015181840152602081019050611a4d565b5f8484015250505050565b5f611a7d82611a31565b611a878185611a3b565b9350611a97818560208601611a4b565b611aa08161173d565b840191505092915050565b5f6020820190508181035f830152611ac38184611a73565b905092915050565b5f60208284031215611ae057611adf61172d565b5b5f611aed8482850161190a565b91505092915050565b5f81519050919050565b5f819050602082019050919050565b5f611b1a82516118b8565b80915050919050565b5f82821b905092915050565b5f611b3982611af6565b82611b4384611b00565b9050611b4e81611b0f565b92506020821015611b8e57611b897fffffffffffffffffffffffffffffffffffffffffffffffffffffffffffffffff83602003600802611b23565b831692505b5050919050565b7f536f75726365206d75737420626520746865206f7261636c65206f66207468655f8201527f2072657175657374000000000000000000000000000000000000000000000000602082015250565b5f611bef602883611a3b565b9150611bfa82611b95565b604082019050919050565b5f6020820190508181035f830152611c1c81611be3565b9050919050565b7f4e487b71000000000000000000000000000000000000000000000000000000005f52601160045260245ffd5b5f611c5a826118eb565b9150611c65836118eb565b9250828202611c73816118eb565b91508282048414831517611c8a57611c89611c23565b5b5092915050565b7f4e487b71000000000000000000000000000000000000000000000000000000005f52601260045260245ffd5b5f611cc8826118eb565b9150611cd3836118eb565b925082611ce357611ce2611c91565b5b828204905092915050565b7f4d7573742062652070726f706f736564206f776e6572000000000000000000005f82015250565b5f611d22601683611a3b565b9150611d2d82611cee565b602082019050919050565b5f6020820190508181035f830152611d4f81611d16565b9050919050565b5f81519050611d64816118f4565b92915050565b5f60208284031215611d7f57611d7e61172d565b5b5f611d8c84828501611d56565b91505092915050565b5f604082019050611da85f830185611a09565b611db560208301846119e1565b9392505050565b5f8115159050919050565b611dd081611dbc565b8114611dda575f80fd5b50565b5f81519050611deb81611dc7565b92915050565b5f60208284031215611e0657611e0561172d565b5b5f611e1384828501611ddd565b91505092915050565b7f556e61626c6520746f207472616e7366657200000000000000000000000000005f82015250565b5f611e50601283611a3b565b9150611e5b82611e1c565b602082019050919050565b5f6020820190508181035f830152611e7d81611e44565b9050919050565b5f819050919050565b611e9e611e99826118b8565b611e84565b82525050565b5f611eaf8284611e8d565b60208201915081905092915050565b7f4f6e6c792063616c6c61626c65206279206f776e6572000000000000000000005f82015250565b5f611ef2601683611a3b565b9150611efd82611ebe565b602082019050919050565b5f6020820190508181035f830152611f1f81611ee6565b9050919050565b7f43616e6e6f74207472616e7366657220746f2073656c660000000000000000005f82015250565b5f611f5a601783611a3b565b9150611f6582611f26565b602082019050919050565b5f6020820190508181035f830152611f8781611f4e565b9050919050565b5f819050919050565b5f611fa182611f8e565b9150611fac83611f8e565b925082820390508181125f8412168282135f851215161715611fd157611fd0611c23565b5b92915050565b5f611fe1826118eb565b9150611fec836118eb565b925082820190508082111561200457612003611c23565b5b92915050565b612013816118b8565b82525050565b5f7fffffffff0000000000000000000000000000000000000000000000000000000082169050919050565b61204d81612019565b82525050565b5f82825260208201905092915050565b5f61206d82611af6565b6120778185612053565b9350612087818560208601611a4b565b6120908161173d565b840191505092915050565b5f60e0820190506120ae5f83018a611a09565b6120bb60208301896119e1565b6120c8604083018861200a565b6120d56060830187612044565b6120e260808301866119e1565b6120ef60a08301856119e1565b81810360c08301526121018184612063565b905098975050505050505050565b5f612119826118eb565b9150612124836118eb565b92508261213457612133611c91565b5b828206905092915050565b5f612149826118eb565b9150612154836118eb565b925082820390508181111561216c5761216b611c23565b5b92915050565b5f819050919050565b5f61219561219061218b8461195c565b612172565b61195c565b9050919050565b5f6121a68261217b565b9050919050565b5f6121b78261219c565b9050919050565b5f8160601b9050919050565b5f6121d4826121be565b9050919050565b5f6121e5826121ca565b9050919050565b6121fd6121f8826121ad565b6121db565b82525050565b5f819050919050565b61221d612218826118eb565b612203565b82525050565b5f61222e82856121ec565b60148201915061223e828461220c565b6020820191508190509392505050565b5f6060820190506122615f830186611a09565b61226e60208301856119e1565b81810360408301526122808184612063565b9050949350505050565b7f756e61626c6520746f207472616e73666572416e6443616c6c20746f206f72615f8201527f636c650000000000000000000000000000000000000000000000000000000000602082015250565b5f6122e4602383611a3b565b91506122ef8261228a565b604082019050919050565b5f6020820190508181035f830152612311816122d8565b9050919050565b5f8160011c9050919050565b5f808291508390505b600185111561236d5780860481111561234957612348611c23565b5b60018516156123585780820291505b808102905061236685612318565b945061232d565b94509492505050565b5f826123855760019050612440565b81612392575f9050612440565b81600181146123a857600281146123b2576123e1565b6001915050612440565b60ff8411156123c4576123c3611c23565b5b8360020a9150848211156123db576123da611c23565b5b50612440565b5060208310610133831016604e8410600b84101617156124165782820a90508381111561241157612410611c23565b5b612440565b6124238484846001612324565b9250905081840481111561243a57612439611c23565b5b81810290505b9392505050565b5f612451826118eb565b915061245c836118eb565b92506124897fffffffffffffffffffffffffffffffffffffffffffffffffffffffffffffffff8484612376565b90509291505056fe68747470733a2f2f6d696e2d6170692e63727970746f636f6d706172652e636f6d2f646174612f70726963656d756c74693f6673796d733d4254432c455448267473796d733d5553442c4555525b22636f6e74656e742d74797065222c20226170706c69636174696f6e2f6a736f6e222c20227365742d636f6f6b6965222c20227369643d3134413532225da264697066735822122027b52de6e433c9eb0fde73656f1d13dd01816b1758a6a48a3d7291a90c48ce2264736f6c63430008180033",
			"opcodes": "PUSH1 0x80 PUSH1 0x40 MSTORE PUSH1 0x1 PUSH1 0x4 SSTORE CALLVALUE DUP1 ISZERO PUSH3 0x15 JUMPI PUSH0 DUP1 REVERT JUMPDEST POP CALLER DUP1 PUSH0 DUP1 PUSH20 0xFFFFFFFFFFFFFFFFFFFFFFFFFFFFFFFFFFFFFFFF AND DUP3 PUSH20 0xFFFFFFFFFFFFFFFFFFFFFFFFFFFFFFFFFFFFFFFF AND SUB PUSH3 0x8A JUMPI PUSH1 0x40 MLOAD PUSH32 0x8C379A000000000000000000000000000000000000000000000000000000000 DUP2 MSTORE PUSH1 0x4 ADD PUSH3 0x81 SWAP1 PUSH3 0x54B JUMP JUMPDEST PUSH1 0x40 MLOAD DUP1 SWAP2 SUB SWAP1 REVERT JUMPDEST DUP2 PUSH1 0x6 PUSH0 PUSH2 0x100 EXP DUP2 SLOAD DUP2 PUSH20 0xFFFFFFFFFFFFFFFFFFFFFFFFFFFFFFFFFFFFFFFF MUL NOT AND SWAP1 DUP4 PUSH20 0xFFFFFFFFFFFFFFFFFFFFFFFFFFFFFFFFFFFFFFFF AND MUL OR SWAP1 SSTORE POP PUSH0 PUSH20 0xFFFFFFFFFFFFFFFFFFFFFFFFFFFFFFFFFFFFFFFF AND DUP2 PUSH20 0xFFFFFFFFFFFFFFFFFFFFFFFFFFFFFFFFFFFFFFFF AND EQ PUSH3 0x110 JUMPI PUSH3 0x10F DUP2 PUSH3 0x1BA PUSH1 0x20 SHL PUSH1 0x20 SHR JUMP JUMPDEST JUMPDEST POP POP POP PUSH3 0x138 PUSH20 0x326C977E6EFC84E512BB9C30F76E30C160ED06FB PUSH3 0x2E9 PUSH1 0x20 SHL PUSH1 0x20 SHR JUMP JUMPDEST PUSH3 0x15D PUSH20 0x12A3D7759F745F4CB8EE8A647038C040CB8862A5 PUSH3 0x32C PUSH1 0x20 SHL PUSH1 0x20 SHR JUMP JUMPDEST PUSH3 0x1A3 PUSH1 0x40 MLOAD DUP1 PUSH1 0x40 ADD PUSH1 0x40 MSTORE DUP1 PUSH1 0x20 DUP2 MSTORE PUSH1 0x20 ADD PUSH32 0x6138333536663438353639633433346561613461633566636234646235636330 DUP2 MSTORE POP PUSH3 0x390 PUSH1 0x20 SHL PUSH1 0x20 SHR JUMP JUMPDEST PUSH3 0x1B4 PUSH0 PUSH3 0x3B5 PUSH1 0x20 SHL PUSH1 0x20 SHR JUMP JUMPDEST PUSH3 0x7DE JUMP JUMPDEST CALLER PUSH20 0xFFFFFFFFFFFFFFFFFFFFFFFFFFFFFFFFFFFFFFFF AND DUP2 PUSH20 0xFFFFFFFFFFFFFFFFFFFFFFFFFFFFFFFFFFFFFFFF AND SUB PUSH3 0x22B JUMPI PUSH1 0x40 MLOAD PUSH32 0x8C379A000000000000000000000000000000000000000000000000000000000 DUP2 MSTORE PUSH1 0x4 ADD PUSH3 0x222 SWAP1 PUSH3 0x5B9 JUMP JUMPDEST PUSH1 0x40 MLOAD DUP1 SWAP2 SUB SWAP1 REVERT JUMPDEST DUP1 PUSH1 0x7 PUSH0 PUSH2 0x100 EXP DUP2 SLOAD DUP2 PUSH20 0xFFFFFFFFFFFFFFFFFFFFFFFFFFFFFFFFFFFFFFFF MUL NOT AND SWAP1 DUP4 PUSH20 0xFFFFFFFFFFFFFFFFFFFFFFFFFFFFFFFFFFFFFFFF AND MUL OR SWAP1 SSTORE POP DUP1 PUSH20 0xFFFFFFFFFFFFFFFFFFFFFFFFFFFFFFFFFFFFFFFF AND PUSH1 0x6 PUSH0 SWAP1 SLOAD SWAP1 PUSH2 0x100 EXP SWAP1 DIV PUSH20 0xFFFFFFFFFFFFFFFFFFFFFFFFFFFFFFFFFFFFFFFF AND PUSH20 0xFFFFFFFFFFFFFFFFFFFFFFFFFFFFFFFFFFFFFFFF AND PUSH32 0xED8889F560326EB138920D842192F0EB3DD22B4F139C87A2C57538E05BAE1278 PUSH1 0x40 MLOAD PUSH1 0x40 MLOAD DUP1 SWAP2 SUB SWAP1 LOG3 POP JUMP JUMPDEST DUP1 PUSH1 0x2 PUSH0 PUSH2 0x100 EXP DUP2 SLOAD DUP2 PUSH20 0xFFFFFFFFFFFFFFFFFFFFFFFFFFFFFFFFFFFFFFFF MUL NOT AND SWAP1 DUP4 PUSH20 0xFFFFFFFFFFFFFFFFFFFFFFFFFFFFFFFFFFFFFFFF AND MUL OR SWAP1 SSTORE POP POP JUMP JUMPDEST PUSH3 0x33C PUSH3 0x3FC PUSH1 0x20 SHL PUSH1 0x20 SHR JUMP JUMPDEST DUP1 PUSH1 0x8 PUSH0 PUSH2 0x100 EXP DUP2 SLOAD DUP2 PUSH20 0xFFFFFFFFFFFFFFFFFFFFFFFFFFFFFFFFFFFFFFFF MUL NOT AND SWAP1 DUP4 PUSH20 0xFFFFFFFFFFFFFFFFFFFFFFFFFFFFFFFFFFFFFFFF AND MUL OR SWAP1 SSTORE POP PUSH3 0x38D DUP2 PUSH3 0x490 PUSH1 0x20 SHL PUSH1 0x20 SHR JUMP JUMPDEST POP JUMP JUMPDEST PUSH3 0x3A0 PUSH3 0x3FC PUSH1 0x20 SHL PUSH1 0x20 SHR JUMP JUMPDEST DUP1 PUSH3 0x3AC SWAP1 PUSH3 0x61D JUMP JUMPDEST PUSH1 0x9 DUP2 SWAP1 SSTORE POP POP JUMP JUMPDEST PUSH3 0x3C5 PUSH3 0x3FC PUSH1 0x20 SHL PUSH1 0x20 SHR JUMP JUMPDEST PUSH3 0x3F9 PUSH1 0x64 PUSH8 0xDE0B6B3A7640000 DUP4 PUSH3 0x3E1 SWAP2 SWAP1 PUSH3 0x6C2 JUMP JUMPDEST PUSH3 0x3ED SWAP2 SWAP1 PUSH3 0x739 JUMP JUMPDEST PUSH3 0x4D3 PUSH1 0x20 SHL PUSH1 0x20 SHR JUMP JUMPDEST POP JUMP JUMPDEST PUSH1 0x6 PUSH0 SWAP1 SLOAD SWAP1 PUSH2 0x100 EXP SWAP1 DIV PUSH20 0xFFFFFFFFFFFFFFFFFFFFFFFFFFFFFFFFFFFFFFFF AND PUSH20 0xFFFFFFFFFFFFFFFFFFFFFFFFFFFFFFFFFFFFFFFF AND CALLER PUSH20 0xFFFFFFFFFFFFFFFFFFFFFFFFFFFFFFFFFFFFFFFF AND EQ PUSH3 0x48E JUMPI PUSH1 0x40 MLOAD PUSH32 0x8C379A000000000000000000000000000000000000000000000000000000000 DUP2 MSTORE PUSH1 0x4 ADD PUSH3 0x485 SWAP1 PUSH3 0x7BE JUMP JUMPDEST PUSH1 0x40 MLOAD DUP1 SWAP2 SUB SWAP1 REVERT JUMPDEST JUMP JUMPDEST DUP1 PUSH1 0x3 PUSH0 PUSH2 0x100 EXP DUP2 SLOAD DUP2 PUSH20 0xFFFFFFFFFFFFFFFFFFFFFFFFFFFFFFFFFFFFFFFF MUL NOT AND SWAP1 DUP4 PUSH20 0xFFFFFFFFFFFFFFFFFFFFFFFFFFFFFFFFFFFFFFFF AND MUL OR SWAP1 SSTORE POP POP JUMP JUMPDEST PUSH3 0x4E3 PUSH3 0x3FC PUSH1 0x20 SHL PUSH1 0x20 SHR JUMP JUMPDEST DUP1 PUSH1 0xA DUP2 SWAP1 SSTORE POP POP JUMP JUMPDEST PUSH0 DUP3 DUP3 MSTORE PUSH1 0x20 DUP3 ADD SWAP1 POP SWAP3 SWAP2 POP POP JUMP JUMPDEST PUSH32 0x43616E6E6F7420736574206F776E657220746F207A65726F0000000000000000 PUSH0 DUP3 ADD MSTORE POP JUMP JUMPDEST PUSH0 PUSH3 0x533 PUSH1 0x18 DUP4 PUSH3 0x4ED JUMP JUMPDEST SWAP2 POP PUSH3 0x540 DUP3 PUSH3 0x4FD JUMP JUMPDEST PUSH1 0x20 DUP3 ADD SWAP1 POP SWAP2 SWAP1 POP JUMP JUMPDEST PUSH0 PUSH1 0x20 DUP3 ADD SWAP1 POP DUP2 DUP2 SUB PUSH0 DUP4 ADD MSTORE PUSH3 0x564 DUP2 PUSH3 0x525 JUMP JUMPDEST SWAP1 POP SWAP2 SWAP1 POP JUMP JUMPDEST PUSH32 0x43616E6E6F74207472616E7366657220746F2073656C66000000000000000000 PUSH0 DUP3 ADD MSTORE POP JUMP JUMPDEST PUSH0 PUSH3 0x5A1 PUSH1 0x17 DUP4 PUSH3 0x4ED JUMP JUMPDEST SWAP2 POP PUSH3 0x5AE DUP3 PUSH3 0x56B JUMP JUMPDEST PUSH1 0x20 DUP3 ADD SWAP1 POP SWAP2 SWAP1 POP JUMP JUMPDEST PUSH0 PUSH1 0x20 DUP3 ADD SWAP1 POP DUP2 DUP2 SUB PUSH0 DUP4 ADD MSTORE PUSH3 0x5D2 DUP2 PUSH3 0x593 JUMP JUMPDEST SWAP1 POP SWAP2 SWAP1 POP JUMP JUMPDEST PUSH0 DUP2 MLOAD SWAP1 POP SWAP2 SWAP1 POP JUMP JUMPDEST PUSH0 DUP2 SWAP1 POP PUSH1 0x20 DUP3 ADD SWAP1 POP SWAP2 SWAP1 POP JUMP JUMPDEST PUSH0 DUP2 SWAP1 POP SWAP2 SWAP1 POP JUMP JUMPDEST PUSH0 PUSH3 0x608 DUP3 MLOAD PUSH3 0x5F2 JUMP JUMPDEST DUP1 SWAP2 POP POP SWAP2 SWAP1 POP JUMP JUMPDEST PUSH0 DUP3 DUP3 SHL SWAP1 POP SWAP3 SWAP2 POP POP JUMP JUMPDEST PUSH0 PUSH3 0x629 DUP3 PUSH3 0x5D9 JUMP JUMPDEST DUP3 PUSH3 0x635 DUP5 PUSH3 0x5E3 JUMP JUMPDEST SWAP1 POP PUSH3 0x642 DUP2 PUSH3 0x5FB JUMP JUMPDEST SWAP3 POP PUSH1 0x20 DUP3 LT ISZERO PUSH3 0x685 JUMPI PUSH3 0x680 PUSH32 0xFFFFFFFFFFFFFFFFFFFFFFFFFFFFFFFFFFFFFFFFFFFFFFFFFFFFFFFFFFFFFFFF DUP4 PUSH1 0x20 SUB PUSH1 0x8 MUL PUSH3 0x611 JUMP JUMPDEST DUP4 AND SWAP3 POP JUMPDEST POP POP SWAP2 SWAP1 POP JUMP JUMPDEST PUSH0 DUP2 SWAP1 POP SWAP2 SWAP1 POP JUMP JUMPDEST PUSH32 0x4E487B7100000000000000000000000000000000000000000000000000000000 PUSH0 MSTORE PUSH1 0x11 PUSH1 0x4 MSTORE PUSH1 0x24 PUSH0 REVERT JUMPDEST PUSH0 PUSH3 0x6CE DUP3 PUSH3 0x68C JUMP JUMPDEST SWAP2 POP PUSH3 0x6DB DUP4 PUSH3 0x68C JUMP JUMPDEST SWAP3 POP DUP3 DUP3 MUL PUSH3 0x6EB DUP2 PUSH3 0x68C JUMP JUMPDEST SWAP2 POP DUP3 DUP3 DIV DUP5 EQ DUP4 ISZERO OR PUSH3 0x705 JUMPI PUSH3 0x704 PUSH3 0x695 JUMP JUMPDEST JUMPDEST POP SWAP3 SWAP2 POP POP JUMP JUMPDEST PUSH32 0x4E487B7100000000000000000000000000000000000000000000000000000000 PUSH0 MSTORE PUSH1 0x12 PUSH1 0x4 MSTORE PUSH1 0x24 PUSH0 REVERT JUMPDEST PUSH0 PUSH3 0x745 DUP3 PUSH3 0x68C JUMP JUMPDEST SWAP2 POP PUSH3 0x752 DUP4 PUSH3 0x68C JUMP JUMPDEST SWAP3 POP DUP3 PUSH3 0x765 JUMPI PUSH3 0x764 PUSH3 0x70C JUMP JUMPDEST JUMPDEST DUP3 DUP3 DIV SWAP1 POP SWAP3 SWAP2 POP POP JUMP JUMPDEST PUSH32 0x4F6E6C792063616C6C61626C65206279206F776E657200000000000000000000 PUSH0 DUP3 ADD MSTORE POP JUMP JUMPDEST PUSH0 PUSH3 0x7A6 PUSH1 0x16 DUP4 PUSH3 0x4ED JUMP JUMPDEST SWAP2 POP PUSH3 0x7B3 DUP3 PUSH3 0x770 JUMP JUMPDEST PUSH1 0x20 DUP3 ADD SWAP1 POP SWAP2 SWAP1 POP JUMP JUMPDEST PUSH0 PUSH1 0x20 DUP3 ADD SWAP1 POP DUP2 DUP2 SUB PUSH0 DUP4 ADD MSTORE PUSH3 0x7D7 DUP2 PUSH3 0x798 JUMP JUMPDEST SWAP1 POP SWAP2 SWAP1 POP JUMP JUMPDEST PUSH2 0x2553 DUP1 PUSH3 0x7EC PUSH0 CODECOPY PUSH0 RETURN INVALID PUSH1 0x80 PUSH1 0x40 MSTORE CALLVALUE DUP1 ISZERO PUSH2 0xF JUMPI PUSH0 DUP1 REVERT JUMPDEST POP PUSH1 0x4 CALLDATASIZE LT PUSH2 0xE8 JUMPI PUSH0 CALLDATALOAD PUSH1 0xE0 SHR DUP1 PUSH4 0x8DA5CB5B GT PUSH2 0x8A JUMPI DUP1 PUSH4 0xB18B78DD GT PUSH2 0x64 JUMPI DUP1 PUSH4 0xB18B78DD EQ PUSH2 0x1D6 JUMPI DUP1 PUSH4 0xE3DA201D EQ PUSH2 0x1F4 JUMPI DUP1 PUSH4 0xF2FDE38B EQ PUSH2 0x210 JUMPI DUP1 PUSH4 0xF34473A5 EQ PUSH2 0x22C JUMPI PUSH2 0xE8 JUMP JUMPDEST DUP1 PUSH4 0x8DA5CB5B EQ PUSH2 0x190 JUMPI DUP1 PUSH4 0x8DC654A2 EQ PUSH2 0x1AE JUMPI DUP1 PUSH4 0xB02F7FE0 EQ PUSH2 0x1B8 JUMPI PUSH2 0xE8 JUMP JUMPDEST DUP1 PUSH4 0x4C69C00F GT PUSH2 0xC6 JUMPI DUP1 PUSH4 0x4C69C00F EQ PUSH2 0x12E JUMPI DUP1 PUSH4 0x56237682 EQ PUSH2 0x14A JUMPI DUP1 PUSH4 0x79BA5097 EQ PUSH2 0x168 JUMPI DUP1 PUSH4 0x7A7F01A7 EQ PUSH2 0x172 JUMPI PUSH2 0xE8 JUMP JUMPDEST DUP1 PUSH4 0x129FC1C0 EQ PUSH2 0xEC JUMPI DUP1 PUSH4 0x338CDCA1 EQ PUSH2 0x108 JUMPI DUP1 PUSH4 0x4357855E EQ PUSH2 0x112 JUMPI JUMPDEST PUSH0 DUP1 REVERT JUMPDEST PUSH2 0x106 PUSH1 0x4 DUP1 CALLDATASIZE SUB DUP2 ADD SWAP1 PUSH2 0x101 SWAP2 SWAP1 PUSH2 0x1871 JUMP JUMPDEST PUSH2 0x248 JUMP JUMPDEST STOP JUMPDEST PUSH2 0x110 PUSH2 0x263 JUMP JUMPDEST STOP JUMPDEST PUSH2 0x12C PUSH1 0x4 DUP1 CALLDATASIZE SUB DUP2 ADD SWAP1 PUSH2 0x127 SWAP2 SWAP1 PUSH2 0x191E JUMP JUMPDEST PUSH2 0x54D JUMP JUMPDEST STOP JUMPDEST PUSH2 0x148 PUSH1 0x4 DUP1 CALLDATASIZE SUB DUP2 ADD SWAP1 PUSH2 0x143 SWAP2 SWAP1 PUSH2 0x19B6 JUMP JUMPDEST PUSH2 0x658 JUMP JUMPDEST STOP JUMPDEST PUSH2 0x152 PUSH2 0x6AC JUMP JUMPDEST PUSH1 0x40 MLOAD PUSH2 0x15F SWAP2 SWAP1 PUSH2 0x19F0 JUMP JUMPDEST PUSH1 0x40 MLOAD DUP1 SWAP2 SUB SWAP1 RETURN JUMPDEST PUSH2 0x170 PUSH2 0x6DC JUMP JUMPDEST STOP JUMPDEST PUSH2 0x17A PUSH2 0x86D JUMP JUMPDEST PUSH1 0x40 MLOAD PUSH2 0x187 SWAP2 SWAP1 PUSH2 0x19F0 JUMP JUMPDEST PUSH1 0x40 MLOAD DUP1 SWAP2 SUB SWAP1 RETURN JUMPDEST PUSH2 0x198 PUSH2 0x873 JUMP JUMPDEST PUSH1 0x40 MLOAD PUSH2 0x1A5 SWAP2 SWAP1 PUSH2 0x1A18 JUMP JUMPDEST PUSH1 0x40 MLOAD DUP1 SWAP2 SUB SWAP1 RETURN JUMPDEST PUSH2 0x1B6 PUSH2 0x89B JUMP JUMPDEST STOP JUMPDEST PUSH2 0x1C0 PUSH2 0x9E2 JUMP JUMPDEST PUSH1 0x40 MLOAD PUSH2 0x1CD SWAP2 SWAP1 PUSH2 0x1AAB JUMP JUMPDEST PUSH1 0x40 MLOAD DUP1 SWAP2 SUB SWAP1 RETURN JUMPDEST PUSH2 0x1DE PUSH2 0xA13 JUMP JUMPDEST PUSH1 0x40 MLOAD PUSH2 0x1EB SWAP2 SWAP1 PUSH2 0x1A18 JUMP JUMPDEST PUSH1 0x40 MLOAD DUP1 SWAP2 SUB SWAP1 RETURN JUMPDEST PUSH2 0x20E PUSH1 0x4 DUP1 CALLDATASIZE SUB DUP2 ADD SWAP1 PUSH2 0x209 SWAP2 SWAP1 PUSH2 0x1ACB JUMP JUMPDEST PUSH2 0xA43 JUMP JUMPDEST STOP JUMPDEST PUSH2 0x22A PUSH1 0x4 DUP1 CALLDATASIZE SUB DUP2 ADD SWAP1 PUSH2 0x225 SWAP2 SWAP1 PUSH2 0x19B6 JUMP JUMPDEST PUSH2 0xA55 JUMP JUMPDEST STOP JUMPDEST PUSH2 0x246 PUSH1 0x4 DUP1 CALLDATASIZE SUB DUP2 ADD SWAP1 PUSH2 0x241 SWAP2 SWAP1 PUSH2 0x1ACB JUMP JUMPDEST PUSH2 0xA69 JUMP JUMPDEST STOP JUMPDEST PUSH2 0x250 PUSH2 0xA9C JUMP JUMPDEST DUP1 PUSH2 0x25A SWAP1 PUSH2 0x1B2F JUMP JUMPDEST PUSH1 0x9 DUP2 SWAP1 SSTORE POP POP JUMP JUMPDEST PUSH0 PUSH2 0x277 PUSH1 0x9 SLOAD PUSH4 0x4357855E PUSH1 0xE0 SHL PUSH2 0xB2D JUMP JUMPDEST SWAP1 POP PUSH2 0x2F8 PUSH1 0x40 MLOAD DUP1 PUSH1 0x40 ADD PUSH1 0x40 MSTORE DUP1 PUSH1 0x6 DUP2 MSTORE PUSH1 0x20 ADD PUSH32 0x6D6574686F640000000000000000000000000000000000000000000000000000 DUP2 MSTORE POP PUSH1 0x40 MLOAD DUP1 PUSH1 0x40 ADD PUSH1 0x40 MSTORE DUP1 PUSH1 0x3 DUP2 MSTORE PUSH1 0x20 ADD PUSH32 0x4745540000000000000000000000000000000000000000000000000000000000 DUP2 MSTORE POP DUP4 PUSH2 0xB5D SWAP1 SWAP3 SWAP2 SWAP1 PUSH4 0xFFFFFFFF AND JUMP JUMPDEST PUSH2 0x35A PUSH1 0x40 MLOAD DUP1 PUSH1 0x40 ADD PUSH1 0x40 MSTORE DUP1 PUSH1 0x3 DUP2 MSTORE PUSH1 0x20 ADD PUSH32 0x75726C0000000000000000000000000000000000000000000000000000000000 DUP2 MSTORE POP PUSH1 0x40 MLOAD DUP1 PUSH1 0x80 ADD PUSH1 0x40 MSTORE DUP1 PUSH1 0x4D DUP2 MSTORE PUSH1 0x20 ADD PUSH2 0x2492 PUSH1 0x4D SWAP2 CODECOPY DUP4 PUSH2 0xB5D SWAP1 SWAP3 SWAP2 SWAP1 PUSH4 0xFFFFFFFF AND JUMP JUMPDEST PUSH2 0x3BC PUSH1 0x40 MLOAD DUP1 PUSH1 0x40 ADD PUSH1 0x40 MSTORE DUP1 PUSH1 0x7 DUP2 MSTORE PUSH1 0x20 ADD PUSH32 0x6865616465727300000000000000000000000000000000000000000000000000 DUP2 MSTORE POP PUSH1 0x40 MLOAD DUP1 PUSH1 0x60 ADD PUSH1 0x40 MSTORE DUP1 PUSH1 0x3F DUP2 MSTORE PUSH1 0x20 ADD PUSH2 0x24DF PUSH1 0x3F SWAP2 CODECOPY DUP4 PUSH2 0xB5D SWAP1 SWAP3 SWAP2 SWAP1 PUSH4 0xFFFFFFFF AND JUMP JUMPDEST PUSH2 0x414 PUSH1 0x40 MLOAD DUP1 PUSH1 0x40 ADD PUSH1 0x40 MSTORE DUP1 PUSH1 0x4 DUP2 MSTORE PUSH1 0x20 ADD PUSH32 0x626F647900000000000000000000000000000000000000000000000000000000 DUP2 MSTORE POP PUSH1 0x40 MLOAD DUP1 PUSH1 0x20 ADD PUSH1 0x40 MSTORE DUP1 PUSH0 DUP2 MSTORE POP DUP4 PUSH2 0xB5D SWAP1 SWAP3 SWAP2 SWAP1 PUSH4 0xFFFFFFFF AND JUMP JUMPDEST PUSH2 0x46C PUSH1 0x40 MLOAD DUP1 PUSH1 0x40 ADD PUSH1 0x40 MSTORE DUP1 PUSH1 0x7 DUP2 MSTORE PUSH1 0x20 ADD PUSH32 0x636F6E7461637400000000000000000000000000000000000000000000000000 DUP2 MSTORE POP PUSH1 0x40 MLOAD DUP1 PUSH1 0x20 ADD PUSH1 0x40 MSTORE DUP1 PUSH0 DUP2 MSTORE POP DUP4 PUSH2 0xB5D SWAP1 SWAP3 SWAP2 SWAP1 PUSH4 0xFFFFFFFF AND JUMP JUMPDEST PUSH2 0x4EB PUSH1 0x40 MLOAD DUP1 PUSH1 0x40 ADD PUSH1 0x40 MSTORE DUP1 PUSH1 0x4 DUP2 MSTORE PUSH1 0x20 ADD PUSH32 0x7061746800000000000000000000000000000000000000000000000000000000 DUP2 MSTORE POP PUSH1 0x40 MLOAD DUP1 PUSH1 0x40 ADD PUSH1 0x40 MSTORE DUP1 PUSH1 0x7 DUP2 MSTORE PUSH1 0x20 ADD PUSH32 0x4554482C55534400000000000000000000000000000000000000000000000000 DUP2 MSTORE POP DUP4 PUSH2 0xB5D SWAP1 SWAP3 SWAP2 SWAP1 PUSH4 0xFFFFFFFF AND JUMP JUMPDEST PUSH2 0x53D PUSH1 0x40 MLOAD DUP1 PUSH1 0x40 ADD PUSH1 0x40 MSTORE DUP1 PUSH1 0xA DUP2 MSTORE PUSH1 0x20 ADD PUSH32 0x6D756C7469706C69657200000000000000000000000000000000000000000000 DUP2 MSTORE POP PUSH8 0xDE0B6B3A7640000 DUP4 PUSH2 0xB90 SWAP1 SWAP3 SWAP2 SWAP1 PUSH4 0xFFFFFFFF AND JUMP JUMPDEST PUSH2 0x549 DUP2 PUSH1 0xA SLOAD PUSH2 0xBC3 JUMP JUMPDEST POP POP JUMP JUMPDEST DUP2 PUSH1 0x5 PUSH0 DUP3 DUP2 MSTORE PUSH1 0x20 ADD SWAP1 DUP2 MSTORE PUSH1 0x20 ADD PUSH0 KECCAK256 PUSH0 SWAP1 SLOAD SWAP1 PUSH2 0x100 EXP SWAP1 DIV PUSH20 0xFFFFFFFFFFFFFFFFFFFFFFFFFFFFFFFFFFFFFFFF AND PUSH20 0xFFFFFFFFFFFFFFFFFFFFFFFFFFFFFFFFFFFFFFFF AND CALLER PUSH20 0xFFFFFFFFFFFFFFFFFFFFFFFFFFFFFFFFFFFFFFFF AND EQ PUSH2 0x5EC JUMPI PUSH1 0x40 MLOAD PUSH32 0x8C379A000000000000000000000000000000000000000000000000000000000 DUP2 MSTORE PUSH1 0x4 ADD PUSH2 0x5E3 SWAP1 PUSH2 0x1C05 JUMP JUMPDEST PUSH1 0x40 MLOAD DUP1 SWAP2 SUB SWAP1 REVERT JUMPDEST PUSH1 0x5 PUSH0 DUP3 DUP2 MSTORE PUSH1 0x20 ADD SWAP1 DUP2 MSTORE PUSH1 0x20 ADD PUSH0 KECCAK256 PUSH0 PUSH2 0x100 EXP DUP2 SLOAD SWAP1 PUSH20 0xFFFFFFFFFFFFFFFFFFFFFFFFFFFFFFFFFFFFFFFF MUL NOT AND SWAP1 SSTORE DUP1 PUSH32 0x7CC135E0CEBB02C3480AE5D74D377283180A2601F8F644EDF7987B009316C63A PUSH1 0x40 MLOAD PUSH1 0x40 MLOAD DUP1 SWAP2 SUB SWAP1 LOG2 DUP2 PUSH1 0xB DUP2 SWAP1 SSTORE POP POP POP POP JUMP JUMPDEST PUSH2 0x660 PUSH2 0xA9C JUMP JUMPDEST DUP1 PUSH1 0x8 PUSH0 PUSH2 0x100 EXP DUP2 SLOAD DUP2 PUSH20 0xFFFFFFFFFFFFFFFFFFFFFFFFFFFFFFFFFFFFFFFF MUL NOT AND SWAP1 DUP4 PUSH20 0xFFFFFFFFFFFFFFFFFFFFFFFFFFFFFFFFFFFFFFFF AND MUL OR SWAP1 SSTORE POP PUSH2 0x6A9 DUP2 PUSH2 0xBF8 JUMP JUMPDEST POP JUMP JUMPDEST PUSH0 PUSH2 0x6B5 PUSH2 0xA9C JUMP JUMPDEST PUSH8 0xDE0B6B3A7640000 PUSH1 0x64 PUSH1 0xA SLOAD PUSH2 0x6CD SWAP2 SWAP1 PUSH2 0x1C50 JUMP JUMPDEST PUSH2 0x6D7 SWAP2 SWAP1 PUSH2 0x1CBE JUMP JUMPDEST SWAP1 POP SWAP1 JUMP JUMPDEST PUSH1 0x7 PUSH0 SWAP1 SLOAD SWAP1 PUSH2 0x100 EXP SWAP1 DIV PUSH20 0xFFFFFFFFFFFFFFFFFFFFFFFFFFFFFFFFFFFFFFFF AND PUSH20 0xFFFFFFFFFFFFFFFFFFFFFFFFFFFFFFFFFFFFFFFF AND CALLER PUSH20 0xFFFFFFFFFFFFFFFFFFFFFFFFFFFFFFFFFFFFFFFF AND EQ PUSH2 0x76B JUMPI PUSH1 0x40 MLOAD PUSH32 0x8C379A000000000000000000000000000000000000000000000000000000000 DUP2 MSTORE PUSH1 0x4 ADD PUSH2 0x762 SWAP1 PUSH2 0x1D38 JUMP JUMPDEST PUSH1 0x40 MLOAD DUP1 SWAP2 SUB SWAP1 REVERT JUMPDEST PUSH0 PUSH1 0x6 PUSH0 SWAP1 SLOAD SWAP1 PUSH2 0x100 EXP SWAP1 DIV PUSH20 0xFFFFFFFFFFFFFFFFFFFFFFFFFFFFFFFFFFFFFFFF AND SWAP1 POP CALLER PUSH1 0x6 PUSH0 PUSH2 0x100 EXP DUP2 SLOAD DUP2 PUSH20 0xFFFFFFFFFFFFFFFFFFFFFFFFFFFFFFFFFFFFFFFF MUL NOT AND SWAP1 DUP4 PUSH20 0xFFFFFFFFFFFFFFFFFFFFFFFFFFFFFFFFFFFFFFFF AND MUL OR SWAP1 SSTORE POP PUSH0 PUSH1 0x7 PUSH0 PUSH2 0x100 EXP DUP2 SLOAD DUP2 PUSH20 0xFFFFFFFFFFFFFFFFFFFFFFFFFFFFFFFFFFFFFFFF MUL NOT AND SWAP1 DUP4 PUSH20 0xFFFFFFFFFFFFFFFFFFFFFFFFFFFFFFFFFFFFFFFF AND MUL OR SWAP1 SSTORE POP CALLER PUSH20 0xFFFFFFFFFFFFFFFFFFFFFFFFFFFFFFFFFFFFFFFF AND DUP2 PUSH20 0xFFFFFFFFFFFFFFFFFFFFFFFFFFFFFFFFFFFFFFFF AND PUSH32 0x8BE0079C531659141344CD1FD0A4F28419497F9722A3DAAFE3B4186F6B6457E0 PUSH1 0x40 MLOAD PUSH1 0x40 MLOAD DUP1 SWAP2 SUB SWAP1 LOG3 POP JUMP JUMPDEST PUSH1 0xB SLOAD DUP2 JUMP JUMPDEST PUSH0 PUSH1 0x6 PUSH0 SWAP1 SLOAD SWAP1 PUSH2 0x100 EXP SWAP1 DIV PUSH20 0xFFFFFFFFFFFFFFFFFFFFFFFFFFFFFFFFFFFFFFFF AND SWAP1 POP SWAP1 JUMP JUMPDEST PUSH2 0x8A3 PUSH2 0xA9C JUMP JUMPDEST PUSH0 PUSH2 0x8AC PUSH2 0xC3B JUMP JUMPDEST SWAP1 POP DUP1 PUSH20 0xFFFFFFFFFFFFFFFFFFFFFFFFFFFFFFFFFFFFFFFF AND PUSH4 0xA9059CBB CALLER DUP4 PUSH20 0xFFFFFFFFFFFFFFFFFFFFFFFFFFFFFFFFFFFFFFFF AND PUSH4 0x70A08231 ADDRESS PUSH1 0x40 MLOAD DUP3 PUSH4 0xFFFFFFFF AND PUSH1 0xE0 SHL DUP2 MSTORE PUSH1 0x4 ADD PUSH2 0x904 SWAP2 SWAP1 PUSH2 0x1A18 JUMP JUMPDEST PUSH1 0x20 PUSH1 0x40 MLOAD DUP1 DUP4 SUB DUP2 DUP7 GAS STATICCALL ISZERO DUP1 ISZERO PUSH2 0x91F JUMPI RETURNDATASIZE PUSH0 DUP1 RETURNDATACOPY RETURNDATASIZE PUSH0 REVERT JUMPDEST POP POP POP POP PUSH1 0x40 MLOAD RETURNDATASIZE PUSH1 0x1F NOT PUSH1 0x1F DUP3 ADD AND DUP3 ADD DUP1 PUSH1 0x40 MSTORE POP DUP2 ADD SWAP1 PUSH2 0x943 SWAP2 SWAP1 PUSH2 0x1D6A JUMP JUMPDEST PUSH1 0x40 MLOAD DUP4 PUSH4 0xFFFFFFFF AND PUSH1 0xE0 SHL DUP2 MSTORE PUSH1 0x4 ADD PUSH2 0x960 SWAP3 SWAP2 SWAP1 PUSH2 0x1D95 JUMP JUMPDEST PUSH1 0x20 PUSH1 0x40 MLOAD DUP1 DUP4 SUB DUP2 PUSH0 DUP8 GAS CALL ISZERO DUP1 ISZERO PUSH2 0x97C JUMPI RETURNDATASIZE PUSH0 DUP1 RETURNDATACOPY RETURNDATASIZE PUSH0 REVERT JUMPDEST POP POP POP POP PUSH1 0x40 MLOAD RETURNDATASIZE PUSH1 0x1F NOT PUSH1 0x1F DUP3 ADD AND DUP3 ADD DUP1 PUSH1 0x40 MSTORE POP DUP2 ADD SWAP1 PUSH2 0x9A0 SWAP2 SWAP1 PUSH2 0x1DF1 JUMP JUMPDEST PUSH2 0x9DF JUMPI PUSH1 0x40 MLOAD PUSH32 0x8C379A000000000000000000000000000000000000000000000000000000000 DUP2 MSTORE PUSH1 0x4 ADD PUSH2 0x9D6 SWAP1 PUSH2 0x1E66 JUMP JUMPDEST PUSH1 0x40 MLOAD DUP1 SWAP2 SUB SWAP1 REVERT JUMPDEST POP JUMP JUMPDEST PUSH1 0x60 PUSH2 0x9EC PUSH2 0xA9C JUMP JUMPDEST PUSH1 0x9 SLOAD PUSH1 0x40 MLOAD PUSH1 0x20 ADD PUSH2 0x9FF SWAP2 SWAP1 PUSH2 0x1EA4 JUMP JUMPDEST PUSH1 0x40 MLOAD PUSH1 0x20 DUP2 DUP4 SUB SUB DUP2 MSTORE SWAP1 PUSH1 0x40 MSTORE SWAP1 POP SWAP1 JUMP JUMPDEST PUSH0 PUSH2 0xA1C PUSH2 0xA9C JUMP JUMPDEST PUSH1 0x8 PUSH0 SWAP1 SLOAD SWAP1 PUSH2 0x100 EXP SWAP1 DIV PUSH20 0xFFFFFFFFFFFFFFFFFFFFFFFFFFFFFFFFFFFFFFFF AND SWAP1 POP SWAP1 JUMP JUMPDEST PUSH2 0xA4B PUSH2 0xA9C JUMP JUMPDEST DUP1 PUSH1 0xA DUP2 SWAP1 SSTORE POP POP JUMP JUMPDEST PUSH2 0xA5D PUSH2 0xA9C JUMP JUMPDEST PUSH2 0xA66 DUP2 PUSH2 0xC63 JUMP JUMPDEST POP JUMP JUMPDEST PUSH2 0xA71 PUSH2 0xA9C JUMP JUMPDEST PUSH2 0xA99 PUSH1 0x64 PUSH8 0xDE0B6B3A7640000 DUP4 PUSH2 0xA8A SWAP2 SWAP1 PUSH2 0x1C50 JUMP JUMPDEST PUSH2 0xA94 SWAP2 SWAP1 PUSH2 0x1CBE JUMP JUMPDEST PUSH2 0xA43 JUMP JUMPDEST POP JUMP JUMPDEST PUSH1 0x6 PUSH0 SWAP1 SLOAD SWAP1 PUSH2 0x100 EXP SWAP1 DIV PUSH20 0xFFFFFFFFFFFFFFFFFFFFFFFFFFFFFFFFFFFFFFFF AND PUSH20 0xFFFFFFFFFFFFFFFFFFFFFFFFFFFFFFFFFFFFFFFF AND CALLER PUSH20 0xFFFFFFFFFFFFFFFFFFFFFFFFFFFFFFFFFFFFFFFF AND EQ PUSH2 0xB2B JUMPI PUSH1 0x40 MLOAD PUSH32 0x8C379A000000000000000000000000000000000000000000000000000000000 DUP2 MSTORE PUSH1 0x4 ADD PUSH2 0xB22 SWAP1 PUSH2 0x1F08 JUMP JUMPDEST PUSH1 0x40 MLOAD DUP1 SWAP2 SUB SWAP1 REVERT JUMPDEST JUMP JUMPDEST PUSH2 0xB35 PUSH2 0x16A2 JUMP JUMPDEST PUSH2 0xB3D PUSH2 0x16A2 JUMP JUMPDEST PUSH2 0xB54 DUP5 ADDRESS DUP6 DUP5 PUSH2 0xD8F SWAP1 SWAP4 SWAP3 SWAP2 SWAP1 PUSH4 0xFFFFFFFF AND JUMP JUMPDEST SWAP2 POP POP SWAP3 SWAP2 POP POP JUMP JUMPDEST PUSH2 0xB74 DUP3 DUP5 PUSH1 0x80 ADD MLOAD PUSH2 0xE3E SWAP1 SWAP2 SWAP1 PUSH4 0xFFFFFFFF AND JUMP JUMPDEST PUSH2 0xB8B DUP2 DUP5 PUSH1 0x80 ADD MLOAD PUSH2 0xE3E SWAP1 SWAP2 SWAP1 PUSH4 0xFFFFFFFF AND JUMP JUMPDEST POP POP POP JUMP JUMPDEST PUSH2 0xBA7 DUP3 DUP5 PUSH1 0x80 ADD MLOAD PUSH2 0xE3E SWAP1 SWAP2 SWAP1 PUSH4 0xFFFFFFFF AND JUMP JUMPDEST PUSH2 0xBBE DUP2 DUP5 PUSH1 0x80 ADD MLOAD PUSH2 0xE63 SWAP1 SWAP2 SWAP1 PUSH4 0xFFFFFFFF AND JUMP JUMPDEST POP POP POP JUMP JUMPDEST PUSH0 PUSH2 0xBF0 PUSH1 0x3 PUSH0 SWAP1 SLOAD SWAP1 PUSH2 0x100 EXP SWAP1 DIV PUSH20 0xFFFFFFFFFFFFFFFFFFFFFFFFFFFFFFFFFFFFFFFF AND DUP5 DUP5 PUSH2 0xF0E JUMP JUMPDEST SWAP1 POP SWAP3 SWAP2 POP POP JUMP JUMPDEST DUP1 PUSH1 0x3 PUSH0 PUSH2 0x100 EXP DUP2 SLOAD DUP2 PUSH20 0xFFFFFFFFFFFFFFFFFFFFFFFFFFFFFFFFFFFFFFFF MUL NOT AND SWAP1 DUP4 PUSH20 0xFFFFFFFFFFFFFFFFFFFFFFFFFFFFFFFFFFFFFFFF AND MUL OR SWAP1 SSTORE POP POP JUMP JUMPDEST PUSH0 PUSH1 0x2 PUSH0 SWAP1 SLOAD SWAP1 PUSH2 0x100 EXP SWAP1 DIV PUSH20 0xFFFFFFFFFFFFFFFFFFFFFFFFFFFFFFFFFFFFFFFF AND SWAP1 POP SWAP1 JUMP JUMPDEST CALLER PUSH20 0xFFFFFFFFFFFFFFFFFFFFFFFFFFFFFFFFFFFFFFFF AND DUP2 PUSH20 0xFFFFFFFFFFFFFFFFFFFFFFFFFFFFFFFFFFFFFFFF AND SUB PUSH2 0xCD1 JUMPI PUSH1 0x40 MLOAD PUSH32 0x8C379A000000000000000000000000000000000000000000000000000000000 DUP2 MSTORE PUSH1 0x4 ADD PUSH2 0xCC8 SWAP1 PUSH2 0x1F70 JUMP JUMPDEST PUSH1 0x40 MLOAD DUP1 SWAP2 SUB SWAP1 REVERT JUMPDEST DUP1 PUSH1 0x7 PUSH0 PUSH2 0x100 EXP DUP2 SLOAD DUP2 PUSH20 0xFFFFFFFFFFFFFFFFFFFFFFFFFFFFFFFFFFFFFFFF MUL NOT AND SWAP1 DUP4 PUSH20 0xFFFFFFFFFFFFFFFFFFFFFFFFFFFFFFFFFFFFFFFF AND MUL OR SWAP1 SSTORE POP DUP1 PUSH20 0xFFFFFFFFFFFFFFFFFFFFFFFFFFFFFFFFFFFFFFFF AND PUSH1 0x6 PUSH0 SWAP1 SLOAD SWAP1 PUSH2 0x100 EXP SWAP1 DIV PUSH20 0xFFFFFFFFFFFFFFFFFFFFFFFFFFFFFFFFFFFFFFFF AND PUSH20 0xFFFFFFFFFFFFFFFFFFFFFFFFFFFFFFFFFFFFFFFF AND PUSH32 0xED8889F560326EB138920D842192F0EB3DD22B4F139C87A2C57538E05BAE1278 PUSH1 0x40 MLOAD PUSH1 0x40 MLOAD DUP1 SWAP2 SUB SWAP1 LOG3 POP JUMP JUMPDEST PUSH2 0xD97 PUSH2 0x16A2 JUMP JUMPDEST PUSH2 0xDA7 DUP6 PUSH1 0x80 ADD MLOAD PUSH2 0x100 PUSH2 0xFD3 JUMP JUMPDEST POP DUP4 DUP6 PUSH0 ADD DUP2 DUP2 MSTORE POP POP DUP3 DUP6 PUSH1 0x20 ADD SWAP1 PUSH20 0xFFFFFFFFFFFFFFFFFFFFFFFFFFFFFFFFFFFFFFFF AND SWAP1 DUP2 PUSH20 0xFFFFFFFFFFFFFFFFFFFFFFFFFFFFFFFFFFFFFFFF AND DUP2 MSTORE POP POP DUP2 DUP6 PUSH1 0x40 ADD SWAP1 PUSH28 0xFFFFFFFFFFFFFFFFFFFFFFFFFFFFFFFFFFFFFFFFFFFFFFFFFFFFFFFF NOT AND SWAP1 DUP2 PUSH28 0xFFFFFFFFFFFFFFFFFFFFFFFFFFFFFFFFFFFFFFFFFFFFFFFFFFFFFFFF NOT AND DUP2 MSTORE POP POP DUP5 SWAP1 POP SWAP5 SWAP4 POP POP POP POP JUMP JUMPDEST PUSH2 0xE4B DUP3 PUSH1 0x3 DUP4 MLOAD PUSH2 0x103B JUMP JUMPDEST PUSH2 0xE5E DUP2 DUP4 PUSH2 0x11C0 SWAP1 SWAP2 SWAP1 PUSH4 0xFFFFFFFF AND JUMP JUMPDEST POP POP POP JUMP JUMPDEST PUSH32 0xFFFFFFFFFFFFFFFFFFFFFFFFFFFFFFFFFFFFFFFFFFFFFFFF0000000000000000 DUP2 SLT ISZERO PUSH2 0xE9A JUMPI PUSH2 0xE95 DUP3 DUP3 PUSH2 0x11E1 JUMP JUMPDEST PUSH2 0xF0A JUMP JUMPDEST PUSH8 0xFFFFFFFFFFFFFFFF DUP2 SGT ISZERO PUSH2 0xEB9 JUMPI PUSH2 0xEB4 DUP3 DUP3 PUSH2 0x1258 JUMP JUMPDEST PUSH2 0xF09 JUMP JUMPDEST PUSH0 DUP2 SLT PUSH2 0xED0 JUMPI PUSH2 0xECB DUP3 PUSH0 DUP4 PUSH2 0x103B JUMP JUMPDEST PUSH2 0xF08 JUMP JUMPDEST PUSH2 0xF07 DUP3 PUSH1 0x1 DUP4 PUSH32 0xFFFFFFFFFFFFFFFFFFFFFFFFFFFFFFFFFFFFFFFFFFFFFFFFFFFFFFFFFFFFFFFF PUSH2 0xF02 SWAP2 SWAP1 PUSH2 0x1F97 JUMP JUMPDEST PUSH2 0x103B JUMP JUMPDEST JUMPDEST JUMPDEST JUMPDEST POP POP JUMP JUMPDEST PUSH0 DUP1 PUSH1 0x4 SLOAD SWAP1 POP PUSH1 0x1 DUP2 PUSH2 0xF22 SWAP2 SWAP1 PUSH2 0x1FD7 JUMP JUMPDEST PUSH1 0x4 DUP2 SWAP1 SSTORE POP PUSH0 PUSH4 0x3C6D41B9 PUSH1 0xE0 SHL PUSH0 DUP1 DUP8 PUSH0 ADD MLOAD DUP9 PUSH1 0x40 ADD MLOAD DUP7 PUSH1 0x2 DUP12 PUSH1 0x80 ADD MLOAD PUSH0 ADD MLOAD PUSH1 0x40 MLOAD PUSH1 0x24 ADD PUSH2 0xF5D SWAP8 SWAP7 SWAP6 SWAP5 SWAP4 SWAP3 SWAP2 SWAP1 PUSH2 0x209B JUMP JUMPDEST PUSH1 0x40 MLOAD PUSH1 0x20 DUP2 DUP4 SUB SUB DUP2 MSTORE SWAP1 PUSH1 0x40 MSTORE SWAP1 PUSH28 0xFFFFFFFFFFFFFFFFFFFFFFFFFFFFFFFFFFFFFFFFFFFFFFFFFFFFFFFF NOT AND PUSH1 0x20 DUP3 ADD DUP1 MLOAD PUSH28 0xFFFFFFFFFFFFFFFFFFFFFFFFFFFFFFFFFFFFFFFFFFFFFFFFFFFFFFFF DUP4 DUP2 DUP4 AND OR DUP4 MSTORE POP POP POP POP SWAP1 POP PUSH2 0xFC8 DUP7 DUP4 DUP7 DUP5 PUSH2 0x12A4 JUMP JUMPDEST SWAP3 POP POP POP SWAP4 SWAP3 POP POP POP JUMP JUMPDEST PUSH2 0xFDB PUSH2 0x170B JUMP JUMPDEST PUSH0 PUSH1 0x20 DUP4 PUSH2 0xFE9 SWAP2 SWAP1 PUSH2 0x210F JUMP JUMPDEST EQ PUSH2 0x1015 JUMPI PUSH1 0x20 DUP3 PUSH2 0xFFB SWAP2 SWAP1 PUSH2 0x210F JUMP JUMPDEST PUSH1 0x20 PUSH2 0x1007 SWAP2 SWAP1 PUSH2 0x213F JUMP JUMPDEST DUP3 PUSH2 0x1012 SWAP2 SWAP1 PUSH2 0x1FD7 JUMP JUMPDEST SWAP2 POP JUMPDEST DUP2 DUP4 PUSH1 0x20 ADD DUP2 DUP2 MSTORE POP POP PUSH1 0x40 MLOAD DUP1 DUP5 MSTORE PUSH0 DUP2 MSTORE DUP3 DUP2 ADD PUSH1 0x20 ADD PUSH1 0x40 MSTORE POP DUP3 SWAP1 POP SWAP3 SWAP2 POP POP JUMP JUMPDEST PUSH1 0x17 DUP2 PUSH8 0xFFFFFFFFFFFFFFFF AND GT PUSH2 0x1072 JUMPI PUSH2 0x106C DUP2 PUSH1 0x5 DUP5 PUSH1 0xFF AND SWAP1 SHL PUSH1 0xFF AND OR DUP5 PUSH2 0x1431 SWAP1 SWAP2 SWAP1 PUSH4 0xFFFFFFFF AND JUMP JUMPDEST POP PUSH2 0x11BB JUMP JUMPDEST PUSH1 0xFF DUP2 PUSH8 0xFFFFFFFFFFFFFFFF AND GT PUSH2 0x10C8 JUMPI PUSH2 0x10A1 PUSH1 0x18 PUSH1 0x5 DUP5 PUSH1 0xFF AND SWAP1 SHL OR DUP5 PUSH2 0x1431 SWAP1 SWAP2 SWAP1 PUSH4 0xFFFFFFFF AND JUMP JUMPDEST POP PUSH2 0x10C2 DUP2 PUSH8 0xFFFFFFFFFFFFFFFF AND PUSH1 0x1 DUP6 PUSH2 0x1450 SWAP1 SWAP3 SWAP2 SWAP1 PUSH4 0xFFFFFFFF AND JUMP JUMPDEST POP PUSH2 0x11BA JUMP JUMPDEST PUSH2 0xFFFF DUP2 PUSH8 0xFFFFFFFFFFFFFFFF AND GT PUSH2 0x111F JUMPI PUSH2 0x10F8 PUSH1 0x19 PUSH1 0x5 DUP5 PUSH1 0xFF AND SWAP1 SHL OR DUP5 PUSH2 0x1431 SWAP1 SWAP2 SWAP1 PUSH4 0xFFFFFFFF AND JUMP JUMPDEST POP PUSH2 0x1119 DUP2 PUSH8 0xFFFFFFFFFFFFFFFF AND PUSH1 0x2 DUP6 PUSH2 0x1450 SWAP1 SWAP3 SWAP2 SWAP1 PUSH4 0xFFFFFFFF AND JUMP JUMPDEST POP PUSH2 0x11B9 JUMP JUMPDEST PUSH4 0xFFFFFFFF DUP2 PUSH8 0xFFFFFFFFFFFFFFFF AND GT PUSH2 0x1178 JUMPI PUSH2 0x1151 PUSH1 0x1A PUSH1 0x5 DUP5 PUSH1 0xFF AND SWAP1 SHL OR DUP5 PUSH2 0x1431 SWAP1 SWAP2 SWAP1 PUSH4 0xFFFFFFFF AND JUMP JUMPDEST POP PUSH2 0x1172 DUP2 PUSH8 0xFFFFFFFFFFFFFFFF AND PUSH1 0x4 DUP6 PUSH2 0x1450 SWAP1 SWAP3 SWAP2 SWAP1 PUSH4 0xFFFFFFFF AND JUMP JUMPDEST POP PUSH2 0x11B8 JUMP JUMPDEST PUSH2 0x1195 PUSH1 0x1B PUSH1 0x5 DUP5 PUSH1 0xFF AND SWAP1 SHL OR DUP5 PUSH2 0x1431 SWAP1 SWAP2 SWAP1 PUSH4 0xFFFFFFFF AND JUMP JUMPDEST POP PUSH2 0x11B6 DUP2 PUSH8 0xFFFFFFFFFFFFFFFF AND PUSH1 0x8 DUP6 PUSH2 0x1450 SWAP1 SWAP3 SWAP2 SWAP1 PUSH4 0xFFFFFFFF AND JUMP JUMPDEST POP JUMPDEST JUMPDEST JUMPDEST JUMPDEST POP POP POP JUMP JUMPDEST PUSH2 0x11C8 PUSH2 0x170B JUMP JUMPDEST PUSH2 0x11D9 DUP4 DUP5 PUSH0 ADD MLOAD MLOAD DUP5 DUP6 MLOAD PUSH2 0x1471 JUMP JUMPDEST SWAP1 POP SWAP3 SWAP2 POP POP JUMP JUMPDEST PUSH2 0x11FF PUSH1 0x3 PUSH1 0x5 PUSH1 0x6 PUSH1 0xFF AND SWAP1 SHL OR DUP4 PUSH2 0x1431 SWAP1 SWAP2 SWAP1 PUSH4 0xFFFFFFFF AND JUMP JUMPDEST POP PUSH2 0x1254 DUP3 DUP3 PUSH32 0xFFFFFFFFFFFFFFFFFFFFFFFFFFFFFFFFFFFFFFFFFFFFFFFFFFFFFFFFFFFFFFFF PUSH2 0x1230 SWAP2 SWAP1 PUSH2 0x1F97 JUMP JUMPDEST PUSH1 0x40 MLOAD PUSH1 0x20 ADD PUSH2 0x1240 SWAP2 SWAP1 PUSH2 0x19F0 JUMP JUMPDEST PUSH1 0x40 MLOAD PUSH1 0x20 DUP2 DUP4 SUB SUB DUP2 MSTORE SWAP1 PUSH1 0x40 MSTORE PUSH2 0x155D JUMP JUMPDEST POP POP JUMP JUMPDEST PUSH2 0x1276 PUSH1 0x2 PUSH1 0x5 PUSH1 0x6 PUSH1 0xFF AND SWAP1 SHL OR DUP4 PUSH2 0x1431 SWAP1 SWAP2 SWAP1 PUSH4 0xFFFFFFFF AND JUMP JUMPDEST POP PUSH2 0x12A0 DUP3 DUP3 PUSH1 0x40 MLOAD PUSH1 0x20 ADD PUSH2 0x128C SWAP2 SWAP1 PUSH2 0x19F0 JUMP JUMPDEST PUSH1 0x40 MLOAD PUSH1 0x20 DUP2 DUP4 SUB SUB DUP2 MSTORE SWAP1 PUSH1 0x40 MSTORE PUSH2 0x155D JUMP JUMPDEST POP POP JUMP JUMPDEST PUSH0 ADDRESS DUP5 PUSH1 0x40 MLOAD PUSH1 0x20 ADD PUSH2 0x12B8 SWAP3 SWAP2 SWAP1 PUSH2 0x2223 JUMP JUMPDEST PUSH1 0x40 MLOAD PUSH1 0x20 DUP2 DUP4 SUB SUB DUP2 MSTORE SWAP1 PUSH1 0x40 MSTORE DUP1 MLOAD SWAP1 PUSH1 0x20 ADD KECCAK256 SWAP1 POP DUP5 PUSH1 0x5 PUSH0 DUP4 DUP2 MSTORE PUSH1 0x20 ADD SWAP1 DUP2 MSTORE PUSH1 0x20 ADD PUSH0 KECCAK256 PUSH0 PUSH2 0x100 EXP DUP2 SLOAD DUP2 PUSH20 0xFFFFFFFFFFFFFFFFFFFFFFFFFFFFFFFFFFFFFFFF MUL NOT AND SWAP1 DUP4 PUSH20 0xFFFFFFFFFFFFFFFFFFFFFFFFFFFFFFFFFFFFFFFF AND MUL OR SWAP1 SSTORE POP DUP1 PUSH32 0xB5E6E01E79F91267DC17B4E6314D5D4D03593D2CEEE0FBB452B750BD70EA5AF9 PUSH1 0x40 MLOAD PUSH1 0x40 MLOAD DUP1 SWAP2 SUB SWAP1 LOG2 PUSH1 0x2 PUSH0 SWAP1 SLOAD SWAP1 PUSH2 0x100 EXP SWAP1 DIV PUSH20 0xFFFFFFFFFFFFFFFFFFFFFFFFFFFFFFFFFFFFFFFF AND PUSH20 0xFFFFFFFFFFFFFFFFFFFFFFFFFFFFFFFFFFFFFFFF AND PUSH4 0x4000AEA0 DUP7 DUP6 DUP6 PUSH1 0x40 MLOAD DUP5 PUSH4 0xFFFFFFFF AND PUSH1 0xE0 SHL DUP2 MSTORE PUSH1 0x4 ADD PUSH2 0x13AA SWAP4 SWAP3 SWAP2 SWAP1 PUSH2 0x224E JUMP JUMPDEST PUSH1 0x20 PUSH1 0x40 MLOAD DUP1 DUP4 SUB DUP2 PUSH0 DUP8 GAS CALL ISZERO DUP1 ISZERO PUSH2 0x13C6 JUMPI RETURNDATASIZE PUSH0 DUP1 RETURNDATACOPY RETURNDATASIZE PUSH0 REVERT JUMPDEST POP POP POP POP PUSH1 0x40 MLOAD RETURNDATASIZE PUSH1 0x1F NOT PUSH1 0x1F DUP3 ADD AND DUP3 ADD DUP1 PUSH1 0x40 MSTORE POP DUP2 ADD SWAP1 PUSH2 0x13EA SWAP2 SWAP1 PUSH2 0x1DF1 JUMP JUMPDEST PUSH2 0x1429 JUMPI PUSH1 0x40 MLOAD PUSH32 0x8C379A000000000000000000000000000000000000000000000000000000000 DUP2 MSTORE PUSH1 0x4 ADD PUSH2 0x1420 SWAP1 PUSH2 0x22FA JUMP JUMPDEST PUSH1 0x40 MLOAD DUP1 SWAP2 SUB SWAP1 REVERT JUMPDEST SWAP5 SWAP4 POP POP POP POP JUMP JUMPDEST PUSH2 0x1439 PUSH2 0x170B JUMP JUMPDEST PUSH2 0x1448 DUP4 DUP5 PUSH0 ADD MLOAD MLOAD DUP5 PUSH2 0x1582 JUMP JUMPDEST SWAP1 POP SWAP3 SWAP2 POP POP JUMP JUMPDEST PUSH2 0x1458 PUSH2 0x170B JUMP JUMPDEST PUSH2 0x1468 DUP5 DUP6 PUSH0 ADD MLOAD MLOAD DUP6 DUP6 PUSH2 0x15D8 JUMP JUMPDEST SWAP1 POP SWAP4 SWAP3 POP POP POP JUMP JUMPDEST PUSH2 0x1479 PUSH2 0x170B JUMP JUMPDEST DUP3 MLOAD DUP3 GT ISZERO PUSH2 0x1486 JUMPI PUSH0 DUP1 REVERT JUMPDEST DUP5 PUSH1 0x20 ADD MLOAD DUP3 DUP6 PUSH2 0x1497 SWAP2 SWAP1 PUSH2 0x1FD7 JUMP JUMPDEST GT ISZERO PUSH2 0x14CC JUMPI PUSH2 0x14CB DUP6 PUSH1 0x2 PUSH2 0x14BC DUP9 PUSH1 0x20 ADD MLOAD DUP9 DUP8 PUSH2 0x14B7 SWAP2 SWAP1 PUSH2 0x1FD7 JUMP JUMPDEST PUSH2 0x1665 JUMP JUMPDEST PUSH2 0x14C6 SWAP2 SWAP1 PUSH2 0x1C50 JUMP JUMPDEST PUSH2 0x1680 JUMP JUMPDEST JUMPDEST PUSH0 DUP1 DUP7 MLOAD DUP1 MLOAD DUP8 PUSH1 0x20 DUP4 ADD ADD SWAP4 POP DUP1 DUP9 DUP8 ADD GT ISZERO PUSH2 0x14EA JUMPI DUP8 DUP7 ADD DUP3 MSTORE JUMPDEST PUSH1 0x20 DUP8 ADD SWAP3 POP POP POP JUMPDEST PUSH1 0x20 DUP5 LT PUSH2 0x1531 JUMPI DUP1 MLOAD DUP3 MSTORE PUSH1 0x20 DUP3 PUSH2 0x150C SWAP2 SWAP1 PUSH2 0x1FD7 JUMP JUMPDEST SWAP2 POP PUSH1 0x20 DUP2 PUSH2 0x151B SWAP2 SWAP1 PUSH2 0x1FD7 JUMP JUMPDEST SWAP1 POP PUSH1 0x20 DUP5 PUSH2 0x152A SWAP2 SWAP1 PUSH2 0x213F JUMP JUMPDEST SWAP4 POP PUSH2 0x14F3 JUMP JUMPDEST PUSH0 PUSH1 0x1 DUP6 PUSH1 0x20 SUB PUSH2 0x100 EXP SUB SWAP1 POP DUP1 NOT DUP3 MLOAD AND DUP2 DUP5 MLOAD AND DUP2 DUP2 OR DUP6 MSTORE POP POP POP DUP7 SWAP3 POP POP POP SWAP5 SWAP4 POP POP POP POP JUMP JUMPDEST PUSH2 0x156A DUP3 PUSH1 0x2 DUP4 MLOAD PUSH2 0x103B JUMP JUMPDEST PUSH2 0x157D DUP2 DUP4 PUSH2 0x11C0 SWAP1 SWAP2 SWAP1 PUSH4 0xFFFFFFFF AND JUMP JUMPDEST POP POP POP JUMP JUMPDEST PUSH2 0x158A PUSH2 0x170B JUMP JUMPDEST DUP4 PUSH1 0x20 ADD MLOAD DUP4 LT PUSH2 0x15B0 JUMPI PUSH2 0x15AF DUP5 PUSH1 0x2 DUP7 PUSH1 0x20 ADD MLOAD PUSH2 0x15AA SWAP2 SWAP1 PUSH2 0x1C50 JUMP JUMPDEST PUSH2 0x1680 JUMP JUMPDEST JUMPDEST DUP4 MLOAD DUP1 MLOAD PUSH1 0x20 DUP6 DUP4 ADD ADD DUP5 DUP2 MSTORE8 DUP2 DUP7 SUB PUSH2 0x15CB JUMPI PUSH1 0x1 DUP3 ADD DUP4 MSTORE JUMPDEST POP POP POP DUP4 SWAP1 POP SWAP4 SWAP3 POP POP POP JUMP JUMPDEST PUSH2 0x15E0 PUSH2 0x170B JUMP JUMPDEST DUP5 PUSH1 0x20 ADD MLOAD DUP5 DUP4 PUSH2 0x15F1 SWAP2 SWAP1 PUSH2 0x1FD7 JUMP JUMPDEST GT ISZERO PUSH2 0x1619 JUMPI PUSH2 0x1618 DUP6 PUSH1 0x2 DUP7 DUP6 PUSH2 0x1609 SWAP2 SWAP1 PUSH2 0x1FD7 JUMP JUMPDEST PUSH2 0x1613 SWAP2 SWAP1 PUSH2 0x1C50 JUMP JUMPDEST PUSH2 0x1680 JUMP JUMPDEST JUMPDEST PUSH0 PUSH1 0x1 DUP4 PUSH2 0x100 PUSH2 0x162A SWAP2 SWAP1 PUSH2 0x2447 JUMP JUMPDEST PUSH2 0x1634 SWAP2 SWAP1 PUSH2 0x213F JUMP JUMPDEST SWAP1 POP DUP6 MLOAD DUP4 DUP7 DUP3 ADD ADD DUP6 DUP4 NOT DUP3 MLOAD AND OR DUP2 MSTORE DUP2 MLOAD DUP6 DUP9 ADD GT ISZERO PUSH2 0x1657 JUMPI DUP5 DUP8 ADD DUP3 MSTORE JUMPDEST POP POP DUP6 SWAP2 POP POP SWAP5 SWAP4 POP POP POP POP JUMP JUMPDEST PUSH0 DUP2 DUP4 GT ISZERO PUSH2 0x1676 JUMPI DUP3 SWAP1 POP PUSH2 0x167A JUMP JUMPDEST DUP2 SWAP1 POP JUMPDEST SWAP3 SWAP2 POP POP JUMP JUMPDEST PUSH0 DUP3 PUSH0 ADD MLOAD SWAP1 POP PUSH2 0x1691 DUP4 DUP4 PUSH2 0xFD3 JUMP JUMPDEST POP PUSH2 0x169C DUP4 DUP3 PUSH2 0x11C0 JUMP JUMPDEST POP POP POP POP JUMP JUMPDEST PUSH1 0x40 MLOAD DUP1 PUSH1 0xA0 ADD PUSH1 0x40 MSTORE DUP1 PUSH0 DUP1 NOT AND DUP2 MSTORE PUSH1 0x20 ADD PUSH0 PUSH20 0xFFFFFFFFFFFFFFFFFFFFFFFFFFFFFFFFFFFFFFFF AND DUP2 MSTORE PUSH1 0x20 ADD PUSH0 PUSH28 0xFFFFFFFFFFFFFFFFFFFFFFFFFFFFFFFFFFFFFFFFFFFFFFFFFFFFFFFF NOT AND DUP2 MSTORE PUSH1 0x20 ADD PUSH0 DUP2 MSTORE PUSH1 0x20 ADD PUSH2 0x1705 PUSH2 0x170B JUMP JUMPDEST DUP2 MSTORE POP SWAP1 JUMP JUMPDEST PUSH1 0x40 MLOAD DUP1 PUSH1 0x40 ADD PUSH1 0x40 MSTORE DUP1 PUSH1 0x60 DUP2 MSTORE PUSH1 0x20 ADD PUSH0 DUP2 MSTORE POP SWAP1 JUMP JUMPDEST PUSH0 PUSH1 0x40 MLOAD SWAP1 POP SWAP1 JUMP JUMPDEST PUSH0 DUP1 REVERT JUMPDEST PUSH0 DUP1 REVERT JUMPDEST PUSH0 DUP1 REVERT JUMPDEST PUSH0 DUP1 REVERT JUMPDEST PUSH0 PUSH1 0x1F NOT PUSH1 0x1F DUP4 ADD AND SWAP1 POP SWAP2 SWAP1 POP JUMP JUMPDEST PUSH32 0x4E487B7100000000000000000000000000000000000000000000000000000000 PUSH0 MSTORE PUSH1 0x41 PUSH1 0x4 MSTORE PUSH1 0x24 PUSH0 REVERT JUMPDEST PUSH2 0x1783 DUP3 PUSH2 0x173D JUMP JUMPDEST DUP2 ADD DUP2 DUP2 LT PUSH8 0xFFFFFFFFFFFFFFFF DUP3 GT OR ISZERO PUSH2 0x17A2 JUMPI PUSH2 0x17A1 PUSH2 0x174D JUMP JUMPDEST JUMPDEST DUP1 PUSH1 0x40 MSTORE POP POP POP JUMP JUMPDEST PUSH0 PUSH2 0x17B4 PUSH2 0x1724 JUMP JUMPDEST SWAP1 POP PUSH2 0x17C0 DUP3 DUP3 PUSH2 0x177A JUMP JUMPDEST SWAP2 SWAP1 POP JUMP JUMPDEST PUSH0 PUSH8 0xFFFFFFFFFFFFFFFF DUP3 GT ISZERO PUSH2 0x17DF JUMPI PUSH2 0x17DE PUSH2 0x174D JUMP JUMPDEST JUMPDEST PUSH2 0x17E8 DUP3 PUSH2 0x173D JUMP JUMPDEST SWAP1 POP PUSH1 0x20 DUP2 ADD SWAP1 POP SWAP2 SWAP1 POP JUMP JUMPDEST DUP3 DUP2 DUP4 CALLDATACOPY PUSH0 DUP4 DUP4 ADD MSTORE POP POP POP JUMP JUMPDEST PUSH0 PUSH2 0x1815 PUSH2 0x1810 DUP5 PUSH2 0x17C5 JUMP JUMPDEST PUSH2 0x17AB JUMP JUMPDEST SWAP1 POP DUP3 DUP2 MSTORE PUSH1 0x20 DUP2 ADD DUP5 DUP5 DUP5 ADD GT ISZERO PUSH2 0x1831 JUMPI PUSH2 0x1830 PUSH2 0x1739 JUMP JUMPDEST JUMPDEST PUSH2 0x183C DUP5 DUP3 DUP6 PUSH2 0x17F5 JUMP JUMPDEST POP SWAP4 SWAP3 POP POP POP JUMP JUMPDEST PUSH0 DUP3 PUSH1 0x1F DUP4 ADD SLT PUSH2 0x1858 JUMPI PUSH2 0x1857 PUSH2 0x1735 JUMP JUMPDEST JUMPDEST DUP2 CALLDATALOAD PUSH2 0x1868 DUP5 DUP3 PUSH1 0x20 DUP7 ADD PUSH2 0x1803 JUMP JUMPDEST SWAP2 POP POP SWAP3 SWAP2 POP POP JUMP JUMPDEST PUSH0 PUSH1 0x20 DUP3 DUP5 SUB SLT ISZERO PUSH2 0x1886 JUMPI PUSH2 0x1885 PUSH2 0x172D JUMP JUMPDEST JUMPDEST PUSH0 DUP3 ADD CALLDATALOAD PUSH8 0xFFFFFFFFFFFFFFFF DUP2 GT ISZERO PUSH2 0x18A3 JUMPI PUSH2 0x18A2 PUSH2 0x1731 JUMP JUMPDEST JUMPDEST PUSH2 0x18AF DUP5 DUP3 DUP6 ADD PUSH2 0x1844 JUMP JUMPDEST SWAP2 POP POP SWAP3 SWAP2 POP POP JUMP JUMPDEST PUSH0 DUP2 SWAP1 POP SWAP2 SWAP1 POP JUMP JUMPDEST PUSH2 0x18CA DUP2 PUSH2 0x18B8 JUMP JUMPDEST DUP2 EQ PUSH2 0x18D4 JUMPI PUSH0 DUP1 REVERT JUMPDEST POP JUMP JUMPDEST PUSH0 DUP2 CALLDATALOAD SWAP1 POP PUSH2 0x18E5 DUP2 PUSH2 0x18C1 JUMP JUMPDEST SWAP3 SWAP2 POP POP JUMP JUMPDEST PUSH0 DUP2 SWAP1 POP SWAP2 SWAP1 POP JUMP JUMPDEST PUSH2 0x18FD DUP2 PUSH2 0x18EB JUMP JUMPDEST DUP2 EQ PUSH2 0x1907 JUMPI PUSH0 DUP1 REVERT JUMPDEST POP JUMP JUMPDEST PUSH0 DUP2 CALLDATALOAD SWAP1 POP PUSH2 0x1918 DUP2 PUSH2 0x18F4 JUMP JUMPDEST SWAP3 SWAP2 POP POP JUMP JUMPDEST PUSH0 DUP1 PUSH1 0x40 DUP4 DUP6 SUB SLT ISZERO PUSH2 0x1934 JUMPI PUSH2 0x1933 PUSH2 0x172D JUMP JUMPDEST JUMPDEST PUSH0 PUSH2 0x1941 DUP6 DUP3 DUP7 ADD PUSH2 0x18D7 JUMP JUMPDEST SWAP3 POP POP PUSH1 0x20 PUSH2 0x1952 DUP6 DUP3 DUP7 ADD PUSH2 0x190A JUMP JUMPDEST SWAP2 POP POP SWAP3 POP SWAP3 SWAP1 POP JUMP JUMPDEST PUSH0 PUSH20 0xFFFFFFFFFFFFFFFFFFFFFFFFFFFFFFFFFFFFFFFF DUP3 AND SWAP1 POP SWAP2 SWAP1 POP JUMP JUMPDEST PUSH0 PUSH2 0x1985 DUP3 PUSH2 0x195C JUMP JUMPDEST SWAP1 POP SWAP2 SWAP1 POP JUMP JUMPDEST PUSH2 0x1995 DUP2 PUSH2 0x197B JUMP JUMPDEST DUP2 EQ PUSH2 0x199F JUMPI PUSH0 DUP1 REVERT JUMPDEST POP JUMP JUMPDEST PUSH0 DUP2 CALLDATALOAD SWAP1 POP PUSH2 0x19B0 DUP2 PUSH2 0x198C JUMP JUMPDEST SWAP3 SWAP2 POP POP JUMP JUMPDEST PUSH0 PUSH1 0x20 DUP3 DUP5 SUB SLT ISZERO PUSH2 0x19CB JUMPI PUSH2 0x19CA PUSH2 0x172D JUMP JUMPDEST JUMPDEST PUSH0 PUSH2 0x19D8 DUP5 DUP3 DUP6 ADD PUSH2 0x19A2 JUMP JUMPDEST SWAP2 POP POP SWAP3 SWAP2 POP POP JUMP JUMPDEST PUSH2 0x19EA DUP2 PUSH2 0x18EB JUMP JUMPDEST DUP3 MSTORE POP POP JUMP JUMPDEST PUSH0 PUSH1 0x20 DUP3 ADD SWAP1 POP PUSH2 0x1A03 PUSH0 DUP4 ADD DUP5 PUSH2 0x19E1 JUMP JUMPDEST SWAP3 SWAP2 POP POP JUMP JUMPDEST PUSH2 0x1A12 DUP2 PUSH2 0x197B JUMP JUMPDEST DUP3 MSTORE POP POP JUMP JUMPDEST PUSH0 PUSH1 0x20 DUP3 ADD SWAP1 POP PUSH2 0x1A2B PUSH0 DUP4 ADD DUP5 PUSH2 0x1A09 JUMP JUMPDEST SWAP3 SWAP2 POP POP JUMP JUMPDEST PUSH0 DUP2 MLOAD SWAP1 POP SWAP2 SWAP1 POP JUMP JUMPDEST PUSH0 DUP3 DUP3 MSTORE PUSH1 0x20 DUP3 ADD SWAP1 POP SWAP3 SWAP2 POP POP JUMP JUMPDEST PUSH0 JUMPDEST DUP4 DUP2 LT ISZERO PUSH2 0x1A68 JUMPI DUP1 DUP3 ADD MLOAD DUP2 DUP5 ADD MSTORE PUSH1 0x20 DUP2 ADD SWAP1 POP PUSH2 0x1A4D JUMP JUMPDEST PUSH0 DUP5 DUP5 ADD MSTORE POP POP POP POP JUMP JUMPDEST PUSH0 PUSH2 0x1A7D DUP3 PUSH2 0x1A31 JUMP JUMPDEST PUSH2 0x1A87 DUP2 DUP6 PUSH2 0x1A3B JUMP JUMPDEST SWAP4 POP PUSH2 0x1A97 DUP2 DUP6 PUSH1 0x20 DUP7 ADD PUSH2 0x1A4B JUMP JUMPDEST PUSH2 0x1AA0 DUP2 PUSH2 0x173D JUMP JUMPDEST DUP5 ADD SWAP2 POP POP SWAP3 SWAP2 POP POP JUMP JUMPDEST PUSH0 PUSH1 0x20 DUP3 ADD SWAP1 POP DUP2 DUP2 SUB PUSH0 DUP4 ADD MSTORE PUSH2 0x1AC3 DUP2 DUP5 PUSH2 0x1A73 JUMP JUMPDEST SWAP1 POP SWAP3 SWAP2 POP POP JUMP JUMPDEST PUSH0 PUSH1 0x20 DUP3 DUP5 SUB SLT ISZERO PUSH2 0x1AE0 JUMPI PUSH2 0x1ADF PUSH2 0x172D JUMP JUMPDEST JUMPDEST PUSH0 PUSH2 0x1AED DUP5 DUP3 DUP6 ADD PUSH2 0x190A JUMP JUMPDEST SWAP2 POP POP SWAP3 SWAP2 POP POP JUMP JUMPDEST PUSH0 DUP2 MLOAD SWAP1 POP SWAP2 SWAP1 POP JUMP JUMPDEST PUSH0 DUP2 SWAP1 POP PUSH1 0x20 DUP3 ADD SWAP1 POP SWAP2 SWAP1 POP JUMP JUMPDEST PUSH0 PUSH2 0x1B1A DUP3 MLOAD PUSH2 0x18B8 JUMP JUMPDEST DUP1 SWAP2 POP POP SWAP2 SWAP1 POP JUMP JUMPDEST PUSH0 DUP3 DUP3 SHL SWAP1 POP SWAP3 SWAP2 POP POP JUMP JUMPDEST PUSH0 PUSH2 0x1B39 DUP3 PUSH2 0x1AF6 JUMP JUMPDEST DUP3 PUSH2 0x1B43 DUP5 PUSH2 0x1B00 JUMP JUMPDEST SWAP1 POP PUSH2 0x1B4E DUP2 PUSH2 0x1B0F JUMP JUMPDEST SWAP3 POP PUSH1 0x20 DUP3 LT ISZERO PUSH2 0x1B8E JUMPI PUSH2 0x1B89 PUSH32 0xFFFFFFFFFFFFFFFFFFFFFFFFFFFFFFFFFFFFFFFFFFFFFFFFFFFFFFFFFFFFFFFF DUP4 PUSH1 0x20 SUB PUSH1 0x8 MUL PUSH2 0x1B23 JUMP JUMPDEST DUP4 AND SWAP3 POP JUMPDEST POP POP SWAP2 SWAP1 POP JUMP JUMPDEST PUSH32 0x536F75726365206D75737420626520746865206F7261636C65206F6620746865 PUSH0 DUP3 ADD MSTORE PUSH32 0x2072657175657374000000000000000000000000000000000000000000000000 PUSH1 0x20 DUP3 ADD MSTORE POP JUMP JUMPDEST PUSH0 PUSH2 0x1BEF PUSH1 0x28 DUP4 PUSH2 0x1A3B JUMP JUMPDEST SWAP2 POP PUSH2 0x1BFA DUP3 PUSH2 0x1B95 JUMP JUMPDEST PUSH1 0x40 DUP3 ADD SWAP1 POP SWAP2 SWAP1 POP JUMP JUMPDEST PUSH0 PUSH1 0x20 DUP3 ADD SWAP1 POP DUP2 DUP2 SUB PUSH0 DUP4 ADD MSTORE PUSH2 0x1C1C DUP2 PUSH2 0x1BE3 JUMP JUMPDEST SWAP1 POP SWAP2 SWAP1 POP JUMP JUMPDEST PUSH32 0x4E487B7100000000000000000000000000000000000000000000000000000000 PUSH0 MSTORE PUSH1 0x11 PUSH1 0x4 MSTORE PUSH1 0x24 PUSH0 REVERT JUMPDEST PUSH0 PUSH2 0x1C5A DUP3 PUSH2 0x18EB JUMP JUMPDEST SWAP2 POP PUSH2 0x1C65 DUP4 PUSH2 0x18EB JUMP JUMPDEST SWAP3 POP DUP3 DUP3 MUL PUSH2 0x1C73 DUP2 PUSH2 0x18EB JUMP JUMPDEST SWAP2 POP DUP3 DUP3 DIV DUP5 EQ DUP4 ISZERO OR PUSH2 0x1C8A JUMPI PUSH2 0x1C89 PUSH2 0x1C23 JUMP JUMPDEST JUMPDEST POP SWAP3 SWAP2 POP POP JUMP JUMPDEST PUSH32 0x4E487B7100000000000000000000000000000000000000000000000000000000 PUSH0 MSTORE PUSH1 0x12 PUSH1 0x4 MSTORE PUSH1 0x24 PUSH0 REVERT JUMPDEST PUSH0 PUSH2 0x1CC8 DUP3 PUSH2 0x18EB JUMP JUMPDEST SWAP2 POP PUSH2 0x1CD3 DUP4 PUSH2 0x18EB JUMP JUMPDEST SWAP3 POP DUP3 PUSH2 0x1CE3 JUMPI PUSH2 0x1CE2 PUSH2 0x1C91 JUMP JUMPDEST JUMPDEST DUP3 DUP3 DIV SWAP1 POP SWAP3 SWAP2 POP POP JUMP JUMPDEST PUSH32 0x4D7573742062652070726F706F736564206F776E657200000000000000000000 PUSH0 DUP3 ADD MSTORE POP JUMP JUMPDEST PUSH0 PUSH2 0x1D22 PUSH1 0x16 DUP4 PUSH2 0x1A3B JUMP JUMPDEST SWAP2 POP PUSH2 0x1D2D DUP3 PUSH2 0x1CEE JUMP JUMPDEST PUSH1 0x20 DUP3 ADD SWAP1 POP SWAP2 SWAP1 POP JUMP JUMPDEST PUSH0 PUSH1 0x20 DUP3 ADD SWAP1 POP DUP2 DUP2 SUB PUSH0 DUP4 ADD MSTORE PUSH2 0x1D4F DUP2 PUSH2 0x1D16 JUMP JUMPDEST SWAP1 POP SWAP2 SWAP1 POP JUMP JUMPDEST PUSH0 DUP2 MLOAD SWAP1 POP PUSH2 0x1D64 DUP2 PUSH2 0x18F4 JUMP JUMPDEST SWAP3 SWAP2 POP POP JUMP JUMPDEST PUSH0 PUSH1 0x20 DUP3 DUP5 SUB SLT ISZERO PUSH2 0x1D7F JUMPI PUSH2 0x1D7E PUSH2 0x172D JUMP JUMPDEST JUMPDEST PUSH0 PUSH2 0x1D8C DUP5 DUP3 DUP6 ADD PUSH2 0x1D56 JUMP JUMPDEST SWAP2 POP POP SWAP3 SWAP2 POP POP JUMP JUMPDEST PUSH0 PUSH1 0x40 DUP3 ADD SWAP1 POP PUSH2 0x1DA8 PUSH0 DUP4 ADD DUP6 PUSH2 0x1A09 JUMP JUMPDEST PUSH2 0x1DB5 PUSH1 0x20 DUP4 ADD DUP5 PUSH2 0x19E1 JUMP JUMPDEST SWAP4 SWAP3 POP POP POP JUMP JUMPDEST PUSH0 DUP2 ISZERO ISZERO SWAP1 POP SWAP2 SWAP1 POP JUMP JUMPDEST PUSH2 0x1DD0 DUP2 PUSH2 0x1DBC JUMP JUMPDEST DUP2 EQ PUSH2 0x1DDA JUMPI PUSH0 DUP1 REVERT JUMPDEST POP JUMP JUMPDEST PUSH0 DUP2 MLOAD SWAP1 POP PUSH2 0x1DEB DUP2 PUSH2 0x1DC7 JUMP JUMPDEST SWAP3 SWAP2 POP POP JUMP JUMPDEST PUSH0 PUSH1 0x20 DUP3 DUP5 SUB SLT ISZERO PUSH2 0x1E06 JUMPI PUSH2 0x1E05 PUSH2 0x172D JUMP JUMPDEST JUMPDEST PUSH0 PUSH2 0x1E13 DUP5 DUP3 DUP6 ADD PUSH2 0x1DDD JUMP JUMPDEST SWAP2 POP POP SWAP3 SWAP2 POP POP JUMP JUMPDEST PUSH32 0x556E61626C6520746F207472616E736665720000000000000000000000000000 PUSH0 DUP3 ADD MSTORE POP JUMP JUMPDEST PUSH0 PUSH2 0x1E50 PUSH1 0x12 DUP4 PUSH2 0x1A3B JUMP JUMPDEST SWAP2 POP PUSH2 0x1E5B DUP3 PUSH2 0x1E1C JUMP JUMPDEST PUSH1 0x20 DUP3 ADD SWAP1 POP SWAP2 SWAP1 POP JUMP JUMPDEST PUSH0 PUSH1 0x20 DUP3 ADD SWAP1 POP DUP2 DUP2 SUB PUSH0 DUP4 ADD MSTORE PUSH2 0x1E7D DUP2 PUSH2 0x1E44 JUMP JUMPDEST SWAP1 POP SWAP2 SWAP1 POP JUMP JUMPDEST PUSH0 DUP2 SWAP1 POP SWAP2 SWAP1 POP JUMP JUMPDEST PUSH2 0x1E9E PUSH2 0x1E99 DUP3 PUSH2 0x18B8 JUMP JUMPDEST PUSH2 0x1E84 JUMP JUMPDEST DUP3 MSTORE POP POP JUMP JUMPDEST PUSH0 PUSH2 0x1EAF DUP3 DUP5 PUSH2 0x1E8D JUMP JUMPDEST PUSH1 0x20 DUP3 ADD SWAP2 POP DUP2 SWAP1 POP SWAP3 SWAP2 POP POP JUMP JUMPDEST PUSH32 0x4F6E6C792063616C6C61626C65206279206F776E657200000000000000000000 PUSH0 DUP3 ADD MSTORE POP JUMP JUMPDEST PUSH0 PUSH2 0x1EF2 PUSH1 0x16 DUP4 PUSH2 0x1A3B JUMP JUMPDEST SWAP2 POP PUSH2 0x1EFD DUP3 PUSH2 0x1EBE JUMP JUMPDEST PUSH1 0x20 DUP3 ADD SWAP1 POP SWAP2 SWAP1 POP JUMP JUMPDEST PUSH0 PUSH1 0x20 DUP3 ADD SWAP1 POP DUP2 DUP2 SUB PUSH0 DUP4 ADD MSTORE PUSH2 0x1F1F DUP2 PUSH2 0x1EE6 JUMP JUMPDEST SWAP1 POP SWAP2 SWAP1 POP JUMP JUMPDEST PUSH32 0x43616E6E6F74207472616E7366657220746F2073656C66000000000000000000 PUSH0 DUP3 ADD MSTORE POP JUMP JUMPDEST PUSH0 PUSH2 0x1F5A PUSH1 0x17 DUP4 PUSH2 0x1A3B JUMP JUMPDEST SWAP2 POP PUSH2 0x1F65 DUP3 PUSH2 0x1F26 JUMP JUMPDEST PUSH1 0x20 DUP3 ADD SWAP1 POP SWAP2 SWAP1 POP JUMP JUMPDEST PUSH0 PUSH1 0x20 DUP3 ADD SWAP1 POP DUP2 DUP2 SUB PUSH0 DUP4 ADD MSTORE PUSH2 0x1F87 DUP2 PUSH2 0x1F4E JUMP JUMPDEST SWAP1 POP SWAP2 SWAP1 POP JUMP JUMPDEST PUSH0 DUP2 SWAP1 POP SWAP2 SWAP1 POP JUMP JUMPDEST PUSH0 PUSH2 0x1FA1 DUP3 PUSH2 0x1F8E JUMP JUMPDEST SWAP2 POP PUSH2 0x1FAC DUP4 PUSH2 0x1F8E JUMP JUMPDEST SWAP3 POP DUP3 DUP3 SUB SWAP1 POP DUP2 DUP2 SLT PUSH0 DUP5 SLT AND DUP3 DUP3 SGT PUSH0 DUP6 SLT ISZERO AND OR ISZERO PUSH2 0x1FD1 JUMPI PUSH2 0x1FD0 PUSH2 0x1C23 JUMP JUMPDEST JUMPDEST SWAP3 SWAP2 POP POP JUMP JUMPDEST PUSH0 PUSH2 0x1FE1 DUP3 PUSH2 0x18EB JUMP JUMPDEST SWAP2 POP PUSH2 0x1FEC DUP4 PUSH2 0x18EB JUMP JUMPDEST SWAP3 POP DUP3 DUP3 ADD SWAP1 POP DUP1 DUP3 GT ISZERO PUSH2 0x2004 JUMPI PUSH2 0x2003 PUSH2 0x1C23 JUMP JUMPDEST JUMPDEST SWAP3 SWAP2 POP POP JUMP JUMPDEST PUSH2 0x2013 DUP2 PUSH2 0x18B8 JUMP JUMPDEST DUP3 MSTORE POP POP JUMP JUMPDEST PUSH0 PUSH32 0xFFFFFFFF00000000000000000000000000000000000000000000000000000000 DUP3 AND SWAP1 POP SWAP2 SWAP1 POP JUMP JUMPDEST PUSH2 0x204D DUP2 PUSH2 0x2019 JUMP JUMPDEST DUP3 MSTORE POP POP JUMP JUMPDEST PUSH0 DUP3 DUP3 MSTORE PUSH1 0x20 DUP3 ADD SWAP1 POP SWAP3 SWAP2 POP POP JUMP JUMPDEST PUSH0 PUSH2 0x206D DUP3 PUSH2 0x1AF6 JUMP JUMPDEST PUSH2 0x2077 DUP2 DUP6 PUSH2 0x2053 JUMP JUMPDEST SWAP4 POP PUSH2 0x2087 DUP2 DUP6 PUSH1 0x20 DUP7 ADD PUSH2 0x1A4B JUMP JUMPDEST PUSH2 0x2090 DUP2 PUSH2 0x173D JUMP JUMPDEST DUP5 ADD SWAP2 POP POP SWAP3 SWAP2 POP POP JUMP JUMPDEST PUSH0 PUSH1 0xE0 DUP3 ADD SWAP1 POP PUSH2 0x20AE PUSH0 DUP4 ADD DUP11 PUSH2 0x1A09 JUMP JUMPDEST PUSH2 0x20BB PUSH1 0x20 DUP4 ADD DUP10 PUSH2 0x19E1 JUMP JUMPDEST PUSH2 0x20C8 PUSH1 0x40 DUP4 ADD DUP9 PUSH2 0x200A JUMP JUMPDEST PUSH2 0x20D5 PUSH1 0x60 DUP4 ADD DUP8 PUSH2 0x2044 JUMP JUMPDEST PUSH2 0x20E2 PUSH1 0x80 DUP4 ADD DUP7 PUSH2 0x19E1 JUMP JUMPDEST PUSH2 0x20EF PUSH1 0xA0 DUP4 ADD DUP6 PUSH2 0x19E1 JUMP JUMPDEST DUP2 DUP2 SUB PUSH1 0xC0 DUP4 ADD MSTORE PUSH2 0x2101 DUP2 DUP5 PUSH2 0x2063 JUMP JUMPDEST SWAP1 POP SWAP9 SWAP8 POP POP POP POP POP POP POP POP JUMP JUMPDEST PUSH0 PUSH2 0x2119 DUP3 PUSH2 0x18EB JUMP JUMPDEST SWAP2 POP PUSH2 0x2124 DUP4 PUSH2 0x18EB JUMP JUMPDEST SWAP3 POP DUP3 PUSH2 0x2134 JUMPI PUSH2 0x2133 PUSH2 0x1C91 JUMP JUMPDEST JUMPDEST DUP3 DUP3 MOD SWAP1 POP SWAP3 SWAP2 POP POP JUMP JUMPDEST PUSH0 PUSH2 0x2149 DUP3 PUSH2 0x18EB JUMP JUMPDEST SWAP2 POP PUSH2 0x2154 DUP4 PUSH2 0x18EB JUMP JUMPDEST SWAP3 POP DUP3 DUP3 SUB SWAP1 POP DUP2 DUP2 GT ISZERO PUSH2 0x216C JUMPI PUSH2 0x216B PUSH2 0x1C23 JUMP JUMPDEST JUMPDEST SWAP3 SWAP2 POP POP JUMP JUMPDEST PUSH0 DUP2 SWAP1 POP SWAP2 SWAP1 POP JUMP JUMPDEST PUSH0 PUSH2 0x2195 PUSH2 0x2190 PUSH2 0x218B DUP5 PUSH2 0x195C JUMP JUMPDEST PUSH2 0x2172 JUMP JUMPDEST PUSH2 0x195C JUMP JUMPDEST SWAP1 POP SWAP2 SWAP1 POP JUMP JUMPDEST PUSH0 PUSH2 0x21A6 DUP3 PUSH2 0x217B JUMP JUMPDEST SWAP1 POP SWAP2 SWAP1 POP JUMP JUMPDEST PUSH0 PUSH2 0x21B7 DUP3 PUSH2 0x219C JUMP JUMPDEST SWAP1 POP SWAP2 SWAP1 POP JUMP JUMPDEST PUSH0 DUP2 PUSH1 0x60 SHL SWAP1 POP SWAP2 SWAP1 POP JUMP JUMPDEST PUSH0 PUSH2 0x21D4 DUP3 PUSH2 0x21BE JUMP JUMPDEST SWAP1 POP SWAP2 SWAP1 POP JUMP JUMPDEST PUSH0 PUSH2 0x21E5 DUP3 PUSH2 0x21CA JUMP JUMPDEST SWAP1 POP SWAP2 SWAP1 POP JUMP JUMPDEST PUSH2 0x21FD PUSH2 0x21F8 DUP3 PUSH2 0x21AD JUMP JUMPDEST PUSH2 0x21DB JUMP JUMPDEST DUP3 MSTORE POP POP JUMP JUMPDEST PUSH0 DUP2 SWAP1 POP SWAP2 SWAP1 POP JUMP JUMPDEST PUSH2 0x221D PUSH2 0x2218 DUP3 PUSH2 0x18EB JUMP JUMPDEST PUSH2 0x2203 JUMP JUMPDEST DUP3 MSTORE POP POP JUMP JUMPDEST PUSH0 PUSH2 0x222E DUP3 DUP6 PUSH2 0x21EC JUMP JUMPDEST PUSH1 0x14 DUP3 ADD SWAP2 POP PUSH2 0x223E DUP3 DUP5 PUSH2 0x220C JUMP JUMPDEST PUSH1 0x20 DUP3 ADD SWAP2 POP DUP2 SWAP1 POP SWAP4 SWAP3 POP POP POP JUMP JUMPDEST PUSH0 PUSH1 0x60 DUP3 ADD SWAP1 POP PUSH2 0x2261 PUSH0 DUP4 ADD DUP7 PUSH2 0x1A09 JUMP JUMPDEST PUSH2 0x226E PUSH1 0x20 DUP4 ADD DUP6 PUSH2 0x19E1 JUMP JUMPDEST DUP2 DUP2 SUB PUSH1 0x40 DUP4 ADD MSTORE PUSH2 0x2280 DUP2 DUP5 PUSH2 0x2063 JUMP JUMPDEST SWAP1 POP SWAP5 SWAP4 POP POP POP POP JUMP JUMPDEST PUSH32 0x756E61626C6520746F207472616E73666572416E6443616C6C20746F206F7261 PUSH0 DUP3 ADD MSTORE PUSH32 0x636C650000000000000000000000000000000000000000000000000000000000 PUSH1 0x20 DUP3 ADD MSTORE POP JUMP JUMPDEST PUSH0 PUSH2 0x22E4 PUSH1 0x23 DUP4 PUSH2 0x1A3B JUMP JUMPDEST SWAP2 POP PUSH2 0x22EF DUP3 PUSH2 0x228A JUMP JUMPDEST PUSH1 0x40 DUP3 ADD SWAP1 POP SWAP2 SWAP1 POP JUMP JUMPDEST PUSH0 PUSH1 0x20 DUP3 ADD SWAP1 POP DUP2 DUP2 SUB PUSH0 DUP4 ADD MSTORE PUSH2 0x2311 DUP2 PUSH2 0x22D8 JUMP JUMPDEST SWAP1 POP SWAP2 SWAP1 POP JUMP JUMPDEST PUSH0 DUP2 PUSH1 0x1 SHR SWAP1 POP SWAP2 SWAP1 POP JUMP JUMPDEST PUSH0 DUP1 DUP3 SWAP2 POP DUP4 SWAP1 POP JUMPDEST PUSH1 0x1 DUP6 GT ISZERO PUSH2 0x236D JUMPI DUP1 DUP7 DIV DUP2 GT ISZERO PUSH2 0x2349 JUMPI PUSH2 0x2348 PUSH2 0x1C23 JUMP JUMPDEST JUMPDEST PUSH1 0x1 DUP6 AND ISZERO PUSH2 0x2358 JUMPI DUP1 DUP3 MUL SWAP2 POP JUMPDEST DUP1 DUP2 MUL SWAP1 POP PUSH2 0x2366 DUP6 PUSH2 0x2318 JUMP JUMPDEST SWAP5 POP PUSH2 0x232D JUMP JUMPDEST SWAP5 POP SWAP5 SWAP3 POP POP POP JUMP JUMPDEST PUSH0 DUP3 PUSH2 0x2385 JUMPI PUSH1 0x1 SWAP1 POP PUSH2 0x2440 JUMP JUMPDEST DUP2 PUSH2 0x2392 JUMPI PUSH0 SWAP1 POP PUSH2 0x2440 JUMP JUMPDEST DUP2 PUSH1 0x1 DUP2 EQ PUSH2 0x23A8 JUMPI PUSH1 0x2 DUP2 EQ PUSH2 0x23B2 JUMPI PUSH2 0x23E1 JUMP JUMPDEST PUSH1 0x1 SWAP2 POP POP PUSH2 0x2440 JUMP JUMPDEST PUSH1 0xFF DUP5 GT ISZERO PUSH2 0x23C4 JUMPI PUSH2 0x23C3 PUSH2 0x1C23 JUMP JUMPDEST JUMPDEST DUP4 PUSH1 0x2 EXP SWAP2 POP DUP5 DUP3 GT ISZERO PUSH2 0x23DB JUMPI PUSH2 0x23DA PUSH2 0x1C23 JUMP JUMPDEST JUMPDEST POP PUSH2 0x2440 JUMP JUMPDEST POP PUSH1 0x20 DUP4 LT PUSH2 0x133 DUP4 LT AND PUSH1 0x4E DUP5 LT PUSH1 0xB DUP5 LT AND OR ISZERO PUSH2 0x2416 JUMPI DUP3 DUP3 EXP SWAP1 POP DUP4 DUP2 GT ISZERO PUSH2 0x2411 JUMPI PUSH2 0x2410 PUSH2 0x1C23 JUMP JUMPDEST JUMPDEST PUSH2 0x2440 JUMP JUMPDEST PUSH2 0x2423 DUP5 DUP5 DUP5 PUSH1 0x1 PUSH2 0x2324 JUMP JUMPDEST SWAP3 POP SWAP1 POP DUP2 DUP5 DIV DUP2 GT ISZERO PUSH2 0x243A JUMPI PUSH2 0x2439 PUSH2 0x1C23 JUMP JUMPDEST JUMPDEST DUP2 DUP2 MUL SWAP1 POP JUMPDEST SWAP4 SWAP3 POP POP POP JUMP JUMPDEST PUSH0 PUSH2 0x2451 DUP3 PUSH2 0x18EB JUMP JUMPDEST SWAP2 POP PUSH2 0x245C DUP4 PUSH2 0x18EB JUMP JUMPDEST SWAP3 POP PUSH2 0x2489 PUSH32 0xFFFFFFFFFFFFFFFFFFFFFFFFFFFFFFFFFFFFFFFFFFFFFFFFFFFFFFFFFFFFFFFF DUP5 DUP5 PUSH2 0x2376 JUMP JUMPDEST SWAP1 POP SWAP3 SWAP2 POP POP JUMP INVALID PUSH9 0x747470733A2F2F6D69 PUSH15 0x2D6170692E63727970746F636F6D70 PUSH2 0x7265 0x2E PUSH4 0x6F6D2F64 PUSH2 0x7461 0x2F PUSH17 0x726963656D756C74693F6673796D733D42 SLOAD NUMBER 0x2C GASLIMIT SLOAD BASEFEE 0x26 PUSH21 0x73796D733D5553442C4555525B22636F6E74656E74 0x2D PUSH21 0x797065222C20226170706C69636174696F6E2F6A73 PUSH16 0x6E222C20227365742D636F6F6B696522 0x2C KECCAK256 0x22 PUSH20 0x69643D3134413532225DA2646970667358221220 0x27 0xB5 0x2D 0xE6 0xE4 CALLER 0xC9 0xEB 0xF 0xDE PUSH20 0x656F1D13DD01816B1758A6A48A3D7291A90C48CE 0x22 PUSH5 0x736F6C6343 STOP ADDMOD XOR STOP CALLER "
		},
		"gasEstimates": {
			"creation": {
				"codeDepositCost": "1911000",
				"executionCost": "infinite",
				"totalCost": "infinite"
			},
			"external": {
				"acceptOwnership()": "54600",
				"fulfill(bytes32,uint256)": "50476",
				"getFeeInHundredthsOfLink()": "infinite",
				"getJobId()": "infinite",
				"getOracleAddress()": "4730",
				"owner()": "2538",
				"request()": "infinite",
				"response()": "2514",
				"setFeeInHundredthsOfLink(uint256)": "infinite",
				"setFeeInJuels(uint256)": "24752",
				"setJobId(string)": "infinite",
				"setOracleAddress(address)": "51226",
				"transferOwnership(address)": "30717",
				"withdrawLink()": "infinite"
			}
		},
		"methodIdentifiers": {
			"acceptOwnership()": "79ba5097",
			"fulfill(bytes32,uint256)": "4357855e",
			"getFeeInHundredthsOfLink()": "56237682",
			"getJobId()": "b02f7fe0",
			"getOracleAddress()": "b18b78dd",
			"owner()": "8da5cb5b",
			"request()": "338cdca1",
			"response()": "7a7f01a7",
			"setFeeInHundredthsOfLink(uint256)": "f34473a5",
			"setFeeInJuels(uint256)": "e3da201d",
			"setJobId(string)": "129fc1c0",
			"setOracleAddress(address)": "4c69c00f",
			"transferOwnership(address)": "f2fde38b",
			"withdrawLink()": "8dc654a2"
		}
	},
	"abi": [
		{
			"inputs": [],
			"stateMutability": "nonpayable",
			"type": "constructor"
		},
		{
			"anonymous": false,
			"inputs": [
				{
					"indexed": true,
					"internalType": "bytes32",
					"name": "id",
					"type": "bytes32"
				}
			],
			"name": "ChainlinkCancelled",
			"type": "event"
		},
		{
			"anonymous": false,
			"inputs": [
				{
					"indexed": true,
					"internalType": "bytes32",
					"name": "id",
					"type": "bytes32"
				}
			],
			"name": "ChainlinkFulfilled",
			"type": "event"
		},
		{
			"anonymous": false,
			"inputs": [
				{
					"indexed": true,
					"internalType": "bytes32",
					"name": "id",
					"type": "bytes32"
				}
			],
			"name": "ChainlinkRequested",
			"type": "event"
		},
		{
			"anonymous": false,
			"inputs": [
				{
					"indexed": true,
					"internalType": "address",
					"name": "from",
					"type": "address"
				},
				{
					"indexed": true,
					"internalType": "address",
					"name": "to",
					"type": "address"
				}
			],
			"name": "OwnershipTransferRequested",
			"type": "event"
		},
		{
			"anonymous": false,
			"inputs": [
				{
					"indexed": true,
					"internalType": "address",
					"name": "from",
					"type": "address"
				},
				{
					"indexed": true,
					"internalType": "address",
					"name": "to",
					"type": "address"
				}
			],
			"name": "OwnershipTransferred",
			"type": "event"
		},
		{
			"anonymous": false,
			"inputs": [
				{
					"indexed": true,
					"internalType": "bytes32",
					"name": "requestId",
					"type": "bytes32"
				}
			],
			"name": "RequestFulfilled",
			"type": "event"
		},
		{
			"inputs": [],
			"name": "acceptOwnership",
			"outputs": [],
			"stateMutability": "nonpayable",
			"type": "function"
		},
		{
			"inputs": [
				{
					"internalType": "bytes32",
					"name": "requestId",
					"type": "bytes32"
				},
				{
					"internalType": "uint256",
					"name": "data",
					"type": "uint256"
				}
			],
			"name": "fulfill",
			"outputs": [],
			"stateMutability": "nonpayable",
			"type": "function"
		},
		{
			"inputs": [],
			"name": "getFeeInHundredthsOfLink",
			"outputs": [
				{
					"internalType": "uint256",
					"name": "",
					"type": "uint256"
				}
			],
			"stateMutability": "view",
			"type": "function"
		},
		{
			"inputs": [],
			"name": "getJobId",
			"outputs": [
				{
					"internalType": "string",
					"name": "",
					"type": "string"
				}
			],
			"stateMutability": "view",
			"type": "function"
		},
		{
			"inputs": [],
			"name": "getOracleAddress",
			"outputs": [
				{
					"internalType": "address",
					"name": "",
					"type": "address"
				}
			],
			"stateMutability": "view",
			"type": "function"
		},
		{
			"inputs": [],
			"name": "owner",
			"outputs": [
				{
					"internalType": "address",
					"name": "",
					"type": "address"
				}
			],
			"stateMutability": "view",
			"type": "function"
		},
		{
			"inputs": [],
			"name": "request",
			"outputs": [],
			"stateMutability": "nonpayable",
			"type": "function"
		},
		{
			"inputs": [],
			"name": "response",
			"outputs": [
				{
					"internalType": "uint256",
					"name": "",
					"type": "uint256"
				}
			],
			"stateMutability": "view",
			"type": "function"
		},
		{
			"inputs": [
				{
					"internalType": "uint256",
					"name": "_feeInHundredthsOfLink",
					"type": "uint256"
				}
			],
			"name": "setFeeInHundredthsOfLink",
			"outputs": [],
			"stateMutability": "nonpayable",
			"type": "function"
		},
		{
			"inputs": [
				{
					"internalType": "uint256",
					"name": "_feeInJuels",
					"type": "uint256"
				}
			],
			"name": "setFeeInJuels",
			"outputs": [],
			"stateMutability": "nonpayable",
			"type": "function"
		},
		{
			"inputs": [
				{
					"internalType": "string",
					"name": "_jobId",
					"type": "string"
				}
			],
			"name": "setJobId",
			"outputs": [],
			"stateMutability": "nonpayable",
			"type": "function"
		},
		{
			"inputs": [
				{
					"internalType": "address",
					"name": "_oracleAddress",
					"type": "address"
				}
			],
			"name": "setOracleAddress",
			"outputs": [],
			"stateMutability": "nonpayable",
			"type": "function"
		},
		{
			"inputs": [
				{
					"internalType": "address",
					"name": "to",
					"type": "address"
				}
			],
			"name": "transferOwnership",
			"outputs": [],
			"stateMutability": "nonpayable",
			"type": "function"
		},
		{
			"inputs": [],
			"name": "withdrawLink",
			"outputs": [],
			"stateMutability": "nonpayable",
			"type": "function"
		}
	]
}