{
	"contracts/AquoNFT.sol": {
		"AssetShares": {
			"abi": [
				{
					"inputs": [
						{
							"internalType": "uint256",
							"name": "_totalShares",
							"type": "uint256"
						}
					],
					"stateMutability": "nonpayable",
					"type": "constructor"
				},
				{
					"inputs": [
						{
							"internalType": "address",
							"name": "sender",
							"type": "address"
						},
						{
							"internalType": "uint256",
							"name": "tokenId",
							"type": "uint256"
						},
						{
							"internalType": "address",
							"name": "owner",
							"type": "address"
						}
					],
					"name": "ERC721IncorrectOwner",
					"type": "error"
				},
				{
					"inputs": [
						{
							"internalType": "address",
							"name": "operator",
							"type": "address"
						},
						{
							"internalType": "uint256",
							"name": "tokenId",
							"type": "uint256"
						}
					],
					"name": "ERC721InsufficientApproval",
					"type": "error"
				},
				{
					"inputs": [
						{
							"internalType": "address",
							"name": "approver",
							"type": "address"
						}
					],
					"name": "ERC721InvalidApprover",
					"type": "error"
				},
				{
					"inputs": [
						{
							"internalType": "address",
							"name": "operator",
							"type": "address"
						}
					],
					"name": "ERC721InvalidOperator",
					"type": "error"
				},
				{
					"inputs": [
						{
							"internalType": "address",
							"name": "owner",
							"type": "address"
						}
					],
					"name": "ERC721InvalidOwner",
					"type": "error"
				},
				{
					"inputs": [
						{
							"internalType": "address",
							"name": "receiver",
							"type": "address"
						}
					],
					"name": "ERC721InvalidReceiver",
					"type": "error"
				},
				{
					"inputs": [
						{
							"internalType": "address",
							"name": "sender",
							"type": "address"
						}
					],
					"name": "ERC721InvalidSender",
					"type": "error"
				},
				{
					"inputs": [
						{
							"internalType": "uint256",
							"name": "tokenId",
							"type": "uint256"
						}
					],
					"name": "ERC721NonexistentToken",
					"type": "error"
				},
				{
					"anonymous": false,
					"inputs": [
						{
							"indexed": true,
							"internalType": "address",
							"name": "owner",
							"type": "address"
						},
						{
							"indexed": true,
							"internalType": "address",
							"name": "approved",
							"type": "address"
						},
						{
							"indexed": true,
							"internalType": "uint256",
							"name": "tokenId",
							"type": "uint256"
						}
					],
					"name": "Approval",
					"type": "event"
				},
				{
					"anonymous": false,
					"inputs": [
						{
							"indexed": true,
							"internalType": "address",
							"name": "owner",
							"type": "address"
						},
						{
							"indexed": true,
							"internalType": "address",
							"name": "operator",
							"type": "address"
						},
						{
							"indexed": false,
							"internalType": "bool",
							"name": "approved",
							"type": "bool"
						}
					],
					"name": "ApprovalForAll",
					"type": "event"
				},
				{
					"anonymous": false,
					"inputs": [
						{
							"indexed": false,
							"internalType": "uint256",
							"name": "_fromTokenId",
							"type": "uint256"
						},
						{
							"indexed": false,
							"internalType": "uint256",
							"name": "_toTokenId",
							"type": "uint256"
						}
					],
					"name": "BatchMetadataUpdate",
					"type": "event"
				},
				{
					"anonymous": false,
					"inputs": [
						{
							"indexed": false,
							"internalType": "uint256",
							"name": "_tokenId",
							"type": "uint256"
						}
					],
					"name": "MetadataUpdate",
					"type": "event"
				},
				{
					"anonymous": false,
					"inputs": [
						{
							"indexed": true,
							"internalType": "address",
							"name": "previousOwner",
							"type": "address"
						},
						{
							"indexed": true,
							"internalType": "address",
							"name": "newOwner",
							"type": "address"
						}
					],
					"name": "OwnershipTransferred",
					"type": "event"
				},
				{
					"anonymous": false,
					"inputs": [
						{
							"indexed": true,
							"internalType": "address",
							"name": "from",
							"type": "address"
						},
						{
							"indexed": true,
							"internalType": "address",
							"name": "to",
							"type": "address"
						},
						{
							"indexed": true,
							"internalType": "uint256",
							"name": "tokenId",
							"type": "uint256"
						}
					],
					"name": "Transfer",
					"type": "event"
				},
				{
					"inputs": [
						{
							"internalType": "uint256",
							"name": "_shares",
							"type": "uint256"
						},
						{
							"internalType": "address",
							"name": "_recipient",
							"type": "address"
						}
					],
					"name": "allocateShares",
					"outputs": [],
					"stateMutability": "nonpayable",
					"type": "function"
				},
				{
					"inputs": [
						{
							"internalType": "address",
							"name": "to",
							"type": "address"
						},
						{
							"internalType": "uint256",
							"name": "tokenId",
							"type": "uint256"
						}
					],
					"name": "approve",
					"outputs": [],
					"stateMutability": "nonpayable",
					"type": "function"
				},
				{
					"inputs": [
						{
							"internalType": "address",
							"name": "owner",
							"type": "address"
						}
					],
					"name": "balanceOf",
					"outputs": [
						{
							"internalType": "uint256",
							"name": "",
							"type": "uint256"
						}
					],
					"stateMutability": "view",
					"type": "function"
				},
				{
					"inputs": [
						{
							"internalType": "uint256",
							"name": "tokenId",
							"type": "uint256"
						}
					],
					"name": "getApproved",
					"outputs": [
						{
							"internalType": "address",
							"name": "",
							"type": "address"
						}
					],
					"stateMutability": "view",
					"type": "function"
				},
				{
					"inputs": [
						{
							"internalType": "address",
							"name": "owner",
							"type": "address"
						}
					],
					"name": "getSharesOfAddress",
					"outputs": [
						{
							"internalType": "uint256",
							"name": "",
							"type": "uint256"
						}
					],
					"stateMutability": "view",
					"type": "function"
				},
				{
					"inputs": [
						{
							"internalType": "uint256",
							"name": "tokenId",
							"type": "uint256"
						}
					],
					"name": "getSharesOfToken",
					"outputs": [
						{
							"internalType": "uint256",
							"name": "",
							"type": "uint256"
						}
					],
					"stateMutability": "view",
					"type": "function"
				},
				{
					"inputs": [
						{
							"internalType": "address",
							"name": "owner",
							"type": "address"
						},
						{
							"internalType": "address",
							"name": "operator",
							"type": "address"
						}
					],
					"name": "isApprovedForAll",
					"outputs": [
						{
							"internalType": "bool",
							"name": "",
							"type": "bool"
						}
					],
					"stateMutability": "view",
					"type": "function"
				},
				{
					"inputs": [],
					"name": "name",
					"outputs": [
						{
							"internalType": "string",
							"name": "",
							"type": "string"
						}
					],
					"stateMutability": "view",
					"type": "function"
				},
				{
					"inputs": [],
					"name": "nextTokenId",
					"outputs": [
						{
							"internalType": "uint256",
							"name": "",
							"type": "uint256"
						}
					],
					"stateMutability": "view",
					"type": "function"
				},
				{
					"inputs": [],
					"name": "owner",
					"outputs": [
						{
							"internalType": "address",
							"name": "",
							"type": "address"
						}
					],
					"stateMutability": "view",
					"type": "function"
				},
				{
					"inputs": [
						{
							"internalType": "uint256",
							"name": "tokenId",
							"type": "uint256"
						}
					],
					"name": "ownerOf",
					"outputs": [
						{
							"internalType": "address",
							"name": "",
							"type": "address"
						}
					],
					"stateMutability": "view",
					"type": "function"
				},
				{
					"inputs": [],
					"name": "renounceOwnership",
					"outputs": [],
					"stateMutability": "nonpayable",
					"type": "function"
				},
				{
					"inputs": [
						{
							"internalType": "address",
							"name": "from",
							"type": "address"
						},
						{
							"internalType": "address",
							"name": "to",
							"type": "address"
						},
						{
							"internalType": "uint256",
							"name": "tokenId",
							"type": "uint256"
						}
					],
					"name": "safeTransferFrom",
					"outputs": [],
					"stateMutability": "nonpayable",
					"type": "function"
				},
				{
					"inputs": [
						{
							"internalType": "address",
							"name": "from",
							"type": "address"
						},
						{
							"internalType": "address",
							"name": "to",
							"type": "address"
						},
						{
							"internalType": "uint256",
							"name": "tokenId",
							"type": "uint256"
						},
						{
							"internalType": "bytes",
							"name": "data",
							"type": "bytes"
						}
					],
					"name": "safeTransferFrom",
					"outputs": [],
					"stateMutability": "nonpayable",
					"type": "function"
				},
				{
					"inputs": [
						{
							"internalType": "address",
							"name": "operator",
							"type": "address"
						},
						{
							"internalType": "bool",
							"name": "approved",
							"type": "bool"
						}
					],
					"name": "setApprovalForAll",
					"outputs": [],
					"stateMutability": "nonpayable",
					"type": "function"
				},
				{
					"inputs": [],
					"name": "sharesAllocated",
					"outputs": [
						{
							"internalType": "uint256",
							"name": "",
							"type": "uint256"
						}
					],
					"stateMutability": "view",
					"type": "function"
				},
				{
					"inputs": [
						{
							"internalType": "address",
							"name": "",
							"type": "address"
						}
					],
					"name": "sharesOfOwner",
					"outputs": [
						{
							"internalType": "uint256",
							"name": "",
							"type": "uint256"
						}
					],
					"stateMutability": "view",
					"type": "function"
				},
				{
					"inputs": [
						{
							"internalType": "bytes4",
							"name": "interfaceId",
							"type": "bytes4"
						}
					],
					"name": "supportsInterface",
					"outputs": [
						{
							"internalType": "bool",
							"name": "",
							"type": "bool"
						}
					],
					"stateMutability": "view",
					"type": "function"
				},
				{
					"inputs": [],
					"name": "symbol",
					"outputs": [
						{
							"internalType": "string",
							"name": "",
							"type": "string"
						}
					],
					"stateMutability": "view",
					"type": "function"
				},
				{
					"inputs": [
						{
							"internalType": "uint256",
							"name": "",
							"type": "uint256"
						}
					],
					"name": "tokenShares",
					"outputs": [
						{
							"internalType": "uint256",
							"name": "",
							"type": "uint256"
						}
					],
					"stateMutability": "view",
					"type": "function"
				},
				{
					"inputs": [
						{
							"internalType": "uint256",
							"name": "tokenId",
							"type": "uint256"
						}
					],
					"name": "tokenURI",
					"outputs": [
						{
							"internalType": "string",
							"name": "",
							"type": "string"
						}
					],
					"stateMutability": "view",
					"type": "function"
				},
				{
					"inputs": [],
					"name": "totalShares",
					"outputs": [
						{
							"internalType": "uint256",
							"name": "",
							"type": "uint256"
						}
					],
					"stateMutability": "view",
					"type": "function"
				},
				{
					"inputs": [
						{
							"internalType": "address",
							"name": "from",
							"type": "address"
						},
						{
							"internalType": "address",
							"name": "to",
							"type": "address"
						},
						{
							"internalType": "uint256",
							"name": "tokenId",
							"type": "uint256"
						}
					],
					"name": "transferFrom",
					"outputs": [],
					"stateMutability": "nonpayable",
					"type": "function"
				},
				{
					"inputs": [
						{
							"internalType": "address",
							"name": "newOwner",
							"type": "address"
						}
					],
					"name": "transferOwnership",
					"outputs": [],
					"stateMutability": "nonpayable",
					"type": "function"
				},
				{
					"inputs": [
						{
							"internalType": "uint256",
							"name": "_tokenId",
							"type": "uint256"
						},
						{
							"internalType": "uint256",
							"name": "_shares",
							"type": "uint256"
						},
						{
							"internalType": "address",
							"name": "_recipient",
							"type": "address"
						}
					],
					"name": "transferShares",
					"outputs": [],
					"stateMutability": "nonpayable",
					"type": "function"
				}
			],
			"devdoc": {
				"errors": {
					"ERC721IncorrectOwner(address,uint256,address)": [
						{
							"details": "Indicates an error related to the ownership over a particular token. Used in transfers.",
							"params": {
								"owner": "Address of the current owner of a token.",
								"sender": "Address whose tokens are being transferred.",
								"tokenId": "Identifier number of a token."
							}
						}
					],
					"ERC721InsufficientApproval(address,uint256)": [
						{
							"details": "Indicates a failure with the `operator`’s approval. Used in transfers.",
							"params": {
								"operator": "Address that may be allowed to operate on tokens without being their owner.",
								"tokenId": "Identifier number of a token."
							}
						}
					],
					"ERC721InvalidApprover(address)": [
						{
							"details": "Indicates a failure with the `approver` of a token to be approved. Used in approvals.",
							"params": {
								"approver": "Address initiating an approval operation."
							}
						}
					],
					"ERC721InvalidOperator(address)": [
						{
							"details": "Indicates a failure with the `operator` to be approved. Used in approvals.",
							"params": {
								"operator": "Address that may be allowed to operate on tokens without being their owner."
							}
						}
					],
					"ERC721InvalidOwner(address)": [
						{
							"details": "Indicates that an address can't be an owner. For example, `address(0)` is a forbidden owner in EIP-20. Used in balance queries.",
							"params": {
								"owner": "Address of the current owner of a token."
							}
						}
					],
					"ERC721InvalidReceiver(address)": [
						{
							"details": "Indicates a failure with the token `receiver`. Used in transfers.",
							"params": {
								"receiver": "Address to which tokens are being transferred."
							}
						}
					],
					"ERC721InvalidSender(address)": [
						{
							"details": "Indicates a failure with the token `sender`. Used in transfers.",
							"params": {
								"sender": "Address whose tokens are being transferred."
							}
						}
					],
					"ERC721NonexistentToken(uint256)": [
						{
							"details": "Indicates a `tokenId` whose `owner` is the zero address.",
							"params": {
								"tokenId": "Identifier number of a token."
							}
						}
					]
				},
				"events": {
					"Approval(address,address,uint256)": {
						"details": "Emitted when `owner` enables `approved` to manage the `tokenId` token."
					},
					"ApprovalForAll(address,address,bool)": {
						"details": "Emitted when `owner` enables or disables (`approved`) `operator` to manage all of its assets."
					},
					"BatchMetadataUpdate(uint256,uint256)": {
						"details": "This event emits when the metadata of a range of tokens is changed. So that the third-party platforms such as NFT market could timely update the images and related attributes of the NFTs."
					},
					"MetadataUpdate(uint256)": {
						"details": "This event emits when the metadata of a token is changed. So that the third-party platforms such as NFT market could timely update the images and related attributes of the NFT."
					},
					"Transfer(address,address,uint256)": {
						"details": "Emitted when `tokenId` token is transferred from `from` to `to`."
					}
				},
				"kind": "dev",
				"methods": {
					"approve(address,uint256)": {
						"details": "See {IERC721-approve}."
					},
					"balanceOf(address)": {
						"details": "See {IERC721-balanceOf}."
					},
					"getApproved(uint256)": {
						"details": "See {IERC721-getApproved}."
					},
					"isApprovedForAll(address,address)": {
						"details": "See {IERC721-isApprovedForAll}."
					},
					"name()": {
						"details": "See {IERC721Metadata-name}."
					},
					"owner()": {
						"details": "Returns the address of the current owner."
					},
					"ownerOf(uint256)": {
						"details": "See {IERC721-ownerOf}."
					},
					"renounceOwnership()": {
						"details": "Leaves the contract without owner. It will not be possible to call `onlyOwner` functions anymore. Can only be called by the current owner. NOTE: Renouncing ownership will leave the contract without an owner, thereby removing any functionality that is only available to the owner."
					},
					"safeTransferFrom(address,address,uint256)": {
						"details": "See {IERC721-safeTransferFrom}."
					},
					"safeTransferFrom(address,address,uint256,bytes)": {
						"details": "See {IERC721-safeTransferFrom}."
					},
					"setApprovalForAll(address,bool)": {
						"details": "See {IERC721-setApprovalForAll}."
					},
					"supportsInterface(bytes4)": {
						"details": "See {IERC165-supportsInterface}"
					},
					"symbol()": {
						"details": "See {IERC721Metadata-symbol}."
					},
					"tokenURI(uint256)": {
						"details": "See {IERC721Metadata-tokenURI}."
					},
					"transferFrom(address,address,uint256)": {
						"details": "See {IERC721-transferFrom}."
					},
					"transferOwnership(address)": {
						"details": "Transfers ownership of the contract to a new account (`newOwner`). Can only be called by the current owner."
					}
				},
				"version": 1
			},
			"evm": {
				"assembly": "    /* \"contracts/AquoNFT.sol\":252:2497  contract AssetShares is ERC721URIStorage, Ownable {... */\n  mstore(0x40, 0x80)\n    /* \"contracts/AquoNFT.sol\":410:411  1 */\n  0x01\n    /* \"contracts/AquoNFT.sol\":381:411  uint256 public nextTokenId = 1 */\n  0x0a\n  sstore\n    /* \"contracts/AquoNFT.sol\":573:680  constructor(uint256 _totalShares) ERC721(\"AssetShare\", \"ASH\") {... */\n  callvalue\n  dup1\n  iszero\n  tag_1\n  jumpi\n  0x00\n  dup1\n  revert\ntag_1:\n  pop\n  mload(0x40)\n  sub(codesize, bytecodeSize)\n  dup1\n  bytecodeSize\n  dup4\n  codecopy\n  dup2\n  dup2\n  add\n  0x40\n  mstore\n  dup2\n  add\n  swap1\n  tag_2\n  swap2\n  swap1\n  tag_3\n  jump\t// in\ntag_2:\n    /* \"@openzeppelin/contracts/token/ERC721/ERC721.sol\":1381:1494  constructor(string memory name_, string memory symbol_) {... */\n  mload(0x40)\n  dup1\n  0x40\n  add\n  0x40\n  mstore\n  dup1\n  0x0a\n  dup2\n  mstore\n  0x20\n  add\n  0x4173736574536861726500000000000000000000000000000000000000000000\n  dup2\n  mstore\n  pop\n  mload(0x40)\n  dup1\n  0x40\n  add\n  0x40\n  mstore\n  dup1\n  0x03\n  dup2\n  mstore\n  0x20\n  add\n  0x4153480000000000000000000000000000000000000000000000000000000000\n  dup2\n  mstore\n  pop\n    /* \"@openzeppelin/contracts/token/ERC721/ERC721.sol\":1455:1460  name_ */\n  dup2\n    /* \"@openzeppelin/contracts/token/ERC721/ERC721.sol\":1447:1452  _name */\n  0x00\n    /* \"@openzeppelin/contracts/token/ERC721/ERC721.sol\":1447:1460  _name = name_ */\n  swap1\n  dup2\n  tag_8\n  swap2\n  swap1\n  tag_9\n  jump\t// in\ntag_8:\n  pop\n    /* \"@openzeppelin/contracts/token/ERC721/ERC721.sol\":1480:1487  symbol_ */\n  dup1\n    /* \"@openzeppelin/contracts/token/ERC721/ERC721.sol\":1470:1477  _symbol */\n  0x01\n    /* \"@openzeppelin/contracts/token/ERC721/ERC721.sol\":1470:1487  _symbol = symbol_ */\n  swap1\n  dup2\n  tag_10\n  swap2\n  swap1\n  tag_9\n  jump\t// in\ntag_10:\n  pop\n    /* \"@openzeppelin/contracts/token/ERC721/ERC721.sol\":1381:1494  constructor(string memory name_, string memory symbol_) {... */\n  pop\n  pop\n    /* \"@openzeppelin/contracts/access/Ownable.sol\":936:968  _transferOwnership(_msgSender()) */\n  tag_12\n    /* \"@openzeppelin/contracts/access/Ownable.sol\":955:967  _msgSender() */\n  tag_13\n    /* \"@openzeppelin/contracts/access/Ownable.sol\":955:965  _msgSender */\n  shl(0x20, tag_14)\n    /* \"@openzeppelin/contracts/access/Ownable.sol\":955:967  _msgSender() */\n  0x20\n  shr\n  jump\t// in\ntag_13:\n    /* \"@openzeppelin/contracts/access/Ownable.sol\":936:954  _transferOwnership */\n  shl(0x20, tag_15)\n    /* \"@openzeppelin/contracts/access/Ownable.sol\":936:968  _transferOwnership(_msgSender()) */\n  0x20\n  shr\n  jump\t// in\ntag_12:\n    /* \"contracts/AquoNFT.sol\":660:672  _totalShares */\n  dup1\n    /* \"contracts/AquoNFT.sol\":646:657  totalShares */\n  0x08\n    /* \"contracts/AquoNFT.sol\":646:672  totalShares = _totalShares */\n  dup2\n  swap1\n  sstore\n  pop\n    /* \"contracts/AquoNFT.sol\":573:680  constructor(uint256 _totalShares) ERC721(\"AssetShare\", \"ASH\") {... */\n  pop\n    /* \"contracts/AquoNFT.sol\":252:2497  contract AssetShares is ERC721URIStorage, Ownable {... */\n  jump(tag_17)\n    /* \"@openzeppelin/contracts/utils/Context.sol\":640:736  function _msgSender() internal view virtual returns (address) {... */\ntag_14:\n    /* \"@openzeppelin/contracts/utils/Context.sol\":693:700  address */\n  0x00\n    /* \"@openzeppelin/contracts/utils/Context.sol\":719:729  msg.sender */\n  caller\n    /* \"@openzeppelin/contracts/utils/Context.sol\":712:729  return msg.sender */\n  swap1\n  pop\n    /* \"@openzeppelin/contracts/utils/Context.sol\":640:736  function _msgSender() internal view virtual returns (address) {... */\n  swap1\n  jump\t// out\n    /* \"@openzeppelin/contracts/access/Ownable.sol\":2433:2620  function _transferOwnership(address newOwner) internal virtual {... */\ntag_15:\n    /* \"@openzeppelin/contracts/access/Ownable.sol\":2506:2522  address oldOwner */\n  0x00\n    /* \"@openzeppelin/contracts/access/Ownable.sol\":2525:2531  _owner */\n  0x07\n  0x00\n  swap1\n  sload\n  swap1\n  0x0100\n  exp\n  swap1\n  div\n  0xffffffffffffffffffffffffffffffffffffffff\n  and\n    /* \"@openzeppelin/contracts/access/Ownable.sol\":2506:2531  address oldOwner = _owner */\n  swap1\n  pop\n    /* \"@openzeppelin/contracts/access/Ownable.sol\":2550:2558  newOwner */\n  dup2\n    /* \"@openzeppelin/contracts/access/Ownable.sol\":2541:2547  _owner */\n  0x07\n  0x00\n    /* \"@openzeppelin/contracts/access/Ownable.sol\":2541:2558  _owner = newOwner */\n  0x0100\n  exp\n  dup2\n  sload\n  dup2\n  0xffffffffffffffffffffffffffffffffffffffff\n  mul\n  not\n  and\n  swap1\n  dup4\n  0xffffffffffffffffffffffffffffffffffffffff\n  and\n  mul\n  or\n  swap1\n  sstore\n  pop\n    /* \"@openzeppelin/contracts/access/Ownable.sol\":2604:2612  newOwner */\n  dup2\n    /* \"@openzeppelin/contracts/access/Ownable.sol\":2573:2613  OwnershipTransferred(oldOwner, newOwner) */\n  0xffffffffffffffffffffffffffffffffffffffff\n  and\n    /* \"@openzeppelin/contracts/access/Ownable.sol\":2594:2602  oldOwner */\n  dup2\n    /* \"@openzeppelin/contracts/access/Ownable.sol\":2573:2613  OwnershipTransferred(oldOwner, newOwner) */\n  0xffffffffffffffffffffffffffffffffffffffff\n  and\n  0x8be0079c531659141344cd1fd0a4f28419497f9722a3daafe3b4186f6b6457e0\n  mload(0x40)\n  mload(0x40)\n  dup1\n  swap2\n  sub\n  swap1\n  log3\n    /* \"@openzeppelin/contracts/access/Ownable.sol\":2496:2620  {... */\n  pop\n    /* \"@openzeppelin/contracts/access/Ownable.sol\":2433:2620  function _transferOwnership(address newOwner) internal virtual {... */\n  pop\n  jump\t// out\n    /* \"#utility.yul\":88:205   */\ntag_21:\n    /* \"#utility.yul\":197:198   */\n  0x00\n    /* \"#utility.yul\":194:195   */\n  dup1\n    /* \"#utility.yul\":187:199   */\n  revert\n    /* \"#utility.yul\":334:411   */\ntag_23:\n    /* \"#utility.yul\":371:378   */\n  0x00\n    /* \"#utility.yul\":400:405   */\n  dup2\n    /* \"#utility.yul\":389:405   */\n  swap1\n  pop\n    /* \"#utility.yul\":334:411   */\n  swap2\n  swap1\n  pop\n  jump\t// out\n    /* \"#utility.yul\":417:539   */\ntag_24:\n    /* \"#utility.yul\":490:514   */\n  tag_51\n    /* \"#utility.yul\":508:513   */\n  dup2\n    /* \"#utility.yul\":490:514   */\n  tag_23\n  jump\t// in\ntag_51:\n    /* \"#utility.yul\":483:488   */\n  dup2\n    /* \"#utility.yul\":480:515   */\n  eq\n    /* \"#utility.yul\":470:533   */\n  tag_52\n  jumpi\n    /* \"#utility.yul\":529:530   */\n  0x00\n    /* \"#utility.yul\":526:527   */\n  dup1\n    /* \"#utility.yul\":519:531   */\n  revert\n    /* \"#utility.yul\":470:533   */\ntag_52:\n    /* \"#utility.yul\":417:539   */\n  pop\n  jump\t// out\n    /* \"#utility.yul\":545:688   */\ntag_25:\n    /* \"#utility.yul\":602:607   */\n  0x00\n    /* \"#utility.yul\":633:639   */\n  dup2\n    /* \"#utility.yul\":627:640   */\n  mload\n    /* \"#utility.yul\":618:640   */\n  swap1\n  pop\n    /* \"#utility.yul\":649:682   */\n  tag_54\n    /* \"#utility.yul\":676:681   */\n  dup2\n    /* \"#utility.yul\":649:682   */\n  tag_24\n  jump\t// in\ntag_54:\n    /* \"#utility.yul\":545:688   */\n  swap3\n  swap2\n  pop\n  pop\n  jump\t// out\n    /* \"#utility.yul\":694:1045   */\ntag_3:\n    /* \"#utility.yul\":764:770   */\n  0x00\n    /* \"#utility.yul\":813:815   */\n  0x20\n    /* \"#utility.yul\":801:810   */\n  dup3\n    /* \"#utility.yul\":792:799   */\n  dup5\n    /* \"#utility.yul\":788:811   */\n  sub\n    /* \"#utility.yul\":784:816   */\n  slt\n    /* \"#utility.yul\":781:900   */\n  iszero\n  tag_56\n  jumpi\n    /* \"#utility.yul\":819:898   */\n  tag_57\n  tag_21\n  jump\t// in\ntag_57:\n    /* \"#utility.yul\":781:900   */\ntag_56:\n    /* \"#utility.yul\":939:940   */\n  0x00\n    /* \"#utility.yul\":964:1028   */\n  tag_58\n    /* \"#utility.yul\":1020:1027   */\n  dup5\n    /* \"#utility.yul\":1011:1017   */\n  dup3\n    /* \"#utility.yul\":1000:1009   */\n  dup6\n    /* \"#utility.yul\":996:1018   */\n  add\n    /* \"#utility.yul\":964:1028   */\n  tag_25\n  jump\t// in\ntag_58:\n    /* \"#utility.yul\":954:1028   */\n  swap2\n  pop\n    /* \"#utility.yul\":910:1038   */\n  pop\n    /* \"#utility.yul\":694:1045   */\n  swap3\n  swap2\n  pop\n  pop\n  jump\t// out\n    /* \"#utility.yul\":1051:1150   */\ntag_26:\n    /* \"#utility.yul\":1103:1109   */\n  0x00\n    /* \"#utility.yul\":1137:1142   */\n  dup2\n    /* \"#utility.yul\":1131:1143   */\n  mload\n    /* \"#utility.yul\":1121:1143   */\n  swap1\n  pop\n    /* \"#utility.yul\":1051:1150   */\n  swap2\n  swap1\n  pop\n  jump\t// out\n    /* \"#utility.yul\":1156:1336   */\ntag_27:\n    /* \"#utility.yul\":1204:1281   */\n  0x4e487b7100000000000000000000000000000000000000000000000000000000\n    /* \"#utility.yul\":1201:1202   */\n  0x00\n    /* \"#utility.yul\":1194:1282   */\n  mstore\n    /* \"#utility.yul\":1301:1305   */\n  0x41\n    /* \"#utility.yul\":1298:1299   */\n  0x04\n    /* \"#utility.yul\":1291:1306   */\n  mstore\n    /* \"#utility.yul\":1325:1329   */\n  0x24\n    /* \"#utility.yul\":1322:1323   */\n  0x00\n    /* \"#utility.yul\":1315:1330   */\n  revert\n    /* \"#utility.yul\":1342:1522   */\ntag_28:\n    /* \"#utility.yul\":1390:1467   */\n  0x4e487b7100000000000000000000000000000000000000000000000000000000\n    /* \"#utility.yul\":1387:1388   */\n  0x00\n    /* \"#utility.yul\":1380:1468   */\n  mstore\n    /* \"#utility.yul\":1487:1491   */\n  0x22\n    /* \"#utility.yul\":1484:1485   */\n  0x04\n    /* \"#utility.yul\":1477:1492   */\n  mstore\n    /* \"#utility.yul\":1511:1515   */\n  0x24\n    /* \"#utility.yul\":1508:1509   */\n  0x00\n    /* \"#utility.yul\":1501:1516   */\n  revert\n    /* \"#utility.yul\":1528:1848   */\ntag_29:\n    /* \"#utility.yul\":1572:1578   */\n  0x00\n    /* \"#utility.yul\":1609:1610   */\n  0x02\n    /* \"#utility.yul\":1603:1607   */\n  dup3\n    /* \"#utility.yul\":1599:1611   */\n  div\n    /* \"#utility.yul\":1589:1611   */\n  swap1\n  pop\n    /* \"#utility.yul\":1656:1657   */\n  0x01\n    /* \"#utility.yul\":1650:1654   */\n  dup3\n    /* \"#utility.yul\":1646:1658   */\n  and\n    /* \"#utility.yul\":1677:1695   */\n  dup1\n    /* \"#utility.yul\":1667:1748   */\n  tag_63\n  jumpi\n    /* \"#utility.yul\":1733:1737   */\n  0x7f\n    /* \"#utility.yul\":1725:1731   */\n  dup3\n    /* \"#utility.yul\":1721:1738   */\n  and\n    /* \"#utility.yul\":1711:1738   */\n  swap2\n  pop\n    /* \"#utility.yul\":1667:1748   */\ntag_63:\n    /* \"#utility.yul\":1795:1797   */\n  0x20\n    /* \"#utility.yul\":1787:1793   */\n  dup3\n    /* \"#utility.yul\":1784:1798   */\n  lt\n    /* \"#utility.yul\":1764:1782   */\n  dup2\n    /* \"#utility.yul\":1761:1799   */\n  sub\n    /* \"#utility.yul\":1758:1842   */\n  tag_64\n  jumpi\n    /* \"#utility.yul\":1814:1832   */\n  tag_65\n  tag_28\n  jump\t// in\ntag_65:\n    /* \"#utility.yul\":1758:1842   */\ntag_64:\n    /* \"#utility.yul\":1579:1848   */\n  pop\n    /* \"#utility.yul\":1528:1848   */\n  swap2\n  swap1\n  pop\n  jump\t// out\n    /* \"#utility.yul\":1854:1995   */\ntag_30:\n    /* \"#utility.yul\":1903:1907   */\n  0x00\n    /* \"#utility.yul\":1926:1929   */\n  dup2\n    /* \"#utility.yul\":1918:1929   */\n  swap1\n  pop\n    /* \"#utility.yul\":1949:1952   */\n  dup2\n    /* \"#utility.yul\":1946:1947   */\n  0x00\n    /* \"#utility.yul\":1939:1953   */\n  mstore\n    /* \"#utility.yul\":1983:1987   */\n  0x20\n    /* \"#utility.yul\":1980:1981   */\n  0x00\n    /* \"#utility.yul\":1970:1988   */\n  keccak256\n    /* \"#utility.yul\":1962:1988   */\n  swap1\n  pop\n    /* \"#utility.yul\":1854:1995   */\n  swap2\n  swap1\n  pop\n  jump\t// out\n    /* \"#utility.yul\":2001:2094   */\ntag_31:\n    /* \"#utility.yul\":2038:2044   */\n  0x00\n    /* \"#utility.yul\":2085:2087   */\n  0x20\n    /* \"#utility.yul\":2080:2082   */\n  0x1f\n    /* \"#utility.yul\":2073:2078   */\n  dup4\n    /* \"#utility.yul\":2069:2083   */\n  add\n    /* \"#utility.yul\":2065:2088   */\n  div\n    /* \"#utility.yul\":2055:2088   */\n  swap1\n  pop\n    /* \"#utility.yul\":2001:2094   */\n  swap2\n  swap1\n  pop\n  jump\t// out\n    /* \"#utility.yul\":2100:2207   */\ntag_32:\n    /* \"#utility.yul\":2144:2152   */\n  0x00\n    /* \"#utility.yul\":2194:2199   */\n  dup3\n    /* \"#utility.yul\":2188:2192   */\n  dup3\n    /* \"#utility.yul\":2184:2200   */\n  shl\n    /* \"#utility.yul\":2163:2200   */\n  swap1\n  pop\n    /* \"#utility.yul\":2100:2207   */\n  swap3\n  swap2\n  pop\n  pop\n  jump\t// out\n    /* \"#utility.yul\":2213:2606   */\ntag_33:\n    /* \"#utility.yul\":2282:2288   */\n  0x00\n    /* \"#utility.yul\":2332:2333   */\n  0x08\n    /* \"#utility.yul\":2320:2330   */\n  dup4\n    /* \"#utility.yul\":2316:2334   */\n  mul\n    /* \"#utility.yul\":2355:2452   */\n  tag_70\n    /* \"#utility.yul\":2385:2451   */\n  0xffffffffffffffffffffffffffffffffffffffffffffffffffffffffffffffff\n    /* \"#utility.yul\":2374:2383   */\n  dup3\n    /* \"#utility.yul\":2355:2452   */\n  tag_32\n  jump\t// in\ntag_70:\n    /* \"#utility.yul\":2473:2512   */\n  tag_71\n    /* \"#utility.yul\":2503:2511   */\n  dup7\n    /* \"#utility.yul\":2492:2501   */\n  dup4\n    /* \"#utility.yul\":2473:2512   */\n  tag_32\n  jump\t// in\ntag_71:\n    /* \"#utility.yul\":2461:2512   */\n  swap6\n  pop\n    /* \"#utility.yul\":2545:2549   */\n  dup1\n    /* \"#utility.yul\":2541:2550   */\n  not\n    /* \"#utility.yul\":2534:2539   */\n  dup5\n    /* \"#utility.yul\":2530:2551   */\n  and\n    /* \"#utility.yul\":2521:2551   */\n  swap4\n  pop\n    /* \"#utility.yul\":2594:2598   */\n  dup1\n    /* \"#utility.yul\":2584:2592   */\n  dup7\n    /* \"#utility.yul\":2580:2599   */\n  and\n    /* \"#utility.yul\":2573:2578   */\n  dup5\n    /* \"#utility.yul\":2570:2600   */\n  or\n    /* \"#utility.yul\":2560:2600   */\n  swap3\n  pop\n    /* \"#utility.yul\":2289:2606   */\n  pop\n  pop\n    /* \"#utility.yul\":2213:2606   */\n  swap4\n  swap3\n  pop\n  pop\n  pop\n  jump\t// out\n    /* \"#utility.yul\":2612:2672   */\ntag_34:\n    /* \"#utility.yul\":2640:2643   */\n  0x00\n    /* \"#utility.yul\":2661:2666   */\n  dup2\n    /* \"#utility.yul\":2654:2666   */\n  swap1\n  pop\n    /* \"#utility.yul\":2612:2672   */\n  swap2\n  swap1\n  pop\n  jump\t// out\n    /* \"#utility.yul\":2678:2820   */\ntag_35:\n    /* \"#utility.yul\":2728:2737   */\n  0x00\n    /* \"#utility.yul\":2761:2814   */\n  tag_74\n    /* \"#utility.yul\":2779:2813   */\n  tag_75\n    /* \"#utility.yul\":2788:2812   */\n  tag_76\n    /* \"#utility.yul\":2806:2811   */\n  dup5\n    /* \"#utility.yul\":2788:2812   */\n  tag_23\n  jump\t// in\ntag_76:\n    /* \"#utility.yul\":2779:2813   */\n  tag_34\n  jump\t// in\ntag_75:\n    /* \"#utility.yul\":2761:2814   */\n  tag_23\n  jump\t// in\ntag_74:\n    /* \"#utility.yul\":2748:2814   */\n  swap1\n  pop\n    /* \"#utility.yul\":2678:2820   */\n  swap2\n  swap1\n  pop\n  jump\t// out\n    /* \"#utility.yul\":2826:2901   */\ntag_36:\n    /* \"#utility.yul\":2869:2872   */\n  0x00\n    /* \"#utility.yul\":2890:2895   */\n  dup2\n    /* \"#utility.yul\":2883:2895   */\n  swap1\n  pop\n    /* \"#utility.yul\":2826:2901   */\n  swap2\n  swap1\n  pop\n  jump\t// out\n    /* \"#utility.yul\":2907:3176   */\ntag_37:\n    /* \"#utility.yul\":3017:3056   */\n  tag_79\n    /* \"#utility.yul\":3048:3055   */\n  dup4\n    /* \"#utility.yul\":3017:3056   */\n  tag_35\n  jump\t// in\ntag_79:\n    /* \"#utility.yul\":3078:3169   */\n  tag_80\n    /* \"#utility.yul\":3127:3168   */\n  tag_81\n    /* \"#utility.yul\":3151:3167   */\n  dup3\n    /* \"#utility.yul\":3127:3168   */\n  tag_36\n  jump\t// in\ntag_81:\n    /* \"#utility.yul\":3119:3125   */\n  dup5\n    /* \"#utility.yul\":3112:3116   */\n  dup5\n    /* \"#utility.yul\":3106:3117   */\n  sload\n    /* \"#utility.yul\":3078:3169   */\n  tag_33\n  jump\t// in\ntag_80:\n    /* \"#utility.yul\":3072:3076   */\n  dup3\n    /* \"#utility.yul\":3065:3170   */\n  sstore\n    /* \"#utility.yul\":2983:3176   */\n  pop\n    /* \"#utility.yul\":2907:3176   */\n  pop\n  pop\n  pop\n  jump\t// out\n    /* \"#utility.yul\":3182:3255   */\ntag_38:\n    /* \"#utility.yul\":3227:3230   */\n  0x00\n    /* \"#utility.yul\":3182:3255   */\n  swap1\n  jump\t// out\n    /* \"#utility.yul\":3261:3450   */\ntag_39:\n    /* \"#utility.yul\":3338:3370   */\n  tag_84\n  tag_38\n  jump\t// in\ntag_84:\n    /* \"#utility.yul\":3379:3444   */\n  tag_85\n    /* \"#utility.yul\":3437:3443   */\n  dup2\n    /* \"#utility.yul\":3429:3435   */\n  dup5\n    /* \"#utility.yul\":3423:3427   */\n  dup5\n    /* \"#utility.yul\":3379:3444   */\n  tag_37\n  jump\t// in\ntag_85:\n    /* \"#utility.yul\":3314:3450   */\n  pop\n    /* \"#utility.yul\":3261:3450   */\n  pop\n  pop\n  jump\t// out\n    /* \"#utility.yul\":3456:3642   */\ntag_40:\n    /* \"#utility.yul\":3516:3636   */\ntag_87:\n    /* \"#utility.yul\":3533:3536   */\n  dup2\n    /* \"#utility.yul\":3526:3531   */\n  dup2\n    /* \"#utility.yul\":3523:3537   */\n  lt\n    /* \"#utility.yul\":3516:3636   */\n  iszero\n  tag_89\n  jumpi\n    /* \"#utility.yul\":3587:3626   */\n  tag_90\n    /* \"#utility.yul\":3624:3625   */\n  0x00\n    /* \"#utility.yul\":3617:3622   */\n  dup3\n    /* \"#utility.yul\":3587:3626   */\n  tag_39\n  jump\t// in\ntag_90:\n    /* \"#utility.yul\":3560:3561   */\n  0x01\n    /* \"#utility.yul\":3553:3558   */\n  dup2\n    /* \"#utility.yul\":3549:3562   */\n  add\n    /* \"#utility.yul\":3540:3562   */\n  swap1\n  pop\n    /* \"#utility.yul\":3516:3636   */\n  jump(tag_87)\ntag_89:\n    /* \"#utility.yul\":3456:3642   */\n  pop\n  pop\n  jump\t// out\n    /* \"#utility.yul\":3648:4191   */\ntag_41:\n    /* \"#utility.yul\":3749:3751   */\n  0x1f\n    /* \"#utility.yul\":3744:3747   */\n  dup3\n    /* \"#utility.yul\":3741:3752   */\n  gt\n    /* \"#utility.yul\":3738:4184   */\n  iszero\n  tag_92\n  jumpi\n    /* \"#utility.yul\":3783:3821   */\n  tag_93\n    /* \"#utility.yul\":3815:3820   */\n  dup2\n    /* \"#utility.yul\":3783:3821   */\n  tag_30\n  jump\t// in\ntag_93:\n    /* \"#utility.yul\":3867:3896   */\n  tag_94\n    /* \"#utility.yul\":3885:3895   */\n  dup5\n    /* \"#utility.yul\":3867:3896   */\n  tag_31\n  jump\t// in\ntag_94:\n    /* \"#utility.yul\":3857:3865   */\n  dup2\n    /* \"#utility.yul\":3853:3897   */\n  add\n    /* \"#utility.yul\":4050:4052   */\n  0x20\n    /* \"#utility.yul\":4038:4048   */\n  dup6\n    /* \"#utility.yul\":4035:4053   */\n  lt\n    /* \"#utility.yul\":4032:4081   */\n  iszero\n  tag_95\n  jumpi\n    /* \"#utility.yul\":4071:4079   */\n  dup2\n    /* \"#utility.yul\":4056:4079   */\n  swap1\n  pop\n    /* \"#utility.yul\":4032:4081   */\ntag_95:\n    /* \"#utility.yul\":4094:4174   */\n  tag_96\n    /* \"#utility.yul\":4150:4172   */\n  tag_97\n    /* \"#utility.yul\":4168:4171   */\n  dup6\n    /* \"#utility.yul\":4150:4172   */\n  tag_31\n  jump\t// in\ntag_97:\n    /* \"#utility.yul\":4140:4148   */\n  dup4\n    /* \"#utility.yul\":4136:4173   */\n  add\n    /* \"#utility.yul\":4123:4134   */\n  dup3\n    /* \"#utility.yul\":4094:4174   */\n  tag_40\n  jump\t// in\ntag_96:\n    /* \"#utility.yul\":3753:4184   */\n  pop\n  pop\n    /* \"#utility.yul\":3738:4184   */\ntag_92:\n    /* \"#utility.yul\":3648:4191   */\n  pop\n  pop\n  pop\n  jump\t// out\n    /* \"#utility.yul\":4197:4314   */\ntag_42:\n    /* \"#utility.yul\":4251:4259   */\n  0x00\n    /* \"#utility.yul\":4301:4306   */\n  dup3\n    /* \"#utility.yul\":4295:4299   */\n  dup3\n    /* \"#utility.yul\":4291:4307   */\n  shr\n    /* \"#utility.yul\":4270:4307   */\n  swap1\n  pop\n    /* \"#utility.yul\":4197:4314   */\n  swap3\n  swap2\n  pop\n  pop\n  jump\t// out\n    /* \"#utility.yul\":4320:4489   */\ntag_43:\n    /* \"#utility.yul\":4364:4370   */\n  0x00\n    /* \"#utility.yul\":4397:4448   */\n  tag_100\n    /* \"#utility.yul\":4445:4446   */\n  0x00\n    /* \"#utility.yul\":4441:4447   */\n  not\n    /* \"#utility.yul\":4433:4438   */\n  dup5\n    /* \"#utility.yul\":4430:4431   */\n  0x08\n    /* \"#utility.yul\":4426:4439   */\n  mul\n    /* \"#utility.yul\":4397:4448   */\n  tag_42\n  jump\t// in\ntag_100:\n    /* \"#utility.yul\":4393:4449   */\n  not\n    /* \"#utility.yul\":4478:4482   */\n  dup1\n    /* \"#utility.yul\":4472:4476   */\n  dup4\n    /* \"#utility.yul\":4468:4483   */\n  and\n    /* \"#utility.yul\":4458:4483   */\n  swap2\n  pop\n    /* \"#utility.yul\":4371:4489   */\n  pop\n    /* \"#utility.yul\":4320:4489   */\n  swap3\n  swap2\n  pop\n  pop\n  jump\t// out\n    /* \"#utility.yul\":4494:4789   */\ntag_44:\n    /* \"#utility.yul\":4570:4574   */\n  0x00\n    /* \"#utility.yul\":4716:4745   */\n  tag_102\n    /* \"#utility.yul\":4741:4744   */\n  dup4\n    /* \"#utility.yul\":4735:4739   */\n  dup4\n    /* \"#utility.yul\":4716:4745   */\n  tag_43\n  jump\t// in\ntag_102:\n    /* \"#utility.yul\":4708:4745   */\n  swap2\n  pop\n    /* \"#utility.yul\":4778:4781   */\n  dup3\n    /* \"#utility.yul\":4775:4776   */\n  0x02\n    /* \"#utility.yul\":4771:4782   */\n  mul\n    /* \"#utility.yul\":4765:4769   */\n  dup3\n    /* \"#utility.yul\":4762:4783   */\n  or\n    /* \"#utility.yul\":4754:4783   */\n  swap1\n  pop\n    /* \"#utility.yul\":4494:4789   */\n  swap3\n  swap2\n  pop\n  pop\n  jump\t// out\n    /* \"#utility.yul\":4794:6189   */\ntag_9:\n    /* \"#utility.yul\":4911:4948   */\n  tag_104\n    /* \"#utility.yul\":4944:4947   */\n  dup3\n    /* \"#utility.yul\":4911:4948   */\n  tag_26\n  jump\t// in\ntag_104:\n    /* \"#utility.yul\":5013:5031   */\n  0xffffffffffffffff\n    /* \"#utility.yul\":5005:5011   */\n  dup2\n    /* \"#utility.yul\":5002:5032   */\n  gt\n    /* \"#utility.yul\":4999:5055   */\n  iszero\n  tag_105\n  jumpi\n    /* \"#utility.yul\":5035:5053   */\n  tag_106\n  tag_27\n  jump\t// in\ntag_106:\n    /* \"#utility.yul\":4999:5055   */\ntag_105:\n    /* \"#utility.yul\":5079:5117   */\n  tag_107\n    /* \"#utility.yul\":5111:5115   */\n  dup3\n    /* \"#utility.yul\":5105:5116   */\n  sload\n    /* \"#utility.yul\":5079:5117   */\n  tag_29\n  jump\t// in\ntag_107:\n    /* \"#utility.yul\":5164:5231   */\n  tag_108\n    /* \"#utility.yul\":5224:5230   */\n  dup3\n    /* \"#utility.yul\":5216:5222   */\n  dup3\n    /* \"#utility.yul\":5210:5214   */\n  dup6\n    /* \"#utility.yul\":5164:5231   */\n  tag_41\n  jump\t// in\ntag_108:\n    /* \"#utility.yul\":5258:5259   */\n  0x00\n    /* \"#utility.yul\":5282:5286   */\n  0x20\n    /* \"#utility.yul\":5269:5286   */\n  swap1\n  pop\n    /* \"#utility.yul\":5314:5316   */\n  0x1f\n    /* \"#utility.yul\":5306:5312   */\n  dup4\n    /* \"#utility.yul\":5303:5317   */\n  gt\n    /* \"#utility.yul\":5331:5332   */\n  0x01\n    /* \"#utility.yul\":5326:5944   */\n  dup2\n  eq\n  tag_110\n  jumpi\n    /* \"#utility.yul\":5988:5989   */\n  0x00\n    /* \"#utility.yul\":6005:6011   */\n  dup5\n    /* \"#utility.yul\":6002:6079   */\n  iszero\n  tag_111\n  jumpi\n    /* \"#utility.yul\":6054:6063   */\n  dup3\n    /* \"#utility.yul\":6049:6052   */\n  dup8\n    /* \"#utility.yul\":6045:6064   */\n  add\n    /* \"#utility.yul\":6039:6065   */\n  mload\n    /* \"#utility.yul\":6030:6065   */\n  swap1\n  pop\n    /* \"#utility.yul\":6002:6079   */\ntag_111:\n    /* \"#utility.yul\":6105:6172   */\n  tag_112\n    /* \"#utility.yul\":6165:6171   */\n  dup6\n    /* \"#utility.yul\":6158:6163   */\n  dup3\n    /* \"#utility.yul\":6105:6172   */\n  tag_44\n  jump\t// in\ntag_112:\n    /* \"#utility.yul\":6099:6103   */\n  dup7\n    /* \"#utility.yul\":6092:6173   */\n  sstore\n    /* \"#utility.yul\":5961:6183   */\n  pop\n    /* \"#utility.yul\":5296:6183   */\n  jump(tag_109)\n    /* \"#utility.yul\":5326:5944   */\ntag_110:\n    /* \"#utility.yul\":5378:5382   */\n  0x1f\n    /* \"#utility.yul\":5374:5383   */\n  not\n    /* \"#utility.yul\":5366:5372   */\n  dup5\n    /* \"#utility.yul\":5362:5384   */\n  and\n    /* \"#utility.yul\":5412:5449   */\n  tag_113\n    /* \"#utility.yul\":5444:5448   */\n  dup7\n    /* \"#utility.yul\":5412:5449   */\n  tag_30\n  jump\t// in\ntag_113:\n    /* \"#utility.yul\":5471:5472   */\n  0x00\n    /* \"#utility.yul\":5485:5693   */\ntag_114:\n    /* \"#utility.yul\":5499:5506   */\n  dup3\n    /* \"#utility.yul\":5496:5497   */\n  dup2\n    /* \"#utility.yul\":5493:5507   */\n  lt\n    /* \"#utility.yul\":5485:5693   */\n  iszero\n  tag_116\n  jumpi\n    /* \"#utility.yul\":5578:5587   */\n  dup5\n    /* \"#utility.yul\":5573:5576   */\n  dup10\n    /* \"#utility.yul\":5569:5588   */\n  add\n    /* \"#utility.yul\":5563:5589   */\n  mload\n    /* \"#utility.yul\":5555:5561   */\n  dup3\n    /* \"#utility.yul\":5548:5590   */\n  sstore\n    /* \"#utility.yul\":5629:5630   */\n  0x01\n    /* \"#utility.yul\":5621:5627   */\n  dup3\n    /* \"#utility.yul\":5617:5631   */\n  add\n    /* \"#utility.yul\":5607:5631   */\n  swap2\n  pop\n    /* \"#utility.yul\":5676:5678   */\n  0x20\n    /* \"#utility.yul\":5665:5674   */\n  dup6\n    /* \"#utility.yul\":5661:5679   */\n  add\n    /* \"#utility.yul\":5648:5679   */\n  swap5\n  pop\n    /* \"#utility.yul\":5522:5526   */\n  0x20\n    /* \"#utility.yul\":5519:5520   */\n  dup2\n    /* \"#utility.yul\":5515:5527   */\n  add\n    /* \"#utility.yul\":5510:5527   */\n  swap1\n  pop\n    /* \"#utility.yul\":5485:5693   */\n  jump(tag_114)\ntag_116:\n    /* \"#utility.yul\":5721:5727   */\n  dup7\n    /* \"#utility.yul\":5712:5719   */\n  dup4\n    /* \"#utility.yul\":5709:5728   */\n  lt\n    /* \"#utility.yul\":5706:5885   */\n  iszero\n  tag_117\n  jumpi\n    /* \"#utility.yul\":5779:5788   */\n  dup5\n    /* \"#utility.yul\":5774:5777   */\n  dup10\n    /* \"#utility.yul\":5770:5789   */\n  add\n    /* \"#utility.yul\":5764:5790   */\n  mload\n    /* \"#utility.yul\":5822:5870   */\n  tag_118\n    /* \"#utility.yul\":5864:5868   */\n  0x1f\n    /* \"#utility.yul\":5856:5862   */\n  dup10\n    /* \"#utility.yul\":5852:5869   */\n  and\n    /* \"#utility.yul\":5841:5850   */\n  dup3\n    /* \"#utility.yul\":5822:5870   */\n  tag_43\n  jump\t// in\ntag_118:\n    /* \"#utility.yul\":5814:5820   */\n  dup4\n    /* \"#utility.yul\":5807:5871   */\n  sstore\n    /* \"#utility.yul\":5729:5885   */\n  pop\n    /* \"#utility.yul\":5706:5885   */\ntag_117:\n    /* \"#utility.yul\":5931:5932   */\n  0x01\n    /* \"#utility.yul\":5927:5928   */\n  0x02\n    /* \"#utility.yul\":5919:5925   */\n  dup9\n    /* \"#utility.yul\":5915:5929   */\n  mul\n    /* \"#utility.yul\":5911:5933   */\n  add\n    /* \"#utility.yul\":5905:5909   */\n  dup9\n    /* \"#utility.yul\":5898:5934   */\n  sstore\n    /* \"#utility.yul\":5333:5944   */\n  pop\n  pop\n  pop\n    /* \"#utility.yul\":5296:6183   */\ntag_109:\n  pop\n    /* \"#utility.yul\":4886:6189   */\n  pop\n  pop\n  pop\n    /* \"#utility.yul\":4794:6189   */\n  pop\n  pop\n  jump\t// out\n    /* \"contracts/AquoNFT.sol\":252:2497  contract AssetShares is ERC721URIStorage, Ownable {... */\ntag_17:\n  dataSize(sub_0)\n  dup1\n  dataOffset(sub_0)\n  0x00\n  codecopy\n  0x00\n  return\nstop\n\nsub_0: assembly {\n        /* \"contracts/AquoNFT.sol\":252:2497  contract AssetShares is ERC721URIStorage, Ownable {... */\n      mstore(0x40, 0x80)\n      callvalue\n      dup1\n      iszero\n      tag_1\n      jumpi\n      0x00\n      dup1\n      revert\n    tag_1:\n      pop\n      jumpi(tag_2, lt(calldatasize, 0x04))\n      shr(0xe0, calldataload(0x00))\n      dup1\n      0x74d5a195\n      gt\n      tag_28\n      jumpi\n      dup1\n      0xa22cb465\n      gt\n      tag_29\n      jumpi\n      dup1\n      0xcc20ffa4\n      gt\n      tag_30\n      jumpi\n      dup1\n      0xcc20ffa4\n      eq\n      tag_24\n      jumpi\n      dup1\n      0xdf0c3198\n      eq\n      tag_25\n      jumpi\n      dup1\n      0xe985e9c5\n      eq\n      tag_26\n      jumpi\n      dup1\n      0xf2fde38b\n      eq\n      tag_27\n      jumpi\n      jump(tag_2)\n    tag_30:\n      dup1\n      0xa22cb465\n      eq\n      tag_21\n      jumpi\n      dup1\n      0xb88d4fde\n      eq\n      tag_22\n      jumpi\n      dup1\n      0xc87b56dd\n      eq\n      tag_23\n      jumpi\n      jump(tag_2)\n    tag_29:\n      dup1\n      0x74d5a195\n      eq\n      tag_15\n      jumpi\n      dup1\n      0x75794a3c\n      eq\n      tag_16\n      jumpi\n      dup1\n      0x87a7dc77\n      eq\n      tag_17\n      jumpi\n      dup1\n      0x8da5cb5b\n      eq\n      tag_18\n      jumpi\n      dup1\n      0x95d89b41\n      eq\n      tag_19\n      jumpi\n      dup1\n      0x9c9f263c\n      eq\n      tag_20\n      jumpi\n      jump(tag_2)\n    tag_28:\n      dup1\n      0x3ae64e0c\n      gt\n      tag_31\n      jumpi\n      dup1\n      0x3ae64e0c\n      eq\n      tag_9\n      jumpi\n      dup1\n      0x42842e0e\n      eq\n      tag_10\n      jumpi\n      dup1\n      0x6352211e\n      eq\n      tag_11\n      jumpi\n      dup1\n      0x68ce5c96\n      eq\n      tag_12\n      jumpi\n      dup1\n      0x70a08231\n      eq\n      tag_13\n      jumpi\n      dup1\n      0x715018a6\n      eq\n      tag_14\n      jumpi\n      jump(tag_2)\n    tag_31:\n      dup1\n      0x01ffc9a7\n      eq\n      tag_3\n      jumpi\n      dup1\n      0x06fdde03\n      eq\n      tag_4\n      jumpi\n      dup1\n      0x081812fc\n      eq\n      tag_5\n      jumpi\n      dup1\n      0x095ea7b3\n      eq\n      tag_6\n      jumpi\n      dup1\n      0x23b872dd\n      eq\n      tag_7\n      jumpi\n      dup1\n      0x3a98ef39\n      eq\n      tag_8\n      jumpi\n    tag_2:\n      0x00\n      dup1\n      revert\n        /* \"@openzeppelin/contracts/token/ERC721/extensions/ERC721URIStorage.sol\":937:1144  function supportsInterface(bytes4 interfaceId) public view virtual override(ERC721, IERC165) returns (bool) {... */\n    tag_3:\n      tag_32\n      0x04\n      dup1\n      calldatasize\n      sub\n      dup2\n      add\n      swap1\n      tag_33\n      swap2\n      swap1\n      tag_34\n      jump\t// in\n    tag_33:\n      tag_35\n      jump\t// in\n    tag_32:\n      mload(0x40)\n      tag_36\n      swap2\n      swap1\n      tag_37\n      jump\t// in\n    tag_36:\n      mload(0x40)\n      dup1\n      swap2\n      sub\n      swap1\n      return\n        /* \"@openzeppelin/contracts/token/ERC721/ERC721.sol\":2365:2454  function name() public view virtual returns (string memory) {... */\n    tag_4:\n      tag_38\n      tag_39\n      jump\t// in\n    tag_38:\n      mload(0x40)\n      tag_40\n      swap2\n      swap1\n      tag_41\n      jump\t// in\n    tag_40:\n      mload(0x40)\n      dup1\n      swap2\n      sub\n      swap1\n      return\n        /* \"@openzeppelin/contracts/token/ERC721/ERC721.sol\":3497:3651  function getApproved(uint256 tokenId) public view virtual returns (address) {... */\n    tag_5:\n      tag_42\n      0x04\n      dup1\n      calldatasize\n      sub\n      dup2\n      add\n      swap1\n      tag_43\n      swap2\n      swap1\n      tag_44\n      jump\t// in\n    tag_43:\n      tag_45\n      jump\t// in\n    tag_42:\n      mload(0x40)\n      tag_46\n      swap2\n      swap1\n      tag_47\n      jump\t// in\n    tag_46:\n      mload(0x40)\n      dup1\n      swap2\n      sub\n      swap1\n      return\n        /* \"@openzeppelin/contracts/token/ERC721/ERC721.sol\":3323:3436  function approve(address to, uint256 tokenId) public virtual {... */\n    tag_6:\n      tag_48\n      0x04\n      dup1\n      calldatasize\n      sub\n      dup2\n      add\n      swap1\n      tag_49\n      swap2\n      swap1\n      tag_50\n      jump\t// in\n    tag_49:\n      tag_51\n      jump\t// in\n    tag_48:\n      stop\n        /* \"@openzeppelin/contracts/token/ERC721/ERC721.sol\":4143:4721  function transferFrom(address from, address to, uint256 tokenId) public virtual {... */\n    tag_7:\n      tag_52\n      0x04\n      dup1\n      calldatasize\n      sub\n      dup2\n      add\n      swap1\n      tag_53\n      swap2\n      swap1\n      tag_54\n      jump\t// in\n    tag_53:\n      tag_55\n      jump\t// in\n    tag_52:\n      stop\n        /* \"contracts/AquoNFT.sol\":311:337  uint256 public totalShares */\n    tag_8:\n      tag_56\n      tag_57\n      jump\t// in\n    tag_56:\n      mload(0x40)\n      tag_58\n      swap2\n      swap1\n      tag_59\n      jump\t// in\n    tag_58:\n      mload(0x40)\n      dup1\n      swap2\n      sub\n      swap1\n      return\n        /* \"contracts/AquoNFT.sol\":459:505  mapping(uint256 => uint256) public tokenShares */\n    tag_9:\n      tag_60\n      0x04\n      dup1\n      calldatasize\n      sub\n      dup2\n      add\n      swap1\n      tag_61\n      swap2\n      swap1\n      tag_44\n      jump\t// in\n    tag_61:\n      tag_62\n      jump\t// in\n    tag_60:\n      mload(0x40)\n      tag_63\n      swap2\n      swap1\n      tag_59\n      jump\t// in\n    tag_63:\n      mload(0x40)\n      dup1\n      swap2\n      sub\n      swap1\n      return\n        /* \"@openzeppelin/contracts/token/ERC721/ERC721.sol\":4787:4919  function safeTransferFrom(address from, address to, uint256 tokenId) public {... */\n    tag_10:\n      tag_64\n      0x04\n      dup1\n      calldatasize\n      sub\n      dup2\n      add\n      swap1\n      tag_65\n      swap2\n      swap1\n      tag_54\n      jump\t// in\n    tag_65:\n      tag_66\n      jump\t// in\n    tag_64:\n      stop\n        /* \"@openzeppelin/contracts/token/ERC721/ERC721.sol\":2185:2303  function ownerOf(uint256 tokenId) public view virtual returns (address) {... */\n    tag_11:\n      tag_67\n      0x04\n      dup1\n      calldatasize\n      sub\n      dup2\n      add\n      swap1\n      tag_68\n      swap2\n      swap1\n      tag_44\n      jump\t// in\n    tag_68:\n      tag_69\n      jump\t// in\n    tag_67:\n      mload(0x40)\n      tag_70\n      swap2\n      swap1\n      tag_47\n      jump\t// in\n    tag_70:\n      mload(0x40)\n      dup1\n      swap2\n      sub\n      swap1\n      return\n        /* \"contracts/AquoNFT.sol\":1239:1358  function getSharesOfAddress(address owner) public view returns (uint256) {... */\n    tag_12:\n      tag_71\n      0x04\n      dup1\n      calldatasize\n      sub\n      dup2\n      add\n      swap1\n      tag_72\n      swap2\n      swap1\n      tag_73\n      jump\t// in\n    tag_72:\n      tag_74\n      jump\t// in\n    tag_71:\n      mload(0x40)\n      tag_75\n      swap2\n      swap1\n      tag_59\n      jump\t// in\n    tag_75:\n      mload(0x40)\n      dup1\n      swap2\n      sub\n      swap1\n      return\n        /* \"@openzeppelin/contracts/token/ERC721/ERC721.sol\":1920:2128  function balanceOf(address owner) public view virtual returns (uint256) {... */\n    tag_13:\n      tag_76\n      0x04\n      dup1\n      calldatasize\n      sub\n      dup2\n      add\n      swap1\n      tag_77\n      swap2\n      swap1\n      tag_73\n      jump\t// in\n    tag_77:\n      tag_78\n      jump\t// in\n    tag_76:\n      mload(0x40)\n      tag_79\n      swap2\n      swap1\n      tag_59\n      jump\t// in\n    tag_79:\n      mload(0x40)\n      dup1\n      swap2\n      sub\n      swap1\n      return\n        /* \"@openzeppelin/contracts/access/Ownable.sol\":1831:1932  function renounceOwnership() public virtual onlyOwner {... */\n    tag_14:\n      tag_80\n      tag_81\n      jump\t// in\n    tag_80:\n      stop\n        /* \"contracts/AquoNFT.sol\":1110:1229  function getSharesOfToken(uint256 tokenId) public view returns (uint256) {... */\n    tag_15:\n      tag_82\n      0x04\n      dup1\n      calldatasize\n      sub\n      dup2\n      add\n      swap1\n      tag_83\n      swap2\n      swap1\n      tag_44\n      jump\t// in\n    tag_83:\n      tag_84\n      jump\t// in\n    tag_82:\n      mload(0x40)\n      tag_85\n      swap2\n      swap1\n      tag_59\n      jump\t// in\n    tag_85:\n      mload(0x40)\n      dup1\n      swap2\n      sub\n      swap1\n      return\n        /* \"contracts/AquoNFT.sol\":381:411  uint256 public nextTokenId = 1 */\n    tag_16:\n      tag_86\n      tag_87\n      jump\t// in\n    tag_86:\n      mload(0x40)\n      tag_88\n      swap2\n      swap1\n      tag_59\n      jump\t// in\n    tag_88:\n      mload(0x40)\n      dup1\n      swap2\n      sub\n      swap1\n      return\n        /* \"contracts/AquoNFT.sol\":1366:2494  function transferShares(uint256 _tokenId, uint256 _shares, address _recipient) external {... */\n    tag_17:\n      tag_89\n      0x04\n      dup1\n      calldatasize\n      sub\n      dup2\n      add\n      swap1\n      tag_90\n      swap2\n      swap1\n      tag_91\n      jump\t// in\n    tag_90:\n      tag_92\n      jump\t// in\n    tag_89:\n      stop\n        /* \"@openzeppelin/contracts/access/Ownable.sol\":1201:1286  function owner() public view virtual returns (address) {... */\n    tag_18:\n      tag_93\n      tag_94\n      jump\t// in\n    tag_93:\n      mload(0x40)\n      tag_95\n      swap2\n      swap1\n      tag_47\n      jump\t// in\n    tag_95:\n      mload(0x40)\n      dup1\n      swap2\n      sub\n      swap1\n      return\n        /* \"@openzeppelin/contracts/token/ERC721/ERC721.sol\":2518:2611  function symbol() public view virtual returns (string memory) {... */\n    tag_19:\n      tag_96\n      tag_97\n      jump\t// in\n    tag_96:\n      mload(0x40)\n      tag_98\n      swap2\n      swap1\n      tag_41\n      jump\t// in\n    tag_98:\n      mload(0x40)\n      dup1\n      swap2\n      sub\n      swap1\n      return\n        /* \"contracts/AquoNFT.sol\":344:374  uint256 public sharesAllocated */\n    tag_20:\n      tag_99\n      tag_100\n      jump\t// in\n    tag_99:\n      mload(0x40)\n      tag_101\n      swap2\n      swap1\n      tag_59\n      jump\t// in\n    tag_101:\n      mload(0x40)\n      dup1\n      swap2\n      sub\n      swap1\n      return\n        /* \"@openzeppelin/contracts/token/ERC721/ERC721.sol\":3718:3862  function setApprovalForAll(address operator, bool approved) public virtual {... */\n    tag_21:\n      tag_102\n      0x04\n      dup1\n      calldatasize\n      sub\n      dup2\n      add\n      swap1\n      tag_103\n      swap2\n      swap1\n      tag_104\n      jump\t// in\n    tag_103:\n      tag_105\n      jump\t// in\n    tag_102:\n      stop\n        /* \"@openzeppelin/contracts/token/ERC721/ERC721.sol\":4985:5193  function safeTransferFrom(address from, address to, uint256 tokenId, bytes memory data) public virtual {... */\n    tag_22:\n      tag_106\n      0x04\n      dup1\n      calldatasize\n      sub\n      dup2\n      add\n      swap1\n      tag_107\n      swap2\n      swap1\n      tag_108\n      jump\t// in\n    tag_107:\n      tag_109\n      jump\t// in\n    tag_106:\n      stop\n        /* \"@openzeppelin/contracts/token/ERC721/extensions/ERC721URIStorage.sol\":1210:1803  function tokenURI(uint256 tokenId) public view virtual override returns (string memory) {... */\n    tag_23:\n      tag_110\n      0x04\n      dup1\n      calldatasize\n      sub\n      dup2\n      add\n      swap1\n      tag_111\n      swap2\n      swap1\n      tag_44\n      jump\t// in\n    tag_111:\n      tag_112\n      jump\t// in\n    tag_110:\n      mload(0x40)\n      tag_113\n      swap2\n      swap1\n      tag_41\n      jump\t// in\n    tag_113:\n      mload(0x40)\n      dup1\n      swap2\n      sub\n      swap1\n      return\n        /* \"contracts/AquoNFT.sol\":514:562  mapping(address => uint256) public sharesOfOwner */\n    tag_24:\n      tag_114\n      0x04\n      dup1\n      calldatasize\n      sub\n      dup2\n      add\n      swap1\n      tag_115\n      swap2\n      swap1\n      tag_73\n      jump\t// in\n    tag_115:\n      tag_116\n      jump\t// in\n    tag_114:\n      mload(0x40)\n      tag_117\n      swap2\n      swap1\n      tag_59\n      jump\t// in\n    tag_117:\n      mload(0x40)\n      dup1\n      swap2\n      sub\n      swap1\n      return\n        /* \"contracts/AquoNFT.sol\":688:1102  function allocateShares(uint256 _shares, address _recipient) external onlyOwner {... */\n    tag_25:\n      tag_118\n      0x04\n      dup1\n      calldatasize\n      sub\n      dup2\n      add\n      swap1\n      tag_119\n      swap2\n      swap1\n      tag_120\n      jump\t// in\n    tag_119:\n      tag_121\n      jump\t// in\n    tag_118:\n      stop\n        /* \"@openzeppelin/contracts/token/ERC721/ERC721.sol\":3928:4081  function isApprovedForAll(address owner, address operator) public view virtual returns (bool) {... */\n    tag_26:\n      tag_122\n      0x04\n      dup1\n      calldatasize\n      sub\n      dup2\n      add\n      swap1\n      tag_123\n      swap2\n      swap1\n      tag_124\n      jump\t// in\n    tag_123:\n      tag_125\n      jump\t// in\n    tag_122:\n      mload(0x40)\n      tag_126\n      swap2\n      swap1\n      tag_37\n      jump\t// in\n    tag_126:\n      mload(0x40)\n      dup1\n      swap2\n      sub\n      swap1\n      return\n        /* \"@openzeppelin/contracts/access/Ownable.sol\":2081:2279  function transferOwnership(address newOwner) public virtual onlyOwner {... */\n    tag_27:\n      tag_127\n      0x04\n      dup1\n      calldatasize\n      sub\n      dup2\n      add\n      swap1\n      tag_128\n      swap2\n      swap1\n      tag_73\n      jump\t// in\n    tag_128:\n      tag_129\n      jump\t// in\n    tag_127:\n      stop\n        /* \"@openzeppelin/contracts/token/ERC721/extensions/ERC721URIStorage.sol\":937:1144  function supportsInterface(bytes4 interfaceId) public view virtual override(ERC721, IERC165) returns (bool) {... */\n    tag_35:\n        /* \"@openzeppelin/contracts/token/ERC721/extensions/ERC721URIStorage.sol\":1039:1043  bool */\n      0x00\n        /* \"@openzeppelin/contracts/token/ERC721/extensions/ERC721URIStorage.sol\":760:770  0x49064906 */\n      0x49064906\n        /* \"@openzeppelin/contracts/token/ERC721/extensions/ERC721URIStorage.sol\":753:771  bytes4(0x49064906) */\n      0xe0\n      shl\n        /* \"@openzeppelin/contracts/token/ERC721/extensions/ERC721URIStorage.sol\":1062:1097  interfaceId == ERC4906_INTERFACE_ID */\n      not(0xffffffffffffffffffffffffffffffffffffffffffffffffffffffff)\n      and\n        /* \"@openzeppelin/contracts/token/ERC721/extensions/ERC721URIStorage.sol\":1062:1073  interfaceId */\n      dup3\n        /* \"@openzeppelin/contracts/token/ERC721/extensions/ERC721URIStorage.sol\":1062:1097  interfaceId == ERC4906_INTERFACE_ID */\n      not(0xffffffffffffffffffffffffffffffffffffffffffffffffffffffff)\n      and\n      eq\n        /* \"@openzeppelin/contracts/token/ERC721/extensions/ERC721URIStorage.sol\":1062:1137  interfaceId == ERC4906_INTERFACE_ID || super.supportsInterface(interfaceId) */\n      dup1\n      tag_131\n      jumpi\n      pop\n        /* \"@openzeppelin/contracts/token/ERC721/extensions/ERC721URIStorage.sol\":1101:1137  super.supportsInterface(interfaceId) */\n      tag_132\n        /* \"@openzeppelin/contracts/token/ERC721/extensions/ERC721URIStorage.sol\":1125:1136  interfaceId */\n      dup3\n        /* \"@openzeppelin/contracts/token/ERC721/extensions/ERC721URIStorage.sol\":1101:1124  super.supportsInterface */\n      tag_133\n        /* \"@openzeppelin/contracts/token/ERC721/extensions/ERC721URIStorage.sol\":1101:1137  super.supportsInterface(interfaceId) */\n      jump\t// in\n    tag_132:\n        /* \"@openzeppelin/contracts/token/ERC721/extensions/ERC721URIStorage.sol\":1062:1137  interfaceId == ERC4906_INTERFACE_ID || super.supportsInterface(interfaceId) */\n    tag_131:\n        /* \"@openzeppelin/contracts/token/ERC721/extensions/ERC721URIStorage.sol\":1055:1137  return interfaceId == ERC4906_INTERFACE_ID || super.supportsInterface(interfaceId) */\n      swap1\n      pop\n        /* \"@openzeppelin/contracts/token/ERC721/extensions/ERC721URIStorage.sol\":937:1144  function supportsInterface(bytes4 interfaceId) public view virtual override(ERC721, IERC165) returns (bool) {... */\n      swap2\n      swap1\n      pop\n      jump\t// out\n        /* \"@openzeppelin/contracts/token/ERC721/ERC721.sol\":2365:2454  function name() public view virtual returns (string memory) {... */\n    tag_39:\n        /* \"@openzeppelin/contracts/token/ERC721/ERC721.sol\":2410:2423  string memory */\n      0x60\n        /* \"@openzeppelin/contracts/token/ERC721/ERC721.sol\":2442:2447  _name */\n      0x00\n        /* \"@openzeppelin/contracts/token/ERC721/ERC721.sol\":2435:2447  return _name */\n      dup1\n      sload\n      tag_135\n      swap1\n      tag_136\n      jump\t// in\n    tag_135:\n      dup1\n      0x1f\n      add\n      0x20\n      dup1\n      swap2\n      div\n      mul\n      0x20\n      add\n      mload(0x40)\n      swap1\n      dup2\n      add\n      0x40\n      mstore\n      dup1\n      swap3\n      swap2\n      swap1\n      dup2\n      dup2\n      mstore\n      0x20\n      add\n      dup3\n      dup1\n      sload\n      tag_137\n      swap1\n      tag_136\n      jump\t// in\n    tag_137:\n      dup1\n      iszero\n      tag_138\n      jumpi\n      dup1\n      0x1f\n      lt\n      tag_139\n      jumpi\n      0x0100\n      dup1\n      dup4\n      sload\n      div\n      mul\n      dup4\n      mstore\n      swap2\n      0x20\n      add\n      swap2\n      jump(tag_138)\n    tag_139:\n      dup3\n      add\n      swap2\n      swap1\n      0x00\n      mstore\n      keccak256(0x00, 0x20)\n      swap1\n    tag_140:\n      dup2\n      sload\n      dup2\n      mstore\n      swap1\n      0x01\n      add\n      swap1\n      0x20\n      add\n      dup1\n      dup4\n      gt\n      tag_140\n      jumpi\n      dup3\n      swap1\n      sub\n      0x1f\n      and\n      dup3\n      add\n      swap2\n    tag_138:\n      pop\n      pop\n      pop\n      pop\n      pop\n      swap1\n      pop\n        /* \"@openzeppelin/contracts/token/ERC721/ERC721.sol\":2365:2454  function name() public view virtual returns (string memory) {... */\n      swap1\n      jump\t// out\n        /* \"@openzeppelin/contracts/token/ERC721/ERC721.sol\":3497:3651  function getApproved(uint256 tokenId) public view virtual returns (address) {... */\n    tag_45:\n        /* \"@openzeppelin/contracts/token/ERC721/ERC721.sol\":3564:3571  address */\n      0x00\n        /* \"@openzeppelin/contracts/token/ERC721/ERC721.sol\":3583:3605  _requireOwned(tokenId) */\n      tag_142\n        /* \"@openzeppelin/contracts/token/ERC721/ERC721.sol\":3597:3604  tokenId */\n      dup3\n        /* \"@openzeppelin/contracts/token/ERC721/ERC721.sol\":3583:3596  _requireOwned */\n      tag_143\n        /* \"@openzeppelin/contracts/token/ERC721/ERC721.sol\":3583:3605  _requireOwned(tokenId) */\n      jump\t// in\n    tag_142:\n      pop\n        /* \"@openzeppelin/contracts/token/ERC721/ERC721.sol\":3623:3644  _getApproved(tokenId) */\n      tag_144\n        /* \"@openzeppelin/contracts/token/ERC721/ERC721.sol\":3636:3643  tokenId */\n      dup3\n        /* \"@openzeppelin/contracts/token/ERC721/ERC721.sol\":3623:3635  _getApproved */\n      tag_145\n        /* \"@openzeppelin/contracts/token/ERC721/ERC721.sol\":3623:3644  _getApproved(tokenId) */\n      jump\t// in\n    tag_144:\n        /* \"@openzeppelin/contracts/token/ERC721/ERC721.sol\":3616:3644  return _getApproved(tokenId) */\n      swap1\n      pop\n        /* \"@openzeppelin/contracts/token/ERC721/ERC721.sol\":3497:3651  function getApproved(uint256 tokenId) public view virtual returns (address) {... */\n      swap2\n      swap1\n      pop\n      jump\t// out\n        /* \"@openzeppelin/contracts/token/ERC721/ERC721.sol\":3323:3436  function approve(address to, uint256 tokenId) public virtual {... */\n    tag_51:\n        /* \"@openzeppelin/contracts/token/ERC721/ERC721.sol\":3394:3429  _approve(to, tokenId, _msgSender()) */\n      tag_147\n        /* \"@openzeppelin/contracts/token/ERC721/ERC721.sol\":3403:3405  to */\n      dup3\n        /* \"@openzeppelin/contracts/token/ERC721/ERC721.sol\":3407:3414  tokenId */\n      dup3\n        /* \"@openzeppelin/contracts/token/ERC721/ERC721.sol\":3416:3428  _msgSender() */\n      tag_148\n        /* \"@openzeppelin/contracts/token/ERC721/ERC721.sol\":3416:3426  _msgSender */\n      tag_149\n        /* \"@openzeppelin/contracts/token/ERC721/ERC721.sol\":3416:3428  _msgSender() */\n      jump\t// in\n    tag_148:\n        /* \"@openzeppelin/contracts/token/ERC721/ERC721.sol\":3394:3402  _approve */\n      tag_150\n        /* \"@openzeppelin/contracts/token/ERC721/ERC721.sol\":3394:3429  _approve(to, tokenId, _msgSender()) */\n      jump\t// in\n    tag_147:\n        /* \"@openzeppelin/contracts/token/ERC721/ERC721.sol\":3323:3436  function approve(address to, uint256 tokenId) public virtual {... */\n      pop\n      pop\n      jump\t// out\n        /* \"@openzeppelin/contracts/token/ERC721/ERC721.sol\":4143:4721  function transferFrom(address from, address to, uint256 tokenId) public virtual {... */\n    tag_55:\n        /* \"@openzeppelin/contracts/token/ERC721/ERC721.sol\":4251:4252  0 */\n      0x00\n        /* \"@openzeppelin/contracts/token/ERC721/ERC721.sol\":4237:4253  to == address(0) */\n      0xffffffffffffffffffffffffffffffffffffffff\n      and\n        /* \"@openzeppelin/contracts/token/ERC721/ERC721.sol\":4237:4239  to */\n      dup3\n        /* \"@openzeppelin/contracts/token/ERC721/ERC721.sol\":4237:4253  to == address(0) */\n      0xffffffffffffffffffffffffffffffffffffffff\n      and\n      sub\n        /* \"@openzeppelin/contracts/token/ERC721/ERC721.sol\":4233:4320  if (to == address(0)) {... */\n      tag_152\n      jumpi\n        /* \"@openzeppelin/contracts/token/ERC721/ERC721.sol\":4306:4307  0 */\n      0x00\n        /* \"@openzeppelin/contracts/token/ERC721/ERC721.sol\":4276:4309  ERC721InvalidReceiver(address(0)) */\n      mload(0x40)\n      0x64a0ae9200000000000000000000000000000000000000000000000000000000\n      dup2\n      mstore\n      0x04\n      add\n      tag_153\n      swap2\n      swap1\n      tag_47\n      jump\t// in\n    tag_153:\n      mload(0x40)\n      dup1\n      swap2\n      sub\n      swap1\n      revert\n        /* \"@openzeppelin/contracts/token/ERC721/ERC721.sol\":4233:4320  if (to == address(0)) {... */\n    tag_152:\n        /* \"@openzeppelin/contracts/token/ERC721/ERC721.sol\":4538:4559  address previousOwner */\n      0x00\n        /* \"@openzeppelin/contracts/token/ERC721/ERC721.sol\":4562:4596  _update(to, tokenId, _msgSender()) */\n      tag_154\n        /* \"@openzeppelin/contracts/token/ERC721/ERC721.sol\":4570:4572  to */\n      dup4\n        /* \"@openzeppelin/contracts/token/ERC721/ERC721.sol\":4574:4581  tokenId */\n      dup4\n        /* \"@openzeppelin/contracts/token/ERC721/ERC721.sol\":4583:4595  _msgSender() */\n      tag_155\n        /* \"@openzeppelin/contracts/token/ERC721/ERC721.sol\":4583:4593  _msgSender */\n      tag_149\n        /* \"@openzeppelin/contracts/token/ERC721/ERC721.sol\":4583:4595  _msgSender() */\n      jump\t// in\n    tag_155:\n        /* \"@openzeppelin/contracts/token/ERC721/ERC721.sol\":4562:4569  _update */\n      tag_156\n        /* \"@openzeppelin/contracts/token/ERC721/ERC721.sol\":4562:4596  _update(to, tokenId, _msgSender()) */\n      jump\t// in\n    tag_154:\n        /* \"@openzeppelin/contracts/token/ERC721/ERC721.sol\":4538:4596  address previousOwner = _update(to, tokenId, _msgSender()) */\n      swap1\n      pop\n        /* \"@openzeppelin/contracts/token/ERC721/ERC721.sol\":4627:4631  from */\n      dup4\n        /* \"@openzeppelin/contracts/token/ERC721/ERC721.sol\":4610:4631  previousOwner != from */\n      0xffffffffffffffffffffffffffffffffffffffff\n      and\n        /* \"@openzeppelin/contracts/token/ERC721/ERC721.sol\":4610:4623  previousOwner */\n      dup2\n        /* \"@openzeppelin/contracts/token/ERC721/ERC721.sol\":4610:4631  previousOwner != from */\n      0xffffffffffffffffffffffffffffffffffffffff\n      and\n      eq\n        /* \"@openzeppelin/contracts/token/ERC721/ERC721.sol\":4606:4715  if (previousOwner != from) {... */\n      tag_157\n      jumpi\n        /* \"@openzeppelin/contracts/token/ERC721/ERC721.sol\":4675:4679  from */\n      dup4\n        /* \"@openzeppelin/contracts/token/ERC721/ERC721.sol\":4681:4688  tokenId */\n      dup3\n        /* \"@openzeppelin/contracts/token/ERC721/ERC721.sol\":4690:4703  previousOwner */\n      dup3\n        /* \"@openzeppelin/contracts/token/ERC721/ERC721.sol\":4654:4704  ERC721IncorrectOwner(from, tokenId, previousOwner) */\n      mload(0x40)\n      0x64283d7b00000000000000000000000000000000000000000000000000000000\n      dup2\n      mstore\n      0x04\n      add\n      tag_158\n      swap4\n      swap3\n      swap2\n      swap1\n      tag_159\n      jump\t// in\n    tag_158:\n      mload(0x40)\n      dup1\n      swap2\n      sub\n      swap1\n      revert\n        /* \"@openzeppelin/contracts/token/ERC721/ERC721.sol\":4606:4715  if (previousOwner != from) {... */\n    tag_157:\n        /* \"@openzeppelin/contracts/token/ERC721/ERC721.sol\":4223:4721  {... */\n      pop\n        /* \"@openzeppelin/contracts/token/ERC721/ERC721.sol\":4143:4721  function transferFrom(address from, address to, uint256 tokenId) public virtual {... */\n      pop\n      pop\n      pop\n      jump\t// out\n        /* \"contracts/AquoNFT.sol\":311:337  uint256 public totalShares */\n    tag_57:\n      sload(0x08)\n      dup2\n      jump\t// out\n        /* \"contracts/AquoNFT.sol\":459:505  mapping(uint256 => uint256) public tokenShares */\n    tag_62:\n      mstore(0x20, 0x0b)\n      dup1\n      0x00\n      mstore\n      keccak256(0x00, 0x40)\n      0x00\n      swap2\n      pop\n      swap1\n      pop\n      sload\n      dup2\n      jump\t// out\n        /* \"@openzeppelin/contracts/token/ERC721/ERC721.sol\":4787:4919  function safeTransferFrom(address from, address to, uint256 tokenId) public {... */\n    tag_66:\n        /* \"@openzeppelin/contracts/token/ERC721/ERC721.sol\":4873:4912  safeTransferFrom(from, to, tokenId, \"\") */\n      tag_161\n        /* \"@openzeppelin/contracts/token/ERC721/ERC721.sol\":4890:4894  from */\n      dup4\n        /* \"@openzeppelin/contracts/token/ERC721/ERC721.sol\":4896:4898  to */\n      dup4\n        /* \"@openzeppelin/contracts/token/ERC721/ERC721.sol\":4900:4907  tokenId */\n      dup4\n        /* \"@openzeppelin/contracts/token/ERC721/ERC721.sol\":4873:4912  safeTransferFrom(from, to, tokenId, \"\") */\n      mload(0x40)\n      dup1\n      0x20\n      add\n      0x40\n      mstore\n      dup1\n      0x00\n      dup2\n      mstore\n      pop\n        /* \"@openzeppelin/contracts/token/ERC721/ERC721.sol\":4873:4889  safeTransferFrom */\n      tag_109\n        /* \"@openzeppelin/contracts/token/ERC721/ERC721.sol\":4873:4912  safeTransferFrom(from, to, tokenId, \"\") */\n      jump\t// in\n    tag_161:\n        /* \"@openzeppelin/contracts/token/ERC721/ERC721.sol\":4787:4919  function safeTransferFrom(address from, address to, uint256 tokenId) public {... */\n      pop\n      pop\n      pop\n      jump\t// out\n        /* \"@openzeppelin/contracts/token/ERC721/ERC721.sol\":2185:2303  function ownerOf(uint256 tokenId) public view virtual returns (address) {... */\n    tag_69:\n        /* \"@openzeppelin/contracts/token/ERC721/ERC721.sol\":2248:2255  address */\n      0x00\n        /* \"@openzeppelin/contracts/token/ERC721/ERC721.sol\":2274:2296  _requireOwned(tokenId) */\n      tag_163\n        /* \"@openzeppelin/contracts/token/ERC721/ERC721.sol\":2288:2295  tokenId */\n      dup3\n        /* \"@openzeppelin/contracts/token/ERC721/ERC721.sol\":2274:2287  _requireOwned */\n      tag_143\n        /* \"@openzeppelin/contracts/token/ERC721/ERC721.sol\":2274:2296  _requireOwned(tokenId) */\n      jump\t// in\n    tag_163:\n        /* \"@openzeppelin/contracts/token/ERC721/ERC721.sol\":2267:2296  return _requireOwned(tokenId) */\n      swap1\n      pop\n        /* \"@openzeppelin/contracts/token/ERC721/ERC721.sol\":2185:2303  function ownerOf(uint256 tokenId) public view virtual returns (address) {... */\n      swap2\n      swap1\n      pop\n      jump\t// out\n        /* \"contracts/AquoNFT.sol\":1239:1358  function getSharesOfAddress(address owner) public view returns (uint256) {... */\n    tag_74:\n        /* \"contracts/AquoNFT.sol\":1303:1310  uint256 */\n      0x00\n        /* \"contracts/AquoNFT.sol\":1330:1343  sharesOfOwner */\n      0x0c\n        /* \"contracts/AquoNFT.sol\":1330:1350  sharesOfOwner[owner] */\n      0x00\n        /* \"contracts/AquoNFT.sol\":1344:1349  owner */\n      dup4\n        /* \"contracts/AquoNFT.sol\":1330:1350  sharesOfOwner[owner] */\n      0xffffffffffffffffffffffffffffffffffffffff\n      and\n      0xffffffffffffffffffffffffffffffffffffffff\n      and\n      dup2\n      mstore\n      0x20\n      add\n      swap1\n      dup2\n      mstore\n      0x20\n      add\n      0x00\n      keccak256\n      sload\n        /* \"contracts/AquoNFT.sol\":1323:1350  return sharesOfOwner[owner] */\n      swap1\n      pop\n        /* \"contracts/AquoNFT.sol\":1239:1358  function getSharesOfAddress(address owner) public view returns (uint256) {... */\n      swap2\n      swap1\n      pop\n      jump\t// out\n        /* \"@openzeppelin/contracts/token/ERC721/ERC721.sol\":1920:2128  function balanceOf(address owner) public view virtual returns (uint256) {... */\n    tag_78:\n        /* \"@openzeppelin/contracts/token/ERC721/ERC721.sol\":1983:1990  uint256 */\n      0x00\n        /* \"@openzeppelin/contracts/token/ERC721/ERC721.sol\":2023:2024  0 */\n      dup1\n        /* \"@openzeppelin/contracts/token/ERC721/ERC721.sol\":2006:2025  owner == address(0) */\n      0xffffffffffffffffffffffffffffffffffffffff\n      and\n        /* \"@openzeppelin/contracts/token/ERC721/ERC721.sol\":2006:2011  owner */\n      dup3\n        /* \"@openzeppelin/contracts/token/ERC721/ERC721.sol\":2006:2025  owner == address(0) */\n      0xffffffffffffffffffffffffffffffffffffffff\n      and\n      sub\n        /* \"@openzeppelin/contracts/token/ERC721/ERC721.sol\":2002:2089  if (owner == address(0)) {... */\n      tag_166\n      jumpi\n        /* \"@openzeppelin/contracts/token/ERC721/ERC721.sol\":2075:2076  0 */\n      0x00\n        /* \"@openzeppelin/contracts/token/ERC721/ERC721.sol\":2048:2078  ERC721InvalidOwner(address(0)) */\n      mload(0x40)\n      0x89c62b6400000000000000000000000000000000000000000000000000000000\n      dup2\n      mstore\n      0x04\n      add\n      tag_167\n      swap2\n      swap1\n      tag_47\n      jump\t// in\n    tag_167:\n      mload(0x40)\n      dup1\n      swap2\n      sub\n      swap1\n      revert\n        /* \"@openzeppelin/contracts/token/ERC721/ERC721.sol\":2002:2089  if (owner == address(0)) {... */\n    tag_166:\n        /* \"@openzeppelin/contracts/token/ERC721/ERC721.sol\":2105:2114  _balances */\n      0x03\n        /* \"@openzeppelin/contracts/token/ERC721/ERC721.sol\":2105:2121  _balances[owner] */\n      0x00\n        /* \"@openzeppelin/contracts/token/ERC721/ERC721.sol\":2115:2120  owner */\n      dup4\n        /* \"@openzeppelin/contracts/token/ERC721/ERC721.sol\":2105:2121  _balances[owner] */\n      0xffffffffffffffffffffffffffffffffffffffff\n      and\n      0xffffffffffffffffffffffffffffffffffffffff\n      and\n      dup2\n      mstore\n      0x20\n      add\n      swap1\n      dup2\n      mstore\n      0x20\n      add\n      0x00\n      keccak256\n      sload\n        /* \"@openzeppelin/contracts/token/ERC721/ERC721.sol\":2098:2121  return _balances[owner] */\n      swap1\n      pop\n        /* \"@openzeppelin/contracts/token/ERC721/ERC721.sol\":1920:2128  function balanceOf(address owner) public view virtual returns (uint256) {... */\n      swap2\n      swap1\n      pop\n      jump\t// out\n        /* \"@openzeppelin/contracts/access/Ownable.sol\":1831:1932  function renounceOwnership() public virtual onlyOwner {... */\n    tag_81:\n        /* \"@openzeppelin/contracts/access/Ownable.sol\":1094:1107  _checkOwner() */\n      tag_169\n        /* \"@openzeppelin/contracts/access/Ownable.sol\":1094:1105  _checkOwner */\n      tag_170\n        /* \"@openzeppelin/contracts/access/Ownable.sol\":1094:1107  _checkOwner() */\n      jump\t// in\n    tag_169:\n        /* \"@openzeppelin/contracts/access/Ownable.sol\":1895:1925  _transferOwnership(address(0)) */\n      tag_172\n        /* \"@openzeppelin/contracts/access/Ownable.sol\":1922:1923  0 */\n      0x00\n        /* \"@openzeppelin/contracts/access/Ownable.sol\":1895:1913  _transferOwnership */\n      tag_173\n        /* \"@openzeppelin/contracts/access/Ownable.sol\":1895:1925  _transferOwnership(address(0)) */\n      jump\t// in\n    tag_172:\n        /* \"@openzeppelin/contracts/access/Ownable.sol\":1831:1932  function renounceOwnership() public virtual onlyOwner {... */\n      jump\t// out\n        /* \"contracts/AquoNFT.sol\":1110:1229  function getSharesOfToken(uint256 tokenId) public view returns (uint256) {... */\n    tag_84:\n        /* \"contracts/AquoNFT.sol\":1174:1181  uint256 */\n      0x00\n        /* \"contracts/AquoNFT.sol\":1201:1212  tokenShares */\n      0x0b\n        /* \"contracts/AquoNFT.sol\":1201:1221  tokenShares[tokenId] */\n      0x00\n        /* \"contracts/AquoNFT.sol\":1213:1220  tokenId */\n      dup4\n        /* \"contracts/AquoNFT.sol\":1201:1221  tokenShares[tokenId] */\n      dup2\n      mstore\n      0x20\n      add\n      swap1\n      dup2\n      mstore\n      0x20\n      add\n      0x00\n      keccak256\n      sload\n        /* \"contracts/AquoNFT.sol\":1194:1221  return tokenShares[tokenId] */\n      swap1\n      pop\n        /* \"contracts/AquoNFT.sol\":1110:1229  function getSharesOfToken(uint256 tokenId) public view returns (uint256) {... */\n      swap2\n      swap1\n      pop\n      jump\t// out\n        /* \"contracts/AquoNFT.sol\":381:411  uint256 public nextTokenId = 1 */\n    tag_87:\n      sload(0x0a)\n      dup2\n      jump\t// out\n        /* \"contracts/AquoNFT.sol\":1366:2494  function transferShares(uint256 _tokenId, uint256 _shares, address _recipient) external {... */\n    tag_92:\n        /* \"contracts/AquoNFT.sol\":1494:1504  msg.sender */\n      caller\n        /* \"contracts/AquoNFT.sol\":1473:1504  ownerOf(_tokenId) == msg.sender */\n      0xffffffffffffffffffffffffffffffffffffffff\n      and\n        /* \"contracts/AquoNFT.sol\":1473:1490  ownerOf(_tokenId) */\n      tag_176\n        /* \"contracts/AquoNFT.sol\":1481:1489  _tokenId */\n      dup5\n        /* \"contracts/AquoNFT.sol\":1473:1480  ownerOf */\n      tag_69\n        /* \"contracts/AquoNFT.sol\":1473:1490  ownerOf(_tokenId) */\n      jump\t// in\n    tag_176:\n        /* \"contracts/AquoNFT.sol\":1473:1504  ownerOf(_tokenId) == msg.sender */\n      0xffffffffffffffffffffffffffffffffffffffff\n      and\n      eq\n        /* \"contracts/AquoNFT.sol\":1465:1545  require(ownerOf(_tokenId) == msg.sender, \"Only token owner can transfer shares\") */\n      tag_177\n      jumpi\n      mload(0x40)\n      0x08c379a000000000000000000000000000000000000000000000000000000000\n      dup2\n      mstore\n      0x04\n      add\n      tag_178\n      swap1\n      tag_179\n      jump\t// in\n    tag_178:\n      mload(0x40)\n      dup1\n      swap2\n      sub\n      swap1\n      revert\n    tag_177:\n        /* \"contracts/AquoNFT.sol\":1589:1596  _shares */\n      dup2\n        /* \"contracts/AquoNFT.sol\":1564:1575  tokenShares */\n      0x0b\n        /* \"contracts/AquoNFT.sol\":1564:1585  tokenShares[_tokenId] */\n      0x00\n        /* \"contracts/AquoNFT.sol\":1576:1584  _tokenId */\n      dup6\n        /* \"contracts/AquoNFT.sol\":1564:1585  tokenShares[_tokenId] */\n      dup2\n      mstore\n      0x20\n      add\n      swap1\n      dup2\n      mstore\n      0x20\n      add\n      0x00\n      keccak256\n      sload\n        /* \"contracts/AquoNFT.sol\":1564:1596  tokenShares[_tokenId] >= _shares */\n      lt\n      iszero\n        /* \"contracts/AquoNFT.sol\":1556:1627  require(tokenShares[_tokenId] >= _shares, \"Not enough shares on token\") */\n      tag_180\n      jumpi\n      mload(0x40)\n      0x08c379a000000000000000000000000000000000000000000000000000000000\n      dup2\n      mstore\n      0x04\n      add\n      tag_181\n      swap1\n      tag_182\n      jump\t// in\n    tag_181:\n      mload(0x40)\n      dup1\n      swap2\n      sub\n      swap1\n      revert\n    tag_180:\n        /* \"contracts/AquoNFT.sol\":1656:1657  0 */\n      0x00\n        /* \"contracts/AquoNFT.sol\":1646:1653  _shares */\n      dup3\n        /* \"contracts/AquoNFT.sol\":1646:1657  _shares > 0 */\n      gt\n        /* \"contracts/AquoNFT.sol\":1638:1685  require(_shares > 0, \"Shares must be positive\") */\n      tag_183\n      jumpi\n      mload(0x40)\n      0x08c379a000000000000000000000000000000000000000000000000000000000\n      dup2\n      mstore\n      0x04\n      add\n      tag_184\n      swap1\n      tag_185\n      jump\t// in\n    tag_184:\n      mload(0x40)\n      dup1\n      swap2\n      sub\n      swap1\n      revert\n    tag_183:\n        /* \"contracts/AquoNFT.sol\":1706:1729  uint256 remainingShares */\n      0x00\n        /* \"contracts/AquoNFT.sol\":1756:1763  _shares */\n      dup3\n        /* \"contracts/AquoNFT.sol\":1732:1743  tokenShares */\n      0x0b\n        /* \"contracts/AquoNFT.sol\":1732:1753  tokenShares[_tokenId] */\n      0x00\n        /* \"contracts/AquoNFT.sol\":1744:1752  _tokenId */\n      dup7\n        /* \"contracts/AquoNFT.sol\":1732:1753  tokenShares[_tokenId] */\n      dup2\n      mstore\n      0x20\n      add\n      swap1\n      dup2\n      mstore\n      0x20\n      add\n      0x00\n      keccak256\n      sload\n        /* \"contracts/AquoNFT.sol\":1732:1763  tokenShares[_tokenId] - _shares */\n      tag_186\n      swap2\n      swap1\n      tag_187\n      jump\t// in\n    tag_186:\n        /* \"contracts/AquoNFT.sol\":1706:1763  uint256 remainingShares = tokenShares[_tokenId] - _shares */\n      swap1\n      pop\n        /* \"contracts/AquoNFT.sol\":1813:1828  _burn(_tokenId) */\n      tag_188\n        /* \"contracts/AquoNFT.sol\":1819:1827  _tokenId */\n      dup5\n        /* \"contracts/AquoNFT.sol\":1813:1818  _burn */\n      tag_189\n        /* \"contracts/AquoNFT.sol\":1813:1828  _burn(_tokenId) */\n      jump\t// in\n    tag_188:\n        /* \"contracts/AquoNFT.sol\":1912:1913  0 */\n      0x00\n        /* \"contracts/AquoNFT.sol\":1888:1899  tokenShares */\n      0x0b\n        /* \"contracts/AquoNFT.sol\":1888:1909  tokenShares[_tokenId] */\n      0x00\n        /* \"contracts/AquoNFT.sol\":1900:1908  _tokenId */\n      dup7\n        /* \"contracts/AquoNFT.sol\":1888:1909  tokenShares[_tokenId] */\n      dup2\n      mstore\n      0x20\n      add\n      swap1\n      dup2\n      mstore\n      0x20\n      add\n      0x00\n      keccak256\n        /* \"contracts/AquoNFT.sol\":1888:1913  tokenShares[_tokenId] = 0 */\n      dup2\n      swap1\n      sstore\n      pop\n        /* \"contracts/AquoNFT.sol\":2010:2011  0 */\n      0x00\n        /* \"contracts/AquoNFT.sol\":1992:2007  remainingShares */\n      dup2\n        /* \"contracts/AquoNFT.sol\":1992:2011  remainingShares > 0 */\n      gt\n        /* \"contracts/AquoNFT.sol\":1988:2220  if (remainingShares > 0) {... */\n      iszero\n      tag_190\n      jumpi\n        /* \"contracts/AquoNFT.sol\":2028:2052  uint256 remainingTokenId */\n      0x00\n        /* \"contracts/AquoNFT.sol\":2055:2066  nextTokenId */\n      0x0a\n      0x00\n        /* \"contracts/AquoNFT.sol\":2055:2068  nextTokenId++ */\n      dup2\n      sload\n      dup1\n      swap3\n      swap2\n      swap1\n      tag_191\n      swap1\n      tag_192\n      jump\t// in\n    tag_191:\n      swap2\n      swap1\n      pop\n      sstore\n        /* \"contracts/AquoNFT.sol\":2028:2068  uint256 remainingTokenId = nextTokenId++ */\n      swap1\n      pop\n        /* \"contracts/AquoNFT.sol\":2083:2118  _mint(msg.sender, remainingTokenId) */\n      tag_193\n        /* \"contracts/AquoNFT.sol\":2089:2099  msg.sender */\n      caller\n        /* \"contracts/AquoNFT.sol\":2101:2117  remainingTokenId */\n      dup3\n        /* \"contracts/AquoNFT.sol\":2083:2088  _mint */\n      tag_194\n        /* \"contracts/AquoNFT.sol\":2083:2118  _mint(msg.sender, remainingTokenId) */\n      jump\t// in\n    tag_193:\n        /* \"contracts/AquoNFT.sol\":2193:2208  remainingShares */\n      dup2\n        /* \"contracts/AquoNFT.sol\":2161:2172  tokenShares */\n      0x0b\n        /* \"contracts/AquoNFT.sol\":2161:2190  tokenShares[remainingTokenId] */\n      0x00\n        /* \"contracts/AquoNFT.sol\":2173:2189  remainingTokenId */\n      dup4\n        /* \"contracts/AquoNFT.sol\":2161:2190  tokenShares[remainingTokenId] */\n      dup2\n      mstore\n      0x20\n      add\n      swap1\n      dup2\n      mstore\n      0x20\n      add\n      0x00\n      keccak256\n        /* \"contracts/AquoNFT.sol\":2161:2208  tokenShares[remainingTokenId] = remainingShares */\n      dup2\n      swap1\n      sstore\n      pop\n        /* \"contracts/AquoNFT.sol\":2013:2220  {... */\n      pop\n        /* \"contracts/AquoNFT.sol\":1988:2220  if (remainingShares > 0) {... */\n    tag_190:\n        /* \"contracts/AquoNFT.sol\":2240:2258  uint256 newTokenId */\n      0x00\n        /* \"contracts/AquoNFT.sol\":2261:2272  nextTokenId */\n      0x0a\n      0x00\n        /* \"contracts/AquoNFT.sol\":2261:2274  nextTokenId++ */\n      dup2\n      sload\n      dup1\n      swap3\n      swap2\n      swap1\n      tag_195\n      swap1\n      tag_192\n      jump\t// in\n    tag_195:\n      swap2\n      swap1\n      pop\n      sstore\n        /* \"contracts/AquoNFT.sol\":2240:2274  uint256 newTokenId = nextTokenId++ */\n      swap1\n      pop\n        /* \"contracts/AquoNFT.sol\":2285:2314  _mint(_recipient, newTokenId) */\n      tag_196\n        /* \"contracts/AquoNFT.sol\":2291:2301  _recipient */\n      dup4\n        /* \"contracts/AquoNFT.sol\":2303:2313  newTokenId */\n      dup3\n        /* \"contracts/AquoNFT.sol\":2285:2290  _mint */\n      tag_194\n        /* \"contracts/AquoNFT.sol\":2285:2314  _mint(_recipient, newTokenId) */\n      jump\t// in\n    tag_196:\n        /* \"contracts/AquoNFT.sol\":2381:2388  _shares */\n      dup4\n        /* \"contracts/AquoNFT.sol\":2355:2366  tokenShares */\n      0x0b\n        /* \"contracts/AquoNFT.sol\":2355:2378  tokenShares[newTokenId] */\n      0x00\n        /* \"contracts/AquoNFT.sol\":2367:2377  newTokenId */\n      dup4\n        /* \"contracts/AquoNFT.sol\":2355:2378  tokenShares[newTokenId] */\n      dup2\n      mstore\n      0x20\n      add\n      swap1\n      dup2\n      mstore\n      0x20\n      add\n      0x00\n      keccak256\n        /* \"contracts/AquoNFT.sol\":2355:2388  tokenShares[newTokenId] = _shares */\n      dup2\n      swap1\n      sstore\n      pop\n        /* \"contracts/AquoNFT.sol\":2430:2437  _shares */\n      dup4\n        /* \"contracts/AquoNFT.sol\":2401:2414  sharesOfOwner */\n      0x0c\n        /* \"contracts/AquoNFT.sol\":2401:2426  sharesOfOwner[msg.sender] */\n      0x00\n        /* \"contracts/AquoNFT.sol\":2415:2425  msg.sender */\n      caller\n        /* \"contracts/AquoNFT.sol\":2401:2426  sharesOfOwner[msg.sender] */\n      0xffffffffffffffffffffffffffffffffffffffff\n      and\n      0xffffffffffffffffffffffffffffffffffffffff\n      and\n      dup2\n      mstore\n      0x20\n      add\n      swap1\n      dup2\n      mstore\n      0x20\n      add\n      0x00\n      keccak256\n      0x00\n        /* \"contracts/AquoNFT.sol\":2401:2437  sharesOfOwner[msg.sender] -= _shares */\n      dup3\n      dup3\n      sload\n      tag_197\n      swap2\n      swap1\n      tag_187\n      jump\t// in\n    tag_197:\n      swap3\n      pop\n      pop\n      dup2\n      swap1\n      sstore\n      pop\n        /* \"contracts/AquoNFT.sol\":2477:2484  _shares */\n      dup4\n        /* \"contracts/AquoNFT.sol\":2448:2461  sharesOfOwner */\n      0x0c\n        /* \"contracts/AquoNFT.sol\":2448:2473  sharesOfOwner[_recipient] */\n      0x00\n        /* \"contracts/AquoNFT.sol\":2462:2472  _recipient */\n      dup6\n        /* \"contracts/AquoNFT.sol\":2448:2473  sharesOfOwner[_recipient] */\n      0xffffffffffffffffffffffffffffffffffffffff\n      and\n      0xffffffffffffffffffffffffffffffffffffffff\n      and\n      dup2\n      mstore\n      0x20\n      add\n      swap1\n      dup2\n      mstore\n      0x20\n      add\n      0x00\n      keccak256\n      0x00\n        /* \"contracts/AquoNFT.sol\":2448:2484  sharesOfOwner[_recipient] += _shares */\n      dup3\n      dup3\n      sload\n      tag_198\n      swap2\n      swap1\n      tag_199\n      jump\t// in\n    tag_198:\n      swap3\n      pop\n      pop\n      dup2\n      swap1\n      sstore\n      pop\n        /* \"contracts/AquoNFT.sol\":1454:2494  {... */\n      pop\n      pop\n        /* \"contracts/AquoNFT.sol\":1366:2494  function transferShares(uint256 _tokenId, uint256 _shares, address _recipient) external {... */\n      pop\n      pop\n      pop\n      jump\t// out\n        /* \"@openzeppelin/contracts/access/Ownable.sol\":1201:1286  function owner() public view virtual returns (address) {... */\n    tag_94:\n        /* \"@openzeppelin/contracts/access/Ownable.sol\":1247:1254  address */\n      0x00\n        /* \"@openzeppelin/contracts/access/Ownable.sol\":1273:1279  _owner */\n      0x07\n      0x00\n      swap1\n      sload\n      swap1\n      0x0100\n      exp\n      swap1\n      div\n      0xffffffffffffffffffffffffffffffffffffffff\n      and\n        /* \"@openzeppelin/contracts/access/Ownable.sol\":1266:1279  return _owner */\n      swap1\n      pop\n        /* \"@openzeppelin/contracts/access/Ownable.sol\":1201:1286  function owner() public view virtual returns (address) {... */\n      swap1\n      jump\t// out\n        /* \"@openzeppelin/contracts/token/ERC721/ERC721.sol\":2518:2611  function symbol() public view virtual returns (string memory) {... */\n    tag_97:\n        /* \"@openzeppelin/contracts/token/ERC721/ERC721.sol\":2565:2578  string memory */\n      0x60\n        /* \"@openzeppelin/contracts/token/ERC721/ERC721.sol\":2597:2604  _symbol */\n      0x01\n        /* \"@openzeppelin/contracts/token/ERC721/ERC721.sol\":2590:2604  return _symbol */\n      dup1\n      sload\n      tag_202\n      swap1\n      tag_136\n      jump\t// in\n    tag_202:\n      dup1\n      0x1f\n      add\n      0x20\n      dup1\n      swap2\n      div\n      mul\n      0x20\n      add\n      mload(0x40)\n      swap1\n      dup2\n      add\n      0x40\n      mstore\n      dup1\n      swap3\n      swap2\n      swap1\n      dup2\n      dup2\n      mstore\n      0x20\n      add\n      dup3\n      dup1\n      sload\n      tag_203\n      swap1\n      tag_136\n      jump\t// in\n    tag_203:\n      dup1\n      iszero\n      tag_204\n      jumpi\n      dup1\n      0x1f\n      lt\n      tag_205\n      jumpi\n      0x0100\n      dup1\n      dup4\n      sload\n      div\n      mul\n      dup4\n      mstore\n      swap2\n      0x20\n      add\n      swap2\n      jump(tag_204)\n    tag_205:\n      dup3\n      add\n      swap2\n      swap1\n      0x00\n      mstore\n      keccak256(0x00, 0x20)\n      swap1\n    tag_206:\n      dup2\n      sload\n      dup2\n      mstore\n      swap1\n      0x01\n      add\n      swap1\n      0x20\n      add\n      dup1\n      dup4\n      gt\n      tag_206\n      jumpi\n      dup3\n      swap1\n      sub\n      0x1f\n      and\n      dup3\n      add\n      swap2\n    tag_204:\n      pop\n      pop\n      pop\n      pop\n      pop\n      swap1\n      pop\n        /* \"@openzeppelin/contracts/token/ERC721/ERC721.sol\":2518:2611  function symbol() public view virtual returns (string memory) {... */\n      swap1\n      jump\t// out\n        /* \"contracts/AquoNFT.sol\":344:374  uint256 public sharesAllocated */\n    tag_100:\n      sload(0x09)\n      dup2\n      jump\t// out\n        /* \"@openzeppelin/contracts/token/ERC721/ERC721.sol\":3718:3862  function setApprovalForAll(address operator, bool approved) public virtual {... */\n    tag_105:\n        /* \"@openzeppelin/contracts/token/ERC721/ERC721.sol\":3803:3855  _setApprovalForAll(_msgSender(), operator, approved) */\n      tag_208\n        /* \"@openzeppelin/contracts/token/ERC721/ERC721.sol\":3822:3834  _msgSender() */\n      tag_209\n        /* \"@openzeppelin/contracts/token/ERC721/ERC721.sol\":3822:3832  _msgSender */\n      tag_149\n        /* \"@openzeppelin/contracts/token/ERC721/ERC721.sol\":3822:3834  _msgSender() */\n      jump\t// in\n    tag_209:\n        /* \"@openzeppelin/contracts/token/ERC721/ERC721.sol\":3836:3844  operator */\n      dup4\n        /* \"@openzeppelin/contracts/token/ERC721/ERC721.sol\":3846:3854  approved */\n      dup4\n        /* \"@openzeppelin/contracts/token/ERC721/ERC721.sol\":3803:3821  _setApprovalForAll */\n      tag_210\n        /* \"@openzeppelin/contracts/token/ERC721/ERC721.sol\":3803:3855  _setApprovalForAll(_msgSender(), operator, approved) */\n      jump\t// in\n    tag_208:\n        /* \"@openzeppelin/contracts/token/ERC721/ERC721.sol\":3718:3862  function setApprovalForAll(address operator, bool approved) public virtual {... */\n      pop\n      pop\n      jump\t// out\n        /* \"@openzeppelin/contracts/token/ERC721/ERC721.sol\":4985:5193  function safeTransferFrom(address from, address to, uint256 tokenId, bytes memory data) public virtual {... */\n    tag_109:\n        /* \"@openzeppelin/contracts/token/ERC721/ERC721.sol\":5098:5129  transferFrom(from, to, tokenId) */\n      tag_212\n        /* \"@openzeppelin/contracts/token/ERC721/ERC721.sol\":5111:5115  from */\n      dup5\n        /* \"@openzeppelin/contracts/token/ERC721/ERC721.sol\":5117:5119  to */\n      dup5\n        /* \"@openzeppelin/contracts/token/ERC721/ERC721.sol\":5121:5128  tokenId */\n      dup5\n        /* \"@openzeppelin/contracts/token/ERC721/ERC721.sol\":5098:5110  transferFrom */\n      tag_55\n        /* \"@openzeppelin/contracts/token/ERC721/ERC721.sol\":5098:5129  transferFrom(from, to, tokenId) */\n      jump\t// in\n    tag_212:\n        /* \"@openzeppelin/contracts/token/ERC721/ERC721.sol\":5139:5186  _checkOnERC721Received(from, to, tokenId, data) */\n      tag_213\n        /* \"@openzeppelin/contracts/token/ERC721/ERC721.sol\":5162:5166  from */\n      dup5\n        /* \"@openzeppelin/contracts/token/ERC721/ERC721.sol\":5168:5170  to */\n      dup5\n        /* \"@openzeppelin/contracts/token/ERC721/ERC721.sol\":5172:5179  tokenId */\n      dup5\n        /* \"@openzeppelin/contracts/token/ERC721/ERC721.sol\":5181:5185  data */\n      dup5\n        /* \"@openzeppelin/contracts/token/ERC721/ERC721.sol\":5139:5161  _checkOnERC721Received */\n      tag_214\n        /* \"@openzeppelin/contracts/token/ERC721/ERC721.sol\":5139:5186  _checkOnERC721Received(from, to, tokenId, data) */\n      jump\t// in\n    tag_213:\n        /* \"@openzeppelin/contracts/token/ERC721/ERC721.sol\":4985:5193  function safeTransferFrom(address from, address to, uint256 tokenId, bytes memory data) public virtual {... */\n      pop\n      pop\n      pop\n      pop\n      jump\t// out\n        /* \"@openzeppelin/contracts/token/ERC721/extensions/ERC721URIStorage.sol\":1210:1803  function tokenURI(uint256 tokenId) public view virtual override returns (string memory) {... */\n    tag_112:\n        /* \"@openzeppelin/contracts/token/ERC721/extensions/ERC721URIStorage.sol\":1283:1296  string memory */\n      0x60\n        /* \"@openzeppelin/contracts/token/ERC721/extensions/ERC721URIStorage.sol\":1308:1330  _requireOwned(tokenId) */\n      tag_216\n        /* \"@openzeppelin/contracts/token/ERC721/extensions/ERC721URIStorage.sol\":1322:1329  tokenId */\n      dup3\n        /* \"@openzeppelin/contracts/token/ERC721/extensions/ERC721URIStorage.sol\":1308:1321  _requireOwned */\n      tag_143\n        /* \"@openzeppelin/contracts/token/ERC721/extensions/ERC721URIStorage.sol\":1308:1330  _requireOwned(tokenId) */\n      jump\t// in\n    tag_216:\n      pop\n        /* \"@openzeppelin/contracts/token/ERC721/extensions/ERC721URIStorage.sol\":1341:1364  string memory _tokenURI */\n      0x00\n        /* \"@openzeppelin/contracts/token/ERC721/extensions/ERC721URIStorage.sol\":1367:1377  _tokenURIs */\n      0x06\n        /* \"@openzeppelin/contracts/token/ERC721/extensions/ERC721URIStorage.sol\":1367:1386  _tokenURIs[tokenId] */\n      0x00\n        /* \"@openzeppelin/contracts/token/ERC721/extensions/ERC721URIStorage.sol\":1378:1385  tokenId */\n      dup5\n        /* \"@openzeppelin/contracts/token/ERC721/extensions/ERC721URIStorage.sol\":1367:1386  _tokenURIs[tokenId] */\n      dup2\n      mstore\n      0x20\n      add\n      swap1\n      dup2\n      mstore\n      0x20\n      add\n      0x00\n      keccak256\n        /* \"@openzeppelin/contracts/token/ERC721/extensions/ERC721URIStorage.sol\":1341:1386  string memory _tokenURI = _tokenURIs[tokenId] */\n      dup1\n      sload\n      tag_217\n      swap1\n      tag_136\n      jump\t// in\n    tag_217:\n      dup1\n      0x1f\n      add\n      0x20\n      dup1\n      swap2\n      div\n      mul\n      0x20\n      add\n      mload(0x40)\n      swap1\n      dup2\n      add\n      0x40\n      mstore\n      dup1\n      swap3\n      swap2\n      swap1\n      dup2\n      dup2\n      mstore\n      0x20\n      add\n      dup3\n      dup1\n      sload\n      tag_218\n      swap1\n      tag_136\n      jump\t// in\n    tag_218:\n      dup1\n      iszero\n      tag_219\n      jumpi\n      dup1\n      0x1f\n      lt\n      tag_220\n      jumpi\n      0x0100\n      dup1\n      dup4\n      sload\n      div\n      mul\n      dup4\n      mstore\n      swap2\n      0x20\n      add\n      swap2\n      jump(tag_219)\n    tag_220:\n      dup3\n      add\n      swap2\n      swap1\n      0x00\n      mstore\n      keccak256(0x00, 0x20)\n      swap1\n    tag_221:\n      dup2\n      sload\n      dup2\n      mstore\n      swap1\n      0x01\n      add\n      swap1\n      0x20\n      add\n      dup1\n      dup4\n      gt\n      tag_221\n      jumpi\n      dup3\n      swap1\n      sub\n      0x1f\n      and\n      dup3\n      add\n      swap2\n    tag_219:\n      pop\n      pop\n      pop\n      pop\n      pop\n      swap1\n      pop\n        /* \"@openzeppelin/contracts/token/ERC721/extensions/ERC721URIStorage.sol\":1396:1414  string memory base */\n      0x00\n        /* \"@openzeppelin/contracts/token/ERC721/extensions/ERC721URIStorage.sol\":1417:1427  _baseURI() */\n      tag_222\n        /* \"@openzeppelin/contracts/token/ERC721/extensions/ERC721URIStorage.sol\":1417:1425  _baseURI */\n      tag_223\n        /* \"@openzeppelin/contracts/token/ERC721/extensions/ERC721URIStorage.sol\":1417:1427  _baseURI() */\n      jump\t// in\n    tag_222:\n        /* \"@openzeppelin/contracts/token/ERC721/extensions/ERC721URIStorage.sol\":1396:1427  string memory base = _baseURI() */\n      swap1\n      pop\n        /* \"@openzeppelin/contracts/token/ERC721/extensions/ERC721URIStorage.sol\":1522:1523  0 */\n      0x00\n        /* \"@openzeppelin/contracts/token/ERC721/extensions/ERC721URIStorage.sol\":1506:1510  base */\n      dup2\n        /* \"@openzeppelin/contracts/token/ERC721/extensions/ERC721URIStorage.sol\":1500:1518  bytes(base).length */\n      mload\n        /* \"@openzeppelin/contracts/token/ERC721/extensions/ERC721URIStorage.sol\":1500:1523  bytes(base).length == 0 */\n      sub\n        /* \"@openzeppelin/contracts/token/ERC721/extensions/ERC721URIStorage.sol\":1496:1566  if (bytes(base).length == 0) {... */\n      tag_224\n      jumpi\n        /* \"@openzeppelin/contracts/token/ERC721/extensions/ERC721URIStorage.sol\":1546:1555  _tokenURI */\n      dup2\n        /* \"@openzeppelin/contracts/token/ERC721/extensions/ERC721URIStorage.sol\":1539:1555  return _tokenURI */\n      swap3\n      pop\n      pop\n      pop\n      jump(tag_215)\n        /* \"@openzeppelin/contracts/token/ERC721/extensions/ERC721URIStorage.sol\":1496:1566  if (bytes(base).length == 0) {... */\n    tag_224:\n        /* \"@openzeppelin/contracts/token/ERC721/extensions/ERC721URIStorage.sol\":1691:1692  0 */\n      0x00\n        /* \"@openzeppelin/contracts/token/ERC721/extensions/ERC721URIStorage.sol\":1671:1680  _tokenURI */\n      dup3\n        /* \"@openzeppelin/contracts/token/ERC721/extensions/ERC721URIStorage.sol\":1665:1688  bytes(_tokenURI).length */\n      mload\n        /* \"@openzeppelin/contracts/token/ERC721/extensions/ERC721URIStorage.sol\":1665:1692  bytes(_tokenURI).length > 0 */\n      gt\n        /* \"@openzeppelin/contracts/token/ERC721/extensions/ERC721URIStorage.sol\":1661:1756  if (bytes(_tokenURI).length > 0) {... */\n      iszero\n      tag_225\n      jumpi\n        /* \"@openzeppelin/contracts/token/ERC721/extensions/ERC721URIStorage.sol\":1729:1733  base */\n      dup1\n        /* \"@openzeppelin/contracts/token/ERC721/extensions/ERC721URIStorage.sol\":1735:1744  _tokenURI */\n      dup3\n        /* \"@openzeppelin/contracts/token/ERC721/extensions/ERC721URIStorage.sol\":1715:1745  string.concat(base, _tokenURI) */\n      add(0x20, mload(0x40))\n      tag_226\n      swap3\n      swap2\n      swap1\n      tag_227\n      jump\t// in\n    tag_226:\n      mload(0x40)\n      0x20\n      dup2\n      dup4\n      sub\n      sub\n      dup2\n      mstore\n      swap1\n      0x40\n      mstore\n        /* \"@openzeppelin/contracts/token/ERC721/extensions/ERC721URIStorage.sol\":1708:1745  return string.concat(base, _tokenURI) */\n      swap3\n      pop\n      pop\n      pop\n      jump(tag_215)\n        /* \"@openzeppelin/contracts/token/ERC721/extensions/ERC721URIStorage.sol\":1661:1756  if (bytes(_tokenURI).length > 0) {... */\n    tag_225:\n        /* \"@openzeppelin/contracts/token/ERC721/extensions/ERC721URIStorage.sol\":1773:1796  super.tokenURI(tokenId) */\n      tag_228\n        /* \"@openzeppelin/contracts/token/ERC721/extensions/ERC721URIStorage.sol\":1788:1795  tokenId */\n      dup5\n        /* \"@openzeppelin/contracts/token/ERC721/extensions/ERC721URIStorage.sol\":1773:1787  super.tokenURI */\n      tag_229\n        /* \"@openzeppelin/contracts/token/ERC721/extensions/ERC721URIStorage.sol\":1773:1796  super.tokenURI(tokenId) */\n      jump\t// in\n    tag_228:\n        /* \"@openzeppelin/contracts/token/ERC721/extensions/ERC721URIStorage.sol\":1766:1796  return super.tokenURI(tokenId) */\n      swap3\n      pop\n      pop\n      pop\n        /* \"@openzeppelin/contracts/token/ERC721/extensions/ERC721URIStorage.sol\":1210:1803  function tokenURI(uint256 tokenId) public view virtual override returns (string memory) {... */\n    tag_215:\n      swap2\n      swap1\n      pop\n      jump\t// out\n        /* \"contracts/AquoNFT.sol\":514:562  mapping(address => uint256) public sharesOfOwner */\n    tag_116:\n      mstore(0x20, 0x0c)\n      dup1\n      0x00\n      mstore\n      keccak256(0x00, 0x40)\n      0x00\n      swap2\n      pop\n      swap1\n      pop\n      sload\n      dup2\n      jump\t// out\n        /* \"contracts/AquoNFT.sol\":688:1102  function allocateShares(uint256 _shares, address _recipient) external onlyOwner {... */\n    tag_121:\n        /* \"@openzeppelin/contracts/access/Ownable.sol\":1094:1107  _checkOwner() */\n      tag_231\n        /* \"@openzeppelin/contracts/access/Ownable.sol\":1094:1105  _checkOwner */\n      tag_170\n        /* \"@openzeppelin/contracts/access/Ownable.sol\":1094:1107  _checkOwner() */\n      jump\t// in\n    tag_231:\n        /* \"contracts/AquoNFT.sol\":816:827  totalShares */\n      sload(0x08)\n        /* \"contracts/AquoNFT.sol\":805:812  _shares */\n      dup3\n        /* \"contracts/AquoNFT.sol\":787:802  sharesAllocated */\n      sload(0x09)\n        /* \"contracts/AquoNFT.sol\":787:812  sharesAllocated + _shares */\n      tag_233\n      swap2\n      swap1\n      tag_199\n      jump\t// in\n    tag_233:\n        /* \"contracts/AquoNFT.sol\":787:827  sharesAllocated + _shares <= totalShares */\n      gt\n      iszero\n        /* \"contracts/AquoNFT.sol\":779:859  require(sharesAllocated + _shares <= totalShares, \"Not enough shares available\") */\n      tag_234\n      jumpi\n      mload(0x40)\n      0x08c379a000000000000000000000000000000000000000000000000000000000\n      dup2\n      mstore\n      0x04\n      add\n      tag_235\n      swap1\n      tag_236\n      jump\t// in\n    tag_235:\n      mload(0x40)\n      dup1\n      swap2\n      sub\n      swap1\n      revert\n    tag_234:\n        /* \"contracts/AquoNFT.sol\":870:885  uint256 tokenId */\n      0x00\n        /* \"contracts/AquoNFT.sol\":888:899  nextTokenId */\n      0x0a\n      0x00\n        /* \"contracts/AquoNFT.sol\":888:901  nextTokenId++ */\n      dup2\n      sload\n      dup1\n      swap3\n      swap2\n      swap1\n      tag_237\n      swap1\n      tag_192\n      jump\t// in\n    tag_237:\n      swap2\n      swap1\n      pop\n      sstore\n        /* \"contracts/AquoNFT.sol\":870:901  uint256 tokenId = nextTokenId++ */\n      swap1\n      pop\n        /* \"contracts/AquoNFT.sol\":912:938  _mint(_recipient, tokenId) */\n      tag_238\n        /* \"contracts/AquoNFT.sol\":918:928  _recipient */\n      dup3\n        /* \"contracts/AquoNFT.sol\":930:937  tokenId */\n      dup3\n        /* \"contracts/AquoNFT.sol\":912:917  _mint */\n      tag_194\n        /* \"contracts/AquoNFT.sol\":912:938  _mint(_recipient, tokenId) */\n      jump\t// in\n    tag_238:\n        /* \"contracts/AquoNFT.sol\":1003:1010  _shares */\n      dup3\n        /* \"contracts/AquoNFT.sol\":980:991  tokenShares */\n      0x0b\n        /* \"contracts/AquoNFT.sol\":980:1000  tokenShares[tokenId] */\n      0x00\n        /* \"contracts/AquoNFT.sol\":992:999  tokenId */\n      dup4\n        /* \"contracts/AquoNFT.sol\":980:1000  tokenShares[tokenId] */\n      dup2\n      mstore\n      0x20\n      add\n      swap1\n      dup2\n      mstore\n      0x20\n      add\n      0x00\n      keccak256\n        /* \"contracts/AquoNFT.sol\":980:1010  tokenShares[tokenId] = _shares */\n      dup2\n      swap1\n      sstore\n      pop\n        /* \"contracts/AquoNFT.sol\":1040:1047  _shares */\n      dup3\n        /* \"contracts/AquoNFT.sol\":1021:1036  sharesAllocated */\n      0x09\n      0x00\n        /* \"contracts/AquoNFT.sol\":1021:1047  sharesAllocated += _shares */\n      dup3\n      dup3\n      sload\n      tag_239\n      swap2\n      swap1\n      tag_199\n      jump\t// in\n    tag_239:\n      swap3\n      pop\n      pop\n      dup2\n      swap1\n      sstore\n      pop\n        /* \"contracts/AquoNFT.sol\":1087:1094  _shares */\n      dup3\n        /* \"contracts/AquoNFT.sol\":1058:1071  sharesOfOwner */\n      0x0c\n        /* \"contracts/AquoNFT.sol\":1058:1083  sharesOfOwner[_recipient] */\n      0x00\n        /* \"contracts/AquoNFT.sol\":1072:1082  _recipient */\n      dup5\n        /* \"contracts/AquoNFT.sol\":1058:1083  sharesOfOwner[_recipient] */\n      0xffffffffffffffffffffffffffffffffffffffff\n      and\n      0xffffffffffffffffffffffffffffffffffffffff\n      and\n      dup2\n      mstore\n      0x20\n      add\n      swap1\n      dup2\n      mstore\n      0x20\n      add\n      0x00\n      keccak256\n      0x00\n        /* \"contracts/AquoNFT.sol\":1058:1094  sharesOfOwner[_recipient] += _shares */\n      dup3\n      dup3\n      sload\n      tag_240\n      swap2\n      swap1\n      tag_199\n      jump\t// in\n    tag_240:\n      swap3\n      pop\n      pop\n      dup2\n      swap1\n      sstore\n      pop\n        /* \"contracts/AquoNFT.sol\":768:1102  {... */\n      pop\n        /* \"contracts/AquoNFT.sol\":688:1102  function allocateShares(uint256 _shares, address _recipient) external onlyOwner {... */\n      pop\n      pop\n      jump\t// out\n        /* \"@openzeppelin/contracts/token/ERC721/ERC721.sol\":3928:4081  function isApprovedForAll(address owner, address operator) public view virtual returns (bool) {... */\n    tag_125:\n        /* \"@openzeppelin/contracts/token/ERC721/ERC721.sol\":4016:4020  bool */\n      0x00\n        /* \"@openzeppelin/contracts/token/ERC721/ERC721.sol\":4039:4057  _operatorApprovals */\n      0x05\n        /* \"@openzeppelin/contracts/token/ERC721/ERC721.sol\":4039:4064  _operatorApprovals[owner] */\n      0x00\n        /* \"@openzeppelin/contracts/token/ERC721/ERC721.sol\":4058:4063  owner */\n      dup5\n        /* \"@openzeppelin/contracts/token/ERC721/ERC721.sol\":4039:4064  _operatorApprovals[owner] */\n      0xffffffffffffffffffffffffffffffffffffffff\n      and\n      0xffffffffffffffffffffffffffffffffffffffff\n      and\n      dup2\n      mstore\n      0x20\n      add\n      swap1\n      dup2\n      mstore\n      0x20\n      add\n      0x00\n      keccak256\n        /* \"@openzeppelin/contracts/token/ERC721/ERC721.sol\":4039:4074  _operatorApprovals[owner][operator] */\n      0x00\n        /* \"@openzeppelin/contracts/token/ERC721/ERC721.sol\":4065:4073  operator */\n      dup4\n        /* \"@openzeppelin/contracts/token/ERC721/ERC721.sol\":4039:4074  _operatorApprovals[owner][operator] */\n      0xffffffffffffffffffffffffffffffffffffffff\n      and\n      0xffffffffffffffffffffffffffffffffffffffff\n      and\n      dup2\n      mstore\n      0x20\n      add\n      swap1\n      dup2\n      mstore\n      0x20\n      add\n      0x00\n      keccak256\n      0x00\n      swap1\n      sload\n      swap1\n      0x0100\n      exp\n      swap1\n      div\n      0xff\n      and\n        /* \"@openzeppelin/contracts/token/ERC721/ERC721.sol\":4032:4074  return _operatorApprovals[owner][operator] */\n      swap1\n      pop\n        /* \"@openzeppelin/contracts/token/ERC721/ERC721.sol\":3928:4081  function isApprovedForAll(address owner, address operator) public view virtual returns (bool) {... */\n      swap3\n      swap2\n      pop\n      pop\n      jump\t// out\n        /* \"@openzeppelin/contracts/access/Ownable.sol\":2081:2279  function transferOwnership(address newOwner) public virtual onlyOwner {... */\n    tag_129:\n        /* \"@openzeppelin/contracts/access/Ownable.sol\":1094:1107  _checkOwner() */\n      tag_243\n        /* \"@openzeppelin/contracts/access/Ownable.sol\":1094:1105  _checkOwner */\n      tag_170\n        /* \"@openzeppelin/contracts/access/Ownable.sol\":1094:1107  _checkOwner() */\n      jump\t// in\n    tag_243:\n        /* \"@openzeppelin/contracts/access/Ownable.sol\":2189:2190  0 */\n      0x00\n        /* \"@openzeppelin/contracts/access/Ownable.sol\":2169:2191  newOwner != address(0) */\n      0xffffffffffffffffffffffffffffffffffffffff\n      and\n        /* \"@openzeppelin/contracts/access/Ownable.sol\":2169:2177  newOwner */\n      dup2\n        /* \"@openzeppelin/contracts/access/Ownable.sol\":2169:2191  newOwner != address(0) */\n      0xffffffffffffffffffffffffffffffffffffffff\n      and\n      sub\n        /* \"@openzeppelin/contracts/access/Ownable.sol\":2161:2234  require(newOwner != address(0), \"Ownable: new owner is the zero address\") */\n      tag_245\n      jumpi\n      mload(0x40)\n      0x08c379a000000000000000000000000000000000000000000000000000000000\n      dup2\n      mstore\n      0x04\n      add\n      tag_246\n      swap1\n      tag_247\n      jump\t// in\n    tag_246:\n      mload(0x40)\n      dup1\n      swap2\n      sub\n      swap1\n      revert\n    tag_245:\n        /* \"@openzeppelin/contracts/access/Ownable.sol\":2244:2272  _transferOwnership(newOwner) */\n      tag_248\n        /* \"@openzeppelin/contracts/access/Ownable.sol\":2263:2271  newOwner */\n      dup2\n        /* \"@openzeppelin/contracts/access/Ownable.sol\":2244:2262  _transferOwnership */\n      tag_173\n        /* \"@openzeppelin/contracts/access/Ownable.sol\":2244:2272  _transferOwnership(newOwner) */\n      jump\t// in\n    tag_248:\n        /* \"@openzeppelin/contracts/access/Ownable.sol\":2081:2279  function transferOwnership(address newOwner) public virtual onlyOwner {... */\n      pop\n      jump\t// out\n        /* \"@openzeppelin/contracts/token/ERC721/ERC721.sol\":1561:1861  function supportsInterface(bytes4 interfaceId) public view virtual override(ERC165, IERC165) returns (bool) {... */\n    tag_133:\n        /* \"@openzeppelin/contracts/token/ERC721/ERC721.sol\":1663:1667  bool */\n      0x00\n        /* \"@openzeppelin/contracts/token/ERC721/ERC721.sol\":1713:1738  type(IERC721).interfaceId */\n      0x80ac58cd00000000000000000000000000000000000000000000000000000000\n        /* \"@openzeppelin/contracts/token/ERC721/ERC721.sol\":1698:1738  interfaceId == type(IERC721).interfaceId */\n      not(0xffffffffffffffffffffffffffffffffffffffffffffffffffffffff)\n      and\n        /* \"@openzeppelin/contracts/token/ERC721/ERC721.sol\":1698:1709  interfaceId */\n      dup3\n        /* \"@openzeppelin/contracts/token/ERC721/ERC721.sol\":1698:1738  interfaceId == type(IERC721).interfaceId */\n      not(0xffffffffffffffffffffffffffffffffffffffffffffffffffffffff)\n      and\n      eq\n        /* \"@openzeppelin/contracts/token/ERC721/ERC721.sol\":1698:1802  interfaceId == type(IERC721).interfaceId ||... */\n      dup1\n      tag_250\n      jumpi\n      pop\n        /* \"@openzeppelin/contracts/token/ERC721/ERC721.sol\":1769:1802  type(IERC721Metadata).interfaceId */\n      0x5b5e139f00000000000000000000000000000000000000000000000000000000\n        /* \"@openzeppelin/contracts/token/ERC721/ERC721.sol\":1754:1802  interfaceId == type(IERC721Metadata).interfaceId */\n      not(0xffffffffffffffffffffffffffffffffffffffffffffffffffffffff)\n      and\n        /* \"@openzeppelin/contracts/token/ERC721/ERC721.sol\":1754:1765  interfaceId */\n      dup3\n        /* \"@openzeppelin/contracts/token/ERC721/ERC721.sol\":1754:1802  interfaceId == type(IERC721Metadata).interfaceId */\n      not(0xffffffffffffffffffffffffffffffffffffffffffffffffffffffff)\n      and\n      eq\n        /* \"@openzeppelin/contracts/token/ERC721/ERC721.sol\":1698:1802  interfaceId == type(IERC721).interfaceId ||... */\n    tag_250:\n        /* \"@openzeppelin/contracts/token/ERC721/ERC721.sol\":1698:1854  interfaceId == type(IERC721).interfaceId ||... */\n      dup1\n      tag_251\n      jumpi\n      pop\n        /* \"@openzeppelin/contracts/token/ERC721/ERC721.sol\":1818:1854  super.supportsInterface(interfaceId) */\n      tag_252\n        /* \"@openzeppelin/contracts/token/ERC721/ERC721.sol\":1842:1853  interfaceId */\n      dup3\n        /* \"@openzeppelin/contracts/token/ERC721/ERC721.sol\":1818:1841  super.supportsInterface */\n      tag_253\n        /* \"@openzeppelin/contracts/token/ERC721/ERC721.sol\":1818:1854  super.supportsInterface(interfaceId) */\n      jump\t// in\n    tag_252:\n        /* \"@openzeppelin/contracts/token/ERC721/ERC721.sol\":1698:1854  interfaceId == type(IERC721).interfaceId ||... */\n    tag_251:\n        /* \"@openzeppelin/contracts/token/ERC721/ERC721.sol\":1679:1854  return... */\n      swap1\n      pop\n        /* \"@openzeppelin/contracts/token/ERC721/ERC721.sol\":1561:1861  function supportsInterface(bytes4 interfaceId) public view virtual override(ERC165, IERC165) returns (bool) {... */\n      swap2\n      swap1\n      pop\n      jump\t// out\n        /* \"@openzeppelin/contracts/token/ERC721/ERC721.sol\":16138:16379  function _requireOwned(uint256 tokenId) internal view returns (address) {... */\n    tag_143:\n        /* \"@openzeppelin/contracts/token/ERC721/ERC721.sol\":16201:16208  address */\n      0x00\n        /* \"@openzeppelin/contracts/token/ERC721/ERC721.sol\":16220:16233  address owner */\n      dup1\n        /* \"@openzeppelin/contracts/token/ERC721/ERC721.sol\":16236:16253  _ownerOf(tokenId) */\n      tag_255\n        /* \"@openzeppelin/contracts/token/ERC721/ERC721.sol\":16245:16252  tokenId */\n      dup4\n        /* \"@openzeppelin/contracts/token/ERC721/ERC721.sol\":16236:16244  _ownerOf */\n      tag_256\n        /* \"@openzeppelin/contracts/token/ERC721/ERC721.sol\":16236:16253  _ownerOf(tokenId) */\n      jump\t// in\n    tag_255:\n        /* \"@openzeppelin/contracts/token/ERC721/ERC721.sol\":16220:16253  address owner = _ownerOf(tokenId) */\n      swap1\n      pop\n        /* \"@openzeppelin/contracts/token/ERC721/ERC721.sol\":16284:16285  0 */\n      0x00\n        /* \"@openzeppelin/contracts/token/ERC721/ERC721.sol\":16267:16286  owner == address(0) */\n      0xffffffffffffffffffffffffffffffffffffffff\n      and\n        /* \"@openzeppelin/contracts/token/ERC721/ERC721.sol\":16267:16272  owner */\n      dup2\n        /* \"@openzeppelin/contracts/token/ERC721/ERC721.sol\":16267:16286  owner == address(0) */\n      0xffffffffffffffffffffffffffffffffffffffff\n      and\n      sub\n        /* \"@openzeppelin/contracts/token/ERC721/ERC721.sol\":16263:16351  if (owner == address(0)) {... */\n      tag_257\n      jumpi\n        /* \"@openzeppelin/contracts/token/ERC721/ERC721.sol\":16332:16339  tokenId */\n      dup3\n        /* \"@openzeppelin/contracts/token/ERC721/ERC721.sol\":16309:16340  ERC721NonexistentToken(tokenId) */\n      mload(0x40)\n      0x7e27328900000000000000000000000000000000000000000000000000000000\n      dup2\n      mstore\n      0x04\n      add\n      tag_258\n      swap2\n      swap1\n      tag_59\n      jump\t// in\n    tag_258:\n      mload(0x40)\n      dup1\n      swap2\n      sub\n      swap1\n      revert\n        /* \"@openzeppelin/contracts/token/ERC721/ERC721.sol\":16263:16351  if (owner == address(0)) {... */\n    tag_257:\n        /* \"@openzeppelin/contracts/token/ERC721/ERC721.sol\":16367:16372  owner */\n      dup1\n        /* \"@openzeppelin/contracts/token/ERC721/ERC721.sol\":16360:16372  return owner */\n      swap2\n      pop\n      pop\n        /* \"@openzeppelin/contracts/token/ERC721/ERC721.sol\":16138:16379  function _requireOwned(uint256 tokenId) internal view returns (address) {... */\n      swap2\n      swap1\n      pop\n      jump\t// out\n        /* \"@openzeppelin/contracts/token/ERC721/ERC721.sol\":5938:6065  function _getApproved(uint256 tokenId) internal view virtual returns (address) {... */\n    tag_145:\n        /* \"@openzeppelin/contracts/token/ERC721/ERC721.sol\":6008:6015  address */\n      0x00\n        /* \"@openzeppelin/contracts/token/ERC721/ERC721.sol\":6034:6049  _tokenApprovals */\n      0x04\n        /* \"@openzeppelin/contracts/token/ERC721/ERC721.sol\":6034:6058  _tokenApprovals[tokenId] */\n      0x00\n        /* \"@openzeppelin/contracts/token/ERC721/ERC721.sol\":6050:6057  tokenId */\n      dup4\n        /* \"@openzeppelin/contracts/token/ERC721/ERC721.sol\":6034:6058  _tokenApprovals[tokenId] */\n      dup2\n      mstore\n      0x20\n      add\n      swap1\n      dup2\n      mstore\n      0x20\n      add\n      0x00\n      keccak256\n      0x00\n      swap1\n      sload\n      swap1\n      0x0100\n      exp\n      swap1\n      div\n      0xffffffffffffffffffffffffffffffffffffffff\n      and\n        /* \"@openzeppelin/contracts/token/ERC721/ERC721.sol\":6027:6058  return _tokenApprovals[tokenId] */\n      swap1\n      pop\n        /* \"@openzeppelin/contracts/token/ERC721/ERC721.sol\":5938:6065  function _getApproved(uint256 tokenId) internal view virtual returns (address) {... */\n      swap2\n      swap1\n      pop\n      jump\t// out\n        /* \"@openzeppelin/contracts/utils/Context.sol\":640:736  function _msgSender() internal view virtual returns (address) {... */\n    tag_149:\n        /* \"@openzeppelin/contracts/utils/Context.sol\":693:700  address */\n      0x00\n        /* \"@openzeppelin/contracts/utils/Context.sol\":719:729  msg.sender */\n      caller\n        /* \"@openzeppelin/contracts/utils/Context.sol\":712:729  return msg.sender */\n      swap1\n      pop\n        /* \"@openzeppelin/contracts/utils/Context.sol\":640:736  function _msgSender() internal view virtual returns (address) {... */\n      swap1\n      jump\t// out\n        /* \"@openzeppelin/contracts/token/ERC721/ERC721.sol\":14418:14538  function _approve(address to, uint256 tokenId, address auth) internal {... */\n    tag_150:\n        /* \"@openzeppelin/contracts/token/ERC721/ERC721.sol\":14498:14531  _approve(to, tokenId, auth, true) */\n      tag_262\n        /* \"@openzeppelin/contracts/token/ERC721/ERC721.sol\":14507:14509  to */\n      dup4\n        /* \"@openzeppelin/contracts/token/ERC721/ERC721.sol\":14511:14518  tokenId */\n      dup4\n        /* \"@openzeppelin/contracts/token/ERC721/ERC721.sol\":14520:14524  auth */\n      dup4\n        /* \"@openzeppelin/contracts/token/ERC721/ERC721.sol\":14526:14530  true */\n      0x01\n        /* \"@openzeppelin/contracts/token/ERC721/ERC721.sol\":14498:14506  _approve */\n      tag_263\n        /* \"@openzeppelin/contracts/token/ERC721/ERC721.sol\":14498:14531  _approve(to, tokenId, auth, true) */\n      jump\t// in\n    tag_262:\n        /* \"@openzeppelin/contracts/token/ERC721/ERC721.sol\":14418:14538  function _approve(address to, uint256 tokenId, address auth) internal {... */\n      pop\n      pop\n      pop\n      jump\t// out\n        /* \"@openzeppelin/contracts/token/ERC721/ERC721.sol\":8838:9633  function _update(address to, uint256 tokenId, address auth) internal virtual returns (address) {... */\n    tag_156:\n        /* \"@openzeppelin/contracts/token/ERC721/ERC721.sol\":8924:8931  address */\n      0x00\n        /* \"@openzeppelin/contracts/token/ERC721/ERC721.sol\":8943:8955  address from */\n      dup1\n        /* \"@openzeppelin/contracts/token/ERC721/ERC721.sol\":8958:8975  _ownerOf(tokenId) */\n      tag_265\n        /* \"@openzeppelin/contracts/token/ERC721/ERC721.sol\":8967:8974  tokenId */\n      dup5\n        /* \"@openzeppelin/contracts/token/ERC721/ERC721.sol\":8958:8966  _ownerOf */\n      tag_256\n        /* \"@openzeppelin/contracts/token/ERC721/ERC721.sol\":8958:8975  _ownerOf(tokenId) */\n      jump\t// in\n    tag_265:\n        /* \"@openzeppelin/contracts/token/ERC721/ERC721.sol\":8943:8975  address from = _ownerOf(tokenId) */\n      swap1\n      pop\n        /* \"@openzeppelin/contracts/token/ERC721/ERC721.sol\":9051:9052  0 */\n      0x00\n        /* \"@openzeppelin/contracts/token/ERC721/ERC721.sol\":9035:9053  auth != address(0) */\n      0xffffffffffffffffffffffffffffffffffffffff\n      and\n        /* \"@openzeppelin/contracts/token/ERC721/ERC721.sol\":9035:9039  auth */\n      dup4\n        /* \"@openzeppelin/contracts/token/ERC721/ERC721.sol\":9035:9053  auth != address(0) */\n      0xffffffffffffffffffffffffffffffffffffffff\n      and\n      eq\n        /* \"@openzeppelin/contracts/token/ERC721/ERC721.sol\":9031:9117  if (auth != address(0)) {... */\n      tag_266\n      jumpi\n        /* \"@openzeppelin/contracts/token/ERC721/ERC721.sol\":9069:9106  _checkAuthorized(from, auth, tokenId) */\n      tag_267\n        /* \"@openzeppelin/contracts/token/ERC721/ERC721.sol\":9086:9090  from */\n      dup2\n        /* \"@openzeppelin/contracts/token/ERC721/ERC721.sol\":9092:9096  auth */\n      dup5\n        /* \"@openzeppelin/contracts/token/ERC721/ERC721.sol\":9098:9105  tokenId */\n      dup7\n        /* \"@openzeppelin/contracts/token/ERC721/ERC721.sol\":9069:9085  _checkAuthorized */\n      tag_268\n        /* \"@openzeppelin/contracts/token/ERC721/ERC721.sol\":9069:9106  _checkAuthorized(from, auth, tokenId) */\n      jump\t// in\n    tag_267:\n        /* \"@openzeppelin/contracts/token/ERC721/ERC721.sol\":9031:9117  if (auth != address(0)) {... */\n    tag_266:\n        /* \"@openzeppelin/contracts/token/ERC721/ERC721.sol\":9177:9178  0 */\n      0x00\n        /* \"@openzeppelin/contracts/token/ERC721/ERC721.sol\":9161:9179  from != address(0) */\n      0xffffffffffffffffffffffffffffffffffffffff\n      and\n        /* \"@openzeppelin/contracts/token/ERC721/ERC721.sol\":9161:9165  from */\n      dup2\n        /* \"@openzeppelin/contracts/token/ERC721/ERC721.sol\":9161:9179  from != address(0) */\n      0xffffffffffffffffffffffffffffffffffffffff\n      and\n      eq\n        /* \"@openzeppelin/contracts/token/ERC721/ERC721.sol\":9157:9413  if (from != address(0)) {... */\n      tag_269\n      jumpi\n        /* \"@openzeppelin/contracts/token/ERC721/ERC721.sol\":9277:9325  _approve(address(0), tokenId, address(0), false) */\n      tag_270\n        /* \"@openzeppelin/contracts/token/ERC721/ERC721.sol\":9294:9295  0 */\n      0x00\n        /* \"@openzeppelin/contracts/token/ERC721/ERC721.sol\":9298:9305  tokenId */\n      dup6\n        /* \"@openzeppelin/contracts/token/ERC721/ERC721.sol\":9315:9316  0 */\n      0x00\n        /* \"@openzeppelin/contracts/token/ERC721/ERC721.sol\":9319:9324  false */\n      dup1\n        /* \"@openzeppelin/contracts/token/ERC721/ERC721.sol\":9277:9285  _approve */\n      tag_263\n        /* \"@openzeppelin/contracts/token/ERC721/ERC721.sol\":9277:9325  _approve(address(0), tokenId, address(0), false) */\n      jump\t// in\n    tag_270:\n        /* \"@openzeppelin/contracts/token/ERC721/ERC721.sol\":9387:9388  1 */\n      0x01\n        /* \"@openzeppelin/contracts/token/ERC721/ERC721.sol\":9368:9377  _balances */\n      0x03\n        /* \"@openzeppelin/contracts/token/ERC721/ERC721.sol\":9368:9383  _balances[from] */\n      0x00\n        /* \"@openzeppelin/contracts/token/ERC721/ERC721.sol\":9378:9382  from */\n      dup4\n        /* \"@openzeppelin/contracts/token/ERC721/ERC721.sol\":9368:9383  _balances[from] */\n      0xffffffffffffffffffffffffffffffffffffffff\n      and\n      0xffffffffffffffffffffffffffffffffffffffff\n      and\n      dup2\n      mstore\n      0x20\n      add\n      swap1\n      dup2\n      mstore\n      0x20\n      add\n      0x00\n      keccak256\n      0x00\n        /* \"@openzeppelin/contracts/token/ERC721/ERC721.sol\":9368:9388  _balances[from] -= 1 */\n      dup3\n      dup3\n      sload\n      sub\n      swap3\n      pop\n      pop\n      dup2\n      swap1\n      sstore\n      pop\n        /* \"@openzeppelin/contracts/token/ERC721/ERC721.sol\":9157:9413  if (from != address(0)) {... */\n    tag_269:\n        /* \"@openzeppelin/contracts/token/ERC721/ERC721.sol\":9441:9442  0 */\n      0x00\n        /* \"@openzeppelin/contracts/token/ERC721/ERC721.sol\":9427:9443  to != address(0) */\n      0xffffffffffffffffffffffffffffffffffffffff\n      and\n        /* \"@openzeppelin/contracts/token/ERC721/ERC721.sol\":9427:9429  to */\n      dup6\n        /* \"@openzeppelin/contracts/token/ERC721/ERC721.sol\":9427:9443  to != address(0) */\n      0xffffffffffffffffffffffffffffffffffffffff\n      and\n      eq\n        /* \"@openzeppelin/contracts/token/ERC721/ERC721.sol\":9423:9530  if (to != address(0)) {... */\n      tag_271\n      jumpi\n        /* \"@openzeppelin/contracts/token/ERC721/ERC721.sol\":9504:9505  1 */\n      0x01\n        /* \"@openzeppelin/contracts/token/ERC721/ERC721.sol\":9487:9496  _balances */\n      0x03\n        /* \"@openzeppelin/contracts/token/ERC721/ERC721.sol\":9487:9500  _balances[to] */\n      0x00\n        /* \"@openzeppelin/contracts/token/ERC721/ERC721.sol\":9497:9499  to */\n      dup8\n        /* \"@openzeppelin/contracts/token/ERC721/ERC721.sol\":9487:9500  _balances[to] */\n      0xffffffffffffffffffffffffffffffffffffffff\n      and\n      0xffffffffffffffffffffffffffffffffffffffff\n      and\n      dup2\n      mstore\n      0x20\n      add\n      swap1\n      dup2\n      mstore\n      0x20\n      add\n      0x00\n      keccak256\n      0x00\n        /* \"@openzeppelin/contracts/token/ERC721/ERC721.sol\":9487:9505  _balances[to] += 1 */\n      dup3\n      dup3\n      sload\n      add\n      swap3\n      pop\n      pop\n      dup2\n      swap1\n      sstore\n      pop\n        /* \"@openzeppelin/contracts/token/ERC721/ERC721.sol\":9423:9530  if (to != address(0)) {... */\n    tag_271:\n        /* \"@openzeppelin/contracts/token/ERC721/ERC721.sol\":9559:9561  to */\n      dup5\n        /* \"@openzeppelin/contracts/token/ERC721/ERC721.sol\":9540:9547  _owners */\n      0x02\n        /* \"@openzeppelin/contracts/token/ERC721/ERC721.sol\":9540:9556  _owners[tokenId] */\n      0x00\n        /* \"@openzeppelin/contracts/token/ERC721/ERC721.sol\":9548:9555  tokenId */\n      dup7\n        /* \"@openzeppelin/contracts/token/ERC721/ERC721.sol\":9540:9556  _owners[tokenId] */\n      dup2\n      mstore\n      0x20\n      add\n      swap1\n      dup2\n      mstore\n      0x20\n      add\n      0x00\n      keccak256\n      0x00\n        /* \"@openzeppelin/contracts/token/ERC721/ERC721.sol\":9540:9561  _owners[tokenId] = to */\n      0x0100\n      exp\n      dup2\n      sload\n      dup2\n      0xffffffffffffffffffffffffffffffffffffffff\n      mul\n      not\n      and\n      swap1\n      dup4\n      0xffffffffffffffffffffffffffffffffffffffff\n      and\n      mul\n      or\n      swap1\n      sstore\n      pop\n        /* \"@openzeppelin/contracts/token/ERC721/ERC721.sol\":9596:9603  tokenId */\n      dup4\n        /* \"@openzeppelin/contracts/token/ERC721/ERC721.sol\":9592:9594  to */\n      dup6\n        /* \"@openzeppelin/contracts/token/ERC721/ERC721.sol\":9577:9604  Transfer(from, to, tokenId) */\n      0xffffffffffffffffffffffffffffffffffffffff\n      and\n        /* \"@openzeppelin/contracts/token/ERC721/ERC721.sol\":9586:9590  from */\n      dup3\n        /* \"@openzeppelin/contracts/token/ERC721/ERC721.sol\":9577:9604  Transfer(from, to, tokenId) */\n      0xffffffffffffffffffffffffffffffffffffffff\n      and\n      0xddf252ad1be2c89b69c2b068fc378daa952ba7f163c4a11628f55a4df523b3ef\n      mload(0x40)\n      mload(0x40)\n      dup1\n      swap2\n      sub\n      swap1\n      log4\n        /* \"@openzeppelin/contracts/token/ERC721/ERC721.sol\":9622:9626  from */\n      dup1\n        /* \"@openzeppelin/contracts/token/ERC721/ERC721.sol\":9615:9626  return from */\n      swap2\n      pop\n      pop\n        /* \"@openzeppelin/contracts/token/ERC721/ERC721.sol\":8838:9633  function _update(address to, uint256 tokenId, address auth) internal virtual returns (address) {... */\n      swap4\n      swap3\n      pop\n      pop\n      pop\n      jump\t// out\n        /* \"@openzeppelin/contracts/access/Ownable.sol\":1359:1489  function _checkOwner() internal view virtual {... */\n    tag_170:\n        /* \"@openzeppelin/contracts/access/Ownable.sol\":1433:1445  _msgSender() */\n      tag_273\n        /* \"@openzeppelin/contracts/access/Ownable.sol\":1433:1443  _msgSender */\n      tag_149\n        /* \"@openzeppelin/contracts/access/Ownable.sol\":1433:1445  _msgSender() */\n      jump\t// in\n    tag_273:\n        /* \"@openzeppelin/contracts/access/Ownable.sol\":1422:1445  owner() == _msgSender() */\n      0xffffffffffffffffffffffffffffffffffffffff\n      and\n        /* \"@openzeppelin/contracts/access/Ownable.sol\":1422:1429  owner() */\n      tag_274\n        /* \"@openzeppelin/contracts/access/Ownable.sol\":1422:1427  owner */\n      tag_94\n        /* \"@openzeppelin/contracts/access/Ownable.sol\":1422:1429  owner() */\n      jump\t// in\n    tag_274:\n        /* \"@openzeppelin/contracts/access/Ownable.sol\":1422:1445  owner() == _msgSender() */\n      0xffffffffffffffffffffffffffffffffffffffff\n      and\n      eq\n        /* \"@openzeppelin/contracts/access/Ownable.sol\":1414:1482  require(owner() == _msgSender(), \"Ownable: caller is not the owner\") */\n      tag_275\n      jumpi\n      mload(0x40)\n      0x08c379a000000000000000000000000000000000000000000000000000000000\n      dup2\n      mstore\n      0x04\n      add\n      tag_276\n      swap1\n      tag_277\n      jump\t// in\n    tag_276:\n      mload(0x40)\n      dup1\n      swap2\n      sub\n      swap1\n      revert\n    tag_275:\n        /* \"@openzeppelin/contracts/access/Ownable.sol\":1359:1489  function _checkOwner() internal view virtual {... */\n      jump\t// out\n        /* \"@openzeppelin/contracts/access/Ownable.sol\":2433:2620  function _transferOwnership(address newOwner) internal virtual {... */\n    tag_173:\n        /* \"@openzeppelin/contracts/access/Ownable.sol\":2506:2522  address oldOwner */\n      0x00\n        /* \"@openzeppelin/contracts/access/Ownable.sol\":2525:2531  _owner */\n      0x07\n      0x00\n      swap1\n      sload\n      swap1\n      0x0100\n      exp\n      swap1\n      div\n      0xffffffffffffffffffffffffffffffffffffffff\n      and\n        /* \"@openzeppelin/contracts/access/Ownable.sol\":2506:2531  address oldOwner = _owner */\n      swap1\n      pop\n        /* \"@openzeppelin/contracts/access/Ownable.sol\":2550:2558  newOwner */\n      dup2\n        /* \"@openzeppelin/contracts/access/Ownable.sol\":2541:2547  _owner */\n      0x07\n      0x00\n        /* \"@openzeppelin/contracts/access/Ownable.sol\":2541:2558  _owner = newOwner */\n      0x0100\n      exp\n      dup2\n      sload\n      dup2\n      0xffffffffffffffffffffffffffffffffffffffff\n      mul\n      not\n      and\n      swap1\n      dup4\n      0xffffffffffffffffffffffffffffffffffffffff\n      and\n      mul\n      or\n      swap1\n      sstore\n      pop\n        /* \"@openzeppelin/contracts/access/Ownable.sol\":2604:2612  newOwner */\n      dup2\n        /* \"@openzeppelin/contracts/access/Ownable.sol\":2573:2613  OwnershipTransferred(oldOwner, newOwner) */\n      0xffffffffffffffffffffffffffffffffffffffff\n      and\n        /* \"@openzeppelin/contracts/access/Ownable.sol\":2594:2602  oldOwner */\n      dup2\n        /* \"@openzeppelin/contracts/access/Ownable.sol\":2573:2613  OwnershipTransferred(oldOwner, newOwner) */\n      0xffffffffffffffffffffffffffffffffffffffff\n      and\n      0x8be0079c531659141344cd1fd0a4f28419497f9722a3daafe3b4186f6b6457e0\n      mload(0x40)\n      mload(0x40)\n      dup1\n      swap2\n      sub\n      swap1\n      log3\n        /* \"@openzeppelin/contracts/access/Ownable.sol\":2496:2620  {... */\n      pop\n        /* \"@openzeppelin/contracts/access/Ownable.sol\":2433:2620  function _transferOwnership(address newOwner) internal virtual {... */\n      pop\n      jump\t// out\n        /* \"@openzeppelin/contracts/token/ERC721/ERC721.sol\":11462:11689  function _burn(uint256 tokenId) internal {... */\n    tag_189:\n        /* \"@openzeppelin/contracts/token/ERC721/ERC721.sol\":11513:11534  address previousOwner */\n      0x00\n        /* \"@openzeppelin/contracts/token/ERC721/ERC721.sol\":11537:11577  _update(address(0), tokenId, address(0)) */\n      tag_280\n        /* \"@openzeppelin/contracts/token/ERC721/ERC721.sol\":11553:11554  0 */\n      0x00\n        /* \"@openzeppelin/contracts/token/ERC721/ERC721.sol\":11557:11564  tokenId */\n      dup4\n        /* \"@openzeppelin/contracts/token/ERC721/ERC721.sol\":11574:11575  0 */\n      0x00\n        /* \"@openzeppelin/contracts/token/ERC721/ERC721.sol\":11537:11544  _update */\n      tag_156\n        /* \"@openzeppelin/contracts/token/ERC721/ERC721.sol\":11537:11577  _update(address(0), tokenId, address(0)) */\n      jump\t// in\n    tag_280:\n        /* \"@openzeppelin/contracts/token/ERC721/ERC721.sol\":11513:11577  address previousOwner = _update(address(0), tokenId, address(0)) */\n      swap1\n      pop\n        /* \"@openzeppelin/contracts/token/ERC721/ERC721.sol\":11616:11617  0 */\n      0x00\n        /* \"@openzeppelin/contracts/token/ERC721/ERC721.sol\":11591:11618  previousOwner == address(0) */\n      0xffffffffffffffffffffffffffffffffffffffff\n      and\n        /* \"@openzeppelin/contracts/token/ERC721/ERC721.sol\":11591:11604  previousOwner */\n      dup2\n        /* \"@openzeppelin/contracts/token/ERC721/ERC721.sol\":11591:11618  previousOwner == address(0) */\n      0xffffffffffffffffffffffffffffffffffffffff\n      and\n      sub\n        /* \"@openzeppelin/contracts/token/ERC721/ERC721.sol\":11587:11683  if (previousOwner == address(0)) {... */\n      tag_281\n      jumpi\n        /* \"@openzeppelin/contracts/token/ERC721/ERC721.sol\":11664:11671  tokenId */\n      dup2\n        /* \"@openzeppelin/contracts/token/ERC721/ERC721.sol\":11641:11672  ERC721NonexistentToken(tokenId) */\n      mload(0x40)\n      0x7e27328900000000000000000000000000000000000000000000000000000000\n      dup2\n      mstore\n      0x04\n      add\n      tag_282\n      swap2\n      swap1\n      tag_59\n      jump\t// in\n    tag_282:\n      mload(0x40)\n      dup1\n      swap2\n      sub\n      swap1\n      revert\n        /* \"@openzeppelin/contracts/token/ERC721/ERC721.sol\":11587:11683  if (previousOwner == address(0)) {... */\n    tag_281:\n        /* \"@openzeppelin/contracts/token/ERC721/ERC721.sol\":11503:11689  {... */\n      pop\n        /* \"@openzeppelin/contracts/token/ERC721/ERC721.sol\":11462:11689  function _burn(uint256 tokenId) internal {... */\n      pop\n      jump\t// out\n        /* \"@openzeppelin/contracts/token/ERC721/ERC721.sol\":9955:10282  function _mint(address to, uint256 tokenId) internal {... */\n    tag_194:\n        /* \"@openzeppelin/contracts/token/ERC721/ERC721.sol\":10036:10037  0 */\n      0x00\n        /* \"@openzeppelin/contracts/token/ERC721/ERC721.sol\":10022:10038  to == address(0) */\n      0xffffffffffffffffffffffffffffffffffffffff\n      and\n        /* \"@openzeppelin/contracts/token/ERC721/ERC721.sol\":10022:10024  to */\n      dup3\n        /* \"@openzeppelin/contracts/token/ERC721/ERC721.sol\":10022:10038  to == address(0) */\n      0xffffffffffffffffffffffffffffffffffffffff\n      and\n      sub\n        /* \"@openzeppelin/contracts/token/ERC721/ERC721.sol\":10018:10105  if (to == address(0)) {... */\n      tag_284\n      jumpi\n        /* \"@openzeppelin/contracts/token/ERC721/ERC721.sol\":10091:10092  0 */\n      0x00\n        /* \"@openzeppelin/contracts/token/ERC721/ERC721.sol\":10061:10094  ERC721InvalidReceiver(address(0)) */\n      mload(0x40)\n      0x64a0ae9200000000000000000000000000000000000000000000000000000000\n      dup2\n      mstore\n      0x04\n      add\n      tag_285\n      swap2\n      swap1\n      tag_47\n      jump\t// in\n    tag_285:\n      mload(0x40)\n      dup1\n      swap2\n      sub\n      swap1\n      revert\n        /* \"@openzeppelin/contracts/token/ERC721/ERC721.sol\":10018:10105  if (to == address(0)) {... */\n    tag_284:\n        /* \"@openzeppelin/contracts/token/ERC721/ERC721.sol\":10114:10135  address previousOwner */\n      0x00\n        /* \"@openzeppelin/contracts/token/ERC721/ERC721.sol\":10138:10170  _update(to, tokenId, address(0)) */\n      tag_286\n        /* \"@openzeppelin/contracts/token/ERC721/ERC721.sol\":10146:10148  to */\n      dup4\n        /* \"@openzeppelin/contracts/token/ERC721/ERC721.sol\":10150:10157  tokenId */\n      dup4\n        /* \"@openzeppelin/contracts/token/ERC721/ERC721.sol\":10167:10168  0 */\n      0x00\n        /* \"@openzeppelin/contracts/token/ERC721/ERC721.sol\":10138:10145  _update */\n      tag_156\n        /* \"@openzeppelin/contracts/token/ERC721/ERC721.sol\":10138:10170  _update(to, tokenId, address(0)) */\n      jump\t// in\n    tag_286:\n        /* \"@openzeppelin/contracts/token/ERC721/ERC721.sol\":10114:10170  address previousOwner = _update(to, tokenId, address(0)) */\n      swap1\n      pop\n        /* \"@openzeppelin/contracts/token/ERC721/ERC721.sol\":10209:10210  0 */\n      0x00\n        /* \"@openzeppelin/contracts/token/ERC721/ERC721.sol\":10184:10211  previousOwner != address(0) */\n      0xffffffffffffffffffffffffffffffffffffffff\n      and\n        /* \"@openzeppelin/contracts/token/ERC721/ERC721.sol\":10184:10197  previousOwner */\n      dup2\n        /* \"@openzeppelin/contracts/token/ERC721/ERC721.sol\":10184:10211  previousOwner != address(0) */\n      0xffffffffffffffffffffffffffffffffffffffff\n      and\n      eq\n        /* \"@openzeppelin/contracts/token/ERC721/ERC721.sol\":10180:10276  if (previousOwner != address(0)) {... */\n      tag_287\n      jumpi\n        /* \"@openzeppelin/contracts/token/ERC721/ERC721.sol\":10262:10263  0 */\n      0x00\n        /* \"@openzeppelin/contracts/token/ERC721/ERC721.sol\":10234:10265  ERC721InvalidSender(address(0)) */\n      mload(0x40)\n      0x73c6ac6e00000000000000000000000000000000000000000000000000000000\n      dup2\n      mstore\n      0x04\n      add\n      tag_288\n      swap2\n      swap1\n      tag_47\n      jump\t// in\n    tag_288:\n      mload(0x40)\n      dup1\n      swap2\n      sub\n      swap1\n      revert\n        /* \"@openzeppelin/contracts/token/ERC721/ERC721.sol\":10180:10276  if (previousOwner != address(0)) {... */\n    tag_287:\n        /* \"@openzeppelin/contracts/token/ERC721/ERC721.sol\":10008:10282  {... */\n      pop\n        /* \"@openzeppelin/contracts/token/ERC721/ERC721.sol\":9955:10282  function _mint(address to, uint256 tokenId) internal {... */\n      pop\n      pop\n      jump\t// out\n        /* \"@openzeppelin/contracts/token/ERC721/ERC721.sol\":15591:15903  function _setApprovalForAll(address owner, address operator, bool approved) internal virtual {... */\n    tag_210:\n        /* \"@openzeppelin/contracts/token/ERC721/ERC721.sol\":15718:15719  0 */\n      0x00\n        /* \"@openzeppelin/contracts/token/ERC721/ERC721.sol\":15698:15720  operator == address(0) */\n      0xffffffffffffffffffffffffffffffffffffffff\n      and\n        /* \"@openzeppelin/contracts/token/ERC721/ERC721.sol\":15698:15706  operator */\n      dup3\n        /* \"@openzeppelin/contracts/token/ERC721/ERC721.sol\":15698:15720  operator == address(0) */\n      0xffffffffffffffffffffffffffffffffffffffff\n      and\n      sub\n        /* \"@openzeppelin/contracts/token/ERC721/ERC721.sol\":15694:15785  if (operator == address(0)) {... */\n      tag_290\n      jumpi\n        /* \"@openzeppelin/contracts/token/ERC721/ERC721.sol\":15765:15773  operator */\n      dup2\n        /* \"@openzeppelin/contracts/token/ERC721/ERC721.sol\":15743:15774  ERC721InvalidOperator(operator) */\n      mload(0x40)\n      0x5b08ba1800000000000000000000000000000000000000000000000000000000\n      dup2\n      mstore\n      0x04\n      add\n      tag_291\n      swap2\n      swap1\n      tag_47\n      jump\t// in\n    tag_291:\n      mload(0x40)\n      dup1\n      swap2\n      sub\n      swap1\n      revert\n        /* \"@openzeppelin/contracts/token/ERC721/ERC721.sol\":15694:15785  if (operator == address(0)) {... */\n    tag_290:\n        /* \"@openzeppelin/contracts/token/ERC721/ERC721.sol\":15832:15840  approved */\n      dup1\n        /* \"@openzeppelin/contracts/token/ERC721/ERC721.sol\":15794:15812  _operatorApprovals */\n      0x05\n        /* \"@openzeppelin/contracts/token/ERC721/ERC721.sol\":15794:15819  _operatorApprovals[owner] */\n      0x00\n        /* \"@openzeppelin/contracts/token/ERC721/ERC721.sol\":15813:15818  owner */\n      dup6\n        /* \"@openzeppelin/contracts/token/ERC721/ERC721.sol\":15794:15819  _operatorApprovals[owner] */\n      0xffffffffffffffffffffffffffffffffffffffff\n      and\n      0xffffffffffffffffffffffffffffffffffffffff\n      and\n      dup2\n      mstore\n      0x20\n      add\n      swap1\n      dup2\n      mstore\n      0x20\n      add\n      0x00\n      keccak256\n        /* \"@openzeppelin/contracts/token/ERC721/ERC721.sol\":15794:15829  _operatorApprovals[owner][operator] */\n      0x00\n        /* \"@openzeppelin/contracts/token/ERC721/ERC721.sol\":15820:15828  operator */\n      dup5\n        /* \"@openzeppelin/contracts/token/ERC721/ERC721.sol\":15794:15829  _operatorApprovals[owner][operator] */\n      0xffffffffffffffffffffffffffffffffffffffff\n      and\n      0xffffffffffffffffffffffffffffffffffffffff\n      and\n      dup2\n      mstore\n      0x20\n      add\n      swap1\n      dup2\n      mstore\n      0x20\n      add\n      0x00\n      keccak256\n      0x00\n        /* \"@openzeppelin/contracts/token/ERC721/ERC721.sol\":15794:15840  _operatorApprovals[owner][operator] = approved */\n      0x0100\n      exp\n      dup2\n      sload\n      dup2\n      0xff\n      mul\n      not\n      and\n      swap1\n      dup4\n      iszero\n      iszero\n      mul\n      or\n      swap1\n      sstore\n      pop\n        /* \"@openzeppelin/contracts/token/ERC721/ERC721.sol\":15877:15885  operator */\n      dup2\n        /* \"@openzeppelin/contracts/token/ERC721/ERC721.sol\":15855:15896  ApprovalForAll(owner, operator, approved) */\n      0xffffffffffffffffffffffffffffffffffffffff\n      and\n        /* \"@openzeppelin/contracts/token/ERC721/ERC721.sol\":15870:15875  owner */\n      dup4\n        /* \"@openzeppelin/contracts/token/ERC721/ERC721.sol\":15855:15896  ApprovalForAll(owner, operator, approved) */\n      0xffffffffffffffffffffffffffffffffffffffff\n      and\n      0x17307eab39ab6107e8899845ad3d59bd9653f200f220920489ca2b5937696c31\n        /* \"@openzeppelin/contracts/token/ERC721/ERC721.sol\":15887:15895  approved */\n      dup4\n        /* \"@openzeppelin/contracts/token/ERC721/ERC721.sol\":15855:15896  ApprovalForAll(owner, operator, approved) */\n      mload(0x40)\n      tag_292\n      swap2\n      swap1\n      tag_37\n      jump\t// in\n    tag_292:\n      mload(0x40)\n      dup1\n      swap2\n      sub\n      swap1\n      log3\n        /* \"@openzeppelin/contracts/token/ERC721/ERC721.sol\":15591:15903  function _setApprovalForAll(address owner, address operator, bool approved) internal virtual {... */\n      pop\n      pop\n      pop\n      jump\t// out\n        /* \"@openzeppelin/contracts/token/ERC721/ERC721.sol\":16918:17700  function _checkOnERC721Received(address from, address to, uint256 tokenId, bytes memory data) private {... */\n    tag_214:\n        /* \"@openzeppelin/contracts/token/ERC721/ERC721.sol\":17051:17052  0 */\n      0x00\n        /* \"@openzeppelin/contracts/token/ERC721/ERC721.sol\":17034:17036  to */\n      dup4\n        /* \"@openzeppelin/contracts/token/ERC721/ERC721.sol\":17034:17048  to.code.length */\n      0xffffffffffffffffffffffffffffffffffffffff\n      and\n      extcodesize\n        /* \"@openzeppelin/contracts/token/ERC721/ERC721.sol\":17034:17052  to.code.length > 0 */\n      gt\n        /* \"@openzeppelin/contracts/token/ERC721/ERC721.sol\":17030:17694  if (to.code.length > 0) {... */\n      iszero\n      tag_294\n      jumpi\n        /* \"@openzeppelin/contracts/token/ERC721/ERC721.sol\":17088:17090  to */\n      dup3\n        /* \"@openzeppelin/contracts/token/ERC721/ERC721.sol\":17072:17108  IERC721Receiver(to).onERC721Received */\n      0xffffffffffffffffffffffffffffffffffffffff\n      and\n      0x150b7a02\n        /* \"@openzeppelin/contracts/token/ERC721/ERC721.sol\":17109:17121  _msgSender() */\n      tag_295\n        /* \"@openzeppelin/contracts/token/ERC721/ERC721.sol\":17109:17119  _msgSender */\n      tag_149\n        /* \"@openzeppelin/contracts/token/ERC721/ERC721.sol\":17109:17121  _msgSender() */\n      jump\t// in\n    tag_295:\n        /* \"@openzeppelin/contracts/token/ERC721/ERC721.sol\":17123:17127  from */\n      dup7\n        /* \"@openzeppelin/contracts/token/ERC721/ERC721.sol\":17129:17136  tokenId */\n      dup6\n        /* \"@openzeppelin/contracts/token/ERC721/ERC721.sol\":17138:17142  data */\n      dup6\n        /* \"@openzeppelin/contracts/token/ERC721/ERC721.sol\":17072:17143  IERC721Receiver(to).onERC721Received(_msgSender(), from, tokenId, data) */\n      mload(0x40)\n      dup6\n      0xffffffff\n      and\n      0xe0\n      shl\n      dup2\n      mstore\n      0x04\n      add\n      tag_296\n      swap5\n      swap4\n      swap3\n      swap2\n      swap1\n      tag_297\n      jump\t// in\n    tag_296:\n      0x20\n      mload(0x40)\n      dup1\n      dup4\n      sub\n      dup2\n      0x00\n      dup8\n      gas\n      call\n      swap3\n      pop\n      pop\n      pop\n      dup1\n      iszero\n      tag_298\n      jumpi\n      pop\n      mload(0x40)\n      returndatasize\n      not(0x1f)\n      0x1f\n      dup3\n      add\n      and\n      dup3\n      add\n      dup1\n      0x40\n      mstore\n      pop\n      dup2\n      add\n      swap1\n      tag_299\n      swap2\n      swap1\n      tag_300\n      jump\t// in\n    tag_299:\n      0x01\n    tag_298:\n        /* \"@openzeppelin/contracts/token/ERC721/ERC721.sol\":17068:17684  try IERC721Receiver(to).onERC721Received(_msgSender(), from, tokenId, data) returns (bytes4 retval) {... */\n      tag_301\n      jumpi\n      returndatasize\n      dup1\n      0x00\n      dup2\n      eq\n      tag_306\n      jumpi\n      mload(0x40)\n      swap2\n      pop\n      and(add(returndatasize, 0x3f), not(0x1f))\n      dup3\n      add\n      0x40\n      mstore\n      returndatasize\n      dup3\n      mstore\n      returndatasize\n      0x00\n      0x20\n      dup5\n      add\n      returndatacopy\n      jump(tag_305)\n    tag_306:\n      0x60\n      swap2\n      pop\n    tag_305:\n      pop\n        /* \"@openzeppelin/contracts/token/ERC721/ERC721.sol\":17398:17399  0 */\n      0x00\n        /* \"@openzeppelin/contracts/token/ERC721/ERC721.sol\":17381:17387  reason */\n      dup2\n        /* \"@openzeppelin/contracts/token/ERC721/ERC721.sol\":17381:17394  reason.length */\n      mload\n        /* \"@openzeppelin/contracts/token/ERC721/ERC721.sol\":17381:17399  reason.length == 0 */\n      sub\n        /* \"@openzeppelin/contracts/token/ERC721/ERC721.sol\":17377:17670  if (reason.length == 0) {... */\n      tag_307\n      jumpi\n        /* \"@openzeppelin/contracts/token/ERC721/ERC721.sol\":17452:17454  to */\n      dup4\n        /* \"@openzeppelin/contracts/token/ERC721/ERC721.sol\":17430:17455  ERC721InvalidReceiver(to) */\n      mload(0x40)\n      0x64a0ae9200000000000000000000000000000000000000000000000000000000\n      dup2\n      mstore\n      0x04\n      add\n      tag_308\n      swap2\n      swap1\n      tag_47\n      jump\t// in\n    tag_308:\n      mload(0x40)\n      dup1\n      swap2\n      sub\n      swap1\n      revert\n        /* \"@openzeppelin/contracts/token/ERC721/ERC721.sol\":17377:17670  if (reason.length == 0) {... */\n    tag_307:\n        /* \"@openzeppelin/contracts/token/ERC721/ERC721.sol\":17622:17628  reason */\n      dup1\n        /* \"@openzeppelin/contracts/token/ERC721/ERC721.sol\":17616:17629  mload(reason) */\n      mload\n        /* \"@openzeppelin/contracts/token/ERC721/ERC721.sol\":17607:17613  reason */\n      dup2\n        /* \"@openzeppelin/contracts/token/ERC721/ERC721.sol\":17603:17605  32 */\n      0x20\n        /* \"@openzeppelin/contracts/token/ERC721/ERC721.sol\":17599:17614  add(32, reason) */\n      add\n        /* \"@openzeppelin/contracts/token/ERC721/ERC721.sol\":17592:17630  revert(add(32, reason), mload(reason)) */\n      revert\n        /* \"@openzeppelin/contracts/token/ERC721/ERC721.sol\":17068:17684  try IERC721Receiver(to).onERC721Received(_msgSender(), from, tokenId, data) returns (bytes4 retval) {... */\n    tag_301:\n        /* \"@openzeppelin/contracts/token/ERC721/ERC721.sol\":17200:17241  IERC721Receiver.onERC721Received.selector */\n      shl(0xe0, 0x150b7a02)\n        /* \"@openzeppelin/contracts/token/ERC721/ERC721.sol\":17190:17241  retval != IERC721Receiver.onERC721Received.selector */\n      not(0xffffffffffffffffffffffffffffffffffffffffffffffffffffffff)\n      and\n        /* \"@openzeppelin/contracts/token/ERC721/ERC721.sol\":17190:17196  retval */\n      dup2\n        /* \"@openzeppelin/contracts/token/ERC721/ERC721.sol\":17190:17241  retval != IERC721Receiver.onERC721Received.selector */\n      not(0xffffffffffffffffffffffffffffffffffffffffffffffffffffffff)\n      and\n      eq\n        /* \"@openzeppelin/contracts/token/ERC721/ERC721.sol\":17186:17316  if (retval != IERC721Receiver.onERC721Received.selector) {... */\n      tag_311\n      jumpi\n        /* \"@openzeppelin/contracts/token/ERC721/ERC721.sol\":17294:17296  to */\n      dup4\n        /* \"@openzeppelin/contracts/token/ERC721/ERC721.sol\":17272:17297  ERC721InvalidReceiver(to) */\n      mload(0x40)\n      0x64a0ae9200000000000000000000000000000000000000000000000000000000\n      dup2\n      mstore\n      0x04\n      add\n      tag_312\n      swap2\n      swap1\n      tag_47\n      jump\t// in\n    tag_312:\n      mload(0x40)\n      dup1\n      swap2\n      sub\n      swap1\n      revert\n        /* \"@openzeppelin/contracts/token/ERC721/ERC721.sol\":17186:17316  if (retval != IERC721Receiver.onERC721Received.selector) {... */\n    tag_311:\n        /* \"@openzeppelin/contracts/token/ERC721/ERC721.sol\":17144:17330  returns (bytes4 retval) {... */\n      pop\n        /* \"@openzeppelin/contracts/token/ERC721/ERC721.sol\":17030:17694  if (to.code.length > 0) {... */\n    tag_294:\n        /* \"@openzeppelin/contracts/token/ERC721/ERC721.sol\":16918:17700  function _checkOnERC721Received(address from, address to, uint256 tokenId, bytes memory data) private {... */\n      pop\n      pop\n      pop\n      pop\n      jump\t// out\n        /* \"@openzeppelin/contracts/token/ERC721/ERC721.sol\":3174:3266  function _baseURI() internal view virtual returns (string memory) {... */\n    tag_223:\n        /* \"@openzeppelin/contracts/token/ERC721/ERC721.sol\":3225:3238  string memory */\n      0x60\n        /* \"@openzeppelin/contracts/token/ERC721/ERC721.sol\":3250:3259  return \"\" */\n      mload(0x40)\n      dup1\n      0x20\n      add\n      0x40\n      mstore\n      dup1\n      0x00\n      dup2\n      mstore\n      pop\n      swap1\n      pop\n        /* \"@openzeppelin/contracts/token/ERC721/ERC721.sol\":3174:3266  function _baseURI() internal view virtual returns (string memory) {... */\n      swap1\n      jump\t// out\n        /* \"@openzeppelin/contracts/token/ERC721/ERC721.sol\":2677:2932  function tokenURI(uint256 tokenId) public view virtual returns (string memory) {... */\n    tag_229:\n        /* \"@openzeppelin/contracts/token/ERC721/ERC721.sol\":2741:2754  string memory */\n      0x60\n        /* \"@openzeppelin/contracts/token/ERC721/ERC721.sol\":2766:2788  _requireOwned(tokenId) */\n      tag_315\n        /* \"@openzeppelin/contracts/token/ERC721/ERC721.sol\":2780:2787  tokenId */\n      dup3\n        /* \"@openzeppelin/contracts/token/ERC721/ERC721.sol\":2766:2779  _requireOwned */\n      tag_143\n        /* \"@openzeppelin/contracts/token/ERC721/ERC721.sol\":2766:2788  _requireOwned(tokenId) */\n      jump\t// in\n    tag_315:\n      pop\n        /* \"@openzeppelin/contracts/token/ERC721/ERC721.sol\":2799:2820  string memory baseURI */\n      0x00\n        /* \"@openzeppelin/contracts/token/ERC721/ERC721.sol\":2823:2833  _baseURI() */\n      tag_316\n        /* \"@openzeppelin/contracts/token/ERC721/ERC721.sol\":2823:2831  _baseURI */\n      tag_223\n        /* \"@openzeppelin/contracts/token/ERC721/ERC721.sol\":2823:2833  _baseURI() */\n      jump\t// in\n    tag_316:\n        /* \"@openzeppelin/contracts/token/ERC721/ERC721.sol\":2799:2833  string memory baseURI = _baseURI() */\n      swap1\n      pop\n        /* \"@openzeppelin/contracts/token/ERC721/ERC721.sol\":2874:2875  0 */\n      0x00\n        /* \"@openzeppelin/contracts/token/ERC721/ERC721.sol\":2856:2863  baseURI */\n      dup2\n        /* \"@openzeppelin/contracts/token/ERC721/ERC721.sol\":2850:2871  bytes(baseURI).length */\n      mload\n        /* \"@openzeppelin/contracts/token/ERC721/ERC721.sol\":2850:2875  bytes(baseURI).length > 0 */\n      gt\n        /* \"@openzeppelin/contracts/token/ERC721/ERC721.sol\":2850:2925  bytes(baseURI).length > 0 ? string.concat(baseURI, tokenId.toString()) : \"\" */\n      tag_317\n      jumpi\n      mload(0x40)\n      dup1\n      0x20\n      add\n      0x40\n      mstore\n      dup1\n      0x00\n      dup2\n      mstore\n      pop\n      jump(tag_318)\n    tag_317:\n        /* \"@openzeppelin/contracts/token/ERC721/ERC721.sol\":2892:2899  baseURI */\n      dup1\n        /* \"@openzeppelin/contracts/token/ERC721/ERC721.sol\":2901:2919  tokenId.toString() */\n      tag_319\n        /* \"@openzeppelin/contracts/token/ERC721/ERC721.sol\":2901:2908  tokenId */\n      dup5\n        /* \"@openzeppelin/contracts/token/ERC721/ERC721.sol\":2901:2917  tokenId.toString */\n      tag_320\n        /* \"@openzeppelin/contracts/token/ERC721/ERC721.sol\":2901:2919  tokenId.toString() */\n      jump\t// in\n    tag_319:\n        /* \"@openzeppelin/contracts/token/ERC721/ERC721.sol\":2878:2920  string.concat(baseURI, tokenId.toString()) */\n      add(0x20, mload(0x40))\n      tag_321\n      swap3\n      swap2\n      swap1\n      tag_227\n      jump\t// in\n    tag_321:\n      mload(0x40)\n      0x20\n      dup2\n      dup4\n      sub\n      sub\n      dup2\n      mstore\n      swap1\n      0x40\n      mstore\n        /* \"@openzeppelin/contracts/token/ERC721/ERC721.sol\":2850:2925  bytes(baseURI).length > 0 ? string.concat(baseURI, tokenId.toString()) : \"\" */\n    tag_318:\n        /* \"@openzeppelin/contracts/token/ERC721/ERC721.sol\":2843:2925  return bytes(baseURI).length > 0 ? string.concat(baseURI, tokenId.toString()) : \"\" */\n      swap2\n      pop\n      pop\n        /* \"@openzeppelin/contracts/token/ERC721/ERC721.sol\":2677:2932  function tokenURI(uint256 tokenId) public view virtual returns (string memory) {... */\n      swap2\n      swap1\n      pop\n      jump\t// out\n        /* \"@openzeppelin/contracts/utils/introspection/ERC165.sol\":762:908  function supportsInterface(bytes4 interfaceId) public view virtual returns (bool) {... */\n    tag_253:\n        /* \"@openzeppelin/contracts/utils/introspection/ERC165.sol\":838:842  bool */\n      0x00\n        /* \"@openzeppelin/contracts/utils/introspection/ERC165.sol\":876:901  type(IERC165).interfaceId */\n      0x01ffc9a700000000000000000000000000000000000000000000000000000000\n        /* \"@openzeppelin/contracts/utils/introspection/ERC165.sol\":861:901  interfaceId == type(IERC165).interfaceId */\n      not(0xffffffffffffffffffffffffffffffffffffffffffffffffffffffff)\n      and\n        /* \"@openzeppelin/contracts/utils/introspection/ERC165.sol\":861:872  interfaceId */\n      dup3\n        /* \"@openzeppelin/contracts/utils/introspection/ERC165.sol\":861:901  interfaceId == type(IERC165).interfaceId */\n      not(0xffffffffffffffffffffffffffffffffffffffffffffffffffffffff)\n      and\n      eq\n        /* \"@openzeppelin/contracts/utils/introspection/ERC165.sol\":854:901  return interfaceId == type(IERC165).interfaceId */\n      swap1\n      pop\n        /* \"@openzeppelin/contracts/utils/introspection/ERC165.sol\":762:908  function supportsInterface(bytes4 interfaceId) public view virtual returns (bool) {... */\n      swap2\n      swap1\n      pop\n      jump\t// out\n        /* \"@openzeppelin/contracts/token/ERC721/ERC721.sol\":5707:5822  function _ownerOf(uint256 tokenId) internal view virtual returns (address) {... */\n    tag_256:\n        /* \"@openzeppelin/contracts/token/ERC721/ERC721.sol\":5773:5780  address */\n      0x00\n        /* \"@openzeppelin/contracts/token/ERC721/ERC721.sol\":5799:5806  _owners */\n      0x02\n        /* \"@openzeppelin/contracts/token/ERC721/ERC721.sol\":5799:5815  _owners[tokenId] */\n      0x00\n        /* \"@openzeppelin/contracts/token/ERC721/ERC721.sol\":5807:5814  tokenId */\n      dup4\n        /* \"@openzeppelin/contracts/token/ERC721/ERC721.sol\":5799:5815  _owners[tokenId] */\n      dup2\n      mstore\n      0x20\n      add\n      swap1\n      dup2\n      mstore\n      0x20\n      add\n      0x00\n      keccak256\n      0x00\n      swap1\n      sload\n      swap1\n      0x0100\n      exp\n      swap1\n      div\n      0xffffffffffffffffffffffffffffffffffffffff\n      and\n        /* \"@openzeppelin/contracts/token/ERC721/ERC721.sol\":5792:5815  return _owners[tokenId] */\n      swap1\n      pop\n        /* \"@openzeppelin/contracts/token/ERC721/ERC721.sol\":5707:5822  function _ownerOf(uint256 tokenId) internal view virtual returns (address) {... */\n      swap2\n      swap1\n      pop\n      jump\t// out\n        /* \"@openzeppelin/contracts/token/ERC721/ERC721.sol\":14720:15382  function _approve(address to, uint256 tokenId, address auth, bool emitEvent) internal virtual {... */\n    tag_263:\n        /* \"@openzeppelin/contracts/token/ERC721/ERC721.sol\":14880:14889  emitEvent */\n      dup1\n        /* \"@openzeppelin/contracts/token/ERC721/ERC721.sol\":14880:14911  emitEvent || auth != address(0) */\n      dup1\n      tag_325\n      jumpi\n      pop\n        /* \"@openzeppelin/contracts/token/ERC721/ERC721.sol\":14909:14910  0 */\n      0x00\n        /* \"@openzeppelin/contracts/token/ERC721/ERC721.sol\":14893:14911  auth != address(0) */\n      0xffffffffffffffffffffffffffffffffffffffff\n      and\n        /* \"@openzeppelin/contracts/token/ERC721/ERC721.sol\":14893:14897  auth */\n      dup3\n        /* \"@openzeppelin/contracts/token/ERC721/ERC721.sol\":14893:14911  auth != address(0) */\n      0xffffffffffffffffffffffffffffffffffffffff\n      and\n      eq\n      iszero\n        /* \"@openzeppelin/contracts/token/ERC721/ERC721.sol\":14880:14911  emitEvent || auth != address(0) */\n    tag_325:\n        /* \"@openzeppelin/contracts/token/ERC721/ERC721.sol\":14876:15336  if (emitEvent || auth != address(0)) {... */\n      iszero\n      tag_326\n      jumpi\n        /* \"@openzeppelin/contracts/token/ERC721/ERC721.sol\":14927:14940  address owner */\n      0x00\n        /* \"@openzeppelin/contracts/token/ERC721/ERC721.sol\":14943:14965  _requireOwned(tokenId) */\n      tag_327\n        /* \"@openzeppelin/contracts/token/ERC721/ERC721.sol\":14957:14964  tokenId */\n      dup5\n        /* \"@openzeppelin/contracts/token/ERC721/ERC721.sol\":14943:14956  _requireOwned */\n      tag_143\n        /* \"@openzeppelin/contracts/token/ERC721/ERC721.sol\":14943:14965  _requireOwned(tokenId) */\n      jump\t// in\n    tag_327:\n        /* \"@openzeppelin/contracts/token/ERC721/ERC721.sol\":14927:14965  address owner = _requireOwned(tokenId) */\n      swap1\n      pop\n        /* \"@openzeppelin/contracts/token/ERC721/ERC721.sol\":15109:15110  0 */\n      0x00\n        /* \"@openzeppelin/contracts/token/ERC721/ERC721.sol\":15093:15111  auth != address(0) */\n      0xffffffffffffffffffffffffffffffffffffffff\n      and\n        /* \"@openzeppelin/contracts/token/ERC721/ERC721.sol\":15093:15097  auth */\n      dup4\n        /* \"@openzeppelin/contracts/token/ERC721/ERC721.sol\":15093:15111  auth != address(0) */\n      0xffffffffffffffffffffffffffffffffffffffff\n      and\n      eq\n      iszero\n        /* \"@openzeppelin/contracts/token/ERC721/ERC721.sol\":15093:15128  auth != address(0) && owner != auth */\n      dup1\n      iszero\n      tag_328\n      jumpi\n      pop\n        /* \"@openzeppelin/contracts/token/ERC721/ERC721.sol\":15124:15128  auth */\n      dup3\n        /* \"@openzeppelin/contracts/token/ERC721/ERC721.sol\":15115:15128  owner != auth */\n      0xffffffffffffffffffffffffffffffffffffffff\n      and\n        /* \"@openzeppelin/contracts/token/ERC721/ERC721.sol\":15115:15120  owner */\n      dup2\n        /* \"@openzeppelin/contracts/token/ERC721/ERC721.sol\":15115:15128  owner != auth */\n      0xffffffffffffffffffffffffffffffffffffffff\n      and\n      eq\n      iszero\n        /* \"@openzeppelin/contracts/token/ERC721/ERC721.sol\":15093:15128  auth != address(0) && owner != auth */\n    tag_328:\n        /* \"@openzeppelin/contracts/token/ERC721/ERC721.sol\":15093:15162  auth != address(0) && owner != auth && !isApprovedForAll(owner, auth) */\n      dup1\n      iszero\n      tag_329\n      jumpi\n      pop\n        /* \"@openzeppelin/contracts/token/ERC721/ERC721.sol\":15133:15162  isApprovedForAll(owner, auth) */\n      tag_330\n        /* \"@openzeppelin/contracts/token/ERC721/ERC721.sol\":15150:15155  owner */\n      dup2\n        /* \"@openzeppelin/contracts/token/ERC721/ERC721.sol\":15157:15161  auth */\n      dup5\n        /* \"@openzeppelin/contracts/token/ERC721/ERC721.sol\":15133:15149  isApprovedForAll */\n      tag_125\n        /* \"@openzeppelin/contracts/token/ERC721/ERC721.sol\":15133:15162  isApprovedForAll(owner, auth) */\n      jump\t// in\n    tag_330:\n        /* \"@openzeppelin/contracts/token/ERC721/ERC721.sol\":15132:15162  !isApprovedForAll(owner, auth) */\n      iszero\n        /* \"@openzeppelin/contracts/token/ERC721/ERC721.sol\":15093:15162  auth != address(0) && owner != auth && !isApprovedForAll(owner, auth) */\n    tag_329:\n        /* \"@openzeppelin/contracts/token/ERC721/ERC721.sol\":15089:15231  if (auth != address(0) && owner != auth && !isApprovedForAll(owner, auth)) {... */\n      iszero\n      tag_331\n      jumpi\n        /* \"@openzeppelin/contracts/token/ERC721/ERC721.sol\":15211:15215  auth */\n      dup3\n        /* \"@openzeppelin/contracts/token/ERC721/ERC721.sol\":15189:15216  ERC721InvalidApprover(auth) */\n      mload(0x40)\n      0xa9fbf51f00000000000000000000000000000000000000000000000000000000\n      dup2\n      mstore\n      0x04\n      add\n      tag_332\n      swap2\n      swap1\n      tag_47\n      jump\t// in\n    tag_332:\n      mload(0x40)\n      dup1\n      swap2\n      sub\n      swap1\n      revert\n        /* \"@openzeppelin/contracts/token/ERC721/ERC721.sol\":15089:15231  if (auth != address(0) && owner != auth && !isApprovedForAll(owner, auth)) {... */\n    tag_331:\n        /* \"@openzeppelin/contracts/token/ERC721/ERC721.sol\":15249:15258  emitEvent */\n      dup2\n        /* \"@openzeppelin/contracts/token/ERC721/ERC721.sol\":15245:15326  if (emitEvent) {... */\n      iszero\n      tag_333\n      jumpi\n        /* \"@openzeppelin/contracts/token/ERC721/ERC721.sol\":15303:15310  tokenId */\n      dup4\n        /* \"@openzeppelin/contracts/token/ERC721/ERC721.sol\":15299:15301  to */\n      dup6\n        /* \"@openzeppelin/contracts/token/ERC721/ERC721.sol\":15283:15311  Approval(owner, to, tokenId) */\n      0xffffffffffffffffffffffffffffffffffffffff\n      and\n        /* \"@openzeppelin/contracts/token/ERC721/ERC721.sol\":15292:15297  owner */\n      dup3\n        /* \"@openzeppelin/contracts/token/ERC721/ERC721.sol\":15283:15311  Approval(owner, to, tokenId) */\n      0xffffffffffffffffffffffffffffffffffffffff\n      and\n      0x8c5be1e5ebec7d5bd14f71427d1e84f3dd0314c0f7b2291e5b200ac8c7c3b925\n      mload(0x40)\n      mload(0x40)\n      dup1\n      swap2\n      sub\n      swap1\n      log4\n        /* \"@openzeppelin/contracts/token/ERC721/ERC721.sol\":15245:15326  if (emitEvent) {... */\n    tag_333:\n        /* \"@openzeppelin/contracts/token/ERC721/ERC721.sol\":14913:15336  {... */\n      pop\n        /* \"@openzeppelin/contracts/token/ERC721/ERC721.sol\":14876:15336  if (emitEvent || auth != address(0)) {... */\n    tag_326:\n        /* \"@openzeppelin/contracts/token/ERC721/ERC721.sol\":15373:15375  to */\n      dup4\n        /* \"@openzeppelin/contracts/token/ERC721/ERC721.sol\":15346:15361  _tokenApprovals */\n      0x04\n        /* \"@openzeppelin/contracts/token/ERC721/ERC721.sol\":15346:15370  _tokenApprovals[tokenId] */\n      0x00\n        /* \"@openzeppelin/contracts/token/ERC721/ERC721.sol\":15362:15369  tokenId */\n      dup6\n        /* \"@openzeppelin/contracts/token/ERC721/ERC721.sol\":15346:15370  _tokenApprovals[tokenId] */\n      dup2\n      mstore\n      0x20\n      add\n      swap1\n      dup2\n      mstore\n      0x20\n      add\n      0x00\n      keccak256\n      0x00\n        /* \"@openzeppelin/contracts/token/ERC721/ERC721.sol\":15346:15375  _tokenApprovals[tokenId] = to */\n      0x0100\n      exp\n      dup2\n      sload\n      dup2\n      0xffffffffffffffffffffffffffffffffffffffff\n      mul\n      not\n      and\n      swap1\n      dup4\n      0xffffffffffffffffffffffffffffffffffffffff\n      and\n      mul\n      or\n      swap1\n      sstore\n      pop\n        /* \"@openzeppelin/contracts/token/ERC721/ERC721.sol\":14720:15382  function _approve(address to, uint256 tokenId, address auth, bool emitEvent) internal virtual {... */\n      pop\n      pop\n      pop\n      pop\n      jump\t// out\n        /* \"@openzeppelin/contracts/token/ERC721/ERC721.sol\":7082:7450  function _checkAuthorized(address owner, address spender, uint256 tokenId) internal view virtual {... */\n    tag_268:\n        /* \"@openzeppelin/contracts/token/ERC721/ERC721.sol\":7194:7232  _isAuthorized(owner, spender, tokenId) */\n      tag_335\n        /* \"@openzeppelin/contracts/token/ERC721/ERC721.sol\":7208:7213  owner */\n      dup4\n        /* \"@openzeppelin/contracts/token/ERC721/ERC721.sol\":7215:7222  spender */\n      dup4\n        /* \"@openzeppelin/contracts/token/ERC721/ERC721.sol\":7224:7231  tokenId */\n      dup4\n        /* \"@openzeppelin/contracts/token/ERC721/ERC721.sol\":7194:7207  _isAuthorized */\n      tag_336\n        /* \"@openzeppelin/contracts/token/ERC721/ERC721.sol\":7194:7232  _isAuthorized(owner, spender, tokenId) */\n      jump\t// in\n    tag_335:\n        /* \"@openzeppelin/contracts/token/ERC721/ERC721.sol\":7189:7444  if (!_isAuthorized(owner, spender, tokenId)) {... */\n      tag_337\n      jumpi\n        /* \"@openzeppelin/contracts/token/ERC721/ERC721.sol\":7269:7270  0 */\n      0x00\n        /* \"@openzeppelin/contracts/token/ERC721/ERC721.sol\":7252:7271  owner == address(0) */\n      0xffffffffffffffffffffffffffffffffffffffff\n      and\n        /* \"@openzeppelin/contracts/token/ERC721/ERC721.sol\":7252:7257  owner */\n      dup4\n        /* \"@openzeppelin/contracts/token/ERC721/ERC721.sol\":7252:7271  owner == address(0) */\n      0xffffffffffffffffffffffffffffffffffffffff\n      and\n      sub\n        /* \"@openzeppelin/contracts/token/ERC721/ERC721.sol\":7248:7434  if (owner == address(0)) {... */\n      tag_338\n      jumpi\n        /* \"@openzeppelin/contracts/token/ERC721/ERC721.sol\":7321:7328  tokenId */\n      dup1\n        /* \"@openzeppelin/contracts/token/ERC721/ERC721.sol\":7298:7329  ERC721NonexistentToken(tokenId) */\n      mload(0x40)\n      0x7e27328900000000000000000000000000000000000000000000000000000000\n      dup2\n      mstore\n      0x04\n      add\n      tag_339\n      swap2\n      swap1\n      tag_59\n      jump\t// in\n    tag_339:\n      mload(0x40)\n      dup1\n      swap2\n      sub\n      swap1\n      revert\n        /* \"@openzeppelin/contracts/token/ERC721/ERC721.sol\":7248:7434  if (owner == address(0)) {... */\n    tag_338:\n        /* \"@openzeppelin/contracts/token/ERC721/ERC721.sol\":7402:7409  spender */\n      dup2\n        /* \"@openzeppelin/contracts/token/ERC721/ERC721.sol\":7411:7418  tokenId */\n      dup2\n        /* \"@openzeppelin/contracts/token/ERC721/ERC721.sol\":7375:7419  ERC721InsufficientApproval(spender, tokenId) */\n      mload(0x40)\n      0x177e802f00000000000000000000000000000000000000000000000000000000\n      dup2\n      mstore\n      0x04\n      add\n      tag_341\n      swap3\n      swap2\n      swap1\n      tag_342\n      jump\t// in\n    tag_341:\n      mload(0x40)\n      dup1\n      swap2\n      sub\n      swap1\n      revert\n        /* \"@openzeppelin/contracts/token/ERC721/ERC721.sol\":7189:7444  if (!_isAuthorized(owner, spender, tokenId)) {... */\n    tag_337:\n        /* \"@openzeppelin/contracts/token/ERC721/ERC721.sol\":7082:7450  function _checkAuthorized(address owner, address spender, uint256 tokenId) internal view virtual {... */\n      pop\n      pop\n      pop\n      jump\t// out\n        /* \"@openzeppelin/contracts/utils/Strings.sol\":637:1335  function toString(uint256 value) internal pure returns (string memory) {... */\n    tag_320:\n        /* \"@openzeppelin/contracts/utils/Strings.sol\":693:706  string memory */\n      0x60\n        /* \"@openzeppelin/contracts/utils/Strings.sol\":742:756  uint256 length */\n      0x00\n        /* \"@openzeppelin/contracts/utils/Strings.sol\":779:780  1 */\n      0x01\n        /* \"@openzeppelin/contracts/utils/Strings.sol\":759:776  Math.log10(value) */\n      tag_344\n        /* \"@openzeppelin/contracts/utils/Strings.sol\":770:775  value */\n      dup5\n        /* \"@openzeppelin/contracts/utils/Strings.sol\":759:769  Math.log10 */\n      tag_345\n        /* \"@openzeppelin/contracts/utils/Strings.sol\":759:776  Math.log10(value) */\n      jump\t// in\n    tag_344:\n        /* \"@openzeppelin/contracts/utils/Strings.sol\":759:780  Math.log10(value) + 1 */\n      add\n        /* \"@openzeppelin/contracts/utils/Strings.sol\":742:780  uint256 length = Math.log10(value) + 1 */\n      swap1\n      pop\n        /* \"@openzeppelin/contracts/utils/Strings.sol\":794:814  string memory buffer */\n      0x00\n        /* \"@openzeppelin/contracts/utils/Strings.sol\":828:834  length */\n      dup2\n        /* \"@openzeppelin/contracts/utils/Strings.sol\":817:835  new string(length) */\n      0xffffffffffffffff\n      dup2\n      gt\n      iszero\n      tag_346\n      jumpi\n      tag_347\n      tag_348\n      jump\t// in\n    tag_347:\n    tag_346:\n      mload(0x40)\n      swap1\n      dup1\n      dup3\n      mstore\n      dup1\n      0x1f\n      add\n      not(0x1f)\n      and\n      0x20\n      add\n      dup3\n      add\n      0x40\n      mstore\n      dup1\n      iszero\n      tag_349\n      jumpi\n      dup2\n      0x20\n      add\n      0x01\n      dup3\n      mul\n      dup1\n      calldatasize\n      dup4\n      calldatacopy\n      dup1\n      dup3\n      add\n      swap2\n      pop\n      pop\n      swap1\n      pop\n    tag_349:\n      pop\n        /* \"@openzeppelin/contracts/utils/Strings.sol\":794:835  string memory buffer = new string(length) */\n      swap1\n      pop\n        /* \"@openzeppelin/contracts/utils/Strings.sol\":849:860  uint256 ptr */\n      0x00\n        /* \"@openzeppelin/contracts/utils/Strings.sol\":975:981  length */\n      dup3\n        /* \"@openzeppelin/contracts/utils/Strings.sol\":971:973  32 */\n      0x20\n        /* \"@openzeppelin/contracts/utils/Strings.sol\":967:982  add(32, length) */\n      add\n        /* \"@openzeppelin/contracts/utils/Strings.sol\":959:965  buffer */\n      dup3\n        /* \"@openzeppelin/contracts/utils/Strings.sol\":955:983  add(buffer, add(32, length)) */\n      add\n        /* \"@openzeppelin/contracts/utils/Strings.sol\":948:983  ptr := add(buffer, add(32, length)) */\n      swap1\n      pop\n        /* \"@openzeppelin/contracts/utils/Strings.sol\":1010:1292  while (true) {... */\n    tag_350:\n        /* \"@openzeppelin/contracts/utils/Strings.sol\":1017:1021  true */\n      0x01\n        /* \"@openzeppelin/contracts/utils/Strings.sol\":1010:1292  while (true) {... */\n      iszero\n      tag_351\n      jumpi\n        /* \"@openzeppelin/contracts/utils/Strings.sol\":1041:1046  ptr-- */\n      dup1\n      dup1\n      0x01\n      swap1\n      sub\n      swap2\n      pop\n      pop\n        /* \"@openzeppelin/contracts/utils/Strings.sol\":1180:1190  HEX_DIGITS */\n      0x3031323334353637383961626364656600000000000000000000000000000000\n        /* \"@openzeppelin/contracts/utils/Strings.sol\":1175:1177  10 */\n      0x0a\n        /* \"@openzeppelin/contracts/utils/Strings.sol\":1168:1173  value */\n      dup7\n        /* \"@openzeppelin/contracts/utils/Strings.sol\":1164:1178  mod(value, 10) */\n      mod\n        /* \"@openzeppelin/contracts/utils/Strings.sol\":1159:1191  byte(mod(value, 10), HEX_DIGITS) */\n      byte\n        /* \"@openzeppelin/contracts/utils/Strings.sol\":1154:1157  ptr */\n      dup2\n        /* \"@openzeppelin/contracts/utils/Strings.sol\":1146:1192  mstore8(ptr, byte(mod(value, 10), HEX_DIGITS)) */\n      mstore8\n        /* \"@openzeppelin/contracts/utils/Strings.sol\":1236:1238  10 */\n      0x0a\n        /* \"@openzeppelin/contracts/utils/Strings.sol\":1227:1238  value /= 10 */\n      dup6\n      dup2\n      tag_352\n      jumpi\n      tag_353\n      tag_354\n      jump\t// in\n    tag_353:\n    tag_352:\n      div\n      swap5\n      pop\n        /* \"@openzeppelin/contracts/utils/Strings.sol\":1269:1270  0 */\n      0x00\n        /* \"@openzeppelin/contracts/utils/Strings.sol\":1260:1265  value */\n      dup6\n        /* \"@openzeppelin/contracts/utils/Strings.sol\":1260:1270  value == 0 */\n      sub\n        /* \"@openzeppelin/contracts/utils/Strings.sol\":1010:1292  while (true) {... */\n      tag_350\n        /* \"@openzeppelin/contracts/utils/Strings.sol\":1256:1277  if (value == 0) break */\n      jumpi\n        /* \"@openzeppelin/contracts/utils/Strings.sol\":1010:1292  while (true) {... */\n    tag_351:\n        /* \"@openzeppelin/contracts/utils/Strings.sol\":1312:1318  buffer */\n      dup2\n        /* \"@openzeppelin/contracts/utils/Strings.sol\":1305:1318  return buffer */\n      swap4\n      pop\n      pop\n      pop\n      pop\n        /* \"@openzeppelin/contracts/utils/Strings.sol\":637:1335  function toString(uint256 value) internal pure returns (string memory) {... */\n      swap2\n      swap1\n      pop\n      jump\t// out\n        /* \"@openzeppelin/contracts/token/ERC721/ERC721.sol\":6376:6648  function _isAuthorized(address owner, address spender, uint256 tokenId) internal view virtual returns (bool) {... */\n    tag_336:\n        /* \"@openzeppelin/contracts/token/ERC721/ERC721.sol\":6479:6483  bool */\n      0x00\n        /* \"@openzeppelin/contracts/token/ERC721/ERC721.sol\":6533:6534  0 */\n      dup1\n        /* \"@openzeppelin/contracts/token/ERC721/ERC721.sol\":6514:6535  spender != address(0) */\n      0xffffffffffffffffffffffffffffffffffffffff\n      and\n        /* \"@openzeppelin/contracts/token/ERC721/ERC721.sol\":6514:6521  spender */\n      dup4\n        /* \"@openzeppelin/contracts/token/ERC721/ERC721.sol\":6514:6535  spender != address(0) */\n      0xffffffffffffffffffffffffffffffffffffffff\n      and\n      eq\n      iszero\n        /* \"@openzeppelin/contracts/token/ERC721/ERC721.sol\":6514:6641  spender != address(0) &&... */\n      dup1\n      iszero\n      tag_357\n      jumpi\n      pop\n        /* \"@openzeppelin/contracts/token/ERC721/ERC721.sol\":6561:6568  spender */\n      dup3\n        /* \"@openzeppelin/contracts/token/ERC721/ERC721.sol\":6552:6568  owner == spender */\n      0xffffffffffffffffffffffffffffffffffffffff\n      and\n        /* \"@openzeppelin/contracts/token/ERC721/ERC721.sol\":6552:6557  owner */\n      dup5\n        /* \"@openzeppelin/contracts/token/ERC721/ERC721.sol\":6552:6568  owner == spender */\n      0xffffffffffffffffffffffffffffffffffffffff\n      and\n      eq\n        /* \"@openzeppelin/contracts/token/ERC721/ERC721.sol\":6552:6604  owner == spender || isApprovedForAll(owner, spender) */\n      dup1\n      tag_358\n      jumpi\n      pop\n        /* \"@openzeppelin/contracts/token/ERC721/ERC721.sol\":6572:6604  isApprovedForAll(owner, spender) */\n      tag_359\n        /* \"@openzeppelin/contracts/token/ERC721/ERC721.sol\":6589:6594  owner */\n      dup5\n        /* \"@openzeppelin/contracts/token/ERC721/ERC721.sol\":6596:6603  spender */\n      dup5\n        /* \"@openzeppelin/contracts/token/ERC721/ERC721.sol\":6572:6588  isApprovedForAll */\n      tag_125\n        /* \"@openzeppelin/contracts/token/ERC721/ERC721.sol\":6572:6604  isApprovedForAll(owner, spender) */\n      jump\t// in\n    tag_359:\n        /* \"@openzeppelin/contracts/token/ERC721/ERC721.sol\":6552:6604  owner == spender || isApprovedForAll(owner, spender) */\n    tag_358:\n        /* \"@openzeppelin/contracts/token/ERC721/ERC721.sol\":6552:6640  owner == spender || isApprovedForAll(owner, spender) || _getApproved(tokenId) == spender */\n      dup1\n      tag_360\n      jumpi\n      pop\n        /* \"@openzeppelin/contracts/token/ERC721/ERC721.sol\":6633:6640  spender */\n      dup3\n        /* \"@openzeppelin/contracts/token/ERC721/ERC721.sol\":6608:6640  _getApproved(tokenId) == spender */\n      0xffffffffffffffffffffffffffffffffffffffff\n      and\n        /* \"@openzeppelin/contracts/token/ERC721/ERC721.sol\":6608:6629  _getApproved(tokenId) */\n      tag_361\n        /* \"@openzeppelin/contracts/token/ERC721/ERC721.sol\":6621:6628  tokenId */\n      dup4\n        /* \"@openzeppelin/contracts/token/ERC721/ERC721.sol\":6608:6620  _getApproved */\n      tag_145\n        /* \"@openzeppelin/contracts/token/ERC721/ERC721.sol\":6608:6629  _getApproved(tokenId) */\n      jump\t// in\n    tag_361:\n        /* \"@openzeppelin/contracts/token/ERC721/ERC721.sol\":6608:6640  _getApproved(tokenId) == spender */\n      0xffffffffffffffffffffffffffffffffffffffff\n      and\n      eq\n        /* \"@openzeppelin/contracts/token/ERC721/ERC721.sol\":6552:6640  owner == spender || isApprovedForAll(owner, spender) || _getApproved(tokenId) == spender */\n    tag_360:\n        /* \"@openzeppelin/contracts/token/ERC721/ERC721.sol\":6514:6641  spender != address(0) &&... */\n    tag_357:\n        /* \"@openzeppelin/contracts/token/ERC721/ERC721.sol\":6495:6641  return... */\n      swap1\n      pop\n        /* \"@openzeppelin/contracts/token/ERC721/ERC721.sol\":6376:6648  function _isAuthorized(address owner, address spender, uint256 tokenId) internal view virtual returns (bool) {... */\n      swap4\n      swap3\n      pop\n      pop\n      pop\n      jump\t// out\n        /* \"@openzeppelin/contracts/utils/math/Math.sol\":12214:13130  function log10(uint256 value) internal pure returns (uint256) {... */\n    tag_345:\n        /* \"@openzeppelin/contracts/utils/math/Math.sol\":12267:12274  uint256 */\n      0x00\n        /* \"@openzeppelin/contracts/utils/math/Math.sol\":12286:12300  uint256 result */\n      dup1\n        /* \"@openzeppelin/contracts/utils/math/Math.sol\":12303:12304  0 */\n      0x00\n        /* \"@openzeppelin/contracts/utils/math/Math.sol\":12286:12304  uint256 result = 0 */\n      swap1\n      pop\n        /* \"@openzeppelin/contracts/utils/math/Math.sol\":12351:12359  10 ** 64 */\n      0x184f03e93ff9f4daa797ed6e38ed64bf6a1f010000000000000000\n        /* \"@openzeppelin/contracts/utils/math/Math.sol\":12342:12347  value */\n      dup4\n        /* \"@openzeppelin/contracts/utils/math/Math.sol\":12342:12359  value >= 10 ** 64 */\n      lt\n        /* \"@openzeppelin/contracts/utils/math/Math.sol\":12338:12441  if (value >= 10 ** 64) {... */\n      tag_363\n      jumpi\n        /* \"@openzeppelin/contracts/utils/math/Math.sol\":12388:12396  10 ** 64 */\n      0x184f03e93ff9f4daa797ed6e38ed64bf6a1f010000000000000000\n        /* \"@openzeppelin/contracts/utils/math/Math.sol\":12379:12396  value /= 10 ** 64 */\n      dup4\n      dup2\n      tag_364\n      jumpi\n      tag_365\n      tag_354\n      jump\t// in\n    tag_365:\n    tag_364:\n      div\n      swap3\n      pop\n        /* \"@openzeppelin/contracts/utils/math/Math.sol\":12424:12426  64 */\n      0x40\n        /* \"@openzeppelin/contracts/utils/math/Math.sol\":12414:12426  result += 64 */\n      dup2\n      add\n      swap1\n      pop\n        /* \"@openzeppelin/contracts/utils/math/Math.sol\":12338:12441  if (value >= 10 ** 64) {... */\n    tag_363:\n        /* \"@openzeppelin/contracts/utils/math/Math.sol\":12467:12475  10 ** 32 */\n      0x04ee2d6d415b85acef8100000000\n        /* \"@openzeppelin/contracts/utils/math/Math.sol\":12458:12463  value */\n      dup4\n        /* \"@openzeppelin/contracts/utils/math/Math.sol\":12458:12475  value >= 10 ** 32 */\n      lt\n        /* \"@openzeppelin/contracts/utils/math/Math.sol\":12454:12557  if (value >= 10 ** 32) {... */\n      tag_366\n      jumpi\n        /* \"@openzeppelin/contracts/utils/math/Math.sol\":12504:12512  10 ** 32 */\n      0x04ee2d6d415b85acef8100000000\n        /* \"@openzeppelin/contracts/utils/math/Math.sol\":12495:12512  value /= 10 ** 32 */\n      dup4\n      dup2\n      tag_367\n      jumpi\n      tag_368\n      tag_354\n      jump\t// in\n    tag_368:\n    tag_367:\n      div\n      swap3\n      pop\n        /* \"@openzeppelin/contracts/utils/math/Math.sol\":12540:12542  32 */\n      0x20\n        /* \"@openzeppelin/contracts/utils/math/Math.sol\":12530:12542  result += 32 */\n      dup2\n      add\n      swap1\n      pop\n        /* \"@openzeppelin/contracts/utils/math/Math.sol\":12454:12557  if (value >= 10 ** 32) {... */\n    tag_366:\n        /* \"@openzeppelin/contracts/utils/math/Math.sol\":12583:12591  10 ** 16 */\n      0x2386f26fc10000\n        /* \"@openzeppelin/contracts/utils/math/Math.sol\":12574:12579  value */\n      dup4\n        /* \"@openzeppelin/contracts/utils/math/Math.sol\":12574:12591  value >= 10 ** 16 */\n      lt\n        /* \"@openzeppelin/contracts/utils/math/Math.sol\":12570:12673  if (value >= 10 ** 16) {... */\n      tag_369\n      jumpi\n        /* \"@openzeppelin/contracts/utils/math/Math.sol\":12620:12628  10 ** 16 */\n      0x2386f26fc10000\n        /* \"@openzeppelin/contracts/utils/math/Math.sol\":12611:12628  value /= 10 ** 16 */\n      dup4\n      dup2\n      tag_370\n      jumpi\n      tag_371\n      tag_354\n      jump\t// in\n    tag_371:\n    tag_370:\n      div\n      swap3\n      pop\n        /* \"@openzeppelin/contracts/utils/math/Math.sol\":12656:12658  16 */\n      0x10\n        /* \"@openzeppelin/contracts/utils/math/Math.sol\":12646:12658  result += 16 */\n      dup2\n      add\n      swap1\n      pop\n        /* \"@openzeppelin/contracts/utils/math/Math.sol\":12570:12673  if (value >= 10 ** 16) {... */\n    tag_369:\n        /* \"@openzeppelin/contracts/utils/math/Math.sol\":12699:12706  10 ** 8 */\n      0x05f5e100\n        /* \"@openzeppelin/contracts/utils/math/Math.sol\":12690:12695  value */\n      dup4\n        /* \"@openzeppelin/contracts/utils/math/Math.sol\":12690:12706  value >= 10 ** 8 */\n      lt\n        /* \"@openzeppelin/contracts/utils/math/Math.sol\":12686:12786  if (value >= 10 ** 8) {... */\n      tag_372\n      jumpi\n        /* \"@openzeppelin/contracts/utils/math/Math.sol\":12735:12742  10 ** 8 */\n      0x05f5e100\n        /* \"@openzeppelin/contracts/utils/math/Math.sol\":12726:12742  value /= 10 ** 8 */\n      dup4\n      dup2\n      tag_373\n      jumpi\n      tag_374\n      tag_354\n      jump\t// in\n    tag_374:\n    tag_373:\n      div\n      swap3\n      pop\n        /* \"@openzeppelin/contracts/utils/math/Math.sol\":12770:12771  8 */\n      0x08\n        /* \"@openzeppelin/contracts/utils/math/Math.sol\":12760:12771  result += 8 */\n      dup2\n      add\n      swap1\n      pop\n        /* \"@openzeppelin/contracts/utils/math/Math.sol\":12686:12786  if (value >= 10 ** 8) {... */\n    tag_372:\n        /* \"@openzeppelin/contracts/utils/math/Math.sol\":12812:12819  10 ** 4 */\n      0x2710\n        /* \"@openzeppelin/contracts/utils/math/Math.sol\":12803:12808  value */\n      dup4\n        /* \"@openzeppelin/contracts/utils/math/Math.sol\":12803:12819  value >= 10 ** 4 */\n      lt\n        /* \"@openzeppelin/contracts/utils/math/Math.sol\":12799:12899  if (value >= 10 ** 4) {... */\n      tag_375\n      jumpi\n        /* \"@openzeppelin/contracts/utils/math/Math.sol\":12848:12855  10 ** 4 */\n      0x2710\n        /* \"@openzeppelin/contracts/utils/math/Math.sol\":12839:12855  value /= 10 ** 4 */\n      dup4\n      dup2\n      tag_376\n      jumpi\n      tag_377\n      tag_354\n      jump\t// in\n    tag_377:\n    tag_376:\n      div\n      swap3\n      pop\n        /* \"@openzeppelin/contracts/utils/math/Math.sol\":12883:12884  4 */\n      0x04\n        /* \"@openzeppelin/contracts/utils/math/Math.sol\":12873:12884  result += 4 */\n      dup2\n      add\n      swap1\n      pop\n        /* \"@openzeppelin/contracts/utils/math/Math.sol\":12799:12899  if (value >= 10 ** 4) {... */\n    tag_375:\n        /* \"@openzeppelin/contracts/utils/math/Math.sol\":12925:12932  10 ** 2 */\n      0x64\n        /* \"@openzeppelin/contracts/utils/math/Math.sol\":12916:12921  value */\n      dup4\n        /* \"@openzeppelin/contracts/utils/math/Math.sol\":12916:12932  value >= 10 ** 2 */\n      lt\n        /* \"@openzeppelin/contracts/utils/math/Math.sol\":12912:13012  if (value >= 10 ** 2) {... */\n      tag_378\n      jumpi\n        /* \"@openzeppelin/contracts/utils/math/Math.sol\":12961:12968  10 ** 2 */\n      0x64\n        /* \"@openzeppelin/contracts/utils/math/Math.sol\":12952:12968  value /= 10 ** 2 */\n      dup4\n      dup2\n      tag_379\n      jumpi\n      tag_380\n      tag_354\n      jump\t// in\n    tag_380:\n    tag_379:\n      div\n      swap3\n      pop\n        /* \"@openzeppelin/contracts/utils/math/Math.sol\":12996:12997  2 */\n      0x02\n        /* \"@openzeppelin/contracts/utils/math/Math.sol\":12986:12997  result += 2 */\n      dup2\n      add\n      swap1\n      pop\n        /* \"@openzeppelin/contracts/utils/math/Math.sol\":12912:13012  if (value >= 10 ** 2) {... */\n    tag_378:\n        /* \"@openzeppelin/contracts/utils/math/Math.sol\":13038:13045  10 ** 1 */\n      0x0a\n        /* \"@openzeppelin/contracts/utils/math/Math.sol\":13029:13034  value */\n      dup4\n        /* \"@openzeppelin/contracts/utils/math/Math.sol\":13029:13045  value >= 10 ** 1 */\n      lt\n        /* \"@openzeppelin/contracts/utils/math/Math.sol\":13025:13091  if (value >= 10 ** 1) {... */\n      tag_381\n      jumpi\n        /* \"@openzeppelin/contracts/utils/math/Math.sol\":13075:13076  1 */\n      0x01\n        /* \"@openzeppelin/contracts/utils/math/Math.sol\":13065:13076  result += 1 */\n      dup2\n      add\n      swap1\n      pop\n        /* \"@openzeppelin/contracts/utils/math/Math.sol\":13025:13091  if (value >= 10 ** 1) {... */\n    tag_381:\n        /* \"@openzeppelin/contracts/utils/math/Math.sol\":13117:13123  result */\n      dup1\n        /* \"@openzeppelin/contracts/utils/math/Math.sol\":13110:13123  return result */\n      swap2\n      pop\n      pop\n        /* \"@openzeppelin/contracts/utils/math/Math.sol\":12214:13130  function log10(uint256 value) internal pure returns (uint256) {... */\n      swap2\n      swap1\n      pop\n      jump\t// out\n        /* \"#utility.yul\":7:82   */\n    tag_382:\n        /* \"#utility.yul\":40:46   */\n      0x00\n        /* \"#utility.yul\":73:75   */\n      0x40\n        /* \"#utility.yul\":67:76   */\n      mload\n        /* \"#utility.yul\":57:76   */\n      swap1\n      pop\n        /* \"#utility.yul\":7:82   */\n      swap1\n      jump\t// out\n        /* \"#utility.yul\":88:205   */\n    tag_383:\n        /* \"#utility.yul\":197:198   */\n      0x00\n        /* \"#utility.yul\":194:195   */\n      dup1\n        /* \"#utility.yul\":187:199   */\n      revert\n        /* \"#utility.yul\":211:328   */\n    tag_384:\n        /* \"#utility.yul\":320:321   */\n      0x00\n        /* \"#utility.yul\":317:318   */\n      dup1\n        /* \"#utility.yul\":310:322   */\n      revert\n        /* \"#utility.yul\":334:483   */\n    tag_385:\n        /* \"#utility.yul\":370:377   */\n      0x00\n        /* \"#utility.yul\":410:476   */\n      0xffffffff00000000000000000000000000000000000000000000000000000000\n        /* \"#utility.yul\":403:408   */\n      dup3\n        /* \"#utility.yul\":399:477   */\n      and\n        /* \"#utility.yul\":388:477   */\n      swap1\n      pop\n        /* \"#utility.yul\":334:483   */\n      swap2\n      swap1\n      pop\n      jump\t// out\n        /* \"#utility.yul\":489:609   */\n    tag_386:\n        /* \"#utility.yul\":561:584   */\n      tag_440\n        /* \"#utility.yul\":578:583   */\n      dup2\n        /* \"#utility.yul\":561:584   */\n      tag_385\n      jump\t// in\n    tag_440:\n        /* \"#utility.yul\":554:559   */\n      dup2\n        /* \"#utility.yul\":551:585   */\n      eq\n        /* \"#utility.yul\":541:603   */\n      tag_441\n      jumpi\n        /* \"#utility.yul\":599:600   */\n      0x00\n        /* \"#utility.yul\":596:597   */\n      dup1\n        /* \"#utility.yul\":589:601   */\n      revert\n        /* \"#utility.yul\":541:603   */\n    tag_441:\n        /* \"#utility.yul\":489:609   */\n      pop\n      jump\t// out\n        /* \"#utility.yul\":615:752   */\n    tag_387:\n        /* \"#utility.yul\":660:665   */\n      0x00\n        /* \"#utility.yul\":698:704   */\n      dup2\n        /* \"#utility.yul\":685:705   */\n      calldataload\n        /* \"#utility.yul\":676:705   */\n      swap1\n      pop\n        /* \"#utility.yul\":714:746   */\n      tag_443\n        /* \"#utility.yul\":740:745   */\n      dup2\n        /* \"#utility.yul\":714:746   */\n      tag_386\n      jump\t// in\n    tag_443:\n        /* \"#utility.yul\":615:752   */\n      swap3\n      swap2\n      pop\n      pop\n      jump\t// out\n        /* \"#utility.yul\":758:1085   */\n    tag_34:\n        /* \"#utility.yul\":816:822   */\n      0x00\n        /* \"#utility.yul\":865:867   */\n      0x20\n        /* \"#utility.yul\":853:862   */\n      dup3\n        /* \"#utility.yul\":844:851   */\n      dup5\n        /* \"#utility.yul\":840:863   */\n      sub\n        /* \"#utility.yul\":836:868   */\n      slt\n        /* \"#utility.yul\":833:952   */\n      iszero\n      tag_445\n      jumpi\n        /* \"#utility.yul\":871:950   */\n      tag_446\n      tag_383\n      jump\t// in\n    tag_446:\n        /* \"#utility.yul\":833:952   */\n    tag_445:\n        /* \"#utility.yul\":991:992   */\n      0x00\n        /* \"#utility.yul\":1016:1068   */\n      tag_447\n        /* \"#utility.yul\":1060:1067   */\n      dup5\n        /* \"#utility.yul\":1051:1057   */\n      dup3\n        /* \"#utility.yul\":1040:1049   */\n      dup6\n        /* \"#utility.yul\":1036:1058   */\n      add\n        /* \"#utility.yul\":1016:1068   */\n      tag_387\n      jump\t// in\n    tag_447:\n        /* \"#utility.yul\":1006:1068   */\n      swap2\n      pop\n        /* \"#utility.yul\":962:1078   */\n      pop\n        /* \"#utility.yul\":758:1085   */\n      swap3\n      swap2\n      pop\n      pop\n      jump\t// out\n        /* \"#utility.yul\":1091:1181   */\n    tag_388:\n        /* \"#utility.yul\":1125:1132   */\n      0x00\n        /* \"#utility.yul\":1168:1173   */\n      dup2\n        /* \"#utility.yul\":1161:1174   */\n      iszero\n        /* \"#utility.yul\":1154:1175   */\n      iszero\n        /* \"#utility.yul\":1143:1175   */\n      swap1\n      pop\n        /* \"#utility.yul\":1091:1181   */\n      swap2\n      swap1\n      pop\n      jump\t// out\n        /* \"#utility.yul\":1187:1296   */\n    tag_389:\n        /* \"#utility.yul\":1268:1289   */\n      tag_450\n        /* \"#utility.yul\":1283:1288   */\n      dup2\n        /* \"#utility.yul\":1268:1289   */\n      tag_388\n      jump\t// in\n    tag_450:\n        /* \"#utility.yul\":1263:1266   */\n      dup3\n        /* \"#utility.yul\":1256:1290   */\n      mstore\n        /* \"#utility.yul\":1187:1296   */\n      pop\n      pop\n      jump\t// out\n        /* \"#utility.yul\":1302:1512   */\n    tag_37:\n        /* \"#utility.yul\":1389:1393   */\n      0x00\n        /* \"#utility.yul\":1427:1429   */\n      0x20\n        /* \"#utility.yul\":1416:1425   */\n      dup3\n        /* \"#utility.yul\":1412:1430   */\n      add\n        /* \"#utility.yul\":1404:1430   */\n      swap1\n      pop\n        /* \"#utility.yul\":1440:1505   */\n      tag_452\n        /* \"#utility.yul\":1502:1503   */\n      0x00\n        /* \"#utility.yul\":1491:1500   */\n      dup4\n        /* \"#utility.yul\":1487:1504   */\n      add\n        /* \"#utility.yul\":1478:1484   */\n      dup5\n        /* \"#utility.yul\":1440:1505   */\n      tag_389\n      jump\t// in\n    tag_452:\n        /* \"#utility.yul\":1302:1512   */\n      swap3\n      swap2\n      pop\n      pop\n      jump\t// out\n        /* \"#utility.yul\":1518:1617   */\n    tag_390:\n        /* \"#utility.yul\":1570:1576   */\n      0x00\n        /* \"#utility.yul\":1604:1609   */\n      dup2\n        /* \"#utility.yul\":1598:1610   */\n      mload\n        /* \"#utility.yul\":1588:1610   */\n      swap1\n      pop\n        /* \"#utility.yul\":1518:1617   */\n      swap2\n      swap1\n      pop\n      jump\t// out\n        /* \"#utility.yul\":1623:1792   */\n    tag_391:\n        /* \"#utility.yul\":1707:1718   */\n      0x00\n        /* \"#utility.yul\":1741:1747   */\n      dup3\n        /* \"#utility.yul\":1736:1739   */\n      dup3\n        /* \"#utility.yul\":1729:1748   */\n      mstore\n        /* \"#utility.yul\":1781:1785   */\n      0x20\n        /* \"#utility.yul\":1776:1779   */\n      dup3\n        /* \"#utility.yul\":1772:1786   */\n      add\n        /* \"#utility.yul\":1757:1786   */\n      swap1\n      pop\n        /* \"#utility.yul\":1623:1792   */\n      swap3\n      swap2\n      pop\n      pop\n      jump\t// out\n        /* \"#utility.yul\":1798:2044   */\n    tag_392:\n        /* \"#utility.yul\":1879:1880   */\n      0x00\n        /* \"#utility.yul\":1889:2002   */\n    tag_456:\n        /* \"#utility.yul\":1903:1909   */\n      dup4\n        /* \"#utility.yul\":1900:1901   */\n      dup2\n        /* \"#utility.yul\":1897:1910   */\n      lt\n        /* \"#utility.yul\":1889:2002   */\n      iszero\n      tag_458\n      jumpi\n        /* \"#utility.yul\":1988:1989   */\n      dup1\n        /* \"#utility.yul\":1983:1986   */\n      dup3\n        /* \"#utility.yul\":1979:1990   */\n      add\n        /* \"#utility.yul\":1973:1991   */\n      mload\n        /* \"#utility.yul\":1969:1970   */\n      dup2\n        /* \"#utility.yul\":1964:1967   */\n      dup5\n        /* \"#utility.yul\":1960:1971   */\n      add\n        /* \"#utility.yul\":1953:1992   */\n      mstore\n        /* \"#utility.yul\":1925:1927   */\n      0x20\n        /* \"#utility.yul\":1922:1923   */\n      dup2\n        /* \"#utility.yul\":1918:1928   */\n      add\n        /* \"#utility.yul\":1913:1928   */\n      swap1\n      pop\n        /* \"#utility.yul\":1889:2002   */\n      jump(tag_456)\n    tag_458:\n        /* \"#utility.yul\":2036:2037   */\n      0x00\n        /* \"#utility.yul\":2027:2033   */\n      dup5\n        /* \"#utility.yul\":2022:2025   */\n      dup5\n        /* \"#utility.yul\":2018:2034   */\n      add\n        /* \"#utility.yul\":2011:2038   */\n      mstore\n        /* \"#utility.yul\":1860:2044   */\n      pop\n        /* \"#utility.yul\":1798:2044   */\n      pop\n      pop\n      pop\n      jump\t// out\n        /* \"#utility.yul\":2050:2152   */\n    tag_393:\n        /* \"#utility.yul\":2091:2097   */\n      0x00\n        /* \"#utility.yul\":2142:2144   */\n      0x1f\n        /* \"#utility.yul\":2138:2145   */\n      not\n        /* \"#utility.yul\":2133:2135   */\n      0x1f\n        /* \"#utility.yul\":2126:2131   */\n      dup4\n        /* \"#utility.yul\":2122:2136   */\n      add\n        /* \"#utility.yul\":2118:2146   */\n      and\n        /* \"#utility.yul\":2108:2146   */\n      swap1\n      pop\n        /* \"#utility.yul\":2050:2152   */\n      swap2\n      swap1\n      pop\n      jump\t// out\n        /* \"#utility.yul\":2158:2535   */\n    tag_394:\n        /* \"#utility.yul\":2246:2249   */\n      0x00\n        /* \"#utility.yul\":2274:2313   */\n      tag_461\n        /* \"#utility.yul\":2307:2312   */\n      dup3\n        /* \"#utility.yul\":2274:2313   */\n      tag_390\n      jump\t// in\n    tag_461:\n        /* \"#utility.yul\":2329:2400   */\n      tag_462\n        /* \"#utility.yul\":2393:2399   */\n      dup2\n        /* \"#utility.yul\":2388:2391   */\n      dup6\n        /* \"#utility.yul\":2329:2400   */\n      tag_391\n      jump\t// in\n    tag_462:\n        /* \"#utility.yul\":2322:2400   */\n      swap4\n      pop\n        /* \"#utility.yul\":2409:2474   */\n      tag_463\n        /* \"#utility.yul\":2467:2473   */\n      dup2\n        /* \"#utility.yul\":2462:2465   */\n      dup6\n        /* \"#utility.yul\":2455:2459   */\n      0x20\n        /* \"#utility.yul\":2448:2453   */\n      dup7\n        /* \"#utility.yul\":2444:2460   */\n      add\n        /* \"#utility.yul\":2409:2474   */\n      tag_392\n      jump\t// in\n    tag_463:\n        /* \"#utility.yul\":2499:2528   */\n      tag_464\n        /* \"#utility.yul\":2521:2527   */\n      dup2\n        /* \"#utility.yul\":2499:2528   */\n      tag_393\n      jump\t// in\n    tag_464:\n        /* \"#utility.yul\":2494:2497   */\n      dup5\n        /* \"#utility.yul\":2490:2529   */\n      add\n        /* \"#utility.yul\":2483:2529   */\n      swap2\n      pop\n        /* \"#utility.yul\":2250:2535   */\n      pop\n        /* \"#utility.yul\":2158:2535   */\n      swap3\n      swap2\n      pop\n      pop\n      jump\t// out\n        /* \"#utility.yul\":2541:2854   */\n    tag_41:\n        /* \"#utility.yul\":2654:2658   */\n      0x00\n        /* \"#utility.yul\":2692:2694   */\n      0x20\n        /* \"#utility.yul\":2681:2690   */\n      dup3\n        /* \"#utility.yul\":2677:2695   */\n      add\n        /* \"#utility.yul\":2669:2695   */\n      swap1\n      pop\n        /* \"#utility.yul\":2741:2750   */\n      dup2\n        /* \"#utility.yul\":2735:2739   */\n      dup2\n        /* \"#utility.yul\":2731:2751   */\n      sub\n        /* \"#utility.yul\":2727:2728   */\n      0x00\n        /* \"#utility.yul\":2716:2725   */\n      dup4\n        /* \"#utility.yul\":2712:2729   */\n      add\n        /* \"#utility.yul\":2705:2752   */\n      mstore\n        /* \"#utility.yul\":2769:2847   */\n      tag_466\n        /* \"#utility.yul\":2842:2846   */\n      dup2\n        /* \"#utility.yul\":2833:2839   */\n      dup5\n        /* \"#utility.yul\":2769:2847   */\n      tag_394\n      jump\t// in\n    tag_466:\n        /* \"#utility.yul\":2761:2847   */\n      swap1\n      pop\n        /* \"#utility.yul\":2541:2854   */\n      swap3\n      swap2\n      pop\n      pop\n      jump\t// out\n        /* \"#utility.yul\":2860:2937   */\n    tag_395:\n        /* \"#utility.yul\":2897:2904   */\n      0x00\n        /* \"#utility.yul\":2926:2931   */\n      dup2\n        /* \"#utility.yul\":2915:2931   */\n      swap1\n      pop\n        /* \"#utility.yul\":2860:2937   */\n      swap2\n      swap1\n      pop\n      jump\t// out\n        /* \"#utility.yul\":2943:3065   */\n    tag_396:\n        /* \"#utility.yul\":3016:3040   */\n      tag_469\n        /* \"#utility.yul\":3034:3039   */\n      dup2\n        /* \"#utility.yul\":3016:3040   */\n      tag_395\n      jump\t// in\n    tag_469:\n        /* \"#utility.yul\":3009:3014   */\n      dup2\n        /* \"#utility.yul\":3006:3041   */\n      eq\n        /* \"#utility.yul\":2996:3059   */\n      tag_470\n      jumpi\n        /* \"#utility.yul\":3055:3056   */\n      0x00\n        /* \"#utility.yul\":3052:3053   */\n      dup1\n        /* \"#utility.yul\":3045:3057   */\n      revert\n        /* \"#utility.yul\":2996:3059   */\n    tag_470:\n        /* \"#utility.yul\":2943:3065   */\n      pop\n      jump\t// out\n        /* \"#utility.yul\":3071:3210   */\n    tag_397:\n        /* \"#utility.yul\":3117:3122   */\n      0x00\n        /* \"#utility.yul\":3155:3161   */\n      dup2\n        /* \"#utility.yul\":3142:3162   */\n      calldataload\n        /* \"#utility.yul\":3133:3162   */\n      swap1\n      pop\n        /* \"#utility.yul\":3171:3204   */\n      tag_472\n        /* \"#utility.yul\":3198:3203   */\n      dup2\n        /* \"#utility.yul\":3171:3204   */\n      tag_396\n      jump\t// in\n    tag_472:\n        /* \"#utility.yul\":3071:3210   */\n      swap3\n      swap2\n      pop\n      pop\n      jump\t// out\n        /* \"#utility.yul\":3216:3545   */\n    tag_44:\n        /* \"#utility.yul\":3275:3281   */\n      0x00\n        /* \"#utility.yul\":3324:3326   */\n      0x20\n        /* \"#utility.yul\":3312:3321   */\n      dup3\n        /* \"#utility.yul\":3303:3310   */\n      dup5\n        /* \"#utility.yul\":3299:3322   */\n      sub\n        /* \"#utility.yul\":3295:3327   */\n      slt\n        /* \"#utility.yul\":3292:3411   */\n      iszero\n      tag_474\n      jumpi\n        /* \"#utility.yul\":3330:3409   */\n      tag_475\n      tag_383\n      jump\t// in\n    tag_475:\n        /* \"#utility.yul\":3292:3411   */\n    tag_474:\n        /* \"#utility.yul\":3450:3451   */\n      0x00\n        /* \"#utility.yul\":3475:3528   */\n      tag_476\n        /* \"#utility.yul\":3520:3527   */\n      dup5\n        /* \"#utility.yul\":3511:3517   */\n      dup3\n        /* \"#utility.yul\":3500:3509   */\n      dup6\n        /* \"#utility.yul\":3496:3518   */\n      add\n        /* \"#utility.yul\":3475:3528   */\n      tag_397\n      jump\t// in\n    tag_476:\n        /* \"#utility.yul\":3465:3528   */\n      swap2\n      pop\n        /* \"#utility.yul\":3421:3538   */\n      pop\n        /* \"#utility.yul\":3216:3545   */\n      swap3\n      swap2\n      pop\n      pop\n      jump\t// out\n        /* \"#utility.yul\":3551:3677   */\n    tag_398:\n        /* \"#utility.yul\":3588:3595   */\n      0x00\n        /* \"#utility.yul\":3628:3670   */\n      0xffffffffffffffffffffffffffffffffffffffff\n        /* \"#utility.yul\":3621:3626   */\n      dup3\n        /* \"#utility.yul\":3617:3671   */\n      and\n        /* \"#utility.yul\":3606:3671   */\n      swap1\n      pop\n        /* \"#utility.yul\":3551:3677   */\n      swap2\n      swap1\n      pop\n      jump\t// out\n        /* \"#utility.yul\":3683:3779   */\n    tag_399:\n        /* \"#utility.yul\":3720:3727   */\n      0x00\n        /* \"#utility.yul\":3749:3773   */\n      tag_479\n        /* \"#utility.yul\":3767:3772   */\n      dup3\n        /* \"#utility.yul\":3749:3773   */\n      tag_398\n      jump\t// in\n    tag_479:\n        /* \"#utility.yul\":3738:3773   */\n      swap1\n      pop\n        /* \"#utility.yul\":3683:3779   */\n      swap2\n      swap1\n      pop\n      jump\t// out\n        /* \"#utility.yul\":3785:3903   */\n    tag_400:\n        /* \"#utility.yul\":3872:3896   */\n      tag_481\n        /* \"#utility.yul\":3890:3895   */\n      dup2\n        /* \"#utility.yul\":3872:3896   */\n      tag_399\n      jump\t// in\n    tag_481:\n        /* \"#utility.yul\":3867:3870   */\n      dup3\n        /* \"#utility.yul\":3860:3897   */\n      mstore\n        /* \"#utility.yul\":3785:3903   */\n      pop\n      pop\n      jump\t// out\n        /* \"#utility.yul\":3909:4131   */\n    tag_47:\n        /* \"#utility.yul\":4002:4006   */\n      0x00\n        /* \"#utility.yul\":4040:4042   */\n      0x20\n        /* \"#utility.yul\":4029:4038   */\n      dup3\n        /* \"#utility.yul\":4025:4043   */\n      add\n        /* \"#utility.yul\":4017:4043   */\n      swap1\n      pop\n        /* \"#utility.yul\":4053:4124   */\n      tag_483\n        /* \"#utility.yul\":4121:4122   */\n      0x00\n        /* \"#utility.yul\":4110:4119   */\n      dup4\n        /* \"#utility.yul\":4106:4123   */\n      add\n        /* \"#utility.yul\":4097:4103   */\n      dup5\n        /* \"#utility.yul\":4053:4124   */\n      tag_400\n      jump\t// in\n    tag_483:\n        /* \"#utility.yul\":3909:4131   */\n      swap3\n      swap2\n      pop\n      pop\n      jump\t// out\n        /* \"#utility.yul\":4137:4259   */\n    tag_401:\n        /* \"#utility.yul\":4210:4234   */\n      tag_485\n        /* \"#utility.yul\":4228:4233   */\n      dup2\n        /* \"#utility.yul\":4210:4234   */\n      tag_399\n      jump\t// in\n    tag_485:\n        /* \"#utility.yul\":4203:4208   */\n      dup2\n        /* \"#utility.yul\":4200:4235   */\n      eq\n        /* \"#utility.yul\":4190:4253   */\n      tag_486\n      jumpi\n        /* \"#utility.yul\":4249:4250   */\n      0x00\n        /* \"#utility.yul\":4246:4247   */\n      dup1\n        /* \"#utility.yul\":4239:4251   */\n      revert\n        /* \"#utility.yul\":4190:4253   */\n    tag_486:\n        /* \"#utility.yul\":4137:4259   */\n      pop\n      jump\t// out\n        /* \"#utility.yul\":4265:4404   */\n    tag_402:\n        /* \"#utility.yul\":4311:4316   */\n      0x00\n        /* \"#utility.yul\":4349:4355   */\n      dup2\n        /* \"#utility.yul\":4336:4356   */\n      calldataload\n        /* \"#utility.yul\":4327:4356   */\n      swap1\n      pop\n        /* \"#utility.yul\":4365:4398   */\n      tag_488\n        /* \"#utility.yul\":4392:4397   */\n      dup2\n        /* \"#utility.yul\":4365:4398   */\n      tag_401\n      jump\t// in\n    tag_488:\n        /* \"#utility.yul\":4265:4404   */\n      swap3\n      swap2\n      pop\n      pop\n      jump\t// out\n        /* \"#utility.yul\":4410:4884   */\n    tag_50:\n        /* \"#utility.yul\":4478:4484   */\n      0x00\n        /* \"#utility.yul\":4486:4492   */\n      dup1\n        /* \"#utility.yul\":4535:4537   */\n      0x40\n        /* \"#utility.yul\":4523:4532   */\n      dup4\n        /* \"#utility.yul\":4514:4521   */\n      dup6\n        /* \"#utility.yul\":4510:4533   */\n      sub\n        /* \"#utility.yul\":4506:4538   */\n      slt\n        /* \"#utility.yul\":4503:4622   */\n      iszero\n      tag_490\n      jumpi\n        /* \"#utility.yul\":4541:4620   */\n      tag_491\n      tag_383\n      jump\t// in\n    tag_491:\n        /* \"#utility.yul\":4503:4622   */\n    tag_490:\n        /* \"#utility.yul\":4661:4662   */\n      0x00\n        /* \"#utility.yul\":4686:4739   */\n      tag_492\n        /* \"#utility.yul\":4731:4738   */\n      dup6\n        /* \"#utility.yul\":4722:4728   */\n      dup3\n        /* \"#utility.yul\":4711:4720   */\n      dup7\n        /* \"#utility.yul\":4707:4729   */\n      add\n        /* \"#utility.yul\":4686:4739   */\n      tag_402\n      jump\t// in\n    tag_492:\n        /* \"#utility.yul\":4676:4739   */\n      swap3\n      pop\n        /* \"#utility.yul\":4632:4749   */\n      pop\n        /* \"#utility.yul\":4788:4790   */\n      0x20\n        /* \"#utility.yul\":4814:4867   */\n      tag_493\n        /* \"#utility.yul\":4859:4866   */\n      dup6\n        /* \"#utility.yul\":4850:4856   */\n      dup3\n        /* \"#utility.yul\":4839:4848   */\n      dup7\n        /* \"#utility.yul\":4835:4857   */\n      add\n        /* \"#utility.yul\":4814:4867   */\n      tag_397\n      jump\t// in\n    tag_493:\n        /* \"#utility.yul\":4804:4867   */\n      swap2\n      pop\n        /* \"#utility.yul\":4759:4877   */\n      pop\n        /* \"#utility.yul\":4410:4884   */\n      swap3\n      pop\n      swap3\n      swap1\n      pop\n      jump\t// out\n        /* \"#utility.yul\":4890:5509   */\n    tag_54:\n        /* \"#utility.yul\":4967:4973   */\n      0x00\n        /* \"#utility.yul\":4975:4981   */\n      dup1\n        /* \"#utility.yul\":4983:4989   */\n      0x00\n        /* \"#utility.yul\":5032:5034   */\n      0x60\n        /* \"#utility.yul\":5020:5029   */\n      dup5\n        /* \"#utility.yul\":5011:5018   */\n      dup7\n        /* \"#utility.yul\":5007:5030   */\n      sub\n        /* \"#utility.yul\":5003:5035   */\n      slt\n        /* \"#utility.yul\":5000:5119   */\n      iszero\n      tag_495\n      jumpi\n        /* \"#utility.yul\":5038:5117   */\n      tag_496\n      tag_383\n      jump\t// in\n    tag_496:\n        /* \"#utility.yul\":5000:5119   */\n    tag_495:\n        /* \"#utility.yul\":5158:5159   */\n      0x00\n        /* \"#utility.yul\":5183:5236   */\n      tag_497\n        /* \"#utility.yul\":5228:5235   */\n      dup7\n        /* \"#utility.yul\":5219:5225   */\n      dup3\n        /* \"#utility.yul\":5208:5217   */\n      dup8\n        /* \"#utility.yul\":5204:5226   */\n      add\n        /* \"#utility.yul\":5183:5236   */\n      tag_402\n      jump\t// in\n    tag_497:\n        /* \"#utility.yul\":5173:5236   */\n      swap4\n      pop\n        /* \"#utility.yul\":5129:5246   */\n      pop\n        /* \"#utility.yul\":5285:5287   */\n      0x20\n        /* \"#utility.yul\":5311:5364   */\n      tag_498\n        /* \"#utility.yul\":5356:5363   */\n      dup7\n        /* \"#utility.yul\":5347:5353   */\n      dup3\n        /* \"#utility.yul\":5336:5345   */\n      dup8\n        /* \"#utility.yul\":5332:5354   */\n      add\n        /* \"#utility.yul\":5311:5364   */\n      tag_402\n      jump\t// in\n    tag_498:\n        /* \"#utility.yul\":5301:5364   */\n      swap3\n      pop\n        /* \"#utility.yul\":5256:5374   */\n      pop\n        /* \"#utility.yul\":5413:5415   */\n      0x40\n        /* \"#utility.yul\":5439:5492   */\n      tag_499\n        /* \"#utility.yul\":5484:5491   */\n      dup7\n        /* \"#utility.yul\":5475:5481   */\n      dup3\n        /* \"#utility.yul\":5464:5473   */\n      dup8\n        /* \"#utility.yul\":5460:5482   */\n      add\n        /* \"#utility.yul\":5439:5492   */\n      tag_397\n      jump\t// in\n    tag_499:\n        /* \"#utility.yul\":5429:5492   */\n      swap2\n      pop\n        /* \"#utility.yul\":5384:5502   */\n      pop\n        /* \"#utility.yul\":4890:5509   */\n      swap3\n      pop\n      swap3\n      pop\n      swap3\n      jump\t// out\n        /* \"#utility.yul\":5515:5633   */\n    tag_403:\n        /* \"#utility.yul\":5602:5626   */\n      tag_501\n        /* \"#utility.yul\":5620:5625   */\n      dup2\n        /* \"#utility.yul\":5602:5626   */\n      tag_395\n      jump\t// in\n    tag_501:\n        /* \"#utility.yul\":5597:5600   */\n      dup3\n        /* \"#utility.yul\":5590:5627   */\n      mstore\n        /* \"#utility.yul\":5515:5633   */\n      pop\n      pop\n      jump\t// out\n        /* \"#utility.yul\":5639:5861   */\n    tag_59:\n        /* \"#utility.yul\":5732:5736   */\n      0x00\n        /* \"#utility.yul\":5770:5772   */\n      0x20\n        /* \"#utility.yul\":5759:5768   */\n      dup3\n        /* \"#utility.yul\":5755:5773   */\n      add\n        /* \"#utility.yul\":5747:5773   */\n      swap1\n      pop\n        /* \"#utility.yul\":5783:5854   */\n      tag_503\n        /* \"#utility.yul\":5851:5852   */\n      0x00\n        /* \"#utility.yul\":5840:5849   */\n      dup4\n        /* \"#utility.yul\":5836:5853   */\n      add\n        /* \"#utility.yul\":5827:5833   */\n      dup5\n        /* \"#utility.yul\":5783:5854   */\n      tag_403\n      jump\t// in\n    tag_503:\n        /* \"#utility.yul\":5639:5861   */\n      swap3\n      swap2\n      pop\n      pop\n      jump\t// out\n        /* \"#utility.yul\":5867:6196   */\n    tag_73:\n        /* \"#utility.yul\":5926:5932   */\n      0x00\n        /* \"#utility.yul\":5975:5977   */\n      0x20\n        /* \"#utility.yul\":5963:5972   */\n      dup3\n        /* \"#utility.yul\":5954:5961   */\n      dup5\n        /* \"#utility.yul\":5950:5973   */\n      sub\n        /* \"#utility.yul\":5946:5978   */\n      slt\n        /* \"#utility.yul\":5943:6062   */\n      iszero\n      tag_505\n      jumpi\n        /* \"#utility.yul\":5981:6060   */\n      tag_506\n      tag_383\n      jump\t// in\n    tag_506:\n        /* \"#utility.yul\":5943:6062   */\n    tag_505:\n        /* \"#utility.yul\":6101:6102   */\n      0x00\n        /* \"#utility.yul\":6126:6179   */\n      tag_507\n        /* \"#utility.yul\":6171:6178   */\n      dup5\n        /* \"#utility.yul\":6162:6168   */\n      dup3\n        /* \"#utility.yul\":6151:6160   */\n      dup6\n        /* \"#utility.yul\":6147:6169   */\n      add\n        /* \"#utility.yul\":6126:6179   */\n      tag_402\n      jump\t// in\n    tag_507:\n        /* \"#utility.yul\":6116:6179   */\n      swap2\n      pop\n        /* \"#utility.yul\":6072:6189   */\n      pop\n        /* \"#utility.yul\":5867:6196   */\n      swap3\n      swap2\n      pop\n      pop\n      jump\t// out\n        /* \"#utility.yul\":6202:6821   */\n    tag_91:\n        /* \"#utility.yul\":6279:6285   */\n      0x00\n        /* \"#utility.yul\":6287:6293   */\n      dup1\n        /* \"#utility.yul\":6295:6301   */\n      0x00\n        /* \"#utility.yul\":6344:6346   */\n      0x60\n        /* \"#utility.yul\":6332:6341   */\n      dup5\n        /* \"#utility.yul\":6323:6330   */\n      dup7\n        /* \"#utility.yul\":6319:6342   */\n      sub\n        /* \"#utility.yul\":6315:6347   */\n      slt\n        /* \"#utility.yul\":6312:6431   */\n      iszero\n      tag_509\n      jumpi\n        /* \"#utility.yul\":6350:6429   */\n      tag_510\n      tag_383\n      jump\t// in\n    tag_510:\n        /* \"#utility.yul\":6312:6431   */\n    tag_509:\n        /* \"#utility.yul\":6470:6471   */\n      0x00\n        /* \"#utility.yul\":6495:6548   */\n      tag_511\n        /* \"#utility.yul\":6540:6547   */\n      dup7\n        /* \"#utility.yul\":6531:6537   */\n      dup3\n        /* \"#utility.yul\":6520:6529   */\n      dup8\n        /* \"#utility.yul\":6516:6538   */\n      add\n        /* \"#utility.yul\":6495:6548   */\n      tag_397\n      jump\t// in\n    tag_511:\n        /* \"#utility.yul\":6485:6548   */\n      swap4\n      pop\n        /* \"#utility.yul\":6441:6558   */\n      pop\n        /* \"#utility.yul\":6597:6599   */\n      0x20\n        /* \"#utility.yul\":6623:6676   */\n      tag_512\n        /* \"#utility.yul\":6668:6675   */\n      dup7\n        /* \"#utility.yul\":6659:6665   */\n      dup3\n        /* \"#utility.yul\":6648:6657   */\n      dup8\n        /* \"#utility.yul\":6644:6666   */\n      add\n        /* \"#utility.yul\":6623:6676   */\n      tag_397\n      jump\t// in\n    tag_512:\n        /* \"#utility.yul\":6613:6676   */\n      swap3\n      pop\n        /* \"#utility.yul\":6568:6686   */\n      pop\n        /* \"#utility.yul\":6725:6727   */\n      0x40\n        /* \"#utility.yul\":6751:6804   */\n      tag_513\n        /* \"#utility.yul\":6796:6803   */\n      dup7\n        /* \"#utility.yul\":6787:6793   */\n      dup3\n        /* \"#utility.yul\":6776:6785   */\n      dup8\n        /* \"#utility.yul\":6772:6794   */\n      add\n        /* \"#utility.yul\":6751:6804   */\n      tag_402\n      jump\t// in\n    tag_513:\n        /* \"#utility.yul\":6741:6804   */\n      swap2\n      pop\n        /* \"#utility.yul\":6696:6814   */\n      pop\n        /* \"#utility.yul\":6202:6821   */\n      swap3\n      pop\n      swap3\n      pop\n      swap3\n      jump\t// out\n        /* \"#utility.yul\":6827:6943   */\n    tag_404:\n        /* \"#utility.yul\":6897:6918   */\n      tag_515\n        /* \"#utility.yul\":6912:6917   */\n      dup2\n        /* \"#utility.yul\":6897:6918   */\n      tag_388\n      jump\t// in\n    tag_515:\n        /* \"#utility.yul\":6890:6895   */\n      dup2\n        /* \"#utility.yul\":6887:6919   */\n      eq\n        /* \"#utility.yul\":6877:6937   */\n      tag_516\n      jumpi\n        /* \"#utility.yul\":6933:6934   */\n      0x00\n        /* \"#utility.yul\":6930:6931   */\n      dup1\n        /* \"#utility.yul\":6923:6935   */\n      revert\n        /* \"#utility.yul\":6877:6937   */\n    tag_516:\n        /* \"#utility.yul\":6827:6943   */\n      pop\n      jump\t// out\n        /* \"#utility.yul\":6949:7082   */\n    tag_405:\n        /* \"#utility.yul\":6992:6997   */\n      0x00\n        /* \"#utility.yul\":7030:7036   */\n      dup2\n        /* \"#utility.yul\":7017:7037   */\n      calldataload\n        /* \"#utility.yul\":7008:7037   */\n      swap1\n      pop\n        /* \"#utility.yul\":7046:7076   */\n      tag_518\n        /* \"#utility.yul\":7070:7075   */\n      dup2\n        /* \"#utility.yul\":7046:7076   */\n      tag_404\n      jump\t// in\n    tag_518:\n        /* \"#utility.yul\":6949:7082   */\n      swap3\n      swap2\n      pop\n      pop\n      jump\t// out\n        /* \"#utility.yul\":7088:7556   */\n    tag_104:\n        /* \"#utility.yul\":7153:7159   */\n      0x00\n        /* \"#utility.yul\":7161:7167   */\n      dup1\n        /* \"#utility.yul\":7210:7212   */\n      0x40\n        /* \"#utility.yul\":7198:7207   */\n      dup4\n        /* \"#utility.yul\":7189:7196   */\n      dup6\n        /* \"#utility.yul\":7185:7208   */\n      sub\n        /* \"#utility.yul\":7181:7213   */\n      slt\n        /* \"#utility.yul\":7178:7297   */\n      iszero\n      tag_520\n      jumpi\n        /* \"#utility.yul\":7216:7295   */\n      tag_521\n      tag_383\n      jump\t// in\n    tag_521:\n        /* \"#utility.yul\":7178:7297   */\n    tag_520:\n        /* \"#utility.yul\":7336:7337   */\n      0x00\n        /* \"#utility.yul\":7361:7414   */\n      tag_522\n        /* \"#utility.yul\":7406:7413   */\n      dup6\n        /* \"#utility.yul\":7397:7403   */\n      dup3\n        /* \"#utility.yul\":7386:7395   */\n      dup7\n        /* \"#utility.yul\":7382:7404   */\n      add\n        /* \"#utility.yul\":7361:7414   */\n      tag_402\n      jump\t// in\n    tag_522:\n        /* \"#utility.yul\":7351:7414   */\n      swap3\n      pop\n        /* \"#utility.yul\":7307:7424   */\n      pop\n        /* \"#utility.yul\":7463:7465   */\n      0x20\n        /* \"#utility.yul\":7489:7539   */\n      tag_523\n        /* \"#utility.yul\":7531:7538   */\n      dup6\n        /* \"#utility.yul\":7522:7528   */\n      dup3\n        /* \"#utility.yul\":7511:7520   */\n      dup7\n        /* \"#utility.yul\":7507:7529   */\n      add\n        /* \"#utility.yul\":7489:7539   */\n      tag_405\n      jump\t// in\n    tag_523:\n        /* \"#utility.yul\":7479:7539   */\n      swap2\n      pop\n        /* \"#utility.yul\":7434:7549   */\n      pop\n        /* \"#utility.yul\":7088:7556   */\n      swap3\n      pop\n      swap3\n      swap1\n      pop\n      jump\t// out\n        /* \"#utility.yul\":7562:7679   */\n    tag_406:\n        /* \"#utility.yul\":7671:7672   */\n      0x00\n        /* \"#utility.yul\":7668:7669   */\n      dup1\n        /* \"#utility.yul\":7661:7673   */\n      revert\n        /* \"#utility.yul\":7685:7802   */\n    tag_407:\n        /* \"#utility.yul\":7794:7795   */\n      0x00\n        /* \"#utility.yul\":7791:7792   */\n      dup1\n        /* \"#utility.yul\":7784:7796   */\n      revert\n        /* \"#utility.yul\":7808:7988   */\n    tag_348:\n        /* \"#utility.yul\":7856:7933   */\n      0x4e487b7100000000000000000000000000000000000000000000000000000000\n        /* \"#utility.yul\":7853:7854   */\n      0x00\n        /* \"#utility.yul\":7846:7934   */\n      mstore\n        /* \"#utility.yul\":7953:7957   */\n      0x41\n        /* \"#utility.yul\":7950:7951   */\n      0x04\n        /* \"#utility.yul\":7943:7958   */\n      mstore\n        /* \"#utility.yul\":7977:7981   */\n      0x24\n        /* \"#utility.yul\":7974:7975   */\n      0x00\n        /* \"#utility.yul\":7967:7982   */\n      revert\n        /* \"#utility.yul\":7994:8275   */\n    tag_408:\n        /* \"#utility.yul\":8077:8104   */\n      tag_528\n        /* \"#utility.yul\":8099:8103   */\n      dup3\n        /* \"#utility.yul\":8077:8104   */\n      tag_393\n      jump\t// in\n    tag_528:\n        /* \"#utility.yul\":8069:8075   */\n      dup2\n        /* \"#utility.yul\":8065:8105   */\n      add\n        /* \"#utility.yul\":8207:8213   */\n      dup2\n        /* \"#utility.yul\":8195:8205   */\n      dup2\n        /* \"#utility.yul\":8192:8214   */\n      lt\n        /* \"#utility.yul\":8171:8189   */\n      0xffffffffffffffff\n        /* \"#utility.yul\":8159:8169   */\n      dup3\n        /* \"#utility.yul\":8156:8190   */\n      gt\n        /* \"#utility.yul\":8153:8215   */\n      or\n        /* \"#utility.yul\":8150:8238   */\n      iszero\n      tag_529\n      jumpi\n        /* \"#utility.yul\":8218:8236   */\n      tag_530\n      tag_348\n      jump\t// in\n    tag_530:\n        /* \"#utility.yul\":8150:8238   */\n    tag_529:\n        /* \"#utility.yul\":8258:8268   */\n      dup1\n        /* \"#utility.yul\":8254:8256   */\n      0x40\n        /* \"#utility.yul\":8247:8269   */\n      mstore\n        /* \"#utility.yul\":8037:8275   */\n      pop\n        /* \"#utility.yul\":7994:8275   */\n      pop\n      pop\n      jump\t// out\n        /* \"#utility.yul\":8281:8410   */\n    tag_409:\n        /* \"#utility.yul\":8315:8321   */\n      0x00\n        /* \"#utility.yul\":8342:8362   */\n      tag_532\n      tag_382\n      jump\t// in\n    tag_532:\n        /* \"#utility.yul\":8332:8362   */\n      swap1\n      pop\n        /* \"#utility.yul\":8371:8404   */\n      tag_533\n        /* \"#utility.yul\":8399:8403   */\n      dup3\n        /* \"#utility.yul\":8391:8397   */\n      dup3\n        /* \"#utility.yul\":8371:8404   */\n      tag_408\n      jump\t// in\n    tag_533:\n        /* \"#utility.yul\":8281:8410   */\n      swap2\n      swap1\n      pop\n      jump\t// out\n        /* \"#utility.yul\":8416:8723   */\n    tag_410:\n        /* \"#utility.yul\":8477:8481   */\n      0x00\n        /* \"#utility.yul\":8567:8585   */\n      0xffffffffffffffff\n        /* \"#utility.yul\":8559:8565   */\n      dup3\n        /* \"#utility.yul\":8556:8586   */\n      gt\n        /* \"#utility.yul\":8553:8609   */\n      iszero\n      tag_535\n      jumpi\n        /* \"#utility.yul\":8589:8607   */\n      tag_536\n      tag_348\n      jump\t// in\n    tag_536:\n        /* \"#utility.yul\":8553:8609   */\n    tag_535:\n        /* \"#utility.yul\":8627:8656   */\n      tag_537\n        /* \"#utility.yul\":8649:8655   */\n      dup3\n        /* \"#utility.yul\":8627:8656   */\n      tag_393\n      jump\t// in\n    tag_537:\n        /* \"#utility.yul\":8619:8656   */\n      swap1\n      pop\n        /* \"#utility.yul\":8711:8715   */\n      0x20\n        /* \"#utility.yul\":8705:8709   */\n      dup2\n        /* \"#utility.yul\":8701:8716   */\n      add\n        /* \"#utility.yul\":8693:8716   */\n      swap1\n      pop\n        /* \"#utility.yul\":8416:8723   */\n      swap2\n      swap1\n      pop\n      jump\t// out\n        /* \"#utility.yul\":8729:8875   */\n    tag_411:\n        /* \"#utility.yul\":8826:8832   */\n      dup3\n        /* \"#utility.yul\":8821:8824   */\n      dup2\n        /* \"#utility.yul\":8816:8819   */\n      dup4\n        /* \"#utility.yul\":8803:8833   */\n      calldatacopy\n        /* \"#utility.yul\":8867:8868   */\n      0x00\n        /* \"#utility.yul\":8858:8864   */\n      dup4\n        /* \"#utility.yul\":8853:8856   */\n      dup4\n        /* \"#utility.yul\":8849:8865   */\n      add\n        /* \"#utility.yul\":8842:8869   */\n      mstore\n        /* \"#utility.yul\":8729:8875   */\n      pop\n      pop\n      pop\n      jump\t// out\n        /* \"#utility.yul\":8881:9304   */\n    tag_412:\n        /* \"#utility.yul\":8958:8963   */\n      0x00\n        /* \"#utility.yul\":8983:9048   */\n      tag_540\n        /* \"#utility.yul\":8999:9047   */\n      tag_541\n        /* \"#utility.yul\":9040:9046   */\n      dup5\n        /* \"#utility.yul\":8999:9047   */\n      tag_410\n      jump\t// in\n    tag_541:\n        /* \"#utility.yul\":8983:9048   */\n      tag_409\n      jump\t// in\n    tag_540:\n        /* \"#utility.yul\":8974:9048   */\n      swap1\n      pop\n        /* \"#utility.yul\":9071:9077   */\n      dup3\n        /* \"#utility.yul\":9064:9069   */\n      dup2\n        /* \"#utility.yul\":9057:9078   */\n      mstore\n        /* \"#utility.yul\":9109:9113   */\n      0x20\n        /* \"#utility.yul\":9102:9107   */\n      dup2\n        /* \"#utility.yul\":9098:9114   */\n      add\n        /* \"#utility.yul\":9147:9150   */\n      dup5\n        /* \"#utility.yul\":9138:9144   */\n      dup5\n        /* \"#utility.yul\":9133:9136   */\n      dup5\n        /* \"#utility.yul\":9129:9145   */\n      add\n        /* \"#utility.yul\":9126:9151   */\n      gt\n        /* \"#utility.yul\":9123:9235   */\n      iszero\n      tag_542\n      jumpi\n        /* \"#utility.yul\":9154:9233   */\n      tag_543\n      tag_407\n      jump\t// in\n    tag_543:\n        /* \"#utility.yul\":9123:9235   */\n    tag_542:\n        /* \"#utility.yul\":9244:9298   */\n      tag_544\n        /* \"#utility.yul\":9291:9297   */\n      dup5\n        /* \"#utility.yul\":9286:9289   */\n      dup3\n        /* \"#utility.yul\":9281:9284   */\n      dup6\n        /* \"#utility.yul\":9244:9298   */\n      tag_411\n      jump\t// in\n    tag_544:\n        /* \"#utility.yul\":8964:9304   */\n      pop\n        /* \"#utility.yul\":8881:9304   */\n      swap4\n      swap3\n      pop\n      pop\n      pop\n      jump\t// out\n        /* \"#utility.yul\":9323:9661   */\n    tag_413:\n        /* \"#utility.yul\":9378:9383   */\n      0x00\n        /* \"#utility.yul\":9427:9430   */\n      dup3\n        /* \"#utility.yul\":9420:9424   */\n      0x1f\n        /* \"#utility.yul\":9412:9418   */\n      dup4\n        /* \"#utility.yul\":9408:9425   */\n      add\n        /* \"#utility.yul\":9404:9431   */\n      slt\n        /* \"#utility.yul\":9394:9516   */\n      tag_546\n      jumpi\n        /* \"#utility.yul\":9435:9514   */\n      tag_547\n      tag_406\n      jump\t// in\n    tag_547:\n        /* \"#utility.yul\":9394:9516   */\n    tag_546:\n        /* \"#utility.yul\":9552:9558   */\n      dup2\n        /* \"#utility.yul\":9539:9559   */\n      calldataload\n        /* \"#utility.yul\":9577:9655   */\n      tag_548\n        /* \"#utility.yul\":9651:9654   */\n      dup5\n        /* \"#utility.yul\":9643:9649   */\n      dup3\n        /* \"#utility.yul\":9636:9640   */\n      0x20\n        /* \"#utility.yul\":9628:9634   */\n      dup7\n        /* \"#utility.yul\":9624:9641   */\n      add\n        /* \"#utility.yul\":9577:9655   */\n      tag_412\n      jump\t// in\n    tag_548:\n        /* \"#utility.yul\":9568:9655   */\n      swap2\n      pop\n        /* \"#utility.yul\":9384:9661   */\n      pop\n        /* \"#utility.yul\":9323:9661   */\n      swap3\n      swap2\n      pop\n      pop\n      jump\t// out\n        /* \"#utility.yul\":9667:10610   */\n    tag_108:\n        /* \"#utility.yul\":9762:9768   */\n      0x00\n        /* \"#utility.yul\":9770:9776   */\n      dup1\n        /* \"#utility.yul\":9778:9784   */\n      0x00\n        /* \"#utility.yul\":9786:9792   */\n      dup1\n        /* \"#utility.yul\":9835:9838   */\n      0x80\n        /* \"#utility.yul\":9823:9832   */\n      dup6\n        /* \"#utility.yul\":9814:9821   */\n      dup8\n        /* \"#utility.yul\":9810:9833   */\n      sub\n        /* \"#utility.yul\":9806:9839   */\n      slt\n        /* \"#utility.yul\":9803:9923   */\n      iszero\n      tag_550\n      jumpi\n        /* \"#utility.yul\":9842:9921   */\n      tag_551\n      tag_383\n      jump\t// in\n    tag_551:\n        /* \"#utility.yul\":9803:9923   */\n    tag_550:\n        /* \"#utility.yul\":9962:9963   */\n      0x00\n        /* \"#utility.yul\":9987:10040   */\n      tag_552\n        /* \"#utility.yul\":10032:10039   */\n      dup8\n        /* \"#utility.yul\":10023:10029   */\n      dup3\n        /* \"#utility.yul\":10012:10021   */\n      dup9\n        /* \"#utility.yul\":10008:10030   */\n      add\n        /* \"#utility.yul\":9987:10040   */\n      tag_402\n      jump\t// in\n    tag_552:\n        /* \"#utility.yul\":9977:10040   */\n      swap5\n      pop\n        /* \"#utility.yul\":9933:10050   */\n      pop\n        /* \"#utility.yul\":10089:10091   */\n      0x20\n        /* \"#utility.yul\":10115:10168   */\n      tag_553\n        /* \"#utility.yul\":10160:10167   */\n      dup8\n        /* \"#utility.yul\":10151:10157   */\n      dup3\n        /* \"#utility.yul\":10140:10149   */\n      dup9\n        /* \"#utility.yul\":10136:10158   */\n      add\n        /* \"#utility.yul\":10115:10168   */\n      tag_402\n      jump\t// in\n    tag_553:\n        /* \"#utility.yul\":10105:10168   */\n      swap4\n      pop\n        /* \"#utility.yul\":10060:10178   */\n      pop\n        /* \"#utility.yul\":10217:10219   */\n      0x40\n        /* \"#utility.yul\":10243:10296   */\n      tag_554\n        /* \"#utility.yul\":10288:10295   */\n      dup8\n        /* \"#utility.yul\":10279:10285   */\n      dup3\n        /* \"#utility.yul\":10268:10277   */\n      dup9\n        /* \"#utility.yul\":10264:10286   */\n      add\n        /* \"#utility.yul\":10243:10296   */\n      tag_397\n      jump\t// in\n    tag_554:\n        /* \"#utility.yul\":10233:10296   */\n      swap3\n      pop\n        /* \"#utility.yul\":10188:10306   */\n      pop\n        /* \"#utility.yul\":10373:10375   */\n      0x60\n        /* \"#utility.yul\":10362:10371   */\n      dup6\n        /* \"#utility.yul\":10358:10376   */\n      add\n        /* \"#utility.yul\":10345:10377   */\n      calldataload\n        /* \"#utility.yul\":10404:10422   */\n      0xffffffffffffffff\n        /* \"#utility.yul\":10396:10402   */\n      dup2\n        /* \"#utility.yul\":10393:10423   */\n      gt\n        /* \"#utility.yul\":10390:10507   */\n      iszero\n      tag_555\n      jumpi\n        /* \"#utility.yul\":10426:10505   */\n      tag_556\n      tag_384\n      jump\t// in\n    tag_556:\n        /* \"#utility.yul\":10390:10507   */\n    tag_555:\n        /* \"#utility.yul\":10531:10593   */\n      tag_557\n        /* \"#utility.yul\":10585:10592   */\n      dup8\n        /* \"#utility.yul\":10576:10582   */\n      dup3\n        /* \"#utility.yul\":10565:10574   */\n      dup9\n        /* \"#utility.yul\":10561:10583   */\n      add\n        /* \"#utility.yul\":10531:10593   */\n      tag_413\n      jump\t// in\n    tag_557:\n        /* \"#utility.yul\":10521:10593   */\n      swap2\n      pop\n        /* \"#utility.yul\":10316:10603   */\n      pop\n        /* \"#utility.yul\":9667:10610   */\n      swap3\n      swap6\n      swap2\n      swap5\n      pop\n      swap3\n      pop\n      jump\t// out\n        /* \"#utility.yul\":10616:11090   */\n    tag_120:\n        /* \"#utility.yul\":10684:10690   */\n      0x00\n        /* \"#utility.yul\":10692:10698   */\n      dup1\n        /* \"#utility.yul\":10741:10743   */\n      0x40\n        /* \"#utility.yul\":10729:10738   */\n      dup4\n        /* \"#utility.yul\":10720:10727   */\n      dup6\n        /* \"#utility.yul\":10716:10739   */\n      sub\n        /* \"#utility.yul\":10712:10744   */\n      slt\n        /* \"#utility.yul\":10709:10828   */\n      iszero\n      tag_559\n      jumpi\n        /* \"#utility.yul\":10747:10826   */\n      tag_560\n      tag_383\n      jump\t// in\n    tag_560:\n        /* \"#utility.yul\":10709:10828   */\n    tag_559:\n        /* \"#utility.yul\":10867:10868   */\n      0x00\n        /* \"#utility.yul\":10892:10945   */\n      tag_561\n        /* \"#utility.yul\":10937:10944   */\n      dup6\n        /* \"#utility.yul\":10928:10934   */\n      dup3\n        /* \"#utility.yul\":10917:10926   */\n      dup7\n        /* \"#utility.yul\":10913:10935   */\n      add\n        /* \"#utility.yul\":10892:10945   */\n      tag_397\n      jump\t// in\n    tag_561:\n        /* \"#utility.yul\":10882:10945   */\n      swap3\n      pop\n        /* \"#utility.yul\":10838:10955   */\n      pop\n        /* \"#utility.yul\":10994:10996   */\n      0x20\n        /* \"#utility.yul\":11020:11073   */\n      tag_562\n        /* \"#utility.yul\":11065:11072   */\n      dup6\n        /* \"#utility.yul\":11056:11062   */\n      dup3\n        /* \"#utility.yul\":11045:11054   */\n      dup7\n        /* \"#utility.yul\":11041:11063   */\n      add\n        /* \"#utility.yul\":11020:11073   */\n      tag_402\n      jump\t// in\n    tag_562:\n        /* \"#utility.yul\":11010:11073   */\n      swap2\n      pop\n        /* \"#utility.yul\":10965:11083   */\n      pop\n        /* \"#utility.yul\":10616:11090   */\n      swap3\n      pop\n      swap3\n      swap1\n      pop\n      jump\t// out\n        /* \"#utility.yul\":11096:11570   */\n    tag_124:\n        /* \"#utility.yul\":11164:11170   */\n      0x00\n        /* \"#utility.yul\":11172:11178   */\n      dup1\n        /* \"#utility.yul\":11221:11223   */\n      0x40\n        /* \"#utility.yul\":11209:11218   */\n      dup4\n        /* \"#utility.yul\":11200:11207   */\n      dup6\n        /* \"#utility.yul\":11196:11219   */\n      sub\n        /* \"#utility.yul\":11192:11224   */\n      slt\n        /* \"#utility.yul\":11189:11308   */\n      iszero\n      tag_564\n      jumpi\n        /* \"#utility.yul\":11227:11306   */\n      tag_565\n      tag_383\n      jump\t// in\n    tag_565:\n        /* \"#utility.yul\":11189:11308   */\n    tag_564:\n        /* \"#utility.yul\":11347:11348   */\n      0x00\n        /* \"#utility.yul\":11372:11425   */\n      tag_566\n        /* \"#utility.yul\":11417:11424   */\n      dup6\n        /* \"#utility.yul\":11408:11414   */\n      dup3\n        /* \"#utility.yul\":11397:11406   */\n      dup7\n        /* \"#utility.yul\":11393:11415   */\n      add\n        /* \"#utility.yul\":11372:11425   */\n      tag_402\n      jump\t// in\n    tag_566:\n        /* \"#utility.yul\":11362:11425   */\n      swap3\n      pop\n        /* \"#utility.yul\":11318:11435   */\n      pop\n        /* \"#utility.yul\":11474:11476   */\n      0x20\n        /* \"#utility.yul\":11500:11553   */\n      tag_567\n        /* \"#utility.yul\":11545:11552   */\n      dup6\n        /* \"#utility.yul\":11536:11542   */\n      dup3\n        /* \"#utility.yul\":11525:11534   */\n      dup7\n        /* \"#utility.yul\":11521:11543   */\n      add\n        /* \"#utility.yul\":11500:11553   */\n      tag_402\n      jump\t// in\n    tag_567:\n        /* \"#utility.yul\":11490:11553   */\n      swap2\n      pop\n        /* \"#utility.yul\":11445:11563   */\n      pop\n        /* \"#utility.yul\":11096:11570   */\n      swap3\n      pop\n      swap3\n      swap1\n      pop\n      jump\t// out\n        /* \"#utility.yul\":11576:11756   */\n    tag_414:\n        /* \"#utility.yul\":11624:11701   */\n      0x4e487b7100000000000000000000000000000000000000000000000000000000\n        /* \"#utility.yul\":11621:11622   */\n      0x00\n        /* \"#utility.yul\":11614:11702   */\n      mstore\n        /* \"#utility.yul\":11721:11725   */\n      0x22\n        /* \"#utility.yul\":11718:11719   */\n      0x04\n        /* \"#utility.yul\":11711:11726   */\n      mstore\n        /* \"#utility.yul\":11745:11749   */\n      0x24\n        /* \"#utility.yul\":11742:11743   */\n      0x00\n        /* \"#utility.yul\":11735:11750   */\n      revert\n        /* \"#utility.yul\":11762:12082   */\n    tag_136:\n        /* \"#utility.yul\":11806:11812   */\n      0x00\n        /* \"#utility.yul\":11843:11844   */\n      0x02\n        /* \"#utility.yul\":11837:11841   */\n      dup3\n        /* \"#utility.yul\":11833:11845   */\n      div\n        /* \"#utility.yul\":11823:11845   */\n      swap1\n      pop\n        /* \"#utility.yul\":11890:11891   */\n      0x01\n        /* \"#utility.yul\":11884:11888   */\n      dup3\n        /* \"#utility.yul\":11880:11892   */\n      and\n        /* \"#utility.yul\":11911:11929   */\n      dup1\n        /* \"#utility.yul\":11901:11982   */\n      tag_570\n      jumpi\n        /* \"#utility.yul\":11967:11971   */\n      0x7f\n        /* \"#utility.yul\":11959:11965   */\n      dup3\n        /* \"#utility.yul\":11955:11972   */\n      and\n        /* \"#utility.yul\":11945:11972   */\n      swap2\n      pop\n        /* \"#utility.yul\":11901:11982   */\n    tag_570:\n        /* \"#utility.yul\":12029:12031   */\n      0x20\n        /* \"#utility.yul\":12021:12027   */\n      dup3\n        /* \"#utility.yul\":12018:12032   */\n      lt\n        /* \"#utility.yul\":11998:12016   */\n      dup2\n        /* \"#utility.yul\":11995:12033   */\n      sub\n        /* \"#utility.yul\":11992:12076   */\n      tag_571\n      jumpi\n        /* \"#utility.yul\":12048:12066   */\n      tag_572\n      tag_414\n      jump\t// in\n    tag_572:\n        /* \"#utility.yul\":11992:12076   */\n    tag_571:\n        /* \"#utility.yul\":11813:12082   */\n      pop\n        /* \"#utility.yul\":11762:12082   */\n      swap2\n      swap1\n      pop\n      jump\t// out\n        /* \"#utility.yul\":12088:12530   */\n    tag_159:\n        /* \"#utility.yul\":12237:12241   */\n      0x00\n        /* \"#utility.yul\":12275:12277   */\n      0x60\n        /* \"#utility.yul\":12264:12273   */\n      dup3\n        /* \"#utility.yul\":12260:12278   */\n      add\n        /* \"#utility.yul\":12252:12278   */\n      swap1\n      pop\n        /* \"#utility.yul\":12288:12359   */\n      tag_574\n        /* \"#utility.yul\":12356:12357   */\n      0x00\n        /* \"#utility.yul\":12345:12354   */\n      dup4\n        /* \"#utility.yul\":12341:12358   */\n      add\n        /* \"#utility.yul\":12332:12338   */\n      dup7\n        /* \"#utility.yul\":12288:12359   */\n      tag_400\n      jump\t// in\n    tag_574:\n        /* \"#utility.yul\":12369:12441   */\n      tag_575\n        /* \"#utility.yul\":12437:12439   */\n      0x20\n        /* \"#utility.yul\":12426:12435   */\n      dup4\n        /* \"#utility.yul\":12422:12440   */\n      add\n        /* \"#utility.yul\":12413:12419   */\n      dup6\n        /* \"#utility.yul\":12369:12441   */\n      tag_403\n      jump\t// in\n    tag_575:\n        /* \"#utility.yul\":12451:12523   */\n      tag_576\n        /* \"#utility.yul\":12519:12521   */\n      0x40\n        /* \"#utility.yul\":12508:12517   */\n      dup4\n        /* \"#utility.yul\":12504:12522   */\n      add\n        /* \"#utility.yul\":12495:12501   */\n      dup5\n        /* \"#utility.yul\":12451:12523   */\n      tag_400\n      jump\t// in\n    tag_576:\n        /* \"#utility.yul\":12088:12530   */\n      swap5\n      swap4\n      pop\n      pop\n      pop\n      pop\n      jump\t// out\n        /* \"#utility.yul\":12536:12759   */\n    tag_415:\n        /* \"#utility.yul\":12676:12710   */\n      0x4f6e6c7920746f6b656e206f776e65722063616e207472616e73666572207368\n        /* \"#utility.yul\":12672:12673   */\n      0x00\n        /* \"#utility.yul\":12664:12670   */\n      dup3\n        /* \"#utility.yul\":12660:12674   */\n      add\n        /* \"#utility.yul\":12653:12711   */\n      mstore\n        /* \"#utility.yul\":12745:12751   */\n      0x6172657300000000000000000000000000000000000000000000000000000000\n        /* \"#utility.yul\":12740:12742   */\n      0x20\n        /* \"#utility.yul\":12732:12738   */\n      dup3\n        /* \"#utility.yul\":12728:12743   */\n      add\n        /* \"#utility.yul\":12721:12752   */\n      mstore\n        /* \"#utility.yul\":12536:12759   */\n      pop\n      jump\t// out\n        /* \"#utility.yul\":12765:13131   */\n    tag_416:\n        /* \"#utility.yul\":12907:12910   */\n      0x00\n        /* \"#utility.yul\":12928:12995   */\n      tag_579\n        /* \"#utility.yul\":12992:12994   */\n      0x24\n        /* \"#utility.yul\":12987:12990   */\n      dup4\n        /* \"#utility.yul\":12928:12995   */\n      tag_391\n      jump\t// in\n    tag_579:\n        /* \"#utility.yul\":12921:12995   */\n      swap2\n      pop\n        /* \"#utility.yul\":13004:13097   */\n      tag_580\n        /* \"#utility.yul\":13093:13096   */\n      dup3\n        /* \"#utility.yul\":13004:13097   */\n      tag_415\n      jump\t// in\n    tag_580:\n        /* \"#utility.yul\":13122:13124   */\n      0x40\n        /* \"#utility.yul\":13117:13120   */\n      dup3\n        /* \"#utility.yul\":13113:13125   */\n      add\n        /* \"#utility.yul\":13106:13125   */\n      swap1\n      pop\n        /* \"#utility.yul\":12765:13131   */\n      swap2\n      swap1\n      pop\n      jump\t// out\n        /* \"#utility.yul\":13137:13556   */\n    tag_179:\n        /* \"#utility.yul\":13303:13307   */\n      0x00\n        /* \"#utility.yul\":13341:13343   */\n      0x20\n        /* \"#utility.yul\":13330:13339   */\n      dup3\n        /* \"#utility.yul\":13326:13344   */\n      add\n        /* \"#utility.yul\":13318:13344   */\n      swap1\n      pop\n        /* \"#utility.yul\":13390:13399   */\n      dup2\n        /* \"#utility.yul\":13384:13388   */\n      dup2\n        /* \"#utility.yul\":13380:13400   */\n      sub\n        /* \"#utility.yul\":13376:13377   */\n      0x00\n        /* \"#utility.yul\":13365:13374   */\n      dup4\n        /* \"#utility.yul\":13361:13378   */\n      add\n        /* \"#utility.yul\":13354:13401   */\n      mstore\n        /* \"#utility.yul\":13418:13549   */\n      tag_582\n        /* \"#utility.yul\":13544:13548   */\n      dup2\n        /* \"#utility.yul\":13418:13549   */\n      tag_416\n      jump\t// in\n    tag_582:\n        /* \"#utility.yul\":13410:13549   */\n      swap1\n      pop\n        /* \"#utility.yul\":13137:13556   */\n      swap2\n      swap1\n      pop\n      jump\t// out\n        /* \"#utility.yul\":13562:13738   */\n    tag_417:\n        /* \"#utility.yul\":13702:13730   */\n      0x4e6f7420656e6f75676820736861726573206f6e20746f6b656e000000000000\n        /* \"#utility.yul\":13698:13699   */\n      0x00\n        /* \"#utility.yul\":13690:13696   */\n      dup3\n        /* \"#utility.yul\":13686:13700   */\n      add\n        /* \"#utility.yul\":13679:13731   */\n      mstore\n        /* \"#utility.yul\":13562:13738   */\n      pop\n      jump\t// out\n        /* \"#utility.yul\":13744:14110   */\n    tag_418:\n        /* \"#utility.yul\":13886:13889   */\n      0x00\n        /* \"#utility.yul\":13907:13974   */\n      tag_585\n        /* \"#utility.yul\":13971:13973   */\n      0x1a\n        /* \"#utility.yul\":13966:13969   */\n      dup4\n        /* \"#utility.yul\":13907:13974   */\n      tag_391\n      jump\t// in\n    tag_585:\n        /* \"#utility.yul\":13900:13974   */\n      swap2\n      pop\n        /* \"#utility.yul\":13983:14076   */\n      tag_586\n        /* \"#utility.yul\":14072:14075   */\n      dup3\n        /* \"#utility.yul\":13983:14076   */\n      tag_417\n      jump\t// in\n    tag_586:\n        /* \"#utility.yul\":14101:14103   */\n      0x20\n        /* \"#utility.yul\":14096:14099   */\n      dup3\n        /* \"#utility.yul\":14092:14104   */\n      add\n        /* \"#utility.yul\":14085:14104   */\n      swap1\n      pop\n        /* \"#utility.yul\":13744:14110   */\n      swap2\n      swap1\n      pop\n      jump\t// out\n        /* \"#utility.yul\":14116:14535   */\n    tag_182:\n        /* \"#utility.yul\":14282:14286   */\n      0x00\n        /* \"#utility.yul\":14320:14322   */\n      0x20\n        /* \"#utility.yul\":14309:14318   */\n      dup3\n        /* \"#utility.yul\":14305:14323   */\n      add\n        /* \"#utility.yul\":14297:14323   */\n      swap1\n      pop\n        /* \"#utility.yul\":14369:14378   */\n      dup2\n        /* \"#utility.yul\":14363:14367   */\n      dup2\n        /* \"#utility.yul\":14359:14379   */\n      sub\n        /* \"#utility.yul\":14355:14356   */\n      0x00\n        /* \"#utility.yul\":14344:14353   */\n      dup4\n        /* \"#utility.yul\":14340:14357   */\n      add\n        /* \"#utility.yul\":14333:14380   */\n      mstore\n        /* \"#utility.yul\":14397:14528   */\n      tag_588\n        /* \"#utility.yul\":14523:14527   */\n      dup2\n        /* \"#utility.yul\":14397:14528   */\n      tag_418\n      jump\t// in\n    tag_588:\n        /* \"#utility.yul\":14389:14528   */\n      swap1\n      pop\n        /* \"#utility.yul\":14116:14535   */\n      swap2\n      swap1\n      pop\n      jump\t// out\n        /* \"#utility.yul\":14541:14714   */\n    tag_419:\n        /* \"#utility.yul\":14681:14706   */\n      0x536861726573206d75737420626520706f736974697665000000000000000000\n        /* \"#utility.yul\":14677:14678   */\n      0x00\n        /* \"#utility.yul\":14669:14675   */\n      dup3\n        /* \"#utility.yul\":14665:14679   */\n      add\n        /* \"#utility.yul\":14658:14707   */\n      mstore\n        /* \"#utility.yul\":14541:14714   */\n      pop\n      jump\t// out\n        /* \"#utility.yul\":14720:15086   */\n    tag_420:\n        /* \"#utility.yul\":14862:14865   */\n      0x00\n        /* \"#utility.yul\":14883:14950   */\n      tag_591\n        /* \"#utility.yul\":14947:14949   */\n      0x17\n        /* \"#utility.yul\":14942:14945   */\n      dup4\n        /* \"#utility.yul\":14883:14950   */\n      tag_391\n      jump\t// in\n    tag_591:\n        /* \"#utility.yul\":14876:14950   */\n      swap2\n      pop\n        /* \"#utility.yul\":14959:15052   */\n      tag_592\n        /* \"#utility.yul\":15048:15051   */\n      dup3\n        /* \"#utility.yul\":14959:15052   */\n      tag_419\n      jump\t// in\n    tag_592:\n        /* \"#utility.yul\":15077:15079   */\n      0x20\n        /* \"#utility.yul\":15072:15075   */\n      dup3\n        /* \"#utility.yul\":15068:15080   */\n      add\n        /* \"#utility.yul\":15061:15080   */\n      swap1\n      pop\n        /* \"#utility.yul\":14720:15086   */\n      swap2\n      swap1\n      pop\n      jump\t// out\n        /* \"#utility.yul\":15092:15511   */\n    tag_185:\n        /* \"#utility.yul\":15258:15262   */\n      0x00\n        /* \"#utility.yul\":15296:15298   */\n      0x20\n        /* \"#utility.yul\":15285:15294   */\n      dup3\n        /* \"#utility.yul\":15281:15299   */\n      add\n        /* \"#utility.yul\":15273:15299   */\n      swap1\n      pop\n        /* \"#utility.yul\":15345:15354   */\n      dup2\n        /* \"#utility.yul\":15339:15343   */\n      dup2\n        /* \"#utility.yul\":15335:15355   */\n      sub\n        /* \"#utility.yul\":15331:15332   */\n      0x00\n        /* \"#utility.yul\":15320:15329   */\n      dup4\n        /* \"#utility.yul\":15316:15333   */\n      add\n        /* \"#utility.yul\":15309:15356   */\n      mstore\n        /* \"#utility.yul\":15373:15504   */\n      tag_594\n        /* \"#utility.yul\":15499:15503   */\n      dup2\n        /* \"#utility.yul\":15373:15504   */\n      tag_420\n      jump\t// in\n    tag_594:\n        /* \"#utility.yul\":15365:15504   */\n      swap1\n      pop\n        /* \"#utility.yul\":15092:15511   */\n      swap2\n      swap1\n      pop\n      jump\t// out\n        /* \"#utility.yul\":15517:15697   */\n    tag_421:\n        /* \"#utility.yul\":15565:15642   */\n      0x4e487b7100000000000000000000000000000000000000000000000000000000\n        /* \"#utility.yul\":15562:15563   */\n      0x00\n        /* \"#utility.yul\":15555:15643   */\n      mstore\n        /* \"#utility.yul\":15662:15666   */\n      0x11\n        /* \"#utility.yul\":15659:15660   */\n      0x04\n        /* \"#utility.yul\":15652:15667   */\n      mstore\n        /* \"#utility.yul\":15686:15690   */\n      0x24\n        /* \"#utility.yul\":15683:15684   */\n      0x00\n        /* \"#utility.yul\":15676:15691   */\n      revert\n        /* \"#utility.yul\":15703:15897   */\n    tag_187:\n        /* \"#utility.yul\":15743:15747   */\n      0x00\n        /* \"#utility.yul\":15763:15783   */\n      tag_597\n        /* \"#utility.yul\":15781:15782   */\n      dup3\n        /* \"#utility.yul\":15763:15783   */\n      tag_395\n      jump\t// in\n    tag_597:\n        /* \"#utility.yul\":15758:15783   */\n      swap2\n      pop\n        /* \"#utility.yul\":15797:15817   */\n      tag_598\n        /* \"#utility.yul\":15815:15816   */\n      dup4\n        /* \"#utility.yul\":15797:15817   */\n      tag_395\n      jump\t// in\n    tag_598:\n        /* \"#utility.yul\":15792:15817   */\n      swap3\n      pop\n        /* \"#utility.yul\":15841:15842   */\n      dup3\n        /* \"#utility.yul\":15838:15839   */\n      dup3\n        /* \"#utility.yul\":15834:15843   */\n      sub\n        /* \"#utility.yul\":15826:15843   */\n      swap1\n      pop\n        /* \"#utility.yul\":15865:15866   */\n      dup2\n        /* \"#utility.yul\":15859:15863   */\n      dup2\n        /* \"#utility.yul\":15856:15867   */\n      gt\n        /* \"#utility.yul\":15853:15890   */\n      iszero\n      tag_599\n      jumpi\n        /* \"#utility.yul\":15870:15888   */\n      tag_600\n      tag_421\n      jump\t// in\n    tag_600:\n        /* \"#utility.yul\":15853:15890   */\n    tag_599:\n        /* \"#utility.yul\":15703:15897   */\n      swap3\n      swap2\n      pop\n      pop\n      jump\t// out\n        /* \"#utility.yul\":15903:16136   */\n    tag_192:\n        /* \"#utility.yul\":15942:15945   */\n      0x00\n        /* \"#utility.yul\":15965:15989   */\n      tag_602\n        /* \"#utility.yul\":15983:15988   */\n      dup3\n        /* \"#utility.yul\":15965:15989   */\n      tag_395\n      jump\t// in\n    tag_602:\n        /* \"#utility.yul\":15956:15989   */\n      swap2\n      pop\n        /* \"#utility.yul\":16011:16077   */\n      0xffffffffffffffffffffffffffffffffffffffffffffffffffffffffffffffff\n        /* \"#utility.yul\":16004:16009   */\n      dup3\n        /* \"#utility.yul\":16001:16078   */\n      sub\n        /* \"#utility.yul\":15998:16101   */\n      tag_603\n      jumpi\n        /* \"#utility.yul\":16081:16099   */\n      tag_604\n      tag_421\n      jump\t// in\n    tag_604:\n        /* \"#utility.yul\":15998:16101   */\n    tag_603:\n        /* \"#utility.yul\":16128:16129   */\n      0x01\n        /* \"#utility.yul\":16121:16126   */\n      dup3\n        /* \"#utility.yul\":16117:16130   */\n      add\n        /* \"#utility.yul\":16110:16130   */\n      swap1\n      pop\n        /* \"#utility.yul\":15903:16136   */\n      swap2\n      swap1\n      pop\n      jump\t// out\n        /* \"#utility.yul\":16142:16333   */\n    tag_199:\n        /* \"#utility.yul\":16182:16185   */\n      0x00\n        /* \"#utility.yul\":16201:16221   */\n      tag_606\n        /* \"#utility.yul\":16219:16220   */\n      dup3\n        /* \"#utility.yul\":16201:16221   */\n      tag_395\n      jump\t// in\n    tag_606:\n        /* \"#utility.yul\":16196:16221   */\n      swap2\n      pop\n        /* \"#utility.yul\":16235:16255   */\n      tag_607\n        /* \"#utility.yul\":16253:16254   */\n      dup4\n        /* \"#utility.yul\":16235:16255   */\n      tag_395\n      jump\t// in\n    tag_607:\n        /* \"#utility.yul\":16230:16255   */\n      swap3\n      pop\n        /* \"#utility.yul\":16278:16279   */\n      dup3\n        /* \"#utility.yul\":16275:16276   */\n      dup3\n        /* \"#utility.yul\":16271:16280   */\n      add\n        /* \"#utility.yul\":16264:16280   */\n      swap1\n      pop\n        /* \"#utility.yul\":16299:16302   */\n      dup1\n        /* \"#utility.yul\":16296:16297   */\n      dup3\n        /* \"#utility.yul\":16293:16303   */\n      gt\n        /* \"#utility.yul\":16290:16326   */\n      iszero\n      tag_608\n      jumpi\n        /* \"#utility.yul\":16306:16324   */\n      tag_609\n      tag_421\n      jump\t// in\n    tag_609:\n        /* \"#utility.yul\":16290:16326   */\n    tag_608:\n        /* \"#utility.yul\":16142:16333   */\n      swap3\n      swap2\n      pop\n      pop\n      jump\t// out\n        /* \"#utility.yul\":16339:16487   */\n    tag_422:\n        /* \"#utility.yul\":16441:16452   */\n      0x00\n        /* \"#utility.yul\":16478:16481   */\n      dup2\n        /* \"#utility.yul\":16463:16481   */\n      swap1\n      pop\n        /* \"#utility.yul\":16339:16487   */\n      swap3\n      swap2\n      pop\n      pop\n      jump\t// out\n        /* \"#utility.yul\":16493:16883   */\n    tag_423:\n        /* \"#utility.yul\":16599:16602   */\n      0x00\n        /* \"#utility.yul\":16627:16666   */\n      tag_612\n        /* \"#utility.yul\":16660:16665   */\n      dup3\n        /* \"#utility.yul\":16627:16666   */\n      tag_390\n      jump\t// in\n    tag_612:\n        /* \"#utility.yul\":16682:16771   */\n      tag_613\n        /* \"#utility.yul\":16764:16770   */\n      dup2\n        /* \"#utility.yul\":16759:16762   */\n      dup6\n        /* \"#utility.yul\":16682:16771   */\n      tag_422\n      jump\t// in\n    tag_613:\n        /* \"#utility.yul\":16675:16771   */\n      swap4\n      pop\n        /* \"#utility.yul\":16780:16845   */\n      tag_614\n        /* \"#utility.yul\":16838:16844   */\n      dup2\n        /* \"#utility.yul\":16833:16836   */\n      dup6\n        /* \"#utility.yul\":16826:16830   */\n      0x20\n        /* \"#utility.yul\":16819:16824   */\n      dup7\n        /* \"#utility.yul\":16815:16831   */\n      add\n        /* \"#utility.yul\":16780:16845   */\n      tag_392\n      jump\t// in\n    tag_614:\n        /* \"#utility.yul\":16870:16876   */\n      dup1\n        /* \"#utility.yul\":16865:16868   */\n      dup5\n        /* \"#utility.yul\":16861:16877   */\n      add\n        /* \"#utility.yul\":16854:16877   */\n      swap2\n      pop\n        /* \"#utility.yul\":16603:16883   */\n      pop\n        /* \"#utility.yul\":16493:16883   */\n      swap3\n      swap2\n      pop\n      pop\n      jump\t// out\n        /* \"#utility.yul\":16889:17324   */\n    tag_227:\n        /* \"#utility.yul\":17069:17072   */\n      0x00\n        /* \"#utility.yul\":17091:17186   */\n      tag_616\n        /* \"#utility.yul\":17182:17185   */\n      dup3\n        /* \"#utility.yul\":17173:17179   */\n      dup6\n        /* \"#utility.yul\":17091:17186   */\n      tag_423\n      jump\t// in\n    tag_616:\n        /* \"#utility.yul\":17084:17186   */\n      swap2\n      pop\n        /* \"#utility.yul\":17203:17298   */\n      tag_617\n        /* \"#utility.yul\":17294:17297   */\n      dup3\n        /* \"#utility.yul\":17285:17291   */\n      dup5\n        /* \"#utility.yul\":17203:17298   */\n      tag_423\n      jump\t// in\n    tag_617:\n        /* \"#utility.yul\":17196:17298   */\n      swap2\n      pop\n        /* \"#utility.yul\":17315:17318   */\n      dup2\n        /* \"#utility.yul\":17308:17318   */\n      swap1\n      pop\n        /* \"#utility.yul\":16889:17324   */\n      swap4\n      swap3\n      pop\n      pop\n      pop\n      jump\t// out\n        /* \"#utility.yul\":17330:17507   */\n    tag_424:\n        /* \"#utility.yul\":17470:17499   */\n      0x4e6f7420656e6f7567682073686172657320617661696c61626c650000000000\n        /* \"#utility.yul\":17466:17467   */\n      0x00\n        /* \"#utility.yul\":17458:17464   */\n      dup3\n        /* \"#utility.yul\":17454:17468   */\n      add\n        /* \"#utility.yul\":17447:17500   */\n      mstore\n        /* \"#utility.yul\":17330:17507   */\n      pop\n      jump\t// out\n        /* \"#utility.yul\":17513:17879   */\n    tag_425:\n        /* \"#utility.yul\":17655:17658   */\n      0x00\n        /* \"#utility.yul\":17676:17743   */\n      tag_620\n        /* \"#utility.yul\":17740:17742   */\n      0x1b\n        /* \"#utility.yul\":17735:17738   */\n      dup4\n        /* \"#utility.yul\":17676:17743   */\n      tag_391\n      jump\t// in\n    tag_620:\n        /* \"#utility.yul\":17669:17743   */\n      swap2\n      pop\n        /* \"#utility.yul\":17752:17845   */\n      tag_621\n        /* \"#utility.yul\":17841:17844   */\n      dup3\n        /* \"#utility.yul\":17752:17845   */\n      tag_424\n      jump\t// in\n    tag_621:\n        /* \"#utility.yul\":17870:17872   */\n      0x20\n        /* \"#utility.yul\":17865:17868   */\n      dup3\n        /* \"#utility.yul\":17861:17873   */\n      add\n        /* \"#utility.yul\":17854:17873   */\n      swap1\n      pop\n        /* \"#utility.yul\":17513:17879   */\n      swap2\n      swap1\n      pop\n      jump\t// out\n        /* \"#utility.yul\":17885:18304   */\n    tag_236:\n        /* \"#utility.yul\":18051:18055   */\n      0x00\n        /* \"#utility.yul\":18089:18091   */\n      0x20\n        /* \"#utility.yul\":18078:18087   */\n      dup3\n        /* \"#utility.yul\":18074:18092   */\n      add\n        /* \"#utility.yul\":18066:18092   */\n      swap1\n      pop\n        /* \"#utility.yul\":18138:18147   */\n      dup2\n        /* \"#utility.yul\":18132:18136   */\n      dup2\n        /* \"#utility.yul\":18128:18148   */\n      sub\n        /* \"#utility.yul\":18124:18125   */\n      0x00\n        /* \"#utility.yul\":18113:18122   */\n      dup4\n        /* \"#utility.yul\":18109:18126   */\n      add\n        /* \"#utility.yul\":18102:18149   */\n      mstore\n        /* \"#utility.yul\":18166:18297   */\n      tag_623\n        /* \"#utility.yul\":18292:18296   */\n      dup2\n        /* \"#utility.yul\":18166:18297   */\n      tag_425\n      jump\t// in\n    tag_623:\n        /* \"#utility.yul\":18158:18297   */\n      swap1\n      pop\n        /* \"#utility.yul\":17885:18304   */\n      swap2\n      swap1\n      pop\n      jump\t// out\n        /* \"#utility.yul\":18310:18535   */\n    tag_426:\n        /* \"#utility.yul\":18450:18484   */\n      0x4f776e61626c653a206e6577206f776e657220697320746865207a65726f2061\n        /* \"#utility.yul\":18446:18447   */\n      0x00\n        /* \"#utility.yul\":18438:18444   */\n      dup3\n        /* \"#utility.yul\":18434:18448   */\n      add\n        /* \"#utility.yul\":18427:18485   */\n      mstore\n        /* \"#utility.yul\":18519:18527   */\n      0x6464726573730000000000000000000000000000000000000000000000000000\n        /* \"#utility.yul\":18514:18516   */\n      0x20\n        /* \"#utility.yul\":18506:18512   */\n      dup3\n        /* \"#utility.yul\":18502:18517   */\n      add\n        /* \"#utility.yul\":18495:18528   */\n      mstore\n        /* \"#utility.yul\":18310:18535   */\n      pop\n      jump\t// out\n        /* \"#utility.yul\":18541:18907   */\n    tag_427:\n        /* \"#utility.yul\":18683:18686   */\n      0x00\n        /* \"#utility.yul\":18704:18771   */\n      tag_626\n        /* \"#utility.yul\":18768:18770   */\n      0x26\n        /* \"#utility.yul\":18763:18766   */\n      dup4\n        /* \"#utility.yul\":18704:18771   */\n      tag_391\n      jump\t// in\n    tag_626:\n        /* \"#utility.yul\":18697:18771   */\n      swap2\n      pop\n        /* \"#utility.yul\":18780:18873   */\n      tag_627\n        /* \"#utility.yul\":18869:18872   */\n      dup3\n        /* \"#utility.yul\":18780:18873   */\n      tag_426\n      jump\t// in\n    tag_627:\n        /* \"#utility.yul\":18898:18900   */\n      0x40\n        /* \"#utility.yul\":18893:18896   */\n      dup3\n        /* \"#utility.yul\":18889:18901   */\n      add\n        /* \"#utility.yul\":18882:18901   */\n      swap1\n      pop\n        /* \"#utility.yul\":18541:18907   */\n      swap2\n      swap1\n      pop\n      jump\t// out\n        /* \"#utility.yul\":18913:19332   */\n    tag_247:\n        /* \"#utility.yul\":19079:19083   */\n      0x00\n        /* \"#utility.yul\":19117:19119   */\n      0x20\n        /* \"#utility.yul\":19106:19115   */\n      dup3\n        /* \"#utility.yul\":19102:19120   */\n      add\n        /* \"#utility.yul\":19094:19120   */\n      swap1\n      pop\n        /* \"#utility.yul\":19166:19175   */\n      dup2\n        /* \"#utility.yul\":19160:19164   */\n      dup2\n        /* \"#utility.yul\":19156:19176   */\n      sub\n        /* \"#utility.yul\":19152:19153   */\n      0x00\n        /* \"#utility.yul\":19141:19150   */\n      dup4\n        /* \"#utility.yul\":19137:19154   */\n      add\n        /* \"#utility.yul\":19130:19177   */\n      mstore\n        /* \"#utility.yul\":19194:19325   */\n      tag_629\n        /* \"#utility.yul\":19320:19324   */\n      dup2\n        /* \"#utility.yul\":19194:19325   */\n      tag_427\n      jump\t// in\n    tag_629:\n        /* \"#utility.yul\":19186:19325   */\n      swap1\n      pop\n        /* \"#utility.yul\":18913:19332   */\n      swap2\n      swap1\n      pop\n      jump\t// out\n        /* \"#utility.yul\":19338:19520   */\n    tag_428:\n        /* \"#utility.yul\":19478:19512   */\n      0x4f776e61626c653a2063616c6c6572206973206e6f7420746865206f776e6572\n        /* \"#utility.yul\":19474:19475   */\n      0x00\n        /* \"#utility.yul\":19466:19472   */\n      dup3\n        /* \"#utility.yul\":19462:19476   */\n      add\n        /* \"#utility.yul\":19455:19513   */\n      mstore\n        /* \"#utility.yul\":19338:19520   */\n      pop\n      jump\t// out\n        /* \"#utility.yul\":19526:19892   */\n    tag_429:\n        /* \"#utility.yul\":19668:19671   */\n      0x00\n        /* \"#utility.yul\":19689:19756   */\n      tag_632\n        /* \"#utility.yul\":19753:19755   */\n      0x20\n        /* \"#utility.yul\":19748:19751   */\n      dup4\n        /* \"#utility.yul\":19689:19756   */\n      tag_391\n      jump\t// in\n    tag_632:\n        /* \"#utility.yul\":19682:19756   */\n      swap2\n      pop\n        /* \"#utility.yul\":19765:19858   */\n      tag_633\n        /* \"#utility.yul\":19854:19857   */\n      dup3\n        /* \"#utility.yul\":19765:19858   */\n      tag_428\n      jump\t// in\n    tag_633:\n        /* \"#utility.yul\":19883:19885   */\n      0x20\n        /* \"#utility.yul\":19878:19881   */\n      dup3\n        /* \"#utility.yul\":19874:19886   */\n      add\n        /* \"#utility.yul\":19867:19886   */\n      swap1\n      pop\n        /* \"#utility.yul\":19526:19892   */\n      swap2\n      swap1\n      pop\n      jump\t// out\n        /* \"#utility.yul\":19898:20317   */\n    tag_277:\n        /* \"#utility.yul\":20064:20068   */\n      0x00\n        /* \"#utility.yul\":20102:20104   */\n      0x20\n        /* \"#utility.yul\":20091:20100   */\n      dup3\n        /* \"#utility.yul\":20087:20105   */\n      add\n        /* \"#utility.yul\":20079:20105   */\n      swap1\n      pop\n        /* \"#utility.yul\":20151:20160   */\n      dup2\n        /* \"#utility.yul\":20145:20149   */\n      dup2\n        /* \"#utility.yul\":20141:20161   */\n      sub\n        /* \"#utility.yul\":20137:20138   */\n      0x00\n        /* \"#utility.yul\":20126:20135   */\n      dup4\n        /* \"#utility.yul\":20122:20139   */\n      add\n        /* \"#utility.yul\":20115:20162   */\n      mstore\n        /* \"#utility.yul\":20179:20310   */\n      tag_635\n        /* \"#utility.yul\":20305:20309   */\n      dup2\n        /* \"#utility.yul\":20179:20310   */\n      tag_429\n      jump\t// in\n    tag_635:\n        /* \"#utility.yul\":20171:20310   */\n      swap1\n      pop\n        /* \"#utility.yul\":19898:20317   */\n      swap2\n      swap1\n      pop\n      jump\t// out\n        /* \"#utility.yul\":20323:20421   */\n    tag_430:\n        /* \"#utility.yul\":20374:20380   */\n      0x00\n        /* \"#utility.yul\":20408:20413   */\n      dup2\n        /* \"#utility.yul\":20402:20414   */\n      mload\n        /* \"#utility.yul\":20392:20414   */\n      swap1\n      pop\n        /* \"#utility.yul\":20323:20421   */\n      swap2\n      swap1\n      pop\n      jump\t// out\n        /* \"#utility.yul\":20427:20595   */\n    tag_431:\n        /* \"#utility.yul\":20510:20521   */\n      0x00\n        /* \"#utility.yul\":20544:20550   */\n      dup3\n        /* \"#utility.yul\":20539:20542   */\n      dup3\n        /* \"#utility.yul\":20532:20551   */\n      mstore\n        /* \"#utility.yul\":20584:20588   */\n      0x20\n        /* \"#utility.yul\":20579:20582   */\n      dup3\n        /* \"#utility.yul\":20575:20589   */\n      add\n        /* \"#utility.yul\":20560:20589   */\n      swap1\n      pop\n        /* \"#utility.yul\":20427:20595   */\n      swap3\n      swap2\n      pop\n      pop\n      jump\t// out\n        /* \"#utility.yul\":20601:20974   */\n    tag_432:\n        /* \"#utility.yul\":20687:20690   */\n      0x00\n        /* \"#utility.yul\":20715:20753   */\n      tag_639\n        /* \"#utility.yul\":20747:20752   */\n      dup3\n        /* \"#utility.yul\":20715:20753   */\n      tag_430\n      jump\t// in\n    tag_639:\n        /* \"#utility.yul\":20769:20839   */\n      tag_640\n        /* \"#utility.yul\":20832:20838   */\n      dup2\n        /* \"#utility.yul\":20827:20830   */\n      dup6\n        /* \"#utility.yul\":20769:20839   */\n      tag_431\n      jump\t// in\n    tag_640:\n        /* \"#utility.yul\":20762:20839   */\n      swap4\n      pop\n        /* \"#utility.yul\":20848:20913   */\n      tag_641\n        /* \"#utility.yul\":20906:20912   */\n      dup2\n        /* \"#utility.yul\":20901:20904   */\n      dup6\n        /* \"#utility.yul\":20894:20898   */\n      0x20\n        /* \"#utility.yul\":20887:20892   */\n      dup7\n        /* \"#utility.yul\":20883:20899   */\n      add\n        /* \"#utility.yul\":20848:20913   */\n      tag_392\n      jump\t// in\n    tag_641:\n        /* \"#utility.yul\":20938:20967   */\n      tag_642\n        /* \"#utility.yul\":20960:20966   */\n      dup2\n        /* \"#utility.yul\":20938:20967   */\n      tag_393\n      jump\t// in\n    tag_642:\n        /* \"#utility.yul\":20933:20936   */\n      dup5\n        /* \"#utility.yul\":20929:20968   */\n      add\n        /* \"#utility.yul\":20922:20968   */\n      swap2\n      pop\n        /* \"#utility.yul\":20691:20974   */\n      pop\n        /* \"#utility.yul\":20601:20974   */\n      swap3\n      swap2\n      pop\n      pop\n      jump\t// out\n        /* \"#utility.yul\":20980:21620   */\n    tag_297:\n        /* \"#utility.yul\":21175:21179   */\n      0x00\n        /* \"#utility.yul\":21213:21216   */\n      0x80\n        /* \"#utility.yul\":21202:21211   */\n      dup3\n        /* \"#utility.yul\":21198:21217   */\n      add\n        /* \"#utility.yul\":21190:21217   */\n      swap1\n      pop\n        /* \"#utility.yul\":21227:21298   */\n      tag_644\n        /* \"#utility.yul\":21295:21296   */\n      0x00\n        /* \"#utility.yul\":21284:21293   */\n      dup4\n        /* \"#utility.yul\":21280:21297   */\n      add\n        /* \"#utility.yul\":21271:21277   */\n      dup8\n        /* \"#utility.yul\":21227:21298   */\n      tag_400\n      jump\t// in\n    tag_644:\n        /* \"#utility.yul\":21308:21380   */\n      tag_645\n        /* \"#utility.yul\":21376:21378   */\n      0x20\n        /* \"#utility.yul\":21365:21374   */\n      dup4\n        /* \"#utility.yul\":21361:21379   */\n      add\n        /* \"#utility.yul\":21352:21358   */\n      dup7\n        /* \"#utility.yul\":21308:21380   */\n      tag_400\n      jump\t// in\n    tag_645:\n        /* \"#utility.yul\":21390:21462   */\n      tag_646\n        /* \"#utility.yul\":21458:21460   */\n      0x40\n        /* \"#utility.yul\":21447:21456   */\n      dup4\n        /* \"#utility.yul\":21443:21461   */\n      add\n        /* \"#utility.yul\":21434:21440   */\n      dup6\n        /* \"#utility.yul\":21390:21462   */\n      tag_403\n      jump\t// in\n    tag_646:\n        /* \"#utility.yul\":21509:21518   */\n      dup2\n        /* \"#utility.yul\":21503:21507   */\n      dup2\n        /* \"#utility.yul\":21499:21519   */\n      sub\n        /* \"#utility.yul\":21494:21496   */\n      0x60\n        /* \"#utility.yul\":21483:21492   */\n      dup4\n        /* \"#utility.yul\":21479:21497   */\n      add\n        /* \"#utility.yul\":21472:21520   */\n      mstore\n        /* \"#utility.yul\":21537:21613   */\n      tag_647\n        /* \"#utility.yul\":21608:21612   */\n      dup2\n        /* \"#utility.yul\":21599:21605   */\n      dup5\n        /* \"#utility.yul\":21537:21613   */\n      tag_432\n      jump\t// in\n    tag_647:\n        /* \"#utility.yul\":21529:21613   */\n      swap1\n      pop\n        /* \"#utility.yul\":20980:21620   */\n      swap6\n      swap5\n      pop\n      pop\n      pop\n      pop\n      pop\n      jump\t// out\n        /* \"#utility.yul\":21626:21767   */\n    tag_433:\n        /* \"#utility.yul\":21682:21687   */\n      0x00\n        /* \"#utility.yul\":21713:21719   */\n      dup2\n        /* \"#utility.yul\":21707:21720   */\n      mload\n        /* \"#utility.yul\":21698:21720   */\n      swap1\n      pop\n        /* \"#utility.yul\":21729:21761   */\n      tag_649\n        /* \"#utility.yul\":21755:21760   */\n      dup2\n        /* \"#utility.yul\":21729:21761   */\n      tag_386\n      jump\t// in\n    tag_649:\n        /* \"#utility.yul\":21626:21767   */\n      swap3\n      swap2\n      pop\n      pop\n      jump\t// out\n        /* \"#utility.yul\":21773:22122   */\n    tag_300:\n        /* \"#utility.yul\":21842:21848   */\n      0x00\n        /* \"#utility.yul\":21891:21893   */\n      0x20\n        /* \"#utility.yul\":21879:21888   */\n      dup3\n        /* \"#utility.yul\":21870:21877   */\n      dup5\n        /* \"#utility.yul\":21866:21889   */\n      sub\n        /* \"#utility.yul\":21862:21894   */\n      slt\n        /* \"#utility.yul\":21859:21978   */\n      iszero\n      tag_651\n      jumpi\n        /* \"#utility.yul\":21897:21976   */\n      tag_652\n      tag_383\n      jump\t// in\n    tag_652:\n        /* \"#utility.yul\":21859:21978   */\n    tag_651:\n        /* \"#utility.yul\":22017:22018   */\n      0x00\n        /* \"#utility.yul\":22042:22105   */\n      tag_653\n        /* \"#utility.yul\":22097:22104   */\n      dup5\n        /* \"#utility.yul\":22088:22094   */\n      dup3\n        /* \"#utility.yul\":22077:22086   */\n      dup6\n        /* \"#utility.yul\":22073:22095   */\n      add\n        /* \"#utility.yul\":22042:22105   */\n      tag_433\n      jump\t// in\n    tag_653:\n        /* \"#utility.yul\":22032:22105   */\n      swap2\n      pop\n        /* \"#utility.yul\":21988:22115   */\n      pop\n        /* \"#utility.yul\":21773:22122   */\n      swap3\n      swap2\n      pop\n      pop\n      jump\t// out\n        /* \"#utility.yul\":22128:22460   */\n    tag_342:\n        /* \"#utility.yul\":22249:22253   */\n      0x00\n        /* \"#utility.yul\":22287:22289   */\n      0x40\n        /* \"#utility.yul\":22276:22285   */\n      dup3\n        /* \"#utility.yul\":22272:22290   */\n      add\n        /* \"#utility.yul\":22264:22290   */\n      swap1\n      pop\n        /* \"#utility.yul\":22300:22371   */\n      tag_655\n        /* \"#utility.yul\":22368:22369   */\n      0x00\n        /* \"#utility.yul\":22357:22366   */\n      dup4\n        /* \"#utility.yul\":22353:22370   */\n      add\n        /* \"#utility.yul\":22344:22350   */\n      dup6\n        /* \"#utility.yul\":22300:22371   */\n      tag_400\n      jump\t// in\n    tag_655:\n        /* \"#utility.yul\":22381:22453   */\n      tag_656\n        /* \"#utility.yul\":22449:22451   */\n      0x20\n        /* \"#utility.yul\":22438:22447   */\n      dup4\n        /* \"#utility.yul\":22434:22452   */\n      add\n        /* \"#utility.yul\":22425:22431   */\n      dup5\n        /* \"#utility.yul\":22381:22453   */\n      tag_403\n      jump\t// in\n    tag_656:\n        /* \"#utility.yul\":22128:22460   */\n      swap4\n      swap3\n      pop\n      pop\n      pop\n      jump\t// out\n        /* \"#utility.yul\":22466:22646   */\n    tag_354:\n        /* \"#utility.yul\":22514:22591   */\n      0x4e487b7100000000000000000000000000000000000000000000000000000000\n        /* \"#utility.yul\":22511:22512   */\n      0x00\n        /* \"#utility.yul\":22504:22592   */\n      mstore\n        /* \"#utility.yul\":22611:22615   */\n      0x12\n        /* \"#utility.yul\":22608:22609   */\n      0x04\n        /* \"#utility.yul\":22601:22616   */\n      mstore\n        /* \"#utility.yul\":22635:22639   */\n      0x24\n        /* \"#utility.yul\":22632:22633   */\n      0x00\n        /* \"#utility.yul\":22625:22640   */\n      revert\n\n    auxdata: 0xa26469706673582212202e660a693bebeea43eb59183a29fc31e2d98f6df07791247a9e79c8ceca3411964736f6c63430008150033\n}\n",
				"bytecode": {
					"linkReferences": {},
					"object": "60806040526001600a5534801562000015575f80fd5b50604051620030aa380380620030aa83398181016040528101906200003b919062000200565b6040518060400160405280600a81526020017f41737365745368617265000000000000000000000000000000000000000000008152506040518060400160405280600381526020017f4153480000000000000000000000000000000000000000000000000000000000815250815f9081620000b791906200048b565b508060019081620000c991906200048b565b505050620000ec620000e0620000fa60201b60201c565b6200010160201b60201c565b80600881905550506200056f565b5f33905090565b5f60075f9054906101000a900473ffffffffffffffffffffffffffffffffffffffff1690508160075f6101000a81548173ffffffffffffffffffffffffffffffffffffffff021916908373ffffffffffffffffffffffffffffffffffffffff1602179055508173ffffffffffffffffffffffffffffffffffffffff168173ffffffffffffffffffffffffffffffffffffffff167f8be0079c531659141344cd1fd0a4f28419497f9722a3daafe3b4186f6b6457e060405160405180910390a35050565b5f80fd5b5f819050919050565b620001dc81620001c8565b8114620001e7575f80fd5b50565b5f81519050620001fa81620001d1565b92915050565b5f60208284031215620002185762000217620001c4565b5b5f6200022784828501620001ea565b91505092915050565b5f81519050919050565b7f4e487b71000000000000000000000000000000000000000000000000000000005f52604160045260245ffd5b7f4e487b71000000000000000000000000000000000000000000000000000000005f52602260045260245ffd5b5f6002820490506001821680620002ac57607f821691505b602082108103620002c257620002c162000267565b5b50919050565b5f819050815f5260205f209050919050565b5f6020601f8301049050919050565b5f82821b905092915050565b5f60088302620003267fffffffffffffffffffffffffffffffffffffffffffffffffffffffffffffffff82620002e9565b620003328683620002e9565b95508019841693508086168417925050509392505050565b5f819050919050565b5f620003736200036d6200036784620001c8565b6200034a565b620001c8565b9050919050565b5f819050919050565b6200038e8362000353565b620003a66200039d826200037a565b848454620002f5565b825550505050565b5f90565b620003bc620003ae565b620003c981848462000383565b505050565b5b81811015620003f057620003e45f82620003b2565b600181019050620003cf565b5050565b601f8211156200043f576200040981620002c8565b6200041484620002da565b8101602085101562000424578190505b6200043c6200043385620002da565b830182620003ce565b50505b505050565b5f82821c905092915050565b5f620004615f198460080262000444565b1980831691505092915050565b5f6200047b838362000450565b9150826002028217905092915050565b620004968262000230565b67ffffffffffffffff811115620004b257620004b16200023a565b5b620004be825462000294565b620004cb828285620003f4565b5f60209050601f83116001811462000501575f8415620004ec578287015190505b620004f885826200046e565b86555062000567565b601f1984166200051186620002c8565b5f5b828110156200053a5784890151825560018201915060208501945060208101905062000513565b868310156200055a578489015162000556601f89168262000450565b8355505b6001600288020188555050505b505050505050565b612b2d806200057d5f395ff3fe608060405234801561000f575f80fd5b5060043610610171575f3560e01c806374d5a195116100dc578063a22cb46511610095578063cc20ffa41161006f578063cc20ffa41461045b578063df0c31981461048b578063e985e9c5146104a7578063f2fde38b146104d757610171565b8063a22cb465146103f3578063b88d4fde1461040f578063c87b56dd1461042b57610171565b806374d5a1951461032f57806375794a3c1461035f57806387a7dc771461037d5780638da5cb5b1461039957806395d89b41146103b75780639c9f263c146103d557610171565b80633ae64e0c1161012e5780633ae64e0c1461024957806342842e0e146102795780636352211e1461029557806368ce5c96146102c557806370a08231146102f5578063715018a61461032557610171565b806301ffc9a71461017557806306fdde03146101a5578063081812fc146101c3578063095ea7b3146101f357806323b872dd1461020f5780633a98ef391461022b575b5f80fd5b61018f600480360381019061018a9190611f9a565b6104f3565b60405161019c9190611fdf565b60405180910390f35b6101ad610553565b6040516101ba9190612082565b60405180910390f35b6101dd60048036038101906101d891906120d5565b6105e2565b6040516101ea919061213f565b60405180910390f35b61020d60048036038101906102089190612182565b6105fd565b005b610229600480360381019061022491906121c0565b610613565b005b610233610712565b604051610240919061221f565b60405180910390f35b610263600480360381019061025e91906120d5565b610718565b604051610270919061221f565b60405180910390f35b610293600480360381019061028e91906121c0565b61072d565b005b6102af60048036038101906102aa91906120d5565b61074c565b6040516102bc919061213f565b60405180910390f35b6102df60048036038101906102da9190612238565b61075d565b6040516102ec919061221f565b60405180910390f35b61030f600480360381019061030a9190612238565b6107a3565b60405161031c919061221f565b60405180910390f35b61032d610859565b005b610349600480360381019061034491906120d5565b61086c565b604051610356919061221f565b60405180910390f35b610367610886565b604051610374919061221f565b60405180910390f35b61039760048036038101906103929190612263565b61088c565b005b6103a1610b00565b6040516103ae919061213f565b60405180910390f35b6103bf610b28565b6040516103cc9190612082565b60405180910390f35b6103dd610bb8565b6040516103ea919061221f565b60405180910390f35b61040d600480360381019061040891906122dd565b610bbe565b005b61042960048036038101906104249190612447565b610bd4565b005b610445600480360381019061044091906120d5565b610bf1565b6040516104529190612082565b60405180910390f35b61047560048036038101906104709190612238565b610cfc565b604051610482919061221f565b60405180910390f35b6104a560048036038101906104a091906124c7565b610d11565b005b6104c160048036038101906104bc9190612505565b610e14565b6040516104ce9190611fdf565b60405180910390f35b6104f160048036038101906104ec9190612238565b610ea2565b005b5f634906490660e01b7bffffffffffffffffffffffffffffffffffffffffffffffffffffffff1916827bffffffffffffffffffffffffffffffffffffffffffffffffffffffff1916148061054c575061054b82610f24565b5b9050919050565b60605f805461056190612570565b80601f016020809104026020016040519081016040528092919081815260200182805461058d90612570565b80156105d85780601f106105af576101008083540402835291602001916105d8565b820191905f5260205f20905b8154815290600101906020018083116105bb57829003601f168201915b5050505050905090565b5f6105ec82611005565b506105f68261108b565b9050919050565b61060f828261060a6110c4565b6110cb565b5050565b5f73ffffffffffffffffffffffffffffffffffffffff168273ffffffffffffffffffffffffffffffffffffffff1603610683575f6040517f64a0ae9200000000000000000000000000000000000000000000000000000000815260040161067a919061213f565b60405180910390fd5b5f61069683836106916110c4565b6110dd565b90508373ffffffffffffffffffffffffffffffffffffffff168173ffffffffffffffffffffffffffffffffffffffff161461070c578382826040517f64283d7b000000000000000000000000000000000000000000000000000000008152600401610703939291906125a0565b60405180910390fd5b50505050565b60085481565b600b602052805f5260405f205f915090505481565b61074783838360405180602001604052805f815250610bd4565b505050565b5f61075682611005565b9050919050565b5f600c5f8373ffffffffffffffffffffffffffffffffffffffff1673ffffffffffffffffffffffffffffffffffffffff1681526020019081526020015f20549050919050565b5f8073ffffffffffffffffffffffffffffffffffffffff168273ffffffffffffffffffffffffffffffffffffffff1603610814575f6040517f89c62b6400000000000000000000000000000000000000000000000000000000815260040161080b919061213f565b60405180910390fd5b60035f8373ffffffffffffffffffffffffffffffffffffffff1673ffffffffffffffffffffffffffffffffffffffff1681526020019081526020015f20549050919050565b6108616112e8565b61086a5f611366565b565b5f600b5f8381526020019081526020015f20549050919050565b600a5481565b3373ffffffffffffffffffffffffffffffffffffffff166108ac8461074c565b73ffffffffffffffffffffffffffffffffffffffff1614610902576040517f08c379a00000000000000000000000000000000000000000000000000000000081526004016108f990612645565b60405180910390fd5b81600b5f8581526020019081526020015f20541015610956576040517f08c379a000000000000000000000000000000000000000000000000000000000815260040161094d906126ad565b60405180910390fd5b5f8211610998576040517f08c379a000000000000000000000000000000000000000000000000000000000815260040161098f90612715565b60405180910390fd5b5f82600b5f8681526020019081526020015f20546109b69190612760565b90506109c184611429565b5f600b5f8681526020019081526020015f20819055505f811115610a1a575f600a5f8154809291906109f290612793565b919050559050610a0233826114ab565b81600b5f8381526020019081526020015f2081905550505b5f600a5f815480929190610a2d90612793565b919050559050610a3d83826114ab565b83600b5f8381526020019081526020015f208190555083600c5f3373ffffffffffffffffffffffffffffffffffffffff1673ffffffffffffffffffffffffffffffffffffffff1681526020019081526020015f205f828254610a9f9190612760565b9250508190555083600c5f8573ffffffffffffffffffffffffffffffffffffffff1673ffffffffffffffffffffffffffffffffffffffff1681526020019081526020015f205f828254610af291906127da565b925050819055505050505050565b5f60075f9054906101000a900473ffffffffffffffffffffffffffffffffffffffff16905090565b606060018054610b3790612570565b80601f0160208091040260200160405190810160405280929190818152602001828054610b6390612570565b8015610bae5780601f10610b8557610100808354040283529160200191610bae565b820191905f5260205f20905b815481529060010190602001808311610b9157829003601f168201915b5050505050905090565b60095481565b610bd0610bc96110c4565b838361159e565b5050565b610bdf848484610613565b610beb84848484611707565b50505050565b6060610bfc82611005565b505f60065f8481526020019081526020015f208054610c1a90612570565b80601f0160208091040260200160405190810160405280929190818152602001828054610c4690612570565b8015610c915780601f10610c6857610100808354040283529160200191610c91565b820191905f5260205f20905b815481529060010190602001808311610c7457829003601f168201915b505050505090505f610ca16118b9565b90505f815103610cb5578192505050610cf7565b5f82511115610ce9578082604051602001610cd1929190612847565b60405160208183030381529060405292505050610cf7565b610cf2846118cf565b925050505b919050565b600c602052805f5260405f205f915090505481565b610d196112e8565b60085482600954610d2a91906127da565b1115610d6b576040517f08c379a0000000000000000000000000000000000000000000000000000000008152600401610d62906128b4565b60405180910390fd5b5f600a5f815480929190610d7e90612793565b919050559050610d8e82826114ab565b82600b5f8381526020019081526020015f20819055508260095f828254610db591906127da565b9250508190555082600c5f8473ffffffffffffffffffffffffffffffffffffffff1673ffffffffffffffffffffffffffffffffffffffff1681526020019081526020015f205f828254610e0891906127da565b92505081905550505050565b5f60055f8473ffffffffffffffffffffffffffffffffffffffff1673ffffffffffffffffffffffffffffffffffffffff1681526020019081526020015f205f8373ffffffffffffffffffffffffffffffffffffffff1673ffffffffffffffffffffffffffffffffffffffff1681526020019081526020015f205f9054906101000a900460ff16905092915050565b610eaa6112e8565b5f73ffffffffffffffffffffffffffffffffffffffff168173ffffffffffffffffffffffffffffffffffffffff1603610f18576040517f08c379a0000000000000000000000000000000000000000000000000000000008152600401610f0f90612942565b60405180910390fd5b610f2181611366565b50565b5f7f80ac58cd000000000000000000000000000000000000000000000000000000007bffffffffffffffffffffffffffffffffffffffffffffffffffffffff1916827bffffffffffffffffffffffffffffffffffffffffffffffffffffffff19161480610fee57507f5b5e139f000000000000000000000000000000000000000000000000000000007bffffffffffffffffffffffffffffffffffffffffffffffffffffffff1916827bffffffffffffffffffffffffffffffffffffffffffffffffffffffff1916145b80610ffe5750610ffd82611935565b5b9050919050565b5f806110108361199e565b90505f73ffffffffffffffffffffffffffffffffffffffff168173ffffffffffffffffffffffffffffffffffffffff160361108257826040517f7e273289000000000000000000000000000000000000000000000000000000008152600401611079919061221f565b60405180910390fd5b80915050919050565b5f60045f8381526020019081526020015f205f9054906101000a900473ffffffffffffffffffffffffffffffffffffffff169050919050565b5f33905090565b6110d883838360016119d7565b505050565b5f806110e88461199e565b90505f73ffffffffffffffffffffffffffffffffffffffff168373ffffffffffffffffffffffffffffffffffffffff161461112957611128818486611b96565b5b5f73ffffffffffffffffffffffffffffffffffffffff168173ffffffffffffffffffffffffffffffffffffffff16146111b4576111685f855f806119d7565b600160035f8373ffffffffffffffffffffffffffffffffffffffff1673ffffffffffffffffffffffffffffffffffffffff1681526020019081526020015f205f82825403925050819055505b5f73ffffffffffffffffffffffffffffffffffffffff168573ffffffffffffffffffffffffffffffffffffffff161461123357600160035f8773ffffffffffffffffffffffffffffffffffffffff1673ffffffffffffffffffffffffffffffffffffffff1681526020019081526020015f205f82825401925050819055505b8460025f8681526020019081526020015f205f6101000a81548173ffffffffffffffffffffffffffffffffffffffff021916908373ffffffffffffffffffffffffffffffffffffffff160217905550838573ffffffffffffffffffffffffffffffffffffffff168273ffffffffffffffffffffffffffffffffffffffff167fddf252ad1be2c89b69c2b068fc378daa952ba7f163c4a11628f55a4df523b3ef60405160405180910390a4809150509392505050565b6112f06110c4565b73ffffffffffffffffffffffffffffffffffffffff1661130e610b00565b73ffffffffffffffffffffffffffffffffffffffff1614611364576040517f08c379a000000000000000000000000000000000000000000000000000000000815260040161135b906129aa565b60405180910390fd5b565b5f60075f9054906101000a900473ffffffffffffffffffffffffffffffffffffffff1690508160075f6101000a81548173ffffffffffffffffffffffffffffffffffffffff021916908373ffffffffffffffffffffffffffffffffffffffff1602179055508173ffffffffffffffffffffffffffffffffffffffff168173ffffffffffffffffffffffffffffffffffffffff167f8be0079c531659141344cd1fd0a4f28419497f9722a3daafe3b4186f6b6457e060405160405180910390a35050565b5f6114355f835f6110dd565b90505f73ffffffffffffffffffffffffffffffffffffffff168173ffffffffffffffffffffffffffffffffffffffff16036114a757816040517f7e27328900000000000000000000000000000000000000000000000000000000815260040161149e919061221f565b60405180910390fd5b5050565b5f73ffffffffffffffffffffffffffffffffffffffff168273ffffffffffffffffffffffffffffffffffffffff160361151b575f6040517f64a0ae92000000000000000000000000000000000000000000000000000000008152600401611512919061213f565b60405180910390fd5b5f61152783835f6110dd565b90505f73ffffffffffffffffffffffffffffffffffffffff168173ffffffffffffffffffffffffffffffffffffffff1614611599575f6040517f73c6ac6e000000000000000000000000000000000000000000000000000000008152600401611590919061213f565b60405180910390fd5b505050565b5f73ffffffffffffffffffffffffffffffffffffffff168273ffffffffffffffffffffffffffffffffffffffff160361160e57816040517f5b08ba18000000000000000000000000000000000000000000000000000000008152600401611605919061213f565b60405180910390fd5b8060055f8573ffffffffffffffffffffffffffffffffffffffff1673ffffffffffffffffffffffffffffffffffffffff1681526020019081526020015f205f8473ffffffffffffffffffffffffffffffffffffffff1673ffffffffffffffffffffffffffffffffffffffff1681526020019081526020015f205f6101000a81548160ff0219169083151502179055508173ffffffffffffffffffffffffffffffffffffffff168373ffffffffffffffffffffffffffffffffffffffff167f17307eab39ab6107e8899845ad3d59bd9653f200f220920489ca2b5937696c31836040516116fa9190611fdf565b60405180910390a3505050565b5f8373ffffffffffffffffffffffffffffffffffffffff163b11156118b3578273ffffffffffffffffffffffffffffffffffffffff1663150b7a0261174a6110c4565b8685856040518563ffffffff1660e01b815260040161176c9493929190612a1a565b6020604051808303815f875af19250505080156117a757506040513d601f19601f820116820180604052508101906117a49190612a78565b60015b611828573d805f81146117d5576040519150601f19603f3d011682016040523d82523d5f602084013e6117da565b606091505b505f81510361182057836040517f64a0ae92000000000000000000000000000000000000000000000000000000008152600401611817919061213f565b60405180910390fd5b805181602001fd5b63150b7a0260e01b7bffffffffffffffffffffffffffffffffffffffffffffffffffffffff1916817bffffffffffffffffffffffffffffffffffffffffffffffffffffffff1916146118b157836040517f64a0ae920000000000000000000000000000000000000000000000000000000081526004016118a8919061213f565b60405180910390fd5b505b50505050565b606060405180602001604052805f815250905090565b60606118da82611005565b505f6118e46118b9565b90505f8151116119025760405180602001604052805f81525061192d565b8061190c84611c59565b60405160200161191d929190612847565b6040516020818303038152906040525b915050919050565b5f7f01ffc9a7000000000000000000000000000000000000000000000000000000007bffffffffffffffffffffffffffffffffffffffffffffffffffffffff1916827bffffffffffffffffffffffffffffffffffffffffffffffffffffffff1916149050919050565b5f60025f8381526020019081526020015f205f9054906101000a900473ffffffffffffffffffffffffffffffffffffffff169050919050565b8080611a0f57505f73ffffffffffffffffffffffffffffffffffffffff168273ffffffffffffffffffffffffffffffffffffffff1614155b15611b41575f611a1e84611005565b90505f73ffffffffffffffffffffffffffffffffffffffff168373ffffffffffffffffffffffffffffffffffffffff1614158015611a8857508273ffffffffffffffffffffffffffffffffffffffff168173ffffffffffffffffffffffffffffffffffffffff1614155b8015611a9b5750611a998184610e14565b155b15611add57826040517fa9fbf51f000000000000000000000000000000000000000000000000000000008152600401611ad4919061213f565b60405180910390fd5b8115611b3f57838573ffffffffffffffffffffffffffffffffffffffff168273ffffffffffffffffffffffffffffffffffffffff167f8c5be1e5ebec7d5bd14f71427d1e84f3dd0314c0f7b2291e5b200ac8c7c3b92560405160405180910390a45b505b8360045f8581526020019081526020015f205f6101000a81548173ffffffffffffffffffffffffffffffffffffffff021916908373ffffffffffffffffffffffffffffffffffffffff16021790555050505050565b611ba1838383611d23565b611c54575f73ffffffffffffffffffffffffffffffffffffffff168373ffffffffffffffffffffffffffffffffffffffff1603611c1557806040517f7e273289000000000000000000000000000000000000000000000000000000008152600401611c0c919061221f565b60405180910390fd5b81816040517f177e802f000000000000000000000000000000000000000000000000000000008152600401611c4b929190612aa3565b60405180910390fd5b505050565b60605f6001611c6784611de3565b0190505f8167ffffffffffffffff811115611c8557611c84612323565b5b6040519080825280601f01601f191660200182016040528015611cb75781602001600182028036833780820191505090505b5090505f82602001820190505b600115611d18578080600190039150507f3031323334353637383961626364656600000000000000000000000000000000600a86061a8153600a8581611d0d57611d0c612aca565b5b0494505f8503611cc4575b819350505050919050565b5f8073ffffffffffffffffffffffffffffffffffffffff168373ffffffffffffffffffffffffffffffffffffffff1614158015611dda57508273ffffffffffffffffffffffffffffffffffffffff168473ffffffffffffffffffffffffffffffffffffffff161480611d9b5750611d9a8484610e14565b5b80611dd957508273ffffffffffffffffffffffffffffffffffffffff16611dc18361108b565b73ffffffffffffffffffffffffffffffffffffffff16145b5b90509392505050565b5f805f90507a184f03e93ff9f4daa797ed6e38ed64bf6a1f0100000000000000008310611e3f577a184f03e93ff9f4daa797ed6e38ed64bf6a1f0100000000000000008381611e3557611e34612aca565b5b0492506040810190505b6d04ee2d6d415b85acef81000000008310611e7c576d04ee2d6d415b85acef81000000008381611e7257611e71612aca565b5b0492506020810190505b662386f26fc100008310611eab57662386f26fc100008381611ea157611ea0612aca565b5b0492506010810190505b6305f5e1008310611ed4576305f5e1008381611eca57611ec9612aca565b5b0492506008810190505b6127108310611ef9576127108381611eef57611eee612aca565b5b0492506004810190505b60648310611f1c5760648381611f1257611f11612aca565b5b0492506002810190505b600a8310611f2b576001810190505b80915050919050565b5f604051905090565b5f80fd5b5f80fd5b5f7fffffffff0000000000000000000000000000000000000000000000000000000082169050919050565b611f7981611f45565b8114611f83575f80fd5b50565b5f81359050611f9481611f70565b92915050565b5f60208284031215611faf57611fae611f3d565b5b5f611fbc84828501611f86565b91505092915050565b5f8115159050919050565b611fd981611fc5565b82525050565b5f602082019050611ff25f830184611fd0565b92915050565b5f81519050919050565b5f82825260208201905092915050565b5f5b8381101561202f578082015181840152602081019050612014565b5f8484015250505050565b5f601f19601f8301169050919050565b5f61205482611ff8565b61205e8185612002565b935061206e818560208601612012565b6120778161203a565b840191505092915050565b5f6020820190508181035f83015261209a818461204a565b905092915050565b5f819050919050565b6120b4816120a2565b81146120be575f80fd5b50565b5f813590506120cf816120ab565b92915050565b5f602082840312156120ea576120e9611f3d565b5b5f6120f7848285016120c1565b91505092915050565b5f73ffffffffffffffffffffffffffffffffffffffff82169050919050565b5f61212982612100565b9050919050565b6121398161211f565b82525050565b5f6020820190506121525f830184612130565b92915050565b6121618161211f565b811461216b575f80fd5b50565b5f8135905061217c81612158565b92915050565b5f806040838503121561219857612197611f3d565b5b5f6121a58582860161216e565b92505060206121b6858286016120c1565b9150509250929050565b5f805f606084860312156121d7576121d6611f3d565b5b5f6121e48682870161216e565b93505060206121f58682870161216e565b9250506040612206868287016120c1565b9150509250925092565b612219816120a2565b82525050565b5f6020820190506122325f830184612210565b92915050565b5f6020828403121561224d5761224c611f3d565b5b5f61225a8482850161216e565b91505092915050565b5f805f6060848603121561227a57612279611f3d565b5b5f612287868287016120c1565b9350506020612298868287016120c1565b92505060406122a98682870161216e565b9150509250925092565b6122bc81611fc5565b81146122c6575f80fd5b50565b5f813590506122d7816122b3565b92915050565b5f80604083850312156122f3576122f2611f3d565b5b5f6123008582860161216e565b9250506020612311858286016122c9565b9150509250929050565b5f80fd5b5f80fd5b7f4e487b71000000000000000000000000000000000000000000000000000000005f52604160045260245ffd5b6123598261203a565b810181811067ffffffffffffffff8211171561237857612377612323565b5b80604052505050565b5f61238a611f34565b90506123968282612350565b919050565b5f67ffffffffffffffff8211156123b5576123b4612323565b5b6123be8261203a565b9050602081019050919050565b828183375f83830152505050565b5f6123eb6123e68461239b565b612381565b9050828152602081018484840111156124075761240661231f565b5b6124128482856123cb565b509392505050565b5f82601f83011261242e5761242d61231b565b5b813561243e8482602086016123d9565b91505092915050565b5f805f806080858703121561245f5761245e611f3d565b5b5f61246c8782880161216e565b945050602061247d8782880161216e565b935050604061248e878288016120c1565b925050606085013567ffffffffffffffff8111156124af576124ae611f41565b5b6124bb8782880161241a565b91505092959194509250565b5f80604083850312156124dd576124dc611f3d565b5b5f6124ea858286016120c1565b92505060206124fb8582860161216e565b9150509250929050565b5f806040838503121561251b5761251a611f3d565b5b5f6125288582860161216e565b92505060206125398582860161216e565b9150509250929050565b7f4e487b71000000000000000000000000000000000000000000000000000000005f52602260045260245ffd5b5f600282049050600182168061258757607f821691505b60208210810361259a57612599612543565b5b50919050565b5f6060820190506125b35f830186612130565b6125c06020830185612210565b6125cd6040830184612130565b949350505050565b7f4f6e6c7920746f6b656e206f776e65722063616e207472616e736665722073685f8201527f6172657300000000000000000000000000000000000000000000000000000000602082015250565b5f61262f602483612002565b915061263a826125d5565b604082019050919050565b5f6020820190508181035f83015261265c81612623565b9050919050565b7f4e6f7420656e6f75676820736861726573206f6e20746f6b656e0000000000005f82015250565b5f612697601a83612002565b91506126a282612663565b602082019050919050565b5f6020820190508181035f8301526126c48161268b565b9050919050565b7f536861726573206d75737420626520706f7369746976650000000000000000005f82015250565b5f6126ff601783612002565b915061270a826126cb565b602082019050919050565b5f6020820190508181035f83015261272c816126f3565b9050919050565b7f4e487b71000000000000000000000000000000000000000000000000000000005f52601160045260245ffd5b5f61276a826120a2565b9150612775836120a2565b925082820390508181111561278d5761278c612733565b5b92915050565b5f61279d826120a2565b91507fffffffffffffffffffffffffffffffffffffffffffffffffffffffffffffffff82036127cf576127ce612733565b5b600182019050919050565b5f6127e4826120a2565b91506127ef836120a2565b925082820190508082111561280757612806612733565b5b92915050565b5f81905092915050565b5f61282182611ff8565b61282b818561280d565b935061283b818560208601612012565b80840191505092915050565b5f6128528285612817565b915061285e8284612817565b91508190509392505050565b7f4e6f7420656e6f7567682073686172657320617661696c61626c6500000000005f82015250565b5f61289e601b83612002565b91506128a98261286a565b602082019050919050565b5f6020820190508181035f8301526128cb81612892565b9050919050565b7f4f776e61626c653a206e6577206f776e657220697320746865207a65726f20615f8201527f6464726573730000000000000000000000000000000000000000000000000000602082015250565b5f61292c602683612002565b9150612937826128d2565b604082019050919050565b5f6020820190508181035f83015261295981612920565b9050919050565b7f4f776e61626c653a2063616c6c6572206973206e6f7420746865206f776e65725f82015250565b5f612994602083612002565b915061299f82612960565b602082019050919050565b5f6020820190508181035f8301526129c181612988565b9050919050565b5f81519050919050565b5f82825260208201905092915050565b5f6129ec826129c8565b6129f681856129d2565b9350612a06818560208601612012565b612a0f8161203a565b840191505092915050565b5f608082019050612a2d5f830187612130565b612a3a6020830186612130565b612a476040830185612210565b8181036060830152612a5981846129e2565b905095945050505050565b5f81519050612a7281611f70565b92915050565b5f60208284031215612a8d57612a8c611f3d565b5b5f612a9a84828501612a64565b91505092915050565b5f604082019050612ab65f830185612130565b612ac36020830184612210565b9392505050565b7f4e487b71000000000000000000000000000000000000000000000000000000005f52601260045260245ffdfea26469706673582212202e660a693bebeea43eb59183a29fc31e2d98f6df07791247a9e79c8ceca3411964736f6c63430008150033",
					"opcodes": "PUSH1 0x80 PUSH1 0x40 MSTORE PUSH1 0x1 PUSH1 0xA SSTORE CALLVALUE DUP1 ISZERO PUSH3 0x15 JUMPI PUSH0 DUP1 REVERT JUMPDEST POP PUSH1 0x40 MLOAD PUSH3 0x30AA CODESIZE SUB DUP1 PUSH3 0x30AA DUP4 CODECOPY DUP2 DUP2 ADD PUSH1 0x40 MSTORE DUP2 ADD SWAP1 PUSH3 0x3B SWAP2 SWAP1 PUSH3 0x200 JUMP JUMPDEST PUSH1 0x40 MLOAD DUP1 PUSH1 0x40 ADD PUSH1 0x40 MSTORE DUP1 PUSH1 0xA DUP2 MSTORE PUSH1 0x20 ADD PUSH32 0x4173736574536861726500000000000000000000000000000000000000000000 DUP2 MSTORE POP PUSH1 0x40 MLOAD DUP1 PUSH1 0x40 ADD PUSH1 0x40 MSTORE DUP1 PUSH1 0x3 DUP2 MSTORE PUSH1 0x20 ADD PUSH32 0x4153480000000000000000000000000000000000000000000000000000000000 DUP2 MSTORE POP DUP2 PUSH0 SWAP1 DUP2 PUSH3 0xB7 SWAP2 SWAP1 PUSH3 0x48B JUMP JUMPDEST POP DUP1 PUSH1 0x1 SWAP1 DUP2 PUSH3 0xC9 SWAP2 SWAP1 PUSH3 0x48B JUMP JUMPDEST POP POP POP PUSH3 0xEC PUSH3 0xE0 PUSH3 0xFA PUSH1 0x20 SHL PUSH1 0x20 SHR JUMP JUMPDEST PUSH3 0x101 PUSH1 0x20 SHL PUSH1 0x20 SHR JUMP JUMPDEST DUP1 PUSH1 0x8 DUP2 SWAP1 SSTORE POP POP PUSH3 0x56F JUMP JUMPDEST PUSH0 CALLER SWAP1 POP SWAP1 JUMP JUMPDEST PUSH0 PUSH1 0x7 PUSH0 SWAP1 SLOAD SWAP1 PUSH2 0x100 EXP SWAP1 DIV PUSH20 0xFFFFFFFFFFFFFFFFFFFFFFFFFFFFFFFFFFFFFFFF AND SWAP1 POP DUP2 PUSH1 0x7 PUSH0 PUSH2 0x100 EXP DUP2 SLOAD DUP2 PUSH20 0xFFFFFFFFFFFFFFFFFFFFFFFFFFFFFFFFFFFFFFFF MUL NOT AND SWAP1 DUP4 PUSH20 0xFFFFFFFFFFFFFFFFFFFFFFFFFFFFFFFFFFFFFFFF AND MUL OR SWAP1 SSTORE POP DUP2 PUSH20 0xFFFFFFFFFFFFFFFFFFFFFFFFFFFFFFFFFFFFFFFF AND DUP2 PUSH20 0xFFFFFFFFFFFFFFFFFFFFFFFFFFFFFFFFFFFFFFFF AND PUSH32 0x8BE0079C531659141344CD1FD0A4F28419497F9722A3DAAFE3B4186F6B6457E0 PUSH1 0x40 MLOAD PUSH1 0x40 MLOAD DUP1 SWAP2 SUB SWAP1 LOG3 POP POP JUMP JUMPDEST PUSH0 DUP1 REVERT JUMPDEST PUSH0 DUP2 SWAP1 POP SWAP2 SWAP1 POP JUMP JUMPDEST PUSH3 0x1DC DUP2 PUSH3 0x1C8 JUMP JUMPDEST DUP2 EQ PUSH3 0x1E7 JUMPI PUSH0 DUP1 REVERT JUMPDEST POP JUMP JUMPDEST PUSH0 DUP2 MLOAD SWAP1 POP PUSH3 0x1FA DUP2 PUSH3 0x1D1 JUMP JUMPDEST SWAP3 SWAP2 POP POP JUMP JUMPDEST PUSH0 PUSH1 0x20 DUP3 DUP5 SUB SLT ISZERO PUSH3 0x218 JUMPI PUSH3 0x217 PUSH3 0x1C4 JUMP JUMPDEST JUMPDEST PUSH0 PUSH3 0x227 DUP5 DUP3 DUP6 ADD PUSH3 0x1EA JUMP JUMPDEST SWAP2 POP POP SWAP3 SWAP2 POP POP JUMP JUMPDEST PUSH0 DUP2 MLOAD SWAP1 POP SWAP2 SWAP1 POP JUMP JUMPDEST PUSH32 0x4E487B7100000000000000000000000000000000000000000000000000000000 PUSH0 MSTORE PUSH1 0x41 PUSH1 0x4 MSTORE PUSH1 0x24 PUSH0 REVERT JUMPDEST PUSH32 0x4E487B7100000000000000000000000000000000000000000000000000000000 PUSH0 MSTORE PUSH1 0x22 PUSH1 0x4 MSTORE PUSH1 0x24 PUSH0 REVERT JUMPDEST PUSH0 PUSH1 0x2 DUP3 DIV SWAP1 POP PUSH1 0x1 DUP3 AND DUP1 PUSH3 0x2AC JUMPI PUSH1 0x7F DUP3 AND SWAP2 POP JUMPDEST PUSH1 0x20 DUP3 LT DUP2 SUB PUSH3 0x2C2 JUMPI PUSH3 0x2C1 PUSH3 0x267 JUMP JUMPDEST JUMPDEST POP SWAP2 SWAP1 POP JUMP JUMPDEST PUSH0 DUP2 SWAP1 POP DUP2 PUSH0 MSTORE PUSH1 0x20 PUSH0 KECCAK256 SWAP1 POP SWAP2 SWAP1 POP JUMP JUMPDEST PUSH0 PUSH1 0x20 PUSH1 0x1F DUP4 ADD DIV SWAP1 POP SWAP2 SWAP1 POP JUMP JUMPDEST PUSH0 DUP3 DUP3 SHL SWAP1 POP SWAP3 SWAP2 POP POP JUMP JUMPDEST PUSH0 PUSH1 0x8 DUP4 MUL PUSH3 0x326 PUSH32 0xFFFFFFFFFFFFFFFFFFFFFFFFFFFFFFFFFFFFFFFFFFFFFFFFFFFFFFFFFFFFFFFF DUP3 PUSH3 0x2E9 JUMP JUMPDEST PUSH3 0x332 DUP7 DUP4 PUSH3 0x2E9 JUMP JUMPDEST SWAP6 POP DUP1 NOT DUP5 AND SWAP4 POP DUP1 DUP7 AND DUP5 OR SWAP3 POP POP POP SWAP4 SWAP3 POP POP POP JUMP JUMPDEST PUSH0 DUP2 SWAP1 POP SWAP2 SWAP1 POP JUMP JUMPDEST PUSH0 PUSH3 0x373 PUSH3 0x36D PUSH3 0x367 DUP5 PUSH3 0x1C8 JUMP JUMPDEST PUSH3 0x34A JUMP JUMPDEST PUSH3 0x1C8 JUMP JUMPDEST SWAP1 POP SWAP2 SWAP1 POP JUMP JUMPDEST PUSH0 DUP2 SWAP1 POP SWAP2 SWAP1 POP JUMP JUMPDEST PUSH3 0x38E DUP4 PUSH3 0x353 JUMP JUMPDEST PUSH3 0x3A6 PUSH3 0x39D DUP3 PUSH3 0x37A JUMP JUMPDEST DUP5 DUP5 SLOAD PUSH3 0x2F5 JUMP JUMPDEST DUP3 SSTORE POP POP POP POP JUMP JUMPDEST PUSH0 SWAP1 JUMP JUMPDEST PUSH3 0x3BC PUSH3 0x3AE JUMP JUMPDEST PUSH3 0x3C9 DUP2 DUP5 DUP5 PUSH3 0x383 JUMP JUMPDEST POP POP POP JUMP JUMPDEST JUMPDEST DUP2 DUP2 LT ISZERO PUSH3 0x3F0 JUMPI PUSH3 0x3E4 PUSH0 DUP3 PUSH3 0x3B2 JUMP JUMPDEST PUSH1 0x1 DUP2 ADD SWAP1 POP PUSH3 0x3CF JUMP JUMPDEST POP POP JUMP JUMPDEST PUSH1 0x1F DUP3 GT ISZERO PUSH3 0x43F JUMPI PUSH3 0x409 DUP2 PUSH3 0x2C8 JUMP JUMPDEST PUSH3 0x414 DUP5 PUSH3 0x2DA JUMP JUMPDEST DUP2 ADD PUSH1 0x20 DUP6 LT ISZERO PUSH3 0x424 JUMPI DUP2 SWAP1 POP JUMPDEST PUSH3 0x43C PUSH3 0x433 DUP6 PUSH3 0x2DA JUMP JUMPDEST DUP4 ADD DUP3 PUSH3 0x3CE JUMP JUMPDEST POP POP JUMPDEST POP POP POP JUMP JUMPDEST PUSH0 DUP3 DUP3 SHR SWAP1 POP SWAP3 SWAP2 POP POP JUMP JUMPDEST PUSH0 PUSH3 0x461 PUSH0 NOT DUP5 PUSH1 0x8 MUL PUSH3 0x444 JUMP JUMPDEST NOT DUP1 DUP4 AND SWAP2 POP POP SWAP3 SWAP2 POP POP JUMP JUMPDEST PUSH0 PUSH3 0x47B DUP4 DUP4 PUSH3 0x450 JUMP JUMPDEST SWAP2 POP DUP3 PUSH1 0x2 MUL DUP3 OR SWAP1 POP SWAP3 SWAP2 POP POP JUMP JUMPDEST PUSH3 0x496 DUP3 PUSH3 0x230 JUMP JUMPDEST PUSH8 0xFFFFFFFFFFFFFFFF DUP2 GT ISZERO PUSH3 0x4B2 JUMPI PUSH3 0x4B1 PUSH3 0x23A JUMP JUMPDEST JUMPDEST PUSH3 0x4BE DUP3 SLOAD PUSH3 0x294 JUMP JUMPDEST PUSH3 0x4CB DUP3 DUP3 DUP6 PUSH3 0x3F4 JUMP JUMPDEST PUSH0 PUSH1 0x20 SWAP1 POP PUSH1 0x1F DUP4 GT PUSH1 0x1 DUP2 EQ PUSH3 0x501 JUMPI PUSH0 DUP5 ISZERO PUSH3 0x4EC JUMPI DUP3 DUP8 ADD MLOAD SWAP1 POP JUMPDEST PUSH3 0x4F8 DUP6 DUP3 PUSH3 0x46E JUMP JUMPDEST DUP7 SSTORE POP PUSH3 0x567 JUMP JUMPDEST PUSH1 0x1F NOT DUP5 AND PUSH3 0x511 DUP7 PUSH3 0x2C8 JUMP JUMPDEST PUSH0 JUMPDEST DUP3 DUP2 LT ISZERO PUSH3 0x53A JUMPI DUP5 DUP10 ADD MLOAD DUP3 SSTORE PUSH1 0x1 DUP3 ADD SWAP2 POP PUSH1 0x20 DUP6 ADD SWAP5 POP PUSH1 0x20 DUP2 ADD SWAP1 POP PUSH3 0x513 JUMP JUMPDEST DUP7 DUP4 LT ISZERO PUSH3 0x55A JUMPI DUP5 DUP10 ADD MLOAD PUSH3 0x556 PUSH1 0x1F DUP10 AND DUP3 PUSH3 0x450 JUMP JUMPDEST DUP4 SSTORE POP JUMPDEST PUSH1 0x1 PUSH1 0x2 DUP9 MUL ADD DUP9 SSTORE POP POP POP JUMPDEST POP POP POP POP POP POP JUMP JUMPDEST PUSH2 0x2B2D DUP1 PUSH3 0x57D PUSH0 CODECOPY PUSH0 RETURN INVALID PUSH1 0x80 PUSH1 0x40 MSTORE CALLVALUE DUP1 ISZERO PUSH2 0xF JUMPI PUSH0 DUP1 REVERT JUMPDEST POP PUSH1 0x4 CALLDATASIZE LT PUSH2 0x171 JUMPI PUSH0 CALLDATALOAD PUSH1 0xE0 SHR DUP1 PUSH4 0x74D5A195 GT PUSH2 0xDC JUMPI DUP1 PUSH4 0xA22CB465 GT PUSH2 0x95 JUMPI DUP1 PUSH4 0xCC20FFA4 GT PUSH2 0x6F JUMPI DUP1 PUSH4 0xCC20FFA4 EQ PUSH2 0x45B JUMPI DUP1 PUSH4 0xDF0C3198 EQ PUSH2 0x48B JUMPI DUP1 PUSH4 0xE985E9C5 EQ PUSH2 0x4A7 JUMPI DUP1 PUSH4 0xF2FDE38B EQ PUSH2 0x4D7 JUMPI PUSH2 0x171 JUMP JUMPDEST DUP1 PUSH4 0xA22CB465 EQ PUSH2 0x3F3 JUMPI DUP1 PUSH4 0xB88D4FDE EQ PUSH2 0x40F JUMPI DUP1 PUSH4 0xC87B56DD EQ PUSH2 0x42B JUMPI PUSH2 0x171 JUMP JUMPDEST DUP1 PUSH4 0x74D5A195 EQ PUSH2 0x32F JUMPI DUP1 PUSH4 0x75794A3C EQ PUSH2 0x35F JUMPI DUP1 PUSH4 0x87A7DC77 EQ PUSH2 0x37D JUMPI DUP1 PUSH4 0x8DA5CB5B EQ PUSH2 0x399 JUMPI DUP1 PUSH4 0x95D89B41 EQ PUSH2 0x3B7 JUMPI DUP1 PUSH4 0x9C9F263C EQ PUSH2 0x3D5 JUMPI PUSH2 0x171 JUMP JUMPDEST DUP1 PUSH4 0x3AE64E0C GT PUSH2 0x12E JUMPI DUP1 PUSH4 0x3AE64E0C EQ PUSH2 0x249 JUMPI DUP1 PUSH4 0x42842E0E EQ PUSH2 0x279 JUMPI DUP1 PUSH4 0x6352211E EQ PUSH2 0x295 JUMPI DUP1 PUSH4 0x68CE5C96 EQ PUSH2 0x2C5 JUMPI DUP1 PUSH4 0x70A08231 EQ PUSH2 0x2F5 JUMPI DUP1 PUSH4 0x715018A6 EQ PUSH2 0x325 JUMPI PUSH2 0x171 JUMP JUMPDEST DUP1 PUSH4 0x1FFC9A7 EQ PUSH2 0x175 JUMPI DUP1 PUSH4 0x6FDDE03 EQ PUSH2 0x1A5 JUMPI DUP1 PUSH4 0x81812FC EQ PUSH2 0x1C3 JUMPI DUP1 PUSH4 0x95EA7B3 EQ PUSH2 0x1F3 JUMPI DUP1 PUSH4 0x23B872DD EQ PUSH2 0x20F JUMPI DUP1 PUSH4 0x3A98EF39 EQ PUSH2 0x22B JUMPI JUMPDEST PUSH0 DUP1 REVERT JUMPDEST PUSH2 0x18F PUSH1 0x4 DUP1 CALLDATASIZE SUB DUP2 ADD SWAP1 PUSH2 0x18A SWAP2 SWAP1 PUSH2 0x1F9A JUMP JUMPDEST PUSH2 0x4F3 JUMP JUMPDEST PUSH1 0x40 MLOAD PUSH2 0x19C SWAP2 SWAP1 PUSH2 0x1FDF JUMP JUMPDEST PUSH1 0x40 MLOAD DUP1 SWAP2 SUB SWAP1 RETURN JUMPDEST PUSH2 0x1AD PUSH2 0x553 JUMP JUMPDEST PUSH1 0x40 MLOAD PUSH2 0x1BA SWAP2 SWAP1 PUSH2 0x2082 JUMP JUMPDEST PUSH1 0x40 MLOAD DUP1 SWAP2 SUB SWAP1 RETURN JUMPDEST PUSH2 0x1DD PUSH1 0x4 DUP1 CALLDATASIZE SUB DUP2 ADD SWAP1 PUSH2 0x1D8 SWAP2 SWAP1 PUSH2 0x20D5 JUMP JUMPDEST PUSH2 0x5E2 JUMP JUMPDEST PUSH1 0x40 MLOAD PUSH2 0x1EA SWAP2 SWAP1 PUSH2 0x213F JUMP JUMPDEST PUSH1 0x40 MLOAD DUP1 SWAP2 SUB SWAP1 RETURN JUMPDEST PUSH2 0x20D PUSH1 0x4 DUP1 CALLDATASIZE SUB DUP2 ADD SWAP1 PUSH2 0x208 SWAP2 SWAP1 PUSH2 0x2182 JUMP JUMPDEST PUSH2 0x5FD JUMP JUMPDEST STOP JUMPDEST PUSH2 0x229 PUSH1 0x4 DUP1 CALLDATASIZE SUB DUP2 ADD SWAP1 PUSH2 0x224 SWAP2 SWAP1 PUSH2 0x21C0 JUMP JUMPDEST PUSH2 0x613 JUMP JUMPDEST STOP JUMPDEST PUSH2 0x233 PUSH2 0x712 JUMP JUMPDEST PUSH1 0x40 MLOAD PUSH2 0x240 SWAP2 SWAP1 PUSH2 0x221F JUMP JUMPDEST PUSH1 0x40 MLOAD DUP1 SWAP2 SUB SWAP1 RETURN JUMPDEST PUSH2 0x263 PUSH1 0x4 DUP1 CALLDATASIZE SUB DUP2 ADD SWAP1 PUSH2 0x25E SWAP2 SWAP1 PUSH2 0x20D5 JUMP JUMPDEST PUSH2 0x718 JUMP JUMPDEST PUSH1 0x40 MLOAD PUSH2 0x270 SWAP2 SWAP1 PUSH2 0x221F JUMP JUMPDEST PUSH1 0x40 MLOAD DUP1 SWAP2 SUB SWAP1 RETURN JUMPDEST PUSH2 0x293 PUSH1 0x4 DUP1 CALLDATASIZE SUB DUP2 ADD SWAP1 PUSH2 0x28E SWAP2 SWAP1 PUSH2 0x21C0 JUMP JUMPDEST PUSH2 0x72D JUMP JUMPDEST STOP JUMPDEST PUSH2 0x2AF PUSH1 0x4 DUP1 CALLDATASIZE SUB DUP2 ADD SWAP1 PUSH2 0x2AA SWAP2 SWAP1 PUSH2 0x20D5 JUMP JUMPDEST PUSH2 0x74C JUMP JUMPDEST PUSH1 0x40 MLOAD PUSH2 0x2BC SWAP2 SWAP1 PUSH2 0x213F JUMP JUMPDEST PUSH1 0x40 MLOAD DUP1 SWAP2 SUB SWAP1 RETURN JUMPDEST PUSH2 0x2DF PUSH1 0x4 DUP1 CALLDATASIZE SUB DUP2 ADD SWAP1 PUSH2 0x2DA SWAP2 SWAP1 PUSH2 0x2238 JUMP JUMPDEST PUSH2 0x75D JUMP JUMPDEST PUSH1 0x40 MLOAD PUSH2 0x2EC SWAP2 SWAP1 PUSH2 0x221F JUMP JUMPDEST PUSH1 0x40 MLOAD DUP1 SWAP2 SUB SWAP1 RETURN JUMPDEST PUSH2 0x30F PUSH1 0x4 DUP1 CALLDATASIZE SUB DUP2 ADD SWAP1 PUSH2 0x30A SWAP2 SWAP1 PUSH2 0x2238 JUMP JUMPDEST PUSH2 0x7A3 JUMP JUMPDEST PUSH1 0x40 MLOAD PUSH2 0x31C SWAP2 SWAP1 PUSH2 0x221F JUMP JUMPDEST PUSH1 0x40 MLOAD DUP1 SWAP2 SUB SWAP1 RETURN JUMPDEST PUSH2 0x32D PUSH2 0x859 JUMP JUMPDEST STOP JUMPDEST PUSH2 0x349 PUSH1 0x4 DUP1 CALLDATASIZE SUB DUP2 ADD SWAP1 PUSH2 0x344 SWAP2 SWAP1 PUSH2 0x20D5 JUMP JUMPDEST PUSH2 0x86C JUMP JUMPDEST PUSH1 0x40 MLOAD PUSH2 0x356 SWAP2 SWAP1 PUSH2 0x221F JUMP JUMPDEST PUSH1 0x40 MLOAD DUP1 SWAP2 SUB SWAP1 RETURN JUMPDEST PUSH2 0x367 PUSH2 0x886 JUMP JUMPDEST PUSH1 0x40 MLOAD PUSH2 0x374 SWAP2 SWAP1 PUSH2 0x221F JUMP JUMPDEST PUSH1 0x40 MLOAD DUP1 SWAP2 SUB SWAP1 RETURN JUMPDEST PUSH2 0x397 PUSH1 0x4 DUP1 CALLDATASIZE SUB DUP2 ADD SWAP1 PUSH2 0x392 SWAP2 SWAP1 PUSH2 0x2263 JUMP JUMPDEST PUSH2 0x88C JUMP JUMPDEST STOP JUMPDEST PUSH2 0x3A1 PUSH2 0xB00 JUMP JUMPDEST PUSH1 0x40 MLOAD PUSH2 0x3AE SWAP2 SWAP1 PUSH2 0x213F JUMP JUMPDEST PUSH1 0x40 MLOAD DUP1 SWAP2 SUB SWAP1 RETURN JUMPDEST PUSH2 0x3BF PUSH2 0xB28 JUMP JUMPDEST PUSH1 0x40 MLOAD PUSH2 0x3CC SWAP2 SWAP1 PUSH2 0x2082 JUMP JUMPDEST PUSH1 0x40 MLOAD DUP1 SWAP2 SUB SWAP1 RETURN JUMPDEST PUSH2 0x3DD PUSH2 0xBB8 JUMP JUMPDEST PUSH1 0x40 MLOAD PUSH2 0x3EA SWAP2 SWAP1 PUSH2 0x221F JUMP JUMPDEST PUSH1 0x40 MLOAD DUP1 SWAP2 SUB SWAP1 RETURN JUMPDEST PUSH2 0x40D PUSH1 0x4 DUP1 CALLDATASIZE SUB DUP2 ADD SWAP1 PUSH2 0x408 SWAP2 SWAP1 PUSH2 0x22DD JUMP JUMPDEST PUSH2 0xBBE JUMP JUMPDEST STOP JUMPDEST PUSH2 0x429 PUSH1 0x4 DUP1 CALLDATASIZE SUB DUP2 ADD SWAP1 PUSH2 0x424 SWAP2 SWAP1 PUSH2 0x2447 JUMP JUMPDEST PUSH2 0xBD4 JUMP JUMPDEST STOP JUMPDEST PUSH2 0x445 PUSH1 0x4 DUP1 CALLDATASIZE SUB DUP2 ADD SWAP1 PUSH2 0x440 SWAP2 SWAP1 PUSH2 0x20D5 JUMP JUMPDEST PUSH2 0xBF1 JUMP JUMPDEST PUSH1 0x40 MLOAD PUSH2 0x452 SWAP2 SWAP1 PUSH2 0x2082 JUMP JUMPDEST PUSH1 0x40 MLOAD DUP1 SWAP2 SUB SWAP1 RETURN JUMPDEST PUSH2 0x475 PUSH1 0x4 DUP1 CALLDATASIZE SUB DUP2 ADD SWAP1 PUSH2 0x470 SWAP2 SWAP1 PUSH2 0x2238 JUMP JUMPDEST PUSH2 0xCFC JUMP JUMPDEST PUSH1 0x40 MLOAD PUSH2 0x482 SWAP2 SWAP1 PUSH2 0x221F JUMP JUMPDEST PUSH1 0x40 MLOAD DUP1 SWAP2 SUB SWAP1 RETURN JUMPDEST PUSH2 0x4A5 PUSH1 0x4 DUP1 CALLDATASIZE SUB DUP2 ADD SWAP1 PUSH2 0x4A0 SWAP2 SWAP1 PUSH2 0x24C7 JUMP JUMPDEST PUSH2 0xD11 JUMP JUMPDEST STOP JUMPDEST PUSH2 0x4C1 PUSH1 0x4 DUP1 CALLDATASIZE SUB DUP2 ADD SWAP1 PUSH2 0x4BC SWAP2 SWAP1 PUSH2 0x2505 JUMP JUMPDEST PUSH2 0xE14 JUMP JUMPDEST PUSH1 0x40 MLOAD PUSH2 0x4CE SWAP2 SWAP1 PUSH2 0x1FDF JUMP JUMPDEST PUSH1 0x40 MLOAD DUP1 SWAP2 SUB SWAP1 RETURN JUMPDEST PUSH2 0x4F1 PUSH1 0x4 DUP1 CALLDATASIZE SUB DUP2 ADD SWAP1 PUSH2 0x4EC SWAP2 SWAP1 PUSH2 0x2238 JUMP JUMPDEST PUSH2 0xEA2 JUMP JUMPDEST STOP JUMPDEST PUSH0 PUSH4 0x49064906 PUSH1 0xE0 SHL PUSH28 0xFFFFFFFFFFFFFFFFFFFFFFFFFFFFFFFFFFFFFFFFFFFFFFFFFFFFFFFF NOT AND DUP3 PUSH28 0xFFFFFFFFFFFFFFFFFFFFFFFFFFFFFFFFFFFFFFFFFFFFFFFFFFFFFFFF NOT AND EQ DUP1 PUSH2 0x54C JUMPI POP PUSH2 0x54B DUP3 PUSH2 0xF24 JUMP JUMPDEST JUMPDEST SWAP1 POP SWAP2 SWAP1 POP JUMP JUMPDEST PUSH1 0x60 PUSH0 DUP1 SLOAD PUSH2 0x561 SWAP1 PUSH2 0x2570 JUMP JUMPDEST DUP1 PUSH1 0x1F ADD PUSH1 0x20 DUP1 SWAP2 DIV MUL PUSH1 0x20 ADD PUSH1 0x40 MLOAD SWAP1 DUP2 ADD PUSH1 0x40 MSTORE DUP1 SWAP3 SWAP2 SWAP1 DUP2 DUP2 MSTORE PUSH1 0x20 ADD DUP3 DUP1 SLOAD PUSH2 0x58D SWAP1 PUSH2 0x2570 JUMP JUMPDEST DUP1 ISZERO PUSH2 0x5D8 JUMPI DUP1 PUSH1 0x1F LT PUSH2 0x5AF JUMPI PUSH2 0x100 DUP1 DUP4 SLOAD DIV MUL DUP4 MSTORE SWAP2 PUSH1 0x20 ADD SWAP2 PUSH2 0x5D8 JUMP JUMPDEST DUP3 ADD SWAP2 SWAP1 PUSH0 MSTORE PUSH1 0x20 PUSH0 KECCAK256 SWAP1 JUMPDEST DUP2 SLOAD DUP2 MSTORE SWAP1 PUSH1 0x1 ADD SWAP1 PUSH1 0x20 ADD DUP1 DUP4 GT PUSH2 0x5BB JUMPI DUP3 SWAP1 SUB PUSH1 0x1F AND DUP3 ADD SWAP2 JUMPDEST POP POP POP POP POP SWAP1 POP SWAP1 JUMP JUMPDEST PUSH0 PUSH2 0x5EC DUP3 PUSH2 0x1005 JUMP JUMPDEST POP PUSH2 0x5F6 DUP3 PUSH2 0x108B JUMP JUMPDEST SWAP1 POP SWAP2 SWAP1 POP JUMP JUMPDEST PUSH2 0x60F DUP3 DUP3 PUSH2 0x60A PUSH2 0x10C4 JUMP JUMPDEST PUSH2 0x10CB JUMP JUMPDEST POP POP JUMP JUMPDEST PUSH0 PUSH20 0xFFFFFFFFFFFFFFFFFFFFFFFFFFFFFFFFFFFFFFFF AND DUP3 PUSH20 0xFFFFFFFFFFFFFFFFFFFFFFFFFFFFFFFFFFFFFFFF AND SUB PUSH2 0x683 JUMPI PUSH0 PUSH1 0x40 MLOAD PUSH32 0x64A0AE9200000000000000000000000000000000000000000000000000000000 DUP2 MSTORE PUSH1 0x4 ADD PUSH2 0x67A SWAP2 SWAP1 PUSH2 0x213F JUMP JUMPDEST PUSH1 0x40 MLOAD DUP1 SWAP2 SUB SWAP1 REVERT JUMPDEST PUSH0 PUSH2 0x696 DUP4 DUP4 PUSH2 0x691 PUSH2 0x10C4 JUMP JUMPDEST PUSH2 0x10DD JUMP JUMPDEST SWAP1 POP DUP4 PUSH20 0xFFFFFFFFFFFFFFFFFFFFFFFFFFFFFFFFFFFFFFFF AND DUP2 PUSH20 0xFFFFFFFFFFFFFFFFFFFFFFFFFFFFFFFFFFFFFFFF AND EQ PUSH2 0x70C JUMPI DUP4 DUP3 DUP3 PUSH1 0x40 MLOAD PUSH32 0x64283D7B00000000000000000000000000000000000000000000000000000000 DUP2 MSTORE PUSH1 0x4 ADD PUSH2 0x703 SWAP4 SWAP3 SWAP2 SWAP1 PUSH2 0x25A0 JUMP JUMPDEST PUSH1 0x40 MLOAD DUP1 SWAP2 SUB SWAP1 REVERT JUMPDEST POP POP POP POP JUMP JUMPDEST PUSH1 0x8 SLOAD DUP2 JUMP JUMPDEST PUSH1 0xB PUSH1 0x20 MSTORE DUP1 PUSH0 MSTORE PUSH1 0x40 PUSH0 KECCAK256 PUSH0 SWAP2 POP SWAP1 POP SLOAD DUP2 JUMP JUMPDEST PUSH2 0x747 DUP4 DUP4 DUP4 PUSH1 0x40 MLOAD DUP1 PUSH1 0x20 ADD PUSH1 0x40 MSTORE DUP1 PUSH0 DUP2 MSTORE POP PUSH2 0xBD4 JUMP JUMPDEST POP POP POP JUMP JUMPDEST PUSH0 PUSH2 0x756 DUP3 PUSH2 0x1005 JUMP JUMPDEST SWAP1 POP SWAP2 SWAP1 POP JUMP JUMPDEST PUSH0 PUSH1 0xC PUSH0 DUP4 PUSH20 0xFFFFFFFFFFFFFFFFFFFFFFFFFFFFFFFFFFFFFFFF AND PUSH20 0xFFFFFFFFFFFFFFFFFFFFFFFFFFFFFFFFFFFFFFFF AND DUP2 MSTORE PUSH1 0x20 ADD SWAP1 DUP2 MSTORE PUSH1 0x20 ADD PUSH0 KECCAK256 SLOAD SWAP1 POP SWAP2 SWAP1 POP JUMP JUMPDEST PUSH0 DUP1 PUSH20 0xFFFFFFFFFFFFFFFFFFFFFFFFFFFFFFFFFFFFFFFF AND DUP3 PUSH20 0xFFFFFFFFFFFFFFFFFFFFFFFFFFFFFFFFFFFFFFFF AND SUB PUSH2 0x814 JUMPI PUSH0 PUSH1 0x40 MLOAD PUSH32 0x89C62B6400000000000000000000000000000000000000000000000000000000 DUP2 MSTORE PUSH1 0x4 ADD PUSH2 0x80B SWAP2 SWAP1 PUSH2 0x213F JUMP JUMPDEST PUSH1 0x40 MLOAD DUP1 SWAP2 SUB SWAP1 REVERT JUMPDEST PUSH1 0x3 PUSH0 DUP4 PUSH20 0xFFFFFFFFFFFFFFFFFFFFFFFFFFFFFFFFFFFFFFFF AND PUSH20 0xFFFFFFFFFFFFFFFFFFFFFFFFFFFFFFFFFFFFFFFF AND DUP2 MSTORE PUSH1 0x20 ADD SWAP1 DUP2 MSTORE PUSH1 0x20 ADD PUSH0 KECCAK256 SLOAD SWAP1 POP SWAP2 SWAP1 POP JUMP JUMPDEST PUSH2 0x861 PUSH2 0x12E8 JUMP JUMPDEST PUSH2 0x86A PUSH0 PUSH2 0x1366 JUMP JUMPDEST JUMP JUMPDEST PUSH0 PUSH1 0xB PUSH0 DUP4 DUP2 MSTORE PUSH1 0x20 ADD SWAP1 DUP2 MSTORE PUSH1 0x20 ADD PUSH0 KECCAK256 SLOAD SWAP1 POP SWAP2 SWAP1 POP JUMP JUMPDEST PUSH1 0xA SLOAD DUP2 JUMP JUMPDEST CALLER PUSH20 0xFFFFFFFFFFFFFFFFFFFFFFFFFFFFFFFFFFFFFFFF AND PUSH2 0x8AC DUP5 PUSH2 0x74C JUMP JUMPDEST PUSH20 0xFFFFFFFFFFFFFFFFFFFFFFFFFFFFFFFFFFFFFFFF AND EQ PUSH2 0x902 JUMPI PUSH1 0x40 MLOAD PUSH32 0x8C379A000000000000000000000000000000000000000000000000000000000 DUP2 MSTORE PUSH1 0x4 ADD PUSH2 0x8F9 SWAP1 PUSH2 0x2645 JUMP JUMPDEST PUSH1 0x40 MLOAD DUP1 SWAP2 SUB SWAP1 REVERT JUMPDEST DUP2 PUSH1 0xB PUSH0 DUP6 DUP2 MSTORE PUSH1 0x20 ADD SWAP1 DUP2 MSTORE PUSH1 0x20 ADD PUSH0 KECCAK256 SLOAD LT ISZERO PUSH2 0x956 JUMPI PUSH1 0x40 MLOAD PUSH32 0x8C379A000000000000000000000000000000000000000000000000000000000 DUP2 MSTORE PUSH1 0x4 ADD PUSH2 0x94D SWAP1 PUSH2 0x26AD JUMP JUMPDEST PUSH1 0x40 MLOAD DUP1 SWAP2 SUB SWAP1 REVERT JUMPDEST PUSH0 DUP3 GT PUSH2 0x998 JUMPI PUSH1 0x40 MLOAD PUSH32 0x8C379A000000000000000000000000000000000000000000000000000000000 DUP2 MSTORE PUSH1 0x4 ADD PUSH2 0x98F SWAP1 PUSH2 0x2715 JUMP JUMPDEST PUSH1 0x40 MLOAD DUP1 SWAP2 SUB SWAP1 REVERT JUMPDEST PUSH0 DUP3 PUSH1 0xB PUSH0 DUP7 DUP2 MSTORE PUSH1 0x20 ADD SWAP1 DUP2 MSTORE PUSH1 0x20 ADD PUSH0 KECCAK256 SLOAD PUSH2 0x9B6 SWAP2 SWAP1 PUSH2 0x2760 JUMP JUMPDEST SWAP1 POP PUSH2 0x9C1 DUP5 PUSH2 0x1429 JUMP JUMPDEST PUSH0 PUSH1 0xB PUSH0 DUP7 DUP2 MSTORE PUSH1 0x20 ADD SWAP1 DUP2 MSTORE PUSH1 0x20 ADD PUSH0 KECCAK256 DUP2 SWAP1 SSTORE POP PUSH0 DUP2 GT ISZERO PUSH2 0xA1A JUMPI PUSH0 PUSH1 0xA PUSH0 DUP2 SLOAD DUP1 SWAP3 SWAP2 SWAP1 PUSH2 0x9F2 SWAP1 PUSH2 0x2793 JUMP JUMPDEST SWAP2 SWAP1 POP SSTORE SWAP1 POP PUSH2 0xA02 CALLER DUP3 PUSH2 0x14AB JUMP JUMPDEST DUP2 PUSH1 0xB PUSH0 DUP4 DUP2 MSTORE PUSH1 0x20 ADD SWAP1 DUP2 MSTORE PUSH1 0x20 ADD PUSH0 KECCAK256 DUP2 SWAP1 SSTORE POP POP JUMPDEST PUSH0 PUSH1 0xA PUSH0 DUP2 SLOAD DUP1 SWAP3 SWAP2 SWAP1 PUSH2 0xA2D SWAP1 PUSH2 0x2793 JUMP JUMPDEST SWAP2 SWAP1 POP SSTORE SWAP1 POP PUSH2 0xA3D DUP4 DUP3 PUSH2 0x14AB JUMP JUMPDEST DUP4 PUSH1 0xB PUSH0 DUP4 DUP2 MSTORE PUSH1 0x20 ADD SWAP1 DUP2 MSTORE PUSH1 0x20 ADD PUSH0 KECCAK256 DUP2 SWAP1 SSTORE POP DUP4 PUSH1 0xC PUSH0 CALLER PUSH20 0xFFFFFFFFFFFFFFFFFFFFFFFFFFFFFFFFFFFFFFFF AND PUSH20 0xFFFFFFFFFFFFFFFFFFFFFFFFFFFFFFFFFFFFFFFF AND DUP2 MSTORE PUSH1 0x20 ADD SWAP1 DUP2 MSTORE PUSH1 0x20 ADD PUSH0 KECCAK256 PUSH0 DUP3 DUP3 SLOAD PUSH2 0xA9F SWAP2 SWAP1 PUSH2 0x2760 JUMP JUMPDEST SWAP3 POP POP DUP2 SWAP1 SSTORE POP DUP4 PUSH1 0xC PUSH0 DUP6 PUSH20 0xFFFFFFFFFFFFFFFFFFFFFFFFFFFFFFFFFFFFFFFF AND PUSH20 0xFFFFFFFFFFFFFFFFFFFFFFFFFFFFFFFFFFFFFFFF AND DUP2 MSTORE PUSH1 0x20 ADD SWAP1 DUP2 MSTORE PUSH1 0x20 ADD PUSH0 KECCAK256 PUSH0 DUP3 DUP3 SLOAD PUSH2 0xAF2 SWAP2 SWAP1 PUSH2 0x27DA JUMP JUMPDEST SWAP3 POP POP DUP2 SWAP1 SSTORE POP POP POP POP POP POP JUMP JUMPDEST PUSH0 PUSH1 0x7 PUSH0 SWAP1 SLOAD SWAP1 PUSH2 0x100 EXP SWAP1 DIV PUSH20 0xFFFFFFFFFFFFFFFFFFFFFFFFFFFFFFFFFFFFFFFF AND SWAP1 POP SWAP1 JUMP JUMPDEST PUSH1 0x60 PUSH1 0x1 DUP1 SLOAD PUSH2 0xB37 SWAP1 PUSH2 0x2570 JUMP JUMPDEST DUP1 PUSH1 0x1F ADD PUSH1 0x20 DUP1 SWAP2 DIV MUL PUSH1 0x20 ADD PUSH1 0x40 MLOAD SWAP1 DUP2 ADD PUSH1 0x40 MSTORE DUP1 SWAP3 SWAP2 SWAP1 DUP2 DUP2 MSTORE PUSH1 0x20 ADD DUP3 DUP1 SLOAD PUSH2 0xB63 SWAP1 PUSH2 0x2570 JUMP JUMPDEST DUP1 ISZERO PUSH2 0xBAE JUMPI DUP1 PUSH1 0x1F LT PUSH2 0xB85 JUMPI PUSH2 0x100 DUP1 DUP4 SLOAD DIV MUL DUP4 MSTORE SWAP2 PUSH1 0x20 ADD SWAP2 PUSH2 0xBAE JUMP JUMPDEST DUP3 ADD SWAP2 SWAP1 PUSH0 MSTORE PUSH1 0x20 PUSH0 KECCAK256 SWAP1 JUMPDEST DUP2 SLOAD DUP2 MSTORE SWAP1 PUSH1 0x1 ADD SWAP1 PUSH1 0x20 ADD DUP1 DUP4 GT PUSH2 0xB91 JUMPI DUP3 SWAP1 SUB PUSH1 0x1F AND DUP3 ADD SWAP2 JUMPDEST POP POP POP POP POP SWAP1 POP SWAP1 JUMP JUMPDEST PUSH1 0x9 SLOAD DUP2 JUMP JUMPDEST PUSH2 0xBD0 PUSH2 0xBC9 PUSH2 0x10C4 JUMP JUMPDEST DUP4 DUP4 PUSH2 0x159E JUMP JUMPDEST POP POP JUMP JUMPDEST PUSH2 0xBDF DUP5 DUP5 DUP5 PUSH2 0x613 JUMP JUMPDEST PUSH2 0xBEB DUP5 DUP5 DUP5 DUP5 PUSH2 0x1707 JUMP JUMPDEST POP POP POP POP JUMP JUMPDEST PUSH1 0x60 PUSH2 0xBFC DUP3 PUSH2 0x1005 JUMP JUMPDEST POP PUSH0 PUSH1 0x6 PUSH0 DUP5 DUP2 MSTORE PUSH1 0x20 ADD SWAP1 DUP2 MSTORE PUSH1 0x20 ADD PUSH0 KECCAK256 DUP1 SLOAD PUSH2 0xC1A SWAP1 PUSH2 0x2570 JUMP JUMPDEST DUP1 PUSH1 0x1F ADD PUSH1 0x20 DUP1 SWAP2 DIV MUL PUSH1 0x20 ADD PUSH1 0x40 MLOAD SWAP1 DUP2 ADD PUSH1 0x40 MSTORE DUP1 SWAP3 SWAP2 SWAP1 DUP2 DUP2 MSTORE PUSH1 0x20 ADD DUP3 DUP1 SLOAD PUSH2 0xC46 SWAP1 PUSH2 0x2570 JUMP JUMPDEST DUP1 ISZERO PUSH2 0xC91 JUMPI DUP1 PUSH1 0x1F LT PUSH2 0xC68 JUMPI PUSH2 0x100 DUP1 DUP4 SLOAD DIV MUL DUP4 MSTORE SWAP2 PUSH1 0x20 ADD SWAP2 PUSH2 0xC91 JUMP JUMPDEST DUP3 ADD SWAP2 SWAP1 PUSH0 MSTORE PUSH1 0x20 PUSH0 KECCAK256 SWAP1 JUMPDEST DUP2 SLOAD DUP2 MSTORE SWAP1 PUSH1 0x1 ADD SWAP1 PUSH1 0x20 ADD DUP1 DUP4 GT PUSH2 0xC74 JUMPI DUP3 SWAP1 SUB PUSH1 0x1F AND DUP3 ADD SWAP2 JUMPDEST POP POP POP POP POP SWAP1 POP PUSH0 PUSH2 0xCA1 PUSH2 0x18B9 JUMP JUMPDEST SWAP1 POP PUSH0 DUP2 MLOAD SUB PUSH2 0xCB5 JUMPI DUP2 SWAP3 POP POP POP PUSH2 0xCF7 JUMP JUMPDEST PUSH0 DUP3 MLOAD GT ISZERO PUSH2 0xCE9 JUMPI DUP1 DUP3 PUSH1 0x40 MLOAD PUSH1 0x20 ADD PUSH2 0xCD1 SWAP3 SWAP2 SWAP1 PUSH2 0x2847 JUMP JUMPDEST PUSH1 0x40 MLOAD PUSH1 0x20 DUP2 DUP4 SUB SUB DUP2 MSTORE SWAP1 PUSH1 0x40 MSTORE SWAP3 POP POP POP PUSH2 0xCF7 JUMP JUMPDEST PUSH2 0xCF2 DUP5 PUSH2 0x18CF JUMP JUMPDEST SWAP3 POP POP POP JUMPDEST SWAP2 SWAP1 POP JUMP JUMPDEST PUSH1 0xC PUSH1 0x20 MSTORE DUP1 PUSH0 MSTORE PUSH1 0x40 PUSH0 KECCAK256 PUSH0 SWAP2 POP SWAP1 POP SLOAD DUP2 JUMP JUMPDEST PUSH2 0xD19 PUSH2 0x12E8 JUMP JUMPDEST PUSH1 0x8 SLOAD DUP3 PUSH1 0x9 SLOAD PUSH2 0xD2A SWAP2 SWAP1 PUSH2 0x27DA JUMP JUMPDEST GT ISZERO PUSH2 0xD6B JUMPI PUSH1 0x40 MLOAD PUSH32 0x8C379A000000000000000000000000000000000000000000000000000000000 DUP2 MSTORE PUSH1 0x4 ADD PUSH2 0xD62 SWAP1 PUSH2 0x28B4 JUMP JUMPDEST PUSH1 0x40 MLOAD DUP1 SWAP2 SUB SWAP1 REVERT JUMPDEST PUSH0 PUSH1 0xA PUSH0 DUP2 SLOAD DUP1 SWAP3 SWAP2 SWAP1 PUSH2 0xD7E SWAP1 PUSH2 0x2793 JUMP JUMPDEST SWAP2 SWAP1 POP SSTORE SWAP1 POP PUSH2 0xD8E DUP3 DUP3 PUSH2 0x14AB JUMP JUMPDEST DUP3 PUSH1 0xB PUSH0 DUP4 DUP2 MSTORE PUSH1 0x20 ADD SWAP1 DUP2 MSTORE PUSH1 0x20 ADD PUSH0 KECCAK256 DUP2 SWAP1 SSTORE POP DUP3 PUSH1 0x9 PUSH0 DUP3 DUP3 SLOAD PUSH2 0xDB5 SWAP2 SWAP1 PUSH2 0x27DA JUMP JUMPDEST SWAP3 POP POP DUP2 SWAP1 SSTORE POP DUP3 PUSH1 0xC PUSH0 DUP5 PUSH20 0xFFFFFFFFFFFFFFFFFFFFFFFFFFFFFFFFFFFFFFFF AND PUSH20 0xFFFFFFFFFFFFFFFFFFFFFFFFFFFFFFFFFFFFFFFF AND DUP2 MSTORE PUSH1 0x20 ADD SWAP1 DUP2 MSTORE PUSH1 0x20 ADD PUSH0 KECCAK256 PUSH0 DUP3 DUP3 SLOAD PUSH2 0xE08 SWAP2 SWAP1 PUSH2 0x27DA JUMP JUMPDEST SWAP3 POP POP DUP2 SWAP1 SSTORE POP POP POP POP JUMP JUMPDEST PUSH0 PUSH1 0x5 PUSH0 DUP5 PUSH20 0xFFFFFFFFFFFFFFFFFFFFFFFFFFFFFFFFFFFFFFFF AND PUSH20 0xFFFFFFFFFFFFFFFFFFFFFFFFFFFFFFFFFFFFFFFF AND DUP2 MSTORE PUSH1 0x20 ADD SWAP1 DUP2 MSTORE PUSH1 0x20 ADD PUSH0 KECCAK256 PUSH0 DUP4 PUSH20 0xFFFFFFFFFFFFFFFFFFFFFFFFFFFFFFFFFFFFFFFF AND PUSH20 0xFFFFFFFFFFFFFFFFFFFFFFFFFFFFFFFFFFFFFFFF AND DUP2 MSTORE PUSH1 0x20 ADD SWAP1 DUP2 MSTORE PUSH1 0x20 ADD PUSH0 KECCAK256 PUSH0 SWAP1 SLOAD SWAP1 PUSH2 0x100 EXP SWAP1 DIV PUSH1 0xFF AND SWAP1 POP SWAP3 SWAP2 POP POP JUMP JUMPDEST PUSH2 0xEAA PUSH2 0x12E8 JUMP JUMPDEST PUSH0 PUSH20 0xFFFFFFFFFFFFFFFFFFFFFFFFFFFFFFFFFFFFFFFF AND DUP2 PUSH20 0xFFFFFFFFFFFFFFFFFFFFFFFFFFFFFFFFFFFFFFFF AND SUB PUSH2 0xF18 JUMPI PUSH1 0x40 MLOAD PUSH32 0x8C379A000000000000000000000000000000000000000000000000000000000 DUP2 MSTORE PUSH1 0x4 ADD PUSH2 0xF0F SWAP1 PUSH2 0x2942 JUMP JUMPDEST PUSH1 0x40 MLOAD DUP1 SWAP2 SUB SWAP1 REVERT JUMPDEST PUSH2 0xF21 DUP2 PUSH2 0x1366 JUMP JUMPDEST POP JUMP JUMPDEST PUSH0 PUSH32 0x80AC58CD00000000000000000000000000000000000000000000000000000000 PUSH28 0xFFFFFFFFFFFFFFFFFFFFFFFFFFFFFFFFFFFFFFFFFFFFFFFFFFFFFFFF NOT AND DUP3 PUSH28 0xFFFFFFFFFFFFFFFFFFFFFFFFFFFFFFFFFFFFFFFFFFFFFFFFFFFFFFFF NOT AND EQ DUP1 PUSH2 0xFEE JUMPI POP PUSH32 0x5B5E139F00000000000000000000000000000000000000000000000000000000 PUSH28 0xFFFFFFFFFFFFFFFFFFFFFFFFFFFFFFFFFFFFFFFFFFFFFFFFFFFFFFFF NOT AND DUP3 PUSH28 0xFFFFFFFFFFFFFFFFFFFFFFFFFFFFFFFFFFFFFFFFFFFFFFFFFFFFFFFF NOT AND EQ JUMPDEST DUP1 PUSH2 0xFFE JUMPI POP PUSH2 0xFFD DUP3 PUSH2 0x1935 JUMP JUMPDEST JUMPDEST SWAP1 POP SWAP2 SWAP1 POP JUMP JUMPDEST PUSH0 DUP1 PUSH2 0x1010 DUP4 PUSH2 0x199E JUMP JUMPDEST SWAP1 POP PUSH0 PUSH20 0xFFFFFFFFFFFFFFFFFFFFFFFFFFFFFFFFFFFFFFFF AND DUP2 PUSH20 0xFFFFFFFFFFFFFFFFFFFFFFFFFFFFFFFFFFFFFFFF AND SUB PUSH2 0x1082 JUMPI DUP3 PUSH1 0x40 MLOAD PUSH32 0x7E27328900000000000000000000000000000000000000000000000000000000 DUP2 MSTORE PUSH1 0x4 ADD PUSH2 0x1079 SWAP2 SWAP1 PUSH2 0x221F JUMP JUMPDEST PUSH1 0x40 MLOAD DUP1 SWAP2 SUB SWAP1 REVERT JUMPDEST DUP1 SWAP2 POP POP SWAP2 SWAP1 POP JUMP JUMPDEST PUSH0 PUSH1 0x4 PUSH0 DUP4 DUP2 MSTORE PUSH1 0x20 ADD SWAP1 DUP2 MSTORE PUSH1 0x20 ADD PUSH0 KECCAK256 PUSH0 SWAP1 SLOAD SWAP1 PUSH2 0x100 EXP SWAP1 DIV PUSH20 0xFFFFFFFFFFFFFFFFFFFFFFFFFFFFFFFFFFFFFFFF AND SWAP1 POP SWAP2 SWAP1 POP JUMP JUMPDEST PUSH0 CALLER SWAP1 POP SWAP1 JUMP JUMPDEST PUSH2 0x10D8 DUP4 DUP4 DUP4 PUSH1 0x1 PUSH2 0x19D7 JUMP JUMPDEST POP POP POP JUMP JUMPDEST PUSH0 DUP1 PUSH2 0x10E8 DUP5 PUSH2 0x199E JUMP JUMPDEST SWAP1 POP PUSH0 PUSH20 0xFFFFFFFFFFFFFFFFFFFFFFFFFFFFFFFFFFFFFFFF AND DUP4 PUSH20 0xFFFFFFFFFFFFFFFFFFFFFFFFFFFFFFFFFFFFFFFF AND EQ PUSH2 0x1129 JUMPI PUSH2 0x1128 DUP2 DUP5 DUP7 PUSH2 0x1B96 JUMP JUMPDEST JUMPDEST PUSH0 PUSH20 0xFFFFFFFFFFFFFFFFFFFFFFFFFFFFFFFFFFFFFFFF AND DUP2 PUSH20 0xFFFFFFFFFFFFFFFFFFFFFFFFFFFFFFFFFFFFFFFF AND EQ PUSH2 0x11B4 JUMPI PUSH2 0x1168 PUSH0 DUP6 PUSH0 DUP1 PUSH2 0x19D7 JUMP JUMPDEST PUSH1 0x1 PUSH1 0x3 PUSH0 DUP4 PUSH20 0xFFFFFFFFFFFFFFFFFFFFFFFFFFFFFFFFFFFFFFFF AND PUSH20 0xFFFFFFFFFFFFFFFFFFFFFFFFFFFFFFFFFFFFFFFF AND DUP2 MSTORE PUSH1 0x20 ADD SWAP1 DUP2 MSTORE PUSH1 0x20 ADD PUSH0 KECCAK256 PUSH0 DUP3 DUP3 SLOAD SUB SWAP3 POP POP DUP2 SWAP1 SSTORE POP JUMPDEST PUSH0 PUSH20 0xFFFFFFFFFFFFFFFFFFFFFFFFFFFFFFFFFFFFFFFF AND DUP6 PUSH20 0xFFFFFFFFFFFFFFFFFFFFFFFFFFFFFFFFFFFFFFFF AND EQ PUSH2 0x1233 JUMPI PUSH1 0x1 PUSH1 0x3 PUSH0 DUP8 PUSH20 0xFFFFFFFFFFFFFFFFFFFFFFFFFFFFFFFFFFFFFFFF AND PUSH20 0xFFFFFFFFFFFFFFFFFFFFFFFFFFFFFFFFFFFFFFFF AND DUP2 MSTORE PUSH1 0x20 ADD SWAP1 DUP2 MSTORE PUSH1 0x20 ADD PUSH0 KECCAK256 PUSH0 DUP3 DUP3 SLOAD ADD SWAP3 POP POP DUP2 SWAP1 SSTORE POP JUMPDEST DUP5 PUSH1 0x2 PUSH0 DUP7 DUP2 MSTORE PUSH1 0x20 ADD SWAP1 DUP2 MSTORE PUSH1 0x20 ADD PUSH0 KECCAK256 PUSH0 PUSH2 0x100 EXP DUP2 SLOAD DUP2 PUSH20 0xFFFFFFFFFFFFFFFFFFFFFFFFFFFFFFFFFFFFFFFF MUL NOT AND SWAP1 DUP4 PUSH20 0xFFFFFFFFFFFFFFFFFFFFFFFFFFFFFFFFFFFFFFFF AND MUL OR SWAP1 SSTORE POP DUP4 DUP6 PUSH20 0xFFFFFFFFFFFFFFFFFFFFFFFFFFFFFFFFFFFFFFFF AND DUP3 PUSH20 0xFFFFFFFFFFFFFFFFFFFFFFFFFFFFFFFFFFFFFFFF AND PUSH32 0xDDF252AD1BE2C89B69C2B068FC378DAA952BA7F163C4A11628F55A4DF523B3EF PUSH1 0x40 MLOAD PUSH1 0x40 MLOAD DUP1 SWAP2 SUB SWAP1 LOG4 DUP1 SWAP2 POP POP SWAP4 SWAP3 POP POP POP JUMP JUMPDEST PUSH2 0x12F0 PUSH2 0x10C4 JUMP JUMPDEST PUSH20 0xFFFFFFFFFFFFFFFFFFFFFFFFFFFFFFFFFFFFFFFF AND PUSH2 0x130E PUSH2 0xB00 JUMP JUMPDEST PUSH20 0xFFFFFFFFFFFFFFFFFFFFFFFFFFFFFFFFFFFFFFFF AND EQ PUSH2 0x1364 JUMPI PUSH1 0x40 MLOAD PUSH32 0x8C379A000000000000000000000000000000000000000000000000000000000 DUP2 MSTORE PUSH1 0x4 ADD PUSH2 0x135B SWAP1 PUSH2 0x29AA JUMP JUMPDEST PUSH1 0x40 MLOAD DUP1 SWAP2 SUB SWAP1 REVERT JUMPDEST JUMP JUMPDEST PUSH0 PUSH1 0x7 PUSH0 SWAP1 SLOAD SWAP1 PUSH2 0x100 EXP SWAP1 DIV PUSH20 0xFFFFFFFFFFFFFFFFFFFFFFFFFFFFFFFFFFFFFFFF AND SWAP1 POP DUP2 PUSH1 0x7 PUSH0 PUSH2 0x100 EXP DUP2 SLOAD DUP2 PUSH20 0xFFFFFFFFFFFFFFFFFFFFFFFFFFFFFFFFFFFFFFFF MUL NOT AND SWAP1 DUP4 PUSH20 0xFFFFFFFFFFFFFFFFFFFFFFFFFFFFFFFFFFFFFFFF AND MUL OR SWAP1 SSTORE POP DUP2 PUSH20 0xFFFFFFFFFFFFFFFFFFFFFFFFFFFFFFFFFFFFFFFF AND DUP2 PUSH20 0xFFFFFFFFFFFFFFFFFFFFFFFFFFFFFFFFFFFFFFFF AND PUSH32 0x8BE0079C531659141344CD1FD0A4F28419497F9722A3DAAFE3B4186F6B6457E0 PUSH1 0x40 MLOAD PUSH1 0x40 MLOAD DUP1 SWAP2 SUB SWAP1 LOG3 POP POP JUMP JUMPDEST PUSH0 PUSH2 0x1435 PUSH0 DUP4 PUSH0 PUSH2 0x10DD JUMP JUMPDEST SWAP1 POP PUSH0 PUSH20 0xFFFFFFFFFFFFFFFFFFFFFFFFFFFFFFFFFFFFFFFF AND DUP2 PUSH20 0xFFFFFFFFFFFFFFFFFFFFFFFFFFFFFFFFFFFFFFFF AND SUB PUSH2 0x14A7 JUMPI DUP2 PUSH1 0x40 MLOAD PUSH32 0x7E27328900000000000000000000000000000000000000000000000000000000 DUP2 MSTORE PUSH1 0x4 ADD PUSH2 0x149E SWAP2 SWAP1 PUSH2 0x221F JUMP JUMPDEST PUSH1 0x40 MLOAD DUP1 SWAP2 SUB SWAP1 REVERT JUMPDEST POP POP JUMP JUMPDEST PUSH0 PUSH20 0xFFFFFFFFFFFFFFFFFFFFFFFFFFFFFFFFFFFFFFFF AND DUP3 PUSH20 0xFFFFFFFFFFFFFFFFFFFFFFFFFFFFFFFFFFFFFFFF AND SUB PUSH2 0x151B JUMPI PUSH0 PUSH1 0x40 MLOAD PUSH32 0x64A0AE9200000000000000000000000000000000000000000000000000000000 DUP2 MSTORE PUSH1 0x4 ADD PUSH2 0x1512 SWAP2 SWAP1 PUSH2 0x213F JUMP JUMPDEST PUSH1 0x40 MLOAD DUP1 SWAP2 SUB SWAP1 REVERT JUMPDEST PUSH0 PUSH2 0x1527 DUP4 DUP4 PUSH0 PUSH2 0x10DD JUMP JUMPDEST SWAP1 POP PUSH0 PUSH20 0xFFFFFFFFFFFFFFFFFFFFFFFFFFFFFFFFFFFFFFFF AND DUP2 PUSH20 0xFFFFFFFFFFFFFFFFFFFFFFFFFFFFFFFFFFFFFFFF AND EQ PUSH2 0x1599 JUMPI PUSH0 PUSH1 0x40 MLOAD PUSH32 0x73C6AC6E00000000000000000000000000000000000000000000000000000000 DUP2 MSTORE PUSH1 0x4 ADD PUSH2 0x1590 SWAP2 SWAP1 PUSH2 0x213F JUMP JUMPDEST PUSH1 0x40 MLOAD DUP1 SWAP2 SUB SWAP1 REVERT JUMPDEST POP POP POP JUMP JUMPDEST PUSH0 PUSH20 0xFFFFFFFFFFFFFFFFFFFFFFFFFFFFFFFFFFFFFFFF AND DUP3 PUSH20 0xFFFFFFFFFFFFFFFFFFFFFFFFFFFFFFFFFFFFFFFF AND SUB PUSH2 0x160E JUMPI DUP2 PUSH1 0x40 MLOAD PUSH32 0x5B08BA1800000000000000000000000000000000000000000000000000000000 DUP2 MSTORE PUSH1 0x4 ADD PUSH2 0x1605 SWAP2 SWAP1 PUSH2 0x213F JUMP JUMPDEST PUSH1 0x40 MLOAD DUP1 SWAP2 SUB SWAP1 REVERT JUMPDEST DUP1 PUSH1 0x5 PUSH0 DUP6 PUSH20 0xFFFFFFFFFFFFFFFFFFFFFFFFFFFFFFFFFFFFFFFF AND PUSH20 0xFFFFFFFFFFFFFFFFFFFFFFFFFFFFFFFFFFFFFFFF AND DUP2 MSTORE PUSH1 0x20 ADD SWAP1 DUP2 MSTORE PUSH1 0x20 ADD PUSH0 KECCAK256 PUSH0 DUP5 PUSH20 0xFFFFFFFFFFFFFFFFFFFFFFFFFFFFFFFFFFFFFFFF AND PUSH20 0xFFFFFFFFFFFFFFFFFFFFFFFFFFFFFFFFFFFFFFFF AND DUP2 MSTORE PUSH1 0x20 ADD SWAP1 DUP2 MSTORE PUSH1 0x20 ADD PUSH0 KECCAK256 PUSH0 PUSH2 0x100 EXP DUP2 SLOAD DUP2 PUSH1 0xFF MUL NOT AND SWAP1 DUP4 ISZERO ISZERO MUL OR SWAP1 SSTORE POP DUP2 PUSH20 0xFFFFFFFFFFFFFFFFFFFFFFFFFFFFFFFFFFFFFFFF AND DUP4 PUSH20 0xFFFFFFFFFFFFFFFFFFFFFFFFFFFFFFFFFFFFFFFF AND PUSH32 0x17307EAB39AB6107E8899845AD3D59BD9653F200F220920489CA2B5937696C31 DUP4 PUSH1 0x40 MLOAD PUSH2 0x16FA SWAP2 SWAP1 PUSH2 0x1FDF JUMP JUMPDEST PUSH1 0x40 MLOAD DUP1 SWAP2 SUB SWAP1 LOG3 POP POP POP JUMP JUMPDEST PUSH0 DUP4 PUSH20 0xFFFFFFFFFFFFFFFFFFFFFFFFFFFFFFFFFFFFFFFF AND EXTCODESIZE GT ISZERO PUSH2 0x18B3 JUMPI DUP3 PUSH20 0xFFFFFFFFFFFFFFFFFFFFFFFFFFFFFFFFFFFFFFFF AND PUSH4 0x150B7A02 PUSH2 0x174A PUSH2 0x10C4 JUMP JUMPDEST DUP7 DUP6 DUP6 PUSH1 0x40 MLOAD DUP6 PUSH4 0xFFFFFFFF AND PUSH1 0xE0 SHL DUP2 MSTORE PUSH1 0x4 ADD PUSH2 0x176C SWAP5 SWAP4 SWAP3 SWAP2 SWAP1 PUSH2 0x2A1A JUMP JUMPDEST PUSH1 0x20 PUSH1 0x40 MLOAD DUP1 DUP4 SUB DUP2 PUSH0 DUP8 GAS CALL SWAP3 POP POP POP DUP1 ISZERO PUSH2 0x17A7 JUMPI POP PUSH1 0x40 MLOAD RETURNDATASIZE PUSH1 0x1F NOT PUSH1 0x1F DUP3 ADD AND DUP3 ADD DUP1 PUSH1 0x40 MSTORE POP DUP2 ADD SWAP1 PUSH2 0x17A4 SWAP2 SWAP1 PUSH2 0x2A78 JUMP JUMPDEST PUSH1 0x1 JUMPDEST PUSH2 0x1828 JUMPI RETURNDATASIZE DUP1 PUSH0 DUP2 EQ PUSH2 0x17D5 JUMPI PUSH1 0x40 MLOAD SWAP2 POP PUSH1 0x1F NOT PUSH1 0x3F RETURNDATASIZE ADD AND DUP3 ADD PUSH1 0x40 MSTORE RETURNDATASIZE DUP3 MSTORE RETURNDATASIZE PUSH0 PUSH1 0x20 DUP5 ADD RETURNDATACOPY PUSH2 0x17DA JUMP JUMPDEST PUSH1 0x60 SWAP2 POP JUMPDEST POP PUSH0 DUP2 MLOAD SUB PUSH2 0x1820 JUMPI DUP4 PUSH1 0x40 MLOAD PUSH32 0x64A0AE9200000000000000000000000000000000000000000000000000000000 DUP2 MSTORE PUSH1 0x4 ADD PUSH2 0x1817 SWAP2 SWAP1 PUSH2 0x213F JUMP JUMPDEST PUSH1 0x40 MLOAD DUP1 SWAP2 SUB SWAP1 REVERT JUMPDEST DUP1 MLOAD DUP2 PUSH1 0x20 ADD REVERT JUMPDEST PUSH4 0x150B7A02 PUSH1 0xE0 SHL PUSH28 0xFFFFFFFFFFFFFFFFFFFFFFFFFFFFFFFFFFFFFFFFFFFFFFFFFFFFFFFF NOT AND DUP2 PUSH28 0xFFFFFFFFFFFFFFFFFFFFFFFFFFFFFFFFFFFFFFFFFFFFFFFFFFFFFFFF NOT AND EQ PUSH2 0x18B1 JUMPI DUP4 PUSH1 0x40 MLOAD PUSH32 0x64A0AE9200000000000000000000000000000000000000000000000000000000 DUP2 MSTORE PUSH1 0x4 ADD PUSH2 0x18A8 SWAP2 SWAP1 PUSH2 0x213F JUMP JUMPDEST PUSH1 0x40 MLOAD DUP1 SWAP2 SUB SWAP1 REVERT JUMPDEST POP JUMPDEST POP POP POP POP JUMP JUMPDEST PUSH1 0x60 PUSH1 0x40 MLOAD DUP1 PUSH1 0x20 ADD PUSH1 0x40 MSTORE DUP1 PUSH0 DUP2 MSTORE POP SWAP1 POP SWAP1 JUMP JUMPDEST PUSH1 0x60 PUSH2 0x18DA DUP3 PUSH2 0x1005 JUMP JUMPDEST POP PUSH0 PUSH2 0x18E4 PUSH2 0x18B9 JUMP JUMPDEST SWAP1 POP PUSH0 DUP2 MLOAD GT PUSH2 0x1902 JUMPI PUSH1 0x40 MLOAD DUP1 PUSH1 0x20 ADD PUSH1 0x40 MSTORE DUP1 PUSH0 DUP2 MSTORE POP PUSH2 0x192D JUMP JUMPDEST DUP1 PUSH2 0x190C DUP5 PUSH2 0x1C59 JUMP JUMPDEST PUSH1 0x40 MLOAD PUSH1 0x20 ADD PUSH2 0x191D SWAP3 SWAP2 SWAP1 PUSH2 0x2847 JUMP JUMPDEST PUSH1 0x40 MLOAD PUSH1 0x20 DUP2 DUP4 SUB SUB DUP2 MSTORE SWAP1 PUSH1 0x40 MSTORE JUMPDEST SWAP2 POP POP SWAP2 SWAP1 POP JUMP JUMPDEST PUSH0 PUSH32 0x1FFC9A700000000000000000000000000000000000000000000000000000000 PUSH28 0xFFFFFFFFFFFFFFFFFFFFFFFFFFFFFFFFFFFFFFFFFFFFFFFFFFFFFFFF NOT AND DUP3 PUSH28 0xFFFFFFFFFFFFFFFFFFFFFFFFFFFFFFFFFFFFFFFFFFFFFFFFFFFFFFFF NOT AND EQ SWAP1 POP SWAP2 SWAP1 POP JUMP JUMPDEST PUSH0 PUSH1 0x2 PUSH0 DUP4 DUP2 MSTORE PUSH1 0x20 ADD SWAP1 DUP2 MSTORE PUSH1 0x20 ADD PUSH0 KECCAK256 PUSH0 SWAP1 SLOAD SWAP1 PUSH2 0x100 EXP SWAP1 DIV PUSH20 0xFFFFFFFFFFFFFFFFFFFFFFFFFFFFFFFFFFFFFFFF AND SWAP1 POP SWAP2 SWAP1 POP JUMP JUMPDEST DUP1 DUP1 PUSH2 0x1A0F JUMPI POP PUSH0 PUSH20 0xFFFFFFFFFFFFFFFFFFFFFFFFFFFFFFFFFFFFFFFF AND DUP3 PUSH20 0xFFFFFFFFFFFFFFFFFFFFFFFFFFFFFFFFFFFFFFFF AND EQ ISZERO JUMPDEST ISZERO PUSH2 0x1B41 JUMPI PUSH0 PUSH2 0x1A1E DUP5 PUSH2 0x1005 JUMP JUMPDEST SWAP1 POP PUSH0 PUSH20 0xFFFFFFFFFFFFFFFFFFFFFFFFFFFFFFFFFFFFFFFF AND DUP4 PUSH20 0xFFFFFFFFFFFFFFFFFFFFFFFFFFFFFFFFFFFFFFFF AND EQ ISZERO DUP1 ISZERO PUSH2 0x1A88 JUMPI POP DUP3 PUSH20 0xFFFFFFFFFFFFFFFFFFFFFFFFFFFFFFFFFFFFFFFF AND DUP2 PUSH20 0xFFFFFFFFFFFFFFFFFFFFFFFFFFFFFFFFFFFFFFFF AND EQ ISZERO JUMPDEST DUP1 ISZERO PUSH2 0x1A9B JUMPI POP PUSH2 0x1A99 DUP2 DUP5 PUSH2 0xE14 JUMP JUMPDEST ISZERO JUMPDEST ISZERO PUSH2 0x1ADD JUMPI DUP3 PUSH1 0x40 MLOAD PUSH32 0xA9FBF51F00000000000000000000000000000000000000000000000000000000 DUP2 MSTORE PUSH1 0x4 ADD PUSH2 0x1AD4 SWAP2 SWAP1 PUSH2 0x213F JUMP JUMPDEST PUSH1 0x40 MLOAD DUP1 SWAP2 SUB SWAP1 REVERT JUMPDEST DUP2 ISZERO PUSH2 0x1B3F JUMPI DUP4 DUP6 PUSH20 0xFFFFFFFFFFFFFFFFFFFFFFFFFFFFFFFFFFFFFFFF AND DUP3 PUSH20 0xFFFFFFFFFFFFFFFFFFFFFFFFFFFFFFFFFFFFFFFF AND PUSH32 0x8C5BE1E5EBEC7D5BD14F71427D1E84F3DD0314C0F7B2291E5B200AC8C7C3B925 PUSH1 0x40 MLOAD PUSH1 0x40 MLOAD DUP1 SWAP2 SUB SWAP1 LOG4 JUMPDEST POP JUMPDEST DUP4 PUSH1 0x4 PUSH0 DUP6 DUP2 MSTORE PUSH1 0x20 ADD SWAP1 DUP2 MSTORE PUSH1 0x20 ADD PUSH0 KECCAK256 PUSH0 PUSH2 0x100 EXP DUP2 SLOAD DUP2 PUSH20 0xFFFFFFFFFFFFFFFFFFFFFFFFFFFFFFFFFFFFFFFF MUL NOT AND SWAP1 DUP4 PUSH20 0xFFFFFFFFFFFFFFFFFFFFFFFFFFFFFFFFFFFFFFFF AND MUL OR SWAP1 SSTORE POP POP POP POP POP JUMP JUMPDEST PUSH2 0x1BA1 DUP4 DUP4 DUP4 PUSH2 0x1D23 JUMP JUMPDEST PUSH2 0x1C54 JUMPI PUSH0 PUSH20 0xFFFFFFFFFFFFFFFFFFFFFFFFFFFFFFFFFFFFFFFF AND DUP4 PUSH20 0xFFFFFFFFFFFFFFFFFFFFFFFFFFFFFFFFFFFFFFFF AND SUB PUSH2 0x1C15 JUMPI DUP1 PUSH1 0x40 MLOAD PUSH32 0x7E27328900000000000000000000000000000000000000000000000000000000 DUP2 MSTORE PUSH1 0x4 ADD PUSH2 0x1C0C SWAP2 SWAP1 PUSH2 0x221F JUMP JUMPDEST PUSH1 0x40 MLOAD DUP1 SWAP2 SUB SWAP1 REVERT JUMPDEST DUP2 DUP2 PUSH1 0x40 MLOAD PUSH32 0x177E802F00000000000000000000000000000000000000000000000000000000 DUP2 MSTORE PUSH1 0x4 ADD PUSH2 0x1C4B SWAP3 SWAP2 SWAP1 PUSH2 0x2AA3 JUMP JUMPDEST PUSH1 0x40 MLOAD DUP1 SWAP2 SUB SWAP1 REVERT JUMPDEST POP POP POP JUMP JUMPDEST PUSH1 0x60 PUSH0 PUSH1 0x1 PUSH2 0x1C67 DUP5 PUSH2 0x1DE3 JUMP JUMPDEST ADD SWAP1 POP PUSH0 DUP2 PUSH8 0xFFFFFFFFFFFFFFFF DUP2 GT ISZERO PUSH2 0x1C85 JUMPI PUSH2 0x1C84 PUSH2 0x2323 JUMP JUMPDEST JUMPDEST PUSH1 0x40 MLOAD SWAP1 DUP1 DUP3 MSTORE DUP1 PUSH1 0x1F ADD PUSH1 0x1F NOT AND PUSH1 0x20 ADD DUP3 ADD PUSH1 0x40 MSTORE DUP1 ISZERO PUSH2 0x1CB7 JUMPI DUP2 PUSH1 0x20 ADD PUSH1 0x1 DUP3 MUL DUP1 CALLDATASIZE DUP4 CALLDATACOPY DUP1 DUP3 ADD SWAP2 POP POP SWAP1 POP JUMPDEST POP SWAP1 POP PUSH0 DUP3 PUSH1 0x20 ADD DUP3 ADD SWAP1 POP JUMPDEST PUSH1 0x1 ISZERO PUSH2 0x1D18 JUMPI DUP1 DUP1 PUSH1 0x1 SWAP1 SUB SWAP2 POP POP PUSH32 0x3031323334353637383961626364656600000000000000000000000000000000 PUSH1 0xA DUP7 MOD BYTE DUP2 MSTORE8 PUSH1 0xA DUP6 DUP2 PUSH2 0x1D0D JUMPI PUSH2 0x1D0C PUSH2 0x2ACA JUMP JUMPDEST JUMPDEST DIV SWAP5 POP PUSH0 DUP6 SUB PUSH2 0x1CC4 JUMPI JUMPDEST DUP2 SWAP4 POP POP POP POP SWAP2 SWAP1 POP JUMP JUMPDEST PUSH0 DUP1 PUSH20 0xFFFFFFFFFFFFFFFFFFFFFFFFFFFFFFFFFFFFFFFF AND DUP4 PUSH20 0xFFFFFFFFFFFFFFFFFFFFFFFFFFFFFFFFFFFFFFFF AND EQ ISZERO DUP1 ISZERO PUSH2 0x1DDA JUMPI POP DUP3 PUSH20 0xFFFFFFFFFFFFFFFFFFFFFFFFFFFFFFFFFFFFFFFF AND DUP5 PUSH20 0xFFFFFFFFFFFFFFFFFFFFFFFFFFFFFFFFFFFFFFFF AND EQ DUP1 PUSH2 0x1D9B JUMPI POP PUSH2 0x1D9A DUP5 DUP5 PUSH2 0xE14 JUMP JUMPDEST JUMPDEST DUP1 PUSH2 0x1DD9 JUMPI POP DUP3 PUSH20 0xFFFFFFFFFFFFFFFFFFFFFFFFFFFFFFFFFFFFFFFF AND PUSH2 0x1DC1 DUP4 PUSH2 0x108B JUMP JUMPDEST PUSH20 0xFFFFFFFFFFFFFFFFFFFFFFFFFFFFFFFFFFFFFFFF AND EQ JUMPDEST JUMPDEST SWAP1 POP SWAP4 SWAP3 POP POP POP JUMP JUMPDEST PUSH0 DUP1 PUSH0 SWAP1 POP PUSH27 0x184F03E93FF9F4DAA797ED6E38ED64BF6A1F010000000000000000 DUP4 LT PUSH2 0x1E3F JUMPI PUSH27 0x184F03E93FF9F4DAA797ED6E38ED64BF6A1F010000000000000000 DUP4 DUP2 PUSH2 0x1E35 JUMPI PUSH2 0x1E34 PUSH2 0x2ACA JUMP JUMPDEST JUMPDEST DIV SWAP3 POP PUSH1 0x40 DUP2 ADD SWAP1 POP JUMPDEST PUSH14 0x4EE2D6D415B85ACEF8100000000 DUP4 LT PUSH2 0x1E7C JUMPI PUSH14 0x4EE2D6D415B85ACEF8100000000 DUP4 DUP2 PUSH2 0x1E72 JUMPI PUSH2 0x1E71 PUSH2 0x2ACA JUMP JUMPDEST JUMPDEST DIV SWAP3 POP PUSH1 0x20 DUP2 ADD SWAP1 POP JUMPDEST PUSH7 0x2386F26FC10000 DUP4 LT PUSH2 0x1EAB JUMPI PUSH7 0x2386F26FC10000 DUP4 DUP2 PUSH2 0x1EA1 JUMPI PUSH2 0x1EA0 PUSH2 0x2ACA JUMP JUMPDEST JUMPDEST DIV SWAP3 POP PUSH1 0x10 DUP2 ADD SWAP1 POP JUMPDEST PUSH4 0x5F5E100 DUP4 LT PUSH2 0x1ED4 JUMPI PUSH4 0x5F5E100 DUP4 DUP2 PUSH2 0x1ECA JUMPI PUSH2 0x1EC9 PUSH2 0x2ACA JUMP JUMPDEST JUMPDEST DIV SWAP3 POP PUSH1 0x8 DUP2 ADD SWAP1 POP JUMPDEST PUSH2 0x2710 DUP4 LT PUSH2 0x1EF9 JUMPI PUSH2 0x2710 DUP4 DUP2 PUSH2 0x1EEF JUMPI PUSH2 0x1EEE PUSH2 0x2ACA JUMP JUMPDEST JUMPDEST DIV SWAP3 POP PUSH1 0x4 DUP2 ADD SWAP1 POP JUMPDEST PUSH1 0x64 DUP4 LT PUSH2 0x1F1C JUMPI PUSH1 0x64 DUP4 DUP2 PUSH2 0x1F12 JUMPI PUSH2 0x1F11 PUSH2 0x2ACA JUMP JUMPDEST JUMPDEST DIV SWAP3 POP PUSH1 0x2 DUP2 ADD SWAP1 POP JUMPDEST PUSH1 0xA DUP4 LT PUSH2 0x1F2B JUMPI PUSH1 0x1 DUP2 ADD SWAP1 POP JUMPDEST DUP1 SWAP2 POP POP SWAP2 SWAP1 POP JUMP JUMPDEST PUSH0 PUSH1 0x40 MLOAD SWAP1 POP SWAP1 JUMP JUMPDEST PUSH0 DUP1 REVERT JUMPDEST PUSH0 DUP1 REVERT JUMPDEST PUSH0 PUSH32 0xFFFFFFFF00000000000000000000000000000000000000000000000000000000 DUP3 AND SWAP1 POP SWAP2 SWAP1 POP JUMP JUMPDEST PUSH2 0x1F79 DUP2 PUSH2 0x1F45 JUMP JUMPDEST DUP2 EQ PUSH2 0x1F83 JUMPI PUSH0 DUP1 REVERT JUMPDEST POP JUMP JUMPDEST PUSH0 DUP2 CALLDATALOAD SWAP1 POP PUSH2 0x1F94 DUP2 PUSH2 0x1F70 JUMP JUMPDEST SWAP3 SWAP2 POP POP JUMP JUMPDEST PUSH0 PUSH1 0x20 DUP3 DUP5 SUB SLT ISZERO PUSH2 0x1FAF JUMPI PUSH2 0x1FAE PUSH2 0x1F3D JUMP JUMPDEST JUMPDEST PUSH0 PUSH2 0x1FBC DUP5 DUP3 DUP6 ADD PUSH2 0x1F86 JUMP JUMPDEST SWAP2 POP POP SWAP3 SWAP2 POP POP JUMP JUMPDEST PUSH0 DUP2 ISZERO ISZERO SWAP1 POP SWAP2 SWAP1 POP JUMP JUMPDEST PUSH2 0x1FD9 DUP2 PUSH2 0x1FC5 JUMP JUMPDEST DUP3 MSTORE POP POP JUMP JUMPDEST PUSH0 PUSH1 0x20 DUP3 ADD SWAP1 POP PUSH2 0x1FF2 PUSH0 DUP4 ADD DUP5 PUSH2 0x1FD0 JUMP JUMPDEST SWAP3 SWAP2 POP POP JUMP JUMPDEST PUSH0 DUP2 MLOAD SWAP1 POP SWAP2 SWAP1 POP JUMP JUMPDEST PUSH0 DUP3 DUP3 MSTORE PUSH1 0x20 DUP3 ADD SWAP1 POP SWAP3 SWAP2 POP POP JUMP JUMPDEST PUSH0 JUMPDEST DUP4 DUP2 LT ISZERO PUSH2 0x202F JUMPI DUP1 DUP3 ADD MLOAD DUP2 DUP5 ADD MSTORE PUSH1 0x20 DUP2 ADD SWAP1 POP PUSH2 0x2014 JUMP JUMPDEST PUSH0 DUP5 DUP5 ADD MSTORE POP POP POP POP JUMP JUMPDEST PUSH0 PUSH1 0x1F NOT PUSH1 0x1F DUP4 ADD AND SWAP1 POP SWAP2 SWAP1 POP JUMP JUMPDEST PUSH0 PUSH2 0x2054 DUP3 PUSH2 0x1FF8 JUMP JUMPDEST PUSH2 0x205E DUP2 DUP6 PUSH2 0x2002 JUMP JUMPDEST SWAP4 POP PUSH2 0x206E DUP2 DUP6 PUSH1 0x20 DUP7 ADD PUSH2 0x2012 JUMP JUMPDEST PUSH2 0x2077 DUP2 PUSH2 0x203A JUMP JUMPDEST DUP5 ADD SWAP2 POP POP SWAP3 SWAP2 POP POP JUMP JUMPDEST PUSH0 PUSH1 0x20 DUP3 ADD SWAP1 POP DUP2 DUP2 SUB PUSH0 DUP4 ADD MSTORE PUSH2 0x209A DUP2 DUP5 PUSH2 0x204A JUMP JUMPDEST SWAP1 POP SWAP3 SWAP2 POP POP JUMP JUMPDEST PUSH0 DUP2 SWAP1 POP SWAP2 SWAP1 POP JUMP JUMPDEST PUSH2 0x20B4 DUP2 PUSH2 0x20A2 JUMP JUMPDEST DUP2 EQ PUSH2 0x20BE JUMPI PUSH0 DUP1 REVERT JUMPDEST POP JUMP JUMPDEST PUSH0 DUP2 CALLDATALOAD SWAP1 POP PUSH2 0x20CF DUP2 PUSH2 0x20AB JUMP JUMPDEST SWAP3 SWAP2 POP POP JUMP JUMPDEST PUSH0 PUSH1 0x20 DUP3 DUP5 SUB SLT ISZERO PUSH2 0x20EA JUMPI PUSH2 0x20E9 PUSH2 0x1F3D JUMP JUMPDEST JUMPDEST PUSH0 PUSH2 0x20F7 DUP5 DUP3 DUP6 ADD PUSH2 0x20C1 JUMP JUMPDEST SWAP2 POP POP SWAP3 SWAP2 POP POP JUMP JUMPDEST PUSH0 PUSH20 0xFFFFFFFFFFFFFFFFFFFFFFFFFFFFFFFFFFFFFFFF DUP3 AND SWAP1 POP SWAP2 SWAP1 POP JUMP JUMPDEST PUSH0 PUSH2 0x2129 DUP3 PUSH2 0x2100 JUMP JUMPDEST SWAP1 POP SWAP2 SWAP1 POP JUMP JUMPDEST PUSH2 0x2139 DUP2 PUSH2 0x211F JUMP JUMPDEST DUP3 MSTORE POP POP JUMP JUMPDEST PUSH0 PUSH1 0x20 DUP3 ADD SWAP1 POP PUSH2 0x2152 PUSH0 DUP4 ADD DUP5 PUSH2 0x2130 JUMP JUMPDEST SWAP3 SWAP2 POP POP JUMP JUMPDEST PUSH2 0x2161 DUP2 PUSH2 0x211F JUMP JUMPDEST DUP2 EQ PUSH2 0x216B JUMPI PUSH0 DUP1 REVERT JUMPDEST POP JUMP JUMPDEST PUSH0 DUP2 CALLDATALOAD SWAP1 POP PUSH2 0x217C DUP2 PUSH2 0x2158 JUMP JUMPDEST SWAP3 SWAP2 POP POP JUMP JUMPDEST PUSH0 DUP1 PUSH1 0x40 DUP4 DUP6 SUB SLT ISZERO PUSH2 0x2198 JUMPI PUSH2 0x2197 PUSH2 0x1F3D JUMP JUMPDEST JUMPDEST PUSH0 PUSH2 0x21A5 DUP6 DUP3 DUP7 ADD PUSH2 0x216E JUMP JUMPDEST SWAP3 POP POP PUSH1 0x20 PUSH2 0x21B6 DUP6 DUP3 DUP7 ADD PUSH2 0x20C1 JUMP JUMPDEST SWAP2 POP POP SWAP3 POP SWAP3 SWAP1 POP JUMP JUMPDEST PUSH0 DUP1 PUSH0 PUSH1 0x60 DUP5 DUP7 SUB SLT ISZERO PUSH2 0x21D7 JUMPI PUSH2 0x21D6 PUSH2 0x1F3D JUMP JUMPDEST JUMPDEST PUSH0 PUSH2 0x21E4 DUP7 DUP3 DUP8 ADD PUSH2 0x216E JUMP JUMPDEST SWAP4 POP POP PUSH1 0x20 PUSH2 0x21F5 DUP7 DUP3 DUP8 ADD PUSH2 0x216E JUMP JUMPDEST SWAP3 POP POP PUSH1 0x40 PUSH2 0x2206 DUP7 DUP3 DUP8 ADD PUSH2 0x20C1 JUMP JUMPDEST SWAP2 POP POP SWAP3 POP SWAP3 POP SWAP3 JUMP JUMPDEST PUSH2 0x2219 DUP2 PUSH2 0x20A2 JUMP JUMPDEST DUP3 MSTORE POP POP JUMP JUMPDEST PUSH0 PUSH1 0x20 DUP3 ADD SWAP1 POP PUSH2 0x2232 PUSH0 DUP4 ADD DUP5 PUSH2 0x2210 JUMP JUMPDEST SWAP3 SWAP2 POP POP JUMP JUMPDEST PUSH0 PUSH1 0x20 DUP3 DUP5 SUB SLT ISZERO PUSH2 0x224D JUMPI PUSH2 0x224C PUSH2 0x1F3D JUMP JUMPDEST JUMPDEST PUSH0 PUSH2 0x225A DUP5 DUP3 DUP6 ADD PUSH2 0x216E JUMP JUMPDEST SWAP2 POP POP SWAP3 SWAP2 POP POP JUMP JUMPDEST PUSH0 DUP1 PUSH0 PUSH1 0x60 DUP5 DUP7 SUB SLT ISZERO PUSH2 0x227A JUMPI PUSH2 0x2279 PUSH2 0x1F3D JUMP JUMPDEST JUMPDEST PUSH0 PUSH2 0x2287 DUP7 DUP3 DUP8 ADD PUSH2 0x20C1 JUMP JUMPDEST SWAP4 POP POP PUSH1 0x20 PUSH2 0x2298 DUP7 DUP3 DUP8 ADD PUSH2 0x20C1 JUMP JUMPDEST SWAP3 POP POP PUSH1 0x40 PUSH2 0x22A9 DUP7 DUP3 DUP8 ADD PUSH2 0x216E JUMP JUMPDEST SWAP2 POP POP SWAP3 POP SWAP3 POP SWAP3 JUMP JUMPDEST PUSH2 0x22BC DUP2 PUSH2 0x1FC5 JUMP JUMPDEST DUP2 EQ PUSH2 0x22C6 JUMPI PUSH0 DUP1 REVERT JUMPDEST POP JUMP JUMPDEST PUSH0 DUP2 CALLDATALOAD SWAP1 POP PUSH2 0x22D7 DUP2 PUSH2 0x22B3 JUMP JUMPDEST SWAP3 SWAP2 POP POP JUMP JUMPDEST PUSH0 DUP1 PUSH1 0x40 DUP4 DUP6 SUB SLT ISZERO PUSH2 0x22F3 JUMPI PUSH2 0x22F2 PUSH2 0x1F3D JUMP JUMPDEST JUMPDEST PUSH0 PUSH2 0x2300 DUP6 DUP3 DUP7 ADD PUSH2 0x216E JUMP JUMPDEST SWAP3 POP POP PUSH1 0x20 PUSH2 0x2311 DUP6 DUP3 DUP7 ADD PUSH2 0x22C9 JUMP JUMPDEST SWAP2 POP POP SWAP3 POP SWAP3 SWAP1 POP JUMP JUMPDEST PUSH0 DUP1 REVERT JUMPDEST PUSH0 DUP1 REVERT JUMPDEST PUSH32 0x4E487B7100000000000000000000000000000000000000000000000000000000 PUSH0 MSTORE PUSH1 0x41 PUSH1 0x4 MSTORE PUSH1 0x24 PUSH0 REVERT JUMPDEST PUSH2 0x2359 DUP3 PUSH2 0x203A JUMP JUMPDEST DUP2 ADD DUP2 DUP2 LT PUSH8 0xFFFFFFFFFFFFFFFF DUP3 GT OR ISZERO PUSH2 0x2378 JUMPI PUSH2 0x2377 PUSH2 0x2323 JUMP JUMPDEST JUMPDEST DUP1 PUSH1 0x40 MSTORE POP POP POP JUMP JUMPDEST PUSH0 PUSH2 0x238A PUSH2 0x1F34 JUMP JUMPDEST SWAP1 POP PUSH2 0x2396 DUP3 DUP3 PUSH2 0x2350 JUMP JUMPDEST SWAP2 SWAP1 POP JUMP JUMPDEST PUSH0 PUSH8 0xFFFFFFFFFFFFFFFF DUP3 GT ISZERO PUSH2 0x23B5 JUMPI PUSH2 0x23B4 PUSH2 0x2323 JUMP JUMPDEST JUMPDEST PUSH2 0x23BE DUP3 PUSH2 0x203A JUMP JUMPDEST SWAP1 POP PUSH1 0x20 DUP2 ADD SWAP1 POP SWAP2 SWAP1 POP JUMP JUMPDEST DUP3 DUP2 DUP4 CALLDATACOPY PUSH0 DUP4 DUP4 ADD MSTORE POP POP POP JUMP JUMPDEST PUSH0 PUSH2 0x23EB PUSH2 0x23E6 DUP5 PUSH2 0x239B JUMP JUMPDEST PUSH2 0x2381 JUMP JUMPDEST SWAP1 POP DUP3 DUP2 MSTORE PUSH1 0x20 DUP2 ADD DUP5 DUP5 DUP5 ADD GT ISZERO PUSH2 0x2407 JUMPI PUSH2 0x2406 PUSH2 0x231F JUMP JUMPDEST JUMPDEST PUSH2 0x2412 DUP5 DUP3 DUP6 PUSH2 0x23CB JUMP JUMPDEST POP SWAP4 SWAP3 POP POP POP JUMP JUMPDEST PUSH0 DUP3 PUSH1 0x1F DUP4 ADD SLT PUSH2 0x242E JUMPI PUSH2 0x242D PUSH2 0x231B JUMP JUMPDEST JUMPDEST DUP2 CALLDATALOAD PUSH2 0x243E DUP5 DUP3 PUSH1 0x20 DUP7 ADD PUSH2 0x23D9 JUMP JUMPDEST SWAP2 POP POP SWAP3 SWAP2 POP POP JUMP JUMPDEST PUSH0 DUP1 PUSH0 DUP1 PUSH1 0x80 DUP6 DUP8 SUB SLT ISZERO PUSH2 0x245F JUMPI PUSH2 0x245E PUSH2 0x1F3D JUMP JUMPDEST JUMPDEST PUSH0 PUSH2 0x246C DUP8 DUP3 DUP9 ADD PUSH2 0x216E JUMP JUMPDEST SWAP5 POP POP PUSH1 0x20 PUSH2 0x247D DUP8 DUP3 DUP9 ADD PUSH2 0x216E JUMP JUMPDEST SWAP4 POP POP PUSH1 0x40 PUSH2 0x248E DUP8 DUP3 DUP9 ADD PUSH2 0x20C1 JUMP JUMPDEST SWAP3 POP POP PUSH1 0x60 DUP6 ADD CALLDATALOAD PUSH8 0xFFFFFFFFFFFFFFFF DUP2 GT ISZERO PUSH2 0x24AF JUMPI PUSH2 0x24AE PUSH2 0x1F41 JUMP JUMPDEST JUMPDEST PUSH2 0x24BB DUP8 DUP3 DUP9 ADD PUSH2 0x241A JUMP JUMPDEST SWAP2 POP POP SWAP3 SWAP6 SWAP2 SWAP5 POP SWAP3 POP JUMP JUMPDEST PUSH0 DUP1 PUSH1 0x40 DUP4 DUP6 SUB SLT ISZERO PUSH2 0x24DD JUMPI PUSH2 0x24DC PUSH2 0x1F3D JUMP JUMPDEST JUMPDEST PUSH0 PUSH2 0x24EA DUP6 DUP3 DUP7 ADD PUSH2 0x20C1 JUMP JUMPDEST SWAP3 POP POP PUSH1 0x20 PUSH2 0x24FB DUP6 DUP3 DUP7 ADD PUSH2 0x216E JUMP JUMPDEST SWAP2 POP POP SWAP3 POP SWAP3 SWAP1 POP JUMP JUMPDEST PUSH0 DUP1 PUSH1 0x40 DUP4 DUP6 SUB SLT ISZERO PUSH2 0x251B JUMPI PUSH2 0x251A PUSH2 0x1F3D JUMP JUMPDEST JUMPDEST PUSH0 PUSH2 0x2528 DUP6 DUP3 DUP7 ADD PUSH2 0x216E JUMP JUMPDEST SWAP3 POP POP PUSH1 0x20 PUSH2 0x2539 DUP6 DUP3 DUP7 ADD PUSH2 0x216E JUMP JUMPDEST SWAP2 POP POP SWAP3 POP SWAP3 SWAP1 POP JUMP JUMPDEST PUSH32 0x4E487B7100000000000000000000000000000000000000000000000000000000 PUSH0 MSTORE PUSH1 0x22 PUSH1 0x4 MSTORE PUSH1 0x24 PUSH0 REVERT JUMPDEST PUSH0 PUSH1 0x2 DUP3 DIV SWAP1 POP PUSH1 0x1 DUP3 AND DUP1 PUSH2 0x2587 JUMPI PUSH1 0x7F DUP3 AND SWAP2 POP JUMPDEST PUSH1 0x20 DUP3 LT DUP2 SUB PUSH2 0x259A JUMPI PUSH2 0x2599 PUSH2 0x2543 JUMP JUMPDEST JUMPDEST POP SWAP2 SWAP1 POP JUMP JUMPDEST PUSH0 PUSH1 0x60 DUP3 ADD SWAP1 POP PUSH2 0x25B3 PUSH0 DUP4 ADD DUP7 PUSH2 0x2130 JUMP JUMPDEST PUSH2 0x25C0 PUSH1 0x20 DUP4 ADD DUP6 PUSH2 0x2210 JUMP JUMPDEST PUSH2 0x25CD PUSH1 0x40 DUP4 ADD DUP5 PUSH2 0x2130 JUMP JUMPDEST SWAP5 SWAP4 POP POP POP POP JUMP JUMPDEST PUSH32 0x4F6E6C7920746F6B656E206F776E65722063616E207472616E73666572207368 PUSH0 DUP3 ADD MSTORE PUSH32 0x6172657300000000000000000000000000000000000000000000000000000000 PUSH1 0x20 DUP3 ADD MSTORE POP JUMP JUMPDEST PUSH0 PUSH2 0x262F PUSH1 0x24 DUP4 PUSH2 0x2002 JUMP JUMPDEST SWAP2 POP PUSH2 0x263A DUP3 PUSH2 0x25D5 JUMP JUMPDEST PUSH1 0x40 DUP3 ADD SWAP1 POP SWAP2 SWAP1 POP JUMP JUMPDEST PUSH0 PUSH1 0x20 DUP3 ADD SWAP1 POP DUP2 DUP2 SUB PUSH0 DUP4 ADD MSTORE PUSH2 0x265C DUP2 PUSH2 0x2623 JUMP JUMPDEST SWAP1 POP SWAP2 SWAP1 POP JUMP JUMPDEST PUSH32 0x4E6F7420656E6F75676820736861726573206F6E20746F6B656E000000000000 PUSH0 DUP3 ADD MSTORE POP JUMP JUMPDEST PUSH0 PUSH2 0x2697 PUSH1 0x1A DUP4 PUSH2 0x2002 JUMP JUMPDEST SWAP2 POP PUSH2 0x26A2 DUP3 PUSH2 0x2663 JUMP JUMPDEST PUSH1 0x20 DUP3 ADD SWAP1 POP SWAP2 SWAP1 POP JUMP JUMPDEST PUSH0 PUSH1 0x20 DUP3 ADD SWAP1 POP DUP2 DUP2 SUB PUSH0 DUP4 ADD MSTORE PUSH2 0x26C4 DUP2 PUSH2 0x268B JUMP JUMPDEST SWAP1 POP SWAP2 SWAP1 POP JUMP JUMPDEST PUSH32 0x536861726573206D75737420626520706F736974697665000000000000000000 PUSH0 DUP3 ADD MSTORE POP JUMP JUMPDEST PUSH0 PUSH2 0x26FF PUSH1 0x17 DUP4 PUSH2 0x2002 JUMP JUMPDEST SWAP2 POP PUSH2 0x270A DUP3 PUSH2 0x26CB JUMP JUMPDEST PUSH1 0x20 DUP3 ADD SWAP1 POP SWAP2 SWAP1 POP JUMP JUMPDEST PUSH0 PUSH1 0x20 DUP3 ADD SWAP1 POP DUP2 DUP2 SUB PUSH0 DUP4 ADD MSTORE PUSH2 0x272C DUP2 PUSH2 0x26F3 JUMP JUMPDEST SWAP1 POP SWAP2 SWAP1 POP JUMP JUMPDEST PUSH32 0x4E487B7100000000000000000000000000000000000000000000000000000000 PUSH0 MSTORE PUSH1 0x11 PUSH1 0x4 MSTORE PUSH1 0x24 PUSH0 REVERT JUMPDEST PUSH0 PUSH2 0x276A DUP3 PUSH2 0x20A2 JUMP JUMPDEST SWAP2 POP PUSH2 0x2775 DUP4 PUSH2 0x20A2 JUMP JUMPDEST SWAP3 POP DUP3 DUP3 SUB SWAP1 POP DUP2 DUP2 GT ISZERO PUSH2 0x278D JUMPI PUSH2 0x278C PUSH2 0x2733 JUMP JUMPDEST JUMPDEST SWAP3 SWAP2 POP POP JUMP JUMPDEST PUSH0 PUSH2 0x279D DUP3 PUSH2 0x20A2 JUMP JUMPDEST SWAP2 POP PUSH32 0xFFFFFFFFFFFFFFFFFFFFFFFFFFFFFFFFFFFFFFFFFFFFFFFFFFFFFFFFFFFFFFFF DUP3 SUB PUSH2 0x27CF JUMPI PUSH2 0x27CE PUSH2 0x2733 JUMP JUMPDEST JUMPDEST PUSH1 0x1 DUP3 ADD SWAP1 POP SWAP2 SWAP1 POP JUMP JUMPDEST PUSH0 PUSH2 0x27E4 DUP3 PUSH2 0x20A2 JUMP JUMPDEST SWAP2 POP PUSH2 0x27EF DUP4 PUSH2 0x20A2 JUMP JUMPDEST SWAP3 POP DUP3 DUP3 ADD SWAP1 POP DUP1 DUP3 GT ISZERO PUSH2 0x2807 JUMPI PUSH2 0x2806 PUSH2 0x2733 JUMP JUMPDEST JUMPDEST SWAP3 SWAP2 POP POP JUMP JUMPDEST PUSH0 DUP2 SWAP1 POP SWAP3 SWAP2 POP POP JUMP JUMPDEST PUSH0 PUSH2 0x2821 DUP3 PUSH2 0x1FF8 JUMP JUMPDEST PUSH2 0x282B DUP2 DUP6 PUSH2 0x280D JUMP JUMPDEST SWAP4 POP PUSH2 0x283B DUP2 DUP6 PUSH1 0x20 DUP7 ADD PUSH2 0x2012 JUMP JUMPDEST DUP1 DUP5 ADD SWAP2 POP POP SWAP3 SWAP2 POP POP JUMP JUMPDEST PUSH0 PUSH2 0x2852 DUP3 DUP6 PUSH2 0x2817 JUMP JUMPDEST SWAP2 POP PUSH2 0x285E DUP3 DUP5 PUSH2 0x2817 JUMP JUMPDEST SWAP2 POP DUP2 SWAP1 POP SWAP4 SWAP3 POP POP POP JUMP JUMPDEST PUSH32 0x4E6F7420656E6F7567682073686172657320617661696C61626C650000000000 PUSH0 DUP3 ADD MSTORE POP JUMP JUMPDEST PUSH0 PUSH2 0x289E PUSH1 0x1B DUP4 PUSH2 0x2002 JUMP JUMPDEST SWAP2 POP PUSH2 0x28A9 DUP3 PUSH2 0x286A JUMP JUMPDEST PUSH1 0x20 DUP3 ADD SWAP1 POP SWAP2 SWAP1 POP JUMP JUMPDEST PUSH0 PUSH1 0x20 DUP3 ADD SWAP1 POP DUP2 DUP2 SUB PUSH0 DUP4 ADD MSTORE PUSH2 0x28CB DUP2 PUSH2 0x2892 JUMP JUMPDEST SWAP1 POP SWAP2 SWAP1 POP JUMP JUMPDEST PUSH32 0x4F776E61626C653A206E6577206F776E657220697320746865207A65726F2061 PUSH0 DUP3 ADD MSTORE PUSH32 0x6464726573730000000000000000000000000000000000000000000000000000 PUSH1 0x20 DUP3 ADD MSTORE POP JUMP JUMPDEST PUSH0 PUSH2 0x292C PUSH1 0x26 DUP4 PUSH2 0x2002 JUMP JUMPDEST SWAP2 POP PUSH2 0x2937 DUP3 PUSH2 0x28D2 JUMP JUMPDEST PUSH1 0x40 DUP3 ADD SWAP1 POP SWAP2 SWAP1 POP JUMP JUMPDEST PUSH0 PUSH1 0x20 DUP3 ADD SWAP1 POP DUP2 DUP2 SUB PUSH0 DUP4 ADD MSTORE PUSH2 0x2959 DUP2 PUSH2 0x2920 JUMP JUMPDEST SWAP1 POP SWAP2 SWAP1 POP JUMP JUMPDEST PUSH32 0x4F776E61626C653A2063616C6C6572206973206E6F7420746865206F776E6572 PUSH0 DUP3 ADD MSTORE POP JUMP JUMPDEST PUSH0 PUSH2 0x2994 PUSH1 0x20 DUP4 PUSH2 0x2002 JUMP JUMPDEST SWAP2 POP PUSH2 0x299F DUP3 PUSH2 0x2960 JUMP JUMPDEST PUSH1 0x20 DUP3 ADD SWAP1 POP SWAP2 SWAP1 POP JUMP JUMPDEST PUSH0 PUSH1 0x20 DUP3 ADD SWAP1 POP DUP2 DUP2 SUB PUSH0 DUP4 ADD MSTORE PUSH2 0x29C1 DUP2 PUSH2 0x2988 JUMP JUMPDEST SWAP1 POP SWAP2 SWAP1 POP JUMP JUMPDEST PUSH0 DUP2 MLOAD SWAP1 POP SWAP2 SWAP1 POP JUMP JUMPDEST PUSH0 DUP3 DUP3 MSTORE PUSH1 0x20 DUP3 ADD SWAP1 POP SWAP3 SWAP2 POP POP JUMP JUMPDEST PUSH0 PUSH2 0x29EC DUP3 PUSH2 0x29C8 JUMP JUMPDEST PUSH2 0x29F6 DUP2 DUP6 PUSH2 0x29D2 JUMP JUMPDEST SWAP4 POP PUSH2 0x2A06 DUP2 DUP6 PUSH1 0x20 DUP7 ADD PUSH2 0x2012 JUMP JUMPDEST PUSH2 0x2A0F DUP2 PUSH2 0x203A JUMP JUMPDEST DUP5 ADD SWAP2 POP POP SWAP3 SWAP2 POP POP JUMP JUMPDEST PUSH0 PUSH1 0x80 DUP3 ADD SWAP1 POP PUSH2 0x2A2D PUSH0 DUP4 ADD DUP8 PUSH2 0x2130 JUMP JUMPDEST PUSH2 0x2A3A PUSH1 0x20 DUP4 ADD DUP7 PUSH2 0x2130 JUMP JUMPDEST PUSH2 0x2A47 PUSH1 0x40 DUP4 ADD DUP6 PUSH2 0x2210 JUMP JUMPDEST DUP2 DUP2 SUB PUSH1 0x60 DUP4 ADD MSTORE PUSH2 0x2A59 DUP2 DUP5 PUSH2 0x29E2 JUMP JUMPDEST SWAP1 POP SWAP6 SWAP5 POP POP POP POP POP JUMP JUMPDEST PUSH0 DUP2 MLOAD SWAP1 POP PUSH2 0x2A72 DUP2 PUSH2 0x1F70 JUMP JUMPDEST SWAP3 SWAP2 POP POP JUMP JUMPDEST PUSH0 PUSH1 0x20 DUP3 DUP5 SUB SLT ISZERO PUSH2 0x2A8D JUMPI PUSH2 0x2A8C PUSH2 0x1F3D JUMP JUMPDEST JUMPDEST PUSH0 PUSH2 0x2A9A DUP5 DUP3 DUP6 ADD PUSH2 0x2A64 JUMP JUMPDEST SWAP2 POP POP SWAP3 SWAP2 POP POP JUMP JUMPDEST PUSH0 PUSH1 0x40 DUP3 ADD SWAP1 POP PUSH2 0x2AB6 PUSH0 DUP4 ADD DUP6 PUSH2 0x2130 JUMP JUMPDEST PUSH2 0x2AC3 PUSH1 0x20 DUP4 ADD DUP5 PUSH2 0x2210 JUMP JUMPDEST SWAP4 SWAP3 POP POP POP JUMP JUMPDEST PUSH32 0x4E487B7100000000000000000000000000000000000000000000000000000000 PUSH0 MSTORE PUSH1 0x12 PUSH1 0x4 MSTORE PUSH1 0x24 PUSH0 REVERT INVALID LOG2 PUSH5 0x6970667358 0x22 SLT KECCAK256 0x2E PUSH7 0xA693BEBEEA43E 0xB5 SWAP2 DUP4 LOG2 SWAP16 0xC3 0x1E 0x2D SWAP9 0xF6 0xDF SMOD PUSH26 0x1247A9E79C8CECA3411964736F6C634300081500330000000000 "
				},
				"gasEstimates": {
					"creation": {
						"codeDepositCost": "2210600",
						"executionCost": "infinite",
						"totalCost": "infinite"
					},
					"external": {
						"allocateShares(uint256,address)": "infinite",
						"approve(address,uint256)": "infinite",
						"balanceOf(address)": "infinite",
						"getApproved(uint256)": "infinite",
						"getSharesOfAddress(address)": "2918",
						"getSharesOfToken(uint256)": "infinite",
						"isApprovedForAll(address,address)": "infinite",
						"name()": "infinite",
						"nextTokenId()": "2470",
						"owner()": "2604",
						"ownerOf(uint256)": "infinite",
						"renounceOwnership()": "30523",
						"safeTransferFrom(address,address,uint256)": "infinite",
						"safeTransferFrom(address,address,uint256,bytes)": "infinite",
						"setApprovalForAll(address,bool)": "infinite",
						"sharesAllocated()": "2558",
						"sharesOfOwner(address)": "2846",
						"supportsInterface(bytes4)": "881",
						"symbol()": "infinite",
						"tokenShares(uint256)": "infinite",
						"tokenURI(uint256)": "infinite",
						"totalShares()": "2559",
						"transferFrom(address,address,uint256)": "infinite",
						"transferOwnership(address)": "30841",
						"transferShares(uint256,uint256,address)": "infinite"
					}
				},
				"methodIdentifiers": {
					"allocateShares(uint256,address)": "df0c3198",
					"approve(address,uint256)": "095ea7b3",
					"balanceOf(address)": "70a08231",
					"getApproved(uint256)": "081812fc",
					"getSharesOfAddress(address)": "68ce5c96",
					"getSharesOfToken(uint256)": "74d5a195",
					"isApprovedForAll(address,address)": "e985e9c5",
					"name()": "06fdde03",
					"nextTokenId()": "75794a3c",
					"owner()": "8da5cb5b",
					"ownerOf(uint256)": "6352211e",
					"renounceOwnership()": "715018a6",
					"safeTransferFrom(address,address,uint256)": "42842e0e",
					"safeTransferFrom(address,address,uint256,bytes)": "b88d4fde",
					"setApprovalForAll(address,bool)": "a22cb465",
					"sharesAllocated()": "9c9f263c",
					"sharesOfOwner(address)": "cc20ffa4",
					"supportsInterface(bytes4)": "01ffc9a7",
					"symbol()": "95d89b41",
					"tokenShares(uint256)": "3ae64e0c",
					"tokenURI(uint256)": "c87b56dd",
					"totalShares()": "3a98ef39",
					"transferFrom(address,address,uint256)": "23b872dd",
					"transferOwnership(address)": "f2fde38b",
					"transferShares(uint256,uint256,address)": "87a7dc77"
				}
			},
			"storageLayout": {
				"storage": [
					{
						"astId": 314,
						"contract": "contracts/AquoNFT.sol:AssetShares",
						"label": "_name",
						"offset": 0,
						"slot": "0",
						"type": "t_string_storage"
					},
					{
						"astId": 316,
						"contract": "contracts/AquoNFT.sol:AssetShares",
						"label": "_symbol",
						"offset": 0,
						"slot": "1",
						"type": "t_string_storage"
					},
					{
						"astId": 320,
						"contract": "contracts/AquoNFT.sol:AssetShares",
						"label": "_owners",
						"offset": 0,
						"slot": "2",
						"type": "t_mapping(t_uint256,t_address)"
					},
					{
						"astId": 324,
						"contract": "contracts/AquoNFT.sol:AssetShares",
						"label": "_balances",
						"offset": 0,
						"slot": "3",
						"type": "t_mapping(t_address,t_uint256)"
					},
					{
						"astId": 328,
						"contract": "contracts/AquoNFT.sol:AssetShares",
						"label": "_tokenApprovals",
						"offset": 0,
						"slot": "4",
						"type": "t_mapping(t_uint256,t_address)"
					},
					{
						"astId": 334,
						"contract": "contracts/AquoNFT.sol:AssetShares",
						"label": "_operatorApprovals",
						"offset": 0,
						"slot": "5",
						"type": "t_mapping(t_address,t_mapping(t_address,t_bool))"
					},
					{
						"astId": 1453,
						"contract": "contracts/AquoNFT.sol:AssetShares",
						"label": "_tokenURIs",
						"offset": 0,
						"slot": "6",
						"type": "t_mapping(t_uint256,t_string_storage)"
					},
					{
						"astId": 7,
						"contract": "contracts/AquoNFT.sol:AssetShares",
						"label": "_owner",
						"offset": 0,
						"slot": "7",
						"type": "t_address"
					},
					{
						"astId": 3061,
						"contract": "contracts/AquoNFT.sol:AssetShares",
						"label": "totalShares",
						"offset": 0,
						"slot": "8",
						"type": "t_uint256"
					},
					{
						"astId": 3063,
						"contract": "contracts/AquoNFT.sol:AssetShares",
						"label": "sharesAllocated",
						"offset": 0,
						"slot": "9",
						"type": "t_uint256"
					},
					{
						"astId": 3066,
						"contract": "contracts/AquoNFT.sol:AssetShares",
						"label": "nextTokenId",
						"offset": 0,
						"slot": "10",
						"type": "t_uint256"
					},
					{
						"astId": 3070,
						"contract": "contracts/AquoNFT.sol:AssetShares",
						"label": "tokenShares",
						"offset": 0,
						"slot": "11",
						"type": "t_mapping(t_uint256,t_uint256)"
					},
					{
						"astId": 3074,
						"contract": "contracts/AquoNFT.sol:AssetShares",
						"label": "sharesOfOwner",
						"offset": 0,
						"slot": "12",
						"type": "t_mapping(t_address,t_uint256)"
					}
				],
				"types": {
					"t_address": {
						"encoding": "inplace",
						"label": "address",
						"numberOfBytes": "20"
					},
					"t_bool": {
						"encoding": "inplace",
						"label": "bool",
						"numberOfBytes": "1"
					},
					"t_mapping(t_address,t_bool)": {
						"encoding": "mapping",
						"key": "t_address",
						"label": "mapping(address => bool)",
						"numberOfBytes": "32",
						"value": "t_bool"
					},
					"t_mapping(t_address,t_mapping(t_address,t_bool))": {
						"encoding": "mapping",
						"key": "t_address",
						"label": "mapping(address => mapping(address => bool))",
						"numberOfBytes": "32",
						"value": "t_mapping(t_address,t_bool)"
					},
					"t_mapping(t_address,t_uint256)": {
						"encoding": "mapping",
						"key": "t_address",
						"label": "mapping(address => uint256)",
						"numberOfBytes": "32",
						"value": "t_uint256"
					},
					"t_mapping(t_uint256,t_address)": {
						"encoding": "mapping",
						"key": "t_uint256",
						"label": "mapping(uint256 => address)",
						"numberOfBytes": "32",
						"value": "t_address"
					},
					"t_mapping(t_uint256,t_string_storage)": {
						"encoding": "mapping",
						"key": "t_uint256",
						"label": "mapping(uint256 => string)",
						"numberOfBytes": "32",
						"value": "t_string_storage"
					},
					"t_mapping(t_uint256,t_uint256)": {
						"encoding": "mapping",
						"key": "t_uint256",
						"label": "mapping(uint256 => uint256)",
						"numberOfBytes": "32",
						"value": "t_uint256"
					},
					"t_string_storage": {
						"encoding": "bytes",
						"label": "string",
						"numberOfBytes": "32"
					},
					"t_uint256": {
						"encoding": "inplace",
						"label": "uint256",
						"numberOfBytes": "32"
					}
				}
			},
			"userdoc": {
				"kind": "user",
				"methods": {},
				"version": 1
			}
		}
	}
}