{
	"contracts/erc20htlc2.sol": {
		"Peacio": {
			"abi": [
				{
					"inputs": [
						{
							"internalType": "address payable",
							"name": "_seller",
							"type": "address"
						},
						{
							"internalType": "address",
							"name": "_notary",
							"type": "address"
						},
						{
							"internalType": "uint256",
							"name": "_saleRelease",
							"type": "uint256"
						},
						{
							"internalType": "uint256",
							"name": "_disputeRelease",
							"type": "uint256"
						}
					],
					"stateMutability": "nonpayable",
					"type": "constructor"
				},
				{
					"inputs": [
						{
							"internalType": "uint256",
							"name": "_value1",
							"type": "uint256"
						}
					],
					"name": "approveAndTransferUSDC",
					"outputs": [
						{
							"internalType": "bool",
							"name": "",
							"type": "bool"
						}
					],
					"stateMutability": "nonpayable",
					"type": "function"
				},
				{
					"inputs": [
						{
							"internalType": "uint256",
							"name": "_value1",
							"type": "uint256"
						}
					],
					"name": "approveContractTransfer",
					"outputs": [],
					"stateMutability": "nonpayable",
					"type": "function"
				},
				{
					"inputs": [],
					"name": "checkAllowance",
					"outputs": [
						{
							"internalType": "uint256",
							"name": "",
							"type": "uint256"
						},
						{
							"internalType": "uint256",
							"name": "",
							"type": "uint256"
						},
						{
							"internalType": "uint256",
							"name": "",
							"type": "uint256"
						},
						{
							"internalType": "uint256",
							"name": "",
							"type": "uint256"
						}
					],
					"stateMutability": "view",
					"type": "function"
				},
				{
					"inputs": [],
					"name": "defaultDisputeSettlement",
					"outputs": [],
					"stateMutability": "nonpayable",
					"type": "function"
				},
				{
					"inputs": [],
					"name": "dispute",
					"outputs": [
						{
							"internalType": "bool",
							"name": "",
							"type": "bool"
						}
					],
					"stateMutability": "view",
					"type": "function"
				},
				{
					"inputs": [],
					"name": "disputeRelease",
					"outputs": [
						{
							"internalType": "uint256",
							"name": "",
							"type": "uint256"
						}
					],
					"stateMutability": "view",
					"type": "function"
				},
				{
					"inputs": [
						{
							"internalType": "bool",
							"name": "paySeller",
							"type": "bool"
						}
					],
					"name": "disputeSettlement",
					"outputs": [],
					"stateMutability": "nonpayable",
					"type": "function"
				},
				{
					"inputs": [],
					"name": "getBalance",
					"outputs": [
						{
							"internalType": "uint256",
							"name": "",
							"type": "uint256"
						}
					],
					"stateMutability": "view",
					"type": "function"
				},
				{
					"inputs": [],
					"name": "getBuyerUsdcBalance",
					"outputs": [
						{
							"internalType": "uint256",
							"name": "",
							"type": "uint256"
						},
						{
							"internalType": "uint256",
							"name": "",
							"type": "uint256"
						},
						{
							"internalType": "uint256",
							"name": "",
							"type": "uint256"
						}
					],
					"stateMutability": "view",
					"type": "function"
				},
				{
					"inputs": [],
					"name": "getContractUsdcBalance",
					"outputs": [
						{
							"internalType": "uint256",
							"name": "",
							"type": "uint256"
						}
					],
					"stateMutability": "view",
					"type": "function"
				},
				{
					"inputs": [],
					"name": "getSenderBalance",
					"outputs": [
						{
							"internalType": "uint256",
							"name": "",
							"type": "uint256"
						}
					],
					"stateMutability": "view",
					"type": "function"
				},
				{
					"inputs": [],
					"name": "raiseDispute",
					"outputs": [],
					"stateMutability": "nonpayable",
					"type": "function"
				},
				{
					"inputs": [],
					"name": "saleRelease",
					"outputs": [
						{
							"internalType": "uint256",
							"name": "",
							"type": "uint256"
						}
					],
					"stateMutability": "view",
					"type": "function"
				},
				{
					"inputs": [],
					"name": "saleSettlement",
					"outputs": [],
					"stateMutability": "nonpayable",
					"type": "function"
				},
				{
					"inputs": [],
					"name": "settlement",
					"outputs": [],
					"stateMutability": "nonpayable",
					"type": "function"
				},
				{
					"inputs": [],
					"name": "settlementUsdc",
					"outputs": [],
					"stateMutability": "nonpayable",
					"type": "function"
				}
			],
			"devdoc": {
				"kind": "dev",
				"methods": {},
				"version": 1
			},
			"evm": {
				"assembly": "    /* \"contracts/erc20htlc2.sol\":186:5991  contract Peacio {... */\n  mstore(0x40, 0x80)\n    /* \"contracts/erc20htlc2.sol\":412:454  0x5425890298aed601595a70AB815c96711a31Bc65 */\n  0x5425890298aed601595a70ab815c96711a31bc65\n    /* \"contracts/erc20htlc2.sol\":384:454  address   usdcAddressAvax = 0x5425890298aed601595a70AB815c96711a31Bc65 */\n  0x05\n  exp(0x0100, 0x00)\n  dup2\n  sload\n  dup2\n  0xffffffffffffffffffffffffffffffffffffffff\n  mul\n  not\n  and\n  swap1\n  dup4\n  0xffffffffffffffffffffffffffffffffffffffff\n  and\n  mul\n  or\n  swap1\n  sstore\n  pop\n    /* \"contracts/erc20htlc2.sol\":524:566  0x0FA8781a83E46826621b3BC094Ea2A0212e71B23 */\n  0x0fa8781a83e46826621b3bc094ea2a0212e71b23\n    /* \"contracts/erc20htlc2.sol\":477:567  address payable  usdcAddressPolygon  = payable(0x0FA8781a83E46826621b3BC094Ea2A0212e71B23) */\n  0x06\n  exp(0x0100, 0x00)\n  dup2\n  sload\n  dup2\n  0xffffffffffffffffffffffffffffffffffffffff\n  mul\n  not\n  and\n  swap1\n  dup4\n  0xffffffffffffffffffffffffffffffffffffffff\n  and\n  mul\n  or\n  swap1\n  sstore\n  pop\n    /* \"contracts/erc20htlc2.sol\":624:666  0xfC872E8Dc23fD2fDe20F720077016b9C4B1c8C59 */\n  0xfc872e8dc23fd2fde20f720077016b9c4b1c8c59\n    /* \"contracts/erc20htlc2.sol\":574:667  address payable usdcAddressProxyPolygon = payable(0xfC872E8Dc23fD2fDe20F720077016b9C4B1c8C59) */\n  0x07\n  exp(0x0100, 0x00)\n  dup2\n  sload\n  dup2\n  0xffffffffffffffffffffffffffffffffffffffff\n  mul\n  not\n  and\n  swap1\n  dup4\n  0xffffffffffffffffffffffffffffffffffffffff\n  and\n  mul\n  or\n  swap1\n  sstore\n  pop\n    /* \"contracts/erc20htlc2.sol\":703:745  0xfe4F5145f6e09952a5ba9e956ED0C25e3Fa4c7F1 */\n  0xfe4f5145f6e09952a5ba9e956ed0c25e3fa4c7f1\n    /* \"contracts/erc20htlc2.sol\":674:745  address  usdcAddressDERC20 = 0xfe4F5145f6e09952a5ba9e956ED0C25e3Fa4c7F1 */\n  0x08\n  exp(0x0100, 0x00)\n  dup2\n  sload\n  dup2\n  0xffffffffffffffffffffffffffffffffffffffff\n  mul\n  not\n  and\n  swap1\n  dup4\n  0xffffffffffffffffffffffffffffffffffffffff\n  and\n  mul\n  or\n  swap1\n  sstore\n  pop\n    /* \"contracts/erc20htlc2.sol\":822:1352  constructor(address payable _seller, ... */\n  callvalue\n  dup1\n  iszero\n  tag_1\n  jumpi\n  0x00\n  dup1\n  revert\ntag_1:\n  pop\n  mload(0x40)\n  sub(codesize, bytecodeSize)\n  dup1\n  bytecodeSize\n  dup4\n  codecopy\n  dup2\n  dup2\n  add\n  0x40\n  mstore\n  dup2\n  add\n  swap1\n  tag_2\n  swap2\n  swap1\n  tag_3\n  jump\t// in\ntag_2:\n    /* \"contracts/erc20htlc2.sol\":993:1000  _seller */\n  dup4\n    /* \"contracts/erc20htlc2.sol\":984:990  seller */\n  0x04\n  0x00\n    /* \"contracts/erc20htlc2.sol\":984:1000  seller = _seller */\n  0x0100\n  exp\n  dup2\n  sload\n  dup2\n  0xffffffffffffffffffffffffffffffffffffffff\n  mul\n  not\n  and\n  swap1\n  dup4\n  0xffffffffffffffffffffffffffffffffffffffff\n  and\n  mul\n  or\n  swap1\n  sstore\n  pop\n    /* \"contracts/erc20htlc2.sol\":1020:1027  _notary */\n  dup3\n    /* \"contracts/erc20htlc2.sol\":1011:1017  notary */\n  0x03\n  0x00\n    /* \"contracts/erc20htlc2.sol\":1011:1027  notary = _notary */\n  0x0100\n  exp\n  dup2\n  sload\n  dup2\n  0xffffffffffffffffffffffffffffffffffffffff\n  mul\n  not\n  and\n  swap1\n  dup4\n  0xffffffffffffffffffffffffffffffffffffffff\n  and\n  mul\n  or\n  swap1\n  sstore\n  pop\n    /* \"contracts/erc20htlc2.sol\":1054:1064  msg.sender */\n  caller\n    /* \"contracts/erc20htlc2.sol\":1038:1043  buyer */\n  0x02\n  0x00\n    /* \"contracts/erc20htlc2.sol\":1038:1065  buyer = payable(msg.sender) */\n  0x0100\n  exp\n  dup2\n  sload\n  dup2\n  0xffffffffffffffffffffffffffffffffffffffff\n  mul\n  not\n  and\n  swap1\n  dup4\n  0xffffffffffffffffffffffffffffffffffffffff\n  and\n  mul\n  or\n  swap1\n  sstore\n  pop\n    /* \"contracts/erc20htlc2.sol\":1087:1092  false */\n  0x00\n    /* \"contracts/erc20htlc2.sol\":1077:1084  dispute */\n  0x04\n  0x14\n    /* \"contracts/erc20htlc2.sol\":1077:1092  dispute = false */\n  0x0100\n  exp\n  dup2\n  sload\n  dup2\n  0xff\n  mul\n  not\n  and\n  swap1\n  dup4\n  iszero\n  iszero\n  mul\n  or\n  swap1\n  sstore\n  pop\n    /* \"contracts/erc20htlc2.sol\":1117:1129  _saleRelease */\n  dup2\n    /* \"contracts/erc20htlc2.sol\":1103:1114  saleRelease */\n  0x00\n    /* \"contracts/erc20htlc2.sol\":1103:1129  saleRelease = _saleRelease */\n  dup2\n  swap1\n  sstore\n  pop\n    /* \"contracts/erc20htlc2.sol\":1154:1177  usdcAddressProxyPolygon */\n  0x07\n  0x00\n  swap1\n  sload\n  swap1\n  0x0100\n  exp\n  swap1\n  div\n  0xffffffffffffffffffffffffffffffffffffffff\n  and\n    /* \"contracts/erc20htlc2.sol\":1140:1151  usdcAddress */\n  0x09\n  0x00\n    /* \"contracts/erc20htlc2.sol\":1140:1177  usdcAddress = usdcAddressProxyPolygon */\n  0x0100\n  exp\n  dup2\n  sload\n  dup2\n  0xffffffffffffffffffffffffffffffffffffffff\n  mul\n  not\n  and\n  swap1\n  dup4\n  0xffffffffffffffffffffffffffffffffffffffff\n  and\n  mul\n  or\n  swap1\n  sstore\n  pop\n    /* \"contracts/erc20htlc2.sol\":1210:1222  _saleRelease */\n  dup2\n    /* \"contracts/erc20htlc2.sol\":1192:1207  _disputeRelease */\n  dup2\n    /* \"contracts/erc20htlc2.sol\":1192:1222  _disputeRelease < _saleRelease */\n  lt\n    /* \"contracts/erc20htlc2.sol\":1188:1345  if (_disputeRelease < _saleRelease) {... */\n  iszero\n  tag_6\n  jumpi\n    /* \"contracts/erc20htlc2.sol\":1256:1268  _saleRelease */\n  dup2\n    /* \"contracts/erc20htlc2.sol\":1239:1253  disputeRelease */\n  0x01\n    /* \"contracts/erc20htlc2.sol\":1239:1268  disputeRelease = _saleRelease */\n  dup2\n  swap1\n  sstore\n  pop\n    /* \"contracts/erc20htlc2.sol\":1188:1345  if (_disputeRelease < _saleRelease) {... */\n  jump(tag_7)\ntag_6:\n    /* \"contracts/erc20htlc2.sol\":1318:1333  _disputeRelease */\n  dup1\n    /* \"contracts/erc20htlc2.sol\":1301:1315  disputeRelease */\n  0x01\n    /* \"contracts/erc20htlc2.sol\":1301:1333  disputeRelease = _disputeRelease */\n  dup2\n  swap1\n  sstore\n  pop\n    /* \"contracts/erc20htlc2.sol\":1188:1345  if (_disputeRelease < _saleRelease) {... */\ntag_7:\n    /* \"contracts/erc20htlc2.sol\":822:1352  constructor(address payable _seller, ... */\n  pop\n  pop\n  pop\n  pop\n    /* \"contracts/erc20htlc2.sol\":186:5991  contract Peacio {... */\n  jump(tag_8)\n    /* \"#utility.yul\":88:205   */\ntag_10:\n    /* \"#utility.yul\":197:198   */\n  0x00\n    /* \"#utility.yul\":194:195   */\n  dup1\n    /* \"#utility.yul\":187:199   */\n  revert\n    /* \"#utility.yul\":334:460   */\ntag_12:\n    /* \"#utility.yul\":371:378   */\n  0x00\n    /* \"#utility.yul\":411:453   */\n  0xffffffffffffffffffffffffffffffffffffffff\n    /* \"#utility.yul\":404:409   */\n  dup3\n    /* \"#utility.yul\":400:454   */\n  and\n    /* \"#utility.yul\":389:454   */\n  swap1\n  pop\n    /* \"#utility.yul\":334:460   */\n  swap2\n  swap1\n  pop\n  jump\t// out\n    /* \"#utility.yul\":466:570   */\ntag_13:\n    /* \"#utility.yul\":511:518   */\n  0x00\n    /* \"#utility.yul\":540:564   */\n  tag_28\n    /* \"#utility.yul\":558:563   */\n  dup3\n    /* \"#utility.yul\":540:564   */\n  tag_12\n  jump\t// in\ntag_28:\n    /* \"#utility.yul\":529:564   */\n  swap1\n  pop\n    /* \"#utility.yul\":466:570   */\n  swap2\n  swap1\n  pop\n  jump\t// out\n    /* \"#utility.yul\":576:714   */\ntag_14:\n    /* \"#utility.yul\":657:689   */\n  tag_30\n    /* \"#utility.yul\":683:688   */\n  dup2\n    /* \"#utility.yul\":657:689   */\n  tag_13\n  jump\t// in\ntag_30:\n    /* \"#utility.yul\":650:655   */\n  dup2\n    /* \"#utility.yul\":647:690   */\n  eq\n    /* \"#utility.yul\":637:708   */\n  tag_31\n  jumpi\n    /* \"#utility.yul\":704:705   */\n  0x00\n    /* \"#utility.yul\":701:702   */\n  dup1\n    /* \"#utility.yul\":694:706   */\n  revert\n    /* \"#utility.yul\":637:708   */\ntag_31:\n    /* \"#utility.yul\":576:714   */\n  pop\n  jump\t// out\n    /* \"#utility.yul\":720:879   */\ntag_15:\n    /* \"#utility.yul\":785:790   */\n  0x00\n    /* \"#utility.yul\":816:822   */\n  dup2\n    /* \"#utility.yul\":810:823   */\n  mload\n    /* \"#utility.yul\":801:823   */\n  swap1\n  pop\n    /* \"#utility.yul\":832:873   */\n  tag_33\n    /* \"#utility.yul\":867:872   */\n  dup2\n    /* \"#utility.yul\":832:873   */\n  tag_14\n  jump\t// in\ntag_33:\n    /* \"#utility.yul\":720:879   */\n  swap3\n  swap2\n  pop\n  pop\n  jump\t// out\n    /* \"#utility.yul\":885:981   */\ntag_16:\n    /* \"#utility.yul\":922:929   */\n  0x00\n    /* \"#utility.yul\":951:975   */\n  tag_35\n    /* \"#utility.yul\":969:974   */\n  dup3\n    /* \"#utility.yul\":951:975   */\n  tag_12\n  jump\t// in\ntag_35:\n    /* \"#utility.yul\":940:975   */\n  swap1\n  pop\n    /* \"#utility.yul\":885:981   */\n  swap2\n  swap1\n  pop\n  jump\t// out\n    /* \"#utility.yul\":987:1109   */\ntag_17:\n    /* \"#utility.yul\":1060:1084   */\n  tag_37\n    /* \"#utility.yul\":1078:1083   */\n  dup2\n    /* \"#utility.yul\":1060:1084   */\n  tag_16\n  jump\t// in\ntag_37:\n    /* \"#utility.yul\":1053:1058   */\n  dup2\n    /* \"#utility.yul\":1050:1085   */\n  eq\n    /* \"#utility.yul\":1040:1103   */\n  tag_38\n  jumpi\n    /* \"#utility.yul\":1099:1100   */\n  0x00\n    /* \"#utility.yul\":1096:1097   */\n  dup1\n    /* \"#utility.yul\":1089:1101   */\n  revert\n    /* \"#utility.yul\":1040:1103   */\ntag_38:\n    /* \"#utility.yul\":987:1109   */\n  pop\n  jump\t// out\n    /* \"#utility.yul\":1115:1258   */\ntag_18:\n    /* \"#utility.yul\":1172:1177   */\n  0x00\n    /* \"#utility.yul\":1203:1209   */\n  dup2\n    /* \"#utility.yul\":1197:1210   */\n  mload\n    /* \"#utility.yul\":1188:1210   */\n  swap1\n  pop\n    /* \"#utility.yul\":1219:1252   */\n  tag_40\n    /* \"#utility.yul\":1246:1251   */\n  dup2\n    /* \"#utility.yul\":1219:1252   */\n  tag_17\n  jump\t// in\ntag_40:\n    /* \"#utility.yul\":1115:1258   */\n  swap3\n  swap2\n  pop\n  pop\n  jump\t// out\n    /* \"#utility.yul\":1264:1341   */\ntag_19:\n    /* \"#utility.yul\":1301:1308   */\n  0x00\n    /* \"#utility.yul\":1330:1335   */\n  dup2\n    /* \"#utility.yul\":1319:1335   */\n  swap1\n  pop\n    /* \"#utility.yul\":1264:1341   */\n  swap2\n  swap1\n  pop\n  jump\t// out\n    /* \"#utility.yul\":1347:1469   */\ntag_20:\n    /* \"#utility.yul\":1420:1444   */\n  tag_43\n    /* \"#utility.yul\":1438:1443   */\n  dup2\n    /* \"#utility.yul\":1420:1444   */\n  tag_19\n  jump\t// in\ntag_43:\n    /* \"#utility.yul\":1413:1418   */\n  dup2\n    /* \"#utility.yul\":1410:1445   */\n  eq\n    /* \"#utility.yul\":1400:1463   */\n  tag_44\n  jumpi\n    /* \"#utility.yul\":1459:1460   */\n  0x00\n    /* \"#utility.yul\":1456:1457   */\n  dup1\n    /* \"#utility.yul\":1449:1461   */\n  revert\n    /* \"#utility.yul\":1400:1463   */\ntag_44:\n    /* \"#utility.yul\":1347:1469   */\n  pop\n  jump\t// out\n    /* \"#utility.yul\":1475:1618   */\ntag_21:\n    /* \"#utility.yul\":1532:1537   */\n  0x00\n    /* \"#utility.yul\":1563:1569   */\n  dup2\n    /* \"#utility.yul\":1557:1570   */\n  mload\n    /* \"#utility.yul\":1548:1570   */\n  swap1\n  pop\n    /* \"#utility.yul\":1579:1612   */\n  tag_46\n    /* \"#utility.yul\":1606:1611   */\n  dup2\n    /* \"#utility.yul\":1579:1612   */\n  tag_20\n  jump\t// in\ntag_46:\n    /* \"#utility.yul\":1475:1618   */\n  swap3\n  swap2\n  pop\n  pop\n  jump\t// out\n    /* \"#utility.yul\":1624:2460   */\ntag_3:\n    /* \"#utility.yul\":1729:1735   */\n  0x00\n    /* \"#utility.yul\":1737:1743   */\n  dup1\n    /* \"#utility.yul\":1745:1751   */\n  0x00\n    /* \"#utility.yul\":1753:1759   */\n  dup1\n    /* \"#utility.yul\":1802:1805   */\n  0x80\n    /* \"#utility.yul\":1790:1799   */\n  dup6\n    /* \"#utility.yul\":1781:1788   */\n  dup8\n    /* \"#utility.yul\":1777:1800   */\n  sub\n    /* \"#utility.yul\":1773:1806   */\n  slt\n    /* \"#utility.yul\":1770:1890   */\n  iszero\n  tag_48\n  jumpi\n    /* \"#utility.yul\":1809:1888   */\n  tag_49\n  tag_10\n  jump\t// in\ntag_49:\n    /* \"#utility.yul\":1770:1890   */\ntag_48:\n    /* \"#utility.yul\":1929:1930   */\n  0x00\n    /* \"#utility.yul\":1954:2026   */\n  tag_50\n    /* \"#utility.yul\":2018:2025   */\n  dup8\n    /* \"#utility.yul\":2009:2015   */\n  dup3\n    /* \"#utility.yul\":1998:2007   */\n  dup9\n    /* \"#utility.yul\":1994:2016   */\n  add\n    /* \"#utility.yul\":1954:2026   */\n  tag_15\n  jump\t// in\ntag_50:\n    /* \"#utility.yul\":1944:2026   */\n  swap5\n  pop\n    /* \"#utility.yul\":1900:2036   */\n  pop\n    /* \"#utility.yul\":2075:2077   */\n  0x20\n    /* \"#utility.yul\":2101:2165   */\n  tag_51\n    /* \"#utility.yul\":2157:2164   */\n  dup8\n    /* \"#utility.yul\":2148:2154   */\n  dup3\n    /* \"#utility.yul\":2137:2146   */\n  dup9\n    /* \"#utility.yul\":2133:2155   */\n  add\n    /* \"#utility.yul\":2101:2165   */\n  tag_18\n  jump\t// in\ntag_51:\n    /* \"#utility.yul\":2091:2165   */\n  swap4\n  pop\n    /* \"#utility.yul\":2046:2175   */\n  pop\n    /* \"#utility.yul\":2214:2216   */\n  0x40\n    /* \"#utility.yul\":2240:2304   */\n  tag_52\n    /* \"#utility.yul\":2296:2303   */\n  dup8\n    /* \"#utility.yul\":2287:2293   */\n  dup3\n    /* \"#utility.yul\":2276:2285   */\n  dup9\n    /* \"#utility.yul\":2272:2294   */\n  add\n    /* \"#utility.yul\":2240:2304   */\n  tag_21\n  jump\t// in\ntag_52:\n    /* \"#utility.yul\":2230:2304   */\n  swap3\n  pop\n    /* \"#utility.yul\":2185:2314   */\n  pop\n    /* \"#utility.yul\":2353:2355   */\n  0x60\n    /* \"#utility.yul\":2379:2443   */\n  tag_53\n    /* \"#utility.yul\":2435:2442   */\n  dup8\n    /* \"#utility.yul\":2426:2432   */\n  dup3\n    /* \"#utility.yul\":2415:2424   */\n  dup9\n    /* \"#utility.yul\":2411:2433   */\n  add\n    /* \"#utility.yul\":2379:2443   */\n  tag_21\n  jump\t// in\ntag_53:\n    /* \"#utility.yul\":2369:2443   */\n  swap2\n  pop\n    /* \"#utility.yul\":2324:2453   */\n  pop\n    /* \"#utility.yul\":1624:2460   */\n  swap3\n  swap6\n  swap2\n  swap5\n  pop\n  swap3\n  pop\n  jump\t// out\n    /* \"contracts/erc20htlc2.sol\":186:5991  contract Peacio {... */\ntag_8:\n  dataSize(sub_0)\n  dup1\n  dataOffset(sub_0)\n  0x00\n  codecopy\n  0x00\n  return\nstop\n\nsub_0: assembly {\n        /* \"contracts/erc20htlc2.sol\":186:5991  contract Peacio {... */\n      mstore(0x40, 0x80)\n      callvalue\n      dup1\n      iszero\n      tag_1\n      jumpi\n      0x00\n      dup1\n      revert\n    tag_1:\n      pop\n      jumpi(tag_2, lt(calldatasize, 0x04))\n      shr(0xe0, calldataload(0x00))\n      dup1\n      0xa1c53047\n      gt\n      tag_19\n      jumpi\n      dup1\n      0xd9c4273e\n      gt\n      tag_20\n      jumpi\n      dup1\n      0xd9c4273e\n      eq\n      tag_15\n      jumpi\n      dup1\n      0xdb3999cd\n      eq\n      tag_16\n      jumpi\n      dup1\n      0xf240f7c3\n      eq\n      tag_17\n      jumpi\n      dup1\n      0xff18253b\n      eq\n      tag_18\n      jumpi\n      jump(tag_2)\n    tag_20:\n      dup1\n      0xa1c53047\n      eq\n      tag_11\n      jumpi\n      dup1\n      0xa36c3e08\n      eq\n      tag_12\n      jumpi\n      dup1\n      0xa5c41649\n      eq\n      tag_13\n      jumpi\n      dup1\n      0xcc355cf5\n      eq\n      tag_14\n      jumpi\n      jump(tag_2)\n    tag_19:\n      dup1\n      0x56ff7c59\n      gt\n      tag_21\n      jumpi\n      dup1\n      0x56ff7c59\n      eq\n      tag_7\n      jumpi\n      dup1\n      0x6daa2d44\n      eq\n      tag_8\n      jumpi\n      dup1\n      0x9405de64\n      eq\n      tag_9\n      jumpi\n      dup1\n      0x9410872b\n      eq\n      tag_10\n      jumpi\n      jump(tag_2)\n    tag_21:\n      dup1\n      0x12065fe0\n      eq\n      tag_3\n      jumpi\n      dup1\n      0x1ba32439\n      eq\n      tag_4\n      jumpi\n      dup1\n      0x44b2dc85\n      eq\n      tag_5\n      jumpi\n      dup1\n      0x51160630\n      eq\n      tag_6\n      jumpi\n    tag_2:\n      0x00\n      dup1\n      revert\n        /* \"contracts/erc20htlc2.sol\":4558:4657  function getBalance() public view returns (uint256) {... */\n    tag_3:\n      tag_22\n      tag_23\n      jump\t// in\n    tag_22:\n      mload(0x40)\n      tag_24\n      swap2\n      swap1\n      tag_25\n      jump\t// in\n    tag_24:\n      mload(0x40)\n      dup1\n      swap2\n      sub\n      swap1\n      return\n        /* \"contracts/erc20htlc2.sol\":3434:3851  function getBuyerUsdcBalance() public view returns (uint256, uint256, uint256) {... */\n    tag_4:\n      tag_26\n      tag_27\n      jump\t// in\n    tag_26:\n      mload(0x40)\n      tag_28\n      swap4\n      swap3\n      swap2\n      swap1\n      tag_29\n      jump\t// in\n    tag_28:\n      mload(0x40)\n      dup1\n      swap2\n      sub\n      swap1\n      return\n        /* \"contracts/erc20htlc2.sol\":3858:4128  function getContractUsdcBalance() public view returns (uint256) {... */\n    tag_5:\n      tag_30\n      tag_31\n      jump\t// in\n    tag_30:\n      mload(0x40)\n      tag_32\n      swap2\n      swap1\n      tag_25\n      jump\t// in\n    tag_32:\n      mload(0x40)\n      dup1\n      swap2\n      sub\n      swap1\n      return\n        /* \"contracts/erc20htlc2.sol\":3257:3427  function settlement() public  {... */\n    tag_6:\n      tag_33\n      tag_34\n      jump\t// in\n    tag_33:\n      stop\n        /* \"contracts/erc20htlc2.sol\":1363:1652  function approveContractTransfer(uint256 _value1) ... */\n    tag_7:\n      tag_35\n      0x04\n      dup1\n      calldatasize\n      sub\n      dup2\n      add\n      swap1\n      tag_36\n      swap2\n      swap1\n      tag_37\n      jump\t// in\n    tag_36:\n      tag_38\n      jump\t// in\n    tag_35:\n      stop\n        /* \"contracts/erc20htlc2.sol\":3051:3202  function raiseDispute() public  {... */\n    tag_8:\n      tag_39\n      tag_40\n      jump\t// in\n    tag_39:\n      stop\n        /* \"contracts/erc20htlc2.sol\":1660:2191  function checkAllowance() public view returns (uint256, uint256, uint256, uint256) {... */\n    tag_9:\n      tag_41\n      tag_42\n      jump\t// in\n    tag_41:\n      mload(0x40)\n      tag_43\n      swap5\n      swap4\n      swap3\n      swap2\n      swap1\n      tag_44\n      jump\t// in\n    tag_43:\n      mload(0x40)\n      dup1\n      swap2\n      sub\n      swap1\n      return\n        /* \"contracts/erc20htlc2.sol\":5208:5487  function saleSettlement() public  {... */\n    tag_10:\n      tag_45\n      tag_46\n      jump\t// in\n    tag_45:\n      stop\n        /* \"contracts/erc20htlc2.sol\":212:235  uint public saleRelease */\n    tag_11:\n      tag_47\n      tag_48\n      jump\t// in\n    tag_47:\n      mload(0x40)\n      tag_49\n      swap2\n      swap1\n      tag_25\n      jump\t// in\n    tag_49:\n      mload(0x40)\n      dup1\n      swap2\n      sub\n      swap1\n      return\n        /* \"contracts/erc20htlc2.sol\":4134:4440  function settlementUsdc() public  {... */\n    tag_12:\n      tag_50\n      tag_51\n      jump\t// in\n    tag_50:\n      stop\n        /* \"contracts/erc20htlc2.sol\":242:268  uint public disputeRelease */\n    tag_13:\n      tag_52\n      tag_53\n      jump\t// in\n    tag_52:\n      mload(0x40)\n      tag_54\n      swap2\n      swap1\n      tag_25\n      jump\t// in\n    tag_54:\n      mload(0x40)\n      dup1\n      swap2\n      sub\n      swap1\n      return\n        /* \"contracts/erc20htlc2.sol\":4743:5108  function disputeSettlement(bool paySeller) public  {... */\n    tag_14:\n      tag_55\n      0x04\n      dup1\n      calldatasize\n      sub\n      dup2\n      add\n      swap1\n      tag_56\n      swap2\n      swap1\n      tag_57\n      jump\t// in\n    tag_56:\n      tag_58\n      jump\t// in\n    tag_55:\n      stop\n        /* \"contracts/erc20htlc2.sol\":5625:5899  function defaultDisputeSettlement() public  {... */\n    tag_15:\n      tag_59\n      tag_60\n      jump\t// in\n    tag_59:\n      stop\n        /* \"contracts/erc20htlc2.sol\":2201:2970  function approveAndTransferUSDC(uint256 _value1) ... */\n    tag_16:\n      tag_61\n      0x04\n      dup1\n      calldatasize\n      sub\n      dup2\n      add\n      swap1\n      tag_62\n      swap2\n      swap1\n      tag_37\n      jump\t// in\n    tag_62:\n      tag_63\n      jump\t// in\n    tag_61:\n      mload(0x40)\n      tag_64\n      swap2\n      swap1\n      tag_65\n      jump\t// in\n    tag_64:\n      mload(0x40)\n      dup1\n      swap2\n      sub\n      swap1\n      return\n        /* \"contracts/erc20htlc2.sol\":355:374  bool public dispute */\n    tag_17:\n      tag_66\n      tag_67\n      jump\t// in\n    tag_66:\n      mload(0x40)\n      tag_68\n      swap2\n      swap1\n      tag_65\n      jump\t// in\n    tag_68:\n      mload(0x40)\n      dup1\n      swap2\n      sub\n      swap1\n      return\n        /* \"contracts/erc20htlc2.sol\":4448:4550  function getSenderBalance() public view returns (uint256) {... */\n    tag_18:\n      tag_69\n      tag_70\n      jump\t// in\n    tag_69:\n      mload(0x40)\n      tag_71\n      swap2\n      swap1\n      tag_25\n      jump\t// in\n    tag_71:\n      mload(0x40)\n      dup1\n      swap2\n      sub\n      swap1\n      return\n        /* \"contracts/erc20htlc2.sol\":4558:4657  function getBalance() public view returns (uint256) {... */\n    tag_23:\n        /* \"contracts/erc20htlc2.sol\":4601:4608  uint256 */\n      0x00\n        /* \"contracts/erc20htlc2.sol\":4628:4649  address(this).balance */\n      selfbalance\n        /* \"contracts/erc20htlc2.sol\":4621:4649  return address(this).balance */\n      swap1\n      pop\n        /* \"contracts/erc20htlc2.sol\":4558:4657  function getBalance() public view returns (uint256) {... */\n      swap1\n      jump\t// out\n        /* \"contracts/erc20htlc2.sol\":3434:3851  function getBuyerUsdcBalance() public view returns (uint256, uint256, uint256) {... */\n    tag_27:\n        /* \"contracts/erc20htlc2.sol\":3486:3493  uint256 */\n      0x00\n        /* \"contracts/erc20htlc2.sol\":3495:3502  uint256 */\n      dup1\n        /* \"contracts/erc20htlc2.sol\":3504:3511  uint256 */\n      0x00\n        /* \"contracts/erc20htlc2.sol\":3545:3550  buyer */\n      0x02\n      0x00\n      swap1\n      sload\n      swap1\n      0x0100\n      exp\n      swap1\n      div\n      0xffffffffffffffffffffffffffffffffffffffff\n      and\n        /* \"contracts/erc20htlc2.sol\":3532:3550  tx.origin == buyer */\n      0xffffffffffffffffffffffffffffffffffffffff\n      and\n        /* \"contracts/erc20htlc2.sol\":3532:3541  tx.origin */\n      origin\n        /* \"contracts/erc20htlc2.sol\":3532:3550  tx.origin == buyer */\n      0xffffffffffffffffffffffffffffffffffffffff\n      and\n      eq\n        /* \"contracts/erc20htlc2.sol\":3524:3551  require(tx.origin == buyer) */\n      tag_74\n      jumpi\n      0x00\n      dup1\n      revert\n    tag_74:\n        /* \"contracts/erc20htlc2.sol\":3562:3576  uint256 amount */\n      0x00\n        /* \"contracts/erc20htlc2.sol\":3586:3604  usdcAddressPolygon */\n      0x06\n      0x00\n      swap1\n      sload\n      swap1\n      0x0100\n      exp\n      swap1\n      div\n      0xffffffffffffffffffffffffffffffffffffffff\n      and\n        /* \"contracts/erc20htlc2.sol\":3579:3615  IERC20(usdcAddressPolygon).balanceOf */\n      0xffffffffffffffffffffffffffffffffffffffff\n      and\n      0x70a08231\n        /* \"contracts/erc20htlc2.sol\":3616:3621  buyer */\n      0x02\n      0x00\n      swap1\n      sload\n      swap1\n      0x0100\n      exp\n      swap1\n      div\n      0xffffffffffffffffffffffffffffffffffffffff\n      and\n        /* \"contracts/erc20htlc2.sol\":3579:3622  IERC20(usdcAddressPolygon).balanceOf(buyer) */\n      mload(0x40)\n      dup3\n      0xffffffff\n      and\n      0xe0\n      shl\n      dup2\n      mstore\n      0x04\n      add\n      tag_75\n      swap2\n      swap1\n      tag_76\n      jump\t// in\n    tag_75:\n      0x20\n      mload(0x40)\n      dup1\n      dup4\n      sub\n      dup2\n      dup7\n      gas\n      staticcall\n      iszero\n      dup1\n      iszero\n      tag_78\n      jumpi\n      returndatasize\n      0x00\n      dup1\n      returndatacopy\n      revert(0x00, returndatasize)\n    tag_78:\n      pop\n      pop\n      pop\n      pop\n      mload(0x40)\n      returndatasize\n      not(0x1f)\n      0x1f\n      dup3\n      add\n      and\n      dup3\n      add\n      dup1\n      0x40\n      mstore\n      pop\n      dup2\n      add\n      swap1\n      tag_79\n      swap2\n      swap1\n      tag_80\n      jump\t// in\n    tag_79:\n        /* \"contracts/erc20htlc2.sol\":3562:3622  uint256 amount = IERC20(usdcAddressPolygon).balanceOf(buyer) */\n      swap1\n      pop\n        /* \"contracts/erc20htlc2.sol\":3641:3656  uint256 amount1 */\n      0x00\n        /* \"contracts/erc20htlc2.sol\":3666:3684  usdcAddressPolygon */\n      0x06\n      0x00\n      swap1\n      sload\n      swap1\n      0x0100\n      exp\n      swap1\n      div\n      0xffffffffffffffffffffffffffffffffffffffff\n      and\n        /* \"contracts/erc20htlc2.sol\":3659:3695  IERC20(usdcAddressPolygon).balanceOf */\n      0xffffffffffffffffffffffffffffffffffffffff\n      and\n      0x70a08231\n        /* \"contracts/erc20htlc2.sol\":3696:3702  seller */\n      0x04\n      0x00\n      swap1\n      sload\n      swap1\n      0x0100\n      exp\n      swap1\n      div\n      0xffffffffffffffffffffffffffffffffffffffff\n      and\n        /* \"contracts/erc20htlc2.sol\":3659:3703  IERC20(usdcAddressPolygon).balanceOf(seller) */\n      mload(0x40)\n      dup3\n      0xffffffff\n      and\n      0xe0\n      shl\n      dup2\n      mstore\n      0x04\n      add\n      tag_81\n      swap2\n      swap1\n      tag_76\n      jump\t// in\n    tag_81:\n      0x20\n      mload(0x40)\n      dup1\n      dup4\n      sub\n      dup2\n      dup7\n      gas\n      staticcall\n      iszero\n      dup1\n      iszero\n      tag_83\n      jumpi\n      returndatasize\n      0x00\n      dup1\n      returndatacopy\n      revert(0x00, returndatasize)\n    tag_83:\n      pop\n      pop\n      pop\n      pop\n      mload(0x40)\n      returndatasize\n      not(0x1f)\n      0x1f\n      dup3\n      add\n      and\n      dup3\n      add\n      dup1\n      0x40\n      mstore\n      pop\n      dup2\n      add\n      swap1\n      tag_84\n      swap2\n      swap1\n      tag_80\n      jump\t// in\n    tag_84:\n        /* \"contracts/erc20htlc2.sol\":3641:3703  uint256 amount1 = IERC20(usdcAddressPolygon).balanceOf(seller) */\n      swap1\n      pop\n        /* \"contracts/erc20htlc2.sol\":3722:3737  uint256 amount2 */\n      0x00\n        /* \"contracts/erc20htlc2.sol\":3747:3765  usdcAddressPolygon */\n      0x06\n      0x00\n      swap1\n      sload\n      swap1\n      0x0100\n      exp\n      swap1\n      div\n      0xffffffffffffffffffffffffffffffffffffffff\n      and\n        /* \"contracts/erc20htlc2.sol\":3740:3776  IERC20(usdcAddressPolygon).balanceOf */\n      0xffffffffffffffffffffffffffffffffffffffff\n      and\n      0x70a08231\n        /* \"contracts/erc20htlc2.sol\":3777:3787  msg.sender */\n      caller\n        /* \"contracts/erc20htlc2.sol\":3740:3788  IERC20(usdcAddressPolygon).balanceOf(msg.sender) */\n      mload(0x40)\n      dup3\n      0xffffffff\n      and\n      0xe0\n      shl\n      dup2\n      mstore\n      0x04\n      add\n      tag_85\n      swap2\n      swap1\n      tag_86\n      jump\t// in\n    tag_85:\n      0x20\n      mload(0x40)\n      dup1\n      dup4\n      sub\n      dup2\n      dup7\n      gas\n      staticcall\n      iszero\n      dup1\n      iszero\n      tag_88\n      jumpi\n      returndatasize\n      0x00\n      dup1\n      returndatacopy\n      revert(0x00, returndatasize)\n    tag_88:\n      pop\n      pop\n      pop\n      pop\n      mload(0x40)\n      returndatasize\n      not(0x1f)\n      0x1f\n      dup3\n      add\n      and\n      dup3\n      add\n      dup1\n      0x40\n      mstore\n      pop\n      dup2\n      add\n      swap1\n      tag_89\n      swap2\n      swap1\n      tag_80\n      jump\t// in\n    tag_89:\n        /* \"contracts/erc20htlc2.sol\":3722:3788  uint256 amount2 = IERC20(usdcAddressPolygon).balanceOf(msg.sender) */\n      swap1\n      pop\n        /* \"contracts/erc20htlc2.sol\":3807:3813  amount */\n      dup3\n        /* \"contracts/erc20htlc2.sol\":3815:3822  amount1 */\n      dup3\n        /* \"contracts/erc20htlc2.sol\":3824:3831  amount2 */\n      dup3\n        /* \"contracts/erc20htlc2.sol\":3799:3832  return (amount, amount1, amount2) */\n      swap6\n      pop\n      swap6\n      pop\n      swap6\n      pop\n      pop\n      pop\n      pop\n        /* \"contracts/erc20htlc2.sol\":3434:3851  function getBuyerUsdcBalance() public view returns (uint256, uint256, uint256) {... */\n      swap1\n      swap2\n      swap3\n      jump\t// out\n        /* \"contracts/erc20htlc2.sol\":3858:4128  function getContractUsdcBalance() public view returns (uint256) {... */\n    tag_31:\n        /* \"contracts/erc20htlc2.sol\":3913:3920  uint256 */\n      0x00\n        /* \"contracts/erc20htlc2.sol\":3954:3960  notary */\n      0x03\n      0x00\n      swap1\n      sload\n      swap1\n      0x0100\n      exp\n      swap1\n      div\n      0xffffffffffffffffffffffffffffffffffffffff\n      and\n        /* \"contracts/erc20htlc2.sol\":3941:3960  tx.origin == notary */\n      0xffffffffffffffffffffffffffffffffffffffff\n      and\n        /* \"contracts/erc20htlc2.sol\":3941:3950  tx.origin */\n      origin\n        /* \"contracts/erc20htlc2.sol\":3941:3960  tx.origin == notary */\n      0xffffffffffffffffffffffffffffffffffffffff\n      and\n      eq\n        /* \"contracts/erc20htlc2.sol\":3941:3983  tx.origin == notary || tx.origin == seller */\n      dup1\n      tag_91\n      jumpi\n      pop\n        /* \"contracts/erc20htlc2.sol\":3977:3983  seller */\n      0x04\n      0x00\n      swap1\n      sload\n      swap1\n      0x0100\n      exp\n      swap1\n      div\n      0xffffffffffffffffffffffffffffffffffffffff\n      and\n        /* \"contracts/erc20htlc2.sol\":3964:3983  tx.origin == seller */\n      0xffffffffffffffffffffffffffffffffffffffff\n      and\n        /* \"contracts/erc20htlc2.sol\":3964:3973  tx.origin */\n      origin\n        /* \"contracts/erc20htlc2.sol\":3964:3983  tx.origin == seller */\n      0xffffffffffffffffffffffffffffffffffffffff\n      and\n      eq\n        /* \"contracts/erc20htlc2.sol\":3941:3983  tx.origin == notary || tx.origin == seller */\n    tag_91:\n        /* \"contracts/erc20htlc2.sol\":3941:4005  tx.origin == notary || tx.origin == seller || tx.origin == buyer */\n      dup1\n      tag_92\n      jumpi\n      pop\n        /* \"contracts/erc20htlc2.sol\":4000:4005  buyer */\n      0x02\n      0x00\n      swap1\n      sload\n      swap1\n      0x0100\n      exp\n      swap1\n      div\n      0xffffffffffffffffffffffffffffffffffffffff\n      and\n        /* \"contracts/erc20htlc2.sol\":3987:4005  tx.origin == buyer */\n      0xffffffffffffffffffffffffffffffffffffffff\n      and\n        /* \"contracts/erc20htlc2.sol\":3987:3996  tx.origin */\n      origin\n        /* \"contracts/erc20htlc2.sol\":3987:4005  tx.origin == buyer */\n      0xffffffffffffffffffffffffffffffffffffffff\n      and\n      eq\n        /* \"contracts/erc20htlc2.sol\":3941:4005  tx.origin == notary || tx.origin == seller || tx.origin == buyer */\n    tag_92:\n        /* \"contracts/erc20htlc2.sol\":3933:4006  require(tx.origin == notary || tx.origin == seller || tx.origin == buyer) */\n      tag_93\n      jumpi\n      0x00\n      dup1\n      revert\n    tag_93:\n        /* \"contracts/erc20htlc2.sol\":4017:4031  uint256 amount */\n      0x00\n        /* \"contracts/erc20htlc2.sol\":4041:4059  usdcAddressPolygon */\n      0x06\n      0x00\n      swap1\n      sload\n      swap1\n      0x0100\n      exp\n      swap1\n      div\n      0xffffffffffffffffffffffffffffffffffffffff\n      and\n        /* \"contracts/erc20htlc2.sol\":4034:4070  IERC20(usdcAddressPolygon).balanceOf */\n      0xffffffffffffffffffffffffffffffffffffffff\n      and\n      0x70a08231\n        /* \"contracts/erc20htlc2.sol\":4079:4083  this */\n      address\n        /* \"contracts/erc20htlc2.sol\":4034:4085  IERC20(usdcAddressPolygon).balanceOf(address(this)) */\n      mload(0x40)\n      dup3\n      0xffffffff\n      and\n      0xe0\n      shl\n      dup2\n      mstore\n      0x04\n      add\n      tag_94\n      swap2\n      swap1\n      tag_86\n      jump\t// in\n    tag_94:\n      0x20\n      mload(0x40)\n      dup1\n      dup4\n      sub\n      dup2\n      dup7\n      gas\n      staticcall\n      iszero\n      dup1\n      iszero\n      tag_96\n      jumpi\n      returndatasize\n      0x00\n      dup1\n      returndatacopy\n      revert(0x00, returndatasize)\n    tag_96:\n      pop\n      pop\n      pop\n      pop\n      mload(0x40)\n      returndatasize\n      not(0x1f)\n      0x1f\n      dup3\n      add\n      and\n      dup3\n      add\n      dup1\n      0x40\n      mstore\n      pop\n      dup2\n      add\n      swap1\n      tag_97\n      swap2\n      swap1\n      tag_80\n      jump\t// in\n    tag_97:\n        /* \"contracts/erc20htlc2.sol\":4017:4085  uint256 amount = IERC20(usdcAddressPolygon).balanceOf(address(this)) */\n      swap1\n      pop\n        /* \"contracts/erc20htlc2.sol\":4103:4109  amount */\n      dup1\n        /* \"contracts/erc20htlc2.sol\":4096:4109  return amount */\n      swap2\n      pop\n      pop\n        /* \"contracts/erc20htlc2.sol\":3858:4128  function getContractUsdcBalance() public view returns (uint256) {... */\n      swap1\n      jump\t// out\n        /* \"contracts/erc20htlc2.sol\":3257:3427  function settlement() public  {... */\n    tag_34:\n        /* \"contracts/erc20htlc2.sol\":3319:3324  buyer */\n      0x02\n      0x00\n      swap1\n      sload\n      swap1\n      0x0100\n      exp\n      swap1\n      div\n      0xffffffffffffffffffffffffffffffffffffffff\n      and\n        /* \"contracts/erc20htlc2.sol\":3306:3324  tx.origin == buyer */\n      0xffffffffffffffffffffffffffffffffffffffff\n      and\n        /* \"contracts/erc20htlc2.sol\":3306:3315  tx.origin */\n      origin\n        /* \"contracts/erc20htlc2.sol\":3306:3324  tx.origin == buyer */\n      0xffffffffffffffffffffffffffffffffffffffff\n      and\n      eq\n        /* \"contracts/erc20htlc2.sol\":3298:3325  require(tx.origin == buyer) */\n      tag_99\n      jumpi\n      0x00\n      dup1\n      revert\n    tag_99:\n        /* \"contracts/erc20htlc2.sol\":3336:3350  uint256 amount */\n      0x00\n        /* \"contracts/erc20htlc2.sol\":3353:3374  address(this).balance */\n      selfbalance\n        /* \"contracts/erc20htlc2.sol\":3336:3374  uint256 amount = address(this).balance */\n      swap1\n      pop\n        /* \"contracts/erc20htlc2.sol\":3385:3391  seller */\n      0x04\n      0x00\n      swap1\n      sload\n      swap1\n      0x0100\n      exp\n      swap1\n      div\n      0xffffffffffffffffffffffffffffffffffffffff\n      and\n        /* \"contracts/erc20htlc2.sol\":3385:3400  seller.transfer */\n      0xffffffffffffffffffffffffffffffffffffffff\n      and\n        /* \"contracts/erc20htlc2.sol\":3385:3408  seller.transfer(amount) */\n      0x08fc\n        /* \"contracts/erc20htlc2.sol\":3401:3407  amount */\n      dup3\n        /* \"contracts/erc20htlc2.sol\":3385:3408  seller.transfer(amount) */\n      swap1\n      dup2\n      iszero\n      mul\n      swap1\n      mload(0x40)\n      0x00\n      mload(0x40)\n      dup1\n      dup4\n      sub\n      dup2\n      dup6\n      dup9\n      dup9\n      call\n      swap4\n      pop\n      pop\n      pop\n      pop\n      iszero\n      dup1\n      iszero\n      tag_101\n      jumpi\n      returndatasize\n      0x00\n      dup1\n      returndatacopy\n      revert(0x00, returndatasize)\n    tag_101:\n      pop\n        /* \"contracts/erc20htlc2.sol\":3287:3427  {... */\n      pop\n        /* \"contracts/erc20htlc2.sol\":3257:3427  function settlement() public  {... */\n      jump\t// out\n        /* \"contracts/erc20htlc2.sol\":1363:1652  function approveContractTransfer(uint256 _value1) ... */\n    tag_38:\n        /* \"contracts/erc20htlc2.sol\":1442:1456  uint256 amount */\n      0x00\n        /* \"contracts/erc20htlc2.sol\":1459:1466  _value1 */\n      dup2\n        /* \"contracts/erc20htlc2.sol\":1442:1466  uint256 amount = _value1 */\n      swap1\n      pop\n        /* \"contracts/erc20htlc2.sol\":1483:1501  usdcAddressPolygon */\n      0x06\n      0x00\n      swap1\n      sload\n      swap1\n      0x0100\n      exp\n      swap1\n      div\n      0xffffffffffffffffffffffffffffffffffffffff\n      and\n        /* \"contracts/erc20htlc2.sol\":1476:1510  IERC20(usdcAddressPolygon).approve */\n      0xffffffffffffffffffffffffffffffffffffffff\n      and\n      0x095ea7b3\n        /* \"contracts/erc20htlc2.sol\":1519:1523  this */\n      address\n        /* \"contracts/erc20htlc2.sol\":1526:1532  amount */\n      dup4\n        /* \"contracts/erc20htlc2.sol\":1476:1533  IERC20(usdcAddressPolygon).approve(address(this), amount) */\n      mload(0x40)\n      dup4\n      0xffffffff\n      and\n      0xe0\n      shl\n      dup2\n      mstore\n      0x04\n      add\n      tag_103\n      swap3\n      swap2\n      swap1\n      tag_104\n      jump\t// in\n    tag_103:\n      0x20\n      mload(0x40)\n      dup1\n      dup4\n      sub\n      dup2\n      0x00\n      dup8\n      gas\n      call\n      iszero\n      dup1\n      iszero\n      tag_106\n      jumpi\n      returndatasize\n      0x00\n      dup1\n      returndatacopy\n      revert(0x00, returndatasize)\n    tag_106:\n      pop\n      pop\n      pop\n      pop\n      mload(0x40)\n      returndatasize\n      not(0x1f)\n      0x1f\n      dup3\n      add\n      and\n      dup3\n      add\n      dup1\n      0x40\n      mstore\n      pop\n      dup2\n      add\n      swap1\n      tag_107\n      swap2\n      swap1\n      tag_108\n      jump\t// in\n    tag_107:\n      pop\n        /* \"contracts/erc20htlc2.sol\":1431:1652  {... */\n      pop\n        /* \"contracts/erc20htlc2.sol\":1363:1652  function approveContractTransfer(uint256 _value1) ... */\n      pop\n      jump\t// out\n        /* \"contracts/erc20htlc2.sol\":3051:3202  function raiseDispute() public  {... */\n    tag_40:\n        /* \"contracts/erc20htlc2.sol\":3115:3120  buyer */\n      0x02\n      0x00\n      swap1\n      sload\n      swap1\n      0x0100\n      exp\n      swap1\n      div\n      0xffffffffffffffffffffffffffffffffffffffff\n      and\n        /* \"contracts/erc20htlc2.sol\":3102:3120  tx.origin == buyer */\n      0xffffffffffffffffffffffffffffffffffffffff\n      and\n        /* \"contracts/erc20htlc2.sol\":3102:3111  tx.origin */\n      origin\n        /* \"contracts/erc20htlc2.sol\":3102:3120  tx.origin == buyer */\n      0xffffffffffffffffffffffffffffffffffffffff\n      and\n      eq\n        /* \"contracts/erc20htlc2.sol\":3094:3121  require(tx.origin == buyer) */\n      tag_110\n      jumpi\n      0x00\n      dup1\n      revert\n    tag_110:\n        /* \"contracts/erc20htlc2.sol\":3159:3170  saleRelease */\n      sload(0x00)\n        /* \"contracts/erc20htlc2.sol\":3140:3155  block.timestamp */\n      timestamp\n        /* \"contracts/erc20htlc2.sol\":3140:3170  block.timestamp <= saleRelease */\n      gt\n      iszero\n        /* \"contracts/erc20htlc2.sol\":3132:3171  require(block.timestamp <= saleRelease) */\n      tag_111\n      jumpi\n      0x00\n      dup1\n      revert\n    tag_111:\n        /* \"contracts/erc20htlc2.sol\":3190:3194  true */\n      0x01\n        /* \"contracts/erc20htlc2.sol\":3182:3189  dispute */\n      0x04\n      0x14\n        /* \"contracts/erc20htlc2.sol\":3182:3194  dispute=true */\n      0x0100\n      exp\n      dup2\n      sload\n      dup2\n      0xff\n      mul\n      not\n      and\n      swap1\n      dup4\n      iszero\n      iszero\n      mul\n      or\n      swap1\n      sstore\n      pop\n        /* \"contracts/erc20htlc2.sol\":3051:3202  function raiseDispute() public  {... */\n      jump\t// out\n        /* \"contracts/erc20htlc2.sol\":1660:2191  function checkAllowance() public view returns (uint256, uint256, uint256, uint256) {... */\n    tag_42:\n        /* \"contracts/erc20htlc2.sol\":1707:1714  uint256 */\n      0x00\n        /* \"contracts/erc20htlc2.sol\":1716:1723  uint256 */\n      dup1\n        /* \"contracts/erc20htlc2.sol\":1725:1732  uint256 */\n      0x00\n        /* \"contracts/erc20htlc2.sol\":1734:1741  uint256 */\n      dup1\n        /* \"contracts/erc20htlc2.sol\":1828:1837  uint256 a */\n      0x00\n        /* \"contracts/erc20htlc2.sol\":1847:1865  usdcAddressPolygon */\n      0x06\n      0x00\n      swap1\n      sload\n      swap1\n      0x0100\n      exp\n      swap1\n      div\n      0xffffffffffffffffffffffffffffffffffffffff\n      and\n        /* \"contracts/erc20htlc2.sol\":1840:1876  IERC20(usdcAddressPolygon).allowance */\n      0xffffffffffffffffffffffffffffffffffffffff\n      and\n      0xdd62ed3e\n        /* \"contracts/erc20htlc2.sol\":1877:1887  msg.sender */\n      caller\n        /* \"contracts/erc20htlc2.sol\":1897:1901  this */\n      address\n        /* \"contracts/erc20htlc2.sol\":1840:1903  IERC20(usdcAddressPolygon).allowance(msg.sender, address(this)) */\n      mload(0x40)\n      dup4\n      0xffffffff\n      and\n      0xe0\n      shl\n      dup2\n      mstore\n      0x04\n      add\n      tag_113\n      swap3\n      swap2\n      swap1\n      tag_114\n      jump\t// in\n    tag_113:\n      0x20\n      mload(0x40)\n      dup1\n      dup4\n      sub\n      dup2\n      dup7\n      gas\n      staticcall\n      iszero\n      dup1\n      iszero\n      tag_116\n      jumpi\n      returndatasize\n      0x00\n      dup1\n      returndatacopy\n      revert(0x00, returndatasize)\n    tag_116:\n      pop\n      pop\n      pop\n      pop\n      mload(0x40)\n      returndatasize\n      not(0x1f)\n      0x1f\n      dup3\n      add\n      and\n      dup3\n      add\n      dup1\n      0x40\n      mstore\n      pop\n      dup2\n      add\n      swap1\n      tag_117\n      swap2\n      swap1\n      tag_80\n      jump\t// in\n    tag_117:\n        /* \"contracts/erc20htlc2.sol\":1828:1903  uint256 a = IERC20(usdcAddressPolygon).allowance(msg.sender, address(this)) */\n      swap1\n      pop\n        /* \"contracts/erc20htlc2.sol\":1918:1928  uint256 a1 */\n      0x00\n        /* \"contracts/erc20htlc2.sol\":1938:1956  usdcAddressPolygon */\n      0x06\n      0x00\n      swap1\n      sload\n      swap1\n      0x0100\n      exp\n      swap1\n      div\n      0xffffffffffffffffffffffffffffffffffffffff\n      and\n        /* \"contracts/erc20htlc2.sol\":1931:1967  IERC20(usdcAddressPolygon).allowance */\n      0xffffffffffffffffffffffffffffffffffffffff\n      and\n      0xdd62ed3e\n        /* \"contracts/erc20htlc2.sol\":1976:1980  this */\n      address\n        /* \"contracts/erc20htlc2.sol\":1983:1993  msg.sender */\n      caller\n        /* \"contracts/erc20htlc2.sol\":1931:1994  IERC20(usdcAddressPolygon).allowance(address(this), msg.sender) */\n      mload(0x40)\n      dup4\n      0xffffffff\n      and\n      0xe0\n      shl\n      dup2\n      mstore\n      0x04\n      add\n      tag_118\n      swap3\n      swap2\n      swap1\n      tag_114\n      jump\t// in\n    tag_118:\n      0x20\n      mload(0x40)\n      dup1\n      dup4\n      sub\n      dup2\n      dup7\n      gas\n      staticcall\n      iszero\n      dup1\n      iszero\n      tag_120\n      jumpi\n      returndatasize\n      0x00\n      dup1\n      returndatacopy\n      revert(0x00, returndatasize)\n    tag_120:\n      pop\n      pop\n      pop\n      pop\n      mload(0x40)\n      returndatasize\n      not(0x1f)\n      0x1f\n      dup3\n      add\n      and\n      dup3\n      add\n      dup1\n      0x40\n      mstore\n      pop\n      dup2\n      add\n      swap1\n      tag_121\n      swap2\n      swap1\n      tag_80\n      jump\t// in\n    tag_121:\n        /* \"contracts/erc20htlc2.sol\":1918:1994  uint256 a1 = IERC20(usdcAddressPolygon).allowance(address(this), msg.sender) */\n      swap1\n      pop\n        /* \"contracts/erc20htlc2.sol\":2004:2011  uint a2 */\n      0x00\n        /* \"contracts/erc20htlc2.sol\":2020:2038  usdcAddressPolygon */\n      0x06\n      0x00\n      swap1\n      sload\n      swap1\n      0x0100\n      exp\n      swap1\n      div\n      0xffffffffffffffffffffffffffffffffffffffff\n      and\n        /* \"contracts/erc20htlc2.sol\":2013:2049  IERC20(usdcAddressPolygon).allowance */\n      0xffffffffffffffffffffffffffffffffffffffff\n      and\n      0xdd62ed3e\n        /* \"contracts/erc20htlc2.sol\":2050:2055  buyer */\n      0x02\n      0x00\n      swap1\n      sload\n      swap1\n      0x0100\n      exp\n      swap1\n      div\n      0xffffffffffffffffffffffffffffffffffffffff\n      and\n        /* \"contracts/erc20htlc2.sol\":2065:2069  this */\n      address\n        /* \"contracts/erc20htlc2.sol\":2013:2071  IERC20(usdcAddressPolygon).allowance(buyer, address(this)) */\n      mload(0x40)\n      dup4\n      0xffffffff\n      and\n      0xe0\n      shl\n      dup2\n      mstore\n      0x04\n      add\n      tag_122\n      swap3\n      swap2\n      swap1\n      tag_123\n      jump\t// in\n    tag_122:\n      0x20\n      mload(0x40)\n      dup1\n      dup4\n      sub\n      dup2\n      dup7\n      gas\n      staticcall\n      iszero\n      dup1\n      iszero\n      tag_125\n      jumpi\n      returndatasize\n      0x00\n      dup1\n      returndatacopy\n      revert(0x00, returndatasize)\n    tag_125:\n      pop\n      pop\n      pop\n      pop\n      mload(0x40)\n      returndatasize\n      not(0x1f)\n      0x1f\n      dup3\n      add\n      and\n      dup3\n      add\n      dup1\n      0x40\n      mstore\n      pop\n      dup2\n      add\n      swap1\n      tag_126\n      swap2\n      swap1\n      tag_80\n      jump\t// in\n    tag_126:\n        /* \"contracts/erc20htlc2.sol\":2004:2071  uint a2= IERC20(usdcAddressPolygon).allowance(buyer, address(this)) */\n      swap1\n      pop\n        /* \"contracts/erc20htlc2.sol\":2083:2090  uint a3 */\n      0x00\n        /* \"contracts/erc20htlc2.sol\":2099:2117  usdcAddressPolygon */\n      0x06\n      0x00\n      swap1\n      sload\n      swap1\n      0x0100\n      exp\n      swap1\n      div\n      0xffffffffffffffffffffffffffffffffffffffff\n      and\n        /* \"contracts/erc20htlc2.sol\":2092:2128  IERC20(usdcAddressPolygon).allowance */\n      0xffffffffffffffffffffffffffffffffffffffff\n      and\n      0xdd62ed3e\n        /* \"contracts/erc20htlc2.sol\":2138:2142  this */\n      address\n        /* \"contracts/erc20htlc2.sol\":2145:2151  seller */\n      0x04\n      0x00\n      swap1\n      sload\n      swap1\n      0x0100\n      exp\n      swap1\n      div\n      0xffffffffffffffffffffffffffffffffffffffff\n      and\n        /* \"contracts/erc20htlc2.sol\":2092:2152  IERC20(usdcAddressPolygon).allowance( address(this), seller) */\n      mload(0x40)\n      dup4\n      0xffffffff\n      and\n      0xe0\n      shl\n      dup2\n      mstore\n      0x04\n      add\n      tag_127\n      swap3\n      swap2\n      swap1\n      tag_128\n      jump\t// in\n    tag_127:\n      0x20\n      mload(0x40)\n      dup1\n      dup4\n      sub\n      dup2\n      dup7\n      gas\n      staticcall\n      iszero\n      dup1\n      iszero\n      tag_130\n      jumpi\n      returndatasize\n      0x00\n      dup1\n      returndatacopy\n      revert(0x00, returndatasize)\n    tag_130:\n      pop\n      pop\n      pop\n      pop\n      mload(0x40)\n      returndatasize\n      not(0x1f)\n      0x1f\n      dup3\n      add\n      and\n      dup3\n      add\n      dup1\n      0x40\n      mstore\n      pop\n      dup2\n      add\n      swap1\n      tag_131\n      swap2\n      swap1\n      tag_80\n      jump\t// in\n    tag_131:\n        /* \"contracts/erc20htlc2.sol\":2083:2152  uint a3= IERC20(usdcAddressPolygon).allowance( address(this), seller) */\n      swap1\n      pop\n        /* \"contracts/erc20htlc2.sol\":2170:2171  a */\n      dup4\n        /* \"contracts/erc20htlc2.sol\":2172:2174  a1 */\n      dup4\n        /* \"contracts/erc20htlc2.sol\":2176:2178  a2 */\n      dup4\n        /* \"contracts/erc20htlc2.sol\":2180:2182  a3 */\n      dup4\n        /* \"contracts/erc20htlc2.sol\":2162:2183  return (a,a1, a2, a3) */\n      swap8\n      pop\n      swap8\n      pop\n      swap8\n      pop\n      swap8\n      pop\n      pop\n      pop\n      pop\n      pop\n        /* \"contracts/erc20htlc2.sol\":1660:2191  function checkAllowance() public view returns (uint256, uint256, uint256, uint256) {... */\n      swap1\n      swap2\n      swap3\n      swap4\n      jump\t// out\n        /* \"contracts/erc20htlc2.sol\":5208:5487  function saleSettlement() public  {... */\n    tag_46:\n        /* \"contracts/erc20htlc2.sol\":5274:5280  notary */\n      0x03\n      0x00\n      swap1\n      sload\n      swap1\n      0x0100\n      exp\n      swap1\n      div\n      0xffffffffffffffffffffffffffffffffffffffff\n      and\n        /* \"contracts/erc20htlc2.sol\":5261:5280  tx.origin == notary */\n      0xffffffffffffffffffffffffffffffffffffffff\n      and\n        /* \"contracts/erc20htlc2.sol\":5261:5270  tx.origin */\n      origin\n        /* \"contracts/erc20htlc2.sol\":5261:5280  tx.origin == notary */\n      0xffffffffffffffffffffffffffffffffffffffff\n      and\n      eq\n        /* \"contracts/erc20htlc2.sol\":5261:5303  tx.origin == notary || tx.origin == seller */\n      dup1\n      tag_133\n      jumpi\n      pop\n        /* \"contracts/erc20htlc2.sol\":5297:5303  seller */\n      0x04\n      0x00\n      swap1\n      sload\n      swap1\n      0x0100\n      exp\n      swap1\n      div\n      0xffffffffffffffffffffffffffffffffffffffff\n      and\n        /* \"contracts/erc20htlc2.sol\":5284:5303  tx.origin == seller */\n      0xffffffffffffffffffffffffffffffffffffffff\n      and\n        /* \"contracts/erc20htlc2.sol\":5284:5293  tx.origin */\n      origin\n        /* \"contracts/erc20htlc2.sol\":5284:5303  tx.origin == seller */\n      0xffffffffffffffffffffffffffffffffffffffff\n      and\n      eq\n        /* \"contracts/erc20htlc2.sol\":5261:5303  tx.origin == notary || tx.origin == seller */\n    tag_133:\n        /* \"contracts/erc20htlc2.sol\":5261:5325  tx.origin == notary || tx.origin == seller || tx.origin == buyer */\n      dup1\n      tag_134\n      jumpi\n      pop\n        /* \"contracts/erc20htlc2.sol\":5320:5325  buyer */\n      0x02\n      0x00\n      swap1\n      sload\n      swap1\n      0x0100\n      exp\n      swap1\n      div\n      0xffffffffffffffffffffffffffffffffffffffff\n      and\n        /* \"contracts/erc20htlc2.sol\":5307:5325  tx.origin == buyer */\n      0xffffffffffffffffffffffffffffffffffffffff\n      and\n        /* \"contracts/erc20htlc2.sol\":5307:5316  tx.origin */\n      origin\n        /* \"contracts/erc20htlc2.sol\":5307:5325  tx.origin == buyer */\n      0xffffffffffffffffffffffffffffffffffffffff\n      and\n      eq\n        /* \"contracts/erc20htlc2.sol\":5261:5325  tx.origin == notary || tx.origin == seller || tx.origin == buyer */\n    tag_134:\n        /* \"contracts/erc20htlc2.sol\":5253:5326  require(tx.origin == notary || tx.origin == seller || tx.origin == buyer) */\n      tag_135\n      jumpi\n      0x00\n      dup1\n      revert\n    tag_135:\n        /* \"contracts/erc20htlc2.sol\":5364:5375  saleRelease */\n      sload(0x00)\n        /* \"contracts/erc20htlc2.sol\":5345:5360  block.timestamp */\n      timestamp\n        /* \"contracts/erc20htlc2.sol\":5345:5375  block.timestamp >= saleRelease */\n      lt\n      iszero\n        /* \"contracts/erc20htlc2.sol\":5345:5395  block.timestamp >= saleRelease && dispute == false */\n      dup1\n      iszero\n      tag_136\n      jumpi\n      pop\n        /* \"contracts/erc20htlc2.sol\":5390:5395  false */\n      0x00\n        /* \"contracts/erc20htlc2.sol\":5379:5395  dispute == false */\n      iszero\n      iszero\n        /* \"contracts/erc20htlc2.sol\":5379:5386  dispute */\n      0x04\n      0x14\n      swap1\n      sload\n      swap1\n      0x0100\n      exp\n      swap1\n      div\n      0xff\n      and\n        /* \"contracts/erc20htlc2.sol\":5379:5395  dispute == false */\n      iszero\n      iszero\n      eq\n        /* \"contracts/erc20htlc2.sol\":5345:5395  block.timestamp >= saleRelease && dispute == false */\n    tag_136:\n        /* \"contracts/erc20htlc2.sol\":5337:5396  require(block.timestamp >= saleRelease && dispute == false) */\n      tag_137\n      jumpi\n      0x00\n      dup1\n      revert\n    tag_137:\n        /* \"contracts/erc20htlc2.sol\":5407:5421  uint256 amount */\n      0x00\n        /* \"contracts/erc20htlc2.sol\":5424:5445  address(this).balance */\n      selfbalance\n        /* \"contracts/erc20htlc2.sol\":5407:5445  uint256 amount = address(this).balance */\n      swap1\n      pop\n        /* \"contracts/erc20htlc2.sol\":5456:5462  seller */\n      0x04\n      0x00\n      swap1\n      sload\n      swap1\n      0x0100\n      exp\n      swap1\n      div\n      0xffffffffffffffffffffffffffffffffffffffff\n      and\n        /* \"contracts/erc20htlc2.sol\":5456:5471  seller.transfer */\n      0xffffffffffffffffffffffffffffffffffffffff\n      and\n        /* \"contracts/erc20htlc2.sol\":5456:5479  seller.transfer(amount) */\n      0x08fc\n        /* \"contracts/erc20htlc2.sol\":5472:5478  amount */\n      dup3\n        /* \"contracts/erc20htlc2.sol\":5456:5479  seller.transfer(amount) */\n      swap1\n      dup2\n      iszero\n      mul\n      swap1\n      mload(0x40)\n      0x00\n      mload(0x40)\n      dup1\n      dup4\n      sub\n      dup2\n      dup6\n      dup9\n      dup9\n      call\n      swap4\n      pop\n      pop\n      pop\n      pop\n      iszero\n      dup1\n      iszero\n      tag_139\n      jumpi\n      returndatasize\n      0x00\n      dup1\n      returndatacopy\n      revert(0x00, returndatasize)\n    tag_139:\n      pop\n        /* \"contracts/erc20htlc2.sol\":5242:5487  {... */\n      pop\n        /* \"contracts/erc20htlc2.sol\":5208:5487  function saleSettlement() public  {... */\n      jump\t// out\n        /* \"contracts/erc20htlc2.sol\":212:235  uint public saleRelease */\n    tag_48:\n      sload(0x00)\n      dup2\n      jump\t// out\n        /* \"contracts/erc20htlc2.sol\":4134:4440  function settlementUsdc() public  {... */\n    tag_51:\n        /* \"contracts/erc20htlc2.sol\":4200:4205  buyer */\n      0x02\n      0x00\n      swap1\n      sload\n      swap1\n      0x0100\n      exp\n      swap1\n      div\n      0xffffffffffffffffffffffffffffffffffffffff\n      and\n        /* \"contracts/erc20htlc2.sol\":4187:4205  tx.origin == buyer */\n      0xffffffffffffffffffffffffffffffffffffffff\n      and\n        /* \"contracts/erc20htlc2.sol\":4187:4196  tx.origin */\n      origin\n        /* \"contracts/erc20htlc2.sol\":4187:4205  tx.origin == buyer */\n      0xffffffffffffffffffffffffffffffffffffffff\n      and\n      eq\n        /* \"contracts/erc20htlc2.sol\":4179:4206  require(tx.origin == buyer) */\n      tag_141\n      jumpi\n      0x00\n      dup1\n      revert\n    tag_141:\n        /* \"contracts/erc20htlc2.sol\":4217:4231  uint256 amount */\n      0x00\n        /* \"contracts/erc20htlc2.sol\":4241:4259  usdcAddressPolygon */\n      0x06\n      0x00\n      swap1\n      sload\n      swap1\n      0x0100\n      exp\n      swap1\n      div\n      0xffffffffffffffffffffffffffffffffffffffff\n      and\n        /* \"contracts/erc20htlc2.sol\":4234:4270  IERC20(usdcAddressPolygon).balanceOf */\n      0xffffffffffffffffffffffffffffffffffffffff\n      and\n      0x70a08231\n        /* \"contracts/erc20htlc2.sol\":4279:4283  this */\n      address\n        /* \"contracts/erc20htlc2.sol\":4234:4285  IERC20(usdcAddressPolygon).balanceOf(address(this)) */\n      mload(0x40)\n      dup3\n      0xffffffff\n      and\n      0xe0\n      shl\n      dup2\n      mstore\n      0x04\n      add\n      tag_142\n      swap2\n      swap1\n      tag_86\n      jump\t// in\n    tag_142:\n      0x20\n      mload(0x40)\n      dup1\n      dup4\n      sub\n      dup2\n      dup7\n      gas\n      staticcall\n      iszero\n      dup1\n      iszero\n      tag_144\n      jumpi\n      returndatasize\n      0x00\n      dup1\n      returndatacopy\n      revert(0x00, returndatasize)\n    tag_144:\n      pop\n      pop\n      pop\n      pop\n      mload(0x40)\n      returndatasize\n      not(0x1f)\n      0x1f\n      dup3\n      add\n      and\n      dup3\n      add\n      dup1\n      0x40\n      mstore\n      pop\n      dup2\n      add\n      swap1\n      tag_145\n      swap2\n      swap1\n      tag_80\n      jump\t// in\n    tag_145:\n        /* \"contracts/erc20htlc2.sol\":4217:4285  uint256 amount = IERC20(usdcAddressPolygon).balanceOf(address(this)) */\n      swap1\n      pop\n        /* \"contracts/erc20htlc2.sol\":4367:4385  usdcAddressPolygon */\n      0x06\n      0x00\n      swap1\n      sload\n      swap1\n      0x0100\n      exp\n      swap1\n      div\n      0xffffffffffffffffffffffffffffffffffffffff\n      and\n        /* \"contracts/erc20htlc2.sol\":4360:4399  IERC20(usdcAddressPolygon).transferFrom */\n      0xffffffffffffffffffffffffffffffffffffffff\n      and\n      0x23b872dd\n        /* \"contracts/erc20htlc2.sol\":4408:4412  this */\n      address\n        /* \"contracts/erc20htlc2.sol\":4415:4421  seller */\n      0x04\n      0x00\n      swap1\n      sload\n      swap1\n      0x0100\n      exp\n      swap1\n      div\n      0xffffffffffffffffffffffffffffffffffffffff\n      and\n        /* \"contracts/erc20htlc2.sol\":4423:4429  amount */\n      dup5\n        /* \"contracts/erc20htlc2.sol\":4360:4430  IERC20(usdcAddressPolygon).transferFrom(address(this), seller, amount) */\n      mload(0x40)\n      dup5\n      0xffffffff\n      and\n      0xe0\n      shl\n      dup2\n      mstore\n      0x04\n      add\n      tag_146\n      swap4\n      swap3\n      swap2\n      swap1\n      tag_147\n      jump\t// in\n    tag_146:\n      0x20\n      mload(0x40)\n      dup1\n      dup4\n      sub\n      dup2\n      0x00\n      dup8\n      gas\n      call\n      iszero\n      dup1\n      iszero\n      tag_149\n      jumpi\n      returndatasize\n      0x00\n      dup1\n      returndatacopy\n      revert(0x00, returndatasize)\n    tag_149:\n      pop\n      pop\n      pop\n      pop\n      mload(0x40)\n      returndatasize\n      not(0x1f)\n      0x1f\n      dup3\n      add\n      and\n      dup3\n      add\n      dup1\n      0x40\n      mstore\n      pop\n      dup2\n      add\n      swap1\n      tag_150\n      swap2\n      swap1\n      tag_108\n      jump\t// in\n    tag_150:\n      pop\n        /* \"contracts/erc20htlc2.sol\":4168:4440  {... */\n      pop\n        /* \"contracts/erc20htlc2.sol\":4134:4440  function settlementUsdc() public  {... */\n      jump\t// out\n        /* \"contracts/erc20htlc2.sol\":242:268  uint public disputeRelease */\n    tag_53:\n      sload(0x01)\n      dup2\n      jump\t// out\n        /* \"contracts/erc20htlc2.sol\":4743:5108  function disputeSettlement(bool paySeller) public  {... */\n    tag_58:\n        /* \"contracts/erc20htlc2.sol\":4826:4832  notary */\n      0x03\n      0x00\n      swap1\n      sload\n      swap1\n      0x0100\n      exp\n      swap1\n      div\n      0xffffffffffffffffffffffffffffffffffffffff\n      and\n        /* \"contracts/erc20htlc2.sol\":4813:4832  tx.origin == notary */\n      0xffffffffffffffffffffffffffffffffffffffff\n      and\n        /* \"contracts/erc20htlc2.sol\":4813:4822  tx.origin */\n      origin\n        /* \"contracts/erc20htlc2.sol\":4813:4832  tx.origin == notary */\n      0xffffffffffffffffffffffffffffffffffffffff\n      and\n      eq\n        /* \"contracts/erc20htlc2.sol\":4805:4833  require(tx.origin == notary) */\n      tag_152\n      jumpi\n      0x00\n      dup1\n      revert\n    tag_152:\n        /* \"contracts/erc20htlc2.sol\":4863:4867  true */\n      0x01\n        /* \"contracts/erc20htlc2.sol\":4852:4867  dispute == true */\n      iszero\n      iszero\n        /* \"contracts/erc20htlc2.sol\":4852:4859  dispute */\n      0x04\n      0x14\n      swap1\n      sload\n      swap1\n      0x0100\n      exp\n      swap1\n      div\n      0xff\n      and\n        /* \"contracts/erc20htlc2.sol\":4852:4867  dispute == true */\n      iszero\n      iszero\n      eq\n        /* \"contracts/erc20htlc2.sol\":4844:4868  require(dispute == true) */\n      tag_153\n      jumpi\n      0x00\n      dup1\n      revert\n    tag_153:\n        /* \"contracts/erc20htlc2.sol\":4906:4920  disputeRelease */\n      sload(0x01)\n        /* \"contracts/erc20htlc2.sol\":4887:4902  block.timestamp */\n      timestamp\n        /* \"contracts/erc20htlc2.sol\":4887:4920  block.timestamp <= disputeRelease */\n      gt\n      iszero\n        /* \"contracts/erc20htlc2.sol\":4879:4921  require(block.timestamp <= disputeRelease) */\n      tag_154\n      jumpi\n      0x00\n      dup1\n      revert\n    tag_154:\n        /* \"contracts/erc20htlc2.sol\":4932:4946  uint256 amount */\n      0x00\n        /* \"contracts/erc20htlc2.sol\":4949:4970  address(this).balance */\n      selfbalance\n        /* \"contracts/erc20htlc2.sol\":4932:4970  uint256 amount = address(this).balance */\n      swap1\n      pop\n        /* \"contracts/erc20htlc2.sol\":4985:4994  paySeller */\n      dup2\n        /* \"contracts/erc20htlc2.sol\":4981:5101  if (paySeller) {... */\n      iszero\n      tag_155\n      jumpi\n        /* \"contracts/erc20htlc2.sol\":5011:5017  seller */\n      0x04\n      0x00\n      swap1\n      sload\n      swap1\n      0x0100\n      exp\n      swap1\n      div\n      0xffffffffffffffffffffffffffffffffffffffff\n      and\n        /* \"contracts/erc20htlc2.sol\":5011:5026  seller.transfer */\n      0xffffffffffffffffffffffffffffffffffffffff\n      and\n        /* \"contracts/erc20htlc2.sol\":5011:5034  seller.transfer(amount) */\n      0x08fc\n        /* \"contracts/erc20htlc2.sol\":5027:5033  amount */\n      dup3\n        /* \"contracts/erc20htlc2.sol\":5011:5034  seller.transfer(amount) */\n      swap1\n      dup2\n      iszero\n      mul\n      swap1\n      mload(0x40)\n      0x00\n      mload(0x40)\n      dup1\n      dup4\n      sub\n      dup2\n      dup6\n      dup9\n      dup9\n      call\n      swap4\n      pop\n      pop\n      pop\n      pop\n      iszero\n      dup1\n      iszero\n      tag_157\n      jumpi\n      returndatasize\n      0x00\n      dup1\n      returndatacopy\n      revert(0x00, returndatasize)\n    tag_157:\n      pop\n        /* \"contracts/erc20htlc2.sol\":4981:5101  if (paySeller) {... */\n      jump(tag_158)\n    tag_155:\n        /* \"contracts/erc20htlc2.sol\":5067:5072  buyer */\n      0x02\n      0x00\n      swap1\n      sload\n      swap1\n      0x0100\n      exp\n      swap1\n      div\n      0xffffffffffffffffffffffffffffffffffffffff\n      and\n        /* \"contracts/erc20htlc2.sol\":5067:5081  buyer.transfer */\n      0xffffffffffffffffffffffffffffffffffffffff\n      and\n        /* \"contracts/erc20htlc2.sol\":5067:5089  buyer.transfer(amount) */\n      0x08fc\n        /* \"contracts/erc20htlc2.sol\":5082:5088  amount */\n      dup3\n        /* \"contracts/erc20htlc2.sol\":5067:5089  buyer.transfer(amount) */\n      swap1\n      dup2\n      iszero\n      mul\n      swap1\n      mload(0x40)\n      0x00\n      mload(0x40)\n      dup1\n      dup4\n      sub\n      dup2\n      dup6\n      dup9\n      dup9\n      call\n      swap4\n      pop\n      pop\n      pop\n      pop\n      iszero\n      dup1\n      iszero\n      tag_160\n      jumpi\n      returndatasize\n      0x00\n      dup1\n      returndatacopy\n      revert(0x00, returndatasize)\n    tag_160:\n      pop\n        /* \"contracts/erc20htlc2.sol\":4981:5101  if (paySeller) {... */\n    tag_158:\n        /* \"contracts/erc20htlc2.sol\":4794:5108  {... */\n      pop\n        /* \"contracts/erc20htlc2.sol\":4743:5108  function disputeSettlement(bool paySeller) public  {... */\n      pop\n      jump\t// out\n        /* \"contracts/erc20htlc2.sol\":5625:5899  function defaultDisputeSettlement() public  {... */\n    tag_60:\n        /* \"contracts/erc20htlc2.sol\":5701:5707  notary */\n      0x03\n      0x00\n      swap1\n      sload\n      swap1\n      0x0100\n      exp\n      swap1\n      div\n      0xffffffffffffffffffffffffffffffffffffffff\n      and\n        /* \"contracts/erc20htlc2.sol\":5688:5707  tx.origin == notary */\n      0xffffffffffffffffffffffffffffffffffffffff\n      and\n        /* \"contracts/erc20htlc2.sol\":5688:5697  tx.origin */\n      origin\n        /* \"contracts/erc20htlc2.sol\":5688:5707  tx.origin == notary */\n      0xffffffffffffffffffffffffffffffffffffffff\n      and\n      eq\n        /* \"contracts/erc20htlc2.sol\":5688:5730  tx.origin == notary || tx.origin == seller */\n      dup1\n      tag_162\n      jumpi\n      pop\n        /* \"contracts/erc20htlc2.sol\":5724:5730  seller */\n      0x04\n      0x00\n      swap1\n      sload\n      swap1\n      0x0100\n      exp\n      swap1\n      div\n      0xffffffffffffffffffffffffffffffffffffffff\n      and\n        /* \"contracts/erc20htlc2.sol\":5711:5730  tx.origin == seller */\n      0xffffffffffffffffffffffffffffffffffffffff\n      and\n        /* \"contracts/erc20htlc2.sol\":5711:5720  tx.origin */\n      origin\n        /* \"contracts/erc20htlc2.sol\":5711:5730  tx.origin == seller */\n      0xffffffffffffffffffffffffffffffffffffffff\n      and\n      eq\n        /* \"contracts/erc20htlc2.sol\":5688:5730  tx.origin == notary || tx.origin == seller */\n    tag_162:\n        /* \"contracts/erc20htlc2.sol\":5688:5752  tx.origin == notary || tx.origin == seller || tx.origin == buyer */\n      dup1\n      tag_163\n      jumpi\n      pop\n        /* \"contracts/erc20htlc2.sol\":5747:5752  buyer */\n      0x02\n      0x00\n      swap1\n      sload\n      swap1\n      0x0100\n      exp\n      swap1\n      div\n      0xffffffffffffffffffffffffffffffffffffffff\n      and\n        /* \"contracts/erc20htlc2.sol\":5734:5752  tx.origin == buyer */\n      0xffffffffffffffffffffffffffffffffffffffff\n      and\n        /* \"contracts/erc20htlc2.sol\":5734:5743  tx.origin */\n      origin\n        /* \"contracts/erc20htlc2.sol\":5734:5752  tx.origin == buyer */\n      0xffffffffffffffffffffffffffffffffffffffff\n      and\n      eq\n        /* \"contracts/erc20htlc2.sol\":5688:5752  tx.origin == notary || tx.origin == seller || tx.origin == buyer */\n    tag_163:\n        /* \"contracts/erc20htlc2.sol\":5680:5753  require(tx.origin == notary || tx.origin == seller || tx.origin == buyer) */\n      tag_164\n      jumpi\n      0x00\n      dup1\n      revert\n    tag_164:\n        /* \"contracts/erc20htlc2.sol\":5792:5806  disputeRelease */\n      sload(0x01)\n        /* \"contracts/erc20htlc2.sol\":5773:5788  block.timestamp */\n      timestamp\n        /* \"contracts/erc20htlc2.sol\":5773:5806  block.timestamp >= disputeRelease */\n      lt\n      iszero\n        /* \"contracts/erc20htlc2.sol\":5764:5808  require((block.timestamp >= disputeRelease)) */\n      tag_165\n      jumpi\n      0x00\n      dup1\n      revert\n    tag_165:\n        /* \"contracts/erc20htlc2.sol\":5819:5833  uint256 amount */\n      0x00\n        /* \"contracts/erc20htlc2.sol\":5836:5857  address(this).balance */\n      selfbalance\n        /* \"contracts/erc20htlc2.sol\":5819:5857  uint256 amount = address(this).balance */\n      swap1\n      pop\n        /* \"contracts/erc20htlc2.sol\":5868:5874  seller */\n      0x04\n      0x00\n      swap1\n      sload\n      swap1\n      0x0100\n      exp\n      swap1\n      div\n      0xffffffffffffffffffffffffffffffffffffffff\n      and\n        /* \"contracts/erc20htlc2.sol\":5868:5883  seller.transfer */\n      0xffffffffffffffffffffffffffffffffffffffff\n      and\n        /* \"contracts/erc20htlc2.sol\":5868:5891  seller.transfer(amount) */\n      0x08fc\n        /* \"contracts/erc20htlc2.sol\":5884:5890  amount */\n      dup3\n        /* \"contracts/erc20htlc2.sol\":5868:5891  seller.transfer(amount) */\n      swap1\n      dup2\n      iszero\n      mul\n      swap1\n      mload(0x40)\n      0x00\n      mload(0x40)\n      dup1\n      dup4\n      sub\n      dup2\n      dup6\n      dup9\n      dup9\n      call\n      swap4\n      pop\n      pop\n      pop\n      pop\n      iszero\n      dup1\n      iszero\n      tag_167\n      jumpi\n      returndatasize\n      0x00\n      dup1\n      returndatacopy\n      revert(0x00, returndatasize)\n    tag_167:\n      pop\n        /* \"contracts/erc20htlc2.sol\":5669:5899  {... */\n      pop\n        /* \"contracts/erc20htlc2.sol\":5625:5899  function defaultDisputeSettlement() public  {... */\n      jump\t// out\n        /* \"contracts/erc20htlc2.sol\":2201:2970  function approveAndTransferUSDC(uint256 _value1) ... */\n    tag_63:\n        /* \"contracts/erc20htlc2.sol\":2275:2279  bool */\n      0x00\n        /* \"contracts/erc20htlc2.sol\":2293:2307  uint256 amount */\n      dup1\n        /* \"contracts/erc20htlc2.sol\":2310:2317  _value1 */\n      dup3\n        /* \"contracts/erc20htlc2.sol\":2293:2317  uint256 amount = _value1 */\n      swap1\n      pop\n        /* \"contracts/erc20htlc2.sol\":2885:2903  usdcAddressPolygon */\n      0x06\n      0x00\n      swap1\n      sload\n      swap1\n      0x0100\n      exp\n      swap1\n      div\n      0xffffffffffffffffffffffffffffffffffffffff\n      and\n        /* \"contracts/erc20htlc2.sol\":2878:2917  IERC20(usdcAddressPolygon).transferFrom */\n      0xffffffffffffffffffffffffffffffffffffffff\n      and\n      0x23b872dd\n        /* \"contracts/erc20htlc2.sol\":2918:2928  msg.sender */\n      caller\n        /* \"contracts/erc20htlc2.sol\":2938:2942  this */\n      address\n        /* \"contracts/erc20htlc2.sol\":2945:2951  amount */\n      dup5\n        /* \"contracts/erc20htlc2.sol\":2878:2952  IERC20(usdcAddressPolygon).transferFrom(msg.sender, address(this), amount) */\n      mload(0x40)\n      dup5\n      0xffffffff\n      and\n      0xe0\n      shl\n      dup2\n      mstore\n      0x04\n      add\n      tag_169\n      swap4\n      swap3\n      swap2\n      swap1\n      tag_170\n      jump\t// in\n    tag_169:\n      0x20\n      mload(0x40)\n      dup1\n      dup4\n      sub\n      dup2\n      0x00\n      dup8\n      gas\n      call\n      iszero\n      dup1\n      iszero\n      tag_172\n      jumpi\n      returndatasize\n      0x00\n      dup1\n      returndatacopy\n      revert(0x00, returndatasize)\n    tag_172:\n      pop\n      pop\n      pop\n      pop\n      mload(0x40)\n      returndatasize\n      not(0x1f)\n      0x1f\n      dup3\n      add\n      and\n      dup3\n      add\n      dup1\n      0x40\n      mstore\n      pop\n      dup2\n      add\n      swap1\n      tag_173\n      swap2\n      swap1\n      tag_108\n      jump\t// in\n    tag_173:\n        /* \"contracts/erc20htlc2.sol\":2871:2952  return IERC20(usdcAddressPolygon).transferFrom(msg.sender, address(this), amount) */\n      swap2\n      pop\n      pop\n        /* \"contracts/erc20htlc2.sol\":2201:2970  function approveAndTransferUSDC(uint256 _value1) ... */\n      swap2\n      swap1\n      pop\n      jump\t// out\n        /* \"contracts/erc20htlc2.sol\":355:374  bool public dispute */\n    tag_67:\n      0x04\n      0x14\n      swap1\n      sload\n      swap1\n      0x0100\n      exp\n      swap1\n      div\n      0xff\n      and\n      dup2\n      jump\t// out\n        /* \"contracts/erc20htlc2.sol\":4448:4550  function getSenderBalance() public view returns (uint256) {... */\n    tag_70:\n        /* \"contracts/erc20htlc2.sol\":4497:4504  uint256 */\n      0x00\n        /* \"contracts/erc20htlc2.sol\":4524:4534  msg.sender */\n      caller\n        /* \"contracts/erc20htlc2.sol\":4524:4542  msg.sender.balance */\n      0xffffffffffffffffffffffffffffffffffffffff\n      and\n      balance\n        /* \"contracts/erc20htlc2.sol\":4517:4542  return msg.sender.balance */\n      swap1\n      pop\n        /* \"contracts/erc20htlc2.sol\":4448:4550  function getSenderBalance() public view returns (uint256) {... */\n      swap1\n      jump\t// out\n        /* \"#utility.yul\":7:84   */\n    tag_175:\n        /* \"#utility.yul\":44:51   */\n      0x00\n        /* \"#utility.yul\":73:78   */\n      dup2\n        /* \"#utility.yul\":62:78   */\n      swap1\n      pop\n        /* \"#utility.yul\":7:84   */\n      swap2\n      swap1\n      pop\n      jump\t// out\n        /* \"#utility.yul\":90:208   */\n    tag_176:\n        /* \"#utility.yul\":177:201   */\n      tag_199\n        /* \"#utility.yul\":195:200   */\n      dup2\n        /* \"#utility.yul\":177:201   */\n      tag_175\n      jump\t// in\n    tag_199:\n        /* \"#utility.yul\":172:175   */\n      dup3\n        /* \"#utility.yul\":165:202   */\n      mstore\n        /* \"#utility.yul\":90:208   */\n      pop\n      pop\n      jump\t// out\n        /* \"#utility.yul\":214:436   */\n    tag_25:\n        /* \"#utility.yul\":307:311   */\n      0x00\n        /* \"#utility.yul\":345:347   */\n      0x20\n        /* \"#utility.yul\":334:343   */\n      dup3\n        /* \"#utility.yul\":330:348   */\n      add\n        /* \"#utility.yul\":322:348   */\n      swap1\n      pop\n        /* \"#utility.yul\":358:429   */\n      tag_201\n        /* \"#utility.yul\":426:427   */\n      0x00\n        /* \"#utility.yul\":415:424   */\n      dup4\n        /* \"#utility.yul\":411:428   */\n      add\n        /* \"#utility.yul\":402:408   */\n      dup5\n        /* \"#utility.yul\":358:429   */\n      tag_176\n      jump\t// in\n    tag_201:\n        /* \"#utility.yul\":214:436   */\n      swap3\n      swap2\n      pop\n      pop\n      jump\t// out\n        /* \"#utility.yul\":442:884   */\n    tag_29:\n        /* \"#utility.yul\":591:595   */\n      0x00\n        /* \"#utility.yul\":629:631   */\n      0x60\n        /* \"#utility.yul\":618:627   */\n      dup3\n        /* \"#utility.yul\":614:632   */\n      add\n        /* \"#utility.yul\":606:632   */\n      swap1\n      pop\n        /* \"#utility.yul\":642:713   */\n      tag_203\n        /* \"#utility.yul\":710:711   */\n      0x00\n        /* \"#utility.yul\":699:708   */\n      dup4\n        /* \"#utility.yul\":695:712   */\n      add\n        /* \"#utility.yul\":686:692   */\n      dup7\n        /* \"#utility.yul\":642:713   */\n      tag_176\n      jump\t// in\n    tag_203:\n        /* \"#utility.yul\":723:795   */\n      tag_204\n        /* \"#utility.yul\":791:793   */\n      0x20\n        /* \"#utility.yul\":780:789   */\n      dup4\n        /* \"#utility.yul\":776:794   */\n      add\n        /* \"#utility.yul\":767:773   */\n      dup6\n        /* \"#utility.yul\":723:795   */\n      tag_176\n      jump\t// in\n    tag_204:\n        /* \"#utility.yul\":805:877   */\n      tag_205\n        /* \"#utility.yul\":873:875   */\n      0x40\n        /* \"#utility.yul\":862:871   */\n      dup4\n        /* \"#utility.yul\":858:876   */\n      add\n        /* \"#utility.yul\":849:855   */\n      dup5\n        /* \"#utility.yul\":805:877   */\n      tag_176\n      jump\t// in\n    tag_205:\n        /* \"#utility.yul\":442:884   */\n      swap5\n      swap4\n      pop\n      pop\n      pop\n      pop\n      jump\t// out\n        /* \"#utility.yul\":971:1088   */\n    tag_178:\n        /* \"#utility.yul\":1080:1081   */\n      0x00\n        /* \"#utility.yul\":1077:1078   */\n      dup1\n        /* \"#utility.yul\":1070:1082   */\n      revert\n        /* \"#utility.yul\":1217:1339   */\n    tag_180:\n        /* \"#utility.yul\":1290:1314   */\n      tag_210\n        /* \"#utility.yul\":1308:1313   */\n      dup2\n        /* \"#utility.yul\":1290:1314   */\n      tag_175\n      jump\t// in\n    tag_210:\n        /* \"#utility.yul\":1283:1288   */\n      dup2\n        /* \"#utility.yul\":1280:1315   */\n      eq\n        /* \"#utility.yul\":1270:1333   */\n      tag_211\n      jumpi\n        /* \"#utility.yul\":1329:1330   */\n      0x00\n        /* \"#utility.yul\":1326:1327   */\n      dup1\n        /* \"#utility.yul\":1319:1331   */\n      revert\n        /* \"#utility.yul\":1270:1333   */\n    tag_211:\n        /* \"#utility.yul\":1217:1339   */\n      pop\n      jump\t// out\n        /* \"#utility.yul\":1345:1484   */\n    tag_181:\n        /* \"#utility.yul\":1391:1396   */\n      0x00\n        /* \"#utility.yul\":1429:1435   */\n      dup2\n        /* \"#utility.yul\":1416:1436   */\n      calldataload\n        /* \"#utility.yul\":1407:1436   */\n      swap1\n      pop\n        /* \"#utility.yul\":1445:1478   */\n      tag_213\n        /* \"#utility.yul\":1472:1477   */\n      dup2\n        /* \"#utility.yul\":1445:1478   */\n      tag_180\n      jump\t// in\n    tag_213:\n        /* \"#utility.yul\":1345:1484   */\n      swap3\n      swap2\n      pop\n      pop\n      jump\t// out\n        /* \"#utility.yul\":1490:1819   */\n    tag_37:\n        /* \"#utility.yul\":1549:1555   */\n      0x00\n        /* \"#utility.yul\":1598:1600   */\n      0x20\n        /* \"#utility.yul\":1586:1595   */\n      dup3\n        /* \"#utility.yul\":1577:1584   */\n      dup5\n        /* \"#utility.yul\":1573:1596   */\n      sub\n        /* \"#utility.yul\":1569:1601   */\n      slt\n        /* \"#utility.yul\":1566:1685   */\n      iszero\n      tag_215\n      jumpi\n        /* \"#utility.yul\":1604:1683   */\n      tag_216\n      tag_178\n      jump\t// in\n    tag_216:\n        /* \"#utility.yul\":1566:1685   */\n    tag_215:\n        /* \"#utility.yul\":1724:1725   */\n      0x00\n        /* \"#utility.yul\":1749:1802   */\n      tag_217\n        /* \"#utility.yul\":1794:1801   */\n      dup5\n        /* \"#utility.yul\":1785:1791   */\n      dup3\n        /* \"#utility.yul\":1774:1783   */\n      dup6\n        /* \"#utility.yul\":1770:1792   */\n      add\n        /* \"#utility.yul\":1749:1802   */\n      tag_181\n      jump\t// in\n    tag_217:\n        /* \"#utility.yul\":1739:1802   */\n      swap2\n      pop\n        /* \"#utility.yul\":1695:1812   */\n      pop\n        /* \"#utility.yul\":1490:1819   */\n      swap3\n      swap2\n      pop\n      pop\n      jump\t// out\n        /* \"#utility.yul\":1825:2378   */\n    tag_44:\n        /* \"#utility.yul\":2002:2006   */\n      0x00\n        /* \"#utility.yul\":2040:2043   */\n      0x80\n        /* \"#utility.yul\":2029:2038   */\n      dup3\n        /* \"#utility.yul\":2025:2044   */\n      add\n        /* \"#utility.yul\":2017:2044   */\n      swap1\n      pop\n        /* \"#utility.yul\":2054:2125   */\n      tag_219\n        /* \"#utility.yul\":2122:2123   */\n      0x00\n        /* \"#utility.yul\":2111:2120   */\n      dup4\n        /* \"#utility.yul\":2107:2124   */\n      add\n        /* \"#utility.yul\":2098:2104   */\n      dup8\n        /* \"#utility.yul\":2054:2125   */\n      tag_176\n      jump\t// in\n    tag_219:\n        /* \"#utility.yul\":2135:2207   */\n      tag_220\n        /* \"#utility.yul\":2203:2205   */\n      0x20\n        /* \"#utility.yul\":2192:2201   */\n      dup4\n        /* \"#utility.yul\":2188:2206   */\n      add\n        /* \"#utility.yul\":2179:2185   */\n      dup7\n        /* \"#utility.yul\":2135:2207   */\n      tag_176\n      jump\t// in\n    tag_220:\n        /* \"#utility.yul\":2217:2289   */\n      tag_221\n        /* \"#utility.yul\":2285:2287   */\n      0x40\n        /* \"#utility.yul\":2274:2283   */\n      dup4\n        /* \"#utility.yul\":2270:2288   */\n      add\n        /* \"#utility.yul\":2261:2267   */\n      dup6\n        /* \"#utility.yul\":2217:2289   */\n      tag_176\n      jump\t// in\n    tag_221:\n        /* \"#utility.yul\":2299:2371   */\n      tag_222\n        /* \"#utility.yul\":2367:2369   */\n      0x60\n        /* \"#utility.yul\":2356:2365   */\n      dup4\n        /* \"#utility.yul\":2352:2370   */\n      add\n        /* \"#utility.yul\":2343:2349   */\n      dup5\n        /* \"#utility.yul\":2299:2371   */\n      tag_176\n      jump\t// in\n    tag_222:\n        /* \"#utility.yul\":1825:2378   */\n      swap6\n      swap5\n      pop\n      pop\n      pop\n      pop\n      pop\n      jump\t// out\n        /* \"#utility.yul\":2384:2474   */\n    tag_182:\n        /* \"#utility.yul\":2418:2425   */\n      0x00\n        /* \"#utility.yul\":2461:2466   */\n      dup2\n        /* \"#utility.yul\":2454:2467   */\n      iszero\n        /* \"#utility.yul\":2447:2468   */\n      iszero\n        /* \"#utility.yul\":2436:2468   */\n      swap1\n      pop\n        /* \"#utility.yul\":2384:2474   */\n      swap2\n      swap1\n      pop\n      jump\t// out\n        /* \"#utility.yul\":2480:2596   */\n    tag_183:\n        /* \"#utility.yul\":2550:2571   */\n      tag_225\n        /* \"#utility.yul\":2565:2570   */\n      dup2\n        /* \"#utility.yul\":2550:2571   */\n      tag_182\n      jump\t// in\n    tag_225:\n        /* \"#utility.yul\":2543:2548   */\n      dup2\n        /* \"#utility.yul\":2540:2572   */\n      eq\n        /* \"#utility.yul\":2530:2590   */\n      tag_226\n      jumpi\n        /* \"#utility.yul\":2586:2587   */\n      0x00\n        /* \"#utility.yul\":2583:2584   */\n      dup1\n        /* \"#utility.yul\":2576:2588   */\n      revert\n        /* \"#utility.yul\":2530:2590   */\n    tag_226:\n        /* \"#utility.yul\":2480:2596   */\n      pop\n      jump\t// out\n        /* \"#utility.yul\":2602:2735   */\n    tag_184:\n        /* \"#utility.yul\":2645:2650   */\n      0x00\n        /* \"#utility.yul\":2683:2689   */\n      dup2\n        /* \"#utility.yul\":2670:2690   */\n      calldataload\n        /* \"#utility.yul\":2661:2690   */\n      swap1\n      pop\n        /* \"#utility.yul\":2699:2729   */\n      tag_228\n        /* \"#utility.yul\":2723:2728   */\n      dup2\n        /* \"#utility.yul\":2699:2729   */\n      tag_183\n      jump\t// in\n    tag_228:\n        /* \"#utility.yul\":2602:2735   */\n      swap3\n      swap2\n      pop\n      pop\n      jump\t// out\n        /* \"#utility.yul\":2741:3064   */\n    tag_57:\n        /* \"#utility.yul\":2797:2803   */\n      0x00\n        /* \"#utility.yul\":2846:2848   */\n      0x20\n        /* \"#utility.yul\":2834:2843   */\n      dup3\n        /* \"#utility.yul\":2825:2832   */\n      dup5\n        /* \"#utility.yul\":2821:2844   */\n      sub\n        /* \"#utility.yul\":2817:2849   */\n      slt\n        /* \"#utility.yul\":2814:2933   */\n      iszero\n      tag_230\n      jumpi\n        /* \"#utility.yul\":2852:2931   */\n      tag_231\n      tag_178\n      jump\t// in\n    tag_231:\n        /* \"#utility.yul\":2814:2933   */\n    tag_230:\n        /* \"#utility.yul\":2972:2973   */\n      0x00\n        /* \"#utility.yul\":2997:3047   */\n      tag_232\n        /* \"#utility.yul\":3039:3046   */\n      dup5\n        /* \"#utility.yul\":3030:3036   */\n      dup3\n        /* \"#utility.yul\":3019:3028   */\n      dup6\n        /* \"#utility.yul\":3015:3037   */\n      add\n        /* \"#utility.yul\":2997:3047   */\n      tag_184\n      jump\t// in\n    tag_232:\n        /* \"#utility.yul\":2987:3047   */\n      swap2\n      pop\n        /* \"#utility.yul\":2943:3057   */\n      pop\n        /* \"#utility.yul\":2741:3064   */\n      swap3\n      swap2\n      pop\n      pop\n      jump\t// out\n        /* \"#utility.yul\":3070:3179   */\n    tag_185:\n        /* \"#utility.yul\":3151:3172   */\n      tag_234\n        /* \"#utility.yul\":3166:3171   */\n      dup2\n        /* \"#utility.yul\":3151:3172   */\n      tag_182\n      jump\t// in\n    tag_234:\n        /* \"#utility.yul\":3146:3149   */\n      dup3\n        /* \"#utility.yul\":3139:3173   */\n      mstore\n        /* \"#utility.yul\":3070:3179   */\n      pop\n      pop\n      jump\t// out\n        /* \"#utility.yul\":3185:3395   */\n    tag_65:\n        /* \"#utility.yul\":3272:3276   */\n      0x00\n        /* \"#utility.yul\":3310:3312   */\n      0x20\n        /* \"#utility.yul\":3299:3308   */\n      dup3\n        /* \"#utility.yul\":3295:3313   */\n      add\n        /* \"#utility.yul\":3287:3313   */\n      swap1\n      pop\n        /* \"#utility.yul\":3323:3388   */\n      tag_236\n        /* \"#utility.yul\":3385:3386   */\n      0x00\n        /* \"#utility.yul\":3374:3383   */\n      dup4\n        /* \"#utility.yul\":3370:3387   */\n      add\n        /* \"#utility.yul\":3361:3367   */\n      dup5\n        /* \"#utility.yul\":3323:3388   */\n      tag_185\n      jump\t// in\n    tag_236:\n        /* \"#utility.yul\":3185:3395   */\n      swap3\n      swap2\n      pop\n      pop\n      jump\t// out\n        /* \"#utility.yul\":3401:3527   */\n    tag_186:\n        /* \"#utility.yul\":3438:3445   */\n      0x00\n        /* \"#utility.yul\":3478:3520   */\n      0xffffffffffffffffffffffffffffffffffffffff\n        /* \"#utility.yul\":3471:3476   */\n      dup3\n        /* \"#utility.yul\":3467:3521   */\n      and\n        /* \"#utility.yul\":3456:3521   */\n      swap1\n      pop\n        /* \"#utility.yul\":3401:3527   */\n      swap2\n      swap1\n      pop\n      jump\t// out\n        /* \"#utility.yul\":3533:3593   */\n    tag_187:\n        /* \"#utility.yul\":3561:3564   */\n      0x00\n        /* \"#utility.yul\":3582:3587   */\n      dup2\n        /* \"#utility.yul\":3575:3587   */\n      swap1\n      pop\n        /* \"#utility.yul\":3533:3593   */\n      swap2\n      swap1\n      pop\n      jump\t// out\n        /* \"#utility.yul\":3599:3741   */\n    tag_188:\n        /* \"#utility.yul\":3649:3658   */\n      0x00\n        /* \"#utility.yul\":3682:3735   */\n      tag_240\n        /* \"#utility.yul\":3700:3734   */\n      tag_241\n        /* \"#utility.yul\":3709:3733   */\n      tag_242\n        /* \"#utility.yul\":3727:3732   */\n      dup5\n        /* \"#utility.yul\":3709:3733   */\n      tag_186\n      jump\t// in\n    tag_242:\n        /* \"#utility.yul\":3700:3734   */\n      tag_187\n      jump\t// in\n    tag_241:\n        /* \"#utility.yul\":3682:3735   */\n      tag_186\n      jump\t// in\n    tag_240:\n        /* \"#utility.yul\":3669:3735   */\n      swap1\n      pop\n        /* \"#utility.yul\":3599:3741   */\n      swap2\n      swap1\n      pop\n      jump\t// out\n        /* \"#utility.yul\":3747:3873   */\n    tag_189:\n        /* \"#utility.yul\":3797:3806   */\n      0x00\n        /* \"#utility.yul\":3830:3867   */\n      tag_244\n        /* \"#utility.yul\":3861:3866   */\n      dup3\n        /* \"#utility.yul\":3830:3867   */\n      tag_188\n      jump\t// in\n    tag_244:\n        /* \"#utility.yul\":3817:3867   */\n      swap1\n      pop\n        /* \"#utility.yul\":3747:3873   */\n      swap2\n      swap1\n      pop\n      jump\t// out\n        /* \"#utility.yul\":3879:4013   */\n    tag_190:\n        /* \"#utility.yul\":3937:3946   */\n      0x00\n        /* \"#utility.yul\":3970:4007   */\n      tag_246\n        /* \"#utility.yul\":4001:4006   */\n      dup3\n        /* \"#utility.yul\":3970:4007   */\n      tag_189\n      jump\t// in\n    tag_246:\n        /* \"#utility.yul\":3957:4007   */\n      swap1\n      pop\n        /* \"#utility.yul\":3879:4013   */\n      swap2\n      swap1\n      pop\n      jump\t// out\n        /* \"#utility.yul\":4019:4166   */\n    tag_191:\n        /* \"#utility.yul\":4114:4159   */\n      tag_248\n        /* \"#utility.yul\":4153:4158   */\n      dup2\n        /* \"#utility.yul\":4114:4159   */\n      tag_190\n      jump\t// in\n    tag_248:\n        /* \"#utility.yul\":4109:4112   */\n      dup3\n        /* \"#utility.yul\":4102:4160   */\n      mstore\n        /* \"#utility.yul\":4019:4166   */\n      pop\n      pop\n      jump\t// out\n        /* \"#utility.yul\":4172:4410   */\n    tag_76:\n        /* \"#utility.yul\":4273:4277   */\n      0x00\n        /* \"#utility.yul\":4311:4313   */\n      0x20\n        /* \"#utility.yul\":4300:4309   */\n      dup3\n        /* \"#utility.yul\":4296:4314   */\n      add\n        /* \"#utility.yul\":4288:4314   */\n      swap1\n      pop\n        /* \"#utility.yul\":4324:4403   */\n      tag_250\n        /* \"#utility.yul\":4400:4401   */\n      0x00\n        /* \"#utility.yul\":4389:4398   */\n      dup4\n        /* \"#utility.yul\":4385:4402   */\n      add\n        /* \"#utility.yul\":4376:4382   */\n      dup5\n        /* \"#utility.yul\":4324:4403   */\n      tag_191\n      jump\t// in\n    tag_250:\n        /* \"#utility.yul\":4172:4410   */\n      swap3\n      swap2\n      pop\n      pop\n      jump\t// out\n        /* \"#utility.yul\":4416:4559   */\n    tag_192:\n        /* \"#utility.yul\":4473:4478   */\n      0x00\n        /* \"#utility.yul\":4504:4510   */\n      dup2\n        /* \"#utility.yul\":4498:4511   */\n      mload\n        /* \"#utility.yul\":4489:4511   */\n      swap1\n      pop\n        /* \"#utility.yul\":4520:4553   */\n      tag_252\n        /* \"#utility.yul\":4547:4552   */\n      dup2\n        /* \"#utility.yul\":4520:4553   */\n      tag_180\n      jump\t// in\n    tag_252:\n        /* \"#utility.yul\":4416:4559   */\n      swap3\n      swap2\n      pop\n      pop\n      jump\t// out\n        /* \"#utility.yul\":4565:4916   */\n    tag_80:\n        /* \"#utility.yul\":4635:4641   */\n      0x00\n        /* \"#utility.yul\":4684:4686   */\n      0x20\n        /* \"#utility.yul\":4672:4681   */\n      dup3\n        /* \"#utility.yul\":4663:4670   */\n      dup5\n        /* \"#utility.yul\":4659:4682   */\n      sub\n        /* \"#utility.yul\":4655:4687   */\n      slt\n        /* \"#utility.yul\":4652:4771   */\n      iszero\n      tag_254\n      jumpi\n        /* \"#utility.yul\":4690:4769   */\n      tag_255\n      tag_178\n      jump\t// in\n    tag_255:\n        /* \"#utility.yul\":4652:4771   */\n    tag_254:\n        /* \"#utility.yul\":4810:4811   */\n      0x00\n        /* \"#utility.yul\":4835:4899   */\n      tag_256\n        /* \"#utility.yul\":4891:4898   */\n      dup5\n        /* \"#utility.yul\":4882:4888   */\n      dup3\n        /* \"#utility.yul\":4871:4880   */\n      dup6\n        /* \"#utility.yul\":4867:4889   */\n      add\n        /* \"#utility.yul\":4835:4899   */\n      tag_192\n      jump\t// in\n    tag_256:\n        /* \"#utility.yul\":4825:4899   */\n      swap2\n      pop\n        /* \"#utility.yul\":4781:4909   */\n      pop\n        /* \"#utility.yul\":4565:4916   */\n      swap3\n      swap2\n      pop\n      pop\n      jump\t// out\n        /* \"#utility.yul\":4922:5018   */\n    tag_193:\n        /* \"#utility.yul\":4959:4966   */\n      0x00\n        /* \"#utility.yul\":4988:5012   */\n      tag_258\n        /* \"#utility.yul\":5006:5011   */\n      dup3\n        /* \"#utility.yul\":4988:5012   */\n      tag_186\n      jump\t// in\n    tag_258:\n        /* \"#utility.yul\":4977:5012   */\n      swap1\n      pop\n        /* \"#utility.yul\":4922:5018   */\n      swap2\n      swap1\n      pop\n      jump\t// out\n        /* \"#utility.yul\":5024:5142   */\n    tag_194:\n        /* \"#utility.yul\":5111:5135   */\n      tag_260\n        /* \"#utility.yul\":5129:5134   */\n      dup2\n        /* \"#utility.yul\":5111:5135   */\n      tag_193\n      jump\t// in\n    tag_260:\n        /* \"#utility.yul\":5106:5109   */\n      dup3\n        /* \"#utility.yul\":5099:5136   */\n      mstore\n        /* \"#utility.yul\":5024:5142   */\n      pop\n      pop\n      jump\t// out\n        /* \"#utility.yul\":5148:5370   */\n    tag_86:\n        /* \"#utility.yul\":5241:5245   */\n      0x00\n        /* \"#utility.yul\":5279:5281   */\n      0x20\n        /* \"#utility.yul\":5268:5277   */\n      dup3\n        /* \"#utility.yul\":5264:5282   */\n      add\n        /* \"#utility.yul\":5256:5282   */\n      swap1\n      pop\n        /* \"#utility.yul\":5292:5363   */\n      tag_262\n        /* \"#utility.yul\":5360:5361   */\n      0x00\n        /* \"#utility.yul\":5349:5358   */\n      dup4\n        /* \"#utility.yul\":5345:5362   */\n      add\n        /* \"#utility.yul\":5336:5342   */\n      dup5\n        /* \"#utility.yul\":5292:5363   */\n      tag_194\n      jump\t// in\n    tag_262:\n        /* \"#utility.yul\":5148:5370   */\n      swap3\n      swap2\n      pop\n      pop\n      jump\t// out\n        /* \"#utility.yul\":5376:5708   */\n    tag_104:\n        /* \"#utility.yul\":5497:5501   */\n      0x00\n        /* \"#utility.yul\":5535:5537   */\n      0x40\n        /* \"#utility.yul\":5524:5533   */\n      dup3\n        /* \"#utility.yul\":5520:5538   */\n      add\n        /* \"#utility.yul\":5512:5538   */\n      swap1\n      pop\n        /* \"#utility.yul\":5548:5619   */\n      tag_264\n        /* \"#utility.yul\":5616:5617   */\n      0x00\n        /* \"#utility.yul\":5605:5614   */\n      dup4\n        /* \"#utility.yul\":5601:5618   */\n      add\n        /* \"#utility.yul\":5592:5598   */\n      dup6\n        /* \"#utility.yul\":5548:5619   */\n      tag_194\n      jump\t// in\n    tag_264:\n        /* \"#utility.yul\":5629:5701   */\n      tag_265\n        /* \"#utility.yul\":5697:5699   */\n      0x20\n        /* \"#utility.yul\":5686:5695   */\n      dup4\n        /* \"#utility.yul\":5682:5700   */\n      add\n        /* \"#utility.yul\":5673:5679   */\n      dup5\n        /* \"#utility.yul\":5629:5701   */\n      tag_176\n      jump\t// in\n    tag_265:\n        /* \"#utility.yul\":5376:5708   */\n      swap4\n      swap3\n      pop\n      pop\n      pop\n      jump\t// out\n        /* \"#utility.yul\":5714:5851   */\n    tag_195:\n        /* \"#utility.yul\":5768:5773   */\n      0x00\n        /* \"#utility.yul\":5799:5805   */\n      dup2\n        /* \"#utility.yul\":5793:5806   */\n      mload\n        /* \"#utility.yul\":5784:5806   */\n      swap1\n      pop\n        /* \"#utility.yul\":5815:5845   */\n      tag_267\n        /* \"#utility.yul\":5839:5844   */\n      dup2\n        /* \"#utility.yul\":5815:5845   */\n      tag_183\n      jump\t// in\n    tag_267:\n        /* \"#utility.yul\":5714:5851   */\n      swap3\n      swap2\n      pop\n      pop\n      jump\t// out\n        /* \"#utility.yul\":5857:6202   */\n    tag_108:\n        /* \"#utility.yul\":5924:5930   */\n      0x00\n        /* \"#utility.yul\":5973:5975   */\n      0x20\n        /* \"#utility.yul\":5961:5970   */\n      dup3\n        /* \"#utility.yul\":5952:5959   */\n      dup5\n        /* \"#utility.yul\":5948:5971   */\n      sub\n        /* \"#utility.yul\":5944:5976   */\n      slt\n        /* \"#utility.yul\":5941:6060   */\n      iszero\n      tag_269\n      jumpi\n        /* \"#utility.yul\":5979:6058   */\n      tag_270\n      tag_178\n      jump\t// in\n    tag_270:\n        /* \"#utility.yul\":5941:6060   */\n    tag_269:\n        /* \"#utility.yul\":6099:6100   */\n      0x00\n        /* \"#utility.yul\":6124:6185   */\n      tag_271\n        /* \"#utility.yul\":6177:6184   */\n      dup5\n        /* \"#utility.yul\":6168:6174   */\n      dup3\n        /* \"#utility.yul\":6157:6166   */\n      dup6\n        /* \"#utility.yul\":6153:6175   */\n      add\n        /* \"#utility.yul\":6124:6185   */\n      tag_195\n      jump\t// in\n    tag_271:\n        /* \"#utility.yul\":6114:6185   */\n      swap2\n      pop\n        /* \"#utility.yul\":6070:6195   */\n      pop\n        /* \"#utility.yul\":5857:6202   */\n      swap3\n      swap2\n      pop\n      pop\n      jump\t// out\n        /* \"#utility.yul\":6208:6540   */\n    tag_114:\n        /* \"#utility.yul\":6329:6333   */\n      0x00\n        /* \"#utility.yul\":6367:6369   */\n      0x40\n        /* \"#utility.yul\":6356:6365   */\n      dup3\n        /* \"#utility.yul\":6352:6370   */\n      add\n        /* \"#utility.yul\":6344:6370   */\n      swap1\n      pop\n        /* \"#utility.yul\":6380:6451   */\n      tag_273\n        /* \"#utility.yul\":6448:6449   */\n      0x00\n        /* \"#utility.yul\":6437:6446   */\n      dup4\n        /* \"#utility.yul\":6433:6450   */\n      add\n        /* \"#utility.yul\":6424:6430   */\n      dup6\n        /* \"#utility.yul\":6380:6451   */\n      tag_194\n      jump\t// in\n    tag_273:\n        /* \"#utility.yul\":6461:6533   */\n      tag_274\n        /* \"#utility.yul\":6529:6531   */\n      0x20\n        /* \"#utility.yul\":6518:6527   */\n      dup4\n        /* \"#utility.yul\":6514:6532   */\n      add\n        /* \"#utility.yul\":6505:6511   */\n      dup5\n        /* \"#utility.yul\":6461:6533   */\n      tag_194\n      jump\t// in\n    tag_274:\n        /* \"#utility.yul\":6208:6540   */\n      swap4\n      swap3\n      pop\n      pop\n      pop\n      jump\t// out\n        /* \"#utility.yul\":6546:6894   */\n    tag_123:\n        /* \"#utility.yul\":6675:6679   */\n      0x00\n        /* \"#utility.yul\":6713:6715   */\n      0x40\n        /* \"#utility.yul\":6702:6711   */\n      dup3\n        /* \"#utility.yul\":6698:6716   */\n      add\n        /* \"#utility.yul\":6690:6716   */\n      swap1\n      pop\n        /* \"#utility.yul\":6726:6805   */\n      tag_276\n        /* \"#utility.yul\":6802:6803   */\n      0x00\n        /* \"#utility.yul\":6791:6800   */\n      dup4\n        /* \"#utility.yul\":6787:6804   */\n      add\n        /* \"#utility.yul\":6778:6784   */\n      dup6\n        /* \"#utility.yul\":6726:6805   */\n      tag_191\n      jump\t// in\n    tag_276:\n        /* \"#utility.yul\":6815:6887   */\n      tag_277\n        /* \"#utility.yul\":6883:6885   */\n      0x20\n        /* \"#utility.yul\":6872:6881   */\n      dup4\n        /* \"#utility.yul\":6868:6886   */\n      add\n        /* \"#utility.yul\":6859:6865   */\n      dup5\n        /* \"#utility.yul\":6815:6887   */\n      tag_194\n      jump\t// in\n    tag_277:\n        /* \"#utility.yul\":6546:6894   */\n      swap4\n      swap3\n      pop\n      pop\n      pop\n      jump\t// out\n        /* \"#utility.yul\":6900:7248   */\n    tag_128:\n        /* \"#utility.yul\":7029:7033   */\n      0x00\n        /* \"#utility.yul\":7067:7069   */\n      0x40\n        /* \"#utility.yul\":7056:7065   */\n      dup3\n        /* \"#utility.yul\":7052:7070   */\n      add\n        /* \"#utility.yul\":7044:7070   */\n      swap1\n      pop\n        /* \"#utility.yul\":7080:7151   */\n      tag_279\n        /* \"#utility.yul\":7148:7149   */\n      0x00\n        /* \"#utility.yul\":7137:7146   */\n      dup4\n        /* \"#utility.yul\":7133:7150   */\n      add\n        /* \"#utility.yul\":7124:7130   */\n      dup6\n        /* \"#utility.yul\":7080:7151   */\n      tag_194\n      jump\t// in\n    tag_279:\n        /* \"#utility.yul\":7161:7241   */\n      tag_280\n        /* \"#utility.yul\":7237:7239   */\n      0x20\n        /* \"#utility.yul\":7226:7235   */\n      dup4\n        /* \"#utility.yul\":7222:7240   */\n      add\n        /* \"#utility.yul\":7213:7219   */\n      dup5\n        /* \"#utility.yul\":7161:7241   */\n      tag_191\n      jump\t// in\n    tag_280:\n        /* \"#utility.yul\":6900:7248   */\n      swap4\n      swap3\n      pop\n      pop\n      pop\n      jump\t// out\n        /* \"#utility.yul\":7254:7712   */\n    tag_147:\n        /* \"#utility.yul\":7411:7415   */\n      0x00\n        /* \"#utility.yul\":7449:7451   */\n      0x60\n        /* \"#utility.yul\":7438:7447   */\n      dup3\n        /* \"#utility.yul\":7434:7452   */\n      add\n        /* \"#utility.yul\":7426:7452   */\n      swap1\n      pop\n        /* \"#utility.yul\":7462:7533   */\n      tag_282\n        /* \"#utility.yul\":7530:7531   */\n      0x00\n        /* \"#utility.yul\":7519:7528   */\n      dup4\n        /* \"#utility.yul\":7515:7532   */\n      add\n        /* \"#utility.yul\":7506:7512   */\n      dup7\n        /* \"#utility.yul\":7462:7533   */\n      tag_194\n      jump\t// in\n    tag_282:\n        /* \"#utility.yul\":7543:7623   */\n      tag_283\n        /* \"#utility.yul\":7619:7621   */\n      0x20\n        /* \"#utility.yul\":7608:7617   */\n      dup4\n        /* \"#utility.yul\":7604:7622   */\n      add\n        /* \"#utility.yul\":7595:7601   */\n      dup6\n        /* \"#utility.yul\":7543:7623   */\n      tag_191\n      jump\t// in\n    tag_283:\n        /* \"#utility.yul\":7633:7705   */\n      tag_284\n        /* \"#utility.yul\":7701:7703   */\n      0x40\n        /* \"#utility.yul\":7690:7699   */\n      dup4\n        /* \"#utility.yul\":7686:7704   */\n      add\n        /* \"#utility.yul\":7677:7683   */\n      dup5\n        /* \"#utility.yul\":7633:7705   */\n      tag_176\n      jump\t// in\n    tag_284:\n        /* \"#utility.yul\":7254:7712   */\n      swap5\n      swap4\n      pop\n      pop\n      pop\n      pop\n      jump\t// out\n        /* \"#utility.yul\":7718:8160   */\n    tag_170:\n        /* \"#utility.yul\":7867:7871   */\n      0x00\n        /* \"#utility.yul\":7905:7907   */\n      0x60\n        /* \"#utility.yul\":7894:7903   */\n      dup3\n        /* \"#utility.yul\":7890:7908   */\n      add\n        /* \"#utility.yul\":7882:7908   */\n      swap1\n      pop\n        /* \"#utility.yul\":7918:7989   */\n      tag_286\n        /* \"#utility.yul\":7986:7987   */\n      0x00\n        /* \"#utility.yul\":7975:7984   */\n      dup4\n        /* \"#utility.yul\":7971:7988   */\n      add\n        /* \"#utility.yul\":7962:7968   */\n      dup7\n        /* \"#utility.yul\":7918:7989   */\n      tag_194\n      jump\t// in\n    tag_286:\n        /* \"#utility.yul\":7999:8071   */\n      tag_287\n        /* \"#utility.yul\":8067:8069   */\n      0x20\n        /* \"#utility.yul\":8056:8065   */\n      dup4\n        /* \"#utility.yul\":8052:8070   */\n      add\n        /* \"#utility.yul\":8043:8049   */\n      dup6\n        /* \"#utility.yul\":7999:8071   */\n      tag_194\n      jump\t// in\n    tag_287:\n        /* \"#utility.yul\":8081:8153   */\n      tag_288\n        /* \"#utility.yul\":8149:8151   */\n      0x40\n        /* \"#utility.yul\":8138:8147   */\n      dup4\n        /* \"#utility.yul\":8134:8152   */\n      add\n        /* \"#utility.yul\":8125:8131   */\n      dup5\n        /* \"#utility.yul\":8081:8153   */\n      tag_176\n      jump\t// in\n    tag_288:\n        /* \"#utility.yul\":7718:8160   */\n      swap5\n      swap4\n      pop\n      pop\n      pop\n      pop\n      jump\t// out\n\n    auxdata: 0xa26469706673582212200615880ec4e2d198100923bd06dc8a8a8b008935d3a9f41201d884dd5e4fdb1464736f6c63430008110033\n}\n",
				"bytecode": {
					"linkReferences": {},
					"object": "6080604052735425890298aed601595a70ab815c96711a31bc65600560006101000a81548173ffffffffffffffffffffffffffffffffffffffff021916908373ffffffffffffffffffffffffffffffffffffffff160217905550730fa8781a83e46826621b3bc094ea2a0212e71b23600660006101000a81548173ffffffffffffffffffffffffffffffffffffffff021916908373ffffffffffffffffffffffffffffffffffffffff16021790555073fc872e8dc23fd2fde20f720077016b9c4b1c8c59600760006101000a81548173ffffffffffffffffffffffffffffffffffffffff021916908373ffffffffffffffffffffffffffffffffffffffff16021790555073fe4f5145f6e09952a5ba9e956ed0c25e3fa4c7f1600860006101000a81548173ffffffffffffffffffffffffffffffffffffffff021916908373ffffffffffffffffffffffffffffffffffffffff1602179055503480156200016557600080fd5b5060405162001bbf38038062001bbf83398181016040528101906200018b9190620003e5565b83600460006101000a81548173ffffffffffffffffffffffffffffffffffffffff021916908373ffffffffffffffffffffffffffffffffffffffff16021790555082600360006101000a81548173ffffffffffffffffffffffffffffffffffffffff021916908373ffffffffffffffffffffffffffffffffffffffff16021790555033600260006101000a81548173ffffffffffffffffffffffffffffffffffffffff021916908373ffffffffffffffffffffffffffffffffffffffff1602179055506000600460146101000a81548160ff02191690831515021790555081600081905550600760009054906101000a900473ffffffffffffffffffffffffffffffffffffffff16600960006101000a81548173ffffffffffffffffffffffffffffffffffffffff021916908373ffffffffffffffffffffffffffffffffffffffff16021790555081811015620002e95781600181905550620002f1565b806001819055505b5050505062000457565b600080fd5b600073ffffffffffffffffffffffffffffffffffffffff82169050919050565b60006200032d8262000300565b9050919050565b6200033f8162000320565b81146200034b57600080fd5b50565b6000815190506200035f8162000334565b92915050565b6000620003728262000300565b9050919050565b620003848162000365565b81146200039057600080fd5b50565b600081519050620003a48162000379565b92915050565b6000819050919050565b620003bf81620003aa565b8114620003cb57600080fd5b50565b600081519050620003df81620003b4565b92915050565b60008060008060808587031215620004025762000401620002fb565b5b600062000412878288016200034e565b9450506020620004258782880162000393565b93505060406200043887828801620003ce565b92505060606200044b87828801620003ce565b91505092959194509250565b61175880620004676000396000f3fe608060405234801561001057600080fd5b50600436106101005760003560e01c8063a1c5304711610097578063d9c4273e11610066578063d9c4273e1461021e578063db3999cd14610228578063f240f7c314610258578063ff18253b1461027657610100565b8063a1c53047146101bc578063a36c3e08146101da578063a5c41649146101e4578063cc355cf51461020257610100565b806356ff7c59116100d357806356ff7c591461016b5780636daa2d44146101875780639405de64146101915780639410872b146101b257610100565b806312065fe0146101055780631ba324391461012357806344b2dc85146101435780635116063014610161575b600080fd5b61010d610294565b60405161011a9190611332565b60405180910390f35b61012b61029c565b60405161013a9392919061134d565b60405180910390f35b61014b610530565b6040516101589190611332565b60405180910390f35b6101696106e3565b005b610185600480360381019061018091906113b5565b6107ae565b005b61018f610858565b005b6101996108de565b6040516101a994939291906113e2565b60405180910390f35b6101ba610bc6565b005b6101c4610d6f565b6040516101d19190611332565b60405180910390f35b6101e2610d75565b005b6101ec610f37565b6040516101f99190611332565b60405180910390f35b61021c6004803603810190610217919061145f565b610f3d565b005b6102266110ad565b005b610242600480360381019061023d91906113b5565b611237565b60405161024f919061149b565b60405180910390f35b6102606112e7565b60405161026d919061149b565b60405180910390f35b61027e6112fa565b60405161028b9190611332565b60405180910390f35b600047905090565b6000806000600260009054906101000a900473ffffffffffffffffffffffffffffffffffffffff1673ffffffffffffffffffffffffffffffffffffffff163273ffffffffffffffffffffffffffffffffffffffff16146102fb57600080fd5b6000600660009054906101000a900473ffffffffffffffffffffffffffffffffffffffff1673ffffffffffffffffffffffffffffffffffffffff166370a08231600260009054906101000a900473ffffffffffffffffffffffffffffffffffffffff166040518263ffffffff1660e01b815260040161037a9190611535565b602060405180830381865afa158015610397573d6000803e3d6000fd5b505050506040513d601f19601f820116820180604052508101906103bb9190611565565b90506000600660009054906101000a900473ffffffffffffffffffffffffffffffffffffffff1673ffffffffffffffffffffffffffffffffffffffff166370a08231600460009054906101000a900473ffffffffffffffffffffffffffffffffffffffff166040518263ffffffff1660e01b815260040161043c9190611535565b602060405180830381865afa158015610459573d6000803e3d6000fd5b505050506040513d601f19601f8201168201806040525081019061047d9190611565565b90506000600660009054906101000a900473ffffffffffffffffffffffffffffffffffffffff1673ffffffffffffffffffffffffffffffffffffffff166370a08231336040518263ffffffff1660e01b81526004016104dc91906115b3565b602060405180830381865afa1580156104f9573d6000803e3d6000fd5b505050506040513d601f19601f8201168201806040525081019061051d9190611565565b9050828282955095509550505050909192565b6000600360009054906101000a900473ffffffffffffffffffffffffffffffffffffffff1673ffffffffffffffffffffffffffffffffffffffff163273ffffffffffffffffffffffffffffffffffffffff1614806105db5750600460009054906101000a900473ffffffffffffffffffffffffffffffffffffffff1673ffffffffffffffffffffffffffffffffffffffff163273ffffffffffffffffffffffffffffffffffffffff16145b806106335750600260009054906101000a900473ffffffffffffffffffffffffffffffffffffffff1673ffffffffffffffffffffffffffffffffffffffff163273ffffffffffffffffffffffffffffffffffffffff16145b61063c57600080fd5b6000600660009054906101000a900473ffffffffffffffffffffffffffffffffffffffff1673ffffffffffffffffffffffffffffffffffffffff166370a08231306040518263ffffffff1660e01b815260040161069991906115b3565b602060405180830381865afa1580156106b6573d6000803e3d6000fd5b505050506040513d601f19601f820116820180604052508101906106da9190611565565b90508091505090565b600260009054906101000a900473ffffffffffffffffffffffffffffffffffffffff1673ffffffffffffffffffffffffffffffffffffffff163273ffffffffffffffffffffffffffffffffffffffff161461073d57600080fd5b6000479050600460009054906101000a900473ffffffffffffffffffffffffffffffffffffffff1673ffffffffffffffffffffffffffffffffffffffff166108fc829081150290604051600060405180830381858888f193505050501580156107aa573d6000803e3d6000fd5b5050565b6000819050600660009054906101000a900473ffffffffffffffffffffffffffffffffffffffff1673ffffffffffffffffffffffffffffffffffffffff1663095ea7b330836040518363ffffffff1660e01b81526004016108109291906115ce565b6020604051808303816000875af115801561082f573d6000803e3d6000fd5b505050506040513d601f19601f82011682018060405250810190610853919061160c565b505050565b600260009054906101000a900473ffffffffffffffffffffffffffffffffffffffff1673ffffffffffffffffffffffffffffffffffffffff163273ffffffffffffffffffffffffffffffffffffffff16146108b257600080fd5b6000544211156108c157600080fd5b6001600460146101000a81548160ff021916908315150217905550565b6000806000806000600660009054906101000a900473ffffffffffffffffffffffffffffffffffffffff1673ffffffffffffffffffffffffffffffffffffffff1663dd62ed3e33306040518363ffffffff1660e01b8152600401610943929190611639565b602060405180830381865afa158015610960573d6000803e3d6000fd5b505050506040513d601f19601f820116820180604052508101906109849190611565565b90506000600660009054906101000a900473ffffffffffffffffffffffffffffffffffffffff1673ffffffffffffffffffffffffffffffffffffffff1663dd62ed3e30336040518363ffffffff1660e01b81526004016109e5929190611639565b602060405180830381865afa158015610a02573d6000803e3d6000fd5b505050506040513d601f19601f82011682018060405250810190610a269190611565565b90506000600660009054906101000a900473ffffffffffffffffffffffffffffffffffffffff1673ffffffffffffffffffffffffffffffffffffffff1663dd62ed3e600260009054906101000a900473ffffffffffffffffffffffffffffffffffffffff16306040518363ffffffff1660e01b8152600401610aa9929190611662565b602060405180830381865afa158015610ac6573d6000803e3d6000fd5b505050506040513d601f19601f82011682018060405250810190610aea9190611565565b90506000600660009054906101000a900473ffffffffffffffffffffffffffffffffffffffff1673ffffffffffffffffffffffffffffffffffffffff1663dd62ed3e30600460009054906101000a900473ffffffffffffffffffffffffffffffffffffffff166040518363ffffffff1660e01b8152600401610b6d92919061168b565b602060405180830381865afa158015610b8a573d6000803e3d6000fd5b505050506040513d601f19601f82011682018060405250810190610bae9190611565565b90508383838397509750975097505050505090919293565b600360009054906101000a900473ffffffffffffffffffffffffffffffffffffffff1673ffffffffffffffffffffffffffffffffffffffff163273ffffffffffffffffffffffffffffffffffffffff161480610c6f5750600460009054906101000a900473ffffffffffffffffffffffffffffffffffffffff1673ffffffffffffffffffffffffffffffffffffffff163273ffffffffffffffffffffffffffffffffffffffff16145b80610cc75750600260009054906101000a900473ffffffffffffffffffffffffffffffffffffffff1673ffffffffffffffffffffffffffffffffffffffff163273ffffffffffffffffffffffffffffffffffffffff16145b610cd057600080fd5b6000544210158015610cf5575060001515600460149054906101000a900460ff161515145b610cfe57600080fd5b6000479050600460009054906101000a900473ffffffffffffffffffffffffffffffffffffffff1673ffffffffffffffffffffffffffffffffffffffff166108fc829081150290604051600060405180830381858888f19350505050158015610d6b573d6000803e3d6000fd5b5050565b60005481565b600260009054906101000a900473ffffffffffffffffffffffffffffffffffffffff1673ffffffffffffffffffffffffffffffffffffffff163273ffffffffffffffffffffffffffffffffffffffff1614610dcf57600080fd5b6000600660009054906101000a900473ffffffffffffffffffffffffffffffffffffffff1673ffffffffffffffffffffffffffffffffffffffff166370a08231306040518263ffffffff1660e01b8152600401610e2c91906115b3565b602060405180830381865afa158015610e49573d6000803e3d6000fd5b505050506040513d601f19601f82011682018060405250810190610e6d9190611565565b9050600660009054906101000a900473ffffffffffffffffffffffffffffffffffffffff1673ffffffffffffffffffffffffffffffffffffffff166323b872dd30600460009054906101000a900473ffffffffffffffffffffffffffffffffffffffff16846040518463ffffffff1660e01b8152600401610ef0939291906116b4565b6020604051808303816000875af1158015610f0f573d6000803e3d6000fd5b505050506040513d601f19601f82011682018060405250810190610f33919061160c565b5050565b60015481565b600360009054906101000a900473ffffffffffffffffffffffffffffffffffffffff1673ffffffffffffffffffffffffffffffffffffffff163273ffffffffffffffffffffffffffffffffffffffff1614610f9757600080fd5b60011515600460149054906101000a900460ff16151514610fb757600080fd5b600154421115610fc657600080fd5b6000479050811561103f57600460009054906101000a900473ffffffffffffffffffffffffffffffffffffffff1673ffffffffffffffffffffffffffffffffffffffff166108fc829081150290604051600060405180830381858888f19350505050158015611039573d6000803e3d6000fd5b506110a9565b600260009054906101000a900473ffffffffffffffffffffffffffffffffffffffff1673ffffffffffffffffffffffffffffffffffffffff166108fc829081150290604051600060405180830381858888f193505050501580156110a7573d6000803e3d6000fd5b505b5050565b600360009054906101000a900473ffffffffffffffffffffffffffffffffffffffff1673ffffffffffffffffffffffffffffffffffffffff163273ffffffffffffffffffffffffffffffffffffffff1614806111565750600460009054906101000a900473ffffffffffffffffffffffffffffffffffffffff1673ffffffffffffffffffffffffffffffffffffffff163273ffffffffffffffffffffffffffffffffffffffff16145b806111ae5750600260009054906101000a900473ffffffffffffffffffffffffffffffffffffffff1673ffffffffffffffffffffffffffffffffffffffff163273ffffffffffffffffffffffffffffffffffffffff16145b6111b757600080fd5b6001544210156111c657600080fd5b6000479050600460009054906101000a900473ffffffffffffffffffffffffffffffffffffffff1673ffffffffffffffffffffffffffffffffffffffff166108fc829081150290604051600060405180830381858888f19350505050158015611233573d6000803e3d6000fd5b5050565b600080829050600660009054906101000a900473ffffffffffffffffffffffffffffffffffffffff1673ffffffffffffffffffffffffffffffffffffffff166323b872dd3330846040518463ffffffff1660e01b815260040161129c939291906116eb565b6020604051808303816000875af11580156112bb573d6000803e3d6000fd5b505050506040513d601f19601f820116820180604052508101906112df919061160c565b915050919050565b600460149054906101000a900460ff1681565b60003373ffffffffffffffffffffffffffffffffffffffff1631905090565b6000819050919050565b61132c81611319565b82525050565b60006020820190506113476000830184611323565b92915050565b60006060820190506113626000830186611323565b61136f6020830185611323565b61137c6040830184611323565b949350505050565b600080fd5b61139281611319565b811461139d57600080fd5b50565b6000813590506113af81611389565b92915050565b6000602082840312156113cb576113ca611384565b5b60006113d9848285016113a0565b91505092915050565b60006080820190506113f76000830187611323565b6114046020830186611323565b6114116040830185611323565b61141e6060830184611323565b95945050505050565b60008115159050919050565b61143c81611427565b811461144757600080fd5b50565b60008135905061145981611433565b92915050565b60006020828403121561147557611474611384565b5b60006114838482850161144a565b91505092915050565b61149581611427565b82525050565b60006020820190506114b0600083018461148c565b92915050565b600073ffffffffffffffffffffffffffffffffffffffff82169050919050565b6000819050919050565b60006114fb6114f66114f1846114b6565b6114d6565b6114b6565b9050919050565b600061150d826114e0565b9050919050565b600061151f82611502565b9050919050565b61152f81611514565b82525050565b600060208201905061154a6000830184611526565b92915050565b60008151905061155f81611389565b92915050565b60006020828403121561157b5761157a611384565b5b600061158984828501611550565b91505092915050565b600061159d826114b6565b9050919050565b6115ad81611592565b82525050565b60006020820190506115c860008301846115a4565b92915050565b60006040820190506115e360008301856115a4565b6115f06020830184611323565b9392505050565b60008151905061160681611433565b92915050565b60006020828403121561162257611621611384565b5b6000611630848285016115f7565b91505092915050565b600060408201905061164e60008301856115a4565b61165b60208301846115a4565b9392505050565b60006040820190506116776000830185611526565b61168460208301846115a4565b9392505050565b60006040820190506116a060008301856115a4565b6116ad6020830184611526565b9392505050565b60006060820190506116c960008301866115a4565b6116d66020830185611526565b6116e36040830184611323565b949350505050565b600060608201905061170060008301866115a4565b61170d60208301856115a4565b61171a6040830184611323565b94935050505056fea26469706673582212200615880ec4e2d198100923bd06dc8a8a8b008935d3a9f41201d884dd5e4fdb1464736f6c63430008110033",
					"opcodes": "PUSH1 0x80 PUSH1 0x40 MSTORE PUSH20 0x5425890298AED601595A70AB815C96711A31BC65 PUSH1 0x5 PUSH1 0x0 PUSH2 0x100 EXP DUP2 SLOAD DUP2 PUSH20 0xFFFFFFFFFFFFFFFFFFFFFFFFFFFFFFFFFFFFFFFF MUL NOT AND SWAP1 DUP4 PUSH20 0xFFFFFFFFFFFFFFFFFFFFFFFFFFFFFFFFFFFFFFFF AND MUL OR SWAP1 SSTORE POP PUSH20 0xFA8781A83E46826621B3BC094EA2A0212E71B23 PUSH1 0x6 PUSH1 0x0 PUSH2 0x100 EXP DUP2 SLOAD DUP2 PUSH20 0xFFFFFFFFFFFFFFFFFFFFFFFFFFFFFFFFFFFFFFFF MUL NOT AND SWAP1 DUP4 PUSH20 0xFFFFFFFFFFFFFFFFFFFFFFFFFFFFFFFFFFFFFFFF AND MUL OR SWAP1 SSTORE POP PUSH20 0xFC872E8DC23FD2FDE20F720077016B9C4B1C8C59 PUSH1 0x7 PUSH1 0x0 PUSH2 0x100 EXP DUP2 SLOAD DUP2 PUSH20 0xFFFFFFFFFFFFFFFFFFFFFFFFFFFFFFFFFFFFFFFF MUL NOT AND SWAP1 DUP4 PUSH20 0xFFFFFFFFFFFFFFFFFFFFFFFFFFFFFFFFFFFFFFFF AND MUL OR SWAP1 SSTORE POP PUSH20 0xFE4F5145F6E09952A5BA9E956ED0C25E3FA4C7F1 PUSH1 0x8 PUSH1 0x0 PUSH2 0x100 EXP DUP2 SLOAD DUP2 PUSH20 0xFFFFFFFFFFFFFFFFFFFFFFFFFFFFFFFFFFFFFFFF MUL NOT AND SWAP1 DUP4 PUSH20 0xFFFFFFFFFFFFFFFFFFFFFFFFFFFFFFFFFFFFFFFF AND MUL OR SWAP1 SSTORE POP CALLVALUE DUP1 ISZERO PUSH3 0x165 JUMPI PUSH1 0x0 DUP1 REVERT JUMPDEST POP PUSH1 0x40 MLOAD PUSH3 0x1BBF CODESIZE SUB DUP1 PUSH3 0x1BBF DUP4 CODECOPY DUP2 DUP2 ADD PUSH1 0x40 MSTORE DUP2 ADD SWAP1 PUSH3 0x18B SWAP2 SWAP1 PUSH3 0x3E5 JUMP JUMPDEST DUP4 PUSH1 0x4 PUSH1 0x0 PUSH2 0x100 EXP DUP2 SLOAD DUP2 PUSH20 0xFFFFFFFFFFFFFFFFFFFFFFFFFFFFFFFFFFFFFFFF MUL NOT AND SWAP1 DUP4 PUSH20 0xFFFFFFFFFFFFFFFFFFFFFFFFFFFFFFFFFFFFFFFF AND MUL OR SWAP1 SSTORE POP DUP3 PUSH1 0x3 PUSH1 0x0 PUSH2 0x100 EXP DUP2 SLOAD DUP2 PUSH20 0xFFFFFFFFFFFFFFFFFFFFFFFFFFFFFFFFFFFFFFFF MUL NOT AND SWAP1 DUP4 PUSH20 0xFFFFFFFFFFFFFFFFFFFFFFFFFFFFFFFFFFFFFFFF AND MUL OR SWAP1 SSTORE POP CALLER PUSH1 0x2 PUSH1 0x0 PUSH2 0x100 EXP DUP2 SLOAD DUP2 PUSH20 0xFFFFFFFFFFFFFFFFFFFFFFFFFFFFFFFFFFFFFFFF MUL NOT AND SWAP1 DUP4 PUSH20 0xFFFFFFFFFFFFFFFFFFFFFFFFFFFFFFFFFFFFFFFF AND MUL OR SWAP1 SSTORE POP PUSH1 0x0 PUSH1 0x4 PUSH1 0x14 PUSH2 0x100 EXP DUP2 SLOAD DUP2 PUSH1 0xFF MUL NOT AND SWAP1 DUP4 ISZERO ISZERO MUL OR SWAP1 SSTORE POP DUP2 PUSH1 0x0 DUP2 SWAP1 SSTORE POP PUSH1 0x7 PUSH1 0x0 SWAP1 SLOAD SWAP1 PUSH2 0x100 EXP SWAP1 DIV PUSH20 0xFFFFFFFFFFFFFFFFFFFFFFFFFFFFFFFFFFFFFFFF AND PUSH1 0x9 PUSH1 0x0 PUSH2 0x100 EXP DUP2 SLOAD DUP2 PUSH20 0xFFFFFFFFFFFFFFFFFFFFFFFFFFFFFFFFFFFFFFFF MUL NOT AND SWAP1 DUP4 PUSH20 0xFFFFFFFFFFFFFFFFFFFFFFFFFFFFFFFFFFFFFFFF AND MUL OR SWAP1 SSTORE POP DUP2 DUP2 LT ISZERO PUSH3 0x2E9 JUMPI DUP2 PUSH1 0x1 DUP2 SWAP1 SSTORE POP PUSH3 0x2F1 JUMP JUMPDEST DUP1 PUSH1 0x1 DUP2 SWAP1 SSTORE POP JUMPDEST POP POP POP POP PUSH3 0x457 JUMP JUMPDEST PUSH1 0x0 DUP1 REVERT JUMPDEST PUSH1 0x0 PUSH20 0xFFFFFFFFFFFFFFFFFFFFFFFFFFFFFFFFFFFFFFFF DUP3 AND SWAP1 POP SWAP2 SWAP1 POP JUMP JUMPDEST PUSH1 0x0 PUSH3 0x32D DUP3 PUSH3 0x300 JUMP JUMPDEST SWAP1 POP SWAP2 SWAP1 POP JUMP JUMPDEST PUSH3 0x33F DUP2 PUSH3 0x320 JUMP JUMPDEST DUP2 EQ PUSH3 0x34B JUMPI PUSH1 0x0 DUP1 REVERT JUMPDEST POP JUMP JUMPDEST PUSH1 0x0 DUP2 MLOAD SWAP1 POP PUSH3 0x35F DUP2 PUSH3 0x334 JUMP JUMPDEST SWAP3 SWAP2 POP POP JUMP JUMPDEST PUSH1 0x0 PUSH3 0x372 DUP3 PUSH3 0x300 JUMP JUMPDEST SWAP1 POP SWAP2 SWAP1 POP JUMP JUMPDEST PUSH3 0x384 DUP2 PUSH3 0x365 JUMP JUMPDEST DUP2 EQ PUSH3 0x390 JUMPI PUSH1 0x0 DUP1 REVERT JUMPDEST POP JUMP JUMPDEST PUSH1 0x0 DUP2 MLOAD SWAP1 POP PUSH3 0x3A4 DUP2 PUSH3 0x379 JUMP JUMPDEST SWAP3 SWAP2 POP POP JUMP JUMPDEST PUSH1 0x0 DUP2 SWAP1 POP SWAP2 SWAP1 POP JUMP JUMPDEST PUSH3 0x3BF DUP2 PUSH3 0x3AA JUMP JUMPDEST DUP2 EQ PUSH3 0x3CB JUMPI PUSH1 0x0 DUP1 REVERT JUMPDEST POP JUMP JUMPDEST PUSH1 0x0 DUP2 MLOAD SWAP1 POP PUSH3 0x3DF DUP2 PUSH3 0x3B4 JUMP JUMPDEST SWAP3 SWAP2 POP POP JUMP JUMPDEST PUSH1 0x0 DUP1 PUSH1 0x0 DUP1 PUSH1 0x80 DUP6 DUP8 SUB SLT ISZERO PUSH3 0x402 JUMPI PUSH3 0x401 PUSH3 0x2FB JUMP JUMPDEST JUMPDEST PUSH1 0x0 PUSH3 0x412 DUP8 DUP3 DUP9 ADD PUSH3 0x34E JUMP JUMPDEST SWAP5 POP POP PUSH1 0x20 PUSH3 0x425 DUP8 DUP3 DUP9 ADD PUSH3 0x393 JUMP JUMPDEST SWAP4 POP POP PUSH1 0x40 PUSH3 0x438 DUP8 DUP3 DUP9 ADD PUSH3 0x3CE JUMP JUMPDEST SWAP3 POP POP PUSH1 0x60 PUSH3 0x44B DUP8 DUP3 DUP9 ADD PUSH3 0x3CE JUMP JUMPDEST SWAP2 POP POP SWAP3 SWAP6 SWAP2 SWAP5 POP SWAP3 POP JUMP JUMPDEST PUSH2 0x1758 DUP1 PUSH3 0x467 PUSH1 0x0 CODECOPY PUSH1 0x0 RETURN INVALID PUSH1 0x80 PUSH1 0x40 MSTORE CALLVALUE DUP1 ISZERO PUSH2 0x10 JUMPI PUSH1 0x0 DUP1 REVERT JUMPDEST POP PUSH1 0x4 CALLDATASIZE LT PUSH2 0x100 JUMPI PUSH1 0x0 CALLDATALOAD PUSH1 0xE0 SHR DUP1 PUSH4 0xA1C53047 GT PUSH2 0x97 JUMPI DUP1 PUSH4 0xD9C4273E GT PUSH2 0x66 JUMPI DUP1 PUSH4 0xD9C4273E EQ PUSH2 0x21E JUMPI DUP1 PUSH4 0xDB3999CD EQ PUSH2 0x228 JUMPI DUP1 PUSH4 0xF240F7C3 EQ PUSH2 0x258 JUMPI DUP1 PUSH4 0xFF18253B EQ PUSH2 0x276 JUMPI PUSH2 0x100 JUMP JUMPDEST DUP1 PUSH4 0xA1C53047 EQ PUSH2 0x1BC JUMPI DUP1 PUSH4 0xA36C3E08 EQ PUSH2 0x1DA JUMPI DUP1 PUSH4 0xA5C41649 EQ PUSH2 0x1E4 JUMPI DUP1 PUSH4 0xCC355CF5 EQ PUSH2 0x202 JUMPI PUSH2 0x100 JUMP JUMPDEST DUP1 PUSH4 0x56FF7C59 GT PUSH2 0xD3 JUMPI DUP1 PUSH4 0x56FF7C59 EQ PUSH2 0x16B JUMPI DUP1 PUSH4 0x6DAA2D44 EQ PUSH2 0x187 JUMPI DUP1 PUSH4 0x9405DE64 EQ PUSH2 0x191 JUMPI DUP1 PUSH4 0x9410872B EQ PUSH2 0x1B2 JUMPI PUSH2 0x100 JUMP JUMPDEST DUP1 PUSH4 0x12065FE0 EQ PUSH2 0x105 JUMPI DUP1 PUSH4 0x1BA32439 EQ PUSH2 0x123 JUMPI DUP1 PUSH4 0x44B2DC85 EQ PUSH2 0x143 JUMPI DUP1 PUSH4 0x51160630 EQ PUSH2 0x161 JUMPI JUMPDEST PUSH1 0x0 DUP1 REVERT JUMPDEST PUSH2 0x10D PUSH2 0x294 JUMP JUMPDEST PUSH1 0x40 MLOAD PUSH2 0x11A SWAP2 SWAP1 PUSH2 0x1332 JUMP JUMPDEST PUSH1 0x40 MLOAD DUP1 SWAP2 SUB SWAP1 RETURN JUMPDEST PUSH2 0x12B PUSH2 0x29C JUMP JUMPDEST PUSH1 0x40 MLOAD PUSH2 0x13A SWAP4 SWAP3 SWAP2 SWAP1 PUSH2 0x134D JUMP JUMPDEST PUSH1 0x40 MLOAD DUP1 SWAP2 SUB SWAP1 RETURN JUMPDEST PUSH2 0x14B PUSH2 0x530 JUMP JUMPDEST PUSH1 0x40 MLOAD PUSH2 0x158 SWAP2 SWAP1 PUSH2 0x1332 JUMP JUMPDEST PUSH1 0x40 MLOAD DUP1 SWAP2 SUB SWAP1 RETURN JUMPDEST PUSH2 0x169 PUSH2 0x6E3 JUMP JUMPDEST STOP JUMPDEST PUSH2 0x185 PUSH1 0x4 DUP1 CALLDATASIZE SUB DUP2 ADD SWAP1 PUSH2 0x180 SWAP2 SWAP1 PUSH2 0x13B5 JUMP JUMPDEST PUSH2 0x7AE JUMP JUMPDEST STOP JUMPDEST PUSH2 0x18F PUSH2 0x858 JUMP JUMPDEST STOP JUMPDEST PUSH2 0x199 PUSH2 0x8DE JUMP JUMPDEST PUSH1 0x40 MLOAD PUSH2 0x1A9 SWAP5 SWAP4 SWAP3 SWAP2 SWAP1 PUSH2 0x13E2 JUMP JUMPDEST PUSH1 0x40 MLOAD DUP1 SWAP2 SUB SWAP1 RETURN JUMPDEST PUSH2 0x1BA PUSH2 0xBC6 JUMP JUMPDEST STOP JUMPDEST PUSH2 0x1C4 PUSH2 0xD6F JUMP JUMPDEST PUSH1 0x40 MLOAD PUSH2 0x1D1 SWAP2 SWAP1 PUSH2 0x1332 JUMP JUMPDEST PUSH1 0x40 MLOAD DUP1 SWAP2 SUB SWAP1 RETURN JUMPDEST PUSH2 0x1E2 PUSH2 0xD75 JUMP JUMPDEST STOP JUMPDEST PUSH2 0x1EC PUSH2 0xF37 JUMP JUMPDEST PUSH1 0x40 MLOAD PUSH2 0x1F9 SWAP2 SWAP1 PUSH2 0x1332 JUMP JUMPDEST PUSH1 0x40 MLOAD DUP1 SWAP2 SUB SWAP1 RETURN JUMPDEST PUSH2 0x21C PUSH1 0x4 DUP1 CALLDATASIZE SUB DUP2 ADD SWAP1 PUSH2 0x217 SWAP2 SWAP1 PUSH2 0x145F JUMP JUMPDEST PUSH2 0xF3D JUMP JUMPDEST STOP JUMPDEST PUSH2 0x226 PUSH2 0x10AD JUMP JUMPDEST STOP JUMPDEST PUSH2 0x242 PUSH1 0x4 DUP1 CALLDATASIZE SUB DUP2 ADD SWAP1 PUSH2 0x23D SWAP2 SWAP1 PUSH2 0x13B5 JUMP JUMPDEST PUSH2 0x1237 JUMP JUMPDEST PUSH1 0x40 MLOAD PUSH2 0x24F SWAP2 SWAP1 PUSH2 0x149B JUMP JUMPDEST PUSH1 0x40 MLOAD DUP1 SWAP2 SUB SWAP1 RETURN JUMPDEST PUSH2 0x260 PUSH2 0x12E7 JUMP JUMPDEST PUSH1 0x40 MLOAD PUSH2 0x26D SWAP2 SWAP1 PUSH2 0x149B JUMP JUMPDEST PUSH1 0x40 MLOAD DUP1 SWAP2 SUB SWAP1 RETURN JUMPDEST PUSH2 0x27E PUSH2 0x12FA JUMP JUMPDEST PUSH1 0x40 MLOAD PUSH2 0x28B SWAP2 SWAP1 PUSH2 0x1332 JUMP JUMPDEST PUSH1 0x40 MLOAD DUP1 SWAP2 SUB SWAP1 RETURN JUMPDEST PUSH1 0x0 SELFBALANCE SWAP1 POP SWAP1 JUMP JUMPDEST PUSH1 0x0 DUP1 PUSH1 0x0 PUSH1 0x2 PUSH1 0x0 SWAP1 SLOAD SWAP1 PUSH2 0x100 EXP SWAP1 DIV PUSH20 0xFFFFFFFFFFFFFFFFFFFFFFFFFFFFFFFFFFFFFFFF AND PUSH20 0xFFFFFFFFFFFFFFFFFFFFFFFFFFFFFFFFFFFFFFFF AND ORIGIN PUSH20 0xFFFFFFFFFFFFFFFFFFFFFFFFFFFFFFFFFFFFFFFF AND EQ PUSH2 0x2FB JUMPI PUSH1 0x0 DUP1 REVERT JUMPDEST PUSH1 0x0 PUSH1 0x6 PUSH1 0x0 SWAP1 SLOAD SWAP1 PUSH2 0x100 EXP SWAP1 DIV PUSH20 0xFFFFFFFFFFFFFFFFFFFFFFFFFFFFFFFFFFFFFFFF AND PUSH20 0xFFFFFFFFFFFFFFFFFFFFFFFFFFFFFFFFFFFFFFFF AND PUSH4 0x70A08231 PUSH1 0x2 PUSH1 0x0 SWAP1 SLOAD SWAP1 PUSH2 0x100 EXP SWAP1 DIV PUSH20 0xFFFFFFFFFFFFFFFFFFFFFFFFFFFFFFFFFFFFFFFF AND PUSH1 0x40 MLOAD DUP3 PUSH4 0xFFFFFFFF AND PUSH1 0xE0 SHL DUP2 MSTORE PUSH1 0x4 ADD PUSH2 0x37A SWAP2 SWAP1 PUSH2 0x1535 JUMP JUMPDEST PUSH1 0x20 PUSH1 0x40 MLOAD DUP1 DUP4 SUB DUP2 DUP7 GAS STATICCALL ISZERO DUP1 ISZERO PUSH2 0x397 JUMPI RETURNDATASIZE PUSH1 0x0 DUP1 RETURNDATACOPY RETURNDATASIZE PUSH1 0x0 REVERT JUMPDEST POP POP POP POP PUSH1 0x40 MLOAD RETURNDATASIZE PUSH1 0x1F NOT PUSH1 0x1F DUP3 ADD AND DUP3 ADD DUP1 PUSH1 0x40 MSTORE POP DUP2 ADD SWAP1 PUSH2 0x3BB SWAP2 SWAP1 PUSH2 0x1565 JUMP JUMPDEST SWAP1 POP PUSH1 0x0 PUSH1 0x6 PUSH1 0x0 SWAP1 SLOAD SWAP1 PUSH2 0x100 EXP SWAP1 DIV PUSH20 0xFFFFFFFFFFFFFFFFFFFFFFFFFFFFFFFFFFFFFFFF AND PUSH20 0xFFFFFFFFFFFFFFFFFFFFFFFFFFFFFFFFFFFFFFFF AND PUSH4 0x70A08231 PUSH1 0x4 PUSH1 0x0 SWAP1 SLOAD SWAP1 PUSH2 0x100 EXP SWAP1 DIV PUSH20 0xFFFFFFFFFFFFFFFFFFFFFFFFFFFFFFFFFFFFFFFF AND PUSH1 0x40 MLOAD DUP3 PUSH4 0xFFFFFFFF AND PUSH1 0xE0 SHL DUP2 MSTORE PUSH1 0x4 ADD PUSH2 0x43C SWAP2 SWAP1 PUSH2 0x1535 JUMP JUMPDEST PUSH1 0x20 PUSH1 0x40 MLOAD DUP1 DUP4 SUB DUP2 DUP7 GAS STATICCALL ISZERO DUP1 ISZERO PUSH2 0x459 JUMPI RETURNDATASIZE PUSH1 0x0 DUP1 RETURNDATACOPY RETURNDATASIZE PUSH1 0x0 REVERT JUMPDEST POP POP POP POP PUSH1 0x40 MLOAD RETURNDATASIZE PUSH1 0x1F NOT PUSH1 0x1F DUP3 ADD AND DUP3 ADD DUP1 PUSH1 0x40 MSTORE POP DUP2 ADD SWAP1 PUSH2 0x47D SWAP2 SWAP1 PUSH2 0x1565 JUMP JUMPDEST SWAP1 POP PUSH1 0x0 PUSH1 0x6 PUSH1 0x0 SWAP1 SLOAD SWAP1 PUSH2 0x100 EXP SWAP1 DIV PUSH20 0xFFFFFFFFFFFFFFFFFFFFFFFFFFFFFFFFFFFFFFFF AND PUSH20 0xFFFFFFFFFFFFFFFFFFFFFFFFFFFFFFFFFFFFFFFF AND PUSH4 0x70A08231 CALLER PUSH1 0x40 MLOAD DUP3 PUSH4 0xFFFFFFFF AND PUSH1 0xE0 SHL DUP2 MSTORE PUSH1 0x4 ADD PUSH2 0x4DC SWAP2 SWAP1 PUSH2 0x15B3 JUMP JUMPDEST PUSH1 0x20 PUSH1 0x40 MLOAD DUP1 DUP4 SUB DUP2 DUP7 GAS STATICCALL ISZERO DUP1 ISZERO PUSH2 0x4F9 JUMPI RETURNDATASIZE PUSH1 0x0 DUP1 RETURNDATACOPY RETURNDATASIZE PUSH1 0x0 REVERT JUMPDEST POP POP POP POP PUSH1 0x40 MLOAD RETURNDATASIZE PUSH1 0x1F NOT PUSH1 0x1F DUP3 ADD AND DUP3 ADD DUP1 PUSH1 0x40 MSTORE POP DUP2 ADD SWAP1 PUSH2 0x51D SWAP2 SWAP1 PUSH2 0x1565 JUMP JUMPDEST SWAP1 POP DUP3 DUP3 DUP3 SWAP6 POP SWAP6 POP SWAP6 POP POP POP POP SWAP1 SWAP2 SWAP3 JUMP JUMPDEST PUSH1 0x0 PUSH1 0x3 PUSH1 0x0 SWAP1 SLOAD SWAP1 PUSH2 0x100 EXP SWAP1 DIV PUSH20 0xFFFFFFFFFFFFFFFFFFFFFFFFFFFFFFFFFFFFFFFF AND PUSH20 0xFFFFFFFFFFFFFFFFFFFFFFFFFFFFFFFFFFFFFFFF AND ORIGIN PUSH20 0xFFFFFFFFFFFFFFFFFFFFFFFFFFFFFFFFFFFFFFFF AND EQ DUP1 PUSH2 0x5DB JUMPI POP PUSH1 0x4 PUSH1 0x0 SWAP1 SLOAD SWAP1 PUSH2 0x100 EXP SWAP1 DIV PUSH20 0xFFFFFFFFFFFFFFFFFFFFFFFFFFFFFFFFFFFFFFFF AND PUSH20 0xFFFFFFFFFFFFFFFFFFFFFFFFFFFFFFFFFFFFFFFF AND ORIGIN PUSH20 0xFFFFFFFFFFFFFFFFFFFFFFFFFFFFFFFFFFFFFFFF AND EQ JUMPDEST DUP1 PUSH2 0x633 JUMPI POP PUSH1 0x2 PUSH1 0x0 SWAP1 SLOAD SWAP1 PUSH2 0x100 EXP SWAP1 DIV PUSH20 0xFFFFFFFFFFFFFFFFFFFFFFFFFFFFFFFFFFFFFFFF AND PUSH20 0xFFFFFFFFFFFFFFFFFFFFFFFFFFFFFFFFFFFFFFFF AND ORIGIN PUSH20 0xFFFFFFFFFFFFFFFFFFFFFFFFFFFFFFFFFFFFFFFF AND EQ JUMPDEST PUSH2 0x63C JUMPI PUSH1 0x0 DUP1 REVERT JUMPDEST PUSH1 0x0 PUSH1 0x6 PUSH1 0x0 SWAP1 SLOAD SWAP1 PUSH2 0x100 EXP SWAP1 DIV PUSH20 0xFFFFFFFFFFFFFFFFFFFFFFFFFFFFFFFFFFFFFFFF AND PUSH20 0xFFFFFFFFFFFFFFFFFFFFFFFFFFFFFFFFFFFFFFFF AND PUSH4 0x70A08231 ADDRESS PUSH1 0x40 MLOAD DUP3 PUSH4 0xFFFFFFFF AND PUSH1 0xE0 SHL DUP2 MSTORE PUSH1 0x4 ADD PUSH2 0x699 SWAP2 SWAP1 PUSH2 0x15B3 JUMP JUMPDEST PUSH1 0x20 PUSH1 0x40 MLOAD DUP1 DUP4 SUB DUP2 DUP7 GAS STATICCALL ISZERO DUP1 ISZERO PUSH2 0x6B6 JUMPI RETURNDATASIZE PUSH1 0x0 DUP1 RETURNDATACOPY RETURNDATASIZE PUSH1 0x0 REVERT JUMPDEST POP POP POP POP PUSH1 0x40 MLOAD RETURNDATASIZE PUSH1 0x1F NOT PUSH1 0x1F DUP3 ADD AND DUP3 ADD DUP1 PUSH1 0x40 MSTORE POP DUP2 ADD SWAP1 PUSH2 0x6DA SWAP2 SWAP1 PUSH2 0x1565 JUMP JUMPDEST SWAP1 POP DUP1 SWAP2 POP POP SWAP1 JUMP JUMPDEST PUSH1 0x2 PUSH1 0x0 SWAP1 SLOAD SWAP1 PUSH2 0x100 EXP SWAP1 DIV PUSH20 0xFFFFFFFFFFFFFFFFFFFFFFFFFFFFFFFFFFFFFFFF AND PUSH20 0xFFFFFFFFFFFFFFFFFFFFFFFFFFFFFFFFFFFFFFFF AND ORIGIN PUSH20 0xFFFFFFFFFFFFFFFFFFFFFFFFFFFFFFFFFFFFFFFF AND EQ PUSH2 0x73D JUMPI PUSH1 0x0 DUP1 REVERT JUMPDEST PUSH1 0x0 SELFBALANCE SWAP1 POP PUSH1 0x4 PUSH1 0x0 SWAP1 SLOAD SWAP1 PUSH2 0x100 EXP SWAP1 DIV PUSH20 0xFFFFFFFFFFFFFFFFFFFFFFFFFFFFFFFFFFFFFFFF AND PUSH20 0xFFFFFFFFFFFFFFFFFFFFFFFFFFFFFFFFFFFFFFFF AND PUSH2 0x8FC DUP3 SWAP1 DUP2 ISZERO MUL SWAP1 PUSH1 0x40 MLOAD PUSH1 0x0 PUSH1 0x40 MLOAD DUP1 DUP4 SUB DUP2 DUP6 DUP9 DUP9 CALL SWAP4 POP POP POP POP ISZERO DUP1 ISZERO PUSH2 0x7AA JUMPI RETURNDATASIZE PUSH1 0x0 DUP1 RETURNDATACOPY RETURNDATASIZE PUSH1 0x0 REVERT JUMPDEST POP POP JUMP JUMPDEST PUSH1 0x0 DUP2 SWAP1 POP PUSH1 0x6 PUSH1 0x0 SWAP1 SLOAD SWAP1 PUSH2 0x100 EXP SWAP1 DIV PUSH20 0xFFFFFFFFFFFFFFFFFFFFFFFFFFFFFFFFFFFFFFFF AND PUSH20 0xFFFFFFFFFFFFFFFFFFFFFFFFFFFFFFFFFFFFFFFF AND PUSH4 0x95EA7B3 ADDRESS DUP4 PUSH1 0x40 MLOAD DUP4 PUSH4 0xFFFFFFFF AND PUSH1 0xE0 SHL DUP2 MSTORE PUSH1 0x4 ADD PUSH2 0x810 SWAP3 SWAP2 SWAP1 PUSH2 0x15CE JUMP JUMPDEST PUSH1 0x20 PUSH1 0x40 MLOAD DUP1 DUP4 SUB DUP2 PUSH1 0x0 DUP8 GAS CALL ISZERO DUP1 ISZERO PUSH2 0x82F JUMPI RETURNDATASIZE PUSH1 0x0 DUP1 RETURNDATACOPY RETURNDATASIZE PUSH1 0x0 REVERT JUMPDEST POP POP POP POP PUSH1 0x40 MLOAD RETURNDATASIZE PUSH1 0x1F NOT PUSH1 0x1F DUP3 ADD AND DUP3 ADD DUP1 PUSH1 0x40 MSTORE POP DUP2 ADD SWAP1 PUSH2 0x853 SWAP2 SWAP1 PUSH2 0x160C JUMP JUMPDEST POP POP POP JUMP JUMPDEST PUSH1 0x2 PUSH1 0x0 SWAP1 SLOAD SWAP1 PUSH2 0x100 EXP SWAP1 DIV PUSH20 0xFFFFFFFFFFFFFFFFFFFFFFFFFFFFFFFFFFFFFFFF AND PUSH20 0xFFFFFFFFFFFFFFFFFFFFFFFFFFFFFFFFFFFFFFFF AND ORIGIN PUSH20 0xFFFFFFFFFFFFFFFFFFFFFFFFFFFFFFFFFFFFFFFF AND EQ PUSH2 0x8B2 JUMPI PUSH1 0x0 DUP1 REVERT JUMPDEST PUSH1 0x0 SLOAD TIMESTAMP GT ISZERO PUSH2 0x8C1 JUMPI PUSH1 0x0 DUP1 REVERT JUMPDEST PUSH1 0x1 PUSH1 0x4 PUSH1 0x14 PUSH2 0x100 EXP DUP2 SLOAD DUP2 PUSH1 0xFF MUL NOT AND SWAP1 DUP4 ISZERO ISZERO MUL OR SWAP1 SSTORE POP JUMP JUMPDEST PUSH1 0x0 DUP1 PUSH1 0x0 DUP1 PUSH1 0x0 PUSH1 0x6 PUSH1 0x0 SWAP1 SLOAD SWAP1 PUSH2 0x100 EXP SWAP1 DIV PUSH20 0xFFFFFFFFFFFFFFFFFFFFFFFFFFFFFFFFFFFFFFFF AND PUSH20 0xFFFFFFFFFFFFFFFFFFFFFFFFFFFFFFFFFFFFFFFF AND PUSH4 0xDD62ED3E CALLER ADDRESS PUSH1 0x40 MLOAD DUP4 PUSH4 0xFFFFFFFF AND PUSH1 0xE0 SHL DUP2 MSTORE PUSH1 0x4 ADD PUSH2 0x943 SWAP3 SWAP2 SWAP1 PUSH2 0x1639 JUMP JUMPDEST PUSH1 0x20 PUSH1 0x40 MLOAD DUP1 DUP4 SUB DUP2 DUP7 GAS STATICCALL ISZERO DUP1 ISZERO PUSH2 0x960 JUMPI RETURNDATASIZE PUSH1 0x0 DUP1 RETURNDATACOPY RETURNDATASIZE PUSH1 0x0 REVERT JUMPDEST POP POP POP POP PUSH1 0x40 MLOAD RETURNDATASIZE PUSH1 0x1F NOT PUSH1 0x1F DUP3 ADD AND DUP3 ADD DUP1 PUSH1 0x40 MSTORE POP DUP2 ADD SWAP1 PUSH2 0x984 SWAP2 SWAP1 PUSH2 0x1565 JUMP JUMPDEST SWAP1 POP PUSH1 0x0 PUSH1 0x6 PUSH1 0x0 SWAP1 SLOAD SWAP1 PUSH2 0x100 EXP SWAP1 DIV PUSH20 0xFFFFFFFFFFFFFFFFFFFFFFFFFFFFFFFFFFFFFFFF AND PUSH20 0xFFFFFFFFFFFFFFFFFFFFFFFFFFFFFFFFFFFFFFFF AND PUSH4 0xDD62ED3E ADDRESS CALLER PUSH1 0x40 MLOAD DUP4 PUSH4 0xFFFFFFFF AND PUSH1 0xE0 SHL DUP2 MSTORE PUSH1 0x4 ADD PUSH2 0x9E5 SWAP3 SWAP2 SWAP1 PUSH2 0x1639 JUMP JUMPDEST PUSH1 0x20 PUSH1 0x40 MLOAD DUP1 DUP4 SUB DUP2 DUP7 GAS STATICCALL ISZERO DUP1 ISZERO PUSH2 0xA02 JUMPI RETURNDATASIZE PUSH1 0x0 DUP1 RETURNDATACOPY RETURNDATASIZE PUSH1 0x0 REVERT JUMPDEST POP POP POP POP PUSH1 0x40 MLOAD RETURNDATASIZE PUSH1 0x1F NOT PUSH1 0x1F DUP3 ADD AND DUP3 ADD DUP1 PUSH1 0x40 MSTORE POP DUP2 ADD SWAP1 PUSH2 0xA26 SWAP2 SWAP1 PUSH2 0x1565 JUMP JUMPDEST SWAP1 POP PUSH1 0x0 PUSH1 0x6 PUSH1 0x0 SWAP1 SLOAD SWAP1 PUSH2 0x100 EXP SWAP1 DIV PUSH20 0xFFFFFFFFFFFFFFFFFFFFFFFFFFFFFFFFFFFFFFFF AND PUSH20 0xFFFFFFFFFFFFFFFFFFFFFFFFFFFFFFFFFFFFFFFF AND PUSH4 0xDD62ED3E PUSH1 0x2 PUSH1 0x0 SWAP1 SLOAD SWAP1 PUSH2 0x100 EXP SWAP1 DIV PUSH20 0xFFFFFFFFFFFFFFFFFFFFFFFFFFFFFFFFFFFFFFFF AND ADDRESS PUSH1 0x40 MLOAD DUP4 PUSH4 0xFFFFFFFF AND PUSH1 0xE0 SHL DUP2 MSTORE PUSH1 0x4 ADD PUSH2 0xAA9 SWAP3 SWAP2 SWAP1 PUSH2 0x1662 JUMP JUMPDEST PUSH1 0x20 PUSH1 0x40 MLOAD DUP1 DUP4 SUB DUP2 DUP7 GAS STATICCALL ISZERO DUP1 ISZERO PUSH2 0xAC6 JUMPI RETURNDATASIZE PUSH1 0x0 DUP1 RETURNDATACOPY RETURNDATASIZE PUSH1 0x0 REVERT JUMPDEST POP POP POP POP PUSH1 0x40 MLOAD RETURNDATASIZE PUSH1 0x1F NOT PUSH1 0x1F DUP3 ADD AND DUP3 ADD DUP1 PUSH1 0x40 MSTORE POP DUP2 ADD SWAP1 PUSH2 0xAEA SWAP2 SWAP1 PUSH2 0x1565 JUMP JUMPDEST SWAP1 POP PUSH1 0x0 PUSH1 0x6 PUSH1 0x0 SWAP1 SLOAD SWAP1 PUSH2 0x100 EXP SWAP1 DIV PUSH20 0xFFFFFFFFFFFFFFFFFFFFFFFFFFFFFFFFFFFFFFFF AND PUSH20 0xFFFFFFFFFFFFFFFFFFFFFFFFFFFFFFFFFFFFFFFF AND PUSH4 0xDD62ED3E ADDRESS PUSH1 0x4 PUSH1 0x0 SWAP1 SLOAD SWAP1 PUSH2 0x100 EXP SWAP1 DIV PUSH20 0xFFFFFFFFFFFFFFFFFFFFFFFFFFFFFFFFFFFFFFFF AND PUSH1 0x40 MLOAD DUP4 PUSH4 0xFFFFFFFF AND PUSH1 0xE0 SHL DUP2 MSTORE PUSH1 0x4 ADD PUSH2 0xB6D SWAP3 SWAP2 SWAP1 PUSH2 0x168B JUMP JUMPDEST PUSH1 0x20 PUSH1 0x40 MLOAD DUP1 DUP4 SUB DUP2 DUP7 GAS STATICCALL ISZERO DUP1 ISZERO PUSH2 0xB8A JUMPI RETURNDATASIZE PUSH1 0x0 DUP1 RETURNDATACOPY RETURNDATASIZE PUSH1 0x0 REVERT JUMPDEST POP POP POP POP PUSH1 0x40 MLOAD RETURNDATASIZE PUSH1 0x1F NOT PUSH1 0x1F DUP3 ADD AND DUP3 ADD DUP1 PUSH1 0x40 MSTORE POP DUP2 ADD SWAP1 PUSH2 0xBAE SWAP2 SWAP1 PUSH2 0x1565 JUMP JUMPDEST SWAP1 POP DUP4 DUP4 DUP4 DUP4 SWAP8 POP SWAP8 POP SWAP8 POP SWAP8 POP POP POP POP POP SWAP1 SWAP2 SWAP3 SWAP4 JUMP JUMPDEST PUSH1 0x3 PUSH1 0x0 SWAP1 SLOAD SWAP1 PUSH2 0x100 EXP SWAP1 DIV PUSH20 0xFFFFFFFFFFFFFFFFFFFFFFFFFFFFFFFFFFFFFFFF AND PUSH20 0xFFFFFFFFFFFFFFFFFFFFFFFFFFFFFFFFFFFFFFFF AND ORIGIN PUSH20 0xFFFFFFFFFFFFFFFFFFFFFFFFFFFFFFFFFFFFFFFF AND EQ DUP1 PUSH2 0xC6F JUMPI POP PUSH1 0x4 PUSH1 0x0 SWAP1 SLOAD SWAP1 PUSH2 0x100 EXP SWAP1 DIV PUSH20 0xFFFFFFFFFFFFFFFFFFFFFFFFFFFFFFFFFFFFFFFF AND PUSH20 0xFFFFFFFFFFFFFFFFFFFFFFFFFFFFFFFFFFFFFFFF AND ORIGIN PUSH20 0xFFFFFFFFFFFFFFFFFFFFFFFFFFFFFFFFFFFFFFFF AND EQ JUMPDEST DUP1 PUSH2 0xCC7 JUMPI POP PUSH1 0x2 PUSH1 0x0 SWAP1 SLOAD SWAP1 PUSH2 0x100 EXP SWAP1 DIV PUSH20 0xFFFFFFFFFFFFFFFFFFFFFFFFFFFFFFFFFFFFFFFF AND PUSH20 0xFFFFFFFFFFFFFFFFFFFFFFFFFFFFFFFFFFFFFFFF AND ORIGIN PUSH20 0xFFFFFFFFFFFFFFFFFFFFFFFFFFFFFFFFFFFFFFFF AND EQ JUMPDEST PUSH2 0xCD0 JUMPI PUSH1 0x0 DUP1 REVERT JUMPDEST PUSH1 0x0 SLOAD TIMESTAMP LT ISZERO DUP1 ISZERO PUSH2 0xCF5 JUMPI POP PUSH1 0x0 ISZERO ISZERO PUSH1 0x4 PUSH1 0x14 SWAP1 SLOAD SWAP1 PUSH2 0x100 EXP SWAP1 DIV PUSH1 0xFF AND ISZERO ISZERO EQ JUMPDEST PUSH2 0xCFE JUMPI PUSH1 0x0 DUP1 REVERT JUMPDEST PUSH1 0x0 SELFBALANCE SWAP1 POP PUSH1 0x4 PUSH1 0x0 SWAP1 SLOAD SWAP1 PUSH2 0x100 EXP SWAP1 DIV PUSH20 0xFFFFFFFFFFFFFFFFFFFFFFFFFFFFFFFFFFFFFFFF AND PUSH20 0xFFFFFFFFFFFFFFFFFFFFFFFFFFFFFFFFFFFFFFFF AND PUSH2 0x8FC DUP3 SWAP1 DUP2 ISZERO MUL SWAP1 PUSH1 0x40 MLOAD PUSH1 0x0 PUSH1 0x40 MLOAD DUP1 DUP4 SUB DUP2 DUP6 DUP9 DUP9 CALL SWAP4 POP POP POP POP ISZERO DUP1 ISZERO PUSH2 0xD6B JUMPI RETURNDATASIZE PUSH1 0x0 DUP1 RETURNDATACOPY RETURNDATASIZE PUSH1 0x0 REVERT JUMPDEST POP POP JUMP JUMPDEST PUSH1 0x0 SLOAD DUP2 JUMP JUMPDEST PUSH1 0x2 PUSH1 0x0 SWAP1 SLOAD SWAP1 PUSH2 0x100 EXP SWAP1 DIV PUSH20 0xFFFFFFFFFFFFFFFFFFFFFFFFFFFFFFFFFFFFFFFF AND PUSH20 0xFFFFFFFFFFFFFFFFFFFFFFFFFFFFFFFFFFFFFFFF AND ORIGIN PUSH20 0xFFFFFFFFFFFFFFFFFFFFFFFFFFFFFFFFFFFFFFFF AND EQ PUSH2 0xDCF JUMPI PUSH1 0x0 DUP1 REVERT JUMPDEST PUSH1 0x0 PUSH1 0x6 PUSH1 0x0 SWAP1 SLOAD SWAP1 PUSH2 0x100 EXP SWAP1 DIV PUSH20 0xFFFFFFFFFFFFFFFFFFFFFFFFFFFFFFFFFFFFFFFF AND PUSH20 0xFFFFFFFFFFFFFFFFFFFFFFFFFFFFFFFFFFFFFFFF AND PUSH4 0x70A08231 ADDRESS PUSH1 0x40 MLOAD DUP3 PUSH4 0xFFFFFFFF AND PUSH1 0xE0 SHL DUP2 MSTORE PUSH1 0x4 ADD PUSH2 0xE2C SWAP2 SWAP1 PUSH2 0x15B3 JUMP JUMPDEST PUSH1 0x20 PUSH1 0x40 MLOAD DUP1 DUP4 SUB DUP2 DUP7 GAS STATICCALL ISZERO DUP1 ISZERO PUSH2 0xE49 JUMPI RETURNDATASIZE PUSH1 0x0 DUP1 RETURNDATACOPY RETURNDATASIZE PUSH1 0x0 REVERT JUMPDEST POP POP POP POP PUSH1 0x40 MLOAD RETURNDATASIZE PUSH1 0x1F NOT PUSH1 0x1F DUP3 ADD AND DUP3 ADD DUP1 PUSH1 0x40 MSTORE POP DUP2 ADD SWAP1 PUSH2 0xE6D SWAP2 SWAP1 PUSH2 0x1565 JUMP JUMPDEST SWAP1 POP PUSH1 0x6 PUSH1 0x0 SWAP1 SLOAD SWAP1 PUSH2 0x100 EXP SWAP1 DIV PUSH20 0xFFFFFFFFFFFFFFFFFFFFFFFFFFFFFFFFFFFFFFFF AND PUSH20 0xFFFFFFFFFFFFFFFFFFFFFFFFFFFFFFFFFFFFFFFF AND PUSH4 0x23B872DD ADDRESS PUSH1 0x4 PUSH1 0x0 SWAP1 SLOAD SWAP1 PUSH2 0x100 EXP SWAP1 DIV PUSH20 0xFFFFFFFFFFFFFFFFFFFFFFFFFFFFFFFFFFFFFFFF AND DUP5 PUSH1 0x40 MLOAD DUP5 PUSH4 0xFFFFFFFF AND PUSH1 0xE0 SHL DUP2 MSTORE PUSH1 0x4 ADD PUSH2 0xEF0 SWAP4 SWAP3 SWAP2 SWAP1 PUSH2 0x16B4 JUMP JUMPDEST PUSH1 0x20 PUSH1 0x40 MLOAD DUP1 DUP4 SUB DUP2 PUSH1 0x0 DUP8 GAS CALL ISZERO DUP1 ISZERO PUSH2 0xF0F JUMPI RETURNDATASIZE PUSH1 0x0 DUP1 RETURNDATACOPY RETURNDATASIZE PUSH1 0x0 REVERT JUMPDEST POP POP POP POP PUSH1 0x40 MLOAD RETURNDATASIZE PUSH1 0x1F NOT PUSH1 0x1F DUP3 ADD AND DUP3 ADD DUP1 PUSH1 0x40 MSTORE POP DUP2 ADD SWAP1 PUSH2 0xF33 SWAP2 SWAP1 PUSH2 0x160C JUMP JUMPDEST POP POP JUMP JUMPDEST PUSH1 0x1 SLOAD DUP2 JUMP JUMPDEST PUSH1 0x3 PUSH1 0x0 SWAP1 SLOAD SWAP1 PUSH2 0x100 EXP SWAP1 DIV PUSH20 0xFFFFFFFFFFFFFFFFFFFFFFFFFFFFFFFFFFFFFFFF AND PUSH20 0xFFFFFFFFFFFFFFFFFFFFFFFFFFFFFFFFFFFFFFFF AND ORIGIN PUSH20 0xFFFFFFFFFFFFFFFFFFFFFFFFFFFFFFFFFFFFFFFF AND EQ PUSH2 0xF97 JUMPI PUSH1 0x0 DUP1 REVERT JUMPDEST PUSH1 0x1 ISZERO ISZERO PUSH1 0x4 PUSH1 0x14 SWAP1 SLOAD SWAP1 PUSH2 0x100 EXP SWAP1 DIV PUSH1 0xFF AND ISZERO ISZERO EQ PUSH2 0xFB7 JUMPI PUSH1 0x0 DUP1 REVERT JUMPDEST PUSH1 0x1 SLOAD TIMESTAMP GT ISZERO PUSH2 0xFC6 JUMPI PUSH1 0x0 DUP1 REVERT JUMPDEST PUSH1 0x0 SELFBALANCE SWAP1 POP DUP2 ISZERO PUSH2 0x103F JUMPI PUSH1 0x4 PUSH1 0x0 SWAP1 SLOAD SWAP1 PUSH2 0x100 EXP SWAP1 DIV PUSH20 0xFFFFFFFFFFFFFFFFFFFFFFFFFFFFFFFFFFFFFFFF AND PUSH20 0xFFFFFFFFFFFFFFFFFFFFFFFFFFFFFFFFFFFFFFFF AND PUSH2 0x8FC DUP3 SWAP1 DUP2 ISZERO MUL SWAP1 PUSH1 0x40 MLOAD PUSH1 0x0 PUSH1 0x40 MLOAD DUP1 DUP4 SUB DUP2 DUP6 DUP9 DUP9 CALL SWAP4 POP POP POP POP ISZERO DUP1 ISZERO PUSH2 0x1039 JUMPI RETURNDATASIZE PUSH1 0x0 DUP1 RETURNDATACOPY RETURNDATASIZE PUSH1 0x0 REVERT JUMPDEST POP PUSH2 0x10A9 JUMP JUMPDEST PUSH1 0x2 PUSH1 0x0 SWAP1 SLOAD SWAP1 PUSH2 0x100 EXP SWAP1 DIV PUSH20 0xFFFFFFFFFFFFFFFFFFFFFFFFFFFFFFFFFFFFFFFF AND PUSH20 0xFFFFFFFFFFFFFFFFFFFFFFFFFFFFFFFFFFFFFFFF AND PUSH2 0x8FC DUP3 SWAP1 DUP2 ISZERO MUL SWAP1 PUSH1 0x40 MLOAD PUSH1 0x0 PUSH1 0x40 MLOAD DUP1 DUP4 SUB DUP2 DUP6 DUP9 DUP9 CALL SWAP4 POP POP POP POP ISZERO DUP1 ISZERO PUSH2 0x10A7 JUMPI RETURNDATASIZE PUSH1 0x0 DUP1 RETURNDATACOPY RETURNDATASIZE PUSH1 0x0 REVERT JUMPDEST POP JUMPDEST POP POP JUMP JUMPDEST PUSH1 0x3 PUSH1 0x0 SWAP1 SLOAD SWAP1 PUSH2 0x100 EXP SWAP1 DIV PUSH20 0xFFFFFFFFFFFFFFFFFFFFFFFFFFFFFFFFFFFFFFFF AND PUSH20 0xFFFFFFFFFFFFFFFFFFFFFFFFFFFFFFFFFFFFFFFF AND ORIGIN PUSH20 0xFFFFFFFFFFFFFFFFFFFFFFFFFFFFFFFFFFFFFFFF AND EQ DUP1 PUSH2 0x1156 JUMPI POP PUSH1 0x4 PUSH1 0x0 SWAP1 SLOAD SWAP1 PUSH2 0x100 EXP SWAP1 DIV PUSH20 0xFFFFFFFFFFFFFFFFFFFFFFFFFFFFFFFFFFFFFFFF AND PUSH20 0xFFFFFFFFFFFFFFFFFFFFFFFFFFFFFFFFFFFFFFFF AND ORIGIN PUSH20 0xFFFFFFFFFFFFFFFFFFFFFFFFFFFFFFFFFFFFFFFF AND EQ JUMPDEST DUP1 PUSH2 0x11AE JUMPI POP PUSH1 0x2 PUSH1 0x0 SWAP1 SLOAD SWAP1 PUSH2 0x100 EXP SWAP1 DIV PUSH20 0xFFFFFFFFFFFFFFFFFFFFFFFFFFFFFFFFFFFFFFFF AND PUSH20 0xFFFFFFFFFFFFFFFFFFFFFFFFFFFFFFFFFFFFFFFF AND ORIGIN PUSH20 0xFFFFFFFFFFFFFFFFFFFFFFFFFFFFFFFFFFFFFFFF AND EQ JUMPDEST PUSH2 0x11B7 JUMPI PUSH1 0x0 DUP1 REVERT JUMPDEST PUSH1 0x1 SLOAD TIMESTAMP LT ISZERO PUSH2 0x11C6 JUMPI PUSH1 0x0 DUP1 REVERT JUMPDEST PUSH1 0x0 SELFBALANCE SWAP1 POP PUSH1 0x4 PUSH1 0x0 SWAP1 SLOAD SWAP1 PUSH2 0x100 EXP SWAP1 DIV PUSH20 0xFFFFFFFFFFFFFFFFFFFFFFFFFFFFFFFFFFFFFFFF AND PUSH20 0xFFFFFFFFFFFFFFFFFFFFFFFFFFFFFFFFFFFFFFFF AND PUSH2 0x8FC DUP3 SWAP1 DUP2 ISZERO MUL SWAP1 PUSH1 0x40 MLOAD PUSH1 0x0 PUSH1 0x40 MLOAD DUP1 DUP4 SUB DUP2 DUP6 DUP9 DUP9 CALL SWAP4 POP POP POP POP ISZERO DUP1 ISZERO PUSH2 0x1233 JUMPI RETURNDATASIZE PUSH1 0x0 DUP1 RETURNDATACOPY RETURNDATASIZE PUSH1 0x0 REVERT JUMPDEST POP POP JUMP JUMPDEST PUSH1 0x0 DUP1 DUP3 SWAP1 POP PUSH1 0x6 PUSH1 0x0 SWAP1 SLOAD SWAP1 PUSH2 0x100 EXP SWAP1 DIV PUSH20 0xFFFFFFFFFFFFFFFFFFFFFFFFFFFFFFFFFFFFFFFF AND PUSH20 0xFFFFFFFFFFFFFFFFFFFFFFFFFFFFFFFFFFFFFFFF AND PUSH4 0x23B872DD CALLER ADDRESS DUP5 PUSH1 0x40 MLOAD DUP5 PUSH4 0xFFFFFFFF AND PUSH1 0xE0 SHL DUP2 MSTORE PUSH1 0x4 ADD PUSH2 0x129C SWAP4 SWAP3 SWAP2 SWAP1 PUSH2 0x16EB JUMP JUMPDEST PUSH1 0x20 PUSH1 0x40 MLOAD DUP1 DUP4 SUB DUP2 PUSH1 0x0 DUP8 GAS CALL ISZERO DUP1 ISZERO PUSH2 0x12BB JUMPI RETURNDATASIZE PUSH1 0x0 DUP1 RETURNDATACOPY RETURNDATASIZE PUSH1 0x0 REVERT JUMPDEST POP POP POP POP PUSH1 0x40 MLOAD RETURNDATASIZE PUSH1 0x1F NOT PUSH1 0x1F DUP3 ADD AND DUP3 ADD DUP1 PUSH1 0x40 MSTORE POP DUP2 ADD SWAP1 PUSH2 0x12DF SWAP2 SWAP1 PUSH2 0x160C JUMP JUMPDEST SWAP2 POP POP SWAP2 SWAP1 POP JUMP JUMPDEST PUSH1 0x4 PUSH1 0x14 SWAP1 SLOAD SWAP1 PUSH2 0x100 EXP SWAP1 DIV PUSH1 0xFF AND DUP2 JUMP JUMPDEST PUSH1 0x0 CALLER PUSH20 0xFFFFFFFFFFFFFFFFFFFFFFFFFFFFFFFFFFFFFFFF AND BALANCE SWAP1 POP SWAP1 JUMP JUMPDEST PUSH1 0x0 DUP2 SWAP1 POP SWAP2 SWAP1 POP JUMP JUMPDEST PUSH2 0x132C DUP2 PUSH2 0x1319 JUMP JUMPDEST DUP3 MSTORE POP POP JUMP JUMPDEST PUSH1 0x0 PUSH1 0x20 DUP3 ADD SWAP1 POP PUSH2 0x1347 PUSH1 0x0 DUP4 ADD DUP5 PUSH2 0x1323 JUMP JUMPDEST SWAP3 SWAP2 POP POP JUMP JUMPDEST PUSH1 0x0 PUSH1 0x60 DUP3 ADD SWAP1 POP PUSH2 0x1362 PUSH1 0x0 DUP4 ADD DUP7 PUSH2 0x1323 JUMP JUMPDEST PUSH2 0x136F PUSH1 0x20 DUP4 ADD DUP6 PUSH2 0x1323 JUMP JUMPDEST PUSH2 0x137C PUSH1 0x40 DUP4 ADD DUP5 PUSH2 0x1323 JUMP JUMPDEST SWAP5 SWAP4 POP POP POP POP JUMP JUMPDEST PUSH1 0x0 DUP1 REVERT JUMPDEST PUSH2 0x1392 DUP2 PUSH2 0x1319 JUMP JUMPDEST DUP2 EQ PUSH2 0x139D JUMPI PUSH1 0x0 DUP1 REVERT JUMPDEST POP JUMP JUMPDEST PUSH1 0x0 DUP2 CALLDATALOAD SWAP1 POP PUSH2 0x13AF DUP2 PUSH2 0x1389 JUMP JUMPDEST SWAP3 SWAP2 POP POP JUMP JUMPDEST PUSH1 0x0 PUSH1 0x20 DUP3 DUP5 SUB SLT ISZERO PUSH2 0x13CB JUMPI PUSH2 0x13CA PUSH2 0x1384 JUMP JUMPDEST JUMPDEST PUSH1 0x0 PUSH2 0x13D9 DUP5 DUP3 DUP6 ADD PUSH2 0x13A0 JUMP JUMPDEST SWAP2 POP POP SWAP3 SWAP2 POP POP JUMP JUMPDEST PUSH1 0x0 PUSH1 0x80 DUP3 ADD SWAP1 POP PUSH2 0x13F7 PUSH1 0x0 DUP4 ADD DUP8 PUSH2 0x1323 JUMP JUMPDEST PUSH2 0x1404 PUSH1 0x20 DUP4 ADD DUP7 PUSH2 0x1323 JUMP JUMPDEST PUSH2 0x1411 PUSH1 0x40 DUP4 ADD DUP6 PUSH2 0x1323 JUMP JUMPDEST PUSH2 0x141E PUSH1 0x60 DUP4 ADD DUP5 PUSH2 0x1323 JUMP JUMPDEST SWAP6 SWAP5 POP POP POP POP POP JUMP JUMPDEST PUSH1 0x0 DUP2 ISZERO ISZERO SWAP1 POP SWAP2 SWAP1 POP JUMP JUMPDEST PUSH2 0x143C DUP2 PUSH2 0x1427 JUMP JUMPDEST DUP2 EQ PUSH2 0x1447 JUMPI PUSH1 0x0 DUP1 REVERT JUMPDEST POP JUMP JUMPDEST PUSH1 0x0 DUP2 CALLDATALOAD SWAP1 POP PUSH2 0x1459 DUP2 PUSH2 0x1433 JUMP JUMPDEST SWAP3 SWAP2 POP POP JUMP JUMPDEST PUSH1 0x0 PUSH1 0x20 DUP3 DUP5 SUB SLT ISZERO PUSH2 0x1475 JUMPI PUSH2 0x1474 PUSH2 0x1384 JUMP JUMPDEST JUMPDEST PUSH1 0x0 PUSH2 0x1483 DUP5 DUP3 DUP6 ADD PUSH2 0x144A JUMP JUMPDEST SWAP2 POP POP SWAP3 SWAP2 POP POP JUMP JUMPDEST PUSH2 0x1495 DUP2 PUSH2 0x1427 JUMP JUMPDEST DUP3 MSTORE POP POP JUMP JUMPDEST PUSH1 0x0 PUSH1 0x20 DUP3 ADD SWAP1 POP PUSH2 0x14B0 PUSH1 0x0 DUP4 ADD DUP5 PUSH2 0x148C JUMP JUMPDEST SWAP3 SWAP2 POP POP JUMP JUMPDEST PUSH1 0x0 PUSH20 0xFFFFFFFFFFFFFFFFFFFFFFFFFFFFFFFFFFFFFFFF DUP3 AND SWAP1 POP SWAP2 SWAP1 POP JUMP JUMPDEST PUSH1 0x0 DUP2 SWAP1 POP SWAP2 SWAP1 POP JUMP JUMPDEST PUSH1 0x0 PUSH2 0x14FB PUSH2 0x14F6 PUSH2 0x14F1 DUP5 PUSH2 0x14B6 JUMP JUMPDEST PUSH2 0x14D6 JUMP JUMPDEST PUSH2 0x14B6 JUMP JUMPDEST SWAP1 POP SWAP2 SWAP1 POP JUMP JUMPDEST PUSH1 0x0 PUSH2 0x150D DUP3 PUSH2 0x14E0 JUMP JUMPDEST SWAP1 POP SWAP2 SWAP1 POP JUMP JUMPDEST PUSH1 0x0 PUSH2 0x151F DUP3 PUSH2 0x1502 JUMP JUMPDEST SWAP1 POP SWAP2 SWAP1 POP JUMP JUMPDEST PUSH2 0x152F DUP2 PUSH2 0x1514 JUMP JUMPDEST DUP3 MSTORE POP POP JUMP JUMPDEST PUSH1 0x0 PUSH1 0x20 DUP3 ADD SWAP1 POP PUSH2 0x154A PUSH1 0x0 DUP4 ADD DUP5 PUSH2 0x1526 JUMP JUMPDEST SWAP3 SWAP2 POP POP JUMP JUMPDEST PUSH1 0x0 DUP2 MLOAD SWAP1 POP PUSH2 0x155F DUP2 PUSH2 0x1389 JUMP JUMPDEST SWAP3 SWAP2 POP POP JUMP JUMPDEST PUSH1 0x0 PUSH1 0x20 DUP3 DUP5 SUB SLT ISZERO PUSH2 0x157B JUMPI PUSH2 0x157A PUSH2 0x1384 JUMP JUMPDEST JUMPDEST PUSH1 0x0 PUSH2 0x1589 DUP5 DUP3 DUP6 ADD PUSH2 0x1550 JUMP JUMPDEST SWAP2 POP POP SWAP3 SWAP2 POP POP JUMP JUMPDEST PUSH1 0x0 PUSH2 0x159D DUP3 PUSH2 0x14B6 JUMP JUMPDEST SWAP1 POP SWAP2 SWAP1 POP JUMP JUMPDEST PUSH2 0x15AD DUP2 PUSH2 0x1592 JUMP JUMPDEST DUP3 MSTORE POP POP JUMP JUMPDEST PUSH1 0x0 PUSH1 0x20 DUP3 ADD SWAP1 POP PUSH2 0x15C8 PUSH1 0x0 DUP4 ADD DUP5 PUSH2 0x15A4 JUMP JUMPDEST SWAP3 SWAP2 POP POP JUMP JUMPDEST PUSH1 0x0 PUSH1 0x40 DUP3 ADD SWAP1 POP PUSH2 0x15E3 PUSH1 0x0 DUP4 ADD DUP6 PUSH2 0x15A4 JUMP JUMPDEST PUSH2 0x15F0 PUSH1 0x20 DUP4 ADD DUP5 PUSH2 0x1323 JUMP JUMPDEST SWAP4 SWAP3 POP POP POP JUMP JUMPDEST PUSH1 0x0 DUP2 MLOAD SWAP1 POP PUSH2 0x1606 DUP2 PUSH2 0x1433 JUMP JUMPDEST SWAP3 SWAP2 POP POP JUMP JUMPDEST PUSH1 0x0 PUSH1 0x20 DUP3 DUP5 SUB SLT ISZERO PUSH2 0x1622 JUMPI PUSH2 0x1621 PUSH2 0x1384 JUMP JUMPDEST JUMPDEST PUSH1 0x0 PUSH2 0x1630 DUP5 DUP3 DUP6 ADD PUSH2 0x15F7 JUMP JUMPDEST SWAP2 POP POP SWAP3 SWAP2 POP POP JUMP JUMPDEST PUSH1 0x0 PUSH1 0x40 DUP3 ADD SWAP1 POP PUSH2 0x164E PUSH1 0x0 DUP4 ADD DUP6 PUSH2 0x15A4 JUMP JUMPDEST PUSH2 0x165B PUSH1 0x20 DUP4 ADD DUP5 PUSH2 0x15A4 JUMP JUMPDEST SWAP4 SWAP3 POP POP POP JUMP JUMPDEST PUSH1 0x0 PUSH1 0x40 DUP3 ADD SWAP1 POP PUSH2 0x1677 PUSH1 0x0 DUP4 ADD DUP6 PUSH2 0x1526 JUMP JUMPDEST PUSH2 0x1684 PUSH1 0x20 DUP4 ADD DUP5 PUSH2 0x15A4 JUMP JUMPDEST SWAP4 SWAP3 POP POP POP JUMP JUMPDEST PUSH1 0x0 PUSH1 0x40 DUP3 ADD SWAP1 POP PUSH2 0x16A0 PUSH1 0x0 DUP4 ADD DUP6 PUSH2 0x15A4 JUMP JUMPDEST PUSH2 0x16AD PUSH1 0x20 DUP4 ADD DUP5 PUSH2 0x1526 JUMP JUMPDEST SWAP4 SWAP3 POP POP POP JUMP JUMPDEST PUSH1 0x0 PUSH1 0x60 DUP3 ADD SWAP1 POP PUSH2 0x16C9 PUSH1 0x0 DUP4 ADD DUP7 PUSH2 0x15A4 JUMP JUMPDEST PUSH2 0x16D6 PUSH1 0x20 DUP4 ADD DUP6 PUSH2 0x1526 JUMP JUMPDEST PUSH2 0x16E3 PUSH1 0x40 DUP4 ADD DUP5 PUSH2 0x1323 JUMP JUMPDEST SWAP5 SWAP4 POP POP POP POP JUMP JUMPDEST PUSH1 0x0 PUSH1 0x60 DUP3 ADD SWAP1 POP PUSH2 0x1700 PUSH1 0x0 DUP4 ADD DUP7 PUSH2 0x15A4 JUMP JUMPDEST PUSH2 0x170D PUSH1 0x20 DUP4 ADD DUP6 PUSH2 0x15A4 JUMP JUMPDEST PUSH2 0x171A PUSH1 0x40 DUP4 ADD DUP5 PUSH2 0x1323 JUMP JUMPDEST SWAP5 SWAP4 POP POP POP POP JUMP INVALID LOG2 PUSH5 0x6970667358 0x22 SLT KECCAK256 MOD ISZERO DUP9 0xE 0xC4 0xE2 0xD1 SWAP9 LT MULMOD 0x23 0xBD MOD 0xDC DUP11 DUP11 DUP12 STOP DUP10 CALLDATALOAD 0xD3 0xA9 DELEGATECALL SLT ADD 0xD8 DUP5 0xDD 0x5E 0x4F 0xDB EQ PUSH5 0x736F6C6343 STOP ADDMOD GT STOP CALLER "
				},
				"gasEstimates": {
					"creation": {
						"codeDepositCost": "1195200",
						"executionCost": "infinite",
						"totalCost": "infinite"
					},
					"external": {
						"approveAndTransferUSDC(uint256)": "infinite",
						"approveContractTransfer(uint256)": "infinite",
						"checkAllowance()": "infinite",
						"defaultDisputeSettlement()": "infinite",
						"dispute()": "2587",
						"disputeRelease()": "2496",
						"disputeSettlement(bool)": "infinite",
						"getBalance()": "363",
						"getBuyerUsdcBalance()": "infinite",
						"getContractUsdcBalance()": "infinite",
						"getSenderBalance()": "3030",
						"raiseDispute()": "28801",
						"saleRelease()": "2452",
						"saleSettlement()": "infinite",
						"settlement()": "infinite",
						"settlementUsdc()": "infinite"
					}
				},
				"methodIdentifiers": {
					"approveAndTransferUSDC(uint256)": "db3999cd",
					"approveContractTransfer(uint256)": "56ff7c59",
					"checkAllowance()": "9405de64",
					"defaultDisputeSettlement()": "d9c4273e",
					"dispute()": "f240f7c3",
					"disputeRelease()": "a5c41649",
					"disputeSettlement(bool)": "cc355cf5",
					"getBalance()": "12065fe0",
					"getBuyerUsdcBalance()": "1ba32439",
					"getContractUsdcBalance()": "44b2dc85",
					"getSenderBalance()": "ff18253b",
					"raiseDispute()": "6daa2d44",
					"saleRelease()": "a1c53047",
					"saleSettlement()": "9410872b",
					"settlement()": "51160630",
					"settlementUsdc()": "a36c3e08"
				}
			},
			"storageLayout": {
				"storage": [
					{
						"astId": 1029,
						"contract": "contracts/erc20htlc2.sol:Peacio",
						"label": "saleRelease",
						"offset": 0,
						"slot": "0",
						"type": "t_uint256"
					},
					{
						"astId": 1031,
						"contract": "contracts/erc20htlc2.sol:Peacio",
						"label": "disputeRelease",
						"offset": 0,
						"slot": "1",
						"type": "t_uint256"
					},
					{
						"astId": 1033,
						"contract": "contracts/erc20htlc2.sol:Peacio",
						"label": "buyer",
						"offset": 0,
						"slot": "2",
						"type": "t_address_payable"
					},
					{
						"astId": 1035,
						"contract": "contracts/erc20htlc2.sol:Peacio",
						"label": "notary",
						"offset": 0,
						"slot": "3",
						"type": "t_address"
					},
					{
						"astId": 1037,
						"contract": "contracts/erc20htlc2.sol:Peacio",
						"label": "seller",
						"offset": 0,
						"slot": "4",
						"type": "t_address_payable"
					},
					{
						"astId": 1039,
						"contract": "contracts/erc20htlc2.sol:Peacio",
						"label": "dispute",
						"offset": 20,
						"slot": "4",
						"type": "t_bool"
					},
					{
						"astId": 1042,
						"contract": "contracts/erc20htlc2.sol:Peacio",
						"label": "usdcAddressAvax",
						"offset": 0,
						"slot": "5",
						"type": "t_address"
					},
					{
						"astId": 1048,
						"contract": "contracts/erc20htlc2.sol:Peacio",
						"label": "usdcAddressPolygon",
						"offset": 0,
						"slot": "6",
						"type": "t_address_payable"
					},
					{
						"astId": 1054,
						"contract": "contracts/erc20htlc2.sol:Peacio",
						"label": "usdcAddressProxyPolygon",
						"offset": 0,
						"slot": "7",
						"type": "t_address_payable"
					},
					{
						"astId": 1057,
						"contract": "contracts/erc20htlc2.sol:Peacio",
						"label": "usdcAddressDERC20",
						"offset": 0,
						"slot": "8",
						"type": "t_address"
					},
					{
						"astId": 1059,
						"contract": "contracts/erc20htlc2.sol:Peacio",
						"label": "usdcAddress",
						"offset": 0,
						"slot": "9",
						"type": "t_address"
					}
				],
				"types": {
					"t_address": {
						"encoding": "inplace",
						"label": "address",
						"numberOfBytes": "20"
					},
					"t_address_payable": {
						"encoding": "inplace",
						"label": "address payable",
						"numberOfBytes": "20"
					},
					"t_bool": {
						"encoding": "inplace",
						"label": "bool",
						"numberOfBytes": "1"
					},
					"t_uint256": {
						"encoding": "inplace",
						"label": "uint256",
						"numberOfBytes": "32"
					}
				}
			},
			"userdoc": {
				"kind": "user",
				"methods": {},
				"version": 1
			}
		}
	}
}