{
	"contracts/ethtest2.sol": {
		"NameRegistry": {
			"abi": [
				{
					"anonymous": false,
					"inputs": [
						{
							"indexed": true,
							"internalType": "address",
							"name": "ethAddress",
							"type": "address"
						}
					],
					"name": "NameDeregistered",
					"type": "event"
				},
				{
					"anonymous": false,
					"inputs": [
						{
							"indexed": true,
							"internalType": "address",
							"name": "ethAddress",
							"type": "address"
						},
						{
							"indexed": false,
							"internalType": "string",
							"name": "name",
							"type": "string"
						}
					],
					"name": "NameRegistered",
					"type": "event"
				},
				{
					"inputs": [
						{
							"internalType": "address",
							"name": "",
							"type": "address"
						}
					],
					"name": "addressToName",
					"outputs": [
						{
							"internalType": "string",
							"name": "",
							"type": "string"
						}
					],
					"stateMutability": "view",
					"type": "function"
				},
				{
					"inputs": [],
					"name": "deregisterName",
					"outputs": [
						{
							"internalType": "uint256",
							"name": "",
							"type": "uint256"
						}
					],
					"stateMutability": "nonpayable",
					"type": "function"
				},
				{
					"inputs": [
						{
							"internalType": "address",
							"name": "_userAddress",
							"type": "address"
						}
					],
					"name": "getName",
					"outputs": [
						{
							"internalType": "string",
							"name": "",
							"type": "string"
						}
					],
					"stateMutability": "view",
					"type": "function"
				},
				{
					"inputs": [
						{
							"internalType": "address",
							"name": "",
							"type": "address"
						}
					],
					"name": "isDeregistered",
					"outputs": [
						{
							"internalType": "bool",
							"name": "",
							"type": "bool"
						}
					],
					"stateMutability": "view",
					"type": "function"
				},
				{
					"inputs": [
						{
							"internalType": "address",
							"name": "",
							"type": "address"
						}
					],
					"name": "isRegistered",
					"outputs": [
						{
							"internalType": "bool",
							"name": "",
							"type": "bool"
						}
					],
					"stateMutability": "view",
					"type": "function"
				},
				{
					"inputs": [
						{
							"internalType": "string",
							"name": "_userName",
							"type": "string"
						}
					],
					"name": "registerName",
					"outputs": [],
					"stateMutability": "nonpayable",
					"type": "function"
				}
			],
			"devdoc": {
				"kind": "dev",
				"methods": {},
				"version": 1
			},
			"evm": {
				"assembly": "    /* \"contracts/ethtest2.sol\":60:1915  contract NameRegistry {... */\n  mstore(0x40, 0x80)\n  callvalue\n  dup1\n  iszero\n  tag_1\n  jumpi\n  0x00\n  dup1\n  revert\ntag_1:\n  pop\n  dataSize(sub_0)\n  dup1\n  dataOffset(sub_0)\n  0x00\n  codecopy\n  0x00\n  return\nstop\n\nsub_0: assembly {\n        /* \"contracts/ethtest2.sol\":60:1915  contract NameRegistry {... */\n      mstore(0x40, 0x80)\n      callvalue\n      dup1\n      iszero\n      tag_1\n      jumpi\n      0x00\n      dup1\n      revert\n    tag_1:\n      pop\n      jumpi(tag_2, lt(calldatasize, 0x04))\n      shr(0xe0, calldataload(0x00))\n      dup1\n      0x0830602b\n      eq\n      tag_3\n      jumpi\n      dup1\n      0x0d5fba83\n      eq\n      tag_4\n      jumpi\n      dup1\n      0x5fd4b08a\n      eq\n      tag_5\n      jumpi\n      dup1\n      0x8020fc1f\n      eq\n      tag_6\n      jumpi\n      dup1\n      0xc3c5a547\n      eq\n      tag_7\n      jumpi\n      dup1\n      0xe2a04b62\n      eq\n      tag_8\n      jumpi\n    tag_2:\n      0x00\n      dup1\n      revert\n        /* \"contracts/ethtest2.sol\":728:1107  function registerName(string memory _userName) public  {... */\n    tag_3:\n      tag_9\n      0x04\n      dup1\n      calldatasize\n      sub\n      dup2\n      add\n      swap1\n      tag_10\n      swap2\n      swap1\n      tag_11\n      jump\t// in\n    tag_10:\n      tag_12\n      jump\t// in\n    tag_9:\n      stop\n        /* \"contracts/ethtest2.sol\":1153:1595  function deregisterName() public returns (uint) {... */\n    tag_4:\n      tag_13\n      tag_14\n      jump\t// in\n    tag_13:\n      mload(0x40)\n      tag_15\n      swap2\n      swap1\n      tag_16\n      jump\t// in\n    tag_15:\n      mload(0x40)\n      dup1\n      swap2\n      sub\n      swap1\n      return\n        /* \"contracts/ethtest2.sol\":1675:1912  function getName(address _userAddress) public view returns (string memory) {... */\n    tag_5:\n      tag_17\n      0x04\n      dup1\n      calldatasize\n      sub\n      dup2\n      add\n      swap1\n      tag_18\n      swap2\n      swap1\n      tag_19\n      jump\t// in\n    tag_18:\n      tag_20\n      jump\t// in\n    tag_17:\n      mload(0x40)\n      tag_21\n      swap2\n      swap1\n      tag_22\n      jump\t// in\n    tag_21:\n      mload(0x40)\n      dup1\n      swap2\n      sub\n      swap1\n      return\n        /* \"contracts/ethtest2.sol\":406:452  mapping(address => bool) public isDeregistered */\n    tag_6:\n      tag_23\n      0x04\n      dup1\n      calldatasize\n      sub\n      dup2\n      add\n      swap1\n      tag_24\n      swap2\n      swap1\n      tag_19\n      jump\t// in\n    tag_24:\n      tag_25\n      jump\t// in\n    tag_23:\n      mload(0x40)\n      tag_26\n      swap2\n      swap1\n      tag_27\n      jump\t// in\n    tag_26:\n      mload(0x40)\n      dup1\n      swap2\n      sub\n      swap1\n      return\n        /* \"contracts/ethtest2.sol\":292:336  mapping(address => bool) public isRegistered */\n    tag_7:\n      tag_28\n      0x04\n      dup1\n      calldatasize\n      sub\n      dup2\n      add\n      swap1\n      tag_29\n      swap2\n      swap1\n      tag_19\n      jump\t// in\n    tag_29:\n      tag_30\n      jump\t// in\n    tag_28:\n      mload(0x40)\n      tag_31\n      swap2\n      swap1\n      tag_27\n      jump\t// in\n    tag_31:\n      mload(0x40)\n      dup1\n      swap2\n      sub\n      swap1\n      return\n        /* \"contracts/ethtest2.sol\":167:214  mapping(address => string) public addressToName */\n    tag_8:\n      tag_32\n      0x04\n      dup1\n      calldatasize\n      sub\n      dup2\n      add\n      swap1\n      tag_33\n      swap2\n      swap1\n      tag_19\n      jump\t// in\n    tag_33:\n      tag_34\n      jump\t// in\n    tag_32:\n      mload(0x40)\n      tag_35\n      swap2\n      swap1\n      tag_22\n      jump\t// in\n    tag_35:\n      mload(0x40)\n      dup1\n      swap2\n      sub\n      swap1\n      return\n        /* \"contracts/ethtest2.sol\":728:1107  function registerName(string memory _userName) public  {... */\n    tag_12:\n        /* \"contracts/ethtest2.sol\":828:829  0 */\n      0x00\n        /* \"contracts/ethtest2.sol\":808:817  _userName */\n      dup2\n        /* \"contracts/ethtest2.sol\":802:825  bytes(_userName).length */\n      mload\n        /* \"contracts/ethtest2.sol\":802:829  bytes(_userName).length > 0 */\n      gt\n        /* \"contracts/ethtest2.sol\":794:858  require(bytes(_userName).length > 0, \"Name should not be empty\") */\n      tag_37\n      jumpi\n      mload(0x40)\n      0x08c379a000000000000000000000000000000000000000000000000000000000\n      dup2\n      mstore\n      0x04\n      add\n      tag_38\n      swap1\n      tag_39\n      jump\t// in\n    tag_38:\n      mload(0x40)\n      dup1\n      swap2\n      sub\n      swap1\n      revert\n    tag_37:\n        /* \"contracts/ethtest2.sol\":878:890  isRegistered */\n      0x01\n        /* \"contracts/ethtest2.sol\":878:902  isRegistered[msg.sender] */\n      0x00\n        /* \"contracts/ethtest2.sol\":891:901  msg.sender */\n      caller\n        /* \"contracts/ethtest2.sol\":878:902  isRegistered[msg.sender] */\n      0xffffffffffffffffffffffffffffffffffffffff\n      and\n      0xffffffffffffffffffffffffffffffffffffffff\n      and\n      dup2\n      mstore\n      0x20\n      add\n      swap1\n      dup2\n      mstore\n      0x20\n      add\n      0x00\n      keccak256\n      0x00\n      swap1\n      sload\n      swap1\n      0x0100\n      exp\n      swap1\n      div\n      0xff\n      and\n        /* \"contracts/ethtest2.sol\":877:902  !isRegistered[msg.sender] */\n      iszero\n        /* \"contracts/ethtest2.sol\":869:936  require(!isRegistered[msg.sender], \"Address is already registered\") */\n      tag_40\n      jumpi\n      mload(0x40)\n      0x08c379a000000000000000000000000000000000000000000000000000000000\n      dup2\n      mstore\n      0x04\n      add\n      tag_41\n      swap1\n      tag_42\n      jump\t// in\n    tag_41:\n      mload(0x40)\n      dup1\n      swap2\n      sub\n      swap1\n      revert\n    tag_40:\n        /* \"contracts/ethtest2.sol\":985:994  _userName */\n      dup1\n        /* \"contracts/ethtest2.sol\":957:970  addressToName */\n      0x00\n        /* \"contracts/ethtest2.sol\":957:982  addressToName[msg.sender] */\n      dup1\n        /* \"contracts/ethtest2.sol\":971:981  msg.sender */\n      caller\n        /* \"contracts/ethtest2.sol\":957:982  addressToName[msg.sender] */\n      0xffffffffffffffffffffffffffffffffffffffff\n      and\n      0xffffffffffffffffffffffffffffffffffffffff\n      and\n      dup2\n      mstore\n      0x20\n      add\n      swap1\n      dup2\n      mstore\n      0x20\n      add\n      0x00\n      keccak256\n        /* \"contracts/ethtest2.sol\":957:994  addressToName[msg.sender] = _userName */\n      swap1\n      dup2\n      tag_43\n      swap2\n      swap1\n      tag_44\n      jump\t// in\n    tag_43:\n      pop\n        /* \"contracts/ethtest2.sol\":1032:1036  true */\n      0x01\n        /* \"contracts/ethtest2.sol\":1005:1017  isRegistered */\n      dup1\n        /* \"contracts/ethtest2.sol\":1005:1029  isRegistered[msg.sender] */\n      0x00\n        /* \"contracts/ethtest2.sol\":1018:1028  msg.sender */\n      caller\n        /* \"contracts/ethtest2.sol\":1005:1029  isRegistered[msg.sender] */\n      0xffffffffffffffffffffffffffffffffffffffff\n      and\n      0xffffffffffffffffffffffffffffffffffffffff\n      and\n      dup2\n      mstore\n      0x20\n      add\n      swap1\n      dup2\n      mstore\n      0x20\n      add\n      0x00\n      keccak256\n      0x00\n        /* \"contracts/ethtest2.sol\":1005:1036  isRegistered[msg.sender] = true */\n      0x0100\n      exp\n      dup2\n      sload\n      dup2\n      0xff\n      mul\n      not\n      and\n      swap1\n      dup4\n      iszero\n      iszero\n      mul\n      or\n      swap1\n      sstore\n      pop\n        /* \"contracts/ethtest2.sol\":1077:1087  msg.sender */\n      caller\n        /* \"contracts/ethtest2.sol\":1062:1099  NameRegistered(msg.sender, _userName) */\n      0xffffffffffffffffffffffffffffffffffffffff\n      and\n      0x56a1a2764a85c689329fbc04f299b64690a26b1dc5ac82e903cf8ad805cd5396\n        /* \"contracts/ethtest2.sol\":1089:1098  _userName */\n      dup3\n        /* \"contracts/ethtest2.sol\":1062:1099  NameRegistered(msg.sender, _userName) */\n      mload(0x40)\n      tag_45\n      swap2\n      swap1\n      tag_22\n      jump\t// in\n    tag_45:\n      mload(0x40)\n      dup1\n      swap2\n      sub\n      swap1\n      log2\n        /* \"contracts/ethtest2.sol\":728:1107  function registerName(string memory _userName) public  {... */\n      pop\n      jump\t// out\n        /* \"contracts/ethtest2.sol\":1153:1595  function deregisterName() public returns (uint) {... */\n    tag_14:\n        /* \"contracts/ethtest2.sol\":1195:1199  uint */\n      0x00\n        /* \"contracts/ethtest2.sol\":1267:1279  isRegistered */\n      0x01\n        /* \"contracts/ethtest2.sol\":1267:1291  isRegistered[msg.sender] */\n      0x00\n        /* \"contracts/ethtest2.sol\":1280:1290  msg.sender */\n      caller\n        /* \"contracts/ethtest2.sol\":1267:1291  isRegistered[msg.sender] */\n      0xffffffffffffffffffffffffffffffffffffffff\n      and\n      0xffffffffffffffffffffffffffffffffffffffff\n      and\n      dup2\n      mstore\n      0x20\n      add\n      swap1\n      dup2\n      mstore\n      0x20\n      add\n      0x00\n      keccak256\n      0x00\n      swap1\n      sload\n      swap1\n      0x0100\n      exp\n      swap1\n      div\n      0xff\n      and\n        /* \"contracts/ethtest2.sol\":1259:1325  require(isRegistered[msg.sender], \"Address is already registered\") */\n      tag_47\n      jumpi\n      mload(0x40)\n      0x08c379a000000000000000000000000000000000000000000000000000000000\n      dup2\n      mstore\n      0x04\n      add\n      tag_48\n      swap1\n      tag_42\n      jump\t// in\n    tag_48:\n      mload(0x40)\n      dup1\n      swap2\n      sub\n      swap1\n      revert\n    tag_47:\n        /* \"contracts/ethtest2.sol\":1431:1435  true */\n      0x01\n        /* \"contracts/ethtest2.sol\":1402:1416  isDeregistered */\n      0x02\n        /* \"contracts/ethtest2.sol\":1402:1428  isDeregistered[msg.sender] */\n      0x00\n        /* \"contracts/ethtest2.sol\":1417:1427  msg.sender */\n      caller\n        /* \"contracts/ethtest2.sol\":1402:1428  isDeregistered[msg.sender] */\n      0xffffffffffffffffffffffffffffffffffffffff\n      and\n      0xffffffffffffffffffffffffffffffffffffffff\n      and\n      dup2\n      mstore\n      0x20\n      add\n      swap1\n      dup2\n      mstore\n      0x20\n      add\n      0x00\n      keccak256\n      0x00\n        /* \"contracts/ethtest2.sol\":1402:1435  isDeregistered[msg.sender] = true */\n      0x0100\n      exp\n      dup2\n      sload\n      dup2\n      0xff\n      mul\n      not\n      and\n      swap1\n      dup4\n      iszero\n      iszero\n      mul\n      or\n      swap1\n      sstore\n      pop\n        /* \"contracts/ethtest2.sol\":1453:1466  addressToName */\n      0x00\n        /* \"contracts/ethtest2.sol\":1453:1478  addressToName[msg.sender] */\n      dup1\n        /* \"contracts/ethtest2.sol\":1467:1477  msg.sender */\n      caller\n        /* \"contracts/ethtest2.sol\":1453:1478  addressToName[msg.sender] */\n      0xffffffffffffffffffffffffffffffffffffffff\n      and\n      0xffffffffffffffffffffffffffffffffffffffff\n      and\n      dup2\n      mstore\n      0x20\n      add\n      swap1\n      dup2\n      mstore\n      0x20\n      add\n      0x00\n      keccak256\n      0x00\n        /* \"contracts/ethtest2.sol\":1446:1478  delete addressToName[msg.sender] */\n      tag_49\n      swap2\n      swap1\n      tag_50\n      jump\t// in\n    tag_49:\n        /* \"contracts/ethtest2.sol\":1513:1523  msg.sender */\n      caller\n        /* \"contracts/ethtest2.sol\":1496:1524  NameDeregistered(msg.sender) */\n      0xffffffffffffffffffffffffffffffffffffffff\n      and\n      0xd535c2e59a2f16f058b1b296bef26cc2579ffc7f69aaf7b53f536943cb6a7543\n      mload(0x40)\n      mload(0x40)\n      dup1\n      swap2\n      sub\n      swap1\n      log2\n        /* \"contracts/ethtest2.sol\":1584:1587  200 */\n      0xc8\n        /* \"contracts/ethtest2.sol\":1577:1587  return 200 */\n      swap1\n      pop\n        /* \"contracts/ethtest2.sol\":1153:1595  function deregisterName() public returns (uint) {... */\n      swap1\n      jump\t// out\n        /* \"contracts/ethtest2.sol\":1675:1912  function getName(address _userAddress) public view returns (string memory) {... */\n    tag_20:\n        /* \"contracts/ethtest2.sol\":1735:1748  string memory */\n      0x60\n        /* \"contracts/ethtest2.sol\":1765:1777  isRegistered */\n      0x01\n        /* \"contracts/ethtest2.sol\":1765:1791  isRegistered[_userAddress] */\n      0x00\n        /* \"contracts/ethtest2.sol\":1778:1790  _userAddress */\n      dup4\n        /* \"contracts/ethtest2.sol\":1765:1791  isRegistered[_userAddress] */\n      0xffffffffffffffffffffffffffffffffffffffff\n      and\n      0xffffffffffffffffffffffffffffffffffffffff\n      and\n      dup2\n      mstore\n      0x20\n      add\n      swap1\n      dup2\n      mstore\n      0x20\n      add\n      0x00\n      keccak256\n      0x00\n      swap1\n      sload\n      swap1\n      0x0100\n      exp\n      swap1\n      div\n      0xff\n      and\n        /* \"contracts/ethtest2.sol\":1761:1905  if (isRegistered[_userAddress]) {... */\n      iszero\n      tag_52\n      jumpi\n        /* \"contracts/ethtest2.sol\":1815:1828  addressToName */\n      0x00\n        /* \"contracts/ethtest2.sol\":1815:1842  addressToName[_userAddress] */\n      dup1\n        /* \"contracts/ethtest2.sol\":1829:1841  _userAddress */\n      dup4\n        /* \"contracts/ethtest2.sol\":1815:1842  addressToName[_userAddress] */\n      0xffffffffffffffffffffffffffffffffffffffff\n      and\n      0xffffffffffffffffffffffffffffffffffffffff\n      and\n      dup2\n      mstore\n      0x20\n      add\n      swap1\n      dup2\n      mstore\n      0x20\n      add\n      0x00\n      keccak256\n        /* \"contracts/ethtest2.sol\":1808:1842  return addressToName[_userAddress] */\n      dup1\n      sload\n      tag_53\n      swap1\n      tag_54\n      jump\t// in\n    tag_53:\n      dup1\n      0x1f\n      add\n      0x20\n      dup1\n      swap2\n      div\n      mul\n      0x20\n      add\n      mload(0x40)\n      swap1\n      dup2\n      add\n      0x40\n      mstore\n      dup1\n      swap3\n      swap2\n      swap1\n      dup2\n      dup2\n      mstore\n      0x20\n      add\n      dup3\n      dup1\n      sload\n      tag_55\n      swap1\n      tag_54\n      jump\t// in\n    tag_55:\n      dup1\n      iszero\n      tag_56\n      jumpi\n      dup1\n      0x1f\n      lt\n      tag_57\n      jumpi\n      0x0100\n      dup1\n      dup4\n      sload\n      div\n      mul\n      dup4\n      mstore\n      swap2\n      0x20\n      add\n      swap2\n      jump(tag_56)\n    tag_57:\n      dup3\n      add\n      swap2\n      swap1\n      0x00\n      mstore\n      keccak256(0x00, 0x20)\n      swap1\n    tag_58:\n      dup2\n      sload\n      dup2\n      mstore\n      swap1\n      0x01\n      add\n      swap1\n      0x20\n      add\n      dup1\n      dup4\n      gt\n      tag_58\n      jumpi\n      dup3\n      swap1\n      sub\n      0x1f\n      and\n      dup3\n      add\n      swap2\n    tag_56:\n      pop\n      pop\n      pop\n      pop\n      pop\n      swap1\n      pop\n      jump(tag_51)\n        /* \"contracts/ethtest2.sol\":1761:1905  if (isRegistered[_userAddress]) {... */\n    tag_52:\n        /* \"contracts/ethtest2.sol\":1875:1893  return \"not found\" */\n      mload(0x40)\n      dup1\n      0x40\n      add\n      0x40\n      mstore\n      dup1\n      0x09\n      dup2\n      mstore\n      0x20\n      add\n      0x6e6f7420666f756e640000000000000000000000000000000000000000000000\n      dup2\n      mstore\n      pop\n      swap1\n      pop\n        /* \"contracts/ethtest2.sol\":1675:1912  function getName(address _userAddress) public view returns (string memory) {... */\n    tag_51:\n      swap2\n      swap1\n      pop\n      jump\t// out\n        /* \"contracts/ethtest2.sol\":406:452  mapping(address => bool) public isDeregistered */\n    tag_25:\n      mstore(0x20, 0x02)\n      dup1\n      0x00\n      mstore\n      keccak256(0x00, 0x40)\n      0x00\n      swap2\n      pop\n      sload\n      swap1\n      0x0100\n      exp\n      swap1\n      div\n      0xff\n      and\n      dup2\n      jump\t// out\n        /* \"contracts/ethtest2.sol\":292:336  mapping(address => bool) public isRegistered */\n    tag_30:\n      mstore(0x20, 0x01)\n      dup1\n      0x00\n      mstore\n      keccak256(0x00, 0x40)\n      0x00\n      swap2\n      pop\n      sload\n      swap1\n      0x0100\n      exp\n      swap1\n      div\n      0xff\n      and\n      dup2\n      jump\t// out\n        /* \"contracts/ethtest2.sol\":167:214  mapping(address => string) public addressToName */\n    tag_34:\n      mstore(0x20, 0x00)\n      dup1\n      0x00\n      mstore\n      keccak256(0x00, 0x40)\n      0x00\n      swap2\n      pop\n      swap1\n      pop\n      dup1\n      sload\n      tag_60\n      swap1\n      tag_54\n      jump\t// in\n    tag_60:\n      dup1\n      0x1f\n      add\n      0x20\n      dup1\n      swap2\n      div\n      mul\n      0x20\n      add\n      mload(0x40)\n      swap1\n      dup2\n      add\n      0x40\n      mstore\n      dup1\n      swap3\n      swap2\n      swap1\n      dup2\n      dup2\n      mstore\n      0x20\n      add\n      dup3\n      dup1\n      sload\n      tag_61\n      swap1\n      tag_54\n      jump\t// in\n    tag_61:\n      dup1\n      iszero\n      tag_62\n      jumpi\n      dup1\n      0x1f\n      lt\n      tag_63\n      jumpi\n      0x0100\n      dup1\n      dup4\n      sload\n      div\n      mul\n      dup4\n      mstore\n      swap2\n      0x20\n      add\n      swap2\n      jump(tag_62)\n    tag_63:\n      dup3\n      add\n      swap2\n      swap1\n      0x00\n      mstore\n      keccak256(0x00, 0x20)\n      swap1\n    tag_64:\n      dup2\n      sload\n      dup2\n      mstore\n      swap1\n      0x01\n      add\n      swap1\n      0x20\n      add\n      dup1\n      dup4\n      gt\n      tag_64\n      jumpi\n      dup3\n      swap1\n      sub\n      0x1f\n      and\n      dup3\n      add\n      swap2\n    tag_62:\n      pop\n      pop\n      pop\n      pop\n      pop\n      dup2\n      jump\t// out\n    tag_50:\n      pop\n      dup1\n      sload\n      tag_65\n      swap1\n      tag_54\n      jump\t// in\n    tag_65:\n      0x00\n      dup3\n      sstore\n      dup1\n      0x1f\n      lt\n      tag_67\n      jumpi\n      pop\n      jump(tag_66)\n    tag_67:\n      0x1f\n      add\n      0x20\n      swap1\n      div\n      swap1\n      0x00\n      mstore\n      keccak256(0x00, 0x20)\n      swap1\n      dup2\n      add\n      swap1\n      tag_68\n      swap2\n      swap1\n      tag_69\n      jump\t// in\n    tag_68:\n    tag_66:\n      pop\n      jump\t// out\n    tag_69:\n    tag_70:\n      dup1\n      dup3\n      gt\n      iszero\n      tag_71\n      jumpi\n      0x00\n      dup2\n      0x00\n      swap1\n      sstore\n      pop\n      0x01\n      add\n      jump(tag_70)\n    tag_71:\n      pop\n      swap1\n      jump\t// out\n        /* \"#utility.yul\":7:82   */\n    tag_72:\n        /* \"#utility.yul\":40:46   */\n      0x00\n        /* \"#utility.yul\":73:75   */\n      0x40\n        /* \"#utility.yul\":67:76   */\n      mload\n        /* \"#utility.yul\":57:76   */\n      swap1\n      pop\n        /* \"#utility.yul\":7:82   */\n      swap1\n      jump\t// out\n        /* \"#utility.yul\":88:205   */\n    tag_73:\n        /* \"#utility.yul\":197:198   */\n      0x00\n        /* \"#utility.yul\":194:195   */\n      dup1\n        /* \"#utility.yul\":187:199   */\n      revert\n        /* \"#utility.yul\":211:328   */\n    tag_74:\n        /* \"#utility.yul\":320:321   */\n      0x00\n        /* \"#utility.yul\":317:318   */\n      dup1\n        /* \"#utility.yul\":310:322   */\n      revert\n        /* \"#utility.yul\":334:451   */\n    tag_75:\n        /* \"#utility.yul\":443:444   */\n      0x00\n        /* \"#utility.yul\":440:441   */\n      dup1\n        /* \"#utility.yul\":433:445   */\n      revert\n        /* \"#utility.yul\":457:574   */\n    tag_76:\n        /* \"#utility.yul\":566:567   */\n      0x00\n        /* \"#utility.yul\":563:564   */\n      dup1\n        /* \"#utility.yul\":556:568   */\n      revert\n        /* \"#utility.yul\":580:682   */\n    tag_77:\n        /* \"#utility.yul\":621:627   */\n      0x00\n        /* \"#utility.yul\":672:674   */\n      0x1f\n        /* \"#utility.yul\":668:675   */\n      not\n        /* \"#utility.yul\":663:665   */\n      0x1f\n        /* \"#utility.yul\":656:661   */\n      dup4\n        /* \"#utility.yul\":652:666   */\n      add\n        /* \"#utility.yul\":648:676   */\n      and\n        /* \"#utility.yul\":638:676   */\n      swap1\n      pop\n        /* \"#utility.yul\":580:682   */\n      swap2\n      swap1\n      pop\n      jump\t// out\n        /* \"#utility.yul\":688:868   */\n    tag_78:\n        /* \"#utility.yul\":736:813   */\n      0x4e487b7100000000000000000000000000000000000000000000000000000000\n        /* \"#utility.yul\":733:734   */\n      0x00\n        /* \"#utility.yul\":726:814   */\n      mstore\n        /* \"#utility.yul\":833:837   */\n      0x41\n        /* \"#utility.yul\":830:831   */\n      0x04\n        /* \"#utility.yul\":823:838   */\n      mstore\n        /* \"#utility.yul\":857:861   */\n      0x24\n        /* \"#utility.yul\":854:855   */\n      0x00\n        /* \"#utility.yul\":847:862   */\n      revert\n        /* \"#utility.yul\":874:1155   */\n    tag_79:\n        /* \"#utility.yul\":957:984   */\n      tag_126\n        /* \"#utility.yul\":979:983   */\n      dup3\n        /* \"#utility.yul\":957:984   */\n      tag_77\n      jump\t// in\n    tag_126:\n        /* \"#utility.yul\":949:955   */\n      dup2\n        /* \"#utility.yul\":945:985   */\n      add\n        /* \"#utility.yul\":1087:1093   */\n      dup2\n        /* \"#utility.yul\":1075:1085   */\n      dup2\n        /* \"#utility.yul\":1072:1094   */\n      lt\n        /* \"#utility.yul\":1051:1069   */\n      0xffffffffffffffff\n        /* \"#utility.yul\":1039:1049   */\n      dup3\n        /* \"#utility.yul\":1036:1070   */\n      gt\n        /* \"#utility.yul\":1033:1095   */\n      or\n        /* \"#utility.yul\":1030:1118   */\n      iszero\n      tag_127\n      jumpi\n        /* \"#utility.yul\":1098:1116   */\n      tag_128\n      tag_78\n      jump\t// in\n    tag_128:\n        /* \"#utility.yul\":1030:1118   */\n    tag_127:\n        /* \"#utility.yul\":1138:1148   */\n      dup1\n        /* \"#utility.yul\":1134:1136   */\n      0x40\n        /* \"#utility.yul\":1127:1149   */\n      mstore\n        /* \"#utility.yul\":917:1155   */\n      pop\n        /* \"#utility.yul\":874:1155   */\n      pop\n      pop\n      jump\t// out\n        /* \"#utility.yul\":1161:1290   */\n    tag_80:\n        /* \"#utility.yul\":1195:1201   */\n      0x00\n        /* \"#utility.yul\":1222:1242   */\n      tag_130\n      tag_72\n      jump\t// in\n    tag_130:\n        /* \"#utility.yul\":1212:1242   */\n      swap1\n      pop\n        /* \"#utility.yul\":1251:1284   */\n      tag_131\n        /* \"#utility.yul\":1279:1283   */\n      dup3\n        /* \"#utility.yul\":1271:1277   */\n      dup3\n        /* \"#utility.yul\":1251:1284   */\n      tag_79\n      jump\t// in\n    tag_131:\n        /* \"#utility.yul\":1161:1290   */\n      swap2\n      swap1\n      pop\n      jump\t// out\n        /* \"#utility.yul\":1296:1604   */\n    tag_81:\n        /* \"#utility.yul\":1358:1362   */\n      0x00\n        /* \"#utility.yul\":1448:1466   */\n      0xffffffffffffffff\n        /* \"#utility.yul\":1440:1446   */\n      dup3\n        /* \"#utility.yul\":1437:1467   */\n      gt\n        /* \"#utility.yul\":1434:1490   */\n      iszero\n      tag_133\n      jumpi\n        /* \"#utility.yul\":1470:1488   */\n      tag_134\n      tag_78\n      jump\t// in\n    tag_134:\n        /* \"#utility.yul\":1434:1490   */\n    tag_133:\n        /* \"#utility.yul\":1508:1537   */\n      tag_135\n        /* \"#utility.yul\":1530:1536   */\n      dup3\n        /* \"#utility.yul\":1508:1537   */\n      tag_77\n      jump\t// in\n    tag_135:\n        /* \"#utility.yul\":1500:1537   */\n      swap1\n      pop\n        /* \"#utility.yul\":1592:1596   */\n      0x20\n        /* \"#utility.yul\":1586:1590   */\n      dup2\n        /* \"#utility.yul\":1582:1597   */\n      add\n        /* \"#utility.yul\":1574:1597   */\n      swap1\n      pop\n        /* \"#utility.yul\":1296:1604   */\n      swap2\n      swap1\n      pop\n      jump\t// out\n        /* \"#utility.yul\":1610:1756   */\n    tag_82:\n        /* \"#utility.yul\":1707:1713   */\n      dup3\n        /* \"#utility.yul\":1702:1705   */\n      dup2\n        /* \"#utility.yul\":1697:1700   */\n      dup4\n        /* \"#utility.yul\":1684:1714   */\n      calldatacopy\n        /* \"#utility.yul\":1748:1749   */\n      0x00\n        /* \"#utility.yul\":1739:1745   */\n      dup4\n        /* \"#utility.yul\":1734:1737   */\n      dup4\n        /* \"#utility.yul\":1730:1746   */\n      add\n        /* \"#utility.yul\":1723:1750   */\n      mstore\n        /* \"#utility.yul\":1610:1756   */\n      pop\n      pop\n      pop\n      jump\t// out\n        /* \"#utility.yul\":1762:2187   */\n    tag_83:\n        /* \"#utility.yul\":1840:1845   */\n      0x00\n        /* \"#utility.yul\":1865:1931   */\n      tag_138\n        /* \"#utility.yul\":1881:1930   */\n      tag_139\n        /* \"#utility.yul\":1923:1929   */\n      dup5\n        /* \"#utility.yul\":1881:1930   */\n      tag_81\n      jump\t// in\n    tag_139:\n        /* \"#utility.yul\":1865:1931   */\n      tag_80\n      jump\t// in\n    tag_138:\n        /* \"#utility.yul\":1856:1931   */\n      swap1\n      pop\n        /* \"#utility.yul\":1954:1960   */\n      dup3\n        /* \"#utility.yul\":1947:1952   */\n      dup2\n        /* \"#utility.yul\":1940:1961   */\n      mstore\n        /* \"#utility.yul\":1992:1996   */\n      0x20\n        /* \"#utility.yul\":1985:1990   */\n      dup2\n        /* \"#utility.yul\":1981:1997   */\n      add\n        /* \"#utility.yul\":2030:2033   */\n      dup5\n        /* \"#utility.yul\":2021:2027   */\n      dup5\n        /* \"#utility.yul\":2016:2019   */\n      dup5\n        /* \"#utility.yul\":2012:2028   */\n      add\n        /* \"#utility.yul\":2009:2034   */\n      gt\n        /* \"#utility.yul\":2006:2118   */\n      iszero\n      tag_140\n      jumpi\n        /* \"#utility.yul\":2037:2116   */\n      tag_141\n      tag_76\n      jump\t// in\n    tag_141:\n        /* \"#utility.yul\":2006:2118   */\n    tag_140:\n        /* \"#utility.yul\":2127:2181   */\n      tag_142\n        /* \"#utility.yul\":2174:2180   */\n      dup5\n        /* \"#utility.yul\":2169:2172   */\n      dup3\n        /* \"#utility.yul\":2164:2167   */\n      dup6\n        /* \"#utility.yul\":2127:2181   */\n      tag_82\n      jump\t// in\n    tag_142:\n        /* \"#utility.yul\":1846:2187   */\n      pop\n        /* \"#utility.yul\":1762:2187   */\n      swap4\n      swap3\n      pop\n      pop\n      pop\n      jump\t// out\n        /* \"#utility.yul\":2207:2547   */\n    tag_84:\n        /* \"#utility.yul\":2263:2268   */\n      0x00\n        /* \"#utility.yul\":2312:2315   */\n      dup3\n        /* \"#utility.yul\":2305:2309   */\n      0x1f\n        /* \"#utility.yul\":2297:2303   */\n      dup4\n        /* \"#utility.yul\":2293:2310   */\n      add\n        /* \"#utility.yul\":2289:2316   */\n      slt\n        /* \"#utility.yul\":2279:2401   */\n      tag_144\n      jumpi\n        /* \"#utility.yul\":2320:2399   */\n      tag_145\n      tag_75\n      jump\t// in\n    tag_145:\n        /* \"#utility.yul\":2279:2401   */\n    tag_144:\n        /* \"#utility.yul\":2437:2443   */\n      dup2\n        /* \"#utility.yul\":2424:2444   */\n      calldataload\n        /* \"#utility.yul\":2462:2541   */\n      tag_146\n        /* \"#utility.yul\":2537:2540   */\n      dup5\n        /* \"#utility.yul\":2529:2535   */\n      dup3\n        /* \"#utility.yul\":2522:2526   */\n      0x20\n        /* \"#utility.yul\":2514:2520   */\n      dup7\n        /* \"#utility.yul\":2510:2527   */\n      add\n        /* \"#utility.yul\":2462:2541   */\n      tag_83\n      jump\t// in\n    tag_146:\n        /* \"#utility.yul\":2453:2541   */\n      swap2\n      pop\n        /* \"#utility.yul\":2269:2547   */\n      pop\n        /* \"#utility.yul\":2207:2547   */\n      swap3\n      swap2\n      pop\n      pop\n      jump\t// out\n        /* \"#utility.yul\":2553:3062   */\n    tag_11:\n        /* \"#utility.yul\":2622:2628   */\n      0x00\n        /* \"#utility.yul\":2671:2673   */\n      0x20\n        /* \"#utility.yul\":2659:2668   */\n      dup3\n        /* \"#utility.yul\":2650:2657   */\n      dup5\n        /* \"#utility.yul\":2646:2669   */\n      sub\n        /* \"#utility.yul\":2642:2674   */\n      slt\n        /* \"#utility.yul\":2639:2758   */\n      iszero\n      tag_148\n      jumpi\n        /* \"#utility.yul\":2677:2756   */\n      tag_149\n      tag_73\n      jump\t// in\n    tag_149:\n        /* \"#utility.yul\":2639:2758   */\n    tag_148:\n        /* \"#utility.yul\":2825:2826   */\n      0x00\n        /* \"#utility.yul\":2814:2823   */\n      dup3\n        /* \"#utility.yul\":2810:2827   */\n      add\n        /* \"#utility.yul\":2797:2828   */\n      calldataload\n        /* \"#utility.yul\":2855:2873   */\n      0xffffffffffffffff\n        /* \"#utility.yul\":2847:2853   */\n      dup2\n        /* \"#utility.yul\":2844:2874   */\n      gt\n        /* \"#utility.yul\":2841:2958   */\n      iszero\n      tag_150\n      jumpi\n        /* \"#utility.yul\":2877:2956   */\n      tag_151\n      tag_74\n      jump\t// in\n    tag_151:\n        /* \"#utility.yul\":2841:2958   */\n    tag_150:\n        /* \"#utility.yul\":2982:3045   */\n      tag_152\n        /* \"#utility.yul\":3037:3044   */\n      dup5\n        /* \"#utility.yul\":3028:3034   */\n      dup3\n        /* \"#utility.yul\":3017:3026   */\n      dup6\n        /* \"#utility.yul\":3013:3035   */\n      add\n        /* \"#utility.yul\":2982:3045   */\n      tag_84\n      jump\t// in\n    tag_152:\n        /* \"#utility.yul\":2972:3045   */\n      swap2\n      pop\n        /* \"#utility.yul\":2768:3055   */\n      pop\n        /* \"#utility.yul\":2553:3062   */\n      swap3\n      swap2\n      pop\n      pop\n      jump\t// out\n        /* \"#utility.yul\":3068:3145   */\n    tag_85:\n        /* \"#utility.yul\":3105:3112   */\n      0x00\n        /* \"#utility.yul\":3134:3139   */\n      dup2\n        /* \"#utility.yul\":3123:3139   */\n      swap1\n      pop\n        /* \"#utility.yul\":3068:3145   */\n      swap2\n      swap1\n      pop\n      jump\t// out\n        /* \"#utility.yul\":3151:3269   */\n    tag_86:\n        /* \"#utility.yul\":3238:3262   */\n      tag_155\n        /* \"#utility.yul\":3256:3261   */\n      dup2\n        /* \"#utility.yul\":3238:3262   */\n      tag_85\n      jump\t// in\n    tag_155:\n        /* \"#utility.yul\":3233:3236   */\n      dup3\n        /* \"#utility.yul\":3226:3263   */\n      mstore\n        /* \"#utility.yul\":3151:3269   */\n      pop\n      pop\n      jump\t// out\n        /* \"#utility.yul\":3275:3497   */\n    tag_16:\n        /* \"#utility.yul\":3368:3372   */\n      0x00\n        /* \"#utility.yul\":3406:3408   */\n      0x20\n        /* \"#utility.yul\":3395:3404   */\n      dup3\n        /* \"#utility.yul\":3391:3409   */\n      add\n        /* \"#utility.yul\":3383:3409   */\n      swap1\n      pop\n        /* \"#utility.yul\":3419:3490   */\n      tag_157\n        /* \"#utility.yul\":3487:3488   */\n      0x00\n        /* \"#utility.yul\":3476:3485   */\n      dup4\n        /* \"#utility.yul\":3472:3489   */\n      add\n        /* \"#utility.yul\":3463:3469   */\n      dup5\n        /* \"#utility.yul\":3419:3490   */\n      tag_86\n      jump\t// in\n    tag_157:\n        /* \"#utility.yul\":3275:3497   */\n      swap3\n      swap2\n      pop\n      pop\n      jump\t// out\n        /* \"#utility.yul\":3503:3629   */\n    tag_87:\n        /* \"#utility.yul\":3540:3547   */\n      0x00\n        /* \"#utility.yul\":3580:3622   */\n      0xffffffffffffffffffffffffffffffffffffffff\n        /* \"#utility.yul\":3573:3578   */\n      dup3\n        /* \"#utility.yul\":3569:3623   */\n      and\n        /* \"#utility.yul\":3558:3623   */\n      swap1\n      pop\n        /* \"#utility.yul\":3503:3629   */\n      swap2\n      swap1\n      pop\n      jump\t// out\n        /* \"#utility.yul\":3635:3731   */\n    tag_88:\n        /* \"#utility.yul\":3672:3679   */\n      0x00\n        /* \"#utility.yul\":3701:3725   */\n      tag_160\n        /* \"#utility.yul\":3719:3724   */\n      dup3\n        /* \"#utility.yul\":3701:3725   */\n      tag_87\n      jump\t// in\n    tag_160:\n        /* \"#utility.yul\":3690:3725   */\n      swap1\n      pop\n        /* \"#utility.yul\":3635:3731   */\n      swap2\n      swap1\n      pop\n      jump\t// out\n        /* \"#utility.yul\":3737:3859   */\n    tag_89:\n        /* \"#utility.yul\":3810:3834   */\n      tag_162\n        /* \"#utility.yul\":3828:3833   */\n      dup2\n        /* \"#utility.yul\":3810:3834   */\n      tag_88\n      jump\t// in\n    tag_162:\n        /* \"#utility.yul\":3803:3808   */\n      dup2\n        /* \"#utility.yul\":3800:3835   */\n      eq\n        /* \"#utility.yul\":3790:3853   */\n      tag_163\n      jumpi\n        /* \"#utility.yul\":3849:3850   */\n      0x00\n        /* \"#utility.yul\":3846:3847   */\n      dup1\n        /* \"#utility.yul\":3839:3851   */\n      revert\n        /* \"#utility.yul\":3790:3853   */\n    tag_163:\n        /* \"#utility.yul\":3737:3859   */\n      pop\n      jump\t// out\n        /* \"#utility.yul\":3865:4004   */\n    tag_90:\n        /* \"#utility.yul\":3911:3916   */\n      0x00\n        /* \"#utility.yul\":3949:3955   */\n      dup2\n        /* \"#utility.yul\":3936:3956   */\n      calldataload\n        /* \"#utility.yul\":3927:3956   */\n      swap1\n      pop\n        /* \"#utility.yul\":3965:3998   */\n      tag_165\n        /* \"#utility.yul\":3992:3997   */\n      dup2\n        /* \"#utility.yul\":3965:3998   */\n      tag_89\n      jump\t// in\n    tag_165:\n        /* \"#utility.yul\":3865:4004   */\n      swap3\n      swap2\n      pop\n      pop\n      jump\t// out\n        /* \"#utility.yul\":4010:4339   */\n    tag_19:\n        /* \"#utility.yul\":4069:4075   */\n      0x00\n        /* \"#utility.yul\":4118:4120   */\n      0x20\n        /* \"#utility.yul\":4106:4115   */\n      dup3\n        /* \"#utility.yul\":4097:4104   */\n      dup5\n        /* \"#utility.yul\":4093:4116   */\n      sub\n        /* \"#utility.yul\":4089:4121   */\n      slt\n        /* \"#utility.yul\":4086:4205   */\n      iszero\n      tag_167\n      jumpi\n        /* \"#utility.yul\":4124:4203   */\n      tag_168\n      tag_73\n      jump\t// in\n    tag_168:\n        /* \"#utility.yul\":4086:4205   */\n    tag_167:\n        /* \"#utility.yul\":4244:4245   */\n      0x00\n        /* \"#utility.yul\":4269:4322   */\n      tag_169\n        /* \"#utility.yul\":4314:4321   */\n      dup5\n        /* \"#utility.yul\":4305:4311   */\n      dup3\n        /* \"#utility.yul\":4294:4303   */\n      dup6\n        /* \"#utility.yul\":4290:4312   */\n      add\n        /* \"#utility.yul\":4269:4322   */\n      tag_90\n      jump\t// in\n    tag_169:\n        /* \"#utility.yul\":4259:4322   */\n      swap2\n      pop\n        /* \"#utility.yul\":4215:4332   */\n      pop\n        /* \"#utility.yul\":4010:4339   */\n      swap3\n      swap2\n      pop\n      pop\n      jump\t// out\n        /* \"#utility.yul\":4345:4444   */\n    tag_91:\n        /* \"#utility.yul\":4397:4403   */\n      0x00\n        /* \"#utility.yul\":4431:4436   */\n      dup2\n        /* \"#utility.yul\":4425:4437   */\n      mload\n        /* \"#utility.yul\":4415:4437   */\n      swap1\n      pop\n        /* \"#utility.yul\":4345:4444   */\n      swap2\n      swap1\n      pop\n      jump\t// out\n        /* \"#utility.yul\":4450:4619   */\n    tag_92:\n        /* \"#utility.yul\":4534:4545   */\n      0x00\n        /* \"#utility.yul\":4568:4574   */\n      dup3\n        /* \"#utility.yul\":4563:4566   */\n      dup3\n        /* \"#utility.yul\":4556:4575   */\n      mstore\n        /* \"#utility.yul\":4608:4612   */\n      0x20\n        /* \"#utility.yul\":4603:4606   */\n      dup3\n        /* \"#utility.yul\":4599:4613   */\n      add\n        /* \"#utility.yul\":4584:4613   */\n      swap1\n      pop\n        /* \"#utility.yul\":4450:4619   */\n      swap3\n      swap2\n      pop\n      pop\n      jump\t// out\n        /* \"#utility.yul\":4625:4871   */\n    tag_93:\n        /* \"#utility.yul\":4706:4707   */\n      0x00\n        /* \"#utility.yul\":4716:4829   */\n    tag_173:\n        /* \"#utility.yul\":4730:4736   */\n      dup4\n        /* \"#utility.yul\":4727:4728   */\n      dup2\n        /* \"#utility.yul\":4724:4737   */\n      lt\n        /* \"#utility.yul\":4716:4829   */\n      iszero\n      tag_175\n      jumpi\n        /* \"#utility.yul\":4815:4816   */\n      dup1\n        /* \"#utility.yul\":4810:4813   */\n      dup3\n        /* \"#utility.yul\":4806:4817   */\n      add\n        /* \"#utility.yul\":4800:4818   */\n      mload\n        /* \"#utility.yul\":4796:4797   */\n      dup2\n        /* \"#utility.yul\":4791:4794   */\n      dup5\n        /* \"#utility.yul\":4787:4798   */\n      add\n        /* \"#utility.yul\":4780:4819   */\n      mstore\n        /* \"#utility.yul\":4752:4754   */\n      0x20\n        /* \"#utility.yul\":4749:4750   */\n      dup2\n        /* \"#utility.yul\":4745:4755   */\n      add\n        /* \"#utility.yul\":4740:4755   */\n      swap1\n      pop\n        /* \"#utility.yul\":4716:4829   */\n      jump(tag_173)\n    tag_175:\n        /* \"#utility.yul\":4863:4864   */\n      0x00\n        /* \"#utility.yul\":4854:4860   */\n      dup5\n        /* \"#utility.yul\":4849:4852   */\n      dup5\n        /* \"#utility.yul\":4845:4861   */\n      add\n        /* \"#utility.yul\":4838:4865   */\n      mstore\n        /* \"#utility.yul\":4687:4871   */\n      pop\n        /* \"#utility.yul\":4625:4871   */\n      pop\n      pop\n      pop\n      jump\t// out\n        /* \"#utility.yul\":4877:5254   */\n    tag_94:\n        /* \"#utility.yul\":4965:4968   */\n      0x00\n        /* \"#utility.yul\":4993:5032   */\n      tag_177\n        /* \"#utility.yul\":5026:5031   */\n      dup3\n        /* \"#utility.yul\":4993:5032   */\n      tag_91\n      jump\t// in\n    tag_177:\n        /* \"#utility.yul\":5048:5119   */\n      tag_178\n        /* \"#utility.yul\":5112:5118   */\n      dup2\n        /* \"#utility.yul\":5107:5110   */\n      dup6\n        /* \"#utility.yul\":5048:5119   */\n      tag_92\n      jump\t// in\n    tag_178:\n        /* \"#utility.yul\":5041:5119   */\n      swap4\n      pop\n        /* \"#utility.yul\":5128:5193   */\n      tag_179\n        /* \"#utility.yul\":5186:5192   */\n      dup2\n        /* \"#utility.yul\":5181:5184   */\n      dup6\n        /* \"#utility.yul\":5174:5178   */\n      0x20\n        /* \"#utility.yul\":5167:5172   */\n      dup7\n        /* \"#utility.yul\":5163:5179   */\n      add\n        /* \"#utility.yul\":5128:5193   */\n      tag_93\n      jump\t// in\n    tag_179:\n        /* \"#utility.yul\":5218:5247   */\n      tag_180\n        /* \"#utility.yul\":5240:5246   */\n      dup2\n        /* \"#utility.yul\":5218:5247   */\n      tag_77\n      jump\t// in\n    tag_180:\n        /* \"#utility.yul\":5213:5216   */\n      dup5\n        /* \"#utility.yul\":5209:5248   */\n      add\n        /* \"#utility.yul\":5202:5248   */\n      swap2\n      pop\n        /* \"#utility.yul\":4969:5254   */\n      pop\n        /* \"#utility.yul\":4877:5254   */\n      swap3\n      swap2\n      pop\n      pop\n      jump\t// out\n        /* \"#utility.yul\":5260:5573   */\n    tag_22:\n        /* \"#utility.yul\":5373:5377   */\n      0x00\n        /* \"#utility.yul\":5411:5413   */\n      0x20\n        /* \"#utility.yul\":5400:5409   */\n      dup3\n        /* \"#utility.yul\":5396:5414   */\n      add\n        /* \"#utility.yul\":5388:5414   */\n      swap1\n      pop\n        /* \"#utility.yul\":5460:5469   */\n      dup2\n        /* \"#utility.yul\":5454:5458   */\n      dup2\n        /* \"#utility.yul\":5450:5470   */\n      sub\n        /* \"#utility.yul\":5446:5447   */\n      0x00\n        /* \"#utility.yul\":5435:5444   */\n      dup4\n        /* \"#utility.yul\":5431:5448   */\n      add\n        /* \"#utility.yul\":5424:5471   */\n      mstore\n        /* \"#utility.yul\":5488:5566   */\n      tag_182\n        /* \"#utility.yul\":5561:5565   */\n      dup2\n        /* \"#utility.yul\":5552:5558   */\n      dup5\n        /* \"#utility.yul\":5488:5566   */\n      tag_94\n      jump\t// in\n    tag_182:\n        /* \"#utility.yul\":5480:5566   */\n      swap1\n      pop\n        /* \"#utility.yul\":5260:5573   */\n      swap3\n      swap2\n      pop\n      pop\n      jump\t// out\n        /* \"#utility.yul\":5579:5669   */\n    tag_95:\n        /* \"#utility.yul\":5613:5620   */\n      0x00\n        /* \"#utility.yul\":5656:5661   */\n      dup2\n        /* \"#utility.yul\":5649:5662   */\n      iszero\n        /* \"#utility.yul\":5642:5663   */\n      iszero\n        /* \"#utility.yul\":5631:5663   */\n      swap1\n      pop\n        /* \"#utility.yul\":5579:5669   */\n      swap2\n      swap1\n      pop\n      jump\t// out\n        /* \"#utility.yul\":5675:5784   */\n    tag_96:\n        /* \"#utility.yul\":5756:5777   */\n      tag_185\n        /* \"#utility.yul\":5771:5776   */\n      dup2\n        /* \"#utility.yul\":5756:5777   */\n      tag_95\n      jump\t// in\n    tag_185:\n        /* \"#utility.yul\":5751:5754   */\n      dup3\n        /* \"#utility.yul\":5744:5778   */\n      mstore\n        /* \"#utility.yul\":5675:5784   */\n      pop\n      pop\n      jump\t// out\n        /* \"#utility.yul\":5790:6000   */\n    tag_27:\n        /* \"#utility.yul\":5877:5881   */\n      0x00\n        /* \"#utility.yul\":5915:5917   */\n      0x20\n        /* \"#utility.yul\":5904:5913   */\n      dup3\n        /* \"#utility.yul\":5900:5918   */\n      add\n        /* \"#utility.yul\":5892:5918   */\n      swap1\n      pop\n        /* \"#utility.yul\":5928:5993   */\n      tag_187\n        /* \"#utility.yul\":5990:5991   */\n      0x00\n        /* \"#utility.yul\":5979:5988   */\n      dup4\n        /* \"#utility.yul\":5975:5992   */\n      add\n        /* \"#utility.yul\":5966:5972   */\n      dup5\n        /* \"#utility.yul\":5928:5993   */\n      tag_96\n      jump\t// in\n    tag_187:\n        /* \"#utility.yul\":5790:6000   */\n      swap3\n      swap2\n      pop\n      pop\n      jump\t// out\n        /* \"#utility.yul\":6006:6180   */\n    tag_97:\n        /* \"#utility.yul\":6146:6172   */\n      0x4e616d652073686f756c64206e6f7420626520656d7074790000000000000000\n        /* \"#utility.yul\":6142:6143   */\n      0x00\n        /* \"#utility.yul\":6134:6140   */\n      dup3\n        /* \"#utility.yul\":6130:6144   */\n      add\n        /* \"#utility.yul\":6123:6173   */\n      mstore\n        /* \"#utility.yul\":6006:6180   */\n      pop\n      jump\t// out\n        /* \"#utility.yul\":6186:6552   */\n    tag_98:\n        /* \"#utility.yul\":6328:6331   */\n      0x00\n        /* \"#utility.yul\":6349:6416   */\n      tag_190\n        /* \"#utility.yul\":6413:6415   */\n      0x18\n        /* \"#utility.yul\":6408:6411   */\n      dup4\n        /* \"#utility.yul\":6349:6416   */\n      tag_92\n      jump\t// in\n    tag_190:\n        /* \"#utility.yul\":6342:6416   */\n      swap2\n      pop\n        /* \"#utility.yul\":6425:6518   */\n      tag_191\n        /* \"#utility.yul\":6514:6517   */\n      dup3\n        /* \"#utility.yul\":6425:6518   */\n      tag_97\n      jump\t// in\n    tag_191:\n        /* \"#utility.yul\":6543:6545   */\n      0x20\n        /* \"#utility.yul\":6538:6541   */\n      dup3\n        /* \"#utility.yul\":6534:6546   */\n      add\n        /* \"#utility.yul\":6527:6546   */\n      swap1\n      pop\n        /* \"#utility.yul\":6186:6552   */\n      swap2\n      swap1\n      pop\n      jump\t// out\n        /* \"#utility.yul\":6558:6977   */\n    tag_39:\n        /* \"#utility.yul\":6724:6728   */\n      0x00\n        /* \"#utility.yul\":6762:6764   */\n      0x20\n        /* \"#utility.yul\":6751:6760   */\n      dup3\n        /* \"#utility.yul\":6747:6765   */\n      add\n        /* \"#utility.yul\":6739:6765   */\n      swap1\n      pop\n        /* \"#utility.yul\":6811:6820   */\n      dup2\n        /* \"#utility.yul\":6805:6809   */\n      dup2\n        /* \"#utility.yul\":6801:6821   */\n      sub\n        /* \"#utility.yul\":6797:6798   */\n      0x00\n        /* \"#utility.yul\":6786:6795   */\n      dup4\n        /* \"#utility.yul\":6782:6799   */\n      add\n        /* \"#utility.yul\":6775:6822   */\n      mstore\n        /* \"#utility.yul\":6839:6970   */\n      tag_193\n        /* \"#utility.yul\":6965:6969   */\n      dup2\n        /* \"#utility.yul\":6839:6970   */\n      tag_98\n      jump\t// in\n    tag_193:\n        /* \"#utility.yul\":6831:6970   */\n      swap1\n      pop\n        /* \"#utility.yul\":6558:6977   */\n      swap2\n      swap1\n      pop\n      jump\t// out\n        /* \"#utility.yul\":6983:7162   */\n    tag_99:\n        /* \"#utility.yul\":7123:7154   */\n      0x4164647265737320697320616c72656164792072656769737465726564000000\n        /* \"#utility.yul\":7119:7120   */\n      0x00\n        /* \"#utility.yul\":7111:7117   */\n      dup3\n        /* \"#utility.yul\":7107:7121   */\n      add\n        /* \"#utility.yul\":7100:7155   */\n      mstore\n        /* \"#utility.yul\":6983:7162   */\n      pop\n      jump\t// out\n        /* \"#utility.yul\":7168:7534   */\n    tag_100:\n        /* \"#utility.yul\":7310:7313   */\n      0x00\n        /* \"#utility.yul\":7331:7398   */\n      tag_196\n        /* \"#utility.yul\":7395:7397   */\n      0x1d\n        /* \"#utility.yul\":7390:7393   */\n      dup4\n        /* \"#utility.yul\":7331:7398   */\n      tag_92\n      jump\t// in\n    tag_196:\n        /* \"#utility.yul\":7324:7398   */\n      swap2\n      pop\n        /* \"#utility.yul\":7407:7500   */\n      tag_197\n        /* \"#utility.yul\":7496:7499   */\n      dup3\n        /* \"#utility.yul\":7407:7500   */\n      tag_99\n      jump\t// in\n    tag_197:\n        /* \"#utility.yul\":7525:7527   */\n      0x20\n        /* \"#utility.yul\":7520:7523   */\n      dup3\n        /* \"#utility.yul\":7516:7528   */\n      add\n        /* \"#utility.yul\":7509:7528   */\n      swap1\n      pop\n        /* \"#utility.yul\":7168:7534   */\n      swap2\n      swap1\n      pop\n      jump\t// out\n        /* \"#utility.yul\":7540:7959   */\n    tag_42:\n        /* \"#utility.yul\":7706:7710   */\n      0x00\n        /* \"#utility.yul\":7744:7746   */\n      0x20\n        /* \"#utility.yul\":7733:7742   */\n      dup3\n        /* \"#utility.yul\":7729:7747   */\n      add\n        /* \"#utility.yul\":7721:7747   */\n      swap1\n      pop\n        /* \"#utility.yul\":7793:7802   */\n      dup2\n        /* \"#utility.yul\":7787:7791   */\n      dup2\n        /* \"#utility.yul\":7783:7803   */\n      sub\n        /* \"#utility.yul\":7779:7780   */\n      0x00\n        /* \"#utility.yul\":7768:7777   */\n      dup4\n        /* \"#utility.yul\":7764:7781   */\n      add\n        /* \"#utility.yul\":7757:7804   */\n      mstore\n        /* \"#utility.yul\":7821:7952   */\n      tag_199\n        /* \"#utility.yul\":7947:7951   */\n      dup2\n        /* \"#utility.yul\":7821:7952   */\n      tag_100\n      jump\t// in\n    tag_199:\n        /* \"#utility.yul\":7813:7952   */\n      swap1\n      pop\n        /* \"#utility.yul\":7540:7959   */\n      swap2\n      swap1\n      pop\n      jump\t// out\n        /* \"#utility.yul\":7965:8145   */\n    tag_101:\n        /* \"#utility.yul\":8013:8090   */\n      0x4e487b7100000000000000000000000000000000000000000000000000000000\n        /* \"#utility.yul\":8010:8011   */\n      0x00\n        /* \"#utility.yul\":8003:8091   */\n      mstore\n        /* \"#utility.yul\":8110:8114   */\n      0x22\n        /* \"#utility.yul\":8107:8108   */\n      0x04\n        /* \"#utility.yul\":8100:8115   */\n      mstore\n        /* \"#utility.yul\":8134:8138   */\n      0x24\n        /* \"#utility.yul\":8131:8132   */\n      0x00\n        /* \"#utility.yul\":8124:8139   */\n      revert\n        /* \"#utility.yul\":8151:8471   */\n    tag_54:\n        /* \"#utility.yul\":8195:8201   */\n      0x00\n        /* \"#utility.yul\":8232:8233   */\n      0x02\n        /* \"#utility.yul\":8226:8230   */\n      dup3\n        /* \"#utility.yul\":8222:8234   */\n      div\n        /* \"#utility.yul\":8212:8234   */\n      swap1\n      pop\n        /* \"#utility.yul\":8279:8280   */\n      0x01\n        /* \"#utility.yul\":8273:8277   */\n      dup3\n        /* \"#utility.yul\":8269:8281   */\n      and\n        /* \"#utility.yul\":8300:8318   */\n      dup1\n        /* \"#utility.yul\":8290:8371   */\n      tag_202\n      jumpi\n        /* \"#utility.yul\":8356:8360   */\n      0x7f\n        /* \"#utility.yul\":8348:8354   */\n      dup3\n        /* \"#utility.yul\":8344:8361   */\n      and\n        /* \"#utility.yul\":8334:8361   */\n      swap2\n      pop\n        /* \"#utility.yul\":8290:8371   */\n    tag_202:\n        /* \"#utility.yul\":8418:8420   */\n      0x20\n        /* \"#utility.yul\":8410:8416   */\n      dup3\n        /* \"#utility.yul\":8407:8421   */\n      lt\n        /* \"#utility.yul\":8387:8405   */\n      dup2\n        /* \"#utility.yul\":8384:8422   */\n      sub\n        /* \"#utility.yul\":8381:8465   */\n      tag_203\n      jumpi\n        /* \"#utility.yul\":8437:8455   */\n      tag_204\n      tag_101\n      jump\t// in\n    tag_204:\n        /* \"#utility.yul\":8381:8465   */\n    tag_203:\n        /* \"#utility.yul\":8202:8471   */\n      pop\n        /* \"#utility.yul\":8151:8471   */\n      swap2\n      swap1\n      pop\n      jump\t// out\n        /* \"#utility.yul\":8477:8618   */\n    tag_102:\n        /* \"#utility.yul\":8526:8530   */\n      0x00\n        /* \"#utility.yul\":8549:8552   */\n      dup2\n        /* \"#utility.yul\":8541:8552   */\n      swap1\n      pop\n        /* \"#utility.yul\":8572:8575   */\n      dup2\n        /* \"#utility.yul\":8569:8570   */\n      0x00\n        /* \"#utility.yul\":8562:8576   */\n      mstore\n        /* \"#utility.yul\":8606:8610   */\n      0x20\n        /* \"#utility.yul\":8603:8604   */\n      0x00\n        /* \"#utility.yul\":8593:8611   */\n      keccak256\n        /* \"#utility.yul\":8585:8611   */\n      swap1\n      pop\n        /* \"#utility.yul\":8477:8618   */\n      swap2\n      swap1\n      pop\n      jump\t// out\n        /* \"#utility.yul\":8624:8717   */\n    tag_103:\n        /* \"#utility.yul\":8661:8667   */\n      0x00\n        /* \"#utility.yul\":8708:8710   */\n      0x20\n        /* \"#utility.yul\":8703:8705   */\n      0x1f\n        /* \"#utility.yul\":8696:8701   */\n      dup4\n        /* \"#utility.yul\":8692:8706   */\n      add\n        /* \"#utility.yul\":8688:8711   */\n      div\n        /* \"#utility.yul\":8678:8711   */\n      swap1\n      pop\n        /* \"#utility.yul\":8624:8717   */\n      swap2\n      swap1\n      pop\n      jump\t// out\n        /* \"#utility.yul\":8723:8830   */\n    tag_104:\n        /* \"#utility.yul\":8767:8775   */\n      0x00\n        /* \"#utility.yul\":8817:8822   */\n      dup3\n        /* \"#utility.yul\":8811:8815   */\n      dup3\n        /* \"#utility.yul\":8807:8823   */\n      shl\n        /* \"#utility.yul\":8786:8823   */\n      swap1\n      pop\n        /* \"#utility.yul\":8723:8830   */\n      swap3\n      swap2\n      pop\n      pop\n      jump\t// out\n        /* \"#utility.yul\":8836:9229   */\n    tag_105:\n        /* \"#utility.yul\":8905:8911   */\n      0x00\n        /* \"#utility.yul\":8955:8956   */\n      0x08\n        /* \"#utility.yul\":8943:8953   */\n      dup4\n        /* \"#utility.yul\":8939:8957   */\n      mul\n        /* \"#utility.yul\":8978:9075   */\n      tag_209\n        /* \"#utility.yul\":9008:9074   */\n      0xffffffffffffffffffffffffffffffffffffffffffffffffffffffffffffffff\n        /* \"#utility.yul\":8997:9006   */\n      dup3\n        /* \"#utility.yul\":8978:9075   */\n      tag_104\n      jump\t// in\n    tag_209:\n        /* \"#utility.yul\":9096:9135   */\n      tag_210\n        /* \"#utility.yul\":9126:9134   */\n      dup7\n        /* \"#utility.yul\":9115:9124   */\n      dup4\n        /* \"#utility.yul\":9096:9135   */\n      tag_104\n      jump\t// in\n    tag_210:\n        /* \"#utility.yul\":9084:9135   */\n      swap6\n      pop\n        /* \"#utility.yul\":9168:9172   */\n      dup1\n        /* \"#utility.yul\":9164:9173   */\n      not\n        /* \"#utility.yul\":9157:9162   */\n      dup5\n        /* \"#utility.yul\":9153:9174   */\n      and\n        /* \"#utility.yul\":9144:9174   */\n      swap4\n      pop\n        /* \"#utility.yul\":9217:9221   */\n      dup1\n        /* \"#utility.yul\":9207:9215   */\n      dup7\n        /* \"#utility.yul\":9203:9222   */\n      and\n        /* \"#utility.yul\":9196:9201   */\n      dup5\n        /* \"#utility.yul\":9193:9223   */\n      or\n        /* \"#utility.yul\":9183:9223   */\n      swap3\n      pop\n        /* \"#utility.yul\":8912:9229   */\n      pop\n      pop\n        /* \"#utility.yul\":8836:9229   */\n      swap4\n      swap3\n      pop\n      pop\n      pop\n      jump\t// out\n        /* \"#utility.yul\":9235:9295   */\n    tag_106:\n        /* \"#utility.yul\":9263:9266   */\n      0x00\n        /* \"#utility.yul\":9284:9289   */\n      dup2\n        /* \"#utility.yul\":9277:9289   */\n      swap1\n      pop\n        /* \"#utility.yul\":9235:9295   */\n      swap2\n      swap1\n      pop\n      jump\t// out\n        /* \"#utility.yul\":9301:9443   */\n    tag_107:\n        /* \"#utility.yul\":9351:9360   */\n      0x00\n        /* \"#utility.yul\":9384:9437   */\n      tag_213\n        /* \"#utility.yul\":9402:9436   */\n      tag_214\n        /* \"#utility.yul\":9411:9435   */\n      tag_215\n        /* \"#utility.yul\":9429:9434   */\n      dup5\n        /* \"#utility.yul\":9411:9435   */\n      tag_85\n      jump\t// in\n    tag_215:\n        /* \"#utility.yul\":9402:9436   */\n      tag_106\n      jump\t// in\n    tag_214:\n        /* \"#utility.yul\":9384:9437   */\n      tag_85\n      jump\t// in\n    tag_213:\n        /* \"#utility.yul\":9371:9437   */\n      swap1\n      pop\n        /* \"#utility.yul\":9301:9443   */\n      swap2\n      swap1\n      pop\n      jump\t// out\n        /* \"#utility.yul\":9449:9524   */\n    tag_108:\n        /* \"#utility.yul\":9492:9495   */\n      0x00\n        /* \"#utility.yul\":9513:9518   */\n      dup2\n        /* \"#utility.yul\":9506:9518   */\n      swap1\n      pop\n        /* \"#utility.yul\":9449:9524   */\n      swap2\n      swap1\n      pop\n      jump\t// out\n        /* \"#utility.yul\":9530:9799   */\n    tag_109:\n        /* \"#utility.yul\":9640:9679   */\n      tag_218\n        /* \"#utility.yul\":9671:9678   */\n      dup4\n        /* \"#utility.yul\":9640:9679   */\n      tag_107\n      jump\t// in\n    tag_218:\n        /* \"#utility.yul\":9701:9792   */\n      tag_219\n        /* \"#utility.yul\":9750:9791   */\n      tag_220\n        /* \"#utility.yul\":9774:9790   */\n      dup3\n        /* \"#utility.yul\":9750:9791   */\n      tag_108\n      jump\t// in\n    tag_220:\n        /* \"#utility.yul\":9742:9748   */\n      dup5\n        /* \"#utility.yul\":9735:9739   */\n      dup5\n        /* \"#utility.yul\":9729:9740   */\n      sload\n        /* \"#utility.yul\":9701:9792   */\n      tag_105\n      jump\t// in\n    tag_219:\n        /* \"#utility.yul\":9695:9699   */\n      dup3\n        /* \"#utility.yul\":9688:9793   */\n      sstore\n        /* \"#utility.yul\":9606:9799   */\n      pop\n        /* \"#utility.yul\":9530:9799   */\n      pop\n      pop\n      pop\n      jump\t// out\n        /* \"#utility.yul\":9805:9878   */\n    tag_110:\n        /* \"#utility.yul\":9850:9853   */\n      0x00\n        /* \"#utility.yul\":9805:9878   */\n      swap1\n      jump\t// out\n        /* \"#utility.yul\":9884:10073   */\n    tag_111:\n        /* \"#utility.yul\":9961:9993   */\n      tag_223\n      tag_110\n      jump\t// in\n    tag_223:\n        /* \"#utility.yul\":10002:10067   */\n      tag_224\n        /* \"#utility.yul\":10060:10066   */\n      dup2\n        /* \"#utility.yul\":10052:10058   */\n      dup5\n        /* \"#utility.yul\":10046:10050   */\n      dup5\n        /* \"#utility.yul\":10002:10067   */\n      tag_109\n      jump\t// in\n    tag_224:\n        /* \"#utility.yul\":9937:10073   */\n      pop\n        /* \"#utility.yul\":9884:10073   */\n      pop\n      pop\n      jump\t// out\n        /* \"#utility.yul\":10079:10265   */\n    tag_112:\n        /* \"#utility.yul\":10139:10259   */\n    tag_226:\n        /* \"#utility.yul\":10156:10159   */\n      dup2\n        /* \"#utility.yul\":10149:10154   */\n      dup2\n        /* \"#utility.yul\":10146:10160   */\n      lt\n        /* \"#utility.yul\":10139:10259   */\n      iszero\n      tag_228\n      jumpi\n        /* \"#utility.yul\":10210:10249   */\n      tag_229\n        /* \"#utility.yul\":10247:10248   */\n      0x00\n        /* \"#utility.yul\":10240:10245   */\n      dup3\n        /* \"#utility.yul\":10210:10249   */\n      tag_111\n      jump\t// in\n    tag_229:\n        /* \"#utility.yul\":10183:10184   */\n      0x01\n        /* \"#utility.yul\":10176:10181   */\n      dup2\n        /* \"#utility.yul\":10172:10185   */\n      add\n        /* \"#utility.yul\":10163:10185   */\n      swap1\n      pop\n        /* \"#utility.yul\":10139:10259   */\n      jump(tag_226)\n    tag_228:\n        /* \"#utility.yul\":10079:10265   */\n      pop\n      pop\n      jump\t// out\n        /* \"#utility.yul\":10271:10814   */\n    tag_113:\n        /* \"#utility.yul\":10372:10374   */\n      0x1f\n        /* \"#utility.yul\":10367:10370   */\n      dup3\n        /* \"#utility.yul\":10364:10375   */\n      gt\n        /* \"#utility.yul\":10361:10807   */\n      iszero\n      tag_231\n      jumpi\n        /* \"#utility.yul\":10406:10444   */\n      tag_232\n        /* \"#utility.yul\":10438:10443   */\n      dup2\n        /* \"#utility.yul\":10406:10444   */\n      tag_102\n      jump\t// in\n    tag_232:\n        /* \"#utility.yul\":10490:10519   */\n      tag_233\n        /* \"#utility.yul\":10508:10518   */\n      dup5\n        /* \"#utility.yul\":10490:10519   */\n      tag_103\n      jump\t// in\n    tag_233:\n        /* \"#utility.yul\":10480:10488   */\n      dup2\n        /* \"#utility.yul\":10476:10520   */\n      add\n        /* \"#utility.yul\":10673:10675   */\n      0x20\n        /* \"#utility.yul\":10661:10671   */\n      dup6\n        /* \"#utility.yul\":10658:10676   */\n      lt\n        /* \"#utility.yul\":10655:10704   */\n      iszero\n      tag_234\n      jumpi\n        /* \"#utility.yul\":10694:10702   */\n      dup2\n        /* \"#utility.yul\":10679:10702   */\n      swap1\n      pop\n        /* \"#utility.yul\":10655:10704   */\n    tag_234:\n        /* \"#utility.yul\":10717:10797   */\n      tag_235\n        /* \"#utility.yul\":10773:10795   */\n      tag_236\n        /* \"#utility.yul\":10791:10794   */\n      dup6\n        /* \"#utility.yul\":10773:10795   */\n      tag_103\n      jump\t// in\n    tag_236:\n        /* \"#utility.yul\":10763:10771   */\n      dup4\n        /* \"#utility.yul\":10759:10796   */\n      add\n        /* \"#utility.yul\":10746:10757   */\n      dup3\n        /* \"#utility.yul\":10717:10797   */\n      tag_112\n      jump\t// in\n    tag_235:\n        /* \"#utility.yul\":10376:10807   */\n      pop\n      pop\n        /* \"#utility.yul\":10361:10807   */\n    tag_231:\n        /* \"#utility.yul\":10271:10814   */\n      pop\n      pop\n      pop\n      jump\t// out\n        /* \"#utility.yul\":10820:10937   */\n    tag_114:\n        /* \"#utility.yul\":10874:10882   */\n      0x00\n        /* \"#utility.yul\":10924:10929   */\n      dup3\n        /* \"#utility.yul\":10918:10922   */\n      dup3\n        /* \"#utility.yul\":10914:10930   */\n      shr\n        /* \"#utility.yul\":10893:10930   */\n      swap1\n      pop\n        /* \"#utility.yul\":10820:10937   */\n      swap3\n      swap2\n      pop\n      pop\n      jump\t// out\n        /* \"#utility.yul\":10943:11112   */\n    tag_115:\n        /* \"#utility.yul\":10987:10993   */\n      0x00\n        /* \"#utility.yul\":11020:11071   */\n      tag_239\n        /* \"#utility.yul\":11068:11069   */\n      0x00\n        /* \"#utility.yul\":11064:11070   */\n      not\n        /* \"#utility.yul\":11056:11061   */\n      dup5\n        /* \"#utility.yul\":11053:11054   */\n      0x08\n        /* \"#utility.yul\":11049:11062   */\n      mul\n        /* \"#utility.yul\":11020:11071   */\n      tag_114\n      jump\t// in\n    tag_239:\n        /* \"#utility.yul\":11016:11072   */\n      not\n        /* \"#utility.yul\":11101:11105   */\n      dup1\n        /* \"#utility.yul\":11095:11099   */\n      dup4\n        /* \"#utility.yul\":11091:11106   */\n      and\n        /* \"#utility.yul\":11081:11106   */\n      swap2\n      pop\n        /* \"#utility.yul\":10994:11112   */\n      pop\n        /* \"#utility.yul\":10943:11112   */\n      swap3\n      swap2\n      pop\n      pop\n      jump\t// out\n        /* \"#utility.yul\":11117:11412   */\n    tag_116:\n        /* \"#utility.yul\":11193:11197   */\n      0x00\n        /* \"#utility.yul\":11339:11368   */\n      tag_241\n        /* \"#utility.yul\":11364:11367   */\n      dup4\n        /* \"#utility.yul\":11358:11362   */\n      dup4\n        /* \"#utility.yul\":11339:11368   */\n      tag_115\n      jump\t// in\n    tag_241:\n        /* \"#utility.yul\":11331:11368   */\n      swap2\n      pop\n        /* \"#utility.yul\":11401:11404   */\n      dup3\n        /* \"#utility.yul\":11398:11399   */\n      0x02\n        /* \"#utility.yul\":11394:11405   */\n      mul\n        /* \"#utility.yul\":11388:11392   */\n      dup3\n        /* \"#utility.yul\":11385:11406   */\n      or\n        /* \"#utility.yul\":11377:11406   */\n      swap1\n      pop\n        /* \"#utility.yul\":11117:11412   */\n      swap3\n      swap2\n      pop\n      pop\n      jump\t// out\n        /* \"#utility.yul\":11417:12812   */\n    tag_44:\n        /* \"#utility.yul\":11534:11571   */\n      tag_243\n        /* \"#utility.yul\":11567:11570   */\n      dup3\n        /* \"#utility.yul\":11534:11571   */\n      tag_91\n      jump\t// in\n    tag_243:\n        /* \"#utility.yul\":11636:11654   */\n      0xffffffffffffffff\n        /* \"#utility.yul\":11628:11634   */\n      dup2\n        /* \"#utility.yul\":11625:11655   */\n      gt\n        /* \"#utility.yul\":11622:11678   */\n      iszero\n      tag_244\n      jumpi\n        /* \"#utility.yul\":11658:11676   */\n      tag_245\n      tag_78\n      jump\t// in\n    tag_245:\n        /* \"#utility.yul\":11622:11678   */\n    tag_244:\n        /* \"#utility.yul\":11702:11740   */\n      tag_246\n        /* \"#utility.yul\":11734:11738   */\n      dup3\n        /* \"#utility.yul\":11728:11739   */\n      sload\n        /* \"#utility.yul\":11702:11740   */\n      tag_54\n      jump\t// in\n    tag_246:\n        /* \"#utility.yul\":11787:11854   */\n      tag_247\n        /* \"#utility.yul\":11847:11853   */\n      dup3\n        /* \"#utility.yul\":11839:11845   */\n      dup3\n        /* \"#utility.yul\":11833:11837   */\n      dup6\n        /* \"#utility.yul\":11787:11854   */\n      tag_113\n      jump\t// in\n    tag_247:\n        /* \"#utility.yul\":11881:11882   */\n      0x00\n        /* \"#utility.yul\":11905:11909   */\n      0x20\n        /* \"#utility.yul\":11892:11909   */\n      swap1\n      pop\n        /* \"#utility.yul\":11937:11939   */\n      0x1f\n        /* \"#utility.yul\":11929:11935   */\n      dup4\n        /* \"#utility.yul\":11926:11940   */\n      gt\n        /* \"#utility.yul\":11954:11955   */\n      0x01\n        /* \"#utility.yul\":11949:12567   */\n      dup2\n      eq\n      tag_249\n      jumpi\n        /* \"#utility.yul\":12611:12612   */\n      0x00\n        /* \"#utility.yul\":12628:12634   */\n      dup5\n        /* \"#utility.yul\":12625:12702   */\n      iszero\n      tag_250\n      jumpi\n        /* \"#utility.yul\":12677:12686   */\n      dup3\n        /* \"#utility.yul\":12672:12675   */\n      dup8\n        /* \"#utility.yul\":12668:12687   */\n      add\n        /* \"#utility.yul\":12662:12688   */\n      mload\n        /* \"#utility.yul\":12653:12688   */\n      swap1\n      pop\n        /* \"#utility.yul\":12625:12702   */\n    tag_250:\n        /* \"#utility.yul\":12728:12795   */\n      tag_251\n        /* \"#utility.yul\":12788:12794   */\n      dup6\n        /* \"#utility.yul\":12781:12786   */\n      dup3\n        /* \"#utility.yul\":12728:12795   */\n      tag_116\n      jump\t// in\n    tag_251:\n        /* \"#utility.yul\":12722:12726   */\n      dup7\n        /* \"#utility.yul\":12715:12796   */\n      sstore\n        /* \"#utility.yul\":12584:12806   */\n      pop\n        /* \"#utility.yul\":11919:12806   */\n      jump(tag_248)\n        /* \"#utility.yul\":11949:12567   */\n    tag_249:\n        /* \"#utility.yul\":12001:12005   */\n      0x1f\n        /* \"#utility.yul\":11997:12006   */\n      not\n        /* \"#utility.yul\":11989:11995   */\n      dup5\n        /* \"#utility.yul\":11985:12007   */\n      and\n        /* \"#utility.yul\":12035:12072   */\n      tag_252\n        /* \"#utility.yul\":12067:12071   */\n      dup7\n        /* \"#utility.yul\":12035:12072   */\n      tag_102\n      jump\t// in\n    tag_252:\n        /* \"#utility.yul\":12094:12095   */\n      0x00\n        /* \"#utility.yul\":12108:12316   */\n    tag_253:\n        /* \"#utility.yul\":12122:12129   */\n      dup3\n        /* \"#utility.yul\":12119:12120   */\n      dup2\n        /* \"#utility.yul\":12116:12130   */\n      lt\n        /* \"#utility.yul\":12108:12316   */\n      iszero\n      tag_255\n      jumpi\n        /* \"#utility.yul\":12201:12210   */\n      dup5\n        /* \"#utility.yul\":12196:12199   */\n      dup10\n        /* \"#utility.yul\":12192:12211   */\n      add\n        /* \"#utility.yul\":12186:12212   */\n      mload\n        /* \"#utility.yul\":12178:12184   */\n      dup3\n        /* \"#utility.yul\":12171:12213   */\n      sstore\n        /* \"#utility.yul\":12252:12253   */\n      0x01\n        /* \"#utility.yul\":12244:12250   */\n      dup3\n        /* \"#utility.yul\":12240:12254   */\n      add\n        /* \"#utility.yul\":12230:12254   */\n      swap2\n      pop\n        /* \"#utility.yul\":12299:12301   */\n      0x20\n        /* \"#utility.yul\":12288:12297   */\n      dup6\n        /* \"#utility.yul\":12284:12302   */\n      add\n        /* \"#utility.yul\":12271:12302   */\n      swap5\n      pop\n        /* \"#utility.yul\":12145:12149   */\n      0x20\n        /* \"#utility.yul\":12142:12143   */\n      dup2\n        /* \"#utility.yul\":12138:12150   */\n      add\n        /* \"#utility.yul\":12133:12150   */\n      swap1\n      pop\n        /* \"#utility.yul\":12108:12316   */\n      jump(tag_253)\n    tag_255:\n        /* \"#utility.yul\":12344:12350   */\n      dup7\n        /* \"#utility.yul\":12335:12342   */\n      dup4\n        /* \"#utility.yul\":12332:12351   */\n      lt\n        /* \"#utility.yul\":12329:12508   */\n      iszero\n      tag_256\n      jumpi\n        /* \"#utility.yul\":12402:12411   */\n      dup5\n        /* \"#utility.yul\":12397:12400   */\n      dup10\n        /* \"#utility.yul\":12393:12412   */\n      add\n        /* \"#utility.yul\":12387:12413   */\n      mload\n        /* \"#utility.yul\":12445:12493   */\n      tag_257\n        /* \"#utility.yul\":12487:12491   */\n      0x1f\n        /* \"#utility.yul\":12479:12485   */\n      dup10\n        /* \"#utility.yul\":12475:12492   */\n      and\n        /* \"#utility.yul\":12464:12473   */\n      dup3\n        /* \"#utility.yul\":12445:12493   */\n      tag_115\n      jump\t// in\n    tag_257:\n        /* \"#utility.yul\":12437:12443   */\n      dup4\n        /* \"#utility.yul\":12430:12494   */\n      sstore\n        /* \"#utility.yul\":12352:12508   */\n      pop\n        /* \"#utility.yul\":12329:12508   */\n    tag_256:\n        /* \"#utility.yul\":12554:12555   */\n      0x01\n        /* \"#utility.yul\":12550:12551   */\n      0x02\n        /* \"#utility.yul\":12542:12548   */\n      dup9\n        /* \"#utility.yul\":12538:12552   */\n      mul\n        /* \"#utility.yul\":12534:12556   */\n      add\n        /* \"#utility.yul\":12528:12532   */\n      dup9\n        /* \"#utility.yul\":12521:12557   */\n      sstore\n        /* \"#utility.yul\":11956:12567   */\n      pop\n      pop\n      pop\n        /* \"#utility.yul\":11919:12806   */\n    tag_248:\n      pop\n        /* \"#utility.yul\":11509:12812   */\n      pop\n      pop\n      pop\n        /* \"#utility.yul\":11417:12812   */\n      pop\n      pop\n      jump\t// out\n\n    auxdata: 0xa264697066735822122018928810be0c969b34dd5a8975d3d102f5c0501ab3f0a210e87fbeaa05f59b8064736f6c63430008120033\n}\n",
				"bytecode": {
					"linkReferences": {},
					"object": "608060405234801561001057600080fd5b50610e62806100206000396000f3fe608060405234801561001057600080fd5b50600436106100625760003560e01c80630830602b146100675780630d5fba83146100835780635fd4b08a146100a15780638020fc1f146100d1578063c3c5a54714610101578063e2a04b6214610131575b600080fd5b610081600480360381019061007c9190610897565b610161565b005b61008b610326565b60405161009891906108f9565b60405180910390f35b6100bb60048036038101906100b69190610972565b6104a0565b6040516100c89190610a1e565b60405180910390f35b6100eb60048036038101906100e69190610972565b610600565b6040516100f89190610a5b565b60405180910390f35b61011b60048036038101906101169190610972565b610620565b6040516101289190610a5b565b60405180910390f35b61014b60048036038101906101469190610972565b610640565b6040516101589190610a1e565b60405180910390f35b60008151116101a5576040517f08c379a000000000000000000000000000000000000000000000000000000000815260040161019c90610ac2565b60405180910390fd5b600160003373ffffffffffffffffffffffffffffffffffffffff1673ffffffffffffffffffffffffffffffffffffffff16815260200190815260200160002060009054906101000a900460ff1615610232576040517f08c379a000000000000000000000000000000000000000000000000000000000815260040161022990610b2e565b60405180910390fd5b806000803373ffffffffffffffffffffffffffffffffffffffff1673ffffffffffffffffffffffffffffffffffffffff168152602001908152602001600020908161027d9190610d5a565b5060018060003373ffffffffffffffffffffffffffffffffffffffff1673ffffffffffffffffffffffffffffffffffffffff16815260200190815260200160002060006101000a81548160ff0219169083151502179055503373ffffffffffffffffffffffffffffffffffffffff167f56a1a2764a85c689329fbc04f299b64690a26b1dc5ac82e903cf8ad805cd53968260405161031b9190610a1e565b60405180910390a250565b6000600160003373ffffffffffffffffffffffffffffffffffffffff1673ffffffffffffffffffffffffffffffffffffffff16815260200190815260200160002060009054906101000a900460ff166103b4576040517f08c379a00000000000000000000000000000000000000000000000000000000081526004016103ab90610b2e565b60405180910390fd5b6001600260003373ffffffffffffffffffffffffffffffffffffffff1673ffffffffffffffffffffffffffffffffffffffff16815260200190815260200160002060006101000a81548160ff0219169083151502179055506000803373ffffffffffffffffffffffffffffffffffffffff1673ffffffffffffffffffffffffffffffffffffffff168152602001908152602001600020600061045691906106e0565b3373ffffffffffffffffffffffffffffffffffffffff167fd535c2e59a2f16f058b1b296bef26cc2579ffc7f69aaf7b53f536943cb6a754360405160405180910390a260c8905090565b6060600160008373ffffffffffffffffffffffffffffffffffffffff1673ffffffffffffffffffffffffffffffffffffffff16815260200190815260200160002060009054906101000a900460ff16156105c2576000808373ffffffffffffffffffffffffffffffffffffffff1673ffffffffffffffffffffffffffffffffffffffff168152602001908152602001600020805461053d90610b7d565b80601f016020809104026020016040519081016040528092919081815260200182805461056990610b7d565b80156105b65780601f1061058b576101008083540402835291602001916105b6565b820191906000526020600020905b81548152906001019060200180831161059957829003601f168201915b505050505090506105fb565b6040518060400160405280600981526020017f6e6f7420666f756e64000000000000000000000000000000000000000000000081525090505b919050565b60026020528060005260406000206000915054906101000a900460ff1681565b60016020528060005260406000206000915054906101000a900460ff1681565b6000602052806000526040600020600091509050805461065f90610b7d565b80601f016020809104026020016040519081016040528092919081815260200182805461068b90610b7d565b80156106d85780601f106106ad576101008083540402835291602001916106d8565b820191906000526020600020905b8154815290600101906020018083116106bb57829003601f168201915b505050505081565b5080546106ec90610b7d565b6000825580601f106106fe575061071d565b601f01602090049060005260206000209081019061071c9190610720565b5b50565b5b80821115610739576000816000905550600101610721565b5090565b6000604051905090565b600080fd5b600080fd5b600080fd5b600080fd5b6000601f19601f8301169050919050565b7f4e487b7100000000000000000000000000000000000000000000000000000000600052604160045260246000fd5b6107a48261075b565b810181811067ffffffffffffffff821117156107c3576107c261076c565b5b80604052505050565b60006107d661073d565b90506107e2828261079b565b919050565b600067ffffffffffffffff8211156108025761080161076c565b5b61080b8261075b565b9050602081019050919050565b82818337600083830152505050565b600061083a610835846107e7565b6107cc565b90508281526020810184848401111561085657610855610756565b5b610861848285610818565b509392505050565b600082601f83011261087e5761087d610751565b5b813561088e848260208601610827565b91505092915050565b6000602082840312156108ad576108ac610747565b5b600082013567ffffffffffffffff8111156108cb576108ca61074c565b5b6108d784828501610869565b91505092915050565b6000819050919050565b6108f3816108e0565b82525050565b600060208201905061090e60008301846108ea565b92915050565b600073ffffffffffffffffffffffffffffffffffffffff82169050919050565b600061093f82610914565b9050919050565b61094f81610934565b811461095a57600080fd5b50565b60008135905061096c81610946565b92915050565b60006020828403121561098857610987610747565b5b60006109968482850161095d565b91505092915050565b600081519050919050565b600082825260208201905092915050565b60005b838110156109d95780820151818401526020810190506109be565b60008484015250505050565b60006109f08261099f565b6109fa81856109aa565b9350610a0a8185602086016109bb565b610a138161075b565b840191505092915050565b60006020820190508181036000830152610a3881846109e5565b905092915050565b60008115159050919050565b610a5581610a40565b82525050565b6000602082019050610a706000830184610a4c565b92915050565b7f4e616d652073686f756c64206e6f7420626520656d7074790000000000000000600082015250565b6000610aac6018836109aa565b9150610ab782610a76565b602082019050919050565b60006020820190508181036000830152610adb81610a9f565b9050919050565b7f4164647265737320697320616c72656164792072656769737465726564000000600082015250565b6000610b18601d836109aa565b9150610b2382610ae2565b602082019050919050565b60006020820190508181036000830152610b4781610b0b565b9050919050565b7f4e487b7100000000000000000000000000000000000000000000000000000000600052602260045260246000fd5b60006002820490506001821680610b9557607f821691505b602082108103610ba857610ba7610b4e565b5b50919050565b60008190508160005260206000209050919050565b60006020601f8301049050919050565b600082821b905092915050565b600060088302610c107fffffffffffffffffffffffffffffffffffffffffffffffffffffffffffffffff82610bd3565b610c1a8683610bd3565b95508019841693508086168417925050509392505050565b6000819050919050565b6000610c57610c52610c4d846108e0565b610c32565b6108e0565b9050919050565b6000819050919050565b610c7183610c3c565b610c85610c7d82610c5e565b848454610be0565b825550505050565b600090565b610c9a610c8d565b610ca5818484610c68565b505050565b5b81811015610cc957610cbe600082610c92565b600181019050610cab565b5050565b601f821115610d0e57610cdf81610bae565b610ce884610bc3565b81016020851015610cf7578190505b610d0b610d0385610bc3565b830182610caa565b50505b505050565b600082821c905092915050565b6000610d3160001984600802610d13565b1980831691505092915050565b6000610d4a8383610d20565b9150826002028217905092915050565b610d638261099f565b67ffffffffffffffff811115610d7c57610d7b61076c565b5b610d868254610b7d565b610d91828285610ccd565b600060209050601f831160018114610dc45760008415610db2578287015190505b610dbc8582610d3e565b865550610e24565b601f198416610dd286610bae565b60005b82811015610dfa57848901518255600182019150602085019450602081019050610dd5565b86831015610e175784890151610e13601f891682610d20565b8355505b6001600288020188555050505b50505050505056fea264697066735822122018928810be0c969b34dd5a8975d3d102f5c0501ab3f0a210e87fbeaa05f59b8064736f6c63430008120033",
					"opcodes": "PUSH1 0x80 PUSH1 0x40 MSTORE CALLVALUE DUP1 ISZERO PUSH2 0x10 JUMPI PUSH1 0x0 DUP1 REVERT JUMPDEST POP PUSH2 0xE62 DUP1 PUSH2 0x20 PUSH1 0x0 CODECOPY PUSH1 0x0 RETURN INVALID PUSH1 0x80 PUSH1 0x40 MSTORE CALLVALUE DUP1 ISZERO PUSH2 0x10 JUMPI PUSH1 0x0 DUP1 REVERT JUMPDEST POP PUSH1 0x4 CALLDATASIZE LT PUSH2 0x62 JUMPI PUSH1 0x0 CALLDATALOAD PUSH1 0xE0 SHR DUP1 PUSH4 0x830602B EQ PUSH2 0x67 JUMPI DUP1 PUSH4 0xD5FBA83 EQ PUSH2 0x83 JUMPI DUP1 PUSH4 0x5FD4B08A EQ PUSH2 0xA1 JUMPI DUP1 PUSH4 0x8020FC1F EQ PUSH2 0xD1 JUMPI DUP1 PUSH4 0xC3C5A547 EQ PUSH2 0x101 JUMPI DUP1 PUSH4 0xE2A04B62 EQ PUSH2 0x131 JUMPI JUMPDEST PUSH1 0x0 DUP1 REVERT JUMPDEST PUSH2 0x81 PUSH1 0x4 DUP1 CALLDATASIZE SUB DUP2 ADD SWAP1 PUSH2 0x7C SWAP2 SWAP1 PUSH2 0x897 JUMP JUMPDEST PUSH2 0x161 JUMP JUMPDEST STOP JUMPDEST PUSH2 0x8B PUSH2 0x326 JUMP JUMPDEST PUSH1 0x40 MLOAD PUSH2 0x98 SWAP2 SWAP1 PUSH2 0x8F9 JUMP JUMPDEST PUSH1 0x40 MLOAD DUP1 SWAP2 SUB SWAP1 RETURN JUMPDEST PUSH2 0xBB PUSH1 0x4 DUP1 CALLDATASIZE SUB DUP2 ADD SWAP1 PUSH2 0xB6 SWAP2 SWAP1 PUSH2 0x972 JUMP JUMPDEST PUSH2 0x4A0 JUMP JUMPDEST PUSH1 0x40 MLOAD PUSH2 0xC8 SWAP2 SWAP1 PUSH2 0xA1E JUMP JUMPDEST PUSH1 0x40 MLOAD DUP1 SWAP2 SUB SWAP1 RETURN JUMPDEST PUSH2 0xEB PUSH1 0x4 DUP1 CALLDATASIZE SUB DUP2 ADD SWAP1 PUSH2 0xE6 SWAP2 SWAP1 PUSH2 0x972 JUMP JUMPDEST PUSH2 0x600 JUMP JUMPDEST PUSH1 0x40 MLOAD PUSH2 0xF8 SWAP2 SWAP1 PUSH2 0xA5B JUMP JUMPDEST PUSH1 0x40 MLOAD DUP1 SWAP2 SUB SWAP1 RETURN JUMPDEST PUSH2 0x11B PUSH1 0x4 DUP1 CALLDATASIZE SUB DUP2 ADD SWAP1 PUSH2 0x116 SWAP2 SWAP1 PUSH2 0x972 JUMP JUMPDEST PUSH2 0x620 JUMP JUMPDEST PUSH1 0x40 MLOAD PUSH2 0x128 SWAP2 SWAP1 PUSH2 0xA5B JUMP JUMPDEST PUSH1 0x40 MLOAD DUP1 SWAP2 SUB SWAP1 RETURN JUMPDEST PUSH2 0x14B PUSH1 0x4 DUP1 CALLDATASIZE SUB DUP2 ADD SWAP1 PUSH2 0x146 SWAP2 SWAP1 PUSH2 0x972 JUMP JUMPDEST PUSH2 0x640 JUMP JUMPDEST PUSH1 0x40 MLOAD PUSH2 0x158 SWAP2 SWAP1 PUSH2 0xA1E JUMP JUMPDEST PUSH1 0x40 MLOAD DUP1 SWAP2 SUB SWAP1 RETURN JUMPDEST PUSH1 0x0 DUP2 MLOAD GT PUSH2 0x1A5 JUMPI PUSH1 0x40 MLOAD PUSH32 0x8C379A000000000000000000000000000000000000000000000000000000000 DUP2 MSTORE PUSH1 0x4 ADD PUSH2 0x19C SWAP1 PUSH2 0xAC2 JUMP JUMPDEST PUSH1 0x40 MLOAD DUP1 SWAP2 SUB SWAP1 REVERT JUMPDEST PUSH1 0x1 PUSH1 0x0 CALLER PUSH20 0xFFFFFFFFFFFFFFFFFFFFFFFFFFFFFFFFFFFFFFFF AND PUSH20 0xFFFFFFFFFFFFFFFFFFFFFFFFFFFFFFFFFFFFFFFF AND DUP2 MSTORE PUSH1 0x20 ADD SWAP1 DUP2 MSTORE PUSH1 0x20 ADD PUSH1 0x0 KECCAK256 PUSH1 0x0 SWAP1 SLOAD SWAP1 PUSH2 0x100 EXP SWAP1 DIV PUSH1 0xFF AND ISZERO PUSH2 0x232 JUMPI PUSH1 0x40 MLOAD PUSH32 0x8C379A000000000000000000000000000000000000000000000000000000000 DUP2 MSTORE PUSH1 0x4 ADD PUSH2 0x229 SWAP1 PUSH2 0xB2E JUMP JUMPDEST PUSH1 0x40 MLOAD DUP1 SWAP2 SUB SWAP1 REVERT JUMPDEST DUP1 PUSH1 0x0 DUP1 CALLER PUSH20 0xFFFFFFFFFFFFFFFFFFFFFFFFFFFFFFFFFFFFFFFF AND PUSH20 0xFFFFFFFFFFFFFFFFFFFFFFFFFFFFFFFFFFFFFFFF AND DUP2 MSTORE PUSH1 0x20 ADD SWAP1 DUP2 MSTORE PUSH1 0x20 ADD PUSH1 0x0 KECCAK256 SWAP1 DUP2 PUSH2 0x27D SWAP2 SWAP1 PUSH2 0xD5A JUMP JUMPDEST POP PUSH1 0x1 DUP1 PUSH1 0x0 CALLER PUSH20 0xFFFFFFFFFFFFFFFFFFFFFFFFFFFFFFFFFFFFFFFF AND PUSH20 0xFFFFFFFFFFFFFFFFFFFFFFFFFFFFFFFFFFFFFFFF AND DUP2 MSTORE PUSH1 0x20 ADD SWAP1 DUP2 MSTORE PUSH1 0x20 ADD PUSH1 0x0 KECCAK256 PUSH1 0x0 PUSH2 0x100 EXP DUP2 SLOAD DUP2 PUSH1 0xFF MUL NOT AND SWAP1 DUP4 ISZERO ISZERO MUL OR SWAP1 SSTORE POP CALLER PUSH20 0xFFFFFFFFFFFFFFFFFFFFFFFFFFFFFFFFFFFFFFFF AND PUSH32 0x56A1A2764A85C689329FBC04F299B64690A26B1DC5AC82E903CF8AD805CD5396 DUP3 PUSH1 0x40 MLOAD PUSH2 0x31B SWAP2 SWAP1 PUSH2 0xA1E JUMP JUMPDEST PUSH1 0x40 MLOAD DUP1 SWAP2 SUB SWAP1 LOG2 POP JUMP JUMPDEST PUSH1 0x0 PUSH1 0x1 PUSH1 0x0 CALLER PUSH20 0xFFFFFFFFFFFFFFFFFFFFFFFFFFFFFFFFFFFFFFFF AND PUSH20 0xFFFFFFFFFFFFFFFFFFFFFFFFFFFFFFFFFFFFFFFF AND DUP2 MSTORE PUSH1 0x20 ADD SWAP1 DUP2 MSTORE PUSH1 0x20 ADD PUSH1 0x0 KECCAK256 PUSH1 0x0 SWAP1 SLOAD SWAP1 PUSH2 0x100 EXP SWAP1 DIV PUSH1 0xFF AND PUSH2 0x3B4 JUMPI PUSH1 0x40 MLOAD PUSH32 0x8C379A000000000000000000000000000000000000000000000000000000000 DUP2 MSTORE PUSH1 0x4 ADD PUSH2 0x3AB SWAP1 PUSH2 0xB2E JUMP JUMPDEST PUSH1 0x40 MLOAD DUP1 SWAP2 SUB SWAP1 REVERT JUMPDEST PUSH1 0x1 PUSH1 0x2 PUSH1 0x0 CALLER PUSH20 0xFFFFFFFFFFFFFFFFFFFFFFFFFFFFFFFFFFFFFFFF AND PUSH20 0xFFFFFFFFFFFFFFFFFFFFFFFFFFFFFFFFFFFFFFFF AND DUP2 MSTORE PUSH1 0x20 ADD SWAP1 DUP2 MSTORE PUSH1 0x20 ADD PUSH1 0x0 KECCAK256 PUSH1 0x0 PUSH2 0x100 EXP DUP2 SLOAD DUP2 PUSH1 0xFF MUL NOT AND SWAP1 DUP4 ISZERO ISZERO MUL OR SWAP1 SSTORE POP PUSH1 0x0 DUP1 CALLER PUSH20 0xFFFFFFFFFFFFFFFFFFFFFFFFFFFFFFFFFFFFFFFF AND PUSH20 0xFFFFFFFFFFFFFFFFFFFFFFFFFFFFFFFFFFFFFFFF AND DUP2 MSTORE PUSH1 0x20 ADD SWAP1 DUP2 MSTORE PUSH1 0x20 ADD PUSH1 0x0 KECCAK256 PUSH1 0x0 PUSH2 0x456 SWAP2 SWAP1 PUSH2 0x6E0 JUMP JUMPDEST CALLER PUSH20 0xFFFFFFFFFFFFFFFFFFFFFFFFFFFFFFFFFFFFFFFF AND PUSH32 0xD535C2E59A2F16F058B1B296BEF26CC2579FFC7F69AAF7B53F536943CB6A7543 PUSH1 0x40 MLOAD PUSH1 0x40 MLOAD DUP1 SWAP2 SUB SWAP1 LOG2 PUSH1 0xC8 SWAP1 POP SWAP1 JUMP JUMPDEST PUSH1 0x60 PUSH1 0x1 PUSH1 0x0 DUP4 PUSH20 0xFFFFFFFFFFFFFFFFFFFFFFFFFFFFFFFFFFFFFFFF AND PUSH20 0xFFFFFFFFFFFFFFFFFFFFFFFFFFFFFFFFFFFFFFFF AND DUP2 MSTORE PUSH1 0x20 ADD SWAP1 DUP2 MSTORE PUSH1 0x20 ADD PUSH1 0x0 KECCAK256 PUSH1 0x0 SWAP1 SLOAD SWAP1 PUSH2 0x100 EXP SWAP1 DIV PUSH1 0xFF AND ISZERO PUSH2 0x5C2 JUMPI PUSH1 0x0 DUP1 DUP4 PUSH20 0xFFFFFFFFFFFFFFFFFFFFFFFFFFFFFFFFFFFFFFFF AND PUSH20 0xFFFFFFFFFFFFFFFFFFFFFFFFFFFFFFFFFFFFFFFF AND DUP2 MSTORE PUSH1 0x20 ADD SWAP1 DUP2 MSTORE PUSH1 0x20 ADD PUSH1 0x0 KECCAK256 DUP1 SLOAD PUSH2 0x53D SWAP1 PUSH2 0xB7D JUMP JUMPDEST DUP1 PUSH1 0x1F ADD PUSH1 0x20 DUP1 SWAP2 DIV MUL PUSH1 0x20 ADD PUSH1 0x40 MLOAD SWAP1 DUP2 ADD PUSH1 0x40 MSTORE DUP1 SWAP3 SWAP2 SWAP1 DUP2 DUP2 MSTORE PUSH1 0x20 ADD DUP3 DUP1 SLOAD PUSH2 0x569 SWAP1 PUSH2 0xB7D JUMP JUMPDEST DUP1 ISZERO PUSH2 0x5B6 JUMPI DUP1 PUSH1 0x1F LT PUSH2 0x58B JUMPI PUSH2 0x100 DUP1 DUP4 SLOAD DIV MUL DUP4 MSTORE SWAP2 PUSH1 0x20 ADD SWAP2 PUSH2 0x5B6 JUMP JUMPDEST DUP3 ADD SWAP2 SWAP1 PUSH1 0x0 MSTORE PUSH1 0x20 PUSH1 0x0 KECCAK256 SWAP1 JUMPDEST DUP2 SLOAD DUP2 MSTORE SWAP1 PUSH1 0x1 ADD SWAP1 PUSH1 0x20 ADD DUP1 DUP4 GT PUSH2 0x599 JUMPI DUP3 SWAP1 SUB PUSH1 0x1F AND DUP3 ADD SWAP2 JUMPDEST POP POP POP POP POP SWAP1 POP PUSH2 0x5FB JUMP JUMPDEST PUSH1 0x40 MLOAD DUP1 PUSH1 0x40 ADD PUSH1 0x40 MSTORE DUP1 PUSH1 0x9 DUP2 MSTORE PUSH1 0x20 ADD PUSH32 0x6E6F7420666F756E640000000000000000000000000000000000000000000000 DUP2 MSTORE POP SWAP1 POP JUMPDEST SWAP2 SWAP1 POP JUMP JUMPDEST PUSH1 0x2 PUSH1 0x20 MSTORE DUP1 PUSH1 0x0 MSTORE PUSH1 0x40 PUSH1 0x0 KECCAK256 PUSH1 0x0 SWAP2 POP SLOAD SWAP1 PUSH2 0x100 EXP SWAP1 DIV PUSH1 0xFF AND DUP2 JUMP JUMPDEST PUSH1 0x1 PUSH1 0x20 MSTORE DUP1 PUSH1 0x0 MSTORE PUSH1 0x40 PUSH1 0x0 KECCAK256 PUSH1 0x0 SWAP2 POP SLOAD SWAP1 PUSH2 0x100 EXP SWAP1 DIV PUSH1 0xFF AND DUP2 JUMP JUMPDEST PUSH1 0x0 PUSH1 0x20 MSTORE DUP1 PUSH1 0x0 MSTORE PUSH1 0x40 PUSH1 0x0 KECCAK256 PUSH1 0x0 SWAP2 POP SWAP1 POP DUP1 SLOAD PUSH2 0x65F SWAP1 PUSH2 0xB7D JUMP JUMPDEST DUP1 PUSH1 0x1F ADD PUSH1 0x20 DUP1 SWAP2 DIV MUL PUSH1 0x20 ADD PUSH1 0x40 MLOAD SWAP1 DUP2 ADD PUSH1 0x40 MSTORE DUP1 SWAP3 SWAP2 SWAP1 DUP2 DUP2 MSTORE PUSH1 0x20 ADD DUP3 DUP1 SLOAD PUSH2 0x68B SWAP1 PUSH2 0xB7D JUMP JUMPDEST DUP1 ISZERO PUSH2 0x6D8 JUMPI DUP1 PUSH1 0x1F LT PUSH2 0x6AD JUMPI PUSH2 0x100 DUP1 DUP4 SLOAD DIV MUL DUP4 MSTORE SWAP2 PUSH1 0x20 ADD SWAP2 PUSH2 0x6D8 JUMP JUMPDEST DUP3 ADD SWAP2 SWAP1 PUSH1 0x0 MSTORE PUSH1 0x20 PUSH1 0x0 KECCAK256 SWAP1 JUMPDEST DUP2 SLOAD DUP2 MSTORE SWAP1 PUSH1 0x1 ADD SWAP1 PUSH1 0x20 ADD DUP1 DUP4 GT PUSH2 0x6BB JUMPI DUP3 SWAP1 SUB PUSH1 0x1F AND DUP3 ADD SWAP2 JUMPDEST POP POP POP POP POP DUP2 JUMP JUMPDEST POP DUP1 SLOAD PUSH2 0x6EC SWAP1 PUSH2 0xB7D JUMP JUMPDEST PUSH1 0x0 DUP3 SSTORE DUP1 PUSH1 0x1F LT PUSH2 0x6FE JUMPI POP PUSH2 0x71D JUMP JUMPDEST PUSH1 0x1F ADD PUSH1 0x20 SWAP1 DIV SWAP1 PUSH1 0x0 MSTORE PUSH1 0x20 PUSH1 0x0 KECCAK256 SWAP1 DUP2 ADD SWAP1 PUSH2 0x71C SWAP2 SWAP1 PUSH2 0x720 JUMP JUMPDEST JUMPDEST POP JUMP JUMPDEST JUMPDEST DUP1 DUP3 GT ISZERO PUSH2 0x739 JUMPI PUSH1 0x0 DUP2 PUSH1 0x0 SWAP1 SSTORE POP PUSH1 0x1 ADD PUSH2 0x721 JUMP JUMPDEST POP SWAP1 JUMP JUMPDEST PUSH1 0x0 PUSH1 0x40 MLOAD SWAP1 POP SWAP1 JUMP JUMPDEST PUSH1 0x0 DUP1 REVERT JUMPDEST PUSH1 0x0 DUP1 REVERT JUMPDEST PUSH1 0x0 DUP1 REVERT JUMPDEST PUSH1 0x0 DUP1 REVERT JUMPDEST PUSH1 0x0 PUSH1 0x1F NOT PUSH1 0x1F DUP4 ADD AND SWAP1 POP SWAP2 SWAP1 POP JUMP JUMPDEST PUSH32 0x4E487B7100000000000000000000000000000000000000000000000000000000 PUSH1 0x0 MSTORE PUSH1 0x41 PUSH1 0x4 MSTORE PUSH1 0x24 PUSH1 0x0 REVERT JUMPDEST PUSH2 0x7A4 DUP3 PUSH2 0x75B JUMP JUMPDEST DUP2 ADD DUP2 DUP2 LT PUSH8 0xFFFFFFFFFFFFFFFF DUP3 GT OR ISZERO PUSH2 0x7C3 JUMPI PUSH2 0x7C2 PUSH2 0x76C JUMP JUMPDEST JUMPDEST DUP1 PUSH1 0x40 MSTORE POP POP POP JUMP JUMPDEST PUSH1 0x0 PUSH2 0x7D6 PUSH2 0x73D JUMP JUMPDEST SWAP1 POP PUSH2 0x7E2 DUP3 DUP3 PUSH2 0x79B JUMP JUMPDEST SWAP2 SWAP1 POP JUMP JUMPDEST PUSH1 0x0 PUSH8 0xFFFFFFFFFFFFFFFF DUP3 GT ISZERO PUSH2 0x802 JUMPI PUSH2 0x801 PUSH2 0x76C JUMP JUMPDEST JUMPDEST PUSH2 0x80B DUP3 PUSH2 0x75B JUMP JUMPDEST SWAP1 POP PUSH1 0x20 DUP2 ADD SWAP1 POP SWAP2 SWAP1 POP JUMP JUMPDEST DUP3 DUP2 DUP4 CALLDATACOPY PUSH1 0x0 DUP4 DUP4 ADD MSTORE POP POP POP JUMP JUMPDEST PUSH1 0x0 PUSH2 0x83A PUSH2 0x835 DUP5 PUSH2 0x7E7 JUMP JUMPDEST PUSH2 0x7CC JUMP JUMPDEST SWAP1 POP DUP3 DUP2 MSTORE PUSH1 0x20 DUP2 ADD DUP5 DUP5 DUP5 ADD GT ISZERO PUSH2 0x856 JUMPI PUSH2 0x855 PUSH2 0x756 JUMP JUMPDEST JUMPDEST PUSH2 0x861 DUP5 DUP3 DUP6 PUSH2 0x818 JUMP JUMPDEST POP SWAP4 SWAP3 POP POP POP JUMP JUMPDEST PUSH1 0x0 DUP3 PUSH1 0x1F DUP4 ADD SLT PUSH2 0x87E JUMPI PUSH2 0x87D PUSH2 0x751 JUMP JUMPDEST JUMPDEST DUP2 CALLDATALOAD PUSH2 0x88E DUP5 DUP3 PUSH1 0x20 DUP7 ADD PUSH2 0x827 JUMP JUMPDEST SWAP2 POP POP SWAP3 SWAP2 POP POP JUMP JUMPDEST PUSH1 0x0 PUSH1 0x20 DUP3 DUP5 SUB SLT ISZERO PUSH2 0x8AD JUMPI PUSH2 0x8AC PUSH2 0x747 JUMP JUMPDEST JUMPDEST PUSH1 0x0 DUP3 ADD CALLDATALOAD PUSH8 0xFFFFFFFFFFFFFFFF DUP2 GT ISZERO PUSH2 0x8CB JUMPI PUSH2 0x8CA PUSH2 0x74C JUMP JUMPDEST JUMPDEST PUSH2 0x8D7 DUP5 DUP3 DUP6 ADD PUSH2 0x869 JUMP JUMPDEST SWAP2 POP POP SWAP3 SWAP2 POP POP JUMP JUMPDEST PUSH1 0x0 DUP2 SWAP1 POP SWAP2 SWAP1 POP JUMP JUMPDEST PUSH2 0x8F3 DUP2 PUSH2 0x8E0 JUMP JUMPDEST DUP3 MSTORE POP POP JUMP JUMPDEST PUSH1 0x0 PUSH1 0x20 DUP3 ADD SWAP1 POP PUSH2 0x90E PUSH1 0x0 DUP4 ADD DUP5 PUSH2 0x8EA JUMP JUMPDEST SWAP3 SWAP2 POP POP JUMP JUMPDEST PUSH1 0x0 PUSH20 0xFFFFFFFFFFFFFFFFFFFFFFFFFFFFFFFFFFFFFFFF DUP3 AND SWAP1 POP SWAP2 SWAP1 POP JUMP JUMPDEST PUSH1 0x0 PUSH2 0x93F DUP3 PUSH2 0x914 JUMP JUMPDEST SWAP1 POP SWAP2 SWAP1 POP JUMP JUMPDEST PUSH2 0x94F DUP2 PUSH2 0x934 JUMP JUMPDEST DUP2 EQ PUSH2 0x95A JUMPI PUSH1 0x0 DUP1 REVERT JUMPDEST POP JUMP JUMPDEST PUSH1 0x0 DUP2 CALLDATALOAD SWAP1 POP PUSH2 0x96C DUP2 PUSH2 0x946 JUMP JUMPDEST SWAP3 SWAP2 POP POP JUMP JUMPDEST PUSH1 0x0 PUSH1 0x20 DUP3 DUP5 SUB SLT ISZERO PUSH2 0x988 JUMPI PUSH2 0x987 PUSH2 0x747 JUMP JUMPDEST JUMPDEST PUSH1 0x0 PUSH2 0x996 DUP5 DUP3 DUP6 ADD PUSH2 0x95D JUMP JUMPDEST SWAP2 POP POP SWAP3 SWAP2 POP POP JUMP JUMPDEST PUSH1 0x0 DUP2 MLOAD SWAP1 POP SWAP2 SWAP1 POP JUMP JUMPDEST PUSH1 0x0 DUP3 DUP3 MSTORE PUSH1 0x20 DUP3 ADD SWAP1 POP SWAP3 SWAP2 POP POP JUMP JUMPDEST PUSH1 0x0 JUMPDEST DUP4 DUP2 LT ISZERO PUSH2 0x9D9 JUMPI DUP1 DUP3 ADD MLOAD DUP2 DUP5 ADD MSTORE PUSH1 0x20 DUP2 ADD SWAP1 POP PUSH2 0x9BE JUMP JUMPDEST PUSH1 0x0 DUP5 DUP5 ADD MSTORE POP POP POP POP JUMP JUMPDEST PUSH1 0x0 PUSH2 0x9F0 DUP3 PUSH2 0x99F JUMP JUMPDEST PUSH2 0x9FA DUP2 DUP6 PUSH2 0x9AA JUMP JUMPDEST SWAP4 POP PUSH2 0xA0A DUP2 DUP6 PUSH1 0x20 DUP7 ADD PUSH2 0x9BB JUMP JUMPDEST PUSH2 0xA13 DUP2 PUSH2 0x75B JUMP JUMPDEST DUP5 ADD SWAP2 POP POP SWAP3 SWAP2 POP POP JUMP JUMPDEST PUSH1 0x0 PUSH1 0x20 DUP3 ADD SWAP1 POP DUP2 DUP2 SUB PUSH1 0x0 DUP4 ADD MSTORE PUSH2 0xA38 DUP2 DUP5 PUSH2 0x9E5 JUMP JUMPDEST SWAP1 POP SWAP3 SWAP2 POP POP JUMP JUMPDEST PUSH1 0x0 DUP2 ISZERO ISZERO SWAP1 POP SWAP2 SWAP1 POP JUMP JUMPDEST PUSH2 0xA55 DUP2 PUSH2 0xA40 JUMP JUMPDEST DUP3 MSTORE POP POP JUMP JUMPDEST PUSH1 0x0 PUSH1 0x20 DUP3 ADD SWAP1 POP PUSH2 0xA70 PUSH1 0x0 DUP4 ADD DUP5 PUSH2 0xA4C JUMP JUMPDEST SWAP3 SWAP2 POP POP JUMP JUMPDEST PUSH32 0x4E616D652073686F756C64206E6F7420626520656D7074790000000000000000 PUSH1 0x0 DUP3 ADD MSTORE POP JUMP JUMPDEST PUSH1 0x0 PUSH2 0xAAC PUSH1 0x18 DUP4 PUSH2 0x9AA JUMP JUMPDEST SWAP2 POP PUSH2 0xAB7 DUP3 PUSH2 0xA76 JUMP JUMPDEST PUSH1 0x20 DUP3 ADD SWAP1 POP SWAP2 SWAP1 POP JUMP JUMPDEST PUSH1 0x0 PUSH1 0x20 DUP3 ADD SWAP1 POP DUP2 DUP2 SUB PUSH1 0x0 DUP4 ADD MSTORE PUSH2 0xADB DUP2 PUSH2 0xA9F JUMP JUMPDEST SWAP1 POP SWAP2 SWAP1 POP JUMP JUMPDEST PUSH32 0x4164647265737320697320616C72656164792072656769737465726564000000 PUSH1 0x0 DUP3 ADD MSTORE POP JUMP JUMPDEST PUSH1 0x0 PUSH2 0xB18 PUSH1 0x1D DUP4 PUSH2 0x9AA JUMP JUMPDEST SWAP2 POP PUSH2 0xB23 DUP3 PUSH2 0xAE2 JUMP JUMPDEST PUSH1 0x20 DUP3 ADD SWAP1 POP SWAP2 SWAP1 POP JUMP JUMPDEST PUSH1 0x0 PUSH1 0x20 DUP3 ADD SWAP1 POP DUP2 DUP2 SUB PUSH1 0x0 DUP4 ADD MSTORE PUSH2 0xB47 DUP2 PUSH2 0xB0B JUMP JUMPDEST SWAP1 POP SWAP2 SWAP1 POP JUMP JUMPDEST PUSH32 0x4E487B7100000000000000000000000000000000000000000000000000000000 PUSH1 0x0 MSTORE PUSH1 0x22 PUSH1 0x4 MSTORE PUSH1 0x24 PUSH1 0x0 REVERT JUMPDEST PUSH1 0x0 PUSH1 0x2 DUP3 DIV SWAP1 POP PUSH1 0x1 DUP3 AND DUP1 PUSH2 0xB95 JUMPI PUSH1 0x7F DUP3 AND SWAP2 POP JUMPDEST PUSH1 0x20 DUP3 LT DUP2 SUB PUSH2 0xBA8 JUMPI PUSH2 0xBA7 PUSH2 0xB4E JUMP JUMPDEST JUMPDEST POP SWAP2 SWAP1 POP JUMP JUMPDEST PUSH1 0x0 DUP2 SWAP1 POP DUP2 PUSH1 0x0 MSTORE PUSH1 0x20 PUSH1 0x0 KECCAK256 SWAP1 POP SWAP2 SWAP1 POP JUMP JUMPDEST PUSH1 0x0 PUSH1 0x20 PUSH1 0x1F DUP4 ADD DIV SWAP1 POP SWAP2 SWAP1 POP JUMP JUMPDEST PUSH1 0x0 DUP3 DUP3 SHL SWAP1 POP SWAP3 SWAP2 POP POP JUMP JUMPDEST PUSH1 0x0 PUSH1 0x8 DUP4 MUL PUSH2 0xC10 PUSH32 0xFFFFFFFFFFFFFFFFFFFFFFFFFFFFFFFFFFFFFFFFFFFFFFFFFFFFFFFFFFFFFFFF DUP3 PUSH2 0xBD3 JUMP JUMPDEST PUSH2 0xC1A DUP7 DUP4 PUSH2 0xBD3 JUMP JUMPDEST SWAP6 POP DUP1 NOT DUP5 AND SWAP4 POP DUP1 DUP7 AND DUP5 OR SWAP3 POP POP POP SWAP4 SWAP3 POP POP POP JUMP JUMPDEST PUSH1 0x0 DUP2 SWAP1 POP SWAP2 SWAP1 POP JUMP JUMPDEST PUSH1 0x0 PUSH2 0xC57 PUSH2 0xC52 PUSH2 0xC4D DUP5 PUSH2 0x8E0 JUMP JUMPDEST PUSH2 0xC32 JUMP JUMPDEST PUSH2 0x8E0 JUMP JUMPDEST SWAP1 POP SWAP2 SWAP1 POP JUMP JUMPDEST PUSH1 0x0 DUP2 SWAP1 POP SWAP2 SWAP1 POP JUMP JUMPDEST PUSH2 0xC71 DUP4 PUSH2 0xC3C JUMP JUMPDEST PUSH2 0xC85 PUSH2 0xC7D DUP3 PUSH2 0xC5E JUMP JUMPDEST DUP5 DUP5 SLOAD PUSH2 0xBE0 JUMP JUMPDEST DUP3 SSTORE POP POP POP POP JUMP JUMPDEST PUSH1 0x0 SWAP1 JUMP JUMPDEST PUSH2 0xC9A PUSH2 0xC8D JUMP JUMPDEST PUSH2 0xCA5 DUP2 DUP5 DUP5 PUSH2 0xC68 JUMP JUMPDEST POP POP POP JUMP JUMPDEST JUMPDEST DUP2 DUP2 LT ISZERO PUSH2 0xCC9 JUMPI PUSH2 0xCBE PUSH1 0x0 DUP3 PUSH2 0xC92 JUMP JUMPDEST PUSH1 0x1 DUP2 ADD SWAP1 POP PUSH2 0xCAB JUMP JUMPDEST POP POP JUMP JUMPDEST PUSH1 0x1F DUP3 GT ISZERO PUSH2 0xD0E JUMPI PUSH2 0xCDF DUP2 PUSH2 0xBAE JUMP JUMPDEST PUSH2 0xCE8 DUP5 PUSH2 0xBC3 JUMP JUMPDEST DUP2 ADD PUSH1 0x20 DUP6 LT ISZERO PUSH2 0xCF7 JUMPI DUP2 SWAP1 POP JUMPDEST PUSH2 0xD0B PUSH2 0xD03 DUP6 PUSH2 0xBC3 JUMP JUMPDEST DUP4 ADD DUP3 PUSH2 0xCAA JUMP JUMPDEST POP POP JUMPDEST POP POP POP JUMP JUMPDEST PUSH1 0x0 DUP3 DUP3 SHR SWAP1 POP SWAP3 SWAP2 POP POP JUMP JUMPDEST PUSH1 0x0 PUSH2 0xD31 PUSH1 0x0 NOT DUP5 PUSH1 0x8 MUL PUSH2 0xD13 JUMP JUMPDEST NOT DUP1 DUP4 AND SWAP2 POP POP SWAP3 SWAP2 POP POP JUMP JUMPDEST PUSH1 0x0 PUSH2 0xD4A DUP4 DUP4 PUSH2 0xD20 JUMP JUMPDEST SWAP2 POP DUP3 PUSH1 0x2 MUL DUP3 OR SWAP1 POP SWAP3 SWAP2 POP POP JUMP JUMPDEST PUSH2 0xD63 DUP3 PUSH2 0x99F JUMP JUMPDEST PUSH8 0xFFFFFFFFFFFFFFFF DUP2 GT ISZERO PUSH2 0xD7C JUMPI PUSH2 0xD7B PUSH2 0x76C JUMP JUMPDEST JUMPDEST PUSH2 0xD86 DUP3 SLOAD PUSH2 0xB7D JUMP JUMPDEST PUSH2 0xD91 DUP3 DUP3 DUP6 PUSH2 0xCCD JUMP JUMPDEST PUSH1 0x0 PUSH1 0x20 SWAP1 POP PUSH1 0x1F DUP4 GT PUSH1 0x1 DUP2 EQ PUSH2 0xDC4 JUMPI PUSH1 0x0 DUP5 ISZERO PUSH2 0xDB2 JUMPI DUP3 DUP8 ADD MLOAD SWAP1 POP JUMPDEST PUSH2 0xDBC DUP6 DUP3 PUSH2 0xD3E JUMP JUMPDEST DUP7 SSTORE POP PUSH2 0xE24 JUMP JUMPDEST PUSH1 0x1F NOT DUP5 AND PUSH2 0xDD2 DUP7 PUSH2 0xBAE JUMP JUMPDEST PUSH1 0x0 JUMPDEST DUP3 DUP2 LT ISZERO PUSH2 0xDFA JUMPI DUP5 DUP10 ADD MLOAD DUP3 SSTORE PUSH1 0x1 DUP3 ADD SWAP2 POP PUSH1 0x20 DUP6 ADD SWAP5 POP PUSH1 0x20 DUP2 ADD SWAP1 POP PUSH2 0xDD5 JUMP JUMPDEST DUP7 DUP4 LT ISZERO PUSH2 0xE17 JUMPI DUP5 DUP10 ADD MLOAD PUSH2 0xE13 PUSH1 0x1F DUP10 AND DUP3 PUSH2 0xD20 JUMP JUMPDEST DUP4 SSTORE POP JUMPDEST PUSH1 0x1 PUSH1 0x2 DUP9 MUL ADD DUP9 SSTORE POP POP POP JUMPDEST POP POP POP POP POP POP JUMP INVALID LOG2 PUSH5 0x6970667358 0x22 SLT KECCAK256 XOR SWAP3 DUP9 LT 0xBE 0xC SWAP7 SWAP12 CALLVALUE 0xDD GAS DUP10 PUSH22 0xD3D102F5C0501AB3F0A210E87FBEAA05F59B8064736F PUSH13 0x63430008120033000000000000 "
				},
				"gasEstimates": {
					"creation": {
						"codeDepositCost": "736400",
						"executionCost": "773",
						"totalCost": "737173"
					},
					"external": {
						"addressToName(address)": "infinite",
						"deregisterName()": "infinite",
						"getName(address)": "infinite",
						"isDeregistered(address)": "2889",
						"isRegistered(address)": "2911",
						"registerName(string)": "infinite"
					}
				},
				"methodIdentifiers": {
					"addressToName(address)": "e2a04b62",
					"deregisterName()": "0d5fba83",
					"getName(address)": "5fd4b08a",
					"isDeregistered(address)": "8020fc1f",
					"isRegistered(address)": "c3c5a547",
					"registerName(string)": "0830602b"
				}
			},
			"storageLayout": {
				"storage": [
					{
						"astId": 5,
						"contract": "contracts/ethtest2.sol:NameRegistry",
						"label": "addressToName",
						"offset": 0,
						"slot": "0",
						"type": "t_mapping(t_address,t_string_storage)"
					},
					{
						"astId": 9,
						"contract": "contracts/ethtest2.sol:NameRegistry",
						"label": "isRegistered",
						"offset": 0,
						"slot": "1",
						"type": "t_mapping(t_address,t_bool)"
					},
					{
						"astId": 13,
						"contract": "contracts/ethtest2.sol:NameRegistry",
						"label": "isDeregistered",
						"offset": 0,
						"slot": "2",
						"type": "t_mapping(t_address,t_bool)"
					}
				],
				"types": {
					"t_address": {
						"encoding": "inplace",
						"label": "address",
						"numberOfBytes": "20"
					},
					"t_bool": {
						"encoding": "inplace",
						"label": "bool",
						"numberOfBytes": "1"
					},
					"t_mapping(t_address,t_bool)": {
						"encoding": "mapping",
						"key": "t_address",
						"label": "mapping(address => bool)",
						"numberOfBytes": "32",
						"value": "t_bool"
					},
					"t_mapping(t_address,t_string_storage)": {
						"encoding": "mapping",
						"key": "t_address",
						"label": "mapping(address => string)",
						"numberOfBytes": "32",
						"value": "t_string_storage"
					},
					"t_string_storage": {
						"encoding": "bytes",
						"label": "string",
						"numberOfBytes": "32"
					}
				}
			},
			"userdoc": {
				"kind": "user",
				"methods": {},
				"version": 1
			}
		}
	}
}