{
	"contracts/approve.sol": {
		"AccessControlMixin": {
			"abi": [
				{
					"anonymous": false,
					"inputs": [
						{
							"indexed": true,
							"internalType": "bytes32",
							"name": "role",
							"type": "bytes32"
						},
						{
							"indexed": true,
							"internalType": "bytes32",
							"name": "previousAdminRole",
							"type": "bytes32"
						},
						{
							"indexed": true,
							"internalType": "bytes32",
							"name": "newAdminRole",
							"type": "bytes32"
						}
					],
					"name": "RoleAdminChanged",
					"type": "event"
				},
				{
					"anonymous": false,
					"inputs": [
						{
							"indexed": true,
							"internalType": "bytes32",
							"name": "role",
							"type": "bytes32"
						},
						{
							"indexed": true,
							"internalType": "address",
							"name": "account",
							"type": "address"
						},
						{
							"indexed": true,
							"internalType": "address",
							"name": "sender",
							"type": "address"
						}
					],
					"name": "RoleGranted",
					"type": "event"
				},
				{
					"anonymous": false,
					"inputs": [
						{
							"indexed": true,
							"internalType": "bytes32",
							"name": "role",
							"type": "bytes32"
						},
						{
							"indexed": true,
							"internalType": "address",
							"name": "account",
							"type": "address"
						},
						{
							"indexed": true,
							"internalType": "address",
							"name": "sender",
							"type": "address"
						}
					],
					"name": "RoleRevoked",
					"type": "event"
				},
				{
					"inputs": [],
					"name": "DEFAULT_ADMIN_ROLE",
					"outputs": [
						{
							"internalType": "bytes32",
							"name": "",
							"type": "bytes32"
						}
					],
					"stateMutability": "view",
					"type": "function"
				},
				{
					"inputs": [
						{
							"internalType": "bytes32",
							"name": "role",
							"type": "bytes32"
						}
					],
					"name": "getRoleAdmin",
					"outputs": [
						{
							"internalType": "bytes32",
							"name": "",
							"type": "bytes32"
						}
					],
					"stateMutability": "view",
					"type": "function"
				},
				{
					"inputs": [
						{
							"internalType": "bytes32",
							"name": "role",
							"type": "bytes32"
						},
						{
							"internalType": "uint256",
							"name": "index",
							"type": "uint256"
						}
					],
					"name": "getRoleMember",
					"outputs": [
						{
							"internalType": "address",
							"name": "",
							"type": "address"
						}
					],
					"stateMutability": "view",
					"type": "function"
				},
				{
					"inputs": [
						{
							"internalType": "bytes32",
							"name": "role",
							"type": "bytes32"
						}
					],
					"name": "getRoleMemberCount",
					"outputs": [
						{
							"internalType": "uint256",
							"name": "",
							"type": "uint256"
						}
					],
					"stateMutability": "view",
					"type": "function"
				},
				{
					"inputs": [
						{
							"internalType": "bytes32",
							"name": "role",
							"type": "bytes32"
						},
						{
							"internalType": "address",
							"name": "account",
							"type": "address"
						}
					],
					"name": "grantRole",
					"outputs": [],
					"stateMutability": "nonpayable",
					"type": "function"
				},
				{
					"inputs": [
						{
							"internalType": "bytes32",
							"name": "role",
							"type": "bytes32"
						},
						{
							"internalType": "address",
							"name": "account",
							"type": "address"
						}
					],
					"name": "hasRole",
					"outputs": [
						{
							"internalType": "bool",
							"name": "",
							"type": "bool"
						}
					],
					"stateMutability": "view",
					"type": "function"
				},
				{
					"inputs": [
						{
							"internalType": "bytes32",
							"name": "role",
							"type": "bytes32"
						},
						{
							"internalType": "address",
							"name": "account",
							"type": "address"
						}
					],
					"name": "renounceRole",
					"outputs": [],
					"stateMutability": "nonpayable",
					"type": "function"
				},
				{
					"inputs": [
						{
							"internalType": "bytes32",
							"name": "role",
							"type": "bytes32"
						},
						{
							"internalType": "address",
							"name": "account",
							"type": "address"
						}
					],
					"name": "revokeRole",
					"outputs": [],
					"stateMutability": "nonpayable",
					"type": "function"
				}
			],
			"devdoc": {
				"methods": {
					"getRoleAdmin(bytes32)": {
						"details": "Returns the admin role that controls `role`. See {grantRole} and {revokeRole}.      * To change a role's admin, use {_setRoleAdmin}."
					},
					"getRoleMember(bytes32,uint256)": {
						"details": "Returns one of the accounts that have `role`. `index` must be a value between 0 and {getRoleMemberCount}, non-inclusive.      * Role bearers are not sorted in any particular way, and their ordering may change at any point.      * WARNING: When using {getRoleMember} and {getRoleMemberCount}, make sure you perform all queries on the same block. See the following https://forum.openzeppelin.com/t/iterating-over-elements-on-enumerableset-in-openzeppelin-contracts/2296[forum post] for more information."
					},
					"getRoleMemberCount(bytes32)": {
						"details": "Returns the number of accounts that have `role`. Can be used together with {getRoleMember} to enumerate all bearers of a role."
					},
					"grantRole(bytes32,address)": {
						"details": "Grants `role` to `account`.      * If `account` had not been already granted `role`, emits a {RoleGranted} event.      * Requirements:      * - the caller must have ``role``'s admin role."
					},
					"hasRole(bytes32,address)": {
						"details": "Returns `true` if `account` has been granted `role`."
					},
					"renounceRole(bytes32,address)": {
						"details": "Revokes `role` from the calling account.      * Roles are often managed via {grantRole} and {revokeRole}: this function's purpose is to provide a mechanism for accounts to lose their privileges if they are compromised (such as when a trusted device is misplaced).      * If the calling account had been granted `role`, emits a {RoleRevoked} event.      * Requirements:      * - the caller must be `account`."
					},
					"revokeRole(bytes32,address)": {
						"details": "Revokes `role` from `account`.      * If `account` had been granted `role`, emits a {RoleRevoked} event.      * Requirements:      * - the caller must have ``role``'s admin role."
					}
				}
			},
			"evm": {
				"assembly": "    /* \"contracts/approve.sol\":43000:43398  contract AccessControlMixin is AccessControl {\r... */\n  mstore(0x40, 0x80)\n  callvalue\n    /* \"--CODEGEN--\":5:14   */\n  dup1\n    /* \"--CODEGEN--\":2:4   */\n  iszero\n  tag_1\n  jumpi\n    /* \"--CODEGEN--\":27:28   */\n  0x00\n    /* \"--CODEGEN--\":24:25   */\n  dup1\n    /* \"--CODEGEN--\":17:29   */\n  revert\n    /* \"--CODEGEN--\":2:4   */\ntag_1:\n    /* \"contracts/approve.sol\":43000:43398  contract AccessControlMixin is AccessControl {\r... */\n  pop\n  dataSize(sub_0)\n  dup1\n  dataOffset(sub_0)\n  0x00\n  codecopy\n  0x00\n  return\nstop\n\nsub_0: assembly {\n        /* \"contracts/approve.sol\":43000:43398  contract AccessControlMixin is AccessControl {\r... */\n      mstore(0x40, 0x80)\n      callvalue\n        /* \"--CODEGEN--\":5:14   */\n      dup1\n        /* \"--CODEGEN--\":2:4   */\n      iszero\n      tag_1\n      jumpi\n        /* \"--CODEGEN--\":27:28   */\n      0x00\n        /* \"--CODEGEN--\":24:25   */\n      dup1\n        /* \"--CODEGEN--\":17:29   */\n      revert\n        /* \"--CODEGEN--\":2:4   */\n    tag_1:\n        /* \"contracts/approve.sol\":43000:43398  contract AccessControlMixin is AccessControl {\r... */\n      pop\n      jumpi(tag_2, lt(calldatasize, 0x04))\n      shr(0xe0, calldataload(0x00))\n      dup1\n      0x91d14854\n      gt\n      tag_11\n      jumpi\n      dup1\n      0x91d14854\n      eq\n      tag_7\n      jumpi\n      dup1\n      0xa217fddf\n      eq\n      tag_8\n      jumpi\n      dup1\n      0xca15c873\n      eq\n      tag_9\n      jumpi\n      dup1\n      0xd547741f\n      eq\n      tag_10\n      jumpi\n      jump(tag_2)\n    tag_11:\n      dup1\n      0x248a9ca3\n      eq\n      tag_3\n      jumpi\n      dup1\n      0x2f2ff15d\n      eq\n      tag_4\n      jumpi\n      dup1\n      0x36568abe\n      eq\n      tag_5\n      jumpi\n      dup1\n      0x9010d07c\n      eq\n      tag_6\n      jumpi\n    tag_2:\n        /* \"--CODEGEN--\":12:13   */\n      0x00\n        /* \"--CODEGEN--\":9:10   */\n      dup1\n        /* \"--CODEGEN--\":2:14   */\n      revert\n        /* \"contracts/approve.sol\":39697:39811  function getRoleAdmin(bytes32 role) public view returns (bytes32) {\r... */\n    tag_3:\n      tag_12\n      0x04\n      dup1\n      calldatasize\n      sub\n        /* \"--CODEGEN--\":15:17   */\n      0x20\n        /* \"--CODEGEN--\":10:13   */\n      dup2\n        /* \"--CODEGEN--\":7:18   */\n      lt\n        /* \"--CODEGEN--\":4:6   */\n      iszero\n      tag_13\n      jumpi\n        /* \"--CODEGEN--\":31:32   */\n      0x00\n        /* \"--CODEGEN--\":28:29   */\n      dup1\n        /* \"--CODEGEN--\":21:33   */\n      revert\n        /* \"--CODEGEN--\":4:6   */\n    tag_13:\n        /* \"contracts/approve.sol\":39697:39811  function getRoleAdmin(bytes32 role) public view returns (bytes32) {\r... */\n      dup2\n      add\n      swap1\n      dup1\n      dup1\n      calldataload\n      swap1\n      0x20\n      add\n      swap1\n      swap3\n      swap2\n      swap1\n      pop\n      pop\n      pop\n      tag_14\n      jump\t// in\n    tag_12:\n      mload(0x40)\n      dup1\n      dup3\n      dup2\n      mstore\n      0x20\n      add\n      swap2\n      pop\n      pop\n      mload(0x40)\n      dup1\n      swap2\n      sub\n      swap1\n      return\n        /* \"contracts/approve.sol\":40073:40300  function grantRole(bytes32 role, address account) public virtual {\r... */\n    tag_4:\n      tag_15\n      0x04\n      dup1\n      calldatasize\n      sub\n        /* \"--CODEGEN--\":15:17   */\n      0x40\n        /* \"--CODEGEN--\":10:13   */\n      dup2\n        /* \"--CODEGEN--\":7:18   */\n      lt\n        /* \"--CODEGEN--\":4:6   */\n      iszero\n      tag_16\n      jumpi\n        /* \"--CODEGEN--\":31:32   */\n      0x00\n        /* \"--CODEGEN--\":28:29   */\n      dup1\n        /* \"--CODEGEN--\":21:33   */\n      revert\n        /* \"--CODEGEN--\":4:6   */\n    tag_16:\n        /* \"contracts/approve.sol\":40073:40300  function grantRole(bytes32 role, address account) public virtual {\r... */\n      dup2\n      add\n      swap1\n      dup1\n      dup1\n      calldataload\n      swap1\n      0x20\n      add\n      swap1\n      swap3\n      swap2\n      swap1\n      dup1\n      calldataload\n      0xffffffffffffffffffffffffffffffffffffffff\n      and\n      swap1\n      0x20\n      add\n      swap1\n      swap3\n      swap2\n      swap1\n      pop\n      pop\n      pop\n      tag_17\n      jump\t// in\n    tag_15:\n      stop\n        /* \"contracts/approve.sol\":41282:41491  function renounceRole(bytes32 role, address account) public virtual {\r... */\n    tag_5:\n      tag_18\n      0x04\n      dup1\n      calldatasize\n      sub\n        /* \"--CODEGEN--\":15:17   */\n      0x40\n        /* \"--CODEGEN--\":10:13   */\n      dup2\n        /* \"--CODEGEN--\":7:18   */\n      lt\n        /* \"--CODEGEN--\":4:6   */\n      iszero\n      tag_19\n      jumpi\n        /* \"--CODEGEN--\":31:32   */\n      0x00\n        /* \"--CODEGEN--\":28:29   */\n      dup1\n        /* \"--CODEGEN--\":21:33   */\n      revert\n        /* \"--CODEGEN--\":4:6   */\n    tag_19:\n        /* \"contracts/approve.sol\":41282:41491  function renounceRole(bytes32 role, address account) public virtual {\r... */\n      dup2\n      add\n      swap1\n      dup1\n      dup1\n      calldataload\n      swap1\n      0x20\n      add\n      swap1\n      swap3\n      swap2\n      swap1\n      dup1\n      calldataload\n      0xffffffffffffffffffffffffffffffffffffffff\n      and\n      swap1\n      0x20\n      add\n      swap1\n      swap3\n      swap2\n      swap1\n      pop\n      pop\n      pop\n      tag_20\n      jump\t// in\n    tag_18:\n      stop\n        /* \"contracts/approve.sol\":39370:39508  function getRoleMember(bytes32 role, uint256 index) public view returns (address) {\r... */\n    tag_6:\n      tag_21\n      0x04\n      dup1\n      calldatasize\n      sub\n        /* \"--CODEGEN--\":15:17   */\n      0x40\n        /* \"--CODEGEN--\":10:13   */\n      dup2\n        /* \"--CODEGEN--\":7:18   */\n      lt\n        /* \"--CODEGEN--\":4:6   */\n      iszero\n      tag_22\n      jumpi\n        /* \"--CODEGEN--\":31:32   */\n      0x00\n        /* \"--CODEGEN--\":28:29   */\n      dup1\n        /* \"--CODEGEN--\":21:33   */\n      revert\n        /* \"--CODEGEN--\":4:6   */\n    tag_22:\n        /* \"contracts/approve.sol\":39370:39508  function getRoleMember(bytes32 role, uint256 index) public view returns (address) {\r... */\n      dup2\n      add\n      swap1\n      dup1\n      dup1\n      calldataload\n      swap1\n      0x20\n      add\n      swap1\n      swap3\n      swap2\n      swap1\n      dup1\n      calldataload\n      swap1\n      0x20\n      add\n      swap1\n      swap3\n      swap2\n      swap1\n      pop\n      pop\n      pop\n      tag_23\n      jump\t// in\n    tag_21:\n      mload(0x40)\n      dup1\n      dup3\n      0xffffffffffffffffffffffffffffffffffffffff\n      and\n      0xffffffffffffffffffffffffffffffffffffffff\n      and\n      dup2\n      mstore\n      0x20\n      add\n      swap2\n      pop\n      pop\n      mload(0x40)\n      dup1\n      swap2\n      sub\n      swap1\n      return\n        /* \"contracts/approve.sol\":38331:38470  function hasRole(bytes32 role, address account) public view returns (bool) {\r... */\n    tag_7:\n      tag_24\n      0x04\n      dup1\n      calldatasize\n      sub\n        /* \"--CODEGEN--\":15:17   */\n      0x40\n        /* \"--CODEGEN--\":10:13   */\n      dup2\n        /* \"--CODEGEN--\":7:18   */\n      lt\n        /* \"--CODEGEN--\":4:6   */\n      iszero\n      tag_25\n      jumpi\n        /* \"--CODEGEN--\":31:32   */\n      0x00\n        /* \"--CODEGEN--\":28:29   */\n      dup1\n        /* \"--CODEGEN--\":21:33   */\n      revert\n        /* \"--CODEGEN--\":4:6   */\n    tag_25:\n        /* \"contracts/approve.sol\":38331:38470  function hasRole(bytes32 role, address account) public view returns (bool) {\r... */\n      dup2\n      add\n      swap1\n      dup1\n      dup1\n      calldataload\n      swap1\n      0x20\n      add\n      swap1\n      swap3\n      swap2\n      swap1\n      dup1\n      calldataload\n      0xffffffffffffffffffffffffffffffffffffffff\n      and\n      swap1\n      0x20\n      add\n      swap1\n      swap3\n      swap2\n      swap1\n      pop\n      pop\n      pop\n      tag_26\n      jump\t// in\n    tag_24:\n      mload(0x40)\n      dup1\n      dup3\n      iszero\n      iszero\n      iszero\n      iszero\n      dup2\n      mstore\n      0x20\n      add\n      swap2\n      pop\n      pop\n      mload(0x40)\n      dup1\n      swap2\n      sub\n      swap1\n      return\n        /* \"contracts/approve.sol\":37076:37125  bytes32 public constant DEFAULT_ADMIN_ROLE = 0x00 */\n    tag_8:\n      tag_27\n      tag_28\n      jump\t// in\n    tag_27:\n      mload(0x40)\n      dup1\n      dup3\n      dup2\n      mstore\n      0x20\n      add\n      swap2\n      pop\n      pop\n      mload(0x40)\n      dup1\n      swap2\n      sub\n      swap1\n      return\n        /* \"contracts/approve.sol\":38644:38771  function getRoleMemberCount(bytes32 role) public view returns (uint256) {\r... */\n    tag_9:\n      tag_29\n      0x04\n      dup1\n      calldatasize\n      sub\n        /* \"--CODEGEN--\":15:17   */\n      0x20\n        /* \"--CODEGEN--\":10:13   */\n      dup2\n        /* \"--CODEGEN--\":7:18   */\n      lt\n        /* \"--CODEGEN--\":4:6   */\n      iszero\n      tag_30\n      jumpi\n        /* \"--CODEGEN--\":31:32   */\n      0x00\n        /* \"--CODEGEN--\":28:29   */\n      dup1\n        /* \"--CODEGEN--\":21:33   */\n      revert\n        /* \"--CODEGEN--\":4:6   */\n    tag_30:\n        /* \"contracts/approve.sol\":38644:38771  function getRoleMemberCount(bytes32 role) public view returns (uint256) {\r... */\n      dup2\n      add\n      swap1\n      dup1\n      dup1\n      calldataload\n      swap1\n      0x20\n      add\n      swap1\n      swap3\n      swap2\n      swap1\n      pop\n      pop\n      pop\n      tag_31\n      jump\t// in\n    tag_29:\n      mload(0x40)\n      dup1\n      dup3\n      dup2\n      mstore\n      0x20\n      add\n      swap2\n      pop\n      pop\n      mload(0x40)\n      dup1\n      swap2\n      sub\n      swap1\n      return\n        /* \"contracts/approve.sol\":40545:40775  function revokeRole(bytes32 role, address account) public virtual {\r... */\n    tag_10:\n      tag_32\n      0x04\n      dup1\n      calldatasize\n      sub\n        /* \"--CODEGEN--\":15:17   */\n      0x40\n        /* \"--CODEGEN--\":10:13   */\n      dup2\n        /* \"--CODEGEN--\":7:18   */\n      lt\n        /* \"--CODEGEN--\":4:6   */\n      iszero\n      tag_33\n      jumpi\n        /* \"--CODEGEN--\":31:32   */\n      0x00\n        /* \"--CODEGEN--\":28:29   */\n      dup1\n        /* \"--CODEGEN--\":21:33   */\n      revert\n        /* \"--CODEGEN--\":4:6   */\n    tag_33:\n        /* \"contracts/approve.sol\":40545:40775  function revokeRole(bytes32 role, address account) public virtual {\r... */\n      dup2\n      add\n      swap1\n      dup1\n      dup1\n      calldataload\n      swap1\n      0x20\n      add\n      swap1\n      swap3\n      swap2\n      swap1\n      dup1\n      calldataload\n      0xffffffffffffffffffffffffffffffffffffffff\n      and\n      swap1\n      0x20\n      add\n      swap1\n      swap3\n      swap2\n      swap1\n      pop\n      pop\n      pop\n      tag_34\n      jump\t// in\n    tag_32:\n      stop\n        /* \"contracts/approve.sol\":39697:39811  function getRoleAdmin(bytes32 role) public view returns (bytes32) {\r... */\n    tag_14:\n        /* \"contracts/approve.sol\":39754:39761  bytes32 */\n      0x00\n        /* \"contracts/approve.sol\":39781:39787  _roles */\n      dup1\n        /* \"contracts/approve.sol\":39781:39793  _roles[role] */\n      0x00\n        /* \"contracts/approve.sol\":39788:39792  role */\n      dup4\n        /* \"contracts/approve.sol\":39781:39793  _roles[role] */\n      dup2\n      mstore\n      0x20\n      add\n      swap1\n      dup2\n      mstore\n      0x20\n      add\n      0x00\n      keccak256\n        /* \"contracts/approve.sol\":39781:39803  _roles[role].adminRole */\n      0x02\n      add\n      sload\n        /* \"contracts/approve.sol\":39774:39803  return _roles[role].adminRole */\n      swap1\n      pop\n        /* \"contracts/approve.sol\":39697:39811  function getRoleAdmin(bytes32 role) public view returns (bytes32) {\r... */\n      swap2\n      swap1\n      pop\n      jump\t// out\n        /* \"contracts/approve.sol\":40073:40300  function grantRole(bytes32 role, address account) public virtual {\r... */\n    tag_17:\n        /* \"contracts/approve.sol\":40157:40202  hasRole(_roles[role].adminRole, _msgSender()) */\n      tag_37\n        /* \"contracts/approve.sol\":40165:40171  _roles */\n      0x00\n        /* \"contracts/approve.sol\":40165:40177  _roles[role] */\n      dup1\n        /* \"contracts/approve.sol\":40172:40176  role */\n      dup5\n        /* \"contracts/approve.sol\":40165:40177  _roles[role] */\n      dup2\n      mstore\n      0x20\n      add\n      swap1\n      dup2\n      mstore\n      0x20\n      add\n      0x00\n      keccak256\n        /* \"contracts/approve.sol\":40165:40187  _roles[role].adminRole */\n      0x02\n      add\n      sload\n        /* \"contracts/approve.sol\":40189:40201  _msgSender() */\n      tag_38\n        /* \"contracts/approve.sol\":40189:40199  _msgSender */\n      tag_39\n        /* \"contracts/approve.sol\":40189:40201  _msgSender() */\n      jump\t// in\n    tag_38:\n        /* \"contracts/approve.sol\":40157:40164  hasRole */\n      tag_26\n        /* \"contracts/approve.sol\":40157:40202  hasRole(_roles[role].adminRole, _msgSender()) */\n      jump\t// in\n    tag_37:\n        /* \"contracts/approve.sol\":40149:40254  require(hasRole(_roles[role].adminRole, _msgSender()), \"AccessControl: sender must be an admin to grant\") */\n      tag_40\n      jumpi\n      mload(0x40)\n      0x08c379a000000000000000000000000000000000000000000000000000000000\n      dup2\n      mstore\n      0x04\n      add\n      dup1\n      dup1\n      0x20\n      add\n      dup3\n      dup2\n      sub\n      dup3\n      mstore\n      0x2f\n      dup2\n      mstore\n      0x20\n      add\n      dup1\n      data_0ba7116025f1ef6b158a2bd2238e617f30e17c9e456917d901086ca4f8ad2811\n      0x2f\n      swap2\n      codecopy\n      0x40\n      add\n      swap2\n      pop\n      pop\n      mload(0x40)\n      dup1\n      swap2\n      sub\n      swap1\n      revert\n    tag_40:\n        /* \"contracts/approve.sol\":40267:40292  _grantRole(role, account) */\n      tag_41\n        /* \"contracts/approve.sol\":40278:40282  role */\n      dup3\n        /* \"contracts/approve.sol\":40284:40291  account */\n      dup3\n        /* \"contracts/approve.sol\":40267:40277  _grantRole */\n      tag_42\n        /* \"contracts/approve.sol\":40267:40292  _grantRole(role, account) */\n      jump\t// in\n    tag_41:\n        /* \"contracts/approve.sol\":40073:40300  function grantRole(bytes32 role, address account) public virtual {\r... */\n      pop\n      pop\n      jump\t// out\n        /* \"contracts/approve.sol\":41282:41491  function renounceRole(bytes32 role, address account) public virtual {\r... */\n    tag_20:\n        /* \"contracts/approve.sol\":41380:41392  _msgSender() */\n      tag_44\n        /* \"contracts/approve.sol\":41380:41390  _msgSender */\n      tag_39\n        /* \"contracts/approve.sol\":41380:41392  _msgSender() */\n      jump\t// in\n    tag_44:\n        /* \"contracts/approve.sol\":41369:41392  account == _msgSender() */\n      0xffffffffffffffffffffffffffffffffffffffff\n      and\n        /* \"contracts/approve.sol\":41369:41376  account */\n      dup2\n        /* \"contracts/approve.sol\":41369:41392  account == _msgSender() */\n      0xffffffffffffffffffffffffffffffffffffffff\n      and\n      eq\n        /* \"contracts/approve.sol\":41361:41444  require(account == _msgSender(), \"AccessControl: can only renounce roles for self\") */\n      tag_45\n      jumpi\n      mload(0x40)\n      0x08c379a000000000000000000000000000000000000000000000000000000000\n      dup2\n      mstore\n      0x04\n      add\n      dup1\n      dup1\n      0x20\n      add\n      dup3\n      dup2\n      sub\n      dup3\n      mstore\n      0x2f\n      dup2\n      mstore\n      0x20\n      add\n      dup1\n      data_fb06fa8ff2141e8ed74502f6792273793f25f0e9d3cf15344f3f5a0d4948fd4b\n      0x2f\n      swap2\n      codecopy\n      0x40\n      add\n      swap2\n      pop\n      pop\n      mload(0x40)\n      dup1\n      swap2\n      sub\n      swap1\n      revert\n    tag_45:\n        /* \"contracts/approve.sol\":41457:41483  _revokeRole(role, account) */\n      tag_46\n        /* \"contracts/approve.sol\":41469:41473  role */\n      dup3\n        /* \"contracts/approve.sol\":41475:41482  account */\n      dup3\n        /* \"contracts/approve.sol\":41457:41468  _revokeRole */\n      tag_47\n        /* \"contracts/approve.sol\":41457:41483  _revokeRole(role, account) */\n      jump\t// in\n    tag_46:\n        /* \"contracts/approve.sol\":41282:41491  function renounceRole(bytes32 role, address account) public virtual {\r... */\n      pop\n      pop\n      jump\t// out\n        /* \"contracts/approve.sol\":39370:39508  function getRoleMember(bytes32 role, uint256 index) public view returns (address) {\r... */\n    tag_23:\n        /* \"contracts/approve.sol\":39443:39450  address */\n      0x00\n        /* \"contracts/approve.sol\":39470:39500  _roles[role].members.at(index) */\n      tag_49\n        /* \"contracts/approve.sol\":39494:39499  index */\n      dup3\n        /* \"contracts/approve.sol\":39470:39476  _roles */\n      0x00\n        /* \"contracts/approve.sol\":39470:39482  _roles[role] */\n      dup1\n        /* \"contracts/approve.sol\":39477:39481  role */\n      dup7\n        /* \"contracts/approve.sol\":39470:39482  _roles[role] */\n      dup2\n      mstore\n      0x20\n      add\n      swap1\n      dup2\n      mstore\n      0x20\n      add\n      0x00\n      keccak256\n        /* \"contracts/approve.sol\":39470:39490  _roles[role].members */\n      0x00\n      add\n        /* \"contracts/approve.sol\":39470:39493  _roles[role].members.at */\n      tag_50\n      swap1\n        /* \"contracts/approve.sol\":39470:39500  _roles[role].members.at(index) */\n      swap2\n      swap1\n      0xffffffff\n      and\n      jump\t// in\n    tag_49:\n        /* \"contracts/approve.sol\":39463:39500  return _roles[role].members.at(index) */\n      swap1\n      pop\n        /* \"contracts/approve.sol\":39370:39508  function getRoleMember(bytes32 role, uint256 index) public view returns (address) {\r... */\n      swap3\n      swap2\n      pop\n      pop\n      jump\t// out\n        /* \"contracts/approve.sol\":38331:38470  function hasRole(bytes32 role, address account) public view returns (bool) {\r... */\n    tag_26:\n        /* \"contracts/approve.sol\":38400:38404  bool */\n      0x00\n        /* \"contracts/approve.sol\":38424:38462  _roles[role].members.contains(account) */\n      tag_52\n        /* \"contracts/approve.sol\":38454:38461  account */\n      dup3\n        /* \"contracts/approve.sol\":38424:38430  _roles */\n      0x00\n        /* \"contracts/approve.sol\":38424:38436  _roles[role] */\n      dup1\n        /* \"contracts/approve.sol\":38431:38435  role */\n      dup7\n        /* \"contracts/approve.sol\":38424:38436  _roles[role] */\n      dup2\n      mstore\n      0x20\n      add\n      swap1\n      dup2\n      mstore\n      0x20\n      add\n      0x00\n      keccak256\n        /* \"contracts/approve.sol\":38424:38444  _roles[role].members */\n      0x00\n      add\n        /* \"contracts/approve.sol\":38424:38453  _roles[role].members.contains */\n      tag_53\n      swap1\n        /* \"contracts/approve.sol\":38424:38462  _roles[role].members.contains(account) */\n      swap2\n      swap1\n      0xffffffff\n      and\n      jump\t// in\n    tag_52:\n        /* \"contracts/approve.sol\":38417:38462  return _roles[role].members.contains(account) */\n      swap1\n      pop\n        /* \"contracts/approve.sol\":38331:38470  function hasRole(bytes32 role, address account) public view returns (bool) {\r... */\n      swap3\n      swap2\n      pop\n      pop\n      jump\t// out\n        /* \"contracts/approve.sol\":37076:37125  bytes32 public constant DEFAULT_ADMIN_ROLE = 0x00 */\n    tag_28:\n        /* \"contracts/approve.sol\":37121:37125  0x00 */\n      0x00\n        /* \"contracts/approve.sol\":37076:37125  bytes32 public constant DEFAULT_ADMIN_ROLE = 0x00 */\n      dup1\n      shl\n      dup2\n      jump\t// out\n        /* \"contracts/approve.sol\":38644:38771  function getRoleMemberCount(bytes32 role) public view returns (uint256) {\r... */\n    tag_31:\n        /* \"contracts/approve.sol\":38707:38714  uint256 */\n      0x00\n        /* \"contracts/approve.sol\":38734:38763  _roles[role].members.length() */\n      tag_55\n        /* \"contracts/approve.sol\":38734:38740  _roles */\n      0x00\n        /* \"contracts/approve.sol\":38734:38746  _roles[role] */\n      dup1\n        /* \"contracts/approve.sol\":38741:38745  role */\n      dup5\n        /* \"contracts/approve.sol\":38734:38746  _roles[role] */\n      dup2\n      mstore\n      0x20\n      add\n      swap1\n      dup2\n      mstore\n      0x20\n      add\n      0x00\n      keccak256\n        /* \"contracts/approve.sol\":38734:38754  _roles[role].members */\n      0x00\n      add\n        /* \"contracts/approve.sol\":38734:38761  _roles[role].members.length */\n      tag_56\n        /* \"contracts/approve.sol\":38734:38763  _roles[role].members.length() */\n      jump\t// in\n    tag_55:\n        /* \"contracts/approve.sol\":38727:38763  return _roles[role].members.length() */\n      swap1\n      pop\n        /* \"contracts/approve.sol\":38644:38771  function getRoleMemberCount(bytes32 role) public view returns (uint256) {\r... */\n      swap2\n      swap1\n      pop\n      jump\t// out\n        /* \"contracts/approve.sol\":40545:40775  function revokeRole(bytes32 role, address account) public virtual {\r... */\n    tag_34:\n        /* \"contracts/approve.sol\":40630:40675  hasRole(_roles[role].adminRole, _msgSender()) */\n      tag_58\n        /* \"contracts/approve.sol\":40638:40644  _roles */\n      0x00\n        /* \"contracts/approve.sol\":40638:40650  _roles[role] */\n      dup1\n        /* \"contracts/approve.sol\":40645:40649  role */\n      dup5\n        /* \"contracts/approve.sol\":40638:40650  _roles[role] */\n      dup2\n      mstore\n      0x20\n      add\n      swap1\n      dup2\n      mstore\n      0x20\n      add\n      0x00\n      keccak256\n        /* \"contracts/approve.sol\":40638:40660  _roles[role].adminRole */\n      0x02\n      add\n      sload\n        /* \"contracts/approve.sol\":40662:40674  _msgSender() */\n      tag_59\n        /* \"contracts/approve.sol\":40662:40672  _msgSender */\n      tag_39\n        /* \"contracts/approve.sol\":40662:40674  _msgSender() */\n      jump\t// in\n    tag_59:\n        /* \"contracts/approve.sol\":40630:40637  hasRole */\n      tag_26\n        /* \"contracts/approve.sol\":40630:40675  hasRole(_roles[role].adminRole, _msgSender()) */\n      jump\t// in\n    tag_58:\n        /* \"contracts/approve.sol\":40622:40728  require(hasRole(_roles[role].adminRole, _msgSender()), \"AccessControl: sender must be an admin to revoke\") */\n      tag_60\n      jumpi\n      mload(0x40)\n      0x08c379a000000000000000000000000000000000000000000000000000000000\n      dup2\n      mstore\n      0x04\n      add\n      dup1\n      dup1\n      0x20\n      add\n      dup3\n      dup2\n      sub\n      dup3\n      mstore\n      0x30\n      dup2\n      mstore\n      0x20\n      add\n      dup1\n      data_64344570eab7406ca49d34d38bf2b2496dfda914405390c5057c8b0aabf798a3\n      0x30\n      swap2\n      codecopy\n      0x40\n      add\n      swap2\n      pop\n      pop\n      mload(0x40)\n      dup1\n      swap2\n      sub\n      swap1\n      revert\n    tag_60:\n        /* \"contracts/approve.sol\":40741:40767  _revokeRole(role, account) */\n      tag_61\n        /* \"contracts/approve.sol\":40753:40757  role */\n      dup3\n        /* \"contracts/approve.sol\":40759:40766  account */\n      dup3\n        /* \"contracts/approve.sol\":40741:40752  _revokeRole */\n      tag_47\n        /* \"contracts/approve.sol\":40741:40767  _revokeRole(role, account) */\n      jump\t// in\n    tag_61:\n        /* \"contracts/approve.sol\":40545:40775  function revokeRole(bytes32 role, address account) public virtual {\r... */\n      pop\n      pop\n      jump\t// out\n        /* \"contracts/approve.sol\":731:837  function _msgSender() internal view virtual returns (address payable) {\r... */\n    tag_39:\n        /* \"contracts/approve.sol\":784:799  address payable */\n      0x00\n        /* \"contracts/approve.sol\":819:829  msg.sender */\n      caller\n        /* \"contracts/approve.sol\":812:829  return msg.sender */\n      swap1\n      pop\n        /* \"contracts/approve.sol\":731:837  function _msgSender() internal view virtual returns (address payable) {\r... */\n      swap1\n      jump\t// out\n        /* \"contracts/approve.sol\":42525:42713  function _grantRole(bytes32 role, address account) private {\r... */\n    tag_42:\n        /* \"contracts/approve.sol\":42599:42632  _roles[role].members.add(account) */\n      tag_64\n        /* \"contracts/approve.sol\":42624:42631  account */\n      dup2\n        /* \"contracts/approve.sol\":42599:42605  _roles */\n      0x00\n        /* \"contracts/approve.sol\":42599:42611  _roles[role] */\n      dup1\n        /* \"contracts/approve.sol\":42606:42610  role */\n      dup6\n        /* \"contracts/approve.sol\":42599:42611  _roles[role] */\n      dup2\n      mstore\n      0x20\n      add\n      swap1\n      dup2\n      mstore\n      0x20\n      add\n      0x00\n      keccak256\n        /* \"contracts/approve.sol\":42599:42619  _roles[role].members */\n      0x00\n      add\n        /* \"contracts/approve.sol\":42599:42623  _roles[role].members.add */\n      tag_65\n      swap1\n        /* \"contracts/approve.sol\":42599:42632  _roles[role].members.add(account) */\n      swap2\n      swap1\n      0xffffffff\n      and\n      jump\t// in\n    tag_64:\n        /* \"contracts/approve.sol\":42595:42706  if (_roles[role].members.add(account)) {\r... */\n      iszero\n      tag_66\n      jumpi\n        /* \"contracts/approve.sol\":42681:42693  _msgSender() */\n      tag_67\n        /* \"contracts/approve.sol\":42681:42691  _msgSender */\n      tag_39\n        /* \"contracts/approve.sol\":42681:42693  _msgSender() */\n      jump\t// in\n    tag_67:\n        /* \"contracts/approve.sol\":42654:42694  RoleGranted(role, account, _msgSender()) */\n      0xffffffffffffffffffffffffffffffffffffffff\n      and\n        /* \"contracts/approve.sol\":42672:42679  account */\n      dup2\n        /* \"contracts/approve.sol\":42654:42694  RoleGranted(role, account, _msgSender()) */\n      0xffffffffffffffffffffffffffffffffffffffff\n      and\n        /* \"contracts/approve.sol\":42666:42670  role */\n      dup4\n        /* \"contracts/approve.sol\":42654:42694  RoleGranted(role, account, _msgSender()) */\n      0x2f8788117e7eff1d82e926ec794901d17c78024a50270940304540a733656f0d\n      mload(0x40)\n      mload(0x40)\n      dup1\n      swap2\n      sub\n      swap1\n      log4\n        /* \"contracts/approve.sol\":42595:42706  if (_roles[role].members.add(account)) {\r... */\n    tag_66:\n        /* \"contracts/approve.sol\":42525:42713  function _grantRole(bytes32 role, address account) private {\r... */\n      pop\n      pop\n      jump\t// out\n        /* \"contracts/approve.sol\":42721:42913  function _revokeRole(bytes32 role, address account) private {\r... */\n    tag_47:\n        /* \"contracts/approve.sol\":42796:42832  _roles[role].members.remove(account) */\n      tag_69\n        /* \"contracts/approve.sol\":42824:42831  account */\n      dup2\n        /* \"contracts/approve.sol\":42796:42802  _roles */\n      0x00\n        /* \"contracts/approve.sol\":42796:42808  _roles[role] */\n      dup1\n        /* \"contracts/approve.sol\":42803:42807  role */\n      dup6\n        /* \"contracts/approve.sol\":42796:42808  _roles[role] */\n      dup2\n      mstore\n      0x20\n      add\n      swap1\n      dup2\n      mstore\n      0x20\n      add\n      0x00\n      keccak256\n        /* \"contracts/approve.sol\":42796:42816  _roles[role].members */\n      0x00\n      add\n        /* \"contracts/approve.sol\":42796:42823  _roles[role].members.remove */\n      tag_70\n      swap1\n        /* \"contracts/approve.sol\":42796:42832  _roles[role].members.remove(account) */\n      swap2\n      swap1\n      0xffffffff\n      and\n      jump\t// in\n    tag_69:\n        /* \"contracts/approve.sol\":42792:42906  if (_roles[role].members.remove(account)) {\r... */\n      iszero\n      tag_71\n      jumpi\n        /* \"contracts/approve.sol\":42881:42893  _msgSender() */\n      tag_72\n        /* \"contracts/approve.sol\":42881:42891  _msgSender */\n      tag_39\n        /* \"contracts/approve.sol\":42881:42893  _msgSender() */\n      jump\t// in\n    tag_72:\n        /* \"contracts/approve.sol\":42854:42894  RoleRevoked(role, account, _msgSender()) */\n      0xffffffffffffffffffffffffffffffffffffffff\n      and\n        /* \"contracts/approve.sol\":42872:42879  account */\n      dup2\n        /* \"contracts/approve.sol\":42854:42894  RoleRevoked(role, account, _msgSender()) */\n      0xffffffffffffffffffffffffffffffffffffffff\n      and\n        /* \"contracts/approve.sol\":42866:42870  role */\n      dup4\n        /* \"contracts/approve.sol\":42854:42894  RoleRevoked(role, account, _msgSender()) */\n      0xf6391f5c32d9c69d2a47ea670b442974b53935d1edc7fd64eb21e047a839171b\n      mload(0x40)\n      mload(0x40)\n      dup1\n      swap2\n      sub\n      swap1\n      log4\n        /* \"contracts/approve.sol\":42792:42906  if (_roles[role].members.remove(account)) {\r... */\n    tag_71:\n        /* \"contracts/approve.sol\":42721:42913  function _revokeRole(bytes32 role, address account) private {\r... */\n      pop\n      pop\n      jump\t// out\n        /* \"contracts/approve.sol\":33577:33726  function at(AddressSet storage set, uint256 index) internal view returns (address) {\r... */\n    tag_50:\n        /* \"contracts/approve.sol\":33651:33658  address */\n      0x00\n        /* \"contracts/approve.sol\":33694:33716  _at(set._inner, index) */\n      tag_74\n        /* \"contracts/approve.sol\":33698:33701  set */\n      dup4\n        /* \"contracts/approve.sol\":33698:33708  set._inner */\n      0x00\n      add\n        /* \"contracts/approve.sol\":33710:33715  index */\n      dup4\n        /* \"contracts/approve.sol\":33694:33697  _at */\n      tag_75\n        /* \"contracts/approve.sol\":33694:33716  _at(set._inner, index) */\n      jump\t// in\n    tag_74:\n        /* \"contracts/approve.sol\":33686:33717  uint256(_at(set._inner, index)) */\n      0x00\n      shr\n        /* \"contracts/approve.sol\":33671:33718  return address(uint256(_at(set._inner, index))) */\n      swap1\n      pop\n        /* \"contracts/approve.sol\":33577:33726  function at(AddressSet storage set, uint256 index) internal view returns (address) {\r... */\n      swap3\n      swap2\n      pop\n      pop\n      jump\t// out\n        /* \"contracts/approve.sol\":32872:33030  function contains(AddressSet storage set, address value) internal view returns (bool) {\r... */\n    tag_53:\n        /* \"contracts/approve.sol\":32952:32956  bool */\n      0x00\n        /* \"contracts/approve.sol\":32976:33022  _contains(set._inner, bytes32(uint256(value))) */\n      tag_77\n        /* \"contracts/approve.sol\":32986:32989  set */\n      dup4\n        /* \"contracts/approve.sol\":32986:32996  set._inner */\n      0x00\n      add\n        /* \"contracts/approve.sol\":33014:33019  value */\n      dup4\n        /* \"contracts/approve.sol\":33006:33020  uint256(value) */\n      0xffffffffffffffffffffffffffffffffffffffff\n      and\n        /* \"contracts/approve.sol\":32998:33021  bytes32(uint256(value)) */\n      0x00\n      shl\n        /* \"contracts/approve.sol\":32976:32985  _contains */\n      tag_78\n        /* \"contracts/approve.sol\":32976:33022  _contains(set._inner, bytes32(uint256(value))) */\n      jump\t// in\n    tag_77:\n        /* \"contracts/approve.sol\":32969:33022  return _contains(set._inner, bytes32(uint256(value))) */\n      swap1\n      pop\n        /* \"contracts/approve.sol\":32872:33030  function contains(AddressSet storage set, address value) internal view returns (bool) {\r... */\n      swap3\n      swap2\n      pop\n      pop\n      jump\t// out\n        /* \"contracts/approve.sol\":33116:33233  function length(AddressSet storage set) internal view returns (uint256) {\r... */\n    tag_56:\n        /* \"contracts/approve.sol\":33179:33186  uint256 */\n      0x00\n        /* \"contracts/approve.sol\":33206:33225  _length(set._inner) */\n      tag_80\n        /* \"contracts/approve.sol\":33214:33217  set */\n      dup3\n        /* \"contracts/approve.sol\":33214:33224  set._inner */\n      0x00\n      add\n        /* \"contracts/approve.sol\":33206:33213  _length */\n      tag_81\n        /* \"contracts/approve.sol\":33206:33225  _length(set._inner) */\n      jump\t// in\n    tag_80:\n        /* \"contracts/approve.sol\":33199:33225  return _length(set._inner) */\n      swap1\n      pop\n        /* \"contracts/approve.sol\":33116:33233  function length(AddressSet storage set) internal view returns (uint256) {\r... */\n      swap2\n      swap1\n      pop\n      jump\t// out\n        /* \"contracts/approve.sol\":32318:32461  function add(AddressSet storage set, address value) internal returns (bool) {\r... */\n    tag_65:\n        /* \"contracts/approve.sol\":32388:32392  bool */\n      0x00\n        /* \"contracts/approve.sol\":32412:32453  _add(set._inner, bytes32(uint256(value))) */\n      tag_83\n        /* \"contracts/approve.sol\":32417:32420  set */\n      dup4\n        /* \"contracts/approve.sol\":32417:32427  set._inner */\n      0x00\n      add\n        /* \"contracts/approve.sol\":32445:32450  value */\n      dup4\n        /* \"contracts/approve.sol\":32437:32451  uint256(value) */\n      0xffffffffffffffffffffffffffffffffffffffff\n      and\n        /* \"contracts/approve.sol\":32429:32452  bytes32(uint256(value)) */\n      0x00\n      shl\n        /* \"contracts/approve.sol\":32412:32416  _add */\n      tag_84\n        /* \"contracts/approve.sol\":32412:32453  _add(set._inner, bytes32(uint256(value))) */\n      jump\t// in\n    tag_83:\n        /* \"contracts/approve.sol\":32405:32453  return _add(set._inner, bytes32(uint256(value))) */\n      swap1\n      pop\n        /* \"contracts/approve.sol\":32318:32461  function add(AddressSet storage set, address value) internal returns (bool) {\r... */\n      swap3\n      swap2\n      pop\n      pop\n      jump\t// out\n        /* \"contracts/approve.sol\":32637:32786  function remove(AddressSet storage set, address value) internal returns (bool) {\r... */\n    tag_70:\n        /* \"contracts/approve.sol\":32710:32714  bool */\n      0x00\n        /* \"contracts/approve.sol\":32734:32778  _remove(set._inner, bytes32(uint256(value))) */\n      tag_86\n        /* \"contracts/approve.sol\":32742:32745  set */\n      dup4\n        /* \"contracts/approve.sol\":32742:32752  set._inner */\n      0x00\n      add\n        /* \"contracts/approve.sol\":32770:32775  value */\n      dup4\n        /* \"contracts/approve.sol\":32762:32776  uint256(value) */\n      0xffffffffffffffffffffffffffffffffffffffff\n      and\n        /* \"contracts/approve.sol\":32754:32777  bytes32(uint256(value)) */\n      0x00\n      shl\n        /* \"contracts/approve.sol\":32734:32741  _remove */\n      tag_87\n        /* \"contracts/approve.sol\":32734:32778  _remove(set._inner, bytes32(uint256(value))) */\n      jump\t// in\n    tag_86:\n        /* \"contracts/approve.sol\":32727:32778  return _remove(set._inner, bytes32(uint256(value))) */\n      swap1\n      pop\n        /* \"contracts/approve.sol\":32637:32786  function remove(AddressSet storage set, address value) internal returns (bool) {\r... */\n      swap3\n      swap2\n      pop\n      pop\n      jump\t// out\n        /* \"contracts/approve.sol\":31860:32064  function _at(Set storage set, uint256 index) private view returns (bytes32) {\r... */\n    tag_75:\n        /* \"contracts/approve.sol\":31927:31934  bytes32 */\n      0x00\n        /* \"contracts/approve.sol\":31976:31981  index */\n      dup2\n        /* \"contracts/approve.sol\":31955:31958  set */\n      dup4\n        /* \"contracts/approve.sol\":31955:31966  set._values */\n      0x00\n      add\n        /* \"contracts/approve.sol\":31955:31973  set._values.length */\n      dup1\n      sload\n      swap1\n      pop\n        /* \"contracts/approve.sol\":31955:31981  set._values.length > index */\n      gt\n        /* \"contracts/approve.sol\":31947:32020  require(set._values.length > index, \"EnumerableSet: index out of bounds\") */\n      tag_89\n      jumpi\n      mload(0x40)\n      0x08c379a000000000000000000000000000000000000000000000000000000000\n      dup2\n      mstore\n      0x04\n      add\n      dup1\n      dup1\n      0x20\n      add\n      dup3\n      dup2\n      sub\n      dup3\n      mstore\n      0x22\n      dup2\n      mstore\n      0x20\n      add\n      dup1\n      data_045d6834e6193a687012a3ad777f612279e549b6945364d9d2324f48610d3cbb\n      0x22\n      swap2\n      codecopy\n      0x40\n      add\n      swap2\n      pop\n      pop\n      mload(0x40)\n      dup1\n      swap2\n      sub\n      swap1\n      revert\n    tag_89:\n        /* \"contracts/approve.sol\":32038:32041  set */\n      dup3\n        /* \"contracts/approve.sol\":32038:32049  set._values */\n      0x00\n      add\n        /* \"contracts/approve.sol\":32050:32055  index */\n      dup3\n        /* \"contracts/approve.sol\":32038:32056  set._values[index] */\n      dup2\n      sload\n      dup2\n      lt\n      tag_90\n      jumpi\n      invalid\n    tag_90:\n      swap1\n      0x00\n      mstore\n      keccak256(0x00, 0x20)\n      add\n      sload\n        /* \"contracts/approve.sol\":32031:32056  return set._values[index] */\n      swap1\n      pop\n        /* \"contracts/approve.sol\":31860:32064  function _at(Set storage set, uint256 index) private view returns (bytes32) {\r... */\n      swap3\n      swap2\n      pop\n      pop\n      jump\t// out\n        /* \"contracts/approve.sol\":31192:31321  function _contains(Set storage set, bytes32 value) private view returns (bool) {\r... */\n    tag_78:\n        /* \"contracts/approve.sol\":31265:31269  bool */\n      0x00\n        /* \"contracts/approve.sol\":31312:31313  0 */\n      dup1\n        /* \"contracts/approve.sol\":31289:31292  set */\n      dup4\n        /* \"contracts/approve.sol\":31289:31301  set._indexes */\n      0x01\n      add\n        /* \"contracts/approve.sol\":31289:31308  set._indexes[value] */\n      0x00\n        /* \"contracts/approve.sol\":31302:31307  value */\n      dup5\n        /* \"contracts/approve.sol\":31289:31308  set._indexes[value] */\n      dup2\n      mstore\n      0x20\n      add\n      swap1\n      dup2\n      mstore\n      0x20\n      add\n      0x00\n      keccak256\n      sload\n        /* \"contracts/approve.sol\":31289:31313  set._indexes[value] != 0 */\n      eq\n      iszero\n        /* \"contracts/approve.sol\":31282:31313  return set._indexes[value] != 0 */\n      swap1\n      pop\n        /* \"contracts/approve.sol\":31192:31321  function _contains(Set storage set, bytes32 value) private view returns (bool) {\r... */\n      swap3\n      swap2\n      pop\n      pop\n      jump\t// out\n        /* \"contracts/approve.sol\":31407:31516  function _length(Set storage set) private view returns (uint256) {\r... */\n    tag_81:\n        /* \"contracts/approve.sol\":31463:31470  uint256 */\n      0x00\n        /* \"contracts/approve.sol\":31490:31493  set */\n      dup2\n        /* \"contracts/approve.sol\":31490:31501  set._values */\n      0x00\n      add\n        /* \"contracts/approve.sol\":31490:31508  set._values.length */\n      dup1\n      sload\n      swap1\n      pop\n        /* \"contracts/approve.sol\":31483:31508  return set._values.length */\n      swap1\n      pop\n        /* \"contracts/approve.sol\":31407:31516  function _length(Set storage set) private view returns (uint256) {\r... */\n      swap2\n      swap1\n      pop\n      jump\t// out\n        /* \"contracts/approve.sol\":28972:29386  function _add(Set storage set, bytes32 value) private returns (bool) {\r... */\n    tag_84:\n        /* \"contracts/approve.sol\":29035:29039  bool */\n      0x00\n        /* \"contracts/approve.sol\":29057:29078  _contains(set, value) */\n      tag_95\n        /* \"contracts/approve.sol\":29067:29070  set */\n      dup4\n        /* \"contracts/approve.sol\":29072:29077  value */\n      dup4\n        /* \"contracts/approve.sol\":29057:29066  _contains */\n      tag_78\n        /* \"contracts/approve.sol\":29057:29078  _contains(set, value) */\n      jump\t// in\n    tag_95:\n        /* \"contracts/approve.sol\":29052:29379  if (!_contains(set, value)) {\r... */\n      tag_96\n      jumpi\n        /* \"contracts/approve.sol\":29095:29098  set */\n      dup3\n        /* \"contracts/approve.sol\":29095:29106  set._values */\n      0x00\n      add\n        /* \"contracts/approve.sol\":29112:29117  value */\n      dup3\n        /* \"contracts/approve.sol\":29095:29118  set._values.push(value) */\n      swap1\n      dup1\n        /* \"--CODEGEN--\":39:40   */\n      0x01\n        /* \"--CODEGEN--\":33:36   */\n      dup2\n        /* \"--CODEGEN--\":27:37   */\n      sload\n        /* \"--CODEGEN--\":23:41   */\n      add\n        /* \"--CODEGEN--\":57:67   */\n      dup1\n        /* \"--CODEGEN--\":52:55   */\n      dup3\n        /* \"--CODEGEN--\":45:68   */\n      sstore\n        /* \"--CODEGEN--\":79:89   */\n      dup1\n        /* \"--CODEGEN--\":72:89   */\n      swap2\n      pop\n        /* \"--CODEGEN--\":0:93   */\n      pop\n        /* \"contracts/approve.sol\":29095:29118  set._values.push(value) */\n      0x01\n      swap1\n      sub\n      swap1\n      0x00\n      mstore\n      keccak256(0x00, 0x20)\n      add\n      0x00\n      swap1\n      swap2\n      swap1\n      swap2\n      swap1\n      swap2\n      pop\n      sstore\n        /* \"contracts/approve.sol\":29278:29281  set */\n      dup3\n        /* \"contracts/approve.sol\":29278:29289  set._values */\n      0x00\n      add\n        /* \"contracts/approve.sol\":29278:29296  set._values.length */\n      dup1\n      sload\n      swap1\n      pop\n        /* \"contracts/approve.sol\":29256:29259  set */\n      dup4\n        /* \"contracts/approve.sol\":29256:29268  set._indexes */\n      0x01\n      add\n        /* \"contracts/approve.sol\":29256:29275  set._indexes[value] */\n      0x00\n        /* \"contracts/approve.sol\":29269:29274  value */\n      dup5\n        /* \"contracts/approve.sol\":29256:29275  set._indexes[value] */\n      dup2\n      mstore\n      0x20\n      add\n      swap1\n      dup2\n      mstore\n      0x20\n      add\n      0x00\n      keccak256\n        /* \"contracts/approve.sol\":29256:29296  set._indexes[value] = set._values.length */\n      dup2\n      swap1\n      sstore\n      pop\n        /* \"contracts/approve.sol\":29318:29322  true */\n      0x01\n        /* \"contracts/approve.sol\":29311:29322  return true */\n      swap1\n      pop\n      jump(tag_94)\n        /* \"contracts/approve.sol\":29052:29379  if (!_contains(set, value)) {\r... */\n    tag_96:\n        /* \"contracts/approve.sol\":29362:29367  false */\n      0x00\n        /* \"contracts/approve.sol\":29355:29367  return false */\n      swap1\n      pop\n        /* \"contracts/approve.sol\":28972:29386  function _add(Set storage set, bytes32 value) private returns (bool) {\r... */\n    tag_94:\n      swap3\n      swap2\n      pop\n      pop\n      jump\t// out\n        /* \"contracts/approve.sol\":29562:31106  function _remove(Set storage set, bytes32 value) private returns (bool) {\r... */\n    tag_87:\n        /* \"contracts/approve.sol\":29628:29632  bool */\n      0x00\n        /* \"contracts/approve.sol\":29746:29764  uint256 valueIndex */\n      dup1\n        /* \"contracts/approve.sol\":29767:29770  set */\n      dup4\n        /* \"contracts/approve.sol\":29767:29779  set._indexes */\n      0x01\n      add\n        /* \"contracts/approve.sol\":29767:29786  set._indexes[value] */\n      0x00\n        /* \"contracts/approve.sol\":29780:29785  value */\n      dup5\n        /* \"contracts/approve.sol\":29767:29786  set._indexes[value] */\n      dup2\n      mstore\n      0x20\n      add\n      swap1\n      dup2\n      mstore\n      0x20\n      add\n      0x00\n      keccak256\n      sload\n        /* \"contracts/approve.sol\":29746:29786  uint256 valueIndex = set._indexes[value] */\n      swap1\n      pop\n        /* \"contracts/approve.sol\":29817:29818  0 */\n      0x00\n        /* \"contracts/approve.sol\":29803:29813  valueIndex */\n      dup2\n        /* \"contracts/approve.sol\":29803:29818  valueIndex != 0 */\n      eq\n        /* \"contracts/approve.sol\":29799:31099  if (valueIndex != 0) { // Equivalent to contains(set, value)\r... */\n      tag_100\n      jumpi\n        /* \"contracts/approve.sol\":30165:30186  uint256 toDeleteIndex */\n      0x00\n        /* \"contracts/approve.sol\":30202:30203  1 */\n      0x01\n        /* \"contracts/approve.sol\":30189:30199  valueIndex */\n      dup3\n        /* \"contracts/approve.sol\":30189:30203  valueIndex - 1 */\n      sub\n        /* \"contracts/approve.sol\":30165:30203  uint256 toDeleteIndex = valueIndex - 1 */\n      swap1\n      pop\n        /* \"contracts/approve.sol\":30218:30235  uint256 lastIndex */\n      0x00\n        /* \"contracts/approve.sol\":30259:30260  1 */\n      0x01\n        /* \"contracts/approve.sol\":30238:30241  set */\n      dup7\n        /* \"contracts/approve.sol\":30238:30249  set._values */\n      0x00\n      add\n        /* \"contracts/approve.sol\":30238:30256  set._values.length */\n      dup1\n      sload\n      swap1\n      pop\n        /* \"contracts/approve.sol\":30238:30260  set._values.length - 1 */\n      sub\n        /* \"contracts/approve.sol\":30218:30260  uint256 lastIndex = set._values.length - 1 */\n      swap1\n      pop\n        /* \"contracts/approve.sol\":30505:30522  bytes32 lastvalue */\n      0x00\n        /* \"contracts/approve.sol\":30525:30528  set */\n      dup7\n        /* \"contracts/approve.sol\":30525:30536  set._values */\n      0x00\n      add\n        /* \"contracts/approve.sol\":30537:30546  lastIndex */\n      dup3\n        /* \"contracts/approve.sol\":30525:30547  set._values[lastIndex] */\n      dup2\n      sload\n      dup2\n      lt\n      tag_101\n      jumpi\n      invalid\n    tag_101:\n      swap1\n      0x00\n      mstore\n      keccak256(0x00, 0x20)\n      add\n      sload\n        /* \"contracts/approve.sol\":30505:30547  bytes32 lastvalue = set._values[lastIndex] */\n      swap1\n      pop\n        /* \"contracts/approve.sol\":30671:30680  lastvalue */\n      dup1\n        /* \"contracts/approve.sol\":30642:30645  set */\n      dup8\n        /* \"contracts/approve.sol\":30642:30653  set._values */\n      0x00\n      add\n        /* \"contracts/approve.sol\":30654:30667  toDeleteIndex */\n      dup5\n        /* \"contracts/approve.sol\":30642:30668  set._values[toDeleteIndex] */\n      dup2\n      sload\n      dup2\n      lt\n      tag_103\n      jumpi\n      invalid\n    tag_103:\n      swap1\n      0x00\n      mstore\n      keccak256(0x00, 0x20)\n      add\n        /* \"contracts/approve.sol\":30642:30680  set._values[toDeleteIndex] = lastvalue */\n      dup2\n      swap1\n      sstore\n      pop\n        /* \"contracts/approve.sol\":30790:30791  1 */\n      0x01\n        /* \"contracts/approve.sol\":30774:30787  toDeleteIndex */\n      dup4\n        /* \"contracts/approve.sol\":30774:30791  toDeleteIndex + 1 */\n      add\n        /* \"contracts/approve.sol\":30748:30751  set */\n      dup8\n        /* \"contracts/approve.sol\":30748:30760  set._indexes */\n      0x01\n      add\n        /* \"contracts/approve.sol\":30748:30771  set._indexes[lastvalue] */\n      0x00\n        /* \"contracts/approve.sol\":30761:30770  lastvalue */\n      dup4\n        /* \"contracts/approve.sol\":30748:30771  set._indexes[lastvalue] */\n      dup2\n      mstore\n      0x20\n      add\n      swap1\n      dup2\n      mstore\n      0x20\n      add\n      0x00\n      keccak256\n        /* \"contracts/approve.sol\":30748:30791  set._indexes[lastvalue] = toDeleteIndex + 1 */\n      dup2\n      swap1\n      sstore\n      pop\n        /* \"contracts/approve.sol\":30900:30903  set */\n      dup7\n        /* \"contracts/approve.sol\":30900:30911  set._values */\n      0x00\n      add\n        /* \"contracts/approve.sol\":30900:30917  set._values.pop() */\n      dup1\n      sload\n      dup1\n      tag_105\n      jumpi\n      invalid\n    tag_105:\n      0x01\n      swap1\n      sub\n      dup2\n      dup2\n      swap1\n      0x00\n      mstore\n      keccak256(0x00, 0x20)\n      add\n      0x00\n      swap1\n      sstore\n      swap1\n      sstore\n        /* \"contracts/approve.sol\":30995:30998  set */\n      dup7\n        /* \"contracts/approve.sol\":30995:31007  set._indexes */\n      0x01\n      add\n        /* \"contracts/approve.sol\":30995:31014  set._indexes[value] */\n      0x00\n        /* \"contracts/approve.sol\":31008:31013  value */\n      dup8\n        /* \"contracts/approve.sol\":30995:31014  set._indexes[value] */\n      dup2\n      mstore\n      0x20\n      add\n      swap1\n      dup2\n      mstore\n      0x20\n      add\n      0x00\n      keccak256\n        /* \"contracts/approve.sol\":30988:31014  delete set._indexes[value] */\n      0x00\n      swap1\n      sstore\n        /* \"contracts/approve.sol\":31038:31042  true */\n      0x01\n        /* \"contracts/approve.sol\":31031:31042  return true */\n      swap5\n      pop\n      pop\n      pop\n      pop\n      pop\n      jump(tag_99)\n        /* \"contracts/approve.sol\":29799:31099  if (valueIndex != 0) { // Equivalent to contains(set, value)\r... */\n    tag_100:\n        /* \"contracts/approve.sol\":31082:31087  false */\n      0x00\n        /* \"contracts/approve.sol\":31075:31087  return false */\n      swap2\n      pop\n      pop\n        /* \"contracts/approve.sol\":29562:31106  function _remove(Set storage set, bytes32 value) private returns (bool) {\r... */\n    tag_99:\n      swap3\n      swap2\n      pop\n      pop\n      jump\t// out\n    stop\n    data_045d6834e6193a687012a3ad777f612279e549b6945364d9d2324f48610d3cbb 456e756d657261626c655365743a20696e646578206f7574206f6620626f756e6473\n    data_0ba7116025f1ef6b158a2bd2238e617f30e17c9e456917d901086ca4f8ad2811 416363657373436f6e74726f6c3a2073656e646572206d75737420626520616e2061646d696e20746f206772616e74\n    data_64344570eab7406ca49d34d38bf2b2496dfda914405390c5057c8b0aabf798a3 416363657373436f6e74726f6c3a2073656e646572206d75737420626520616e2061646d696e20746f207265766f6b65\n    data_fb06fa8ff2141e8ed74502f6792273793f25f0e9d3cf15344f3f5a0d4948fd4b 416363657373436f6e74726f6c3a2063616e206f6e6c792072656e6f756e636520726f6c657320666f722073656c66\n\n    auxdata: 0xa26469706673582212204c2aaa588e8e8105a145a7b70d54010ea4169fd47b92e7dba672b0ad8b3b09f864736f6c63430006060033\n}\n",
				"bytecode": {
					"linkReferences": {},
					"object": "608060405234801561001057600080fd5b50610a32806100206000396000f3fe608060405234801561001057600080fd5b50600436106100885760003560e01c806391d148541161005b57806391d14854146101e3578063a217fddf14610249578063ca15c87314610267578063d547741f146102a957610088565b8063248a9ca31461008d5780632f2ff15d146100cf57806336568abe1461011d5780639010d07c1461016b575b600080fd5b6100b9600480360360208110156100a357600080fd5b81019080803590602001909291905050506102f7565b6040518082815260200191505060405180910390f35b61011b600480360360408110156100e557600080fd5b8101908080359060200190929190803573ffffffffffffffffffffffffffffffffffffffff169060200190929190505050610316565b005b6101696004803603604081101561013357600080fd5b8101908080359060200190929190803573ffffffffffffffffffffffffffffffffffffffff16906020019092919050505061039f565b005b6101a16004803603604081101561018157600080fd5b810190808035906020019092919080359060200190929190505050610438565b604051808273ffffffffffffffffffffffffffffffffffffffff1673ffffffffffffffffffffffffffffffffffffffff16815260200191505060405180910390f35b61022f600480360360408110156101f957600080fd5b8101908080359060200190929190803573ffffffffffffffffffffffffffffffffffffffff169060200190929190505050610469565b604051808215151515815260200191505060405180910390f35b61025161049a565b6040518082815260200191505060405180910390f35b6102936004803603602081101561027d57600080fd5b81019080803590602001909291905050506104a1565b6040518082815260200191505060405180910390f35b6102f5600480360360408110156102bf57600080fd5b8101908080359060200190929190803573ffffffffffffffffffffffffffffffffffffffff1690602001909291905050506104c7565b005b6000806000838152602001908152602001600020600201549050919050565b61033c60008084815260200190815260200160002060020154610337610550565b610469565b610391576040517f08c379a000000000000000000000000000000000000000000000000000000000815260040180806020018281038252602f81526020018061096f602f913960400191505060405180910390fd5b61039b8282610558565b5050565b6103a7610550565b73ffffffffffffffffffffffffffffffffffffffff168173ffffffffffffffffffffffffffffffffffffffff161461042a576040517f08c379a000000000000000000000000000000000000000000000000000000000815260040180806020018281038252602f8152602001806109ce602f913960400191505060405180910390fd5b61043482826105eb565b5050565b60006104618260008086815260200190815260200160002060000161067e90919063ffffffff16565b905092915050565b60006104928260008086815260200190815260200160002060000161069890919063ffffffff16565b905092915050565b6000801b81565b60006104c06000808481526020019081526020016000206000016106c8565b9050919050565b6104ed600080848152602001908152602001600020600201546104e8610550565b610469565b610542576040517f08c379a000000000000000000000000000000000000000000000000000000000815260040180806020018281038252603081526020018061099e6030913960400191505060405180910390fd5b61054c82826105eb565b5050565b600033905090565b61057f816000808581526020019081526020016000206000016106dd90919063ffffffff16565b156105e75761058c610550565b73ffffffffffffffffffffffffffffffffffffffff168173ffffffffffffffffffffffffffffffffffffffff16837f2f8788117e7eff1d82e926ec794901d17c78024a50270940304540a733656f0d60405160405180910390a45b5050565b6106128160008085815260200190815260200160002060000161070d90919063ffffffff16565b1561067a5761061f610550565b73ffffffffffffffffffffffffffffffffffffffff168173ffffffffffffffffffffffffffffffffffffffff16837ff6391f5c32d9c69d2a47ea670b442974b53935d1edc7fd64eb21e047a839171b60405160405180910390a45b5050565b600061068d836000018361073d565b60001c905092915050565b60006106c0836000018373ffffffffffffffffffffffffffffffffffffffff1660001b6107c0565b905092915050565b60006106d6826000016107e3565b9050919050565b6000610705836000018373ffffffffffffffffffffffffffffffffffffffff1660001b6107f4565b905092915050565b6000610735836000018373ffffffffffffffffffffffffffffffffffffffff1660001b610864565b905092915050565b60008183600001805490501161079e576040517f08c379a000000000000000000000000000000000000000000000000000000000815260040180806020018281038252602281526020018061094d6022913960400191505060405180910390fd5b8260000182815481106107ad57fe5b9060005260206000200154905092915050565b600080836001016000848152602001908152602001600020541415905092915050565b600081600001805490509050919050565b600061080083836107c0565b61085957826000018290806001815401808255809150506001900390600052602060002001600090919091909150558260000180549050836001016000848152602001908152602001600020819055506001905061085e565b600090505b92915050565b6000808360010160008481526020019081526020016000205490506000811461094057600060018203905060006001866000018054905003905060008660000182815481106108af57fe5b90600052602060002001549050808760000184815481106108cc57fe5b906000526020600020018190555060018301876001016000838152602001908152602001600020819055508660000180548061090457fe5b60019003818190600052602060002001600090559055866001016000878152602001908152602001600020600090556001945050505050610946565b60009150505b9291505056fe456e756d657261626c655365743a20696e646578206f7574206f6620626f756e6473416363657373436f6e74726f6c3a2073656e646572206d75737420626520616e2061646d696e20746f206772616e74416363657373436f6e74726f6c3a2073656e646572206d75737420626520616e2061646d696e20746f207265766f6b65416363657373436f6e74726f6c3a2063616e206f6e6c792072656e6f756e636520726f6c657320666f722073656c66a26469706673582212204c2aaa588e8e8105a145a7b70d54010ea4169fd47b92e7dba672b0ad8b3b09f864736f6c63430006060033",
					"opcodes": "PUSH1 0x80 PUSH1 0x40 MSTORE CALLVALUE DUP1 ISZERO PUSH2 0x10 JUMPI PUSH1 0x0 DUP1 REVERT JUMPDEST POP PUSH2 0xA32 DUP1 PUSH2 0x20 PUSH1 0x0 CODECOPY PUSH1 0x0 RETURN INVALID PUSH1 0x80 PUSH1 0x40 MSTORE CALLVALUE DUP1 ISZERO PUSH2 0x10 JUMPI PUSH1 0x0 DUP1 REVERT JUMPDEST POP PUSH1 0x4 CALLDATASIZE LT PUSH2 0x88 JUMPI PUSH1 0x0 CALLDATALOAD PUSH1 0xE0 SHR DUP1 PUSH4 0x91D14854 GT PUSH2 0x5B JUMPI DUP1 PUSH4 0x91D14854 EQ PUSH2 0x1E3 JUMPI DUP1 PUSH4 0xA217FDDF EQ PUSH2 0x249 JUMPI DUP1 PUSH4 0xCA15C873 EQ PUSH2 0x267 JUMPI DUP1 PUSH4 0xD547741F EQ PUSH2 0x2A9 JUMPI PUSH2 0x88 JUMP JUMPDEST DUP1 PUSH4 0x248A9CA3 EQ PUSH2 0x8D JUMPI DUP1 PUSH4 0x2F2FF15D EQ PUSH2 0xCF JUMPI DUP1 PUSH4 0x36568ABE EQ PUSH2 0x11D JUMPI DUP1 PUSH4 0x9010D07C EQ PUSH2 0x16B JUMPI JUMPDEST PUSH1 0x0 DUP1 REVERT JUMPDEST PUSH2 0xB9 PUSH1 0x4 DUP1 CALLDATASIZE SUB PUSH1 0x20 DUP2 LT ISZERO PUSH2 0xA3 JUMPI PUSH1 0x0 DUP1 REVERT JUMPDEST DUP2 ADD SWAP1 DUP1 DUP1 CALLDATALOAD SWAP1 PUSH1 0x20 ADD SWAP1 SWAP3 SWAP2 SWAP1 POP POP POP PUSH2 0x2F7 JUMP JUMPDEST PUSH1 0x40 MLOAD DUP1 DUP3 DUP2 MSTORE PUSH1 0x20 ADD SWAP2 POP POP PUSH1 0x40 MLOAD DUP1 SWAP2 SUB SWAP1 RETURN JUMPDEST PUSH2 0x11B PUSH1 0x4 DUP1 CALLDATASIZE SUB PUSH1 0x40 DUP2 LT ISZERO PUSH2 0xE5 JUMPI PUSH1 0x0 DUP1 REVERT JUMPDEST DUP2 ADD SWAP1 DUP1 DUP1 CALLDATALOAD SWAP1 PUSH1 0x20 ADD SWAP1 SWAP3 SWAP2 SWAP1 DUP1 CALLDATALOAD PUSH20 0xFFFFFFFFFFFFFFFFFFFFFFFFFFFFFFFFFFFFFFFF AND SWAP1 PUSH1 0x20 ADD SWAP1 SWAP3 SWAP2 SWAP1 POP POP POP PUSH2 0x316 JUMP JUMPDEST STOP JUMPDEST PUSH2 0x169 PUSH1 0x4 DUP1 CALLDATASIZE SUB PUSH1 0x40 DUP2 LT ISZERO PUSH2 0x133 JUMPI PUSH1 0x0 DUP1 REVERT JUMPDEST DUP2 ADD SWAP1 DUP1 DUP1 CALLDATALOAD SWAP1 PUSH1 0x20 ADD SWAP1 SWAP3 SWAP2 SWAP1 DUP1 CALLDATALOAD PUSH20 0xFFFFFFFFFFFFFFFFFFFFFFFFFFFFFFFFFFFFFFFF AND SWAP1 PUSH1 0x20 ADD SWAP1 SWAP3 SWAP2 SWAP1 POP POP POP PUSH2 0x39F JUMP JUMPDEST STOP JUMPDEST PUSH2 0x1A1 PUSH1 0x4 DUP1 CALLDATASIZE SUB PUSH1 0x40 DUP2 LT ISZERO PUSH2 0x181 JUMPI PUSH1 0x0 DUP1 REVERT JUMPDEST DUP2 ADD SWAP1 DUP1 DUP1 CALLDATALOAD SWAP1 PUSH1 0x20 ADD SWAP1 SWAP3 SWAP2 SWAP1 DUP1 CALLDATALOAD SWAP1 PUSH1 0x20 ADD SWAP1 SWAP3 SWAP2 SWAP1 POP POP POP PUSH2 0x438 JUMP JUMPDEST PUSH1 0x40 MLOAD DUP1 DUP3 PUSH20 0xFFFFFFFFFFFFFFFFFFFFFFFFFFFFFFFFFFFFFFFF AND PUSH20 0xFFFFFFFFFFFFFFFFFFFFFFFFFFFFFFFFFFFFFFFF AND DUP2 MSTORE PUSH1 0x20 ADD SWAP2 POP POP PUSH1 0x40 MLOAD DUP1 SWAP2 SUB SWAP1 RETURN JUMPDEST PUSH2 0x22F PUSH1 0x4 DUP1 CALLDATASIZE SUB PUSH1 0x40 DUP2 LT ISZERO PUSH2 0x1F9 JUMPI PUSH1 0x0 DUP1 REVERT JUMPDEST DUP2 ADD SWAP1 DUP1 DUP1 CALLDATALOAD SWAP1 PUSH1 0x20 ADD SWAP1 SWAP3 SWAP2 SWAP1 DUP1 CALLDATALOAD PUSH20 0xFFFFFFFFFFFFFFFFFFFFFFFFFFFFFFFFFFFFFFFF AND SWAP1 PUSH1 0x20 ADD SWAP1 SWAP3 SWAP2 SWAP1 POP POP POP PUSH2 0x469 JUMP JUMPDEST PUSH1 0x40 MLOAD DUP1 DUP3 ISZERO ISZERO ISZERO ISZERO DUP2 MSTORE PUSH1 0x20 ADD SWAP2 POP POP PUSH1 0x40 MLOAD DUP1 SWAP2 SUB SWAP1 RETURN JUMPDEST PUSH2 0x251 PUSH2 0x49A JUMP JUMPDEST PUSH1 0x40 MLOAD DUP1 DUP3 DUP2 MSTORE PUSH1 0x20 ADD SWAP2 POP POP PUSH1 0x40 MLOAD DUP1 SWAP2 SUB SWAP1 RETURN JUMPDEST PUSH2 0x293 PUSH1 0x4 DUP1 CALLDATASIZE SUB PUSH1 0x20 DUP2 LT ISZERO PUSH2 0x27D JUMPI PUSH1 0x0 DUP1 REVERT JUMPDEST DUP2 ADD SWAP1 DUP1 DUP1 CALLDATALOAD SWAP1 PUSH1 0x20 ADD SWAP1 SWAP3 SWAP2 SWAP1 POP POP POP PUSH2 0x4A1 JUMP JUMPDEST PUSH1 0x40 MLOAD DUP1 DUP3 DUP2 MSTORE PUSH1 0x20 ADD SWAP2 POP POP PUSH1 0x40 MLOAD DUP1 SWAP2 SUB SWAP1 RETURN JUMPDEST PUSH2 0x2F5 PUSH1 0x4 DUP1 CALLDATASIZE SUB PUSH1 0x40 DUP2 LT ISZERO PUSH2 0x2BF JUMPI PUSH1 0x0 DUP1 REVERT JUMPDEST DUP2 ADD SWAP1 DUP1 DUP1 CALLDATALOAD SWAP1 PUSH1 0x20 ADD SWAP1 SWAP3 SWAP2 SWAP1 DUP1 CALLDATALOAD PUSH20 0xFFFFFFFFFFFFFFFFFFFFFFFFFFFFFFFFFFFFFFFF AND SWAP1 PUSH1 0x20 ADD SWAP1 SWAP3 SWAP2 SWAP1 POP POP POP PUSH2 0x4C7 JUMP JUMPDEST STOP JUMPDEST PUSH1 0x0 DUP1 PUSH1 0x0 DUP4 DUP2 MSTORE PUSH1 0x20 ADD SWAP1 DUP2 MSTORE PUSH1 0x20 ADD PUSH1 0x0 KECCAK256 PUSH1 0x2 ADD SLOAD SWAP1 POP SWAP2 SWAP1 POP JUMP JUMPDEST PUSH2 0x33C PUSH1 0x0 DUP1 DUP5 DUP2 MSTORE PUSH1 0x20 ADD SWAP1 DUP2 MSTORE PUSH1 0x20 ADD PUSH1 0x0 KECCAK256 PUSH1 0x2 ADD SLOAD PUSH2 0x337 PUSH2 0x550 JUMP JUMPDEST PUSH2 0x469 JUMP JUMPDEST PUSH2 0x391 JUMPI PUSH1 0x40 MLOAD PUSH32 0x8C379A000000000000000000000000000000000000000000000000000000000 DUP2 MSTORE PUSH1 0x4 ADD DUP1 DUP1 PUSH1 0x20 ADD DUP3 DUP2 SUB DUP3 MSTORE PUSH1 0x2F DUP2 MSTORE PUSH1 0x20 ADD DUP1 PUSH2 0x96F PUSH1 0x2F SWAP2 CODECOPY PUSH1 0x40 ADD SWAP2 POP POP PUSH1 0x40 MLOAD DUP1 SWAP2 SUB SWAP1 REVERT JUMPDEST PUSH2 0x39B DUP3 DUP3 PUSH2 0x558 JUMP JUMPDEST POP POP JUMP JUMPDEST PUSH2 0x3A7 PUSH2 0x550 JUMP JUMPDEST PUSH20 0xFFFFFFFFFFFFFFFFFFFFFFFFFFFFFFFFFFFFFFFF AND DUP2 PUSH20 0xFFFFFFFFFFFFFFFFFFFFFFFFFFFFFFFFFFFFFFFF AND EQ PUSH2 0x42A JUMPI PUSH1 0x40 MLOAD PUSH32 0x8C379A000000000000000000000000000000000000000000000000000000000 DUP2 MSTORE PUSH1 0x4 ADD DUP1 DUP1 PUSH1 0x20 ADD DUP3 DUP2 SUB DUP3 MSTORE PUSH1 0x2F DUP2 MSTORE PUSH1 0x20 ADD DUP1 PUSH2 0x9CE PUSH1 0x2F SWAP2 CODECOPY PUSH1 0x40 ADD SWAP2 POP POP PUSH1 0x40 MLOAD DUP1 SWAP2 SUB SWAP1 REVERT JUMPDEST PUSH2 0x434 DUP3 DUP3 PUSH2 0x5EB JUMP JUMPDEST POP POP JUMP JUMPDEST PUSH1 0x0 PUSH2 0x461 DUP3 PUSH1 0x0 DUP1 DUP7 DUP2 MSTORE PUSH1 0x20 ADD SWAP1 DUP2 MSTORE PUSH1 0x20 ADD PUSH1 0x0 KECCAK256 PUSH1 0x0 ADD PUSH2 0x67E SWAP1 SWAP2 SWAP1 PUSH4 0xFFFFFFFF AND JUMP JUMPDEST SWAP1 POP SWAP3 SWAP2 POP POP JUMP JUMPDEST PUSH1 0x0 PUSH2 0x492 DUP3 PUSH1 0x0 DUP1 DUP7 DUP2 MSTORE PUSH1 0x20 ADD SWAP1 DUP2 MSTORE PUSH1 0x20 ADD PUSH1 0x0 KECCAK256 PUSH1 0x0 ADD PUSH2 0x698 SWAP1 SWAP2 SWAP1 PUSH4 0xFFFFFFFF AND JUMP JUMPDEST SWAP1 POP SWAP3 SWAP2 POP POP JUMP JUMPDEST PUSH1 0x0 DUP1 SHL DUP2 JUMP JUMPDEST PUSH1 0x0 PUSH2 0x4C0 PUSH1 0x0 DUP1 DUP5 DUP2 MSTORE PUSH1 0x20 ADD SWAP1 DUP2 MSTORE PUSH1 0x20 ADD PUSH1 0x0 KECCAK256 PUSH1 0x0 ADD PUSH2 0x6C8 JUMP JUMPDEST SWAP1 POP SWAP2 SWAP1 POP JUMP JUMPDEST PUSH2 0x4ED PUSH1 0x0 DUP1 DUP5 DUP2 MSTORE PUSH1 0x20 ADD SWAP1 DUP2 MSTORE PUSH1 0x20 ADD PUSH1 0x0 KECCAK256 PUSH1 0x2 ADD SLOAD PUSH2 0x4E8 PUSH2 0x550 JUMP JUMPDEST PUSH2 0x469 JUMP JUMPDEST PUSH2 0x542 JUMPI PUSH1 0x40 MLOAD PUSH32 0x8C379A000000000000000000000000000000000000000000000000000000000 DUP2 MSTORE PUSH1 0x4 ADD DUP1 DUP1 PUSH1 0x20 ADD DUP3 DUP2 SUB DUP3 MSTORE PUSH1 0x30 DUP2 MSTORE PUSH1 0x20 ADD DUP1 PUSH2 0x99E PUSH1 0x30 SWAP2 CODECOPY PUSH1 0x40 ADD SWAP2 POP POP PUSH1 0x40 MLOAD DUP1 SWAP2 SUB SWAP1 REVERT JUMPDEST PUSH2 0x54C DUP3 DUP3 PUSH2 0x5EB JUMP JUMPDEST POP POP JUMP JUMPDEST PUSH1 0x0 CALLER SWAP1 POP SWAP1 JUMP JUMPDEST PUSH2 0x57F DUP2 PUSH1 0x0 DUP1 DUP6 DUP2 MSTORE PUSH1 0x20 ADD SWAP1 DUP2 MSTORE PUSH1 0x20 ADD PUSH1 0x0 KECCAK256 PUSH1 0x0 ADD PUSH2 0x6DD SWAP1 SWAP2 SWAP1 PUSH4 0xFFFFFFFF AND JUMP JUMPDEST ISZERO PUSH2 0x5E7 JUMPI PUSH2 0x58C PUSH2 0x550 JUMP JUMPDEST PUSH20 0xFFFFFFFFFFFFFFFFFFFFFFFFFFFFFFFFFFFFFFFF AND DUP2 PUSH20 0xFFFFFFFFFFFFFFFFFFFFFFFFFFFFFFFFFFFFFFFF AND DUP4 PUSH32 0x2F8788117E7EFF1D82E926EC794901D17C78024A50270940304540A733656F0D PUSH1 0x40 MLOAD PUSH1 0x40 MLOAD DUP1 SWAP2 SUB SWAP1 LOG4 JUMPDEST POP POP JUMP JUMPDEST PUSH2 0x612 DUP2 PUSH1 0x0 DUP1 DUP6 DUP2 MSTORE PUSH1 0x20 ADD SWAP1 DUP2 MSTORE PUSH1 0x20 ADD PUSH1 0x0 KECCAK256 PUSH1 0x0 ADD PUSH2 0x70D SWAP1 SWAP2 SWAP1 PUSH4 0xFFFFFFFF AND JUMP JUMPDEST ISZERO PUSH2 0x67A JUMPI PUSH2 0x61F PUSH2 0x550 JUMP JUMPDEST PUSH20 0xFFFFFFFFFFFFFFFFFFFFFFFFFFFFFFFFFFFFFFFF AND DUP2 PUSH20 0xFFFFFFFFFFFFFFFFFFFFFFFFFFFFFFFFFFFFFFFF AND DUP4 PUSH32 0xF6391F5C32D9C69D2A47EA670B442974B53935D1EDC7FD64EB21E047A839171B PUSH1 0x40 MLOAD PUSH1 0x40 MLOAD DUP1 SWAP2 SUB SWAP1 LOG4 JUMPDEST POP POP JUMP JUMPDEST PUSH1 0x0 PUSH2 0x68D DUP4 PUSH1 0x0 ADD DUP4 PUSH2 0x73D JUMP JUMPDEST PUSH1 0x0 SHR SWAP1 POP SWAP3 SWAP2 POP POP JUMP JUMPDEST PUSH1 0x0 PUSH2 0x6C0 DUP4 PUSH1 0x0 ADD DUP4 PUSH20 0xFFFFFFFFFFFFFFFFFFFFFFFFFFFFFFFFFFFFFFFF AND PUSH1 0x0 SHL PUSH2 0x7C0 JUMP JUMPDEST SWAP1 POP SWAP3 SWAP2 POP POP JUMP JUMPDEST PUSH1 0x0 PUSH2 0x6D6 DUP3 PUSH1 0x0 ADD PUSH2 0x7E3 JUMP JUMPDEST SWAP1 POP SWAP2 SWAP1 POP JUMP JUMPDEST PUSH1 0x0 PUSH2 0x705 DUP4 PUSH1 0x0 ADD DUP4 PUSH20 0xFFFFFFFFFFFFFFFFFFFFFFFFFFFFFFFFFFFFFFFF AND PUSH1 0x0 SHL PUSH2 0x7F4 JUMP JUMPDEST SWAP1 POP SWAP3 SWAP2 POP POP JUMP JUMPDEST PUSH1 0x0 PUSH2 0x735 DUP4 PUSH1 0x0 ADD DUP4 PUSH20 0xFFFFFFFFFFFFFFFFFFFFFFFFFFFFFFFFFFFFFFFF AND PUSH1 0x0 SHL PUSH2 0x864 JUMP JUMPDEST SWAP1 POP SWAP3 SWAP2 POP POP JUMP JUMPDEST PUSH1 0x0 DUP2 DUP4 PUSH1 0x0 ADD DUP1 SLOAD SWAP1 POP GT PUSH2 0x79E JUMPI PUSH1 0x40 MLOAD PUSH32 0x8C379A000000000000000000000000000000000000000000000000000000000 DUP2 MSTORE PUSH1 0x4 ADD DUP1 DUP1 PUSH1 0x20 ADD DUP3 DUP2 SUB DUP3 MSTORE PUSH1 0x22 DUP2 MSTORE PUSH1 0x20 ADD DUP1 PUSH2 0x94D PUSH1 0x22 SWAP2 CODECOPY PUSH1 0x40 ADD SWAP2 POP POP PUSH1 0x40 MLOAD DUP1 SWAP2 SUB SWAP1 REVERT JUMPDEST DUP3 PUSH1 0x0 ADD DUP3 DUP2 SLOAD DUP2 LT PUSH2 0x7AD JUMPI INVALID JUMPDEST SWAP1 PUSH1 0x0 MSTORE PUSH1 0x20 PUSH1 0x0 KECCAK256 ADD SLOAD SWAP1 POP SWAP3 SWAP2 POP POP JUMP JUMPDEST PUSH1 0x0 DUP1 DUP4 PUSH1 0x1 ADD PUSH1 0x0 DUP5 DUP2 MSTORE PUSH1 0x20 ADD SWAP1 DUP2 MSTORE PUSH1 0x20 ADD PUSH1 0x0 KECCAK256 SLOAD EQ ISZERO SWAP1 POP SWAP3 SWAP2 POP POP JUMP JUMPDEST PUSH1 0x0 DUP2 PUSH1 0x0 ADD DUP1 SLOAD SWAP1 POP SWAP1 POP SWAP2 SWAP1 POP JUMP JUMPDEST PUSH1 0x0 PUSH2 0x800 DUP4 DUP4 PUSH2 0x7C0 JUMP JUMPDEST PUSH2 0x859 JUMPI DUP3 PUSH1 0x0 ADD DUP3 SWAP1 DUP1 PUSH1 0x1 DUP2 SLOAD ADD DUP1 DUP3 SSTORE DUP1 SWAP2 POP POP PUSH1 0x1 SWAP1 SUB SWAP1 PUSH1 0x0 MSTORE PUSH1 0x20 PUSH1 0x0 KECCAK256 ADD PUSH1 0x0 SWAP1 SWAP2 SWAP1 SWAP2 SWAP1 SWAP2 POP SSTORE DUP3 PUSH1 0x0 ADD DUP1 SLOAD SWAP1 POP DUP4 PUSH1 0x1 ADD PUSH1 0x0 DUP5 DUP2 MSTORE PUSH1 0x20 ADD SWAP1 DUP2 MSTORE PUSH1 0x20 ADD PUSH1 0x0 KECCAK256 DUP2 SWAP1 SSTORE POP PUSH1 0x1 SWAP1 POP PUSH2 0x85E JUMP JUMPDEST PUSH1 0x0 SWAP1 POP JUMPDEST SWAP3 SWAP2 POP POP JUMP JUMPDEST PUSH1 0x0 DUP1 DUP4 PUSH1 0x1 ADD PUSH1 0x0 DUP5 DUP2 MSTORE PUSH1 0x20 ADD SWAP1 DUP2 MSTORE PUSH1 0x20 ADD PUSH1 0x0 KECCAK256 SLOAD SWAP1 POP PUSH1 0x0 DUP2 EQ PUSH2 0x940 JUMPI PUSH1 0x0 PUSH1 0x1 DUP3 SUB SWAP1 POP PUSH1 0x0 PUSH1 0x1 DUP7 PUSH1 0x0 ADD DUP1 SLOAD SWAP1 POP SUB SWAP1 POP PUSH1 0x0 DUP7 PUSH1 0x0 ADD DUP3 DUP2 SLOAD DUP2 LT PUSH2 0x8AF JUMPI INVALID JUMPDEST SWAP1 PUSH1 0x0 MSTORE PUSH1 0x20 PUSH1 0x0 KECCAK256 ADD SLOAD SWAP1 POP DUP1 DUP8 PUSH1 0x0 ADD DUP5 DUP2 SLOAD DUP2 LT PUSH2 0x8CC JUMPI INVALID JUMPDEST SWAP1 PUSH1 0x0 MSTORE PUSH1 0x20 PUSH1 0x0 KECCAK256 ADD DUP2 SWAP1 SSTORE POP PUSH1 0x1 DUP4 ADD DUP8 PUSH1 0x1 ADD PUSH1 0x0 DUP4 DUP2 MSTORE PUSH1 0x20 ADD SWAP1 DUP2 MSTORE PUSH1 0x20 ADD PUSH1 0x0 KECCAK256 DUP2 SWAP1 SSTORE POP DUP7 PUSH1 0x0 ADD DUP1 SLOAD DUP1 PUSH2 0x904 JUMPI INVALID JUMPDEST PUSH1 0x1 SWAP1 SUB DUP2 DUP2 SWAP1 PUSH1 0x0 MSTORE PUSH1 0x20 PUSH1 0x0 KECCAK256 ADD PUSH1 0x0 SWAP1 SSTORE SWAP1 SSTORE DUP7 PUSH1 0x1 ADD PUSH1 0x0 DUP8 DUP2 MSTORE PUSH1 0x20 ADD SWAP1 DUP2 MSTORE PUSH1 0x20 ADD PUSH1 0x0 KECCAK256 PUSH1 0x0 SWAP1 SSTORE PUSH1 0x1 SWAP5 POP POP POP POP POP PUSH2 0x946 JUMP JUMPDEST PUSH1 0x0 SWAP2 POP POP JUMPDEST SWAP3 SWAP2 POP POP JUMP INVALID GASLIMIT PUSH15 0x756D657261626C655365743A20696E PUSH5 0x6578206F75 PUSH21 0x206F6620626F756E6473416363657373436F6E7472 PUSH16 0x6C3A2073656E646572206D7573742062 PUSH6 0x20616E206164 PUSH14 0x696E20746F206772616E74416363 PUSH6 0x7373436F6E74 PUSH19 0x6F6C3A2073656E646572206D75737420626520 PUSH2 0x6E20 PUSH2 0x646D PUSH10 0x6E20746F207265766F6B PUSH6 0x416363657373 NUMBER PUSH16 0x6E74726F6C3A2063616E206F6E6C7920 PUSH19 0x656E6F756E636520726F6C657320666F722073 PUSH6 0x6C66A2646970 PUSH7 0x73582212204C2A 0xAA PC DUP15 DUP15 DUP2 SDIV LOG1 GASLIMIT 0xA7 0xB7 0xD SLOAD ADD 0xE LOG4 AND SWAP16 0xD4 PUSH28 0x92E7DBA672B0AD8B3B09F864736F6C63430006060033000000000000 "
				},
				"gasEstimates": {
					"creation": {
						"codeDepositCost": "522000",
						"executionCost": "556",
						"totalCost": "522556"
					},
					"external": {
						"DEFAULT_ADMIN_ROLE()": "233",
						"getRoleAdmin(bytes32)": "1185",
						"getRoleMember(bytes32,uint256)": "infinite",
						"getRoleMemberCount(bytes32)": "1334",
						"grantRole(bytes32,address)": "infinite",
						"hasRole(bytes32,address)": "infinite",
						"renounceRole(bytes32,address)": "infinite",
						"revokeRole(bytes32,address)": "infinite"
					},
					"internal": {
						"_setupContractId(string memory)": "infinite"
					}
				},
				"methodIdentifiers": {
					"DEFAULT_ADMIN_ROLE()": "a217fddf",
					"getRoleAdmin(bytes32)": "248a9ca3",
					"getRoleMember(bytes32,uint256)": "9010d07c",
					"getRoleMemberCount(bytes32)": "ca15c873",
					"grantRole(bytes32,address)": "2f2ff15d",
					"hasRole(bytes32,address)": "91d14854",
					"renounceRole(bytes32,address)": "36568abe",
					"revokeRole(bytes32,address)": "d547741f"
				}
			},
			"storageLayout": {
				"storage": [
					{
						"astId": 1442,
						"contract": "contracts/approve.sol:AccessControlMixin",
						"label": "_roles",
						"offset": 0,
						"slot": "0",
						"type": "t_mapping(t_bytes32,t_struct(RoleData)1438_storage)"
					},
					{
						"astId": 1707,
						"contract": "contracts/approve.sol:AccessControlMixin",
						"label": "_revertMsg",
						"offset": 0,
						"slot": "1",
						"type": "t_string_storage"
					}
				],
				"types": {
					"t_array(t_bytes32)dyn_storage": {
						"base": "t_bytes32",
						"encoding": "dynamic_array",
						"label": "bytes32[]",
						"numberOfBytes": "32"
					},
					"t_bytes32": {
						"encoding": "inplace",
						"label": "bytes32",
						"numberOfBytes": "32"
					},
					"t_mapping(t_bytes32,t_struct(RoleData)1438_storage)": {
						"encoding": "mapping",
						"key": "t_bytes32",
						"label": "mapping(bytes32 => struct AccessControl.RoleData)",
						"numberOfBytes": "32",
						"value": "t_struct(RoleData)1438_storage"
					},
					"t_mapping(t_bytes32,t_uint256)": {
						"encoding": "mapping",
						"key": "t_bytes32",
						"label": "mapping(bytes32 => uint256)",
						"numberOfBytes": "32",
						"value": "t_uint256"
					},
					"t_string_storage": {
						"encoding": "bytes",
						"label": "string",
						"numberOfBytes": "32"
					},
					"t_struct(AddressSet)1219_storage": {
						"encoding": "inplace",
						"label": "struct EnumerableSet.AddressSet",
						"members": [
							{
								"astId": 1218,
								"contract": "contracts/approve.sol:AccessControlMixin",
								"label": "_inner",
								"offset": 0,
								"slot": "0",
								"type": "t_struct(Set)1039_storage"
							}
						],
						"numberOfBytes": "64"
					},
					"t_struct(RoleData)1438_storage": {
						"encoding": "inplace",
						"label": "struct AccessControl.RoleData",
						"members": [
							{
								"astId": 1435,
								"contract": "contracts/approve.sol:AccessControlMixin",
								"label": "members",
								"offset": 0,
								"slot": "0",
								"type": "t_struct(AddressSet)1219_storage"
							},
							{
								"astId": 1437,
								"contract": "contracts/approve.sol:AccessControlMixin",
								"label": "adminRole",
								"offset": 0,
								"slot": "2",
								"type": "t_bytes32"
							}
						],
						"numberOfBytes": "96"
					},
					"t_struct(Set)1039_storage": {
						"encoding": "inplace",
						"label": "struct EnumerableSet.Set",
						"members": [
							{
								"astId": 1034,
								"contract": "contracts/approve.sol:AccessControlMixin",
								"label": "_values",
								"offset": 0,
								"slot": "0",
								"type": "t_array(t_bytes32)dyn_storage"
							},
							{
								"astId": 1038,
								"contract": "contracts/approve.sol:AccessControlMixin",
								"label": "_indexes",
								"offset": 0,
								"slot": "1",
								"type": "t_mapping(t_bytes32,t_uint256)"
							}
						],
						"numberOfBytes": "64"
					},
					"t_uint256": {
						"encoding": "inplace",
						"label": "uint256",
						"numberOfBytes": "32"
					}
				}
			},
			"userdoc": {
				"methods": {}
			}
		}
	}
}