{
	"contracts/htlc2.sol": {
		"Peacio": {
			"abi": [
				{
					"inputs": [
						{
							"internalType": "address payable",
							"name": "_seller",
							"type": "address"
						},
						{
							"internalType": "address",
							"name": "_notary",
							"type": "address"
						},
						{
							"internalType": "uint256",
							"name": "_saleRelease",
							"type": "uint256"
						},
						{
							"internalType": "uint256",
							"name": "_disputeRelease",
							"type": "uint256"
						}
					],
					"stateMutability": "payable",
					"type": "constructor"
				},
				{
					"stateMutability": "payable",
					"type": "fallback"
				},
				{
					"inputs": [],
					"name": "defaultDisputeSettlement",
					"outputs": [],
					"stateMutability": "payable",
					"type": "function"
				},
				{
					"inputs": [],
					"name": "dispute",
					"outputs": [
						{
							"internalType": "bool",
							"name": "",
							"type": "bool"
						}
					],
					"stateMutability": "view",
					"type": "function"
				},
				{
					"inputs": [],
					"name": "disputeRelease",
					"outputs": [
						{
							"internalType": "uint256",
							"name": "",
							"type": "uint256"
						}
					],
					"stateMutability": "view",
					"type": "function"
				},
				{
					"inputs": [
						{
							"internalType": "bool",
							"name": "paySeller",
							"type": "bool"
						}
					],
					"name": "disputeSettlement",
					"outputs": [],
					"stateMutability": "payable",
					"type": "function"
				},
				{
					"inputs": [],
					"name": "getBalance",
					"outputs": [
						{
							"internalType": "uint256",
							"name": "",
							"type": "uint256"
						}
					],
					"stateMutability": "view",
					"type": "function"
				},
				{
					"inputs": [],
					"name": "getContractBalance",
					"outputs": [
						{
							"internalType": "uint256",
							"name": "",
							"type": "uint256"
						}
					],
					"stateMutability": "view",
					"type": "function"
				},
				{
					"inputs": [],
					"name": "raiseDispute",
					"outputs": [],
					"stateMutability": "payable",
					"type": "function"
				},
				{
					"inputs": [],
					"name": "saleRelease",
					"outputs": [
						{
							"internalType": "uint256",
							"name": "",
							"type": "uint256"
						}
					],
					"stateMutability": "view",
					"type": "function"
				},
				{
					"inputs": [],
					"name": "saleSettlement",
					"outputs": [],
					"stateMutability": "payable",
					"type": "function"
				},
				{
					"inputs": [],
					"name": "settlement",
					"outputs": [],
					"stateMutability": "nonpayable",
					"type": "function"
				},
				{
					"stateMutability": "payable",
					"type": "receive"
				}
			],
			"devdoc": {
				"kind": "dev",
				"methods": {},
				"version": 1
			},
			"evm": {
				"assembly": "    /* \"contracts/htlc2.sol\":60:2818  contract Peacio {\r... */\n  mstore(0x40, 0x80)\n    /* \"contracts/htlc2.sol\":293:782  constructor(address payable _seller, \r... */\n  mload(0x40)\n  sub(codesize, bytecodeSize)\n  dup1\n  bytecodeSize\n  dup4\n  codecopy\n  dup2\n  dup2\n  add\n  0x40\n  mstore\n  dup2\n  add\n  swap1\n  tag_1\n  swap2\n  swap1\n  tag_2\n  jump\t// in\ntag_1:\n    /* \"contracts/htlc2.sol\":471:478  _seller */\n  dup4\n    /* \"contracts/htlc2.sol\":462:468  seller */\n  0x04\n  0x00\n    /* \"contracts/htlc2.sol\":462:478  seller = _seller */\n  0x0100\n  exp\n  dup2\n  sload\n  dup2\n  0xffffffffffffffffffffffffffffffffffffffff\n  mul\n  not\n  and\n  swap1\n  dup4\n  0xffffffffffffffffffffffffffffffffffffffff\n  and\n  mul\n  or\n  swap1\n  sstore\n  pop\n    /* \"contracts/htlc2.sol\":498:505  _notary */\n  dup3\n    /* \"contracts/htlc2.sol\":489:495  notary */\n  0x03\n  0x00\n    /* \"contracts/htlc2.sol\":489:505  notary = _notary */\n  0x0100\n  exp\n  dup2\n  sload\n  dup2\n  0xffffffffffffffffffffffffffffffffffffffff\n  mul\n  not\n  and\n  swap1\n  dup4\n  0xffffffffffffffffffffffffffffffffffffffff\n  and\n  mul\n  or\n  swap1\n  sstore\n  pop\n    /* \"contracts/htlc2.sol\":532:542  msg.sender */\n  caller\n    /* \"contracts/htlc2.sol\":516:521  buyer */\n  0x02\n  0x00\n    /* \"contracts/htlc2.sol\":516:543  buyer = payable(msg.sender) */\n  0x0100\n  exp\n  dup2\n  sload\n  dup2\n  0xffffffffffffffffffffffffffffffffffffffff\n  mul\n  not\n  and\n  swap1\n  dup4\n  0xffffffffffffffffffffffffffffffffffffffff\n  and\n  mul\n  or\n  swap1\n  sstore\n  pop\n    /* \"contracts/htlc2.sol\":565:570  false */\n  0x00\n    /* \"contracts/htlc2.sol\":555:562  dispute */\n  0x04\n  0x14\n    /* \"contracts/htlc2.sol\":555:570  dispute = false */\n  0x0100\n  exp\n  dup2\n  sload\n  dup2\n  0xff\n  mul\n  not\n  and\n  swap1\n  dup4\n  iszero\n  iszero\n  mul\n  or\n  swap1\n  sstore\n  pop\n    /* \"contracts/htlc2.sol\":595:607  _saleRelease */\n  dup2\n    /* \"contracts/htlc2.sol\":581:592  saleRelease */\n  0x00\n    /* \"contracts/htlc2.sol\":581:607  saleRelease = _saleRelease */\n  dup2\n  swap1\n  sstore\n  pop\n    /* \"contracts/htlc2.sol\":640:652  _saleRelease */\n  dup2\n    /* \"contracts/htlc2.sol\":622:637  _disputeRelease */\n  dup2\n    /* \"contracts/htlc2.sol\":622:652  _disputeRelease < _saleRelease */\n  lt\n    /* \"contracts/htlc2.sol\":618:775  if (_disputeRelease < _saleRelease) {\r... */\n  iszero\n  tag_5\n  jumpi\n    /* \"contracts/htlc2.sol\":686:698  _saleRelease */\n  dup2\n    /* \"contracts/htlc2.sol\":669:683  disputeRelease */\n  0x01\n    /* \"contracts/htlc2.sol\":669:698  disputeRelease = _saleRelease */\n  dup2\n  swap1\n  sstore\n  pop\n    /* \"contracts/htlc2.sol\":618:775  if (_disputeRelease < _saleRelease) {\r... */\n  jump(tag_6)\ntag_5:\n    /* \"contracts/htlc2.sol\":748:763  _disputeRelease */\n  dup1\n    /* \"contracts/htlc2.sol\":731:745  disputeRelease */\n  0x01\n    /* \"contracts/htlc2.sol\":731:763  disputeRelease = _disputeRelease */\n  dup2\n  swap1\n  sstore\n  pop\n    /* \"contracts/htlc2.sol\":618:775  if (_disputeRelease < _saleRelease) {\r... */\ntag_6:\n    /* \"contracts/htlc2.sol\":293:782  constructor(address payable _seller, \r... */\n  pop\n  pop\n  pop\n  pop\n    /* \"contracts/htlc2.sol\":60:2818  contract Peacio {\r... */\n  jump(tag_7)\n    /* \"#utility.yul\":7:150   */\ntag_9:\n    /* \"#utility.yul\":64:69   */\n  0x00\n    /* \"#utility.yul\":95:101   */\n  dup2\n    /* \"#utility.yul\":89:102   */\n  mload\n    /* \"#utility.yul\":80:102   */\n  swap1\n  pop\n    /* \"#utility.yul\":111:144   */\n  tag_11\n    /* \"#utility.yul\":138:143   */\n  dup2\n    /* \"#utility.yul\":111:144   */\n  tag_12\n  jump\t// in\ntag_11:\n    /* \"#utility.yul\":7:150   */\n  swap3\n  swap2\n  pop\n  pop\n  jump\t// out\n    /* \"#utility.yul\":156:315   */\ntag_13:\n    /* \"#utility.yul\":221:226   */\n  0x00\n    /* \"#utility.yul\":252:258   */\n  dup2\n    /* \"#utility.yul\":246:259   */\n  mload\n    /* \"#utility.yul\":237:259   */\n  swap1\n  pop\n    /* \"#utility.yul\":268:309   */\n  tag_15\n    /* \"#utility.yul\":303:308   */\n  dup2\n    /* \"#utility.yul\":268:309   */\n  tag_16\n  jump\t// in\ntag_15:\n    /* \"#utility.yul\":156:315   */\n  swap3\n  swap2\n  pop\n  pop\n  jump\t// out\n    /* \"#utility.yul\":321:464   */\ntag_17:\n    /* \"#utility.yul\":378:383   */\n  0x00\n    /* \"#utility.yul\":409:415   */\n  dup2\n    /* \"#utility.yul\":403:416   */\n  mload\n    /* \"#utility.yul\":394:416   */\n  swap1\n  pop\n    /* \"#utility.yul\":425:458   */\n  tag_19\n    /* \"#utility.yul\":452:457   */\n  dup2\n    /* \"#utility.yul\":425:458   */\n  tag_20\n  jump\t// in\ntag_19:\n    /* \"#utility.yul\":321:464   */\n  swap3\n  swap2\n  pop\n  pop\n  jump\t// out\n    /* \"#utility.yul\":470:1306   */\ntag_2:\n    /* \"#utility.yul\":575:581   */\n  0x00\n    /* \"#utility.yul\":583:589   */\n  dup1\n    /* \"#utility.yul\":591:597   */\n  0x00\n    /* \"#utility.yul\":599:605   */\n  dup1\n    /* \"#utility.yul\":648:651   */\n  0x80\n    /* \"#utility.yul\":636:645   */\n  dup6\n    /* \"#utility.yul\":627:634   */\n  dup8\n    /* \"#utility.yul\":623:646   */\n  sub\n    /* \"#utility.yul\":619:652   */\n  slt\n    /* \"#utility.yul\":616:736   */\n  iszero\n  tag_22\n  jumpi\n    /* \"#utility.yul\":655:734   */\n  tag_23\n  tag_24\n  jump\t// in\ntag_23:\n    /* \"#utility.yul\":616:736   */\ntag_22:\n    /* \"#utility.yul\":775:776   */\n  0x00\n    /* \"#utility.yul\":800:872   */\n  tag_25\n    /* \"#utility.yul\":864:871   */\n  dup8\n    /* \"#utility.yul\":855:861   */\n  dup3\n    /* \"#utility.yul\":844:853   */\n  dup9\n    /* \"#utility.yul\":840:862   */\n  add\n    /* \"#utility.yul\":800:872   */\n  tag_13\n  jump\t// in\ntag_25:\n    /* \"#utility.yul\":790:872   */\n  swap5\n  pop\n    /* \"#utility.yul\":746:882   */\n  pop\n    /* \"#utility.yul\":921:923   */\n  0x20\n    /* \"#utility.yul\":947:1011   */\n  tag_26\n    /* \"#utility.yul\":1003:1010   */\n  dup8\n    /* \"#utility.yul\":994:1000   */\n  dup3\n    /* \"#utility.yul\":983:992   */\n  dup9\n    /* \"#utility.yul\":979:1001   */\n  add\n    /* \"#utility.yul\":947:1011   */\n  tag_9\n  jump\t// in\ntag_26:\n    /* \"#utility.yul\":937:1011   */\n  swap4\n  pop\n    /* \"#utility.yul\":892:1021   */\n  pop\n    /* \"#utility.yul\":1060:1062   */\n  0x40\n    /* \"#utility.yul\":1086:1150   */\n  tag_27\n    /* \"#utility.yul\":1142:1149   */\n  dup8\n    /* \"#utility.yul\":1133:1139   */\n  dup3\n    /* \"#utility.yul\":1122:1131   */\n  dup9\n    /* \"#utility.yul\":1118:1140   */\n  add\n    /* \"#utility.yul\":1086:1150   */\n  tag_17\n  jump\t// in\ntag_27:\n    /* \"#utility.yul\":1076:1150   */\n  swap3\n  pop\n    /* \"#utility.yul\":1031:1160   */\n  pop\n    /* \"#utility.yul\":1199:1201   */\n  0x60\n    /* \"#utility.yul\":1225:1289   */\n  tag_28\n    /* \"#utility.yul\":1281:1288   */\n  dup8\n    /* \"#utility.yul\":1272:1278   */\n  dup3\n    /* \"#utility.yul\":1261:1270   */\n  dup9\n    /* \"#utility.yul\":1257:1279   */\n  add\n    /* \"#utility.yul\":1225:1289   */\n  tag_17\n  jump\t// in\ntag_28:\n    /* \"#utility.yul\":1215:1289   */\n  swap2\n  pop\n    /* \"#utility.yul\":1170:1299   */\n  pop\n    /* \"#utility.yul\":470:1306   */\n  swap3\n  swap6\n  swap2\n  swap5\n  pop\n  swap3\n  pop\n  jump\t// out\n    /* \"#utility.yul\":1393:1489   */\ntag_31:\n    /* \"#utility.yul\":1430:1437   */\n  0x00\n    /* \"#utility.yul\":1459:1483   */\n  tag_33\n    /* \"#utility.yul\":1477:1482   */\n  dup3\n    /* \"#utility.yul\":1459:1483   */\n  tag_34\n  jump\t// in\ntag_33:\n    /* \"#utility.yul\":1448:1483   */\n  swap1\n  pop\n    /* \"#utility.yul\":1393:1489   */\n  swap2\n  swap1\n  pop\n  jump\t// out\n    /* \"#utility.yul\":1495:1599   */\ntag_35:\n    /* \"#utility.yul\":1540:1547   */\n  0x00\n    /* \"#utility.yul\":1569:1593   */\n  tag_37\n    /* \"#utility.yul\":1587:1592   */\n  dup3\n    /* \"#utility.yul\":1569:1593   */\n  tag_34\n  jump\t// in\ntag_37:\n    /* \"#utility.yul\":1558:1593   */\n  swap1\n  pop\n    /* \"#utility.yul\":1495:1599   */\n  swap2\n  swap1\n  pop\n  jump\t// out\n    /* \"#utility.yul\":1605:1731   */\ntag_34:\n    /* \"#utility.yul\":1642:1649   */\n  0x00\n    /* \"#utility.yul\":1682:1724   */\n  0xffffffffffffffffffffffffffffffffffffffff\n    /* \"#utility.yul\":1675:1680   */\n  dup3\n    /* \"#utility.yul\":1671:1725   */\n  and\n    /* \"#utility.yul\":1660:1725   */\n  swap1\n  pop\n    /* \"#utility.yul\":1605:1731   */\n  swap2\n  swap1\n  pop\n  jump\t// out\n    /* \"#utility.yul\":1737:1814   */\ntag_39:\n    /* \"#utility.yul\":1774:1781   */\n  0x00\n    /* \"#utility.yul\":1803:1808   */\n  dup2\n    /* \"#utility.yul\":1792:1808   */\n  swap1\n  pop\n    /* \"#utility.yul\":1737:1814   */\n  swap2\n  swap1\n  pop\n  jump\t// out\n    /* \"#utility.yul\":1943:2060   */\ntag_24:\n    /* \"#utility.yul\":2052:2053   */\n  0x00\n    /* \"#utility.yul\":2049:2050   */\n  dup1\n    /* \"#utility.yul\":2042:2054   */\n  revert\n    /* \"#utility.yul\":2066:2188   */\ntag_12:\n    /* \"#utility.yul\":2139:2163   */\n  tag_45\n    /* \"#utility.yul\":2157:2162   */\n  dup2\n    /* \"#utility.yul\":2139:2163   */\n  tag_31\n  jump\t// in\ntag_45:\n    /* \"#utility.yul\":2132:2137   */\n  dup2\n    /* \"#utility.yul\":2129:2164   */\n  eq\n    /* \"#utility.yul\":2119:2182   */\n  tag_46\n  jumpi\n    /* \"#utility.yul\":2178:2179   */\n  0x00\n    /* \"#utility.yul\":2175:2176   */\n  dup1\n    /* \"#utility.yul\":2168:2180   */\n  revert\n    /* \"#utility.yul\":2119:2182   */\ntag_46:\n    /* \"#utility.yul\":2066:2188   */\n  pop\n  jump\t// out\n    /* \"#utility.yul\":2194:2332   */\ntag_16:\n    /* \"#utility.yul\":2275:2307   */\n  tag_48\n    /* \"#utility.yul\":2301:2306   */\n  dup2\n    /* \"#utility.yul\":2275:2307   */\n  tag_35\n  jump\t// in\ntag_48:\n    /* \"#utility.yul\":2268:2273   */\n  dup2\n    /* \"#utility.yul\":2265:2308   */\n  eq\n    /* \"#utility.yul\":2255:2326   */\n  tag_49\n  jumpi\n    /* \"#utility.yul\":2322:2323   */\n  0x00\n    /* \"#utility.yul\":2319:2320   */\n  dup1\n    /* \"#utility.yul\":2312:2324   */\n  revert\n    /* \"#utility.yul\":2255:2326   */\ntag_49:\n    /* \"#utility.yul\":2194:2332   */\n  pop\n  jump\t// out\n    /* \"#utility.yul\":2338:2460   */\ntag_20:\n    /* \"#utility.yul\":2411:2435   */\n  tag_51\n    /* \"#utility.yul\":2429:2434   */\n  dup2\n    /* \"#utility.yul\":2411:2435   */\n  tag_39\n  jump\t// in\ntag_51:\n    /* \"#utility.yul\":2404:2409   */\n  dup2\n    /* \"#utility.yul\":2401:2436   */\n  eq\n    /* \"#utility.yul\":2391:2454   */\n  tag_52\n  jumpi\n    /* \"#utility.yul\":2450:2451   */\n  0x00\n    /* \"#utility.yul\":2447:2448   */\n  dup1\n    /* \"#utility.yul\":2440:2452   */\n  revert\n    /* \"#utility.yul\":2391:2454   */\ntag_52:\n    /* \"#utility.yul\":2338:2460   */\n  pop\n  jump\t// out\n    /* \"contracts/htlc2.sol\":60:2818  contract Peacio {\r... */\ntag_7:\n  dataSize(sub_0)\n  dup1\n  dataOffset(sub_0)\n  0x00\n  codecopy\n  0x00\n  return\nstop\n\nsub_0: assembly {\n        /* \"contracts/htlc2.sol\":60:2818  contract Peacio {\r... */\n      mstore(0x40, 0x80)\n      jumpi(tag_1, lt(calldatasize, 0x04))\n      shr(0xe0, calldataload(0x00))\n      dup1\n      0xa1c53047\n      gt\n      tag_13\n      jumpi\n      dup1\n      0xa1c53047\n      eq\n      tag_8\n      jumpi\n      dup1\n      0xa5c41649\n      eq\n      tag_9\n      jumpi\n      dup1\n      0xcc355cf5\n      eq\n      tag_10\n      jumpi\n      dup1\n      0xd9c4273e\n      eq\n      tag_11\n      jumpi\n      dup1\n      0xf240f7c3\n      eq\n      tag_12\n      jumpi\n      jump(tag_2)\n    tag_13:\n      dup1\n      0x12065fe0\n      eq\n      tag_3\n      jumpi\n      dup1\n      0x51160630\n      eq\n      tag_4\n      jumpi\n      dup1\n      0x6daa2d44\n      eq\n      tag_5\n      jumpi\n      dup1\n      0x6f9fb98a\n      eq\n      tag_6\n      jumpi\n      dup1\n      0x9410872b\n      eq\n      tag_7\n      jumpi\n      jump(tag_2)\n    tag_1:\n      jumpi(tag_2, calldatasize)\n      stop\n    tag_2:\n        /* \"contracts/htlc2.sol\":2787:2795  revert() */\n      0x00\n      dup1\n      revert\n        /* \"contracts/htlc2.sol\":1370:1469  function getBalance() public view returns (uint256) {\r... */\n    tag_3:\n      callvalue\n      dup1\n      iszero\n      tag_18\n      jumpi\n      0x00\n      dup1\n      revert\n    tag_18:\n      pop\n      tag_19\n      tag_20\n      jump\t// in\n    tag_19:\n      mload(0x40)\n      tag_21\n      swap2\n      swap1\n      tag_22\n      jump\t// in\n    tag_21:\n      mload(0x40)\n      dup1\n      swap2\n      sub\n      swap1\n      return\n        /* \"contracts/htlc2.sol\":1192:1362  function settlement() public  {\r... */\n    tag_4:\n      callvalue\n      dup1\n      iszero\n      tag_23\n      jumpi\n      0x00\n      dup1\n      revert\n    tag_23:\n      pop\n      tag_24\n      tag_25\n      jump\t// in\n    tag_24:\n      stop\n        /* \"contracts/htlc2.sol\":979:1137  function raiseDispute() public payable {\r... */\n    tag_5:\n      tag_26\n      tag_27\n      jump\t// in\n    tag_26:\n      stop\n        /* \"contracts/htlc2.sol\":790:898  function getContractBalance() public view returns (uint256) {\r... */\n    tag_6:\n      callvalue\n      dup1\n      iszero\n      tag_28\n      jumpi\n      0x00\n      dup1\n      revert\n    tag_28:\n      pop\n      tag_29\n      tag_30\n      jump\t// in\n    tag_29:\n      mload(0x40)\n      tag_31\n      swap2\n      swap1\n      tag_22\n      jump\t// in\n    tag_31:\n      mload(0x40)\n      dup1\n      swap2\n      sub\n      swap1\n      return\n        /* \"contracts/htlc2.sol\":2027:2313  function saleSettlement() public payable {\r... */\n    tag_7:\n      tag_32\n      tag_33\n      jump\t// in\n    tag_32:\n      stop\n        /* \"contracts/htlc2.sol\":86:109  uint public saleRelease */\n    tag_8:\n      callvalue\n      dup1\n      iszero\n      tag_34\n      jumpi\n      0x00\n      dup1\n      revert\n    tag_34:\n      pop\n      tag_35\n      tag_36\n      jump\t// in\n    tag_35:\n      mload(0x40)\n      tag_37\n      swap2\n      swap1\n      tag_22\n      jump\t// in\n    tag_37:\n      mload(0x40)\n      dup1\n      swap2\n      sub\n      swap1\n      return\n        /* \"contracts/htlc2.sol\":116:142  uint public disputeRelease */\n    tag_9:\n      callvalue\n      dup1\n      iszero\n      tag_38\n      jumpi\n      0x00\n      dup1\n      revert\n    tag_38:\n      pop\n      tag_39\n      tag_40\n      jump\t// in\n    tag_39:\n      mload(0x40)\n      tag_41\n      swap2\n      swap1\n      tag_22\n      jump\t// in\n    tag_41:\n      mload(0x40)\n      dup1\n      swap2\n      sub\n      swap1\n      return\n        /* \"contracts/htlc2.sol\":1555:1927  function disputeSettlement(bool paySeller) public payable {\r... */\n    tag_10:\n      tag_42\n      0x04\n      dup1\n      calldatasize\n      sub\n      dup2\n      add\n      swap1\n      tag_43\n      swap2\n      swap1\n      tag_44\n      jump\t// in\n    tag_43:\n      tag_45\n      jump\t// in\n    tag_42:\n      stop\n        /* \"contracts/htlc2.sol\":2451:2732  function defaultDisputeSettlement() public payable {\r... */\n    tag_11:\n      tag_46\n      tag_47\n      jump\t// in\n    tag_46:\n      stop\n        /* \"contracts/htlc2.sol\":227:246  bool public dispute */\n    tag_12:\n      callvalue\n      dup1\n      iszero\n      tag_48\n      jumpi\n      0x00\n      dup1\n      revert\n    tag_48:\n      pop\n      tag_49\n      tag_50\n      jump\t// in\n    tag_49:\n      mload(0x40)\n      tag_51\n      swap2\n      swap1\n      tag_52\n      jump\t// in\n    tag_51:\n      mload(0x40)\n      dup1\n      swap2\n      sub\n      swap1\n      return\n        /* \"contracts/htlc2.sol\":1370:1469  function getBalance() public view returns (uint256) {\r... */\n    tag_20:\n        /* \"contracts/htlc2.sol\":1413:1420  uint256 */\n      0x00\n        /* \"contracts/htlc2.sol\":1440:1461  address(this).balance */\n      selfbalance\n        /* \"contracts/htlc2.sol\":1433:1461  return address(this).balance */\n      swap1\n      pop\n        /* \"contracts/htlc2.sol\":1370:1469  function getBalance() public view returns (uint256) {\r... */\n      swap1\n      jump\t// out\n        /* \"contracts/htlc2.sol\":1192:1362  function settlement() public  {\r... */\n    tag_25:\n        /* \"contracts/htlc2.sol\":1254:1259  buyer */\n      0x02\n      0x00\n      swap1\n      sload\n      swap1\n      0x0100\n      exp\n      swap1\n      div\n      0xffffffffffffffffffffffffffffffffffffffff\n      and\n        /* \"contracts/htlc2.sol\":1241:1259  tx.origin == buyer */\n      0xffffffffffffffffffffffffffffffffffffffff\n      and\n        /* \"contracts/htlc2.sol\":1241:1250  tx.origin */\n      origin\n        /* \"contracts/htlc2.sol\":1241:1259  tx.origin == buyer */\n      0xffffffffffffffffffffffffffffffffffffffff\n      and\n      eq\n        /* \"contracts/htlc2.sol\":1233:1260  require(tx.origin == buyer) */\n      tag_55\n      jumpi\n      0x00\n      dup1\n      revert\n    tag_55:\n        /* \"contracts/htlc2.sol\":1271:1285  uint256 amount */\n      0x00\n        /* \"contracts/htlc2.sol\":1288:1309  address(this).balance */\n      selfbalance\n        /* \"contracts/htlc2.sol\":1271:1309  uint256 amount = address(this).balance */\n      swap1\n      pop\n        /* \"contracts/htlc2.sol\":1320:1326  seller */\n      0x04\n      0x00\n      swap1\n      sload\n      swap1\n      0x0100\n      exp\n      swap1\n      div\n      0xffffffffffffffffffffffffffffffffffffffff\n      and\n        /* \"contracts/htlc2.sol\":1320:1335  seller.transfer */\n      0xffffffffffffffffffffffffffffffffffffffff\n      and\n        /* \"contracts/htlc2.sol\":1320:1343  seller.transfer(amount) */\n      0x08fc\n        /* \"contracts/htlc2.sol\":1336:1342  amount */\n      dup3\n        /* \"contracts/htlc2.sol\":1320:1343  seller.transfer(amount) */\n      swap1\n      dup2\n      iszero\n      mul\n      swap1\n      mload(0x40)\n      0x00\n      mload(0x40)\n      dup1\n      dup4\n      sub\n      dup2\n      dup6\n      dup9\n      dup9\n      call\n      swap4\n      pop\n      pop\n      pop\n      pop\n      iszero\n      dup1\n      iszero\n      tag_57\n      jumpi\n      returndatasize\n      0x00\n      dup1\n      returndatacopy\n      revert(0x00, returndatasize)\n    tag_57:\n      pop\n        /* \"contracts/htlc2.sol\":1222:1362  {\r... */\n      pop\n        /* \"contracts/htlc2.sol\":1192:1362  function settlement() public  {\r... */\n      jump\t// out\n        /* \"contracts/htlc2.sol\":979:1137  function raiseDispute() public payable {\r... */\n    tag_27:\n        /* \"contracts/htlc2.sol\":1050:1055  buyer */\n      0x02\n      0x00\n      swap1\n      sload\n      swap1\n      0x0100\n      exp\n      swap1\n      div\n      0xffffffffffffffffffffffffffffffffffffffff\n      and\n        /* \"contracts/htlc2.sol\":1037:1055  tx.origin == buyer */\n      0xffffffffffffffffffffffffffffffffffffffff\n      and\n        /* \"contracts/htlc2.sol\":1037:1046  tx.origin */\n      origin\n        /* \"contracts/htlc2.sol\":1037:1055  tx.origin == buyer */\n      0xffffffffffffffffffffffffffffffffffffffff\n      and\n      eq\n        /* \"contracts/htlc2.sol\":1029:1056  require(tx.origin == buyer) */\n      tag_59\n      jumpi\n      0x00\n      dup1\n      revert\n    tag_59:\n        /* \"contracts/htlc2.sol\":1094:1105  saleRelease */\n      sload(0x00)\n        /* \"contracts/htlc2.sol\":1075:1090  block.timestamp */\n      timestamp\n        /* \"contracts/htlc2.sol\":1075:1105  block.timestamp <= saleRelease */\n      gt\n      iszero\n        /* \"contracts/htlc2.sol\":1067:1106  require(block.timestamp <= saleRelease) */\n      tag_60\n      jumpi\n      0x00\n      dup1\n      revert\n    tag_60:\n        /* \"contracts/htlc2.sol\":1125:1129  true */\n      0x01\n        /* \"contracts/htlc2.sol\":1117:1124  dispute */\n      0x04\n      0x14\n        /* \"contracts/htlc2.sol\":1117:1129  dispute=true */\n      0x0100\n      exp\n      dup2\n      sload\n      dup2\n      0xff\n      mul\n      not\n      and\n      swap1\n      dup4\n      iszero\n      iszero\n      mul\n      or\n      swap1\n      sstore\n      pop\n        /* \"contracts/htlc2.sol\":979:1137  function raiseDispute() public payable {\r... */\n      jump\t// out\n        /* \"contracts/htlc2.sol\":790:898  function getContractBalance() public view returns (uint256) {\r... */\n    tag_30:\n        /* \"contracts/htlc2.sol\":841:848  uint256 */\n      0x00\n        /* \"contracts/htlc2.sol\":869:890  address(this).balance */\n      selfbalance\n        /* \"contracts/htlc2.sol\":862:890  return address(this).balance */\n      swap1\n      pop\n        /* \"contracts/htlc2.sol\":790:898  function getContractBalance() public view returns (uint256) {\r... */\n      swap1\n      jump\t// out\n        /* \"contracts/htlc2.sol\":2027:2313  function saleSettlement() public payable {\r... */\n    tag_33:\n        /* \"contracts/htlc2.sol\":2100:2106  notary */\n      0x03\n      0x00\n      swap1\n      sload\n      swap1\n      0x0100\n      exp\n      swap1\n      div\n      0xffffffffffffffffffffffffffffffffffffffff\n      and\n        /* \"contracts/htlc2.sol\":2087:2106  tx.origin == notary */\n      0xffffffffffffffffffffffffffffffffffffffff\n      and\n        /* \"contracts/htlc2.sol\":2087:2096  tx.origin */\n      origin\n        /* \"contracts/htlc2.sol\":2087:2106  tx.origin == notary */\n      0xffffffffffffffffffffffffffffffffffffffff\n      and\n      eq\n        /* \"contracts/htlc2.sol\":2087:2129  tx.origin == notary || tx.origin == seller */\n      dup1\n      tag_63\n      jumpi\n      pop\n        /* \"contracts/htlc2.sol\":2123:2129  seller */\n      0x04\n      0x00\n      swap1\n      sload\n      swap1\n      0x0100\n      exp\n      swap1\n      div\n      0xffffffffffffffffffffffffffffffffffffffff\n      and\n        /* \"contracts/htlc2.sol\":2110:2129  tx.origin == seller */\n      0xffffffffffffffffffffffffffffffffffffffff\n      and\n        /* \"contracts/htlc2.sol\":2110:2119  tx.origin */\n      origin\n        /* \"contracts/htlc2.sol\":2110:2129  tx.origin == seller */\n      0xffffffffffffffffffffffffffffffffffffffff\n      and\n      eq\n        /* \"contracts/htlc2.sol\":2087:2129  tx.origin == notary || tx.origin == seller */\n    tag_63:\n        /* \"contracts/htlc2.sol\":2087:2151  tx.origin == notary || tx.origin == seller || tx.origin == buyer */\n      dup1\n      tag_64\n      jumpi\n      pop\n        /* \"contracts/htlc2.sol\":2146:2151  buyer */\n      0x02\n      0x00\n      swap1\n      sload\n      swap1\n      0x0100\n      exp\n      swap1\n      div\n      0xffffffffffffffffffffffffffffffffffffffff\n      and\n        /* \"contracts/htlc2.sol\":2133:2151  tx.origin == buyer */\n      0xffffffffffffffffffffffffffffffffffffffff\n      and\n        /* \"contracts/htlc2.sol\":2133:2142  tx.origin */\n      origin\n        /* \"contracts/htlc2.sol\":2133:2151  tx.origin == buyer */\n      0xffffffffffffffffffffffffffffffffffffffff\n      and\n      eq\n        /* \"contracts/htlc2.sol\":2087:2151  tx.origin == notary || tx.origin == seller || tx.origin == buyer */\n    tag_64:\n        /* \"contracts/htlc2.sol\":2079:2152  require(tx.origin == notary || tx.origin == seller || tx.origin == buyer) */\n      tag_65\n      jumpi\n      0x00\n      dup1\n      revert\n    tag_65:\n        /* \"contracts/htlc2.sol\":2190:2201  saleRelease */\n      sload(0x00)\n        /* \"contracts/htlc2.sol\":2171:2186  block.timestamp */\n      timestamp\n        /* \"contracts/htlc2.sol\":2171:2201  block.timestamp >= saleRelease */\n      lt\n      iszero\n        /* \"contracts/htlc2.sol\":2171:2221  block.timestamp >= saleRelease && dispute == false */\n      dup1\n      iszero\n      tag_66\n      jumpi\n      pop\n        /* \"contracts/htlc2.sol\":2216:2221  false */\n      0x00\n        /* \"contracts/htlc2.sol\":2205:2221  dispute == false */\n      iszero\n      iszero\n        /* \"contracts/htlc2.sol\":2205:2212  dispute */\n      0x04\n      0x14\n      swap1\n      sload\n      swap1\n      0x0100\n      exp\n      swap1\n      div\n      0xff\n      and\n        /* \"contracts/htlc2.sol\":2205:2221  dispute == false */\n      iszero\n      iszero\n      eq\n        /* \"contracts/htlc2.sol\":2171:2221  block.timestamp >= saleRelease && dispute == false */\n    tag_66:\n        /* \"contracts/htlc2.sol\":2163:2222  require(block.timestamp >= saleRelease && dispute == false) */\n      tag_67\n      jumpi\n      0x00\n      dup1\n      revert\n    tag_67:\n        /* \"contracts/htlc2.sol\":2233:2247  uint256 amount */\n      0x00\n        /* \"contracts/htlc2.sol\":2250:2271  address(this).balance */\n      selfbalance\n        /* \"contracts/htlc2.sol\":2233:2271  uint256 amount = address(this).balance */\n      swap1\n      pop\n        /* \"contracts/htlc2.sol\":2282:2288  seller */\n      0x04\n      0x00\n      swap1\n      sload\n      swap1\n      0x0100\n      exp\n      swap1\n      div\n      0xffffffffffffffffffffffffffffffffffffffff\n      and\n        /* \"contracts/htlc2.sol\":2282:2297  seller.transfer */\n      0xffffffffffffffffffffffffffffffffffffffff\n      and\n        /* \"contracts/htlc2.sol\":2282:2305  seller.transfer(amount) */\n      0x08fc\n        /* \"contracts/htlc2.sol\":2298:2304  amount */\n      dup3\n        /* \"contracts/htlc2.sol\":2282:2305  seller.transfer(amount) */\n      swap1\n      dup2\n      iszero\n      mul\n      swap1\n      mload(0x40)\n      0x00\n      mload(0x40)\n      dup1\n      dup4\n      sub\n      dup2\n      dup6\n      dup9\n      dup9\n      call\n      swap4\n      pop\n      pop\n      pop\n      pop\n      iszero\n      dup1\n      iszero\n      tag_69\n      jumpi\n      returndatasize\n      0x00\n      dup1\n      returndatacopy\n      revert(0x00, returndatasize)\n    tag_69:\n      pop\n        /* \"contracts/htlc2.sol\":2068:2313  {\r... */\n      pop\n        /* \"contracts/htlc2.sol\":2027:2313  function saleSettlement() public payable {\r... */\n      jump\t// out\n        /* \"contracts/htlc2.sol\":86:109  uint public saleRelease */\n    tag_36:\n      sload(0x00)\n      dup2\n      jump\t// out\n        /* \"contracts/htlc2.sol\":116:142  uint public disputeRelease */\n    tag_40:\n      sload(0x01)\n      dup2\n      jump\t// out\n        /* \"contracts/htlc2.sol\":1555:1927  function disputeSettlement(bool paySeller) public payable {\r... */\n    tag_45:\n        /* \"contracts/htlc2.sol\":1645:1651  notary */\n      0x03\n      0x00\n      swap1\n      sload\n      swap1\n      0x0100\n      exp\n      swap1\n      div\n      0xffffffffffffffffffffffffffffffffffffffff\n      and\n        /* \"contracts/htlc2.sol\":1632:1651  tx.origin == notary */\n      0xffffffffffffffffffffffffffffffffffffffff\n      and\n        /* \"contracts/htlc2.sol\":1632:1641  tx.origin */\n      origin\n        /* \"contracts/htlc2.sol\":1632:1651  tx.origin == notary */\n      0xffffffffffffffffffffffffffffffffffffffff\n      and\n      eq\n        /* \"contracts/htlc2.sol\":1624:1652  require(tx.origin == notary) */\n      tag_71\n      jumpi\n      0x00\n      dup1\n      revert\n    tag_71:\n        /* \"contracts/htlc2.sol\":1682:1686  true */\n      0x01\n        /* \"contracts/htlc2.sol\":1671:1686  dispute == true */\n      iszero\n      iszero\n        /* \"contracts/htlc2.sol\":1671:1678  dispute */\n      0x04\n      0x14\n      swap1\n      sload\n      swap1\n      0x0100\n      exp\n      swap1\n      div\n      0xff\n      and\n        /* \"contracts/htlc2.sol\":1671:1686  dispute == true */\n      iszero\n      iszero\n      eq\n        /* \"contracts/htlc2.sol\":1663:1687  require(dispute == true) */\n      tag_72\n      jumpi\n      0x00\n      dup1\n      revert\n    tag_72:\n        /* \"contracts/htlc2.sol\":1725:1739  disputeRelease */\n      sload(0x01)\n        /* \"contracts/htlc2.sol\":1706:1721  block.timestamp */\n      timestamp\n        /* \"contracts/htlc2.sol\":1706:1739  block.timestamp <= disputeRelease */\n      gt\n      iszero\n        /* \"contracts/htlc2.sol\":1698:1740  require(block.timestamp <= disputeRelease) */\n      tag_73\n      jumpi\n      0x00\n      dup1\n      revert\n    tag_73:\n        /* \"contracts/htlc2.sol\":1751:1765  uint256 amount */\n      0x00\n        /* \"contracts/htlc2.sol\":1768:1789  address(this).balance */\n      selfbalance\n        /* \"contracts/htlc2.sol\":1751:1789  uint256 amount = address(this).balance */\n      swap1\n      pop\n        /* \"contracts/htlc2.sol\":1804:1813  paySeller */\n      dup2\n        /* \"contracts/htlc2.sol\":1800:1920  if (paySeller) {\r... */\n      iszero\n      tag_74\n      jumpi\n        /* \"contracts/htlc2.sol\":1830:1836  seller */\n      0x04\n      0x00\n      swap1\n      sload\n      swap1\n      0x0100\n      exp\n      swap1\n      div\n      0xffffffffffffffffffffffffffffffffffffffff\n      and\n        /* \"contracts/htlc2.sol\":1830:1845  seller.transfer */\n      0xffffffffffffffffffffffffffffffffffffffff\n      and\n        /* \"contracts/htlc2.sol\":1830:1853  seller.transfer(amount) */\n      0x08fc\n        /* \"contracts/htlc2.sol\":1846:1852  amount */\n      dup3\n        /* \"contracts/htlc2.sol\":1830:1853  seller.transfer(amount) */\n      swap1\n      dup2\n      iszero\n      mul\n      swap1\n      mload(0x40)\n      0x00\n      mload(0x40)\n      dup1\n      dup4\n      sub\n      dup2\n      dup6\n      dup9\n      dup9\n      call\n      swap4\n      pop\n      pop\n      pop\n      pop\n      iszero\n      dup1\n      iszero\n      tag_76\n      jumpi\n      returndatasize\n      0x00\n      dup1\n      returndatacopy\n      revert(0x00, returndatasize)\n    tag_76:\n      pop\n        /* \"contracts/htlc2.sol\":1800:1920  if (paySeller) {\r... */\n      jump(tag_77)\n    tag_74:\n        /* \"contracts/htlc2.sol\":1886:1891  buyer */\n      0x02\n      0x00\n      swap1\n      sload\n      swap1\n      0x0100\n      exp\n      swap1\n      div\n      0xffffffffffffffffffffffffffffffffffffffff\n      and\n        /* \"contracts/htlc2.sol\":1886:1900  buyer.transfer */\n      0xffffffffffffffffffffffffffffffffffffffff\n      and\n        /* \"contracts/htlc2.sol\":1886:1908  buyer.transfer(amount) */\n      0x08fc\n        /* \"contracts/htlc2.sol\":1901:1907  amount */\n      dup3\n        /* \"contracts/htlc2.sol\":1886:1908  buyer.transfer(amount) */\n      swap1\n      dup2\n      iszero\n      mul\n      swap1\n      mload(0x40)\n      0x00\n      mload(0x40)\n      dup1\n      dup4\n      sub\n      dup2\n      dup6\n      dup9\n      dup9\n      call\n      swap4\n      pop\n      pop\n      pop\n      pop\n      iszero\n      dup1\n      iszero\n      tag_79\n      jumpi\n      returndatasize\n      0x00\n      dup1\n      returndatacopy\n      revert(0x00, returndatasize)\n    tag_79:\n      pop\n        /* \"contracts/htlc2.sol\":1800:1920  if (paySeller) {\r... */\n    tag_77:\n        /* \"contracts/htlc2.sol\":1613:1927  {\r... */\n      pop\n        /* \"contracts/htlc2.sol\":1555:1927  function disputeSettlement(bool paySeller) public payable {\r... */\n      pop\n      jump\t// out\n        /* \"contracts/htlc2.sol\":2451:2732  function defaultDisputeSettlement() public payable {\r... */\n    tag_47:\n        /* \"contracts/htlc2.sol\":2534:2540  notary */\n      0x03\n      0x00\n      swap1\n      sload\n      swap1\n      0x0100\n      exp\n      swap1\n      div\n      0xffffffffffffffffffffffffffffffffffffffff\n      and\n        /* \"contracts/htlc2.sol\":2521:2540  tx.origin == notary */\n      0xffffffffffffffffffffffffffffffffffffffff\n      and\n        /* \"contracts/htlc2.sol\":2521:2530  tx.origin */\n      origin\n        /* \"contracts/htlc2.sol\":2521:2540  tx.origin == notary */\n      0xffffffffffffffffffffffffffffffffffffffff\n      and\n      eq\n        /* \"contracts/htlc2.sol\":2521:2563  tx.origin == notary || tx.origin == seller */\n      dup1\n      tag_81\n      jumpi\n      pop\n        /* \"contracts/htlc2.sol\":2557:2563  seller */\n      0x04\n      0x00\n      swap1\n      sload\n      swap1\n      0x0100\n      exp\n      swap1\n      div\n      0xffffffffffffffffffffffffffffffffffffffff\n      and\n        /* \"contracts/htlc2.sol\":2544:2563  tx.origin == seller */\n      0xffffffffffffffffffffffffffffffffffffffff\n      and\n        /* \"contracts/htlc2.sol\":2544:2553  tx.origin */\n      origin\n        /* \"contracts/htlc2.sol\":2544:2563  tx.origin == seller */\n      0xffffffffffffffffffffffffffffffffffffffff\n      and\n      eq\n        /* \"contracts/htlc2.sol\":2521:2563  tx.origin == notary || tx.origin == seller */\n    tag_81:\n        /* \"contracts/htlc2.sol\":2521:2585  tx.origin == notary || tx.origin == seller || tx.origin == buyer */\n      dup1\n      tag_82\n      jumpi\n      pop\n        /* \"contracts/htlc2.sol\":2580:2585  buyer */\n      0x02\n      0x00\n      swap1\n      sload\n      swap1\n      0x0100\n      exp\n      swap1\n      div\n      0xffffffffffffffffffffffffffffffffffffffff\n      and\n        /* \"contracts/htlc2.sol\":2567:2585  tx.origin == buyer */\n      0xffffffffffffffffffffffffffffffffffffffff\n      and\n        /* \"contracts/htlc2.sol\":2567:2576  tx.origin */\n      origin\n        /* \"contracts/htlc2.sol\":2567:2585  tx.origin == buyer */\n      0xffffffffffffffffffffffffffffffffffffffff\n      and\n      eq\n        /* \"contracts/htlc2.sol\":2521:2585  tx.origin == notary || tx.origin == seller || tx.origin == buyer */\n    tag_82:\n        /* \"contracts/htlc2.sol\":2513:2586  require(tx.origin == notary || tx.origin == seller || tx.origin == buyer) */\n      tag_83\n      jumpi\n      0x00\n      dup1\n      revert\n    tag_83:\n        /* \"contracts/htlc2.sol\":2625:2639  disputeRelease */\n      sload(0x01)\n        /* \"contracts/htlc2.sol\":2606:2621  block.timestamp */\n      timestamp\n        /* \"contracts/htlc2.sol\":2606:2639  block.timestamp >= disputeRelease */\n      lt\n      iszero\n        /* \"contracts/htlc2.sol\":2597:2641  require((block.timestamp >= disputeRelease)) */\n      tag_84\n      jumpi\n      0x00\n      dup1\n      revert\n    tag_84:\n        /* \"contracts/htlc2.sol\":2652:2666  uint256 amount */\n      0x00\n        /* \"contracts/htlc2.sol\":2669:2690  address(this).balance */\n      selfbalance\n        /* \"contracts/htlc2.sol\":2652:2690  uint256 amount = address(this).balance */\n      swap1\n      pop\n        /* \"contracts/htlc2.sol\":2701:2707  seller */\n      0x04\n      0x00\n      swap1\n      sload\n      swap1\n      0x0100\n      exp\n      swap1\n      div\n      0xffffffffffffffffffffffffffffffffffffffff\n      and\n        /* \"contracts/htlc2.sol\":2701:2716  seller.transfer */\n      0xffffffffffffffffffffffffffffffffffffffff\n      and\n        /* \"contracts/htlc2.sol\":2701:2724  seller.transfer(amount) */\n      0x08fc\n        /* \"contracts/htlc2.sol\":2717:2723  amount */\n      dup3\n        /* \"contracts/htlc2.sol\":2701:2724  seller.transfer(amount) */\n      swap1\n      dup2\n      iszero\n      mul\n      swap1\n      mload(0x40)\n      0x00\n      mload(0x40)\n      dup1\n      dup4\n      sub\n      dup2\n      dup6\n      dup9\n      dup9\n      call\n      swap4\n      pop\n      pop\n      pop\n      pop\n      iszero\n      dup1\n      iszero\n      tag_86\n      jumpi\n      returndatasize\n      0x00\n      dup1\n      returndatacopy\n      revert(0x00, returndatasize)\n    tag_86:\n      pop\n        /* \"contracts/htlc2.sol\":2502:2732  {\r... */\n      pop\n        /* \"contracts/htlc2.sol\":2451:2732  function defaultDisputeSettlement() public payable {\r... */\n      jump\t// out\n        /* \"contracts/htlc2.sol\":227:246  bool public dispute */\n    tag_50:\n      0x04\n      0x14\n      swap1\n      sload\n      swap1\n      0x0100\n      exp\n      swap1\n      div\n      0xff\n      and\n      dup2\n      jump\t// out\n        /* \"#utility.yul\":7:140   */\n    tag_88:\n        /* \"#utility.yul\":50:55   */\n      0x00\n        /* \"#utility.yul\":88:94   */\n      dup2\n        /* \"#utility.yul\":75:95   */\n      calldataload\n        /* \"#utility.yul\":66:95   */\n      swap1\n      pop\n        /* \"#utility.yul\":104:134   */\n      tag_90\n        /* \"#utility.yul\":128:133   */\n      dup2\n        /* \"#utility.yul\":104:134   */\n      tag_91\n      jump\t// in\n    tag_90:\n        /* \"#utility.yul\":7:140   */\n      swap3\n      swap2\n      pop\n      pop\n      jump\t// out\n        /* \"#utility.yul\":146:469   */\n    tag_44:\n        /* \"#utility.yul\":202:208   */\n      0x00\n        /* \"#utility.yul\":251:253   */\n      0x20\n        /* \"#utility.yul\":239:248   */\n      dup3\n        /* \"#utility.yul\":230:237   */\n      dup5\n        /* \"#utility.yul\":226:249   */\n      sub\n        /* \"#utility.yul\":222:254   */\n      slt\n        /* \"#utility.yul\":219:338   */\n      iszero\n      tag_93\n      jumpi\n        /* \"#utility.yul\":257:336   */\n      tag_94\n      tag_95\n      jump\t// in\n    tag_94:\n        /* \"#utility.yul\":219:338   */\n    tag_93:\n        /* \"#utility.yul\":377:378   */\n      0x00\n        /* \"#utility.yul\":402:452   */\n      tag_96\n        /* \"#utility.yul\":444:451   */\n      dup5\n        /* \"#utility.yul\":435:441   */\n      dup3\n        /* \"#utility.yul\":424:433   */\n      dup6\n        /* \"#utility.yul\":420:442   */\n      add\n        /* \"#utility.yul\":402:452   */\n      tag_88\n      jump\t// in\n    tag_96:\n        /* \"#utility.yul\":392:452   */\n      swap2\n      pop\n        /* \"#utility.yul\":348:462   */\n      pop\n        /* \"#utility.yul\":146:469   */\n      swap3\n      swap2\n      pop\n      pop\n      jump\t// out\n        /* \"#utility.yul\":475:584   */\n    tag_97:\n        /* \"#utility.yul\":556:577   */\n      tag_99\n        /* \"#utility.yul\":571:576   */\n      dup2\n        /* \"#utility.yul\":556:577   */\n      tag_100\n      jump\t// in\n    tag_99:\n        /* \"#utility.yul\":551:554   */\n      dup3\n        /* \"#utility.yul\":544:578   */\n      mstore\n        /* \"#utility.yul\":475:584   */\n      pop\n      pop\n      jump\t// out\n        /* \"#utility.yul\":590:708   */\n    tag_101:\n        /* \"#utility.yul\":677:701   */\n      tag_103\n        /* \"#utility.yul\":695:700   */\n      dup2\n        /* \"#utility.yul\":677:701   */\n      tag_104\n      jump\t// in\n    tag_103:\n        /* \"#utility.yul\":672:675   */\n      dup3\n        /* \"#utility.yul\":665:702   */\n      mstore\n        /* \"#utility.yul\":590:708   */\n      pop\n      pop\n      jump\t// out\n        /* \"#utility.yul\":714:924   */\n    tag_52:\n        /* \"#utility.yul\":801:805   */\n      0x00\n        /* \"#utility.yul\":839:841   */\n      0x20\n        /* \"#utility.yul\":828:837   */\n      dup3\n        /* \"#utility.yul\":824:842   */\n      add\n        /* \"#utility.yul\":816:842   */\n      swap1\n      pop\n        /* \"#utility.yul\":852:917   */\n      tag_106\n        /* \"#utility.yul\":914:915   */\n      0x00\n        /* \"#utility.yul\":903:912   */\n      dup4\n        /* \"#utility.yul\":899:916   */\n      add\n        /* \"#utility.yul\":890:896   */\n      dup5\n        /* \"#utility.yul\":852:917   */\n      tag_97\n      jump\t// in\n    tag_106:\n        /* \"#utility.yul\":714:924   */\n      swap3\n      swap2\n      pop\n      pop\n      jump\t// out\n        /* \"#utility.yul\":930:1152   */\n    tag_22:\n        /* \"#utility.yul\":1023:1027   */\n      0x00\n        /* \"#utility.yul\":1061:1063   */\n      0x20\n        /* \"#utility.yul\":1050:1059   */\n      dup3\n        /* \"#utility.yul\":1046:1064   */\n      add\n        /* \"#utility.yul\":1038:1064   */\n      swap1\n      pop\n        /* \"#utility.yul\":1074:1145   */\n      tag_108\n        /* \"#utility.yul\":1142:1143   */\n      0x00\n        /* \"#utility.yul\":1131:1140   */\n      dup4\n        /* \"#utility.yul\":1127:1144   */\n      add\n        /* \"#utility.yul\":1118:1124   */\n      dup5\n        /* \"#utility.yul\":1074:1145   */\n      tag_101\n      jump\t// in\n    tag_108:\n        /* \"#utility.yul\":930:1152   */\n      swap3\n      swap2\n      pop\n      pop\n      jump\t// out\n        /* \"#utility.yul\":1239:1329   */\n    tag_100:\n        /* \"#utility.yul\":1273:1280   */\n      0x00\n        /* \"#utility.yul\":1316:1321   */\n      dup2\n        /* \"#utility.yul\":1309:1322   */\n      iszero\n        /* \"#utility.yul\":1302:1323   */\n      iszero\n        /* \"#utility.yul\":1291:1323   */\n      swap1\n      pop\n        /* \"#utility.yul\":1239:1329   */\n      swap2\n      swap1\n      pop\n      jump\t// out\n        /* \"#utility.yul\":1335:1412   */\n    tag_104:\n        /* \"#utility.yul\":1372:1379   */\n      0x00\n        /* \"#utility.yul\":1401:1406   */\n      dup2\n        /* \"#utility.yul\":1390:1406   */\n      swap1\n      pop\n        /* \"#utility.yul\":1335:1412   */\n      swap2\n      swap1\n      pop\n      jump\t// out\n        /* \"#utility.yul\":1541:1658   */\n    tag_95:\n        /* \"#utility.yul\":1650:1651   */\n      0x00\n        /* \"#utility.yul\":1647:1648   */\n      dup1\n        /* \"#utility.yul\":1640:1652   */\n      revert\n        /* \"#utility.yul\":1664:1780   */\n    tag_91:\n        /* \"#utility.yul\":1734:1755   */\n      tag_117\n        /* \"#utility.yul\":1749:1754   */\n      dup2\n        /* \"#utility.yul\":1734:1755   */\n      tag_100\n      jump\t// in\n    tag_117:\n        /* \"#utility.yul\":1727:1732   */\n      dup2\n        /* \"#utility.yul\":1724:1756   */\n      eq\n        /* \"#utility.yul\":1714:1774   */\n      tag_118\n      jumpi\n        /* \"#utility.yul\":1770:1771   */\n      0x00\n        /* \"#utility.yul\":1767:1768   */\n      dup1\n        /* \"#utility.yul\":1760:1772   */\n      revert\n        /* \"#utility.yul\":1714:1774   */\n    tag_118:\n        /* \"#utility.yul\":1664:1780   */\n      pop\n      jump\t// out\n\n    auxdata: 0xa2646970667358221220314a4ddf88540978e807526f0bce6f0695d211724bfd42097fb1d8ea75143d0264736f6c63430008070033\n}\n",
				"bytecode": {
					"linkReferences": {},
					"object": "608060405260405162000b8c38038062000b8c83398181016040528101906200002991906200017b565b83600460006101000a81548173ffffffffffffffffffffffffffffffffffffffff021916908373ffffffffffffffffffffffffffffffffffffffff16021790555082600360006101000a81548173ffffffffffffffffffffffffffffffffffffffff021916908373ffffffffffffffffffffffffffffffffffffffff16021790555033600260006101000a81548173ffffffffffffffffffffffffffffffffffffffff021916908373ffffffffffffffffffffffffffffffffffffffff1602179055506000600460146101000a81548160ff02191690831515021790555081600081905550818110156200012457816001819055506200012c565b806001819055505b5050505062000292565b600081519050620001478162000244565b92915050565b6000815190506200015e816200025e565b92915050565b600081519050620001758162000278565b92915050565b600080600080608085870312156200019857620001976200023f565b5b6000620001a8878288016200014d565b9450506020620001bb8782880162000136565b9350506040620001ce8782880162000164565b9250506060620001e18782880162000164565b91505092959194509250565b6000620001fa8262000215565b9050919050565b60006200020e8262000215565b9050919050565b600073ffffffffffffffffffffffffffffffffffffffff82169050919050565b6000819050919050565b600080fd5b6200024f81620001ed565b81146200025b57600080fd5b50565b620002698162000201565b81146200027557600080fd5b50565b620002838162000235565b81146200028f57600080fd5b50565b6108ea80620002a26000396000f3fe6080604052600436106100955760003560e01c8063a1c5304711610059578063a1c5304714610122578063a5c416491461014d578063cc355cf514610178578063d9c4273e14610194578063f240f7c31461019e5761009c565b806312065fe0146100a157806351160630146100cc5780636daa2d44146100e35780636f9fb98a146100ed5780639410872b146101185761009c565b3661009c57005b600080fd5b3480156100ad57600080fd5b506100b66101c9565b6040516100c39190610867565b60405180910390f35b3480156100d857600080fd5b506100e16101d1565b005b6100eb61029c565b005b3480156100f957600080fd5b50610102610322565b60405161010f9190610867565b60405180910390f35b61012061032a565b005b34801561012e57600080fd5b506101376104d3565b6040516101449190610867565b60405180910390f35b34801561015957600080fd5b506101626104d9565b60405161016f9190610867565b60405180910390f35b610192600480360381019061018d9190610801565b6104df565b005b61019c61064f565b005b3480156101aa57600080fd5b506101b36107d9565b6040516101c0919061084c565b60405180910390f35b600047905090565b600260009054906101000a900473ffffffffffffffffffffffffffffffffffffffff1673ffffffffffffffffffffffffffffffffffffffff163273ffffffffffffffffffffffffffffffffffffffff161461022b57600080fd5b6000479050600460009054906101000a900473ffffffffffffffffffffffffffffffffffffffff1673ffffffffffffffffffffffffffffffffffffffff166108fc829081150290604051600060405180830381858888f19350505050158015610298573d6000803e3d6000fd5b5050565b600260009054906101000a900473ffffffffffffffffffffffffffffffffffffffff1673ffffffffffffffffffffffffffffffffffffffff163273ffffffffffffffffffffffffffffffffffffffff16146102f657600080fd5b60005442111561030557600080fd5b6001600460146101000a81548160ff021916908315150217905550565b600047905090565b600360009054906101000a900473ffffffffffffffffffffffffffffffffffffffff1673ffffffffffffffffffffffffffffffffffffffff163273ffffffffffffffffffffffffffffffffffffffff1614806103d35750600460009054906101000a900473ffffffffffffffffffffffffffffffffffffffff1673ffffffffffffffffffffffffffffffffffffffff163273ffffffffffffffffffffffffffffffffffffffff16145b8061042b5750600260009054906101000a900473ffffffffffffffffffffffffffffffffffffffff1673ffffffffffffffffffffffffffffffffffffffff163273ffffffffffffffffffffffffffffffffffffffff16145b61043457600080fd5b6000544210158015610459575060001515600460149054906101000a900460ff161515145b61046257600080fd5b6000479050600460009054906101000a900473ffffffffffffffffffffffffffffffffffffffff1673ffffffffffffffffffffffffffffffffffffffff166108fc829081150290604051600060405180830381858888f193505050501580156104cf573d6000803e3d6000fd5b5050565b60005481565b60015481565b600360009054906101000a900473ffffffffffffffffffffffffffffffffffffffff1673ffffffffffffffffffffffffffffffffffffffff163273ffffffffffffffffffffffffffffffffffffffff161461053957600080fd5b60011515600460149054906101000a900460ff1615151461055957600080fd5b60015442111561056857600080fd5b600047905081156105e157600460009054906101000a900473ffffffffffffffffffffffffffffffffffffffff1673ffffffffffffffffffffffffffffffffffffffff166108fc829081150290604051600060405180830381858888f193505050501580156105db573d6000803e3d6000fd5b5061064b565b600260009054906101000a900473ffffffffffffffffffffffffffffffffffffffff1673ffffffffffffffffffffffffffffffffffffffff166108fc829081150290604051600060405180830381858888f19350505050158015610649573d6000803e3d6000fd5b505b5050565b600360009054906101000a900473ffffffffffffffffffffffffffffffffffffffff1673ffffffffffffffffffffffffffffffffffffffff163273ffffffffffffffffffffffffffffffffffffffff1614806106f85750600460009054906101000a900473ffffffffffffffffffffffffffffffffffffffff1673ffffffffffffffffffffffffffffffffffffffff163273ffffffffffffffffffffffffffffffffffffffff16145b806107505750600260009054906101000a900473ffffffffffffffffffffffffffffffffffffffff1673ffffffffffffffffffffffffffffffffffffffff163273ffffffffffffffffffffffffffffffffffffffff16145b61075957600080fd5b60015442101561076857600080fd5b6000479050600460009054906101000a900473ffffffffffffffffffffffffffffffffffffffff1673ffffffffffffffffffffffffffffffffffffffff166108fc829081150290604051600060405180830381858888f193505050501580156107d5573d6000803e3d6000fd5b5050565b600460149054906101000a900460ff1681565b6000813590506107fb8161089d565b92915050565b60006020828403121561081757610816610898565b5b6000610825848285016107ec565b91505092915050565b61083781610882565b82525050565b6108468161088e565b82525050565b6000602082019050610861600083018461082e565b92915050565b600060208201905061087c600083018461083d565b92915050565b60008115159050919050565b6000819050919050565b600080fd5b6108a681610882565b81146108b157600080fd5b5056fea2646970667358221220314a4ddf88540978e807526f0bce6f0695d211724bfd42097fb1d8ea75143d0264736f6c63430008070033",
					"opcodes": "PUSH1 0x80 PUSH1 0x40 MSTORE PUSH1 0x40 MLOAD PUSH3 0xB8C CODESIZE SUB DUP1 PUSH3 0xB8C DUP4 CODECOPY DUP2 DUP2 ADD PUSH1 0x40 MSTORE DUP2 ADD SWAP1 PUSH3 0x29 SWAP2 SWAP1 PUSH3 0x17B JUMP JUMPDEST DUP4 PUSH1 0x4 PUSH1 0x0 PUSH2 0x100 EXP DUP2 SLOAD DUP2 PUSH20 0xFFFFFFFFFFFFFFFFFFFFFFFFFFFFFFFFFFFFFFFF MUL NOT AND SWAP1 DUP4 PUSH20 0xFFFFFFFFFFFFFFFFFFFFFFFFFFFFFFFFFFFFFFFF AND MUL OR SWAP1 SSTORE POP DUP3 PUSH1 0x3 PUSH1 0x0 PUSH2 0x100 EXP DUP2 SLOAD DUP2 PUSH20 0xFFFFFFFFFFFFFFFFFFFFFFFFFFFFFFFFFFFFFFFF MUL NOT AND SWAP1 DUP4 PUSH20 0xFFFFFFFFFFFFFFFFFFFFFFFFFFFFFFFFFFFFFFFF AND MUL OR SWAP1 SSTORE POP CALLER PUSH1 0x2 PUSH1 0x0 PUSH2 0x100 EXP DUP2 SLOAD DUP2 PUSH20 0xFFFFFFFFFFFFFFFFFFFFFFFFFFFFFFFFFFFFFFFF MUL NOT AND SWAP1 DUP4 PUSH20 0xFFFFFFFFFFFFFFFFFFFFFFFFFFFFFFFFFFFFFFFF AND MUL OR SWAP1 SSTORE POP PUSH1 0x0 PUSH1 0x4 PUSH1 0x14 PUSH2 0x100 EXP DUP2 SLOAD DUP2 PUSH1 0xFF MUL NOT AND SWAP1 DUP4 ISZERO ISZERO MUL OR SWAP1 SSTORE POP DUP2 PUSH1 0x0 DUP2 SWAP1 SSTORE POP DUP2 DUP2 LT ISZERO PUSH3 0x124 JUMPI DUP2 PUSH1 0x1 DUP2 SWAP1 SSTORE POP PUSH3 0x12C JUMP JUMPDEST DUP1 PUSH1 0x1 DUP2 SWAP1 SSTORE POP JUMPDEST POP POP POP POP PUSH3 0x292 JUMP JUMPDEST PUSH1 0x0 DUP2 MLOAD SWAP1 POP PUSH3 0x147 DUP2 PUSH3 0x244 JUMP JUMPDEST SWAP3 SWAP2 POP POP JUMP JUMPDEST PUSH1 0x0 DUP2 MLOAD SWAP1 POP PUSH3 0x15E DUP2 PUSH3 0x25E JUMP JUMPDEST SWAP3 SWAP2 POP POP JUMP JUMPDEST PUSH1 0x0 DUP2 MLOAD SWAP1 POP PUSH3 0x175 DUP2 PUSH3 0x278 JUMP JUMPDEST SWAP3 SWAP2 POP POP JUMP JUMPDEST PUSH1 0x0 DUP1 PUSH1 0x0 DUP1 PUSH1 0x80 DUP6 DUP8 SUB SLT ISZERO PUSH3 0x198 JUMPI PUSH3 0x197 PUSH3 0x23F JUMP JUMPDEST JUMPDEST PUSH1 0x0 PUSH3 0x1A8 DUP8 DUP3 DUP9 ADD PUSH3 0x14D JUMP JUMPDEST SWAP5 POP POP PUSH1 0x20 PUSH3 0x1BB DUP8 DUP3 DUP9 ADD PUSH3 0x136 JUMP JUMPDEST SWAP4 POP POP PUSH1 0x40 PUSH3 0x1CE DUP8 DUP3 DUP9 ADD PUSH3 0x164 JUMP JUMPDEST SWAP3 POP POP PUSH1 0x60 PUSH3 0x1E1 DUP8 DUP3 DUP9 ADD PUSH3 0x164 JUMP JUMPDEST SWAP2 POP POP SWAP3 SWAP6 SWAP2 SWAP5 POP SWAP3 POP JUMP JUMPDEST PUSH1 0x0 PUSH3 0x1FA DUP3 PUSH3 0x215 JUMP JUMPDEST SWAP1 POP SWAP2 SWAP1 POP JUMP JUMPDEST PUSH1 0x0 PUSH3 0x20E DUP3 PUSH3 0x215 JUMP JUMPDEST SWAP1 POP SWAP2 SWAP1 POP JUMP JUMPDEST PUSH1 0x0 PUSH20 0xFFFFFFFFFFFFFFFFFFFFFFFFFFFFFFFFFFFFFFFF DUP3 AND SWAP1 POP SWAP2 SWAP1 POP JUMP JUMPDEST PUSH1 0x0 DUP2 SWAP1 POP SWAP2 SWAP1 POP JUMP JUMPDEST PUSH1 0x0 DUP1 REVERT JUMPDEST PUSH3 0x24F DUP2 PUSH3 0x1ED JUMP JUMPDEST DUP2 EQ PUSH3 0x25B JUMPI PUSH1 0x0 DUP1 REVERT JUMPDEST POP JUMP JUMPDEST PUSH3 0x269 DUP2 PUSH3 0x201 JUMP JUMPDEST DUP2 EQ PUSH3 0x275 JUMPI PUSH1 0x0 DUP1 REVERT JUMPDEST POP JUMP JUMPDEST PUSH3 0x283 DUP2 PUSH3 0x235 JUMP JUMPDEST DUP2 EQ PUSH3 0x28F JUMPI PUSH1 0x0 DUP1 REVERT JUMPDEST POP JUMP JUMPDEST PUSH2 0x8EA DUP1 PUSH3 0x2A2 PUSH1 0x0 CODECOPY PUSH1 0x0 RETURN INVALID PUSH1 0x80 PUSH1 0x40 MSTORE PUSH1 0x4 CALLDATASIZE LT PUSH2 0x95 JUMPI PUSH1 0x0 CALLDATALOAD PUSH1 0xE0 SHR DUP1 PUSH4 0xA1C53047 GT PUSH2 0x59 JUMPI DUP1 PUSH4 0xA1C53047 EQ PUSH2 0x122 JUMPI DUP1 PUSH4 0xA5C41649 EQ PUSH2 0x14D JUMPI DUP1 PUSH4 0xCC355CF5 EQ PUSH2 0x178 JUMPI DUP1 PUSH4 0xD9C4273E EQ PUSH2 0x194 JUMPI DUP1 PUSH4 0xF240F7C3 EQ PUSH2 0x19E JUMPI PUSH2 0x9C JUMP JUMPDEST DUP1 PUSH4 0x12065FE0 EQ PUSH2 0xA1 JUMPI DUP1 PUSH4 0x51160630 EQ PUSH2 0xCC JUMPI DUP1 PUSH4 0x6DAA2D44 EQ PUSH2 0xE3 JUMPI DUP1 PUSH4 0x6F9FB98A EQ PUSH2 0xED JUMPI DUP1 PUSH4 0x9410872B EQ PUSH2 0x118 JUMPI PUSH2 0x9C JUMP JUMPDEST CALLDATASIZE PUSH2 0x9C JUMPI STOP JUMPDEST PUSH1 0x0 DUP1 REVERT JUMPDEST CALLVALUE DUP1 ISZERO PUSH2 0xAD JUMPI PUSH1 0x0 DUP1 REVERT JUMPDEST POP PUSH2 0xB6 PUSH2 0x1C9 JUMP JUMPDEST PUSH1 0x40 MLOAD PUSH2 0xC3 SWAP2 SWAP1 PUSH2 0x867 JUMP JUMPDEST PUSH1 0x40 MLOAD DUP1 SWAP2 SUB SWAP1 RETURN JUMPDEST CALLVALUE DUP1 ISZERO PUSH2 0xD8 JUMPI PUSH1 0x0 DUP1 REVERT JUMPDEST POP PUSH2 0xE1 PUSH2 0x1D1 JUMP JUMPDEST STOP JUMPDEST PUSH2 0xEB PUSH2 0x29C JUMP JUMPDEST STOP JUMPDEST CALLVALUE DUP1 ISZERO PUSH2 0xF9 JUMPI PUSH1 0x0 DUP1 REVERT JUMPDEST POP PUSH2 0x102 PUSH2 0x322 JUMP JUMPDEST PUSH1 0x40 MLOAD PUSH2 0x10F SWAP2 SWAP1 PUSH2 0x867 JUMP JUMPDEST PUSH1 0x40 MLOAD DUP1 SWAP2 SUB SWAP1 RETURN JUMPDEST PUSH2 0x120 PUSH2 0x32A JUMP JUMPDEST STOP JUMPDEST CALLVALUE DUP1 ISZERO PUSH2 0x12E JUMPI PUSH1 0x0 DUP1 REVERT JUMPDEST POP PUSH2 0x137 PUSH2 0x4D3 JUMP JUMPDEST PUSH1 0x40 MLOAD PUSH2 0x144 SWAP2 SWAP1 PUSH2 0x867 JUMP JUMPDEST PUSH1 0x40 MLOAD DUP1 SWAP2 SUB SWAP1 RETURN JUMPDEST CALLVALUE DUP1 ISZERO PUSH2 0x159 JUMPI PUSH1 0x0 DUP1 REVERT JUMPDEST POP PUSH2 0x162 PUSH2 0x4D9 JUMP JUMPDEST PUSH1 0x40 MLOAD PUSH2 0x16F SWAP2 SWAP1 PUSH2 0x867 JUMP JUMPDEST PUSH1 0x40 MLOAD DUP1 SWAP2 SUB SWAP1 RETURN JUMPDEST PUSH2 0x192 PUSH1 0x4 DUP1 CALLDATASIZE SUB DUP2 ADD SWAP1 PUSH2 0x18D SWAP2 SWAP1 PUSH2 0x801 JUMP JUMPDEST PUSH2 0x4DF JUMP JUMPDEST STOP JUMPDEST PUSH2 0x19C PUSH2 0x64F JUMP JUMPDEST STOP JUMPDEST CALLVALUE DUP1 ISZERO PUSH2 0x1AA JUMPI PUSH1 0x0 DUP1 REVERT JUMPDEST POP PUSH2 0x1B3 PUSH2 0x7D9 JUMP JUMPDEST PUSH1 0x40 MLOAD PUSH2 0x1C0 SWAP2 SWAP1 PUSH2 0x84C JUMP JUMPDEST PUSH1 0x40 MLOAD DUP1 SWAP2 SUB SWAP1 RETURN JUMPDEST PUSH1 0x0 SELFBALANCE SWAP1 POP SWAP1 JUMP JUMPDEST PUSH1 0x2 PUSH1 0x0 SWAP1 SLOAD SWAP1 PUSH2 0x100 EXP SWAP1 DIV PUSH20 0xFFFFFFFFFFFFFFFFFFFFFFFFFFFFFFFFFFFFFFFF AND PUSH20 0xFFFFFFFFFFFFFFFFFFFFFFFFFFFFFFFFFFFFFFFF AND ORIGIN PUSH20 0xFFFFFFFFFFFFFFFFFFFFFFFFFFFFFFFFFFFFFFFF AND EQ PUSH2 0x22B JUMPI PUSH1 0x0 DUP1 REVERT JUMPDEST PUSH1 0x0 SELFBALANCE SWAP1 POP PUSH1 0x4 PUSH1 0x0 SWAP1 SLOAD SWAP1 PUSH2 0x100 EXP SWAP1 DIV PUSH20 0xFFFFFFFFFFFFFFFFFFFFFFFFFFFFFFFFFFFFFFFF AND PUSH20 0xFFFFFFFFFFFFFFFFFFFFFFFFFFFFFFFFFFFFFFFF AND PUSH2 0x8FC DUP3 SWAP1 DUP2 ISZERO MUL SWAP1 PUSH1 0x40 MLOAD PUSH1 0x0 PUSH1 0x40 MLOAD DUP1 DUP4 SUB DUP2 DUP6 DUP9 DUP9 CALL SWAP4 POP POP POP POP ISZERO DUP1 ISZERO PUSH2 0x298 JUMPI RETURNDATASIZE PUSH1 0x0 DUP1 RETURNDATACOPY RETURNDATASIZE PUSH1 0x0 REVERT JUMPDEST POP POP JUMP JUMPDEST PUSH1 0x2 PUSH1 0x0 SWAP1 SLOAD SWAP1 PUSH2 0x100 EXP SWAP1 DIV PUSH20 0xFFFFFFFFFFFFFFFFFFFFFFFFFFFFFFFFFFFFFFFF AND PUSH20 0xFFFFFFFFFFFFFFFFFFFFFFFFFFFFFFFFFFFFFFFF AND ORIGIN PUSH20 0xFFFFFFFFFFFFFFFFFFFFFFFFFFFFFFFFFFFFFFFF AND EQ PUSH2 0x2F6 JUMPI PUSH1 0x0 DUP1 REVERT JUMPDEST PUSH1 0x0 SLOAD TIMESTAMP GT ISZERO PUSH2 0x305 JUMPI PUSH1 0x0 DUP1 REVERT JUMPDEST PUSH1 0x1 PUSH1 0x4 PUSH1 0x14 PUSH2 0x100 EXP DUP2 SLOAD DUP2 PUSH1 0xFF MUL NOT AND SWAP1 DUP4 ISZERO ISZERO MUL OR SWAP1 SSTORE POP JUMP JUMPDEST PUSH1 0x0 SELFBALANCE SWAP1 POP SWAP1 JUMP JUMPDEST PUSH1 0x3 PUSH1 0x0 SWAP1 SLOAD SWAP1 PUSH2 0x100 EXP SWAP1 DIV PUSH20 0xFFFFFFFFFFFFFFFFFFFFFFFFFFFFFFFFFFFFFFFF AND PUSH20 0xFFFFFFFFFFFFFFFFFFFFFFFFFFFFFFFFFFFFFFFF AND ORIGIN PUSH20 0xFFFFFFFFFFFFFFFFFFFFFFFFFFFFFFFFFFFFFFFF AND EQ DUP1 PUSH2 0x3D3 JUMPI POP PUSH1 0x4 PUSH1 0x0 SWAP1 SLOAD SWAP1 PUSH2 0x100 EXP SWAP1 DIV PUSH20 0xFFFFFFFFFFFFFFFFFFFFFFFFFFFFFFFFFFFFFFFF AND PUSH20 0xFFFFFFFFFFFFFFFFFFFFFFFFFFFFFFFFFFFFFFFF AND ORIGIN PUSH20 0xFFFFFFFFFFFFFFFFFFFFFFFFFFFFFFFFFFFFFFFF AND EQ JUMPDEST DUP1 PUSH2 0x42B JUMPI POP PUSH1 0x2 PUSH1 0x0 SWAP1 SLOAD SWAP1 PUSH2 0x100 EXP SWAP1 DIV PUSH20 0xFFFFFFFFFFFFFFFFFFFFFFFFFFFFFFFFFFFFFFFF AND PUSH20 0xFFFFFFFFFFFFFFFFFFFFFFFFFFFFFFFFFFFFFFFF AND ORIGIN PUSH20 0xFFFFFFFFFFFFFFFFFFFFFFFFFFFFFFFFFFFFFFFF AND EQ JUMPDEST PUSH2 0x434 JUMPI PUSH1 0x0 DUP1 REVERT JUMPDEST PUSH1 0x0 SLOAD TIMESTAMP LT ISZERO DUP1 ISZERO PUSH2 0x459 JUMPI POP PUSH1 0x0 ISZERO ISZERO PUSH1 0x4 PUSH1 0x14 SWAP1 SLOAD SWAP1 PUSH2 0x100 EXP SWAP1 DIV PUSH1 0xFF AND ISZERO ISZERO EQ JUMPDEST PUSH2 0x462 JUMPI PUSH1 0x0 DUP1 REVERT JUMPDEST PUSH1 0x0 SELFBALANCE SWAP1 POP PUSH1 0x4 PUSH1 0x0 SWAP1 SLOAD SWAP1 PUSH2 0x100 EXP SWAP1 DIV PUSH20 0xFFFFFFFFFFFFFFFFFFFFFFFFFFFFFFFFFFFFFFFF AND PUSH20 0xFFFFFFFFFFFFFFFFFFFFFFFFFFFFFFFFFFFFFFFF AND PUSH2 0x8FC DUP3 SWAP1 DUP2 ISZERO MUL SWAP1 PUSH1 0x40 MLOAD PUSH1 0x0 PUSH1 0x40 MLOAD DUP1 DUP4 SUB DUP2 DUP6 DUP9 DUP9 CALL SWAP4 POP POP POP POP ISZERO DUP1 ISZERO PUSH2 0x4CF JUMPI RETURNDATASIZE PUSH1 0x0 DUP1 RETURNDATACOPY RETURNDATASIZE PUSH1 0x0 REVERT JUMPDEST POP POP JUMP JUMPDEST PUSH1 0x0 SLOAD DUP2 JUMP JUMPDEST PUSH1 0x1 SLOAD DUP2 JUMP JUMPDEST PUSH1 0x3 PUSH1 0x0 SWAP1 SLOAD SWAP1 PUSH2 0x100 EXP SWAP1 DIV PUSH20 0xFFFFFFFFFFFFFFFFFFFFFFFFFFFFFFFFFFFFFFFF AND PUSH20 0xFFFFFFFFFFFFFFFFFFFFFFFFFFFFFFFFFFFFFFFF AND ORIGIN PUSH20 0xFFFFFFFFFFFFFFFFFFFFFFFFFFFFFFFFFFFFFFFF AND EQ PUSH2 0x539 JUMPI PUSH1 0x0 DUP1 REVERT JUMPDEST PUSH1 0x1 ISZERO ISZERO PUSH1 0x4 PUSH1 0x14 SWAP1 SLOAD SWAP1 PUSH2 0x100 EXP SWAP1 DIV PUSH1 0xFF AND ISZERO ISZERO EQ PUSH2 0x559 JUMPI PUSH1 0x0 DUP1 REVERT JUMPDEST PUSH1 0x1 SLOAD TIMESTAMP GT ISZERO PUSH2 0x568 JUMPI PUSH1 0x0 DUP1 REVERT JUMPDEST PUSH1 0x0 SELFBALANCE SWAP1 POP DUP2 ISZERO PUSH2 0x5E1 JUMPI PUSH1 0x4 PUSH1 0x0 SWAP1 SLOAD SWAP1 PUSH2 0x100 EXP SWAP1 DIV PUSH20 0xFFFFFFFFFFFFFFFFFFFFFFFFFFFFFFFFFFFFFFFF AND PUSH20 0xFFFFFFFFFFFFFFFFFFFFFFFFFFFFFFFFFFFFFFFF AND PUSH2 0x8FC DUP3 SWAP1 DUP2 ISZERO MUL SWAP1 PUSH1 0x40 MLOAD PUSH1 0x0 PUSH1 0x40 MLOAD DUP1 DUP4 SUB DUP2 DUP6 DUP9 DUP9 CALL SWAP4 POP POP POP POP ISZERO DUP1 ISZERO PUSH2 0x5DB JUMPI RETURNDATASIZE PUSH1 0x0 DUP1 RETURNDATACOPY RETURNDATASIZE PUSH1 0x0 REVERT JUMPDEST POP PUSH2 0x64B JUMP JUMPDEST PUSH1 0x2 PUSH1 0x0 SWAP1 SLOAD SWAP1 PUSH2 0x100 EXP SWAP1 DIV PUSH20 0xFFFFFFFFFFFFFFFFFFFFFFFFFFFFFFFFFFFFFFFF AND PUSH20 0xFFFFFFFFFFFFFFFFFFFFFFFFFFFFFFFFFFFFFFFF AND PUSH2 0x8FC DUP3 SWAP1 DUP2 ISZERO MUL SWAP1 PUSH1 0x40 MLOAD PUSH1 0x0 PUSH1 0x40 MLOAD DUP1 DUP4 SUB DUP2 DUP6 DUP9 DUP9 CALL SWAP4 POP POP POP POP ISZERO DUP1 ISZERO PUSH2 0x649 JUMPI RETURNDATASIZE PUSH1 0x0 DUP1 RETURNDATACOPY RETURNDATASIZE PUSH1 0x0 REVERT JUMPDEST POP JUMPDEST POP POP JUMP JUMPDEST PUSH1 0x3 PUSH1 0x0 SWAP1 SLOAD SWAP1 PUSH2 0x100 EXP SWAP1 DIV PUSH20 0xFFFFFFFFFFFFFFFFFFFFFFFFFFFFFFFFFFFFFFFF AND PUSH20 0xFFFFFFFFFFFFFFFFFFFFFFFFFFFFFFFFFFFFFFFF AND ORIGIN PUSH20 0xFFFFFFFFFFFFFFFFFFFFFFFFFFFFFFFFFFFFFFFF AND EQ DUP1 PUSH2 0x6F8 JUMPI POP PUSH1 0x4 PUSH1 0x0 SWAP1 SLOAD SWAP1 PUSH2 0x100 EXP SWAP1 DIV PUSH20 0xFFFFFFFFFFFFFFFFFFFFFFFFFFFFFFFFFFFFFFFF AND PUSH20 0xFFFFFFFFFFFFFFFFFFFFFFFFFFFFFFFFFFFFFFFF AND ORIGIN PUSH20 0xFFFFFFFFFFFFFFFFFFFFFFFFFFFFFFFFFFFFFFFF AND EQ JUMPDEST DUP1 PUSH2 0x750 JUMPI POP PUSH1 0x2 PUSH1 0x0 SWAP1 SLOAD SWAP1 PUSH2 0x100 EXP SWAP1 DIV PUSH20 0xFFFFFFFFFFFFFFFFFFFFFFFFFFFFFFFFFFFFFFFF AND PUSH20 0xFFFFFFFFFFFFFFFFFFFFFFFFFFFFFFFFFFFFFFFF AND ORIGIN PUSH20 0xFFFFFFFFFFFFFFFFFFFFFFFFFFFFFFFFFFFFFFFF AND EQ JUMPDEST PUSH2 0x759 JUMPI PUSH1 0x0 DUP1 REVERT JUMPDEST PUSH1 0x1 SLOAD TIMESTAMP LT ISZERO PUSH2 0x768 JUMPI PUSH1 0x0 DUP1 REVERT JUMPDEST PUSH1 0x0 SELFBALANCE SWAP1 POP PUSH1 0x4 PUSH1 0x0 SWAP1 SLOAD SWAP1 PUSH2 0x100 EXP SWAP1 DIV PUSH20 0xFFFFFFFFFFFFFFFFFFFFFFFFFFFFFFFFFFFFFFFF AND PUSH20 0xFFFFFFFFFFFFFFFFFFFFFFFFFFFFFFFFFFFFFFFF AND PUSH2 0x8FC DUP3 SWAP1 DUP2 ISZERO MUL SWAP1 PUSH1 0x40 MLOAD PUSH1 0x0 PUSH1 0x40 MLOAD DUP1 DUP4 SUB DUP2 DUP6 DUP9 DUP9 CALL SWAP4 POP POP POP POP ISZERO DUP1 ISZERO PUSH2 0x7D5 JUMPI RETURNDATASIZE PUSH1 0x0 DUP1 RETURNDATACOPY RETURNDATASIZE PUSH1 0x0 REVERT JUMPDEST POP POP JUMP JUMPDEST PUSH1 0x4 PUSH1 0x14 SWAP1 SLOAD SWAP1 PUSH2 0x100 EXP SWAP1 DIV PUSH1 0xFF AND DUP2 JUMP JUMPDEST PUSH1 0x0 DUP2 CALLDATALOAD SWAP1 POP PUSH2 0x7FB DUP2 PUSH2 0x89D JUMP JUMPDEST SWAP3 SWAP2 POP POP JUMP JUMPDEST PUSH1 0x0 PUSH1 0x20 DUP3 DUP5 SUB SLT ISZERO PUSH2 0x817 JUMPI PUSH2 0x816 PUSH2 0x898 JUMP JUMPDEST JUMPDEST PUSH1 0x0 PUSH2 0x825 DUP5 DUP3 DUP6 ADD PUSH2 0x7EC JUMP JUMPDEST SWAP2 POP POP SWAP3 SWAP2 POP POP JUMP JUMPDEST PUSH2 0x837 DUP2 PUSH2 0x882 JUMP JUMPDEST DUP3 MSTORE POP POP JUMP JUMPDEST PUSH2 0x846 DUP2 PUSH2 0x88E JUMP JUMPDEST DUP3 MSTORE POP POP JUMP JUMPDEST PUSH1 0x0 PUSH1 0x20 DUP3 ADD SWAP1 POP PUSH2 0x861 PUSH1 0x0 DUP4 ADD DUP5 PUSH2 0x82E JUMP JUMPDEST SWAP3 SWAP2 POP POP JUMP JUMPDEST PUSH1 0x0 PUSH1 0x20 DUP3 ADD SWAP1 POP PUSH2 0x87C PUSH1 0x0 DUP4 ADD DUP5 PUSH2 0x83D JUMP JUMPDEST SWAP3 SWAP2 POP POP JUMP JUMPDEST PUSH1 0x0 DUP2 ISZERO ISZERO SWAP1 POP SWAP2 SWAP1 POP JUMP JUMPDEST PUSH1 0x0 DUP2 SWAP1 POP SWAP2 SWAP1 POP JUMP JUMPDEST PUSH1 0x0 DUP1 REVERT JUMPDEST PUSH2 0x8A6 DUP2 PUSH2 0x882 JUMP JUMPDEST DUP2 EQ PUSH2 0x8B1 JUMPI PUSH1 0x0 DUP1 REVERT JUMPDEST POP JUMP INVALID LOG2 PUSH5 0x6970667358 0x22 SLT KECCAK256 BALANCE 0x4A 0x4D 0xDF DUP9 SLOAD MULMOD PUSH25 0xE807526F0BCE6F0695D211724BFD42097FB1D8EA75143D0264 PUSH20 0x6F6C634300080700330000000000000000000000 "
				},
				"gasEstimates": {
					"creation": {
						"codeDepositCost": "456400",
						"executionCost": "infinite",
						"totalCost": "infinite"
					},
					"external": {
						"": "202",
						"defaultDisputeSettlement()": "infinite",
						"dispute()": "2609",
						"disputeRelease()": "2451",
						"disputeSettlement(bool)": "infinite",
						"getBalance()": "340",
						"getContractBalance()": "406",
						"raiseDispute()": "28777",
						"saleRelease()": "2429",
						"saleSettlement()": "infinite",
						"settlement()": "infinite"
					}
				},
				"methodIdentifiers": {
					"defaultDisputeSettlement()": "d9c4273e",
					"dispute()": "f240f7c3",
					"disputeRelease()": "a5c41649",
					"disputeSettlement(bool)": "cc355cf5",
					"getBalance()": "12065fe0",
					"getContractBalance()": "6f9fb98a",
					"raiseDispute()": "6daa2d44",
					"saleRelease()": "a1c53047",
					"saleSettlement()": "9410872b",
					"settlement()": "51160630"
				}
			},
			"storageLayout": {
				"storage": [
					{
						"astId": 3,
						"contract": "contracts/htlc2.sol:Peacio",
						"label": "saleRelease",
						"offset": 0,
						"slot": "0",
						"type": "t_uint256"
					},
					{
						"astId": 5,
						"contract": "contracts/htlc2.sol:Peacio",
						"label": "disputeRelease",
						"offset": 0,
						"slot": "1",
						"type": "t_uint256"
					},
					{
						"astId": 7,
						"contract": "contracts/htlc2.sol:Peacio",
						"label": "buyer",
						"offset": 0,
						"slot": "2",
						"type": "t_address_payable"
					},
					{
						"astId": 9,
						"contract": "contracts/htlc2.sol:Peacio",
						"label": "notary",
						"offset": 0,
						"slot": "3",
						"type": "t_address"
					},
					{
						"astId": 11,
						"contract": "contracts/htlc2.sol:Peacio",
						"label": "seller",
						"offset": 0,
						"slot": "4",
						"type": "t_address_payable"
					},
					{
						"astId": 13,
						"contract": "contracts/htlc2.sol:Peacio",
						"label": "dispute",
						"offset": 20,
						"slot": "4",
						"type": "t_bool"
					}
				],
				"types": {
					"t_address": {
						"encoding": "inplace",
						"label": "address",
						"numberOfBytes": "20"
					},
					"t_address_payable": {
						"encoding": "inplace",
						"label": "address payable",
						"numberOfBytes": "20"
					},
					"t_bool": {
						"encoding": "inplace",
						"label": "bool",
						"numberOfBytes": "1"
					},
					"t_uint256": {
						"encoding": "inplace",
						"label": "uint256",
						"numberOfBytes": "32"
					}
				}
			},
			"userdoc": {
				"kind": "user",
				"methods": {},
				"version": 1
			}
		}
	}
}