{
	"contracts/userProfile2.sol": {
		"NameRegistry": {
			"abi": [
				{
					"anonymous": false,
					"inputs": [
						{
							"indexed": true,
							"internalType": "address",
							"name": "ethAddress",
							"type": "address"
						}
					],
					"name": "NameDeregistered",
					"type": "event"
				},
				{
					"anonymous": false,
					"inputs": [
						{
							"indexed": true,
							"internalType": "address",
							"name": "ethAddress",
							"type": "address"
						},
						{
							"indexed": false,
							"internalType": "string",
							"name": "name",
							"type": "string"
						}
					],
					"name": "NameRegistered",
					"type": "event"
				},
				{
					"anonymous": false,
					"inputs": [
						{
							"indexed": true,
							"internalType": "address",
							"name": "fromAddress",
							"type": "address"
						},
						{
							"indexed": true,
							"internalType": "address",
							"name": "toAddress",
							"type": "address"
						},
						{
							"indexed": false,
							"internalType": "string",
							"name": "name",
							"type": "string"
						}
					],
					"name": "NameTransferred",
					"type": "event"
				},
				{
					"inputs": [
						{
							"internalType": "address",
							"name": "",
							"type": "address"
						}
					],
					"name": "addressToProfile",
					"outputs": [
						{
							"internalType": "string",
							"name": "userName",
							"type": "string"
						},
						{
							"internalType": "bool",
							"name": "registered",
							"type": "bool"
						}
					],
					"stateMutability": "view",
					"type": "function"
				},
				{
					"inputs": [],
					"name": "deregisterName",
					"outputs": [],
					"stateMutability": "nonpayable",
					"type": "function"
				},
				{
					"inputs": [
						{
							"internalType": "address",
							"name": "_userAddress",
							"type": "address"
						}
					],
					"name": "getName",
					"outputs": [
						{
							"internalType": "string",
							"name": "",
							"type": "string"
						}
					],
					"stateMutability": "view",
					"type": "function"
				},
				{
					"inputs": [
						{
							"internalType": "string",
							"name": "_userName",
							"type": "string"
						}
					],
					"name": "registerName",
					"outputs": [],
					"stateMutability": "nonpayable",
					"type": "function"
				},
				{
					"inputs": [
						{
							"internalType": "address",
							"name": "_newAddress",
							"type": "address"
						}
					],
					"name": "transferName",
					"outputs": [],
					"stateMutability": "nonpayable",
					"type": "function"
				}
			],
			"devdoc": {
				"kind": "dev",
				"methods": {},
				"version": 1
			},
			"evm": {
				"assembly": "    /* \"contracts/userProfile2.sol\":60:2886  contract NameRegistry {... */\n  mstore(0x40, 0x80)\n  callvalue\n  dup1\n  iszero\n  tag_1\n  jumpi\n  0x00\n  dup1\n  revert\ntag_1:\n  pop\n  dataSize(sub_0)\n  dup1\n  dataOffset(sub_0)\n  0x00\n  codecopy\n  0x00\n  return\nstop\n\nsub_0: assembly {\n        /* \"contracts/userProfile2.sol\":60:2886  contract NameRegistry {... */\n      mstore(0x40, 0x80)\n      callvalue\n      dup1\n      iszero\n      tag_1\n      jumpi\n      0x00\n      dup1\n      revert\n    tag_1:\n      pop\n      jumpi(tag_2, lt(calldatasize, 0x04))\n      shr(0xe0, calldataload(0x00))\n      dup1\n      0x0830602b\n      eq\n      tag_3\n      jumpi\n      dup1\n      0x0d5fba83\n      eq\n      tag_4\n      jumpi\n      dup1\n      0x0e7b29bf\n      eq\n      tag_5\n      jumpi\n      dup1\n      0x4ef8884b\n      eq\n      tag_6\n      jumpi\n      dup1\n      0x5fd4b08a\n      eq\n      tag_7\n      jumpi\n    tag_2:\n      0x00\n      dup1\n      revert\n        /* \"contracts/userProfile2.sol\":786:1167  function registerName(string memory _userName) public {... */\n    tag_3:\n      tag_8\n      0x04\n      dup1\n      calldatasize\n      sub\n      dup2\n      add\n      swap1\n      tag_9\n      swap2\n      swap1\n      tag_10\n      jump\t// in\n    tag_9:\n      tag_11\n      jump\t// in\n    tag_8:\n      stop\n        /* \"contracts/userProfile2.sol\":1213:1589  function deregisterName() public {... */\n    tag_4:\n      tag_12\n      tag_13\n      jump\t// in\n    tag_12:\n      stop\n        /* \"contracts/userProfile2.sol\":312:367  mapping(address => UserProfile) public addressToProfile */\n    tag_5:\n      tag_14\n      0x04\n      dup1\n      calldatasize\n      sub\n      dup2\n      add\n      swap1\n      tag_15\n      swap2\n      swap1\n      tag_16\n      jump\t// in\n    tag_15:\n      tag_17\n      jump\t// in\n    tag_14:\n      mload(0x40)\n      tag_18\n      swap3\n      swap2\n      swap1\n      tag_19\n      jump\t// in\n    tag_18:\n      mload(0x40)\n      dup1\n      swap2\n      sub\n      swap1\n      return\n        /* \"contracts/userProfile2.sol\":1650:2515  function transferName(address _newAddress) public {... */\n    tag_6:\n      tag_20\n      0x04\n      dup1\n      calldatasize\n      sub\n      dup2\n      add\n      swap1\n      tag_21\n      swap2\n      swap1\n      tag_16\n      jump\t// in\n    tag_21:\n      tag_22\n      jump\t// in\n    tag_20:\n      stop\n        /* \"contracts/userProfile2.sol\":2595:2883  function getName(address _userAddress) public view returns (string memory) {... */\n    tag_7:\n      tag_23\n      0x04\n      dup1\n      calldatasize\n      sub\n      dup2\n      add\n      swap1\n      tag_24\n      swap2\n      swap1\n      tag_16\n      jump\t// in\n    tag_24:\n      tag_25\n      jump\t// in\n    tag_23:\n      mload(0x40)\n      tag_26\n      swap2\n      swap1\n      tag_27\n      jump\t// in\n    tag_26:\n      mload(0x40)\n      dup1\n      swap2\n      sub\n      swap1\n      return\n        /* \"contracts/userProfile2.sol\":786:1167  function registerName(string memory _userName) public {... */\n    tag_11:\n        /* \"contracts/userProfile2.sol\":885:886  0 */\n      0x00\n        /* \"contracts/userProfile2.sol\":865:874  _userName */\n      dup2\n        /* \"contracts/userProfile2.sol\":859:882  bytes(_userName).length */\n      mload\n        /* \"contracts/userProfile2.sol\":859:886  bytes(_userName).length > 0 */\n      gt\n        /* \"contracts/userProfile2.sol\":851:915  require(bytes(_userName).length > 0, \"Name should not be empty\") */\n      tag_29\n      jumpi\n      mload(0x40)\n      0x08c379a000000000000000000000000000000000000000000000000000000000\n      dup2\n      mstore\n      0x04\n      add\n      tag_30\n      swap1\n      tag_31\n      jump\t// in\n    tag_30:\n      mload(0x40)\n      dup1\n      swap2\n      sub\n      swap1\n      revert\n    tag_29:\n        /* \"contracts/userProfile2.sol\":935:951  addressToProfile */\n      0x00\n        /* \"contracts/userProfile2.sol\":935:963  addressToProfile[msg.sender] */\n      dup1\n        /* \"contracts/userProfile2.sol\":952:962  msg.sender */\n      caller\n        /* \"contracts/userProfile2.sol\":935:963  addressToProfile[msg.sender] */\n      0xffffffffffffffffffffffffffffffffffffffff\n      and\n      0xffffffffffffffffffffffffffffffffffffffff\n      and\n      dup2\n      mstore\n      0x20\n      add\n      swap1\n      dup2\n      mstore\n      0x20\n      add\n      0x00\n      keccak256\n        /* \"contracts/userProfile2.sol\":935:974  addressToProfile[msg.sender].registered */\n      0x01\n      add\n      0x00\n      swap1\n      sload\n      swap1\n      0x0100\n      exp\n      swap1\n      div\n      0xff\n      and\n        /* \"contracts/userProfile2.sol\":934:974  !addressToProfile[msg.sender].registered */\n      iszero\n        /* \"contracts/userProfile2.sol\":926:1008  require(!addressToProfile[msg.sender].registered, \"Address is already registered\") */\n      tag_32\n      jumpi\n      mload(0x40)\n      0x08c379a000000000000000000000000000000000000000000000000000000000\n      dup2\n      mstore\n      0x04\n      add\n      tag_33\n      swap1\n      tag_34\n      jump\t// in\n    tag_33:\n      mload(0x40)\n      dup1\n      swap2\n      sub\n      swap1\n      revert\n    tag_32:\n        /* \"contracts/userProfile2.sol\":1052:1104  UserProfile({userName: _userName, registered: true}) */\n      mload(0x40)\n      dup1\n      0x40\n      add\n      0x40\n      mstore\n      dup1\n        /* \"contracts/userProfile2.sol\":1075:1084  _userName */\n      dup3\n        /* \"contracts/userProfile2.sol\":1052:1104  UserProfile({userName: _userName, registered: true}) */\n      dup2\n      mstore\n      0x20\n      add\n        /* \"contracts/userProfile2.sol\":1098:1102  true */\n      0x01\n        /* \"contracts/userProfile2.sol\":1052:1104  UserProfile({userName: _userName, registered: true}) */\n      iszero\n      iszero\n      dup2\n      mstore\n      pop\n        /* \"contracts/userProfile2.sol\":1021:1037  addressToProfile */\n      0x00\n        /* \"contracts/userProfile2.sol\":1021:1049  addressToProfile[msg.sender] */\n      dup1\n        /* \"contracts/userProfile2.sol\":1038:1048  msg.sender */\n      caller\n        /* \"contracts/userProfile2.sol\":1021:1049  addressToProfile[msg.sender] */\n      0xffffffffffffffffffffffffffffffffffffffff\n      and\n      0xffffffffffffffffffffffffffffffffffffffff\n      and\n      dup2\n      mstore\n      0x20\n      add\n      swap1\n      dup2\n      mstore\n      0x20\n      add\n      0x00\n      keccak256\n        /* \"contracts/userProfile2.sol\":1021:1104  addressToProfile[msg.sender] = UserProfile({userName: _userName, registered: true}) */\n      0x00\n      dup3\n      add\n      mload\n      dup2\n      0x00\n      add\n      swap1\n      dup2\n      tag_35\n      swap2\n      swap1\n      tag_36\n      jump\t// in\n    tag_35:\n      pop\n      0x20\n      dup3\n      add\n      mload\n      dup2\n      0x01\n      add\n      exp(0x0100, 0x00)\n      dup2\n      sload\n      dup2\n      0xff\n      mul\n      not\n      and\n      swap1\n      dup4\n      iszero\n      iszero\n      mul\n      or\n      swap1\n      sstore\n      pop\n      swap1\n      pop\n      pop\n        /* \"contracts/userProfile2.sol\":1137:1147  msg.sender */\n      caller\n        /* \"contracts/userProfile2.sol\":1122:1159  NameRegistered(msg.sender, _userName) */\n      0xffffffffffffffffffffffffffffffffffffffff\n      and\n      0x56a1a2764a85c689329fbc04f299b64690a26b1dc5ac82e903cf8ad805cd5396\n        /* \"contracts/userProfile2.sol\":1149:1158  _userName */\n      dup3\n        /* \"contracts/userProfile2.sol\":1122:1159  NameRegistered(msg.sender, _userName) */\n      mload(0x40)\n      tag_37\n      swap2\n      swap1\n      tag_27\n      jump\t// in\n    tag_37:\n      mload(0x40)\n      dup1\n      swap2\n      sub\n      swap1\n      log2\n        /* \"contracts/userProfile2.sol\":786:1167  function registerName(string memory _userName) public {... */\n      pop\n      jump\t// out\n        /* \"contracts/userProfile2.sol\":1213:1589  function deregisterName() public {... */\n    tag_13:\n        /* \"contracts/userProfile2.sol\":1312:1328  addressToProfile */\n      0x00\n        /* \"contracts/userProfile2.sol\":1312:1340  addressToProfile[msg.sender] */\n      dup1\n        /* \"contracts/userProfile2.sol\":1329:1339  msg.sender */\n      caller\n        /* \"contracts/userProfile2.sol\":1312:1340  addressToProfile[msg.sender] */\n      0xffffffffffffffffffffffffffffffffffffffff\n      and\n      0xffffffffffffffffffffffffffffffffffffffff\n      and\n      dup2\n      mstore\n      0x20\n      add\n      swap1\n      dup2\n      mstore\n      0x20\n      add\n      0x00\n      keccak256\n        /* \"contracts/userProfile2.sol\":1312:1351  addressToProfile[msg.sender].registered */\n      0x01\n      add\n      0x00\n      swap1\n      sload\n      swap1\n      0x0100\n      exp\n      swap1\n      div\n      0xff\n      and\n        /* \"contracts/userProfile2.sol\":1304:1381  require(addressToProfile[msg.sender].registered, \"Address is not registered\") */\n      tag_39\n      jumpi\n      mload(0x40)\n      0x08c379a000000000000000000000000000000000000000000000000000000000\n      dup2\n      mstore\n      0x04\n      add\n      tag_40\n      swap1\n      tag_41\n      jump\t// in\n    tag_40:\n      mload(0x40)\n      dup1\n      swap2\n      sub\n      swap1\n      revert\n    tag_39:\n        /* \"contracts/userProfile2.sol\":1489:1535  UserProfile({userName: \"\", registered: false}) */\n      mload(0x40)\n      dup1\n      0x40\n      add\n      0x40\n      mstore\n      dup1\n      mload(0x40)\n      dup1\n      0x20\n      add\n      0x40\n      mstore\n      dup1\n      0x00\n      dup2\n      mstore\n      pop\n      dup2\n      mstore\n      0x20\n      add\n        /* \"contracts/userProfile2.sol\":1528:1533  false */\n      0x00\n        /* \"contracts/userProfile2.sol\":1489:1535  UserProfile({userName: \"\", registered: false}) */\n      iszero\n      iszero\n      dup2\n      mstore\n      pop\n        /* \"contracts/userProfile2.sol\":1458:1474  addressToProfile */\n      0x00\n        /* \"contracts/userProfile2.sol\":1458:1486  addressToProfile[msg.sender] */\n      dup1\n        /* \"contracts/userProfile2.sol\":1475:1485  msg.sender */\n      caller\n        /* \"contracts/userProfile2.sol\":1458:1486  addressToProfile[msg.sender] */\n      0xffffffffffffffffffffffffffffffffffffffff\n      and\n      0xffffffffffffffffffffffffffffffffffffffff\n      and\n      dup2\n      mstore\n      0x20\n      add\n      swap1\n      dup2\n      mstore\n      0x20\n      add\n      0x00\n      keccak256\n        /* \"contracts/userProfile2.sol\":1458:1535  addressToProfile[msg.sender] = UserProfile({userName: \"\", registered: false}) */\n      0x00\n      dup3\n      add\n      mload\n      dup2\n      0x00\n      add\n      swap1\n      dup2\n      tag_42\n      swap2\n      swap1\n      tag_36\n      jump\t// in\n    tag_42:\n      pop\n      0x20\n      dup3\n      add\n      mload\n      dup2\n      0x01\n      add\n      exp(0x0100, 0x00)\n      dup2\n      sload\n      dup2\n      0xff\n      mul\n      not\n      and\n      swap1\n      dup4\n      iszero\n      iszero\n      mul\n      or\n      swap1\n      sstore\n      pop\n      swap1\n      pop\n      pop\n        /* \"contracts/userProfile2.sol\":1570:1580  msg.sender */\n      caller\n        /* \"contracts/userProfile2.sol\":1553:1581  NameDeregistered(msg.sender) */\n      0xffffffffffffffffffffffffffffffffffffffff\n      and\n      0xd535c2e59a2f16f058b1b296bef26cc2579ffc7f69aaf7b53f536943cb6a7543\n      mload(0x40)\n      mload(0x40)\n      dup1\n      swap2\n      sub\n      swap1\n      log2\n        /* \"contracts/userProfile2.sol\":1213:1589  function deregisterName() public {... */\n      jump\t// out\n        /* \"contracts/userProfile2.sol\":312:367  mapping(address => UserProfile) public addressToProfile */\n    tag_17:\n      mstore(0x20, 0x00)\n      dup1\n      0x00\n      mstore\n      keccak256(0x00, 0x40)\n      0x00\n      swap2\n      pop\n      swap1\n      pop\n      dup1\n      0x00\n      add\n      dup1\n      sload\n      tag_43\n      swap1\n      tag_44\n      jump\t// in\n    tag_43:\n      dup1\n      0x1f\n      add\n      0x20\n      dup1\n      swap2\n      div\n      mul\n      0x20\n      add\n      mload(0x40)\n      swap1\n      dup2\n      add\n      0x40\n      mstore\n      dup1\n      swap3\n      swap2\n      swap1\n      dup2\n      dup2\n      mstore\n      0x20\n      add\n      dup3\n      dup1\n      sload\n      tag_45\n      swap1\n      tag_44\n      jump\t// in\n    tag_45:\n      dup1\n      iszero\n      tag_46\n      jumpi\n      dup1\n      0x1f\n      lt\n      tag_47\n      jumpi\n      0x0100\n      dup1\n      dup4\n      sload\n      div\n      mul\n      dup4\n      mstore\n      swap2\n      0x20\n      add\n      swap2\n      jump(tag_46)\n    tag_47:\n      dup3\n      add\n      swap2\n      swap1\n      0x00\n      mstore\n      keccak256(0x00, 0x20)\n      swap1\n    tag_48:\n      dup2\n      sload\n      dup2\n      mstore\n      swap1\n      0x01\n      add\n      swap1\n      0x20\n      add\n      dup1\n      dup4\n      gt\n      tag_48\n      jumpi\n      dup3\n      swap1\n      sub\n      0x1f\n      and\n      dup3\n      add\n      swap2\n    tag_46:\n      pop\n      pop\n      pop\n      pop\n      pop\n      swap1\n      dup1\n      0x01\n      add\n      0x00\n      swap1\n      sload\n      swap1\n      0x0100\n      exp\n      swap1\n      div\n      0xff\n      and\n      swap1\n      pop\n      dup3\n      jump\t// out\n        /* \"contracts/userProfile2.sol\":1650:2515  function transferName(address _newAddress) public {... */\n    tag_22:\n        /* \"contracts/userProfile2.sol\":1711:1740  UserProfile memory oldProfile */\n      0x00\n        /* \"contracts/userProfile2.sol\":1743:1759  addressToProfile */\n      dup1\n        /* \"contracts/userProfile2.sol\":1743:1771  addressToProfile[msg.sender] */\n      0x00\n        /* \"contracts/userProfile2.sol\":1760:1770  msg.sender */\n      caller\n        /* \"contracts/userProfile2.sol\":1743:1771  addressToProfile[msg.sender] */\n      0xffffffffffffffffffffffffffffffffffffffff\n      and\n      0xffffffffffffffffffffffffffffffffffffffff\n      and\n      dup2\n      mstore\n      0x20\n      add\n      swap1\n      dup2\n      mstore\n      0x20\n      add\n      0x00\n      keccak256\n        /* \"contracts/userProfile2.sol\":1711:1771  UserProfile memory oldProfile = addressToProfile[msg.sender] */\n      mload(0x40)\n      dup1\n      0x40\n      add\n      0x40\n      mstore\n      swap1\n      dup2\n      0x00\n      dup3\n      add\n      dup1\n      sload\n      tag_50\n      swap1\n      tag_44\n      jump\t// in\n    tag_50:\n      dup1\n      0x1f\n      add\n      0x20\n      dup1\n      swap2\n      div\n      mul\n      0x20\n      add\n      mload(0x40)\n      swap1\n      dup2\n      add\n      0x40\n      mstore\n      dup1\n      swap3\n      swap2\n      swap1\n      dup2\n      dup2\n      mstore\n      0x20\n      add\n      dup3\n      dup1\n      sload\n      tag_51\n      swap1\n      tag_44\n      jump\t// in\n    tag_51:\n      dup1\n      iszero\n      tag_52\n      jumpi\n      dup1\n      0x1f\n      lt\n      tag_53\n      jumpi\n      0x0100\n      dup1\n      dup4\n      sload\n      div\n      mul\n      dup4\n      mstore\n      swap2\n      0x20\n      add\n      swap2\n      jump(tag_52)\n    tag_53:\n      dup3\n      add\n      swap2\n      swap1\n      0x00\n      mstore\n      keccak256(0x00, 0x20)\n      swap1\n    tag_54:\n      dup2\n      sload\n      dup2\n      mstore\n      swap1\n      0x01\n      add\n      swap1\n      0x20\n      add\n      dup1\n      dup4\n      gt\n      tag_54\n      jumpi\n      dup3\n      swap1\n      sub\n      0x1f\n      and\n      dup3\n      add\n      swap2\n    tag_52:\n      pop\n      pop\n      pop\n      pop\n      pop\n      dup2\n      mstore\n      0x20\n      add\n      0x01\n      dup3\n      add\n      0x00\n      swap1\n      sload\n      swap1\n      0x0100\n      exp\n      swap1\n      div\n      0xff\n      and\n      iszero\n      iszero\n      iszero\n      iszero\n      dup2\n      mstore\n      pop\n      pop\n      swap1\n      pop\n        /* \"contracts/userProfile2.sol\":1870:1880  oldProfile */\n      dup1\n        /* \"contracts/userProfile2.sol\":1870:1891  oldProfile.registered */\n      0x20\n      add\n      mload\n        /* \"contracts/userProfile2.sol\":1862:1921  require(oldProfile.registered, \"Address is not registered\") */\n      tag_55\n      jumpi\n      mload(0x40)\n      0x08c379a000000000000000000000000000000000000000000000000000000000\n      dup2\n      mstore\n      0x04\n      add\n      tag_56\n      swap1\n      tag_41\n      jump\t// in\n    tag_56:\n      mload(0x40)\n      dup1\n      swap2\n      sub\n      swap1\n      revert\n    tag_55:\n        /* \"contracts/userProfile2.sol\":2002:2018  addressToProfile */\n      0x00\n        /* \"contracts/userProfile2.sol\":2002:2031  addressToProfile[_newAddress] */\n      dup1\n        /* \"contracts/userProfile2.sol\":2019:2030  _newAddress */\n      dup4\n        /* \"contracts/userProfile2.sol\":2002:2031  addressToProfile[_newAddress] */\n      0xffffffffffffffffffffffffffffffffffffffff\n      and\n      0xffffffffffffffffffffffffffffffffffffffff\n      and\n      dup2\n      mstore\n      0x20\n      add\n      swap1\n      dup2\n      mstore\n      0x20\n      add\n      0x00\n      keccak256\n        /* \"contracts/userProfile2.sol\":2002:2042  addressToProfile[_newAddress].registered */\n      0x01\n      add\n      0x00\n      swap1\n      sload\n      swap1\n      0x0100\n      exp\n      swap1\n      div\n      0xff\n      and\n        /* \"contracts/userProfile2.sol\":2001:2042  !addressToProfile[_newAddress].registered */\n      iszero\n        /* \"contracts/userProfile2.sol\":1993:2080  require(!addressToProfile[_newAddress].registered, \"New address is already registered\") */\n      tag_57\n      jumpi\n      mload(0x40)\n      0x08c379a000000000000000000000000000000000000000000000000000000000\n      dup2\n      mstore\n      0x04\n      add\n      tag_58\n      swap1\n      tag_59\n      jump\t// in\n    tag_58:\n      mload(0x40)\n      dup1\n      swap2\n      sub\n      swap1\n      revert\n    tag_57:\n        /* \"contracts/userProfile2.sol\":2216:2278  UserProfile({userName: oldProfile.userName, registered: true}) */\n      mload(0x40)\n      dup1\n      0x40\n      add\n      0x40\n      mstore\n      dup1\n        /* \"contracts/userProfile2.sol\":2239:2249  oldProfile */\n      dup3\n        /* \"contracts/userProfile2.sol\":2239:2258  oldProfile.userName */\n      0x00\n      add\n      mload\n        /* \"contracts/userProfile2.sol\":2216:2278  UserProfile({userName: oldProfile.userName, registered: true}) */\n      dup2\n      mstore\n      0x20\n      add\n        /* \"contracts/userProfile2.sol\":2272:2276  true */\n      0x01\n        /* \"contracts/userProfile2.sol\":2216:2278  UserProfile({userName: oldProfile.userName, registered: true}) */\n      iszero\n      iszero\n      dup2\n      mstore\n      pop\n        /* \"contracts/userProfile2.sol\":2184:2200  addressToProfile */\n      0x00\n        /* \"contracts/userProfile2.sol\":2184:2213  addressToProfile[_newAddress] */\n      dup1\n        /* \"contracts/userProfile2.sol\":2201:2212  _newAddress */\n      dup5\n        /* \"contracts/userProfile2.sol\":2184:2213  addressToProfile[_newAddress] */\n      0xffffffffffffffffffffffffffffffffffffffff\n      and\n      0xffffffffffffffffffffffffffffffffffffffff\n      and\n      dup2\n      mstore\n      0x20\n      add\n      swap1\n      dup2\n      mstore\n      0x20\n      add\n      0x00\n      keccak256\n        /* \"contracts/userProfile2.sol\":2184:2278  addressToProfile[_newAddress] = UserProfile({userName: oldProfile.userName, registered: true}) */\n      0x00\n      dup3\n      add\n      mload\n      dup2\n      0x00\n      add\n      swap1\n      dup2\n      tag_60\n      swap2\n      swap1\n      tag_36\n      jump\t// in\n    tag_60:\n      pop\n      0x20\n      dup3\n      add\n      mload\n      dup2\n      0x01\n      add\n      exp(0x0100, 0x00)\n      dup2\n      sload\n      dup2\n      0xff\n      mul\n      not\n      and\n      swap1\n      dup4\n      iszero\n      iszero\n      mul\n      or\n      swap1\n      sstore\n      pop\n      swap1\n      pop\n      pop\n        /* \"contracts/userProfile2.sol\":2382:2428  UserProfile({userName: \"\", registered: false}) */\n      mload(0x40)\n      dup1\n      0x40\n      add\n      0x40\n      mstore\n      dup1\n      mload(0x40)\n      dup1\n      0x20\n      add\n      0x40\n      mstore\n      dup1\n      0x00\n      dup2\n      mstore\n      pop\n      dup2\n      mstore\n      0x20\n      add\n        /* \"contracts/userProfile2.sol\":2421:2426  false */\n      0x00\n        /* \"contracts/userProfile2.sol\":2382:2428  UserProfile({userName: \"\", registered: false}) */\n      iszero\n      iszero\n      dup2\n      mstore\n      pop\n        /* \"contracts/userProfile2.sol\":2351:2367  addressToProfile */\n      0x00\n        /* \"contracts/userProfile2.sol\":2351:2379  addressToProfile[msg.sender] */\n      dup1\n        /* \"contracts/userProfile2.sol\":2368:2378  msg.sender */\n      caller\n        /* \"contracts/userProfile2.sol\":2351:2379  addressToProfile[msg.sender] */\n      0xffffffffffffffffffffffffffffffffffffffff\n      and\n      0xffffffffffffffffffffffffffffffffffffffff\n      and\n      dup2\n      mstore\n      0x20\n      add\n      swap1\n      dup2\n      mstore\n      0x20\n      add\n      0x00\n      keccak256\n        /* \"contracts/userProfile2.sol\":2351:2428  addressToProfile[msg.sender] = UserProfile({userName: \"\", registered: false}) */\n      0x00\n      dup3\n      add\n      mload\n      dup2\n      0x00\n      add\n      swap1\n      dup2\n      tag_61\n      swap2\n      swap1\n      tag_36\n      jump\t// in\n    tag_61:\n      pop\n      0x20\n      dup3\n      add\n      mload\n      dup2\n      0x01\n      add\n      exp(0x0100, 0x00)\n      dup2\n      sload\n      dup2\n      0xff\n      mul\n      not\n      and\n      swap1\n      dup4\n      iszero\n      iszero\n      mul\n      or\n      swap1\n      sstore\n      pop\n      swap1\n      pop\n      pop\n        /* \"contracts/userProfile2.sol\":2474:2485  _newAddress */\n      dup2\n        /* \"contracts/userProfile2.sol\":2446:2507  NameTransferred(msg.sender, _newAddress, oldProfile.userName) */\n      0xffffffffffffffffffffffffffffffffffffffff\n      and\n        /* \"contracts/userProfile2.sol\":2462:2472  msg.sender */\n      caller\n        /* \"contracts/userProfile2.sol\":2446:2507  NameTransferred(msg.sender, _newAddress, oldProfile.userName) */\n      0xffffffffffffffffffffffffffffffffffffffff\n      and\n      0x61ce72876df632c9cea54f37e843a14873bc9a7abd2f79797a8a00e467081f3c\n        /* \"contracts/userProfile2.sol\":2487:2497  oldProfile */\n      dup4\n        /* \"contracts/userProfile2.sol\":2487:2506  oldProfile.userName */\n      0x00\n      add\n      mload\n        /* \"contracts/userProfile2.sol\":2446:2507  NameTransferred(msg.sender, _newAddress, oldProfile.userName) */\n      mload(0x40)\n      tag_62\n      swap2\n      swap1\n      tag_27\n      jump\t// in\n    tag_62:\n      mload(0x40)\n      dup1\n      swap2\n      sub\n      swap1\n      log3\n        /* \"contracts/userProfile2.sol\":1700:2515  {... */\n      pop\n        /* \"contracts/userProfile2.sol\":1650:2515  function transferName(address _newAddress) public {... */\n      pop\n      jump\t// out\n        /* \"contracts/userProfile2.sol\":2595:2883  function getName(address _userAddress) public view returns (string memory) {... */\n    tag_25:\n        /* \"contracts/userProfile2.sol\":2655:2668  string memory */\n      0x60\n        /* \"contracts/userProfile2.sol\":2681:2707  UserProfile memory profile */\n      0x00\n        /* \"contracts/userProfile2.sol\":2710:2726  addressToProfile */\n      dup1\n        /* \"contracts/userProfile2.sol\":2710:2740  addressToProfile[_userAddress] */\n      0x00\n        /* \"contracts/userProfile2.sol\":2727:2739  _userAddress */\n      dup5\n        /* \"contracts/userProfile2.sol\":2710:2740  addressToProfile[_userAddress] */\n      0xffffffffffffffffffffffffffffffffffffffff\n      and\n      0xffffffffffffffffffffffffffffffffffffffff\n      and\n      dup2\n      mstore\n      0x20\n      add\n      swap1\n      dup2\n      mstore\n      0x20\n      add\n      0x00\n      keccak256\n        /* \"contracts/userProfile2.sol\":2681:2740  UserProfile memory profile = addressToProfile[_userAddress] */\n      mload(0x40)\n      dup1\n      0x40\n      add\n      0x40\n      mstore\n      swap1\n      dup2\n      0x00\n      dup3\n      add\n      dup1\n      sload\n      tag_64\n      swap1\n      tag_44\n      jump\t// in\n    tag_64:\n      dup1\n      0x1f\n      add\n      0x20\n      dup1\n      swap2\n      div\n      mul\n      0x20\n      add\n      mload(0x40)\n      swap1\n      dup2\n      add\n      0x40\n      mstore\n      dup1\n      swap3\n      swap2\n      swap1\n      dup2\n      dup2\n      mstore\n      0x20\n      add\n      dup3\n      dup1\n      sload\n      tag_65\n      swap1\n      tag_44\n      jump\t// in\n    tag_65:\n      dup1\n      iszero\n      tag_66\n      jumpi\n      dup1\n      0x1f\n      lt\n      tag_67\n      jumpi\n      0x0100\n      dup1\n      dup4\n      sload\n      div\n      mul\n      dup4\n      mstore\n      swap2\n      0x20\n      add\n      swap2\n      jump(tag_66)\n    tag_67:\n      dup3\n      add\n      swap2\n      swap1\n      0x00\n      mstore\n      keccak256(0x00, 0x20)\n      swap1\n    tag_68:\n      dup2\n      sload\n      dup2\n      mstore\n      swap1\n      0x01\n      add\n      swap1\n      0x20\n      add\n      dup1\n      dup4\n      gt\n      tag_68\n      jumpi\n      dup3\n      swap1\n      sub\n      0x1f\n      and\n      dup3\n      add\n      swap2\n    tag_66:\n      pop\n      pop\n      pop\n      pop\n      pop\n      dup2\n      mstore\n      0x20\n      add\n      0x01\n      dup3\n      add\n      0x00\n      swap1\n      sload\n      swap1\n      0x0100\n      exp\n      swap1\n      div\n      0xff\n      and\n      iszero\n      iszero\n      iszero\n      iszero\n      dup2\n      mstore\n      pop\n      pop\n      swap1\n      pop\n        /* \"contracts/userProfile2.sol\":2755:2762  profile */\n      dup1\n        /* \"contracts/userProfile2.sol\":2755:2773  profile.registered */\n      0x20\n      add\n      mload\n        /* \"contracts/userProfile2.sol\":2751:2876  if (profile.registered) {... */\n      iszero\n      tag_69\n      jumpi\n        /* \"contracts/userProfile2.sol\":2797:2804  profile */\n      dup1\n        /* \"contracts/userProfile2.sol\":2797:2813  profile.userName */\n      0x00\n      add\n      mload\n        /* \"contracts/userProfile2.sol\":2790:2813  return profile.userName */\n      swap2\n      pop\n      pop\n      jump(tag_63)\n        /* \"contracts/userProfile2.sol\":2751:2876  if (profile.registered) {... */\n    tag_69:\n        /* \"contracts/userProfile2.sol\":2846:2864  return \"not found\" */\n      mload(0x40)\n      dup1\n      0x40\n      add\n      0x40\n      mstore\n      dup1\n      0x09\n      dup2\n      mstore\n      0x20\n      add\n      0x6e6f7420666f756e640000000000000000000000000000000000000000000000\n      dup2\n      mstore\n      pop\n      swap2\n      pop\n      pop\n        /* \"contracts/userProfile2.sol\":2595:2883  function getName(address _userAddress) public view returns (string memory) {... */\n    tag_63:\n      swap2\n      swap1\n      pop\n      jump\t// out\n        /* \"#utility.yul\":7:82   */\n    tag_71:\n        /* \"#utility.yul\":40:46   */\n      0x00\n        /* \"#utility.yul\":73:75   */\n      0x40\n        /* \"#utility.yul\":67:76   */\n      mload\n        /* \"#utility.yul\":57:76   */\n      swap1\n      pop\n        /* \"#utility.yul\":7:82   */\n      swap1\n      jump\t// out\n        /* \"#utility.yul\":88:205   */\n    tag_72:\n        /* \"#utility.yul\":197:198   */\n      0x00\n        /* \"#utility.yul\":194:195   */\n      dup1\n        /* \"#utility.yul\":187:199   */\n      revert\n        /* \"#utility.yul\":211:328   */\n    tag_73:\n        /* \"#utility.yul\":320:321   */\n      0x00\n        /* \"#utility.yul\":317:318   */\n      dup1\n        /* \"#utility.yul\":310:322   */\n      revert\n        /* \"#utility.yul\":334:451   */\n    tag_74:\n        /* \"#utility.yul\":443:444   */\n      0x00\n        /* \"#utility.yul\":440:441   */\n      dup1\n        /* \"#utility.yul\":433:445   */\n      revert\n        /* \"#utility.yul\":457:574   */\n    tag_75:\n        /* \"#utility.yul\":566:567   */\n      0x00\n        /* \"#utility.yul\":563:564   */\n      dup1\n        /* \"#utility.yul\":556:568   */\n      revert\n        /* \"#utility.yul\":580:682   */\n    tag_76:\n        /* \"#utility.yul\":621:627   */\n      0x00\n        /* \"#utility.yul\":672:674   */\n      0x1f\n        /* \"#utility.yul\":668:675   */\n      not\n        /* \"#utility.yul\":663:665   */\n      0x1f\n        /* \"#utility.yul\":656:661   */\n      dup4\n        /* \"#utility.yul\":652:666   */\n      add\n        /* \"#utility.yul\":648:676   */\n      and\n        /* \"#utility.yul\":638:676   */\n      swap1\n      pop\n        /* \"#utility.yul\":580:682   */\n      swap2\n      swap1\n      pop\n      jump\t// out\n        /* \"#utility.yul\":688:868   */\n    tag_77:\n        /* \"#utility.yul\":736:813   */\n      0x4e487b7100000000000000000000000000000000000000000000000000000000\n        /* \"#utility.yul\":733:734   */\n      0x00\n        /* \"#utility.yul\":726:814   */\n      mstore\n        /* \"#utility.yul\":833:837   */\n      0x41\n        /* \"#utility.yul\":830:831   */\n      0x04\n        /* \"#utility.yul\":823:838   */\n      mstore\n        /* \"#utility.yul\":857:861   */\n      0x24\n        /* \"#utility.yul\":854:855   */\n      0x00\n        /* \"#utility.yul\":847:862   */\n      revert\n        /* \"#utility.yul\":874:1155   */\n    tag_78:\n        /* \"#utility.yul\":957:984   */\n      tag_128\n        /* \"#utility.yul\":979:983   */\n      dup3\n        /* \"#utility.yul\":957:984   */\n      tag_76\n      jump\t// in\n    tag_128:\n        /* \"#utility.yul\":949:955   */\n      dup2\n        /* \"#utility.yul\":945:985   */\n      add\n        /* \"#utility.yul\":1087:1093   */\n      dup2\n        /* \"#utility.yul\":1075:1085   */\n      dup2\n        /* \"#utility.yul\":1072:1094   */\n      lt\n        /* \"#utility.yul\":1051:1069   */\n      0xffffffffffffffff\n        /* \"#utility.yul\":1039:1049   */\n      dup3\n        /* \"#utility.yul\":1036:1070   */\n      gt\n        /* \"#utility.yul\":1033:1095   */\n      or\n        /* \"#utility.yul\":1030:1118   */\n      iszero\n      tag_129\n      jumpi\n        /* \"#utility.yul\":1098:1116   */\n      tag_130\n      tag_77\n      jump\t// in\n    tag_130:\n        /* \"#utility.yul\":1030:1118   */\n    tag_129:\n        /* \"#utility.yul\":1138:1148   */\n      dup1\n        /* \"#utility.yul\":1134:1136   */\n      0x40\n        /* \"#utility.yul\":1127:1149   */\n      mstore\n        /* \"#utility.yul\":917:1155   */\n      pop\n        /* \"#utility.yul\":874:1155   */\n      pop\n      pop\n      jump\t// out\n        /* \"#utility.yul\":1161:1290   */\n    tag_79:\n        /* \"#utility.yul\":1195:1201   */\n      0x00\n        /* \"#utility.yul\":1222:1242   */\n      tag_132\n      tag_71\n      jump\t// in\n    tag_132:\n        /* \"#utility.yul\":1212:1242   */\n      swap1\n      pop\n        /* \"#utility.yul\":1251:1284   */\n      tag_133\n        /* \"#utility.yul\":1279:1283   */\n      dup3\n        /* \"#utility.yul\":1271:1277   */\n      dup3\n        /* \"#utility.yul\":1251:1284   */\n      tag_78\n      jump\t// in\n    tag_133:\n        /* \"#utility.yul\":1161:1290   */\n      swap2\n      swap1\n      pop\n      jump\t// out\n        /* \"#utility.yul\":1296:1604   */\n    tag_80:\n        /* \"#utility.yul\":1358:1362   */\n      0x00\n        /* \"#utility.yul\":1448:1466   */\n      0xffffffffffffffff\n        /* \"#utility.yul\":1440:1446   */\n      dup3\n        /* \"#utility.yul\":1437:1467   */\n      gt\n        /* \"#utility.yul\":1434:1490   */\n      iszero\n      tag_135\n      jumpi\n        /* \"#utility.yul\":1470:1488   */\n      tag_136\n      tag_77\n      jump\t// in\n    tag_136:\n        /* \"#utility.yul\":1434:1490   */\n    tag_135:\n        /* \"#utility.yul\":1508:1537   */\n      tag_137\n        /* \"#utility.yul\":1530:1536   */\n      dup3\n        /* \"#utility.yul\":1508:1537   */\n      tag_76\n      jump\t// in\n    tag_137:\n        /* \"#utility.yul\":1500:1537   */\n      swap1\n      pop\n        /* \"#utility.yul\":1592:1596   */\n      0x20\n        /* \"#utility.yul\":1586:1590   */\n      dup2\n        /* \"#utility.yul\":1582:1597   */\n      add\n        /* \"#utility.yul\":1574:1597   */\n      swap1\n      pop\n        /* \"#utility.yul\":1296:1604   */\n      swap2\n      swap1\n      pop\n      jump\t// out\n        /* \"#utility.yul\":1610:1756   */\n    tag_81:\n        /* \"#utility.yul\":1707:1713   */\n      dup3\n        /* \"#utility.yul\":1702:1705   */\n      dup2\n        /* \"#utility.yul\":1697:1700   */\n      dup4\n        /* \"#utility.yul\":1684:1714   */\n      calldatacopy\n        /* \"#utility.yul\":1748:1749   */\n      0x00\n        /* \"#utility.yul\":1739:1745   */\n      dup4\n        /* \"#utility.yul\":1734:1737   */\n      dup4\n        /* \"#utility.yul\":1730:1746   */\n      add\n        /* \"#utility.yul\":1723:1750   */\n      mstore\n        /* \"#utility.yul\":1610:1756   */\n      pop\n      pop\n      pop\n      jump\t// out\n        /* \"#utility.yul\":1762:2187   */\n    tag_82:\n        /* \"#utility.yul\":1840:1845   */\n      0x00\n        /* \"#utility.yul\":1865:1931   */\n      tag_140\n        /* \"#utility.yul\":1881:1930   */\n      tag_141\n        /* \"#utility.yul\":1923:1929   */\n      dup5\n        /* \"#utility.yul\":1881:1930   */\n      tag_80\n      jump\t// in\n    tag_141:\n        /* \"#utility.yul\":1865:1931   */\n      tag_79\n      jump\t// in\n    tag_140:\n        /* \"#utility.yul\":1856:1931   */\n      swap1\n      pop\n        /* \"#utility.yul\":1954:1960   */\n      dup3\n        /* \"#utility.yul\":1947:1952   */\n      dup2\n        /* \"#utility.yul\":1940:1961   */\n      mstore\n        /* \"#utility.yul\":1992:1996   */\n      0x20\n        /* \"#utility.yul\":1985:1990   */\n      dup2\n        /* \"#utility.yul\":1981:1997   */\n      add\n        /* \"#utility.yul\":2030:2033   */\n      dup5\n        /* \"#utility.yul\":2021:2027   */\n      dup5\n        /* \"#utility.yul\":2016:2019   */\n      dup5\n        /* \"#utility.yul\":2012:2028   */\n      add\n        /* \"#utility.yul\":2009:2034   */\n      gt\n        /* \"#utility.yul\":2006:2118   */\n      iszero\n      tag_142\n      jumpi\n        /* \"#utility.yul\":2037:2116   */\n      tag_143\n      tag_75\n      jump\t// in\n    tag_143:\n        /* \"#utility.yul\":2006:2118   */\n    tag_142:\n        /* \"#utility.yul\":2127:2181   */\n      tag_144\n        /* \"#utility.yul\":2174:2180   */\n      dup5\n        /* \"#utility.yul\":2169:2172   */\n      dup3\n        /* \"#utility.yul\":2164:2167   */\n      dup6\n        /* \"#utility.yul\":2127:2181   */\n      tag_81\n      jump\t// in\n    tag_144:\n        /* \"#utility.yul\":1846:2187   */\n      pop\n        /* \"#utility.yul\":1762:2187   */\n      swap4\n      swap3\n      pop\n      pop\n      pop\n      jump\t// out\n        /* \"#utility.yul\":2207:2547   */\n    tag_83:\n        /* \"#utility.yul\":2263:2268   */\n      0x00\n        /* \"#utility.yul\":2312:2315   */\n      dup3\n        /* \"#utility.yul\":2305:2309   */\n      0x1f\n        /* \"#utility.yul\":2297:2303   */\n      dup4\n        /* \"#utility.yul\":2293:2310   */\n      add\n        /* \"#utility.yul\":2289:2316   */\n      slt\n        /* \"#utility.yul\":2279:2401   */\n      tag_146\n      jumpi\n        /* \"#utility.yul\":2320:2399   */\n      tag_147\n      tag_74\n      jump\t// in\n    tag_147:\n        /* \"#utility.yul\":2279:2401   */\n    tag_146:\n        /* \"#utility.yul\":2437:2443   */\n      dup2\n        /* \"#utility.yul\":2424:2444   */\n      calldataload\n        /* \"#utility.yul\":2462:2541   */\n      tag_148\n        /* \"#utility.yul\":2537:2540   */\n      dup5\n        /* \"#utility.yul\":2529:2535   */\n      dup3\n        /* \"#utility.yul\":2522:2526   */\n      0x20\n        /* \"#utility.yul\":2514:2520   */\n      dup7\n        /* \"#utility.yul\":2510:2527   */\n      add\n        /* \"#utility.yul\":2462:2541   */\n      tag_82\n      jump\t// in\n    tag_148:\n        /* \"#utility.yul\":2453:2541   */\n      swap2\n      pop\n        /* \"#utility.yul\":2269:2547   */\n      pop\n        /* \"#utility.yul\":2207:2547   */\n      swap3\n      swap2\n      pop\n      pop\n      jump\t// out\n        /* \"#utility.yul\":2553:3062   */\n    tag_10:\n        /* \"#utility.yul\":2622:2628   */\n      0x00\n        /* \"#utility.yul\":2671:2673   */\n      0x20\n        /* \"#utility.yul\":2659:2668   */\n      dup3\n        /* \"#utility.yul\":2650:2657   */\n      dup5\n        /* \"#utility.yul\":2646:2669   */\n      sub\n        /* \"#utility.yul\":2642:2674   */\n      slt\n        /* \"#utility.yul\":2639:2758   */\n      iszero\n      tag_150\n      jumpi\n        /* \"#utility.yul\":2677:2756   */\n      tag_151\n      tag_72\n      jump\t// in\n    tag_151:\n        /* \"#utility.yul\":2639:2758   */\n    tag_150:\n        /* \"#utility.yul\":2825:2826   */\n      0x00\n        /* \"#utility.yul\":2814:2823   */\n      dup3\n        /* \"#utility.yul\":2810:2827   */\n      add\n        /* \"#utility.yul\":2797:2828   */\n      calldataload\n        /* \"#utility.yul\":2855:2873   */\n      0xffffffffffffffff\n        /* \"#utility.yul\":2847:2853   */\n      dup2\n        /* \"#utility.yul\":2844:2874   */\n      gt\n        /* \"#utility.yul\":2841:2958   */\n      iszero\n      tag_152\n      jumpi\n        /* \"#utility.yul\":2877:2956   */\n      tag_153\n      tag_73\n      jump\t// in\n    tag_153:\n        /* \"#utility.yul\":2841:2958   */\n    tag_152:\n        /* \"#utility.yul\":2982:3045   */\n      tag_154\n        /* \"#utility.yul\":3037:3044   */\n      dup5\n        /* \"#utility.yul\":3028:3034   */\n      dup3\n        /* \"#utility.yul\":3017:3026   */\n      dup6\n        /* \"#utility.yul\":3013:3035   */\n      add\n        /* \"#utility.yul\":2982:3045   */\n      tag_83\n      jump\t// in\n    tag_154:\n        /* \"#utility.yul\":2972:3045   */\n      swap2\n      pop\n        /* \"#utility.yul\":2768:3055   */\n      pop\n        /* \"#utility.yul\":2553:3062   */\n      swap3\n      swap2\n      pop\n      pop\n      jump\t// out\n        /* \"#utility.yul\":3068:3194   */\n    tag_84:\n        /* \"#utility.yul\":3105:3112   */\n      0x00\n        /* \"#utility.yul\":3145:3187   */\n      0xffffffffffffffffffffffffffffffffffffffff\n        /* \"#utility.yul\":3138:3143   */\n      dup3\n        /* \"#utility.yul\":3134:3188   */\n      and\n        /* \"#utility.yul\":3123:3188   */\n      swap1\n      pop\n        /* \"#utility.yul\":3068:3194   */\n      swap2\n      swap1\n      pop\n      jump\t// out\n        /* \"#utility.yul\":3200:3296   */\n    tag_85:\n        /* \"#utility.yul\":3237:3244   */\n      0x00\n        /* \"#utility.yul\":3266:3290   */\n      tag_157\n        /* \"#utility.yul\":3284:3289   */\n      dup3\n        /* \"#utility.yul\":3266:3290   */\n      tag_84\n      jump\t// in\n    tag_157:\n        /* \"#utility.yul\":3255:3290   */\n      swap1\n      pop\n        /* \"#utility.yul\":3200:3296   */\n      swap2\n      swap1\n      pop\n      jump\t// out\n        /* \"#utility.yul\":3302:3424   */\n    tag_86:\n        /* \"#utility.yul\":3375:3399   */\n      tag_159\n        /* \"#utility.yul\":3393:3398   */\n      dup2\n        /* \"#utility.yul\":3375:3399   */\n      tag_85\n      jump\t// in\n    tag_159:\n        /* \"#utility.yul\":3368:3373   */\n      dup2\n        /* \"#utility.yul\":3365:3400   */\n      eq\n        /* \"#utility.yul\":3355:3418   */\n      tag_160\n      jumpi\n        /* \"#utility.yul\":3414:3415   */\n      0x00\n        /* \"#utility.yul\":3411:3412   */\n      dup1\n        /* \"#utility.yul\":3404:3416   */\n      revert\n        /* \"#utility.yul\":3355:3418   */\n    tag_160:\n        /* \"#utility.yul\":3302:3424   */\n      pop\n      jump\t// out\n        /* \"#utility.yul\":3430:3569   */\n    tag_87:\n        /* \"#utility.yul\":3476:3481   */\n      0x00\n        /* \"#utility.yul\":3514:3520   */\n      dup2\n        /* \"#utility.yul\":3501:3521   */\n      calldataload\n        /* \"#utility.yul\":3492:3521   */\n      swap1\n      pop\n        /* \"#utility.yul\":3530:3563   */\n      tag_162\n        /* \"#utility.yul\":3557:3562   */\n      dup2\n        /* \"#utility.yul\":3530:3563   */\n      tag_86\n      jump\t// in\n    tag_162:\n        /* \"#utility.yul\":3430:3569   */\n      swap3\n      swap2\n      pop\n      pop\n      jump\t// out\n        /* \"#utility.yul\":3575:3904   */\n    tag_16:\n        /* \"#utility.yul\":3634:3640   */\n      0x00\n        /* \"#utility.yul\":3683:3685   */\n      0x20\n        /* \"#utility.yul\":3671:3680   */\n      dup3\n        /* \"#utility.yul\":3662:3669   */\n      dup5\n        /* \"#utility.yul\":3658:3681   */\n      sub\n        /* \"#utility.yul\":3654:3686   */\n      slt\n        /* \"#utility.yul\":3651:3770   */\n      iszero\n      tag_164\n      jumpi\n        /* \"#utility.yul\":3689:3768   */\n      tag_165\n      tag_72\n      jump\t// in\n    tag_165:\n        /* \"#utility.yul\":3651:3770   */\n    tag_164:\n        /* \"#utility.yul\":3809:3810   */\n      0x00\n        /* \"#utility.yul\":3834:3887   */\n      tag_166\n        /* \"#utility.yul\":3879:3886   */\n      dup5\n        /* \"#utility.yul\":3870:3876   */\n      dup3\n        /* \"#utility.yul\":3859:3868   */\n      dup6\n        /* \"#utility.yul\":3855:3877   */\n      add\n        /* \"#utility.yul\":3834:3887   */\n      tag_87\n      jump\t// in\n    tag_166:\n        /* \"#utility.yul\":3824:3887   */\n      swap2\n      pop\n        /* \"#utility.yul\":3780:3897   */\n      pop\n        /* \"#utility.yul\":3575:3904   */\n      swap3\n      swap2\n      pop\n      pop\n      jump\t// out\n        /* \"#utility.yul\":3910:4009   */\n    tag_88:\n        /* \"#utility.yul\":3962:3968   */\n      0x00\n        /* \"#utility.yul\":3996:4001   */\n      dup2\n        /* \"#utility.yul\":3990:4002   */\n      mload\n        /* \"#utility.yul\":3980:4002   */\n      swap1\n      pop\n        /* \"#utility.yul\":3910:4009   */\n      swap2\n      swap1\n      pop\n      jump\t// out\n        /* \"#utility.yul\":4015:4184   */\n    tag_89:\n        /* \"#utility.yul\":4099:4110   */\n      0x00\n        /* \"#utility.yul\":4133:4139   */\n      dup3\n        /* \"#utility.yul\":4128:4131   */\n      dup3\n        /* \"#utility.yul\":4121:4140   */\n      mstore\n        /* \"#utility.yul\":4173:4177   */\n      0x20\n        /* \"#utility.yul\":4168:4171   */\n      dup3\n        /* \"#utility.yul\":4164:4178   */\n      add\n        /* \"#utility.yul\":4149:4178   */\n      swap1\n      pop\n        /* \"#utility.yul\":4015:4184   */\n      swap3\n      swap2\n      pop\n      pop\n      jump\t// out\n        /* \"#utility.yul\":4190:4436   */\n    tag_90:\n        /* \"#utility.yul\":4271:4272   */\n      0x00\n        /* \"#utility.yul\":4281:4394   */\n    tag_170:\n        /* \"#utility.yul\":4295:4301   */\n      dup4\n        /* \"#utility.yul\":4292:4293   */\n      dup2\n        /* \"#utility.yul\":4289:4302   */\n      lt\n        /* \"#utility.yul\":4281:4394   */\n      iszero\n      tag_172\n      jumpi\n        /* \"#utility.yul\":4380:4381   */\n      dup1\n        /* \"#utility.yul\":4375:4378   */\n      dup3\n        /* \"#utility.yul\":4371:4382   */\n      add\n        /* \"#utility.yul\":4365:4383   */\n      mload\n        /* \"#utility.yul\":4361:4362   */\n      dup2\n        /* \"#utility.yul\":4356:4359   */\n      dup5\n        /* \"#utility.yul\":4352:4363   */\n      add\n        /* \"#utility.yul\":4345:4384   */\n      mstore\n        /* \"#utility.yul\":4317:4319   */\n      0x20\n        /* \"#utility.yul\":4314:4315   */\n      dup2\n        /* \"#utility.yul\":4310:4320   */\n      add\n        /* \"#utility.yul\":4305:4320   */\n      swap1\n      pop\n        /* \"#utility.yul\":4281:4394   */\n      jump(tag_170)\n    tag_172:\n        /* \"#utility.yul\":4428:4429   */\n      0x00\n        /* \"#utility.yul\":4419:4425   */\n      dup5\n        /* \"#utility.yul\":4414:4417   */\n      dup5\n        /* \"#utility.yul\":4410:4426   */\n      add\n        /* \"#utility.yul\":4403:4430   */\n      mstore\n        /* \"#utility.yul\":4252:4436   */\n      pop\n        /* \"#utility.yul\":4190:4436   */\n      pop\n      pop\n      pop\n      jump\t// out\n        /* \"#utility.yul\":4442:4819   */\n    tag_91:\n        /* \"#utility.yul\":4530:4533   */\n      0x00\n        /* \"#utility.yul\":4558:4597   */\n      tag_174\n        /* \"#utility.yul\":4591:4596   */\n      dup3\n        /* \"#utility.yul\":4558:4597   */\n      tag_88\n      jump\t// in\n    tag_174:\n        /* \"#utility.yul\":4613:4684   */\n      tag_175\n        /* \"#utility.yul\":4677:4683   */\n      dup2\n        /* \"#utility.yul\":4672:4675   */\n      dup6\n        /* \"#utility.yul\":4613:4684   */\n      tag_89\n      jump\t// in\n    tag_175:\n        /* \"#utility.yul\":4606:4684   */\n      swap4\n      pop\n        /* \"#utility.yul\":4693:4758   */\n      tag_176\n        /* \"#utility.yul\":4751:4757   */\n      dup2\n        /* \"#utility.yul\":4746:4749   */\n      dup6\n        /* \"#utility.yul\":4739:4743   */\n      0x20\n        /* \"#utility.yul\":4732:4737   */\n      dup7\n        /* \"#utility.yul\":4728:4744   */\n      add\n        /* \"#utility.yul\":4693:4758   */\n      tag_90\n      jump\t// in\n    tag_176:\n        /* \"#utility.yul\":4783:4812   */\n      tag_177\n        /* \"#utility.yul\":4805:4811   */\n      dup2\n        /* \"#utility.yul\":4783:4812   */\n      tag_76\n      jump\t// in\n    tag_177:\n        /* \"#utility.yul\":4778:4781   */\n      dup5\n        /* \"#utility.yul\":4774:4813   */\n      add\n        /* \"#utility.yul\":4767:4813   */\n      swap2\n      pop\n        /* \"#utility.yul\":4534:4819   */\n      pop\n        /* \"#utility.yul\":4442:4819   */\n      swap3\n      swap2\n      pop\n      pop\n      jump\t// out\n        /* \"#utility.yul\":4825:4915   */\n    tag_92:\n        /* \"#utility.yul\":4859:4866   */\n      0x00\n        /* \"#utility.yul\":4902:4907   */\n      dup2\n        /* \"#utility.yul\":4895:4908   */\n      iszero\n        /* \"#utility.yul\":4888:4909   */\n      iszero\n        /* \"#utility.yul\":4877:4909   */\n      swap1\n      pop\n        /* \"#utility.yul\":4825:4915   */\n      swap2\n      swap1\n      pop\n      jump\t// out\n        /* \"#utility.yul\":4921:5030   */\n    tag_93:\n        /* \"#utility.yul\":5002:5023   */\n      tag_180\n        /* \"#utility.yul\":5017:5022   */\n      dup2\n        /* \"#utility.yul\":5002:5023   */\n      tag_92\n      jump\t// in\n    tag_180:\n        /* \"#utility.yul\":4997:5000   */\n      dup3\n        /* \"#utility.yul\":4990:5024   */\n      mstore\n        /* \"#utility.yul\":4921:5030   */\n      pop\n      pop\n      jump\t// out\n        /* \"#utility.yul\":5036:5447   */\n    tag_19:\n        /* \"#utility.yul\":5171:5175   */\n      0x00\n        /* \"#utility.yul\":5209:5211   */\n      0x40\n        /* \"#utility.yul\":5198:5207   */\n      dup3\n        /* \"#utility.yul\":5194:5212   */\n      add\n        /* \"#utility.yul\":5186:5212   */\n      swap1\n      pop\n        /* \"#utility.yul\":5258:5267   */\n      dup2\n        /* \"#utility.yul\":5252:5256   */\n      dup2\n        /* \"#utility.yul\":5248:5268   */\n      sub\n        /* \"#utility.yul\":5244:5245   */\n      0x00\n        /* \"#utility.yul\":5233:5242   */\n      dup4\n        /* \"#utility.yul\":5229:5246   */\n      add\n        /* \"#utility.yul\":5222:5269   */\n      mstore\n        /* \"#utility.yul\":5286:5364   */\n      tag_182\n        /* \"#utility.yul\":5359:5363   */\n      dup2\n        /* \"#utility.yul\":5350:5356   */\n      dup6\n        /* \"#utility.yul\":5286:5364   */\n      tag_91\n      jump\t// in\n    tag_182:\n        /* \"#utility.yul\":5278:5364   */\n      swap1\n      pop\n        /* \"#utility.yul\":5374:5440   */\n      tag_183\n        /* \"#utility.yul\":5436:5438   */\n      0x20\n        /* \"#utility.yul\":5425:5434   */\n      dup4\n        /* \"#utility.yul\":5421:5439   */\n      add\n        /* \"#utility.yul\":5412:5418   */\n      dup5\n        /* \"#utility.yul\":5374:5440   */\n      tag_93\n      jump\t// in\n    tag_183:\n        /* \"#utility.yul\":5036:5447   */\n      swap4\n      swap3\n      pop\n      pop\n      pop\n      jump\t// out\n        /* \"#utility.yul\":5453:5766   */\n    tag_27:\n        /* \"#utility.yul\":5566:5570   */\n      0x00\n        /* \"#utility.yul\":5604:5606   */\n      0x20\n        /* \"#utility.yul\":5593:5602   */\n      dup3\n        /* \"#utility.yul\":5589:5607   */\n      add\n        /* \"#utility.yul\":5581:5607   */\n      swap1\n      pop\n        /* \"#utility.yul\":5653:5662   */\n      dup2\n        /* \"#utility.yul\":5647:5651   */\n      dup2\n        /* \"#utility.yul\":5643:5663   */\n      sub\n        /* \"#utility.yul\":5639:5640   */\n      0x00\n        /* \"#utility.yul\":5628:5637   */\n      dup4\n        /* \"#utility.yul\":5624:5641   */\n      add\n        /* \"#utility.yul\":5617:5664   */\n      mstore\n        /* \"#utility.yul\":5681:5759   */\n      tag_185\n        /* \"#utility.yul\":5754:5758   */\n      dup2\n        /* \"#utility.yul\":5745:5751   */\n      dup5\n        /* \"#utility.yul\":5681:5759   */\n      tag_91\n      jump\t// in\n    tag_185:\n        /* \"#utility.yul\":5673:5759   */\n      swap1\n      pop\n        /* \"#utility.yul\":5453:5766   */\n      swap3\n      swap2\n      pop\n      pop\n      jump\t// out\n        /* \"#utility.yul\":5772:5946   */\n    tag_94:\n        /* \"#utility.yul\":5912:5938   */\n      0x4e616d652073686f756c64206e6f7420626520656d7074790000000000000000\n        /* \"#utility.yul\":5908:5909   */\n      0x00\n        /* \"#utility.yul\":5900:5906   */\n      dup3\n        /* \"#utility.yul\":5896:5910   */\n      add\n        /* \"#utility.yul\":5889:5939   */\n      mstore\n        /* \"#utility.yul\":5772:5946   */\n      pop\n      jump\t// out\n        /* \"#utility.yul\":5952:6318   */\n    tag_95:\n        /* \"#utility.yul\":6094:6097   */\n      0x00\n        /* \"#utility.yul\":6115:6182   */\n      tag_188\n        /* \"#utility.yul\":6179:6181   */\n      0x18\n        /* \"#utility.yul\":6174:6177   */\n      dup4\n        /* \"#utility.yul\":6115:6182   */\n      tag_89\n      jump\t// in\n    tag_188:\n        /* \"#utility.yul\":6108:6182   */\n      swap2\n      pop\n        /* \"#utility.yul\":6191:6284   */\n      tag_189\n        /* \"#utility.yul\":6280:6283   */\n      dup3\n        /* \"#utility.yul\":6191:6284   */\n      tag_94\n      jump\t// in\n    tag_189:\n        /* \"#utility.yul\":6309:6311   */\n      0x20\n        /* \"#utility.yul\":6304:6307   */\n      dup3\n        /* \"#utility.yul\":6300:6312   */\n      add\n        /* \"#utility.yul\":6293:6312   */\n      swap1\n      pop\n        /* \"#utility.yul\":5952:6318   */\n      swap2\n      swap1\n      pop\n      jump\t// out\n        /* \"#utility.yul\":6324:6743   */\n    tag_31:\n        /* \"#utility.yul\":6490:6494   */\n      0x00\n        /* \"#utility.yul\":6528:6530   */\n      0x20\n        /* \"#utility.yul\":6517:6526   */\n      dup3\n        /* \"#utility.yul\":6513:6531   */\n      add\n        /* \"#utility.yul\":6505:6531   */\n      swap1\n      pop\n        /* \"#utility.yul\":6577:6586   */\n      dup2\n        /* \"#utility.yul\":6571:6575   */\n      dup2\n        /* \"#utility.yul\":6567:6587   */\n      sub\n        /* \"#utility.yul\":6563:6564   */\n      0x00\n        /* \"#utility.yul\":6552:6561   */\n      dup4\n        /* \"#utility.yul\":6548:6565   */\n      add\n        /* \"#utility.yul\":6541:6588   */\n      mstore\n        /* \"#utility.yul\":6605:6736   */\n      tag_191\n        /* \"#utility.yul\":6731:6735   */\n      dup2\n        /* \"#utility.yul\":6605:6736   */\n      tag_95\n      jump\t// in\n    tag_191:\n        /* \"#utility.yul\":6597:6736   */\n      swap1\n      pop\n        /* \"#utility.yul\":6324:6743   */\n      swap2\n      swap1\n      pop\n      jump\t// out\n        /* \"#utility.yul\":6749:6928   */\n    tag_96:\n        /* \"#utility.yul\":6889:6920   */\n      0x4164647265737320697320616c72656164792072656769737465726564000000\n        /* \"#utility.yul\":6885:6886   */\n      0x00\n        /* \"#utility.yul\":6877:6883   */\n      dup3\n        /* \"#utility.yul\":6873:6887   */\n      add\n        /* \"#utility.yul\":6866:6921   */\n      mstore\n        /* \"#utility.yul\":6749:6928   */\n      pop\n      jump\t// out\n        /* \"#utility.yul\":6934:7300   */\n    tag_97:\n        /* \"#utility.yul\":7076:7079   */\n      0x00\n        /* \"#utility.yul\":7097:7164   */\n      tag_194\n        /* \"#utility.yul\":7161:7163   */\n      0x1d\n        /* \"#utility.yul\":7156:7159   */\n      dup4\n        /* \"#utility.yul\":7097:7164   */\n      tag_89\n      jump\t// in\n    tag_194:\n        /* \"#utility.yul\":7090:7164   */\n      swap2\n      pop\n        /* \"#utility.yul\":7173:7266   */\n      tag_195\n        /* \"#utility.yul\":7262:7265   */\n      dup3\n        /* \"#utility.yul\":7173:7266   */\n      tag_96\n      jump\t// in\n    tag_195:\n        /* \"#utility.yul\":7291:7293   */\n      0x20\n        /* \"#utility.yul\":7286:7289   */\n      dup3\n        /* \"#utility.yul\":7282:7294   */\n      add\n        /* \"#utility.yul\":7275:7294   */\n      swap1\n      pop\n        /* \"#utility.yul\":6934:7300   */\n      swap2\n      swap1\n      pop\n      jump\t// out\n        /* \"#utility.yul\":7306:7725   */\n    tag_34:\n        /* \"#utility.yul\":7472:7476   */\n      0x00\n        /* \"#utility.yul\":7510:7512   */\n      0x20\n        /* \"#utility.yul\":7499:7508   */\n      dup3\n        /* \"#utility.yul\":7495:7513   */\n      add\n        /* \"#utility.yul\":7487:7513   */\n      swap1\n      pop\n        /* \"#utility.yul\":7559:7568   */\n      dup2\n        /* \"#utility.yul\":7553:7557   */\n      dup2\n        /* \"#utility.yul\":7549:7569   */\n      sub\n        /* \"#utility.yul\":7545:7546   */\n      0x00\n        /* \"#utility.yul\":7534:7543   */\n      dup4\n        /* \"#utility.yul\":7530:7547   */\n      add\n        /* \"#utility.yul\":7523:7570   */\n      mstore\n        /* \"#utility.yul\":7587:7718   */\n      tag_197\n        /* \"#utility.yul\":7713:7717   */\n      dup2\n        /* \"#utility.yul\":7587:7718   */\n      tag_97\n      jump\t// in\n    tag_197:\n        /* \"#utility.yul\":7579:7718   */\n      swap1\n      pop\n        /* \"#utility.yul\":7306:7725   */\n      swap2\n      swap1\n      pop\n      jump\t// out\n        /* \"#utility.yul\":7731:7911   */\n    tag_98:\n        /* \"#utility.yul\":7779:7856   */\n      0x4e487b7100000000000000000000000000000000000000000000000000000000\n        /* \"#utility.yul\":7776:7777   */\n      0x00\n        /* \"#utility.yul\":7769:7857   */\n      mstore\n        /* \"#utility.yul\":7876:7880   */\n      0x22\n        /* \"#utility.yul\":7873:7874   */\n      0x04\n        /* \"#utility.yul\":7866:7881   */\n      mstore\n        /* \"#utility.yul\":7900:7904   */\n      0x24\n        /* \"#utility.yul\":7897:7898   */\n      0x00\n        /* \"#utility.yul\":7890:7905   */\n      revert\n        /* \"#utility.yul\":7917:8237   */\n    tag_44:\n        /* \"#utility.yul\":7961:7967   */\n      0x00\n        /* \"#utility.yul\":7998:7999   */\n      0x02\n        /* \"#utility.yul\":7992:7996   */\n      dup3\n        /* \"#utility.yul\":7988:8000   */\n      div\n        /* \"#utility.yul\":7978:8000   */\n      swap1\n      pop\n        /* \"#utility.yul\":8045:8046   */\n      0x01\n        /* \"#utility.yul\":8039:8043   */\n      dup3\n        /* \"#utility.yul\":8035:8047   */\n      and\n        /* \"#utility.yul\":8066:8084   */\n      dup1\n        /* \"#utility.yul\":8056:8137   */\n      tag_200\n      jumpi\n        /* \"#utility.yul\":8122:8126   */\n      0x7f\n        /* \"#utility.yul\":8114:8120   */\n      dup3\n        /* \"#utility.yul\":8110:8127   */\n      and\n        /* \"#utility.yul\":8100:8127   */\n      swap2\n      pop\n        /* \"#utility.yul\":8056:8137   */\n    tag_200:\n        /* \"#utility.yul\":8184:8186   */\n      0x20\n        /* \"#utility.yul\":8176:8182   */\n      dup3\n        /* \"#utility.yul\":8173:8187   */\n      lt\n        /* \"#utility.yul\":8153:8171   */\n      dup2\n        /* \"#utility.yul\":8150:8188   */\n      sub\n        /* \"#utility.yul\":8147:8231   */\n      tag_201\n      jumpi\n        /* \"#utility.yul\":8203:8221   */\n      tag_202\n      tag_98\n      jump\t// in\n    tag_202:\n        /* \"#utility.yul\":8147:8231   */\n    tag_201:\n        /* \"#utility.yul\":7968:8237   */\n      pop\n        /* \"#utility.yul\":7917:8237   */\n      swap2\n      swap1\n      pop\n      jump\t// out\n        /* \"#utility.yul\":8243:8384   */\n    tag_99:\n        /* \"#utility.yul\":8292:8296   */\n      0x00\n        /* \"#utility.yul\":8315:8318   */\n      dup2\n        /* \"#utility.yul\":8307:8318   */\n      swap1\n      pop\n        /* \"#utility.yul\":8338:8341   */\n      dup2\n        /* \"#utility.yul\":8335:8336   */\n      0x00\n        /* \"#utility.yul\":8328:8342   */\n      mstore\n        /* \"#utility.yul\":8372:8376   */\n      0x20\n        /* \"#utility.yul\":8369:8370   */\n      0x00\n        /* \"#utility.yul\":8359:8377   */\n      keccak256\n        /* \"#utility.yul\":8351:8377   */\n      swap1\n      pop\n        /* \"#utility.yul\":8243:8384   */\n      swap2\n      swap1\n      pop\n      jump\t// out\n        /* \"#utility.yul\":8390:8483   */\n    tag_100:\n        /* \"#utility.yul\":8427:8433   */\n      0x00\n        /* \"#utility.yul\":8474:8476   */\n      0x20\n        /* \"#utility.yul\":8469:8471   */\n      0x1f\n        /* \"#utility.yul\":8462:8467   */\n      dup4\n        /* \"#utility.yul\":8458:8472   */\n      add\n        /* \"#utility.yul\":8454:8477   */\n      div\n        /* \"#utility.yul\":8444:8477   */\n      swap1\n      pop\n        /* \"#utility.yul\":8390:8483   */\n      swap2\n      swap1\n      pop\n      jump\t// out\n        /* \"#utility.yul\":8489:8596   */\n    tag_101:\n        /* \"#utility.yul\":8533:8541   */\n      0x00\n        /* \"#utility.yul\":8583:8588   */\n      dup3\n        /* \"#utility.yul\":8577:8581   */\n      dup3\n        /* \"#utility.yul\":8573:8589   */\n      shl\n        /* \"#utility.yul\":8552:8589   */\n      swap1\n      pop\n        /* \"#utility.yul\":8489:8596   */\n      swap3\n      swap2\n      pop\n      pop\n      jump\t// out\n        /* \"#utility.yul\":8602:8995   */\n    tag_102:\n        /* \"#utility.yul\":8671:8677   */\n      0x00\n        /* \"#utility.yul\":8721:8722   */\n      0x08\n        /* \"#utility.yul\":8709:8719   */\n      dup4\n        /* \"#utility.yul\":8705:8723   */\n      mul\n        /* \"#utility.yul\":8744:8841   */\n      tag_207\n        /* \"#utility.yul\":8774:8840   */\n      0xffffffffffffffffffffffffffffffffffffffffffffffffffffffffffffffff\n        /* \"#utility.yul\":8763:8772   */\n      dup3\n        /* \"#utility.yul\":8744:8841   */\n      tag_101\n      jump\t// in\n    tag_207:\n        /* \"#utility.yul\":8862:8901   */\n      tag_208\n        /* \"#utility.yul\":8892:8900   */\n      dup7\n        /* \"#utility.yul\":8881:8890   */\n      dup4\n        /* \"#utility.yul\":8862:8901   */\n      tag_101\n      jump\t// in\n    tag_208:\n        /* \"#utility.yul\":8850:8901   */\n      swap6\n      pop\n        /* \"#utility.yul\":8934:8938   */\n      dup1\n        /* \"#utility.yul\":8930:8939   */\n      not\n        /* \"#utility.yul\":8923:8928   */\n      dup5\n        /* \"#utility.yul\":8919:8940   */\n      and\n        /* \"#utility.yul\":8910:8940   */\n      swap4\n      pop\n        /* \"#utility.yul\":8983:8987   */\n      dup1\n        /* \"#utility.yul\":8973:8981   */\n      dup7\n        /* \"#utility.yul\":8969:8988   */\n      and\n        /* \"#utility.yul\":8962:8967   */\n      dup5\n        /* \"#utility.yul\":8959:8989   */\n      or\n        /* \"#utility.yul\":8949:8989   */\n      swap3\n      pop\n        /* \"#utility.yul\":8678:8995   */\n      pop\n      pop\n        /* \"#utility.yul\":8602:8995   */\n      swap4\n      swap3\n      pop\n      pop\n      pop\n      jump\t// out\n        /* \"#utility.yul\":9001:9078   */\n    tag_103:\n        /* \"#utility.yul\":9038:9045   */\n      0x00\n        /* \"#utility.yul\":9067:9072   */\n      dup2\n        /* \"#utility.yul\":9056:9072   */\n      swap1\n      pop\n        /* \"#utility.yul\":9001:9078   */\n      swap2\n      swap1\n      pop\n      jump\t// out\n        /* \"#utility.yul\":9084:9144   */\n    tag_104:\n        /* \"#utility.yul\":9112:9115   */\n      0x00\n        /* \"#utility.yul\":9133:9138   */\n      dup2\n        /* \"#utility.yul\":9126:9138   */\n      swap1\n      pop\n        /* \"#utility.yul\":9084:9144   */\n      swap2\n      swap1\n      pop\n      jump\t// out\n        /* \"#utility.yul\":9150:9292   */\n    tag_105:\n        /* \"#utility.yul\":9200:9209   */\n      0x00\n        /* \"#utility.yul\":9233:9286   */\n      tag_212\n        /* \"#utility.yul\":9251:9285   */\n      tag_213\n        /* \"#utility.yul\":9260:9284   */\n      tag_214\n        /* \"#utility.yul\":9278:9283   */\n      dup5\n        /* \"#utility.yul\":9260:9284   */\n      tag_103\n      jump\t// in\n    tag_214:\n        /* \"#utility.yul\":9251:9285   */\n      tag_104\n      jump\t// in\n    tag_213:\n        /* \"#utility.yul\":9233:9286   */\n      tag_103\n      jump\t// in\n    tag_212:\n        /* \"#utility.yul\":9220:9286   */\n      swap1\n      pop\n        /* \"#utility.yul\":9150:9292   */\n      swap2\n      swap1\n      pop\n      jump\t// out\n        /* \"#utility.yul\":9298:9373   */\n    tag_106:\n        /* \"#utility.yul\":9341:9344   */\n      0x00\n        /* \"#utility.yul\":9362:9367   */\n      dup2\n        /* \"#utility.yul\":9355:9367   */\n      swap1\n      pop\n        /* \"#utility.yul\":9298:9373   */\n      swap2\n      swap1\n      pop\n      jump\t// out\n        /* \"#utility.yul\":9379:9648   */\n    tag_107:\n        /* \"#utility.yul\":9489:9528   */\n      tag_217\n        /* \"#utility.yul\":9520:9527   */\n      dup4\n        /* \"#utility.yul\":9489:9528   */\n      tag_105\n      jump\t// in\n    tag_217:\n        /* \"#utility.yul\":9550:9641   */\n      tag_218\n        /* \"#utility.yul\":9599:9640   */\n      tag_219\n        /* \"#utility.yul\":9623:9639   */\n      dup3\n        /* \"#utility.yul\":9599:9640   */\n      tag_106\n      jump\t// in\n    tag_219:\n        /* \"#utility.yul\":9591:9597   */\n      dup5\n        /* \"#utility.yul\":9584:9588   */\n      dup5\n        /* \"#utility.yul\":9578:9589   */\n      sload\n        /* \"#utility.yul\":9550:9641   */\n      tag_102\n      jump\t// in\n    tag_218:\n        /* \"#utility.yul\":9544:9548   */\n      dup3\n        /* \"#utility.yul\":9537:9642   */\n      sstore\n        /* \"#utility.yul\":9455:9648   */\n      pop\n        /* \"#utility.yul\":9379:9648   */\n      pop\n      pop\n      pop\n      jump\t// out\n        /* \"#utility.yul\":9654:9727   */\n    tag_108:\n        /* \"#utility.yul\":9699:9702   */\n      0x00\n        /* \"#utility.yul\":9654:9727   */\n      swap1\n      jump\t// out\n        /* \"#utility.yul\":9733:9922   */\n    tag_109:\n        /* \"#utility.yul\":9810:9842   */\n      tag_222\n      tag_108\n      jump\t// in\n    tag_222:\n        /* \"#utility.yul\":9851:9916   */\n      tag_223\n        /* \"#utility.yul\":9909:9915   */\n      dup2\n        /* \"#utility.yul\":9901:9907   */\n      dup5\n        /* \"#utility.yul\":9895:9899   */\n      dup5\n        /* \"#utility.yul\":9851:9916   */\n      tag_107\n      jump\t// in\n    tag_223:\n        /* \"#utility.yul\":9786:9922   */\n      pop\n        /* \"#utility.yul\":9733:9922   */\n      pop\n      pop\n      jump\t// out\n        /* \"#utility.yul\":9928:10114   */\n    tag_110:\n        /* \"#utility.yul\":9988:10108   */\n    tag_225:\n        /* \"#utility.yul\":10005:10008   */\n      dup2\n        /* \"#utility.yul\":9998:10003   */\n      dup2\n        /* \"#utility.yul\":9995:10009   */\n      lt\n        /* \"#utility.yul\":9988:10108   */\n      iszero\n      tag_227\n      jumpi\n        /* \"#utility.yul\":10059:10098   */\n      tag_228\n        /* \"#utility.yul\":10096:10097   */\n      0x00\n        /* \"#utility.yul\":10089:10094   */\n      dup3\n        /* \"#utility.yul\":10059:10098   */\n      tag_109\n      jump\t// in\n    tag_228:\n        /* \"#utility.yul\":10032:10033   */\n      0x01\n        /* \"#utility.yul\":10025:10030   */\n      dup2\n        /* \"#utility.yul\":10021:10034   */\n      add\n        /* \"#utility.yul\":10012:10034   */\n      swap1\n      pop\n        /* \"#utility.yul\":9988:10108   */\n      jump(tag_225)\n    tag_227:\n        /* \"#utility.yul\":9928:10114   */\n      pop\n      pop\n      jump\t// out\n        /* \"#utility.yul\":10120:10663   */\n    tag_111:\n        /* \"#utility.yul\":10221:10223   */\n      0x1f\n        /* \"#utility.yul\":10216:10219   */\n      dup3\n        /* \"#utility.yul\":10213:10224   */\n      gt\n        /* \"#utility.yul\":10210:10656   */\n      iszero\n      tag_230\n      jumpi\n        /* \"#utility.yul\":10255:10293   */\n      tag_231\n        /* \"#utility.yul\":10287:10292   */\n      dup2\n        /* \"#utility.yul\":10255:10293   */\n      tag_99\n      jump\t// in\n    tag_231:\n        /* \"#utility.yul\":10339:10368   */\n      tag_232\n        /* \"#utility.yul\":10357:10367   */\n      dup5\n        /* \"#utility.yul\":10339:10368   */\n      tag_100\n      jump\t// in\n    tag_232:\n        /* \"#utility.yul\":10329:10337   */\n      dup2\n        /* \"#utility.yul\":10325:10369   */\n      add\n        /* \"#utility.yul\":10522:10524   */\n      0x20\n        /* \"#utility.yul\":10510:10520   */\n      dup6\n        /* \"#utility.yul\":10507:10525   */\n      lt\n        /* \"#utility.yul\":10504:10553   */\n      iszero\n      tag_233\n      jumpi\n        /* \"#utility.yul\":10543:10551   */\n      dup2\n        /* \"#utility.yul\":10528:10551   */\n      swap1\n      pop\n        /* \"#utility.yul\":10504:10553   */\n    tag_233:\n        /* \"#utility.yul\":10566:10646   */\n      tag_234\n        /* \"#utility.yul\":10622:10644   */\n      tag_235\n        /* \"#utility.yul\":10640:10643   */\n      dup6\n        /* \"#utility.yul\":10622:10644   */\n      tag_100\n      jump\t// in\n    tag_235:\n        /* \"#utility.yul\":10612:10620   */\n      dup4\n        /* \"#utility.yul\":10608:10645   */\n      add\n        /* \"#utility.yul\":10595:10606   */\n      dup3\n        /* \"#utility.yul\":10566:10646   */\n      tag_110\n      jump\t// in\n    tag_234:\n        /* \"#utility.yul\":10225:10656   */\n      pop\n      pop\n        /* \"#utility.yul\":10210:10656   */\n    tag_230:\n        /* \"#utility.yul\":10120:10663   */\n      pop\n      pop\n      pop\n      jump\t// out\n        /* \"#utility.yul\":10669:10786   */\n    tag_112:\n        /* \"#utility.yul\":10723:10731   */\n      0x00\n        /* \"#utility.yul\":10773:10778   */\n      dup3\n        /* \"#utility.yul\":10767:10771   */\n      dup3\n        /* \"#utility.yul\":10763:10779   */\n      shr\n        /* \"#utility.yul\":10742:10779   */\n      swap1\n      pop\n        /* \"#utility.yul\":10669:10786   */\n      swap3\n      swap2\n      pop\n      pop\n      jump\t// out\n        /* \"#utility.yul\":10792:10961   */\n    tag_113:\n        /* \"#utility.yul\":10836:10842   */\n      0x00\n        /* \"#utility.yul\":10869:10920   */\n      tag_238\n        /* \"#utility.yul\":10917:10918   */\n      0x00\n        /* \"#utility.yul\":10913:10919   */\n      not\n        /* \"#utility.yul\":10905:10910   */\n      dup5\n        /* \"#utility.yul\":10902:10903   */\n      0x08\n        /* \"#utility.yul\":10898:10911   */\n      mul\n        /* \"#utility.yul\":10869:10920   */\n      tag_112\n      jump\t// in\n    tag_238:\n        /* \"#utility.yul\":10865:10921   */\n      not\n        /* \"#utility.yul\":10950:10954   */\n      dup1\n        /* \"#utility.yul\":10944:10948   */\n      dup4\n        /* \"#utility.yul\":10940:10955   */\n      and\n        /* \"#utility.yul\":10930:10955   */\n      swap2\n      pop\n        /* \"#utility.yul\":10843:10961   */\n      pop\n        /* \"#utility.yul\":10792:10961   */\n      swap3\n      swap2\n      pop\n      pop\n      jump\t// out\n        /* \"#utility.yul\":10966:11261   */\n    tag_114:\n        /* \"#utility.yul\":11042:11046   */\n      0x00\n        /* \"#utility.yul\":11188:11217   */\n      tag_240\n        /* \"#utility.yul\":11213:11216   */\n      dup4\n        /* \"#utility.yul\":11207:11211   */\n      dup4\n        /* \"#utility.yul\":11188:11217   */\n      tag_113\n      jump\t// in\n    tag_240:\n        /* \"#utility.yul\":11180:11217   */\n      swap2\n      pop\n        /* \"#utility.yul\":11250:11253   */\n      dup3\n        /* \"#utility.yul\":11247:11248   */\n      0x02\n        /* \"#utility.yul\":11243:11254   */\n      mul\n        /* \"#utility.yul\":11237:11241   */\n      dup3\n        /* \"#utility.yul\":11234:11255   */\n      or\n        /* \"#utility.yul\":11226:11255   */\n      swap1\n      pop\n        /* \"#utility.yul\":10966:11261   */\n      swap3\n      swap2\n      pop\n      pop\n      jump\t// out\n        /* \"#utility.yul\":11266:12661   */\n    tag_36:\n        /* \"#utility.yul\":11383:11420   */\n      tag_242\n        /* \"#utility.yul\":11416:11419   */\n      dup3\n        /* \"#utility.yul\":11383:11420   */\n      tag_88\n      jump\t// in\n    tag_242:\n        /* \"#utility.yul\":11485:11503   */\n      0xffffffffffffffff\n        /* \"#utility.yul\":11477:11483   */\n      dup2\n        /* \"#utility.yul\":11474:11504   */\n      gt\n        /* \"#utility.yul\":11471:11527   */\n      iszero\n      tag_243\n      jumpi\n        /* \"#utility.yul\":11507:11525   */\n      tag_244\n      tag_77\n      jump\t// in\n    tag_244:\n        /* \"#utility.yul\":11471:11527   */\n    tag_243:\n        /* \"#utility.yul\":11551:11589   */\n      tag_245\n        /* \"#utility.yul\":11583:11587   */\n      dup3\n        /* \"#utility.yul\":11577:11588   */\n      sload\n        /* \"#utility.yul\":11551:11589   */\n      tag_44\n      jump\t// in\n    tag_245:\n        /* \"#utility.yul\":11636:11703   */\n      tag_246\n        /* \"#utility.yul\":11696:11702   */\n      dup3\n        /* \"#utility.yul\":11688:11694   */\n      dup3\n        /* \"#utility.yul\":11682:11686   */\n      dup6\n        /* \"#utility.yul\":11636:11703   */\n      tag_111\n      jump\t// in\n    tag_246:\n        /* \"#utility.yul\":11730:11731   */\n      0x00\n        /* \"#utility.yul\":11754:11758   */\n      0x20\n        /* \"#utility.yul\":11741:11758   */\n      swap1\n      pop\n        /* \"#utility.yul\":11786:11788   */\n      0x1f\n        /* \"#utility.yul\":11778:11784   */\n      dup4\n        /* \"#utility.yul\":11775:11789   */\n      gt\n        /* \"#utility.yul\":11803:11804   */\n      0x01\n        /* \"#utility.yul\":11798:12416   */\n      dup2\n      eq\n      tag_248\n      jumpi\n        /* \"#utility.yul\":12460:12461   */\n      0x00\n        /* \"#utility.yul\":12477:12483   */\n      dup5\n        /* \"#utility.yul\":12474:12551   */\n      iszero\n      tag_249\n      jumpi\n        /* \"#utility.yul\":12526:12535   */\n      dup3\n        /* \"#utility.yul\":12521:12524   */\n      dup8\n        /* \"#utility.yul\":12517:12536   */\n      add\n        /* \"#utility.yul\":12511:12537   */\n      mload\n        /* \"#utility.yul\":12502:12537   */\n      swap1\n      pop\n        /* \"#utility.yul\":12474:12551   */\n    tag_249:\n        /* \"#utility.yul\":12577:12644   */\n      tag_250\n        /* \"#utility.yul\":12637:12643   */\n      dup6\n        /* \"#utility.yul\":12630:12635   */\n      dup3\n        /* \"#utility.yul\":12577:12644   */\n      tag_114\n      jump\t// in\n    tag_250:\n        /* \"#utility.yul\":12571:12575   */\n      dup7\n        /* \"#utility.yul\":12564:12645   */\n      sstore\n        /* \"#utility.yul\":12433:12655   */\n      pop\n        /* \"#utility.yul\":11768:12655   */\n      jump(tag_247)\n        /* \"#utility.yul\":11798:12416   */\n    tag_248:\n        /* \"#utility.yul\":11850:11854   */\n      0x1f\n        /* \"#utility.yul\":11846:11855   */\n      not\n        /* \"#utility.yul\":11838:11844   */\n      dup5\n        /* \"#utility.yul\":11834:11856   */\n      and\n        /* \"#utility.yul\":11884:11921   */\n      tag_251\n        /* \"#utility.yul\":11916:11920   */\n      dup7\n        /* \"#utility.yul\":11884:11921   */\n      tag_99\n      jump\t// in\n    tag_251:\n        /* \"#utility.yul\":11943:11944   */\n      0x00\n        /* \"#utility.yul\":11957:12165   */\n    tag_252:\n        /* \"#utility.yul\":11971:11978   */\n      dup3\n        /* \"#utility.yul\":11968:11969   */\n      dup2\n        /* \"#utility.yul\":11965:11979   */\n      lt\n        /* \"#utility.yul\":11957:12165   */\n      iszero\n      tag_254\n      jumpi\n        /* \"#utility.yul\":12050:12059   */\n      dup5\n        /* \"#utility.yul\":12045:12048   */\n      dup10\n        /* \"#utility.yul\":12041:12060   */\n      add\n        /* \"#utility.yul\":12035:12061   */\n      mload\n        /* \"#utility.yul\":12027:12033   */\n      dup3\n        /* \"#utility.yul\":12020:12062   */\n      sstore\n        /* \"#utility.yul\":12101:12102   */\n      0x01\n        /* \"#utility.yul\":12093:12099   */\n      dup3\n        /* \"#utility.yul\":12089:12103   */\n      add\n        /* \"#utility.yul\":12079:12103   */\n      swap2\n      pop\n        /* \"#utility.yul\":12148:12150   */\n      0x20\n        /* \"#utility.yul\":12137:12146   */\n      dup6\n        /* \"#utility.yul\":12133:12151   */\n      add\n        /* \"#utility.yul\":12120:12151   */\n      swap5\n      pop\n        /* \"#utility.yul\":11994:11998   */\n      0x20\n        /* \"#utility.yul\":11991:11992   */\n      dup2\n        /* \"#utility.yul\":11987:11999   */\n      add\n        /* \"#utility.yul\":11982:11999   */\n      swap1\n      pop\n        /* \"#utility.yul\":11957:12165   */\n      jump(tag_252)\n    tag_254:\n        /* \"#utility.yul\":12193:12199   */\n      dup7\n        /* \"#utility.yul\":12184:12191   */\n      dup4\n        /* \"#utility.yul\":12181:12200   */\n      lt\n        /* \"#utility.yul\":12178:12357   */\n      iszero\n      tag_255\n      jumpi\n        /* \"#utility.yul\":12251:12260   */\n      dup5\n        /* \"#utility.yul\":12246:12249   */\n      dup10\n        /* \"#utility.yul\":12242:12261   */\n      add\n        /* \"#utility.yul\":12236:12262   */\n      mload\n        /* \"#utility.yul\":12294:12342   */\n      tag_256\n        /* \"#utility.yul\":12336:12340   */\n      0x1f\n        /* \"#utility.yul\":12328:12334   */\n      dup10\n        /* \"#utility.yul\":12324:12341   */\n      and\n        /* \"#utility.yul\":12313:12322   */\n      dup3\n        /* \"#utility.yul\":12294:12342   */\n      tag_113\n      jump\t// in\n    tag_256:\n        /* \"#utility.yul\":12286:12292   */\n      dup4\n        /* \"#utility.yul\":12279:12343   */\n      sstore\n        /* \"#utility.yul\":12201:12357   */\n      pop\n        /* \"#utility.yul\":12178:12357   */\n    tag_255:\n        /* \"#utility.yul\":12403:12404   */\n      0x01\n        /* \"#utility.yul\":12399:12400   */\n      0x02\n        /* \"#utility.yul\":12391:12397   */\n      dup9\n        /* \"#utility.yul\":12387:12401   */\n      mul\n        /* \"#utility.yul\":12383:12405   */\n      add\n        /* \"#utility.yul\":12377:12381   */\n      dup9\n        /* \"#utility.yul\":12370:12406   */\n      sstore\n        /* \"#utility.yul\":11805:12416   */\n      pop\n      pop\n      pop\n        /* \"#utility.yul\":11768:12655   */\n    tag_247:\n      pop\n        /* \"#utility.yul\":11358:12661   */\n      pop\n      pop\n      pop\n        /* \"#utility.yul\":11266:12661   */\n      pop\n      pop\n      jump\t// out\n        /* \"#utility.yul\":12667:12842   */\n    tag_115:\n        /* \"#utility.yul\":12807:12834   */\n      0x41646472657373206973206e6f74207265676973746572656400000000000000\n        /* \"#utility.yul\":12803:12804   */\n      0x00\n        /* \"#utility.yul\":12795:12801   */\n      dup3\n        /* \"#utility.yul\":12791:12805   */\n      add\n        /* \"#utility.yul\":12784:12835   */\n      mstore\n        /* \"#utility.yul\":12667:12842   */\n      pop\n      jump\t// out\n        /* \"#utility.yul\":12848:13214   */\n    tag_116:\n        /* \"#utility.yul\":12990:12993   */\n      0x00\n        /* \"#utility.yul\":13011:13078   */\n      tag_259\n        /* \"#utility.yul\":13075:13077   */\n      0x19\n        /* \"#utility.yul\":13070:13073   */\n      dup4\n        /* \"#utility.yul\":13011:13078   */\n      tag_89\n      jump\t// in\n    tag_259:\n        /* \"#utility.yul\":13004:13078   */\n      swap2\n      pop\n        /* \"#utility.yul\":13087:13180   */\n      tag_260\n        /* \"#utility.yul\":13176:13179   */\n      dup3\n        /* \"#utility.yul\":13087:13180   */\n      tag_115\n      jump\t// in\n    tag_260:\n        /* \"#utility.yul\":13205:13207   */\n      0x20\n        /* \"#utility.yul\":13200:13203   */\n      dup3\n        /* \"#utility.yul\":13196:13208   */\n      add\n        /* \"#utility.yul\":13189:13208   */\n      swap1\n      pop\n        /* \"#utility.yul\":12848:13214   */\n      swap2\n      swap1\n      pop\n      jump\t// out\n        /* \"#utility.yul\":13220:13639   */\n    tag_41:\n        /* \"#utility.yul\":13386:13390   */\n      0x00\n        /* \"#utility.yul\":13424:13426   */\n      0x20\n        /* \"#utility.yul\":13413:13422   */\n      dup3\n        /* \"#utility.yul\":13409:13427   */\n      add\n        /* \"#utility.yul\":13401:13427   */\n      swap1\n      pop\n        /* \"#utility.yul\":13473:13482   */\n      dup2\n        /* \"#utility.yul\":13467:13471   */\n      dup2\n        /* \"#utility.yul\":13463:13483   */\n      sub\n        /* \"#utility.yul\":13459:13460   */\n      0x00\n        /* \"#utility.yul\":13448:13457   */\n      dup4\n        /* \"#utility.yul\":13444:13461   */\n      add\n        /* \"#utility.yul\":13437:13484   */\n      mstore\n        /* \"#utility.yul\":13501:13632   */\n      tag_262\n        /* \"#utility.yul\":13627:13631   */\n      dup2\n        /* \"#utility.yul\":13501:13632   */\n      tag_116\n      jump\t// in\n    tag_262:\n        /* \"#utility.yul\":13493:13632   */\n      swap1\n      pop\n        /* \"#utility.yul\":13220:13639   */\n      swap2\n      swap1\n      pop\n      jump\t// out\n        /* \"#utility.yul\":13645:13865   */\n    tag_117:\n        /* \"#utility.yul\":13785:13819   */\n      0x4e6577206164647265737320697320616c726561647920726567697374657265\n        /* \"#utility.yul\":13781:13782   */\n      0x00\n        /* \"#utility.yul\":13773:13779   */\n      dup3\n        /* \"#utility.yul\":13769:13783   */\n      add\n        /* \"#utility.yul\":13762:13820   */\n      mstore\n        /* \"#utility.yul\":13854:13857   */\n      0x6400000000000000000000000000000000000000000000000000000000000000\n        /* \"#utility.yul\":13849:13851   */\n      0x20\n        /* \"#utility.yul\":13841:13847   */\n      dup3\n        /* \"#utility.yul\":13837:13852   */\n      add\n        /* \"#utility.yul\":13830:13858   */\n      mstore\n        /* \"#utility.yul\":13645:13865   */\n      pop\n      jump\t// out\n        /* \"#utility.yul\":13871:14237   */\n    tag_118:\n        /* \"#utility.yul\":14013:14016   */\n      0x00\n        /* \"#utility.yul\":14034:14101   */\n      tag_265\n        /* \"#utility.yul\":14098:14100   */\n      0x21\n        /* \"#utility.yul\":14093:14096   */\n      dup4\n        /* \"#utility.yul\":14034:14101   */\n      tag_89\n      jump\t// in\n    tag_265:\n        /* \"#utility.yul\":14027:14101   */\n      swap2\n      pop\n        /* \"#utility.yul\":14110:14203   */\n      tag_266\n        /* \"#utility.yul\":14199:14202   */\n      dup3\n        /* \"#utility.yul\":14110:14203   */\n      tag_117\n      jump\t// in\n    tag_266:\n        /* \"#utility.yul\":14228:14230   */\n      0x40\n        /* \"#utility.yul\":14223:14226   */\n      dup3\n        /* \"#utility.yul\":14219:14231   */\n      add\n        /* \"#utility.yul\":14212:14231   */\n      swap1\n      pop\n        /* \"#utility.yul\":13871:14237   */\n      swap2\n      swap1\n      pop\n      jump\t// out\n        /* \"#utility.yul\":14243:14662   */\n    tag_59:\n        /* \"#utility.yul\":14409:14413   */\n      0x00\n        /* \"#utility.yul\":14447:14449   */\n      0x20\n        /* \"#utility.yul\":14436:14445   */\n      dup3\n        /* \"#utility.yul\":14432:14450   */\n      add\n        /* \"#utility.yul\":14424:14450   */\n      swap1\n      pop\n        /* \"#utility.yul\":14496:14505   */\n      dup2\n        /* \"#utility.yul\":14490:14494   */\n      dup2\n        /* \"#utility.yul\":14486:14506   */\n      sub\n        /* \"#utility.yul\":14482:14483   */\n      0x00\n        /* \"#utility.yul\":14471:14480   */\n      dup4\n        /* \"#utility.yul\":14467:14484   */\n      add\n        /* \"#utility.yul\":14460:14507   */\n      mstore\n        /* \"#utility.yul\":14524:14655   */\n      tag_268\n        /* \"#utility.yul\":14650:14654   */\n      dup2\n        /* \"#utility.yul\":14524:14655   */\n      tag_118\n      jump\t// in\n    tag_268:\n        /* \"#utility.yul\":14516:14655   */\n      swap1\n      pop\n        /* \"#utility.yul\":14243:14662   */\n      swap2\n      swap1\n      pop\n      jump\t// out\n\n    auxdata: 0xa26469706673582212203942d7104c2a69ec0391ae48bf82af6ea12e9cb0a2d2481b821a2c2089fe4a7064736f6c63430008120033\n}\n",
				"bytecode": {
					"linkReferences": {},
					"object": "608060405234801561001057600080fd5b506111a7806100206000396000f3fe608060405234801561001057600080fd5b50600436106100575760003560e01c80630830602b1461005c5780630d5fba83146100785780630e7b29bf146100825780634ef8884b146100b35780635fd4b08a146100cf575b600080fd5b61007660048036038101906100719190610af3565b6100ff565b005b6100806102b2565b005b61009c60048036038101906100979190610b9a565b610423565b6040516100aa929190610c61565b60405180910390f35b6100cd60048036038101906100c89190610b9a565b6104dc565b005b6100e960048036038101906100e49190610b9a565b610847565b6040516100f69190610c91565b60405180910390f35b6000815111610143576040517f08c379a000000000000000000000000000000000000000000000000000000000815260040161013a90610cff565b60405180910390fd5b6000803373ffffffffffffffffffffffffffffffffffffffff1673ffffffffffffffffffffffffffffffffffffffff16815260200190815260200160002060010160009054906101000a900460ff16156101d2576040517f08c379a00000000000000000000000000000000000000000000000000000000081526004016101c990610d6b565b60405180910390fd5b6040518060400160405280828152602001600115158152506000803373ffffffffffffffffffffffffffffffffffffffff1673ffffffffffffffffffffffffffffffffffffffff168152602001908152602001600020600082015181600001908161023d9190610fa1565b5060208201518160010160006101000a81548160ff0219169083151502179055509050503373ffffffffffffffffffffffffffffffffffffffff167f56a1a2764a85c689329fbc04f299b64690a26b1dc5ac82e903cf8ad805cd5396826040516102a79190610c91565b60405180910390a250565b6000803373ffffffffffffffffffffffffffffffffffffffff1673ffffffffffffffffffffffffffffffffffffffff16815260200190815260200160002060010160009054906101000a900460ff16610340576040517f08c379a0000000000000000000000000000000000000000000000000000000008152600401610337906110bf565b60405180910390fd5b6040518060400160405280604051806020016040528060008152508152602001600015158152506000803373ffffffffffffffffffffffffffffffffffffffff1673ffffffffffffffffffffffffffffffffffffffff16815260200190815260200160002060008201518160000190816103ba9190610fa1565b5060208201518160010160006101000a81548160ff0219169083151502179055509050503373ffffffffffffffffffffffffffffffffffffffff167fd535c2e59a2f16f058b1b296bef26cc2579ffc7f69aaf7b53f536943cb6a754360405160405180910390a2565b600060205280600052604060002060009150905080600001805461044690610dba565b80601f016020809104026020016040519081016040528092919081815260200182805461047290610dba565b80156104bf5780601f10610494576101008083540402835291602001916104bf565b820191906000526020600020905b8154815290600101906020018083116104a257829003601f168201915b5050505050908060010160009054906101000a900460ff16905082565b60008060003373ffffffffffffffffffffffffffffffffffffffff1673ffffffffffffffffffffffffffffffffffffffff16815260200190815260200160002060405180604001604052908160008201805461053790610dba565b80601f016020809104026020016040519081016040528092919081815260200182805461056390610dba565b80156105b05780601f10610585576101008083540402835291602001916105b0565b820191906000526020600020905b81548152906001019060200180831161059357829003601f168201915b505050505081526020016001820160009054906101000a900460ff1615151515815250509050806020015161061a576040517f08c379a0000000000000000000000000000000000000000000000000000000008152600401610611906110bf565b60405180910390fd5b6000808373ffffffffffffffffffffffffffffffffffffffff1673ffffffffffffffffffffffffffffffffffffffff16815260200190815260200160002060010160009054906101000a900460ff16156106a9576040517f08c379a00000000000000000000000000000000000000000000000000000000081526004016106a090611151565b60405180910390fd5b604051806040016040528082600001518152602001600115158152506000808473ffffffffffffffffffffffffffffffffffffffff1673ffffffffffffffffffffffffffffffffffffffff16815260200190815260200160002060008201518160000190816107189190610fa1565b5060208201518160010160006101000a81548160ff0219169083151502179055509050506040518060400160405280604051806020016040528060008152508152602001600015158152506000803373ffffffffffffffffffffffffffffffffffffffff1673ffffffffffffffffffffffffffffffffffffffff16815260200190815260200160002060008201518160000190816107b69190610fa1565b5060208201518160010160006101000a81548160ff0219169083151502179055509050508173ffffffffffffffffffffffffffffffffffffffff163373ffffffffffffffffffffffffffffffffffffffff167f61ce72876df632c9cea54f37e843a14873bc9a7abd2f79797a8a00e467081f3c836000015160405161083b9190610c91565b60405180910390a35050565b606060008060008473ffffffffffffffffffffffffffffffffffffffff1673ffffffffffffffffffffffffffffffffffffffff1681526020019081526020016000206040518060400160405290816000820180546108a490610dba565b80601f01602080910402602001604051908101604052809291908181526020018280546108d090610dba565b801561091d5780601f106108f25761010080835404028352916020019161091d565b820191906000526020600020905b81548152906001019060200180831161090057829003601f168201915b505050505081526020016001820160009054906101000a900460ff161515151581525050905080602001511561095a578060000151915050610994565b6040518060400160405280600981526020017f6e6f7420666f756e6400000000000000000000000000000000000000000000008152509150505b919050565b6000604051905090565b600080fd5b600080fd5b600080fd5b600080fd5b6000601f19601f8301169050919050565b7f4e487b7100000000000000000000000000000000000000000000000000000000600052604160045260246000fd5b610a00826109b7565b810181811067ffffffffffffffff82111715610a1f57610a1e6109c8565b5b80604052505050565b6000610a32610999565b9050610a3e82826109f7565b919050565b600067ffffffffffffffff821115610a5e57610a5d6109c8565b5b610a67826109b7565b9050602081019050919050565b82818337600083830152505050565b6000610a96610a9184610a43565b610a28565b905082815260208101848484011115610ab257610ab16109b2565b5b610abd848285610a74565b509392505050565b600082601f830112610ada57610ad96109ad565b5b8135610aea848260208601610a83565b91505092915050565b600060208284031215610b0957610b086109a3565b5b600082013567ffffffffffffffff811115610b2757610b266109a8565b5b610b3384828501610ac5565b91505092915050565b600073ffffffffffffffffffffffffffffffffffffffff82169050919050565b6000610b6782610b3c565b9050919050565b610b7781610b5c565b8114610b8257600080fd5b50565b600081359050610b9481610b6e565b92915050565b600060208284031215610bb057610baf6109a3565b5b6000610bbe84828501610b85565b91505092915050565b600081519050919050565b600082825260208201905092915050565b60005b83811015610c01578082015181840152602081019050610be6565b60008484015250505050565b6000610c1882610bc7565b610c228185610bd2565b9350610c32818560208601610be3565b610c3b816109b7565b840191505092915050565b60008115159050919050565b610c5b81610c46565b82525050565b60006040820190508181036000830152610c7b8185610c0d565b9050610c8a6020830184610c52565b9392505050565b60006020820190508181036000830152610cab8184610c0d565b905092915050565b7f4e616d652073686f756c64206e6f7420626520656d7074790000000000000000600082015250565b6000610ce9601883610bd2565b9150610cf482610cb3565b602082019050919050565b60006020820190508181036000830152610d1881610cdc565b9050919050565b7f4164647265737320697320616c72656164792072656769737465726564000000600082015250565b6000610d55601d83610bd2565b9150610d6082610d1f565b602082019050919050565b60006020820190508181036000830152610d8481610d48565b9050919050565b7f4e487b7100000000000000000000000000000000000000000000000000000000600052602260045260246000fd5b60006002820490506001821680610dd257607f821691505b602082108103610de557610de4610d8b565b5b50919050565b60008190508160005260206000209050919050565b60006020601f8301049050919050565b600082821b905092915050565b600060088302610e4d7fffffffffffffffffffffffffffffffffffffffffffffffffffffffffffffffff82610e10565b610e578683610e10565b95508019841693508086168417925050509392505050565b6000819050919050565b6000819050919050565b6000610e9e610e99610e9484610e6f565b610e79565b610e6f565b9050919050565b6000819050919050565b610eb883610e83565b610ecc610ec482610ea5565b848454610e1d565b825550505050565b600090565b610ee1610ed4565b610eec818484610eaf565b505050565b5b81811015610f1057610f05600082610ed9565b600181019050610ef2565b5050565b601f821115610f5557610f2681610deb565b610f2f84610e00565b81016020851015610f3e578190505b610f52610f4a85610e00565b830182610ef1565b50505b505050565b600082821c905092915050565b6000610f7860001984600802610f5a565b1980831691505092915050565b6000610f918383610f67565b9150826002028217905092915050565b610faa82610bc7565b67ffffffffffffffff811115610fc357610fc26109c8565b5b610fcd8254610dba565b610fd8828285610f14565b600060209050601f83116001811461100b5760008415610ff9578287015190505b6110038582610f85565b86555061106b565b601f19841661101986610deb565b60005b828110156110415784890151825560018201915060208501945060208101905061101c565b8683101561105e578489015161105a601f891682610f67565b8355505b6001600288020188555050505b505050505050565b7f41646472657373206973206e6f74207265676973746572656400000000000000600082015250565b60006110a9601983610bd2565b91506110b482611073565b602082019050919050565b600060208201905081810360008301526110d88161109c565b9050919050565b7f4e6577206164647265737320697320616c72656164792072656769737465726560008201527f6400000000000000000000000000000000000000000000000000000000000000602082015250565b600061113b602183610bd2565b9150611146826110df565b604082019050919050565b6000602082019050818103600083015261116a8161112e565b905091905056fea26469706673582212203942d7104c2a69ec0391ae48bf82af6ea12e9cb0a2d2481b821a2c2089fe4a7064736f6c63430008120033",
					"opcodes": "PUSH1 0x80 PUSH1 0x40 MSTORE CALLVALUE DUP1 ISZERO PUSH2 0x10 JUMPI PUSH1 0x0 DUP1 REVERT JUMPDEST POP PUSH2 0x11A7 DUP1 PUSH2 0x20 PUSH1 0x0 CODECOPY PUSH1 0x0 RETURN INVALID PUSH1 0x80 PUSH1 0x40 MSTORE CALLVALUE DUP1 ISZERO PUSH2 0x10 JUMPI PUSH1 0x0 DUP1 REVERT JUMPDEST POP PUSH1 0x4 CALLDATASIZE LT PUSH2 0x57 JUMPI PUSH1 0x0 CALLDATALOAD PUSH1 0xE0 SHR DUP1 PUSH4 0x830602B EQ PUSH2 0x5C JUMPI DUP1 PUSH4 0xD5FBA83 EQ PUSH2 0x78 JUMPI DUP1 PUSH4 0xE7B29BF EQ PUSH2 0x82 JUMPI DUP1 PUSH4 0x4EF8884B EQ PUSH2 0xB3 JUMPI DUP1 PUSH4 0x5FD4B08A EQ PUSH2 0xCF JUMPI JUMPDEST PUSH1 0x0 DUP1 REVERT JUMPDEST PUSH2 0x76 PUSH1 0x4 DUP1 CALLDATASIZE SUB DUP2 ADD SWAP1 PUSH2 0x71 SWAP2 SWAP1 PUSH2 0xAF3 JUMP JUMPDEST PUSH2 0xFF JUMP JUMPDEST STOP JUMPDEST PUSH2 0x80 PUSH2 0x2B2 JUMP JUMPDEST STOP JUMPDEST PUSH2 0x9C PUSH1 0x4 DUP1 CALLDATASIZE SUB DUP2 ADD SWAP1 PUSH2 0x97 SWAP2 SWAP1 PUSH2 0xB9A JUMP JUMPDEST PUSH2 0x423 JUMP JUMPDEST PUSH1 0x40 MLOAD PUSH2 0xAA SWAP3 SWAP2 SWAP1 PUSH2 0xC61 JUMP JUMPDEST PUSH1 0x40 MLOAD DUP1 SWAP2 SUB SWAP1 RETURN JUMPDEST PUSH2 0xCD PUSH1 0x4 DUP1 CALLDATASIZE SUB DUP2 ADD SWAP1 PUSH2 0xC8 SWAP2 SWAP1 PUSH2 0xB9A JUMP JUMPDEST PUSH2 0x4DC JUMP JUMPDEST STOP JUMPDEST PUSH2 0xE9 PUSH1 0x4 DUP1 CALLDATASIZE SUB DUP2 ADD SWAP1 PUSH2 0xE4 SWAP2 SWAP1 PUSH2 0xB9A JUMP JUMPDEST PUSH2 0x847 JUMP JUMPDEST PUSH1 0x40 MLOAD PUSH2 0xF6 SWAP2 SWAP1 PUSH2 0xC91 JUMP JUMPDEST PUSH1 0x40 MLOAD DUP1 SWAP2 SUB SWAP1 RETURN JUMPDEST PUSH1 0x0 DUP2 MLOAD GT PUSH2 0x143 JUMPI PUSH1 0x40 MLOAD PUSH32 0x8C379A000000000000000000000000000000000000000000000000000000000 DUP2 MSTORE PUSH1 0x4 ADD PUSH2 0x13A SWAP1 PUSH2 0xCFF JUMP JUMPDEST PUSH1 0x40 MLOAD DUP1 SWAP2 SUB SWAP1 REVERT JUMPDEST PUSH1 0x0 DUP1 CALLER PUSH20 0xFFFFFFFFFFFFFFFFFFFFFFFFFFFFFFFFFFFFFFFF AND PUSH20 0xFFFFFFFFFFFFFFFFFFFFFFFFFFFFFFFFFFFFFFFF AND DUP2 MSTORE PUSH1 0x20 ADD SWAP1 DUP2 MSTORE PUSH1 0x20 ADD PUSH1 0x0 KECCAK256 PUSH1 0x1 ADD PUSH1 0x0 SWAP1 SLOAD SWAP1 PUSH2 0x100 EXP SWAP1 DIV PUSH1 0xFF AND ISZERO PUSH2 0x1D2 JUMPI PUSH1 0x40 MLOAD PUSH32 0x8C379A000000000000000000000000000000000000000000000000000000000 DUP2 MSTORE PUSH1 0x4 ADD PUSH2 0x1C9 SWAP1 PUSH2 0xD6B JUMP JUMPDEST PUSH1 0x40 MLOAD DUP1 SWAP2 SUB SWAP1 REVERT JUMPDEST PUSH1 0x40 MLOAD DUP1 PUSH1 0x40 ADD PUSH1 0x40 MSTORE DUP1 DUP3 DUP2 MSTORE PUSH1 0x20 ADD PUSH1 0x1 ISZERO ISZERO DUP2 MSTORE POP PUSH1 0x0 DUP1 CALLER PUSH20 0xFFFFFFFFFFFFFFFFFFFFFFFFFFFFFFFFFFFFFFFF AND PUSH20 0xFFFFFFFFFFFFFFFFFFFFFFFFFFFFFFFFFFFFFFFF AND DUP2 MSTORE PUSH1 0x20 ADD SWAP1 DUP2 MSTORE PUSH1 0x20 ADD PUSH1 0x0 KECCAK256 PUSH1 0x0 DUP3 ADD MLOAD DUP2 PUSH1 0x0 ADD SWAP1 DUP2 PUSH2 0x23D SWAP2 SWAP1 PUSH2 0xFA1 JUMP JUMPDEST POP PUSH1 0x20 DUP3 ADD MLOAD DUP2 PUSH1 0x1 ADD PUSH1 0x0 PUSH2 0x100 EXP DUP2 SLOAD DUP2 PUSH1 0xFF MUL NOT AND SWAP1 DUP4 ISZERO ISZERO MUL OR SWAP1 SSTORE POP SWAP1 POP POP CALLER PUSH20 0xFFFFFFFFFFFFFFFFFFFFFFFFFFFFFFFFFFFFFFFF AND PUSH32 0x56A1A2764A85C689329FBC04F299B64690A26B1DC5AC82E903CF8AD805CD5396 DUP3 PUSH1 0x40 MLOAD PUSH2 0x2A7 SWAP2 SWAP1 PUSH2 0xC91 JUMP JUMPDEST PUSH1 0x40 MLOAD DUP1 SWAP2 SUB SWAP1 LOG2 POP JUMP JUMPDEST PUSH1 0x0 DUP1 CALLER PUSH20 0xFFFFFFFFFFFFFFFFFFFFFFFFFFFFFFFFFFFFFFFF AND PUSH20 0xFFFFFFFFFFFFFFFFFFFFFFFFFFFFFFFFFFFFFFFF AND DUP2 MSTORE PUSH1 0x20 ADD SWAP1 DUP2 MSTORE PUSH1 0x20 ADD PUSH1 0x0 KECCAK256 PUSH1 0x1 ADD PUSH1 0x0 SWAP1 SLOAD SWAP1 PUSH2 0x100 EXP SWAP1 DIV PUSH1 0xFF AND PUSH2 0x340 JUMPI PUSH1 0x40 MLOAD PUSH32 0x8C379A000000000000000000000000000000000000000000000000000000000 DUP2 MSTORE PUSH1 0x4 ADD PUSH2 0x337 SWAP1 PUSH2 0x10BF JUMP JUMPDEST PUSH1 0x40 MLOAD DUP1 SWAP2 SUB SWAP1 REVERT JUMPDEST PUSH1 0x40 MLOAD DUP1 PUSH1 0x40 ADD PUSH1 0x40 MSTORE DUP1 PUSH1 0x40 MLOAD DUP1 PUSH1 0x20 ADD PUSH1 0x40 MSTORE DUP1 PUSH1 0x0 DUP2 MSTORE POP DUP2 MSTORE PUSH1 0x20 ADD PUSH1 0x0 ISZERO ISZERO DUP2 MSTORE POP PUSH1 0x0 DUP1 CALLER PUSH20 0xFFFFFFFFFFFFFFFFFFFFFFFFFFFFFFFFFFFFFFFF AND PUSH20 0xFFFFFFFFFFFFFFFFFFFFFFFFFFFFFFFFFFFFFFFF AND DUP2 MSTORE PUSH1 0x20 ADD SWAP1 DUP2 MSTORE PUSH1 0x20 ADD PUSH1 0x0 KECCAK256 PUSH1 0x0 DUP3 ADD MLOAD DUP2 PUSH1 0x0 ADD SWAP1 DUP2 PUSH2 0x3BA SWAP2 SWAP1 PUSH2 0xFA1 JUMP JUMPDEST POP PUSH1 0x20 DUP3 ADD MLOAD DUP2 PUSH1 0x1 ADD PUSH1 0x0 PUSH2 0x100 EXP DUP2 SLOAD DUP2 PUSH1 0xFF MUL NOT AND SWAP1 DUP4 ISZERO ISZERO MUL OR SWAP1 SSTORE POP SWAP1 POP POP CALLER PUSH20 0xFFFFFFFFFFFFFFFFFFFFFFFFFFFFFFFFFFFFFFFF AND PUSH32 0xD535C2E59A2F16F058B1B296BEF26CC2579FFC7F69AAF7B53F536943CB6A7543 PUSH1 0x40 MLOAD PUSH1 0x40 MLOAD DUP1 SWAP2 SUB SWAP1 LOG2 JUMP JUMPDEST PUSH1 0x0 PUSH1 0x20 MSTORE DUP1 PUSH1 0x0 MSTORE PUSH1 0x40 PUSH1 0x0 KECCAK256 PUSH1 0x0 SWAP2 POP SWAP1 POP DUP1 PUSH1 0x0 ADD DUP1 SLOAD PUSH2 0x446 SWAP1 PUSH2 0xDBA JUMP JUMPDEST DUP1 PUSH1 0x1F ADD PUSH1 0x20 DUP1 SWAP2 DIV MUL PUSH1 0x20 ADD PUSH1 0x40 MLOAD SWAP1 DUP2 ADD PUSH1 0x40 MSTORE DUP1 SWAP3 SWAP2 SWAP1 DUP2 DUP2 MSTORE PUSH1 0x20 ADD DUP3 DUP1 SLOAD PUSH2 0x472 SWAP1 PUSH2 0xDBA JUMP JUMPDEST DUP1 ISZERO PUSH2 0x4BF JUMPI DUP1 PUSH1 0x1F LT PUSH2 0x494 JUMPI PUSH2 0x100 DUP1 DUP4 SLOAD DIV MUL DUP4 MSTORE SWAP2 PUSH1 0x20 ADD SWAP2 PUSH2 0x4BF JUMP JUMPDEST DUP3 ADD SWAP2 SWAP1 PUSH1 0x0 MSTORE PUSH1 0x20 PUSH1 0x0 KECCAK256 SWAP1 JUMPDEST DUP2 SLOAD DUP2 MSTORE SWAP1 PUSH1 0x1 ADD SWAP1 PUSH1 0x20 ADD DUP1 DUP4 GT PUSH2 0x4A2 JUMPI DUP3 SWAP1 SUB PUSH1 0x1F AND DUP3 ADD SWAP2 JUMPDEST POP POP POP POP POP SWAP1 DUP1 PUSH1 0x1 ADD PUSH1 0x0 SWAP1 SLOAD SWAP1 PUSH2 0x100 EXP SWAP1 DIV PUSH1 0xFF AND SWAP1 POP DUP3 JUMP JUMPDEST PUSH1 0x0 DUP1 PUSH1 0x0 CALLER PUSH20 0xFFFFFFFFFFFFFFFFFFFFFFFFFFFFFFFFFFFFFFFF AND PUSH20 0xFFFFFFFFFFFFFFFFFFFFFFFFFFFFFFFFFFFFFFFF AND DUP2 MSTORE PUSH1 0x20 ADD SWAP1 DUP2 MSTORE PUSH1 0x20 ADD PUSH1 0x0 KECCAK256 PUSH1 0x40 MLOAD DUP1 PUSH1 0x40 ADD PUSH1 0x40 MSTORE SWAP1 DUP2 PUSH1 0x0 DUP3 ADD DUP1 SLOAD PUSH2 0x537 SWAP1 PUSH2 0xDBA JUMP JUMPDEST DUP1 PUSH1 0x1F ADD PUSH1 0x20 DUP1 SWAP2 DIV MUL PUSH1 0x20 ADD PUSH1 0x40 MLOAD SWAP1 DUP2 ADD PUSH1 0x40 MSTORE DUP1 SWAP3 SWAP2 SWAP1 DUP2 DUP2 MSTORE PUSH1 0x20 ADD DUP3 DUP1 SLOAD PUSH2 0x563 SWAP1 PUSH2 0xDBA JUMP JUMPDEST DUP1 ISZERO PUSH2 0x5B0 JUMPI DUP1 PUSH1 0x1F LT PUSH2 0x585 JUMPI PUSH2 0x100 DUP1 DUP4 SLOAD DIV MUL DUP4 MSTORE SWAP2 PUSH1 0x20 ADD SWAP2 PUSH2 0x5B0 JUMP JUMPDEST DUP3 ADD SWAP2 SWAP1 PUSH1 0x0 MSTORE PUSH1 0x20 PUSH1 0x0 KECCAK256 SWAP1 JUMPDEST DUP2 SLOAD DUP2 MSTORE SWAP1 PUSH1 0x1 ADD SWAP1 PUSH1 0x20 ADD DUP1 DUP4 GT PUSH2 0x593 JUMPI DUP3 SWAP1 SUB PUSH1 0x1F AND DUP3 ADD SWAP2 JUMPDEST POP POP POP POP POP DUP2 MSTORE PUSH1 0x20 ADD PUSH1 0x1 DUP3 ADD PUSH1 0x0 SWAP1 SLOAD SWAP1 PUSH2 0x100 EXP SWAP1 DIV PUSH1 0xFF AND ISZERO ISZERO ISZERO ISZERO DUP2 MSTORE POP POP SWAP1 POP DUP1 PUSH1 0x20 ADD MLOAD PUSH2 0x61A JUMPI PUSH1 0x40 MLOAD PUSH32 0x8C379A000000000000000000000000000000000000000000000000000000000 DUP2 MSTORE PUSH1 0x4 ADD PUSH2 0x611 SWAP1 PUSH2 0x10BF JUMP JUMPDEST PUSH1 0x40 MLOAD DUP1 SWAP2 SUB SWAP1 REVERT JUMPDEST PUSH1 0x0 DUP1 DUP4 PUSH20 0xFFFFFFFFFFFFFFFFFFFFFFFFFFFFFFFFFFFFFFFF AND PUSH20 0xFFFFFFFFFFFFFFFFFFFFFFFFFFFFFFFFFFFFFFFF AND DUP2 MSTORE PUSH1 0x20 ADD SWAP1 DUP2 MSTORE PUSH1 0x20 ADD PUSH1 0x0 KECCAK256 PUSH1 0x1 ADD PUSH1 0x0 SWAP1 SLOAD SWAP1 PUSH2 0x100 EXP SWAP1 DIV PUSH1 0xFF AND ISZERO PUSH2 0x6A9 JUMPI PUSH1 0x40 MLOAD PUSH32 0x8C379A000000000000000000000000000000000000000000000000000000000 DUP2 MSTORE PUSH1 0x4 ADD PUSH2 0x6A0 SWAP1 PUSH2 0x1151 JUMP JUMPDEST PUSH1 0x40 MLOAD DUP1 SWAP2 SUB SWAP1 REVERT JUMPDEST PUSH1 0x40 MLOAD DUP1 PUSH1 0x40 ADD PUSH1 0x40 MSTORE DUP1 DUP3 PUSH1 0x0 ADD MLOAD DUP2 MSTORE PUSH1 0x20 ADD PUSH1 0x1 ISZERO ISZERO DUP2 MSTORE POP PUSH1 0x0 DUP1 DUP5 PUSH20 0xFFFFFFFFFFFFFFFFFFFFFFFFFFFFFFFFFFFFFFFF AND PUSH20 0xFFFFFFFFFFFFFFFFFFFFFFFFFFFFFFFFFFFFFFFF AND DUP2 MSTORE PUSH1 0x20 ADD SWAP1 DUP2 MSTORE PUSH1 0x20 ADD PUSH1 0x0 KECCAK256 PUSH1 0x0 DUP3 ADD MLOAD DUP2 PUSH1 0x0 ADD SWAP1 DUP2 PUSH2 0x718 SWAP2 SWAP1 PUSH2 0xFA1 JUMP JUMPDEST POP PUSH1 0x20 DUP3 ADD MLOAD DUP2 PUSH1 0x1 ADD PUSH1 0x0 PUSH2 0x100 EXP DUP2 SLOAD DUP2 PUSH1 0xFF MUL NOT AND SWAP1 DUP4 ISZERO ISZERO MUL OR SWAP1 SSTORE POP SWAP1 POP POP PUSH1 0x40 MLOAD DUP1 PUSH1 0x40 ADD PUSH1 0x40 MSTORE DUP1 PUSH1 0x40 MLOAD DUP1 PUSH1 0x20 ADD PUSH1 0x40 MSTORE DUP1 PUSH1 0x0 DUP2 MSTORE POP DUP2 MSTORE PUSH1 0x20 ADD PUSH1 0x0 ISZERO ISZERO DUP2 MSTORE POP PUSH1 0x0 DUP1 CALLER PUSH20 0xFFFFFFFFFFFFFFFFFFFFFFFFFFFFFFFFFFFFFFFF AND PUSH20 0xFFFFFFFFFFFFFFFFFFFFFFFFFFFFFFFFFFFFFFFF AND DUP2 MSTORE PUSH1 0x20 ADD SWAP1 DUP2 MSTORE PUSH1 0x20 ADD PUSH1 0x0 KECCAK256 PUSH1 0x0 DUP3 ADD MLOAD DUP2 PUSH1 0x0 ADD SWAP1 DUP2 PUSH2 0x7B6 SWAP2 SWAP1 PUSH2 0xFA1 JUMP JUMPDEST POP PUSH1 0x20 DUP3 ADD MLOAD DUP2 PUSH1 0x1 ADD PUSH1 0x0 PUSH2 0x100 EXP DUP2 SLOAD DUP2 PUSH1 0xFF MUL NOT AND SWAP1 DUP4 ISZERO ISZERO MUL OR SWAP1 SSTORE POP SWAP1 POP POP DUP2 PUSH20 0xFFFFFFFFFFFFFFFFFFFFFFFFFFFFFFFFFFFFFFFF AND CALLER PUSH20 0xFFFFFFFFFFFFFFFFFFFFFFFFFFFFFFFFFFFFFFFF AND PUSH32 0x61CE72876DF632C9CEA54F37E843A14873BC9A7ABD2F79797A8A00E467081F3C DUP4 PUSH1 0x0 ADD MLOAD PUSH1 0x40 MLOAD PUSH2 0x83B SWAP2 SWAP1 PUSH2 0xC91 JUMP JUMPDEST PUSH1 0x40 MLOAD DUP1 SWAP2 SUB SWAP1 LOG3 POP POP JUMP JUMPDEST PUSH1 0x60 PUSH1 0x0 DUP1 PUSH1 0x0 DUP5 PUSH20 0xFFFFFFFFFFFFFFFFFFFFFFFFFFFFFFFFFFFFFFFF AND PUSH20 0xFFFFFFFFFFFFFFFFFFFFFFFFFFFFFFFFFFFFFFFF AND DUP2 MSTORE PUSH1 0x20 ADD SWAP1 DUP2 MSTORE PUSH1 0x20 ADD PUSH1 0x0 KECCAK256 PUSH1 0x40 MLOAD DUP1 PUSH1 0x40 ADD PUSH1 0x40 MSTORE SWAP1 DUP2 PUSH1 0x0 DUP3 ADD DUP1 SLOAD PUSH2 0x8A4 SWAP1 PUSH2 0xDBA JUMP JUMPDEST DUP1 PUSH1 0x1F ADD PUSH1 0x20 DUP1 SWAP2 DIV MUL PUSH1 0x20 ADD PUSH1 0x40 MLOAD SWAP1 DUP2 ADD PUSH1 0x40 MSTORE DUP1 SWAP3 SWAP2 SWAP1 DUP2 DUP2 MSTORE PUSH1 0x20 ADD DUP3 DUP1 SLOAD PUSH2 0x8D0 SWAP1 PUSH2 0xDBA JUMP JUMPDEST DUP1 ISZERO PUSH2 0x91D JUMPI DUP1 PUSH1 0x1F LT PUSH2 0x8F2 JUMPI PUSH2 0x100 DUP1 DUP4 SLOAD DIV MUL DUP4 MSTORE SWAP2 PUSH1 0x20 ADD SWAP2 PUSH2 0x91D JUMP JUMPDEST DUP3 ADD SWAP2 SWAP1 PUSH1 0x0 MSTORE PUSH1 0x20 PUSH1 0x0 KECCAK256 SWAP1 JUMPDEST DUP2 SLOAD DUP2 MSTORE SWAP1 PUSH1 0x1 ADD SWAP1 PUSH1 0x20 ADD DUP1 DUP4 GT PUSH2 0x900 JUMPI DUP3 SWAP1 SUB PUSH1 0x1F AND DUP3 ADD SWAP2 JUMPDEST POP POP POP POP POP DUP2 MSTORE PUSH1 0x20 ADD PUSH1 0x1 DUP3 ADD PUSH1 0x0 SWAP1 SLOAD SWAP1 PUSH2 0x100 EXP SWAP1 DIV PUSH1 0xFF AND ISZERO ISZERO ISZERO ISZERO DUP2 MSTORE POP POP SWAP1 POP DUP1 PUSH1 0x20 ADD MLOAD ISZERO PUSH2 0x95A JUMPI DUP1 PUSH1 0x0 ADD MLOAD SWAP2 POP POP PUSH2 0x994 JUMP JUMPDEST PUSH1 0x40 MLOAD DUP1 PUSH1 0x40 ADD PUSH1 0x40 MSTORE DUP1 PUSH1 0x9 DUP2 MSTORE PUSH1 0x20 ADD PUSH32 0x6E6F7420666F756E640000000000000000000000000000000000000000000000 DUP2 MSTORE POP SWAP2 POP POP JUMPDEST SWAP2 SWAP1 POP JUMP JUMPDEST PUSH1 0x0 PUSH1 0x40 MLOAD SWAP1 POP SWAP1 JUMP JUMPDEST PUSH1 0x0 DUP1 REVERT JUMPDEST PUSH1 0x0 DUP1 REVERT JUMPDEST PUSH1 0x0 DUP1 REVERT JUMPDEST PUSH1 0x0 DUP1 REVERT JUMPDEST PUSH1 0x0 PUSH1 0x1F NOT PUSH1 0x1F DUP4 ADD AND SWAP1 POP SWAP2 SWAP1 POP JUMP JUMPDEST PUSH32 0x4E487B7100000000000000000000000000000000000000000000000000000000 PUSH1 0x0 MSTORE PUSH1 0x41 PUSH1 0x4 MSTORE PUSH1 0x24 PUSH1 0x0 REVERT JUMPDEST PUSH2 0xA00 DUP3 PUSH2 0x9B7 JUMP JUMPDEST DUP2 ADD DUP2 DUP2 LT PUSH8 0xFFFFFFFFFFFFFFFF DUP3 GT OR ISZERO PUSH2 0xA1F JUMPI PUSH2 0xA1E PUSH2 0x9C8 JUMP JUMPDEST JUMPDEST DUP1 PUSH1 0x40 MSTORE POP POP POP JUMP JUMPDEST PUSH1 0x0 PUSH2 0xA32 PUSH2 0x999 JUMP JUMPDEST SWAP1 POP PUSH2 0xA3E DUP3 DUP3 PUSH2 0x9F7 JUMP JUMPDEST SWAP2 SWAP1 POP JUMP JUMPDEST PUSH1 0x0 PUSH8 0xFFFFFFFFFFFFFFFF DUP3 GT ISZERO PUSH2 0xA5E JUMPI PUSH2 0xA5D PUSH2 0x9C8 JUMP JUMPDEST JUMPDEST PUSH2 0xA67 DUP3 PUSH2 0x9B7 JUMP JUMPDEST SWAP1 POP PUSH1 0x20 DUP2 ADD SWAP1 POP SWAP2 SWAP1 POP JUMP JUMPDEST DUP3 DUP2 DUP4 CALLDATACOPY PUSH1 0x0 DUP4 DUP4 ADD MSTORE POP POP POP JUMP JUMPDEST PUSH1 0x0 PUSH2 0xA96 PUSH2 0xA91 DUP5 PUSH2 0xA43 JUMP JUMPDEST PUSH2 0xA28 JUMP JUMPDEST SWAP1 POP DUP3 DUP2 MSTORE PUSH1 0x20 DUP2 ADD DUP5 DUP5 DUP5 ADD GT ISZERO PUSH2 0xAB2 JUMPI PUSH2 0xAB1 PUSH2 0x9B2 JUMP JUMPDEST JUMPDEST PUSH2 0xABD DUP5 DUP3 DUP6 PUSH2 0xA74 JUMP JUMPDEST POP SWAP4 SWAP3 POP POP POP JUMP JUMPDEST PUSH1 0x0 DUP3 PUSH1 0x1F DUP4 ADD SLT PUSH2 0xADA JUMPI PUSH2 0xAD9 PUSH2 0x9AD JUMP JUMPDEST JUMPDEST DUP2 CALLDATALOAD PUSH2 0xAEA DUP5 DUP3 PUSH1 0x20 DUP7 ADD PUSH2 0xA83 JUMP JUMPDEST SWAP2 POP POP SWAP3 SWAP2 POP POP JUMP JUMPDEST PUSH1 0x0 PUSH1 0x20 DUP3 DUP5 SUB SLT ISZERO PUSH2 0xB09 JUMPI PUSH2 0xB08 PUSH2 0x9A3 JUMP JUMPDEST JUMPDEST PUSH1 0x0 DUP3 ADD CALLDATALOAD PUSH8 0xFFFFFFFFFFFFFFFF DUP2 GT ISZERO PUSH2 0xB27 JUMPI PUSH2 0xB26 PUSH2 0x9A8 JUMP JUMPDEST JUMPDEST PUSH2 0xB33 DUP5 DUP3 DUP6 ADD PUSH2 0xAC5 JUMP JUMPDEST SWAP2 POP POP SWAP3 SWAP2 POP POP JUMP JUMPDEST PUSH1 0x0 PUSH20 0xFFFFFFFFFFFFFFFFFFFFFFFFFFFFFFFFFFFFFFFF DUP3 AND SWAP1 POP SWAP2 SWAP1 POP JUMP JUMPDEST PUSH1 0x0 PUSH2 0xB67 DUP3 PUSH2 0xB3C JUMP JUMPDEST SWAP1 POP SWAP2 SWAP1 POP JUMP JUMPDEST PUSH2 0xB77 DUP2 PUSH2 0xB5C JUMP JUMPDEST DUP2 EQ PUSH2 0xB82 JUMPI PUSH1 0x0 DUP1 REVERT JUMPDEST POP JUMP JUMPDEST PUSH1 0x0 DUP2 CALLDATALOAD SWAP1 POP PUSH2 0xB94 DUP2 PUSH2 0xB6E JUMP JUMPDEST SWAP3 SWAP2 POP POP JUMP JUMPDEST PUSH1 0x0 PUSH1 0x20 DUP3 DUP5 SUB SLT ISZERO PUSH2 0xBB0 JUMPI PUSH2 0xBAF PUSH2 0x9A3 JUMP JUMPDEST JUMPDEST PUSH1 0x0 PUSH2 0xBBE DUP5 DUP3 DUP6 ADD PUSH2 0xB85 JUMP JUMPDEST SWAP2 POP POP SWAP3 SWAP2 POP POP JUMP JUMPDEST PUSH1 0x0 DUP2 MLOAD SWAP1 POP SWAP2 SWAP1 POP JUMP JUMPDEST PUSH1 0x0 DUP3 DUP3 MSTORE PUSH1 0x20 DUP3 ADD SWAP1 POP SWAP3 SWAP2 POP POP JUMP JUMPDEST PUSH1 0x0 JUMPDEST DUP4 DUP2 LT ISZERO PUSH2 0xC01 JUMPI DUP1 DUP3 ADD MLOAD DUP2 DUP5 ADD MSTORE PUSH1 0x20 DUP2 ADD SWAP1 POP PUSH2 0xBE6 JUMP JUMPDEST PUSH1 0x0 DUP5 DUP5 ADD MSTORE POP POP POP POP JUMP JUMPDEST PUSH1 0x0 PUSH2 0xC18 DUP3 PUSH2 0xBC7 JUMP JUMPDEST PUSH2 0xC22 DUP2 DUP6 PUSH2 0xBD2 JUMP JUMPDEST SWAP4 POP PUSH2 0xC32 DUP2 DUP6 PUSH1 0x20 DUP7 ADD PUSH2 0xBE3 JUMP JUMPDEST PUSH2 0xC3B DUP2 PUSH2 0x9B7 JUMP JUMPDEST DUP5 ADD SWAP2 POP POP SWAP3 SWAP2 POP POP JUMP JUMPDEST PUSH1 0x0 DUP2 ISZERO ISZERO SWAP1 POP SWAP2 SWAP1 POP JUMP JUMPDEST PUSH2 0xC5B DUP2 PUSH2 0xC46 JUMP JUMPDEST DUP3 MSTORE POP POP JUMP JUMPDEST PUSH1 0x0 PUSH1 0x40 DUP3 ADD SWAP1 POP DUP2 DUP2 SUB PUSH1 0x0 DUP4 ADD MSTORE PUSH2 0xC7B DUP2 DUP6 PUSH2 0xC0D JUMP JUMPDEST SWAP1 POP PUSH2 0xC8A PUSH1 0x20 DUP4 ADD DUP5 PUSH2 0xC52 JUMP JUMPDEST SWAP4 SWAP3 POP POP POP JUMP JUMPDEST PUSH1 0x0 PUSH1 0x20 DUP3 ADD SWAP1 POP DUP2 DUP2 SUB PUSH1 0x0 DUP4 ADD MSTORE PUSH2 0xCAB DUP2 DUP5 PUSH2 0xC0D JUMP JUMPDEST SWAP1 POP SWAP3 SWAP2 POP POP JUMP JUMPDEST PUSH32 0x4E616D652073686F756C64206E6F7420626520656D7074790000000000000000 PUSH1 0x0 DUP3 ADD MSTORE POP JUMP JUMPDEST PUSH1 0x0 PUSH2 0xCE9 PUSH1 0x18 DUP4 PUSH2 0xBD2 JUMP JUMPDEST SWAP2 POP PUSH2 0xCF4 DUP3 PUSH2 0xCB3 JUMP JUMPDEST PUSH1 0x20 DUP3 ADD SWAP1 POP SWAP2 SWAP1 POP JUMP JUMPDEST PUSH1 0x0 PUSH1 0x20 DUP3 ADD SWAP1 POP DUP2 DUP2 SUB PUSH1 0x0 DUP4 ADD MSTORE PUSH2 0xD18 DUP2 PUSH2 0xCDC JUMP JUMPDEST SWAP1 POP SWAP2 SWAP1 POP JUMP JUMPDEST PUSH32 0x4164647265737320697320616C72656164792072656769737465726564000000 PUSH1 0x0 DUP3 ADD MSTORE POP JUMP JUMPDEST PUSH1 0x0 PUSH2 0xD55 PUSH1 0x1D DUP4 PUSH2 0xBD2 JUMP JUMPDEST SWAP2 POP PUSH2 0xD60 DUP3 PUSH2 0xD1F JUMP JUMPDEST PUSH1 0x20 DUP3 ADD SWAP1 POP SWAP2 SWAP1 POP JUMP JUMPDEST PUSH1 0x0 PUSH1 0x20 DUP3 ADD SWAP1 POP DUP2 DUP2 SUB PUSH1 0x0 DUP4 ADD MSTORE PUSH2 0xD84 DUP2 PUSH2 0xD48 JUMP JUMPDEST SWAP1 POP SWAP2 SWAP1 POP JUMP JUMPDEST PUSH32 0x4E487B7100000000000000000000000000000000000000000000000000000000 PUSH1 0x0 MSTORE PUSH1 0x22 PUSH1 0x4 MSTORE PUSH1 0x24 PUSH1 0x0 REVERT JUMPDEST PUSH1 0x0 PUSH1 0x2 DUP3 DIV SWAP1 POP PUSH1 0x1 DUP3 AND DUP1 PUSH2 0xDD2 JUMPI PUSH1 0x7F DUP3 AND SWAP2 POP JUMPDEST PUSH1 0x20 DUP3 LT DUP2 SUB PUSH2 0xDE5 JUMPI PUSH2 0xDE4 PUSH2 0xD8B JUMP JUMPDEST JUMPDEST POP SWAP2 SWAP1 POP JUMP JUMPDEST PUSH1 0x0 DUP2 SWAP1 POP DUP2 PUSH1 0x0 MSTORE PUSH1 0x20 PUSH1 0x0 KECCAK256 SWAP1 POP SWAP2 SWAP1 POP JUMP JUMPDEST PUSH1 0x0 PUSH1 0x20 PUSH1 0x1F DUP4 ADD DIV SWAP1 POP SWAP2 SWAP1 POP JUMP JUMPDEST PUSH1 0x0 DUP3 DUP3 SHL SWAP1 POP SWAP3 SWAP2 POP POP JUMP JUMPDEST PUSH1 0x0 PUSH1 0x8 DUP4 MUL PUSH2 0xE4D PUSH32 0xFFFFFFFFFFFFFFFFFFFFFFFFFFFFFFFFFFFFFFFFFFFFFFFFFFFFFFFFFFFFFFFF DUP3 PUSH2 0xE10 JUMP JUMPDEST PUSH2 0xE57 DUP7 DUP4 PUSH2 0xE10 JUMP JUMPDEST SWAP6 POP DUP1 NOT DUP5 AND SWAP4 POP DUP1 DUP7 AND DUP5 OR SWAP3 POP POP POP SWAP4 SWAP3 POP POP POP JUMP JUMPDEST PUSH1 0x0 DUP2 SWAP1 POP SWAP2 SWAP1 POP JUMP JUMPDEST PUSH1 0x0 DUP2 SWAP1 POP SWAP2 SWAP1 POP JUMP JUMPDEST PUSH1 0x0 PUSH2 0xE9E PUSH2 0xE99 PUSH2 0xE94 DUP5 PUSH2 0xE6F JUMP JUMPDEST PUSH2 0xE79 JUMP JUMPDEST PUSH2 0xE6F JUMP JUMPDEST SWAP1 POP SWAP2 SWAP1 POP JUMP JUMPDEST PUSH1 0x0 DUP2 SWAP1 POP SWAP2 SWAP1 POP JUMP JUMPDEST PUSH2 0xEB8 DUP4 PUSH2 0xE83 JUMP JUMPDEST PUSH2 0xECC PUSH2 0xEC4 DUP3 PUSH2 0xEA5 JUMP JUMPDEST DUP5 DUP5 SLOAD PUSH2 0xE1D JUMP JUMPDEST DUP3 SSTORE POP POP POP POP JUMP JUMPDEST PUSH1 0x0 SWAP1 JUMP JUMPDEST PUSH2 0xEE1 PUSH2 0xED4 JUMP JUMPDEST PUSH2 0xEEC DUP2 DUP5 DUP5 PUSH2 0xEAF JUMP JUMPDEST POP POP POP JUMP JUMPDEST JUMPDEST DUP2 DUP2 LT ISZERO PUSH2 0xF10 JUMPI PUSH2 0xF05 PUSH1 0x0 DUP3 PUSH2 0xED9 JUMP JUMPDEST PUSH1 0x1 DUP2 ADD SWAP1 POP PUSH2 0xEF2 JUMP JUMPDEST POP POP JUMP JUMPDEST PUSH1 0x1F DUP3 GT ISZERO PUSH2 0xF55 JUMPI PUSH2 0xF26 DUP2 PUSH2 0xDEB JUMP JUMPDEST PUSH2 0xF2F DUP5 PUSH2 0xE00 JUMP JUMPDEST DUP2 ADD PUSH1 0x20 DUP6 LT ISZERO PUSH2 0xF3E JUMPI DUP2 SWAP1 POP JUMPDEST PUSH2 0xF52 PUSH2 0xF4A DUP6 PUSH2 0xE00 JUMP JUMPDEST DUP4 ADD DUP3 PUSH2 0xEF1 JUMP JUMPDEST POP POP JUMPDEST POP POP POP JUMP JUMPDEST PUSH1 0x0 DUP3 DUP3 SHR SWAP1 POP SWAP3 SWAP2 POP POP JUMP JUMPDEST PUSH1 0x0 PUSH2 0xF78 PUSH1 0x0 NOT DUP5 PUSH1 0x8 MUL PUSH2 0xF5A JUMP JUMPDEST NOT DUP1 DUP4 AND SWAP2 POP POP SWAP3 SWAP2 POP POP JUMP JUMPDEST PUSH1 0x0 PUSH2 0xF91 DUP4 DUP4 PUSH2 0xF67 JUMP JUMPDEST SWAP2 POP DUP3 PUSH1 0x2 MUL DUP3 OR SWAP1 POP SWAP3 SWAP2 POP POP JUMP JUMPDEST PUSH2 0xFAA DUP3 PUSH2 0xBC7 JUMP JUMPDEST PUSH8 0xFFFFFFFFFFFFFFFF DUP2 GT ISZERO PUSH2 0xFC3 JUMPI PUSH2 0xFC2 PUSH2 0x9C8 JUMP JUMPDEST JUMPDEST PUSH2 0xFCD DUP3 SLOAD PUSH2 0xDBA JUMP JUMPDEST PUSH2 0xFD8 DUP3 DUP3 DUP6 PUSH2 0xF14 JUMP JUMPDEST PUSH1 0x0 PUSH1 0x20 SWAP1 POP PUSH1 0x1F DUP4 GT PUSH1 0x1 DUP2 EQ PUSH2 0x100B JUMPI PUSH1 0x0 DUP5 ISZERO PUSH2 0xFF9 JUMPI DUP3 DUP8 ADD MLOAD SWAP1 POP JUMPDEST PUSH2 0x1003 DUP6 DUP3 PUSH2 0xF85 JUMP JUMPDEST DUP7 SSTORE POP PUSH2 0x106B JUMP JUMPDEST PUSH1 0x1F NOT DUP5 AND PUSH2 0x1019 DUP7 PUSH2 0xDEB JUMP JUMPDEST PUSH1 0x0 JUMPDEST DUP3 DUP2 LT ISZERO PUSH2 0x1041 JUMPI DUP5 DUP10 ADD MLOAD DUP3 SSTORE PUSH1 0x1 DUP3 ADD SWAP2 POP PUSH1 0x20 DUP6 ADD SWAP5 POP PUSH1 0x20 DUP2 ADD SWAP1 POP PUSH2 0x101C JUMP JUMPDEST DUP7 DUP4 LT ISZERO PUSH2 0x105E JUMPI DUP5 DUP10 ADD MLOAD PUSH2 0x105A PUSH1 0x1F DUP10 AND DUP3 PUSH2 0xF67 JUMP JUMPDEST DUP4 SSTORE POP JUMPDEST PUSH1 0x1 PUSH1 0x2 DUP9 MUL ADD DUP9 SSTORE POP POP POP JUMPDEST POP POP POP POP POP POP JUMP JUMPDEST PUSH32 0x41646472657373206973206E6F74207265676973746572656400000000000000 PUSH1 0x0 DUP3 ADD MSTORE POP JUMP JUMPDEST PUSH1 0x0 PUSH2 0x10A9 PUSH1 0x19 DUP4 PUSH2 0xBD2 JUMP JUMPDEST SWAP2 POP PUSH2 0x10B4 DUP3 PUSH2 0x1073 JUMP JUMPDEST PUSH1 0x20 DUP3 ADD SWAP1 POP SWAP2 SWAP1 POP JUMP JUMPDEST PUSH1 0x0 PUSH1 0x20 DUP3 ADD SWAP1 POP DUP2 DUP2 SUB PUSH1 0x0 DUP4 ADD MSTORE PUSH2 0x10D8 DUP2 PUSH2 0x109C JUMP JUMPDEST SWAP1 POP SWAP2 SWAP1 POP JUMP JUMPDEST PUSH32 0x4E6577206164647265737320697320616C726561647920726567697374657265 PUSH1 0x0 DUP3 ADD MSTORE PUSH32 0x6400000000000000000000000000000000000000000000000000000000000000 PUSH1 0x20 DUP3 ADD MSTORE POP JUMP JUMPDEST PUSH1 0x0 PUSH2 0x113B PUSH1 0x21 DUP4 PUSH2 0xBD2 JUMP JUMPDEST SWAP2 POP PUSH2 0x1146 DUP3 PUSH2 0x10DF JUMP JUMPDEST PUSH1 0x40 DUP3 ADD SWAP1 POP SWAP2 SWAP1 POP JUMP JUMPDEST PUSH1 0x0 PUSH1 0x20 DUP3 ADD SWAP1 POP DUP2 DUP2 SUB PUSH1 0x0 DUP4 ADD MSTORE PUSH2 0x116A DUP2 PUSH2 0x112E JUMP JUMPDEST SWAP1 POP SWAP2 SWAP1 POP JUMP INVALID LOG2 PUSH5 0x6970667358 0x22 SLT KECCAK256 CODECOPY TIMESTAMP 0xD7 LT 0x4C 0x2A PUSH10 0xEC0391AE48BF82AF6EA1 0x2E SWAP13 0xB0 LOG2 0xD2 BASEFEE SHL DUP3 BYTE 0x2C KECCAK256 DUP10 INVALID 0x4A PUSH17 0x64736F6C63430008120033000000000000 "
				},
				"gasEstimates": {
					"creation": {
						"codeDepositCost": "903800",
						"executionCost": "942",
						"totalCost": "904742"
					},
					"external": {
						"addressToProfile(address)": "infinite",
						"deregisterName()": "infinite",
						"getName(address)": "infinite",
						"registerName(string)": "infinite",
						"transferName(address)": "infinite"
					}
				},
				"methodIdentifiers": {
					"addressToProfile(address)": "0e7b29bf",
					"deregisterName()": "0d5fba83",
					"getName(address)": "5fd4b08a",
					"registerName(string)": "0830602b",
					"transferName(address)": "4ef8884b"
				}
			},
			"storageLayout": {
				"storage": [
					{
						"astId": 11,
						"contract": "contracts/userProfile2.sol:NameRegistry",
						"label": "addressToProfile",
						"offset": 0,
						"slot": "0",
						"type": "t_mapping(t_address,t_struct(UserProfile)6_storage)"
					}
				],
				"types": {
					"t_address": {
						"encoding": "inplace",
						"label": "address",
						"numberOfBytes": "20"
					},
					"t_bool": {
						"encoding": "inplace",
						"label": "bool",
						"numberOfBytes": "1"
					},
					"t_mapping(t_address,t_struct(UserProfile)6_storage)": {
						"encoding": "mapping",
						"key": "t_address",
						"label": "mapping(address => struct NameRegistry.UserProfile)",
						"numberOfBytes": "32",
						"value": "t_struct(UserProfile)6_storage"
					},
					"t_string_storage": {
						"encoding": "bytes",
						"label": "string",
						"numberOfBytes": "32"
					},
					"t_struct(UserProfile)6_storage": {
						"encoding": "inplace",
						"label": "struct NameRegistry.UserProfile",
						"members": [
							{
								"astId": 3,
								"contract": "contracts/userProfile2.sol:NameRegistry",
								"label": "userName",
								"offset": 0,
								"slot": "0",
								"type": "t_string_storage"
							},
							{
								"astId": 5,
								"contract": "contracts/userProfile2.sol:NameRegistry",
								"label": "registered",
								"offset": 0,
								"slot": "1",
								"type": "t_bool"
							}
						],
						"numberOfBytes": "64"
					}
				}
			},
			"userdoc": {
				"kind": "user",
				"methods": {},
				"version": 1
			}
		}
	}
}