{
	"contracts/AquoIntManager2.sol": {
		"MultiAssetManager": {
			"abi": [
				{
					"anonymous": false,
					"inputs": [
						{
							"indexed": true,
							"internalType": "address",
							"name": "previousOwner",
							"type": "address"
						},
						{
							"indexed": true,
							"internalType": "address",
							"name": "newOwner",
							"type": "address"
						}
					],
					"name": "OwnershipTransferred",
					"type": "event"
				},
				{
					"anonymous": false,
					"inputs": [
						{
							"indexed": true,
							"internalType": "uint256",
							"name": "assetId",
							"type": "uint256"
						},
						{
							"indexed": true,
							"internalType": "address",
							"name": "from",
							"type": "address"
						},
						{
							"indexed": true,
							"internalType": "address",
							"name": "to",
							"type": "address"
						},
						{
							"indexed": false,
							"internalType": "uint256",
							"name": "amount",
							"type": "uint256"
						}
					],
					"name": "TransferShares",
					"type": "event"
				},
				{
					"inputs": [
						{
							"internalType": "string",
							"name": "ipfsAddress",
							"type": "string"
						},
						{
							"internalType": "uint256",
							"name": "initialShares",
							"type": "uint256"
						}
					],
					"name": "addAsset",
					"outputs": [
						{
							"internalType": "uint256",
							"name": "",
							"type": "uint256"
						}
					],
					"stateMutability": "nonpayable",
					"type": "function"
				},
				{
					"inputs": [
						{
							"internalType": "uint256",
							"name": "",
							"type": "uint256"
						}
					],
					"name": "assetIds",
					"outputs": [
						{
							"internalType": "uint256",
							"name": "",
							"type": "uint256"
						}
					],
					"stateMutability": "view",
					"type": "function"
				},
				{
					"inputs": [
						{
							"internalType": "uint256",
							"name": "",
							"type": "uint256"
						}
					],
					"name": "assets",
					"outputs": [
						{
							"internalType": "string",
							"name": "ipfsAddress",
							"type": "string"
						},
						{
							"internalType": "uint256",
							"name": "totalShares",
							"type": "uint256"
						}
					],
					"stateMutability": "view",
					"type": "function"
				},
				{
					"inputs": [
						{
							"internalType": "uint256",
							"name": "assetId",
							"type": "uint256"
						},
						{
							"internalType": "address",
							"name": "user",
							"type": "address"
						}
					],
					"name": "balanceOf",
					"outputs": [
						{
							"internalType": "uint256",
							"name": "",
							"type": "uint256"
						}
					],
					"stateMutability": "view",
					"type": "function"
				},
				{
					"inputs": [],
					"name": "getAllAssetIds",
					"outputs": [
						{
							"internalType": "uint256[]",
							"name": "",
							"type": "uint256[]"
						}
					],
					"stateMutability": "view",
					"type": "function"
				},
				{
					"inputs": [],
					"name": "owner",
					"outputs": [
						{
							"internalType": "address",
							"name": "",
							"type": "address"
						}
					],
					"stateMutability": "view",
					"type": "function"
				},
				{
					"inputs": [],
					"name": "renounceOwnership",
					"outputs": [],
					"stateMutability": "nonpayable",
					"type": "function"
				},
				{
					"inputs": [
						{
							"internalType": "address",
							"name": "newOwner",
							"type": "address"
						}
					],
					"name": "transferOwnership",
					"outputs": [],
					"stateMutability": "nonpayable",
					"type": "function"
				},
				{
					"inputs": [
						{
							"internalType": "uint256",
							"name": "assetId",
							"type": "uint256"
						},
						{
							"internalType": "address",
							"name": "to",
							"type": "address"
						},
						{
							"internalType": "uint256",
							"name": "amount",
							"type": "uint256"
						}
					],
					"name": "transferShares",
					"outputs": [],
					"stateMutability": "nonpayable",
					"type": "function"
				}
			],
			"devdoc": {
				"kind": "dev",
				"methods": {
					"owner()": {
						"details": "Returns the address of the current owner."
					},
					"renounceOwnership()": {
						"details": "Leaves the contract without owner. It will not be possible to call `onlyOwner` functions anymore. Can only be called by the current owner. NOTE: Renouncing ownership will leave the contract without an owner, thereby removing any functionality that is only available to the owner."
					},
					"transferOwnership(address)": {
						"details": "Transfers ownership of the contract to a new account (`newOwner`). Can only be called by the current owner."
					}
				},
				"version": 1
			},
			"evm": {
				"assembly": "    /* \"contracts/AquoIntManager2.sol\":119:1624  contract MultiAssetManager is Ownable {... */\n  mstore(0x40, 0x80)\n    /* \"contracts/AquoIntManager2.sol\":336:337  1 */\n  0x01\n    /* \"contracts/AquoIntManager2.sol\":306:337  uint256 private nextAssetId = 1 */\n  dup1\n  sstore\n    /* \"contracts/AquoIntManager2.sol\":119:1624  contract MultiAssetManager is Ownable {... */\n  callvalue\n  dup1\n  iszero\n  tag_1\n  jumpi\n  0x00\n  dup1\n  revert\ntag_1:\n  pop\n    /* \"@openzeppelin/contracts/access/Ownable.sol\":936:968  _transferOwnership(_msgSender()) */\n  tag_4\n    /* \"@openzeppelin/contracts/access/Ownable.sol\":955:967  _msgSender() */\n  tag_5\n    /* \"@openzeppelin/contracts/access/Ownable.sol\":955:965  _msgSender */\n  shl(0x20, tag_6)\n    /* \"@openzeppelin/contracts/access/Ownable.sol\":955:967  _msgSender() */\n  0x20\n  shr\n  jump\t// in\ntag_5:\n    /* \"@openzeppelin/contracts/access/Ownable.sol\":936:954  _transferOwnership */\n  shl(0x20, tag_7)\n    /* \"@openzeppelin/contracts/access/Ownable.sol\":936:968  _transferOwnership(_msgSender()) */\n  0x20\n  shr\n  jump\t// in\ntag_4:\n    /* \"contracts/AquoIntManager2.sol\":119:1624  contract MultiAssetManager is Ownable {... */\n  jump(tag_8)\n    /* \"@openzeppelin/contracts/utils/Context.sol\":640:736  function _msgSender() internal view virtual returns (address) {... */\ntag_6:\n    /* \"@openzeppelin/contracts/utils/Context.sol\":693:700  address */\n  0x00\n    /* \"@openzeppelin/contracts/utils/Context.sol\":719:729  msg.sender */\n  caller\n    /* \"@openzeppelin/contracts/utils/Context.sol\":712:729  return msg.sender */\n  swap1\n  pop\n    /* \"@openzeppelin/contracts/utils/Context.sol\":640:736  function _msgSender() internal view virtual returns (address) {... */\n  swap1\n  jump\t// out\n    /* \"@openzeppelin/contracts/access/Ownable.sol\":2433:2620  function _transferOwnership(address newOwner) internal virtual {... */\ntag_7:\n    /* \"@openzeppelin/contracts/access/Ownable.sol\":2506:2522  address oldOwner */\n  0x00\n    /* \"@openzeppelin/contracts/access/Ownable.sol\":2525:2531  _owner */\n  dup1\n  0x00\n  swap1\n  sload\n  swap1\n  0x0100\n  exp\n  swap1\n  div\n  0xffffffffffffffffffffffffffffffffffffffff\n  and\n    /* \"@openzeppelin/contracts/access/Ownable.sol\":2506:2531  address oldOwner = _owner */\n  swap1\n  pop\n    /* \"@openzeppelin/contracts/access/Ownable.sol\":2550:2558  newOwner */\n  dup2\n    /* \"@openzeppelin/contracts/access/Ownable.sol\":2541:2547  _owner */\n  0x00\n  dup1\n    /* \"@openzeppelin/contracts/access/Ownable.sol\":2541:2558  _owner = newOwner */\n  0x0100\n  exp\n  dup2\n  sload\n  dup2\n  0xffffffffffffffffffffffffffffffffffffffff\n  mul\n  not\n  and\n  swap1\n  dup4\n  0xffffffffffffffffffffffffffffffffffffffff\n  and\n  mul\n  or\n  swap1\n  sstore\n  pop\n    /* \"@openzeppelin/contracts/access/Ownable.sol\":2604:2612  newOwner */\n  dup2\n    /* \"@openzeppelin/contracts/access/Ownable.sol\":2573:2613  OwnershipTransferred(oldOwner, newOwner) */\n  0xffffffffffffffffffffffffffffffffffffffff\n  and\n    /* \"@openzeppelin/contracts/access/Ownable.sol\":2594:2602  oldOwner */\n  dup2\n    /* \"@openzeppelin/contracts/access/Ownable.sol\":2573:2613  OwnershipTransferred(oldOwner, newOwner) */\n  0xffffffffffffffffffffffffffffffffffffffff\n  and\n  0x8be0079c531659141344cd1fd0a4f28419497f9722a3daafe3b4186f6b6457e0\n  mload(0x40)\n  mload(0x40)\n  dup1\n  swap2\n  sub\n  swap1\n  log3\n    /* \"@openzeppelin/contracts/access/Ownable.sol\":2496:2620  {... */\n  pop\n    /* \"@openzeppelin/contracts/access/Ownable.sol\":2433:2620  function _transferOwnership(address newOwner) internal virtual {... */\n  pop\n  jump\t// out\n    /* \"contracts/AquoIntManager2.sol\":119:1624  contract MultiAssetManager is Ownable {... */\ntag_8:\n  dataSize(sub_0)\n  dup1\n  dataOffset(sub_0)\n  0x00\n  codecopy\n  0x00\n  return\nstop\n\nsub_0: assembly {\n        /* \"contracts/AquoIntManager2.sol\":119:1624  contract MultiAssetManager is Ownable {... */\n      mstore(0x40, 0x80)\n      callvalue\n      dup1\n      iszero\n      tag_1\n      jumpi\n      0x00\n      dup1\n      revert\n    tag_1:\n      pop\n      jumpi(tag_2, lt(calldatasize, 0x04))\n      shr(0xe0, calldataload(0x00))\n      dup1\n      0x87541ed6\n      gt\n      tag_12\n      jumpi\n      dup1\n      0x87541ed6\n      eq\n      tag_7\n      jumpi\n      dup1\n      0x8da5cb5b\n      eq\n      tag_8\n      jumpi\n      dup1\n      0xcf35bdd0\n      eq\n      tag_9\n      jumpi\n      dup1\n      0xe122f907\n      eq\n      tag_10\n      jumpi\n      dup1\n      0xf2fde38b\n      eq\n      tag_11\n      jumpi\n      jump(tag_2)\n    tag_12:\n      dup1\n      0x1bc7ffe9\n      eq\n      tag_3\n      jumpi\n      dup1\n      0x3656eec2\n      eq\n      tag_4\n      jumpi\n      dup1\n      0x715018a6\n      eq\n      tag_5\n      jumpi\n      dup1\n      0x84b9a6e6\n      eq\n      tag_6\n      jumpi\n    tag_2:\n      0x00\n      dup1\n      revert\n        /* \"contracts/AquoIntManager2.sol\":458:886  function addAsset(string memory ipfsAddress, uint256 initialShares) public onlyOwner returns (uint256) {... */\n    tag_3:\n      tag_13\n      0x04\n      dup1\n      calldatasize\n      sub\n      dup2\n      add\n      swap1\n      tag_14\n      swap2\n      swap1\n      tag_15\n      jump\t// in\n    tag_14:\n      tag_16\n      jump\t// in\n    tag_13:\n      mload(0x40)\n      tag_17\n      swap2\n      swap1\n      tag_18\n      jump\t// in\n    tag_17:\n      mload(0x40)\n      dup1\n      swap2\n      sub\n      swap1\n      return\n        /* \"contracts/AquoIntManager2.sol\":894:1035  function balanceOf(uint256 assetId, address user) public view returns (uint256) {... */\n    tag_4:\n      tag_19\n      0x04\n      dup1\n      calldatasize\n      sub\n      dup2\n      add\n      swap1\n      tag_20\n      swap2\n      swap1\n      tag_21\n      jump\t// in\n    tag_20:\n      tag_22\n      jump\t// in\n    tag_19:\n      mload(0x40)\n      tag_23\n      swap2\n      swap1\n      tag_18\n      jump\t// in\n    tag_23:\n      mload(0x40)\n      dup1\n      swap2\n      sub\n      swap1\n      return\n        /* \"@openzeppelin/contracts/access/Ownable.sol\":1831:1932  function renounceOwnership() public virtual onlyOwner {... */\n    tag_5:\n      tag_24\n      tag_25\n      jump\t// in\n    tag_24:\n      stop\n        /* \"contracts/AquoIntManager2.sol\":1043:1402  function transferShares(uint256 assetId, address to, uint256 amount) public {... */\n    tag_6:\n      tag_26\n      0x04\n      dup1\n      calldatasize\n      sub\n      dup2\n      add\n      swap1\n      tag_27\n      swap2\n      swap1\n      tag_28\n      jump\t// in\n    tag_27:\n      tag_29\n      jump\t// in\n    tag_26:\n      stop\n        /* \"contracts/AquoIntManager2.sol\":390:415  uint256[] public assetIds */\n    tag_7:\n      tag_30\n      0x04\n      dup1\n      calldatasize\n      sub\n      dup2\n      add\n      swap1\n      tag_31\n      swap2\n      swap1\n      tag_32\n      jump\t// in\n    tag_31:\n      tag_33\n      jump\t// in\n    tag_30:\n      mload(0x40)\n      tag_34\n      swap2\n      swap1\n      tag_18\n      jump\t// in\n    tag_34:\n      mload(0x40)\n      dup1\n      swap2\n      sub\n      swap1\n      return\n        /* \"@openzeppelin/contracts/access/Ownable.sol\":1201:1286  function owner() public view virtual returns (address) {... */\n    tag_8:\n      tag_35\n      tag_36\n      jump\t// in\n    tag_35:\n      mload(0x40)\n      tag_37\n      swap2\n      swap1\n      tag_38\n      jump\t// in\n    tag_37:\n      mload(0x40)\n      dup1\n      swap2\n      sub\n      swap1\n      return\n        /* \"contracts/AquoIntManager2.sol\":344:383  mapping(uint256 => Asset) public assets */\n    tag_9:\n      tag_39\n      0x04\n      dup1\n      calldatasize\n      sub\n      dup2\n      add\n      swap1\n      tag_40\n      swap2\n      swap1\n      tag_32\n      jump\t// in\n    tag_40:\n      tag_41\n      jump\t// in\n    tag_39:\n      mload(0x40)\n      tag_42\n      swap3\n      swap2\n      swap1\n      tag_43\n      jump\t// in\n    tag_42:\n      mload(0x40)\n      dup1\n      swap2\n      sub\n      swap1\n      return\n        /* \"contracts/AquoIntManager2.sol\":1410:1509  function getAllAssetIds() public view returns (uint256[] memory) {... */\n    tag_10:\n      tag_44\n      tag_45\n      jump\t// in\n    tag_44:\n      mload(0x40)\n      tag_46\n      swap2\n      swap1\n      tag_47\n      jump\t// in\n    tag_46:\n      mload(0x40)\n      dup1\n      swap2\n      sub\n      swap1\n      return\n        /* \"@openzeppelin/contracts/access/Ownable.sol\":2081:2279  function transferOwnership(address newOwner) public virtual onlyOwner {... */\n    tag_11:\n      tag_48\n      0x04\n      dup1\n      calldatasize\n      sub\n      dup2\n      add\n      swap1\n      tag_49\n      swap2\n      swap1\n      tag_50\n      jump\t// in\n    tag_49:\n      tag_51\n      jump\t// in\n    tag_48:\n      stop\n        /* \"contracts/AquoIntManager2.sol\":458:886  function addAsset(string memory ipfsAddress, uint256 initialShares) public onlyOwner returns (uint256) {... */\n    tag_16:\n        /* \"contracts/AquoIntManager2.sol\":552:559  uint256 */\n      0x00\n        /* \"@openzeppelin/contracts/access/Ownable.sol\":1094:1107  _checkOwner() */\n      tag_53\n        /* \"@openzeppelin/contracts/access/Ownable.sol\":1094:1105  _checkOwner */\n      tag_54\n        /* \"@openzeppelin/contracts/access/Ownable.sol\":1094:1107  _checkOwner() */\n      jump\t// in\n    tag_53:\n        /* \"contracts/AquoIntManager2.sol\":572:587  uint256 assetId */\n      0x00\n        /* \"contracts/AquoIntManager2.sol\":590:601  nextAssetId */\n      0x01\n      0x00\n        /* \"contracts/AquoIntManager2.sol\":590:603  nextAssetId++ */\n      dup2\n      sload\n      dup1\n      swap3\n      swap2\n      swap1\n      tag_56\n      swap1\n      tag_57\n      jump\t// in\n    tag_56:\n      swap2\n      swap1\n      pop\n      sstore\n        /* \"contracts/AquoIntManager2.sol\":572:603  uint256 assetId = nextAssetId++ */\n      swap1\n      pop\n        /* \"contracts/AquoIntManager2.sol\":646:657  ipfsAddress */\n      dup4\n        /* \"contracts/AquoIntManager2.sol\":616:622  assets */\n      0x02\n        /* \"contracts/AquoIntManager2.sol\":616:631  assets[assetId] */\n      0x00\n        /* \"contracts/AquoIntManager2.sol\":623:630  assetId */\n      dup4\n        /* \"contracts/AquoIntManager2.sol\":616:631  assets[assetId] */\n      dup2\n      mstore\n      0x20\n      add\n      swap1\n      dup2\n      mstore\n      0x20\n      add\n      0x00\n      keccak256\n        /* \"contracts/AquoIntManager2.sol\":616:643  assets[assetId].ipfsAddress */\n      0x00\n      add\n        /* \"contracts/AquoIntManager2.sol\":616:657  assets[assetId].ipfsAddress = ipfsAddress */\n      swap1\n      dup2\n      tag_58\n      swap2\n      swap1\n      tag_59\n      jump\t// in\n    tag_58:\n      pop\n        /* \"contracts/AquoIntManager2.sol\":712:725  initialShares */\n      dup3\n        /* \"contracts/AquoIntManager2.sol\":668:674  assets */\n      0x02\n        /* \"contracts/AquoIntManager2.sol\":668:683  assets[assetId] */\n      0x00\n        /* \"contracts/AquoIntManager2.sol\":675:682  assetId */\n      dup4\n        /* \"contracts/AquoIntManager2.sol\":668:683  assets[assetId] */\n      dup2\n      mstore\n      0x20\n      add\n      swap1\n      dup2\n      mstore\n      0x20\n      add\n      0x00\n      keccak256\n        /* \"contracts/AquoIntManager2.sol\":668:697  assets[assetId].shareBalances */\n      0x01\n      add\n        /* \"contracts/AquoIntManager2.sol\":668:709  assets[assetId].shareBalances[msg.sender] */\n      0x00\n        /* \"contracts/AquoIntManager2.sol\":698:708  msg.sender */\n      caller\n        /* \"contracts/AquoIntManager2.sol\":668:709  assets[assetId].shareBalances[msg.sender] */\n      0xffffffffffffffffffffffffffffffffffffffff\n      and\n      0xffffffffffffffffffffffffffffffffffffffff\n      and\n      dup2\n      mstore\n      0x20\n      add\n      swap1\n      dup2\n      mstore\n      0x20\n      add\n      0x00\n      keccak256\n        /* \"contracts/AquoIntManager2.sol\":668:725  assets[assetId].shareBalances[msg.sender] = initialShares */\n      dup2\n      swap1\n      sstore\n      pop\n        /* \"contracts/AquoIntManager2.sol\":766:779  initialShares */\n      dup3\n        /* \"contracts/AquoIntManager2.sol\":736:742  assets */\n      0x02\n        /* \"contracts/AquoIntManager2.sol\":736:751  assets[assetId] */\n      0x00\n        /* \"contracts/AquoIntManager2.sol\":743:750  assetId */\n      dup4\n        /* \"contracts/AquoIntManager2.sol\":736:751  assets[assetId] */\n      dup2\n      mstore\n      0x20\n      add\n      swap1\n      dup2\n      mstore\n      0x20\n      add\n      0x00\n      keccak256\n        /* \"contracts/AquoIntManager2.sol\":736:763  assets[assetId].totalShares */\n      0x02\n      add\n        /* \"contracts/AquoIntManager2.sol\":736:779  assets[assetId].totalShares = initialShares */\n      dup2\n      swap1\n      sstore\n      pop\n        /* \"contracts/AquoIntManager2.sol\":792:800  assetIds */\n      0x03\n        /* \"contracts/AquoIntManager2.sol\":806:813  assetId */\n      dup2\n        /* \"contracts/AquoIntManager2.sol\":792:814  assetIds.push(assetId) */\n      swap1\n      dup1\n      0x01\n      dup2\n      sload\n      add\n      dup1\n      dup3\n      sstore\n      dup1\n      swap2\n      pop\n      pop\n      0x01\n      swap1\n      sub\n      swap1\n      0x00\n      mstore\n      keccak256(0x00, 0x20)\n      add\n      0x00\n      swap1\n      swap2\n      swap1\n      swap2\n      swap1\n      swap2\n      pop\n      sstore\n        /* \"contracts/AquoIntManager2.sol\":871:878  assetId */\n      dup1\n        /* \"contracts/AquoIntManager2.sol\":864:878  return assetId */\n      swap2\n      pop\n      pop\n        /* \"contracts/AquoIntManager2.sol\":458:886  function addAsset(string memory ipfsAddress, uint256 initialShares) public onlyOwner returns (uint256) {... */\n      swap3\n      swap2\n      pop\n      pop\n      jump\t// out\n        /* \"contracts/AquoIntManager2.sol\":894:1035  function balanceOf(uint256 assetId, address user) public view returns (uint256) {... */\n    tag_22:\n        /* \"contracts/AquoIntManager2.sol\":965:972  uint256 */\n      0x00\n        /* \"contracts/AquoIntManager2.sol\":992:998  assets */\n      0x02\n        /* \"contracts/AquoIntManager2.sol\":992:1007  assets[assetId] */\n      0x00\n        /* \"contracts/AquoIntManager2.sol\":999:1006  assetId */\n      dup5\n        /* \"contracts/AquoIntManager2.sol\":992:1007  assets[assetId] */\n      dup2\n      mstore\n      0x20\n      add\n      swap1\n      dup2\n      mstore\n      0x20\n      add\n      0x00\n      keccak256\n        /* \"contracts/AquoIntManager2.sol\":992:1021  assets[assetId].shareBalances */\n      0x01\n      add\n        /* \"contracts/AquoIntManager2.sol\":992:1027  assets[assetId].shareBalances[user] */\n      0x00\n        /* \"contracts/AquoIntManager2.sol\":1022:1026  user */\n      dup4\n        /* \"contracts/AquoIntManager2.sol\":992:1027  assets[assetId].shareBalances[user] */\n      0xffffffffffffffffffffffffffffffffffffffff\n      and\n      0xffffffffffffffffffffffffffffffffffffffff\n      and\n      dup2\n      mstore\n      0x20\n      add\n      swap1\n      dup2\n      mstore\n      0x20\n      add\n      0x00\n      keccak256\n      sload\n        /* \"contracts/AquoIntManager2.sol\":985:1027  return assets[assetId].shareBalances[user] */\n      swap1\n      pop\n        /* \"contracts/AquoIntManager2.sol\":894:1035  function balanceOf(uint256 assetId, address user) public view returns (uint256) {... */\n      swap3\n      swap2\n      pop\n      pop\n      jump\t// out\n        /* \"@openzeppelin/contracts/access/Ownable.sol\":1831:1932  function renounceOwnership() public virtual onlyOwner {... */\n    tag_25:\n        /* \"@openzeppelin/contracts/access/Ownable.sol\":1094:1107  _checkOwner() */\n      tag_63\n        /* \"@openzeppelin/contracts/access/Ownable.sol\":1094:1105  _checkOwner */\n      tag_54\n        /* \"@openzeppelin/contracts/access/Ownable.sol\":1094:1107  _checkOwner() */\n      jump\t// in\n    tag_63:\n        /* \"@openzeppelin/contracts/access/Ownable.sol\":1895:1925  _transferOwnership(address(0)) */\n      tag_65\n        /* \"@openzeppelin/contracts/access/Ownable.sol\":1922:1923  0 */\n      0x00\n        /* \"@openzeppelin/contracts/access/Ownable.sol\":1895:1913  _transferOwnership */\n      tag_66\n        /* \"@openzeppelin/contracts/access/Ownable.sol\":1895:1925  _transferOwnership(address(0)) */\n      jump\t// in\n    tag_65:\n        /* \"@openzeppelin/contracts/access/Ownable.sol\":1831:1932  function renounceOwnership() public virtual onlyOwner {... */\n      jump\t// out\n        /* \"contracts/AquoIntManager2.sol\":1043:1402  function transferShares(uint256 assetId, address to, uint256 amount) public {... */\n    tag_29:\n        /* \"contracts/AquoIntManager2.sol\":1183:1189  amount */\n      dup1\n        /* \"contracts/AquoIntManager2.sol\":1138:1144  assets */\n      0x02\n        /* \"contracts/AquoIntManager2.sol\":1138:1153  assets[assetId] */\n      0x00\n        /* \"contracts/AquoIntManager2.sol\":1145:1152  assetId */\n      dup6\n        /* \"contracts/AquoIntManager2.sol\":1138:1153  assets[assetId] */\n      dup2\n      mstore\n      0x20\n      add\n      swap1\n      dup2\n      mstore\n      0x20\n      add\n      0x00\n      keccak256\n        /* \"contracts/AquoIntManager2.sol\":1138:1167  assets[assetId].shareBalances */\n      0x01\n      add\n        /* \"contracts/AquoIntManager2.sol\":1138:1179  assets[assetId].shareBalances[msg.sender] */\n      0x00\n        /* \"contracts/AquoIntManager2.sol\":1168:1178  msg.sender */\n      caller\n        /* \"contracts/AquoIntManager2.sol\":1138:1179  assets[assetId].shareBalances[msg.sender] */\n      0xffffffffffffffffffffffffffffffffffffffff\n      and\n      0xffffffffffffffffffffffffffffffffffffffff\n      and\n      dup2\n      mstore\n      0x20\n      add\n      swap1\n      dup2\n      mstore\n      0x20\n      add\n      0x00\n      keccak256\n      sload\n        /* \"contracts/AquoIntManager2.sol\":1138:1189  assets[assetId].shareBalances[msg.sender] >= amount */\n      lt\n      iszero\n        /* \"contracts/AquoIntManager2.sol\":1130:1213  require(assets[assetId].shareBalances[msg.sender] >= amount, \"Insufficient shares\") */\n      tag_68\n      jumpi\n      mload(0x40)\n      0x08c379a000000000000000000000000000000000000000000000000000000000\n      dup2\n      mstore\n      0x04\n      add\n      tag_69\n      swap1\n      tag_70\n      jump\t// in\n    tag_69:\n      mload(0x40)\n      dup1\n      swap2\n      sub\n      swap1\n      revert\n    tag_68:\n        /* \"contracts/AquoIntManager2.sol\":1269:1275  amount */\n      dup1\n        /* \"contracts/AquoIntManager2.sol\":1224:1230  assets */\n      0x02\n        /* \"contracts/AquoIntManager2.sol\":1224:1239  assets[assetId] */\n      0x00\n        /* \"contracts/AquoIntManager2.sol\":1231:1238  assetId */\n      dup6\n        /* \"contracts/AquoIntManager2.sol\":1224:1239  assets[assetId] */\n      dup2\n      mstore\n      0x20\n      add\n      swap1\n      dup2\n      mstore\n      0x20\n      add\n      0x00\n      keccak256\n        /* \"contracts/AquoIntManager2.sol\":1224:1253  assets[assetId].shareBalances */\n      0x01\n      add\n        /* \"contracts/AquoIntManager2.sol\":1224:1265  assets[assetId].shareBalances[msg.sender] */\n      0x00\n        /* \"contracts/AquoIntManager2.sol\":1254:1264  msg.sender */\n      caller\n        /* \"contracts/AquoIntManager2.sol\":1224:1265  assets[assetId].shareBalances[msg.sender] */\n      0xffffffffffffffffffffffffffffffffffffffff\n      and\n      0xffffffffffffffffffffffffffffffffffffffff\n      and\n      dup2\n      mstore\n      0x20\n      add\n      swap1\n      dup2\n      mstore\n      0x20\n      add\n      0x00\n      keccak256\n      0x00\n        /* \"contracts/AquoIntManager2.sol\":1224:1275  assets[assetId].shareBalances[msg.sender] -= amount */\n      dup3\n      dup3\n      sload\n      tag_71\n      swap2\n      swap1\n      tag_72\n      jump\t// in\n    tag_71:\n      swap3\n      pop\n      pop\n      dup2\n      swap1\n      sstore\n      pop\n        /* \"contracts/AquoIntManager2.sol\":1323:1329  amount */\n      dup1\n        /* \"contracts/AquoIntManager2.sol\":1286:1292  assets */\n      0x02\n        /* \"contracts/AquoIntManager2.sol\":1286:1301  assets[assetId] */\n      0x00\n        /* \"contracts/AquoIntManager2.sol\":1293:1300  assetId */\n      dup6\n        /* \"contracts/AquoIntManager2.sol\":1286:1301  assets[assetId] */\n      dup2\n      mstore\n      0x20\n      add\n      swap1\n      dup2\n      mstore\n      0x20\n      add\n      0x00\n      keccak256\n        /* \"contracts/AquoIntManager2.sol\":1286:1315  assets[assetId].shareBalances */\n      0x01\n      add\n        /* \"contracts/AquoIntManager2.sol\":1286:1319  assets[assetId].shareBalances[to] */\n      0x00\n        /* \"contracts/AquoIntManager2.sol\":1316:1318  to */\n      dup5\n        /* \"contracts/AquoIntManager2.sol\":1286:1319  assets[assetId].shareBalances[to] */\n      0xffffffffffffffffffffffffffffffffffffffff\n      and\n      0xffffffffffffffffffffffffffffffffffffffff\n      and\n      dup2\n      mstore\n      0x20\n      add\n      swap1\n      dup2\n      mstore\n      0x20\n      add\n      0x00\n      keccak256\n      0x00\n        /* \"contracts/AquoIntManager2.sol\":1286:1329  assets[assetId].shareBalances[to] += amount */\n      dup3\n      dup3\n      sload\n      tag_73\n      swap2\n      swap1\n      tag_74\n      jump\t// in\n    tag_73:\n      swap3\n      pop\n      pop\n      dup2\n      swap1\n      sstore\n      pop\n        /* \"contracts/AquoIntManager2.sol\":1383:1385  to */\n      dup2\n        /* \"contracts/AquoIntManager2.sol\":1347:1394  TransferShares(assetId, msg.sender, to, amount) */\n      0xffffffffffffffffffffffffffffffffffffffff\n      and\n        /* \"contracts/AquoIntManager2.sol\":1371:1381  msg.sender */\n      caller\n        /* \"contracts/AquoIntManager2.sol\":1347:1394  TransferShares(assetId, msg.sender, to, amount) */\n      0xffffffffffffffffffffffffffffffffffffffff\n      and\n        /* \"contracts/AquoIntManager2.sol\":1362:1369  assetId */\n      dup5\n        /* \"contracts/AquoIntManager2.sol\":1347:1394  TransferShares(assetId, msg.sender, to, amount) */\n      0x0d93b0e8579bc9db73c85a1fb79d785ffc47f8e20d346253f809cc98c48292a0\n        /* \"contracts/AquoIntManager2.sol\":1387:1393  amount */\n      dup5\n        /* \"contracts/AquoIntManager2.sol\":1347:1394  TransferShares(assetId, msg.sender, to, amount) */\n      mload(0x40)\n      tag_75\n      swap2\n      swap1\n      tag_18\n      jump\t// in\n    tag_75:\n      mload(0x40)\n      dup1\n      swap2\n      sub\n      swap1\n      log4\n        /* \"contracts/AquoIntManager2.sol\":1043:1402  function transferShares(uint256 assetId, address to, uint256 amount) public {... */\n      pop\n      pop\n      pop\n      jump\t// out\n        /* \"contracts/AquoIntManager2.sol\":390:415  uint256[] public assetIds */\n    tag_33:\n      0x03\n      dup2\n      dup2\n      sload\n      dup2\n      lt\n      tag_76\n      jumpi\n      0x00\n      dup1\n      revert\n    tag_76:\n      swap1\n      0x00\n      mstore\n      keccak256(0x00, 0x20)\n      add\n      0x00\n      swap2\n      pop\n      swap1\n      pop\n      sload\n      dup2\n      jump\t// out\n        /* \"@openzeppelin/contracts/access/Ownable.sol\":1201:1286  function owner() public view virtual returns (address) {... */\n    tag_36:\n        /* \"@openzeppelin/contracts/access/Ownable.sol\":1247:1254  address */\n      0x00\n        /* \"@openzeppelin/contracts/access/Ownable.sol\":1273:1279  _owner */\n      dup1\n      0x00\n      swap1\n      sload\n      swap1\n      0x0100\n      exp\n      swap1\n      div\n      0xffffffffffffffffffffffffffffffffffffffff\n      and\n        /* \"@openzeppelin/contracts/access/Ownable.sol\":1266:1279  return _owner */\n      swap1\n      pop\n        /* \"@openzeppelin/contracts/access/Ownable.sol\":1201:1286  function owner() public view virtual returns (address) {... */\n      swap1\n      jump\t// out\n        /* \"contracts/AquoIntManager2.sol\":344:383  mapping(uint256 => Asset) public assets */\n    tag_41:\n      mstore(0x20, 0x02)\n      dup1\n      0x00\n      mstore\n      keccak256(0x00, 0x40)\n      0x00\n      swap2\n      pop\n      swap1\n      pop\n      dup1\n      0x00\n      add\n      dup1\n      sload\n      tag_79\n      swap1\n      tag_80\n      jump\t// in\n    tag_79:\n      dup1\n      0x1f\n      add\n      0x20\n      dup1\n      swap2\n      div\n      mul\n      0x20\n      add\n      mload(0x40)\n      swap1\n      dup2\n      add\n      0x40\n      mstore\n      dup1\n      swap3\n      swap2\n      swap1\n      dup2\n      dup2\n      mstore\n      0x20\n      add\n      dup3\n      dup1\n      sload\n      tag_81\n      swap1\n      tag_80\n      jump\t// in\n    tag_81:\n      dup1\n      iszero\n      tag_82\n      jumpi\n      dup1\n      0x1f\n      lt\n      tag_83\n      jumpi\n      0x0100\n      dup1\n      dup4\n      sload\n      div\n      mul\n      dup4\n      mstore\n      swap2\n      0x20\n      add\n      swap2\n      jump(tag_82)\n    tag_83:\n      dup3\n      add\n      swap2\n      swap1\n      0x00\n      mstore\n      keccak256(0x00, 0x20)\n      swap1\n    tag_84:\n      dup2\n      sload\n      dup2\n      mstore\n      swap1\n      0x01\n      add\n      swap1\n      0x20\n      add\n      dup1\n      dup4\n      gt\n      tag_84\n      jumpi\n      dup3\n      swap1\n      sub\n      0x1f\n      and\n      dup3\n      add\n      swap2\n    tag_82:\n      pop\n      pop\n      pop\n      pop\n      pop\n      swap1\n      dup1\n      0x02\n      add\n      sload\n      swap1\n      pop\n      dup3\n      jump\t// out\n        /* \"contracts/AquoIntManager2.sol\":1410:1509  function getAllAssetIds() public view returns (uint256[] memory) {... */\n    tag_45:\n        /* \"contracts/AquoIntManager2.sol\":1457:1473  uint256[] memory */\n      0x60\n        /* \"contracts/AquoIntManager2.sol\":1493:1501  assetIds */\n      0x03\n        /* \"contracts/AquoIntManager2.sol\":1486:1501  return assetIds */\n      dup1\n      sload\n      dup1\n      0x20\n      mul\n      0x20\n      add\n      mload(0x40)\n      swap1\n      dup2\n      add\n      0x40\n      mstore\n      dup1\n      swap3\n      swap2\n      swap1\n      dup2\n      dup2\n      mstore\n      0x20\n      add\n      dup3\n      dup1\n      sload\n      dup1\n      iszero\n      tag_86\n      jumpi\n      0x20\n      mul\n      dup3\n      add\n      swap2\n      swap1\n      0x00\n      mstore\n      keccak256(0x00, 0x20)\n      swap1\n    tag_87:\n      dup2\n      sload\n      dup2\n      mstore\n      0x20\n      add\n      swap1\n      0x01\n      add\n      swap1\n      dup1\n      dup4\n      gt\n      tag_87\n      jumpi\n    tag_86:\n      pop\n      pop\n      pop\n      pop\n      pop\n      swap1\n      pop\n        /* \"contracts/AquoIntManager2.sol\":1410:1509  function getAllAssetIds() public view returns (uint256[] memory) {... */\n      swap1\n      jump\t// out\n        /* \"@openzeppelin/contracts/access/Ownable.sol\":2081:2279  function transferOwnership(address newOwner) public virtual onlyOwner {... */\n    tag_51:\n        /* \"@openzeppelin/contracts/access/Ownable.sol\":1094:1107  _checkOwner() */\n      tag_89\n        /* \"@openzeppelin/contracts/access/Ownable.sol\":1094:1105  _checkOwner */\n      tag_54\n        /* \"@openzeppelin/contracts/access/Ownable.sol\":1094:1107  _checkOwner() */\n      jump\t// in\n    tag_89:\n        /* \"@openzeppelin/contracts/access/Ownable.sol\":2189:2190  0 */\n      0x00\n        /* \"@openzeppelin/contracts/access/Ownable.sol\":2169:2191  newOwner != address(0) */\n      0xffffffffffffffffffffffffffffffffffffffff\n      and\n        /* \"@openzeppelin/contracts/access/Ownable.sol\":2169:2177  newOwner */\n      dup2\n        /* \"@openzeppelin/contracts/access/Ownable.sol\":2169:2191  newOwner != address(0) */\n      0xffffffffffffffffffffffffffffffffffffffff\n      and\n      sub\n        /* \"@openzeppelin/contracts/access/Ownable.sol\":2161:2234  require(newOwner != address(0), \"Ownable: new owner is the zero address\") */\n      tag_91\n      jumpi\n      mload(0x40)\n      0x08c379a000000000000000000000000000000000000000000000000000000000\n      dup2\n      mstore\n      0x04\n      add\n      tag_92\n      swap1\n      tag_93\n      jump\t// in\n    tag_92:\n      mload(0x40)\n      dup1\n      swap2\n      sub\n      swap1\n      revert\n    tag_91:\n        /* \"@openzeppelin/contracts/access/Ownable.sol\":2244:2272  _transferOwnership(newOwner) */\n      tag_94\n        /* \"@openzeppelin/contracts/access/Ownable.sol\":2263:2271  newOwner */\n      dup2\n        /* \"@openzeppelin/contracts/access/Ownable.sol\":2244:2262  _transferOwnership */\n      tag_66\n        /* \"@openzeppelin/contracts/access/Ownable.sol\":2244:2272  _transferOwnership(newOwner) */\n      jump\t// in\n    tag_94:\n        /* \"@openzeppelin/contracts/access/Ownable.sol\":2081:2279  function transferOwnership(address newOwner) public virtual onlyOwner {... */\n      pop\n      jump\t// out\n        /* \"@openzeppelin/contracts/access/Ownable.sol\":1359:1489  function _checkOwner() internal view virtual {... */\n    tag_54:\n        /* \"@openzeppelin/contracts/access/Ownable.sol\":1433:1445  _msgSender() */\n      tag_96\n        /* \"@openzeppelin/contracts/access/Ownable.sol\":1433:1443  _msgSender */\n      tag_97\n        /* \"@openzeppelin/contracts/access/Ownable.sol\":1433:1445  _msgSender() */\n      jump\t// in\n    tag_96:\n        /* \"@openzeppelin/contracts/access/Ownable.sol\":1422:1445  owner() == _msgSender() */\n      0xffffffffffffffffffffffffffffffffffffffff\n      and\n        /* \"@openzeppelin/contracts/access/Ownable.sol\":1422:1429  owner() */\n      tag_98\n        /* \"@openzeppelin/contracts/access/Ownable.sol\":1422:1427  owner */\n      tag_36\n        /* \"@openzeppelin/contracts/access/Ownable.sol\":1422:1429  owner() */\n      jump\t// in\n    tag_98:\n        /* \"@openzeppelin/contracts/access/Ownable.sol\":1422:1445  owner() == _msgSender() */\n      0xffffffffffffffffffffffffffffffffffffffff\n      and\n      eq\n        /* \"@openzeppelin/contracts/access/Ownable.sol\":1414:1482  require(owner() == _msgSender(), \"Ownable: caller is not the owner\") */\n      tag_99\n      jumpi\n      mload(0x40)\n      0x08c379a000000000000000000000000000000000000000000000000000000000\n      dup2\n      mstore\n      0x04\n      add\n      tag_100\n      swap1\n      tag_101\n      jump\t// in\n    tag_100:\n      mload(0x40)\n      dup1\n      swap2\n      sub\n      swap1\n      revert\n    tag_99:\n        /* \"@openzeppelin/contracts/access/Ownable.sol\":1359:1489  function _checkOwner() internal view virtual {... */\n      jump\t// out\n        /* \"@openzeppelin/contracts/access/Ownable.sol\":2433:2620  function _transferOwnership(address newOwner) internal virtual {... */\n    tag_66:\n        /* \"@openzeppelin/contracts/access/Ownable.sol\":2506:2522  address oldOwner */\n      0x00\n        /* \"@openzeppelin/contracts/access/Ownable.sol\":2525:2531  _owner */\n      dup1\n      0x00\n      swap1\n      sload\n      swap1\n      0x0100\n      exp\n      swap1\n      div\n      0xffffffffffffffffffffffffffffffffffffffff\n      and\n        /* \"@openzeppelin/contracts/access/Ownable.sol\":2506:2531  address oldOwner = _owner */\n      swap1\n      pop\n        /* \"@openzeppelin/contracts/access/Ownable.sol\":2550:2558  newOwner */\n      dup2\n        /* \"@openzeppelin/contracts/access/Ownable.sol\":2541:2547  _owner */\n      0x00\n      dup1\n        /* \"@openzeppelin/contracts/access/Ownable.sol\":2541:2558  _owner = newOwner */\n      0x0100\n      exp\n      dup2\n      sload\n      dup2\n      0xffffffffffffffffffffffffffffffffffffffff\n      mul\n      not\n      and\n      swap1\n      dup4\n      0xffffffffffffffffffffffffffffffffffffffff\n      and\n      mul\n      or\n      swap1\n      sstore\n      pop\n        /* \"@openzeppelin/contracts/access/Ownable.sol\":2604:2612  newOwner */\n      dup2\n        /* \"@openzeppelin/contracts/access/Ownable.sol\":2573:2613  OwnershipTransferred(oldOwner, newOwner) */\n      0xffffffffffffffffffffffffffffffffffffffff\n      and\n        /* \"@openzeppelin/contracts/access/Ownable.sol\":2594:2602  oldOwner */\n      dup2\n        /* \"@openzeppelin/contracts/access/Ownable.sol\":2573:2613  OwnershipTransferred(oldOwner, newOwner) */\n      0xffffffffffffffffffffffffffffffffffffffff\n      and\n      0x8be0079c531659141344cd1fd0a4f28419497f9722a3daafe3b4186f6b6457e0\n      mload(0x40)\n      mload(0x40)\n      dup1\n      swap2\n      sub\n      swap1\n      log3\n        /* \"@openzeppelin/contracts/access/Ownable.sol\":2496:2620  {... */\n      pop\n        /* \"@openzeppelin/contracts/access/Ownable.sol\":2433:2620  function _transferOwnership(address newOwner) internal virtual {... */\n      pop\n      jump\t// out\n        /* \"@openzeppelin/contracts/utils/Context.sol\":640:736  function _msgSender() internal view virtual returns (address) {... */\n    tag_97:\n        /* \"@openzeppelin/contracts/utils/Context.sol\":693:700  address */\n      0x00\n        /* \"@openzeppelin/contracts/utils/Context.sol\":719:729  msg.sender */\n      caller\n        /* \"@openzeppelin/contracts/utils/Context.sol\":712:729  return msg.sender */\n      swap1\n      pop\n        /* \"@openzeppelin/contracts/utils/Context.sol\":640:736  function _msgSender() internal view virtual returns (address) {... */\n      swap1\n      jump\t// out\n        /* \"#utility.yul\":7:82   */\n    tag_104:\n        /* \"#utility.yul\":40:46   */\n      0x00\n        /* \"#utility.yul\":73:75   */\n      0x40\n        /* \"#utility.yul\":67:76   */\n      mload\n        /* \"#utility.yul\":57:76   */\n      swap1\n      pop\n        /* \"#utility.yul\":7:82   */\n      swap1\n      jump\t// out\n        /* \"#utility.yul\":88:205   */\n    tag_105:\n        /* \"#utility.yul\":197:198   */\n      0x00\n        /* \"#utility.yul\":194:195   */\n      dup1\n        /* \"#utility.yul\":187:199   */\n      revert\n        /* \"#utility.yul\":211:328   */\n    tag_106:\n        /* \"#utility.yul\":320:321   */\n      0x00\n        /* \"#utility.yul\":317:318   */\n      dup1\n        /* \"#utility.yul\":310:322   */\n      revert\n        /* \"#utility.yul\":334:451   */\n    tag_107:\n        /* \"#utility.yul\":443:444   */\n      0x00\n        /* \"#utility.yul\":440:441   */\n      dup1\n        /* \"#utility.yul\":433:445   */\n      revert\n        /* \"#utility.yul\":457:574   */\n    tag_108:\n        /* \"#utility.yul\":566:567   */\n      0x00\n        /* \"#utility.yul\":563:564   */\n      dup1\n        /* \"#utility.yul\":556:568   */\n      revert\n        /* \"#utility.yul\":580:682   */\n    tag_109:\n        /* \"#utility.yul\":621:627   */\n      0x00\n        /* \"#utility.yul\":672:674   */\n      0x1f\n        /* \"#utility.yul\":668:675   */\n      not\n        /* \"#utility.yul\":663:665   */\n      0x1f\n        /* \"#utility.yul\":656:661   */\n      dup4\n        /* \"#utility.yul\":652:666   */\n      add\n        /* \"#utility.yul\":648:676   */\n      and\n        /* \"#utility.yul\":638:676   */\n      swap1\n      pop\n        /* \"#utility.yul\":580:682   */\n      swap2\n      swap1\n      pop\n      jump\t// out\n        /* \"#utility.yul\":688:868   */\n    tag_110:\n        /* \"#utility.yul\":736:813   */\n      0x4e487b7100000000000000000000000000000000000000000000000000000000\n        /* \"#utility.yul\":733:734   */\n      0x00\n        /* \"#utility.yul\":726:814   */\n      mstore\n        /* \"#utility.yul\":833:837   */\n      0x41\n        /* \"#utility.yul\":830:831   */\n      0x04\n        /* \"#utility.yul\":823:838   */\n      mstore\n        /* \"#utility.yul\":857:861   */\n      0x24\n        /* \"#utility.yul\":854:855   */\n      0x00\n        /* \"#utility.yul\":847:862   */\n      revert\n        /* \"#utility.yul\":874:1155   */\n    tag_111:\n        /* \"#utility.yul\":957:984   */\n      tag_169\n        /* \"#utility.yul\":979:983   */\n      dup3\n        /* \"#utility.yul\":957:984   */\n      tag_109\n      jump\t// in\n    tag_169:\n        /* \"#utility.yul\":949:955   */\n      dup2\n        /* \"#utility.yul\":945:985   */\n      add\n        /* \"#utility.yul\":1087:1093   */\n      dup2\n        /* \"#utility.yul\":1075:1085   */\n      dup2\n        /* \"#utility.yul\":1072:1094   */\n      lt\n        /* \"#utility.yul\":1051:1069   */\n      0xffffffffffffffff\n        /* \"#utility.yul\":1039:1049   */\n      dup3\n        /* \"#utility.yul\":1036:1070   */\n      gt\n        /* \"#utility.yul\":1033:1095   */\n      or\n        /* \"#utility.yul\":1030:1118   */\n      iszero\n      tag_170\n      jumpi\n        /* \"#utility.yul\":1098:1116   */\n      tag_171\n      tag_110\n      jump\t// in\n    tag_171:\n        /* \"#utility.yul\":1030:1118   */\n    tag_170:\n        /* \"#utility.yul\":1138:1148   */\n      dup1\n        /* \"#utility.yul\":1134:1136   */\n      0x40\n        /* \"#utility.yul\":1127:1149   */\n      mstore\n        /* \"#utility.yul\":917:1155   */\n      pop\n        /* \"#utility.yul\":874:1155   */\n      pop\n      pop\n      jump\t// out\n        /* \"#utility.yul\":1161:1290   */\n    tag_112:\n        /* \"#utility.yul\":1195:1201   */\n      0x00\n        /* \"#utility.yul\":1222:1242   */\n      tag_173\n      tag_104\n      jump\t// in\n    tag_173:\n        /* \"#utility.yul\":1212:1242   */\n      swap1\n      pop\n        /* \"#utility.yul\":1251:1284   */\n      tag_174\n        /* \"#utility.yul\":1279:1283   */\n      dup3\n        /* \"#utility.yul\":1271:1277   */\n      dup3\n        /* \"#utility.yul\":1251:1284   */\n      tag_111\n      jump\t// in\n    tag_174:\n        /* \"#utility.yul\":1161:1290   */\n      swap2\n      swap1\n      pop\n      jump\t// out\n        /* \"#utility.yul\":1296:1604   */\n    tag_113:\n        /* \"#utility.yul\":1358:1362   */\n      0x00\n        /* \"#utility.yul\":1448:1466   */\n      0xffffffffffffffff\n        /* \"#utility.yul\":1440:1446   */\n      dup3\n        /* \"#utility.yul\":1437:1467   */\n      gt\n        /* \"#utility.yul\":1434:1490   */\n      iszero\n      tag_176\n      jumpi\n        /* \"#utility.yul\":1470:1488   */\n      tag_177\n      tag_110\n      jump\t// in\n    tag_177:\n        /* \"#utility.yul\":1434:1490   */\n    tag_176:\n        /* \"#utility.yul\":1508:1537   */\n      tag_178\n        /* \"#utility.yul\":1530:1536   */\n      dup3\n        /* \"#utility.yul\":1508:1537   */\n      tag_109\n      jump\t// in\n    tag_178:\n        /* \"#utility.yul\":1500:1537   */\n      swap1\n      pop\n        /* \"#utility.yul\":1592:1596   */\n      0x20\n        /* \"#utility.yul\":1586:1590   */\n      dup2\n        /* \"#utility.yul\":1582:1597   */\n      add\n        /* \"#utility.yul\":1574:1597   */\n      swap1\n      pop\n        /* \"#utility.yul\":1296:1604   */\n      swap2\n      swap1\n      pop\n      jump\t// out\n        /* \"#utility.yul\":1610:1756   */\n    tag_114:\n        /* \"#utility.yul\":1707:1713   */\n      dup3\n        /* \"#utility.yul\":1702:1705   */\n      dup2\n        /* \"#utility.yul\":1697:1700   */\n      dup4\n        /* \"#utility.yul\":1684:1714   */\n      calldatacopy\n        /* \"#utility.yul\":1748:1749   */\n      0x00\n        /* \"#utility.yul\":1739:1745   */\n      dup4\n        /* \"#utility.yul\":1734:1737   */\n      dup4\n        /* \"#utility.yul\":1730:1746   */\n      add\n        /* \"#utility.yul\":1723:1750   */\n      mstore\n        /* \"#utility.yul\":1610:1756   */\n      pop\n      pop\n      pop\n      jump\t// out\n        /* \"#utility.yul\":1762:2187   */\n    tag_115:\n        /* \"#utility.yul\":1840:1845   */\n      0x00\n        /* \"#utility.yul\":1865:1931   */\n      tag_181\n        /* \"#utility.yul\":1881:1930   */\n      tag_182\n        /* \"#utility.yul\":1923:1929   */\n      dup5\n        /* \"#utility.yul\":1881:1930   */\n      tag_113\n      jump\t// in\n    tag_182:\n        /* \"#utility.yul\":1865:1931   */\n      tag_112\n      jump\t// in\n    tag_181:\n        /* \"#utility.yul\":1856:1931   */\n      swap1\n      pop\n        /* \"#utility.yul\":1954:1960   */\n      dup3\n        /* \"#utility.yul\":1947:1952   */\n      dup2\n        /* \"#utility.yul\":1940:1961   */\n      mstore\n        /* \"#utility.yul\":1992:1996   */\n      0x20\n        /* \"#utility.yul\":1985:1990   */\n      dup2\n        /* \"#utility.yul\":1981:1997   */\n      add\n        /* \"#utility.yul\":2030:2033   */\n      dup5\n        /* \"#utility.yul\":2021:2027   */\n      dup5\n        /* \"#utility.yul\":2016:2019   */\n      dup5\n        /* \"#utility.yul\":2012:2028   */\n      add\n        /* \"#utility.yul\":2009:2034   */\n      gt\n        /* \"#utility.yul\":2006:2118   */\n      iszero\n      tag_183\n      jumpi\n        /* \"#utility.yul\":2037:2116   */\n      tag_184\n      tag_108\n      jump\t// in\n    tag_184:\n        /* \"#utility.yul\":2006:2118   */\n    tag_183:\n        /* \"#utility.yul\":2127:2181   */\n      tag_185\n        /* \"#utility.yul\":2174:2180   */\n      dup5\n        /* \"#utility.yul\":2169:2172   */\n      dup3\n        /* \"#utility.yul\":2164:2167   */\n      dup6\n        /* \"#utility.yul\":2127:2181   */\n      tag_114\n      jump\t// in\n    tag_185:\n        /* \"#utility.yul\":1846:2187   */\n      pop\n        /* \"#utility.yul\":1762:2187   */\n      swap4\n      swap3\n      pop\n      pop\n      pop\n      jump\t// out\n        /* \"#utility.yul\":2207:2547   */\n    tag_116:\n        /* \"#utility.yul\":2263:2268   */\n      0x00\n        /* \"#utility.yul\":2312:2315   */\n      dup3\n        /* \"#utility.yul\":2305:2309   */\n      0x1f\n        /* \"#utility.yul\":2297:2303   */\n      dup4\n        /* \"#utility.yul\":2293:2310   */\n      add\n        /* \"#utility.yul\":2289:2316   */\n      slt\n        /* \"#utility.yul\":2279:2401   */\n      tag_187\n      jumpi\n        /* \"#utility.yul\":2320:2399   */\n      tag_188\n      tag_107\n      jump\t// in\n    tag_188:\n        /* \"#utility.yul\":2279:2401   */\n    tag_187:\n        /* \"#utility.yul\":2437:2443   */\n      dup2\n        /* \"#utility.yul\":2424:2444   */\n      calldataload\n        /* \"#utility.yul\":2462:2541   */\n      tag_189\n        /* \"#utility.yul\":2537:2540   */\n      dup5\n        /* \"#utility.yul\":2529:2535   */\n      dup3\n        /* \"#utility.yul\":2522:2526   */\n      0x20\n        /* \"#utility.yul\":2514:2520   */\n      dup7\n        /* \"#utility.yul\":2510:2527   */\n      add\n        /* \"#utility.yul\":2462:2541   */\n      tag_115\n      jump\t// in\n    tag_189:\n        /* \"#utility.yul\":2453:2541   */\n      swap2\n      pop\n        /* \"#utility.yul\":2269:2547   */\n      pop\n        /* \"#utility.yul\":2207:2547   */\n      swap3\n      swap2\n      pop\n      pop\n      jump\t// out\n        /* \"#utility.yul\":2553:2630   */\n    tag_117:\n        /* \"#utility.yul\":2590:2597   */\n      0x00\n        /* \"#utility.yul\":2619:2624   */\n      dup2\n        /* \"#utility.yul\":2608:2624   */\n      swap1\n      pop\n        /* \"#utility.yul\":2553:2630   */\n      swap2\n      swap1\n      pop\n      jump\t// out\n        /* \"#utility.yul\":2636:2758   */\n    tag_118:\n        /* \"#utility.yul\":2709:2733   */\n      tag_192\n        /* \"#utility.yul\":2727:2732   */\n      dup2\n        /* \"#utility.yul\":2709:2733   */\n      tag_117\n      jump\t// in\n    tag_192:\n        /* \"#utility.yul\":2702:2707   */\n      dup2\n        /* \"#utility.yul\":2699:2734   */\n      eq\n        /* \"#utility.yul\":2689:2752   */\n      tag_193\n      jumpi\n        /* \"#utility.yul\":2748:2749   */\n      0x00\n        /* \"#utility.yul\":2745:2746   */\n      dup1\n        /* \"#utility.yul\":2738:2750   */\n      revert\n        /* \"#utility.yul\":2689:2752   */\n    tag_193:\n        /* \"#utility.yul\":2636:2758   */\n      pop\n      jump\t// out\n        /* \"#utility.yul\":2764:2903   */\n    tag_119:\n        /* \"#utility.yul\":2810:2815   */\n      0x00\n        /* \"#utility.yul\":2848:2854   */\n      dup2\n        /* \"#utility.yul\":2835:2855   */\n      calldataload\n        /* \"#utility.yul\":2826:2855   */\n      swap1\n      pop\n        /* \"#utility.yul\":2864:2897   */\n      tag_195\n        /* \"#utility.yul\":2891:2896   */\n      dup2\n        /* \"#utility.yul\":2864:2897   */\n      tag_118\n      jump\t// in\n    tag_195:\n        /* \"#utility.yul\":2764:2903   */\n      swap3\n      swap2\n      pop\n      pop\n      jump\t// out\n        /* \"#utility.yul\":2909:3563   */\n    tag_15:\n        /* \"#utility.yul\":2987:2993   */\n      0x00\n        /* \"#utility.yul\":2995:3001   */\n      dup1\n        /* \"#utility.yul\":3044:3046   */\n      0x40\n        /* \"#utility.yul\":3032:3041   */\n      dup4\n        /* \"#utility.yul\":3023:3030   */\n      dup6\n        /* \"#utility.yul\":3019:3042   */\n      sub\n        /* \"#utility.yul\":3015:3047   */\n      slt\n        /* \"#utility.yul\":3012:3131   */\n      iszero\n      tag_197\n      jumpi\n        /* \"#utility.yul\":3050:3129   */\n      tag_198\n      tag_105\n      jump\t// in\n    tag_198:\n        /* \"#utility.yul\":3012:3131   */\n    tag_197:\n        /* \"#utility.yul\":3198:3199   */\n      0x00\n        /* \"#utility.yul\":3187:3196   */\n      dup4\n        /* \"#utility.yul\":3183:3200   */\n      add\n        /* \"#utility.yul\":3170:3201   */\n      calldataload\n        /* \"#utility.yul\":3228:3246   */\n      0xffffffffffffffff\n        /* \"#utility.yul\":3220:3226   */\n      dup2\n        /* \"#utility.yul\":3217:3247   */\n      gt\n        /* \"#utility.yul\":3214:3331   */\n      iszero\n      tag_199\n      jumpi\n        /* \"#utility.yul\":3250:3329   */\n      tag_200\n      tag_106\n      jump\t// in\n    tag_200:\n        /* \"#utility.yul\":3214:3331   */\n    tag_199:\n        /* \"#utility.yul\":3355:3418   */\n      tag_201\n        /* \"#utility.yul\":3410:3417   */\n      dup6\n        /* \"#utility.yul\":3401:3407   */\n      dup3\n        /* \"#utility.yul\":3390:3399   */\n      dup7\n        /* \"#utility.yul\":3386:3408   */\n      add\n        /* \"#utility.yul\":3355:3418   */\n      tag_116\n      jump\t// in\n    tag_201:\n        /* \"#utility.yul\":3345:3418   */\n      swap3\n      pop\n        /* \"#utility.yul\":3141:3428   */\n      pop\n        /* \"#utility.yul\":3467:3469   */\n      0x20\n        /* \"#utility.yul\":3493:3546   */\n      tag_202\n        /* \"#utility.yul\":3538:3545   */\n      dup6\n        /* \"#utility.yul\":3529:3535   */\n      dup3\n        /* \"#utility.yul\":3518:3527   */\n      dup7\n        /* \"#utility.yul\":3514:3536   */\n      add\n        /* \"#utility.yul\":3493:3546   */\n      tag_119\n      jump\t// in\n    tag_202:\n        /* \"#utility.yul\":3483:3546   */\n      swap2\n      pop\n        /* \"#utility.yul\":3438:3556   */\n      pop\n        /* \"#utility.yul\":2909:3563   */\n      swap3\n      pop\n      swap3\n      swap1\n      pop\n      jump\t// out\n        /* \"#utility.yul\":3569:3687   */\n    tag_120:\n        /* \"#utility.yul\":3656:3680   */\n      tag_204\n        /* \"#utility.yul\":3674:3679   */\n      dup2\n        /* \"#utility.yul\":3656:3680   */\n      tag_117\n      jump\t// in\n    tag_204:\n        /* \"#utility.yul\":3651:3654   */\n      dup3\n        /* \"#utility.yul\":3644:3681   */\n      mstore\n        /* \"#utility.yul\":3569:3687   */\n      pop\n      pop\n      jump\t// out\n        /* \"#utility.yul\":3693:3915   */\n    tag_18:\n        /* \"#utility.yul\":3786:3790   */\n      0x00\n        /* \"#utility.yul\":3824:3826   */\n      0x20\n        /* \"#utility.yul\":3813:3822   */\n      dup3\n        /* \"#utility.yul\":3809:3827   */\n      add\n        /* \"#utility.yul\":3801:3827   */\n      swap1\n      pop\n        /* \"#utility.yul\":3837:3908   */\n      tag_206\n        /* \"#utility.yul\":3905:3906   */\n      0x00\n        /* \"#utility.yul\":3894:3903   */\n      dup4\n        /* \"#utility.yul\":3890:3907   */\n      add\n        /* \"#utility.yul\":3881:3887   */\n      dup5\n        /* \"#utility.yul\":3837:3908   */\n      tag_120\n      jump\t// in\n    tag_206:\n        /* \"#utility.yul\":3693:3915   */\n      swap3\n      swap2\n      pop\n      pop\n      jump\t// out\n        /* \"#utility.yul\":3921:4047   */\n    tag_121:\n        /* \"#utility.yul\":3958:3965   */\n      0x00\n        /* \"#utility.yul\":3998:4040   */\n      0xffffffffffffffffffffffffffffffffffffffff\n        /* \"#utility.yul\":3991:3996   */\n      dup3\n        /* \"#utility.yul\":3987:4041   */\n      and\n        /* \"#utility.yul\":3976:4041   */\n      swap1\n      pop\n        /* \"#utility.yul\":3921:4047   */\n      swap2\n      swap1\n      pop\n      jump\t// out\n        /* \"#utility.yul\":4053:4149   */\n    tag_122:\n        /* \"#utility.yul\":4090:4097   */\n      0x00\n        /* \"#utility.yul\":4119:4143   */\n      tag_209\n        /* \"#utility.yul\":4137:4142   */\n      dup3\n        /* \"#utility.yul\":4119:4143   */\n      tag_121\n      jump\t// in\n    tag_209:\n        /* \"#utility.yul\":4108:4143   */\n      swap1\n      pop\n        /* \"#utility.yul\":4053:4149   */\n      swap2\n      swap1\n      pop\n      jump\t// out\n        /* \"#utility.yul\":4155:4277   */\n    tag_123:\n        /* \"#utility.yul\":4228:4252   */\n      tag_211\n        /* \"#utility.yul\":4246:4251   */\n      dup2\n        /* \"#utility.yul\":4228:4252   */\n      tag_122\n      jump\t// in\n    tag_211:\n        /* \"#utility.yul\":4221:4226   */\n      dup2\n        /* \"#utility.yul\":4218:4253   */\n      eq\n        /* \"#utility.yul\":4208:4271   */\n      tag_212\n      jumpi\n        /* \"#utility.yul\":4267:4268   */\n      0x00\n        /* \"#utility.yul\":4264:4265   */\n      dup1\n        /* \"#utility.yul\":4257:4269   */\n      revert\n        /* \"#utility.yul\":4208:4271   */\n    tag_212:\n        /* \"#utility.yul\":4155:4277   */\n      pop\n      jump\t// out\n        /* \"#utility.yul\":4283:4422   */\n    tag_124:\n        /* \"#utility.yul\":4329:4334   */\n      0x00\n        /* \"#utility.yul\":4367:4373   */\n      dup2\n        /* \"#utility.yul\":4354:4374   */\n      calldataload\n        /* \"#utility.yul\":4345:4374   */\n      swap1\n      pop\n        /* \"#utility.yul\":4383:4416   */\n      tag_214\n        /* \"#utility.yul\":4410:4415   */\n      dup2\n        /* \"#utility.yul\":4383:4416   */\n      tag_123\n      jump\t// in\n    tag_214:\n        /* \"#utility.yul\":4283:4422   */\n      swap3\n      swap2\n      pop\n      pop\n      jump\t// out\n        /* \"#utility.yul\":4428:4902   */\n    tag_21:\n        /* \"#utility.yul\":4496:4502   */\n      0x00\n        /* \"#utility.yul\":4504:4510   */\n      dup1\n        /* \"#utility.yul\":4553:4555   */\n      0x40\n        /* \"#utility.yul\":4541:4550   */\n      dup4\n        /* \"#utility.yul\":4532:4539   */\n      dup6\n        /* \"#utility.yul\":4528:4551   */\n      sub\n        /* \"#utility.yul\":4524:4556   */\n      slt\n        /* \"#utility.yul\":4521:4640   */\n      iszero\n      tag_216\n      jumpi\n        /* \"#utility.yul\":4559:4638   */\n      tag_217\n      tag_105\n      jump\t// in\n    tag_217:\n        /* \"#utility.yul\":4521:4640   */\n    tag_216:\n        /* \"#utility.yul\":4679:4680   */\n      0x00\n        /* \"#utility.yul\":4704:4757   */\n      tag_218\n        /* \"#utility.yul\":4749:4756   */\n      dup6\n        /* \"#utility.yul\":4740:4746   */\n      dup3\n        /* \"#utility.yul\":4729:4738   */\n      dup7\n        /* \"#utility.yul\":4725:4747   */\n      add\n        /* \"#utility.yul\":4704:4757   */\n      tag_119\n      jump\t// in\n    tag_218:\n        /* \"#utility.yul\":4694:4757   */\n      swap3\n      pop\n        /* \"#utility.yul\":4650:4767   */\n      pop\n        /* \"#utility.yul\":4806:4808   */\n      0x20\n        /* \"#utility.yul\":4832:4885   */\n      tag_219\n        /* \"#utility.yul\":4877:4884   */\n      dup6\n        /* \"#utility.yul\":4868:4874   */\n      dup3\n        /* \"#utility.yul\":4857:4866   */\n      dup7\n        /* \"#utility.yul\":4853:4875   */\n      add\n        /* \"#utility.yul\":4832:4885   */\n      tag_124\n      jump\t// in\n    tag_219:\n        /* \"#utility.yul\":4822:4885   */\n      swap2\n      pop\n        /* \"#utility.yul\":4777:4895   */\n      pop\n        /* \"#utility.yul\":4428:4902   */\n      swap3\n      pop\n      swap3\n      swap1\n      pop\n      jump\t// out\n        /* \"#utility.yul\":4908:5527   */\n    tag_28:\n        /* \"#utility.yul\":4985:4991   */\n      0x00\n        /* \"#utility.yul\":4993:4999   */\n      dup1\n        /* \"#utility.yul\":5001:5007   */\n      0x00\n        /* \"#utility.yul\":5050:5052   */\n      0x60\n        /* \"#utility.yul\":5038:5047   */\n      dup5\n        /* \"#utility.yul\":5029:5036   */\n      dup7\n        /* \"#utility.yul\":5025:5048   */\n      sub\n        /* \"#utility.yul\":5021:5053   */\n      slt\n        /* \"#utility.yul\":5018:5137   */\n      iszero\n      tag_221\n      jumpi\n        /* \"#utility.yul\":5056:5135   */\n      tag_222\n      tag_105\n      jump\t// in\n    tag_222:\n        /* \"#utility.yul\":5018:5137   */\n    tag_221:\n        /* \"#utility.yul\":5176:5177   */\n      0x00\n        /* \"#utility.yul\":5201:5254   */\n      tag_223\n        /* \"#utility.yul\":5246:5253   */\n      dup7\n        /* \"#utility.yul\":5237:5243   */\n      dup3\n        /* \"#utility.yul\":5226:5235   */\n      dup8\n        /* \"#utility.yul\":5222:5244   */\n      add\n        /* \"#utility.yul\":5201:5254   */\n      tag_119\n      jump\t// in\n    tag_223:\n        /* \"#utility.yul\":5191:5254   */\n      swap4\n      pop\n        /* \"#utility.yul\":5147:5264   */\n      pop\n        /* \"#utility.yul\":5303:5305   */\n      0x20\n        /* \"#utility.yul\":5329:5382   */\n      tag_224\n        /* \"#utility.yul\":5374:5381   */\n      dup7\n        /* \"#utility.yul\":5365:5371   */\n      dup3\n        /* \"#utility.yul\":5354:5363   */\n      dup8\n        /* \"#utility.yul\":5350:5372   */\n      add\n        /* \"#utility.yul\":5329:5382   */\n      tag_124\n      jump\t// in\n    tag_224:\n        /* \"#utility.yul\":5319:5382   */\n      swap3\n      pop\n        /* \"#utility.yul\":5274:5392   */\n      pop\n        /* \"#utility.yul\":5431:5433   */\n      0x40\n        /* \"#utility.yul\":5457:5510   */\n      tag_225\n        /* \"#utility.yul\":5502:5509   */\n      dup7\n        /* \"#utility.yul\":5493:5499   */\n      dup3\n        /* \"#utility.yul\":5482:5491   */\n      dup8\n        /* \"#utility.yul\":5478:5500   */\n      add\n        /* \"#utility.yul\":5457:5510   */\n      tag_119\n      jump\t// in\n    tag_225:\n        /* \"#utility.yul\":5447:5510   */\n      swap2\n      pop\n        /* \"#utility.yul\":5402:5520   */\n      pop\n        /* \"#utility.yul\":4908:5527   */\n      swap3\n      pop\n      swap3\n      pop\n      swap3\n      jump\t// out\n        /* \"#utility.yul\":5533:5862   */\n    tag_32:\n        /* \"#utility.yul\":5592:5598   */\n      0x00\n        /* \"#utility.yul\":5641:5643   */\n      0x20\n        /* \"#utility.yul\":5629:5638   */\n      dup3\n        /* \"#utility.yul\":5620:5627   */\n      dup5\n        /* \"#utility.yul\":5616:5639   */\n      sub\n        /* \"#utility.yul\":5612:5644   */\n      slt\n        /* \"#utility.yul\":5609:5728   */\n      iszero\n      tag_227\n      jumpi\n        /* \"#utility.yul\":5647:5726   */\n      tag_228\n      tag_105\n      jump\t// in\n    tag_228:\n        /* \"#utility.yul\":5609:5728   */\n    tag_227:\n        /* \"#utility.yul\":5767:5768   */\n      0x00\n        /* \"#utility.yul\":5792:5845   */\n      tag_229\n        /* \"#utility.yul\":5837:5844   */\n      dup5\n        /* \"#utility.yul\":5828:5834   */\n      dup3\n        /* \"#utility.yul\":5817:5826   */\n      dup6\n        /* \"#utility.yul\":5813:5835   */\n      add\n        /* \"#utility.yul\":5792:5845   */\n      tag_119\n      jump\t// in\n    tag_229:\n        /* \"#utility.yul\":5782:5845   */\n      swap2\n      pop\n        /* \"#utility.yul\":5738:5855   */\n      pop\n        /* \"#utility.yul\":5533:5862   */\n      swap3\n      swap2\n      pop\n      pop\n      jump\t// out\n        /* \"#utility.yul\":5868:5986   */\n    tag_125:\n        /* \"#utility.yul\":5955:5979   */\n      tag_231\n        /* \"#utility.yul\":5973:5978   */\n      dup2\n        /* \"#utility.yul\":5955:5979   */\n      tag_122\n      jump\t// in\n    tag_231:\n        /* \"#utility.yul\":5950:5953   */\n      dup3\n        /* \"#utility.yul\":5943:5980   */\n      mstore\n        /* \"#utility.yul\":5868:5986   */\n      pop\n      pop\n      jump\t// out\n        /* \"#utility.yul\":5992:6214   */\n    tag_38:\n        /* \"#utility.yul\":6085:6089   */\n      0x00\n        /* \"#utility.yul\":6123:6125   */\n      0x20\n        /* \"#utility.yul\":6112:6121   */\n      dup3\n        /* \"#utility.yul\":6108:6126   */\n      add\n        /* \"#utility.yul\":6100:6126   */\n      swap1\n      pop\n        /* \"#utility.yul\":6136:6207   */\n      tag_233\n        /* \"#utility.yul\":6204:6205   */\n      0x00\n        /* \"#utility.yul\":6193:6202   */\n      dup4\n        /* \"#utility.yul\":6189:6206   */\n      add\n        /* \"#utility.yul\":6180:6186   */\n      dup5\n        /* \"#utility.yul\":6136:6207   */\n      tag_125\n      jump\t// in\n    tag_233:\n        /* \"#utility.yul\":5992:6214   */\n      swap3\n      swap2\n      pop\n      pop\n      jump\t// out\n        /* \"#utility.yul\":6220:6319   */\n    tag_126:\n        /* \"#utility.yul\":6272:6278   */\n      0x00\n        /* \"#utility.yul\":6306:6311   */\n      dup2\n        /* \"#utility.yul\":6300:6312   */\n      mload\n        /* \"#utility.yul\":6290:6312   */\n      swap1\n      pop\n        /* \"#utility.yul\":6220:6319   */\n      swap2\n      swap1\n      pop\n      jump\t// out\n        /* \"#utility.yul\":6325:6494   */\n    tag_127:\n        /* \"#utility.yul\":6409:6420   */\n      0x00\n        /* \"#utility.yul\":6443:6449   */\n      dup3\n        /* \"#utility.yul\":6438:6441   */\n      dup3\n        /* \"#utility.yul\":6431:6450   */\n      mstore\n        /* \"#utility.yul\":6483:6487   */\n      0x20\n        /* \"#utility.yul\":6478:6481   */\n      dup3\n        /* \"#utility.yul\":6474:6488   */\n      add\n        /* \"#utility.yul\":6459:6488   */\n      swap1\n      pop\n        /* \"#utility.yul\":6325:6494   */\n      swap3\n      swap2\n      pop\n      pop\n      jump\t// out\n        /* \"#utility.yul\":6500:6746   */\n    tag_128:\n        /* \"#utility.yul\":6581:6582   */\n      0x00\n        /* \"#utility.yul\":6591:6704   */\n    tag_237:\n        /* \"#utility.yul\":6605:6611   */\n      dup4\n        /* \"#utility.yul\":6602:6603   */\n      dup2\n        /* \"#utility.yul\":6599:6612   */\n      lt\n        /* \"#utility.yul\":6591:6704   */\n      iszero\n      tag_239\n      jumpi\n        /* \"#utility.yul\":6690:6691   */\n      dup1\n        /* \"#utility.yul\":6685:6688   */\n      dup3\n        /* \"#utility.yul\":6681:6692   */\n      add\n        /* \"#utility.yul\":6675:6693   */\n      mload\n        /* \"#utility.yul\":6671:6672   */\n      dup2\n        /* \"#utility.yul\":6666:6669   */\n      dup5\n        /* \"#utility.yul\":6662:6673   */\n      add\n        /* \"#utility.yul\":6655:6694   */\n      mstore\n        /* \"#utility.yul\":6627:6629   */\n      0x20\n        /* \"#utility.yul\":6624:6625   */\n      dup2\n        /* \"#utility.yul\":6620:6630   */\n      add\n        /* \"#utility.yul\":6615:6630   */\n      swap1\n      pop\n        /* \"#utility.yul\":6591:6704   */\n      jump(tag_237)\n    tag_239:\n        /* \"#utility.yul\":6738:6739   */\n      0x00\n        /* \"#utility.yul\":6729:6735   */\n      dup5\n        /* \"#utility.yul\":6724:6727   */\n      dup5\n        /* \"#utility.yul\":6720:6736   */\n      add\n        /* \"#utility.yul\":6713:6740   */\n      mstore\n        /* \"#utility.yul\":6562:6746   */\n      pop\n        /* \"#utility.yul\":6500:6746   */\n      pop\n      pop\n      pop\n      jump\t// out\n        /* \"#utility.yul\":6752:7129   */\n    tag_129:\n        /* \"#utility.yul\":6840:6843   */\n      0x00\n        /* \"#utility.yul\":6868:6907   */\n      tag_241\n        /* \"#utility.yul\":6901:6906   */\n      dup3\n        /* \"#utility.yul\":6868:6907   */\n      tag_126\n      jump\t// in\n    tag_241:\n        /* \"#utility.yul\":6923:6994   */\n      tag_242\n        /* \"#utility.yul\":6987:6993   */\n      dup2\n        /* \"#utility.yul\":6982:6985   */\n      dup6\n        /* \"#utility.yul\":6923:6994   */\n      tag_127\n      jump\t// in\n    tag_242:\n        /* \"#utility.yul\":6916:6994   */\n      swap4\n      pop\n        /* \"#utility.yul\":7003:7068   */\n      tag_243\n        /* \"#utility.yul\":7061:7067   */\n      dup2\n        /* \"#utility.yul\":7056:7059   */\n      dup6\n        /* \"#utility.yul\":7049:7053   */\n      0x20\n        /* \"#utility.yul\":7042:7047   */\n      dup7\n        /* \"#utility.yul\":7038:7054   */\n      add\n        /* \"#utility.yul\":7003:7068   */\n      tag_128\n      jump\t// in\n    tag_243:\n        /* \"#utility.yul\":7093:7122   */\n      tag_244\n        /* \"#utility.yul\":7115:7121   */\n      dup2\n        /* \"#utility.yul\":7093:7122   */\n      tag_109\n      jump\t// in\n    tag_244:\n        /* \"#utility.yul\":7088:7091   */\n      dup5\n        /* \"#utility.yul\":7084:7123   */\n      add\n        /* \"#utility.yul\":7077:7123   */\n      swap2\n      pop\n        /* \"#utility.yul\":6844:7129   */\n      pop\n        /* \"#utility.yul\":6752:7129   */\n      swap3\n      swap2\n      pop\n      pop\n      jump\t// out\n        /* \"#utility.yul\":7135:7558   */\n    tag_43:\n        /* \"#utility.yul\":7276:7280   */\n      0x00\n        /* \"#utility.yul\":7314:7316   */\n      0x40\n        /* \"#utility.yul\":7303:7312   */\n      dup3\n        /* \"#utility.yul\":7299:7317   */\n      add\n        /* \"#utility.yul\":7291:7317   */\n      swap1\n      pop\n        /* \"#utility.yul\":7363:7372   */\n      dup2\n        /* \"#utility.yul\":7357:7361   */\n      dup2\n        /* \"#utility.yul\":7353:7373   */\n      sub\n        /* \"#utility.yul\":7349:7350   */\n      0x00\n        /* \"#utility.yul\":7338:7347   */\n      dup4\n        /* \"#utility.yul\":7334:7351   */\n      add\n        /* \"#utility.yul\":7327:7374   */\n      mstore\n        /* \"#utility.yul\":7391:7469   */\n      tag_246\n        /* \"#utility.yul\":7464:7468   */\n      dup2\n        /* \"#utility.yul\":7455:7461   */\n      dup6\n        /* \"#utility.yul\":7391:7469   */\n      tag_129\n      jump\t// in\n    tag_246:\n        /* \"#utility.yul\":7383:7469   */\n      swap1\n      pop\n        /* \"#utility.yul\":7479:7551   */\n      tag_247\n        /* \"#utility.yul\":7547:7549   */\n      0x20\n        /* \"#utility.yul\":7536:7545   */\n      dup4\n        /* \"#utility.yul\":7532:7550   */\n      add\n        /* \"#utility.yul\":7523:7529   */\n      dup5\n        /* \"#utility.yul\":7479:7551   */\n      tag_120\n      jump\t// in\n    tag_247:\n        /* \"#utility.yul\":7135:7558   */\n      swap4\n      swap3\n      pop\n      pop\n      pop\n      jump\t// out\n        /* \"#utility.yul\":7564:7678   */\n    tag_130:\n        /* \"#utility.yul\":7631:7637   */\n      0x00\n        /* \"#utility.yul\":7665:7670   */\n      dup2\n        /* \"#utility.yul\":7659:7671   */\n      mload\n        /* \"#utility.yul\":7649:7671   */\n      swap1\n      pop\n        /* \"#utility.yul\":7564:7678   */\n      swap2\n      swap1\n      pop\n      jump\t// out\n        /* \"#utility.yul\":7684:7868   */\n    tag_131:\n        /* \"#utility.yul\":7783:7794   */\n      0x00\n        /* \"#utility.yul\":7817:7823   */\n      dup3\n        /* \"#utility.yul\":7812:7815   */\n      dup3\n        /* \"#utility.yul\":7805:7824   */\n      mstore\n        /* \"#utility.yul\":7857:7861   */\n      0x20\n        /* \"#utility.yul\":7852:7855   */\n      dup3\n        /* \"#utility.yul\":7848:7862   */\n      add\n        /* \"#utility.yul\":7833:7862   */\n      swap1\n      pop\n        /* \"#utility.yul\":7684:7868   */\n      swap3\n      swap2\n      pop\n      pop\n      jump\t// out\n        /* \"#utility.yul\":7874:8006   */\n    tag_132:\n        /* \"#utility.yul\":7941:7945   */\n      0x00\n        /* \"#utility.yul\":7964:7967   */\n      dup2\n        /* \"#utility.yul\":7956:7967   */\n      swap1\n      pop\n        /* \"#utility.yul\":7994:7998   */\n      0x20\n        /* \"#utility.yul\":7989:7992   */\n      dup3\n        /* \"#utility.yul\":7985:7999   */\n      add\n        /* \"#utility.yul\":7977:7999   */\n      swap1\n      pop\n        /* \"#utility.yul\":7874:8006   */\n      swap2\n      swap1\n      pop\n      jump\t// out\n        /* \"#utility.yul\":8012:8120   */\n    tag_133:\n        /* \"#utility.yul\":8089:8113   */\n      tag_252\n        /* \"#utility.yul\":8107:8112   */\n      dup2\n        /* \"#utility.yul\":8089:8113   */\n      tag_117\n      jump\t// in\n    tag_252:\n        /* \"#utility.yul\":8084:8087   */\n      dup3\n        /* \"#utility.yul\":8077:8114   */\n      mstore\n        /* \"#utility.yul\":8012:8120   */\n      pop\n      pop\n      jump\t// out\n        /* \"#utility.yul\":8126:8305   */\n    tag_134:\n        /* \"#utility.yul\":8195:8205   */\n      0x00\n        /* \"#utility.yul\":8216:8262   */\n      tag_254\n        /* \"#utility.yul\":8258:8261   */\n      dup4\n        /* \"#utility.yul\":8250:8256   */\n      dup4\n        /* \"#utility.yul\":8216:8262   */\n      tag_133\n      jump\t// in\n    tag_254:\n        /* \"#utility.yul\":8294:8298   */\n      0x20\n        /* \"#utility.yul\":8289:8292   */\n      dup4\n        /* \"#utility.yul\":8285:8299   */\n      add\n        /* \"#utility.yul\":8271:8299   */\n      swap1\n      pop\n        /* \"#utility.yul\":8126:8305   */\n      swap3\n      swap2\n      pop\n      pop\n      jump\t// out\n        /* \"#utility.yul\":8311:8424   */\n    tag_135:\n        /* \"#utility.yul\":8381:8385   */\n      0x00\n        /* \"#utility.yul\":8413:8417   */\n      0x20\n        /* \"#utility.yul\":8408:8411   */\n      dup3\n        /* \"#utility.yul\":8404:8418   */\n      add\n        /* \"#utility.yul\":8396:8418   */\n      swap1\n      pop\n        /* \"#utility.yul\":8311:8424   */\n      swap2\n      swap1\n      pop\n      jump\t// out\n        /* \"#utility.yul\":8460:9192   */\n    tag_136:\n        /* \"#utility.yul\":8579:8582   */\n      0x00\n        /* \"#utility.yul\":8608:8662   */\n      tag_257\n        /* \"#utility.yul\":8656:8661   */\n      dup3\n        /* \"#utility.yul\":8608:8662   */\n      tag_130\n      jump\t// in\n    tag_257:\n        /* \"#utility.yul\":8678:8764   */\n      tag_258\n        /* \"#utility.yul\":8757:8763   */\n      dup2\n        /* \"#utility.yul\":8752:8755   */\n      dup6\n        /* \"#utility.yul\":8678:8764   */\n      tag_131\n      jump\t// in\n    tag_258:\n        /* \"#utility.yul\":8671:8764   */\n      swap4\n      pop\n        /* \"#utility.yul\":8788:8844   */\n      tag_259\n        /* \"#utility.yul\":8838:8843   */\n      dup4\n        /* \"#utility.yul\":8788:8844   */\n      tag_132\n      jump\t// in\n    tag_259:\n        /* \"#utility.yul\":8867:8874   */\n      dup1\n        /* \"#utility.yul\":8898:8899   */\n      0x00\n        /* \"#utility.yul\":8883:9167   */\n    tag_260:\n        /* \"#utility.yul\":8908:8914   */\n      dup4\n        /* \"#utility.yul\":8905:8906   */\n      dup2\n        /* \"#utility.yul\":8902:8915   */\n      lt\n        /* \"#utility.yul\":8883:9167   */\n      iszero\n      tag_262\n      jumpi\n        /* \"#utility.yul\":8984:8990   */\n      dup2\n        /* \"#utility.yul\":8978:8991   */\n      mload\n        /* \"#utility.yul\":9011:9074   */\n      tag_263\n        /* \"#utility.yul\":9070:9073   */\n      dup9\n        /* \"#utility.yul\":9055:9068   */\n      dup3\n        /* \"#utility.yul\":9011:9074   */\n      tag_134\n      jump\t// in\n    tag_263:\n        /* \"#utility.yul\":9004:9074   */\n      swap8\n      pop\n        /* \"#utility.yul\":9097:9157   */\n      tag_264\n        /* \"#utility.yul\":9150:9156   */\n      dup4\n        /* \"#utility.yul\":9097:9157   */\n      tag_135\n      jump\t// in\n    tag_264:\n        /* \"#utility.yul\":9087:9157   */\n      swap3\n      pop\n        /* \"#utility.yul\":8943:9167   */\n      pop\n        /* \"#utility.yul\":8930:8931   */\n      0x01\n        /* \"#utility.yul\":8927:8928   */\n      dup2\n        /* \"#utility.yul\":8923:8932   */\n      add\n        /* \"#utility.yul\":8918:8932   */\n      swap1\n      pop\n        /* \"#utility.yul\":8883:9167   */\n      jump(tag_260)\n    tag_262:\n        /* \"#utility.yul\":8887:8901   */\n      pop\n        /* \"#utility.yul\":9183:9186   */\n      dup6\n        /* \"#utility.yul\":9176:9186   */\n      swap4\n      pop\n        /* \"#utility.yul\":8584:9192   */\n      pop\n      pop\n      pop\n        /* \"#utility.yul\":8460:9192   */\n      swap3\n      swap2\n      pop\n      pop\n      jump\t// out\n        /* \"#utility.yul\":9198:9571   */\n    tag_47:\n        /* \"#utility.yul\":9341:9345   */\n      0x00\n        /* \"#utility.yul\":9379:9381   */\n      0x20\n        /* \"#utility.yul\":9368:9377   */\n      dup3\n        /* \"#utility.yul\":9364:9382   */\n      add\n        /* \"#utility.yul\":9356:9382   */\n      swap1\n      pop\n        /* \"#utility.yul\":9428:9437   */\n      dup2\n        /* \"#utility.yul\":9422:9426   */\n      dup2\n        /* \"#utility.yul\":9418:9438   */\n      sub\n        /* \"#utility.yul\":9414:9415   */\n      0x00\n        /* \"#utility.yul\":9403:9412   */\n      dup4\n        /* \"#utility.yul\":9399:9416   */\n      add\n        /* \"#utility.yul\":9392:9439   */\n      mstore\n        /* \"#utility.yul\":9456:9564   */\n      tag_266\n        /* \"#utility.yul\":9559:9563   */\n      dup2\n        /* \"#utility.yul\":9550:9556   */\n      dup5\n        /* \"#utility.yul\":9456:9564   */\n      tag_136\n      jump\t// in\n    tag_266:\n        /* \"#utility.yul\":9448:9564   */\n      swap1\n      pop\n        /* \"#utility.yul\":9198:9571   */\n      swap3\n      swap2\n      pop\n      pop\n      jump\t// out\n        /* \"#utility.yul\":9577:9906   */\n    tag_50:\n        /* \"#utility.yul\":9636:9642   */\n      0x00\n        /* \"#utility.yul\":9685:9687   */\n      0x20\n        /* \"#utility.yul\":9673:9682   */\n      dup3\n        /* \"#utility.yul\":9664:9671   */\n      dup5\n        /* \"#utility.yul\":9660:9683   */\n      sub\n        /* \"#utility.yul\":9656:9688   */\n      slt\n        /* \"#utility.yul\":9653:9772   */\n      iszero\n      tag_268\n      jumpi\n        /* \"#utility.yul\":9691:9770   */\n      tag_269\n      tag_105\n      jump\t// in\n    tag_269:\n        /* \"#utility.yul\":9653:9772   */\n    tag_268:\n        /* \"#utility.yul\":9811:9812   */\n      0x00\n        /* \"#utility.yul\":9836:9889   */\n      tag_270\n        /* \"#utility.yul\":9881:9888   */\n      dup5\n        /* \"#utility.yul\":9872:9878   */\n      dup3\n        /* \"#utility.yul\":9861:9870   */\n      dup6\n        /* \"#utility.yul\":9857:9879   */\n      add\n        /* \"#utility.yul\":9836:9889   */\n      tag_124\n      jump\t// in\n    tag_270:\n        /* \"#utility.yul\":9826:9889   */\n      swap2\n      pop\n        /* \"#utility.yul\":9782:9899   */\n      pop\n        /* \"#utility.yul\":9577:9906   */\n      swap3\n      swap2\n      pop\n      pop\n      jump\t// out\n        /* \"#utility.yul\":9912:10092   */\n    tag_137:\n        /* \"#utility.yul\":9960:10037   */\n      0x4e487b7100000000000000000000000000000000000000000000000000000000\n        /* \"#utility.yul\":9957:9958   */\n      0x00\n        /* \"#utility.yul\":9950:10038   */\n      mstore\n        /* \"#utility.yul\":10057:10061   */\n      0x11\n        /* \"#utility.yul\":10054:10055   */\n      0x04\n        /* \"#utility.yul\":10047:10062   */\n      mstore\n        /* \"#utility.yul\":10081:10085   */\n      0x24\n        /* \"#utility.yul\":10078:10079   */\n      0x00\n        /* \"#utility.yul\":10071:10086   */\n      revert\n        /* \"#utility.yul\":10098:10331   */\n    tag_57:\n        /* \"#utility.yul\":10137:10140   */\n      0x00\n        /* \"#utility.yul\":10160:10184   */\n      tag_273\n        /* \"#utility.yul\":10178:10183   */\n      dup3\n        /* \"#utility.yul\":10160:10184   */\n      tag_117\n      jump\t// in\n    tag_273:\n        /* \"#utility.yul\":10151:10184   */\n      swap2\n      pop\n        /* \"#utility.yul\":10206:10272   */\n      0xffffffffffffffffffffffffffffffffffffffffffffffffffffffffffffffff\n        /* \"#utility.yul\":10199:10204   */\n      dup3\n        /* \"#utility.yul\":10196:10273   */\n      sub\n        /* \"#utility.yul\":10193:10296   */\n      tag_274\n      jumpi\n        /* \"#utility.yul\":10276:10294   */\n      tag_275\n      tag_137\n      jump\t// in\n    tag_275:\n        /* \"#utility.yul\":10193:10296   */\n    tag_274:\n        /* \"#utility.yul\":10323:10324   */\n      0x01\n        /* \"#utility.yul\":10316:10321   */\n      dup3\n        /* \"#utility.yul\":10312:10325   */\n      add\n        /* \"#utility.yul\":10305:10325   */\n      swap1\n      pop\n        /* \"#utility.yul\":10098:10331   */\n      swap2\n      swap1\n      pop\n      jump\t// out\n        /* \"#utility.yul\":10337:10517   */\n    tag_138:\n        /* \"#utility.yul\":10385:10462   */\n      0x4e487b7100000000000000000000000000000000000000000000000000000000\n        /* \"#utility.yul\":10382:10383   */\n      0x00\n        /* \"#utility.yul\":10375:10463   */\n      mstore\n        /* \"#utility.yul\":10482:10486   */\n      0x22\n        /* \"#utility.yul\":10479:10480   */\n      0x04\n        /* \"#utility.yul\":10472:10487   */\n      mstore\n        /* \"#utility.yul\":10506:10510   */\n      0x24\n        /* \"#utility.yul\":10503:10504   */\n      0x00\n        /* \"#utility.yul\":10496:10511   */\n      revert\n        /* \"#utility.yul\":10523:10843   */\n    tag_80:\n        /* \"#utility.yul\":10567:10573   */\n      0x00\n        /* \"#utility.yul\":10604:10605   */\n      0x02\n        /* \"#utility.yul\":10598:10602   */\n      dup3\n        /* \"#utility.yul\":10594:10606   */\n      div\n        /* \"#utility.yul\":10584:10606   */\n      swap1\n      pop\n        /* \"#utility.yul\":10651:10652   */\n      0x01\n        /* \"#utility.yul\":10645:10649   */\n      dup3\n        /* \"#utility.yul\":10641:10653   */\n      and\n        /* \"#utility.yul\":10672:10690   */\n      dup1\n        /* \"#utility.yul\":10662:10743   */\n      tag_278\n      jumpi\n        /* \"#utility.yul\":10728:10732   */\n      0x7f\n        /* \"#utility.yul\":10720:10726   */\n      dup3\n        /* \"#utility.yul\":10716:10733   */\n      and\n        /* \"#utility.yul\":10706:10733   */\n      swap2\n      pop\n        /* \"#utility.yul\":10662:10743   */\n    tag_278:\n        /* \"#utility.yul\":10790:10792   */\n      0x20\n        /* \"#utility.yul\":10782:10788   */\n      dup3\n        /* \"#utility.yul\":10779:10793   */\n      lt\n        /* \"#utility.yul\":10759:10777   */\n      dup2\n        /* \"#utility.yul\":10756:10794   */\n      sub\n        /* \"#utility.yul\":10753:10837   */\n      tag_279\n      jumpi\n        /* \"#utility.yul\":10809:10827   */\n      tag_280\n      tag_138\n      jump\t// in\n    tag_280:\n        /* \"#utility.yul\":10753:10837   */\n    tag_279:\n        /* \"#utility.yul\":10574:10843   */\n      pop\n        /* \"#utility.yul\":10523:10843   */\n      swap2\n      swap1\n      pop\n      jump\t// out\n        /* \"#utility.yul\":10849:10990   */\n    tag_139:\n        /* \"#utility.yul\":10898:10902   */\n      0x00\n        /* \"#utility.yul\":10921:10924   */\n      dup2\n        /* \"#utility.yul\":10913:10924   */\n      swap1\n      pop\n        /* \"#utility.yul\":10944:10947   */\n      dup2\n        /* \"#utility.yul\":10941:10942   */\n      0x00\n        /* \"#utility.yul\":10934:10948   */\n      mstore\n        /* \"#utility.yul\":10978:10982   */\n      0x20\n        /* \"#utility.yul\":10975:10976   */\n      0x00\n        /* \"#utility.yul\":10965:10983   */\n      keccak256\n        /* \"#utility.yul\":10957:10983   */\n      swap1\n      pop\n        /* \"#utility.yul\":10849:10990   */\n      swap2\n      swap1\n      pop\n      jump\t// out\n        /* \"#utility.yul\":10996:11089   */\n    tag_140:\n        /* \"#utility.yul\":11033:11039   */\n      0x00\n        /* \"#utility.yul\":11080:11082   */\n      0x20\n        /* \"#utility.yul\":11075:11077   */\n      0x1f\n        /* \"#utility.yul\":11068:11073   */\n      dup4\n        /* \"#utility.yul\":11064:11078   */\n      add\n        /* \"#utility.yul\":11060:11083   */\n      div\n        /* \"#utility.yul\":11050:11083   */\n      swap1\n      pop\n        /* \"#utility.yul\":10996:11089   */\n      swap2\n      swap1\n      pop\n      jump\t// out\n        /* \"#utility.yul\":11095:11202   */\n    tag_141:\n        /* \"#utility.yul\":11139:11147   */\n      0x00\n        /* \"#utility.yul\":11189:11194   */\n      dup3\n        /* \"#utility.yul\":11183:11187   */\n      dup3\n        /* \"#utility.yul\":11179:11195   */\n      shl\n        /* \"#utility.yul\":11158:11195   */\n      swap1\n      pop\n        /* \"#utility.yul\":11095:11202   */\n      swap3\n      swap2\n      pop\n      pop\n      jump\t// out\n        /* \"#utility.yul\":11208:11601   */\n    tag_142:\n        /* \"#utility.yul\":11277:11283   */\n      0x00\n        /* \"#utility.yul\":11327:11328   */\n      0x08\n        /* \"#utility.yul\":11315:11325   */\n      dup4\n        /* \"#utility.yul\":11311:11329   */\n      mul\n        /* \"#utility.yul\":11350:11447   */\n      tag_285\n        /* \"#utility.yul\":11380:11446   */\n      0xffffffffffffffffffffffffffffffffffffffffffffffffffffffffffffffff\n        /* \"#utility.yul\":11369:11378   */\n      dup3\n        /* \"#utility.yul\":11350:11447   */\n      tag_141\n      jump\t// in\n    tag_285:\n        /* \"#utility.yul\":11468:11507   */\n      tag_286\n        /* \"#utility.yul\":11498:11506   */\n      dup7\n        /* \"#utility.yul\":11487:11496   */\n      dup4\n        /* \"#utility.yul\":11468:11507   */\n      tag_141\n      jump\t// in\n    tag_286:\n        /* \"#utility.yul\":11456:11507   */\n      swap6\n      pop\n        /* \"#utility.yul\":11540:11544   */\n      dup1\n        /* \"#utility.yul\":11536:11545   */\n      not\n        /* \"#utility.yul\":11529:11534   */\n      dup5\n        /* \"#utility.yul\":11525:11546   */\n      and\n        /* \"#utility.yul\":11516:11546   */\n      swap4\n      pop\n        /* \"#utility.yul\":11589:11593   */\n      dup1\n        /* \"#utility.yul\":11579:11587   */\n      dup7\n        /* \"#utility.yul\":11575:11594   */\n      and\n        /* \"#utility.yul\":11568:11573   */\n      dup5\n        /* \"#utility.yul\":11565:11595   */\n      or\n        /* \"#utility.yul\":11555:11595   */\n      swap3\n      pop\n        /* \"#utility.yul\":11284:11601   */\n      pop\n      pop\n        /* \"#utility.yul\":11208:11601   */\n      swap4\n      swap3\n      pop\n      pop\n      pop\n      jump\t// out\n        /* \"#utility.yul\":11607:11667   */\n    tag_143:\n        /* \"#utility.yul\":11635:11638   */\n      0x00\n        /* \"#utility.yul\":11656:11661   */\n      dup2\n        /* \"#utility.yul\":11649:11661   */\n      swap1\n      pop\n        /* \"#utility.yul\":11607:11667   */\n      swap2\n      swap1\n      pop\n      jump\t// out\n        /* \"#utility.yul\":11673:11815   */\n    tag_144:\n        /* \"#utility.yul\":11723:11732   */\n      0x00\n        /* \"#utility.yul\":11756:11809   */\n      tag_289\n        /* \"#utility.yul\":11774:11808   */\n      tag_290\n        /* \"#utility.yul\":11783:11807   */\n      tag_291\n        /* \"#utility.yul\":11801:11806   */\n      dup5\n        /* \"#utility.yul\":11783:11807   */\n      tag_117\n      jump\t// in\n    tag_291:\n        /* \"#utility.yul\":11774:11808   */\n      tag_143\n      jump\t// in\n    tag_290:\n        /* \"#utility.yul\":11756:11809   */\n      tag_117\n      jump\t// in\n    tag_289:\n        /* \"#utility.yul\":11743:11809   */\n      swap1\n      pop\n        /* \"#utility.yul\":11673:11815   */\n      swap2\n      swap1\n      pop\n      jump\t// out\n        /* \"#utility.yul\":11821:11896   */\n    tag_145:\n        /* \"#utility.yul\":11864:11867   */\n      0x00\n        /* \"#utility.yul\":11885:11890   */\n      dup2\n        /* \"#utility.yul\":11878:11890   */\n      swap1\n      pop\n        /* \"#utility.yul\":11821:11896   */\n      swap2\n      swap1\n      pop\n      jump\t// out\n        /* \"#utility.yul\":11902:12171   */\n    tag_146:\n        /* \"#utility.yul\":12012:12051   */\n      tag_294\n        /* \"#utility.yul\":12043:12050   */\n      dup4\n        /* \"#utility.yul\":12012:12051   */\n      tag_144\n      jump\t// in\n    tag_294:\n        /* \"#utility.yul\":12073:12164   */\n      tag_295\n        /* \"#utility.yul\":12122:12163   */\n      tag_296\n        /* \"#utility.yul\":12146:12162   */\n      dup3\n        /* \"#utility.yul\":12122:12163   */\n      tag_145\n      jump\t// in\n    tag_296:\n        /* \"#utility.yul\":12114:12120   */\n      dup5\n        /* \"#utility.yul\":12107:12111   */\n      dup5\n        /* \"#utility.yul\":12101:12112   */\n      sload\n        /* \"#utility.yul\":12073:12164   */\n      tag_142\n      jump\t// in\n    tag_295:\n        /* \"#utility.yul\":12067:12071   */\n      dup3\n        /* \"#utility.yul\":12060:12165   */\n      sstore\n        /* \"#utility.yul\":11978:12171   */\n      pop\n        /* \"#utility.yul\":11902:12171   */\n      pop\n      pop\n      pop\n      jump\t// out\n        /* \"#utility.yul\":12177:12250   */\n    tag_147:\n        /* \"#utility.yul\":12222:12225   */\n      0x00\n        /* \"#utility.yul\":12177:12250   */\n      swap1\n      jump\t// out\n        /* \"#utility.yul\":12256:12445   */\n    tag_148:\n        /* \"#utility.yul\":12333:12365   */\n      tag_299\n      tag_147\n      jump\t// in\n    tag_299:\n        /* \"#utility.yul\":12374:12439   */\n      tag_300\n        /* \"#utility.yul\":12432:12438   */\n      dup2\n        /* \"#utility.yul\":12424:12430   */\n      dup5\n        /* \"#utility.yul\":12418:12422   */\n      dup5\n        /* \"#utility.yul\":12374:12439   */\n      tag_146\n      jump\t// in\n    tag_300:\n        /* \"#utility.yul\":12309:12445   */\n      pop\n        /* \"#utility.yul\":12256:12445   */\n      pop\n      pop\n      jump\t// out\n        /* \"#utility.yul\":12451:12637   */\n    tag_149:\n        /* \"#utility.yul\":12511:12631   */\n    tag_302:\n        /* \"#utility.yul\":12528:12531   */\n      dup2\n        /* \"#utility.yul\":12521:12526   */\n      dup2\n        /* \"#utility.yul\":12518:12532   */\n      lt\n        /* \"#utility.yul\":12511:12631   */\n      iszero\n      tag_304\n      jumpi\n        /* \"#utility.yul\":12582:12621   */\n      tag_305\n        /* \"#utility.yul\":12619:12620   */\n      0x00\n        /* \"#utility.yul\":12612:12617   */\n      dup3\n        /* \"#utility.yul\":12582:12621   */\n      tag_148\n      jump\t// in\n    tag_305:\n        /* \"#utility.yul\":12555:12556   */\n      0x01\n        /* \"#utility.yul\":12548:12553   */\n      dup2\n        /* \"#utility.yul\":12544:12557   */\n      add\n        /* \"#utility.yul\":12535:12557   */\n      swap1\n      pop\n        /* \"#utility.yul\":12511:12631   */\n      jump(tag_302)\n    tag_304:\n        /* \"#utility.yul\":12451:12637   */\n      pop\n      pop\n      jump\t// out\n        /* \"#utility.yul\":12643:13186   */\n    tag_150:\n        /* \"#utility.yul\":12744:12746   */\n      0x1f\n        /* \"#utility.yul\":12739:12742   */\n      dup3\n        /* \"#utility.yul\":12736:12747   */\n      gt\n        /* \"#utility.yul\":12733:13179   */\n      iszero\n      tag_307\n      jumpi\n        /* \"#utility.yul\":12778:12816   */\n      tag_308\n        /* \"#utility.yul\":12810:12815   */\n      dup2\n        /* \"#utility.yul\":12778:12816   */\n      tag_139\n      jump\t// in\n    tag_308:\n        /* \"#utility.yul\":12862:12891   */\n      tag_309\n        /* \"#utility.yul\":12880:12890   */\n      dup5\n        /* \"#utility.yul\":12862:12891   */\n      tag_140\n      jump\t// in\n    tag_309:\n        /* \"#utility.yul\":12852:12860   */\n      dup2\n        /* \"#utility.yul\":12848:12892   */\n      add\n        /* \"#utility.yul\":13045:13047   */\n      0x20\n        /* \"#utility.yul\":13033:13043   */\n      dup6\n        /* \"#utility.yul\":13030:13048   */\n      lt\n        /* \"#utility.yul\":13027:13076   */\n      iszero\n      tag_310\n      jumpi\n        /* \"#utility.yul\":13066:13074   */\n      dup2\n        /* \"#utility.yul\":13051:13074   */\n      swap1\n      pop\n        /* \"#utility.yul\":13027:13076   */\n    tag_310:\n        /* \"#utility.yul\":13089:13169   */\n      tag_311\n        /* \"#utility.yul\":13145:13167   */\n      tag_312\n        /* \"#utility.yul\":13163:13166   */\n      dup6\n        /* \"#utility.yul\":13145:13167   */\n      tag_140\n      jump\t// in\n    tag_312:\n        /* \"#utility.yul\":13135:13143   */\n      dup4\n        /* \"#utility.yul\":13131:13168   */\n      add\n        /* \"#utility.yul\":13118:13129   */\n      dup3\n        /* \"#utility.yul\":13089:13169   */\n      tag_149\n      jump\t// in\n    tag_311:\n        /* \"#utility.yul\":12748:13179   */\n      pop\n      pop\n        /* \"#utility.yul\":12733:13179   */\n    tag_307:\n        /* \"#utility.yul\":12643:13186   */\n      pop\n      pop\n      pop\n      jump\t// out\n        /* \"#utility.yul\":13192:13309   */\n    tag_151:\n        /* \"#utility.yul\":13246:13254   */\n      0x00\n        /* \"#utility.yul\":13296:13301   */\n      dup3\n        /* \"#utility.yul\":13290:13294   */\n      dup3\n        /* \"#utility.yul\":13286:13302   */\n      shr\n        /* \"#utility.yul\":13265:13302   */\n      swap1\n      pop\n        /* \"#utility.yul\":13192:13309   */\n      swap3\n      swap2\n      pop\n      pop\n      jump\t// out\n        /* \"#utility.yul\":13315:13484   */\n    tag_152:\n        /* \"#utility.yul\":13359:13365   */\n      0x00\n        /* \"#utility.yul\":13392:13443   */\n      tag_315\n        /* \"#utility.yul\":13440:13441   */\n      0x00\n        /* \"#utility.yul\":13436:13442   */\n      not\n        /* \"#utility.yul\":13428:13433   */\n      dup5\n        /* \"#utility.yul\":13425:13426   */\n      0x08\n        /* \"#utility.yul\":13421:13434   */\n      mul\n        /* \"#utility.yul\":13392:13443   */\n      tag_151\n      jump\t// in\n    tag_315:\n        /* \"#utility.yul\":13388:13444   */\n      not\n        /* \"#utility.yul\":13473:13477   */\n      dup1\n        /* \"#utility.yul\":13467:13471   */\n      dup4\n        /* \"#utility.yul\":13463:13478   */\n      and\n        /* \"#utility.yul\":13453:13478   */\n      swap2\n      pop\n        /* \"#utility.yul\":13366:13484   */\n      pop\n        /* \"#utility.yul\":13315:13484   */\n      swap3\n      swap2\n      pop\n      pop\n      jump\t// out\n        /* \"#utility.yul\":13489:13784   */\n    tag_153:\n        /* \"#utility.yul\":13565:13569   */\n      0x00\n        /* \"#utility.yul\":13711:13740   */\n      tag_317\n        /* \"#utility.yul\":13736:13739   */\n      dup4\n        /* \"#utility.yul\":13730:13734   */\n      dup4\n        /* \"#utility.yul\":13711:13740   */\n      tag_152\n      jump\t// in\n    tag_317:\n        /* \"#utility.yul\":13703:13740   */\n      swap2\n      pop\n        /* \"#utility.yul\":13773:13776   */\n      dup3\n        /* \"#utility.yul\":13770:13771   */\n      0x02\n        /* \"#utility.yul\":13766:13777   */\n      mul\n        /* \"#utility.yul\":13760:13764   */\n      dup3\n        /* \"#utility.yul\":13757:13778   */\n      or\n        /* \"#utility.yul\":13749:13778   */\n      swap1\n      pop\n        /* \"#utility.yul\":13489:13784   */\n      swap3\n      swap2\n      pop\n      pop\n      jump\t// out\n        /* \"#utility.yul\":13789:15184   */\n    tag_59:\n        /* \"#utility.yul\":13906:13943   */\n      tag_319\n        /* \"#utility.yul\":13939:13942   */\n      dup3\n        /* \"#utility.yul\":13906:13943   */\n      tag_126\n      jump\t// in\n    tag_319:\n        /* \"#utility.yul\":14008:14026   */\n      0xffffffffffffffff\n        /* \"#utility.yul\":14000:14006   */\n      dup2\n        /* \"#utility.yul\":13997:14027   */\n      gt\n        /* \"#utility.yul\":13994:14050   */\n      iszero\n      tag_320\n      jumpi\n        /* \"#utility.yul\":14030:14048   */\n      tag_321\n      tag_110\n      jump\t// in\n    tag_321:\n        /* \"#utility.yul\":13994:14050   */\n    tag_320:\n        /* \"#utility.yul\":14074:14112   */\n      tag_322\n        /* \"#utility.yul\":14106:14110   */\n      dup3\n        /* \"#utility.yul\":14100:14111   */\n      sload\n        /* \"#utility.yul\":14074:14112   */\n      tag_80\n      jump\t// in\n    tag_322:\n        /* \"#utility.yul\":14159:14226   */\n      tag_323\n        /* \"#utility.yul\":14219:14225   */\n      dup3\n        /* \"#utility.yul\":14211:14217   */\n      dup3\n        /* \"#utility.yul\":14205:14209   */\n      dup6\n        /* \"#utility.yul\":14159:14226   */\n      tag_150\n      jump\t// in\n    tag_323:\n        /* \"#utility.yul\":14253:14254   */\n      0x00\n        /* \"#utility.yul\":14277:14281   */\n      0x20\n        /* \"#utility.yul\":14264:14281   */\n      swap1\n      pop\n        /* \"#utility.yul\":14309:14311   */\n      0x1f\n        /* \"#utility.yul\":14301:14307   */\n      dup4\n        /* \"#utility.yul\":14298:14312   */\n      gt\n        /* \"#utility.yul\":14326:14327   */\n      0x01\n        /* \"#utility.yul\":14321:14939   */\n      dup2\n      eq\n      tag_325\n      jumpi\n        /* \"#utility.yul\":14983:14984   */\n      0x00\n        /* \"#utility.yul\":15000:15006   */\n      dup5\n        /* \"#utility.yul\":14997:15074   */\n      iszero\n      tag_326\n      jumpi\n        /* \"#utility.yul\":15049:15058   */\n      dup3\n        /* \"#utility.yul\":15044:15047   */\n      dup8\n        /* \"#utility.yul\":15040:15059   */\n      add\n        /* \"#utility.yul\":15034:15060   */\n      mload\n        /* \"#utility.yul\":15025:15060   */\n      swap1\n      pop\n        /* \"#utility.yul\":14997:15074   */\n    tag_326:\n        /* \"#utility.yul\":15100:15167   */\n      tag_327\n        /* \"#utility.yul\":15160:15166   */\n      dup6\n        /* \"#utility.yul\":15153:15158   */\n      dup3\n        /* \"#utility.yul\":15100:15167   */\n      tag_153\n      jump\t// in\n    tag_327:\n        /* \"#utility.yul\":15094:15098   */\n      dup7\n        /* \"#utility.yul\":15087:15168   */\n      sstore\n        /* \"#utility.yul\":14956:15178   */\n      pop\n        /* \"#utility.yul\":14291:15178   */\n      jump(tag_324)\n        /* \"#utility.yul\":14321:14939   */\n    tag_325:\n        /* \"#utility.yul\":14373:14377   */\n      0x1f\n        /* \"#utility.yul\":14369:14378   */\n      not\n        /* \"#utility.yul\":14361:14367   */\n      dup5\n        /* \"#utility.yul\":14357:14379   */\n      and\n        /* \"#utility.yul\":14407:14444   */\n      tag_328\n        /* \"#utility.yul\":14439:14443   */\n      dup7\n        /* \"#utility.yul\":14407:14444   */\n      tag_139\n      jump\t// in\n    tag_328:\n        /* \"#utility.yul\":14466:14467   */\n      0x00\n        /* \"#utility.yul\":14480:14688   */\n    tag_329:\n        /* \"#utility.yul\":14494:14501   */\n      dup3\n        /* \"#utility.yul\":14491:14492   */\n      dup2\n        /* \"#utility.yul\":14488:14502   */\n      lt\n        /* \"#utility.yul\":14480:14688   */\n      iszero\n      tag_331\n      jumpi\n        /* \"#utility.yul\":14573:14582   */\n      dup5\n        /* \"#utility.yul\":14568:14571   */\n      dup10\n        /* \"#utility.yul\":14564:14583   */\n      add\n        /* \"#utility.yul\":14558:14584   */\n      mload\n        /* \"#utility.yul\":14550:14556   */\n      dup3\n        /* \"#utility.yul\":14543:14585   */\n      sstore\n        /* \"#utility.yul\":14624:14625   */\n      0x01\n        /* \"#utility.yul\":14616:14622   */\n      dup3\n        /* \"#utility.yul\":14612:14626   */\n      add\n        /* \"#utility.yul\":14602:14626   */\n      swap2\n      pop\n        /* \"#utility.yul\":14671:14673   */\n      0x20\n        /* \"#utility.yul\":14660:14669   */\n      dup6\n        /* \"#utility.yul\":14656:14674   */\n      add\n        /* \"#utility.yul\":14643:14674   */\n      swap5\n      pop\n        /* \"#utility.yul\":14517:14521   */\n      0x20\n        /* \"#utility.yul\":14514:14515   */\n      dup2\n        /* \"#utility.yul\":14510:14522   */\n      add\n        /* \"#utility.yul\":14505:14522   */\n      swap1\n      pop\n        /* \"#utility.yul\":14480:14688   */\n      jump(tag_329)\n    tag_331:\n        /* \"#utility.yul\":14716:14722   */\n      dup7\n        /* \"#utility.yul\":14707:14714   */\n      dup4\n        /* \"#utility.yul\":14704:14723   */\n      lt\n        /* \"#utility.yul\":14701:14880   */\n      iszero\n      tag_332\n      jumpi\n        /* \"#utility.yul\":14774:14783   */\n      dup5\n        /* \"#utility.yul\":14769:14772   */\n      dup10\n        /* \"#utility.yul\":14765:14784   */\n      add\n        /* \"#utility.yul\":14759:14785   */\n      mload\n        /* \"#utility.yul\":14817:14865   */\n      tag_333\n        /* \"#utility.yul\":14859:14863   */\n      0x1f\n        /* \"#utility.yul\":14851:14857   */\n      dup10\n        /* \"#utility.yul\":14847:14864   */\n      and\n        /* \"#utility.yul\":14836:14845   */\n      dup3\n        /* \"#utility.yul\":14817:14865   */\n      tag_152\n      jump\t// in\n    tag_333:\n        /* \"#utility.yul\":14809:14815   */\n      dup4\n        /* \"#utility.yul\":14802:14866   */\n      sstore\n        /* \"#utility.yul\":14724:14880   */\n      pop\n        /* \"#utility.yul\":14701:14880   */\n    tag_332:\n        /* \"#utility.yul\":14926:14927   */\n      0x01\n        /* \"#utility.yul\":14922:14923   */\n      0x02\n        /* \"#utility.yul\":14914:14920   */\n      dup9\n        /* \"#utility.yul\":14910:14924   */\n      mul\n        /* \"#utility.yul\":14906:14928   */\n      add\n        /* \"#utility.yul\":14900:14904   */\n      dup9\n        /* \"#utility.yul\":14893:14929   */\n      sstore\n        /* \"#utility.yul\":14328:14939   */\n      pop\n      pop\n      pop\n        /* \"#utility.yul\":14291:15178   */\n    tag_324:\n      pop\n        /* \"#utility.yul\":13881:15184   */\n      pop\n      pop\n      pop\n        /* \"#utility.yul\":13789:15184   */\n      pop\n      pop\n      jump\t// out\n        /* \"#utility.yul\":15190:15359   */\n    tag_154:\n        /* \"#utility.yul\":15330:15351   */\n      0x496e73756666696369656e742073686172657300000000000000000000000000\n        /* \"#utility.yul\":15326:15327   */\n      0x00\n        /* \"#utility.yul\":15318:15324   */\n      dup3\n        /* \"#utility.yul\":15314:15328   */\n      add\n        /* \"#utility.yul\":15307:15352   */\n      mstore\n        /* \"#utility.yul\":15190:15359   */\n      pop\n      jump\t// out\n        /* \"#utility.yul\":15365:15731   */\n    tag_155:\n        /* \"#utility.yul\":15507:15510   */\n      0x00\n        /* \"#utility.yul\":15528:15595   */\n      tag_336\n        /* \"#utility.yul\":15592:15594   */\n      0x13\n        /* \"#utility.yul\":15587:15590   */\n      dup4\n        /* \"#utility.yul\":15528:15595   */\n      tag_127\n      jump\t// in\n    tag_336:\n        /* \"#utility.yul\":15521:15595   */\n      swap2\n      pop\n        /* \"#utility.yul\":15604:15697   */\n      tag_337\n        /* \"#utility.yul\":15693:15696   */\n      dup3\n        /* \"#utility.yul\":15604:15697   */\n      tag_154\n      jump\t// in\n    tag_337:\n        /* \"#utility.yul\":15722:15724   */\n      0x20\n        /* \"#utility.yul\":15717:15720   */\n      dup3\n        /* \"#utility.yul\":15713:15725   */\n      add\n        /* \"#utility.yul\":15706:15725   */\n      swap1\n      pop\n        /* \"#utility.yul\":15365:15731   */\n      swap2\n      swap1\n      pop\n      jump\t// out\n        /* \"#utility.yul\":15737:16156   */\n    tag_70:\n        /* \"#utility.yul\":15903:15907   */\n      0x00\n        /* \"#utility.yul\":15941:15943   */\n      0x20\n        /* \"#utility.yul\":15930:15939   */\n      dup3\n        /* \"#utility.yul\":15926:15944   */\n      add\n        /* \"#utility.yul\":15918:15944   */\n      swap1\n      pop\n        /* \"#utility.yul\":15990:15999   */\n      dup2\n        /* \"#utility.yul\":15984:15988   */\n      dup2\n        /* \"#utility.yul\":15980:16000   */\n      sub\n        /* \"#utility.yul\":15976:15977   */\n      0x00\n        /* \"#utility.yul\":15965:15974   */\n      dup4\n        /* \"#utility.yul\":15961:15978   */\n      add\n        /* \"#utility.yul\":15954:16001   */\n      mstore\n        /* \"#utility.yul\":16018:16149   */\n      tag_339\n        /* \"#utility.yul\":16144:16148   */\n      dup2\n        /* \"#utility.yul\":16018:16149   */\n      tag_155\n      jump\t// in\n    tag_339:\n        /* \"#utility.yul\":16010:16149   */\n      swap1\n      pop\n        /* \"#utility.yul\":15737:16156   */\n      swap2\n      swap1\n      pop\n      jump\t// out\n        /* \"#utility.yul\":16162:16356   */\n    tag_72:\n        /* \"#utility.yul\":16202:16206   */\n      0x00\n        /* \"#utility.yul\":16222:16242   */\n      tag_341\n        /* \"#utility.yul\":16240:16241   */\n      dup3\n        /* \"#utility.yul\":16222:16242   */\n      tag_117\n      jump\t// in\n    tag_341:\n        /* \"#utility.yul\":16217:16242   */\n      swap2\n      pop\n        /* \"#utility.yul\":16256:16276   */\n      tag_342\n        /* \"#utility.yul\":16274:16275   */\n      dup4\n        /* \"#utility.yul\":16256:16276   */\n      tag_117\n      jump\t// in\n    tag_342:\n        /* \"#utility.yul\":16251:16276   */\n      swap3\n      pop\n        /* \"#utility.yul\":16300:16301   */\n      dup3\n        /* \"#utility.yul\":16297:16298   */\n      dup3\n        /* \"#utility.yul\":16293:16302   */\n      sub\n        /* \"#utility.yul\":16285:16302   */\n      swap1\n      pop\n        /* \"#utility.yul\":16324:16325   */\n      dup2\n        /* \"#utility.yul\":16318:16322   */\n      dup2\n        /* \"#utility.yul\":16315:16326   */\n      gt\n        /* \"#utility.yul\":16312:16349   */\n      iszero\n      tag_343\n      jumpi\n        /* \"#utility.yul\":16329:16347   */\n      tag_344\n      tag_137\n      jump\t// in\n    tag_344:\n        /* \"#utility.yul\":16312:16349   */\n    tag_343:\n        /* \"#utility.yul\":16162:16356   */\n      swap3\n      swap2\n      pop\n      pop\n      jump\t// out\n        /* \"#utility.yul\":16362:16553   */\n    tag_74:\n        /* \"#utility.yul\":16402:16405   */\n      0x00\n        /* \"#utility.yul\":16421:16441   */\n      tag_346\n        /* \"#utility.yul\":16439:16440   */\n      dup3\n        /* \"#utility.yul\":16421:16441   */\n      tag_117\n      jump\t// in\n    tag_346:\n        /* \"#utility.yul\":16416:16441   */\n      swap2\n      pop\n        /* \"#utility.yul\":16455:16475   */\n      tag_347\n        /* \"#utility.yul\":16473:16474   */\n      dup4\n        /* \"#utility.yul\":16455:16475   */\n      tag_117\n      jump\t// in\n    tag_347:\n        /* \"#utility.yul\":16450:16475   */\n      swap3\n      pop\n        /* \"#utility.yul\":16498:16499   */\n      dup3\n        /* \"#utility.yul\":16495:16496   */\n      dup3\n        /* \"#utility.yul\":16491:16500   */\n      add\n        /* \"#utility.yul\":16484:16500   */\n      swap1\n      pop\n        /* \"#utility.yul\":16519:16522   */\n      dup1\n        /* \"#utility.yul\":16516:16517   */\n      dup3\n        /* \"#utility.yul\":16513:16523   */\n      gt\n        /* \"#utility.yul\":16510:16546   */\n      iszero\n      tag_348\n      jumpi\n        /* \"#utility.yul\":16526:16544   */\n      tag_349\n      tag_137\n      jump\t// in\n    tag_349:\n        /* \"#utility.yul\":16510:16546   */\n    tag_348:\n        /* \"#utility.yul\":16362:16553   */\n      swap3\n      swap2\n      pop\n      pop\n      jump\t// out\n        /* \"#utility.yul\":16559:16784   */\n    tag_156:\n        /* \"#utility.yul\":16699:16733   */\n      0x4f776e61626c653a206e6577206f776e657220697320746865207a65726f2061\n        /* \"#utility.yul\":16695:16696   */\n      0x00\n        /* \"#utility.yul\":16687:16693   */\n      dup3\n        /* \"#utility.yul\":16683:16697   */\n      add\n        /* \"#utility.yul\":16676:16734   */\n      mstore\n        /* \"#utility.yul\":16768:16776   */\n      0x6464726573730000000000000000000000000000000000000000000000000000\n        /* \"#utility.yul\":16763:16765   */\n      0x20\n        /* \"#utility.yul\":16755:16761   */\n      dup3\n        /* \"#utility.yul\":16751:16766   */\n      add\n        /* \"#utility.yul\":16744:16777   */\n      mstore\n        /* \"#utility.yul\":16559:16784   */\n      pop\n      jump\t// out\n        /* \"#utility.yul\":16790:17156   */\n    tag_157:\n        /* \"#utility.yul\":16932:16935   */\n      0x00\n        /* \"#utility.yul\":16953:17020   */\n      tag_352\n        /* \"#utility.yul\":17017:17019   */\n      0x26\n        /* \"#utility.yul\":17012:17015   */\n      dup4\n        /* \"#utility.yul\":16953:17020   */\n      tag_127\n      jump\t// in\n    tag_352:\n        /* \"#utility.yul\":16946:17020   */\n      swap2\n      pop\n        /* \"#utility.yul\":17029:17122   */\n      tag_353\n        /* \"#utility.yul\":17118:17121   */\n      dup3\n        /* \"#utility.yul\":17029:17122   */\n      tag_156\n      jump\t// in\n    tag_353:\n        /* \"#utility.yul\":17147:17149   */\n      0x40\n        /* \"#utility.yul\":17142:17145   */\n      dup3\n        /* \"#utility.yul\":17138:17150   */\n      add\n        /* \"#utility.yul\":17131:17150   */\n      swap1\n      pop\n        /* \"#utility.yul\":16790:17156   */\n      swap2\n      swap1\n      pop\n      jump\t// out\n        /* \"#utility.yul\":17162:17581   */\n    tag_93:\n        /* \"#utility.yul\":17328:17332   */\n      0x00\n        /* \"#utility.yul\":17366:17368   */\n      0x20\n        /* \"#utility.yul\":17355:17364   */\n      dup3\n        /* \"#utility.yul\":17351:17369   */\n      add\n        /* \"#utility.yul\":17343:17369   */\n      swap1\n      pop\n        /* \"#utility.yul\":17415:17424   */\n      dup2\n        /* \"#utility.yul\":17409:17413   */\n      dup2\n        /* \"#utility.yul\":17405:17425   */\n      sub\n        /* \"#utility.yul\":17401:17402   */\n      0x00\n        /* \"#utility.yul\":17390:17399   */\n      dup4\n        /* \"#utility.yul\":17386:17403   */\n      add\n        /* \"#utility.yul\":17379:17426   */\n      mstore\n        /* \"#utility.yul\":17443:17574   */\n      tag_355\n        /* \"#utility.yul\":17569:17573   */\n      dup2\n        /* \"#utility.yul\":17443:17574   */\n      tag_157\n      jump\t// in\n    tag_355:\n        /* \"#utility.yul\":17435:17574   */\n      swap1\n      pop\n        /* \"#utility.yul\":17162:17581   */\n      swap2\n      swap1\n      pop\n      jump\t// out\n        /* \"#utility.yul\":17587:17769   */\n    tag_158:\n        /* \"#utility.yul\":17727:17761   */\n      0x4f776e61626c653a2063616c6c6572206973206e6f7420746865206f776e6572\n        /* \"#utility.yul\":17723:17724   */\n      0x00\n        /* \"#utility.yul\":17715:17721   */\n      dup3\n        /* \"#utility.yul\":17711:17725   */\n      add\n        /* \"#utility.yul\":17704:17762   */\n      mstore\n        /* \"#utility.yul\":17587:17769   */\n      pop\n      jump\t// out\n        /* \"#utility.yul\":17775:18141   */\n    tag_159:\n        /* \"#utility.yul\":17917:17920   */\n      0x00\n        /* \"#utility.yul\":17938:18005   */\n      tag_358\n        /* \"#utility.yul\":18002:18004   */\n      0x20\n        /* \"#utility.yul\":17997:18000   */\n      dup4\n        /* \"#utility.yul\":17938:18005   */\n      tag_127\n      jump\t// in\n    tag_358:\n        /* \"#utility.yul\":17931:18005   */\n      swap2\n      pop\n        /* \"#utility.yul\":18014:18107   */\n      tag_359\n        /* \"#utility.yul\":18103:18106   */\n      dup3\n        /* \"#utility.yul\":18014:18107   */\n      tag_158\n      jump\t// in\n    tag_359:\n        /* \"#utility.yul\":18132:18134   */\n      0x20\n        /* \"#utility.yul\":18127:18130   */\n      dup3\n        /* \"#utility.yul\":18123:18135   */\n      add\n        /* \"#utility.yul\":18116:18135   */\n      swap1\n      pop\n        /* \"#utility.yul\":17775:18141   */\n      swap2\n      swap1\n      pop\n      jump\t// out\n        /* \"#utility.yul\":18147:18566   */\n    tag_101:\n        /* \"#utility.yul\":18313:18317   */\n      0x00\n        /* \"#utility.yul\":18351:18353   */\n      0x20\n        /* \"#utility.yul\":18340:18349   */\n      dup3\n        /* \"#utility.yul\":18336:18354   */\n      add\n        /* \"#utility.yul\":18328:18354   */\n      swap1\n      pop\n        /* \"#utility.yul\":18400:18409   */\n      dup2\n        /* \"#utility.yul\":18394:18398   */\n      dup2\n        /* \"#utility.yul\":18390:18410   */\n      sub\n        /* \"#utility.yul\":18386:18387   */\n      0x00\n        /* \"#utility.yul\":18375:18384   */\n      dup4\n        /* \"#utility.yul\":18371:18388   */\n      add\n        /* \"#utility.yul\":18364:18411   */\n      mstore\n        /* \"#utility.yul\":18428:18559   */\n      tag_361\n        /* \"#utility.yul\":18554:18558   */\n      dup2\n        /* \"#utility.yul\":18428:18559   */\n      tag_159\n      jump\t// in\n    tag_361:\n        /* \"#utility.yul\":18420:18559   */\n      swap1\n      pop\n        /* \"#utility.yul\":18147:18566   */\n      swap2\n      swap1\n      pop\n      jump\t// out\n\n    auxdata: 0xa2646970667358221220e14e40aeb926e9608f58329ea055616a1bea6025c69839fcc983613b514b2a2564736f6c63430008150033\n}\n",
				"bytecode": {
					"linkReferences": {},
					"object": "608060405260018055348015610013575f80fd5b5061003061002561003560201b60201c565b61003c60201b60201c565b6100fd565b5f33905090565b5f805f9054906101000a900473ffffffffffffffffffffffffffffffffffffffff169050815f806101000a81548173ffffffffffffffffffffffffffffffffffffffff021916908373ffffffffffffffffffffffffffffffffffffffff1602179055508173ffffffffffffffffffffffffffffffffffffffff168173ffffffffffffffffffffffffffffffffffffffff167f8be0079c531659141344cd1fd0a4f28419497f9722a3daafe3b4186f6b6457e060405160405180910390a35050565b6112108061010a5f395ff3fe608060405234801561000f575f80fd5b5060043610610091575f3560e01c806387541ed61161006457806387541ed61461011b5780638da5cb5b1461014b578063cf35bdd014610169578063e122f9071461019a578063f2fde38b146101b857610091565b80631bc7ffe9146100955780633656eec2146100c5578063715018a6146100f557806384b9a6e6146100ff575b5f80fd5b6100af60048036038101906100aa9190610972565b6101d4565b6040516100bc91906109db565b60405180910390f35b6100df60048036038101906100da9190610a4e565b6102b4565b6040516100ec91906109db565b60405180910390f35b6100fd61030d565b005b61011960048036038101906101149190610a8c565b610320565b005b61013560048036038101906101309190610adc565b6104e7565b60405161014291906109db565b60405180910390f35b610153610507565b6040516101609190610b16565b60405180910390f35b610183600480360381019061017e9190610adc565b61052e565b604051610191929190610ba9565b60405180910390f35b6101a26105d4565b6040516101af9190610c8e565b60405180910390f35b6101d260048036038101906101cd9190610cae565b61062a565b005b5f6101dd6106ac565b5f60015f8154809291906101f090610d06565b9190505590508360025f8381526020019081526020015f205f0190816102169190610f47565b508260025f8381526020019081526020015f206001015f3373ffffffffffffffffffffffffffffffffffffffff1673ffffffffffffffffffffffffffffffffffffffff1681526020019081526020015f20819055508260025f8381526020019081526020015f2060020181905550600381908060018154018082558091505060019003905f5260205f20015f90919091909150558091505092915050565b5f60025f8481526020019081526020015f206001015f8373ffffffffffffffffffffffffffffffffffffffff1673ffffffffffffffffffffffffffffffffffffffff1681526020019081526020015f2054905092915050565b6103156106ac565b61031e5f61072a565b565b8060025f8581526020019081526020015f206001015f3373ffffffffffffffffffffffffffffffffffffffff1673ffffffffffffffffffffffffffffffffffffffff1681526020019081526020015f205410156103b2576040517f08c379a00000000000000000000000000000000000000000000000000000000081526004016103a990611060565b60405180910390fd5b8060025f8581526020019081526020015f206001015f3373ffffffffffffffffffffffffffffffffffffffff1673ffffffffffffffffffffffffffffffffffffffff1681526020019081526020015f205f828254610410919061107e565b925050819055508060025f8581526020019081526020015f206001015f8473ffffffffffffffffffffffffffffffffffffffff1673ffffffffffffffffffffffffffffffffffffffff1681526020019081526020015f205f82825461047591906110b1565b925050819055508173ffffffffffffffffffffffffffffffffffffffff163373ffffffffffffffffffffffffffffffffffffffff16847f0d93b0e8579bc9db73c85a1fb79d785ffc47f8e20d346253f809cc98c48292a0846040516104da91906109db565b60405180910390a4505050565b600381815481106104f6575f80fd5b905f5260205f20015f915090505481565b5f805f9054906101000a900473ffffffffffffffffffffffffffffffffffffffff16905090565b6002602052805f5260405f205f91509050805f01805461054d90610d7a565b80601f016020809104026020016040519081016040528092919081815260200182805461057990610d7a565b80156105c45780601f1061059b576101008083540402835291602001916105c4565b820191905f5260205f20905b8154815290600101906020018083116105a757829003601f168201915b5050505050908060020154905082565b6060600380548060200260200160405190810160405280929190818152602001828054801561062057602002820191905f5260205f20905b81548152602001906001019080831161060c575b5050505050905090565b6106326106ac565b5f73ffffffffffffffffffffffffffffffffffffffff168173ffffffffffffffffffffffffffffffffffffffff16036106a0576040517f08c379a000000000000000000000000000000000000000000000000000000000815260040161069790611154565b60405180910390fd5b6106a98161072a565b50565b6106b46107eb565b73ffffffffffffffffffffffffffffffffffffffff166106d2610507565b73ffffffffffffffffffffffffffffffffffffffff1614610728576040517f08c379a000000000000000000000000000000000000000000000000000000000815260040161071f906111bc565b60405180910390fd5b565b5f805f9054906101000a900473ffffffffffffffffffffffffffffffffffffffff169050815f806101000a81548173ffffffffffffffffffffffffffffffffffffffff021916908373ffffffffffffffffffffffffffffffffffffffff1602179055508173ffffffffffffffffffffffffffffffffffffffff168173ffffffffffffffffffffffffffffffffffffffff167f8be0079c531659141344cd1fd0a4f28419497f9722a3daafe3b4186f6b6457e060405160405180910390a35050565b5f33905090565b5f604051905090565b5f80fd5b5f80fd5b5f80fd5b5f80fd5b5f601f19601f8301169050919050565b7f4e487b71000000000000000000000000000000000000000000000000000000005f52604160045260245ffd5b6108518261080b565b810181811067ffffffffffffffff821117156108705761086f61081b565b5b80604052505050565b5f6108826107f2565b905061088e8282610848565b919050565b5f67ffffffffffffffff8211156108ad576108ac61081b565b5b6108b68261080b565b9050602081019050919050565b828183375f83830152505050565b5f6108e36108de84610893565b610879565b9050828152602081018484840111156108ff576108fe610807565b5b61090a8482856108c3565b509392505050565b5f82601f83011261092657610925610803565b5b81356109368482602086016108d1565b91505092915050565b5f819050919050565b6109518161093f565b811461095b575f80fd5b50565b5f8135905061096c81610948565b92915050565b5f8060408385031215610988576109876107fb565b5b5f83013567ffffffffffffffff8111156109a5576109a46107ff565b5b6109b185828601610912565b92505060206109c28582860161095e565b9150509250929050565b6109d58161093f565b82525050565b5f6020820190506109ee5f8301846109cc565b92915050565b5f73ffffffffffffffffffffffffffffffffffffffff82169050919050565b5f610a1d826109f4565b9050919050565b610a2d81610a13565b8114610a37575f80fd5b50565b5f81359050610a4881610a24565b92915050565b5f8060408385031215610a6457610a636107fb565b5b5f610a718582860161095e565b9250506020610a8285828601610a3a565b9150509250929050565b5f805f60608486031215610aa357610aa26107fb565b5b5f610ab08682870161095e565b9350506020610ac186828701610a3a565b9250506040610ad28682870161095e565b9150509250925092565b5f60208284031215610af157610af06107fb565b5b5f610afe8482850161095e565b91505092915050565b610b1081610a13565b82525050565b5f602082019050610b295f830184610b07565b92915050565b5f81519050919050565b5f82825260208201905092915050565b5f5b83811015610b66578082015181840152602081019050610b4b565b5f8484015250505050565b5f610b7b82610b2f565b610b858185610b39565b9350610b95818560208601610b49565b610b9e8161080b565b840191505092915050565b5f6040820190508181035f830152610bc18185610b71565b9050610bd060208301846109cc565b9392505050565b5f81519050919050565b5f82825260208201905092915050565b5f819050602082019050919050565b610c098161093f565b82525050565b5f610c1a8383610c00565b60208301905092915050565b5f602082019050919050565b5f610c3c82610bd7565b610c468185610be1565b9350610c5183610bf1565b805f5b83811015610c81578151610c688882610c0f565b9750610c7383610c26565b925050600181019050610c54565b5085935050505092915050565b5f6020820190508181035f830152610ca68184610c32565b905092915050565b5f60208284031215610cc357610cc26107fb565b5b5f610cd084828501610a3a565b91505092915050565b7f4e487b71000000000000000000000000000000000000000000000000000000005f52601160045260245ffd5b5f610d108261093f565b91507fffffffffffffffffffffffffffffffffffffffffffffffffffffffffffffffff8203610d4257610d41610cd9565b5b600182019050919050565b7f4e487b71000000000000000000000000000000000000000000000000000000005f52602260045260245ffd5b5f6002820490506001821680610d9157607f821691505b602082108103610da457610da3610d4d565b5b50919050565b5f819050815f5260205f209050919050565b5f6020601f8301049050919050565b5f82821b905092915050565b5f60088302610e067fffffffffffffffffffffffffffffffffffffffffffffffffffffffffffffffff82610dcb565b610e108683610dcb565b95508019841693508086168417925050509392505050565b5f819050919050565b5f610e4b610e46610e418461093f565b610e28565b61093f565b9050919050565b5f819050919050565b610e6483610e31565b610e78610e7082610e52565b848454610dd7565b825550505050565b5f90565b610e8c610e80565b610e97818484610e5b565b505050565b5b81811015610eba57610eaf5f82610e84565b600181019050610e9d565b5050565b601f821115610eff57610ed081610daa565b610ed984610dbc565b81016020851015610ee8578190505b610efc610ef485610dbc565b830182610e9c565b50505b505050565b5f82821c905092915050565b5f610f1f5f1984600802610f04565b1980831691505092915050565b5f610f378383610f10565b9150826002028217905092915050565b610f5082610b2f565b67ffffffffffffffff811115610f6957610f6861081b565b5b610f738254610d7a565b610f7e828285610ebe565b5f60209050601f831160018114610faf575f8415610f9d578287015190505b610fa78582610f2c565b86555061100e565b601f198416610fbd86610daa565b5f5b82811015610fe457848901518255600182019150602085019450602081019050610fbf565b868310156110015784890151610ffd601f891682610f10565b8355505b6001600288020188555050505b505050505050565b7f496e73756666696369656e7420736861726573000000000000000000000000005f82015250565b5f61104a601383610b39565b915061105582611016565b602082019050919050565b5f6020820190508181035f8301526110778161103e565b9050919050565b5f6110888261093f565b91506110938361093f565b92508282039050818111156110ab576110aa610cd9565b5b92915050565b5f6110bb8261093f565b91506110c68361093f565b92508282019050808211156110de576110dd610cd9565b5b92915050565b7f4f776e61626c653a206e6577206f776e657220697320746865207a65726f20615f8201527f6464726573730000000000000000000000000000000000000000000000000000602082015250565b5f61113e602683610b39565b9150611149826110e4565b604082019050919050565b5f6020820190508181035f83015261116b81611132565b9050919050565b7f4f776e61626c653a2063616c6c6572206973206e6f7420746865206f776e65725f82015250565b5f6111a6602083610b39565b91506111b182611172565b602082019050919050565b5f6020820190508181035f8301526111d38161119a565b905091905056fea2646970667358221220e14e40aeb926e9608f58329ea055616a1bea6025c69839fcc983613b514b2a2564736f6c63430008150033",
					"opcodes": "PUSH1 0x80 PUSH1 0x40 MSTORE PUSH1 0x1 DUP1 SSTORE CALLVALUE DUP1 ISZERO PUSH2 0x13 JUMPI PUSH0 DUP1 REVERT JUMPDEST POP PUSH2 0x30 PUSH2 0x25 PUSH2 0x35 PUSH1 0x20 SHL PUSH1 0x20 SHR JUMP JUMPDEST PUSH2 0x3C PUSH1 0x20 SHL PUSH1 0x20 SHR JUMP JUMPDEST PUSH2 0xFD JUMP JUMPDEST PUSH0 CALLER SWAP1 POP SWAP1 JUMP JUMPDEST PUSH0 DUP1 PUSH0 SWAP1 SLOAD SWAP1 PUSH2 0x100 EXP SWAP1 DIV PUSH20 0xFFFFFFFFFFFFFFFFFFFFFFFFFFFFFFFFFFFFFFFF AND SWAP1 POP DUP2 PUSH0 DUP1 PUSH2 0x100 EXP DUP2 SLOAD DUP2 PUSH20 0xFFFFFFFFFFFFFFFFFFFFFFFFFFFFFFFFFFFFFFFF MUL NOT AND SWAP1 DUP4 PUSH20 0xFFFFFFFFFFFFFFFFFFFFFFFFFFFFFFFFFFFFFFFF AND MUL OR SWAP1 SSTORE POP DUP2 PUSH20 0xFFFFFFFFFFFFFFFFFFFFFFFFFFFFFFFFFFFFFFFF AND DUP2 PUSH20 0xFFFFFFFFFFFFFFFFFFFFFFFFFFFFFFFFFFFFFFFF AND PUSH32 0x8BE0079C531659141344CD1FD0A4F28419497F9722A3DAAFE3B4186F6B6457E0 PUSH1 0x40 MLOAD PUSH1 0x40 MLOAD DUP1 SWAP2 SUB SWAP1 LOG3 POP POP JUMP JUMPDEST PUSH2 0x1210 DUP1 PUSH2 0x10A PUSH0 CODECOPY PUSH0 RETURN INVALID PUSH1 0x80 PUSH1 0x40 MSTORE CALLVALUE DUP1 ISZERO PUSH2 0xF JUMPI PUSH0 DUP1 REVERT JUMPDEST POP PUSH1 0x4 CALLDATASIZE LT PUSH2 0x91 JUMPI PUSH0 CALLDATALOAD PUSH1 0xE0 SHR DUP1 PUSH4 0x87541ED6 GT PUSH2 0x64 JUMPI DUP1 PUSH4 0x87541ED6 EQ PUSH2 0x11B JUMPI DUP1 PUSH4 0x8DA5CB5B EQ PUSH2 0x14B JUMPI DUP1 PUSH4 0xCF35BDD0 EQ PUSH2 0x169 JUMPI DUP1 PUSH4 0xE122F907 EQ PUSH2 0x19A JUMPI DUP1 PUSH4 0xF2FDE38B EQ PUSH2 0x1B8 JUMPI PUSH2 0x91 JUMP JUMPDEST DUP1 PUSH4 0x1BC7FFE9 EQ PUSH2 0x95 JUMPI DUP1 PUSH4 0x3656EEC2 EQ PUSH2 0xC5 JUMPI DUP1 PUSH4 0x715018A6 EQ PUSH2 0xF5 JUMPI DUP1 PUSH4 0x84B9A6E6 EQ PUSH2 0xFF JUMPI JUMPDEST PUSH0 DUP1 REVERT JUMPDEST PUSH2 0xAF PUSH1 0x4 DUP1 CALLDATASIZE SUB DUP2 ADD SWAP1 PUSH2 0xAA SWAP2 SWAP1 PUSH2 0x972 JUMP JUMPDEST PUSH2 0x1D4 JUMP JUMPDEST PUSH1 0x40 MLOAD PUSH2 0xBC SWAP2 SWAP1 PUSH2 0x9DB JUMP JUMPDEST PUSH1 0x40 MLOAD DUP1 SWAP2 SUB SWAP1 RETURN JUMPDEST PUSH2 0xDF PUSH1 0x4 DUP1 CALLDATASIZE SUB DUP2 ADD SWAP1 PUSH2 0xDA SWAP2 SWAP1 PUSH2 0xA4E JUMP JUMPDEST PUSH2 0x2B4 JUMP JUMPDEST PUSH1 0x40 MLOAD PUSH2 0xEC SWAP2 SWAP1 PUSH2 0x9DB JUMP JUMPDEST PUSH1 0x40 MLOAD DUP1 SWAP2 SUB SWAP1 RETURN JUMPDEST PUSH2 0xFD PUSH2 0x30D JUMP JUMPDEST STOP JUMPDEST PUSH2 0x119 PUSH1 0x4 DUP1 CALLDATASIZE SUB DUP2 ADD SWAP1 PUSH2 0x114 SWAP2 SWAP1 PUSH2 0xA8C JUMP JUMPDEST PUSH2 0x320 JUMP JUMPDEST STOP JUMPDEST PUSH2 0x135 PUSH1 0x4 DUP1 CALLDATASIZE SUB DUP2 ADD SWAP1 PUSH2 0x130 SWAP2 SWAP1 PUSH2 0xADC JUMP JUMPDEST PUSH2 0x4E7 JUMP JUMPDEST PUSH1 0x40 MLOAD PUSH2 0x142 SWAP2 SWAP1 PUSH2 0x9DB JUMP JUMPDEST PUSH1 0x40 MLOAD DUP1 SWAP2 SUB SWAP1 RETURN JUMPDEST PUSH2 0x153 PUSH2 0x507 JUMP JUMPDEST PUSH1 0x40 MLOAD PUSH2 0x160 SWAP2 SWAP1 PUSH2 0xB16 JUMP JUMPDEST PUSH1 0x40 MLOAD DUP1 SWAP2 SUB SWAP1 RETURN JUMPDEST PUSH2 0x183 PUSH1 0x4 DUP1 CALLDATASIZE SUB DUP2 ADD SWAP1 PUSH2 0x17E SWAP2 SWAP1 PUSH2 0xADC JUMP JUMPDEST PUSH2 0x52E JUMP JUMPDEST PUSH1 0x40 MLOAD PUSH2 0x191 SWAP3 SWAP2 SWAP1 PUSH2 0xBA9 JUMP JUMPDEST PUSH1 0x40 MLOAD DUP1 SWAP2 SUB SWAP1 RETURN JUMPDEST PUSH2 0x1A2 PUSH2 0x5D4 JUMP JUMPDEST PUSH1 0x40 MLOAD PUSH2 0x1AF SWAP2 SWAP1 PUSH2 0xC8E JUMP JUMPDEST PUSH1 0x40 MLOAD DUP1 SWAP2 SUB SWAP1 RETURN JUMPDEST PUSH2 0x1D2 PUSH1 0x4 DUP1 CALLDATASIZE SUB DUP2 ADD SWAP1 PUSH2 0x1CD SWAP2 SWAP1 PUSH2 0xCAE JUMP JUMPDEST PUSH2 0x62A JUMP JUMPDEST STOP JUMPDEST PUSH0 PUSH2 0x1DD PUSH2 0x6AC JUMP JUMPDEST PUSH0 PUSH1 0x1 PUSH0 DUP2 SLOAD DUP1 SWAP3 SWAP2 SWAP1 PUSH2 0x1F0 SWAP1 PUSH2 0xD06 JUMP JUMPDEST SWAP2 SWAP1 POP SSTORE SWAP1 POP DUP4 PUSH1 0x2 PUSH0 DUP4 DUP2 MSTORE PUSH1 0x20 ADD SWAP1 DUP2 MSTORE PUSH1 0x20 ADD PUSH0 KECCAK256 PUSH0 ADD SWAP1 DUP2 PUSH2 0x216 SWAP2 SWAP1 PUSH2 0xF47 JUMP JUMPDEST POP DUP3 PUSH1 0x2 PUSH0 DUP4 DUP2 MSTORE PUSH1 0x20 ADD SWAP1 DUP2 MSTORE PUSH1 0x20 ADD PUSH0 KECCAK256 PUSH1 0x1 ADD PUSH0 CALLER PUSH20 0xFFFFFFFFFFFFFFFFFFFFFFFFFFFFFFFFFFFFFFFF AND PUSH20 0xFFFFFFFFFFFFFFFFFFFFFFFFFFFFFFFFFFFFFFFF AND DUP2 MSTORE PUSH1 0x20 ADD SWAP1 DUP2 MSTORE PUSH1 0x20 ADD PUSH0 KECCAK256 DUP2 SWAP1 SSTORE POP DUP3 PUSH1 0x2 PUSH0 DUP4 DUP2 MSTORE PUSH1 0x20 ADD SWAP1 DUP2 MSTORE PUSH1 0x20 ADD PUSH0 KECCAK256 PUSH1 0x2 ADD DUP2 SWAP1 SSTORE POP PUSH1 0x3 DUP2 SWAP1 DUP1 PUSH1 0x1 DUP2 SLOAD ADD DUP1 DUP3 SSTORE DUP1 SWAP2 POP POP PUSH1 0x1 SWAP1 SUB SWAP1 PUSH0 MSTORE PUSH1 0x20 PUSH0 KECCAK256 ADD PUSH0 SWAP1 SWAP2 SWAP1 SWAP2 SWAP1 SWAP2 POP SSTORE DUP1 SWAP2 POP POP SWAP3 SWAP2 POP POP JUMP JUMPDEST PUSH0 PUSH1 0x2 PUSH0 DUP5 DUP2 MSTORE PUSH1 0x20 ADD SWAP1 DUP2 MSTORE PUSH1 0x20 ADD PUSH0 KECCAK256 PUSH1 0x1 ADD PUSH0 DUP4 PUSH20 0xFFFFFFFFFFFFFFFFFFFFFFFFFFFFFFFFFFFFFFFF AND PUSH20 0xFFFFFFFFFFFFFFFFFFFFFFFFFFFFFFFFFFFFFFFF AND DUP2 MSTORE PUSH1 0x20 ADD SWAP1 DUP2 MSTORE PUSH1 0x20 ADD PUSH0 KECCAK256 SLOAD SWAP1 POP SWAP3 SWAP2 POP POP JUMP JUMPDEST PUSH2 0x315 PUSH2 0x6AC JUMP JUMPDEST PUSH2 0x31E PUSH0 PUSH2 0x72A JUMP JUMPDEST JUMP JUMPDEST DUP1 PUSH1 0x2 PUSH0 DUP6 DUP2 MSTORE PUSH1 0x20 ADD SWAP1 DUP2 MSTORE PUSH1 0x20 ADD PUSH0 KECCAK256 PUSH1 0x1 ADD PUSH0 CALLER PUSH20 0xFFFFFFFFFFFFFFFFFFFFFFFFFFFFFFFFFFFFFFFF AND PUSH20 0xFFFFFFFFFFFFFFFFFFFFFFFFFFFFFFFFFFFFFFFF AND DUP2 MSTORE PUSH1 0x20 ADD SWAP1 DUP2 MSTORE PUSH1 0x20 ADD PUSH0 KECCAK256 SLOAD LT ISZERO PUSH2 0x3B2 JUMPI PUSH1 0x40 MLOAD PUSH32 0x8C379A000000000000000000000000000000000000000000000000000000000 DUP2 MSTORE PUSH1 0x4 ADD PUSH2 0x3A9 SWAP1 PUSH2 0x1060 JUMP JUMPDEST PUSH1 0x40 MLOAD DUP1 SWAP2 SUB SWAP1 REVERT JUMPDEST DUP1 PUSH1 0x2 PUSH0 DUP6 DUP2 MSTORE PUSH1 0x20 ADD SWAP1 DUP2 MSTORE PUSH1 0x20 ADD PUSH0 KECCAK256 PUSH1 0x1 ADD PUSH0 CALLER PUSH20 0xFFFFFFFFFFFFFFFFFFFFFFFFFFFFFFFFFFFFFFFF AND PUSH20 0xFFFFFFFFFFFFFFFFFFFFFFFFFFFFFFFFFFFFFFFF AND DUP2 MSTORE PUSH1 0x20 ADD SWAP1 DUP2 MSTORE PUSH1 0x20 ADD PUSH0 KECCAK256 PUSH0 DUP3 DUP3 SLOAD PUSH2 0x410 SWAP2 SWAP1 PUSH2 0x107E JUMP JUMPDEST SWAP3 POP POP DUP2 SWAP1 SSTORE POP DUP1 PUSH1 0x2 PUSH0 DUP6 DUP2 MSTORE PUSH1 0x20 ADD SWAP1 DUP2 MSTORE PUSH1 0x20 ADD PUSH0 KECCAK256 PUSH1 0x1 ADD PUSH0 DUP5 PUSH20 0xFFFFFFFFFFFFFFFFFFFFFFFFFFFFFFFFFFFFFFFF AND PUSH20 0xFFFFFFFFFFFFFFFFFFFFFFFFFFFFFFFFFFFFFFFF AND DUP2 MSTORE PUSH1 0x20 ADD SWAP1 DUP2 MSTORE PUSH1 0x20 ADD PUSH0 KECCAK256 PUSH0 DUP3 DUP3 SLOAD PUSH2 0x475 SWAP2 SWAP1 PUSH2 0x10B1 JUMP JUMPDEST SWAP3 POP POP DUP2 SWAP1 SSTORE POP DUP2 PUSH20 0xFFFFFFFFFFFFFFFFFFFFFFFFFFFFFFFFFFFFFFFF AND CALLER PUSH20 0xFFFFFFFFFFFFFFFFFFFFFFFFFFFFFFFFFFFFFFFF AND DUP5 PUSH32 0xD93B0E8579BC9DB73C85A1FB79D785FFC47F8E20D346253F809CC98C48292A0 DUP5 PUSH1 0x40 MLOAD PUSH2 0x4DA SWAP2 SWAP1 PUSH2 0x9DB JUMP JUMPDEST PUSH1 0x40 MLOAD DUP1 SWAP2 SUB SWAP1 LOG4 POP POP POP JUMP JUMPDEST PUSH1 0x3 DUP2 DUP2 SLOAD DUP2 LT PUSH2 0x4F6 JUMPI PUSH0 DUP1 REVERT JUMPDEST SWAP1 PUSH0 MSTORE PUSH1 0x20 PUSH0 KECCAK256 ADD PUSH0 SWAP2 POP SWAP1 POP SLOAD DUP2 JUMP JUMPDEST PUSH0 DUP1 PUSH0 SWAP1 SLOAD SWAP1 PUSH2 0x100 EXP SWAP1 DIV PUSH20 0xFFFFFFFFFFFFFFFFFFFFFFFFFFFFFFFFFFFFFFFF AND SWAP1 POP SWAP1 JUMP JUMPDEST PUSH1 0x2 PUSH1 0x20 MSTORE DUP1 PUSH0 MSTORE PUSH1 0x40 PUSH0 KECCAK256 PUSH0 SWAP2 POP SWAP1 POP DUP1 PUSH0 ADD DUP1 SLOAD PUSH2 0x54D SWAP1 PUSH2 0xD7A JUMP JUMPDEST DUP1 PUSH1 0x1F ADD PUSH1 0x20 DUP1 SWAP2 DIV MUL PUSH1 0x20 ADD PUSH1 0x40 MLOAD SWAP1 DUP2 ADD PUSH1 0x40 MSTORE DUP1 SWAP3 SWAP2 SWAP1 DUP2 DUP2 MSTORE PUSH1 0x20 ADD DUP3 DUP1 SLOAD PUSH2 0x579 SWAP1 PUSH2 0xD7A JUMP JUMPDEST DUP1 ISZERO PUSH2 0x5C4 JUMPI DUP1 PUSH1 0x1F LT PUSH2 0x59B JUMPI PUSH2 0x100 DUP1 DUP4 SLOAD DIV MUL DUP4 MSTORE SWAP2 PUSH1 0x20 ADD SWAP2 PUSH2 0x5C4 JUMP JUMPDEST DUP3 ADD SWAP2 SWAP1 PUSH0 MSTORE PUSH1 0x20 PUSH0 KECCAK256 SWAP1 JUMPDEST DUP2 SLOAD DUP2 MSTORE SWAP1 PUSH1 0x1 ADD SWAP1 PUSH1 0x20 ADD DUP1 DUP4 GT PUSH2 0x5A7 JUMPI DUP3 SWAP1 SUB PUSH1 0x1F AND DUP3 ADD SWAP2 JUMPDEST POP POP POP POP POP SWAP1 DUP1 PUSH1 0x2 ADD SLOAD SWAP1 POP DUP3 JUMP JUMPDEST PUSH1 0x60 PUSH1 0x3 DUP1 SLOAD DUP1 PUSH1 0x20 MUL PUSH1 0x20 ADD PUSH1 0x40 MLOAD SWAP1 DUP2 ADD PUSH1 0x40 MSTORE DUP1 SWAP3 SWAP2 SWAP1 DUP2 DUP2 MSTORE PUSH1 0x20 ADD DUP3 DUP1 SLOAD DUP1 ISZERO PUSH2 0x620 JUMPI PUSH1 0x20 MUL DUP3 ADD SWAP2 SWAP1 PUSH0 MSTORE PUSH1 0x20 PUSH0 KECCAK256 SWAP1 JUMPDEST DUP2 SLOAD DUP2 MSTORE PUSH1 0x20 ADD SWAP1 PUSH1 0x1 ADD SWAP1 DUP1 DUP4 GT PUSH2 0x60C JUMPI JUMPDEST POP POP POP POP POP SWAP1 POP SWAP1 JUMP JUMPDEST PUSH2 0x632 PUSH2 0x6AC JUMP JUMPDEST PUSH0 PUSH20 0xFFFFFFFFFFFFFFFFFFFFFFFFFFFFFFFFFFFFFFFF AND DUP2 PUSH20 0xFFFFFFFFFFFFFFFFFFFFFFFFFFFFFFFFFFFFFFFF AND SUB PUSH2 0x6A0 JUMPI PUSH1 0x40 MLOAD PUSH32 0x8C379A000000000000000000000000000000000000000000000000000000000 DUP2 MSTORE PUSH1 0x4 ADD PUSH2 0x697 SWAP1 PUSH2 0x1154 JUMP JUMPDEST PUSH1 0x40 MLOAD DUP1 SWAP2 SUB SWAP1 REVERT JUMPDEST PUSH2 0x6A9 DUP2 PUSH2 0x72A JUMP JUMPDEST POP JUMP JUMPDEST PUSH2 0x6B4 PUSH2 0x7EB JUMP JUMPDEST PUSH20 0xFFFFFFFFFFFFFFFFFFFFFFFFFFFFFFFFFFFFFFFF AND PUSH2 0x6D2 PUSH2 0x507 JUMP JUMPDEST PUSH20 0xFFFFFFFFFFFFFFFFFFFFFFFFFFFFFFFFFFFFFFFF AND EQ PUSH2 0x728 JUMPI PUSH1 0x40 MLOAD PUSH32 0x8C379A000000000000000000000000000000000000000000000000000000000 DUP2 MSTORE PUSH1 0x4 ADD PUSH2 0x71F SWAP1 PUSH2 0x11BC JUMP JUMPDEST PUSH1 0x40 MLOAD DUP1 SWAP2 SUB SWAP1 REVERT JUMPDEST JUMP JUMPDEST PUSH0 DUP1 PUSH0 SWAP1 SLOAD SWAP1 PUSH2 0x100 EXP SWAP1 DIV PUSH20 0xFFFFFFFFFFFFFFFFFFFFFFFFFFFFFFFFFFFFFFFF AND SWAP1 POP DUP2 PUSH0 DUP1 PUSH2 0x100 EXP DUP2 SLOAD DUP2 PUSH20 0xFFFFFFFFFFFFFFFFFFFFFFFFFFFFFFFFFFFFFFFF MUL NOT AND SWAP1 DUP4 PUSH20 0xFFFFFFFFFFFFFFFFFFFFFFFFFFFFFFFFFFFFFFFF AND MUL OR SWAP1 SSTORE POP DUP2 PUSH20 0xFFFFFFFFFFFFFFFFFFFFFFFFFFFFFFFFFFFFFFFF AND DUP2 PUSH20 0xFFFFFFFFFFFFFFFFFFFFFFFFFFFFFFFFFFFFFFFF AND PUSH32 0x8BE0079C531659141344CD1FD0A4F28419497F9722A3DAAFE3B4186F6B6457E0 PUSH1 0x40 MLOAD PUSH1 0x40 MLOAD DUP1 SWAP2 SUB SWAP1 LOG3 POP POP JUMP JUMPDEST PUSH0 CALLER SWAP1 POP SWAP1 JUMP JUMPDEST PUSH0 PUSH1 0x40 MLOAD SWAP1 POP SWAP1 JUMP JUMPDEST PUSH0 DUP1 REVERT JUMPDEST PUSH0 DUP1 REVERT JUMPDEST PUSH0 DUP1 REVERT JUMPDEST PUSH0 DUP1 REVERT JUMPDEST PUSH0 PUSH1 0x1F NOT PUSH1 0x1F DUP4 ADD AND SWAP1 POP SWAP2 SWAP1 POP JUMP JUMPDEST PUSH32 0x4E487B7100000000000000000000000000000000000000000000000000000000 PUSH0 MSTORE PUSH1 0x41 PUSH1 0x4 MSTORE PUSH1 0x24 PUSH0 REVERT JUMPDEST PUSH2 0x851 DUP3 PUSH2 0x80B JUMP JUMPDEST DUP2 ADD DUP2 DUP2 LT PUSH8 0xFFFFFFFFFFFFFFFF DUP3 GT OR ISZERO PUSH2 0x870 JUMPI PUSH2 0x86F PUSH2 0x81B JUMP JUMPDEST JUMPDEST DUP1 PUSH1 0x40 MSTORE POP POP POP JUMP JUMPDEST PUSH0 PUSH2 0x882 PUSH2 0x7F2 JUMP JUMPDEST SWAP1 POP PUSH2 0x88E DUP3 DUP3 PUSH2 0x848 JUMP JUMPDEST SWAP2 SWAP1 POP JUMP JUMPDEST PUSH0 PUSH8 0xFFFFFFFFFFFFFFFF DUP3 GT ISZERO PUSH2 0x8AD JUMPI PUSH2 0x8AC PUSH2 0x81B JUMP JUMPDEST JUMPDEST PUSH2 0x8B6 DUP3 PUSH2 0x80B JUMP JUMPDEST SWAP1 POP PUSH1 0x20 DUP2 ADD SWAP1 POP SWAP2 SWAP1 POP JUMP JUMPDEST DUP3 DUP2 DUP4 CALLDATACOPY PUSH0 DUP4 DUP4 ADD MSTORE POP POP POP JUMP JUMPDEST PUSH0 PUSH2 0x8E3 PUSH2 0x8DE DUP5 PUSH2 0x893 JUMP JUMPDEST PUSH2 0x879 JUMP JUMPDEST SWAP1 POP DUP3 DUP2 MSTORE PUSH1 0x20 DUP2 ADD DUP5 DUP5 DUP5 ADD GT ISZERO PUSH2 0x8FF JUMPI PUSH2 0x8FE PUSH2 0x807 JUMP JUMPDEST JUMPDEST PUSH2 0x90A DUP5 DUP3 DUP6 PUSH2 0x8C3 JUMP JUMPDEST POP SWAP4 SWAP3 POP POP POP JUMP JUMPDEST PUSH0 DUP3 PUSH1 0x1F DUP4 ADD SLT PUSH2 0x926 JUMPI PUSH2 0x925 PUSH2 0x803 JUMP JUMPDEST JUMPDEST DUP2 CALLDATALOAD PUSH2 0x936 DUP5 DUP3 PUSH1 0x20 DUP7 ADD PUSH2 0x8D1 JUMP JUMPDEST SWAP2 POP POP SWAP3 SWAP2 POP POP JUMP JUMPDEST PUSH0 DUP2 SWAP1 POP SWAP2 SWAP1 POP JUMP JUMPDEST PUSH2 0x951 DUP2 PUSH2 0x93F JUMP JUMPDEST DUP2 EQ PUSH2 0x95B JUMPI PUSH0 DUP1 REVERT JUMPDEST POP JUMP JUMPDEST PUSH0 DUP2 CALLDATALOAD SWAP1 POP PUSH2 0x96C DUP2 PUSH2 0x948 JUMP JUMPDEST SWAP3 SWAP2 POP POP JUMP JUMPDEST PUSH0 DUP1 PUSH1 0x40 DUP4 DUP6 SUB SLT ISZERO PUSH2 0x988 JUMPI PUSH2 0x987 PUSH2 0x7FB JUMP JUMPDEST JUMPDEST PUSH0 DUP4 ADD CALLDATALOAD PUSH8 0xFFFFFFFFFFFFFFFF DUP2 GT ISZERO PUSH2 0x9A5 JUMPI PUSH2 0x9A4 PUSH2 0x7FF JUMP JUMPDEST JUMPDEST PUSH2 0x9B1 DUP6 DUP3 DUP7 ADD PUSH2 0x912 JUMP JUMPDEST SWAP3 POP POP PUSH1 0x20 PUSH2 0x9C2 DUP6 DUP3 DUP7 ADD PUSH2 0x95E JUMP JUMPDEST SWAP2 POP POP SWAP3 POP SWAP3 SWAP1 POP JUMP JUMPDEST PUSH2 0x9D5 DUP2 PUSH2 0x93F JUMP JUMPDEST DUP3 MSTORE POP POP JUMP JUMPDEST PUSH0 PUSH1 0x20 DUP3 ADD SWAP1 POP PUSH2 0x9EE PUSH0 DUP4 ADD DUP5 PUSH2 0x9CC JUMP JUMPDEST SWAP3 SWAP2 POP POP JUMP JUMPDEST PUSH0 PUSH20 0xFFFFFFFFFFFFFFFFFFFFFFFFFFFFFFFFFFFFFFFF DUP3 AND SWAP1 POP SWAP2 SWAP1 POP JUMP JUMPDEST PUSH0 PUSH2 0xA1D DUP3 PUSH2 0x9F4 JUMP JUMPDEST SWAP1 POP SWAP2 SWAP1 POP JUMP JUMPDEST PUSH2 0xA2D DUP2 PUSH2 0xA13 JUMP JUMPDEST DUP2 EQ PUSH2 0xA37 JUMPI PUSH0 DUP1 REVERT JUMPDEST POP JUMP JUMPDEST PUSH0 DUP2 CALLDATALOAD SWAP1 POP PUSH2 0xA48 DUP2 PUSH2 0xA24 JUMP JUMPDEST SWAP3 SWAP2 POP POP JUMP JUMPDEST PUSH0 DUP1 PUSH1 0x40 DUP4 DUP6 SUB SLT ISZERO PUSH2 0xA64 JUMPI PUSH2 0xA63 PUSH2 0x7FB JUMP JUMPDEST JUMPDEST PUSH0 PUSH2 0xA71 DUP6 DUP3 DUP7 ADD PUSH2 0x95E JUMP JUMPDEST SWAP3 POP POP PUSH1 0x20 PUSH2 0xA82 DUP6 DUP3 DUP7 ADD PUSH2 0xA3A JUMP JUMPDEST SWAP2 POP POP SWAP3 POP SWAP3 SWAP1 POP JUMP JUMPDEST PUSH0 DUP1 PUSH0 PUSH1 0x60 DUP5 DUP7 SUB SLT ISZERO PUSH2 0xAA3 JUMPI PUSH2 0xAA2 PUSH2 0x7FB JUMP JUMPDEST JUMPDEST PUSH0 PUSH2 0xAB0 DUP7 DUP3 DUP8 ADD PUSH2 0x95E JUMP JUMPDEST SWAP4 POP POP PUSH1 0x20 PUSH2 0xAC1 DUP7 DUP3 DUP8 ADD PUSH2 0xA3A JUMP JUMPDEST SWAP3 POP POP PUSH1 0x40 PUSH2 0xAD2 DUP7 DUP3 DUP8 ADD PUSH2 0x95E JUMP JUMPDEST SWAP2 POP POP SWAP3 POP SWAP3 POP SWAP3 JUMP JUMPDEST PUSH0 PUSH1 0x20 DUP3 DUP5 SUB SLT ISZERO PUSH2 0xAF1 JUMPI PUSH2 0xAF0 PUSH2 0x7FB JUMP JUMPDEST JUMPDEST PUSH0 PUSH2 0xAFE DUP5 DUP3 DUP6 ADD PUSH2 0x95E JUMP JUMPDEST SWAP2 POP POP SWAP3 SWAP2 POP POP JUMP JUMPDEST PUSH2 0xB10 DUP2 PUSH2 0xA13 JUMP JUMPDEST DUP3 MSTORE POP POP JUMP JUMPDEST PUSH0 PUSH1 0x20 DUP3 ADD SWAP1 POP PUSH2 0xB29 PUSH0 DUP4 ADD DUP5 PUSH2 0xB07 JUMP JUMPDEST SWAP3 SWAP2 POP POP JUMP JUMPDEST PUSH0 DUP2 MLOAD SWAP1 POP SWAP2 SWAP1 POP JUMP JUMPDEST PUSH0 DUP3 DUP3 MSTORE PUSH1 0x20 DUP3 ADD SWAP1 POP SWAP3 SWAP2 POP POP JUMP JUMPDEST PUSH0 JUMPDEST DUP4 DUP2 LT ISZERO PUSH2 0xB66 JUMPI DUP1 DUP3 ADD MLOAD DUP2 DUP5 ADD MSTORE PUSH1 0x20 DUP2 ADD SWAP1 POP PUSH2 0xB4B JUMP JUMPDEST PUSH0 DUP5 DUP5 ADD MSTORE POP POP POP POP JUMP JUMPDEST PUSH0 PUSH2 0xB7B DUP3 PUSH2 0xB2F JUMP JUMPDEST PUSH2 0xB85 DUP2 DUP6 PUSH2 0xB39 JUMP JUMPDEST SWAP4 POP PUSH2 0xB95 DUP2 DUP6 PUSH1 0x20 DUP7 ADD PUSH2 0xB49 JUMP JUMPDEST PUSH2 0xB9E DUP2 PUSH2 0x80B JUMP JUMPDEST DUP5 ADD SWAP2 POP POP SWAP3 SWAP2 POP POP JUMP JUMPDEST PUSH0 PUSH1 0x40 DUP3 ADD SWAP1 POP DUP2 DUP2 SUB PUSH0 DUP4 ADD MSTORE PUSH2 0xBC1 DUP2 DUP6 PUSH2 0xB71 JUMP JUMPDEST SWAP1 POP PUSH2 0xBD0 PUSH1 0x20 DUP4 ADD DUP5 PUSH2 0x9CC JUMP JUMPDEST SWAP4 SWAP3 POP POP POP JUMP JUMPDEST PUSH0 DUP2 MLOAD SWAP1 POP SWAP2 SWAP1 POP JUMP JUMPDEST PUSH0 DUP3 DUP3 MSTORE PUSH1 0x20 DUP3 ADD SWAP1 POP SWAP3 SWAP2 POP POP JUMP JUMPDEST PUSH0 DUP2 SWAP1 POP PUSH1 0x20 DUP3 ADD SWAP1 POP SWAP2 SWAP1 POP JUMP JUMPDEST PUSH2 0xC09 DUP2 PUSH2 0x93F JUMP JUMPDEST DUP3 MSTORE POP POP JUMP JUMPDEST PUSH0 PUSH2 0xC1A DUP4 DUP4 PUSH2 0xC00 JUMP JUMPDEST PUSH1 0x20 DUP4 ADD SWAP1 POP SWAP3 SWAP2 POP POP JUMP JUMPDEST PUSH0 PUSH1 0x20 DUP3 ADD SWAP1 POP SWAP2 SWAP1 POP JUMP JUMPDEST PUSH0 PUSH2 0xC3C DUP3 PUSH2 0xBD7 JUMP JUMPDEST PUSH2 0xC46 DUP2 DUP6 PUSH2 0xBE1 JUMP JUMPDEST SWAP4 POP PUSH2 0xC51 DUP4 PUSH2 0xBF1 JUMP JUMPDEST DUP1 PUSH0 JUMPDEST DUP4 DUP2 LT ISZERO PUSH2 0xC81 JUMPI DUP2 MLOAD PUSH2 0xC68 DUP9 DUP3 PUSH2 0xC0F JUMP JUMPDEST SWAP8 POP PUSH2 0xC73 DUP4 PUSH2 0xC26 JUMP JUMPDEST SWAP3 POP POP PUSH1 0x1 DUP2 ADD SWAP1 POP PUSH2 0xC54 JUMP JUMPDEST POP DUP6 SWAP4 POP POP POP POP SWAP3 SWAP2 POP POP JUMP JUMPDEST PUSH0 PUSH1 0x20 DUP3 ADD SWAP1 POP DUP2 DUP2 SUB PUSH0 DUP4 ADD MSTORE PUSH2 0xCA6 DUP2 DUP5 PUSH2 0xC32 JUMP JUMPDEST SWAP1 POP SWAP3 SWAP2 POP POP JUMP JUMPDEST PUSH0 PUSH1 0x20 DUP3 DUP5 SUB SLT ISZERO PUSH2 0xCC3 JUMPI PUSH2 0xCC2 PUSH2 0x7FB JUMP JUMPDEST JUMPDEST PUSH0 PUSH2 0xCD0 DUP5 DUP3 DUP6 ADD PUSH2 0xA3A JUMP JUMPDEST SWAP2 POP POP SWAP3 SWAP2 POP POP JUMP JUMPDEST PUSH32 0x4E487B7100000000000000000000000000000000000000000000000000000000 PUSH0 MSTORE PUSH1 0x11 PUSH1 0x4 MSTORE PUSH1 0x24 PUSH0 REVERT JUMPDEST PUSH0 PUSH2 0xD10 DUP3 PUSH2 0x93F JUMP JUMPDEST SWAP2 POP PUSH32 0xFFFFFFFFFFFFFFFFFFFFFFFFFFFFFFFFFFFFFFFFFFFFFFFFFFFFFFFFFFFFFFFF DUP3 SUB PUSH2 0xD42 JUMPI PUSH2 0xD41 PUSH2 0xCD9 JUMP JUMPDEST JUMPDEST PUSH1 0x1 DUP3 ADD SWAP1 POP SWAP2 SWAP1 POP JUMP JUMPDEST PUSH32 0x4E487B7100000000000000000000000000000000000000000000000000000000 PUSH0 MSTORE PUSH1 0x22 PUSH1 0x4 MSTORE PUSH1 0x24 PUSH0 REVERT JUMPDEST PUSH0 PUSH1 0x2 DUP3 DIV SWAP1 POP PUSH1 0x1 DUP3 AND DUP1 PUSH2 0xD91 JUMPI PUSH1 0x7F DUP3 AND SWAP2 POP JUMPDEST PUSH1 0x20 DUP3 LT DUP2 SUB PUSH2 0xDA4 JUMPI PUSH2 0xDA3 PUSH2 0xD4D JUMP JUMPDEST JUMPDEST POP SWAP2 SWAP1 POP JUMP JUMPDEST PUSH0 DUP2 SWAP1 POP DUP2 PUSH0 MSTORE PUSH1 0x20 PUSH0 KECCAK256 SWAP1 POP SWAP2 SWAP1 POP JUMP JUMPDEST PUSH0 PUSH1 0x20 PUSH1 0x1F DUP4 ADD DIV SWAP1 POP SWAP2 SWAP1 POP JUMP JUMPDEST PUSH0 DUP3 DUP3 SHL SWAP1 POP SWAP3 SWAP2 POP POP JUMP JUMPDEST PUSH0 PUSH1 0x8 DUP4 MUL PUSH2 0xE06 PUSH32 0xFFFFFFFFFFFFFFFFFFFFFFFFFFFFFFFFFFFFFFFFFFFFFFFFFFFFFFFFFFFFFFFF DUP3 PUSH2 0xDCB JUMP JUMPDEST PUSH2 0xE10 DUP7 DUP4 PUSH2 0xDCB JUMP JUMPDEST SWAP6 POP DUP1 NOT DUP5 AND SWAP4 POP DUP1 DUP7 AND DUP5 OR SWAP3 POP POP POP SWAP4 SWAP3 POP POP POP JUMP JUMPDEST PUSH0 DUP2 SWAP1 POP SWAP2 SWAP1 POP JUMP JUMPDEST PUSH0 PUSH2 0xE4B PUSH2 0xE46 PUSH2 0xE41 DUP5 PUSH2 0x93F JUMP JUMPDEST PUSH2 0xE28 JUMP JUMPDEST PUSH2 0x93F JUMP JUMPDEST SWAP1 POP SWAP2 SWAP1 POP JUMP JUMPDEST PUSH0 DUP2 SWAP1 POP SWAP2 SWAP1 POP JUMP JUMPDEST PUSH2 0xE64 DUP4 PUSH2 0xE31 JUMP JUMPDEST PUSH2 0xE78 PUSH2 0xE70 DUP3 PUSH2 0xE52 JUMP JUMPDEST DUP5 DUP5 SLOAD PUSH2 0xDD7 JUMP JUMPDEST DUP3 SSTORE POP POP POP POP JUMP JUMPDEST PUSH0 SWAP1 JUMP JUMPDEST PUSH2 0xE8C PUSH2 0xE80 JUMP JUMPDEST PUSH2 0xE97 DUP2 DUP5 DUP5 PUSH2 0xE5B JUMP JUMPDEST POP POP POP JUMP JUMPDEST JUMPDEST DUP2 DUP2 LT ISZERO PUSH2 0xEBA JUMPI PUSH2 0xEAF PUSH0 DUP3 PUSH2 0xE84 JUMP JUMPDEST PUSH1 0x1 DUP2 ADD SWAP1 POP PUSH2 0xE9D JUMP JUMPDEST POP POP JUMP JUMPDEST PUSH1 0x1F DUP3 GT ISZERO PUSH2 0xEFF JUMPI PUSH2 0xED0 DUP2 PUSH2 0xDAA JUMP JUMPDEST PUSH2 0xED9 DUP5 PUSH2 0xDBC JUMP JUMPDEST DUP2 ADD PUSH1 0x20 DUP6 LT ISZERO PUSH2 0xEE8 JUMPI DUP2 SWAP1 POP JUMPDEST PUSH2 0xEFC PUSH2 0xEF4 DUP6 PUSH2 0xDBC JUMP JUMPDEST DUP4 ADD DUP3 PUSH2 0xE9C JUMP JUMPDEST POP POP JUMPDEST POP POP POP JUMP JUMPDEST PUSH0 DUP3 DUP3 SHR SWAP1 POP SWAP3 SWAP2 POP POP JUMP JUMPDEST PUSH0 PUSH2 0xF1F PUSH0 NOT DUP5 PUSH1 0x8 MUL PUSH2 0xF04 JUMP JUMPDEST NOT DUP1 DUP4 AND SWAP2 POP POP SWAP3 SWAP2 POP POP JUMP JUMPDEST PUSH0 PUSH2 0xF37 DUP4 DUP4 PUSH2 0xF10 JUMP JUMPDEST SWAP2 POP DUP3 PUSH1 0x2 MUL DUP3 OR SWAP1 POP SWAP3 SWAP2 POP POP JUMP JUMPDEST PUSH2 0xF50 DUP3 PUSH2 0xB2F JUMP JUMPDEST PUSH8 0xFFFFFFFFFFFFFFFF DUP2 GT ISZERO PUSH2 0xF69 JUMPI PUSH2 0xF68 PUSH2 0x81B JUMP JUMPDEST JUMPDEST PUSH2 0xF73 DUP3 SLOAD PUSH2 0xD7A JUMP JUMPDEST PUSH2 0xF7E DUP3 DUP3 DUP6 PUSH2 0xEBE JUMP JUMPDEST PUSH0 PUSH1 0x20 SWAP1 POP PUSH1 0x1F DUP4 GT PUSH1 0x1 DUP2 EQ PUSH2 0xFAF JUMPI PUSH0 DUP5 ISZERO PUSH2 0xF9D JUMPI DUP3 DUP8 ADD MLOAD SWAP1 POP JUMPDEST PUSH2 0xFA7 DUP6 DUP3 PUSH2 0xF2C JUMP JUMPDEST DUP7 SSTORE POP PUSH2 0x100E JUMP JUMPDEST PUSH1 0x1F NOT DUP5 AND PUSH2 0xFBD DUP7 PUSH2 0xDAA JUMP JUMPDEST PUSH0 JUMPDEST DUP3 DUP2 LT ISZERO PUSH2 0xFE4 JUMPI DUP5 DUP10 ADD MLOAD DUP3 SSTORE PUSH1 0x1 DUP3 ADD SWAP2 POP PUSH1 0x20 DUP6 ADD SWAP5 POP PUSH1 0x20 DUP2 ADD SWAP1 POP PUSH2 0xFBF JUMP JUMPDEST DUP7 DUP4 LT ISZERO PUSH2 0x1001 JUMPI DUP5 DUP10 ADD MLOAD PUSH2 0xFFD PUSH1 0x1F DUP10 AND DUP3 PUSH2 0xF10 JUMP JUMPDEST DUP4 SSTORE POP JUMPDEST PUSH1 0x1 PUSH1 0x2 DUP9 MUL ADD DUP9 SSTORE POP POP POP JUMPDEST POP POP POP POP POP POP JUMP JUMPDEST PUSH32 0x496E73756666696369656E742073686172657300000000000000000000000000 PUSH0 DUP3 ADD MSTORE POP JUMP JUMPDEST PUSH0 PUSH2 0x104A PUSH1 0x13 DUP4 PUSH2 0xB39 JUMP JUMPDEST SWAP2 POP PUSH2 0x1055 DUP3 PUSH2 0x1016 JUMP JUMPDEST PUSH1 0x20 DUP3 ADD SWAP1 POP SWAP2 SWAP1 POP JUMP JUMPDEST PUSH0 PUSH1 0x20 DUP3 ADD SWAP1 POP DUP2 DUP2 SUB PUSH0 DUP4 ADD MSTORE PUSH2 0x1077 DUP2 PUSH2 0x103E JUMP JUMPDEST SWAP1 POP SWAP2 SWAP1 POP JUMP JUMPDEST PUSH0 PUSH2 0x1088 DUP3 PUSH2 0x93F JUMP JUMPDEST SWAP2 POP PUSH2 0x1093 DUP4 PUSH2 0x93F JUMP JUMPDEST SWAP3 POP DUP3 DUP3 SUB SWAP1 POP DUP2 DUP2 GT ISZERO PUSH2 0x10AB JUMPI PUSH2 0x10AA PUSH2 0xCD9 JUMP JUMPDEST JUMPDEST SWAP3 SWAP2 POP POP JUMP JUMPDEST PUSH0 PUSH2 0x10BB DUP3 PUSH2 0x93F JUMP JUMPDEST SWAP2 POP PUSH2 0x10C6 DUP4 PUSH2 0x93F JUMP JUMPDEST SWAP3 POP DUP3 DUP3 ADD SWAP1 POP DUP1 DUP3 GT ISZERO PUSH2 0x10DE JUMPI PUSH2 0x10DD PUSH2 0xCD9 JUMP JUMPDEST JUMPDEST SWAP3 SWAP2 POP POP JUMP JUMPDEST PUSH32 0x4F776E61626C653A206E6577206F776E657220697320746865207A65726F2061 PUSH0 DUP3 ADD MSTORE PUSH32 0x6464726573730000000000000000000000000000000000000000000000000000 PUSH1 0x20 DUP3 ADD MSTORE POP JUMP JUMPDEST PUSH0 PUSH2 0x113E PUSH1 0x26 DUP4 PUSH2 0xB39 JUMP JUMPDEST SWAP2 POP PUSH2 0x1149 DUP3 PUSH2 0x10E4 JUMP JUMPDEST PUSH1 0x40 DUP3 ADD SWAP1 POP SWAP2 SWAP1 POP JUMP JUMPDEST PUSH0 PUSH1 0x20 DUP3 ADD SWAP1 POP DUP2 DUP2 SUB PUSH0 DUP4 ADD MSTORE PUSH2 0x116B DUP2 PUSH2 0x1132 JUMP JUMPDEST SWAP1 POP SWAP2 SWAP1 POP JUMP JUMPDEST PUSH32 0x4F776E61626C653A2063616C6C6572206973206E6F7420746865206F776E6572 PUSH0 DUP3 ADD MSTORE POP JUMP JUMPDEST PUSH0 PUSH2 0x11A6 PUSH1 0x20 DUP4 PUSH2 0xB39 JUMP JUMPDEST SWAP2 POP PUSH2 0x11B1 DUP3 PUSH2 0x1172 JUMP JUMPDEST PUSH1 0x20 DUP3 ADD SWAP1 POP SWAP2 SWAP1 POP JUMP JUMPDEST PUSH0 PUSH1 0x20 DUP3 ADD SWAP1 POP DUP2 DUP2 SUB PUSH0 DUP4 ADD MSTORE PUSH2 0x11D3 DUP2 PUSH2 0x119A JUMP JUMPDEST SWAP1 POP SWAP2 SWAP1 POP JUMP INVALID LOG2 PUSH5 0x6970667358 0x22 SLT KECCAK256 0xE1 0x4E BLOCKHASH 0xAE 0xB9 0x26 0xE9 PUSH1 0x8F PC ORIGIN SWAP15 LOG0 SSTORE PUSH2 0x6A1B 0xEA PUSH1 0x25 0xC6 SWAP9 CODECOPY 0xFC 0xC9 DUP4 PUSH2 0x3B51 0x4B 0x2A 0x25 PUSH5 0x736F6C6343 STOP ADDMOD ISZERO STOP CALLER "
				},
				"gasEstimates": {
					"creation": {
						"codeDepositCost": "924800",
						"executionCost": "infinite",
						"totalCost": "infinite"
					},
					"external": {
						"addAsset(string,uint256)": "infinite",
						"assetIds(uint256)": "infinite",
						"assets(uint256)": "infinite",
						"balanceOf(uint256,address)": "infinite",
						"getAllAssetIds()": "infinite",
						"owner()": "2537",
						"renounceOwnership()": "30435",
						"transferOwnership(address)": "30819",
						"transferShares(uint256,address,uint256)": "infinite"
					}
				},
				"methodIdentifiers": {
					"addAsset(string,uint256)": "1bc7ffe9",
					"assetIds(uint256)": "87541ed6",
					"assets(uint256)": "cf35bdd0",
					"balanceOf(uint256,address)": "3656eec2",
					"getAllAssetIds()": "e122f907",
					"owner()": "8da5cb5b",
					"renounceOwnership()": "715018a6",
					"transferOwnership(address)": "f2fde38b",
					"transferShares(uint256,address,uint256)": "84b9a6e6"
				}
			},
			"storageLayout": {
				"storage": [
					{
						"astId": 7,
						"contract": "contracts/AquoIntManager2.sol:MultiAssetManager",
						"label": "_owner",
						"offset": 0,
						"slot": "0",
						"type": "t_address"
					},
					{
						"astId": 151,
						"contract": "contracts/AquoIntManager2.sol:MultiAssetManager",
						"label": "nextAssetId",
						"offset": 0,
						"slot": "1",
						"type": "t_uint256"
					},
					{
						"astId": 156,
						"contract": "contracts/AquoIntManager2.sol:MultiAssetManager",
						"label": "assets",
						"offset": 0,
						"slot": "2",
						"type": "t_mapping(t_uint256,t_struct(Asset)148_storage)"
					},
					{
						"astId": 159,
						"contract": "contracts/AquoIntManager2.sol:MultiAssetManager",
						"label": "assetIds",
						"offset": 0,
						"slot": "3",
						"type": "t_array(t_uint256)dyn_storage"
					}
				],
				"types": {
					"t_address": {
						"encoding": "inplace",
						"label": "address",
						"numberOfBytes": "20"
					},
					"t_array(t_uint256)dyn_storage": {
						"base": "t_uint256",
						"encoding": "dynamic_array",
						"label": "uint256[]",
						"numberOfBytes": "32"
					},
					"t_mapping(t_address,t_uint256)": {
						"encoding": "mapping",
						"key": "t_address",
						"label": "mapping(address => uint256)",
						"numberOfBytes": "32",
						"value": "t_uint256"
					},
					"t_mapping(t_uint256,t_struct(Asset)148_storage)": {
						"encoding": "mapping",
						"key": "t_uint256",
						"label": "mapping(uint256 => struct MultiAssetManager.Asset)",
						"numberOfBytes": "32",
						"value": "t_struct(Asset)148_storage"
					},
					"t_string_storage": {
						"encoding": "bytes",
						"label": "string",
						"numberOfBytes": "32"
					},
					"t_struct(Asset)148_storage": {
						"encoding": "inplace",
						"label": "struct MultiAssetManager.Asset",
						"members": [
							{
								"astId": 141,
								"contract": "contracts/AquoIntManager2.sol:MultiAssetManager",
								"label": "ipfsAddress",
								"offset": 0,
								"slot": "0",
								"type": "t_string_storage"
							},
							{
								"astId": 145,
								"contract": "contracts/AquoIntManager2.sol:MultiAssetManager",
								"label": "shareBalances",
								"offset": 0,
								"slot": "1",
								"type": "t_mapping(t_address,t_uint256)"
							},
							{
								"astId": 147,
								"contract": "contracts/AquoIntManager2.sol:MultiAssetManager",
								"label": "totalShares",
								"offset": 0,
								"slot": "2",
								"type": "t_uint256"
							}
						],
						"numberOfBytes": "96"
					},
					"t_uint256": {
						"encoding": "inplace",
						"label": "uint256",
						"numberOfBytes": "32"
					}
				}
			},
			"userdoc": {
				"kind": "user",
				"methods": {},
				"version": 1
			}
		}
	}
}