{
	"contracts/erc20htlc.sol": {
		"HashedTimelockERC20": {
			"abi": [
				{
					"anonymous": false,
					"inputs": [
						{
							"indexed": true,
							"internalType": "bytes32",
							"name": "contractId",
							"type": "bytes32"
						},
						{
							"indexed": true,
							"internalType": "address",
							"name": "sender",
							"type": "address"
						},
						{
							"indexed": true,
							"internalType": "address",
							"name": "receiver",
							"type": "address"
						},
						{
							"indexed": false,
							"internalType": "address",
							"name": "tokenContract",
							"type": "address"
						},
						{
							"indexed": false,
							"internalType": "uint256",
							"name": "amount",
							"type": "uint256"
						},
						{
							"indexed": false,
							"internalType": "bytes32",
							"name": "hashlock",
							"type": "bytes32"
						},
						{
							"indexed": false,
							"internalType": "uint256",
							"name": "timelock",
							"type": "uint256"
						}
					],
					"name": "HTLCERC20New",
					"type": "event"
				},
				{
					"anonymous": false,
					"inputs": [
						{
							"indexed": true,
							"internalType": "bytes32",
							"name": "contractId",
							"type": "bytes32"
						}
					],
					"name": "HTLCERC20Refund",
					"type": "event"
				},
				{
					"anonymous": false,
					"inputs": [
						{
							"indexed": true,
							"internalType": "bytes32",
							"name": "contractId",
							"type": "bytes32"
						}
					],
					"name": "HTLCERC20Withdraw",
					"type": "event"
				},
				{
					"inputs": [
						{
							"internalType": "bytes32",
							"name": "_contractId",
							"type": "bytes32"
						}
					],
					"name": "getContract",
					"outputs": [
						{
							"internalType": "address",
							"name": "sender",
							"type": "address"
						},
						{
							"internalType": "address",
							"name": "receiver",
							"type": "address"
						},
						{
							"internalType": "address",
							"name": "tokenContract",
							"type": "address"
						},
						{
							"internalType": "uint256",
							"name": "amount",
							"type": "uint256"
						},
						{
							"internalType": "bytes32",
							"name": "hashlock",
							"type": "bytes32"
						},
						{
							"internalType": "uint256",
							"name": "timelock",
							"type": "uint256"
						},
						{
							"internalType": "bool",
							"name": "withdrawn",
							"type": "bool"
						},
						{
							"internalType": "bool",
							"name": "refunded",
							"type": "bool"
						},
						{
							"internalType": "bytes32",
							"name": "preimage",
							"type": "bytes32"
						}
					],
					"stateMutability": "view",
					"type": "function"
				},
				{
					"inputs": [
						{
							"internalType": "address",
							"name": "_receiver",
							"type": "address"
						},
						{
							"internalType": "bytes32",
							"name": "_hashlock",
							"type": "bytes32"
						},
						{
							"internalType": "uint256",
							"name": "_timelock",
							"type": "uint256"
						},
						{
							"internalType": "address",
							"name": "_tokenContract",
							"type": "address"
						},
						{
							"internalType": "uint256",
							"name": "_amount",
							"type": "uint256"
						}
					],
					"name": "newContract",
					"outputs": [
						{
							"internalType": "bytes32",
							"name": "contractId",
							"type": "bytes32"
						}
					],
					"stateMutability": "nonpayable",
					"type": "function"
				},
				{
					"inputs": [
						{
							"internalType": "bytes32",
							"name": "_contractId",
							"type": "bytes32"
						}
					],
					"name": "refund",
					"outputs": [
						{
							"internalType": "bool",
							"name": "",
							"type": "bool"
						}
					],
					"stateMutability": "nonpayable",
					"type": "function"
				},
				{
					"inputs": [
						{
							"internalType": "bytes32",
							"name": "_contractId",
							"type": "bytes32"
						},
						{
							"internalType": "bytes32",
							"name": "_preimage",
							"type": "bytes32"
						}
					],
					"name": "withdraw",
					"outputs": [
						{
							"internalType": "bool",
							"name": "",
							"type": "bool"
						}
					],
					"stateMutability": "nonpayable",
					"type": "function"
				}
			],
			"devdoc": {
				"kind": "dev",
				"methods": {
					"newContract(address,bytes32,uint256,address,uint256)": {
						"details": "Sender / Payer sets up a new hash time lock contract depositing the funds and providing the reciever and terms. NOTE: _receiver must first call approve() on the token contract.       See allowance check in tokensTransferable modifier.",
						"params": {
							"_amount": "Amount of the token to lock up.",
							"_hashlock": "A sha-2 sha256 hash hashlock.",
							"_receiver": "Receiver of the tokens.",
							"_timelock": "UNIX epoch seconds time that the lock expires at.                  Refunds can be made after this time.",
							"_tokenContract": "ERC20 Token contract address."
						},
						"returns": {
							"contractId": "Id of the new HTLC. This is needed for subsequent                    calls."
						}
					},
					"refund(bytes32)": {
						"details": "Called by the sender if there was no withdraw AND the time lock has expired. This will restore ownership of the tokens to the sender.",
						"params": {
							"_contractId": "Id of HTLC to refund from."
						},
						"returns": {
							"_0": "bool true on success"
						}
					},
					"withdraw(bytes32,bytes32)": {
						"details": "Called by the receiver once they know the preimage of the hashlock. This will transfer ownership of the locked tokens to their address.",
						"params": {
							"_contractId": "Id of the HTLC.",
							"_preimage": "sha256(_preimage) should equal the contract hashlock."
						},
						"returns": {
							"_0": "bool true on success"
						}
					}
				},
				"title": "Hashed Timelock Contracts (HTLCs) on Ethereum ERC20 tokens. This contract provides a way to create and keep HTLCs for ERC20 tokens. See HashedTimelock.sol for a contract that provides the same functions for the native ETH token. Protocol:  1) newContract(receiver, hashlock, timelock, tokenContract, amount) - a      sender calls this to create a new HTLC on a given token (tokenContract)       for a given amount. A 32 byte contract id is returned  2) withdraw(contractId, preimage) - once the receiver knows the preimage of      the hashlock hash they can claim the tokens with this function  3) refund() - after timelock has expired and if the receiver did not      withdraw the tokens the sender / creator of the HTLC can get their tokens      back with this function.",
				"version": 1
			},
			"evm": {
				"assembly": "    /* \"contracts/erc20htlc.sol\":935:9022  contract HashedTimelockERC20 {\r... */\n  mstore(0x40, 0x80)\n  callvalue\n  dup1\n  iszero\n  tag_1\n  jumpi\n  0x00\n  dup1\n  revert\ntag_1:\n  pop\n  dataSize(sub_0)\n  dup1\n  dataOffset(sub_0)\n  0x00\n  codecopy\n  0x00\n  return\nstop\n\nsub_0: assembly {\n        /* \"contracts/erc20htlc.sol\":935:9022  contract HashedTimelockERC20 {\r... */\n      mstore(0x40, 0x80)\n      callvalue\n      dup1\n      iszero\n      tag_1\n      jumpi\n      0x00\n      dup1\n      revert\n    tag_1:\n      pop\n      jumpi(tag_2, lt(calldatasize, 0x04))\n      shr(0xe0, calldataload(0x00))\n      dup1\n      0x398a7a98\n      eq\n      tag_3\n      jumpi\n      dup1\n      0x63615149\n      eq\n      tag_4\n      jumpi\n      dup1\n      0x7249fbb6\n      eq\n      tag_5\n      jumpi\n      dup1\n      0xe16c7d98\n      eq\n      tag_6\n      jumpi\n    tag_2:\n      0x00\n      dup1\n      revert\n        /* \"contracts/erc20htlc.sol\":4795:6366  function newContract(\r... */\n    tag_3:\n      tag_7\n      0x04\n      dup1\n      calldatasize\n      sub\n      0xa0\n      dup2\n      lt\n      iszero\n      tag_8\n      jumpi\n      0x00\n      dup1\n      revert\n    tag_8:\n      dup2\n      add\n      swap1\n      dup1\n      dup1\n      calldataload\n      0xffffffffffffffffffffffffffffffffffffffff\n      and\n      swap1\n      0x20\n      add\n      swap1\n      swap3\n      swap2\n      swap1\n      dup1\n      calldataload\n      swap1\n      0x20\n      add\n      swap1\n      swap3\n      swap2\n      swap1\n      dup1\n      calldataload\n      swap1\n      0x20\n      add\n      swap1\n      swap3\n      swap2\n      swap1\n      dup1\n      calldataload\n      0xffffffffffffffffffffffffffffffffffffffff\n      and\n      swap1\n      0x20\n      add\n      swap1\n      swap3\n      swap2\n      swap1\n      dup1\n      calldataload\n      swap1\n      0x20\n      add\n      swap1\n      swap3\n      swap2\n      swap1\n      pop\n      pop\n      pop\n      tag_9\n      jump\t// in\n    tag_7:\n      mload(0x40)\n      dup1\n      dup3\n      dup2\n      mstore\n      0x20\n      add\n      swap2\n      pop\n      pop\n      mload(0x40)\n      dup1\n      swap2\n      sub\n      swap1\n      return\n        /* \"contracts/erc20htlc.sol\":6710:7196  function withdraw(bytes32 _contractId, bytes32 _preimage)\r... */\n    tag_4:\n      tag_10\n      0x04\n      dup1\n      calldatasize\n      sub\n      0x40\n      dup2\n      lt\n      iszero\n      tag_11\n      jumpi\n      0x00\n      dup1\n      revert\n    tag_11:\n      dup2\n      add\n      swap1\n      dup1\n      dup1\n      calldataload\n      swap1\n      0x20\n      add\n      swap1\n      swap3\n      swap2\n      swap1\n      dup1\n      calldataload\n      swap1\n      0x20\n      add\n      swap1\n      swap3\n      swap2\n      swap1\n      pop\n      pop\n      pop\n      tag_12\n      jump\t// in\n    tag_10:\n      mload(0x40)\n      dup1\n      dup3\n      iszero\n      iszero\n      dup2\n      mstore\n      0x20\n      add\n      swap2\n      pop\n      pop\n      mload(0x40)\n      dup1\n      swap2\n      sub\n      swap1\n      return\n        /* \"contracts/erc20htlc.sol\":7476:7852  function refund(bytes32 _contractId)\r... */\n    tag_5:\n      tag_13\n      0x04\n      dup1\n      calldatasize\n      sub\n      0x20\n      dup2\n      lt\n      iszero\n      tag_14\n      jumpi\n      0x00\n      dup1\n      revert\n    tag_14:\n      dup2\n      add\n      swap1\n      dup1\n      dup1\n      calldataload\n      swap1\n      0x20\n      add\n      swap1\n      swap3\n      swap2\n      swap1\n      pop\n      pop\n      pop\n      tag_15\n      jump\t// in\n    tag_13:\n      mload(0x40)\n      dup1\n      dup3\n      iszero\n      iszero\n      dup2\n      mstore\n      0x20\n      add\n      swap2\n      pop\n      pop\n      mload(0x40)\n      dup1\n      swap2\n      sub\n      swap1\n      return\n        /* \"contracts/erc20htlc.sol\":7863:8699  function getContract(bytes32 _contractId)\r... */\n    tag_6:\n      tag_16\n      0x04\n      dup1\n      calldatasize\n      sub\n      0x20\n      dup2\n      lt\n      iszero\n      tag_17\n      jumpi\n      0x00\n      dup1\n      revert\n    tag_17:\n      dup2\n      add\n      swap1\n      dup1\n      dup1\n      calldataload\n      swap1\n      0x20\n      add\n      swap1\n      swap3\n      swap2\n      swap1\n      pop\n      pop\n      pop\n      tag_18\n      jump\t// in\n    tag_16:\n      mload(0x40)\n      dup1\n      dup11\n      0xffffffffffffffffffffffffffffffffffffffff\n      and\n      dup2\n      mstore\n      0x20\n      add\n      dup10\n      0xffffffffffffffffffffffffffffffffffffffff\n      and\n      dup2\n      mstore\n      0x20\n      add\n      dup9\n      0xffffffffffffffffffffffffffffffffffffffff\n      and\n      dup2\n      mstore\n      0x20\n      add\n      dup8\n      dup2\n      mstore\n      0x20\n      add\n      dup7\n      dup2\n      mstore\n      0x20\n      add\n      dup6\n      dup2\n      mstore\n      0x20\n      add\n      dup5\n      iszero\n      iszero\n      dup2\n      mstore\n      0x20\n      add\n      dup4\n      iszero\n      iszero\n      dup2\n      mstore\n      0x20\n      add\n      dup3\n      dup2\n      mstore\n      0x20\n      add\n      swap10\n      pop\n      pop\n      pop\n      pop\n      pop\n      pop\n      pop\n      pop\n      pop\n      pop\n      mload(0x40)\n      dup1\n      swap2\n      sub\n      swap1\n      return\n        /* \"contracts/erc20htlc.sol\":4795:6366  function newContract(\r... */\n    tag_9:\n        /* \"contracts/erc20htlc.sol\":5102:5120  bytes32 contractId */\n      0x00\n        /* \"contracts/erc20htlc.sol\":5012:5026  _tokenContract */\n      dup3\n        /* \"contracts/erc20htlc.sol\":5028:5038  msg.sender */\n      caller\n        /* \"contracts/erc20htlc.sol\":5040:5047  _amount */\n      dup4\n        /* \"contracts/erc20htlc.sol\":1871:1872  0 */\n      0x00\n        /* \"contracts/erc20htlc.sol\":1861:1868  _amount */\n      dup2\n        /* \"contracts/erc20htlc.sol\":1861:1872  _amount > 0 */\n      gt\n        /* \"contracts/erc20htlc.sol\":1853:1901  require(_amount > 0, \"token amount must be > 0\") */\n      tag_20\n      jumpi\n      mload(0x40)\n      0x08c379a000000000000000000000000000000000000000000000000000000000\n      dup2\n      mstore\n      0x04\n      add\n      dup1\n      dup1\n      0x20\n      add\n      dup3\n      dup2\n      sub\n      dup3\n      mstore\n      0x18\n      dup2\n      mstore\n      0x20\n      add\n      dup1\n      0x746f6b656e20616d6f756e74206d757374206265203e20300000000000000000\n      dup2\n      mstore\n      pop\n      0x20\n      add\n      swap2\n      pop\n      pop\n      mload(0x40)\n      dup1\n      swap2\n      sub\n      swap1\n      revert\n    tag_20:\n        /* \"contracts/erc20htlc.sol\":1985:1992  _amount */\n      dup1\n        /* \"contracts/erc20htlc.sol\":1940:1946  _token */\n      dup4\n        /* \"contracts/erc20htlc.sol\":1934:1957  ERC20(_token).allowance */\n      0xffffffffffffffffffffffffffffffffffffffff\n      and\n      0xdd62ed3e\n        /* \"contracts/erc20htlc.sol\":1958:1965  _sender */\n      dup5\n        /* \"contracts/erc20htlc.sol\":1975:1979  this */\n      address\n        /* \"contracts/erc20htlc.sol\":1934:1981  ERC20(_token).allowance(_sender, address(this)) */\n      mload(0x40)\n      dup4\n      0xffffffff\n      and\n      0xe0\n      shl\n      dup2\n      mstore\n      0x04\n      add\n      dup1\n      dup4\n      0xffffffffffffffffffffffffffffffffffffffff\n      and\n      dup2\n      mstore\n      0x20\n      add\n      dup3\n      0xffffffffffffffffffffffffffffffffffffffff\n      and\n      dup2\n      mstore\n      0x20\n      add\n      swap3\n      pop\n      pop\n      pop\n      0x20\n      mload(0x40)\n      dup1\n      dup4\n      sub\n      dup2\n      dup7\n      dup1\n      extcodesize\n      iszero\n      dup1\n      iszero\n      tag_21\n      jumpi\n      0x00\n      dup1\n      revert\n    tag_21:\n      pop\n      gas\n      staticcall\n      iszero\n      dup1\n      iszero\n      tag_23\n      jumpi\n      returndatasize\n      0x00\n      dup1\n      returndatacopy\n      revert(0x00, returndatasize)\n    tag_23:\n      pop\n      pop\n      pop\n      pop\n      mload(0x40)\n      returndatasize\n      0x20\n      dup2\n      lt\n      iszero\n      tag_24\n      jumpi\n      0x00\n      dup1\n      revert\n    tag_24:\n      dup2\n      add\n      swap1\n      dup1\n      dup1\n      mload\n      swap1\n      0x20\n      add\n      swap1\n      swap3\n      swap2\n      swap1\n      pop\n      pop\n      pop\n        /* \"contracts/erc20htlc.sol\":1934:1992  ERC20(_token).allowance(_sender, address(this)) >= _amount */\n      lt\n      iszero\n        /* \"contracts/erc20htlc.sol\":1912:2053  require(\r... */\n      tag_25\n      jumpi\n      mload(0x40)\n      0x08c379a000000000000000000000000000000000000000000000000000000000\n      dup2\n      mstore\n      0x04\n      add\n      dup1\n      dup1\n      0x20\n      add\n      dup3\n      dup2\n      sub\n      dup3\n      mstore\n      0x21\n      dup2\n      mstore\n      0x20\n      add\n      dup1\n      data_98db95208a4165db2bf846b140f267671bc24ad3503084b9b0a60b8f7c8a0ad2\n      0x21\n      swap2\n      codecopy\n      0x40\n      add\n      swap2\n      pop\n      pop\n      mload(0x40)\n      dup1\n      swap2\n      sub\n      swap1\n      revert\n    tag_25:\n        /* \"contracts/erc20htlc.sol\":5073:5082  _timelock */\n      dup7\n        /* \"contracts/erc20htlc.sol\":2358:2373  block.timestamp */\n      timestamp\n        /* \"contracts/erc20htlc.sol\":2350:2355  _time */\n      dup2\n        /* \"contracts/erc20htlc.sol\":2350:2373  _time > block.timestamp */\n      gt\n        /* \"contracts/erc20htlc.sol\":2342:2413  require(_time > block.timestamp, \"timelock time must be in the future\") */\n      tag_27\n      jumpi\n      mload(0x40)\n      0x08c379a000000000000000000000000000000000000000000000000000000000\n      dup2\n      mstore\n      0x04\n      add\n      dup1\n      dup1\n      0x20\n      add\n      dup3\n      dup2\n      sub\n      dup3\n      mstore\n      0x23\n      dup2\n      mstore\n      0x20\n      add\n      dup1\n      data_16dbfee8f738f21cc70987859d9176eb37f9ed0572f04024e006404bb83f7086\n      0x23\n      swap2\n      codecopy\n      0x40\n      add\n      swap2\n      pop\n      pop\n      mload(0x40)\n      dup1\n      swap2\n      sub\n      swap1\n      revert\n    tag_27:\n        /* \"contracts/erc20htlc.sol\":5151:5386  sha256(\r... */\n      0x02\n        /* \"contracts/erc20htlc.sol\":5207:5217  msg.sender */\n      caller\n        /* \"contracts/erc20htlc.sol\":5236:5245  _receiver */\n      dup12\n        /* \"contracts/erc20htlc.sol\":5264:5278  _tokenContract */\n      dup10\n        /* \"contracts/erc20htlc.sol\":5297:5304  _amount */\n      dup10\n        /* \"contracts/erc20htlc.sol\":5323:5332  _hashlock */\n      dup14\n        /* \"contracts/erc20htlc.sol\":5351:5360  _timelock */\n      dup14\n        /* \"contracts/erc20htlc.sol\":5172:5375  abi.encodePacked(\r... */\n      add(0x20, mload(0x40))\n      dup1\n      dup8\n      0xffffffffffffffffffffffffffffffffffffffff\n      and\n      0x60\n      shl\n      dup2\n      mstore\n      0x14\n      add\n      dup7\n      0xffffffffffffffffffffffffffffffffffffffff\n      and\n      0x60\n      shl\n      dup2\n      mstore\n      0x14\n      add\n      dup6\n      0xffffffffffffffffffffffffffffffffffffffff\n      and\n      0x60\n      shl\n      dup2\n      mstore\n      0x14\n      add\n      dup5\n      dup2\n      mstore\n      0x20\n      add\n      dup4\n      dup2\n      mstore\n      0x20\n      add\n      dup3\n      dup2\n      mstore\n      0x20\n      add\n      swap7\n      pop\n      pop\n      pop\n      pop\n      pop\n      pop\n      pop\n      mload(0x40)\n      0x20\n      dup2\n      dup4\n      sub\n      sub\n      dup2\n      mstore\n      swap1\n      0x40\n      mstore\n        /* \"contracts/erc20htlc.sol\":5151:5386  sha256(\r... */\n      mload(0x40)\n      dup1\n      dup3\n      dup1\n      mload\n      swap1\n      0x20\n      add\n      swap1\n      dup1\n      dup4\n      dup4\n    tag_29:\n      0x20\n      dup4\n      lt\n      tag_31\n      jumpi\n      dup1\n      mload\n      dup3\n      mstore\n      0x20\n      dup3\n      add\n      swap2\n      pop\n      0x20\n      dup2\n      add\n      swap1\n      pop\n      0x20\n      dup4\n      sub\n      swap3\n      pop\n      jump(tag_29)\n    tag_31:\n      0x01\n      dup4\n      0x20\n      sub\n      0x0100\n      exp\n      sub\n      dup1\n      not\n      dup3\n      mload\n      and\n      dup2\n      dup5\n      mload\n      and\n      dup1\n      dup3\n      or\n      dup6\n      mstore\n      pop\n      pop\n      pop\n      pop\n      pop\n      pop\n      swap1\n      pop\n      add\n      swap2\n      pop\n      pop\n      0x20\n      mload(0x40)\n      dup1\n      dup4\n      sub\n      dup2\n      dup6\n      gas\n      staticcall\n      iszero\n      dup1\n      iszero\n      tag_33\n      jumpi\n      returndatasize\n      0x00\n      dup1\n      returndatacopy\n      revert(0x00, returndatasize)\n    tag_33:\n      pop\n      pop\n      pop\n      mload(0x40)\n      returndatasize\n      0x20\n      dup2\n      lt\n      iszero\n      tag_34\n      jumpi\n      0x00\n      dup1\n      revert\n    tag_34:\n      dup2\n      add\n      swap1\n      dup1\n      dup1\n      mload\n      swap1\n      0x20\n      add\n      swap1\n      swap3\n      swap2\n      swap1\n      pop\n      pop\n      pop\n        /* \"contracts/erc20htlc.sol\":5138:5386  contractId = sha256(\r... */\n      swap5\n      pop\n        /* \"contracts/erc20htlc.sol\":5591:5615  haveContract(contractId) */\n      tag_35\n        /* \"contracts/erc20htlc.sol\":5604:5614  contractId */\n      dup6\n        /* \"contracts/erc20htlc.sol\":5591:5603  haveContract */\n      tag_36\n        /* \"contracts/erc20htlc.sol\":5591:5615  haveContract(contractId) */\n      jump\t// in\n    tag_35:\n        /* \"contracts/erc20htlc.sol\":5587:5663  if (haveContract(contractId))\r... */\n      iszero\n      tag_37\n      jumpi\n        /* \"contracts/erc20htlc.sol\":5630:5663  revert(\"Contract already exists\") */\n      mload(0x40)\n      0x08c379a000000000000000000000000000000000000000000000000000000000\n      dup2\n      mstore\n      0x04\n      add\n      dup1\n      dup1\n      0x20\n      add\n      dup3\n      dup2\n      sub\n      dup3\n      mstore\n      0x17\n      dup2\n      mstore\n      0x20\n      add\n      dup1\n      0x436f6e747261637420616c726561647920657869737473000000000000000000\n      dup2\n      mstore\n      pop\n      0x20\n      add\n      swap2\n      pop\n      pop\n      mload(0x40)\n      dup1\n      swap2\n      sub\n      swap1\n      revert\n        /* \"contracts/erc20htlc.sol\":5587:5663  if (haveContract(contractId))\r... */\n    tag_37:\n        /* \"contracts/erc20htlc.sol\":5755:5769  _tokenContract */\n      dup7\n        /* \"contracts/erc20htlc.sol\":5749:5783  ERC20(_tokenContract).transferFrom */\n      0xffffffffffffffffffffffffffffffffffffffff\n      and\n      0x23b872dd\n        /* \"contracts/erc20htlc.sol\":5784:5794  msg.sender */\n      caller\n        /* \"contracts/erc20htlc.sol\":5804:5808  this */\n      address\n        /* \"contracts/erc20htlc.sol\":5811:5818  _amount */\n      dup10\n        /* \"contracts/erc20htlc.sol\":5749:5819  ERC20(_tokenContract).transferFrom(msg.sender, address(this), _amount) */\n      mload(0x40)\n      dup5\n      0xffffffff\n      and\n      0xe0\n      shl\n      dup2\n      mstore\n      0x04\n      add\n      dup1\n      dup5\n      0xffffffffffffffffffffffffffffffffffffffff\n      and\n      dup2\n      mstore\n      0x20\n      add\n      dup4\n      0xffffffffffffffffffffffffffffffffffffffff\n      and\n      dup2\n      mstore\n      0x20\n      add\n      dup3\n      dup2\n      mstore\n      0x20\n      add\n      swap4\n      pop\n      pop\n      pop\n      pop\n      0x20\n      mload(0x40)\n      dup1\n      dup4\n      sub\n      dup2\n      0x00\n      dup8\n      dup1\n      extcodesize\n      iszero\n      dup1\n      iszero\n      tag_38\n      jumpi\n      0x00\n      dup1\n      revert\n    tag_38:\n      pop\n      gas\n      call\n      iszero\n      dup1\n      iszero\n      tag_40\n      jumpi\n      returndatasize\n      0x00\n      dup1\n      returndatacopy\n      revert(0x00, returndatasize)\n    tag_40:\n      pop\n      pop\n      pop\n      pop\n      mload(0x40)\n      returndatasize\n      0x20\n      dup2\n      lt\n      iszero\n      tag_41\n      jumpi\n      0x00\n      dup1\n      revert\n    tag_41:\n      dup2\n      add\n      swap1\n      dup1\n      dup1\n      mload\n      swap1\n      0x20\n      add\n      swap1\n      swap3\n      swap2\n      swap1\n      pop\n      pop\n      pop\n        /* \"contracts/erc20htlc.sol\":5744:5878  if (!ERC20(_tokenContract).transferFrom(msg.sender, address(this), _amount))\r... */\n      tag_42\n      jumpi\n        /* \"contracts/erc20htlc.sol\":5834:5878  revert(\"transferFrom sender to this failed\") */\n      mload(0x40)\n      0x08c379a000000000000000000000000000000000000000000000000000000000\n      dup2\n      mstore\n      0x04\n      add\n      dup1\n      dup1\n      0x20\n      add\n      dup3\n      dup2\n      sub\n      dup3\n      mstore\n      0x22\n      dup2\n      mstore\n      0x20\n      add\n      dup1\n      data_d972a7c972449bdb9cebe63bbe70aabf7c1479cdd3def2eb6af0685384c9067a\n      0x22\n      swap2\n      codecopy\n      0x40\n      add\n      swap2\n      pop\n      pop\n      mload(0x40)\n      dup1\n      swap2\n      sub\n      swap1\n      revert\n        /* \"contracts/erc20htlc.sol\":5744:5878  if (!ERC20(_tokenContract).transferFrom(msg.sender, address(this), _amount))\r... */\n    tag_42:\n        /* \"contracts/erc20htlc.sol\":5915:6144  LockContract(\r... */\n      mload(0x40)\n      dup1\n      0x0120\n      add\n      0x40\n      mstore\n      dup1\n        /* \"contracts/erc20htlc.sol\":5942:5952  msg.sender */\n      caller\n        /* \"contracts/erc20htlc.sol\":5915:6144  LockContract(\r... */\n      0xffffffffffffffffffffffffffffffffffffffff\n      and\n      dup2\n      mstore\n      0x20\n      add\n        /* \"contracts/erc20htlc.sol\":5967:5976  _receiver */\n      dup12\n        /* \"contracts/erc20htlc.sol\":5915:6144  LockContract(\r... */\n      0xffffffffffffffffffffffffffffffffffffffff\n      and\n      dup2\n      mstore\n      0x20\n      add\n        /* \"contracts/erc20htlc.sol\":5991:6005  _tokenContract */\n      dup9\n        /* \"contracts/erc20htlc.sol\":5915:6144  LockContract(\r... */\n      0xffffffffffffffffffffffffffffffffffffffff\n      and\n      dup2\n      mstore\n      0x20\n      add\n        /* \"contracts/erc20htlc.sol\":6020:6027  _amount */\n      dup8\n        /* \"contracts/erc20htlc.sol\":5915:6144  LockContract(\r... */\n      dup2\n      mstore\n      0x20\n      add\n        /* \"contracts/erc20htlc.sol\":6042:6051  _hashlock */\n      dup11\n        /* \"contracts/erc20htlc.sol\":5915:6144  LockContract(\r... */\n      dup2\n      mstore\n      0x20\n      add\n        /* \"contracts/erc20htlc.sol\":6066:6075  _timelock */\n      dup10\n        /* \"contracts/erc20htlc.sol\":5915:6144  LockContract(\r... */\n      dup2\n      mstore\n      0x20\n      add\n        /* \"contracts/erc20htlc.sol\":6090:6095  false */\n      0x00\n        /* \"contracts/erc20htlc.sol\":5915:6144  LockContract(\r... */\n      iszero\n      iszero\n      dup2\n      mstore\n      0x20\n      add\n        /* \"contracts/erc20htlc.sol\":6110:6115  false */\n      0x00\n        /* \"contracts/erc20htlc.sol\":5915:6144  LockContract(\r... */\n      iszero\n      iszero\n      dup2\n      mstore\n      0x20\n      add\n        /* \"contracts/erc20htlc.sol\":6130:6133  0x0 */\n      0x00\n        /* \"contracts/erc20htlc.sol\":5915:6144  LockContract(\r... */\n      dup1\n      shl\n      dup2\n      mstore\n      pop\n        /* \"contracts/erc20htlc.sol\":5891:5900  contracts */\n      0x00\n        /* \"contracts/erc20htlc.sol\":5891:5912  contracts[contractId] */\n      dup1\n        /* \"contracts/erc20htlc.sol\":5901:5911  contractId */\n      dup8\n        /* \"contracts/erc20htlc.sol\":5891:5912  contracts[contractId] */\n      dup2\n      mstore\n      0x20\n      add\n      swap1\n      dup2\n      mstore\n      0x20\n      add\n      0x00\n      keccak256\n        /* \"contracts/erc20htlc.sol\":5891:6144  contracts[contractId] = LockContract(\r... */\n      0x00\n      dup3\n      add\n      mload\n      dup2\n      0x00\n      add\n      exp(0x0100, 0x00)\n      dup2\n      sload\n      dup2\n      0xffffffffffffffffffffffffffffffffffffffff\n      mul\n      not\n      and\n      swap1\n      dup4\n      0xffffffffffffffffffffffffffffffffffffffff\n      and\n      mul\n      or\n      swap1\n      sstore\n      pop\n      0x20\n      dup3\n      add\n      mload\n      dup2\n      0x01\n      add\n      exp(0x0100, 0x00)\n      dup2\n      sload\n      dup2\n      0xffffffffffffffffffffffffffffffffffffffff\n      mul\n      not\n      and\n      swap1\n      dup4\n      0xffffffffffffffffffffffffffffffffffffffff\n      and\n      mul\n      or\n      swap1\n      sstore\n      pop\n      0x40\n      dup3\n      add\n      mload\n      dup2\n      0x02\n      add\n      exp(0x0100, 0x00)\n      dup2\n      sload\n      dup2\n      0xffffffffffffffffffffffffffffffffffffffff\n      mul\n      not\n      and\n      swap1\n      dup4\n      0xffffffffffffffffffffffffffffffffffffffff\n      and\n      mul\n      or\n      swap1\n      sstore\n      pop\n      0x60\n      dup3\n      add\n      mload\n      dup2\n      0x03\n      add\n      sstore\n      0x80\n      dup3\n      add\n      mload\n      dup2\n      0x04\n      add\n      sstore\n      0xa0\n      dup3\n      add\n      mload\n      dup2\n      0x05\n      add\n      sstore\n      0xc0\n      dup3\n      add\n      mload\n      dup2\n      0x06\n      add\n      exp(0x0100, 0x00)\n      dup2\n      sload\n      dup2\n      0xff\n      mul\n      not\n      and\n      swap1\n      dup4\n      iszero\n      iszero\n      mul\n      or\n      swap1\n      sstore\n      pop\n      0xe0\n      dup3\n      add\n      mload\n      dup2\n      0x06\n      add\n      exp(0x0100, 0x01)\n      dup2\n      sload\n      dup2\n      0xff\n      mul\n      not\n      and\n      swap1\n      dup4\n      iszero\n      iszero\n      mul\n      or\n      swap1\n      sstore\n      pop\n      0x0100\n      dup3\n      add\n      mload\n      dup2\n      0x07\n      add\n      sstore\n      swap1\n      pop\n      pop\n        /* \"contracts/erc20htlc.sol\":6239:6248  _receiver */\n      dup10\n        /* \"contracts/erc20htlc.sol\":6162:6358  HTLCERC20New(\r... */\n      0xffffffffffffffffffffffffffffffffffffffff\n      and\n        /* \"contracts/erc20htlc.sol\":6214:6224  msg.sender */\n      caller\n        /* \"contracts/erc20htlc.sol\":6162:6358  HTLCERC20New(\r... */\n      0xffffffffffffffffffffffffffffffffffffffff\n      and\n        /* \"contracts/erc20htlc.sol\":6189:6199  contractId */\n      dup7\n        /* \"contracts/erc20htlc.sol\":6162:6358  HTLCERC20New(\r... */\n      0x31a346f672cf5073bda81a99e0a28aff2bfe8c2db87d462bb2f4c114476a46ee\n        /* \"contracts/erc20htlc.sol\":6263:6277  _tokenContract */\n      dup11\n        /* \"contracts/erc20htlc.sol\":6292:6299  _amount */\n      dup11\n        /* \"contracts/erc20htlc.sol\":6314:6323  _hashlock */\n      dup15\n        /* \"contracts/erc20htlc.sol\":6338:6347  _timelock */\n      dup15\n        /* \"contracts/erc20htlc.sol\":6162:6358  HTLCERC20New(\r... */\n      mload(0x40)\n      dup1\n      dup6\n      0xffffffffffffffffffffffffffffffffffffffff\n      and\n      dup2\n      mstore\n      0x20\n      add\n      dup5\n      dup2\n      mstore\n      0x20\n      add\n      dup4\n      dup2\n      mstore\n      0x20\n      add\n      dup3\n      dup2\n      mstore\n      0x20\n      add\n      swap5\n      pop\n      pop\n      pop\n      pop\n      pop\n      mload(0x40)\n      dup1\n      swap2\n      sub\n      swap1\n      log4\n        /* \"contracts/erc20htlc.sol\":2064:2065  _ */\n      pop\n        /* \"contracts/erc20htlc.sol\":4795:6366  function newContract(\r... */\n      pop\n      pop\n      pop\n      swap6\n      swap5\n      pop\n      pop\n      pop\n      pop\n      pop\n      jump\t// out\n        /* \"contracts/erc20htlc.sol\":6710:7196  function withdraw(bytes32 _contractId, bytes32 _preimage)\r... */\n    tag_12:\n        /* \"contracts/erc20htlc.sol\":6925:6929  bool */\n      0x00\n        /* \"contracts/erc20htlc.sol\":6810:6821  _contractId */\n      dup3\n        /* \"contracts/erc20htlc.sol\":2503:2528  haveContract(_contractId) */\n      tag_44\n        /* \"contracts/erc20htlc.sol\":2516:2527  _contractId */\n      dup2\n        /* \"contracts/erc20htlc.sol\":2503:2515  haveContract */\n      tag_36\n        /* \"contracts/erc20htlc.sol\":2503:2528  haveContract(_contractId) */\n      jump\t// in\n    tag_44:\n        /* \"contracts/erc20htlc.sol\":2495:2558  require(haveContract(_contractId), \"contractId does not exist\") */\n      tag_45\n      jumpi\n      mload(0x40)\n      0x08c379a000000000000000000000000000000000000000000000000000000000\n      dup2\n      mstore\n      0x04\n      add\n      dup1\n      dup1\n      0x20\n      add\n      dup3\n      dup2\n      sub\n      dup3\n      mstore\n      0x19\n      dup2\n      mstore\n      0x20\n      add\n      dup1\n      0x636f6e7472616374496420646f6573206e6f7420657869737400000000000000\n      dup2\n      mstore\n      pop\n      0x20\n      add\n      swap2\n      pop\n      pop\n      mload(0x40)\n      dup1\n      swap2\n      sub\n      swap1\n      revert\n    tag_45:\n        /* \"contracts/erc20htlc.sol\":6848:6859  _contractId */\n      dup4\n        /* \"contracts/erc20htlc.sol\":6861:6870  _preimage */\n      dup4\n        /* \"contracts/erc20htlc.sol\":2710:2738  sha256(abi.encodePacked(_x)) */\n      0x02\n        /* \"contracts/erc20htlc.sol\":2734:2736  _x */\n      dup2\n        /* \"contracts/erc20htlc.sol\":2717:2737  abi.encodePacked(_x) */\n      add(0x20, mload(0x40))\n      dup1\n      dup3\n      dup2\n      mstore\n      0x20\n      add\n      swap2\n      pop\n      pop\n      mload(0x40)\n      0x20\n      dup2\n      dup4\n      sub\n      sub\n      dup2\n      mstore\n      swap1\n      0x40\n      mstore\n        /* \"contracts/erc20htlc.sol\":2710:2738  sha256(abi.encodePacked(_x)) */\n      mload(0x40)\n      dup1\n      dup3\n      dup1\n      mload\n      swap1\n      0x20\n      add\n      swap1\n      dup1\n      dup4\n      dup4\n    tag_47:\n      0x20\n      dup4\n      lt\n      tag_49\n      jumpi\n      dup1\n      mload\n      dup3\n      mstore\n      0x20\n      dup3\n      add\n      swap2\n      pop\n      0x20\n      dup2\n      add\n      swap1\n      pop\n      0x20\n      dup4\n      sub\n      swap3\n      pop\n      jump(tag_47)\n    tag_49:\n      0x01\n      dup4\n      0x20\n      sub\n      0x0100\n      exp\n      sub\n      dup1\n      not\n      dup3\n      mload\n      and\n      dup2\n      dup5\n      mload\n      and\n      dup1\n      dup3\n      or\n      dup6\n      mstore\n      pop\n      pop\n      pop\n      pop\n      pop\n      pop\n      swap1\n      pop\n      add\n      swap2\n      pop\n      pop\n      0x20\n      mload(0x40)\n      dup1\n      dup4\n      sub\n      dup2\n      dup6\n      gas\n      staticcall\n      iszero\n      dup1\n      iszero\n      tag_51\n      jumpi\n      returndatasize\n      0x00\n      dup1\n      returndatacopy\n      revert(0x00, returndatasize)\n    tag_51:\n      pop\n      pop\n      pop\n      mload(0x40)\n      returndatasize\n      0x20\n      dup2\n      lt\n      iszero\n      tag_52\n      jumpi\n      0x00\n      dup1\n      revert\n    tag_52:\n      dup2\n      add\n      swap1\n      dup1\n      dup1\n      mload\n      swap1\n      0x20\n      add\n      swap1\n      swap3\n      swap2\n      swap1\n      pop\n      pop\n      pop\n        /* \"contracts/erc20htlc.sol\":2675:2684  contracts */\n      0x00\n        /* \"contracts/erc20htlc.sol\":2675:2697  contracts[_contractId] */\n      dup1\n        /* \"contracts/erc20htlc.sol\":2685:2696  _contractId */\n      dup5\n        /* \"contracts/erc20htlc.sol\":2675:2697  contracts[_contractId] */\n      dup2\n      mstore\n      0x20\n      add\n      swap1\n      dup2\n      mstore\n      0x20\n      add\n      0x00\n      keccak256\n        /* \"contracts/erc20htlc.sol\":2675:2706  contracts[_contractId].hashlock */\n      0x04\n      add\n      sload\n        /* \"contracts/erc20htlc.sol\":2675:2738  contracts[_contractId].hashlock == sha256(abi.encodePacked(_x)) */\n      eq\n        /* \"contracts/erc20htlc.sol\":2653:2794  require(\r... */\n      tag_53\n      jumpi\n      mload(0x40)\n      0x08c379a000000000000000000000000000000000000000000000000000000000\n      dup2\n      mstore\n      0x04\n      add\n      dup1\n      dup1\n      0x20\n      add\n      dup3\n      dup2\n      sub\n      dup3\n      mstore\n      0x1c\n      dup2\n      mstore\n      0x20\n      add\n      dup1\n      0x686173686c6f636b206861736820646f6573206e6f74206d6174636800000000\n      dup2\n      mstore\n      pop\n      0x20\n      add\n      swap2\n      pop\n      pop\n      mload(0x40)\n      dup1\n      swap2\n      sub\n      swap1\n      revert\n    tag_53:\n        /* \"contracts/erc20htlc.sol\":6894:6905  _contractId */\n      dup6\n        /* \"contracts/erc20htlc.sol\":2917:2927  msg.sender */\n      caller\n        /* \"contracts/erc20htlc.sol\":2882:2927  contracts[_contractId].receiver == msg.sender */\n      0xffffffffffffffffffffffffffffffffffffffff\n      and\n        /* \"contracts/erc20htlc.sol\":2882:2891  contracts */\n      0x00\n        /* \"contracts/erc20htlc.sol\":2882:2904  contracts[_contractId] */\n      dup1\n        /* \"contracts/erc20htlc.sol\":2892:2903  _contractId */\n      dup4\n        /* \"contracts/erc20htlc.sol\":2882:2904  contracts[_contractId] */\n      dup2\n      mstore\n      0x20\n      add\n      swap1\n      dup2\n      mstore\n      0x20\n      add\n      0x00\n      keccak256\n        /* \"contracts/erc20htlc.sol\":2882:2913  contracts[_contractId].receiver */\n      0x01\n      add\n      0x00\n      swap1\n      sload\n      swap1\n      0x0100\n      exp\n      swap1\n      div\n      0xffffffffffffffffffffffffffffffffffffffff\n      and\n        /* \"contracts/erc20htlc.sol\":2882:2927  contracts[_contractId].receiver == msg.sender */\n      0xffffffffffffffffffffffffffffffffffffffff\n      and\n      eq\n        /* \"contracts/erc20htlc.sol\":2874:2958  require(contracts[_contractId].receiver == msg.sender, \"withdrawable: not receiver\") */\n      tag_55\n      jumpi\n      mload(0x40)\n      0x08c379a000000000000000000000000000000000000000000000000000000000\n      dup2\n      mstore\n      0x04\n      add\n      dup1\n      dup1\n      0x20\n      add\n      dup3\n      dup2\n      sub\n      dup3\n      mstore\n      0x1a\n      dup2\n      mstore\n      0x20\n      add\n      dup1\n      0x776974686472617761626c653a206e6f74207265636569766572000000000000\n      dup2\n      mstore\n      pop\n      0x20\n      add\n      swap2\n      pop\n      pop\n      mload(0x40)\n      dup1\n      swap2\n      sub\n      swap1\n      revert\n    tag_55:\n        /* \"contracts/erc20htlc.sol\":3013:3018  false */\n      0x00\n        /* \"contracts/erc20htlc.sol\":2977:3018  contracts[_contractId].withdrawn == false */\n      iszero\n      iszero\n        /* \"contracts/erc20htlc.sol\":2977:2986  contracts */\n      0x00\n        /* \"contracts/erc20htlc.sol\":2977:2999  contracts[_contractId] */\n      dup1\n        /* \"contracts/erc20htlc.sol\":2987:2998  _contractId */\n      dup4\n        /* \"contracts/erc20htlc.sol\":2977:2999  contracts[_contractId] */\n      dup2\n      mstore\n      0x20\n      add\n      swap1\n      dup2\n      mstore\n      0x20\n      add\n      0x00\n      keccak256\n        /* \"contracts/erc20htlc.sol\":2977:3009  contracts[_contractId].withdrawn */\n      0x06\n      add\n      0x00\n      swap1\n      sload\n      swap1\n      0x0100\n      exp\n      swap1\n      div\n      0xff\n      and\n        /* \"contracts/erc20htlc.sol\":2977:3018  contracts[_contractId].withdrawn == false */\n      iszero\n      iszero\n      eq\n        /* \"contracts/erc20htlc.sol\":2969:3054  require(contracts[_contractId].withdrawn == false, \"withdrawable: already withdrawn\") */\n      tag_56\n      jumpi\n      mload(0x40)\n      0x08c379a000000000000000000000000000000000000000000000000000000000\n      dup2\n      mstore\n      0x04\n      add\n      dup1\n      dup1\n      0x20\n      add\n      dup3\n      dup2\n      sub\n      dup3\n      mstore\n      0x1f\n      dup2\n      mstore\n      0x20\n      add\n      dup1\n      0x776974686472617761626c653a20616c72656164792077697468647261776e00\n      dup2\n      mstore\n      pop\n      0x20\n      add\n      swap2\n      pop\n      pop\n      mload(0x40)\n      dup1\n      swap2\n      sub\n      swap1\n      revert\n    tag_56:\n        /* \"contracts/erc20htlc.sol\":3244:3249  false */\n      0x00\n        /* \"contracts/erc20htlc.sol\":3209:3249  contracts[_contractId].refunded == false */\n      iszero\n      iszero\n        /* \"contracts/erc20htlc.sol\":3209:3218  contracts */\n      0x00\n        /* \"contracts/erc20htlc.sol\":3209:3231  contracts[_contractId] */\n      dup1\n        /* \"contracts/erc20htlc.sol\":3219:3230  _contractId */\n      dup4\n        /* \"contracts/erc20htlc.sol\":3209:3231  contracts[_contractId] */\n      dup2\n      mstore\n      0x20\n      add\n      swap1\n      dup2\n      mstore\n      0x20\n      add\n      0x00\n      keccak256\n        /* \"contracts/erc20htlc.sol\":3209:3240  contracts[_contractId].refunded */\n      0x06\n      add\n      0x01\n      swap1\n      sload\n      swap1\n      0x0100\n      exp\n      swap1\n      div\n      0xff\n      and\n        /* \"contracts/erc20htlc.sol\":3209:3249  contracts[_contractId].refunded == false */\n      iszero\n      iszero\n      eq\n        /* \"contracts/erc20htlc.sol\":3201:3284  require(contracts[_contractId].refunded == false, \"withdrawable: already refunded\") */\n      tag_57\n      jumpi\n      mload(0x40)\n      0x08c379a000000000000000000000000000000000000000000000000000000000\n      dup2\n      mstore\n      0x04\n      add\n      dup1\n      dup1\n      0x20\n      add\n      dup3\n      dup2\n      sub\n      dup3\n      mstore\n      0x1e\n      dup2\n      mstore\n      0x20\n      add\n      dup1\n      0x776974686472617761626c653a20616c726561647920726566756e6465640000\n      dup2\n      mstore\n      pop\n      0x20\n      add\n      swap2\n      pop\n      pop\n      mload(0x40)\n      dup1\n      swap2\n      sub\n      swap1\n      revert\n    tag_57:\n        /* \"contracts/erc20htlc.sol\":6947:6969  LockContract storage c */\n      0x00\n        /* \"contracts/erc20htlc.sol\":6972:6981  contracts */\n      dup1\n        /* \"contracts/erc20htlc.sol\":6972:6994  contracts[_contractId] */\n      0x00\n        /* \"contracts/erc20htlc.sol\":6982:6993  _contractId */\n      dup10\n        /* \"contracts/erc20htlc.sol\":6972:6994  contracts[_contractId] */\n      dup2\n      mstore\n      0x20\n      add\n      swap1\n      dup2\n      mstore\n      0x20\n      add\n      0x00\n      keccak256\n        /* \"contracts/erc20htlc.sol\":6947:6994  LockContract storage c = contracts[_contractId] */\n      swap1\n      pop\n        /* \"contracts/erc20htlc.sol\":7018:7027  _preimage */\n      dup7\n        /* \"contracts/erc20htlc.sol\":7005:7006  c */\n      dup2\n        /* \"contracts/erc20htlc.sol\":7005:7015  c.preimage */\n      0x07\n      add\n        /* \"contracts/erc20htlc.sol\":7005:7027  c.preimage = _preimage */\n      dup2\n      swap1\n      sstore\n      pop\n        /* \"contracts/erc20htlc.sol\":7052:7056  true */\n      0x01\n        /* \"contracts/erc20htlc.sol\":7038:7039  c */\n      dup2\n        /* \"contracts/erc20htlc.sol\":7038:7049  c.withdrawn */\n      0x06\n      add\n      0x00\n        /* \"contracts/erc20htlc.sol\":7038:7056  c.withdrawn = true */\n      0x0100\n      exp\n      dup2\n      sload\n      dup2\n      0xff\n      mul\n      not\n      and\n      swap1\n      dup4\n      iszero\n      iszero\n      mul\n      or\n      swap1\n      sstore\n      pop\n        /* \"contracts/erc20htlc.sol\":7073:7074  c */\n      dup1\n        /* \"contracts/erc20htlc.sol\":7073:7088  c.tokenContract */\n      0x02\n      add\n      0x00\n      swap1\n      sload\n      swap1\n      0x0100\n      exp\n      swap1\n      div\n      0xffffffffffffffffffffffffffffffffffffffff\n      and\n        /* \"contracts/erc20htlc.sol\":7067:7098  ERC20(c.tokenContract).transfer */\n      0xffffffffffffffffffffffffffffffffffffffff\n      and\n      0xa9059cbb\n        /* \"contracts/erc20htlc.sol\":7099:7100  c */\n      dup3\n        /* \"contracts/erc20htlc.sol\":7099:7109  c.receiver */\n      0x01\n      add\n      0x00\n      swap1\n      sload\n      swap1\n      0x0100\n      exp\n      swap1\n      div\n      0xffffffffffffffffffffffffffffffffffffffff\n      and\n        /* \"contracts/erc20htlc.sol\":7111:7112  c */\n      dup4\n        /* \"contracts/erc20htlc.sol\":7111:7119  c.amount */\n      0x03\n      add\n      sload\n        /* \"contracts/erc20htlc.sol\":7067:7120  ERC20(c.tokenContract).transfer(c.receiver, c.amount) */\n      mload(0x40)\n      dup4\n      0xffffffff\n      and\n      0xe0\n      shl\n      dup2\n      mstore\n      0x04\n      add\n      dup1\n      dup4\n      0xffffffffffffffffffffffffffffffffffffffff\n      and\n      dup2\n      mstore\n      0x20\n      add\n      dup3\n      dup2\n      mstore\n      0x20\n      add\n      swap3\n      pop\n      pop\n      pop\n      0x20\n      mload(0x40)\n      dup1\n      dup4\n      sub\n      dup2\n      0x00\n      dup8\n      dup1\n      extcodesize\n      iszero\n      dup1\n      iszero\n      tag_59\n      jumpi\n      0x00\n      dup1\n      revert\n    tag_59:\n      pop\n      gas\n      call\n      iszero\n      dup1\n      iszero\n      tag_61\n      jumpi\n      returndatasize\n      0x00\n      dup1\n      returndatacopy\n      revert(0x00, returndatasize)\n    tag_61:\n      pop\n      pop\n      pop\n      pop\n      mload(0x40)\n      returndatasize\n      0x20\n      dup2\n      lt\n      iszero\n      tag_62\n      jumpi\n      0x00\n      dup1\n      revert\n    tag_62:\n      dup2\n      add\n      swap1\n      dup1\n      dup1\n      mload\n      swap1\n      0x20\n      add\n      swap1\n      swap3\n      swap2\n      swap1\n      pop\n      pop\n      pop\n      pop\n        /* \"contracts/erc20htlc.sol\":7154:7165  _contractId */\n      dup8\n        /* \"contracts/erc20htlc.sol\":7136:7166  HTLCERC20Withdraw(_contractId) */\n      0x15a71365fee30a355046c80d10aab98a49c3558b2272658d6c551733203e9bbe\n      mload(0x40)\n      mload(0x40)\n      dup1\n      swap2\n      sub\n      swap1\n      log2\n        /* \"contracts/erc20htlc.sol\":7184:7188  true */\n      0x01\n        /* \"contracts/erc20htlc.sol\":7177:7188  return true */\n      swap6\n      pop\n      pop\n        /* \"contracts/erc20htlc.sol\":2805:2806  _ */\n      pop\n        /* \"contracts/erc20htlc.sol\":2569:2570  _ */\n      pop\n      pop\n        /* \"contracts/erc20htlc.sol\":6710:7196  function withdraw(bytes32 _contractId, bytes32 _preimage)\r... */\n      pop\n      swap3\n      swap2\n      pop\n      pop\n      jump\t// out\n        /* \"contracts/erc20htlc.sol\":7476:7852  function refund(bytes32 _contractId)\r... */\n    tag_15:\n        /* \"contracts/erc20htlc.sol\":7619:7623  bool */\n      0x00\n        /* \"contracts/erc20htlc.sol\":7555:7566  _contractId */\n      dup2\n        /* \"contracts/erc20htlc.sol\":2503:2528  haveContract(_contractId) */\n      tag_64\n        /* \"contracts/erc20htlc.sol\":2516:2527  _contractId */\n      dup2\n        /* \"contracts/erc20htlc.sol\":2503:2515  haveContract */\n      tag_36\n        /* \"contracts/erc20htlc.sol\":2503:2528  haveContract(_contractId) */\n      jump\t// in\n    tag_64:\n        /* \"contracts/erc20htlc.sol\":2495:2558  require(haveContract(_contractId), \"contractId does not exist\") */\n      tag_65\n      jumpi\n      mload(0x40)\n      0x08c379a000000000000000000000000000000000000000000000000000000000\n      dup2\n      mstore\n      0x04\n      add\n      dup1\n      dup1\n      0x20\n      add\n      dup3\n      dup2\n      sub\n      dup3\n      mstore\n      0x19\n      dup2\n      mstore\n      0x20\n      add\n      dup1\n      0x636f6e7472616374496420646f6573206e6f7420657869737400000000000000\n      dup2\n      mstore\n      pop\n      0x20\n      add\n      swap2\n      pop\n      pop\n      mload(0x40)\n      dup1\n      swap2\n      sub\n      swap1\n      revert\n    tag_65:\n        /* \"contracts/erc20htlc.sol\":7588:7599  _contractId */\n      dup3\n        /* \"contracts/erc20htlc.sol\":3616:3626  msg.sender */\n      caller\n        /* \"contracts/erc20htlc.sol\":3583:3626  contracts[_contractId].sender == msg.sender */\n      0xffffffffffffffffffffffffffffffffffffffff\n      and\n        /* \"contracts/erc20htlc.sol\":3583:3592  contracts */\n      0x00\n        /* \"contracts/erc20htlc.sol\":3583:3605  contracts[_contractId] */\n      dup1\n        /* \"contracts/erc20htlc.sol\":3593:3604  _contractId */\n      dup4\n        /* \"contracts/erc20htlc.sol\":3583:3605  contracts[_contractId] */\n      dup2\n      mstore\n      0x20\n      add\n      swap1\n      dup2\n      mstore\n      0x20\n      add\n      0x00\n      keccak256\n        /* \"contracts/erc20htlc.sol\":3583:3612  contracts[_contractId].sender */\n      0x00\n      add\n      0x00\n      swap1\n      sload\n      swap1\n      0x0100\n      exp\n      swap1\n      div\n      0xffffffffffffffffffffffffffffffffffffffff\n      and\n        /* \"contracts/erc20htlc.sol\":3583:3626  contracts[_contractId].sender == msg.sender */\n      0xffffffffffffffffffffffffffffffffffffffff\n      and\n      eq\n        /* \"contracts/erc20htlc.sol\":3575:3653  require(contracts[_contractId].sender == msg.sender, \"refundable: not sender\") */\n      tag_67\n      jumpi\n      mload(0x40)\n      0x08c379a000000000000000000000000000000000000000000000000000000000\n      dup2\n      mstore\n      0x04\n      add\n      dup1\n      dup1\n      0x20\n      add\n      dup3\n      dup2\n      sub\n      dup3\n      mstore\n      0x16\n      dup2\n      mstore\n      0x20\n      add\n      dup1\n      0x726566756e6461626c653a206e6f742073656e64657200000000000000000000\n      dup2\n      mstore\n      pop\n      0x20\n      add\n      swap2\n      pop\n      pop\n      mload(0x40)\n      dup1\n      swap2\n      sub\n      swap1\n      revert\n    tag_67:\n        /* \"contracts/erc20htlc.sol\":3707:3712  false */\n      0x00\n        /* \"contracts/erc20htlc.sol\":3672:3712  contracts[_contractId].refunded == false */\n      iszero\n      iszero\n        /* \"contracts/erc20htlc.sol\":3672:3681  contracts */\n      0x00\n        /* \"contracts/erc20htlc.sol\":3672:3694  contracts[_contractId] */\n      dup1\n        /* \"contracts/erc20htlc.sol\":3682:3693  _contractId */\n      dup4\n        /* \"contracts/erc20htlc.sol\":3672:3694  contracts[_contractId] */\n      dup2\n      mstore\n      0x20\n      add\n      swap1\n      dup2\n      mstore\n      0x20\n      add\n      0x00\n      keccak256\n        /* \"contracts/erc20htlc.sol\":3672:3703  contracts[_contractId].refunded */\n      0x06\n      add\n      0x01\n      swap1\n      sload\n      swap1\n      0x0100\n      exp\n      swap1\n      div\n      0xff\n      and\n        /* \"contracts/erc20htlc.sol\":3672:3712  contracts[_contractId].refunded == false */\n      iszero\n      iszero\n      eq\n        /* \"contracts/erc20htlc.sol\":3664:3745  require(contracts[_contractId].refunded == false, \"refundable: already refunded\") */\n      tag_68\n      jumpi\n      mload(0x40)\n      0x08c379a000000000000000000000000000000000000000000000000000000000\n      dup2\n      mstore\n      0x04\n      add\n      dup1\n      dup1\n      0x20\n      add\n      dup3\n      dup2\n      sub\n      dup3\n      mstore\n      0x1c\n      dup2\n      mstore\n      0x20\n      add\n      dup1\n      0x726566756e6461626c653a20616c726561647920726566756e64656400000000\n      dup2\n      mstore\n      pop\n      0x20\n      add\n      swap2\n      pop\n      pop\n      mload(0x40)\n      dup1\n      swap2\n      sub\n      swap1\n      revert\n    tag_68:\n        /* \"contracts/erc20htlc.sol\":3800:3805  false */\n      0x00\n        /* \"contracts/erc20htlc.sol\":3764:3805  contracts[_contractId].withdrawn == false */\n      iszero\n      iszero\n        /* \"contracts/erc20htlc.sol\":3764:3773  contracts */\n      0x00\n        /* \"contracts/erc20htlc.sol\":3764:3786  contracts[_contractId] */\n      dup1\n        /* \"contracts/erc20htlc.sol\":3774:3785  _contractId */\n      dup4\n        /* \"contracts/erc20htlc.sol\":3764:3786  contracts[_contractId] */\n      dup2\n      mstore\n      0x20\n      add\n      swap1\n      dup2\n      mstore\n      0x20\n      add\n      0x00\n      keccak256\n        /* \"contracts/erc20htlc.sol\":3764:3796  contracts[_contractId].withdrawn */\n      0x06\n      add\n      0x00\n      swap1\n      sload\n      swap1\n      0x0100\n      exp\n      swap1\n      div\n      0xff\n      and\n        /* \"contracts/erc20htlc.sol\":3764:3805  contracts[_contractId].withdrawn == false */\n      iszero\n      iszero\n      eq\n        /* \"contracts/erc20htlc.sol\":3756:3839  require(contracts[_contractId].withdrawn == false, \"refundable: already withdrawn\") */\n      tag_69\n      jumpi\n      mload(0x40)\n      0x08c379a000000000000000000000000000000000000000000000000000000000\n      dup2\n      mstore\n      0x04\n      add\n      dup1\n      dup1\n      0x20\n      add\n      dup3\n      dup2\n      sub\n      dup3\n      mstore\n      0x1d\n      dup2\n      mstore\n      0x20\n      add\n      dup1\n      0x726566756e6461626c653a20616c72656164792077697468647261776e000000\n      dup2\n      mstore\n      pop\n      0x20\n      add\n      swap2\n      pop\n      pop\n      mload(0x40)\n      dup1\n      swap2\n      sub\n      swap1\n      revert\n    tag_69:\n        /* \"contracts/erc20htlc.sol\":3893:3908  block.timestamp */\n      timestamp\n        /* \"contracts/erc20htlc.sol\":3858:3867  contracts */\n      0x00\n        /* \"contracts/erc20htlc.sol\":3858:3880  contracts[_contractId] */\n      dup1\n        /* \"contracts/erc20htlc.sol\":3868:3879  _contractId */\n      dup4\n        /* \"contracts/erc20htlc.sol\":3858:3880  contracts[_contractId] */\n      dup2\n      mstore\n      0x20\n      add\n      swap1\n      dup2\n      mstore\n      0x20\n      add\n      0x00\n      keccak256\n        /* \"contracts/erc20htlc.sol\":3858:3889  contracts[_contractId].timelock */\n      0x05\n      add\n      sload\n        /* \"contracts/erc20htlc.sol\":3858:3908  contracts[_contractId].timelock <= block.timestamp */\n      gt\n      iszero\n        /* \"contracts/erc20htlc.sol\":3850:3948  require(contracts[_contractId].timelock <= block.timestamp, \"refundable: timelock not yet passed\") */\n      tag_70\n      jumpi\n      mload(0x40)\n      0x08c379a000000000000000000000000000000000000000000000000000000000\n      dup2\n      mstore\n      0x04\n      add\n      dup1\n      dup1\n      0x20\n      add\n      dup3\n      dup2\n      sub\n      dup3\n      mstore\n      0x23\n      dup2\n      mstore\n      0x20\n      add\n      dup1\n      data_53ffb24e93d3b349bff6339724d28c73880587cacedffccbcdea5da101fc50b9\n      0x23\n      swap2\n      codecopy\n      0x40\n      add\n      swap2\n      pop\n      pop\n      mload(0x40)\n      dup1\n      swap2\n      sub\n      swap1\n      revert\n    tag_70:\n        /* \"contracts/erc20htlc.sol\":7641:7663  LockContract storage c */\n      0x00\n        /* \"contracts/erc20htlc.sol\":7666:7675  contracts */\n      dup1\n        /* \"contracts/erc20htlc.sol\":7666:7688  contracts[_contractId] */\n      0x00\n        /* \"contracts/erc20htlc.sol\":7676:7687  _contractId */\n      dup7\n        /* \"contracts/erc20htlc.sol\":7666:7688  contracts[_contractId] */\n      dup2\n      mstore\n      0x20\n      add\n      swap1\n      dup2\n      mstore\n      0x20\n      add\n      0x00\n      keccak256\n        /* \"contracts/erc20htlc.sol\":7641:7688  LockContract storage c = contracts[_contractId] */\n      swap1\n      pop\n        /* \"contracts/erc20htlc.sol\":7712:7716  true */\n      0x01\n        /* \"contracts/erc20htlc.sol\":7699:7700  c */\n      dup2\n        /* \"contracts/erc20htlc.sol\":7699:7709  c.refunded */\n      0x06\n      add\n      0x01\n        /* \"contracts/erc20htlc.sol\":7699:7716  c.refunded = true */\n      0x0100\n      exp\n      dup2\n      sload\n      dup2\n      0xff\n      mul\n      not\n      and\n      swap1\n      dup4\n      iszero\n      iszero\n      mul\n      or\n      swap1\n      sstore\n      pop\n        /* \"contracts/erc20htlc.sol\":7733:7734  c */\n      dup1\n        /* \"contracts/erc20htlc.sol\":7733:7748  c.tokenContract */\n      0x02\n      add\n      0x00\n      swap1\n      sload\n      swap1\n      0x0100\n      exp\n      swap1\n      div\n      0xffffffffffffffffffffffffffffffffffffffff\n      and\n        /* \"contracts/erc20htlc.sol\":7727:7758  ERC20(c.tokenContract).transfer */\n      0xffffffffffffffffffffffffffffffffffffffff\n      and\n      0xa9059cbb\n        /* \"contracts/erc20htlc.sol\":7759:7760  c */\n      dup3\n        /* \"contracts/erc20htlc.sol\":7759:7767  c.sender */\n      0x00\n      add\n      0x00\n      swap1\n      sload\n      swap1\n      0x0100\n      exp\n      swap1\n      div\n      0xffffffffffffffffffffffffffffffffffffffff\n      and\n        /* \"contracts/erc20htlc.sol\":7769:7770  c */\n      dup4\n        /* \"contracts/erc20htlc.sol\":7769:7777  c.amount */\n      0x03\n      add\n      sload\n        /* \"contracts/erc20htlc.sol\":7727:7778  ERC20(c.tokenContract).transfer(c.sender, c.amount) */\n      mload(0x40)\n      dup4\n      0xffffffff\n      and\n      0xe0\n      shl\n      dup2\n      mstore\n      0x04\n      add\n      dup1\n      dup4\n      0xffffffffffffffffffffffffffffffffffffffff\n      and\n      dup2\n      mstore\n      0x20\n      add\n      dup3\n      dup2\n      mstore\n      0x20\n      add\n      swap3\n      pop\n      pop\n      pop\n      0x20\n      mload(0x40)\n      dup1\n      dup4\n      sub\n      dup2\n      0x00\n      dup8\n      dup1\n      extcodesize\n      iszero\n      dup1\n      iszero\n      tag_72\n      jumpi\n      0x00\n      dup1\n      revert\n    tag_72:\n      pop\n      gas\n      call\n      iszero\n      dup1\n      iszero\n      tag_74\n      jumpi\n      returndatasize\n      0x00\n      dup1\n      returndatacopy\n      revert(0x00, returndatasize)\n    tag_74:\n      pop\n      pop\n      pop\n      pop\n      mload(0x40)\n      returndatasize\n      0x20\n      dup2\n      lt\n      iszero\n      tag_75\n      jumpi\n      0x00\n      dup1\n      revert\n    tag_75:\n      dup2\n      add\n      swap1\n      dup1\n      dup1\n      mload\n      swap1\n      0x20\n      add\n      swap1\n      swap3\n      swap2\n      swap1\n      pop\n      pop\n      pop\n      pop\n        /* \"contracts/erc20htlc.sol\":7810:7821  _contractId */\n      dup5\n        /* \"contracts/erc20htlc.sol\":7794:7822  HTLCERC20Refund(_contractId) */\n      0xf97bb6718c3bf29e51d27c00a46276abc2cf35c7f1d5a1c71bec2c82421bb830\n      mload(0x40)\n      mload(0x40)\n      dup1\n      swap2\n      sub\n      swap1\n      log2\n        /* \"contracts/erc20htlc.sol\":7840:7844  true */\n      0x01\n        /* \"contracts/erc20htlc.sol\":7833:7844  return true */\n      swap4\n      pop\n      pop\n        /* \"contracts/erc20htlc.sol\":2569:2570  _ */\n      pop\n        /* \"contracts/erc20htlc.sol\":7476:7852  function refund(bytes32 _contractId)\r... */\n      pop\n      swap2\n      swap1\n      pop\n      jump\t// out\n        /* \"contracts/erc20htlc.sol\":7863:8699  function getContract(bytes32 _contractId)\r... */\n    tag_18:\n        /* \"contracts/erc20htlc.sol\":7967:7981  address sender */\n      0x00\n        /* \"contracts/erc20htlc.sol\":7996:8012  address receiver */\n      dup1\n        /* \"contracts/erc20htlc.sol\":8027:8048  address tokenContract */\n      0x00\n        /* \"contracts/erc20htlc.sol\":8063:8077  uint256 amount */\n      dup1\n        /* \"contracts/erc20htlc.sol\":8092:8108  bytes32 hashlock */\n      0x00\n        /* \"contracts/erc20htlc.sol\":8123:8139  uint256 timelock */\n      dup1\n        /* \"contracts/erc20htlc.sol\":8154:8168  bool withdrawn */\n      0x00\n        /* \"contracts/erc20htlc.sol\":8183:8196  bool refunded */\n      dup1\n        /* \"contracts/erc20htlc.sol\":8211:8227  bytes32 preimage */\n      0x00\n        /* \"contracts/erc20htlc.sol\":8288:8293  false */\n      dup1\n        /* \"contracts/erc20htlc.sol\":8259:8293  haveContract(_contractId) == false */\n      iszero\n      iszero\n        /* \"contracts/erc20htlc.sol\":8259:8284  haveContract(_contractId) */\n      tag_77\n        /* \"contracts/erc20htlc.sol\":8272:8283  _contractId */\n      dup12\n        /* \"contracts/erc20htlc.sol\":8259:8271  haveContract */\n      tag_36\n        /* \"contracts/erc20htlc.sol\":8259:8284  haveContract(_contractId) */\n      jump\t// in\n    tag_77:\n        /* \"contracts/erc20htlc.sol\":8259:8293  haveContract(_contractId) == false */\n      iszero\n      iszero\n      eq\n        /* \"contracts/erc20htlc.sol\":8255:8377  if (haveContract(_contractId) == false)\r... */\n      iszero\n      tag_78\n      jumpi\n        /* \"contracts/erc20htlc.sol\":8324:8325  0 */\n      0x00\n        /* \"contracts/erc20htlc.sol\":8336:8337  0 */\n      dup1\n        /* \"contracts/erc20htlc.sol\":8348:8349  0 */\n      0x00\n        /* \"contracts/erc20htlc.sol\":8352:8353  0 */\n      dup1\n        /* \"contracts/erc20htlc.sol\":8355:8356  0 */\n      0x00\n        /* \"contracts/erc20htlc.sol\":8358:8359  0 */\n      dup1\n        /* \"contracts/erc20htlc.sol\":8361:8366  false */\n      0x00\n        /* \"contracts/erc20htlc.sol\":8368:8373  false */\n      dup1\n        /* \"contracts/erc20htlc.sol\":8375:8376  0 */\n      0x00\n        /* \"contracts/erc20htlc.sol\":8308:8377  return (address(0), address(0), address(0), 0, 0, 0, false, false, 0) */\n      dup5\n      0x00\n      shl\n      swap5\n      pop\n      dup1\n      0x00\n      shl\n      swap1\n      pop\n      swap9\n      pop\n      swap9\n      pop\n      swap9\n      pop\n      swap9\n      pop\n      swap9\n      pop\n      swap9\n      pop\n      swap9\n      pop\n      swap9\n      pop\n      swap9\n      pop\n      jump(tag_76)\n        /* \"contracts/erc20htlc.sol\":8255:8377  if (haveContract(_contractId) == false)\r... */\n    tag_78:\n        /* \"contracts/erc20htlc.sol\":8388:8410  LockContract storage c */\n      0x00\n        /* \"contracts/erc20htlc.sol\":8413:8422  contracts */\n      dup1\n        /* \"contracts/erc20htlc.sol\":8413:8435  contracts[_contractId] */\n      0x00\n        /* \"contracts/erc20htlc.sol\":8423:8434  _contractId */\n      dup13\n        /* \"contracts/erc20htlc.sol\":8413:8435  contracts[_contractId] */\n      dup2\n      mstore\n      0x20\n      add\n      swap1\n      dup2\n      mstore\n      0x20\n      add\n      0x00\n      keccak256\n        /* \"contracts/erc20htlc.sol\":8388:8435  LockContract storage c = contracts[_contractId] */\n      swap1\n      pop\n        /* \"contracts/erc20htlc.sol\":8468:8469  c */\n      dup1\n        /* \"contracts/erc20htlc.sol\":8468:8476  c.sender */\n      0x00\n      add\n      0x00\n      swap1\n      sload\n      swap1\n      0x0100\n      exp\n      swap1\n      div\n      0xffffffffffffffffffffffffffffffffffffffff\n      and\n        /* \"contracts/erc20htlc.sol\":8491:8492  c */\n      dup2\n        /* \"contracts/erc20htlc.sol\":8491:8501  c.receiver */\n      0x01\n      add\n      0x00\n      swap1\n      sload\n      swap1\n      0x0100\n      exp\n      swap1\n      div\n      0xffffffffffffffffffffffffffffffffffffffff\n      and\n        /* \"contracts/erc20htlc.sol\":8516:8517  c */\n      dup3\n        /* \"contracts/erc20htlc.sol\":8516:8531  c.tokenContract */\n      0x02\n      add\n      0x00\n      swap1\n      sload\n      swap1\n      0x0100\n      exp\n      swap1\n      div\n      0xffffffffffffffffffffffffffffffffffffffff\n      and\n        /* \"contracts/erc20htlc.sol\":8546:8547  c */\n      dup4\n        /* \"contracts/erc20htlc.sol\":8546:8554  c.amount */\n      0x03\n      add\n      sload\n        /* \"contracts/erc20htlc.sol\":8569:8570  c */\n      dup5\n        /* \"contracts/erc20htlc.sol\":8569:8579  c.hashlock */\n      0x04\n      add\n      sload\n        /* \"contracts/erc20htlc.sol\":8594:8595  c */\n      dup6\n        /* \"contracts/erc20htlc.sol\":8594:8604  c.timelock */\n      0x05\n      add\n      sload\n        /* \"contracts/erc20htlc.sol\":8619:8620  c */\n      dup7\n        /* \"contracts/erc20htlc.sol\":8619:8630  c.withdrawn */\n      0x06\n      add\n      0x00\n      swap1\n      sload\n      swap1\n      0x0100\n      exp\n      swap1\n      div\n      0xff\n      and\n        /* \"contracts/erc20htlc.sol\":8645:8646  c */\n      dup8\n        /* \"contracts/erc20htlc.sol\":8645:8655  c.refunded */\n      0x06\n      add\n      0x01\n      swap1\n      sload\n      swap1\n      0x0100\n      exp\n      swap1\n      div\n      0xff\n      and\n        /* \"contracts/erc20htlc.sol\":8670:8671  c */\n      dup9\n        /* \"contracts/erc20htlc.sol\":8670:8680  c.preimage */\n      0x07\n      add\n      sload\n        /* \"contracts/erc20htlc.sol\":8446:8691  return (\r... */\n      swap10\n      pop\n      swap10\n      pop\n      swap10\n      pop\n      swap10\n      pop\n      swap10\n      pop\n      swap10\n      pop\n      swap10\n      pop\n      swap10\n      pop\n      swap10\n      pop\n      pop\n        /* \"contracts/erc20htlc.sol\":7863:8699  function getContract(bytes32 _contractId)\r... */\n    tag_76:\n      swap2\n      swap4\n      swap6\n      swap8\n      swap10\n      swap1\n      swap3\n      swap5\n      swap7\n      swap9\n      pop\n      jump\t// out\n        /* \"contracts/erc20htlc.sol\":8833:9017  function haveContract(bytes32 _contractId)\r... */\n    tag_36:\n        /* \"contracts/erc20htlc.sol\":8926:8937  bool exists */\n      0x00\n        /* \"contracts/erc20htlc.sol\":9006:9007  0 */\n      dup1\n        /* \"contracts/erc20htlc.sol\":8965:9008  contracts[_contractId].sender != address(0) */\n      0xffffffffffffffffffffffffffffffffffffffff\n      and\n        /* \"contracts/erc20htlc.sol\":8965:8974  contracts */\n      0x00\n        /* \"contracts/erc20htlc.sol\":8965:8987  contracts[_contractId] */\n      dup1\n        /* \"contracts/erc20htlc.sol\":8975:8986  _contractId */\n      dup5\n        /* \"contracts/erc20htlc.sol\":8965:8987  contracts[_contractId] */\n      dup2\n      mstore\n      0x20\n      add\n      swap1\n      dup2\n      mstore\n      0x20\n      add\n      0x00\n      keccak256\n        /* \"contracts/erc20htlc.sol\":8965:8994  contracts[_contractId].sender */\n      0x00\n      add\n      0x00\n      swap1\n      sload\n      swap1\n      0x0100\n      exp\n      swap1\n      div\n      0xffffffffffffffffffffffffffffffffffffffff\n      and\n        /* \"contracts/erc20htlc.sol\":8965:9008  contracts[_contractId].sender != address(0) */\n      0xffffffffffffffffffffffffffffffffffffffff\n      and\n      eq\n      iszero\n        /* \"contracts/erc20htlc.sol\":8955:9009  exists = (contracts[_contractId].sender != address(0)) */\n      swap1\n      pop\n        /* \"contracts/erc20htlc.sol\":8833:9017  function haveContract(bytes32 _contractId)\r... */\n      swap2\n      swap1\n      pop\n      jump\t// out\n    stop\n    data_16dbfee8f738f21cc70987859d9176eb37f9ed0572f04024e006404bb83f7086 74696d656c6f636b2074696d65206d75737420626520696e2074686520667574757265\n    data_53ffb24e93d3b349bff6339724d28c73880587cacedffccbcdea5da101fc50b9 726566756e6461626c653a2074696d656c6f636b206e6f742079657420706173736564\n    data_98db95208a4165db2bf846b140f267671bc24ad3503084b9b0a60b8f7c8a0ad2 746f6b656e20616c6c6f77616e6365206d757374206265203e3d20616d6f756e74\n    data_d972a7c972449bdb9cebe63bbe70aabf7c1479cdd3def2eb6af0685384c9067a 7472616e7366657246726f6d2073656e64657220746f2074686973206661696c6564\n\n    auxdata: 0xa2646970667358221220f88347d6364cdd849c574d616f219366d1ab96c208c2dae753590c1aaa3766fd64736f6c63430007060033\n}\n",
				"bytecode": {
					"linkReferences": {},
					"object": "608060405234801561001057600080fd5b50611575806100206000396000f3fe608060405234801561001057600080fd5b506004361061004c5760003560e01c8063398a7a981461005157806363615149146100e75780637249fbb614610135578063e16c7d9814610179575b600080fd5b6100d1600480360360a081101561006757600080fd5b81019080803573ffffffffffffffffffffffffffffffffffffffff1690602001909291908035906020019092919080359060200190929190803573ffffffffffffffffffffffffffffffffffffffff16906020019092919080359060200190929190505050610239565b6040518082815260200191505060405180910390f35b61011d600480360360408110156100fd57600080fd5b810190808035906020019092919080359060200190929190505050610971565b60405180821515815260200191505060405180910390f35b6101616004803603602081101561014b57600080fd5b8101908080359060200190929190505050610eb7565b60405180821515815260200191505060405180910390f35b6101a56004803603602081101561018f57600080fd5b8101908080359060200190929190505050611317565b604051808a73ffffffffffffffffffffffffffffffffffffffff1681526020018973ffffffffffffffffffffffffffffffffffffffff1681526020018873ffffffffffffffffffffffffffffffffffffffff16815260200187815260200186815260200185815260200184151581526020018315158152602001828152602001995050505050505050505060405180910390f35b6000823383600081116102b4576040517f08c379a00000000000000000000000000000000000000000000000000000000081526004018080602001828103825260188152602001807f746f6b656e20616d6f756e74206d757374206265203e2030000000000000000081525060200191505060405180910390fd5b808373ffffffffffffffffffffffffffffffffffffffff1663dd62ed3e84306040518363ffffffff1660e01b8152600401808373ffffffffffffffffffffffffffffffffffffffff1681526020018273ffffffffffffffffffffffffffffffffffffffff1681526020019250505060206040518083038186803b15801561033a57600080fd5b505afa15801561034e573d6000803e3d6000fd5b505050506040513d602081101561036457600080fd5b810190808051906020019092919050505010156103cc576040517f08c379a00000000000000000000000000000000000000000000000000000000081526004018080602001828103825260218152602001806114fd6021913960400191505060405180910390fd5b86428111610425576040517f08c379a00000000000000000000000000000000000000000000000000000000081526004018080602001828103825260238152602001806114b76023913960400191505060405180910390fd5b6002338b89898d8d604051602001808773ffffffffffffffffffffffffffffffffffffffff1660601b81526014018673ffffffffffffffffffffffffffffffffffffffff1660601b81526014018573ffffffffffffffffffffffffffffffffffffffff1660601b815260140184815260200183815260200182815260200196505050505050506040516020818303038152906040526040518082805190602001908083835b602083106104ed57805182526020820191506020810190506020830392506104ca565b6001836020036101000a038019825116818451168082178552505050505050905001915050602060405180830381855afa15801561052f573d6000803e3d6000fd5b5050506040513d602081101561054457600080fd5b8101908080519060200190929190505050945061056085611448565b156105d3576040517f08c379a00000000000000000000000000000000000000000000000000000000081526004018080602001828103825260178152602001807f436f6e747261637420616c72656164792065786973747300000000000000000081525060200191505060405180910390fd5b8673ffffffffffffffffffffffffffffffffffffffff166323b872dd3330896040518463ffffffff1660e01b8152600401808473ffffffffffffffffffffffffffffffffffffffff1681526020018373ffffffffffffffffffffffffffffffffffffffff1681526020018281526020019350505050602060405180830381600087803b15801561066257600080fd5b505af1158015610676573d6000803e3d6000fd5b505050506040513d602081101561068c57600080fd5b81019080805190602001909291905050506106f2576040517f08c379a000000000000000000000000000000000000000000000000000000000815260040180806020018281038252602281526020018061151e6022913960400191505060405180910390fd5b6040518061012001604052803373ffffffffffffffffffffffffffffffffffffffff1681526020018b73ffffffffffffffffffffffffffffffffffffffff1681526020018873ffffffffffffffffffffffffffffffffffffffff1681526020018781526020018a81526020018981526020016000151581526020016000151581526020016000801b81525060008087815260200190815260200160002060008201518160000160006101000a81548173ffffffffffffffffffffffffffffffffffffffff021916908373ffffffffffffffffffffffffffffffffffffffff16021790555060208201518160010160006101000a81548173ffffffffffffffffffffffffffffffffffffffff021916908373ffffffffffffffffffffffffffffffffffffffff16021790555060408201518160020160006101000a81548173ffffffffffffffffffffffffffffffffffffffff021916908373ffffffffffffffffffffffffffffffffffffffff160217905550606082015181600301556080820151816004015560a0820151816005015560c08201518160060160006101000a81548160ff02191690831515021790555060e08201518160060160016101000a81548160ff02191690831515021790555061010082015181600701559050508973ffffffffffffffffffffffffffffffffffffffff163373ffffffffffffffffffffffffffffffffffffffff16867f31a346f672cf5073bda81a99e0a28aff2bfe8c2db87d462bb2f4c114476a46ee8a8a8e8e604051808573ffffffffffffffffffffffffffffffffffffffff16815260200184815260200183815260200182815260200194505050505060405180910390a45050505095945050505050565b60008261097d81611448565b6109ef576040517f08c379a00000000000000000000000000000000000000000000000000000000081526004018080602001828103825260198152602001807f636f6e7472616374496420646f6573206e6f742065786973740000000000000081525060200191505060405180910390fd5b8383600281604051602001808281526020019150506040516020818303038152906040526040518082805190602001908083835b60208310610a465780518252602082019150602081019050602083039250610a23565b6001836020036101000a038019825116818451168082178552505050505050905001915050602060405180830381855afa158015610a88573d6000803e3d6000fd5b5050506040513d6020811015610a9d57600080fd5b81019080805190602001909291905050506000808481526020019081526020016000206004015414610b37576040517f08c379a000000000000000000000000000000000000000000000000000000000815260040180806020018281038252601c8152602001807f686173686c6f636b206861736820646f6573206e6f74206d617463680000000081525060200191505060405180910390fd5b853373ffffffffffffffffffffffffffffffffffffffff1660008083815260200190815260200160002060010160009054906101000a900473ffffffffffffffffffffffffffffffffffffffff1673ffffffffffffffffffffffffffffffffffffffff1614610c0e576040517f08c379a000000000000000000000000000000000000000000000000000000000815260040180806020018281038252601a8152602001807f776974686472617761626c653a206e6f7420726563656976657200000000000081525060200191505060405180910390fd5b6000151560008083815260200190815260200160002060060160009054906101000a900460ff16151514610caa576040517f08c379a000000000000000000000000000000000000000000000000000000000815260040180806020018281038252601f8152602001807f776974686472617761626c653a20616c72656164792077697468647261776e0081525060200191505060405180910390fd5b6000151560008083815260200190815260200160002060060160019054906101000a900460ff16151514610d46576040517f08c379a000000000000000000000000000000000000000000000000000000000815260040180806020018281038252601e8152602001807f776974686472617761626c653a20616c726561647920726566756e646564000081525060200191505060405180910390fd5b6000806000898152602001908152602001600020905086816007018190555060018160060160006101000a81548160ff0219169083151502179055508060020160009054906101000a900473ffffffffffffffffffffffffffffffffffffffff1673ffffffffffffffffffffffffffffffffffffffff1663a9059cbb8260010160009054906101000a900473ffffffffffffffffffffffffffffffffffffffff1683600301546040518363ffffffff1660e01b8152600401808373ffffffffffffffffffffffffffffffffffffffff16815260200182815260200192505050602060405180830381600087803b158015610e3f57600080fd5b505af1158015610e53573d6000803e3d6000fd5b505050506040513d6020811015610e6957600080fd5b810190808051906020019092919050505050877f15a71365fee30a355046c80d10aab98a49c3558b2272658d6c551733203e9bbe60405160405180910390a260019550505050505092915050565b600081610ec381611448565b610f35576040517f08c379a00000000000000000000000000000000000000000000000000000000081526004018080602001828103825260198152602001807f636f6e7472616374496420646f6573206e6f742065786973740000000000000081525060200191505060405180910390fd5b823373ffffffffffffffffffffffffffffffffffffffff1660008083815260200190815260200160002060000160009054906101000a900473ffffffffffffffffffffffffffffffffffffffff1673ffffffffffffffffffffffffffffffffffffffff161461100c576040517f08c379a00000000000000000000000000000000000000000000000000000000081526004018080602001828103825260168152602001807f726566756e6461626c653a206e6f742073656e6465720000000000000000000081525060200191505060405180910390fd5b6000151560008083815260200190815260200160002060060160019054906101000a900460ff161515146110a8576040517f08c379a000000000000000000000000000000000000000000000000000000000815260040180806020018281038252601c8152602001807f726566756e6461626c653a20616c726561647920726566756e6465640000000081525060200191505060405180910390fd5b6000151560008083815260200190815260200160002060060160009054906101000a900460ff16151514611144576040517f08c379a000000000000000000000000000000000000000000000000000000000815260040180806020018281038252601d8152602001807f726566756e6461626c653a20616c72656164792077697468647261776e00000081525060200191505060405180910390fd5b426000808381526020019081526020016000206005015411156111b2576040517f08c379a00000000000000000000000000000000000000000000000000000000081526004018080602001828103825260238152602001806114da6023913960400191505060405180910390fd5b6000806000868152602001908152602001600020905060018160060160016101000a81548160ff0219169083151502179055508060020160009054906101000a900473ffffffffffffffffffffffffffffffffffffffff1673ffffffffffffffffffffffffffffffffffffffff1663a9059cbb8260000160009054906101000a900473ffffffffffffffffffffffffffffffffffffffff1683600301546040518363ffffffff1660e01b8152600401808373ffffffffffffffffffffffffffffffffffffffff16815260200182815260200192505050602060405180830381600087803b1580156112a257600080fd5b505af11580156112b6573d6000803e3d6000fd5b505050506040513d60208110156112cc57600080fd5b810190808051906020019092919050505050847ff97bb6718c3bf29e51d27c00a46276abc2cf35c7f1d5a1c71bec2c82421bb83060405160405180910390a260019350505050919050565b60008060008060008060008060008015156113318b611448565b1515141561136a5760008060008060008060008060008460001b94508060001b905098509850985098509850985098509850985061143b565b60008060008c815260200190815260200160002090508060000160009054906101000a900473ffffffffffffffffffffffffffffffffffffffff168160010160009054906101000a900473ffffffffffffffffffffffffffffffffffffffff168260020160009054906101000a900473ffffffffffffffffffffffffffffffffffffffff168360030154846004015485600501548660060160009054906101000a900460ff168760060160019054906101000a900460ff168860070154995099509950995099509950995099509950505b9193959799909294969850565b60008073ffffffffffffffffffffffffffffffffffffffff1660008084815260200190815260200160002060000160009054906101000a900473ffffffffffffffffffffffffffffffffffffffff1673ffffffffffffffffffffffffffffffffffffffff161415905091905056fe74696d656c6f636b2074696d65206d75737420626520696e2074686520667574757265726566756e6461626c653a2074696d656c6f636b206e6f742079657420706173736564746f6b656e20616c6c6f77616e6365206d757374206265203e3d20616d6f756e747472616e7366657246726f6d2073656e64657220746f2074686973206661696c6564a2646970667358221220f88347d6364cdd849c574d616f219366d1ab96c208c2dae753590c1aaa3766fd64736f6c63430007060033",
					"opcodes": "PUSH1 0x80 PUSH1 0x40 MSTORE CALLVALUE DUP1 ISZERO PUSH2 0x10 JUMPI PUSH1 0x0 DUP1 REVERT JUMPDEST POP PUSH2 0x1575 DUP1 PUSH2 0x20 PUSH1 0x0 CODECOPY PUSH1 0x0 RETURN INVALID PUSH1 0x80 PUSH1 0x40 MSTORE CALLVALUE DUP1 ISZERO PUSH2 0x10 JUMPI PUSH1 0x0 DUP1 REVERT JUMPDEST POP PUSH1 0x4 CALLDATASIZE LT PUSH2 0x4C JUMPI PUSH1 0x0 CALLDATALOAD PUSH1 0xE0 SHR DUP1 PUSH4 0x398A7A98 EQ PUSH2 0x51 JUMPI DUP1 PUSH4 0x63615149 EQ PUSH2 0xE7 JUMPI DUP1 PUSH4 0x7249FBB6 EQ PUSH2 0x135 JUMPI DUP1 PUSH4 0xE16C7D98 EQ PUSH2 0x179 JUMPI JUMPDEST PUSH1 0x0 DUP1 REVERT JUMPDEST PUSH2 0xD1 PUSH1 0x4 DUP1 CALLDATASIZE SUB PUSH1 0xA0 DUP2 LT ISZERO PUSH2 0x67 JUMPI PUSH1 0x0 DUP1 REVERT JUMPDEST DUP2 ADD SWAP1 DUP1 DUP1 CALLDATALOAD PUSH20 0xFFFFFFFFFFFFFFFFFFFFFFFFFFFFFFFFFFFFFFFF AND SWAP1 PUSH1 0x20 ADD SWAP1 SWAP3 SWAP2 SWAP1 DUP1 CALLDATALOAD SWAP1 PUSH1 0x20 ADD SWAP1 SWAP3 SWAP2 SWAP1 DUP1 CALLDATALOAD SWAP1 PUSH1 0x20 ADD SWAP1 SWAP3 SWAP2 SWAP1 DUP1 CALLDATALOAD PUSH20 0xFFFFFFFFFFFFFFFFFFFFFFFFFFFFFFFFFFFFFFFF AND SWAP1 PUSH1 0x20 ADD SWAP1 SWAP3 SWAP2 SWAP1 DUP1 CALLDATALOAD SWAP1 PUSH1 0x20 ADD SWAP1 SWAP3 SWAP2 SWAP1 POP POP POP PUSH2 0x239 JUMP JUMPDEST PUSH1 0x40 MLOAD DUP1 DUP3 DUP2 MSTORE PUSH1 0x20 ADD SWAP2 POP POP PUSH1 0x40 MLOAD DUP1 SWAP2 SUB SWAP1 RETURN JUMPDEST PUSH2 0x11D PUSH1 0x4 DUP1 CALLDATASIZE SUB PUSH1 0x40 DUP2 LT ISZERO PUSH2 0xFD JUMPI PUSH1 0x0 DUP1 REVERT JUMPDEST DUP2 ADD SWAP1 DUP1 DUP1 CALLDATALOAD SWAP1 PUSH1 0x20 ADD SWAP1 SWAP3 SWAP2 SWAP1 DUP1 CALLDATALOAD SWAP1 PUSH1 0x20 ADD SWAP1 SWAP3 SWAP2 SWAP1 POP POP POP PUSH2 0x971 JUMP JUMPDEST PUSH1 0x40 MLOAD DUP1 DUP3 ISZERO ISZERO DUP2 MSTORE PUSH1 0x20 ADD SWAP2 POP POP PUSH1 0x40 MLOAD DUP1 SWAP2 SUB SWAP1 RETURN JUMPDEST PUSH2 0x161 PUSH1 0x4 DUP1 CALLDATASIZE SUB PUSH1 0x20 DUP2 LT ISZERO PUSH2 0x14B JUMPI PUSH1 0x0 DUP1 REVERT JUMPDEST DUP2 ADD SWAP1 DUP1 DUP1 CALLDATALOAD SWAP1 PUSH1 0x20 ADD SWAP1 SWAP3 SWAP2 SWAP1 POP POP POP PUSH2 0xEB7 JUMP JUMPDEST PUSH1 0x40 MLOAD DUP1 DUP3 ISZERO ISZERO DUP2 MSTORE PUSH1 0x20 ADD SWAP2 POP POP PUSH1 0x40 MLOAD DUP1 SWAP2 SUB SWAP1 RETURN JUMPDEST PUSH2 0x1A5 PUSH1 0x4 DUP1 CALLDATASIZE SUB PUSH1 0x20 DUP2 LT ISZERO PUSH2 0x18F JUMPI PUSH1 0x0 DUP1 REVERT JUMPDEST DUP2 ADD SWAP1 DUP1 DUP1 CALLDATALOAD SWAP1 PUSH1 0x20 ADD SWAP1 SWAP3 SWAP2 SWAP1 POP POP POP PUSH2 0x1317 JUMP JUMPDEST PUSH1 0x40 MLOAD DUP1 DUP11 PUSH20 0xFFFFFFFFFFFFFFFFFFFFFFFFFFFFFFFFFFFFFFFF AND DUP2 MSTORE PUSH1 0x20 ADD DUP10 PUSH20 0xFFFFFFFFFFFFFFFFFFFFFFFFFFFFFFFFFFFFFFFF AND DUP2 MSTORE PUSH1 0x20 ADD DUP9 PUSH20 0xFFFFFFFFFFFFFFFFFFFFFFFFFFFFFFFFFFFFFFFF AND DUP2 MSTORE PUSH1 0x20 ADD DUP8 DUP2 MSTORE PUSH1 0x20 ADD DUP7 DUP2 MSTORE PUSH1 0x20 ADD DUP6 DUP2 MSTORE PUSH1 0x20 ADD DUP5 ISZERO ISZERO DUP2 MSTORE PUSH1 0x20 ADD DUP4 ISZERO ISZERO DUP2 MSTORE PUSH1 0x20 ADD DUP3 DUP2 MSTORE PUSH1 0x20 ADD SWAP10 POP POP POP POP POP POP POP POP POP POP PUSH1 0x40 MLOAD DUP1 SWAP2 SUB SWAP1 RETURN JUMPDEST PUSH1 0x0 DUP3 CALLER DUP4 PUSH1 0x0 DUP2 GT PUSH2 0x2B4 JUMPI PUSH1 0x40 MLOAD PUSH32 0x8C379A000000000000000000000000000000000000000000000000000000000 DUP2 MSTORE PUSH1 0x4 ADD DUP1 DUP1 PUSH1 0x20 ADD DUP3 DUP2 SUB DUP3 MSTORE PUSH1 0x18 DUP2 MSTORE PUSH1 0x20 ADD DUP1 PUSH32 0x746F6B656E20616D6F756E74206D757374206265203E20300000000000000000 DUP2 MSTORE POP PUSH1 0x20 ADD SWAP2 POP POP PUSH1 0x40 MLOAD DUP1 SWAP2 SUB SWAP1 REVERT JUMPDEST DUP1 DUP4 PUSH20 0xFFFFFFFFFFFFFFFFFFFFFFFFFFFFFFFFFFFFFFFF AND PUSH4 0xDD62ED3E DUP5 ADDRESS PUSH1 0x40 MLOAD DUP4 PUSH4 0xFFFFFFFF AND PUSH1 0xE0 SHL DUP2 MSTORE PUSH1 0x4 ADD DUP1 DUP4 PUSH20 0xFFFFFFFFFFFFFFFFFFFFFFFFFFFFFFFFFFFFFFFF AND DUP2 MSTORE PUSH1 0x20 ADD DUP3 PUSH20 0xFFFFFFFFFFFFFFFFFFFFFFFFFFFFFFFFFFFFFFFF AND DUP2 MSTORE PUSH1 0x20 ADD SWAP3 POP POP POP PUSH1 0x20 PUSH1 0x40 MLOAD DUP1 DUP4 SUB DUP2 DUP7 DUP1 EXTCODESIZE ISZERO DUP1 ISZERO PUSH2 0x33A JUMPI PUSH1 0x0 DUP1 REVERT JUMPDEST POP GAS STATICCALL ISZERO DUP1 ISZERO PUSH2 0x34E JUMPI RETURNDATASIZE PUSH1 0x0 DUP1 RETURNDATACOPY RETURNDATASIZE PUSH1 0x0 REVERT JUMPDEST POP POP POP POP PUSH1 0x40 MLOAD RETURNDATASIZE PUSH1 0x20 DUP2 LT ISZERO PUSH2 0x364 JUMPI PUSH1 0x0 DUP1 REVERT JUMPDEST DUP2 ADD SWAP1 DUP1 DUP1 MLOAD SWAP1 PUSH1 0x20 ADD SWAP1 SWAP3 SWAP2 SWAP1 POP POP POP LT ISZERO PUSH2 0x3CC JUMPI PUSH1 0x40 MLOAD PUSH32 0x8C379A000000000000000000000000000000000000000000000000000000000 DUP2 MSTORE PUSH1 0x4 ADD DUP1 DUP1 PUSH1 0x20 ADD DUP3 DUP2 SUB DUP3 MSTORE PUSH1 0x21 DUP2 MSTORE PUSH1 0x20 ADD DUP1 PUSH2 0x14FD PUSH1 0x21 SWAP2 CODECOPY PUSH1 0x40 ADD SWAP2 POP POP PUSH1 0x40 MLOAD DUP1 SWAP2 SUB SWAP1 REVERT JUMPDEST DUP7 TIMESTAMP DUP2 GT PUSH2 0x425 JUMPI PUSH1 0x40 MLOAD PUSH32 0x8C379A000000000000000000000000000000000000000000000000000000000 DUP2 MSTORE PUSH1 0x4 ADD DUP1 DUP1 PUSH1 0x20 ADD DUP3 DUP2 SUB DUP3 MSTORE PUSH1 0x23 DUP2 MSTORE PUSH1 0x20 ADD DUP1 PUSH2 0x14B7 PUSH1 0x23 SWAP2 CODECOPY PUSH1 0x40 ADD SWAP2 POP POP PUSH1 0x40 MLOAD DUP1 SWAP2 SUB SWAP1 REVERT JUMPDEST PUSH1 0x2 CALLER DUP12 DUP10 DUP10 DUP14 DUP14 PUSH1 0x40 MLOAD PUSH1 0x20 ADD DUP1 DUP8 PUSH20 0xFFFFFFFFFFFFFFFFFFFFFFFFFFFFFFFFFFFFFFFF AND PUSH1 0x60 SHL DUP2 MSTORE PUSH1 0x14 ADD DUP7 PUSH20 0xFFFFFFFFFFFFFFFFFFFFFFFFFFFFFFFFFFFFFFFF AND PUSH1 0x60 SHL DUP2 MSTORE PUSH1 0x14 ADD DUP6 PUSH20 0xFFFFFFFFFFFFFFFFFFFFFFFFFFFFFFFFFFFFFFFF AND PUSH1 0x60 SHL DUP2 MSTORE PUSH1 0x14 ADD DUP5 DUP2 MSTORE PUSH1 0x20 ADD DUP4 DUP2 MSTORE PUSH1 0x20 ADD DUP3 DUP2 MSTORE PUSH1 0x20 ADD SWAP7 POP POP POP POP POP POP POP PUSH1 0x40 MLOAD PUSH1 0x20 DUP2 DUP4 SUB SUB DUP2 MSTORE SWAP1 PUSH1 0x40 MSTORE PUSH1 0x40 MLOAD DUP1 DUP3 DUP1 MLOAD SWAP1 PUSH1 0x20 ADD SWAP1 DUP1 DUP4 DUP4 JUMPDEST PUSH1 0x20 DUP4 LT PUSH2 0x4ED JUMPI DUP1 MLOAD DUP3 MSTORE PUSH1 0x20 DUP3 ADD SWAP2 POP PUSH1 0x20 DUP2 ADD SWAP1 POP PUSH1 0x20 DUP4 SUB SWAP3 POP PUSH2 0x4CA JUMP JUMPDEST PUSH1 0x1 DUP4 PUSH1 0x20 SUB PUSH2 0x100 EXP SUB DUP1 NOT DUP3 MLOAD AND DUP2 DUP5 MLOAD AND DUP1 DUP3 OR DUP6 MSTORE POP POP POP POP POP POP SWAP1 POP ADD SWAP2 POP POP PUSH1 0x20 PUSH1 0x40 MLOAD DUP1 DUP4 SUB DUP2 DUP6 GAS STATICCALL ISZERO DUP1 ISZERO PUSH2 0x52F JUMPI RETURNDATASIZE PUSH1 0x0 DUP1 RETURNDATACOPY RETURNDATASIZE PUSH1 0x0 REVERT JUMPDEST POP POP POP PUSH1 0x40 MLOAD RETURNDATASIZE PUSH1 0x20 DUP2 LT ISZERO PUSH2 0x544 JUMPI PUSH1 0x0 DUP1 REVERT JUMPDEST DUP2 ADD SWAP1 DUP1 DUP1 MLOAD SWAP1 PUSH1 0x20 ADD SWAP1 SWAP3 SWAP2 SWAP1 POP POP POP SWAP5 POP PUSH2 0x560 DUP6 PUSH2 0x1448 JUMP JUMPDEST ISZERO PUSH2 0x5D3 JUMPI PUSH1 0x40 MLOAD PUSH32 0x8C379A000000000000000000000000000000000000000000000000000000000 DUP2 MSTORE PUSH1 0x4 ADD DUP1 DUP1 PUSH1 0x20 ADD DUP3 DUP2 SUB DUP3 MSTORE PUSH1 0x17 DUP2 MSTORE PUSH1 0x20 ADD DUP1 PUSH32 0x436F6E747261637420616C726561647920657869737473000000000000000000 DUP2 MSTORE POP PUSH1 0x20 ADD SWAP2 POP POP PUSH1 0x40 MLOAD DUP1 SWAP2 SUB SWAP1 REVERT JUMPDEST DUP7 PUSH20 0xFFFFFFFFFFFFFFFFFFFFFFFFFFFFFFFFFFFFFFFF AND PUSH4 0x23B872DD CALLER ADDRESS DUP10 PUSH1 0x40 MLOAD DUP5 PUSH4 0xFFFFFFFF AND PUSH1 0xE0 SHL DUP2 MSTORE PUSH1 0x4 ADD DUP1 DUP5 PUSH20 0xFFFFFFFFFFFFFFFFFFFFFFFFFFFFFFFFFFFFFFFF AND DUP2 MSTORE PUSH1 0x20 ADD DUP4 PUSH20 0xFFFFFFFFFFFFFFFFFFFFFFFFFFFFFFFFFFFFFFFF AND DUP2 MSTORE PUSH1 0x20 ADD DUP3 DUP2 MSTORE PUSH1 0x20 ADD SWAP4 POP POP POP POP PUSH1 0x20 PUSH1 0x40 MLOAD DUP1 DUP4 SUB DUP2 PUSH1 0x0 DUP8 DUP1 EXTCODESIZE ISZERO DUP1 ISZERO PUSH2 0x662 JUMPI PUSH1 0x0 DUP1 REVERT JUMPDEST POP GAS CALL ISZERO DUP1 ISZERO PUSH2 0x676 JUMPI RETURNDATASIZE PUSH1 0x0 DUP1 RETURNDATACOPY RETURNDATASIZE PUSH1 0x0 REVERT JUMPDEST POP POP POP POP PUSH1 0x40 MLOAD RETURNDATASIZE PUSH1 0x20 DUP2 LT ISZERO PUSH2 0x68C JUMPI PUSH1 0x0 DUP1 REVERT JUMPDEST DUP2 ADD SWAP1 DUP1 DUP1 MLOAD SWAP1 PUSH1 0x20 ADD SWAP1 SWAP3 SWAP2 SWAP1 POP POP POP PUSH2 0x6F2 JUMPI PUSH1 0x40 MLOAD PUSH32 0x8C379A000000000000000000000000000000000000000000000000000000000 DUP2 MSTORE PUSH1 0x4 ADD DUP1 DUP1 PUSH1 0x20 ADD DUP3 DUP2 SUB DUP3 MSTORE PUSH1 0x22 DUP2 MSTORE PUSH1 0x20 ADD DUP1 PUSH2 0x151E PUSH1 0x22 SWAP2 CODECOPY PUSH1 0x40 ADD SWAP2 POP POP PUSH1 0x40 MLOAD DUP1 SWAP2 SUB SWAP1 REVERT JUMPDEST PUSH1 0x40 MLOAD DUP1 PUSH2 0x120 ADD PUSH1 0x40 MSTORE DUP1 CALLER PUSH20 0xFFFFFFFFFFFFFFFFFFFFFFFFFFFFFFFFFFFFFFFF AND DUP2 MSTORE PUSH1 0x20 ADD DUP12 PUSH20 0xFFFFFFFFFFFFFFFFFFFFFFFFFFFFFFFFFFFFFFFF AND DUP2 MSTORE PUSH1 0x20 ADD DUP9 PUSH20 0xFFFFFFFFFFFFFFFFFFFFFFFFFFFFFFFFFFFFFFFF AND DUP2 MSTORE PUSH1 0x20 ADD DUP8 DUP2 MSTORE PUSH1 0x20 ADD DUP11 DUP2 MSTORE PUSH1 0x20 ADD DUP10 DUP2 MSTORE PUSH1 0x20 ADD PUSH1 0x0 ISZERO ISZERO DUP2 MSTORE PUSH1 0x20 ADD PUSH1 0x0 ISZERO ISZERO DUP2 MSTORE PUSH1 0x20 ADD PUSH1 0x0 DUP1 SHL DUP2 MSTORE POP PUSH1 0x0 DUP1 DUP8 DUP2 MSTORE PUSH1 0x20 ADD SWAP1 DUP2 MSTORE PUSH1 0x20 ADD PUSH1 0x0 KECCAK256 PUSH1 0x0 DUP3 ADD MLOAD DUP2 PUSH1 0x0 ADD PUSH1 0x0 PUSH2 0x100 EXP DUP2 SLOAD DUP2 PUSH20 0xFFFFFFFFFFFFFFFFFFFFFFFFFFFFFFFFFFFFFFFF MUL NOT AND SWAP1 DUP4 PUSH20 0xFFFFFFFFFFFFFFFFFFFFFFFFFFFFFFFFFFFFFFFF AND MUL OR SWAP1 SSTORE POP PUSH1 0x20 DUP3 ADD MLOAD DUP2 PUSH1 0x1 ADD PUSH1 0x0 PUSH2 0x100 EXP DUP2 SLOAD DUP2 PUSH20 0xFFFFFFFFFFFFFFFFFFFFFFFFFFFFFFFFFFFFFFFF MUL NOT AND SWAP1 DUP4 PUSH20 0xFFFFFFFFFFFFFFFFFFFFFFFFFFFFFFFFFFFFFFFF AND MUL OR SWAP1 SSTORE POP PUSH1 0x40 DUP3 ADD MLOAD DUP2 PUSH1 0x2 ADD PUSH1 0x0 PUSH2 0x100 EXP DUP2 SLOAD DUP2 PUSH20 0xFFFFFFFFFFFFFFFFFFFFFFFFFFFFFFFFFFFFFFFF MUL NOT AND SWAP1 DUP4 PUSH20 0xFFFFFFFFFFFFFFFFFFFFFFFFFFFFFFFFFFFFFFFF AND MUL OR SWAP1 SSTORE POP PUSH1 0x60 DUP3 ADD MLOAD DUP2 PUSH1 0x3 ADD SSTORE PUSH1 0x80 DUP3 ADD MLOAD DUP2 PUSH1 0x4 ADD SSTORE PUSH1 0xA0 DUP3 ADD MLOAD DUP2 PUSH1 0x5 ADD SSTORE PUSH1 0xC0 DUP3 ADD MLOAD DUP2 PUSH1 0x6 ADD PUSH1 0x0 PUSH2 0x100 EXP DUP2 SLOAD DUP2 PUSH1 0xFF MUL NOT AND SWAP1 DUP4 ISZERO ISZERO MUL OR SWAP1 SSTORE POP PUSH1 0xE0 DUP3 ADD MLOAD DUP2 PUSH1 0x6 ADD PUSH1 0x1 PUSH2 0x100 EXP DUP2 SLOAD DUP2 PUSH1 0xFF MUL NOT AND SWAP1 DUP4 ISZERO ISZERO MUL OR SWAP1 SSTORE POP PUSH2 0x100 DUP3 ADD MLOAD DUP2 PUSH1 0x7 ADD SSTORE SWAP1 POP POP DUP10 PUSH20 0xFFFFFFFFFFFFFFFFFFFFFFFFFFFFFFFFFFFFFFFF AND CALLER PUSH20 0xFFFFFFFFFFFFFFFFFFFFFFFFFFFFFFFFFFFFFFFF AND DUP7 PUSH32 0x31A346F672CF5073BDA81A99E0A28AFF2BFE8C2DB87D462BB2F4C114476A46EE DUP11 DUP11 DUP15 DUP15 PUSH1 0x40 MLOAD DUP1 DUP6 PUSH20 0xFFFFFFFFFFFFFFFFFFFFFFFFFFFFFFFFFFFFFFFF AND DUP2 MSTORE PUSH1 0x20 ADD DUP5 DUP2 MSTORE PUSH1 0x20 ADD DUP4 DUP2 MSTORE PUSH1 0x20 ADD DUP3 DUP2 MSTORE PUSH1 0x20 ADD SWAP5 POP POP POP POP POP PUSH1 0x40 MLOAD DUP1 SWAP2 SUB SWAP1 LOG4 POP POP POP POP SWAP6 SWAP5 POP POP POP POP POP JUMP JUMPDEST PUSH1 0x0 DUP3 PUSH2 0x97D DUP2 PUSH2 0x1448 JUMP JUMPDEST PUSH2 0x9EF JUMPI PUSH1 0x40 MLOAD PUSH32 0x8C379A000000000000000000000000000000000000000000000000000000000 DUP2 MSTORE PUSH1 0x4 ADD DUP1 DUP1 PUSH1 0x20 ADD DUP3 DUP2 SUB DUP3 MSTORE PUSH1 0x19 DUP2 MSTORE PUSH1 0x20 ADD DUP1 PUSH32 0x636F6E7472616374496420646F6573206E6F7420657869737400000000000000 DUP2 MSTORE POP PUSH1 0x20 ADD SWAP2 POP POP PUSH1 0x40 MLOAD DUP1 SWAP2 SUB SWAP1 REVERT JUMPDEST DUP4 DUP4 PUSH1 0x2 DUP2 PUSH1 0x40 MLOAD PUSH1 0x20 ADD DUP1 DUP3 DUP2 MSTORE PUSH1 0x20 ADD SWAP2 POP POP PUSH1 0x40 MLOAD PUSH1 0x20 DUP2 DUP4 SUB SUB DUP2 MSTORE SWAP1 PUSH1 0x40 MSTORE PUSH1 0x40 MLOAD DUP1 DUP3 DUP1 MLOAD SWAP1 PUSH1 0x20 ADD SWAP1 DUP1 DUP4 DUP4 JUMPDEST PUSH1 0x20 DUP4 LT PUSH2 0xA46 JUMPI DUP1 MLOAD DUP3 MSTORE PUSH1 0x20 DUP3 ADD SWAP2 POP PUSH1 0x20 DUP2 ADD SWAP1 POP PUSH1 0x20 DUP4 SUB SWAP3 POP PUSH2 0xA23 JUMP JUMPDEST PUSH1 0x1 DUP4 PUSH1 0x20 SUB PUSH2 0x100 EXP SUB DUP1 NOT DUP3 MLOAD AND DUP2 DUP5 MLOAD AND DUP1 DUP3 OR DUP6 MSTORE POP POP POP POP POP POP SWAP1 POP ADD SWAP2 POP POP PUSH1 0x20 PUSH1 0x40 MLOAD DUP1 DUP4 SUB DUP2 DUP6 GAS STATICCALL ISZERO DUP1 ISZERO PUSH2 0xA88 JUMPI RETURNDATASIZE PUSH1 0x0 DUP1 RETURNDATACOPY RETURNDATASIZE PUSH1 0x0 REVERT JUMPDEST POP POP POP PUSH1 0x40 MLOAD RETURNDATASIZE PUSH1 0x20 DUP2 LT ISZERO PUSH2 0xA9D JUMPI PUSH1 0x0 DUP1 REVERT JUMPDEST DUP2 ADD SWAP1 DUP1 DUP1 MLOAD SWAP1 PUSH1 0x20 ADD SWAP1 SWAP3 SWAP2 SWAP1 POP POP POP PUSH1 0x0 DUP1 DUP5 DUP2 MSTORE PUSH1 0x20 ADD SWAP1 DUP2 MSTORE PUSH1 0x20 ADD PUSH1 0x0 KECCAK256 PUSH1 0x4 ADD SLOAD EQ PUSH2 0xB37 JUMPI PUSH1 0x40 MLOAD PUSH32 0x8C379A000000000000000000000000000000000000000000000000000000000 DUP2 MSTORE PUSH1 0x4 ADD DUP1 DUP1 PUSH1 0x20 ADD DUP3 DUP2 SUB DUP3 MSTORE PUSH1 0x1C DUP2 MSTORE PUSH1 0x20 ADD DUP1 PUSH32 0x686173686C6F636B206861736820646F6573206E6F74206D6174636800000000 DUP2 MSTORE POP PUSH1 0x20 ADD SWAP2 POP POP PUSH1 0x40 MLOAD DUP1 SWAP2 SUB SWAP1 REVERT JUMPDEST DUP6 CALLER PUSH20 0xFFFFFFFFFFFFFFFFFFFFFFFFFFFFFFFFFFFFFFFF AND PUSH1 0x0 DUP1 DUP4 DUP2 MSTORE PUSH1 0x20 ADD SWAP1 DUP2 MSTORE PUSH1 0x20 ADD PUSH1 0x0 KECCAK256 PUSH1 0x1 ADD PUSH1 0x0 SWAP1 SLOAD SWAP1 PUSH2 0x100 EXP SWAP1 DIV PUSH20 0xFFFFFFFFFFFFFFFFFFFFFFFFFFFFFFFFFFFFFFFF AND PUSH20 0xFFFFFFFFFFFFFFFFFFFFFFFFFFFFFFFFFFFFFFFF AND EQ PUSH2 0xC0E JUMPI PUSH1 0x40 MLOAD PUSH32 0x8C379A000000000000000000000000000000000000000000000000000000000 DUP2 MSTORE PUSH1 0x4 ADD DUP1 DUP1 PUSH1 0x20 ADD DUP3 DUP2 SUB DUP3 MSTORE PUSH1 0x1A DUP2 MSTORE PUSH1 0x20 ADD DUP1 PUSH32 0x776974686472617761626C653A206E6F74207265636569766572000000000000 DUP2 MSTORE POP PUSH1 0x20 ADD SWAP2 POP POP PUSH1 0x40 MLOAD DUP1 SWAP2 SUB SWAP1 REVERT JUMPDEST PUSH1 0x0 ISZERO ISZERO PUSH1 0x0 DUP1 DUP4 DUP2 MSTORE PUSH1 0x20 ADD SWAP1 DUP2 MSTORE PUSH1 0x20 ADD PUSH1 0x0 KECCAK256 PUSH1 0x6 ADD PUSH1 0x0 SWAP1 SLOAD SWAP1 PUSH2 0x100 EXP SWAP1 DIV PUSH1 0xFF AND ISZERO ISZERO EQ PUSH2 0xCAA JUMPI PUSH1 0x40 MLOAD PUSH32 0x8C379A000000000000000000000000000000000000000000000000000000000 DUP2 MSTORE PUSH1 0x4 ADD DUP1 DUP1 PUSH1 0x20 ADD DUP3 DUP2 SUB DUP3 MSTORE PUSH1 0x1F DUP2 MSTORE PUSH1 0x20 ADD DUP1 PUSH32 0x776974686472617761626C653A20616C72656164792077697468647261776E00 DUP2 MSTORE POP PUSH1 0x20 ADD SWAP2 POP POP PUSH1 0x40 MLOAD DUP1 SWAP2 SUB SWAP1 REVERT JUMPDEST PUSH1 0x0 ISZERO ISZERO PUSH1 0x0 DUP1 DUP4 DUP2 MSTORE PUSH1 0x20 ADD SWAP1 DUP2 MSTORE PUSH1 0x20 ADD PUSH1 0x0 KECCAK256 PUSH1 0x6 ADD PUSH1 0x1 SWAP1 SLOAD SWAP1 PUSH2 0x100 EXP SWAP1 DIV PUSH1 0xFF AND ISZERO ISZERO EQ PUSH2 0xD46 JUMPI PUSH1 0x40 MLOAD PUSH32 0x8C379A000000000000000000000000000000000000000000000000000000000 DUP2 MSTORE PUSH1 0x4 ADD DUP1 DUP1 PUSH1 0x20 ADD DUP3 DUP2 SUB DUP3 MSTORE PUSH1 0x1E DUP2 MSTORE PUSH1 0x20 ADD DUP1 PUSH32 0x776974686472617761626C653A20616C726561647920726566756E6465640000 DUP2 MSTORE POP PUSH1 0x20 ADD SWAP2 POP POP PUSH1 0x40 MLOAD DUP1 SWAP2 SUB SWAP1 REVERT JUMPDEST PUSH1 0x0 DUP1 PUSH1 0x0 DUP10 DUP2 MSTORE PUSH1 0x20 ADD SWAP1 DUP2 MSTORE PUSH1 0x20 ADD PUSH1 0x0 KECCAK256 SWAP1 POP DUP7 DUP2 PUSH1 0x7 ADD DUP2 SWAP1 SSTORE POP PUSH1 0x1 DUP2 PUSH1 0x6 ADD PUSH1 0x0 PUSH2 0x100 EXP DUP2 SLOAD DUP2 PUSH1 0xFF MUL NOT AND SWAP1 DUP4 ISZERO ISZERO MUL OR SWAP1 SSTORE POP DUP1 PUSH1 0x2 ADD PUSH1 0x0 SWAP1 SLOAD SWAP1 PUSH2 0x100 EXP SWAP1 DIV PUSH20 0xFFFFFFFFFFFFFFFFFFFFFFFFFFFFFFFFFFFFFFFF AND PUSH20 0xFFFFFFFFFFFFFFFFFFFFFFFFFFFFFFFFFFFFFFFF AND PUSH4 0xA9059CBB DUP3 PUSH1 0x1 ADD PUSH1 0x0 SWAP1 SLOAD SWAP1 PUSH2 0x100 EXP SWAP1 DIV PUSH20 0xFFFFFFFFFFFFFFFFFFFFFFFFFFFFFFFFFFFFFFFF AND DUP4 PUSH1 0x3 ADD SLOAD PUSH1 0x40 MLOAD DUP4 PUSH4 0xFFFFFFFF AND PUSH1 0xE0 SHL DUP2 MSTORE PUSH1 0x4 ADD DUP1 DUP4 PUSH20 0xFFFFFFFFFFFFFFFFFFFFFFFFFFFFFFFFFFFFFFFF AND DUP2 MSTORE PUSH1 0x20 ADD DUP3 DUP2 MSTORE PUSH1 0x20 ADD SWAP3 POP POP POP PUSH1 0x20 PUSH1 0x40 MLOAD DUP1 DUP4 SUB DUP2 PUSH1 0x0 DUP8 DUP1 EXTCODESIZE ISZERO DUP1 ISZERO PUSH2 0xE3F JUMPI PUSH1 0x0 DUP1 REVERT JUMPDEST POP GAS CALL ISZERO DUP1 ISZERO PUSH2 0xE53 JUMPI RETURNDATASIZE PUSH1 0x0 DUP1 RETURNDATACOPY RETURNDATASIZE PUSH1 0x0 REVERT JUMPDEST POP POP POP POP PUSH1 0x40 MLOAD RETURNDATASIZE PUSH1 0x20 DUP2 LT ISZERO PUSH2 0xE69 JUMPI PUSH1 0x0 DUP1 REVERT JUMPDEST DUP2 ADD SWAP1 DUP1 DUP1 MLOAD SWAP1 PUSH1 0x20 ADD SWAP1 SWAP3 SWAP2 SWAP1 POP POP POP POP DUP8 PUSH32 0x15A71365FEE30A355046C80D10AAB98A49C3558B2272658D6C551733203E9BBE PUSH1 0x40 MLOAD PUSH1 0x40 MLOAD DUP1 SWAP2 SUB SWAP1 LOG2 PUSH1 0x1 SWAP6 POP POP POP POP POP POP SWAP3 SWAP2 POP POP JUMP JUMPDEST PUSH1 0x0 DUP2 PUSH2 0xEC3 DUP2 PUSH2 0x1448 JUMP JUMPDEST PUSH2 0xF35 JUMPI PUSH1 0x40 MLOAD PUSH32 0x8C379A000000000000000000000000000000000000000000000000000000000 DUP2 MSTORE PUSH1 0x4 ADD DUP1 DUP1 PUSH1 0x20 ADD DUP3 DUP2 SUB DUP3 MSTORE PUSH1 0x19 DUP2 MSTORE PUSH1 0x20 ADD DUP1 PUSH32 0x636F6E7472616374496420646F6573206E6F7420657869737400000000000000 DUP2 MSTORE POP PUSH1 0x20 ADD SWAP2 POP POP PUSH1 0x40 MLOAD DUP1 SWAP2 SUB SWAP1 REVERT JUMPDEST DUP3 CALLER PUSH20 0xFFFFFFFFFFFFFFFFFFFFFFFFFFFFFFFFFFFFFFFF AND PUSH1 0x0 DUP1 DUP4 DUP2 MSTORE PUSH1 0x20 ADD SWAP1 DUP2 MSTORE PUSH1 0x20 ADD PUSH1 0x0 KECCAK256 PUSH1 0x0 ADD PUSH1 0x0 SWAP1 SLOAD SWAP1 PUSH2 0x100 EXP SWAP1 DIV PUSH20 0xFFFFFFFFFFFFFFFFFFFFFFFFFFFFFFFFFFFFFFFF AND PUSH20 0xFFFFFFFFFFFFFFFFFFFFFFFFFFFFFFFFFFFFFFFF AND EQ PUSH2 0x100C JUMPI PUSH1 0x40 MLOAD PUSH32 0x8C379A000000000000000000000000000000000000000000000000000000000 DUP2 MSTORE PUSH1 0x4 ADD DUP1 DUP1 PUSH1 0x20 ADD DUP3 DUP2 SUB DUP3 MSTORE PUSH1 0x16 DUP2 MSTORE PUSH1 0x20 ADD DUP1 PUSH32 0x726566756E6461626C653A206E6F742073656E64657200000000000000000000 DUP2 MSTORE POP PUSH1 0x20 ADD SWAP2 POP POP PUSH1 0x40 MLOAD DUP1 SWAP2 SUB SWAP1 REVERT JUMPDEST PUSH1 0x0 ISZERO ISZERO PUSH1 0x0 DUP1 DUP4 DUP2 MSTORE PUSH1 0x20 ADD SWAP1 DUP2 MSTORE PUSH1 0x20 ADD PUSH1 0x0 KECCAK256 PUSH1 0x6 ADD PUSH1 0x1 SWAP1 SLOAD SWAP1 PUSH2 0x100 EXP SWAP1 DIV PUSH1 0xFF AND ISZERO ISZERO EQ PUSH2 0x10A8 JUMPI PUSH1 0x40 MLOAD PUSH32 0x8C379A000000000000000000000000000000000000000000000000000000000 DUP2 MSTORE PUSH1 0x4 ADD DUP1 DUP1 PUSH1 0x20 ADD DUP3 DUP2 SUB DUP3 MSTORE PUSH1 0x1C DUP2 MSTORE PUSH1 0x20 ADD DUP1 PUSH32 0x726566756E6461626C653A20616C726561647920726566756E64656400000000 DUP2 MSTORE POP PUSH1 0x20 ADD SWAP2 POP POP PUSH1 0x40 MLOAD DUP1 SWAP2 SUB SWAP1 REVERT JUMPDEST PUSH1 0x0 ISZERO ISZERO PUSH1 0x0 DUP1 DUP4 DUP2 MSTORE PUSH1 0x20 ADD SWAP1 DUP2 MSTORE PUSH1 0x20 ADD PUSH1 0x0 KECCAK256 PUSH1 0x6 ADD PUSH1 0x0 SWAP1 SLOAD SWAP1 PUSH2 0x100 EXP SWAP1 DIV PUSH1 0xFF AND ISZERO ISZERO EQ PUSH2 0x1144 JUMPI PUSH1 0x40 MLOAD PUSH32 0x8C379A000000000000000000000000000000000000000000000000000000000 DUP2 MSTORE PUSH1 0x4 ADD DUP1 DUP1 PUSH1 0x20 ADD DUP3 DUP2 SUB DUP3 MSTORE PUSH1 0x1D DUP2 MSTORE PUSH1 0x20 ADD DUP1 PUSH32 0x726566756E6461626C653A20616C72656164792077697468647261776E000000 DUP2 MSTORE POP PUSH1 0x20 ADD SWAP2 POP POP PUSH1 0x40 MLOAD DUP1 SWAP2 SUB SWAP1 REVERT JUMPDEST TIMESTAMP PUSH1 0x0 DUP1 DUP4 DUP2 MSTORE PUSH1 0x20 ADD SWAP1 DUP2 MSTORE PUSH1 0x20 ADD PUSH1 0x0 KECCAK256 PUSH1 0x5 ADD SLOAD GT ISZERO PUSH2 0x11B2 JUMPI PUSH1 0x40 MLOAD PUSH32 0x8C379A000000000000000000000000000000000000000000000000000000000 DUP2 MSTORE PUSH1 0x4 ADD DUP1 DUP1 PUSH1 0x20 ADD DUP3 DUP2 SUB DUP3 MSTORE PUSH1 0x23 DUP2 MSTORE PUSH1 0x20 ADD DUP1 PUSH2 0x14DA PUSH1 0x23 SWAP2 CODECOPY PUSH1 0x40 ADD SWAP2 POP POP PUSH1 0x40 MLOAD DUP1 SWAP2 SUB SWAP1 REVERT JUMPDEST PUSH1 0x0 DUP1 PUSH1 0x0 DUP7 DUP2 MSTORE PUSH1 0x20 ADD SWAP1 DUP2 MSTORE PUSH1 0x20 ADD PUSH1 0x0 KECCAK256 SWAP1 POP PUSH1 0x1 DUP2 PUSH1 0x6 ADD PUSH1 0x1 PUSH2 0x100 EXP DUP2 SLOAD DUP2 PUSH1 0xFF MUL NOT AND SWAP1 DUP4 ISZERO ISZERO MUL OR SWAP1 SSTORE POP DUP1 PUSH1 0x2 ADD PUSH1 0x0 SWAP1 SLOAD SWAP1 PUSH2 0x100 EXP SWAP1 DIV PUSH20 0xFFFFFFFFFFFFFFFFFFFFFFFFFFFFFFFFFFFFFFFF AND PUSH20 0xFFFFFFFFFFFFFFFFFFFFFFFFFFFFFFFFFFFFFFFF AND PUSH4 0xA9059CBB DUP3 PUSH1 0x0 ADD PUSH1 0x0 SWAP1 SLOAD SWAP1 PUSH2 0x100 EXP SWAP1 DIV PUSH20 0xFFFFFFFFFFFFFFFFFFFFFFFFFFFFFFFFFFFFFFFF AND DUP4 PUSH1 0x3 ADD SLOAD PUSH1 0x40 MLOAD DUP4 PUSH4 0xFFFFFFFF AND PUSH1 0xE0 SHL DUP2 MSTORE PUSH1 0x4 ADD DUP1 DUP4 PUSH20 0xFFFFFFFFFFFFFFFFFFFFFFFFFFFFFFFFFFFFFFFF AND DUP2 MSTORE PUSH1 0x20 ADD DUP3 DUP2 MSTORE PUSH1 0x20 ADD SWAP3 POP POP POP PUSH1 0x20 PUSH1 0x40 MLOAD DUP1 DUP4 SUB DUP2 PUSH1 0x0 DUP8 DUP1 EXTCODESIZE ISZERO DUP1 ISZERO PUSH2 0x12A2 JUMPI PUSH1 0x0 DUP1 REVERT JUMPDEST POP GAS CALL ISZERO DUP1 ISZERO PUSH2 0x12B6 JUMPI RETURNDATASIZE PUSH1 0x0 DUP1 RETURNDATACOPY RETURNDATASIZE PUSH1 0x0 REVERT JUMPDEST POP POP POP POP PUSH1 0x40 MLOAD RETURNDATASIZE PUSH1 0x20 DUP2 LT ISZERO PUSH2 0x12CC JUMPI PUSH1 0x0 DUP1 REVERT JUMPDEST DUP2 ADD SWAP1 DUP1 DUP1 MLOAD SWAP1 PUSH1 0x20 ADD SWAP1 SWAP3 SWAP2 SWAP1 POP POP POP POP DUP5 PUSH32 0xF97BB6718C3BF29E51D27C00A46276ABC2CF35C7F1D5A1C71BEC2C82421BB830 PUSH1 0x40 MLOAD PUSH1 0x40 MLOAD DUP1 SWAP2 SUB SWAP1 LOG2 PUSH1 0x1 SWAP4 POP POP POP POP SWAP2 SWAP1 POP JUMP JUMPDEST PUSH1 0x0 DUP1 PUSH1 0x0 DUP1 PUSH1 0x0 DUP1 PUSH1 0x0 DUP1 PUSH1 0x0 DUP1 ISZERO ISZERO PUSH2 0x1331 DUP12 PUSH2 0x1448 JUMP JUMPDEST ISZERO ISZERO EQ ISZERO PUSH2 0x136A JUMPI PUSH1 0x0 DUP1 PUSH1 0x0 DUP1 PUSH1 0x0 DUP1 PUSH1 0x0 DUP1 PUSH1 0x0 DUP5 PUSH1 0x0 SHL SWAP5 POP DUP1 PUSH1 0x0 SHL SWAP1 POP SWAP9 POP SWAP9 POP SWAP9 POP SWAP9 POP SWAP9 POP SWAP9 POP SWAP9 POP SWAP9 POP SWAP9 POP PUSH2 0x143B JUMP JUMPDEST PUSH1 0x0 DUP1 PUSH1 0x0 DUP13 DUP2 MSTORE PUSH1 0x20 ADD SWAP1 DUP2 MSTORE PUSH1 0x20 ADD PUSH1 0x0 KECCAK256 SWAP1 POP DUP1 PUSH1 0x0 ADD PUSH1 0x0 SWAP1 SLOAD SWAP1 PUSH2 0x100 EXP SWAP1 DIV PUSH20 0xFFFFFFFFFFFFFFFFFFFFFFFFFFFFFFFFFFFFFFFF AND DUP2 PUSH1 0x1 ADD PUSH1 0x0 SWAP1 SLOAD SWAP1 PUSH2 0x100 EXP SWAP1 DIV PUSH20 0xFFFFFFFFFFFFFFFFFFFFFFFFFFFFFFFFFFFFFFFF AND DUP3 PUSH1 0x2 ADD PUSH1 0x0 SWAP1 SLOAD SWAP1 PUSH2 0x100 EXP SWAP1 DIV PUSH20 0xFFFFFFFFFFFFFFFFFFFFFFFFFFFFFFFFFFFFFFFF AND DUP4 PUSH1 0x3 ADD SLOAD DUP5 PUSH1 0x4 ADD SLOAD DUP6 PUSH1 0x5 ADD SLOAD DUP7 PUSH1 0x6 ADD PUSH1 0x0 SWAP1 SLOAD SWAP1 PUSH2 0x100 EXP SWAP1 DIV PUSH1 0xFF AND DUP8 PUSH1 0x6 ADD PUSH1 0x1 SWAP1 SLOAD SWAP1 PUSH2 0x100 EXP SWAP1 DIV PUSH1 0xFF AND DUP9 PUSH1 0x7 ADD SLOAD SWAP10 POP SWAP10 POP SWAP10 POP SWAP10 POP SWAP10 POP SWAP10 POP SWAP10 POP SWAP10 POP SWAP10 POP POP JUMPDEST SWAP2 SWAP4 SWAP6 SWAP8 SWAP10 SWAP1 SWAP3 SWAP5 SWAP7 SWAP9 POP JUMP JUMPDEST PUSH1 0x0 DUP1 PUSH20 0xFFFFFFFFFFFFFFFFFFFFFFFFFFFFFFFFFFFFFFFF AND PUSH1 0x0 DUP1 DUP5 DUP2 MSTORE PUSH1 0x20 ADD SWAP1 DUP2 MSTORE PUSH1 0x20 ADD PUSH1 0x0 KECCAK256 PUSH1 0x0 ADD PUSH1 0x0 SWAP1 SLOAD SWAP1 PUSH2 0x100 EXP SWAP1 DIV PUSH20 0xFFFFFFFFFFFFFFFFFFFFFFFFFFFFFFFFFFFFFFFF AND PUSH20 0xFFFFFFFFFFFFFFFFFFFFFFFFFFFFFFFFFFFFFFFF AND EQ ISZERO SWAP1 POP SWAP2 SWAP1 POP JUMP INVALID PUSH21 0x696D656C6F636B2074696D65206D75737420626520 PUSH10 0x6E207468652066757475 PUSH19 0x65726566756E6461626C653A2074696D656C6F PUSH4 0x6B206E6F PUSH21 0x2079657420706173736564746F6B656E20616C6C6F PUSH24 0x616E6365206D757374206265203E3D20616D6F756E747472 PUSH2 0x6E73 PUSH7 0x657246726F6D20 PUSH20 0x656E64657220746F2074686973206661696C6564 LOG2 PUSH5 0x6970667358 0x22 SLT KECCAK256 0xF8 DUP4 SELFBALANCE 0xD6 CALLDATASIZE 0x4C 0xDD DUP5 SWAP13 JUMPI 0x4D PUSH2 0x6F21 SWAP4 PUSH7 0xD1AB96C208C2DA 0xE7 MSTORE8 MSIZE 0xC BYTE 0xAA CALLDATACOPY PUSH7 0xFD64736F6C6343 STOP SMOD MOD STOP CALLER "
				},
				"gasEstimates": {
					"creation": {
						"codeDepositCost": "1098600",
						"executionCost": "1140",
						"totalCost": "1099740"
					},
					"external": {
						"getContract(bytes32)": "9244",
						"newContract(address,bytes32,uint256,address,uint256)": "infinite",
						"refund(bytes32)": "infinite",
						"withdraw(bytes32,bytes32)": "infinite"
					},
					"internal": {
						"haveContract(bytes32)": "975"
					}
				},
				"methodIdentifiers": {
					"getContract(bytes32)": "e16c7d98",
					"newContract(address,bytes32,uint256,address,uint256)": "398a7a98",
					"refund(bytes32)": "7249fbb6",
					"withdraw(bytes32,bytes32)": "63615149"
				}
			},
			"storageLayout": {
				"storage": [
					{
						"astId": 218,
						"contract": "contracts/erc20htlc.sol:HashedTimelockERC20",
						"label": "contracts",
						"offset": 0,
						"slot": "0",
						"type": "t_mapping(t_bytes32,t_struct(LockContract)46_storage)"
					}
				],
				"types": {
					"t_address": {
						"encoding": "inplace",
						"label": "address",
						"numberOfBytes": "20"
					},
					"t_bool": {
						"encoding": "inplace",
						"label": "bool",
						"numberOfBytes": "1"
					},
					"t_bytes32": {
						"encoding": "inplace",
						"label": "bytes32",
						"numberOfBytes": "32"
					},
					"t_mapping(t_bytes32,t_struct(LockContract)46_storage)": {
						"encoding": "mapping",
						"key": "t_bytes32",
						"label": "mapping(bytes32 => struct HashedTimelockERC20.LockContract)",
						"numberOfBytes": "32",
						"value": "t_struct(LockContract)46_storage"
					},
					"t_struct(LockContract)46_storage": {
						"encoding": "inplace",
						"label": "struct HashedTimelockERC20.LockContract",
						"members": [
							{
								"astId": 29,
								"contract": "contracts/erc20htlc.sol:HashedTimelockERC20",
								"label": "sender",
								"offset": 0,
								"slot": "0",
								"type": "t_address"
							},
							{
								"astId": 31,
								"contract": "contracts/erc20htlc.sol:HashedTimelockERC20",
								"label": "receiver",
								"offset": 0,
								"slot": "1",
								"type": "t_address"
							},
							{
								"astId": 33,
								"contract": "contracts/erc20htlc.sol:HashedTimelockERC20",
								"label": "tokenContract",
								"offset": 0,
								"slot": "2",
								"type": "t_address"
							},
							{
								"astId": 35,
								"contract": "contracts/erc20htlc.sol:HashedTimelockERC20",
								"label": "amount",
								"offset": 0,
								"slot": "3",
								"type": "t_uint256"
							},
							{
								"astId": 37,
								"contract": "contracts/erc20htlc.sol:HashedTimelockERC20",
								"label": "hashlock",
								"offset": 0,
								"slot": "4",
								"type": "t_bytes32"
							},
							{
								"astId": 39,
								"contract": "contracts/erc20htlc.sol:HashedTimelockERC20",
								"label": "timelock",
								"offset": 0,
								"slot": "5",
								"type": "t_uint256"
							},
							{
								"astId": 41,
								"contract": "contracts/erc20htlc.sol:HashedTimelockERC20",
								"label": "withdrawn",
								"offset": 0,
								"slot": "6",
								"type": "t_bool"
							},
							{
								"astId": 43,
								"contract": "contracts/erc20htlc.sol:HashedTimelockERC20",
								"label": "refunded",
								"offset": 1,
								"slot": "6",
								"type": "t_bool"
							},
							{
								"astId": 45,
								"contract": "contracts/erc20htlc.sol:HashedTimelockERC20",
								"label": "preimage",
								"offset": 0,
								"slot": "7",
								"type": "t_bytes32"
							}
						],
						"numberOfBytes": "256"
					},
					"t_uint256": {
						"encoding": "inplace",
						"label": "uint256",
						"numberOfBytes": "32"
					}
				}
			},
			"userdoc": {
				"kind": "user",
				"methods": {},
				"version": 1
			}
		}
	}
}