{
	"contracts/erc20htlc3.sol": {
		"Peacio": {
			"abi": [
				{
					"inputs": [
						{
							"internalType": "address payable",
							"name": "_seller",
							"type": "address"
						}
					],
					"stateMutability": "nonpayable",
					"type": "constructor"
				},
				{
					"inputs": [
						{
							"internalType": "uint256",
							"name": "_value1",
							"type": "uint256"
						}
					],
					"name": "approveAndTransferUSDC",
					"outputs": [
						{
							"internalType": "bool",
							"name": "",
							"type": "bool"
						}
					],
					"stateMutability": "payable",
					"type": "function"
				},
				{
					"inputs": [
						{
							"internalType": "uint256",
							"name": "_value1",
							"type": "uint256"
						}
					],
					"name": "approveTransfer",
					"outputs": [
						{
							"internalType": "bool",
							"name": "",
							"type": "bool"
						},
						{
							"internalType": "bool",
							"name": "",
							"type": "bool"
						},
						{
							"internalType": "bool",
							"name": "",
							"type": "bool"
						},
						{
							"internalType": "bool",
							"name": "",
							"type": "bool"
						},
						{
							"internalType": "bool",
							"name": "",
							"type": "bool"
						}
					],
					"stateMutability": "nonpayable",
					"type": "function"
				},
				{
					"inputs": [],
					"name": "checkAllowance",
					"outputs": [
						{
							"internalType": "uint256",
							"name": "",
							"type": "uint256"
						},
						{
							"internalType": "uint256",
							"name": "",
							"type": "uint256"
						},
						{
							"internalType": "uint256",
							"name": "",
							"type": "uint256"
						},
						{
							"internalType": "uint256",
							"name": "",
							"type": "uint256"
						},
						{
							"internalType": "uint256",
							"name": "",
							"type": "uint256"
						}
					],
					"stateMutability": "view",
					"type": "function"
				},
				{
					"inputs": [],
					"name": "dispute",
					"outputs": [
						{
							"internalType": "bool",
							"name": "",
							"type": "bool"
						}
					],
					"stateMutability": "view",
					"type": "function"
				},
				{
					"inputs": [],
					"name": "disputeRelease",
					"outputs": [
						{
							"internalType": "uint256",
							"name": "",
							"type": "uint256"
						}
					],
					"stateMutability": "view",
					"type": "function"
				},
				{
					"inputs": [],
					"name": "getBalance",
					"outputs": [
						{
							"internalType": "uint256",
							"name": "",
							"type": "uint256"
						}
					],
					"stateMutability": "view",
					"type": "function"
				},
				{
					"inputs": [],
					"name": "getBuyerUsdcBalance",
					"outputs": [
						{
							"internalType": "uint256",
							"name": "",
							"type": "uint256"
						},
						{
							"internalType": "uint256",
							"name": "",
							"type": "uint256"
						},
						{
							"internalType": "uint256",
							"name": "",
							"type": "uint256"
						}
					],
					"stateMutability": "view",
					"type": "function"
				},
				{
					"inputs": [],
					"name": "getContractUsdcBalance",
					"outputs": [
						{
							"internalType": "uint256",
							"name": "",
							"type": "uint256"
						}
					],
					"stateMutability": "view",
					"type": "function"
				},
				{
					"inputs": [],
					"name": "getSenderBalance",
					"outputs": [
						{
							"internalType": "uint256",
							"name": "",
							"type": "uint256"
						}
					],
					"stateMutability": "view",
					"type": "function"
				},
				{
					"inputs": [
						{
							"internalType": "uint256",
							"name": "_value1",
							"type": "uint256"
						}
					],
					"name": "payContract",
					"outputs": [],
					"stateMutability": "nonpayable",
					"type": "function"
				},
				{
					"inputs": [],
					"name": "saleRelease",
					"outputs": [
						{
							"internalType": "uint256",
							"name": "",
							"type": "uint256"
						}
					],
					"stateMutability": "view",
					"type": "function"
				},
				{
					"stateMutability": "payable",
					"type": "receive"
				}
			],
			"devdoc": {
				"kind": "dev",
				"methods": {},
				"version": 1
			},
			"evm": {
				"assembly": "    /* \"contracts/erc20htlc3.sol\":186:3288  contract Peacio {\r... */\n  mstore(0x40, 0x80)\n    /* \"contracts/erc20htlc3.sol\":412:454  0x5425890298aed601595a70AB815c96711a31Bc65 */\n  0x5425890298aed601595a70ab815c96711a31bc65\n    /* \"contracts/erc20htlc3.sol\":384:454  address   usdcAddressAvax = 0x5425890298aed601595a70AB815c96711a31Bc65 */\n  0x05\n  exp(0x0100, 0x00)\n  dup2\n  sload\n  dup2\n  0xffffffffffffffffffffffffffffffffffffffff\n  mul\n  not\n  and\n  swap1\n  dup4\n  0xffffffffffffffffffffffffffffffffffffffff\n  and\n  mul\n  or\n  swap1\n  sstore\n  pop\n    /* \"contracts/erc20htlc3.sol\":509:551  0x0FA8781a83E46826621b3BC094Ea2A0212e71B23 */\n  0x0fa8781a83e46826621b3bc094ea2a0212e71b23\n    /* \"contracts/erc20htlc3.sol\":477:551  address   usdcAddressPolygon  = 0x0FA8781a83E46826621b3BC094Ea2A0212e71B23 */\n  0x06\n  exp(0x0100, 0x00)\n  dup2\n  sload\n  dup2\n  0xffffffffffffffffffffffffffffffffffffffff\n  mul\n  not\n  and\n  swap1\n  dup4\n  0xffffffffffffffffffffffffffffffffffffffff\n  and\n  mul\n  or\n  swap1\n  sstore\n  pop\n    /* \"contracts/erc20htlc3.sol\":602:644  0xfe4F5145f6e09952a5ba9e956ED0C25e3Fa4c7F1 */\n  0xfe4f5145f6e09952a5ba9e956ed0c25e3fa4c7f1\n    /* \"contracts/erc20htlc3.sol\":558:645  address payable usdcAddressDERC20 = payable(0xfe4F5145f6e09952a5ba9e956ED0C25e3Fa4c7F1) */\n  0x07\n  exp(0x0100, 0x00)\n  dup2\n  sload\n  dup2\n  0xffffffffffffffffffffffffffffffffffffffff\n  mul\n  not\n  and\n  swap1\n  dup4\n  0xffffffffffffffffffffffffffffffffffffffff\n  and\n  mul\n  or\n  swap1\n  sstore\n  pop\n    /* \"contracts/erc20htlc3.sol\":720:901  constructor(address payable _seller\r... */\n  callvalue\n  dup1\n  iszero\n  tag_1\n  jumpi\n  0x00\n  dup1\n  revert\ntag_1:\n  pop\n  mload(0x40)\n  sub(codesize, bytecodeSize)\n  dup1\n  bytecodeSize\n  dup4\n  codecopy\n  dup2\n  dup2\n  add\n  0x40\n  mstore\n  dup2\n  add\n  swap1\n  tag_2\n  swap2\n  swap1\n  tag_3\n  jump\t// in\ntag_2:\n    /* \"contracts/erc20htlc3.sol\":797:804  _seller */\n  dup1\n    /* \"contracts/erc20htlc3.sol\":788:794  seller */\n  0x04\n  0x00\n    /* \"contracts/erc20htlc3.sol\":788:804  seller = _seller */\n  0x0100\n  exp\n  dup2\n  sload\n  dup2\n  0xffffffffffffffffffffffffffffffffffffffff\n  mul\n  not\n  and\n  swap1\n  dup4\n  0xffffffffffffffffffffffffffffffffffffffff\n  and\n  mul\n  or\n  swap1\n  sstore\n  pop\n    /* \"contracts/erc20htlc3.sol\":831:841  msg.sender */\n  caller\n    /* \"contracts/erc20htlc3.sol\":815:820  buyer */\n  0x02\n  0x00\n    /* \"contracts/erc20htlc3.sol\":815:842  buyer = payable(msg.sender) */\n  0x0100\n  exp\n  dup2\n  sload\n  dup2\n  0xffffffffffffffffffffffffffffffffffffffff\n  mul\n  not\n  and\n  swap1\n  dup4\n  0xffffffffffffffffffffffffffffffffffffffff\n  and\n  mul\n  or\n  swap1\n  sstore\n  pop\n    /* \"contracts/erc20htlc3.sol\":870:888  usdcAddressPolygon */\n  0x06\n  0x00\n  swap1\n  sload\n  swap1\n  0x0100\n  exp\n  swap1\n  div\n  0xffffffffffffffffffffffffffffffffffffffff\n  and\n    /* \"contracts/erc20htlc3.sol\":856:867  usdcAddress */\n  0x08\n  0x00\n    /* \"contracts/erc20htlc3.sol\":856:888  usdcAddress = usdcAddressPolygon */\n  0x0100\n  exp\n  dup2\n  sload\n  dup2\n  0xffffffffffffffffffffffffffffffffffffffff\n  mul\n  not\n  and\n  swap1\n  dup4\n  0xffffffffffffffffffffffffffffffffffffffff\n  and\n  mul\n  or\n  swap1\n  sstore\n  pop\n    /* \"contracts/erc20htlc3.sol\":720:901  constructor(address payable _seller\r... */\n  pop\n    /* \"contracts/erc20htlc3.sol\":186:3288  contract Peacio {\r... */\n  jump(tag_6)\n    /* \"#utility.yul\":7:166   */\ntag_8:\n    /* \"#utility.yul\":72:77   */\n  0x00\n    /* \"#utility.yul\":103:109   */\n  dup2\n    /* \"#utility.yul\":97:110   */\n  mload\n    /* \"#utility.yul\":88:110   */\n  swap1\n  pop\n    /* \"#utility.yul\":119:160   */\n  tag_10\n    /* \"#utility.yul\":154:159   */\n  dup2\n    /* \"#utility.yul\":119:160   */\n  tag_11\n  jump\t// in\ntag_10:\n    /* \"#utility.yul\":7:166   */\n  swap3\n  swap2\n  pop\n  pop\n  jump\t// out\n    /* \"#utility.yul\":172:539   */\ntag_3:\n    /* \"#utility.yul\":250:256   */\n  0x00\n    /* \"#utility.yul\":299:301   */\n  0x20\n    /* \"#utility.yul\":287:296   */\n  dup3\n    /* \"#utility.yul\":278:285   */\n  dup5\n    /* \"#utility.yul\":274:297   */\n  sub\n    /* \"#utility.yul\":270:302   */\n  slt\n    /* \"#utility.yul\":267:386   */\n  iszero\n  tag_13\n  jumpi\n    /* \"#utility.yul\":305:384   */\n  tag_14\n  tag_15\n  jump\t// in\ntag_14:\n    /* \"#utility.yul\":267:386   */\ntag_13:\n    /* \"#utility.yul\":425:426   */\n  0x00\n    /* \"#utility.yul\":450:522   */\n  tag_16\n    /* \"#utility.yul\":514:521   */\n  dup5\n    /* \"#utility.yul\":505:511   */\n  dup3\n    /* \"#utility.yul\":494:503   */\n  dup6\n    /* \"#utility.yul\":490:512   */\n  add\n    /* \"#utility.yul\":450:522   */\n  tag_8\n  jump\t// in\ntag_16:\n    /* \"#utility.yul\":440:522   */\n  swap2\n  pop\n    /* \"#utility.yul\":396:532   */\n  pop\n    /* \"#utility.yul\":172:539   */\n  swap3\n  swap2\n  pop\n  pop\n  jump\t// out\n    /* \"#utility.yul\":626:730   */\ntag_19:\n    /* \"#utility.yul\":671:678   */\n  0x00\n    /* \"#utility.yul\":700:724   */\n  tag_21\n    /* \"#utility.yul\":718:723   */\n  dup3\n    /* \"#utility.yul\":700:724   */\n  tag_22\n  jump\t// in\ntag_21:\n    /* \"#utility.yul\":689:724   */\n  swap1\n  pop\n    /* \"#utility.yul\":626:730   */\n  swap2\n  swap1\n  pop\n  jump\t// out\n    /* \"#utility.yul\":736:862   */\ntag_22:\n    /* \"#utility.yul\":773:780   */\n  0x00\n    /* \"#utility.yul\":813:855   */\n  0xffffffffffffffffffffffffffffffffffffffff\n    /* \"#utility.yul\":806:811   */\n  dup3\n    /* \"#utility.yul\":802:856   */\n  and\n    /* \"#utility.yul\":791:856   */\n  swap1\n  pop\n    /* \"#utility.yul\":736:862   */\n  swap2\n  swap1\n  pop\n  jump\t// out\n    /* \"#utility.yul\":991:1108   */\ntag_15:\n    /* \"#utility.yul\":1100:1101   */\n  0x00\n    /* \"#utility.yul\":1097:1098   */\n  dup1\n    /* \"#utility.yul\":1090:1102   */\n  revert\n    /* \"#utility.yul\":1114:1252   */\ntag_11:\n    /* \"#utility.yul\":1195:1227   */\n  tag_28\n    /* \"#utility.yul\":1221:1226   */\n  dup2\n    /* \"#utility.yul\":1195:1227   */\n  tag_19\n  jump\t// in\ntag_28:\n    /* \"#utility.yul\":1188:1193   */\n  dup2\n    /* \"#utility.yul\":1185:1228   */\n  eq\n    /* \"#utility.yul\":1175:1246   */\n  tag_29\n  jumpi\n    /* \"#utility.yul\":1242:1243   */\n  0x00\n    /* \"#utility.yul\":1239:1240   */\n  dup1\n    /* \"#utility.yul\":1232:1244   */\n  revert\n    /* \"#utility.yul\":1175:1246   */\ntag_29:\n    /* \"#utility.yul\":1114:1252   */\n  pop\n  jump\t// out\n    /* \"contracts/erc20htlc3.sol\":186:3288  contract Peacio {\r... */\ntag_6:\n  dataSize(sub_0)\n  dup1\n  dataOffset(sub_0)\n  0x00\n  codecopy\n  0x00\n  return\nstop\n\nsub_0: assembly {\n        /* \"contracts/erc20htlc3.sol\":186:3288  contract Peacio {\r... */\n      mstore(0x40, 0x80)\n      jumpi(tag_1, lt(calldatasize, 0x04))\n      shr(0xe0, calldataload(0x00))\n      dup1\n      0xa5c41649\n      gt\n      tag_14\n      jumpi\n      dup1\n      0xa5c41649\n      eq\n      tag_8\n      jumpi\n      dup1\n      0xc31d8a82\n      eq\n      tag_9\n      jumpi\n      dup1\n      0xcacca4a0\n      eq\n      tag_10\n      jumpi\n      dup1\n      0xdb3999cd\n      eq\n      tag_11\n      jumpi\n      dup1\n      0xf240f7c3\n      eq\n      tag_12\n      jumpi\n      dup1\n      0xff18253b\n      eq\n      tag_13\n      jumpi\n      jump(tag_2)\n    tag_14:\n      dup1\n      0x12065fe0\n      eq\n      tag_3\n      jumpi\n      dup1\n      0x1ba32439\n      eq\n      tag_4\n      jumpi\n      dup1\n      0x44b2dc85\n      eq\n      tag_5\n      jumpi\n      dup1\n      0x9405de64\n      eq\n      tag_6\n      jumpi\n      dup1\n      0xa1c53047\n      eq\n      tag_7\n      jumpi\n      jump(tag_2)\n    tag_1:\n      jumpi(tag_2, calldatasize)\n      stop\n    tag_2:\n      0x00\n      dup1\n      revert\n        /* \"contracts/erc20htlc3.sol\":3160:3259  function getBalance() public view returns (uint256) {\r... */\n    tag_3:\n      callvalue\n      dup1\n      iszero\n      tag_17\n      jumpi\n      0x00\n      dup1\n      revert\n    tag_17:\n      pop\n      tag_18\n      tag_19\n      jump\t// in\n    tag_18:\n      mload(0x40)\n      tag_20\n      swap2\n      swap1\n      tag_21\n      jump\t// in\n    tag_20:\n      mload(0x40)\n      dup1\n      swap2\n      sub\n      swap1\n      return\n        /* \"contracts/erc20htlc3.sol\":2374:2770  function getBuyerUsdcBalance() public view returns (uint256, uint256, uint256) {\r... */\n    tag_4:\n      callvalue\n      dup1\n      iszero\n      tag_22\n      jumpi\n      0x00\n      dup1\n      revert\n    tag_22:\n      pop\n      tag_23\n      tag_24\n      jump\t// in\n    tag_23:\n      mload(0x40)\n      tag_25\n      swap4\n      swap3\n      swap2\n      swap1\n      tag_26\n      jump\t// in\n    tag_25:\n      mload(0x40)\n      dup1\n      swap2\n      sub\n      swap1\n      return\n        /* \"contracts/erc20htlc3.sol\":2777:3040  function getContractUsdcBalance() public view returns (uint256) {\r... */\n    tag_5:\n      callvalue\n      dup1\n      iszero\n      tag_27\n      jumpi\n      0x00\n      dup1\n      revert\n    tag_27:\n      pop\n      tag_28\n      tag_29\n      jump\t// in\n    tag_28:\n      mload(0x40)\n      tag_30\n      swap2\n      swap1\n      tag_21\n      jump\t// in\n    tag_30:\n      mload(0x40)\n      dup1\n      swap2\n      sub\n      swap1\n      return\n        /* \"contracts/erc20htlc3.sol\":1587:2132  function checkAllowance() public view returns (uint256, uint256, uint256, uint256, uint256) {\r... */\n    tag_6:\n      callvalue\n      dup1\n      iszero\n      tag_31\n      jumpi\n      0x00\n      dup1\n      revert\n    tag_31:\n      pop\n      tag_32\n      tag_33\n      jump\t// in\n    tag_32:\n      mload(0x40)\n      tag_34\n      swap6\n      swap5\n      swap4\n      swap3\n      swap2\n      swap1\n      tag_35\n      jump\t// in\n    tag_34:\n      mload(0x40)\n      dup1\n      swap2\n      sub\n      swap1\n      return\n        /* \"contracts/erc20htlc3.sol\":212:235  uint public saleRelease */\n    tag_7:\n      callvalue\n      dup1\n      iszero\n      tag_36\n      jumpi\n      0x00\n      dup1\n      revert\n    tag_36:\n      pop\n      tag_37\n      tag_38\n      jump\t// in\n    tag_37:\n      mload(0x40)\n      tag_39\n      swap2\n      swap1\n      tag_21\n      jump\t// in\n    tag_39:\n      mload(0x40)\n      dup1\n      swap2\n      sub\n      swap1\n      return\n        /* \"contracts/erc20htlc3.sol\":242:268  uint public disputeRelease */\n    tag_8:\n      callvalue\n      dup1\n      iszero\n      tag_40\n      jumpi\n      0x00\n      dup1\n      revert\n    tag_40:\n      pop\n      tag_41\n      tag_42\n      jump\t// in\n    tag_41:\n      mload(0x40)\n      tag_43\n      swap2\n      swap1\n      tag_21\n      jump\t// in\n    tag_43:\n      mload(0x40)\n      dup1\n      swap2\n      sub\n      swap1\n      return\n        /* \"contracts/erc20htlc3.sol\":1426:1579  function payContract(uint256 _value1) \r... */\n    tag_9:\n      callvalue\n      dup1\n      iszero\n      tag_44\n      jumpi\n      0x00\n      dup1\n      revert\n    tag_44:\n      pop\n      tag_45\n      0x04\n      dup1\n      calldatasize\n      sub\n      dup2\n      add\n      swap1\n      tag_46\n      swap2\n      swap1\n      tag_47\n      jump\t// in\n    tag_46:\n      tag_48\n      jump\t// in\n    tag_45:\n      stop\n        /* \"contracts/erc20htlc3.sol\":911:1421  function approveTransfer(uint256 _value1) \r... */\n    tag_10:\n      callvalue\n      dup1\n      iszero\n      tag_49\n      jumpi\n      0x00\n      dup1\n      revert\n    tag_49:\n      pop\n      tag_50\n      0x04\n      dup1\n      calldatasize\n      sub\n      dup2\n      add\n      swap1\n      tag_51\n      swap2\n      swap1\n      tag_47\n      jump\t// in\n    tag_51:\n      tag_52\n      jump\t// in\n    tag_50:\n      mload(0x40)\n      tag_53\n      swap6\n      swap5\n      swap4\n      swap3\n      swap2\n      swap1\n      tag_54\n      jump\t// in\n    tag_53:\n      mload(0x40)\n      dup1\n      swap2\n      sub\n      swap1\n      return\n        /* \"contracts/erc20htlc3.sol\":2140:2358  function approveAndTransferUSDC(uint256 _value1) \r... */\n    tag_11:\n      tag_55\n      0x04\n      dup1\n      calldatasize\n      sub\n      dup2\n      add\n      swap1\n      tag_56\n      swap2\n      swap1\n      tag_47\n      jump\t// in\n    tag_56:\n      tag_57\n      jump\t// in\n    tag_55:\n      mload(0x40)\n      tag_58\n      swap2\n      swap1\n      tag_59\n      jump\t// in\n    tag_58:\n      mload(0x40)\n      dup1\n      swap2\n      sub\n      swap1\n      return\n        /* \"contracts/erc20htlc3.sol\":355:374  bool public dispute */\n    tag_12:\n      callvalue\n      dup1\n      iszero\n      tag_60\n      jumpi\n      0x00\n      dup1\n      revert\n    tag_60:\n      pop\n      tag_61\n      tag_62\n      jump\t// in\n    tag_61:\n      mload(0x40)\n      tag_63\n      swap2\n      swap1\n      tag_59\n      jump\t// in\n    tag_63:\n      mload(0x40)\n      dup1\n      swap2\n      sub\n      swap1\n      return\n        /* \"contracts/erc20htlc3.sol\":3050:3152  function getSenderBalance() public view returns (uint256) {\r... */\n    tag_13:\n      callvalue\n      dup1\n      iszero\n      tag_64\n      jumpi\n      0x00\n      dup1\n      revert\n    tag_64:\n      pop\n      tag_65\n      tag_66\n      jump\t// in\n    tag_65:\n      mload(0x40)\n      tag_67\n      swap2\n      swap1\n      tag_21\n      jump\t// in\n    tag_67:\n      mload(0x40)\n      dup1\n      swap2\n      sub\n      swap1\n      return\n        /* \"contracts/erc20htlc3.sol\":3160:3259  function getBalance() public view returns (uint256) {\r... */\n    tag_19:\n        /* \"contracts/erc20htlc3.sol\":3203:3210  uint256 */\n      0x00\n        /* \"contracts/erc20htlc3.sol\":3230:3251  address(this).balance */\n      selfbalance\n        /* \"contracts/erc20htlc3.sol\":3223:3251  return address(this).balance */\n      swap1\n      pop\n        /* \"contracts/erc20htlc3.sol\":3160:3259  function getBalance() public view returns (uint256) {\r... */\n      swap1\n      jump\t// out\n        /* \"contracts/erc20htlc3.sol\":2374:2770  function getBuyerUsdcBalance() public view returns (uint256, uint256, uint256) {\r... */\n    tag_24:\n        /* \"contracts/erc20htlc3.sol\":2426:2433  uint256 */\n      0x00\n        /* \"contracts/erc20htlc3.sol\":2435:2442  uint256 */\n      dup1\n        /* \"contracts/erc20htlc3.sol\":2444:2451  uint256 */\n      0x00\n        /* \"contracts/erc20htlc3.sol\":2485:2490  buyer */\n      0x02\n      0x00\n      swap1\n      sload\n      swap1\n      0x0100\n      exp\n      swap1\n      div\n      0xffffffffffffffffffffffffffffffffffffffff\n      and\n        /* \"contracts/erc20htlc3.sol\":2472:2490  tx.origin == buyer */\n      0xffffffffffffffffffffffffffffffffffffffff\n      and\n        /* \"contracts/erc20htlc3.sol\":2472:2481  tx.origin */\n      origin\n        /* \"contracts/erc20htlc3.sol\":2472:2490  tx.origin == buyer */\n      0xffffffffffffffffffffffffffffffffffffffff\n      and\n      eq\n        /* \"contracts/erc20htlc3.sol\":2464:2491  require(tx.origin == buyer) */\n      tag_70\n      jumpi\n      0x00\n      dup1\n      revert\n    tag_70:\n        /* \"contracts/erc20htlc3.sol\":2502:2516  uint256 amount */\n      0x00\n        /* \"contracts/erc20htlc3.sol\":2526:2537  usdcAddress */\n      0x08\n      0x00\n      swap1\n      sload\n      swap1\n      0x0100\n      exp\n      swap1\n      div\n      0xffffffffffffffffffffffffffffffffffffffff\n      and\n        /* \"contracts/erc20htlc3.sol\":2519:2548  IERC20(usdcAddress).balanceOf */\n      0xffffffffffffffffffffffffffffffffffffffff\n      and\n      0x70a08231\n        /* \"contracts/erc20htlc3.sol\":2549:2554  buyer */\n      0x02\n      0x00\n      swap1\n      sload\n      swap1\n      0x0100\n      exp\n      swap1\n      div\n      0xffffffffffffffffffffffffffffffffffffffff\n      and\n        /* \"contracts/erc20htlc3.sol\":2519:2555  IERC20(usdcAddress).balanceOf(buyer) */\n      mload(0x40)\n      dup3\n      0xffffffff\n      and\n      0xe0\n      shl\n      dup2\n      mstore\n      0x04\n      add\n      tag_71\n      swap2\n      swap1\n      tag_72\n      jump\t// in\n    tag_71:\n      0x20\n      mload(0x40)\n      dup1\n      dup4\n      sub\n      dup2\n      dup7\n      dup1\n      extcodesize\n      iszero\n      dup1\n      iszero\n      tag_73\n      jumpi\n      0x00\n      dup1\n      revert\n    tag_73:\n      pop\n      gas\n      staticcall\n      iszero\n      dup1\n      iszero\n      tag_75\n      jumpi\n      returndatasize\n      0x00\n      dup1\n      returndatacopy\n      revert(0x00, returndatasize)\n    tag_75:\n      pop\n      pop\n      pop\n      pop\n      mload(0x40)\n      returndatasize\n      not(0x1f)\n      0x1f\n      dup3\n      add\n      and\n      dup3\n      add\n      dup1\n      0x40\n      mstore\n      pop\n      dup2\n      add\n      swap1\n      tag_76\n      swap2\n      swap1\n      tag_77\n      jump\t// in\n    tag_76:\n        /* \"contracts/erc20htlc3.sol\":2502:2555  uint256 amount = IERC20(usdcAddress).balanceOf(buyer) */\n      swap1\n      pop\n        /* \"contracts/erc20htlc3.sol\":2574:2589  uint256 amount1 */\n      0x00\n        /* \"contracts/erc20htlc3.sol\":2599:2610  usdcAddress */\n      0x08\n      0x00\n      swap1\n      sload\n      swap1\n      0x0100\n      exp\n      swap1\n      div\n      0xffffffffffffffffffffffffffffffffffffffff\n      and\n        /* \"contracts/erc20htlc3.sol\":2592:2621  IERC20(usdcAddress).balanceOf */\n      0xffffffffffffffffffffffffffffffffffffffff\n      and\n      0x70a08231\n        /* \"contracts/erc20htlc3.sol\":2622:2628  seller */\n      0x04\n      0x00\n      swap1\n      sload\n      swap1\n      0x0100\n      exp\n      swap1\n      div\n      0xffffffffffffffffffffffffffffffffffffffff\n      and\n        /* \"contracts/erc20htlc3.sol\":2592:2629  IERC20(usdcAddress).balanceOf(seller) */\n      mload(0x40)\n      dup3\n      0xffffffff\n      and\n      0xe0\n      shl\n      dup2\n      mstore\n      0x04\n      add\n      tag_78\n      swap2\n      swap1\n      tag_72\n      jump\t// in\n    tag_78:\n      0x20\n      mload(0x40)\n      dup1\n      dup4\n      sub\n      dup2\n      dup7\n      dup1\n      extcodesize\n      iszero\n      dup1\n      iszero\n      tag_79\n      jumpi\n      0x00\n      dup1\n      revert\n    tag_79:\n      pop\n      gas\n      staticcall\n      iszero\n      dup1\n      iszero\n      tag_81\n      jumpi\n      returndatasize\n      0x00\n      dup1\n      returndatacopy\n      revert(0x00, returndatasize)\n    tag_81:\n      pop\n      pop\n      pop\n      pop\n      mload(0x40)\n      returndatasize\n      not(0x1f)\n      0x1f\n      dup3\n      add\n      and\n      dup3\n      add\n      dup1\n      0x40\n      mstore\n      pop\n      dup2\n      add\n      swap1\n      tag_82\n      swap2\n      swap1\n      tag_77\n      jump\t// in\n    tag_82:\n        /* \"contracts/erc20htlc3.sol\":2574:2629  uint256 amount1 = IERC20(usdcAddress).balanceOf(seller) */\n      swap1\n      pop\n        /* \"contracts/erc20htlc3.sol\":2648:2663  uint256 amount2 */\n      0x00\n        /* \"contracts/erc20htlc3.sol\":2673:2684  usdcAddress */\n      0x08\n      0x00\n      swap1\n      sload\n      swap1\n      0x0100\n      exp\n      swap1\n      div\n      0xffffffffffffffffffffffffffffffffffffffff\n      and\n        /* \"contracts/erc20htlc3.sol\":2666:2695  IERC20(usdcAddress).balanceOf */\n      0xffffffffffffffffffffffffffffffffffffffff\n      and\n      0x70a08231\n        /* \"contracts/erc20htlc3.sol\":2696:2706  msg.sender */\n      caller\n        /* \"contracts/erc20htlc3.sol\":2666:2707  IERC20(usdcAddress).balanceOf(msg.sender) */\n      mload(0x40)\n      dup3\n      0xffffffff\n      and\n      0xe0\n      shl\n      dup2\n      mstore\n      0x04\n      add\n      tag_83\n      swap2\n      swap1\n      tag_84\n      jump\t// in\n    tag_83:\n      0x20\n      mload(0x40)\n      dup1\n      dup4\n      sub\n      dup2\n      dup7\n      dup1\n      extcodesize\n      iszero\n      dup1\n      iszero\n      tag_85\n      jumpi\n      0x00\n      dup1\n      revert\n    tag_85:\n      pop\n      gas\n      staticcall\n      iszero\n      dup1\n      iszero\n      tag_87\n      jumpi\n      returndatasize\n      0x00\n      dup1\n      returndatacopy\n      revert(0x00, returndatasize)\n    tag_87:\n      pop\n      pop\n      pop\n      pop\n      mload(0x40)\n      returndatasize\n      not(0x1f)\n      0x1f\n      dup3\n      add\n      and\n      dup3\n      add\n      dup1\n      0x40\n      mstore\n      pop\n      dup2\n      add\n      swap1\n      tag_88\n      swap2\n      swap1\n      tag_77\n      jump\t// in\n    tag_88:\n        /* \"contracts/erc20htlc3.sol\":2648:2707  uint256 amount2 = IERC20(usdcAddress).balanceOf(msg.sender) */\n      swap1\n      pop\n        /* \"contracts/erc20htlc3.sol\":2726:2732  amount */\n      dup3\n        /* \"contracts/erc20htlc3.sol\":2734:2741  amount1 */\n      dup3\n        /* \"contracts/erc20htlc3.sol\":2743:2750  amount2 */\n      dup3\n        /* \"contracts/erc20htlc3.sol\":2718:2751  return (amount, amount1, amount2) */\n      swap6\n      pop\n      swap6\n      pop\n      swap6\n      pop\n      pop\n      pop\n      pop\n        /* \"contracts/erc20htlc3.sol\":2374:2770  function getBuyerUsdcBalance() public view returns (uint256, uint256, uint256) {\r... */\n      swap1\n      swap2\n      swap3\n      jump\t// out\n        /* \"contracts/erc20htlc3.sol\":2777:3040  function getContractUsdcBalance() public view returns (uint256) {\r... */\n    tag_29:\n        /* \"contracts/erc20htlc3.sol\":2832:2839  uint256 */\n      0x00\n        /* \"contracts/erc20htlc3.sol\":2873:2879  notary */\n      0x03\n      0x00\n      swap1\n      sload\n      swap1\n      0x0100\n      exp\n      swap1\n      div\n      0xffffffffffffffffffffffffffffffffffffffff\n      and\n        /* \"contracts/erc20htlc3.sol\":2860:2879  tx.origin == notary */\n      0xffffffffffffffffffffffffffffffffffffffff\n      and\n        /* \"contracts/erc20htlc3.sol\":2860:2869  tx.origin */\n      origin\n        /* \"contracts/erc20htlc3.sol\":2860:2879  tx.origin == notary */\n      0xffffffffffffffffffffffffffffffffffffffff\n      and\n      eq\n        /* \"contracts/erc20htlc3.sol\":2860:2902  tx.origin == notary || tx.origin == seller */\n      dup1\n      tag_90\n      jumpi\n      pop\n        /* \"contracts/erc20htlc3.sol\":2896:2902  seller */\n      0x04\n      0x00\n      swap1\n      sload\n      swap1\n      0x0100\n      exp\n      swap1\n      div\n      0xffffffffffffffffffffffffffffffffffffffff\n      and\n        /* \"contracts/erc20htlc3.sol\":2883:2902  tx.origin == seller */\n      0xffffffffffffffffffffffffffffffffffffffff\n      and\n        /* \"contracts/erc20htlc3.sol\":2883:2892  tx.origin */\n      origin\n        /* \"contracts/erc20htlc3.sol\":2883:2902  tx.origin == seller */\n      0xffffffffffffffffffffffffffffffffffffffff\n      and\n      eq\n        /* \"contracts/erc20htlc3.sol\":2860:2902  tx.origin == notary || tx.origin == seller */\n    tag_90:\n        /* \"contracts/erc20htlc3.sol\":2860:2924  tx.origin == notary || tx.origin == seller || tx.origin == buyer */\n      dup1\n      tag_91\n      jumpi\n      pop\n        /* \"contracts/erc20htlc3.sol\":2919:2924  buyer */\n      0x02\n      0x00\n      swap1\n      sload\n      swap1\n      0x0100\n      exp\n      swap1\n      div\n      0xffffffffffffffffffffffffffffffffffffffff\n      and\n        /* \"contracts/erc20htlc3.sol\":2906:2924  tx.origin == buyer */\n      0xffffffffffffffffffffffffffffffffffffffff\n      and\n        /* \"contracts/erc20htlc3.sol\":2906:2915  tx.origin */\n      origin\n        /* \"contracts/erc20htlc3.sol\":2906:2924  tx.origin == buyer */\n      0xffffffffffffffffffffffffffffffffffffffff\n      and\n      eq\n        /* \"contracts/erc20htlc3.sol\":2860:2924  tx.origin == notary || tx.origin == seller || tx.origin == buyer */\n    tag_91:\n        /* \"contracts/erc20htlc3.sol\":2852:2925  require(tx.origin == notary || tx.origin == seller || tx.origin == buyer) */\n      tag_92\n      jumpi\n      0x00\n      dup1\n      revert\n    tag_92:\n        /* \"contracts/erc20htlc3.sol\":2936:2950  uint256 amount */\n      0x00\n        /* \"contracts/erc20htlc3.sol\":2960:2971  usdcAddress */\n      0x08\n      0x00\n      swap1\n      sload\n      swap1\n      0x0100\n      exp\n      swap1\n      div\n      0xffffffffffffffffffffffffffffffffffffffff\n      and\n        /* \"contracts/erc20htlc3.sol\":2953:2982  IERC20(usdcAddress).balanceOf */\n      0xffffffffffffffffffffffffffffffffffffffff\n      and\n      0x70a08231\n        /* \"contracts/erc20htlc3.sol\":2991:2995  this */\n      address\n        /* \"contracts/erc20htlc3.sol\":2953:2997  IERC20(usdcAddress).balanceOf(address(this)) */\n      mload(0x40)\n      dup3\n      0xffffffff\n      and\n      0xe0\n      shl\n      dup2\n      mstore\n      0x04\n      add\n      tag_93\n      swap2\n      swap1\n      tag_84\n      jump\t// in\n    tag_93:\n      0x20\n      mload(0x40)\n      dup1\n      dup4\n      sub\n      dup2\n      dup7\n      dup1\n      extcodesize\n      iszero\n      dup1\n      iszero\n      tag_94\n      jumpi\n      0x00\n      dup1\n      revert\n    tag_94:\n      pop\n      gas\n      staticcall\n      iszero\n      dup1\n      iszero\n      tag_96\n      jumpi\n      returndatasize\n      0x00\n      dup1\n      returndatacopy\n      revert(0x00, returndatasize)\n    tag_96:\n      pop\n      pop\n      pop\n      pop\n      mload(0x40)\n      returndatasize\n      not(0x1f)\n      0x1f\n      dup3\n      add\n      and\n      dup3\n      add\n      dup1\n      0x40\n      mstore\n      pop\n      dup2\n      add\n      swap1\n      tag_97\n      swap2\n      swap1\n      tag_77\n      jump\t// in\n    tag_97:\n        /* \"contracts/erc20htlc3.sol\":2936:2997  uint256 amount = IERC20(usdcAddress).balanceOf(address(this)) */\n      swap1\n      pop\n        /* \"contracts/erc20htlc3.sol\":3015:3021  amount */\n      dup1\n        /* \"contracts/erc20htlc3.sol\":3008:3021  return amount */\n      swap2\n      pop\n      pop\n        /* \"contracts/erc20htlc3.sol\":2777:3040  function getContractUsdcBalance() public view returns (uint256) {\r... */\n      swap1\n      jump\t// out\n        /* \"contracts/erc20htlc3.sol\":1587:2132  function checkAllowance() public view returns (uint256, uint256, uint256, uint256, uint256) {\r... */\n    tag_33:\n        /* \"contracts/erc20htlc3.sol\":1634:1641  uint256 */\n      0x00\n        /* \"contracts/erc20htlc3.sol\":1643:1650  uint256 */\n      dup1\n        /* \"contracts/erc20htlc3.sol\":1652:1659  uint256 */\n      0x00\n        /* \"contracts/erc20htlc3.sol\":1661:1668  uint256 */\n      dup1\n        /* \"contracts/erc20htlc3.sol\":1670:1677  uint256 */\n      0x00\n        /* \"contracts/erc20htlc3.sol\":1690:1700  uint256 b1 */\n      dup1\n        /* \"contracts/erc20htlc3.sol\":1709:1720  usdcAddress */\n      0x08\n      0x00\n      swap1\n      sload\n      swap1\n      0x0100\n      exp\n      swap1\n      div\n      0xffffffffffffffffffffffffffffffffffffffff\n      and\n        /* \"contracts/erc20htlc3.sol\":1702:1731  IERC20(usdcAddress).allowance */\n      0xffffffffffffffffffffffffffffffffffffffff\n      and\n      0xdd62ed3e\n        /* \"contracts/erc20htlc3.sol\":1732:1742  msg.sender */\n      caller\n        /* \"contracts/erc20htlc3.sol\":1744:1755  usdcAddress */\n      0x08\n      0x00\n      swap1\n      sload\n      swap1\n      0x0100\n      exp\n      swap1\n      div\n      0xffffffffffffffffffffffffffffffffffffffff\n      and\n        /* \"contracts/erc20htlc3.sol\":1702:1756  IERC20(usdcAddress).allowance(msg.sender, usdcAddress) */\n      mload(0x40)\n      dup4\n      0xffffffff\n      and\n      0xe0\n      shl\n      dup2\n      mstore\n      0x04\n      add\n      tag_99\n      swap3\n      swap2\n      swap1\n      tag_100\n      jump\t// in\n    tag_99:\n      0x20\n      mload(0x40)\n      dup1\n      dup4\n      sub\n      dup2\n      dup7\n      dup1\n      extcodesize\n      iszero\n      dup1\n      iszero\n      tag_101\n      jumpi\n      0x00\n      dup1\n      revert\n    tag_101:\n      pop\n      gas\n      staticcall\n      iszero\n      dup1\n      iszero\n      tag_103\n      jumpi\n      returndatasize\n      0x00\n      dup1\n      returndatacopy\n      revert(0x00, returndatasize)\n    tag_103:\n      pop\n      pop\n      pop\n      pop\n      mload(0x40)\n      returndatasize\n      not(0x1f)\n      0x1f\n      dup3\n      add\n      and\n      dup3\n      add\n      dup1\n      0x40\n      mstore\n      pop\n      dup2\n      add\n      swap1\n      tag_104\n      swap2\n      swap1\n      tag_77\n      jump\t// in\n    tag_104:\n        /* \"contracts/erc20htlc3.sol\":1690:1756  uint256 b1= IERC20(usdcAddress).allowance(msg.sender, usdcAddress) */\n      swap1\n      pop\n        /* \"contracts/erc20htlc3.sol\":1769:1779  uint256 b2 */\n      0x00\n        /* \"contracts/erc20htlc3.sol\":1788:1799  usdcAddress */\n      0x08\n      0x00\n      swap1\n      sload\n      swap1\n      0x0100\n      exp\n      swap1\n      div\n      0xffffffffffffffffffffffffffffffffffffffff\n      and\n        /* \"contracts/erc20htlc3.sol\":1781:1810  IERC20(usdcAddress).allowance */\n      0xffffffffffffffffffffffffffffffffffffffff\n      and\n      0xdd62ed3e\n        /* \"contracts/erc20htlc3.sol\":1811:1816  buyer */\n      0x02\n      0x00\n      swap1\n      sload\n      swap1\n      0x0100\n      exp\n      swap1\n      div\n      0xffffffffffffffffffffffffffffffffffffffff\n      and\n        /* \"contracts/erc20htlc3.sol\":1818:1829  usdcAddress */\n      0x08\n      0x00\n      swap1\n      sload\n      swap1\n      0x0100\n      exp\n      swap1\n      div\n      0xffffffffffffffffffffffffffffffffffffffff\n      and\n        /* \"contracts/erc20htlc3.sol\":1781:1830  IERC20(usdcAddress).allowance(buyer, usdcAddress) */\n      mload(0x40)\n      dup4\n      0xffffffff\n      and\n      0xe0\n      shl\n      dup2\n      mstore\n      0x04\n      add\n      tag_105\n      swap3\n      swap2\n      swap1\n      tag_106\n      jump\t// in\n    tag_105:\n      0x20\n      mload(0x40)\n      dup1\n      dup4\n      sub\n      dup2\n      dup7\n      dup1\n      extcodesize\n      iszero\n      dup1\n      iszero\n      tag_107\n      jumpi\n      0x00\n      dup1\n      revert\n    tag_107:\n      pop\n      gas\n      staticcall\n      iszero\n      dup1\n      iszero\n      tag_109\n      jumpi\n      returndatasize\n      0x00\n      dup1\n      returndatacopy\n      revert(0x00, returndatasize)\n    tag_109:\n      pop\n      pop\n      pop\n      pop\n      mload(0x40)\n      returndatasize\n      not(0x1f)\n      0x1f\n      dup3\n      add\n      and\n      dup3\n      add\n      dup1\n      0x40\n      mstore\n      pop\n      dup2\n      add\n      swap1\n      tag_110\n      swap2\n      swap1\n      tag_77\n      jump\t// in\n    tag_110:\n        /* \"contracts/erc20htlc3.sol\":1769:1830  uint256 b2= IERC20(usdcAddress).allowance(buyer, usdcAddress) */\n      swap1\n      pop\n        /* \"contracts/erc20htlc3.sol\":1845:1855  uint256 b3 */\n      0x00\n        /* \"contracts/erc20htlc3.sol\":1864:1875  usdcAddress */\n      0x08\n      0x00\n      swap1\n      sload\n      swap1\n      0x0100\n      exp\n      swap1\n      div\n      0xffffffffffffffffffffffffffffffffffffffff\n      and\n        /* \"contracts/erc20htlc3.sol\":1857:1886  IERC20(usdcAddress).allowance */\n      0xffffffffffffffffffffffffffffffffffffffff\n      and\n      0xdd62ed3e\n        /* \"contracts/erc20htlc3.sol\":1887:1893  seller */\n      0x04\n      0x00\n      swap1\n      sload\n      swap1\n      0x0100\n      exp\n      swap1\n      div\n      0xffffffffffffffffffffffffffffffffffffffff\n      and\n        /* \"contracts/erc20htlc3.sol\":1895:1906  usdcAddress */\n      0x08\n      0x00\n      swap1\n      sload\n      swap1\n      0x0100\n      exp\n      swap1\n      div\n      0xffffffffffffffffffffffffffffffffffffffff\n      and\n        /* \"contracts/erc20htlc3.sol\":1857:1907  IERC20(usdcAddress).allowance(seller, usdcAddress) */\n      mload(0x40)\n      dup4\n      0xffffffff\n      and\n      0xe0\n      shl\n      dup2\n      mstore\n      0x04\n      add\n      tag_111\n      swap3\n      swap2\n      swap1\n      tag_106\n      jump\t// in\n    tag_111:\n      0x20\n      mload(0x40)\n      dup1\n      dup4\n      sub\n      dup2\n      dup7\n      dup1\n      extcodesize\n      iszero\n      dup1\n      iszero\n      tag_112\n      jumpi\n      0x00\n      dup1\n      revert\n    tag_112:\n      pop\n      gas\n      staticcall\n      iszero\n      dup1\n      iszero\n      tag_114\n      jumpi\n      returndatasize\n      0x00\n      dup1\n      returndatacopy\n      revert(0x00, returndatasize)\n    tag_114:\n      pop\n      pop\n      pop\n      pop\n      mload(0x40)\n      returndatasize\n      not(0x1f)\n      0x1f\n      dup3\n      add\n      and\n      dup3\n      add\n      dup1\n      0x40\n      mstore\n      pop\n      dup2\n      add\n      swap1\n      tag_115\n      swap2\n      swap1\n      tag_77\n      jump\t// in\n    tag_115:\n        /* \"contracts/erc20htlc3.sol\":1845:1907  uint256 b3= IERC20(usdcAddress).allowance(seller, usdcAddress) */\n      swap1\n      pop\n        /* \"contracts/erc20htlc3.sol\":1924:1934  uint256 b4 */\n      0x00\n        /* \"contracts/erc20htlc3.sol\":1943:1954  usdcAddress */\n      0x08\n      0x00\n      swap1\n      sload\n      swap1\n      0x0100\n      exp\n      swap1\n      div\n      0xffffffffffffffffffffffffffffffffffffffff\n      and\n        /* \"contracts/erc20htlc3.sol\":1936:1965  IERC20(usdcAddress).allowance */\n      0xffffffffffffffffffffffffffffffffffffffff\n      and\n      0xdd62ed3e\n        /* \"contracts/erc20htlc3.sol\":1966:1977  usdcAddress */\n      0x08\n      0x00\n      swap1\n      sload\n      swap1\n      0x0100\n      exp\n      swap1\n      div\n      0xffffffffffffffffffffffffffffffffffffffff\n      and\n        /* \"contracts/erc20htlc3.sol\":1979:1990  usdcAddress */\n      0x08\n      0x00\n      swap1\n      sload\n      swap1\n      0x0100\n      exp\n      swap1\n      div\n      0xffffffffffffffffffffffffffffffffffffffff\n      and\n        /* \"contracts/erc20htlc3.sol\":1936:1991  IERC20(usdcAddress).allowance(usdcAddress, usdcAddress) */\n      mload(0x40)\n      dup4\n      0xffffffff\n      and\n      0xe0\n      shl\n      dup2\n      mstore\n      0x04\n      add\n      tag_116\n      swap3\n      swap2\n      swap1\n      tag_100\n      jump\t// in\n    tag_116:\n      0x20\n      mload(0x40)\n      dup1\n      dup4\n      sub\n      dup2\n      dup7\n      dup1\n      extcodesize\n      iszero\n      dup1\n      iszero\n      tag_117\n      jumpi\n      0x00\n      dup1\n      revert\n    tag_117:\n      pop\n      gas\n      staticcall\n      iszero\n      dup1\n      iszero\n      tag_119\n      jumpi\n      returndatasize\n      0x00\n      dup1\n      returndatacopy\n      revert(0x00, returndatasize)\n    tag_119:\n      pop\n      pop\n      pop\n      pop\n      mload(0x40)\n      returndatasize\n      not(0x1f)\n      0x1f\n      dup3\n      add\n      and\n      dup3\n      add\n      dup1\n      0x40\n      mstore\n      pop\n      dup2\n      add\n      swap1\n      tag_120\n      swap2\n      swap1\n      tag_77\n      jump\t// in\n    tag_120:\n        /* \"contracts/erc20htlc3.sol\":1924:1991  uint256 b4= IERC20(usdcAddress).allowance(usdcAddress, usdcAddress) */\n      swap1\n      pop\n        /* \"contracts/erc20htlc3.sol\":2009:2019  uint256 b5 */\n      0x00\n        /* \"contracts/erc20htlc3.sol\":2028:2039  usdcAddress */\n      0x08\n      0x00\n      swap1\n      sload\n      swap1\n      0x0100\n      exp\n      swap1\n      div\n      0xffffffffffffffffffffffffffffffffffffffff\n      and\n        /* \"contracts/erc20htlc3.sol\":2021:2050  IERC20(usdcAddress).allowance */\n      0xffffffffffffffffffffffffffffffffffffffff\n      and\n      0xdd62ed3e\n        /* \"contracts/erc20htlc3.sol\":2051:2060  tx.origin */\n      origin\n        /* \"contracts/erc20htlc3.sol\":2062:2073  usdcAddress */\n      0x08\n      0x00\n      swap1\n      sload\n      swap1\n      0x0100\n      exp\n      swap1\n      div\n      0xffffffffffffffffffffffffffffffffffffffff\n      and\n        /* \"contracts/erc20htlc3.sol\":2021:2074  IERC20(usdcAddress).allowance(tx.origin, usdcAddress) */\n      mload(0x40)\n      dup4\n      0xffffffff\n      and\n      0xe0\n      shl\n      dup2\n      mstore\n      0x04\n      add\n      tag_121\n      swap3\n      swap2\n      swap1\n      tag_100\n      jump\t// in\n    tag_121:\n      0x20\n      mload(0x40)\n      dup1\n      dup4\n      sub\n      dup2\n      dup7\n      dup1\n      extcodesize\n      iszero\n      dup1\n      iszero\n      tag_122\n      jumpi\n      0x00\n      dup1\n      revert\n    tag_122:\n      pop\n      gas\n      staticcall\n      iszero\n      dup1\n      iszero\n      tag_124\n      jumpi\n      returndatasize\n      0x00\n      dup1\n      returndatacopy\n      revert(0x00, returndatasize)\n    tag_124:\n      pop\n      pop\n      pop\n      pop\n      mload(0x40)\n      returndatasize\n      not(0x1f)\n      0x1f\n      dup3\n      add\n      and\n      dup3\n      add\n      dup1\n      0x40\n      mstore\n      pop\n      dup2\n      add\n      swap1\n      tag_125\n      swap2\n      swap1\n      tag_77\n      jump\t// in\n    tag_125:\n        /* \"contracts/erc20htlc3.sol\":2009:2074  uint256 b5= IERC20(usdcAddress).allowance(tx.origin, usdcAddress) */\n      swap1\n      pop\n        /* \"contracts/erc20htlc3.sol\":2105:2107  b1 */\n      dup5\n        /* \"contracts/erc20htlc3.sol\":2109:2111  b2 */\n      dup5\n        /* \"contracts/erc20htlc3.sol\":2113:2115  b3 */\n      dup5\n        /* \"contracts/erc20htlc3.sol\":2117:2119  b4 */\n      dup5\n        /* \"contracts/erc20htlc3.sol\":2121:2123  b5 */\n      dup5\n        /* \"contracts/erc20htlc3.sol\":2097:2124  return (b1, b2, b3, b4, b5) */\n      swap10\n      pop\n      swap10\n      pop\n      swap10\n      pop\n      swap10\n      pop\n      swap10\n      pop\n      pop\n      pop\n      pop\n      pop\n      pop\n        /* \"contracts/erc20htlc3.sol\":1587:2132  function checkAllowance() public view returns (uint256, uint256, uint256, uint256, uint256) {\r... */\n      swap1\n      swap2\n      swap3\n      swap4\n      swap5\n      jump\t// out\n        /* \"contracts/erc20htlc3.sol\":212:235  uint public saleRelease */\n    tag_38:\n      sload(0x00)\n      dup2\n      jump\t// out\n        /* \"contracts/erc20htlc3.sol\":242:268  uint public disputeRelease */\n    tag_42:\n      sload(0x01)\n      dup2\n      jump\t// out\n        /* \"contracts/erc20htlc3.sol\":1426:1579  function payContract(uint256 _value1) \r... */\n    tag_48:\n        /* \"contracts/erc20htlc3.sol\":1493:1507  uint256 amount */\n      0x00\n        /* \"contracts/erc20htlc3.sol\":1510:1517  _value1 */\n      dup2\n        /* \"contracts/erc20htlc3.sol\":1493:1517  uint256 amount = _value1 */\n      swap1\n      pop\n        /* \"contracts/erc20htlc3.sol\":1534:1545  usdcAddress */\n      0x08\n      0x00\n      swap1\n      sload\n      swap1\n      0x0100\n      exp\n      swap1\n      div\n      0xffffffffffffffffffffffffffffffffffffffff\n      and\n        /* \"contracts/erc20htlc3.sol\":1527:1555  IERC20(usdcAddress).transfer */\n      0xffffffffffffffffffffffffffffffffffffffff\n      and\n      0xa9059cbb\n        /* \"contracts/erc20htlc3.sol\":1556:1562  seller */\n      0x04\n      0x00\n      swap1\n      sload\n      swap1\n      0x0100\n      exp\n      swap1\n      div\n      0xffffffffffffffffffffffffffffffffffffffff\n      and\n        /* \"contracts/erc20htlc3.sol\":1564:1570  amount */\n      dup4\n        /* \"contracts/erc20htlc3.sol\":1527:1571  IERC20(usdcAddress).transfer(seller, amount) */\n      mload(0x40)\n      dup4\n      0xffffffff\n      and\n      0xe0\n      shl\n      dup2\n      mstore\n      0x04\n      add\n      tag_127\n      swap3\n      swap2\n      swap1\n      tag_128\n      jump\t// in\n    tag_127:\n      0x20\n      mload(0x40)\n      dup1\n      dup4\n      sub\n      dup2\n      0x00\n      dup8\n      dup1\n      extcodesize\n      iszero\n      dup1\n      iszero\n      tag_129\n      jumpi\n      0x00\n      dup1\n      revert\n    tag_129:\n      pop\n      gas\n      call\n      iszero\n      dup1\n      iszero\n      tag_131\n      jumpi\n      returndatasize\n      0x00\n      dup1\n      returndatacopy\n      revert(0x00, returndatasize)\n    tag_131:\n      pop\n      pop\n      pop\n      pop\n      mload(0x40)\n      returndatasize\n      not(0x1f)\n      0x1f\n      dup3\n      add\n      and\n      dup3\n      add\n      dup1\n      0x40\n      mstore\n      pop\n      dup2\n      add\n      swap1\n      tag_132\n      swap2\n      swap1\n      tag_133\n      jump\t// in\n    tag_132:\n      pop\n        /* \"contracts/erc20htlc3.sol\":1482:1579  {\r... */\n      pop\n        /* \"contracts/erc20htlc3.sol\":1426:1579  function payContract(uint256 _value1) \r... */\n      pop\n      jump\t// out\n        /* \"contracts/erc20htlc3.sol\":911:1421  function approveTransfer(uint256 _value1) \r... */\n    tag_52:\n        /* \"contracts/erc20htlc3.sol\":979:983  bool */\n      0x00\n        /* \"contracts/erc20htlc3.sol\":985:989  bool */\n      dup1\n        /* \"contracts/erc20htlc3.sol\":991:995  bool */\n      0x00\n        /* \"contracts/erc20htlc3.sol\":997:1001  bool */\n      dup1\n        /* \"contracts/erc20htlc3.sol\":1003:1007  bool */\n      0x00\n        /* \"contracts/erc20htlc3.sol\":1020:1034  uint256 amount */\n      dup1\n        /* \"contracts/erc20htlc3.sol\":1037:1044  _value1 */\n      dup7\n        /* \"contracts/erc20htlc3.sol\":1020:1044  uint256 amount = _value1 */\n      swap1\n      pop\n        /* \"contracts/erc20htlc3.sol\":1055:1062  bool b1 */\n      0x00\n        /* \"contracts/erc20htlc3.sol\":1072:1083  usdcAddress */\n      0x08\n      0x00\n      swap1\n      sload\n      swap1\n      0x0100\n      exp\n      swap1\n      div\n      0xffffffffffffffffffffffffffffffffffffffff\n      and\n        /* \"contracts/erc20htlc3.sol\":1065:1092  IERC20(usdcAddress).approve */\n      0xffffffffffffffffffffffffffffffffffffffff\n      and\n      0x095ea7b3\n        /* \"contracts/erc20htlc3.sol\":1093:1103  msg.sender */\n      caller\n        /* \"contracts/erc20htlc3.sol\":1105:1111  amount */\n      dup5\n        /* \"contracts/erc20htlc3.sol\":1065:1112  IERC20(usdcAddress).approve(msg.sender, amount) */\n      mload(0x40)\n      dup4\n      0xffffffff\n      and\n      0xe0\n      shl\n      dup2\n      mstore\n      0x04\n      add\n      tag_135\n      swap3\n      swap2\n      swap1\n      tag_136\n      jump\t// in\n    tag_135:\n      0x20\n      mload(0x40)\n      dup1\n      dup4\n      sub\n      dup2\n      0x00\n      dup8\n      dup1\n      extcodesize\n      iszero\n      dup1\n      iszero\n      tag_137\n      jumpi\n      0x00\n      dup1\n      revert\n    tag_137:\n      pop\n      gas\n      call\n      iszero\n      dup1\n      iszero\n      tag_139\n      jumpi\n      returndatasize\n      0x00\n      dup1\n      returndatacopy\n      revert(0x00, returndatasize)\n    tag_139:\n      pop\n      pop\n      pop\n      pop\n      mload(0x40)\n      returndatasize\n      not(0x1f)\n      0x1f\n      dup3\n      add\n      and\n      dup3\n      add\n      dup1\n      0x40\n      mstore\n      pop\n      dup2\n      add\n      swap1\n      tag_140\n      swap2\n      swap1\n      tag_133\n      jump\t// in\n    tag_140:\n        /* \"contracts/erc20htlc3.sol\":1055:1112  bool b1 = IERC20(usdcAddress).approve(msg.sender, amount) */\n      swap1\n      pop\n        /* \"contracts/erc20htlc3.sol\":1123:1130  bool b2 */\n      0x00\n        /* \"contracts/erc20htlc3.sol\":1140:1151  usdcAddress */\n      0x08\n      0x00\n      swap1\n      sload\n      swap1\n      0x0100\n      exp\n      swap1\n      div\n      0xffffffffffffffffffffffffffffffffffffffff\n      and\n        /* \"contracts/erc20htlc3.sol\":1133:1160  IERC20(usdcAddress).approve */\n      0xffffffffffffffffffffffffffffffffffffffff\n      and\n      0x095ea7b3\n        /* \"contracts/erc20htlc3.sol\":1161:1167  seller */\n      0x04\n      0x00\n      swap1\n      sload\n      swap1\n      0x0100\n      exp\n      swap1\n      div\n      0xffffffffffffffffffffffffffffffffffffffff\n      and\n        /* \"contracts/erc20htlc3.sol\":1169:1175  amount */\n      dup6\n        /* \"contracts/erc20htlc3.sol\":1133:1176  IERC20(usdcAddress).approve(seller, amount) */\n      mload(0x40)\n      dup4\n      0xffffffff\n      and\n      0xe0\n      shl\n      dup2\n      mstore\n      0x04\n      add\n      tag_141\n      swap3\n      swap2\n      swap1\n      tag_128\n      jump\t// in\n    tag_141:\n      0x20\n      mload(0x40)\n      dup1\n      dup4\n      sub\n      dup2\n      0x00\n      dup8\n      dup1\n      extcodesize\n      iszero\n      dup1\n      iszero\n      tag_142\n      jumpi\n      0x00\n      dup1\n      revert\n    tag_142:\n      pop\n      gas\n      call\n      iszero\n      dup1\n      iszero\n      tag_144\n      jumpi\n      returndatasize\n      0x00\n      dup1\n      returndatacopy\n      revert(0x00, returndatasize)\n    tag_144:\n      pop\n      pop\n      pop\n      pop\n      mload(0x40)\n      returndatasize\n      not(0x1f)\n      0x1f\n      dup3\n      add\n      and\n      dup3\n      add\n      dup1\n      0x40\n      mstore\n      pop\n      dup2\n      add\n      swap1\n      tag_145\n      swap2\n      swap1\n      tag_133\n      jump\t// in\n    tag_145:\n        /* \"contracts/erc20htlc3.sol\":1123:1176  bool b2 = IERC20(usdcAddress).approve(seller, amount) */\n      swap1\n      pop\n        /* \"contracts/erc20htlc3.sol\":1187:1194  bool b3 */\n      0x00\n        /* \"contracts/erc20htlc3.sol\":1204:1215  usdcAddress */\n      0x08\n      0x00\n      swap1\n      sload\n      swap1\n      0x0100\n      exp\n      swap1\n      div\n      0xffffffffffffffffffffffffffffffffffffffff\n      and\n        /* \"contracts/erc20htlc3.sol\":1197:1224  IERC20(usdcAddress).approve */\n      0xffffffffffffffffffffffffffffffffffffffff\n      and\n      0x095ea7b3\n        /* \"contracts/erc20htlc3.sol\":1225:1230  buyer */\n      0x02\n      0x00\n      swap1\n      sload\n      swap1\n      0x0100\n      exp\n      swap1\n      div\n      0xffffffffffffffffffffffffffffffffffffffff\n      and\n        /* \"contracts/erc20htlc3.sol\":1232:1238  amount */\n      dup7\n        /* \"contracts/erc20htlc3.sol\":1197:1239  IERC20(usdcAddress).approve(buyer, amount) */\n      mload(0x40)\n      dup4\n      0xffffffff\n      and\n      0xe0\n      shl\n      dup2\n      mstore\n      0x04\n      add\n      tag_146\n      swap3\n      swap2\n      swap1\n      tag_128\n      jump\t// in\n    tag_146:\n      0x20\n      mload(0x40)\n      dup1\n      dup4\n      sub\n      dup2\n      0x00\n      dup8\n      dup1\n      extcodesize\n      iszero\n      dup1\n      iszero\n      tag_147\n      jumpi\n      0x00\n      dup1\n      revert\n    tag_147:\n      pop\n      gas\n      call\n      iszero\n      dup1\n      iszero\n      tag_149\n      jumpi\n      returndatasize\n      0x00\n      dup1\n      returndatacopy\n      revert(0x00, returndatasize)\n    tag_149:\n      pop\n      pop\n      pop\n      pop\n      mload(0x40)\n      returndatasize\n      not(0x1f)\n      0x1f\n      dup3\n      add\n      and\n      dup3\n      add\n      dup1\n      0x40\n      mstore\n      pop\n      dup2\n      add\n      swap1\n      tag_150\n      swap2\n      swap1\n      tag_133\n      jump\t// in\n    tag_150:\n        /* \"contracts/erc20htlc3.sol\":1187:1239  bool b3=  IERC20(usdcAddress).approve(buyer, amount) */\n      swap1\n      pop\n        /* \"contracts/erc20htlc3.sol\":1250:1257  bool b4 */\n      0x00\n        /* \"contracts/erc20htlc3.sol\":1267:1278  usdcAddress */\n      0x08\n      0x00\n      swap1\n      sload\n      swap1\n      0x0100\n      exp\n      swap1\n      div\n      0xffffffffffffffffffffffffffffffffffffffff\n      and\n        /* \"contracts/erc20htlc3.sol\":1260:1287  IERC20(usdcAddress).approve */\n      0xffffffffffffffffffffffffffffffffffffffff\n      and\n      0x095ea7b3\n        /* \"contracts/erc20htlc3.sol\":1288:1299  usdcAddress */\n      0x08\n      0x00\n      swap1\n      sload\n      swap1\n      0x0100\n      exp\n      swap1\n      div\n      0xffffffffffffffffffffffffffffffffffffffff\n      and\n        /* \"contracts/erc20htlc3.sol\":1301:1307  amount */\n      dup8\n        /* \"contracts/erc20htlc3.sol\":1260:1308  IERC20(usdcAddress).approve(usdcAddress, amount) */\n      mload(0x40)\n      dup4\n      0xffffffff\n      and\n      0xe0\n      shl\n      dup2\n      mstore\n      0x04\n      add\n      tag_151\n      swap3\n      swap2\n      swap1\n      tag_136\n      jump\t// in\n    tag_151:\n      0x20\n      mload(0x40)\n      dup1\n      dup4\n      sub\n      dup2\n      0x00\n      dup8\n      dup1\n      extcodesize\n      iszero\n      dup1\n      iszero\n      tag_152\n      jumpi\n      0x00\n      dup1\n      revert\n    tag_152:\n      pop\n      gas\n      call\n      iszero\n      dup1\n      iszero\n      tag_154\n      jumpi\n      returndatasize\n      0x00\n      dup1\n      returndatacopy\n      revert(0x00, returndatasize)\n    tag_154:\n      pop\n      pop\n      pop\n      pop\n      mload(0x40)\n      returndatasize\n      not(0x1f)\n      0x1f\n      dup3\n      add\n      and\n      dup3\n      add\n      dup1\n      0x40\n      mstore\n      pop\n      dup2\n      add\n      swap1\n      tag_155\n      swap2\n      swap1\n      tag_133\n      jump\t// in\n    tag_155:\n        /* \"contracts/erc20htlc3.sol\":1250:1308  bool b4=  IERC20(usdcAddress).approve(usdcAddress, amount) */\n      swap1\n      pop\n        /* \"contracts/erc20htlc3.sol\":1319:1326  bool b5 */\n      0x00\n        /* \"contracts/erc20htlc3.sol\":1336:1347  usdcAddress */\n      0x08\n      0x00\n      swap1\n      sload\n      swap1\n      0x0100\n      exp\n      swap1\n      div\n      0xffffffffffffffffffffffffffffffffffffffff\n      and\n        /* \"contracts/erc20htlc3.sol\":1329:1356  IERC20(usdcAddress).approve */\n      0xffffffffffffffffffffffffffffffffffffffff\n      and\n      0x095ea7b3\n        /* \"contracts/erc20htlc3.sol\":1357:1366  tx.origin */\n      origin\n        /* \"contracts/erc20htlc3.sol\":1368:1374  amount */\n      dup9\n        /* \"contracts/erc20htlc3.sol\":1329:1375  IERC20(usdcAddress).approve(tx.origin, amount) */\n      mload(0x40)\n      dup4\n      0xffffffff\n      and\n      0xe0\n      shl\n      dup2\n      mstore\n      0x04\n      add\n      tag_156\n      swap3\n      swap2\n      swap1\n      tag_136\n      jump\t// in\n    tag_156:\n      0x20\n      mload(0x40)\n      dup1\n      dup4\n      sub\n      dup2\n      0x00\n      dup8\n      dup1\n      extcodesize\n      iszero\n      dup1\n      iszero\n      tag_157\n      jumpi\n      0x00\n      dup1\n      revert\n    tag_157:\n      pop\n      gas\n      call\n      iszero\n      dup1\n      iszero\n      tag_159\n      jumpi\n      returndatasize\n      0x00\n      dup1\n      returndatacopy\n      revert(0x00, returndatasize)\n    tag_159:\n      pop\n      pop\n      pop\n      pop\n      mload(0x40)\n      returndatasize\n      not(0x1f)\n      0x1f\n      dup3\n      add\n      and\n      dup3\n      add\n      dup1\n      0x40\n      mstore\n      pop\n      dup2\n      add\n      swap1\n      tag_160\n      swap2\n      swap1\n      tag_133\n      jump\t// in\n    tag_160:\n        /* \"contracts/erc20htlc3.sol\":1319:1375  bool b5=  IERC20(usdcAddress).approve(tx.origin, amount) */\n      swap1\n      pop\n        /* \"contracts/erc20htlc3.sol\":1394:1396  b1 */\n      dup5\n        /* \"contracts/erc20htlc3.sol\":1398:1400  b2 */\n      dup5\n        /* \"contracts/erc20htlc3.sol\":1402:1404  b3 */\n      dup5\n        /* \"contracts/erc20htlc3.sol\":1406:1408  b4 */\n      dup5\n        /* \"contracts/erc20htlc3.sol\":1410:1412  b5 */\n      dup5\n        /* \"contracts/erc20htlc3.sol\":1386:1413  return (b1, b2, b3, b4, b5) */\n      swap11\n      pop\n      swap11\n      pop\n      swap11\n      pop\n      swap11\n      pop\n      swap11\n      pop\n      pop\n      pop\n      pop\n      pop\n      pop\n      pop\n        /* \"contracts/erc20htlc3.sol\":911:1421  function approveTransfer(uint256 _value1) \r... */\n      swap2\n      swap4\n      swap6\n      swap1\n      swap3\n      swap5\n      pop\n      jump\t// out\n        /* \"contracts/erc20htlc3.sol\":2140:2358  function approveAndTransferUSDC(uint256 _value1) \r... */\n    tag_57:\n        /* \"contracts/erc20htlc3.sol\":2222:2226  bool */\n      0x00\n        /* \"contracts/erc20htlc3.sol\":2240:2254  uint256 amount */\n      dup1\n        /* \"contracts/erc20htlc3.sol\":2257:2264  _value1 */\n      dup3\n        /* \"contracts/erc20htlc3.sol\":2240:2264  uint256 amount = _value1 */\n      swap1\n      pop\n        /* \"contracts/erc20htlc3.sol\":2289:2300  usdcAddress */\n      0x08\n      0x00\n      swap1\n      sload\n      swap1\n      0x0100\n      exp\n      swap1\n      div\n      0xffffffffffffffffffffffffffffffffffffffff\n      and\n        /* \"contracts/erc20htlc3.sol\":2282:2314  IERC20(usdcAddress).transferFrom */\n      0xffffffffffffffffffffffffffffffffffffffff\n      and\n      0x23b872dd\n        /* \"contracts/erc20htlc3.sol\":2315:2326  usdcAddress */\n      0x08\n      0x00\n      swap1\n      sload\n      swap1\n      0x0100\n      exp\n      swap1\n      div\n      0xffffffffffffffffffffffffffffffffffffffff\n      and\n        /* \"contracts/erc20htlc3.sol\":2336:2340  this */\n      address\n        /* \"contracts/erc20htlc3.sol\":2343:2349  amount */\n      dup5\n        /* \"contracts/erc20htlc3.sol\":2282:2350  IERC20(usdcAddress).transferFrom(usdcAddress, address(this), amount) */\n      mload(0x40)\n      dup5\n      0xffffffff\n      and\n      0xe0\n      shl\n      dup2\n      mstore\n      0x04\n      add\n      tag_162\n      swap4\n      swap3\n      swap2\n      swap1\n      tag_163\n      jump\t// in\n    tag_162:\n      0x20\n      mload(0x40)\n      dup1\n      dup4\n      sub\n      dup2\n      0x00\n      dup8\n      dup1\n      extcodesize\n      iszero\n      dup1\n      iszero\n      tag_164\n      jumpi\n      0x00\n      dup1\n      revert\n    tag_164:\n      pop\n      gas\n      call\n      iszero\n      dup1\n      iszero\n      tag_166\n      jumpi\n      returndatasize\n      0x00\n      dup1\n      returndatacopy\n      revert(0x00, returndatasize)\n    tag_166:\n      pop\n      pop\n      pop\n      pop\n      mload(0x40)\n      returndatasize\n      not(0x1f)\n      0x1f\n      dup3\n      add\n      and\n      dup3\n      add\n      dup1\n      0x40\n      mstore\n      pop\n      dup2\n      add\n      swap1\n      tag_167\n      swap2\n      swap1\n      tag_133\n      jump\t// in\n    tag_167:\n        /* \"contracts/erc20htlc3.sol\":2275:2350  return IERC20(usdcAddress).transferFrom(usdcAddress, address(this), amount) */\n      swap2\n      pop\n      pop\n        /* \"contracts/erc20htlc3.sol\":2140:2358  function approveAndTransferUSDC(uint256 _value1) \r... */\n      swap2\n      swap1\n      pop\n      jump\t// out\n        /* \"contracts/erc20htlc3.sol\":355:374  bool public dispute */\n    tag_62:\n      0x04\n      0x14\n      swap1\n      sload\n      swap1\n      0x0100\n      exp\n      swap1\n      div\n      0xff\n      and\n      dup2\n      jump\t// out\n        /* \"contracts/erc20htlc3.sol\":3050:3152  function getSenderBalance() public view returns (uint256) {\r... */\n    tag_66:\n        /* \"contracts/erc20htlc3.sol\":3099:3106  uint256 */\n      0x00\n        /* \"contracts/erc20htlc3.sol\":3126:3136  msg.sender */\n      caller\n        /* \"contracts/erc20htlc3.sol\":3126:3144  msg.sender.balance */\n      0xffffffffffffffffffffffffffffffffffffffff\n      and\n      balance\n        /* \"contracts/erc20htlc3.sol\":3119:3144  return msg.sender.balance */\n      swap1\n      pop\n        /* \"contracts/erc20htlc3.sol\":3050:3152  function getSenderBalance() public view returns (uint256) {\r... */\n      swap1\n      jump\t// out\n        /* \"#utility.yul\":7:144   */\n    tag_170:\n        /* \"#utility.yul\":61:66   */\n      0x00\n        /* \"#utility.yul\":92:98   */\n      dup2\n        /* \"#utility.yul\":86:99   */\n      mload\n        /* \"#utility.yul\":77:99   */\n      swap1\n      pop\n        /* \"#utility.yul\":108:138   */\n      tag_172\n        /* \"#utility.yul\":132:137   */\n      dup2\n        /* \"#utility.yul\":108:138   */\n      tag_173\n      jump\t// in\n    tag_172:\n        /* \"#utility.yul\":7:144   */\n      swap3\n      swap2\n      pop\n      pop\n      jump\t// out\n        /* \"#utility.yul\":150:289   */\n    tag_174:\n        /* \"#utility.yul\":196:201   */\n      0x00\n        /* \"#utility.yul\":234:240   */\n      dup2\n        /* \"#utility.yul\":221:241   */\n      calldataload\n        /* \"#utility.yul\":212:241   */\n      swap1\n      pop\n        /* \"#utility.yul\":250:283   */\n      tag_176\n        /* \"#utility.yul\":277:282   */\n      dup2\n        /* \"#utility.yul\":250:283   */\n      tag_177\n      jump\t// in\n    tag_176:\n        /* \"#utility.yul\":150:289   */\n      swap3\n      swap2\n      pop\n      pop\n      jump\t// out\n        /* \"#utility.yul\":295:438   */\n    tag_178:\n        /* \"#utility.yul\":352:357   */\n      0x00\n        /* \"#utility.yul\":383:389   */\n      dup2\n        /* \"#utility.yul\":377:390   */\n      mload\n        /* \"#utility.yul\":368:390   */\n      swap1\n      pop\n        /* \"#utility.yul\":399:432   */\n      tag_180\n        /* \"#utility.yul\":426:431   */\n      dup2\n        /* \"#utility.yul\":399:432   */\n      tag_177\n      jump\t// in\n    tag_180:\n        /* \"#utility.yul\":295:438   */\n      swap3\n      swap2\n      pop\n      pop\n      jump\t// out\n        /* \"#utility.yul\":444:789   */\n    tag_133:\n        /* \"#utility.yul\":511:517   */\n      0x00\n        /* \"#utility.yul\":560:562   */\n      0x20\n        /* \"#utility.yul\":548:557   */\n      dup3\n        /* \"#utility.yul\":539:546   */\n      dup5\n        /* \"#utility.yul\":535:558   */\n      sub\n        /* \"#utility.yul\":531:563   */\n      slt\n        /* \"#utility.yul\":528:647   */\n      iszero\n      tag_182\n      jumpi\n        /* \"#utility.yul\":566:645   */\n      tag_183\n      tag_184\n      jump\t// in\n    tag_183:\n        /* \"#utility.yul\":528:647   */\n    tag_182:\n        /* \"#utility.yul\":686:687   */\n      0x00\n        /* \"#utility.yul\":711:772   */\n      tag_185\n        /* \"#utility.yul\":764:771   */\n      dup5\n        /* \"#utility.yul\":755:761   */\n      dup3\n        /* \"#utility.yul\":744:753   */\n      dup6\n        /* \"#utility.yul\":740:762   */\n      add\n        /* \"#utility.yul\":711:772   */\n      tag_170\n      jump\t// in\n    tag_185:\n        /* \"#utility.yul\":701:772   */\n      swap2\n      pop\n        /* \"#utility.yul\":657:782   */\n      pop\n        /* \"#utility.yul\":444:789   */\n      swap3\n      swap2\n      pop\n      pop\n      jump\t// out\n        /* \"#utility.yul\":795:1124   */\n    tag_47:\n        /* \"#utility.yul\":854:860   */\n      0x00\n        /* \"#utility.yul\":903:905   */\n      0x20\n        /* \"#utility.yul\":891:900   */\n      dup3\n        /* \"#utility.yul\":882:889   */\n      dup5\n        /* \"#utility.yul\":878:901   */\n      sub\n        /* \"#utility.yul\":874:906   */\n      slt\n        /* \"#utility.yul\":871:990   */\n      iszero\n      tag_187\n      jumpi\n        /* \"#utility.yul\":909:988   */\n      tag_188\n      tag_184\n      jump\t// in\n    tag_188:\n        /* \"#utility.yul\":871:990   */\n    tag_187:\n        /* \"#utility.yul\":1029:1030   */\n      0x00\n        /* \"#utility.yul\":1054:1107   */\n      tag_189\n        /* \"#utility.yul\":1099:1106   */\n      dup5\n        /* \"#utility.yul\":1090:1096   */\n      dup3\n        /* \"#utility.yul\":1079:1088   */\n      dup6\n        /* \"#utility.yul\":1075:1097   */\n      add\n        /* \"#utility.yul\":1054:1107   */\n      tag_174\n      jump\t// in\n    tag_189:\n        /* \"#utility.yul\":1044:1107   */\n      swap2\n      pop\n        /* \"#utility.yul\":1000:1117   */\n      pop\n        /* \"#utility.yul\":795:1124   */\n      swap3\n      swap2\n      pop\n      pop\n      jump\t// out\n        /* \"#utility.yul\":1130:1481   */\n    tag_77:\n        /* \"#utility.yul\":1200:1206   */\n      0x00\n        /* \"#utility.yul\":1249:1251   */\n      0x20\n        /* \"#utility.yul\":1237:1246   */\n      dup3\n        /* \"#utility.yul\":1228:1235   */\n      dup5\n        /* \"#utility.yul\":1224:1247   */\n      sub\n        /* \"#utility.yul\":1220:1252   */\n      slt\n        /* \"#utility.yul\":1217:1336   */\n      iszero\n      tag_191\n      jumpi\n        /* \"#utility.yul\":1255:1334   */\n      tag_192\n      tag_184\n      jump\t// in\n    tag_192:\n        /* \"#utility.yul\":1217:1336   */\n    tag_191:\n        /* \"#utility.yul\":1375:1376   */\n      0x00\n        /* \"#utility.yul\":1400:1464   */\n      tag_193\n        /* \"#utility.yul\":1456:1463   */\n      dup5\n        /* \"#utility.yul\":1447:1453   */\n      dup3\n        /* \"#utility.yul\":1436:1445   */\n      dup6\n        /* \"#utility.yul\":1432:1454   */\n      add\n        /* \"#utility.yul\":1400:1464   */\n      tag_178\n      jump\t// in\n    tag_193:\n        /* \"#utility.yul\":1390:1464   */\n      swap2\n      pop\n        /* \"#utility.yul\":1346:1474   */\n      pop\n        /* \"#utility.yul\":1130:1481   */\n      swap3\n      swap2\n      pop\n      pop\n      jump\t// out\n        /* \"#utility.yul\":1487:1634   */\n    tag_194:\n        /* \"#utility.yul\":1582:1627   */\n      tag_196\n        /* \"#utility.yul\":1621:1626   */\n      dup2\n        /* \"#utility.yul\":1582:1627   */\n      tag_197\n      jump\t// in\n    tag_196:\n        /* \"#utility.yul\":1577:1580   */\n      dup3\n        /* \"#utility.yul\":1570:1628   */\n      mstore\n        /* \"#utility.yul\":1487:1634   */\n      pop\n      pop\n      jump\t// out\n        /* \"#utility.yul\":1640:1758   */\n    tag_198:\n        /* \"#utility.yul\":1727:1751   */\n      tag_200\n        /* \"#utility.yul\":1745:1750   */\n      dup2\n        /* \"#utility.yul\":1727:1751   */\n      tag_201\n      jump\t// in\n    tag_200:\n        /* \"#utility.yul\":1722:1725   */\n      dup3\n        /* \"#utility.yul\":1715:1752   */\n      mstore\n        /* \"#utility.yul\":1640:1758   */\n      pop\n      pop\n      jump\t// out\n        /* \"#utility.yul\":1764:1873   */\n    tag_202:\n        /* \"#utility.yul\":1845:1866   */\n      tag_204\n        /* \"#utility.yul\":1860:1865   */\n      dup2\n        /* \"#utility.yul\":1845:1866   */\n      tag_205\n      jump\t// in\n    tag_204:\n        /* \"#utility.yul\":1840:1843   */\n      dup3\n        /* \"#utility.yul\":1833:1867   */\n      mstore\n        /* \"#utility.yul\":1764:1873   */\n      pop\n      pop\n      jump\t// out\n        /* \"#utility.yul\":1879:1997   */\n    tag_206:\n        /* \"#utility.yul\":1966:1990   */\n      tag_208\n        /* \"#utility.yul\":1984:1989   */\n      dup2\n        /* \"#utility.yul\":1966:1990   */\n      tag_209\n      jump\t// in\n    tag_208:\n        /* \"#utility.yul\":1961:1964   */\n      dup3\n        /* \"#utility.yul\":1954:1991   */\n      mstore\n        /* \"#utility.yul\":1879:1997   */\n      pop\n      pop\n      jump\t// out\n        /* \"#utility.yul\":2003:2225   */\n    tag_84:\n        /* \"#utility.yul\":2096:2100   */\n      0x00\n        /* \"#utility.yul\":2134:2136   */\n      0x20\n        /* \"#utility.yul\":2123:2132   */\n      dup3\n        /* \"#utility.yul\":2119:2137   */\n      add\n        /* \"#utility.yul\":2111:2137   */\n      swap1\n      pop\n        /* \"#utility.yul\":2147:2218   */\n      tag_211\n        /* \"#utility.yul\":2215:2216   */\n      0x00\n        /* \"#utility.yul\":2204:2213   */\n      dup4\n        /* \"#utility.yul\":2200:2217   */\n      add\n        /* \"#utility.yul\":2191:2197   */\n      dup5\n        /* \"#utility.yul\":2147:2218   */\n      tag_198\n      jump\t// in\n    tag_211:\n        /* \"#utility.yul\":2003:2225   */\n      swap3\n      swap2\n      pop\n      pop\n      jump\t// out\n        /* \"#utility.yul\":2231:2469   */\n    tag_72:\n        /* \"#utility.yul\":2332:2336   */\n      0x00\n        /* \"#utility.yul\":2370:2372   */\n      0x20\n        /* \"#utility.yul\":2359:2368   */\n      dup3\n        /* \"#utility.yul\":2355:2373   */\n      add\n        /* \"#utility.yul\":2347:2373   */\n      swap1\n      pop\n        /* \"#utility.yul\":2383:2462   */\n      tag_213\n        /* \"#utility.yul\":2459:2460   */\n      0x00\n        /* \"#utility.yul\":2448:2457   */\n      dup4\n        /* \"#utility.yul\":2444:2461   */\n      add\n        /* \"#utility.yul\":2435:2441   */\n      dup5\n        /* \"#utility.yul\":2383:2462   */\n      tag_194\n      jump\t// in\n    tag_213:\n        /* \"#utility.yul\":2231:2469   */\n      swap3\n      swap2\n      pop\n      pop\n      jump\t// out\n        /* \"#utility.yul\":2475:2823   */\n    tag_106:\n        /* \"#utility.yul\":2604:2608   */\n      0x00\n        /* \"#utility.yul\":2642:2644   */\n      0x40\n        /* \"#utility.yul\":2631:2640   */\n      dup3\n        /* \"#utility.yul\":2627:2645   */\n      add\n        /* \"#utility.yul\":2619:2645   */\n      swap1\n      pop\n        /* \"#utility.yul\":2655:2734   */\n      tag_215\n        /* \"#utility.yul\":2731:2732   */\n      0x00\n        /* \"#utility.yul\":2720:2729   */\n      dup4\n        /* \"#utility.yul\":2716:2733   */\n      add\n        /* \"#utility.yul\":2707:2713   */\n      dup6\n        /* \"#utility.yul\":2655:2734   */\n      tag_194\n      jump\t// in\n    tag_215:\n        /* \"#utility.yul\":2744:2816   */\n      tag_216\n        /* \"#utility.yul\":2812:2814   */\n      0x20\n        /* \"#utility.yul\":2801:2810   */\n      dup4\n        /* \"#utility.yul\":2797:2815   */\n      add\n        /* \"#utility.yul\":2788:2794   */\n      dup5\n        /* \"#utility.yul\":2744:2816   */\n      tag_198\n      jump\t// in\n    tag_216:\n        /* \"#utility.yul\":2475:2823   */\n      swap4\n      swap3\n      pop\n      pop\n      pop\n      jump\t// out\n        /* \"#utility.yul\":2829:3177   */\n    tag_128:\n        /* \"#utility.yul\":2958:2962   */\n      0x00\n        /* \"#utility.yul\":2996:2998   */\n      0x40\n        /* \"#utility.yul\":2985:2994   */\n      dup3\n        /* \"#utility.yul\":2981:2999   */\n      add\n        /* \"#utility.yul\":2973:2999   */\n      swap1\n      pop\n        /* \"#utility.yul\":3009:3088   */\n      tag_218\n        /* \"#utility.yul\":3085:3086   */\n      0x00\n        /* \"#utility.yul\":3074:3083   */\n      dup4\n        /* \"#utility.yul\":3070:3087   */\n      add\n        /* \"#utility.yul\":3061:3067   */\n      dup6\n        /* \"#utility.yul\":3009:3088   */\n      tag_194\n      jump\t// in\n    tag_218:\n        /* \"#utility.yul\":3098:3170   */\n      tag_219\n        /* \"#utility.yul\":3166:3168   */\n      0x20\n        /* \"#utility.yul\":3155:3164   */\n      dup4\n        /* \"#utility.yul\":3151:3169   */\n      add\n        /* \"#utility.yul\":3142:3148   */\n      dup5\n        /* \"#utility.yul\":3098:3170   */\n      tag_206\n      jump\t// in\n    tag_219:\n        /* \"#utility.yul\":2829:3177   */\n      swap4\n      swap3\n      pop\n      pop\n      pop\n      jump\t// out\n        /* \"#utility.yul\":3183:3515   */\n    tag_100:\n        /* \"#utility.yul\":3304:3308   */\n      0x00\n        /* \"#utility.yul\":3342:3344   */\n      0x40\n        /* \"#utility.yul\":3331:3340   */\n      dup3\n        /* \"#utility.yul\":3327:3345   */\n      add\n        /* \"#utility.yul\":3319:3345   */\n      swap1\n      pop\n        /* \"#utility.yul\":3355:3426   */\n      tag_221\n        /* \"#utility.yul\":3423:3424   */\n      0x00\n        /* \"#utility.yul\":3412:3421   */\n      dup4\n        /* \"#utility.yul\":3408:3425   */\n      add\n        /* \"#utility.yul\":3399:3405   */\n      dup6\n        /* \"#utility.yul\":3355:3426   */\n      tag_198\n      jump\t// in\n    tag_221:\n        /* \"#utility.yul\":3436:3508   */\n      tag_222\n        /* \"#utility.yul\":3504:3506   */\n      0x20\n        /* \"#utility.yul\":3493:3502   */\n      dup4\n        /* \"#utility.yul\":3489:3507   */\n      add\n        /* \"#utility.yul\":3480:3486   */\n      dup5\n        /* \"#utility.yul\":3436:3508   */\n      tag_198\n      jump\t// in\n    tag_222:\n        /* \"#utility.yul\":3183:3515   */\n      swap4\n      swap3\n      pop\n      pop\n      pop\n      jump\t// out\n        /* \"#utility.yul\":3521:3963   */\n    tag_163:\n        /* \"#utility.yul\":3670:3674   */\n      0x00\n        /* \"#utility.yul\":3708:3710   */\n      0x60\n        /* \"#utility.yul\":3697:3706   */\n      dup3\n        /* \"#utility.yul\":3693:3711   */\n      add\n        /* \"#utility.yul\":3685:3711   */\n      swap1\n      pop\n        /* \"#utility.yul\":3721:3792   */\n      tag_224\n        /* \"#utility.yul\":3789:3790   */\n      0x00\n        /* \"#utility.yul\":3778:3787   */\n      dup4\n        /* \"#utility.yul\":3774:3791   */\n      add\n        /* \"#utility.yul\":3765:3771   */\n      dup7\n        /* \"#utility.yul\":3721:3792   */\n      tag_198\n      jump\t// in\n    tag_224:\n        /* \"#utility.yul\":3802:3874   */\n      tag_225\n        /* \"#utility.yul\":3870:3872   */\n      0x20\n        /* \"#utility.yul\":3859:3868   */\n      dup4\n        /* \"#utility.yul\":3855:3873   */\n      add\n        /* \"#utility.yul\":3846:3852   */\n      dup6\n        /* \"#utility.yul\":3802:3874   */\n      tag_198\n      jump\t// in\n    tag_225:\n        /* \"#utility.yul\":3884:3956   */\n      tag_226\n        /* \"#utility.yul\":3952:3954   */\n      0x40\n        /* \"#utility.yul\":3941:3950   */\n      dup4\n        /* \"#utility.yul\":3937:3955   */\n      add\n        /* \"#utility.yul\":3928:3934   */\n      dup5\n        /* \"#utility.yul\":3884:3956   */\n      tag_206\n      jump\t// in\n    tag_226:\n        /* \"#utility.yul\":3521:3963   */\n      swap5\n      swap4\n      pop\n      pop\n      pop\n      pop\n      jump\t// out\n        /* \"#utility.yul\":3969:4301   */\n    tag_136:\n        /* \"#utility.yul\":4090:4094   */\n      0x00\n        /* \"#utility.yul\":4128:4130   */\n      0x40\n        /* \"#utility.yul\":4117:4126   */\n      dup3\n        /* \"#utility.yul\":4113:4131   */\n      add\n        /* \"#utility.yul\":4105:4131   */\n      swap1\n      pop\n        /* \"#utility.yul\":4141:4212   */\n      tag_228\n        /* \"#utility.yul\":4209:4210   */\n      0x00\n        /* \"#utility.yul\":4198:4207   */\n      dup4\n        /* \"#utility.yul\":4194:4211   */\n      add\n        /* \"#utility.yul\":4185:4191   */\n      dup6\n        /* \"#utility.yul\":4141:4212   */\n      tag_198\n      jump\t// in\n    tag_228:\n        /* \"#utility.yul\":4222:4294   */\n      tag_229\n        /* \"#utility.yul\":4290:4292   */\n      0x20\n        /* \"#utility.yul\":4279:4288   */\n      dup4\n        /* \"#utility.yul\":4275:4293   */\n      add\n        /* \"#utility.yul\":4266:4272   */\n      dup5\n        /* \"#utility.yul\":4222:4294   */\n      tag_206\n      jump\t// in\n    tag_229:\n        /* \"#utility.yul\":3969:4301   */\n      swap4\n      swap3\n      pop\n      pop\n      pop\n      jump\t// out\n        /* \"#utility.yul\":4307:4517   */\n    tag_59:\n        /* \"#utility.yul\":4394:4398   */\n      0x00\n        /* \"#utility.yul\":4432:4434   */\n      0x20\n        /* \"#utility.yul\":4421:4430   */\n      dup3\n        /* \"#utility.yul\":4417:4435   */\n      add\n        /* \"#utility.yul\":4409:4435   */\n      swap1\n      pop\n        /* \"#utility.yul\":4445:4510   */\n      tag_231\n        /* \"#utility.yul\":4507:4508   */\n      0x00\n        /* \"#utility.yul\":4496:4505   */\n      dup4\n        /* \"#utility.yul\":4492:4509   */\n      add\n        /* \"#utility.yul\":4483:4489   */\n      dup5\n        /* \"#utility.yul\":4445:4510   */\n      tag_202\n      jump\t// in\n    tag_231:\n        /* \"#utility.yul\":4307:4517   */\n      swap3\n      swap2\n      pop\n      pop\n      jump\t// out\n        /* \"#utility.yul\":4523:5127   */\n    tag_54:\n        /* \"#utility.yul\":4698:4702   */\n      0x00\n        /* \"#utility.yul\":4736:4739   */\n      0xa0\n        /* \"#utility.yul\":4725:4734   */\n      dup3\n        /* \"#utility.yul\":4721:4740   */\n      add\n        /* \"#utility.yul\":4713:4740   */\n      swap1\n      pop\n        /* \"#utility.yul\":4750:4815   */\n      tag_233\n        /* \"#utility.yul\":4812:4813   */\n      0x00\n        /* \"#utility.yul\":4801:4810   */\n      dup4\n        /* \"#utility.yul\":4797:4814   */\n      add\n        /* \"#utility.yul\":4788:4794   */\n      dup9\n        /* \"#utility.yul\":4750:4815   */\n      tag_202\n      jump\t// in\n    tag_233:\n        /* \"#utility.yul\":4825:4891   */\n      tag_234\n        /* \"#utility.yul\":4887:4889   */\n      0x20\n        /* \"#utility.yul\":4876:4885   */\n      dup4\n        /* \"#utility.yul\":4872:4890   */\n      add\n        /* \"#utility.yul\":4863:4869   */\n      dup8\n        /* \"#utility.yul\":4825:4891   */\n      tag_202\n      jump\t// in\n    tag_234:\n        /* \"#utility.yul\":4901:4967   */\n      tag_235\n        /* \"#utility.yul\":4963:4965   */\n      0x40\n        /* \"#utility.yul\":4952:4961   */\n      dup4\n        /* \"#utility.yul\":4948:4966   */\n      add\n        /* \"#utility.yul\":4939:4945   */\n      dup7\n        /* \"#utility.yul\":4901:4967   */\n      tag_202\n      jump\t// in\n    tag_235:\n        /* \"#utility.yul\":4977:5043   */\n      tag_236\n        /* \"#utility.yul\":5039:5041   */\n      0x60\n        /* \"#utility.yul\":5028:5037   */\n      dup4\n        /* \"#utility.yul\":5024:5042   */\n      add\n        /* \"#utility.yul\":5015:5021   */\n      dup6\n        /* \"#utility.yul\":4977:5043   */\n      tag_202\n      jump\t// in\n    tag_236:\n        /* \"#utility.yul\":5053:5120   */\n      tag_237\n        /* \"#utility.yul\":5115:5118   */\n      0x80\n        /* \"#utility.yul\":5104:5113   */\n      dup4\n        /* \"#utility.yul\":5100:5119   */\n      add\n        /* \"#utility.yul\":5091:5097   */\n      dup5\n        /* \"#utility.yul\":5053:5120   */\n      tag_202\n      jump\t// in\n    tag_237:\n        /* \"#utility.yul\":4523:5127   */\n      swap7\n      swap6\n      pop\n      pop\n      pop\n      pop\n      pop\n      pop\n      jump\t// out\n        /* \"#utility.yul\":5133:5355   */\n    tag_21:\n        /* \"#utility.yul\":5226:5230   */\n      0x00\n        /* \"#utility.yul\":5264:5266   */\n      0x20\n        /* \"#utility.yul\":5253:5262   */\n      dup3\n        /* \"#utility.yul\":5249:5267   */\n      add\n        /* \"#utility.yul\":5241:5267   */\n      swap1\n      pop\n        /* \"#utility.yul\":5277:5348   */\n      tag_239\n        /* \"#utility.yul\":5345:5346   */\n      0x00\n        /* \"#utility.yul\":5334:5343   */\n      dup4\n        /* \"#utility.yul\":5330:5347   */\n      add\n        /* \"#utility.yul\":5321:5327   */\n      dup5\n        /* \"#utility.yul\":5277:5348   */\n      tag_206\n      jump\t// in\n    tag_239:\n        /* \"#utility.yul\":5133:5355   */\n      swap3\n      swap2\n      pop\n      pop\n      jump\t// out\n        /* \"#utility.yul\":5361:5803   */\n    tag_26:\n        /* \"#utility.yul\":5510:5514   */\n      0x00\n        /* \"#utility.yul\":5548:5550   */\n      0x60\n        /* \"#utility.yul\":5537:5546   */\n      dup3\n        /* \"#utility.yul\":5533:5551   */\n      add\n        /* \"#utility.yul\":5525:5551   */\n      swap1\n      pop\n        /* \"#utility.yul\":5561:5632   */\n      tag_241\n        /* \"#utility.yul\":5629:5630   */\n      0x00\n        /* \"#utility.yul\":5618:5627   */\n      dup4\n        /* \"#utility.yul\":5614:5631   */\n      add\n        /* \"#utility.yul\":5605:5611   */\n      dup7\n        /* \"#utility.yul\":5561:5632   */\n      tag_206\n      jump\t// in\n    tag_241:\n        /* \"#utility.yul\":5642:5714   */\n      tag_242\n        /* \"#utility.yul\":5710:5712   */\n      0x20\n        /* \"#utility.yul\":5699:5708   */\n      dup4\n        /* \"#utility.yul\":5695:5713   */\n      add\n        /* \"#utility.yul\":5686:5692   */\n      dup6\n        /* \"#utility.yul\":5642:5714   */\n      tag_206\n      jump\t// in\n    tag_242:\n        /* \"#utility.yul\":5724:5796   */\n      tag_243\n        /* \"#utility.yul\":5792:5794   */\n      0x40\n        /* \"#utility.yul\":5781:5790   */\n      dup4\n        /* \"#utility.yul\":5777:5795   */\n      add\n        /* \"#utility.yul\":5768:5774   */\n      dup5\n        /* \"#utility.yul\":5724:5796   */\n      tag_206\n      jump\t// in\n    tag_243:\n        /* \"#utility.yul\":5361:5803   */\n      swap5\n      swap4\n      pop\n      pop\n      pop\n      pop\n      jump\t// out\n        /* \"#utility.yul\":5809:6473   */\n    tag_35:\n        /* \"#utility.yul\":6014:6018   */\n      0x00\n        /* \"#utility.yul\":6052:6055   */\n      0xa0\n        /* \"#utility.yul\":6041:6050   */\n      dup3\n        /* \"#utility.yul\":6037:6056   */\n      add\n        /* \"#utility.yul\":6029:6056   */\n      swap1\n      pop\n        /* \"#utility.yul\":6066:6137   */\n      tag_245\n        /* \"#utility.yul\":6134:6135   */\n      0x00\n        /* \"#utility.yul\":6123:6132   */\n      dup4\n        /* \"#utility.yul\":6119:6136   */\n      add\n        /* \"#utility.yul\":6110:6116   */\n      dup9\n        /* \"#utility.yul\":6066:6137   */\n      tag_206\n      jump\t// in\n    tag_245:\n        /* \"#utility.yul\":6147:6219   */\n      tag_246\n        /* \"#utility.yul\":6215:6217   */\n      0x20\n        /* \"#utility.yul\":6204:6213   */\n      dup4\n        /* \"#utility.yul\":6200:6218   */\n      add\n        /* \"#utility.yul\":6191:6197   */\n      dup8\n        /* \"#utility.yul\":6147:6219   */\n      tag_206\n      jump\t// in\n    tag_246:\n        /* \"#utility.yul\":6229:6301   */\n      tag_247\n        /* \"#utility.yul\":6297:6299   */\n      0x40\n        /* \"#utility.yul\":6286:6295   */\n      dup4\n        /* \"#utility.yul\":6282:6300   */\n      add\n        /* \"#utility.yul\":6273:6279   */\n      dup7\n        /* \"#utility.yul\":6229:6301   */\n      tag_206\n      jump\t// in\n    tag_247:\n        /* \"#utility.yul\":6311:6383   */\n      tag_248\n        /* \"#utility.yul\":6379:6381   */\n      0x60\n        /* \"#utility.yul\":6368:6377   */\n      dup4\n        /* \"#utility.yul\":6364:6382   */\n      add\n        /* \"#utility.yul\":6355:6361   */\n      dup6\n        /* \"#utility.yul\":6311:6383   */\n      tag_206\n      jump\t// in\n    tag_248:\n        /* \"#utility.yul\":6393:6466   */\n      tag_249\n        /* \"#utility.yul\":6461:6464   */\n      0x80\n        /* \"#utility.yul\":6450:6459   */\n      dup4\n        /* \"#utility.yul\":6446:6465   */\n      add\n        /* \"#utility.yul\":6437:6443   */\n      dup5\n        /* \"#utility.yul\":6393:6466   */\n      tag_206\n      jump\t// in\n    tag_249:\n        /* \"#utility.yul\":5809:6473   */\n      swap7\n      swap6\n      pop\n      pop\n      pop\n      pop\n      pop\n      pop\n      jump\t// out\n        /* \"#utility.yul\":6560:6656   */\n    tag_201:\n        /* \"#utility.yul\":6597:6604   */\n      0x00\n        /* \"#utility.yul\":6626:6650   */\n      tag_253\n        /* \"#utility.yul\":6644:6649   */\n      dup3\n        /* \"#utility.yul\":6626:6650   */\n      tag_254\n      jump\t// in\n    tag_253:\n        /* \"#utility.yul\":6615:6650   */\n      swap1\n      pop\n        /* \"#utility.yul\":6560:6656   */\n      swap2\n      swap1\n      pop\n      jump\t// out\n        /* \"#utility.yul\":6662:6752   */\n    tag_205:\n        /* \"#utility.yul\":6696:6703   */\n      0x00\n        /* \"#utility.yul\":6739:6744   */\n      dup2\n        /* \"#utility.yul\":6732:6745   */\n      iszero\n        /* \"#utility.yul\":6725:6746   */\n      iszero\n        /* \"#utility.yul\":6714:6746   */\n      swap1\n      pop\n        /* \"#utility.yul\":6662:6752   */\n      swap2\n      swap1\n      pop\n      jump\t// out\n        /* \"#utility.yul\":6758:6884   */\n    tag_254:\n        /* \"#utility.yul\":6795:6802   */\n      0x00\n        /* \"#utility.yul\":6835:6877   */\n      0xffffffffffffffffffffffffffffffffffffffff\n        /* \"#utility.yul\":6828:6833   */\n      dup3\n        /* \"#utility.yul\":6824:6878   */\n      and\n        /* \"#utility.yul\":6813:6878   */\n      swap1\n      pop\n        /* \"#utility.yul\":6758:6884   */\n      swap2\n      swap1\n      pop\n      jump\t// out\n        /* \"#utility.yul\":6890:6967   */\n    tag_209:\n        /* \"#utility.yul\":6927:6934   */\n      0x00\n        /* \"#utility.yul\":6956:6961   */\n      dup2\n        /* \"#utility.yul\":6945:6961   */\n      swap1\n      pop\n        /* \"#utility.yul\":6890:6967   */\n      swap2\n      swap1\n      pop\n      jump\t// out\n        /* \"#utility.yul\":6973:7107   */\n    tag_197:\n        /* \"#utility.yul\":7031:7040   */\n      0x00\n        /* \"#utility.yul\":7064:7101   */\n      tag_259\n        /* \"#utility.yul\":7095:7100   */\n      dup3\n        /* \"#utility.yul\":7064:7101   */\n      tag_260\n      jump\t// in\n    tag_259:\n        /* \"#utility.yul\":7051:7101   */\n      swap1\n      pop\n        /* \"#utility.yul\":6973:7107   */\n      swap2\n      swap1\n      pop\n      jump\t// out\n        /* \"#utility.yul\":7113:7239   */\n    tag_260:\n        /* \"#utility.yul\":7163:7172   */\n      0x00\n        /* \"#utility.yul\":7196:7233   */\n      tag_262\n        /* \"#utility.yul\":7227:7232   */\n      dup3\n        /* \"#utility.yul\":7196:7233   */\n      tag_263\n      jump\t// in\n    tag_262:\n        /* \"#utility.yul\":7183:7233   */\n      swap1\n      pop\n        /* \"#utility.yul\":7113:7239   */\n      swap2\n      swap1\n      pop\n      jump\t// out\n        /* \"#utility.yul\":7245:7358   */\n    tag_263:\n        /* \"#utility.yul\":7295:7304   */\n      0x00\n        /* \"#utility.yul\":7328:7352   */\n      tag_265\n        /* \"#utility.yul\":7346:7351   */\n      dup3\n        /* \"#utility.yul\":7328:7352   */\n      tag_254\n      jump\t// in\n    tag_265:\n        /* \"#utility.yul\":7315:7352   */\n      swap1\n      pop\n        /* \"#utility.yul\":7245:7358   */\n      swap2\n      swap1\n      pop\n      jump\t// out\n        /* \"#utility.yul\":7487:7604   */\n    tag_184:\n        /* \"#utility.yul\":7596:7597   */\n      0x00\n        /* \"#utility.yul\":7593:7594   */\n      dup1\n        /* \"#utility.yul\":7586:7598   */\n      revert\n        /* \"#utility.yul\":7610:7726   */\n    tag_173:\n        /* \"#utility.yul\":7680:7701   */\n      tag_270\n        /* \"#utility.yul\":7695:7700   */\n      dup2\n        /* \"#utility.yul\":7680:7701   */\n      tag_205\n      jump\t// in\n    tag_270:\n        /* \"#utility.yul\":7673:7678   */\n      dup2\n        /* \"#utility.yul\":7670:7702   */\n      eq\n        /* \"#utility.yul\":7660:7720   */\n      tag_271\n      jumpi\n        /* \"#utility.yul\":7716:7717   */\n      0x00\n        /* \"#utility.yul\":7713:7714   */\n      dup1\n        /* \"#utility.yul\":7706:7718   */\n      revert\n        /* \"#utility.yul\":7660:7720   */\n    tag_271:\n        /* \"#utility.yul\":7610:7726   */\n      pop\n      jump\t// out\n        /* \"#utility.yul\":7732:7854   */\n    tag_177:\n        /* \"#utility.yul\":7805:7829   */\n      tag_273\n        /* \"#utility.yul\":7823:7828   */\n      dup2\n        /* \"#utility.yul\":7805:7829   */\n      tag_209\n      jump\t// in\n    tag_273:\n        /* \"#utility.yul\":7798:7803   */\n      dup2\n        /* \"#utility.yul\":7795:7830   */\n      eq\n        /* \"#utility.yul\":7785:7848   */\n      tag_274\n      jumpi\n        /* \"#utility.yul\":7844:7845   */\n      0x00\n        /* \"#utility.yul\":7841:7842   */\n      dup1\n        /* \"#utility.yul\":7834:7846   */\n      revert\n        /* \"#utility.yul\":7785:7848   */\n    tag_274:\n        /* \"#utility.yul\":7732:7854   */\n      pop\n      jump\t// out\n\n    auxdata: 0xa26469706673582212202fd054231542255b6200efbf0c0e216192d97a10c5d99412636fc4b53b96d69c64736f6c63430008070033\n}\n",
				"bytecode": {
					"linkReferences": {},
					"object": "6080604052735425890298aed601595a70ab815c96711a31bc65600560006101000a81548173ffffffffffffffffffffffffffffffffffffffff021916908373ffffffffffffffffffffffffffffffffffffffff160217905550730fa8781a83e46826621b3bc094ea2a0212e71b23600660006101000a81548173ffffffffffffffffffffffffffffffffffffffff021916908373ffffffffffffffffffffffffffffffffffffffff16021790555073fe4f5145f6e09952a5ba9e956ed0c25e3fa4c7f1600760006101000a81548173ffffffffffffffffffffffffffffffffffffffff021916908373ffffffffffffffffffffffffffffffffffffffff1602179055503480156200011057600080fd5b50604051620018ba380380620018ba833981810160405281019062000136919062000239565b80600460006101000a81548173ffffffffffffffffffffffffffffffffffffffff021916908373ffffffffffffffffffffffffffffffffffffffff16021790555033600260006101000a81548173ffffffffffffffffffffffffffffffffffffffff021916908373ffffffffffffffffffffffffffffffffffffffff160217905550600660009054906101000a900473ffffffffffffffffffffffffffffffffffffffff16600860006101000a81548173ffffffffffffffffffffffffffffffffffffffff021916908373ffffffffffffffffffffffffffffffffffffffff16021790555050620002be565b6000815190506200023381620002a4565b92915050565b6000602082840312156200025257620002516200029f565b5b6000620002628482850162000222565b91505092915050565b600062000278826200027f565b9050919050565b600073ffffffffffffffffffffffffffffffffffffffff82169050919050565b600080fd5b620002af816200026b565b8114620002bb57600080fd5b50565b6115ec80620002ce6000396000f3fe6080604052600436106100a05760003560e01c8063a5c4164911610064578063a5c4164914610189578063c31d8a82146101b4578063cacca4a0146101dd578063db3999cd1461021e578063f240f7c31461024e578063ff18253b14610279576100a7565b806312065fe0146100ac5780631ba32439146100d757806344b2dc85146101045780639405de641461012f578063a1c530471461015e576100a7565b366100a757005b600080fd5b3480156100b857600080fd5b506100c16102a4565b6040516100ce9190611460565b60405180910390f35b3480156100e357600080fd5b506100ec6102ac565b6040516100fb9392919061147b565b60405180910390f35b34801561011057600080fd5b5061011961056d565b6040516101269190611460565b60405180910390f35b34801561013b57600080fd5b5061014461072f565b6040516101559594939291906114b2565b60405180910390f35b34801561016a57600080fd5b50610173610bd6565b6040516101809190611460565b60405180910390f35b34801561019557600080fd5b5061019e610bdc565b6040516101ab9190611460565b60405180910390f35b3480156101c057600080fd5b506101db60048036038101906101d6919061124b565b610be2565b005b3480156101e957600080fd5b5061020460048036038101906101ff919061124b565b610cbd565b60405161021595949392919061140d565b60405180910390f35b6102386004803603810190610233919061124b565b6110cc565b60405161024591906113f2565b60405180910390f35b34801561025a57600080fd5b506102636111ad565b60405161027091906113f2565b60405180910390f35b34801561028557600080fd5b5061028e6111c0565b60405161029b9190611460565b60405180910390f35b600047905090565b6000806000600260009054906101000a900473ffffffffffffffffffffffffffffffffffffffff1673ffffffffffffffffffffffffffffffffffffffff163273ffffffffffffffffffffffffffffffffffffffff161461030b57600080fd5b6000600860009054906101000a900473ffffffffffffffffffffffffffffffffffffffff1673ffffffffffffffffffffffffffffffffffffffff166370a08231600260009054906101000a900473ffffffffffffffffffffffffffffffffffffffff166040518263ffffffff1660e01b815260040161038a91906112fc565b60206040518083038186803b1580156103a257600080fd5b505afa1580156103b6573d6000803e3d6000fd5b505050506040513d601f19601f820116820180604052508101906103da9190611278565b90506000600860009054906101000a900473ffffffffffffffffffffffffffffffffffffffff1673ffffffffffffffffffffffffffffffffffffffff166370a08231600460009054906101000a900473ffffffffffffffffffffffffffffffffffffffff166040518263ffffffff1660e01b815260040161045b91906112fc565b60206040518083038186803b15801561047357600080fd5b505afa158015610487573d6000803e3d6000fd5b505050506040513d601f19601f820116820180604052508101906104ab9190611278565b90506000600860009054906101000a900473ffffffffffffffffffffffffffffffffffffffff1673ffffffffffffffffffffffffffffffffffffffff166370a08231336040518263ffffffff1660e01b815260040161050a91906112e1565b60206040518083038186803b15801561052257600080fd5b505afa158015610536573d6000803e3d6000fd5b505050506040513d601f19601f8201168201806040525081019061055a9190611278565b9050828282955095509550505050909192565b6000600360009054906101000a900473ffffffffffffffffffffffffffffffffffffffff1673ffffffffffffffffffffffffffffffffffffffff163273ffffffffffffffffffffffffffffffffffffffff1614806106185750600460009054906101000a900473ffffffffffffffffffffffffffffffffffffffff1673ffffffffffffffffffffffffffffffffffffffff163273ffffffffffffffffffffffffffffffffffffffff16145b806106705750600260009054906101000a900473ffffffffffffffffffffffffffffffffffffffff1673ffffffffffffffffffffffffffffffffffffffff163273ffffffffffffffffffffffffffffffffffffffff16145b61067957600080fd5b6000600860009054906101000a900473ffffffffffffffffffffffffffffffffffffffff1673ffffffffffffffffffffffffffffffffffffffff166370a08231306040518263ffffffff1660e01b81526004016106d691906112e1565b60206040518083038186803b1580156106ee57600080fd5b505afa158015610702573d6000803e3d6000fd5b505050506040513d601f19601f820116820180604052508101906107269190611278565b90508091505090565b600080600080600080600860009054906101000a900473ffffffffffffffffffffffffffffffffffffffff1673ffffffffffffffffffffffffffffffffffffffff1663dd62ed3e33600860009054906101000a900473ffffffffffffffffffffffffffffffffffffffff166040518363ffffffff1660e01b81526004016107b7929190611369565b60206040518083038186803b1580156107cf57600080fd5b505afa1580156107e3573d6000803e3d6000fd5b505050506040513d601f19601f820116820180604052508101906108079190611278565b90506000600860009054906101000a900473ffffffffffffffffffffffffffffffffffffffff1673ffffffffffffffffffffffffffffffffffffffff1663dd62ed3e600260009054906101000a900473ffffffffffffffffffffffffffffffffffffffff16600860009054906101000a900473ffffffffffffffffffffffffffffffffffffffff166040518363ffffffff1660e01b81526004016108ac929190611317565b60206040518083038186803b1580156108c457600080fd5b505afa1580156108d8573d6000803e3d6000fd5b505050506040513d601f19601f820116820180604052508101906108fc9190611278565b90506000600860009054906101000a900473ffffffffffffffffffffffffffffffffffffffff1673ffffffffffffffffffffffffffffffffffffffff1663dd62ed3e600460009054906101000a900473ffffffffffffffffffffffffffffffffffffffff16600860009054906101000a900473ffffffffffffffffffffffffffffffffffffffff166040518363ffffffff1660e01b81526004016109a1929190611317565b60206040518083038186803b1580156109b957600080fd5b505afa1580156109cd573d6000803e3d6000fd5b505050506040513d601f19601f820116820180604052508101906109f19190611278565b90506000600860009054906101000a900473ffffffffffffffffffffffffffffffffffffffff1673ffffffffffffffffffffffffffffffffffffffff1663dd62ed3e600860009054906101000a900473ffffffffffffffffffffffffffffffffffffffff16600860009054906101000a900473ffffffffffffffffffffffffffffffffffffffff166040518363ffffffff1660e01b8152600401610a96929190611369565b60206040518083038186803b158015610aae57600080fd5b505afa158015610ac2573d6000803e3d6000fd5b505050506040513d601f19601f82011682018060405250810190610ae69190611278565b90506000600860009054906101000a900473ffffffffffffffffffffffffffffffffffffffff1673ffffffffffffffffffffffffffffffffffffffff1663dd62ed3e32600860009054906101000a900473ffffffffffffffffffffffffffffffffffffffff166040518363ffffffff1660e01b8152600401610b69929190611369565b60206040518083038186803b158015610b8157600080fd5b505afa158015610b95573d6000803e3d6000fd5b505050506040513d601f19601f82011682018060405250810190610bb99190611278565b905084848484849950995099509950995050505050509091929394565b60005481565b60015481565b6000819050600860009054906101000a900473ffffffffffffffffffffffffffffffffffffffff1673ffffffffffffffffffffffffffffffffffffffff1663a9059cbb600460009054906101000a900473ffffffffffffffffffffffffffffffffffffffff16836040518363ffffffff1660e01b8152600401610c66929190611340565b602060405180830381600087803b158015610c8057600080fd5b505af1158015610c94573d6000803e3d6000fd5b505050506040513d601f19601f82011682018060405250810190610cb8919061121e565b505050565b6000806000806000808690506000600860009054906101000a900473ffffffffffffffffffffffffffffffffffffffff1673ffffffffffffffffffffffffffffffffffffffff1663095ea7b333846040518363ffffffff1660e01b8152600401610d289291906113c9565b602060405180830381600087803b158015610d4257600080fd5b505af1158015610d56573d6000803e3d6000fd5b505050506040513d601f19601f82011682018060405250810190610d7a919061121e565b90506000600860009054906101000a900473ffffffffffffffffffffffffffffffffffffffff1673ffffffffffffffffffffffffffffffffffffffff1663095ea7b3600460009054906101000a900473ffffffffffffffffffffffffffffffffffffffff16856040518363ffffffff1660e01b8152600401610dfd929190611340565b602060405180830381600087803b158015610e1757600080fd5b505af1158015610e2b573d6000803e3d6000fd5b505050506040513d601f19601f82011682018060405250810190610e4f919061121e565b90506000600860009054906101000a900473ffffffffffffffffffffffffffffffffffffffff1673ffffffffffffffffffffffffffffffffffffffff1663095ea7b3600260009054906101000a900473ffffffffffffffffffffffffffffffffffffffff16866040518363ffffffff1660e01b8152600401610ed2929190611340565b602060405180830381600087803b158015610eec57600080fd5b505af1158015610f00573d6000803e3d6000fd5b505050506040513d601f19601f82011682018060405250810190610f24919061121e565b90506000600860009054906101000a900473ffffffffffffffffffffffffffffffffffffffff1673ffffffffffffffffffffffffffffffffffffffff1663095ea7b3600860009054906101000a900473ffffffffffffffffffffffffffffffffffffffff16876040518363ffffffff1660e01b8152600401610fa79291906113c9565b602060405180830381600087803b158015610fc157600080fd5b505af1158015610fd5573d6000803e3d6000fd5b505050506040513d601f19601f82011682018060405250810190610ff9919061121e565b90506000600860009054906101000a900473ffffffffffffffffffffffffffffffffffffffff1673ffffffffffffffffffffffffffffffffffffffff1663095ea7b332886040518363ffffffff1660e01b815260040161105a9291906113c9565b602060405180830381600087803b15801561107457600080fd5b505af1158015611088573d6000803e3d6000fd5b505050506040513d601f19601f820116820180604052508101906110ac919061121e565b905084848484849a509a509a509a509a5050505050505091939590929450565b600080829050600860009054906101000a900473ffffffffffffffffffffffffffffffffffffffff1673ffffffffffffffffffffffffffffffffffffffff166323b872dd600860009054906101000a900473ffffffffffffffffffffffffffffffffffffffff1630846040518463ffffffff1660e01b815260040161115393929190611392565b602060405180830381600087803b15801561116d57600080fd5b505af1158015611181573d6000803e3d6000fd5b505050506040513d601f19601f820116820180604052508101906111a5919061121e565b915050919050565b600460149054906101000a900460ff1681565b60003373ffffffffffffffffffffffffffffffffffffffff1631905090565b6000815190506111ee81611588565b92915050565b6000813590506112038161159f565b92915050565b6000815190506112188161159f565b92915050565b60006020828403121561123457611233611583565b5b6000611242848285016111df565b91505092915050565b60006020828403121561126157611260611583565b5b600061126f848285016111f4565b91505092915050565b60006020828403121561128e5761128d611583565b5b600061129c84828501611209565b91505092915050565b6112ae8161154d565b82525050565b6112bd81611505565b82525050565b6112cc81611517565b82525050565b6112db81611543565b82525050565b60006020820190506112f660008301846112b4565b92915050565b600060208201905061131160008301846112a5565b92915050565b600060408201905061132c60008301856112a5565b61133960208301846112b4565b9392505050565b600060408201905061135560008301856112a5565b61136260208301846112d2565b9392505050565b600060408201905061137e60008301856112b4565b61138b60208301846112b4565b9392505050565b60006060820190506113a760008301866112b4565b6113b460208301856112b4565b6113c160408301846112d2565b949350505050565b60006040820190506113de60008301856112b4565b6113eb60208301846112d2565b9392505050565b600060208201905061140760008301846112c3565b92915050565b600060a08201905061142260008301886112c3565b61142f60208301876112c3565b61143c60408301866112c3565b61144960608301856112c3565b61145660808301846112c3565b9695505050505050565b600060208201905061147560008301846112d2565b92915050565b600060608201905061149060008301866112d2565b61149d60208301856112d2565b6114aa60408301846112d2565b949350505050565b600060a0820190506114c760008301886112d2565b6114d460208301876112d2565b6114e160408301866112d2565b6114ee60608301856112d2565b6114fb60808301846112d2565b9695505050505050565b600061151082611523565b9050919050565b60008115159050919050565b600073ffffffffffffffffffffffffffffffffffffffff82169050919050565b6000819050919050565b60006115588261155f565b9050919050565b600061156a82611571565b9050919050565b600061157c82611523565b9050919050565b600080fd5b61159181611517565b811461159c57600080fd5b50565b6115a881611543565b81146115b357600080fd5b5056fea26469706673582212202fd054231542255b6200efbf0c0e216192d97a10c5d99412636fc4b53b96d69c64736f6c63430008070033",
					"opcodes": "PUSH1 0x80 PUSH1 0x40 MSTORE PUSH20 0x5425890298AED601595A70AB815C96711A31BC65 PUSH1 0x5 PUSH1 0x0 PUSH2 0x100 EXP DUP2 SLOAD DUP2 PUSH20 0xFFFFFFFFFFFFFFFFFFFFFFFFFFFFFFFFFFFFFFFF MUL NOT AND SWAP1 DUP4 PUSH20 0xFFFFFFFFFFFFFFFFFFFFFFFFFFFFFFFFFFFFFFFF AND MUL OR SWAP1 SSTORE POP PUSH20 0xFA8781A83E46826621B3BC094EA2A0212E71B23 PUSH1 0x6 PUSH1 0x0 PUSH2 0x100 EXP DUP2 SLOAD DUP2 PUSH20 0xFFFFFFFFFFFFFFFFFFFFFFFFFFFFFFFFFFFFFFFF MUL NOT AND SWAP1 DUP4 PUSH20 0xFFFFFFFFFFFFFFFFFFFFFFFFFFFFFFFFFFFFFFFF AND MUL OR SWAP1 SSTORE POP PUSH20 0xFE4F5145F6E09952A5BA9E956ED0C25E3FA4C7F1 PUSH1 0x7 PUSH1 0x0 PUSH2 0x100 EXP DUP2 SLOAD DUP2 PUSH20 0xFFFFFFFFFFFFFFFFFFFFFFFFFFFFFFFFFFFFFFFF MUL NOT AND SWAP1 DUP4 PUSH20 0xFFFFFFFFFFFFFFFFFFFFFFFFFFFFFFFFFFFFFFFF AND MUL OR SWAP1 SSTORE POP CALLVALUE DUP1 ISZERO PUSH3 0x110 JUMPI PUSH1 0x0 DUP1 REVERT JUMPDEST POP PUSH1 0x40 MLOAD PUSH3 0x18BA CODESIZE SUB DUP1 PUSH3 0x18BA DUP4 CODECOPY DUP2 DUP2 ADD PUSH1 0x40 MSTORE DUP2 ADD SWAP1 PUSH3 0x136 SWAP2 SWAP1 PUSH3 0x239 JUMP JUMPDEST DUP1 PUSH1 0x4 PUSH1 0x0 PUSH2 0x100 EXP DUP2 SLOAD DUP2 PUSH20 0xFFFFFFFFFFFFFFFFFFFFFFFFFFFFFFFFFFFFFFFF MUL NOT AND SWAP1 DUP4 PUSH20 0xFFFFFFFFFFFFFFFFFFFFFFFFFFFFFFFFFFFFFFFF AND MUL OR SWAP1 SSTORE POP CALLER PUSH1 0x2 PUSH1 0x0 PUSH2 0x100 EXP DUP2 SLOAD DUP2 PUSH20 0xFFFFFFFFFFFFFFFFFFFFFFFFFFFFFFFFFFFFFFFF MUL NOT AND SWAP1 DUP4 PUSH20 0xFFFFFFFFFFFFFFFFFFFFFFFFFFFFFFFFFFFFFFFF AND MUL OR SWAP1 SSTORE POP PUSH1 0x6 PUSH1 0x0 SWAP1 SLOAD SWAP1 PUSH2 0x100 EXP SWAP1 DIV PUSH20 0xFFFFFFFFFFFFFFFFFFFFFFFFFFFFFFFFFFFFFFFF AND PUSH1 0x8 PUSH1 0x0 PUSH2 0x100 EXP DUP2 SLOAD DUP2 PUSH20 0xFFFFFFFFFFFFFFFFFFFFFFFFFFFFFFFFFFFFFFFF MUL NOT AND SWAP1 DUP4 PUSH20 0xFFFFFFFFFFFFFFFFFFFFFFFFFFFFFFFFFFFFFFFF AND MUL OR SWAP1 SSTORE POP POP PUSH3 0x2BE JUMP JUMPDEST PUSH1 0x0 DUP2 MLOAD SWAP1 POP PUSH3 0x233 DUP2 PUSH3 0x2A4 JUMP JUMPDEST SWAP3 SWAP2 POP POP JUMP JUMPDEST PUSH1 0x0 PUSH1 0x20 DUP3 DUP5 SUB SLT ISZERO PUSH3 0x252 JUMPI PUSH3 0x251 PUSH3 0x29F JUMP JUMPDEST JUMPDEST PUSH1 0x0 PUSH3 0x262 DUP5 DUP3 DUP6 ADD PUSH3 0x222 JUMP JUMPDEST SWAP2 POP POP SWAP3 SWAP2 POP POP JUMP JUMPDEST PUSH1 0x0 PUSH3 0x278 DUP3 PUSH3 0x27F JUMP JUMPDEST SWAP1 POP SWAP2 SWAP1 POP JUMP JUMPDEST PUSH1 0x0 PUSH20 0xFFFFFFFFFFFFFFFFFFFFFFFFFFFFFFFFFFFFFFFF DUP3 AND SWAP1 POP SWAP2 SWAP1 POP JUMP JUMPDEST PUSH1 0x0 DUP1 REVERT JUMPDEST PUSH3 0x2AF DUP2 PUSH3 0x26B JUMP JUMPDEST DUP2 EQ PUSH3 0x2BB JUMPI PUSH1 0x0 DUP1 REVERT JUMPDEST POP JUMP JUMPDEST PUSH2 0x15EC DUP1 PUSH3 0x2CE PUSH1 0x0 CODECOPY PUSH1 0x0 RETURN INVALID PUSH1 0x80 PUSH1 0x40 MSTORE PUSH1 0x4 CALLDATASIZE LT PUSH2 0xA0 JUMPI PUSH1 0x0 CALLDATALOAD PUSH1 0xE0 SHR DUP1 PUSH4 0xA5C41649 GT PUSH2 0x64 JUMPI DUP1 PUSH4 0xA5C41649 EQ PUSH2 0x189 JUMPI DUP1 PUSH4 0xC31D8A82 EQ PUSH2 0x1B4 JUMPI DUP1 PUSH4 0xCACCA4A0 EQ PUSH2 0x1DD JUMPI DUP1 PUSH4 0xDB3999CD EQ PUSH2 0x21E JUMPI DUP1 PUSH4 0xF240F7C3 EQ PUSH2 0x24E JUMPI DUP1 PUSH4 0xFF18253B EQ PUSH2 0x279 JUMPI PUSH2 0xA7 JUMP JUMPDEST DUP1 PUSH4 0x12065FE0 EQ PUSH2 0xAC JUMPI DUP1 PUSH4 0x1BA32439 EQ PUSH2 0xD7 JUMPI DUP1 PUSH4 0x44B2DC85 EQ PUSH2 0x104 JUMPI DUP1 PUSH4 0x9405DE64 EQ PUSH2 0x12F JUMPI DUP1 PUSH4 0xA1C53047 EQ PUSH2 0x15E JUMPI PUSH2 0xA7 JUMP JUMPDEST CALLDATASIZE PUSH2 0xA7 JUMPI STOP JUMPDEST PUSH1 0x0 DUP1 REVERT JUMPDEST CALLVALUE DUP1 ISZERO PUSH2 0xB8 JUMPI PUSH1 0x0 DUP1 REVERT JUMPDEST POP PUSH2 0xC1 PUSH2 0x2A4 JUMP JUMPDEST PUSH1 0x40 MLOAD PUSH2 0xCE SWAP2 SWAP1 PUSH2 0x1460 JUMP JUMPDEST PUSH1 0x40 MLOAD DUP1 SWAP2 SUB SWAP1 RETURN JUMPDEST CALLVALUE DUP1 ISZERO PUSH2 0xE3 JUMPI PUSH1 0x0 DUP1 REVERT JUMPDEST POP PUSH2 0xEC PUSH2 0x2AC JUMP JUMPDEST PUSH1 0x40 MLOAD PUSH2 0xFB SWAP4 SWAP3 SWAP2 SWAP1 PUSH2 0x147B JUMP JUMPDEST PUSH1 0x40 MLOAD DUP1 SWAP2 SUB SWAP1 RETURN JUMPDEST CALLVALUE DUP1 ISZERO PUSH2 0x110 JUMPI PUSH1 0x0 DUP1 REVERT JUMPDEST POP PUSH2 0x119 PUSH2 0x56D JUMP JUMPDEST PUSH1 0x40 MLOAD PUSH2 0x126 SWAP2 SWAP1 PUSH2 0x1460 JUMP JUMPDEST PUSH1 0x40 MLOAD DUP1 SWAP2 SUB SWAP1 RETURN JUMPDEST CALLVALUE DUP1 ISZERO PUSH2 0x13B JUMPI PUSH1 0x0 DUP1 REVERT JUMPDEST POP PUSH2 0x144 PUSH2 0x72F JUMP JUMPDEST PUSH1 0x40 MLOAD PUSH2 0x155 SWAP6 SWAP5 SWAP4 SWAP3 SWAP2 SWAP1 PUSH2 0x14B2 JUMP JUMPDEST PUSH1 0x40 MLOAD DUP1 SWAP2 SUB SWAP1 RETURN JUMPDEST CALLVALUE DUP1 ISZERO PUSH2 0x16A JUMPI PUSH1 0x0 DUP1 REVERT JUMPDEST POP PUSH2 0x173 PUSH2 0xBD6 JUMP JUMPDEST PUSH1 0x40 MLOAD PUSH2 0x180 SWAP2 SWAP1 PUSH2 0x1460 JUMP JUMPDEST PUSH1 0x40 MLOAD DUP1 SWAP2 SUB SWAP1 RETURN JUMPDEST CALLVALUE DUP1 ISZERO PUSH2 0x195 JUMPI PUSH1 0x0 DUP1 REVERT JUMPDEST POP PUSH2 0x19E PUSH2 0xBDC JUMP JUMPDEST PUSH1 0x40 MLOAD PUSH2 0x1AB SWAP2 SWAP1 PUSH2 0x1460 JUMP JUMPDEST PUSH1 0x40 MLOAD DUP1 SWAP2 SUB SWAP1 RETURN JUMPDEST CALLVALUE DUP1 ISZERO PUSH2 0x1C0 JUMPI PUSH1 0x0 DUP1 REVERT JUMPDEST POP PUSH2 0x1DB PUSH1 0x4 DUP1 CALLDATASIZE SUB DUP2 ADD SWAP1 PUSH2 0x1D6 SWAP2 SWAP1 PUSH2 0x124B JUMP JUMPDEST PUSH2 0xBE2 JUMP JUMPDEST STOP JUMPDEST CALLVALUE DUP1 ISZERO PUSH2 0x1E9 JUMPI PUSH1 0x0 DUP1 REVERT JUMPDEST POP PUSH2 0x204 PUSH1 0x4 DUP1 CALLDATASIZE SUB DUP2 ADD SWAP1 PUSH2 0x1FF SWAP2 SWAP1 PUSH2 0x124B JUMP JUMPDEST PUSH2 0xCBD JUMP JUMPDEST PUSH1 0x40 MLOAD PUSH2 0x215 SWAP6 SWAP5 SWAP4 SWAP3 SWAP2 SWAP1 PUSH2 0x140D JUMP JUMPDEST PUSH1 0x40 MLOAD DUP1 SWAP2 SUB SWAP1 RETURN JUMPDEST PUSH2 0x238 PUSH1 0x4 DUP1 CALLDATASIZE SUB DUP2 ADD SWAP1 PUSH2 0x233 SWAP2 SWAP1 PUSH2 0x124B JUMP JUMPDEST PUSH2 0x10CC JUMP JUMPDEST PUSH1 0x40 MLOAD PUSH2 0x245 SWAP2 SWAP1 PUSH2 0x13F2 JUMP JUMPDEST PUSH1 0x40 MLOAD DUP1 SWAP2 SUB SWAP1 RETURN JUMPDEST CALLVALUE DUP1 ISZERO PUSH2 0x25A JUMPI PUSH1 0x0 DUP1 REVERT JUMPDEST POP PUSH2 0x263 PUSH2 0x11AD JUMP JUMPDEST PUSH1 0x40 MLOAD PUSH2 0x270 SWAP2 SWAP1 PUSH2 0x13F2 JUMP JUMPDEST PUSH1 0x40 MLOAD DUP1 SWAP2 SUB SWAP1 RETURN JUMPDEST CALLVALUE DUP1 ISZERO PUSH2 0x285 JUMPI PUSH1 0x0 DUP1 REVERT JUMPDEST POP PUSH2 0x28E PUSH2 0x11C0 JUMP JUMPDEST PUSH1 0x40 MLOAD PUSH2 0x29B SWAP2 SWAP1 PUSH2 0x1460 JUMP JUMPDEST PUSH1 0x40 MLOAD DUP1 SWAP2 SUB SWAP1 RETURN JUMPDEST PUSH1 0x0 SELFBALANCE SWAP1 POP SWAP1 JUMP JUMPDEST PUSH1 0x0 DUP1 PUSH1 0x0 PUSH1 0x2 PUSH1 0x0 SWAP1 SLOAD SWAP1 PUSH2 0x100 EXP SWAP1 DIV PUSH20 0xFFFFFFFFFFFFFFFFFFFFFFFFFFFFFFFFFFFFFFFF AND PUSH20 0xFFFFFFFFFFFFFFFFFFFFFFFFFFFFFFFFFFFFFFFF AND ORIGIN PUSH20 0xFFFFFFFFFFFFFFFFFFFFFFFFFFFFFFFFFFFFFFFF AND EQ PUSH2 0x30B JUMPI PUSH1 0x0 DUP1 REVERT JUMPDEST PUSH1 0x0 PUSH1 0x8 PUSH1 0x0 SWAP1 SLOAD SWAP1 PUSH2 0x100 EXP SWAP1 DIV PUSH20 0xFFFFFFFFFFFFFFFFFFFFFFFFFFFFFFFFFFFFFFFF AND PUSH20 0xFFFFFFFFFFFFFFFFFFFFFFFFFFFFFFFFFFFFFFFF AND PUSH4 0x70A08231 PUSH1 0x2 PUSH1 0x0 SWAP1 SLOAD SWAP1 PUSH2 0x100 EXP SWAP1 DIV PUSH20 0xFFFFFFFFFFFFFFFFFFFFFFFFFFFFFFFFFFFFFFFF AND PUSH1 0x40 MLOAD DUP3 PUSH4 0xFFFFFFFF AND PUSH1 0xE0 SHL DUP2 MSTORE PUSH1 0x4 ADD PUSH2 0x38A SWAP2 SWAP1 PUSH2 0x12FC JUMP JUMPDEST PUSH1 0x20 PUSH1 0x40 MLOAD DUP1 DUP4 SUB DUP2 DUP7 DUP1 EXTCODESIZE ISZERO DUP1 ISZERO PUSH2 0x3A2 JUMPI PUSH1 0x0 DUP1 REVERT JUMPDEST POP GAS STATICCALL ISZERO DUP1 ISZERO PUSH2 0x3B6 JUMPI RETURNDATASIZE PUSH1 0x0 DUP1 RETURNDATACOPY RETURNDATASIZE PUSH1 0x0 REVERT JUMPDEST POP POP POP POP PUSH1 0x40 MLOAD RETURNDATASIZE PUSH1 0x1F NOT PUSH1 0x1F DUP3 ADD AND DUP3 ADD DUP1 PUSH1 0x40 MSTORE POP DUP2 ADD SWAP1 PUSH2 0x3DA SWAP2 SWAP1 PUSH2 0x1278 JUMP JUMPDEST SWAP1 POP PUSH1 0x0 PUSH1 0x8 PUSH1 0x0 SWAP1 SLOAD SWAP1 PUSH2 0x100 EXP SWAP1 DIV PUSH20 0xFFFFFFFFFFFFFFFFFFFFFFFFFFFFFFFFFFFFFFFF AND PUSH20 0xFFFFFFFFFFFFFFFFFFFFFFFFFFFFFFFFFFFFFFFF AND PUSH4 0x70A08231 PUSH1 0x4 PUSH1 0x0 SWAP1 SLOAD SWAP1 PUSH2 0x100 EXP SWAP1 DIV PUSH20 0xFFFFFFFFFFFFFFFFFFFFFFFFFFFFFFFFFFFFFFFF AND PUSH1 0x40 MLOAD DUP3 PUSH4 0xFFFFFFFF AND PUSH1 0xE0 SHL DUP2 MSTORE PUSH1 0x4 ADD PUSH2 0x45B SWAP2 SWAP1 PUSH2 0x12FC JUMP JUMPDEST PUSH1 0x20 PUSH1 0x40 MLOAD DUP1 DUP4 SUB DUP2 DUP7 DUP1 EXTCODESIZE ISZERO DUP1 ISZERO PUSH2 0x473 JUMPI PUSH1 0x0 DUP1 REVERT JUMPDEST POP GAS STATICCALL ISZERO DUP1 ISZERO PUSH2 0x487 JUMPI RETURNDATASIZE PUSH1 0x0 DUP1 RETURNDATACOPY RETURNDATASIZE PUSH1 0x0 REVERT JUMPDEST POP POP POP POP PUSH1 0x40 MLOAD RETURNDATASIZE PUSH1 0x1F NOT PUSH1 0x1F DUP3 ADD AND DUP3 ADD DUP1 PUSH1 0x40 MSTORE POP DUP2 ADD SWAP1 PUSH2 0x4AB SWAP2 SWAP1 PUSH2 0x1278 JUMP JUMPDEST SWAP1 POP PUSH1 0x0 PUSH1 0x8 PUSH1 0x0 SWAP1 SLOAD SWAP1 PUSH2 0x100 EXP SWAP1 DIV PUSH20 0xFFFFFFFFFFFFFFFFFFFFFFFFFFFFFFFFFFFFFFFF AND PUSH20 0xFFFFFFFFFFFFFFFFFFFFFFFFFFFFFFFFFFFFFFFF AND PUSH4 0x70A08231 CALLER PUSH1 0x40 MLOAD DUP3 PUSH4 0xFFFFFFFF AND PUSH1 0xE0 SHL DUP2 MSTORE PUSH1 0x4 ADD PUSH2 0x50A SWAP2 SWAP1 PUSH2 0x12E1 JUMP JUMPDEST PUSH1 0x20 PUSH1 0x40 MLOAD DUP1 DUP4 SUB DUP2 DUP7 DUP1 EXTCODESIZE ISZERO DUP1 ISZERO PUSH2 0x522 JUMPI PUSH1 0x0 DUP1 REVERT JUMPDEST POP GAS STATICCALL ISZERO DUP1 ISZERO PUSH2 0x536 JUMPI RETURNDATASIZE PUSH1 0x0 DUP1 RETURNDATACOPY RETURNDATASIZE PUSH1 0x0 REVERT JUMPDEST POP POP POP POP PUSH1 0x40 MLOAD RETURNDATASIZE PUSH1 0x1F NOT PUSH1 0x1F DUP3 ADD AND DUP3 ADD DUP1 PUSH1 0x40 MSTORE POP DUP2 ADD SWAP1 PUSH2 0x55A SWAP2 SWAP1 PUSH2 0x1278 JUMP JUMPDEST SWAP1 POP DUP3 DUP3 DUP3 SWAP6 POP SWAP6 POP SWAP6 POP POP POP POP SWAP1 SWAP2 SWAP3 JUMP JUMPDEST PUSH1 0x0 PUSH1 0x3 PUSH1 0x0 SWAP1 SLOAD SWAP1 PUSH2 0x100 EXP SWAP1 DIV PUSH20 0xFFFFFFFFFFFFFFFFFFFFFFFFFFFFFFFFFFFFFFFF AND PUSH20 0xFFFFFFFFFFFFFFFFFFFFFFFFFFFFFFFFFFFFFFFF AND ORIGIN PUSH20 0xFFFFFFFFFFFFFFFFFFFFFFFFFFFFFFFFFFFFFFFF AND EQ DUP1 PUSH2 0x618 JUMPI POP PUSH1 0x4 PUSH1 0x0 SWAP1 SLOAD SWAP1 PUSH2 0x100 EXP SWAP1 DIV PUSH20 0xFFFFFFFFFFFFFFFFFFFFFFFFFFFFFFFFFFFFFFFF AND PUSH20 0xFFFFFFFFFFFFFFFFFFFFFFFFFFFFFFFFFFFFFFFF AND ORIGIN PUSH20 0xFFFFFFFFFFFFFFFFFFFFFFFFFFFFFFFFFFFFFFFF AND EQ JUMPDEST DUP1 PUSH2 0x670 JUMPI POP PUSH1 0x2 PUSH1 0x0 SWAP1 SLOAD SWAP1 PUSH2 0x100 EXP SWAP1 DIV PUSH20 0xFFFFFFFFFFFFFFFFFFFFFFFFFFFFFFFFFFFFFFFF AND PUSH20 0xFFFFFFFFFFFFFFFFFFFFFFFFFFFFFFFFFFFFFFFF AND ORIGIN PUSH20 0xFFFFFFFFFFFFFFFFFFFFFFFFFFFFFFFFFFFFFFFF AND EQ JUMPDEST PUSH2 0x679 JUMPI PUSH1 0x0 DUP1 REVERT JUMPDEST PUSH1 0x0 PUSH1 0x8 PUSH1 0x0 SWAP1 SLOAD SWAP1 PUSH2 0x100 EXP SWAP1 DIV PUSH20 0xFFFFFFFFFFFFFFFFFFFFFFFFFFFFFFFFFFFFFFFF AND PUSH20 0xFFFFFFFFFFFFFFFFFFFFFFFFFFFFFFFFFFFFFFFF AND PUSH4 0x70A08231 ADDRESS PUSH1 0x40 MLOAD DUP3 PUSH4 0xFFFFFFFF AND PUSH1 0xE0 SHL DUP2 MSTORE PUSH1 0x4 ADD PUSH2 0x6D6 SWAP2 SWAP1 PUSH2 0x12E1 JUMP JUMPDEST PUSH1 0x20 PUSH1 0x40 MLOAD DUP1 DUP4 SUB DUP2 DUP7 DUP1 EXTCODESIZE ISZERO DUP1 ISZERO PUSH2 0x6EE JUMPI PUSH1 0x0 DUP1 REVERT JUMPDEST POP GAS STATICCALL ISZERO DUP1 ISZERO PUSH2 0x702 JUMPI RETURNDATASIZE PUSH1 0x0 DUP1 RETURNDATACOPY RETURNDATASIZE PUSH1 0x0 REVERT JUMPDEST POP POP POP POP PUSH1 0x40 MLOAD RETURNDATASIZE PUSH1 0x1F NOT PUSH1 0x1F DUP3 ADD AND DUP3 ADD DUP1 PUSH1 0x40 MSTORE POP DUP2 ADD SWAP1 PUSH2 0x726 SWAP2 SWAP1 PUSH2 0x1278 JUMP JUMPDEST SWAP1 POP DUP1 SWAP2 POP POP SWAP1 JUMP JUMPDEST PUSH1 0x0 DUP1 PUSH1 0x0 DUP1 PUSH1 0x0 DUP1 PUSH1 0x8 PUSH1 0x0 SWAP1 SLOAD SWAP1 PUSH2 0x100 EXP SWAP1 DIV PUSH20 0xFFFFFFFFFFFFFFFFFFFFFFFFFFFFFFFFFFFFFFFF AND PUSH20 0xFFFFFFFFFFFFFFFFFFFFFFFFFFFFFFFFFFFFFFFF AND PUSH4 0xDD62ED3E CALLER PUSH1 0x8 PUSH1 0x0 SWAP1 SLOAD SWAP1 PUSH2 0x100 EXP SWAP1 DIV PUSH20 0xFFFFFFFFFFFFFFFFFFFFFFFFFFFFFFFFFFFFFFFF AND PUSH1 0x40 MLOAD DUP4 PUSH4 0xFFFFFFFF AND PUSH1 0xE0 SHL DUP2 MSTORE PUSH1 0x4 ADD PUSH2 0x7B7 SWAP3 SWAP2 SWAP1 PUSH2 0x1369 JUMP JUMPDEST PUSH1 0x20 PUSH1 0x40 MLOAD DUP1 DUP4 SUB DUP2 DUP7 DUP1 EXTCODESIZE ISZERO DUP1 ISZERO PUSH2 0x7CF JUMPI PUSH1 0x0 DUP1 REVERT JUMPDEST POP GAS STATICCALL ISZERO DUP1 ISZERO PUSH2 0x7E3 JUMPI RETURNDATASIZE PUSH1 0x0 DUP1 RETURNDATACOPY RETURNDATASIZE PUSH1 0x0 REVERT JUMPDEST POP POP POP POP PUSH1 0x40 MLOAD RETURNDATASIZE PUSH1 0x1F NOT PUSH1 0x1F DUP3 ADD AND DUP3 ADD DUP1 PUSH1 0x40 MSTORE POP DUP2 ADD SWAP1 PUSH2 0x807 SWAP2 SWAP1 PUSH2 0x1278 JUMP JUMPDEST SWAP1 POP PUSH1 0x0 PUSH1 0x8 PUSH1 0x0 SWAP1 SLOAD SWAP1 PUSH2 0x100 EXP SWAP1 DIV PUSH20 0xFFFFFFFFFFFFFFFFFFFFFFFFFFFFFFFFFFFFFFFF AND PUSH20 0xFFFFFFFFFFFFFFFFFFFFFFFFFFFFFFFFFFFFFFFF AND PUSH4 0xDD62ED3E PUSH1 0x2 PUSH1 0x0 SWAP1 SLOAD SWAP1 PUSH2 0x100 EXP SWAP1 DIV PUSH20 0xFFFFFFFFFFFFFFFFFFFFFFFFFFFFFFFFFFFFFFFF AND PUSH1 0x8 PUSH1 0x0 SWAP1 SLOAD SWAP1 PUSH2 0x100 EXP SWAP1 DIV PUSH20 0xFFFFFFFFFFFFFFFFFFFFFFFFFFFFFFFFFFFFFFFF AND PUSH1 0x40 MLOAD DUP4 PUSH4 0xFFFFFFFF AND PUSH1 0xE0 SHL DUP2 MSTORE PUSH1 0x4 ADD PUSH2 0x8AC SWAP3 SWAP2 SWAP1 PUSH2 0x1317 JUMP JUMPDEST PUSH1 0x20 PUSH1 0x40 MLOAD DUP1 DUP4 SUB DUP2 DUP7 DUP1 EXTCODESIZE ISZERO DUP1 ISZERO PUSH2 0x8C4 JUMPI PUSH1 0x0 DUP1 REVERT JUMPDEST POP GAS STATICCALL ISZERO DUP1 ISZERO PUSH2 0x8D8 JUMPI RETURNDATASIZE PUSH1 0x0 DUP1 RETURNDATACOPY RETURNDATASIZE PUSH1 0x0 REVERT JUMPDEST POP POP POP POP PUSH1 0x40 MLOAD RETURNDATASIZE PUSH1 0x1F NOT PUSH1 0x1F DUP3 ADD AND DUP3 ADD DUP1 PUSH1 0x40 MSTORE POP DUP2 ADD SWAP1 PUSH2 0x8FC SWAP2 SWAP1 PUSH2 0x1278 JUMP JUMPDEST SWAP1 POP PUSH1 0x0 PUSH1 0x8 PUSH1 0x0 SWAP1 SLOAD SWAP1 PUSH2 0x100 EXP SWAP1 DIV PUSH20 0xFFFFFFFFFFFFFFFFFFFFFFFFFFFFFFFFFFFFFFFF AND PUSH20 0xFFFFFFFFFFFFFFFFFFFFFFFFFFFFFFFFFFFFFFFF AND PUSH4 0xDD62ED3E PUSH1 0x4 PUSH1 0x0 SWAP1 SLOAD SWAP1 PUSH2 0x100 EXP SWAP1 DIV PUSH20 0xFFFFFFFFFFFFFFFFFFFFFFFFFFFFFFFFFFFFFFFF AND PUSH1 0x8 PUSH1 0x0 SWAP1 SLOAD SWAP1 PUSH2 0x100 EXP SWAP1 DIV PUSH20 0xFFFFFFFFFFFFFFFFFFFFFFFFFFFFFFFFFFFFFFFF AND PUSH1 0x40 MLOAD DUP4 PUSH4 0xFFFFFFFF AND PUSH1 0xE0 SHL DUP2 MSTORE PUSH1 0x4 ADD PUSH2 0x9A1 SWAP3 SWAP2 SWAP1 PUSH2 0x1317 JUMP JUMPDEST PUSH1 0x20 PUSH1 0x40 MLOAD DUP1 DUP4 SUB DUP2 DUP7 DUP1 EXTCODESIZE ISZERO DUP1 ISZERO PUSH2 0x9B9 JUMPI PUSH1 0x0 DUP1 REVERT JUMPDEST POP GAS STATICCALL ISZERO DUP1 ISZERO PUSH2 0x9CD JUMPI RETURNDATASIZE PUSH1 0x0 DUP1 RETURNDATACOPY RETURNDATASIZE PUSH1 0x0 REVERT JUMPDEST POP POP POP POP PUSH1 0x40 MLOAD RETURNDATASIZE PUSH1 0x1F NOT PUSH1 0x1F DUP3 ADD AND DUP3 ADD DUP1 PUSH1 0x40 MSTORE POP DUP2 ADD SWAP1 PUSH2 0x9F1 SWAP2 SWAP1 PUSH2 0x1278 JUMP JUMPDEST SWAP1 POP PUSH1 0x0 PUSH1 0x8 PUSH1 0x0 SWAP1 SLOAD SWAP1 PUSH2 0x100 EXP SWAP1 DIV PUSH20 0xFFFFFFFFFFFFFFFFFFFFFFFFFFFFFFFFFFFFFFFF AND PUSH20 0xFFFFFFFFFFFFFFFFFFFFFFFFFFFFFFFFFFFFFFFF AND PUSH4 0xDD62ED3E PUSH1 0x8 PUSH1 0x0 SWAP1 SLOAD SWAP1 PUSH2 0x100 EXP SWAP1 DIV PUSH20 0xFFFFFFFFFFFFFFFFFFFFFFFFFFFFFFFFFFFFFFFF AND PUSH1 0x8 PUSH1 0x0 SWAP1 SLOAD SWAP1 PUSH2 0x100 EXP SWAP1 DIV PUSH20 0xFFFFFFFFFFFFFFFFFFFFFFFFFFFFFFFFFFFFFFFF AND PUSH1 0x40 MLOAD DUP4 PUSH4 0xFFFFFFFF AND PUSH1 0xE0 SHL DUP2 MSTORE PUSH1 0x4 ADD PUSH2 0xA96 SWAP3 SWAP2 SWAP1 PUSH2 0x1369 JUMP JUMPDEST PUSH1 0x20 PUSH1 0x40 MLOAD DUP1 DUP4 SUB DUP2 DUP7 DUP1 EXTCODESIZE ISZERO DUP1 ISZERO PUSH2 0xAAE JUMPI PUSH1 0x0 DUP1 REVERT JUMPDEST POP GAS STATICCALL ISZERO DUP1 ISZERO PUSH2 0xAC2 JUMPI RETURNDATASIZE PUSH1 0x0 DUP1 RETURNDATACOPY RETURNDATASIZE PUSH1 0x0 REVERT JUMPDEST POP POP POP POP PUSH1 0x40 MLOAD RETURNDATASIZE PUSH1 0x1F NOT PUSH1 0x1F DUP3 ADD AND DUP3 ADD DUP1 PUSH1 0x40 MSTORE POP DUP2 ADD SWAP1 PUSH2 0xAE6 SWAP2 SWAP1 PUSH2 0x1278 JUMP JUMPDEST SWAP1 POP PUSH1 0x0 PUSH1 0x8 PUSH1 0x0 SWAP1 SLOAD SWAP1 PUSH2 0x100 EXP SWAP1 DIV PUSH20 0xFFFFFFFFFFFFFFFFFFFFFFFFFFFFFFFFFFFFFFFF AND PUSH20 0xFFFFFFFFFFFFFFFFFFFFFFFFFFFFFFFFFFFFFFFF AND PUSH4 0xDD62ED3E ORIGIN PUSH1 0x8 PUSH1 0x0 SWAP1 SLOAD SWAP1 PUSH2 0x100 EXP SWAP1 DIV PUSH20 0xFFFFFFFFFFFFFFFFFFFFFFFFFFFFFFFFFFFFFFFF AND PUSH1 0x40 MLOAD DUP4 PUSH4 0xFFFFFFFF AND PUSH1 0xE0 SHL DUP2 MSTORE PUSH1 0x4 ADD PUSH2 0xB69 SWAP3 SWAP2 SWAP1 PUSH2 0x1369 JUMP JUMPDEST PUSH1 0x20 PUSH1 0x40 MLOAD DUP1 DUP4 SUB DUP2 DUP7 DUP1 EXTCODESIZE ISZERO DUP1 ISZERO PUSH2 0xB81 JUMPI PUSH1 0x0 DUP1 REVERT JUMPDEST POP GAS STATICCALL ISZERO DUP1 ISZERO PUSH2 0xB95 JUMPI RETURNDATASIZE PUSH1 0x0 DUP1 RETURNDATACOPY RETURNDATASIZE PUSH1 0x0 REVERT JUMPDEST POP POP POP POP PUSH1 0x40 MLOAD RETURNDATASIZE PUSH1 0x1F NOT PUSH1 0x1F DUP3 ADD AND DUP3 ADD DUP1 PUSH1 0x40 MSTORE POP DUP2 ADD SWAP1 PUSH2 0xBB9 SWAP2 SWAP1 PUSH2 0x1278 JUMP JUMPDEST SWAP1 POP DUP5 DUP5 DUP5 DUP5 DUP5 SWAP10 POP SWAP10 POP SWAP10 POP SWAP10 POP SWAP10 POP POP POP POP POP POP SWAP1 SWAP2 SWAP3 SWAP4 SWAP5 JUMP JUMPDEST PUSH1 0x0 SLOAD DUP2 JUMP JUMPDEST PUSH1 0x1 SLOAD DUP2 JUMP JUMPDEST PUSH1 0x0 DUP2 SWAP1 POP PUSH1 0x8 PUSH1 0x0 SWAP1 SLOAD SWAP1 PUSH2 0x100 EXP SWAP1 DIV PUSH20 0xFFFFFFFFFFFFFFFFFFFFFFFFFFFFFFFFFFFFFFFF AND PUSH20 0xFFFFFFFFFFFFFFFFFFFFFFFFFFFFFFFFFFFFFFFF AND PUSH4 0xA9059CBB PUSH1 0x4 PUSH1 0x0 SWAP1 SLOAD SWAP1 PUSH2 0x100 EXP SWAP1 DIV PUSH20 0xFFFFFFFFFFFFFFFFFFFFFFFFFFFFFFFFFFFFFFFF AND DUP4 PUSH1 0x40 MLOAD DUP4 PUSH4 0xFFFFFFFF AND PUSH1 0xE0 SHL DUP2 MSTORE PUSH1 0x4 ADD PUSH2 0xC66 SWAP3 SWAP2 SWAP1 PUSH2 0x1340 JUMP JUMPDEST PUSH1 0x20 PUSH1 0x40 MLOAD DUP1 DUP4 SUB DUP2 PUSH1 0x0 DUP8 DUP1 EXTCODESIZE ISZERO DUP1 ISZERO PUSH2 0xC80 JUMPI PUSH1 0x0 DUP1 REVERT JUMPDEST POP GAS CALL ISZERO DUP1 ISZERO PUSH2 0xC94 JUMPI RETURNDATASIZE PUSH1 0x0 DUP1 RETURNDATACOPY RETURNDATASIZE PUSH1 0x0 REVERT JUMPDEST POP POP POP POP PUSH1 0x40 MLOAD RETURNDATASIZE PUSH1 0x1F NOT PUSH1 0x1F DUP3 ADD AND DUP3 ADD DUP1 PUSH1 0x40 MSTORE POP DUP2 ADD SWAP1 PUSH2 0xCB8 SWAP2 SWAP1 PUSH2 0x121E JUMP JUMPDEST POP POP POP JUMP JUMPDEST PUSH1 0x0 DUP1 PUSH1 0x0 DUP1 PUSH1 0x0 DUP1 DUP7 SWAP1 POP PUSH1 0x0 PUSH1 0x8 PUSH1 0x0 SWAP1 SLOAD SWAP1 PUSH2 0x100 EXP SWAP1 DIV PUSH20 0xFFFFFFFFFFFFFFFFFFFFFFFFFFFFFFFFFFFFFFFF AND PUSH20 0xFFFFFFFFFFFFFFFFFFFFFFFFFFFFFFFFFFFFFFFF AND PUSH4 0x95EA7B3 CALLER DUP5 PUSH1 0x40 MLOAD DUP4 PUSH4 0xFFFFFFFF AND PUSH1 0xE0 SHL DUP2 MSTORE PUSH1 0x4 ADD PUSH2 0xD28 SWAP3 SWAP2 SWAP1 PUSH2 0x13C9 JUMP JUMPDEST PUSH1 0x20 PUSH1 0x40 MLOAD DUP1 DUP4 SUB DUP2 PUSH1 0x0 DUP8 DUP1 EXTCODESIZE ISZERO DUP1 ISZERO PUSH2 0xD42 JUMPI PUSH1 0x0 DUP1 REVERT JUMPDEST POP GAS CALL ISZERO DUP1 ISZERO PUSH2 0xD56 JUMPI RETURNDATASIZE PUSH1 0x0 DUP1 RETURNDATACOPY RETURNDATASIZE PUSH1 0x0 REVERT JUMPDEST POP POP POP POP PUSH1 0x40 MLOAD RETURNDATASIZE PUSH1 0x1F NOT PUSH1 0x1F DUP3 ADD AND DUP3 ADD DUP1 PUSH1 0x40 MSTORE POP DUP2 ADD SWAP1 PUSH2 0xD7A SWAP2 SWAP1 PUSH2 0x121E JUMP JUMPDEST SWAP1 POP PUSH1 0x0 PUSH1 0x8 PUSH1 0x0 SWAP1 SLOAD SWAP1 PUSH2 0x100 EXP SWAP1 DIV PUSH20 0xFFFFFFFFFFFFFFFFFFFFFFFFFFFFFFFFFFFFFFFF AND PUSH20 0xFFFFFFFFFFFFFFFFFFFFFFFFFFFFFFFFFFFFFFFF AND PUSH4 0x95EA7B3 PUSH1 0x4 PUSH1 0x0 SWAP1 SLOAD SWAP1 PUSH2 0x100 EXP SWAP1 DIV PUSH20 0xFFFFFFFFFFFFFFFFFFFFFFFFFFFFFFFFFFFFFFFF AND DUP6 PUSH1 0x40 MLOAD DUP4 PUSH4 0xFFFFFFFF AND PUSH1 0xE0 SHL DUP2 MSTORE PUSH1 0x4 ADD PUSH2 0xDFD SWAP3 SWAP2 SWAP1 PUSH2 0x1340 JUMP JUMPDEST PUSH1 0x20 PUSH1 0x40 MLOAD DUP1 DUP4 SUB DUP2 PUSH1 0x0 DUP8 DUP1 EXTCODESIZE ISZERO DUP1 ISZERO PUSH2 0xE17 JUMPI PUSH1 0x0 DUP1 REVERT JUMPDEST POP GAS CALL ISZERO DUP1 ISZERO PUSH2 0xE2B JUMPI RETURNDATASIZE PUSH1 0x0 DUP1 RETURNDATACOPY RETURNDATASIZE PUSH1 0x0 REVERT JUMPDEST POP POP POP POP PUSH1 0x40 MLOAD RETURNDATASIZE PUSH1 0x1F NOT PUSH1 0x1F DUP3 ADD AND DUP3 ADD DUP1 PUSH1 0x40 MSTORE POP DUP2 ADD SWAP1 PUSH2 0xE4F SWAP2 SWAP1 PUSH2 0x121E JUMP JUMPDEST SWAP1 POP PUSH1 0x0 PUSH1 0x8 PUSH1 0x0 SWAP1 SLOAD SWAP1 PUSH2 0x100 EXP SWAP1 DIV PUSH20 0xFFFFFFFFFFFFFFFFFFFFFFFFFFFFFFFFFFFFFFFF AND PUSH20 0xFFFFFFFFFFFFFFFFFFFFFFFFFFFFFFFFFFFFFFFF AND PUSH4 0x95EA7B3 PUSH1 0x2 PUSH1 0x0 SWAP1 SLOAD SWAP1 PUSH2 0x100 EXP SWAP1 DIV PUSH20 0xFFFFFFFFFFFFFFFFFFFFFFFFFFFFFFFFFFFFFFFF AND DUP7 PUSH1 0x40 MLOAD DUP4 PUSH4 0xFFFFFFFF AND PUSH1 0xE0 SHL DUP2 MSTORE PUSH1 0x4 ADD PUSH2 0xED2 SWAP3 SWAP2 SWAP1 PUSH2 0x1340 JUMP JUMPDEST PUSH1 0x20 PUSH1 0x40 MLOAD DUP1 DUP4 SUB DUP2 PUSH1 0x0 DUP8 DUP1 EXTCODESIZE ISZERO DUP1 ISZERO PUSH2 0xEEC JUMPI PUSH1 0x0 DUP1 REVERT JUMPDEST POP GAS CALL ISZERO DUP1 ISZERO PUSH2 0xF00 JUMPI RETURNDATASIZE PUSH1 0x0 DUP1 RETURNDATACOPY RETURNDATASIZE PUSH1 0x0 REVERT JUMPDEST POP POP POP POP PUSH1 0x40 MLOAD RETURNDATASIZE PUSH1 0x1F NOT PUSH1 0x1F DUP3 ADD AND DUP3 ADD DUP1 PUSH1 0x40 MSTORE POP DUP2 ADD SWAP1 PUSH2 0xF24 SWAP2 SWAP1 PUSH2 0x121E JUMP JUMPDEST SWAP1 POP PUSH1 0x0 PUSH1 0x8 PUSH1 0x0 SWAP1 SLOAD SWAP1 PUSH2 0x100 EXP SWAP1 DIV PUSH20 0xFFFFFFFFFFFFFFFFFFFFFFFFFFFFFFFFFFFFFFFF AND PUSH20 0xFFFFFFFFFFFFFFFFFFFFFFFFFFFFFFFFFFFFFFFF AND PUSH4 0x95EA7B3 PUSH1 0x8 PUSH1 0x0 SWAP1 SLOAD SWAP1 PUSH2 0x100 EXP SWAP1 DIV PUSH20 0xFFFFFFFFFFFFFFFFFFFFFFFFFFFFFFFFFFFFFFFF AND DUP8 PUSH1 0x40 MLOAD DUP4 PUSH4 0xFFFFFFFF AND PUSH1 0xE0 SHL DUP2 MSTORE PUSH1 0x4 ADD PUSH2 0xFA7 SWAP3 SWAP2 SWAP1 PUSH2 0x13C9 JUMP JUMPDEST PUSH1 0x20 PUSH1 0x40 MLOAD DUP1 DUP4 SUB DUP2 PUSH1 0x0 DUP8 DUP1 EXTCODESIZE ISZERO DUP1 ISZERO PUSH2 0xFC1 JUMPI PUSH1 0x0 DUP1 REVERT JUMPDEST POP GAS CALL ISZERO DUP1 ISZERO PUSH2 0xFD5 JUMPI RETURNDATASIZE PUSH1 0x0 DUP1 RETURNDATACOPY RETURNDATASIZE PUSH1 0x0 REVERT JUMPDEST POP POP POP POP PUSH1 0x40 MLOAD RETURNDATASIZE PUSH1 0x1F NOT PUSH1 0x1F DUP3 ADD AND DUP3 ADD DUP1 PUSH1 0x40 MSTORE POP DUP2 ADD SWAP1 PUSH2 0xFF9 SWAP2 SWAP1 PUSH2 0x121E JUMP JUMPDEST SWAP1 POP PUSH1 0x0 PUSH1 0x8 PUSH1 0x0 SWAP1 SLOAD SWAP1 PUSH2 0x100 EXP SWAP1 DIV PUSH20 0xFFFFFFFFFFFFFFFFFFFFFFFFFFFFFFFFFFFFFFFF AND PUSH20 0xFFFFFFFFFFFFFFFFFFFFFFFFFFFFFFFFFFFFFFFF AND PUSH4 0x95EA7B3 ORIGIN DUP9 PUSH1 0x40 MLOAD DUP4 PUSH4 0xFFFFFFFF AND PUSH1 0xE0 SHL DUP2 MSTORE PUSH1 0x4 ADD PUSH2 0x105A SWAP3 SWAP2 SWAP1 PUSH2 0x13C9 JUMP JUMPDEST PUSH1 0x20 PUSH1 0x40 MLOAD DUP1 DUP4 SUB DUP2 PUSH1 0x0 DUP8 DUP1 EXTCODESIZE ISZERO DUP1 ISZERO PUSH2 0x1074 JUMPI PUSH1 0x0 DUP1 REVERT JUMPDEST POP GAS CALL ISZERO DUP1 ISZERO PUSH2 0x1088 JUMPI RETURNDATASIZE PUSH1 0x0 DUP1 RETURNDATACOPY RETURNDATASIZE PUSH1 0x0 REVERT JUMPDEST POP POP POP POP PUSH1 0x40 MLOAD RETURNDATASIZE PUSH1 0x1F NOT PUSH1 0x1F DUP3 ADD AND DUP3 ADD DUP1 PUSH1 0x40 MSTORE POP DUP2 ADD SWAP1 PUSH2 0x10AC SWAP2 SWAP1 PUSH2 0x121E JUMP JUMPDEST SWAP1 POP DUP5 DUP5 DUP5 DUP5 DUP5 SWAP11 POP SWAP11 POP SWAP11 POP SWAP11 POP SWAP11 POP POP POP POP POP POP POP SWAP2 SWAP4 SWAP6 SWAP1 SWAP3 SWAP5 POP JUMP JUMPDEST PUSH1 0x0 DUP1 DUP3 SWAP1 POP PUSH1 0x8 PUSH1 0x0 SWAP1 SLOAD SWAP1 PUSH2 0x100 EXP SWAP1 DIV PUSH20 0xFFFFFFFFFFFFFFFFFFFFFFFFFFFFFFFFFFFFFFFF AND PUSH20 0xFFFFFFFFFFFFFFFFFFFFFFFFFFFFFFFFFFFFFFFF AND PUSH4 0x23B872DD PUSH1 0x8 PUSH1 0x0 SWAP1 SLOAD SWAP1 PUSH2 0x100 EXP SWAP1 DIV PUSH20 0xFFFFFFFFFFFFFFFFFFFFFFFFFFFFFFFFFFFFFFFF AND ADDRESS DUP5 PUSH1 0x40 MLOAD DUP5 PUSH4 0xFFFFFFFF AND PUSH1 0xE0 SHL DUP2 MSTORE PUSH1 0x4 ADD PUSH2 0x1153 SWAP4 SWAP3 SWAP2 SWAP1 PUSH2 0x1392 JUMP JUMPDEST PUSH1 0x20 PUSH1 0x40 MLOAD DUP1 DUP4 SUB DUP2 PUSH1 0x0 DUP8 DUP1 EXTCODESIZE ISZERO DUP1 ISZERO PUSH2 0x116D JUMPI PUSH1 0x0 DUP1 REVERT JUMPDEST POP GAS CALL ISZERO DUP1 ISZERO PUSH2 0x1181 JUMPI RETURNDATASIZE PUSH1 0x0 DUP1 RETURNDATACOPY RETURNDATASIZE PUSH1 0x0 REVERT JUMPDEST POP POP POP POP PUSH1 0x40 MLOAD RETURNDATASIZE PUSH1 0x1F NOT PUSH1 0x1F DUP3 ADD AND DUP3 ADD DUP1 PUSH1 0x40 MSTORE POP DUP2 ADD SWAP1 PUSH2 0x11A5 SWAP2 SWAP1 PUSH2 0x121E JUMP JUMPDEST SWAP2 POP POP SWAP2 SWAP1 POP JUMP JUMPDEST PUSH1 0x4 PUSH1 0x14 SWAP1 SLOAD SWAP1 PUSH2 0x100 EXP SWAP1 DIV PUSH1 0xFF AND DUP2 JUMP JUMPDEST PUSH1 0x0 CALLER PUSH20 0xFFFFFFFFFFFFFFFFFFFFFFFFFFFFFFFFFFFFFFFF AND BALANCE SWAP1 POP SWAP1 JUMP JUMPDEST PUSH1 0x0 DUP2 MLOAD SWAP1 POP PUSH2 0x11EE DUP2 PUSH2 0x1588 JUMP JUMPDEST SWAP3 SWAP2 POP POP JUMP JUMPDEST PUSH1 0x0 DUP2 CALLDATALOAD SWAP1 POP PUSH2 0x1203 DUP2 PUSH2 0x159F JUMP JUMPDEST SWAP3 SWAP2 POP POP JUMP JUMPDEST PUSH1 0x0 DUP2 MLOAD SWAP1 POP PUSH2 0x1218 DUP2 PUSH2 0x159F JUMP JUMPDEST SWAP3 SWAP2 POP POP JUMP JUMPDEST PUSH1 0x0 PUSH1 0x20 DUP3 DUP5 SUB SLT ISZERO PUSH2 0x1234 JUMPI PUSH2 0x1233 PUSH2 0x1583 JUMP JUMPDEST JUMPDEST PUSH1 0x0 PUSH2 0x1242 DUP5 DUP3 DUP6 ADD PUSH2 0x11DF JUMP JUMPDEST SWAP2 POP POP SWAP3 SWAP2 POP POP JUMP JUMPDEST PUSH1 0x0 PUSH1 0x20 DUP3 DUP5 SUB SLT ISZERO PUSH2 0x1261 JUMPI PUSH2 0x1260 PUSH2 0x1583 JUMP JUMPDEST JUMPDEST PUSH1 0x0 PUSH2 0x126F DUP5 DUP3 DUP6 ADD PUSH2 0x11F4 JUMP JUMPDEST SWAP2 POP POP SWAP3 SWAP2 POP POP JUMP JUMPDEST PUSH1 0x0 PUSH1 0x20 DUP3 DUP5 SUB SLT ISZERO PUSH2 0x128E JUMPI PUSH2 0x128D PUSH2 0x1583 JUMP JUMPDEST JUMPDEST PUSH1 0x0 PUSH2 0x129C DUP5 DUP3 DUP6 ADD PUSH2 0x1209 JUMP JUMPDEST SWAP2 POP POP SWAP3 SWAP2 POP POP JUMP JUMPDEST PUSH2 0x12AE DUP2 PUSH2 0x154D JUMP JUMPDEST DUP3 MSTORE POP POP JUMP JUMPDEST PUSH2 0x12BD DUP2 PUSH2 0x1505 JUMP JUMPDEST DUP3 MSTORE POP POP JUMP JUMPDEST PUSH2 0x12CC DUP2 PUSH2 0x1517 JUMP JUMPDEST DUP3 MSTORE POP POP JUMP JUMPDEST PUSH2 0x12DB DUP2 PUSH2 0x1543 JUMP JUMPDEST DUP3 MSTORE POP POP JUMP JUMPDEST PUSH1 0x0 PUSH1 0x20 DUP3 ADD SWAP1 POP PUSH2 0x12F6 PUSH1 0x0 DUP4 ADD DUP5 PUSH2 0x12B4 JUMP JUMPDEST SWAP3 SWAP2 POP POP JUMP JUMPDEST PUSH1 0x0 PUSH1 0x20 DUP3 ADD SWAP1 POP PUSH2 0x1311 PUSH1 0x0 DUP4 ADD DUP5 PUSH2 0x12A5 JUMP JUMPDEST SWAP3 SWAP2 POP POP JUMP JUMPDEST PUSH1 0x0 PUSH1 0x40 DUP3 ADD SWAP1 POP PUSH2 0x132C PUSH1 0x0 DUP4 ADD DUP6 PUSH2 0x12A5 JUMP JUMPDEST PUSH2 0x1339 PUSH1 0x20 DUP4 ADD DUP5 PUSH2 0x12B4 JUMP JUMPDEST SWAP4 SWAP3 POP POP POP JUMP JUMPDEST PUSH1 0x0 PUSH1 0x40 DUP3 ADD SWAP1 POP PUSH2 0x1355 PUSH1 0x0 DUP4 ADD DUP6 PUSH2 0x12A5 JUMP JUMPDEST PUSH2 0x1362 PUSH1 0x20 DUP4 ADD DUP5 PUSH2 0x12D2 JUMP JUMPDEST SWAP4 SWAP3 POP POP POP JUMP JUMPDEST PUSH1 0x0 PUSH1 0x40 DUP3 ADD SWAP1 POP PUSH2 0x137E PUSH1 0x0 DUP4 ADD DUP6 PUSH2 0x12B4 JUMP JUMPDEST PUSH2 0x138B PUSH1 0x20 DUP4 ADD DUP5 PUSH2 0x12B4 JUMP JUMPDEST SWAP4 SWAP3 POP POP POP JUMP JUMPDEST PUSH1 0x0 PUSH1 0x60 DUP3 ADD SWAP1 POP PUSH2 0x13A7 PUSH1 0x0 DUP4 ADD DUP7 PUSH2 0x12B4 JUMP JUMPDEST PUSH2 0x13B4 PUSH1 0x20 DUP4 ADD DUP6 PUSH2 0x12B4 JUMP JUMPDEST PUSH2 0x13C1 PUSH1 0x40 DUP4 ADD DUP5 PUSH2 0x12D2 JUMP JUMPDEST SWAP5 SWAP4 POP POP POP POP JUMP JUMPDEST PUSH1 0x0 PUSH1 0x40 DUP3 ADD SWAP1 POP PUSH2 0x13DE PUSH1 0x0 DUP4 ADD DUP6 PUSH2 0x12B4 JUMP JUMPDEST PUSH2 0x13EB PUSH1 0x20 DUP4 ADD DUP5 PUSH2 0x12D2 JUMP JUMPDEST SWAP4 SWAP3 POP POP POP JUMP JUMPDEST PUSH1 0x0 PUSH1 0x20 DUP3 ADD SWAP1 POP PUSH2 0x1407 PUSH1 0x0 DUP4 ADD DUP5 PUSH2 0x12C3 JUMP JUMPDEST SWAP3 SWAP2 POP POP JUMP JUMPDEST PUSH1 0x0 PUSH1 0xA0 DUP3 ADD SWAP1 POP PUSH2 0x1422 PUSH1 0x0 DUP4 ADD DUP9 PUSH2 0x12C3 JUMP JUMPDEST PUSH2 0x142F PUSH1 0x20 DUP4 ADD DUP8 PUSH2 0x12C3 JUMP JUMPDEST PUSH2 0x143C PUSH1 0x40 DUP4 ADD DUP7 PUSH2 0x12C3 JUMP JUMPDEST PUSH2 0x1449 PUSH1 0x60 DUP4 ADD DUP6 PUSH2 0x12C3 JUMP JUMPDEST PUSH2 0x1456 PUSH1 0x80 DUP4 ADD DUP5 PUSH2 0x12C3 JUMP JUMPDEST SWAP7 SWAP6 POP POP POP POP POP POP JUMP JUMPDEST PUSH1 0x0 PUSH1 0x20 DUP3 ADD SWAP1 POP PUSH2 0x1475 PUSH1 0x0 DUP4 ADD DUP5 PUSH2 0x12D2 JUMP JUMPDEST SWAP3 SWAP2 POP POP JUMP JUMPDEST PUSH1 0x0 PUSH1 0x60 DUP3 ADD SWAP1 POP PUSH2 0x1490 PUSH1 0x0 DUP4 ADD DUP7 PUSH2 0x12D2 JUMP JUMPDEST PUSH2 0x149D PUSH1 0x20 DUP4 ADD DUP6 PUSH2 0x12D2 JUMP JUMPDEST PUSH2 0x14AA PUSH1 0x40 DUP4 ADD DUP5 PUSH2 0x12D2 JUMP JUMPDEST SWAP5 SWAP4 POP POP POP POP JUMP JUMPDEST PUSH1 0x0 PUSH1 0xA0 DUP3 ADD SWAP1 POP PUSH2 0x14C7 PUSH1 0x0 DUP4 ADD DUP9 PUSH2 0x12D2 JUMP JUMPDEST PUSH2 0x14D4 PUSH1 0x20 DUP4 ADD DUP8 PUSH2 0x12D2 JUMP JUMPDEST PUSH2 0x14E1 PUSH1 0x40 DUP4 ADD DUP7 PUSH2 0x12D2 JUMP JUMPDEST PUSH2 0x14EE PUSH1 0x60 DUP4 ADD DUP6 PUSH2 0x12D2 JUMP JUMPDEST PUSH2 0x14FB PUSH1 0x80 DUP4 ADD DUP5 PUSH2 0x12D2 JUMP JUMPDEST SWAP7 SWAP6 POP POP POP POP POP POP JUMP JUMPDEST PUSH1 0x0 PUSH2 0x1510 DUP3 PUSH2 0x1523 JUMP JUMPDEST SWAP1 POP SWAP2 SWAP1 POP JUMP JUMPDEST PUSH1 0x0 DUP2 ISZERO ISZERO SWAP1 POP SWAP2 SWAP1 POP JUMP JUMPDEST PUSH1 0x0 PUSH20 0xFFFFFFFFFFFFFFFFFFFFFFFFFFFFFFFFFFFFFFFF DUP3 AND SWAP1 POP SWAP2 SWAP1 POP JUMP JUMPDEST PUSH1 0x0 DUP2 SWAP1 POP SWAP2 SWAP1 POP JUMP JUMPDEST PUSH1 0x0 PUSH2 0x1558 DUP3 PUSH2 0x155F JUMP JUMPDEST SWAP1 POP SWAP2 SWAP1 POP JUMP JUMPDEST PUSH1 0x0 PUSH2 0x156A DUP3 PUSH2 0x1571 JUMP JUMPDEST SWAP1 POP SWAP2 SWAP1 POP JUMP JUMPDEST PUSH1 0x0 PUSH2 0x157C DUP3 PUSH2 0x1523 JUMP JUMPDEST SWAP1 POP SWAP2 SWAP1 POP JUMP JUMPDEST PUSH1 0x0 DUP1 REVERT JUMPDEST PUSH2 0x1591 DUP2 PUSH2 0x1517 JUMP JUMPDEST DUP2 EQ PUSH2 0x159C JUMPI PUSH1 0x0 DUP1 REVERT JUMPDEST POP JUMP JUMPDEST PUSH2 0x15A8 DUP2 PUSH2 0x1543 JUMP JUMPDEST DUP2 EQ PUSH2 0x15B3 JUMPI PUSH1 0x0 DUP1 REVERT JUMPDEST POP JUMP INVALID LOG2 PUSH5 0x6970667358 0x22 SLT KECCAK256 0x2F 0xD0 SLOAD 0x23 ISZERO TIMESTAMP 0x25 JUMPDEST PUSH3 0xEFBF 0xC 0xE 0x21 PUSH2 0x92D9 PUSH27 0x10C5D99412636FC4B53B96D69C64736F6C63430008070033000000 "
				},
				"gasEstimates": {
					"creation": {
						"codeDepositCost": "1122400",
						"executionCost": "infinite",
						"totalCost": "infinite"
					},
					"external": {
						"approveAndTransferUSDC(uint256)": "infinite",
						"approveTransfer(uint256)": "infinite",
						"checkAllowance()": "infinite",
						"dispute()": "2609",
						"disputeRelease()": "2429",
						"getBalance()": "340",
						"getBuyerUsdcBalance()": "infinite",
						"getContractUsdcBalance()": "infinite",
						"getSenderBalance()": "3052",
						"payContract(uint256)": "infinite",
						"saleRelease()": "2518"
					}
				},
				"methodIdentifiers": {
					"approveAndTransferUSDC(uint256)": "db3999cd",
					"approveTransfer(uint256)": "cacca4a0",
					"checkAllowance()": "9405de64",
					"dispute()": "f240f7c3",
					"disputeRelease()": "a5c41649",
					"getBalance()": "12065fe0",
					"getBuyerUsdcBalance()": "1ba32439",
					"getContractUsdcBalance()": "44b2dc85",
					"getSenderBalance()": "ff18253b",
					"payContract(uint256)": "c31d8a82",
					"saleRelease()": "a1c53047"
				}
			},
			"storageLayout": {
				"storage": [
					{
						"astId": 1029,
						"contract": "contracts/erc20htlc3.sol:Peacio",
						"label": "saleRelease",
						"offset": 0,
						"slot": "0",
						"type": "t_uint256"
					},
					{
						"astId": 1031,
						"contract": "contracts/erc20htlc3.sol:Peacio",
						"label": "disputeRelease",
						"offset": 0,
						"slot": "1",
						"type": "t_uint256"
					},
					{
						"astId": 1033,
						"contract": "contracts/erc20htlc3.sol:Peacio",
						"label": "buyer",
						"offset": 0,
						"slot": "2",
						"type": "t_address_payable"
					},
					{
						"astId": 1035,
						"contract": "contracts/erc20htlc3.sol:Peacio",
						"label": "notary",
						"offset": 0,
						"slot": "3",
						"type": "t_address"
					},
					{
						"astId": 1037,
						"contract": "contracts/erc20htlc3.sol:Peacio",
						"label": "seller",
						"offset": 0,
						"slot": "4",
						"type": "t_address_payable"
					},
					{
						"astId": 1039,
						"contract": "contracts/erc20htlc3.sol:Peacio",
						"label": "dispute",
						"offset": 20,
						"slot": "4",
						"type": "t_bool"
					},
					{
						"astId": 1042,
						"contract": "contracts/erc20htlc3.sol:Peacio",
						"label": "usdcAddressAvax",
						"offset": 0,
						"slot": "5",
						"type": "t_address"
					},
					{
						"astId": 1045,
						"contract": "contracts/erc20htlc3.sol:Peacio",
						"label": "usdcAddressPolygon",
						"offset": 0,
						"slot": "6",
						"type": "t_address"
					},
					{
						"astId": 1051,
						"contract": "contracts/erc20htlc3.sol:Peacio",
						"label": "usdcAddressDERC20",
						"offset": 0,
						"slot": "7",
						"type": "t_address_payable"
					},
					{
						"astId": 1053,
						"contract": "contracts/erc20htlc3.sol:Peacio",
						"label": "usdcAddress",
						"offset": 0,
						"slot": "8",
						"type": "t_address"
					}
				],
				"types": {
					"t_address": {
						"encoding": "inplace",
						"label": "address",
						"numberOfBytes": "20"
					},
					"t_address_payable": {
						"encoding": "inplace",
						"label": "address payable",
						"numberOfBytes": "20"
					},
					"t_bool": {
						"encoding": "inplace",
						"label": "bool",
						"numberOfBytes": "1"
					},
					"t_uint256": {
						"encoding": "inplace",
						"label": "uint256",
						"numberOfBytes": "32"
					}
				}
			},
			"userdoc": {
				"kind": "user",
				"methods": {},
				"version": 1
			}
		}
	}
}