{
	"contracts/erc20escrow.sol": {
		"ERC20Escrow": {
			"abi": [
				{
					"inputs": [
						{
							"internalType": "address",
							"name": "_seller",
							"type": "address"
						},
						{
							"internalType": "address",
							"name": "_tokenAddress",
							"type": "address"
						}
					],
					"stateMutability": "nonpayable",
					"type": "constructor"
				},
				{
					"inputs": [
						{
							"internalType": "address",
							"name": "_buyer",
							"type": "address"
						}
					],
					"name": "allowancecheck",
					"outputs": [
						{
							"internalType": "uint256",
							"name": "",
							"type": "uint256"
						}
					],
					"stateMutability": "view",
					"type": "function"
				},
				{
					"inputs": [],
					"name": "buyer",
					"outputs": [
						{
							"internalType": "address payable",
							"name": "",
							"type": "address"
						}
					],
					"stateMutability": "view",
					"type": "function"
				},
				{
					"inputs": [],
					"name": "cancel",
					"outputs": [],
					"stateMutability": "nonpayable",
					"type": "function"
				},
				{
					"inputs": [
						{
							"internalType": "address",
							"name": "_buyer",
							"type": "address"
						},
						{
							"internalType": "uint256",
							"name": "_amount",
							"type": "uint256"
						}
					],
					"name": "deposit",
					"outputs": [],
					"stateMutability": "nonpayable",
					"type": "function"
				},
				{
					"inputs": [],
					"name": "depositAmount",
					"outputs": [
						{
							"internalType": "uint256",
							"name": "",
							"type": "uint256"
						}
					],
					"stateMutability": "view",
					"type": "function"
				},
				{
					"inputs": [],
					"name": "release",
					"outputs": [],
					"stateMutability": "nonpayable",
					"type": "function"
				},
				{
					"inputs": [],
					"name": "releaseTime",
					"outputs": [
						{
							"internalType": "uint256",
							"name": "",
							"type": "uint256"
						}
					],
					"stateMutability": "view",
					"type": "function"
				},
				{
					"inputs": [],
					"name": "seller",
					"outputs": [
						{
							"internalType": "address payable",
							"name": "",
							"type": "address"
						}
					],
					"stateMutability": "view",
					"type": "function"
				},
				{
					"inputs": [],
					"name": "token",
					"outputs": [
						{
							"internalType": "contract IERC20",
							"name": "",
							"type": "address"
						}
					],
					"stateMutability": "view",
					"type": "function"
				},
				{
					"inputs": [],
					"name": "tokenAddress",
					"outputs": [
						{
							"internalType": "address",
							"name": "",
							"type": "address"
						}
					],
					"stateMutability": "view",
					"type": "function"
				}
			],
			"devdoc": {
				"kind": "dev",
				"methods": {},
				"version": 1
			},
			"evm": {
				"assembly": "    /* \"contracts/erc20escrow.sol\":159:1440  contract ERC20Escrow {\r... */\n  mstore(0x40, 0x80)\n    /* \"contracts/erc20escrow.sol\":388:565  constructor(address _seller, address _tokenAddress)    {\r... */\n  callvalue\n  dup1\n  iszero\n  tag_1\n  jumpi\n  0x00\n  dup1\n  revert\ntag_1:\n  pop\n  mload(0x40)\n  sub(codesize, bytecodeSize)\n  dup1\n  bytecodeSize\n  dup4\n  codecopy\n  dup2\n  dup2\n  add\n  0x40\n  mstore\n  dup2\n  add\n  swap1\n  tag_2\n  swap2\n  swap1\n  tag_3\n  jump\t// in\ntag_2:\n    /* \"contracts/erc20escrow.sol\":471:478  _seller */\n  dup2\n    /* \"contracts/erc20escrow.sol\":454:460  seller */\n  0x00\n  dup1\n    /* \"contracts/erc20escrow.sol\":454:479  seller = payable(_seller) */\n  0x0100\n  exp\n  dup2\n  sload\n  dup2\n  0xffffffffffffffffffffffffffffffffffffffff\n  mul\n  not\n  and\n  swap1\n  dup4\n  0xffffffffffffffffffffffffffffffffffffffff\n  and\n  mul\n  or\n  swap1\n  sstore\n  pop\n    /* \"contracts/erc20escrow.sol\":505:518  _tokenAddress */\n  dup1\n    /* \"contracts/erc20escrow.sol\":490:502  tokenAddress */\n  0x02\n  0x00\n    /* \"contracts/erc20escrow.sol\":490:518  tokenAddress = _tokenAddress */\n  0x0100\n  exp\n  dup2\n  sload\n  dup2\n  0xffffffffffffffffffffffffffffffffffffffff\n  mul\n  not\n  and\n  swap1\n  dup4\n  0xffffffffffffffffffffffffffffffffffffffff\n  and\n  mul\n  or\n  swap1\n  sstore\n  pop\n    /* \"contracts/erc20escrow.sol\":544:556  tokenAddress */\n  0x02\n  0x00\n  swap1\n  sload\n  swap1\n  0x0100\n  exp\n  swap1\n  div\n  0xffffffffffffffffffffffffffffffffffffffff\n  and\n    /* \"contracts/erc20escrow.sol\":529:534  token */\n  0x03\n  0x00\n    /* \"contracts/erc20escrow.sol\":529:557  token = IERC20(tokenAddress) */\n  0x0100\n  exp\n  dup2\n  sload\n  dup2\n  0xffffffffffffffffffffffffffffffffffffffff\n  mul\n  not\n  and\n  swap1\n  dup4\n  0xffffffffffffffffffffffffffffffffffffffff\n  and\n  mul\n  or\n  swap1\n  sstore\n  pop\n    /* \"contracts/erc20escrow.sol\":388:565  constructor(address _seller, address _tokenAddress)    {\r... */\n  pop\n  pop\n    /* \"contracts/erc20escrow.sol\":159:1440  contract ERC20Escrow {\r... */\n  jump(tag_6)\n    /* \"#utility.yul\":7:150   */\ntag_8:\n    /* \"#utility.yul\":64:69   */\n  0x00\n    /* \"#utility.yul\":95:101   */\n  dup2\n    /* \"#utility.yul\":89:102   */\n  mload\n    /* \"#utility.yul\":80:102   */\n  swap1\n  pop\n    /* \"#utility.yul\":111:144   */\n  tag_10\n    /* \"#utility.yul\":138:143   */\n  dup2\n    /* \"#utility.yul\":111:144   */\n  tag_11\n  jump\t// in\ntag_10:\n    /* \"#utility.yul\":7:150   */\n  swap3\n  swap2\n  pop\n  pop\n  jump\t// out\n    /* \"#utility.yul\":156:663   */\ntag_3:\n    /* \"#utility.yul\":235:241   */\n  0x00\n    /* \"#utility.yul\":243:249   */\n  dup1\n    /* \"#utility.yul\":292:294   */\n  0x40\n    /* \"#utility.yul\":280:289   */\n  dup4\n    /* \"#utility.yul\":271:278   */\n  dup6\n    /* \"#utility.yul\":267:290   */\n  sub\n    /* \"#utility.yul\":263:295   */\n  slt\n    /* \"#utility.yul\":260:379   */\n  iszero\n  tag_13\n  jumpi\n    /* \"#utility.yul\":298:377   */\n  tag_14\n  tag_15\n  jump\t// in\ntag_14:\n    /* \"#utility.yul\":260:379   */\ntag_13:\n    /* \"#utility.yul\":418:419   */\n  0x00\n    /* \"#utility.yul\":443:507   */\n  tag_16\n    /* \"#utility.yul\":499:506   */\n  dup6\n    /* \"#utility.yul\":490:496   */\n  dup3\n    /* \"#utility.yul\":479:488   */\n  dup7\n    /* \"#utility.yul\":475:497   */\n  add\n    /* \"#utility.yul\":443:507   */\n  tag_8\n  jump\t// in\ntag_16:\n    /* \"#utility.yul\":433:507   */\n  swap3\n  pop\n    /* \"#utility.yul\":389:517   */\n  pop\n    /* \"#utility.yul\":556:558   */\n  0x20\n    /* \"#utility.yul\":582:646   */\n  tag_17\n    /* \"#utility.yul\":638:645   */\n  dup6\n    /* \"#utility.yul\":629:635   */\n  dup3\n    /* \"#utility.yul\":618:627   */\n  dup7\n    /* \"#utility.yul\":614:636   */\n  add\n    /* \"#utility.yul\":582:646   */\n  tag_8\n  jump\t// in\ntag_17:\n    /* \"#utility.yul\":572:646   */\n  swap2\n  pop\n    /* \"#utility.yul\":527:656   */\n  pop\n    /* \"#utility.yul\":156:663   */\n  swap3\n  pop\n  swap3\n  swap1\n  pop\n  jump\t// out\n    /* \"#utility.yul\":750:846   */\ntag_20:\n    /* \"#utility.yul\":787:794   */\n  0x00\n    /* \"#utility.yul\":816:840   */\n  tag_22\n    /* \"#utility.yul\":834:839   */\n  dup3\n    /* \"#utility.yul\":816:840   */\n  tag_23\n  jump\t// in\ntag_22:\n    /* \"#utility.yul\":805:840   */\n  swap1\n  pop\n    /* \"#utility.yul\":750:846   */\n  swap2\n  swap1\n  pop\n  jump\t// out\n    /* \"#utility.yul\":852:978   */\ntag_23:\n    /* \"#utility.yul\":889:896   */\n  0x00\n    /* \"#utility.yul\":929:971   */\n  0xffffffffffffffffffffffffffffffffffffffff\n    /* \"#utility.yul\":922:927   */\n  dup3\n    /* \"#utility.yul\":918:972   */\n  and\n    /* \"#utility.yul\":907:972   */\n  swap1\n  pop\n    /* \"#utility.yul\":852:978   */\n  swap2\n  swap1\n  pop\n  jump\t// out\n    /* \"#utility.yul\":1107:1224   */\ntag_15:\n    /* \"#utility.yul\":1216:1217   */\n  0x00\n    /* \"#utility.yul\":1213:1214   */\n  dup1\n    /* \"#utility.yul\":1206:1218   */\n  revert\n    /* \"#utility.yul\":1230:1352   */\ntag_11:\n    /* \"#utility.yul\":1303:1327   */\n  tag_29\n    /* \"#utility.yul\":1321:1326   */\n  dup2\n    /* \"#utility.yul\":1303:1327   */\n  tag_20\n  jump\t// in\ntag_29:\n    /* \"#utility.yul\":1296:1301   */\n  dup2\n    /* \"#utility.yul\":1293:1328   */\n  eq\n    /* \"#utility.yul\":1283:1346   */\n  tag_30\n  jumpi\n    /* \"#utility.yul\":1342:1343   */\n  0x00\n    /* \"#utility.yul\":1339:1340   */\n  dup1\n    /* \"#utility.yul\":1332:1344   */\n  revert\n    /* \"#utility.yul\":1283:1346   */\ntag_30:\n    /* \"#utility.yul\":1230:1352   */\n  pop\n  jump\t// out\n    /* \"contracts/erc20escrow.sol\":159:1440  contract ERC20Escrow {\r... */\ntag_6:\n  dataSize(sub_0)\n  dup1\n  dataOffset(sub_0)\n  0x00\n  codecopy\n  0x00\n  return\nstop\n\nsub_0: assembly {\n        /* \"contracts/erc20escrow.sol\":159:1440  contract ERC20Escrow {\r... */\n      mstore(0x40, 0x80)\n      callvalue\n      dup1\n      iszero\n      tag_1\n      jumpi\n      0x00\n      dup1\n      revert\n    tag_1:\n      pop\n      jumpi(tag_2, lt(calldatasize, 0x04))\n      shr(0xe0, calldataload(0x00))\n      dup1\n      0x9d76ea58\n      gt\n      tag_13\n      jumpi\n      dup1\n      0x9d76ea58\n      eq\n      tag_8\n      jumpi\n      dup1\n      0xb91d4001\n      eq\n      tag_9\n      jumpi\n      dup1\n      0xd39d0f56\n      eq\n      tag_10\n      jumpi\n      dup1\n      0xea8a1af0\n      eq\n      tag_11\n      jumpi\n      dup1\n      0xfc0c546a\n      eq\n      tag_12\n      jumpi\n      jump(tag_2)\n    tag_13:\n      dup1\n      0x08551a53\n      eq\n      tag_3\n      jumpi\n      dup1\n      0x419759f5\n      eq\n      tag_4\n      jumpi\n      dup1\n      0x47e7ef24\n      eq\n      tag_5\n      jumpi\n      dup1\n      0x7150d8ae\n      eq\n      tag_6\n      jumpi\n      dup1\n      0x86d1a69f\n      eq\n      tag_7\n      jumpi\n    tag_2:\n      0x00\n      dup1\n      revert\n        /* \"contracts/erc20escrow.sol\":187:216  address payable public seller */\n    tag_3:\n      tag_14\n      tag_15\n      jump\t// in\n    tag_14:\n      mload(0x40)\n      tag_16\n      swap2\n      swap1\n      tag_17\n      jump\t// in\n    tag_16:\n      mload(0x40)\n      dup1\n      swap2\n      sub\n      swap1\n      return\n        /* \"contracts/erc20escrow.sol\":318:346  uint256 public depositAmount */\n    tag_4:\n      tag_18\n      tag_19\n      jump\t// in\n    tag_18:\n      mload(0x40)\n      tag_20\n      swap2\n      swap1\n      tag_21\n      jump\t// in\n    tag_20:\n      mload(0x40)\n      dup1\n      swap2\n      sub\n      swap1\n      return\n        /* \"contracts/erc20escrow.sol\":573:872  function deposit(address _buyer, uint256 _amount) public {\r... */\n    tag_5:\n      tag_22\n      0x04\n      dup1\n      calldatasize\n      sub\n      dup2\n      add\n      swap1\n      tag_23\n      swap2\n      swap1\n      tag_24\n      jump\t// in\n    tag_23:\n      tag_25\n      jump\t// in\n    tag_22:\n      stop\n        /* \"contracts/erc20escrow.sol\":223:251  address payable public buyer */\n    tag_6:\n      tag_26\n      tag_27\n      jump\t// in\n    tag_26:\n      mload(0x40)\n      tag_28\n      swap2\n      swap1\n      tag_17\n      jump\t// in\n    tag_28:\n      mload(0x40)\n      dup1\n      swap2\n      sub\n      swap1\n      return\n        /* \"contracts/erc20escrow.sol\":1023:1222  function release() public {\r... */\n    tag_7:\n      tag_29\n      tag_30\n      jump\t// in\n    tag_29:\n      stop\n        /* \"contracts/erc20escrow.sol\":258:285  address public tokenAddress */\n    tag_8:\n      tag_31\n      tag_32\n      jump\t// in\n    tag_31:\n      mload(0x40)\n      tag_33\n      swap2\n      swap1\n      tag_34\n      jump\t// in\n    tag_33:\n      mload(0x40)\n      dup1\n      swap2\n      sub\n      swap1\n      return\n        /* \"contracts/erc20escrow.sol\":353:379  uint256 public releaseTime */\n    tag_9:\n      tag_35\n      tag_36\n      jump\t// in\n    tag_35:\n      mload(0x40)\n      tag_37\n      swap2\n      swap1\n      tag_21\n      jump\t// in\n    tag_37:\n      mload(0x40)\n      dup1\n      swap2\n      sub\n      swap1\n      return\n        /* \"contracts/erc20escrow.sol\":880:1015  function allowancecheck(address _buyer) public view returns(uint256) {\r... */\n    tag_10:\n      tag_38\n      0x04\n      dup1\n      calldatasize\n      sub\n      dup2\n      add\n      swap1\n      tag_39\n      swap2\n      swap1\n      tag_40\n      jump\t// in\n    tag_39:\n      tag_41\n      jump\t// in\n    tag_38:\n      mload(0x40)\n      tag_42\n      swap2\n      swap1\n      tag_21\n      jump\t// in\n    tag_42:\n      mload(0x40)\n      dup1\n      swap2\n      sub\n      swap1\n      return\n        /* \"contracts/erc20escrow.sol\":1230:1437  function cancel() public {\r... */\n    tag_11:\n      tag_43\n      tag_44\n      jump\t// in\n    tag_43:\n      stop\n        /* \"contracts/erc20escrow.sol\":292:311  IERC20 public token */\n    tag_12:\n      tag_45\n      tag_46\n      jump\t// in\n    tag_45:\n      mload(0x40)\n      tag_47\n      swap2\n      swap1\n      tag_48\n      jump\t// in\n    tag_47:\n      mload(0x40)\n      dup1\n      swap2\n      sub\n      swap1\n      return\n        /* \"contracts/erc20escrow.sol\":187:216  address payable public seller */\n    tag_15:\n      0x00\n      dup1\n      sload\n      swap1\n      0x0100\n      exp\n      swap1\n      div\n      0xffffffffffffffffffffffffffffffffffffffff\n      and\n      dup2\n      jump\t// out\n        /* \"contracts/erc20escrow.sol\":318:346  uint256 public depositAmount */\n    tag_19:\n      sload(0x04)\n      dup2\n      jump\t// out\n        /* \"contracts/erc20escrow.sol\":573:872  function deposit(address _buyer, uint256 _amount) public {\r... */\n    tag_25:\n        /* \"contracts/erc20escrow.sol\":649:654  token */\n      0x03\n      0x00\n      swap1\n      sload\n      swap1\n      0x0100\n      exp\n      swap1\n      div\n      0xffffffffffffffffffffffffffffffffffffffff\n      and\n        /* \"contracts/erc20escrow.sol\":649:667  token.transferFrom */\n      0xffffffffffffffffffffffffffffffffffffffff\n      and\n      0x23b872dd\n        /* \"contracts/erc20escrow.sol\":668:674  _buyer */\n      dup4\n        /* \"contracts/erc20escrow.sol\":684:688  this */\n      address\n        /* \"contracts/erc20escrow.sol\":691:698  _amount */\n      dup5\n        /* \"contracts/erc20escrow.sol\":649:699  token.transferFrom(_buyer, address(this), _amount) */\n      mload(0x40)\n      dup5\n      0xffffffff\n      and\n      0xe0\n      shl\n      dup2\n      mstore\n      0x04\n      add\n      tag_50\n      swap4\n      swap3\n      swap2\n      swap1\n      tag_51\n      jump\t// in\n    tag_50:\n      0x20\n      mload(0x40)\n      dup1\n      dup4\n      sub\n      dup2\n      0x00\n      dup8\n      dup1\n      extcodesize\n      iszero\n      dup1\n      iszero\n      tag_52\n      jumpi\n      0x00\n      dup1\n      revert\n    tag_52:\n      pop\n      gas\n      call\n      iszero\n      dup1\n      iszero\n      tag_54\n      jumpi\n      returndatasize\n      0x00\n      dup1\n      returndatacopy\n      revert(0x00, returndatasize)\n    tag_54:\n      pop\n      pop\n      pop\n      pop\n      mload(0x40)\n      returndatasize\n      not(0x1f)\n      0x1f\n      dup3\n      add\n      and\n      dup3\n      add\n      dup1\n      0x40\n      mstore\n      pop\n      dup2\n      add\n      swap1\n      tag_55\n      swap2\n      swap1\n      tag_56\n      jump\t// in\n    tag_55:\n        /* \"contracts/erc20escrow.sol\":641:720  require(token.transferFrom(_buyer, address(this), _amount), \"Transfer failed.\") */\n      tag_57\n      jumpi\n      mload(0x40)\n      0x08c379a000000000000000000000000000000000000000000000000000000000\n      dup2\n      mstore\n      0x04\n      add\n      tag_58\n      swap1\n      tag_59\n      jump\t// in\n    tag_58:\n      mload(0x40)\n      dup1\n      swap2\n      sub\n      swap1\n      revert\n    tag_57:\n        /* \"contracts/erc20escrow.sol\":747:753  _buyer */\n      dup2\n        /* \"contracts/erc20escrow.sol\":731:736  buyer */\n      0x01\n      0x00\n        /* \"contracts/erc20escrow.sol\":731:754  buyer = payable(_buyer) */\n      0x0100\n      exp\n      dup2\n      sload\n      dup2\n      0xffffffffffffffffffffffffffffffffffffffff\n      mul\n      not\n      and\n      swap1\n      dup4\n      0xffffffffffffffffffffffffffffffffffffffff\n      and\n      mul\n      or\n      swap1\n      sstore\n      pop\n        /* \"contracts/erc20escrow.sol\":781:788  _amount */\n      dup1\n        /* \"contracts/erc20escrow.sol\":765:778  depositAmount */\n      0x04\n        /* \"contracts/erc20escrow.sol\":765:788  depositAmount = _amount */\n      dup2\n      swap1\n      sstore\n      pop\n        /* \"contracts/erc20escrow.sol\":831:834  100 */\n      0x64\n        /* \"contracts/erc20escrow.sol\":813:828  block.timestamp */\n      timestamp\n        /* \"contracts/erc20escrow.sol\":813:834  block.timestamp + 100 */\n      tag_60\n      swap2\n      swap1\n      tag_61\n      jump\t// in\n    tag_60:\n        /* \"contracts/erc20escrow.sol\":799:810  releaseTime */\n      0x05\n        /* \"contracts/erc20escrow.sol\":799:834  releaseTime = block.timestamp + 100 */\n      dup2\n      swap1\n      sstore\n      pop\n        /* \"contracts/erc20escrow.sol\":573:872  function deposit(address _buyer, uint256 _amount) public {\r... */\n      pop\n      pop\n      jump\t// out\n        /* \"contracts/erc20escrow.sol\":223:251  address payable public buyer */\n    tag_27:\n      0x01\n      0x00\n      swap1\n      sload\n      swap1\n      0x0100\n      exp\n      swap1\n      div\n      0xffffffffffffffffffffffffffffffffffffffff\n      and\n      dup2\n      jump\t// out\n        /* \"contracts/erc20escrow.sol\":1023:1222  function release() public {\r... */\n    tag_30:\n        /* \"contracts/erc20escrow.sol\":1087:1098  releaseTime */\n      sload(0x05)\n        /* \"contracts/erc20escrow.sol\":1068:1083  block.timestamp */\n      timestamp\n        /* \"contracts/erc20escrow.sol\":1068:1098  block.timestamp >= releaseTime */\n      lt\n      iszero\n        /* \"contracts/erc20escrow.sol\":1060:1137  require(block.timestamp >= releaseTime, \"Release time has not been reached.\") */\n      tag_63\n      jumpi\n      mload(0x40)\n      0x08c379a000000000000000000000000000000000000000000000000000000000\n      dup2\n      mstore\n      0x04\n      add\n      tag_64\n      swap1\n      tag_65\n      jump\t// in\n    tag_64:\n      mload(0x40)\n      dup1\n      swap2\n      sub\n      swap1\n      revert\n    tag_63:\n        /* \"contracts/erc20escrow.sol\":1156:1161  token */\n      0x03\n      0x00\n      swap1\n      sload\n      swap1\n      0x0100\n      exp\n      swap1\n      div\n      0xffffffffffffffffffffffffffffffffffffffff\n      and\n        /* \"contracts/erc20escrow.sol\":1156:1170  token.transfer */\n      0xffffffffffffffffffffffffffffffffffffffff\n      and\n      0xa9059cbb\n        /* \"contracts/erc20escrow.sol\":1171:1177  seller */\n      0x00\n      dup1\n      sload\n      swap1\n      0x0100\n      exp\n      swap1\n      div\n      0xffffffffffffffffffffffffffffffffffffffff\n      and\n        /* \"contracts/erc20escrow.sol\":1179:1192  depositAmount */\n      sload(0x04)\n        /* \"contracts/erc20escrow.sol\":1156:1193  token.transfer(seller, depositAmount) */\n      mload(0x40)\n      dup4\n      0xffffffff\n      and\n      0xe0\n      shl\n      dup2\n      mstore\n      0x04\n      add\n      tag_66\n      swap3\n      swap2\n      swap1\n      tag_67\n      jump\t// in\n    tag_66:\n      0x20\n      mload(0x40)\n      dup1\n      dup4\n      sub\n      dup2\n      0x00\n      dup8\n      dup1\n      extcodesize\n      iszero\n      dup1\n      iszero\n      tag_68\n      jumpi\n      0x00\n      dup1\n      revert\n    tag_68:\n      pop\n      gas\n      call\n      iszero\n      dup1\n      iszero\n      tag_70\n      jumpi\n      returndatasize\n      0x00\n      dup1\n      returndatacopy\n      revert(0x00, returndatasize)\n    tag_70:\n      pop\n      pop\n      pop\n      pop\n      mload(0x40)\n      returndatasize\n      not(0x1f)\n      0x1f\n      dup3\n      add\n      and\n      dup3\n      add\n      dup1\n      0x40\n      mstore\n      pop\n      dup2\n      add\n      swap1\n      tag_71\n      swap2\n      swap1\n      tag_56\n      jump\t// in\n    tag_71:\n        /* \"contracts/erc20escrow.sol\":1148:1214  require(token.transfer(seller, depositAmount), \"Transfer failed.\") */\n      tag_72\n      jumpi\n      mload(0x40)\n      0x08c379a000000000000000000000000000000000000000000000000000000000\n      dup2\n      mstore\n      0x04\n      add\n      tag_73\n      swap1\n      tag_59\n      jump\t// in\n    tag_73:\n      mload(0x40)\n      dup1\n      swap2\n      sub\n      swap1\n      revert\n    tag_72:\n        /* \"contracts/erc20escrow.sol\":1023:1222  function release() public {\r... */\n      jump\t// out\n        /* \"contracts/erc20escrow.sol\":258:285  address public tokenAddress */\n    tag_32:\n      0x02\n      0x00\n      swap1\n      sload\n      swap1\n      0x0100\n      exp\n      swap1\n      div\n      0xffffffffffffffffffffffffffffffffffffffff\n      and\n      dup2\n      jump\t// out\n        /* \"contracts/erc20escrow.sol\":353:379  uint256 public releaseTime */\n    tag_36:\n      sload(0x05)\n      dup2\n      jump\t// out\n        /* \"contracts/erc20escrow.sol\":880:1015  function allowancecheck(address _buyer) public view returns(uint256) {\r... */\n    tag_41:\n        /* \"contracts/erc20escrow.sol\":940:947  uint256 */\n      0x00\n        /* \"contracts/erc20escrow.sol\":967:972  token */\n      0x03\n      0x00\n      swap1\n      sload\n      swap1\n      0x0100\n      exp\n      swap1\n      div\n      0xffffffffffffffffffffffffffffffffffffffff\n      and\n        /* \"contracts/erc20escrow.sol\":967:982  token.allowance */\n      0xffffffffffffffffffffffffffffffffffffffff\n      and\n      0xdd62ed3e\n        /* \"contracts/erc20escrow.sol\":983:989  _buyer */\n      dup4\n        /* \"contracts/erc20escrow.sol\":999:1003  this */\n      address\n        /* \"contracts/erc20escrow.sol\":967:1005  token.allowance(_buyer, address(this)) */\n      mload(0x40)\n      dup4\n      0xffffffff\n      and\n      0xe0\n      shl\n      dup2\n      mstore\n      0x04\n      add\n      tag_75\n      swap3\n      swap2\n      swap1\n      tag_76\n      jump\t// in\n    tag_75:\n      0x20\n      mload(0x40)\n      dup1\n      dup4\n      sub\n      dup2\n      dup7\n      dup1\n      extcodesize\n      iszero\n      dup1\n      iszero\n      tag_77\n      jumpi\n      0x00\n      dup1\n      revert\n    tag_77:\n      pop\n      gas\n      staticcall\n      iszero\n      dup1\n      iszero\n      tag_79\n      jumpi\n      returndatasize\n      0x00\n      dup1\n      returndatacopy\n      revert(0x00, returndatasize)\n    tag_79:\n      pop\n      pop\n      pop\n      pop\n      mload(0x40)\n      returndatasize\n      not(0x1f)\n      0x1f\n      dup3\n      add\n      and\n      dup3\n      add\n      dup1\n      0x40\n      mstore\n      pop\n      dup2\n      add\n      swap1\n      tag_80\n      swap2\n      swap1\n      tag_81\n      jump\t// in\n    tag_80:\n        /* \"contracts/erc20escrow.sol\":960:1005  return token.allowance(_buyer, address(this)) */\n      swap1\n      pop\n        /* \"contracts/erc20escrow.sol\":880:1015  function allowancecheck(address _buyer) public view returns(uint256) {\r... */\n      swap2\n      swap1\n      pop\n      jump\t// out\n        /* \"contracts/erc20escrow.sol\":1230:1437  function cancel() public {\r... */\n    tag_44:\n        /* \"contracts/erc20escrow.sol\":1292:1303  releaseTime */\n      sload(0x05)\n        /* \"contracts/erc20escrow.sol\":1274:1289  block.timestamp */\n      timestamp\n        /* \"contracts/erc20escrow.sol\":1274:1303  block.timestamp < releaseTime */\n      lt\n        /* \"contracts/erc20escrow.sol\":1266:1353  require(block.timestamp < releaseTime, \"Release time has been reached, cannot cancel.\") */\n      tag_83\n      jumpi\n      mload(0x40)\n      0x08c379a000000000000000000000000000000000000000000000000000000000\n      dup2\n      mstore\n      0x04\n      add\n      tag_84\n      swap1\n      tag_85\n      jump\t// in\n    tag_84:\n      mload(0x40)\n      dup1\n      swap2\n      sub\n      swap1\n      revert\n    tag_83:\n        /* \"contracts/erc20escrow.sol\":1372:1377  token */\n      0x03\n      0x00\n      swap1\n      sload\n      swap1\n      0x0100\n      exp\n      swap1\n      div\n      0xffffffffffffffffffffffffffffffffffffffff\n      and\n        /* \"contracts/erc20escrow.sol\":1372:1386  token.transfer */\n      0xffffffffffffffffffffffffffffffffffffffff\n      and\n      0xa9059cbb\n        /* \"contracts/erc20escrow.sol\":1387:1392  buyer */\n      0x01\n      0x00\n      swap1\n      sload\n      swap1\n      0x0100\n      exp\n      swap1\n      div\n      0xffffffffffffffffffffffffffffffffffffffff\n      and\n        /* \"contracts/erc20escrow.sol\":1394:1407  depositAmount */\n      sload(0x04)\n        /* \"contracts/erc20escrow.sol\":1372:1408  token.transfer(buyer, depositAmount) */\n      mload(0x40)\n      dup4\n      0xffffffff\n      and\n      0xe0\n      shl\n      dup2\n      mstore\n      0x04\n      add\n      tag_86\n      swap3\n      swap2\n      swap1\n      tag_67\n      jump\t// in\n    tag_86:\n      0x20\n      mload(0x40)\n      dup1\n      dup4\n      sub\n      dup2\n      0x00\n      dup8\n      dup1\n      extcodesize\n      iszero\n      dup1\n      iszero\n      tag_87\n      jumpi\n      0x00\n      dup1\n      revert\n    tag_87:\n      pop\n      gas\n      call\n      iszero\n      dup1\n      iszero\n      tag_89\n      jumpi\n      returndatasize\n      0x00\n      dup1\n      returndatacopy\n      revert(0x00, returndatasize)\n    tag_89:\n      pop\n      pop\n      pop\n      pop\n      mload(0x40)\n      returndatasize\n      not(0x1f)\n      0x1f\n      dup3\n      add\n      and\n      dup3\n      add\n      dup1\n      0x40\n      mstore\n      pop\n      dup2\n      add\n      swap1\n      tag_90\n      swap2\n      swap1\n      tag_56\n      jump\t// in\n    tag_90:\n        /* \"contracts/erc20escrow.sol\":1364:1429  require(token.transfer(buyer, depositAmount), \"Transfer failed.\") */\n      tag_91\n      jumpi\n      mload(0x40)\n      0x08c379a000000000000000000000000000000000000000000000000000000000\n      dup2\n      mstore\n      0x04\n      add\n      tag_92\n      swap1\n      tag_59\n      jump\t// in\n    tag_92:\n      mload(0x40)\n      dup1\n      swap2\n      sub\n      swap1\n      revert\n    tag_91:\n        /* \"contracts/erc20escrow.sol\":1230:1437  function cancel() public {\r... */\n      jump\t// out\n        /* \"contracts/erc20escrow.sol\":292:311  IERC20 public token */\n    tag_46:\n      0x03\n      0x00\n      swap1\n      sload\n      swap1\n      0x0100\n      exp\n      swap1\n      div\n      0xffffffffffffffffffffffffffffffffffffffff\n      and\n      dup2\n      jump\t// out\n        /* \"#utility.yul\":7:146   */\n    tag_94:\n        /* \"#utility.yul\":53:58   */\n      0x00\n        /* \"#utility.yul\":91:97   */\n      dup2\n        /* \"#utility.yul\":78:98   */\n      calldataload\n        /* \"#utility.yul\":69:98   */\n      swap1\n      pop\n        /* \"#utility.yul\":107:140   */\n      tag_96\n        /* \"#utility.yul\":134:139   */\n      dup2\n        /* \"#utility.yul\":107:140   */\n      tag_97\n      jump\t// in\n    tag_96:\n        /* \"#utility.yul\":7:146   */\n      swap3\n      swap2\n      pop\n      pop\n      jump\t// out\n        /* \"#utility.yul\":152:289   */\n    tag_98:\n        /* \"#utility.yul\":206:211   */\n      0x00\n        /* \"#utility.yul\":237:243   */\n      dup2\n        /* \"#utility.yul\":231:244   */\n      mload\n        /* \"#utility.yul\":222:244   */\n      swap1\n      pop\n        /* \"#utility.yul\":253:283   */\n      tag_100\n        /* \"#utility.yul\":277:282   */\n      dup2\n        /* \"#utility.yul\":253:283   */\n      tag_101\n      jump\t// in\n    tag_100:\n        /* \"#utility.yul\":152:289   */\n      swap3\n      swap2\n      pop\n      pop\n      jump\t// out\n        /* \"#utility.yul\":295:434   */\n    tag_102:\n        /* \"#utility.yul\":341:346   */\n      0x00\n        /* \"#utility.yul\":379:385   */\n      dup2\n        /* \"#utility.yul\":366:386   */\n      calldataload\n        /* \"#utility.yul\":357:386   */\n      swap1\n      pop\n        /* \"#utility.yul\":395:428   */\n      tag_104\n        /* \"#utility.yul\":422:427   */\n      dup2\n        /* \"#utility.yul\":395:428   */\n      tag_105\n      jump\t// in\n    tag_104:\n        /* \"#utility.yul\":295:434   */\n      swap3\n      swap2\n      pop\n      pop\n      jump\t// out\n        /* \"#utility.yul\":440:583   */\n    tag_106:\n        /* \"#utility.yul\":497:502   */\n      0x00\n        /* \"#utility.yul\":528:534   */\n      dup2\n        /* \"#utility.yul\":522:535   */\n      mload\n        /* \"#utility.yul\":513:535   */\n      swap1\n      pop\n        /* \"#utility.yul\":544:577   */\n      tag_108\n        /* \"#utility.yul\":571:576   */\n      dup2\n        /* \"#utility.yul\":544:577   */\n      tag_105\n      jump\t// in\n    tag_108:\n        /* \"#utility.yul\":440:583   */\n      swap3\n      swap2\n      pop\n      pop\n      jump\t// out\n        /* \"#utility.yul\":589:918   */\n    tag_40:\n        /* \"#utility.yul\":648:654   */\n      0x00\n        /* \"#utility.yul\":697:699   */\n      0x20\n        /* \"#utility.yul\":685:694   */\n      dup3\n        /* \"#utility.yul\":676:683   */\n      dup5\n        /* \"#utility.yul\":672:695   */\n      sub\n        /* \"#utility.yul\":668:700   */\n      slt\n        /* \"#utility.yul\":665:784   */\n      iszero\n      tag_110\n      jumpi\n        /* \"#utility.yul\":703:782   */\n      tag_111\n      tag_112\n      jump\t// in\n    tag_111:\n        /* \"#utility.yul\":665:784   */\n    tag_110:\n        /* \"#utility.yul\":823:824   */\n      0x00\n        /* \"#utility.yul\":848:901   */\n      tag_113\n        /* \"#utility.yul\":893:900   */\n      dup5\n        /* \"#utility.yul\":884:890   */\n      dup3\n        /* \"#utility.yul\":873:882   */\n      dup6\n        /* \"#utility.yul\":869:891   */\n      add\n        /* \"#utility.yul\":848:901   */\n      tag_94\n      jump\t// in\n    tag_113:\n        /* \"#utility.yul\":838:901   */\n      swap2\n      pop\n        /* \"#utility.yul\":794:911   */\n      pop\n        /* \"#utility.yul\":589:918   */\n      swap3\n      swap2\n      pop\n      pop\n      jump\t// out\n        /* \"#utility.yul\":924:1398   */\n    tag_24:\n        /* \"#utility.yul\":992:998   */\n      0x00\n        /* \"#utility.yul\":1000:1006   */\n      dup1\n        /* \"#utility.yul\":1049:1051   */\n      0x40\n        /* \"#utility.yul\":1037:1046   */\n      dup4\n        /* \"#utility.yul\":1028:1035   */\n      dup6\n        /* \"#utility.yul\":1024:1047   */\n      sub\n        /* \"#utility.yul\":1020:1052   */\n      slt\n        /* \"#utility.yul\":1017:1136   */\n      iszero\n      tag_115\n      jumpi\n        /* \"#utility.yul\":1055:1134   */\n      tag_116\n      tag_112\n      jump\t// in\n    tag_116:\n        /* \"#utility.yul\":1017:1136   */\n    tag_115:\n        /* \"#utility.yul\":1175:1176   */\n      0x00\n        /* \"#utility.yul\":1200:1253   */\n      tag_117\n        /* \"#utility.yul\":1245:1252   */\n      dup6\n        /* \"#utility.yul\":1236:1242   */\n      dup3\n        /* \"#utility.yul\":1225:1234   */\n      dup7\n        /* \"#utility.yul\":1221:1243   */\n      add\n        /* \"#utility.yul\":1200:1253   */\n      tag_94\n      jump\t// in\n    tag_117:\n        /* \"#utility.yul\":1190:1253   */\n      swap3\n      pop\n        /* \"#utility.yul\":1146:1263   */\n      pop\n        /* \"#utility.yul\":1302:1304   */\n      0x20\n        /* \"#utility.yul\":1328:1381   */\n      tag_118\n        /* \"#utility.yul\":1373:1380   */\n      dup6\n        /* \"#utility.yul\":1364:1370   */\n      dup3\n        /* \"#utility.yul\":1353:1362   */\n      dup7\n        /* \"#utility.yul\":1349:1371   */\n      add\n        /* \"#utility.yul\":1328:1381   */\n      tag_102\n      jump\t// in\n    tag_118:\n        /* \"#utility.yul\":1318:1381   */\n      swap2\n      pop\n        /* \"#utility.yul\":1273:1391   */\n      pop\n        /* \"#utility.yul\":924:1398   */\n      swap3\n      pop\n      swap3\n      swap1\n      pop\n      jump\t// out\n        /* \"#utility.yul\":1404:1749   */\n    tag_56:\n        /* \"#utility.yul\":1471:1477   */\n      0x00\n        /* \"#utility.yul\":1520:1522   */\n      0x20\n        /* \"#utility.yul\":1508:1517   */\n      dup3\n        /* \"#utility.yul\":1499:1506   */\n      dup5\n        /* \"#utility.yul\":1495:1518   */\n      sub\n        /* \"#utility.yul\":1491:1523   */\n      slt\n        /* \"#utility.yul\":1488:1607   */\n      iszero\n      tag_120\n      jumpi\n        /* \"#utility.yul\":1526:1605   */\n      tag_121\n      tag_112\n      jump\t// in\n    tag_121:\n        /* \"#utility.yul\":1488:1607   */\n    tag_120:\n        /* \"#utility.yul\":1646:1647   */\n      0x00\n        /* \"#utility.yul\":1671:1732   */\n      tag_122\n        /* \"#utility.yul\":1724:1731   */\n      dup5\n        /* \"#utility.yul\":1715:1721   */\n      dup3\n        /* \"#utility.yul\":1704:1713   */\n      dup6\n        /* \"#utility.yul\":1700:1722   */\n      add\n        /* \"#utility.yul\":1671:1732   */\n      tag_98\n      jump\t// in\n    tag_122:\n        /* \"#utility.yul\":1661:1732   */\n      swap2\n      pop\n        /* \"#utility.yul\":1617:1742   */\n      pop\n        /* \"#utility.yul\":1404:1749   */\n      swap3\n      swap2\n      pop\n      pop\n      jump\t// out\n        /* \"#utility.yul\":1755:2106   */\n    tag_81:\n        /* \"#utility.yul\":1825:1831   */\n      0x00\n        /* \"#utility.yul\":1874:1876   */\n      0x20\n        /* \"#utility.yul\":1862:1871   */\n      dup3\n        /* \"#utility.yul\":1853:1860   */\n      dup5\n        /* \"#utility.yul\":1849:1872   */\n      sub\n        /* \"#utility.yul\":1845:1877   */\n      slt\n        /* \"#utility.yul\":1842:1961   */\n      iszero\n      tag_124\n      jumpi\n        /* \"#utility.yul\":1880:1959   */\n      tag_125\n      tag_112\n      jump\t// in\n    tag_125:\n        /* \"#utility.yul\":1842:1961   */\n    tag_124:\n        /* \"#utility.yul\":2000:2001   */\n      0x00\n        /* \"#utility.yul\":2025:2089   */\n      tag_126\n        /* \"#utility.yul\":2081:2088   */\n      dup5\n        /* \"#utility.yul\":2072:2078   */\n      dup3\n        /* \"#utility.yul\":2061:2070   */\n      dup6\n        /* \"#utility.yul\":2057:2079   */\n      add\n        /* \"#utility.yul\":2025:2089   */\n      tag_106\n      jump\t// in\n    tag_126:\n        /* \"#utility.yul\":2015:2089   */\n      swap2\n      pop\n        /* \"#utility.yul\":1971:2099   */\n      pop\n        /* \"#utility.yul\":1755:2106   */\n      swap3\n      swap2\n      pop\n      pop\n      jump\t// out\n        /* \"#utility.yul\":2112:2259   */\n    tag_127:\n        /* \"#utility.yul\":2207:2252   */\n      tag_129\n        /* \"#utility.yul\":2246:2251   */\n      dup2\n        /* \"#utility.yul\":2207:2252   */\n      tag_130\n      jump\t// in\n    tag_129:\n        /* \"#utility.yul\":2202:2205   */\n      dup3\n        /* \"#utility.yul\":2195:2253   */\n      mstore\n        /* \"#utility.yul\":2112:2259   */\n      pop\n      pop\n      jump\t// out\n        /* \"#utility.yul\":2265:2407   */\n    tag_131:\n        /* \"#utility.yul\":2368:2400   */\n      tag_133\n        /* \"#utility.yul\":2394:2399   */\n      dup2\n        /* \"#utility.yul\":2368:2400   */\n      tag_134\n      jump\t// in\n    tag_133:\n        /* \"#utility.yul\":2363:2366   */\n      dup3\n        /* \"#utility.yul\":2356:2401   */\n      mstore\n        /* \"#utility.yul\":2265:2407   */\n      pop\n      pop\n      jump\t// out\n        /* \"#utility.yul\":2413:2531   */\n    tag_135:\n        /* \"#utility.yul\":2500:2524   */\n      tag_137\n        /* \"#utility.yul\":2518:2523   */\n      dup2\n        /* \"#utility.yul\":2500:2524   */\n      tag_138\n      jump\t// in\n    tag_137:\n        /* \"#utility.yul\":2495:2498   */\n      dup3\n        /* \"#utility.yul\":2488:2525   */\n      mstore\n        /* \"#utility.yul\":2413:2531   */\n      pop\n      pop\n      jump\t// out\n        /* \"#utility.yul\":2537:2696   */\n    tag_139:\n        /* \"#utility.yul\":2638:2689   */\n      tag_141\n        /* \"#utility.yul\":2683:2688   */\n      dup2\n        /* \"#utility.yul\":2638:2689   */\n      tag_142\n      jump\t// in\n    tag_141:\n        /* \"#utility.yul\":2633:2636   */\n      dup3\n        /* \"#utility.yul\":2626:2690   */\n      mstore\n        /* \"#utility.yul\":2537:2696   */\n      pop\n      pop\n      jump\t// out\n        /* \"#utility.yul\":2702:3068   */\n    tag_143:\n        /* \"#utility.yul\":2844:2847   */\n      0x00\n        /* \"#utility.yul\":2865:2932   */\n      tag_145\n        /* \"#utility.yul\":2929:2931   */\n      0x2d\n        /* \"#utility.yul\":2924:2927   */\n      dup4\n        /* \"#utility.yul\":2865:2932   */\n      tag_146\n      jump\t// in\n    tag_145:\n        /* \"#utility.yul\":2858:2932   */\n      swap2\n      pop\n        /* \"#utility.yul\":2941:3034   */\n      tag_147\n        /* \"#utility.yul\":3030:3033   */\n      dup3\n        /* \"#utility.yul\":2941:3034   */\n      tag_148\n      jump\t// in\n    tag_147:\n        /* \"#utility.yul\":3059:3061   */\n      0x40\n        /* \"#utility.yul\":3054:3057   */\n      dup3\n        /* \"#utility.yul\":3050:3062   */\n      add\n        /* \"#utility.yul\":3043:3062   */\n      swap1\n      pop\n        /* \"#utility.yul\":2702:3068   */\n      swap2\n      swap1\n      pop\n      jump\t// out\n        /* \"#utility.yul\":3074:3440   */\n    tag_149:\n        /* \"#utility.yul\":3216:3219   */\n      0x00\n        /* \"#utility.yul\":3237:3304   */\n      tag_151\n        /* \"#utility.yul\":3301:3303   */\n      0x10\n        /* \"#utility.yul\":3296:3299   */\n      dup4\n        /* \"#utility.yul\":3237:3304   */\n      tag_146\n      jump\t// in\n    tag_151:\n        /* \"#utility.yul\":3230:3304   */\n      swap2\n      pop\n        /* \"#utility.yul\":3313:3406   */\n      tag_152\n        /* \"#utility.yul\":3402:3405   */\n      dup3\n        /* \"#utility.yul\":3313:3406   */\n      tag_153\n      jump\t// in\n    tag_152:\n        /* \"#utility.yul\":3431:3433   */\n      0x20\n        /* \"#utility.yul\":3426:3429   */\n      dup3\n        /* \"#utility.yul\":3422:3434   */\n      add\n        /* \"#utility.yul\":3415:3434   */\n      swap1\n      pop\n        /* \"#utility.yul\":3074:3440   */\n      swap2\n      swap1\n      pop\n      jump\t// out\n        /* \"#utility.yul\":3446:3812   */\n    tag_154:\n        /* \"#utility.yul\":3588:3591   */\n      0x00\n        /* \"#utility.yul\":3609:3676   */\n      tag_156\n        /* \"#utility.yul\":3673:3675   */\n      0x22\n        /* \"#utility.yul\":3668:3671   */\n      dup4\n        /* \"#utility.yul\":3609:3676   */\n      tag_146\n      jump\t// in\n    tag_156:\n        /* \"#utility.yul\":3602:3676   */\n      swap2\n      pop\n        /* \"#utility.yul\":3685:3778   */\n      tag_157\n        /* \"#utility.yul\":3774:3777   */\n      dup3\n        /* \"#utility.yul\":3685:3778   */\n      tag_158\n      jump\t// in\n    tag_157:\n        /* \"#utility.yul\":3803:3805   */\n      0x40\n        /* \"#utility.yul\":3798:3801   */\n      dup3\n        /* \"#utility.yul\":3794:3806   */\n      add\n        /* \"#utility.yul\":3787:3806   */\n      swap1\n      pop\n        /* \"#utility.yul\":3446:3812   */\n      swap2\n      swap1\n      pop\n      jump\t// out\n        /* \"#utility.yul\":3818:3936   */\n    tag_159:\n        /* \"#utility.yul\":3905:3929   */\n      tag_161\n        /* \"#utility.yul\":3923:3928   */\n      dup2\n        /* \"#utility.yul\":3905:3929   */\n      tag_162\n      jump\t// in\n    tag_161:\n        /* \"#utility.yul\":3900:3903   */\n      dup3\n        /* \"#utility.yul\":3893:3930   */\n      mstore\n        /* \"#utility.yul\":3818:3936   */\n      pop\n      pop\n      jump\t// out\n        /* \"#utility.yul\":3942:4164   */\n    tag_34:\n        /* \"#utility.yul\":4035:4039   */\n      0x00\n        /* \"#utility.yul\":4073:4075   */\n      0x20\n        /* \"#utility.yul\":4062:4071   */\n      dup3\n        /* \"#utility.yul\":4058:4076   */\n      add\n        /* \"#utility.yul\":4050:4076   */\n      swap1\n      pop\n        /* \"#utility.yul\":4086:4157   */\n      tag_164\n        /* \"#utility.yul\":4154:4155   */\n      0x00\n        /* \"#utility.yul\":4143:4152   */\n      dup4\n        /* \"#utility.yul\":4139:4156   */\n      add\n        /* \"#utility.yul\":4130:4136   */\n      dup5\n        /* \"#utility.yul\":4086:4157   */\n      tag_135\n      jump\t// in\n    tag_164:\n        /* \"#utility.yul\":3942:4164   */\n      swap3\n      swap2\n      pop\n      pop\n      jump\t// out\n        /* \"#utility.yul\":4170:4424   */\n    tag_17:\n        /* \"#utility.yul\":4279:4283   */\n      0x00\n        /* \"#utility.yul\":4317:4319   */\n      0x20\n        /* \"#utility.yul\":4306:4315   */\n      dup3\n        /* \"#utility.yul\":4302:4320   */\n      add\n        /* \"#utility.yul\":4294:4320   */\n      swap1\n      pop\n        /* \"#utility.yul\":4330:4417   */\n      tag_166\n        /* \"#utility.yul\":4414:4415   */\n      0x00\n        /* \"#utility.yul\":4403:4412   */\n      dup4\n        /* \"#utility.yul\":4399:4416   */\n      add\n        /* \"#utility.yul\":4390:4396   */\n      dup5\n        /* \"#utility.yul\":4330:4417   */\n      tag_131\n      jump\t// in\n    tag_166:\n        /* \"#utility.yul\":4170:4424   */\n      swap3\n      swap2\n      pop\n      pop\n      jump\t// out\n        /* \"#utility.yul\":4430:4778   */\n    tag_67:\n        /* \"#utility.yul\":4559:4563   */\n      0x00\n        /* \"#utility.yul\":4597:4599   */\n      0x40\n        /* \"#utility.yul\":4586:4595   */\n      dup3\n        /* \"#utility.yul\":4582:4600   */\n      add\n        /* \"#utility.yul\":4574:4600   */\n      swap1\n      pop\n        /* \"#utility.yul\":4610:4689   */\n      tag_168\n        /* \"#utility.yul\":4686:4687   */\n      0x00\n        /* \"#utility.yul\":4675:4684   */\n      dup4\n        /* \"#utility.yul\":4671:4688   */\n      add\n        /* \"#utility.yul\":4662:4668   */\n      dup6\n        /* \"#utility.yul\":4610:4689   */\n      tag_127\n      jump\t// in\n    tag_168:\n        /* \"#utility.yul\":4699:4771   */\n      tag_169\n        /* \"#utility.yul\":4767:4769   */\n      0x20\n        /* \"#utility.yul\":4756:4765   */\n      dup4\n        /* \"#utility.yul\":4752:4770   */\n      add\n        /* \"#utility.yul\":4743:4749   */\n      dup5\n        /* \"#utility.yul\":4699:4771   */\n      tag_159\n      jump\t// in\n    tag_169:\n        /* \"#utility.yul\":4430:4778   */\n      swap4\n      swap3\n      pop\n      pop\n      pop\n      jump\t// out\n        /* \"#utility.yul\":4784:5116   */\n    tag_76:\n        /* \"#utility.yul\":4905:4909   */\n      0x00\n        /* \"#utility.yul\":4943:4945   */\n      0x40\n        /* \"#utility.yul\":4932:4941   */\n      dup3\n        /* \"#utility.yul\":4928:4946   */\n      add\n        /* \"#utility.yul\":4920:4946   */\n      swap1\n      pop\n        /* \"#utility.yul\":4956:5027   */\n      tag_171\n        /* \"#utility.yul\":5024:5025   */\n      0x00\n        /* \"#utility.yul\":5013:5022   */\n      dup4\n        /* \"#utility.yul\":5009:5026   */\n      add\n        /* \"#utility.yul\":5000:5006   */\n      dup6\n        /* \"#utility.yul\":4956:5027   */\n      tag_135\n      jump\t// in\n    tag_171:\n        /* \"#utility.yul\":5037:5109   */\n      tag_172\n        /* \"#utility.yul\":5105:5107   */\n      0x20\n        /* \"#utility.yul\":5094:5103   */\n      dup4\n        /* \"#utility.yul\":5090:5108   */\n      add\n        /* \"#utility.yul\":5081:5087   */\n      dup5\n        /* \"#utility.yul\":5037:5109   */\n      tag_135\n      jump\t// in\n    tag_172:\n        /* \"#utility.yul\":4784:5116   */\n      swap4\n      swap3\n      pop\n      pop\n      pop\n      jump\t// out\n        /* \"#utility.yul\":5122:5564   */\n    tag_51:\n        /* \"#utility.yul\":5271:5275   */\n      0x00\n        /* \"#utility.yul\":5309:5311   */\n      0x60\n        /* \"#utility.yul\":5298:5307   */\n      dup3\n        /* \"#utility.yul\":5294:5312   */\n      add\n        /* \"#utility.yul\":5286:5312   */\n      swap1\n      pop\n        /* \"#utility.yul\":5322:5393   */\n      tag_174\n        /* \"#utility.yul\":5390:5391   */\n      0x00\n        /* \"#utility.yul\":5379:5388   */\n      dup4\n        /* \"#utility.yul\":5375:5392   */\n      add\n        /* \"#utility.yul\":5366:5372   */\n      dup7\n        /* \"#utility.yul\":5322:5393   */\n      tag_135\n      jump\t// in\n    tag_174:\n        /* \"#utility.yul\":5403:5475   */\n      tag_175\n        /* \"#utility.yul\":5471:5473   */\n      0x20\n        /* \"#utility.yul\":5460:5469   */\n      dup4\n        /* \"#utility.yul\":5456:5474   */\n      add\n        /* \"#utility.yul\":5447:5453   */\n      dup6\n        /* \"#utility.yul\":5403:5475   */\n      tag_135\n      jump\t// in\n    tag_175:\n        /* \"#utility.yul\":5485:5557   */\n      tag_176\n        /* \"#utility.yul\":5553:5555   */\n      0x40\n        /* \"#utility.yul\":5542:5551   */\n      dup4\n        /* \"#utility.yul\":5538:5556   */\n      add\n        /* \"#utility.yul\":5529:5535   */\n      dup5\n        /* \"#utility.yul\":5485:5557   */\n      tag_159\n      jump\t// in\n    tag_176:\n        /* \"#utility.yul\":5122:5564   */\n      swap5\n      swap4\n      pop\n      pop\n      pop\n      pop\n      jump\t// out\n        /* \"#utility.yul\":5570:5820   */\n    tag_48:\n        /* \"#utility.yul\":5677:5681   */\n      0x00\n        /* \"#utility.yul\":5715:5717   */\n      0x20\n        /* \"#utility.yul\":5704:5713   */\n      dup3\n        /* \"#utility.yul\":5700:5718   */\n      add\n        /* \"#utility.yul\":5692:5718   */\n      swap1\n      pop\n        /* \"#utility.yul\":5728:5813   */\n      tag_178\n        /* \"#utility.yul\":5810:5811   */\n      0x00\n        /* \"#utility.yul\":5799:5808   */\n      dup4\n        /* \"#utility.yul\":5795:5812   */\n      add\n        /* \"#utility.yul\":5786:5792   */\n      dup5\n        /* \"#utility.yul\":5728:5813   */\n      tag_139\n      jump\t// in\n    tag_178:\n        /* \"#utility.yul\":5570:5820   */\n      swap3\n      swap2\n      pop\n      pop\n      jump\t// out\n        /* \"#utility.yul\":5826:6245   */\n    tag_85:\n        /* \"#utility.yul\":5992:5996   */\n      0x00\n        /* \"#utility.yul\":6030:6032   */\n      0x20\n        /* \"#utility.yul\":6019:6028   */\n      dup3\n        /* \"#utility.yul\":6015:6033   */\n      add\n        /* \"#utility.yul\":6007:6033   */\n      swap1\n      pop\n        /* \"#utility.yul\":6079:6088   */\n      dup2\n        /* \"#utility.yul\":6073:6077   */\n      dup2\n        /* \"#utility.yul\":6069:6089   */\n      sub\n        /* \"#utility.yul\":6065:6066   */\n      0x00\n        /* \"#utility.yul\":6054:6063   */\n      dup4\n        /* \"#utility.yul\":6050:6067   */\n      add\n        /* \"#utility.yul\":6043:6090   */\n      mstore\n        /* \"#utility.yul\":6107:6238   */\n      tag_180\n        /* \"#utility.yul\":6233:6237   */\n      dup2\n        /* \"#utility.yul\":6107:6238   */\n      tag_143\n      jump\t// in\n    tag_180:\n        /* \"#utility.yul\":6099:6238   */\n      swap1\n      pop\n        /* \"#utility.yul\":5826:6245   */\n      swap2\n      swap1\n      pop\n      jump\t// out\n        /* \"#utility.yul\":6251:6670   */\n    tag_59:\n        /* \"#utility.yul\":6417:6421   */\n      0x00\n        /* \"#utility.yul\":6455:6457   */\n      0x20\n        /* \"#utility.yul\":6444:6453   */\n      dup3\n        /* \"#utility.yul\":6440:6458   */\n      add\n        /* \"#utility.yul\":6432:6458   */\n      swap1\n      pop\n        /* \"#utility.yul\":6504:6513   */\n      dup2\n        /* \"#utility.yul\":6498:6502   */\n      dup2\n        /* \"#utility.yul\":6494:6514   */\n      sub\n        /* \"#utility.yul\":6490:6491   */\n      0x00\n        /* \"#utility.yul\":6479:6488   */\n      dup4\n        /* \"#utility.yul\":6475:6492   */\n      add\n        /* \"#utility.yul\":6468:6515   */\n      mstore\n        /* \"#utility.yul\":6532:6663   */\n      tag_182\n        /* \"#utility.yul\":6658:6662   */\n      dup2\n        /* \"#utility.yul\":6532:6663   */\n      tag_149\n      jump\t// in\n    tag_182:\n        /* \"#utility.yul\":6524:6663   */\n      swap1\n      pop\n        /* \"#utility.yul\":6251:6670   */\n      swap2\n      swap1\n      pop\n      jump\t// out\n        /* \"#utility.yul\":6676:7095   */\n    tag_65:\n        /* \"#utility.yul\":6842:6846   */\n      0x00\n        /* \"#utility.yul\":6880:6882   */\n      0x20\n        /* \"#utility.yul\":6869:6878   */\n      dup3\n        /* \"#utility.yul\":6865:6883   */\n      add\n        /* \"#utility.yul\":6857:6883   */\n      swap1\n      pop\n        /* \"#utility.yul\":6929:6938   */\n      dup2\n        /* \"#utility.yul\":6923:6927   */\n      dup2\n        /* \"#utility.yul\":6919:6939   */\n      sub\n        /* \"#utility.yul\":6915:6916   */\n      0x00\n        /* \"#utility.yul\":6904:6913   */\n      dup4\n        /* \"#utility.yul\":6900:6917   */\n      add\n        /* \"#utility.yul\":6893:6940   */\n      mstore\n        /* \"#utility.yul\":6957:7088   */\n      tag_184\n        /* \"#utility.yul\":7083:7087   */\n      dup2\n        /* \"#utility.yul\":6957:7088   */\n      tag_154\n      jump\t// in\n    tag_184:\n        /* \"#utility.yul\":6949:7088   */\n      swap1\n      pop\n        /* \"#utility.yul\":6676:7095   */\n      swap2\n      swap1\n      pop\n      jump\t// out\n        /* \"#utility.yul\":7101:7323   */\n    tag_21:\n        /* \"#utility.yul\":7194:7198   */\n      0x00\n        /* \"#utility.yul\":7232:7234   */\n      0x20\n        /* \"#utility.yul\":7221:7230   */\n      dup3\n        /* \"#utility.yul\":7217:7235   */\n      add\n        /* \"#utility.yul\":7209:7235   */\n      swap1\n      pop\n        /* \"#utility.yul\":7245:7316   */\n      tag_186\n        /* \"#utility.yul\":7313:7314   */\n      0x00\n        /* \"#utility.yul\":7302:7311   */\n      dup4\n        /* \"#utility.yul\":7298:7315   */\n      add\n        /* \"#utility.yul\":7289:7295   */\n      dup5\n        /* \"#utility.yul\":7245:7316   */\n      tag_159\n      jump\t// in\n    tag_186:\n        /* \"#utility.yul\":7101:7323   */\n      swap3\n      swap2\n      pop\n      pop\n      jump\t// out\n        /* \"#utility.yul\":7410:7579   */\n    tag_146:\n        /* \"#utility.yul\":7494:7505   */\n      0x00\n        /* \"#utility.yul\":7528:7534   */\n      dup3\n        /* \"#utility.yul\":7523:7526   */\n      dup3\n        /* \"#utility.yul\":7516:7535   */\n      mstore\n        /* \"#utility.yul\":7568:7572   */\n      0x20\n        /* \"#utility.yul\":7563:7566   */\n      dup3\n        /* \"#utility.yul\":7559:7573   */\n      add\n        /* \"#utility.yul\":7544:7573   */\n      swap1\n      pop\n        /* \"#utility.yul\":7410:7579   */\n      swap3\n      swap2\n      pop\n      pop\n      jump\t// out\n        /* \"#utility.yul\":7585:7890   */\n    tag_61:\n        /* \"#utility.yul\":7625:7628   */\n      0x00\n        /* \"#utility.yul\":7644:7664   */\n      tag_191\n        /* \"#utility.yul\":7662:7663   */\n      dup3\n        /* \"#utility.yul\":7644:7664   */\n      tag_162\n      jump\t// in\n    tag_191:\n        /* \"#utility.yul\":7639:7664   */\n      swap2\n      pop\n        /* \"#utility.yul\":7678:7698   */\n      tag_192\n        /* \"#utility.yul\":7696:7697   */\n      dup4\n        /* \"#utility.yul\":7678:7698   */\n      tag_162\n      jump\t// in\n    tag_192:\n        /* \"#utility.yul\":7673:7698   */\n      swap3\n      pop\n        /* \"#utility.yul\":7832:7833   */\n      dup3\n        /* \"#utility.yul\":7764:7830   */\n      0xffffffffffffffffffffffffffffffffffffffffffffffffffffffffffffffff\n        /* \"#utility.yul\":7760:7834   */\n      sub\n        /* \"#utility.yul\":7757:7758   */\n      dup3\n        /* \"#utility.yul\":7754:7835   */\n      gt\n        /* \"#utility.yul\":7751:7858   */\n      iszero\n      tag_193\n      jumpi\n        /* \"#utility.yul\":7838:7856   */\n      tag_194\n      tag_195\n      jump\t// in\n    tag_194:\n        /* \"#utility.yul\":7751:7858   */\n    tag_193:\n        /* \"#utility.yul\":7882:7883   */\n      dup3\n        /* \"#utility.yul\":7879:7880   */\n      dup3\n        /* \"#utility.yul\":7875:7884   */\n      add\n        /* \"#utility.yul\":7868:7884   */\n      swap1\n      pop\n        /* \"#utility.yul\":7585:7890   */\n      swap3\n      swap2\n      pop\n      pop\n      jump\t// out\n        /* \"#utility.yul\":7896:7992   */\n    tag_138:\n        /* \"#utility.yul\":7933:7940   */\n      0x00\n        /* \"#utility.yul\":7962:7986   */\n      tag_197\n        /* \"#utility.yul\":7980:7985   */\n      dup3\n        /* \"#utility.yul\":7962:7986   */\n      tag_198\n      jump\t// in\n    tag_197:\n        /* \"#utility.yul\":7951:7986   */\n      swap1\n      pop\n        /* \"#utility.yul\":7896:7992   */\n      swap2\n      swap1\n      pop\n      jump\t// out\n        /* \"#utility.yul\":7998:8102   */\n    tag_134:\n        /* \"#utility.yul\":8043:8050   */\n      0x00\n        /* \"#utility.yul\":8072:8096   */\n      tag_200\n        /* \"#utility.yul\":8090:8095   */\n      dup3\n        /* \"#utility.yul\":8072:8096   */\n      tag_198\n      jump\t// in\n    tag_200:\n        /* \"#utility.yul\":8061:8096   */\n      swap1\n      pop\n        /* \"#utility.yul\":7998:8102   */\n      swap2\n      swap1\n      pop\n      jump\t// out\n        /* \"#utility.yul\":8108:8198   */\n    tag_201:\n        /* \"#utility.yul\":8142:8149   */\n      0x00\n        /* \"#utility.yul\":8185:8190   */\n      dup2\n        /* \"#utility.yul\":8178:8191   */\n      iszero\n        /* \"#utility.yul\":8171:8192   */\n      iszero\n        /* \"#utility.yul\":8160:8192   */\n      swap1\n      pop\n        /* \"#utility.yul\":8108:8198   */\n      swap2\n      swap1\n      pop\n      jump\t// out\n        /* \"#utility.yul\":8204:8330   */\n    tag_198:\n        /* \"#utility.yul\":8241:8248   */\n      0x00\n        /* \"#utility.yul\":8281:8323   */\n      0xffffffffffffffffffffffffffffffffffffffff\n        /* \"#utility.yul\":8274:8279   */\n      dup3\n        /* \"#utility.yul\":8270:8324   */\n      and\n        /* \"#utility.yul\":8259:8324   */\n      swap1\n      pop\n        /* \"#utility.yul\":8204:8330   */\n      swap2\n      swap1\n      pop\n      jump\t// out\n        /* \"#utility.yul\":8336:8413   */\n    tag_162:\n        /* \"#utility.yul\":8373:8380   */\n      0x00\n        /* \"#utility.yul\":8402:8407   */\n      dup2\n        /* \"#utility.yul\":8391:8407   */\n      swap1\n      pop\n        /* \"#utility.yul\":8336:8413   */\n      swap2\n      swap1\n      pop\n      jump\t// out\n        /* \"#utility.yul\":8419:8553   */\n    tag_130:\n        /* \"#utility.yul\":8477:8486   */\n      0x00\n        /* \"#utility.yul\":8510:8547   */\n      tag_206\n        /* \"#utility.yul\":8541:8546   */\n      dup3\n        /* \"#utility.yul\":8510:8547   */\n      tag_207\n      jump\t// in\n    tag_206:\n        /* \"#utility.yul\":8497:8547   */\n      swap1\n      pop\n        /* \"#utility.yul\":8419:8553   */\n      swap2\n      swap1\n      pop\n      jump\t// out\n        /* \"#utility.yul\":8559:8699   */\n    tag_142:\n        /* \"#utility.yul\":8623:8632   */\n      0x00\n        /* \"#utility.yul\":8656:8693   */\n      tag_209\n        /* \"#utility.yul\":8687:8692   */\n      dup3\n        /* \"#utility.yul\":8656:8693   */\n      tag_207\n      jump\t// in\n    tag_209:\n        /* \"#utility.yul\":8643:8693   */\n      swap1\n      pop\n        /* \"#utility.yul\":8559:8699   */\n      swap2\n      swap1\n      pop\n      jump\t// out\n        /* \"#utility.yul\":8705:8831   */\n    tag_207:\n        /* \"#utility.yul\":8755:8764   */\n      0x00\n        /* \"#utility.yul\":8788:8825   */\n      tag_211\n        /* \"#utility.yul\":8819:8824   */\n      dup3\n        /* \"#utility.yul\":8788:8825   */\n      tag_212\n      jump\t// in\n    tag_211:\n        /* \"#utility.yul\":8775:8825   */\n      swap1\n      pop\n        /* \"#utility.yul\":8705:8831   */\n      swap2\n      swap1\n      pop\n      jump\t// out\n        /* \"#utility.yul\":8837:8950   */\n    tag_212:\n        /* \"#utility.yul\":8887:8896   */\n      0x00\n        /* \"#utility.yul\":8920:8944   */\n      tag_214\n        /* \"#utility.yul\":8938:8943   */\n      dup3\n        /* \"#utility.yul\":8920:8944   */\n      tag_198\n      jump\t// in\n    tag_214:\n        /* \"#utility.yul\":8907:8944   */\n      swap1\n      pop\n        /* \"#utility.yul\":8837:8950   */\n      swap2\n      swap1\n      pop\n      jump\t// out\n        /* \"#utility.yul\":8956:9136   */\n    tag_195:\n        /* \"#utility.yul\":9004:9081   */\n      0x4e487b7100000000000000000000000000000000000000000000000000000000\n        /* \"#utility.yul\":9001:9002   */\n      0x00\n        /* \"#utility.yul\":8994:9082   */\n      mstore\n        /* \"#utility.yul\":9101:9105   */\n      0x11\n        /* \"#utility.yul\":9098:9099   */\n      0x04\n        /* \"#utility.yul\":9091:9106   */\n      mstore\n        /* \"#utility.yul\":9125:9129   */\n      0x24\n        /* \"#utility.yul\":9122:9123   */\n      0x00\n        /* \"#utility.yul\":9115:9130   */\n      revert\n        /* \"#utility.yul\":9265:9382   */\n    tag_112:\n        /* \"#utility.yul\":9374:9375   */\n      0x00\n        /* \"#utility.yul\":9371:9372   */\n      dup1\n        /* \"#utility.yul\":9364:9376   */\n      revert\n        /* \"#utility.yul\":9388:9620   */\n    tag_148:\n        /* \"#utility.yul\":9528:9562   */\n      0x52656c656173652074696d6520686173206265656e20726561636865642c2063\n        /* \"#utility.yul\":9524:9525   */\n      0x00\n        /* \"#utility.yul\":9516:9522   */\n      dup3\n        /* \"#utility.yul\":9512:9526   */\n      add\n        /* \"#utility.yul\":9505:9563   */\n      mstore\n        /* \"#utility.yul\":9597:9612   */\n      0x616e6e6f742063616e63656c2e00000000000000000000000000000000000000\n        /* \"#utility.yul\":9592:9594   */\n      0x20\n        /* \"#utility.yul\":9584:9590   */\n      dup3\n        /* \"#utility.yul\":9580:9595   */\n      add\n        /* \"#utility.yul\":9573:9613   */\n      mstore\n        /* \"#utility.yul\":9388:9620   */\n      pop\n      jump\t// out\n        /* \"#utility.yul\":9626:9792   */\n    tag_153:\n        /* \"#utility.yul\":9766:9784   */\n      0x5472616e73666572206661696c65642e00000000000000000000000000000000\n        /* \"#utility.yul\":9762:9763   */\n      0x00\n        /* \"#utility.yul\":9754:9760   */\n      dup3\n        /* \"#utility.yul\":9750:9764   */\n      add\n        /* \"#utility.yul\":9743:9785   */\n      mstore\n        /* \"#utility.yul\":9626:9792   */\n      pop\n      jump\t// out\n        /* \"#utility.yul\":9798:10019   */\n    tag_158:\n        /* \"#utility.yul\":9938:9972   */\n      0x52656c656173652074696d6520686173206e6f74206265656e20726561636865\n        /* \"#utility.yul\":9934:9935   */\n      0x00\n        /* \"#utility.yul\":9926:9932   */\n      dup3\n        /* \"#utility.yul\":9922:9936   */\n      add\n        /* \"#utility.yul\":9915:9973   */\n      mstore\n        /* \"#utility.yul\":10007:10011   */\n      0x642e000000000000000000000000000000000000000000000000000000000000\n        /* \"#utility.yul\":10002:10004   */\n      0x20\n        /* \"#utility.yul\":9994:10000   */\n      dup3\n        /* \"#utility.yul\":9990:10005   */\n      add\n        /* \"#utility.yul\":9983:10012   */\n      mstore\n        /* \"#utility.yul\":9798:10019   */\n      pop\n      jump\t// out\n        /* \"#utility.yul\":10025:10147   */\n    tag_97:\n        /* \"#utility.yul\":10098:10122   */\n      tag_223\n        /* \"#utility.yul\":10116:10121   */\n      dup2\n        /* \"#utility.yul\":10098:10122   */\n      tag_138\n      jump\t// in\n    tag_223:\n        /* \"#utility.yul\":10091:10096   */\n      dup2\n        /* \"#utility.yul\":10088:10123   */\n      eq\n        /* \"#utility.yul\":10078:10141   */\n      tag_224\n      jumpi\n        /* \"#utility.yul\":10137:10138   */\n      0x00\n        /* \"#utility.yul\":10134:10135   */\n      dup1\n        /* \"#utility.yul\":10127:10139   */\n      revert\n        /* \"#utility.yul\":10078:10141   */\n    tag_224:\n        /* \"#utility.yul\":10025:10147   */\n      pop\n      jump\t// out\n        /* \"#utility.yul\":10153:10269   */\n    tag_101:\n        /* \"#utility.yul\":10223:10244   */\n      tag_226\n        /* \"#utility.yul\":10238:10243   */\n      dup2\n        /* \"#utility.yul\":10223:10244   */\n      tag_201\n      jump\t// in\n    tag_226:\n        /* \"#utility.yul\":10216:10221   */\n      dup2\n        /* \"#utility.yul\":10213:10245   */\n      eq\n        /* \"#utility.yul\":10203:10263   */\n      tag_227\n      jumpi\n        /* \"#utility.yul\":10259:10260   */\n      0x00\n        /* \"#utility.yul\":10256:10257   */\n      dup1\n        /* \"#utility.yul\":10249:10261   */\n      revert\n        /* \"#utility.yul\":10203:10263   */\n    tag_227:\n        /* \"#utility.yul\":10153:10269   */\n      pop\n      jump\t// out\n        /* \"#utility.yul\":10275:10397   */\n    tag_105:\n        /* \"#utility.yul\":10348:10372   */\n      tag_229\n        /* \"#utility.yul\":10366:10371   */\n      dup2\n        /* \"#utility.yul\":10348:10372   */\n      tag_162\n      jump\t// in\n    tag_229:\n        /* \"#utility.yul\":10341:10346   */\n      dup2\n        /* \"#utility.yul\":10338:10373   */\n      eq\n        /* \"#utility.yul\":10328:10391   */\n      tag_230\n      jumpi\n        /* \"#utility.yul\":10387:10388   */\n      0x00\n        /* \"#utility.yul\":10384:10385   */\n      dup1\n        /* \"#utility.yul\":10377:10389   */\n      revert\n        /* \"#utility.yul\":10328:10391   */\n    tag_230:\n        /* \"#utility.yul\":10275:10397   */\n      pop\n      jump\t// out\n\n    auxdata: 0xa2646970667358221220b5c175e218e09d94fff11a005fd048cdc61299f14c40d9670de42a5d509bd95f64736f6c63430008070033\n}\n",
				"bytecode": {
					"linkReferences": {},
					"object": "608060405234801561001057600080fd5b50604051610e7f380380610e7f83398181016040528101906100329190610132565b816000806101000a81548173ffffffffffffffffffffffffffffffffffffffff021916908373ffffffffffffffffffffffffffffffffffffffff16021790555080600260006101000a81548173ffffffffffffffffffffffffffffffffffffffff021916908373ffffffffffffffffffffffffffffffffffffffff160217905550600260009054906101000a900473ffffffffffffffffffffffffffffffffffffffff16600360006101000a81548173ffffffffffffffffffffffffffffffffffffffff021916908373ffffffffffffffffffffffffffffffffffffffff16021790555050506101c0565b60008151905061012c816101a9565b92915050565b60008060408385031215610149576101486101a4565b5b60006101578582860161011d565b92505060206101688582860161011d565b9150509250929050565b600061017d82610184565b9050919050565b600073ffffffffffffffffffffffffffffffffffffffff82169050919050565b600080fd5b6101b281610172565b81146101bd57600080fd5b50565b610cb0806101cf6000396000f3fe608060405234801561001057600080fd5b506004361061009e5760003560e01c80639d76ea58116100665780639d76ea5814610123578063b91d400114610141578063d39d0f561461015f578063ea8a1af01461018f578063fc0c546a146101995761009e565b806308551a53146100a3578063419759f5146100c157806347e7ef24146100df5780637150d8ae146100fb57806386d1a69f14610119575b600080fd5b6100ab6101b7565b6040516100b891906108f7565b60405180910390f35b6100c96101db565b6040516100d69190610a16565b60405180910390f35b6100f960048036038101906100f4919061078e565b6101e1565b005b610103610330565b60405161011091906108f7565b60405180910390f35b610121610356565b005b61012b6104ad565b60405161013891906108dc565b60405180910390f35b6101496104d3565b6040516101569190610a16565b60405180910390f35b61017960048036038101906101749190610761565b6104d9565b6040516101869190610a16565b60405180910390f35b61019761058f565b005b6101a16106e7565b6040516101ae919061099b565b60405180910390f35b60008054906101000a900473ffffffffffffffffffffffffffffffffffffffff1681565b60045481565b600360009054906101000a900473ffffffffffffffffffffffffffffffffffffffff1673ffffffffffffffffffffffffffffffffffffffff166323b872dd8330846040518463ffffffff1660e01b815260040161024093929190610964565b602060405180830381600087803b15801561025a57600080fd5b505af115801561026e573d6000803e3d6000fd5b505050506040513d601f19601f8201168201806040525081019061029291906107ce565b6102d1576040517f08c379a00000000000000000000000000000000000000000000000000000000081526004016102c8906109d6565b60405180910390fd5b81600160006101000a81548173ffffffffffffffffffffffffffffffffffffffff021916908373ffffffffffffffffffffffffffffffffffffffff160217905550806004819055506064426103269190610a42565b6005819055505050565b600160009054906101000a900473ffffffffffffffffffffffffffffffffffffffff1681565b60055442101561039b576040517f08c379a0000000000000000000000000000000000000000000000000000000008152600401610392906109f6565b60405180910390fd5b600360009054906101000a900473ffffffffffffffffffffffffffffffffffffffff1673ffffffffffffffffffffffffffffffffffffffff1663a9059cbb60008054906101000a900473ffffffffffffffffffffffffffffffffffffffff166004546040518363ffffffff1660e01b815260040161041a929190610912565b602060405180830381600087803b15801561043457600080fd5b505af1158015610448573d6000803e3d6000fd5b505050506040513d601f19601f8201168201806040525081019061046c91906107ce565b6104ab576040517f08c379a00000000000000000000000000000000000000000000000000000000081526004016104a2906109d6565b60405180910390fd5b565b600260009054906101000a900473ffffffffffffffffffffffffffffffffffffffff1681565b60055481565b6000600360009054906101000a900473ffffffffffffffffffffffffffffffffffffffff1673ffffffffffffffffffffffffffffffffffffffff1663dd62ed3e83306040518363ffffffff1660e01b815260040161053892919061093b565b60206040518083038186803b15801561055057600080fd5b505afa158015610564573d6000803e3d6000fd5b505050506040513d601f19601f8201168201806040525081019061058891906107fb565b9050919050565b60055442106105d3576040517f08c379a00000000000000000000000000000000000000000000000000000000081526004016105ca906109b6565b60405180910390fd5b600360009054906101000a900473ffffffffffffffffffffffffffffffffffffffff1673ffffffffffffffffffffffffffffffffffffffff1663a9059cbb600160009054906101000a900473ffffffffffffffffffffffffffffffffffffffff166004546040518363ffffffff1660e01b8152600401610654929190610912565b602060405180830381600087803b15801561066e57600080fd5b505af1158015610682573d6000803e3d6000fd5b505050506040513d601f19601f820116820180604052508101906106a691906107ce565b6106e5576040517f08c379a00000000000000000000000000000000000000000000000000000000081526004016106dc906109d6565b60405180910390fd5b565b600360009054906101000a900473ffffffffffffffffffffffffffffffffffffffff1681565b60008135905061071c81610c35565b92915050565b60008151905061073181610c4c565b92915050565b60008135905061074681610c63565b92915050565b60008151905061075b81610c63565b92915050565b60006020828403121561077757610776610b69565b5b60006107858482850161070d565b91505092915050565b600080604083850312156107a5576107a4610b69565b5b60006107b38582860161070d565b92505060206107c485828601610737565b9150509250929050565b6000602082840312156107e4576107e3610b69565b5b60006107f284828501610722565b91505092915050565b60006020828403121561081157610810610b69565b5b600061081f8482850161074c565b91505092915050565b61083181610af2565b82525050565b61084081610aaa565b82525050565b61084f81610a98565b82525050565b61085e81610b04565b82525050565b6000610871602d83610a31565b915061087c82610b6e565b604082019050919050565b6000610894601083610a31565b915061089f82610bbd565b602082019050919050565b60006108b7602283610a31565b91506108c282610be6565b604082019050919050565b6108d681610ae8565b82525050565b60006020820190506108f16000830184610846565b92915050565b600060208201905061090c6000830184610837565b92915050565b60006040820190506109276000830185610828565b61093460208301846108cd565b9392505050565b60006040820190506109506000830185610846565b61095d6020830184610846565b9392505050565b60006060820190506109796000830186610846565b6109866020830185610846565b61099360408301846108cd565b949350505050565b60006020820190506109b06000830184610855565b92915050565b600060208201905081810360008301526109cf81610864565b9050919050565b600060208201905081810360008301526109ef81610887565b9050919050565b60006020820190508181036000830152610a0f816108aa565b9050919050565b6000602082019050610a2b60008301846108cd565b92915050565b600082825260208201905092915050565b6000610a4d82610ae8565b9150610a5883610ae8565b9250827fffffffffffffffffffffffffffffffffffffffffffffffffffffffffffffffff03821115610a8d57610a8c610b3a565b5b828201905092915050565b6000610aa382610ac8565b9050919050565b6000610ab582610ac8565b9050919050565b60008115159050919050565b600073ffffffffffffffffffffffffffffffffffffffff82169050919050565b6000819050919050565b6000610afd82610b16565b9050919050565b6000610b0f82610b16565b9050919050565b6000610b2182610b28565b9050919050565b6000610b3382610ac8565b9050919050565b7f4e487b7100000000000000000000000000000000000000000000000000000000600052601160045260246000fd5b600080fd5b7f52656c656173652074696d6520686173206265656e20726561636865642c206360008201527f616e6e6f742063616e63656c2e00000000000000000000000000000000000000602082015250565b7f5472616e73666572206661696c65642e00000000000000000000000000000000600082015250565b7f52656c656173652074696d6520686173206e6f74206265656e2072656163686560008201527f642e000000000000000000000000000000000000000000000000000000000000602082015250565b610c3e81610a98565b8114610c4957600080fd5b50565b610c5581610abc565b8114610c6057600080fd5b50565b610c6c81610ae8565b8114610c7757600080fd5b5056fea2646970667358221220b5c175e218e09d94fff11a005fd048cdc61299f14c40d9670de42a5d509bd95f64736f6c63430008070033",
					"opcodes": "PUSH1 0x80 PUSH1 0x40 MSTORE CALLVALUE DUP1 ISZERO PUSH2 0x10 JUMPI PUSH1 0x0 DUP1 REVERT JUMPDEST POP PUSH1 0x40 MLOAD PUSH2 0xE7F CODESIZE SUB DUP1 PUSH2 0xE7F DUP4 CODECOPY DUP2 DUP2 ADD PUSH1 0x40 MSTORE DUP2 ADD SWAP1 PUSH2 0x32 SWAP2 SWAP1 PUSH2 0x132 JUMP JUMPDEST DUP2 PUSH1 0x0 DUP1 PUSH2 0x100 EXP DUP2 SLOAD DUP2 PUSH20 0xFFFFFFFFFFFFFFFFFFFFFFFFFFFFFFFFFFFFFFFF MUL NOT AND SWAP1 DUP4 PUSH20 0xFFFFFFFFFFFFFFFFFFFFFFFFFFFFFFFFFFFFFFFF AND MUL OR SWAP1 SSTORE POP DUP1 PUSH1 0x2 PUSH1 0x0 PUSH2 0x100 EXP DUP2 SLOAD DUP2 PUSH20 0xFFFFFFFFFFFFFFFFFFFFFFFFFFFFFFFFFFFFFFFF MUL NOT AND SWAP1 DUP4 PUSH20 0xFFFFFFFFFFFFFFFFFFFFFFFFFFFFFFFFFFFFFFFF AND MUL OR SWAP1 SSTORE POP PUSH1 0x2 PUSH1 0x0 SWAP1 SLOAD SWAP1 PUSH2 0x100 EXP SWAP1 DIV PUSH20 0xFFFFFFFFFFFFFFFFFFFFFFFFFFFFFFFFFFFFFFFF AND PUSH1 0x3 PUSH1 0x0 PUSH2 0x100 EXP DUP2 SLOAD DUP2 PUSH20 0xFFFFFFFFFFFFFFFFFFFFFFFFFFFFFFFFFFFFFFFF MUL NOT AND SWAP1 DUP4 PUSH20 0xFFFFFFFFFFFFFFFFFFFFFFFFFFFFFFFFFFFFFFFF AND MUL OR SWAP1 SSTORE POP POP POP PUSH2 0x1C0 JUMP JUMPDEST PUSH1 0x0 DUP2 MLOAD SWAP1 POP PUSH2 0x12C DUP2 PUSH2 0x1A9 JUMP JUMPDEST SWAP3 SWAP2 POP POP JUMP JUMPDEST PUSH1 0x0 DUP1 PUSH1 0x40 DUP4 DUP6 SUB SLT ISZERO PUSH2 0x149 JUMPI PUSH2 0x148 PUSH2 0x1A4 JUMP JUMPDEST JUMPDEST PUSH1 0x0 PUSH2 0x157 DUP6 DUP3 DUP7 ADD PUSH2 0x11D JUMP JUMPDEST SWAP3 POP POP PUSH1 0x20 PUSH2 0x168 DUP6 DUP3 DUP7 ADD PUSH2 0x11D JUMP JUMPDEST SWAP2 POP POP SWAP3 POP SWAP3 SWAP1 POP JUMP JUMPDEST PUSH1 0x0 PUSH2 0x17D DUP3 PUSH2 0x184 JUMP JUMPDEST SWAP1 POP SWAP2 SWAP1 POP JUMP JUMPDEST PUSH1 0x0 PUSH20 0xFFFFFFFFFFFFFFFFFFFFFFFFFFFFFFFFFFFFFFFF DUP3 AND SWAP1 POP SWAP2 SWAP1 POP JUMP JUMPDEST PUSH1 0x0 DUP1 REVERT JUMPDEST PUSH2 0x1B2 DUP2 PUSH2 0x172 JUMP JUMPDEST DUP2 EQ PUSH2 0x1BD JUMPI PUSH1 0x0 DUP1 REVERT JUMPDEST POP JUMP JUMPDEST PUSH2 0xCB0 DUP1 PUSH2 0x1CF PUSH1 0x0 CODECOPY PUSH1 0x0 RETURN INVALID PUSH1 0x80 PUSH1 0x40 MSTORE CALLVALUE DUP1 ISZERO PUSH2 0x10 JUMPI PUSH1 0x0 DUP1 REVERT JUMPDEST POP PUSH1 0x4 CALLDATASIZE LT PUSH2 0x9E JUMPI PUSH1 0x0 CALLDATALOAD PUSH1 0xE0 SHR DUP1 PUSH4 0x9D76EA58 GT PUSH2 0x66 JUMPI DUP1 PUSH4 0x9D76EA58 EQ PUSH2 0x123 JUMPI DUP1 PUSH4 0xB91D4001 EQ PUSH2 0x141 JUMPI DUP1 PUSH4 0xD39D0F56 EQ PUSH2 0x15F JUMPI DUP1 PUSH4 0xEA8A1AF0 EQ PUSH2 0x18F JUMPI DUP1 PUSH4 0xFC0C546A EQ PUSH2 0x199 JUMPI PUSH2 0x9E JUMP JUMPDEST DUP1 PUSH4 0x8551A53 EQ PUSH2 0xA3 JUMPI DUP1 PUSH4 0x419759F5 EQ PUSH2 0xC1 JUMPI DUP1 PUSH4 0x47E7EF24 EQ PUSH2 0xDF JUMPI DUP1 PUSH4 0x7150D8AE EQ PUSH2 0xFB JUMPI DUP1 PUSH4 0x86D1A69F EQ PUSH2 0x119 JUMPI JUMPDEST PUSH1 0x0 DUP1 REVERT JUMPDEST PUSH2 0xAB PUSH2 0x1B7 JUMP JUMPDEST PUSH1 0x40 MLOAD PUSH2 0xB8 SWAP2 SWAP1 PUSH2 0x8F7 JUMP JUMPDEST PUSH1 0x40 MLOAD DUP1 SWAP2 SUB SWAP1 RETURN JUMPDEST PUSH2 0xC9 PUSH2 0x1DB JUMP JUMPDEST PUSH1 0x40 MLOAD PUSH2 0xD6 SWAP2 SWAP1 PUSH2 0xA16 JUMP JUMPDEST PUSH1 0x40 MLOAD DUP1 SWAP2 SUB SWAP1 RETURN JUMPDEST PUSH2 0xF9 PUSH1 0x4 DUP1 CALLDATASIZE SUB DUP2 ADD SWAP1 PUSH2 0xF4 SWAP2 SWAP1 PUSH2 0x78E JUMP JUMPDEST PUSH2 0x1E1 JUMP JUMPDEST STOP JUMPDEST PUSH2 0x103 PUSH2 0x330 JUMP JUMPDEST PUSH1 0x40 MLOAD PUSH2 0x110 SWAP2 SWAP1 PUSH2 0x8F7 JUMP JUMPDEST PUSH1 0x40 MLOAD DUP1 SWAP2 SUB SWAP1 RETURN JUMPDEST PUSH2 0x121 PUSH2 0x356 JUMP JUMPDEST STOP JUMPDEST PUSH2 0x12B PUSH2 0x4AD JUMP JUMPDEST PUSH1 0x40 MLOAD PUSH2 0x138 SWAP2 SWAP1 PUSH2 0x8DC JUMP JUMPDEST PUSH1 0x40 MLOAD DUP1 SWAP2 SUB SWAP1 RETURN JUMPDEST PUSH2 0x149 PUSH2 0x4D3 JUMP JUMPDEST PUSH1 0x40 MLOAD PUSH2 0x156 SWAP2 SWAP1 PUSH2 0xA16 JUMP JUMPDEST PUSH1 0x40 MLOAD DUP1 SWAP2 SUB SWAP1 RETURN JUMPDEST PUSH2 0x179 PUSH1 0x4 DUP1 CALLDATASIZE SUB DUP2 ADD SWAP1 PUSH2 0x174 SWAP2 SWAP1 PUSH2 0x761 JUMP JUMPDEST PUSH2 0x4D9 JUMP JUMPDEST PUSH1 0x40 MLOAD PUSH2 0x186 SWAP2 SWAP1 PUSH2 0xA16 JUMP JUMPDEST PUSH1 0x40 MLOAD DUP1 SWAP2 SUB SWAP1 RETURN JUMPDEST PUSH2 0x197 PUSH2 0x58F JUMP JUMPDEST STOP JUMPDEST PUSH2 0x1A1 PUSH2 0x6E7 JUMP JUMPDEST PUSH1 0x40 MLOAD PUSH2 0x1AE SWAP2 SWAP1 PUSH2 0x99B JUMP JUMPDEST PUSH1 0x40 MLOAD DUP1 SWAP2 SUB SWAP1 RETURN JUMPDEST PUSH1 0x0 DUP1 SLOAD SWAP1 PUSH2 0x100 EXP SWAP1 DIV PUSH20 0xFFFFFFFFFFFFFFFFFFFFFFFFFFFFFFFFFFFFFFFF AND DUP2 JUMP JUMPDEST PUSH1 0x4 SLOAD DUP2 JUMP JUMPDEST PUSH1 0x3 PUSH1 0x0 SWAP1 SLOAD SWAP1 PUSH2 0x100 EXP SWAP1 DIV PUSH20 0xFFFFFFFFFFFFFFFFFFFFFFFFFFFFFFFFFFFFFFFF AND PUSH20 0xFFFFFFFFFFFFFFFFFFFFFFFFFFFFFFFFFFFFFFFF AND PUSH4 0x23B872DD DUP4 ADDRESS DUP5 PUSH1 0x40 MLOAD DUP5 PUSH4 0xFFFFFFFF AND PUSH1 0xE0 SHL DUP2 MSTORE PUSH1 0x4 ADD PUSH2 0x240 SWAP4 SWAP3 SWAP2 SWAP1 PUSH2 0x964 JUMP JUMPDEST PUSH1 0x20 PUSH1 0x40 MLOAD DUP1 DUP4 SUB DUP2 PUSH1 0x0 DUP8 DUP1 EXTCODESIZE ISZERO DUP1 ISZERO PUSH2 0x25A JUMPI PUSH1 0x0 DUP1 REVERT JUMPDEST POP GAS CALL ISZERO DUP1 ISZERO PUSH2 0x26E JUMPI RETURNDATASIZE PUSH1 0x0 DUP1 RETURNDATACOPY RETURNDATASIZE PUSH1 0x0 REVERT JUMPDEST POP POP POP POP PUSH1 0x40 MLOAD RETURNDATASIZE PUSH1 0x1F NOT PUSH1 0x1F DUP3 ADD AND DUP3 ADD DUP1 PUSH1 0x40 MSTORE POP DUP2 ADD SWAP1 PUSH2 0x292 SWAP2 SWAP1 PUSH2 0x7CE JUMP JUMPDEST PUSH2 0x2D1 JUMPI PUSH1 0x40 MLOAD PUSH32 0x8C379A000000000000000000000000000000000000000000000000000000000 DUP2 MSTORE PUSH1 0x4 ADD PUSH2 0x2C8 SWAP1 PUSH2 0x9D6 JUMP JUMPDEST PUSH1 0x40 MLOAD DUP1 SWAP2 SUB SWAP1 REVERT JUMPDEST DUP2 PUSH1 0x1 PUSH1 0x0 PUSH2 0x100 EXP DUP2 SLOAD DUP2 PUSH20 0xFFFFFFFFFFFFFFFFFFFFFFFFFFFFFFFFFFFFFFFF MUL NOT AND SWAP1 DUP4 PUSH20 0xFFFFFFFFFFFFFFFFFFFFFFFFFFFFFFFFFFFFFFFF AND MUL OR SWAP1 SSTORE POP DUP1 PUSH1 0x4 DUP2 SWAP1 SSTORE POP PUSH1 0x64 TIMESTAMP PUSH2 0x326 SWAP2 SWAP1 PUSH2 0xA42 JUMP JUMPDEST PUSH1 0x5 DUP2 SWAP1 SSTORE POP POP POP JUMP JUMPDEST PUSH1 0x1 PUSH1 0x0 SWAP1 SLOAD SWAP1 PUSH2 0x100 EXP SWAP1 DIV PUSH20 0xFFFFFFFFFFFFFFFFFFFFFFFFFFFFFFFFFFFFFFFF AND DUP2 JUMP JUMPDEST PUSH1 0x5 SLOAD TIMESTAMP LT ISZERO PUSH2 0x39B JUMPI PUSH1 0x40 MLOAD PUSH32 0x8C379A000000000000000000000000000000000000000000000000000000000 DUP2 MSTORE PUSH1 0x4 ADD PUSH2 0x392 SWAP1 PUSH2 0x9F6 JUMP JUMPDEST PUSH1 0x40 MLOAD DUP1 SWAP2 SUB SWAP1 REVERT JUMPDEST PUSH1 0x3 PUSH1 0x0 SWAP1 SLOAD SWAP1 PUSH2 0x100 EXP SWAP1 DIV PUSH20 0xFFFFFFFFFFFFFFFFFFFFFFFFFFFFFFFFFFFFFFFF AND PUSH20 0xFFFFFFFFFFFFFFFFFFFFFFFFFFFFFFFFFFFFFFFF AND PUSH4 0xA9059CBB PUSH1 0x0 DUP1 SLOAD SWAP1 PUSH2 0x100 EXP SWAP1 DIV PUSH20 0xFFFFFFFFFFFFFFFFFFFFFFFFFFFFFFFFFFFFFFFF AND PUSH1 0x4 SLOAD PUSH1 0x40 MLOAD DUP4 PUSH4 0xFFFFFFFF AND PUSH1 0xE0 SHL DUP2 MSTORE PUSH1 0x4 ADD PUSH2 0x41A SWAP3 SWAP2 SWAP1 PUSH2 0x912 JUMP JUMPDEST PUSH1 0x20 PUSH1 0x40 MLOAD DUP1 DUP4 SUB DUP2 PUSH1 0x0 DUP8 DUP1 EXTCODESIZE ISZERO DUP1 ISZERO PUSH2 0x434 JUMPI PUSH1 0x0 DUP1 REVERT JUMPDEST POP GAS CALL ISZERO DUP1 ISZERO PUSH2 0x448 JUMPI RETURNDATASIZE PUSH1 0x0 DUP1 RETURNDATACOPY RETURNDATASIZE PUSH1 0x0 REVERT JUMPDEST POP POP POP POP PUSH1 0x40 MLOAD RETURNDATASIZE PUSH1 0x1F NOT PUSH1 0x1F DUP3 ADD AND DUP3 ADD DUP1 PUSH1 0x40 MSTORE POP DUP2 ADD SWAP1 PUSH2 0x46C SWAP2 SWAP1 PUSH2 0x7CE JUMP JUMPDEST PUSH2 0x4AB JUMPI PUSH1 0x40 MLOAD PUSH32 0x8C379A000000000000000000000000000000000000000000000000000000000 DUP2 MSTORE PUSH1 0x4 ADD PUSH2 0x4A2 SWAP1 PUSH2 0x9D6 JUMP JUMPDEST PUSH1 0x40 MLOAD DUP1 SWAP2 SUB SWAP1 REVERT JUMPDEST JUMP JUMPDEST PUSH1 0x2 PUSH1 0x0 SWAP1 SLOAD SWAP1 PUSH2 0x100 EXP SWAP1 DIV PUSH20 0xFFFFFFFFFFFFFFFFFFFFFFFFFFFFFFFFFFFFFFFF AND DUP2 JUMP JUMPDEST PUSH1 0x5 SLOAD DUP2 JUMP JUMPDEST PUSH1 0x0 PUSH1 0x3 PUSH1 0x0 SWAP1 SLOAD SWAP1 PUSH2 0x100 EXP SWAP1 DIV PUSH20 0xFFFFFFFFFFFFFFFFFFFFFFFFFFFFFFFFFFFFFFFF AND PUSH20 0xFFFFFFFFFFFFFFFFFFFFFFFFFFFFFFFFFFFFFFFF AND PUSH4 0xDD62ED3E DUP4 ADDRESS PUSH1 0x40 MLOAD DUP4 PUSH4 0xFFFFFFFF AND PUSH1 0xE0 SHL DUP2 MSTORE PUSH1 0x4 ADD PUSH2 0x538 SWAP3 SWAP2 SWAP1 PUSH2 0x93B JUMP JUMPDEST PUSH1 0x20 PUSH1 0x40 MLOAD DUP1 DUP4 SUB DUP2 DUP7 DUP1 EXTCODESIZE ISZERO DUP1 ISZERO PUSH2 0x550 JUMPI PUSH1 0x0 DUP1 REVERT JUMPDEST POP GAS STATICCALL ISZERO DUP1 ISZERO PUSH2 0x564 JUMPI RETURNDATASIZE PUSH1 0x0 DUP1 RETURNDATACOPY RETURNDATASIZE PUSH1 0x0 REVERT JUMPDEST POP POP POP POP PUSH1 0x40 MLOAD RETURNDATASIZE PUSH1 0x1F NOT PUSH1 0x1F DUP3 ADD AND DUP3 ADD DUP1 PUSH1 0x40 MSTORE POP DUP2 ADD SWAP1 PUSH2 0x588 SWAP2 SWAP1 PUSH2 0x7FB JUMP JUMPDEST SWAP1 POP SWAP2 SWAP1 POP JUMP JUMPDEST PUSH1 0x5 SLOAD TIMESTAMP LT PUSH2 0x5D3 JUMPI PUSH1 0x40 MLOAD PUSH32 0x8C379A000000000000000000000000000000000000000000000000000000000 DUP2 MSTORE PUSH1 0x4 ADD PUSH2 0x5CA SWAP1 PUSH2 0x9B6 JUMP JUMPDEST PUSH1 0x40 MLOAD DUP1 SWAP2 SUB SWAP1 REVERT JUMPDEST PUSH1 0x3 PUSH1 0x0 SWAP1 SLOAD SWAP1 PUSH2 0x100 EXP SWAP1 DIV PUSH20 0xFFFFFFFFFFFFFFFFFFFFFFFFFFFFFFFFFFFFFFFF AND PUSH20 0xFFFFFFFFFFFFFFFFFFFFFFFFFFFFFFFFFFFFFFFF AND PUSH4 0xA9059CBB PUSH1 0x1 PUSH1 0x0 SWAP1 SLOAD SWAP1 PUSH2 0x100 EXP SWAP1 DIV PUSH20 0xFFFFFFFFFFFFFFFFFFFFFFFFFFFFFFFFFFFFFFFF AND PUSH1 0x4 SLOAD PUSH1 0x40 MLOAD DUP4 PUSH4 0xFFFFFFFF AND PUSH1 0xE0 SHL DUP2 MSTORE PUSH1 0x4 ADD PUSH2 0x654 SWAP3 SWAP2 SWAP1 PUSH2 0x912 JUMP JUMPDEST PUSH1 0x20 PUSH1 0x40 MLOAD DUP1 DUP4 SUB DUP2 PUSH1 0x0 DUP8 DUP1 EXTCODESIZE ISZERO DUP1 ISZERO PUSH2 0x66E JUMPI PUSH1 0x0 DUP1 REVERT JUMPDEST POP GAS CALL ISZERO DUP1 ISZERO PUSH2 0x682 JUMPI RETURNDATASIZE PUSH1 0x0 DUP1 RETURNDATACOPY RETURNDATASIZE PUSH1 0x0 REVERT JUMPDEST POP POP POP POP PUSH1 0x40 MLOAD RETURNDATASIZE PUSH1 0x1F NOT PUSH1 0x1F DUP3 ADD AND DUP3 ADD DUP1 PUSH1 0x40 MSTORE POP DUP2 ADD SWAP1 PUSH2 0x6A6 SWAP2 SWAP1 PUSH2 0x7CE JUMP JUMPDEST PUSH2 0x6E5 JUMPI PUSH1 0x40 MLOAD PUSH32 0x8C379A000000000000000000000000000000000000000000000000000000000 DUP2 MSTORE PUSH1 0x4 ADD PUSH2 0x6DC SWAP1 PUSH2 0x9D6 JUMP JUMPDEST PUSH1 0x40 MLOAD DUP1 SWAP2 SUB SWAP1 REVERT JUMPDEST JUMP JUMPDEST PUSH1 0x3 PUSH1 0x0 SWAP1 SLOAD SWAP1 PUSH2 0x100 EXP SWAP1 DIV PUSH20 0xFFFFFFFFFFFFFFFFFFFFFFFFFFFFFFFFFFFFFFFF AND DUP2 JUMP JUMPDEST PUSH1 0x0 DUP2 CALLDATALOAD SWAP1 POP PUSH2 0x71C DUP2 PUSH2 0xC35 JUMP JUMPDEST SWAP3 SWAP2 POP POP JUMP JUMPDEST PUSH1 0x0 DUP2 MLOAD SWAP1 POP PUSH2 0x731 DUP2 PUSH2 0xC4C JUMP JUMPDEST SWAP3 SWAP2 POP POP JUMP JUMPDEST PUSH1 0x0 DUP2 CALLDATALOAD SWAP1 POP PUSH2 0x746 DUP2 PUSH2 0xC63 JUMP JUMPDEST SWAP3 SWAP2 POP POP JUMP JUMPDEST PUSH1 0x0 DUP2 MLOAD SWAP1 POP PUSH2 0x75B DUP2 PUSH2 0xC63 JUMP JUMPDEST SWAP3 SWAP2 POP POP JUMP JUMPDEST PUSH1 0x0 PUSH1 0x20 DUP3 DUP5 SUB SLT ISZERO PUSH2 0x777 JUMPI PUSH2 0x776 PUSH2 0xB69 JUMP JUMPDEST JUMPDEST PUSH1 0x0 PUSH2 0x785 DUP5 DUP3 DUP6 ADD PUSH2 0x70D JUMP JUMPDEST SWAP2 POP POP SWAP3 SWAP2 POP POP JUMP JUMPDEST PUSH1 0x0 DUP1 PUSH1 0x40 DUP4 DUP6 SUB SLT ISZERO PUSH2 0x7A5 JUMPI PUSH2 0x7A4 PUSH2 0xB69 JUMP JUMPDEST JUMPDEST PUSH1 0x0 PUSH2 0x7B3 DUP6 DUP3 DUP7 ADD PUSH2 0x70D JUMP JUMPDEST SWAP3 POP POP PUSH1 0x20 PUSH2 0x7C4 DUP6 DUP3 DUP7 ADD PUSH2 0x737 JUMP JUMPDEST SWAP2 POP POP SWAP3 POP SWAP3 SWAP1 POP JUMP JUMPDEST PUSH1 0x0 PUSH1 0x20 DUP3 DUP5 SUB SLT ISZERO PUSH2 0x7E4 JUMPI PUSH2 0x7E3 PUSH2 0xB69 JUMP JUMPDEST JUMPDEST PUSH1 0x0 PUSH2 0x7F2 DUP5 DUP3 DUP6 ADD PUSH2 0x722 JUMP JUMPDEST SWAP2 POP POP SWAP3 SWAP2 POP POP JUMP JUMPDEST PUSH1 0x0 PUSH1 0x20 DUP3 DUP5 SUB SLT ISZERO PUSH2 0x811 JUMPI PUSH2 0x810 PUSH2 0xB69 JUMP JUMPDEST JUMPDEST PUSH1 0x0 PUSH2 0x81F DUP5 DUP3 DUP6 ADD PUSH2 0x74C JUMP JUMPDEST SWAP2 POP POP SWAP3 SWAP2 POP POP JUMP JUMPDEST PUSH2 0x831 DUP2 PUSH2 0xAF2 JUMP JUMPDEST DUP3 MSTORE POP POP JUMP JUMPDEST PUSH2 0x840 DUP2 PUSH2 0xAAA JUMP JUMPDEST DUP3 MSTORE POP POP JUMP JUMPDEST PUSH2 0x84F DUP2 PUSH2 0xA98 JUMP JUMPDEST DUP3 MSTORE POP POP JUMP JUMPDEST PUSH2 0x85E DUP2 PUSH2 0xB04 JUMP JUMPDEST DUP3 MSTORE POP POP JUMP JUMPDEST PUSH1 0x0 PUSH2 0x871 PUSH1 0x2D DUP4 PUSH2 0xA31 JUMP JUMPDEST SWAP2 POP PUSH2 0x87C DUP3 PUSH2 0xB6E JUMP JUMPDEST PUSH1 0x40 DUP3 ADD SWAP1 POP SWAP2 SWAP1 POP JUMP JUMPDEST PUSH1 0x0 PUSH2 0x894 PUSH1 0x10 DUP4 PUSH2 0xA31 JUMP JUMPDEST SWAP2 POP PUSH2 0x89F DUP3 PUSH2 0xBBD JUMP JUMPDEST PUSH1 0x20 DUP3 ADD SWAP1 POP SWAP2 SWAP1 POP JUMP JUMPDEST PUSH1 0x0 PUSH2 0x8B7 PUSH1 0x22 DUP4 PUSH2 0xA31 JUMP JUMPDEST SWAP2 POP PUSH2 0x8C2 DUP3 PUSH2 0xBE6 JUMP JUMPDEST PUSH1 0x40 DUP3 ADD SWAP1 POP SWAP2 SWAP1 POP JUMP JUMPDEST PUSH2 0x8D6 DUP2 PUSH2 0xAE8 JUMP JUMPDEST DUP3 MSTORE POP POP JUMP JUMPDEST PUSH1 0x0 PUSH1 0x20 DUP3 ADD SWAP1 POP PUSH2 0x8F1 PUSH1 0x0 DUP4 ADD DUP5 PUSH2 0x846 JUMP JUMPDEST SWAP3 SWAP2 POP POP JUMP JUMPDEST PUSH1 0x0 PUSH1 0x20 DUP3 ADD SWAP1 POP PUSH2 0x90C PUSH1 0x0 DUP4 ADD DUP5 PUSH2 0x837 JUMP JUMPDEST SWAP3 SWAP2 POP POP JUMP JUMPDEST PUSH1 0x0 PUSH1 0x40 DUP3 ADD SWAP1 POP PUSH2 0x927 PUSH1 0x0 DUP4 ADD DUP6 PUSH2 0x828 JUMP JUMPDEST PUSH2 0x934 PUSH1 0x20 DUP4 ADD DUP5 PUSH2 0x8CD JUMP JUMPDEST SWAP4 SWAP3 POP POP POP JUMP JUMPDEST PUSH1 0x0 PUSH1 0x40 DUP3 ADD SWAP1 POP PUSH2 0x950 PUSH1 0x0 DUP4 ADD DUP6 PUSH2 0x846 JUMP JUMPDEST PUSH2 0x95D PUSH1 0x20 DUP4 ADD DUP5 PUSH2 0x846 JUMP JUMPDEST SWAP4 SWAP3 POP POP POP JUMP JUMPDEST PUSH1 0x0 PUSH1 0x60 DUP3 ADD SWAP1 POP PUSH2 0x979 PUSH1 0x0 DUP4 ADD DUP7 PUSH2 0x846 JUMP JUMPDEST PUSH2 0x986 PUSH1 0x20 DUP4 ADD DUP6 PUSH2 0x846 JUMP JUMPDEST PUSH2 0x993 PUSH1 0x40 DUP4 ADD DUP5 PUSH2 0x8CD JUMP JUMPDEST SWAP5 SWAP4 POP POP POP POP JUMP JUMPDEST PUSH1 0x0 PUSH1 0x20 DUP3 ADD SWAP1 POP PUSH2 0x9B0 PUSH1 0x0 DUP4 ADD DUP5 PUSH2 0x855 JUMP JUMPDEST SWAP3 SWAP2 POP POP JUMP JUMPDEST PUSH1 0x0 PUSH1 0x20 DUP3 ADD SWAP1 POP DUP2 DUP2 SUB PUSH1 0x0 DUP4 ADD MSTORE PUSH2 0x9CF DUP2 PUSH2 0x864 JUMP JUMPDEST SWAP1 POP SWAP2 SWAP1 POP JUMP JUMPDEST PUSH1 0x0 PUSH1 0x20 DUP3 ADD SWAP1 POP DUP2 DUP2 SUB PUSH1 0x0 DUP4 ADD MSTORE PUSH2 0x9EF DUP2 PUSH2 0x887 JUMP JUMPDEST SWAP1 POP SWAP2 SWAP1 POP JUMP JUMPDEST PUSH1 0x0 PUSH1 0x20 DUP3 ADD SWAP1 POP DUP2 DUP2 SUB PUSH1 0x0 DUP4 ADD MSTORE PUSH2 0xA0F DUP2 PUSH2 0x8AA JUMP JUMPDEST SWAP1 POP SWAP2 SWAP1 POP JUMP JUMPDEST PUSH1 0x0 PUSH1 0x20 DUP3 ADD SWAP1 POP PUSH2 0xA2B PUSH1 0x0 DUP4 ADD DUP5 PUSH2 0x8CD JUMP JUMPDEST SWAP3 SWAP2 POP POP JUMP JUMPDEST PUSH1 0x0 DUP3 DUP3 MSTORE PUSH1 0x20 DUP3 ADD SWAP1 POP SWAP3 SWAP2 POP POP JUMP JUMPDEST PUSH1 0x0 PUSH2 0xA4D DUP3 PUSH2 0xAE8 JUMP JUMPDEST SWAP2 POP PUSH2 0xA58 DUP4 PUSH2 0xAE8 JUMP JUMPDEST SWAP3 POP DUP3 PUSH32 0xFFFFFFFFFFFFFFFFFFFFFFFFFFFFFFFFFFFFFFFFFFFFFFFFFFFFFFFFFFFFFFFF SUB DUP3 GT ISZERO PUSH2 0xA8D JUMPI PUSH2 0xA8C PUSH2 0xB3A JUMP JUMPDEST JUMPDEST DUP3 DUP3 ADD SWAP1 POP SWAP3 SWAP2 POP POP JUMP JUMPDEST PUSH1 0x0 PUSH2 0xAA3 DUP3 PUSH2 0xAC8 JUMP JUMPDEST SWAP1 POP SWAP2 SWAP1 POP JUMP JUMPDEST PUSH1 0x0 PUSH2 0xAB5 DUP3 PUSH2 0xAC8 JUMP JUMPDEST SWAP1 POP SWAP2 SWAP1 POP JUMP JUMPDEST PUSH1 0x0 DUP2 ISZERO ISZERO SWAP1 POP SWAP2 SWAP1 POP JUMP JUMPDEST PUSH1 0x0 PUSH20 0xFFFFFFFFFFFFFFFFFFFFFFFFFFFFFFFFFFFFFFFF DUP3 AND SWAP1 POP SWAP2 SWAP1 POP JUMP JUMPDEST PUSH1 0x0 DUP2 SWAP1 POP SWAP2 SWAP1 POP JUMP JUMPDEST PUSH1 0x0 PUSH2 0xAFD DUP3 PUSH2 0xB16 JUMP JUMPDEST SWAP1 POP SWAP2 SWAP1 POP JUMP JUMPDEST PUSH1 0x0 PUSH2 0xB0F DUP3 PUSH2 0xB16 JUMP JUMPDEST SWAP1 POP SWAP2 SWAP1 POP JUMP JUMPDEST PUSH1 0x0 PUSH2 0xB21 DUP3 PUSH2 0xB28 JUMP JUMPDEST SWAP1 POP SWAP2 SWAP1 POP JUMP JUMPDEST PUSH1 0x0 PUSH2 0xB33 DUP3 PUSH2 0xAC8 JUMP JUMPDEST SWAP1 POP SWAP2 SWAP1 POP JUMP JUMPDEST PUSH32 0x4E487B7100000000000000000000000000000000000000000000000000000000 PUSH1 0x0 MSTORE PUSH1 0x11 PUSH1 0x4 MSTORE PUSH1 0x24 PUSH1 0x0 REVERT JUMPDEST PUSH1 0x0 DUP1 REVERT JUMPDEST PUSH32 0x52656C656173652074696D6520686173206265656E20726561636865642C2063 PUSH1 0x0 DUP3 ADD MSTORE PUSH32 0x616E6E6F742063616E63656C2E00000000000000000000000000000000000000 PUSH1 0x20 DUP3 ADD MSTORE POP JUMP JUMPDEST PUSH32 0x5472616E73666572206661696C65642E00000000000000000000000000000000 PUSH1 0x0 DUP3 ADD MSTORE POP JUMP JUMPDEST PUSH32 0x52656C656173652074696D6520686173206E6F74206265656E20726561636865 PUSH1 0x0 DUP3 ADD MSTORE PUSH32 0x642E000000000000000000000000000000000000000000000000000000000000 PUSH1 0x20 DUP3 ADD MSTORE POP JUMP JUMPDEST PUSH2 0xC3E DUP2 PUSH2 0xA98 JUMP JUMPDEST DUP2 EQ PUSH2 0xC49 JUMPI PUSH1 0x0 DUP1 REVERT JUMPDEST POP JUMP JUMPDEST PUSH2 0xC55 DUP2 PUSH2 0xABC JUMP JUMPDEST DUP2 EQ PUSH2 0xC60 JUMPI PUSH1 0x0 DUP1 REVERT JUMPDEST POP JUMP JUMPDEST PUSH2 0xC6C DUP2 PUSH2 0xAE8 JUMP JUMPDEST DUP2 EQ PUSH2 0xC77 JUMPI PUSH1 0x0 DUP1 REVERT JUMPDEST POP JUMP INVALID LOG2 PUSH5 0x6970667358 0x22 SLT KECCAK256 0xB5 0xC1 PUSH22 0xE218E09D94FFF11A005FD048CDC61299F14C40D9670D 0xE4 0x2A 0x5D POP SWAP12 0xD9 0x5F PUSH5 0x736F6C6343 STOP ADDMOD SMOD STOP CALLER "
				},
				"gasEstimates": {
					"creation": {
						"codeDepositCost": "649600",
						"executionCost": "infinite",
						"totalCost": "infinite"
					},
					"external": {
						"allowancecheck(address)": "infinite",
						"buyer()": "2581",
						"cancel()": "infinite",
						"deposit(address,uint256)": "infinite",
						"depositAmount()": "2452",
						"release()": "infinite",
						"releaseTime()": "2451",
						"seller()": "2512",
						"token()": "2688",
						"tokenAddress()": "2514"
					}
				},
				"methodIdentifiers": {
					"allowancecheck(address)": "d39d0f56",
					"buyer()": "7150d8ae",
					"cancel()": "ea8a1af0",
					"deposit(address,uint256)": "47e7ef24",
					"depositAmount()": "419759f5",
					"release()": "86d1a69f",
					"releaseTime()": "b91d4001",
					"seller()": "08551a53",
					"token()": "fc0c546a",
					"tokenAddress()": "9d76ea58"
				}
			},
			"storageLayout": {
				"storage": [
					{
						"astId": 4,
						"contract": "contracts/erc20escrow.sol:ERC20Escrow",
						"label": "seller",
						"offset": 0,
						"slot": "0",
						"type": "t_address_payable"
					},
					{
						"astId": 6,
						"contract": "contracts/erc20escrow.sol:ERC20Escrow",
						"label": "buyer",
						"offset": 0,
						"slot": "1",
						"type": "t_address_payable"
					},
					{
						"astId": 8,
						"contract": "contracts/erc20escrow.sol:ERC20Escrow",
						"label": "tokenAddress",
						"offset": 0,
						"slot": "2",
						"type": "t_address"
					},
					{
						"astId": 11,
						"contract": "contracts/erc20escrow.sol:ERC20Escrow",
						"label": "token",
						"offset": 0,
						"slot": "3",
						"type": "t_contract(IERC20)217"
					},
					{
						"astId": 13,
						"contract": "contracts/erc20escrow.sol:ERC20Escrow",
						"label": "depositAmount",
						"offset": 0,
						"slot": "4",
						"type": "t_uint256"
					},
					{
						"astId": 15,
						"contract": "contracts/erc20escrow.sol:ERC20Escrow",
						"label": "releaseTime",
						"offset": 0,
						"slot": "5",
						"type": "t_uint256"
					}
				],
				"types": {
					"t_address": {
						"encoding": "inplace",
						"label": "address",
						"numberOfBytes": "20"
					},
					"t_address_payable": {
						"encoding": "inplace",
						"label": "address payable",
						"numberOfBytes": "20"
					},
					"t_contract(IERC20)217": {
						"encoding": "inplace",
						"label": "contract IERC20",
						"numberOfBytes": "20"
					},
					"t_uint256": {
						"encoding": "inplace",
						"label": "uint256",
						"numberOfBytes": "32"
					}
				}
			},
			"userdoc": {
				"kind": "user",
				"methods": {},
				"version": 1
			}
		}
	}
}