{
	"contracts/ethtest.sol": {
		"NameRegistry": {
			"abi": [
				{
					"anonymous": false,
					"inputs": [
						{
							"indexed": true,
							"internalType": "address",
							"name": "ethAddress",
							"type": "address"
						},
						{
							"indexed": false,
							"internalType": "string",
							"name": "name",
							"type": "string"
						}
					],
					"name": "NameRegistered",
					"type": "event"
				},
				{
					"inputs": [
						{
							"internalType": "address",
							"name": "",
							"type": "address"
						}
					],
					"name": "addressToName",
					"outputs": [
						{
							"internalType": "string",
							"name": "",
							"type": "string"
						}
					],
					"stateMutability": "view",
					"type": "function"
				},
				{
					"inputs": [],
					"name": "getName",
					"outputs": [
						{
							"internalType": "string",
							"name": "",
							"type": "string"
						}
					],
					"stateMutability": "view",
					"type": "function"
				},
				{
					"inputs": [
						{
							"internalType": "address",
							"name": "",
							"type": "address"
						}
					],
					"name": "isRegistered",
					"outputs": [
						{
							"internalType": "bool",
							"name": "",
							"type": "bool"
						}
					],
					"stateMutability": "view",
					"type": "function"
				},
				{
					"inputs": [
						{
							"internalType": "string",
							"name": "name",
							"type": "string"
						}
					],
					"name": "registerName",
					"outputs": [],
					"stateMutability": "nonpayable",
					"type": "function"
				}
			],
			"devdoc": {
				"kind": "dev",
				"methods": {},
				"version": 1
			},
			"evm": {
				"assembly": "    /* \"contracts/ethtest.sol\":60:1159  contract NameRegistry {... */\n  mstore(0x40, 0x80)\n  callvalue\n  dup1\n  iszero\n  tag_1\n  jumpi\n  0x00\n  dup1\n  revert\ntag_1:\n  pop\n  dataSize(sub_0)\n  dup1\n  dataOffset(sub_0)\n  0x00\n  codecopy\n  0x00\n  return\nstop\n\nsub_0: assembly {\n        /* \"contracts/ethtest.sol\":60:1159  contract NameRegistry {... */\n      mstore(0x40, 0x80)\n      callvalue\n      dup1\n      iszero\n      tag_1\n      jumpi\n      0x00\n      dup1\n      revert\n    tag_1:\n      pop\n      jumpi(tag_2, lt(calldatasize, 0x04))\n      shr(0xe0, calldataload(0x00))\n      dup1\n      0x0830602b\n      eq\n      tag_3\n      jumpi\n      dup1\n      0x17d7de7c\n      eq\n      tag_4\n      jumpi\n      dup1\n      0xc3c5a547\n      eq\n      tag_5\n      jumpi\n      dup1\n      0xe2a04b62\n      eq\n      tag_6\n      jumpi\n    tag_2:\n      0x00\n      dup1\n      revert\n        /* \"contracts/ethtest.sol\":536:894  function registerName(string memory name) public {... */\n    tag_3:\n      tag_7\n      0x04\n      dup1\n      calldatasize\n      sub\n      dup2\n      add\n      swap1\n      tag_8\n      swap2\n      swap1\n      tag_9\n      jump\t// in\n    tag_8:\n      tag_10\n      jump\t// in\n    tag_7:\n      stop\n        /* \"contracts/ethtest.sol\":977:1156  function getName() public view returns (string memory) {... */\n    tag_4:\n      tag_11\n      tag_12\n      jump\t// in\n    tag_11:\n      mload(0x40)\n      tag_13\n      swap2\n      swap1\n      tag_14\n      jump\t// in\n    tag_13:\n      mload(0x40)\n      dup1\n      swap2\n      sub\n      swap1\n      return\n        /* \"contracts/ethtest.sol\":296:340  mapping(address => bool) public isRegistered */\n    tag_5:\n      tag_15\n      0x04\n      dup1\n      calldatasize\n      sub\n      dup2\n      add\n      swap1\n      tag_16\n      swap2\n      swap1\n      tag_17\n      jump\t// in\n    tag_16:\n      tag_18\n      jump\t// in\n    tag_15:\n      mload(0x40)\n      tag_19\n      swap2\n      swap1\n      tag_20\n      jump\t// in\n    tag_19:\n      mload(0x40)\n      dup1\n      swap2\n      sub\n      swap1\n      return\n        /* \"contracts/ethtest.sol\":167:214  mapping(address => string) public addressToName */\n    tag_6:\n      tag_21\n      0x04\n      dup1\n      calldatasize\n      sub\n      dup2\n      add\n      swap1\n      tag_22\n      swap2\n      swap1\n      tag_17\n      jump\t// in\n    tag_22:\n      tag_23\n      jump\t// in\n    tag_21:\n      mload(0x40)\n      tag_24\n      swap2\n      swap1\n      tag_14\n      jump\t// in\n    tag_24:\n      mload(0x40)\n      dup1\n      swap2\n      sub\n      swap1\n      return\n        /* \"contracts/ethtest.sol\":536:894  function registerName(string memory name) public {... */\n    tag_10:\n        /* \"contracts/ethtest.sol\":625:626  0 */\n      0x00\n        /* \"contracts/ethtest.sol\":610:614  name */\n      dup2\n        /* \"contracts/ethtest.sol\":604:622  bytes(name).length */\n      mload\n        /* \"contracts/ethtest.sol\":604:626  bytes(name).length > 0 */\n      gt\n        /* \"contracts/ethtest.sol\":596:655  require(bytes(name).length > 0, \"Name should not be empty\") */\n      tag_26\n      jumpi\n      mload(0x40)\n      0x08c379a000000000000000000000000000000000000000000000000000000000\n      dup2\n      mstore\n      0x04\n      add\n      tag_27\n      swap1\n      tag_28\n      jump\t// in\n    tag_27:\n      mload(0x40)\n      dup1\n      swap2\n      sub\n      swap1\n      revert\n    tag_26:\n        /* \"contracts/ethtest.sol\":675:687  isRegistered */\n      0x01\n        /* \"contracts/ethtest.sol\":675:699  isRegistered[msg.sender] */\n      0x00\n        /* \"contracts/ethtest.sol\":688:698  msg.sender */\n      caller\n        /* \"contracts/ethtest.sol\":675:699  isRegistered[msg.sender] */\n      0xffffffffffffffffffffffffffffffffffffffff\n      and\n      0xffffffffffffffffffffffffffffffffffffffff\n      and\n      dup2\n      mstore\n      0x20\n      add\n      swap1\n      dup2\n      mstore\n      0x20\n      add\n      0x00\n      keccak256\n      0x00\n      swap1\n      sload\n      swap1\n      0x0100\n      exp\n      swap1\n      div\n      0xff\n      and\n        /* \"contracts/ethtest.sol\":674:699  !isRegistered[msg.sender] */\n      iszero\n        /* \"contracts/ethtest.sol\":666:733  require(!isRegistered[msg.sender], \"Address is already registered\") */\n      tag_29\n      jumpi\n      mload(0x40)\n      0x08c379a000000000000000000000000000000000000000000000000000000000\n      dup2\n      mstore\n      0x04\n      add\n      tag_30\n      swap1\n      tag_31\n      jump\t// in\n    tag_30:\n      mload(0x40)\n      dup1\n      swap2\n      sub\n      swap1\n      revert\n    tag_29:\n        /* \"contracts/ethtest.sol\":782:786  name */\n      dup1\n        /* \"contracts/ethtest.sol\":754:767  addressToName */\n      0x00\n        /* \"contracts/ethtest.sol\":754:779  addressToName[msg.sender] */\n      dup1\n        /* \"contracts/ethtest.sol\":768:778  msg.sender */\n      caller\n        /* \"contracts/ethtest.sol\":754:779  addressToName[msg.sender] */\n      0xffffffffffffffffffffffffffffffffffffffff\n      and\n      0xffffffffffffffffffffffffffffffffffffffff\n      and\n      dup2\n      mstore\n      0x20\n      add\n      swap1\n      dup2\n      mstore\n      0x20\n      add\n      0x00\n      keccak256\n        /* \"contracts/ethtest.sol\":754:786  addressToName[msg.sender] = name */\n      swap1\n      dup2\n      tag_32\n      swap2\n      swap1\n      tag_33\n      jump\t// in\n    tag_32:\n      pop\n        /* \"contracts/ethtest.sol\":824:828  true */\n      0x01\n        /* \"contracts/ethtest.sol\":797:809  isRegistered */\n      dup1\n        /* \"contracts/ethtest.sol\":797:821  isRegistered[msg.sender] */\n      0x00\n        /* \"contracts/ethtest.sol\":810:820  msg.sender */\n      caller\n        /* \"contracts/ethtest.sol\":797:821  isRegistered[msg.sender] */\n      0xffffffffffffffffffffffffffffffffffffffff\n      and\n      0xffffffffffffffffffffffffffffffffffffffff\n      and\n      dup2\n      mstore\n      0x20\n      add\n      swap1\n      dup2\n      mstore\n      0x20\n      add\n      0x00\n      keccak256\n      0x00\n        /* \"contracts/ethtest.sol\":797:828  isRegistered[msg.sender] = true */\n      0x0100\n      exp\n      dup2\n      sload\n      dup2\n      0xff\n      mul\n      not\n      and\n      swap1\n      dup4\n      iszero\n      iszero\n      mul\n      or\n      swap1\n      sstore\n      pop\n        /* \"contracts/ethtest.sol\":869:879  msg.sender */\n      caller\n        /* \"contracts/ethtest.sol\":854:886  NameRegistered(msg.sender, name) */\n      0xffffffffffffffffffffffffffffffffffffffff\n      and\n      0x56a1a2764a85c689329fbc04f299b64690a26b1dc5ac82e903cf8ad805cd5396\n        /* \"contracts/ethtest.sol\":881:885  name */\n      dup3\n        /* \"contracts/ethtest.sol\":854:886  NameRegistered(msg.sender, name) */\n      mload(0x40)\n      tag_34\n      swap2\n      swap1\n      tag_14\n      jump\t// in\n    tag_34:\n      mload(0x40)\n      dup1\n      swap2\n      sub\n      swap1\n      log2\n        /* \"contracts/ethtest.sol\":536:894  function registerName(string memory name) public {... */\n      pop\n      jump\t// out\n        /* \"contracts/ethtest.sol\":977:1156  function getName() public view returns (string memory) {... */\n    tag_12:\n        /* \"contracts/ethtest.sol\":1017:1030  string memory */\n      0x60\n        /* \"contracts/ethtest.sol\":1051:1063  isRegistered */\n      0x01\n        /* \"contracts/ethtest.sol\":1051:1075  isRegistered[msg.sender] */\n      0x00\n        /* \"contracts/ethtest.sol\":1064:1074  msg.sender */\n      caller\n        /* \"contracts/ethtest.sol\":1051:1075  isRegistered[msg.sender] */\n      0xffffffffffffffffffffffffffffffffffffffff\n      and\n      0xffffffffffffffffffffffffffffffffffffffff\n      and\n      dup2\n      mstore\n      0x20\n      add\n      swap1\n      dup2\n      mstore\n      0x20\n      add\n      0x00\n      keccak256\n      0x00\n      swap1\n      sload\n      swap1\n      0x0100\n      exp\n      swap1\n      div\n      0xff\n      and\n        /* \"contracts/ethtest.sol\":1043:1105  require(isRegistered[msg.sender], \"Address is not registered\") */\n      tag_36\n      jumpi\n      mload(0x40)\n      0x08c379a000000000000000000000000000000000000000000000000000000000\n      dup2\n      mstore\n      0x04\n      add\n      tag_37\n      swap1\n      tag_38\n      jump\t// in\n    tag_37:\n      mload(0x40)\n      dup1\n      swap2\n      sub\n      swap1\n      revert\n    tag_36:\n        /* \"contracts/ethtest.sol\":1123:1136  addressToName */\n      0x00\n        /* \"contracts/ethtest.sol\":1123:1148  addressToName[msg.sender] */\n      dup1\n        /* \"contracts/ethtest.sol\":1137:1147  msg.sender */\n      caller\n        /* \"contracts/ethtest.sol\":1123:1148  addressToName[msg.sender] */\n      0xffffffffffffffffffffffffffffffffffffffff\n      and\n      0xffffffffffffffffffffffffffffffffffffffff\n      and\n      dup2\n      mstore\n      0x20\n      add\n      swap1\n      dup2\n      mstore\n      0x20\n      add\n      0x00\n      keccak256\n        /* \"contracts/ethtest.sol\":1116:1148  return addressToName[msg.sender] */\n      dup1\n      sload\n      tag_39\n      swap1\n      tag_40\n      jump\t// in\n    tag_39:\n      dup1\n      0x1f\n      add\n      0x20\n      dup1\n      swap2\n      div\n      mul\n      0x20\n      add\n      mload(0x40)\n      swap1\n      dup2\n      add\n      0x40\n      mstore\n      dup1\n      swap3\n      swap2\n      swap1\n      dup2\n      dup2\n      mstore\n      0x20\n      add\n      dup3\n      dup1\n      sload\n      tag_41\n      swap1\n      tag_40\n      jump\t// in\n    tag_41:\n      dup1\n      iszero\n      tag_42\n      jumpi\n      dup1\n      0x1f\n      lt\n      tag_43\n      jumpi\n      0x0100\n      dup1\n      dup4\n      sload\n      div\n      mul\n      dup4\n      mstore\n      swap2\n      0x20\n      add\n      swap2\n      jump(tag_42)\n    tag_43:\n      dup3\n      add\n      swap2\n      swap1\n      0x00\n      mstore\n      keccak256(0x00, 0x20)\n      swap1\n    tag_44:\n      dup2\n      sload\n      dup2\n      mstore\n      swap1\n      0x01\n      add\n      swap1\n      0x20\n      add\n      dup1\n      dup4\n      gt\n      tag_44\n      jumpi\n      dup3\n      swap1\n      sub\n      0x1f\n      and\n      dup3\n      add\n      swap2\n    tag_42:\n      pop\n      pop\n      pop\n      pop\n      pop\n      swap1\n      pop\n        /* \"contracts/ethtest.sol\":977:1156  function getName() public view returns (string memory) {... */\n      swap1\n      jump\t// out\n        /* \"contracts/ethtest.sol\":296:340  mapping(address => bool) public isRegistered */\n    tag_18:\n      mstore(0x20, 0x01)\n      dup1\n      0x00\n      mstore\n      keccak256(0x00, 0x40)\n      0x00\n      swap2\n      pop\n      sload\n      swap1\n      0x0100\n      exp\n      swap1\n      div\n      0xff\n      and\n      dup2\n      jump\t// out\n        /* \"contracts/ethtest.sol\":167:214  mapping(address => string) public addressToName */\n    tag_23:\n      mstore(0x20, 0x00)\n      dup1\n      0x00\n      mstore\n      keccak256(0x00, 0x40)\n      0x00\n      swap2\n      pop\n      swap1\n      pop\n      dup1\n      sload\n      tag_45\n      swap1\n      tag_40\n      jump\t// in\n    tag_45:\n      dup1\n      0x1f\n      add\n      0x20\n      dup1\n      swap2\n      div\n      mul\n      0x20\n      add\n      mload(0x40)\n      swap1\n      dup2\n      add\n      0x40\n      mstore\n      dup1\n      swap3\n      swap2\n      swap1\n      dup2\n      dup2\n      mstore\n      0x20\n      add\n      dup3\n      dup1\n      sload\n      tag_46\n      swap1\n      tag_40\n      jump\t// in\n    tag_46:\n      dup1\n      iszero\n      tag_47\n      jumpi\n      dup1\n      0x1f\n      lt\n      tag_48\n      jumpi\n      0x0100\n      dup1\n      dup4\n      sload\n      div\n      mul\n      dup4\n      mstore\n      swap2\n      0x20\n      add\n      swap2\n      jump(tag_47)\n    tag_48:\n      dup3\n      add\n      swap2\n      swap1\n      0x00\n      mstore\n      keccak256(0x00, 0x20)\n      swap1\n    tag_49:\n      dup2\n      sload\n      dup2\n      mstore\n      swap1\n      0x01\n      add\n      swap1\n      0x20\n      add\n      dup1\n      dup4\n      gt\n      tag_49\n      jumpi\n      dup3\n      swap1\n      sub\n      0x1f\n      and\n      dup3\n      add\n      swap2\n    tag_47:\n      pop\n      pop\n      pop\n      pop\n      pop\n      dup2\n      jump\t// out\n        /* \"#utility.yul\":7:82   */\n    tag_50:\n        /* \"#utility.yul\":40:46   */\n      0x00\n        /* \"#utility.yul\":73:75   */\n      0x40\n        /* \"#utility.yul\":67:76   */\n      mload\n        /* \"#utility.yul\":57:76   */\n      swap1\n      pop\n        /* \"#utility.yul\":7:82   */\n      swap1\n      jump\t// out\n        /* \"#utility.yul\":88:205   */\n    tag_51:\n        /* \"#utility.yul\":197:198   */\n      0x00\n        /* \"#utility.yul\":194:195   */\n      dup1\n        /* \"#utility.yul\":187:199   */\n      revert\n        /* \"#utility.yul\":211:328   */\n    tag_52:\n        /* \"#utility.yul\":320:321   */\n      0x00\n        /* \"#utility.yul\":317:318   */\n      dup1\n        /* \"#utility.yul\":310:322   */\n      revert\n        /* \"#utility.yul\":334:451   */\n    tag_53:\n        /* \"#utility.yul\":443:444   */\n      0x00\n        /* \"#utility.yul\":440:441   */\n      dup1\n        /* \"#utility.yul\":433:445   */\n      revert\n        /* \"#utility.yul\":457:574   */\n    tag_54:\n        /* \"#utility.yul\":566:567   */\n      0x00\n        /* \"#utility.yul\":563:564   */\n      dup1\n        /* \"#utility.yul\":556:568   */\n      revert\n        /* \"#utility.yul\":580:682   */\n    tag_55:\n        /* \"#utility.yul\":621:627   */\n      0x00\n        /* \"#utility.yul\":672:674   */\n      0x1f\n        /* \"#utility.yul\":668:675   */\n      not\n        /* \"#utility.yul\":663:665   */\n      0x1f\n        /* \"#utility.yul\":656:661   */\n      dup4\n        /* \"#utility.yul\":652:666   */\n      add\n        /* \"#utility.yul\":648:676   */\n      and\n        /* \"#utility.yul\":638:676   */\n      swap1\n      pop\n        /* \"#utility.yul\":580:682   */\n      swap2\n      swap1\n      pop\n      jump\t// out\n        /* \"#utility.yul\":688:868   */\n    tag_56:\n        /* \"#utility.yul\":736:813   */\n      0x4e487b7100000000000000000000000000000000000000000000000000000000\n        /* \"#utility.yul\":733:734   */\n      0x00\n        /* \"#utility.yul\":726:814   */\n      mstore\n        /* \"#utility.yul\":833:837   */\n      0x41\n        /* \"#utility.yul\":830:831   */\n      0x04\n        /* \"#utility.yul\":823:838   */\n      mstore\n        /* \"#utility.yul\":857:861   */\n      0x24\n        /* \"#utility.yul\":854:855   */\n      0x00\n        /* \"#utility.yul\":847:862   */\n      revert\n        /* \"#utility.yul\":874:1155   */\n    tag_57:\n        /* \"#utility.yul\":957:984   */\n      tag_105\n        /* \"#utility.yul\":979:983   */\n      dup3\n        /* \"#utility.yul\":957:984   */\n      tag_55\n      jump\t// in\n    tag_105:\n        /* \"#utility.yul\":949:955   */\n      dup2\n        /* \"#utility.yul\":945:985   */\n      add\n        /* \"#utility.yul\":1087:1093   */\n      dup2\n        /* \"#utility.yul\":1075:1085   */\n      dup2\n        /* \"#utility.yul\":1072:1094   */\n      lt\n        /* \"#utility.yul\":1051:1069   */\n      0xffffffffffffffff\n        /* \"#utility.yul\":1039:1049   */\n      dup3\n        /* \"#utility.yul\":1036:1070   */\n      gt\n        /* \"#utility.yul\":1033:1095   */\n      or\n        /* \"#utility.yul\":1030:1118   */\n      iszero\n      tag_106\n      jumpi\n        /* \"#utility.yul\":1098:1116   */\n      tag_107\n      tag_56\n      jump\t// in\n    tag_107:\n        /* \"#utility.yul\":1030:1118   */\n    tag_106:\n        /* \"#utility.yul\":1138:1148   */\n      dup1\n        /* \"#utility.yul\":1134:1136   */\n      0x40\n        /* \"#utility.yul\":1127:1149   */\n      mstore\n        /* \"#utility.yul\":917:1155   */\n      pop\n        /* \"#utility.yul\":874:1155   */\n      pop\n      pop\n      jump\t// out\n        /* \"#utility.yul\":1161:1290   */\n    tag_58:\n        /* \"#utility.yul\":1195:1201   */\n      0x00\n        /* \"#utility.yul\":1222:1242   */\n      tag_109\n      tag_50\n      jump\t// in\n    tag_109:\n        /* \"#utility.yul\":1212:1242   */\n      swap1\n      pop\n        /* \"#utility.yul\":1251:1284   */\n      tag_110\n        /* \"#utility.yul\":1279:1283   */\n      dup3\n        /* \"#utility.yul\":1271:1277   */\n      dup3\n        /* \"#utility.yul\":1251:1284   */\n      tag_57\n      jump\t// in\n    tag_110:\n        /* \"#utility.yul\":1161:1290   */\n      swap2\n      swap1\n      pop\n      jump\t// out\n        /* \"#utility.yul\":1296:1604   */\n    tag_59:\n        /* \"#utility.yul\":1358:1362   */\n      0x00\n        /* \"#utility.yul\":1448:1466   */\n      0xffffffffffffffff\n        /* \"#utility.yul\":1440:1446   */\n      dup3\n        /* \"#utility.yul\":1437:1467   */\n      gt\n        /* \"#utility.yul\":1434:1490   */\n      iszero\n      tag_112\n      jumpi\n        /* \"#utility.yul\":1470:1488   */\n      tag_113\n      tag_56\n      jump\t// in\n    tag_113:\n        /* \"#utility.yul\":1434:1490   */\n    tag_112:\n        /* \"#utility.yul\":1508:1537   */\n      tag_114\n        /* \"#utility.yul\":1530:1536   */\n      dup3\n        /* \"#utility.yul\":1508:1537   */\n      tag_55\n      jump\t// in\n    tag_114:\n        /* \"#utility.yul\":1500:1537   */\n      swap1\n      pop\n        /* \"#utility.yul\":1592:1596   */\n      0x20\n        /* \"#utility.yul\":1586:1590   */\n      dup2\n        /* \"#utility.yul\":1582:1597   */\n      add\n        /* \"#utility.yul\":1574:1597   */\n      swap1\n      pop\n        /* \"#utility.yul\":1296:1604   */\n      swap2\n      swap1\n      pop\n      jump\t// out\n        /* \"#utility.yul\":1610:1756   */\n    tag_60:\n        /* \"#utility.yul\":1707:1713   */\n      dup3\n        /* \"#utility.yul\":1702:1705   */\n      dup2\n        /* \"#utility.yul\":1697:1700   */\n      dup4\n        /* \"#utility.yul\":1684:1714   */\n      calldatacopy\n        /* \"#utility.yul\":1748:1749   */\n      0x00\n        /* \"#utility.yul\":1739:1745   */\n      dup4\n        /* \"#utility.yul\":1734:1737   */\n      dup4\n        /* \"#utility.yul\":1730:1746   */\n      add\n        /* \"#utility.yul\":1723:1750   */\n      mstore\n        /* \"#utility.yul\":1610:1756   */\n      pop\n      pop\n      pop\n      jump\t// out\n        /* \"#utility.yul\":1762:2187   */\n    tag_61:\n        /* \"#utility.yul\":1840:1845   */\n      0x00\n        /* \"#utility.yul\":1865:1931   */\n      tag_117\n        /* \"#utility.yul\":1881:1930   */\n      tag_118\n        /* \"#utility.yul\":1923:1929   */\n      dup5\n        /* \"#utility.yul\":1881:1930   */\n      tag_59\n      jump\t// in\n    tag_118:\n        /* \"#utility.yul\":1865:1931   */\n      tag_58\n      jump\t// in\n    tag_117:\n        /* \"#utility.yul\":1856:1931   */\n      swap1\n      pop\n        /* \"#utility.yul\":1954:1960   */\n      dup3\n        /* \"#utility.yul\":1947:1952   */\n      dup2\n        /* \"#utility.yul\":1940:1961   */\n      mstore\n        /* \"#utility.yul\":1992:1996   */\n      0x20\n        /* \"#utility.yul\":1985:1990   */\n      dup2\n        /* \"#utility.yul\":1981:1997   */\n      add\n        /* \"#utility.yul\":2030:2033   */\n      dup5\n        /* \"#utility.yul\":2021:2027   */\n      dup5\n        /* \"#utility.yul\":2016:2019   */\n      dup5\n        /* \"#utility.yul\":2012:2028   */\n      add\n        /* \"#utility.yul\":2009:2034   */\n      gt\n        /* \"#utility.yul\":2006:2118   */\n      iszero\n      tag_119\n      jumpi\n        /* \"#utility.yul\":2037:2116   */\n      tag_120\n      tag_54\n      jump\t// in\n    tag_120:\n        /* \"#utility.yul\":2006:2118   */\n    tag_119:\n        /* \"#utility.yul\":2127:2181   */\n      tag_121\n        /* \"#utility.yul\":2174:2180   */\n      dup5\n        /* \"#utility.yul\":2169:2172   */\n      dup3\n        /* \"#utility.yul\":2164:2167   */\n      dup6\n        /* \"#utility.yul\":2127:2181   */\n      tag_60\n      jump\t// in\n    tag_121:\n        /* \"#utility.yul\":1846:2187   */\n      pop\n        /* \"#utility.yul\":1762:2187   */\n      swap4\n      swap3\n      pop\n      pop\n      pop\n      jump\t// out\n        /* \"#utility.yul\":2207:2547   */\n    tag_62:\n        /* \"#utility.yul\":2263:2268   */\n      0x00\n        /* \"#utility.yul\":2312:2315   */\n      dup3\n        /* \"#utility.yul\":2305:2309   */\n      0x1f\n        /* \"#utility.yul\":2297:2303   */\n      dup4\n        /* \"#utility.yul\":2293:2310   */\n      add\n        /* \"#utility.yul\":2289:2316   */\n      slt\n        /* \"#utility.yul\":2279:2401   */\n      tag_123\n      jumpi\n        /* \"#utility.yul\":2320:2399   */\n      tag_124\n      tag_53\n      jump\t// in\n    tag_124:\n        /* \"#utility.yul\":2279:2401   */\n    tag_123:\n        /* \"#utility.yul\":2437:2443   */\n      dup2\n        /* \"#utility.yul\":2424:2444   */\n      calldataload\n        /* \"#utility.yul\":2462:2541   */\n      tag_125\n        /* \"#utility.yul\":2537:2540   */\n      dup5\n        /* \"#utility.yul\":2529:2535   */\n      dup3\n        /* \"#utility.yul\":2522:2526   */\n      0x20\n        /* \"#utility.yul\":2514:2520   */\n      dup7\n        /* \"#utility.yul\":2510:2527   */\n      add\n        /* \"#utility.yul\":2462:2541   */\n      tag_61\n      jump\t// in\n    tag_125:\n        /* \"#utility.yul\":2453:2541   */\n      swap2\n      pop\n        /* \"#utility.yul\":2269:2547   */\n      pop\n        /* \"#utility.yul\":2207:2547   */\n      swap3\n      swap2\n      pop\n      pop\n      jump\t// out\n        /* \"#utility.yul\":2553:3062   */\n    tag_9:\n        /* \"#utility.yul\":2622:2628   */\n      0x00\n        /* \"#utility.yul\":2671:2673   */\n      0x20\n        /* \"#utility.yul\":2659:2668   */\n      dup3\n        /* \"#utility.yul\":2650:2657   */\n      dup5\n        /* \"#utility.yul\":2646:2669   */\n      sub\n        /* \"#utility.yul\":2642:2674   */\n      slt\n        /* \"#utility.yul\":2639:2758   */\n      iszero\n      tag_127\n      jumpi\n        /* \"#utility.yul\":2677:2756   */\n      tag_128\n      tag_51\n      jump\t// in\n    tag_128:\n        /* \"#utility.yul\":2639:2758   */\n    tag_127:\n        /* \"#utility.yul\":2825:2826   */\n      0x00\n        /* \"#utility.yul\":2814:2823   */\n      dup3\n        /* \"#utility.yul\":2810:2827   */\n      add\n        /* \"#utility.yul\":2797:2828   */\n      calldataload\n        /* \"#utility.yul\":2855:2873   */\n      0xffffffffffffffff\n        /* \"#utility.yul\":2847:2853   */\n      dup2\n        /* \"#utility.yul\":2844:2874   */\n      gt\n        /* \"#utility.yul\":2841:2958   */\n      iszero\n      tag_129\n      jumpi\n        /* \"#utility.yul\":2877:2956   */\n      tag_130\n      tag_52\n      jump\t// in\n    tag_130:\n        /* \"#utility.yul\":2841:2958   */\n    tag_129:\n        /* \"#utility.yul\":2982:3045   */\n      tag_131\n        /* \"#utility.yul\":3037:3044   */\n      dup5\n        /* \"#utility.yul\":3028:3034   */\n      dup3\n        /* \"#utility.yul\":3017:3026   */\n      dup6\n        /* \"#utility.yul\":3013:3035   */\n      add\n        /* \"#utility.yul\":2982:3045   */\n      tag_62\n      jump\t// in\n    tag_131:\n        /* \"#utility.yul\":2972:3045   */\n      swap2\n      pop\n        /* \"#utility.yul\":2768:3055   */\n      pop\n        /* \"#utility.yul\":2553:3062   */\n      swap3\n      swap2\n      pop\n      pop\n      jump\t// out\n        /* \"#utility.yul\":3068:3167   */\n    tag_63:\n        /* \"#utility.yul\":3120:3126   */\n      0x00\n        /* \"#utility.yul\":3154:3159   */\n      dup2\n        /* \"#utility.yul\":3148:3160   */\n      mload\n        /* \"#utility.yul\":3138:3160   */\n      swap1\n      pop\n        /* \"#utility.yul\":3068:3167   */\n      swap2\n      swap1\n      pop\n      jump\t// out\n        /* \"#utility.yul\":3173:3342   */\n    tag_64:\n        /* \"#utility.yul\":3257:3268   */\n      0x00\n        /* \"#utility.yul\":3291:3297   */\n      dup3\n        /* \"#utility.yul\":3286:3289   */\n      dup3\n        /* \"#utility.yul\":3279:3298   */\n      mstore\n        /* \"#utility.yul\":3331:3335   */\n      0x20\n        /* \"#utility.yul\":3326:3329   */\n      dup3\n        /* \"#utility.yul\":3322:3336   */\n      add\n        /* \"#utility.yul\":3307:3336   */\n      swap1\n      pop\n        /* \"#utility.yul\":3173:3342   */\n      swap3\n      swap2\n      pop\n      pop\n      jump\t// out\n        /* \"#utility.yul\":3348:3594   */\n    tag_65:\n        /* \"#utility.yul\":3429:3430   */\n      0x00\n        /* \"#utility.yul\":3439:3552   */\n    tag_135:\n        /* \"#utility.yul\":3453:3459   */\n      dup4\n        /* \"#utility.yul\":3450:3451   */\n      dup2\n        /* \"#utility.yul\":3447:3460   */\n      lt\n        /* \"#utility.yul\":3439:3552   */\n      iszero\n      tag_137\n      jumpi\n        /* \"#utility.yul\":3538:3539   */\n      dup1\n        /* \"#utility.yul\":3533:3536   */\n      dup3\n        /* \"#utility.yul\":3529:3540   */\n      add\n        /* \"#utility.yul\":3523:3541   */\n      mload\n        /* \"#utility.yul\":3519:3520   */\n      dup2\n        /* \"#utility.yul\":3514:3517   */\n      dup5\n        /* \"#utility.yul\":3510:3521   */\n      add\n        /* \"#utility.yul\":3503:3542   */\n      mstore\n        /* \"#utility.yul\":3475:3477   */\n      0x20\n        /* \"#utility.yul\":3472:3473   */\n      dup2\n        /* \"#utility.yul\":3468:3478   */\n      add\n        /* \"#utility.yul\":3463:3478   */\n      swap1\n      pop\n        /* \"#utility.yul\":3439:3552   */\n      jump(tag_135)\n    tag_137:\n        /* \"#utility.yul\":3586:3587   */\n      0x00\n        /* \"#utility.yul\":3577:3583   */\n      dup5\n        /* \"#utility.yul\":3572:3575   */\n      dup5\n        /* \"#utility.yul\":3568:3584   */\n      add\n        /* \"#utility.yul\":3561:3588   */\n      mstore\n        /* \"#utility.yul\":3410:3594   */\n      pop\n        /* \"#utility.yul\":3348:3594   */\n      pop\n      pop\n      pop\n      jump\t// out\n        /* \"#utility.yul\":3600:3977   */\n    tag_66:\n        /* \"#utility.yul\":3688:3691   */\n      0x00\n        /* \"#utility.yul\":3716:3755   */\n      tag_139\n        /* \"#utility.yul\":3749:3754   */\n      dup3\n        /* \"#utility.yul\":3716:3755   */\n      tag_63\n      jump\t// in\n    tag_139:\n        /* \"#utility.yul\":3771:3842   */\n      tag_140\n        /* \"#utility.yul\":3835:3841   */\n      dup2\n        /* \"#utility.yul\":3830:3833   */\n      dup6\n        /* \"#utility.yul\":3771:3842   */\n      tag_64\n      jump\t// in\n    tag_140:\n        /* \"#utility.yul\":3764:3842   */\n      swap4\n      pop\n        /* \"#utility.yul\":3851:3916   */\n      tag_141\n        /* \"#utility.yul\":3909:3915   */\n      dup2\n        /* \"#utility.yul\":3904:3907   */\n      dup6\n        /* \"#utility.yul\":3897:3901   */\n      0x20\n        /* \"#utility.yul\":3890:3895   */\n      dup7\n        /* \"#utility.yul\":3886:3902   */\n      add\n        /* \"#utility.yul\":3851:3916   */\n      tag_65\n      jump\t// in\n    tag_141:\n        /* \"#utility.yul\":3941:3970   */\n      tag_142\n        /* \"#utility.yul\":3963:3969   */\n      dup2\n        /* \"#utility.yul\":3941:3970   */\n      tag_55\n      jump\t// in\n    tag_142:\n        /* \"#utility.yul\":3936:3939   */\n      dup5\n        /* \"#utility.yul\":3932:3971   */\n      add\n        /* \"#utility.yul\":3925:3971   */\n      swap2\n      pop\n        /* \"#utility.yul\":3692:3977   */\n      pop\n        /* \"#utility.yul\":3600:3977   */\n      swap3\n      swap2\n      pop\n      pop\n      jump\t// out\n        /* \"#utility.yul\":3983:4296   */\n    tag_14:\n        /* \"#utility.yul\":4096:4100   */\n      0x00\n        /* \"#utility.yul\":4134:4136   */\n      0x20\n        /* \"#utility.yul\":4123:4132   */\n      dup3\n        /* \"#utility.yul\":4119:4137   */\n      add\n        /* \"#utility.yul\":4111:4137   */\n      swap1\n      pop\n        /* \"#utility.yul\":4183:4192   */\n      dup2\n        /* \"#utility.yul\":4177:4181   */\n      dup2\n        /* \"#utility.yul\":4173:4193   */\n      sub\n        /* \"#utility.yul\":4169:4170   */\n      0x00\n        /* \"#utility.yul\":4158:4167   */\n      dup4\n        /* \"#utility.yul\":4154:4171   */\n      add\n        /* \"#utility.yul\":4147:4194   */\n      mstore\n        /* \"#utility.yul\":4211:4289   */\n      tag_144\n        /* \"#utility.yul\":4284:4288   */\n      dup2\n        /* \"#utility.yul\":4275:4281   */\n      dup5\n        /* \"#utility.yul\":4211:4289   */\n      tag_66\n      jump\t// in\n    tag_144:\n        /* \"#utility.yul\":4203:4289   */\n      swap1\n      pop\n        /* \"#utility.yul\":3983:4296   */\n      swap3\n      swap2\n      pop\n      pop\n      jump\t// out\n        /* \"#utility.yul\":4302:4428   */\n    tag_67:\n        /* \"#utility.yul\":4339:4346   */\n      0x00\n        /* \"#utility.yul\":4379:4421   */\n      0xffffffffffffffffffffffffffffffffffffffff\n        /* \"#utility.yul\":4372:4377   */\n      dup3\n        /* \"#utility.yul\":4368:4422   */\n      and\n        /* \"#utility.yul\":4357:4422   */\n      swap1\n      pop\n        /* \"#utility.yul\":4302:4428   */\n      swap2\n      swap1\n      pop\n      jump\t// out\n        /* \"#utility.yul\":4434:4530   */\n    tag_68:\n        /* \"#utility.yul\":4471:4478   */\n      0x00\n        /* \"#utility.yul\":4500:4524   */\n      tag_147\n        /* \"#utility.yul\":4518:4523   */\n      dup3\n        /* \"#utility.yul\":4500:4524   */\n      tag_67\n      jump\t// in\n    tag_147:\n        /* \"#utility.yul\":4489:4524   */\n      swap1\n      pop\n        /* \"#utility.yul\":4434:4530   */\n      swap2\n      swap1\n      pop\n      jump\t// out\n        /* \"#utility.yul\":4536:4658   */\n    tag_69:\n        /* \"#utility.yul\":4609:4633   */\n      tag_149\n        /* \"#utility.yul\":4627:4632   */\n      dup2\n        /* \"#utility.yul\":4609:4633   */\n      tag_68\n      jump\t// in\n    tag_149:\n        /* \"#utility.yul\":4602:4607   */\n      dup2\n        /* \"#utility.yul\":4599:4634   */\n      eq\n        /* \"#utility.yul\":4589:4652   */\n      tag_150\n      jumpi\n        /* \"#utility.yul\":4648:4649   */\n      0x00\n        /* \"#utility.yul\":4645:4646   */\n      dup1\n        /* \"#utility.yul\":4638:4650   */\n      revert\n        /* \"#utility.yul\":4589:4652   */\n    tag_150:\n        /* \"#utility.yul\":4536:4658   */\n      pop\n      jump\t// out\n        /* \"#utility.yul\":4664:4803   */\n    tag_70:\n        /* \"#utility.yul\":4710:4715   */\n      0x00\n        /* \"#utility.yul\":4748:4754   */\n      dup2\n        /* \"#utility.yul\":4735:4755   */\n      calldataload\n        /* \"#utility.yul\":4726:4755   */\n      swap1\n      pop\n        /* \"#utility.yul\":4764:4797   */\n      tag_152\n        /* \"#utility.yul\":4791:4796   */\n      dup2\n        /* \"#utility.yul\":4764:4797   */\n      tag_69\n      jump\t// in\n    tag_152:\n        /* \"#utility.yul\":4664:4803   */\n      swap3\n      swap2\n      pop\n      pop\n      jump\t// out\n        /* \"#utility.yul\":4809:5138   */\n    tag_17:\n        /* \"#utility.yul\":4868:4874   */\n      0x00\n        /* \"#utility.yul\":4917:4919   */\n      0x20\n        /* \"#utility.yul\":4905:4914   */\n      dup3\n        /* \"#utility.yul\":4896:4903   */\n      dup5\n        /* \"#utility.yul\":4892:4915   */\n      sub\n        /* \"#utility.yul\":4888:4920   */\n      slt\n        /* \"#utility.yul\":4885:5004   */\n      iszero\n      tag_154\n      jumpi\n        /* \"#utility.yul\":4923:5002   */\n      tag_155\n      tag_51\n      jump\t// in\n    tag_155:\n        /* \"#utility.yul\":4885:5004   */\n    tag_154:\n        /* \"#utility.yul\":5043:5044   */\n      0x00\n        /* \"#utility.yul\":5068:5121   */\n      tag_156\n        /* \"#utility.yul\":5113:5120   */\n      dup5\n        /* \"#utility.yul\":5104:5110   */\n      dup3\n        /* \"#utility.yul\":5093:5102   */\n      dup6\n        /* \"#utility.yul\":5089:5111   */\n      add\n        /* \"#utility.yul\":5068:5121   */\n      tag_70\n      jump\t// in\n    tag_156:\n        /* \"#utility.yul\":5058:5121   */\n      swap2\n      pop\n        /* \"#utility.yul\":5014:5131   */\n      pop\n        /* \"#utility.yul\":4809:5138   */\n      swap3\n      swap2\n      pop\n      pop\n      jump\t// out\n        /* \"#utility.yul\":5144:5234   */\n    tag_71:\n        /* \"#utility.yul\":5178:5185   */\n      0x00\n        /* \"#utility.yul\":5221:5226   */\n      dup2\n        /* \"#utility.yul\":5214:5227   */\n      iszero\n        /* \"#utility.yul\":5207:5228   */\n      iszero\n        /* \"#utility.yul\":5196:5228   */\n      swap1\n      pop\n        /* \"#utility.yul\":5144:5234   */\n      swap2\n      swap1\n      pop\n      jump\t// out\n        /* \"#utility.yul\":5240:5349   */\n    tag_72:\n        /* \"#utility.yul\":5321:5342   */\n      tag_159\n        /* \"#utility.yul\":5336:5341   */\n      dup2\n        /* \"#utility.yul\":5321:5342   */\n      tag_71\n      jump\t// in\n    tag_159:\n        /* \"#utility.yul\":5316:5319   */\n      dup3\n        /* \"#utility.yul\":5309:5343   */\n      mstore\n        /* \"#utility.yul\":5240:5349   */\n      pop\n      pop\n      jump\t// out\n        /* \"#utility.yul\":5355:5565   */\n    tag_20:\n        /* \"#utility.yul\":5442:5446   */\n      0x00\n        /* \"#utility.yul\":5480:5482   */\n      0x20\n        /* \"#utility.yul\":5469:5478   */\n      dup3\n        /* \"#utility.yul\":5465:5483   */\n      add\n        /* \"#utility.yul\":5457:5483   */\n      swap1\n      pop\n        /* \"#utility.yul\":5493:5558   */\n      tag_161\n        /* \"#utility.yul\":5555:5556   */\n      0x00\n        /* \"#utility.yul\":5544:5553   */\n      dup4\n        /* \"#utility.yul\":5540:5557   */\n      add\n        /* \"#utility.yul\":5531:5537   */\n      dup5\n        /* \"#utility.yul\":5493:5558   */\n      tag_72\n      jump\t// in\n    tag_161:\n        /* \"#utility.yul\":5355:5565   */\n      swap3\n      swap2\n      pop\n      pop\n      jump\t// out\n        /* \"#utility.yul\":5571:5745   */\n    tag_73:\n        /* \"#utility.yul\":5711:5737   */\n      0x4e616d652073686f756c64206e6f7420626520656d7074790000000000000000\n        /* \"#utility.yul\":5707:5708   */\n      0x00\n        /* \"#utility.yul\":5699:5705   */\n      dup3\n        /* \"#utility.yul\":5695:5709   */\n      add\n        /* \"#utility.yul\":5688:5738   */\n      mstore\n        /* \"#utility.yul\":5571:5745   */\n      pop\n      jump\t// out\n        /* \"#utility.yul\":5751:6117   */\n    tag_74:\n        /* \"#utility.yul\":5893:5896   */\n      0x00\n        /* \"#utility.yul\":5914:5981   */\n      tag_164\n        /* \"#utility.yul\":5978:5980   */\n      0x18\n        /* \"#utility.yul\":5973:5976   */\n      dup4\n        /* \"#utility.yul\":5914:5981   */\n      tag_64\n      jump\t// in\n    tag_164:\n        /* \"#utility.yul\":5907:5981   */\n      swap2\n      pop\n        /* \"#utility.yul\":5990:6083   */\n      tag_165\n        /* \"#utility.yul\":6079:6082   */\n      dup3\n        /* \"#utility.yul\":5990:6083   */\n      tag_73\n      jump\t// in\n    tag_165:\n        /* \"#utility.yul\":6108:6110   */\n      0x20\n        /* \"#utility.yul\":6103:6106   */\n      dup3\n        /* \"#utility.yul\":6099:6111   */\n      add\n        /* \"#utility.yul\":6092:6111   */\n      swap1\n      pop\n        /* \"#utility.yul\":5751:6117   */\n      swap2\n      swap1\n      pop\n      jump\t// out\n        /* \"#utility.yul\":6123:6542   */\n    tag_28:\n        /* \"#utility.yul\":6289:6293   */\n      0x00\n        /* \"#utility.yul\":6327:6329   */\n      0x20\n        /* \"#utility.yul\":6316:6325   */\n      dup3\n        /* \"#utility.yul\":6312:6330   */\n      add\n        /* \"#utility.yul\":6304:6330   */\n      swap1\n      pop\n        /* \"#utility.yul\":6376:6385   */\n      dup2\n        /* \"#utility.yul\":6370:6374   */\n      dup2\n        /* \"#utility.yul\":6366:6386   */\n      sub\n        /* \"#utility.yul\":6362:6363   */\n      0x00\n        /* \"#utility.yul\":6351:6360   */\n      dup4\n        /* \"#utility.yul\":6347:6364   */\n      add\n        /* \"#utility.yul\":6340:6387   */\n      mstore\n        /* \"#utility.yul\":6404:6535   */\n      tag_167\n        /* \"#utility.yul\":6530:6534   */\n      dup2\n        /* \"#utility.yul\":6404:6535   */\n      tag_74\n      jump\t// in\n    tag_167:\n        /* \"#utility.yul\":6396:6535   */\n      swap1\n      pop\n        /* \"#utility.yul\":6123:6542   */\n      swap2\n      swap1\n      pop\n      jump\t// out\n        /* \"#utility.yul\":6548:6727   */\n    tag_75:\n        /* \"#utility.yul\":6688:6719   */\n      0x4164647265737320697320616c72656164792072656769737465726564000000\n        /* \"#utility.yul\":6684:6685   */\n      0x00\n        /* \"#utility.yul\":6676:6682   */\n      dup3\n        /* \"#utility.yul\":6672:6686   */\n      add\n        /* \"#utility.yul\":6665:6720   */\n      mstore\n        /* \"#utility.yul\":6548:6727   */\n      pop\n      jump\t// out\n        /* \"#utility.yul\":6733:7099   */\n    tag_76:\n        /* \"#utility.yul\":6875:6878   */\n      0x00\n        /* \"#utility.yul\":6896:6963   */\n      tag_170\n        /* \"#utility.yul\":6960:6962   */\n      0x1d\n        /* \"#utility.yul\":6955:6958   */\n      dup4\n        /* \"#utility.yul\":6896:6963   */\n      tag_64\n      jump\t// in\n    tag_170:\n        /* \"#utility.yul\":6889:6963   */\n      swap2\n      pop\n        /* \"#utility.yul\":6972:7065   */\n      tag_171\n        /* \"#utility.yul\":7061:7064   */\n      dup3\n        /* \"#utility.yul\":6972:7065   */\n      tag_75\n      jump\t// in\n    tag_171:\n        /* \"#utility.yul\":7090:7092   */\n      0x20\n        /* \"#utility.yul\":7085:7088   */\n      dup3\n        /* \"#utility.yul\":7081:7093   */\n      add\n        /* \"#utility.yul\":7074:7093   */\n      swap1\n      pop\n        /* \"#utility.yul\":6733:7099   */\n      swap2\n      swap1\n      pop\n      jump\t// out\n        /* \"#utility.yul\":7105:7524   */\n    tag_31:\n        /* \"#utility.yul\":7271:7275   */\n      0x00\n        /* \"#utility.yul\":7309:7311   */\n      0x20\n        /* \"#utility.yul\":7298:7307   */\n      dup3\n        /* \"#utility.yul\":7294:7312   */\n      add\n        /* \"#utility.yul\":7286:7312   */\n      swap1\n      pop\n        /* \"#utility.yul\":7358:7367   */\n      dup2\n        /* \"#utility.yul\":7352:7356   */\n      dup2\n        /* \"#utility.yul\":7348:7368   */\n      sub\n        /* \"#utility.yul\":7344:7345   */\n      0x00\n        /* \"#utility.yul\":7333:7342   */\n      dup4\n        /* \"#utility.yul\":7329:7346   */\n      add\n        /* \"#utility.yul\":7322:7369   */\n      mstore\n        /* \"#utility.yul\":7386:7517   */\n      tag_173\n        /* \"#utility.yul\":7512:7516   */\n      dup2\n        /* \"#utility.yul\":7386:7517   */\n      tag_76\n      jump\t// in\n    tag_173:\n        /* \"#utility.yul\":7378:7517   */\n      swap1\n      pop\n        /* \"#utility.yul\":7105:7524   */\n      swap2\n      swap1\n      pop\n      jump\t// out\n        /* \"#utility.yul\":7530:7710   */\n    tag_77:\n        /* \"#utility.yul\":7578:7655   */\n      0x4e487b7100000000000000000000000000000000000000000000000000000000\n        /* \"#utility.yul\":7575:7576   */\n      0x00\n        /* \"#utility.yul\":7568:7656   */\n      mstore\n        /* \"#utility.yul\":7675:7679   */\n      0x22\n        /* \"#utility.yul\":7672:7673   */\n      0x04\n        /* \"#utility.yul\":7665:7680   */\n      mstore\n        /* \"#utility.yul\":7699:7703   */\n      0x24\n        /* \"#utility.yul\":7696:7697   */\n      0x00\n        /* \"#utility.yul\":7689:7704   */\n      revert\n        /* \"#utility.yul\":7716:8036   */\n    tag_40:\n        /* \"#utility.yul\":7760:7766   */\n      0x00\n        /* \"#utility.yul\":7797:7798   */\n      0x02\n        /* \"#utility.yul\":7791:7795   */\n      dup3\n        /* \"#utility.yul\":7787:7799   */\n      div\n        /* \"#utility.yul\":7777:7799   */\n      swap1\n      pop\n        /* \"#utility.yul\":7844:7845   */\n      0x01\n        /* \"#utility.yul\":7838:7842   */\n      dup3\n        /* \"#utility.yul\":7834:7846   */\n      and\n        /* \"#utility.yul\":7865:7883   */\n      dup1\n        /* \"#utility.yul\":7855:7936   */\n      tag_176\n      jumpi\n        /* \"#utility.yul\":7921:7925   */\n      0x7f\n        /* \"#utility.yul\":7913:7919   */\n      dup3\n        /* \"#utility.yul\":7909:7926   */\n      and\n        /* \"#utility.yul\":7899:7926   */\n      swap2\n      pop\n        /* \"#utility.yul\":7855:7936   */\n    tag_176:\n        /* \"#utility.yul\":7983:7985   */\n      0x20\n        /* \"#utility.yul\":7975:7981   */\n      dup3\n        /* \"#utility.yul\":7972:7986   */\n      lt\n        /* \"#utility.yul\":7952:7970   */\n      dup2\n        /* \"#utility.yul\":7949:7987   */\n      sub\n        /* \"#utility.yul\":7946:8030   */\n      tag_177\n      jumpi\n        /* \"#utility.yul\":8002:8020   */\n      tag_178\n      tag_77\n      jump\t// in\n    tag_178:\n        /* \"#utility.yul\":7946:8030   */\n    tag_177:\n        /* \"#utility.yul\":7767:8036   */\n      pop\n        /* \"#utility.yul\":7716:8036   */\n      swap2\n      swap1\n      pop\n      jump\t// out\n        /* \"#utility.yul\":8042:8183   */\n    tag_78:\n        /* \"#utility.yul\":8091:8095   */\n      0x00\n        /* \"#utility.yul\":8114:8117   */\n      dup2\n        /* \"#utility.yul\":8106:8117   */\n      swap1\n      pop\n        /* \"#utility.yul\":8137:8140   */\n      dup2\n        /* \"#utility.yul\":8134:8135   */\n      0x00\n        /* \"#utility.yul\":8127:8141   */\n      mstore\n        /* \"#utility.yul\":8171:8175   */\n      0x20\n        /* \"#utility.yul\":8168:8169   */\n      0x00\n        /* \"#utility.yul\":8158:8176   */\n      keccak256\n        /* \"#utility.yul\":8150:8176   */\n      swap1\n      pop\n        /* \"#utility.yul\":8042:8183   */\n      swap2\n      swap1\n      pop\n      jump\t// out\n        /* \"#utility.yul\":8189:8282   */\n    tag_79:\n        /* \"#utility.yul\":8226:8232   */\n      0x00\n        /* \"#utility.yul\":8273:8275   */\n      0x20\n        /* \"#utility.yul\":8268:8270   */\n      0x1f\n        /* \"#utility.yul\":8261:8266   */\n      dup4\n        /* \"#utility.yul\":8257:8271   */\n      add\n        /* \"#utility.yul\":8253:8276   */\n      div\n        /* \"#utility.yul\":8243:8276   */\n      swap1\n      pop\n        /* \"#utility.yul\":8189:8282   */\n      swap2\n      swap1\n      pop\n      jump\t// out\n        /* \"#utility.yul\":8288:8395   */\n    tag_80:\n        /* \"#utility.yul\":8332:8340   */\n      0x00\n        /* \"#utility.yul\":8382:8387   */\n      dup3\n        /* \"#utility.yul\":8376:8380   */\n      dup3\n        /* \"#utility.yul\":8372:8388   */\n      shl\n        /* \"#utility.yul\":8351:8388   */\n      swap1\n      pop\n        /* \"#utility.yul\":8288:8395   */\n      swap3\n      swap2\n      pop\n      pop\n      jump\t// out\n        /* \"#utility.yul\":8401:8794   */\n    tag_81:\n        /* \"#utility.yul\":8470:8476   */\n      0x00\n        /* \"#utility.yul\":8520:8521   */\n      0x08\n        /* \"#utility.yul\":8508:8518   */\n      dup4\n        /* \"#utility.yul\":8504:8522   */\n      mul\n        /* \"#utility.yul\":8543:8640   */\n      tag_183\n        /* \"#utility.yul\":8573:8639   */\n      0xffffffffffffffffffffffffffffffffffffffffffffffffffffffffffffffff\n        /* \"#utility.yul\":8562:8571   */\n      dup3\n        /* \"#utility.yul\":8543:8640   */\n      tag_80\n      jump\t// in\n    tag_183:\n        /* \"#utility.yul\":8661:8700   */\n      tag_184\n        /* \"#utility.yul\":8691:8699   */\n      dup7\n        /* \"#utility.yul\":8680:8689   */\n      dup4\n        /* \"#utility.yul\":8661:8700   */\n      tag_80\n      jump\t// in\n    tag_184:\n        /* \"#utility.yul\":8649:8700   */\n      swap6\n      pop\n        /* \"#utility.yul\":8733:8737   */\n      dup1\n        /* \"#utility.yul\":8729:8738   */\n      not\n        /* \"#utility.yul\":8722:8727   */\n      dup5\n        /* \"#utility.yul\":8718:8739   */\n      and\n        /* \"#utility.yul\":8709:8739   */\n      swap4\n      pop\n        /* \"#utility.yul\":8782:8786   */\n      dup1\n        /* \"#utility.yul\":8772:8780   */\n      dup7\n        /* \"#utility.yul\":8768:8787   */\n      and\n        /* \"#utility.yul\":8761:8766   */\n      dup5\n        /* \"#utility.yul\":8758:8788   */\n      or\n        /* \"#utility.yul\":8748:8788   */\n      swap3\n      pop\n        /* \"#utility.yul\":8477:8794   */\n      pop\n      pop\n        /* \"#utility.yul\":8401:8794   */\n      swap4\n      swap3\n      pop\n      pop\n      pop\n      jump\t// out\n        /* \"#utility.yul\":8800:8877   */\n    tag_82:\n        /* \"#utility.yul\":8837:8844   */\n      0x00\n        /* \"#utility.yul\":8866:8871   */\n      dup2\n        /* \"#utility.yul\":8855:8871   */\n      swap1\n      pop\n        /* \"#utility.yul\":8800:8877   */\n      swap2\n      swap1\n      pop\n      jump\t// out\n        /* \"#utility.yul\":8883:8943   */\n    tag_83:\n        /* \"#utility.yul\":8911:8914   */\n      0x00\n        /* \"#utility.yul\":8932:8937   */\n      dup2\n        /* \"#utility.yul\":8925:8937   */\n      swap1\n      pop\n        /* \"#utility.yul\":8883:8943   */\n      swap2\n      swap1\n      pop\n      jump\t// out\n        /* \"#utility.yul\":8949:9091   */\n    tag_84:\n        /* \"#utility.yul\":8999:9008   */\n      0x00\n        /* \"#utility.yul\":9032:9085   */\n      tag_188\n        /* \"#utility.yul\":9050:9084   */\n      tag_189\n        /* \"#utility.yul\":9059:9083   */\n      tag_190\n        /* \"#utility.yul\":9077:9082   */\n      dup5\n        /* \"#utility.yul\":9059:9083   */\n      tag_82\n      jump\t// in\n    tag_190:\n        /* \"#utility.yul\":9050:9084   */\n      tag_83\n      jump\t// in\n    tag_189:\n        /* \"#utility.yul\":9032:9085   */\n      tag_82\n      jump\t// in\n    tag_188:\n        /* \"#utility.yul\":9019:9085   */\n      swap1\n      pop\n        /* \"#utility.yul\":8949:9091   */\n      swap2\n      swap1\n      pop\n      jump\t// out\n        /* \"#utility.yul\":9097:9172   */\n    tag_85:\n        /* \"#utility.yul\":9140:9143   */\n      0x00\n        /* \"#utility.yul\":9161:9166   */\n      dup2\n        /* \"#utility.yul\":9154:9166   */\n      swap1\n      pop\n        /* \"#utility.yul\":9097:9172   */\n      swap2\n      swap1\n      pop\n      jump\t// out\n        /* \"#utility.yul\":9178:9447   */\n    tag_86:\n        /* \"#utility.yul\":9288:9327   */\n      tag_193\n        /* \"#utility.yul\":9319:9326   */\n      dup4\n        /* \"#utility.yul\":9288:9327   */\n      tag_84\n      jump\t// in\n    tag_193:\n        /* \"#utility.yul\":9349:9440   */\n      tag_194\n        /* \"#utility.yul\":9398:9439   */\n      tag_195\n        /* \"#utility.yul\":9422:9438   */\n      dup3\n        /* \"#utility.yul\":9398:9439   */\n      tag_85\n      jump\t// in\n    tag_195:\n        /* \"#utility.yul\":9390:9396   */\n      dup5\n        /* \"#utility.yul\":9383:9387   */\n      dup5\n        /* \"#utility.yul\":9377:9388   */\n      sload\n        /* \"#utility.yul\":9349:9440   */\n      tag_81\n      jump\t// in\n    tag_194:\n        /* \"#utility.yul\":9343:9347   */\n      dup3\n        /* \"#utility.yul\":9336:9441   */\n      sstore\n        /* \"#utility.yul\":9254:9447   */\n      pop\n        /* \"#utility.yul\":9178:9447   */\n      pop\n      pop\n      pop\n      jump\t// out\n        /* \"#utility.yul\":9453:9526   */\n    tag_87:\n        /* \"#utility.yul\":9498:9501   */\n      0x00\n        /* \"#utility.yul\":9453:9526   */\n      swap1\n      jump\t// out\n        /* \"#utility.yul\":9532:9721   */\n    tag_88:\n        /* \"#utility.yul\":9609:9641   */\n      tag_198\n      tag_87\n      jump\t// in\n    tag_198:\n        /* \"#utility.yul\":9650:9715   */\n      tag_199\n        /* \"#utility.yul\":9708:9714   */\n      dup2\n        /* \"#utility.yul\":9700:9706   */\n      dup5\n        /* \"#utility.yul\":9694:9698   */\n      dup5\n        /* \"#utility.yul\":9650:9715   */\n      tag_86\n      jump\t// in\n    tag_199:\n        /* \"#utility.yul\":9585:9721   */\n      pop\n        /* \"#utility.yul\":9532:9721   */\n      pop\n      pop\n      jump\t// out\n        /* \"#utility.yul\":9727:9913   */\n    tag_89:\n        /* \"#utility.yul\":9787:9907   */\n    tag_201:\n        /* \"#utility.yul\":9804:9807   */\n      dup2\n        /* \"#utility.yul\":9797:9802   */\n      dup2\n        /* \"#utility.yul\":9794:9808   */\n      lt\n        /* \"#utility.yul\":9787:9907   */\n      iszero\n      tag_203\n      jumpi\n        /* \"#utility.yul\":9858:9897   */\n      tag_204\n        /* \"#utility.yul\":9895:9896   */\n      0x00\n        /* \"#utility.yul\":9888:9893   */\n      dup3\n        /* \"#utility.yul\":9858:9897   */\n      tag_88\n      jump\t// in\n    tag_204:\n        /* \"#utility.yul\":9831:9832   */\n      0x01\n        /* \"#utility.yul\":9824:9829   */\n      dup2\n        /* \"#utility.yul\":9820:9833   */\n      add\n        /* \"#utility.yul\":9811:9833   */\n      swap1\n      pop\n        /* \"#utility.yul\":9787:9907   */\n      jump(tag_201)\n    tag_203:\n        /* \"#utility.yul\":9727:9913   */\n      pop\n      pop\n      jump\t// out\n        /* \"#utility.yul\":9919:10462   */\n    tag_90:\n        /* \"#utility.yul\":10020:10022   */\n      0x1f\n        /* \"#utility.yul\":10015:10018   */\n      dup3\n        /* \"#utility.yul\":10012:10023   */\n      gt\n        /* \"#utility.yul\":10009:10455   */\n      iszero\n      tag_206\n      jumpi\n        /* \"#utility.yul\":10054:10092   */\n      tag_207\n        /* \"#utility.yul\":10086:10091   */\n      dup2\n        /* \"#utility.yul\":10054:10092   */\n      tag_78\n      jump\t// in\n    tag_207:\n        /* \"#utility.yul\":10138:10167   */\n      tag_208\n        /* \"#utility.yul\":10156:10166   */\n      dup5\n        /* \"#utility.yul\":10138:10167   */\n      tag_79\n      jump\t// in\n    tag_208:\n        /* \"#utility.yul\":10128:10136   */\n      dup2\n        /* \"#utility.yul\":10124:10168   */\n      add\n        /* \"#utility.yul\":10321:10323   */\n      0x20\n        /* \"#utility.yul\":10309:10319   */\n      dup6\n        /* \"#utility.yul\":10306:10324   */\n      lt\n        /* \"#utility.yul\":10303:10352   */\n      iszero\n      tag_209\n      jumpi\n        /* \"#utility.yul\":10342:10350   */\n      dup2\n        /* \"#utility.yul\":10327:10350   */\n      swap1\n      pop\n        /* \"#utility.yul\":10303:10352   */\n    tag_209:\n        /* \"#utility.yul\":10365:10445   */\n      tag_210\n        /* \"#utility.yul\":10421:10443   */\n      tag_211\n        /* \"#utility.yul\":10439:10442   */\n      dup6\n        /* \"#utility.yul\":10421:10443   */\n      tag_79\n      jump\t// in\n    tag_211:\n        /* \"#utility.yul\":10411:10419   */\n      dup4\n        /* \"#utility.yul\":10407:10444   */\n      add\n        /* \"#utility.yul\":10394:10405   */\n      dup3\n        /* \"#utility.yul\":10365:10445   */\n      tag_89\n      jump\t// in\n    tag_210:\n        /* \"#utility.yul\":10024:10455   */\n      pop\n      pop\n        /* \"#utility.yul\":10009:10455   */\n    tag_206:\n        /* \"#utility.yul\":9919:10462   */\n      pop\n      pop\n      pop\n      jump\t// out\n        /* \"#utility.yul\":10468:10585   */\n    tag_91:\n        /* \"#utility.yul\":10522:10530   */\n      0x00\n        /* \"#utility.yul\":10572:10577   */\n      dup3\n        /* \"#utility.yul\":10566:10570   */\n      dup3\n        /* \"#utility.yul\":10562:10578   */\n      shr\n        /* \"#utility.yul\":10541:10578   */\n      swap1\n      pop\n        /* \"#utility.yul\":10468:10585   */\n      swap3\n      swap2\n      pop\n      pop\n      jump\t// out\n        /* \"#utility.yul\":10591:10760   */\n    tag_92:\n        /* \"#utility.yul\":10635:10641   */\n      0x00\n        /* \"#utility.yul\":10668:10719   */\n      tag_214\n        /* \"#utility.yul\":10716:10717   */\n      0x00\n        /* \"#utility.yul\":10712:10718   */\n      not\n        /* \"#utility.yul\":10704:10709   */\n      dup5\n        /* \"#utility.yul\":10701:10702   */\n      0x08\n        /* \"#utility.yul\":10697:10710   */\n      mul\n        /* \"#utility.yul\":10668:10719   */\n      tag_91\n      jump\t// in\n    tag_214:\n        /* \"#utility.yul\":10664:10720   */\n      not\n        /* \"#utility.yul\":10749:10753   */\n      dup1\n        /* \"#utility.yul\":10743:10747   */\n      dup4\n        /* \"#utility.yul\":10739:10754   */\n      and\n        /* \"#utility.yul\":10729:10754   */\n      swap2\n      pop\n        /* \"#utility.yul\":10642:10760   */\n      pop\n        /* \"#utility.yul\":10591:10760   */\n      swap3\n      swap2\n      pop\n      pop\n      jump\t// out\n        /* \"#utility.yul\":10765:11060   */\n    tag_93:\n        /* \"#utility.yul\":10841:10845   */\n      0x00\n        /* \"#utility.yul\":10987:11016   */\n      tag_216\n        /* \"#utility.yul\":11012:11015   */\n      dup4\n        /* \"#utility.yul\":11006:11010   */\n      dup4\n        /* \"#utility.yul\":10987:11016   */\n      tag_92\n      jump\t// in\n    tag_216:\n        /* \"#utility.yul\":10979:11016   */\n      swap2\n      pop\n        /* \"#utility.yul\":11049:11052   */\n      dup3\n        /* \"#utility.yul\":11046:11047   */\n      0x02\n        /* \"#utility.yul\":11042:11053   */\n      mul\n        /* \"#utility.yul\":11036:11040   */\n      dup3\n        /* \"#utility.yul\":11033:11054   */\n      or\n        /* \"#utility.yul\":11025:11054   */\n      swap1\n      pop\n        /* \"#utility.yul\":10765:11060   */\n      swap3\n      swap2\n      pop\n      pop\n      jump\t// out\n        /* \"#utility.yul\":11065:12460   */\n    tag_33:\n        /* \"#utility.yul\":11182:11219   */\n      tag_218\n        /* \"#utility.yul\":11215:11218   */\n      dup3\n        /* \"#utility.yul\":11182:11219   */\n      tag_63\n      jump\t// in\n    tag_218:\n        /* \"#utility.yul\":11284:11302   */\n      0xffffffffffffffff\n        /* \"#utility.yul\":11276:11282   */\n      dup2\n        /* \"#utility.yul\":11273:11303   */\n      gt\n        /* \"#utility.yul\":11270:11326   */\n      iszero\n      tag_219\n      jumpi\n        /* \"#utility.yul\":11306:11324   */\n      tag_220\n      tag_56\n      jump\t// in\n    tag_220:\n        /* \"#utility.yul\":11270:11326   */\n    tag_219:\n        /* \"#utility.yul\":11350:11388   */\n      tag_221\n        /* \"#utility.yul\":11382:11386   */\n      dup3\n        /* \"#utility.yul\":11376:11387   */\n      sload\n        /* \"#utility.yul\":11350:11388   */\n      tag_40\n      jump\t// in\n    tag_221:\n        /* \"#utility.yul\":11435:11502   */\n      tag_222\n        /* \"#utility.yul\":11495:11501   */\n      dup3\n        /* \"#utility.yul\":11487:11493   */\n      dup3\n        /* \"#utility.yul\":11481:11485   */\n      dup6\n        /* \"#utility.yul\":11435:11502   */\n      tag_90\n      jump\t// in\n    tag_222:\n        /* \"#utility.yul\":11529:11530   */\n      0x00\n        /* \"#utility.yul\":11553:11557   */\n      0x20\n        /* \"#utility.yul\":11540:11557   */\n      swap1\n      pop\n        /* \"#utility.yul\":11585:11587   */\n      0x1f\n        /* \"#utility.yul\":11577:11583   */\n      dup4\n        /* \"#utility.yul\":11574:11588   */\n      gt\n        /* \"#utility.yul\":11602:11603   */\n      0x01\n        /* \"#utility.yul\":11597:12215   */\n      dup2\n      eq\n      tag_224\n      jumpi\n        /* \"#utility.yul\":12259:12260   */\n      0x00\n        /* \"#utility.yul\":12276:12282   */\n      dup5\n        /* \"#utility.yul\":12273:12350   */\n      iszero\n      tag_225\n      jumpi\n        /* \"#utility.yul\":12325:12334   */\n      dup3\n        /* \"#utility.yul\":12320:12323   */\n      dup8\n        /* \"#utility.yul\":12316:12335   */\n      add\n        /* \"#utility.yul\":12310:12336   */\n      mload\n        /* \"#utility.yul\":12301:12336   */\n      swap1\n      pop\n        /* \"#utility.yul\":12273:12350   */\n    tag_225:\n        /* \"#utility.yul\":12376:12443   */\n      tag_226\n        /* \"#utility.yul\":12436:12442   */\n      dup6\n        /* \"#utility.yul\":12429:12434   */\n      dup3\n        /* \"#utility.yul\":12376:12443   */\n      tag_93\n      jump\t// in\n    tag_226:\n        /* \"#utility.yul\":12370:12374   */\n      dup7\n        /* \"#utility.yul\":12363:12444   */\n      sstore\n        /* \"#utility.yul\":12232:12454   */\n      pop\n        /* \"#utility.yul\":11567:12454   */\n      jump(tag_223)\n        /* \"#utility.yul\":11597:12215   */\n    tag_224:\n        /* \"#utility.yul\":11649:11653   */\n      0x1f\n        /* \"#utility.yul\":11645:11654   */\n      not\n        /* \"#utility.yul\":11637:11643   */\n      dup5\n        /* \"#utility.yul\":11633:11655   */\n      and\n        /* \"#utility.yul\":11683:11720   */\n      tag_227\n        /* \"#utility.yul\":11715:11719   */\n      dup7\n        /* \"#utility.yul\":11683:11720   */\n      tag_78\n      jump\t// in\n    tag_227:\n        /* \"#utility.yul\":11742:11743   */\n      0x00\n        /* \"#utility.yul\":11756:11964   */\n    tag_228:\n        /* \"#utility.yul\":11770:11777   */\n      dup3\n        /* \"#utility.yul\":11767:11768   */\n      dup2\n        /* \"#utility.yul\":11764:11778   */\n      lt\n        /* \"#utility.yul\":11756:11964   */\n      iszero\n      tag_230\n      jumpi\n        /* \"#utility.yul\":11849:11858   */\n      dup5\n        /* \"#utility.yul\":11844:11847   */\n      dup10\n        /* \"#utility.yul\":11840:11859   */\n      add\n        /* \"#utility.yul\":11834:11860   */\n      mload\n        /* \"#utility.yul\":11826:11832   */\n      dup3\n        /* \"#utility.yul\":11819:11861   */\n      sstore\n        /* \"#utility.yul\":11900:11901   */\n      0x01\n        /* \"#utility.yul\":11892:11898   */\n      dup3\n        /* \"#utility.yul\":11888:11902   */\n      add\n        /* \"#utility.yul\":11878:11902   */\n      swap2\n      pop\n        /* \"#utility.yul\":11947:11949   */\n      0x20\n        /* \"#utility.yul\":11936:11945   */\n      dup6\n        /* \"#utility.yul\":11932:11950   */\n      add\n        /* \"#utility.yul\":11919:11950   */\n      swap5\n      pop\n        /* \"#utility.yul\":11793:11797   */\n      0x20\n        /* \"#utility.yul\":11790:11791   */\n      dup2\n        /* \"#utility.yul\":11786:11798   */\n      add\n        /* \"#utility.yul\":11781:11798   */\n      swap1\n      pop\n        /* \"#utility.yul\":11756:11964   */\n      jump(tag_228)\n    tag_230:\n        /* \"#utility.yul\":11992:11998   */\n      dup7\n        /* \"#utility.yul\":11983:11990   */\n      dup4\n        /* \"#utility.yul\":11980:11999   */\n      lt\n        /* \"#utility.yul\":11977:12156   */\n      iszero\n      tag_231\n      jumpi\n        /* \"#utility.yul\":12050:12059   */\n      dup5\n        /* \"#utility.yul\":12045:12048   */\n      dup10\n        /* \"#utility.yul\":12041:12060   */\n      add\n        /* \"#utility.yul\":12035:12061   */\n      mload\n        /* \"#utility.yul\":12093:12141   */\n      tag_232\n        /* \"#utility.yul\":12135:12139   */\n      0x1f\n        /* \"#utility.yul\":12127:12133   */\n      dup10\n        /* \"#utility.yul\":12123:12140   */\n      and\n        /* \"#utility.yul\":12112:12121   */\n      dup3\n        /* \"#utility.yul\":12093:12141   */\n      tag_92\n      jump\t// in\n    tag_232:\n        /* \"#utility.yul\":12085:12091   */\n      dup4\n        /* \"#utility.yul\":12078:12142   */\n      sstore\n        /* \"#utility.yul\":12000:12156   */\n      pop\n        /* \"#utility.yul\":11977:12156   */\n    tag_231:\n        /* \"#utility.yul\":12202:12203   */\n      0x01\n        /* \"#utility.yul\":12198:12199   */\n      0x02\n        /* \"#utility.yul\":12190:12196   */\n      dup9\n        /* \"#utility.yul\":12186:12200   */\n      mul\n        /* \"#utility.yul\":12182:12204   */\n      add\n        /* \"#utility.yul\":12176:12180   */\n      dup9\n        /* \"#utility.yul\":12169:12205   */\n      sstore\n        /* \"#utility.yul\":11604:12215   */\n      pop\n      pop\n      pop\n        /* \"#utility.yul\":11567:12454   */\n    tag_223:\n      pop\n        /* \"#utility.yul\":11157:12460   */\n      pop\n      pop\n      pop\n        /* \"#utility.yul\":11065:12460   */\n      pop\n      pop\n      jump\t// out\n        /* \"#utility.yul\":12466:12641   */\n    tag_94:\n        /* \"#utility.yul\":12606:12633   */\n      0x41646472657373206973206e6f74207265676973746572656400000000000000\n        /* \"#utility.yul\":12602:12603   */\n      0x00\n        /* \"#utility.yul\":12594:12600   */\n      dup3\n        /* \"#utility.yul\":12590:12604   */\n      add\n        /* \"#utility.yul\":12583:12634   */\n      mstore\n        /* \"#utility.yul\":12466:12641   */\n      pop\n      jump\t// out\n        /* \"#utility.yul\":12647:13013   */\n    tag_95:\n        /* \"#utility.yul\":12789:12792   */\n      0x00\n        /* \"#utility.yul\":12810:12877   */\n      tag_235\n        /* \"#utility.yul\":12874:12876   */\n      0x19\n        /* \"#utility.yul\":12869:12872   */\n      dup4\n        /* \"#utility.yul\":12810:12877   */\n      tag_64\n      jump\t// in\n    tag_235:\n        /* \"#utility.yul\":12803:12877   */\n      swap2\n      pop\n        /* \"#utility.yul\":12886:12979   */\n      tag_236\n        /* \"#utility.yul\":12975:12978   */\n      dup3\n        /* \"#utility.yul\":12886:12979   */\n      tag_94\n      jump\t// in\n    tag_236:\n        /* \"#utility.yul\":13004:13006   */\n      0x20\n        /* \"#utility.yul\":12999:13002   */\n      dup3\n        /* \"#utility.yul\":12995:13007   */\n      add\n        /* \"#utility.yul\":12988:13007   */\n      swap1\n      pop\n        /* \"#utility.yul\":12647:13013   */\n      swap2\n      swap1\n      pop\n      jump\t// out\n        /* \"#utility.yul\":13019:13438   */\n    tag_38:\n        /* \"#utility.yul\":13185:13189   */\n      0x00\n        /* \"#utility.yul\":13223:13225   */\n      0x20\n        /* \"#utility.yul\":13212:13221   */\n      dup3\n        /* \"#utility.yul\":13208:13226   */\n      add\n        /* \"#utility.yul\":13200:13226   */\n      swap1\n      pop\n        /* \"#utility.yul\":13272:13281   */\n      dup2\n        /* \"#utility.yul\":13266:13270   */\n      dup2\n        /* \"#utility.yul\":13262:13282   */\n      sub\n        /* \"#utility.yul\":13258:13259   */\n      0x00\n        /* \"#utility.yul\":13247:13256   */\n      dup4\n        /* \"#utility.yul\":13243:13260   */\n      add\n        /* \"#utility.yul\":13236:13283   */\n      mstore\n        /* \"#utility.yul\":13300:13431   */\n      tag_238\n        /* \"#utility.yul\":13426:13430   */\n      dup2\n        /* \"#utility.yul\":13300:13431   */\n      tag_95\n      jump\t// in\n    tag_238:\n        /* \"#utility.yul\":13292:13431   */\n      swap1\n      pop\n        /* \"#utility.yul\":13019:13438   */\n      swap2\n      swap1\n      pop\n      jump\t// out\n\n    auxdata: 0xa26469706673582212200e05a27184446f5bdfb2c337c7ceb6fd12ccb04bbd055bd41c393bf257ed036c64736f6c63430008120033\n}\n",
				"bytecode": {
					"linkReferences": {},
					"object": "608060405234801561001057600080fd5b50610c31806100206000396000f3fe608060405234801561001057600080fd5b506004361061004c5760003560e01c80630830602b1461005157806317d7de7c1461006d578063c3c5a5471461008b578063e2a04b62146100bb575b600080fd5b61006b60048036038101906100669190610624565b6100eb565b005b6100756102b0565b60405161008291906106ec565b60405180910390f35b6100a560048036038101906100a0919061076c565b61040a565b6040516100b291906107b4565b60405180910390f35b6100d560048036038101906100d0919061076c565b61042a565b6040516100e291906106ec565b60405180910390f35b600081511161012f576040517f08c379a00000000000000000000000000000000000000000000000000000000081526004016101269061081b565b60405180910390fd5b600160003373ffffffffffffffffffffffffffffffffffffffff1673ffffffffffffffffffffffffffffffffffffffff16815260200190815260200160002060009054906101000a900460ff16156101bc576040517f08c379a00000000000000000000000000000000000000000000000000000000081526004016101b390610887565b60405180910390fd5b806000803373ffffffffffffffffffffffffffffffffffffffff1673ffffffffffffffffffffffffffffffffffffffff16815260200190815260200160002090816102079190610abd565b5060018060003373ffffffffffffffffffffffffffffffffffffffff1673ffffffffffffffffffffffffffffffffffffffff16815260200190815260200160002060006101000a81548160ff0219169083151502179055503373ffffffffffffffffffffffffffffffffffffffff167f56a1a2764a85c689329fbc04f299b64690a26b1dc5ac82e903cf8ad805cd5396826040516102a591906106ec565b60405180910390a250565b6060600160003373ffffffffffffffffffffffffffffffffffffffff1673ffffffffffffffffffffffffffffffffffffffff16815260200190815260200160002060009054906101000a900460ff1661033e576040517f08c379a000000000000000000000000000000000000000000000000000000000815260040161033590610bdb565b60405180910390fd5b6000803373ffffffffffffffffffffffffffffffffffffffff1673ffffffffffffffffffffffffffffffffffffffff1681526020019081526020016000208054610387906108d6565b80601f01602080910402602001604051908101604052809291908181526020018280546103b3906108d6565b80156104005780601f106103d557610100808354040283529160200191610400565b820191906000526020600020905b8154815290600101906020018083116103e357829003601f168201915b5050505050905090565b60016020528060005260406000206000915054906101000a900460ff1681565b60006020528060005260406000206000915090508054610449906108d6565b80601f0160208091040260200160405190810160405280929190818152602001828054610475906108d6565b80156104c25780601f10610497576101008083540402835291602001916104c2565b820191906000526020600020905b8154815290600101906020018083116104a557829003601f168201915b505050505081565b6000604051905090565b600080fd5b600080fd5b600080fd5b600080fd5b6000601f19601f8301169050919050565b7f4e487b7100000000000000000000000000000000000000000000000000000000600052604160045260246000fd5b610531826104e8565b810181811067ffffffffffffffff821117156105505761054f6104f9565b5b80604052505050565b60006105636104ca565b905061056f8282610528565b919050565b600067ffffffffffffffff82111561058f5761058e6104f9565b5b610598826104e8565b9050602081019050919050565b82818337600083830152505050565b60006105c76105c284610574565b610559565b9050828152602081018484840111156105e3576105e26104e3565b5b6105ee8482856105a5565b509392505050565b600082601f83011261060b5761060a6104de565b5b813561061b8482602086016105b4565b91505092915050565b60006020828403121561063a576106396104d4565b5b600082013567ffffffffffffffff811115610658576106576104d9565b5b610664848285016105f6565b91505092915050565b600081519050919050565b600082825260208201905092915050565b60005b838110156106a757808201518184015260208101905061068c565b60008484015250505050565b60006106be8261066d565b6106c88185610678565b93506106d8818560208601610689565b6106e1816104e8565b840191505092915050565b6000602082019050818103600083015261070681846106b3565b905092915050565b600073ffffffffffffffffffffffffffffffffffffffff82169050919050565b60006107398261070e565b9050919050565b6107498161072e565b811461075457600080fd5b50565b60008135905061076681610740565b92915050565b600060208284031215610782576107816104d4565b5b600061079084828501610757565b91505092915050565b60008115159050919050565b6107ae81610799565b82525050565b60006020820190506107c960008301846107a5565b92915050565b7f4e616d652073686f756c64206e6f7420626520656d7074790000000000000000600082015250565b6000610805601883610678565b9150610810826107cf565b602082019050919050565b60006020820190508181036000830152610834816107f8565b9050919050565b7f4164647265737320697320616c72656164792072656769737465726564000000600082015250565b6000610871601d83610678565b915061087c8261083b565b602082019050919050565b600060208201905081810360008301526108a081610864565b9050919050565b7f4e487b7100000000000000000000000000000000000000000000000000000000600052602260045260246000fd5b600060028204905060018216806108ee57607f821691505b602082108103610901576109006108a7565b5b50919050565b60008190508160005260206000209050919050565b60006020601f8301049050919050565b600082821b905092915050565b6000600883026109697fffffffffffffffffffffffffffffffffffffffffffffffffffffffffffffffff8261092c565b610973868361092c565b95508019841693508086168417925050509392505050565b6000819050919050565b6000819050919050565b60006109ba6109b56109b08461098b565b610995565b61098b565b9050919050565b6000819050919050565b6109d48361099f565b6109e86109e0826109c1565b848454610939565b825550505050565b600090565b6109fd6109f0565b610a088184846109cb565b505050565b5b81811015610a2c57610a216000826109f5565b600181019050610a0e565b5050565b601f821115610a7157610a4281610907565b610a4b8461091c565b81016020851015610a5a578190505b610a6e610a668561091c565b830182610a0d565b50505b505050565b600082821c905092915050565b6000610a9460001984600802610a76565b1980831691505092915050565b6000610aad8383610a83565b9150826002028217905092915050565b610ac68261066d565b67ffffffffffffffff811115610adf57610ade6104f9565b5b610ae982546108d6565b610af4828285610a30565b600060209050601f831160018114610b275760008415610b15578287015190505b610b1f8582610aa1565b865550610b87565b601f198416610b3586610907565b60005b82811015610b5d57848901518255600182019150602085019450602081019050610b38565b86831015610b7a5784890151610b76601f891682610a83565b8355505b6001600288020188555050505b505050505050565b7f41646472657373206973206e6f74207265676973746572656400000000000000600082015250565b6000610bc5601983610678565b9150610bd082610b8f565b602082019050919050565b60006020820190508181036000830152610bf481610bb8565b905091905056fea26469706673582212200e05a27184446f5bdfb2c337c7ceb6fd12ccb04bbd055bd41c393bf257ed036c64736f6c63430008120033",
					"opcodes": "PUSH1 0x80 PUSH1 0x40 MSTORE CALLVALUE DUP1 ISZERO PUSH2 0x10 JUMPI PUSH1 0x0 DUP1 REVERT JUMPDEST POP PUSH2 0xC31 DUP1 PUSH2 0x20 PUSH1 0x0 CODECOPY PUSH1 0x0 RETURN INVALID PUSH1 0x80 PUSH1 0x40 MSTORE CALLVALUE DUP1 ISZERO PUSH2 0x10 JUMPI PUSH1 0x0 DUP1 REVERT JUMPDEST POP PUSH1 0x4 CALLDATASIZE LT PUSH2 0x4C JUMPI PUSH1 0x0 CALLDATALOAD PUSH1 0xE0 SHR DUP1 PUSH4 0x830602B EQ PUSH2 0x51 JUMPI DUP1 PUSH4 0x17D7DE7C EQ PUSH2 0x6D JUMPI DUP1 PUSH4 0xC3C5A547 EQ PUSH2 0x8B JUMPI DUP1 PUSH4 0xE2A04B62 EQ PUSH2 0xBB JUMPI JUMPDEST PUSH1 0x0 DUP1 REVERT JUMPDEST PUSH2 0x6B PUSH1 0x4 DUP1 CALLDATASIZE SUB DUP2 ADD SWAP1 PUSH2 0x66 SWAP2 SWAP1 PUSH2 0x624 JUMP JUMPDEST PUSH2 0xEB JUMP JUMPDEST STOP JUMPDEST PUSH2 0x75 PUSH2 0x2B0 JUMP JUMPDEST PUSH1 0x40 MLOAD PUSH2 0x82 SWAP2 SWAP1 PUSH2 0x6EC JUMP JUMPDEST PUSH1 0x40 MLOAD DUP1 SWAP2 SUB SWAP1 RETURN JUMPDEST PUSH2 0xA5 PUSH1 0x4 DUP1 CALLDATASIZE SUB DUP2 ADD SWAP1 PUSH2 0xA0 SWAP2 SWAP1 PUSH2 0x76C JUMP JUMPDEST PUSH2 0x40A JUMP JUMPDEST PUSH1 0x40 MLOAD PUSH2 0xB2 SWAP2 SWAP1 PUSH2 0x7B4 JUMP JUMPDEST PUSH1 0x40 MLOAD DUP1 SWAP2 SUB SWAP1 RETURN JUMPDEST PUSH2 0xD5 PUSH1 0x4 DUP1 CALLDATASIZE SUB DUP2 ADD SWAP1 PUSH2 0xD0 SWAP2 SWAP1 PUSH2 0x76C JUMP JUMPDEST PUSH2 0x42A JUMP JUMPDEST PUSH1 0x40 MLOAD PUSH2 0xE2 SWAP2 SWAP1 PUSH2 0x6EC JUMP JUMPDEST PUSH1 0x40 MLOAD DUP1 SWAP2 SUB SWAP1 RETURN JUMPDEST PUSH1 0x0 DUP2 MLOAD GT PUSH2 0x12F JUMPI PUSH1 0x40 MLOAD PUSH32 0x8C379A000000000000000000000000000000000000000000000000000000000 DUP2 MSTORE PUSH1 0x4 ADD PUSH2 0x126 SWAP1 PUSH2 0x81B JUMP JUMPDEST PUSH1 0x40 MLOAD DUP1 SWAP2 SUB SWAP1 REVERT JUMPDEST PUSH1 0x1 PUSH1 0x0 CALLER PUSH20 0xFFFFFFFFFFFFFFFFFFFFFFFFFFFFFFFFFFFFFFFF AND PUSH20 0xFFFFFFFFFFFFFFFFFFFFFFFFFFFFFFFFFFFFFFFF AND DUP2 MSTORE PUSH1 0x20 ADD SWAP1 DUP2 MSTORE PUSH1 0x20 ADD PUSH1 0x0 KECCAK256 PUSH1 0x0 SWAP1 SLOAD SWAP1 PUSH2 0x100 EXP SWAP1 DIV PUSH1 0xFF AND ISZERO PUSH2 0x1BC JUMPI PUSH1 0x40 MLOAD PUSH32 0x8C379A000000000000000000000000000000000000000000000000000000000 DUP2 MSTORE PUSH1 0x4 ADD PUSH2 0x1B3 SWAP1 PUSH2 0x887 JUMP JUMPDEST PUSH1 0x40 MLOAD DUP1 SWAP2 SUB SWAP1 REVERT JUMPDEST DUP1 PUSH1 0x0 DUP1 CALLER PUSH20 0xFFFFFFFFFFFFFFFFFFFFFFFFFFFFFFFFFFFFFFFF AND PUSH20 0xFFFFFFFFFFFFFFFFFFFFFFFFFFFFFFFFFFFFFFFF AND DUP2 MSTORE PUSH1 0x20 ADD SWAP1 DUP2 MSTORE PUSH1 0x20 ADD PUSH1 0x0 KECCAK256 SWAP1 DUP2 PUSH2 0x207 SWAP2 SWAP1 PUSH2 0xABD JUMP JUMPDEST POP PUSH1 0x1 DUP1 PUSH1 0x0 CALLER PUSH20 0xFFFFFFFFFFFFFFFFFFFFFFFFFFFFFFFFFFFFFFFF AND PUSH20 0xFFFFFFFFFFFFFFFFFFFFFFFFFFFFFFFFFFFFFFFF AND DUP2 MSTORE PUSH1 0x20 ADD SWAP1 DUP2 MSTORE PUSH1 0x20 ADD PUSH1 0x0 KECCAK256 PUSH1 0x0 PUSH2 0x100 EXP DUP2 SLOAD DUP2 PUSH1 0xFF MUL NOT AND SWAP1 DUP4 ISZERO ISZERO MUL OR SWAP1 SSTORE POP CALLER PUSH20 0xFFFFFFFFFFFFFFFFFFFFFFFFFFFFFFFFFFFFFFFF AND PUSH32 0x56A1A2764A85C689329FBC04F299B64690A26B1DC5AC82E903CF8AD805CD5396 DUP3 PUSH1 0x40 MLOAD PUSH2 0x2A5 SWAP2 SWAP1 PUSH2 0x6EC JUMP JUMPDEST PUSH1 0x40 MLOAD DUP1 SWAP2 SUB SWAP1 LOG2 POP JUMP JUMPDEST PUSH1 0x60 PUSH1 0x1 PUSH1 0x0 CALLER PUSH20 0xFFFFFFFFFFFFFFFFFFFFFFFFFFFFFFFFFFFFFFFF AND PUSH20 0xFFFFFFFFFFFFFFFFFFFFFFFFFFFFFFFFFFFFFFFF AND DUP2 MSTORE PUSH1 0x20 ADD SWAP1 DUP2 MSTORE PUSH1 0x20 ADD PUSH1 0x0 KECCAK256 PUSH1 0x0 SWAP1 SLOAD SWAP1 PUSH2 0x100 EXP SWAP1 DIV PUSH1 0xFF AND PUSH2 0x33E JUMPI PUSH1 0x40 MLOAD PUSH32 0x8C379A000000000000000000000000000000000000000000000000000000000 DUP2 MSTORE PUSH1 0x4 ADD PUSH2 0x335 SWAP1 PUSH2 0xBDB JUMP JUMPDEST PUSH1 0x40 MLOAD DUP1 SWAP2 SUB SWAP1 REVERT JUMPDEST PUSH1 0x0 DUP1 CALLER PUSH20 0xFFFFFFFFFFFFFFFFFFFFFFFFFFFFFFFFFFFFFFFF AND PUSH20 0xFFFFFFFFFFFFFFFFFFFFFFFFFFFFFFFFFFFFFFFF AND DUP2 MSTORE PUSH1 0x20 ADD SWAP1 DUP2 MSTORE PUSH1 0x20 ADD PUSH1 0x0 KECCAK256 DUP1 SLOAD PUSH2 0x387 SWAP1 PUSH2 0x8D6 JUMP JUMPDEST DUP1 PUSH1 0x1F ADD PUSH1 0x20 DUP1 SWAP2 DIV MUL PUSH1 0x20 ADD PUSH1 0x40 MLOAD SWAP1 DUP2 ADD PUSH1 0x40 MSTORE DUP1 SWAP3 SWAP2 SWAP1 DUP2 DUP2 MSTORE PUSH1 0x20 ADD DUP3 DUP1 SLOAD PUSH2 0x3B3 SWAP1 PUSH2 0x8D6 JUMP JUMPDEST DUP1 ISZERO PUSH2 0x400 JUMPI DUP1 PUSH1 0x1F LT PUSH2 0x3D5 JUMPI PUSH2 0x100 DUP1 DUP4 SLOAD DIV MUL DUP4 MSTORE SWAP2 PUSH1 0x20 ADD SWAP2 PUSH2 0x400 JUMP JUMPDEST DUP3 ADD SWAP2 SWAP1 PUSH1 0x0 MSTORE PUSH1 0x20 PUSH1 0x0 KECCAK256 SWAP1 JUMPDEST DUP2 SLOAD DUP2 MSTORE SWAP1 PUSH1 0x1 ADD SWAP1 PUSH1 0x20 ADD DUP1 DUP4 GT PUSH2 0x3E3 JUMPI DUP3 SWAP1 SUB PUSH1 0x1F AND DUP3 ADD SWAP2 JUMPDEST POP POP POP POP POP SWAP1 POP SWAP1 JUMP JUMPDEST PUSH1 0x1 PUSH1 0x20 MSTORE DUP1 PUSH1 0x0 MSTORE PUSH1 0x40 PUSH1 0x0 KECCAK256 PUSH1 0x0 SWAP2 POP SLOAD SWAP1 PUSH2 0x100 EXP SWAP1 DIV PUSH1 0xFF AND DUP2 JUMP JUMPDEST PUSH1 0x0 PUSH1 0x20 MSTORE DUP1 PUSH1 0x0 MSTORE PUSH1 0x40 PUSH1 0x0 KECCAK256 PUSH1 0x0 SWAP2 POP SWAP1 POP DUP1 SLOAD PUSH2 0x449 SWAP1 PUSH2 0x8D6 JUMP JUMPDEST DUP1 PUSH1 0x1F ADD PUSH1 0x20 DUP1 SWAP2 DIV MUL PUSH1 0x20 ADD PUSH1 0x40 MLOAD SWAP1 DUP2 ADD PUSH1 0x40 MSTORE DUP1 SWAP3 SWAP2 SWAP1 DUP2 DUP2 MSTORE PUSH1 0x20 ADD DUP3 DUP1 SLOAD PUSH2 0x475 SWAP1 PUSH2 0x8D6 JUMP JUMPDEST DUP1 ISZERO PUSH2 0x4C2 JUMPI DUP1 PUSH1 0x1F LT PUSH2 0x497 JUMPI PUSH2 0x100 DUP1 DUP4 SLOAD DIV MUL DUP4 MSTORE SWAP2 PUSH1 0x20 ADD SWAP2 PUSH2 0x4C2 JUMP JUMPDEST DUP3 ADD SWAP2 SWAP1 PUSH1 0x0 MSTORE PUSH1 0x20 PUSH1 0x0 KECCAK256 SWAP1 JUMPDEST DUP2 SLOAD DUP2 MSTORE SWAP1 PUSH1 0x1 ADD SWAP1 PUSH1 0x20 ADD DUP1 DUP4 GT PUSH2 0x4A5 JUMPI DUP3 SWAP1 SUB PUSH1 0x1F AND DUP3 ADD SWAP2 JUMPDEST POP POP POP POP POP DUP2 JUMP JUMPDEST PUSH1 0x0 PUSH1 0x40 MLOAD SWAP1 POP SWAP1 JUMP JUMPDEST PUSH1 0x0 DUP1 REVERT JUMPDEST PUSH1 0x0 DUP1 REVERT JUMPDEST PUSH1 0x0 DUP1 REVERT JUMPDEST PUSH1 0x0 DUP1 REVERT JUMPDEST PUSH1 0x0 PUSH1 0x1F NOT PUSH1 0x1F DUP4 ADD AND SWAP1 POP SWAP2 SWAP1 POP JUMP JUMPDEST PUSH32 0x4E487B7100000000000000000000000000000000000000000000000000000000 PUSH1 0x0 MSTORE PUSH1 0x41 PUSH1 0x4 MSTORE PUSH1 0x24 PUSH1 0x0 REVERT JUMPDEST PUSH2 0x531 DUP3 PUSH2 0x4E8 JUMP JUMPDEST DUP2 ADD DUP2 DUP2 LT PUSH8 0xFFFFFFFFFFFFFFFF DUP3 GT OR ISZERO PUSH2 0x550 JUMPI PUSH2 0x54F PUSH2 0x4F9 JUMP JUMPDEST JUMPDEST DUP1 PUSH1 0x40 MSTORE POP POP POP JUMP JUMPDEST PUSH1 0x0 PUSH2 0x563 PUSH2 0x4CA JUMP JUMPDEST SWAP1 POP PUSH2 0x56F DUP3 DUP3 PUSH2 0x528 JUMP JUMPDEST SWAP2 SWAP1 POP JUMP JUMPDEST PUSH1 0x0 PUSH8 0xFFFFFFFFFFFFFFFF DUP3 GT ISZERO PUSH2 0x58F JUMPI PUSH2 0x58E PUSH2 0x4F9 JUMP JUMPDEST JUMPDEST PUSH2 0x598 DUP3 PUSH2 0x4E8 JUMP JUMPDEST SWAP1 POP PUSH1 0x20 DUP2 ADD SWAP1 POP SWAP2 SWAP1 POP JUMP JUMPDEST DUP3 DUP2 DUP4 CALLDATACOPY PUSH1 0x0 DUP4 DUP4 ADD MSTORE POP POP POP JUMP JUMPDEST PUSH1 0x0 PUSH2 0x5C7 PUSH2 0x5C2 DUP5 PUSH2 0x574 JUMP JUMPDEST PUSH2 0x559 JUMP JUMPDEST SWAP1 POP DUP3 DUP2 MSTORE PUSH1 0x20 DUP2 ADD DUP5 DUP5 DUP5 ADD GT ISZERO PUSH2 0x5E3 JUMPI PUSH2 0x5E2 PUSH2 0x4E3 JUMP JUMPDEST JUMPDEST PUSH2 0x5EE DUP5 DUP3 DUP6 PUSH2 0x5A5 JUMP JUMPDEST POP SWAP4 SWAP3 POP POP POP JUMP JUMPDEST PUSH1 0x0 DUP3 PUSH1 0x1F DUP4 ADD SLT PUSH2 0x60B JUMPI PUSH2 0x60A PUSH2 0x4DE JUMP JUMPDEST JUMPDEST DUP2 CALLDATALOAD PUSH2 0x61B DUP5 DUP3 PUSH1 0x20 DUP7 ADD PUSH2 0x5B4 JUMP JUMPDEST SWAP2 POP POP SWAP3 SWAP2 POP POP JUMP JUMPDEST PUSH1 0x0 PUSH1 0x20 DUP3 DUP5 SUB SLT ISZERO PUSH2 0x63A JUMPI PUSH2 0x639 PUSH2 0x4D4 JUMP JUMPDEST JUMPDEST PUSH1 0x0 DUP3 ADD CALLDATALOAD PUSH8 0xFFFFFFFFFFFFFFFF DUP2 GT ISZERO PUSH2 0x658 JUMPI PUSH2 0x657 PUSH2 0x4D9 JUMP JUMPDEST JUMPDEST PUSH2 0x664 DUP5 DUP3 DUP6 ADD PUSH2 0x5F6 JUMP JUMPDEST SWAP2 POP POP SWAP3 SWAP2 POP POP JUMP JUMPDEST PUSH1 0x0 DUP2 MLOAD SWAP1 POP SWAP2 SWAP1 POP JUMP JUMPDEST PUSH1 0x0 DUP3 DUP3 MSTORE PUSH1 0x20 DUP3 ADD SWAP1 POP SWAP3 SWAP2 POP POP JUMP JUMPDEST PUSH1 0x0 JUMPDEST DUP4 DUP2 LT ISZERO PUSH2 0x6A7 JUMPI DUP1 DUP3 ADD MLOAD DUP2 DUP5 ADD MSTORE PUSH1 0x20 DUP2 ADD SWAP1 POP PUSH2 0x68C JUMP JUMPDEST PUSH1 0x0 DUP5 DUP5 ADD MSTORE POP POP POP POP JUMP JUMPDEST PUSH1 0x0 PUSH2 0x6BE DUP3 PUSH2 0x66D JUMP JUMPDEST PUSH2 0x6C8 DUP2 DUP6 PUSH2 0x678 JUMP JUMPDEST SWAP4 POP PUSH2 0x6D8 DUP2 DUP6 PUSH1 0x20 DUP7 ADD PUSH2 0x689 JUMP JUMPDEST PUSH2 0x6E1 DUP2 PUSH2 0x4E8 JUMP JUMPDEST DUP5 ADD SWAP2 POP POP SWAP3 SWAP2 POP POP JUMP JUMPDEST PUSH1 0x0 PUSH1 0x20 DUP3 ADD SWAP1 POP DUP2 DUP2 SUB PUSH1 0x0 DUP4 ADD MSTORE PUSH2 0x706 DUP2 DUP5 PUSH2 0x6B3 JUMP JUMPDEST SWAP1 POP SWAP3 SWAP2 POP POP JUMP JUMPDEST PUSH1 0x0 PUSH20 0xFFFFFFFFFFFFFFFFFFFFFFFFFFFFFFFFFFFFFFFF DUP3 AND SWAP1 POP SWAP2 SWAP1 POP JUMP JUMPDEST PUSH1 0x0 PUSH2 0x739 DUP3 PUSH2 0x70E JUMP JUMPDEST SWAP1 POP SWAP2 SWAP1 POP JUMP JUMPDEST PUSH2 0x749 DUP2 PUSH2 0x72E JUMP JUMPDEST DUP2 EQ PUSH2 0x754 JUMPI PUSH1 0x0 DUP1 REVERT JUMPDEST POP JUMP JUMPDEST PUSH1 0x0 DUP2 CALLDATALOAD SWAP1 POP PUSH2 0x766 DUP2 PUSH2 0x740 JUMP JUMPDEST SWAP3 SWAP2 POP POP JUMP JUMPDEST PUSH1 0x0 PUSH1 0x20 DUP3 DUP5 SUB SLT ISZERO PUSH2 0x782 JUMPI PUSH2 0x781 PUSH2 0x4D4 JUMP JUMPDEST JUMPDEST PUSH1 0x0 PUSH2 0x790 DUP5 DUP3 DUP6 ADD PUSH2 0x757 JUMP JUMPDEST SWAP2 POP POP SWAP3 SWAP2 POP POP JUMP JUMPDEST PUSH1 0x0 DUP2 ISZERO ISZERO SWAP1 POP SWAP2 SWAP1 POP JUMP JUMPDEST PUSH2 0x7AE DUP2 PUSH2 0x799 JUMP JUMPDEST DUP3 MSTORE POP POP JUMP JUMPDEST PUSH1 0x0 PUSH1 0x20 DUP3 ADD SWAP1 POP PUSH2 0x7C9 PUSH1 0x0 DUP4 ADD DUP5 PUSH2 0x7A5 JUMP JUMPDEST SWAP3 SWAP2 POP POP JUMP JUMPDEST PUSH32 0x4E616D652073686F756C64206E6F7420626520656D7074790000000000000000 PUSH1 0x0 DUP3 ADD MSTORE POP JUMP JUMPDEST PUSH1 0x0 PUSH2 0x805 PUSH1 0x18 DUP4 PUSH2 0x678 JUMP JUMPDEST SWAP2 POP PUSH2 0x810 DUP3 PUSH2 0x7CF JUMP JUMPDEST PUSH1 0x20 DUP3 ADD SWAP1 POP SWAP2 SWAP1 POP JUMP JUMPDEST PUSH1 0x0 PUSH1 0x20 DUP3 ADD SWAP1 POP DUP2 DUP2 SUB PUSH1 0x0 DUP4 ADD MSTORE PUSH2 0x834 DUP2 PUSH2 0x7F8 JUMP JUMPDEST SWAP1 POP SWAP2 SWAP1 POP JUMP JUMPDEST PUSH32 0x4164647265737320697320616C72656164792072656769737465726564000000 PUSH1 0x0 DUP3 ADD MSTORE POP JUMP JUMPDEST PUSH1 0x0 PUSH2 0x871 PUSH1 0x1D DUP4 PUSH2 0x678 JUMP JUMPDEST SWAP2 POP PUSH2 0x87C DUP3 PUSH2 0x83B JUMP JUMPDEST PUSH1 0x20 DUP3 ADD SWAP1 POP SWAP2 SWAP1 POP JUMP JUMPDEST PUSH1 0x0 PUSH1 0x20 DUP3 ADD SWAP1 POP DUP2 DUP2 SUB PUSH1 0x0 DUP4 ADD MSTORE PUSH2 0x8A0 DUP2 PUSH2 0x864 JUMP JUMPDEST SWAP1 POP SWAP2 SWAP1 POP JUMP JUMPDEST PUSH32 0x4E487B7100000000000000000000000000000000000000000000000000000000 PUSH1 0x0 MSTORE PUSH1 0x22 PUSH1 0x4 MSTORE PUSH1 0x24 PUSH1 0x0 REVERT JUMPDEST PUSH1 0x0 PUSH1 0x2 DUP3 DIV SWAP1 POP PUSH1 0x1 DUP3 AND DUP1 PUSH2 0x8EE JUMPI PUSH1 0x7F DUP3 AND SWAP2 POP JUMPDEST PUSH1 0x20 DUP3 LT DUP2 SUB PUSH2 0x901 JUMPI PUSH2 0x900 PUSH2 0x8A7 JUMP JUMPDEST JUMPDEST POP SWAP2 SWAP1 POP JUMP JUMPDEST PUSH1 0x0 DUP2 SWAP1 POP DUP2 PUSH1 0x0 MSTORE PUSH1 0x20 PUSH1 0x0 KECCAK256 SWAP1 POP SWAP2 SWAP1 POP JUMP JUMPDEST PUSH1 0x0 PUSH1 0x20 PUSH1 0x1F DUP4 ADD DIV SWAP1 POP SWAP2 SWAP1 POP JUMP JUMPDEST PUSH1 0x0 DUP3 DUP3 SHL SWAP1 POP SWAP3 SWAP2 POP POP JUMP JUMPDEST PUSH1 0x0 PUSH1 0x8 DUP4 MUL PUSH2 0x969 PUSH32 0xFFFFFFFFFFFFFFFFFFFFFFFFFFFFFFFFFFFFFFFFFFFFFFFFFFFFFFFFFFFFFFFF DUP3 PUSH2 0x92C JUMP JUMPDEST PUSH2 0x973 DUP7 DUP4 PUSH2 0x92C JUMP JUMPDEST SWAP6 POP DUP1 NOT DUP5 AND SWAP4 POP DUP1 DUP7 AND DUP5 OR SWAP3 POP POP POP SWAP4 SWAP3 POP POP POP JUMP JUMPDEST PUSH1 0x0 DUP2 SWAP1 POP SWAP2 SWAP1 POP JUMP JUMPDEST PUSH1 0x0 DUP2 SWAP1 POP SWAP2 SWAP1 POP JUMP JUMPDEST PUSH1 0x0 PUSH2 0x9BA PUSH2 0x9B5 PUSH2 0x9B0 DUP5 PUSH2 0x98B JUMP JUMPDEST PUSH2 0x995 JUMP JUMPDEST PUSH2 0x98B JUMP JUMPDEST SWAP1 POP SWAP2 SWAP1 POP JUMP JUMPDEST PUSH1 0x0 DUP2 SWAP1 POP SWAP2 SWAP1 POP JUMP JUMPDEST PUSH2 0x9D4 DUP4 PUSH2 0x99F JUMP JUMPDEST PUSH2 0x9E8 PUSH2 0x9E0 DUP3 PUSH2 0x9C1 JUMP JUMPDEST DUP5 DUP5 SLOAD PUSH2 0x939 JUMP JUMPDEST DUP3 SSTORE POP POP POP POP JUMP JUMPDEST PUSH1 0x0 SWAP1 JUMP JUMPDEST PUSH2 0x9FD PUSH2 0x9F0 JUMP JUMPDEST PUSH2 0xA08 DUP2 DUP5 DUP5 PUSH2 0x9CB JUMP JUMPDEST POP POP POP JUMP JUMPDEST JUMPDEST DUP2 DUP2 LT ISZERO PUSH2 0xA2C JUMPI PUSH2 0xA21 PUSH1 0x0 DUP3 PUSH2 0x9F5 JUMP JUMPDEST PUSH1 0x1 DUP2 ADD SWAP1 POP PUSH2 0xA0E JUMP JUMPDEST POP POP JUMP JUMPDEST PUSH1 0x1F DUP3 GT ISZERO PUSH2 0xA71 JUMPI PUSH2 0xA42 DUP2 PUSH2 0x907 JUMP JUMPDEST PUSH2 0xA4B DUP5 PUSH2 0x91C JUMP JUMPDEST DUP2 ADD PUSH1 0x20 DUP6 LT ISZERO PUSH2 0xA5A JUMPI DUP2 SWAP1 POP JUMPDEST PUSH2 0xA6E PUSH2 0xA66 DUP6 PUSH2 0x91C JUMP JUMPDEST DUP4 ADD DUP3 PUSH2 0xA0D JUMP JUMPDEST POP POP JUMPDEST POP POP POP JUMP JUMPDEST PUSH1 0x0 DUP3 DUP3 SHR SWAP1 POP SWAP3 SWAP2 POP POP JUMP JUMPDEST PUSH1 0x0 PUSH2 0xA94 PUSH1 0x0 NOT DUP5 PUSH1 0x8 MUL PUSH2 0xA76 JUMP JUMPDEST NOT DUP1 DUP4 AND SWAP2 POP POP SWAP3 SWAP2 POP POP JUMP JUMPDEST PUSH1 0x0 PUSH2 0xAAD DUP4 DUP4 PUSH2 0xA83 JUMP JUMPDEST SWAP2 POP DUP3 PUSH1 0x2 MUL DUP3 OR SWAP1 POP SWAP3 SWAP2 POP POP JUMP JUMPDEST PUSH2 0xAC6 DUP3 PUSH2 0x66D JUMP JUMPDEST PUSH8 0xFFFFFFFFFFFFFFFF DUP2 GT ISZERO PUSH2 0xADF JUMPI PUSH2 0xADE PUSH2 0x4F9 JUMP JUMPDEST JUMPDEST PUSH2 0xAE9 DUP3 SLOAD PUSH2 0x8D6 JUMP JUMPDEST PUSH2 0xAF4 DUP3 DUP3 DUP6 PUSH2 0xA30 JUMP JUMPDEST PUSH1 0x0 PUSH1 0x20 SWAP1 POP PUSH1 0x1F DUP4 GT PUSH1 0x1 DUP2 EQ PUSH2 0xB27 JUMPI PUSH1 0x0 DUP5 ISZERO PUSH2 0xB15 JUMPI DUP3 DUP8 ADD MLOAD SWAP1 POP JUMPDEST PUSH2 0xB1F DUP6 DUP3 PUSH2 0xAA1 JUMP JUMPDEST DUP7 SSTORE POP PUSH2 0xB87 JUMP JUMPDEST PUSH1 0x1F NOT DUP5 AND PUSH2 0xB35 DUP7 PUSH2 0x907 JUMP JUMPDEST PUSH1 0x0 JUMPDEST DUP3 DUP2 LT ISZERO PUSH2 0xB5D JUMPI DUP5 DUP10 ADD MLOAD DUP3 SSTORE PUSH1 0x1 DUP3 ADD SWAP2 POP PUSH1 0x20 DUP6 ADD SWAP5 POP PUSH1 0x20 DUP2 ADD SWAP1 POP PUSH2 0xB38 JUMP JUMPDEST DUP7 DUP4 LT ISZERO PUSH2 0xB7A JUMPI DUP5 DUP10 ADD MLOAD PUSH2 0xB76 PUSH1 0x1F DUP10 AND DUP3 PUSH2 0xA83 JUMP JUMPDEST DUP4 SSTORE POP JUMPDEST PUSH1 0x1 PUSH1 0x2 DUP9 MUL ADD DUP9 SSTORE POP POP POP JUMPDEST POP POP POP POP POP POP JUMP JUMPDEST PUSH32 0x41646472657373206973206E6F74207265676973746572656400000000000000 PUSH1 0x0 DUP3 ADD MSTORE POP JUMP JUMPDEST PUSH1 0x0 PUSH2 0xBC5 PUSH1 0x19 DUP4 PUSH2 0x678 JUMP JUMPDEST SWAP2 POP PUSH2 0xBD0 DUP3 PUSH2 0xB8F JUMP JUMPDEST PUSH1 0x20 DUP3 ADD SWAP1 POP SWAP2 SWAP1 POP JUMP JUMPDEST PUSH1 0x0 PUSH1 0x20 DUP3 ADD SWAP1 POP DUP2 DUP2 SUB PUSH1 0x0 DUP4 ADD MSTORE PUSH2 0xBF4 DUP2 PUSH2 0xBB8 JUMP JUMPDEST SWAP1 POP SWAP2 SWAP1 POP JUMP INVALID LOG2 PUSH5 0x6970667358 0x22 SLT KECCAK256 0xE SDIV LOG2 PUSH18 0x84446F5BDFB2C337C7CEB6FD12CCB04BBD05 JUMPDEST 0xD4 SHR CODECOPY EXTCODESIZE CALLCODE JUMPI 0xED SUB PUSH13 0x64736F6C634300081200330000 "
				},
				"gasEstimates": {
					"creation": {
						"codeDepositCost": "624200",
						"executionCost": "657",
						"totalCost": "624857"
					},
					"external": {
						"addressToName(address)": "infinite",
						"getName()": "infinite",
						"isRegistered(address)": "2867",
						"registerName(string)": "infinite"
					}
				},
				"methodIdentifiers": {
					"addressToName(address)": "e2a04b62",
					"getName()": "17d7de7c",
					"isRegistered(address)": "c3c5a547",
					"registerName(string)": "0830602b"
				}
			},
			"storageLayout": {
				"storage": [
					{
						"astId": 5,
						"contract": "contracts/ethtest.sol:NameRegistry",
						"label": "addressToName",
						"offset": 0,
						"slot": "0",
						"type": "t_mapping(t_address,t_string_storage)"
					},
					{
						"astId": 9,
						"contract": "contracts/ethtest.sol:NameRegistry",
						"label": "isRegistered",
						"offset": 0,
						"slot": "1",
						"type": "t_mapping(t_address,t_bool)"
					}
				],
				"types": {
					"t_address": {
						"encoding": "inplace",
						"label": "address",
						"numberOfBytes": "20"
					},
					"t_bool": {
						"encoding": "inplace",
						"label": "bool",
						"numberOfBytes": "1"
					},
					"t_mapping(t_address,t_bool)": {
						"encoding": "mapping",
						"key": "t_address",
						"label": "mapping(address => bool)",
						"numberOfBytes": "32",
						"value": "t_bool"
					},
					"t_mapping(t_address,t_string_storage)": {
						"encoding": "mapping",
						"key": "t_address",
						"label": "mapping(address => string)",
						"numberOfBytes": "32",
						"value": "t_string_storage"
					},
					"t_string_storage": {
						"encoding": "bytes",
						"label": "string",
						"numberOfBytes": "32"
					}
				}
			},
			"userdoc": {
				"kind": "user",
				"methods": {},
				"version": 1
			}
		}
	}
}