{
	"contracts/AquoNewERC20.sol": {
		"AssetShares": {
			"abi": [
				{
					"inputs": [
						{
							"internalType": "uint256",
							"name": "initialSupply",
							"type": "uint256"
						}
					],
					"stateMutability": "nonpayable",
					"type": "constructor"
				},
				{
					"anonymous": false,
					"inputs": [
						{
							"indexed": true,
							"internalType": "address",
							"name": "owner",
							"type": "address"
						},
						{
							"indexed": true,
							"internalType": "address",
							"name": "spender",
							"type": "address"
						},
						{
							"indexed": false,
							"internalType": "uint256",
							"name": "value",
							"type": "uint256"
						}
					],
					"name": "Approval",
					"type": "event"
				},
				{
					"anonymous": false,
					"inputs": [
						{
							"indexed": true,
							"internalType": "address",
							"name": "previousOwner",
							"type": "address"
						},
						{
							"indexed": true,
							"internalType": "address",
							"name": "newOwner",
							"type": "address"
						}
					],
					"name": "OwnershipTransferred",
					"type": "event"
				},
				{
					"anonymous": false,
					"inputs": [
						{
							"indexed": true,
							"internalType": "address",
							"name": "from",
							"type": "address"
						},
						{
							"indexed": true,
							"internalType": "address",
							"name": "to",
							"type": "address"
						},
						{
							"indexed": false,
							"internalType": "uint256",
							"name": "value",
							"type": "uint256"
						}
					],
					"name": "Transfer",
					"type": "event"
				},
				{
					"inputs": [
						{
							"internalType": "address",
							"name": "owner",
							"type": "address"
						},
						{
							"internalType": "address",
							"name": "spender",
							"type": "address"
						}
					],
					"name": "allowance",
					"outputs": [
						{
							"internalType": "uint256",
							"name": "",
							"type": "uint256"
						}
					],
					"stateMutability": "view",
					"type": "function"
				},
				{
					"inputs": [
						{
							"internalType": "address",
							"name": "spender",
							"type": "address"
						},
						{
							"internalType": "uint256",
							"name": "amount",
							"type": "uint256"
						}
					],
					"name": "approve",
					"outputs": [
						{
							"internalType": "bool",
							"name": "",
							"type": "bool"
						}
					],
					"stateMutability": "nonpayable",
					"type": "function"
				},
				{
					"inputs": [
						{
							"internalType": "address",
							"name": "account",
							"type": "address"
						}
					],
					"name": "balanceOf",
					"outputs": [
						{
							"internalType": "uint256",
							"name": "",
							"type": "uint256"
						}
					],
					"stateMutability": "view",
					"type": "function"
				},
				{
					"inputs": [],
					"name": "decimals",
					"outputs": [
						{
							"internalType": "uint8",
							"name": "",
							"type": "uint8"
						}
					],
					"stateMutability": "view",
					"type": "function"
				},
				{
					"inputs": [
						{
							"internalType": "address",
							"name": "spender",
							"type": "address"
						},
						{
							"internalType": "uint256",
							"name": "subtractedValue",
							"type": "uint256"
						}
					],
					"name": "decreaseAllowance",
					"outputs": [
						{
							"internalType": "bool",
							"name": "",
							"type": "bool"
						}
					],
					"stateMutability": "nonpayable",
					"type": "function"
				},
				{
					"inputs": [],
					"name": "getAllHolders",
					"outputs": [
						{
							"internalType": "address[]",
							"name": "",
							"type": "address[]"
						},
						{
							"internalType": "uint256[]",
							"name": "",
							"type": "uint256[]"
						}
					],
					"stateMutability": "view",
					"type": "function"
				},
				{
					"inputs": [
						{
							"internalType": "address",
							"name": "spender",
							"type": "address"
						},
						{
							"internalType": "uint256",
							"name": "addedValue",
							"type": "uint256"
						}
					],
					"name": "increaseAllowance",
					"outputs": [
						{
							"internalType": "bool",
							"name": "",
							"type": "bool"
						}
					],
					"stateMutability": "nonpayable",
					"type": "function"
				},
				{
					"inputs": [],
					"name": "name",
					"outputs": [
						{
							"internalType": "string",
							"name": "",
							"type": "string"
						}
					],
					"stateMutability": "view",
					"type": "function"
				},
				{
					"inputs": [],
					"name": "owner",
					"outputs": [
						{
							"internalType": "address",
							"name": "",
							"type": "address"
						}
					],
					"stateMutability": "view",
					"type": "function"
				},
				{
					"inputs": [],
					"name": "renounceOwnership",
					"outputs": [],
					"stateMutability": "nonpayable",
					"type": "function"
				},
				{
					"inputs": [],
					"name": "symbol",
					"outputs": [
						{
							"internalType": "string",
							"name": "",
							"type": "string"
						}
					],
					"stateMutability": "view",
					"type": "function"
				},
				{
					"inputs": [],
					"name": "totalSupply",
					"outputs": [
						{
							"internalType": "uint256",
							"name": "",
							"type": "uint256"
						}
					],
					"stateMutability": "view",
					"type": "function"
				},
				{
					"inputs": [
						{
							"internalType": "address",
							"name": "recipient",
							"type": "address"
						},
						{
							"internalType": "uint256",
							"name": "amount",
							"type": "uint256"
						}
					],
					"name": "transfer",
					"outputs": [
						{
							"internalType": "bool",
							"name": "",
							"type": "bool"
						}
					],
					"stateMutability": "nonpayable",
					"type": "function"
				},
				{
					"inputs": [
						{
							"internalType": "address",
							"name": "from",
							"type": "address"
						},
						{
							"internalType": "address",
							"name": "to",
							"type": "address"
						},
						{
							"internalType": "uint256",
							"name": "amount",
							"type": "uint256"
						}
					],
					"name": "transferFrom",
					"outputs": [
						{
							"internalType": "bool",
							"name": "",
							"type": "bool"
						}
					],
					"stateMutability": "nonpayable",
					"type": "function"
				},
				{
					"inputs": [
						{
							"internalType": "address",
							"name": "newOwner",
							"type": "address"
						}
					],
					"name": "transferOwnership",
					"outputs": [],
					"stateMutability": "nonpayable",
					"type": "function"
				}
			],
			"devdoc": {
				"events": {
					"Approval(address,address,uint256)": {
						"details": "Emitted when the allowance of a `spender` for an `owner` is set by a call to {approve}. `value` is the new allowance."
					},
					"Transfer(address,address,uint256)": {
						"details": "Emitted when `value` tokens are moved from one account (`from`) to another (`to`). Note that `value` may be zero."
					}
				},
				"kind": "dev",
				"methods": {
					"allowance(address,address)": {
						"details": "See {IERC20-allowance}."
					},
					"approve(address,uint256)": {
						"details": "See {IERC20-approve}. NOTE: If `amount` is the maximum `uint256`, the allowance is not updated on `transferFrom`. This is semantically equivalent to an infinite approval. Requirements: - `spender` cannot be the zero address."
					},
					"balanceOf(address)": {
						"details": "See {IERC20-balanceOf}."
					},
					"decimals()": {
						"details": "Returns the number of decimals used to get its user representation. For example, if `decimals` equals `2`, a balance of `505` tokens should be displayed to a user as `5.05` (`505 / 10 ** 2`). Tokens usually opt for a value of 18, imitating the relationship between Ether and Wei. This is the value {ERC20} uses, unless this function is overridden; NOTE: This information is only used for _display_ purposes: it in no way affects any of the arithmetic of the contract, including {IERC20-balanceOf} and {IERC20-transfer}."
					},
					"decreaseAllowance(address,uint256)": {
						"details": "Atomically decreases the allowance granted to `spender` by the caller. This is an alternative to {approve} that can be used as a mitigation for problems described in {IERC20-approve}. Emits an {Approval} event indicating the updated allowance. Requirements: - `spender` cannot be the zero address. - `spender` must have allowance for the caller of at least `subtractedValue`."
					},
					"increaseAllowance(address,uint256)": {
						"details": "Atomically increases the allowance granted to `spender` by the caller. This is an alternative to {approve} that can be used as a mitigation for problems described in {IERC20-approve}. Emits an {Approval} event indicating the updated allowance. Requirements: - `spender` cannot be the zero address."
					},
					"name()": {
						"details": "Returns the name of the token."
					},
					"owner()": {
						"details": "Returns the address of the current owner."
					},
					"renounceOwnership()": {
						"details": "Leaves the contract without owner. It will not be possible to call `onlyOwner` functions anymore. Can only be called by the current owner. NOTE: Renouncing ownership will leave the contract without an owner, thereby removing any functionality that is only available to the owner."
					},
					"symbol()": {
						"details": "Returns the symbol of the token, usually a shorter version of the name."
					},
					"totalSupply()": {
						"details": "See {IERC20-totalSupply}."
					},
					"transferFrom(address,address,uint256)": {
						"details": "See {IERC20-transferFrom}. Emits an {Approval} event indicating the updated allowance. This is not required by the EIP. See the note at the beginning of {ERC20}. NOTE: Does not update the allowance if the current allowance is the maximum `uint256`. Requirements: - `from` and `to` cannot be the zero address. - `from` must have a balance of at least `amount`. - the caller must have allowance for ``from``'s tokens of at least `amount`."
					},
					"transferOwnership(address)": {
						"details": "Transfers ownership of the contract to a new account (`newOwner`). Can only be called by the current owner."
					}
				},
				"version": 1
			},
			"evm": {
				"assembly": "    /* \"contracts/AquoNewERC20.sol\":174:1748  contract AssetShares is ERC20, Ownable {... */\n  mstore(0x40, 0x80)\n    /* \"contracts/AquoNewERC20.sol\":387:700  constructor(uint256 initialSupply) ERC20(\"AssetShares\", \"ASH\") {... */\n  callvalue\n  dup1\n  iszero\n  tag_1\n  jumpi\n  0x00\n  dup1\n  revert\ntag_1:\n  pop\n  mload(0x40)\n  sub(codesize, bytecodeSize)\n  dup1\n  bytecodeSize\n  dup4\n  codecopy\n  dup2\n  dup2\n  add\n  0x40\n  mstore\n  dup2\n  add\n  swap1\n  tag_2\n  swap2\n  swap1\n  tag_3\n  jump\t// in\ntag_2:\n    /* \"@openzeppelin/contracts/token/ERC20/ERC20.sol\":1976:2089  constructor(string memory name_, string memory symbol_) {... */\n  mload(0x40)\n  dup1\n  0x40\n  add\n  0x40\n  mstore\n  dup1\n  0x0b\n  dup2\n  mstore\n  0x20\n  add\n  0x4173736574536861726573000000000000000000000000000000000000000000\n  dup2\n  mstore\n  pop\n  mload(0x40)\n  dup1\n  0x40\n  add\n  0x40\n  mstore\n  dup1\n  0x03\n  dup2\n  mstore\n  0x20\n  add\n  0x4153480000000000000000000000000000000000000000000000000000000000\n  dup2\n  mstore\n  pop\n    /* \"@openzeppelin/contracts/token/ERC20/ERC20.sol\":2050:2055  name_ */\n  dup2\n    /* \"@openzeppelin/contracts/token/ERC20/ERC20.sol\":2042:2047  _name */\n  0x03\n    /* \"@openzeppelin/contracts/token/ERC20/ERC20.sol\":2042:2055  _name = name_ */\n  swap1\n  dup2\n  tag_8\n  swap2\n  swap1\n  tag_9\n  jump\t// in\ntag_8:\n  pop\n    /* \"@openzeppelin/contracts/token/ERC20/ERC20.sol\":2075:2082  symbol_ */\n  dup1\n    /* \"@openzeppelin/contracts/token/ERC20/ERC20.sol\":2065:2072  _symbol */\n  0x04\n    /* \"@openzeppelin/contracts/token/ERC20/ERC20.sol\":2065:2082  _symbol = symbol_ */\n  swap1\n  dup2\n  tag_10\n  swap2\n  swap1\n  tag_9\n  jump\t// in\ntag_10:\n  pop\n    /* \"@openzeppelin/contracts/token/ERC20/ERC20.sol\":1976:2089  constructor(string memory name_, string memory symbol_) {... */\n  pop\n  pop\n    /* \"@openzeppelin/contracts/access/Ownable.sol\":936:968  _transferOwnership(_msgSender()) */\n  tag_12\n    /* \"@openzeppelin/contracts/access/Ownable.sol\":955:967  _msgSender() */\n  tag_13\n    /* \"@openzeppelin/contracts/access/Ownable.sol\":955:965  _msgSender */\n  shl(0x20, tag_14)\n    /* \"@openzeppelin/contracts/access/Ownable.sol\":955:967  _msgSender() */\n  0x20\n  shr\n  jump\t// in\ntag_13:\n    /* \"@openzeppelin/contracts/access/Ownable.sol\":936:954  _transferOwnership */\n  shl(0x20, tag_15)\n    /* \"@openzeppelin/contracts/access/Ownable.sol\":936:968  _transferOwnership(_msgSender()) */\n  0x20\n  shr\n  jump\t// in\ntag_12:\n    /* \"contracts/AquoNewERC20.sol\":461:493  _mint(msg.sender, initialSupply) */\n  tag_17\n    /* \"contracts/AquoNewERC20.sol\":467:477  msg.sender */\n  caller\n    /* \"contracts/AquoNewERC20.sol\":479:492  initialSupply */\n  dup3\n    /* \"contracts/AquoNewERC20.sol\":461:466  _mint */\n  shl(0x20, tag_18)\n    /* \"contracts/AquoNewERC20.sol\":461:493  _mint(msg.sender, initialSupply) */\n  0x20\n  shr\n  jump\t// in\ntag_17:\n    /* \"contracts/AquoNewERC20.sol\":551:558  holders */\n  0x07\n    /* \"contracts/AquoNewERC20.sol\":564:574  msg.sender */\n  caller\n    /* \"contracts/AquoNewERC20.sol\":551:575  holders.push(msg.sender) */\n  swap1\n  dup1\n  0x01\n  dup2\n  sload\n  add\n  dup1\n  dup3\n  sstore\n  dup1\n  swap2\n  pop\n  pop\n  0x01\n  swap1\n  sub\n  swap1\n  0x00\n  mstore\n  keccak256(0x00, 0x20)\n  add\n  0x00\n  swap1\n  swap2\n  swap1\n  swap2\n  swap1\n  swap2\n  0x0100\n  exp\n  dup2\n  sload\n  dup2\n  0xffffffffffffffffffffffffffffffffffffffff\n  mul\n  not\n  and\n  swap1\n  dup4\n  0xffffffffffffffffffffffffffffffffffffffff\n  and\n  mul\n  or\n  swap1\n  sstore\n  pop\n    /* \"contracts/AquoNewERC20.sol\":649:662  initialSupply */\n  dup1\n    /* \"contracts/AquoNewERC20.sol\":626:634  balances */\n  0x06\n    /* \"contracts/AquoNewERC20.sol\":626:646  balances[msg.sender] */\n  0x00\n    /* \"contracts/AquoNewERC20.sol\":635:645  msg.sender */\n  caller\n    /* \"contracts/AquoNewERC20.sol\":626:646  balances[msg.sender] */\n  0xffffffffffffffffffffffffffffffffffffffff\n  and\n  0xffffffffffffffffffffffffffffffffffffffff\n  and\n  dup2\n  mstore\n  0x20\n  add\n  swap1\n  dup2\n  mstore\n  0x20\n  add\n  0x00\n  keccak256\n    /* \"contracts/AquoNewERC20.sol\":626:662  balances[msg.sender] = initialSupply */\n  dup2\n  swap1\n  sstore\n  pop\n    /* \"contracts/AquoNewERC20.sol\":387:700  constructor(uint256 initialSupply) ERC20(\"AssetShares\", \"ASH\") {... */\n  pop\n    /* \"contracts/AquoNewERC20.sol\":174:1748  contract AssetShares is ERC20, Ownable {... */\n  jump(tag_20)\n    /* \"@openzeppelin/contracts/utils/Context.sol\":640:736  function _msgSender() internal view virtual returns (address) {... */\ntag_14:\n    /* \"@openzeppelin/contracts/utils/Context.sol\":693:700  address */\n  0x00\n    /* \"@openzeppelin/contracts/utils/Context.sol\":719:729  msg.sender */\n  caller\n    /* \"@openzeppelin/contracts/utils/Context.sol\":712:729  return msg.sender */\n  swap1\n  pop\n    /* \"@openzeppelin/contracts/utils/Context.sol\":640:736  function _msgSender() internal view virtual returns (address) {... */\n  swap1\n  jump\t// out\n    /* \"@openzeppelin/contracts/access/Ownable.sol\":2433:2620  function _transferOwnership(address newOwner) internal virtual {... */\ntag_15:\n    /* \"@openzeppelin/contracts/access/Ownable.sol\":2506:2522  address oldOwner */\n  0x00\n    /* \"@openzeppelin/contracts/access/Ownable.sol\":2525:2531  _owner */\n  0x05\n  0x00\n  swap1\n  sload\n  swap1\n  0x0100\n  exp\n  swap1\n  div\n  0xffffffffffffffffffffffffffffffffffffffff\n  and\n    /* \"@openzeppelin/contracts/access/Ownable.sol\":2506:2531  address oldOwner = _owner */\n  swap1\n  pop\n    /* \"@openzeppelin/contracts/access/Ownable.sol\":2550:2558  newOwner */\n  dup2\n    /* \"@openzeppelin/contracts/access/Ownable.sol\":2541:2547  _owner */\n  0x05\n  0x00\n    /* \"@openzeppelin/contracts/access/Ownable.sol\":2541:2558  _owner = newOwner */\n  0x0100\n  exp\n  dup2\n  sload\n  dup2\n  0xffffffffffffffffffffffffffffffffffffffff\n  mul\n  not\n  and\n  swap1\n  dup4\n  0xffffffffffffffffffffffffffffffffffffffff\n  and\n  mul\n  or\n  swap1\n  sstore\n  pop\n    /* \"@openzeppelin/contracts/access/Ownable.sol\":2604:2612  newOwner */\n  dup2\n    /* \"@openzeppelin/contracts/access/Ownable.sol\":2573:2613  OwnershipTransferred(oldOwner, newOwner) */\n  0xffffffffffffffffffffffffffffffffffffffff\n  and\n    /* \"@openzeppelin/contracts/access/Ownable.sol\":2594:2602  oldOwner */\n  dup2\n    /* \"@openzeppelin/contracts/access/Ownable.sol\":2573:2613  OwnershipTransferred(oldOwner, newOwner) */\n  0xffffffffffffffffffffffffffffffffffffffff\n  and\n  0x8be0079c531659141344cd1fd0a4f28419497f9722a3daafe3b4186f6b6457e0\n  mload(0x40)\n  mload(0x40)\n  dup1\n  swap2\n  sub\n  swap1\n  log3\n    /* \"@openzeppelin/contracts/access/Ownable.sol\":2496:2620  {... */\n  pop\n    /* \"@openzeppelin/contracts/access/Ownable.sol\":2433:2620  function _transferOwnership(address newOwner) internal virtual {... */\n  pop\n  jump\t// out\n    /* \"@openzeppelin/contracts/token/ERC20/ERC20.sol\":8567:9102  function _mint(address account, uint256 amount) internal virtual {... */\ntag_18:\n    /* \"@openzeppelin/contracts/token/ERC20/ERC20.sol\":8669:8670  0 */\n  0x00\n    /* \"@openzeppelin/contracts/token/ERC20/ERC20.sol\":8650:8671  account != address(0) */\n  0xffffffffffffffffffffffffffffffffffffffff\n  and\n    /* \"@openzeppelin/contracts/token/ERC20/ERC20.sol\":8650:8657  account */\n  dup3\n    /* \"@openzeppelin/contracts/token/ERC20/ERC20.sol\":8650:8671  account != address(0) */\n  0xffffffffffffffffffffffffffffffffffffffff\n  and\n  sub\n    /* \"@openzeppelin/contracts/token/ERC20/ERC20.sol\":8642:8707  require(account != address(0), \"ERC20: mint to the zero address\") */\n  tag_24\n  jumpi\n  mload(0x40)\n  0x08c379a000000000000000000000000000000000000000000000000000000000\n  dup2\n  mstore\n  0x04\n  add\n  tag_25\n  swap1\n  tag_26\n  jump\t// in\ntag_25:\n  mload(0x40)\n  dup1\n  swap2\n  sub\n  swap1\n  revert\ntag_24:\n    /* \"@openzeppelin/contracts/token/ERC20/ERC20.sol\":8718:8767  _beforeTokenTransfer(address(0), account, amount) */\n  tag_27\n    /* \"@openzeppelin/contracts/token/ERC20/ERC20.sol\":8747:8748  0 */\n  0x00\n    /* \"@openzeppelin/contracts/token/ERC20/ERC20.sol\":8751:8758  account */\n  dup4\n    /* \"@openzeppelin/contracts/token/ERC20/ERC20.sol\":8760:8766  amount */\n  dup4\n    /* \"@openzeppelin/contracts/token/ERC20/ERC20.sol\":8718:8738  _beforeTokenTransfer */\n  shl(0x20, tag_28)\n    /* \"@openzeppelin/contracts/token/ERC20/ERC20.sol\":8718:8767  _beforeTokenTransfer(address(0), account, amount) */\n  0x20\n  shr\n  jump\t// in\ntag_27:\n    /* \"@openzeppelin/contracts/token/ERC20/ERC20.sol\":8794:8800  amount */\n  dup1\n    /* \"@openzeppelin/contracts/token/ERC20/ERC20.sol\":8778:8790  _totalSupply */\n  0x02\n  0x00\n    /* \"@openzeppelin/contracts/token/ERC20/ERC20.sol\":8778:8800  _totalSupply += amount */\n  dup3\n  dup3\n  sload\n  tag_29\n  swap2\n  swap1\n  tag_30\n  jump\t// in\ntag_29:\n  swap3\n  pop\n  pop\n  dup2\n  swap1\n  sstore\n  pop\n    /* \"@openzeppelin/contracts/token/ERC20/ERC20.sol\":8968:8974  amount */\n  dup1\n    /* \"@openzeppelin/contracts/token/ERC20/ERC20.sol\":8946:8955  _balances */\n  0x00\n    /* \"@openzeppelin/contracts/token/ERC20/ERC20.sol\":8946:8964  _balances[account] */\n  dup1\n    /* \"@openzeppelin/contracts/token/ERC20/ERC20.sol\":8956:8963  account */\n  dup5\n    /* \"@openzeppelin/contracts/token/ERC20/ERC20.sol\":8946:8964  _balances[account] */\n  0xffffffffffffffffffffffffffffffffffffffff\n  and\n  0xffffffffffffffffffffffffffffffffffffffff\n  and\n  dup2\n  mstore\n  0x20\n  add\n  swap1\n  dup2\n  mstore\n  0x20\n  add\n  0x00\n  keccak256\n  0x00\n    /* \"@openzeppelin/contracts/token/ERC20/ERC20.sol\":8946:8974  _balances[account] += amount */\n  dup3\n  dup3\n  sload\n  add\n  swap3\n  pop\n  pop\n  dup2\n  swap1\n  sstore\n  pop\n    /* \"@openzeppelin/contracts/token/ERC20/ERC20.sol\":9020:9027  account */\n  dup2\n    /* \"@openzeppelin/contracts/token/ERC20/ERC20.sol\":8999:9036  Transfer(address(0), account, amount) */\n  0xffffffffffffffffffffffffffffffffffffffff\n  and\n    /* \"@openzeppelin/contracts/token/ERC20/ERC20.sol\":9016:9017  0 */\n  0x00\n    /* \"@openzeppelin/contracts/token/ERC20/ERC20.sol\":8999:9036  Transfer(address(0), account, amount) */\n  0xffffffffffffffffffffffffffffffffffffffff\n  and\n  0xddf252ad1be2c89b69c2b068fc378daa952ba7f163c4a11628f55a4df523b3ef\n    /* \"@openzeppelin/contracts/token/ERC20/ERC20.sol\":9029:9035  amount */\n  dup4\n    /* \"@openzeppelin/contracts/token/ERC20/ERC20.sol\":8999:9036  Transfer(address(0), account, amount) */\n  mload(0x40)\n  tag_31\n  swap2\n  swap1\n  tag_32\n  jump\t// in\ntag_31:\n  mload(0x40)\n  dup1\n  swap2\n  sub\n  swap1\n  log3\n    /* \"@openzeppelin/contracts/token/ERC20/ERC20.sol\":9047:9095  _afterTokenTransfer(address(0), account, amount) */\n  tag_33\n    /* \"@openzeppelin/contracts/token/ERC20/ERC20.sol\":9075:9076  0 */\n  0x00\n    /* \"@openzeppelin/contracts/token/ERC20/ERC20.sol\":9079:9086  account */\n  dup4\n    /* \"@openzeppelin/contracts/token/ERC20/ERC20.sol\":9088:9094  amount */\n  dup4\n    /* \"@openzeppelin/contracts/token/ERC20/ERC20.sol\":9047:9066  _afterTokenTransfer */\n  shl(0x20, tag_34)\n    /* \"@openzeppelin/contracts/token/ERC20/ERC20.sol\":9047:9095  _afterTokenTransfer(address(0), account, amount) */\n  0x20\n  shr\n  jump\t// in\ntag_33:\n    /* \"@openzeppelin/contracts/token/ERC20/ERC20.sol\":8567:9102  function _mint(address account, uint256 amount) internal virtual {... */\n  pop\n  pop\n  jump\t// out\n    /* \"@openzeppelin/contracts/token/ERC20/ERC20.sol\":12180:12301  function _beforeTokenTransfer(... */\ntag_28:\n  pop\n  pop\n  pop\n  jump\t// out\n    /* \"@openzeppelin/contracts/token/ERC20/ERC20.sol\":12889:13009  function _afterTokenTransfer(... */\ntag_34:\n  pop\n  pop\n  pop\n  jump\t// out\n    /* \"#utility.yul\":88:205   */\ntag_38:\n    /* \"#utility.yul\":197:198   */\n  0x00\n    /* \"#utility.yul\":194:195   */\n  dup1\n    /* \"#utility.yul\":187:199   */\n  revert\n    /* \"#utility.yul\":334:411   */\ntag_40:\n    /* \"#utility.yul\":371:378   */\n  0x00\n    /* \"#utility.yul\":400:405   */\n  dup2\n    /* \"#utility.yul\":389:405   */\n  swap1\n  pop\n    /* \"#utility.yul\":334:411   */\n  swap2\n  swap1\n  pop\n  jump\t// out\n    /* \"#utility.yul\":417:539   */\ntag_41:\n    /* \"#utility.yul\":490:514   */\n  tag_73\n    /* \"#utility.yul\":508:513   */\n  dup2\n    /* \"#utility.yul\":490:514   */\n  tag_40\n  jump\t// in\ntag_73:\n    /* \"#utility.yul\":483:488   */\n  dup2\n    /* \"#utility.yul\":480:515   */\n  eq\n    /* \"#utility.yul\":470:533   */\n  tag_74\n  jumpi\n    /* \"#utility.yul\":529:530   */\n  0x00\n    /* \"#utility.yul\":526:527   */\n  dup1\n    /* \"#utility.yul\":519:531   */\n  revert\n    /* \"#utility.yul\":470:533   */\ntag_74:\n    /* \"#utility.yul\":417:539   */\n  pop\n  jump\t// out\n    /* \"#utility.yul\":545:688   */\ntag_42:\n    /* \"#utility.yul\":602:607   */\n  0x00\n    /* \"#utility.yul\":633:639   */\n  dup2\n    /* \"#utility.yul\":627:640   */\n  mload\n    /* \"#utility.yul\":618:640   */\n  swap1\n  pop\n    /* \"#utility.yul\":649:682   */\n  tag_76\n    /* \"#utility.yul\":676:681   */\n  dup2\n    /* \"#utility.yul\":649:682   */\n  tag_41\n  jump\t// in\ntag_76:\n    /* \"#utility.yul\":545:688   */\n  swap3\n  swap2\n  pop\n  pop\n  jump\t// out\n    /* \"#utility.yul\":694:1045   */\ntag_3:\n    /* \"#utility.yul\":764:770   */\n  0x00\n    /* \"#utility.yul\":813:815   */\n  0x20\n    /* \"#utility.yul\":801:810   */\n  dup3\n    /* \"#utility.yul\":792:799   */\n  dup5\n    /* \"#utility.yul\":788:811   */\n  sub\n    /* \"#utility.yul\":784:816   */\n  slt\n    /* \"#utility.yul\":781:900   */\n  iszero\n  tag_78\n  jumpi\n    /* \"#utility.yul\":819:898   */\n  tag_79\n  tag_38\n  jump\t// in\ntag_79:\n    /* \"#utility.yul\":781:900   */\ntag_78:\n    /* \"#utility.yul\":939:940   */\n  0x00\n    /* \"#utility.yul\":964:1028   */\n  tag_80\n    /* \"#utility.yul\":1020:1027   */\n  dup5\n    /* \"#utility.yul\":1011:1017   */\n  dup3\n    /* \"#utility.yul\":1000:1009   */\n  dup6\n    /* \"#utility.yul\":996:1018   */\n  add\n    /* \"#utility.yul\":964:1028   */\n  tag_42\n  jump\t// in\ntag_80:\n    /* \"#utility.yul\":954:1028   */\n  swap2\n  pop\n    /* \"#utility.yul\":910:1038   */\n  pop\n    /* \"#utility.yul\":694:1045   */\n  swap3\n  swap2\n  pop\n  pop\n  jump\t// out\n    /* \"#utility.yul\":1051:1150   */\ntag_43:\n    /* \"#utility.yul\":1103:1109   */\n  0x00\n    /* \"#utility.yul\":1137:1142   */\n  dup2\n    /* \"#utility.yul\":1131:1143   */\n  mload\n    /* \"#utility.yul\":1121:1143   */\n  swap1\n  pop\n    /* \"#utility.yul\":1051:1150   */\n  swap2\n  swap1\n  pop\n  jump\t// out\n    /* \"#utility.yul\":1156:1336   */\ntag_44:\n    /* \"#utility.yul\":1204:1281   */\n  0x4e487b7100000000000000000000000000000000000000000000000000000000\n    /* \"#utility.yul\":1201:1202   */\n  0x00\n    /* \"#utility.yul\":1194:1282   */\n  mstore\n    /* \"#utility.yul\":1301:1305   */\n  0x41\n    /* \"#utility.yul\":1298:1299   */\n  0x04\n    /* \"#utility.yul\":1291:1306   */\n  mstore\n    /* \"#utility.yul\":1325:1329   */\n  0x24\n    /* \"#utility.yul\":1322:1323   */\n  0x00\n    /* \"#utility.yul\":1315:1330   */\n  revert\n    /* \"#utility.yul\":1342:1522   */\ntag_45:\n    /* \"#utility.yul\":1390:1467   */\n  0x4e487b7100000000000000000000000000000000000000000000000000000000\n    /* \"#utility.yul\":1387:1388   */\n  0x00\n    /* \"#utility.yul\":1380:1468   */\n  mstore\n    /* \"#utility.yul\":1487:1491   */\n  0x22\n    /* \"#utility.yul\":1484:1485   */\n  0x04\n    /* \"#utility.yul\":1477:1492   */\n  mstore\n    /* \"#utility.yul\":1511:1515   */\n  0x24\n    /* \"#utility.yul\":1508:1509   */\n  0x00\n    /* \"#utility.yul\":1501:1516   */\n  revert\n    /* \"#utility.yul\":1528:1848   */\ntag_46:\n    /* \"#utility.yul\":1572:1578   */\n  0x00\n    /* \"#utility.yul\":1609:1610   */\n  0x02\n    /* \"#utility.yul\":1603:1607   */\n  dup3\n    /* \"#utility.yul\":1599:1611   */\n  div\n    /* \"#utility.yul\":1589:1611   */\n  swap1\n  pop\n    /* \"#utility.yul\":1656:1657   */\n  0x01\n    /* \"#utility.yul\":1650:1654   */\n  dup3\n    /* \"#utility.yul\":1646:1658   */\n  and\n    /* \"#utility.yul\":1677:1695   */\n  dup1\n    /* \"#utility.yul\":1667:1748   */\n  tag_85\n  jumpi\n    /* \"#utility.yul\":1733:1737   */\n  0x7f\n    /* \"#utility.yul\":1725:1731   */\n  dup3\n    /* \"#utility.yul\":1721:1738   */\n  and\n    /* \"#utility.yul\":1711:1738   */\n  swap2\n  pop\n    /* \"#utility.yul\":1667:1748   */\ntag_85:\n    /* \"#utility.yul\":1795:1797   */\n  0x20\n    /* \"#utility.yul\":1787:1793   */\n  dup3\n    /* \"#utility.yul\":1784:1798   */\n  lt\n    /* \"#utility.yul\":1764:1782   */\n  dup2\n    /* \"#utility.yul\":1761:1799   */\n  sub\n    /* \"#utility.yul\":1758:1842   */\n  tag_86\n  jumpi\n    /* \"#utility.yul\":1814:1832   */\n  tag_87\n  tag_45\n  jump\t// in\ntag_87:\n    /* \"#utility.yul\":1758:1842   */\ntag_86:\n    /* \"#utility.yul\":1579:1848   */\n  pop\n    /* \"#utility.yul\":1528:1848   */\n  swap2\n  swap1\n  pop\n  jump\t// out\n    /* \"#utility.yul\":1854:1995   */\ntag_47:\n    /* \"#utility.yul\":1903:1907   */\n  0x00\n    /* \"#utility.yul\":1926:1929   */\n  dup2\n    /* \"#utility.yul\":1918:1929   */\n  swap1\n  pop\n    /* \"#utility.yul\":1949:1952   */\n  dup2\n    /* \"#utility.yul\":1946:1947   */\n  0x00\n    /* \"#utility.yul\":1939:1953   */\n  mstore\n    /* \"#utility.yul\":1983:1987   */\n  0x20\n    /* \"#utility.yul\":1980:1981   */\n  0x00\n    /* \"#utility.yul\":1970:1988   */\n  keccak256\n    /* \"#utility.yul\":1962:1988   */\n  swap1\n  pop\n    /* \"#utility.yul\":1854:1995   */\n  swap2\n  swap1\n  pop\n  jump\t// out\n    /* \"#utility.yul\":2001:2094   */\ntag_48:\n    /* \"#utility.yul\":2038:2044   */\n  0x00\n    /* \"#utility.yul\":2085:2087   */\n  0x20\n    /* \"#utility.yul\":2080:2082   */\n  0x1f\n    /* \"#utility.yul\":2073:2078   */\n  dup4\n    /* \"#utility.yul\":2069:2083   */\n  add\n    /* \"#utility.yul\":2065:2088   */\n  div\n    /* \"#utility.yul\":2055:2088   */\n  swap1\n  pop\n    /* \"#utility.yul\":2001:2094   */\n  swap2\n  swap1\n  pop\n  jump\t// out\n    /* \"#utility.yul\":2100:2207   */\ntag_49:\n    /* \"#utility.yul\":2144:2152   */\n  0x00\n    /* \"#utility.yul\":2194:2199   */\n  dup3\n    /* \"#utility.yul\":2188:2192   */\n  dup3\n    /* \"#utility.yul\":2184:2200   */\n  shl\n    /* \"#utility.yul\":2163:2200   */\n  swap1\n  pop\n    /* \"#utility.yul\":2100:2207   */\n  swap3\n  swap2\n  pop\n  pop\n  jump\t// out\n    /* \"#utility.yul\":2213:2606   */\ntag_50:\n    /* \"#utility.yul\":2282:2288   */\n  0x00\n    /* \"#utility.yul\":2332:2333   */\n  0x08\n    /* \"#utility.yul\":2320:2330   */\n  dup4\n    /* \"#utility.yul\":2316:2334   */\n  mul\n    /* \"#utility.yul\":2355:2452   */\n  tag_92\n    /* \"#utility.yul\":2385:2451   */\n  0xffffffffffffffffffffffffffffffffffffffffffffffffffffffffffffffff\n    /* \"#utility.yul\":2374:2383   */\n  dup3\n    /* \"#utility.yul\":2355:2452   */\n  tag_49\n  jump\t// in\ntag_92:\n    /* \"#utility.yul\":2473:2512   */\n  tag_93\n    /* \"#utility.yul\":2503:2511   */\n  dup7\n    /* \"#utility.yul\":2492:2501   */\n  dup4\n    /* \"#utility.yul\":2473:2512   */\n  tag_49\n  jump\t// in\ntag_93:\n    /* \"#utility.yul\":2461:2512   */\n  swap6\n  pop\n    /* \"#utility.yul\":2545:2549   */\n  dup1\n    /* \"#utility.yul\":2541:2550   */\n  not\n    /* \"#utility.yul\":2534:2539   */\n  dup5\n    /* \"#utility.yul\":2530:2551   */\n  and\n    /* \"#utility.yul\":2521:2551   */\n  swap4\n  pop\n    /* \"#utility.yul\":2594:2598   */\n  dup1\n    /* \"#utility.yul\":2584:2592   */\n  dup7\n    /* \"#utility.yul\":2580:2599   */\n  and\n    /* \"#utility.yul\":2573:2578   */\n  dup5\n    /* \"#utility.yul\":2570:2600   */\n  or\n    /* \"#utility.yul\":2560:2600   */\n  swap3\n  pop\n    /* \"#utility.yul\":2289:2606   */\n  pop\n  pop\n    /* \"#utility.yul\":2213:2606   */\n  swap4\n  swap3\n  pop\n  pop\n  pop\n  jump\t// out\n    /* \"#utility.yul\":2612:2672   */\ntag_51:\n    /* \"#utility.yul\":2640:2643   */\n  0x00\n    /* \"#utility.yul\":2661:2666   */\n  dup2\n    /* \"#utility.yul\":2654:2666   */\n  swap1\n  pop\n    /* \"#utility.yul\":2612:2672   */\n  swap2\n  swap1\n  pop\n  jump\t// out\n    /* \"#utility.yul\":2678:2820   */\ntag_52:\n    /* \"#utility.yul\":2728:2737   */\n  0x00\n    /* \"#utility.yul\":2761:2814   */\n  tag_96\n    /* \"#utility.yul\":2779:2813   */\n  tag_97\n    /* \"#utility.yul\":2788:2812   */\n  tag_98\n    /* \"#utility.yul\":2806:2811   */\n  dup5\n    /* \"#utility.yul\":2788:2812   */\n  tag_40\n  jump\t// in\ntag_98:\n    /* \"#utility.yul\":2779:2813   */\n  tag_51\n  jump\t// in\ntag_97:\n    /* \"#utility.yul\":2761:2814   */\n  tag_40\n  jump\t// in\ntag_96:\n    /* \"#utility.yul\":2748:2814   */\n  swap1\n  pop\n    /* \"#utility.yul\":2678:2820   */\n  swap2\n  swap1\n  pop\n  jump\t// out\n    /* \"#utility.yul\":2826:2901   */\ntag_53:\n    /* \"#utility.yul\":2869:2872   */\n  0x00\n    /* \"#utility.yul\":2890:2895   */\n  dup2\n    /* \"#utility.yul\":2883:2895   */\n  swap1\n  pop\n    /* \"#utility.yul\":2826:2901   */\n  swap2\n  swap1\n  pop\n  jump\t// out\n    /* \"#utility.yul\":2907:3176   */\ntag_54:\n    /* \"#utility.yul\":3017:3056   */\n  tag_101\n    /* \"#utility.yul\":3048:3055   */\n  dup4\n    /* \"#utility.yul\":3017:3056   */\n  tag_52\n  jump\t// in\ntag_101:\n    /* \"#utility.yul\":3078:3169   */\n  tag_102\n    /* \"#utility.yul\":3127:3168   */\n  tag_103\n    /* \"#utility.yul\":3151:3167   */\n  dup3\n    /* \"#utility.yul\":3127:3168   */\n  tag_53\n  jump\t// in\ntag_103:\n    /* \"#utility.yul\":3119:3125   */\n  dup5\n    /* \"#utility.yul\":3112:3116   */\n  dup5\n    /* \"#utility.yul\":3106:3117   */\n  sload\n    /* \"#utility.yul\":3078:3169   */\n  tag_50\n  jump\t// in\ntag_102:\n    /* \"#utility.yul\":3072:3076   */\n  dup3\n    /* \"#utility.yul\":3065:3170   */\n  sstore\n    /* \"#utility.yul\":2983:3176   */\n  pop\n    /* \"#utility.yul\":2907:3176   */\n  pop\n  pop\n  pop\n  jump\t// out\n    /* \"#utility.yul\":3182:3255   */\ntag_55:\n    /* \"#utility.yul\":3227:3230   */\n  0x00\n    /* \"#utility.yul\":3182:3255   */\n  swap1\n  jump\t// out\n    /* \"#utility.yul\":3261:3450   */\ntag_56:\n    /* \"#utility.yul\":3338:3370   */\n  tag_106\n  tag_55\n  jump\t// in\ntag_106:\n    /* \"#utility.yul\":3379:3444   */\n  tag_107\n    /* \"#utility.yul\":3437:3443   */\n  dup2\n    /* \"#utility.yul\":3429:3435   */\n  dup5\n    /* \"#utility.yul\":3423:3427   */\n  dup5\n    /* \"#utility.yul\":3379:3444   */\n  tag_54\n  jump\t// in\ntag_107:\n    /* \"#utility.yul\":3314:3450   */\n  pop\n    /* \"#utility.yul\":3261:3450   */\n  pop\n  pop\n  jump\t// out\n    /* \"#utility.yul\":3456:3642   */\ntag_57:\n    /* \"#utility.yul\":3516:3636   */\ntag_109:\n    /* \"#utility.yul\":3533:3536   */\n  dup2\n    /* \"#utility.yul\":3526:3531   */\n  dup2\n    /* \"#utility.yul\":3523:3537   */\n  lt\n    /* \"#utility.yul\":3516:3636   */\n  iszero\n  tag_111\n  jumpi\n    /* \"#utility.yul\":3587:3626   */\n  tag_112\n    /* \"#utility.yul\":3624:3625   */\n  0x00\n    /* \"#utility.yul\":3617:3622   */\n  dup3\n    /* \"#utility.yul\":3587:3626   */\n  tag_56\n  jump\t// in\ntag_112:\n    /* \"#utility.yul\":3560:3561   */\n  0x01\n    /* \"#utility.yul\":3553:3558   */\n  dup2\n    /* \"#utility.yul\":3549:3562   */\n  add\n    /* \"#utility.yul\":3540:3562   */\n  swap1\n  pop\n    /* \"#utility.yul\":3516:3636   */\n  jump(tag_109)\ntag_111:\n    /* \"#utility.yul\":3456:3642   */\n  pop\n  pop\n  jump\t// out\n    /* \"#utility.yul\":3648:4191   */\ntag_58:\n    /* \"#utility.yul\":3749:3751   */\n  0x1f\n    /* \"#utility.yul\":3744:3747   */\n  dup3\n    /* \"#utility.yul\":3741:3752   */\n  gt\n    /* \"#utility.yul\":3738:4184   */\n  iszero\n  tag_114\n  jumpi\n    /* \"#utility.yul\":3783:3821   */\n  tag_115\n    /* \"#utility.yul\":3815:3820   */\n  dup2\n    /* \"#utility.yul\":3783:3821   */\n  tag_47\n  jump\t// in\ntag_115:\n    /* \"#utility.yul\":3867:3896   */\n  tag_116\n    /* \"#utility.yul\":3885:3895   */\n  dup5\n    /* \"#utility.yul\":3867:3896   */\n  tag_48\n  jump\t// in\ntag_116:\n    /* \"#utility.yul\":3857:3865   */\n  dup2\n    /* \"#utility.yul\":3853:3897   */\n  add\n    /* \"#utility.yul\":4050:4052   */\n  0x20\n    /* \"#utility.yul\":4038:4048   */\n  dup6\n    /* \"#utility.yul\":4035:4053   */\n  lt\n    /* \"#utility.yul\":4032:4081   */\n  iszero\n  tag_117\n  jumpi\n    /* \"#utility.yul\":4071:4079   */\n  dup2\n    /* \"#utility.yul\":4056:4079   */\n  swap1\n  pop\n    /* \"#utility.yul\":4032:4081   */\ntag_117:\n    /* \"#utility.yul\":4094:4174   */\n  tag_118\n    /* \"#utility.yul\":4150:4172   */\n  tag_119\n    /* \"#utility.yul\":4168:4171   */\n  dup6\n    /* \"#utility.yul\":4150:4172   */\n  tag_48\n  jump\t// in\ntag_119:\n    /* \"#utility.yul\":4140:4148   */\n  dup4\n    /* \"#utility.yul\":4136:4173   */\n  add\n    /* \"#utility.yul\":4123:4134   */\n  dup3\n    /* \"#utility.yul\":4094:4174   */\n  tag_57\n  jump\t// in\ntag_118:\n    /* \"#utility.yul\":3753:4184   */\n  pop\n  pop\n    /* \"#utility.yul\":3738:4184   */\ntag_114:\n    /* \"#utility.yul\":3648:4191   */\n  pop\n  pop\n  pop\n  jump\t// out\n    /* \"#utility.yul\":4197:4314   */\ntag_59:\n    /* \"#utility.yul\":4251:4259   */\n  0x00\n    /* \"#utility.yul\":4301:4306   */\n  dup3\n    /* \"#utility.yul\":4295:4299   */\n  dup3\n    /* \"#utility.yul\":4291:4307   */\n  shr\n    /* \"#utility.yul\":4270:4307   */\n  swap1\n  pop\n    /* \"#utility.yul\":4197:4314   */\n  swap3\n  swap2\n  pop\n  pop\n  jump\t// out\n    /* \"#utility.yul\":4320:4489   */\ntag_60:\n    /* \"#utility.yul\":4364:4370   */\n  0x00\n    /* \"#utility.yul\":4397:4448   */\n  tag_122\n    /* \"#utility.yul\":4445:4446   */\n  0x00\n    /* \"#utility.yul\":4441:4447   */\n  not\n    /* \"#utility.yul\":4433:4438   */\n  dup5\n    /* \"#utility.yul\":4430:4431   */\n  0x08\n    /* \"#utility.yul\":4426:4439   */\n  mul\n    /* \"#utility.yul\":4397:4448   */\n  tag_59\n  jump\t// in\ntag_122:\n    /* \"#utility.yul\":4393:4449   */\n  not\n    /* \"#utility.yul\":4478:4482   */\n  dup1\n    /* \"#utility.yul\":4472:4476   */\n  dup4\n    /* \"#utility.yul\":4468:4483   */\n  and\n    /* \"#utility.yul\":4458:4483   */\n  swap2\n  pop\n    /* \"#utility.yul\":4371:4489   */\n  pop\n    /* \"#utility.yul\":4320:4489   */\n  swap3\n  swap2\n  pop\n  pop\n  jump\t// out\n    /* \"#utility.yul\":4494:4789   */\ntag_61:\n    /* \"#utility.yul\":4570:4574   */\n  0x00\n    /* \"#utility.yul\":4716:4745   */\n  tag_124\n    /* \"#utility.yul\":4741:4744   */\n  dup4\n    /* \"#utility.yul\":4735:4739   */\n  dup4\n    /* \"#utility.yul\":4716:4745   */\n  tag_60\n  jump\t// in\ntag_124:\n    /* \"#utility.yul\":4708:4745   */\n  swap2\n  pop\n    /* \"#utility.yul\":4778:4781   */\n  dup3\n    /* \"#utility.yul\":4775:4776   */\n  0x02\n    /* \"#utility.yul\":4771:4782   */\n  mul\n    /* \"#utility.yul\":4765:4769   */\n  dup3\n    /* \"#utility.yul\":4762:4783   */\n  or\n    /* \"#utility.yul\":4754:4783   */\n  swap1\n  pop\n    /* \"#utility.yul\":4494:4789   */\n  swap3\n  swap2\n  pop\n  pop\n  jump\t// out\n    /* \"#utility.yul\":4794:6189   */\ntag_9:\n    /* \"#utility.yul\":4911:4948   */\n  tag_126\n    /* \"#utility.yul\":4944:4947   */\n  dup3\n    /* \"#utility.yul\":4911:4948   */\n  tag_43\n  jump\t// in\ntag_126:\n    /* \"#utility.yul\":5013:5031   */\n  0xffffffffffffffff\n    /* \"#utility.yul\":5005:5011   */\n  dup2\n    /* \"#utility.yul\":5002:5032   */\n  gt\n    /* \"#utility.yul\":4999:5055   */\n  iszero\n  tag_127\n  jumpi\n    /* \"#utility.yul\":5035:5053   */\n  tag_128\n  tag_44\n  jump\t// in\ntag_128:\n    /* \"#utility.yul\":4999:5055   */\ntag_127:\n    /* \"#utility.yul\":5079:5117   */\n  tag_129\n    /* \"#utility.yul\":5111:5115   */\n  dup3\n    /* \"#utility.yul\":5105:5116   */\n  sload\n    /* \"#utility.yul\":5079:5117   */\n  tag_46\n  jump\t// in\ntag_129:\n    /* \"#utility.yul\":5164:5231   */\n  tag_130\n    /* \"#utility.yul\":5224:5230   */\n  dup3\n    /* \"#utility.yul\":5216:5222   */\n  dup3\n    /* \"#utility.yul\":5210:5214   */\n  dup6\n    /* \"#utility.yul\":5164:5231   */\n  tag_58\n  jump\t// in\ntag_130:\n    /* \"#utility.yul\":5258:5259   */\n  0x00\n    /* \"#utility.yul\":5282:5286   */\n  0x20\n    /* \"#utility.yul\":5269:5286   */\n  swap1\n  pop\n    /* \"#utility.yul\":5314:5316   */\n  0x1f\n    /* \"#utility.yul\":5306:5312   */\n  dup4\n    /* \"#utility.yul\":5303:5317   */\n  gt\n    /* \"#utility.yul\":5331:5332   */\n  0x01\n    /* \"#utility.yul\":5326:5944   */\n  dup2\n  eq\n  tag_132\n  jumpi\n    /* \"#utility.yul\":5988:5989   */\n  0x00\n    /* \"#utility.yul\":6005:6011   */\n  dup5\n    /* \"#utility.yul\":6002:6079   */\n  iszero\n  tag_133\n  jumpi\n    /* \"#utility.yul\":6054:6063   */\n  dup3\n    /* \"#utility.yul\":6049:6052   */\n  dup8\n    /* \"#utility.yul\":6045:6064   */\n  add\n    /* \"#utility.yul\":6039:6065   */\n  mload\n    /* \"#utility.yul\":6030:6065   */\n  swap1\n  pop\n    /* \"#utility.yul\":6002:6079   */\ntag_133:\n    /* \"#utility.yul\":6105:6172   */\n  tag_134\n    /* \"#utility.yul\":6165:6171   */\n  dup6\n    /* \"#utility.yul\":6158:6163   */\n  dup3\n    /* \"#utility.yul\":6105:6172   */\n  tag_61\n  jump\t// in\ntag_134:\n    /* \"#utility.yul\":6099:6103   */\n  dup7\n    /* \"#utility.yul\":6092:6173   */\n  sstore\n    /* \"#utility.yul\":5961:6183   */\n  pop\n    /* \"#utility.yul\":5296:6183   */\n  jump(tag_131)\n    /* \"#utility.yul\":5326:5944   */\ntag_132:\n    /* \"#utility.yul\":5378:5382   */\n  0x1f\n    /* \"#utility.yul\":5374:5383   */\n  not\n    /* \"#utility.yul\":5366:5372   */\n  dup5\n    /* \"#utility.yul\":5362:5384   */\n  and\n    /* \"#utility.yul\":5412:5449   */\n  tag_135\n    /* \"#utility.yul\":5444:5448   */\n  dup7\n    /* \"#utility.yul\":5412:5449   */\n  tag_47\n  jump\t// in\ntag_135:\n    /* \"#utility.yul\":5471:5472   */\n  0x00\n    /* \"#utility.yul\":5485:5693   */\ntag_136:\n    /* \"#utility.yul\":5499:5506   */\n  dup3\n    /* \"#utility.yul\":5496:5497   */\n  dup2\n    /* \"#utility.yul\":5493:5507   */\n  lt\n    /* \"#utility.yul\":5485:5693   */\n  iszero\n  tag_138\n  jumpi\n    /* \"#utility.yul\":5578:5587   */\n  dup5\n    /* \"#utility.yul\":5573:5576   */\n  dup10\n    /* \"#utility.yul\":5569:5588   */\n  add\n    /* \"#utility.yul\":5563:5589   */\n  mload\n    /* \"#utility.yul\":5555:5561   */\n  dup3\n    /* \"#utility.yul\":5548:5590   */\n  sstore\n    /* \"#utility.yul\":5629:5630   */\n  0x01\n    /* \"#utility.yul\":5621:5627   */\n  dup3\n    /* \"#utility.yul\":5617:5631   */\n  add\n    /* \"#utility.yul\":5607:5631   */\n  swap2\n  pop\n    /* \"#utility.yul\":5676:5678   */\n  0x20\n    /* \"#utility.yul\":5665:5674   */\n  dup6\n    /* \"#utility.yul\":5661:5679   */\n  add\n    /* \"#utility.yul\":5648:5679   */\n  swap5\n  pop\n    /* \"#utility.yul\":5522:5526   */\n  0x20\n    /* \"#utility.yul\":5519:5520   */\n  dup2\n    /* \"#utility.yul\":5515:5527   */\n  add\n    /* \"#utility.yul\":5510:5527   */\n  swap1\n  pop\n    /* \"#utility.yul\":5485:5693   */\n  jump(tag_136)\ntag_138:\n    /* \"#utility.yul\":5721:5727   */\n  dup7\n    /* \"#utility.yul\":5712:5719   */\n  dup4\n    /* \"#utility.yul\":5709:5728   */\n  lt\n    /* \"#utility.yul\":5706:5885   */\n  iszero\n  tag_139\n  jumpi\n    /* \"#utility.yul\":5779:5788   */\n  dup5\n    /* \"#utility.yul\":5774:5777   */\n  dup10\n    /* \"#utility.yul\":5770:5789   */\n  add\n    /* \"#utility.yul\":5764:5790   */\n  mload\n    /* \"#utility.yul\":5822:5870   */\n  tag_140\n    /* \"#utility.yul\":5864:5868   */\n  0x1f\n    /* \"#utility.yul\":5856:5862   */\n  dup10\n    /* \"#utility.yul\":5852:5869   */\n  and\n    /* \"#utility.yul\":5841:5850   */\n  dup3\n    /* \"#utility.yul\":5822:5870   */\n  tag_60\n  jump\t// in\ntag_140:\n    /* \"#utility.yul\":5814:5820   */\n  dup4\n    /* \"#utility.yul\":5807:5871   */\n  sstore\n    /* \"#utility.yul\":5729:5885   */\n  pop\n    /* \"#utility.yul\":5706:5885   */\ntag_139:\n    /* \"#utility.yul\":5931:5932   */\n  0x01\n    /* \"#utility.yul\":5927:5928   */\n  0x02\n    /* \"#utility.yul\":5919:5925   */\n  dup9\n    /* \"#utility.yul\":5915:5929   */\n  mul\n    /* \"#utility.yul\":5911:5933   */\n  add\n    /* \"#utility.yul\":5905:5909   */\n  dup9\n    /* \"#utility.yul\":5898:5934   */\n  sstore\n    /* \"#utility.yul\":5333:5944   */\n  pop\n  pop\n  pop\n    /* \"#utility.yul\":5296:6183   */\ntag_131:\n  pop\n    /* \"#utility.yul\":4886:6189   */\n  pop\n  pop\n  pop\n    /* \"#utility.yul\":4794:6189   */\n  pop\n  pop\n  jump\t// out\n    /* \"#utility.yul\":6195:6364   */\ntag_62:\n    /* \"#utility.yul\":6279:6290   */\n  0x00\n    /* \"#utility.yul\":6313:6319   */\n  dup3\n    /* \"#utility.yul\":6308:6311   */\n  dup3\n    /* \"#utility.yul\":6301:6320   */\n  mstore\n    /* \"#utility.yul\":6353:6357   */\n  0x20\n    /* \"#utility.yul\":6348:6351   */\n  dup3\n    /* \"#utility.yul\":6344:6358   */\n  add\n    /* \"#utility.yul\":6329:6358   */\n  swap1\n  pop\n    /* \"#utility.yul\":6195:6364   */\n  swap3\n  swap2\n  pop\n  pop\n  jump\t// out\n    /* \"#utility.yul\":6370:6551   */\ntag_63:\n    /* \"#utility.yul\":6510:6543   */\n  0x45524332303a206d696e7420746f20746865207a65726f206164647265737300\n    /* \"#utility.yul\":6506:6507   */\n  0x00\n    /* \"#utility.yul\":6498:6504   */\n  dup3\n    /* \"#utility.yul\":6494:6508   */\n  add\n    /* \"#utility.yul\":6487:6544   */\n  mstore\n    /* \"#utility.yul\":6370:6551   */\n  pop\n  jump\t// out\n    /* \"#utility.yul\":6557:6923   */\ntag_64:\n    /* \"#utility.yul\":6699:6702   */\n  0x00\n    /* \"#utility.yul\":6720:6787   */\n  tag_144\n    /* \"#utility.yul\":6784:6786   */\n  0x1f\n    /* \"#utility.yul\":6779:6782   */\n  dup4\n    /* \"#utility.yul\":6720:6787   */\n  tag_62\n  jump\t// in\ntag_144:\n    /* \"#utility.yul\":6713:6787   */\n  swap2\n  pop\n    /* \"#utility.yul\":6796:6889   */\n  tag_145\n    /* \"#utility.yul\":6885:6888   */\n  dup3\n    /* \"#utility.yul\":6796:6889   */\n  tag_63\n  jump\t// in\ntag_145:\n    /* \"#utility.yul\":6914:6916   */\n  0x20\n    /* \"#utility.yul\":6909:6912   */\n  dup3\n    /* \"#utility.yul\":6905:6917   */\n  add\n    /* \"#utility.yul\":6898:6917   */\n  swap1\n  pop\n    /* \"#utility.yul\":6557:6923   */\n  swap2\n  swap1\n  pop\n  jump\t// out\n    /* \"#utility.yul\":6929:7348   */\ntag_26:\n    /* \"#utility.yul\":7095:7099   */\n  0x00\n    /* \"#utility.yul\":7133:7135   */\n  0x20\n    /* \"#utility.yul\":7122:7131   */\n  dup3\n    /* \"#utility.yul\":7118:7136   */\n  add\n    /* \"#utility.yul\":7110:7136   */\n  swap1\n  pop\n    /* \"#utility.yul\":7182:7191   */\n  dup2\n    /* \"#utility.yul\":7176:7180   */\n  dup2\n    /* \"#utility.yul\":7172:7192   */\n  sub\n    /* \"#utility.yul\":7168:7169   */\n  0x00\n    /* \"#utility.yul\":7157:7166   */\n  dup4\n    /* \"#utility.yul\":7153:7170   */\n  add\n    /* \"#utility.yul\":7146:7193   */\n  mstore\n    /* \"#utility.yul\":7210:7341   */\n  tag_147\n    /* \"#utility.yul\":7336:7340   */\n  dup2\n    /* \"#utility.yul\":7210:7341   */\n  tag_64\n  jump\t// in\ntag_147:\n    /* \"#utility.yul\":7202:7341   */\n  swap1\n  pop\n    /* \"#utility.yul\":6929:7348   */\n  swap2\n  swap1\n  pop\n  jump\t// out\n    /* \"#utility.yul\":7354:7534   */\ntag_65:\n    /* \"#utility.yul\":7402:7479   */\n  0x4e487b7100000000000000000000000000000000000000000000000000000000\n    /* \"#utility.yul\":7399:7400   */\n  0x00\n    /* \"#utility.yul\":7392:7480   */\n  mstore\n    /* \"#utility.yul\":7499:7503   */\n  0x11\n    /* \"#utility.yul\":7496:7497   */\n  0x04\n    /* \"#utility.yul\":7489:7504   */\n  mstore\n    /* \"#utility.yul\":7523:7527   */\n  0x24\n    /* \"#utility.yul\":7520:7521   */\n  0x00\n    /* \"#utility.yul\":7513:7528   */\n  revert\n    /* \"#utility.yul\":7540:7731   */\ntag_30:\n    /* \"#utility.yul\":7580:7583   */\n  0x00\n    /* \"#utility.yul\":7599:7619   */\n  tag_150\n    /* \"#utility.yul\":7617:7618   */\n  dup3\n    /* \"#utility.yul\":7599:7619   */\n  tag_40\n  jump\t// in\ntag_150:\n    /* \"#utility.yul\":7594:7619   */\n  swap2\n  pop\n    /* \"#utility.yul\":7633:7653   */\n  tag_151\n    /* \"#utility.yul\":7651:7652   */\n  dup4\n    /* \"#utility.yul\":7633:7653   */\n  tag_40\n  jump\t// in\ntag_151:\n    /* \"#utility.yul\":7628:7653   */\n  swap3\n  pop\n    /* \"#utility.yul\":7676:7677   */\n  dup3\n    /* \"#utility.yul\":7673:7674   */\n  dup3\n    /* \"#utility.yul\":7669:7678   */\n  add\n    /* \"#utility.yul\":7662:7678   */\n  swap1\n  pop\n    /* \"#utility.yul\":7697:7700   */\n  dup1\n    /* \"#utility.yul\":7694:7695   */\n  dup3\n    /* \"#utility.yul\":7691:7701   */\n  gt\n    /* \"#utility.yul\":7688:7724   */\n  iszero\n  tag_152\n  jumpi\n    /* \"#utility.yul\":7704:7722   */\n  tag_153\n  tag_65\n  jump\t// in\ntag_153:\n    /* \"#utility.yul\":7688:7724   */\ntag_152:\n    /* \"#utility.yul\":7540:7731   */\n  swap3\n  swap2\n  pop\n  pop\n  jump\t// out\n    /* \"#utility.yul\":7737:7855   */\ntag_66:\n    /* \"#utility.yul\":7824:7848   */\n  tag_155\n    /* \"#utility.yul\":7842:7847   */\n  dup2\n    /* \"#utility.yul\":7824:7848   */\n  tag_40\n  jump\t// in\ntag_155:\n    /* \"#utility.yul\":7819:7822   */\n  dup3\n    /* \"#utility.yul\":7812:7849   */\n  mstore\n    /* \"#utility.yul\":7737:7855   */\n  pop\n  pop\n  jump\t// out\n    /* \"#utility.yul\":7861:8083   */\ntag_32:\n    /* \"#utility.yul\":7954:7958   */\n  0x00\n    /* \"#utility.yul\":7992:7994   */\n  0x20\n    /* \"#utility.yul\":7981:7990   */\n  dup3\n    /* \"#utility.yul\":7977:7995   */\n  add\n    /* \"#utility.yul\":7969:7995   */\n  swap1\n  pop\n    /* \"#utility.yul\":8005:8076   */\n  tag_157\n    /* \"#utility.yul\":8073:8074   */\n  0x00\n    /* \"#utility.yul\":8062:8071   */\n  dup4\n    /* \"#utility.yul\":8058:8075   */\n  add\n    /* \"#utility.yul\":8049:8055   */\n  dup5\n    /* \"#utility.yul\":8005:8076   */\n  tag_66\n  jump\t// in\ntag_157:\n    /* \"#utility.yul\":7861:8083   */\n  swap3\n  swap2\n  pop\n  pop\n  jump\t// out\n    /* \"contracts/AquoNewERC20.sol\":174:1748  contract AssetShares is ERC20, Ownable {... */\ntag_20:\n  dataSize(sub_0)\n  dup1\n  dataOffset(sub_0)\n  0x00\n  codecopy\n  0x00\n  return\nstop\n\nsub_0: assembly {\n        /* \"contracts/AquoNewERC20.sol\":174:1748  contract AssetShares is ERC20, Ownable {... */\n      mstore(0x40, 0x80)\n      callvalue\n      dup1\n      iszero\n      tag_1\n      jumpi\n      0x00\n      dup1\n      revert\n    tag_1:\n      pop\n      jumpi(tag_2, lt(calldatasize, 0x04))\n      shr(0xe0, calldataload(0x00))\n      dup1\n      0x70a08231\n      gt\n      tag_18\n      jumpi\n      dup1\n      0xa457c2d7\n      gt\n      tag_19\n      jumpi\n      dup1\n      0xa457c2d7\n      eq\n      tag_14\n      jumpi\n      dup1\n      0xa9059cbb\n      eq\n      tag_15\n      jumpi\n      dup1\n      0xdd62ed3e\n      eq\n      tag_16\n      jumpi\n      dup1\n      0xf2fde38b\n      eq\n      tag_17\n      jumpi\n      jump(tag_2)\n    tag_19:\n      dup1\n      0x70a08231\n      eq\n      tag_10\n      jumpi\n      dup1\n      0x715018a6\n      eq\n      tag_11\n      jumpi\n      dup1\n      0x8da5cb5b\n      eq\n      tag_12\n      jumpi\n      dup1\n      0x95d89b41\n      eq\n      tag_13\n      jumpi\n      jump(tag_2)\n    tag_18:\n      dup1\n      0x1d92f25e\n      gt\n      tag_20\n      jumpi\n      dup1\n      0x1d92f25e\n      eq\n      tag_6\n      jumpi\n      dup1\n      0x23b872dd\n      eq\n      tag_7\n      jumpi\n      dup1\n      0x313ce567\n      eq\n      tag_8\n      jumpi\n      dup1\n      0x39509351\n      eq\n      tag_9\n      jumpi\n      jump(tag_2)\n    tag_20:\n      dup1\n      0x06fdde03\n      eq\n      tag_3\n      jumpi\n      dup1\n      0x095ea7b3\n      eq\n      tag_4\n      jumpi\n      dup1\n      0x18160ddd\n      eq\n      tag_5\n      jumpi\n    tag_2:\n      0x00\n      dup1\n      revert\n        /* \"@openzeppelin/contracts/token/ERC20/ERC20.sol\":2154:2252  function name() public view virtual override returns (string memory) {... */\n    tag_3:\n      tag_21\n      tag_22\n      jump\t// in\n    tag_21:\n      mload(0x40)\n      tag_23\n      swap2\n      swap1\n      tag_24\n      jump\t// in\n    tag_23:\n      mload(0x40)\n      dup1\n      swap2\n      sub\n      swap1\n      return\n        /* \"@openzeppelin/contracts/token/ERC20/ERC20.sol\":4431:4628  function approve(address spender, uint256 amount) public virtual override returns (bool) {... */\n    tag_4:\n      tag_25\n      0x04\n      dup1\n      calldatasize\n      sub\n      dup2\n      add\n      swap1\n      tag_26\n      swap2\n      swap1\n      tag_27\n      jump\t// in\n    tag_26:\n      tag_28\n      jump\t// in\n    tag_25:\n      mload(0x40)\n      tag_29\n      swap2\n      swap1\n      tag_30\n      jump\t// in\n    tag_29:\n      mload(0x40)\n      dup1\n      swap2\n      sub\n      swap1\n      return\n        /* \"@openzeppelin/contracts/token/ERC20/ERC20.sol\":3242:3348  function totalSupply() public view virtual override returns (uint256) {... */\n    tag_5:\n      tag_31\n      tag_32\n      jump\t// in\n    tag_31:\n      mload(0x40)\n      tag_33\n      swap2\n      swap1\n      tag_34\n      jump\t// in\n    tag_33:\n      mload(0x40)\n      dup1\n      swap2\n      sub\n      swap1\n      return\n        /* \"contracts/AquoNewERC20.sol\":1375:1745  function getAllHolders() public view returns (address[] memory, uint256[] memory) {... */\n    tag_6:\n      tag_35\n      tag_36\n      jump\t// in\n    tag_35:\n      mload(0x40)\n      tag_37\n      swap3\n      swap2\n      swap1\n      tag_38\n      jump\t// in\n    tag_37:\n      mload(0x40)\n      dup1\n      swap2\n      sub\n      swap1\n      return\n        /* \"@openzeppelin/contracts/token/ERC20/ERC20.sol\":5190:5476  function transferFrom(... */\n    tag_7:\n      tag_39\n      0x04\n      dup1\n      calldatasize\n      sub\n      dup2\n      add\n      swap1\n      tag_40\n      swap2\n      swap1\n      tag_41\n      jump\t// in\n    tag_40:\n      tag_42\n      jump\t// in\n    tag_39:\n      mload(0x40)\n      tag_43\n      swap2\n      swap1\n      tag_30\n      jump\t// in\n    tag_43:\n      mload(0x40)\n      dup1\n      swap2\n      sub\n      swap1\n      return\n        /* \"@openzeppelin/contracts/token/ERC20/ERC20.sol\":3091:3182  function decimals() public view virtual override returns (uint8) {... */\n    tag_8:\n      tag_44\n      tag_45\n      jump\t// in\n    tag_44:\n      mload(0x40)\n      tag_46\n      swap2\n      swap1\n      tag_47\n      jump\t// in\n    tag_46:\n      mload(0x40)\n      dup1\n      swap2\n      sub\n      swap1\n      return\n        /* \"@openzeppelin/contracts/token/ERC20/ERC20.sol\":5871:6105  function increaseAllowance(address spender, uint256 addedValue) public virtual returns (bool) {... */\n    tag_9:\n      tag_48\n      0x04\n      dup1\n      calldatasize\n      sub\n      dup2\n      add\n      swap1\n      tag_49\n      swap2\n      swap1\n      tag_27\n      jump\t// in\n    tag_49:\n      tag_50\n      jump\t// in\n    tag_48:\n      mload(0x40)\n      tag_51\n      swap2\n      swap1\n      tag_30\n      jump\t// in\n    tag_51:\n      mload(0x40)\n      dup1\n      swap2\n      sub\n      swap1\n      return\n        /* \"@openzeppelin/contracts/token/ERC20/ERC20.sol\":3406:3531  function balanceOf(address account) public view virtual override returns (uint256) {... */\n    tag_10:\n      tag_52\n      0x04\n      dup1\n      calldatasize\n      sub\n      dup2\n      add\n      swap1\n      tag_53\n      swap2\n      swap1\n      tag_54\n      jump\t// in\n    tag_53:\n      tag_55\n      jump\t// in\n    tag_52:\n      mload(0x40)\n      tag_56\n      swap2\n      swap1\n      tag_34\n      jump\t// in\n    tag_56:\n      mload(0x40)\n      dup1\n      swap2\n      sub\n      swap1\n      return\n        /* \"@openzeppelin/contracts/access/Ownable.sol\":1831:1932  function renounceOwnership() public virtual onlyOwner {... */\n    tag_11:\n      tag_57\n      tag_58\n      jump\t// in\n    tag_57:\n      stop\n        /* \"@openzeppelin/contracts/access/Ownable.sol\":1201:1286  function owner() public view virtual returns (address) {... */\n    tag_12:\n      tag_59\n      tag_60\n      jump\t// in\n    tag_59:\n      mload(0x40)\n      tag_61\n      swap2\n      swap1\n      tag_62\n      jump\t// in\n    tag_61:\n      mload(0x40)\n      dup1\n      swap2\n      sub\n      swap1\n      return\n        /* \"@openzeppelin/contracts/token/ERC20/ERC20.sol\":2365:2467  function symbol() public view virtual override returns (string memory) {... */\n    tag_13:\n      tag_63\n      tag_64\n      jump\t// in\n    tag_63:\n      mload(0x40)\n      tag_65\n      swap2\n      swap1\n      tag_24\n      jump\t// in\n    tag_65:\n      mload(0x40)\n      dup1\n      swap2\n      sub\n      swap1\n      return\n        /* \"@openzeppelin/contracts/token/ERC20/ERC20.sol\":6592:7019  function decreaseAllowance(address spender, uint256 subtractedValue) public virtual returns (bool) {... */\n    tag_14:\n      tag_66\n      0x04\n      dup1\n      calldatasize\n      sub\n      dup2\n      add\n      swap1\n      tag_67\n      swap2\n      swap1\n      tag_27\n      jump\t// in\n    tag_67:\n      tag_68\n      jump\t// in\n    tag_66:\n      mload(0x40)\n      tag_69\n      swap2\n      swap1\n      tag_30\n      jump\t// in\n    tag_69:\n      mload(0x40)\n      dup1\n      swap2\n      sub\n      swap1\n      return\n        /* \"contracts/AquoNewERC20.sol\":712:946  function transfer(address recipient, uint256 amount) public override returns (bool) {... */\n    tag_15:\n      tag_70\n      0x04\n      dup1\n      calldatasize\n      sub\n      dup2\n      add\n      swap1\n      tag_71\n      swap2\n      swap1\n      tag_27\n      jump\t// in\n    tag_71:\n      tag_72\n      jump\t// in\n    tag_70:\n      mload(0x40)\n      tag_73\n      swap2\n      swap1\n      tag_30\n      jump\t// in\n    tag_73:\n      mload(0x40)\n      dup1\n      swap2\n      sub\n      swap1\n      return\n        /* \"@openzeppelin/contracts/token/ERC20/ERC20.sol\":3974:4123  function allowance(address owner, address spender) public view virtual override returns (uint256) {... */\n    tag_16:\n      tag_74\n      0x04\n      dup1\n      calldatasize\n      sub\n      dup2\n      add\n      swap1\n      tag_75\n      swap2\n      swap1\n      tag_76\n      jump\t// in\n    tag_75:\n      tag_77\n      jump\t// in\n    tag_74:\n      mload(0x40)\n      tag_78\n      swap2\n      swap1\n      tag_34\n      jump\t// in\n    tag_78:\n      mload(0x40)\n      dup1\n      swap2\n      sub\n      swap1\n      return\n        /* \"@openzeppelin/contracts/access/Ownable.sol\":2081:2279  function transferOwnership(address newOwner) public virtual onlyOwner {... */\n    tag_17:\n      tag_79\n      0x04\n      dup1\n      calldatasize\n      sub\n      dup2\n      add\n      swap1\n      tag_80\n      swap2\n      swap1\n      tag_54\n      jump\t// in\n    tag_80:\n      tag_81\n      jump\t// in\n    tag_79:\n      stop\n        /* \"@openzeppelin/contracts/token/ERC20/ERC20.sol\":2154:2252  function name() public view virtual override returns (string memory) {... */\n    tag_22:\n        /* \"@openzeppelin/contracts/token/ERC20/ERC20.sol\":2208:2221  string memory */\n      0x60\n        /* \"@openzeppelin/contracts/token/ERC20/ERC20.sol\":2240:2245  _name */\n      0x03\n        /* \"@openzeppelin/contracts/token/ERC20/ERC20.sol\":2233:2245  return _name */\n      dup1\n      sload\n      tag_83\n      swap1\n      tag_84\n      jump\t// in\n    tag_83:\n      dup1\n      0x1f\n      add\n      0x20\n      dup1\n      swap2\n      div\n      mul\n      0x20\n      add\n      mload(0x40)\n      swap1\n      dup2\n      add\n      0x40\n      mstore\n      dup1\n      swap3\n      swap2\n      swap1\n      dup2\n      dup2\n      mstore\n      0x20\n      add\n      dup3\n      dup1\n      sload\n      tag_85\n      swap1\n      tag_84\n      jump\t// in\n    tag_85:\n      dup1\n      iszero\n      tag_86\n      jumpi\n      dup1\n      0x1f\n      lt\n      tag_87\n      jumpi\n      0x0100\n      dup1\n      dup4\n      sload\n      div\n      mul\n      dup4\n      mstore\n      swap2\n      0x20\n      add\n      swap2\n      jump(tag_86)\n    tag_87:\n      dup3\n      add\n      swap2\n      swap1\n      0x00\n      mstore\n      keccak256(0x00, 0x20)\n      swap1\n    tag_88:\n      dup2\n      sload\n      dup2\n      mstore\n      swap1\n      0x01\n      add\n      swap1\n      0x20\n      add\n      dup1\n      dup4\n      gt\n      tag_88\n      jumpi\n      dup3\n      swap1\n      sub\n      0x1f\n      and\n      dup3\n      add\n      swap2\n    tag_86:\n      pop\n      pop\n      pop\n      pop\n      pop\n      swap1\n      pop\n        /* \"@openzeppelin/contracts/token/ERC20/ERC20.sol\":2154:2252  function name() public view virtual override returns (string memory) {... */\n      swap1\n      jump\t// out\n        /* \"@openzeppelin/contracts/token/ERC20/ERC20.sol\":4431:4628  function approve(address spender, uint256 amount) public virtual override returns (bool) {... */\n    tag_28:\n        /* \"@openzeppelin/contracts/token/ERC20/ERC20.sol\":4514:4518  bool */\n      0x00\n        /* \"@openzeppelin/contracts/token/ERC20/ERC20.sol\":4530:4543  address owner */\n      dup1\n        /* \"@openzeppelin/contracts/token/ERC20/ERC20.sol\":4546:4558  _msgSender() */\n      tag_90\n        /* \"@openzeppelin/contracts/token/ERC20/ERC20.sol\":4546:4556  _msgSender */\n      tag_91\n        /* \"@openzeppelin/contracts/token/ERC20/ERC20.sol\":4546:4558  _msgSender() */\n      jump\t// in\n    tag_90:\n        /* \"@openzeppelin/contracts/token/ERC20/ERC20.sol\":4530:4558  address owner = _msgSender() */\n      swap1\n      pop\n        /* \"@openzeppelin/contracts/token/ERC20/ERC20.sol\":4568:4600  _approve(owner, spender, amount) */\n      tag_92\n        /* \"@openzeppelin/contracts/token/ERC20/ERC20.sol\":4577:4582  owner */\n      dup2\n        /* \"@openzeppelin/contracts/token/ERC20/ERC20.sol\":4584:4591  spender */\n      dup6\n        /* \"@openzeppelin/contracts/token/ERC20/ERC20.sol\":4593:4599  amount */\n      dup6\n        /* \"@openzeppelin/contracts/token/ERC20/ERC20.sol\":4568:4576  _approve */\n      tag_93\n        /* \"@openzeppelin/contracts/token/ERC20/ERC20.sol\":4568:4600  _approve(owner, spender, amount) */\n      jump\t// in\n    tag_92:\n        /* \"@openzeppelin/contracts/token/ERC20/ERC20.sol\":4617:4621  true */\n      0x01\n        /* \"@openzeppelin/contracts/token/ERC20/ERC20.sol\":4610:4621  return true */\n      swap2\n      pop\n      pop\n        /* \"@openzeppelin/contracts/token/ERC20/ERC20.sol\":4431:4628  function approve(address spender, uint256 amount) public virtual override returns (bool) {... */\n      swap3\n      swap2\n      pop\n      pop\n      jump\t// out\n        /* \"@openzeppelin/contracts/token/ERC20/ERC20.sol\":3242:3348  function totalSupply() public view virtual override returns (uint256) {... */\n    tag_32:\n        /* \"@openzeppelin/contracts/token/ERC20/ERC20.sol\":3303:3310  uint256 */\n      0x00\n        /* \"@openzeppelin/contracts/token/ERC20/ERC20.sol\":3329:3341  _totalSupply */\n      sload(0x02)\n        /* \"@openzeppelin/contracts/token/ERC20/ERC20.sol\":3322:3341  return _totalSupply */\n      swap1\n      pop\n        /* \"@openzeppelin/contracts/token/ERC20/ERC20.sol\":3242:3348  function totalSupply() public view virtual override returns (uint256) {... */\n      swap1\n      jump\t// out\n        /* \"contracts/AquoNewERC20.sol\":1375:1745  function getAllHolders() public view returns (address[] memory, uint256[] memory) {... */\n    tag_36:\n        /* \"contracts/AquoNewERC20.sol\":1421:1437  address[] memory */\n      0x60\n        /* \"contracts/AquoNewERC20.sol\":1439:1455  uint256[] memory */\n      dup1\n        /* \"contracts/AquoNewERC20.sol\":1468:1499  uint256[] memory holderBalances */\n      0x00\n        /* \"contracts/AquoNewERC20.sol\":1516:1523  holders */\n      0x07\n        /* \"contracts/AquoNewERC20.sol\":1516:1530  holders.length */\n      dup1\n      sload\n      swap1\n      pop\n        /* \"contracts/AquoNewERC20.sol\":1502:1531  new uint256[](holders.length) */\n      0xffffffffffffffff\n      dup2\n      gt\n      iszero\n      tag_96\n      jumpi\n      tag_97\n      tag_98\n      jump\t// in\n    tag_97:\n    tag_96:\n      mload(0x40)\n      swap1\n      dup1\n      dup3\n      mstore\n      dup1\n      0x20\n      mul\n      0x20\n      add\n      dup3\n      add\n      0x40\n      mstore\n      dup1\n      iszero\n      tag_99\n      jumpi\n      dup2\n      0x20\n      add\n      0x20\n      dup3\n      mul\n      dup1\n      calldatasize\n      dup4\n      calldatacopy\n      dup1\n      dup3\n      add\n      swap2\n      pop\n      pop\n      swap1\n      pop\n    tag_99:\n      pop\n        /* \"contracts/AquoNewERC20.sol\":1468:1531  uint256[] memory holderBalances = new uint256[](holders.length) */\n      swap1\n      pop\n        /* \"contracts/AquoNewERC20.sol\":1547:1553  uint i */\n      0x00\n        /* \"contracts/AquoNewERC20.sol\":1542:1695  for (uint i = 0; i < holders.length; i++) {... */\n    tag_100:\n        /* \"contracts/AquoNewERC20.sol\":1563:1570  holders */\n      0x07\n        /* \"contracts/AquoNewERC20.sol\":1563:1577  holders.length */\n      dup1\n      sload\n      swap1\n      pop\n        /* \"contracts/AquoNewERC20.sol\":1559:1560  i */\n      dup2\n        /* \"contracts/AquoNewERC20.sol\":1559:1577  i < holders.length */\n      lt\n        /* \"contracts/AquoNewERC20.sol\":1542:1695  for (uint i = 0; i < holders.length; i++) {... */\n      iszero\n      tag_101\n      jumpi\n        /* \"contracts/AquoNewERC20.sol\":1619:1627  balances */\n      0x06\n        /* \"contracts/AquoNewERC20.sol\":1619:1639  balances[holders[i]] */\n      0x00\n        /* \"contracts/AquoNewERC20.sol\":1628:1635  holders */\n      0x07\n        /* \"contracts/AquoNewERC20.sol\":1636:1637  i */\n      dup4\n        /* \"contracts/AquoNewERC20.sol\":1628:1638  holders[i] */\n      dup2\n      sload\n      dup2\n      lt\n      tag_103\n      jumpi\n      tag_104\n      tag_105\n      jump\t// in\n    tag_104:\n    tag_103:\n      swap1\n      0x00\n      mstore\n      keccak256(0x00, 0x20)\n      add\n      0x00\n      swap1\n      sload\n      swap1\n      0x0100\n      exp\n      swap1\n      div\n      0xffffffffffffffffffffffffffffffffffffffff\n      and\n        /* \"contracts/AquoNewERC20.sol\":1619:1639  balances[holders[i]] */\n      0xffffffffffffffffffffffffffffffffffffffff\n      and\n      0xffffffffffffffffffffffffffffffffffffffff\n      and\n      dup2\n      mstore\n      0x20\n      add\n      swap1\n      dup2\n      mstore\n      0x20\n      add\n      0x00\n      keccak256\n      sload\n        /* \"contracts/AquoNewERC20.sol\":1599:1613  holderBalances */\n      dup3\n        /* \"contracts/AquoNewERC20.sol\":1614:1615  i */\n      dup3\n        /* \"contracts/AquoNewERC20.sol\":1599:1616  holderBalances[i] */\n      dup2\n      mload\n      dup2\n      lt\n      tag_107\n      jumpi\n      tag_108\n      tag_105\n      jump\t// in\n    tag_108:\n    tag_107:\n      0x20\n      mul\n      0x20\n      add\n      add\n        /* \"contracts/AquoNewERC20.sol\":1599:1639  holderBalances[i] = balances[holders[i]] */\n      dup2\n      dup2\n      mstore\n      pop\n      pop\n        /* \"contracts/AquoNewERC20.sol\":1579:1582  i++ */\n      dup1\n      dup1\n      tag_109\n      swap1\n      tag_110\n      jump\t// in\n    tag_109:\n      swap2\n      pop\n      pop\n        /* \"contracts/AquoNewERC20.sol\":1542:1695  for (uint i = 0; i < holders.length; i++) {... */\n      jump(tag_100)\n    tag_101:\n      pop\n        /* \"contracts/AquoNewERC20.sol\":1713:1720  holders */\n      0x07\n        /* \"contracts/AquoNewERC20.sol\":1722:1736  holderBalances */\n      dup2\n        /* \"contracts/AquoNewERC20.sol\":1705:1737  return (holders, holderBalances) */\n      dup2\n      dup1\n      sload\n      dup1\n      0x20\n      mul\n      0x20\n      add\n      mload(0x40)\n      swap1\n      dup2\n      add\n      0x40\n      mstore\n      dup1\n      swap3\n      swap2\n      swap1\n      dup2\n      dup2\n      mstore\n      0x20\n      add\n      dup3\n      dup1\n      sload\n      dup1\n      iszero\n      tag_111\n      jumpi\n      0x20\n      mul\n      dup3\n      add\n      swap2\n      swap1\n      0x00\n      mstore\n      keccak256(0x00, 0x20)\n      swap1\n    tag_112:\n      dup2\n      0x00\n      swap1\n      sload\n      swap1\n      0x0100\n      exp\n      swap1\n      div\n      0xffffffffffffffffffffffffffffffffffffffff\n      and\n      0xffffffffffffffffffffffffffffffffffffffff\n      and\n      dup2\n      mstore\n      0x20\n      add\n      swap1\n      0x01\n      add\n      swap1\n      dup1\n      dup4\n      gt\n      tag_112\n      jumpi\n    tag_111:\n      pop\n      pop\n      pop\n      pop\n      pop\n      swap2\n      pop\n      swap3\n      pop\n      swap3\n      pop\n      pop\n        /* \"contracts/AquoNewERC20.sol\":1375:1745  function getAllHolders() public view returns (address[] memory, uint256[] memory) {... */\n      swap1\n      swap2\n      jump\t// out\n        /* \"@openzeppelin/contracts/token/ERC20/ERC20.sol\":5190:5476  function transferFrom(... */\n    tag_42:\n        /* \"@openzeppelin/contracts/token/ERC20/ERC20.sol\":5317:5321  bool */\n      0x00\n        /* \"@openzeppelin/contracts/token/ERC20/ERC20.sol\":5333:5348  address spender */\n      dup1\n        /* \"@openzeppelin/contracts/token/ERC20/ERC20.sol\":5351:5363  _msgSender() */\n      tag_114\n        /* \"@openzeppelin/contracts/token/ERC20/ERC20.sol\":5351:5361  _msgSender */\n      tag_91\n        /* \"@openzeppelin/contracts/token/ERC20/ERC20.sol\":5351:5363  _msgSender() */\n      jump\t// in\n    tag_114:\n        /* \"@openzeppelin/contracts/token/ERC20/ERC20.sol\":5333:5363  address spender = _msgSender() */\n      swap1\n      pop\n        /* \"@openzeppelin/contracts/token/ERC20/ERC20.sol\":5373:5411  _spendAllowance(from, spender, amount) */\n      tag_115\n        /* \"@openzeppelin/contracts/token/ERC20/ERC20.sol\":5389:5393  from */\n      dup6\n        /* \"@openzeppelin/contracts/token/ERC20/ERC20.sol\":5395:5402  spender */\n      dup3\n        /* \"@openzeppelin/contracts/token/ERC20/ERC20.sol\":5404:5410  amount */\n      dup6\n        /* \"@openzeppelin/contracts/token/ERC20/ERC20.sol\":5373:5388  _spendAllowance */\n      tag_116\n        /* \"@openzeppelin/contracts/token/ERC20/ERC20.sol\":5373:5411  _spendAllowance(from, spender, amount) */\n      jump\t// in\n    tag_115:\n        /* \"@openzeppelin/contracts/token/ERC20/ERC20.sol\":5421:5448  _transfer(from, to, amount) */\n      tag_117\n        /* \"@openzeppelin/contracts/token/ERC20/ERC20.sol\":5431:5435  from */\n      dup6\n        /* \"@openzeppelin/contracts/token/ERC20/ERC20.sol\":5437:5439  to */\n      dup6\n        /* \"@openzeppelin/contracts/token/ERC20/ERC20.sol\":5441:5447  amount */\n      dup6\n        /* \"@openzeppelin/contracts/token/ERC20/ERC20.sol\":5421:5430  _transfer */\n      tag_118\n        /* \"@openzeppelin/contracts/token/ERC20/ERC20.sol\":5421:5448  _transfer(from, to, amount) */\n      jump\t// in\n    tag_117:\n        /* \"@openzeppelin/contracts/token/ERC20/ERC20.sol\":5465:5469  true */\n      0x01\n        /* \"@openzeppelin/contracts/token/ERC20/ERC20.sol\":5458:5469  return true */\n      swap2\n      pop\n      pop\n        /* \"@openzeppelin/contracts/token/ERC20/ERC20.sol\":5190:5476  function transferFrom(... */\n      swap4\n      swap3\n      pop\n      pop\n      pop\n      jump\t// out\n        /* \"@openzeppelin/contracts/token/ERC20/ERC20.sol\":3091:3182  function decimals() public view virtual override returns (uint8) {... */\n    tag_45:\n        /* \"@openzeppelin/contracts/token/ERC20/ERC20.sol\":3149:3154  uint8 */\n      0x00\n        /* \"@openzeppelin/contracts/token/ERC20/ERC20.sol\":3173:3175  18 */\n      0x12\n        /* \"@openzeppelin/contracts/token/ERC20/ERC20.sol\":3166:3175  return 18 */\n      swap1\n      pop\n        /* \"@openzeppelin/contracts/token/ERC20/ERC20.sol\":3091:3182  function decimals() public view virtual override returns (uint8) {... */\n      swap1\n      jump\t// out\n        /* \"@openzeppelin/contracts/token/ERC20/ERC20.sol\":5871:6105  function increaseAllowance(address spender, uint256 addedValue) public virtual returns (bool) {... */\n    tag_50:\n        /* \"@openzeppelin/contracts/token/ERC20/ERC20.sol\":5959:5963  bool */\n      0x00\n        /* \"@openzeppelin/contracts/token/ERC20/ERC20.sol\":5975:5988  address owner */\n      dup1\n        /* \"@openzeppelin/contracts/token/ERC20/ERC20.sol\":5991:6003  _msgSender() */\n      tag_121\n        /* \"@openzeppelin/contracts/token/ERC20/ERC20.sol\":5991:6001  _msgSender */\n      tag_91\n        /* \"@openzeppelin/contracts/token/ERC20/ERC20.sol\":5991:6003  _msgSender() */\n      jump\t// in\n    tag_121:\n        /* \"@openzeppelin/contracts/token/ERC20/ERC20.sol\":5975:6003  address owner = _msgSender() */\n      swap1\n      pop\n        /* \"@openzeppelin/contracts/token/ERC20/ERC20.sol\":6013:6077  _approve(owner, spender, allowance(owner, spender) + addedValue) */\n      tag_122\n        /* \"@openzeppelin/contracts/token/ERC20/ERC20.sol\":6022:6027  owner */\n      dup2\n        /* \"@openzeppelin/contracts/token/ERC20/ERC20.sol\":6029:6036  spender */\n      dup6\n        /* \"@openzeppelin/contracts/token/ERC20/ERC20.sol\":6066:6076  addedValue */\n      dup6\n        /* \"@openzeppelin/contracts/token/ERC20/ERC20.sol\":6038:6063  allowance(owner, spender) */\n      tag_123\n        /* \"@openzeppelin/contracts/token/ERC20/ERC20.sol\":6048:6053  owner */\n      dup6\n        /* \"@openzeppelin/contracts/token/ERC20/ERC20.sol\":6055:6062  spender */\n      dup10\n        /* \"@openzeppelin/contracts/token/ERC20/ERC20.sol\":6038:6047  allowance */\n      tag_77\n        /* \"@openzeppelin/contracts/token/ERC20/ERC20.sol\":6038:6063  allowance(owner, spender) */\n      jump\t// in\n    tag_123:\n        /* \"@openzeppelin/contracts/token/ERC20/ERC20.sol\":6038:6076  allowance(owner, spender) + addedValue */\n      tag_124\n      swap2\n      swap1\n      tag_125\n      jump\t// in\n    tag_124:\n        /* \"@openzeppelin/contracts/token/ERC20/ERC20.sol\":6013:6021  _approve */\n      tag_93\n        /* \"@openzeppelin/contracts/token/ERC20/ERC20.sol\":6013:6077  _approve(owner, spender, allowance(owner, spender) + addedValue) */\n      jump\t// in\n    tag_122:\n        /* \"@openzeppelin/contracts/token/ERC20/ERC20.sol\":6094:6098  true */\n      0x01\n        /* \"@openzeppelin/contracts/token/ERC20/ERC20.sol\":6087:6098  return true */\n      swap2\n      pop\n      pop\n        /* \"@openzeppelin/contracts/token/ERC20/ERC20.sol\":5871:6105  function increaseAllowance(address spender, uint256 addedValue) public virtual returns (bool) {... */\n      swap3\n      swap2\n      pop\n      pop\n      jump\t// out\n        /* \"@openzeppelin/contracts/token/ERC20/ERC20.sol\":3406:3531  function balanceOf(address account) public view virtual override returns (uint256) {... */\n    tag_55:\n        /* \"@openzeppelin/contracts/token/ERC20/ERC20.sol\":3480:3487  uint256 */\n      0x00\n        /* \"@openzeppelin/contracts/token/ERC20/ERC20.sol\":3506:3515  _balances */\n      dup1\n        /* \"@openzeppelin/contracts/token/ERC20/ERC20.sol\":3506:3524  _balances[account] */\n      0x00\n        /* \"@openzeppelin/contracts/token/ERC20/ERC20.sol\":3516:3523  account */\n      dup4\n        /* \"@openzeppelin/contracts/token/ERC20/ERC20.sol\":3506:3524  _balances[account] */\n      0xffffffffffffffffffffffffffffffffffffffff\n      and\n      0xffffffffffffffffffffffffffffffffffffffff\n      and\n      dup2\n      mstore\n      0x20\n      add\n      swap1\n      dup2\n      mstore\n      0x20\n      add\n      0x00\n      keccak256\n      sload\n        /* \"@openzeppelin/contracts/token/ERC20/ERC20.sol\":3499:3524  return _balances[account] */\n      swap1\n      pop\n        /* \"@openzeppelin/contracts/token/ERC20/ERC20.sol\":3406:3531  function balanceOf(address account) public view virtual override returns (uint256) {... */\n      swap2\n      swap1\n      pop\n      jump\t// out\n        /* \"@openzeppelin/contracts/access/Ownable.sol\":1831:1932  function renounceOwnership() public virtual onlyOwner {... */\n    tag_58:\n        /* \"@openzeppelin/contracts/access/Ownable.sol\":1094:1107  _checkOwner() */\n      tag_128\n        /* \"@openzeppelin/contracts/access/Ownable.sol\":1094:1105  _checkOwner */\n      tag_129\n        /* \"@openzeppelin/contracts/access/Ownable.sol\":1094:1107  _checkOwner() */\n      jump\t// in\n    tag_128:\n        /* \"@openzeppelin/contracts/access/Ownable.sol\":1895:1925  _transferOwnership(address(0)) */\n      tag_131\n        /* \"@openzeppelin/contracts/access/Ownable.sol\":1922:1923  0 */\n      0x00\n        /* \"@openzeppelin/contracts/access/Ownable.sol\":1895:1913  _transferOwnership */\n      tag_132\n        /* \"@openzeppelin/contracts/access/Ownable.sol\":1895:1925  _transferOwnership(address(0)) */\n      jump\t// in\n    tag_131:\n        /* \"@openzeppelin/contracts/access/Ownable.sol\":1831:1932  function renounceOwnership() public virtual onlyOwner {... */\n      jump\t// out\n        /* \"@openzeppelin/contracts/access/Ownable.sol\":1201:1286  function owner() public view virtual returns (address) {... */\n    tag_60:\n        /* \"@openzeppelin/contracts/access/Ownable.sol\":1247:1254  address */\n      0x00\n        /* \"@openzeppelin/contracts/access/Ownable.sol\":1273:1279  _owner */\n      0x05\n      0x00\n      swap1\n      sload\n      swap1\n      0x0100\n      exp\n      swap1\n      div\n      0xffffffffffffffffffffffffffffffffffffffff\n      and\n        /* \"@openzeppelin/contracts/access/Ownable.sol\":1266:1279  return _owner */\n      swap1\n      pop\n        /* \"@openzeppelin/contracts/access/Ownable.sol\":1201:1286  function owner() public view virtual returns (address) {... */\n      swap1\n      jump\t// out\n        /* \"@openzeppelin/contracts/token/ERC20/ERC20.sol\":2365:2467  function symbol() public view virtual override returns (string memory) {... */\n    tag_64:\n        /* \"@openzeppelin/contracts/token/ERC20/ERC20.sol\":2421:2434  string memory */\n      0x60\n        /* \"@openzeppelin/contracts/token/ERC20/ERC20.sol\":2453:2460  _symbol */\n      0x04\n        /* \"@openzeppelin/contracts/token/ERC20/ERC20.sol\":2446:2460  return _symbol */\n      dup1\n      sload\n      tag_135\n      swap1\n      tag_84\n      jump\t// in\n    tag_135:\n      dup1\n      0x1f\n      add\n      0x20\n      dup1\n      swap2\n      div\n      mul\n      0x20\n      add\n      mload(0x40)\n      swap1\n      dup2\n      add\n      0x40\n      mstore\n      dup1\n      swap3\n      swap2\n      swap1\n      dup2\n      dup2\n      mstore\n      0x20\n      add\n      dup3\n      dup1\n      sload\n      tag_136\n      swap1\n      tag_84\n      jump\t// in\n    tag_136:\n      dup1\n      iszero\n      tag_137\n      jumpi\n      dup1\n      0x1f\n      lt\n      tag_138\n      jumpi\n      0x0100\n      dup1\n      dup4\n      sload\n      div\n      mul\n      dup4\n      mstore\n      swap2\n      0x20\n      add\n      swap2\n      jump(tag_137)\n    tag_138:\n      dup3\n      add\n      swap2\n      swap1\n      0x00\n      mstore\n      keccak256(0x00, 0x20)\n      swap1\n    tag_139:\n      dup2\n      sload\n      dup2\n      mstore\n      swap1\n      0x01\n      add\n      swap1\n      0x20\n      add\n      dup1\n      dup4\n      gt\n      tag_139\n      jumpi\n      dup3\n      swap1\n      sub\n      0x1f\n      and\n      dup3\n      add\n      swap2\n    tag_137:\n      pop\n      pop\n      pop\n      pop\n      pop\n      swap1\n      pop\n        /* \"@openzeppelin/contracts/token/ERC20/ERC20.sol\":2365:2467  function symbol() public view virtual override returns (string memory) {... */\n      swap1\n      jump\t// out\n        /* \"@openzeppelin/contracts/token/ERC20/ERC20.sol\":6592:7019  function decreaseAllowance(address spender, uint256 subtractedValue) public virtual returns (bool) {... */\n    tag_68:\n        /* \"@openzeppelin/contracts/token/ERC20/ERC20.sol\":6685:6689  bool */\n      0x00\n        /* \"@openzeppelin/contracts/token/ERC20/ERC20.sol\":6701:6714  address owner */\n      dup1\n        /* \"@openzeppelin/contracts/token/ERC20/ERC20.sol\":6717:6729  _msgSender() */\n      tag_141\n        /* \"@openzeppelin/contracts/token/ERC20/ERC20.sol\":6717:6727  _msgSender */\n      tag_91\n        /* \"@openzeppelin/contracts/token/ERC20/ERC20.sol\":6717:6729  _msgSender() */\n      jump\t// in\n    tag_141:\n        /* \"@openzeppelin/contracts/token/ERC20/ERC20.sol\":6701:6729  address owner = _msgSender() */\n      swap1\n      pop\n        /* \"@openzeppelin/contracts/token/ERC20/ERC20.sol\":6739:6763  uint256 currentAllowance */\n      0x00\n        /* \"@openzeppelin/contracts/token/ERC20/ERC20.sol\":6766:6791  allowance(owner, spender) */\n      tag_142\n        /* \"@openzeppelin/contracts/token/ERC20/ERC20.sol\":6776:6781  owner */\n      dup3\n        /* \"@openzeppelin/contracts/token/ERC20/ERC20.sol\":6783:6790  spender */\n      dup7\n        /* \"@openzeppelin/contracts/token/ERC20/ERC20.sol\":6766:6775  allowance */\n      tag_77\n        /* \"@openzeppelin/contracts/token/ERC20/ERC20.sol\":6766:6791  allowance(owner, spender) */\n      jump\t// in\n    tag_142:\n        /* \"@openzeppelin/contracts/token/ERC20/ERC20.sol\":6739:6791  uint256 currentAllowance = allowance(owner, spender) */\n      swap1\n      pop\n        /* \"@openzeppelin/contracts/token/ERC20/ERC20.sol\":6829:6844  subtractedValue */\n      dup4\n        /* \"@openzeppelin/contracts/token/ERC20/ERC20.sol\":6809:6825  currentAllowance */\n      dup2\n        /* \"@openzeppelin/contracts/token/ERC20/ERC20.sol\":6809:6844  currentAllowance >= subtractedValue */\n      lt\n      iszero\n        /* \"@openzeppelin/contracts/token/ERC20/ERC20.sol\":6801:6886  require(currentAllowance >= subtractedValue, \"ERC20: decreased allowance below zero\") */\n      tag_143\n      jumpi\n      mload(0x40)\n      0x08c379a000000000000000000000000000000000000000000000000000000000\n      dup2\n      mstore\n      0x04\n      add\n      tag_144\n      swap1\n      tag_145\n      jump\t// in\n    tag_144:\n      mload(0x40)\n      dup1\n      swap2\n      sub\n      swap1\n      revert\n    tag_143:\n        /* \"@openzeppelin/contracts/token/ERC20/ERC20.sol\":6920:6980  _approve(owner, spender, currentAllowance - subtractedValue) */\n      tag_146\n        /* \"@openzeppelin/contracts/token/ERC20/ERC20.sol\":6929:6934  owner */\n      dup3\n        /* \"@openzeppelin/contracts/token/ERC20/ERC20.sol\":6936:6943  spender */\n      dup7\n        /* \"@openzeppelin/contracts/token/ERC20/ERC20.sol\":6964:6979  subtractedValue */\n      dup7\n        /* \"@openzeppelin/contracts/token/ERC20/ERC20.sol\":6945:6961  currentAllowance */\n      dup5\n        /* \"@openzeppelin/contracts/token/ERC20/ERC20.sol\":6945:6979  currentAllowance - subtractedValue */\n      sub\n        /* \"@openzeppelin/contracts/token/ERC20/ERC20.sol\":6920:6928  _approve */\n      tag_93\n        /* \"@openzeppelin/contracts/token/ERC20/ERC20.sol\":6920:6980  _approve(owner, spender, currentAllowance - subtractedValue) */\n      jump\t// in\n    tag_146:\n        /* \"@openzeppelin/contracts/token/ERC20/ERC20.sol\":7008:7012  true */\n      0x01\n        /* \"@openzeppelin/contracts/token/ERC20/ERC20.sol\":7001:7012  return true */\n      swap3\n      pop\n      pop\n      pop\n        /* \"@openzeppelin/contracts/token/ERC20/ERC20.sol\":6592:7019  function decreaseAllowance(address spender, uint256 subtractedValue) public virtual returns (bool) {... */\n      swap3\n      swap2\n      pop\n      pop\n      jump\t// out\n        /* \"contracts/AquoNewERC20.sol\":712:946  function transfer(address recipient, uint256 amount) public override returns (bool) {... */\n    tag_72:\n        /* \"contracts/AquoNewERC20.sol\":790:794  bool */\n      0x00\n        /* \"contracts/AquoNewERC20.sol\":807:852  _updateHolders(msg.sender, recipient, amount) */\n      tag_148\n        /* \"contracts/AquoNewERC20.sol\":822:832  msg.sender */\n      caller\n        /* \"contracts/AquoNewERC20.sol\":834:843  recipient */\n      dup5\n        /* \"contracts/AquoNewERC20.sol\":845:851  amount */\n      dup5\n        /* \"contracts/AquoNewERC20.sol\":807:821  _updateHolders */\n      tag_149\n        /* \"contracts/AquoNewERC20.sol\":807:852  _updateHolders(msg.sender, recipient, amount) */\n      jump\t// in\n    tag_148:\n        /* \"contracts/AquoNewERC20.sol\":905:938  super.transfer(recipient, amount) */\n      tag_150\n        /* \"contracts/AquoNewERC20.sol\":920:929  recipient */\n      dup4\n        /* \"contracts/AquoNewERC20.sol\":931:937  amount */\n      dup4\n        /* \"contracts/AquoNewERC20.sol\":905:919  super.transfer */\n      tag_151\n        /* \"contracts/AquoNewERC20.sol\":905:938  super.transfer(recipient, amount) */\n      jump\t// in\n    tag_150:\n        /* \"contracts/AquoNewERC20.sol\":898:938  return super.transfer(recipient, amount) */\n      swap1\n      pop\n        /* \"contracts/AquoNewERC20.sol\":712:946  function transfer(address recipient, uint256 amount) public override returns (bool) {... */\n      swap3\n      swap2\n      pop\n      pop\n      jump\t// out\n        /* \"@openzeppelin/contracts/token/ERC20/ERC20.sol\":3974:4123  function allowance(address owner, address spender) public view virtual override returns (uint256) {... */\n    tag_77:\n        /* \"@openzeppelin/contracts/token/ERC20/ERC20.sol\":4063:4070  uint256 */\n      0x00\n        /* \"@openzeppelin/contracts/token/ERC20/ERC20.sol\":4089:4100  _allowances */\n      0x01\n        /* \"@openzeppelin/contracts/token/ERC20/ERC20.sol\":4089:4107  _allowances[owner] */\n      0x00\n        /* \"@openzeppelin/contracts/token/ERC20/ERC20.sol\":4101:4106  owner */\n      dup5\n        /* \"@openzeppelin/contracts/token/ERC20/ERC20.sol\":4089:4107  _allowances[owner] */\n      0xffffffffffffffffffffffffffffffffffffffff\n      and\n      0xffffffffffffffffffffffffffffffffffffffff\n      and\n      dup2\n      mstore\n      0x20\n      add\n      swap1\n      dup2\n      mstore\n      0x20\n      add\n      0x00\n      keccak256\n        /* \"@openzeppelin/contracts/token/ERC20/ERC20.sol\":4089:4116  _allowances[owner][spender] */\n      0x00\n        /* \"@openzeppelin/contracts/token/ERC20/ERC20.sol\":4108:4115  spender */\n      dup4\n        /* \"@openzeppelin/contracts/token/ERC20/ERC20.sol\":4089:4116  _allowances[owner][spender] */\n      0xffffffffffffffffffffffffffffffffffffffff\n      and\n      0xffffffffffffffffffffffffffffffffffffffff\n      and\n      dup2\n      mstore\n      0x20\n      add\n      swap1\n      dup2\n      mstore\n      0x20\n      add\n      0x00\n      keccak256\n      sload\n        /* \"@openzeppelin/contracts/token/ERC20/ERC20.sol\":4082:4116  return _allowances[owner][spender] */\n      swap1\n      pop\n        /* \"@openzeppelin/contracts/token/ERC20/ERC20.sol\":3974:4123  function allowance(address owner, address spender) public view virtual override returns (uint256) {... */\n      swap3\n      swap2\n      pop\n      pop\n      jump\t// out\n        /* \"@openzeppelin/contracts/access/Ownable.sol\":2081:2279  function transferOwnership(address newOwner) public virtual onlyOwner {... */\n    tag_81:\n        /* \"@openzeppelin/contracts/access/Ownable.sol\":1094:1107  _checkOwner() */\n      tag_154\n        /* \"@openzeppelin/contracts/access/Ownable.sol\":1094:1105  _checkOwner */\n      tag_129\n        /* \"@openzeppelin/contracts/access/Ownable.sol\":1094:1107  _checkOwner() */\n      jump\t// in\n    tag_154:\n        /* \"@openzeppelin/contracts/access/Ownable.sol\":2189:2190  0 */\n      0x00\n        /* \"@openzeppelin/contracts/access/Ownable.sol\":2169:2191  newOwner != address(0) */\n      0xffffffffffffffffffffffffffffffffffffffff\n      and\n        /* \"@openzeppelin/contracts/access/Ownable.sol\":2169:2177  newOwner */\n      dup2\n        /* \"@openzeppelin/contracts/access/Ownable.sol\":2169:2191  newOwner != address(0) */\n      0xffffffffffffffffffffffffffffffffffffffff\n      and\n      sub\n        /* \"@openzeppelin/contracts/access/Ownable.sol\":2161:2234  require(newOwner != address(0), \"Ownable: new owner is the zero address\") */\n      tag_156\n      jumpi\n      mload(0x40)\n      0x08c379a000000000000000000000000000000000000000000000000000000000\n      dup2\n      mstore\n      0x04\n      add\n      tag_157\n      swap1\n      tag_158\n      jump\t// in\n    tag_157:\n      mload(0x40)\n      dup1\n      swap2\n      sub\n      swap1\n      revert\n    tag_156:\n        /* \"@openzeppelin/contracts/access/Ownable.sol\":2244:2272  _transferOwnership(newOwner) */\n      tag_159\n        /* \"@openzeppelin/contracts/access/Ownable.sol\":2263:2271  newOwner */\n      dup2\n        /* \"@openzeppelin/contracts/access/Ownable.sol\":2244:2262  _transferOwnership */\n      tag_132\n        /* \"@openzeppelin/contracts/access/Ownable.sol\":2244:2272  _transferOwnership(newOwner) */\n      jump\t// in\n    tag_159:\n        /* \"@openzeppelin/contracts/access/Ownable.sol\":2081:2279  function transferOwnership(address newOwner) public virtual onlyOwner {... */\n      pop\n      jump\t// out\n        /* \"@openzeppelin/contracts/utils/Context.sol\":640:736  function _msgSender() internal view virtual returns (address) {... */\n    tag_91:\n        /* \"@openzeppelin/contracts/utils/Context.sol\":693:700  address */\n      0x00\n        /* \"@openzeppelin/contracts/utils/Context.sol\":719:729  msg.sender */\n      caller\n        /* \"@openzeppelin/contracts/utils/Context.sol\":712:729  return msg.sender */\n      swap1\n      pop\n        /* \"@openzeppelin/contracts/utils/Context.sol\":640:736  function _msgSender() internal view virtual returns (address) {... */\n      swap1\n      jump\t// out\n        /* \"@openzeppelin/contracts/token/ERC20/ERC20.sol\":10504:10874  function _approve(... */\n    tag_93:\n        /* \"@openzeppelin/contracts/token/ERC20/ERC20.sol\":10652:10653  0 */\n      0x00\n        /* \"@openzeppelin/contracts/token/ERC20/ERC20.sol\":10635:10654  owner != address(0) */\n      0xffffffffffffffffffffffffffffffffffffffff\n      and\n        /* \"@openzeppelin/contracts/token/ERC20/ERC20.sol\":10635:10640  owner */\n      dup4\n        /* \"@openzeppelin/contracts/token/ERC20/ERC20.sol\":10635:10654  owner != address(0) */\n      0xffffffffffffffffffffffffffffffffffffffff\n      and\n      sub\n        /* \"@openzeppelin/contracts/token/ERC20/ERC20.sol\":10627:10695  require(owner != address(0), \"ERC20: approve from the zero address\") */\n      tag_162\n      jumpi\n      mload(0x40)\n      0x08c379a000000000000000000000000000000000000000000000000000000000\n      dup2\n      mstore\n      0x04\n      add\n      tag_163\n      swap1\n      tag_164\n      jump\t// in\n    tag_163:\n      mload(0x40)\n      dup1\n      swap2\n      sub\n      swap1\n      revert\n    tag_162:\n        /* \"@openzeppelin/contracts/token/ERC20/ERC20.sol\":10732:10733  0 */\n      0x00\n        /* \"@openzeppelin/contracts/token/ERC20/ERC20.sol\":10713:10734  spender != address(0) */\n      0xffffffffffffffffffffffffffffffffffffffff\n      and\n        /* \"@openzeppelin/contracts/token/ERC20/ERC20.sol\":10713:10720  spender */\n      dup3\n        /* \"@openzeppelin/contracts/token/ERC20/ERC20.sol\":10713:10734  spender != address(0) */\n      0xffffffffffffffffffffffffffffffffffffffff\n      and\n      sub\n        /* \"@openzeppelin/contracts/token/ERC20/ERC20.sol\":10705:10773  require(spender != address(0), \"ERC20: approve to the zero address\") */\n      tag_165\n      jumpi\n      mload(0x40)\n      0x08c379a000000000000000000000000000000000000000000000000000000000\n      dup2\n      mstore\n      0x04\n      add\n      tag_166\n      swap1\n      tag_167\n      jump\t// in\n    tag_166:\n      mload(0x40)\n      dup1\n      swap2\n      sub\n      swap1\n      revert\n    tag_165:\n        /* \"@openzeppelin/contracts/token/ERC20/ERC20.sol\":10814:10820  amount */\n      dup1\n        /* \"@openzeppelin/contracts/token/ERC20/ERC20.sol\":10784:10795  _allowances */\n      0x01\n        /* \"@openzeppelin/contracts/token/ERC20/ERC20.sol\":10784:10802  _allowances[owner] */\n      0x00\n        /* \"@openzeppelin/contracts/token/ERC20/ERC20.sol\":10796:10801  owner */\n      dup6\n        /* \"@openzeppelin/contracts/token/ERC20/ERC20.sol\":10784:10802  _allowances[owner] */\n      0xffffffffffffffffffffffffffffffffffffffff\n      and\n      0xffffffffffffffffffffffffffffffffffffffff\n      and\n      dup2\n      mstore\n      0x20\n      add\n      swap1\n      dup2\n      mstore\n      0x20\n      add\n      0x00\n      keccak256\n        /* \"@openzeppelin/contracts/token/ERC20/ERC20.sol\":10784:10811  _allowances[owner][spender] */\n      0x00\n        /* \"@openzeppelin/contracts/token/ERC20/ERC20.sol\":10803:10810  spender */\n      dup5\n        /* \"@openzeppelin/contracts/token/ERC20/ERC20.sol\":10784:10811  _allowances[owner][spender] */\n      0xffffffffffffffffffffffffffffffffffffffff\n      and\n      0xffffffffffffffffffffffffffffffffffffffff\n      and\n      dup2\n      mstore\n      0x20\n      add\n      swap1\n      dup2\n      mstore\n      0x20\n      add\n      0x00\n      keccak256\n        /* \"@openzeppelin/contracts/token/ERC20/ERC20.sol\":10784:10820  _allowances[owner][spender] = amount */\n      dup2\n      swap1\n      sstore\n      pop\n        /* \"@openzeppelin/contracts/token/ERC20/ERC20.sol\":10851:10858  spender */\n      dup2\n        /* \"@openzeppelin/contracts/token/ERC20/ERC20.sol\":10835:10867  Approval(owner, spender, amount) */\n      0xffffffffffffffffffffffffffffffffffffffff\n      and\n        /* \"@openzeppelin/contracts/token/ERC20/ERC20.sol\":10844:10849  owner */\n      dup4\n        /* \"@openzeppelin/contracts/token/ERC20/ERC20.sol\":10835:10867  Approval(owner, spender, amount) */\n      0xffffffffffffffffffffffffffffffffffffffff\n      and\n      0x8c5be1e5ebec7d5bd14f71427d1e84f3dd0314c0f7b2291e5b200ac8c7c3b925\n        /* \"@openzeppelin/contracts/token/ERC20/ERC20.sol\":10860:10866  amount */\n      dup4\n        /* \"@openzeppelin/contracts/token/ERC20/ERC20.sol\":10835:10867  Approval(owner, spender, amount) */\n      mload(0x40)\n      tag_168\n      swap2\n      swap1\n      tag_34\n      jump\t// in\n    tag_168:\n      mload(0x40)\n      dup1\n      swap2\n      sub\n      swap1\n      log3\n        /* \"@openzeppelin/contracts/token/ERC20/ERC20.sol\":10504:10874  function _approve(... */\n      pop\n      pop\n      pop\n      jump\t// out\n        /* \"@openzeppelin/contracts/token/ERC20/ERC20.sol\":11155:11596  function _spendAllowance(... */\n    tag_116:\n        /* \"@openzeppelin/contracts/token/ERC20/ERC20.sol\":11285:11309  uint256 currentAllowance */\n      0x00\n        /* \"@openzeppelin/contracts/token/ERC20/ERC20.sol\":11312:11337  allowance(owner, spender) */\n      tag_170\n        /* \"@openzeppelin/contracts/token/ERC20/ERC20.sol\":11322:11327  owner */\n      dup5\n        /* \"@openzeppelin/contracts/token/ERC20/ERC20.sol\":11329:11336  spender */\n      dup5\n        /* \"@openzeppelin/contracts/token/ERC20/ERC20.sol\":11312:11321  allowance */\n      tag_77\n        /* \"@openzeppelin/contracts/token/ERC20/ERC20.sol\":11312:11337  allowance(owner, spender) */\n      jump\t// in\n    tag_170:\n        /* \"@openzeppelin/contracts/token/ERC20/ERC20.sol\":11285:11337  uint256 currentAllowance = allowance(owner, spender) */\n      swap1\n      pop\n        /* \"@openzeppelin/contracts/token/ERC20/ERC20.sol\":11371:11388  type(uint256).max */\n      0xffffffffffffffffffffffffffffffffffffffffffffffffffffffffffffffff\n        /* \"@openzeppelin/contracts/token/ERC20/ERC20.sol\":11351:11367  currentAllowance */\n      dup2\n        /* \"@openzeppelin/contracts/token/ERC20/ERC20.sol\":11351:11388  currentAllowance != type(uint256).max */\n      eq\n        /* \"@openzeppelin/contracts/token/ERC20/ERC20.sol\":11347:11590  if (currentAllowance != type(uint256).max) {... */\n      tag_171\n      jumpi\n        /* \"@openzeppelin/contracts/token/ERC20/ERC20.sol\":11432:11438  amount */\n      dup2\n        /* \"@openzeppelin/contracts/token/ERC20/ERC20.sol\":11412:11428  currentAllowance */\n      dup2\n        /* \"@openzeppelin/contracts/token/ERC20/ERC20.sol\":11412:11438  currentAllowance >= amount */\n      lt\n      iszero\n        /* \"@openzeppelin/contracts/token/ERC20/ERC20.sol\":11404:11472  require(currentAllowance >= amount, \"ERC20: insufficient allowance\") */\n      tag_172\n      jumpi\n      mload(0x40)\n      0x08c379a000000000000000000000000000000000000000000000000000000000\n      dup2\n      mstore\n      0x04\n      add\n      tag_173\n      swap1\n      tag_174\n      jump\t// in\n    tag_173:\n      mload(0x40)\n      dup1\n      swap2\n      sub\n      swap1\n      revert\n    tag_172:\n        /* \"@openzeppelin/contracts/token/ERC20/ERC20.sol\":11514:11565  _approve(owner, spender, currentAllowance - amount) */\n      tag_175\n        /* \"@openzeppelin/contracts/token/ERC20/ERC20.sol\":11523:11528  owner */\n      dup5\n        /* \"@openzeppelin/contracts/token/ERC20/ERC20.sol\":11530:11537  spender */\n      dup5\n        /* \"@openzeppelin/contracts/token/ERC20/ERC20.sol\":11558:11564  amount */\n      dup5\n        /* \"@openzeppelin/contracts/token/ERC20/ERC20.sol\":11539:11555  currentAllowance */\n      dup5\n        /* \"@openzeppelin/contracts/token/ERC20/ERC20.sol\":11539:11564  currentAllowance - amount */\n      sub\n        /* \"@openzeppelin/contracts/token/ERC20/ERC20.sol\":11514:11522  _approve */\n      tag_93\n        /* \"@openzeppelin/contracts/token/ERC20/ERC20.sol\":11514:11565  _approve(owner, spender, currentAllowance - amount) */\n      jump\t// in\n    tag_175:\n        /* \"@openzeppelin/contracts/token/ERC20/ERC20.sol\":11347:11590  if (currentAllowance != type(uint256).max) {... */\n    tag_171:\n        /* \"@openzeppelin/contracts/token/ERC20/ERC20.sol\":11275:11596  {... */\n      pop\n        /* \"@openzeppelin/contracts/token/ERC20/ERC20.sol\":11155:11596  function _spendAllowance(... */\n      pop\n      pop\n      pop\n      jump\t// out\n        /* \"@openzeppelin/contracts/token/ERC20/ERC20.sol\":7473:8291  function _transfer(... */\n    tag_118:\n        /* \"@openzeppelin/contracts/token/ERC20/ERC20.sol\":7615:7616  0 */\n      0x00\n        /* \"@openzeppelin/contracts/token/ERC20/ERC20.sol\":7599:7617  from != address(0) */\n      0xffffffffffffffffffffffffffffffffffffffff\n      and\n        /* \"@openzeppelin/contracts/token/ERC20/ERC20.sol\":7599:7603  from */\n      dup4\n        /* \"@openzeppelin/contracts/token/ERC20/ERC20.sol\":7599:7617  from != address(0) */\n      0xffffffffffffffffffffffffffffffffffffffff\n      and\n      sub\n        /* \"@openzeppelin/contracts/token/ERC20/ERC20.sol\":7591:7659  require(from != address(0), \"ERC20: transfer from the zero address\") */\n      tag_177\n      jumpi\n      mload(0x40)\n      0x08c379a000000000000000000000000000000000000000000000000000000000\n      dup2\n      mstore\n      0x04\n      add\n      tag_178\n      swap1\n      tag_179\n      jump\t// in\n    tag_178:\n      mload(0x40)\n      dup1\n      swap2\n      sub\n      swap1\n      revert\n    tag_177:\n        /* \"@openzeppelin/contracts/token/ERC20/ERC20.sol\":7691:7692  0 */\n      0x00\n        /* \"@openzeppelin/contracts/token/ERC20/ERC20.sol\":7677:7693  to != address(0) */\n      0xffffffffffffffffffffffffffffffffffffffff\n      and\n        /* \"@openzeppelin/contracts/token/ERC20/ERC20.sol\":7677:7679  to */\n      dup3\n        /* \"@openzeppelin/contracts/token/ERC20/ERC20.sol\":7677:7693  to != address(0) */\n      0xffffffffffffffffffffffffffffffffffffffff\n      and\n      sub\n        /* \"@openzeppelin/contracts/token/ERC20/ERC20.sol\":7669:7733  require(to != address(0), \"ERC20: transfer to the zero address\") */\n      tag_180\n      jumpi\n      mload(0x40)\n      0x08c379a000000000000000000000000000000000000000000000000000000000\n      dup2\n      mstore\n      0x04\n      add\n      tag_181\n      swap1\n      tag_182\n      jump\t// in\n    tag_181:\n      mload(0x40)\n      dup1\n      swap2\n      sub\n      swap1\n      revert\n    tag_180:\n        /* \"@openzeppelin/contracts/token/ERC20/ERC20.sol\":7744:7782  _beforeTokenTransfer(from, to, amount) */\n      tag_183\n        /* \"@openzeppelin/contracts/token/ERC20/ERC20.sol\":7765:7769  from */\n      dup4\n        /* \"@openzeppelin/contracts/token/ERC20/ERC20.sol\":7771:7773  to */\n      dup4\n        /* \"@openzeppelin/contracts/token/ERC20/ERC20.sol\":7775:7781  amount */\n      dup4\n        /* \"@openzeppelin/contracts/token/ERC20/ERC20.sol\":7744:7764  _beforeTokenTransfer */\n      tag_184\n        /* \"@openzeppelin/contracts/token/ERC20/ERC20.sol\":7744:7782  _beforeTokenTransfer(from, to, amount) */\n      jump\t// in\n    tag_183:\n        /* \"@openzeppelin/contracts/token/ERC20/ERC20.sol\":7793:7812  uint256 fromBalance */\n      0x00\n        /* \"@openzeppelin/contracts/token/ERC20/ERC20.sol\":7815:7824  _balances */\n      dup1\n        /* \"@openzeppelin/contracts/token/ERC20/ERC20.sol\":7815:7830  _balances[from] */\n      0x00\n        /* \"@openzeppelin/contracts/token/ERC20/ERC20.sol\":7825:7829  from */\n      dup6\n        /* \"@openzeppelin/contracts/token/ERC20/ERC20.sol\":7815:7830  _balances[from] */\n      0xffffffffffffffffffffffffffffffffffffffff\n      and\n      0xffffffffffffffffffffffffffffffffffffffff\n      and\n      dup2\n      mstore\n      0x20\n      add\n      swap1\n      dup2\n      mstore\n      0x20\n      add\n      0x00\n      keccak256\n      sload\n        /* \"@openzeppelin/contracts/token/ERC20/ERC20.sol\":7793:7830  uint256 fromBalance = _balances[from] */\n      swap1\n      pop\n        /* \"@openzeppelin/contracts/token/ERC20/ERC20.sol\":7863:7869  amount */\n      dup2\n        /* \"@openzeppelin/contracts/token/ERC20/ERC20.sol\":7848:7859  fromBalance */\n      dup2\n        /* \"@openzeppelin/contracts/token/ERC20/ERC20.sol\":7848:7869  fromBalance >= amount */\n      lt\n      iszero\n        /* \"@openzeppelin/contracts/token/ERC20/ERC20.sol\":7840:7912  require(fromBalance >= amount, \"ERC20: transfer amount exceeds balance\") */\n      tag_185\n      jumpi\n      mload(0x40)\n      0x08c379a000000000000000000000000000000000000000000000000000000000\n      dup2\n      mstore\n      0x04\n      add\n      tag_186\n      swap1\n      tag_187\n      jump\t// in\n    tag_186:\n      mload(0x40)\n      dup1\n      swap2\n      sub\n      swap1\n      revert\n    tag_185:\n        /* \"@openzeppelin/contracts/token/ERC20/ERC20.sol\":7978:7984  amount */\n      dup2\n        /* \"@openzeppelin/contracts/token/ERC20/ERC20.sol\":7964:7975  fromBalance */\n      dup2\n        /* \"@openzeppelin/contracts/token/ERC20/ERC20.sol\":7964:7984  fromBalance - amount */\n      sub\n        /* \"@openzeppelin/contracts/token/ERC20/ERC20.sol\":7946:7955  _balances */\n      0x00\n        /* \"@openzeppelin/contracts/token/ERC20/ERC20.sol\":7946:7961  _balances[from] */\n      dup1\n        /* \"@openzeppelin/contracts/token/ERC20/ERC20.sol\":7956:7960  from */\n      dup7\n        /* \"@openzeppelin/contracts/token/ERC20/ERC20.sol\":7946:7961  _balances[from] */\n      0xffffffffffffffffffffffffffffffffffffffff\n      and\n      0xffffffffffffffffffffffffffffffffffffffff\n      and\n      dup2\n      mstore\n      0x20\n      add\n      swap1\n      dup2\n      mstore\n      0x20\n      add\n      0x00\n      keccak256\n        /* \"@openzeppelin/contracts/token/ERC20/ERC20.sol\":7946:7984  _balances[from] = fromBalance - amount */\n      dup2\n      swap1\n      sstore\n      pop\n        /* \"@openzeppelin/contracts/token/ERC20/ERC20.sol\":8178:8184  amount */\n      dup2\n        /* \"@openzeppelin/contracts/token/ERC20/ERC20.sol\":8161:8170  _balances */\n      0x00\n        /* \"@openzeppelin/contracts/token/ERC20/ERC20.sol\":8161:8174  _balances[to] */\n      dup1\n        /* \"@openzeppelin/contracts/token/ERC20/ERC20.sol\":8171:8173  to */\n      dup6\n        /* \"@openzeppelin/contracts/token/ERC20/ERC20.sol\":8161:8174  _balances[to] */\n      0xffffffffffffffffffffffffffffffffffffffff\n      and\n      0xffffffffffffffffffffffffffffffffffffffff\n      and\n      dup2\n      mstore\n      0x20\n      add\n      swap1\n      dup2\n      mstore\n      0x20\n      add\n      0x00\n      keccak256\n      0x00\n        /* \"@openzeppelin/contracts/token/ERC20/ERC20.sol\":8161:8184  _balances[to] += amount */\n      dup3\n      dup3\n      sload\n      add\n      swap3\n      pop\n      pop\n      dup2\n      swap1\n      sstore\n      pop\n        /* \"@openzeppelin/contracts/token/ERC20/ERC20.sol\":8225:8227  to */\n      dup3\n        /* \"@openzeppelin/contracts/token/ERC20/ERC20.sol\":8210:8236  Transfer(from, to, amount) */\n      0xffffffffffffffffffffffffffffffffffffffff\n      and\n        /* \"@openzeppelin/contracts/token/ERC20/ERC20.sol\":8219:8223  from */\n      dup5\n        /* \"@openzeppelin/contracts/token/ERC20/ERC20.sol\":8210:8236  Transfer(from, to, amount) */\n      0xffffffffffffffffffffffffffffffffffffffff\n      and\n      0xddf252ad1be2c89b69c2b068fc378daa952ba7f163c4a11628f55a4df523b3ef\n        /* \"@openzeppelin/contracts/token/ERC20/ERC20.sol\":8229:8235  amount */\n      dup5\n        /* \"@openzeppelin/contracts/token/ERC20/ERC20.sol\":8210:8236  Transfer(from, to, amount) */\n      mload(0x40)\n      tag_188\n      swap2\n      swap1\n      tag_34\n      jump\t// in\n    tag_188:\n      mload(0x40)\n      dup1\n      swap2\n      sub\n      swap1\n      log3\n        /* \"@openzeppelin/contracts/token/ERC20/ERC20.sol\":8247:8284  _afterTokenTransfer(from, to, amount) */\n      tag_189\n        /* \"@openzeppelin/contracts/token/ERC20/ERC20.sol\":8267:8271  from */\n      dup5\n        /* \"@openzeppelin/contracts/token/ERC20/ERC20.sol\":8273:8275  to */\n      dup5\n        /* \"@openzeppelin/contracts/token/ERC20/ERC20.sol\":8277:8283  amount */\n      dup5\n        /* \"@openzeppelin/contracts/token/ERC20/ERC20.sol\":8247:8266  _afterTokenTransfer */\n      tag_190\n        /* \"@openzeppelin/contracts/token/ERC20/ERC20.sol\":8247:8284  _afterTokenTransfer(from, to, amount) */\n      jump\t// in\n    tag_189:\n        /* \"@openzeppelin/contracts/token/ERC20/ERC20.sol\":7581:8291  {... */\n      pop\n        /* \"@openzeppelin/contracts/token/ERC20/ERC20.sol\":7473:8291  function _transfer(... */\n      pop\n      pop\n      pop\n      jump\t// out\n        /* \"@openzeppelin/contracts/access/Ownable.sol\":1359:1489  function _checkOwner() internal view virtual {... */\n    tag_129:\n        /* \"@openzeppelin/contracts/access/Ownable.sol\":1433:1445  _msgSender() */\n      tag_192\n        /* \"@openzeppelin/contracts/access/Ownable.sol\":1433:1443  _msgSender */\n      tag_91\n        /* \"@openzeppelin/contracts/access/Ownable.sol\":1433:1445  _msgSender() */\n      jump\t// in\n    tag_192:\n        /* \"@openzeppelin/contracts/access/Ownable.sol\":1422:1445  owner() == _msgSender() */\n      0xffffffffffffffffffffffffffffffffffffffff\n      and\n        /* \"@openzeppelin/contracts/access/Ownable.sol\":1422:1429  owner() */\n      tag_193\n        /* \"@openzeppelin/contracts/access/Ownable.sol\":1422:1427  owner */\n      tag_60\n        /* \"@openzeppelin/contracts/access/Ownable.sol\":1422:1429  owner() */\n      jump\t// in\n    tag_193:\n        /* \"@openzeppelin/contracts/access/Ownable.sol\":1422:1445  owner() == _msgSender() */\n      0xffffffffffffffffffffffffffffffffffffffff\n      and\n      eq\n        /* \"@openzeppelin/contracts/access/Ownable.sol\":1414:1482  require(owner() == _msgSender(), \"Ownable: caller is not the owner\") */\n      tag_194\n      jumpi\n      mload(0x40)\n      0x08c379a000000000000000000000000000000000000000000000000000000000\n      dup2\n      mstore\n      0x04\n      add\n      tag_195\n      swap1\n      tag_196\n      jump\t// in\n    tag_195:\n      mload(0x40)\n      dup1\n      swap2\n      sub\n      swap1\n      revert\n    tag_194:\n        /* \"@openzeppelin/contracts/access/Ownable.sol\":1359:1489  function _checkOwner() internal view virtual {... */\n      jump\t// out\n        /* \"@openzeppelin/contracts/access/Ownable.sol\":2433:2620  function _transferOwnership(address newOwner) internal virtual {... */\n    tag_132:\n        /* \"@openzeppelin/contracts/access/Ownable.sol\":2506:2522  address oldOwner */\n      0x00\n        /* \"@openzeppelin/contracts/access/Ownable.sol\":2525:2531  _owner */\n      0x05\n      0x00\n      swap1\n      sload\n      swap1\n      0x0100\n      exp\n      swap1\n      div\n      0xffffffffffffffffffffffffffffffffffffffff\n      and\n        /* \"@openzeppelin/contracts/access/Ownable.sol\":2506:2531  address oldOwner = _owner */\n      swap1\n      pop\n        /* \"@openzeppelin/contracts/access/Ownable.sol\":2550:2558  newOwner */\n      dup2\n        /* \"@openzeppelin/contracts/access/Ownable.sol\":2541:2547  _owner */\n      0x05\n      0x00\n        /* \"@openzeppelin/contracts/access/Ownable.sol\":2541:2558  _owner = newOwner */\n      0x0100\n      exp\n      dup2\n      sload\n      dup2\n      0xffffffffffffffffffffffffffffffffffffffff\n      mul\n      not\n      and\n      swap1\n      dup4\n      0xffffffffffffffffffffffffffffffffffffffff\n      and\n      mul\n      or\n      swap1\n      sstore\n      pop\n        /* \"@openzeppelin/contracts/access/Ownable.sol\":2604:2612  newOwner */\n      dup2\n        /* \"@openzeppelin/contracts/access/Ownable.sol\":2573:2613  OwnershipTransferred(oldOwner, newOwner) */\n      0xffffffffffffffffffffffffffffffffffffffff\n      and\n        /* \"@openzeppelin/contracts/access/Ownable.sol\":2594:2602  oldOwner */\n      dup2\n        /* \"@openzeppelin/contracts/access/Ownable.sol\":2573:2613  OwnershipTransferred(oldOwner, newOwner) */\n      0xffffffffffffffffffffffffffffffffffffffff\n      and\n      0x8be0079c531659141344cd1fd0a4f28419497f9722a3daafe3b4186f6b6457e0\n      mload(0x40)\n      mload(0x40)\n      dup1\n      swap2\n      sub\n      swap1\n      log3\n        /* \"@openzeppelin/contracts/access/Ownable.sol\":2496:2620  {... */\n      pop\n        /* \"@openzeppelin/contracts/access/Ownable.sol\":2433:2620  function _transferOwnership(address newOwner) internal virtual {... */\n      pop\n      jump\t// out\n        /* \"contracts/AquoNewERC20.sol\":964:1363  function _updateHolders(address sender, address recipient, uint256 amount) internal {... */\n    tag_149:\n        /* \"contracts/AquoNewERC20.sol\":1086:1087  0 */\n      0x00\n        /* \"contracts/AquoNewERC20.sol\":1063:1071  balances */\n      0x06\n        /* \"contracts/AquoNewERC20.sol\":1063:1082  balances[recipient] */\n      0x00\n        /* \"contracts/AquoNewERC20.sol\":1072:1081  recipient */\n      dup5\n        /* \"contracts/AquoNewERC20.sol\":1063:1082  balances[recipient] */\n      0xffffffffffffffffffffffffffffffffffffffff\n      and\n      0xffffffffffffffffffffffffffffffffffffffff\n      and\n      dup2\n      mstore\n      0x20\n      add\n      swap1\n      dup2\n      mstore\n      0x20\n      add\n      0x00\n      keccak256\n      sload\n        /* \"contracts/AquoNewERC20.sol\":1063:1087  balances[recipient] == 0 */\n      sub\n        /* \"contracts/AquoNewERC20.sol\":1059:1198  if (balances[recipient] == 0) {... */\n      tag_199\n      jumpi\n        /* \"contracts/AquoNewERC20.sol\":1104:1111  holders */\n      0x07\n        /* \"contracts/AquoNewERC20.sol\":1117:1126  recipient */\n      dup3\n        /* \"contracts/AquoNewERC20.sol\":1104:1127  holders.push(recipient) */\n      swap1\n      dup1\n      0x01\n      dup2\n      sload\n      add\n      dup1\n      dup3\n      sstore\n      dup1\n      swap2\n      pop\n      pop\n      0x01\n      swap1\n      sub\n      swap1\n      0x00\n      mstore\n      keccak256(0x00, 0x20)\n      add\n      0x00\n      swap1\n      swap2\n      swap1\n      swap2\n      swap1\n      swap2\n      0x0100\n      exp\n      dup2\n      sload\n      dup2\n      0xffffffffffffffffffffffffffffffffffffffff\n      mul\n      not\n      and\n      swap1\n      dup4\n      0xffffffffffffffffffffffffffffffffffffffff\n      and\n      mul\n      or\n      swap1\n      sstore\n      pop\n        /* \"contracts/AquoNewERC20.sol\":1059:1198  if (balances[recipient] == 0) {... */\n    tag_199:\n        /* \"contracts/AquoNewERC20.sol\":1228:1234  amount */\n      dup1\n        /* \"contracts/AquoNewERC20.sol\":1208:1216  balances */\n      0x06\n        /* \"contracts/AquoNewERC20.sol\":1208:1224  balances[sender] */\n      0x00\n        /* \"contracts/AquoNewERC20.sol\":1217:1223  sender */\n      dup6\n        /* \"contracts/AquoNewERC20.sol\":1208:1224  balances[sender] */\n      0xffffffffffffffffffffffffffffffffffffffff\n      and\n      0xffffffffffffffffffffffffffffffffffffffff\n      and\n      dup2\n      mstore\n      0x20\n      add\n      swap1\n      dup2\n      mstore\n      0x20\n      add\n      0x00\n      keccak256\n      0x00\n        /* \"contracts/AquoNewERC20.sol\":1208:1234  balances[sender] -= amount */\n      dup3\n      dup3\n      sload\n      tag_201\n      swap2\n      swap1\n      tag_202\n      jump\t// in\n    tag_201:\n      swap3\n      pop\n      pop\n      dup2\n      swap1\n      sstore\n      pop\n        /* \"contracts/AquoNewERC20.sol\":1307:1313  amount */\n      dup1\n        /* \"contracts/AquoNewERC20.sol\":1284:1292  balances */\n      0x06\n        /* \"contracts/AquoNewERC20.sol\":1284:1303  balances[recipient] */\n      0x00\n        /* \"contracts/AquoNewERC20.sol\":1293:1302  recipient */\n      dup5\n        /* \"contracts/AquoNewERC20.sol\":1284:1303  balances[recipient] */\n      0xffffffffffffffffffffffffffffffffffffffff\n      and\n      0xffffffffffffffffffffffffffffffffffffffff\n      and\n      dup2\n      mstore\n      0x20\n      add\n      swap1\n      dup2\n      mstore\n      0x20\n      add\n      0x00\n      keccak256\n      0x00\n        /* \"contracts/AquoNewERC20.sol\":1284:1313  balances[recipient] += amount */\n      dup3\n      dup3\n      sload\n      tag_203\n      swap2\n      swap1\n      tag_125\n      jump\t// in\n    tag_203:\n      swap3\n      pop\n      pop\n      dup2\n      swap1\n      sstore\n      pop\n        /* \"contracts/AquoNewERC20.sol\":964:1363  function _updateHolders(address sender, address recipient, uint256 amount) internal {... */\n      pop\n      pop\n      pop\n      jump\t// out\n        /* \"@openzeppelin/contracts/token/ERC20/ERC20.sol\":3727:3916  function transfer(address to, uint256 amount) public virtual override returns (bool) {... */\n    tag_151:\n        /* \"@openzeppelin/contracts/token/ERC20/ERC20.sol\":3806:3810  bool */\n      0x00\n        /* \"@openzeppelin/contracts/token/ERC20/ERC20.sol\":3822:3835  address owner */\n      dup1\n        /* \"@openzeppelin/contracts/token/ERC20/ERC20.sol\":3838:3850  _msgSender() */\n      tag_205\n        /* \"@openzeppelin/contracts/token/ERC20/ERC20.sol\":3838:3848  _msgSender */\n      tag_91\n        /* \"@openzeppelin/contracts/token/ERC20/ERC20.sol\":3838:3850  _msgSender() */\n      jump\t// in\n    tag_205:\n        /* \"@openzeppelin/contracts/token/ERC20/ERC20.sol\":3822:3850  address owner = _msgSender() */\n      swap1\n      pop\n        /* \"@openzeppelin/contracts/token/ERC20/ERC20.sol\":3860:3888  _transfer(owner, to, amount) */\n      tag_206\n        /* \"@openzeppelin/contracts/token/ERC20/ERC20.sol\":3870:3875  owner */\n      dup2\n        /* \"@openzeppelin/contracts/token/ERC20/ERC20.sol\":3877:3879  to */\n      dup6\n        /* \"@openzeppelin/contracts/token/ERC20/ERC20.sol\":3881:3887  amount */\n      dup6\n        /* \"@openzeppelin/contracts/token/ERC20/ERC20.sol\":3860:3869  _transfer */\n      tag_118\n        /* \"@openzeppelin/contracts/token/ERC20/ERC20.sol\":3860:3888  _transfer(owner, to, amount) */\n      jump\t// in\n    tag_206:\n        /* \"@openzeppelin/contracts/token/ERC20/ERC20.sol\":3905:3909  true */\n      0x01\n        /* \"@openzeppelin/contracts/token/ERC20/ERC20.sol\":3898:3909  return true */\n      swap2\n      pop\n      pop\n        /* \"@openzeppelin/contracts/token/ERC20/ERC20.sol\":3727:3916  function transfer(address to, uint256 amount) public virtual override returns (bool) {... */\n      swap3\n      swap2\n      pop\n      pop\n      jump\t// out\n        /* \"@openzeppelin/contracts/token/ERC20/ERC20.sol\":12180:12301  function _beforeTokenTransfer(... */\n    tag_184:\n      pop\n      pop\n      pop\n      jump\t// out\n        /* \"@openzeppelin/contracts/token/ERC20/ERC20.sol\":12889:13009  function _afterTokenTransfer(... */\n    tag_190:\n      pop\n      pop\n      pop\n      jump\t// out\n        /* \"#utility.yul\":7:106   */\n    tag_209:\n        /* \"#utility.yul\":59:65   */\n      0x00\n        /* \"#utility.yul\":93:98   */\n      dup2\n        /* \"#utility.yul\":87:99   */\n      mload\n        /* \"#utility.yul\":77:99   */\n      swap1\n      pop\n        /* \"#utility.yul\":7:106   */\n      swap2\n      swap1\n      pop\n      jump\t// out\n        /* \"#utility.yul\":112:281   */\n    tag_210:\n        /* \"#utility.yul\":196:207   */\n      0x00\n        /* \"#utility.yul\":230:236   */\n      dup3\n        /* \"#utility.yul\":225:228   */\n      dup3\n        /* \"#utility.yul\":218:237   */\n      mstore\n        /* \"#utility.yul\":270:274   */\n      0x20\n        /* \"#utility.yul\":265:268   */\n      dup3\n        /* \"#utility.yul\":261:275   */\n      add\n        /* \"#utility.yul\":246:275   */\n      swap1\n      pop\n        /* \"#utility.yul\":112:281   */\n      swap3\n      swap2\n      pop\n      pop\n      jump\t// out\n        /* \"#utility.yul\":287:533   */\n    tag_211:\n        /* \"#utility.yul\":368:369   */\n      0x00\n        /* \"#utility.yul\":378:491   */\n    tag_268:\n        /* \"#utility.yul\":392:398   */\n      dup4\n        /* \"#utility.yul\":389:390   */\n      dup2\n        /* \"#utility.yul\":386:399   */\n      lt\n        /* \"#utility.yul\":378:491   */\n      iszero\n      tag_270\n      jumpi\n        /* \"#utility.yul\":477:478   */\n      dup1\n        /* \"#utility.yul\":472:475   */\n      dup3\n        /* \"#utility.yul\":468:479   */\n      add\n        /* \"#utility.yul\":462:480   */\n      mload\n        /* \"#utility.yul\":458:459   */\n      dup2\n        /* \"#utility.yul\":453:456   */\n      dup5\n        /* \"#utility.yul\":449:460   */\n      add\n        /* \"#utility.yul\":442:481   */\n      mstore\n        /* \"#utility.yul\":414:416   */\n      0x20\n        /* \"#utility.yul\":411:412   */\n      dup2\n        /* \"#utility.yul\":407:417   */\n      add\n        /* \"#utility.yul\":402:417   */\n      swap1\n      pop\n        /* \"#utility.yul\":378:491   */\n      jump(tag_268)\n    tag_270:\n        /* \"#utility.yul\":525:526   */\n      0x00\n        /* \"#utility.yul\":516:522   */\n      dup5\n        /* \"#utility.yul\":511:514   */\n      dup5\n        /* \"#utility.yul\":507:523   */\n      add\n        /* \"#utility.yul\":500:527   */\n      mstore\n        /* \"#utility.yul\":349:533   */\n      pop\n        /* \"#utility.yul\":287:533   */\n      pop\n      pop\n      pop\n      jump\t// out\n        /* \"#utility.yul\":539:641   */\n    tag_212:\n        /* \"#utility.yul\":580:586   */\n      0x00\n        /* \"#utility.yul\":631:633   */\n      0x1f\n        /* \"#utility.yul\":627:634   */\n      not\n        /* \"#utility.yul\":622:624   */\n      0x1f\n        /* \"#utility.yul\":615:620   */\n      dup4\n        /* \"#utility.yul\":611:625   */\n      add\n        /* \"#utility.yul\":607:635   */\n      and\n        /* \"#utility.yul\":597:635   */\n      swap1\n      pop\n        /* \"#utility.yul\":539:641   */\n      swap2\n      swap1\n      pop\n      jump\t// out\n        /* \"#utility.yul\":647:1024   */\n    tag_213:\n        /* \"#utility.yul\":735:738   */\n      0x00\n        /* \"#utility.yul\":763:802   */\n      tag_273\n        /* \"#utility.yul\":796:801   */\n      dup3\n        /* \"#utility.yul\":763:802   */\n      tag_209\n      jump\t// in\n    tag_273:\n        /* \"#utility.yul\":818:889   */\n      tag_274\n        /* \"#utility.yul\":882:888   */\n      dup2\n        /* \"#utility.yul\":877:880   */\n      dup6\n        /* \"#utility.yul\":818:889   */\n      tag_210\n      jump\t// in\n    tag_274:\n        /* \"#utility.yul\":811:889   */\n      swap4\n      pop\n        /* \"#utility.yul\":898:963   */\n      tag_275\n        /* \"#utility.yul\":956:962   */\n      dup2\n        /* \"#utility.yul\":951:954   */\n      dup6\n        /* \"#utility.yul\":944:948   */\n      0x20\n        /* \"#utility.yul\":937:942   */\n      dup7\n        /* \"#utility.yul\":933:949   */\n      add\n        /* \"#utility.yul\":898:963   */\n      tag_211\n      jump\t// in\n    tag_275:\n        /* \"#utility.yul\":988:1017   */\n      tag_276\n        /* \"#utility.yul\":1010:1016   */\n      dup2\n        /* \"#utility.yul\":988:1017   */\n      tag_212\n      jump\t// in\n    tag_276:\n        /* \"#utility.yul\":983:986   */\n      dup5\n        /* \"#utility.yul\":979:1018   */\n      add\n        /* \"#utility.yul\":972:1018   */\n      swap2\n      pop\n        /* \"#utility.yul\":739:1024   */\n      pop\n        /* \"#utility.yul\":647:1024   */\n      swap3\n      swap2\n      pop\n      pop\n      jump\t// out\n        /* \"#utility.yul\":1030:1343   */\n    tag_24:\n        /* \"#utility.yul\":1143:1147   */\n      0x00\n        /* \"#utility.yul\":1181:1183   */\n      0x20\n        /* \"#utility.yul\":1170:1179   */\n      dup3\n        /* \"#utility.yul\":1166:1184   */\n      add\n        /* \"#utility.yul\":1158:1184   */\n      swap1\n      pop\n        /* \"#utility.yul\":1230:1239   */\n      dup2\n        /* \"#utility.yul\":1224:1228   */\n      dup2\n        /* \"#utility.yul\":1220:1240   */\n      sub\n        /* \"#utility.yul\":1216:1217   */\n      0x00\n        /* \"#utility.yul\":1205:1214   */\n      dup4\n        /* \"#utility.yul\":1201:1218   */\n      add\n        /* \"#utility.yul\":1194:1241   */\n      mstore\n        /* \"#utility.yul\":1258:1336   */\n      tag_278\n        /* \"#utility.yul\":1331:1335   */\n      dup2\n        /* \"#utility.yul\":1322:1328   */\n      dup5\n        /* \"#utility.yul\":1258:1336   */\n      tag_213\n      jump\t// in\n    tag_278:\n        /* \"#utility.yul\":1250:1336   */\n      swap1\n      pop\n        /* \"#utility.yul\":1030:1343   */\n      swap3\n      swap2\n      pop\n      pop\n      jump\t// out\n        /* \"#utility.yul\":1430:1547   */\n    tag_215:\n        /* \"#utility.yul\":1539:1540   */\n      0x00\n        /* \"#utility.yul\":1536:1537   */\n      dup1\n        /* \"#utility.yul\":1529:1541   */\n      revert\n        /* \"#utility.yul\":1676:1802   */\n    tag_217:\n        /* \"#utility.yul\":1713:1720   */\n      0x00\n        /* \"#utility.yul\":1753:1795   */\n      0xffffffffffffffffffffffffffffffffffffffff\n        /* \"#utility.yul\":1746:1751   */\n      dup3\n        /* \"#utility.yul\":1742:1796   */\n      and\n        /* \"#utility.yul\":1731:1796   */\n      swap1\n      pop\n        /* \"#utility.yul\":1676:1802   */\n      swap2\n      swap1\n      pop\n      jump\t// out\n        /* \"#utility.yul\":1808:1904   */\n    tag_218:\n        /* \"#utility.yul\":1845:1852   */\n      0x00\n        /* \"#utility.yul\":1874:1898   */\n      tag_284\n        /* \"#utility.yul\":1892:1897   */\n      dup3\n        /* \"#utility.yul\":1874:1898   */\n      tag_217\n      jump\t// in\n    tag_284:\n        /* \"#utility.yul\":1863:1898   */\n      swap1\n      pop\n        /* \"#utility.yul\":1808:1904   */\n      swap2\n      swap1\n      pop\n      jump\t// out\n        /* \"#utility.yul\":1910:2032   */\n    tag_219:\n        /* \"#utility.yul\":1983:2007   */\n      tag_286\n        /* \"#utility.yul\":2001:2006   */\n      dup2\n        /* \"#utility.yul\":1983:2007   */\n      tag_218\n      jump\t// in\n    tag_286:\n        /* \"#utility.yul\":1976:1981   */\n      dup2\n        /* \"#utility.yul\":1973:2008   */\n      eq\n        /* \"#utility.yul\":1963:2026   */\n      tag_287\n      jumpi\n        /* \"#utility.yul\":2022:2023   */\n      0x00\n        /* \"#utility.yul\":2019:2020   */\n      dup1\n        /* \"#utility.yul\":2012:2024   */\n      revert\n        /* \"#utility.yul\":1963:2026   */\n    tag_287:\n        /* \"#utility.yul\":1910:2032   */\n      pop\n      jump\t// out\n        /* \"#utility.yul\":2038:2177   */\n    tag_220:\n        /* \"#utility.yul\":2084:2089   */\n      0x00\n        /* \"#utility.yul\":2122:2128   */\n      dup2\n        /* \"#utility.yul\":2109:2129   */\n      calldataload\n        /* \"#utility.yul\":2100:2129   */\n      swap1\n      pop\n        /* \"#utility.yul\":2138:2171   */\n      tag_289\n        /* \"#utility.yul\":2165:2170   */\n      dup2\n        /* \"#utility.yul\":2138:2171   */\n      tag_219\n      jump\t// in\n    tag_289:\n        /* \"#utility.yul\":2038:2177   */\n      swap3\n      swap2\n      pop\n      pop\n      jump\t// out\n        /* \"#utility.yul\":2183:2260   */\n    tag_221:\n        /* \"#utility.yul\":2220:2227   */\n      0x00\n        /* \"#utility.yul\":2249:2254   */\n      dup2\n        /* \"#utility.yul\":2238:2254   */\n      swap1\n      pop\n        /* \"#utility.yul\":2183:2260   */\n      swap2\n      swap1\n      pop\n      jump\t// out\n        /* \"#utility.yul\":2266:2388   */\n    tag_222:\n        /* \"#utility.yul\":2339:2363   */\n      tag_292\n        /* \"#utility.yul\":2357:2362   */\n      dup2\n        /* \"#utility.yul\":2339:2363   */\n      tag_221\n      jump\t// in\n    tag_292:\n        /* \"#utility.yul\":2332:2337   */\n      dup2\n        /* \"#utility.yul\":2329:2364   */\n      eq\n        /* \"#utility.yul\":2319:2382   */\n      tag_293\n      jumpi\n        /* \"#utility.yul\":2378:2379   */\n      0x00\n        /* \"#utility.yul\":2375:2376   */\n      dup1\n        /* \"#utility.yul\":2368:2380   */\n      revert\n        /* \"#utility.yul\":2319:2382   */\n    tag_293:\n        /* \"#utility.yul\":2266:2388   */\n      pop\n      jump\t// out\n        /* \"#utility.yul\":2394:2533   */\n    tag_223:\n        /* \"#utility.yul\":2440:2445   */\n      0x00\n        /* \"#utility.yul\":2478:2484   */\n      dup2\n        /* \"#utility.yul\":2465:2485   */\n      calldataload\n        /* \"#utility.yul\":2456:2485   */\n      swap1\n      pop\n        /* \"#utility.yul\":2494:2527   */\n      tag_295\n        /* \"#utility.yul\":2521:2526   */\n      dup2\n        /* \"#utility.yul\":2494:2527   */\n      tag_222\n      jump\t// in\n    tag_295:\n        /* \"#utility.yul\":2394:2533   */\n      swap3\n      swap2\n      pop\n      pop\n      jump\t// out\n        /* \"#utility.yul\":2539:3013   */\n    tag_27:\n        /* \"#utility.yul\":2607:2613   */\n      0x00\n        /* \"#utility.yul\":2615:2621   */\n      dup1\n        /* \"#utility.yul\":2664:2666   */\n      0x40\n        /* \"#utility.yul\":2652:2661   */\n      dup4\n        /* \"#utility.yul\":2643:2650   */\n      dup6\n        /* \"#utility.yul\":2639:2662   */\n      sub\n        /* \"#utility.yul\":2635:2667   */\n      slt\n        /* \"#utility.yul\":2632:2751   */\n      iszero\n      tag_297\n      jumpi\n        /* \"#utility.yul\":2670:2749   */\n      tag_298\n      tag_215\n      jump\t// in\n    tag_298:\n        /* \"#utility.yul\":2632:2751   */\n    tag_297:\n        /* \"#utility.yul\":2790:2791   */\n      0x00\n        /* \"#utility.yul\":2815:2868   */\n      tag_299\n        /* \"#utility.yul\":2860:2867   */\n      dup6\n        /* \"#utility.yul\":2851:2857   */\n      dup3\n        /* \"#utility.yul\":2840:2849   */\n      dup7\n        /* \"#utility.yul\":2836:2858   */\n      add\n        /* \"#utility.yul\":2815:2868   */\n      tag_220\n      jump\t// in\n    tag_299:\n        /* \"#utility.yul\":2805:2868   */\n      swap3\n      pop\n        /* \"#utility.yul\":2761:2878   */\n      pop\n        /* \"#utility.yul\":2917:2919   */\n      0x20\n        /* \"#utility.yul\":2943:2996   */\n      tag_300\n        /* \"#utility.yul\":2988:2995   */\n      dup6\n        /* \"#utility.yul\":2979:2985   */\n      dup3\n        /* \"#utility.yul\":2968:2977   */\n      dup7\n        /* \"#utility.yul\":2964:2986   */\n      add\n        /* \"#utility.yul\":2943:2996   */\n      tag_223\n      jump\t// in\n    tag_300:\n        /* \"#utility.yul\":2933:2996   */\n      swap2\n      pop\n        /* \"#utility.yul\":2888:3006   */\n      pop\n        /* \"#utility.yul\":2539:3013   */\n      swap3\n      pop\n      swap3\n      swap1\n      pop\n      jump\t// out\n        /* \"#utility.yul\":3019:3109   */\n    tag_224:\n        /* \"#utility.yul\":3053:3060   */\n      0x00\n        /* \"#utility.yul\":3096:3101   */\n      dup2\n        /* \"#utility.yul\":3089:3102   */\n      iszero\n        /* \"#utility.yul\":3082:3103   */\n      iszero\n        /* \"#utility.yul\":3071:3103   */\n      swap1\n      pop\n        /* \"#utility.yul\":3019:3109   */\n      swap2\n      swap1\n      pop\n      jump\t// out\n        /* \"#utility.yul\":3115:3224   */\n    tag_225:\n        /* \"#utility.yul\":3196:3217   */\n      tag_303\n        /* \"#utility.yul\":3211:3216   */\n      dup2\n        /* \"#utility.yul\":3196:3217   */\n      tag_224\n      jump\t// in\n    tag_303:\n        /* \"#utility.yul\":3191:3194   */\n      dup3\n        /* \"#utility.yul\":3184:3218   */\n      mstore\n        /* \"#utility.yul\":3115:3224   */\n      pop\n      pop\n      jump\t// out\n        /* \"#utility.yul\":3230:3440   */\n    tag_30:\n        /* \"#utility.yul\":3317:3321   */\n      0x00\n        /* \"#utility.yul\":3355:3357   */\n      0x20\n        /* \"#utility.yul\":3344:3353   */\n      dup3\n        /* \"#utility.yul\":3340:3358   */\n      add\n        /* \"#utility.yul\":3332:3358   */\n      swap1\n      pop\n        /* \"#utility.yul\":3368:3433   */\n      tag_305\n        /* \"#utility.yul\":3430:3431   */\n      0x00\n        /* \"#utility.yul\":3419:3428   */\n      dup4\n        /* \"#utility.yul\":3415:3432   */\n      add\n        /* \"#utility.yul\":3406:3412   */\n      dup5\n        /* \"#utility.yul\":3368:3433   */\n      tag_225\n      jump\t// in\n    tag_305:\n        /* \"#utility.yul\":3230:3440   */\n      swap3\n      swap2\n      pop\n      pop\n      jump\t// out\n        /* \"#utility.yul\":3446:3564   */\n    tag_226:\n        /* \"#utility.yul\":3533:3557   */\n      tag_307\n        /* \"#utility.yul\":3551:3556   */\n      dup2\n        /* \"#utility.yul\":3533:3557   */\n      tag_221\n      jump\t// in\n    tag_307:\n        /* \"#utility.yul\":3528:3531   */\n      dup3\n        /* \"#utility.yul\":3521:3558   */\n      mstore\n        /* \"#utility.yul\":3446:3564   */\n      pop\n      pop\n      jump\t// out\n        /* \"#utility.yul\":3570:3792   */\n    tag_34:\n        /* \"#utility.yul\":3663:3667   */\n      0x00\n        /* \"#utility.yul\":3701:3703   */\n      0x20\n        /* \"#utility.yul\":3690:3699   */\n      dup3\n        /* \"#utility.yul\":3686:3704   */\n      add\n        /* \"#utility.yul\":3678:3704   */\n      swap1\n      pop\n        /* \"#utility.yul\":3714:3785   */\n      tag_309\n        /* \"#utility.yul\":3782:3783   */\n      0x00\n        /* \"#utility.yul\":3771:3780   */\n      dup4\n        /* \"#utility.yul\":3767:3784   */\n      add\n        /* \"#utility.yul\":3758:3764   */\n      dup5\n        /* \"#utility.yul\":3714:3785   */\n      tag_226\n      jump\t// in\n    tag_309:\n        /* \"#utility.yul\":3570:3792   */\n      swap3\n      swap2\n      pop\n      pop\n      jump\t// out\n        /* \"#utility.yul\":3798:3912   */\n    tag_227:\n        /* \"#utility.yul\":3865:3871   */\n      0x00\n        /* \"#utility.yul\":3899:3904   */\n      dup2\n        /* \"#utility.yul\":3893:3905   */\n      mload\n        /* \"#utility.yul\":3883:3905   */\n      swap1\n      pop\n        /* \"#utility.yul\":3798:3912   */\n      swap2\n      swap1\n      pop\n      jump\t// out\n        /* \"#utility.yul\":3918:4102   */\n    tag_228:\n        /* \"#utility.yul\":4017:4028   */\n      0x00\n        /* \"#utility.yul\":4051:4057   */\n      dup3\n        /* \"#utility.yul\":4046:4049   */\n      dup3\n        /* \"#utility.yul\":4039:4058   */\n      mstore\n        /* \"#utility.yul\":4091:4095   */\n      0x20\n        /* \"#utility.yul\":4086:4089   */\n      dup3\n        /* \"#utility.yul\":4082:4096   */\n      add\n        /* \"#utility.yul\":4067:4096   */\n      swap1\n      pop\n        /* \"#utility.yul\":3918:4102   */\n      swap3\n      swap2\n      pop\n      pop\n      jump\t// out\n        /* \"#utility.yul\":4108:4240   */\n    tag_229:\n        /* \"#utility.yul\":4175:4179   */\n      0x00\n        /* \"#utility.yul\":4198:4201   */\n      dup2\n        /* \"#utility.yul\":4190:4201   */\n      swap1\n      pop\n        /* \"#utility.yul\":4228:4232   */\n      0x20\n        /* \"#utility.yul\":4223:4226   */\n      dup3\n        /* \"#utility.yul\":4219:4233   */\n      add\n        /* \"#utility.yul\":4211:4233   */\n      swap1\n      pop\n        /* \"#utility.yul\":4108:4240   */\n      swap2\n      swap1\n      pop\n      jump\t// out\n        /* \"#utility.yul\":4246:4354   */\n    tag_230:\n        /* \"#utility.yul\":4323:4347   */\n      tag_314\n        /* \"#utility.yul\":4341:4346   */\n      dup2\n        /* \"#utility.yul\":4323:4347   */\n      tag_218\n      jump\t// in\n    tag_314:\n        /* \"#utility.yul\":4318:4321   */\n      dup3\n        /* \"#utility.yul\":4311:4348   */\n      mstore\n        /* \"#utility.yul\":4246:4354   */\n      pop\n      pop\n      jump\t// out\n        /* \"#utility.yul\":4360:4539   */\n    tag_231:\n        /* \"#utility.yul\":4429:4439   */\n      0x00\n        /* \"#utility.yul\":4450:4496   */\n      tag_316\n        /* \"#utility.yul\":4492:4495   */\n      dup4\n        /* \"#utility.yul\":4484:4490   */\n      dup4\n        /* \"#utility.yul\":4450:4496   */\n      tag_230\n      jump\t// in\n    tag_316:\n        /* \"#utility.yul\":4528:4532   */\n      0x20\n        /* \"#utility.yul\":4523:4526   */\n      dup4\n        /* \"#utility.yul\":4519:4533   */\n      add\n        /* \"#utility.yul\":4505:4533   */\n      swap1\n      pop\n        /* \"#utility.yul\":4360:4539   */\n      swap3\n      swap2\n      pop\n      pop\n      jump\t// out\n        /* \"#utility.yul\":4545:4658   */\n    tag_232:\n        /* \"#utility.yul\":4615:4619   */\n      0x00\n        /* \"#utility.yul\":4647:4651   */\n      0x20\n        /* \"#utility.yul\":4642:4645   */\n      dup3\n        /* \"#utility.yul\":4638:4652   */\n      add\n        /* \"#utility.yul\":4630:4652   */\n      swap1\n      pop\n        /* \"#utility.yul\":4545:4658   */\n      swap2\n      swap1\n      pop\n      jump\t// out\n        /* \"#utility.yul\":4694:5426   */\n    tag_233:\n        /* \"#utility.yul\":4813:4816   */\n      0x00\n        /* \"#utility.yul\":4842:4896   */\n      tag_319\n        /* \"#utility.yul\":4890:4895   */\n      dup3\n        /* \"#utility.yul\":4842:4896   */\n      tag_227\n      jump\t// in\n    tag_319:\n        /* \"#utility.yul\":4912:4998   */\n      tag_320\n        /* \"#utility.yul\":4991:4997   */\n      dup2\n        /* \"#utility.yul\":4986:4989   */\n      dup6\n        /* \"#utility.yul\":4912:4998   */\n      tag_228\n      jump\t// in\n    tag_320:\n        /* \"#utility.yul\":4905:4998   */\n      swap4\n      pop\n        /* \"#utility.yul\":5022:5078   */\n      tag_321\n        /* \"#utility.yul\":5072:5077   */\n      dup4\n        /* \"#utility.yul\":5022:5078   */\n      tag_229\n      jump\t// in\n    tag_321:\n        /* \"#utility.yul\":5101:5108   */\n      dup1\n        /* \"#utility.yul\":5132:5133   */\n      0x00\n        /* \"#utility.yul\":5117:5401   */\n    tag_322:\n        /* \"#utility.yul\":5142:5148   */\n      dup4\n        /* \"#utility.yul\":5139:5140   */\n      dup2\n        /* \"#utility.yul\":5136:5149   */\n      lt\n        /* \"#utility.yul\":5117:5401   */\n      iszero\n      tag_324\n      jumpi\n        /* \"#utility.yul\":5218:5224   */\n      dup2\n        /* \"#utility.yul\":5212:5225   */\n      mload\n        /* \"#utility.yul\":5245:5308   */\n      tag_325\n        /* \"#utility.yul\":5304:5307   */\n      dup9\n        /* \"#utility.yul\":5289:5302   */\n      dup3\n        /* \"#utility.yul\":5245:5308   */\n      tag_231\n      jump\t// in\n    tag_325:\n        /* \"#utility.yul\":5238:5308   */\n      swap8\n      pop\n        /* \"#utility.yul\":5331:5391   */\n      tag_326\n        /* \"#utility.yul\":5384:5390   */\n      dup4\n        /* \"#utility.yul\":5331:5391   */\n      tag_232\n      jump\t// in\n    tag_326:\n        /* \"#utility.yul\":5321:5391   */\n      swap3\n      pop\n        /* \"#utility.yul\":5177:5401   */\n      pop\n        /* \"#utility.yul\":5164:5165   */\n      0x01\n        /* \"#utility.yul\":5161:5162   */\n      dup2\n        /* \"#utility.yul\":5157:5166   */\n      add\n        /* \"#utility.yul\":5152:5166   */\n      swap1\n      pop\n        /* \"#utility.yul\":5117:5401   */\n      jump(tag_322)\n    tag_324:\n        /* \"#utility.yul\":5121:5135   */\n      pop\n        /* \"#utility.yul\":5417:5420   */\n      dup6\n        /* \"#utility.yul\":5410:5420   */\n      swap4\n      pop\n        /* \"#utility.yul\":4818:5426   */\n      pop\n      pop\n      pop\n        /* \"#utility.yul\":4694:5426   */\n      swap3\n      swap2\n      pop\n      pop\n      jump\t// out\n        /* \"#utility.yul\":5432:5546   */\n    tag_234:\n        /* \"#utility.yul\":5499:5505   */\n      0x00\n        /* \"#utility.yul\":5533:5538   */\n      dup2\n        /* \"#utility.yul\":5527:5539   */\n      mload\n        /* \"#utility.yul\":5517:5539   */\n      swap1\n      pop\n        /* \"#utility.yul\":5432:5546   */\n      swap2\n      swap1\n      pop\n      jump\t// out\n        /* \"#utility.yul\":5552:5736   */\n    tag_235:\n        /* \"#utility.yul\":5651:5662   */\n      0x00\n        /* \"#utility.yul\":5685:5691   */\n      dup3\n        /* \"#utility.yul\":5680:5683   */\n      dup3\n        /* \"#utility.yul\":5673:5692   */\n      mstore\n        /* \"#utility.yul\":5725:5729   */\n      0x20\n        /* \"#utility.yul\":5720:5723   */\n      dup3\n        /* \"#utility.yul\":5716:5730   */\n      add\n        /* \"#utility.yul\":5701:5730   */\n      swap1\n      pop\n        /* \"#utility.yul\":5552:5736   */\n      swap3\n      swap2\n      pop\n      pop\n      jump\t// out\n        /* \"#utility.yul\":5742:5874   */\n    tag_236:\n        /* \"#utility.yul\":5809:5813   */\n      0x00\n        /* \"#utility.yul\":5832:5835   */\n      dup2\n        /* \"#utility.yul\":5824:5835   */\n      swap1\n      pop\n        /* \"#utility.yul\":5862:5866   */\n      0x20\n        /* \"#utility.yul\":5857:5860   */\n      dup3\n        /* \"#utility.yul\":5853:5867   */\n      add\n        /* \"#utility.yul\":5845:5867   */\n      swap1\n      pop\n        /* \"#utility.yul\":5742:5874   */\n      swap2\n      swap1\n      pop\n      jump\t// out\n        /* \"#utility.yul\":5880:5988   */\n    tag_237:\n        /* \"#utility.yul\":5957:5981   */\n      tag_331\n        /* \"#utility.yul\":5975:5980   */\n      dup2\n        /* \"#utility.yul\":5957:5981   */\n      tag_221\n      jump\t// in\n    tag_331:\n        /* \"#utility.yul\":5952:5955   */\n      dup3\n        /* \"#utility.yul\":5945:5982   */\n      mstore\n        /* \"#utility.yul\":5880:5988   */\n      pop\n      pop\n      jump\t// out\n        /* \"#utility.yul\":5994:6173   */\n    tag_238:\n        /* \"#utility.yul\":6063:6073   */\n      0x00\n        /* \"#utility.yul\":6084:6130   */\n      tag_333\n        /* \"#utility.yul\":6126:6129   */\n      dup4\n        /* \"#utility.yul\":6118:6124   */\n      dup4\n        /* \"#utility.yul\":6084:6130   */\n      tag_237\n      jump\t// in\n    tag_333:\n        /* \"#utility.yul\":6162:6166   */\n      0x20\n        /* \"#utility.yul\":6157:6160   */\n      dup4\n        /* \"#utility.yul\":6153:6167   */\n      add\n        /* \"#utility.yul\":6139:6167   */\n      swap1\n      pop\n        /* \"#utility.yul\":5994:6173   */\n      swap3\n      swap2\n      pop\n      pop\n      jump\t// out\n        /* \"#utility.yul\":6179:6292   */\n    tag_239:\n        /* \"#utility.yul\":6249:6253   */\n      0x00\n        /* \"#utility.yul\":6281:6285   */\n      0x20\n        /* \"#utility.yul\":6276:6279   */\n      dup3\n        /* \"#utility.yul\":6272:6286   */\n      add\n        /* \"#utility.yul\":6264:6286   */\n      swap1\n      pop\n        /* \"#utility.yul\":6179:6292   */\n      swap2\n      swap1\n      pop\n      jump\t// out\n        /* \"#utility.yul\":6328:7060   */\n    tag_240:\n        /* \"#utility.yul\":6447:6450   */\n      0x00\n        /* \"#utility.yul\":6476:6530   */\n      tag_336\n        /* \"#utility.yul\":6524:6529   */\n      dup3\n        /* \"#utility.yul\":6476:6530   */\n      tag_234\n      jump\t// in\n    tag_336:\n        /* \"#utility.yul\":6546:6632   */\n      tag_337\n        /* \"#utility.yul\":6625:6631   */\n      dup2\n        /* \"#utility.yul\":6620:6623   */\n      dup6\n        /* \"#utility.yul\":6546:6632   */\n      tag_235\n      jump\t// in\n    tag_337:\n        /* \"#utility.yul\":6539:6632   */\n      swap4\n      pop\n        /* \"#utility.yul\":6656:6712   */\n      tag_338\n        /* \"#utility.yul\":6706:6711   */\n      dup4\n        /* \"#utility.yul\":6656:6712   */\n      tag_236\n      jump\t// in\n    tag_338:\n        /* \"#utility.yul\":6735:6742   */\n      dup1\n        /* \"#utility.yul\":6766:6767   */\n      0x00\n        /* \"#utility.yul\":6751:7035   */\n    tag_339:\n        /* \"#utility.yul\":6776:6782   */\n      dup4\n        /* \"#utility.yul\":6773:6774   */\n      dup2\n        /* \"#utility.yul\":6770:6783   */\n      lt\n        /* \"#utility.yul\":6751:7035   */\n      iszero\n      tag_341\n      jumpi\n        /* \"#utility.yul\":6852:6858   */\n      dup2\n        /* \"#utility.yul\":6846:6859   */\n      mload\n        /* \"#utility.yul\":6879:6942   */\n      tag_342\n        /* \"#utility.yul\":6938:6941   */\n      dup9\n        /* \"#utility.yul\":6923:6936   */\n      dup3\n        /* \"#utility.yul\":6879:6942   */\n      tag_238\n      jump\t// in\n    tag_342:\n        /* \"#utility.yul\":6872:6942   */\n      swap8\n      pop\n        /* \"#utility.yul\":6965:7025   */\n      tag_343\n        /* \"#utility.yul\":7018:7024   */\n      dup4\n        /* \"#utility.yul\":6965:7025   */\n      tag_239\n      jump\t// in\n    tag_343:\n        /* \"#utility.yul\":6955:7025   */\n      swap3\n      pop\n        /* \"#utility.yul\":6811:7035   */\n      pop\n        /* \"#utility.yul\":6798:6799   */\n      0x01\n        /* \"#utility.yul\":6795:6796   */\n      dup2\n        /* \"#utility.yul\":6791:6800   */\n      add\n        /* \"#utility.yul\":6786:6800   */\n      swap1\n      pop\n        /* \"#utility.yul\":6751:7035   */\n      jump(tag_339)\n    tag_341:\n        /* \"#utility.yul\":6755:6769   */\n      pop\n        /* \"#utility.yul\":7051:7054   */\n      dup6\n        /* \"#utility.yul\":7044:7054   */\n      swap4\n      pop\n        /* \"#utility.yul\":6452:7060   */\n      pop\n      pop\n      pop\n        /* \"#utility.yul\":6328:7060   */\n      swap3\n      swap2\n      pop\n      pop\n      jump\t// out\n        /* \"#utility.yul\":7066:7700   */\n    tag_38:\n        /* \"#utility.yul\":7287:7291   */\n      0x00\n        /* \"#utility.yul\":7325:7327   */\n      0x40\n        /* \"#utility.yul\":7314:7323   */\n      dup3\n        /* \"#utility.yul\":7310:7328   */\n      add\n        /* \"#utility.yul\":7302:7328   */\n      swap1\n      pop\n        /* \"#utility.yul\":7374:7383   */\n      dup2\n        /* \"#utility.yul\":7368:7372   */\n      dup2\n        /* \"#utility.yul\":7364:7384   */\n      sub\n        /* \"#utility.yul\":7360:7361   */\n      0x00\n        /* \"#utility.yul\":7349:7358   */\n      dup4\n        /* \"#utility.yul\":7345:7362   */\n      add\n        /* \"#utility.yul\":7338:7385   */\n      mstore\n        /* \"#utility.yul\":7402:7510   */\n      tag_345\n        /* \"#utility.yul\":7505:7509   */\n      dup2\n        /* \"#utility.yul\":7496:7502   */\n      dup6\n        /* \"#utility.yul\":7402:7510   */\n      tag_233\n      jump\t// in\n    tag_345:\n        /* \"#utility.yul\":7394:7510   */\n      swap1\n      pop\n        /* \"#utility.yul\":7557:7566   */\n      dup2\n        /* \"#utility.yul\":7551:7555   */\n      dup2\n        /* \"#utility.yul\":7547:7567   */\n      sub\n        /* \"#utility.yul\":7542:7544   */\n      0x20\n        /* \"#utility.yul\":7531:7540   */\n      dup4\n        /* \"#utility.yul\":7527:7545   */\n      add\n        /* \"#utility.yul\":7520:7568   */\n      mstore\n        /* \"#utility.yul\":7585:7693   */\n      tag_346\n        /* \"#utility.yul\":7688:7692   */\n      dup2\n        /* \"#utility.yul\":7679:7685   */\n      dup5\n        /* \"#utility.yul\":7585:7693   */\n      tag_240\n      jump\t// in\n    tag_346:\n        /* \"#utility.yul\":7577:7693   */\n      swap1\n      pop\n        /* \"#utility.yul\":7066:7700   */\n      swap4\n      swap3\n      pop\n      pop\n      pop\n      jump\t// out\n        /* \"#utility.yul\":7706:8325   */\n    tag_41:\n        /* \"#utility.yul\":7783:7789   */\n      0x00\n        /* \"#utility.yul\":7791:7797   */\n      dup1\n        /* \"#utility.yul\":7799:7805   */\n      0x00\n        /* \"#utility.yul\":7848:7850   */\n      0x60\n        /* \"#utility.yul\":7836:7845   */\n      dup5\n        /* \"#utility.yul\":7827:7834   */\n      dup7\n        /* \"#utility.yul\":7823:7846   */\n      sub\n        /* \"#utility.yul\":7819:7851   */\n      slt\n        /* \"#utility.yul\":7816:7935   */\n      iszero\n      tag_348\n      jumpi\n        /* \"#utility.yul\":7854:7933   */\n      tag_349\n      tag_215\n      jump\t// in\n    tag_349:\n        /* \"#utility.yul\":7816:7935   */\n    tag_348:\n        /* \"#utility.yul\":7974:7975   */\n      0x00\n        /* \"#utility.yul\":7999:8052   */\n      tag_350\n        /* \"#utility.yul\":8044:8051   */\n      dup7\n        /* \"#utility.yul\":8035:8041   */\n      dup3\n        /* \"#utility.yul\":8024:8033   */\n      dup8\n        /* \"#utility.yul\":8020:8042   */\n      add\n        /* \"#utility.yul\":7999:8052   */\n      tag_220\n      jump\t// in\n    tag_350:\n        /* \"#utility.yul\":7989:8052   */\n      swap4\n      pop\n        /* \"#utility.yul\":7945:8062   */\n      pop\n        /* \"#utility.yul\":8101:8103   */\n      0x20\n        /* \"#utility.yul\":8127:8180   */\n      tag_351\n        /* \"#utility.yul\":8172:8179   */\n      dup7\n        /* \"#utility.yul\":8163:8169   */\n      dup3\n        /* \"#utility.yul\":8152:8161   */\n      dup8\n        /* \"#utility.yul\":8148:8170   */\n      add\n        /* \"#utility.yul\":8127:8180   */\n      tag_220\n      jump\t// in\n    tag_351:\n        /* \"#utility.yul\":8117:8180   */\n      swap3\n      pop\n        /* \"#utility.yul\":8072:8190   */\n      pop\n        /* \"#utility.yul\":8229:8231   */\n      0x40\n        /* \"#utility.yul\":8255:8308   */\n      tag_352\n        /* \"#utility.yul\":8300:8307   */\n      dup7\n        /* \"#utility.yul\":8291:8297   */\n      dup3\n        /* \"#utility.yul\":8280:8289   */\n      dup8\n        /* \"#utility.yul\":8276:8298   */\n      add\n        /* \"#utility.yul\":8255:8308   */\n      tag_223\n      jump\t// in\n    tag_352:\n        /* \"#utility.yul\":8245:8308   */\n      swap2\n      pop\n        /* \"#utility.yul\":8200:8318   */\n      pop\n        /* \"#utility.yul\":7706:8325   */\n      swap3\n      pop\n      swap3\n      pop\n      swap3\n      jump\t// out\n        /* \"#utility.yul\":8331:8417   */\n    tag_241:\n        /* \"#utility.yul\":8366:8373   */\n      0x00\n        /* \"#utility.yul\":8406:8410   */\n      0xff\n        /* \"#utility.yul\":8399:8404   */\n      dup3\n        /* \"#utility.yul\":8395:8411   */\n      and\n        /* \"#utility.yul\":8384:8411   */\n      swap1\n      pop\n        /* \"#utility.yul\":8331:8417   */\n      swap2\n      swap1\n      pop\n      jump\t// out\n        /* \"#utility.yul\":8423:8535   */\n    tag_242:\n        /* \"#utility.yul\":8506:8528   */\n      tag_355\n        /* \"#utility.yul\":8522:8527   */\n      dup2\n        /* \"#utility.yul\":8506:8528   */\n      tag_241\n      jump\t// in\n    tag_355:\n        /* \"#utility.yul\":8501:8504   */\n      dup3\n        /* \"#utility.yul\":8494:8529   */\n      mstore\n        /* \"#utility.yul\":8423:8535   */\n      pop\n      pop\n      jump\t// out\n        /* \"#utility.yul\":8541:8755   */\n    tag_47:\n        /* \"#utility.yul\":8630:8634   */\n      0x00\n        /* \"#utility.yul\":8668:8670   */\n      0x20\n        /* \"#utility.yul\":8657:8666   */\n      dup3\n        /* \"#utility.yul\":8653:8671   */\n      add\n        /* \"#utility.yul\":8645:8671   */\n      swap1\n      pop\n        /* \"#utility.yul\":8681:8748   */\n      tag_357\n        /* \"#utility.yul\":8745:8746   */\n      0x00\n        /* \"#utility.yul\":8734:8743   */\n      dup4\n        /* \"#utility.yul\":8730:8747   */\n      add\n        /* \"#utility.yul\":8721:8727   */\n      dup5\n        /* \"#utility.yul\":8681:8748   */\n      tag_242\n      jump\t// in\n    tag_357:\n        /* \"#utility.yul\":8541:8755   */\n      swap3\n      swap2\n      pop\n      pop\n      jump\t// out\n        /* \"#utility.yul\":8761:9090   */\n    tag_54:\n        /* \"#utility.yul\":8820:8826   */\n      0x00\n        /* \"#utility.yul\":8869:8871   */\n      0x20\n        /* \"#utility.yul\":8857:8866   */\n      dup3\n        /* \"#utility.yul\":8848:8855   */\n      dup5\n        /* \"#utility.yul\":8844:8867   */\n      sub\n        /* \"#utility.yul\":8840:8872   */\n      slt\n        /* \"#utility.yul\":8837:8956   */\n      iszero\n      tag_359\n      jumpi\n        /* \"#utility.yul\":8875:8954   */\n      tag_360\n      tag_215\n      jump\t// in\n    tag_360:\n        /* \"#utility.yul\":8837:8956   */\n    tag_359:\n        /* \"#utility.yul\":8995:8996   */\n      0x00\n        /* \"#utility.yul\":9020:9073   */\n      tag_361\n        /* \"#utility.yul\":9065:9072   */\n      dup5\n        /* \"#utility.yul\":9056:9062   */\n      dup3\n        /* \"#utility.yul\":9045:9054   */\n      dup6\n        /* \"#utility.yul\":9041:9063   */\n      add\n        /* \"#utility.yul\":9020:9073   */\n      tag_220\n      jump\t// in\n    tag_361:\n        /* \"#utility.yul\":9010:9073   */\n      swap2\n      pop\n        /* \"#utility.yul\":8966:9083   */\n      pop\n        /* \"#utility.yul\":8761:9090   */\n      swap3\n      swap2\n      pop\n      pop\n      jump\t// out\n        /* \"#utility.yul\":9096:9214   */\n    tag_243:\n        /* \"#utility.yul\":9183:9207   */\n      tag_363\n        /* \"#utility.yul\":9201:9206   */\n      dup2\n        /* \"#utility.yul\":9183:9207   */\n      tag_218\n      jump\t// in\n    tag_363:\n        /* \"#utility.yul\":9178:9181   */\n      dup3\n        /* \"#utility.yul\":9171:9208   */\n      mstore\n        /* \"#utility.yul\":9096:9214   */\n      pop\n      pop\n      jump\t// out\n        /* \"#utility.yul\":9220:9442   */\n    tag_62:\n        /* \"#utility.yul\":9313:9317   */\n      0x00\n        /* \"#utility.yul\":9351:9353   */\n      0x20\n        /* \"#utility.yul\":9340:9349   */\n      dup3\n        /* \"#utility.yul\":9336:9354   */\n      add\n        /* \"#utility.yul\":9328:9354   */\n      swap1\n      pop\n        /* \"#utility.yul\":9364:9435   */\n      tag_365\n        /* \"#utility.yul\":9432:9433   */\n      0x00\n        /* \"#utility.yul\":9421:9430   */\n      dup4\n        /* \"#utility.yul\":9417:9434   */\n      add\n        /* \"#utility.yul\":9408:9414   */\n      dup5\n        /* \"#utility.yul\":9364:9435   */\n      tag_243\n      jump\t// in\n    tag_365:\n        /* \"#utility.yul\":9220:9442   */\n      swap3\n      swap2\n      pop\n      pop\n      jump\t// out\n        /* \"#utility.yul\":9448:9922   */\n    tag_76:\n        /* \"#utility.yul\":9516:9522   */\n      0x00\n        /* \"#utility.yul\":9524:9530   */\n      dup1\n        /* \"#utility.yul\":9573:9575   */\n      0x40\n        /* \"#utility.yul\":9561:9570   */\n      dup4\n        /* \"#utility.yul\":9552:9559   */\n      dup6\n        /* \"#utility.yul\":9548:9571   */\n      sub\n        /* \"#utility.yul\":9544:9576   */\n      slt\n        /* \"#utility.yul\":9541:9660   */\n      iszero\n      tag_367\n      jumpi\n        /* \"#utility.yul\":9579:9658   */\n      tag_368\n      tag_215\n      jump\t// in\n    tag_368:\n        /* \"#utility.yul\":9541:9660   */\n    tag_367:\n        /* \"#utility.yul\":9699:9700   */\n      0x00\n        /* \"#utility.yul\":9724:9777   */\n      tag_369\n        /* \"#utility.yul\":9769:9776   */\n      dup6\n        /* \"#utility.yul\":9760:9766   */\n      dup3\n        /* \"#utility.yul\":9749:9758   */\n      dup7\n        /* \"#utility.yul\":9745:9767   */\n      add\n        /* \"#utility.yul\":9724:9777   */\n      tag_220\n      jump\t// in\n    tag_369:\n        /* \"#utility.yul\":9714:9777   */\n      swap3\n      pop\n        /* \"#utility.yul\":9670:9787   */\n      pop\n        /* \"#utility.yul\":9826:9828   */\n      0x20\n        /* \"#utility.yul\":9852:9905   */\n      tag_370\n        /* \"#utility.yul\":9897:9904   */\n      dup6\n        /* \"#utility.yul\":9888:9894   */\n      dup3\n        /* \"#utility.yul\":9877:9886   */\n      dup7\n        /* \"#utility.yul\":9873:9895   */\n      add\n        /* \"#utility.yul\":9852:9905   */\n      tag_220\n      jump\t// in\n    tag_370:\n        /* \"#utility.yul\":9842:9905   */\n      swap2\n      pop\n        /* \"#utility.yul\":9797:9915   */\n      pop\n        /* \"#utility.yul\":9448:9922   */\n      swap3\n      pop\n      swap3\n      swap1\n      pop\n      jump\t// out\n        /* \"#utility.yul\":9928:10108   */\n    tag_244:\n        /* \"#utility.yul\":9976:10053   */\n      0x4e487b7100000000000000000000000000000000000000000000000000000000\n        /* \"#utility.yul\":9973:9974   */\n      0x00\n        /* \"#utility.yul\":9966:10054   */\n      mstore\n        /* \"#utility.yul\":10073:10077   */\n      0x22\n        /* \"#utility.yul\":10070:10071   */\n      0x04\n        /* \"#utility.yul\":10063:10078   */\n      mstore\n        /* \"#utility.yul\":10097:10101   */\n      0x24\n        /* \"#utility.yul\":10094:10095   */\n      0x00\n        /* \"#utility.yul\":10087:10102   */\n      revert\n        /* \"#utility.yul\":10114:10434   */\n    tag_84:\n        /* \"#utility.yul\":10158:10164   */\n      0x00\n        /* \"#utility.yul\":10195:10196   */\n      0x02\n        /* \"#utility.yul\":10189:10193   */\n      dup3\n        /* \"#utility.yul\":10185:10197   */\n      div\n        /* \"#utility.yul\":10175:10197   */\n      swap1\n      pop\n        /* \"#utility.yul\":10242:10243   */\n      0x01\n        /* \"#utility.yul\":10236:10240   */\n      dup3\n        /* \"#utility.yul\":10232:10244   */\n      and\n        /* \"#utility.yul\":10263:10281   */\n      dup1\n        /* \"#utility.yul\":10253:10334   */\n      tag_373\n      jumpi\n        /* \"#utility.yul\":10319:10323   */\n      0x7f\n        /* \"#utility.yul\":10311:10317   */\n      dup3\n        /* \"#utility.yul\":10307:10324   */\n      and\n        /* \"#utility.yul\":10297:10324   */\n      swap2\n      pop\n        /* \"#utility.yul\":10253:10334   */\n    tag_373:\n        /* \"#utility.yul\":10381:10383   */\n      0x20\n        /* \"#utility.yul\":10373:10379   */\n      dup3\n        /* \"#utility.yul\":10370:10384   */\n      lt\n        /* \"#utility.yul\":10350:10368   */\n      dup2\n        /* \"#utility.yul\":10347:10385   */\n      sub\n        /* \"#utility.yul\":10344:10428   */\n      tag_374\n      jumpi\n        /* \"#utility.yul\":10400:10418   */\n      tag_375\n      tag_244\n      jump\t// in\n    tag_375:\n        /* \"#utility.yul\":10344:10428   */\n    tag_374:\n        /* \"#utility.yul\":10165:10434   */\n      pop\n        /* \"#utility.yul\":10114:10434   */\n      swap2\n      swap1\n      pop\n      jump\t// out\n        /* \"#utility.yul\":10440:10620   */\n    tag_98:\n        /* \"#utility.yul\":10488:10565   */\n      0x4e487b7100000000000000000000000000000000000000000000000000000000\n        /* \"#utility.yul\":10485:10486   */\n      0x00\n        /* \"#utility.yul\":10478:10566   */\n      mstore\n        /* \"#utility.yul\":10585:10589   */\n      0x41\n        /* \"#utility.yul\":10582:10583   */\n      0x04\n        /* \"#utility.yul\":10575:10590   */\n      mstore\n        /* \"#utility.yul\":10609:10613   */\n      0x24\n        /* \"#utility.yul\":10606:10607   */\n      0x00\n        /* \"#utility.yul\":10599:10614   */\n      revert\n        /* \"#utility.yul\":10626:10806   */\n    tag_105:\n        /* \"#utility.yul\":10674:10751   */\n      0x4e487b7100000000000000000000000000000000000000000000000000000000\n        /* \"#utility.yul\":10671:10672   */\n      0x00\n        /* \"#utility.yul\":10664:10752   */\n      mstore\n        /* \"#utility.yul\":10771:10775   */\n      0x32\n        /* \"#utility.yul\":10768:10769   */\n      0x04\n        /* \"#utility.yul\":10761:10776   */\n      mstore\n        /* \"#utility.yul\":10795:10799   */\n      0x24\n        /* \"#utility.yul\":10792:10793   */\n      0x00\n        /* \"#utility.yul\":10785:10800   */\n      revert\n        /* \"#utility.yul\":10812:10992   */\n    tag_245:\n        /* \"#utility.yul\":10860:10937   */\n      0x4e487b7100000000000000000000000000000000000000000000000000000000\n        /* \"#utility.yul\":10857:10858   */\n      0x00\n        /* \"#utility.yul\":10850:10938   */\n      mstore\n        /* \"#utility.yul\":10957:10961   */\n      0x11\n        /* \"#utility.yul\":10954:10955   */\n      0x04\n        /* \"#utility.yul\":10947:10962   */\n      mstore\n        /* \"#utility.yul\":10981:10985   */\n      0x24\n        /* \"#utility.yul\":10978:10979   */\n      0x00\n        /* \"#utility.yul\":10971:10986   */\n      revert\n        /* \"#utility.yul\":10998:11231   */\n    tag_110:\n        /* \"#utility.yul\":11037:11040   */\n      0x00\n        /* \"#utility.yul\":11060:11084   */\n      tag_380\n        /* \"#utility.yul\":11078:11083   */\n      dup3\n        /* \"#utility.yul\":11060:11084   */\n      tag_221\n      jump\t// in\n    tag_380:\n        /* \"#utility.yul\":11051:11084   */\n      swap2\n      pop\n        /* \"#utility.yul\":11106:11172   */\n      0xffffffffffffffffffffffffffffffffffffffffffffffffffffffffffffffff\n        /* \"#utility.yul\":11099:11104   */\n      dup3\n        /* \"#utility.yul\":11096:11173   */\n      sub\n        /* \"#utility.yul\":11093:11196   */\n      tag_381\n      jumpi\n        /* \"#utility.yul\":11176:11194   */\n      tag_382\n      tag_245\n      jump\t// in\n    tag_382:\n        /* \"#utility.yul\":11093:11196   */\n    tag_381:\n        /* \"#utility.yul\":11223:11224   */\n      0x01\n        /* \"#utility.yul\":11216:11221   */\n      dup3\n        /* \"#utility.yul\":11212:11225   */\n      add\n        /* \"#utility.yul\":11205:11225   */\n      swap1\n      pop\n        /* \"#utility.yul\":10998:11231   */\n      swap2\n      swap1\n      pop\n      jump\t// out\n        /* \"#utility.yul\":11237:11428   */\n    tag_125:\n        /* \"#utility.yul\":11277:11280   */\n      0x00\n        /* \"#utility.yul\":11296:11316   */\n      tag_384\n        /* \"#utility.yul\":11314:11315   */\n      dup3\n        /* \"#utility.yul\":11296:11316   */\n      tag_221\n      jump\t// in\n    tag_384:\n        /* \"#utility.yul\":11291:11316   */\n      swap2\n      pop\n        /* \"#utility.yul\":11330:11350   */\n      tag_385\n        /* \"#utility.yul\":11348:11349   */\n      dup4\n        /* \"#utility.yul\":11330:11350   */\n      tag_221\n      jump\t// in\n    tag_385:\n        /* \"#utility.yul\":11325:11350   */\n      swap3\n      pop\n        /* \"#utility.yul\":11373:11374   */\n      dup3\n        /* \"#utility.yul\":11370:11371   */\n      dup3\n        /* \"#utility.yul\":11366:11375   */\n      add\n        /* \"#utility.yul\":11359:11375   */\n      swap1\n      pop\n        /* \"#utility.yul\":11394:11397   */\n      dup1\n        /* \"#utility.yul\":11391:11392   */\n      dup3\n        /* \"#utility.yul\":11388:11398   */\n      gt\n        /* \"#utility.yul\":11385:11421   */\n      iszero\n      tag_386\n      jumpi\n        /* \"#utility.yul\":11401:11419   */\n      tag_387\n      tag_245\n      jump\t// in\n    tag_387:\n        /* \"#utility.yul\":11385:11421   */\n    tag_386:\n        /* \"#utility.yul\":11237:11428   */\n      swap3\n      swap2\n      pop\n      pop\n      jump\t// out\n        /* \"#utility.yul\":11434:11658   */\n    tag_246:\n        /* \"#utility.yul\":11574:11608   */\n      0x45524332303a2064656372656173656420616c6c6f77616e63652062656c6f77\n        /* \"#utility.yul\":11570:11571   */\n      0x00\n        /* \"#utility.yul\":11562:11568   */\n      dup3\n        /* \"#utility.yul\":11558:11572   */\n      add\n        /* \"#utility.yul\":11551:11609   */\n      mstore\n        /* \"#utility.yul\":11643:11650   */\n      0x207a65726f000000000000000000000000000000000000000000000000000000\n        /* \"#utility.yul\":11638:11640   */\n      0x20\n        /* \"#utility.yul\":11630:11636   */\n      dup3\n        /* \"#utility.yul\":11626:11641   */\n      add\n        /* \"#utility.yul\":11619:11651   */\n      mstore\n        /* \"#utility.yul\":11434:11658   */\n      pop\n      jump\t// out\n        /* \"#utility.yul\":11664:12030   */\n    tag_247:\n        /* \"#utility.yul\":11806:11809   */\n      0x00\n        /* \"#utility.yul\":11827:11894   */\n      tag_390\n        /* \"#utility.yul\":11891:11893   */\n      0x25\n        /* \"#utility.yul\":11886:11889   */\n      dup4\n        /* \"#utility.yul\":11827:11894   */\n      tag_210\n      jump\t// in\n    tag_390:\n        /* \"#utility.yul\":11820:11894   */\n      swap2\n      pop\n        /* \"#utility.yul\":11903:11996   */\n      tag_391\n        /* \"#utility.yul\":11992:11995   */\n      dup3\n        /* \"#utility.yul\":11903:11996   */\n      tag_246\n      jump\t// in\n    tag_391:\n        /* \"#utility.yul\":12021:12023   */\n      0x40\n        /* \"#utility.yul\":12016:12019   */\n      dup3\n        /* \"#utility.yul\":12012:12024   */\n      add\n        /* \"#utility.yul\":12005:12024   */\n      swap1\n      pop\n        /* \"#utility.yul\":11664:12030   */\n      swap2\n      swap1\n      pop\n      jump\t// out\n        /* \"#utility.yul\":12036:12455   */\n    tag_145:\n        /* \"#utility.yul\":12202:12206   */\n      0x00\n        /* \"#utility.yul\":12240:12242   */\n      0x20\n        /* \"#utility.yul\":12229:12238   */\n      dup3\n        /* \"#utility.yul\":12225:12243   */\n      add\n        /* \"#utility.yul\":12217:12243   */\n      swap1\n      pop\n        /* \"#utility.yul\":12289:12298   */\n      dup2\n        /* \"#utility.yul\":12283:12287   */\n      dup2\n        /* \"#utility.yul\":12279:12299   */\n      sub\n        /* \"#utility.yul\":12275:12276   */\n      0x00\n        /* \"#utility.yul\":12264:12273   */\n      dup4\n        /* \"#utility.yul\":12260:12277   */\n      add\n        /* \"#utility.yul\":12253:12300   */\n      mstore\n        /* \"#utility.yul\":12317:12448   */\n      tag_393\n        /* \"#utility.yul\":12443:12447   */\n      dup2\n        /* \"#utility.yul\":12317:12448   */\n      tag_247\n      jump\t// in\n    tag_393:\n        /* \"#utility.yul\":12309:12448   */\n      swap1\n      pop\n        /* \"#utility.yul\":12036:12455   */\n      swap2\n      swap1\n      pop\n      jump\t// out\n        /* \"#utility.yul\":12461:12686   */\n    tag_248:\n        /* \"#utility.yul\":12601:12635   */\n      0x4f776e61626c653a206e6577206f776e657220697320746865207a65726f2061\n        /* \"#utility.yul\":12597:12598   */\n      0x00\n        /* \"#utility.yul\":12589:12595   */\n      dup3\n        /* \"#utility.yul\":12585:12599   */\n      add\n        /* \"#utility.yul\":12578:12636   */\n      mstore\n        /* \"#utility.yul\":12670:12678   */\n      0x6464726573730000000000000000000000000000000000000000000000000000\n        /* \"#utility.yul\":12665:12667   */\n      0x20\n        /* \"#utility.yul\":12657:12663   */\n      dup3\n        /* \"#utility.yul\":12653:12668   */\n      add\n        /* \"#utility.yul\":12646:12679   */\n      mstore\n        /* \"#utility.yul\":12461:12686   */\n      pop\n      jump\t// out\n        /* \"#utility.yul\":12692:13058   */\n    tag_249:\n        /* \"#utility.yul\":12834:12837   */\n      0x00\n        /* \"#utility.yul\":12855:12922   */\n      tag_396\n        /* \"#utility.yul\":12919:12921   */\n      0x26\n        /* \"#utility.yul\":12914:12917   */\n      dup4\n        /* \"#utility.yul\":12855:12922   */\n      tag_210\n      jump\t// in\n    tag_396:\n        /* \"#utility.yul\":12848:12922   */\n      swap2\n      pop\n        /* \"#utility.yul\":12931:13024   */\n      tag_397\n        /* \"#utility.yul\":13020:13023   */\n      dup3\n        /* \"#utility.yul\":12931:13024   */\n      tag_248\n      jump\t// in\n    tag_397:\n        /* \"#utility.yul\":13049:13051   */\n      0x40\n        /* \"#utility.yul\":13044:13047   */\n      dup3\n        /* \"#utility.yul\":13040:13052   */\n      add\n        /* \"#utility.yul\":13033:13052   */\n      swap1\n      pop\n        /* \"#utility.yul\":12692:13058   */\n      swap2\n      swap1\n      pop\n      jump\t// out\n        /* \"#utility.yul\":13064:13483   */\n    tag_158:\n        /* \"#utility.yul\":13230:13234   */\n      0x00\n        /* \"#utility.yul\":13268:13270   */\n      0x20\n        /* \"#utility.yul\":13257:13266   */\n      dup3\n        /* \"#utility.yul\":13253:13271   */\n      add\n        /* \"#utility.yul\":13245:13271   */\n      swap1\n      pop\n        /* \"#utility.yul\":13317:13326   */\n      dup2\n        /* \"#utility.yul\":13311:13315   */\n      dup2\n        /* \"#utility.yul\":13307:13327   */\n      sub\n        /* \"#utility.yul\":13303:13304   */\n      0x00\n        /* \"#utility.yul\":13292:13301   */\n      dup4\n        /* \"#utility.yul\":13288:13305   */\n      add\n        /* \"#utility.yul\":13281:13328   */\n      mstore\n        /* \"#utility.yul\":13345:13476   */\n      tag_399\n        /* \"#utility.yul\":13471:13475   */\n      dup2\n        /* \"#utility.yul\":13345:13476   */\n      tag_249\n      jump\t// in\n    tag_399:\n        /* \"#utility.yul\":13337:13476   */\n      swap1\n      pop\n        /* \"#utility.yul\":13064:13483   */\n      swap2\n      swap1\n      pop\n      jump\t// out\n        /* \"#utility.yul\":13489:13712   */\n    tag_250:\n        /* \"#utility.yul\":13629:13663   */\n      0x45524332303a20617070726f76652066726f6d20746865207a65726f20616464\n        /* \"#utility.yul\":13625:13626   */\n      0x00\n        /* \"#utility.yul\":13617:13623   */\n      dup3\n        /* \"#utility.yul\":13613:13627   */\n      add\n        /* \"#utility.yul\":13606:13664   */\n      mstore\n        /* \"#utility.yul\":13698:13704   */\n      0x7265737300000000000000000000000000000000000000000000000000000000\n        /* \"#utility.yul\":13693:13695   */\n      0x20\n        /* \"#utility.yul\":13685:13691   */\n      dup3\n        /* \"#utility.yul\":13681:13696   */\n      add\n        /* \"#utility.yul\":13674:13705   */\n      mstore\n        /* \"#utility.yul\":13489:13712   */\n      pop\n      jump\t// out\n        /* \"#utility.yul\":13718:14084   */\n    tag_251:\n        /* \"#utility.yul\":13860:13863   */\n      0x00\n        /* \"#utility.yul\":13881:13948   */\n      tag_402\n        /* \"#utility.yul\":13945:13947   */\n      0x24\n        /* \"#utility.yul\":13940:13943   */\n      dup4\n        /* \"#utility.yul\":13881:13948   */\n      tag_210\n      jump\t// in\n    tag_402:\n        /* \"#utility.yul\":13874:13948   */\n      swap2\n      pop\n        /* \"#utility.yul\":13957:14050   */\n      tag_403\n        /* \"#utility.yul\":14046:14049   */\n      dup3\n        /* \"#utility.yul\":13957:14050   */\n      tag_250\n      jump\t// in\n    tag_403:\n        /* \"#utility.yul\":14075:14077   */\n      0x40\n        /* \"#utility.yul\":14070:14073   */\n      dup3\n        /* \"#utility.yul\":14066:14078   */\n      add\n        /* \"#utility.yul\":14059:14078   */\n      swap1\n      pop\n        /* \"#utility.yul\":13718:14084   */\n      swap2\n      swap1\n      pop\n      jump\t// out\n        /* \"#utility.yul\":14090:14509   */\n    tag_164:\n        /* \"#utility.yul\":14256:14260   */\n      0x00\n        /* \"#utility.yul\":14294:14296   */\n      0x20\n        /* \"#utility.yul\":14283:14292   */\n      dup3\n        /* \"#utility.yul\":14279:14297   */\n      add\n        /* \"#utility.yul\":14271:14297   */\n      swap1\n      pop\n        /* \"#utility.yul\":14343:14352   */\n      dup2\n        /* \"#utility.yul\":14337:14341   */\n      dup2\n        /* \"#utility.yul\":14333:14353   */\n      sub\n        /* \"#utility.yul\":14329:14330   */\n      0x00\n        /* \"#utility.yul\":14318:14327   */\n      dup4\n        /* \"#utility.yul\":14314:14331   */\n      add\n        /* \"#utility.yul\":14307:14354   */\n      mstore\n        /* \"#utility.yul\":14371:14502   */\n      tag_405\n        /* \"#utility.yul\":14497:14501   */\n      dup2\n        /* \"#utility.yul\":14371:14502   */\n      tag_251\n      jump\t// in\n    tag_405:\n        /* \"#utility.yul\":14363:14502   */\n      swap1\n      pop\n        /* \"#utility.yul\":14090:14509   */\n      swap2\n      swap1\n      pop\n      jump\t// out\n        /* \"#utility.yul\":14515:14736   */\n    tag_252:\n        /* \"#utility.yul\":14655:14689   */\n      0x45524332303a20617070726f766520746f20746865207a65726f206164647265\n        /* \"#utility.yul\":14651:14652   */\n      0x00\n        /* \"#utility.yul\":14643:14649   */\n      dup3\n        /* \"#utility.yul\":14639:14653   */\n      add\n        /* \"#utility.yul\":14632:14690   */\n      mstore\n        /* \"#utility.yul\":14724:14728   */\n      0x7373000000000000000000000000000000000000000000000000000000000000\n        /* \"#utility.yul\":14719:14721   */\n      0x20\n        /* \"#utility.yul\":14711:14717   */\n      dup3\n        /* \"#utility.yul\":14707:14722   */\n      add\n        /* \"#utility.yul\":14700:14729   */\n      mstore\n        /* \"#utility.yul\":14515:14736   */\n      pop\n      jump\t// out\n        /* \"#utility.yul\":14742:15108   */\n    tag_253:\n        /* \"#utility.yul\":14884:14887   */\n      0x00\n        /* \"#utility.yul\":14905:14972   */\n      tag_408\n        /* \"#utility.yul\":14969:14971   */\n      0x22\n        /* \"#utility.yul\":14964:14967   */\n      dup4\n        /* \"#utility.yul\":14905:14972   */\n      tag_210\n      jump\t// in\n    tag_408:\n        /* \"#utility.yul\":14898:14972   */\n      swap2\n      pop\n        /* \"#utility.yul\":14981:15074   */\n      tag_409\n        /* \"#utility.yul\":15070:15073   */\n      dup3\n        /* \"#utility.yul\":14981:15074   */\n      tag_252\n      jump\t// in\n    tag_409:\n        /* \"#utility.yul\":15099:15101   */\n      0x40\n        /* \"#utility.yul\":15094:15097   */\n      dup3\n        /* \"#utility.yul\":15090:15102   */\n      add\n        /* \"#utility.yul\":15083:15102   */\n      swap1\n      pop\n        /* \"#utility.yul\":14742:15108   */\n      swap2\n      swap1\n      pop\n      jump\t// out\n        /* \"#utility.yul\":15114:15533   */\n    tag_167:\n        /* \"#utility.yul\":15280:15284   */\n      0x00\n        /* \"#utility.yul\":15318:15320   */\n      0x20\n        /* \"#utility.yul\":15307:15316   */\n      dup3\n        /* \"#utility.yul\":15303:15321   */\n      add\n        /* \"#utility.yul\":15295:15321   */\n      swap1\n      pop\n        /* \"#utility.yul\":15367:15376   */\n      dup2\n        /* \"#utility.yul\":15361:15365   */\n      dup2\n        /* \"#utility.yul\":15357:15377   */\n      sub\n        /* \"#utility.yul\":15353:15354   */\n      0x00\n        /* \"#utility.yul\":15342:15351   */\n      dup4\n        /* \"#utility.yul\":15338:15355   */\n      add\n        /* \"#utility.yul\":15331:15378   */\n      mstore\n        /* \"#utility.yul\":15395:15526   */\n      tag_411\n        /* \"#utility.yul\":15521:15525   */\n      dup2\n        /* \"#utility.yul\":15395:15526   */\n      tag_253\n      jump\t// in\n    tag_411:\n        /* \"#utility.yul\":15387:15526   */\n      swap1\n      pop\n        /* \"#utility.yul\":15114:15533   */\n      swap2\n      swap1\n      pop\n      jump\t// out\n        /* \"#utility.yul\":15539:15718   */\n    tag_254:\n        /* \"#utility.yul\":15679:15710   */\n      0x45524332303a20696e73756666696369656e7420616c6c6f77616e6365000000\n        /* \"#utility.yul\":15675:15676   */\n      0x00\n        /* \"#utility.yul\":15667:15673   */\n      dup3\n        /* \"#utility.yul\":15663:15677   */\n      add\n        /* \"#utility.yul\":15656:15711   */\n      mstore\n        /* \"#utility.yul\":15539:15718   */\n      pop\n      jump\t// out\n        /* \"#utility.yul\":15724:16090   */\n    tag_255:\n        /* \"#utility.yul\":15866:15869   */\n      0x00\n        /* \"#utility.yul\":15887:15954   */\n      tag_414\n        /* \"#utility.yul\":15951:15953   */\n      0x1d\n        /* \"#utility.yul\":15946:15949   */\n      dup4\n        /* \"#utility.yul\":15887:15954   */\n      tag_210\n      jump\t// in\n    tag_414:\n        /* \"#utility.yul\":15880:15954   */\n      swap2\n      pop\n        /* \"#utility.yul\":15963:16056   */\n      tag_415\n        /* \"#utility.yul\":16052:16055   */\n      dup3\n        /* \"#utility.yul\":15963:16056   */\n      tag_254\n      jump\t// in\n    tag_415:\n        /* \"#utility.yul\":16081:16083   */\n      0x20\n        /* \"#utility.yul\":16076:16079   */\n      dup3\n        /* \"#utility.yul\":16072:16084   */\n      add\n        /* \"#utility.yul\":16065:16084   */\n      swap1\n      pop\n        /* \"#utility.yul\":15724:16090   */\n      swap2\n      swap1\n      pop\n      jump\t// out\n        /* \"#utility.yul\":16096:16515   */\n    tag_174:\n        /* \"#utility.yul\":16262:16266   */\n      0x00\n        /* \"#utility.yul\":16300:16302   */\n      0x20\n        /* \"#utility.yul\":16289:16298   */\n      dup3\n        /* \"#utility.yul\":16285:16303   */\n      add\n        /* \"#utility.yul\":16277:16303   */\n      swap1\n      pop\n        /* \"#utility.yul\":16349:16358   */\n      dup2\n        /* \"#utility.yul\":16343:16347   */\n      dup2\n        /* \"#utility.yul\":16339:16359   */\n      sub\n        /* \"#utility.yul\":16335:16336   */\n      0x00\n        /* \"#utility.yul\":16324:16333   */\n      dup4\n        /* \"#utility.yul\":16320:16337   */\n      add\n        /* \"#utility.yul\":16313:16360   */\n      mstore\n        /* \"#utility.yul\":16377:16508   */\n      tag_417\n        /* \"#utility.yul\":16503:16507   */\n      dup2\n        /* \"#utility.yul\":16377:16508   */\n      tag_255\n      jump\t// in\n    tag_417:\n        /* \"#utility.yul\":16369:16508   */\n      swap1\n      pop\n        /* \"#utility.yul\":16096:16515   */\n      swap2\n      swap1\n      pop\n      jump\t// out\n        /* \"#utility.yul\":16521:16745   */\n    tag_256:\n        /* \"#utility.yul\":16661:16695   */\n      0x45524332303a207472616e736665722066726f6d20746865207a65726f206164\n        /* \"#utility.yul\":16657:16658   */\n      0x00\n        /* \"#utility.yul\":16649:16655   */\n      dup3\n        /* \"#utility.yul\":16645:16659   */\n      add\n        /* \"#utility.yul\":16638:16696   */\n      mstore\n        /* \"#utility.yul\":16730:16737   */\n      0x6472657373000000000000000000000000000000000000000000000000000000\n        /* \"#utility.yul\":16725:16727   */\n      0x20\n        /* \"#utility.yul\":16717:16723   */\n      dup3\n        /* \"#utility.yul\":16713:16728   */\n      add\n        /* \"#utility.yul\":16706:16738   */\n      mstore\n        /* \"#utility.yul\":16521:16745   */\n      pop\n      jump\t// out\n        /* \"#utility.yul\":16751:17117   */\n    tag_257:\n        /* \"#utility.yul\":16893:16896   */\n      0x00\n        /* \"#utility.yul\":16914:16981   */\n      tag_420\n        /* \"#utility.yul\":16978:16980   */\n      0x25\n        /* \"#utility.yul\":16973:16976   */\n      dup4\n        /* \"#utility.yul\":16914:16981   */\n      tag_210\n      jump\t// in\n    tag_420:\n        /* \"#utility.yul\":16907:16981   */\n      swap2\n      pop\n        /* \"#utility.yul\":16990:17083   */\n      tag_421\n        /* \"#utility.yul\":17079:17082   */\n      dup3\n        /* \"#utility.yul\":16990:17083   */\n      tag_256\n      jump\t// in\n    tag_421:\n        /* \"#utility.yul\":17108:17110   */\n      0x40\n        /* \"#utility.yul\":17103:17106   */\n      dup3\n        /* \"#utility.yul\":17099:17111   */\n      add\n        /* \"#utility.yul\":17092:17111   */\n      swap1\n      pop\n        /* \"#utility.yul\":16751:17117   */\n      swap2\n      swap1\n      pop\n      jump\t// out\n        /* \"#utility.yul\":17123:17542   */\n    tag_179:\n        /* \"#utility.yul\":17289:17293   */\n      0x00\n        /* \"#utility.yul\":17327:17329   */\n      0x20\n        /* \"#utility.yul\":17316:17325   */\n      dup3\n        /* \"#utility.yul\":17312:17330   */\n      add\n        /* \"#utility.yul\":17304:17330   */\n      swap1\n      pop\n        /* \"#utility.yul\":17376:17385   */\n      dup2\n        /* \"#utility.yul\":17370:17374   */\n      dup2\n        /* \"#utility.yul\":17366:17386   */\n      sub\n        /* \"#utility.yul\":17362:17363   */\n      0x00\n        /* \"#utility.yul\":17351:17360   */\n      dup4\n        /* \"#utility.yul\":17347:17364   */\n      add\n        /* \"#utility.yul\":17340:17387   */\n      mstore\n        /* \"#utility.yul\":17404:17535   */\n      tag_423\n        /* \"#utility.yul\":17530:17534   */\n      dup2\n        /* \"#utility.yul\":17404:17535   */\n      tag_257\n      jump\t// in\n    tag_423:\n        /* \"#utility.yul\":17396:17535   */\n      swap1\n      pop\n        /* \"#utility.yul\":17123:17542   */\n      swap2\n      swap1\n      pop\n      jump\t// out\n        /* \"#utility.yul\":17548:17770   */\n    tag_258:\n        /* \"#utility.yul\":17688:17722   */\n      0x45524332303a207472616e7366657220746f20746865207a65726f2061646472\n        /* \"#utility.yul\":17684:17685   */\n      0x00\n        /* \"#utility.yul\":17676:17682   */\n      dup3\n        /* \"#utility.yul\":17672:17686   */\n      add\n        /* \"#utility.yul\":17665:17723   */\n      mstore\n        /* \"#utility.yul\":17757:17762   */\n      0x6573730000000000000000000000000000000000000000000000000000000000\n        /* \"#utility.yul\":17752:17754   */\n      0x20\n        /* \"#utility.yul\":17744:17750   */\n      dup3\n        /* \"#utility.yul\":17740:17755   */\n      add\n        /* \"#utility.yul\":17733:17763   */\n      mstore\n        /* \"#utility.yul\":17548:17770   */\n      pop\n      jump\t// out\n        /* \"#utility.yul\":17776:18142   */\n    tag_259:\n        /* \"#utility.yul\":17918:17921   */\n      0x00\n        /* \"#utility.yul\":17939:18006   */\n      tag_426\n        /* \"#utility.yul\":18003:18005   */\n      0x23\n        /* \"#utility.yul\":17998:18001   */\n      dup4\n        /* \"#utility.yul\":17939:18006   */\n      tag_210\n      jump\t// in\n    tag_426:\n        /* \"#utility.yul\":17932:18006   */\n      swap2\n      pop\n        /* \"#utility.yul\":18015:18108   */\n      tag_427\n        /* \"#utility.yul\":18104:18107   */\n      dup3\n        /* \"#utility.yul\":18015:18108   */\n      tag_258\n      jump\t// in\n    tag_427:\n        /* \"#utility.yul\":18133:18135   */\n      0x40\n        /* \"#utility.yul\":18128:18131   */\n      dup3\n        /* \"#utility.yul\":18124:18136   */\n      add\n        /* \"#utility.yul\":18117:18136   */\n      swap1\n      pop\n        /* \"#utility.yul\":17776:18142   */\n      swap2\n      swap1\n      pop\n      jump\t// out\n        /* \"#utility.yul\":18148:18567   */\n    tag_182:\n        /* \"#utility.yul\":18314:18318   */\n      0x00\n        /* \"#utility.yul\":18352:18354   */\n      0x20\n        /* \"#utility.yul\":18341:18350   */\n      dup3\n        /* \"#utility.yul\":18337:18355   */\n      add\n        /* \"#utility.yul\":18329:18355   */\n      swap1\n      pop\n        /* \"#utility.yul\":18401:18410   */\n      dup2\n        /* \"#utility.yul\":18395:18399   */\n      dup2\n        /* \"#utility.yul\":18391:18411   */\n      sub\n        /* \"#utility.yul\":18387:18388   */\n      0x00\n        /* \"#utility.yul\":18376:18385   */\n      dup4\n        /* \"#utility.yul\":18372:18389   */\n      add\n        /* \"#utility.yul\":18365:18412   */\n      mstore\n        /* \"#utility.yul\":18429:18560   */\n      tag_429\n        /* \"#utility.yul\":18555:18559   */\n      dup2\n        /* \"#utility.yul\":18429:18560   */\n      tag_259\n      jump\t// in\n    tag_429:\n        /* \"#utility.yul\":18421:18560   */\n      swap1\n      pop\n        /* \"#utility.yul\":18148:18567   */\n      swap2\n      swap1\n      pop\n      jump\t// out\n        /* \"#utility.yul\":18573:18798   */\n    tag_260:\n        /* \"#utility.yul\":18713:18747   */\n      0x45524332303a207472616e7366657220616d6f756e7420657863656564732062\n        /* \"#utility.yul\":18709:18710   */\n      0x00\n        /* \"#utility.yul\":18701:18707   */\n      dup3\n        /* \"#utility.yul\":18697:18711   */\n      add\n        /* \"#utility.yul\":18690:18748   */\n      mstore\n        /* \"#utility.yul\":18782:18790   */\n      0x616c616e63650000000000000000000000000000000000000000000000000000\n        /* \"#utility.yul\":18777:18779   */\n      0x20\n        /* \"#utility.yul\":18769:18775   */\n      dup3\n        /* \"#utility.yul\":18765:18780   */\n      add\n        /* \"#utility.yul\":18758:18791   */\n      mstore\n        /* \"#utility.yul\":18573:18798   */\n      pop\n      jump\t// out\n        /* \"#utility.yul\":18804:19170   */\n    tag_261:\n        /* \"#utility.yul\":18946:18949   */\n      0x00\n        /* \"#utility.yul\":18967:19034   */\n      tag_432\n        /* \"#utility.yul\":19031:19033   */\n      0x26\n        /* \"#utility.yul\":19026:19029   */\n      dup4\n        /* \"#utility.yul\":18967:19034   */\n      tag_210\n      jump\t// in\n    tag_432:\n        /* \"#utility.yul\":18960:19034   */\n      swap2\n      pop\n        /* \"#utility.yul\":19043:19136   */\n      tag_433\n        /* \"#utility.yul\":19132:19135   */\n      dup3\n        /* \"#utility.yul\":19043:19136   */\n      tag_260\n      jump\t// in\n    tag_433:\n        /* \"#utility.yul\":19161:19163   */\n      0x40\n        /* \"#utility.yul\":19156:19159   */\n      dup3\n        /* \"#utility.yul\":19152:19164   */\n      add\n        /* \"#utility.yul\":19145:19164   */\n      swap1\n      pop\n        /* \"#utility.yul\":18804:19170   */\n      swap2\n      swap1\n      pop\n      jump\t// out\n        /* \"#utility.yul\":19176:19595   */\n    tag_187:\n        /* \"#utility.yul\":19342:19346   */\n      0x00\n        /* \"#utility.yul\":19380:19382   */\n      0x20\n        /* \"#utility.yul\":19369:19378   */\n      dup3\n        /* \"#utility.yul\":19365:19383   */\n      add\n        /* \"#utility.yul\":19357:19383   */\n      swap1\n      pop\n        /* \"#utility.yul\":19429:19438   */\n      dup2\n        /* \"#utility.yul\":19423:19427   */\n      dup2\n        /* \"#utility.yul\":19419:19439   */\n      sub\n        /* \"#utility.yul\":19415:19416   */\n      0x00\n        /* \"#utility.yul\":19404:19413   */\n      dup4\n        /* \"#utility.yul\":19400:19417   */\n      add\n        /* \"#utility.yul\":19393:19440   */\n      mstore\n        /* \"#utility.yul\":19457:19588   */\n      tag_435\n        /* \"#utility.yul\":19583:19587   */\n      dup2\n        /* \"#utility.yul\":19457:19588   */\n      tag_261\n      jump\t// in\n    tag_435:\n        /* \"#utility.yul\":19449:19588   */\n      swap1\n      pop\n        /* \"#utility.yul\":19176:19595   */\n      swap2\n      swap1\n      pop\n      jump\t// out\n        /* \"#utility.yul\":19601:19783   */\n    tag_262:\n        /* \"#utility.yul\":19741:19775   */\n      0x4f776e61626c653a2063616c6c6572206973206e6f7420746865206f776e6572\n        /* \"#utility.yul\":19737:19738   */\n      0x00\n        /* \"#utility.yul\":19729:19735   */\n      dup3\n        /* \"#utility.yul\":19725:19739   */\n      add\n        /* \"#utility.yul\":19718:19776   */\n      mstore\n        /* \"#utility.yul\":19601:19783   */\n      pop\n      jump\t// out\n        /* \"#utility.yul\":19789:20155   */\n    tag_263:\n        /* \"#utility.yul\":19931:19934   */\n      0x00\n        /* \"#utility.yul\":19952:20019   */\n      tag_438\n        /* \"#utility.yul\":20016:20018   */\n      0x20\n        /* \"#utility.yul\":20011:20014   */\n      dup4\n        /* \"#utility.yul\":19952:20019   */\n      tag_210\n      jump\t// in\n    tag_438:\n        /* \"#utility.yul\":19945:20019   */\n      swap2\n      pop\n        /* \"#utility.yul\":20028:20121   */\n      tag_439\n        /* \"#utility.yul\":20117:20120   */\n      dup3\n        /* \"#utility.yul\":20028:20121   */\n      tag_262\n      jump\t// in\n    tag_439:\n        /* \"#utility.yul\":20146:20148   */\n      0x20\n        /* \"#utility.yul\":20141:20144   */\n      dup3\n        /* \"#utility.yul\":20137:20149   */\n      add\n        /* \"#utility.yul\":20130:20149   */\n      swap1\n      pop\n        /* \"#utility.yul\":19789:20155   */\n      swap2\n      swap1\n      pop\n      jump\t// out\n        /* \"#utility.yul\":20161:20580   */\n    tag_196:\n        /* \"#utility.yul\":20327:20331   */\n      0x00\n        /* \"#utility.yul\":20365:20367   */\n      0x20\n        /* \"#utility.yul\":20354:20363   */\n      dup3\n        /* \"#utility.yul\":20350:20368   */\n      add\n        /* \"#utility.yul\":20342:20368   */\n      swap1\n      pop\n        /* \"#utility.yul\":20414:20423   */\n      dup2\n        /* \"#utility.yul\":20408:20412   */\n      dup2\n        /* \"#utility.yul\":20404:20424   */\n      sub\n        /* \"#utility.yul\":20400:20401   */\n      0x00\n        /* \"#utility.yul\":20389:20398   */\n      dup4\n        /* \"#utility.yul\":20385:20402   */\n      add\n        /* \"#utility.yul\":20378:20425   */\n      mstore\n        /* \"#utility.yul\":20442:20573   */\n      tag_441\n        /* \"#utility.yul\":20568:20572   */\n      dup2\n        /* \"#utility.yul\":20442:20573   */\n      tag_263\n      jump\t// in\n    tag_441:\n        /* \"#utility.yul\":20434:20573   */\n      swap1\n      pop\n        /* \"#utility.yul\":20161:20580   */\n      swap2\n      swap1\n      pop\n      jump\t// out\n        /* \"#utility.yul\":20586:20780   */\n    tag_202:\n        /* \"#utility.yul\":20626:20630   */\n      0x00\n        /* \"#utility.yul\":20646:20666   */\n      tag_443\n        /* \"#utility.yul\":20664:20665   */\n      dup3\n        /* \"#utility.yul\":20646:20666   */\n      tag_221\n      jump\t// in\n    tag_443:\n        /* \"#utility.yul\":20641:20666   */\n      swap2\n      pop\n        /* \"#utility.yul\":20680:20700   */\n      tag_444\n        /* \"#utility.yul\":20698:20699   */\n      dup4\n        /* \"#utility.yul\":20680:20700   */\n      tag_221\n      jump\t// in\n    tag_444:\n        /* \"#utility.yul\":20675:20700   */\n      swap3\n      pop\n        /* \"#utility.yul\":20724:20725   */\n      dup3\n        /* \"#utility.yul\":20721:20722   */\n      dup3\n        /* \"#utility.yul\":20717:20726   */\n      sub\n        /* \"#utility.yul\":20709:20726   */\n      swap1\n      pop\n        /* \"#utility.yul\":20748:20749   */\n      dup2\n        /* \"#utility.yul\":20742:20746   */\n      dup2\n        /* \"#utility.yul\":20739:20750   */\n      gt\n        /* \"#utility.yul\":20736:20773   */\n      iszero\n      tag_445\n      jumpi\n        /* \"#utility.yul\":20753:20771   */\n      tag_446\n      tag_245\n      jump\t// in\n    tag_446:\n        /* \"#utility.yul\":20736:20773   */\n    tag_445:\n        /* \"#utility.yul\":20586:20780   */\n      swap3\n      swap2\n      pop\n      pop\n      jump\t// out\n\n    auxdata: 0xa264697066735822122040435ce296ca4859148f54623e39825d4b1178564de1fef07d0d206e39b7ab0e64736f6c63430008140033\n}\n",
				"bytecode": {
					"linkReferences": {},
					"object": "608060405234801562000010575f80fd5b50604051620023b9380380620023b9833981810160405281019062000036919062000418565b6040518060400160405280600b81526020017f41737365745368617265730000000000000000000000000000000000000000008152506040518060400160405280600381526020017f41534800000000000000000000000000000000000000000000000000000000008152508160039081620000b39190620006a3565b508060049081620000c59190620006a3565b505050620000e8620000dc620001a360201b60201c565b620001aa60201b60201c565b620000fa33826200026d60201b60201c565b600733908060018154018082558091505060019003905f5260205f20015f9091909190916101000a81548173ffffffffffffffffffffffffffffffffffffffff021916908373ffffffffffffffffffffffffffffffffffffffff1602179055508060065f3373ffffffffffffffffffffffffffffffffffffffff1673ffffffffffffffffffffffffffffffffffffffff1681526020019081526020015f20819055505062000898565b5f33905090565b5f60055f9054906101000a900473ffffffffffffffffffffffffffffffffffffffff1690508160055f6101000a81548173ffffffffffffffffffffffffffffffffffffffff021916908373ffffffffffffffffffffffffffffffffffffffff1602179055508173ffffffffffffffffffffffffffffffffffffffff168173ffffffffffffffffffffffffffffffffffffffff167f8be0079c531659141344cd1fd0a4f28419497f9722a3daafe3b4186f6b6457e060405160405180910390a35050565b5f73ffffffffffffffffffffffffffffffffffffffff168273ffffffffffffffffffffffffffffffffffffffff1603620002de576040517f08c379a0000000000000000000000000000000000000000000000000000000008152600401620002d590620007e5565b60405180910390fd5b620002f15f8383620003d260201b60201c565b8060025f82825462000304919062000832565b92505081905550805f808473ffffffffffffffffffffffffffffffffffffffff1673ffffffffffffffffffffffffffffffffffffffff1681526020019081526020015f205f82825401925050819055508173ffffffffffffffffffffffffffffffffffffffff165f73ffffffffffffffffffffffffffffffffffffffff167fddf252ad1be2c89b69c2b068fc378daa952ba7f163c4a11628f55a4df523b3ef83604051620003b391906200087d565b60405180910390a3620003ce5f8383620003d760201b60201c565b5050565b505050565b505050565b5f80fd5b5f819050919050565b620003f481620003e0565b8114620003ff575f80fd5b50565b5f815190506200041281620003e9565b92915050565b5f6020828403121562000430576200042f620003dc565b5b5f6200043f8482850162000402565b91505092915050565b5f81519050919050565b7f4e487b71000000000000000000000000000000000000000000000000000000005f52604160045260245ffd5b7f4e487b71000000000000000000000000000000000000000000000000000000005f52602260045260245ffd5b5f6002820490506001821680620004c457607f821691505b602082108103620004da57620004d96200047f565b5b50919050565b5f819050815f5260205f209050919050565b5f6020601f8301049050919050565b5f82821b905092915050565b5f600883026200053e7fffffffffffffffffffffffffffffffffffffffffffffffffffffffffffffffff8262000501565b6200054a868362000501565b95508019841693508086168417925050509392505050565b5f819050919050565b5f6200058b620005856200057f84620003e0565b62000562565b620003e0565b9050919050565b5f819050919050565b620005a6836200056b565b620005be620005b58262000592565b8484546200050d565b825550505050565b5f90565b620005d4620005c6565b620005e18184846200059b565b505050565b5b818110156200060857620005fc5f82620005ca565b600181019050620005e7565b5050565b601f82111562000657576200062181620004e0565b6200062c84620004f2565b810160208510156200063c578190505b620006546200064b85620004f2565b830182620005e6565b50505b505050565b5f82821c905092915050565b5f620006795f19846008026200065c565b1980831691505092915050565b5f62000693838362000668565b9150826002028217905092915050565b620006ae8262000448565b67ffffffffffffffff811115620006ca57620006c962000452565b5b620006d68254620004ac565b620006e38282856200060c565b5f60209050601f83116001811462000719575f841562000704578287015190505b62000710858262000686565b8655506200077f565b601f1984166200072986620004e0565b5f5b8281101562000752578489015182556001820191506020850194506020810190506200072b565b868310156200077257848901516200076e601f89168262000668565b8355505b6001600288020188555050505b505050505050565b5f82825260208201905092915050565b7f45524332303a206d696e7420746f20746865207a65726f2061646472657373005f82015250565b5f620007cd601f8362000787565b9150620007da8262000797565b602082019050919050565b5f6020820190508181035f830152620007fe81620007bf565b9050919050565b7f4e487b71000000000000000000000000000000000000000000000000000000005f52601160045260245ffd5b5f6200083e82620003e0565b91506200084b83620003e0565b925082820190508082111562000866576200086562000805565b5b92915050565b6200087781620003e0565b82525050565b5f602082019050620008925f8301846200086c565b92915050565b611b1380620008a65f395ff3fe608060405234801561000f575f80fd5b50600436106100f3575f3560e01c806370a0823111610095578063a457c2d711610064578063a457c2d714610276578063a9059cbb146102a6578063dd62ed3e146102d6578063f2fde38b14610306576100f3565b806370a0823114610200578063715018a6146102305780638da5cb5b1461023a57806395d89b4114610258576100f3565b80631d92f25e116100d15780631d92f25e1461016357806323b872dd14610182578063313ce567146101b257806339509351146101d0576100f3565b806306fdde03146100f7578063095ea7b31461011557806318160ddd14610145575b5f80fd5b6100ff610322565b60405161010c9190611098565b60405180910390f35b61012f600480360381019061012a9190611149565b6103b2565b60405161013c91906111a1565b60405180910390f35b61014d6103d4565b60405161015a91906111c9565b60405180910390f35b61016b6103dd565b604051610179929190611350565b60405180910390f35b61019c60048036038101906101979190611385565b61057d565b6040516101a991906111a1565b60405180910390f35b6101ba6105ab565b6040516101c791906113f0565b60405180910390f35b6101ea60048036038101906101e59190611149565b6105b3565b6040516101f791906111a1565b60405180910390f35b61021a60048036038101906102159190611409565b6105e9565b60405161022791906111c9565b60405180910390f35b61023861062e565b005b610242610641565b60405161024f9190611443565b60405180910390f35b610260610669565b60405161026d9190611098565b60405180910390f35b610290600480360381019061028b9190611149565b6106f9565b60405161029d91906111a1565b60405180910390f35b6102c060048036038101906102bb9190611149565b61076e565b6040516102cd91906111a1565b60405180910390f35b6102f060048036038101906102eb919061145c565b61078c565b6040516102fd91906111c9565b60405180910390f35b610320600480360381019061031b9190611409565b61080e565b005b606060038054610331906114c7565b80601f016020809104026020016040519081016040528092919081815260200182805461035d906114c7565b80156103a85780601f1061037f576101008083540402835291602001916103a8565b820191905f5260205f20905b81548152906001019060200180831161038b57829003601f168201915b5050505050905090565b5f806103bc610890565b90506103c9818585610897565b600191505092915050565b5f600254905090565b6060805f60078054905067ffffffffffffffff811115610400576103ff6114f7565b5b60405190808252806020026020018201604052801561042e5781602001602082028036833780820191505090505b5090505f5b6007805490508110156104eb5760065f6007838154811061045757610456611524565b5b905f5260205f20015f9054906101000a900473ffffffffffffffffffffffffffffffffffffffff1673ffffffffffffffffffffffffffffffffffffffff1673ffffffffffffffffffffffffffffffffffffffff1681526020019081526020015f20548282815181106104cc576104cb611524565b5b60200260200101818152505080806104e39061157e565b915050610433565b506007818180548060200260200160405190810160405280929190818152602001828054801561056d57602002820191905f5260205f20905b815f9054906101000a900473ffffffffffffffffffffffffffffffffffffffff1673ffffffffffffffffffffffffffffffffffffffff1681526020019060010190808311610524575b5050505050915092509250509091565b5f80610587610890565b9050610594858285610a5a565b61059f858585610ae5565b60019150509392505050565b5f6012905090565b5f806105bd610890565b90506105de8185856105cf858961078c565b6105d991906115c5565b610897565b600191505092915050565b5f805f8373ffffffffffffffffffffffffffffffffffffffff1673ffffffffffffffffffffffffffffffffffffffff1681526020019081526020015f20549050919050565b610636610d51565b61063f5f610dcf565b565b5f60055f9054906101000a900473ffffffffffffffffffffffffffffffffffffffff16905090565b606060048054610678906114c7565b80601f01602080910402602001604051908101604052809291908181526020018280546106a4906114c7565b80156106ef5780601f106106c6576101008083540402835291602001916106ef565b820191905f5260205f20905b8154815290600101906020018083116106d257829003601f168201915b5050505050905090565b5f80610703610890565b90505f610710828661078c565b905083811015610755576040517f08c379a000000000000000000000000000000000000000000000000000000000815260040161074c90611668565b60405180910390fd5b6107628286868403610897565b60019250505092915050565b5f61077a338484610e92565b6107848383610fe2565b905092915050565b5f60015f8473ffffffffffffffffffffffffffffffffffffffff1673ffffffffffffffffffffffffffffffffffffffff1681526020019081526020015f205f8373ffffffffffffffffffffffffffffffffffffffff1673ffffffffffffffffffffffffffffffffffffffff1681526020019081526020015f2054905092915050565b610816610d51565b5f73ffffffffffffffffffffffffffffffffffffffff168173ffffffffffffffffffffffffffffffffffffffff1603610884576040517f08c379a000000000000000000000000000000000000000000000000000000000815260040161087b906116f6565b60405180910390fd5b61088d81610dcf565b50565b5f33905090565b5f73ffffffffffffffffffffffffffffffffffffffff168373ffffffffffffffffffffffffffffffffffffffff1603610905576040517f08c379a00000000000000000000000000000000000000000000000000000000081526004016108fc90611784565b60405180910390fd5b5f73ffffffffffffffffffffffffffffffffffffffff168273ffffffffffffffffffffffffffffffffffffffff1603610973576040517f08c379a000000000000000000000000000000000000000000000000000000000815260040161096a90611812565b60405180910390fd5b8060015f8573ffffffffffffffffffffffffffffffffffffffff1673ffffffffffffffffffffffffffffffffffffffff1681526020019081526020015f205f8473ffffffffffffffffffffffffffffffffffffffff1673ffffffffffffffffffffffffffffffffffffffff1681526020019081526020015f20819055508173ffffffffffffffffffffffffffffffffffffffff168373ffffffffffffffffffffffffffffffffffffffff167f8c5be1e5ebec7d5bd14f71427d1e84f3dd0314c0f7b2291e5b200ac8c7c3b92583604051610a4d91906111c9565b60405180910390a3505050565b5f610a65848461078c565b90507fffffffffffffffffffffffffffffffffffffffffffffffffffffffffffffffff8114610adf5781811015610ad1576040517f08c379a0000000000000000000000000000000000000000000000000000000008152600401610ac89061187a565b60405180910390fd5b610ade8484848403610897565b5b50505050565b5f73ffffffffffffffffffffffffffffffffffffffff168373ffffffffffffffffffffffffffffffffffffffff1603610b53576040517f08c379a0000000000000000000000000000000000000000000000000000000008152600401610b4a90611908565b60405180910390fd5b5f73ffffffffffffffffffffffffffffffffffffffff168273ffffffffffffffffffffffffffffffffffffffff1603610bc1576040517f08c379a0000000000000000000000000000000000000000000000000000000008152600401610bb890611996565b60405180910390fd5b610bcc838383611004565b5f805f8573ffffffffffffffffffffffffffffffffffffffff1673ffffffffffffffffffffffffffffffffffffffff1681526020019081526020015f2054905081811015610c4f576040517f08c379a0000000000000000000000000000000000000000000000000000000008152600401610c4690611a24565b60405180910390fd5b8181035f808673ffffffffffffffffffffffffffffffffffffffff1673ffffffffffffffffffffffffffffffffffffffff1681526020019081526020015f2081905550815f808573ffffffffffffffffffffffffffffffffffffffff1673ffffffffffffffffffffffffffffffffffffffff1681526020019081526020015f205f82825401925050819055508273ffffffffffffffffffffffffffffffffffffffff168473ffffffffffffffffffffffffffffffffffffffff167fddf252ad1be2c89b69c2b068fc378daa952ba7f163c4a11628f55a4df523b3ef84604051610d3891906111c9565b60405180910390a3610d4b848484611009565b50505050565b610d59610890565b73ffffffffffffffffffffffffffffffffffffffff16610d77610641565b73ffffffffffffffffffffffffffffffffffffffff1614610dcd576040517f08c379a0000000000000000000000000000000000000000000000000000000008152600401610dc490611a8c565b60405180910390fd5b565b5f60055f9054906101000a900473ffffffffffffffffffffffffffffffffffffffff1690508160055f6101000a81548173ffffffffffffffffffffffffffffffffffffffff021916908373ffffffffffffffffffffffffffffffffffffffff1602179055508173ffffffffffffffffffffffffffffffffffffffff168173ffffffffffffffffffffffffffffffffffffffff167f8be0079c531659141344cd1fd0a4f28419497f9722a3daafe3b4186f6b6457e060405160405180910390a35050565b5f60065f8473ffffffffffffffffffffffffffffffffffffffff1673ffffffffffffffffffffffffffffffffffffffff1681526020019081526020015f205403610f3757600782908060018154018082558091505060019003905f5260205f20015f9091909190916101000a81548173ffffffffffffffffffffffffffffffffffffffff021916908373ffffffffffffffffffffffffffffffffffffffff1602179055505b8060065f8573ffffffffffffffffffffffffffffffffffffffff1673ffffffffffffffffffffffffffffffffffffffff1681526020019081526020015f205f828254610f839190611aaa565b925050819055508060065f8473ffffffffffffffffffffffffffffffffffffffff1673ffffffffffffffffffffffffffffffffffffffff1681526020019081526020015f205f828254610fd691906115c5565b92505081905550505050565b5f80610fec610890565b9050610ff9818585610ae5565b600191505092915050565b505050565b505050565b5f81519050919050565b5f82825260208201905092915050565b5f5b8381101561104557808201518184015260208101905061102a565b5f8484015250505050565b5f601f19601f8301169050919050565b5f61106a8261100e565b6110748185611018565b9350611084818560208601611028565b61108d81611050565b840191505092915050565b5f6020820190508181035f8301526110b08184611060565b905092915050565b5f80fd5b5f73ffffffffffffffffffffffffffffffffffffffff82169050919050565b5f6110e5826110bc565b9050919050565b6110f5816110db565b81146110ff575f80fd5b50565b5f81359050611110816110ec565b92915050565b5f819050919050565b61112881611116565b8114611132575f80fd5b50565b5f813590506111438161111f565b92915050565b5f806040838503121561115f5761115e6110b8565b5b5f61116c85828601611102565b925050602061117d85828601611135565b9150509250929050565b5f8115159050919050565b61119b81611187565b82525050565b5f6020820190506111b45f830184611192565b92915050565b6111c381611116565b82525050565b5f6020820190506111dc5f8301846111ba565b92915050565b5f81519050919050565b5f82825260208201905092915050565b5f819050602082019050919050565b611214816110db565b82525050565b5f611225838361120b565b60208301905092915050565b5f602082019050919050565b5f611247826111e2565b61125181856111ec565b935061125c836111fc565b805f5b8381101561128c578151611273888261121a565b975061127e83611231565b92505060018101905061125f565b5085935050505092915050565b5f81519050919050565b5f82825260208201905092915050565b5f819050602082019050919050565b6112cb81611116565b82525050565b5f6112dc83836112c2565b60208301905092915050565b5f602082019050919050565b5f6112fe82611299565b61130881856112a3565b9350611313836112b3565b805f5b8381101561134357815161132a88826112d1565b9750611335836112e8565b925050600181019050611316565b5085935050505092915050565b5f6040820190508181035f830152611368818561123d565b9050818103602083015261137c81846112f4565b90509392505050565b5f805f6060848603121561139c5761139b6110b8565b5b5f6113a986828701611102565b93505060206113ba86828701611102565b92505060406113cb86828701611135565b9150509250925092565b5f60ff82169050919050565b6113ea816113d5565b82525050565b5f6020820190506114035f8301846113e1565b92915050565b5f6020828403121561141e5761141d6110b8565b5b5f61142b84828501611102565b91505092915050565b61143d816110db565b82525050565b5f6020820190506114565f830184611434565b92915050565b5f8060408385031215611472576114716110b8565b5b5f61147f85828601611102565b925050602061149085828601611102565b9150509250929050565b7f4e487b71000000000000000000000000000000000000000000000000000000005f52602260045260245ffd5b5f60028204905060018216806114de57607f821691505b6020821081036114f1576114f061149a565b5b50919050565b7f4e487b71000000000000000000000000000000000000000000000000000000005f52604160045260245ffd5b7f4e487b71000000000000000000000000000000000000000000000000000000005f52603260045260245ffd5b7f4e487b71000000000000000000000000000000000000000000000000000000005f52601160045260245ffd5b5f61158882611116565b91507fffffffffffffffffffffffffffffffffffffffffffffffffffffffffffffffff82036115ba576115b9611551565b5b600182019050919050565b5f6115cf82611116565b91506115da83611116565b92508282019050808211156115f2576115f1611551565b5b92915050565b7f45524332303a2064656372656173656420616c6c6f77616e63652062656c6f775f8201527f207a65726f000000000000000000000000000000000000000000000000000000602082015250565b5f611652602583611018565b915061165d826115f8565b604082019050919050565b5f6020820190508181035f83015261167f81611646565b9050919050565b7f4f776e61626c653a206e6577206f776e657220697320746865207a65726f20615f8201527f6464726573730000000000000000000000000000000000000000000000000000602082015250565b5f6116e0602683611018565b91506116eb82611686565b604082019050919050565b5f6020820190508181035f83015261170d816116d4565b9050919050565b7f45524332303a20617070726f76652066726f6d20746865207a65726f206164645f8201527f7265737300000000000000000000000000000000000000000000000000000000602082015250565b5f61176e602483611018565b915061177982611714565b604082019050919050565b5f6020820190508181035f83015261179b81611762565b9050919050565b7f45524332303a20617070726f766520746f20746865207a65726f2061646472655f8201527f7373000000000000000000000000000000000000000000000000000000000000602082015250565b5f6117fc602283611018565b9150611807826117a2565b604082019050919050565b5f6020820190508181035f830152611829816117f0565b9050919050565b7f45524332303a20696e73756666696369656e7420616c6c6f77616e63650000005f82015250565b5f611864601d83611018565b915061186f82611830565b602082019050919050565b5f6020820190508181035f83015261189181611858565b9050919050565b7f45524332303a207472616e736665722066726f6d20746865207a65726f2061645f8201527f6472657373000000000000000000000000000000000000000000000000000000602082015250565b5f6118f2602583611018565b91506118fd82611898565b604082019050919050565b5f6020820190508181035f83015261191f816118e6565b9050919050565b7f45524332303a207472616e7366657220746f20746865207a65726f20616464725f8201527f6573730000000000000000000000000000000000000000000000000000000000602082015250565b5f611980602383611018565b915061198b82611926565b604082019050919050565b5f6020820190508181035f8301526119ad81611974565b9050919050565b7f45524332303a207472616e7366657220616d6f756e74206578636565647320625f8201527f616c616e63650000000000000000000000000000000000000000000000000000602082015250565b5f611a0e602683611018565b9150611a19826119b4565b604082019050919050565b5f6020820190508181035f830152611a3b81611a02565b9050919050565b7f4f776e61626c653a2063616c6c6572206973206e6f7420746865206f776e65725f82015250565b5f611a76602083611018565b9150611a8182611a42565b602082019050919050565b5f6020820190508181035f830152611aa381611a6a565b9050919050565b5f611ab482611116565b9150611abf83611116565b9250828203905081811115611ad757611ad6611551565b5b9291505056fea264697066735822122040435ce296ca4859148f54623e39825d4b1178564de1fef07d0d206e39b7ab0e64736f6c63430008140033",
					"opcodes": "PUSH1 0x80 PUSH1 0x40 MSTORE CALLVALUE DUP1 ISZERO PUSH3 0x10 JUMPI PUSH0 DUP1 REVERT JUMPDEST POP PUSH1 0x40 MLOAD PUSH3 0x23B9 CODESIZE SUB DUP1 PUSH3 0x23B9 DUP4 CODECOPY DUP2 DUP2 ADD PUSH1 0x40 MSTORE DUP2 ADD SWAP1 PUSH3 0x36 SWAP2 SWAP1 PUSH3 0x418 JUMP JUMPDEST PUSH1 0x40 MLOAD DUP1 PUSH1 0x40 ADD PUSH1 0x40 MSTORE DUP1 PUSH1 0xB DUP2 MSTORE PUSH1 0x20 ADD PUSH32 0x4173736574536861726573000000000000000000000000000000000000000000 DUP2 MSTORE POP PUSH1 0x40 MLOAD DUP1 PUSH1 0x40 ADD PUSH1 0x40 MSTORE DUP1 PUSH1 0x3 DUP2 MSTORE PUSH1 0x20 ADD PUSH32 0x4153480000000000000000000000000000000000000000000000000000000000 DUP2 MSTORE POP DUP2 PUSH1 0x3 SWAP1 DUP2 PUSH3 0xB3 SWAP2 SWAP1 PUSH3 0x6A3 JUMP JUMPDEST POP DUP1 PUSH1 0x4 SWAP1 DUP2 PUSH3 0xC5 SWAP2 SWAP1 PUSH3 0x6A3 JUMP JUMPDEST POP POP POP PUSH3 0xE8 PUSH3 0xDC PUSH3 0x1A3 PUSH1 0x20 SHL PUSH1 0x20 SHR JUMP JUMPDEST PUSH3 0x1AA PUSH1 0x20 SHL PUSH1 0x20 SHR JUMP JUMPDEST PUSH3 0xFA CALLER DUP3 PUSH3 0x26D PUSH1 0x20 SHL PUSH1 0x20 SHR JUMP JUMPDEST PUSH1 0x7 CALLER SWAP1 DUP1 PUSH1 0x1 DUP2 SLOAD ADD DUP1 DUP3 SSTORE DUP1 SWAP2 POP POP PUSH1 0x1 SWAP1 SUB SWAP1 PUSH0 MSTORE PUSH1 0x20 PUSH0 KECCAK256 ADD PUSH0 SWAP1 SWAP2 SWAP1 SWAP2 SWAP1 SWAP2 PUSH2 0x100 EXP DUP2 SLOAD DUP2 PUSH20 0xFFFFFFFFFFFFFFFFFFFFFFFFFFFFFFFFFFFFFFFF MUL NOT AND SWAP1 DUP4 PUSH20 0xFFFFFFFFFFFFFFFFFFFFFFFFFFFFFFFFFFFFFFFF AND MUL OR SWAP1 SSTORE POP DUP1 PUSH1 0x6 PUSH0 CALLER PUSH20 0xFFFFFFFFFFFFFFFFFFFFFFFFFFFFFFFFFFFFFFFF AND PUSH20 0xFFFFFFFFFFFFFFFFFFFFFFFFFFFFFFFFFFFFFFFF AND DUP2 MSTORE PUSH1 0x20 ADD SWAP1 DUP2 MSTORE PUSH1 0x20 ADD PUSH0 KECCAK256 DUP2 SWAP1 SSTORE POP POP PUSH3 0x898 JUMP JUMPDEST PUSH0 CALLER SWAP1 POP SWAP1 JUMP JUMPDEST PUSH0 PUSH1 0x5 PUSH0 SWAP1 SLOAD SWAP1 PUSH2 0x100 EXP SWAP1 DIV PUSH20 0xFFFFFFFFFFFFFFFFFFFFFFFFFFFFFFFFFFFFFFFF AND SWAP1 POP DUP2 PUSH1 0x5 PUSH0 PUSH2 0x100 EXP DUP2 SLOAD DUP2 PUSH20 0xFFFFFFFFFFFFFFFFFFFFFFFFFFFFFFFFFFFFFFFF MUL NOT AND SWAP1 DUP4 PUSH20 0xFFFFFFFFFFFFFFFFFFFFFFFFFFFFFFFFFFFFFFFF AND MUL OR SWAP1 SSTORE POP DUP2 PUSH20 0xFFFFFFFFFFFFFFFFFFFFFFFFFFFFFFFFFFFFFFFF AND DUP2 PUSH20 0xFFFFFFFFFFFFFFFFFFFFFFFFFFFFFFFFFFFFFFFF AND PUSH32 0x8BE0079C531659141344CD1FD0A4F28419497F9722A3DAAFE3B4186F6B6457E0 PUSH1 0x40 MLOAD PUSH1 0x40 MLOAD DUP1 SWAP2 SUB SWAP1 LOG3 POP POP JUMP JUMPDEST PUSH0 PUSH20 0xFFFFFFFFFFFFFFFFFFFFFFFFFFFFFFFFFFFFFFFF AND DUP3 PUSH20 0xFFFFFFFFFFFFFFFFFFFFFFFFFFFFFFFFFFFFFFFF AND SUB PUSH3 0x2DE JUMPI PUSH1 0x40 MLOAD PUSH32 0x8C379A000000000000000000000000000000000000000000000000000000000 DUP2 MSTORE PUSH1 0x4 ADD PUSH3 0x2D5 SWAP1 PUSH3 0x7E5 JUMP JUMPDEST PUSH1 0x40 MLOAD DUP1 SWAP2 SUB SWAP1 REVERT JUMPDEST PUSH3 0x2F1 PUSH0 DUP4 DUP4 PUSH3 0x3D2 PUSH1 0x20 SHL PUSH1 0x20 SHR JUMP JUMPDEST DUP1 PUSH1 0x2 PUSH0 DUP3 DUP3 SLOAD PUSH3 0x304 SWAP2 SWAP1 PUSH3 0x832 JUMP JUMPDEST SWAP3 POP POP DUP2 SWAP1 SSTORE POP DUP1 PUSH0 DUP1 DUP5 PUSH20 0xFFFFFFFFFFFFFFFFFFFFFFFFFFFFFFFFFFFFFFFF AND PUSH20 0xFFFFFFFFFFFFFFFFFFFFFFFFFFFFFFFFFFFFFFFF AND DUP2 MSTORE PUSH1 0x20 ADD SWAP1 DUP2 MSTORE PUSH1 0x20 ADD PUSH0 KECCAK256 PUSH0 DUP3 DUP3 SLOAD ADD SWAP3 POP POP DUP2 SWAP1 SSTORE POP DUP2 PUSH20 0xFFFFFFFFFFFFFFFFFFFFFFFFFFFFFFFFFFFFFFFF AND PUSH0 PUSH20 0xFFFFFFFFFFFFFFFFFFFFFFFFFFFFFFFFFFFFFFFF AND PUSH32 0xDDF252AD1BE2C89B69C2B068FC378DAA952BA7F163C4A11628F55A4DF523B3EF DUP4 PUSH1 0x40 MLOAD PUSH3 0x3B3 SWAP2 SWAP1 PUSH3 0x87D JUMP JUMPDEST PUSH1 0x40 MLOAD DUP1 SWAP2 SUB SWAP1 LOG3 PUSH3 0x3CE PUSH0 DUP4 DUP4 PUSH3 0x3D7 PUSH1 0x20 SHL PUSH1 0x20 SHR JUMP JUMPDEST POP POP JUMP JUMPDEST POP POP POP JUMP JUMPDEST POP POP POP JUMP JUMPDEST PUSH0 DUP1 REVERT JUMPDEST PUSH0 DUP2 SWAP1 POP SWAP2 SWAP1 POP JUMP JUMPDEST PUSH3 0x3F4 DUP2 PUSH3 0x3E0 JUMP JUMPDEST DUP2 EQ PUSH3 0x3FF JUMPI PUSH0 DUP1 REVERT JUMPDEST POP JUMP JUMPDEST PUSH0 DUP2 MLOAD SWAP1 POP PUSH3 0x412 DUP2 PUSH3 0x3E9 JUMP JUMPDEST SWAP3 SWAP2 POP POP JUMP JUMPDEST PUSH0 PUSH1 0x20 DUP3 DUP5 SUB SLT ISZERO PUSH3 0x430 JUMPI PUSH3 0x42F PUSH3 0x3DC JUMP JUMPDEST JUMPDEST PUSH0 PUSH3 0x43F DUP5 DUP3 DUP6 ADD PUSH3 0x402 JUMP JUMPDEST SWAP2 POP POP SWAP3 SWAP2 POP POP JUMP JUMPDEST PUSH0 DUP2 MLOAD SWAP1 POP SWAP2 SWAP1 POP JUMP JUMPDEST PUSH32 0x4E487B7100000000000000000000000000000000000000000000000000000000 PUSH0 MSTORE PUSH1 0x41 PUSH1 0x4 MSTORE PUSH1 0x24 PUSH0 REVERT JUMPDEST PUSH32 0x4E487B7100000000000000000000000000000000000000000000000000000000 PUSH0 MSTORE PUSH1 0x22 PUSH1 0x4 MSTORE PUSH1 0x24 PUSH0 REVERT JUMPDEST PUSH0 PUSH1 0x2 DUP3 DIV SWAP1 POP PUSH1 0x1 DUP3 AND DUP1 PUSH3 0x4C4 JUMPI PUSH1 0x7F DUP3 AND SWAP2 POP JUMPDEST PUSH1 0x20 DUP3 LT DUP2 SUB PUSH3 0x4DA JUMPI PUSH3 0x4D9 PUSH3 0x47F JUMP JUMPDEST JUMPDEST POP SWAP2 SWAP1 POP JUMP JUMPDEST PUSH0 DUP2 SWAP1 POP DUP2 PUSH0 MSTORE PUSH1 0x20 PUSH0 KECCAK256 SWAP1 POP SWAP2 SWAP1 POP JUMP JUMPDEST PUSH0 PUSH1 0x20 PUSH1 0x1F DUP4 ADD DIV SWAP1 POP SWAP2 SWAP1 POP JUMP JUMPDEST PUSH0 DUP3 DUP3 SHL SWAP1 POP SWAP3 SWAP2 POP POP JUMP JUMPDEST PUSH0 PUSH1 0x8 DUP4 MUL PUSH3 0x53E PUSH32 0xFFFFFFFFFFFFFFFFFFFFFFFFFFFFFFFFFFFFFFFFFFFFFFFFFFFFFFFFFFFFFFFF DUP3 PUSH3 0x501 JUMP JUMPDEST PUSH3 0x54A DUP7 DUP4 PUSH3 0x501 JUMP JUMPDEST SWAP6 POP DUP1 NOT DUP5 AND SWAP4 POP DUP1 DUP7 AND DUP5 OR SWAP3 POP POP POP SWAP4 SWAP3 POP POP POP JUMP JUMPDEST PUSH0 DUP2 SWAP1 POP SWAP2 SWAP1 POP JUMP JUMPDEST PUSH0 PUSH3 0x58B PUSH3 0x585 PUSH3 0x57F DUP5 PUSH3 0x3E0 JUMP JUMPDEST PUSH3 0x562 JUMP JUMPDEST PUSH3 0x3E0 JUMP JUMPDEST SWAP1 POP SWAP2 SWAP1 POP JUMP JUMPDEST PUSH0 DUP2 SWAP1 POP SWAP2 SWAP1 POP JUMP JUMPDEST PUSH3 0x5A6 DUP4 PUSH3 0x56B JUMP JUMPDEST PUSH3 0x5BE PUSH3 0x5B5 DUP3 PUSH3 0x592 JUMP JUMPDEST DUP5 DUP5 SLOAD PUSH3 0x50D JUMP JUMPDEST DUP3 SSTORE POP POP POP POP JUMP JUMPDEST PUSH0 SWAP1 JUMP JUMPDEST PUSH3 0x5D4 PUSH3 0x5C6 JUMP JUMPDEST PUSH3 0x5E1 DUP2 DUP5 DUP5 PUSH3 0x59B JUMP JUMPDEST POP POP POP JUMP JUMPDEST JUMPDEST DUP2 DUP2 LT ISZERO PUSH3 0x608 JUMPI PUSH3 0x5FC PUSH0 DUP3 PUSH3 0x5CA JUMP JUMPDEST PUSH1 0x1 DUP2 ADD SWAP1 POP PUSH3 0x5E7 JUMP JUMPDEST POP POP JUMP JUMPDEST PUSH1 0x1F DUP3 GT ISZERO PUSH3 0x657 JUMPI PUSH3 0x621 DUP2 PUSH3 0x4E0 JUMP JUMPDEST PUSH3 0x62C DUP5 PUSH3 0x4F2 JUMP JUMPDEST DUP2 ADD PUSH1 0x20 DUP6 LT ISZERO PUSH3 0x63C JUMPI DUP2 SWAP1 POP JUMPDEST PUSH3 0x654 PUSH3 0x64B DUP6 PUSH3 0x4F2 JUMP JUMPDEST DUP4 ADD DUP3 PUSH3 0x5E6 JUMP JUMPDEST POP POP JUMPDEST POP POP POP JUMP JUMPDEST PUSH0 DUP3 DUP3 SHR SWAP1 POP SWAP3 SWAP2 POP POP JUMP JUMPDEST PUSH0 PUSH3 0x679 PUSH0 NOT DUP5 PUSH1 0x8 MUL PUSH3 0x65C JUMP JUMPDEST NOT DUP1 DUP4 AND SWAP2 POP POP SWAP3 SWAP2 POP POP JUMP JUMPDEST PUSH0 PUSH3 0x693 DUP4 DUP4 PUSH3 0x668 JUMP JUMPDEST SWAP2 POP DUP3 PUSH1 0x2 MUL DUP3 OR SWAP1 POP SWAP3 SWAP2 POP POP JUMP JUMPDEST PUSH3 0x6AE DUP3 PUSH3 0x448 JUMP JUMPDEST PUSH8 0xFFFFFFFFFFFFFFFF DUP2 GT ISZERO PUSH3 0x6CA JUMPI PUSH3 0x6C9 PUSH3 0x452 JUMP JUMPDEST JUMPDEST PUSH3 0x6D6 DUP3 SLOAD PUSH3 0x4AC JUMP JUMPDEST PUSH3 0x6E3 DUP3 DUP3 DUP6 PUSH3 0x60C JUMP JUMPDEST PUSH0 PUSH1 0x20 SWAP1 POP PUSH1 0x1F DUP4 GT PUSH1 0x1 DUP2 EQ PUSH3 0x719 JUMPI PUSH0 DUP5 ISZERO PUSH3 0x704 JUMPI DUP3 DUP8 ADD MLOAD SWAP1 POP JUMPDEST PUSH3 0x710 DUP6 DUP3 PUSH3 0x686 JUMP JUMPDEST DUP7 SSTORE POP PUSH3 0x77F JUMP JUMPDEST PUSH1 0x1F NOT DUP5 AND PUSH3 0x729 DUP7 PUSH3 0x4E0 JUMP JUMPDEST PUSH0 JUMPDEST DUP3 DUP2 LT ISZERO PUSH3 0x752 JUMPI DUP5 DUP10 ADD MLOAD DUP3 SSTORE PUSH1 0x1 DUP3 ADD SWAP2 POP PUSH1 0x20 DUP6 ADD SWAP5 POP PUSH1 0x20 DUP2 ADD SWAP1 POP PUSH3 0x72B JUMP JUMPDEST DUP7 DUP4 LT ISZERO PUSH3 0x772 JUMPI DUP5 DUP10 ADD MLOAD PUSH3 0x76E PUSH1 0x1F DUP10 AND DUP3 PUSH3 0x668 JUMP JUMPDEST DUP4 SSTORE POP JUMPDEST PUSH1 0x1 PUSH1 0x2 DUP9 MUL ADD DUP9 SSTORE POP POP POP JUMPDEST POP POP POP POP POP POP JUMP JUMPDEST PUSH0 DUP3 DUP3 MSTORE PUSH1 0x20 DUP3 ADD SWAP1 POP SWAP3 SWAP2 POP POP JUMP JUMPDEST PUSH32 0x45524332303A206D696E7420746F20746865207A65726F206164647265737300 PUSH0 DUP3 ADD MSTORE POP JUMP JUMPDEST PUSH0 PUSH3 0x7CD PUSH1 0x1F DUP4 PUSH3 0x787 JUMP JUMPDEST SWAP2 POP PUSH3 0x7DA DUP3 PUSH3 0x797 JUMP JUMPDEST PUSH1 0x20 DUP3 ADD SWAP1 POP SWAP2 SWAP1 POP JUMP JUMPDEST PUSH0 PUSH1 0x20 DUP3 ADD SWAP1 POP DUP2 DUP2 SUB PUSH0 DUP4 ADD MSTORE PUSH3 0x7FE DUP2 PUSH3 0x7BF JUMP JUMPDEST SWAP1 POP SWAP2 SWAP1 POP JUMP JUMPDEST PUSH32 0x4E487B7100000000000000000000000000000000000000000000000000000000 PUSH0 MSTORE PUSH1 0x11 PUSH1 0x4 MSTORE PUSH1 0x24 PUSH0 REVERT JUMPDEST PUSH0 PUSH3 0x83E DUP3 PUSH3 0x3E0 JUMP JUMPDEST SWAP2 POP PUSH3 0x84B DUP4 PUSH3 0x3E0 JUMP JUMPDEST SWAP3 POP DUP3 DUP3 ADD SWAP1 POP DUP1 DUP3 GT ISZERO PUSH3 0x866 JUMPI PUSH3 0x865 PUSH3 0x805 JUMP JUMPDEST JUMPDEST SWAP3 SWAP2 POP POP JUMP JUMPDEST PUSH3 0x877 DUP2 PUSH3 0x3E0 JUMP JUMPDEST DUP3 MSTORE POP POP JUMP JUMPDEST PUSH0 PUSH1 0x20 DUP3 ADD SWAP1 POP PUSH3 0x892 PUSH0 DUP4 ADD DUP5 PUSH3 0x86C JUMP JUMPDEST SWAP3 SWAP2 POP POP JUMP JUMPDEST PUSH2 0x1B13 DUP1 PUSH3 0x8A6 PUSH0 CODECOPY PUSH0 RETURN INVALID PUSH1 0x80 PUSH1 0x40 MSTORE CALLVALUE DUP1 ISZERO PUSH2 0xF JUMPI PUSH0 DUP1 REVERT JUMPDEST POP PUSH1 0x4 CALLDATASIZE LT PUSH2 0xF3 JUMPI PUSH0 CALLDATALOAD PUSH1 0xE0 SHR DUP1 PUSH4 0x70A08231 GT PUSH2 0x95 JUMPI DUP1 PUSH4 0xA457C2D7 GT PUSH2 0x64 JUMPI DUP1 PUSH4 0xA457C2D7 EQ PUSH2 0x276 JUMPI DUP1 PUSH4 0xA9059CBB EQ PUSH2 0x2A6 JUMPI DUP1 PUSH4 0xDD62ED3E EQ PUSH2 0x2D6 JUMPI DUP1 PUSH4 0xF2FDE38B EQ PUSH2 0x306 JUMPI PUSH2 0xF3 JUMP JUMPDEST DUP1 PUSH4 0x70A08231 EQ PUSH2 0x200 JUMPI DUP1 PUSH4 0x715018A6 EQ PUSH2 0x230 JUMPI DUP1 PUSH4 0x8DA5CB5B EQ PUSH2 0x23A JUMPI DUP1 PUSH4 0x95D89B41 EQ PUSH2 0x258 JUMPI PUSH2 0xF3 JUMP JUMPDEST DUP1 PUSH4 0x1D92F25E GT PUSH2 0xD1 JUMPI DUP1 PUSH4 0x1D92F25E EQ PUSH2 0x163 JUMPI DUP1 PUSH4 0x23B872DD EQ PUSH2 0x182 JUMPI DUP1 PUSH4 0x313CE567 EQ PUSH2 0x1B2 JUMPI DUP1 PUSH4 0x39509351 EQ PUSH2 0x1D0 JUMPI PUSH2 0xF3 JUMP JUMPDEST DUP1 PUSH4 0x6FDDE03 EQ PUSH2 0xF7 JUMPI DUP1 PUSH4 0x95EA7B3 EQ PUSH2 0x115 JUMPI DUP1 PUSH4 0x18160DDD EQ PUSH2 0x145 JUMPI JUMPDEST PUSH0 DUP1 REVERT JUMPDEST PUSH2 0xFF PUSH2 0x322 JUMP JUMPDEST PUSH1 0x40 MLOAD PUSH2 0x10C SWAP2 SWAP1 PUSH2 0x1098 JUMP JUMPDEST PUSH1 0x40 MLOAD DUP1 SWAP2 SUB SWAP1 RETURN JUMPDEST PUSH2 0x12F PUSH1 0x4 DUP1 CALLDATASIZE SUB DUP2 ADD SWAP1 PUSH2 0x12A SWAP2 SWAP1 PUSH2 0x1149 JUMP JUMPDEST PUSH2 0x3B2 JUMP JUMPDEST PUSH1 0x40 MLOAD PUSH2 0x13C SWAP2 SWAP1 PUSH2 0x11A1 JUMP JUMPDEST PUSH1 0x40 MLOAD DUP1 SWAP2 SUB SWAP1 RETURN JUMPDEST PUSH2 0x14D PUSH2 0x3D4 JUMP JUMPDEST PUSH1 0x40 MLOAD PUSH2 0x15A SWAP2 SWAP1 PUSH2 0x11C9 JUMP JUMPDEST PUSH1 0x40 MLOAD DUP1 SWAP2 SUB SWAP1 RETURN JUMPDEST PUSH2 0x16B PUSH2 0x3DD JUMP JUMPDEST PUSH1 0x40 MLOAD PUSH2 0x179 SWAP3 SWAP2 SWAP1 PUSH2 0x1350 JUMP JUMPDEST PUSH1 0x40 MLOAD DUP1 SWAP2 SUB SWAP1 RETURN JUMPDEST PUSH2 0x19C PUSH1 0x4 DUP1 CALLDATASIZE SUB DUP2 ADD SWAP1 PUSH2 0x197 SWAP2 SWAP1 PUSH2 0x1385 JUMP JUMPDEST PUSH2 0x57D JUMP JUMPDEST PUSH1 0x40 MLOAD PUSH2 0x1A9 SWAP2 SWAP1 PUSH2 0x11A1 JUMP JUMPDEST PUSH1 0x40 MLOAD DUP1 SWAP2 SUB SWAP1 RETURN JUMPDEST PUSH2 0x1BA PUSH2 0x5AB JUMP JUMPDEST PUSH1 0x40 MLOAD PUSH2 0x1C7 SWAP2 SWAP1 PUSH2 0x13F0 JUMP JUMPDEST PUSH1 0x40 MLOAD DUP1 SWAP2 SUB SWAP1 RETURN JUMPDEST PUSH2 0x1EA PUSH1 0x4 DUP1 CALLDATASIZE SUB DUP2 ADD SWAP1 PUSH2 0x1E5 SWAP2 SWAP1 PUSH2 0x1149 JUMP JUMPDEST PUSH2 0x5B3 JUMP JUMPDEST PUSH1 0x40 MLOAD PUSH2 0x1F7 SWAP2 SWAP1 PUSH2 0x11A1 JUMP JUMPDEST PUSH1 0x40 MLOAD DUP1 SWAP2 SUB SWAP1 RETURN JUMPDEST PUSH2 0x21A PUSH1 0x4 DUP1 CALLDATASIZE SUB DUP2 ADD SWAP1 PUSH2 0x215 SWAP2 SWAP1 PUSH2 0x1409 JUMP JUMPDEST PUSH2 0x5E9 JUMP JUMPDEST PUSH1 0x40 MLOAD PUSH2 0x227 SWAP2 SWAP1 PUSH2 0x11C9 JUMP JUMPDEST PUSH1 0x40 MLOAD DUP1 SWAP2 SUB SWAP1 RETURN JUMPDEST PUSH2 0x238 PUSH2 0x62E JUMP JUMPDEST STOP JUMPDEST PUSH2 0x242 PUSH2 0x641 JUMP JUMPDEST PUSH1 0x40 MLOAD PUSH2 0x24F SWAP2 SWAP1 PUSH2 0x1443 JUMP JUMPDEST PUSH1 0x40 MLOAD DUP1 SWAP2 SUB SWAP1 RETURN JUMPDEST PUSH2 0x260 PUSH2 0x669 JUMP JUMPDEST PUSH1 0x40 MLOAD PUSH2 0x26D SWAP2 SWAP1 PUSH2 0x1098 JUMP JUMPDEST PUSH1 0x40 MLOAD DUP1 SWAP2 SUB SWAP1 RETURN JUMPDEST PUSH2 0x290 PUSH1 0x4 DUP1 CALLDATASIZE SUB DUP2 ADD SWAP1 PUSH2 0x28B SWAP2 SWAP1 PUSH2 0x1149 JUMP JUMPDEST PUSH2 0x6F9 JUMP JUMPDEST PUSH1 0x40 MLOAD PUSH2 0x29D SWAP2 SWAP1 PUSH2 0x11A1 JUMP JUMPDEST PUSH1 0x40 MLOAD DUP1 SWAP2 SUB SWAP1 RETURN JUMPDEST PUSH2 0x2C0 PUSH1 0x4 DUP1 CALLDATASIZE SUB DUP2 ADD SWAP1 PUSH2 0x2BB SWAP2 SWAP1 PUSH2 0x1149 JUMP JUMPDEST PUSH2 0x76E JUMP JUMPDEST PUSH1 0x40 MLOAD PUSH2 0x2CD SWAP2 SWAP1 PUSH2 0x11A1 JUMP JUMPDEST PUSH1 0x40 MLOAD DUP1 SWAP2 SUB SWAP1 RETURN JUMPDEST PUSH2 0x2F0 PUSH1 0x4 DUP1 CALLDATASIZE SUB DUP2 ADD SWAP1 PUSH2 0x2EB SWAP2 SWAP1 PUSH2 0x145C JUMP JUMPDEST PUSH2 0x78C JUMP JUMPDEST PUSH1 0x40 MLOAD PUSH2 0x2FD SWAP2 SWAP1 PUSH2 0x11C9 JUMP JUMPDEST PUSH1 0x40 MLOAD DUP1 SWAP2 SUB SWAP1 RETURN JUMPDEST PUSH2 0x320 PUSH1 0x4 DUP1 CALLDATASIZE SUB DUP2 ADD SWAP1 PUSH2 0x31B SWAP2 SWAP1 PUSH2 0x1409 JUMP JUMPDEST PUSH2 0x80E JUMP JUMPDEST STOP JUMPDEST PUSH1 0x60 PUSH1 0x3 DUP1 SLOAD PUSH2 0x331 SWAP1 PUSH2 0x14C7 JUMP JUMPDEST DUP1 PUSH1 0x1F ADD PUSH1 0x20 DUP1 SWAP2 DIV MUL PUSH1 0x20 ADD PUSH1 0x40 MLOAD SWAP1 DUP2 ADD PUSH1 0x40 MSTORE DUP1 SWAP3 SWAP2 SWAP1 DUP2 DUP2 MSTORE PUSH1 0x20 ADD DUP3 DUP1 SLOAD PUSH2 0x35D SWAP1 PUSH2 0x14C7 JUMP JUMPDEST DUP1 ISZERO PUSH2 0x3A8 JUMPI DUP1 PUSH1 0x1F LT PUSH2 0x37F JUMPI PUSH2 0x100 DUP1 DUP4 SLOAD DIV MUL DUP4 MSTORE SWAP2 PUSH1 0x20 ADD SWAP2 PUSH2 0x3A8 JUMP JUMPDEST DUP3 ADD SWAP2 SWAP1 PUSH0 MSTORE PUSH1 0x20 PUSH0 KECCAK256 SWAP1 JUMPDEST DUP2 SLOAD DUP2 MSTORE SWAP1 PUSH1 0x1 ADD SWAP1 PUSH1 0x20 ADD DUP1 DUP4 GT PUSH2 0x38B JUMPI DUP3 SWAP1 SUB PUSH1 0x1F AND DUP3 ADD SWAP2 JUMPDEST POP POP POP POP POP SWAP1 POP SWAP1 JUMP JUMPDEST PUSH0 DUP1 PUSH2 0x3BC PUSH2 0x890 JUMP JUMPDEST SWAP1 POP PUSH2 0x3C9 DUP2 DUP6 DUP6 PUSH2 0x897 JUMP JUMPDEST PUSH1 0x1 SWAP2 POP POP SWAP3 SWAP2 POP POP JUMP JUMPDEST PUSH0 PUSH1 0x2 SLOAD SWAP1 POP SWAP1 JUMP JUMPDEST PUSH1 0x60 DUP1 PUSH0 PUSH1 0x7 DUP1 SLOAD SWAP1 POP PUSH8 0xFFFFFFFFFFFFFFFF DUP2 GT ISZERO PUSH2 0x400 JUMPI PUSH2 0x3FF PUSH2 0x14F7 JUMP JUMPDEST JUMPDEST PUSH1 0x40 MLOAD SWAP1 DUP1 DUP3 MSTORE DUP1 PUSH1 0x20 MUL PUSH1 0x20 ADD DUP3 ADD PUSH1 0x40 MSTORE DUP1 ISZERO PUSH2 0x42E JUMPI DUP2 PUSH1 0x20 ADD PUSH1 0x20 DUP3 MUL DUP1 CALLDATASIZE DUP4 CALLDATACOPY DUP1 DUP3 ADD SWAP2 POP POP SWAP1 POP JUMPDEST POP SWAP1 POP PUSH0 JUMPDEST PUSH1 0x7 DUP1 SLOAD SWAP1 POP DUP2 LT ISZERO PUSH2 0x4EB JUMPI PUSH1 0x6 PUSH0 PUSH1 0x7 DUP4 DUP2 SLOAD DUP2 LT PUSH2 0x457 JUMPI PUSH2 0x456 PUSH2 0x1524 JUMP JUMPDEST JUMPDEST SWAP1 PUSH0 MSTORE PUSH1 0x20 PUSH0 KECCAK256 ADD PUSH0 SWAP1 SLOAD SWAP1 PUSH2 0x100 EXP SWAP1 DIV PUSH20 0xFFFFFFFFFFFFFFFFFFFFFFFFFFFFFFFFFFFFFFFF AND PUSH20 0xFFFFFFFFFFFFFFFFFFFFFFFFFFFFFFFFFFFFFFFF AND PUSH20 0xFFFFFFFFFFFFFFFFFFFFFFFFFFFFFFFFFFFFFFFF AND DUP2 MSTORE PUSH1 0x20 ADD SWAP1 DUP2 MSTORE PUSH1 0x20 ADD PUSH0 KECCAK256 SLOAD DUP3 DUP3 DUP2 MLOAD DUP2 LT PUSH2 0x4CC JUMPI PUSH2 0x4CB PUSH2 0x1524 JUMP JUMPDEST JUMPDEST PUSH1 0x20 MUL PUSH1 0x20 ADD ADD DUP2 DUP2 MSTORE POP POP DUP1 DUP1 PUSH2 0x4E3 SWAP1 PUSH2 0x157E JUMP JUMPDEST SWAP2 POP POP PUSH2 0x433 JUMP JUMPDEST POP PUSH1 0x7 DUP2 DUP2 DUP1 SLOAD DUP1 PUSH1 0x20 MUL PUSH1 0x20 ADD PUSH1 0x40 MLOAD SWAP1 DUP2 ADD PUSH1 0x40 MSTORE DUP1 SWAP3 SWAP2 SWAP1 DUP2 DUP2 MSTORE PUSH1 0x20 ADD DUP3 DUP1 SLOAD DUP1 ISZERO PUSH2 0x56D JUMPI PUSH1 0x20 MUL DUP3 ADD SWAP2 SWAP1 PUSH0 MSTORE PUSH1 0x20 PUSH0 KECCAK256 SWAP1 JUMPDEST DUP2 PUSH0 SWAP1 SLOAD SWAP1 PUSH2 0x100 EXP SWAP1 DIV PUSH20 0xFFFFFFFFFFFFFFFFFFFFFFFFFFFFFFFFFFFFFFFF AND PUSH20 0xFFFFFFFFFFFFFFFFFFFFFFFFFFFFFFFFFFFFFFFF AND DUP2 MSTORE PUSH1 0x20 ADD SWAP1 PUSH1 0x1 ADD SWAP1 DUP1 DUP4 GT PUSH2 0x524 JUMPI JUMPDEST POP POP POP POP POP SWAP2 POP SWAP3 POP SWAP3 POP POP SWAP1 SWAP2 JUMP JUMPDEST PUSH0 DUP1 PUSH2 0x587 PUSH2 0x890 JUMP JUMPDEST SWAP1 POP PUSH2 0x594 DUP6 DUP3 DUP6 PUSH2 0xA5A JUMP JUMPDEST PUSH2 0x59F DUP6 DUP6 DUP6 PUSH2 0xAE5 JUMP JUMPDEST PUSH1 0x1 SWAP2 POP POP SWAP4 SWAP3 POP POP POP JUMP JUMPDEST PUSH0 PUSH1 0x12 SWAP1 POP SWAP1 JUMP JUMPDEST PUSH0 DUP1 PUSH2 0x5BD PUSH2 0x890 JUMP JUMPDEST SWAP1 POP PUSH2 0x5DE DUP2 DUP6 DUP6 PUSH2 0x5CF DUP6 DUP10 PUSH2 0x78C JUMP JUMPDEST PUSH2 0x5D9 SWAP2 SWAP1 PUSH2 0x15C5 JUMP JUMPDEST PUSH2 0x897 JUMP JUMPDEST PUSH1 0x1 SWAP2 POP POP SWAP3 SWAP2 POP POP JUMP JUMPDEST PUSH0 DUP1 PUSH0 DUP4 PUSH20 0xFFFFFFFFFFFFFFFFFFFFFFFFFFFFFFFFFFFFFFFF AND PUSH20 0xFFFFFFFFFFFFFFFFFFFFFFFFFFFFFFFFFFFFFFFF AND DUP2 MSTORE PUSH1 0x20 ADD SWAP1 DUP2 MSTORE PUSH1 0x20 ADD PUSH0 KECCAK256 SLOAD SWAP1 POP SWAP2 SWAP1 POP JUMP JUMPDEST PUSH2 0x636 PUSH2 0xD51 JUMP JUMPDEST PUSH2 0x63F PUSH0 PUSH2 0xDCF JUMP JUMPDEST JUMP JUMPDEST PUSH0 PUSH1 0x5 PUSH0 SWAP1 SLOAD SWAP1 PUSH2 0x100 EXP SWAP1 DIV PUSH20 0xFFFFFFFFFFFFFFFFFFFFFFFFFFFFFFFFFFFFFFFF AND SWAP1 POP SWAP1 JUMP JUMPDEST PUSH1 0x60 PUSH1 0x4 DUP1 SLOAD PUSH2 0x678 SWAP1 PUSH2 0x14C7 JUMP JUMPDEST DUP1 PUSH1 0x1F ADD PUSH1 0x20 DUP1 SWAP2 DIV MUL PUSH1 0x20 ADD PUSH1 0x40 MLOAD SWAP1 DUP2 ADD PUSH1 0x40 MSTORE DUP1 SWAP3 SWAP2 SWAP1 DUP2 DUP2 MSTORE PUSH1 0x20 ADD DUP3 DUP1 SLOAD PUSH2 0x6A4 SWAP1 PUSH2 0x14C7 JUMP JUMPDEST DUP1 ISZERO PUSH2 0x6EF JUMPI DUP1 PUSH1 0x1F LT PUSH2 0x6C6 JUMPI PUSH2 0x100 DUP1 DUP4 SLOAD DIV MUL DUP4 MSTORE SWAP2 PUSH1 0x20 ADD SWAP2 PUSH2 0x6EF JUMP JUMPDEST DUP3 ADD SWAP2 SWAP1 PUSH0 MSTORE PUSH1 0x20 PUSH0 KECCAK256 SWAP1 JUMPDEST DUP2 SLOAD DUP2 MSTORE SWAP1 PUSH1 0x1 ADD SWAP1 PUSH1 0x20 ADD DUP1 DUP4 GT PUSH2 0x6D2 JUMPI DUP3 SWAP1 SUB PUSH1 0x1F AND DUP3 ADD SWAP2 JUMPDEST POP POP POP POP POP SWAP1 POP SWAP1 JUMP JUMPDEST PUSH0 DUP1 PUSH2 0x703 PUSH2 0x890 JUMP JUMPDEST SWAP1 POP PUSH0 PUSH2 0x710 DUP3 DUP7 PUSH2 0x78C JUMP JUMPDEST SWAP1 POP DUP4 DUP2 LT ISZERO PUSH2 0x755 JUMPI PUSH1 0x40 MLOAD PUSH32 0x8C379A000000000000000000000000000000000000000000000000000000000 DUP2 MSTORE PUSH1 0x4 ADD PUSH2 0x74C SWAP1 PUSH2 0x1668 JUMP JUMPDEST PUSH1 0x40 MLOAD DUP1 SWAP2 SUB SWAP1 REVERT JUMPDEST PUSH2 0x762 DUP3 DUP7 DUP7 DUP5 SUB PUSH2 0x897 JUMP JUMPDEST PUSH1 0x1 SWAP3 POP POP POP SWAP3 SWAP2 POP POP JUMP JUMPDEST PUSH0 PUSH2 0x77A CALLER DUP5 DUP5 PUSH2 0xE92 JUMP JUMPDEST PUSH2 0x784 DUP4 DUP4 PUSH2 0xFE2 JUMP JUMPDEST SWAP1 POP SWAP3 SWAP2 POP POP JUMP JUMPDEST PUSH0 PUSH1 0x1 PUSH0 DUP5 PUSH20 0xFFFFFFFFFFFFFFFFFFFFFFFFFFFFFFFFFFFFFFFF AND PUSH20 0xFFFFFFFFFFFFFFFFFFFFFFFFFFFFFFFFFFFFFFFF AND DUP2 MSTORE PUSH1 0x20 ADD SWAP1 DUP2 MSTORE PUSH1 0x20 ADD PUSH0 KECCAK256 PUSH0 DUP4 PUSH20 0xFFFFFFFFFFFFFFFFFFFFFFFFFFFFFFFFFFFFFFFF AND PUSH20 0xFFFFFFFFFFFFFFFFFFFFFFFFFFFFFFFFFFFFFFFF AND DUP2 MSTORE PUSH1 0x20 ADD SWAP1 DUP2 MSTORE PUSH1 0x20 ADD PUSH0 KECCAK256 SLOAD SWAP1 POP SWAP3 SWAP2 POP POP JUMP JUMPDEST PUSH2 0x816 PUSH2 0xD51 JUMP JUMPDEST PUSH0 PUSH20 0xFFFFFFFFFFFFFFFFFFFFFFFFFFFFFFFFFFFFFFFF AND DUP2 PUSH20 0xFFFFFFFFFFFFFFFFFFFFFFFFFFFFFFFFFFFFFFFF AND SUB PUSH2 0x884 JUMPI PUSH1 0x40 MLOAD PUSH32 0x8C379A000000000000000000000000000000000000000000000000000000000 DUP2 MSTORE PUSH1 0x4 ADD PUSH2 0x87B SWAP1 PUSH2 0x16F6 JUMP JUMPDEST PUSH1 0x40 MLOAD DUP1 SWAP2 SUB SWAP1 REVERT JUMPDEST PUSH2 0x88D DUP2 PUSH2 0xDCF JUMP JUMPDEST POP JUMP JUMPDEST PUSH0 CALLER SWAP1 POP SWAP1 JUMP JUMPDEST PUSH0 PUSH20 0xFFFFFFFFFFFFFFFFFFFFFFFFFFFFFFFFFFFFFFFF AND DUP4 PUSH20 0xFFFFFFFFFFFFFFFFFFFFFFFFFFFFFFFFFFFFFFFF AND SUB PUSH2 0x905 JUMPI PUSH1 0x40 MLOAD PUSH32 0x8C379A000000000000000000000000000000000000000000000000000000000 DUP2 MSTORE PUSH1 0x4 ADD PUSH2 0x8FC SWAP1 PUSH2 0x1784 JUMP JUMPDEST PUSH1 0x40 MLOAD DUP1 SWAP2 SUB SWAP1 REVERT JUMPDEST PUSH0 PUSH20 0xFFFFFFFFFFFFFFFFFFFFFFFFFFFFFFFFFFFFFFFF AND DUP3 PUSH20 0xFFFFFFFFFFFFFFFFFFFFFFFFFFFFFFFFFFFFFFFF AND SUB PUSH2 0x973 JUMPI PUSH1 0x40 MLOAD PUSH32 0x8C379A000000000000000000000000000000000000000000000000000000000 DUP2 MSTORE PUSH1 0x4 ADD PUSH2 0x96A SWAP1 PUSH2 0x1812 JUMP JUMPDEST PUSH1 0x40 MLOAD DUP1 SWAP2 SUB SWAP1 REVERT JUMPDEST DUP1 PUSH1 0x1 PUSH0 DUP6 PUSH20 0xFFFFFFFFFFFFFFFFFFFFFFFFFFFFFFFFFFFFFFFF AND PUSH20 0xFFFFFFFFFFFFFFFFFFFFFFFFFFFFFFFFFFFFFFFF AND DUP2 MSTORE PUSH1 0x20 ADD SWAP1 DUP2 MSTORE PUSH1 0x20 ADD PUSH0 KECCAK256 PUSH0 DUP5 PUSH20 0xFFFFFFFFFFFFFFFFFFFFFFFFFFFFFFFFFFFFFFFF AND PUSH20 0xFFFFFFFFFFFFFFFFFFFFFFFFFFFFFFFFFFFFFFFF AND DUP2 MSTORE PUSH1 0x20 ADD SWAP1 DUP2 MSTORE PUSH1 0x20 ADD PUSH0 KECCAK256 DUP2 SWAP1 SSTORE POP DUP2 PUSH20 0xFFFFFFFFFFFFFFFFFFFFFFFFFFFFFFFFFFFFFFFF AND DUP4 PUSH20 0xFFFFFFFFFFFFFFFFFFFFFFFFFFFFFFFFFFFFFFFF AND PUSH32 0x8C5BE1E5EBEC7D5BD14F71427D1E84F3DD0314C0F7B2291E5B200AC8C7C3B925 DUP4 PUSH1 0x40 MLOAD PUSH2 0xA4D SWAP2 SWAP1 PUSH2 0x11C9 JUMP JUMPDEST PUSH1 0x40 MLOAD DUP1 SWAP2 SUB SWAP1 LOG3 POP POP POP JUMP JUMPDEST PUSH0 PUSH2 0xA65 DUP5 DUP5 PUSH2 0x78C JUMP JUMPDEST SWAP1 POP PUSH32 0xFFFFFFFFFFFFFFFFFFFFFFFFFFFFFFFFFFFFFFFFFFFFFFFFFFFFFFFFFFFFFFFF DUP2 EQ PUSH2 0xADF JUMPI DUP2 DUP2 LT ISZERO PUSH2 0xAD1 JUMPI PUSH1 0x40 MLOAD PUSH32 0x8C379A000000000000000000000000000000000000000000000000000000000 DUP2 MSTORE PUSH1 0x4 ADD PUSH2 0xAC8 SWAP1 PUSH2 0x187A JUMP JUMPDEST PUSH1 0x40 MLOAD DUP1 SWAP2 SUB SWAP1 REVERT JUMPDEST PUSH2 0xADE DUP5 DUP5 DUP5 DUP5 SUB PUSH2 0x897 JUMP JUMPDEST JUMPDEST POP POP POP POP JUMP JUMPDEST PUSH0 PUSH20 0xFFFFFFFFFFFFFFFFFFFFFFFFFFFFFFFFFFFFFFFF AND DUP4 PUSH20 0xFFFFFFFFFFFFFFFFFFFFFFFFFFFFFFFFFFFFFFFF AND SUB PUSH2 0xB53 JUMPI PUSH1 0x40 MLOAD PUSH32 0x8C379A000000000000000000000000000000000000000000000000000000000 DUP2 MSTORE PUSH1 0x4 ADD PUSH2 0xB4A SWAP1 PUSH2 0x1908 JUMP JUMPDEST PUSH1 0x40 MLOAD DUP1 SWAP2 SUB SWAP1 REVERT JUMPDEST PUSH0 PUSH20 0xFFFFFFFFFFFFFFFFFFFFFFFFFFFFFFFFFFFFFFFF AND DUP3 PUSH20 0xFFFFFFFFFFFFFFFFFFFFFFFFFFFFFFFFFFFFFFFF AND SUB PUSH2 0xBC1 JUMPI PUSH1 0x40 MLOAD PUSH32 0x8C379A000000000000000000000000000000000000000000000000000000000 DUP2 MSTORE PUSH1 0x4 ADD PUSH2 0xBB8 SWAP1 PUSH2 0x1996 JUMP JUMPDEST PUSH1 0x40 MLOAD DUP1 SWAP2 SUB SWAP1 REVERT JUMPDEST PUSH2 0xBCC DUP4 DUP4 DUP4 PUSH2 0x1004 JUMP JUMPDEST PUSH0 DUP1 PUSH0 DUP6 PUSH20 0xFFFFFFFFFFFFFFFFFFFFFFFFFFFFFFFFFFFFFFFF AND PUSH20 0xFFFFFFFFFFFFFFFFFFFFFFFFFFFFFFFFFFFFFFFF AND DUP2 MSTORE PUSH1 0x20 ADD SWAP1 DUP2 MSTORE PUSH1 0x20 ADD PUSH0 KECCAK256 SLOAD SWAP1 POP DUP2 DUP2 LT ISZERO PUSH2 0xC4F JUMPI PUSH1 0x40 MLOAD PUSH32 0x8C379A000000000000000000000000000000000000000000000000000000000 DUP2 MSTORE PUSH1 0x4 ADD PUSH2 0xC46 SWAP1 PUSH2 0x1A24 JUMP JUMPDEST PUSH1 0x40 MLOAD DUP1 SWAP2 SUB SWAP1 REVERT JUMPDEST DUP2 DUP2 SUB PUSH0 DUP1 DUP7 PUSH20 0xFFFFFFFFFFFFFFFFFFFFFFFFFFFFFFFFFFFFFFFF AND PUSH20 0xFFFFFFFFFFFFFFFFFFFFFFFFFFFFFFFFFFFFFFFF AND DUP2 MSTORE PUSH1 0x20 ADD SWAP1 DUP2 MSTORE PUSH1 0x20 ADD PUSH0 KECCAK256 DUP2 SWAP1 SSTORE POP DUP2 PUSH0 DUP1 DUP6 PUSH20 0xFFFFFFFFFFFFFFFFFFFFFFFFFFFFFFFFFFFFFFFF AND PUSH20 0xFFFFFFFFFFFFFFFFFFFFFFFFFFFFFFFFFFFFFFFF AND DUP2 MSTORE PUSH1 0x20 ADD SWAP1 DUP2 MSTORE PUSH1 0x20 ADD PUSH0 KECCAK256 PUSH0 DUP3 DUP3 SLOAD ADD SWAP3 POP POP DUP2 SWAP1 SSTORE POP DUP3 PUSH20 0xFFFFFFFFFFFFFFFFFFFFFFFFFFFFFFFFFFFFFFFF AND DUP5 PUSH20 0xFFFFFFFFFFFFFFFFFFFFFFFFFFFFFFFFFFFFFFFF AND PUSH32 0xDDF252AD1BE2C89B69C2B068FC378DAA952BA7F163C4A11628F55A4DF523B3EF DUP5 PUSH1 0x40 MLOAD PUSH2 0xD38 SWAP2 SWAP1 PUSH2 0x11C9 JUMP JUMPDEST PUSH1 0x40 MLOAD DUP1 SWAP2 SUB SWAP1 LOG3 PUSH2 0xD4B DUP5 DUP5 DUP5 PUSH2 0x1009 JUMP JUMPDEST POP POP POP POP JUMP JUMPDEST PUSH2 0xD59 PUSH2 0x890 JUMP JUMPDEST PUSH20 0xFFFFFFFFFFFFFFFFFFFFFFFFFFFFFFFFFFFFFFFF AND PUSH2 0xD77 PUSH2 0x641 JUMP JUMPDEST PUSH20 0xFFFFFFFFFFFFFFFFFFFFFFFFFFFFFFFFFFFFFFFF AND EQ PUSH2 0xDCD JUMPI PUSH1 0x40 MLOAD PUSH32 0x8C379A000000000000000000000000000000000000000000000000000000000 DUP2 MSTORE PUSH1 0x4 ADD PUSH2 0xDC4 SWAP1 PUSH2 0x1A8C JUMP JUMPDEST PUSH1 0x40 MLOAD DUP1 SWAP2 SUB SWAP1 REVERT JUMPDEST JUMP JUMPDEST PUSH0 PUSH1 0x5 PUSH0 SWAP1 SLOAD SWAP1 PUSH2 0x100 EXP SWAP1 DIV PUSH20 0xFFFFFFFFFFFFFFFFFFFFFFFFFFFFFFFFFFFFFFFF AND SWAP1 POP DUP2 PUSH1 0x5 PUSH0 PUSH2 0x100 EXP DUP2 SLOAD DUP2 PUSH20 0xFFFFFFFFFFFFFFFFFFFFFFFFFFFFFFFFFFFFFFFF MUL NOT AND SWAP1 DUP4 PUSH20 0xFFFFFFFFFFFFFFFFFFFFFFFFFFFFFFFFFFFFFFFF AND MUL OR SWAP1 SSTORE POP DUP2 PUSH20 0xFFFFFFFFFFFFFFFFFFFFFFFFFFFFFFFFFFFFFFFF AND DUP2 PUSH20 0xFFFFFFFFFFFFFFFFFFFFFFFFFFFFFFFFFFFFFFFF AND PUSH32 0x8BE0079C531659141344CD1FD0A4F28419497F9722A3DAAFE3B4186F6B6457E0 PUSH1 0x40 MLOAD PUSH1 0x40 MLOAD DUP1 SWAP2 SUB SWAP1 LOG3 POP POP JUMP JUMPDEST PUSH0 PUSH1 0x6 PUSH0 DUP5 PUSH20 0xFFFFFFFFFFFFFFFFFFFFFFFFFFFFFFFFFFFFFFFF AND PUSH20 0xFFFFFFFFFFFFFFFFFFFFFFFFFFFFFFFFFFFFFFFF AND DUP2 MSTORE PUSH1 0x20 ADD SWAP1 DUP2 MSTORE PUSH1 0x20 ADD PUSH0 KECCAK256 SLOAD SUB PUSH2 0xF37 JUMPI PUSH1 0x7 DUP3 SWAP1 DUP1 PUSH1 0x1 DUP2 SLOAD ADD DUP1 DUP3 SSTORE DUP1 SWAP2 POP POP PUSH1 0x1 SWAP1 SUB SWAP1 PUSH0 MSTORE PUSH1 0x20 PUSH0 KECCAK256 ADD PUSH0 SWAP1 SWAP2 SWAP1 SWAP2 SWAP1 SWAP2 PUSH2 0x100 EXP DUP2 SLOAD DUP2 PUSH20 0xFFFFFFFFFFFFFFFFFFFFFFFFFFFFFFFFFFFFFFFF MUL NOT AND SWAP1 DUP4 PUSH20 0xFFFFFFFFFFFFFFFFFFFFFFFFFFFFFFFFFFFFFFFF AND MUL OR SWAP1 SSTORE POP JUMPDEST DUP1 PUSH1 0x6 PUSH0 DUP6 PUSH20 0xFFFFFFFFFFFFFFFFFFFFFFFFFFFFFFFFFFFFFFFF AND PUSH20 0xFFFFFFFFFFFFFFFFFFFFFFFFFFFFFFFFFFFFFFFF AND DUP2 MSTORE PUSH1 0x20 ADD SWAP1 DUP2 MSTORE PUSH1 0x20 ADD PUSH0 KECCAK256 PUSH0 DUP3 DUP3 SLOAD PUSH2 0xF83 SWAP2 SWAP1 PUSH2 0x1AAA JUMP JUMPDEST SWAP3 POP POP DUP2 SWAP1 SSTORE POP DUP1 PUSH1 0x6 PUSH0 DUP5 PUSH20 0xFFFFFFFFFFFFFFFFFFFFFFFFFFFFFFFFFFFFFFFF AND PUSH20 0xFFFFFFFFFFFFFFFFFFFFFFFFFFFFFFFFFFFFFFFF AND DUP2 MSTORE PUSH1 0x20 ADD SWAP1 DUP2 MSTORE PUSH1 0x20 ADD PUSH0 KECCAK256 PUSH0 DUP3 DUP3 SLOAD PUSH2 0xFD6 SWAP2 SWAP1 PUSH2 0x15C5 JUMP JUMPDEST SWAP3 POP POP DUP2 SWAP1 SSTORE POP POP POP POP JUMP JUMPDEST PUSH0 DUP1 PUSH2 0xFEC PUSH2 0x890 JUMP JUMPDEST SWAP1 POP PUSH2 0xFF9 DUP2 DUP6 DUP6 PUSH2 0xAE5 JUMP JUMPDEST PUSH1 0x1 SWAP2 POP POP SWAP3 SWAP2 POP POP JUMP JUMPDEST POP POP POP JUMP JUMPDEST POP POP POP JUMP JUMPDEST PUSH0 DUP2 MLOAD SWAP1 POP SWAP2 SWAP1 POP JUMP JUMPDEST PUSH0 DUP3 DUP3 MSTORE PUSH1 0x20 DUP3 ADD SWAP1 POP SWAP3 SWAP2 POP POP JUMP JUMPDEST PUSH0 JUMPDEST DUP4 DUP2 LT ISZERO PUSH2 0x1045 JUMPI DUP1 DUP3 ADD MLOAD DUP2 DUP5 ADD MSTORE PUSH1 0x20 DUP2 ADD SWAP1 POP PUSH2 0x102A JUMP JUMPDEST PUSH0 DUP5 DUP5 ADD MSTORE POP POP POP POP JUMP JUMPDEST PUSH0 PUSH1 0x1F NOT PUSH1 0x1F DUP4 ADD AND SWAP1 POP SWAP2 SWAP1 POP JUMP JUMPDEST PUSH0 PUSH2 0x106A DUP3 PUSH2 0x100E JUMP JUMPDEST PUSH2 0x1074 DUP2 DUP6 PUSH2 0x1018 JUMP JUMPDEST SWAP4 POP PUSH2 0x1084 DUP2 DUP6 PUSH1 0x20 DUP7 ADD PUSH2 0x1028 JUMP JUMPDEST PUSH2 0x108D DUP2 PUSH2 0x1050 JUMP JUMPDEST DUP5 ADD SWAP2 POP POP SWAP3 SWAP2 POP POP JUMP JUMPDEST PUSH0 PUSH1 0x20 DUP3 ADD SWAP1 POP DUP2 DUP2 SUB PUSH0 DUP4 ADD MSTORE PUSH2 0x10B0 DUP2 DUP5 PUSH2 0x1060 JUMP JUMPDEST SWAP1 POP SWAP3 SWAP2 POP POP JUMP JUMPDEST PUSH0 DUP1 REVERT JUMPDEST PUSH0 PUSH20 0xFFFFFFFFFFFFFFFFFFFFFFFFFFFFFFFFFFFFFFFF DUP3 AND SWAP1 POP SWAP2 SWAP1 POP JUMP JUMPDEST PUSH0 PUSH2 0x10E5 DUP3 PUSH2 0x10BC JUMP JUMPDEST SWAP1 POP SWAP2 SWAP1 POP JUMP JUMPDEST PUSH2 0x10F5 DUP2 PUSH2 0x10DB JUMP JUMPDEST DUP2 EQ PUSH2 0x10FF JUMPI PUSH0 DUP1 REVERT JUMPDEST POP JUMP JUMPDEST PUSH0 DUP2 CALLDATALOAD SWAP1 POP PUSH2 0x1110 DUP2 PUSH2 0x10EC JUMP JUMPDEST SWAP3 SWAP2 POP POP JUMP JUMPDEST PUSH0 DUP2 SWAP1 POP SWAP2 SWAP1 POP JUMP JUMPDEST PUSH2 0x1128 DUP2 PUSH2 0x1116 JUMP JUMPDEST DUP2 EQ PUSH2 0x1132 JUMPI PUSH0 DUP1 REVERT JUMPDEST POP JUMP JUMPDEST PUSH0 DUP2 CALLDATALOAD SWAP1 POP PUSH2 0x1143 DUP2 PUSH2 0x111F JUMP JUMPDEST SWAP3 SWAP2 POP POP JUMP JUMPDEST PUSH0 DUP1 PUSH1 0x40 DUP4 DUP6 SUB SLT ISZERO PUSH2 0x115F JUMPI PUSH2 0x115E PUSH2 0x10B8 JUMP JUMPDEST JUMPDEST PUSH0 PUSH2 0x116C DUP6 DUP3 DUP7 ADD PUSH2 0x1102 JUMP JUMPDEST SWAP3 POP POP PUSH1 0x20 PUSH2 0x117D DUP6 DUP3 DUP7 ADD PUSH2 0x1135 JUMP JUMPDEST SWAP2 POP POP SWAP3 POP SWAP3 SWAP1 POP JUMP JUMPDEST PUSH0 DUP2 ISZERO ISZERO SWAP1 POP SWAP2 SWAP1 POP JUMP JUMPDEST PUSH2 0x119B DUP2 PUSH2 0x1187 JUMP JUMPDEST DUP3 MSTORE POP POP JUMP JUMPDEST PUSH0 PUSH1 0x20 DUP3 ADD SWAP1 POP PUSH2 0x11B4 PUSH0 DUP4 ADD DUP5 PUSH2 0x1192 JUMP JUMPDEST SWAP3 SWAP2 POP POP JUMP JUMPDEST PUSH2 0x11C3 DUP2 PUSH2 0x1116 JUMP JUMPDEST DUP3 MSTORE POP POP JUMP JUMPDEST PUSH0 PUSH1 0x20 DUP3 ADD SWAP1 POP PUSH2 0x11DC PUSH0 DUP4 ADD DUP5 PUSH2 0x11BA JUMP JUMPDEST SWAP3 SWAP2 POP POP JUMP JUMPDEST PUSH0 DUP2 MLOAD SWAP1 POP SWAP2 SWAP1 POP JUMP JUMPDEST PUSH0 DUP3 DUP3 MSTORE PUSH1 0x20 DUP3 ADD SWAP1 POP SWAP3 SWAP2 POP POP JUMP JUMPDEST PUSH0 DUP2 SWAP1 POP PUSH1 0x20 DUP3 ADD SWAP1 POP SWAP2 SWAP1 POP JUMP JUMPDEST PUSH2 0x1214 DUP2 PUSH2 0x10DB JUMP JUMPDEST DUP3 MSTORE POP POP JUMP JUMPDEST PUSH0 PUSH2 0x1225 DUP4 DUP4 PUSH2 0x120B JUMP JUMPDEST PUSH1 0x20 DUP4 ADD SWAP1 POP SWAP3 SWAP2 POP POP JUMP JUMPDEST PUSH0 PUSH1 0x20 DUP3 ADD SWAP1 POP SWAP2 SWAP1 POP JUMP JUMPDEST PUSH0 PUSH2 0x1247 DUP3 PUSH2 0x11E2 JUMP JUMPDEST PUSH2 0x1251 DUP2 DUP6 PUSH2 0x11EC JUMP JUMPDEST SWAP4 POP PUSH2 0x125C DUP4 PUSH2 0x11FC JUMP JUMPDEST DUP1 PUSH0 JUMPDEST DUP4 DUP2 LT ISZERO PUSH2 0x128C JUMPI DUP2 MLOAD PUSH2 0x1273 DUP9 DUP3 PUSH2 0x121A JUMP JUMPDEST SWAP8 POP PUSH2 0x127E DUP4 PUSH2 0x1231 JUMP JUMPDEST SWAP3 POP POP PUSH1 0x1 DUP2 ADD SWAP1 POP PUSH2 0x125F JUMP JUMPDEST POP DUP6 SWAP4 POP POP POP POP SWAP3 SWAP2 POP POP JUMP JUMPDEST PUSH0 DUP2 MLOAD SWAP1 POP SWAP2 SWAP1 POP JUMP JUMPDEST PUSH0 DUP3 DUP3 MSTORE PUSH1 0x20 DUP3 ADD SWAP1 POP SWAP3 SWAP2 POP POP JUMP JUMPDEST PUSH0 DUP2 SWAP1 POP PUSH1 0x20 DUP3 ADD SWAP1 POP SWAP2 SWAP1 POP JUMP JUMPDEST PUSH2 0x12CB DUP2 PUSH2 0x1116 JUMP JUMPDEST DUP3 MSTORE POP POP JUMP JUMPDEST PUSH0 PUSH2 0x12DC DUP4 DUP4 PUSH2 0x12C2 JUMP JUMPDEST PUSH1 0x20 DUP4 ADD SWAP1 POP SWAP3 SWAP2 POP POP JUMP JUMPDEST PUSH0 PUSH1 0x20 DUP3 ADD SWAP1 POP SWAP2 SWAP1 POP JUMP JUMPDEST PUSH0 PUSH2 0x12FE DUP3 PUSH2 0x1299 JUMP JUMPDEST PUSH2 0x1308 DUP2 DUP6 PUSH2 0x12A3 JUMP JUMPDEST SWAP4 POP PUSH2 0x1313 DUP4 PUSH2 0x12B3 JUMP JUMPDEST DUP1 PUSH0 JUMPDEST DUP4 DUP2 LT ISZERO PUSH2 0x1343 JUMPI DUP2 MLOAD PUSH2 0x132A DUP9 DUP3 PUSH2 0x12D1 JUMP JUMPDEST SWAP8 POP PUSH2 0x1335 DUP4 PUSH2 0x12E8 JUMP JUMPDEST SWAP3 POP POP PUSH1 0x1 DUP2 ADD SWAP1 POP PUSH2 0x1316 JUMP JUMPDEST POP DUP6 SWAP4 POP POP POP POP SWAP3 SWAP2 POP POP JUMP JUMPDEST PUSH0 PUSH1 0x40 DUP3 ADD SWAP1 POP DUP2 DUP2 SUB PUSH0 DUP4 ADD MSTORE PUSH2 0x1368 DUP2 DUP6 PUSH2 0x123D JUMP JUMPDEST SWAP1 POP DUP2 DUP2 SUB PUSH1 0x20 DUP4 ADD MSTORE PUSH2 0x137C DUP2 DUP5 PUSH2 0x12F4 JUMP JUMPDEST SWAP1 POP SWAP4 SWAP3 POP POP POP JUMP JUMPDEST PUSH0 DUP1 PUSH0 PUSH1 0x60 DUP5 DUP7 SUB SLT ISZERO PUSH2 0x139C JUMPI PUSH2 0x139B PUSH2 0x10B8 JUMP JUMPDEST JUMPDEST PUSH0 PUSH2 0x13A9 DUP7 DUP3 DUP8 ADD PUSH2 0x1102 JUMP JUMPDEST SWAP4 POP POP PUSH1 0x20 PUSH2 0x13BA DUP7 DUP3 DUP8 ADD PUSH2 0x1102 JUMP JUMPDEST SWAP3 POP POP PUSH1 0x40 PUSH2 0x13CB DUP7 DUP3 DUP8 ADD PUSH2 0x1135 JUMP JUMPDEST SWAP2 POP POP SWAP3 POP SWAP3 POP SWAP3 JUMP JUMPDEST PUSH0 PUSH1 0xFF DUP3 AND SWAP1 POP SWAP2 SWAP1 POP JUMP JUMPDEST PUSH2 0x13EA DUP2 PUSH2 0x13D5 JUMP JUMPDEST DUP3 MSTORE POP POP JUMP JUMPDEST PUSH0 PUSH1 0x20 DUP3 ADD SWAP1 POP PUSH2 0x1403 PUSH0 DUP4 ADD DUP5 PUSH2 0x13E1 JUMP JUMPDEST SWAP3 SWAP2 POP POP JUMP JUMPDEST PUSH0 PUSH1 0x20 DUP3 DUP5 SUB SLT ISZERO PUSH2 0x141E JUMPI PUSH2 0x141D PUSH2 0x10B8 JUMP JUMPDEST JUMPDEST PUSH0 PUSH2 0x142B DUP5 DUP3 DUP6 ADD PUSH2 0x1102 JUMP JUMPDEST SWAP2 POP POP SWAP3 SWAP2 POP POP JUMP JUMPDEST PUSH2 0x143D DUP2 PUSH2 0x10DB JUMP JUMPDEST DUP3 MSTORE POP POP JUMP JUMPDEST PUSH0 PUSH1 0x20 DUP3 ADD SWAP1 POP PUSH2 0x1456 PUSH0 DUP4 ADD DUP5 PUSH2 0x1434 JUMP JUMPDEST SWAP3 SWAP2 POP POP JUMP JUMPDEST PUSH0 DUP1 PUSH1 0x40 DUP4 DUP6 SUB SLT ISZERO PUSH2 0x1472 JUMPI PUSH2 0x1471 PUSH2 0x10B8 JUMP JUMPDEST JUMPDEST PUSH0 PUSH2 0x147F DUP6 DUP3 DUP7 ADD PUSH2 0x1102 JUMP JUMPDEST SWAP3 POP POP PUSH1 0x20 PUSH2 0x1490 DUP6 DUP3 DUP7 ADD PUSH2 0x1102 JUMP JUMPDEST SWAP2 POP POP SWAP3 POP SWAP3 SWAP1 POP JUMP JUMPDEST PUSH32 0x4E487B7100000000000000000000000000000000000000000000000000000000 PUSH0 MSTORE PUSH1 0x22 PUSH1 0x4 MSTORE PUSH1 0x24 PUSH0 REVERT JUMPDEST PUSH0 PUSH1 0x2 DUP3 DIV SWAP1 POP PUSH1 0x1 DUP3 AND DUP1 PUSH2 0x14DE JUMPI PUSH1 0x7F DUP3 AND SWAP2 POP JUMPDEST PUSH1 0x20 DUP3 LT DUP2 SUB PUSH2 0x14F1 JUMPI PUSH2 0x14F0 PUSH2 0x149A JUMP JUMPDEST JUMPDEST POP SWAP2 SWAP1 POP JUMP JUMPDEST PUSH32 0x4E487B7100000000000000000000000000000000000000000000000000000000 PUSH0 MSTORE PUSH1 0x41 PUSH1 0x4 MSTORE PUSH1 0x24 PUSH0 REVERT JUMPDEST PUSH32 0x4E487B7100000000000000000000000000000000000000000000000000000000 PUSH0 MSTORE PUSH1 0x32 PUSH1 0x4 MSTORE PUSH1 0x24 PUSH0 REVERT JUMPDEST PUSH32 0x4E487B7100000000000000000000000000000000000000000000000000000000 PUSH0 MSTORE PUSH1 0x11 PUSH1 0x4 MSTORE PUSH1 0x24 PUSH0 REVERT JUMPDEST PUSH0 PUSH2 0x1588 DUP3 PUSH2 0x1116 JUMP JUMPDEST SWAP2 POP PUSH32 0xFFFFFFFFFFFFFFFFFFFFFFFFFFFFFFFFFFFFFFFFFFFFFFFFFFFFFFFFFFFFFFFF DUP3 SUB PUSH2 0x15BA JUMPI PUSH2 0x15B9 PUSH2 0x1551 JUMP JUMPDEST JUMPDEST PUSH1 0x1 DUP3 ADD SWAP1 POP SWAP2 SWAP1 POP JUMP JUMPDEST PUSH0 PUSH2 0x15CF DUP3 PUSH2 0x1116 JUMP JUMPDEST SWAP2 POP PUSH2 0x15DA DUP4 PUSH2 0x1116 JUMP JUMPDEST SWAP3 POP DUP3 DUP3 ADD SWAP1 POP DUP1 DUP3 GT ISZERO PUSH2 0x15F2 JUMPI PUSH2 0x15F1 PUSH2 0x1551 JUMP JUMPDEST JUMPDEST SWAP3 SWAP2 POP POP JUMP JUMPDEST PUSH32 0x45524332303A2064656372656173656420616C6C6F77616E63652062656C6F77 PUSH0 DUP3 ADD MSTORE PUSH32 0x207A65726F000000000000000000000000000000000000000000000000000000 PUSH1 0x20 DUP3 ADD MSTORE POP JUMP JUMPDEST PUSH0 PUSH2 0x1652 PUSH1 0x25 DUP4 PUSH2 0x1018 JUMP JUMPDEST SWAP2 POP PUSH2 0x165D DUP3 PUSH2 0x15F8 JUMP JUMPDEST PUSH1 0x40 DUP3 ADD SWAP1 POP SWAP2 SWAP1 POP JUMP JUMPDEST PUSH0 PUSH1 0x20 DUP3 ADD SWAP1 POP DUP2 DUP2 SUB PUSH0 DUP4 ADD MSTORE PUSH2 0x167F DUP2 PUSH2 0x1646 JUMP JUMPDEST SWAP1 POP SWAP2 SWAP1 POP JUMP JUMPDEST PUSH32 0x4F776E61626C653A206E6577206F776E657220697320746865207A65726F2061 PUSH0 DUP3 ADD MSTORE PUSH32 0x6464726573730000000000000000000000000000000000000000000000000000 PUSH1 0x20 DUP3 ADD MSTORE POP JUMP JUMPDEST PUSH0 PUSH2 0x16E0 PUSH1 0x26 DUP4 PUSH2 0x1018 JUMP JUMPDEST SWAP2 POP PUSH2 0x16EB DUP3 PUSH2 0x1686 JUMP JUMPDEST PUSH1 0x40 DUP3 ADD SWAP1 POP SWAP2 SWAP1 POP JUMP JUMPDEST PUSH0 PUSH1 0x20 DUP3 ADD SWAP1 POP DUP2 DUP2 SUB PUSH0 DUP4 ADD MSTORE PUSH2 0x170D DUP2 PUSH2 0x16D4 JUMP JUMPDEST SWAP1 POP SWAP2 SWAP1 POP JUMP JUMPDEST PUSH32 0x45524332303A20617070726F76652066726F6D20746865207A65726F20616464 PUSH0 DUP3 ADD MSTORE PUSH32 0x7265737300000000000000000000000000000000000000000000000000000000 PUSH1 0x20 DUP3 ADD MSTORE POP JUMP JUMPDEST PUSH0 PUSH2 0x176E PUSH1 0x24 DUP4 PUSH2 0x1018 JUMP JUMPDEST SWAP2 POP PUSH2 0x1779 DUP3 PUSH2 0x1714 JUMP JUMPDEST PUSH1 0x40 DUP3 ADD SWAP1 POP SWAP2 SWAP1 POP JUMP JUMPDEST PUSH0 PUSH1 0x20 DUP3 ADD SWAP1 POP DUP2 DUP2 SUB PUSH0 DUP4 ADD MSTORE PUSH2 0x179B DUP2 PUSH2 0x1762 JUMP JUMPDEST SWAP1 POP SWAP2 SWAP1 POP JUMP JUMPDEST PUSH32 0x45524332303A20617070726F766520746F20746865207A65726F206164647265 PUSH0 DUP3 ADD MSTORE PUSH32 0x7373000000000000000000000000000000000000000000000000000000000000 PUSH1 0x20 DUP3 ADD MSTORE POP JUMP JUMPDEST PUSH0 PUSH2 0x17FC PUSH1 0x22 DUP4 PUSH2 0x1018 JUMP JUMPDEST SWAP2 POP PUSH2 0x1807 DUP3 PUSH2 0x17A2 JUMP JUMPDEST PUSH1 0x40 DUP3 ADD SWAP1 POP SWAP2 SWAP1 POP JUMP JUMPDEST PUSH0 PUSH1 0x20 DUP3 ADD SWAP1 POP DUP2 DUP2 SUB PUSH0 DUP4 ADD MSTORE PUSH2 0x1829 DUP2 PUSH2 0x17F0 JUMP JUMPDEST SWAP1 POP SWAP2 SWAP1 POP JUMP JUMPDEST PUSH32 0x45524332303A20696E73756666696369656E7420616C6C6F77616E6365000000 PUSH0 DUP3 ADD MSTORE POP JUMP JUMPDEST PUSH0 PUSH2 0x1864 PUSH1 0x1D DUP4 PUSH2 0x1018 JUMP JUMPDEST SWAP2 POP PUSH2 0x186F DUP3 PUSH2 0x1830 JUMP JUMPDEST PUSH1 0x20 DUP3 ADD SWAP1 POP SWAP2 SWAP1 POP JUMP JUMPDEST PUSH0 PUSH1 0x20 DUP3 ADD SWAP1 POP DUP2 DUP2 SUB PUSH0 DUP4 ADD MSTORE PUSH2 0x1891 DUP2 PUSH2 0x1858 JUMP JUMPDEST SWAP1 POP SWAP2 SWAP1 POP JUMP JUMPDEST PUSH32 0x45524332303A207472616E736665722066726F6D20746865207A65726F206164 PUSH0 DUP3 ADD MSTORE PUSH32 0x6472657373000000000000000000000000000000000000000000000000000000 PUSH1 0x20 DUP3 ADD MSTORE POP JUMP JUMPDEST PUSH0 PUSH2 0x18F2 PUSH1 0x25 DUP4 PUSH2 0x1018 JUMP JUMPDEST SWAP2 POP PUSH2 0x18FD DUP3 PUSH2 0x1898 JUMP JUMPDEST PUSH1 0x40 DUP3 ADD SWAP1 POP SWAP2 SWAP1 POP JUMP JUMPDEST PUSH0 PUSH1 0x20 DUP3 ADD SWAP1 POP DUP2 DUP2 SUB PUSH0 DUP4 ADD MSTORE PUSH2 0x191F DUP2 PUSH2 0x18E6 JUMP JUMPDEST SWAP1 POP SWAP2 SWAP1 POP JUMP JUMPDEST PUSH32 0x45524332303A207472616E7366657220746F20746865207A65726F2061646472 PUSH0 DUP3 ADD MSTORE PUSH32 0x6573730000000000000000000000000000000000000000000000000000000000 PUSH1 0x20 DUP3 ADD MSTORE POP JUMP JUMPDEST PUSH0 PUSH2 0x1980 PUSH1 0x23 DUP4 PUSH2 0x1018 JUMP JUMPDEST SWAP2 POP PUSH2 0x198B DUP3 PUSH2 0x1926 JUMP JUMPDEST PUSH1 0x40 DUP3 ADD SWAP1 POP SWAP2 SWAP1 POP JUMP JUMPDEST PUSH0 PUSH1 0x20 DUP3 ADD SWAP1 POP DUP2 DUP2 SUB PUSH0 DUP4 ADD MSTORE PUSH2 0x19AD DUP2 PUSH2 0x1974 JUMP JUMPDEST SWAP1 POP SWAP2 SWAP1 POP JUMP JUMPDEST PUSH32 0x45524332303A207472616E7366657220616D6F756E7420657863656564732062 PUSH0 DUP3 ADD MSTORE PUSH32 0x616C616E63650000000000000000000000000000000000000000000000000000 PUSH1 0x20 DUP3 ADD MSTORE POP JUMP JUMPDEST PUSH0 PUSH2 0x1A0E PUSH1 0x26 DUP4 PUSH2 0x1018 JUMP JUMPDEST SWAP2 POP PUSH2 0x1A19 DUP3 PUSH2 0x19B4 JUMP JUMPDEST PUSH1 0x40 DUP3 ADD SWAP1 POP SWAP2 SWAP1 POP JUMP JUMPDEST PUSH0 PUSH1 0x20 DUP3 ADD SWAP1 POP DUP2 DUP2 SUB PUSH0 DUP4 ADD MSTORE PUSH2 0x1A3B DUP2 PUSH2 0x1A02 JUMP JUMPDEST SWAP1 POP SWAP2 SWAP1 POP JUMP JUMPDEST PUSH32 0x4F776E61626C653A2063616C6C6572206973206E6F7420746865206F776E6572 PUSH0 DUP3 ADD MSTORE POP JUMP JUMPDEST PUSH0 PUSH2 0x1A76 PUSH1 0x20 DUP4 PUSH2 0x1018 JUMP JUMPDEST SWAP2 POP PUSH2 0x1A81 DUP3 PUSH2 0x1A42 JUMP JUMPDEST PUSH1 0x20 DUP3 ADD SWAP1 POP SWAP2 SWAP1 POP JUMP JUMPDEST PUSH0 PUSH1 0x20 DUP3 ADD SWAP1 POP DUP2 DUP2 SUB PUSH0 DUP4 ADD MSTORE PUSH2 0x1AA3 DUP2 PUSH2 0x1A6A JUMP JUMPDEST SWAP1 POP SWAP2 SWAP1 POP JUMP JUMPDEST PUSH0 PUSH2 0x1AB4 DUP3 PUSH2 0x1116 JUMP JUMPDEST SWAP2 POP PUSH2 0x1ABF DUP4 PUSH2 0x1116 JUMP JUMPDEST SWAP3 POP DUP3 DUP3 SUB SWAP1 POP DUP2 DUP2 GT ISZERO PUSH2 0x1AD7 JUMPI PUSH2 0x1AD6 PUSH2 0x1551 JUMP JUMPDEST JUMPDEST SWAP3 SWAP2 POP POP JUMP INVALID LOG2 PUSH5 0x6970667358 0x22 SLT KECCAK256 BLOCKHASH NUMBER 0x5C 0xE2 SWAP7 0xCA BASEFEE MSIZE EQ DUP16 SLOAD PUSH3 0x3E3982 0x5D 0x4B GT PUSH25 0x564DE1FEF07D0D206E39B7AB0E64736F6C6343000814003300 "
				},
				"gasEstimates": {
					"creation": {
						"codeDepositCost": "1386200",
						"executionCost": "infinite",
						"totalCost": "infinite"
					},
					"external": {
						"allowance(address,address)": "infinite",
						"approve(address,uint256)": "infinite",
						"balanceOf(address)": "2852",
						"decimals()": "405",
						"decreaseAllowance(address,uint256)": "infinite",
						"getAllHolders()": "infinite",
						"increaseAllowance(address,uint256)": "infinite",
						"name()": "infinite",
						"owner()": "2582",
						"renounceOwnership()": "30435",
						"symbol()": "infinite",
						"totalSupply()": "2500",
						"transfer(address,uint256)": "infinite",
						"transferFrom(address,address,uint256)": "infinite",
						"transferOwnership(address)": "30819"
					},
					"internal": {
						"_updateHolders(address,address,uint256)": "infinite"
					}
				},
				"methodIdentifiers": {
					"allowance(address,address)": "dd62ed3e",
					"approve(address,uint256)": "095ea7b3",
					"balanceOf(address)": "70a08231",
					"decimals()": "313ce567",
					"decreaseAllowance(address,uint256)": "a457c2d7",
					"getAllHolders()": "1d92f25e",
					"increaseAllowance(address,uint256)": "39509351",
					"name()": "06fdde03",
					"owner()": "8da5cb5b",
					"renounceOwnership()": "715018a6",
					"symbol()": "95d89b41",
					"totalSupply()": "18160ddd",
					"transfer(address,uint256)": "a9059cbb",
					"transferFrom(address,address,uint256)": "23b872dd",
					"transferOwnership(address)": "f2fde38b"
				}
			},
			"storageLayout": {
				"storage": [
					{
						"astId": 128,
						"contract": "contracts/AquoNewERC20.sol:AssetShares",
						"label": "_balances",
						"offset": 0,
						"slot": "0",
						"type": "t_mapping(t_address,t_uint256)"
					},
					{
						"astId": 134,
						"contract": "contracts/AquoNewERC20.sol:AssetShares",
						"label": "_allowances",
						"offset": 0,
						"slot": "1",
						"type": "t_mapping(t_address,t_mapping(t_address,t_uint256))"
					},
					{
						"astId": 136,
						"contract": "contracts/AquoNewERC20.sol:AssetShares",
						"label": "_totalSupply",
						"offset": 0,
						"slot": "2",
						"type": "t_uint256"
					},
					{
						"astId": 138,
						"contract": "contracts/AquoNewERC20.sol:AssetShares",
						"label": "_name",
						"offset": 0,
						"slot": "3",
						"type": "t_string_storage"
					},
					{
						"astId": 140,
						"contract": "contracts/AquoNewERC20.sol:AssetShares",
						"label": "_symbol",
						"offset": 0,
						"slot": "4",
						"type": "t_string_storage"
					},
					{
						"astId": 7,
						"contract": "contracts/AquoNewERC20.sol:AssetShares",
						"label": "_owner",
						"offset": 0,
						"slot": "5",
						"type": "t_address"
					},
					{
						"astId": 836,
						"contract": "contracts/AquoNewERC20.sol:AssetShares",
						"label": "balances",
						"offset": 0,
						"slot": "6",
						"type": "t_mapping(t_address,t_uint256)"
					},
					{
						"astId": 839,
						"contract": "contracts/AquoNewERC20.sol:AssetShares",
						"label": "holders",
						"offset": 0,
						"slot": "7",
						"type": "t_array(t_address)dyn_storage"
					}
				],
				"types": {
					"t_address": {
						"encoding": "inplace",
						"label": "address",
						"numberOfBytes": "20"
					},
					"t_array(t_address)dyn_storage": {
						"base": "t_address",
						"encoding": "dynamic_array",
						"label": "address[]",
						"numberOfBytes": "32"
					},
					"t_mapping(t_address,t_mapping(t_address,t_uint256))": {
						"encoding": "mapping",
						"key": "t_address",
						"label": "mapping(address => mapping(address => uint256))",
						"numberOfBytes": "32",
						"value": "t_mapping(t_address,t_uint256)"
					},
					"t_mapping(t_address,t_uint256)": {
						"encoding": "mapping",
						"key": "t_address",
						"label": "mapping(address => uint256)",
						"numberOfBytes": "32",
						"value": "t_uint256"
					},
					"t_string_storage": {
						"encoding": "bytes",
						"label": "string",
						"numberOfBytes": "32"
					},
					"t_uint256": {
						"encoding": "inplace",
						"label": "uint256",
						"numberOfBytes": "32"
					}
				}
			},
			"userdoc": {
				"kind": "user",
				"methods": {},
				"version": 1
			}
		}
	}
}