{
	"contracts/userProfile.sol": {
		"NameRegistry": {
			"abi": [
				{
					"anonymous": false,
					"inputs": [
						{
							"indexed": true,
							"internalType": "address",
							"name": "ethAddress",
							"type": "address"
						}
					],
					"name": "NameDeregistered",
					"type": "event"
				},
				{
					"anonymous": false,
					"inputs": [
						{
							"indexed": true,
							"internalType": "address",
							"name": "ethAddress",
							"type": "address"
						},
						{
							"indexed": false,
							"internalType": "string",
							"name": "name",
							"type": "string"
						}
					],
					"name": "NameRegistered",
					"type": "event"
				},
				{
					"inputs": [
						{
							"internalType": "address",
							"name": "",
							"type": "address"
						}
					],
					"name": "addressToProfile",
					"outputs": [
						{
							"internalType": "string",
							"name": "userName",
							"type": "string"
						},
						{
							"internalType": "bool",
							"name": "registered",
							"type": "bool"
						}
					],
					"stateMutability": "view",
					"type": "function"
				},
				{
					"inputs": [],
					"name": "deregisterName",
					"outputs": [],
					"stateMutability": "nonpayable",
					"type": "function"
				},
				{
					"inputs": [
						{
							"internalType": "address",
							"name": "_userAddress",
							"type": "address"
						}
					],
					"name": "getName",
					"outputs": [
						{
							"internalType": "string",
							"name": "",
							"type": "string"
						}
					],
					"stateMutability": "view",
					"type": "function"
				},
				{
					"inputs": [
						{
							"internalType": "string",
							"name": "_userName",
							"type": "string"
						}
					],
					"name": "registerName",
					"outputs": [],
					"stateMutability": "nonpayable",
					"type": "function"
				}
			],
			"devdoc": {
				"kind": "dev",
				"methods": {},
				"version": 1
			},
			"evm": {
				"assembly": "    /* \"contracts/userProfile.sol\":60:1827  contract NameRegistry {... */\n  mstore(0x40, 0x80)\n  callvalue\n  dup1\n  iszero\n  tag_1\n  jumpi\n  0x00\n  dup1\n  revert\ntag_1:\n  pop\n  dataSize(sub_0)\n  dup1\n  dataOffset(sub_0)\n  0x00\n  codecopy\n  0x00\n  return\nstop\n\nsub_0: assembly {\n        /* \"contracts/userProfile.sol\":60:1827  contract NameRegistry {... */\n      mstore(0x40, 0x80)\n      callvalue\n      dup1\n      iszero\n      tag_1\n      jumpi\n      0x00\n      dup1\n      revert\n    tag_1:\n      pop\n      jumpi(tag_2, lt(calldatasize, 0x04))\n      shr(0xe0, calldataload(0x00))\n      dup1\n      0x0830602b\n      eq\n      tag_3\n      jumpi\n      dup1\n      0x0d5fba83\n      eq\n      tag_4\n      jumpi\n      dup1\n      0x0e7b29bf\n      eq\n      tag_5\n      jumpi\n      dup1\n      0x5fd4b08a\n      eq\n      tag_6\n      jumpi\n    tag_2:\n      0x00\n      dup1\n      revert\n        /* \"contracts/userProfile.sol\":643:1024  function registerName(string memory _userName) public {... */\n    tag_3:\n      tag_7\n      0x04\n      dup1\n      calldatasize\n      sub\n      dup2\n      add\n      swap1\n      tag_8\n      swap2\n      swap1\n      tag_9\n      jump\t// in\n    tag_8:\n      tag_10\n      jump\t// in\n    tag_7:\n      stop\n        /* \"contracts/userProfile.sol\":1070:1456  function deregisterName() public {... */\n    tag_4:\n      tag_11\n      tag_12\n      jump\t// in\n    tag_11:\n      stop\n        /* \"contracts/userProfile.sol\":312:367  mapping(address => UserProfile) public addressToProfile */\n    tag_5:\n      tag_13\n      0x04\n      dup1\n      calldatasize\n      sub\n      dup2\n      add\n      swap1\n      tag_14\n      swap2\n      swap1\n      tag_15\n      jump\t// in\n    tag_14:\n      tag_16\n      jump\t// in\n    tag_13:\n      mload(0x40)\n      tag_17\n      swap3\n      swap2\n      swap1\n      tag_18\n      jump\t// in\n    tag_17:\n      mload(0x40)\n      dup1\n      swap2\n      sub\n      swap1\n      return\n        /* \"contracts/userProfile.sol\":1536:1824  function getName(address _userAddress) public view returns (string memory) {... */\n    tag_6:\n      tag_19\n      0x04\n      dup1\n      calldatasize\n      sub\n      dup2\n      add\n      swap1\n      tag_20\n      swap2\n      swap1\n      tag_15\n      jump\t// in\n    tag_20:\n      tag_21\n      jump\t// in\n    tag_19:\n      mload(0x40)\n      tag_22\n      swap2\n      swap1\n      tag_23\n      jump\t// in\n    tag_22:\n      mload(0x40)\n      dup1\n      swap2\n      sub\n      swap1\n      return\n        /* \"contracts/userProfile.sol\":643:1024  function registerName(string memory _userName) public {... */\n    tag_10:\n        /* \"contracts/userProfile.sol\":742:743  0 */\n      0x00\n        /* \"contracts/userProfile.sol\":722:731  _userName */\n      dup2\n        /* \"contracts/userProfile.sol\":716:739  bytes(_userName).length */\n      mload\n        /* \"contracts/userProfile.sol\":716:743  bytes(_userName).length > 0 */\n      gt\n        /* \"contracts/userProfile.sol\":708:772  require(bytes(_userName).length > 0, \"Name should not be empty\") */\n      tag_25\n      jumpi\n      mload(0x40)\n      0x08c379a000000000000000000000000000000000000000000000000000000000\n      dup2\n      mstore\n      0x04\n      add\n      tag_26\n      swap1\n      tag_27\n      jump\t// in\n    tag_26:\n      mload(0x40)\n      dup1\n      swap2\n      sub\n      swap1\n      revert\n    tag_25:\n        /* \"contracts/userProfile.sol\":792:808  addressToProfile */\n      0x00\n        /* \"contracts/userProfile.sol\":792:820  addressToProfile[msg.sender] */\n      dup1\n        /* \"contracts/userProfile.sol\":809:819  msg.sender */\n      caller\n        /* \"contracts/userProfile.sol\":792:820  addressToProfile[msg.sender] */\n      0xffffffffffffffffffffffffffffffffffffffff\n      and\n      0xffffffffffffffffffffffffffffffffffffffff\n      and\n      dup2\n      mstore\n      0x20\n      add\n      swap1\n      dup2\n      mstore\n      0x20\n      add\n      0x00\n      keccak256\n        /* \"contracts/userProfile.sol\":792:831  addressToProfile[msg.sender].registered */\n      0x01\n      add\n      0x00\n      swap1\n      sload\n      swap1\n      0x0100\n      exp\n      swap1\n      div\n      0xff\n      and\n        /* \"contracts/userProfile.sol\":791:831  !addressToProfile[msg.sender].registered */\n      iszero\n        /* \"contracts/userProfile.sol\":783:865  require(!addressToProfile[msg.sender].registered, \"Address is already registered\") */\n      tag_28\n      jumpi\n      mload(0x40)\n      0x08c379a000000000000000000000000000000000000000000000000000000000\n      dup2\n      mstore\n      0x04\n      add\n      tag_29\n      swap1\n      tag_30\n      jump\t// in\n    tag_29:\n      mload(0x40)\n      dup1\n      swap2\n      sub\n      swap1\n      revert\n    tag_28:\n        /* \"contracts/userProfile.sol\":909:961  UserProfile({userName: _userName, registered: true}) */\n      mload(0x40)\n      dup1\n      0x40\n      add\n      0x40\n      mstore\n      dup1\n        /* \"contracts/userProfile.sol\":932:941  _userName */\n      dup3\n        /* \"contracts/userProfile.sol\":909:961  UserProfile({userName: _userName, registered: true}) */\n      dup2\n      mstore\n      0x20\n      add\n        /* \"contracts/userProfile.sol\":955:959  true */\n      0x01\n        /* \"contracts/userProfile.sol\":909:961  UserProfile({userName: _userName, registered: true}) */\n      iszero\n      iszero\n      dup2\n      mstore\n      pop\n        /* \"contracts/userProfile.sol\":878:894  addressToProfile */\n      0x00\n        /* \"contracts/userProfile.sol\":878:906  addressToProfile[msg.sender] */\n      dup1\n        /* \"contracts/userProfile.sol\":895:905  msg.sender */\n      caller\n        /* \"contracts/userProfile.sol\":878:906  addressToProfile[msg.sender] */\n      0xffffffffffffffffffffffffffffffffffffffff\n      and\n      0xffffffffffffffffffffffffffffffffffffffff\n      and\n      dup2\n      mstore\n      0x20\n      add\n      swap1\n      dup2\n      mstore\n      0x20\n      add\n      0x00\n      keccak256\n        /* \"contracts/userProfile.sol\":878:961  addressToProfile[msg.sender] = UserProfile({userName: _userName, registered: true}) */\n      0x00\n      dup3\n      add\n      mload\n      dup2\n      0x00\n      add\n      swap1\n      dup2\n      tag_31\n      swap2\n      swap1\n      tag_32\n      jump\t// in\n    tag_31:\n      pop\n      0x20\n      dup3\n      add\n      mload\n      dup2\n      0x01\n      add\n      exp(0x0100, 0x00)\n      dup2\n      sload\n      dup2\n      0xff\n      mul\n      not\n      and\n      swap1\n      dup4\n      iszero\n      iszero\n      mul\n      or\n      swap1\n      sstore\n      pop\n      swap1\n      pop\n      pop\n        /* \"contracts/userProfile.sol\":994:1004  msg.sender */\n      caller\n        /* \"contracts/userProfile.sol\":979:1016  NameRegistered(msg.sender, _userName) */\n      0xffffffffffffffffffffffffffffffffffffffff\n      and\n      0x56a1a2764a85c689329fbc04f299b64690a26b1dc5ac82e903cf8ad805cd5396\n        /* \"contracts/userProfile.sol\":1006:1015  _userName */\n      dup3\n        /* \"contracts/userProfile.sol\":979:1016  NameRegistered(msg.sender, _userName) */\n      mload(0x40)\n      tag_33\n      swap2\n      swap1\n      tag_23\n      jump\t// in\n    tag_33:\n      mload(0x40)\n      dup1\n      swap2\n      sub\n      swap1\n      log2\n        /* \"contracts/userProfile.sol\":643:1024  function registerName(string memory _userName) public {... */\n      pop\n      jump\t// out\n        /* \"contracts/userProfile.sol\":1070:1456  function deregisterName() public {... */\n    tag_12:\n        /* \"contracts/userProfile.sol\":1169:1185  addressToProfile */\n      0x00\n        /* \"contracts/userProfile.sol\":1169:1197  addressToProfile[msg.sender] */\n      dup1\n        /* \"contracts/userProfile.sol\":1186:1196  msg.sender */\n      caller\n        /* \"contracts/userProfile.sol\":1169:1197  addressToProfile[msg.sender] */\n      0xffffffffffffffffffffffffffffffffffffffff\n      and\n      0xffffffffffffffffffffffffffffffffffffffff\n      and\n      dup2\n      mstore\n      0x20\n      add\n      swap1\n      dup2\n      mstore\n      0x20\n      add\n      0x00\n      keccak256\n        /* \"contracts/userProfile.sol\":1169:1208  addressToProfile[msg.sender].registered */\n      0x01\n      add\n      0x00\n      swap1\n      sload\n      swap1\n      0x0100\n      exp\n      swap1\n      div\n      0xff\n      and\n        /* \"contracts/userProfile.sol\":1161:1238  require(addressToProfile[msg.sender].registered, \"Address is not registered\") */\n      tag_35\n      jumpi\n      mload(0x40)\n      0x08c379a000000000000000000000000000000000000000000000000000000000\n      dup2\n      mstore\n      0x04\n      add\n      tag_36\n      swap1\n      tag_37\n      jump\t// in\n    tag_36:\n      mload(0x40)\n      dup1\n      swap2\n      sub\n      swap1\n      revert\n    tag_35:\n        /* \"contracts/userProfile.sol\":1346:1392  UserProfile({userName: \"\", registered: false}) */\n      mload(0x40)\n      dup1\n      0x40\n      add\n      0x40\n      mstore\n      dup1\n      mload(0x40)\n      dup1\n      0x20\n      add\n      0x40\n      mstore\n      dup1\n      0x00\n      dup2\n      mstore\n      pop\n      dup2\n      mstore\n      0x20\n      add\n        /* \"contracts/userProfile.sol\":1385:1390  false */\n      0x00\n        /* \"contracts/userProfile.sol\":1346:1392  UserProfile({userName: \"\", registered: false}) */\n      iszero\n      iszero\n      dup2\n      mstore\n      pop\n        /* \"contracts/userProfile.sol\":1315:1331  addressToProfile */\n      0x00\n        /* \"contracts/userProfile.sol\":1315:1343  addressToProfile[msg.sender] */\n      dup1\n        /* \"contracts/userProfile.sol\":1332:1342  msg.sender */\n      caller\n        /* \"contracts/userProfile.sol\":1315:1343  addressToProfile[msg.sender] */\n      0xffffffffffffffffffffffffffffffffffffffff\n      and\n      0xffffffffffffffffffffffffffffffffffffffff\n      and\n      dup2\n      mstore\n      0x20\n      add\n      swap1\n      dup2\n      mstore\n      0x20\n      add\n      0x00\n      keccak256\n        /* \"contracts/userProfile.sol\":1315:1392  addressToProfile[msg.sender] = UserProfile({userName: \"\", registered: false}) */\n      0x00\n      dup3\n      add\n      mload\n      dup2\n      0x00\n      add\n      swap1\n      dup2\n      tag_38\n      swap2\n      swap1\n      tag_32\n      jump\t// in\n    tag_38:\n      pop\n      0x20\n      dup3\n      add\n      mload\n      dup2\n      0x01\n      add\n      exp(0x0100, 0x00)\n      dup2\n      sload\n      dup2\n      0xff\n      mul\n      not\n      and\n      swap1\n      dup4\n      iszero\n      iszero\n      mul\n      or\n      swap1\n      sstore\n      pop\n      swap1\n      pop\n      pop\n        /* \"contracts/userProfile.sol\":1427:1437  msg.sender */\n      caller\n        /* \"contracts/userProfile.sol\":1410:1438  NameDeregistered(msg.sender) */\n      0xffffffffffffffffffffffffffffffffffffffff\n      and\n      0xd535c2e59a2f16f058b1b296bef26cc2579ffc7f69aaf7b53f536943cb6a7543\n      mload(0x40)\n      mload(0x40)\n      dup1\n      swap2\n      sub\n      swap1\n      log2\n        /* \"contracts/userProfile.sol\":1070:1456  function deregisterName() public {... */\n      jump\t// out\n        /* \"contracts/userProfile.sol\":312:367  mapping(address => UserProfile) public addressToProfile */\n    tag_16:\n      mstore(0x20, 0x00)\n      dup1\n      0x00\n      mstore\n      keccak256(0x00, 0x40)\n      0x00\n      swap2\n      pop\n      swap1\n      pop\n      dup1\n      0x00\n      add\n      dup1\n      sload\n      tag_39\n      swap1\n      tag_40\n      jump\t// in\n    tag_39:\n      dup1\n      0x1f\n      add\n      0x20\n      dup1\n      swap2\n      div\n      mul\n      0x20\n      add\n      mload(0x40)\n      swap1\n      dup2\n      add\n      0x40\n      mstore\n      dup1\n      swap3\n      swap2\n      swap1\n      dup2\n      dup2\n      mstore\n      0x20\n      add\n      dup3\n      dup1\n      sload\n      tag_41\n      swap1\n      tag_40\n      jump\t// in\n    tag_41:\n      dup1\n      iszero\n      tag_42\n      jumpi\n      dup1\n      0x1f\n      lt\n      tag_43\n      jumpi\n      0x0100\n      dup1\n      dup4\n      sload\n      div\n      mul\n      dup4\n      mstore\n      swap2\n      0x20\n      add\n      swap2\n      jump(tag_42)\n    tag_43:\n      dup3\n      add\n      swap2\n      swap1\n      0x00\n      mstore\n      keccak256(0x00, 0x20)\n      swap1\n    tag_44:\n      dup2\n      sload\n      dup2\n      mstore\n      swap1\n      0x01\n      add\n      swap1\n      0x20\n      add\n      dup1\n      dup4\n      gt\n      tag_44\n      jumpi\n      dup3\n      swap1\n      sub\n      0x1f\n      and\n      dup3\n      add\n      swap2\n    tag_42:\n      pop\n      pop\n      pop\n      pop\n      pop\n      swap1\n      dup1\n      0x01\n      add\n      0x00\n      swap1\n      sload\n      swap1\n      0x0100\n      exp\n      swap1\n      div\n      0xff\n      and\n      swap1\n      pop\n      dup3\n      jump\t// out\n        /* \"contracts/userProfile.sol\":1536:1824  function getName(address _userAddress) public view returns (string memory) {... */\n    tag_21:\n        /* \"contracts/userProfile.sol\":1596:1609  string memory */\n      0x60\n        /* \"contracts/userProfile.sol\":1622:1648  UserProfile memory profile */\n      0x00\n        /* \"contracts/userProfile.sol\":1651:1667  addressToProfile */\n      dup1\n        /* \"contracts/userProfile.sol\":1651:1681  addressToProfile[_userAddress] */\n      0x00\n        /* \"contracts/userProfile.sol\":1668:1680  _userAddress */\n      dup5\n        /* \"contracts/userProfile.sol\":1651:1681  addressToProfile[_userAddress] */\n      0xffffffffffffffffffffffffffffffffffffffff\n      and\n      0xffffffffffffffffffffffffffffffffffffffff\n      and\n      dup2\n      mstore\n      0x20\n      add\n      swap1\n      dup2\n      mstore\n      0x20\n      add\n      0x00\n      keccak256\n        /* \"contracts/userProfile.sol\":1622:1681  UserProfile memory profile = addressToProfile[_userAddress] */\n      mload(0x40)\n      dup1\n      0x40\n      add\n      0x40\n      mstore\n      swap1\n      dup2\n      0x00\n      dup3\n      add\n      dup1\n      sload\n      tag_46\n      swap1\n      tag_40\n      jump\t// in\n    tag_46:\n      dup1\n      0x1f\n      add\n      0x20\n      dup1\n      swap2\n      div\n      mul\n      0x20\n      add\n      mload(0x40)\n      swap1\n      dup2\n      add\n      0x40\n      mstore\n      dup1\n      swap3\n      swap2\n      swap1\n      dup2\n      dup2\n      mstore\n      0x20\n      add\n      dup3\n      dup1\n      sload\n      tag_47\n      swap1\n      tag_40\n      jump\t// in\n    tag_47:\n      dup1\n      iszero\n      tag_48\n      jumpi\n      dup1\n      0x1f\n      lt\n      tag_49\n      jumpi\n      0x0100\n      dup1\n      dup4\n      sload\n      div\n      mul\n      dup4\n      mstore\n      swap2\n      0x20\n      add\n      swap2\n      jump(tag_48)\n    tag_49:\n      dup3\n      add\n      swap2\n      swap1\n      0x00\n      mstore\n      keccak256(0x00, 0x20)\n      swap1\n    tag_50:\n      dup2\n      sload\n      dup2\n      mstore\n      swap1\n      0x01\n      add\n      swap1\n      0x20\n      add\n      dup1\n      dup4\n      gt\n      tag_50\n      jumpi\n      dup3\n      swap1\n      sub\n      0x1f\n      and\n      dup3\n      add\n      swap2\n    tag_48:\n      pop\n      pop\n      pop\n      pop\n      pop\n      dup2\n      mstore\n      0x20\n      add\n      0x01\n      dup3\n      add\n      0x00\n      swap1\n      sload\n      swap1\n      0x0100\n      exp\n      swap1\n      div\n      0xff\n      and\n      iszero\n      iszero\n      iszero\n      iszero\n      dup2\n      mstore\n      pop\n      pop\n      swap1\n      pop\n        /* \"contracts/userProfile.sol\":1696:1703  profile */\n      dup1\n        /* \"contracts/userProfile.sol\":1696:1714  profile.registered */\n      0x20\n      add\n      mload\n        /* \"contracts/userProfile.sol\":1692:1817  if (profile.registered) {... */\n      iszero\n      tag_51\n      jumpi\n        /* \"contracts/userProfile.sol\":1738:1745  profile */\n      dup1\n        /* \"contracts/userProfile.sol\":1738:1754  profile.userName */\n      0x00\n      add\n      mload\n        /* \"contracts/userProfile.sol\":1731:1754  return profile.userName */\n      swap2\n      pop\n      pop\n      jump(tag_45)\n        /* \"contracts/userProfile.sol\":1692:1817  if (profile.registered) {... */\n    tag_51:\n        /* \"contracts/userProfile.sol\":1787:1805  return \"not found\" */\n      mload(0x40)\n      dup1\n      0x40\n      add\n      0x40\n      mstore\n      dup1\n      0x09\n      dup2\n      mstore\n      0x20\n      add\n      0x6e6f7420666f756e640000000000000000000000000000000000000000000000\n      dup2\n      mstore\n      pop\n      swap2\n      pop\n      pop\n        /* \"contracts/userProfile.sol\":1536:1824  function getName(address _userAddress) public view returns (string memory) {... */\n    tag_45:\n      swap2\n      swap1\n      pop\n      jump\t// out\n        /* \"#utility.yul\":7:82   */\n    tag_53:\n        /* \"#utility.yul\":40:46   */\n      0x00\n        /* \"#utility.yul\":73:75   */\n      0x40\n        /* \"#utility.yul\":67:76   */\n      mload\n        /* \"#utility.yul\":57:76   */\n      swap1\n      pop\n        /* \"#utility.yul\":7:82   */\n      swap1\n      jump\t// out\n        /* \"#utility.yul\":88:205   */\n    tag_54:\n        /* \"#utility.yul\":197:198   */\n      0x00\n        /* \"#utility.yul\":194:195   */\n      dup1\n        /* \"#utility.yul\":187:199   */\n      revert\n        /* \"#utility.yul\":211:328   */\n    tag_55:\n        /* \"#utility.yul\":320:321   */\n      0x00\n        /* \"#utility.yul\":317:318   */\n      dup1\n        /* \"#utility.yul\":310:322   */\n      revert\n        /* \"#utility.yul\":334:451   */\n    tag_56:\n        /* \"#utility.yul\":443:444   */\n      0x00\n        /* \"#utility.yul\":440:441   */\n      dup1\n        /* \"#utility.yul\":433:445   */\n      revert\n        /* \"#utility.yul\":457:574   */\n    tag_57:\n        /* \"#utility.yul\":566:567   */\n      0x00\n        /* \"#utility.yul\":563:564   */\n      dup1\n        /* \"#utility.yul\":556:568   */\n      revert\n        /* \"#utility.yul\":580:682   */\n    tag_58:\n        /* \"#utility.yul\":621:627   */\n      0x00\n        /* \"#utility.yul\":672:674   */\n      0x1f\n        /* \"#utility.yul\":668:675   */\n      not\n        /* \"#utility.yul\":663:665   */\n      0x1f\n        /* \"#utility.yul\":656:661   */\n      dup4\n        /* \"#utility.yul\":652:666   */\n      add\n        /* \"#utility.yul\":648:676   */\n      and\n        /* \"#utility.yul\":638:676   */\n      swap1\n      pop\n        /* \"#utility.yul\":580:682   */\n      swap2\n      swap1\n      pop\n      jump\t// out\n        /* \"#utility.yul\":688:868   */\n    tag_59:\n        /* \"#utility.yul\":736:813   */\n      0x4e487b7100000000000000000000000000000000000000000000000000000000\n        /* \"#utility.yul\":733:734   */\n      0x00\n        /* \"#utility.yul\":726:814   */\n      mstore\n        /* \"#utility.yul\":833:837   */\n      0x41\n        /* \"#utility.yul\":830:831   */\n      0x04\n        /* \"#utility.yul\":823:838   */\n      mstore\n        /* \"#utility.yul\":857:861   */\n      0x24\n        /* \"#utility.yul\":854:855   */\n      0x00\n        /* \"#utility.yul\":847:862   */\n      revert\n        /* \"#utility.yul\":874:1155   */\n    tag_60:\n        /* \"#utility.yul\":957:984   */\n      tag_108\n        /* \"#utility.yul\":979:983   */\n      dup3\n        /* \"#utility.yul\":957:984   */\n      tag_58\n      jump\t// in\n    tag_108:\n        /* \"#utility.yul\":949:955   */\n      dup2\n        /* \"#utility.yul\":945:985   */\n      add\n        /* \"#utility.yul\":1087:1093   */\n      dup2\n        /* \"#utility.yul\":1075:1085   */\n      dup2\n        /* \"#utility.yul\":1072:1094   */\n      lt\n        /* \"#utility.yul\":1051:1069   */\n      0xffffffffffffffff\n        /* \"#utility.yul\":1039:1049   */\n      dup3\n        /* \"#utility.yul\":1036:1070   */\n      gt\n        /* \"#utility.yul\":1033:1095   */\n      or\n        /* \"#utility.yul\":1030:1118   */\n      iszero\n      tag_109\n      jumpi\n        /* \"#utility.yul\":1098:1116   */\n      tag_110\n      tag_59\n      jump\t// in\n    tag_110:\n        /* \"#utility.yul\":1030:1118   */\n    tag_109:\n        /* \"#utility.yul\":1138:1148   */\n      dup1\n        /* \"#utility.yul\":1134:1136   */\n      0x40\n        /* \"#utility.yul\":1127:1149   */\n      mstore\n        /* \"#utility.yul\":917:1155   */\n      pop\n        /* \"#utility.yul\":874:1155   */\n      pop\n      pop\n      jump\t// out\n        /* \"#utility.yul\":1161:1290   */\n    tag_61:\n        /* \"#utility.yul\":1195:1201   */\n      0x00\n        /* \"#utility.yul\":1222:1242   */\n      tag_112\n      tag_53\n      jump\t// in\n    tag_112:\n        /* \"#utility.yul\":1212:1242   */\n      swap1\n      pop\n        /* \"#utility.yul\":1251:1284   */\n      tag_113\n        /* \"#utility.yul\":1279:1283   */\n      dup3\n        /* \"#utility.yul\":1271:1277   */\n      dup3\n        /* \"#utility.yul\":1251:1284   */\n      tag_60\n      jump\t// in\n    tag_113:\n        /* \"#utility.yul\":1161:1290   */\n      swap2\n      swap1\n      pop\n      jump\t// out\n        /* \"#utility.yul\":1296:1604   */\n    tag_62:\n        /* \"#utility.yul\":1358:1362   */\n      0x00\n        /* \"#utility.yul\":1448:1466   */\n      0xffffffffffffffff\n        /* \"#utility.yul\":1440:1446   */\n      dup3\n        /* \"#utility.yul\":1437:1467   */\n      gt\n        /* \"#utility.yul\":1434:1490   */\n      iszero\n      tag_115\n      jumpi\n        /* \"#utility.yul\":1470:1488   */\n      tag_116\n      tag_59\n      jump\t// in\n    tag_116:\n        /* \"#utility.yul\":1434:1490   */\n    tag_115:\n        /* \"#utility.yul\":1508:1537   */\n      tag_117\n        /* \"#utility.yul\":1530:1536   */\n      dup3\n        /* \"#utility.yul\":1508:1537   */\n      tag_58\n      jump\t// in\n    tag_117:\n        /* \"#utility.yul\":1500:1537   */\n      swap1\n      pop\n        /* \"#utility.yul\":1592:1596   */\n      0x20\n        /* \"#utility.yul\":1586:1590   */\n      dup2\n        /* \"#utility.yul\":1582:1597   */\n      add\n        /* \"#utility.yul\":1574:1597   */\n      swap1\n      pop\n        /* \"#utility.yul\":1296:1604   */\n      swap2\n      swap1\n      pop\n      jump\t// out\n        /* \"#utility.yul\":1610:1756   */\n    tag_63:\n        /* \"#utility.yul\":1707:1713   */\n      dup3\n        /* \"#utility.yul\":1702:1705   */\n      dup2\n        /* \"#utility.yul\":1697:1700   */\n      dup4\n        /* \"#utility.yul\":1684:1714   */\n      calldatacopy\n        /* \"#utility.yul\":1748:1749   */\n      0x00\n        /* \"#utility.yul\":1739:1745   */\n      dup4\n        /* \"#utility.yul\":1734:1737   */\n      dup4\n        /* \"#utility.yul\":1730:1746   */\n      add\n        /* \"#utility.yul\":1723:1750   */\n      mstore\n        /* \"#utility.yul\":1610:1756   */\n      pop\n      pop\n      pop\n      jump\t// out\n        /* \"#utility.yul\":1762:2187   */\n    tag_64:\n        /* \"#utility.yul\":1840:1845   */\n      0x00\n        /* \"#utility.yul\":1865:1931   */\n      tag_120\n        /* \"#utility.yul\":1881:1930   */\n      tag_121\n        /* \"#utility.yul\":1923:1929   */\n      dup5\n        /* \"#utility.yul\":1881:1930   */\n      tag_62\n      jump\t// in\n    tag_121:\n        /* \"#utility.yul\":1865:1931   */\n      tag_61\n      jump\t// in\n    tag_120:\n        /* \"#utility.yul\":1856:1931   */\n      swap1\n      pop\n        /* \"#utility.yul\":1954:1960   */\n      dup3\n        /* \"#utility.yul\":1947:1952   */\n      dup2\n        /* \"#utility.yul\":1940:1961   */\n      mstore\n        /* \"#utility.yul\":1992:1996   */\n      0x20\n        /* \"#utility.yul\":1985:1990   */\n      dup2\n        /* \"#utility.yul\":1981:1997   */\n      add\n        /* \"#utility.yul\":2030:2033   */\n      dup5\n        /* \"#utility.yul\":2021:2027   */\n      dup5\n        /* \"#utility.yul\":2016:2019   */\n      dup5\n        /* \"#utility.yul\":2012:2028   */\n      add\n        /* \"#utility.yul\":2009:2034   */\n      gt\n        /* \"#utility.yul\":2006:2118   */\n      iszero\n      tag_122\n      jumpi\n        /* \"#utility.yul\":2037:2116   */\n      tag_123\n      tag_57\n      jump\t// in\n    tag_123:\n        /* \"#utility.yul\":2006:2118   */\n    tag_122:\n        /* \"#utility.yul\":2127:2181   */\n      tag_124\n        /* \"#utility.yul\":2174:2180   */\n      dup5\n        /* \"#utility.yul\":2169:2172   */\n      dup3\n        /* \"#utility.yul\":2164:2167   */\n      dup6\n        /* \"#utility.yul\":2127:2181   */\n      tag_63\n      jump\t// in\n    tag_124:\n        /* \"#utility.yul\":1846:2187   */\n      pop\n        /* \"#utility.yul\":1762:2187   */\n      swap4\n      swap3\n      pop\n      pop\n      pop\n      jump\t// out\n        /* \"#utility.yul\":2207:2547   */\n    tag_65:\n        /* \"#utility.yul\":2263:2268   */\n      0x00\n        /* \"#utility.yul\":2312:2315   */\n      dup3\n        /* \"#utility.yul\":2305:2309   */\n      0x1f\n        /* \"#utility.yul\":2297:2303   */\n      dup4\n        /* \"#utility.yul\":2293:2310   */\n      add\n        /* \"#utility.yul\":2289:2316   */\n      slt\n        /* \"#utility.yul\":2279:2401   */\n      tag_126\n      jumpi\n        /* \"#utility.yul\":2320:2399   */\n      tag_127\n      tag_56\n      jump\t// in\n    tag_127:\n        /* \"#utility.yul\":2279:2401   */\n    tag_126:\n        /* \"#utility.yul\":2437:2443   */\n      dup2\n        /* \"#utility.yul\":2424:2444   */\n      calldataload\n        /* \"#utility.yul\":2462:2541   */\n      tag_128\n        /* \"#utility.yul\":2537:2540   */\n      dup5\n        /* \"#utility.yul\":2529:2535   */\n      dup3\n        /* \"#utility.yul\":2522:2526   */\n      0x20\n        /* \"#utility.yul\":2514:2520   */\n      dup7\n        /* \"#utility.yul\":2510:2527   */\n      add\n        /* \"#utility.yul\":2462:2541   */\n      tag_64\n      jump\t// in\n    tag_128:\n        /* \"#utility.yul\":2453:2541   */\n      swap2\n      pop\n        /* \"#utility.yul\":2269:2547   */\n      pop\n        /* \"#utility.yul\":2207:2547   */\n      swap3\n      swap2\n      pop\n      pop\n      jump\t// out\n        /* \"#utility.yul\":2553:3062   */\n    tag_9:\n        /* \"#utility.yul\":2622:2628   */\n      0x00\n        /* \"#utility.yul\":2671:2673   */\n      0x20\n        /* \"#utility.yul\":2659:2668   */\n      dup3\n        /* \"#utility.yul\":2650:2657   */\n      dup5\n        /* \"#utility.yul\":2646:2669   */\n      sub\n        /* \"#utility.yul\":2642:2674   */\n      slt\n        /* \"#utility.yul\":2639:2758   */\n      iszero\n      tag_130\n      jumpi\n        /* \"#utility.yul\":2677:2756   */\n      tag_131\n      tag_54\n      jump\t// in\n    tag_131:\n        /* \"#utility.yul\":2639:2758   */\n    tag_130:\n        /* \"#utility.yul\":2825:2826   */\n      0x00\n        /* \"#utility.yul\":2814:2823   */\n      dup3\n        /* \"#utility.yul\":2810:2827   */\n      add\n        /* \"#utility.yul\":2797:2828   */\n      calldataload\n        /* \"#utility.yul\":2855:2873   */\n      0xffffffffffffffff\n        /* \"#utility.yul\":2847:2853   */\n      dup2\n        /* \"#utility.yul\":2844:2874   */\n      gt\n        /* \"#utility.yul\":2841:2958   */\n      iszero\n      tag_132\n      jumpi\n        /* \"#utility.yul\":2877:2956   */\n      tag_133\n      tag_55\n      jump\t// in\n    tag_133:\n        /* \"#utility.yul\":2841:2958   */\n    tag_132:\n        /* \"#utility.yul\":2982:3045   */\n      tag_134\n        /* \"#utility.yul\":3037:3044   */\n      dup5\n        /* \"#utility.yul\":3028:3034   */\n      dup3\n        /* \"#utility.yul\":3017:3026   */\n      dup6\n        /* \"#utility.yul\":3013:3035   */\n      add\n        /* \"#utility.yul\":2982:3045   */\n      tag_65\n      jump\t// in\n    tag_134:\n        /* \"#utility.yul\":2972:3045   */\n      swap2\n      pop\n        /* \"#utility.yul\":2768:3055   */\n      pop\n        /* \"#utility.yul\":2553:3062   */\n      swap3\n      swap2\n      pop\n      pop\n      jump\t// out\n        /* \"#utility.yul\":3068:3194   */\n    tag_66:\n        /* \"#utility.yul\":3105:3112   */\n      0x00\n        /* \"#utility.yul\":3145:3187   */\n      0xffffffffffffffffffffffffffffffffffffffff\n        /* \"#utility.yul\":3138:3143   */\n      dup3\n        /* \"#utility.yul\":3134:3188   */\n      and\n        /* \"#utility.yul\":3123:3188   */\n      swap1\n      pop\n        /* \"#utility.yul\":3068:3194   */\n      swap2\n      swap1\n      pop\n      jump\t// out\n        /* \"#utility.yul\":3200:3296   */\n    tag_67:\n        /* \"#utility.yul\":3237:3244   */\n      0x00\n        /* \"#utility.yul\":3266:3290   */\n      tag_137\n        /* \"#utility.yul\":3284:3289   */\n      dup3\n        /* \"#utility.yul\":3266:3290   */\n      tag_66\n      jump\t// in\n    tag_137:\n        /* \"#utility.yul\":3255:3290   */\n      swap1\n      pop\n        /* \"#utility.yul\":3200:3296   */\n      swap2\n      swap1\n      pop\n      jump\t// out\n        /* \"#utility.yul\":3302:3424   */\n    tag_68:\n        /* \"#utility.yul\":3375:3399   */\n      tag_139\n        /* \"#utility.yul\":3393:3398   */\n      dup2\n        /* \"#utility.yul\":3375:3399   */\n      tag_67\n      jump\t// in\n    tag_139:\n        /* \"#utility.yul\":3368:3373   */\n      dup2\n        /* \"#utility.yul\":3365:3400   */\n      eq\n        /* \"#utility.yul\":3355:3418   */\n      tag_140\n      jumpi\n        /* \"#utility.yul\":3414:3415   */\n      0x00\n        /* \"#utility.yul\":3411:3412   */\n      dup1\n        /* \"#utility.yul\":3404:3416   */\n      revert\n        /* \"#utility.yul\":3355:3418   */\n    tag_140:\n        /* \"#utility.yul\":3302:3424   */\n      pop\n      jump\t// out\n        /* \"#utility.yul\":3430:3569   */\n    tag_69:\n        /* \"#utility.yul\":3476:3481   */\n      0x00\n        /* \"#utility.yul\":3514:3520   */\n      dup2\n        /* \"#utility.yul\":3501:3521   */\n      calldataload\n        /* \"#utility.yul\":3492:3521   */\n      swap1\n      pop\n        /* \"#utility.yul\":3530:3563   */\n      tag_142\n        /* \"#utility.yul\":3557:3562   */\n      dup2\n        /* \"#utility.yul\":3530:3563   */\n      tag_68\n      jump\t// in\n    tag_142:\n        /* \"#utility.yul\":3430:3569   */\n      swap3\n      swap2\n      pop\n      pop\n      jump\t// out\n        /* \"#utility.yul\":3575:3904   */\n    tag_15:\n        /* \"#utility.yul\":3634:3640   */\n      0x00\n        /* \"#utility.yul\":3683:3685   */\n      0x20\n        /* \"#utility.yul\":3671:3680   */\n      dup3\n        /* \"#utility.yul\":3662:3669   */\n      dup5\n        /* \"#utility.yul\":3658:3681   */\n      sub\n        /* \"#utility.yul\":3654:3686   */\n      slt\n        /* \"#utility.yul\":3651:3770   */\n      iszero\n      tag_144\n      jumpi\n        /* \"#utility.yul\":3689:3768   */\n      tag_145\n      tag_54\n      jump\t// in\n    tag_145:\n        /* \"#utility.yul\":3651:3770   */\n    tag_144:\n        /* \"#utility.yul\":3809:3810   */\n      0x00\n        /* \"#utility.yul\":3834:3887   */\n      tag_146\n        /* \"#utility.yul\":3879:3886   */\n      dup5\n        /* \"#utility.yul\":3870:3876   */\n      dup3\n        /* \"#utility.yul\":3859:3868   */\n      dup6\n        /* \"#utility.yul\":3855:3877   */\n      add\n        /* \"#utility.yul\":3834:3887   */\n      tag_69\n      jump\t// in\n    tag_146:\n        /* \"#utility.yul\":3824:3887   */\n      swap2\n      pop\n        /* \"#utility.yul\":3780:3897   */\n      pop\n        /* \"#utility.yul\":3575:3904   */\n      swap3\n      swap2\n      pop\n      pop\n      jump\t// out\n        /* \"#utility.yul\":3910:4009   */\n    tag_70:\n        /* \"#utility.yul\":3962:3968   */\n      0x00\n        /* \"#utility.yul\":3996:4001   */\n      dup2\n        /* \"#utility.yul\":3990:4002   */\n      mload\n        /* \"#utility.yul\":3980:4002   */\n      swap1\n      pop\n        /* \"#utility.yul\":3910:4009   */\n      swap2\n      swap1\n      pop\n      jump\t// out\n        /* \"#utility.yul\":4015:4184   */\n    tag_71:\n        /* \"#utility.yul\":4099:4110   */\n      0x00\n        /* \"#utility.yul\":4133:4139   */\n      dup3\n        /* \"#utility.yul\":4128:4131   */\n      dup3\n        /* \"#utility.yul\":4121:4140   */\n      mstore\n        /* \"#utility.yul\":4173:4177   */\n      0x20\n        /* \"#utility.yul\":4168:4171   */\n      dup3\n        /* \"#utility.yul\":4164:4178   */\n      add\n        /* \"#utility.yul\":4149:4178   */\n      swap1\n      pop\n        /* \"#utility.yul\":4015:4184   */\n      swap3\n      swap2\n      pop\n      pop\n      jump\t// out\n        /* \"#utility.yul\":4190:4436   */\n    tag_72:\n        /* \"#utility.yul\":4271:4272   */\n      0x00\n        /* \"#utility.yul\":4281:4394   */\n    tag_150:\n        /* \"#utility.yul\":4295:4301   */\n      dup4\n        /* \"#utility.yul\":4292:4293   */\n      dup2\n        /* \"#utility.yul\":4289:4302   */\n      lt\n        /* \"#utility.yul\":4281:4394   */\n      iszero\n      tag_152\n      jumpi\n        /* \"#utility.yul\":4380:4381   */\n      dup1\n        /* \"#utility.yul\":4375:4378   */\n      dup3\n        /* \"#utility.yul\":4371:4382   */\n      add\n        /* \"#utility.yul\":4365:4383   */\n      mload\n        /* \"#utility.yul\":4361:4362   */\n      dup2\n        /* \"#utility.yul\":4356:4359   */\n      dup5\n        /* \"#utility.yul\":4352:4363   */\n      add\n        /* \"#utility.yul\":4345:4384   */\n      mstore\n        /* \"#utility.yul\":4317:4319   */\n      0x20\n        /* \"#utility.yul\":4314:4315   */\n      dup2\n        /* \"#utility.yul\":4310:4320   */\n      add\n        /* \"#utility.yul\":4305:4320   */\n      swap1\n      pop\n        /* \"#utility.yul\":4281:4394   */\n      jump(tag_150)\n    tag_152:\n        /* \"#utility.yul\":4428:4429   */\n      0x00\n        /* \"#utility.yul\":4419:4425   */\n      dup5\n        /* \"#utility.yul\":4414:4417   */\n      dup5\n        /* \"#utility.yul\":4410:4426   */\n      add\n        /* \"#utility.yul\":4403:4430   */\n      mstore\n        /* \"#utility.yul\":4252:4436   */\n      pop\n        /* \"#utility.yul\":4190:4436   */\n      pop\n      pop\n      pop\n      jump\t// out\n        /* \"#utility.yul\":4442:4819   */\n    tag_73:\n        /* \"#utility.yul\":4530:4533   */\n      0x00\n        /* \"#utility.yul\":4558:4597   */\n      tag_154\n        /* \"#utility.yul\":4591:4596   */\n      dup3\n        /* \"#utility.yul\":4558:4597   */\n      tag_70\n      jump\t// in\n    tag_154:\n        /* \"#utility.yul\":4613:4684   */\n      tag_155\n        /* \"#utility.yul\":4677:4683   */\n      dup2\n        /* \"#utility.yul\":4672:4675   */\n      dup6\n        /* \"#utility.yul\":4613:4684   */\n      tag_71\n      jump\t// in\n    tag_155:\n        /* \"#utility.yul\":4606:4684   */\n      swap4\n      pop\n        /* \"#utility.yul\":4693:4758   */\n      tag_156\n        /* \"#utility.yul\":4751:4757   */\n      dup2\n        /* \"#utility.yul\":4746:4749   */\n      dup6\n        /* \"#utility.yul\":4739:4743   */\n      0x20\n        /* \"#utility.yul\":4732:4737   */\n      dup7\n        /* \"#utility.yul\":4728:4744   */\n      add\n        /* \"#utility.yul\":4693:4758   */\n      tag_72\n      jump\t// in\n    tag_156:\n        /* \"#utility.yul\":4783:4812   */\n      tag_157\n        /* \"#utility.yul\":4805:4811   */\n      dup2\n        /* \"#utility.yul\":4783:4812   */\n      tag_58\n      jump\t// in\n    tag_157:\n        /* \"#utility.yul\":4778:4781   */\n      dup5\n        /* \"#utility.yul\":4774:4813   */\n      add\n        /* \"#utility.yul\":4767:4813   */\n      swap2\n      pop\n        /* \"#utility.yul\":4534:4819   */\n      pop\n        /* \"#utility.yul\":4442:4819   */\n      swap3\n      swap2\n      pop\n      pop\n      jump\t// out\n        /* \"#utility.yul\":4825:4915   */\n    tag_74:\n        /* \"#utility.yul\":4859:4866   */\n      0x00\n        /* \"#utility.yul\":4902:4907   */\n      dup2\n        /* \"#utility.yul\":4895:4908   */\n      iszero\n        /* \"#utility.yul\":4888:4909   */\n      iszero\n        /* \"#utility.yul\":4877:4909   */\n      swap1\n      pop\n        /* \"#utility.yul\":4825:4915   */\n      swap2\n      swap1\n      pop\n      jump\t// out\n        /* \"#utility.yul\":4921:5030   */\n    tag_75:\n        /* \"#utility.yul\":5002:5023   */\n      tag_160\n        /* \"#utility.yul\":5017:5022   */\n      dup2\n        /* \"#utility.yul\":5002:5023   */\n      tag_74\n      jump\t// in\n    tag_160:\n        /* \"#utility.yul\":4997:5000   */\n      dup3\n        /* \"#utility.yul\":4990:5024   */\n      mstore\n        /* \"#utility.yul\":4921:5030   */\n      pop\n      pop\n      jump\t// out\n        /* \"#utility.yul\":5036:5447   */\n    tag_18:\n        /* \"#utility.yul\":5171:5175   */\n      0x00\n        /* \"#utility.yul\":5209:5211   */\n      0x40\n        /* \"#utility.yul\":5198:5207   */\n      dup3\n        /* \"#utility.yul\":5194:5212   */\n      add\n        /* \"#utility.yul\":5186:5212   */\n      swap1\n      pop\n        /* \"#utility.yul\":5258:5267   */\n      dup2\n        /* \"#utility.yul\":5252:5256   */\n      dup2\n        /* \"#utility.yul\":5248:5268   */\n      sub\n        /* \"#utility.yul\":5244:5245   */\n      0x00\n        /* \"#utility.yul\":5233:5242   */\n      dup4\n        /* \"#utility.yul\":5229:5246   */\n      add\n        /* \"#utility.yul\":5222:5269   */\n      mstore\n        /* \"#utility.yul\":5286:5364   */\n      tag_162\n        /* \"#utility.yul\":5359:5363   */\n      dup2\n        /* \"#utility.yul\":5350:5356   */\n      dup6\n        /* \"#utility.yul\":5286:5364   */\n      tag_73\n      jump\t// in\n    tag_162:\n        /* \"#utility.yul\":5278:5364   */\n      swap1\n      pop\n        /* \"#utility.yul\":5374:5440   */\n      tag_163\n        /* \"#utility.yul\":5436:5438   */\n      0x20\n        /* \"#utility.yul\":5425:5434   */\n      dup4\n        /* \"#utility.yul\":5421:5439   */\n      add\n        /* \"#utility.yul\":5412:5418   */\n      dup5\n        /* \"#utility.yul\":5374:5440   */\n      tag_75\n      jump\t// in\n    tag_163:\n        /* \"#utility.yul\":5036:5447   */\n      swap4\n      swap3\n      pop\n      pop\n      pop\n      jump\t// out\n        /* \"#utility.yul\":5453:5766   */\n    tag_23:\n        /* \"#utility.yul\":5566:5570   */\n      0x00\n        /* \"#utility.yul\":5604:5606   */\n      0x20\n        /* \"#utility.yul\":5593:5602   */\n      dup3\n        /* \"#utility.yul\":5589:5607   */\n      add\n        /* \"#utility.yul\":5581:5607   */\n      swap1\n      pop\n        /* \"#utility.yul\":5653:5662   */\n      dup2\n        /* \"#utility.yul\":5647:5651   */\n      dup2\n        /* \"#utility.yul\":5643:5663   */\n      sub\n        /* \"#utility.yul\":5639:5640   */\n      0x00\n        /* \"#utility.yul\":5628:5637   */\n      dup4\n        /* \"#utility.yul\":5624:5641   */\n      add\n        /* \"#utility.yul\":5617:5664   */\n      mstore\n        /* \"#utility.yul\":5681:5759   */\n      tag_165\n        /* \"#utility.yul\":5754:5758   */\n      dup2\n        /* \"#utility.yul\":5745:5751   */\n      dup5\n        /* \"#utility.yul\":5681:5759   */\n      tag_73\n      jump\t// in\n    tag_165:\n        /* \"#utility.yul\":5673:5759   */\n      swap1\n      pop\n        /* \"#utility.yul\":5453:5766   */\n      swap3\n      swap2\n      pop\n      pop\n      jump\t// out\n        /* \"#utility.yul\":5772:5946   */\n    tag_76:\n        /* \"#utility.yul\":5912:5938   */\n      0x4e616d652073686f756c64206e6f7420626520656d7074790000000000000000\n        /* \"#utility.yul\":5908:5909   */\n      0x00\n        /* \"#utility.yul\":5900:5906   */\n      dup3\n        /* \"#utility.yul\":5896:5910   */\n      add\n        /* \"#utility.yul\":5889:5939   */\n      mstore\n        /* \"#utility.yul\":5772:5946   */\n      pop\n      jump\t// out\n        /* \"#utility.yul\":5952:6318   */\n    tag_77:\n        /* \"#utility.yul\":6094:6097   */\n      0x00\n        /* \"#utility.yul\":6115:6182   */\n      tag_168\n        /* \"#utility.yul\":6179:6181   */\n      0x18\n        /* \"#utility.yul\":6174:6177   */\n      dup4\n        /* \"#utility.yul\":6115:6182   */\n      tag_71\n      jump\t// in\n    tag_168:\n        /* \"#utility.yul\":6108:6182   */\n      swap2\n      pop\n        /* \"#utility.yul\":6191:6284   */\n      tag_169\n        /* \"#utility.yul\":6280:6283   */\n      dup3\n        /* \"#utility.yul\":6191:6284   */\n      tag_76\n      jump\t// in\n    tag_169:\n        /* \"#utility.yul\":6309:6311   */\n      0x20\n        /* \"#utility.yul\":6304:6307   */\n      dup3\n        /* \"#utility.yul\":6300:6312   */\n      add\n        /* \"#utility.yul\":6293:6312   */\n      swap1\n      pop\n        /* \"#utility.yul\":5952:6318   */\n      swap2\n      swap1\n      pop\n      jump\t// out\n        /* \"#utility.yul\":6324:6743   */\n    tag_27:\n        /* \"#utility.yul\":6490:6494   */\n      0x00\n        /* \"#utility.yul\":6528:6530   */\n      0x20\n        /* \"#utility.yul\":6517:6526   */\n      dup3\n        /* \"#utility.yul\":6513:6531   */\n      add\n        /* \"#utility.yul\":6505:6531   */\n      swap1\n      pop\n        /* \"#utility.yul\":6577:6586   */\n      dup2\n        /* \"#utility.yul\":6571:6575   */\n      dup2\n        /* \"#utility.yul\":6567:6587   */\n      sub\n        /* \"#utility.yul\":6563:6564   */\n      0x00\n        /* \"#utility.yul\":6552:6561   */\n      dup4\n        /* \"#utility.yul\":6548:6565   */\n      add\n        /* \"#utility.yul\":6541:6588   */\n      mstore\n        /* \"#utility.yul\":6605:6736   */\n      tag_171\n        /* \"#utility.yul\":6731:6735   */\n      dup2\n        /* \"#utility.yul\":6605:6736   */\n      tag_77\n      jump\t// in\n    tag_171:\n        /* \"#utility.yul\":6597:6736   */\n      swap1\n      pop\n        /* \"#utility.yul\":6324:6743   */\n      swap2\n      swap1\n      pop\n      jump\t// out\n        /* \"#utility.yul\":6749:6928   */\n    tag_78:\n        /* \"#utility.yul\":6889:6920   */\n      0x4164647265737320697320616c72656164792072656769737465726564000000\n        /* \"#utility.yul\":6885:6886   */\n      0x00\n        /* \"#utility.yul\":6877:6883   */\n      dup3\n        /* \"#utility.yul\":6873:6887   */\n      add\n        /* \"#utility.yul\":6866:6921   */\n      mstore\n        /* \"#utility.yul\":6749:6928   */\n      pop\n      jump\t// out\n        /* \"#utility.yul\":6934:7300   */\n    tag_79:\n        /* \"#utility.yul\":7076:7079   */\n      0x00\n        /* \"#utility.yul\":7097:7164   */\n      tag_174\n        /* \"#utility.yul\":7161:7163   */\n      0x1d\n        /* \"#utility.yul\":7156:7159   */\n      dup4\n        /* \"#utility.yul\":7097:7164   */\n      tag_71\n      jump\t// in\n    tag_174:\n        /* \"#utility.yul\":7090:7164   */\n      swap2\n      pop\n        /* \"#utility.yul\":7173:7266   */\n      tag_175\n        /* \"#utility.yul\":7262:7265   */\n      dup3\n        /* \"#utility.yul\":7173:7266   */\n      tag_78\n      jump\t// in\n    tag_175:\n        /* \"#utility.yul\":7291:7293   */\n      0x20\n        /* \"#utility.yul\":7286:7289   */\n      dup3\n        /* \"#utility.yul\":7282:7294   */\n      add\n        /* \"#utility.yul\":7275:7294   */\n      swap1\n      pop\n        /* \"#utility.yul\":6934:7300   */\n      swap2\n      swap1\n      pop\n      jump\t// out\n        /* \"#utility.yul\":7306:7725   */\n    tag_30:\n        /* \"#utility.yul\":7472:7476   */\n      0x00\n        /* \"#utility.yul\":7510:7512   */\n      0x20\n        /* \"#utility.yul\":7499:7508   */\n      dup3\n        /* \"#utility.yul\":7495:7513   */\n      add\n        /* \"#utility.yul\":7487:7513   */\n      swap1\n      pop\n        /* \"#utility.yul\":7559:7568   */\n      dup2\n        /* \"#utility.yul\":7553:7557   */\n      dup2\n        /* \"#utility.yul\":7549:7569   */\n      sub\n        /* \"#utility.yul\":7545:7546   */\n      0x00\n        /* \"#utility.yul\":7534:7543   */\n      dup4\n        /* \"#utility.yul\":7530:7547   */\n      add\n        /* \"#utility.yul\":7523:7570   */\n      mstore\n        /* \"#utility.yul\":7587:7718   */\n      tag_177\n        /* \"#utility.yul\":7713:7717   */\n      dup2\n        /* \"#utility.yul\":7587:7718   */\n      tag_79\n      jump\t// in\n    tag_177:\n        /* \"#utility.yul\":7579:7718   */\n      swap1\n      pop\n        /* \"#utility.yul\":7306:7725   */\n      swap2\n      swap1\n      pop\n      jump\t// out\n        /* \"#utility.yul\":7731:7911   */\n    tag_80:\n        /* \"#utility.yul\":7779:7856   */\n      0x4e487b7100000000000000000000000000000000000000000000000000000000\n        /* \"#utility.yul\":7776:7777   */\n      0x00\n        /* \"#utility.yul\":7769:7857   */\n      mstore\n        /* \"#utility.yul\":7876:7880   */\n      0x22\n        /* \"#utility.yul\":7873:7874   */\n      0x04\n        /* \"#utility.yul\":7866:7881   */\n      mstore\n        /* \"#utility.yul\":7900:7904   */\n      0x24\n        /* \"#utility.yul\":7897:7898   */\n      0x00\n        /* \"#utility.yul\":7890:7905   */\n      revert\n        /* \"#utility.yul\":7917:8237   */\n    tag_40:\n        /* \"#utility.yul\":7961:7967   */\n      0x00\n        /* \"#utility.yul\":7998:7999   */\n      0x02\n        /* \"#utility.yul\":7992:7996   */\n      dup3\n        /* \"#utility.yul\":7988:8000   */\n      div\n        /* \"#utility.yul\":7978:8000   */\n      swap1\n      pop\n        /* \"#utility.yul\":8045:8046   */\n      0x01\n        /* \"#utility.yul\":8039:8043   */\n      dup3\n        /* \"#utility.yul\":8035:8047   */\n      and\n        /* \"#utility.yul\":8066:8084   */\n      dup1\n        /* \"#utility.yul\":8056:8137   */\n      tag_180\n      jumpi\n        /* \"#utility.yul\":8122:8126   */\n      0x7f\n        /* \"#utility.yul\":8114:8120   */\n      dup3\n        /* \"#utility.yul\":8110:8127   */\n      and\n        /* \"#utility.yul\":8100:8127   */\n      swap2\n      pop\n        /* \"#utility.yul\":8056:8137   */\n    tag_180:\n        /* \"#utility.yul\":8184:8186   */\n      0x20\n        /* \"#utility.yul\":8176:8182   */\n      dup3\n        /* \"#utility.yul\":8173:8187   */\n      lt\n        /* \"#utility.yul\":8153:8171   */\n      dup2\n        /* \"#utility.yul\":8150:8188   */\n      sub\n        /* \"#utility.yul\":8147:8231   */\n      tag_181\n      jumpi\n        /* \"#utility.yul\":8203:8221   */\n      tag_182\n      tag_80\n      jump\t// in\n    tag_182:\n        /* \"#utility.yul\":8147:8231   */\n    tag_181:\n        /* \"#utility.yul\":7968:8237   */\n      pop\n        /* \"#utility.yul\":7917:8237   */\n      swap2\n      swap1\n      pop\n      jump\t// out\n        /* \"#utility.yul\":8243:8384   */\n    tag_81:\n        /* \"#utility.yul\":8292:8296   */\n      0x00\n        /* \"#utility.yul\":8315:8318   */\n      dup2\n        /* \"#utility.yul\":8307:8318   */\n      swap1\n      pop\n        /* \"#utility.yul\":8338:8341   */\n      dup2\n        /* \"#utility.yul\":8335:8336   */\n      0x00\n        /* \"#utility.yul\":8328:8342   */\n      mstore\n        /* \"#utility.yul\":8372:8376   */\n      0x20\n        /* \"#utility.yul\":8369:8370   */\n      0x00\n        /* \"#utility.yul\":8359:8377   */\n      keccak256\n        /* \"#utility.yul\":8351:8377   */\n      swap1\n      pop\n        /* \"#utility.yul\":8243:8384   */\n      swap2\n      swap1\n      pop\n      jump\t// out\n        /* \"#utility.yul\":8390:8483   */\n    tag_82:\n        /* \"#utility.yul\":8427:8433   */\n      0x00\n        /* \"#utility.yul\":8474:8476   */\n      0x20\n        /* \"#utility.yul\":8469:8471   */\n      0x1f\n        /* \"#utility.yul\":8462:8467   */\n      dup4\n        /* \"#utility.yul\":8458:8472   */\n      add\n        /* \"#utility.yul\":8454:8477   */\n      div\n        /* \"#utility.yul\":8444:8477   */\n      swap1\n      pop\n        /* \"#utility.yul\":8390:8483   */\n      swap2\n      swap1\n      pop\n      jump\t// out\n        /* \"#utility.yul\":8489:8596   */\n    tag_83:\n        /* \"#utility.yul\":8533:8541   */\n      0x00\n        /* \"#utility.yul\":8583:8588   */\n      dup3\n        /* \"#utility.yul\":8577:8581   */\n      dup3\n        /* \"#utility.yul\":8573:8589   */\n      shl\n        /* \"#utility.yul\":8552:8589   */\n      swap1\n      pop\n        /* \"#utility.yul\":8489:8596   */\n      swap3\n      swap2\n      pop\n      pop\n      jump\t// out\n        /* \"#utility.yul\":8602:8995   */\n    tag_84:\n        /* \"#utility.yul\":8671:8677   */\n      0x00\n        /* \"#utility.yul\":8721:8722   */\n      0x08\n        /* \"#utility.yul\":8709:8719   */\n      dup4\n        /* \"#utility.yul\":8705:8723   */\n      mul\n        /* \"#utility.yul\":8744:8841   */\n      tag_187\n        /* \"#utility.yul\":8774:8840   */\n      0xffffffffffffffffffffffffffffffffffffffffffffffffffffffffffffffff\n        /* \"#utility.yul\":8763:8772   */\n      dup3\n        /* \"#utility.yul\":8744:8841   */\n      tag_83\n      jump\t// in\n    tag_187:\n        /* \"#utility.yul\":8862:8901   */\n      tag_188\n        /* \"#utility.yul\":8892:8900   */\n      dup7\n        /* \"#utility.yul\":8881:8890   */\n      dup4\n        /* \"#utility.yul\":8862:8901   */\n      tag_83\n      jump\t// in\n    tag_188:\n        /* \"#utility.yul\":8850:8901   */\n      swap6\n      pop\n        /* \"#utility.yul\":8934:8938   */\n      dup1\n        /* \"#utility.yul\":8930:8939   */\n      not\n        /* \"#utility.yul\":8923:8928   */\n      dup5\n        /* \"#utility.yul\":8919:8940   */\n      and\n        /* \"#utility.yul\":8910:8940   */\n      swap4\n      pop\n        /* \"#utility.yul\":8983:8987   */\n      dup1\n        /* \"#utility.yul\":8973:8981   */\n      dup7\n        /* \"#utility.yul\":8969:8988   */\n      and\n        /* \"#utility.yul\":8962:8967   */\n      dup5\n        /* \"#utility.yul\":8959:8989   */\n      or\n        /* \"#utility.yul\":8949:8989   */\n      swap3\n      pop\n        /* \"#utility.yul\":8678:8995   */\n      pop\n      pop\n        /* \"#utility.yul\":8602:8995   */\n      swap4\n      swap3\n      pop\n      pop\n      pop\n      jump\t// out\n        /* \"#utility.yul\":9001:9078   */\n    tag_85:\n        /* \"#utility.yul\":9038:9045   */\n      0x00\n        /* \"#utility.yul\":9067:9072   */\n      dup2\n        /* \"#utility.yul\":9056:9072   */\n      swap1\n      pop\n        /* \"#utility.yul\":9001:9078   */\n      swap2\n      swap1\n      pop\n      jump\t// out\n        /* \"#utility.yul\":9084:9144   */\n    tag_86:\n        /* \"#utility.yul\":9112:9115   */\n      0x00\n        /* \"#utility.yul\":9133:9138   */\n      dup2\n        /* \"#utility.yul\":9126:9138   */\n      swap1\n      pop\n        /* \"#utility.yul\":9084:9144   */\n      swap2\n      swap1\n      pop\n      jump\t// out\n        /* \"#utility.yul\":9150:9292   */\n    tag_87:\n        /* \"#utility.yul\":9200:9209   */\n      0x00\n        /* \"#utility.yul\":9233:9286   */\n      tag_192\n        /* \"#utility.yul\":9251:9285   */\n      tag_193\n        /* \"#utility.yul\":9260:9284   */\n      tag_194\n        /* \"#utility.yul\":9278:9283   */\n      dup5\n        /* \"#utility.yul\":9260:9284   */\n      tag_85\n      jump\t// in\n    tag_194:\n        /* \"#utility.yul\":9251:9285   */\n      tag_86\n      jump\t// in\n    tag_193:\n        /* \"#utility.yul\":9233:9286   */\n      tag_85\n      jump\t// in\n    tag_192:\n        /* \"#utility.yul\":9220:9286   */\n      swap1\n      pop\n        /* \"#utility.yul\":9150:9292   */\n      swap2\n      swap1\n      pop\n      jump\t// out\n        /* \"#utility.yul\":9298:9373   */\n    tag_88:\n        /* \"#utility.yul\":9341:9344   */\n      0x00\n        /* \"#utility.yul\":9362:9367   */\n      dup2\n        /* \"#utility.yul\":9355:9367   */\n      swap1\n      pop\n        /* \"#utility.yul\":9298:9373   */\n      swap2\n      swap1\n      pop\n      jump\t// out\n        /* \"#utility.yul\":9379:9648   */\n    tag_89:\n        /* \"#utility.yul\":9489:9528   */\n      tag_197\n        /* \"#utility.yul\":9520:9527   */\n      dup4\n        /* \"#utility.yul\":9489:9528   */\n      tag_87\n      jump\t// in\n    tag_197:\n        /* \"#utility.yul\":9550:9641   */\n      tag_198\n        /* \"#utility.yul\":9599:9640   */\n      tag_199\n        /* \"#utility.yul\":9623:9639   */\n      dup3\n        /* \"#utility.yul\":9599:9640   */\n      tag_88\n      jump\t// in\n    tag_199:\n        /* \"#utility.yul\":9591:9597   */\n      dup5\n        /* \"#utility.yul\":9584:9588   */\n      dup5\n        /* \"#utility.yul\":9578:9589   */\n      sload\n        /* \"#utility.yul\":9550:9641   */\n      tag_84\n      jump\t// in\n    tag_198:\n        /* \"#utility.yul\":9544:9548   */\n      dup3\n        /* \"#utility.yul\":9537:9642   */\n      sstore\n        /* \"#utility.yul\":9455:9648   */\n      pop\n        /* \"#utility.yul\":9379:9648   */\n      pop\n      pop\n      pop\n      jump\t// out\n        /* \"#utility.yul\":9654:9727   */\n    tag_90:\n        /* \"#utility.yul\":9699:9702   */\n      0x00\n        /* \"#utility.yul\":9654:9727   */\n      swap1\n      jump\t// out\n        /* \"#utility.yul\":9733:9922   */\n    tag_91:\n        /* \"#utility.yul\":9810:9842   */\n      tag_202\n      tag_90\n      jump\t// in\n    tag_202:\n        /* \"#utility.yul\":9851:9916   */\n      tag_203\n        /* \"#utility.yul\":9909:9915   */\n      dup2\n        /* \"#utility.yul\":9901:9907   */\n      dup5\n        /* \"#utility.yul\":9895:9899   */\n      dup5\n        /* \"#utility.yul\":9851:9916   */\n      tag_89\n      jump\t// in\n    tag_203:\n        /* \"#utility.yul\":9786:9922   */\n      pop\n        /* \"#utility.yul\":9733:9922   */\n      pop\n      pop\n      jump\t// out\n        /* \"#utility.yul\":9928:10114   */\n    tag_92:\n        /* \"#utility.yul\":9988:10108   */\n    tag_205:\n        /* \"#utility.yul\":10005:10008   */\n      dup2\n        /* \"#utility.yul\":9998:10003   */\n      dup2\n        /* \"#utility.yul\":9995:10009   */\n      lt\n        /* \"#utility.yul\":9988:10108   */\n      iszero\n      tag_207\n      jumpi\n        /* \"#utility.yul\":10059:10098   */\n      tag_208\n        /* \"#utility.yul\":10096:10097   */\n      0x00\n        /* \"#utility.yul\":10089:10094   */\n      dup3\n        /* \"#utility.yul\":10059:10098   */\n      tag_91\n      jump\t// in\n    tag_208:\n        /* \"#utility.yul\":10032:10033   */\n      0x01\n        /* \"#utility.yul\":10025:10030   */\n      dup2\n        /* \"#utility.yul\":10021:10034   */\n      add\n        /* \"#utility.yul\":10012:10034   */\n      swap1\n      pop\n        /* \"#utility.yul\":9988:10108   */\n      jump(tag_205)\n    tag_207:\n        /* \"#utility.yul\":9928:10114   */\n      pop\n      pop\n      jump\t// out\n        /* \"#utility.yul\":10120:10663   */\n    tag_93:\n        /* \"#utility.yul\":10221:10223   */\n      0x1f\n        /* \"#utility.yul\":10216:10219   */\n      dup3\n        /* \"#utility.yul\":10213:10224   */\n      gt\n        /* \"#utility.yul\":10210:10656   */\n      iszero\n      tag_210\n      jumpi\n        /* \"#utility.yul\":10255:10293   */\n      tag_211\n        /* \"#utility.yul\":10287:10292   */\n      dup2\n        /* \"#utility.yul\":10255:10293   */\n      tag_81\n      jump\t// in\n    tag_211:\n        /* \"#utility.yul\":10339:10368   */\n      tag_212\n        /* \"#utility.yul\":10357:10367   */\n      dup5\n        /* \"#utility.yul\":10339:10368   */\n      tag_82\n      jump\t// in\n    tag_212:\n        /* \"#utility.yul\":10329:10337   */\n      dup2\n        /* \"#utility.yul\":10325:10369   */\n      add\n        /* \"#utility.yul\":10522:10524   */\n      0x20\n        /* \"#utility.yul\":10510:10520   */\n      dup6\n        /* \"#utility.yul\":10507:10525   */\n      lt\n        /* \"#utility.yul\":10504:10553   */\n      iszero\n      tag_213\n      jumpi\n        /* \"#utility.yul\":10543:10551   */\n      dup2\n        /* \"#utility.yul\":10528:10551   */\n      swap1\n      pop\n        /* \"#utility.yul\":10504:10553   */\n    tag_213:\n        /* \"#utility.yul\":10566:10646   */\n      tag_214\n        /* \"#utility.yul\":10622:10644   */\n      tag_215\n        /* \"#utility.yul\":10640:10643   */\n      dup6\n        /* \"#utility.yul\":10622:10644   */\n      tag_82\n      jump\t// in\n    tag_215:\n        /* \"#utility.yul\":10612:10620   */\n      dup4\n        /* \"#utility.yul\":10608:10645   */\n      add\n        /* \"#utility.yul\":10595:10606   */\n      dup3\n        /* \"#utility.yul\":10566:10646   */\n      tag_92\n      jump\t// in\n    tag_214:\n        /* \"#utility.yul\":10225:10656   */\n      pop\n      pop\n        /* \"#utility.yul\":10210:10656   */\n    tag_210:\n        /* \"#utility.yul\":10120:10663   */\n      pop\n      pop\n      pop\n      jump\t// out\n        /* \"#utility.yul\":10669:10786   */\n    tag_94:\n        /* \"#utility.yul\":10723:10731   */\n      0x00\n        /* \"#utility.yul\":10773:10778   */\n      dup3\n        /* \"#utility.yul\":10767:10771   */\n      dup3\n        /* \"#utility.yul\":10763:10779   */\n      shr\n        /* \"#utility.yul\":10742:10779   */\n      swap1\n      pop\n        /* \"#utility.yul\":10669:10786   */\n      swap3\n      swap2\n      pop\n      pop\n      jump\t// out\n        /* \"#utility.yul\":10792:10961   */\n    tag_95:\n        /* \"#utility.yul\":10836:10842   */\n      0x00\n        /* \"#utility.yul\":10869:10920   */\n      tag_218\n        /* \"#utility.yul\":10917:10918   */\n      0x00\n        /* \"#utility.yul\":10913:10919   */\n      not\n        /* \"#utility.yul\":10905:10910   */\n      dup5\n        /* \"#utility.yul\":10902:10903   */\n      0x08\n        /* \"#utility.yul\":10898:10911   */\n      mul\n        /* \"#utility.yul\":10869:10920   */\n      tag_94\n      jump\t// in\n    tag_218:\n        /* \"#utility.yul\":10865:10921   */\n      not\n        /* \"#utility.yul\":10950:10954   */\n      dup1\n        /* \"#utility.yul\":10944:10948   */\n      dup4\n        /* \"#utility.yul\":10940:10955   */\n      and\n        /* \"#utility.yul\":10930:10955   */\n      swap2\n      pop\n        /* \"#utility.yul\":10843:10961   */\n      pop\n        /* \"#utility.yul\":10792:10961   */\n      swap3\n      swap2\n      pop\n      pop\n      jump\t// out\n        /* \"#utility.yul\":10966:11261   */\n    tag_96:\n        /* \"#utility.yul\":11042:11046   */\n      0x00\n        /* \"#utility.yul\":11188:11217   */\n      tag_220\n        /* \"#utility.yul\":11213:11216   */\n      dup4\n        /* \"#utility.yul\":11207:11211   */\n      dup4\n        /* \"#utility.yul\":11188:11217   */\n      tag_95\n      jump\t// in\n    tag_220:\n        /* \"#utility.yul\":11180:11217   */\n      swap2\n      pop\n        /* \"#utility.yul\":11250:11253   */\n      dup3\n        /* \"#utility.yul\":11247:11248   */\n      0x02\n        /* \"#utility.yul\":11243:11254   */\n      mul\n        /* \"#utility.yul\":11237:11241   */\n      dup3\n        /* \"#utility.yul\":11234:11255   */\n      or\n        /* \"#utility.yul\":11226:11255   */\n      swap1\n      pop\n        /* \"#utility.yul\":10966:11261   */\n      swap3\n      swap2\n      pop\n      pop\n      jump\t// out\n        /* \"#utility.yul\":11266:12661   */\n    tag_32:\n        /* \"#utility.yul\":11383:11420   */\n      tag_222\n        /* \"#utility.yul\":11416:11419   */\n      dup3\n        /* \"#utility.yul\":11383:11420   */\n      tag_70\n      jump\t// in\n    tag_222:\n        /* \"#utility.yul\":11485:11503   */\n      0xffffffffffffffff\n        /* \"#utility.yul\":11477:11483   */\n      dup2\n        /* \"#utility.yul\":11474:11504   */\n      gt\n        /* \"#utility.yul\":11471:11527   */\n      iszero\n      tag_223\n      jumpi\n        /* \"#utility.yul\":11507:11525   */\n      tag_224\n      tag_59\n      jump\t// in\n    tag_224:\n        /* \"#utility.yul\":11471:11527   */\n    tag_223:\n        /* \"#utility.yul\":11551:11589   */\n      tag_225\n        /* \"#utility.yul\":11583:11587   */\n      dup3\n        /* \"#utility.yul\":11577:11588   */\n      sload\n        /* \"#utility.yul\":11551:11589   */\n      tag_40\n      jump\t// in\n    tag_225:\n        /* \"#utility.yul\":11636:11703   */\n      tag_226\n        /* \"#utility.yul\":11696:11702   */\n      dup3\n        /* \"#utility.yul\":11688:11694   */\n      dup3\n        /* \"#utility.yul\":11682:11686   */\n      dup6\n        /* \"#utility.yul\":11636:11703   */\n      tag_93\n      jump\t// in\n    tag_226:\n        /* \"#utility.yul\":11730:11731   */\n      0x00\n        /* \"#utility.yul\":11754:11758   */\n      0x20\n        /* \"#utility.yul\":11741:11758   */\n      swap1\n      pop\n        /* \"#utility.yul\":11786:11788   */\n      0x1f\n        /* \"#utility.yul\":11778:11784   */\n      dup4\n        /* \"#utility.yul\":11775:11789   */\n      gt\n        /* \"#utility.yul\":11803:11804   */\n      0x01\n        /* \"#utility.yul\":11798:12416   */\n      dup2\n      eq\n      tag_228\n      jumpi\n        /* \"#utility.yul\":12460:12461   */\n      0x00\n        /* \"#utility.yul\":12477:12483   */\n      dup5\n        /* \"#utility.yul\":12474:12551   */\n      iszero\n      tag_229\n      jumpi\n        /* \"#utility.yul\":12526:12535   */\n      dup3\n        /* \"#utility.yul\":12521:12524   */\n      dup8\n        /* \"#utility.yul\":12517:12536   */\n      add\n        /* \"#utility.yul\":12511:12537   */\n      mload\n        /* \"#utility.yul\":12502:12537   */\n      swap1\n      pop\n        /* \"#utility.yul\":12474:12551   */\n    tag_229:\n        /* \"#utility.yul\":12577:12644   */\n      tag_230\n        /* \"#utility.yul\":12637:12643   */\n      dup6\n        /* \"#utility.yul\":12630:12635   */\n      dup3\n        /* \"#utility.yul\":12577:12644   */\n      tag_96\n      jump\t// in\n    tag_230:\n        /* \"#utility.yul\":12571:12575   */\n      dup7\n        /* \"#utility.yul\":12564:12645   */\n      sstore\n        /* \"#utility.yul\":12433:12655   */\n      pop\n        /* \"#utility.yul\":11768:12655   */\n      jump(tag_227)\n        /* \"#utility.yul\":11798:12416   */\n    tag_228:\n        /* \"#utility.yul\":11850:11854   */\n      0x1f\n        /* \"#utility.yul\":11846:11855   */\n      not\n        /* \"#utility.yul\":11838:11844   */\n      dup5\n        /* \"#utility.yul\":11834:11856   */\n      and\n        /* \"#utility.yul\":11884:11921   */\n      tag_231\n        /* \"#utility.yul\":11916:11920   */\n      dup7\n        /* \"#utility.yul\":11884:11921   */\n      tag_81\n      jump\t// in\n    tag_231:\n        /* \"#utility.yul\":11943:11944   */\n      0x00\n        /* \"#utility.yul\":11957:12165   */\n    tag_232:\n        /* \"#utility.yul\":11971:11978   */\n      dup3\n        /* \"#utility.yul\":11968:11969   */\n      dup2\n        /* \"#utility.yul\":11965:11979   */\n      lt\n        /* \"#utility.yul\":11957:12165   */\n      iszero\n      tag_234\n      jumpi\n        /* \"#utility.yul\":12050:12059   */\n      dup5\n        /* \"#utility.yul\":12045:12048   */\n      dup10\n        /* \"#utility.yul\":12041:12060   */\n      add\n        /* \"#utility.yul\":12035:12061   */\n      mload\n        /* \"#utility.yul\":12027:12033   */\n      dup3\n        /* \"#utility.yul\":12020:12062   */\n      sstore\n        /* \"#utility.yul\":12101:12102   */\n      0x01\n        /* \"#utility.yul\":12093:12099   */\n      dup3\n        /* \"#utility.yul\":12089:12103   */\n      add\n        /* \"#utility.yul\":12079:12103   */\n      swap2\n      pop\n        /* \"#utility.yul\":12148:12150   */\n      0x20\n        /* \"#utility.yul\":12137:12146   */\n      dup6\n        /* \"#utility.yul\":12133:12151   */\n      add\n        /* \"#utility.yul\":12120:12151   */\n      swap5\n      pop\n        /* \"#utility.yul\":11994:11998   */\n      0x20\n        /* \"#utility.yul\":11991:11992   */\n      dup2\n        /* \"#utility.yul\":11987:11999   */\n      add\n        /* \"#utility.yul\":11982:11999   */\n      swap1\n      pop\n        /* \"#utility.yul\":11957:12165   */\n      jump(tag_232)\n    tag_234:\n        /* \"#utility.yul\":12193:12199   */\n      dup7\n        /* \"#utility.yul\":12184:12191   */\n      dup4\n        /* \"#utility.yul\":12181:12200   */\n      lt\n        /* \"#utility.yul\":12178:12357   */\n      iszero\n      tag_235\n      jumpi\n        /* \"#utility.yul\":12251:12260   */\n      dup5\n        /* \"#utility.yul\":12246:12249   */\n      dup10\n        /* \"#utility.yul\":12242:12261   */\n      add\n        /* \"#utility.yul\":12236:12262   */\n      mload\n        /* \"#utility.yul\":12294:12342   */\n      tag_236\n        /* \"#utility.yul\":12336:12340   */\n      0x1f\n        /* \"#utility.yul\":12328:12334   */\n      dup10\n        /* \"#utility.yul\":12324:12341   */\n      and\n        /* \"#utility.yul\":12313:12322   */\n      dup3\n        /* \"#utility.yul\":12294:12342   */\n      tag_95\n      jump\t// in\n    tag_236:\n        /* \"#utility.yul\":12286:12292   */\n      dup4\n        /* \"#utility.yul\":12279:12343   */\n      sstore\n        /* \"#utility.yul\":12201:12357   */\n      pop\n        /* \"#utility.yul\":12178:12357   */\n    tag_235:\n        /* \"#utility.yul\":12403:12404   */\n      0x01\n        /* \"#utility.yul\":12399:12400   */\n      0x02\n        /* \"#utility.yul\":12391:12397   */\n      dup9\n        /* \"#utility.yul\":12387:12401   */\n      mul\n        /* \"#utility.yul\":12383:12405   */\n      add\n        /* \"#utility.yul\":12377:12381   */\n      dup9\n        /* \"#utility.yul\":12370:12406   */\n      sstore\n        /* \"#utility.yul\":11805:12416   */\n      pop\n      pop\n      pop\n        /* \"#utility.yul\":11768:12655   */\n    tag_227:\n      pop\n        /* \"#utility.yul\":11358:12661   */\n      pop\n      pop\n      pop\n        /* \"#utility.yul\":11266:12661   */\n      pop\n      pop\n      jump\t// out\n        /* \"#utility.yul\":12667:12842   */\n    tag_97:\n        /* \"#utility.yul\":12807:12834   */\n      0x41646472657373206973206e6f74207265676973746572656400000000000000\n        /* \"#utility.yul\":12803:12804   */\n      0x00\n        /* \"#utility.yul\":12795:12801   */\n      dup3\n        /* \"#utility.yul\":12791:12805   */\n      add\n        /* \"#utility.yul\":12784:12835   */\n      mstore\n        /* \"#utility.yul\":12667:12842   */\n      pop\n      jump\t// out\n        /* \"#utility.yul\":12848:13214   */\n    tag_98:\n        /* \"#utility.yul\":12990:12993   */\n      0x00\n        /* \"#utility.yul\":13011:13078   */\n      tag_239\n        /* \"#utility.yul\":13075:13077   */\n      0x19\n        /* \"#utility.yul\":13070:13073   */\n      dup4\n        /* \"#utility.yul\":13011:13078   */\n      tag_71\n      jump\t// in\n    tag_239:\n        /* \"#utility.yul\":13004:13078   */\n      swap2\n      pop\n        /* \"#utility.yul\":13087:13180   */\n      tag_240\n        /* \"#utility.yul\":13176:13179   */\n      dup3\n        /* \"#utility.yul\":13087:13180   */\n      tag_97\n      jump\t// in\n    tag_240:\n        /* \"#utility.yul\":13205:13207   */\n      0x20\n        /* \"#utility.yul\":13200:13203   */\n      dup3\n        /* \"#utility.yul\":13196:13208   */\n      add\n        /* \"#utility.yul\":13189:13208   */\n      swap1\n      pop\n        /* \"#utility.yul\":12848:13214   */\n      swap2\n      swap1\n      pop\n      jump\t// out\n        /* \"#utility.yul\":13220:13639   */\n    tag_37:\n        /* \"#utility.yul\":13386:13390   */\n      0x00\n        /* \"#utility.yul\":13424:13426   */\n      0x20\n        /* \"#utility.yul\":13413:13422   */\n      dup3\n        /* \"#utility.yul\":13409:13427   */\n      add\n        /* \"#utility.yul\":13401:13427   */\n      swap1\n      pop\n        /* \"#utility.yul\":13473:13482   */\n      dup2\n        /* \"#utility.yul\":13467:13471   */\n      dup2\n        /* \"#utility.yul\":13463:13483   */\n      sub\n        /* \"#utility.yul\":13459:13460   */\n      0x00\n        /* \"#utility.yul\":13448:13457   */\n      dup4\n        /* \"#utility.yul\":13444:13461   */\n      add\n        /* \"#utility.yul\":13437:13484   */\n      mstore\n        /* \"#utility.yul\":13501:13632   */\n      tag_242\n        /* \"#utility.yul\":13627:13631   */\n      dup2\n        /* \"#utility.yul\":13501:13632   */\n      tag_98\n      jump\t// in\n    tag_242:\n        /* \"#utility.yul\":13493:13632   */\n      swap1\n      pop\n        /* \"#utility.yul\":13220:13639   */\n      swap2\n      swap1\n      pop\n      jump\t// out\n\n    auxdata: 0xa26469706673582212208d5927e3db2e1e012301ff8cb5dbf5ec94cea12acd2aed0a1860e1379254e5f864736f6c63430008120033\n}\n",
				"bytecode": {
					"linkReferences": {},
					"object": "608060405234801561001057600080fd5b50610d83806100206000396000f3fe608060405234801561001057600080fd5b506004361061004c5760003560e01c80630830602b146100515780630d5fba831461006d5780630e7b29bf146100775780635fd4b08a146100a8575b600080fd5b61006b60048036038101906100669190610761565b6100d8565b005b61007561028b565b005b610091600480360381019061008c9190610808565b6103fc565b60405161009f9291906108cf565b60405180910390f35b6100c260048036038101906100bd9190610808565b6104b5565b6040516100cf91906108ff565b60405180910390f35b600081511161011c576040517f08c379a00000000000000000000000000000000000000000000000000000000081526004016101139061096d565b60405180910390fd5b6000803373ffffffffffffffffffffffffffffffffffffffff1673ffffffffffffffffffffffffffffffffffffffff16815260200190815260200160002060010160009054906101000a900460ff16156101ab576040517f08c379a00000000000000000000000000000000000000000000000000000000081526004016101a2906109d9565b60405180910390fd5b6040518060400160405280828152602001600115158152506000803373ffffffffffffffffffffffffffffffffffffffff1673ffffffffffffffffffffffffffffffffffffffff16815260200190815260200160002060008201518160000190816102169190610c0f565b5060208201518160010160006101000a81548160ff0219169083151502179055509050503373ffffffffffffffffffffffffffffffffffffffff167f56a1a2764a85c689329fbc04f299b64690a26b1dc5ac82e903cf8ad805cd53968260405161028091906108ff565b60405180910390a250565b6000803373ffffffffffffffffffffffffffffffffffffffff1673ffffffffffffffffffffffffffffffffffffffff16815260200190815260200160002060010160009054906101000a900460ff16610319576040517f08c379a000000000000000000000000000000000000000000000000000000000815260040161031090610d2d565b60405180910390fd5b6040518060400160405280604051806020016040528060008152508152602001600015158152506000803373ffffffffffffffffffffffffffffffffffffffff1673ffffffffffffffffffffffffffffffffffffffff16815260200190815260200160002060008201518160000190816103939190610c0f565b5060208201518160010160006101000a81548160ff0219169083151502179055509050503373ffffffffffffffffffffffffffffffffffffffff167fd535c2e59a2f16f058b1b296bef26cc2579ffc7f69aaf7b53f536943cb6a754360405160405180910390a2565b600060205280600052604060002060009150905080600001805461041f90610a28565b80601f016020809104026020016040519081016040528092919081815260200182805461044b90610a28565b80156104985780601f1061046d57610100808354040283529160200191610498565b820191906000526020600020905b81548152906001019060200180831161047b57829003601f168201915b5050505050908060010160009054906101000a900460ff16905082565b606060008060008473ffffffffffffffffffffffffffffffffffffffff1673ffffffffffffffffffffffffffffffffffffffff16815260200190815260200160002060405180604001604052908160008201805461051290610a28565b80601f016020809104026020016040519081016040528092919081815260200182805461053e90610a28565b801561058b5780601f106105605761010080835404028352916020019161058b565b820191906000526020600020905b81548152906001019060200180831161056e57829003601f168201915b505050505081526020016001820160009054906101000a900460ff16151515158152505090508060200151156105c8578060000151915050610602565b6040518060400160405280600981526020017f6e6f7420666f756e6400000000000000000000000000000000000000000000008152509150505b919050565b6000604051905090565b600080fd5b600080fd5b600080fd5b600080fd5b6000601f19601f8301169050919050565b7f4e487b7100000000000000000000000000000000000000000000000000000000600052604160045260246000fd5b61066e82610625565b810181811067ffffffffffffffff8211171561068d5761068c610636565b5b80604052505050565b60006106a0610607565b90506106ac8282610665565b919050565b600067ffffffffffffffff8211156106cc576106cb610636565b5b6106d582610625565b9050602081019050919050565b82818337600083830152505050565b60006107046106ff846106b1565b610696565b9050828152602081018484840111156107205761071f610620565b5b61072b8482856106e2565b509392505050565b600082601f8301126107485761074761061b565b5b81356107588482602086016106f1565b91505092915050565b60006020828403121561077757610776610611565b5b600082013567ffffffffffffffff81111561079557610794610616565b5b6107a184828501610733565b91505092915050565b600073ffffffffffffffffffffffffffffffffffffffff82169050919050565b60006107d5826107aa565b9050919050565b6107e5816107ca565b81146107f057600080fd5b50565b600081359050610802816107dc565b92915050565b60006020828403121561081e5761081d610611565b5b600061082c848285016107f3565b91505092915050565b600081519050919050565b600082825260208201905092915050565b60005b8381101561086f578082015181840152602081019050610854565b60008484015250505050565b600061088682610835565b6108908185610840565b93506108a0818560208601610851565b6108a981610625565b840191505092915050565b60008115159050919050565b6108c9816108b4565b82525050565b600060408201905081810360008301526108e9818561087b565b90506108f860208301846108c0565b9392505050565b60006020820190508181036000830152610919818461087b565b905092915050565b7f4e616d652073686f756c64206e6f7420626520656d7074790000000000000000600082015250565b6000610957601883610840565b915061096282610921565b602082019050919050565b600060208201905081810360008301526109868161094a565b9050919050565b7f4164647265737320697320616c72656164792072656769737465726564000000600082015250565b60006109c3601d83610840565b91506109ce8261098d565b602082019050919050565b600060208201905081810360008301526109f2816109b6565b9050919050565b7f4e487b7100000000000000000000000000000000000000000000000000000000600052602260045260246000fd5b60006002820490506001821680610a4057607f821691505b602082108103610a5357610a526109f9565b5b50919050565b60008190508160005260206000209050919050565b60006020601f8301049050919050565b600082821b905092915050565b600060088302610abb7fffffffffffffffffffffffffffffffffffffffffffffffffffffffffffffffff82610a7e565b610ac58683610a7e565b95508019841693508086168417925050509392505050565b6000819050919050565b6000819050919050565b6000610b0c610b07610b0284610add565b610ae7565b610add565b9050919050565b6000819050919050565b610b2683610af1565b610b3a610b3282610b13565b848454610a8b565b825550505050565b600090565b610b4f610b42565b610b5a818484610b1d565b505050565b5b81811015610b7e57610b73600082610b47565b600181019050610b60565b5050565b601f821115610bc357610b9481610a59565b610b9d84610a6e565b81016020851015610bac578190505b610bc0610bb885610a6e565b830182610b5f565b50505b505050565b600082821c905092915050565b6000610be660001984600802610bc8565b1980831691505092915050565b6000610bff8383610bd5565b9150826002028217905092915050565b610c1882610835565b67ffffffffffffffff811115610c3157610c30610636565b5b610c3b8254610a28565b610c46828285610b82565b600060209050601f831160018114610c795760008415610c67578287015190505b610c718582610bf3565b865550610cd9565b601f198416610c8786610a59565b60005b82811015610caf57848901518255600182019150602085019450602081019050610c8a565b86831015610ccc5784890151610cc8601f891682610bd5565b8355505b6001600288020188555050505b505050505050565b7f41646472657373206973206e6f74207265676973746572656400000000000000600082015250565b6000610d17601983610840565b9150610d2282610ce1565b602082019050919050565b60006020820190508181036000830152610d4681610d0a565b905091905056fea26469706673582212208d5927e3db2e1e012301ff8cb5dbf5ec94cea12acd2aed0a1860e1379254e5f864736f6c63430008120033",
					"opcodes": "PUSH1 0x80 PUSH1 0x40 MSTORE CALLVALUE DUP1 ISZERO PUSH2 0x10 JUMPI PUSH1 0x0 DUP1 REVERT JUMPDEST POP PUSH2 0xD83 DUP1 PUSH2 0x20 PUSH1 0x0 CODECOPY PUSH1 0x0 RETURN INVALID PUSH1 0x80 PUSH1 0x40 MSTORE CALLVALUE DUP1 ISZERO PUSH2 0x10 JUMPI PUSH1 0x0 DUP1 REVERT JUMPDEST POP PUSH1 0x4 CALLDATASIZE LT PUSH2 0x4C JUMPI PUSH1 0x0 CALLDATALOAD PUSH1 0xE0 SHR DUP1 PUSH4 0x830602B EQ PUSH2 0x51 JUMPI DUP1 PUSH4 0xD5FBA83 EQ PUSH2 0x6D JUMPI DUP1 PUSH4 0xE7B29BF EQ PUSH2 0x77 JUMPI DUP1 PUSH4 0x5FD4B08A EQ PUSH2 0xA8 JUMPI JUMPDEST PUSH1 0x0 DUP1 REVERT JUMPDEST PUSH2 0x6B PUSH1 0x4 DUP1 CALLDATASIZE SUB DUP2 ADD SWAP1 PUSH2 0x66 SWAP2 SWAP1 PUSH2 0x761 JUMP JUMPDEST PUSH2 0xD8 JUMP JUMPDEST STOP JUMPDEST PUSH2 0x75 PUSH2 0x28B JUMP JUMPDEST STOP JUMPDEST PUSH2 0x91 PUSH1 0x4 DUP1 CALLDATASIZE SUB DUP2 ADD SWAP1 PUSH2 0x8C SWAP2 SWAP1 PUSH2 0x808 JUMP JUMPDEST PUSH2 0x3FC JUMP JUMPDEST PUSH1 0x40 MLOAD PUSH2 0x9F SWAP3 SWAP2 SWAP1 PUSH2 0x8CF JUMP JUMPDEST PUSH1 0x40 MLOAD DUP1 SWAP2 SUB SWAP1 RETURN JUMPDEST PUSH2 0xC2 PUSH1 0x4 DUP1 CALLDATASIZE SUB DUP2 ADD SWAP1 PUSH2 0xBD SWAP2 SWAP1 PUSH2 0x808 JUMP JUMPDEST PUSH2 0x4B5 JUMP JUMPDEST PUSH1 0x40 MLOAD PUSH2 0xCF SWAP2 SWAP1 PUSH2 0x8FF JUMP JUMPDEST PUSH1 0x40 MLOAD DUP1 SWAP2 SUB SWAP1 RETURN JUMPDEST PUSH1 0x0 DUP2 MLOAD GT PUSH2 0x11C JUMPI PUSH1 0x40 MLOAD PUSH32 0x8C379A000000000000000000000000000000000000000000000000000000000 DUP2 MSTORE PUSH1 0x4 ADD PUSH2 0x113 SWAP1 PUSH2 0x96D JUMP JUMPDEST PUSH1 0x40 MLOAD DUP1 SWAP2 SUB SWAP1 REVERT JUMPDEST PUSH1 0x0 DUP1 CALLER PUSH20 0xFFFFFFFFFFFFFFFFFFFFFFFFFFFFFFFFFFFFFFFF AND PUSH20 0xFFFFFFFFFFFFFFFFFFFFFFFFFFFFFFFFFFFFFFFF AND DUP2 MSTORE PUSH1 0x20 ADD SWAP1 DUP2 MSTORE PUSH1 0x20 ADD PUSH1 0x0 KECCAK256 PUSH1 0x1 ADD PUSH1 0x0 SWAP1 SLOAD SWAP1 PUSH2 0x100 EXP SWAP1 DIV PUSH1 0xFF AND ISZERO PUSH2 0x1AB JUMPI PUSH1 0x40 MLOAD PUSH32 0x8C379A000000000000000000000000000000000000000000000000000000000 DUP2 MSTORE PUSH1 0x4 ADD PUSH2 0x1A2 SWAP1 PUSH2 0x9D9 JUMP JUMPDEST PUSH1 0x40 MLOAD DUP1 SWAP2 SUB SWAP1 REVERT JUMPDEST PUSH1 0x40 MLOAD DUP1 PUSH1 0x40 ADD PUSH1 0x40 MSTORE DUP1 DUP3 DUP2 MSTORE PUSH1 0x20 ADD PUSH1 0x1 ISZERO ISZERO DUP2 MSTORE POP PUSH1 0x0 DUP1 CALLER PUSH20 0xFFFFFFFFFFFFFFFFFFFFFFFFFFFFFFFFFFFFFFFF AND PUSH20 0xFFFFFFFFFFFFFFFFFFFFFFFFFFFFFFFFFFFFFFFF AND DUP2 MSTORE PUSH1 0x20 ADD SWAP1 DUP2 MSTORE PUSH1 0x20 ADD PUSH1 0x0 KECCAK256 PUSH1 0x0 DUP3 ADD MLOAD DUP2 PUSH1 0x0 ADD SWAP1 DUP2 PUSH2 0x216 SWAP2 SWAP1 PUSH2 0xC0F JUMP JUMPDEST POP PUSH1 0x20 DUP3 ADD MLOAD DUP2 PUSH1 0x1 ADD PUSH1 0x0 PUSH2 0x100 EXP DUP2 SLOAD DUP2 PUSH1 0xFF MUL NOT AND SWAP1 DUP4 ISZERO ISZERO MUL OR SWAP1 SSTORE POP SWAP1 POP POP CALLER PUSH20 0xFFFFFFFFFFFFFFFFFFFFFFFFFFFFFFFFFFFFFFFF AND PUSH32 0x56A1A2764A85C689329FBC04F299B64690A26B1DC5AC82E903CF8AD805CD5396 DUP3 PUSH1 0x40 MLOAD PUSH2 0x280 SWAP2 SWAP1 PUSH2 0x8FF JUMP JUMPDEST PUSH1 0x40 MLOAD DUP1 SWAP2 SUB SWAP1 LOG2 POP JUMP JUMPDEST PUSH1 0x0 DUP1 CALLER PUSH20 0xFFFFFFFFFFFFFFFFFFFFFFFFFFFFFFFFFFFFFFFF AND PUSH20 0xFFFFFFFFFFFFFFFFFFFFFFFFFFFFFFFFFFFFFFFF AND DUP2 MSTORE PUSH1 0x20 ADD SWAP1 DUP2 MSTORE PUSH1 0x20 ADD PUSH1 0x0 KECCAK256 PUSH1 0x1 ADD PUSH1 0x0 SWAP1 SLOAD SWAP1 PUSH2 0x100 EXP SWAP1 DIV PUSH1 0xFF AND PUSH2 0x319 JUMPI PUSH1 0x40 MLOAD PUSH32 0x8C379A000000000000000000000000000000000000000000000000000000000 DUP2 MSTORE PUSH1 0x4 ADD PUSH2 0x310 SWAP1 PUSH2 0xD2D JUMP JUMPDEST PUSH1 0x40 MLOAD DUP1 SWAP2 SUB SWAP1 REVERT JUMPDEST PUSH1 0x40 MLOAD DUP1 PUSH1 0x40 ADD PUSH1 0x40 MSTORE DUP1 PUSH1 0x40 MLOAD DUP1 PUSH1 0x20 ADD PUSH1 0x40 MSTORE DUP1 PUSH1 0x0 DUP2 MSTORE POP DUP2 MSTORE PUSH1 0x20 ADD PUSH1 0x0 ISZERO ISZERO DUP2 MSTORE POP PUSH1 0x0 DUP1 CALLER PUSH20 0xFFFFFFFFFFFFFFFFFFFFFFFFFFFFFFFFFFFFFFFF AND PUSH20 0xFFFFFFFFFFFFFFFFFFFFFFFFFFFFFFFFFFFFFFFF AND DUP2 MSTORE PUSH1 0x20 ADD SWAP1 DUP2 MSTORE PUSH1 0x20 ADD PUSH1 0x0 KECCAK256 PUSH1 0x0 DUP3 ADD MLOAD DUP2 PUSH1 0x0 ADD SWAP1 DUP2 PUSH2 0x393 SWAP2 SWAP1 PUSH2 0xC0F JUMP JUMPDEST POP PUSH1 0x20 DUP3 ADD MLOAD DUP2 PUSH1 0x1 ADD PUSH1 0x0 PUSH2 0x100 EXP DUP2 SLOAD DUP2 PUSH1 0xFF MUL NOT AND SWAP1 DUP4 ISZERO ISZERO MUL OR SWAP1 SSTORE POP SWAP1 POP POP CALLER PUSH20 0xFFFFFFFFFFFFFFFFFFFFFFFFFFFFFFFFFFFFFFFF AND PUSH32 0xD535C2E59A2F16F058B1B296BEF26CC2579FFC7F69AAF7B53F536943CB6A7543 PUSH1 0x40 MLOAD PUSH1 0x40 MLOAD DUP1 SWAP2 SUB SWAP1 LOG2 JUMP JUMPDEST PUSH1 0x0 PUSH1 0x20 MSTORE DUP1 PUSH1 0x0 MSTORE PUSH1 0x40 PUSH1 0x0 KECCAK256 PUSH1 0x0 SWAP2 POP SWAP1 POP DUP1 PUSH1 0x0 ADD DUP1 SLOAD PUSH2 0x41F SWAP1 PUSH2 0xA28 JUMP JUMPDEST DUP1 PUSH1 0x1F ADD PUSH1 0x20 DUP1 SWAP2 DIV MUL PUSH1 0x20 ADD PUSH1 0x40 MLOAD SWAP1 DUP2 ADD PUSH1 0x40 MSTORE DUP1 SWAP3 SWAP2 SWAP1 DUP2 DUP2 MSTORE PUSH1 0x20 ADD DUP3 DUP1 SLOAD PUSH2 0x44B SWAP1 PUSH2 0xA28 JUMP JUMPDEST DUP1 ISZERO PUSH2 0x498 JUMPI DUP1 PUSH1 0x1F LT PUSH2 0x46D JUMPI PUSH2 0x100 DUP1 DUP4 SLOAD DIV MUL DUP4 MSTORE SWAP2 PUSH1 0x20 ADD SWAP2 PUSH2 0x498 JUMP JUMPDEST DUP3 ADD SWAP2 SWAP1 PUSH1 0x0 MSTORE PUSH1 0x20 PUSH1 0x0 KECCAK256 SWAP1 JUMPDEST DUP2 SLOAD DUP2 MSTORE SWAP1 PUSH1 0x1 ADD SWAP1 PUSH1 0x20 ADD DUP1 DUP4 GT PUSH2 0x47B JUMPI DUP3 SWAP1 SUB PUSH1 0x1F AND DUP3 ADD SWAP2 JUMPDEST POP POP POP POP POP SWAP1 DUP1 PUSH1 0x1 ADD PUSH1 0x0 SWAP1 SLOAD SWAP1 PUSH2 0x100 EXP SWAP1 DIV PUSH1 0xFF AND SWAP1 POP DUP3 JUMP JUMPDEST PUSH1 0x60 PUSH1 0x0 DUP1 PUSH1 0x0 DUP5 PUSH20 0xFFFFFFFFFFFFFFFFFFFFFFFFFFFFFFFFFFFFFFFF AND PUSH20 0xFFFFFFFFFFFFFFFFFFFFFFFFFFFFFFFFFFFFFFFF AND DUP2 MSTORE PUSH1 0x20 ADD SWAP1 DUP2 MSTORE PUSH1 0x20 ADD PUSH1 0x0 KECCAK256 PUSH1 0x40 MLOAD DUP1 PUSH1 0x40 ADD PUSH1 0x40 MSTORE SWAP1 DUP2 PUSH1 0x0 DUP3 ADD DUP1 SLOAD PUSH2 0x512 SWAP1 PUSH2 0xA28 JUMP JUMPDEST DUP1 PUSH1 0x1F ADD PUSH1 0x20 DUP1 SWAP2 DIV MUL PUSH1 0x20 ADD PUSH1 0x40 MLOAD SWAP1 DUP2 ADD PUSH1 0x40 MSTORE DUP1 SWAP3 SWAP2 SWAP1 DUP2 DUP2 MSTORE PUSH1 0x20 ADD DUP3 DUP1 SLOAD PUSH2 0x53E SWAP1 PUSH2 0xA28 JUMP JUMPDEST DUP1 ISZERO PUSH2 0x58B JUMPI DUP1 PUSH1 0x1F LT PUSH2 0x560 JUMPI PUSH2 0x100 DUP1 DUP4 SLOAD DIV MUL DUP4 MSTORE SWAP2 PUSH1 0x20 ADD SWAP2 PUSH2 0x58B JUMP JUMPDEST DUP3 ADD SWAP2 SWAP1 PUSH1 0x0 MSTORE PUSH1 0x20 PUSH1 0x0 KECCAK256 SWAP1 JUMPDEST DUP2 SLOAD DUP2 MSTORE SWAP1 PUSH1 0x1 ADD SWAP1 PUSH1 0x20 ADD DUP1 DUP4 GT PUSH2 0x56E JUMPI DUP3 SWAP1 SUB PUSH1 0x1F AND DUP3 ADD SWAP2 JUMPDEST POP POP POP POP POP DUP2 MSTORE PUSH1 0x20 ADD PUSH1 0x1 DUP3 ADD PUSH1 0x0 SWAP1 SLOAD SWAP1 PUSH2 0x100 EXP SWAP1 DIV PUSH1 0xFF AND ISZERO ISZERO ISZERO ISZERO DUP2 MSTORE POP POP SWAP1 POP DUP1 PUSH1 0x20 ADD MLOAD ISZERO PUSH2 0x5C8 JUMPI DUP1 PUSH1 0x0 ADD MLOAD SWAP2 POP POP PUSH2 0x602 JUMP JUMPDEST PUSH1 0x40 MLOAD DUP1 PUSH1 0x40 ADD PUSH1 0x40 MSTORE DUP1 PUSH1 0x9 DUP2 MSTORE PUSH1 0x20 ADD PUSH32 0x6E6F7420666F756E640000000000000000000000000000000000000000000000 DUP2 MSTORE POP SWAP2 POP POP JUMPDEST SWAP2 SWAP1 POP JUMP JUMPDEST PUSH1 0x0 PUSH1 0x40 MLOAD SWAP1 POP SWAP1 JUMP JUMPDEST PUSH1 0x0 DUP1 REVERT JUMPDEST PUSH1 0x0 DUP1 REVERT JUMPDEST PUSH1 0x0 DUP1 REVERT JUMPDEST PUSH1 0x0 DUP1 REVERT JUMPDEST PUSH1 0x0 PUSH1 0x1F NOT PUSH1 0x1F DUP4 ADD AND SWAP1 POP SWAP2 SWAP1 POP JUMP JUMPDEST PUSH32 0x4E487B7100000000000000000000000000000000000000000000000000000000 PUSH1 0x0 MSTORE PUSH1 0x41 PUSH1 0x4 MSTORE PUSH1 0x24 PUSH1 0x0 REVERT JUMPDEST PUSH2 0x66E DUP3 PUSH2 0x625 JUMP JUMPDEST DUP2 ADD DUP2 DUP2 LT PUSH8 0xFFFFFFFFFFFFFFFF DUP3 GT OR ISZERO PUSH2 0x68D JUMPI PUSH2 0x68C PUSH2 0x636 JUMP JUMPDEST JUMPDEST DUP1 PUSH1 0x40 MSTORE POP POP POP JUMP JUMPDEST PUSH1 0x0 PUSH2 0x6A0 PUSH2 0x607 JUMP JUMPDEST SWAP1 POP PUSH2 0x6AC DUP3 DUP3 PUSH2 0x665 JUMP JUMPDEST SWAP2 SWAP1 POP JUMP JUMPDEST PUSH1 0x0 PUSH8 0xFFFFFFFFFFFFFFFF DUP3 GT ISZERO PUSH2 0x6CC JUMPI PUSH2 0x6CB PUSH2 0x636 JUMP JUMPDEST JUMPDEST PUSH2 0x6D5 DUP3 PUSH2 0x625 JUMP JUMPDEST SWAP1 POP PUSH1 0x20 DUP2 ADD SWAP1 POP SWAP2 SWAP1 POP JUMP JUMPDEST DUP3 DUP2 DUP4 CALLDATACOPY PUSH1 0x0 DUP4 DUP4 ADD MSTORE POP POP POP JUMP JUMPDEST PUSH1 0x0 PUSH2 0x704 PUSH2 0x6FF DUP5 PUSH2 0x6B1 JUMP JUMPDEST PUSH2 0x696 JUMP JUMPDEST SWAP1 POP DUP3 DUP2 MSTORE PUSH1 0x20 DUP2 ADD DUP5 DUP5 DUP5 ADD GT ISZERO PUSH2 0x720 JUMPI PUSH2 0x71F PUSH2 0x620 JUMP JUMPDEST JUMPDEST PUSH2 0x72B DUP5 DUP3 DUP6 PUSH2 0x6E2 JUMP JUMPDEST POP SWAP4 SWAP3 POP POP POP JUMP JUMPDEST PUSH1 0x0 DUP3 PUSH1 0x1F DUP4 ADD SLT PUSH2 0x748 JUMPI PUSH2 0x747 PUSH2 0x61B JUMP JUMPDEST JUMPDEST DUP2 CALLDATALOAD PUSH2 0x758 DUP5 DUP3 PUSH1 0x20 DUP7 ADD PUSH2 0x6F1 JUMP JUMPDEST SWAP2 POP POP SWAP3 SWAP2 POP POP JUMP JUMPDEST PUSH1 0x0 PUSH1 0x20 DUP3 DUP5 SUB SLT ISZERO PUSH2 0x777 JUMPI PUSH2 0x776 PUSH2 0x611 JUMP JUMPDEST JUMPDEST PUSH1 0x0 DUP3 ADD CALLDATALOAD PUSH8 0xFFFFFFFFFFFFFFFF DUP2 GT ISZERO PUSH2 0x795 JUMPI PUSH2 0x794 PUSH2 0x616 JUMP JUMPDEST JUMPDEST PUSH2 0x7A1 DUP5 DUP3 DUP6 ADD PUSH2 0x733 JUMP JUMPDEST SWAP2 POP POP SWAP3 SWAP2 POP POP JUMP JUMPDEST PUSH1 0x0 PUSH20 0xFFFFFFFFFFFFFFFFFFFFFFFFFFFFFFFFFFFFFFFF DUP3 AND SWAP1 POP SWAP2 SWAP1 POP JUMP JUMPDEST PUSH1 0x0 PUSH2 0x7D5 DUP3 PUSH2 0x7AA JUMP JUMPDEST SWAP1 POP SWAP2 SWAP1 POP JUMP JUMPDEST PUSH2 0x7E5 DUP2 PUSH2 0x7CA JUMP JUMPDEST DUP2 EQ PUSH2 0x7F0 JUMPI PUSH1 0x0 DUP1 REVERT JUMPDEST POP JUMP JUMPDEST PUSH1 0x0 DUP2 CALLDATALOAD SWAP1 POP PUSH2 0x802 DUP2 PUSH2 0x7DC JUMP JUMPDEST SWAP3 SWAP2 POP POP JUMP JUMPDEST PUSH1 0x0 PUSH1 0x20 DUP3 DUP5 SUB SLT ISZERO PUSH2 0x81E JUMPI PUSH2 0x81D PUSH2 0x611 JUMP JUMPDEST JUMPDEST PUSH1 0x0 PUSH2 0x82C DUP5 DUP3 DUP6 ADD PUSH2 0x7F3 JUMP JUMPDEST SWAP2 POP POP SWAP3 SWAP2 POP POP JUMP JUMPDEST PUSH1 0x0 DUP2 MLOAD SWAP1 POP SWAP2 SWAP1 POP JUMP JUMPDEST PUSH1 0x0 DUP3 DUP3 MSTORE PUSH1 0x20 DUP3 ADD SWAP1 POP SWAP3 SWAP2 POP POP JUMP JUMPDEST PUSH1 0x0 JUMPDEST DUP4 DUP2 LT ISZERO PUSH2 0x86F JUMPI DUP1 DUP3 ADD MLOAD DUP2 DUP5 ADD MSTORE PUSH1 0x20 DUP2 ADD SWAP1 POP PUSH2 0x854 JUMP JUMPDEST PUSH1 0x0 DUP5 DUP5 ADD MSTORE POP POP POP POP JUMP JUMPDEST PUSH1 0x0 PUSH2 0x886 DUP3 PUSH2 0x835 JUMP JUMPDEST PUSH2 0x890 DUP2 DUP6 PUSH2 0x840 JUMP JUMPDEST SWAP4 POP PUSH2 0x8A0 DUP2 DUP6 PUSH1 0x20 DUP7 ADD PUSH2 0x851 JUMP JUMPDEST PUSH2 0x8A9 DUP2 PUSH2 0x625 JUMP JUMPDEST DUP5 ADD SWAP2 POP POP SWAP3 SWAP2 POP POP JUMP JUMPDEST PUSH1 0x0 DUP2 ISZERO ISZERO SWAP1 POP SWAP2 SWAP1 POP JUMP JUMPDEST PUSH2 0x8C9 DUP2 PUSH2 0x8B4 JUMP JUMPDEST DUP3 MSTORE POP POP JUMP JUMPDEST PUSH1 0x0 PUSH1 0x40 DUP3 ADD SWAP1 POP DUP2 DUP2 SUB PUSH1 0x0 DUP4 ADD MSTORE PUSH2 0x8E9 DUP2 DUP6 PUSH2 0x87B JUMP JUMPDEST SWAP1 POP PUSH2 0x8F8 PUSH1 0x20 DUP4 ADD DUP5 PUSH2 0x8C0 JUMP JUMPDEST SWAP4 SWAP3 POP POP POP JUMP JUMPDEST PUSH1 0x0 PUSH1 0x20 DUP3 ADD SWAP1 POP DUP2 DUP2 SUB PUSH1 0x0 DUP4 ADD MSTORE PUSH2 0x919 DUP2 DUP5 PUSH2 0x87B JUMP JUMPDEST SWAP1 POP SWAP3 SWAP2 POP POP JUMP JUMPDEST PUSH32 0x4E616D652073686F756C64206E6F7420626520656D7074790000000000000000 PUSH1 0x0 DUP3 ADD MSTORE POP JUMP JUMPDEST PUSH1 0x0 PUSH2 0x957 PUSH1 0x18 DUP4 PUSH2 0x840 JUMP JUMPDEST SWAP2 POP PUSH2 0x962 DUP3 PUSH2 0x921 JUMP JUMPDEST PUSH1 0x20 DUP3 ADD SWAP1 POP SWAP2 SWAP1 POP JUMP JUMPDEST PUSH1 0x0 PUSH1 0x20 DUP3 ADD SWAP1 POP DUP2 DUP2 SUB PUSH1 0x0 DUP4 ADD MSTORE PUSH2 0x986 DUP2 PUSH2 0x94A JUMP JUMPDEST SWAP1 POP SWAP2 SWAP1 POP JUMP JUMPDEST PUSH32 0x4164647265737320697320616C72656164792072656769737465726564000000 PUSH1 0x0 DUP3 ADD MSTORE POP JUMP JUMPDEST PUSH1 0x0 PUSH2 0x9C3 PUSH1 0x1D DUP4 PUSH2 0x840 JUMP JUMPDEST SWAP2 POP PUSH2 0x9CE DUP3 PUSH2 0x98D JUMP JUMPDEST PUSH1 0x20 DUP3 ADD SWAP1 POP SWAP2 SWAP1 POP JUMP JUMPDEST PUSH1 0x0 PUSH1 0x20 DUP3 ADD SWAP1 POP DUP2 DUP2 SUB PUSH1 0x0 DUP4 ADD MSTORE PUSH2 0x9F2 DUP2 PUSH2 0x9B6 JUMP JUMPDEST SWAP1 POP SWAP2 SWAP1 POP JUMP JUMPDEST PUSH32 0x4E487B7100000000000000000000000000000000000000000000000000000000 PUSH1 0x0 MSTORE PUSH1 0x22 PUSH1 0x4 MSTORE PUSH1 0x24 PUSH1 0x0 REVERT JUMPDEST PUSH1 0x0 PUSH1 0x2 DUP3 DIV SWAP1 POP PUSH1 0x1 DUP3 AND DUP1 PUSH2 0xA40 JUMPI PUSH1 0x7F DUP3 AND SWAP2 POP JUMPDEST PUSH1 0x20 DUP3 LT DUP2 SUB PUSH2 0xA53 JUMPI PUSH2 0xA52 PUSH2 0x9F9 JUMP JUMPDEST JUMPDEST POP SWAP2 SWAP1 POP JUMP JUMPDEST PUSH1 0x0 DUP2 SWAP1 POP DUP2 PUSH1 0x0 MSTORE PUSH1 0x20 PUSH1 0x0 KECCAK256 SWAP1 POP SWAP2 SWAP1 POP JUMP JUMPDEST PUSH1 0x0 PUSH1 0x20 PUSH1 0x1F DUP4 ADD DIV SWAP1 POP SWAP2 SWAP1 POP JUMP JUMPDEST PUSH1 0x0 DUP3 DUP3 SHL SWAP1 POP SWAP3 SWAP2 POP POP JUMP JUMPDEST PUSH1 0x0 PUSH1 0x8 DUP4 MUL PUSH2 0xABB PUSH32 0xFFFFFFFFFFFFFFFFFFFFFFFFFFFFFFFFFFFFFFFFFFFFFFFFFFFFFFFFFFFFFFFF DUP3 PUSH2 0xA7E JUMP JUMPDEST PUSH2 0xAC5 DUP7 DUP4 PUSH2 0xA7E JUMP JUMPDEST SWAP6 POP DUP1 NOT DUP5 AND SWAP4 POP DUP1 DUP7 AND DUP5 OR SWAP3 POP POP POP SWAP4 SWAP3 POP POP POP JUMP JUMPDEST PUSH1 0x0 DUP2 SWAP1 POP SWAP2 SWAP1 POP JUMP JUMPDEST PUSH1 0x0 DUP2 SWAP1 POP SWAP2 SWAP1 POP JUMP JUMPDEST PUSH1 0x0 PUSH2 0xB0C PUSH2 0xB07 PUSH2 0xB02 DUP5 PUSH2 0xADD JUMP JUMPDEST PUSH2 0xAE7 JUMP JUMPDEST PUSH2 0xADD JUMP JUMPDEST SWAP1 POP SWAP2 SWAP1 POP JUMP JUMPDEST PUSH1 0x0 DUP2 SWAP1 POP SWAP2 SWAP1 POP JUMP JUMPDEST PUSH2 0xB26 DUP4 PUSH2 0xAF1 JUMP JUMPDEST PUSH2 0xB3A PUSH2 0xB32 DUP3 PUSH2 0xB13 JUMP JUMPDEST DUP5 DUP5 SLOAD PUSH2 0xA8B JUMP JUMPDEST DUP3 SSTORE POP POP POP POP JUMP JUMPDEST PUSH1 0x0 SWAP1 JUMP JUMPDEST PUSH2 0xB4F PUSH2 0xB42 JUMP JUMPDEST PUSH2 0xB5A DUP2 DUP5 DUP5 PUSH2 0xB1D JUMP JUMPDEST POP POP POP JUMP JUMPDEST JUMPDEST DUP2 DUP2 LT ISZERO PUSH2 0xB7E JUMPI PUSH2 0xB73 PUSH1 0x0 DUP3 PUSH2 0xB47 JUMP JUMPDEST PUSH1 0x1 DUP2 ADD SWAP1 POP PUSH2 0xB60 JUMP JUMPDEST POP POP JUMP JUMPDEST PUSH1 0x1F DUP3 GT ISZERO PUSH2 0xBC3 JUMPI PUSH2 0xB94 DUP2 PUSH2 0xA59 JUMP JUMPDEST PUSH2 0xB9D DUP5 PUSH2 0xA6E JUMP JUMPDEST DUP2 ADD PUSH1 0x20 DUP6 LT ISZERO PUSH2 0xBAC JUMPI DUP2 SWAP1 POP JUMPDEST PUSH2 0xBC0 PUSH2 0xBB8 DUP6 PUSH2 0xA6E JUMP JUMPDEST DUP4 ADD DUP3 PUSH2 0xB5F JUMP JUMPDEST POP POP JUMPDEST POP POP POP JUMP JUMPDEST PUSH1 0x0 DUP3 DUP3 SHR SWAP1 POP SWAP3 SWAP2 POP POP JUMP JUMPDEST PUSH1 0x0 PUSH2 0xBE6 PUSH1 0x0 NOT DUP5 PUSH1 0x8 MUL PUSH2 0xBC8 JUMP JUMPDEST NOT DUP1 DUP4 AND SWAP2 POP POP SWAP3 SWAP2 POP POP JUMP JUMPDEST PUSH1 0x0 PUSH2 0xBFF DUP4 DUP4 PUSH2 0xBD5 JUMP JUMPDEST SWAP2 POP DUP3 PUSH1 0x2 MUL DUP3 OR SWAP1 POP SWAP3 SWAP2 POP POP JUMP JUMPDEST PUSH2 0xC18 DUP3 PUSH2 0x835 JUMP JUMPDEST PUSH8 0xFFFFFFFFFFFFFFFF DUP2 GT ISZERO PUSH2 0xC31 JUMPI PUSH2 0xC30 PUSH2 0x636 JUMP JUMPDEST JUMPDEST PUSH2 0xC3B DUP3 SLOAD PUSH2 0xA28 JUMP JUMPDEST PUSH2 0xC46 DUP3 DUP3 DUP6 PUSH2 0xB82 JUMP JUMPDEST PUSH1 0x0 PUSH1 0x20 SWAP1 POP PUSH1 0x1F DUP4 GT PUSH1 0x1 DUP2 EQ PUSH2 0xC79 JUMPI PUSH1 0x0 DUP5 ISZERO PUSH2 0xC67 JUMPI DUP3 DUP8 ADD MLOAD SWAP1 POP JUMPDEST PUSH2 0xC71 DUP6 DUP3 PUSH2 0xBF3 JUMP JUMPDEST DUP7 SSTORE POP PUSH2 0xCD9 JUMP JUMPDEST PUSH1 0x1F NOT DUP5 AND PUSH2 0xC87 DUP7 PUSH2 0xA59 JUMP JUMPDEST PUSH1 0x0 JUMPDEST DUP3 DUP2 LT ISZERO PUSH2 0xCAF JUMPI DUP5 DUP10 ADD MLOAD DUP3 SSTORE PUSH1 0x1 DUP3 ADD SWAP2 POP PUSH1 0x20 DUP6 ADD SWAP5 POP PUSH1 0x20 DUP2 ADD SWAP1 POP PUSH2 0xC8A JUMP JUMPDEST DUP7 DUP4 LT ISZERO PUSH2 0xCCC JUMPI DUP5 DUP10 ADD MLOAD PUSH2 0xCC8 PUSH1 0x1F DUP10 AND DUP3 PUSH2 0xBD5 JUMP JUMPDEST DUP4 SSTORE POP JUMPDEST PUSH1 0x1 PUSH1 0x2 DUP9 MUL ADD DUP9 SSTORE POP POP POP JUMPDEST POP POP POP POP POP POP JUMP JUMPDEST PUSH32 0x41646472657373206973206E6F74207265676973746572656400000000000000 PUSH1 0x0 DUP3 ADD MSTORE POP JUMP JUMPDEST PUSH1 0x0 PUSH2 0xD17 PUSH1 0x19 DUP4 PUSH2 0x840 JUMP JUMPDEST SWAP2 POP PUSH2 0xD22 DUP3 PUSH2 0xCE1 JUMP JUMPDEST PUSH1 0x20 DUP3 ADD SWAP1 POP SWAP2 SWAP1 POP JUMP JUMPDEST PUSH1 0x0 PUSH1 0x20 DUP3 ADD SWAP1 POP DUP2 DUP2 SUB PUSH1 0x0 DUP4 ADD MSTORE PUSH2 0xD46 DUP2 PUSH2 0xD0A JUMP JUMPDEST SWAP1 POP SWAP2 SWAP1 POP JUMP INVALID LOG2 PUSH5 0x6970667358 0x22 SLT KECCAK256 DUP14 MSIZE 0x27 0xE3 0xDB 0x2E 0x1E ADD 0x23 ADD SELFDESTRUCT DUP13 0xB5 0xDB CREATE2 0xEC SWAP5 0xCE LOG1 0x2A 0xCD 0x2A 0xED EXP XOR PUSH1 0xE1 CALLDATACOPY SWAP3 SLOAD 0xE5 0xF8 PUSH5 0x736F6C6343 STOP ADDMOD SLT STOP CALLER "
				},
				"gasEstimates": {
					"creation": {
						"codeDepositCost": "691800",
						"executionCost": "728",
						"totalCost": "692528"
					},
					"external": {
						"addressToProfile(address)": "infinite",
						"deregisterName()": "infinite",
						"getName(address)": "infinite",
						"registerName(string)": "infinite"
					}
				},
				"methodIdentifiers": {
					"addressToProfile(address)": "0e7b29bf",
					"deregisterName()": "0d5fba83",
					"getName(address)": "5fd4b08a",
					"registerName(string)": "0830602b"
				}
			},
			"storageLayout": {
				"storage": [
					{
						"astId": 11,
						"contract": "contracts/userProfile.sol:NameRegistry",
						"label": "addressToProfile",
						"offset": 0,
						"slot": "0",
						"type": "t_mapping(t_address,t_struct(UserProfile)6_storage)"
					}
				],
				"types": {
					"t_address": {
						"encoding": "inplace",
						"label": "address",
						"numberOfBytes": "20"
					},
					"t_bool": {
						"encoding": "inplace",
						"label": "bool",
						"numberOfBytes": "1"
					},
					"t_mapping(t_address,t_struct(UserProfile)6_storage)": {
						"encoding": "mapping",
						"key": "t_address",
						"label": "mapping(address => struct NameRegistry.UserProfile)",
						"numberOfBytes": "32",
						"value": "t_struct(UserProfile)6_storage"
					},
					"t_string_storage": {
						"encoding": "bytes",
						"label": "string",
						"numberOfBytes": "32"
					},
					"t_struct(UserProfile)6_storage": {
						"encoding": "inplace",
						"label": "struct NameRegistry.UserProfile",
						"members": [
							{
								"astId": 3,
								"contract": "contracts/userProfile.sol:NameRegistry",
								"label": "userName",
								"offset": 0,
								"slot": "0",
								"type": "t_string_storage"
							},
							{
								"astId": 5,
								"contract": "contracts/userProfile.sol:NameRegistry",
								"label": "registered",
								"offset": 0,
								"slot": "1",
								"type": "t_bool"
							}
						],
						"numberOfBytes": "64"
					}
				}
			},
			"userdoc": {
				"kind": "user",
				"methods": {},
				"version": 1
			}
		}
	}
}