{
	"contracts/AquoTransferTest11.sol": {
		"AssetContract": {
			"abi": [
				{
					"inputs": [
						{
							"internalType": "uint256",
							"name": "_initialShares",
							"type": "uint256"
						},
						{
							"internalType": "address",
							"name": "_owner",
							"type": "address"
						}
					],
					"stateMutability": "nonpayable",
					"type": "constructor"
				},
				{
					"inputs": [
						{
							"internalType": "address",
							"name": "_user",
							"type": "address"
						}
					],
					"name": "balanceOf",
					"outputs": [
						{
							"internalType": "uint256",
							"name": "",
							"type": "uint256"
						}
					],
					"stateMutability": "view",
					"type": "function"
				},
				{
					"inputs": [],
					"name": "getHolders",
					"outputs": [
						{
							"components": [
								{
									"internalType": "address",
									"name": "addr",
									"type": "address"
								},
								{
									"internalType": "uint256",
									"name": "balance",
									"type": "uint256"
								}
							],
							"internalType": "struct AssetContract.Holder[]",
							"name": "",
							"type": "tuple[]"
						}
					],
					"stateMutability": "view",
					"type": "function"
				},
				{
					"inputs": [],
					"name": "owner",
					"outputs": [
						{
							"internalType": "address",
							"name": "",
							"type": "address"
						}
					],
					"stateMutability": "view",
					"type": "function"
				},
				{
					"inputs": [],
					"name": "totalShares",
					"outputs": [
						{
							"internalType": "uint256",
							"name": "",
							"type": "uint256"
						}
					],
					"stateMutability": "view",
					"type": "function"
				},
				{
					"inputs": [
						{
							"internalType": "address",
							"name": "_to",
							"type": "address"
						},
						{
							"internalType": "uint256",
							"name": "_amount",
							"type": "uint256"
						}
					],
					"name": "transferShares",
					"outputs": [],
					"stateMutability": "nonpayable",
					"type": "function"
				}
			],
			"devdoc": {
				"kind": "dev",
				"methods": {},
				"version": 1
			},
			"evm": {
				"assembly": "    /* \"contracts/AquoTransferTest11.sol\":61:2022  contract AssetContract {... */\n  mstore(0x40, 0x80)\n    /* \"contracts/AquoTransferTest11.sol\":596:948  constructor(uint256 _initialShares, address _owner) {... */\n  callvalue\n  dup1\n  iszero\n  tag_1\n  jumpi\n  0x00\n  dup1\n  revert\ntag_1:\n  pop\n  mload(0x40)\n  sub(codesize, bytecodeSize)\n  dup1\n  bytecodeSize\n  dup4\n  codecopy\n  dup2\n  dup2\n  add\n  0x40\n  mstore\n  dup2\n  add\n  swap1\n  tag_2\n  swap2\n  swap1\n  tag_3\n  jump\t// in\ntag_2:\n    /* \"contracts/AquoTransferTest11.sol\":667:673  _owner */\n  dup1\n    /* \"contracts/AquoTransferTest11.sol\":659:664  owner */\n  0x00\n  dup1\n    /* \"contracts/AquoTransferTest11.sol\":659:673  owner = _owner */\n  0x0100\n  exp\n  dup2\n  sload\n  dup2\n  0xffffffffffffffffffffffffffffffffffffffff\n  mul\n  not\n  and\n  swap1\n  dup4\n  0xffffffffffffffffffffffffffffffffffffffff\n  and\n  mul\n  or\n  swap1\n  sstore\n  pop\n    /* \"contracts/AquoTransferTest11.sol\":698:712  _initialShares */\n  dup2\n    /* \"contracts/AquoTransferTest11.sol\":684:695  totalShares */\n  0x04\n    /* \"contracts/AquoTransferTest11.sol\":684:712  totalShares = _initialShares */\n  dup2\n  swap1\n  sstore\n  pop\n    /* \"contracts/AquoTransferTest11.sol\":723:730  holders */\n  0x02\n    /* \"contracts/AquoTransferTest11.sol\":736:782  Holder({addr: owner, balance: _initialShares}) */\n  mload(0x40)\n  dup1\n  0x40\n  add\n  0x40\n  mstore\n  dup1\n    /* \"contracts/AquoTransferTest11.sol\":750:755  owner */\n  0x00\n  dup1\n  sload\n  swap1\n  0x0100\n  exp\n  swap1\n  div\n  0xffffffffffffffffffffffffffffffffffffffff\n  and\n    /* \"contracts/AquoTransferTest11.sol\":736:782  Holder({addr: owner, balance: _initialShares}) */\n  0xffffffffffffffffffffffffffffffffffffffff\n  and\n  dup2\n  mstore\n  0x20\n  add\n    /* \"contracts/AquoTransferTest11.sol\":766:780  _initialShares */\n  dup5\n    /* \"contracts/AquoTransferTest11.sol\":736:782  Holder({addr: owner, balance: _initialShares}) */\n  dup2\n  mstore\n  pop\n    /* \"contracts/AquoTransferTest11.sol\":723:783  holders.push(Holder({addr: owner, balance: _initialShares})) */\n  swap1\n  dup1\n  0x01\n  dup2\n  sload\n  add\n  dup1\n  dup3\n  sstore\n  dup1\n  swap2\n  pop\n  pop\n  0x01\n  swap1\n  sub\n  swap1\n  0x00\n  mstore\n  keccak256(0x00, 0x20)\n  swap1\n  0x02\n  mul\n  add\n  0x00\n  swap1\n  swap2\n  swap1\n  swap2\n  swap1\n  swap2\n  pop\n  0x00\n  dup3\n  add\n  mload\n  dup2\n  0x00\n  add\n  exp(0x0100, 0x00)\n  dup2\n  sload\n  dup2\n  0xffffffffffffffffffffffffffffffffffffffff\n  mul\n  not\n  and\n  swap1\n  dup4\n  0xffffffffffffffffffffffffffffffffffffffff\n  and\n  mul\n  or\n  swap1\n  sstore\n  pop\n  0x20\n  dup3\n  add\n  mload\n  dup2\n  0x01\n  add\n  sstore\n  pop\n  pop\n    /* \"contracts/AquoTransferTest11.sol\":853:860  holders */\n  0x02\n    /* \"contracts/AquoTransferTest11.sol\":853:867  holders.length */\n  dup1\n  sload\n  swap1\n  pop\n    /* \"contracts/AquoTransferTest11.sol\":832:843  holderIndex */\n  0x03\n    /* \"contracts/AquoTransferTest11.sol\":832:850  holderIndex[owner] */\n  0x00\n    /* \"contracts/AquoTransferTest11.sol\":844:849  owner */\n  dup1\n  0x00\n  swap1\n  sload\n  swap1\n  0x0100\n  exp\n  swap1\n  div\n  0xffffffffffffffffffffffffffffffffffffffff\n  and\n    /* \"contracts/AquoTransferTest11.sol\":832:850  holderIndex[owner] */\n  0xffffffffffffffffffffffffffffffffffffffff\n  and\n  0xffffffffffffffffffffffffffffffffffffffff\n  and\n  dup2\n  mstore\n  0x20\n  add\n  swap1\n  dup2\n  mstore\n  0x20\n  add\n  0x00\n  keccak256\n    /* \"contracts/AquoTransferTest11.sol\":832:867  holderIndex[owner] = holders.length */\n  dup2\n  swap1\n  sstore\n  pop\n    /* \"contracts/AquoTransferTest11.sol\":926:940  _initialShares */\n  dup2\n    /* \"contracts/AquoTransferTest11.sol\":903:916  shareBalances */\n  0x01\n    /* \"contracts/AquoTransferTest11.sol\":903:923  shareBalances[owner] */\n  0x00\n    /* \"contracts/AquoTransferTest11.sol\":917:922  owner */\n  dup1\n  0x00\n  swap1\n  sload\n  swap1\n  0x0100\n  exp\n  swap1\n  div\n  0xffffffffffffffffffffffffffffffffffffffff\n  and\n    /* \"contracts/AquoTransferTest11.sol\":903:923  shareBalances[owner] */\n  0xffffffffffffffffffffffffffffffffffffffff\n  and\n  0xffffffffffffffffffffffffffffffffffffffff\n  and\n  dup2\n  mstore\n  0x20\n  add\n  swap1\n  dup2\n  mstore\n  0x20\n  add\n  0x00\n  keccak256\n    /* \"contracts/AquoTransferTest11.sol\":903:940  shareBalances[owner] = _initialShares */\n  dup2\n  swap1\n  sstore\n  pop\n    /* \"contracts/AquoTransferTest11.sol\":596:948  constructor(uint256 _initialShares, address _owner) {... */\n  pop\n  pop\n    /* \"contracts/AquoTransferTest11.sol\":61:2022  contract AssetContract {... */\n  jump(tag_7)\n    /* \"#utility.yul\":88:205   */\ntag_9:\n    /* \"#utility.yul\":197:198   */\n  0x00\n    /* \"#utility.yul\":194:195   */\n  dup1\n    /* \"#utility.yul\":187:199   */\n  revert\n    /* \"#utility.yul\":334:411   */\ntag_11:\n    /* \"#utility.yul\":371:378   */\n  0x00\n    /* \"#utility.yul\":400:405   */\n  dup2\n    /* \"#utility.yul\":389:405   */\n  swap1\n  pop\n    /* \"#utility.yul\":334:411   */\n  swap2\n  swap1\n  pop\n  jump\t// out\n    /* \"#utility.yul\":417:539   */\ntag_12:\n    /* \"#utility.yul\":490:514   */\n  tag_24\n    /* \"#utility.yul\":508:513   */\n  dup2\n    /* \"#utility.yul\":490:514   */\n  tag_11\n  jump\t// in\ntag_24:\n    /* \"#utility.yul\":483:488   */\n  dup2\n    /* \"#utility.yul\":480:515   */\n  eq\n    /* \"#utility.yul\":470:533   */\n  tag_25\n  jumpi\n    /* \"#utility.yul\":529:530   */\n  0x00\n    /* \"#utility.yul\":526:527   */\n  dup1\n    /* \"#utility.yul\":519:531   */\n  revert\n    /* \"#utility.yul\":470:533   */\ntag_25:\n    /* \"#utility.yul\":417:539   */\n  pop\n  jump\t// out\n    /* \"#utility.yul\":545:688   */\ntag_13:\n    /* \"#utility.yul\":602:607   */\n  0x00\n    /* \"#utility.yul\":633:639   */\n  dup2\n    /* \"#utility.yul\":627:640   */\n  mload\n    /* \"#utility.yul\":618:640   */\n  swap1\n  pop\n    /* \"#utility.yul\":649:682   */\n  tag_27\n    /* \"#utility.yul\":676:681   */\n  dup2\n    /* \"#utility.yul\":649:682   */\n  tag_12\n  jump\t// in\ntag_27:\n    /* \"#utility.yul\":545:688   */\n  swap3\n  swap2\n  pop\n  pop\n  jump\t// out\n    /* \"#utility.yul\":694:820   */\ntag_14:\n    /* \"#utility.yul\":731:738   */\n  0x00\n    /* \"#utility.yul\":771:813   */\n  0xffffffffffffffffffffffffffffffffffffffff\n    /* \"#utility.yul\":764:769   */\n  dup3\n    /* \"#utility.yul\":760:814   */\n  and\n    /* \"#utility.yul\":749:814   */\n  swap1\n  pop\n    /* \"#utility.yul\":694:820   */\n  swap2\n  swap1\n  pop\n  jump\t// out\n    /* \"#utility.yul\":826:922   */\ntag_15:\n    /* \"#utility.yul\":863:870   */\n  0x00\n    /* \"#utility.yul\":892:916   */\n  tag_30\n    /* \"#utility.yul\":910:915   */\n  dup3\n    /* \"#utility.yul\":892:916   */\n  tag_14\n  jump\t// in\ntag_30:\n    /* \"#utility.yul\":881:916   */\n  swap1\n  pop\n    /* \"#utility.yul\":826:922   */\n  swap2\n  swap1\n  pop\n  jump\t// out\n    /* \"#utility.yul\":928:1050   */\ntag_16:\n    /* \"#utility.yul\":1001:1025   */\n  tag_32\n    /* \"#utility.yul\":1019:1024   */\n  dup2\n    /* \"#utility.yul\":1001:1025   */\n  tag_15\n  jump\t// in\ntag_32:\n    /* \"#utility.yul\":994:999   */\n  dup2\n    /* \"#utility.yul\":991:1026   */\n  eq\n    /* \"#utility.yul\":981:1044   */\n  tag_33\n  jumpi\n    /* \"#utility.yul\":1040:1041   */\n  0x00\n    /* \"#utility.yul\":1037:1038   */\n  dup1\n    /* \"#utility.yul\":1030:1042   */\n  revert\n    /* \"#utility.yul\":981:1044   */\ntag_33:\n    /* \"#utility.yul\":928:1050   */\n  pop\n  jump\t// out\n    /* \"#utility.yul\":1056:1199   */\ntag_17:\n    /* \"#utility.yul\":1113:1118   */\n  0x00\n    /* \"#utility.yul\":1144:1150   */\n  dup2\n    /* \"#utility.yul\":1138:1151   */\n  mload\n    /* \"#utility.yul\":1129:1151   */\n  swap1\n  pop\n    /* \"#utility.yul\":1160:1193   */\n  tag_35\n    /* \"#utility.yul\":1187:1192   */\n  dup2\n    /* \"#utility.yul\":1160:1193   */\n  tag_16\n  jump\t// in\ntag_35:\n    /* \"#utility.yul\":1056:1199   */\n  swap3\n  swap2\n  pop\n  pop\n  jump\t// out\n    /* \"#utility.yul\":1205:1712   */\ntag_3:\n    /* \"#utility.yul\":1284:1290   */\n  0x00\n    /* \"#utility.yul\":1292:1298   */\n  dup1\n    /* \"#utility.yul\":1341:1343   */\n  0x40\n    /* \"#utility.yul\":1329:1338   */\n  dup4\n    /* \"#utility.yul\":1320:1327   */\n  dup6\n    /* \"#utility.yul\":1316:1339   */\n  sub\n    /* \"#utility.yul\":1312:1344   */\n  slt\n    /* \"#utility.yul\":1309:1428   */\n  iszero\n  tag_37\n  jumpi\n    /* \"#utility.yul\":1347:1426   */\n  tag_38\n  tag_9\n  jump\t// in\ntag_38:\n    /* \"#utility.yul\":1309:1428   */\ntag_37:\n    /* \"#utility.yul\":1467:1468   */\n  0x00\n    /* \"#utility.yul\":1492:1556   */\n  tag_39\n    /* \"#utility.yul\":1548:1555   */\n  dup6\n    /* \"#utility.yul\":1539:1545   */\n  dup3\n    /* \"#utility.yul\":1528:1537   */\n  dup7\n    /* \"#utility.yul\":1524:1546   */\n  add\n    /* \"#utility.yul\":1492:1556   */\n  tag_13\n  jump\t// in\ntag_39:\n    /* \"#utility.yul\":1482:1556   */\n  swap3\n  pop\n    /* \"#utility.yul\":1438:1566   */\n  pop\n    /* \"#utility.yul\":1605:1607   */\n  0x20\n    /* \"#utility.yul\":1631:1695   */\n  tag_40\n    /* \"#utility.yul\":1687:1694   */\n  dup6\n    /* \"#utility.yul\":1678:1684   */\n  dup3\n    /* \"#utility.yul\":1667:1676   */\n  dup7\n    /* \"#utility.yul\":1663:1685   */\n  add\n    /* \"#utility.yul\":1631:1695   */\n  tag_17\n  jump\t// in\ntag_40:\n    /* \"#utility.yul\":1621:1695   */\n  swap2\n  pop\n    /* \"#utility.yul\":1576:1705   */\n  pop\n    /* \"#utility.yul\":1205:1712   */\n  swap3\n  pop\n  swap3\n  swap1\n  pop\n  jump\t// out\n    /* \"contracts/AquoTransferTest11.sol\":61:2022  contract AssetContract {... */\ntag_7:\n  dataSize(sub_0)\n  dup1\n  dataOffset(sub_0)\n  0x00\n  codecopy\n  0x00\n  return\nstop\n\nsub_0: assembly {\n        /* \"contracts/AquoTransferTest11.sol\":61:2022  contract AssetContract {... */\n      mstore(0x40, 0x80)\n      callvalue\n      dup1\n      iszero\n      tag_1\n      jumpi\n      0x00\n      dup1\n      revert\n    tag_1:\n      pop\n      jumpi(tag_2, lt(calldatasize, 0x04))\n      shr(0xe0, calldataload(0x00))\n      dup1\n      0x3a98ef39\n      eq\n      tag_3\n      jumpi\n      dup1\n      0x5fe8e7cc\n      eq\n      tag_4\n      jumpi\n      dup1\n      0x70a08231\n      eq\n      tag_5\n      jumpi\n      dup1\n      0x8da5cb5b\n      eq\n      tag_6\n      jumpi\n      dup1\n      0x8fcb4e5b\n      eq\n      tag_7\n      jumpi\n    tag_2:\n      0x00\n      dup1\n      revert\n        /* \"contracts/AquoTransferTest11.sol\":327:353  uint256 public totalShares */\n    tag_3:\n      tag_8\n      tag_9\n      jump\t// in\n    tag_8:\n      mload(0x40)\n      tag_10\n      swap2\n      swap1\n      tag_11\n      jump\t// in\n    tag_10:\n      mload(0x40)\n      dup1\n      swap2\n      sub\n      swap1\n      return\n        /* \"contracts/AquoTransferTest11.sol\":1926:2019  function getHolders() public view returns (Holder[] memory) {... */\n    tag_4:\n      tag_12\n      tag_13\n      jump\t// in\n    tag_12:\n      mload(0x40)\n      tag_14\n      swap2\n      swap1\n      tag_15\n      jump\t// in\n    tag_14:\n      mload(0x40)\n      dup1\n      swap2\n      sub\n      swap1\n      return\n        /* \"contracts/AquoTransferTest11.sol\":956:1066  function balanceOf(address _user) public view returns (uint256) {... */\n    tag_5:\n      tag_16\n      0x04\n      dup1\n      calldatasize\n      sub\n      dup2\n      add\n      swap1\n      tag_17\n      swap2\n      swap1\n      tag_18\n      jump\t// in\n    tag_17:\n      tag_19\n      jump\t// in\n    tag_16:\n      mload(0x40)\n      tag_20\n      swap2\n      swap1\n      tag_11\n      jump\t// in\n    tag_20:\n      mload(0x40)\n      dup1\n      swap2\n      sub\n      swap1\n      return\n        /* \"contracts/AquoTransferTest11.sol\":91:111  address public owner */\n    tag_6:\n      tag_21\n      tag_22\n      jump\t// in\n    tag_21:\n      mload(0x40)\n      tag_23\n      swap2\n      swap1\n      tag_24\n      jump\t// in\n    tag_23:\n      mload(0x40)\n      dup1\n      swap2\n      sub\n      swap1\n      return\n        /* \"contracts/AquoTransferTest11.sol\":1074:1918  function transferShares(address _to, uint256 _amount) public {... */\n    tag_7:\n      tag_25\n      0x04\n      dup1\n      calldatasize\n      sub\n      dup2\n      add\n      swap1\n      tag_26\n      swap2\n      swap1\n      tag_27\n      jump\t// in\n    tag_26:\n      tag_28\n      jump\t// in\n    tag_25:\n      stop\n        /* \"contracts/AquoTransferTest11.sol\":327:353  uint256 public totalShares */\n    tag_9:\n      sload(0x04)\n      dup2\n      jump\t// out\n        /* \"contracts/AquoTransferTest11.sol\":1926:2019  function getHolders() public view returns (Holder[] memory) {... */\n    tag_13:\n        /* \"contracts/AquoTransferTest11.sol\":1969:1984  Holder[] memory */\n      0x60\n        /* \"contracts/AquoTransferTest11.sol\":2004:2011  holders */\n      0x02\n        /* \"contracts/AquoTransferTest11.sol\":1997:2011  return holders */\n      dup1\n      sload\n      dup1\n      0x20\n      mul\n      0x20\n      add\n      mload(0x40)\n      swap1\n      dup2\n      add\n      0x40\n      mstore\n      dup1\n      swap3\n      swap2\n      swap1\n      dup2\n      dup2\n      mstore\n      0x20\n      add\n      0x00\n      swap1\n    tag_30:\n      dup3\n      dup3\n      lt\n      iszero\n      tag_31\n      jumpi\n      dup4\n      dup3\n      swap1\n      0x00\n      mstore\n      keccak256(0x00, 0x20)\n      swap1\n      0x02\n      mul\n      add\n      mload(0x40)\n      dup1\n      0x40\n      add\n      0x40\n      mstore\n      swap1\n      dup2\n      0x00\n      dup3\n      add\n      0x00\n      swap1\n      sload\n      swap1\n      0x0100\n      exp\n      swap1\n      div\n      0xffffffffffffffffffffffffffffffffffffffff\n      and\n      0xffffffffffffffffffffffffffffffffffffffff\n      and\n      0xffffffffffffffffffffffffffffffffffffffff\n      and\n      dup2\n      mstore\n      0x20\n      add\n      0x01\n      dup3\n      add\n      sload\n      dup2\n      mstore\n      pop\n      pop\n      dup2\n      mstore\n      0x20\n      add\n      swap1\n      0x01\n      add\n      swap1\n      jump(tag_30)\n    tag_31:\n      pop\n      pop\n      pop\n      pop\n      swap1\n      pop\n        /* \"contracts/AquoTransferTest11.sol\":1926:2019  function getHolders() public view returns (Holder[] memory) {... */\n      swap1\n      jump\t// out\n        /* \"contracts/AquoTransferTest11.sol\":956:1066  function balanceOf(address _user) public view returns (uint256) {... */\n    tag_19:\n        /* \"contracts/AquoTransferTest11.sol\":1011:1018  uint256 */\n      0x00\n        /* \"contracts/AquoTransferTest11.sol\":1038:1051  shareBalances */\n      0x01\n        /* \"contracts/AquoTransferTest11.sol\":1038:1058  shareBalances[_user] */\n      0x00\n        /* \"contracts/AquoTransferTest11.sol\":1052:1057  _user */\n      dup4\n        /* \"contracts/AquoTransferTest11.sol\":1038:1058  shareBalances[_user] */\n      0xffffffffffffffffffffffffffffffffffffffff\n      and\n      0xffffffffffffffffffffffffffffffffffffffff\n      and\n      dup2\n      mstore\n      0x20\n      add\n      swap1\n      dup2\n      mstore\n      0x20\n      add\n      0x00\n      keccak256\n      sload\n        /* \"contracts/AquoTransferTest11.sol\":1031:1058  return shareBalances[_user] */\n      swap1\n      pop\n        /* \"contracts/AquoTransferTest11.sol\":956:1066  function balanceOf(address _user) public view returns (uint256) {... */\n      swap2\n      swap1\n      pop\n      jump\t// out\n        /* \"contracts/AquoTransferTest11.sol\":91:111  address public owner */\n    tag_22:\n      0x00\n      dup1\n      sload\n      swap1\n      0x0100\n      exp\n      swap1\n      div\n      0xffffffffffffffffffffffffffffffffffffffff\n      and\n      dup2\n      jump\t// out\n        /* \"contracts/AquoTransferTest11.sol\":1074:1918  function transferShares(address _to, uint256 _amount) public {... */\n    tag_28:\n        /* \"contracts/AquoTransferTest11.sol\":1183:1190  _amount */\n      dup1\n        /* \"contracts/AquoTransferTest11.sol\":1154:1167  shareBalances */\n      0x01\n        /* \"contracts/AquoTransferTest11.sol\":1154:1179  shareBalances[msg.sender] */\n      0x00\n        /* \"contracts/AquoTransferTest11.sol\":1168:1178  msg.sender */\n      caller\n        /* \"contracts/AquoTransferTest11.sol\":1154:1179  shareBalances[msg.sender] */\n      0xffffffffffffffffffffffffffffffffffffffff\n      and\n      0xffffffffffffffffffffffffffffffffffffffff\n      and\n      dup2\n      mstore\n      0x20\n      add\n      swap1\n      dup2\n      mstore\n      0x20\n      add\n      0x00\n      keccak256\n      sload\n        /* \"contracts/AquoTransferTest11.sol\":1154:1190  shareBalances[msg.sender] >= _amount */\n      lt\n      iszero\n        /* \"contracts/AquoTransferTest11.sol\":1146:1214  require(shareBalances[msg.sender] >= _amount, \"Insufficient shares\") */\n      tag_35\n      jumpi\n      mload(0x40)\n      0x08c379a000000000000000000000000000000000000000000000000000000000\n      dup2\n      mstore\n      0x04\n      add\n      tag_36\n      swap1\n      tag_37\n      jump\t// in\n    tag_36:\n      mload(0x40)\n      dup1\n      swap2\n      sub\n      swap1\n      revert\n    tag_35:\n        /* \"contracts/AquoTransferTest11.sol\":1249:1250  0 */\n      0x00\n        /* \"contracts/AquoTransferTest11.sol\":1229:1240  holderIndex */\n      0x03\n        /* \"contracts/AquoTransferTest11.sol\":1229:1245  holderIndex[_to] */\n      0x00\n        /* \"contracts/AquoTransferTest11.sol\":1241:1244  _to */\n      dup5\n        /* \"contracts/AquoTransferTest11.sol\":1229:1245  holderIndex[_to] */\n      0xffffffffffffffffffffffffffffffffffffffff\n      and\n      0xffffffffffffffffffffffffffffffffffffffff\n      and\n      dup2\n      mstore\n      0x20\n      add\n      swap1\n      dup2\n      mstore\n      0x20\n      add\n      0x00\n      keccak256\n      sload\n        /* \"contracts/AquoTransferTest11.sol\":1229:1250  holderIndex[_to] == 0 */\n      sub\n        /* \"contracts/AquoTransferTest11.sol\":1225:1470  if (holderIndex[_to] == 0) { // Check if _to is not in the array... */\n      tag_38\n      jumpi\n        /* \"contracts/AquoTransferTest11.sol\":1303:1310  holders */\n      0x02\n        /* \"contracts/AquoTransferTest11.sol\":1316:1347  Holder({addr: _to, balance: 0}) */\n      mload(0x40)\n      dup1\n      0x40\n      add\n      0x40\n      mstore\n      dup1\n        /* \"contracts/AquoTransferTest11.sol\":1330:1333  _to */\n      dup5\n        /* \"contracts/AquoTransferTest11.sol\":1316:1347  Holder({addr: _to, balance: 0}) */\n      0xffffffffffffffffffffffffffffffffffffffff\n      and\n      dup2\n      mstore\n      0x20\n      add\n        /* \"contracts/AquoTransferTest11.sol\":1344:1345  0 */\n      0x00\n        /* \"contracts/AquoTransferTest11.sol\":1316:1347  Holder({addr: _to, balance: 0}) */\n      dup2\n      mstore\n      pop\n        /* \"contracts/AquoTransferTest11.sol\":1303:1348  holders.push(Holder({addr: _to, balance: 0})) */\n      swap1\n      dup1\n      0x01\n      dup2\n      sload\n      add\n      dup1\n      dup3\n      sstore\n      dup1\n      swap2\n      pop\n      pop\n      0x01\n      swap1\n      sub\n      swap1\n      0x00\n      mstore\n      keccak256(0x00, 0x20)\n      swap1\n      0x02\n      mul\n      add\n      0x00\n      swap1\n      swap2\n      swap1\n      swap2\n      swap1\n      swap2\n      pop\n      0x00\n      dup3\n      add\n      mload\n      dup2\n      0x00\n      add\n      exp(0x0100, 0x00)\n      dup2\n      sload\n      dup2\n      0xffffffffffffffffffffffffffffffffffffffff\n      mul\n      not\n      and\n      swap1\n      dup4\n      0xffffffffffffffffffffffffffffffffffffffff\n      and\n      mul\n      or\n      swap1\n      sstore\n      pop\n      0x20\n      dup3\n      add\n      mload\n      dup2\n      0x01\n      add\n      sstore\n      pop\n      pop\n        /* \"contracts/AquoTransferTest11.sol\":1414:1421  holders */\n      0x02\n        /* \"contracts/AquoTransferTest11.sol\":1414:1428  holders.length */\n      dup1\n      sload\n      swap1\n      pop\n        /* \"contracts/AquoTransferTest11.sol\":1395:1406  holderIndex */\n      0x03\n        /* \"contracts/AquoTransferTest11.sol\":1395:1411  holderIndex[_to] */\n      0x00\n        /* \"contracts/AquoTransferTest11.sol\":1407:1410  _to */\n      dup5\n        /* \"contracts/AquoTransferTest11.sol\":1395:1411  holderIndex[_to] */\n      0xffffffffffffffffffffffffffffffffffffffff\n      and\n      0xffffffffffffffffffffffffffffffffffffffff\n      and\n      dup2\n      mstore\n      0x20\n      add\n      swap1\n      dup2\n      mstore\n      0x20\n      add\n      0x00\n      keccak256\n        /* \"contracts/AquoTransferTest11.sol\":1395:1428  holderIndex[_to] = holders.length */\n      dup2\n      swap1\n      sstore\n      pop\n        /* \"contracts/AquoTransferTest11.sol\":1225:1470  if (holderIndex[_to] == 0) { // Check if _to is not in the array... */\n    tag_38:\n        /* \"contracts/AquoTransferTest11.sol\":1547:1554  _amount */\n      dup1\n        /* \"contracts/AquoTransferTest11.sol\":1518:1531  shareBalances */\n      0x01\n        /* \"contracts/AquoTransferTest11.sol\":1518:1543  shareBalances[msg.sender] */\n      0x00\n        /* \"contracts/AquoTransferTest11.sol\":1532:1542  msg.sender */\n      caller\n        /* \"contracts/AquoTransferTest11.sol\":1518:1543  shareBalances[msg.sender] */\n      0xffffffffffffffffffffffffffffffffffffffff\n      and\n      0xffffffffffffffffffffffffffffffffffffffff\n      and\n      dup2\n      mstore\n      0x20\n      add\n      swap1\n      dup2\n      mstore\n      0x20\n      add\n      0x00\n      keccak256\n      0x00\n        /* \"contracts/AquoTransferTest11.sol\":1518:1554  shareBalances[msg.sender] -= _amount */\n      dup3\n      dup3\n      sload\n      tag_40\n      swap2\n      swap1\n      tag_41\n      jump\t// in\n    tag_40:\n      swap3\n      pop\n      pop\n      dup2\n      swap1\n      sstore\n      pop\n        /* \"contracts/AquoTransferTest11.sol\":1587:1594  _amount */\n      dup1\n        /* \"contracts/AquoTransferTest11.sol\":1565:1578  shareBalances */\n      0x01\n        /* \"contracts/AquoTransferTest11.sol\":1565:1583  shareBalances[_to] */\n      0x00\n        /* \"contracts/AquoTransferTest11.sol\":1579:1582  _to */\n      dup5\n        /* \"contracts/AquoTransferTest11.sol\":1565:1583  shareBalances[_to] */\n      0xffffffffffffffffffffffffffffffffffffffff\n      and\n      0xffffffffffffffffffffffffffffffffffffffff\n      and\n      dup2\n      mstore\n      0x20\n      add\n      swap1\n      dup2\n      mstore\n      0x20\n      add\n      0x00\n      keccak256\n      0x00\n        /* \"contracts/AquoTransferTest11.sol\":1565:1594  shareBalances[_to] += _amount */\n      dup3\n      dup3\n      sload\n      tag_42\n      swap2\n      swap1\n      tag_43\n      jump\t// in\n    tag_42:\n      swap3\n      pop\n      pop\n      dup2\n      swap1\n      sstore\n      pop\n        /* \"contracts/AquoTransferTest11.sol\":1645:1658  shareBalances */\n      0x01\n        /* \"contracts/AquoTransferTest11.sol\":1645:1663  shareBalances[_to] */\n      0x00\n        /* \"contracts/AquoTransferTest11.sol\":1659:1662  _to */\n      dup4\n        /* \"contracts/AquoTransferTest11.sol\":1645:1663  shareBalances[_to] */\n      0xffffffffffffffffffffffffffffffffffffffff\n      and\n      0xffffffffffffffffffffffffffffffffffffffff\n      and\n      dup2\n      mstore\n      0x20\n      add\n      swap1\n      dup2\n      mstore\n      0x20\n      add\n      0x00\n      keccak256\n      sload\n        /* \"contracts/AquoTransferTest11.sol\":1605:1612  holders */\n      0x02\n        /* \"contracts/AquoTransferTest11.sol\":1632:1633  1 */\n      0x01\n        /* \"contracts/AquoTransferTest11.sol\":1613:1624  holderIndex */\n      0x03\n        /* \"contracts/AquoTransferTest11.sol\":1613:1629  holderIndex[_to] */\n      0x00\n        /* \"contracts/AquoTransferTest11.sol\":1625:1628  _to */\n      dup7\n        /* \"contracts/AquoTransferTest11.sol\":1613:1629  holderIndex[_to] */\n      0xffffffffffffffffffffffffffffffffffffffff\n      and\n      0xffffffffffffffffffffffffffffffffffffffff\n      and\n      dup2\n      mstore\n      0x20\n      add\n      swap1\n      dup2\n      mstore\n      0x20\n      add\n      0x00\n      keccak256\n      sload\n        /* \"contracts/AquoTransferTest11.sol\":1613:1633  holderIndex[_to] - 1 */\n      tag_44\n      swap2\n      swap1\n      tag_41\n      jump\t// in\n    tag_44:\n        /* \"contracts/AquoTransferTest11.sol\":1605:1634  holders[holderIndex[_to] - 1] */\n      dup2\n      sload\n      dup2\n      lt\n      tag_45\n      jumpi\n      tag_46\n      tag_47\n      jump\t// in\n    tag_46:\n    tag_45:\n      swap1\n      0x00\n      mstore\n      keccak256(0x00, 0x20)\n      swap1\n      0x02\n      mul\n      add\n        /* \"contracts/AquoTransferTest11.sol\":1605:1642  holders[holderIndex[_to] - 1].balance */\n      0x01\n      add\n        /* \"contracts/AquoTransferTest11.sol\":1605:1663  holders[holderIndex[_to] - 1].balance = shareBalances[_to] */\n      dup2\n      swap1\n      sstore\n      pop\n        /* \"contracts/AquoTransferTest11.sol\":1745:1746  0 */\n      0x00\n        /* \"contracts/AquoTransferTest11.sol\":1716:1729  shareBalances */\n      0x01\n        /* \"contracts/AquoTransferTest11.sol\":1716:1741  shareBalances[msg.sender] */\n      0x00\n        /* \"contracts/AquoTransferTest11.sol\":1730:1740  msg.sender */\n      caller\n        /* \"contracts/AquoTransferTest11.sol\":1716:1741  shareBalances[msg.sender] */\n      0xffffffffffffffffffffffffffffffffffffffff\n      and\n      0xffffffffffffffffffffffffffffffffffffffff\n      and\n      dup2\n      mstore\n      0x20\n      add\n      swap1\n      dup2\n      mstore\n      0x20\n      add\n      0x00\n      keccak256\n      sload\n        /* \"contracts/AquoTransferTest11.sol\":1716:1746  shareBalances[msg.sender] == 0 */\n      sub\n        /* \"contracts/AquoTransferTest11.sol\":1712:1911  if (shareBalances[msg.sender] == 0) {... */\n      tag_49\n      jumpi\n        /* \"contracts/AquoTransferTest11.sol\":1770:1777  holders */\n      0x02\n        /* \"contracts/AquoTransferTest11.sol\":1804:1805  1 */\n      0x01\n        /* \"contracts/AquoTransferTest11.sol\":1778:1789  holderIndex */\n      0x03\n        /* \"contracts/AquoTransferTest11.sol\":1778:1801  holderIndex[msg.sender] */\n      0x00\n        /* \"contracts/AquoTransferTest11.sol\":1790:1800  msg.sender */\n      caller\n        /* \"contracts/AquoTransferTest11.sol\":1778:1801  holderIndex[msg.sender] */\n      0xffffffffffffffffffffffffffffffffffffffff\n      and\n      0xffffffffffffffffffffffffffffffffffffffff\n      and\n      dup2\n      mstore\n      0x20\n      add\n      swap1\n      dup2\n      mstore\n      0x20\n      add\n      0x00\n      keccak256\n      sload\n        /* \"contracts/AquoTransferTest11.sol\":1778:1805  holderIndex[msg.sender] - 1 */\n      tag_50\n      swap2\n      swap1\n      tag_41\n      jump\t// in\n    tag_50:\n        /* \"contracts/AquoTransferTest11.sol\":1770:1806  holders[holderIndex[msg.sender] - 1] */\n      dup2\n      sload\n      dup2\n      lt\n      tag_51\n      jumpi\n      tag_52\n      tag_47\n      jump\t// in\n    tag_52:\n    tag_51:\n      swap1\n      0x00\n      mstore\n      keccak256(0x00, 0x20)\n      swap1\n      0x02\n      mul\n      add\n      0x00\n        /* \"contracts/AquoTransferTest11.sol\":1763:1806  delete holders[holderIndex[msg.sender] - 1] */\n      dup1\n      dup3\n      add\n      exp(0x0100, 0x00)\n      dup2\n      sload\n      swap1\n      0xffffffffffffffffffffffffffffffffffffffff\n      mul\n      not\n      and\n      swap1\n      sstore\n      0x01\n      dup3\n      add\n      0x00\n      swap1\n      sstore\n      pop\n      pop\n        /* \"contracts/AquoTransferTest11.sol\":1871:1872  0 */\n      0x00\n        /* \"contracts/AquoTransferTest11.sol\":1845:1856  holderIndex */\n      0x03\n        /* \"contracts/AquoTransferTest11.sol\":1845:1868  holderIndex[msg.sender] */\n      0x00\n        /* \"contracts/AquoTransferTest11.sol\":1857:1867  msg.sender */\n      caller\n        /* \"contracts/AquoTransferTest11.sol\":1845:1868  holderIndex[msg.sender] */\n      0xffffffffffffffffffffffffffffffffffffffff\n      and\n      0xffffffffffffffffffffffffffffffffffffffff\n      and\n      dup2\n      mstore\n      0x20\n      add\n      swap1\n      dup2\n      mstore\n      0x20\n      add\n      0x00\n      keccak256\n        /* \"contracts/AquoTransferTest11.sol\":1845:1872  holderIndex[msg.sender] = 0 */\n      dup2\n      swap1\n      sstore\n      pop\n        /* \"contracts/AquoTransferTest11.sol\":1712:1911  if (shareBalances[msg.sender] == 0) {... */\n    tag_49:\n        /* \"contracts/AquoTransferTest11.sol\":1074:1918  function transferShares(address _to, uint256 _amount) public {... */\n      pop\n      pop\n      jump\t// out\n        /* \"#utility.yul\":7:84   */\n    tag_54:\n        /* \"#utility.yul\":44:51   */\n      0x00\n        /* \"#utility.yul\":73:78   */\n      dup2\n        /* \"#utility.yul\":62:78   */\n      swap1\n      pop\n        /* \"#utility.yul\":7:84   */\n      swap2\n      swap1\n      pop\n      jump\t// out\n        /* \"#utility.yul\":90:208   */\n    tag_55:\n        /* \"#utility.yul\":177:201   */\n      tag_82\n        /* \"#utility.yul\":195:200   */\n      dup2\n        /* \"#utility.yul\":177:201   */\n      tag_54\n      jump\t// in\n    tag_82:\n        /* \"#utility.yul\":172:175   */\n      dup3\n        /* \"#utility.yul\":165:202   */\n      mstore\n        /* \"#utility.yul\":90:208   */\n      pop\n      pop\n      jump\t// out\n        /* \"#utility.yul\":214:436   */\n    tag_11:\n        /* \"#utility.yul\":307:311   */\n      0x00\n        /* \"#utility.yul\":345:347   */\n      0x20\n        /* \"#utility.yul\":334:343   */\n      dup3\n        /* \"#utility.yul\":330:348   */\n      add\n        /* \"#utility.yul\":322:348   */\n      swap1\n      pop\n        /* \"#utility.yul\":358:429   */\n      tag_84\n        /* \"#utility.yul\":426:427   */\n      0x00\n        /* \"#utility.yul\":415:424   */\n      dup4\n        /* \"#utility.yul\":411:428   */\n      add\n        /* \"#utility.yul\":402:408   */\n      dup5\n        /* \"#utility.yul\":358:429   */\n      tag_55\n      jump\t// in\n    tag_84:\n        /* \"#utility.yul\":214:436   */\n      swap3\n      swap2\n      pop\n      pop\n      jump\t// out\n        /* \"#utility.yul\":442:578   */\n    tag_56:\n        /* \"#utility.yul\":531:537   */\n      0x00\n        /* \"#utility.yul\":565:570   */\n      dup2\n        /* \"#utility.yul\":559:571   */\n      mload\n        /* \"#utility.yul\":549:571   */\n      swap1\n      pop\n        /* \"#utility.yul\":442:578   */\n      swap2\n      swap1\n      pop\n      jump\t// out\n        /* \"#utility.yul\":584:790   */\n    tag_57:\n        /* \"#utility.yul\":705:716   */\n      0x00\n        /* \"#utility.yul\":739:745   */\n      dup3\n        /* \"#utility.yul\":734:737   */\n      dup3\n        /* \"#utility.yul\":727:746   */\n      mstore\n        /* \"#utility.yul\":779:783   */\n      0x20\n        /* \"#utility.yul\":774:777   */\n      dup3\n        /* \"#utility.yul\":770:784   */\n      add\n        /* \"#utility.yul\":755:784   */\n      swap1\n      pop\n        /* \"#utility.yul\":584:790   */\n      swap3\n      swap2\n      pop\n      pop\n      jump\t// out\n        /* \"#utility.yul\":796:950   */\n    tag_58:\n        /* \"#utility.yul\":885:889   */\n      0x00\n        /* \"#utility.yul\":908:911   */\n      dup2\n        /* \"#utility.yul\":900:911   */\n      swap1\n      pop\n        /* \"#utility.yul\":938:942   */\n      0x20\n        /* \"#utility.yul\":933:936   */\n      dup3\n        /* \"#utility.yul\":929:943   */\n      add\n        /* \"#utility.yul\":921:943   */\n      swap1\n      pop\n        /* \"#utility.yul\":796:950   */\n      swap2\n      swap1\n      pop\n      jump\t// out\n        /* \"#utility.yul\":956:1082   */\n    tag_59:\n        /* \"#utility.yul\":993:1000   */\n      0x00\n        /* \"#utility.yul\":1033:1075   */\n      0xffffffffffffffffffffffffffffffffffffffff\n        /* \"#utility.yul\":1026:1031   */\n      dup3\n        /* \"#utility.yul\":1022:1076   */\n      and\n        /* \"#utility.yul\":1011:1076   */\n      swap1\n      pop\n        /* \"#utility.yul\":956:1082   */\n      swap2\n      swap1\n      pop\n      jump\t// out\n        /* \"#utility.yul\":1088:1184   */\n    tag_60:\n        /* \"#utility.yul\":1125:1132   */\n      0x00\n        /* \"#utility.yul\":1154:1178   */\n      tag_90\n        /* \"#utility.yul\":1172:1177   */\n      dup3\n        /* \"#utility.yul\":1154:1178   */\n      tag_59\n      jump\t// in\n    tag_90:\n        /* \"#utility.yul\":1143:1178   */\n      swap1\n      pop\n        /* \"#utility.yul\":1088:1184   */\n      swap2\n      swap1\n      pop\n      jump\t// out\n        /* \"#utility.yul\":1190:1298   */\n    tag_61:\n        /* \"#utility.yul\":1267:1291   */\n      tag_92\n        /* \"#utility.yul\":1285:1290   */\n      dup2\n        /* \"#utility.yul\":1267:1291   */\n      tag_60\n      jump\t// in\n    tag_92:\n        /* \"#utility.yul\":1262:1265   */\n      dup3\n        /* \"#utility.yul\":1255:1292   */\n      mstore\n        /* \"#utility.yul\":1190:1298   */\n      pop\n      pop\n      jump\t// out\n        /* \"#utility.yul\":1304:1412   */\n    tag_62:\n        /* \"#utility.yul\":1381:1405   */\n      tag_94\n        /* \"#utility.yul\":1399:1404   */\n      dup2\n        /* \"#utility.yul\":1381:1405   */\n      tag_54\n      jump\t// in\n    tag_94:\n        /* \"#utility.yul\":1376:1379   */\n      dup3\n        /* \"#utility.yul\":1369:1406   */\n      mstore\n        /* \"#utility.yul\":1304:1412   */\n      pop\n      pop\n      jump\t// out\n        /* \"#utility.yul\":1484:1978   */\n    tag_63:\n        /* \"#utility.yul\":1615:1619   */\n      0x40\n        /* \"#utility.yul\":1610:1613   */\n      dup3\n        /* \"#utility.yul\":1606:1620   */\n      add\n        /* \"#utility.yul\":1702:1706   */\n      0x00\n        /* \"#utility.yul\":1695:1700   */\n      dup3\n        /* \"#utility.yul\":1691:1707   */\n      add\n        /* \"#utility.yul\":1685:1708   */\n      mload\n        /* \"#utility.yul\":1721:1784   */\n      tag_96\n        /* \"#utility.yul\":1778:1782   */\n      0x00\n        /* \"#utility.yul\":1773:1776   */\n      dup6\n        /* \"#utility.yul\":1769:1783   */\n      add\n        /* \"#utility.yul\":1755:1767   */\n      dup3\n        /* \"#utility.yul\":1721:1784   */\n      tag_61\n      jump\t// in\n    tag_96:\n        /* \"#utility.yul\":1630:1794   */\n      pop\n        /* \"#utility.yul\":1879:1883   */\n      0x20\n        /* \"#utility.yul\":1872:1877   */\n      dup3\n        /* \"#utility.yul\":1868:1884   */\n      add\n        /* \"#utility.yul\":1862:1885   */\n      mload\n        /* \"#utility.yul\":1898:1961   */\n      tag_97\n        /* \"#utility.yul\":1955:1959   */\n      0x20\n        /* \"#utility.yul\":1950:1953   */\n      dup6\n        /* \"#utility.yul\":1946:1960   */\n      add\n        /* \"#utility.yul\":1932:1944   */\n      dup3\n        /* \"#utility.yul\":1898:1961   */\n      tag_62\n      jump\t// in\n    tag_97:\n        /* \"#utility.yul\":1804:1971   */\n      pop\n        /* \"#utility.yul\":1584:1978   */\n      pop\n        /* \"#utility.yul\":1484:1978   */\n      pop\n      pop\n      jump\t// out\n        /* \"#utility.yul\":1984:2251   */\n    tag_64:\n        /* \"#utility.yul\":2097:2107   */\n      0x00\n        /* \"#utility.yul\":2118:2208   */\n      tag_99\n        /* \"#utility.yul\":2204:2207   */\n      dup4\n        /* \"#utility.yul\":2196:2202   */\n      dup4\n        /* \"#utility.yul\":2118:2208   */\n      tag_63\n      jump\t// in\n    tag_99:\n        /* \"#utility.yul\":2240:2244   */\n      0x40\n        /* \"#utility.yul\":2235:2238   */\n      dup4\n        /* \"#utility.yul\":2231:2245   */\n      add\n        /* \"#utility.yul\":2217:2245   */\n      swap1\n      pop\n        /* \"#utility.yul\":1984:2251   */\n      swap3\n      swap2\n      pop\n      pop\n      jump\t// out\n        /* \"#utility.yul\":2257:2392   */\n    tag_65:\n        /* \"#utility.yul\":2349:2353   */\n      0x00\n        /* \"#utility.yul\":2381:2385   */\n      0x20\n        /* \"#utility.yul\":2376:2379   */\n      dup3\n        /* \"#utility.yul\":2372:2386   */\n      add\n        /* \"#utility.yul\":2364:2386   */\n      swap1\n      pop\n        /* \"#utility.yul\":2257:2392   */\n      swap2\n      swap1\n      pop\n      jump\t// out\n        /* \"#utility.yul\":2468:3376   */\n    tag_66:\n        /* \"#utility.yul\":2631:2634   */\n      0x00\n        /* \"#utility.yul\":2660:2736   */\n      tag_102\n        /* \"#utility.yul\":2730:2735   */\n      dup3\n        /* \"#utility.yul\":2660:2736   */\n      tag_56\n      jump\t// in\n    tag_102:\n        /* \"#utility.yul\":2752:2860   */\n      tag_103\n        /* \"#utility.yul\":2853:2859   */\n      dup2\n        /* \"#utility.yul\":2848:2851   */\n      dup6\n        /* \"#utility.yul\":2752:2860   */\n      tag_57\n      jump\t// in\n    tag_103:\n        /* \"#utility.yul\":2745:2860   */\n      swap4\n      pop\n        /* \"#utility.yul\":2884:2962   */\n      tag_104\n        /* \"#utility.yul\":2956:2961   */\n      dup4\n        /* \"#utility.yul\":2884:2962   */\n      tag_58\n      jump\t// in\n    tag_104:\n        /* \"#utility.yul\":2985:2992   */\n      dup1\n        /* \"#utility.yul\":3016:3017   */\n      0x00\n        /* \"#utility.yul\":3001:3351   */\n    tag_105:\n        /* \"#utility.yul\":3026:3032   */\n      dup4\n        /* \"#utility.yul\":3023:3024   */\n      dup2\n        /* \"#utility.yul\":3020:3033   */\n      lt\n        /* \"#utility.yul\":3001:3351   */\n      iszero\n      tag_107\n      jumpi\n        /* \"#utility.yul\":3102:3108   */\n      dup2\n        /* \"#utility.yul\":3096:3109   */\n      mload\n        /* \"#utility.yul\":3129:3236   */\n      tag_108\n        /* \"#utility.yul\":3232:3235   */\n      dup9\n        /* \"#utility.yul\":3217:3230   */\n      dup3\n        /* \"#utility.yul\":3129:3236   */\n      tag_64\n      jump\t// in\n    tag_108:\n        /* \"#utility.yul\":3122:3236   */\n      swap8\n      pop\n        /* \"#utility.yul\":3259:3341   */\n      tag_109\n        /* \"#utility.yul\":3334:3340   */\n      dup4\n        /* \"#utility.yul\":3259:3341   */\n      tag_65\n      jump\t// in\n    tag_109:\n        /* \"#utility.yul\":3249:3341   */\n      swap3\n      pop\n        /* \"#utility.yul\":3061:3351   */\n      pop\n        /* \"#utility.yul\":3048:3049   */\n      0x01\n        /* \"#utility.yul\":3045:3046   */\n      dup2\n        /* \"#utility.yul\":3041:3050   */\n      add\n        /* \"#utility.yul\":3036:3050   */\n      swap1\n      pop\n        /* \"#utility.yul\":3001:3351   */\n      jump(tag_105)\n    tag_107:\n        /* \"#utility.yul\":3005:3019   */\n      pop\n        /* \"#utility.yul\":3367:3370   */\n      dup6\n        /* \"#utility.yul\":3360:3370   */\n      swap4\n      pop\n        /* \"#utility.yul\":2636:3376   */\n      pop\n      pop\n      pop\n        /* \"#utility.yul\":2468:3376   */\n      swap3\n      swap2\n      pop\n      pop\n      jump\t// out\n        /* \"#utility.yul\":3382:3843   */\n    tag_15:\n        /* \"#utility.yul\":3569:3573   */\n      0x00\n        /* \"#utility.yul\":3607:3609   */\n      0x20\n        /* \"#utility.yul\":3596:3605   */\n      dup3\n        /* \"#utility.yul\":3592:3610   */\n      add\n        /* \"#utility.yul\":3584:3610   */\n      swap1\n      pop\n        /* \"#utility.yul\":3656:3665   */\n      dup2\n        /* \"#utility.yul\":3650:3654   */\n      dup2\n        /* \"#utility.yul\":3646:3666   */\n      sub\n        /* \"#utility.yul\":3642:3643   */\n      0x00\n        /* \"#utility.yul\":3631:3640   */\n      dup4\n        /* \"#utility.yul\":3627:3644   */\n      add\n        /* \"#utility.yul\":3620:3667   */\n      mstore\n        /* \"#utility.yul\":3684:3836   */\n      tag_111\n        /* \"#utility.yul\":3831:3835   */\n      dup2\n        /* \"#utility.yul\":3822:3828   */\n      dup5\n        /* \"#utility.yul\":3684:3836   */\n      tag_66\n      jump\t// in\n    tag_111:\n        /* \"#utility.yul\":3676:3836   */\n      swap1\n      pop\n        /* \"#utility.yul\":3382:3843   */\n      swap3\n      swap2\n      pop\n      pop\n      jump\t// out\n        /* \"#utility.yul\":3930:4047   */\n    tag_68:\n        /* \"#utility.yul\":4039:4040   */\n      0x00\n        /* \"#utility.yul\":4036:4037   */\n      dup1\n        /* \"#utility.yul\":4029:4041   */\n      revert\n        /* \"#utility.yul\":4176:4298   */\n    tag_70:\n        /* \"#utility.yul\":4249:4273   */\n      tag_116\n        /* \"#utility.yul\":4267:4272   */\n      dup2\n        /* \"#utility.yul\":4249:4273   */\n      tag_60\n      jump\t// in\n    tag_116:\n        /* \"#utility.yul\":4242:4247   */\n      dup2\n        /* \"#utility.yul\":4239:4274   */\n      eq\n        /* \"#utility.yul\":4229:4292   */\n      tag_117\n      jumpi\n        /* \"#utility.yul\":4288:4289   */\n      0x00\n        /* \"#utility.yul\":4285:4286   */\n      dup1\n        /* \"#utility.yul\":4278:4290   */\n      revert\n        /* \"#utility.yul\":4229:4292   */\n    tag_117:\n        /* \"#utility.yul\":4176:4298   */\n      pop\n      jump\t// out\n        /* \"#utility.yul\":4304:4443   */\n    tag_71:\n        /* \"#utility.yul\":4350:4355   */\n      0x00\n        /* \"#utility.yul\":4388:4394   */\n      dup2\n        /* \"#utility.yul\":4375:4395   */\n      calldataload\n        /* \"#utility.yul\":4366:4395   */\n      swap1\n      pop\n        /* \"#utility.yul\":4404:4437   */\n      tag_119\n        /* \"#utility.yul\":4431:4436   */\n      dup2\n        /* \"#utility.yul\":4404:4437   */\n      tag_70\n      jump\t// in\n    tag_119:\n        /* \"#utility.yul\":4304:4443   */\n      swap3\n      swap2\n      pop\n      pop\n      jump\t// out\n        /* \"#utility.yul\":4449:4778   */\n    tag_18:\n        /* \"#utility.yul\":4508:4514   */\n      0x00\n        /* \"#utility.yul\":4557:4559   */\n      0x20\n        /* \"#utility.yul\":4545:4554   */\n      dup3\n        /* \"#utility.yul\":4536:4543   */\n      dup5\n        /* \"#utility.yul\":4532:4555   */\n      sub\n        /* \"#utility.yul\":4528:4560   */\n      slt\n        /* \"#utility.yul\":4525:4644   */\n      iszero\n      tag_121\n      jumpi\n        /* \"#utility.yul\":4563:4642   */\n      tag_122\n      tag_68\n      jump\t// in\n    tag_122:\n        /* \"#utility.yul\":4525:4644   */\n    tag_121:\n        /* \"#utility.yul\":4683:4684   */\n      0x00\n        /* \"#utility.yul\":4708:4761   */\n      tag_123\n        /* \"#utility.yul\":4753:4760   */\n      dup5\n        /* \"#utility.yul\":4744:4750   */\n      dup3\n        /* \"#utility.yul\":4733:4742   */\n      dup6\n        /* \"#utility.yul\":4729:4751   */\n      add\n        /* \"#utility.yul\":4708:4761   */\n      tag_71\n      jump\t// in\n    tag_123:\n        /* \"#utility.yul\":4698:4761   */\n      swap2\n      pop\n        /* \"#utility.yul\":4654:4771   */\n      pop\n        /* \"#utility.yul\":4449:4778   */\n      swap3\n      swap2\n      pop\n      pop\n      jump\t// out\n        /* \"#utility.yul\":4784:4902   */\n    tag_72:\n        /* \"#utility.yul\":4871:4895   */\n      tag_125\n        /* \"#utility.yul\":4889:4894   */\n      dup2\n        /* \"#utility.yul\":4871:4895   */\n      tag_60\n      jump\t// in\n    tag_125:\n        /* \"#utility.yul\":4866:4869   */\n      dup3\n        /* \"#utility.yul\":4859:4896   */\n      mstore\n        /* \"#utility.yul\":4784:4902   */\n      pop\n      pop\n      jump\t// out\n        /* \"#utility.yul\":4908:5130   */\n    tag_24:\n        /* \"#utility.yul\":5001:5005   */\n      0x00\n        /* \"#utility.yul\":5039:5041   */\n      0x20\n        /* \"#utility.yul\":5028:5037   */\n      dup3\n        /* \"#utility.yul\":5024:5042   */\n      add\n        /* \"#utility.yul\":5016:5042   */\n      swap1\n      pop\n        /* \"#utility.yul\":5052:5123   */\n      tag_127\n        /* \"#utility.yul\":5120:5121   */\n      0x00\n        /* \"#utility.yul\":5109:5118   */\n      dup4\n        /* \"#utility.yul\":5105:5122   */\n      add\n        /* \"#utility.yul\":5096:5102   */\n      dup5\n        /* \"#utility.yul\":5052:5123   */\n      tag_72\n      jump\t// in\n    tag_127:\n        /* \"#utility.yul\":4908:5130   */\n      swap3\n      swap2\n      pop\n      pop\n      jump\t// out\n        /* \"#utility.yul\":5136:5258   */\n    tag_73:\n        /* \"#utility.yul\":5209:5233   */\n      tag_129\n        /* \"#utility.yul\":5227:5232   */\n      dup2\n        /* \"#utility.yul\":5209:5233   */\n      tag_54\n      jump\t// in\n    tag_129:\n        /* \"#utility.yul\":5202:5207   */\n      dup2\n        /* \"#utility.yul\":5199:5234   */\n      eq\n        /* \"#utility.yul\":5189:5252   */\n      tag_130\n      jumpi\n        /* \"#utility.yul\":5248:5249   */\n      0x00\n        /* \"#utility.yul\":5245:5246   */\n      dup1\n        /* \"#utility.yul\":5238:5250   */\n      revert\n        /* \"#utility.yul\":5189:5252   */\n    tag_130:\n        /* \"#utility.yul\":5136:5258   */\n      pop\n      jump\t// out\n        /* \"#utility.yul\":5264:5403   */\n    tag_74:\n        /* \"#utility.yul\":5310:5315   */\n      0x00\n        /* \"#utility.yul\":5348:5354   */\n      dup2\n        /* \"#utility.yul\":5335:5355   */\n      calldataload\n        /* \"#utility.yul\":5326:5355   */\n      swap1\n      pop\n        /* \"#utility.yul\":5364:5397   */\n      tag_132\n        /* \"#utility.yul\":5391:5396   */\n      dup2\n        /* \"#utility.yul\":5364:5397   */\n      tag_73\n      jump\t// in\n    tag_132:\n        /* \"#utility.yul\":5264:5403   */\n      swap3\n      swap2\n      pop\n      pop\n      jump\t// out\n        /* \"#utility.yul\":5409:5883   */\n    tag_27:\n        /* \"#utility.yul\":5477:5483   */\n      0x00\n        /* \"#utility.yul\":5485:5491   */\n      dup1\n        /* \"#utility.yul\":5534:5536   */\n      0x40\n        /* \"#utility.yul\":5522:5531   */\n      dup4\n        /* \"#utility.yul\":5513:5520   */\n      dup6\n        /* \"#utility.yul\":5509:5532   */\n      sub\n        /* \"#utility.yul\":5505:5537   */\n      slt\n        /* \"#utility.yul\":5502:5621   */\n      iszero\n      tag_134\n      jumpi\n        /* \"#utility.yul\":5540:5619   */\n      tag_135\n      tag_68\n      jump\t// in\n    tag_135:\n        /* \"#utility.yul\":5502:5621   */\n    tag_134:\n        /* \"#utility.yul\":5660:5661   */\n      0x00\n        /* \"#utility.yul\":5685:5738   */\n      tag_136\n        /* \"#utility.yul\":5730:5737   */\n      dup6\n        /* \"#utility.yul\":5721:5727   */\n      dup3\n        /* \"#utility.yul\":5710:5719   */\n      dup7\n        /* \"#utility.yul\":5706:5728   */\n      add\n        /* \"#utility.yul\":5685:5738   */\n      tag_71\n      jump\t// in\n    tag_136:\n        /* \"#utility.yul\":5675:5738   */\n      swap3\n      pop\n        /* \"#utility.yul\":5631:5748   */\n      pop\n        /* \"#utility.yul\":5787:5789   */\n      0x20\n        /* \"#utility.yul\":5813:5866   */\n      tag_137\n        /* \"#utility.yul\":5858:5865   */\n      dup6\n        /* \"#utility.yul\":5849:5855   */\n      dup3\n        /* \"#utility.yul\":5838:5847   */\n      dup7\n        /* \"#utility.yul\":5834:5856   */\n      add\n        /* \"#utility.yul\":5813:5866   */\n      tag_74\n      jump\t// in\n    tag_137:\n        /* \"#utility.yul\":5803:5866   */\n      swap2\n      pop\n        /* \"#utility.yul\":5758:5876   */\n      pop\n        /* \"#utility.yul\":5409:5883   */\n      swap3\n      pop\n      swap3\n      swap1\n      pop\n      jump\t// out\n        /* \"#utility.yul\":5889:6058   */\n    tag_75:\n        /* \"#utility.yul\":5973:5984   */\n      0x00\n        /* \"#utility.yul\":6007:6013   */\n      dup3\n        /* \"#utility.yul\":6002:6005   */\n      dup3\n        /* \"#utility.yul\":5995:6014   */\n      mstore\n        /* \"#utility.yul\":6047:6051   */\n      0x20\n        /* \"#utility.yul\":6042:6045   */\n      dup3\n        /* \"#utility.yul\":6038:6052   */\n      add\n        /* \"#utility.yul\":6023:6052   */\n      swap1\n      pop\n        /* \"#utility.yul\":5889:6058   */\n      swap3\n      swap2\n      pop\n      pop\n      jump\t// out\n        /* \"#utility.yul\":6064:6233   */\n    tag_76:\n        /* \"#utility.yul\":6204:6225   */\n      0x496e73756666696369656e742073686172657300000000000000000000000000\n        /* \"#utility.yul\":6200:6201   */\n      0x00\n        /* \"#utility.yul\":6192:6198   */\n      dup3\n        /* \"#utility.yul\":6188:6202   */\n      add\n        /* \"#utility.yul\":6181:6226   */\n      mstore\n        /* \"#utility.yul\":6064:6233   */\n      pop\n      jump\t// out\n        /* \"#utility.yul\":6239:6605   */\n    tag_77:\n        /* \"#utility.yul\":6381:6384   */\n      0x00\n        /* \"#utility.yul\":6402:6469   */\n      tag_141\n        /* \"#utility.yul\":6466:6468   */\n      0x13\n        /* \"#utility.yul\":6461:6464   */\n      dup4\n        /* \"#utility.yul\":6402:6469   */\n      tag_75\n      jump\t// in\n    tag_141:\n        /* \"#utility.yul\":6395:6469   */\n      swap2\n      pop\n        /* \"#utility.yul\":6478:6571   */\n      tag_142\n        /* \"#utility.yul\":6567:6570   */\n      dup3\n        /* \"#utility.yul\":6478:6571   */\n      tag_76\n      jump\t// in\n    tag_142:\n        /* \"#utility.yul\":6596:6598   */\n      0x20\n        /* \"#utility.yul\":6591:6594   */\n      dup3\n        /* \"#utility.yul\":6587:6599   */\n      add\n        /* \"#utility.yul\":6580:6599   */\n      swap1\n      pop\n        /* \"#utility.yul\":6239:6605   */\n      swap2\n      swap1\n      pop\n      jump\t// out\n        /* \"#utility.yul\":6611:7030   */\n    tag_37:\n        /* \"#utility.yul\":6777:6781   */\n      0x00\n        /* \"#utility.yul\":6815:6817   */\n      0x20\n        /* \"#utility.yul\":6804:6813   */\n      dup3\n        /* \"#utility.yul\":6800:6818   */\n      add\n        /* \"#utility.yul\":6792:6818   */\n      swap1\n      pop\n        /* \"#utility.yul\":6864:6873   */\n      dup2\n        /* \"#utility.yul\":6858:6862   */\n      dup2\n        /* \"#utility.yul\":6854:6874   */\n      sub\n        /* \"#utility.yul\":6850:6851   */\n      0x00\n        /* \"#utility.yul\":6839:6848   */\n      dup4\n        /* \"#utility.yul\":6835:6852   */\n      add\n        /* \"#utility.yul\":6828:6875   */\n      mstore\n        /* \"#utility.yul\":6892:7023   */\n      tag_144\n        /* \"#utility.yul\":7018:7022   */\n      dup2\n        /* \"#utility.yul\":6892:7023   */\n      tag_77\n      jump\t// in\n    tag_144:\n        /* \"#utility.yul\":6884:7023   */\n      swap1\n      pop\n        /* \"#utility.yul\":6611:7030   */\n      swap2\n      swap1\n      pop\n      jump\t// out\n        /* \"#utility.yul\":7036:7216   */\n    tag_78:\n        /* \"#utility.yul\":7084:7161   */\n      0x4e487b7100000000000000000000000000000000000000000000000000000000\n        /* \"#utility.yul\":7081:7082   */\n      0x00\n        /* \"#utility.yul\":7074:7162   */\n      mstore\n        /* \"#utility.yul\":7181:7185   */\n      0x11\n        /* \"#utility.yul\":7178:7179   */\n      0x04\n        /* \"#utility.yul\":7171:7186   */\n      mstore\n        /* \"#utility.yul\":7205:7209   */\n      0x24\n        /* \"#utility.yul\":7202:7203   */\n      0x00\n        /* \"#utility.yul\":7195:7210   */\n      revert\n        /* \"#utility.yul\":7222:7416   */\n    tag_41:\n        /* \"#utility.yul\":7262:7266   */\n      0x00\n        /* \"#utility.yul\":7282:7302   */\n      tag_147\n        /* \"#utility.yul\":7300:7301   */\n      dup3\n        /* \"#utility.yul\":7282:7302   */\n      tag_54\n      jump\t// in\n    tag_147:\n        /* \"#utility.yul\":7277:7302   */\n      swap2\n      pop\n        /* \"#utility.yul\":7316:7336   */\n      tag_148\n        /* \"#utility.yul\":7334:7335   */\n      dup4\n        /* \"#utility.yul\":7316:7336   */\n      tag_54\n      jump\t// in\n    tag_148:\n        /* \"#utility.yul\":7311:7336   */\n      swap3\n      pop\n        /* \"#utility.yul\":7360:7361   */\n      dup3\n        /* \"#utility.yul\":7357:7358   */\n      dup3\n        /* \"#utility.yul\":7353:7362   */\n      sub\n        /* \"#utility.yul\":7345:7362   */\n      swap1\n      pop\n        /* \"#utility.yul\":7384:7385   */\n      dup2\n        /* \"#utility.yul\":7378:7382   */\n      dup2\n        /* \"#utility.yul\":7375:7386   */\n      gt\n        /* \"#utility.yul\":7372:7409   */\n      iszero\n      tag_149\n      jumpi\n        /* \"#utility.yul\":7389:7407   */\n      tag_150\n      tag_78\n      jump\t// in\n    tag_150:\n        /* \"#utility.yul\":7372:7409   */\n    tag_149:\n        /* \"#utility.yul\":7222:7416   */\n      swap3\n      swap2\n      pop\n      pop\n      jump\t// out\n        /* \"#utility.yul\":7422:7613   */\n    tag_43:\n        /* \"#utility.yul\":7462:7465   */\n      0x00\n        /* \"#utility.yul\":7481:7501   */\n      tag_152\n        /* \"#utility.yul\":7499:7500   */\n      dup3\n        /* \"#utility.yul\":7481:7501   */\n      tag_54\n      jump\t// in\n    tag_152:\n        /* \"#utility.yul\":7476:7501   */\n      swap2\n      pop\n        /* \"#utility.yul\":7515:7535   */\n      tag_153\n        /* \"#utility.yul\":7533:7534   */\n      dup4\n        /* \"#utility.yul\":7515:7535   */\n      tag_54\n      jump\t// in\n    tag_153:\n        /* \"#utility.yul\":7510:7535   */\n      swap3\n      pop\n        /* \"#utility.yul\":7558:7559   */\n      dup3\n        /* \"#utility.yul\":7555:7556   */\n      dup3\n        /* \"#utility.yul\":7551:7560   */\n      add\n        /* \"#utility.yul\":7544:7560   */\n      swap1\n      pop\n        /* \"#utility.yul\":7579:7582   */\n      dup1\n        /* \"#utility.yul\":7576:7577   */\n      dup3\n        /* \"#utility.yul\":7573:7583   */\n      gt\n        /* \"#utility.yul\":7570:7606   */\n      iszero\n      tag_154\n      jumpi\n        /* \"#utility.yul\":7586:7604   */\n      tag_155\n      tag_78\n      jump\t// in\n    tag_155:\n        /* \"#utility.yul\":7570:7606   */\n    tag_154:\n        /* \"#utility.yul\":7422:7613   */\n      swap3\n      swap2\n      pop\n      pop\n      jump\t// out\n        /* \"#utility.yul\":7619:7799   */\n    tag_47:\n        /* \"#utility.yul\":7667:7744   */\n      0x4e487b7100000000000000000000000000000000000000000000000000000000\n        /* \"#utility.yul\":7664:7665   */\n      0x00\n        /* \"#utility.yul\":7657:7745   */\n      mstore\n        /* \"#utility.yul\":7764:7768   */\n      0x32\n        /* \"#utility.yul\":7761:7762   */\n      0x04\n        /* \"#utility.yul\":7754:7769   */\n      mstore\n        /* \"#utility.yul\":7788:7792   */\n      0x24\n        /* \"#utility.yul\":7785:7786   */\n      0x00\n        /* \"#utility.yul\":7778:7793   */\n      revert\n\n    auxdata: 0xa2646970667358221220d1ad6323b9dcc6d5442fcdbd7a59657017b3ec7b704bb3d6abbe8e5ed3c0033f64736f6c63430008170033\n}\n",
				"bytecode": {
					"linkReferences": {},
					"object": "608060405234801561000f575f80fd5b50604051610cfe380380610cfe8339818101604052810190610031919061029a565b805f806101000a81548173ffffffffffffffffffffffffffffffffffffffff021916908373ffffffffffffffffffffffffffffffffffffffff16021790555081600481905550600260405180604001604052805f8054906101000a900473ffffffffffffffffffffffffffffffffffffffff1673ffffffffffffffffffffffffffffffffffffffff16815260200184815250908060018154018082558091505060019003905f5260205f2090600202015f909190919091505f820151815f015f6101000a81548173ffffffffffffffffffffffffffffffffffffffff021916908373ffffffffffffffffffffffffffffffffffffffff16021790555060208201518160010155505060028054905060035f805f9054906101000a900473ffffffffffffffffffffffffffffffffffffffff1673ffffffffffffffffffffffffffffffffffffffff1673ffffffffffffffffffffffffffffffffffffffff1681526020019081526020015f20819055508160015f805f9054906101000a900473ffffffffffffffffffffffffffffffffffffffff1673ffffffffffffffffffffffffffffffffffffffff1673ffffffffffffffffffffffffffffffffffffffff1681526020019081526020015f208190555050506102d8565b5f80fd5b5f819050919050565b61021f8161020d565b8114610229575f80fd5b50565b5f8151905061023a81610216565b92915050565b5f73ffffffffffffffffffffffffffffffffffffffff82169050919050565b5f61026982610240565b9050919050565b6102798161025f565b8114610283575f80fd5b50565b5f8151905061029481610270565b92915050565b5f80604083850312156102b0576102af610209565b5b5f6102bd8582860161022c565b92505060206102ce85828601610286565b9150509250929050565b610a19806102e55f395ff3fe608060405234801561000f575f80fd5b5060043610610055575f3560e01c80633a98ef39146100595780635fe8e7cc1461007757806370a08231146100955780638da5cb5b146100c55780638fcb4e5b146100e3575b5f80fd5b6100616100ff565b60405161006e9190610666565b60405180910390f35b61007f610105565b60405161008c91906107a2565b60405180910390f35b6100af60048036038101906100aa91906107f0565b6101bf565b6040516100bc9190610666565b60405180910390f35b6100cd610205565b6040516100da919061082a565b60405180910390f35b6100fd60048036038101906100f8919061086d565b610228565b005b60045481565b60606002805480602002602001604051908101604052809291908181526020015f905b828210156101b6578382905f5260205f2090600202016040518060400160405290815f82015f9054906101000a900473ffffffffffffffffffffffffffffffffffffffff1673ffffffffffffffffffffffffffffffffffffffff1673ffffffffffffffffffffffffffffffffffffffff16815260200160018201548152505081526020019060010190610128565b50505050905090565b5f60015f8373ffffffffffffffffffffffffffffffffffffffff1673ffffffffffffffffffffffffffffffffffffffff1681526020019081526020015f20549050919050565b5f8054906101000a900473ffffffffffffffffffffffffffffffffffffffff1681565b8060015f3373ffffffffffffffffffffffffffffffffffffffff1673ffffffffffffffffffffffffffffffffffffffff1681526020019081526020015f205410156102a8576040517f08c379a000000000000000000000000000000000000000000000000000000000815260040161029f90610905565b60405180910390fd5b5f60035f8473ffffffffffffffffffffffffffffffffffffffff1673ffffffffffffffffffffffffffffffffffffffff1681526020019081526020015f2054036103d757600260405180604001604052808473ffffffffffffffffffffffffffffffffffffffff1681526020015f815250908060018154018082558091505060019003905f5260205f2090600202015f909190919091505f820151815f015f6101000a81548173ffffffffffffffffffffffffffffffffffffffff021916908373ffffffffffffffffffffffffffffffffffffffff16021790555060208201518160010155505060028054905060035f8473ffffffffffffffffffffffffffffffffffffffff1673ffffffffffffffffffffffffffffffffffffffff1681526020019081526020015f20819055505b8060015f3373ffffffffffffffffffffffffffffffffffffffff1673ffffffffffffffffffffffffffffffffffffffff1681526020019081526020015f205f8282546104239190610950565b925050819055508060015f8473ffffffffffffffffffffffffffffffffffffffff1673ffffffffffffffffffffffffffffffffffffffff1681526020019081526020015f205f8282546104769190610983565b9250508190555060015f8373ffffffffffffffffffffffffffffffffffffffff1673ffffffffffffffffffffffffffffffffffffffff1681526020019081526020015f20546002600160035f8673ffffffffffffffffffffffffffffffffffffffff1673ffffffffffffffffffffffffffffffffffffffff1681526020019081526020015f20546105079190610950565b81548110610518576105176109b6565b5b905f5260205f209060020201600101819055505f60015f3373ffffffffffffffffffffffffffffffffffffffff1673ffffffffffffffffffffffffffffffffffffffff1681526020019081526020015f20540361064a576002600160035f3373ffffffffffffffffffffffffffffffffffffffff1673ffffffffffffffffffffffffffffffffffffffff1681526020019081526020015f20546105bb9190610950565b815481106105cc576105cb6109b6565b5b905f5260205f2090600202015f8082015f6101000a81549073ffffffffffffffffffffffffffffffffffffffff0219169055600182015f905550505f60035f3373ffffffffffffffffffffffffffffffffffffffff1673ffffffffffffffffffffffffffffffffffffffff1681526020019081526020015f20819055505b5050565b5f819050919050565b6106608161064e565b82525050565b5f6020820190506106795f830184610657565b92915050565b5f81519050919050565b5f82825260208201905092915050565b5f819050602082019050919050565b5f73ffffffffffffffffffffffffffffffffffffffff82169050919050565b5f6106d1826106a8565b9050919050565b6106e1816106c7565b82525050565b6106f08161064e565b82525050565b604082015f82015161070a5f8501826106d8565b50602082015161071d60208501826106e7565b50505050565b5f61072e83836106f6565b60408301905092915050565b5f602082019050919050565b5f6107508261067f565b61075a8185610689565b935061076583610699565b805f5b8381101561079557815161077c8882610723565b97506107878361073a565b925050600181019050610768565b5085935050505092915050565b5f6020820190508181035f8301526107ba8184610746565b905092915050565b5f80fd5b6107cf816106c7565b81146107d9575f80fd5b50565b5f813590506107ea816107c6565b92915050565b5f60208284031215610805576108046107c2565b5b5f610812848285016107dc565b91505092915050565b610824816106c7565b82525050565b5f60208201905061083d5f83018461081b565b92915050565b61084c8161064e565b8114610856575f80fd5b50565b5f8135905061086781610843565b92915050565b5f8060408385031215610883576108826107c2565b5b5f610890858286016107dc565b92505060206108a185828601610859565b9150509250929050565b5f82825260208201905092915050565b7f496e73756666696369656e7420736861726573000000000000000000000000005f82015250565b5f6108ef6013836108ab565b91506108fa826108bb565b602082019050919050565b5f6020820190508181035f83015261091c816108e3565b9050919050565b7f4e487b71000000000000000000000000000000000000000000000000000000005f52601160045260245ffd5b5f61095a8261064e565b91506109658361064e565b925082820390508181111561097d5761097c610923565b5b92915050565b5f61098d8261064e565b91506109988361064e565b92508282019050808211156109b0576109af610923565b5b92915050565b7f4e487b71000000000000000000000000000000000000000000000000000000005f52603260045260245ffdfea2646970667358221220d1ad6323b9dcc6d5442fcdbd7a59657017b3ec7b704bb3d6abbe8e5ed3c0033f64736f6c63430008170033",
					"opcodes": "PUSH1 0x80 PUSH1 0x40 MSTORE CALLVALUE DUP1 ISZERO PUSH2 0xF JUMPI PUSH0 DUP1 REVERT JUMPDEST POP PUSH1 0x40 MLOAD PUSH2 0xCFE CODESIZE SUB DUP1 PUSH2 0xCFE DUP4 CODECOPY DUP2 DUP2 ADD PUSH1 0x40 MSTORE DUP2 ADD SWAP1 PUSH2 0x31 SWAP2 SWAP1 PUSH2 0x29A JUMP JUMPDEST DUP1 PUSH0 DUP1 PUSH2 0x100 EXP DUP2 SLOAD DUP2 PUSH20 0xFFFFFFFFFFFFFFFFFFFFFFFFFFFFFFFFFFFFFFFF MUL NOT AND SWAP1 DUP4 PUSH20 0xFFFFFFFFFFFFFFFFFFFFFFFFFFFFFFFFFFFFFFFF AND MUL OR SWAP1 SSTORE POP DUP2 PUSH1 0x4 DUP2 SWAP1 SSTORE POP PUSH1 0x2 PUSH1 0x40 MLOAD DUP1 PUSH1 0x40 ADD PUSH1 0x40 MSTORE DUP1 PUSH0 DUP1 SLOAD SWAP1 PUSH2 0x100 EXP SWAP1 DIV PUSH20 0xFFFFFFFFFFFFFFFFFFFFFFFFFFFFFFFFFFFFFFFF AND PUSH20 0xFFFFFFFFFFFFFFFFFFFFFFFFFFFFFFFFFFFFFFFF AND DUP2 MSTORE PUSH1 0x20 ADD DUP5 DUP2 MSTORE POP SWAP1 DUP1 PUSH1 0x1 DUP2 SLOAD ADD DUP1 DUP3 SSTORE DUP1 SWAP2 POP POP PUSH1 0x1 SWAP1 SUB SWAP1 PUSH0 MSTORE PUSH1 0x20 PUSH0 KECCAK256 SWAP1 PUSH1 0x2 MUL ADD PUSH0 SWAP1 SWAP2 SWAP1 SWAP2 SWAP1 SWAP2 POP PUSH0 DUP3 ADD MLOAD DUP2 PUSH0 ADD PUSH0 PUSH2 0x100 EXP DUP2 SLOAD DUP2 PUSH20 0xFFFFFFFFFFFFFFFFFFFFFFFFFFFFFFFFFFFFFFFF MUL NOT AND SWAP1 DUP4 PUSH20 0xFFFFFFFFFFFFFFFFFFFFFFFFFFFFFFFFFFFFFFFF AND MUL OR SWAP1 SSTORE POP PUSH1 0x20 DUP3 ADD MLOAD DUP2 PUSH1 0x1 ADD SSTORE POP POP PUSH1 0x2 DUP1 SLOAD SWAP1 POP PUSH1 0x3 PUSH0 DUP1 PUSH0 SWAP1 SLOAD SWAP1 PUSH2 0x100 EXP SWAP1 DIV PUSH20 0xFFFFFFFFFFFFFFFFFFFFFFFFFFFFFFFFFFFFFFFF AND PUSH20 0xFFFFFFFFFFFFFFFFFFFFFFFFFFFFFFFFFFFFFFFF AND PUSH20 0xFFFFFFFFFFFFFFFFFFFFFFFFFFFFFFFFFFFFFFFF AND DUP2 MSTORE PUSH1 0x20 ADD SWAP1 DUP2 MSTORE PUSH1 0x20 ADD PUSH0 KECCAK256 DUP2 SWAP1 SSTORE POP DUP2 PUSH1 0x1 PUSH0 DUP1 PUSH0 SWAP1 SLOAD SWAP1 PUSH2 0x100 EXP SWAP1 DIV PUSH20 0xFFFFFFFFFFFFFFFFFFFFFFFFFFFFFFFFFFFFFFFF AND PUSH20 0xFFFFFFFFFFFFFFFFFFFFFFFFFFFFFFFFFFFFFFFF AND PUSH20 0xFFFFFFFFFFFFFFFFFFFFFFFFFFFFFFFFFFFFFFFF AND DUP2 MSTORE PUSH1 0x20 ADD SWAP1 DUP2 MSTORE PUSH1 0x20 ADD PUSH0 KECCAK256 DUP2 SWAP1 SSTORE POP POP POP PUSH2 0x2D8 JUMP JUMPDEST PUSH0 DUP1 REVERT JUMPDEST PUSH0 DUP2 SWAP1 POP SWAP2 SWAP1 POP JUMP JUMPDEST PUSH2 0x21F DUP2 PUSH2 0x20D JUMP JUMPDEST DUP2 EQ PUSH2 0x229 JUMPI PUSH0 DUP1 REVERT JUMPDEST POP JUMP JUMPDEST PUSH0 DUP2 MLOAD SWAP1 POP PUSH2 0x23A DUP2 PUSH2 0x216 JUMP JUMPDEST SWAP3 SWAP2 POP POP JUMP JUMPDEST PUSH0 PUSH20 0xFFFFFFFFFFFFFFFFFFFFFFFFFFFFFFFFFFFFFFFF DUP3 AND SWAP1 POP SWAP2 SWAP1 POP JUMP JUMPDEST PUSH0 PUSH2 0x269 DUP3 PUSH2 0x240 JUMP JUMPDEST SWAP1 POP SWAP2 SWAP1 POP JUMP JUMPDEST PUSH2 0x279 DUP2 PUSH2 0x25F JUMP JUMPDEST DUP2 EQ PUSH2 0x283 JUMPI PUSH0 DUP1 REVERT JUMPDEST POP JUMP JUMPDEST PUSH0 DUP2 MLOAD SWAP1 POP PUSH2 0x294 DUP2 PUSH2 0x270 JUMP JUMPDEST SWAP3 SWAP2 POP POP JUMP JUMPDEST PUSH0 DUP1 PUSH1 0x40 DUP4 DUP6 SUB SLT ISZERO PUSH2 0x2B0 JUMPI PUSH2 0x2AF PUSH2 0x209 JUMP JUMPDEST JUMPDEST PUSH0 PUSH2 0x2BD DUP6 DUP3 DUP7 ADD PUSH2 0x22C JUMP JUMPDEST SWAP3 POP POP PUSH1 0x20 PUSH2 0x2CE DUP6 DUP3 DUP7 ADD PUSH2 0x286 JUMP JUMPDEST SWAP2 POP POP SWAP3 POP SWAP3 SWAP1 POP JUMP JUMPDEST PUSH2 0xA19 DUP1 PUSH2 0x2E5 PUSH0 CODECOPY PUSH0 RETURN INVALID PUSH1 0x80 PUSH1 0x40 MSTORE CALLVALUE DUP1 ISZERO PUSH2 0xF JUMPI PUSH0 DUP1 REVERT JUMPDEST POP PUSH1 0x4 CALLDATASIZE LT PUSH2 0x55 JUMPI PUSH0 CALLDATALOAD PUSH1 0xE0 SHR DUP1 PUSH4 0x3A98EF39 EQ PUSH2 0x59 JUMPI DUP1 PUSH4 0x5FE8E7CC EQ PUSH2 0x77 JUMPI DUP1 PUSH4 0x70A08231 EQ PUSH2 0x95 JUMPI DUP1 PUSH4 0x8DA5CB5B EQ PUSH2 0xC5 JUMPI DUP1 PUSH4 0x8FCB4E5B EQ PUSH2 0xE3 JUMPI JUMPDEST PUSH0 DUP1 REVERT JUMPDEST PUSH2 0x61 PUSH2 0xFF JUMP JUMPDEST PUSH1 0x40 MLOAD PUSH2 0x6E SWAP2 SWAP1 PUSH2 0x666 JUMP JUMPDEST PUSH1 0x40 MLOAD DUP1 SWAP2 SUB SWAP1 RETURN JUMPDEST PUSH2 0x7F PUSH2 0x105 JUMP JUMPDEST PUSH1 0x40 MLOAD PUSH2 0x8C SWAP2 SWAP1 PUSH2 0x7A2 JUMP JUMPDEST PUSH1 0x40 MLOAD DUP1 SWAP2 SUB SWAP1 RETURN JUMPDEST PUSH2 0xAF PUSH1 0x4 DUP1 CALLDATASIZE SUB DUP2 ADD SWAP1 PUSH2 0xAA SWAP2 SWAP1 PUSH2 0x7F0 JUMP JUMPDEST PUSH2 0x1BF JUMP JUMPDEST PUSH1 0x40 MLOAD PUSH2 0xBC SWAP2 SWAP1 PUSH2 0x666 JUMP JUMPDEST PUSH1 0x40 MLOAD DUP1 SWAP2 SUB SWAP1 RETURN JUMPDEST PUSH2 0xCD PUSH2 0x205 JUMP JUMPDEST PUSH1 0x40 MLOAD PUSH2 0xDA SWAP2 SWAP1 PUSH2 0x82A JUMP JUMPDEST PUSH1 0x40 MLOAD DUP1 SWAP2 SUB SWAP1 RETURN JUMPDEST PUSH2 0xFD PUSH1 0x4 DUP1 CALLDATASIZE SUB DUP2 ADD SWAP1 PUSH2 0xF8 SWAP2 SWAP1 PUSH2 0x86D JUMP JUMPDEST PUSH2 0x228 JUMP JUMPDEST STOP JUMPDEST PUSH1 0x4 SLOAD DUP2 JUMP JUMPDEST PUSH1 0x60 PUSH1 0x2 DUP1 SLOAD DUP1 PUSH1 0x20 MUL PUSH1 0x20 ADD PUSH1 0x40 MLOAD SWAP1 DUP2 ADD PUSH1 0x40 MSTORE DUP1 SWAP3 SWAP2 SWAP1 DUP2 DUP2 MSTORE PUSH1 0x20 ADD PUSH0 SWAP1 JUMPDEST DUP3 DUP3 LT ISZERO PUSH2 0x1B6 JUMPI DUP4 DUP3 SWAP1 PUSH0 MSTORE PUSH1 0x20 PUSH0 KECCAK256 SWAP1 PUSH1 0x2 MUL ADD PUSH1 0x40 MLOAD DUP1 PUSH1 0x40 ADD PUSH1 0x40 MSTORE SWAP1 DUP2 PUSH0 DUP3 ADD PUSH0 SWAP1 SLOAD SWAP1 PUSH2 0x100 EXP SWAP1 DIV PUSH20 0xFFFFFFFFFFFFFFFFFFFFFFFFFFFFFFFFFFFFFFFF AND PUSH20 0xFFFFFFFFFFFFFFFFFFFFFFFFFFFFFFFFFFFFFFFF AND PUSH20 0xFFFFFFFFFFFFFFFFFFFFFFFFFFFFFFFFFFFFFFFF AND DUP2 MSTORE PUSH1 0x20 ADD PUSH1 0x1 DUP3 ADD SLOAD DUP2 MSTORE POP POP DUP2 MSTORE PUSH1 0x20 ADD SWAP1 PUSH1 0x1 ADD SWAP1 PUSH2 0x128 JUMP JUMPDEST POP POP POP POP SWAP1 POP SWAP1 JUMP JUMPDEST PUSH0 PUSH1 0x1 PUSH0 DUP4 PUSH20 0xFFFFFFFFFFFFFFFFFFFFFFFFFFFFFFFFFFFFFFFF AND PUSH20 0xFFFFFFFFFFFFFFFFFFFFFFFFFFFFFFFFFFFFFFFF AND DUP2 MSTORE PUSH1 0x20 ADD SWAP1 DUP2 MSTORE PUSH1 0x20 ADD PUSH0 KECCAK256 SLOAD SWAP1 POP SWAP2 SWAP1 POP JUMP JUMPDEST PUSH0 DUP1 SLOAD SWAP1 PUSH2 0x100 EXP SWAP1 DIV PUSH20 0xFFFFFFFFFFFFFFFFFFFFFFFFFFFFFFFFFFFFFFFF AND DUP2 JUMP JUMPDEST DUP1 PUSH1 0x1 PUSH0 CALLER PUSH20 0xFFFFFFFFFFFFFFFFFFFFFFFFFFFFFFFFFFFFFFFF AND PUSH20 0xFFFFFFFFFFFFFFFFFFFFFFFFFFFFFFFFFFFFFFFF AND DUP2 MSTORE PUSH1 0x20 ADD SWAP1 DUP2 MSTORE PUSH1 0x20 ADD PUSH0 KECCAK256 SLOAD LT ISZERO PUSH2 0x2A8 JUMPI PUSH1 0x40 MLOAD PUSH32 0x8C379A000000000000000000000000000000000000000000000000000000000 DUP2 MSTORE PUSH1 0x4 ADD PUSH2 0x29F SWAP1 PUSH2 0x905 JUMP JUMPDEST PUSH1 0x40 MLOAD DUP1 SWAP2 SUB SWAP1 REVERT JUMPDEST PUSH0 PUSH1 0x3 PUSH0 DUP5 PUSH20 0xFFFFFFFFFFFFFFFFFFFFFFFFFFFFFFFFFFFFFFFF AND PUSH20 0xFFFFFFFFFFFFFFFFFFFFFFFFFFFFFFFFFFFFFFFF AND DUP2 MSTORE PUSH1 0x20 ADD SWAP1 DUP2 MSTORE PUSH1 0x20 ADD PUSH0 KECCAK256 SLOAD SUB PUSH2 0x3D7 JUMPI PUSH1 0x2 PUSH1 0x40 MLOAD DUP1 PUSH1 0x40 ADD PUSH1 0x40 MSTORE DUP1 DUP5 PUSH20 0xFFFFFFFFFFFFFFFFFFFFFFFFFFFFFFFFFFFFFFFF AND DUP2 MSTORE PUSH1 0x20 ADD PUSH0 DUP2 MSTORE POP SWAP1 DUP1 PUSH1 0x1 DUP2 SLOAD ADD DUP1 DUP3 SSTORE DUP1 SWAP2 POP POP PUSH1 0x1 SWAP1 SUB SWAP1 PUSH0 MSTORE PUSH1 0x20 PUSH0 KECCAK256 SWAP1 PUSH1 0x2 MUL ADD PUSH0 SWAP1 SWAP2 SWAP1 SWAP2 SWAP1 SWAP2 POP PUSH0 DUP3 ADD MLOAD DUP2 PUSH0 ADD PUSH0 PUSH2 0x100 EXP DUP2 SLOAD DUP2 PUSH20 0xFFFFFFFFFFFFFFFFFFFFFFFFFFFFFFFFFFFFFFFF MUL NOT AND SWAP1 DUP4 PUSH20 0xFFFFFFFFFFFFFFFFFFFFFFFFFFFFFFFFFFFFFFFF AND MUL OR SWAP1 SSTORE POP PUSH1 0x20 DUP3 ADD MLOAD DUP2 PUSH1 0x1 ADD SSTORE POP POP PUSH1 0x2 DUP1 SLOAD SWAP1 POP PUSH1 0x3 PUSH0 DUP5 PUSH20 0xFFFFFFFFFFFFFFFFFFFFFFFFFFFFFFFFFFFFFFFF AND PUSH20 0xFFFFFFFFFFFFFFFFFFFFFFFFFFFFFFFFFFFFFFFF AND DUP2 MSTORE PUSH1 0x20 ADD SWAP1 DUP2 MSTORE PUSH1 0x20 ADD PUSH0 KECCAK256 DUP2 SWAP1 SSTORE POP JUMPDEST DUP1 PUSH1 0x1 PUSH0 CALLER PUSH20 0xFFFFFFFFFFFFFFFFFFFFFFFFFFFFFFFFFFFFFFFF AND PUSH20 0xFFFFFFFFFFFFFFFFFFFFFFFFFFFFFFFFFFFFFFFF AND DUP2 MSTORE PUSH1 0x20 ADD SWAP1 DUP2 MSTORE PUSH1 0x20 ADD PUSH0 KECCAK256 PUSH0 DUP3 DUP3 SLOAD PUSH2 0x423 SWAP2 SWAP1 PUSH2 0x950 JUMP JUMPDEST SWAP3 POP POP DUP2 SWAP1 SSTORE POP DUP1 PUSH1 0x1 PUSH0 DUP5 PUSH20 0xFFFFFFFFFFFFFFFFFFFFFFFFFFFFFFFFFFFFFFFF AND PUSH20 0xFFFFFFFFFFFFFFFFFFFFFFFFFFFFFFFFFFFFFFFF AND DUP2 MSTORE PUSH1 0x20 ADD SWAP1 DUP2 MSTORE PUSH1 0x20 ADD PUSH0 KECCAK256 PUSH0 DUP3 DUP3 SLOAD PUSH2 0x476 SWAP2 SWAP1 PUSH2 0x983 JUMP JUMPDEST SWAP3 POP POP DUP2 SWAP1 SSTORE POP PUSH1 0x1 PUSH0 DUP4 PUSH20 0xFFFFFFFFFFFFFFFFFFFFFFFFFFFFFFFFFFFFFFFF AND PUSH20 0xFFFFFFFFFFFFFFFFFFFFFFFFFFFFFFFFFFFFFFFF AND DUP2 MSTORE PUSH1 0x20 ADD SWAP1 DUP2 MSTORE PUSH1 0x20 ADD PUSH0 KECCAK256 SLOAD PUSH1 0x2 PUSH1 0x1 PUSH1 0x3 PUSH0 DUP7 PUSH20 0xFFFFFFFFFFFFFFFFFFFFFFFFFFFFFFFFFFFFFFFF AND PUSH20 0xFFFFFFFFFFFFFFFFFFFFFFFFFFFFFFFFFFFFFFFF AND DUP2 MSTORE PUSH1 0x20 ADD SWAP1 DUP2 MSTORE PUSH1 0x20 ADD PUSH0 KECCAK256 SLOAD PUSH2 0x507 SWAP2 SWAP1 PUSH2 0x950 JUMP JUMPDEST DUP2 SLOAD DUP2 LT PUSH2 0x518 JUMPI PUSH2 0x517 PUSH2 0x9B6 JUMP JUMPDEST JUMPDEST SWAP1 PUSH0 MSTORE PUSH1 0x20 PUSH0 KECCAK256 SWAP1 PUSH1 0x2 MUL ADD PUSH1 0x1 ADD DUP2 SWAP1 SSTORE POP PUSH0 PUSH1 0x1 PUSH0 CALLER PUSH20 0xFFFFFFFFFFFFFFFFFFFFFFFFFFFFFFFFFFFFFFFF AND PUSH20 0xFFFFFFFFFFFFFFFFFFFFFFFFFFFFFFFFFFFFFFFF AND DUP2 MSTORE PUSH1 0x20 ADD SWAP1 DUP2 MSTORE PUSH1 0x20 ADD PUSH0 KECCAK256 SLOAD SUB PUSH2 0x64A JUMPI PUSH1 0x2 PUSH1 0x1 PUSH1 0x3 PUSH0 CALLER PUSH20 0xFFFFFFFFFFFFFFFFFFFFFFFFFFFFFFFFFFFFFFFF AND PUSH20 0xFFFFFFFFFFFFFFFFFFFFFFFFFFFFFFFFFFFFFFFF AND DUP2 MSTORE PUSH1 0x20 ADD SWAP1 DUP2 MSTORE PUSH1 0x20 ADD PUSH0 KECCAK256 SLOAD PUSH2 0x5BB SWAP2 SWAP1 PUSH2 0x950 JUMP JUMPDEST DUP2 SLOAD DUP2 LT PUSH2 0x5CC JUMPI PUSH2 0x5CB PUSH2 0x9B6 JUMP JUMPDEST JUMPDEST SWAP1 PUSH0 MSTORE PUSH1 0x20 PUSH0 KECCAK256 SWAP1 PUSH1 0x2 MUL ADD PUSH0 DUP1 DUP3 ADD PUSH0 PUSH2 0x100 EXP DUP2 SLOAD SWAP1 PUSH20 0xFFFFFFFFFFFFFFFFFFFFFFFFFFFFFFFFFFFFFFFF MUL NOT AND SWAP1 SSTORE PUSH1 0x1 DUP3 ADD PUSH0 SWAP1 SSTORE POP POP PUSH0 PUSH1 0x3 PUSH0 CALLER PUSH20 0xFFFFFFFFFFFFFFFFFFFFFFFFFFFFFFFFFFFFFFFF AND PUSH20 0xFFFFFFFFFFFFFFFFFFFFFFFFFFFFFFFFFFFFFFFF AND DUP2 MSTORE PUSH1 0x20 ADD SWAP1 DUP2 MSTORE PUSH1 0x20 ADD PUSH0 KECCAK256 DUP2 SWAP1 SSTORE POP JUMPDEST POP POP JUMP JUMPDEST PUSH0 DUP2 SWAP1 POP SWAP2 SWAP1 POP JUMP JUMPDEST PUSH2 0x660 DUP2 PUSH2 0x64E JUMP JUMPDEST DUP3 MSTORE POP POP JUMP JUMPDEST PUSH0 PUSH1 0x20 DUP3 ADD SWAP1 POP PUSH2 0x679 PUSH0 DUP4 ADD DUP5 PUSH2 0x657 JUMP JUMPDEST SWAP3 SWAP2 POP POP JUMP JUMPDEST PUSH0 DUP2 MLOAD SWAP1 POP SWAP2 SWAP1 POP JUMP JUMPDEST PUSH0 DUP3 DUP3 MSTORE PUSH1 0x20 DUP3 ADD SWAP1 POP SWAP3 SWAP2 POP POP JUMP JUMPDEST PUSH0 DUP2 SWAP1 POP PUSH1 0x20 DUP3 ADD SWAP1 POP SWAP2 SWAP1 POP JUMP JUMPDEST PUSH0 PUSH20 0xFFFFFFFFFFFFFFFFFFFFFFFFFFFFFFFFFFFFFFFF DUP3 AND SWAP1 POP SWAP2 SWAP1 POP JUMP JUMPDEST PUSH0 PUSH2 0x6D1 DUP3 PUSH2 0x6A8 JUMP JUMPDEST SWAP1 POP SWAP2 SWAP1 POP JUMP JUMPDEST PUSH2 0x6E1 DUP2 PUSH2 0x6C7 JUMP JUMPDEST DUP3 MSTORE POP POP JUMP JUMPDEST PUSH2 0x6F0 DUP2 PUSH2 0x64E JUMP JUMPDEST DUP3 MSTORE POP POP JUMP JUMPDEST PUSH1 0x40 DUP3 ADD PUSH0 DUP3 ADD MLOAD PUSH2 0x70A PUSH0 DUP6 ADD DUP3 PUSH2 0x6D8 JUMP JUMPDEST POP PUSH1 0x20 DUP3 ADD MLOAD PUSH2 0x71D PUSH1 0x20 DUP6 ADD DUP3 PUSH2 0x6E7 JUMP JUMPDEST POP POP POP POP JUMP JUMPDEST PUSH0 PUSH2 0x72E DUP4 DUP4 PUSH2 0x6F6 JUMP JUMPDEST PUSH1 0x40 DUP4 ADD SWAP1 POP SWAP3 SWAP2 POP POP JUMP JUMPDEST PUSH0 PUSH1 0x20 DUP3 ADD SWAP1 POP SWAP2 SWAP1 POP JUMP JUMPDEST PUSH0 PUSH2 0x750 DUP3 PUSH2 0x67F JUMP JUMPDEST PUSH2 0x75A DUP2 DUP6 PUSH2 0x689 JUMP JUMPDEST SWAP4 POP PUSH2 0x765 DUP4 PUSH2 0x699 JUMP JUMPDEST DUP1 PUSH0 JUMPDEST DUP4 DUP2 LT ISZERO PUSH2 0x795 JUMPI DUP2 MLOAD PUSH2 0x77C DUP9 DUP3 PUSH2 0x723 JUMP JUMPDEST SWAP8 POP PUSH2 0x787 DUP4 PUSH2 0x73A JUMP JUMPDEST SWAP3 POP POP PUSH1 0x1 DUP2 ADD SWAP1 POP PUSH2 0x768 JUMP JUMPDEST POP DUP6 SWAP4 POP POP POP POP SWAP3 SWAP2 POP POP JUMP JUMPDEST PUSH0 PUSH1 0x20 DUP3 ADD SWAP1 POP DUP2 DUP2 SUB PUSH0 DUP4 ADD MSTORE PUSH2 0x7BA DUP2 DUP5 PUSH2 0x746 JUMP JUMPDEST SWAP1 POP SWAP3 SWAP2 POP POP JUMP JUMPDEST PUSH0 DUP1 REVERT JUMPDEST PUSH2 0x7CF DUP2 PUSH2 0x6C7 JUMP JUMPDEST DUP2 EQ PUSH2 0x7D9 JUMPI PUSH0 DUP1 REVERT JUMPDEST POP JUMP JUMPDEST PUSH0 DUP2 CALLDATALOAD SWAP1 POP PUSH2 0x7EA DUP2 PUSH2 0x7C6 JUMP JUMPDEST SWAP3 SWAP2 POP POP JUMP JUMPDEST PUSH0 PUSH1 0x20 DUP3 DUP5 SUB SLT ISZERO PUSH2 0x805 JUMPI PUSH2 0x804 PUSH2 0x7C2 JUMP JUMPDEST JUMPDEST PUSH0 PUSH2 0x812 DUP5 DUP3 DUP6 ADD PUSH2 0x7DC JUMP JUMPDEST SWAP2 POP POP SWAP3 SWAP2 POP POP JUMP JUMPDEST PUSH2 0x824 DUP2 PUSH2 0x6C7 JUMP JUMPDEST DUP3 MSTORE POP POP JUMP JUMPDEST PUSH0 PUSH1 0x20 DUP3 ADD SWAP1 POP PUSH2 0x83D PUSH0 DUP4 ADD DUP5 PUSH2 0x81B JUMP JUMPDEST SWAP3 SWAP2 POP POP JUMP JUMPDEST PUSH2 0x84C DUP2 PUSH2 0x64E JUMP JUMPDEST DUP2 EQ PUSH2 0x856 JUMPI PUSH0 DUP1 REVERT JUMPDEST POP JUMP JUMPDEST PUSH0 DUP2 CALLDATALOAD SWAP1 POP PUSH2 0x867 DUP2 PUSH2 0x843 JUMP JUMPDEST SWAP3 SWAP2 POP POP JUMP JUMPDEST PUSH0 DUP1 PUSH1 0x40 DUP4 DUP6 SUB SLT ISZERO PUSH2 0x883 JUMPI PUSH2 0x882 PUSH2 0x7C2 JUMP JUMPDEST JUMPDEST PUSH0 PUSH2 0x890 DUP6 DUP3 DUP7 ADD PUSH2 0x7DC JUMP JUMPDEST SWAP3 POP POP PUSH1 0x20 PUSH2 0x8A1 DUP6 DUP3 DUP7 ADD PUSH2 0x859 JUMP JUMPDEST SWAP2 POP POP SWAP3 POP SWAP3 SWAP1 POP JUMP JUMPDEST PUSH0 DUP3 DUP3 MSTORE PUSH1 0x20 DUP3 ADD SWAP1 POP SWAP3 SWAP2 POP POP JUMP JUMPDEST PUSH32 0x496E73756666696369656E742073686172657300000000000000000000000000 PUSH0 DUP3 ADD MSTORE POP JUMP JUMPDEST PUSH0 PUSH2 0x8EF PUSH1 0x13 DUP4 PUSH2 0x8AB JUMP JUMPDEST SWAP2 POP PUSH2 0x8FA DUP3 PUSH2 0x8BB JUMP JUMPDEST PUSH1 0x20 DUP3 ADD SWAP1 POP SWAP2 SWAP1 POP JUMP JUMPDEST PUSH0 PUSH1 0x20 DUP3 ADD SWAP1 POP DUP2 DUP2 SUB PUSH0 DUP4 ADD MSTORE PUSH2 0x91C DUP2 PUSH2 0x8E3 JUMP JUMPDEST SWAP1 POP SWAP2 SWAP1 POP JUMP JUMPDEST PUSH32 0x4E487B7100000000000000000000000000000000000000000000000000000000 PUSH0 MSTORE PUSH1 0x11 PUSH1 0x4 MSTORE PUSH1 0x24 PUSH0 REVERT JUMPDEST PUSH0 PUSH2 0x95A DUP3 PUSH2 0x64E JUMP JUMPDEST SWAP2 POP PUSH2 0x965 DUP4 PUSH2 0x64E JUMP JUMPDEST SWAP3 POP DUP3 DUP3 SUB SWAP1 POP DUP2 DUP2 GT ISZERO PUSH2 0x97D JUMPI PUSH2 0x97C PUSH2 0x923 JUMP JUMPDEST JUMPDEST SWAP3 SWAP2 POP POP JUMP JUMPDEST PUSH0 PUSH2 0x98D DUP3 PUSH2 0x64E JUMP JUMPDEST SWAP2 POP PUSH2 0x998 DUP4 PUSH2 0x64E JUMP JUMPDEST SWAP3 POP DUP3 DUP3 ADD SWAP1 POP DUP1 DUP3 GT ISZERO PUSH2 0x9B0 JUMPI PUSH2 0x9AF PUSH2 0x923 JUMP JUMPDEST JUMPDEST SWAP3 SWAP2 POP POP JUMP JUMPDEST PUSH32 0x4E487B7100000000000000000000000000000000000000000000000000000000 PUSH0 MSTORE PUSH1 0x32 PUSH1 0x4 MSTORE PUSH1 0x24 PUSH0 REVERT INVALID LOG2 PUSH5 0x6970667358 0x22 SLT KECCAK256 0xD1 0xAD PUSH4 0x23B9DCC6 0xD5 PREVRANDAO 0x2F 0xCD 0xBD PUSH27 0x59657017B3EC7B704BB3D6ABBE8E5ED3C0033F64736F6C63430008 OR STOP CALLER "
				},
				"gasEstimates": {
					"creation": {
						"codeDepositCost": "517000",
						"executionCost": "infinite",
						"totalCost": "infinite"
					},
					"external": {
						"balanceOf(address)": "2851",
						"getHolders()": "infinite",
						"owner()": "2549",
						"totalShares()": "2403",
						"transferShares(address,uint256)": "infinite"
					}
				},
				"methodIdentifiers": {
					"balanceOf(address)": "70a08231",
					"getHolders()": "5fe8e7cc",
					"owner()": "8da5cb5b",
					"totalShares()": "3a98ef39",
					"transferShares(address,uint256)": "8fcb4e5b"
				}
			},
			"storageLayout": {
				"storage": [
					{
						"astId": 3,
						"contract": "contracts/AquoTransferTest11.sol:AssetContract",
						"label": "owner",
						"offset": 0,
						"slot": "0",
						"type": "t_address"
					},
					{
						"astId": 7,
						"contract": "contracts/AquoTransferTest11.sol:AssetContract",
						"label": "shareBalances",
						"offset": 0,
						"slot": "1",
						"type": "t_mapping(t_address,t_uint256)"
					},
					{
						"astId": 11,
						"contract": "contracts/AquoTransferTest11.sol:AssetContract",
						"label": "holders",
						"offset": 0,
						"slot": "2",
						"type": "t_array(t_struct(Holder)22_storage)dyn_storage"
					},
					{
						"astId": 15,
						"contract": "contracts/AquoTransferTest11.sol:AssetContract",
						"label": "holderIndex",
						"offset": 0,
						"slot": "3",
						"type": "t_mapping(t_address,t_uint256)"
					},
					{
						"astId": 17,
						"contract": "contracts/AquoTransferTest11.sol:AssetContract",
						"label": "totalShares",
						"offset": 0,
						"slot": "4",
						"type": "t_uint256"
					}
				],
				"types": {
					"t_address": {
						"encoding": "inplace",
						"label": "address",
						"numberOfBytes": "20"
					},
					"t_array(t_struct(Holder)22_storage)dyn_storage": {
						"base": "t_struct(Holder)22_storage",
						"encoding": "dynamic_array",
						"label": "struct AssetContract.Holder[]",
						"numberOfBytes": "32"
					},
					"t_mapping(t_address,t_uint256)": {
						"encoding": "mapping",
						"key": "t_address",
						"label": "mapping(address => uint256)",
						"numberOfBytes": "32",
						"value": "t_uint256"
					},
					"t_struct(Holder)22_storage": {
						"encoding": "inplace",
						"label": "struct AssetContract.Holder",
						"members": [
							{
								"astId": 19,
								"contract": "contracts/AquoTransferTest11.sol:AssetContract",
								"label": "addr",
								"offset": 0,
								"slot": "0",
								"type": "t_address"
							},
							{
								"astId": 21,
								"contract": "contracts/AquoTransferTest11.sol:AssetContract",
								"label": "balance",
								"offset": 0,
								"slot": "1",
								"type": "t_uint256"
							}
						],
						"numberOfBytes": "64"
					},
					"t_uint256": {
						"encoding": "inplace",
						"label": "uint256",
						"numberOfBytes": "32"
					}
				}
			},
			"userdoc": {
				"kind": "user",
				"methods": {},
				"version": 1
			}
		}
	}
}