{
	"contracts/AquoIntManager.sol": {
		"MultiAssetManager": {
			"abi": [
				{
					"anonymous": false,
					"inputs": [
						{
							"indexed": true,
							"internalType": "address",
							"name": "previousOwner",
							"type": "address"
						},
						{
							"indexed": true,
							"internalType": "address",
							"name": "newOwner",
							"type": "address"
						}
					],
					"name": "OwnershipTransferred",
					"type": "event"
				},
				{
					"anonymous": false,
					"inputs": [
						{
							"indexed": true,
							"internalType": "uint256",
							"name": "assetId",
							"type": "uint256"
						},
						{
							"indexed": true,
							"internalType": "address",
							"name": "from",
							"type": "address"
						},
						{
							"indexed": true,
							"internalType": "address",
							"name": "to",
							"type": "address"
						},
						{
							"indexed": false,
							"internalType": "uint256",
							"name": "amount",
							"type": "uint256"
						}
					],
					"name": "TransferShares",
					"type": "event"
				},
				{
					"inputs": [
						{
							"internalType": "string",
							"name": "ipfsAddress",
							"type": "string"
						},
						{
							"internalType": "uint256",
							"name": "initialShares",
							"type": "uint256"
						}
					],
					"name": "addAsset",
					"outputs": [
						{
							"internalType": "uint256",
							"name": "",
							"type": "uint256"
						}
					],
					"stateMutability": "nonpayable",
					"type": "function"
				},
				{
					"inputs": [
						{
							"internalType": "uint256",
							"name": "",
							"type": "uint256"
						}
					],
					"name": "assets",
					"outputs": [
						{
							"internalType": "string",
							"name": "ipfsAddress",
							"type": "string"
						},
						{
							"internalType": "uint256",
							"name": "totalShares",
							"type": "uint256"
						}
					],
					"stateMutability": "view",
					"type": "function"
				},
				{
					"inputs": [
						{
							"internalType": "uint256",
							"name": "assetId",
							"type": "uint256"
						},
						{
							"internalType": "address",
							"name": "user",
							"type": "address"
						}
					],
					"name": "balanceOf",
					"outputs": [
						{
							"internalType": "uint256",
							"name": "",
							"type": "uint256"
						}
					],
					"stateMutability": "view",
					"type": "function"
				},
				{
					"inputs": [],
					"name": "owner",
					"outputs": [
						{
							"internalType": "address",
							"name": "",
							"type": "address"
						}
					],
					"stateMutability": "view",
					"type": "function"
				},
				{
					"inputs": [],
					"name": "renounceOwnership",
					"outputs": [],
					"stateMutability": "nonpayable",
					"type": "function"
				},
				{
					"inputs": [
						{
							"internalType": "address",
							"name": "newOwner",
							"type": "address"
						}
					],
					"name": "transferOwnership",
					"outputs": [],
					"stateMutability": "nonpayable",
					"type": "function"
				},
				{
					"inputs": [
						{
							"internalType": "uint256",
							"name": "assetId",
							"type": "uint256"
						},
						{
							"internalType": "address",
							"name": "to",
							"type": "address"
						},
						{
							"internalType": "uint256",
							"name": "amount",
							"type": "uint256"
						}
					],
					"name": "transferShares",
					"outputs": [],
					"stateMutability": "nonpayable",
					"type": "function"
				}
			],
			"devdoc": {
				"kind": "dev",
				"methods": {
					"owner()": {
						"details": "Returns the address of the current owner."
					},
					"renounceOwnership()": {
						"details": "Leaves the contract without owner. It will not be possible to call `onlyOwner` functions anymore. Can only be called by the current owner. NOTE: Renouncing ownership will leave the contract without an owner, thereby removing any functionality that is only available to the owner."
					},
					"transferOwnership(address)": {
						"details": "Transfers ownership of the contract to a new account (`newOwner`). Can only be called by the current owner."
					}
				},
				"version": 1
			},
			"evm": {
				"assembly": "    /* \"contracts/AquoIntManager.sol\":117:1583  contract MultiAssetManager is Ownable {... */\n  mstore(0x40, 0x80)\n    /* \"contracts/AquoIntManager.sol\":334:335  1 */\n  0x01\n    /* \"contracts/AquoIntManager.sol\":304:335  uint256 private nextAssetId = 1 */\n  dup1\n  sstore\n    /* \"contracts/AquoIntManager.sol\":117:1583  contract MultiAssetManager is Ownable {... */\n  callvalue\n  dup1\n  iszero\n  tag_1\n  jumpi\n  0x00\n  dup1\n  revert\ntag_1:\n  pop\n    /* \"@openzeppelin/contracts/access/Ownable.sol\":936:968  _transferOwnership(_msgSender()) */\n  tag_4\n    /* \"@openzeppelin/contracts/access/Ownable.sol\":955:967  _msgSender() */\n  tag_5\n    /* \"@openzeppelin/contracts/access/Ownable.sol\":955:965  _msgSender */\n  shl(0x20, tag_6)\n    /* \"@openzeppelin/contracts/access/Ownable.sol\":955:967  _msgSender() */\n  0x20\n  shr\n  jump\t// in\ntag_5:\n    /* \"@openzeppelin/contracts/access/Ownable.sol\":936:954  _transferOwnership */\n  shl(0x20, tag_7)\n    /* \"@openzeppelin/contracts/access/Ownable.sol\":936:968  _transferOwnership(_msgSender()) */\n  0x20\n  shr\n  jump\t// in\ntag_4:\n    /* \"contracts/AquoIntManager.sol\":117:1583  contract MultiAssetManager is Ownable {... */\n  jump(tag_8)\n    /* \"@openzeppelin/contracts/utils/Context.sol\":640:736  function _msgSender() internal view virtual returns (address) {... */\ntag_6:\n    /* \"@openzeppelin/contracts/utils/Context.sol\":693:700  address */\n  0x00\n    /* \"@openzeppelin/contracts/utils/Context.sol\":719:729  msg.sender */\n  caller\n    /* \"@openzeppelin/contracts/utils/Context.sol\":712:729  return msg.sender */\n  swap1\n  pop\n    /* \"@openzeppelin/contracts/utils/Context.sol\":640:736  function _msgSender() internal view virtual returns (address) {... */\n  swap1\n  jump\t// out\n    /* \"@openzeppelin/contracts/access/Ownable.sol\":2433:2620  function _transferOwnership(address newOwner) internal virtual {... */\ntag_7:\n    /* \"@openzeppelin/contracts/access/Ownable.sol\":2506:2522  address oldOwner */\n  0x00\n    /* \"@openzeppelin/contracts/access/Ownable.sol\":2525:2531  _owner */\n  dup1\n  0x00\n  swap1\n  sload\n  swap1\n  0x0100\n  exp\n  swap1\n  div\n  0xffffffffffffffffffffffffffffffffffffffff\n  and\n    /* \"@openzeppelin/contracts/access/Ownable.sol\":2506:2531  address oldOwner = _owner */\n  swap1\n  pop\n    /* \"@openzeppelin/contracts/access/Ownable.sol\":2550:2558  newOwner */\n  dup2\n    /* \"@openzeppelin/contracts/access/Ownable.sol\":2541:2547  _owner */\n  0x00\n  dup1\n    /* \"@openzeppelin/contracts/access/Ownable.sol\":2541:2558  _owner = newOwner */\n  0x0100\n  exp\n  dup2\n  sload\n  dup2\n  0xffffffffffffffffffffffffffffffffffffffff\n  mul\n  not\n  and\n  swap1\n  dup4\n  0xffffffffffffffffffffffffffffffffffffffff\n  and\n  mul\n  or\n  swap1\n  sstore\n  pop\n    /* \"@openzeppelin/contracts/access/Ownable.sol\":2604:2612  newOwner */\n  dup2\n    /* \"@openzeppelin/contracts/access/Ownable.sol\":2573:2613  OwnershipTransferred(oldOwner, newOwner) */\n  0xffffffffffffffffffffffffffffffffffffffff\n  and\n    /* \"@openzeppelin/contracts/access/Ownable.sol\":2594:2602  oldOwner */\n  dup2\n    /* \"@openzeppelin/contracts/access/Ownable.sol\":2573:2613  OwnershipTransferred(oldOwner, newOwner) */\n  0xffffffffffffffffffffffffffffffffffffffff\n  and\n  0x8be0079c531659141344cd1fd0a4f28419497f9722a3daafe3b4186f6b6457e0\n  mload(0x40)\n  mload(0x40)\n  dup1\n  swap2\n  sub\n  swap1\n  log3\n    /* \"@openzeppelin/contracts/access/Ownable.sol\":2496:2620  {... */\n  pop\n    /* \"@openzeppelin/contracts/access/Ownable.sol\":2433:2620  function _transferOwnership(address newOwner) internal virtual {... */\n  pop\n  jump\t// out\n    /* \"contracts/AquoIntManager.sol\":117:1583  contract MultiAssetManager is Ownable {... */\ntag_8:\n  dataSize(sub_0)\n  dup1\n  dataOffset(sub_0)\n  0x00\n  codecopy\n  0x00\n  return\nstop\n\nsub_0: assembly {\n        /* \"contracts/AquoIntManager.sol\":117:1583  contract MultiAssetManager is Ownable {... */\n      mstore(0x40, 0x80)\n      callvalue\n      dup1\n      iszero\n      tag_1\n      jumpi\n      0x00\n      dup1\n      revert\n    tag_1:\n      pop\n      jumpi(tag_2, lt(calldatasize, 0x04))\n      shr(0xe0, calldataload(0x00))\n      dup1\n      0x84b9a6e6\n      gt\n      tag_10\n      jumpi\n      dup1\n      0x84b9a6e6\n      eq\n      tag_6\n      jumpi\n      dup1\n      0x8da5cb5b\n      eq\n      tag_7\n      jumpi\n      dup1\n      0xcf35bdd0\n      eq\n      tag_8\n      jumpi\n      dup1\n      0xf2fde38b\n      eq\n      tag_9\n      jumpi\n      jump(tag_2)\n    tag_10:\n      dup1\n      0x1bc7ffe9\n      eq\n      tag_3\n      jumpi\n      dup1\n      0x3656eec2\n      eq\n      tag_4\n      jumpi\n      dup1\n      0x715018a6\n      eq\n      tag_5\n      jumpi\n    tag_2:\n      0x00\n      dup1\n      revert\n        /* \"contracts/AquoIntManager.sol\":463:819  function addAsset(string memory ipfsAddress, uint256 initialShares) public onlyOwner returns (uint256) {... */\n    tag_3:\n      tag_11\n      0x04\n      dup1\n      calldatasize\n      sub\n      dup2\n      add\n      swap1\n      tag_12\n      swap2\n      swap1\n      tag_13\n      jump\t// in\n    tag_12:\n      tag_14\n      jump\t// in\n    tag_11:\n      mload(0x40)\n      tag_15\n      swap2\n      swap1\n      tag_16\n      jump\t// in\n    tag_15:\n      mload(0x40)\n      dup1\n      swap2\n      sub\n      swap1\n      return\n        /* \"contracts/AquoIntManager.sol\":895:1036  function balanceOf(uint256 assetId, address user) public view returns (uint256) {... */\n    tag_4:\n      tag_17\n      0x04\n      dup1\n      calldatasize\n      sub\n      dup2\n      add\n      swap1\n      tag_18\n      swap2\n      swap1\n      tag_19\n      jump\t// in\n    tag_18:\n      tag_20\n      jump\t// in\n    tag_17:\n      mload(0x40)\n      tag_21\n      swap2\n      swap1\n      tag_16\n      jump\t// in\n    tag_21:\n      mload(0x40)\n      dup1\n      swap2\n      sub\n      swap1\n      return\n        /* \"@openzeppelin/contracts/access/Ownable.sol\":1831:1932  function renounceOwnership() public virtual onlyOwner {... */\n    tag_5:\n      tag_22\n      tag_23\n      jump\t// in\n    tag_22:\n      stop\n        /* \"contracts/AquoIntManager.sol\":1107:1468  function transferShares(uint256 assetId, address to, uint256 amount) public {... */\n    tag_6:\n      tag_24\n      0x04\n      dup1\n      calldatasize\n      sub\n      dup2\n      add\n      swap1\n      tag_25\n      swap2\n      swap1\n      tag_26\n      jump\t// in\n    tag_25:\n      tag_27\n      jump\t// in\n    tag_24:\n      stop\n        /* \"@openzeppelin/contracts/access/Ownable.sol\":1201:1286  function owner() public view virtual returns (address) {... */\n    tag_7:\n      tag_28\n      tag_29\n      jump\t// in\n    tag_28:\n      mload(0x40)\n      tag_30\n      swap2\n      swap1\n      tag_31\n      jump\t// in\n    tag_30:\n      mload(0x40)\n      dup1\n      swap2\n      sub\n      swap1\n      return\n        /* \"contracts/AquoIntManager.sol\":342:381  mapping(uint256 => Asset) public assets */\n    tag_8:\n      tag_32\n      0x04\n      dup1\n      calldatasize\n      sub\n      dup2\n      add\n      swap1\n      tag_33\n      swap2\n      swap1\n      tag_34\n      jump\t// in\n    tag_33:\n      tag_35\n      jump\t// in\n    tag_32:\n      mload(0x40)\n      tag_36\n      swap3\n      swap2\n      swap1\n      tag_37\n      jump\t// in\n    tag_36:\n      mload(0x40)\n      dup1\n      swap2\n      sub\n      swap1\n      return\n        /* \"@openzeppelin/contracts/access/Ownable.sol\":2081:2279  function transferOwnership(address newOwner) public virtual onlyOwner {... */\n    tag_9:\n      tag_38\n      0x04\n      dup1\n      calldatasize\n      sub\n      dup2\n      add\n      swap1\n      tag_39\n      swap2\n      swap1\n      tag_40\n      jump\t// in\n    tag_39:\n      tag_41\n      jump\t// in\n    tag_38:\n      stop\n        /* \"contracts/AquoIntManager.sol\":463:819  function addAsset(string memory ipfsAddress, uint256 initialShares) public onlyOwner returns (uint256) {... */\n    tag_14:\n        /* \"contracts/AquoIntManager.sol\":557:564  uint256 */\n      0x00\n        /* \"@openzeppelin/contracts/access/Ownable.sol\":1094:1107  _checkOwner() */\n      tag_43\n        /* \"@openzeppelin/contracts/access/Ownable.sol\":1094:1105  _checkOwner */\n      tag_44\n        /* \"@openzeppelin/contracts/access/Ownable.sol\":1094:1107  _checkOwner() */\n      jump\t// in\n    tag_43:\n        /* \"contracts/AquoIntManager.sol\":577:592  uint256 assetId */\n      0x00\n        /* \"contracts/AquoIntManager.sol\":595:606  nextAssetId */\n      0x01\n      0x00\n        /* \"contracts/AquoIntManager.sol\":595:608  nextAssetId++ */\n      dup2\n      sload\n      dup1\n      swap3\n      swap2\n      swap1\n      tag_46\n      swap1\n      tag_47\n      jump\t// in\n    tag_46:\n      swap2\n      swap1\n      pop\n      sstore\n        /* \"contracts/AquoIntManager.sol\":577:608  uint256 assetId = nextAssetId++ */\n      swap1\n      pop\n        /* \"contracts/AquoIntManager.sol\":651:662  ipfsAddress */\n      dup4\n        /* \"contracts/AquoIntManager.sol\":621:627  assets */\n      0x02\n        /* \"contracts/AquoIntManager.sol\":621:636  assets[assetId] */\n      0x00\n        /* \"contracts/AquoIntManager.sol\":628:635  assetId */\n      dup4\n        /* \"contracts/AquoIntManager.sol\":621:636  assets[assetId] */\n      dup2\n      mstore\n      0x20\n      add\n      swap1\n      dup2\n      mstore\n      0x20\n      add\n      0x00\n      keccak256\n        /* \"contracts/AquoIntManager.sol\":621:648  assets[assetId].ipfsAddress */\n      0x00\n      add\n        /* \"contracts/AquoIntManager.sol\":621:662  assets[assetId].ipfsAddress = ipfsAddress */\n      swap1\n      dup2\n      tag_48\n      swap2\n      swap1\n      tag_49\n      jump\t// in\n    tag_48:\n      pop\n        /* \"contracts/AquoIntManager.sol\":717:730  initialShares */\n      dup3\n        /* \"contracts/AquoIntManager.sol\":673:679  assets */\n      0x02\n        /* \"contracts/AquoIntManager.sol\":673:688  assets[assetId] */\n      0x00\n        /* \"contracts/AquoIntManager.sol\":680:687  assetId */\n      dup4\n        /* \"contracts/AquoIntManager.sol\":673:688  assets[assetId] */\n      dup2\n      mstore\n      0x20\n      add\n      swap1\n      dup2\n      mstore\n      0x20\n      add\n      0x00\n      keccak256\n        /* \"contracts/AquoIntManager.sol\":673:702  assets[assetId].shareBalances */\n      0x01\n      add\n        /* \"contracts/AquoIntManager.sol\":673:714  assets[assetId].shareBalances[msg.sender] */\n      0x00\n        /* \"contracts/AquoIntManager.sol\":703:713  msg.sender */\n      caller\n        /* \"contracts/AquoIntManager.sol\":673:714  assets[assetId].shareBalances[msg.sender] */\n      0xffffffffffffffffffffffffffffffffffffffff\n      and\n      0xffffffffffffffffffffffffffffffffffffffff\n      and\n      dup2\n      mstore\n      0x20\n      add\n      swap1\n      dup2\n      mstore\n      0x20\n      add\n      0x00\n      keccak256\n        /* \"contracts/AquoIntManager.sol\":673:730  assets[assetId].shareBalances[msg.sender] = initialShares */\n      dup2\n      swap1\n      sstore\n      pop\n        /* \"contracts/AquoIntManager.sol\":771:784  initialShares */\n      dup3\n        /* \"contracts/AquoIntManager.sol\":741:747  assets */\n      0x02\n        /* \"contracts/AquoIntManager.sol\":741:756  assets[assetId] */\n      0x00\n        /* \"contracts/AquoIntManager.sol\":748:755  assetId */\n      dup4\n        /* \"contracts/AquoIntManager.sol\":741:756  assets[assetId] */\n      dup2\n      mstore\n      0x20\n      add\n      swap1\n      dup2\n      mstore\n      0x20\n      add\n      0x00\n      keccak256\n        /* \"contracts/AquoIntManager.sol\":741:768  assets[assetId].totalShares */\n      0x02\n      add\n        /* \"contracts/AquoIntManager.sol\":741:784  assets[assetId].totalShares = initialShares */\n      dup2\n      swap1\n      sstore\n      pop\n        /* \"contracts/AquoIntManager.sol\":804:811  assetId */\n      dup1\n        /* \"contracts/AquoIntManager.sol\":797:811  return assetId */\n      swap2\n      pop\n      pop\n        /* \"contracts/AquoIntManager.sol\":463:819  function addAsset(string memory ipfsAddress, uint256 initialShares) public onlyOwner returns (uint256) {... */\n      swap3\n      swap2\n      pop\n      pop\n      jump\t// out\n        /* \"contracts/AquoIntManager.sol\":895:1036  function balanceOf(uint256 assetId, address user) public view returns (uint256) {... */\n    tag_20:\n        /* \"contracts/AquoIntManager.sol\":966:973  uint256 */\n      0x00\n        /* \"contracts/AquoIntManager.sol\":993:999  assets */\n      0x02\n        /* \"contracts/AquoIntManager.sol\":993:1008  assets[assetId] */\n      0x00\n        /* \"contracts/AquoIntManager.sol\":1000:1007  assetId */\n      dup5\n        /* \"contracts/AquoIntManager.sol\":993:1008  assets[assetId] */\n      dup2\n      mstore\n      0x20\n      add\n      swap1\n      dup2\n      mstore\n      0x20\n      add\n      0x00\n      keccak256\n        /* \"contracts/AquoIntManager.sol\":993:1022  assets[assetId].shareBalances */\n      0x01\n      add\n        /* \"contracts/AquoIntManager.sol\":993:1028  assets[assetId].shareBalances[user] */\n      0x00\n        /* \"contracts/AquoIntManager.sol\":1023:1027  user */\n      dup4\n        /* \"contracts/AquoIntManager.sol\":993:1028  assets[assetId].shareBalances[user] */\n      0xffffffffffffffffffffffffffffffffffffffff\n      and\n      0xffffffffffffffffffffffffffffffffffffffff\n      and\n      dup2\n      mstore\n      0x20\n      add\n      swap1\n      dup2\n      mstore\n      0x20\n      add\n      0x00\n      keccak256\n      sload\n        /* \"contracts/AquoIntManager.sol\":986:1028  return assets[assetId].shareBalances[user] */\n      swap1\n      pop\n        /* \"contracts/AquoIntManager.sol\":895:1036  function balanceOf(uint256 assetId, address user) public view returns (uint256) {... */\n      swap3\n      swap2\n      pop\n      pop\n      jump\t// out\n        /* \"@openzeppelin/contracts/access/Ownable.sol\":1831:1932  function renounceOwnership() public virtual onlyOwner {... */\n    tag_23:\n        /* \"@openzeppelin/contracts/access/Ownable.sol\":1094:1107  _checkOwner() */\n      tag_52\n        /* \"@openzeppelin/contracts/access/Ownable.sol\":1094:1105  _checkOwner */\n      tag_44\n        /* \"@openzeppelin/contracts/access/Ownable.sol\":1094:1107  _checkOwner() */\n      jump\t// in\n    tag_52:\n        /* \"@openzeppelin/contracts/access/Ownable.sol\":1895:1925  _transferOwnership(address(0)) */\n      tag_54\n        /* \"@openzeppelin/contracts/access/Ownable.sol\":1922:1923  0 */\n      0x00\n        /* \"@openzeppelin/contracts/access/Ownable.sol\":1895:1913  _transferOwnership */\n      tag_55\n        /* \"@openzeppelin/contracts/access/Ownable.sol\":1895:1925  _transferOwnership(address(0)) */\n      jump\t// in\n    tag_54:\n        /* \"@openzeppelin/contracts/access/Ownable.sol\":1831:1932  function renounceOwnership() public virtual onlyOwner {... */\n      jump\t// out\n        /* \"contracts/AquoIntManager.sol\":1107:1468  function transferShares(uint256 assetId, address to, uint256 amount) public {... */\n    tag_27:\n        /* \"contracts/AquoIntManager.sol\":1247:1253  amount */\n      dup1\n        /* \"contracts/AquoIntManager.sol\":1202:1208  assets */\n      0x02\n        /* \"contracts/AquoIntManager.sol\":1202:1217  assets[assetId] */\n      0x00\n        /* \"contracts/AquoIntManager.sol\":1209:1216  assetId */\n      dup6\n        /* \"contracts/AquoIntManager.sol\":1202:1217  assets[assetId] */\n      dup2\n      mstore\n      0x20\n      add\n      swap1\n      dup2\n      mstore\n      0x20\n      add\n      0x00\n      keccak256\n        /* \"contracts/AquoIntManager.sol\":1202:1231  assets[assetId].shareBalances */\n      0x01\n      add\n        /* \"contracts/AquoIntManager.sol\":1202:1243  assets[assetId].shareBalances[msg.sender] */\n      0x00\n        /* \"contracts/AquoIntManager.sol\":1232:1242  msg.sender */\n      caller\n        /* \"contracts/AquoIntManager.sol\":1202:1243  assets[assetId].shareBalances[msg.sender] */\n      0xffffffffffffffffffffffffffffffffffffffff\n      and\n      0xffffffffffffffffffffffffffffffffffffffff\n      and\n      dup2\n      mstore\n      0x20\n      add\n      swap1\n      dup2\n      mstore\n      0x20\n      add\n      0x00\n      keccak256\n      sload\n        /* \"contracts/AquoIntManager.sol\":1202:1253  assets[assetId].shareBalances[msg.sender] >= amount */\n      lt\n      iszero\n        /* \"contracts/AquoIntManager.sol\":1194:1277  require(assets[assetId].shareBalances[msg.sender] >= amount, \"Insufficient shares\") */\n      tag_57\n      jumpi\n      mload(0x40)\n      0x08c379a000000000000000000000000000000000000000000000000000000000\n      dup2\n      mstore\n      0x04\n      add\n      tag_58\n      swap1\n      tag_59\n      jump\t// in\n    tag_58:\n      mload(0x40)\n      dup1\n      swap2\n      sub\n      swap1\n      revert\n    tag_57:\n        /* \"contracts/AquoIntManager.sol\":1335:1341  amount */\n      dup1\n        /* \"contracts/AquoIntManager.sol\":1290:1296  assets */\n      0x02\n        /* \"contracts/AquoIntManager.sol\":1290:1305  assets[assetId] */\n      0x00\n        /* \"contracts/AquoIntManager.sol\":1297:1304  assetId */\n      dup6\n        /* \"contracts/AquoIntManager.sol\":1290:1305  assets[assetId] */\n      dup2\n      mstore\n      0x20\n      add\n      swap1\n      dup2\n      mstore\n      0x20\n      add\n      0x00\n      keccak256\n        /* \"contracts/AquoIntManager.sol\":1290:1319  assets[assetId].shareBalances */\n      0x01\n      add\n        /* \"contracts/AquoIntManager.sol\":1290:1331  assets[assetId].shareBalances[msg.sender] */\n      0x00\n        /* \"contracts/AquoIntManager.sol\":1320:1330  msg.sender */\n      caller\n        /* \"contracts/AquoIntManager.sol\":1290:1331  assets[assetId].shareBalances[msg.sender] */\n      0xffffffffffffffffffffffffffffffffffffffff\n      and\n      0xffffffffffffffffffffffffffffffffffffffff\n      and\n      dup2\n      mstore\n      0x20\n      add\n      swap1\n      dup2\n      mstore\n      0x20\n      add\n      0x00\n      keccak256\n      0x00\n        /* \"contracts/AquoIntManager.sol\":1290:1341  assets[assetId].shareBalances[msg.sender] -= amount */\n      dup3\n      dup3\n      sload\n      tag_60\n      swap2\n      swap1\n      tag_61\n      jump\t// in\n    tag_60:\n      swap3\n      pop\n      pop\n      dup2\n      swap1\n      sstore\n      pop\n        /* \"contracts/AquoIntManager.sol\":1389:1395  amount */\n      dup1\n        /* \"contracts/AquoIntManager.sol\":1352:1358  assets */\n      0x02\n        /* \"contracts/AquoIntManager.sol\":1352:1367  assets[assetId] */\n      0x00\n        /* \"contracts/AquoIntManager.sol\":1359:1366  assetId */\n      dup6\n        /* \"contracts/AquoIntManager.sol\":1352:1367  assets[assetId] */\n      dup2\n      mstore\n      0x20\n      add\n      swap1\n      dup2\n      mstore\n      0x20\n      add\n      0x00\n      keccak256\n        /* \"contracts/AquoIntManager.sol\":1352:1381  assets[assetId].shareBalances */\n      0x01\n      add\n        /* \"contracts/AquoIntManager.sol\":1352:1385  assets[assetId].shareBalances[to] */\n      0x00\n        /* \"contracts/AquoIntManager.sol\":1382:1384  to */\n      dup5\n        /* \"contracts/AquoIntManager.sol\":1352:1385  assets[assetId].shareBalances[to] */\n      0xffffffffffffffffffffffffffffffffffffffff\n      and\n      0xffffffffffffffffffffffffffffffffffffffff\n      and\n      dup2\n      mstore\n      0x20\n      add\n      swap1\n      dup2\n      mstore\n      0x20\n      add\n      0x00\n      keccak256\n      0x00\n        /* \"contracts/AquoIntManager.sol\":1352:1395  assets[assetId].shareBalances[to] += amount */\n      dup3\n      dup3\n      sload\n      tag_62\n      swap2\n      swap1\n      tag_63\n      jump\t// in\n    tag_62:\n      swap3\n      pop\n      pop\n      dup2\n      swap1\n      sstore\n      pop\n        /* \"contracts/AquoIntManager.sol\":1449:1451  to */\n      dup2\n        /* \"contracts/AquoIntManager.sol\":1413:1460  TransferShares(assetId, msg.sender, to, amount) */\n      0xffffffffffffffffffffffffffffffffffffffff\n      and\n        /* \"contracts/AquoIntManager.sol\":1437:1447  msg.sender */\n      caller\n        /* \"contracts/AquoIntManager.sol\":1413:1460  TransferShares(assetId, msg.sender, to, amount) */\n      0xffffffffffffffffffffffffffffffffffffffff\n      and\n        /* \"contracts/AquoIntManager.sol\":1428:1435  assetId */\n      dup5\n        /* \"contracts/AquoIntManager.sol\":1413:1460  TransferShares(assetId, msg.sender, to, amount) */\n      0x0d93b0e8579bc9db73c85a1fb79d785ffc47f8e20d346253f809cc98c48292a0\n        /* \"contracts/AquoIntManager.sol\":1453:1459  amount */\n      dup5\n        /* \"contracts/AquoIntManager.sol\":1413:1460  TransferShares(assetId, msg.sender, to, amount) */\n      mload(0x40)\n      tag_64\n      swap2\n      swap1\n      tag_16\n      jump\t// in\n    tag_64:\n      mload(0x40)\n      dup1\n      swap2\n      sub\n      swap1\n      log4\n        /* \"contracts/AquoIntManager.sol\":1107:1468  function transferShares(uint256 assetId, address to, uint256 amount) public {... */\n      pop\n      pop\n      pop\n      jump\t// out\n        /* \"@openzeppelin/contracts/access/Ownable.sol\":1201:1286  function owner() public view virtual returns (address) {... */\n    tag_29:\n        /* \"@openzeppelin/contracts/access/Ownable.sol\":1247:1254  address */\n      0x00\n        /* \"@openzeppelin/contracts/access/Ownable.sol\":1273:1279  _owner */\n      dup1\n      0x00\n      swap1\n      sload\n      swap1\n      0x0100\n      exp\n      swap1\n      div\n      0xffffffffffffffffffffffffffffffffffffffff\n      and\n        /* \"@openzeppelin/contracts/access/Ownable.sol\":1266:1279  return _owner */\n      swap1\n      pop\n        /* \"@openzeppelin/contracts/access/Ownable.sol\":1201:1286  function owner() public view virtual returns (address) {... */\n      swap1\n      jump\t// out\n        /* \"contracts/AquoIntManager.sol\":342:381  mapping(uint256 => Asset) public assets */\n    tag_35:\n      mstore(0x20, 0x02)\n      dup1\n      0x00\n      mstore\n      keccak256(0x00, 0x40)\n      0x00\n      swap2\n      pop\n      swap1\n      pop\n      dup1\n      0x00\n      add\n      dup1\n      sload\n      tag_66\n      swap1\n      tag_67\n      jump\t// in\n    tag_66:\n      dup1\n      0x1f\n      add\n      0x20\n      dup1\n      swap2\n      div\n      mul\n      0x20\n      add\n      mload(0x40)\n      swap1\n      dup2\n      add\n      0x40\n      mstore\n      dup1\n      swap3\n      swap2\n      swap1\n      dup2\n      dup2\n      mstore\n      0x20\n      add\n      dup3\n      dup1\n      sload\n      tag_68\n      swap1\n      tag_67\n      jump\t// in\n    tag_68:\n      dup1\n      iszero\n      tag_69\n      jumpi\n      dup1\n      0x1f\n      lt\n      tag_70\n      jumpi\n      0x0100\n      dup1\n      dup4\n      sload\n      div\n      mul\n      dup4\n      mstore\n      swap2\n      0x20\n      add\n      swap2\n      jump(tag_69)\n    tag_70:\n      dup3\n      add\n      swap2\n      swap1\n      0x00\n      mstore\n      keccak256(0x00, 0x20)\n      swap1\n    tag_71:\n      dup2\n      sload\n      dup2\n      mstore\n      swap1\n      0x01\n      add\n      swap1\n      0x20\n      add\n      dup1\n      dup4\n      gt\n      tag_71\n      jumpi\n      dup3\n      swap1\n      sub\n      0x1f\n      and\n      dup3\n      add\n      swap2\n    tag_69:\n      pop\n      pop\n      pop\n      pop\n      pop\n      swap1\n      dup1\n      0x02\n      add\n      sload\n      swap1\n      pop\n      dup3\n      jump\t// out\n        /* \"@openzeppelin/contracts/access/Ownable.sol\":2081:2279  function transferOwnership(address newOwner) public virtual onlyOwner {... */\n    tag_41:\n        /* \"@openzeppelin/contracts/access/Ownable.sol\":1094:1107  _checkOwner() */\n      tag_73\n        /* \"@openzeppelin/contracts/access/Ownable.sol\":1094:1105  _checkOwner */\n      tag_44\n        /* \"@openzeppelin/contracts/access/Ownable.sol\":1094:1107  _checkOwner() */\n      jump\t// in\n    tag_73:\n        /* \"@openzeppelin/contracts/access/Ownable.sol\":2189:2190  0 */\n      0x00\n        /* \"@openzeppelin/contracts/access/Ownable.sol\":2169:2191  newOwner != address(0) */\n      0xffffffffffffffffffffffffffffffffffffffff\n      and\n        /* \"@openzeppelin/contracts/access/Ownable.sol\":2169:2177  newOwner */\n      dup2\n        /* \"@openzeppelin/contracts/access/Ownable.sol\":2169:2191  newOwner != address(0) */\n      0xffffffffffffffffffffffffffffffffffffffff\n      and\n      sub\n        /* \"@openzeppelin/contracts/access/Ownable.sol\":2161:2234  require(newOwner != address(0), \"Ownable: new owner is the zero address\") */\n      tag_75\n      jumpi\n      mload(0x40)\n      0x08c379a000000000000000000000000000000000000000000000000000000000\n      dup2\n      mstore\n      0x04\n      add\n      tag_76\n      swap1\n      tag_77\n      jump\t// in\n    tag_76:\n      mload(0x40)\n      dup1\n      swap2\n      sub\n      swap1\n      revert\n    tag_75:\n        /* \"@openzeppelin/contracts/access/Ownable.sol\":2244:2272  _transferOwnership(newOwner) */\n      tag_78\n        /* \"@openzeppelin/contracts/access/Ownable.sol\":2263:2271  newOwner */\n      dup2\n        /* \"@openzeppelin/contracts/access/Ownable.sol\":2244:2262  _transferOwnership */\n      tag_55\n        /* \"@openzeppelin/contracts/access/Ownable.sol\":2244:2272  _transferOwnership(newOwner) */\n      jump\t// in\n    tag_78:\n        /* \"@openzeppelin/contracts/access/Ownable.sol\":2081:2279  function transferOwnership(address newOwner) public virtual onlyOwner {... */\n      pop\n      jump\t// out\n        /* \"@openzeppelin/contracts/access/Ownable.sol\":1359:1489  function _checkOwner() internal view virtual {... */\n    tag_44:\n        /* \"@openzeppelin/contracts/access/Ownable.sol\":1433:1445  _msgSender() */\n      tag_80\n        /* \"@openzeppelin/contracts/access/Ownable.sol\":1433:1443  _msgSender */\n      tag_81\n        /* \"@openzeppelin/contracts/access/Ownable.sol\":1433:1445  _msgSender() */\n      jump\t// in\n    tag_80:\n        /* \"@openzeppelin/contracts/access/Ownable.sol\":1422:1445  owner() == _msgSender() */\n      0xffffffffffffffffffffffffffffffffffffffff\n      and\n        /* \"@openzeppelin/contracts/access/Ownable.sol\":1422:1429  owner() */\n      tag_82\n        /* \"@openzeppelin/contracts/access/Ownable.sol\":1422:1427  owner */\n      tag_29\n        /* \"@openzeppelin/contracts/access/Ownable.sol\":1422:1429  owner() */\n      jump\t// in\n    tag_82:\n        /* \"@openzeppelin/contracts/access/Ownable.sol\":1422:1445  owner() == _msgSender() */\n      0xffffffffffffffffffffffffffffffffffffffff\n      and\n      eq\n        /* \"@openzeppelin/contracts/access/Ownable.sol\":1414:1482  require(owner() == _msgSender(), \"Ownable: caller is not the owner\") */\n      tag_83\n      jumpi\n      mload(0x40)\n      0x08c379a000000000000000000000000000000000000000000000000000000000\n      dup2\n      mstore\n      0x04\n      add\n      tag_84\n      swap1\n      tag_85\n      jump\t// in\n    tag_84:\n      mload(0x40)\n      dup1\n      swap2\n      sub\n      swap1\n      revert\n    tag_83:\n        /* \"@openzeppelin/contracts/access/Ownable.sol\":1359:1489  function _checkOwner() internal view virtual {... */\n      jump\t// out\n        /* \"@openzeppelin/contracts/access/Ownable.sol\":2433:2620  function _transferOwnership(address newOwner) internal virtual {... */\n    tag_55:\n        /* \"@openzeppelin/contracts/access/Ownable.sol\":2506:2522  address oldOwner */\n      0x00\n        /* \"@openzeppelin/contracts/access/Ownable.sol\":2525:2531  _owner */\n      dup1\n      0x00\n      swap1\n      sload\n      swap1\n      0x0100\n      exp\n      swap1\n      div\n      0xffffffffffffffffffffffffffffffffffffffff\n      and\n        /* \"@openzeppelin/contracts/access/Ownable.sol\":2506:2531  address oldOwner = _owner */\n      swap1\n      pop\n        /* \"@openzeppelin/contracts/access/Ownable.sol\":2550:2558  newOwner */\n      dup2\n        /* \"@openzeppelin/contracts/access/Ownable.sol\":2541:2547  _owner */\n      0x00\n      dup1\n        /* \"@openzeppelin/contracts/access/Ownable.sol\":2541:2558  _owner = newOwner */\n      0x0100\n      exp\n      dup2\n      sload\n      dup2\n      0xffffffffffffffffffffffffffffffffffffffff\n      mul\n      not\n      and\n      swap1\n      dup4\n      0xffffffffffffffffffffffffffffffffffffffff\n      and\n      mul\n      or\n      swap1\n      sstore\n      pop\n        /* \"@openzeppelin/contracts/access/Ownable.sol\":2604:2612  newOwner */\n      dup2\n        /* \"@openzeppelin/contracts/access/Ownable.sol\":2573:2613  OwnershipTransferred(oldOwner, newOwner) */\n      0xffffffffffffffffffffffffffffffffffffffff\n      and\n        /* \"@openzeppelin/contracts/access/Ownable.sol\":2594:2602  oldOwner */\n      dup2\n        /* \"@openzeppelin/contracts/access/Ownable.sol\":2573:2613  OwnershipTransferred(oldOwner, newOwner) */\n      0xffffffffffffffffffffffffffffffffffffffff\n      and\n      0x8be0079c531659141344cd1fd0a4f28419497f9722a3daafe3b4186f6b6457e0\n      mload(0x40)\n      mload(0x40)\n      dup1\n      swap2\n      sub\n      swap1\n      log3\n        /* \"@openzeppelin/contracts/access/Ownable.sol\":2496:2620  {... */\n      pop\n        /* \"@openzeppelin/contracts/access/Ownable.sol\":2433:2620  function _transferOwnership(address newOwner) internal virtual {... */\n      pop\n      jump\t// out\n        /* \"@openzeppelin/contracts/utils/Context.sol\":640:736  function _msgSender() internal view virtual returns (address) {... */\n    tag_81:\n        /* \"@openzeppelin/contracts/utils/Context.sol\":693:700  address */\n      0x00\n        /* \"@openzeppelin/contracts/utils/Context.sol\":719:729  msg.sender */\n      caller\n        /* \"@openzeppelin/contracts/utils/Context.sol\":712:729  return msg.sender */\n      swap1\n      pop\n        /* \"@openzeppelin/contracts/utils/Context.sol\":640:736  function _msgSender() internal view virtual returns (address) {... */\n      swap1\n      jump\t// out\n        /* \"#utility.yul\":7:82   */\n    tag_88:\n        /* \"#utility.yul\":40:46   */\n      0x00\n        /* \"#utility.yul\":73:75   */\n      0x40\n        /* \"#utility.yul\":67:76   */\n      mload\n        /* \"#utility.yul\":57:76   */\n      swap1\n      pop\n        /* \"#utility.yul\":7:82   */\n      swap1\n      jump\t// out\n        /* \"#utility.yul\":88:205   */\n    tag_89:\n        /* \"#utility.yul\":197:198   */\n      0x00\n        /* \"#utility.yul\":194:195   */\n      dup1\n        /* \"#utility.yul\":187:199   */\n      revert\n        /* \"#utility.yul\":211:328   */\n    tag_90:\n        /* \"#utility.yul\":320:321   */\n      0x00\n        /* \"#utility.yul\":317:318   */\n      dup1\n        /* \"#utility.yul\":310:322   */\n      revert\n        /* \"#utility.yul\":334:451   */\n    tag_91:\n        /* \"#utility.yul\":443:444   */\n      0x00\n        /* \"#utility.yul\":440:441   */\n      dup1\n        /* \"#utility.yul\":433:445   */\n      revert\n        /* \"#utility.yul\":457:574   */\n    tag_92:\n        /* \"#utility.yul\":566:567   */\n      0x00\n        /* \"#utility.yul\":563:564   */\n      dup1\n        /* \"#utility.yul\":556:568   */\n      revert\n        /* \"#utility.yul\":580:682   */\n    tag_93:\n        /* \"#utility.yul\":621:627   */\n      0x00\n        /* \"#utility.yul\":672:674   */\n      0x1f\n        /* \"#utility.yul\":668:675   */\n      not\n        /* \"#utility.yul\":663:665   */\n      0x1f\n        /* \"#utility.yul\":656:661   */\n      dup4\n        /* \"#utility.yul\":652:666   */\n      add\n        /* \"#utility.yul\":648:676   */\n      and\n        /* \"#utility.yul\":638:676   */\n      swap1\n      pop\n        /* \"#utility.yul\":580:682   */\n      swap2\n      swap1\n      pop\n      jump\t// out\n        /* \"#utility.yul\":688:868   */\n    tag_94:\n        /* \"#utility.yul\":736:813   */\n      0x4e487b7100000000000000000000000000000000000000000000000000000000\n        /* \"#utility.yul\":733:734   */\n      0x00\n        /* \"#utility.yul\":726:814   */\n      mstore\n        /* \"#utility.yul\":833:837   */\n      0x41\n        /* \"#utility.yul\":830:831   */\n      0x04\n        /* \"#utility.yul\":823:838   */\n      mstore\n        /* \"#utility.yul\":857:861   */\n      0x24\n        /* \"#utility.yul\":854:855   */\n      0x00\n        /* \"#utility.yul\":847:862   */\n      revert\n        /* \"#utility.yul\":874:1155   */\n    tag_95:\n        /* \"#utility.yul\":957:984   */\n      tag_146\n        /* \"#utility.yul\":979:983   */\n      dup3\n        /* \"#utility.yul\":957:984   */\n      tag_93\n      jump\t// in\n    tag_146:\n        /* \"#utility.yul\":949:955   */\n      dup2\n        /* \"#utility.yul\":945:985   */\n      add\n        /* \"#utility.yul\":1087:1093   */\n      dup2\n        /* \"#utility.yul\":1075:1085   */\n      dup2\n        /* \"#utility.yul\":1072:1094   */\n      lt\n        /* \"#utility.yul\":1051:1069   */\n      0xffffffffffffffff\n        /* \"#utility.yul\":1039:1049   */\n      dup3\n        /* \"#utility.yul\":1036:1070   */\n      gt\n        /* \"#utility.yul\":1033:1095   */\n      or\n        /* \"#utility.yul\":1030:1118   */\n      iszero\n      tag_147\n      jumpi\n        /* \"#utility.yul\":1098:1116   */\n      tag_148\n      tag_94\n      jump\t// in\n    tag_148:\n        /* \"#utility.yul\":1030:1118   */\n    tag_147:\n        /* \"#utility.yul\":1138:1148   */\n      dup1\n        /* \"#utility.yul\":1134:1136   */\n      0x40\n        /* \"#utility.yul\":1127:1149   */\n      mstore\n        /* \"#utility.yul\":917:1155   */\n      pop\n        /* \"#utility.yul\":874:1155   */\n      pop\n      pop\n      jump\t// out\n        /* \"#utility.yul\":1161:1290   */\n    tag_96:\n        /* \"#utility.yul\":1195:1201   */\n      0x00\n        /* \"#utility.yul\":1222:1242   */\n      tag_150\n      tag_88\n      jump\t// in\n    tag_150:\n        /* \"#utility.yul\":1212:1242   */\n      swap1\n      pop\n        /* \"#utility.yul\":1251:1284   */\n      tag_151\n        /* \"#utility.yul\":1279:1283   */\n      dup3\n        /* \"#utility.yul\":1271:1277   */\n      dup3\n        /* \"#utility.yul\":1251:1284   */\n      tag_95\n      jump\t// in\n    tag_151:\n        /* \"#utility.yul\":1161:1290   */\n      swap2\n      swap1\n      pop\n      jump\t// out\n        /* \"#utility.yul\":1296:1604   */\n    tag_97:\n        /* \"#utility.yul\":1358:1362   */\n      0x00\n        /* \"#utility.yul\":1448:1466   */\n      0xffffffffffffffff\n        /* \"#utility.yul\":1440:1446   */\n      dup3\n        /* \"#utility.yul\":1437:1467   */\n      gt\n        /* \"#utility.yul\":1434:1490   */\n      iszero\n      tag_153\n      jumpi\n        /* \"#utility.yul\":1470:1488   */\n      tag_154\n      tag_94\n      jump\t// in\n    tag_154:\n        /* \"#utility.yul\":1434:1490   */\n    tag_153:\n        /* \"#utility.yul\":1508:1537   */\n      tag_155\n        /* \"#utility.yul\":1530:1536   */\n      dup3\n        /* \"#utility.yul\":1508:1537   */\n      tag_93\n      jump\t// in\n    tag_155:\n        /* \"#utility.yul\":1500:1537   */\n      swap1\n      pop\n        /* \"#utility.yul\":1592:1596   */\n      0x20\n        /* \"#utility.yul\":1586:1590   */\n      dup2\n        /* \"#utility.yul\":1582:1597   */\n      add\n        /* \"#utility.yul\":1574:1597   */\n      swap1\n      pop\n        /* \"#utility.yul\":1296:1604   */\n      swap2\n      swap1\n      pop\n      jump\t// out\n        /* \"#utility.yul\":1610:1756   */\n    tag_98:\n        /* \"#utility.yul\":1707:1713   */\n      dup3\n        /* \"#utility.yul\":1702:1705   */\n      dup2\n        /* \"#utility.yul\":1697:1700   */\n      dup4\n        /* \"#utility.yul\":1684:1714   */\n      calldatacopy\n        /* \"#utility.yul\":1748:1749   */\n      0x00\n        /* \"#utility.yul\":1739:1745   */\n      dup4\n        /* \"#utility.yul\":1734:1737   */\n      dup4\n        /* \"#utility.yul\":1730:1746   */\n      add\n        /* \"#utility.yul\":1723:1750   */\n      mstore\n        /* \"#utility.yul\":1610:1756   */\n      pop\n      pop\n      pop\n      jump\t// out\n        /* \"#utility.yul\":1762:2187   */\n    tag_99:\n        /* \"#utility.yul\":1840:1845   */\n      0x00\n        /* \"#utility.yul\":1865:1931   */\n      tag_158\n        /* \"#utility.yul\":1881:1930   */\n      tag_159\n        /* \"#utility.yul\":1923:1929   */\n      dup5\n        /* \"#utility.yul\":1881:1930   */\n      tag_97\n      jump\t// in\n    tag_159:\n        /* \"#utility.yul\":1865:1931   */\n      tag_96\n      jump\t// in\n    tag_158:\n        /* \"#utility.yul\":1856:1931   */\n      swap1\n      pop\n        /* \"#utility.yul\":1954:1960   */\n      dup3\n        /* \"#utility.yul\":1947:1952   */\n      dup2\n        /* \"#utility.yul\":1940:1961   */\n      mstore\n        /* \"#utility.yul\":1992:1996   */\n      0x20\n        /* \"#utility.yul\":1985:1990   */\n      dup2\n        /* \"#utility.yul\":1981:1997   */\n      add\n        /* \"#utility.yul\":2030:2033   */\n      dup5\n        /* \"#utility.yul\":2021:2027   */\n      dup5\n        /* \"#utility.yul\":2016:2019   */\n      dup5\n        /* \"#utility.yul\":2012:2028   */\n      add\n        /* \"#utility.yul\":2009:2034   */\n      gt\n        /* \"#utility.yul\":2006:2118   */\n      iszero\n      tag_160\n      jumpi\n        /* \"#utility.yul\":2037:2116   */\n      tag_161\n      tag_92\n      jump\t// in\n    tag_161:\n        /* \"#utility.yul\":2006:2118   */\n    tag_160:\n        /* \"#utility.yul\":2127:2181   */\n      tag_162\n        /* \"#utility.yul\":2174:2180   */\n      dup5\n        /* \"#utility.yul\":2169:2172   */\n      dup3\n        /* \"#utility.yul\":2164:2167   */\n      dup6\n        /* \"#utility.yul\":2127:2181   */\n      tag_98\n      jump\t// in\n    tag_162:\n        /* \"#utility.yul\":1846:2187   */\n      pop\n        /* \"#utility.yul\":1762:2187   */\n      swap4\n      swap3\n      pop\n      pop\n      pop\n      jump\t// out\n        /* \"#utility.yul\":2207:2547   */\n    tag_100:\n        /* \"#utility.yul\":2263:2268   */\n      0x00\n        /* \"#utility.yul\":2312:2315   */\n      dup3\n        /* \"#utility.yul\":2305:2309   */\n      0x1f\n        /* \"#utility.yul\":2297:2303   */\n      dup4\n        /* \"#utility.yul\":2293:2310   */\n      add\n        /* \"#utility.yul\":2289:2316   */\n      slt\n        /* \"#utility.yul\":2279:2401   */\n      tag_164\n      jumpi\n        /* \"#utility.yul\":2320:2399   */\n      tag_165\n      tag_91\n      jump\t// in\n    tag_165:\n        /* \"#utility.yul\":2279:2401   */\n    tag_164:\n        /* \"#utility.yul\":2437:2443   */\n      dup2\n        /* \"#utility.yul\":2424:2444   */\n      calldataload\n        /* \"#utility.yul\":2462:2541   */\n      tag_166\n        /* \"#utility.yul\":2537:2540   */\n      dup5\n        /* \"#utility.yul\":2529:2535   */\n      dup3\n        /* \"#utility.yul\":2522:2526   */\n      0x20\n        /* \"#utility.yul\":2514:2520   */\n      dup7\n        /* \"#utility.yul\":2510:2527   */\n      add\n        /* \"#utility.yul\":2462:2541   */\n      tag_99\n      jump\t// in\n    tag_166:\n        /* \"#utility.yul\":2453:2541   */\n      swap2\n      pop\n        /* \"#utility.yul\":2269:2547   */\n      pop\n        /* \"#utility.yul\":2207:2547   */\n      swap3\n      swap2\n      pop\n      pop\n      jump\t// out\n        /* \"#utility.yul\":2553:2630   */\n    tag_101:\n        /* \"#utility.yul\":2590:2597   */\n      0x00\n        /* \"#utility.yul\":2619:2624   */\n      dup2\n        /* \"#utility.yul\":2608:2624   */\n      swap1\n      pop\n        /* \"#utility.yul\":2553:2630   */\n      swap2\n      swap1\n      pop\n      jump\t// out\n        /* \"#utility.yul\":2636:2758   */\n    tag_102:\n        /* \"#utility.yul\":2709:2733   */\n      tag_169\n        /* \"#utility.yul\":2727:2732   */\n      dup2\n        /* \"#utility.yul\":2709:2733   */\n      tag_101\n      jump\t// in\n    tag_169:\n        /* \"#utility.yul\":2702:2707   */\n      dup2\n        /* \"#utility.yul\":2699:2734   */\n      eq\n        /* \"#utility.yul\":2689:2752   */\n      tag_170\n      jumpi\n        /* \"#utility.yul\":2748:2749   */\n      0x00\n        /* \"#utility.yul\":2745:2746   */\n      dup1\n        /* \"#utility.yul\":2738:2750   */\n      revert\n        /* \"#utility.yul\":2689:2752   */\n    tag_170:\n        /* \"#utility.yul\":2636:2758   */\n      pop\n      jump\t// out\n        /* \"#utility.yul\":2764:2903   */\n    tag_103:\n        /* \"#utility.yul\":2810:2815   */\n      0x00\n        /* \"#utility.yul\":2848:2854   */\n      dup2\n        /* \"#utility.yul\":2835:2855   */\n      calldataload\n        /* \"#utility.yul\":2826:2855   */\n      swap1\n      pop\n        /* \"#utility.yul\":2864:2897   */\n      tag_172\n        /* \"#utility.yul\":2891:2896   */\n      dup2\n        /* \"#utility.yul\":2864:2897   */\n      tag_102\n      jump\t// in\n    tag_172:\n        /* \"#utility.yul\":2764:2903   */\n      swap3\n      swap2\n      pop\n      pop\n      jump\t// out\n        /* \"#utility.yul\":2909:3563   */\n    tag_13:\n        /* \"#utility.yul\":2987:2993   */\n      0x00\n        /* \"#utility.yul\":2995:3001   */\n      dup1\n        /* \"#utility.yul\":3044:3046   */\n      0x40\n        /* \"#utility.yul\":3032:3041   */\n      dup4\n        /* \"#utility.yul\":3023:3030   */\n      dup6\n        /* \"#utility.yul\":3019:3042   */\n      sub\n        /* \"#utility.yul\":3015:3047   */\n      slt\n        /* \"#utility.yul\":3012:3131   */\n      iszero\n      tag_174\n      jumpi\n        /* \"#utility.yul\":3050:3129   */\n      tag_175\n      tag_89\n      jump\t// in\n    tag_175:\n        /* \"#utility.yul\":3012:3131   */\n    tag_174:\n        /* \"#utility.yul\":3198:3199   */\n      0x00\n        /* \"#utility.yul\":3187:3196   */\n      dup4\n        /* \"#utility.yul\":3183:3200   */\n      add\n        /* \"#utility.yul\":3170:3201   */\n      calldataload\n        /* \"#utility.yul\":3228:3246   */\n      0xffffffffffffffff\n        /* \"#utility.yul\":3220:3226   */\n      dup2\n        /* \"#utility.yul\":3217:3247   */\n      gt\n        /* \"#utility.yul\":3214:3331   */\n      iszero\n      tag_176\n      jumpi\n        /* \"#utility.yul\":3250:3329   */\n      tag_177\n      tag_90\n      jump\t// in\n    tag_177:\n        /* \"#utility.yul\":3214:3331   */\n    tag_176:\n        /* \"#utility.yul\":3355:3418   */\n      tag_178\n        /* \"#utility.yul\":3410:3417   */\n      dup6\n        /* \"#utility.yul\":3401:3407   */\n      dup3\n        /* \"#utility.yul\":3390:3399   */\n      dup7\n        /* \"#utility.yul\":3386:3408   */\n      add\n        /* \"#utility.yul\":3355:3418   */\n      tag_100\n      jump\t// in\n    tag_178:\n        /* \"#utility.yul\":3345:3418   */\n      swap3\n      pop\n        /* \"#utility.yul\":3141:3428   */\n      pop\n        /* \"#utility.yul\":3467:3469   */\n      0x20\n        /* \"#utility.yul\":3493:3546   */\n      tag_179\n        /* \"#utility.yul\":3538:3545   */\n      dup6\n        /* \"#utility.yul\":3529:3535   */\n      dup3\n        /* \"#utility.yul\":3518:3527   */\n      dup7\n        /* \"#utility.yul\":3514:3536   */\n      add\n        /* \"#utility.yul\":3493:3546   */\n      tag_103\n      jump\t// in\n    tag_179:\n        /* \"#utility.yul\":3483:3546   */\n      swap2\n      pop\n        /* \"#utility.yul\":3438:3556   */\n      pop\n        /* \"#utility.yul\":2909:3563   */\n      swap3\n      pop\n      swap3\n      swap1\n      pop\n      jump\t// out\n        /* \"#utility.yul\":3569:3687   */\n    tag_104:\n        /* \"#utility.yul\":3656:3680   */\n      tag_181\n        /* \"#utility.yul\":3674:3679   */\n      dup2\n        /* \"#utility.yul\":3656:3680   */\n      tag_101\n      jump\t// in\n    tag_181:\n        /* \"#utility.yul\":3651:3654   */\n      dup3\n        /* \"#utility.yul\":3644:3681   */\n      mstore\n        /* \"#utility.yul\":3569:3687   */\n      pop\n      pop\n      jump\t// out\n        /* \"#utility.yul\":3693:3915   */\n    tag_16:\n        /* \"#utility.yul\":3786:3790   */\n      0x00\n        /* \"#utility.yul\":3824:3826   */\n      0x20\n        /* \"#utility.yul\":3813:3822   */\n      dup3\n        /* \"#utility.yul\":3809:3827   */\n      add\n        /* \"#utility.yul\":3801:3827   */\n      swap1\n      pop\n        /* \"#utility.yul\":3837:3908   */\n      tag_183\n        /* \"#utility.yul\":3905:3906   */\n      0x00\n        /* \"#utility.yul\":3894:3903   */\n      dup4\n        /* \"#utility.yul\":3890:3907   */\n      add\n        /* \"#utility.yul\":3881:3887   */\n      dup5\n        /* \"#utility.yul\":3837:3908   */\n      tag_104\n      jump\t// in\n    tag_183:\n        /* \"#utility.yul\":3693:3915   */\n      swap3\n      swap2\n      pop\n      pop\n      jump\t// out\n        /* \"#utility.yul\":3921:4047   */\n    tag_105:\n        /* \"#utility.yul\":3958:3965   */\n      0x00\n        /* \"#utility.yul\":3998:4040   */\n      0xffffffffffffffffffffffffffffffffffffffff\n        /* \"#utility.yul\":3991:3996   */\n      dup3\n        /* \"#utility.yul\":3987:4041   */\n      and\n        /* \"#utility.yul\":3976:4041   */\n      swap1\n      pop\n        /* \"#utility.yul\":3921:4047   */\n      swap2\n      swap1\n      pop\n      jump\t// out\n        /* \"#utility.yul\":4053:4149   */\n    tag_106:\n        /* \"#utility.yul\":4090:4097   */\n      0x00\n        /* \"#utility.yul\":4119:4143   */\n      tag_186\n        /* \"#utility.yul\":4137:4142   */\n      dup3\n        /* \"#utility.yul\":4119:4143   */\n      tag_105\n      jump\t// in\n    tag_186:\n        /* \"#utility.yul\":4108:4143   */\n      swap1\n      pop\n        /* \"#utility.yul\":4053:4149   */\n      swap2\n      swap1\n      pop\n      jump\t// out\n        /* \"#utility.yul\":4155:4277   */\n    tag_107:\n        /* \"#utility.yul\":4228:4252   */\n      tag_188\n        /* \"#utility.yul\":4246:4251   */\n      dup2\n        /* \"#utility.yul\":4228:4252   */\n      tag_106\n      jump\t// in\n    tag_188:\n        /* \"#utility.yul\":4221:4226   */\n      dup2\n        /* \"#utility.yul\":4218:4253   */\n      eq\n        /* \"#utility.yul\":4208:4271   */\n      tag_189\n      jumpi\n        /* \"#utility.yul\":4267:4268   */\n      0x00\n        /* \"#utility.yul\":4264:4265   */\n      dup1\n        /* \"#utility.yul\":4257:4269   */\n      revert\n        /* \"#utility.yul\":4208:4271   */\n    tag_189:\n        /* \"#utility.yul\":4155:4277   */\n      pop\n      jump\t// out\n        /* \"#utility.yul\":4283:4422   */\n    tag_108:\n        /* \"#utility.yul\":4329:4334   */\n      0x00\n        /* \"#utility.yul\":4367:4373   */\n      dup2\n        /* \"#utility.yul\":4354:4374   */\n      calldataload\n        /* \"#utility.yul\":4345:4374   */\n      swap1\n      pop\n        /* \"#utility.yul\":4383:4416   */\n      tag_191\n        /* \"#utility.yul\":4410:4415   */\n      dup2\n        /* \"#utility.yul\":4383:4416   */\n      tag_107\n      jump\t// in\n    tag_191:\n        /* \"#utility.yul\":4283:4422   */\n      swap3\n      swap2\n      pop\n      pop\n      jump\t// out\n        /* \"#utility.yul\":4428:4902   */\n    tag_19:\n        /* \"#utility.yul\":4496:4502   */\n      0x00\n        /* \"#utility.yul\":4504:4510   */\n      dup1\n        /* \"#utility.yul\":4553:4555   */\n      0x40\n        /* \"#utility.yul\":4541:4550   */\n      dup4\n        /* \"#utility.yul\":4532:4539   */\n      dup6\n        /* \"#utility.yul\":4528:4551   */\n      sub\n        /* \"#utility.yul\":4524:4556   */\n      slt\n        /* \"#utility.yul\":4521:4640   */\n      iszero\n      tag_193\n      jumpi\n        /* \"#utility.yul\":4559:4638   */\n      tag_194\n      tag_89\n      jump\t// in\n    tag_194:\n        /* \"#utility.yul\":4521:4640   */\n    tag_193:\n        /* \"#utility.yul\":4679:4680   */\n      0x00\n        /* \"#utility.yul\":4704:4757   */\n      tag_195\n        /* \"#utility.yul\":4749:4756   */\n      dup6\n        /* \"#utility.yul\":4740:4746   */\n      dup3\n        /* \"#utility.yul\":4729:4738   */\n      dup7\n        /* \"#utility.yul\":4725:4747   */\n      add\n        /* \"#utility.yul\":4704:4757   */\n      tag_103\n      jump\t// in\n    tag_195:\n        /* \"#utility.yul\":4694:4757   */\n      swap3\n      pop\n        /* \"#utility.yul\":4650:4767   */\n      pop\n        /* \"#utility.yul\":4806:4808   */\n      0x20\n        /* \"#utility.yul\":4832:4885   */\n      tag_196\n        /* \"#utility.yul\":4877:4884   */\n      dup6\n        /* \"#utility.yul\":4868:4874   */\n      dup3\n        /* \"#utility.yul\":4857:4866   */\n      dup7\n        /* \"#utility.yul\":4853:4875   */\n      add\n        /* \"#utility.yul\":4832:4885   */\n      tag_108\n      jump\t// in\n    tag_196:\n        /* \"#utility.yul\":4822:4885   */\n      swap2\n      pop\n        /* \"#utility.yul\":4777:4895   */\n      pop\n        /* \"#utility.yul\":4428:4902   */\n      swap3\n      pop\n      swap3\n      swap1\n      pop\n      jump\t// out\n        /* \"#utility.yul\":4908:5527   */\n    tag_26:\n        /* \"#utility.yul\":4985:4991   */\n      0x00\n        /* \"#utility.yul\":4993:4999   */\n      dup1\n        /* \"#utility.yul\":5001:5007   */\n      0x00\n        /* \"#utility.yul\":5050:5052   */\n      0x60\n        /* \"#utility.yul\":5038:5047   */\n      dup5\n        /* \"#utility.yul\":5029:5036   */\n      dup7\n        /* \"#utility.yul\":5025:5048   */\n      sub\n        /* \"#utility.yul\":5021:5053   */\n      slt\n        /* \"#utility.yul\":5018:5137   */\n      iszero\n      tag_198\n      jumpi\n        /* \"#utility.yul\":5056:5135   */\n      tag_199\n      tag_89\n      jump\t// in\n    tag_199:\n        /* \"#utility.yul\":5018:5137   */\n    tag_198:\n        /* \"#utility.yul\":5176:5177   */\n      0x00\n        /* \"#utility.yul\":5201:5254   */\n      tag_200\n        /* \"#utility.yul\":5246:5253   */\n      dup7\n        /* \"#utility.yul\":5237:5243   */\n      dup3\n        /* \"#utility.yul\":5226:5235   */\n      dup8\n        /* \"#utility.yul\":5222:5244   */\n      add\n        /* \"#utility.yul\":5201:5254   */\n      tag_103\n      jump\t// in\n    tag_200:\n        /* \"#utility.yul\":5191:5254   */\n      swap4\n      pop\n        /* \"#utility.yul\":5147:5264   */\n      pop\n        /* \"#utility.yul\":5303:5305   */\n      0x20\n        /* \"#utility.yul\":5329:5382   */\n      tag_201\n        /* \"#utility.yul\":5374:5381   */\n      dup7\n        /* \"#utility.yul\":5365:5371   */\n      dup3\n        /* \"#utility.yul\":5354:5363   */\n      dup8\n        /* \"#utility.yul\":5350:5372   */\n      add\n        /* \"#utility.yul\":5329:5382   */\n      tag_108\n      jump\t// in\n    tag_201:\n        /* \"#utility.yul\":5319:5382   */\n      swap3\n      pop\n        /* \"#utility.yul\":5274:5392   */\n      pop\n        /* \"#utility.yul\":5431:5433   */\n      0x40\n        /* \"#utility.yul\":5457:5510   */\n      tag_202\n        /* \"#utility.yul\":5502:5509   */\n      dup7\n        /* \"#utility.yul\":5493:5499   */\n      dup3\n        /* \"#utility.yul\":5482:5491   */\n      dup8\n        /* \"#utility.yul\":5478:5500   */\n      add\n        /* \"#utility.yul\":5457:5510   */\n      tag_103\n      jump\t// in\n    tag_202:\n        /* \"#utility.yul\":5447:5510   */\n      swap2\n      pop\n        /* \"#utility.yul\":5402:5520   */\n      pop\n        /* \"#utility.yul\":4908:5527   */\n      swap3\n      pop\n      swap3\n      pop\n      swap3\n      jump\t// out\n        /* \"#utility.yul\":5533:5651   */\n    tag_109:\n        /* \"#utility.yul\":5620:5644   */\n      tag_204\n        /* \"#utility.yul\":5638:5643   */\n      dup2\n        /* \"#utility.yul\":5620:5644   */\n      tag_106\n      jump\t// in\n    tag_204:\n        /* \"#utility.yul\":5615:5618   */\n      dup3\n        /* \"#utility.yul\":5608:5645   */\n      mstore\n        /* \"#utility.yul\":5533:5651   */\n      pop\n      pop\n      jump\t// out\n        /* \"#utility.yul\":5657:5879   */\n    tag_31:\n        /* \"#utility.yul\":5750:5754   */\n      0x00\n        /* \"#utility.yul\":5788:5790   */\n      0x20\n        /* \"#utility.yul\":5777:5786   */\n      dup3\n        /* \"#utility.yul\":5773:5791   */\n      add\n        /* \"#utility.yul\":5765:5791   */\n      swap1\n      pop\n        /* \"#utility.yul\":5801:5872   */\n      tag_206\n        /* \"#utility.yul\":5869:5870   */\n      0x00\n        /* \"#utility.yul\":5858:5867   */\n      dup4\n        /* \"#utility.yul\":5854:5871   */\n      add\n        /* \"#utility.yul\":5845:5851   */\n      dup5\n        /* \"#utility.yul\":5801:5872   */\n      tag_109\n      jump\t// in\n    tag_206:\n        /* \"#utility.yul\":5657:5879   */\n      swap3\n      swap2\n      pop\n      pop\n      jump\t// out\n        /* \"#utility.yul\":5885:6214   */\n    tag_34:\n        /* \"#utility.yul\":5944:5950   */\n      0x00\n        /* \"#utility.yul\":5993:5995   */\n      0x20\n        /* \"#utility.yul\":5981:5990   */\n      dup3\n        /* \"#utility.yul\":5972:5979   */\n      dup5\n        /* \"#utility.yul\":5968:5991   */\n      sub\n        /* \"#utility.yul\":5964:5996   */\n      slt\n        /* \"#utility.yul\":5961:6080   */\n      iszero\n      tag_208\n      jumpi\n        /* \"#utility.yul\":5999:6078   */\n      tag_209\n      tag_89\n      jump\t// in\n    tag_209:\n        /* \"#utility.yul\":5961:6080   */\n    tag_208:\n        /* \"#utility.yul\":6119:6120   */\n      0x00\n        /* \"#utility.yul\":6144:6197   */\n      tag_210\n        /* \"#utility.yul\":6189:6196   */\n      dup5\n        /* \"#utility.yul\":6180:6186   */\n      dup3\n        /* \"#utility.yul\":6169:6178   */\n      dup6\n        /* \"#utility.yul\":6165:6187   */\n      add\n        /* \"#utility.yul\":6144:6197   */\n      tag_103\n      jump\t// in\n    tag_210:\n        /* \"#utility.yul\":6134:6197   */\n      swap2\n      pop\n        /* \"#utility.yul\":6090:6207   */\n      pop\n        /* \"#utility.yul\":5885:6214   */\n      swap3\n      swap2\n      pop\n      pop\n      jump\t// out\n        /* \"#utility.yul\":6220:6319   */\n    tag_110:\n        /* \"#utility.yul\":6272:6278   */\n      0x00\n        /* \"#utility.yul\":6306:6311   */\n      dup2\n        /* \"#utility.yul\":6300:6312   */\n      mload\n        /* \"#utility.yul\":6290:6312   */\n      swap1\n      pop\n        /* \"#utility.yul\":6220:6319   */\n      swap2\n      swap1\n      pop\n      jump\t// out\n        /* \"#utility.yul\":6325:6494   */\n    tag_111:\n        /* \"#utility.yul\":6409:6420   */\n      0x00\n        /* \"#utility.yul\":6443:6449   */\n      dup3\n        /* \"#utility.yul\":6438:6441   */\n      dup3\n        /* \"#utility.yul\":6431:6450   */\n      mstore\n        /* \"#utility.yul\":6483:6487   */\n      0x20\n        /* \"#utility.yul\":6478:6481   */\n      dup3\n        /* \"#utility.yul\":6474:6488   */\n      add\n        /* \"#utility.yul\":6459:6488   */\n      swap1\n      pop\n        /* \"#utility.yul\":6325:6494   */\n      swap3\n      swap2\n      pop\n      pop\n      jump\t// out\n        /* \"#utility.yul\":6500:6746   */\n    tag_112:\n        /* \"#utility.yul\":6581:6582   */\n      0x00\n        /* \"#utility.yul\":6591:6704   */\n    tag_214:\n        /* \"#utility.yul\":6605:6611   */\n      dup4\n        /* \"#utility.yul\":6602:6603   */\n      dup2\n        /* \"#utility.yul\":6599:6612   */\n      lt\n        /* \"#utility.yul\":6591:6704   */\n      iszero\n      tag_216\n      jumpi\n        /* \"#utility.yul\":6690:6691   */\n      dup1\n        /* \"#utility.yul\":6685:6688   */\n      dup3\n        /* \"#utility.yul\":6681:6692   */\n      add\n        /* \"#utility.yul\":6675:6693   */\n      mload\n        /* \"#utility.yul\":6671:6672   */\n      dup2\n        /* \"#utility.yul\":6666:6669   */\n      dup5\n        /* \"#utility.yul\":6662:6673   */\n      add\n        /* \"#utility.yul\":6655:6694   */\n      mstore\n        /* \"#utility.yul\":6627:6629   */\n      0x20\n        /* \"#utility.yul\":6624:6625   */\n      dup2\n        /* \"#utility.yul\":6620:6630   */\n      add\n        /* \"#utility.yul\":6615:6630   */\n      swap1\n      pop\n        /* \"#utility.yul\":6591:6704   */\n      jump(tag_214)\n    tag_216:\n        /* \"#utility.yul\":6738:6739   */\n      0x00\n        /* \"#utility.yul\":6729:6735   */\n      dup5\n        /* \"#utility.yul\":6724:6727   */\n      dup5\n        /* \"#utility.yul\":6720:6736   */\n      add\n        /* \"#utility.yul\":6713:6740   */\n      mstore\n        /* \"#utility.yul\":6562:6746   */\n      pop\n        /* \"#utility.yul\":6500:6746   */\n      pop\n      pop\n      pop\n      jump\t// out\n        /* \"#utility.yul\":6752:7129   */\n    tag_113:\n        /* \"#utility.yul\":6840:6843   */\n      0x00\n        /* \"#utility.yul\":6868:6907   */\n      tag_218\n        /* \"#utility.yul\":6901:6906   */\n      dup3\n        /* \"#utility.yul\":6868:6907   */\n      tag_110\n      jump\t// in\n    tag_218:\n        /* \"#utility.yul\":6923:6994   */\n      tag_219\n        /* \"#utility.yul\":6987:6993   */\n      dup2\n        /* \"#utility.yul\":6982:6985   */\n      dup6\n        /* \"#utility.yul\":6923:6994   */\n      tag_111\n      jump\t// in\n    tag_219:\n        /* \"#utility.yul\":6916:6994   */\n      swap4\n      pop\n        /* \"#utility.yul\":7003:7068   */\n      tag_220\n        /* \"#utility.yul\":7061:7067   */\n      dup2\n        /* \"#utility.yul\":7056:7059   */\n      dup6\n        /* \"#utility.yul\":7049:7053   */\n      0x20\n        /* \"#utility.yul\":7042:7047   */\n      dup7\n        /* \"#utility.yul\":7038:7054   */\n      add\n        /* \"#utility.yul\":7003:7068   */\n      tag_112\n      jump\t// in\n    tag_220:\n        /* \"#utility.yul\":7093:7122   */\n      tag_221\n        /* \"#utility.yul\":7115:7121   */\n      dup2\n        /* \"#utility.yul\":7093:7122   */\n      tag_93\n      jump\t// in\n    tag_221:\n        /* \"#utility.yul\":7088:7091   */\n      dup5\n        /* \"#utility.yul\":7084:7123   */\n      add\n        /* \"#utility.yul\":7077:7123   */\n      swap2\n      pop\n        /* \"#utility.yul\":6844:7129   */\n      pop\n        /* \"#utility.yul\":6752:7129   */\n      swap3\n      swap2\n      pop\n      pop\n      jump\t// out\n        /* \"#utility.yul\":7135:7558   */\n    tag_37:\n        /* \"#utility.yul\":7276:7280   */\n      0x00\n        /* \"#utility.yul\":7314:7316   */\n      0x40\n        /* \"#utility.yul\":7303:7312   */\n      dup3\n        /* \"#utility.yul\":7299:7317   */\n      add\n        /* \"#utility.yul\":7291:7317   */\n      swap1\n      pop\n        /* \"#utility.yul\":7363:7372   */\n      dup2\n        /* \"#utility.yul\":7357:7361   */\n      dup2\n        /* \"#utility.yul\":7353:7373   */\n      sub\n        /* \"#utility.yul\":7349:7350   */\n      0x00\n        /* \"#utility.yul\":7338:7347   */\n      dup4\n        /* \"#utility.yul\":7334:7351   */\n      add\n        /* \"#utility.yul\":7327:7374   */\n      mstore\n        /* \"#utility.yul\":7391:7469   */\n      tag_223\n        /* \"#utility.yul\":7464:7468   */\n      dup2\n        /* \"#utility.yul\":7455:7461   */\n      dup6\n        /* \"#utility.yul\":7391:7469   */\n      tag_113\n      jump\t// in\n    tag_223:\n        /* \"#utility.yul\":7383:7469   */\n      swap1\n      pop\n        /* \"#utility.yul\":7479:7551   */\n      tag_224\n        /* \"#utility.yul\":7547:7549   */\n      0x20\n        /* \"#utility.yul\":7536:7545   */\n      dup4\n        /* \"#utility.yul\":7532:7550   */\n      add\n        /* \"#utility.yul\":7523:7529   */\n      dup5\n        /* \"#utility.yul\":7479:7551   */\n      tag_104\n      jump\t// in\n    tag_224:\n        /* \"#utility.yul\":7135:7558   */\n      swap4\n      swap3\n      pop\n      pop\n      pop\n      jump\t// out\n        /* \"#utility.yul\":7564:7893   */\n    tag_40:\n        /* \"#utility.yul\":7623:7629   */\n      0x00\n        /* \"#utility.yul\":7672:7674   */\n      0x20\n        /* \"#utility.yul\":7660:7669   */\n      dup3\n        /* \"#utility.yul\":7651:7658   */\n      dup5\n        /* \"#utility.yul\":7647:7670   */\n      sub\n        /* \"#utility.yul\":7643:7675   */\n      slt\n        /* \"#utility.yul\":7640:7759   */\n      iszero\n      tag_226\n      jumpi\n        /* \"#utility.yul\":7678:7757   */\n      tag_227\n      tag_89\n      jump\t// in\n    tag_227:\n        /* \"#utility.yul\":7640:7759   */\n    tag_226:\n        /* \"#utility.yul\":7798:7799   */\n      0x00\n        /* \"#utility.yul\":7823:7876   */\n      tag_228\n        /* \"#utility.yul\":7868:7875   */\n      dup5\n        /* \"#utility.yul\":7859:7865   */\n      dup3\n        /* \"#utility.yul\":7848:7857   */\n      dup6\n        /* \"#utility.yul\":7844:7866   */\n      add\n        /* \"#utility.yul\":7823:7876   */\n      tag_108\n      jump\t// in\n    tag_228:\n        /* \"#utility.yul\":7813:7876   */\n      swap2\n      pop\n        /* \"#utility.yul\":7769:7886   */\n      pop\n        /* \"#utility.yul\":7564:7893   */\n      swap3\n      swap2\n      pop\n      pop\n      jump\t// out\n        /* \"#utility.yul\":7899:8079   */\n    tag_114:\n        /* \"#utility.yul\":7947:8024   */\n      0x4e487b7100000000000000000000000000000000000000000000000000000000\n        /* \"#utility.yul\":7944:7945   */\n      0x00\n        /* \"#utility.yul\":7937:8025   */\n      mstore\n        /* \"#utility.yul\":8044:8048   */\n      0x11\n        /* \"#utility.yul\":8041:8042   */\n      0x04\n        /* \"#utility.yul\":8034:8049   */\n      mstore\n        /* \"#utility.yul\":8068:8072   */\n      0x24\n        /* \"#utility.yul\":8065:8066   */\n      0x00\n        /* \"#utility.yul\":8058:8073   */\n      revert\n        /* \"#utility.yul\":8085:8318   */\n    tag_47:\n        /* \"#utility.yul\":8124:8127   */\n      0x00\n        /* \"#utility.yul\":8147:8171   */\n      tag_231\n        /* \"#utility.yul\":8165:8170   */\n      dup3\n        /* \"#utility.yul\":8147:8171   */\n      tag_101\n      jump\t// in\n    tag_231:\n        /* \"#utility.yul\":8138:8171   */\n      swap2\n      pop\n        /* \"#utility.yul\":8193:8259   */\n      0xffffffffffffffffffffffffffffffffffffffffffffffffffffffffffffffff\n        /* \"#utility.yul\":8186:8191   */\n      dup3\n        /* \"#utility.yul\":8183:8260   */\n      sub\n        /* \"#utility.yul\":8180:8283   */\n      tag_232\n      jumpi\n        /* \"#utility.yul\":8263:8281   */\n      tag_233\n      tag_114\n      jump\t// in\n    tag_233:\n        /* \"#utility.yul\":8180:8283   */\n    tag_232:\n        /* \"#utility.yul\":8310:8311   */\n      0x01\n        /* \"#utility.yul\":8303:8308   */\n      dup3\n        /* \"#utility.yul\":8299:8312   */\n      add\n        /* \"#utility.yul\":8292:8312   */\n      swap1\n      pop\n        /* \"#utility.yul\":8085:8318   */\n      swap2\n      swap1\n      pop\n      jump\t// out\n        /* \"#utility.yul\":8324:8504   */\n    tag_115:\n        /* \"#utility.yul\":8372:8449   */\n      0x4e487b7100000000000000000000000000000000000000000000000000000000\n        /* \"#utility.yul\":8369:8370   */\n      0x00\n        /* \"#utility.yul\":8362:8450   */\n      mstore\n        /* \"#utility.yul\":8469:8473   */\n      0x22\n        /* \"#utility.yul\":8466:8467   */\n      0x04\n        /* \"#utility.yul\":8459:8474   */\n      mstore\n        /* \"#utility.yul\":8493:8497   */\n      0x24\n        /* \"#utility.yul\":8490:8491   */\n      0x00\n        /* \"#utility.yul\":8483:8498   */\n      revert\n        /* \"#utility.yul\":8510:8830   */\n    tag_67:\n        /* \"#utility.yul\":8554:8560   */\n      0x00\n        /* \"#utility.yul\":8591:8592   */\n      0x02\n        /* \"#utility.yul\":8585:8589   */\n      dup3\n        /* \"#utility.yul\":8581:8593   */\n      div\n        /* \"#utility.yul\":8571:8593   */\n      swap1\n      pop\n        /* \"#utility.yul\":8638:8639   */\n      0x01\n        /* \"#utility.yul\":8632:8636   */\n      dup3\n        /* \"#utility.yul\":8628:8640   */\n      and\n        /* \"#utility.yul\":8659:8677   */\n      dup1\n        /* \"#utility.yul\":8649:8730   */\n      tag_236\n      jumpi\n        /* \"#utility.yul\":8715:8719   */\n      0x7f\n        /* \"#utility.yul\":8707:8713   */\n      dup3\n        /* \"#utility.yul\":8703:8720   */\n      and\n        /* \"#utility.yul\":8693:8720   */\n      swap2\n      pop\n        /* \"#utility.yul\":8649:8730   */\n    tag_236:\n        /* \"#utility.yul\":8777:8779   */\n      0x20\n        /* \"#utility.yul\":8769:8775   */\n      dup3\n        /* \"#utility.yul\":8766:8780   */\n      lt\n        /* \"#utility.yul\":8746:8764   */\n      dup2\n        /* \"#utility.yul\":8743:8781   */\n      sub\n        /* \"#utility.yul\":8740:8824   */\n      tag_237\n      jumpi\n        /* \"#utility.yul\":8796:8814   */\n      tag_238\n      tag_115\n      jump\t// in\n    tag_238:\n        /* \"#utility.yul\":8740:8824   */\n    tag_237:\n        /* \"#utility.yul\":8561:8830   */\n      pop\n        /* \"#utility.yul\":8510:8830   */\n      swap2\n      swap1\n      pop\n      jump\t// out\n        /* \"#utility.yul\":8836:8977   */\n    tag_116:\n        /* \"#utility.yul\":8885:8889   */\n      0x00\n        /* \"#utility.yul\":8908:8911   */\n      dup2\n        /* \"#utility.yul\":8900:8911   */\n      swap1\n      pop\n        /* \"#utility.yul\":8931:8934   */\n      dup2\n        /* \"#utility.yul\":8928:8929   */\n      0x00\n        /* \"#utility.yul\":8921:8935   */\n      mstore\n        /* \"#utility.yul\":8965:8969   */\n      0x20\n        /* \"#utility.yul\":8962:8963   */\n      0x00\n        /* \"#utility.yul\":8952:8970   */\n      keccak256\n        /* \"#utility.yul\":8944:8970   */\n      swap1\n      pop\n        /* \"#utility.yul\":8836:8977   */\n      swap2\n      swap1\n      pop\n      jump\t// out\n        /* \"#utility.yul\":8983:9076   */\n    tag_117:\n        /* \"#utility.yul\":9020:9026   */\n      0x00\n        /* \"#utility.yul\":9067:9069   */\n      0x20\n        /* \"#utility.yul\":9062:9064   */\n      0x1f\n        /* \"#utility.yul\":9055:9060   */\n      dup4\n        /* \"#utility.yul\":9051:9065   */\n      add\n        /* \"#utility.yul\":9047:9070   */\n      div\n        /* \"#utility.yul\":9037:9070   */\n      swap1\n      pop\n        /* \"#utility.yul\":8983:9076   */\n      swap2\n      swap1\n      pop\n      jump\t// out\n        /* \"#utility.yul\":9082:9189   */\n    tag_118:\n        /* \"#utility.yul\":9126:9134   */\n      0x00\n        /* \"#utility.yul\":9176:9181   */\n      dup3\n        /* \"#utility.yul\":9170:9174   */\n      dup3\n        /* \"#utility.yul\":9166:9182   */\n      shl\n        /* \"#utility.yul\":9145:9182   */\n      swap1\n      pop\n        /* \"#utility.yul\":9082:9189   */\n      swap3\n      swap2\n      pop\n      pop\n      jump\t// out\n        /* \"#utility.yul\":9195:9588   */\n    tag_119:\n        /* \"#utility.yul\":9264:9270   */\n      0x00\n        /* \"#utility.yul\":9314:9315   */\n      0x08\n        /* \"#utility.yul\":9302:9312   */\n      dup4\n        /* \"#utility.yul\":9298:9316   */\n      mul\n        /* \"#utility.yul\":9337:9434   */\n      tag_243\n        /* \"#utility.yul\":9367:9433   */\n      0xffffffffffffffffffffffffffffffffffffffffffffffffffffffffffffffff\n        /* \"#utility.yul\":9356:9365   */\n      dup3\n        /* \"#utility.yul\":9337:9434   */\n      tag_118\n      jump\t// in\n    tag_243:\n        /* \"#utility.yul\":9455:9494   */\n      tag_244\n        /* \"#utility.yul\":9485:9493   */\n      dup7\n        /* \"#utility.yul\":9474:9483   */\n      dup4\n        /* \"#utility.yul\":9455:9494   */\n      tag_118\n      jump\t// in\n    tag_244:\n        /* \"#utility.yul\":9443:9494   */\n      swap6\n      pop\n        /* \"#utility.yul\":9527:9531   */\n      dup1\n        /* \"#utility.yul\":9523:9532   */\n      not\n        /* \"#utility.yul\":9516:9521   */\n      dup5\n        /* \"#utility.yul\":9512:9533   */\n      and\n        /* \"#utility.yul\":9503:9533   */\n      swap4\n      pop\n        /* \"#utility.yul\":9576:9580   */\n      dup1\n        /* \"#utility.yul\":9566:9574   */\n      dup7\n        /* \"#utility.yul\":9562:9581   */\n      and\n        /* \"#utility.yul\":9555:9560   */\n      dup5\n        /* \"#utility.yul\":9552:9582   */\n      or\n        /* \"#utility.yul\":9542:9582   */\n      swap3\n      pop\n        /* \"#utility.yul\":9271:9588   */\n      pop\n      pop\n        /* \"#utility.yul\":9195:9588   */\n      swap4\n      swap3\n      pop\n      pop\n      pop\n      jump\t// out\n        /* \"#utility.yul\":9594:9654   */\n    tag_120:\n        /* \"#utility.yul\":9622:9625   */\n      0x00\n        /* \"#utility.yul\":9643:9648   */\n      dup2\n        /* \"#utility.yul\":9636:9648   */\n      swap1\n      pop\n        /* \"#utility.yul\":9594:9654   */\n      swap2\n      swap1\n      pop\n      jump\t// out\n        /* \"#utility.yul\":9660:9802   */\n    tag_121:\n        /* \"#utility.yul\":9710:9719   */\n      0x00\n        /* \"#utility.yul\":9743:9796   */\n      tag_247\n        /* \"#utility.yul\":9761:9795   */\n      tag_248\n        /* \"#utility.yul\":9770:9794   */\n      tag_249\n        /* \"#utility.yul\":9788:9793   */\n      dup5\n        /* \"#utility.yul\":9770:9794   */\n      tag_101\n      jump\t// in\n    tag_249:\n        /* \"#utility.yul\":9761:9795   */\n      tag_120\n      jump\t// in\n    tag_248:\n        /* \"#utility.yul\":9743:9796   */\n      tag_101\n      jump\t// in\n    tag_247:\n        /* \"#utility.yul\":9730:9796   */\n      swap1\n      pop\n        /* \"#utility.yul\":9660:9802   */\n      swap2\n      swap1\n      pop\n      jump\t// out\n        /* \"#utility.yul\":9808:9883   */\n    tag_122:\n        /* \"#utility.yul\":9851:9854   */\n      0x00\n        /* \"#utility.yul\":9872:9877   */\n      dup2\n        /* \"#utility.yul\":9865:9877   */\n      swap1\n      pop\n        /* \"#utility.yul\":9808:9883   */\n      swap2\n      swap1\n      pop\n      jump\t// out\n        /* \"#utility.yul\":9889:10158   */\n    tag_123:\n        /* \"#utility.yul\":9999:10038   */\n      tag_252\n        /* \"#utility.yul\":10030:10037   */\n      dup4\n        /* \"#utility.yul\":9999:10038   */\n      tag_121\n      jump\t// in\n    tag_252:\n        /* \"#utility.yul\":10060:10151   */\n      tag_253\n        /* \"#utility.yul\":10109:10150   */\n      tag_254\n        /* \"#utility.yul\":10133:10149   */\n      dup3\n        /* \"#utility.yul\":10109:10150   */\n      tag_122\n      jump\t// in\n    tag_254:\n        /* \"#utility.yul\":10101:10107   */\n      dup5\n        /* \"#utility.yul\":10094:10098   */\n      dup5\n        /* \"#utility.yul\":10088:10099   */\n      sload\n        /* \"#utility.yul\":10060:10151   */\n      tag_119\n      jump\t// in\n    tag_253:\n        /* \"#utility.yul\":10054:10058   */\n      dup3\n        /* \"#utility.yul\":10047:10152   */\n      sstore\n        /* \"#utility.yul\":9965:10158   */\n      pop\n        /* \"#utility.yul\":9889:10158   */\n      pop\n      pop\n      pop\n      jump\t// out\n        /* \"#utility.yul\":10164:10237   */\n    tag_124:\n        /* \"#utility.yul\":10209:10212   */\n      0x00\n        /* \"#utility.yul\":10164:10237   */\n      swap1\n      jump\t// out\n        /* \"#utility.yul\":10243:10432   */\n    tag_125:\n        /* \"#utility.yul\":10320:10352   */\n      tag_257\n      tag_124\n      jump\t// in\n    tag_257:\n        /* \"#utility.yul\":10361:10426   */\n      tag_258\n        /* \"#utility.yul\":10419:10425   */\n      dup2\n        /* \"#utility.yul\":10411:10417   */\n      dup5\n        /* \"#utility.yul\":10405:10409   */\n      dup5\n        /* \"#utility.yul\":10361:10426   */\n      tag_123\n      jump\t// in\n    tag_258:\n        /* \"#utility.yul\":10296:10432   */\n      pop\n        /* \"#utility.yul\":10243:10432   */\n      pop\n      pop\n      jump\t// out\n        /* \"#utility.yul\":10438:10624   */\n    tag_126:\n        /* \"#utility.yul\":10498:10618   */\n    tag_260:\n        /* \"#utility.yul\":10515:10518   */\n      dup2\n        /* \"#utility.yul\":10508:10513   */\n      dup2\n        /* \"#utility.yul\":10505:10519   */\n      lt\n        /* \"#utility.yul\":10498:10618   */\n      iszero\n      tag_262\n      jumpi\n        /* \"#utility.yul\":10569:10608   */\n      tag_263\n        /* \"#utility.yul\":10606:10607   */\n      0x00\n        /* \"#utility.yul\":10599:10604   */\n      dup3\n        /* \"#utility.yul\":10569:10608   */\n      tag_125\n      jump\t// in\n    tag_263:\n        /* \"#utility.yul\":10542:10543   */\n      0x01\n        /* \"#utility.yul\":10535:10540   */\n      dup2\n        /* \"#utility.yul\":10531:10544   */\n      add\n        /* \"#utility.yul\":10522:10544   */\n      swap1\n      pop\n        /* \"#utility.yul\":10498:10618   */\n      jump(tag_260)\n    tag_262:\n        /* \"#utility.yul\":10438:10624   */\n      pop\n      pop\n      jump\t// out\n        /* \"#utility.yul\":10630:11173   */\n    tag_127:\n        /* \"#utility.yul\":10731:10733   */\n      0x1f\n        /* \"#utility.yul\":10726:10729   */\n      dup3\n        /* \"#utility.yul\":10723:10734   */\n      gt\n        /* \"#utility.yul\":10720:11166   */\n      iszero\n      tag_265\n      jumpi\n        /* \"#utility.yul\":10765:10803   */\n      tag_266\n        /* \"#utility.yul\":10797:10802   */\n      dup2\n        /* \"#utility.yul\":10765:10803   */\n      tag_116\n      jump\t// in\n    tag_266:\n        /* \"#utility.yul\":10849:10878   */\n      tag_267\n        /* \"#utility.yul\":10867:10877   */\n      dup5\n        /* \"#utility.yul\":10849:10878   */\n      tag_117\n      jump\t// in\n    tag_267:\n        /* \"#utility.yul\":10839:10847   */\n      dup2\n        /* \"#utility.yul\":10835:10879   */\n      add\n        /* \"#utility.yul\":11032:11034   */\n      0x20\n        /* \"#utility.yul\":11020:11030   */\n      dup6\n        /* \"#utility.yul\":11017:11035   */\n      lt\n        /* \"#utility.yul\":11014:11063   */\n      iszero\n      tag_268\n      jumpi\n        /* \"#utility.yul\":11053:11061   */\n      dup2\n        /* \"#utility.yul\":11038:11061   */\n      swap1\n      pop\n        /* \"#utility.yul\":11014:11063   */\n    tag_268:\n        /* \"#utility.yul\":11076:11156   */\n      tag_269\n        /* \"#utility.yul\":11132:11154   */\n      tag_270\n        /* \"#utility.yul\":11150:11153   */\n      dup6\n        /* \"#utility.yul\":11132:11154   */\n      tag_117\n      jump\t// in\n    tag_270:\n        /* \"#utility.yul\":11122:11130   */\n      dup4\n        /* \"#utility.yul\":11118:11155   */\n      add\n        /* \"#utility.yul\":11105:11116   */\n      dup3\n        /* \"#utility.yul\":11076:11156   */\n      tag_126\n      jump\t// in\n    tag_269:\n        /* \"#utility.yul\":10735:11166   */\n      pop\n      pop\n        /* \"#utility.yul\":10720:11166   */\n    tag_265:\n        /* \"#utility.yul\":10630:11173   */\n      pop\n      pop\n      pop\n      jump\t// out\n        /* \"#utility.yul\":11179:11296   */\n    tag_128:\n        /* \"#utility.yul\":11233:11241   */\n      0x00\n        /* \"#utility.yul\":11283:11288   */\n      dup3\n        /* \"#utility.yul\":11277:11281   */\n      dup3\n        /* \"#utility.yul\":11273:11289   */\n      shr\n        /* \"#utility.yul\":11252:11289   */\n      swap1\n      pop\n        /* \"#utility.yul\":11179:11296   */\n      swap3\n      swap2\n      pop\n      pop\n      jump\t// out\n        /* \"#utility.yul\":11302:11471   */\n    tag_129:\n        /* \"#utility.yul\":11346:11352   */\n      0x00\n        /* \"#utility.yul\":11379:11430   */\n      tag_273\n        /* \"#utility.yul\":11427:11428   */\n      0x00\n        /* \"#utility.yul\":11423:11429   */\n      not\n        /* \"#utility.yul\":11415:11420   */\n      dup5\n        /* \"#utility.yul\":11412:11413   */\n      0x08\n        /* \"#utility.yul\":11408:11421   */\n      mul\n        /* \"#utility.yul\":11379:11430   */\n      tag_128\n      jump\t// in\n    tag_273:\n        /* \"#utility.yul\":11375:11431   */\n      not\n        /* \"#utility.yul\":11460:11464   */\n      dup1\n        /* \"#utility.yul\":11454:11458   */\n      dup4\n        /* \"#utility.yul\":11450:11465   */\n      and\n        /* \"#utility.yul\":11440:11465   */\n      swap2\n      pop\n        /* \"#utility.yul\":11353:11471   */\n      pop\n        /* \"#utility.yul\":11302:11471   */\n      swap3\n      swap2\n      pop\n      pop\n      jump\t// out\n        /* \"#utility.yul\":11476:11771   */\n    tag_130:\n        /* \"#utility.yul\":11552:11556   */\n      0x00\n        /* \"#utility.yul\":11698:11727   */\n      tag_275\n        /* \"#utility.yul\":11723:11726   */\n      dup4\n        /* \"#utility.yul\":11717:11721   */\n      dup4\n        /* \"#utility.yul\":11698:11727   */\n      tag_129\n      jump\t// in\n    tag_275:\n        /* \"#utility.yul\":11690:11727   */\n      swap2\n      pop\n        /* \"#utility.yul\":11760:11763   */\n      dup3\n        /* \"#utility.yul\":11757:11758   */\n      0x02\n        /* \"#utility.yul\":11753:11764   */\n      mul\n        /* \"#utility.yul\":11747:11751   */\n      dup3\n        /* \"#utility.yul\":11744:11765   */\n      or\n        /* \"#utility.yul\":11736:11765   */\n      swap1\n      pop\n        /* \"#utility.yul\":11476:11771   */\n      swap3\n      swap2\n      pop\n      pop\n      jump\t// out\n        /* \"#utility.yul\":11776:13171   */\n    tag_49:\n        /* \"#utility.yul\":11893:11930   */\n      tag_277\n        /* \"#utility.yul\":11926:11929   */\n      dup3\n        /* \"#utility.yul\":11893:11930   */\n      tag_110\n      jump\t// in\n    tag_277:\n        /* \"#utility.yul\":11995:12013   */\n      0xffffffffffffffff\n        /* \"#utility.yul\":11987:11993   */\n      dup2\n        /* \"#utility.yul\":11984:12014   */\n      gt\n        /* \"#utility.yul\":11981:12037   */\n      iszero\n      tag_278\n      jumpi\n        /* \"#utility.yul\":12017:12035   */\n      tag_279\n      tag_94\n      jump\t// in\n    tag_279:\n        /* \"#utility.yul\":11981:12037   */\n    tag_278:\n        /* \"#utility.yul\":12061:12099   */\n      tag_280\n        /* \"#utility.yul\":12093:12097   */\n      dup3\n        /* \"#utility.yul\":12087:12098   */\n      sload\n        /* \"#utility.yul\":12061:12099   */\n      tag_67\n      jump\t// in\n    tag_280:\n        /* \"#utility.yul\":12146:12213   */\n      tag_281\n        /* \"#utility.yul\":12206:12212   */\n      dup3\n        /* \"#utility.yul\":12198:12204   */\n      dup3\n        /* \"#utility.yul\":12192:12196   */\n      dup6\n        /* \"#utility.yul\":12146:12213   */\n      tag_127\n      jump\t// in\n    tag_281:\n        /* \"#utility.yul\":12240:12241   */\n      0x00\n        /* \"#utility.yul\":12264:12268   */\n      0x20\n        /* \"#utility.yul\":12251:12268   */\n      swap1\n      pop\n        /* \"#utility.yul\":12296:12298   */\n      0x1f\n        /* \"#utility.yul\":12288:12294   */\n      dup4\n        /* \"#utility.yul\":12285:12299   */\n      gt\n        /* \"#utility.yul\":12313:12314   */\n      0x01\n        /* \"#utility.yul\":12308:12926   */\n      dup2\n      eq\n      tag_283\n      jumpi\n        /* \"#utility.yul\":12970:12971   */\n      0x00\n        /* \"#utility.yul\":12987:12993   */\n      dup5\n        /* \"#utility.yul\":12984:13061   */\n      iszero\n      tag_284\n      jumpi\n        /* \"#utility.yul\":13036:13045   */\n      dup3\n        /* \"#utility.yul\":13031:13034   */\n      dup8\n        /* \"#utility.yul\":13027:13046   */\n      add\n        /* \"#utility.yul\":13021:13047   */\n      mload\n        /* \"#utility.yul\":13012:13047   */\n      swap1\n      pop\n        /* \"#utility.yul\":12984:13061   */\n    tag_284:\n        /* \"#utility.yul\":13087:13154   */\n      tag_285\n        /* \"#utility.yul\":13147:13153   */\n      dup6\n        /* \"#utility.yul\":13140:13145   */\n      dup3\n        /* \"#utility.yul\":13087:13154   */\n      tag_130\n      jump\t// in\n    tag_285:\n        /* \"#utility.yul\":13081:13085   */\n      dup7\n        /* \"#utility.yul\":13074:13155   */\n      sstore\n        /* \"#utility.yul\":12943:13165   */\n      pop\n        /* \"#utility.yul\":12278:13165   */\n      jump(tag_282)\n        /* \"#utility.yul\":12308:12926   */\n    tag_283:\n        /* \"#utility.yul\":12360:12364   */\n      0x1f\n        /* \"#utility.yul\":12356:12365   */\n      not\n        /* \"#utility.yul\":12348:12354   */\n      dup5\n        /* \"#utility.yul\":12344:12366   */\n      and\n        /* \"#utility.yul\":12394:12431   */\n      tag_286\n        /* \"#utility.yul\":12426:12430   */\n      dup7\n        /* \"#utility.yul\":12394:12431   */\n      tag_116\n      jump\t// in\n    tag_286:\n        /* \"#utility.yul\":12453:12454   */\n      0x00\n        /* \"#utility.yul\":12467:12675   */\n    tag_287:\n        /* \"#utility.yul\":12481:12488   */\n      dup3\n        /* \"#utility.yul\":12478:12479   */\n      dup2\n        /* \"#utility.yul\":12475:12489   */\n      lt\n        /* \"#utility.yul\":12467:12675   */\n      iszero\n      tag_289\n      jumpi\n        /* \"#utility.yul\":12560:12569   */\n      dup5\n        /* \"#utility.yul\":12555:12558   */\n      dup10\n        /* \"#utility.yul\":12551:12570   */\n      add\n        /* \"#utility.yul\":12545:12571   */\n      mload\n        /* \"#utility.yul\":12537:12543   */\n      dup3\n        /* \"#utility.yul\":12530:12572   */\n      sstore\n        /* \"#utility.yul\":12611:12612   */\n      0x01\n        /* \"#utility.yul\":12603:12609   */\n      dup3\n        /* \"#utility.yul\":12599:12613   */\n      add\n        /* \"#utility.yul\":12589:12613   */\n      swap2\n      pop\n        /* \"#utility.yul\":12658:12660   */\n      0x20\n        /* \"#utility.yul\":12647:12656   */\n      dup6\n        /* \"#utility.yul\":12643:12661   */\n      add\n        /* \"#utility.yul\":12630:12661   */\n      swap5\n      pop\n        /* \"#utility.yul\":12504:12508   */\n      0x20\n        /* \"#utility.yul\":12501:12502   */\n      dup2\n        /* \"#utility.yul\":12497:12509   */\n      add\n        /* \"#utility.yul\":12492:12509   */\n      swap1\n      pop\n        /* \"#utility.yul\":12467:12675   */\n      jump(tag_287)\n    tag_289:\n        /* \"#utility.yul\":12703:12709   */\n      dup7\n        /* \"#utility.yul\":12694:12701   */\n      dup4\n        /* \"#utility.yul\":12691:12710   */\n      lt\n        /* \"#utility.yul\":12688:12867   */\n      iszero\n      tag_290\n      jumpi\n        /* \"#utility.yul\":12761:12770   */\n      dup5\n        /* \"#utility.yul\":12756:12759   */\n      dup10\n        /* \"#utility.yul\":12752:12771   */\n      add\n        /* \"#utility.yul\":12746:12772   */\n      mload\n        /* \"#utility.yul\":12804:12852   */\n      tag_291\n        /* \"#utility.yul\":12846:12850   */\n      0x1f\n        /* \"#utility.yul\":12838:12844   */\n      dup10\n        /* \"#utility.yul\":12834:12851   */\n      and\n        /* \"#utility.yul\":12823:12832   */\n      dup3\n        /* \"#utility.yul\":12804:12852   */\n      tag_129\n      jump\t// in\n    tag_291:\n        /* \"#utility.yul\":12796:12802   */\n      dup4\n        /* \"#utility.yul\":12789:12853   */\n      sstore\n        /* \"#utility.yul\":12711:12867   */\n      pop\n        /* \"#utility.yul\":12688:12867   */\n    tag_290:\n        /* \"#utility.yul\":12913:12914   */\n      0x01\n        /* \"#utility.yul\":12909:12910   */\n      0x02\n        /* \"#utility.yul\":12901:12907   */\n      dup9\n        /* \"#utility.yul\":12897:12911   */\n      mul\n        /* \"#utility.yul\":12893:12915   */\n      add\n        /* \"#utility.yul\":12887:12891   */\n      dup9\n        /* \"#utility.yul\":12880:12916   */\n      sstore\n        /* \"#utility.yul\":12315:12926   */\n      pop\n      pop\n      pop\n        /* \"#utility.yul\":12278:13165   */\n    tag_282:\n      pop\n        /* \"#utility.yul\":11868:13171   */\n      pop\n      pop\n      pop\n        /* \"#utility.yul\":11776:13171   */\n      pop\n      pop\n      jump\t// out\n        /* \"#utility.yul\":13177:13346   */\n    tag_131:\n        /* \"#utility.yul\":13317:13338   */\n      0x496e73756666696369656e742073686172657300000000000000000000000000\n        /* \"#utility.yul\":13313:13314   */\n      0x00\n        /* \"#utility.yul\":13305:13311   */\n      dup3\n        /* \"#utility.yul\":13301:13315   */\n      add\n        /* \"#utility.yul\":13294:13339   */\n      mstore\n        /* \"#utility.yul\":13177:13346   */\n      pop\n      jump\t// out\n        /* \"#utility.yul\":13352:13718   */\n    tag_132:\n        /* \"#utility.yul\":13494:13497   */\n      0x00\n        /* \"#utility.yul\":13515:13582   */\n      tag_294\n        /* \"#utility.yul\":13579:13581   */\n      0x13\n        /* \"#utility.yul\":13574:13577   */\n      dup4\n        /* \"#utility.yul\":13515:13582   */\n      tag_111\n      jump\t// in\n    tag_294:\n        /* \"#utility.yul\":13508:13582   */\n      swap2\n      pop\n        /* \"#utility.yul\":13591:13684   */\n      tag_295\n        /* \"#utility.yul\":13680:13683   */\n      dup3\n        /* \"#utility.yul\":13591:13684   */\n      tag_131\n      jump\t// in\n    tag_295:\n        /* \"#utility.yul\":13709:13711   */\n      0x20\n        /* \"#utility.yul\":13704:13707   */\n      dup3\n        /* \"#utility.yul\":13700:13712   */\n      add\n        /* \"#utility.yul\":13693:13712   */\n      swap1\n      pop\n        /* \"#utility.yul\":13352:13718   */\n      swap2\n      swap1\n      pop\n      jump\t// out\n        /* \"#utility.yul\":13724:14143   */\n    tag_59:\n        /* \"#utility.yul\":13890:13894   */\n      0x00\n        /* \"#utility.yul\":13928:13930   */\n      0x20\n        /* \"#utility.yul\":13917:13926   */\n      dup3\n        /* \"#utility.yul\":13913:13931   */\n      add\n        /* \"#utility.yul\":13905:13931   */\n      swap1\n      pop\n        /* \"#utility.yul\":13977:13986   */\n      dup2\n        /* \"#utility.yul\":13971:13975   */\n      dup2\n        /* \"#utility.yul\":13967:13987   */\n      sub\n        /* \"#utility.yul\":13963:13964   */\n      0x00\n        /* \"#utility.yul\":13952:13961   */\n      dup4\n        /* \"#utility.yul\":13948:13965   */\n      add\n        /* \"#utility.yul\":13941:13988   */\n      mstore\n        /* \"#utility.yul\":14005:14136   */\n      tag_297\n        /* \"#utility.yul\":14131:14135   */\n      dup2\n        /* \"#utility.yul\":14005:14136   */\n      tag_132\n      jump\t// in\n    tag_297:\n        /* \"#utility.yul\":13997:14136   */\n      swap1\n      pop\n        /* \"#utility.yul\":13724:14143   */\n      swap2\n      swap1\n      pop\n      jump\t// out\n        /* \"#utility.yul\":14149:14343   */\n    tag_61:\n        /* \"#utility.yul\":14189:14193   */\n      0x00\n        /* \"#utility.yul\":14209:14229   */\n      tag_299\n        /* \"#utility.yul\":14227:14228   */\n      dup3\n        /* \"#utility.yul\":14209:14229   */\n      tag_101\n      jump\t// in\n    tag_299:\n        /* \"#utility.yul\":14204:14229   */\n      swap2\n      pop\n        /* \"#utility.yul\":14243:14263   */\n      tag_300\n        /* \"#utility.yul\":14261:14262   */\n      dup4\n        /* \"#utility.yul\":14243:14263   */\n      tag_101\n      jump\t// in\n    tag_300:\n        /* \"#utility.yul\":14238:14263   */\n      swap3\n      pop\n        /* \"#utility.yul\":14287:14288   */\n      dup3\n        /* \"#utility.yul\":14284:14285   */\n      dup3\n        /* \"#utility.yul\":14280:14289   */\n      sub\n        /* \"#utility.yul\":14272:14289   */\n      swap1\n      pop\n        /* \"#utility.yul\":14311:14312   */\n      dup2\n        /* \"#utility.yul\":14305:14309   */\n      dup2\n        /* \"#utility.yul\":14302:14313   */\n      gt\n        /* \"#utility.yul\":14299:14336   */\n      iszero\n      tag_301\n      jumpi\n        /* \"#utility.yul\":14316:14334   */\n      tag_302\n      tag_114\n      jump\t// in\n    tag_302:\n        /* \"#utility.yul\":14299:14336   */\n    tag_301:\n        /* \"#utility.yul\":14149:14343   */\n      swap3\n      swap2\n      pop\n      pop\n      jump\t// out\n        /* \"#utility.yul\":14349:14540   */\n    tag_63:\n        /* \"#utility.yul\":14389:14392   */\n      0x00\n        /* \"#utility.yul\":14408:14428   */\n      tag_304\n        /* \"#utility.yul\":14426:14427   */\n      dup3\n        /* \"#utility.yul\":14408:14428   */\n      tag_101\n      jump\t// in\n    tag_304:\n        /* \"#utility.yul\":14403:14428   */\n      swap2\n      pop\n        /* \"#utility.yul\":14442:14462   */\n      tag_305\n        /* \"#utility.yul\":14460:14461   */\n      dup4\n        /* \"#utility.yul\":14442:14462   */\n      tag_101\n      jump\t// in\n    tag_305:\n        /* \"#utility.yul\":14437:14462   */\n      swap3\n      pop\n        /* \"#utility.yul\":14485:14486   */\n      dup3\n        /* \"#utility.yul\":14482:14483   */\n      dup3\n        /* \"#utility.yul\":14478:14487   */\n      add\n        /* \"#utility.yul\":14471:14487   */\n      swap1\n      pop\n        /* \"#utility.yul\":14506:14509   */\n      dup1\n        /* \"#utility.yul\":14503:14504   */\n      dup3\n        /* \"#utility.yul\":14500:14510   */\n      gt\n        /* \"#utility.yul\":14497:14533   */\n      iszero\n      tag_306\n      jumpi\n        /* \"#utility.yul\":14513:14531   */\n      tag_307\n      tag_114\n      jump\t// in\n    tag_307:\n        /* \"#utility.yul\":14497:14533   */\n    tag_306:\n        /* \"#utility.yul\":14349:14540   */\n      swap3\n      swap2\n      pop\n      pop\n      jump\t// out\n        /* \"#utility.yul\":14546:14771   */\n    tag_133:\n        /* \"#utility.yul\":14686:14720   */\n      0x4f776e61626c653a206e6577206f776e657220697320746865207a65726f2061\n        /* \"#utility.yul\":14682:14683   */\n      0x00\n        /* \"#utility.yul\":14674:14680   */\n      dup3\n        /* \"#utility.yul\":14670:14684   */\n      add\n        /* \"#utility.yul\":14663:14721   */\n      mstore\n        /* \"#utility.yul\":14755:14763   */\n      0x6464726573730000000000000000000000000000000000000000000000000000\n        /* \"#utility.yul\":14750:14752   */\n      0x20\n        /* \"#utility.yul\":14742:14748   */\n      dup3\n        /* \"#utility.yul\":14738:14753   */\n      add\n        /* \"#utility.yul\":14731:14764   */\n      mstore\n        /* \"#utility.yul\":14546:14771   */\n      pop\n      jump\t// out\n        /* \"#utility.yul\":14777:15143   */\n    tag_134:\n        /* \"#utility.yul\":14919:14922   */\n      0x00\n        /* \"#utility.yul\":14940:15007   */\n      tag_310\n        /* \"#utility.yul\":15004:15006   */\n      0x26\n        /* \"#utility.yul\":14999:15002   */\n      dup4\n        /* \"#utility.yul\":14940:15007   */\n      tag_111\n      jump\t// in\n    tag_310:\n        /* \"#utility.yul\":14933:15007   */\n      swap2\n      pop\n        /* \"#utility.yul\":15016:15109   */\n      tag_311\n        /* \"#utility.yul\":15105:15108   */\n      dup3\n        /* \"#utility.yul\":15016:15109   */\n      tag_133\n      jump\t// in\n    tag_311:\n        /* \"#utility.yul\":15134:15136   */\n      0x40\n        /* \"#utility.yul\":15129:15132   */\n      dup3\n        /* \"#utility.yul\":15125:15137   */\n      add\n        /* \"#utility.yul\":15118:15137   */\n      swap1\n      pop\n        /* \"#utility.yul\":14777:15143   */\n      swap2\n      swap1\n      pop\n      jump\t// out\n        /* \"#utility.yul\":15149:15568   */\n    tag_77:\n        /* \"#utility.yul\":15315:15319   */\n      0x00\n        /* \"#utility.yul\":15353:15355   */\n      0x20\n        /* \"#utility.yul\":15342:15351   */\n      dup3\n        /* \"#utility.yul\":15338:15356   */\n      add\n        /* \"#utility.yul\":15330:15356   */\n      swap1\n      pop\n        /* \"#utility.yul\":15402:15411   */\n      dup2\n        /* \"#utility.yul\":15396:15400   */\n      dup2\n        /* \"#utility.yul\":15392:15412   */\n      sub\n        /* \"#utility.yul\":15388:15389   */\n      0x00\n        /* \"#utility.yul\":15377:15386   */\n      dup4\n        /* \"#utility.yul\":15373:15390   */\n      add\n        /* \"#utility.yul\":15366:15413   */\n      mstore\n        /* \"#utility.yul\":15430:15561   */\n      tag_313\n        /* \"#utility.yul\":15556:15560   */\n      dup2\n        /* \"#utility.yul\":15430:15561   */\n      tag_134\n      jump\t// in\n    tag_313:\n        /* \"#utility.yul\":15422:15561   */\n      swap1\n      pop\n        /* \"#utility.yul\":15149:15568   */\n      swap2\n      swap1\n      pop\n      jump\t// out\n        /* \"#utility.yul\":15574:15756   */\n    tag_135:\n        /* \"#utility.yul\":15714:15748   */\n      0x4f776e61626c653a2063616c6c6572206973206e6f7420746865206f776e6572\n        /* \"#utility.yul\":15710:15711   */\n      0x00\n        /* \"#utility.yul\":15702:15708   */\n      dup3\n        /* \"#utility.yul\":15698:15712   */\n      add\n        /* \"#utility.yul\":15691:15749   */\n      mstore\n        /* \"#utility.yul\":15574:15756   */\n      pop\n      jump\t// out\n        /* \"#utility.yul\":15762:16128   */\n    tag_136:\n        /* \"#utility.yul\":15904:15907   */\n      0x00\n        /* \"#utility.yul\":15925:15992   */\n      tag_316\n        /* \"#utility.yul\":15989:15991   */\n      0x20\n        /* \"#utility.yul\":15984:15987   */\n      dup4\n        /* \"#utility.yul\":15925:15992   */\n      tag_111\n      jump\t// in\n    tag_316:\n        /* \"#utility.yul\":15918:15992   */\n      swap2\n      pop\n        /* \"#utility.yul\":16001:16094   */\n      tag_317\n        /* \"#utility.yul\":16090:16093   */\n      dup3\n        /* \"#utility.yul\":16001:16094   */\n      tag_135\n      jump\t// in\n    tag_317:\n        /* \"#utility.yul\":16119:16121   */\n      0x20\n        /* \"#utility.yul\":16114:16117   */\n      dup3\n        /* \"#utility.yul\":16110:16122   */\n      add\n        /* \"#utility.yul\":16103:16122   */\n      swap1\n      pop\n        /* \"#utility.yul\":15762:16128   */\n      swap2\n      swap1\n      pop\n      jump\t// out\n        /* \"#utility.yul\":16134:16553   */\n    tag_85:\n        /* \"#utility.yul\":16300:16304   */\n      0x00\n        /* \"#utility.yul\":16338:16340   */\n      0x20\n        /* \"#utility.yul\":16327:16336   */\n      dup3\n        /* \"#utility.yul\":16323:16341   */\n      add\n        /* \"#utility.yul\":16315:16341   */\n      swap1\n      pop\n        /* \"#utility.yul\":16387:16396   */\n      dup2\n        /* \"#utility.yul\":16381:16385   */\n      dup2\n        /* \"#utility.yul\":16377:16397   */\n      sub\n        /* \"#utility.yul\":16373:16374   */\n      0x00\n        /* \"#utility.yul\":16362:16371   */\n      dup4\n        /* \"#utility.yul\":16358:16375   */\n      add\n        /* \"#utility.yul\":16351:16398   */\n      mstore\n        /* \"#utility.yul\":16415:16546   */\n      tag_319\n        /* \"#utility.yul\":16541:16545   */\n      dup2\n        /* \"#utility.yul\":16415:16546   */\n      tag_136\n      jump\t// in\n    tag_319:\n        /* \"#utility.yul\":16407:16546   */\n      swap1\n      pop\n        /* \"#utility.yul\":16134:16553   */\n      swap2\n      swap1\n      pop\n      jump\t// out\n\n    auxdata: 0xa264697066735822122067fe2b05b1b435ae3cbf2fcbedc1e1cd401895497da2b2d5faac1179561f24e464736f6c63430008150033\n}\n",
				"bytecode": {
					"linkReferences": {},
					"object": "608060405260018055348015610013575f80fd5b5061003061002561003560201b60201c565b61003c60201b60201c565b6100fd565b5f33905090565b5f805f9054906101000a900473ffffffffffffffffffffffffffffffffffffffff169050815f806101000a81548173ffffffffffffffffffffffffffffffffffffffff021916908373ffffffffffffffffffffffffffffffffffffffff1602179055508173ffffffffffffffffffffffffffffffffffffffff168173ffffffffffffffffffffffffffffffffffffffff167f8be0079c531659141344cd1fd0a4f28419497f9722a3daafe3b4186f6b6457e060405160405180910390a35050565b6110398061010a5f395ff3fe608060405234801561000f575f80fd5b506004361061007b575f3560e01c806384b9a6e61161005957806384b9a6e6146100e95780638da5cb5b14610105578063cf35bdd014610123578063f2fde38b146101545761007b565b80631bc7ffe91461007f5780633656eec2146100af578063715018a6146100df575b5f80fd5b61009960048036038101906100949190610872565b610170565b6040516100a691906108db565b60405180910390f35b6100c960048036038101906100c4919061094e565b61022a565b6040516100d691906108db565b60405180910390f35b6100e7610283565b005b61010360048036038101906100fe919061098c565b610296565b005b61010d61045d565b60405161011a91906109eb565b60405180910390f35b61013d60048036038101906101389190610a04565b610484565b60405161014b929190610aa9565b60405180910390f35b61016e60048036038101906101699190610ad7565b61052a565b005b5f6101796105ac565b5f60015f81548092919061018c90610b2f565b9190505590508360025f8381526020019081526020015f205f0190816101b29190610d70565b508260025f8381526020019081526020015f206001015f3373ffffffffffffffffffffffffffffffffffffffff1673ffffffffffffffffffffffffffffffffffffffff1681526020019081526020015f20819055508260025f8381526020019081526020015f20600201819055508091505092915050565b5f60025f8481526020019081526020015f206001015f8373ffffffffffffffffffffffffffffffffffffffff1673ffffffffffffffffffffffffffffffffffffffff1681526020019081526020015f2054905092915050565b61028b6105ac565b6102945f61062a565b565b8060025f8581526020019081526020015f206001015f3373ffffffffffffffffffffffffffffffffffffffff1673ffffffffffffffffffffffffffffffffffffffff1681526020019081526020015f20541015610328576040517f08c379a000000000000000000000000000000000000000000000000000000000815260040161031f90610e89565b60405180910390fd5b8060025f8581526020019081526020015f206001015f3373ffffffffffffffffffffffffffffffffffffffff1673ffffffffffffffffffffffffffffffffffffffff1681526020019081526020015f205f8282546103869190610ea7565b925050819055508060025f8581526020019081526020015f206001015f8473ffffffffffffffffffffffffffffffffffffffff1673ffffffffffffffffffffffffffffffffffffffff1681526020019081526020015f205f8282546103eb9190610eda565b925050819055508173ffffffffffffffffffffffffffffffffffffffff163373ffffffffffffffffffffffffffffffffffffffff16847f0d93b0e8579bc9db73c85a1fb79d785ffc47f8e20d346253f809cc98c48292a08460405161045091906108db565b60405180910390a4505050565b5f805f9054906101000a900473ffffffffffffffffffffffffffffffffffffffff16905090565b6002602052805f5260405f205f91509050805f0180546104a390610ba3565b80601f01602080910402602001604051908101604052809291908181526020018280546104cf90610ba3565b801561051a5780601f106104f15761010080835404028352916020019161051a565b820191905f5260205f20905b8154815290600101906020018083116104fd57829003601f168201915b5050505050908060020154905082565b6105326105ac565b5f73ffffffffffffffffffffffffffffffffffffffff168173ffffffffffffffffffffffffffffffffffffffff16036105a0576040517f08c379a000000000000000000000000000000000000000000000000000000000815260040161059790610f7d565b60405180910390fd5b6105a98161062a565b50565b6105b46106eb565b73ffffffffffffffffffffffffffffffffffffffff166105d261045d565b73ffffffffffffffffffffffffffffffffffffffff1614610628576040517f08c379a000000000000000000000000000000000000000000000000000000000815260040161061f90610fe5565b60405180910390fd5b565b5f805f9054906101000a900473ffffffffffffffffffffffffffffffffffffffff169050815f806101000a81548173ffffffffffffffffffffffffffffffffffffffff021916908373ffffffffffffffffffffffffffffffffffffffff1602179055508173ffffffffffffffffffffffffffffffffffffffff168173ffffffffffffffffffffffffffffffffffffffff167f8be0079c531659141344cd1fd0a4f28419497f9722a3daafe3b4186f6b6457e060405160405180910390a35050565b5f33905090565b5f604051905090565b5f80fd5b5f80fd5b5f80fd5b5f80fd5b5f601f19601f8301169050919050565b7f4e487b71000000000000000000000000000000000000000000000000000000005f52604160045260245ffd5b6107518261070b565b810181811067ffffffffffffffff821117156107705761076f61071b565b5b80604052505050565b5f6107826106f2565b905061078e8282610748565b919050565b5f67ffffffffffffffff8211156107ad576107ac61071b565b5b6107b68261070b565b9050602081019050919050565b828183375f83830152505050565b5f6107e36107de84610793565b610779565b9050828152602081018484840111156107ff576107fe610707565b5b61080a8482856107c3565b509392505050565b5f82601f83011261082657610825610703565b5b81356108368482602086016107d1565b91505092915050565b5f819050919050565b6108518161083f565b811461085b575f80fd5b50565b5f8135905061086c81610848565b92915050565b5f8060408385031215610888576108876106fb565b5b5f83013567ffffffffffffffff8111156108a5576108a46106ff565b5b6108b185828601610812565b92505060206108c28582860161085e565b9150509250929050565b6108d58161083f565b82525050565b5f6020820190506108ee5f8301846108cc565b92915050565b5f73ffffffffffffffffffffffffffffffffffffffff82169050919050565b5f61091d826108f4565b9050919050565b61092d81610913565b8114610937575f80fd5b50565b5f8135905061094881610924565b92915050565b5f8060408385031215610964576109636106fb565b5b5f6109718582860161085e565b92505060206109828582860161093a565b9150509250929050565b5f805f606084860312156109a3576109a26106fb565b5b5f6109b08682870161085e565b93505060206109c18682870161093a565b92505060406109d28682870161085e565b9150509250925092565b6109e581610913565b82525050565b5f6020820190506109fe5f8301846109dc565b92915050565b5f60208284031215610a1957610a186106fb565b5b5f610a268482850161085e565b91505092915050565b5f81519050919050565b5f82825260208201905092915050565b5f5b83811015610a66578082015181840152602081019050610a4b565b5f8484015250505050565b5f610a7b82610a2f565b610a858185610a39565b9350610a95818560208601610a49565b610a9e8161070b565b840191505092915050565b5f6040820190508181035f830152610ac18185610a71565b9050610ad060208301846108cc565b9392505050565b5f60208284031215610aec57610aeb6106fb565b5b5f610af98482850161093a565b91505092915050565b7f4e487b71000000000000000000000000000000000000000000000000000000005f52601160045260245ffd5b5f610b398261083f565b91507fffffffffffffffffffffffffffffffffffffffffffffffffffffffffffffffff8203610b6b57610b6a610b02565b5b600182019050919050565b7f4e487b71000000000000000000000000000000000000000000000000000000005f52602260045260245ffd5b5f6002820490506001821680610bba57607f821691505b602082108103610bcd57610bcc610b76565b5b50919050565b5f819050815f5260205f209050919050565b5f6020601f8301049050919050565b5f82821b905092915050565b5f60088302610c2f7fffffffffffffffffffffffffffffffffffffffffffffffffffffffffffffffff82610bf4565b610c398683610bf4565b95508019841693508086168417925050509392505050565b5f819050919050565b5f610c74610c6f610c6a8461083f565b610c51565b61083f565b9050919050565b5f819050919050565b610c8d83610c5a565b610ca1610c9982610c7b565b848454610c00565b825550505050565b5f90565b610cb5610ca9565b610cc0818484610c84565b505050565b5b81811015610ce357610cd85f82610cad565b600181019050610cc6565b5050565b601f821115610d2857610cf981610bd3565b610d0284610be5565b81016020851015610d11578190505b610d25610d1d85610be5565b830182610cc5565b50505b505050565b5f82821c905092915050565b5f610d485f1984600802610d2d565b1980831691505092915050565b5f610d608383610d39565b9150826002028217905092915050565b610d7982610a2f565b67ffffffffffffffff811115610d9257610d9161071b565b5b610d9c8254610ba3565b610da7828285610ce7565b5f60209050601f831160018114610dd8575f8415610dc6578287015190505b610dd08582610d55565b865550610e37565b601f198416610de686610bd3565b5f5b82811015610e0d57848901518255600182019150602085019450602081019050610de8565b86831015610e2a5784890151610e26601f891682610d39565b8355505b6001600288020188555050505b505050505050565b7f496e73756666696369656e7420736861726573000000000000000000000000005f82015250565b5f610e73601383610a39565b9150610e7e82610e3f565b602082019050919050565b5f6020820190508181035f830152610ea081610e67565b9050919050565b5f610eb18261083f565b9150610ebc8361083f565b9250828203905081811115610ed457610ed3610b02565b5b92915050565b5f610ee48261083f565b9150610eef8361083f565b9250828201905080821115610f0757610f06610b02565b5b92915050565b7f4f776e61626c653a206e6577206f776e657220697320746865207a65726f20615f8201527f6464726573730000000000000000000000000000000000000000000000000000602082015250565b5f610f67602683610a39565b9150610f7282610f0d565b604082019050919050565b5f6020820190508181035f830152610f9481610f5b565b9050919050565b7f4f776e61626c653a2063616c6c6572206973206e6f7420746865206f776e65725f82015250565b5f610fcf602083610a39565b9150610fda82610f9b565b602082019050919050565b5f6020820190508181035f830152610ffc81610fc3565b905091905056fea264697066735822122067fe2b05b1b435ae3cbf2fcbedc1e1cd401895497da2b2d5faac1179561f24e464736f6c63430008150033",
					"opcodes": "PUSH1 0x80 PUSH1 0x40 MSTORE PUSH1 0x1 DUP1 SSTORE CALLVALUE DUP1 ISZERO PUSH2 0x13 JUMPI PUSH0 DUP1 REVERT JUMPDEST POP PUSH2 0x30 PUSH2 0x25 PUSH2 0x35 PUSH1 0x20 SHL PUSH1 0x20 SHR JUMP JUMPDEST PUSH2 0x3C PUSH1 0x20 SHL PUSH1 0x20 SHR JUMP JUMPDEST PUSH2 0xFD JUMP JUMPDEST PUSH0 CALLER SWAP1 POP SWAP1 JUMP JUMPDEST PUSH0 DUP1 PUSH0 SWAP1 SLOAD SWAP1 PUSH2 0x100 EXP SWAP1 DIV PUSH20 0xFFFFFFFFFFFFFFFFFFFFFFFFFFFFFFFFFFFFFFFF AND SWAP1 POP DUP2 PUSH0 DUP1 PUSH2 0x100 EXP DUP2 SLOAD DUP2 PUSH20 0xFFFFFFFFFFFFFFFFFFFFFFFFFFFFFFFFFFFFFFFF MUL NOT AND SWAP1 DUP4 PUSH20 0xFFFFFFFFFFFFFFFFFFFFFFFFFFFFFFFFFFFFFFFF AND MUL OR SWAP1 SSTORE POP DUP2 PUSH20 0xFFFFFFFFFFFFFFFFFFFFFFFFFFFFFFFFFFFFFFFF AND DUP2 PUSH20 0xFFFFFFFFFFFFFFFFFFFFFFFFFFFFFFFFFFFFFFFF AND PUSH32 0x8BE0079C531659141344CD1FD0A4F28419497F9722A3DAAFE3B4186F6B6457E0 PUSH1 0x40 MLOAD PUSH1 0x40 MLOAD DUP1 SWAP2 SUB SWAP1 LOG3 POP POP JUMP JUMPDEST PUSH2 0x1039 DUP1 PUSH2 0x10A PUSH0 CODECOPY PUSH0 RETURN INVALID PUSH1 0x80 PUSH1 0x40 MSTORE CALLVALUE DUP1 ISZERO PUSH2 0xF JUMPI PUSH0 DUP1 REVERT JUMPDEST POP PUSH1 0x4 CALLDATASIZE LT PUSH2 0x7B JUMPI PUSH0 CALLDATALOAD PUSH1 0xE0 SHR DUP1 PUSH4 0x84B9A6E6 GT PUSH2 0x59 JUMPI DUP1 PUSH4 0x84B9A6E6 EQ PUSH2 0xE9 JUMPI DUP1 PUSH4 0x8DA5CB5B EQ PUSH2 0x105 JUMPI DUP1 PUSH4 0xCF35BDD0 EQ PUSH2 0x123 JUMPI DUP1 PUSH4 0xF2FDE38B EQ PUSH2 0x154 JUMPI PUSH2 0x7B JUMP JUMPDEST DUP1 PUSH4 0x1BC7FFE9 EQ PUSH2 0x7F JUMPI DUP1 PUSH4 0x3656EEC2 EQ PUSH2 0xAF JUMPI DUP1 PUSH4 0x715018A6 EQ PUSH2 0xDF JUMPI JUMPDEST PUSH0 DUP1 REVERT JUMPDEST PUSH2 0x99 PUSH1 0x4 DUP1 CALLDATASIZE SUB DUP2 ADD SWAP1 PUSH2 0x94 SWAP2 SWAP1 PUSH2 0x872 JUMP JUMPDEST PUSH2 0x170 JUMP JUMPDEST PUSH1 0x40 MLOAD PUSH2 0xA6 SWAP2 SWAP1 PUSH2 0x8DB JUMP JUMPDEST PUSH1 0x40 MLOAD DUP1 SWAP2 SUB SWAP1 RETURN JUMPDEST PUSH2 0xC9 PUSH1 0x4 DUP1 CALLDATASIZE SUB DUP2 ADD SWAP1 PUSH2 0xC4 SWAP2 SWAP1 PUSH2 0x94E JUMP JUMPDEST PUSH2 0x22A JUMP JUMPDEST PUSH1 0x40 MLOAD PUSH2 0xD6 SWAP2 SWAP1 PUSH2 0x8DB JUMP JUMPDEST PUSH1 0x40 MLOAD DUP1 SWAP2 SUB SWAP1 RETURN JUMPDEST PUSH2 0xE7 PUSH2 0x283 JUMP JUMPDEST STOP JUMPDEST PUSH2 0x103 PUSH1 0x4 DUP1 CALLDATASIZE SUB DUP2 ADD SWAP1 PUSH2 0xFE SWAP2 SWAP1 PUSH2 0x98C JUMP JUMPDEST PUSH2 0x296 JUMP JUMPDEST STOP JUMPDEST PUSH2 0x10D PUSH2 0x45D JUMP JUMPDEST PUSH1 0x40 MLOAD PUSH2 0x11A SWAP2 SWAP1 PUSH2 0x9EB JUMP JUMPDEST PUSH1 0x40 MLOAD DUP1 SWAP2 SUB SWAP1 RETURN JUMPDEST PUSH2 0x13D PUSH1 0x4 DUP1 CALLDATASIZE SUB DUP2 ADD SWAP1 PUSH2 0x138 SWAP2 SWAP1 PUSH2 0xA04 JUMP JUMPDEST PUSH2 0x484 JUMP JUMPDEST PUSH1 0x40 MLOAD PUSH2 0x14B SWAP3 SWAP2 SWAP1 PUSH2 0xAA9 JUMP JUMPDEST PUSH1 0x40 MLOAD DUP1 SWAP2 SUB SWAP1 RETURN JUMPDEST PUSH2 0x16E PUSH1 0x4 DUP1 CALLDATASIZE SUB DUP2 ADD SWAP1 PUSH2 0x169 SWAP2 SWAP1 PUSH2 0xAD7 JUMP JUMPDEST PUSH2 0x52A JUMP JUMPDEST STOP JUMPDEST PUSH0 PUSH2 0x179 PUSH2 0x5AC JUMP JUMPDEST PUSH0 PUSH1 0x1 PUSH0 DUP2 SLOAD DUP1 SWAP3 SWAP2 SWAP1 PUSH2 0x18C SWAP1 PUSH2 0xB2F JUMP JUMPDEST SWAP2 SWAP1 POP SSTORE SWAP1 POP DUP4 PUSH1 0x2 PUSH0 DUP4 DUP2 MSTORE PUSH1 0x20 ADD SWAP1 DUP2 MSTORE PUSH1 0x20 ADD PUSH0 KECCAK256 PUSH0 ADD SWAP1 DUP2 PUSH2 0x1B2 SWAP2 SWAP1 PUSH2 0xD70 JUMP JUMPDEST POP DUP3 PUSH1 0x2 PUSH0 DUP4 DUP2 MSTORE PUSH1 0x20 ADD SWAP1 DUP2 MSTORE PUSH1 0x20 ADD PUSH0 KECCAK256 PUSH1 0x1 ADD PUSH0 CALLER PUSH20 0xFFFFFFFFFFFFFFFFFFFFFFFFFFFFFFFFFFFFFFFF AND PUSH20 0xFFFFFFFFFFFFFFFFFFFFFFFFFFFFFFFFFFFFFFFF AND DUP2 MSTORE PUSH1 0x20 ADD SWAP1 DUP2 MSTORE PUSH1 0x20 ADD PUSH0 KECCAK256 DUP2 SWAP1 SSTORE POP DUP3 PUSH1 0x2 PUSH0 DUP4 DUP2 MSTORE PUSH1 0x20 ADD SWAP1 DUP2 MSTORE PUSH1 0x20 ADD PUSH0 KECCAK256 PUSH1 0x2 ADD DUP2 SWAP1 SSTORE POP DUP1 SWAP2 POP POP SWAP3 SWAP2 POP POP JUMP JUMPDEST PUSH0 PUSH1 0x2 PUSH0 DUP5 DUP2 MSTORE PUSH1 0x20 ADD SWAP1 DUP2 MSTORE PUSH1 0x20 ADD PUSH0 KECCAK256 PUSH1 0x1 ADD PUSH0 DUP4 PUSH20 0xFFFFFFFFFFFFFFFFFFFFFFFFFFFFFFFFFFFFFFFF AND PUSH20 0xFFFFFFFFFFFFFFFFFFFFFFFFFFFFFFFFFFFFFFFF AND DUP2 MSTORE PUSH1 0x20 ADD SWAP1 DUP2 MSTORE PUSH1 0x20 ADD PUSH0 KECCAK256 SLOAD SWAP1 POP SWAP3 SWAP2 POP POP JUMP JUMPDEST PUSH2 0x28B PUSH2 0x5AC JUMP JUMPDEST PUSH2 0x294 PUSH0 PUSH2 0x62A JUMP JUMPDEST JUMP JUMPDEST DUP1 PUSH1 0x2 PUSH0 DUP6 DUP2 MSTORE PUSH1 0x20 ADD SWAP1 DUP2 MSTORE PUSH1 0x20 ADD PUSH0 KECCAK256 PUSH1 0x1 ADD PUSH0 CALLER PUSH20 0xFFFFFFFFFFFFFFFFFFFFFFFFFFFFFFFFFFFFFFFF AND PUSH20 0xFFFFFFFFFFFFFFFFFFFFFFFFFFFFFFFFFFFFFFFF AND DUP2 MSTORE PUSH1 0x20 ADD SWAP1 DUP2 MSTORE PUSH1 0x20 ADD PUSH0 KECCAK256 SLOAD LT ISZERO PUSH2 0x328 JUMPI PUSH1 0x40 MLOAD PUSH32 0x8C379A000000000000000000000000000000000000000000000000000000000 DUP2 MSTORE PUSH1 0x4 ADD PUSH2 0x31F SWAP1 PUSH2 0xE89 JUMP JUMPDEST PUSH1 0x40 MLOAD DUP1 SWAP2 SUB SWAP1 REVERT JUMPDEST DUP1 PUSH1 0x2 PUSH0 DUP6 DUP2 MSTORE PUSH1 0x20 ADD SWAP1 DUP2 MSTORE PUSH1 0x20 ADD PUSH0 KECCAK256 PUSH1 0x1 ADD PUSH0 CALLER PUSH20 0xFFFFFFFFFFFFFFFFFFFFFFFFFFFFFFFFFFFFFFFF AND PUSH20 0xFFFFFFFFFFFFFFFFFFFFFFFFFFFFFFFFFFFFFFFF AND DUP2 MSTORE PUSH1 0x20 ADD SWAP1 DUP2 MSTORE PUSH1 0x20 ADD PUSH0 KECCAK256 PUSH0 DUP3 DUP3 SLOAD PUSH2 0x386 SWAP2 SWAP1 PUSH2 0xEA7 JUMP JUMPDEST SWAP3 POP POP DUP2 SWAP1 SSTORE POP DUP1 PUSH1 0x2 PUSH0 DUP6 DUP2 MSTORE PUSH1 0x20 ADD SWAP1 DUP2 MSTORE PUSH1 0x20 ADD PUSH0 KECCAK256 PUSH1 0x1 ADD PUSH0 DUP5 PUSH20 0xFFFFFFFFFFFFFFFFFFFFFFFFFFFFFFFFFFFFFFFF AND PUSH20 0xFFFFFFFFFFFFFFFFFFFFFFFFFFFFFFFFFFFFFFFF AND DUP2 MSTORE PUSH1 0x20 ADD SWAP1 DUP2 MSTORE PUSH1 0x20 ADD PUSH0 KECCAK256 PUSH0 DUP3 DUP3 SLOAD PUSH2 0x3EB SWAP2 SWAP1 PUSH2 0xEDA JUMP JUMPDEST SWAP3 POP POP DUP2 SWAP1 SSTORE POP DUP2 PUSH20 0xFFFFFFFFFFFFFFFFFFFFFFFFFFFFFFFFFFFFFFFF AND CALLER PUSH20 0xFFFFFFFFFFFFFFFFFFFFFFFFFFFFFFFFFFFFFFFF AND DUP5 PUSH32 0xD93B0E8579BC9DB73C85A1FB79D785FFC47F8E20D346253F809CC98C48292A0 DUP5 PUSH1 0x40 MLOAD PUSH2 0x450 SWAP2 SWAP1 PUSH2 0x8DB JUMP JUMPDEST PUSH1 0x40 MLOAD DUP1 SWAP2 SUB SWAP1 LOG4 POP POP POP JUMP JUMPDEST PUSH0 DUP1 PUSH0 SWAP1 SLOAD SWAP1 PUSH2 0x100 EXP SWAP1 DIV PUSH20 0xFFFFFFFFFFFFFFFFFFFFFFFFFFFFFFFFFFFFFFFF AND SWAP1 POP SWAP1 JUMP JUMPDEST PUSH1 0x2 PUSH1 0x20 MSTORE DUP1 PUSH0 MSTORE PUSH1 0x40 PUSH0 KECCAK256 PUSH0 SWAP2 POP SWAP1 POP DUP1 PUSH0 ADD DUP1 SLOAD PUSH2 0x4A3 SWAP1 PUSH2 0xBA3 JUMP JUMPDEST DUP1 PUSH1 0x1F ADD PUSH1 0x20 DUP1 SWAP2 DIV MUL PUSH1 0x20 ADD PUSH1 0x40 MLOAD SWAP1 DUP2 ADD PUSH1 0x40 MSTORE DUP1 SWAP3 SWAP2 SWAP1 DUP2 DUP2 MSTORE PUSH1 0x20 ADD DUP3 DUP1 SLOAD PUSH2 0x4CF SWAP1 PUSH2 0xBA3 JUMP JUMPDEST DUP1 ISZERO PUSH2 0x51A JUMPI DUP1 PUSH1 0x1F LT PUSH2 0x4F1 JUMPI PUSH2 0x100 DUP1 DUP4 SLOAD DIV MUL DUP4 MSTORE SWAP2 PUSH1 0x20 ADD SWAP2 PUSH2 0x51A JUMP JUMPDEST DUP3 ADD SWAP2 SWAP1 PUSH0 MSTORE PUSH1 0x20 PUSH0 KECCAK256 SWAP1 JUMPDEST DUP2 SLOAD DUP2 MSTORE SWAP1 PUSH1 0x1 ADD SWAP1 PUSH1 0x20 ADD DUP1 DUP4 GT PUSH2 0x4FD JUMPI DUP3 SWAP1 SUB PUSH1 0x1F AND DUP3 ADD SWAP2 JUMPDEST POP POP POP POP POP SWAP1 DUP1 PUSH1 0x2 ADD SLOAD SWAP1 POP DUP3 JUMP JUMPDEST PUSH2 0x532 PUSH2 0x5AC JUMP JUMPDEST PUSH0 PUSH20 0xFFFFFFFFFFFFFFFFFFFFFFFFFFFFFFFFFFFFFFFF AND DUP2 PUSH20 0xFFFFFFFFFFFFFFFFFFFFFFFFFFFFFFFFFFFFFFFF AND SUB PUSH2 0x5A0 JUMPI PUSH1 0x40 MLOAD PUSH32 0x8C379A000000000000000000000000000000000000000000000000000000000 DUP2 MSTORE PUSH1 0x4 ADD PUSH2 0x597 SWAP1 PUSH2 0xF7D JUMP JUMPDEST PUSH1 0x40 MLOAD DUP1 SWAP2 SUB SWAP1 REVERT JUMPDEST PUSH2 0x5A9 DUP2 PUSH2 0x62A JUMP JUMPDEST POP JUMP JUMPDEST PUSH2 0x5B4 PUSH2 0x6EB JUMP JUMPDEST PUSH20 0xFFFFFFFFFFFFFFFFFFFFFFFFFFFFFFFFFFFFFFFF AND PUSH2 0x5D2 PUSH2 0x45D JUMP JUMPDEST PUSH20 0xFFFFFFFFFFFFFFFFFFFFFFFFFFFFFFFFFFFFFFFF AND EQ PUSH2 0x628 JUMPI PUSH1 0x40 MLOAD PUSH32 0x8C379A000000000000000000000000000000000000000000000000000000000 DUP2 MSTORE PUSH1 0x4 ADD PUSH2 0x61F SWAP1 PUSH2 0xFE5 JUMP JUMPDEST PUSH1 0x40 MLOAD DUP1 SWAP2 SUB SWAP1 REVERT JUMPDEST JUMP JUMPDEST PUSH0 DUP1 PUSH0 SWAP1 SLOAD SWAP1 PUSH2 0x100 EXP SWAP1 DIV PUSH20 0xFFFFFFFFFFFFFFFFFFFFFFFFFFFFFFFFFFFFFFFF AND SWAP1 POP DUP2 PUSH0 DUP1 PUSH2 0x100 EXP DUP2 SLOAD DUP2 PUSH20 0xFFFFFFFFFFFFFFFFFFFFFFFFFFFFFFFFFFFFFFFF MUL NOT AND SWAP1 DUP4 PUSH20 0xFFFFFFFFFFFFFFFFFFFFFFFFFFFFFFFFFFFFFFFF AND MUL OR SWAP1 SSTORE POP DUP2 PUSH20 0xFFFFFFFFFFFFFFFFFFFFFFFFFFFFFFFFFFFFFFFF AND DUP2 PUSH20 0xFFFFFFFFFFFFFFFFFFFFFFFFFFFFFFFFFFFFFFFF AND PUSH32 0x8BE0079C531659141344CD1FD0A4F28419497F9722A3DAAFE3B4186F6B6457E0 PUSH1 0x40 MLOAD PUSH1 0x40 MLOAD DUP1 SWAP2 SUB SWAP1 LOG3 POP POP JUMP JUMPDEST PUSH0 CALLER SWAP1 POP SWAP1 JUMP JUMPDEST PUSH0 PUSH1 0x40 MLOAD SWAP1 POP SWAP1 JUMP JUMPDEST PUSH0 DUP1 REVERT JUMPDEST PUSH0 DUP1 REVERT JUMPDEST PUSH0 DUP1 REVERT JUMPDEST PUSH0 DUP1 REVERT JUMPDEST PUSH0 PUSH1 0x1F NOT PUSH1 0x1F DUP4 ADD AND SWAP1 POP SWAP2 SWAP1 POP JUMP JUMPDEST PUSH32 0x4E487B7100000000000000000000000000000000000000000000000000000000 PUSH0 MSTORE PUSH1 0x41 PUSH1 0x4 MSTORE PUSH1 0x24 PUSH0 REVERT JUMPDEST PUSH2 0x751 DUP3 PUSH2 0x70B JUMP JUMPDEST DUP2 ADD DUP2 DUP2 LT PUSH8 0xFFFFFFFFFFFFFFFF DUP3 GT OR ISZERO PUSH2 0x770 JUMPI PUSH2 0x76F PUSH2 0x71B JUMP JUMPDEST JUMPDEST DUP1 PUSH1 0x40 MSTORE POP POP POP JUMP JUMPDEST PUSH0 PUSH2 0x782 PUSH2 0x6F2 JUMP JUMPDEST SWAP1 POP PUSH2 0x78E DUP3 DUP3 PUSH2 0x748 JUMP JUMPDEST SWAP2 SWAP1 POP JUMP JUMPDEST PUSH0 PUSH8 0xFFFFFFFFFFFFFFFF DUP3 GT ISZERO PUSH2 0x7AD JUMPI PUSH2 0x7AC PUSH2 0x71B JUMP JUMPDEST JUMPDEST PUSH2 0x7B6 DUP3 PUSH2 0x70B JUMP JUMPDEST SWAP1 POP PUSH1 0x20 DUP2 ADD SWAP1 POP SWAP2 SWAP1 POP JUMP JUMPDEST DUP3 DUP2 DUP4 CALLDATACOPY PUSH0 DUP4 DUP4 ADD MSTORE POP POP POP JUMP JUMPDEST PUSH0 PUSH2 0x7E3 PUSH2 0x7DE DUP5 PUSH2 0x793 JUMP JUMPDEST PUSH2 0x779 JUMP JUMPDEST SWAP1 POP DUP3 DUP2 MSTORE PUSH1 0x20 DUP2 ADD DUP5 DUP5 DUP5 ADD GT ISZERO PUSH2 0x7FF JUMPI PUSH2 0x7FE PUSH2 0x707 JUMP JUMPDEST JUMPDEST PUSH2 0x80A DUP5 DUP3 DUP6 PUSH2 0x7C3 JUMP JUMPDEST POP SWAP4 SWAP3 POP POP POP JUMP JUMPDEST PUSH0 DUP3 PUSH1 0x1F DUP4 ADD SLT PUSH2 0x826 JUMPI PUSH2 0x825 PUSH2 0x703 JUMP JUMPDEST JUMPDEST DUP2 CALLDATALOAD PUSH2 0x836 DUP5 DUP3 PUSH1 0x20 DUP7 ADD PUSH2 0x7D1 JUMP JUMPDEST SWAP2 POP POP SWAP3 SWAP2 POP POP JUMP JUMPDEST PUSH0 DUP2 SWAP1 POP SWAP2 SWAP1 POP JUMP JUMPDEST PUSH2 0x851 DUP2 PUSH2 0x83F JUMP JUMPDEST DUP2 EQ PUSH2 0x85B JUMPI PUSH0 DUP1 REVERT JUMPDEST POP JUMP JUMPDEST PUSH0 DUP2 CALLDATALOAD SWAP1 POP PUSH2 0x86C DUP2 PUSH2 0x848 JUMP JUMPDEST SWAP3 SWAP2 POP POP JUMP JUMPDEST PUSH0 DUP1 PUSH1 0x40 DUP4 DUP6 SUB SLT ISZERO PUSH2 0x888 JUMPI PUSH2 0x887 PUSH2 0x6FB JUMP JUMPDEST JUMPDEST PUSH0 DUP4 ADD CALLDATALOAD PUSH8 0xFFFFFFFFFFFFFFFF DUP2 GT ISZERO PUSH2 0x8A5 JUMPI PUSH2 0x8A4 PUSH2 0x6FF JUMP JUMPDEST JUMPDEST PUSH2 0x8B1 DUP6 DUP3 DUP7 ADD PUSH2 0x812 JUMP JUMPDEST SWAP3 POP POP PUSH1 0x20 PUSH2 0x8C2 DUP6 DUP3 DUP7 ADD PUSH2 0x85E JUMP JUMPDEST SWAP2 POP POP SWAP3 POP SWAP3 SWAP1 POP JUMP JUMPDEST PUSH2 0x8D5 DUP2 PUSH2 0x83F JUMP JUMPDEST DUP3 MSTORE POP POP JUMP JUMPDEST PUSH0 PUSH1 0x20 DUP3 ADD SWAP1 POP PUSH2 0x8EE PUSH0 DUP4 ADD DUP5 PUSH2 0x8CC JUMP JUMPDEST SWAP3 SWAP2 POP POP JUMP JUMPDEST PUSH0 PUSH20 0xFFFFFFFFFFFFFFFFFFFFFFFFFFFFFFFFFFFFFFFF DUP3 AND SWAP1 POP SWAP2 SWAP1 POP JUMP JUMPDEST PUSH0 PUSH2 0x91D DUP3 PUSH2 0x8F4 JUMP JUMPDEST SWAP1 POP SWAP2 SWAP1 POP JUMP JUMPDEST PUSH2 0x92D DUP2 PUSH2 0x913 JUMP JUMPDEST DUP2 EQ PUSH2 0x937 JUMPI PUSH0 DUP1 REVERT JUMPDEST POP JUMP JUMPDEST PUSH0 DUP2 CALLDATALOAD SWAP1 POP PUSH2 0x948 DUP2 PUSH2 0x924 JUMP JUMPDEST SWAP3 SWAP2 POP POP JUMP JUMPDEST PUSH0 DUP1 PUSH1 0x40 DUP4 DUP6 SUB SLT ISZERO PUSH2 0x964 JUMPI PUSH2 0x963 PUSH2 0x6FB JUMP JUMPDEST JUMPDEST PUSH0 PUSH2 0x971 DUP6 DUP3 DUP7 ADD PUSH2 0x85E JUMP JUMPDEST SWAP3 POP POP PUSH1 0x20 PUSH2 0x982 DUP6 DUP3 DUP7 ADD PUSH2 0x93A JUMP JUMPDEST SWAP2 POP POP SWAP3 POP SWAP3 SWAP1 POP JUMP JUMPDEST PUSH0 DUP1 PUSH0 PUSH1 0x60 DUP5 DUP7 SUB SLT ISZERO PUSH2 0x9A3 JUMPI PUSH2 0x9A2 PUSH2 0x6FB JUMP JUMPDEST JUMPDEST PUSH0 PUSH2 0x9B0 DUP7 DUP3 DUP8 ADD PUSH2 0x85E JUMP JUMPDEST SWAP4 POP POP PUSH1 0x20 PUSH2 0x9C1 DUP7 DUP3 DUP8 ADD PUSH2 0x93A JUMP JUMPDEST SWAP3 POP POP PUSH1 0x40 PUSH2 0x9D2 DUP7 DUP3 DUP8 ADD PUSH2 0x85E JUMP JUMPDEST SWAP2 POP POP SWAP3 POP SWAP3 POP SWAP3 JUMP JUMPDEST PUSH2 0x9E5 DUP2 PUSH2 0x913 JUMP JUMPDEST DUP3 MSTORE POP POP JUMP JUMPDEST PUSH0 PUSH1 0x20 DUP3 ADD SWAP1 POP PUSH2 0x9FE PUSH0 DUP4 ADD DUP5 PUSH2 0x9DC JUMP JUMPDEST SWAP3 SWAP2 POP POP JUMP JUMPDEST PUSH0 PUSH1 0x20 DUP3 DUP5 SUB SLT ISZERO PUSH2 0xA19 JUMPI PUSH2 0xA18 PUSH2 0x6FB JUMP JUMPDEST JUMPDEST PUSH0 PUSH2 0xA26 DUP5 DUP3 DUP6 ADD PUSH2 0x85E JUMP JUMPDEST SWAP2 POP POP SWAP3 SWAP2 POP POP JUMP JUMPDEST PUSH0 DUP2 MLOAD SWAP1 POP SWAP2 SWAP1 POP JUMP JUMPDEST PUSH0 DUP3 DUP3 MSTORE PUSH1 0x20 DUP3 ADD SWAP1 POP SWAP3 SWAP2 POP POP JUMP JUMPDEST PUSH0 JUMPDEST DUP4 DUP2 LT ISZERO PUSH2 0xA66 JUMPI DUP1 DUP3 ADD MLOAD DUP2 DUP5 ADD MSTORE PUSH1 0x20 DUP2 ADD SWAP1 POP PUSH2 0xA4B JUMP JUMPDEST PUSH0 DUP5 DUP5 ADD MSTORE POP POP POP POP JUMP JUMPDEST PUSH0 PUSH2 0xA7B DUP3 PUSH2 0xA2F JUMP JUMPDEST PUSH2 0xA85 DUP2 DUP6 PUSH2 0xA39 JUMP JUMPDEST SWAP4 POP PUSH2 0xA95 DUP2 DUP6 PUSH1 0x20 DUP7 ADD PUSH2 0xA49 JUMP JUMPDEST PUSH2 0xA9E DUP2 PUSH2 0x70B JUMP JUMPDEST DUP5 ADD SWAP2 POP POP SWAP3 SWAP2 POP POP JUMP JUMPDEST PUSH0 PUSH1 0x40 DUP3 ADD SWAP1 POP DUP2 DUP2 SUB PUSH0 DUP4 ADD MSTORE PUSH2 0xAC1 DUP2 DUP6 PUSH2 0xA71 JUMP JUMPDEST SWAP1 POP PUSH2 0xAD0 PUSH1 0x20 DUP4 ADD DUP5 PUSH2 0x8CC JUMP JUMPDEST SWAP4 SWAP3 POP POP POP JUMP JUMPDEST PUSH0 PUSH1 0x20 DUP3 DUP5 SUB SLT ISZERO PUSH2 0xAEC JUMPI PUSH2 0xAEB PUSH2 0x6FB JUMP JUMPDEST JUMPDEST PUSH0 PUSH2 0xAF9 DUP5 DUP3 DUP6 ADD PUSH2 0x93A JUMP JUMPDEST SWAP2 POP POP SWAP3 SWAP2 POP POP JUMP JUMPDEST PUSH32 0x4E487B7100000000000000000000000000000000000000000000000000000000 PUSH0 MSTORE PUSH1 0x11 PUSH1 0x4 MSTORE PUSH1 0x24 PUSH0 REVERT JUMPDEST PUSH0 PUSH2 0xB39 DUP3 PUSH2 0x83F JUMP JUMPDEST SWAP2 POP PUSH32 0xFFFFFFFFFFFFFFFFFFFFFFFFFFFFFFFFFFFFFFFFFFFFFFFFFFFFFFFFFFFFFFFF DUP3 SUB PUSH2 0xB6B JUMPI PUSH2 0xB6A PUSH2 0xB02 JUMP JUMPDEST JUMPDEST PUSH1 0x1 DUP3 ADD SWAP1 POP SWAP2 SWAP1 POP JUMP JUMPDEST PUSH32 0x4E487B7100000000000000000000000000000000000000000000000000000000 PUSH0 MSTORE PUSH1 0x22 PUSH1 0x4 MSTORE PUSH1 0x24 PUSH0 REVERT JUMPDEST PUSH0 PUSH1 0x2 DUP3 DIV SWAP1 POP PUSH1 0x1 DUP3 AND DUP1 PUSH2 0xBBA JUMPI PUSH1 0x7F DUP3 AND SWAP2 POP JUMPDEST PUSH1 0x20 DUP3 LT DUP2 SUB PUSH2 0xBCD JUMPI PUSH2 0xBCC PUSH2 0xB76 JUMP JUMPDEST JUMPDEST POP SWAP2 SWAP1 POP JUMP JUMPDEST PUSH0 DUP2 SWAP1 POP DUP2 PUSH0 MSTORE PUSH1 0x20 PUSH0 KECCAK256 SWAP1 POP SWAP2 SWAP1 POP JUMP JUMPDEST PUSH0 PUSH1 0x20 PUSH1 0x1F DUP4 ADD DIV SWAP1 POP SWAP2 SWAP1 POP JUMP JUMPDEST PUSH0 DUP3 DUP3 SHL SWAP1 POP SWAP3 SWAP2 POP POP JUMP JUMPDEST PUSH0 PUSH1 0x8 DUP4 MUL PUSH2 0xC2F PUSH32 0xFFFFFFFFFFFFFFFFFFFFFFFFFFFFFFFFFFFFFFFFFFFFFFFFFFFFFFFFFFFFFFFF DUP3 PUSH2 0xBF4 JUMP JUMPDEST PUSH2 0xC39 DUP7 DUP4 PUSH2 0xBF4 JUMP JUMPDEST SWAP6 POP DUP1 NOT DUP5 AND SWAP4 POP DUP1 DUP7 AND DUP5 OR SWAP3 POP POP POP SWAP4 SWAP3 POP POP POP JUMP JUMPDEST PUSH0 DUP2 SWAP1 POP SWAP2 SWAP1 POP JUMP JUMPDEST PUSH0 PUSH2 0xC74 PUSH2 0xC6F PUSH2 0xC6A DUP5 PUSH2 0x83F JUMP JUMPDEST PUSH2 0xC51 JUMP JUMPDEST PUSH2 0x83F JUMP JUMPDEST SWAP1 POP SWAP2 SWAP1 POP JUMP JUMPDEST PUSH0 DUP2 SWAP1 POP SWAP2 SWAP1 POP JUMP JUMPDEST PUSH2 0xC8D DUP4 PUSH2 0xC5A JUMP JUMPDEST PUSH2 0xCA1 PUSH2 0xC99 DUP3 PUSH2 0xC7B JUMP JUMPDEST DUP5 DUP5 SLOAD PUSH2 0xC00 JUMP JUMPDEST DUP3 SSTORE POP POP POP POP JUMP JUMPDEST PUSH0 SWAP1 JUMP JUMPDEST PUSH2 0xCB5 PUSH2 0xCA9 JUMP JUMPDEST PUSH2 0xCC0 DUP2 DUP5 DUP5 PUSH2 0xC84 JUMP JUMPDEST POP POP POP JUMP JUMPDEST JUMPDEST DUP2 DUP2 LT ISZERO PUSH2 0xCE3 JUMPI PUSH2 0xCD8 PUSH0 DUP3 PUSH2 0xCAD JUMP JUMPDEST PUSH1 0x1 DUP2 ADD SWAP1 POP PUSH2 0xCC6 JUMP JUMPDEST POP POP JUMP JUMPDEST PUSH1 0x1F DUP3 GT ISZERO PUSH2 0xD28 JUMPI PUSH2 0xCF9 DUP2 PUSH2 0xBD3 JUMP JUMPDEST PUSH2 0xD02 DUP5 PUSH2 0xBE5 JUMP JUMPDEST DUP2 ADD PUSH1 0x20 DUP6 LT ISZERO PUSH2 0xD11 JUMPI DUP2 SWAP1 POP JUMPDEST PUSH2 0xD25 PUSH2 0xD1D DUP6 PUSH2 0xBE5 JUMP JUMPDEST DUP4 ADD DUP3 PUSH2 0xCC5 JUMP JUMPDEST POP POP JUMPDEST POP POP POP JUMP JUMPDEST PUSH0 DUP3 DUP3 SHR SWAP1 POP SWAP3 SWAP2 POP POP JUMP JUMPDEST PUSH0 PUSH2 0xD48 PUSH0 NOT DUP5 PUSH1 0x8 MUL PUSH2 0xD2D JUMP JUMPDEST NOT DUP1 DUP4 AND SWAP2 POP POP SWAP3 SWAP2 POP POP JUMP JUMPDEST PUSH0 PUSH2 0xD60 DUP4 DUP4 PUSH2 0xD39 JUMP JUMPDEST SWAP2 POP DUP3 PUSH1 0x2 MUL DUP3 OR SWAP1 POP SWAP3 SWAP2 POP POP JUMP JUMPDEST PUSH2 0xD79 DUP3 PUSH2 0xA2F JUMP JUMPDEST PUSH8 0xFFFFFFFFFFFFFFFF DUP2 GT ISZERO PUSH2 0xD92 JUMPI PUSH2 0xD91 PUSH2 0x71B JUMP JUMPDEST JUMPDEST PUSH2 0xD9C DUP3 SLOAD PUSH2 0xBA3 JUMP JUMPDEST PUSH2 0xDA7 DUP3 DUP3 DUP6 PUSH2 0xCE7 JUMP JUMPDEST PUSH0 PUSH1 0x20 SWAP1 POP PUSH1 0x1F DUP4 GT PUSH1 0x1 DUP2 EQ PUSH2 0xDD8 JUMPI PUSH0 DUP5 ISZERO PUSH2 0xDC6 JUMPI DUP3 DUP8 ADD MLOAD SWAP1 POP JUMPDEST PUSH2 0xDD0 DUP6 DUP3 PUSH2 0xD55 JUMP JUMPDEST DUP7 SSTORE POP PUSH2 0xE37 JUMP JUMPDEST PUSH1 0x1F NOT DUP5 AND PUSH2 0xDE6 DUP7 PUSH2 0xBD3 JUMP JUMPDEST PUSH0 JUMPDEST DUP3 DUP2 LT ISZERO PUSH2 0xE0D JUMPI DUP5 DUP10 ADD MLOAD DUP3 SSTORE PUSH1 0x1 DUP3 ADD SWAP2 POP PUSH1 0x20 DUP6 ADD SWAP5 POP PUSH1 0x20 DUP2 ADD SWAP1 POP PUSH2 0xDE8 JUMP JUMPDEST DUP7 DUP4 LT ISZERO PUSH2 0xE2A JUMPI DUP5 DUP10 ADD MLOAD PUSH2 0xE26 PUSH1 0x1F DUP10 AND DUP3 PUSH2 0xD39 JUMP JUMPDEST DUP4 SSTORE POP JUMPDEST PUSH1 0x1 PUSH1 0x2 DUP9 MUL ADD DUP9 SSTORE POP POP POP JUMPDEST POP POP POP POP POP POP JUMP JUMPDEST PUSH32 0x496E73756666696369656E742073686172657300000000000000000000000000 PUSH0 DUP3 ADD MSTORE POP JUMP JUMPDEST PUSH0 PUSH2 0xE73 PUSH1 0x13 DUP4 PUSH2 0xA39 JUMP JUMPDEST SWAP2 POP PUSH2 0xE7E DUP3 PUSH2 0xE3F JUMP JUMPDEST PUSH1 0x20 DUP3 ADD SWAP1 POP SWAP2 SWAP1 POP JUMP JUMPDEST PUSH0 PUSH1 0x20 DUP3 ADD SWAP1 POP DUP2 DUP2 SUB PUSH0 DUP4 ADD MSTORE PUSH2 0xEA0 DUP2 PUSH2 0xE67 JUMP JUMPDEST SWAP1 POP SWAP2 SWAP1 POP JUMP JUMPDEST PUSH0 PUSH2 0xEB1 DUP3 PUSH2 0x83F JUMP JUMPDEST SWAP2 POP PUSH2 0xEBC DUP4 PUSH2 0x83F JUMP JUMPDEST SWAP3 POP DUP3 DUP3 SUB SWAP1 POP DUP2 DUP2 GT ISZERO PUSH2 0xED4 JUMPI PUSH2 0xED3 PUSH2 0xB02 JUMP JUMPDEST JUMPDEST SWAP3 SWAP2 POP POP JUMP JUMPDEST PUSH0 PUSH2 0xEE4 DUP3 PUSH2 0x83F JUMP JUMPDEST SWAP2 POP PUSH2 0xEEF DUP4 PUSH2 0x83F JUMP JUMPDEST SWAP3 POP DUP3 DUP3 ADD SWAP1 POP DUP1 DUP3 GT ISZERO PUSH2 0xF07 JUMPI PUSH2 0xF06 PUSH2 0xB02 JUMP JUMPDEST JUMPDEST SWAP3 SWAP2 POP POP JUMP JUMPDEST PUSH32 0x4F776E61626C653A206E6577206F776E657220697320746865207A65726F2061 PUSH0 DUP3 ADD MSTORE PUSH32 0x6464726573730000000000000000000000000000000000000000000000000000 PUSH1 0x20 DUP3 ADD MSTORE POP JUMP JUMPDEST PUSH0 PUSH2 0xF67 PUSH1 0x26 DUP4 PUSH2 0xA39 JUMP JUMPDEST SWAP2 POP PUSH2 0xF72 DUP3 PUSH2 0xF0D JUMP JUMPDEST PUSH1 0x40 DUP3 ADD SWAP1 POP SWAP2 SWAP1 POP JUMP JUMPDEST PUSH0 PUSH1 0x20 DUP3 ADD SWAP1 POP DUP2 DUP2 SUB PUSH0 DUP4 ADD MSTORE PUSH2 0xF94 DUP2 PUSH2 0xF5B JUMP JUMPDEST SWAP1 POP SWAP2 SWAP1 POP JUMP JUMPDEST PUSH32 0x4F776E61626C653A2063616C6C6572206973206E6F7420746865206F776E6572 PUSH0 DUP3 ADD MSTORE POP JUMP JUMPDEST PUSH0 PUSH2 0xFCF PUSH1 0x20 DUP4 PUSH2 0xA39 JUMP JUMPDEST SWAP2 POP PUSH2 0xFDA DUP3 PUSH2 0xF9B JUMP JUMPDEST PUSH1 0x20 DUP3 ADD SWAP1 POP SWAP2 SWAP1 POP JUMP JUMPDEST PUSH0 PUSH1 0x20 DUP3 ADD SWAP1 POP DUP2 DUP2 SUB PUSH0 DUP4 ADD MSTORE PUSH2 0xFFC DUP2 PUSH2 0xFC3 JUMP JUMPDEST SWAP1 POP SWAP2 SWAP1 POP JUMP INVALID LOG2 PUSH5 0x6970667358 0x22 SLT KECCAK256 PUSH8 0xFE2B05B1B435AE3C 0xBF 0x2F 0xCB 0xED 0xC1 0xE1 0xCD BLOCKHASH XOR SWAP6 0x49 PUSH30 0xA2B2D5FAAC1179561F24E464736F6C634300081500330000000000000000 "
				},
				"gasEstimates": {
					"creation": {
						"codeDepositCost": "830600",
						"executionCost": "infinite",
						"totalCost": "infinite"
					},
					"external": {
						"addAsset(string,uint256)": "infinite",
						"assets(uint256)": "infinite",
						"balanceOf(uint256,address)": "infinite",
						"owner()": "2537",
						"renounceOwnership()": "30435",
						"transferOwnership(address)": "30797",
						"transferShares(uint256,address,uint256)": "infinite"
					}
				},
				"methodIdentifiers": {
					"addAsset(string,uint256)": "1bc7ffe9",
					"assets(uint256)": "cf35bdd0",
					"balanceOf(uint256,address)": "3656eec2",
					"owner()": "8da5cb5b",
					"renounceOwnership()": "715018a6",
					"transferOwnership(address)": "f2fde38b",
					"transferShares(uint256,address,uint256)": "84b9a6e6"
				}
			},
			"storageLayout": {
				"storage": [
					{
						"astId": 7,
						"contract": "contracts/AquoIntManager.sol:MultiAssetManager",
						"label": "_owner",
						"offset": 0,
						"slot": "0",
						"type": "t_address"
					},
					{
						"astId": 151,
						"contract": "contracts/AquoIntManager.sol:MultiAssetManager",
						"label": "nextAssetId",
						"offset": 0,
						"slot": "1",
						"type": "t_uint256"
					},
					{
						"astId": 156,
						"contract": "contracts/AquoIntManager.sol:MultiAssetManager",
						"label": "assets",
						"offset": 0,
						"slot": "2",
						"type": "t_mapping(t_uint256,t_struct(Asset)148_storage)"
					}
				],
				"types": {
					"t_address": {
						"encoding": "inplace",
						"label": "address",
						"numberOfBytes": "20"
					},
					"t_mapping(t_address,t_uint256)": {
						"encoding": "mapping",
						"key": "t_address",
						"label": "mapping(address => uint256)",
						"numberOfBytes": "32",
						"value": "t_uint256"
					},
					"t_mapping(t_uint256,t_struct(Asset)148_storage)": {
						"encoding": "mapping",
						"key": "t_uint256",
						"label": "mapping(uint256 => struct MultiAssetManager.Asset)",
						"numberOfBytes": "32",
						"value": "t_struct(Asset)148_storage"
					},
					"t_string_storage": {
						"encoding": "bytes",
						"label": "string",
						"numberOfBytes": "32"
					},
					"t_struct(Asset)148_storage": {
						"encoding": "inplace",
						"label": "struct MultiAssetManager.Asset",
						"members": [
							{
								"astId": 141,
								"contract": "contracts/AquoIntManager.sol:MultiAssetManager",
								"label": "ipfsAddress",
								"offset": 0,
								"slot": "0",
								"type": "t_string_storage"
							},
							{
								"astId": 145,
								"contract": "contracts/AquoIntManager.sol:MultiAssetManager",
								"label": "shareBalances",
								"offset": 0,
								"slot": "1",
								"type": "t_mapping(t_address,t_uint256)"
							},
							{
								"astId": 147,
								"contract": "contracts/AquoIntManager.sol:MultiAssetManager",
								"label": "totalShares",
								"offset": 0,
								"slot": "2",
								"type": "t_uint256"
							}
						],
						"numberOfBytes": "96"
					},
					"t_uint256": {
						"encoding": "inplace",
						"label": "uint256",
						"numberOfBytes": "32"
					}
				}
			},
			"userdoc": {
				"kind": "user",
				"methods": {},
				"version": 1
			}
		}
	}
}