{
	"contracts/AquoProspectusList2.sol": {
		"ProspectusRegistry": {
			"abi": [
				{
					"inputs": [
						{
							"internalType": "string",
							"name": "_prospectusCid",
							"type": "string"
						},
						{
							"internalType": "string",
							"name": "_imageCid",
							"type": "string"
						}
					],
					"name": "addRecord",
					"outputs": [],
					"stateMutability": "nonpayable",
					"type": "function"
				},
				{
					"inputs": [],
					"name": "getAllRecords",
					"outputs": [
						{
							"components": [
								{
									"internalType": "string",
									"name": "prospectusCid",
									"type": "string"
								},
								{
									"internalType": "string",
									"name": "imageCid",
									"type": "string"
								},
								{
									"internalType": "address",
									"name": "proposer",
									"type": "address"
								}
							],
							"internalType": "struct ProspectusRegistry.ProspectusRecord[]",
							"name": "",
							"type": "tuple[]"
						}
					],
					"stateMutability": "view",
					"type": "function"
				},
				{
					"inputs": [
						{
							"internalType": "uint256",
							"name": "_index",
							"type": "uint256"
						}
					],
					"name": "getRecord",
					"outputs": [
						{
							"components": [
								{
									"internalType": "string",
									"name": "prospectusCid",
									"type": "string"
								},
								{
									"internalType": "string",
									"name": "imageCid",
									"type": "string"
								},
								{
									"internalType": "address",
									"name": "proposer",
									"type": "address"
								}
							],
							"internalType": "struct ProspectusRegistry.ProspectusRecord",
							"name": "",
							"type": "tuple"
						}
					],
					"stateMutability": "view",
					"type": "function"
				},
				{
					"inputs": [],
					"name": "getRecordCount",
					"outputs": [
						{
							"internalType": "uint256",
							"name": "",
							"type": "uint256"
						}
					],
					"stateMutability": "view",
					"type": "function"
				},
				{
					"inputs": [
						{
							"internalType": "uint256",
							"name": "",
							"type": "uint256"
						}
					],
					"name": "records",
					"outputs": [
						{
							"internalType": "string",
							"name": "prospectusCid",
							"type": "string"
						},
						{
							"internalType": "string",
							"name": "imageCid",
							"type": "string"
						},
						{
							"internalType": "address",
							"name": "proposer",
							"type": "address"
						}
					],
					"stateMutability": "view",
					"type": "function"
				}
			],
			"devdoc": {
				"kind": "dev",
				"methods": {},
				"version": 1
			},
			"evm": {
				"assembly": "    /* \"contracts/AquoProspectusList2.sol\":60:1911  contract ProspectusRegistry {... */\n  mstore(0x40, 0x80)\n  callvalue\n  dup1\n  iszero\n  tag_1\n  jumpi\n  0x00\n  dup1\n  revert\ntag_1:\n  pop\n  dataSize(sub_0)\n  dup1\n  dataOffset(sub_0)\n  0x00\n  codecopy\n  0x00\n  return\nstop\n\nsub_0: assembly {\n        /* \"contracts/AquoProspectusList2.sol\":60:1911  contract ProspectusRegistry {... */\n      mstore(0x40, 0x80)\n      callvalue\n      dup1\n      iszero\n      tag_1\n      jumpi\n      0x00\n      dup1\n      revert\n    tag_1:\n      pop\n      jumpi(tag_2, lt(calldatasize, 0x04))\n      shr(0xe0, calldataload(0x00))\n      dup1\n      0x03e9e609\n      eq\n      tag_3\n      jumpi\n      dup1\n      0x34461067\n      eq\n      tag_4\n      jumpi\n      dup1\n      0xa7f9fe72\n      eq\n      tag_5\n      jumpi\n      dup1\n      0xc9596248\n      eq\n      tag_6\n      jumpi\n      dup1\n      0xca267f28\n      eq\n      tag_7\n      jumpi\n    tag_2:\n      0x00\n      dup1\n      revert\n        /* \"contracts/AquoProspectusList2.sol\":1609:1794  function getRecord(uint _index) public view returns (ProspectusRecord memory) {... */\n    tag_3:\n      tag_8\n      0x04\n      dup1\n      calldatasize\n      sub\n      dup2\n      add\n      swap1\n      tag_9\n      swap2\n      swap1\n      tag_10\n      jump\t// in\n    tag_9:\n      tag_11\n      jump\t// in\n    tag_8:\n      mload(0x40)\n      tag_12\n      swap2\n      swap1\n      tag_13\n      jump\t// in\n    tag_12:\n      mload(0x40)\n      dup1\n      swap2\n      sub\n      swap1\n      return\n        /* \"contracts/AquoProspectusList2.sol\":396:429  ProspectusRecord[] public records */\n    tag_4:\n      tag_14\n      0x04\n      dup1\n      calldatasize\n      sub\n      dup2\n      add\n      swap1\n      tag_15\n      swap2\n      swap1\n      tag_10\n      jump\t// in\n    tag_15:\n      tag_16\n      jump\t// in\n    tag_14:\n      mload(0x40)\n      tag_17\n      swap4\n      swap3\n      swap2\n      swap1\n      tag_18\n      jump\t// in\n    tag_17:\n      mload(0x40)\n      dup1\n      swap2\n      sub\n      swap1\n      return\n        /* \"contracts/AquoProspectusList2.sol\":1802:1908  function getAllRecords() public view returns (ProspectusRecord[] memory) {... */\n    tag_5:\n      tag_19\n      tag_20\n      jump\t// in\n    tag_19:\n      mload(0x40)\n      tag_21\n      swap2\n      swap1\n      tag_22\n      jump\t// in\n    tag_21:\n      mload(0x40)\n      dup1\n      swap2\n      sub\n      swap1\n      return\n        /* \"contracts/AquoProspectusList2.sol\":716:1417  function addRecord(string memory _prospectusCid, string memory _imageCid) public {... */\n    tag_6:\n      tag_23\n      0x04\n      dup1\n      calldatasize\n      sub\n      dup2\n      add\n      swap1\n      tag_24\n      swap2\n      swap1\n      tag_25\n      jump\t// in\n    tag_24:\n      tag_26\n      jump\t// in\n    tag_23:\n      stop\n        /* \"contracts/AquoProspectusList2.sol\":1465:1558  function getRecordCount() public view returns (uint) {... */\n    tag_7:\n      tag_27\n      tag_28\n      jump\t// in\n    tag_27:\n      mload(0x40)\n      tag_29\n      swap2\n      swap1\n      tag_30\n      jump\t// in\n    tag_29:\n      mload(0x40)\n      dup1\n      swap2\n      sub\n      swap1\n      return\n        /* \"contracts/AquoProspectusList2.sol\":1609:1794  function getRecord(uint _index) public view returns (ProspectusRecord memory) {... */\n    tag_11:\n        /* \"contracts/AquoProspectusList2.sol\":1662:1685  ProspectusRecord memory */\n      tag_31\n      tag_32\n      jump\t// in\n    tag_31:\n        /* \"contracts/AquoProspectusList2.sol\":1715:1722  records */\n      0x00\n        /* \"contracts/AquoProspectusList2.sol\":1715:1729  records.length */\n      dup1\n      sload\n      swap1\n      pop\n        /* \"contracts/AquoProspectusList2.sol\":1706:1712  _index */\n      dup3\n        /* \"contracts/AquoProspectusList2.sol\":1706:1729  _index < records.length */\n      lt\n        /* \"contracts/AquoProspectusList2.sol\":1698:1753  require(_index < records.length, \"Index out of bounds\") */\n      tag_34\n      jumpi\n      mload(0x40)\n      0x08c379a000000000000000000000000000000000000000000000000000000000\n      dup2\n      mstore\n      0x04\n      add\n      tag_35\n      swap1\n      tag_36\n      jump\t// in\n    tag_35:\n      mload(0x40)\n      dup1\n      swap2\n      sub\n      swap1\n      revert\n    tag_34:\n        /* \"contracts/AquoProspectusList2.sol\":1771:1778  records */\n      0x00\n        /* \"contracts/AquoProspectusList2.sol\":1779:1785  _index */\n      dup3\n        /* \"contracts/AquoProspectusList2.sol\":1771:1786  records[_index] */\n      dup2\n      sload\n      dup2\n      lt\n      tag_37\n      jumpi\n      tag_38\n      tag_39\n      jump\t// in\n    tag_38:\n    tag_37:\n      swap1\n      0x00\n      mstore\n      keccak256(0x00, 0x20)\n      swap1\n      0x03\n      mul\n      add\n        /* \"contracts/AquoProspectusList2.sol\":1764:1786  return records[_index] */\n      mload(0x40)\n      dup1\n      0x60\n      add\n      0x40\n      mstore\n      swap1\n      dup2\n      0x00\n      dup3\n      add\n      dup1\n      sload\n      tag_41\n      swap1\n      tag_42\n      jump\t// in\n    tag_41:\n      dup1\n      0x1f\n      add\n      0x20\n      dup1\n      swap2\n      div\n      mul\n      0x20\n      add\n      mload(0x40)\n      swap1\n      dup2\n      add\n      0x40\n      mstore\n      dup1\n      swap3\n      swap2\n      swap1\n      dup2\n      dup2\n      mstore\n      0x20\n      add\n      dup3\n      dup1\n      sload\n      tag_43\n      swap1\n      tag_42\n      jump\t// in\n    tag_43:\n      dup1\n      iszero\n      tag_44\n      jumpi\n      dup1\n      0x1f\n      lt\n      tag_45\n      jumpi\n      0x0100\n      dup1\n      dup4\n      sload\n      div\n      mul\n      dup4\n      mstore\n      swap2\n      0x20\n      add\n      swap2\n      jump(tag_44)\n    tag_45:\n      dup3\n      add\n      swap2\n      swap1\n      0x00\n      mstore\n      keccak256(0x00, 0x20)\n      swap1\n    tag_46:\n      dup2\n      sload\n      dup2\n      mstore\n      swap1\n      0x01\n      add\n      swap1\n      0x20\n      add\n      dup1\n      dup4\n      gt\n      tag_46\n      jumpi\n      dup3\n      swap1\n      sub\n      0x1f\n      and\n      dup3\n      add\n      swap2\n    tag_44:\n      pop\n      pop\n      pop\n      pop\n      pop\n      dup2\n      mstore\n      0x20\n      add\n      0x01\n      dup3\n      add\n      dup1\n      sload\n      tag_47\n      swap1\n      tag_42\n      jump\t// in\n    tag_47:\n      dup1\n      0x1f\n      add\n      0x20\n      dup1\n      swap2\n      div\n      mul\n      0x20\n      add\n      mload(0x40)\n      swap1\n      dup2\n      add\n      0x40\n      mstore\n      dup1\n      swap3\n      swap2\n      swap1\n      dup2\n      dup2\n      mstore\n      0x20\n      add\n      dup3\n      dup1\n      sload\n      tag_48\n      swap1\n      tag_42\n      jump\t// in\n    tag_48:\n      dup1\n      iszero\n      tag_49\n      jumpi\n      dup1\n      0x1f\n      lt\n      tag_50\n      jumpi\n      0x0100\n      dup1\n      dup4\n      sload\n      div\n      mul\n      dup4\n      mstore\n      swap2\n      0x20\n      add\n      swap2\n      jump(tag_49)\n    tag_50:\n      dup3\n      add\n      swap2\n      swap1\n      0x00\n      mstore\n      keccak256(0x00, 0x20)\n      swap1\n    tag_51:\n      dup2\n      sload\n      dup2\n      mstore\n      swap1\n      0x01\n      add\n      swap1\n      0x20\n      add\n      dup1\n      dup4\n      gt\n      tag_51\n      jumpi\n      dup3\n      swap1\n      sub\n      0x1f\n      and\n      dup3\n      add\n      swap2\n    tag_49:\n      pop\n      pop\n      pop\n      pop\n      pop\n      dup2\n      mstore\n      0x20\n      add\n      0x02\n      dup3\n      add\n      0x00\n      swap1\n      sload\n      swap1\n      0x0100\n      exp\n      swap1\n      div\n      0xffffffffffffffffffffffffffffffffffffffff\n      and\n      0xffffffffffffffffffffffffffffffffffffffff\n      and\n      0xffffffffffffffffffffffffffffffffffffffff\n      and\n      dup2\n      mstore\n      pop\n      pop\n      swap1\n      pop\n        /* \"contracts/AquoProspectusList2.sol\":1609:1794  function getRecord(uint _index) public view returns (ProspectusRecord memory) {... */\n      swap2\n      swap1\n      pop\n      jump\t// out\n        /* \"contracts/AquoProspectusList2.sol\":396:429  ProspectusRecord[] public records */\n    tag_16:\n      0x00\n      dup2\n      dup2\n      sload\n      dup2\n      lt\n      tag_52\n      jumpi\n      0x00\n      dup1\n      revert\n    tag_52:\n      swap1\n      0x00\n      mstore\n      keccak256(0x00, 0x20)\n      swap1\n      0x03\n      mul\n      add\n      0x00\n      swap2\n      pop\n      swap1\n      pop\n      dup1\n      0x00\n      add\n      dup1\n      sload\n      tag_54\n      swap1\n      tag_42\n      jump\t// in\n    tag_54:\n      dup1\n      0x1f\n      add\n      0x20\n      dup1\n      swap2\n      div\n      mul\n      0x20\n      add\n      mload(0x40)\n      swap1\n      dup2\n      add\n      0x40\n      mstore\n      dup1\n      swap3\n      swap2\n      swap1\n      dup2\n      dup2\n      mstore\n      0x20\n      add\n      dup3\n      dup1\n      sload\n      tag_55\n      swap1\n      tag_42\n      jump\t// in\n    tag_55:\n      dup1\n      iszero\n      tag_56\n      jumpi\n      dup1\n      0x1f\n      lt\n      tag_57\n      jumpi\n      0x0100\n      dup1\n      dup4\n      sload\n      div\n      mul\n      dup4\n      mstore\n      swap2\n      0x20\n      add\n      swap2\n      jump(tag_56)\n    tag_57:\n      dup3\n      add\n      swap2\n      swap1\n      0x00\n      mstore\n      keccak256(0x00, 0x20)\n      swap1\n    tag_58:\n      dup2\n      sload\n      dup2\n      mstore\n      swap1\n      0x01\n      add\n      swap1\n      0x20\n      add\n      dup1\n      dup4\n      gt\n      tag_58\n      jumpi\n      dup3\n      swap1\n      sub\n      0x1f\n      and\n      dup3\n      add\n      swap2\n    tag_56:\n      pop\n      pop\n      pop\n      pop\n      pop\n      swap1\n      dup1\n      0x01\n      add\n      dup1\n      sload\n      tag_59\n      swap1\n      tag_42\n      jump\t// in\n    tag_59:\n      dup1\n      0x1f\n      add\n      0x20\n      dup1\n      swap2\n      div\n      mul\n      0x20\n      add\n      mload(0x40)\n      swap1\n      dup2\n      add\n      0x40\n      mstore\n      dup1\n      swap3\n      swap2\n      swap1\n      dup2\n      dup2\n      mstore\n      0x20\n      add\n      dup3\n      dup1\n      sload\n      tag_60\n      swap1\n      tag_42\n      jump\t// in\n    tag_60:\n      dup1\n      iszero\n      tag_61\n      jumpi\n      dup1\n      0x1f\n      lt\n      tag_62\n      jumpi\n      0x0100\n      dup1\n      dup4\n      sload\n      div\n      mul\n      dup4\n      mstore\n      swap2\n      0x20\n      add\n      swap2\n      jump(tag_61)\n    tag_62:\n      dup3\n      add\n      swap2\n      swap1\n      0x00\n      mstore\n      keccak256(0x00, 0x20)\n      swap1\n    tag_63:\n      dup2\n      sload\n      dup2\n      mstore\n      swap1\n      0x01\n      add\n      swap1\n      0x20\n      add\n      dup1\n      dup4\n      gt\n      tag_63\n      jumpi\n      dup3\n      swap1\n      sub\n      0x1f\n      and\n      dup3\n      add\n      swap2\n    tag_61:\n      pop\n      pop\n      pop\n      pop\n      pop\n      swap1\n      dup1\n      0x02\n      add\n      0x00\n      swap1\n      sload\n      swap1\n      0x0100\n      exp\n      swap1\n      div\n      0xffffffffffffffffffffffffffffffffffffffff\n      and\n      swap1\n      pop\n      dup4\n      jump\t// out\n        /* \"contracts/AquoProspectusList2.sol\":1802:1908  function getAllRecords() public view returns (ProspectusRecord[] memory) {... */\n    tag_20:\n        /* \"contracts/AquoProspectusList2.sol\":1848:1873  ProspectusRecord[] memory */\n      0x60\n        /* \"contracts/AquoProspectusList2.sol\":1893:1900  records */\n      0x00\n        /* \"contracts/AquoProspectusList2.sol\":1886:1900  return records */\n      dup1\n      sload\n      dup1\n      0x20\n      mul\n      0x20\n      add\n      mload(0x40)\n      swap1\n      dup2\n      add\n      0x40\n      mstore\n      dup1\n      swap3\n      swap2\n      swap1\n      dup2\n      dup2\n      mstore\n      0x20\n      add\n      0x00\n      swap1\n    tag_65:\n      dup3\n      dup3\n      lt\n      iszero\n      tag_66\n      jumpi\n      dup4\n      dup3\n      swap1\n      0x00\n      mstore\n      keccak256(0x00, 0x20)\n      swap1\n      0x03\n      mul\n      add\n      mload(0x40)\n      dup1\n      0x60\n      add\n      0x40\n      mstore\n      swap1\n      dup2\n      0x00\n      dup3\n      add\n      dup1\n      sload\n      tag_68\n      swap1\n      tag_42\n      jump\t// in\n    tag_68:\n      dup1\n      0x1f\n      add\n      0x20\n      dup1\n      swap2\n      div\n      mul\n      0x20\n      add\n      mload(0x40)\n      swap1\n      dup2\n      add\n      0x40\n      mstore\n      dup1\n      swap3\n      swap2\n      swap1\n      dup2\n      dup2\n      mstore\n      0x20\n      add\n      dup3\n      dup1\n      sload\n      tag_69\n      swap1\n      tag_42\n      jump\t// in\n    tag_69:\n      dup1\n      iszero\n      tag_70\n      jumpi\n      dup1\n      0x1f\n      lt\n      tag_71\n      jumpi\n      0x0100\n      dup1\n      dup4\n      sload\n      div\n      mul\n      dup4\n      mstore\n      swap2\n      0x20\n      add\n      swap2\n      jump(tag_70)\n    tag_71:\n      dup3\n      add\n      swap2\n      swap1\n      0x00\n      mstore\n      keccak256(0x00, 0x20)\n      swap1\n    tag_72:\n      dup2\n      sload\n      dup2\n      mstore\n      swap1\n      0x01\n      add\n      swap1\n      0x20\n      add\n      dup1\n      dup4\n      gt\n      tag_72\n      jumpi\n      dup3\n      swap1\n      sub\n      0x1f\n      and\n      dup3\n      add\n      swap2\n    tag_70:\n      pop\n      pop\n      pop\n      pop\n      pop\n      dup2\n      mstore\n      0x20\n      add\n      0x01\n      dup3\n      add\n      dup1\n      sload\n      tag_73\n      swap1\n      tag_42\n      jump\t// in\n    tag_73:\n      dup1\n      0x1f\n      add\n      0x20\n      dup1\n      swap2\n      div\n      mul\n      0x20\n      add\n      mload(0x40)\n      swap1\n      dup2\n      add\n      0x40\n      mstore\n      dup1\n      swap3\n      swap2\n      swap1\n      dup2\n      dup2\n      mstore\n      0x20\n      add\n      dup3\n      dup1\n      sload\n      tag_74\n      swap1\n      tag_42\n      jump\t// in\n    tag_74:\n      dup1\n      iszero\n      tag_75\n      jumpi\n      dup1\n      0x1f\n      lt\n      tag_76\n      jumpi\n      0x0100\n      dup1\n      dup4\n      sload\n      div\n      mul\n      dup4\n      mstore\n      swap2\n      0x20\n      add\n      swap2\n      jump(tag_75)\n    tag_76:\n      dup3\n      add\n      swap2\n      swap1\n      0x00\n      mstore\n      keccak256(0x00, 0x20)\n      swap1\n    tag_77:\n      dup2\n      sload\n      dup2\n      mstore\n      swap1\n      0x01\n      add\n      swap1\n      0x20\n      add\n      dup1\n      dup4\n      gt\n      tag_77\n      jumpi\n      dup3\n      swap1\n      sub\n      0x1f\n      and\n      dup3\n      add\n      swap2\n    tag_75:\n      pop\n      pop\n      pop\n      pop\n      pop\n      dup2\n      mstore\n      0x20\n      add\n      0x02\n      dup3\n      add\n      0x00\n      swap1\n      sload\n      swap1\n      0x0100\n      exp\n      swap1\n      div\n      0xffffffffffffffffffffffffffffffffffffffff\n      and\n      0xffffffffffffffffffffffffffffffffffffffff\n      and\n      0xffffffffffffffffffffffffffffffffffffffff\n      and\n      dup2\n      mstore\n      pop\n      pop\n      dup2\n      mstore\n      0x20\n      add\n      swap1\n      0x01\n      add\n      swap1\n      jump(tag_65)\n    tag_66:\n      pop\n      pop\n      pop\n      pop\n      swap1\n      pop\n        /* \"contracts/AquoProspectusList2.sol\":1802:1908  function getAllRecords() public view returns (ProspectusRecord[] memory) {... */\n      swap1\n      jump\t// out\n        /* \"contracts/AquoProspectusList2.sol\":716:1417  function addRecord(string memory _prospectusCid, string memory _imageCid) public {... */\n    tag_26:\n        /* \"contracts/AquoProspectusList2.sol\":881:900  prospectusCidExists */\n      0x01\n        /* \"contracts/AquoProspectusList2.sol\":901:915  _prospectusCid */\n      dup3\n        /* \"contracts/AquoProspectusList2.sol\":881:916  prospectusCidExists[_prospectusCid] */\n      mload(0x40)\n      tag_79\n      swap2\n      swap1\n      tag_80\n      jump\t// in\n    tag_79:\n      swap1\n      dup2\n      mstore\n      0x20\n      add\n      mload(0x40)\n      dup1\n      swap2\n      sub\n      swap1\n      keccak256\n      0x00\n      swap1\n      sload\n      swap1\n      0x0100\n      exp\n      swap1\n      div\n      0xff\n      and\n        /* \"contracts/AquoProspectusList2.sol\":880:916  !prospectusCidExists[_prospectusCid] */\n      iszero\n        /* \"contracts/AquoProspectusList2.sol\":872:950  require(!prospectusCidExists[_prospectusCid], \"Prospectus CID already exists\") */\n      tag_81\n      jumpi\n      mload(0x40)\n      0x08c379a000000000000000000000000000000000000000000000000000000000\n      dup2\n      mstore\n      0x04\n      add\n      tag_82\n      swap1\n      tag_83\n      jump\t// in\n    tag_82:\n      mload(0x40)\n      dup1\n      swap2\n      sub\n      swap1\n      revert\n    tag_81:\n        /* \"contracts/AquoProspectusList2.sol\":970:984  imageCidExists */\n      0x02\n        /* \"contracts/AquoProspectusList2.sol\":985:994  _imageCid */\n      dup2\n        /* \"contracts/AquoProspectusList2.sol\":970:995  imageCidExists[_imageCid] */\n      mload(0x40)\n      tag_84\n      swap2\n      swap1\n      tag_80\n      jump\t// in\n    tag_84:\n      swap1\n      dup2\n      mstore\n      0x20\n      add\n      mload(0x40)\n      dup1\n      swap2\n      sub\n      swap1\n      keccak256\n      0x00\n      swap1\n      sload\n      swap1\n      0x0100\n      exp\n      swap1\n      div\n      0xff\n      and\n        /* \"contracts/AquoProspectusList2.sol\":969:995  !imageCidExists[_imageCid] */\n      iszero\n        /* \"contracts/AquoProspectusList2.sol\":961:1024  require(!imageCidExists[_imageCid], \"Image CID already exists\") */\n      tag_85\n      jumpi\n      mload(0x40)\n      0x08c379a000000000000000000000000000000000000000000000000000000000\n      dup2\n      mstore\n      0x04\n      add\n      tag_86\n      swap1\n      tag_87\n      jump\t// in\n    tag_86:\n      mload(0x40)\n      dup1\n      swap2\n      sub\n      swap1\n      revert\n    tag_85:\n        /* \"contracts/AquoProspectusList2.sol\":1102:1109  records */\n      0x00\n        /* \"contracts/AquoProspectusList2.sol\":1115:1257  ProspectusRecord({... */\n      mload(0x40)\n      dup1\n      0x60\n      add\n      0x40\n      mstore\n      dup1\n        /* \"contracts/AquoProspectusList2.sol\":1162:1176  _prospectusCid */\n      dup5\n        /* \"contracts/AquoProspectusList2.sol\":1115:1257  ProspectusRecord({... */\n      dup2\n      mstore\n      0x20\n      add\n        /* \"contracts/AquoProspectusList2.sol\":1201:1210  _imageCid */\n      dup4\n        /* \"contracts/AquoProspectusList2.sol\":1115:1257  ProspectusRecord({... */\n      dup2\n      mstore\n      0x20\n      add\n        /* \"contracts/AquoProspectusList2.sol\":1235:1245  msg.sender */\n      caller\n        /* \"contracts/AquoProspectusList2.sol\":1115:1257  ProspectusRecord({... */\n      0xffffffffffffffffffffffffffffffffffffffff\n      and\n      dup2\n      mstore\n      pop\n        /* \"contracts/AquoProspectusList2.sol\":1102:1258  records.push(ProspectusRecord({... */\n      swap1\n      dup1\n      0x01\n      dup2\n      sload\n      add\n      dup1\n      dup3\n      sstore\n      dup1\n      swap2\n      pop\n      pop\n      0x01\n      swap1\n      sub\n      swap1\n      0x00\n      mstore\n      keccak256(0x00, 0x20)\n      swap1\n      0x03\n      mul\n      add\n      0x00\n      swap1\n      swap2\n      swap1\n      swap2\n      swap1\n      swap2\n      pop\n      0x00\n      dup3\n      add\n      mload\n      dup2\n      0x00\n      add\n      swap1\n      dup2\n      tag_89\n      swap2\n      swap1\n      tag_90\n      jump\t// in\n    tag_89:\n      pop\n      0x20\n      dup3\n      add\n      mload\n      dup2\n      0x01\n      add\n      swap1\n      dup2\n      tag_91\n      swap2\n      swap1\n      tag_90\n      jump\t// in\n    tag_91:\n      pop\n      0x40\n      dup3\n      add\n      mload\n      dup2\n      0x02\n      add\n      exp(0x0100, 0x00)\n      dup2\n      sload\n      dup2\n      0xffffffffffffffffffffffffffffffffffffffff\n      mul\n      not\n      and\n      swap1\n      dup4\n      0xffffffffffffffffffffffffffffffffffffffff\n      and\n      mul\n      or\n      swap1\n      sstore\n      pop\n      pop\n      pop\n        /* \"contracts/AquoProspectusList2.sol\":1362:1366  true */\n      0x01\n        /* \"contracts/AquoProspectusList2.sol\":1324:1343  prospectusCidExists */\n      dup1\n        /* \"contracts/AquoProspectusList2.sol\":1344:1358  _prospectusCid */\n      dup4\n        /* \"contracts/AquoProspectusList2.sol\":1324:1359  prospectusCidExists[_prospectusCid] */\n      mload(0x40)\n      tag_92\n      swap2\n      swap1\n      tag_80\n      jump\t// in\n    tag_92:\n      swap1\n      dup2\n      mstore\n      0x20\n      add\n      mload(0x40)\n      dup1\n      swap2\n      sub\n      swap1\n      keccak256\n      0x00\n        /* \"contracts/AquoProspectusList2.sol\":1324:1366  prospectusCidExists[_prospectusCid] = true */\n      0x0100\n      exp\n      dup2\n      sload\n      dup2\n      0xff\n      mul\n      not\n      and\n      swap1\n      dup4\n      iszero\n      iszero\n      mul\n      or\n      swap1\n      sstore\n      pop\n        /* \"contracts/AquoProspectusList2.sol\":1405:1409  true */\n      0x01\n        /* \"contracts/AquoProspectusList2.sol\":1377:1391  imageCidExists */\n      0x02\n        /* \"contracts/AquoProspectusList2.sol\":1392:1401  _imageCid */\n      dup3\n        /* \"contracts/AquoProspectusList2.sol\":1377:1402  imageCidExists[_imageCid] */\n      mload(0x40)\n      tag_93\n      swap2\n      swap1\n      tag_80\n      jump\t// in\n    tag_93:\n      swap1\n      dup2\n      mstore\n      0x20\n      add\n      mload(0x40)\n      dup1\n      swap2\n      sub\n      swap1\n      keccak256\n      0x00\n        /* \"contracts/AquoProspectusList2.sol\":1377:1409  imageCidExists[_imageCid] = true */\n      0x0100\n      exp\n      dup2\n      sload\n      dup2\n      0xff\n      mul\n      not\n      and\n      swap1\n      dup4\n      iszero\n      iszero\n      mul\n      or\n      swap1\n      sstore\n      pop\n        /* \"contracts/AquoProspectusList2.sol\":716:1417  function addRecord(string memory _prospectusCid, string memory _imageCid) public {... */\n      pop\n      pop\n      jump\t// out\n        /* \"contracts/AquoProspectusList2.sol\":1465:1558  function getRecordCount() public view returns (uint) {... */\n    tag_28:\n        /* \"contracts/AquoProspectusList2.sol\":1512:1516  uint */\n      0x00\n        /* \"contracts/AquoProspectusList2.sol\":1536:1543  records */\n      dup1\n        /* \"contracts/AquoProspectusList2.sol\":1536:1550  records.length */\n      dup1\n      sload\n      swap1\n      pop\n        /* \"contracts/AquoProspectusList2.sol\":1529:1550  return records.length */\n      swap1\n      pop\n        /* \"contracts/AquoProspectusList2.sol\":1465:1558  function getRecordCount() public view returns (uint) {... */\n      swap1\n      jump\t// out\n    tag_32:\n      mload(0x40)\n      dup1\n      0x60\n      add\n      0x40\n      mstore\n      dup1\n      0x60\n      dup2\n      mstore\n      0x20\n      add\n      0x60\n      dup2\n      mstore\n      0x20\n      add\n      and(0xffffffffffffffffffffffffffffffffffffffff, 0x00)\n      dup2\n      mstore\n      pop\n      swap1\n      jump\t// out\n        /* \"#utility.yul\":7:82   */\n    tag_95:\n        /* \"#utility.yul\":40:46   */\n      0x00\n        /* \"#utility.yul\":73:75   */\n      0x40\n        /* \"#utility.yul\":67:76   */\n      mload\n        /* \"#utility.yul\":57:76   */\n      swap1\n      pop\n        /* \"#utility.yul\":7:82   */\n      swap1\n      jump\t// out\n        /* \"#utility.yul\":88:205   */\n    tag_96:\n        /* \"#utility.yul\":197:198   */\n      0x00\n        /* \"#utility.yul\":194:195   */\n      dup1\n        /* \"#utility.yul\":187:199   */\n      revert\n        /* \"#utility.yul\":211:328   */\n    tag_97:\n        /* \"#utility.yul\":320:321   */\n      0x00\n        /* \"#utility.yul\":317:318   */\n      dup1\n        /* \"#utility.yul\":310:322   */\n      revert\n        /* \"#utility.yul\":334:411   */\n    tag_98:\n        /* \"#utility.yul\":371:378   */\n      0x00\n        /* \"#utility.yul\":400:405   */\n      dup2\n        /* \"#utility.yul\":389:405   */\n      swap1\n      pop\n        /* \"#utility.yul\":334:411   */\n      swap2\n      swap1\n      pop\n      jump\t// out\n        /* \"#utility.yul\":417:539   */\n    tag_99:\n        /* \"#utility.yul\":490:514   */\n      tag_160\n        /* \"#utility.yul\":508:513   */\n      dup2\n        /* \"#utility.yul\":490:514   */\n      tag_98\n      jump\t// in\n    tag_160:\n        /* \"#utility.yul\":483:488   */\n      dup2\n        /* \"#utility.yul\":480:515   */\n      eq\n        /* \"#utility.yul\":470:533   */\n      tag_161\n      jumpi\n        /* \"#utility.yul\":529:530   */\n      0x00\n        /* \"#utility.yul\":526:527   */\n      dup1\n        /* \"#utility.yul\":519:531   */\n      revert\n        /* \"#utility.yul\":470:533   */\n    tag_161:\n        /* \"#utility.yul\":417:539   */\n      pop\n      jump\t// out\n        /* \"#utility.yul\":545:684   */\n    tag_100:\n        /* \"#utility.yul\":591:596   */\n      0x00\n        /* \"#utility.yul\":629:635   */\n      dup2\n        /* \"#utility.yul\":616:636   */\n      calldataload\n        /* \"#utility.yul\":607:636   */\n      swap1\n      pop\n        /* \"#utility.yul\":645:678   */\n      tag_163\n        /* \"#utility.yul\":672:677   */\n      dup2\n        /* \"#utility.yul\":645:678   */\n      tag_99\n      jump\t// in\n    tag_163:\n        /* \"#utility.yul\":545:684   */\n      swap3\n      swap2\n      pop\n      pop\n      jump\t// out\n        /* \"#utility.yul\":690:1019   */\n    tag_10:\n        /* \"#utility.yul\":749:755   */\n      0x00\n        /* \"#utility.yul\":798:800   */\n      0x20\n        /* \"#utility.yul\":786:795   */\n      dup3\n        /* \"#utility.yul\":777:784   */\n      dup5\n        /* \"#utility.yul\":773:796   */\n      sub\n        /* \"#utility.yul\":769:801   */\n      slt\n        /* \"#utility.yul\":766:885   */\n      iszero\n      tag_165\n      jumpi\n        /* \"#utility.yul\":804:883   */\n      tag_166\n      tag_96\n      jump\t// in\n    tag_166:\n        /* \"#utility.yul\":766:885   */\n    tag_165:\n        /* \"#utility.yul\":924:925   */\n      0x00\n        /* \"#utility.yul\":949:1002   */\n      tag_167\n        /* \"#utility.yul\":994:1001   */\n      dup5\n        /* \"#utility.yul\":985:991   */\n      dup3\n        /* \"#utility.yul\":974:983   */\n      dup6\n        /* \"#utility.yul\":970:992   */\n      add\n        /* \"#utility.yul\":949:1002   */\n      tag_100\n      jump\t// in\n    tag_167:\n        /* \"#utility.yul\":939:1002   */\n      swap2\n      pop\n        /* \"#utility.yul\":895:1012   */\n      pop\n        /* \"#utility.yul\":690:1019   */\n      swap3\n      swap2\n      pop\n      pop\n      jump\t// out\n        /* \"#utility.yul\":1025:1124   */\n    tag_101:\n        /* \"#utility.yul\":1077:1083   */\n      0x00\n        /* \"#utility.yul\":1111:1116   */\n      dup2\n        /* \"#utility.yul\":1105:1117   */\n      mload\n        /* \"#utility.yul\":1095:1117   */\n      swap1\n      pop\n        /* \"#utility.yul\":1025:1124   */\n      swap2\n      swap1\n      pop\n      jump\t// out\n        /* \"#utility.yul\":1130:1289   */\n    tag_102:\n        /* \"#utility.yul\":1204:1215   */\n      0x00\n        /* \"#utility.yul\":1238:1244   */\n      dup3\n        /* \"#utility.yul\":1233:1236   */\n      dup3\n        /* \"#utility.yul\":1226:1245   */\n      mstore\n        /* \"#utility.yul\":1278:1282   */\n      0x20\n        /* \"#utility.yul\":1273:1276   */\n      dup3\n        /* \"#utility.yul\":1269:1283   */\n      add\n        /* \"#utility.yul\":1254:1283   */\n      swap1\n      pop\n        /* \"#utility.yul\":1130:1289   */\n      swap3\n      swap2\n      pop\n      pop\n      jump\t// out\n        /* \"#utility.yul\":1295:1541   */\n    tag_103:\n        /* \"#utility.yul\":1376:1377   */\n      0x00\n        /* \"#utility.yul\":1386:1499   */\n    tag_171:\n        /* \"#utility.yul\":1400:1406   */\n      dup4\n        /* \"#utility.yul\":1397:1398   */\n      dup2\n        /* \"#utility.yul\":1394:1407   */\n      lt\n        /* \"#utility.yul\":1386:1499   */\n      iszero\n      tag_173\n      jumpi\n        /* \"#utility.yul\":1485:1486   */\n      dup1\n        /* \"#utility.yul\":1480:1483   */\n      dup3\n        /* \"#utility.yul\":1476:1487   */\n      add\n        /* \"#utility.yul\":1470:1488   */\n      mload\n        /* \"#utility.yul\":1466:1467   */\n      dup2\n        /* \"#utility.yul\":1461:1464   */\n      dup5\n        /* \"#utility.yul\":1457:1468   */\n      add\n        /* \"#utility.yul\":1450:1489   */\n      mstore\n        /* \"#utility.yul\":1422:1424   */\n      0x20\n        /* \"#utility.yul\":1419:1420   */\n      dup2\n        /* \"#utility.yul\":1415:1425   */\n      add\n        /* \"#utility.yul\":1410:1425   */\n      swap1\n      pop\n        /* \"#utility.yul\":1386:1499   */\n      jump(tag_171)\n    tag_173:\n        /* \"#utility.yul\":1533:1534   */\n      0x00\n        /* \"#utility.yul\":1524:1530   */\n      dup5\n        /* \"#utility.yul\":1519:1522   */\n      dup5\n        /* \"#utility.yul\":1515:1531   */\n      add\n        /* \"#utility.yul\":1508:1535   */\n      mstore\n        /* \"#utility.yul\":1357:1541   */\n      pop\n        /* \"#utility.yul\":1295:1541   */\n      pop\n      pop\n      pop\n      jump\t// out\n        /* \"#utility.yul\":1547:1649   */\n    tag_104:\n        /* \"#utility.yul\":1588:1594   */\n      0x00\n        /* \"#utility.yul\":1639:1641   */\n      0x1f\n        /* \"#utility.yul\":1635:1642   */\n      not\n        /* \"#utility.yul\":1630:1632   */\n      0x1f\n        /* \"#utility.yul\":1623:1628   */\n      dup4\n        /* \"#utility.yul\":1619:1633   */\n      add\n        /* \"#utility.yul\":1615:1643   */\n      and\n        /* \"#utility.yul\":1605:1643   */\n      swap1\n      pop\n        /* \"#utility.yul\":1547:1649   */\n      swap2\n      swap1\n      pop\n      jump\t// out\n        /* \"#utility.yul\":1655:2012   */\n    tag_105:\n        /* \"#utility.yul\":1733:1736   */\n      0x00\n        /* \"#utility.yul\":1761:1800   */\n      tag_176\n        /* \"#utility.yul\":1794:1799   */\n      dup3\n        /* \"#utility.yul\":1761:1800   */\n      tag_101\n      jump\t// in\n    tag_176:\n        /* \"#utility.yul\":1816:1877   */\n      tag_177\n        /* \"#utility.yul\":1870:1876   */\n      dup2\n        /* \"#utility.yul\":1865:1868   */\n      dup6\n        /* \"#utility.yul\":1816:1877   */\n      tag_102\n      jump\t// in\n    tag_177:\n        /* \"#utility.yul\":1809:1877   */\n      swap4\n      pop\n        /* \"#utility.yul\":1886:1951   */\n      tag_178\n        /* \"#utility.yul\":1944:1950   */\n      dup2\n        /* \"#utility.yul\":1939:1942   */\n      dup6\n        /* \"#utility.yul\":1932:1936   */\n      0x20\n        /* \"#utility.yul\":1925:1930   */\n      dup7\n        /* \"#utility.yul\":1921:1937   */\n      add\n        /* \"#utility.yul\":1886:1951   */\n      tag_103\n      jump\t// in\n    tag_178:\n        /* \"#utility.yul\":1976:2005   */\n      tag_179\n        /* \"#utility.yul\":1998:2004   */\n      dup2\n        /* \"#utility.yul\":1976:2005   */\n      tag_104\n      jump\t// in\n    tag_179:\n        /* \"#utility.yul\":1971:1974   */\n      dup5\n        /* \"#utility.yul\":1967:2006   */\n      add\n        /* \"#utility.yul\":1960:2006   */\n      swap2\n      pop\n        /* \"#utility.yul\":1737:2012   */\n      pop\n        /* \"#utility.yul\":1655:2012   */\n      swap3\n      swap2\n      pop\n      pop\n      jump\t// out\n        /* \"#utility.yul\":2018:2144   */\n    tag_106:\n        /* \"#utility.yul\":2055:2062   */\n      0x00\n        /* \"#utility.yul\":2095:2137   */\n      0xffffffffffffffffffffffffffffffffffffffff\n        /* \"#utility.yul\":2088:2093   */\n      dup3\n        /* \"#utility.yul\":2084:2138   */\n      and\n        /* \"#utility.yul\":2073:2138   */\n      swap1\n      pop\n        /* \"#utility.yul\":2018:2144   */\n      swap2\n      swap1\n      pop\n      jump\t// out\n        /* \"#utility.yul\":2150:2246   */\n    tag_107:\n        /* \"#utility.yul\":2187:2194   */\n      0x00\n        /* \"#utility.yul\":2216:2240   */\n      tag_182\n        /* \"#utility.yul\":2234:2239   */\n      dup3\n        /* \"#utility.yul\":2216:2240   */\n      tag_106\n      jump\t// in\n    tag_182:\n        /* \"#utility.yul\":2205:2240   */\n      swap1\n      pop\n        /* \"#utility.yul\":2150:2246   */\n      swap2\n      swap1\n      pop\n      jump\t// out\n        /* \"#utility.yul\":2252:2360   */\n    tag_108:\n        /* \"#utility.yul\":2329:2353   */\n      tag_184\n        /* \"#utility.yul\":2347:2352   */\n      dup2\n        /* \"#utility.yul\":2329:2353   */\n      tag_107\n      jump\t// in\n    tag_184:\n        /* \"#utility.yul\":2324:2327   */\n      dup3\n        /* \"#utility.yul\":2317:2354   */\n      mstore\n        /* \"#utility.yul\":2252:2360   */\n      pop\n      pop\n      jump\t// out\n        /* \"#utility.yul\":2462:3342   */\n    tag_109:\n        /* \"#utility.yul\":2593:2596   */\n      0x00\n        /* \"#utility.yul\":2629:2633   */\n      0x60\n        /* \"#utility.yul\":2624:2627   */\n      dup4\n        /* \"#utility.yul\":2620:2634   */\n      add\n        /* \"#utility.yul\":2725:2729   */\n      0x00\n        /* \"#utility.yul\":2718:2723   */\n      dup4\n        /* \"#utility.yul\":2714:2730   */\n      add\n        /* \"#utility.yul\":2708:2731   */\n      mload\n        /* \"#utility.yul\":2778:2781   */\n      dup5\n        /* \"#utility.yul\":2772:2776   */\n      dup3\n        /* \"#utility.yul\":2768:2782   */\n      sub\n        /* \"#utility.yul\":2761:2765   */\n      0x00\n        /* \"#utility.yul\":2756:2759   */\n      dup7\n        /* \"#utility.yul\":2752:2766   */\n      add\n        /* \"#utility.yul\":2745:2783   */\n      mstore\n        /* \"#utility.yul\":2804:2877   */\n      tag_186\n        /* \"#utility.yul\":2872:2876   */\n      dup3\n        /* \"#utility.yul\":2858:2870   */\n      dup3\n        /* \"#utility.yul\":2804:2877   */\n      tag_105\n      jump\t// in\n    tag_186:\n        /* \"#utility.yul\":2796:2877   */\n      swap2\n      pop\n        /* \"#utility.yul\":2644:2888   */\n      pop\n        /* \"#utility.yul\":2974:2978   */\n      0x20\n        /* \"#utility.yul\":2967:2972   */\n      dup4\n        /* \"#utility.yul\":2963:2979   */\n      add\n        /* \"#utility.yul\":2957:2980   */\n      mload\n        /* \"#utility.yul\":3027:3030   */\n      dup5\n        /* \"#utility.yul\":3021:3025   */\n      dup3\n        /* \"#utility.yul\":3017:3031   */\n      sub\n        /* \"#utility.yul\":3010:3014   */\n      0x20\n        /* \"#utility.yul\":3005:3008   */\n      dup7\n        /* \"#utility.yul\":3001:3015   */\n      add\n        /* \"#utility.yul\":2994:3032   */\n      mstore\n        /* \"#utility.yul\":3053:3126   */\n      tag_187\n        /* \"#utility.yul\":3121:3125   */\n      dup3\n        /* \"#utility.yul\":3107:3119   */\n      dup3\n        /* \"#utility.yul\":3053:3126   */\n      tag_105\n      jump\t// in\n    tag_187:\n        /* \"#utility.yul\":3045:3126   */\n      swap2\n      pop\n        /* \"#utility.yul\":2898:3137   */\n      pop\n        /* \"#utility.yul\":3223:3227   */\n      0x40\n        /* \"#utility.yul\":3216:3221   */\n      dup4\n        /* \"#utility.yul\":3212:3228   */\n      add\n        /* \"#utility.yul\":3206:3229   */\n      mload\n        /* \"#utility.yul\":3242:3305   */\n      tag_188\n        /* \"#utility.yul\":3299:3303   */\n      0x40\n        /* \"#utility.yul\":3294:3297   */\n      dup7\n        /* \"#utility.yul\":3290:3304   */\n      add\n        /* \"#utility.yul\":3276:3288   */\n      dup3\n        /* \"#utility.yul\":3242:3305   */\n      tag_108\n      jump\t// in\n    tag_188:\n        /* \"#utility.yul\":3147:3315   */\n      pop\n        /* \"#utility.yul\":3332:3336   */\n      dup1\n        /* \"#utility.yul\":3325:3336   */\n      swap2\n      pop\n        /* \"#utility.yul\":2598:3342   */\n      pop\n        /* \"#utility.yul\":2462:3342   */\n      swap3\n      swap2\n      pop\n      pop\n      jump\t// out\n        /* \"#utility.yul\":3348:3745   */\n    tag_13:\n        /* \"#utility.yul\":3503:3507   */\n      0x00\n        /* \"#utility.yul\":3541:3543   */\n      0x20\n        /* \"#utility.yul\":3530:3539   */\n      dup3\n        /* \"#utility.yul\":3526:3544   */\n      add\n        /* \"#utility.yul\":3518:3544   */\n      swap1\n      pop\n        /* \"#utility.yul\":3590:3599   */\n      dup2\n        /* \"#utility.yul\":3584:3588   */\n      dup2\n        /* \"#utility.yul\":3580:3600   */\n      sub\n        /* \"#utility.yul\":3576:3577   */\n      0x00\n        /* \"#utility.yul\":3565:3574   */\n      dup4\n        /* \"#utility.yul\":3561:3578   */\n      add\n        /* \"#utility.yul\":3554:3601   */\n      mstore\n        /* \"#utility.yul\":3618:3738   */\n      tag_190\n        /* \"#utility.yul\":3733:3737   */\n      dup2\n        /* \"#utility.yul\":3724:3730   */\n      dup5\n        /* \"#utility.yul\":3618:3738   */\n      tag_109\n      jump\t// in\n    tag_190:\n        /* \"#utility.yul\":3610:3738   */\n      swap1\n      pop\n        /* \"#utility.yul\":3348:3745   */\n      swap3\n      swap2\n      pop\n      pop\n      jump\t// out\n        /* \"#utility.yul\":3751:3920   */\n    tag_110:\n        /* \"#utility.yul\":3835:3846   */\n      0x00\n        /* \"#utility.yul\":3869:3875   */\n      dup3\n        /* \"#utility.yul\":3864:3867   */\n      dup3\n        /* \"#utility.yul\":3857:3876   */\n      mstore\n        /* \"#utility.yul\":3909:3913   */\n      0x20\n        /* \"#utility.yul\":3904:3907   */\n      dup3\n        /* \"#utility.yul\":3900:3914   */\n      add\n        /* \"#utility.yul\":3885:3914   */\n      swap1\n      pop\n        /* \"#utility.yul\":3751:3920   */\n      swap3\n      swap2\n      pop\n      pop\n      jump\t// out\n        /* \"#utility.yul\":3926:4303   */\n    tag_111:\n        /* \"#utility.yul\":4014:4017   */\n      0x00\n        /* \"#utility.yul\":4042:4081   */\n      tag_193\n        /* \"#utility.yul\":4075:4080   */\n      dup3\n        /* \"#utility.yul\":4042:4081   */\n      tag_101\n      jump\t// in\n    tag_193:\n        /* \"#utility.yul\":4097:4168   */\n      tag_194\n        /* \"#utility.yul\":4161:4167   */\n      dup2\n        /* \"#utility.yul\":4156:4159   */\n      dup6\n        /* \"#utility.yul\":4097:4168   */\n      tag_110\n      jump\t// in\n    tag_194:\n        /* \"#utility.yul\":4090:4168   */\n      swap4\n      pop\n        /* \"#utility.yul\":4177:4242   */\n      tag_195\n        /* \"#utility.yul\":4235:4241   */\n      dup2\n        /* \"#utility.yul\":4230:4233   */\n      dup6\n        /* \"#utility.yul\":4223:4227   */\n      0x20\n        /* \"#utility.yul\":4216:4221   */\n      dup7\n        /* \"#utility.yul\":4212:4228   */\n      add\n        /* \"#utility.yul\":4177:4242   */\n      tag_103\n      jump\t// in\n    tag_195:\n        /* \"#utility.yul\":4267:4296   */\n      tag_196\n        /* \"#utility.yul\":4289:4295   */\n      dup2\n        /* \"#utility.yul\":4267:4296   */\n      tag_104\n      jump\t// in\n    tag_196:\n        /* \"#utility.yul\":4262:4265   */\n      dup5\n        /* \"#utility.yul\":4258:4297   */\n      add\n        /* \"#utility.yul\":4251:4297   */\n      swap2\n      pop\n        /* \"#utility.yul\":4018:4303   */\n      pop\n        /* \"#utility.yul\":3926:4303   */\n      swap3\n      swap2\n      pop\n      pop\n      jump\t// out\n        /* \"#utility.yul\":4309:4427   */\n    tag_112:\n        /* \"#utility.yul\":4396:4420   */\n      tag_198\n        /* \"#utility.yul\":4414:4419   */\n      dup2\n        /* \"#utility.yul\":4396:4420   */\n      tag_107\n      jump\t// in\n    tag_198:\n        /* \"#utility.yul\":4391:4394   */\n      dup3\n        /* \"#utility.yul\":4384:4421   */\n      mstore\n        /* \"#utility.yul\":4309:4427   */\n      pop\n      pop\n      jump\t// out\n        /* \"#utility.yul\":4433:5057   */\n    tag_18:\n        /* \"#utility.yul\":4622:4626   */\n      0x00\n        /* \"#utility.yul\":4660:4662   */\n      0x60\n        /* \"#utility.yul\":4649:4658   */\n      dup3\n        /* \"#utility.yul\":4645:4663   */\n      add\n        /* \"#utility.yul\":4637:4663   */\n      swap1\n      pop\n        /* \"#utility.yul\":4709:4718   */\n      dup2\n        /* \"#utility.yul\":4703:4707   */\n      dup2\n        /* \"#utility.yul\":4699:4719   */\n      sub\n        /* \"#utility.yul\":4695:4696   */\n      0x00\n        /* \"#utility.yul\":4684:4693   */\n      dup4\n        /* \"#utility.yul\":4680:4697   */\n      add\n        /* \"#utility.yul\":4673:4720   */\n      mstore\n        /* \"#utility.yul\":4737:4815   */\n      tag_200\n        /* \"#utility.yul\":4810:4814   */\n      dup2\n        /* \"#utility.yul\":4801:4807   */\n      dup7\n        /* \"#utility.yul\":4737:4815   */\n      tag_111\n      jump\t// in\n    tag_200:\n        /* \"#utility.yul\":4729:4815   */\n      swap1\n      pop\n        /* \"#utility.yul\":4862:4871   */\n      dup2\n        /* \"#utility.yul\":4856:4860   */\n      dup2\n        /* \"#utility.yul\":4852:4872   */\n      sub\n        /* \"#utility.yul\":4847:4849   */\n      0x20\n        /* \"#utility.yul\":4836:4845   */\n      dup4\n        /* \"#utility.yul\":4832:4850   */\n      add\n        /* \"#utility.yul\":4825:4873   */\n      mstore\n        /* \"#utility.yul\":4890:4968   */\n      tag_201\n        /* \"#utility.yul\":4963:4967   */\n      dup2\n        /* \"#utility.yul\":4954:4960   */\n      dup6\n        /* \"#utility.yul\":4890:4968   */\n      tag_111\n      jump\t// in\n    tag_201:\n        /* \"#utility.yul\":4882:4968   */\n      swap1\n      pop\n        /* \"#utility.yul\":4978:5050   */\n      tag_202\n        /* \"#utility.yul\":5046:5048   */\n      0x40\n        /* \"#utility.yul\":5035:5044   */\n      dup4\n        /* \"#utility.yul\":5031:5049   */\n      add\n        /* \"#utility.yul\":5022:5028   */\n      dup5\n        /* \"#utility.yul\":4978:5050   */\n      tag_112\n      jump\t// in\n    tag_202:\n        /* \"#utility.yul\":4433:5057   */\n      swap5\n      swap4\n      pop\n      pop\n      pop\n      pop\n      jump\t// out\n        /* \"#utility.yul\":5063:5208   */\n    tag_113:\n        /* \"#utility.yul\":5161:5167   */\n      0x00\n        /* \"#utility.yul\":5195:5200   */\n      dup2\n        /* \"#utility.yul\":5189:5201   */\n      mload\n        /* \"#utility.yul\":5179:5201   */\n      swap1\n      pop\n        /* \"#utility.yul\":5063:5208   */\n      swap2\n      swap1\n      pop\n      jump\t// out\n        /* \"#utility.yul\":5214:5429   */\n    tag_114:\n        /* \"#utility.yul\":5344:5355   */\n      0x00\n        /* \"#utility.yul\":5378:5384   */\n      dup3\n        /* \"#utility.yul\":5373:5376   */\n      dup3\n        /* \"#utility.yul\":5366:5385   */\n      mstore\n        /* \"#utility.yul\":5418:5422   */\n      0x20\n        /* \"#utility.yul\":5413:5416   */\n      dup3\n        /* \"#utility.yul\":5409:5423   */\n      add\n        /* \"#utility.yul\":5394:5423   */\n      swap1\n      pop\n        /* \"#utility.yul\":5214:5429   */\n      swap3\n      swap2\n      pop\n      pop\n      jump\t// out\n        /* \"#utility.yul\":5435:5598   */\n    tag_115:\n        /* \"#utility.yul\":5533:5537   */\n      0x00\n        /* \"#utility.yul\":5556:5559   */\n      dup2\n        /* \"#utility.yul\":5548:5559   */\n      swap1\n      pop\n        /* \"#utility.yul\":5586:5590   */\n      0x20\n        /* \"#utility.yul\":5581:5584   */\n      dup3\n        /* \"#utility.yul\":5577:5591   */\n      add\n        /* \"#utility.yul\":5569:5591   */\n      swap1\n      pop\n        /* \"#utility.yul\":5435:5598   */\n      swap2\n      swap1\n      pop\n      jump\t// out\n        /* \"#utility.yul\":5700:6570   */\n    tag_116:\n        /* \"#utility.yul\":5821:5824   */\n      0x00\n        /* \"#utility.yul\":5857:5861   */\n      0x60\n        /* \"#utility.yul\":5852:5855   */\n      dup4\n        /* \"#utility.yul\":5848:5862   */\n      add\n        /* \"#utility.yul\":5953:5957   */\n      0x00\n        /* \"#utility.yul\":5946:5951   */\n      dup4\n        /* \"#utility.yul\":5942:5958   */\n      add\n        /* \"#utility.yul\":5936:5959   */\n      mload\n        /* \"#utility.yul\":6006:6009   */\n      dup5\n        /* \"#utility.yul\":6000:6004   */\n      dup3\n        /* \"#utility.yul\":5996:6010   */\n      sub\n        /* \"#utility.yul\":5989:5993   */\n      0x00\n        /* \"#utility.yul\":5984:5987   */\n      dup7\n        /* \"#utility.yul\":5980:5994   */\n      add\n        /* \"#utility.yul\":5973:6011   */\n      mstore\n        /* \"#utility.yul\":6032:6105   */\n      tag_207\n        /* \"#utility.yul\":6100:6104   */\n      dup3\n        /* \"#utility.yul\":6086:6098   */\n      dup3\n        /* \"#utility.yul\":6032:6105   */\n      tag_105\n      jump\t// in\n    tag_207:\n        /* \"#utility.yul\":6024:6105   */\n      swap2\n      pop\n        /* \"#utility.yul\":5872:6116   */\n      pop\n        /* \"#utility.yul\":6202:6206   */\n      0x20\n        /* \"#utility.yul\":6195:6200   */\n      dup4\n        /* \"#utility.yul\":6191:6207   */\n      add\n        /* \"#utility.yul\":6185:6208   */\n      mload\n        /* \"#utility.yul\":6255:6258   */\n      dup5\n        /* \"#utility.yul\":6249:6253   */\n      dup3\n        /* \"#utility.yul\":6245:6259   */\n      sub\n        /* \"#utility.yul\":6238:6242   */\n      0x20\n        /* \"#utility.yul\":6233:6236   */\n      dup7\n        /* \"#utility.yul\":6229:6243   */\n      add\n        /* \"#utility.yul\":6222:6260   */\n      mstore\n        /* \"#utility.yul\":6281:6354   */\n      tag_208\n        /* \"#utility.yul\":6349:6353   */\n      dup3\n        /* \"#utility.yul\":6335:6347   */\n      dup3\n        /* \"#utility.yul\":6281:6354   */\n      tag_105\n      jump\t// in\n    tag_208:\n        /* \"#utility.yul\":6273:6354   */\n      swap2\n      pop\n        /* \"#utility.yul\":6126:6365   */\n      pop\n        /* \"#utility.yul\":6451:6455   */\n      0x40\n        /* \"#utility.yul\":6444:6449   */\n      dup4\n        /* \"#utility.yul\":6440:6456   */\n      add\n        /* \"#utility.yul\":6434:6457   */\n      mload\n        /* \"#utility.yul\":6470:6533   */\n      tag_209\n        /* \"#utility.yul\":6527:6531   */\n      0x40\n        /* \"#utility.yul\":6522:6525   */\n      dup7\n        /* \"#utility.yul\":6518:6532   */\n      add\n        /* \"#utility.yul\":6504:6516   */\n      dup3\n        /* \"#utility.yul\":6470:6533   */\n      tag_108\n      jump\t// in\n    tag_209:\n        /* \"#utility.yul\":6375:6543   */\n      pop\n        /* \"#utility.yul\":6560:6564   */\n      dup1\n        /* \"#utility.yul\":6553:6564   */\n      swap2\n      pop\n        /* \"#utility.yul\":5826:6570   */\n      pop\n        /* \"#utility.yul\":5700:6570   */\n      swap3\n      swap2\n      pop\n      pop\n      jump\t// out\n        /* \"#utility.yul\":6576:6856   */\n    tag_117:\n        /* \"#utility.yul\":6707:6717   */\n      0x00\n        /* \"#utility.yul\":6742:6850   */\n      tag_211\n        /* \"#utility.yul\":6846:6849   */\n      dup4\n        /* \"#utility.yul\":6838:6844   */\n      dup4\n        /* \"#utility.yul\":6742:6850   */\n      tag_116\n      jump\t// in\n    tag_211:\n        /* \"#utility.yul\":6728:6850   */\n      swap1\n      pop\n        /* \"#utility.yul\":6576:6856   */\n      swap3\n      swap2\n      pop\n      pop\n      jump\t// out\n        /* \"#utility.yul\":6862:7006   */\n    tag_118:\n        /* \"#utility.yul\":6963:6967   */\n      0x00\n        /* \"#utility.yul\":6995:6999   */\n      0x20\n        /* \"#utility.yul\":6990:6993   */\n      dup3\n        /* \"#utility.yul\":6986:7000   */\n      add\n        /* \"#utility.yul\":6978:7000   */\n      swap1\n      pop\n        /* \"#utility.yul\":6862:7006   */\n      swap2\n      swap1\n      pop\n      jump\t// out\n        /* \"#utility.yul\":7112:8271   */\n    tag_119:\n        /* \"#utility.yul\":7293:7296   */\n      0x00\n        /* \"#utility.yul\":7322:7407   */\n      tag_214\n        /* \"#utility.yul\":7401:7406   */\n      dup3\n        /* \"#utility.yul\":7322:7407   */\n      tag_113\n      jump\t// in\n    tag_214:\n        /* \"#utility.yul\":7423:7540   */\n      tag_215\n        /* \"#utility.yul\":7533:7539   */\n      dup2\n        /* \"#utility.yul\":7528:7531   */\n      dup6\n        /* \"#utility.yul\":7423:7540   */\n      tag_114\n      jump\t// in\n    tag_215:\n        /* \"#utility.yul\":7416:7540   */\n      swap4\n      pop\n        /* \"#utility.yul\":7566:7569   */\n      dup4\n        /* \"#utility.yul\":7611:7615   */\n      0x20\n        /* \"#utility.yul\":7603:7609   */\n      dup3\n        /* \"#utility.yul\":7599:7616   */\n      mul\n        /* \"#utility.yul\":7594:7597   */\n      dup6\n        /* \"#utility.yul\":7590:7617   */\n      add\n        /* \"#utility.yul\":7641:7728   */\n      tag_216\n        /* \"#utility.yul\":7722:7727   */\n      dup6\n        /* \"#utility.yul\":7641:7728   */\n      tag_115\n      jump\t// in\n    tag_216:\n        /* \"#utility.yul\":7751:7758   */\n      dup1\n        /* \"#utility.yul\":7782:7783   */\n      0x00\n        /* \"#utility.yul\":7767:8226   */\n    tag_217:\n        /* \"#utility.yul\":7792:7798   */\n      dup6\n        /* \"#utility.yul\":7789:7790   */\n      dup2\n        /* \"#utility.yul\":7786:7799   */\n      lt\n        /* \"#utility.yul\":7767:8226   */\n      iszero\n      tag_219\n      jumpi\n        /* \"#utility.yul\":7863:7872   */\n      dup5\n        /* \"#utility.yul\":7857:7861   */\n      dup5\n        /* \"#utility.yul\":7853:7873   */\n      sub\n        /* \"#utility.yul\":7848:7851   */\n      dup10\n        /* \"#utility.yul\":7841:7874   */\n      mstore\n        /* \"#utility.yul\":7914:7920   */\n      dup2\n        /* \"#utility.yul\":7908:7921   */\n      mload\n        /* \"#utility.yul\":7942:8068   */\n      tag_220\n        /* \"#utility.yul\":8063:8067   */\n      dup6\n        /* \"#utility.yul\":8048:8061   */\n      dup3\n        /* \"#utility.yul\":7942:8068   */\n      tag_117\n      jump\t// in\n    tag_220:\n        /* \"#utility.yul\":7934:8068   */\n      swap5\n      pop\n        /* \"#utility.yul\":8091:8182   */\n      tag_221\n        /* \"#utility.yul\":8175:8181   */\n      dup4\n        /* \"#utility.yul\":8091:8182   */\n      tag_118\n      jump\t// in\n    tag_221:\n        /* \"#utility.yul\":8081:8182   */\n      swap3\n      pop\n        /* \"#utility.yul\":8211:8215   */\n      0x20\n        /* \"#utility.yul\":8206:8209   */\n      dup11\n        /* \"#utility.yul\":8202:8216   */\n      add\n        /* \"#utility.yul\":8195:8216   */\n      swap10\n      pop\n        /* \"#utility.yul\":7827:8226   */\n      pop\n        /* \"#utility.yul\":7814:7815   */\n      0x01\n        /* \"#utility.yul\":7811:7812   */\n      dup2\n        /* \"#utility.yul\":7807:7816   */\n      add\n        /* \"#utility.yul\":7802:7816   */\n      swap1\n      pop\n        /* \"#utility.yul\":7767:8226   */\n      jump(tag_217)\n    tag_219:\n        /* \"#utility.yul\":7771:7785   */\n      pop\n        /* \"#utility.yul\":8242:8246   */\n      dup3\n        /* \"#utility.yul\":8235:8246   */\n      swap8\n      pop\n        /* \"#utility.yul\":8262:8265   */\n      dup8\n        /* \"#utility.yul\":8255:8265   */\n      swap6\n      pop\n        /* \"#utility.yul\":7298:8271   */\n      pop\n      pop\n      pop\n      pop\n      pop\n        /* \"#utility.yul\":7112:8271   */\n      swap3\n      swap2\n      pop\n      pop\n      jump\t// out\n        /* \"#utility.yul\":8277:8774   */\n    tag_22:\n        /* \"#utility.yul\":8482:8486   */\n      0x00\n        /* \"#utility.yul\":8520:8522   */\n      0x20\n        /* \"#utility.yul\":8509:8518   */\n      dup3\n        /* \"#utility.yul\":8505:8523   */\n      add\n        /* \"#utility.yul\":8497:8523   */\n      swap1\n      pop\n        /* \"#utility.yul\":8569:8578   */\n      dup2\n        /* \"#utility.yul\":8563:8567   */\n      dup2\n        /* \"#utility.yul\":8559:8579   */\n      sub\n        /* \"#utility.yul\":8555:8556   */\n      0x00\n        /* \"#utility.yul\":8544:8553   */\n      dup4\n        /* \"#utility.yul\":8540:8557   */\n      add\n        /* \"#utility.yul\":8533:8580   */\n      mstore\n        /* \"#utility.yul\":8597:8767   */\n      tag_223\n        /* \"#utility.yul\":8762:8766   */\n      dup2\n        /* \"#utility.yul\":8753:8759   */\n      dup5\n        /* \"#utility.yul\":8597:8767   */\n      tag_119\n      jump\t// in\n    tag_223:\n        /* \"#utility.yul\":8589:8767   */\n      swap1\n      pop\n        /* \"#utility.yul\":8277:8774   */\n      swap3\n      swap2\n      pop\n      pop\n      jump\t// out\n        /* \"#utility.yul\":8780:8897   */\n    tag_120:\n        /* \"#utility.yul\":8889:8890   */\n      0x00\n        /* \"#utility.yul\":8886:8887   */\n      dup1\n        /* \"#utility.yul\":8879:8891   */\n      revert\n        /* \"#utility.yul\":8903:9020   */\n    tag_121:\n        /* \"#utility.yul\":9012:9013   */\n      0x00\n        /* \"#utility.yul\":9009:9010   */\n      dup1\n        /* \"#utility.yul\":9002:9014   */\n      revert\n        /* \"#utility.yul\":9026:9206   */\n    tag_122:\n        /* \"#utility.yul\":9074:9151   */\n      0x4e487b7100000000000000000000000000000000000000000000000000000000\n        /* \"#utility.yul\":9071:9072   */\n      0x00\n        /* \"#utility.yul\":9064:9152   */\n      mstore\n        /* \"#utility.yul\":9171:9175   */\n      0x41\n        /* \"#utility.yul\":9168:9169   */\n      0x04\n        /* \"#utility.yul\":9161:9176   */\n      mstore\n        /* \"#utility.yul\":9195:9199   */\n      0x24\n        /* \"#utility.yul\":9192:9193   */\n      0x00\n        /* \"#utility.yul\":9185:9200   */\n      revert\n        /* \"#utility.yul\":9212:9493   */\n    tag_123:\n        /* \"#utility.yul\":9295:9322   */\n      tag_228\n        /* \"#utility.yul\":9317:9321   */\n      dup3\n        /* \"#utility.yul\":9295:9322   */\n      tag_104\n      jump\t// in\n    tag_228:\n        /* \"#utility.yul\":9287:9293   */\n      dup2\n        /* \"#utility.yul\":9283:9323   */\n      add\n        /* \"#utility.yul\":9425:9431   */\n      dup2\n        /* \"#utility.yul\":9413:9423   */\n      dup2\n        /* \"#utility.yul\":9410:9432   */\n      lt\n        /* \"#utility.yul\":9389:9407   */\n      0xffffffffffffffff\n        /* \"#utility.yul\":9377:9387   */\n      dup3\n        /* \"#utility.yul\":9374:9408   */\n      gt\n        /* \"#utility.yul\":9371:9433   */\n      or\n        /* \"#utility.yul\":9368:9456   */\n      iszero\n      tag_229\n      jumpi\n        /* \"#utility.yul\":9436:9454   */\n      tag_230\n      tag_122\n      jump\t// in\n    tag_230:\n        /* \"#utility.yul\":9368:9456   */\n    tag_229:\n        /* \"#utility.yul\":9476:9486   */\n      dup1\n        /* \"#utility.yul\":9472:9474   */\n      0x40\n        /* \"#utility.yul\":9465:9487   */\n      mstore\n        /* \"#utility.yul\":9255:9493   */\n      pop\n        /* \"#utility.yul\":9212:9493   */\n      pop\n      pop\n      jump\t// out\n        /* \"#utility.yul\":9499:9628   */\n    tag_124:\n        /* \"#utility.yul\":9533:9539   */\n      0x00\n        /* \"#utility.yul\":9560:9580   */\n      tag_232\n      tag_95\n      jump\t// in\n    tag_232:\n        /* \"#utility.yul\":9550:9580   */\n      swap1\n      pop\n        /* \"#utility.yul\":9589:9622   */\n      tag_233\n        /* \"#utility.yul\":9617:9621   */\n      dup3\n        /* \"#utility.yul\":9609:9615   */\n      dup3\n        /* \"#utility.yul\":9589:9622   */\n      tag_123\n      jump\t// in\n    tag_233:\n        /* \"#utility.yul\":9499:9628   */\n      swap2\n      swap1\n      pop\n      jump\t// out\n        /* \"#utility.yul\":9634:9942   */\n    tag_125:\n        /* \"#utility.yul\":9696:9700   */\n      0x00\n        /* \"#utility.yul\":9786:9804   */\n      0xffffffffffffffff\n        /* \"#utility.yul\":9778:9784   */\n      dup3\n        /* \"#utility.yul\":9775:9805   */\n      gt\n        /* \"#utility.yul\":9772:9828   */\n      iszero\n      tag_235\n      jumpi\n        /* \"#utility.yul\":9808:9826   */\n      tag_236\n      tag_122\n      jump\t// in\n    tag_236:\n        /* \"#utility.yul\":9772:9828   */\n    tag_235:\n        /* \"#utility.yul\":9846:9875   */\n      tag_237\n        /* \"#utility.yul\":9868:9874   */\n      dup3\n        /* \"#utility.yul\":9846:9875   */\n      tag_104\n      jump\t// in\n    tag_237:\n        /* \"#utility.yul\":9838:9875   */\n      swap1\n      pop\n        /* \"#utility.yul\":9930:9934   */\n      0x20\n        /* \"#utility.yul\":9924:9928   */\n      dup2\n        /* \"#utility.yul\":9920:9935   */\n      add\n        /* \"#utility.yul\":9912:9935   */\n      swap1\n      pop\n        /* \"#utility.yul\":9634:9942   */\n      swap2\n      swap1\n      pop\n      jump\t// out\n        /* \"#utility.yul\":9948:10094   */\n    tag_126:\n        /* \"#utility.yul\":10045:10051   */\n      dup3\n        /* \"#utility.yul\":10040:10043   */\n      dup2\n        /* \"#utility.yul\":10035:10038   */\n      dup4\n        /* \"#utility.yul\":10022:10052   */\n      calldatacopy\n        /* \"#utility.yul\":10086:10087   */\n      0x00\n        /* \"#utility.yul\":10077:10083   */\n      dup4\n        /* \"#utility.yul\":10072:10075   */\n      dup4\n        /* \"#utility.yul\":10068:10084   */\n      add\n        /* \"#utility.yul\":10061:10088   */\n      mstore\n        /* \"#utility.yul\":9948:10094   */\n      pop\n      pop\n      pop\n      jump\t// out\n        /* \"#utility.yul\":10100:10525   */\n    tag_127:\n        /* \"#utility.yul\":10178:10183   */\n      0x00\n        /* \"#utility.yul\":10203:10269   */\n      tag_240\n        /* \"#utility.yul\":10219:10268   */\n      tag_241\n        /* \"#utility.yul\":10261:10267   */\n      dup5\n        /* \"#utility.yul\":10219:10268   */\n      tag_125\n      jump\t// in\n    tag_241:\n        /* \"#utility.yul\":10203:10269   */\n      tag_124\n      jump\t// in\n    tag_240:\n        /* \"#utility.yul\":10194:10269   */\n      swap1\n      pop\n        /* \"#utility.yul\":10292:10298   */\n      dup3\n        /* \"#utility.yul\":10285:10290   */\n      dup2\n        /* \"#utility.yul\":10278:10299   */\n      mstore\n        /* \"#utility.yul\":10330:10334   */\n      0x20\n        /* \"#utility.yul\":10323:10328   */\n      dup2\n        /* \"#utility.yul\":10319:10335   */\n      add\n        /* \"#utility.yul\":10368:10371   */\n      dup5\n        /* \"#utility.yul\":10359:10365   */\n      dup5\n        /* \"#utility.yul\":10354:10357   */\n      dup5\n        /* \"#utility.yul\":10350:10366   */\n      add\n        /* \"#utility.yul\":10347:10372   */\n      gt\n        /* \"#utility.yul\":10344:10456   */\n      iszero\n      tag_242\n      jumpi\n        /* \"#utility.yul\":10375:10454   */\n      tag_243\n      tag_121\n      jump\t// in\n    tag_243:\n        /* \"#utility.yul\":10344:10456   */\n    tag_242:\n        /* \"#utility.yul\":10465:10519   */\n      tag_244\n        /* \"#utility.yul\":10512:10518   */\n      dup5\n        /* \"#utility.yul\":10507:10510   */\n      dup3\n        /* \"#utility.yul\":10502:10505   */\n      dup6\n        /* \"#utility.yul\":10465:10519   */\n      tag_126\n      jump\t// in\n    tag_244:\n        /* \"#utility.yul\":10184:10525   */\n      pop\n        /* \"#utility.yul\":10100:10525   */\n      swap4\n      swap3\n      pop\n      pop\n      pop\n      jump\t// out\n        /* \"#utility.yul\":10545:10885   */\n    tag_128:\n        /* \"#utility.yul\":10601:10606   */\n      0x00\n        /* \"#utility.yul\":10650:10653   */\n      dup3\n        /* \"#utility.yul\":10643:10647   */\n      0x1f\n        /* \"#utility.yul\":10635:10641   */\n      dup4\n        /* \"#utility.yul\":10631:10648   */\n      add\n        /* \"#utility.yul\":10627:10654   */\n      slt\n        /* \"#utility.yul\":10617:10739   */\n      tag_246\n      jumpi\n        /* \"#utility.yul\":10658:10737   */\n      tag_247\n      tag_120\n      jump\t// in\n    tag_247:\n        /* \"#utility.yul\":10617:10739   */\n    tag_246:\n        /* \"#utility.yul\":10775:10781   */\n      dup2\n        /* \"#utility.yul\":10762:10782   */\n      calldataload\n        /* \"#utility.yul\":10800:10879   */\n      tag_248\n        /* \"#utility.yul\":10875:10878   */\n      dup5\n        /* \"#utility.yul\":10867:10873   */\n      dup3\n        /* \"#utility.yul\":10860:10864   */\n      0x20\n        /* \"#utility.yul\":10852:10858   */\n      dup7\n        /* \"#utility.yul\":10848:10865   */\n      add\n        /* \"#utility.yul\":10800:10879   */\n      tag_127\n      jump\t// in\n    tag_248:\n        /* \"#utility.yul\":10791:10879   */\n      swap2\n      pop\n        /* \"#utility.yul\":10607:10885   */\n      pop\n        /* \"#utility.yul\":10545:10885   */\n      swap3\n      swap2\n      pop\n      pop\n      jump\t// out\n        /* \"#utility.yul\":10891:11725   */\n    tag_25:\n        /* \"#utility.yul\":10979:10985   */\n      0x00\n        /* \"#utility.yul\":10987:10993   */\n      dup1\n        /* \"#utility.yul\":11036:11038   */\n      0x40\n        /* \"#utility.yul\":11024:11033   */\n      dup4\n        /* \"#utility.yul\":11015:11022   */\n      dup6\n        /* \"#utility.yul\":11011:11034   */\n      sub\n        /* \"#utility.yul\":11007:11039   */\n      slt\n        /* \"#utility.yul\":11004:11123   */\n      iszero\n      tag_250\n      jumpi\n        /* \"#utility.yul\":11042:11121   */\n      tag_251\n      tag_96\n      jump\t// in\n    tag_251:\n        /* \"#utility.yul\":11004:11123   */\n    tag_250:\n        /* \"#utility.yul\":11190:11191   */\n      0x00\n        /* \"#utility.yul\":11179:11188   */\n      dup4\n        /* \"#utility.yul\":11175:11192   */\n      add\n        /* \"#utility.yul\":11162:11193   */\n      calldataload\n        /* \"#utility.yul\":11220:11238   */\n      0xffffffffffffffff\n        /* \"#utility.yul\":11212:11218   */\n      dup2\n        /* \"#utility.yul\":11209:11239   */\n      gt\n        /* \"#utility.yul\":11206:11323   */\n      iszero\n      tag_252\n      jumpi\n        /* \"#utility.yul\":11242:11321   */\n      tag_253\n      tag_97\n      jump\t// in\n    tag_253:\n        /* \"#utility.yul\":11206:11323   */\n    tag_252:\n        /* \"#utility.yul\":11347:11410   */\n      tag_254\n        /* \"#utility.yul\":11402:11409   */\n      dup6\n        /* \"#utility.yul\":11393:11399   */\n      dup3\n        /* \"#utility.yul\":11382:11391   */\n      dup7\n        /* \"#utility.yul\":11378:11400   */\n      add\n        /* \"#utility.yul\":11347:11410   */\n      tag_128\n      jump\t// in\n    tag_254:\n        /* \"#utility.yul\":11337:11410   */\n      swap3\n      pop\n        /* \"#utility.yul\":11133:11420   */\n      pop\n        /* \"#utility.yul\":11487:11489   */\n      0x20\n        /* \"#utility.yul\":11476:11485   */\n      dup4\n        /* \"#utility.yul\":11472:11490   */\n      add\n        /* \"#utility.yul\":11459:11491   */\n      calldataload\n        /* \"#utility.yul\":11518:11536   */\n      0xffffffffffffffff\n        /* \"#utility.yul\":11510:11516   */\n      dup2\n        /* \"#utility.yul\":11507:11537   */\n      gt\n        /* \"#utility.yul\":11504:11621   */\n      iszero\n      tag_255\n      jumpi\n        /* \"#utility.yul\":11540:11619   */\n      tag_256\n      tag_97\n      jump\t// in\n    tag_256:\n        /* \"#utility.yul\":11504:11621   */\n    tag_255:\n        /* \"#utility.yul\":11645:11708   */\n      tag_257\n        /* \"#utility.yul\":11700:11707   */\n      dup6\n        /* \"#utility.yul\":11691:11697   */\n      dup3\n        /* \"#utility.yul\":11680:11689   */\n      dup7\n        /* \"#utility.yul\":11676:11698   */\n      add\n        /* \"#utility.yul\":11645:11708   */\n      tag_128\n      jump\t// in\n    tag_257:\n        /* \"#utility.yul\":11635:11708   */\n      swap2\n      pop\n        /* \"#utility.yul\":11430:11718   */\n      pop\n        /* \"#utility.yul\":10891:11725   */\n      swap3\n      pop\n      swap3\n      swap1\n      pop\n      jump\t// out\n        /* \"#utility.yul\":11731:11849   */\n    tag_129:\n        /* \"#utility.yul\":11818:11842   */\n      tag_259\n        /* \"#utility.yul\":11836:11841   */\n      dup2\n        /* \"#utility.yul\":11818:11842   */\n      tag_98\n      jump\t// in\n    tag_259:\n        /* \"#utility.yul\":11813:11816   */\n      dup3\n        /* \"#utility.yul\":11806:11843   */\n      mstore\n        /* \"#utility.yul\":11731:11849   */\n      pop\n      pop\n      jump\t// out\n        /* \"#utility.yul\":11855:12077   */\n    tag_30:\n        /* \"#utility.yul\":11948:11952   */\n      0x00\n        /* \"#utility.yul\":11986:11988   */\n      0x20\n        /* \"#utility.yul\":11975:11984   */\n      dup3\n        /* \"#utility.yul\":11971:11989   */\n      add\n        /* \"#utility.yul\":11963:11989   */\n      swap1\n      pop\n        /* \"#utility.yul\":11999:12070   */\n      tag_261\n        /* \"#utility.yul\":12067:12068   */\n      0x00\n        /* \"#utility.yul\":12056:12065   */\n      dup4\n        /* \"#utility.yul\":12052:12069   */\n      add\n        /* \"#utility.yul\":12043:12049   */\n      dup5\n        /* \"#utility.yul\":11999:12070   */\n      tag_129\n      jump\t// in\n    tag_261:\n        /* \"#utility.yul\":11855:12077   */\n      swap3\n      swap2\n      pop\n      pop\n      jump\t// out\n        /* \"#utility.yul\":12083:12252   */\n    tag_130:\n        /* \"#utility.yul\":12223:12244   */\n      0x496e646578206f7574206f6620626f756e647300000000000000000000000000\n        /* \"#utility.yul\":12219:12220   */\n      0x00\n        /* \"#utility.yul\":12211:12217   */\n      dup3\n        /* \"#utility.yul\":12207:12221   */\n      add\n        /* \"#utility.yul\":12200:12245   */\n      mstore\n        /* \"#utility.yul\":12083:12252   */\n      pop\n      jump\t// out\n        /* \"#utility.yul\":12258:12624   */\n    tag_131:\n        /* \"#utility.yul\":12400:12403   */\n      0x00\n        /* \"#utility.yul\":12421:12488   */\n      tag_264\n        /* \"#utility.yul\":12485:12487   */\n      0x13\n        /* \"#utility.yul\":12480:12483   */\n      dup4\n        /* \"#utility.yul\":12421:12488   */\n      tag_110\n      jump\t// in\n    tag_264:\n        /* \"#utility.yul\":12414:12488   */\n      swap2\n      pop\n        /* \"#utility.yul\":12497:12590   */\n      tag_265\n        /* \"#utility.yul\":12586:12589   */\n      dup3\n        /* \"#utility.yul\":12497:12590   */\n      tag_130\n      jump\t// in\n    tag_265:\n        /* \"#utility.yul\":12615:12617   */\n      0x20\n        /* \"#utility.yul\":12610:12613   */\n      dup3\n        /* \"#utility.yul\":12606:12618   */\n      add\n        /* \"#utility.yul\":12599:12618   */\n      swap1\n      pop\n        /* \"#utility.yul\":12258:12624   */\n      swap2\n      swap1\n      pop\n      jump\t// out\n        /* \"#utility.yul\":12630:13049   */\n    tag_36:\n        /* \"#utility.yul\":12796:12800   */\n      0x00\n        /* \"#utility.yul\":12834:12836   */\n      0x20\n        /* \"#utility.yul\":12823:12832   */\n      dup3\n        /* \"#utility.yul\":12819:12837   */\n      add\n        /* \"#utility.yul\":12811:12837   */\n      swap1\n      pop\n        /* \"#utility.yul\":12883:12892   */\n      dup2\n        /* \"#utility.yul\":12877:12881   */\n      dup2\n        /* \"#utility.yul\":12873:12893   */\n      sub\n        /* \"#utility.yul\":12869:12870   */\n      0x00\n        /* \"#utility.yul\":12858:12867   */\n      dup4\n        /* \"#utility.yul\":12854:12871   */\n      add\n        /* \"#utility.yul\":12847:12894   */\n      mstore\n        /* \"#utility.yul\":12911:13042   */\n      tag_267\n        /* \"#utility.yul\":13037:13041   */\n      dup2\n        /* \"#utility.yul\":12911:13042   */\n      tag_131\n      jump\t// in\n    tag_267:\n        /* \"#utility.yul\":12903:13042   */\n      swap1\n      pop\n        /* \"#utility.yul\":12630:13049   */\n      swap2\n      swap1\n      pop\n      jump\t// out\n        /* \"#utility.yul\":13055:13235   */\n    tag_39:\n        /* \"#utility.yul\":13103:13180   */\n      0x4e487b7100000000000000000000000000000000000000000000000000000000\n        /* \"#utility.yul\":13100:13101   */\n      0x00\n        /* \"#utility.yul\":13093:13181   */\n      mstore\n        /* \"#utility.yul\":13200:13204   */\n      0x32\n        /* \"#utility.yul\":13197:13198   */\n      0x04\n        /* \"#utility.yul\":13190:13205   */\n      mstore\n        /* \"#utility.yul\":13224:13228   */\n      0x24\n        /* \"#utility.yul\":13221:13222   */\n      0x00\n        /* \"#utility.yul\":13214:13229   */\n      revert\n        /* \"#utility.yul\":13241:13421   */\n    tag_132:\n        /* \"#utility.yul\":13289:13366   */\n      0x4e487b7100000000000000000000000000000000000000000000000000000000\n        /* \"#utility.yul\":13286:13287   */\n      0x00\n        /* \"#utility.yul\":13279:13367   */\n      mstore\n        /* \"#utility.yul\":13386:13390   */\n      0x22\n        /* \"#utility.yul\":13383:13384   */\n      0x04\n        /* \"#utility.yul\":13376:13391   */\n      mstore\n        /* \"#utility.yul\":13410:13414   */\n      0x24\n        /* \"#utility.yul\":13407:13408   */\n      0x00\n        /* \"#utility.yul\":13400:13415   */\n      revert\n        /* \"#utility.yul\":13427:13747   */\n    tag_42:\n        /* \"#utility.yul\":13471:13477   */\n      0x00\n        /* \"#utility.yul\":13508:13509   */\n      0x02\n        /* \"#utility.yul\":13502:13506   */\n      dup3\n        /* \"#utility.yul\":13498:13510   */\n      div\n        /* \"#utility.yul\":13488:13510   */\n      swap1\n      pop\n        /* \"#utility.yul\":13555:13556   */\n      0x01\n        /* \"#utility.yul\":13549:13553   */\n      dup3\n        /* \"#utility.yul\":13545:13557   */\n      and\n        /* \"#utility.yul\":13576:13594   */\n      dup1\n        /* \"#utility.yul\":13566:13647   */\n      tag_271\n      jumpi\n        /* \"#utility.yul\":13632:13636   */\n      0x7f\n        /* \"#utility.yul\":13624:13630   */\n      dup3\n        /* \"#utility.yul\":13620:13637   */\n      and\n        /* \"#utility.yul\":13610:13637   */\n      swap2\n      pop\n        /* \"#utility.yul\":13566:13647   */\n    tag_271:\n        /* \"#utility.yul\":13694:13696   */\n      0x20\n        /* \"#utility.yul\":13686:13692   */\n      dup3\n        /* \"#utility.yul\":13683:13697   */\n      lt\n        /* \"#utility.yul\":13663:13681   */\n      dup2\n        /* \"#utility.yul\":13660:13698   */\n      sub\n        /* \"#utility.yul\":13657:13741   */\n      tag_272\n      jumpi\n        /* \"#utility.yul\":13713:13731   */\n      tag_273\n      tag_132\n      jump\t// in\n    tag_273:\n        /* \"#utility.yul\":13657:13741   */\n    tag_272:\n        /* \"#utility.yul\":13478:13747   */\n      pop\n        /* \"#utility.yul\":13427:13747   */\n      swap2\n      swap1\n      pop\n      jump\t// out\n        /* \"#utility.yul\":13753:13901   */\n    tag_133:\n        /* \"#utility.yul\":13855:13866   */\n      0x00\n        /* \"#utility.yul\":13892:13895   */\n      dup2\n        /* \"#utility.yul\":13877:13895   */\n      swap1\n      pop\n        /* \"#utility.yul\":13753:13901   */\n      swap3\n      swap2\n      pop\n      pop\n      jump\t// out\n        /* \"#utility.yul\":13907:14297   */\n    tag_134:\n        /* \"#utility.yul\":14013:14016   */\n      0x00\n        /* \"#utility.yul\":14041:14080   */\n      tag_276\n        /* \"#utility.yul\":14074:14079   */\n      dup3\n        /* \"#utility.yul\":14041:14080   */\n      tag_101\n      jump\t// in\n    tag_276:\n        /* \"#utility.yul\":14096:14185   */\n      tag_277\n        /* \"#utility.yul\":14178:14184   */\n      dup2\n        /* \"#utility.yul\":14173:14176   */\n      dup6\n        /* \"#utility.yul\":14096:14185   */\n      tag_133\n      jump\t// in\n    tag_277:\n        /* \"#utility.yul\":14089:14185   */\n      swap4\n      pop\n        /* \"#utility.yul\":14194:14259   */\n      tag_278\n        /* \"#utility.yul\":14252:14258   */\n      dup2\n        /* \"#utility.yul\":14247:14250   */\n      dup6\n        /* \"#utility.yul\":14240:14244   */\n      0x20\n        /* \"#utility.yul\":14233:14238   */\n      dup7\n        /* \"#utility.yul\":14229:14245   */\n      add\n        /* \"#utility.yul\":14194:14259   */\n      tag_103\n      jump\t// in\n    tag_278:\n        /* \"#utility.yul\":14284:14290   */\n      dup1\n        /* \"#utility.yul\":14279:14282   */\n      dup5\n        /* \"#utility.yul\":14275:14291   */\n      add\n        /* \"#utility.yul\":14268:14291   */\n      swap2\n      pop\n        /* \"#utility.yul\":14017:14297   */\n      pop\n        /* \"#utility.yul\":13907:14297   */\n      swap3\n      swap2\n      pop\n      pop\n      jump\t// out\n        /* \"#utility.yul\":14303:14578   */\n    tag_80:\n        /* \"#utility.yul\":14435:14438   */\n      0x00\n        /* \"#utility.yul\":14457:14552   */\n      tag_280\n        /* \"#utility.yul\":14548:14551   */\n      dup3\n        /* \"#utility.yul\":14539:14545   */\n      dup5\n        /* \"#utility.yul\":14457:14552   */\n      tag_134\n      jump\t// in\n    tag_280:\n        /* \"#utility.yul\":14450:14552   */\n      swap2\n      pop\n        /* \"#utility.yul\":14569:14572   */\n      dup2\n        /* \"#utility.yul\":14562:14572   */\n      swap1\n      pop\n        /* \"#utility.yul\":14303:14578   */\n      swap3\n      swap2\n      pop\n      pop\n      jump\t// out\n        /* \"#utility.yul\":14584:14763   */\n    tag_135:\n        /* \"#utility.yul\":14724:14755   */\n      0x50726f737065637475732043494420616c726561647920657869737473000000\n        /* \"#utility.yul\":14720:14721   */\n      0x00\n        /* \"#utility.yul\":14712:14718   */\n      dup3\n        /* \"#utility.yul\":14708:14722   */\n      add\n        /* \"#utility.yul\":14701:14756   */\n      mstore\n        /* \"#utility.yul\":14584:14763   */\n      pop\n      jump\t// out\n        /* \"#utility.yul\":14769:15135   */\n    tag_136:\n        /* \"#utility.yul\":14911:14914   */\n      0x00\n        /* \"#utility.yul\":14932:14999   */\n      tag_283\n        /* \"#utility.yul\":14996:14998   */\n      0x1d\n        /* \"#utility.yul\":14991:14994   */\n      dup4\n        /* \"#utility.yul\":14932:14999   */\n      tag_110\n      jump\t// in\n    tag_283:\n        /* \"#utility.yul\":14925:14999   */\n      swap2\n      pop\n        /* \"#utility.yul\":15008:15101   */\n      tag_284\n        /* \"#utility.yul\":15097:15100   */\n      dup3\n        /* \"#utility.yul\":15008:15101   */\n      tag_135\n      jump\t// in\n    tag_284:\n        /* \"#utility.yul\":15126:15128   */\n      0x20\n        /* \"#utility.yul\":15121:15124   */\n      dup3\n        /* \"#utility.yul\":15117:15129   */\n      add\n        /* \"#utility.yul\":15110:15129   */\n      swap1\n      pop\n        /* \"#utility.yul\":14769:15135   */\n      swap2\n      swap1\n      pop\n      jump\t// out\n        /* \"#utility.yul\":15141:15560   */\n    tag_83:\n        /* \"#utility.yul\":15307:15311   */\n      0x00\n        /* \"#utility.yul\":15345:15347   */\n      0x20\n        /* \"#utility.yul\":15334:15343   */\n      dup3\n        /* \"#utility.yul\":15330:15348   */\n      add\n        /* \"#utility.yul\":15322:15348   */\n      swap1\n      pop\n        /* \"#utility.yul\":15394:15403   */\n      dup2\n        /* \"#utility.yul\":15388:15392   */\n      dup2\n        /* \"#utility.yul\":15384:15404   */\n      sub\n        /* \"#utility.yul\":15380:15381   */\n      0x00\n        /* \"#utility.yul\":15369:15378   */\n      dup4\n        /* \"#utility.yul\":15365:15382   */\n      add\n        /* \"#utility.yul\":15358:15405   */\n      mstore\n        /* \"#utility.yul\":15422:15553   */\n      tag_286\n        /* \"#utility.yul\":15548:15552   */\n      dup2\n        /* \"#utility.yul\":15422:15553   */\n      tag_136\n      jump\t// in\n    tag_286:\n        /* \"#utility.yul\":15414:15553   */\n      swap1\n      pop\n        /* \"#utility.yul\":15141:15560   */\n      swap2\n      swap1\n      pop\n      jump\t// out\n        /* \"#utility.yul\":15566:15740   */\n    tag_137:\n        /* \"#utility.yul\":15706:15732   */\n      0x496d6167652043494420616c7265616479206578697374730000000000000000\n        /* \"#utility.yul\":15702:15703   */\n      0x00\n        /* \"#utility.yul\":15694:15700   */\n      dup3\n        /* \"#utility.yul\":15690:15704   */\n      add\n        /* \"#utility.yul\":15683:15733   */\n      mstore\n        /* \"#utility.yul\":15566:15740   */\n      pop\n      jump\t// out\n        /* \"#utility.yul\":15746:16112   */\n    tag_138:\n        /* \"#utility.yul\":15888:15891   */\n      0x00\n        /* \"#utility.yul\":15909:15976   */\n      tag_289\n        /* \"#utility.yul\":15973:15975   */\n      0x18\n        /* \"#utility.yul\":15968:15971   */\n      dup4\n        /* \"#utility.yul\":15909:15976   */\n      tag_110\n      jump\t// in\n    tag_289:\n        /* \"#utility.yul\":15902:15976   */\n      swap2\n      pop\n        /* \"#utility.yul\":15985:16078   */\n      tag_290\n        /* \"#utility.yul\":16074:16077   */\n      dup3\n        /* \"#utility.yul\":15985:16078   */\n      tag_137\n      jump\t// in\n    tag_290:\n        /* \"#utility.yul\":16103:16105   */\n      0x20\n        /* \"#utility.yul\":16098:16101   */\n      dup3\n        /* \"#utility.yul\":16094:16106   */\n      add\n        /* \"#utility.yul\":16087:16106   */\n      swap1\n      pop\n        /* \"#utility.yul\":15746:16112   */\n      swap2\n      swap1\n      pop\n      jump\t// out\n        /* \"#utility.yul\":16118:16537   */\n    tag_87:\n        /* \"#utility.yul\":16284:16288   */\n      0x00\n        /* \"#utility.yul\":16322:16324   */\n      0x20\n        /* \"#utility.yul\":16311:16320   */\n      dup3\n        /* \"#utility.yul\":16307:16325   */\n      add\n        /* \"#utility.yul\":16299:16325   */\n      swap1\n      pop\n        /* \"#utility.yul\":16371:16380   */\n      dup2\n        /* \"#utility.yul\":16365:16369   */\n      dup2\n        /* \"#utility.yul\":16361:16381   */\n      sub\n        /* \"#utility.yul\":16357:16358   */\n      0x00\n        /* \"#utility.yul\":16346:16355   */\n      dup4\n        /* \"#utility.yul\":16342:16359   */\n      add\n        /* \"#utility.yul\":16335:16382   */\n      mstore\n        /* \"#utility.yul\":16399:16530   */\n      tag_292\n        /* \"#utility.yul\":16525:16529   */\n      dup2\n        /* \"#utility.yul\":16399:16530   */\n      tag_138\n      jump\t// in\n    tag_292:\n        /* \"#utility.yul\":16391:16530   */\n      swap1\n      pop\n        /* \"#utility.yul\":16118:16537   */\n      swap2\n      swap1\n      pop\n      jump\t// out\n        /* \"#utility.yul\":16543:16684   */\n    tag_139:\n        /* \"#utility.yul\":16592:16596   */\n      0x00\n        /* \"#utility.yul\":16615:16618   */\n      dup2\n        /* \"#utility.yul\":16607:16618   */\n      swap1\n      pop\n        /* \"#utility.yul\":16638:16641   */\n      dup2\n        /* \"#utility.yul\":16635:16636   */\n      0x00\n        /* \"#utility.yul\":16628:16642   */\n      mstore\n        /* \"#utility.yul\":16672:16676   */\n      0x20\n        /* \"#utility.yul\":16669:16670   */\n      0x00\n        /* \"#utility.yul\":16659:16677   */\n      keccak256\n        /* \"#utility.yul\":16651:16677   */\n      swap1\n      pop\n        /* \"#utility.yul\":16543:16684   */\n      swap2\n      swap1\n      pop\n      jump\t// out\n        /* \"#utility.yul\":16690:16783   */\n    tag_140:\n        /* \"#utility.yul\":16727:16733   */\n      0x00\n        /* \"#utility.yul\":16774:16776   */\n      0x20\n        /* \"#utility.yul\":16769:16771   */\n      0x1f\n        /* \"#utility.yul\":16762:16767   */\n      dup4\n        /* \"#utility.yul\":16758:16772   */\n      add\n        /* \"#utility.yul\":16754:16777   */\n      div\n        /* \"#utility.yul\":16744:16777   */\n      swap1\n      pop\n        /* \"#utility.yul\":16690:16783   */\n      swap2\n      swap1\n      pop\n      jump\t// out\n        /* \"#utility.yul\":16789:16896   */\n    tag_141:\n        /* \"#utility.yul\":16833:16841   */\n      0x00\n        /* \"#utility.yul\":16883:16888   */\n      dup3\n        /* \"#utility.yul\":16877:16881   */\n      dup3\n        /* \"#utility.yul\":16873:16889   */\n      shl\n        /* \"#utility.yul\":16852:16889   */\n      swap1\n      pop\n        /* \"#utility.yul\":16789:16896   */\n      swap3\n      swap2\n      pop\n      pop\n      jump\t// out\n        /* \"#utility.yul\":16902:17295   */\n    tag_142:\n        /* \"#utility.yul\":16971:16977   */\n      0x00\n        /* \"#utility.yul\":17021:17022   */\n      0x08\n        /* \"#utility.yul\":17009:17019   */\n      dup4\n        /* \"#utility.yul\":17005:17023   */\n      mul\n        /* \"#utility.yul\":17044:17141   */\n      tag_297\n        /* \"#utility.yul\":17074:17140   */\n      0xffffffffffffffffffffffffffffffffffffffffffffffffffffffffffffffff\n        /* \"#utility.yul\":17063:17072   */\n      dup3\n        /* \"#utility.yul\":17044:17141   */\n      tag_141\n      jump\t// in\n    tag_297:\n        /* \"#utility.yul\":17162:17201   */\n      tag_298\n        /* \"#utility.yul\":17192:17200   */\n      dup7\n        /* \"#utility.yul\":17181:17190   */\n      dup4\n        /* \"#utility.yul\":17162:17201   */\n      tag_141\n      jump\t// in\n    tag_298:\n        /* \"#utility.yul\":17150:17201   */\n      swap6\n      pop\n        /* \"#utility.yul\":17234:17238   */\n      dup1\n        /* \"#utility.yul\":17230:17239   */\n      not\n        /* \"#utility.yul\":17223:17228   */\n      dup5\n        /* \"#utility.yul\":17219:17240   */\n      and\n        /* \"#utility.yul\":17210:17240   */\n      swap4\n      pop\n        /* \"#utility.yul\":17283:17287   */\n      dup1\n        /* \"#utility.yul\":17273:17281   */\n      dup7\n        /* \"#utility.yul\":17269:17288   */\n      and\n        /* \"#utility.yul\":17262:17267   */\n      dup5\n        /* \"#utility.yul\":17259:17289   */\n      or\n        /* \"#utility.yul\":17249:17289   */\n      swap3\n      pop\n        /* \"#utility.yul\":16978:17295   */\n      pop\n      pop\n        /* \"#utility.yul\":16902:17295   */\n      swap4\n      swap3\n      pop\n      pop\n      pop\n      jump\t// out\n        /* \"#utility.yul\":17301:17361   */\n    tag_143:\n        /* \"#utility.yul\":17329:17332   */\n      0x00\n        /* \"#utility.yul\":17350:17355   */\n      dup2\n        /* \"#utility.yul\":17343:17355   */\n      swap1\n      pop\n        /* \"#utility.yul\":17301:17361   */\n      swap2\n      swap1\n      pop\n      jump\t// out\n        /* \"#utility.yul\":17367:17509   */\n    tag_144:\n        /* \"#utility.yul\":17417:17426   */\n      0x00\n        /* \"#utility.yul\":17450:17503   */\n      tag_301\n        /* \"#utility.yul\":17468:17502   */\n      tag_302\n        /* \"#utility.yul\":17477:17501   */\n      tag_303\n        /* \"#utility.yul\":17495:17500   */\n      dup5\n        /* \"#utility.yul\":17477:17501   */\n      tag_98\n      jump\t// in\n    tag_303:\n        /* \"#utility.yul\":17468:17502   */\n      tag_143\n      jump\t// in\n    tag_302:\n        /* \"#utility.yul\":17450:17503   */\n      tag_98\n      jump\t// in\n    tag_301:\n        /* \"#utility.yul\":17437:17503   */\n      swap1\n      pop\n        /* \"#utility.yul\":17367:17509   */\n      swap2\n      swap1\n      pop\n      jump\t// out\n        /* \"#utility.yul\":17515:17590   */\n    tag_145:\n        /* \"#utility.yul\":17558:17561   */\n      0x00\n        /* \"#utility.yul\":17579:17584   */\n      dup2\n        /* \"#utility.yul\":17572:17584   */\n      swap1\n      pop\n        /* \"#utility.yul\":17515:17590   */\n      swap2\n      swap1\n      pop\n      jump\t// out\n        /* \"#utility.yul\":17596:17865   */\n    tag_146:\n        /* \"#utility.yul\":17706:17745   */\n      tag_306\n        /* \"#utility.yul\":17737:17744   */\n      dup4\n        /* \"#utility.yul\":17706:17745   */\n      tag_144\n      jump\t// in\n    tag_306:\n        /* \"#utility.yul\":17767:17858   */\n      tag_307\n        /* \"#utility.yul\":17816:17857   */\n      tag_308\n        /* \"#utility.yul\":17840:17856   */\n      dup3\n        /* \"#utility.yul\":17816:17857   */\n      tag_145\n      jump\t// in\n    tag_308:\n        /* \"#utility.yul\":17808:17814   */\n      dup5\n        /* \"#utility.yul\":17801:17805   */\n      dup5\n        /* \"#utility.yul\":17795:17806   */\n      sload\n        /* \"#utility.yul\":17767:17858   */\n      tag_142\n      jump\t// in\n    tag_307:\n        /* \"#utility.yul\":17761:17765   */\n      dup3\n        /* \"#utility.yul\":17754:17859   */\n      sstore\n        /* \"#utility.yul\":17672:17865   */\n      pop\n        /* \"#utility.yul\":17596:17865   */\n      pop\n      pop\n      pop\n      jump\t// out\n        /* \"#utility.yul\":17871:17944   */\n    tag_147:\n        /* \"#utility.yul\":17916:17919   */\n      0x00\n        /* \"#utility.yul\":17871:17944   */\n      swap1\n      jump\t// out\n        /* \"#utility.yul\":17950:18139   */\n    tag_148:\n        /* \"#utility.yul\":18027:18059   */\n      tag_311\n      tag_147\n      jump\t// in\n    tag_311:\n        /* \"#utility.yul\":18068:18133   */\n      tag_312\n        /* \"#utility.yul\":18126:18132   */\n      dup2\n        /* \"#utility.yul\":18118:18124   */\n      dup5\n        /* \"#utility.yul\":18112:18116   */\n      dup5\n        /* \"#utility.yul\":18068:18133   */\n      tag_146\n      jump\t// in\n    tag_312:\n        /* \"#utility.yul\":18003:18139   */\n      pop\n        /* \"#utility.yul\":17950:18139   */\n      pop\n      pop\n      jump\t// out\n        /* \"#utility.yul\":18145:18331   */\n    tag_149:\n        /* \"#utility.yul\":18205:18325   */\n    tag_314:\n        /* \"#utility.yul\":18222:18225   */\n      dup2\n        /* \"#utility.yul\":18215:18220   */\n      dup2\n        /* \"#utility.yul\":18212:18226   */\n      lt\n        /* \"#utility.yul\":18205:18325   */\n      iszero\n      tag_316\n      jumpi\n        /* \"#utility.yul\":18276:18315   */\n      tag_317\n        /* \"#utility.yul\":18313:18314   */\n      0x00\n        /* \"#utility.yul\":18306:18311   */\n      dup3\n        /* \"#utility.yul\":18276:18315   */\n      tag_148\n      jump\t// in\n    tag_317:\n        /* \"#utility.yul\":18249:18250   */\n      0x01\n        /* \"#utility.yul\":18242:18247   */\n      dup2\n        /* \"#utility.yul\":18238:18251   */\n      add\n        /* \"#utility.yul\":18229:18251   */\n      swap1\n      pop\n        /* \"#utility.yul\":18205:18325   */\n      jump(tag_314)\n    tag_316:\n        /* \"#utility.yul\":18145:18331   */\n      pop\n      pop\n      jump\t// out\n        /* \"#utility.yul\":18337:18880   */\n    tag_150:\n        /* \"#utility.yul\":18438:18440   */\n      0x1f\n        /* \"#utility.yul\":18433:18436   */\n      dup3\n        /* \"#utility.yul\":18430:18441   */\n      gt\n        /* \"#utility.yul\":18427:18873   */\n      iszero\n      tag_319\n      jumpi\n        /* \"#utility.yul\":18472:18510   */\n      tag_320\n        /* \"#utility.yul\":18504:18509   */\n      dup2\n        /* \"#utility.yul\":18472:18510   */\n      tag_139\n      jump\t// in\n    tag_320:\n        /* \"#utility.yul\":18556:18585   */\n      tag_321\n        /* \"#utility.yul\":18574:18584   */\n      dup5\n        /* \"#utility.yul\":18556:18585   */\n      tag_140\n      jump\t// in\n    tag_321:\n        /* \"#utility.yul\":18546:18554   */\n      dup2\n        /* \"#utility.yul\":18542:18586   */\n      add\n        /* \"#utility.yul\":18739:18741   */\n      0x20\n        /* \"#utility.yul\":18727:18737   */\n      dup6\n        /* \"#utility.yul\":18724:18742   */\n      lt\n        /* \"#utility.yul\":18721:18770   */\n      iszero\n      tag_322\n      jumpi\n        /* \"#utility.yul\":18760:18768   */\n      dup2\n        /* \"#utility.yul\":18745:18768   */\n      swap1\n      pop\n        /* \"#utility.yul\":18721:18770   */\n    tag_322:\n        /* \"#utility.yul\":18783:18863   */\n      tag_323\n        /* \"#utility.yul\":18839:18861   */\n      tag_324\n        /* \"#utility.yul\":18857:18860   */\n      dup6\n        /* \"#utility.yul\":18839:18861   */\n      tag_140\n      jump\t// in\n    tag_324:\n        /* \"#utility.yul\":18829:18837   */\n      dup4\n        /* \"#utility.yul\":18825:18862   */\n      add\n        /* \"#utility.yul\":18812:18823   */\n      dup3\n        /* \"#utility.yul\":18783:18863   */\n      tag_149\n      jump\t// in\n    tag_323:\n        /* \"#utility.yul\":18442:18873   */\n      pop\n      pop\n        /* \"#utility.yul\":18427:18873   */\n    tag_319:\n        /* \"#utility.yul\":18337:18880   */\n      pop\n      pop\n      pop\n      jump\t// out\n        /* \"#utility.yul\":18886:19003   */\n    tag_151:\n        /* \"#utility.yul\":18940:18948   */\n      0x00\n        /* \"#utility.yul\":18990:18995   */\n      dup3\n        /* \"#utility.yul\":18984:18988   */\n      dup3\n        /* \"#utility.yul\":18980:18996   */\n      shr\n        /* \"#utility.yul\":18959:18996   */\n      swap1\n      pop\n        /* \"#utility.yul\":18886:19003   */\n      swap3\n      swap2\n      pop\n      pop\n      jump\t// out\n        /* \"#utility.yul\":19009:19178   */\n    tag_152:\n        /* \"#utility.yul\":19053:19059   */\n      0x00\n        /* \"#utility.yul\":19086:19137   */\n      tag_327\n        /* \"#utility.yul\":19134:19135   */\n      0x00\n        /* \"#utility.yul\":19130:19136   */\n      not\n        /* \"#utility.yul\":19122:19127   */\n      dup5\n        /* \"#utility.yul\":19119:19120   */\n      0x08\n        /* \"#utility.yul\":19115:19128   */\n      mul\n        /* \"#utility.yul\":19086:19137   */\n      tag_151\n      jump\t// in\n    tag_327:\n        /* \"#utility.yul\":19082:19138   */\n      not\n        /* \"#utility.yul\":19167:19171   */\n      dup1\n        /* \"#utility.yul\":19161:19165   */\n      dup4\n        /* \"#utility.yul\":19157:19172   */\n      and\n        /* \"#utility.yul\":19147:19172   */\n      swap2\n      pop\n        /* \"#utility.yul\":19060:19178   */\n      pop\n        /* \"#utility.yul\":19009:19178   */\n      swap3\n      swap2\n      pop\n      pop\n      jump\t// out\n        /* \"#utility.yul\":19183:19478   */\n    tag_153:\n        /* \"#utility.yul\":19259:19263   */\n      0x00\n        /* \"#utility.yul\":19405:19434   */\n      tag_329\n        /* \"#utility.yul\":19430:19433   */\n      dup4\n        /* \"#utility.yul\":19424:19428   */\n      dup4\n        /* \"#utility.yul\":19405:19434   */\n      tag_152\n      jump\t// in\n    tag_329:\n        /* \"#utility.yul\":19397:19434   */\n      swap2\n      pop\n        /* \"#utility.yul\":19467:19470   */\n      dup3\n        /* \"#utility.yul\":19464:19465   */\n      0x02\n        /* \"#utility.yul\":19460:19471   */\n      mul\n        /* \"#utility.yul\":19454:19458   */\n      dup3\n        /* \"#utility.yul\":19451:19472   */\n      or\n        /* \"#utility.yul\":19443:19472   */\n      swap1\n      pop\n        /* \"#utility.yul\":19183:19478   */\n      swap3\n      swap2\n      pop\n      pop\n      jump\t// out\n        /* \"#utility.yul\":19483:20878   */\n    tag_90:\n        /* \"#utility.yul\":19600:19637   */\n      tag_331\n        /* \"#utility.yul\":19633:19636   */\n      dup3\n        /* \"#utility.yul\":19600:19637   */\n      tag_101\n      jump\t// in\n    tag_331:\n        /* \"#utility.yul\":19702:19720   */\n      0xffffffffffffffff\n        /* \"#utility.yul\":19694:19700   */\n      dup2\n        /* \"#utility.yul\":19691:19721   */\n      gt\n        /* \"#utility.yul\":19688:19744   */\n      iszero\n      tag_332\n      jumpi\n        /* \"#utility.yul\":19724:19742   */\n      tag_333\n      tag_122\n      jump\t// in\n    tag_333:\n        /* \"#utility.yul\":19688:19744   */\n    tag_332:\n        /* \"#utility.yul\":19768:19806   */\n      tag_334\n        /* \"#utility.yul\":19800:19804   */\n      dup3\n        /* \"#utility.yul\":19794:19805   */\n      sload\n        /* \"#utility.yul\":19768:19806   */\n      tag_42\n      jump\t// in\n    tag_334:\n        /* \"#utility.yul\":19853:19920   */\n      tag_335\n        /* \"#utility.yul\":19913:19919   */\n      dup3\n        /* \"#utility.yul\":19905:19911   */\n      dup3\n        /* \"#utility.yul\":19899:19903   */\n      dup6\n        /* \"#utility.yul\":19853:19920   */\n      tag_150\n      jump\t// in\n    tag_335:\n        /* \"#utility.yul\":19947:19948   */\n      0x00\n        /* \"#utility.yul\":19971:19975   */\n      0x20\n        /* \"#utility.yul\":19958:19975   */\n      swap1\n      pop\n        /* \"#utility.yul\":20003:20005   */\n      0x1f\n        /* \"#utility.yul\":19995:20001   */\n      dup4\n        /* \"#utility.yul\":19992:20006   */\n      gt\n        /* \"#utility.yul\":20020:20021   */\n      0x01\n        /* \"#utility.yul\":20015:20633   */\n      dup2\n      eq\n      tag_337\n      jumpi\n        /* \"#utility.yul\":20677:20678   */\n      0x00\n        /* \"#utility.yul\":20694:20700   */\n      dup5\n        /* \"#utility.yul\":20691:20768   */\n      iszero\n      tag_338\n      jumpi\n        /* \"#utility.yul\":20743:20752   */\n      dup3\n        /* \"#utility.yul\":20738:20741   */\n      dup8\n        /* \"#utility.yul\":20734:20753   */\n      add\n        /* \"#utility.yul\":20728:20754   */\n      mload\n        /* \"#utility.yul\":20719:20754   */\n      swap1\n      pop\n        /* \"#utility.yul\":20691:20768   */\n    tag_338:\n        /* \"#utility.yul\":20794:20861   */\n      tag_339\n        /* \"#utility.yul\":20854:20860   */\n      dup6\n        /* \"#utility.yul\":20847:20852   */\n      dup3\n        /* \"#utility.yul\":20794:20861   */\n      tag_153\n      jump\t// in\n    tag_339:\n        /* \"#utility.yul\":20788:20792   */\n      dup7\n        /* \"#utility.yul\":20781:20862   */\n      sstore\n        /* \"#utility.yul\":20650:20872   */\n      pop\n        /* \"#utility.yul\":19985:20872   */\n      jump(tag_336)\n        /* \"#utility.yul\":20015:20633   */\n    tag_337:\n        /* \"#utility.yul\":20067:20071   */\n      0x1f\n        /* \"#utility.yul\":20063:20072   */\n      not\n        /* \"#utility.yul\":20055:20061   */\n      dup5\n        /* \"#utility.yul\":20051:20073   */\n      and\n        /* \"#utility.yul\":20101:20138   */\n      tag_340\n        /* \"#utility.yul\":20133:20137   */\n      dup7\n        /* \"#utility.yul\":20101:20138   */\n      tag_139\n      jump\t// in\n    tag_340:\n        /* \"#utility.yul\":20160:20161   */\n      0x00\n        /* \"#utility.yul\":20174:20382   */\n    tag_341:\n        /* \"#utility.yul\":20188:20195   */\n      dup3\n        /* \"#utility.yul\":20185:20186   */\n      dup2\n        /* \"#utility.yul\":20182:20196   */\n      lt\n        /* \"#utility.yul\":20174:20382   */\n      iszero\n      tag_343\n      jumpi\n        /* \"#utility.yul\":20267:20276   */\n      dup5\n        /* \"#utility.yul\":20262:20265   */\n      dup10\n        /* \"#utility.yul\":20258:20277   */\n      add\n        /* \"#utility.yul\":20252:20278   */\n      mload\n        /* \"#utility.yul\":20244:20250   */\n      dup3\n        /* \"#utility.yul\":20237:20279   */\n      sstore\n        /* \"#utility.yul\":20318:20319   */\n      0x01\n        /* \"#utility.yul\":20310:20316   */\n      dup3\n        /* \"#utility.yul\":20306:20320   */\n      add\n        /* \"#utility.yul\":20296:20320   */\n      swap2\n      pop\n        /* \"#utility.yul\":20365:20367   */\n      0x20\n        /* \"#utility.yul\":20354:20363   */\n      dup6\n        /* \"#utility.yul\":20350:20368   */\n      add\n        /* \"#utility.yul\":20337:20368   */\n      swap5\n      pop\n        /* \"#utility.yul\":20211:20215   */\n      0x20\n        /* \"#utility.yul\":20208:20209   */\n      dup2\n        /* \"#utility.yul\":20204:20216   */\n      add\n        /* \"#utility.yul\":20199:20216   */\n      swap1\n      pop\n        /* \"#utility.yul\":20174:20382   */\n      jump(tag_341)\n    tag_343:\n        /* \"#utility.yul\":20410:20416   */\n      dup7\n        /* \"#utility.yul\":20401:20408   */\n      dup4\n        /* \"#utility.yul\":20398:20417   */\n      lt\n        /* \"#utility.yul\":20395:20574   */\n      iszero\n      tag_344\n      jumpi\n        /* \"#utility.yul\":20468:20477   */\n      dup5\n        /* \"#utility.yul\":20463:20466   */\n      dup10\n        /* \"#utility.yul\":20459:20478   */\n      add\n        /* \"#utility.yul\":20453:20479   */\n      mload\n        /* \"#utility.yul\":20511:20559   */\n      tag_345\n        /* \"#utility.yul\":20553:20557   */\n      0x1f\n        /* \"#utility.yul\":20545:20551   */\n      dup10\n        /* \"#utility.yul\":20541:20558   */\n      and\n        /* \"#utility.yul\":20530:20539   */\n      dup3\n        /* \"#utility.yul\":20511:20559   */\n      tag_152\n      jump\t// in\n    tag_345:\n        /* \"#utility.yul\":20503:20509   */\n      dup4\n        /* \"#utility.yul\":20496:20560   */\n      sstore\n        /* \"#utility.yul\":20418:20574   */\n      pop\n        /* \"#utility.yul\":20395:20574   */\n    tag_344:\n        /* \"#utility.yul\":20620:20621   */\n      0x01\n        /* \"#utility.yul\":20616:20617   */\n      0x02\n        /* \"#utility.yul\":20608:20614   */\n      dup9\n        /* \"#utility.yul\":20604:20618   */\n      mul\n        /* \"#utility.yul\":20600:20622   */\n      add\n        /* \"#utility.yul\":20594:20598   */\n      dup9\n        /* \"#utility.yul\":20587:20623   */\n      sstore\n        /* \"#utility.yul\":20022:20633   */\n      pop\n      pop\n      pop\n        /* \"#utility.yul\":19985:20872   */\n    tag_336:\n      pop\n        /* \"#utility.yul\":19575:20878   */\n      pop\n      pop\n      pop\n        /* \"#utility.yul\":19483:20878   */\n      pop\n      pop\n      jump\t// out\n\n    auxdata: 0xa2646970667358221220554a1313ce5637e945988522ddaae262ca2c63d4b91493e85947559879ddf4c064736f6c63430008150033\n}\n",
				"bytecode": {
					"linkReferences": {},
					"object": "608060405234801561000f575f80fd5b506112778061001d5f395ff3fe608060405234801561000f575f80fd5b5060043610610055575f3560e01c806303e9e609146100595780633446106714610089578063a7f9fe72146100bb578063c9596248146100d9578063ca267f28146100f5575b5f80fd5b610073600480360381019061006e91906108c8565b610113565b6040516100809190610a10565b60405180910390f35b6100a3600480360381019061009e91906108c8565b610306565b6040516100b293929190610a87565b60405180910390f35b6100c3610465565b6040516100d09190610bd9565b60405180910390f35b6100f360048036038101906100ee9190610d25565b610634565b005b6100fd610843565b60405161010a9190610daa565b60405180910390f35b61011b61084e565b5f805490508210610161576040517f08c379a000000000000000000000000000000000000000000000000000000000815260040161015890610e0d565b60405180910390fd5b5f828154811061017457610173610e2b565b5b905f5260205f2090600302016040518060600160405290815f8201805461019a90610e85565b80601f01602080910402602001604051908101604052809291908181526020018280546101c690610e85565b80156102115780601f106101e857610100808354040283529160200191610211565b820191905f5260205f20905b8154815290600101906020018083116101f457829003601f168201915b5050505050815260200160018201805461022a90610e85565b80601f016020809104026020016040519081016040528092919081815260200182805461025690610e85565b80156102a15780601f10610278576101008083540402835291602001916102a1565b820191905f5260205f20905b81548152906001019060200180831161028457829003601f168201915b50505050508152602001600282015f9054906101000a900473ffffffffffffffffffffffffffffffffffffffff1673ffffffffffffffffffffffffffffffffffffffff1673ffffffffffffffffffffffffffffffffffffffff16815250509050919050565b5f8181548110610314575f80fd5b905f5260205f2090600302015f91509050805f01805461033390610e85565b80601f016020809104026020016040519081016040528092919081815260200182805461035f90610e85565b80156103aa5780601f10610381576101008083540402835291602001916103aa565b820191905f5260205f20905b81548152906001019060200180831161038d57829003601f168201915b5050505050908060010180546103bf90610e85565b80601f01602080910402602001604051908101604052809291908181526020018280546103eb90610e85565b80156104365780601f1061040d57610100808354040283529160200191610436565b820191905f5260205f20905b81548152906001019060200180831161041957829003601f168201915b505050505090806002015f9054906101000a900473ffffffffffffffffffffffffffffffffffffffff16905083565b60605f805480602002602001604051908101604052809291908181526020015f905b8282101561062b578382905f5260205f2090600302016040518060600160405290815f820180546104b790610e85565b80601f01602080910402602001604051908101604052809291908181526020018280546104e390610e85565b801561052e5780601f106105055761010080835404028352916020019161052e565b820191905f5260205f20905b81548152906001019060200180831161051157829003601f168201915b5050505050815260200160018201805461054790610e85565b80601f016020809104026020016040519081016040528092919081815260200182805461057390610e85565b80156105be5780601f10610595576101008083540402835291602001916105be565b820191905f5260205f20905b8154815290600101906020018083116105a157829003601f168201915b50505050508152602001600282015f9054906101000a900473ffffffffffffffffffffffffffffffffffffffff1673ffffffffffffffffffffffffffffffffffffffff1673ffffffffffffffffffffffffffffffffffffffff168152505081526020019060010190610487565b50505050905090565b6001826040516106449190610eef565b90815260200160405180910390205f9054906101000a900460ff161561069f576040517f08c379a000000000000000000000000000000000000000000000000000000000815260040161069690610f4f565b60405180910390fd5b6002816040516106af9190610eef565b90815260200160405180910390205f9054906101000a900460ff161561070a576040517f08c379a000000000000000000000000000000000000000000000000000000000815260040161070190610fb7565b60405180910390fd5b5f60405180606001604052808481526020018381526020013373ffffffffffffffffffffffffffffffffffffffff16815250908060018154018082558091505060019003905f5260205f2090600302015f909190919091505f820151815f0190816107759190611172565b50602082015181600101908161078b9190611172565b506040820151816002015f6101000a81548173ffffffffffffffffffffffffffffffffffffffff021916908373ffffffffffffffffffffffffffffffffffffffff1602179055505050600180836040516107e59190610eef565b90815260200160405180910390205f6101000a81548160ff021916908315150217905550600160028260405161081b9190610eef565b90815260200160405180910390205f6101000a81548160ff0219169083151502179055505050565b5f8080549050905090565b604051806060016040528060608152602001606081526020015f73ffffffffffffffffffffffffffffffffffffffff1681525090565b5f604051905090565b5f80fd5b5f80fd5b5f819050919050565b6108a781610895565b81146108b1575f80fd5b50565b5f813590506108c28161089e565b92915050565b5f602082840312156108dd576108dc61088d565b5b5f6108ea848285016108b4565b91505092915050565b5f81519050919050565b5f82825260208201905092915050565b5f5b8381101561092a57808201518184015260208101905061090f565b5f8484015250505050565b5f601f19601f8301169050919050565b5f61094f826108f3565b61095981856108fd565b935061096981856020860161090d565b61097281610935565b840191505092915050565b5f73ffffffffffffffffffffffffffffffffffffffff82169050919050565b5f6109a68261097d565b9050919050565b6109b68161099c565b82525050565b5f606083015f8301518482035f8601526109d68282610945565b915050602083015184820360208601526109f08282610945565b9150506040830151610a0560408601826109ad565b508091505092915050565b5f6020820190508181035f830152610a2881846109bc565b905092915050565b5f82825260208201905092915050565b5f610a4a826108f3565b610a548185610a30565b9350610a6481856020860161090d565b610a6d81610935565b840191505092915050565b610a818161099c565b82525050565b5f6060820190508181035f830152610a9f8186610a40565b90508181036020830152610ab38185610a40565b9050610ac26040830184610a78565b949350505050565b5f81519050919050565b5f82825260208201905092915050565b5f819050602082019050919050565b5f606083015f8301518482035f860152610b0d8282610945565b91505060208301518482036020860152610b278282610945565b9150506040830151610b3c60408601826109ad565b508091505092915050565b5f610b528383610af3565b905092915050565b5f602082019050919050565b5f610b7082610aca565b610b7a8185610ad4565b935083602082028501610b8c85610ae4565b805f5b85811015610bc75784840389528151610ba88582610b47565b9450610bb383610b5a565b925060208a01995050600181019050610b8f565b50829750879550505050505092915050565b5f6020820190508181035f830152610bf18184610b66565b905092915050565b5f80fd5b5f80fd5b7f4e487b71000000000000000000000000000000000000000000000000000000005f52604160045260245ffd5b610c3782610935565b810181811067ffffffffffffffff82111715610c5657610c55610c01565b5b80604052505050565b5f610c68610884565b9050610c748282610c2e565b919050565b5f67ffffffffffffffff821115610c9357610c92610c01565b5b610c9c82610935565b9050602081019050919050565b828183375f83830152505050565b5f610cc9610cc484610c79565b610c5f565b905082815260208101848484011115610ce557610ce4610bfd565b5b610cf0848285610ca9565b509392505050565b5f82601f830112610d0c57610d0b610bf9565b5b8135610d1c848260208601610cb7565b91505092915050565b5f8060408385031215610d3b57610d3a61088d565b5b5f83013567ffffffffffffffff811115610d5857610d57610891565b5b610d6485828601610cf8565b925050602083013567ffffffffffffffff811115610d8557610d84610891565b5b610d9185828601610cf8565b9150509250929050565b610da481610895565b82525050565b5f602082019050610dbd5f830184610d9b565b92915050565b7f496e646578206f7574206f6620626f756e6473000000000000000000000000005f82015250565b5f610df7601383610a30565b9150610e0282610dc3565b602082019050919050565b5f6020820190508181035f830152610e2481610deb565b9050919050565b7f4e487b71000000000000000000000000000000000000000000000000000000005f52603260045260245ffd5b7f4e487b71000000000000000000000000000000000000000000000000000000005f52602260045260245ffd5b5f6002820490506001821680610e9c57607f821691505b602082108103610eaf57610eae610e58565b5b50919050565b5f81905092915050565b5f610ec9826108f3565b610ed38185610eb5565b9350610ee381856020860161090d565b80840191505092915050565b5f610efa8284610ebf565b915081905092915050565b7f50726f737065637475732043494420616c7265616479206578697374730000005f82015250565b5f610f39601d83610a30565b9150610f4482610f05565b602082019050919050565b5f6020820190508181035f830152610f6681610f2d565b9050919050565b7f496d6167652043494420616c72656164792065786973747300000000000000005f82015250565b5f610fa1601883610a30565b9150610fac82610f6d565b602082019050919050565b5f6020820190508181035f830152610fce81610f95565b9050919050565b5f819050815f5260205f209050919050565b5f6020601f8301049050919050565b5f82821b905092915050565b5f600883026110317fffffffffffffffffffffffffffffffffffffffffffffffffffffffffffffffff82610ff6565b61103b8683610ff6565b95508019841693508086168417925050509392505050565b5f819050919050565b5f61107661107161106c84610895565b611053565b610895565b9050919050565b5f819050919050565b61108f8361105c565b6110a361109b8261107d565b848454611002565b825550505050565b5f90565b6110b76110ab565b6110c2818484611086565b505050565b5b818110156110e5576110da5f826110af565b6001810190506110c8565b5050565b601f82111561112a576110fb81610fd5565b61110484610fe7565b81016020851015611113578190505b61112761111f85610fe7565b8301826110c7565b50505b505050565b5f82821c905092915050565b5f61114a5f198460080261112f565b1980831691505092915050565b5f611162838361113b565b9150826002028217905092915050565b61117b826108f3565b67ffffffffffffffff81111561119457611193610c01565b5b61119e8254610e85565b6111a98282856110e9565b5f60209050601f8311600181146111da575f84156111c8578287015190505b6111d28582611157565b865550611239565b601f1984166111e886610fd5565b5f5b8281101561120f578489015182556001820191506020850194506020810190506111ea565b8683101561122c5784890151611228601f89168261113b565b8355505b6001600288020188555050505b50505050505056fea2646970667358221220554a1313ce5637e945988522ddaae262ca2c63d4b91493e85947559879ddf4c064736f6c63430008150033",
					"opcodes": "PUSH1 0x80 PUSH1 0x40 MSTORE CALLVALUE DUP1 ISZERO PUSH2 0xF JUMPI PUSH0 DUP1 REVERT JUMPDEST POP PUSH2 0x1277 DUP1 PUSH2 0x1D PUSH0 CODECOPY PUSH0 RETURN INVALID PUSH1 0x80 PUSH1 0x40 MSTORE CALLVALUE DUP1 ISZERO PUSH2 0xF JUMPI PUSH0 DUP1 REVERT JUMPDEST POP PUSH1 0x4 CALLDATASIZE LT PUSH2 0x55 JUMPI PUSH0 CALLDATALOAD PUSH1 0xE0 SHR DUP1 PUSH4 0x3E9E609 EQ PUSH2 0x59 JUMPI DUP1 PUSH4 0x34461067 EQ PUSH2 0x89 JUMPI DUP1 PUSH4 0xA7F9FE72 EQ PUSH2 0xBB JUMPI DUP1 PUSH4 0xC9596248 EQ PUSH2 0xD9 JUMPI DUP1 PUSH4 0xCA267F28 EQ PUSH2 0xF5 JUMPI JUMPDEST PUSH0 DUP1 REVERT JUMPDEST PUSH2 0x73 PUSH1 0x4 DUP1 CALLDATASIZE SUB DUP2 ADD SWAP1 PUSH2 0x6E SWAP2 SWAP1 PUSH2 0x8C8 JUMP JUMPDEST PUSH2 0x113 JUMP JUMPDEST PUSH1 0x40 MLOAD PUSH2 0x80 SWAP2 SWAP1 PUSH2 0xA10 JUMP JUMPDEST PUSH1 0x40 MLOAD DUP1 SWAP2 SUB SWAP1 RETURN JUMPDEST PUSH2 0xA3 PUSH1 0x4 DUP1 CALLDATASIZE SUB DUP2 ADD SWAP1 PUSH2 0x9E SWAP2 SWAP1 PUSH2 0x8C8 JUMP JUMPDEST PUSH2 0x306 JUMP JUMPDEST PUSH1 0x40 MLOAD PUSH2 0xB2 SWAP4 SWAP3 SWAP2 SWAP1 PUSH2 0xA87 JUMP JUMPDEST PUSH1 0x40 MLOAD DUP1 SWAP2 SUB SWAP1 RETURN JUMPDEST PUSH2 0xC3 PUSH2 0x465 JUMP JUMPDEST PUSH1 0x40 MLOAD PUSH2 0xD0 SWAP2 SWAP1 PUSH2 0xBD9 JUMP JUMPDEST PUSH1 0x40 MLOAD DUP1 SWAP2 SUB SWAP1 RETURN JUMPDEST PUSH2 0xF3 PUSH1 0x4 DUP1 CALLDATASIZE SUB DUP2 ADD SWAP1 PUSH2 0xEE SWAP2 SWAP1 PUSH2 0xD25 JUMP JUMPDEST PUSH2 0x634 JUMP JUMPDEST STOP JUMPDEST PUSH2 0xFD PUSH2 0x843 JUMP JUMPDEST PUSH1 0x40 MLOAD PUSH2 0x10A SWAP2 SWAP1 PUSH2 0xDAA JUMP JUMPDEST PUSH1 0x40 MLOAD DUP1 SWAP2 SUB SWAP1 RETURN JUMPDEST PUSH2 0x11B PUSH2 0x84E JUMP JUMPDEST PUSH0 DUP1 SLOAD SWAP1 POP DUP3 LT PUSH2 0x161 JUMPI PUSH1 0x40 MLOAD PUSH32 0x8C379A000000000000000000000000000000000000000000000000000000000 DUP2 MSTORE PUSH1 0x4 ADD PUSH2 0x158 SWAP1 PUSH2 0xE0D JUMP JUMPDEST PUSH1 0x40 MLOAD DUP1 SWAP2 SUB SWAP1 REVERT JUMPDEST PUSH0 DUP3 DUP2 SLOAD DUP2 LT PUSH2 0x174 JUMPI PUSH2 0x173 PUSH2 0xE2B JUMP JUMPDEST JUMPDEST SWAP1 PUSH0 MSTORE PUSH1 0x20 PUSH0 KECCAK256 SWAP1 PUSH1 0x3 MUL ADD PUSH1 0x40 MLOAD DUP1 PUSH1 0x60 ADD PUSH1 0x40 MSTORE SWAP1 DUP2 PUSH0 DUP3 ADD DUP1 SLOAD PUSH2 0x19A SWAP1 PUSH2 0xE85 JUMP JUMPDEST DUP1 PUSH1 0x1F ADD PUSH1 0x20 DUP1 SWAP2 DIV MUL PUSH1 0x20 ADD PUSH1 0x40 MLOAD SWAP1 DUP2 ADD PUSH1 0x40 MSTORE DUP1 SWAP3 SWAP2 SWAP1 DUP2 DUP2 MSTORE PUSH1 0x20 ADD DUP3 DUP1 SLOAD PUSH2 0x1C6 SWAP1 PUSH2 0xE85 JUMP JUMPDEST DUP1 ISZERO PUSH2 0x211 JUMPI DUP1 PUSH1 0x1F LT PUSH2 0x1E8 JUMPI PUSH2 0x100 DUP1 DUP4 SLOAD DIV MUL DUP4 MSTORE SWAP2 PUSH1 0x20 ADD SWAP2 PUSH2 0x211 JUMP JUMPDEST DUP3 ADD SWAP2 SWAP1 PUSH0 MSTORE PUSH1 0x20 PUSH0 KECCAK256 SWAP1 JUMPDEST DUP2 SLOAD DUP2 MSTORE SWAP1 PUSH1 0x1 ADD SWAP1 PUSH1 0x20 ADD DUP1 DUP4 GT PUSH2 0x1F4 JUMPI DUP3 SWAP1 SUB PUSH1 0x1F AND DUP3 ADD SWAP2 JUMPDEST POP POP POP POP POP DUP2 MSTORE PUSH1 0x20 ADD PUSH1 0x1 DUP3 ADD DUP1 SLOAD PUSH2 0x22A SWAP1 PUSH2 0xE85 JUMP JUMPDEST DUP1 PUSH1 0x1F ADD PUSH1 0x20 DUP1 SWAP2 DIV MUL PUSH1 0x20 ADD PUSH1 0x40 MLOAD SWAP1 DUP2 ADD PUSH1 0x40 MSTORE DUP1 SWAP3 SWAP2 SWAP1 DUP2 DUP2 MSTORE PUSH1 0x20 ADD DUP3 DUP1 SLOAD PUSH2 0x256 SWAP1 PUSH2 0xE85 JUMP JUMPDEST DUP1 ISZERO PUSH2 0x2A1 JUMPI DUP1 PUSH1 0x1F LT PUSH2 0x278 JUMPI PUSH2 0x100 DUP1 DUP4 SLOAD DIV MUL DUP4 MSTORE SWAP2 PUSH1 0x20 ADD SWAP2 PUSH2 0x2A1 JUMP JUMPDEST DUP3 ADD SWAP2 SWAP1 PUSH0 MSTORE PUSH1 0x20 PUSH0 KECCAK256 SWAP1 JUMPDEST DUP2 SLOAD DUP2 MSTORE SWAP1 PUSH1 0x1 ADD SWAP1 PUSH1 0x20 ADD DUP1 DUP4 GT PUSH2 0x284 JUMPI DUP3 SWAP1 SUB PUSH1 0x1F AND DUP3 ADD SWAP2 JUMPDEST POP POP POP POP POP DUP2 MSTORE PUSH1 0x20 ADD PUSH1 0x2 DUP3 ADD PUSH0 SWAP1 SLOAD SWAP1 PUSH2 0x100 EXP SWAP1 DIV PUSH20 0xFFFFFFFFFFFFFFFFFFFFFFFFFFFFFFFFFFFFFFFF AND PUSH20 0xFFFFFFFFFFFFFFFFFFFFFFFFFFFFFFFFFFFFFFFF AND PUSH20 0xFFFFFFFFFFFFFFFFFFFFFFFFFFFFFFFFFFFFFFFF AND DUP2 MSTORE POP POP SWAP1 POP SWAP2 SWAP1 POP JUMP JUMPDEST PUSH0 DUP2 DUP2 SLOAD DUP2 LT PUSH2 0x314 JUMPI PUSH0 DUP1 REVERT JUMPDEST SWAP1 PUSH0 MSTORE PUSH1 0x20 PUSH0 KECCAK256 SWAP1 PUSH1 0x3 MUL ADD PUSH0 SWAP2 POP SWAP1 POP DUP1 PUSH0 ADD DUP1 SLOAD PUSH2 0x333 SWAP1 PUSH2 0xE85 JUMP JUMPDEST DUP1 PUSH1 0x1F ADD PUSH1 0x20 DUP1 SWAP2 DIV MUL PUSH1 0x20 ADD PUSH1 0x40 MLOAD SWAP1 DUP2 ADD PUSH1 0x40 MSTORE DUP1 SWAP3 SWAP2 SWAP1 DUP2 DUP2 MSTORE PUSH1 0x20 ADD DUP3 DUP1 SLOAD PUSH2 0x35F SWAP1 PUSH2 0xE85 JUMP JUMPDEST DUP1 ISZERO PUSH2 0x3AA JUMPI DUP1 PUSH1 0x1F LT PUSH2 0x381 JUMPI PUSH2 0x100 DUP1 DUP4 SLOAD DIV MUL DUP4 MSTORE SWAP2 PUSH1 0x20 ADD SWAP2 PUSH2 0x3AA JUMP JUMPDEST DUP3 ADD SWAP2 SWAP1 PUSH0 MSTORE PUSH1 0x20 PUSH0 KECCAK256 SWAP1 JUMPDEST DUP2 SLOAD DUP2 MSTORE SWAP1 PUSH1 0x1 ADD SWAP1 PUSH1 0x20 ADD DUP1 DUP4 GT PUSH2 0x38D JUMPI DUP3 SWAP1 SUB PUSH1 0x1F AND DUP3 ADD SWAP2 JUMPDEST POP POP POP POP POP SWAP1 DUP1 PUSH1 0x1 ADD DUP1 SLOAD PUSH2 0x3BF SWAP1 PUSH2 0xE85 JUMP JUMPDEST DUP1 PUSH1 0x1F ADD PUSH1 0x20 DUP1 SWAP2 DIV MUL PUSH1 0x20 ADD PUSH1 0x40 MLOAD SWAP1 DUP2 ADD PUSH1 0x40 MSTORE DUP1 SWAP3 SWAP2 SWAP1 DUP2 DUP2 MSTORE PUSH1 0x20 ADD DUP3 DUP1 SLOAD PUSH2 0x3EB SWAP1 PUSH2 0xE85 JUMP JUMPDEST DUP1 ISZERO PUSH2 0x436 JUMPI DUP1 PUSH1 0x1F LT PUSH2 0x40D JUMPI PUSH2 0x100 DUP1 DUP4 SLOAD DIV MUL DUP4 MSTORE SWAP2 PUSH1 0x20 ADD SWAP2 PUSH2 0x436 JUMP JUMPDEST DUP3 ADD SWAP2 SWAP1 PUSH0 MSTORE PUSH1 0x20 PUSH0 KECCAK256 SWAP1 JUMPDEST DUP2 SLOAD DUP2 MSTORE SWAP1 PUSH1 0x1 ADD SWAP1 PUSH1 0x20 ADD DUP1 DUP4 GT PUSH2 0x419 JUMPI DUP3 SWAP1 SUB PUSH1 0x1F AND DUP3 ADD SWAP2 JUMPDEST POP POP POP POP POP SWAP1 DUP1 PUSH1 0x2 ADD PUSH0 SWAP1 SLOAD SWAP1 PUSH2 0x100 EXP SWAP1 DIV PUSH20 0xFFFFFFFFFFFFFFFFFFFFFFFFFFFFFFFFFFFFFFFF AND SWAP1 POP DUP4 JUMP JUMPDEST PUSH1 0x60 PUSH0 DUP1 SLOAD DUP1 PUSH1 0x20 MUL PUSH1 0x20 ADD PUSH1 0x40 MLOAD SWAP1 DUP2 ADD PUSH1 0x40 MSTORE DUP1 SWAP3 SWAP2 SWAP1 DUP2 DUP2 MSTORE PUSH1 0x20 ADD PUSH0 SWAP1 JUMPDEST DUP3 DUP3 LT ISZERO PUSH2 0x62B JUMPI DUP4 DUP3 SWAP1 PUSH0 MSTORE PUSH1 0x20 PUSH0 KECCAK256 SWAP1 PUSH1 0x3 MUL ADD PUSH1 0x40 MLOAD DUP1 PUSH1 0x60 ADD PUSH1 0x40 MSTORE SWAP1 DUP2 PUSH0 DUP3 ADD DUP1 SLOAD PUSH2 0x4B7 SWAP1 PUSH2 0xE85 JUMP JUMPDEST DUP1 PUSH1 0x1F ADD PUSH1 0x20 DUP1 SWAP2 DIV MUL PUSH1 0x20 ADD PUSH1 0x40 MLOAD SWAP1 DUP2 ADD PUSH1 0x40 MSTORE DUP1 SWAP3 SWAP2 SWAP1 DUP2 DUP2 MSTORE PUSH1 0x20 ADD DUP3 DUP1 SLOAD PUSH2 0x4E3 SWAP1 PUSH2 0xE85 JUMP JUMPDEST DUP1 ISZERO PUSH2 0x52E JUMPI DUP1 PUSH1 0x1F LT PUSH2 0x505 JUMPI PUSH2 0x100 DUP1 DUP4 SLOAD DIV MUL DUP4 MSTORE SWAP2 PUSH1 0x20 ADD SWAP2 PUSH2 0x52E JUMP JUMPDEST DUP3 ADD SWAP2 SWAP1 PUSH0 MSTORE PUSH1 0x20 PUSH0 KECCAK256 SWAP1 JUMPDEST DUP2 SLOAD DUP2 MSTORE SWAP1 PUSH1 0x1 ADD SWAP1 PUSH1 0x20 ADD DUP1 DUP4 GT PUSH2 0x511 JUMPI DUP3 SWAP1 SUB PUSH1 0x1F AND DUP3 ADD SWAP2 JUMPDEST POP POP POP POP POP DUP2 MSTORE PUSH1 0x20 ADD PUSH1 0x1 DUP3 ADD DUP1 SLOAD PUSH2 0x547 SWAP1 PUSH2 0xE85 JUMP JUMPDEST DUP1 PUSH1 0x1F ADD PUSH1 0x20 DUP1 SWAP2 DIV MUL PUSH1 0x20 ADD PUSH1 0x40 MLOAD SWAP1 DUP2 ADD PUSH1 0x40 MSTORE DUP1 SWAP3 SWAP2 SWAP1 DUP2 DUP2 MSTORE PUSH1 0x20 ADD DUP3 DUP1 SLOAD PUSH2 0x573 SWAP1 PUSH2 0xE85 JUMP JUMPDEST DUP1 ISZERO PUSH2 0x5BE JUMPI DUP1 PUSH1 0x1F LT PUSH2 0x595 JUMPI PUSH2 0x100 DUP1 DUP4 SLOAD DIV MUL DUP4 MSTORE SWAP2 PUSH1 0x20 ADD SWAP2 PUSH2 0x5BE JUMP JUMPDEST DUP3 ADD SWAP2 SWAP1 PUSH0 MSTORE PUSH1 0x20 PUSH0 KECCAK256 SWAP1 JUMPDEST DUP2 SLOAD DUP2 MSTORE SWAP1 PUSH1 0x1 ADD SWAP1 PUSH1 0x20 ADD DUP1 DUP4 GT PUSH2 0x5A1 JUMPI DUP3 SWAP1 SUB PUSH1 0x1F AND DUP3 ADD SWAP2 JUMPDEST POP POP POP POP POP DUP2 MSTORE PUSH1 0x20 ADD PUSH1 0x2 DUP3 ADD PUSH0 SWAP1 SLOAD SWAP1 PUSH2 0x100 EXP SWAP1 DIV PUSH20 0xFFFFFFFFFFFFFFFFFFFFFFFFFFFFFFFFFFFFFFFF AND PUSH20 0xFFFFFFFFFFFFFFFFFFFFFFFFFFFFFFFFFFFFFFFF AND PUSH20 0xFFFFFFFFFFFFFFFFFFFFFFFFFFFFFFFFFFFFFFFF AND DUP2 MSTORE POP POP DUP2 MSTORE PUSH1 0x20 ADD SWAP1 PUSH1 0x1 ADD SWAP1 PUSH2 0x487 JUMP JUMPDEST POP POP POP POP SWAP1 POP SWAP1 JUMP JUMPDEST PUSH1 0x1 DUP3 PUSH1 0x40 MLOAD PUSH2 0x644 SWAP2 SWAP1 PUSH2 0xEEF JUMP JUMPDEST SWAP1 DUP2 MSTORE PUSH1 0x20 ADD PUSH1 0x40 MLOAD DUP1 SWAP2 SUB SWAP1 KECCAK256 PUSH0 SWAP1 SLOAD SWAP1 PUSH2 0x100 EXP SWAP1 DIV PUSH1 0xFF AND ISZERO PUSH2 0x69F JUMPI PUSH1 0x40 MLOAD PUSH32 0x8C379A000000000000000000000000000000000000000000000000000000000 DUP2 MSTORE PUSH1 0x4 ADD PUSH2 0x696 SWAP1 PUSH2 0xF4F JUMP JUMPDEST PUSH1 0x40 MLOAD DUP1 SWAP2 SUB SWAP1 REVERT JUMPDEST PUSH1 0x2 DUP2 PUSH1 0x40 MLOAD PUSH2 0x6AF SWAP2 SWAP1 PUSH2 0xEEF JUMP JUMPDEST SWAP1 DUP2 MSTORE PUSH1 0x20 ADD PUSH1 0x40 MLOAD DUP1 SWAP2 SUB SWAP1 KECCAK256 PUSH0 SWAP1 SLOAD SWAP1 PUSH2 0x100 EXP SWAP1 DIV PUSH1 0xFF AND ISZERO PUSH2 0x70A JUMPI PUSH1 0x40 MLOAD PUSH32 0x8C379A000000000000000000000000000000000000000000000000000000000 DUP2 MSTORE PUSH1 0x4 ADD PUSH2 0x701 SWAP1 PUSH2 0xFB7 JUMP JUMPDEST PUSH1 0x40 MLOAD DUP1 SWAP2 SUB SWAP1 REVERT JUMPDEST PUSH0 PUSH1 0x40 MLOAD DUP1 PUSH1 0x60 ADD PUSH1 0x40 MSTORE DUP1 DUP5 DUP2 MSTORE PUSH1 0x20 ADD DUP4 DUP2 MSTORE PUSH1 0x20 ADD CALLER PUSH20 0xFFFFFFFFFFFFFFFFFFFFFFFFFFFFFFFFFFFFFFFF AND DUP2 MSTORE POP SWAP1 DUP1 PUSH1 0x1 DUP2 SLOAD ADD DUP1 DUP3 SSTORE DUP1 SWAP2 POP POP PUSH1 0x1 SWAP1 SUB SWAP1 PUSH0 MSTORE PUSH1 0x20 PUSH0 KECCAK256 SWAP1 PUSH1 0x3 MUL ADD PUSH0 SWAP1 SWAP2 SWAP1 SWAP2 SWAP1 SWAP2 POP PUSH0 DUP3 ADD MLOAD DUP2 PUSH0 ADD SWAP1 DUP2 PUSH2 0x775 SWAP2 SWAP1 PUSH2 0x1172 JUMP JUMPDEST POP PUSH1 0x20 DUP3 ADD MLOAD DUP2 PUSH1 0x1 ADD SWAP1 DUP2 PUSH2 0x78B SWAP2 SWAP1 PUSH2 0x1172 JUMP JUMPDEST POP PUSH1 0x40 DUP3 ADD MLOAD DUP2 PUSH1 0x2 ADD PUSH0 PUSH2 0x100 EXP DUP2 SLOAD DUP2 PUSH20 0xFFFFFFFFFFFFFFFFFFFFFFFFFFFFFFFFFFFFFFFF MUL NOT AND SWAP1 DUP4 PUSH20 0xFFFFFFFFFFFFFFFFFFFFFFFFFFFFFFFFFFFFFFFF AND MUL OR SWAP1 SSTORE POP POP POP PUSH1 0x1 DUP1 DUP4 PUSH1 0x40 MLOAD PUSH2 0x7E5 SWAP2 SWAP1 PUSH2 0xEEF JUMP JUMPDEST SWAP1 DUP2 MSTORE PUSH1 0x20 ADD PUSH1 0x40 MLOAD DUP1 SWAP2 SUB SWAP1 KECCAK256 PUSH0 PUSH2 0x100 EXP DUP2 SLOAD DUP2 PUSH1 0xFF MUL NOT AND SWAP1 DUP4 ISZERO ISZERO MUL OR SWAP1 SSTORE POP PUSH1 0x1 PUSH1 0x2 DUP3 PUSH1 0x40 MLOAD PUSH2 0x81B SWAP2 SWAP1 PUSH2 0xEEF JUMP JUMPDEST SWAP1 DUP2 MSTORE PUSH1 0x20 ADD PUSH1 0x40 MLOAD DUP1 SWAP2 SUB SWAP1 KECCAK256 PUSH0 PUSH2 0x100 EXP DUP2 SLOAD DUP2 PUSH1 0xFF MUL NOT AND SWAP1 DUP4 ISZERO ISZERO MUL OR SWAP1 SSTORE POP POP POP JUMP JUMPDEST PUSH0 DUP1 DUP1 SLOAD SWAP1 POP SWAP1 POP SWAP1 JUMP JUMPDEST PUSH1 0x40 MLOAD DUP1 PUSH1 0x60 ADD PUSH1 0x40 MSTORE DUP1 PUSH1 0x60 DUP2 MSTORE PUSH1 0x20 ADD PUSH1 0x60 DUP2 MSTORE PUSH1 0x20 ADD PUSH0 PUSH20 0xFFFFFFFFFFFFFFFFFFFFFFFFFFFFFFFFFFFFFFFF AND DUP2 MSTORE POP SWAP1 JUMP JUMPDEST PUSH0 PUSH1 0x40 MLOAD SWAP1 POP SWAP1 JUMP JUMPDEST PUSH0 DUP1 REVERT JUMPDEST PUSH0 DUP1 REVERT JUMPDEST PUSH0 DUP2 SWAP1 POP SWAP2 SWAP1 POP JUMP JUMPDEST PUSH2 0x8A7 DUP2 PUSH2 0x895 JUMP JUMPDEST DUP2 EQ PUSH2 0x8B1 JUMPI PUSH0 DUP1 REVERT JUMPDEST POP JUMP JUMPDEST PUSH0 DUP2 CALLDATALOAD SWAP1 POP PUSH2 0x8C2 DUP2 PUSH2 0x89E JUMP JUMPDEST SWAP3 SWAP2 POP POP JUMP JUMPDEST PUSH0 PUSH1 0x20 DUP3 DUP5 SUB SLT ISZERO PUSH2 0x8DD JUMPI PUSH2 0x8DC PUSH2 0x88D JUMP JUMPDEST JUMPDEST PUSH0 PUSH2 0x8EA DUP5 DUP3 DUP6 ADD PUSH2 0x8B4 JUMP JUMPDEST SWAP2 POP POP SWAP3 SWAP2 POP POP JUMP JUMPDEST PUSH0 DUP2 MLOAD SWAP1 POP SWAP2 SWAP1 POP JUMP JUMPDEST PUSH0 DUP3 DUP3 MSTORE PUSH1 0x20 DUP3 ADD SWAP1 POP SWAP3 SWAP2 POP POP JUMP JUMPDEST PUSH0 JUMPDEST DUP4 DUP2 LT ISZERO PUSH2 0x92A JUMPI DUP1 DUP3 ADD MLOAD DUP2 DUP5 ADD MSTORE PUSH1 0x20 DUP2 ADD SWAP1 POP PUSH2 0x90F JUMP JUMPDEST PUSH0 DUP5 DUP5 ADD MSTORE POP POP POP POP JUMP JUMPDEST PUSH0 PUSH1 0x1F NOT PUSH1 0x1F DUP4 ADD AND SWAP1 POP SWAP2 SWAP1 POP JUMP JUMPDEST PUSH0 PUSH2 0x94F DUP3 PUSH2 0x8F3 JUMP JUMPDEST PUSH2 0x959 DUP2 DUP6 PUSH2 0x8FD JUMP JUMPDEST SWAP4 POP PUSH2 0x969 DUP2 DUP6 PUSH1 0x20 DUP7 ADD PUSH2 0x90D JUMP JUMPDEST PUSH2 0x972 DUP2 PUSH2 0x935 JUMP JUMPDEST DUP5 ADD SWAP2 POP POP SWAP3 SWAP2 POP POP JUMP JUMPDEST PUSH0 PUSH20 0xFFFFFFFFFFFFFFFFFFFFFFFFFFFFFFFFFFFFFFFF DUP3 AND SWAP1 POP SWAP2 SWAP1 POP JUMP JUMPDEST PUSH0 PUSH2 0x9A6 DUP3 PUSH2 0x97D JUMP JUMPDEST SWAP1 POP SWAP2 SWAP1 POP JUMP JUMPDEST PUSH2 0x9B6 DUP2 PUSH2 0x99C JUMP JUMPDEST DUP3 MSTORE POP POP JUMP JUMPDEST PUSH0 PUSH1 0x60 DUP4 ADD PUSH0 DUP4 ADD MLOAD DUP5 DUP3 SUB PUSH0 DUP7 ADD MSTORE PUSH2 0x9D6 DUP3 DUP3 PUSH2 0x945 JUMP JUMPDEST SWAP2 POP POP PUSH1 0x20 DUP4 ADD MLOAD DUP5 DUP3 SUB PUSH1 0x20 DUP7 ADD MSTORE PUSH2 0x9F0 DUP3 DUP3 PUSH2 0x945 JUMP JUMPDEST SWAP2 POP POP PUSH1 0x40 DUP4 ADD MLOAD PUSH2 0xA05 PUSH1 0x40 DUP7 ADD DUP3 PUSH2 0x9AD JUMP JUMPDEST POP DUP1 SWAP2 POP POP SWAP3 SWAP2 POP POP JUMP JUMPDEST PUSH0 PUSH1 0x20 DUP3 ADD SWAP1 POP DUP2 DUP2 SUB PUSH0 DUP4 ADD MSTORE PUSH2 0xA28 DUP2 DUP5 PUSH2 0x9BC JUMP JUMPDEST SWAP1 POP SWAP3 SWAP2 POP POP JUMP JUMPDEST PUSH0 DUP3 DUP3 MSTORE PUSH1 0x20 DUP3 ADD SWAP1 POP SWAP3 SWAP2 POP POP JUMP JUMPDEST PUSH0 PUSH2 0xA4A DUP3 PUSH2 0x8F3 JUMP JUMPDEST PUSH2 0xA54 DUP2 DUP6 PUSH2 0xA30 JUMP JUMPDEST SWAP4 POP PUSH2 0xA64 DUP2 DUP6 PUSH1 0x20 DUP7 ADD PUSH2 0x90D JUMP JUMPDEST PUSH2 0xA6D DUP2 PUSH2 0x935 JUMP JUMPDEST DUP5 ADD SWAP2 POP POP SWAP3 SWAP2 POP POP JUMP JUMPDEST PUSH2 0xA81 DUP2 PUSH2 0x99C JUMP JUMPDEST DUP3 MSTORE POP POP JUMP JUMPDEST PUSH0 PUSH1 0x60 DUP3 ADD SWAP1 POP DUP2 DUP2 SUB PUSH0 DUP4 ADD MSTORE PUSH2 0xA9F DUP2 DUP7 PUSH2 0xA40 JUMP JUMPDEST SWAP1 POP DUP2 DUP2 SUB PUSH1 0x20 DUP4 ADD MSTORE PUSH2 0xAB3 DUP2 DUP6 PUSH2 0xA40 JUMP JUMPDEST SWAP1 POP PUSH2 0xAC2 PUSH1 0x40 DUP4 ADD DUP5 PUSH2 0xA78 JUMP JUMPDEST SWAP5 SWAP4 POP POP POP POP JUMP JUMPDEST PUSH0 DUP2 MLOAD SWAP1 POP SWAP2 SWAP1 POP JUMP JUMPDEST PUSH0 DUP3 DUP3 MSTORE PUSH1 0x20 DUP3 ADD SWAP1 POP SWAP3 SWAP2 POP POP JUMP JUMPDEST PUSH0 DUP2 SWAP1 POP PUSH1 0x20 DUP3 ADD SWAP1 POP SWAP2 SWAP1 POP JUMP JUMPDEST PUSH0 PUSH1 0x60 DUP4 ADD PUSH0 DUP4 ADD MLOAD DUP5 DUP3 SUB PUSH0 DUP7 ADD MSTORE PUSH2 0xB0D DUP3 DUP3 PUSH2 0x945 JUMP JUMPDEST SWAP2 POP POP PUSH1 0x20 DUP4 ADD MLOAD DUP5 DUP3 SUB PUSH1 0x20 DUP7 ADD MSTORE PUSH2 0xB27 DUP3 DUP3 PUSH2 0x945 JUMP JUMPDEST SWAP2 POP POP PUSH1 0x40 DUP4 ADD MLOAD PUSH2 0xB3C PUSH1 0x40 DUP7 ADD DUP3 PUSH2 0x9AD JUMP JUMPDEST POP DUP1 SWAP2 POP POP SWAP3 SWAP2 POP POP JUMP JUMPDEST PUSH0 PUSH2 0xB52 DUP4 DUP4 PUSH2 0xAF3 JUMP JUMPDEST SWAP1 POP SWAP3 SWAP2 POP POP JUMP JUMPDEST PUSH0 PUSH1 0x20 DUP3 ADD SWAP1 POP SWAP2 SWAP1 POP JUMP JUMPDEST PUSH0 PUSH2 0xB70 DUP3 PUSH2 0xACA JUMP JUMPDEST PUSH2 0xB7A DUP2 DUP6 PUSH2 0xAD4 JUMP JUMPDEST SWAP4 POP DUP4 PUSH1 0x20 DUP3 MUL DUP6 ADD PUSH2 0xB8C DUP6 PUSH2 0xAE4 JUMP JUMPDEST DUP1 PUSH0 JUMPDEST DUP6 DUP2 LT ISZERO PUSH2 0xBC7 JUMPI DUP5 DUP5 SUB DUP10 MSTORE DUP2 MLOAD PUSH2 0xBA8 DUP6 DUP3 PUSH2 0xB47 JUMP JUMPDEST SWAP5 POP PUSH2 0xBB3 DUP4 PUSH2 0xB5A JUMP JUMPDEST SWAP3 POP PUSH1 0x20 DUP11 ADD SWAP10 POP POP PUSH1 0x1 DUP2 ADD SWAP1 POP PUSH2 0xB8F JUMP JUMPDEST POP DUP3 SWAP8 POP DUP8 SWAP6 POP POP POP POP POP POP SWAP3 SWAP2 POP POP JUMP JUMPDEST PUSH0 PUSH1 0x20 DUP3 ADD SWAP1 POP DUP2 DUP2 SUB PUSH0 DUP4 ADD MSTORE PUSH2 0xBF1 DUP2 DUP5 PUSH2 0xB66 JUMP JUMPDEST SWAP1 POP SWAP3 SWAP2 POP POP JUMP JUMPDEST PUSH0 DUP1 REVERT JUMPDEST PUSH0 DUP1 REVERT JUMPDEST PUSH32 0x4E487B7100000000000000000000000000000000000000000000000000000000 PUSH0 MSTORE PUSH1 0x41 PUSH1 0x4 MSTORE PUSH1 0x24 PUSH0 REVERT JUMPDEST PUSH2 0xC37 DUP3 PUSH2 0x935 JUMP JUMPDEST DUP2 ADD DUP2 DUP2 LT PUSH8 0xFFFFFFFFFFFFFFFF DUP3 GT OR ISZERO PUSH2 0xC56 JUMPI PUSH2 0xC55 PUSH2 0xC01 JUMP JUMPDEST JUMPDEST DUP1 PUSH1 0x40 MSTORE POP POP POP JUMP JUMPDEST PUSH0 PUSH2 0xC68 PUSH2 0x884 JUMP JUMPDEST SWAP1 POP PUSH2 0xC74 DUP3 DUP3 PUSH2 0xC2E JUMP JUMPDEST SWAP2 SWAP1 POP JUMP JUMPDEST PUSH0 PUSH8 0xFFFFFFFFFFFFFFFF DUP3 GT ISZERO PUSH2 0xC93 JUMPI PUSH2 0xC92 PUSH2 0xC01 JUMP JUMPDEST JUMPDEST PUSH2 0xC9C DUP3 PUSH2 0x935 JUMP JUMPDEST SWAP1 POP PUSH1 0x20 DUP2 ADD SWAP1 POP SWAP2 SWAP1 POP JUMP JUMPDEST DUP3 DUP2 DUP4 CALLDATACOPY PUSH0 DUP4 DUP4 ADD MSTORE POP POP POP JUMP JUMPDEST PUSH0 PUSH2 0xCC9 PUSH2 0xCC4 DUP5 PUSH2 0xC79 JUMP JUMPDEST PUSH2 0xC5F JUMP JUMPDEST SWAP1 POP DUP3 DUP2 MSTORE PUSH1 0x20 DUP2 ADD DUP5 DUP5 DUP5 ADD GT ISZERO PUSH2 0xCE5 JUMPI PUSH2 0xCE4 PUSH2 0xBFD JUMP JUMPDEST JUMPDEST PUSH2 0xCF0 DUP5 DUP3 DUP6 PUSH2 0xCA9 JUMP JUMPDEST POP SWAP4 SWAP3 POP POP POP JUMP JUMPDEST PUSH0 DUP3 PUSH1 0x1F DUP4 ADD SLT PUSH2 0xD0C JUMPI PUSH2 0xD0B PUSH2 0xBF9 JUMP JUMPDEST JUMPDEST DUP2 CALLDATALOAD PUSH2 0xD1C DUP5 DUP3 PUSH1 0x20 DUP7 ADD PUSH2 0xCB7 JUMP JUMPDEST SWAP2 POP POP SWAP3 SWAP2 POP POP JUMP JUMPDEST PUSH0 DUP1 PUSH1 0x40 DUP4 DUP6 SUB SLT ISZERO PUSH2 0xD3B JUMPI PUSH2 0xD3A PUSH2 0x88D JUMP JUMPDEST JUMPDEST PUSH0 DUP4 ADD CALLDATALOAD PUSH8 0xFFFFFFFFFFFFFFFF DUP2 GT ISZERO PUSH2 0xD58 JUMPI PUSH2 0xD57 PUSH2 0x891 JUMP JUMPDEST JUMPDEST PUSH2 0xD64 DUP6 DUP3 DUP7 ADD PUSH2 0xCF8 JUMP JUMPDEST SWAP3 POP POP PUSH1 0x20 DUP4 ADD CALLDATALOAD PUSH8 0xFFFFFFFFFFFFFFFF DUP2 GT ISZERO PUSH2 0xD85 JUMPI PUSH2 0xD84 PUSH2 0x891 JUMP JUMPDEST JUMPDEST PUSH2 0xD91 DUP6 DUP3 DUP7 ADD PUSH2 0xCF8 JUMP JUMPDEST SWAP2 POP POP SWAP3 POP SWAP3 SWAP1 POP JUMP JUMPDEST PUSH2 0xDA4 DUP2 PUSH2 0x895 JUMP JUMPDEST DUP3 MSTORE POP POP JUMP JUMPDEST PUSH0 PUSH1 0x20 DUP3 ADD SWAP1 POP PUSH2 0xDBD PUSH0 DUP4 ADD DUP5 PUSH2 0xD9B JUMP JUMPDEST SWAP3 SWAP2 POP POP JUMP JUMPDEST PUSH32 0x496E646578206F7574206F6620626F756E647300000000000000000000000000 PUSH0 DUP3 ADD MSTORE POP JUMP JUMPDEST PUSH0 PUSH2 0xDF7 PUSH1 0x13 DUP4 PUSH2 0xA30 JUMP JUMPDEST SWAP2 POP PUSH2 0xE02 DUP3 PUSH2 0xDC3 JUMP JUMPDEST PUSH1 0x20 DUP3 ADD SWAP1 POP SWAP2 SWAP1 POP JUMP JUMPDEST PUSH0 PUSH1 0x20 DUP3 ADD SWAP1 POP DUP2 DUP2 SUB PUSH0 DUP4 ADD MSTORE PUSH2 0xE24 DUP2 PUSH2 0xDEB JUMP JUMPDEST SWAP1 POP SWAP2 SWAP1 POP JUMP JUMPDEST PUSH32 0x4E487B7100000000000000000000000000000000000000000000000000000000 PUSH0 MSTORE PUSH1 0x32 PUSH1 0x4 MSTORE PUSH1 0x24 PUSH0 REVERT JUMPDEST PUSH32 0x4E487B7100000000000000000000000000000000000000000000000000000000 PUSH0 MSTORE PUSH1 0x22 PUSH1 0x4 MSTORE PUSH1 0x24 PUSH0 REVERT JUMPDEST PUSH0 PUSH1 0x2 DUP3 DIV SWAP1 POP PUSH1 0x1 DUP3 AND DUP1 PUSH2 0xE9C JUMPI PUSH1 0x7F DUP3 AND SWAP2 POP JUMPDEST PUSH1 0x20 DUP3 LT DUP2 SUB PUSH2 0xEAF JUMPI PUSH2 0xEAE PUSH2 0xE58 JUMP JUMPDEST JUMPDEST POP SWAP2 SWAP1 POP JUMP JUMPDEST PUSH0 DUP2 SWAP1 POP SWAP3 SWAP2 POP POP JUMP JUMPDEST PUSH0 PUSH2 0xEC9 DUP3 PUSH2 0x8F3 JUMP JUMPDEST PUSH2 0xED3 DUP2 DUP6 PUSH2 0xEB5 JUMP JUMPDEST SWAP4 POP PUSH2 0xEE3 DUP2 DUP6 PUSH1 0x20 DUP7 ADD PUSH2 0x90D JUMP JUMPDEST DUP1 DUP5 ADD SWAP2 POP POP SWAP3 SWAP2 POP POP JUMP JUMPDEST PUSH0 PUSH2 0xEFA DUP3 DUP5 PUSH2 0xEBF JUMP JUMPDEST SWAP2 POP DUP2 SWAP1 POP SWAP3 SWAP2 POP POP JUMP JUMPDEST PUSH32 0x50726F737065637475732043494420616C726561647920657869737473000000 PUSH0 DUP3 ADD MSTORE POP JUMP JUMPDEST PUSH0 PUSH2 0xF39 PUSH1 0x1D DUP4 PUSH2 0xA30 JUMP JUMPDEST SWAP2 POP PUSH2 0xF44 DUP3 PUSH2 0xF05 JUMP JUMPDEST PUSH1 0x20 DUP3 ADD SWAP1 POP SWAP2 SWAP1 POP JUMP JUMPDEST PUSH0 PUSH1 0x20 DUP3 ADD SWAP1 POP DUP2 DUP2 SUB PUSH0 DUP4 ADD MSTORE PUSH2 0xF66 DUP2 PUSH2 0xF2D JUMP JUMPDEST SWAP1 POP SWAP2 SWAP1 POP JUMP JUMPDEST PUSH32 0x496D6167652043494420616C7265616479206578697374730000000000000000 PUSH0 DUP3 ADD MSTORE POP JUMP JUMPDEST PUSH0 PUSH2 0xFA1 PUSH1 0x18 DUP4 PUSH2 0xA30 JUMP JUMPDEST SWAP2 POP PUSH2 0xFAC DUP3 PUSH2 0xF6D JUMP JUMPDEST PUSH1 0x20 DUP3 ADD SWAP1 POP SWAP2 SWAP1 POP JUMP JUMPDEST PUSH0 PUSH1 0x20 DUP3 ADD SWAP1 POP DUP2 DUP2 SUB PUSH0 DUP4 ADD MSTORE PUSH2 0xFCE DUP2 PUSH2 0xF95 JUMP JUMPDEST SWAP1 POP SWAP2 SWAP1 POP JUMP JUMPDEST PUSH0 DUP2 SWAP1 POP DUP2 PUSH0 MSTORE PUSH1 0x20 PUSH0 KECCAK256 SWAP1 POP SWAP2 SWAP1 POP JUMP JUMPDEST PUSH0 PUSH1 0x20 PUSH1 0x1F DUP4 ADD DIV SWAP1 POP SWAP2 SWAP1 POP JUMP JUMPDEST PUSH0 DUP3 DUP3 SHL SWAP1 POP SWAP3 SWAP2 POP POP JUMP JUMPDEST PUSH0 PUSH1 0x8 DUP4 MUL PUSH2 0x1031 PUSH32 0xFFFFFFFFFFFFFFFFFFFFFFFFFFFFFFFFFFFFFFFFFFFFFFFFFFFFFFFFFFFFFFFF DUP3 PUSH2 0xFF6 JUMP JUMPDEST PUSH2 0x103B DUP7 DUP4 PUSH2 0xFF6 JUMP JUMPDEST SWAP6 POP DUP1 NOT DUP5 AND SWAP4 POP DUP1 DUP7 AND DUP5 OR SWAP3 POP POP POP SWAP4 SWAP3 POP POP POP JUMP JUMPDEST PUSH0 DUP2 SWAP1 POP SWAP2 SWAP1 POP JUMP JUMPDEST PUSH0 PUSH2 0x1076 PUSH2 0x1071 PUSH2 0x106C DUP5 PUSH2 0x895 JUMP JUMPDEST PUSH2 0x1053 JUMP JUMPDEST PUSH2 0x895 JUMP JUMPDEST SWAP1 POP SWAP2 SWAP1 POP JUMP JUMPDEST PUSH0 DUP2 SWAP1 POP SWAP2 SWAP1 POP JUMP JUMPDEST PUSH2 0x108F DUP4 PUSH2 0x105C JUMP JUMPDEST PUSH2 0x10A3 PUSH2 0x109B DUP3 PUSH2 0x107D JUMP JUMPDEST DUP5 DUP5 SLOAD PUSH2 0x1002 JUMP JUMPDEST DUP3 SSTORE POP POP POP POP JUMP JUMPDEST PUSH0 SWAP1 JUMP JUMPDEST PUSH2 0x10B7 PUSH2 0x10AB JUMP JUMPDEST PUSH2 0x10C2 DUP2 DUP5 DUP5 PUSH2 0x1086 JUMP JUMPDEST POP POP POP JUMP JUMPDEST JUMPDEST DUP2 DUP2 LT ISZERO PUSH2 0x10E5 JUMPI PUSH2 0x10DA PUSH0 DUP3 PUSH2 0x10AF JUMP JUMPDEST PUSH1 0x1 DUP2 ADD SWAP1 POP PUSH2 0x10C8 JUMP JUMPDEST POP POP JUMP JUMPDEST PUSH1 0x1F DUP3 GT ISZERO PUSH2 0x112A JUMPI PUSH2 0x10FB DUP2 PUSH2 0xFD5 JUMP JUMPDEST PUSH2 0x1104 DUP5 PUSH2 0xFE7 JUMP JUMPDEST DUP2 ADD PUSH1 0x20 DUP6 LT ISZERO PUSH2 0x1113 JUMPI DUP2 SWAP1 POP JUMPDEST PUSH2 0x1127 PUSH2 0x111F DUP6 PUSH2 0xFE7 JUMP JUMPDEST DUP4 ADD DUP3 PUSH2 0x10C7 JUMP JUMPDEST POP POP JUMPDEST POP POP POP JUMP JUMPDEST PUSH0 DUP3 DUP3 SHR SWAP1 POP SWAP3 SWAP2 POP POP JUMP JUMPDEST PUSH0 PUSH2 0x114A PUSH0 NOT DUP5 PUSH1 0x8 MUL PUSH2 0x112F JUMP JUMPDEST NOT DUP1 DUP4 AND SWAP2 POP POP SWAP3 SWAP2 POP POP JUMP JUMPDEST PUSH0 PUSH2 0x1162 DUP4 DUP4 PUSH2 0x113B JUMP JUMPDEST SWAP2 POP DUP3 PUSH1 0x2 MUL DUP3 OR SWAP1 POP SWAP3 SWAP2 POP POP JUMP JUMPDEST PUSH2 0x117B DUP3 PUSH2 0x8F3 JUMP JUMPDEST PUSH8 0xFFFFFFFFFFFFFFFF DUP2 GT ISZERO PUSH2 0x1194 JUMPI PUSH2 0x1193 PUSH2 0xC01 JUMP JUMPDEST JUMPDEST PUSH2 0x119E DUP3 SLOAD PUSH2 0xE85 JUMP JUMPDEST PUSH2 0x11A9 DUP3 DUP3 DUP6 PUSH2 0x10E9 JUMP JUMPDEST PUSH0 PUSH1 0x20 SWAP1 POP PUSH1 0x1F DUP4 GT PUSH1 0x1 DUP2 EQ PUSH2 0x11DA JUMPI PUSH0 DUP5 ISZERO PUSH2 0x11C8 JUMPI DUP3 DUP8 ADD MLOAD SWAP1 POP JUMPDEST PUSH2 0x11D2 DUP6 DUP3 PUSH2 0x1157 JUMP JUMPDEST DUP7 SSTORE POP PUSH2 0x1239 JUMP JUMPDEST PUSH1 0x1F NOT DUP5 AND PUSH2 0x11E8 DUP7 PUSH2 0xFD5 JUMP JUMPDEST PUSH0 JUMPDEST DUP3 DUP2 LT ISZERO PUSH2 0x120F JUMPI DUP5 DUP10 ADD MLOAD DUP3 SSTORE PUSH1 0x1 DUP3 ADD SWAP2 POP PUSH1 0x20 DUP6 ADD SWAP5 POP PUSH1 0x20 DUP2 ADD SWAP1 POP PUSH2 0x11EA JUMP JUMPDEST DUP7 DUP4 LT ISZERO PUSH2 0x122C JUMPI DUP5 DUP10 ADD MLOAD PUSH2 0x1228 PUSH1 0x1F DUP10 AND DUP3 PUSH2 0x113B JUMP JUMPDEST DUP4 SSTORE POP JUMPDEST PUSH1 0x1 PUSH1 0x2 DUP9 MUL ADD DUP9 SSTORE POP POP POP JUMPDEST POP POP POP POP POP POP JUMP INVALID LOG2 PUSH5 0x6970667358 0x22 SLT KECCAK256 SSTORE 0x4A SGT SGT 0xCE JUMP CALLDATACOPY 0xE9 GASLIMIT SWAP9 DUP6 0x22 0xDD 0xAA 0xE2 PUSH3 0xCA2C63 0xD4 0xB9 EQ SWAP4 0xE8 MSIZE SELFBALANCE SSTORE SWAP9 PUSH26 0xDDF4C064736F6C63430008150033000000000000000000000000 "
				},
				"gasEstimates": {
					"creation": {
						"codeDepositCost": "945400",
						"executionCost": "979",
						"totalCost": "946379"
					},
					"external": {
						"addRecord(string,string)": "infinite",
						"getAllRecords()": "infinite",
						"getRecord(uint256)": "infinite",
						"getRecordCount()": "2506",
						"records(uint256)": "infinite"
					}
				},
				"methodIdentifiers": {
					"addRecord(string,string)": "c9596248",
					"getAllRecords()": "a7f9fe72",
					"getRecord(uint256)": "03e9e609",
					"getRecordCount()": "ca267f28",
					"records(uint256)": "34461067"
				}
			},
			"storageLayout": {
				"storage": [
					{
						"astId": 12,
						"contract": "contracts/AquoProspectusList2.sol:ProspectusRegistry",
						"label": "records",
						"offset": 0,
						"slot": "0",
						"type": "t_array(t_struct(ProspectusRecord)8_storage)dyn_storage"
					},
					{
						"astId": 16,
						"contract": "contracts/AquoProspectusList2.sol:ProspectusRegistry",
						"label": "prospectusCidExists",
						"offset": 0,
						"slot": "1",
						"type": "t_mapping(t_string_memory_ptr,t_bool)"
					},
					{
						"astId": 20,
						"contract": "contracts/AquoProspectusList2.sol:ProspectusRegistry",
						"label": "imageCidExists",
						"offset": 0,
						"slot": "2",
						"type": "t_mapping(t_string_memory_ptr,t_bool)"
					}
				],
				"types": {
					"t_address": {
						"encoding": "inplace",
						"label": "address",
						"numberOfBytes": "20"
					},
					"t_array(t_struct(ProspectusRecord)8_storage)dyn_storage": {
						"base": "t_struct(ProspectusRecord)8_storage",
						"encoding": "dynamic_array",
						"label": "struct ProspectusRegistry.ProspectusRecord[]",
						"numberOfBytes": "32"
					},
					"t_bool": {
						"encoding": "inplace",
						"label": "bool",
						"numberOfBytes": "1"
					},
					"t_mapping(t_string_memory_ptr,t_bool)": {
						"encoding": "mapping",
						"key": "t_string_memory_ptr",
						"label": "mapping(string => bool)",
						"numberOfBytes": "32",
						"value": "t_bool"
					},
					"t_string_memory_ptr": {
						"encoding": "bytes",
						"label": "string",
						"numberOfBytes": "32"
					},
					"t_string_storage": {
						"encoding": "bytes",
						"label": "string",
						"numberOfBytes": "32"
					},
					"t_struct(ProspectusRecord)8_storage": {
						"encoding": "inplace",
						"label": "struct ProspectusRegistry.ProspectusRecord",
						"members": [
							{
								"astId": 3,
								"contract": "contracts/AquoProspectusList2.sol:ProspectusRegistry",
								"label": "prospectusCid",
								"offset": 0,
								"slot": "0",
								"type": "t_string_storage"
							},
							{
								"astId": 5,
								"contract": "contracts/AquoProspectusList2.sol:ProspectusRegistry",
								"label": "imageCid",
								"offset": 0,
								"slot": "1",
								"type": "t_string_storage"
							},
							{
								"astId": 7,
								"contract": "contracts/AquoProspectusList2.sol:ProspectusRegistry",
								"label": "proposer",
								"offset": 0,
								"slot": "2",
								"type": "t_address"
							}
						],
						"numberOfBytes": "96"
					}
				}
			},
			"userdoc": {
				"kind": "user",
				"methods": {},
				"version": 1
			}
		}
	}
}