{
	"contracts/coinx.sol": {
		"CountByX": {
			"abi": [
				{
					"inputs": [
						{
							"internalType": "int256",
							"name": "x",
							"type": "int256"
						},
						{
							"internalType": "int256",
							"name": "n",
							"type": "int256"
						}
					],
					"name": "countBy",
					"outputs": [
						{
							"internalType": "int256[]",
							"name": "",
							"type": "int256[]"
						}
					],
					"stateMutability": "pure",
					"type": "function"
				}
			],
			"devdoc": {
				"kind": "dev",
				"methods": {},
				"version": 1
			},
			"evm": {
				"assembly": "    /* \"contracts/coinx.sol\":70:336  contract CountByX {... */\n  mstore(0x40, 0x80)\n  callvalue\n  dup1\n  iszero\n  tag_1\n  jumpi\n  0x00\n  dup1\n  revert\ntag_1:\n  pop\n  dataSize(sub_0)\n  dup1\n  dataOffset(sub_0)\n  0x00\n  codecopy\n  0x00\n  return\nstop\n\nsub_0: assembly {\n        /* \"contracts/coinx.sol\":70:336  contract CountByX {... */\n      mstore(0x40, 0x80)\n      callvalue\n      dup1\n      iszero\n      tag_1\n      jumpi\n      0x00\n      dup1\n      revert\n    tag_1:\n      pop\n      jumpi(tag_2, lt(calldatasize, 0x04))\n      shr(0xe0, calldataload(0x00))\n      dup1\n      0x13acb47c\n      eq\n      tag_3\n      jumpi\n    tag_2:\n      0x00\n      dup1\n      revert\n        /* \"contracts/coinx.sol\":95:333  function countBy(int x, int n) public pure returns (int[] memory) {... */\n    tag_3:\n      tag_4\n      0x04\n      dup1\n      calldatasize\n      sub\n      dup2\n      add\n      swap1\n      tag_5\n      swap2\n      swap1\n      tag_6\n      jump\t// in\n    tag_5:\n      tag_7\n      jump\t// in\n    tag_4:\n      mload(0x40)\n      tag_8\n      swap2\n      swap1\n      tag_9\n      jump\t// in\n    tag_8:\n      mload(0x40)\n      dup1\n      swap2\n      sub\n      swap1\n      return\n    tag_7:\n        /* \"contracts/coinx.sol\":147:159  int[] memory */\n      0x60\n        /* \"contracts/coinx.sol\":168:182  int[] memory z */\n      0x00\n        /* \"contracts/coinx.sol\":200:201  n */\n      dup3\n        /* \"contracts/coinx.sol\":185:203  new int[](uint(n)) */\n      0xffffffffffffffff\n      dup2\n      gt\n      iszero\n      tag_11\n      jumpi\n      tag_12\n      tag_13\n      jump\t// in\n    tag_12:\n    tag_11:\n      mload(0x40)\n      swap1\n      dup1\n      dup3\n      mstore\n      dup1\n      0x20\n      mul\n      0x20\n      add\n      dup3\n      add\n      0x40\n      mstore\n      dup1\n      iszero\n      tag_14\n      jumpi\n      dup2\n      0x20\n      add\n      0x20\n      dup3\n      mul\n      dup1\n      calldatasize\n      dup4\n      calldatacopy\n      dup1\n      dup3\n      add\n      swap2\n      pop\n      pop\n      swap1\n      pop\n    tag_14:\n      pop\n        /* \"contracts/coinx.sol\":168:203  int[] memory z = new int[](uint(n)) */\n      swap1\n      pop\n        /* \"contracts/coinx.sol\":254:260  uint i */\n      0x00\n        /* \"contracts/coinx.sol\":249:311  for (uint i=0;i<uint(n);i++) {... */\n    tag_15:\n        /* \"contracts/coinx.sol\":270:271  n */\n      dup4\n        /* \"contracts/coinx.sol\":263:264  i */\n      dup2\n        /* \"contracts/coinx.sol\":263:272  i<uint(n) */\n      lt\n        /* \"contracts/coinx.sol\":249:311  for (uint i=0;i<uint(n);i++) {... */\n      iszero\n      tag_16\n      jumpi\n        /* \"contracts/coinx.sol\":302:303  x */\n      dup5\n        /* \"contracts/coinx.sol\":298:299  i */\n      dup2\n        /* \"contracts/coinx.sol\":294:303  int(i)* x */\n      tag_18\n      swap2\n      swap1\n      tag_19\n      jump\t// in\n    tag_18:\n        /* \"contracts/coinx.sol\":289:290  z */\n      dup3\n        /* \"contracts/coinx.sol\":291:292  i */\n      dup3\n        /* \"contracts/coinx.sol\":289:293  z[i] */\n      dup2\n      mload\n      dup2\n      lt\n      tag_20\n      jumpi\n      tag_21\n      tag_22\n      jump\t// in\n    tag_21:\n    tag_20:\n      0x20\n      mul\n      0x20\n      add\n      add\n        /* \"contracts/coinx.sol\":289:303  z[i]=int(i)* x */\n      dup2\n      dup2\n      mstore\n      pop\n      pop\n        /* \"contracts/coinx.sol\":273:276  i++ */\n      dup1\n      dup1\n      tag_23\n      swap1\n      tag_24\n      jump\t// in\n    tag_23:\n      swap2\n      pop\n      pop\n        /* \"contracts/coinx.sol\":249:311  for (uint i=0;i<uint(n);i++) {... */\n      jump(tag_15)\n    tag_16:\n      pop\n        /* \"contracts/coinx.sol\":326:327  z */\n      dup1\n        /* \"contracts/coinx.sol\":319:327  return z */\n      swap2\n      pop\n      pop\n        /* \"contracts/coinx.sol\":95:333  function countBy(int x, int n) public pure returns (int[] memory) {... */\n      swap3\n      swap2\n      pop\n      pop\n      jump\t// out\n        /* \"#utility.yul\":88:205   */\n    tag_26:\n        /* \"#utility.yul\":197:198   */\n      0x00\n        /* \"#utility.yul\":194:195   */\n      dup1\n        /* \"#utility.yul\":187:199   */\n      revert\n        /* \"#utility.yul\":334:410   */\n    tag_28:\n        /* \"#utility.yul\":370:377   */\n      0x00\n        /* \"#utility.yul\":399:404   */\n      dup2\n        /* \"#utility.yul\":388:404   */\n      swap1\n      pop\n        /* \"#utility.yul\":334:410   */\n      swap2\n      swap1\n      pop\n      jump\t// out\n        /* \"#utility.yul\":416:536   */\n    tag_29:\n        /* \"#utility.yul\":488:511   */\n      tag_46\n        /* \"#utility.yul\":505:510   */\n      dup2\n        /* \"#utility.yul\":488:511   */\n      tag_28\n      jump\t// in\n    tag_46:\n        /* \"#utility.yul\":481:486   */\n      dup2\n        /* \"#utility.yul\":478:512   */\n      eq\n        /* \"#utility.yul\":468:530   */\n      tag_47\n      jumpi\n        /* \"#utility.yul\":526:527   */\n      0x00\n        /* \"#utility.yul\":523:524   */\n      dup1\n        /* \"#utility.yul\":516:528   */\n      revert\n        /* \"#utility.yul\":468:530   */\n    tag_47:\n        /* \"#utility.yul\":416:536   */\n      pop\n      jump\t// out\n        /* \"#utility.yul\":542:679   */\n    tag_30:\n        /* \"#utility.yul\":587:592   */\n      0x00\n        /* \"#utility.yul\":625:631   */\n      dup2\n        /* \"#utility.yul\":612:632   */\n      calldataload\n        /* \"#utility.yul\":603:632   */\n      swap1\n      pop\n        /* \"#utility.yul\":641:673   */\n      tag_49\n        /* \"#utility.yul\":667:672   */\n      dup2\n        /* \"#utility.yul\":641:673   */\n      tag_29\n      jump\t// in\n    tag_49:\n        /* \"#utility.yul\":542:679   */\n      swap3\n      swap2\n      pop\n      pop\n      jump\t// out\n        /* \"#utility.yul\":685:1155   */\n    tag_6:\n        /* \"#utility.yul\":751:757   */\n      0x00\n        /* \"#utility.yul\":759:765   */\n      dup1\n        /* \"#utility.yul\":808:810   */\n      0x40\n        /* \"#utility.yul\":796:805   */\n      dup4\n        /* \"#utility.yul\":787:794   */\n      dup6\n        /* \"#utility.yul\":783:806   */\n      sub\n        /* \"#utility.yul\":779:811   */\n      slt\n        /* \"#utility.yul\":776:895   */\n      iszero\n      tag_51\n      jumpi\n        /* \"#utility.yul\":814:893   */\n      tag_52\n      tag_26\n      jump\t// in\n    tag_52:\n        /* \"#utility.yul\":776:895   */\n    tag_51:\n        /* \"#utility.yul\":934:935   */\n      0x00\n        /* \"#utility.yul\":959:1011   */\n      tag_53\n        /* \"#utility.yul\":1003:1010   */\n      dup6\n        /* \"#utility.yul\":994:1000   */\n      dup3\n        /* \"#utility.yul\":983:992   */\n      dup7\n        /* \"#utility.yul\":979:1001   */\n      add\n        /* \"#utility.yul\":959:1011   */\n      tag_30\n      jump\t// in\n    tag_53:\n        /* \"#utility.yul\":949:1011   */\n      swap3\n      pop\n        /* \"#utility.yul\":905:1021   */\n      pop\n        /* \"#utility.yul\":1060:1062   */\n      0x20\n        /* \"#utility.yul\":1086:1138   */\n      tag_54\n        /* \"#utility.yul\":1130:1137   */\n      dup6\n        /* \"#utility.yul\":1121:1127   */\n      dup3\n        /* \"#utility.yul\":1110:1119   */\n      dup7\n        /* \"#utility.yul\":1106:1128   */\n      add\n        /* \"#utility.yul\":1086:1138   */\n      tag_30\n      jump\t// in\n    tag_54:\n        /* \"#utility.yul\":1076:1138   */\n      swap2\n      pop\n        /* \"#utility.yul\":1031:1148   */\n      pop\n        /* \"#utility.yul\":685:1155   */\n      swap3\n      pop\n      swap3\n      swap1\n      pop\n      jump\t// out\n        /* \"#utility.yul\":1161:1274   */\n    tag_31:\n        /* \"#utility.yul\":1227:1233   */\n      0x00\n        /* \"#utility.yul\":1261:1266   */\n      dup2\n        /* \"#utility.yul\":1255:1267   */\n      mload\n        /* \"#utility.yul\":1245:1267   */\n      swap1\n      pop\n        /* \"#utility.yul\":1161:1274   */\n      swap2\n      swap1\n      pop\n      jump\t// out\n        /* \"#utility.yul\":1280:1463   */\n    tag_32:\n        /* \"#utility.yul\":1378:1389   */\n      0x00\n        /* \"#utility.yul\":1412:1418   */\n      dup3\n        /* \"#utility.yul\":1407:1410   */\n      dup3\n        /* \"#utility.yul\":1400:1419   */\n      mstore\n        /* \"#utility.yul\":1452:1456   */\n      0x20\n        /* \"#utility.yul\":1447:1450   */\n      dup3\n        /* \"#utility.yul\":1443:1457   */\n      add\n        /* \"#utility.yul\":1428:1457   */\n      swap1\n      pop\n        /* \"#utility.yul\":1280:1463   */\n      swap3\n      swap2\n      pop\n      pop\n      jump\t// out\n        /* \"#utility.yul\":1469:1600   */\n    tag_33:\n        /* \"#utility.yul\":1535:1539   */\n      0x00\n        /* \"#utility.yul\":1558:1561   */\n      dup2\n        /* \"#utility.yul\":1550:1561   */\n      swap1\n      pop\n        /* \"#utility.yul\":1588:1592   */\n      0x20\n        /* \"#utility.yul\":1583:1586   */\n      dup3\n        /* \"#utility.yul\":1579:1593   */\n      add\n        /* \"#utility.yul\":1571:1593   */\n      swap1\n      pop\n        /* \"#utility.yul\":1469:1600   */\n      swap2\n      swap1\n      pop\n      jump\t// out\n        /* \"#utility.yul\":1606:1711   */\n    tag_34:\n        /* \"#utility.yul\":1681:1704   */\n      tag_59\n        /* \"#utility.yul\":1698:1703   */\n      dup2\n        /* \"#utility.yul\":1681:1704   */\n      tag_28\n      jump\t// in\n    tag_59:\n        /* \"#utility.yul\":1676:1679   */\n      dup3\n        /* \"#utility.yul\":1669:1705   */\n      mstore\n        /* \"#utility.yul\":1606:1711   */\n      pop\n      pop\n      jump\t// out\n        /* \"#utility.yul\":1717:1892   */\n    tag_35:\n        /* \"#utility.yul\":1784:1794   */\n      0x00\n        /* \"#utility.yul\":1805:1849   */\n      tag_61\n        /* \"#utility.yul\":1845:1848   */\n      dup4\n        /* \"#utility.yul\":1837:1843   */\n      dup4\n        /* \"#utility.yul\":1805:1849   */\n      tag_34\n      jump\t// in\n    tag_61:\n        /* \"#utility.yul\":1881:1885   */\n      0x20\n        /* \"#utility.yul\":1876:1879   */\n      dup4\n        /* \"#utility.yul\":1872:1886   */\n      add\n        /* \"#utility.yul\":1858:1886   */\n      swap1\n      pop\n        /* \"#utility.yul\":1717:1892   */\n      swap3\n      swap2\n      pop\n      pop\n      jump\t// out\n        /* \"#utility.yul\":1898:2010   */\n    tag_36:\n        /* \"#utility.yul\":1967:1971   */\n      0x00\n        /* \"#utility.yul\":1999:2003   */\n      0x20\n        /* \"#utility.yul\":1994:1997   */\n      dup3\n        /* \"#utility.yul\":1990:2004   */\n      add\n        /* \"#utility.yul\":1982:2004   */\n      swap1\n      pop\n        /* \"#utility.yul\":1898:2010   */\n      swap2\n      swap1\n      pop\n      jump\t// out\n        /* \"#utility.yul\":2044:2768   */\n    tag_37:\n        /* \"#utility.yul\":2161:2164   */\n      0x00\n        /* \"#utility.yul\":2190:2243   */\n      tag_64\n        /* \"#utility.yul\":2237:2242   */\n      dup3\n        /* \"#utility.yul\":2190:2243   */\n      tag_31\n      jump\t// in\n    tag_64:\n        /* \"#utility.yul\":2259:2344   */\n      tag_65\n        /* \"#utility.yul\":2337:2343   */\n      dup2\n        /* \"#utility.yul\":2332:2335   */\n      dup6\n        /* \"#utility.yul\":2259:2344   */\n      tag_32\n      jump\t// in\n    tag_65:\n        /* \"#utility.yul\":2252:2344   */\n      swap4\n      pop\n        /* \"#utility.yul\":2368:2423   */\n      tag_66\n        /* \"#utility.yul\":2417:2422   */\n      dup4\n        /* \"#utility.yul\":2368:2423   */\n      tag_33\n      jump\t// in\n    tag_66:\n        /* \"#utility.yul\":2446:2453   */\n      dup1\n        /* \"#utility.yul\":2477:2478   */\n      0x00\n        /* \"#utility.yul\":2462:2743   */\n    tag_67:\n        /* \"#utility.yul\":2487:2493   */\n      dup4\n        /* \"#utility.yul\":2484:2485   */\n      dup2\n        /* \"#utility.yul\":2481:2494   */\n      lt\n        /* \"#utility.yul\":2462:2743   */\n      iszero\n      tag_69\n      jumpi\n        /* \"#utility.yul\":2563:2569   */\n      dup2\n        /* \"#utility.yul\":2557:2570   */\n      mload\n        /* \"#utility.yul\":2590:2651   */\n      tag_70\n        /* \"#utility.yul\":2647:2650   */\n      dup9\n        /* \"#utility.yul\":2632:2645   */\n      dup3\n        /* \"#utility.yul\":2590:2651   */\n      tag_35\n      jump\t// in\n    tag_70:\n        /* \"#utility.yul\":2583:2651   */\n      swap8\n      pop\n        /* \"#utility.yul\":2674:2733   */\n      tag_71\n        /* \"#utility.yul\":2726:2732   */\n      dup4\n        /* \"#utility.yul\":2674:2733   */\n      tag_36\n      jump\t// in\n    tag_71:\n        /* \"#utility.yul\":2664:2733   */\n      swap3\n      pop\n        /* \"#utility.yul\":2522:2743   */\n      pop\n        /* \"#utility.yul\":2509:2510   */\n      0x01\n        /* \"#utility.yul\":2506:2507   */\n      dup2\n        /* \"#utility.yul\":2502:2511   */\n      add\n        /* \"#utility.yul\":2497:2511   */\n      swap1\n      pop\n        /* \"#utility.yul\":2462:2743   */\n      jump(tag_67)\n    tag_69:\n        /* \"#utility.yul\":2466:2480   */\n      pop\n        /* \"#utility.yul\":2759:2762   */\n      dup6\n        /* \"#utility.yul\":2752:2762   */\n      swap4\n      pop\n        /* \"#utility.yul\":2166:2768   */\n      pop\n      pop\n      pop\n        /* \"#utility.yul\":2044:2768   */\n      swap3\n      swap2\n      pop\n      pop\n      jump\t// out\n        /* \"#utility.yul\":2774:3143   */\n    tag_9:\n        /* \"#utility.yul\":2915:2919   */\n      0x00\n        /* \"#utility.yul\":2953:2955   */\n      0x20\n        /* \"#utility.yul\":2942:2951   */\n      dup3\n        /* \"#utility.yul\":2938:2956   */\n      add\n        /* \"#utility.yul\":2930:2956   */\n      swap1\n      pop\n        /* \"#utility.yul\":3002:3011   */\n      dup2\n        /* \"#utility.yul\":2996:3000   */\n      dup2\n        /* \"#utility.yul\":2992:3012   */\n      sub\n        /* \"#utility.yul\":2988:2989   */\n      0x00\n        /* \"#utility.yul\":2977:2986   */\n      dup4\n        /* \"#utility.yul\":2973:2990   */\n      add\n        /* \"#utility.yul\":2966:3013   */\n      mstore\n        /* \"#utility.yul\":3030:3136   */\n      tag_73\n        /* \"#utility.yul\":3131:3135   */\n      dup2\n        /* \"#utility.yul\":3122:3128   */\n      dup5\n        /* \"#utility.yul\":3030:3136   */\n      tag_37\n      jump\t// in\n    tag_73:\n        /* \"#utility.yul\":3022:3136   */\n      swap1\n      pop\n        /* \"#utility.yul\":2774:3143   */\n      swap3\n      swap2\n      pop\n      pop\n      jump\t// out\n        /* \"#utility.yul\":3149:3329   */\n    tag_13:\n        /* \"#utility.yul\":3197:3274   */\n      0x4e487b7100000000000000000000000000000000000000000000000000000000\n        /* \"#utility.yul\":3194:3195   */\n      0x00\n        /* \"#utility.yul\":3187:3275   */\n      mstore\n        /* \"#utility.yul\":3294:3298   */\n      0x41\n        /* \"#utility.yul\":3291:3292   */\n      0x04\n        /* \"#utility.yul\":3284:3299   */\n      mstore\n        /* \"#utility.yul\":3318:3322   */\n      0x24\n        /* \"#utility.yul\":3315:3316   */\n      0x00\n        /* \"#utility.yul\":3308:3323   */\n      revert\n        /* \"#utility.yul\":3335:3515   */\n    tag_38:\n        /* \"#utility.yul\":3383:3460   */\n      0x4e487b7100000000000000000000000000000000000000000000000000000000\n        /* \"#utility.yul\":3380:3381   */\n      0x00\n        /* \"#utility.yul\":3373:3461   */\n      mstore\n        /* \"#utility.yul\":3480:3484   */\n      0x11\n        /* \"#utility.yul\":3477:3478   */\n      0x04\n        /* \"#utility.yul\":3470:3485   */\n      mstore\n        /* \"#utility.yul\":3504:3508   */\n      0x24\n        /* \"#utility.yul\":3501:3502   */\n      0x00\n        /* \"#utility.yul\":3494:3509   */\n      revert\n        /* \"#utility.yul\":3521:4077   */\n    tag_19:\n        /* \"#utility.yul\":3560:3567   */\n      0x00\n        /* \"#utility.yul\":3583:3602   */\n      tag_77\n        /* \"#utility.yul\":3600:3601   */\n      dup3\n        /* \"#utility.yul\":3583:3602   */\n      tag_28\n      jump\t// in\n    tag_77:\n        /* \"#utility.yul\":3578:3602   */\n      swap2\n      pop\n        /* \"#utility.yul\":3616:3635   */\n      tag_78\n        /* \"#utility.yul\":3633:3634   */\n      dup4\n        /* \"#utility.yul\":3616:3635   */\n      tag_28\n      jump\t// in\n    tag_78:\n        /* \"#utility.yul\":3611:3635   */\n      swap3\n      pop\n        /* \"#utility.yul\":3670:3671   */\n      dup3\n        /* \"#utility.yul\":3667:3668   */\n      dup3\n        /* \"#utility.yul\":3663:3672   */\n      mul\n        /* \"#utility.yul\":3692:3721   */\n      tag_79\n        /* \"#utility.yul\":3709:3720   */\n      dup2\n        /* \"#utility.yul\":3692:3721   */\n      tag_28\n      jump\t// in\n    tag_79:\n        /* \"#utility.yul\":3681:3721   */\n      swap2\n      pop\n        /* \"#utility.yul\":3779:3845   */\n      0x8000000000000000000000000000000000000000000000000000000000000000\n        /* \"#utility.yul\":3776:3777   */\n      dup5\n        /* \"#utility.yul\":3773:3846   */\n      eq\n        /* \"#utility.yul\":3769:3770   */\n      0x00\n        /* \"#utility.yul\":3766:3767   */\n      dup5\n        /* \"#utility.yul\":3762:3771   */\n      slt\n        /* \"#utility.yul\":3758:3847   */\n      and\n        /* \"#utility.yul\":3755:3870   */\n      iszero\n      tag_80\n      jumpi\n        /* \"#utility.yul\":3850:3868   */\n      tag_81\n      tag_38\n      jump\t// in\n    tag_81:\n        /* \"#utility.yul\":3755:3870   */\n    tag_80:\n        /* \"#utility.yul\":4020:4021   */\n      dup3\n        /* \"#utility.yul\":4011:4018   */\n      dup3\n        /* \"#utility.yul\":4006:4022   */\n      sdiv\n        /* \"#utility.yul\":4003:4004   */\n      dup5\n        /* \"#utility.yul\":4000:4023   */\n      eq\n        /* \"#utility.yul\":3980:3981   */\n      dup4\n        /* \"#utility.yul\":3973:3982   */\n      iszero\n        /* \"#utility.yul\":3953:4037   */\n      or\n        /* \"#utility.yul\":3930:4070   */\n      tag_82\n      jumpi\n        /* \"#utility.yul\":4050:4068   */\n      tag_83\n      tag_38\n      jump\t// in\n    tag_83:\n        /* \"#utility.yul\":3930:4070   */\n    tag_82:\n        /* \"#utility.yul\":3568:4077   */\n      pop\n        /* \"#utility.yul\":3521:4077   */\n      swap3\n      swap2\n      pop\n      pop\n      jump\t// out\n        /* \"#utility.yul\":4083:4263   */\n    tag_22:\n        /* \"#utility.yul\":4131:4208   */\n      0x4e487b7100000000000000000000000000000000000000000000000000000000\n        /* \"#utility.yul\":4128:4129   */\n      0x00\n        /* \"#utility.yul\":4121:4209   */\n      mstore\n        /* \"#utility.yul\":4228:4232   */\n      0x32\n        /* \"#utility.yul\":4225:4226   */\n      0x04\n        /* \"#utility.yul\":4218:4233   */\n      mstore\n        /* \"#utility.yul\":4252:4256   */\n      0x24\n        /* \"#utility.yul\":4249:4250   */\n      0x00\n        /* \"#utility.yul\":4242:4257   */\n      revert\n        /* \"#utility.yul\":4269:4346   */\n    tag_39:\n        /* \"#utility.yul\":4306:4313   */\n      0x00\n        /* \"#utility.yul\":4335:4340   */\n      dup2\n        /* \"#utility.yul\":4324:4340   */\n      swap1\n      pop\n        /* \"#utility.yul\":4269:4346   */\n      swap2\n      swap1\n      pop\n      jump\t// out\n        /* \"#utility.yul\":4352:4585   */\n    tag_24:\n        /* \"#utility.yul\":4391:4394   */\n      0x00\n        /* \"#utility.yul\":4414:4438   */\n      tag_87\n        /* \"#utility.yul\":4432:4437   */\n      dup3\n        /* \"#utility.yul\":4414:4438   */\n      tag_39\n      jump\t// in\n    tag_87:\n        /* \"#utility.yul\":4405:4438   */\n      swap2\n      pop\n        /* \"#utility.yul\":4460:4526   */\n      0xffffffffffffffffffffffffffffffffffffffffffffffffffffffffffffffff\n        /* \"#utility.yul\":4453:4458   */\n      dup3\n        /* \"#utility.yul\":4450:4527   */\n      sub\n        /* \"#utility.yul\":4447:4550   */\n      tag_88\n      jumpi\n        /* \"#utility.yul\":4530:4548   */\n      tag_89\n      tag_38\n      jump\t// in\n    tag_89:\n        /* \"#utility.yul\":4447:4550   */\n    tag_88:\n        /* \"#utility.yul\":4577:4578   */\n      0x01\n        /* \"#utility.yul\":4570:4575   */\n      dup3\n        /* \"#utility.yul\":4566:4579   */\n      add\n        /* \"#utility.yul\":4559:4579   */\n      swap1\n      pop\n        /* \"#utility.yul\":4352:4585   */\n      swap2\n      swap1\n      pop\n      jump\t// out\n\n    auxdata: 0xa264697066735822122089b3e2c149357e07481f76f335d806441aaa64b91e982aeca574a6c388f5419e64736f6c63430008120033\n}\n",
				"bytecode": {
					"linkReferences": {},
					"object": "608060405234801561001057600080fd5b506103eb806100206000396000f3fe608060405234801561001057600080fd5b506004361061002b5760003560e01c806313acb47c14610030575b600080fd5b61004a6004803603810190610045919061013e565b610060565b604051610057919061023c565b60405180910390f35b606060008267ffffffffffffffff81111561007e5761007d61025e565b5b6040519080825280602002602001820160405280156100ac5781602001602082028036833780820191505090505b50905060005b838110156100f85784816100c691906102bc565b8282815181106100d9576100d8610334565b5b60200260200101818152505080806100f09061036d565b9150506100b2565b508091505092915050565b600080fd5b6000819050919050565b61011b81610108565b811461012657600080fd5b50565b60008135905061013881610112565b92915050565b6000806040838503121561015557610154610103565b5b600061016385828601610129565b925050602061017485828601610129565b9150509250929050565b600081519050919050565b600082825260208201905092915050565b6000819050602082019050919050565b6101b381610108565b82525050565b60006101c583836101aa565b60208301905092915050565b6000602082019050919050565b60006101e98261017e565b6101f38185610189565b93506101fe8361019a565b8060005b8381101561022f57815161021688826101b9565b9750610221836101d1565b925050600181019050610202565b5085935050505092915050565b6000602082019050818103600083015261025681846101de565b905092915050565b7f4e487b7100000000000000000000000000000000000000000000000000000000600052604160045260246000fd5b7f4e487b7100000000000000000000000000000000000000000000000000000000600052601160045260246000fd5b60006102c782610108565b91506102d283610108565b92508282026102e081610108565b91507f800000000000000000000000000000000000000000000000000000000000000084146000841216156103185761031761028d565b5b828205841483151761032d5761032c61028d565b5b5092915050565b7f4e487b7100000000000000000000000000000000000000000000000000000000600052603260045260246000fd5b6000819050919050565b600061037882610363565b91507fffffffffffffffffffffffffffffffffffffffffffffffffffffffffffffffff82036103aa576103a961028d565b5b60018201905091905056fea264697066735822122089b3e2c149357e07481f76f335d806441aaa64b91e982aeca574a6c388f5419e64736f6c63430008120033",
					"opcodes": "PUSH1 0x80 PUSH1 0x40 MSTORE CALLVALUE DUP1 ISZERO PUSH2 0x10 JUMPI PUSH1 0x0 DUP1 REVERT JUMPDEST POP PUSH2 0x3EB DUP1 PUSH2 0x20 PUSH1 0x0 CODECOPY PUSH1 0x0 RETURN INVALID PUSH1 0x80 PUSH1 0x40 MSTORE CALLVALUE DUP1 ISZERO PUSH2 0x10 JUMPI PUSH1 0x0 DUP1 REVERT JUMPDEST POP PUSH1 0x4 CALLDATASIZE LT PUSH2 0x2B JUMPI PUSH1 0x0 CALLDATALOAD PUSH1 0xE0 SHR DUP1 PUSH4 0x13ACB47C EQ PUSH2 0x30 JUMPI JUMPDEST PUSH1 0x0 DUP1 REVERT JUMPDEST PUSH2 0x4A PUSH1 0x4 DUP1 CALLDATASIZE SUB DUP2 ADD SWAP1 PUSH2 0x45 SWAP2 SWAP1 PUSH2 0x13E JUMP JUMPDEST PUSH2 0x60 JUMP JUMPDEST PUSH1 0x40 MLOAD PUSH2 0x57 SWAP2 SWAP1 PUSH2 0x23C JUMP JUMPDEST PUSH1 0x40 MLOAD DUP1 SWAP2 SUB SWAP1 RETURN JUMPDEST PUSH1 0x60 PUSH1 0x0 DUP3 PUSH8 0xFFFFFFFFFFFFFFFF DUP2 GT ISZERO PUSH2 0x7E JUMPI PUSH2 0x7D PUSH2 0x25E JUMP JUMPDEST JUMPDEST PUSH1 0x40 MLOAD SWAP1 DUP1 DUP3 MSTORE DUP1 PUSH1 0x20 MUL PUSH1 0x20 ADD DUP3 ADD PUSH1 0x40 MSTORE DUP1 ISZERO PUSH2 0xAC JUMPI DUP2 PUSH1 0x20 ADD PUSH1 0x20 DUP3 MUL DUP1 CALLDATASIZE DUP4 CALLDATACOPY DUP1 DUP3 ADD SWAP2 POP POP SWAP1 POP JUMPDEST POP SWAP1 POP PUSH1 0x0 JUMPDEST DUP4 DUP2 LT ISZERO PUSH2 0xF8 JUMPI DUP5 DUP2 PUSH2 0xC6 SWAP2 SWAP1 PUSH2 0x2BC JUMP JUMPDEST DUP3 DUP3 DUP2 MLOAD DUP2 LT PUSH2 0xD9 JUMPI PUSH2 0xD8 PUSH2 0x334 JUMP JUMPDEST JUMPDEST PUSH1 0x20 MUL PUSH1 0x20 ADD ADD DUP2 DUP2 MSTORE POP POP DUP1 DUP1 PUSH2 0xF0 SWAP1 PUSH2 0x36D JUMP JUMPDEST SWAP2 POP POP PUSH2 0xB2 JUMP JUMPDEST POP DUP1 SWAP2 POP POP SWAP3 SWAP2 POP POP JUMP JUMPDEST PUSH1 0x0 DUP1 REVERT JUMPDEST PUSH1 0x0 DUP2 SWAP1 POP SWAP2 SWAP1 POP JUMP JUMPDEST PUSH2 0x11B DUP2 PUSH2 0x108 JUMP JUMPDEST DUP2 EQ PUSH2 0x126 JUMPI PUSH1 0x0 DUP1 REVERT JUMPDEST POP JUMP JUMPDEST PUSH1 0x0 DUP2 CALLDATALOAD SWAP1 POP PUSH2 0x138 DUP2 PUSH2 0x112 JUMP JUMPDEST SWAP3 SWAP2 POP POP JUMP JUMPDEST PUSH1 0x0 DUP1 PUSH1 0x40 DUP4 DUP6 SUB SLT ISZERO PUSH2 0x155 JUMPI PUSH2 0x154 PUSH2 0x103 JUMP JUMPDEST JUMPDEST PUSH1 0x0 PUSH2 0x163 DUP6 DUP3 DUP7 ADD PUSH2 0x129 JUMP JUMPDEST SWAP3 POP POP PUSH1 0x20 PUSH2 0x174 DUP6 DUP3 DUP7 ADD PUSH2 0x129 JUMP JUMPDEST SWAP2 POP POP SWAP3 POP SWAP3 SWAP1 POP JUMP JUMPDEST PUSH1 0x0 DUP2 MLOAD SWAP1 POP SWAP2 SWAP1 POP JUMP JUMPDEST PUSH1 0x0 DUP3 DUP3 MSTORE PUSH1 0x20 DUP3 ADD SWAP1 POP SWAP3 SWAP2 POP POP JUMP JUMPDEST PUSH1 0x0 DUP2 SWAP1 POP PUSH1 0x20 DUP3 ADD SWAP1 POP SWAP2 SWAP1 POP JUMP JUMPDEST PUSH2 0x1B3 DUP2 PUSH2 0x108 JUMP JUMPDEST DUP3 MSTORE POP POP JUMP JUMPDEST PUSH1 0x0 PUSH2 0x1C5 DUP4 DUP4 PUSH2 0x1AA JUMP JUMPDEST PUSH1 0x20 DUP4 ADD SWAP1 POP SWAP3 SWAP2 POP POP JUMP JUMPDEST PUSH1 0x0 PUSH1 0x20 DUP3 ADD SWAP1 POP SWAP2 SWAP1 POP JUMP JUMPDEST PUSH1 0x0 PUSH2 0x1E9 DUP3 PUSH2 0x17E JUMP JUMPDEST PUSH2 0x1F3 DUP2 DUP6 PUSH2 0x189 JUMP JUMPDEST SWAP4 POP PUSH2 0x1FE DUP4 PUSH2 0x19A JUMP JUMPDEST DUP1 PUSH1 0x0 JUMPDEST DUP4 DUP2 LT ISZERO PUSH2 0x22F JUMPI DUP2 MLOAD PUSH2 0x216 DUP9 DUP3 PUSH2 0x1B9 JUMP JUMPDEST SWAP8 POP PUSH2 0x221 DUP4 PUSH2 0x1D1 JUMP JUMPDEST SWAP3 POP POP PUSH1 0x1 DUP2 ADD SWAP1 POP PUSH2 0x202 JUMP JUMPDEST POP DUP6 SWAP4 POP POP POP POP SWAP3 SWAP2 POP POP JUMP JUMPDEST PUSH1 0x0 PUSH1 0x20 DUP3 ADD SWAP1 POP DUP2 DUP2 SUB PUSH1 0x0 DUP4 ADD MSTORE PUSH2 0x256 DUP2 DUP5 PUSH2 0x1DE JUMP JUMPDEST SWAP1 POP SWAP3 SWAP2 POP POP JUMP JUMPDEST PUSH32 0x4E487B7100000000000000000000000000000000000000000000000000000000 PUSH1 0x0 MSTORE PUSH1 0x41 PUSH1 0x4 MSTORE PUSH1 0x24 PUSH1 0x0 REVERT JUMPDEST PUSH32 0x4E487B7100000000000000000000000000000000000000000000000000000000 PUSH1 0x0 MSTORE PUSH1 0x11 PUSH1 0x4 MSTORE PUSH1 0x24 PUSH1 0x0 REVERT JUMPDEST PUSH1 0x0 PUSH2 0x2C7 DUP3 PUSH2 0x108 JUMP JUMPDEST SWAP2 POP PUSH2 0x2D2 DUP4 PUSH2 0x108 JUMP JUMPDEST SWAP3 POP DUP3 DUP3 MUL PUSH2 0x2E0 DUP2 PUSH2 0x108 JUMP JUMPDEST SWAP2 POP PUSH32 0x8000000000000000000000000000000000000000000000000000000000000000 DUP5 EQ PUSH1 0x0 DUP5 SLT AND ISZERO PUSH2 0x318 JUMPI PUSH2 0x317 PUSH2 0x28D JUMP JUMPDEST JUMPDEST DUP3 DUP3 SDIV DUP5 EQ DUP4 ISZERO OR PUSH2 0x32D JUMPI PUSH2 0x32C PUSH2 0x28D JUMP JUMPDEST JUMPDEST POP SWAP3 SWAP2 POP POP JUMP JUMPDEST PUSH32 0x4E487B7100000000000000000000000000000000000000000000000000000000 PUSH1 0x0 MSTORE PUSH1 0x32 PUSH1 0x4 MSTORE PUSH1 0x24 PUSH1 0x0 REVERT JUMPDEST PUSH1 0x0 DUP2 SWAP1 POP SWAP2 SWAP1 POP JUMP JUMPDEST PUSH1 0x0 PUSH2 0x378 DUP3 PUSH2 0x363 JUMP JUMPDEST SWAP2 POP PUSH32 0xFFFFFFFFFFFFFFFFFFFFFFFFFFFFFFFFFFFFFFFFFFFFFFFFFFFFFFFFFFFFFFFF DUP3 SUB PUSH2 0x3AA JUMPI PUSH2 0x3A9 PUSH2 0x28D JUMP JUMPDEST JUMPDEST PUSH1 0x1 DUP3 ADD SWAP1 POP SWAP2 SWAP1 POP JUMP INVALID LOG2 PUSH5 0x6970667358 0x22 SLT KECCAK256 DUP10 0xB3 0xE2 0xC1 0x49 CALLDATALOAD PUSH31 0x7481F76F335D806441AAA64B91E982AECA574A6C388F5419E64736F6C6343 STOP ADDMOD SLT STOP CALLER "
				},
				"gasEstimates": {
					"creation": {
						"codeDepositCost": "200600",
						"executionCost": "245",
						"totalCost": "200845"
					},
					"external": {
						"countBy(int256,int256)": "infinite"
					}
				},
				"methodIdentifiers": {
					"countBy(int256,int256)": "13acb47c"
				}
			},
			"storageLayout": {
				"storage": [],
				"types": null
			},
			"userdoc": {
				"kind": "user",
				"methods": {},
				"version": 1
			}
		}
	}
}