{
	"contracts/userProfile3.sol": {
		"NameRegistry": {
			"abi": [
				{
					"anonymous": false,
					"inputs": [
						{
							"indexed": true,
							"internalType": "address",
							"name": "ethAddress",
							"type": "address"
						}
					],
					"name": "NameDeregistered",
					"type": "event"
				},
				{
					"anonymous": false,
					"inputs": [
						{
							"indexed": true,
							"internalType": "address",
							"name": "ethAddress",
							"type": "address"
						},
						{
							"indexed": false,
							"internalType": "string",
							"name": "name",
							"type": "string"
						},
						{
							"indexed": false,
							"internalType": "string",
							"name": "ipfsImageHash",
							"type": "string"
						}
					],
					"name": "NameRegistered",
					"type": "event"
				},
				{
					"anonymous": false,
					"inputs": [
						{
							"indexed": true,
							"internalType": "address",
							"name": "fromAddress",
							"type": "address"
						},
						{
							"indexed": true,
							"internalType": "address",
							"name": "toAddress",
							"type": "address"
						},
						{
							"indexed": false,
							"internalType": "string",
							"name": "name",
							"type": "string"
						}
					],
					"name": "NameTransferred",
					"type": "event"
				},
				{
					"inputs": [
						{
							"internalType": "address",
							"name": "",
							"type": "address"
						}
					],
					"name": "addressToProfile",
					"outputs": [
						{
							"internalType": "string",
							"name": "userName",
							"type": "string"
						},
						{
							"internalType": "bool",
							"name": "registered",
							"type": "bool"
						},
						{
							"internalType": "string",
							"name": "ipfsImageHash",
							"type": "string"
						}
					],
					"stateMutability": "view",
					"type": "function"
				},
				{
					"inputs": [],
					"name": "deregisterName",
					"outputs": [],
					"stateMutability": "nonpayable",
					"type": "function"
				},
				{
					"inputs": [
						{
							"internalType": "address",
							"name": "_userAddress",
							"type": "address"
						}
					],
					"name": "getIpfsImageHash",
					"outputs": [
						{
							"internalType": "string",
							"name": "",
							"type": "string"
						}
					],
					"stateMutability": "view",
					"type": "function"
				},
				{
					"inputs": [
						{
							"internalType": "address",
							"name": "_userAddress",
							"type": "address"
						}
					],
					"name": "getName",
					"outputs": [
						{
							"internalType": "string",
							"name": "",
							"type": "string"
						}
					],
					"stateMutability": "view",
					"type": "function"
				},
				{
					"inputs": [
						{
							"internalType": "address",
							"name": "_userAddress",
							"type": "address"
						}
					],
					"name": "getNameAndIpfsHash",
					"outputs": [
						{
							"internalType": "string",
							"name": "",
							"type": "string"
						},
						{
							"internalType": "string",
							"name": "",
							"type": "string"
						}
					],
					"stateMutability": "view",
					"type": "function"
				},
				{
					"inputs": [
						{
							"internalType": "string",
							"name": "_userName",
							"type": "string"
						},
						{
							"internalType": "string",
							"name": "_ipfsImageHash",
							"type": "string"
						}
					],
					"name": "registerName",
					"outputs": [],
					"stateMutability": "nonpayable",
					"type": "function"
				},
				{
					"inputs": [
						{
							"internalType": "address",
							"name": "_newAddress",
							"type": "address"
						}
					],
					"name": "transferName",
					"outputs": [],
					"stateMutability": "nonpayable",
					"type": "function"
				}
			],
			"devdoc": {
				"kind": "dev",
				"methods": {},
				"version": 1
			},
			"evm": {
				"assembly": "    /* \"contracts/userProfile3.sol\":60:3632  contract NameRegistry {... */\n  mstore(0x40, 0x80)\n  callvalue\n  dup1\n  iszero\n  tag_1\n  jumpi\n  0x00\n  dup1\n  revert\ntag_1:\n  pop\n  dataSize(sub_0)\n  dup1\n  dataOffset(sub_0)\n  0x00\n  codecopy\n  0x00\n  return\nstop\n\nsub_0: assembly {\n        /* \"contracts/userProfile3.sol\":60:3632  contract NameRegistry {... */\n      mstore(0x40, 0x80)\n      callvalue\n      dup1\n      iszero\n      tag_1\n      jumpi\n      0x00\n      dup1\n      revert\n    tag_1:\n      pop\n      jumpi(tag_2, lt(calldatasize, 0x04))\n      shr(0xe0, calldataload(0x00))\n      dup1\n      0x4ef8884b\n      gt\n      tag_10\n      jumpi\n      dup1\n      0x4ef8884b\n      eq\n      tag_6\n      jumpi\n      dup1\n      0x5fd4b08a\n      eq\n      tag_7\n      jumpi\n      dup1\n      0xc8c6d068\n      eq\n      tag_8\n      jumpi\n      dup1\n      0xff21ce9c\n      eq\n      tag_9\n      jumpi\n      jump(tag_2)\n    tag_10:\n      dup1\n      0x0d5fba83\n      eq\n      tag_3\n      jumpi\n      dup1\n      0x0e7b29bf\n      eq\n      tag_4\n      jumpi\n      dup1\n      0x2557989b\n      eq\n      tag_5\n      jumpi\n    tag_2:\n      0x00\n      dup1\n      revert\n        /* \"contracts/userProfile3.sol\":1467:1751  function deregisterName() public {... */\n    tag_3:\n      tag_11\n      tag_12\n      jump\t// in\n    tag_11:\n      stop\n        /* \"contracts/userProfile3.sol\":384:439  mapping(address => UserProfile) public addressToProfile */\n    tag_4:\n      tag_13\n      0x04\n      dup1\n      calldatasize\n      sub\n      dup2\n      add\n      swap1\n      tag_14\n      swap2\n      swap1\n      tag_15\n      jump\t// in\n    tag_14:\n      tag_16\n      jump\t// in\n    tag_13:\n      mload(0x40)\n      tag_17\n      swap4\n      swap3\n      swap2\n      swap1\n      tag_18\n      jump\t// in\n    tag_17:\n      mload(0x40)\n      dup1\n      swap2\n      sub\n      swap1\n      return\n        /* \"contracts/userProfile3.sol\":2990:3191  function getIpfsImageHash(address _userAddress) public view returns (string memory) {... */\n    tag_5:\n      tag_19\n      0x04\n      dup1\n      calldatasize\n      sub\n      dup2\n      add\n      swap1\n      tag_20\n      swap2\n      swap1\n      tag_15\n      jump\t// in\n    tag_20:\n      tag_21\n      jump\t// in\n    tag_19:\n      mload(0x40)\n      tag_22\n      swap2\n      swap1\n      tag_23\n      jump\t// in\n    tag_22:\n      mload(0x40)\n      dup1\n      swap2\n      sub\n      swap1\n      return\n        /* \"contracts/userProfile3.sol\":1812:2542  function transferName(address _newAddress) public {... */\n    tag_6:\n      tag_24\n      0x04\n      dup1\n      calldatasize\n      sub\n      dup2\n      add\n      swap1\n      tag_25\n      swap2\n      swap1\n      tag_15\n      jump\t// in\n    tag_25:\n      tag_26\n      jump\t// in\n    tag_24:\n      stop\n        /* \"contracts/userProfile3.sol\":2622:2910  function getName(address _userAddress) public view returns (string memory) {... */\n    tag_7:\n      tag_27\n      0x04\n      dup1\n      calldatasize\n      sub\n      dup2\n      add\n      swap1\n      tag_28\n      swap2\n      swap1\n      tag_15\n      jump\t// in\n    tag_28:\n      tag_29\n      jump\t// in\n    tag_27:\n      mload(0x40)\n      tag_30\n      swap2\n      swap1\n      tag_23\n      jump\t// in\n    tag_30:\n      mload(0x40)\n      dup1\n      swap2\n      sub\n      swap1\n      return\n        /* \"contracts/userProfile3.sol\":3282:3627  function getNameAndIpfsHash(address _userAddress) public view returns (string memory, string memory) {... */\n    tag_8:\n      tag_31\n      0x04\n      dup1\n      calldatasize\n      sub\n      dup2\n      add\n      swap1\n      tag_32\n      swap2\n      swap1\n      tag_15\n      jump\t// in\n    tag_32:\n      tag_33\n      jump\t// in\n    tag_31:\n      mload(0x40)\n      tag_34\n      swap3\n      swap2\n      swap1\n      tag_35\n      jump\t// in\n    tag_34:\n      mload(0x40)\n      dup1\n      swap2\n      sub\n      swap1\n      return\n        /* \"contracts/userProfile3.sol\":880:1421  function registerName(string memory _userName, string memory _ipfsImageHash) public {... */\n    tag_9:\n      tag_36\n      0x04\n      dup1\n      calldatasize\n      sub\n      dup2\n      add\n      swap1\n      tag_37\n      swap2\n      swap1\n      tag_38\n      jump\t// in\n    tag_37:\n      tag_39\n      jump\t// in\n    tag_36:\n      stop\n        /* \"contracts/userProfile3.sol\":1467:1751  function deregisterName() public {... */\n    tag_12:\n        /* \"contracts/userProfile3.sol\":1519:1535  addressToProfile */\n      0x00\n        /* \"contracts/userProfile3.sol\":1519:1547  addressToProfile[msg.sender] */\n      dup1\n        /* \"contracts/userProfile3.sol\":1536:1546  msg.sender */\n      caller\n        /* \"contracts/userProfile3.sol\":1519:1547  addressToProfile[msg.sender] */\n      0xffffffffffffffffffffffffffffffffffffffff\n      and\n      0xffffffffffffffffffffffffffffffffffffffff\n      and\n      dup2\n      mstore\n      0x20\n      add\n      swap1\n      dup2\n      mstore\n      0x20\n      add\n      0x00\n      keccak256\n        /* \"contracts/userProfile3.sol\":1519:1558  addressToProfile[msg.sender].registered */\n      0x01\n      add\n      0x00\n      swap1\n      sload\n      swap1\n      0x0100\n      exp\n      swap1\n      div\n      0xff\n      and\n        /* \"contracts/userProfile3.sol\":1511:1588  require(addressToProfile[msg.sender].registered, \"Address is not registered\") */\n      tag_41\n      jumpi\n      mload(0x40)\n      0x08c379a000000000000000000000000000000000000000000000000000000000\n      dup2\n      mstore\n      0x04\n      add\n      tag_42\n      swap1\n      tag_43\n      jump\t// in\n    tag_42:\n      mload(0x40)\n      dup1\n      swap2\n      sub\n      swap1\n      revert\n    tag_41:\n        /* \"contracts/userProfile3.sol\":1632:1697  UserProfile({userName: \"\", registered: false, ipfsImageHash: \"\"}) */\n      mload(0x40)\n      dup1\n      0x60\n      add\n      0x40\n      mstore\n      dup1\n      mload(0x40)\n      dup1\n      0x20\n      add\n      0x40\n      mstore\n      dup1\n      0x00\n      dup2\n      mstore\n      pop\n      dup2\n      mstore\n      0x20\n      add\n        /* \"contracts/userProfile3.sol\":1671:1676  false */\n      0x00\n        /* \"contracts/userProfile3.sol\":1632:1697  UserProfile({userName: \"\", registered: false, ipfsImageHash: \"\"}) */\n      iszero\n      iszero\n      dup2\n      mstore\n      0x20\n      add\n      mload(0x40)\n      dup1\n      0x20\n      add\n      0x40\n      mstore\n      dup1\n      0x00\n      dup2\n      mstore\n      pop\n      dup2\n      mstore\n      pop\n        /* \"contracts/userProfile3.sol\":1601:1617  addressToProfile */\n      0x00\n        /* \"contracts/userProfile3.sol\":1601:1629  addressToProfile[msg.sender] */\n      dup1\n        /* \"contracts/userProfile3.sol\":1618:1628  msg.sender */\n      caller\n        /* \"contracts/userProfile3.sol\":1601:1629  addressToProfile[msg.sender] */\n      0xffffffffffffffffffffffffffffffffffffffff\n      and\n      0xffffffffffffffffffffffffffffffffffffffff\n      and\n      dup2\n      mstore\n      0x20\n      add\n      swap1\n      dup2\n      mstore\n      0x20\n      add\n      0x00\n      keccak256\n        /* \"contracts/userProfile3.sol\":1601:1697  addressToProfile[msg.sender] = UserProfile({userName: \"\", registered: false, ipfsImageHash: \"\"}) */\n      0x00\n      dup3\n      add\n      mload\n      dup2\n      0x00\n      add\n      swap1\n      dup2\n      tag_44\n      swap2\n      swap1\n      tag_45\n      jump\t// in\n    tag_44:\n      pop\n      0x20\n      dup3\n      add\n      mload\n      dup2\n      0x01\n      add\n      exp(0x0100, 0x00)\n      dup2\n      sload\n      dup2\n      0xff\n      mul\n      not\n      and\n      swap1\n      dup4\n      iszero\n      iszero\n      mul\n      or\n      swap1\n      sstore\n      pop\n      0x40\n      dup3\n      add\n      mload\n      dup2\n      0x02\n      add\n      swap1\n      dup2\n      tag_46\n      swap2\n      swap1\n      tag_45\n      jump\t// in\n    tag_46:\n      pop\n      swap1\n      pop\n      pop\n        /* \"contracts/userProfile3.sol\":1732:1742  msg.sender */\n      caller\n        /* \"contracts/userProfile3.sol\":1715:1743  NameDeregistered(msg.sender) */\n      0xffffffffffffffffffffffffffffffffffffffff\n      and\n      0xd535c2e59a2f16f058b1b296bef26cc2579ffc7f69aaf7b53f536943cb6a7543\n      mload(0x40)\n      mload(0x40)\n      dup1\n      swap2\n      sub\n      swap1\n      log2\n        /* \"contracts/userProfile3.sol\":1467:1751  function deregisterName() public {... */\n      jump\t// out\n        /* \"contracts/userProfile3.sol\":384:439  mapping(address => UserProfile) public addressToProfile */\n    tag_16:\n      mstore(0x20, 0x00)\n      dup1\n      0x00\n      mstore\n      keccak256(0x00, 0x40)\n      0x00\n      swap2\n      pop\n      swap1\n      pop\n      dup1\n      0x00\n      add\n      dup1\n      sload\n      tag_47\n      swap1\n      tag_48\n      jump\t// in\n    tag_47:\n      dup1\n      0x1f\n      add\n      0x20\n      dup1\n      swap2\n      div\n      mul\n      0x20\n      add\n      mload(0x40)\n      swap1\n      dup2\n      add\n      0x40\n      mstore\n      dup1\n      swap3\n      swap2\n      swap1\n      dup2\n      dup2\n      mstore\n      0x20\n      add\n      dup3\n      dup1\n      sload\n      tag_49\n      swap1\n      tag_48\n      jump\t// in\n    tag_49:\n      dup1\n      iszero\n      tag_50\n      jumpi\n      dup1\n      0x1f\n      lt\n      tag_51\n      jumpi\n      0x0100\n      dup1\n      dup4\n      sload\n      div\n      mul\n      dup4\n      mstore\n      swap2\n      0x20\n      add\n      swap2\n      jump(tag_50)\n    tag_51:\n      dup3\n      add\n      swap2\n      swap1\n      0x00\n      mstore\n      keccak256(0x00, 0x20)\n      swap1\n    tag_52:\n      dup2\n      sload\n      dup2\n      mstore\n      swap1\n      0x01\n      add\n      swap1\n      0x20\n      add\n      dup1\n      dup4\n      gt\n      tag_52\n      jumpi\n      dup3\n      swap1\n      sub\n      0x1f\n      and\n      dup3\n      add\n      swap2\n    tag_50:\n      pop\n      pop\n      pop\n      pop\n      pop\n      swap1\n      dup1\n      0x01\n      add\n      0x00\n      swap1\n      sload\n      swap1\n      0x0100\n      exp\n      swap1\n      div\n      0xff\n      and\n      swap1\n      dup1\n      0x02\n      add\n      dup1\n      sload\n      tag_53\n      swap1\n      tag_48\n      jump\t// in\n    tag_53:\n      dup1\n      0x1f\n      add\n      0x20\n      dup1\n      swap2\n      div\n      mul\n      0x20\n      add\n      mload(0x40)\n      swap1\n      dup2\n      add\n      0x40\n      mstore\n      dup1\n      swap3\n      swap2\n      swap1\n      dup2\n      dup2\n      mstore\n      0x20\n      add\n      dup3\n      dup1\n      sload\n      tag_54\n      swap1\n      tag_48\n      jump\t// in\n    tag_54:\n      dup1\n      iszero\n      tag_55\n      jumpi\n      dup1\n      0x1f\n      lt\n      tag_56\n      jumpi\n      0x0100\n      dup1\n      dup4\n      sload\n      div\n      mul\n      dup4\n      mstore\n      swap2\n      0x20\n      add\n      swap2\n      jump(tag_55)\n    tag_56:\n      dup3\n      add\n      swap2\n      swap1\n      0x00\n      mstore\n      keccak256(0x00, 0x20)\n      swap1\n    tag_57:\n      dup2\n      sload\n      dup2\n      mstore\n      swap1\n      0x01\n      add\n      swap1\n      0x20\n      add\n      dup1\n      dup4\n      gt\n      tag_57\n      jumpi\n      dup3\n      swap1\n      sub\n      0x1f\n      and\n      dup3\n      add\n      swap2\n    tag_55:\n      pop\n      pop\n      pop\n      pop\n      pop\n      swap1\n      pop\n      dup4\n      jump\t// out\n        /* \"contracts/userProfile3.sol\":2990:3191  function getIpfsImageHash(address _userAddress) public view returns (string memory) {... */\n    tag_21:\n        /* \"contracts/userProfile3.sol\":3059:3072  string memory */\n      0x60\n        /* \"contracts/userProfile3.sol\":3085:3111  UserProfile memory profile */\n      0x00\n        /* \"contracts/userProfile3.sol\":3114:3130  addressToProfile */\n      dup1\n        /* \"contracts/userProfile3.sol\":3114:3144  addressToProfile[_userAddress] */\n      0x00\n        /* \"contracts/userProfile3.sol\":3131:3143  _userAddress */\n      dup5\n        /* \"contracts/userProfile3.sol\":3114:3144  addressToProfile[_userAddress] */\n      0xffffffffffffffffffffffffffffffffffffffff\n      and\n      0xffffffffffffffffffffffffffffffffffffffff\n      and\n      dup2\n      mstore\n      0x20\n      add\n      swap1\n      dup2\n      mstore\n      0x20\n      add\n      0x00\n      keccak256\n        /* \"contracts/userProfile3.sol\":3085:3144  UserProfile memory profile = addressToProfile[_userAddress] */\n      mload(0x40)\n      dup1\n      0x60\n      add\n      0x40\n      mstore\n      swap1\n      dup2\n      0x00\n      dup3\n      add\n      dup1\n      sload\n      tag_59\n      swap1\n      tag_48\n      jump\t// in\n    tag_59:\n      dup1\n      0x1f\n      add\n      0x20\n      dup1\n      swap2\n      div\n      mul\n      0x20\n      add\n      mload(0x40)\n      swap1\n      dup2\n      add\n      0x40\n      mstore\n      dup1\n      swap3\n      swap2\n      swap1\n      dup2\n      dup2\n      mstore\n      0x20\n      add\n      dup3\n      dup1\n      sload\n      tag_60\n      swap1\n      tag_48\n      jump\t// in\n    tag_60:\n      dup1\n      iszero\n      tag_61\n      jumpi\n      dup1\n      0x1f\n      lt\n      tag_62\n      jumpi\n      0x0100\n      dup1\n      dup4\n      sload\n      div\n      mul\n      dup4\n      mstore\n      swap2\n      0x20\n      add\n      swap2\n      jump(tag_61)\n    tag_62:\n      dup3\n      add\n      swap2\n      swap1\n      0x00\n      mstore\n      keccak256(0x00, 0x20)\n      swap1\n    tag_63:\n      dup2\n      sload\n      dup2\n      mstore\n      swap1\n      0x01\n      add\n      swap1\n      0x20\n      add\n      dup1\n      dup4\n      gt\n      tag_63\n      jumpi\n      dup3\n      swap1\n      sub\n      0x1f\n      and\n      dup3\n      add\n      swap2\n    tag_61:\n      pop\n      pop\n      pop\n      pop\n      pop\n      dup2\n      mstore\n      0x20\n      add\n      0x01\n      dup3\n      add\n      0x00\n      swap1\n      sload\n      swap1\n      0x0100\n      exp\n      swap1\n      div\n      0xff\n      and\n      iszero\n      iszero\n      iszero\n      iszero\n      dup2\n      mstore\n      0x20\n      add\n      0x02\n      dup3\n      add\n      dup1\n      sload\n      tag_64\n      swap1\n      tag_48\n      jump\t// in\n    tag_64:\n      dup1\n      0x1f\n      add\n      0x20\n      dup1\n      swap2\n      div\n      mul\n      0x20\n      add\n      mload(0x40)\n      swap1\n      dup2\n      add\n      0x40\n      mstore\n      dup1\n      swap3\n      swap2\n      swap1\n      dup2\n      dup2\n      mstore\n      0x20\n      add\n      dup3\n      dup1\n      sload\n      tag_65\n      swap1\n      tag_48\n      jump\t// in\n    tag_65:\n      dup1\n      iszero\n      tag_66\n      jumpi\n      dup1\n      0x1f\n      lt\n      tag_67\n      jumpi\n      0x0100\n      dup1\n      dup4\n      sload\n      div\n      mul\n      dup4\n      mstore\n      swap2\n      0x20\n      add\n      swap2\n      jump(tag_66)\n    tag_67:\n      dup3\n      add\n      swap2\n      swap1\n      0x00\n      mstore\n      keccak256(0x00, 0x20)\n      swap1\n    tag_68:\n      dup2\n      sload\n      dup2\n      mstore\n      swap1\n      0x01\n      add\n      swap1\n      0x20\n      add\n      dup1\n      dup4\n      gt\n      tag_68\n      jumpi\n      dup3\n      swap1\n      sub\n      0x1f\n      and\n      dup3\n      add\n      swap2\n    tag_66:\n      pop\n      pop\n      pop\n      pop\n      pop\n      dup2\n      mstore\n      pop\n      pop\n      swap1\n      pop\n        /* \"contracts/userProfile3.sol\":3162:3169  profile */\n      dup1\n        /* \"contracts/userProfile3.sol\":3162:3183  profile.ipfsImageHash */\n      0x40\n      add\n      mload\n        /* \"contracts/userProfile3.sol\":3155:3183  return profile.ipfsImageHash */\n      swap2\n      pop\n      pop\n        /* \"contracts/userProfile3.sol\":2990:3191  function getIpfsImageHash(address _userAddress) public view returns (string memory) {... */\n      swap2\n      swap1\n      pop\n      jump\t// out\n        /* \"contracts/userProfile3.sol\":1812:2542  function transferName(address _newAddress) public {... */\n    tag_26:\n        /* \"contracts/userProfile3.sol\":1873:1902  UserProfile memory oldProfile */\n      0x00\n        /* \"contracts/userProfile3.sol\":1905:1921  addressToProfile */\n      dup1\n        /* \"contracts/userProfile3.sol\":1905:1933  addressToProfile[msg.sender] */\n      0x00\n        /* \"contracts/userProfile3.sol\":1922:1932  msg.sender */\n      caller\n        /* \"contracts/userProfile3.sol\":1905:1933  addressToProfile[msg.sender] */\n      0xffffffffffffffffffffffffffffffffffffffff\n      and\n      0xffffffffffffffffffffffffffffffffffffffff\n      and\n      dup2\n      mstore\n      0x20\n      add\n      swap1\n      dup2\n      mstore\n      0x20\n      add\n      0x00\n      keccak256\n        /* \"contracts/userProfile3.sol\":1873:1933  UserProfile memory oldProfile = addressToProfile[msg.sender] */\n      mload(0x40)\n      dup1\n      0x60\n      add\n      0x40\n      mstore\n      swap1\n      dup2\n      0x00\n      dup3\n      add\n      dup1\n      sload\n      tag_70\n      swap1\n      tag_48\n      jump\t// in\n    tag_70:\n      dup1\n      0x1f\n      add\n      0x20\n      dup1\n      swap2\n      div\n      mul\n      0x20\n      add\n      mload(0x40)\n      swap1\n      dup2\n      add\n      0x40\n      mstore\n      dup1\n      swap3\n      swap2\n      swap1\n      dup2\n      dup2\n      mstore\n      0x20\n      add\n      dup3\n      dup1\n      sload\n      tag_71\n      swap1\n      tag_48\n      jump\t// in\n    tag_71:\n      dup1\n      iszero\n      tag_72\n      jumpi\n      dup1\n      0x1f\n      lt\n      tag_73\n      jumpi\n      0x0100\n      dup1\n      dup4\n      sload\n      div\n      mul\n      dup4\n      mstore\n      swap2\n      0x20\n      add\n      swap2\n      jump(tag_72)\n    tag_73:\n      dup3\n      add\n      swap2\n      swap1\n      0x00\n      mstore\n      keccak256(0x00, 0x20)\n      swap1\n    tag_74:\n      dup2\n      sload\n      dup2\n      mstore\n      swap1\n      0x01\n      add\n      swap1\n      0x20\n      add\n      dup1\n      dup4\n      gt\n      tag_74\n      jumpi\n      dup3\n      swap1\n      sub\n      0x1f\n      and\n      dup3\n      add\n      swap2\n    tag_72:\n      pop\n      pop\n      pop\n      pop\n      pop\n      dup2\n      mstore\n      0x20\n      add\n      0x01\n      dup3\n      add\n      0x00\n      swap1\n      sload\n      swap1\n      0x0100\n      exp\n      swap1\n      div\n      0xff\n      and\n      iszero\n      iszero\n      iszero\n      iszero\n      dup2\n      mstore\n      0x20\n      add\n      0x02\n      dup3\n      add\n      dup1\n      sload\n      tag_75\n      swap1\n      tag_48\n      jump\t// in\n    tag_75:\n      dup1\n      0x1f\n      add\n      0x20\n      dup1\n      swap2\n      div\n      mul\n      0x20\n      add\n      mload(0x40)\n      swap1\n      dup2\n      add\n      0x40\n      mstore\n      dup1\n      swap3\n      swap2\n      swap1\n      dup2\n      dup2\n      mstore\n      0x20\n      add\n      dup3\n      dup1\n      sload\n      tag_76\n      swap1\n      tag_48\n      jump\t// in\n    tag_76:\n      dup1\n      iszero\n      tag_77\n      jumpi\n      dup1\n      0x1f\n      lt\n      tag_78\n      jumpi\n      0x0100\n      dup1\n      dup4\n      sload\n      div\n      mul\n      dup4\n      mstore\n      swap2\n      0x20\n      add\n      swap2\n      jump(tag_77)\n    tag_78:\n      dup3\n      add\n      swap2\n      swap1\n      0x00\n      mstore\n      keccak256(0x00, 0x20)\n      swap1\n    tag_79:\n      dup2\n      sload\n      dup2\n      mstore\n      swap1\n      0x01\n      add\n      swap1\n      0x20\n      add\n      dup1\n      dup4\n      gt\n      tag_79\n      jumpi\n      dup3\n      swap1\n      sub\n      0x1f\n      and\n      dup3\n      add\n      swap2\n    tag_77:\n      pop\n      pop\n      pop\n      pop\n      pop\n      dup2\n      mstore\n      pop\n      pop\n      swap1\n      pop\n        /* \"contracts/userProfile3.sol\":1954:1964  oldProfile */\n      dup1\n        /* \"contracts/userProfile3.sol\":1954:1975  oldProfile.registered */\n      0x20\n      add\n      mload\n        /* \"contracts/userProfile3.sol\":1946:2005  require(oldProfile.registered, \"Address is not registered\") */\n      tag_80\n      jumpi\n      mload(0x40)\n      0x08c379a000000000000000000000000000000000000000000000000000000000\n      dup2\n      mstore\n      0x04\n      add\n      tag_81\n      swap1\n      tag_43\n      jump\t// in\n    tag_81:\n      mload(0x40)\n      dup1\n      swap2\n      sub\n      swap1\n      revert\n    tag_80:\n        /* \"contracts/userProfile3.sol\":2025:2041  addressToProfile */\n      0x00\n        /* \"contracts/userProfile3.sol\":2025:2054  addressToProfile[_newAddress] */\n      dup1\n        /* \"contracts/userProfile3.sol\":2042:2053  _newAddress */\n      dup4\n        /* \"contracts/userProfile3.sol\":2025:2054  addressToProfile[_newAddress] */\n      0xffffffffffffffffffffffffffffffffffffffff\n      and\n      0xffffffffffffffffffffffffffffffffffffffff\n      and\n      dup2\n      mstore\n      0x20\n      add\n      swap1\n      dup2\n      mstore\n      0x20\n      add\n      0x00\n      keccak256\n        /* \"contracts/userProfile3.sol\":2025:2065  addressToProfile[_newAddress].registered */\n      0x01\n      add\n      0x00\n      swap1\n      sload\n      swap1\n      0x0100\n      exp\n      swap1\n      div\n      0xff\n      and\n        /* \"contracts/userProfile3.sol\":2024:2065  !addressToProfile[_newAddress].registered */\n      iszero\n        /* \"contracts/userProfile3.sol\":2016:2103  require(!addressToProfile[_newAddress].registered, \"New address is already registered\") */\n      tag_82\n      jumpi\n      mload(0x40)\n      0x08c379a000000000000000000000000000000000000000000000000000000000\n      dup2\n      mstore\n      0x04\n      add\n      tag_83\n      swap1\n      tag_84\n      jump\t// in\n    tag_83:\n      mload(0x40)\n      dup1\n      swap2\n      sub\n      swap1\n      revert\n    tag_82:\n        /* \"contracts/userProfile3.sol\":2148:2338  UserProfile({... */\n      mload(0x40)\n      dup1\n      0x60\n      add\n      0x40\n      mstore\n      dup1\n        /* \"contracts/userProfile3.sol\":2185:2195  oldProfile */\n      dup3\n        /* \"contracts/userProfile3.sol\":2185:2204  oldProfile.userName */\n      0x00\n      add\n      mload\n        /* \"contracts/userProfile3.sol\":2148:2338  UserProfile({... */\n      dup2\n      mstore\n      0x20\n      add\n        /* \"contracts/userProfile3.sol\":2232:2236  true */\n      0x01\n        /* \"contracts/userProfile3.sol\":2148:2338  UserProfile({... */\n      iszero\n      iszero\n      dup2\n      mstore\n      0x20\n      add\n        /* \"contracts/userProfile3.sol\":2266:2276  oldProfile */\n      dup3\n        /* \"contracts/userProfile3.sol\":2266:2290  oldProfile.ipfsImageHash */\n      0x40\n      add\n      mload\n        /* \"contracts/userProfile3.sol\":2148:2338  UserProfile({... */\n      dup2\n      mstore\n      pop\n        /* \"contracts/userProfile3.sol\":2116:2132  addressToProfile */\n      0x00\n        /* \"contracts/userProfile3.sol\":2116:2145  addressToProfile[_newAddress] */\n      dup1\n        /* \"contracts/userProfile3.sol\":2133:2144  _newAddress */\n      dup5\n        /* \"contracts/userProfile3.sol\":2116:2145  addressToProfile[_newAddress] */\n      0xffffffffffffffffffffffffffffffffffffffff\n      and\n      0xffffffffffffffffffffffffffffffffffffffff\n      and\n      dup2\n      mstore\n      0x20\n      add\n      swap1\n      dup2\n      mstore\n      0x20\n      add\n      0x00\n      keccak256\n        /* \"contracts/userProfile3.sol\":2116:2338  addressToProfile[_newAddress] = UserProfile({... */\n      0x00\n      dup3\n      add\n      mload\n      dup2\n      0x00\n      add\n      swap1\n      dup2\n      tag_85\n      swap2\n      swap1\n      tag_45\n      jump\t// in\n    tag_85:\n      pop\n      0x20\n      dup3\n      add\n      mload\n      dup2\n      0x01\n      add\n      exp(0x0100, 0x00)\n      dup2\n      sload\n      dup2\n      0xff\n      mul\n      not\n      and\n      swap1\n      dup4\n      iszero\n      iszero\n      mul\n      or\n      swap1\n      sstore\n      pop\n      0x40\n      dup3\n      add\n      mload\n      dup2\n      0x02\n      add\n      swap1\n      dup2\n      tag_86\n      swap2\n      swap1\n      tag_45\n      jump\t// in\n    tag_86:\n      pop\n      swap1\n      pop\n      pop\n        /* \"contracts/userProfile3.sol\":2390:2455  UserProfile({userName: \"\", registered: false, ipfsImageHash: \"\"}) */\n      mload(0x40)\n      dup1\n      0x60\n      add\n      0x40\n      mstore\n      dup1\n      mload(0x40)\n      dup1\n      0x20\n      add\n      0x40\n      mstore\n      dup1\n      0x00\n      dup2\n      mstore\n      pop\n      dup2\n      mstore\n      0x20\n      add\n        /* \"contracts/userProfile3.sol\":2429:2434  false */\n      0x00\n        /* \"contracts/userProfile3.sol\":2390:2455  UserProfile({userName: \"\", registered: false, ipfsImageHash: \"\"}) */\n      iszero\n      iszero\n      dup2\n      mstore\n      0x20\n      add\n      mload(0x40)\n      dup1\n      0x20\n      add\n      0x40\n      mstore\n      dup1\n      0x00\n      dup2\n      mstore\n      pop\n      dup2\n      mstore\n      pop\n        /* \"contracts/userProfile3.sol\":2359:2375  addressToProfile */\n      0x00\n        /* \"contracts/userProfile3.sol\":2359:2387  addressToProfile[msg.sender] */\n      dup1\n        /* \"contracts/userProfile3.sol\":2376:2386  msg.sender */\n      caller\n        /* \"contracts/userProfile3.sol\":2359:2387  addressToProfile[msg.sender] */\n      0xffffffffffffffffffffffffffffffffffffffff\n      and\n      0xffffffffffffffffffffffffffffffffffffffff\n      and\n      dup2\n      mstore\n      0x20\n      add\n      swap1\n      dup2\n      mstore\n      0x20\n      add\n      0x00\n      keccak256\n        /* \"contracts/userProfile3.sol\":2359:2455  addressToProfile[msg.sender] = UserProfile({userName: \"\", registered: false, ipfsImageHash: \"\"}) */\n      0x00\n      dup3\n      add\n      mload\n      dup2\n      0x00\n      add\n      swap1\n      dup2\n      tag_87\n      swap2\n      swap1\n      tag_45\n      jump\t// in\n    tag_87:\n      pop\n      0x20\n      dup3\n      add\n      mload\n      dup2\n      0x01\n      add\n      exp(0x0100, 0x00)\n      dup2\n      sload\n      dup2\n      0xff\n      mul\n      not\n      and\n      swap1\n      dup4\n      iszero\n      iszero\n      mul\n      or\n      swap1\n      sstore\n      pop\n      0x40\n      dup3\n      add\n      mload\n      dup2\n      0x02\n      add\n      swap1\n      dup2\n      tag_88\n      swap2\n      swap1\n      tag_45\n      jump\t// in\n    tag_88:\n      pop\n      swap1\n      pop\n      pop\n        /* \"contracts/userProfile3.sol\":2501:2512  _newAddress */\n      dup2\n        /* \"contracts/userProfile3.sol\":2473:2534  NameTransferred(msg.sender, _newAddress, oldProfile.userName) */\n      0xffffffffffffffffffffffffffffffffffffffff\n      and\n        /* \"contracts/userProfile3.sol\":2489:2499  msg.sender */\n      caller\n        /* \"contracts/userProfile3.sol\":2473:2534  NameTransferred(msg.sender, _newAddress, oldProfile.userName) */\n      0xffffffffffffffffffffffffffffffffffffffff\n      and\n      0x61ce72876df632c9cea54f37e843a14873bc9a7abd2f79797a8a00e467081f3c\n        /* \"contracts/userProfile3.sol\":2514:2524  oldProfile */\n      dup4\n        /* \"contracts/userProfile3.sol\":2514:2533  oldProfile.userName */\n      0x00\n      add\n      mload\n        /* \"contracts/userProfile3.sol\":2473:2534  NameTransferred(msg.sender, _newAddress, oldProfile.userName) */\n      mload(0x40)\n      tag_89\n      swap2\n      swap1\n      tag_23\n      jump\t// in\n    tag_89:\n      mload(0x40)\n      dup1\n      swap2\n      sub\n      swap1\n      log3\n        /* \"contracts/userProfile3.sol\":1862:2542  {... */\n      pop\n        /* \"contracts/userProfile3.sol\":1812:2542  function transferName(address _newAddress) public {... */\n      pop\n      jump\t// out\n        /* \"contracts/userProfile3.sol\":2622:2910  function getName(address _userAddress) public view returns (string memory) {... */\n    tag_29:\n        /* \"contracts/userProfile3.sol\":2682:2695  string memory */\n      0x60\n        /* \"contracts/userProfile3.sol\":2708:2734  UserProfile memory profile */\n      0x00\n        /* \"contracts/userProfile3.sol\":2737:2753  addressToProfile */\n      dup1\n        /* \"contracts/userProfile3.sol\":2737:2767  addressToProfile[_userAddress] */\n      0x00\n        /* \"contracts/userProfile3.sol\":2754:2766  _userAddress */\n      dup5\n        /* \"contracts/userProfile3.sol\":2737:2767  addressToProfile[_userAddress] */\n      0xffffffffffffffffffffffffffffffffffffffff\n      and\n      0xffffffffffffffffffffffffffffffffffffffff\n      and\n      dup2\n      mstore\n      0x20\n      add\n      swap1\n      dup2\n      mstore\n      0x20\n      add\n      0x00\n      keccak256\n        /* \"contracts/userProfile3.sol\":2708:2767  UserProfile memory profile = addressToProfile[_userAddress] */\n      mload(0x40)\n      dup1\n      0x60\n      add\n      0x40\n      mstore\n      swap1\n      dup2\n      0x00\n      dup3\n      add\n      dup1\n      sload\n      tag_91\n      swap1\n      tag_48\n      jump\t// in\n    tag_91:\n      dup1\n      0x1f\n      add\n      0x20\n      dup1\n      swap2\n      div\n      mul\n      0x20\n      add\n      mload(0x40)\n      swap1\n      dup2\n      add\n      0x40\n      mstore\n      dup1\n      swap3\n      swap2\n      swap1\n      dup2\n      dup2\n      mstore\n      0x20\n      add\n      dup3\n      dup1\n      sload\n      tag_92\n      swap1\n      tag_48\n      jump\t// in\n    tag_92:\n      dup1\n      iszero\n      tag_93\n      jumpi\n      dup1\n      0x1f\n      lt\n      tag_94\n      jumpi\n      0x0100\n      dup1\n      dup4\n      sload\n      div\n      mul\n      dup4\n      mstore\n      swap2\n      0x20\n      add\n      swap2\n      jump(tag_93)\n    tag_94:\n      dup3\n      add\n      swap2\n      swap1\n      0x00\n      mstore\n      keccak256(0x00, 0x20)\n      swap1\n    tag_95:\n      dup2\n      sload\n      dup2\n      mstore\n      swap1\n      0x01\n      add\n      swap1\n      0x20\n      add\n      dup1\n      dup4\n      gt\n      tag_95\n      jumpi\n      dup3\n      swap1\n      sub\n      0x1f\n      and\n      dup3\n      add\n      swap2\n    tag_93:\n      pop\n      pop\n      pop\n      pop\n      pop\n      dup2\n      mstore\n      0x20\n      add\n      0x01\n      dup3\n      add\n      0x00\n      swap1\n      sload\n      swap1\n      0x0100\n      exp\n      swap1\n      div\n      0xff\n      and\n      iszero\n      iszero\n      iszero\n      iszero\n      dup2\n      mstore\n      0x20\n      add\n      0x02\n      dup3\n      add\n      dup1\n      sload\n      tag_96\n      swap1\n      tag_48\n      jump\t// in\n    tag_96:\n      dup1\n      0x1f\n      add\n      0x20\n      dup1\n      swap2\n      div\n      mul\n      0x20\n      add\n      mload(0x40)\n      swap1\n      dup2\n      add\n      0x40\n      mstore\n      dup1\n      swap3\n      swap2\n      swap1\n      dup2\n      dup2\n      mstore\n      0x20\n      add\n      dup3\n      dup1\n      sload\n      tag_97\n      swap1\n      tag_48\n      jump\t// in\n    tag_97:\n      dup1\n      iszero\n      tag_98\n      jumpi\n      dup1\n      0x1f\n      lt\n      tag_99\n      jumpi\n      0x0100\n      dup1\n      dup4\n      sload\n      div\n      mul\n      dup4\n      mstore\n      swap2\n      0x20\n      add\n      swap2\n      jump(tag_98)\n    tag_99:\n      dup3\n      add\n      swap2\n      swap1\n      0x00\n      mstore\n      keccak256(0x00, 0x20)\n      swap1\n    tag_100:\n      dup2\n      sload\n      dup2\n      mstore\n      swap1\n      0x01\n      add\n      swap1\n      0x20\n      add\n      dup1\n      dup4\n      gt\n      tag_100\n      jumpi\n      dup3\n      swap1\n      sub\n      0x1f\n      and\n      dup3\n      add\n      swap2\n    tag_98:\n      pop\n      pop\n      pop\n      pop\n      pop\n      dup2\n      mstore\n      pop\n      pop\n      swap1\n      pop\n        /* \"contracts/userProfile3.sol\":2782:2789  profile */\n      dup1\n        /* \"contracts/userProfile3.sol\":2782:2800  profile.registered */\n      0x20\n      add\n      mload\n        /* \"contracts/userProfile3.sol\":2778:2903  if (profile.registered) {... */\n      iszero\n      tag_101\n      jumpi\n        /* \"contracts/userProfile3.sol\":2824:2831  profile */\n      dup1\n        /* \"contracts/userProfile3.sol\":2824:2840  profile.userName */\n      0x00\n      add\n      mload\n        /* \"contracts/userProfile3.sol\":2817:2840  return profile.userName */\n      swap2\n      pop\n      pop\n      jump(tag_90)\n        /* \"contracts/userProfile3.sol\":2778:2903  if (profile.registered) {... */\n    tag_101:\n        /* \"contracts/userProfile3.sol\":2873:2891  return \"not found\" */\n      mload(0x40)\n      dup1\n      0x40\n      add\n      0x40\n      mstore\n      dup1\n      0x09\n      dup2\n      mstore\n      0x20\n      add\n      0x6e6f7420666f756e640000000000000000000000000000000000000000000000\n      dup2\n      mstore\n      pop\n      swap2\n      pop\n      pop\n        /* \"contracts/userProfile3.sol\":2622:2910  function getName(address _userAddress) public view returns (string memory) {... */\n    tag_90:\n      swap2\n      swap1\n      pop\n      jump\t// out\n        /* \"contracts/userProfile3.sol\":3282:3627  function getNameAndIpfsHash(address _userAddress) public view returns (string memory, string memory) {... */\n    tag_33:\n        /* \"contracts/userProfile3.sol\":3353:3366  string memory */\n      0x60\n        /* \"contracts/userProfile3.sol\":3368:3381  string memory */\n      dup1\n        /* \"contracts/userProfile3.sol\":3394:3420  UserProfile memory profile */\n      0x00\n        /* \"contracts/userProfile3.sol\":3423:3439  addressToProfile */\n      dup1\n        /* \"contracts/userProfile3.sol\":3423:3453  addressToProfile[_userAddress] */\n      0x00\n        /* \"contracts/userProfile3.sol\":3440:3452  _userAddress */\n      dup6\n        /* \"contracts/userProfile3.sol\":3423:3453  addressToProfile[_userAddress] */\n      0xffffffffffffffffffffffffffffffffffffffff\n      and\n      0xffffffffffffffffffffffffffffffffffffffff\n      and\n      dup2\n      mstore\n      0x20\n      add\n      swap1\n      dup2\n      mstore\n      0x20\n      add\n      0x00\n      keccak256\n        /* \"contracts/userProfile3.sol\":3394:3453  UserProfile memory profile = addressToProfile[_userAddress] */\n      mload(0x40)\n      dup1\n      0x60\n      add\n      0x40\n      mstore\n      swap1\n      dup2\n      0x00\n      dup3\n      add\n      dup1\n      sload\n      tag_104\n      swap1\n      tag_48\n      jump\t// in\n    tag_104:\n      dup1\n      0x1f\n      add\n      0x20\n      dup1\n      swap2\n      div\n      mul\n      0x20\n      add\n      mload(0x40)\n      swap1\n      dup2\n      add\n      0x40\n      mstore\n      dup1\n      swap3\n      swap2\n      swap1\n      dup2\n      dup2\n      mstore\n      0x20\n      add\n      dup3\n      dup1\n      sload\n      tag_105\n      swap1\n      tag_48\n      jump\t// in\n    tag_105:\n      dup1\n      iszero\n      tag_106\n      jumpi\n      dup1\n      0x1f\n      lt\n      tag_107\n      jumpi\n      0x0100\n      dup1\n      dup4\n      sload\n      div\n      mul\n      dup4\n      mstore\n      swap2\n      0x20\n      add\n      swap2\n      jump(tag_106)\n    tag_107:\n      dup3\n      add\n      swap2\n      swap1\n      0x00\n      mstore\n      keccak256(0x00, 0x20)\n      swap1\n    tag_108:\n      dup2\n      sload\n      dup2\n      mstore\n      swap1\n      0x01\n      add\n      swap1\n      0x20\n      add\n      dup1\n      dup4\n      gt\n      tag_108\n      jumpi\n      dup3\n      swap1\n      sub\n      0x1f\n      and\n      dup3\n      add\n      swap2\n    tag_106:\n      pop\n      pop\n      pop\n      pop\n      pop\n      dup2\n      mstore\n      0x20\n      add\n      0x01\n      dup3\n      add\n      0x00\n      swap1\n      sload\n      swap1\n      0x0100\n      exp\n      swap1\n      div\n      0xff\n      and\n      iszero\n      iszero\n      iszero\n      iszero\n      dup2\n      mstore\n      0x20\n      add\n      0x02\n      dup3\n      add\n      dup1\n      sload\n      tag_109\n      swap1\n      tag_48\n      jump\t// in\n    tag_109:\n      dup1\n      0x1f\n      add\n      0x20\n      dup1\n      swap2\n      div\n      mul\n      0x20\n      add\n      mload(0x40)\n      swap1\n      dup2\n      add\n      0x40\n      mstore\n      dup1\n      swap3\n      swap2\n      swap1\n      dup2\n      dup2\n      mstore\n      0x20\n      add\n      dup3\n      dup1\n      sload\n      tag_110\n      swap1\n      tag_48\n      jump\t// in\n    tag_110:\n      dup1\n      iszero\n      tag_111\n      jumpi\n      dup1\n      0x1f\n      lt\n      tag_112\n      jumpi\n      0x0100\n      dup1\n      dup4\n      sload\n      div\n      mul\n      dup4\n      mstore\n      swap2\n      0x20\n      add\n      swap2\n      jump(tag_111)\n    tag_112:\n      dup3\n      add\n      swap2\n      swap1\n      0x00\n      mstore\n      keccak256(0x00, 0x20)\n      swap1\n    tag_113:\n      dup2\n      sload\n      dup2\n      mstore\n      swap1\n      0x01\n      add\n      swap1\n      0x20\n      add\n      dup1\n      dup4\n      gt\n      tag_113\n      jumpi\n      dup3\n      swap1\n      sub\n      0x1f\n      and\n      dup3\n      add\n      swap2\n    tag_111:\n      pop\n      pop\n      pop\n      pop\n      pop\n      dup2\n      mstore\n      pop\n      pop\n      swap1\n      pop\n        /* \"contracts/userProfile3.sol\":3468:3475  profile */\n      dup1\n        /* \"contracts/userProfile3.sol\":3468:3486  profile.registered */\n      0x20\n      add\n      mload\n        /* \"contracts/userProfile3.sol\":3464:3620  if (profile.registered) {... */\n      iszero\n      tag_114\n      jumpi\n        /* \"contracts/userProfile3.sol\":3511:3518  profile */\n      dup1\n        /* \"contracts/userProfile3.sol\":3511:3527  profile.userName */\n      0x00\n      add\n      mload\n        /* \"contracts/userProfile3.sol\":3529:3536  profile */\n      dup2\n        /* \"contracts/userProfile3.sol\":3529:3550  profile.ipfsImageHash */\n      0x40\n      add\n      mload\n        /* \"contracts/userProfile3.sol\":3503:3551  return (profile.userName, profile.ipfsImageHash) */\n      swap3\n      pop\n      swap3\n      pop\n      pop\n      jump(tag_103)\n        /* \"contracts/userProfile3.sol\":3464:3620  if (profile.registered) {... */\n    tag_114:\n        /* \"contracts/userProfile3.sol\":3584:3608  return (\"not found\", \"\") */\n      mload(0x40)\n      dup1\n      0x40\n      add\n      0x40\n      mstore\n      dup1\n      0x09\n      dup2\n      mstore\n      0x20\n      add\n      0x6e6f7420666f756e640000000000000000000000000000000000000000000000\n      dup2\n      mstore\n      pop\n      mload(0x40)\n      dup1\n      0x20\n      add\n      0x40\n      mstore\n      dup1\n      0x00\n      dup2\n      mstore\n      pop\n      swap3\n      pop\n      swap3\n      pop\n      pop\n        /* \"contracts/userProfile3.sol\":3282:3627  function getNameAndIpfsHash(address _userAddress) public view returns (string memory, string memory) {... */\n    tag_103:\n      swap2\n      pop\n      swap2\n      jump\t// out\n        /* \"contracts/userProfile3.sol\":880:1421  function registerName(string memory _userName, string memory _ipfsImageHash) public {... */\n    tag_39:\n        /* \"contracts/userProfile3.sol\":1009:1010  0 */\n      0x00\n        /* \"contracts/userProfile3.sol\":989:998  _userName */\n      dup3\n        /* \"contracts/userProfile3.sol\":983:1006  bytes(_userName).length */\n      mload\n        /* \"contracts/userProfile3.sol\":983:1010  bytes(_userName).length > 0 */\n      gt\n        /* \"contracts/userProfile3.sol\":975:1039  require(bytes(_userName).length > 0, \"Name should not be empty\") */\n      tag_117\n      jumpi\n      mload(0x40)\n      0x08c379a000000000000000000000000000000000000000000000000000000000\n      dup2\n      mstore\n      0x04\n      add\n      tag_118\n      swap1\n      tag_119\n      jump\t// in\n    tag_118:\n      mload(0x40)\n      dup1\n      swap2\n      sub\n      swap1\n      revert\n    tag_117:\n        /* \"contracts/userProfile3.sol\":1059:1075  addressToProfile */\n      0x00\n        /* \"contracts/userProfile3.sol\":1059:1087  addressToProfile[msg.sender] */\n      dup1\n        /* \"contracts/userProfile3.sol\":1076:1086  msg.sender */\n      caller\n        /* \"contracts/userProfile3.sol\":1059:1087  addressToProfile[msg.sender] */\n      0xffffffffffffffffffffffffffffffffffffffff\n      and\n      0xffffffffffffffffffffffffffffffffffffffff\n      and\n      dup2\n      mstore\n      0x20\n      add\n      swap1\n      dup2\n      mstore\n      0x20\n      add\n      0x00\n      keccak256\n        /* \"contracts/userProfile3.sol\":1059:1098  addressToProfile[msg.sender].registered */\n      0x01\n      add\n      0x00\n      swap1\n      sload\n      swap1\n      0x0100\n      exp\n      swap1\n      div\n      0xff\n      and\n        /* \"contracts/userProfile3.sol\":1058:1098  !addressToProfile[msg.sender].registered */\n      iszero\n        /* \"contracts/userProfile3.sol\":1050:1132  require(!addressToProfile[msg.sender].registered, \"Address is already registered\") */\n      tag_120\n      jumpi\n      mload(0x40)\n      0x08c379a000000000000000000000000000000000000000000000000000000000\n      dup2\n      mstore\n      0x04\n      add\n      tag_121\n      swap1\n      tag_122\n      jump\t// in\n    tag_121:\n      mload(0x40)\n      dup1\n      swap2\n      sub\n      swap1\n      revert\n    tag_120:\n        /* \"contracts/userProfile3.sol\":1176:1342  UserProfile({... */\n      mload(0x40)\n      dup1\n      0x60\n      add\n      0x40\n      mstore\n      dup1\n        /* \"contracts/userProfile3.sol\":1213:1222  _userName */\n      dup4\n        /* \"contracts/userProfile3.sol\":1176:1342  UserProfile({... */\n      dup2\n      mstore\n      0x20\n      add\n        /* \"contracts/userProfile3.sol\":1249:1253  true */\n      0x01\n        /* \"contracts/userProfile3.sol\":1176:1342  UserProfile({... */\n      iszero\n      iszero\n      dup2\n      mstore\n      0x20\n      add\n        /* \"contracts/userProfile3.sol\":1283:1297  _ipfsImageHash */\n      dup3\n        /* \"contracts/userProfile3.sol\":1176:1342  UserProfile({... */\n      dup2\n      mstore\n      pop\n        /* \"contracts/userProfile3.sol\":1145:1161  addressToProfile */\n      0x00\n        /* \"contracts/userProfile3.sol\":1145:1173  addressToProfile[msg.sender] */\n      dup1\n        /* \"contracts/userProfile3.sol\":1162:1172  msg.sender */\n      caller\n        /* \"contracts/userProfile3.sol\":1145:1173  addressToProfile[msg.sender] */\n      0xffffffffffffffffffffffffffffffffffffffff\n      and\n      0xffffffffffffffffffffffffffffffffffffffff\n      and\n      dup2\n      mstore\n      0x20\n      add\n      swap1\n      dup2\n      mstore\n      0x20\n      add\n      0x00\n      keccak256\n        /* \"contracts/userProfile3.sol\":1145:1342  addressToProfile[msg.sender] = UserProfile({... */\n      0x00\n      dup3\n      add\n      mload\n      dup2\n      0x00\n      add\n      swap1\n      dup2\n      tag_123\n      swap2\n      swap1\n      tag_45\n      jump\t// in\n    tag_123:\n      pop\n      0x20\n      dup3\n      add\n      mload\n      dup2\n      0x01\n      add\n      exp(0x0100, 0x00)\n      dup2\n      sload\n      dup2\n      0xff\n      mul\n      not\n      and\n      swap1\n      dup4\n      iszero\n      iszero\n      mul\n      or\n      swap1\n      sstore\n      pop\n      0x40\n      dup3\n      add\n      mload\n      dup2\n      0x02\n      add\n      swap1\n      dup2\n      tag_124\n      swap2\n      swap1\n      tag_45\n      jump\t// in\n    tag_124:\n      pop\n      swap1\n      pop\n      pop\n        /* \"contracts/userProfile3.sol\":1375:1385  msg.sender */\n      caller\n        /* \"contracts/userProfile3.sol\":1360:1413  NameRegistered(msg.sender, _userName, _ipfsImageHash) */\n      0xffffffffffffffffffffffffffffffffffffffff\n      and\n      0x7373af3f7def70b6f0bbf022c5eb5e8a393e1f6bb048f8ccdf3313d2a50905d8\n        /* \"contracts/userProfile3.sol\":1387:1396  _userName */\n      dup4\n        /* \"contracts/userProfile3.sol\":1398:1412  _ipfsImageHash */\n      dup4\n        /* \"contracts/userProfile3.sol\":1360:1413  NameRegistered(msg.sender, _userName, _ipfsImageHash) */\n      mload(0x40)\n      tag_125\n      swap3\n      swap2\n      swap1\n      tag_35\n      jump\t// in\n    tag_125:\n      mload(0x40)\n      dup1\n      swap2\n      sub\n      swap1\n      log2\n        /* \"contracts/userProfile3.sol\":880:1421  function registerName(string memory _userName, string memory _ipfsImageHash) public {... */\n      pop\n      pop\n      jump\t// out\n        /* \"#utility.yul\":7:82   */\n    tag_126:\n        /* \"#utility.yul\":40:46   */\n      0x00\n        /* \"#utility.yul\":73:75   */\n      0x40\n        /* \"#utility.yul\":67:76   */\n      mload\n        /* \"#utility.yul\":57:76   */\n      swap1\n      pop\n        /* \"#utility.yul\":7:82   */\n      swap1\n      jump\t// out\n        /* \"#utility.yul\":88:205   */\n    tag_127:\n        /* \"#utility.yul\":197:198   */\n      0x00\n        /* \"#utility.yul\":194:195   */\n      dup1\n        /* \"#utility.yul\":187:199   */\n      revert\n        /* \"#utility.yul\":211:328   */\n    tag_128:\n        /* \"#utility.yul\":320:321   */\n      0x00\n        /* \"#utility.yul\":317:318   */\n      dup1\n        /* \"#utility.yul\":310:322   */\n      revert\n        /* \"#utility.yul\":334:460   */\n    tag_129:\n        /* \"#utility.yul\":371:378   */\n      0x00\n        /* \"#utility.yul\":411:453   */\n      0xffffffffffffffffffffffffffffffffffffffff\n        /* \"#utility.yul\":404:409   */\n      dup3\n        /* \"#utility.yul\":400:454   */\n      and\n        /* \"#utility.yul\":389:454   */\n      swap1\n      pop\n        /* \"#utility.yul\":334:460   */\n      swap2\n      swap1\n      pop\n      jump\t// out\n        /* \"#utility.yul\":466:562   */\n    tag_130:\n        /* \"#utility.yul\":503:510   */\n      0x00\n        /* \"#utility.yul\":532:556   */\n      tag_180\n        /* \"#utility.yul\":550:555   */\n      dup3\n        /* \"#utility.yul\":532:556   */\n      tag_129\n      jump\t// in\n    tag_180:\n        /* \"#utility.yul\":521:556   */\n      swap1\n      pop\n        /* \"#utility.yul\":466:562   */\n      swap2\n      swap1\n      pop\n      jump\t// out\n        /* \"#utility.yul\":568:690   */\n    tag_131:\n        /* \"#utility.yul\":641:665   */\n      tag_182\n        /* \"#utility.yul\":659:664   */\n      dup2\n        /* \"#utility.yul\":641:665   */\n      tag_130\n      jump\t// in\n    tag_182:\n        /* \"#utility.yul\":634:639   */\n      dup2\n        /* \"#utility.yul\":631:666   */\n      eq\n        /* \"#utility.yul\":621:684   */\n      tag_183\n      jumpi\n        /* \"#utility.yul\":680:681   */\n      0x00\n        /* \"#utility.yul\":677:678   */\n      dup1\n        /* \"#utility.yul\":670:682   */\n      revert\n        /* \"#utility.yul\":621:684   */\n    tag_183:\n        /* \"#utility.yul\":568:690   */\n      pop\n      jump\t// out\n        /* \"#utility.yul\":696:835   */\n    tag_132:\n        /* \"#utility.yul\":742:747   */\n      0x00\n        /* \"#utility.yul\":780:786   */\n      dup2\n        /* \"#utility.yul\":767:787   */\n      calldataload\n        /* \"#utility.yul\":758:787   */\n      swap1\n      pop\n        /* \"#utility.yul\":796:829   */\n      tag_185\n        /* \"#utility.yul\":823:828   */\n      dup2\n        /* \"#utility.yul\":796:829   */\n      tag_131\n      jump\t// in\n    tag_185:\n        /* \"#utility.yul\":696:835   */\n      swap3\n      swap2\n      pop\n      pop\n      jump\t// out\n        /* \"#utility.yul\":841:1170   */\n    tag_15:\n        /* \"#utility.yul\":900:906   */\n      0x00\n        /* \"#utility.yul\":949:951   */\n      0x20\n        /* \"#utility.yul\":937:946   */\n      dup3\n        /* \"#utility.yul\":928:935   */\n      dup5\n        /* \"#utility.yul\":924:947   */\n      sub\n        /* \"#utility.yul\":920:952   */\n      slt\n        /* \"#utility.yul\":917:1036   */\n      iszero\n      tag_187\n      jumpi\n        /* \"#utility.yul\":955:1034   */\n      tag_188\n      tag_127\n      jump\t// in\n    tag_188:\n        /* \"#utility.yul\":917:1036   */\n    tag_187:\n        /* \"#utility.yul\":1075:1076   */\n      0x00\n        /* \"#utility.yul\":1100:1153   */\n      tag_189\n        /* \"#utility.yul\":1145:1152   */\n      dup5\n        /* \"#utility.yul\":1136:1142   */\n      dup3\n        /* \"#utility.yul\":1125:1134   */\n      dup6\n        /* \"#utility.yul\":1121:1143   */\n      add\n        /* \"#utility.yul\":1100:1153   */\n      tag_132\n      jump\t// in\n    tag_189:\n        /* \"#utility.yul\":1090:1153   */\n      swap2\n      pop\n        /* \"#utility.yul\":1046:1163   */\n      pop\n        /* \"#utility.yul\":841:1170   */\n      swap3\n      swap2\n      pop\n      pop\n      jump\t// out\n        /* \"#utility.yul\":1176:1275   */\n    tag_133:\n        /* \"#utility.yul\":1228:1234   */\n      0x00\n        /* \"#utility.yul\":1262:1267   */\n      dup2\n        /* \"#utility.yul\":1256:1268   */\n      mload\n        /* \"#utility.yul\":1246:1268   */\n      swap1\n      pop\n        /* \"#utility.yul\":1176:1275   */\n      swap2\n      swap1\n      pop\n      jump\t// out\n        /* \"#utility.yul\":1281:1450   */\n    tag_134:\n        /* \"#utility.yul\":1365:1376   */\n      0x00\n        /* \"#utility.yul\":1399:1405   */\n      dup3\n        /* \"#utility.yul\":1394:1397   */\n      dup3\n        /* \"#utility.yul\":1387:1406   */\n      mstore\n        /* \"#utility.yul\":1439:1443   */\n      0x20\n        /* \"#utility.yul\":1434:1437   */\n      dup3\n        /* \"#utility.yul\":1430:1444   */\n      add\n        /* \"#utility.yul\":1415:1444   */\n      swap1\n      pop\n        /* \"#utility.yul\":1281:1450   */\n      swap3\n      swap2\n      pop\n      pop\n      jump\t// out\n        /* \"#utility.yul\":1456:1702   */\n    tag_135:\n        /* \"#utility.yul\":1537:1538   */\n      0x00\n        /* \"#utility.yul\":1547:1660   */\n    tag_193:\n        /* \"#utility.yul\":1561:1567   */\n      dup4\n        /* \"#utility.yul\":1558:1559   */\n      dup2\n        /* \"#utility.yul\":1555:1568   */\n      lt\n        /* \"#utility.yul\":1547:1660   */\n      iszero\n      tag_195\n      jumpi\n        /* \"#utility.yul\":1646:1647   */\n      dup1\n        /* \"#utility.yul\":1641:1644   */\n      dup3\n        /* \"#utility.yul\":1637:1648   */\n      add\n        /* \"#utility.yul\":1631:1649   */\n      mload\n        /* \"#utility.yul\":1627:1628   */\n      dup2\n        /* \"#utility.yul\":1622:1625   */\n      dup5\n        /* \"#utility.yul\":1618:1629   */\n      add\n        /* \"#utility.yul\":1611:1650   */\n      mstore\n        /* \"#utility.yul\":1583:1585   */\n      0x20\n        /* \"#utility.yul\":1580:1581   */\n      dup2\n        /* \"#utility.yul\":1576:1586   */\n      add\n        /* \"#utility.yul\":1571:1586   */\n      swap1\n      pop\n        /* \"#utility.yul\":1547:1660   */\n      jump(tag_193)\n    tag_195:\n        /* \"#utility.yul\":1694:1695   */\n      0x00\n        /* \"#utility.yul\":1685:1691   */\n      dup5\n        /* \"#utility.yul\":1680:1683   */\n      dup5\n        /* \"#utility.yul\":1676:1692   */\n      add\n        /* \"#utility.yul\":1669:1696   */\n      mstore\n        /* \"#utility.yul\":1518:1702   */\n      pop\n        /* \"#utility.yul\":1456:1702   */\n      pop\n      pop\n      pop\n      jump\t// out\n        /* \"#utility.yul\":1708:1810   */\n    tag_136:\n        /* \"#utility.yul\":1749:1755   */\n      0x00\n        /* \"#utility.yul\":1800:1802   */\n      0x1f\n        /* \"#utility.yul\":1796:1803   */\n      not\n        /* \"#utility.yul\":1791:1793   */\n      0x1f\n        /* \"#utility.yul\":1784:1789   */\n      dup4\n        /* \"#utility.yul\":1780:1794   */\n      add\n        /* \"#utility.yul\":1776:1804   */\n      and\n        /* \"#utility.yul\":1766:1804   */\n      swap1\n      pop\n        /* \"#utility.yul\":1708:1810   */\n      swap2\n      swap1\n      pop\n      jump\t// out\n        /* \"#utility.yul\":1816:2193   */\n    tag_137:\n        /* \"#utility.yul\":1904:1907   */\n      0x00\n        /* \"#utility.yul\":1932:1971   */\n      tag_198\n        /* \"#utility.yul\":1965:1970   */\n      dup3\n        /* \"#utility.yul\":1932:1971   */\n      tag_133\n      jump\t// in\n    tag_198:\n        /* \"#utility.yul\":1987:2058   */\n      tag_199\n        /* \"#utility.yul\":2051:2057   */\n      dup2\n        /* \"#utility.yul\":2046:2049   */\n      dup6\n        /* \"#utility.yul\":1987:2058   */\n      tag_134\n      jump\t// in\n    tag_199:\n        /* \"#utility.yul\":1980:2058   */\n      swap4\n      pop\n        /* \"#utility.yul\":2067:2132   */\n      tag_200\n        /* \"#utility.yul\":2125:2131   */\n      dup2\n        /* \"#utility.yul\":2120:2123   */\n      dup6\n        /* \"#utility.yul\":2113:2117   */\n      0x20\n        /* \"#utility.yul\":2106:2111   */\n      dup7\n        /* \"#utility.yul\":2102:2118   */\n      add\n        /* \"#utility.yul\":2067:2132   */\n      tag_135\n      jump\t// in\n    tag_200:\n        /* \"#utility.yul\":2157:2186   */\n      tag_201\n        /* \"#utility.yul\":2179:2185   */\n      dup2\n        /* \"#utility.yul\":2157:2186   */\n      tag_136\n      jump\t// in\n    tag_201:\n        /* \"#utility.yul\":2152:2155   */\n      dup5\n        /* \"#utility.yul\":2148:2187   */\n      add\n        /* \"#utility.yul\":2141:2187   */\n      swap2\n      pop\n        /* \"#utility.yul\":1908:2193   */\n      pop\n        /* \"#utility.yul\":1816:2193   */\n      swap3\n      swap2\n      pop\n      pop\n      jump\t// out\n        /* \"#utility.yul\":2199:2289   */\n    tag_138:\n        /* \"#utility.yul\":2233:2240   */\n      0x00\n        /* \"#utility.yul\":2276:2281   */\n      dup2\n        /* \"#utility.yul\":2269:2282   */\n      iszero\n        /* \"#utility.yul\":2262:2283   */\n      iszero\n        /* \"#utility.yul\":2251:2283   */\n      swap1\n      pop\n        /* \"#utility.yul\":2199:2289   */\n      swap2\n      swap1\n      pop\n      jump\t// out\n        /* \"#utility.yul\":2295:2404   */\n    tag_139:\n        /* \"#utility.yul\":2376:2397   */\n      tag_204\n        /* \"#utility.yul\":2391:2396   */\n      dup2\n        /* \"#utility.yul\":2376:2397   */\n      tag_138\n      jump\t// in\n    tag_204:\n        /* \"#utility.yul\":2371:2374   */\n      dup3\n        /* \"#utility.yul\":2364:2398   */\n      mstore\n        /* \"#utility.yul\":2295:2404   */\n      pop\n      pop\n      jump\t// out\n        /* \"#utility.yul\":2410:3022   */\n    tag_18:\n        /* \"#utility.yul\":2593:2597   */\n      0x00\n        /* \"#utility.yul\":2631:2633   */\n      0x60\n        /* \"#utility.yul\":2620:2629   */\n      dup3\n        /* \"#utility.yul\":2616:2634   */\n      add\n        /* \"#utility.yul\":2608:2634   */\n      swap1\n      pop\n        /* \"#utility.yul\":2680:2689   */\n      dup2\n        /* \"#utility.yul\":2674:2678   */\n      dup2\n        /* \"#utility.yul\":2670:2690   */\n      sub\n        /* \"#utility.yul\":2666:2667   */\n      0x00\n        /* \"#utility.yul\":2655:2664   */\n      dup4\n        /* \"#utility.yul\":2651:2668   */\n      add\n        /* \"#utility.yul\":2644:2691   */\n      mstore\n        /* \"#utility.yul\":2708:2786   */\n      tag_206\n        /* \"#utility.yul\":2781:2785   */\n      dup2\n        /* \"#utility.yul\":2772:2778   */\n      dup7\n        /* \"#utility.yul\":2708:2786   */\n      tag_137\n      jump\t// in\n    tag_206:\n        /* \"#utility.yul\":2700:2786   */\n      swap1\n      pop\n        /* \"#utility.yul\":2796:2862   */\n      tag_207\n        /* \"#utility.yul\":2858:2860   */\n      0x20\n        /* \"#utility.yul\":2847:2856   */\n      dup4\n        /* \"#utility.yul\":2843:2861   */\n      add\n        /* \"#utility.yul\":2834:2840   */\n      dup6\n        /* \"#utility.yul\":2796:2862   */\n      tag_139\n      jump\t// in\n    tag_207:\n        /* \"#utility.yul\":2909:2918   */\n      dup2\n        /* \"#utility.yul\":2903:2907   */\n      dup2\n        /* \"#utility.yul\":2899:2919   */\n      sub\n        /* \"#utility.yul\":2894:2896   */\n      0x40\n        /* \"#utility.yul\":2883:2892   */\n      dup4\n        /* \"#utility.yul\":2879:2897   */\n      add\n        /* \"#utility.yul\":2872:2920   */\n      mstore\n        /* \"#utility.yul\":2937:3015   */\n      tag_208\n        /* \"#utility.yul\":3010:3014   */\n      dup2\n        /* \"#utility.yul\":3001:3007   */\n      dup5\n        /* \"#utility.yul\":2937:3015   */\n      tag_137\n      jump\t// in\n    tag_208:\n        /* \"#utility.yul\":2929:3015   */\n      swap1\n      pop\n        /* \"#utility.yul\":2410:3022   */\n      swap5\n      swap4\n      pop\n      pop\n      pop\n      pop\n      jump\t// out\n        /* \"#utility.yul\":3028:3341   */\n    tag_23:\n        /* \"#utility.yul\":3141:3145   */\n      0x00\n        /* \"#utility.yul\":3179:3181   */\n      0x20\n        /* \"#utility.yul\":3168:3177   */\n      dup3\n        /* \"#utility.yul\":3164:3182   */\n      add\n        /* \"#utility.yul\":3156:3182   */\n      swap1\n      pop\n        /* \"#utility.yul\":3228:3237   */\n      dup2\n        /* \"#utility.yul\":3222:3226   */\n      dup2\n        /* \"#utility.yul\":3218:3238   */\n      sub\n        /* \"#utility.yul\":3214:3215   */\n      0x00\n        /* \"#utility.yul\":3203:3212   */\n      dup4\n        /* \"#utility.yul\":3199:3216   */\n      add\n        /* \"#utility.yul\":3192:3239   */\n      mstore\n        /* \"#utility.yul\":3256:3334   */\n      tag_210\n        /* \"#utility.yul\":3329:3333   */\n      dup2\n        /* \"#utility.yul\":3320:3326   */\n      dup5\n        /* \"#utility.yul\":3256:3334   */\n      tag_137\n      jump\t// in\n    tag_210:\n        /* \"#utility.yul\":3248:3334   */\n      swap1\n      pop\n        /* \"#utility.yul\":3028:3341   */\n      swap3\n      swap2\n      pop\n      pop\n      jump\t// out\n        /* \"#utility.yul\":3347:3861   */\n    tag_35:\n        /* \"#utility.yul\":3508:3512   */\n      0x00\n        /* \"#utility.yul\":3546:3548   */\n      0x40\n        /* \"#utility.yul\":3535:3544   */\n      dup3\n        /* \"#utility.yul\":3531:3549   */\n      add\n        /* \"#utility.yul\":3523:3549   */\n      swap1\n      pop\n        /* \"#utility.yul\":3595:3604   */\n      dup2\n        /* \"#utility.yul\":3589:3593   */\n      dup2\n        /* \"#utility.yul\":3585:3605   */\n      sub\n        /* \"#utility.yul\":3581:3582   */\n      0x00\n        /* \"#utility.yul\":3570:3579   */\n      dup4\n        /* \"#utility.yul\":3566:3583   */\n      add\n        /* \"#utility.yul\":3559:3606   */\n      mstore\n        /* \"#utility.yul\":3623:3701   */\n      tag_212\n        /* \"#utility.yul\":3696:3700   */\n      dup2\n        /* \"#utility.yul\":3687:3693   */\n      dup6\n        /* \"#utility.yul\":3623:3701   */\n      tag_137\n      jump\t// in\n    tag_212:\n        /* \"#utility.yul\":3615:3701   */\n      swap1\n      pop\n        /* \"#utility.yul\":3748:3757   */\n      dup2\n        /* \"#utility.yul\":3742:3746   */\n      dup2\n        /* \"#utility.yul\":3738:3758   */\n      sub\n        /* \"#utility.yul\":3733:3735   */\n      0x20\n        /* \"#utility.yul\":3722:3731   */\n      dup4\n        /* \"#utility.yul\":3718:3736   */\n      add\n        /* \"#utility.yul\":3711:3759   */\n      mstore\n        /* \"#utility.yul\":3776:3854   */\n      tag_213\n        /* \"#utility.yul\":3849:3853   */\n      dup2\n        /* \"#utility.yul\":3840:3846   */\n      dup5\n        /* \"#utility.yul\":3776:3854   */\n      tag_137\n      jump\t// in\n    tag_213:\n        /* \"#utility.yul\":3768:3854   */\n      swap1\n      pop\n        /* \"#utility.yul\":3347:3861   */\n      swap4\n      swap3\n      pop\n      pop\n      pop\n      jump\t// out\n        /* \"#utility.yul\":3867:3984   */\n    tag_140:\n        /* \"#utility.yul\":3976:3977   */\n      0x00\n        /* \"#utility.yul\":3973:3974   */\n      dup1\n        /* \"#utility.yul\":3966:3978   */\n      revert\n        /* \"#utility.yul\":3990:4107   */\n    tag_141:\n        /* \"#utility.yul\":4099:4100   */\n      0x00\n        /* \"#utility.yul\":4096:4097   */\n      dup1\n        /* \"#utility.yul\":4089:4101   */\n      revert\n        /* \"#utility.yul\":4113:4293   */\n    tag_142:\n        /* \"#utility.yul\":4161:4238   */\n      0x4e487b7100000000000000000000000000000000000000000000000000000000\n        /* \"#utility.yul\":4158:4159   */\n      0x00\n        /* \"#utility.yul\":4151:4239   */\n      mstore\n        /* \"#utility.yul\":4258:4262   */\n      0x41\n        /* \"#utility.yul\":4255:4256   */\n      0x04\n        /* \"#utility.yul\":4248:4263   */\n      mstore\n        /* \"#utility.yul\":4282:4286   */\n      0x24\n        /* \"#utility.yul\":4279:4280   */\n      0x00\n        /* \"#utility.yul\":4272:4287   */\n      revert\n        /* \"#utility.yul\":4299:4580   */\n    tag_143:\n        /* \"#utility.yul\":4382:4409   */\n      tag_218\n        /* \"#utility.yul\":4404:4408   */\n      dup3\n        /* \"#utility.yul\":4382:4409   */\n      tag_136\n      jump\t// in\n    tag_218:\n        /* \"#utility.yul\":4374:4380   */\n      dup2\n        /* \"#utility.yul\":4370:4410   */\n      add\n        /* \"#utility.yul\":4512:4518   */\n      dup2\n        /* \"#utility.yul\":4500:4510   */\n      dup2\n        /* \"#utility.yul\":4497:4519   */\n      lt\n        /* \"#utility.yul\":4476:4494   */\n      0xffffffffffffffff\n        /* \"#utility.yul\":4464:4474   */\n      dup3\n        /* \"#utility.yul\":4461:4495   */\n      gt\n        /* \"#utility.yul\":4458:4520   */\n      or\n        /* \"#utility.yul\":4455:4543   */\n      iszero\n      tag_219\n      jumpi\n        /* \"#utility.yul\":4523:4541   */\n      tag_220\n      tag_142\n      jump\t// in\n    tag_220:\n        /* \"#utility.yul\":4455:4543   */\n    tag_219:\n        /* \"#utility.yul\":4563:4573   */\n      dup1\n        /* \"#utility.yul\":4559:4561   */\n      0x40\n        /* \"#utility.yul\":4552:4574   */\n      mstore\n        /* \"#utility.yul\":4342:4580   */\n      pop\n        /* \"#utility.yul\":4299:4580   */\n      pop\n      pop\n      jump\t// out\n        /* \"#utility.yul\":4586:4715   */\n    tag_144:\n        /* \"#utility.yul\":4620:4626   */\n      0x00\n        /* \"#utility.yul\":4647:4667   */\n      tag_222\n      tag_126\n      jump\t// in\n    tag_222:\n        /* \"#utility.yul\":4637:4667   */\n      swap1\n      pop\n        /* \"#utility.yul\":4676:4709   */\n      tag_223\n        /* \"#utility.yul\":4704:4708   */\n      dup3\n        /* \"#utility.yul\":4696:4702   */\n      dup3\n        /* \"#utility.yul\":4676:4709   */\n      tag_143\n      jump\t// in\n    tag_223:\n        /* \"#utility.yul\":4586:4715   */\n      swap2\n      swap1\n      pop\n      jump\t// out\n        /* \"#utility.yul\":4721:5029   */\n    tag_145:\n        /* \"#utility.yul\":4783:4787   */\n      0x00\n        /* \"#utility.yul\":4873:4891   */\n      0xffffffffffffffff\n        /* \"#utility.yul\":4865:4871   */\n      dup3\n        /* \"#utility.yul\":4862:4892   */\n      gt\n        /* \"#utility.yul\":4859:4915   */\n      iszero\n      tag_225\n      jumpi\n        /* \"#utility.yul\":4895:4913   */\n      tag_226\n      tag_142\n      jump\t// in\n    tag_226:\n        /* \"#utility.yul\":4859:4915   */\n    tag_225:\n        /* \"#utility.yul\":4933:4962   */\n      tag_227\n        /* \"#utility.yul\":4955:4961   */\n      dup3\n        /* \"#utility.yul\":4933:4962   */\n      tag_136\n      jump\t// in\n    tag_227:\n        /* \"#utility.yul\":4925:4962   */\n      swap1\n      pop\n        /* \"#utility.yul\":5017:5021   */\n      0x20\n        /* \"#utility.yul\":5011:5015   */\n      dup2\n        /* \"#utility.yul\":5007:5022   */\n      add\n        /* \"#utility.yul\":4999:5022   */\n      swap1\n      pop\n        /* \"#utility.yul\":4721:5029   */\n      swap2\n      swap1\n      pop\n      jump\t// out\n        /* \"#utility.yul\":5035:5181   */\n    tag_146:\n        /* \"#utility.yul\":5132:5138   */\n      dup3\n        /* \"#utility.yul\":5127:5130   */\n      dup2\n        /* \"#utility.yul\":5122:5125   */\n      dup4\n        /* \"#utility.yul\":5109:5139   */\n      calldatacopy\n        /* \"#utility.yul\":5173:5174   */\n      0x00\n        /* \"#utility.yul\":5164:5170   */\n      dup4\n        /* \"#utility.yul\":5159:5162   */\n      dup4\n        /* \"#utility.yul\":5155:5171   */\n      add\n        /* \"#utility.yul\":5148:5175   */\n      mstore\n        /* \"#utility.yul\":5035:5181   */\n      pop\n      pop\n      pop\n      jump\t// out\n        /* \"#utility.yul\":5187:5612   */\n    tag_147:\n        /* \"#utility.yul\":5265:5270   */\n      0x00\n        /* \"#utility.yul\":5290:5356   */\n      tag_230\n        /* \"#utility.yul\":5306:5355   */\n      tag_231\n        /* \"#utility.yul\":5348:5354   */\n      dup5\n        /* \"#utility.yul\":5306:5355   */\n      tag_145\n      jump\t// in\n    tag_231:\n        /* \"#utility.yul\":5290:5356   */\n      tag_144\n      jump\t// in\n    tag_230:\n        /* \"#utility.yul\":5281:5356   */\n      swap1\n      pop\n        /* \"#utility.yul\":5379:5385   */\n      dup3\n        /* \"#utility.yul\":5372:5377   */\n      dup2\n        /* \"#utility.yul\":5365:5386   */\n      mstore\n        /* \"#utility.yul\":5417:5421   */\n      0x20\n        /* \"#utility.yul\":5410:5415   */\n      dup2\n        /* \"#utility.yul\":5406:5422   */\n      add\n        /* \"#utility.yul\":5455:5458   */\n      dup5\n        /* \"#utility.yul\":5446:5452   */\n      dup5\n        /* \"#utility.yul\":5441:5444   */\n      dup5\n        /* \"#utility.yul\":5437:5453   */\n      add\n        /* \"#utility.yul\":5434:5459   */\n      gt\n        /* \"#utility.yul\":5431:5543   */\n      iszero\n      tag_232\n      jumpi\n        /* \"#utility.yul\":5462:5541   */\n      tag_233\n      tag_141\n      jump\t// in\n    tag_233:\n        /* \"#utility.yul\":5431:5543   */\n    tag_232:\n        /* \"#utility.yul\":5552:5606   */\n      tag_234\n        /* \"#utility.yul\":5599:5605   */\n      dup5\n        /* \"#utility.yul\":5594:5597   */\n      dup3\n        /* \"#utility.yul\":5589:5592   */\n      dup6\n        /* \"#utility.yul\":5552:5606   */\n      tag_146\n      jump\t// in\n    tag_234:\n        /* \"#utility.yul\":5271:5612   */\n      pop\n        /* \"#utility.yul\":5187:5612   */\n      swap4\n      swap3\n      pop\n      pop\n      pop\n      jump\t// out\n        /* \"#utility.yul\":5632:5972   */\n    tag_148:\n        /* \"#utility.yul\":5688:5693   */\n      0x00\n        /* \"#utility.yul\":5737:5740   */\n      dup3\n        /* \"#utility.yul\":5730:5734   */\n      0x1f\n        /* \"#utility.yul\":5722:5728   */\n      dup4\n        /* \"#utility.yul\":5718:5735   */\n      add\n        /* \"#utility.yul\":5714:5741   */\n      slt\n        /* \"#utility.yul\":5704:5826   */\n      tag_236\n      jumpi\n        /* \"#utility.yul\":5745:5824   */\n      tag_237\n      tag_140\n      jump\t// in\n    tag_237:\n        /* \"#utility.yul\":5704:5826   */\n    tag_236:\n        /* \"#utility.yul\":5862:5868   */\n      dup2\n        /* \"#utility.yul\":5849:5869   */\n      calldataload\n        /* \"#utility.yul\":5887:5966   */\n      tag_238\n        /* \"#utility.yul\":5962:5965   */\n      dup5\n        /* \"#utility.yul\":5954:5960   */\n      dup3\n        /* \"#utility.yul\":5947:5951   */\n      0x20\n        /* \"#utility.yul\":5939:5945   */\n      dup7\n        /* \"#utility.yul\":5935:5952   */\n      add\n        /* \"#utility.yul\":5887:5966   */\n      tag_147\n      jump\t// in\n    tag_238:\n        /* \"#utility.yul\":5878:5966   */\n      swap2\n      pop\n        /* \"#utility.yul\":5694:5972   */\n      pop\n        /* \"#utility.yul\":5632:5972   */\n      swap3\n      swap2\n      pop\n      pop\n      jump\t// out\n        /* \"#utility.yul\":5978:6812   */\n    tag_38:\n        /* \"#utility.yul\":6066:6072   */\n      0x00\n        /* \"#utility.yul\":6074:6080   */\n      dup1\n        /* \"#utility.yul\":6123:6125   */\n      0x40\n        /* \"#utility.yul\":6111:6120   */\n      dup4\n        /* \"#utility.yul\":6102:6109   */\n      dup6\n        /* \"#utility.yul\":6098:6121   */\n      sub\n        /* \"#utility.yul\":6094:6126   */\n      slt\n        /* \"#utility.yul\":6091:6210   */\n      iszero\n      tag_240\n      jumpi\n        /* \"#utility.yul\":6129:6208   */\n      tag_241\n      tag_127\n      jump\t// in\n    tag_241:\n        /* \"#utility.yul\":6091:6210   */\n    tag_240:\n        /* \"#utility.yul\":6277:6278   */\n      0x00\n        /* \"#utility.yul\":6266:6275   */\n      dup4\n        /* \"#utility.yul\":6262:6279   */\n      add\n        /* \"#utility.yul\":6249:6280   */\n      calldataload\n        /* \"#utility.yul\":6307:6325   */\n      0xffffffffffffffff\n        /* \"#utility.yul\":6299:6305   */\n      dup2\n        /* \"#utility.yul\":6296:6326   */\n      gt\n        /* \"#utility.yul\":6293:6410   */\n      iszero\n      tag_242\n      jumpi\n        /* \"#utility.yul\":6329:6408   */\n      tag_243\n      tag_128\n      jump\t// in\n    tag_243:\n        /* \"#utility.yul\":6293:6410   */\n    tag_242:\n        /* \"#utility.yul\":6434:6497   */\n      tag_244\n        /* \"#utility.yul\":6489:6496   */\n      dup6\n        /* \"#utility.yul\":6480:6486   */\n      dup3\n        /* \"#utility.yul\":6469:6478   */\n      dup7\n        /* \"#utility.yul\":6465:6487   */\n      add\n        /* \"#utility.yul\":6434:6497   */\n      tag_148\n      jump\t// in\n    tag_244:\n        /* \"#utility.yul\":6424:6497   */\n      swap3\n      pop\n        /* \"#utility.yul\":6220:6507   */\n      pop\n        /* \"#utility.yul\":6574:6576   */\n      0x20\n        /* \"#utility.yul\":6563:6572   */\n      dup4\n        /* \"#utility.yul\":6559:6577   */\n      add\n        /* \"#utility.yul\":6546:6578   */\n      calldataload\n        /* \"#utility.yul\":6605:6623   */\n      0xffffffffffffffff\n        /* \"#utility.yul\":6597:6603   */\n      dup2\n        /* \"#utility.yul\":6594:6624   */\n      gt\n        /* \"#utility.yul\":6591:6708   */\n      iszero\n      tag_245\n      jumpi\n        /* \"#utility.yul\":6627:6706   */\n      tag_246\n      tag_128\n      jump\t// in\n    tag_246:\n        /* \"#utility.yul\":6591:6708   */\n    tag_245:\n        /* \"#utility.yul\":6732:6795   */\n      tag_247\n        /* \"#utility.yul\":6787:6794   */\n      dup6\n        /* \"#utility.yul\":6778:6784   */\n      dup3\n        /* \"#utility.yul\":6767:6776   */\n      dup7\n        /* \"#utility.yul\":6763:6785   */\n      add\n        /* \"#utility.yul\":6732:6795   */\n      tag_148\n      jump\t// in\n    tag_247:\n        /* \"#utility.yul\":6722:6795   */\n      swap2\n      pop\n        /* \"#utility.yul\":6517:6805   */\n      pop\n        /* \"#utility.yul\":5978:6812   */\n      swap3\n      pop\n      swap3\n      swap1\n      pop\n      jump\t// out\n        /* \"#utility.yul\":6818:6993   */\n    tag_149:\n        /* \"#utility.yul\":6958:6985   */\n      0x41646472657373206973206e6f74207265676973746572656400000000000000\n        /* \"#utility.yul\":6954:6955   */\n      0x00\n        /* \"#utility.yul\":6946:6952   */\n      dup3\n        /* \"#utility.yul\":6942:6956   */\n      add\n        /* \"#utility.yul\":6935:6986   */\n      mstore\n        /* \"#utility.yul\":6818:6993   */\n      pop\n      jump\t// out\n        /* \"#utility.yul\":6999:7365   */\n    tag_150:\n        /* \"#utility.yul\":7141:7144   */\n      0x00\n        /* \"#utility.yul\":7162:7229   */\n      tag_250\n        /* \"#utility.yul\":7226:7228   */\n      0x19\n        /* \"#utility.yul\":7221:7224   */\n      dup4\n        /* \"#utility.yul\":7162:7229   */\n      tag_134\n      jump\t// in\n    tag_250:\n        /* \"#utility.yul\":7155:7229   */\n      swap2\n      pop\n        /* \"#utility.yul\":7238:7331   */\n      tag_251\n        /* \"#utility.yul\":7327:7330   */\n      dup3\n        /* \"#utility.yul\":7238:7331   */\n      tag_149\n      jump\t// in\n    tag_251:\n        /* \"#utility.yul\":7356:7358   */\n      0x20\n        /* \"#utility.yul\":7351:7354   */\n      dup3\n        /* \"#utility.yul\":7347:7359   */\n      add\n        /* \"#utility.yul\":7340:7359   */\n      swap1\n      pop\n        /* \"#utility.yul\":6999:7365   */\n      swap2\n      swap1\n      pop\n      jump\t// out\n        /* \"#utility.yul\":7371:7790   */\n    tag_43:\n        /* \"#utility.yul\":7537:7541   */\n      0x00\n        /* \"#utility.yul\":7575:7577   */\n      0x20\n        /* \"#utility.yul\":7564:7573   */\n      dup3\n        /* \"#utility.yul\":7560:7578   */\n      add\n        /* \"#utility.yul\":7552:7578   */\n      swap1\n      pop\n        /* \"#utility.yul\":7624:7633   */\n      dup2\n        /* \"#utility.yul\":7618:7622   */\n      dup2\n        /* \"#utility.yul\":7614:7634   */\n      sub\n        /* \"#utility.yul\":7610:7611   */\n      0x00\n        /* \"#utility.yul\":7599:7608   */\n      dup4\n        /* \"#utility.yul\":7595:7612   */\n      add\n        /* \"#utility.yul\":7588:7635   */\n      mstore\n        /* \"#utility.yul\":7652:7783   */\n      tag_253\n        /* \"#utility.yul\":7778:7782   */\n      dup2\n        /* \"#utility.yul\":7652:7783   */\n      tag_150\n      jump\t// in\n    tag_253:\n        /* \"#utility.yul\":7644:7783   */\n      swap1\n      pop\n        /* \"#utility.yul\":7371:7790   */\n      swap2\n      swap1\n      pop\n      jump\t// out\n        /* \"#utility.yul\":7796:7976   */\n    tag_151:\n        /* \"#utility.yul\":7844:7921   */\n      0x4e487b7100000000000000000000000000000000000000000000000000000000\n        /* \"#utility.yul\":7841:7842   */\n      0x00\n        /* \"#utility.yul\":7834:7922   */\n      mstore\n        /* \"#utility.yul\":7941:7945   */\n      0x22\n        /* \"#utility.yul\":7938:7939   */\n      0x04\n        /* \"#utility.yul\":7931:7946   */\n      mstore\n        /* \"#utility.yul\":7965:7969   */\n      0x24\n        /* \"#utility.yul\":7962:7963   */\n      0x00\n        /* \"#utility.yul\":7955:7970   */\n      revert\n        /* \"#utility.yul\":7982:8302   */\n    tag_48:\n        /* \"#utility.yul\":8026:8032   */\n      0x00\n        /* \"#utility.yul\":8063:8064   */\n      0x02\n        /* \"#utility.yul\":8057:8061   */\n      dup3\n        /* \"#utility.yul\":8053:8065   */\n      div\n        /* \"#utility.yul\":8043:8065   */\n      swap1\n      pop\n        /* \"#utility.yul\":8110:8111   */\n      0x01\n        /* \"#utility.yul\":8104:8108   */\n      dup3\n        /* \"#utility.yul\":8100:8112   */\n      and\n        /* \"#utility.yul\":8131:8149   */\n      dup1\n        /* \"#utility.yul\":8121:8202   */\n      tag_256\n      jumpi\n        /* \"#utility.yul\":8187:8191   */\n      0x7f\n        /* \"#utility.yul\":8179:8185   */\n      dup3\n        /* \"#utility.yul\":8175:8192   */\n      and\n        /* \"#utility.yul\":8165:8192   */\n      swap2\n      pop\n        /* \"#utility.yul\":8121:8202   */\n    tag_256:\n        /* \"#utility.yul\":8249:8251   */\n      0x20\n        /* \"#utility.yul\":8241:8247   */\n      dup3\n        /* \"#utility.yul\":8238:8252   */\n      lt\n        /* \"#utility.yul\":8218:8236   */\n      dup2\n        /* \"#utility.yul\":8215:8253   */\n      sub\n        /* \"#utility.yul\":8212:8296   */\n      tag_257\n      jumpi\n        /* \"#utility.yul\":8268:8286   */\n      tag_258\n      tag_151\n      jump\t// in\n    tag_258:\n        /* \"#utility.yul\":8212:8296   */\n    tag_257:\n        /* \"#utility.yul\":8033:8302   */\n      pop\n        /* \"#utility.yul\":7982:8302   */\n      swap2\n      swap1\n      pop\n      jump\t// out\n        /* \"#utility.yul\":8308:8449   */\n    tag_152:\n        /* \"#utility.yul\":8357:8361   */\n      0x00\n        /* \"#utility.yul\":8380:8383   */\n      dup2\n        /* \"#utility.yul\":8372:8383   */\n      swap1\n      pop\n        /* \"#utility.yul\":8403:8406   */\n      dup2\n        /* \"#utility.yul\":8400:8401   */\n      0x00\n        /* \"#utility.yul\":8393:8407   */\n      mstore\n        /* \"#utility.yul\":8437:8441   */\n      0x20\n        /* \"#utility.yul\":8434:8435   */\n      0x00\n        /* \"#utility.yul\":8424:8442   */\n      keccak256\n        /* \"#utility.yul\":8416:8442   */\n      swap1\n      pop\n        /* \"#utility.yul\":8308:8449   */\n      swap2\n      swap1\n      pop\n      jump\t// out\n        /* \"#utility.yul\":8455:8548   */\n    tag_153:\n        /* \"#utility.yul\":8492:8498   */\n      0x00\n        /* \"#utility.yul\":8539:8541   */\n      0x20\n        /* \"#utility.yul\":8534:8536   */\n      0x1f\n        /* \"#utility.yul\":8527:8532   */\n      dup4\n        /* \"#utility.yul\":8523:8537   */\n      add\n        /* \"#utility.yul\":8519:8542   */\n      div\n        /* \"#utility.yul\":8509:8542   */\n      swap1\n      pop\n        /* \"#utility.yul\":8455:8548   */\n      swap2\n      swap1\n      pop\n      jump\t// out\n        /* \"#utility.yul\":8554:8661   */\n    tag_154:\n        /* \"#utility.yul\":8598:8606   */\n      0x00\n        /* \"#utility.yul\":8648:8653   */\n      dup3\n        /* \"#utility.yul\":8642:8646   */\n      dup3\n        /* \"#utility.yul\":8638:8654   */\n      shl\n        /* \"#utility.yul\":8617:8654   */\n      swap1\n      pop\n        /* \"#utility.yul\":8554:8661   */\n      swap3\n      swap2\n      pop\n      pop\n      jump\t// out\n        /* \"#utility.yul\":8667:9060   */\n    tag_155:\n        /* \"#utility.yul\":8736:8742   */\n      0x00\n        /* \"#utility.yul\":8786:8787   */\n      0x08\n        /* \"#utility.yul\":8774:8784   */\n      dup4\n        /* \"#utility.yul\":8770:8788   */\n      mul\n        /* \"#utility.yul\":8809:8906   */\n      tag_263\n        /* \"#utility.yul\":8839:8905   */\n      0xffffffffffffffffffffffffffffffffffffffffffffffffffffffffffffffff\n        /* \"#utility.yul\":8828:8837   */\n      dup3\n        /* \"#utility.yul\":8809:8906   */\n      tag_154\n      jump\t// in\n    tag_263:\n        /* \"#utility.yul\":8927:8966   */\n      tag_264\n        /* \"#utility.yul\":8957:8965   */\n      dup7\n        /* \"#utility.yul\":8946:8955   */\n      dup4\n        /* \"#utility.yul\":8927:8966   */\n      tag_154\n      jump\t// in\n    tag_264:\n        /* \"#utility.yul\":8915:8966   */\n      swap6\n      pop\n        /* \"#utility.yul\":8999:9003   */\n      dup1\n        /* \"#utility.yul\":8995:9004   */\n      not\n        /* \"#utility.yul\":8988:8993   */\n      dup5\n        /* \"#utility.yul\":8984:9005   */\n      and\n        /* \"#utility.yul\":8975:9005   */\n      swap4\n      pop\n        /* \"#utility.yul\":9048:9052   */\n      dup1\n        /* \"#utility.yul\":9038:9046   */\n      dup7\n        /* \"#utility.yul\":9034:9053   */\n      and\n        /* \"#utility.yul\":9027:9032   */\n      dup5\n        /* \"#utility.yul\":9024:9054   */\n      or\n        /* \"#utility.yul\":9014:9054   */\n      swap3\n      pop\n        /* \"#utility.yul\":8743:9060   */\n      pop\n      pop\n        /* \"#utility.yul\":8667:9060   */\n      swap4\n      swap3\n      pop\n      pop\n      pop\n      jump\t// out\n        /* \"#utility.yul\":9066:9143   */\n    tag_156:\n        /* \"#utility.yul\":9103:9110   */\n      0x00\n        /* \"#utility.yul\":9132:9137   */\n      dup2\n        /* \"#utility.yul\":9121:9137   */\n      swap1\n      pop\n        /* \"#utility.yul\":9066:9143   */\n      swap2\n      swap1\n      pop\n      jump\t// out\n        /* \"#utility.yul\":9149:9209   */\n    tag_157:\n        /* \"#utility.yul\":9177:9180   */\n      0x00\n        /* \"#utility.yul\":9198:9203   */\n      dup2\n        /* \"#utility.yul\":9191:9203   */\n      swap1\n      pop\n        /* \"#utility.yul\":9149:9209   */\n      swap2\n      swap1\n      pop\n      jump\t// out\n        /* \"#utility.yul\":9215:9357   */\n    tag_158:\n        /* \"#utility.yul\":9265:9274   */\n      0x00\n        /* \"#utility.yul\":9298:9351   */\n      tag_268\n        /* \"#utility.yul\":9316:9350   */\n      tag_269\n        /* \"#utility.yul\":9325:9349   */\n      tag_270\n        /* \"#utility.yul\":9343:9348   */\n      dup5\n        /* \"#utility.yul\":9325:9349   */\n      tag_156\n      jump\t// in\n    tag_270:\n        /* \"#utility.yul\":9316:9350   */\n      tag_157\n      jump\t// in\n    tag_269:\n        /* \"#utility.yul\":9298:9351   */\n      tag_156\n      jump\t// in\n    tag_268:\n        /* \"#utility.yul\":9285:9351   */\n      swap1\n      pop\n        /* \"#utility.yul\":9215:9357   */\n      swap2\n      swap1\n      pop\n      jump\t// out\n        /* \"#utility.yul\":9363:9438   */\n    tag_159:\n        /* \"#utility.yul\":9406:9409   */\n      0x00\n        /* \"#utility.yul\":9427:9432   */\n      dup2\n        /* \"#utility.yul\":9420:9432   */\n      swap1\n      pop\n        /* \"#utility.yul\":9363:9438   */\n      swap2\n      swap1\n      pop\n      jump\t// out\n        /* \"#utility.yul\":9444:9713   */\n    tag_160:\n        /* \"#utility.yul\":9554:9593   */\n      tag_273\n        /* \"#utility.yul\":9585:9592   */\n      dup4\n        /* \"#utility.yul\":9554:9593   */\n      tag_158\n      jump\t// in\n    tag_273:\n        /* \"#utility.yul\":9615:9706   */\n      tag_274\n        /* \"#utility.yul\":9664:9705   */\n      tag_275\n        /* \"#utility.yul\":9688:9704   */\n      dup3\n        /* \"#utility.yul\":9664:9705   */\n      tag_159\n      jump\t// in\n    tag_275:\n        /* \"#utility.yul\":9656:9662   */\n      dup5\n        /* \"#utility.yul\":9649:9653   */\n      dup5\n        /* \"#utility.yul\":9643:9654   */\n      sload\n        /* \"#utility.yul\":9615:9706   */\n      tag_155\n      jump\t// in\n    tag_274:\n        /* \"#utility.yul\":9609:9613   */\n      dup3\n        /* \"#utility.yul\":9602:9707   */\n      sstore\n        /* \"#utility.yul\":9520:9713   */\n      pop\n        /* \"#utility.yul\":9444:9713   */\n      pop\n      pop\n      pop\n      jump\t// out\n        /* \"#utility.yul\":9719:9792   */\n    tag_161:\n        /* \"#utility.yul\":9764:9767   */\n      0x00\n        /* \"#utility.yul\":9719:9792   */\n      swap1\n      jump\t// out\n        /* \"#utility.yul\":9798:9987   */\n    tag_162:\n        /* \"#utility.yul\":9875:9907   */\n      tag_278\n      tag_161\n      jump\t// in\n    tag_278:\n        /* \"#utility.yul\":9916:9981   */\n      tag_279\n        /* \"#utility.yul\":9974:9980   */\n      dup2\n        /* \"#utility.yul\":9966:9972   */\n      dup5\n        /* \"#utility.yul\":9960:9964   */\n      dup5\n        /* \"#utility.yul\":9916:9981   */\n      tag_160\n      jump\t// in\n    tag_279:\n        /* \"#utility.yul\":9851:9987   */\n      pop\n        /* \"#utility.yul\":9798:9987   */\n      pop\n      pop\n      jump\t// out\n        /* \"#utility.yul\":9993:10179   */\n    tag_163:\n        /* \"#utility.yul\":10053:10173   */\n    tag_281:\n        /* \"#utility.yul\":10070:10073   */\n      dup2\n        /* \"#utility.yul\":10063:10068   */\n      dup2\n        /* \"#utility.yul\":10060:10074   */\n      lt\n        /* \"#utility.yul\":10053:10173   */\n      iszero\n      tag_283\n      jumpi\n        /* \"#utility.yul\":10124:10163   */\n      tag_284\n        /* \"#utility.yul\":10161:10162   */\n      0x00\n        /* \"#utility.yul\":10154:10159   */\n      dup3\n        /* \"#utility.yul\":10124:10163   */\n      tag_162\n      jump\t// in\n    tag_284:\n        /* \"#utility.yul\":10097:10098   */\n      0x01\n        /* \"#utility.yul\":10090:10095   */\n      dup2\n        /* \"#utility.yul\":10086:10099   */\n      add\n        /* \"#utility.yul\":10077:10099   */\n      swap1\n      pop\n        /* \"#utility.yul\":10053:10173   */\n      jump(tag_281)\n    tag_283:\n        /* \"#utility.yul\":9993:10179   */\n      pop\n      pop\n      jump\t// out\n        /* \"#utility.yul\":10185:10728   */\n    tag_164:\n        /* \"#utility.yul\":10286:10288   */\n      0x1f\n        /* \"#utility.yul\":10281:10284   */\n      dup3\n        /* \"#utility.yul\":10278:10289   */\n      gt\n        /* \"#utility.yul\":10275:10721   */\n      iszero\n      tag_286\n      jumpi\n        /* \"#utility.yul\":10320:10358   */\n      tag_287\n        /* \"#utility.yul\":10352:10357   */\n      dup2\n        /* \"#utility.yul\":10320:10358   */\n      tag_152\n      jump\t// in\n    tag_287:\n        /* \"#utility.yul\":10404:10433   */\n      tag_288\n        /* \"#utility.yul\":10422:10432   */\n      dup5\n        /* \"#utility.yul\":10404:10433   */\n      tag_153\n      jump\t// in\n    tag_288:\n        /* \"#utility.yul\":10394:10402   */\n      dup2\n        /* \"#utility.yul\":10390:10434   */\n      add\n        /* \"#utility.yul\":10587:10589   */\n      0x20\n        /* \"#utility.yul\":10575:10585   */\n      dup6\n        /* \"#utility.yul\":10572:10590   */\n      lt\n        /* \"#utility.yul\":10569:10618   */\n      iszero\n      tag_289\n      jumpi\n        /* \"#utility.yul\":10608:10616   */\n      dup2\n        /* \"#utility.yul\":10593:10616   */\n      swap1\n      pop\n        /* \"#utility.yul\":10569:10618   */\n    tag_289:\n        /* \"#utility.yul\":10631:10711   */\n      tag_290\n        /* \"#utility.yul\":10687:10709   */\n      tag_291\n        /* \"#utility.yul\":10705:10708   */\n      dup6\n        /* \"#utility.yul\":10687:10709   */\n      tag_153\n      jump\t// in\n    tag_291:\n        /* \"#utility.yul\":10677:10685   */\n      dup4\n        /* \"#utility.yul\":10673:10710   */\n      add\n        /* \"#utility.yul\":10660:10671   */\n      dup3\n        /* \"#utility.yul\":10631:10711   */\n      tag_163\n      jump\t// in\n    tag_290:\n        /* \"#utility.yul\":10290:10721   */\n      pop\n      pop\n        /* \"#utility.yul\":10275:10721   */\n    tag_286:\n        /* \"#utility.yul\":10185:10728   */\n      pop\n      pop\n      pop\n      jump\t// out\n        /* \"#utility.yul\":10734:10851   */\n    tag_165:\n        /* \"#utility.yul\":10788:10796   */\n      0x00\n        /* \"#utility.yul\":10838:10843   */\n      dup3\n        /* \"#utility.yul\":10832:10836   */\n      dup3\n        /* \"#utility.yul\":10828:10844   */\n      shr\n        /* \"#utility.yul\":10807:10844   */\n      swap1\n      pop\n        /* \"#utility.yul\":10734:10851   */\n      swap3\n      swap2\n      pop\n      pop\n      jump\t// out\n        /* \"#utility.yul\":10857:11026   */\n    tag_166:\n        /* \"#utility.yul\":10901:10907   */\n      0x00\n        /* \"#utility.yul\":10934:10985   */\n      tag_294\n        /* \"#utility.yul\":10982:10983   */\n      0x00\n        /* \"#utility.yul\":10978:10984   */\n      not\n        /* \"#utility.yul\":10970:10975   */\n      dup5\n        /* \"#utility.yul\":10967:10968   */\n      0x08\n        /* \"#utility.yul\":10963:10976   */\n      mul\n        /* \"#utility.yul\":10934:10985   */\n      tag_165\n      jump\t// in\n    tag_294:\n        /* \"#utility.yul\":10930:10986   */\n      not\n        /* \"#utility.yul\":11015:11019   */\n      dup1\n        /* \"#utility.yul\":11009:11013   */\n      dup4\n        /* \"#utility.yul\":11005:11020   */\n      and\n        /* \"#utility.yul\":10995:11020   */\n      swap2\n      pop\n        /* \"#utility.yul\":10908:11026   */\n      pop\n        /* \"#utility.yul\":10857:11026   */\n      swap3\n      swap2\n      pop\n      pop\n      jump\t// out\n        /* \"#utility.yul\":11031:11326   */\n    tag_167:\n        /* \"#utility.yul\":11107:11111   */\n      0x00\n        /* \"#utility.yul\":11253:11282   */\n      tag_296\n        /* \"#utility.yul\":11278:11281   */\n      dup4\n        /* \"#utility.yul\":11272:11276   */\n      dup4\n        /* \"#utility.yul\":11253:11282   */\n      tag_166\n      jump\t// in\n    tag_296:\n        /* \"#utility.yul\":11245:11282   */\n      swap2\n      pop\n        /* \"#utility.yul\":11315:11318   */\n      dup3\n        /* \"#utility.yul\":11312:11313   */\n      0x02\n        /* \"#utility.yul\":11308:11319   */\n      mul\n        /* \"#utility.yul\":11302:11306   */\n      dup3\n        /* \"#utility.yul\":11299:11320   */\n      or\n        /* \"#utility.yul\":11291:11320   */\n      swap1\n      pop\n        /* \"#utility.yul\":11031:11326   */\n      swap3\n      swap2\n      pop\n      pop\n      jump\t// out\n        /* \"#utility.yul\":11331:12726   */\n    tag_45:\n        /* \"#utility.yul\":11448:11485   */\n      tag_298\n        /* \"#utility.yul\":11481:11484   */\n      dup3\n        /* \"#utility.yul\":11448:11485   */\n      tag_133\n      jump\t// in\n    tag_298:\n        /* \"#utility.yul\":11550:11568   */\n      0xffffffffffffffff\n        /* \"#utility.yul\":11542:11548   */\n      dup2\n        /* \"#utility.yul\":11539:11569   */\n      gt\n        /* \"#utility.yul\":11536:11592   */\n      iszero\n      tag_299\n      jumpi\n        /* \"#utility.yul\":11572:11590   */\n      tag_300\n      tag_142\n      jump\t// in\n    tag_300:\n        /* \"#utility.yul\":11536:11592   */\n    tag_299:\n        /* \"#utility.yul\":11616:11654   */\n      tag_301\n        /* \"#utility.yul\":11648:11652   */\n      dup3\n        /* \"#utility.yul\":11642:11653   */\n      sload\n        /* \"#utility.yul\":11616:11654   */\n      tag_48\n      jump\t// in\n    tag_301:\n        /* \"#utility.yul\":11701:11768   */\n      tag_302\n        /* \"#utility.yul\":11761:11767   */\n      dup3\n        /* \"#utility.yul\":11753:11759   */\n      dup3\n        /* \"#utility.yul\":11747:11751   */\n      dup6\n        /* \"#utility.yul\":11701:11768   */\n      tag_164\n      jump\t// in\n    tag_302:\n        /* \"#utility.yul\":11795:11796   */\n      0x00\n        /* \"#utility.yul\":11819:11823   */\n      0x20\n        /* \"#utility.yul\":11806:11823   */\n      swap1\n      pop\n        /* \"#utility.yul\":11851:11853   */\n      0x1f\n        /* \"#utility.yul\":11843:11849   */\n      dup4\n        /* \"#utility.yul\":11840:11854   */\n      gt\n        /* \"#utility.yul\":11868:11869   */\n      0x01\n        /* \"#utility.yul\":11863:12481   */\n      dup2\n      eq\n      tag_304\n      jumpi\n        /* \"#utility.yul\":12525:12526   */\n      0x00\n        /* \"#utility.yul\":12542:12548   */\n      dup5\n        /* \"#utility.yul\":12539:12616   */\n      iszero\n      tag_305\n      jumpi\n        /* \"#utility.yul\":12591:12600   */\n      dup3\n        /* \"#utility.yul\":12586:12589   */\n      dup8\n        /* \"#utility.yul\":12582:12601   */\n      add\n        /* \"#utility.yul\":12576:12602   */\n      mload\n        /* \"#utility.yul\":12567:12602   */\n      swap1\n      pop\n        /* \"#utility.yul\":12539:12616   */\n    tag_305:\n        /* \"#utility.yul\":12642:12709   */\n      tag_306\n        /* \"#utility.yul\":12702:12708   */\n      dup6\n        /* \"#utility.yul\":12695:12700   */\n      dup3\n        /* \"#utility.yul\":12642:12709   */\n      tag_167\n      jump\t// in\n    tag_306:\n        /* \"#utility.yul\":12636:12640   */\n      dup7\n        /* \"#utility.yul\":12629:12710   */\n      sstore\n        /* \"#utility.yul\":12498:12720   */\n      pop\n        /* \"#utility.yul\":11833:12720   */\n      jump(tag_303)\n        /* \"#utility.yul\":11863:12481   */\n    tag_304:\n        /* \"#utility.yul\":11915:11919   */\n      0x1f\n        /* \"#utility.yul\":11911:11920   */\n      not\n        /* \"#utility.yul\":11903:11909   */\n      dup5\n        /* \"#utility.yul\":11899:11921   */\n      and\n        /* \"#utility.yul\":11949:11986   */\n      tag_307\n        /* \"#utility.yul\":11981:11985   */\n      dup7\n        /* \"#utility.yul\":11949:11986   */\n      tag_152\n      jump\t// in\n    tag_307:\n        /* \"#utility.yul\":12008:12009   */\n      0x00\n        /* \"#utility.yul\":12022:12230   */\n    tag_308:\n        /* \"#utility.yul\":12036:12043   */\n      dup3\n        /* \"#utility.yul\":12033:12034   */\n      dup2\n        /* \"#utility.yul\":12030:12044   */\n      lt\n        /* \"#utility.yul\":12022:12230   */\n      iszero\n      tag_310\n      jumpi\n        /* \"#utility.yul\":12115:12124   */\n      dup5\n        /* \"#utility.yul\":12110:12113   */\n      dup10\n        /* \"#utility.yul\":12106:12125   */\n      add\n        /* \"#utility.yul\":12100:12126   */\n      mload\n        /* \"#utility.yul\":12092:12098   */\n      dup3\n        /* \"#utility.yul\":12085:12127   */\n      sstore\n        /* \"#utility.yul\":12166:12167   */\n      0x01\n        /* \"#utility.yul\":12158:12164   */\n      dup3\n        /* \"#utility.yul\":12154:12168   */\n      add\n        /* \"#utility.yul\":12144:12168   */\n      swap2\n      pop\n        /* \"#utility.yul\":12213:12215   */\n      0x20\n        /* \"#utility.yul\":12202:12211   */\n      dup6\n        /* \"#utility.yul\":12198:12216   */\n      add\n        /* \"#utility.yul\":12185:12216   */\n      swap5\n      pop\n        /* \"#utility.yul\":12059:12063   */\n      0x20\n        /* \"#utility.yul\":12056:12057   */\n      dup2\n        /* \"#utility.yul\":12052:12064   */\n      add\n        /* \"#utility.yul\":12047:12064   */\n      swap1\n      pop\n        /* \"#utility.yul\":12022:12230   */\n      jump(tag_308)\n    tag_310:\n        /* \"#utility.yul\":12258:12264   */\n      dup7\n        /* \"#utility.yul\":12249:12256   */\n      dup4\n        /* \"#utility.yul\":12246:12265   */\n      lt\n        /* \"#utility.yul\":12243:12422   */\n      iszero\n      tag_311\n      jumpi\n        /* \"#utility.yul\":12316:12325   */\n      dup5\n        /* \"#utility.yul\":12311:12314   */\n      dup10\n        /* \"#utility.yul\":12307:12326   */\n      add\n        /* \"#utility.yul\":12301:12327   */\n      mload\n        /* \"#utility.yul\":12359:12407   */\n      tag_312\n        /* \"#utility.yul\":12401:12405   */\n      0x1f\n        /* \"#utility.yul\":12393:12399   */\n      dup10\n        /* \"#utility.yul\":12389:12406   */\n      and\n        /* \"#utility.yul\":12378:12387   */\n      dup3\n        /* \"#utility.yul\":12359:12407   */\n      tag_166\n      jump\t// in\n    tag_312:\n        /* \"#utility.yul\":12351:12357   */\n      dup4\n        /* \"#utility.yul\":12344:12408   */\n      sstore\n        /* \"#utility.yul\":12266:12422   */\n      pop\n        /* \"#utility.yul\":12243:12422   */\n    tag_311:\n        /* \"#utility.yul\":12468:12469   */\n      0x01\n        /* \"#utility.yul\":12464:12465   */\n      0x02\n        /* \"#utility.yul\":12456:12462   */\n      dup9\n        /* \"#utility.yul\":12452:12466   */\n      mul\n        /* \"#utility.yul\":12448:12470   */\n      add\n        /* \"#utility.yul\":12442:12446   */\n      dup9\n        /* \"#utility.yul\":12435:12471   */\n      sstore\n        /* \"#utility.yul\":11870:12481   */\n      pop\n      pop\n      pop\n        /* \"#utility.yul\":11833:12720   */\n    tag_303:\n      pop\n        /* \"#utility.yul\":11423:12726   */\n      pop\n      pop\n      pop\n        /* \"#utility.yul\":11331:12726   */\n      pop\n      pop\n      jump\t// out\n        /* \"#utility.yul\":12732:12952   */\n    tag_168:\n        /* \"#utility.yul\":12872:12906   */\n      0x4e6577206164647265737320697320616c726561647920726567697374657265\n        /* \"#utility.yul\":12868:12869   */\n      0x00\n        /* \"#utility.yul\":12860:12866   */\n      dup3\n        /* \"#utility.yul\":12856:12870   */\n      add\n        /* \"#utility.yul\":12849:12907   */\n      mstore\n        /* \"#utility.yul\":12941:12944   */\n      0x6400000000000000000000000000000000000000000000000000000000000000\n        /* \"#utility.yul\":12936:12938   */\n      0x20\n        /* \"#utility.yul\":12928:12934   */\n      dup3\n        /* \"#utility.yul\":12924:12939   */\n      add\n        /* \"#utility.yul\":12917:12945   */\n      mstore\n        /* \"#utility.yul\":12732:12952   */\n      pop\n      jump\t// out\n        /* \"#utility.yul\":12958:13324   */\n    tag_169:\n        /* \"#utility.yul\":13100:13103   */\n      0x00\n        /* \"#utility.yul\":13121:13188   */\n      tag_315\n        /* \"#utility.yul\":13185:13187   */\n      0x21\n        /* \"#utility.yul\":13180:13183   */\n      dup4\n        /* \"#utility.yul\":13121:13188   */\n      tag_134\n      jump\t// in\n    tag_315:\n        /* \"#utility.yul\":13114:13188   */\n      swap2\n      pop\n        /* \"#utility.yul\":13197:13290   */\n      tag_316\n        /* \"#utility.yul\":13286:13289   */\n      dup3\n        /* \"#utility.yul\":13197:13290   */\n      tag_168\n      jump\t// in\n    tag_316:\n        /* \"#utility.yul\":13315:13317   */\n      0x40\n        /* \"#utility.yul\":13310:13313   */\n      dup3\n        /* \"#utility.yul\":13306:13318   */\n      add\n        /* \"#utility.yul\":13299:13318   */\n      swap1\n      pop\n        /* \"#utility.yul\":12958:13324   */\n      swap2\n      swap1\n      pop\n      jump\t// out\n        /* \"#utility.yul\":13330:13749   */\n    tag_84:\n        /* \"#utility.yul\":13496:13500   */\n      0x00\n        /* \"#utility.yul\":13534:13536   */\n      0x20\n        /* \"#utility.yul\":13523:13532   */\n      dup3\n        /* \"#utility.yul\":13519:13537   */\n      add\n        /* \"#utility.yul\":13511:13537   */\n      swap1\n      pop\n        /* \"#utility.yul\":13583:13592   */\n      dup2\n        /* \"#utility.yul\":13577:13581   */\n      dup2\n        /* \"#utility.yul\":13573:13593   */\n      sub\n        /* \"#utility.yul\":13569:13570   */\n      0x00\n        /* \"#utility.yul\":13558:13567   */\n      dup4\n        /* \"#utility.yul\":13554:13571   */\n      add\n        /* \"#utility.yul\":13547:13594   */\n      mstore\n        /* \"#utility.yul\":13611:13742   */\n      tag_318\n        /* \"#utility.yul\":13737:13741   */\n      dup2\n        /* \"#utility.yul\":13611:13742   */\n      tag_169\n      jump\t// in\n    tag_318:\n        /* \"#utility.yul\":13603:13742   */\n      swap1\n      pop\n        /* \"#utility.yul\":13330:13749   */\n      swap2\n      swap1\n      pop\n      jump\t// out\n        /* \"#utility.yul\":13755:13929   */\n    tag_170:\n        /* \"#utility.yul\":13895:13921   */\n      0x4e616d652073686f756c64206e6f7420626520656d7074790000000000000000\n        /* \"#utility.yul\":13891:13892   */\n      0x00\n        /* \"#utility.yul\":13883:13889   */\n      dup3\n        /* \"#utility.yul\":13879:13893   */\n      add\n        /* \"#utility.yul\":13872:13922   */\n      mstore\n        /* \"#utility.yul\":13755:13929   */\n      pop\n      jump\t// out\n        /* \"#utility.yul\":13935:14301   */\n    tag_171:\n        /* \"#utility.yul\":14077:14080   */\n      0x00\n        /* \"#utility.yul\":14098:14165   */\n      tag_321\n        /* \"#utility.yul\":14162:14164   */\n      0x18\n        /* \"#utility.yul\":14157:14160   */\n      dup4\n        /* \"#utility.yul\":14098:14165   */\n      tag_134\n      jump\t// in\n    tag_321:\n        /* \"#utility.yul\":14091:14165   */\n      swap2\n      pop\n        /* \"#utility.yul\":14174:14267   */\n      tag_322\n        /* \"#utility.yul\":14263:14266   */\n      dup3\n        /* \"#utility.yul\":14174:14267   */\n      tag_170\n      jump\t// in\n    tag_322:\n        /* \"#utility.yul\":14292:14294   */\n      0x20\n        /* \"#utility.yul\":14287:14290   */\n      dup3\n        /* \"#utility.yul\":14283:14295   */\n      add\n        /* \"#utility.yul\":14276:14295   */\n      swap1\n      pop\n        /* \"#utility.yul\":13935:14301   */\n      swap2\n      swap1\n      pop\n      jump\t// out\n        /* \"#utility.yul\":14307:14726   */\n    tag_119:\n        /* \"#utility.yul\":14473:14477   */\n      0x00\n        /* \"#utility.yul\":14511:14513   */\n      0x20\n        /* \"#utility.yul\":14500:14509   */\n      dup3\n        /* \"#utility.yul\":14496:14514   */\n      add\n        /* \"#utility.yul\":14488:14514   */\n      swap1\n      pop\n        /* \"#utility.yul\":14560:14569   */\n      dup2\n        /* \"#utility.yul\":14554:14558   */\n      dup2\n        /* \"#utility.yul\":14550:14570   */\n      sub\n        /* \"#utility.yul\":14546:14547   */\n      0x00\n        /* \"#utility.yul\":14535:14544   */\n      dup4\n        /* \"#utility.yul\":14531:14548   */\n      add\n        /* \"#utility.yul\":14524:14571   */\n      mstore\n        /* \"#utility.yul\":14588:14719   */\n      tag_324\n        /* \"#utility.yul\":14714:14718   */\n      dup2\n        /* \"#utility.yul\":14588:14719   */\n      tag_171\n      jump\t// in\n    tag_324:\n        /* \"#utility.yul\":14580:14719   */\n      swap1\n      pop\n        /* \"#utility.yul\":14307:14726   */\n      swap2\n      swap1\n      pop\n      jump\t// out\n        /* \"#utility.yul\":14732:14911   */\n    tag_172:\n        /* \"#utility.yul\":14872:14903   */\n      0x4164647265737320697320616c72656164792072656769737465726564000000\n        /* \"#utility.yul\":14868:14869   */\n      0x00\n        /* \"#utility.yul\":14860:14866   */\n      dup3\n        /* \"#utility.yul\":14856:14870   */\n      add\n        /* \"#utility.yul\":14849:14904   */\n      mstore\n        /* \"#utility.yul\":14732:14911   */\n      pop\n      jump\t// out\n        /* \"#utility.yul\":14917:15283   */\n    tag_173:\n        /* \"#utility.yul\":15059:15062   */\n      0x00\n        /* \"#utility.yul\":15080:15147   */\n      tag_327\n        /* \"#utility.yul\":15144:15146   */\n      0x1d\n        /* \"#utility.yul\":15139:15142   */\n      dup4\n        /* \"#utility.yul\":15080:15147   */\n      tag_134\n      jump\t// in\n    tag_327:\n        /* \"#utility.yul\":15073:15147   */\n      swap2\n      pop\n        /* \"#utility.yul\":15156:15249   */\n      tag_328\n        /* \"#utility.yul\":15245:15248   */\n      dup3\n        /* \"#utility.yul\":15156:15249   */\n      tag_172\n      jump\t// in\n    tag_328:\n        /* \"#utility.yul\":15274:15276   */\n      0x20\n        /* \"#utility.yul\":15269:15272   */\n      dup3\n        /* \"#utility.yul\":15265:15277   */\n      add\n        /* \"#utility.yul\":15258:15277   */\n      swap1\n      pop\n        /* \"#utility.yul\":14917:15283   */\n      swap2\n      swap1\n      pop\n      jump\t// out\n        /* \"#utility.yul\":15289:15708   */\n    tag_122:\n        /* \"#utility.yul\":15455:15459   */\n      0x00\n        /* \"#utility.yul\":15493:15495   */\n      0x20\n        /* \"#utility.yul\":15482:15491   */\n      dup3\n        /* \"#utility.yul\":15478:15496   */\n      add\n        /* \"#utility.yul\":15470:15496   */\n      swap1\n      pop\n        /* \"#utility.yul\":15542:15551   */\n      dup2\n        /* \"#utility.yul\":15536:15540   */\n      dup2\n        /* \"#utility.yul\":15532:15552   */\n      sub\n        /* \"#utility.yul\":15528:15529   */\n      0x00\n        /* \"#utility.yul\":15517:15526   */\n      dup4\n        /* \"#utility.yul\":15513:15530   */\n      add\n        /* \"#utility.yul\":15506:15553   */\n      mstore\n        /* \"#utility.yul\":15570:15701   */\n      tag_330\n        /* \"#utility.yul\":15696:15700   */\n      dup2\n        /* \"#utility.yul\":15570:15701   */\n      tag_173\n      jump\t// in\n    tag_330:\n        /* \"#utility.yul\":15562:15701   */\n      swap1\n      pop\n        /* \"#utility.yul\":15289:15708   */\n      swap2\n      swap1\n      pop\n      jump\t// out\n\n    auxdata: 0xa26469706673582212207aa0ecbe5c59cd8bbd0a8ccc1b2b8889a957f0a0d43721559c486ce2eeed88f364736f6c63430008120033\n}\n",
				"bytecode": {
					"linkReferences": {},
					"object": "608060405234801561001057600080fd5b5061188a806100206000396000f3fe608060405234801561001057600080fd5b506004361061007d5760003560e01c80634ef8884b1161005b5780634ef8884b146100ee5780635fd4b08a1461010a578063c8c6d0681461013a578063ff21ce9c1461016b5761007d565b80630d5fba83146100825780630e7b29bf1461008c5780632557989b146100be575b600080fd5b61008a610187565b005b6100a660048036038101906100a19190611073565b610323565b6040516100b59392919061114b565b60405180910390f35b6100d860048036038101906100d39190611073565b61046a565b6040516100e59190611190565b60405180910390f35b61010860048036038101906101039190611073565b610605565b005b610124600480360381019061011f9190611073565b610a4d565b6040516101319190611190565b60405180910390f35b610154600480360381019061014f9190611073565b610c31565b6040516101629291906111b2565b60405180910390f35b6101856004803603810190610180919061131e565b610e2f565b005b6000803373ffffffffffffffffffffffffffffffffffffffff1673ffffffffffffffffffffffffffffffffffffffff16815260200190815260200160002060010160009054906101000a900460ff16610215576040517f08c379a000000000000000000000000000000000000000000000000000000000815260040161020c906113e2565b60405180910390fd5b6040518060600160405280604051806020016040528060008152508152602001600015158152602001604051806020016040528060008152508152506000803373ffffffffffffffffffffffffffffffffffffffff1673ffffffffffffffffffffffffffffffffffffffff16815260200190815260200160002060008201518160000190816102a49190611618565b5060208201518160010160006101000a81548160ff02191690831515021790555060408201518160020190816102da9190611618565b509050503373ffffffffffffffffffffffffffffffffffffffff167fd535c2e59a2f16f058b1b296bef26cc2579ffc7f69aaf7b53f536943cb6a754360405160405180910390a2565b600060205280600052604060002060009150905080600001805461034690611431565b80601f016020809104026020016040519081016040528092919081815260200182805461037290611431565b80156103bf5780601f10610394576101008083540402835291602001916103bf565b820191906000526020600020905b8154815290600101906020018083116103a257829003601f168201915b5050505050908060010160009054906101000a900460ff16908060020180546103e790611431565b80601f016020809104026020016040519081016040528092919081815260200182805461041390611431565b80156104605780601f1061043557610100808354040283529160200191610460565b820191906000526020600020905b81548152906001019060200180831161044357829003601f168201915b5050505050905083565b606060008060008473ffffffffffffffffffffffffffffffffffffffff1673ffffffffffffffffffffffffffffffffffffffff1681526020019081526020016000206040518060600160405290816000820180546104c790611431565b80601f01602080910402602001604051908101604052809291908181526020018280546104f390611431565b80156105405780601f1061051557610100808354040283529160200191610540565b820191906000526020600020905b81548152906001019060200180831161052357829003601f168201915b505050505081526020016001820160009054906101000a900460ff1615151515815260200160028201805461057490611431565b80601f01602080910402602001604051908101604052809291908181526020018280546105a090611431565b80156105ed5780601f106105c2576101008083540402835291602001916105ed565b820191906000526020600020905b8154815290600101906020018083116105d057829003601f168201915b50505050508152505090508060400151915050919050565b60008060003373ffffffffffffffffffffffffffffffffffffffff1673ffffffffffffffffffffffffffffffffffffffff16815260200190815260200160002060405180606001604052908160008201805461066090611431565b80601f016020809104026020016040519081016040528092919081815260200182805461068c90611431565b80156106d95780601f106106ae576101008083540402835291602001916106d9565b820191906000526020600020905b8154815290600101906020018083116106bc57829003601f168201915b505050505081526020016001820160009054906101000a900460ff1615151515815260200160028201805461070d90611431565b80601f016020809104026020016040519081016040528092919081815260200182805461073990611431565b80156107865780601f1061075b57610100808354040283529160200191610786565b820191906000526020600020905b81548152906001019060200180831161076957829003601f168201915b505050505081525050905080602001516107d5576040517f08c379a00000000000000000000000000000000000000000000000000000000081526004016107cc906113e2565b60405180910390fd5b6000808373ffffffffffffffffffffffffffffffffffffffff1673ffffffffffffffffffffffffffffffffffffffff16815260200190815260200160002060010160009054906101000a900460ff1615610864576040517f08c379a000000000000000000000000000000000000000000000000000000000815260040161085b9061175c565b60405180910390fd5b60405180606001604052808260000151815260200160011515815260200182604001518152506000808473ffffffffffffffffffffffffffffffffffffffff1673ffffffffffffffffffffffffffffffffffffffff16815260200190815260200160002060008201518160000190816108dd9190611618565b5060208201518160010160006101000a81548160ff02191690831515021790555060408201518160020190816109139190611618565b509050506040518060600160405280604051806020016040528060008152508152602001600015158152602001604051806020016040528060008152508152506000803373ffffffffffffffffffffffffffffffffffffffff1673ffffffffffffffffffffffffffffffffffffffff16815260200190815260200160002060008201518160000190816109a69190611618565b5060208201518160010160006101000a81548160ff02191690831515021790555060408201518160020190816109dc9190611618565b509050508173ffffffffffffffffffffffffffffffffffffffff163373ffffffffffffffffffffffffffffffffffffffff167f61ce72876df632c9cea54f37e843a14873bc9a7abd2f79797a8a00e467081f3c8360000151604051610a419190611190565b60405180910390a35050565b606060008060008473ffffffffffffffffffffffffffffffffffffffff1673ffffffffffffffffffffffffffffffffffffffff168152602001908152602001600020604051806060016040529081600082018054610aaa90611431565b80601f0160208091040260200160405190810160405280929190818152602001828054610ad690611431565b8015610b235780601f10610af857610100808354040283529160200191610b23565b820191906000526020600020905b815481529060010190602001808311610b0657829003601f168201915b505050505081526020016001820160009054906101000a900460ff16151515158152602001600282018054610b5790611431565b80601f0160208091040260200160405190810160405280929190818152602001828054610b8390611431565b8015610bd05780601f10610ba557610100808354040283529160200191610bd0565b820191906000526020600020905b815481529060010190602001808311610bb357829003601f168201915b5050505050815250509050806020015115610bf2578060000151915050610c2c565b6040518060400160405280600981526020017f6e6f7420666f756e6400000000000000000000000000000000000000000000008152509150505b919050565b60608060008060008573ffffffffffffffffffffffffffffffffffffffff1673ffffffffffffffffffffffffffffffffffffffff168152602001908152602001600020604051806060016040529081600082018054610c8f90611431565b80601f0160208091040260200160405190810160405280929190818152602001828054610cbb90611431565b8015610d085780601f10610cdd57610100808354040283529160200191610d08565b820191906000526020600020905b815481529060010190602001808311610ceb57829003601f168201915b505050505081526020016001820160009054906101000a900460ff16151515158152602001600282018054610d3c90611431565b80601f0160208091040260200160405190810160405280929190818152602001828054610d6890611431565b8015610db55780601f10610d8a57610100808354040283529160200191610db5565b820191906000526020600020905b815481529060010190602001808311610d9857829003601f168201915b5050505050815250509050806020015115610dde57806000015181604001519250925050610e2a565b6040518060400160405280600981526020017f6e6f7420666f756e6400000000000000000000000000000000000000000000008152506040518060200160405280600081525092509250505b915091565b6000825111610e73576040517f08c379a0000000000000000000000000000000000000000000000000000000008152600401610e6a906117c8565b60405180910390fd5b6000803373ffffffffffffffffffffffffffffffffffffffff1673ffffffffffffffffffffffffffffffffffffffff16815260200190815260200160002060010160009054906101000a900460ff1615610f02576040517f08c379a0000000000000000000000000000000000000000000000000000000008152600401610ef990611834565b60405180910390fd5b6040518060600160405280838152602001600115158152602001828152506000803373ffffffffffffffffffffffffffffffffffffffff1673ffffffffffffffffffffffffffffffffffffffff1681526020019081526020016000206000820151816000019081610f739190611618565b5060208201518160010160006101000a81548160ff0219169083151502179055506040820151816002019081610fa99190611618565b509050503373ffffffffffffffffffffffffffffffffffffffff167f7373af3f7def70b6f0bbf022c5eb5e8a393e1f6bb048f8ccdf3313d2a50905d88383604051610ff59291906111b2565b60405180910390a25050565b6000604051905090565b600080fd5b600080fd5b600073ffffffffffffffffffffffffffffffffffffffff82169050919050565b600061104082611015565b9050919050565b61105081611035565b811461105b57600080fd5b50565b60008135905061106d81611047565b92915050565b6000602082840312156110895761108861100b565b5b60006110978482850161105e565b91505092915050565b600081519050919050565b600082825260208201905092915050565b60005b838110156110da5780820151818401526020810190506110bf565b60008484015250505050565b6000601f19601f8301169050919050565b6000611102826110a0565b61110c81856110ab565b935061111c8185602086016110bc565b611125816110e6565b840191505092915050565b60008115159050919050565b61114581611130565b82525050565b6000606082019050818103600083015261116581866110f7565b9050611174602083018561113c565b818103604083015261118681846110f7565b9050949350505050565b600060208201905081810360008301526111aa81846110f7565b905092915050565b600060408201905081810360008301526111cc81856110f7565b905081810360208301526111e081846110f7565b90509392505050565b600080fd5b600080fd5b7f4e487b7100000000000000000000000000000000000000000000000000000000600052604160045260246000fd5b61122b826110e6565b810181811067ffffffffffffffff8211171561124a576112496111f3565b5b80604052505050565b600061125d611001565b90506112698282611222565b919050565b600067ffffffffffffffff821115611289576112886111f3565b5b611292826110e6565b9050602081019050919050565b82818337600083830152505050565b60006112c16112bc8461126e565b611253565b9050828152602081018484840111156112dd576112dc6111ee565b5b6112e884828561129f565b509392505050565b600082601f830112611305576113046111e9565b5b81356113158482602086016112ae565b91505092915050565b600080604083850312156113355761133461100b565b5b600083013567ffffffffffffffff81111561135357611352611010565b5b61135f858286016112f0565b925050602083013567ffffffffffffffff8111156113805761137f611010565b5b61138c858286016112f0565b9150509250929050565b7f41646472657373206973206e6f74207265676973746572656400000000000000600082015250565b60006113cc6019836110ab565b91506113d782611396565b602082019050919050565b600060208201905081810360008301526113fb816113bf565b9050919050565b7f4e487b7100000000000000000000000000000000000000000000000000000000600052602260045260246000fd5b6000600282049050600182168061144957607f821691505b60208210810361145c5761145b611402565b5b50919050565b60008190508160005260206000209050919050565b60006020601f8301049050919050565b600082821b905092915050565b6000600883026114c47fffffffffffffffffffffffffffffffffffffffffffffffffffffffffffffffff82611487565b6114ce8683611487565b95508019841693508086168417925050509392505050565b6000819050919050565b6000819050919050565b600061151561151061150b846114e6565b6114f0565b6114e6565b9050919050565b6000819050919050565b61152f836114fa565b61154361153b8261151c565b848454611494565b825550505050565b600090565b61155861154b565b611563818484611526565b505050565b5b818110156115875761157c600082611550565b600181019050611569565b5050565b601f8211156115cc5761159d81611462565b6115a684611477565b810160208510156115b5578190505b6115c96115c185611477565b830182611568565b50505b505050565b600082821c905092915050565b60006115ef600019846008026115d1565b1980831691505092915050565b600061160883836115de565b9150826002028217905092915050565b611621826110a0565b67ffffffffffffffff81111561163a576116396111f3565b5b6116448254611431565b61164f82828561158b565b600060209050601f8311600181146116825760008415611670578287015190505b61167a85826115fc565b8655506116e2565b601f19841661169086611462565b60005b828110156116b857848901518255600182019150602085019450602081019050611693565b868310156116d557848901516116d1601f8916826115de565b8355505b6001600288020188555050505b505050505050565b7f4e6577206164647265737320697320616c72656164792072656769737465726560008201527f6400000000000000000000000000000000000000000000000000000000000000602082015250565b60006117466021836110ab565b9150611751826116ea565b604082019050919050565b6000602082019050818103600083015261177581611739565b9050919050565b7f4e616d652073686f756c64206e6f7420626520656d7074790000000000000000600082015250565b60006117b26018836110ab565b91506117bd8261177c565b602082019050919050565b600060208201905081810360008301526117e1816117a5565b9050919050565b7f4164647265737320697320616c72656164792072656769737465726564000000600082015250565b600061181e601d836110ab565b9150611829826117e8565b602082019050919050565b6000602082019050818103600083015261184d81611811565b905091905056fea26469706673582212207aa0ecbe5c59cd8bbd0a8ccc1b2b8889a957f0a0d43721559c486ce2eeed88f364736f6c63430008120033",
					"opcodes": "PUSH1 0x80 PUSH1 0x40 MSTORE CALLVALUE DUP1 ISZERO PUSH2 0x10 JUMPI PUSH1 0x0 DUP1 REVERT JUMPDEST POP PUSH2 0x188A DUP1 PUSH2 0x20 PUSH1 0x0 CODECOPY PUSH1 0x0 RETURN INVALID PUSH1 0x80 PUSH1 0x40 MSTORE CALLVALUE DUP1 ISZERO PUSH2 0x10 JUMPI PUSH1 0x0 DUP1 REVERT JUMPDEST POP PUSH1 0x4 CALLDATASIZE LT PUSH2 0x7D JUMPI PUSH1 0x0 CALLDATALOAD PUSH1 0xE0 SHR DUP1 PUSH4 0x4EF8884B GT PUSH2 0x5B JUMPI DUP1 PUSH4 0x4EF8884B EQ PUSH2 0xEE JUMPI DUP1 PUSH4 0x5FD4B08A EQ PUSH2 0x10A JUMPI DUP1 PUSH4 0xC8C6D068 EQ PUSH2 0x13A JUMPI DUP1 PUSH4 0xFF21CE9C EQ PUSH2 0x16B JUMPI PUSH2 0x7D JUMP JUMPDEST DUP1 PUSH4 0xD5FBA83 EQ PUSH2 0x82 JUMPI DUP1 PUSH4 0xE7B29BF EQ PUSH2 0x8C JUMPI DUP1 PUSH4 0x2557989B EQ PUSH2 0xBE JUMPI JUMPDEST PUSH1 0x0 DUP1 REVERT JUMPDEST PUSH2 0x8A PUSH2 0x187 JUMP JUMPDEST STOP JUMPDEST PUSH2 0xA6 PUSH1 0x4 DUP1 CALLDATASIZE SUB DUP2 ADD SWAP1 PUSH2 0xA1 SWAP2 SWAP1 PUSH2 0x1073 JUMP JUMPDEST PUSH2 0x323 JUMP JUMPDEST PUSH1 0x40 MLOAD PUSH2 0xB5 SWAP4 SWAP3 SWAP2 SWAP1 PUSH2 0x114B JUMP JUMPDEST PUSH1 0x40 MLOAD DUP1 SWAP2 SUB SWAP1 RETURN JUMPDEST PUSH2 0xD8 PUSH1 0x4 DUP1 CALLDATASIZE SUB DUP2 ADD SWAP1 PUSH2 0xD3 SWAP2 SWAP1 PUSH2 0x1073 JUMP JUMPDEST PUSH2 0x46A JUMP JUMPDEST PUSH1 0x40 MLOAD PUSH2 0xE5 SWAP2 SWAP1 PUSH2 0x1190 JUMP JUMPDEST PUSH1 0x40 MLOAD DUP1 SWAP2 SUB SWAP1 RETURN JUMPDEST PUSH2 0x108 PUSH1 0x4 DUP1 CALLDATASIZE SUB DUP2 ADD SWAP1 PUSH2 0x103 SWAP2 SWAP1 PUSH2 0x1073 JUMP JUMPDEST PUSH2 0x605 JUMP JUMPDEST STOP JUMPDEST PUSH2 0x124 PUSH1 0x4 DUP1 CALLDATASIZE SUB DUP2 ADD SWAP1 PUSH2 0x11F SWAP2 SWAP1 PUSH2 0x1073 JUMP JUMPDEST PUSH2 0xA4D JUMP JUMPDEST PUSH1 0x40 MLOAD PUSH2 0x131 SWAP2 SWAP1 PUSH2 0x1190 JUMP JUMPDEST PUSH1 0x40 MLOAD DUP1 SWAP2 SUB SWAP1 RETURN JUMPDEST PUSH2 0x154 PUSH1 0x4 DUP1 CALLDATASIZE SUB DUP2 ADD SWAP1 PUSH2 0x14F SWAP2 SWAP1 PUSH2 0x1073 JUMP JUMPDEST PUSH2 0xC31 JUMP JUMPDEST PUSH1 0x40 MLOAD PUSH2 0x162 SWAP3 SWAP2 SWAP1 PUSH2 0x11B2 JUMP JUMPDEST PUSH1 0x40 MLOAD DUP1 SWAP2 SUB SWAP1 RETURN JUMPDEST PUSH2 0x185 PUSH1 0x4 DUP1 CALLDATASIZE SUB DUP2 ADD SWAP1 PUSH2 0x180 SWAP2 SWAP1 PUSH2 0x131E JUMP JUMPDEST PUSH2 0xE2F JUMP JUMPDEST STOP JUMPDEST PUSH1 0x0 DUP1 CALLER PUSH20 0xFFFFFFFFFFFFFFFFFFFFFFFFFFFFFFFFFFFFFFFF AND PUSH20 0xFFFFFFFFFFFFFFFFFFFFFFFFFFFFFFFFFFFFFFFF AND DUP2 MSTORE PUSH1 0x20 ADD SWAP1 DUP2 MSTORE PUSH1 0x20 ADD PUSH1 0x0 KECCAK256 PUSH1 0x1 ADD PUSH1 0x0 SWAP1 SLOAD SWAP1 PUSH2 0x100 EXP SWAP1 DIV PUSH1 0xFF AND PUSH2 0x215 JUMPI PUSH1 0x40 MLOAD PUSH32 0x8C379A000000000000000000000000000000000000000000000000000000000 DUP2 MSTORE PUSH1 0x4 ADD PUSH2 0x20C SWAP1 PUSH2 0x13E2 JUMP JUMPDEST PUSH1 0x40 MLOAD DUP1 SWAP2 SUB SWAP1 REVERT JUMPDEST PUSH1 0x40 MLOAD DUP1 PUSH1 0x60 ADD PUSH1 0x40 MSTORE DUP1 PUSH1 0x40 MLOAD DUP1 PUSH1 0x20 ADD PUSH1 0x40 MSTORE DUP1 PUSH1 0x0 DUP2 MSTORE POP DUP2 MSTORE PUSH1 0x20 ADD PUSH1 0x0 ISZERO ISZERO DUP2 MSTORE PUSH1 0x20 ADD PUSH1 0x40 MLOAD DUP1 PUSH1 0x20 ADD PUSH1 0x40 MSTORE DUP1 PUSH1 0x0 DUP2 MSTORE POP DUP2 MSTORE POP PUSH1 0x0 DUP1 CALLER PUSH20 0xFFFFFFFFFFFFFFFFFFFFFFFFFFFFFFFFFFFFFFFF AND PUSH20 0xFFFFFFFFFFFFFFFFFFFFFFFFFFFFFFFFFFFFFFFF AND DUP2 MSTORE PUSH1 0x20 ADD SWAP1 DUP2 MSTORE PUSH1 0x20 ADD PUSH1 0x0 KECCAK256 PUSH1 0x0 DUP3 ADD MLOAD DUP2 PUSH1 0x0 ADD SWAP1 DUP2 PUSH2 0x2A4 SWAP2 SWAP1 PUSH2 0x1618 JUMP JUMPDEST POP PUSH1 0x20 DUP3 ADD MLOAD DUP2 PUSH1 0x1 ADD PUSH1 0x0 PUSH2 0x100 EXP DUP2 SLOAD DUP2 PUSH1 0xFF MUL NOT AND SWAP1 DUP4 ISZERO ISZERO MUL OR SWAP1 SSTORE POP PUSH1 0x40 DUP3 ADD MLOAD DUP2 PUSH1 0x2 ADD SWAP1 DUP2 PUSH2 0x2DA SWAP2 SWAP1 PUSH2 0x1618 JUMP JUMPDEST POP SWAP1 POP POP CALLER PUSH20 0xFFFFFFFFFFFFFFFFFFFFFFFFFFFFFFFFFFFFFFFF AND PUSH32 0xD535C2E59A2F16F058B1B296BEF26CC2579FFC7F69AAF7B53F536943CB6A7543 PUSH1 0x40 MLOAD PUSH1 0x40 MLOAD DUP1 SWAP2 SUB SWAP1 LOG2 JUMP JUMPDEST PUSH1 0x0 PUSH1 0x20 MSTORE DUP1 PUSH1 0x0 MSTORE PUSH1 0x40 PUSH1 0x0 KECCAK256 PUSH1 0x0 SWAP2 POP SWAP1 POP DUP1 PUSH1 0x0 ADD DUP1 SLOAD PUSH2 0x346 SWAP1 PUSH2 0x1431 JUMP JUMPDEST DUP1 PUSH1 0x1F ADD PUSH1 0x20 DUP1 SWAP2 DIV MUL PUSH1 0x20 ADD PUSH1 0x40 MLOAD SWAP1 DUP2 ADD PUSH1 0x40 MSTORE DUP1 SWAP3 SWAP2 SWAP1 DUP2 DUP2 MSTORE PUSH1 0x20 ADD DUP3 DUP1 SLOAD PUSH2 0x372 SWAP1 PUSH2 0x1431 JUMP JUMPDEST DUP1 ISZERO PUSH2 0x3BF JUMPI DUP1 PUSH1 0x1F LT PUSH2 0x394 JUMPI PUSH2 0x100 DUP1 DUP4 SLOAD DIV MUL DUP4 MSTORE SWAP2 PUSH1 0x20 ADD SWAP2 PUSH2 0x3BF JUMP JUMPDEST DUP3 ADD SWAP2 SWAP1 PUSH1 0x0 MSTORE PUSH1 0x20 PUSH1 0x0 KECCAK256 SWAP1 JUMPDEST DUP2 SLOAD DUP2 MSTORE SWAP1 PUSH1 0x1 ADD SWAP1 PUSH1 0x20 ADD DUP1 DUP4 GT PUSH2 0x3A2 JUMPI DUP3 SWAP1 SUB PUSH1 0x1F AND DUP3 ADD SWAP2 JUMPDEST POP POP POP POP POP SWAP1 DUP1 PUSH1 0x1 ADD PUSH1 0x0 SWAP1 SLOAD SWAP1 PUSH2 0x100 EXP SWAP1 DIV PUSH1 0xFF AND SWAP1 DUP1 PUSH1 0x2 ADD DUP1 SLOAD PUSH2 0x3E7 SWAP1 PUSH2 0x1431 JUMP JUMPDEST DUP1 PUSH1 0x1F ADD PUSH1 0x20 DUP1 SWAP2 DIV MUL PUSH1 0x20 ADD PUSH1 0x40 MLOAD SWAP1 DUP2 ADD PUSH1 0x40 MSTORE DUP1 SWAP3 SWAP2 SWAP1 DUP2 DUP2 MSTORE PUSH1 0x20 ADD DUP3 DUP1 SLOAD PUSH2 0x413 SWAP1 PUSH2 0x1431 JUMP JUMPDEST DUP1 ISZERO PUSH2 0x460 JUMPI DUP1 PUSH1 0x1F LT PUSH2 0x435 JUMPI PUSH2 0x100 DUP1 DUP4 SLOAD DIV MUL DUP4 MSTORE SWAP2 PUSH1 0x20 ADD SWAP2 PUSH2 0x460 JUMP JUMPDEST DUP3 ADD SWAP2 SWAP1 PUSH1 0x0 MSTORE PUSH1 0x20 PUSH1 0x0 KECCAK256 SWAP1 JUMPDEST DUP2 SLOAD DUP2 MSTORE SWAP1 PUSH1 0x1 ADD SWAP1 PUSH1 0x20 ADD DUP1 DUP4 GT PUSH2 0x443 JUMPI DUP3 SWAP1 SUB PUSH1 0x1F AND DUP3 ADD SWAP2 JUMPDEST POP POP POP POP POP SWAP1 POP DUP4 JUMP JUMPDEST PUSH1 0x60 PUSH1 0x0 DUP1 PUSH1 0x0 DUP5 PUSH20 0xFFFFFFFFFFFFFFFFFFFFFFFFFFFFFFFFFFFFFFFF AND PUSH20 0xFFFFFFFFFFFFFFFFFFFFFFFFFFFFFFFFFFFFFFFF AND DUP2 MSTORE PUSH1 0x20 ADD SWAP1 DUP2 MSTORE PUSH1 0x20 ADD PUSH1 0x0 KECCAK256 PUSH1 0x40 MLOAD DUP1 PUSH1 0x60 ADD PUSH1 0x40 MSTORE SWAP1 DUP2 PUSH1 0x0 DUP3 ADD DUP1 SLOAD PUSH2 0x4C7 SWAP1 PUSH2 0x1431 JUMP JUMPDEST DUP1 PUSH1 0x1F ADD PUSH1 0x20 DUP1 SWAP2 DIV MUL PUSH1 0x20 ADD PUSH1 0x40 MLOAD SWAP1 DUP2 ADD PUSH1 0x40 MSTORE DUP1 SWAP3 SWAP2 SWAP1 DUP2 DUP2 MSTORE PUSH1 0x20 ADD DUP3 DUP1 SLOAD PUSH2 0x4F3 SWAP1 PUSH2 0x1431 JUMP JUMPDEST DUP1 ISZERO PUSH2 0x540 JUMPI DUP1 PUSH1 0x1F LT PUSH2 0x515 JUMPI PUSH2 0x100 DUP1 DUP4 SLOAD DIV MUL DUP4 MSTORE SWAP2 PUSH1 0x20 ADD SWAP2 PUSH2 0x540 JUMP JUMPDEST DUP3 ADD SWAP2 SWAP1 PUSH1 0x0 MSTORE PUSH1 0x20 PUSH1 0x0 KECCAK256 SWAP1 JUMPDEST DUP2 SLOAD DUP2 MSTORE SWAP1 PUSH1 0x1 ADD SWAP1 PUSH1 0x20 ADD DUP1 DUP4 GT PUSH2 0x523 JUMPI DUP3 SWAP1 SUB PUSH1 0x1F AND DUP3 ADD SWAP2 JUMPDEST POP POP POP POP POP DUP2 MSTORE PUSH1 0x20 ADD PUSH1 0x1 DUP3 ADD PUSH1 0x0 SWAP1 SLOAD SWAP1 PUSH2 0x100 EXP SWAP1 DIV PUSH1 0xFF AND ISZERO ISZERO ISZERO ISZERO DUP2 MSTORE PUSH1 0x20 ADD PUSH1 0x2 DUP3 ADD DUP1 SLOAD PUSH2 0x574 SWAP1 PUSH2 0x1431 JUMP JUMPDEST DUP1 PUSH1 0x1F ADD PUSH1 0x20 DUP1 SWAP2 DIV MUL PUSH1 0x20 ADD PUSH1 0x40 MLOAD SWAP1 DUP2 ADD PUSH1 0x40 MSTORE DUP1 SWAP3 SWAP2 SWAP1 DUP2 DUP2 MSTORE PUSH1 0x20 ADD DUP3 DUP1 SLOAD PUSH2 0x5A0 SWAP1 PUSH2 0x1431 JUMP JUMPDEST DUP1 ISZERO PUSH2 0x5ED JUMPI DUP1 PUSH1 0x1F LT PUSH2 0x5C2 JUMPI PUSH2 0x100 DUP1 DUP4 SLOAD DIV MUL DUP4 MSTORE SWAP2 PUSH1 0x20 ADD SWAP2 PUSH2 0x5ED JUMP JUMPDEST DUP3 ADD SWAP2 SWAP1 PUSH1 0x0 MSTORE PUSH1 0x20 PUSH1 0x0 KECCAK256 SWAP1 JUMPDEST DUP2 SLOAD DUP2 MSTORE SWAP1 PUSH1 0x1 ADD SWAP1 PUSH1 0x20 ADD DUP1 DUP4 GT PUSH2 0x5D0 JUMPI DUP3 SWAP1 SUB PUSH1 0x1F AND DUP3 ADD SWAP2 JUMPDEST POP POP POP POP POP DUP2 MSTORE POP POP SWAP1 POP DUP1 PUSH1 0x40 ADD MLOAD SWAP2 POP POP SWAP2 SWAP1 POP JUMP JUMPDEST PUSH1 0x0 DUP1 PUSH1 0x0 CALLER PUSH20 0xFFFFFFFFFFFFFFFFFFFFFFFFFFFFFFFFFFFFFFFF AND PUSH20 0xFFFFFFFFFFFFFFFFFFFFFFFFFFFFFFFFFFFFFFFF AND DUP2 MSTORE PUSH1 0x20 ADD SWAP1 DUP2 MSTORE PUSH1 0x20 ADD PUSH1 0x0 KECCAK256 PUSH1 0x40 MLOAD DUP1 PUSH1 0x60 ADD PUSH1 0x40 MSTORE SWAP1 DUP2 PUSH1 0x0 DUP3 ADD DUP1 SLOAD PUSH2 0x660 SWAP1 PUSH2 0x1431 JUMP JUMPDEST DUP1 PUSH1 0x1F ADD PUSH1 0x20 DUP1 SWAP2 DIV MUL PUSH1 0x20 ADD PUSH1 0x40 MLOAD SWAP1 DUP2 ADD PUSH1 0x40 MSTORE DUP1 SWAP3 SWAP2 SWAP1 DUP2 DUP2 MSTORE PUSH1 0x20 ADD DUP3 DUP1 SLOAD PUSH2 0x68C SWAP1 PUSH2 0x1431 JUMP JUMPDEST DUP1 ISZERO PUSH2 0x6D9 JUMPI DUP1 PUSH1 0x1F LT PUSH2 0x6AE JUMPI PUSH2 0x100 DUP1 DUP4 SLOAD DIV MUL DUP4 MSTORE SWAP2 PUSH1 0x20 ADD SWAP2 PUSH2 0x6D9 JUMP JUMPDEST DUP3 ADD SWAP2 SWAP1 PUSH1 0x0 MSTORE PUSH1 0x20 PUSH1 0x0 KECCAK256 SWAP1 JUMPDEST DUP2 SLOAD DUP2 MSTORE SWAP1 PUSH1 0x1 ADD SWAP1 PUSH1 0x20 ADD DUP1 DUP4 GT PUSH2 0x6BC JUMPI DUP3 SWAP1 SUB PUSH1 0x1F AND DUP3 ADD SWAP2 JUMPDEST POP POP POP POP POP DUP2 MSTORE PUSH1 0x20 ADD PUSH1 0x1 DUP3 ADD PUSH1 0x0 SWAP1 SLOAD SWAP1 PUSH2 0x100 EXP SWAP1 DIV PUSH1 0xFF AND ISZERO ISZERO ISZERO ISZERO DUP2 MSTORE PUSH1 0x20 ADD PUSH1 0x2 DUP3 ADD DUP1 SLOAD PUSH2 0x70D SWAP1 PUSH2 0x1431 JUMP JUMPDEST DUP1 PUSH1 0x1F ADD PUSH1 0x20 DUP1 SWAP2 DIV MUL PUSH1 0x20 ADD PUSH1 0x40 MLOAD SWAP1 DUP2 ADD PUSH1 0x40 MSTORE DUP1 SWAP3 SWAP2 SWAP1 DUP2 DUP2 MSTORE PUSH1 0x20 ADD DUP3 DUP1 SLOAD PUSH2 0x739 SWAP1 PUSH2 0x1431 JUMP JUMPDEST DUP1 ISZERO PUSH2 0x786 JUMPI DUP1 PUSH1 0x1F LT PUSH2 0x75B JUMPI PUSH2 0x100 DUP1 DUP4 SLOAD DIV MUL DUP4 MSTORE SWAP2 PUSH1 0x20 ADD SWAP2 PUSH2 0x786 JUMP JUMPDEST DUP3 ADD SWAP2 SWAP1 PUSH1 0x0 MSTORE PUSH1 0x20 PUSH1 0x0 KECCAK256 SWAP1 JUMPDEST DUP2 SLOAD DUP2 MSTORE SWAP1 PUSH1 0x1 ADD SWAP1 PUSH1 0x20 ADD DUP1 DUP4 GT PUSH2 0x769 JUMPI DUP3 SWAP1 SUB PUSH1 0x1F AND DUP3 ADD SWAP2 JUMPDEST POP POP POP POP POP DUP2 MSTORE POP POP SWAP1 POP DUP1 PUSH1 0x20 ADD MLOAD PUSH2 0x7D5 JUMPI PUSH1 0x40 MLOAD PUSH32 0x8C379A000000000000000000000000000000000000000000000000000000000 DUP2 MSTORE PUSH1 0x4 ADD PUSH2 0x7CC SWAP1 PUSH2 0x13E2 JUMP JUMPDEST PUSH1 0x40 MLOAD DUP1 SWAP2 SUB SWAP1 REVERT JUMPDEST PUSH1 0x0 DUP1 DUP4 PUSH20 0xFFFFFFFFFFFFFFFFFFFFFFFFFFFFFFFFFFFFFFFF AND PUSH20 0xFFFFFFFFFFFFFFFFFFFFFFFFFFFFFFFFFFFFFFFF AND DUP2 MSTORE PUSH1 0x20 ADD SWAP1 DUP2 MSTORE PUSH1 0x20 ADD PUSH1 0x0 KECCAK256 PUSH1 0x1 ADD PUSH1 0x0 SWAP1 SLOAD SWAP1 PUSH2 0x100 EXP SWAP1 DIV PUSH1 0xFF AND ISZERO PUSH2 0x864 JUMPI PUSH1 0x40 MLOAD PUSH32 0x8C379A000000000000000000000000000000000000000000000000000000000 DUP2 MSTORE PUSH1 0x4 ADD PUSH2 0x85B SWAP1 PUSH2 0x175C JUMP JUMPDEST PUSH1 0x40 MLOAD DUP1 SWAP2 SUB SWAP1 REVERT JUMPDEST PUSH1 0x40 MLOAD DUP1 PUSH1 0x60 ADD PUSH1 0x40 MSTORE DUP1 DUP3 PUSH1 0x0 ADD MLOAD DUP2 MSTORE PUSH1 0x20 ADD PUSH1 0x1 ISZERO ISZERO DUP2 MSTORE PUSH1 0x20 ADD DUP3 PUSH1 0x40 ADD MLOAD DUP2 MSTORE POP PUSH1 0x0 DUP1 DUP5 PUSH20 0xFFFFFFFFFFFFFFFFFFFFFFFFFFFFFFFFFFFFFFFF AND PUSH20 0xFFFFFFFFFFFFFFFFFFFFFFFFFFFFFFFFFFFFFFFF AND DUP2 MSTORE PUSH1 0x20 ADD SWAP1 DUP2 MSTORE PUSH1 0x20 ADD PUSH1 0x0 KECCAK256 PUSH1 0x0 DUP3 ADD MLOAD DUP2 PUSH1 0x0 ADD SWAP1 DUP2 PUSH2 0x8DD SWAP2 SWAP1 PUSH2 0x1618 JUMP JUMPDEST POP PUSH1 0x20 DUP3 ADD MLOAD DUP2 PUSH1 0x1 ADD PUSH1 0x0 PUSH2 0x100 EXP DUP2 SLOAD DUP2 PUSH1 0xFF MUL NOT AND SWAP1 DUP4 ISZERO ISZERO MUL OR SWAP1 SSTORE POP PUSH1 0x40 DUP3 ADD MLOAD DUP2 PUSH1 0x2 ADD SWAP1 DUP2 PUSH2 0x913 SWAP2 SWAP1 PUSH2 0x1618 JUMP JUMPDEST POP SWAP1 POP POP PUSH1 0x40 MLOAD DUP1 PUSH1 0x60 ADD PUSH1 0x40 MSTORE DUP1 PUSH1 0x40 MLOAD DUP1 PUSH1 0x20 ADD PUSH1 0x40 MSTORE DUP1 PUSH1 0x0 DUP2 MSTORE POP DUP2 MSTORE PUSH1 0x20 ADD PUSH1 0x0 ISZERO ISZERO DUP2 MSTORE PUSH1 0x20 ADD PUSH1 0x40 MLOAD DUP1 PUSH1 0x20 ADD PUSH1 0x40 MSTORE DUP1 PUSH1 0x0 DUP2 MSTORE POP DUP2 MSTORE POP PUSH1 0x0 DUP1 CALLER PUSH20 0xFFFFFFFFFFFFFFFFFFFFFFFFFFFFFFFFFFFFFFFF AND PUSH20 0xFFFFFFFFFFFFFFFFFFFFFFFFFFFFFFFFFFFFFFFF AND DUP2 MSTORE PUSH1 0x20 ADD SWAP1 DUP2 MSTORE PUSH1 0x20 ADD PUSH1 0x0 KECCAK256 PUSH1 0x0 DUP3 ADD MLOAD DUP2 PUSH1 0x0 ADD SWAP1 DUP2 PUSH2 0x9A6 SWAP2 SWAP1 PUSH2 0x1618 JUMP JUMPDEST POP PUSH1 0x20 DUP3 ADD MLOAD DUP2 PUSH1 0x1 ADD PUSH1 0x0 PUSH2 0x100 EXP DUP2 SLOAD DUP2 PUSH1 0xFF MUL NOT AND SWAP1 DUP4 ISZERO ISZERO MUL OR SWAP1 SSTORE POP PUSH1 0x40 DUP3 ADD MLOAD DUP2 PUSH1 0x2 ADD SWAP1 DUP2 PUSH2 0x9DC SWAP2 SWAP1 PUSH2 0x1618 JUMP JUMPDEST POP SWAP1 POP POP DUP2 PUSH20 0xFFFFFFFFFFFFFFFFFFFFFFFFFFFFFFFFFFFFFFFF AND CALLER PUSH20 0xFFFFFFFFFFFFFFFFFFFFFFFFFFFFFFFFFFFFFFFF AND PUSH32 0x61CE72876DF632C9CEA54F37E843A14873BC9A7ABD2F79797A8A00E467081F3C DUP4 PUSH1 0x0 ADD MLOAD PUSH1 0x40 MLOAD PUSH2 0xA41 SWAP2 SWAP1 PUSH2 0x1190 JUMP JUMPDEST PUSH1 0x40 MLOAD DUP1 SWAP2 SUB SWAP1 LOG3 POP POP JUMP JUMPDEST PUSH1 0x60 PUSH1 0x0 DUP1 PUSH1 0x0 DUP5 PUSH20 0xFFFFFFFFFFFFFFFFFFFFFFFFFFFFFFFFFFFFFFFF AND PUSH20 0xFFFFFFFFFFFFFFFFFFFFFFFFFFFFFFFFFFFFFFFF AND DUP2 MSTORE PUSH1 0x20 ADD SWAP1 DUP2 MSTORE PUSH1 0x20 ADD PUSH1 0x0 KECCAK256 PUSH1 0x40 MLOAD DUP1 PUSH1 0x60 ADD PUSH1 0x40 MSTORE SWAP1 DUP2 PUSH1 0x0 DUP3 ADD DUP1 SLOAD PUSH2 0xAAA SWAP1 PUSH2 0x1431 JUMP JUMPDEST DUP1 PUSH1 0x1F ADD PUSH1 0x20 DUP1 SWAP2 DIV MUL PUSH1 0x20 ADD PUSH1 0x40 MLOAD SWAP1 DUP2 ADD PUSH1 0x40 MSTORE DUP1 SWAP3 SWAP2 SWAP1 DUP2 DUP2 MSTORE PUSH1 0x20 ADD DUP3 DUP1 SLOAD PUSH2 0xAD6 SWAP1 PUSH2 0x1431 JUMP JUMPDEST DUP1 ISZERO PUSH2 0xB23 JUMPI DUP1 PUSH1 0x1F LT PUSH2 0xAF8 JUMPI PUSH2 0x100 DUP1 DUP4 SLOAD DIV MUL DUP4 MSTORE SWAP2 PUSH1 0x20 ADD SWAP2 PUSH2 0xB23 JUMP JUMPDEST DUP3 ADD SWAP2 SWAP1 PUSH1 0x0 MSTORE PUSH1 0x20 PUSH1 0x0 KECCAK256 SWAP1 JUMPDEST DUP2 SLOAD DUP2 MSTORE SWAP1 PUSH1 0x1 ADD SWAP1 PUSH1 0x20 ADD DUP1 DUP4 GT PUSH2 0xB06 JUMPI DUP3 SWAP1 SUB PUSH1 0x1F AND DUP3 ADD SWAP2 JUMPDEST POP POP POP POP POP DUP2 MSTORE PUSH1 0x20 ADD PUSH1 0x1 DUP3 ADD PUSH1 0x0 SWAP1 SLOAD SWAP1 PUSH2 0x100 EXP SWAP1 DIV PUSH1 0xFF AND ISZERO ISZERO ISZERO ISZERO DUP2 MSTORE PUSH1 0x20 ADD PUSH1 0x2 DUP3 ADD DUP1 SLOAD PUSH2 0xB57 SWAP1 PUSH2 0x1431 JUMP JUMPDEST DUP1 PUSH1 0x1F ADD PUSH1 0x20 DUP1 SWAP2 DIV MUL PUSH1 0x20 ADD PUSH1 0x40 MLOAD SWAP1 DUP2 ADD PUSH1 0x40 MSTORE DUP1 SWAP3 SWAP2 SWAP1 DUP2 DUP2 MSTORE PUSH1 0x20 ADD DUP3 DUP1 SLOAD PUSH2 0xB83 SWAP1 PUSH2 0x1431 JUMP JUMPDEST DUP1 ISZERO PUSH2 0xBD0 JUMPI DUP1 PUSH1 0x1F LT PUSH2 0xBA5 JUMPI PUSH2 0x100 DUP1 DUP4 SLOAD DIV MUL DUP4 MSTORE SWAP2 PUSH1 0x20 ADD SWAP2 PUSH2 0xBD0 JUMP JUMPDEST DUP3 ADD SWAP2 SWAP1 PUSH1 0x0 MSTORE PUSH1 0x20 PUSH1 0x0 KECCAK256 SWAP1 JUMPDEST DUP2 SLOAD DUP2 MSTORE SWAP1 PUSH1 0x1 ADD SWAP1 PUSH1 0x20 ADD DUP1 DUP4 GT PUSH2 0xBB3 JUMPI DUP3 SWAP1 SUB PUSH1 0x1F AND DUP3 ADD SWAP2 JUMPDEST POP POP POP POP POP DUP2 MSTORE POP POP SWAP1 POP DUP1 PUSH1 0x20 ADD MLOAD ISZERO PUSH2 0xBF2 JUMPI DUP1 PUSH1 0x0 ADD MLOAD SWAP2 POP POP PUSH2 0xC2C JUMP JUMPDEST PUSH1 0x40 MLOAD DUP1 PUSH1 0x40 ADD PUSH1 0x40 MSTORE DUP1 PUSH1 0x9 DUP2 MSTORE PUSH1 0x20 ADD PUSH32 0x6E6F7420666F756E640000000000000000000000000000000000000000000000 DUP2 MSTORE POP SWAP2 POP POP JUMPDEST SWAP2 SWAP1 POP JUMP JUMPDEST PUSH1 0x60 DUP1 PUSH1 0x0 DUP1 PUSH1 0x0 DUP6 PUSH20 0xFFFFFFFFFFFFFFFFFFFFFFFFFFFFFFFFFFFFFFFF AND PUSH20 0xFFFFFFFFFFFFFFFFFFFFFFFFFFFFFFFFFFFFFFFF AND DUP2 MSTORE PUSH1 0x20 ADD SWAP1 DUP2 MSTORE PUSH1 0x20 ADD PUSH1 0x0 KECCAK256 PUSH1 0x40 MLOAD DUP1 PUSH1 0x60 ADD PUSH1 0x40 MSTORE SWAP1 DUP2 PUSH1 0x0 DUP3 ADD DUP1 SLOAD PUSH2 0xC8F SWAP1 PUSH2 0x1431 JUMP JUMPDEST DUP1 PUSH1 0x1F ADD PUSH1 0x20 DUP1 SWAP2 DIV MUL PUSH1 0x20 ADD PUSH1 0x40 MLOAD SWAP1 DUP2 ADD PUSH1 0x40 MSTORE DUP1 SWAP3 SWAP2 SWAP1 DUP2 DUP2 MSTORE PUSH1 0x20 ADD DUP3 DUP1 SLOAD PUSH2 0xCBB SWAP1 PUSH2 0x1431 JUMP JUMPDEST DUP1 ISZERO PUSH2 0xD08 JUMPI DUP1 PUSH1 0x1F LT PUSH2 0xCDD JUMPI PUSH2 0x100 DUP1 DUP4 SLOAD DIV MUL DUP4 MSTORE SWAP2 PUSH1 0x20 ADD SWAP2 PUSH2 0xD08 JUMP JUMPDEST DUP3 ADD SWAP2 SWAP1 PUSH1 0x0 MSTORE PUSH1 0x20 PUSH1 0x0 KECCAK256 SWAP1 JUMPDEST DUP2 SLOAD DUP2 MSTORE SWAP1 PUSH1 0x1 ADD SWAP1 PUSH1 0x20 ADD DUP1 DUP4 GT PUSH2 0xCEB JUMPI DUP3 SWAP1 SUB PUSH1 0x1F AND DUP3 ADD SWAP2 JUMPDEST POP POP POP POP POP DUP2 MSTORE PUSH1 0x20 ADD PUSH1 0x1 DUP3 ADD PUSH1 0x0 SWAP1 SLOAD SWAP1 PUSH2 0x100 EXP SWAP1 DIV PUSH1 0xFF AND ISZERO ISZERO ISZERO ISZERO DUP2 MSTORE PUSH1 0x20 ADD PUSH1 0x2 DUP3 ADD DUP1 SLOAD PUSH2 0xD3C SWAP1 PUSH2 0x1431 JUMP JUMPDEST DUP1 PUSH1 0x1F ADD PUSH1 0x20 DUP1 SWAP2 DIV MUL PUSH1 0x20 ADD PUSH1 0x40 MLOAD SWAP1 DUP2 ADD PUSH1 0x40 MSTORE DUP1 SWAP3 SWAP2 SWAP1 DUP2 DUP2 MSTORE PUSH1 0x20 ADD DUP3 DUP1 SLOAD PUSH2 0xD68 SWAP1 PUSH2 0x1431 JUMP JUMPDEST DUP1 ISZERO PUSH2 0xDB5 JUMPI DUP1 PUSH1 0x1F LT PUSH2 0xD8A JUMPI PUSH2 0x100 DUP1 DUP4 SLOAD DIV MUL DUP4 MSTORE SWAP2 PUSH1 0x20 ADD SWAP2 PUSH2 0xDB5 JUMP JUMPDEST DUP3 ADD SWAP2 SWAP1 PUSH1 0x0 MSTORE PUSH1 0x20 PUSH1 0x0 KECCAK256 SWAP1 JUMPDEST DUP2 SLOAD DUP2 MSTORE SWAP1 PUSH1 0x1 ADD SWAP1 PUSH1 0x20 ADD DUP1 DUP4 GT PUSH2 0xD98 JUMPI DUP3 SWAP1 SUB PUSH1 0x1F AND DUP3 ADD SWAP2 JUMPDEST POP POP POP POP POP DUP2 MSTORE POP POP SWAP1 POP DUP1 PUSH1 0x20 ADD MLOAD ISZERO PUSH2 0xDDE JUMPI DUP1 PUSH1 0x0 ADD MLOAD DUP2 PUSH1 0x40 ADD MLOAD SWAP3 POP SWAP3 POP POP PUSH2 0xE2A JUMP JUMPDEST PUSH1 0x40 MLOAD DUP1 PUSH1 0x40 ADD PUSH1 0x40 MSTORE DUP1 PUSH1 0x9 DUP2 MSTORE PUSH1 0x20 ADD PUSH32 0x6E6F7420666F756E640000000000000000000000000000000000000000000000 DUP2 MSTORE POP PUSH1 0x40 MLOAD DUP1 PUSH1 0x20 ADD PUSH1 0x40 MSTORE DUP1 PUSH1 0x0 DUP2 MSTORE POP SWAP3 POP SWAP3 POP POP JUMPDEST SWAP2 POP SWAP2 JUMP JUMPDEST PUSH1 0x0 DUP3 MLOAD GT PUSH2 0xE73 JUMPI PUSH1 0x40 MLOAD PUSH32 0x8C379A000000000000000000000000000000000000000000000000000000000 DUP2 MSTORE PUSH1 0x4 ADD PUSH2 0xE6A SWAP1 PUSH2 0x17C8 JUMP JUMPDEST PUSH1 0x40 MLOAD DUP1 SWAP2 SUB SWAP1 REVERT JUMPDEST PUSH1 0x0 DUP1 CALLER PUSH20 0xFFFFFFFFFFFFFFFFFFFFFFFFFFFFFFFFFFFFFFFF AND PUSH20 0xFFFFFFFFFFFFFFFFFFFFFFFFFFFFFFFFFFFFFFFF AND DUP2 MSTORE PUSH1 0x20 ADD SWAP1 DUP2 MSTORE PUSH1 0x20 ADD PUSH1 0x0 KECCAK256 PUSH1 0x1 ADD PUSH1 0x0 SWAP1 SLOAD SWAP1 PUSH2 0x100 EXP SWAP1 DIV PUSH1 0xFF AND ISZERO PUSH2 0xF02 JUMPI PUSH1 0x40 MLOAD PUSH32 0x8C379A000000000000000000000000000000000000000000000000000000000 DUP2 MSTORE PUSH1 0x4 ADD PUSH2 0xEF9 SWAP1 PUSH2 0x1834 JUMP JUMPDEST PUSH1 0x40 MLOAD DUP1 SWAP2 SUB SWAP1 REVERT JUMPDEST PUSH1 0x40 MLOAD DUP1 PUSH1 0x60 ADD PUSH1 0x40 MSTORE DUP1 DUP4 DUP2 MSTORE PUSH1 0x20 ADD PUSH1 0x1 ISZERO ISZERO DUP2 MSTORE PUSH1 0x20 ADD DUP3 DUP2 MSTORE POP PUSH1 0x0 DUP1 CALLER PUSH20 0xFFFFFFFFFFFFFFFFFFFFFFFFFFFFFFFFFFFFFFFF AND PUSH20 0xFFFFFFFFFFFFFFFFFFFFFFFFFFFFFFFFFFFFFFFF AND DUP2 MSTORE PUSH1 0x20 ADD SWAP1 DUP2 MSTORE PUSH1 0x20 ADD PUSH1 0x0 KECCAK256 PUSH1 0x0 DUP3 ADD MLOAD DUP2 PUSH1 0x0 ADD SWAP1 DUP2 PUSH2 0xF73 SWAP2 SWAP1 PUSH2 0x1618 JUMP JUMPDEST POP PUSH1 0x20 DUP3 ADD MLOAD DUP2 PUSH1 0x1 ADD PUSH1 0x0 PUSH2 0x100 EXP DUP2 SLOAD DUP2 PUSH1 0xFF MUL NOT AND SWAP1 DUP4 ISZERO ISZERO MUL OR SWAP1 SSTORE POP PUSH1 0x40 DUP3 ADD MLOAD DUP2 PUSH1 0x2 ADD SWAP1 DUP2 PUSH2 0xFA9 SWAP2 SWAP1 PUSH2 0x1618 JUMP JUMPDEST POP SWAP1 POP POP CALLER PUSH20 0xFFFFFFFFFFFFFFFFFFFFFFFFFFFFFFFFFFFFFFFF AND PUSH32 0x7373AF3F7DEF70B6F0BBF022C5EB5E8A393E1F6BB048F8CCDF3313D2A50905D8 DUP4 DUP4 PUSH1 0x40 MLOAD PUSH2 0xFF5 SWAP3 SWAP2 SWAP1 PUSH2 0x11B2 JUMP JUMPDEST PUSH1 0x40 MLOAD DUP1 SWAP2 SUB SWAP1 LOG2 POP POP JUMP JUMPDEST PUSH1 0x0 PUSH1 0x40 MLOAD SWAP1 POP SWAP1 JUMP JUMPDEST PUSH1 0x0 DUP1 REVERT JUMPDEST PUSH1 0x0 DUP1 REVERT JUMPDEST PUSH1 0x0 PUSH20 0xFFFFFFFFFFFFFFFFFFFFFFFFFFFFFFFFFFFFFFFF DUP3 AND SWAP1 POP SWAP2 SWAP1 POP JUMP JUMPDEST PUSH1 0x0 PUSH2 0x1040 DUP3 PUSH2 0x1015 JUMP JUMPDEST SWAP1 POP SWAP2 SWAP1 POP JUMP JUMPDEST PUSH2 0x1050 DUP2 PUSH2 0x1035 JUMP JUMPDEST DUP2 EQ PUSH2 0x105B JUMPI PUSH1 0x0 DUP1 REVERT JUMPDEST POP JUMP JUMPDEST PUSH1 0x0 DUP2 CALLDATALOAD SWAP1 POP PUSH2 0x106D DUP2 PUSH2 0x1047 JUMP JUMPDEST SWAP3 SWAP2 POP POP JUMP JUMPDEST PUSH1 0x0 PUSH1 0x20 DUP3 DUP5 SUB SLT ISZERO PUSH2 0x1089 JUMPI PUSH2 0x1088 PUSH2 0x100B JUMP JUMPDEST JUMPDEST PUSH1 0x0 PUSH2 0x1097 DUP5 DUP3 DUP6 ADD PUSH2 0x105E JUMP JUMPDEST SWAP2 POP POP SWAP3 SWAP2 POP POP JUMP JUMPDEST PUSH1 0x0 DUP2 MLOAD SWAP1 POP SWAP2 SWAP1 POP JUMP JUMPDEST PUSH1 0x0 DUP3 DUP3 MSTORE PUSH1 0x20 DUP3 ADD SWAP1 POP SWAP3 SWAP2 POP POP JUMP JUMPDEST PUSH1 0x0 JUMPDEST DUP4 DUP2 LT ISZERO PUSH2 0x10DA JUMPI DUP1 DUP3 ADD MLOAD DUP2 DUP5 ADD MSTORE PUSH1 0x20 DUP2 ADD SWAP1 POP PUSH2 0x10BF JUMP JUMPDEST PUSH1 0x0 DUP5 DUP5 ADD MSTORE POP POP POP POP JUMP JUMPDEST PUSH1 0x0 PUSH1 0x1F NOT PUSH1 0x1F DUP4 ADD AND SWAP1 POP SWAP2 SWAP1 POP JUMP JUMPDEST PUSH1 0x0 PUSH2 0x1102 DUP3 PUSH2 0x10A0 JUMP JUMPDEST PUSH2 0x110C DUP2 DUP6 PUSH2 0x10AB JUMP JUMPDEST SWAP4 POP PUSH2 0x111C DUP2 DUP6 PUSH1 0x20 DUP7 ADD PUSH2 0x10BC JUMP JUMPDEST PUSH2 0x1125 DUP2 PUSH2 0x10E6 JUMP JUMPDEST DUP5 ADD SWAP2 POP POP SWAP3 SWAP2 POP POP JUMP JUMPDEST PUSH1 0x0 DUP2 ISZERO ISZERO SWAP1 POP SWAP2 SWAP1 POP JUMP JUMPDEST PUSH2 0x1145 DUP2 PUSH2 0x1130 JUMP JUMPDEST DUP3 MSTORE POP POP JUMP JUMPDEST PUSH1 0x0 PUSH1 0x60 DUP3 ADD SWAP1 POP DUP2 DUP2 SUB PUSH1 0x0 DUP4 ADD MSTORE PUSH2 0x1165 DUP2 DUP7 PUSH2 0x10F7 JUMP JUMPDEST SWAP1 POP PUSH2 0x1174 PUSH1 0x20 DUP4 ADD DUP6 PUSH2 0x113C JUMP JUMPDEST DUP2 DUP2 SUB PUSH1 0x40 DUP4 ADD MSTORE PUSH2 0x1186 DUP2 DUP5 PUSH2 0x10F7 JUMP JUMPDEST SWAP1 POP SWAP5 SWAP4 POP POP POP POP JUMP JUMPDEST PUSH1 0x0 PUSH1 0x20 DUP3 ADD SWAP1 POP DUP2 DUP2 SUB PUSH1 0x0 DUP4 ADD MSTORE PUSH2 0x11AA DUP2 DUP5 PUSH2 0x10F7 JUMP JUMPDEST SWAP1 POP SWAP3 SWAP2 POP POP JUMP JUMPDEST PUSH1 0x0 PUSH1 0x40 DUP3 ADD SWAP1 POP DUP2 DUP2 SUB PUSH1 0x0 DUP4 ADD MSTORE PUSH2 0x11CC DUP2 DUP6 PUSH2 0x10F7 JUMP JUMPDEST SWAP1 POP DUP2 DUP2 SUB PUSH1 0x20 DUP4 ADD MSTORE PUSH2 0x11E0 DUP2 DUP5 PUSH2 0x10F7 JUMP JUMPDEST SWAP1 POP SWAP4 SWAP3 POP POP POP JUMP JUMPDEST PUSH1 0x0 DUP1 REVERT JUMPDEST PUSH1 0x0 DUP1 REVERT JUMPDEST PUSH32 0x4E487B7100000000000000000000000000000000000000000000000000000000 PUSH1 0x0 MSTORE PUSH1 0x41 PUSH1 0x4 MSTORE PUSH1 0x24 PUSH1 0x0 REVERT JUMPDEST PUSH2 0x122B DUP3 PUSH2 0x10E6 JUMP JUMPDEST DUP2 ADD DUP2 DUP2 LT PUSH8 0xFFFFFFFFFFFFFFFF DUP3 GT OR ISZERO PUSH2 0x124A JUMPI PUSH2 0x1249 PUSH2 0x11F3 JUMP JUMPDEST JUMPDEST DUP1 PUSH1 0x40 MSTORE POP POP POP JUMP JUMPDEST PUSH1 0x0 PUSH2 0x125D PUSH2 0x1001 JUMP JUMPDEST SWAP1 POP PUSH2 0x1269 DUP3 DUP3 PUSH2 0x1222 JUMP JUMPDEST SWAP2 SWAP1 POP JUMP JUMPDEST PUSH1 0x0 PUSH8 0xFFFFFFFFFFFFFFFF DUP3 GT ISZERO PUSH2 0x1289 JUMPI PUSH2 0x1288 PUSH2 0x11F3 JUMP JUMPDEST JUMPDEST PUSH2 0x1292 DUP3 PUSH2 0x10E6 JUMP JUMPDEST SWAP1 POP PUSH1 0x20 DUP2 ADD SWAP1 POP SWAP2 SWAP1 POP JUMP JUMPDEST DUP3 DUP2 DUP4 CALLDATACOPY PUSH1 0x0 DUP4 DUP4 ADD MSTORE POP POP POP JUMP JUMPDEST PUSH1 0x0 PUSH2 0x12C1 PUSH2 0x12BC DUP5 PUSH2 0x126E JUMP JUMPDEST PUSH2 0x1253 JUMP JUMPDEST SWAP1 POP DUP3 DUP2 MSTORE PUSH1 0x20 DUP2 ADD DUP5 DUP5 DUP5 ADD GT ISZERO PUSH2 0x12DD JUMPI PUSH2 0x12DC PUSH2 0x11EE JUMP JUMPDEST JUMPDEST PUSH2 0x12E8 DUP5 DUP3 DUP6 PUSH2 0x129F JUMP JUMPDEST POP SWAP4 SWAP3 POP POP POP JUMP JUMPDEST PUSH1 0x0 DUP3 PUSH1 0x1F DUP4 ADD SLT PUSH2 0x1305 JUMPI PUSH2 0x1304 PUSH2 0x11E9 JUMP JUMPDEST JUMPDEST DUP2 CALLDATALOAD PUSH2 0x1315 DUP5 DUP3 PUSH1 0x20 DUP7 ADD PUSH2 0x12AE JUMP JUMPDEST SWAP2 POP POP SWAP3 SWAP2 POP POP JUMP JUMPDEST PUSH1 0x0 DUP1 PUSH1 0x40 DUP4 DUP6 SUB SLT ISZERO PUSH2 0x1335 JUMPI PUSH2 0x1334 PUSH2 0x100B JUMP JUMPDEST JUMPDEST PUSH1 0x0 DUP4 ADD CALLDATALOAD PUSH8 0xFFFFFFFFFFFFFFFF DUP2 GT ISZERO PUSH2 0x1353 JUMPI PUSH2 0x1352 PUSH2 0x1010 JUMP JUMPDEST JUMPDEST PUSH2 0x135F DUP6 DUP3 DUP7 ADD PUSH2 0x12F0 JUMP JUMPDEST SWAP3 POP POP PUSH1 0x20 DUP4 ADD CALLDATALOAD PUSH8 0xFFFFFFFFFFFFFFFF DUP2 GT ISZERO PUSH2 0x1380 JUMPI PUSH2 0x137F PUSH2 0x1010 JUMP JUMPDEST JUMPDEST PUSH2 0x138C DUP6 DUP3 DUP7 ADD PUSH2 0x12F0 JUMP JUMPDEST SWAP2 POP POP SWAP3 POP SWAP3 SWAP1 POP JUMP JUMPDEST PUSH32 0x41646472657373206973206E6F74207265676973746572656400000000000000 PUSH1 0x0 DUP3 ADD MSTORE POP JUMP JUMPDEST PUSH1 0x0 PUSH2 0x13CC PUSH1 0x19 DUP4 PUSH2 0x10AB JUMP JUMPDEST SWAP2 POP PUSH2 0x13D7 DUP3 PUSH2 0x1396 JUMP JUMPDEST PUSH1 0x20 DUP3 ADD SWAP1 POP SWAP2 SWAP1 POP JUMP JUMPDEST PUSH1 0x0 PUSH1 0x20 DUP3 ADD SWAP1 POP DUP2 DUP2 SUB PUSH1 0x0 DUP4 ADD MSTORE PUSH2 0x13FB DUP2 PUSH2 0x13BF JUMP JUMPDEST SWAP1 POP SWAP2 SWAP1 POP JUMP JUMPDEST PUSH32 0x4E487B7100000000000000000000000000000000000000000000000000000000 PUSH1 0x0 MSTORE PUSH1 0x22 PUSH1 0x4 MSTORE PUSH1 0x24 PUSH1 0x0 REVERT JUMPDEST PUSH1 0x0 PUSH1 0x2 DUP3 DIV SWAP1 POP PUSH1 0x1 DUP3 AND DUP1 PUSH2 0x1449 JUMPI PUSH1 0x7F DUP3 AND SWAP2 POP JUMPDEST PUSH1 0x20 DUP3 LT DUP2 SUB PUSH2 0x145C JUMPI PUSH2 0x145B PUSH2 0x1402 JUMP JUMPDEST JUMPDEST POP SWAP2 SWAP1 POP JUMP JUMPDEST PUSH1 0x0 DUP2 SWAP1 POP DUP2 PUSH1 0x0 MSTORE PUSH1 0x20 PUSH1 0x0 KECCAK256 SWAP1 POP SWAP2 SWAP1 POP JUMP JUMPDEST PUSH1 0x0 PUSH1 0x20 PUSH1 0x1F DUP4 ADD DIV SWAP1 POP SWAP2 SWAP1 POP JUMP JUMPDEST PUSH1 0x0 DUP3 DUP3 SHL SWAP1 POP SWAP3 SWAP2 POP POP JUMP JUMPDEST PUSH1 0x0 PUSH1 0x8 DUP4 MUL PUSH2 0x14C4 PUSH32 0xFFFFFFFFFFFFFFFFFFFFFFFFFFFFFFFFFFFFFFFFFFFFFFFFFFFFFFFFFFFFFFFF DUP3 PUSH2 0x1487 JUMP JUMPDEST PUSH2 0x14CE DUP7 DUP4 PUSH2 0x1487 JUMP JUMPDEST SWAP6 POP DUP1 NOT DUP5 AND SWAP4 POP DUP1 DUP7 AND DUP5 OR SWAP3 POP POP POP SWAP4 SWAP3 POP POP POP JUMP JUMPDEST PUSH1 0x0 DUP2 SWAP1 POP SWAP2 SWAP1 POP JUMP JUMPDEST PUSH1 0x0 DUP2 SWAP1 POP SWAP2 SWAP1 POP JUMP JUMPDEST PUSH1 0x0 PUSH2 0x1515 PUSH2 0x1510 PUSH2 0x150B DUP5 PUSH2 0x14E6 JUMP JUMPDEST PUSH2 0x14F0 JUMP JUMPDEST PUSH2 0x14E6 JUMP JUMPDEST SWAP1 POP SWAP2 SWAP1 POP JUMP JUMPDEST PUSH1 0x0 DUP2 SWAP1 POP SWAP2 SWAP1 POP JUMP JUMPDEST PUSH2 0x152F DUP4 PUSH2 0x14FA JUMP JUMPDEST PUSH2 0x1543 PUSH2 0x153B DUP3 PUSH2 0x151C JUMP JUMPDEST DUP5 DUP5 SLOAD PUSH2 0x1494 JUMP JUMPDEST DUP3 SSTORE POP POP POP POP JUMP JUMPDEST PUSH1 0x0 SWAP1 JUMP JUMPDEST PUSH2 0x1558 PUSH2 0x154B JUMP JUMPDEST PUSH2 0x1563 DUP2 DUP5 DUP5 PUSH2 0x1526 JUMP JUMPDEST POP POP POP JUMP JUMPDEST JUMPDEST DUP2 DUP2 LT ISZERO PUSH2 0x1587 JUMPI PUSH2 0x157C PUSH1 0x0 DUP3 PUSH2 0x1550 JUMP JUMPDEST PUSH1 0x1 DUP2 ADD SWAP1 POP PUSH2 0x1569 JUMP JUMPDEST POP POP JUMP JUMPDEST PUSH1 0x1F DUP3 GT ISZERO PUSH2 0x15CC JUMPI PUSH2 0x159D DUP2 PUSH2 0x1462 JUMP JUMPDEST PUSH2 0x15A6 DUP5 PUSH2 0x1477 JUMP JUMPDEST DUP2 ADD PUSH1 0x20 DUP6 LT ISZERO PUSH2 0x15B5 JUMPI DUP2 SWAP1 POP JUMPDEST PUSH2 0x15C9 PUSH2 0x15C1 DUP6 PUSH2 0x1477 JUMP JUMPDEST DUP4 ADD DUP3 PUSH2 0x1568 JUMP JUMPDEST POP POP JUMPDEST POP POP POP JUMP JUMPDEST PUSH1 0x0 DUP3 DUP3 SHR SWAP1 POP SWAP3 SWAP2 POP POP JUMP JUMPDEST PUSH1 0x0 PUSH2 0x15EF PUSH1 0x0 NOT DUP5 PUSH1 0x8 MUL PUSH2 0x15D1 JUMP JUMPDEST NOT DUP1 DUP4 AND SWAP2 POP POP SWAP3 SWAP2 POP POP JUMP JUMPDEST PUSH1 0x0 PUSH2 0x1608 DUP4 DUP4 PUSH2 0x15DE JUMP JUMPDEST SWAP2 POP DUP3 PUSH1 0x2 MUL DUP3 OR SWAP1 POP SWAP3 SWAP2 POP POP JUMP JUMPDEST PUSH2 0x1621 DUP3 PUSH2 0x10A0 JUMP JUMPDEST PUSH8 0xFFFFFFFFFFFFFFFF DUP2 GT ISZERO PUSH2 0x163A JUMPI PUSH2 0x1639 PUSH2 0x11F3 JUMP JUMPDEST JUMPDEST PUSH2 0x1644 DUP3 SLOAD PUSH2 0x1431 JUMP JUMPDEST PUSH2 0x164F DUP3 DUP3 DUP6 PUSH2 0x158B JUMP JUMPDEST PUSH1 0x0 PUSH1 0x20 SWAP1 POP PUSH1 0x1F DUP4 GT PUSH1 0x1 DUP2 EQ PUSH2 0x1682 JUMPI PUSH1 0x0 DUP5 ISZERO PUSH2 0x1670 JUMPI DUP3 DUP8 ADD MLOAD SWAP1 POP JUMPDEST PUSH2 0x167A DUP6 DUP3 PUSH2 0x15FC JUMP JUMPDEST DUP7 SSTORE POP PUSH2 0x16E2 JUMP JUMPDEST PUSH1 0x1F NOT DUP5 AND PUSH2 0x1690 DUP7 PUSH2 0x1462 JUMP JUMPDEST PUSH1 0x0 JUMPDEST DUP3 DUP2 LT ISZERO PUSH2 0x16B8 JUMPI DUP5 DUP10 ADD MLOAD DUP3 SSTORE PUSH1 0x1 DUP3 ADD SWAP2 POP PUSH1 0x20 DUP6 ADD SWAP5 POP PUSH1 0x20 DUP2 ADD SWAP1 POP PUSH2 0x1693 JUMP JUMPDEST DUP7 DUP4 LT ISZERO PUSH2 0x16D5 JUMPI DUP5 DUP10 ADD MLOAD PUSH2 0x16D1 PUSH1 0x1F DUP10 AND DUP3 PUSH2 0x15DE JUMP JUMPDEST DUP4 SSTORE POP JUMPDEST PUSH1 0x1 PUSH1 0x2 DUP9 MUL ADD DUP9 SSTORE POP POP POP JUMPDEST POP POP POP POP POP POP JUMP JUMPDEST PUSH32 0x4E6577206164647265737320697320616C726561647920726567697374657265 PUSH1 0x0 DUP3 ADD MSTORE PUSH32 0x6400000000000000000000000000000000000000000000000000000000000000 PUSH1 0x20 DUP3 ADD MSTORE POP JUMP JUMPDEST PUSH1 0x0 PUSH2 0x1746 PUSH1 0x21 DUP4 PUSH2 0x10AB JUMP JUMPDEST SWAP2 POP PUSH2 0x1751 DUP3 PUSH2 0x16EA JUMP JUMPDEST PUSH1 0x40 DUP3 ADD SWAP1 POP SWAP2 SWAP1 POP JUMP JUMPDEST PUSH1 0x0 PUSH1 0x20 DUP3 ADD SWAP1 POP DUP2 DUP2 SUB PUSH1 0x0 DUP4 ADD MSTORE PUSH2 0x1775 DUP2 PUSH2 0x1739 JUMP JUMPDEST SWAP1 POP SWAP2 SWAP1 POP JUMP JUMPDEST PUSH32 0x4E616D652073686F756C64206E6F7420626520656D7074790000000000000000 PUSH1 0x0 DUP3 ADD MSTORE POP JUMP JUMPDEST PUSH1 0x0 PUSH2 0x17B2 PUSH1 0x18 DUP4 PUSH2 0x10AB JUMP JUMPDEST SWAP2 POP PUSH2 0x17BD DUP3 PUSH2 0x177C JUMP JUMPDEST PUSH1 0x20 DUP3 ADD SWAP1 POP SWAP2 SWAP1 POP JUMP JUMPDEST PUSH1 0x0 PUSH1 0x20 DUP3 ADD SWAP1 POP DUP2 DUP2 SUB PUSH1 0x0 DUP4 ADD MSTORE PUSH2 0x17E1 DUP2 PUSH2 0x17A5 JUMP JUMPDEST SWAP1 POP SWAP2 SWAP1 POP JUMP JUMPDEST PUSH32 0x4164647265737320697320616C72656164792072656769737465726564000000 PUSH1 0x0 DUP3 ADD MSTORE POP JUMP JUMPDEST PUSH1 0x0 PUSH2 0x181E PUSH1 0x1D DUP4 PUSH2 0x10AB JUMP JUMPDEST SWAP2 POP PUSH2 0x1829 DUP3 PUSH2 0x17E8 JUMP JUMPDEST PUSH1 0x20 DUP3 ADD SWAP1 POP SWAP2 SWAP1 POP JUMP JUMPDEST PUSH1 0x0 PUSH1 0x20 DUP3 ADD SWAP1 POP DUP2 DUP2 SUB PUSH1 0x0 DUP4 ADD MSTORE PUSH2 0x184D DUP2 PUSH2 0x1811 JUMP JUMPDEST SWAP1 POP SWAP2 SWAP1 POP JUMP INVALID LOG2 PUSH5 0x6970667358 0x22 SLT KECCAK256 PUSH27 0xA0ECBE5C59CD8BBD0A8CCC1B2B8889A957F0A0D43721559C486CE2 0xEE 0xED DUP9 RETURN PUSH5 0x736F6C6343 STOP ADDMOD SLT STOP CALLER "
				},
				"gasEstimates": {
					"creation": {
						"codeDepositCost": "1256400",
						"executionCost": "1308",
						"totalCost": "1257708"
					},
					"external": {
						"addressToProfile(address)": "infinite",
						"deregisterName()": "infinite",
						"getIpfsImageHash(address)": "infinite",
						"getName(address)": "infinite",
						"getNameAndIpfsHash(address)": "infinite",
						"registerName(string,string)": "infinite",
						"transferName(address)": "infinite"
					}
				},
				"methodIdentifiers": {
					"addressToProfile(address)": "0e7b29bf",
					"deregisterName()": "0d5fba83",
					"getIpfsImageHash(address)": "2557989b",
					"getName(address)": "5fd4b08a",
					"getNameAndIpfsHash(address)": "c8c6d068",
					"registerName(string,string)": "ff21ce9c",
					"transferName(address)": "4ef8884b"
				}
			},
			"storageLayout": {
				"storage": [
					{
						"astId": 13,
						"contract": "contracts/userProfile3.sol:NameRegistry",
						"label": "addressToProfile",
						"offset": 0,
						"slot": "0",
						"type": "t_mapping(t_address,t_struct(UserProfile)8_storage)"
					}
				],
				"types": {
					"t_address": {
						"encoding": "inplace",
						"label": "address",
						"numberOfBytes": "20"
					},
					"t_bool": {
						"encoding": "inplace",
						"label": "bool",
						"numberOfBytes": "1"
					},
					"t_mapping(t_address,t_struct(UserProfile)8_storage)": {
						"encoding": "mapping",
						"key": "t_address",
						"label": "mapping(address => struct NameRegistry.UserProfile)",
						"numberOfBytes": "32",
						"value": "t_struct(UserProfile)8_storage"
					},
					"t_string_storage": {
						"encoding": "bytes",
						"label": "string",
						"numberOfBytes": "32"
					},
					"t_struct(UserProfile)8_storage": {
						"encoding": "inplace",
						"label": "struct NameRegistry.UserProfile",
						"members": [
							{
								"astId": 3,
								"contract": "contracts/userProfile3.sol:NameRegistry",
								"label": "userName",
								"offset": 0,
								"slot": "0",
								"type": "t_string_storage"
							},
							{
								"astId": 5,
								"contract": "contracts/userProfile3.sol:NameRegistry",
								"label": "registered",
								"offset": 0,
								"slot": "1",
								"type": "t_bool"
							},
							{
								"astId": 7,
								"contract": "contracts/userProfile3.sol:NameRegistry",
								"label": "ipfsImageHash",
								"offset": 0,
								"slot": "2",
								"type": "t_string_storage"
							}
						],
						"numberOfBytes": "96"
					}
				}
			},
			"userdoc": {
				"kind": "user",
				"methods": {},
				"version": 1
			}
		}
	}
}