{
	"contracts/AquoProspectusList.sol": {
		"ProspectusRegistry": {
			"abi": [
				{
					"inputs": [
						{
							"internalType": "string",
							"name": "_ipfsAddress",
							"type": "string"
						}
					],
					"name": "addRecord",
					"outputs": [],
					"stateMutability": "nonpayable",
					"type": "function"
				},
				{
					"inputs": [],
					"name": "getAllRecords",
					"outputs": [
						{
							"components": [
								{
									"internalType": "string",
									"name": "ipfsAddress",
									"type": "string"
								},
								{
									"internalType": "address",
									"name": "proposer",
									"type": "address"
								}
							],
							"internalType": "struct ProspectusRegistry.ProspectusRecord[]",
							"name": "",
							"type": "tuple[]"
						}
					],
					"stateMutability": "view",
					"type": "function"
				},
				{
					"inputs": [
						{
							"internalType": "uint256",
							"name": "_index",
							"type": "uint256"
						}
					],
					"name": "getRecord",
					"outputs": [
						{
							"components": [
								{
									"internalType": "string",
									"name": "ipfsAddress",
									"type": "string"
								},
								{
									"internalType": "address",
									"name": "proposer",
									"type": "address"
								}
							],
							"internalType": "struct ProspectusRegistry.ProspectusRecord",
							"name": "",
							"type": "tuple"
						}
					],
					"stateMutability": "view",
					"type": "function"
				},
				{
					"inputs": [],
					"name": "getRecordCount",
					"outputs": [
						{
							"internalType": "uint256",
							"name": "",
							"type": "uint256"
						}
					],
					"stateMutability": "view",
					"type": "function"
				},
				{
					"inputs": [
						{
							"internalType": "uint256",
							"name": "",
							"type": "uint256"
						}
					],
					"name": "records",
					"outputs": [
						{
							"internalType": "string",
							"name": "ipfsAddress",
							"type": "string"
						},
						{
							"internalType": "address",
							"name": "proposer",
							"type": "address"
						}
					],
					"stateMutability": "view",
					"type": "function"
				}
			],
			"devdoc": {
				"kind": "dev",
				"methods": {},
				"version": 1
			},
			"evm": {
				"assembly": "    /* \"contracts/AquoProspectusList.sol\":60:1777  contract ProspectusRegistry {... */\n  mstore(0x40, 0x80)\n  callvalue\n  dup1\n  iszero\n  tag_1\n  jumpi\n  0x00\n  dup1\n  revert\ntag_1:\n  pop\n  dataSize(sub_0)\n  dup1\n  dataOffset(sub_0)\n  0x00\n  codecopy\n  0x00\n  return\nstop\n\nsub_0: assembly {\n        /* \"contracts/AquoProspectusList.sol\":60:1777  contract ProspectusRegistry {... */\n      mstore(0x40, 0x80)\n      callvalue\n      dup1\n      iszero\n      tag_1\n      jumpi\n      0x00\n      dup1\n      revert\n    tag_1:\n      pop\n      jumpi(tag_2, lt(calldatasize, 0x04))\n      shr(0xe0, calldataload(0x00))\n      dup1\n      0x03e9e609\n      eq\n      tag_3\n      jumpi\n      dup1\n      0x34461067\n      eq\n      tag_4\n      jumpi\n      dup1\n      0xa7f9fe72\n      eq\n      tag_5\n      jumpi\n      dup1\n      0xca267f28\n      eq\n      tag_6\n      jumpi\n      dup1\n      0xd81aa8c4\n      eq\n      tag_7\n      jumpi\n    tag_2:\n      0x00\n      dup1\n      revert\n        /* \"contracts/AquoProspectusList.sol\":1205:1390  function getRecord(uint _index) public view returns (ProspectusRecord memory) {... */\n    tag_3:\n      tag_8\n      0x04\n      dup1\n      calldatasize\n      sub\n      dup2\n      add\n      swap1\n      tag_9\n      swap2\n      swap1\n      tag_10\n      jump\t// in\n    tag_9:\n      tag_11\n      jump\t// in\n    tag_8:\n      mload(0x40)\n      tag_12\n      swap2\n      swap1\n      tag_13\n      jump\t// in\n    tag_12:\n      mload(0x40)\n      dup1\n      swap2\n      sub\n      swap1\n      return\n        /* \"contracts/AquoProspectusList.sol\":339:372  ProspectusRecord[] public records */\n    tag_4:\n      tag_14\n      0x04\n      dup1\n      calldatasize\n      sub\n      dup2\n      add\n      swap1\n      tag_15\n      swap2\n      swap1\n      tag_10\n      jump\t// in\n    tag_15:\n      tag_16\n      jump\t// in\n    tag_14:\n      mload(0x40)\n      tag_17\n      swap3\n      swap2\n      swap1\n      tag_18\n      jump\t// in\n    tag_17:\n      mload(0x40)\n      dup1\n      swap2\n      sub\n      swap1\n      return\n        /* \"contracts/AquoProspectusList.sol\":1398:1504  function getAllRecords() public view returns (ProspectusRecord[] memory) {... */\n    tag_5:\n      tag_19\n      tag_20\n      jump\t// in\n    tag_19:\n      mload(0x40)\n      tag_21\n      swap2\n      swap1\n      tag_22\n      jump\t// in\n    tag_21:\n      mload(0x40)\n      dup1\n      swap2\n      sub\n      swap1\n      return\n        /* \"contracts/AquoProspectusList.sol\":1061:1154  function getRecordCount() public view returns (uint) {... */\n    tag_6:\n      tag_23\n      tag_24\n      jump\t// in\n    tag_23:\n      mload(0x40)\n      tag_25\n      swap2\n      swap1\n      tag_26\n      jump\t// in\n    tag_25:\n      mload(0x40)\n      dup1\n      swap2\n      sub\n      swap1\n      return\n        /* \"contracts/AquoProspectusList.sol\":523:1013  function addRecord(string memory _ipfsAddress) public {... */\n    tag_7:\n      tag_27\n      0x04\n      dup1\n      calldatasize\n      sub\n      dup2\n      add\n      swap1\n      tag_28\n      swap2\n      swap1\n      tag_29\n      jump\t// in\n    tag_28:\n      tag_30\n      jump\t// in\n    tag_27:\n      stop\n        /* \"contracts/AquoProspectusList.sol\":1205:1390  function getRecord(uint _index) public view returns (ProspectusRecord memory) {... */\n    tag_11:\n        /* \"contracts/AquoProspectusList.sol\":1258:1281  ProspectusRecord memory */\n      tag_31\n      tag_32\n      jump\t// in\n    tag_31:\n        /* \"contracts/AquoProspectusList.sol\":1311:1318  records */\n      0x00\n        /* \"contracts/AquoProspectusList.sol\":1311:1325  records.length */\n      dup1\n      sload\n      swap1\n      pop\n        /* \"contracts/AquoProspectusList.sol\":1302:1308  _index */\n      dup3\n        /* \"contracts/AquoProspectusList.sol\":1302:1325  _index < records.length */\n      lt\n        /* \"contracts/AquoProspectusList.sol\":1294:1349  require(_index < records.length, \"Index out of bounds\") */\n      tag_34\n      jumpi\n      mload(0x40)\n      0x08c379a000000000000000000000000000000000000000000000000000000000\n      dup2\n      mstore\n      0x04\n      add\n      tag_35\n      swap1\n      tag_36\n      jump\t// in\n    tag_35:\n      mload(0x40)\n      dup1\n      swap2\n      sub\n      swap1\n      revert\n    tag_34:\n        /* \"contracts/AquoProspectusList.sol\":1367:1374  records */\n      0x00\n        /* \"contracts/AquoProspectusList.sol\":1375:1381  _index */\n      dup3\n        /* \"contracts/AquoProspectusList.sol\":1367:1382  records[_index] */\n      dup2\n      sload\n      dup2\n      lt\n      tag_37\n      jumpi\n      tag_38\n      tag_39\n      jump\t// in\n    tag_38:\n    tag_37:\n      swap1\n      0x00\n      mstore\n      keccak256(0x00, 0x20)\n      swap1\n      0x02\n      mul\n      add\n        /* \"contracts/AquoProspectusList.sol\":1360:1382  return records[_index] */\n      mload(0x40)\n      dup1\n      0x40\n      add\n      0x40\n      mstore\n      swap1\n      dup2\n      0x00\n      dup3\n      add\n      dup1\n      sload\n      tag_41\n      swap1\n      tag_42\n      jump\t// in\n    tag_41:\n      dup1\n      0x1f\n      add\n      0x20\n      dup1\n      swap2\n      div\n      mul\n      0x20\n      add\n      mload(0x40)\n      swap1\n      dup2\n      add\n      0x40\n      mstore\n      dup1\n      swap3\n      swap2\n      swap1\n      dup2\n      dup2\n      mstore\n      0x20\n      add\n      dup3\n      dup1\n      sload\n      tag_43\n      swap1\n      tag_42\n      jump\t// in\n    tag_43:\n      dup1\n      iszero\n      tag_44\n      jumpi\n      dup1\n      0x1f\n      lt\n      tag_45\n      jumpi\n      0x0100\n      dup1\n      dup4\n      sload\n      div\n      mul\n      dup4\n      mstore\n      swap2\n      0x20\n      add\n      swap2\n      jump(tag_44)\n    tag_45:\n      dup3\n      add\n      swap2\n      swap1\n      0x00\n      mstore\n      keccak256(0x00, 0x20)\n      swap1\n    tag_46:\n      dup2\n      sload\n      dup2\n      mstore\n      swap1\n      0x01\n      add\n      swap1\n      0x20\n      add\n      dup1\n      dup4\n      gt\n      tag_46\n      jumpi\n      dup3\n      swap1\n      sub\n      0x1f\n      and\n      dup3\n      add\n      swap2\n    tag_44:\n      pop\n      pop\n      pop\n      pop\n      pop\n      dup2\n      mstore\n      0x20\n      add\n      0x01\n      dup3\n      add\n      0x00\n      swap1\n      sload\n      swap1\n      0x0100\n      exp\n      swap1\n      div\n      0xffffffffffffffffffffffffffffffffffffffff\n      and\n      0xffffffffffffffffffffffffffffffffffffffff\n      and\n      0xffffffffffffffffffffffffffffffffffffffff\n      and\n      dup2\n      mstore\n      pop\n      pop\n      swap1\n      pop\n        /* \"contracts/AquoProspectusList.sol\":1205:1390  function getRecord(uint _index) public view returns (ProspectusRecord memory) {... */\n      swap2\n      swap1\n      pop\n      jump\t// out\n        /* \"contracts/AquoProspectusList.sol\":339:372  ProspectusRecord[] public records */\n    tag_16:\n      0x00\n      dup2\n      dup2\n      sload\n      dup2\n      lt\n      tag_47\n      jumpi\n      0x00\n      dup1\n      revert\n    tag_47:\n      swap1\n      0x00\n      mstore\n      keccak256(0x00, 0x20)\n      swap1\n      0x02\n      mul\n      add\n      0x00\n      swap2\n      pop\n      swap1\n      pop\n      dup1\n      0x00\n      add\n      dup1\n      sload\n      tag_49\n      swap1\n      tag_42\n      jump\t// in\n    tag_49:\n      dup1\n      0x1f\n      add\n      0x20\n      dup1\n      swap2\n      div\n      mul\n      0x20\n      add\n      mload(0x40)\n      swap1\n      dup2\n      add\n      0x40\n      mstore\n      dup1\n      swap3\n      swap2\n      swap1\n      dup2\n      dup2\n      mstore\n      0x20\n      add\n      dup3\n      dup1\n      sload\n      tag_50\n      swap1\n      tag_42\n      jump\t// in\n    tag_50:\n      dup1\n      iszero\n      tag_51\n      jumpi\n      dup1\n      0x1f\n      lt\n      tag_52\n      jumpi\n      0x0100\n      dup1\n      dup4\n      sload\n      div\n      mul\n      dup4\n      mstore\n      swap2\n      0x20\n      add\n      swap2\n      jump(tag_51)\n    tag_52:\n      dup3\n      add\n      swap2\n      swap1\n      0x00\n      mstore\n      keccak256(0x00, 0x20)\n      swap1\n    tag_53:\n      dup2\n      sload\n      dup2\n      mstore\n      swap1\n      0x01\n      add\n      swap1\n      0x20\n      add\n      dup1\n      dup4\n      gt\n      tag_53\n      jumpi\n      dup3\n      swap1\n      sub\n      0x1f\n      and\n      dup3\n      add\n      swap2\n    tag_51:\n      pop\n      pop\n      pop\n      pop\n      pop\n      swap1\n      dup1\n      0x01\n      add\n      0x00\n      swap1\n      sload\n      swap1\n      0x0100\n      exp\n      swap1\n      div\n      0xffffffffffffffffffffffffffffffffffffffff\n      and\n      swap1\n      pop\n      dup3\n      jump\t// out\n        /* \"contracts/AquoProspectusList.sol\":1398:1504  function getAllRecords() public view returns (ProspectusRecord[] memory) {... */\n    tag_20:\n        /* \"contracts/AquoProspectusList.sol\":1444:1469  ProspectusRecord[] memory */\n      0x60\n        /* \"contracts/AquoProspectusList.sol\":1489:1496  records */\n      0x00\n        /* \"contracts/AquoProspectusList.sol\":1482:1496  return records */\n      dup1\n      sload\n      dup1\n      0x20\n      mul\n      0x20\n      add\n      mload(0x40)\n      swap1\n      dup2\n      add\n      0x40\n      mstore\n      dup1\n      swap3\n      swap2\n      swap1\n      dup2\n      dup2\n      mstore\n      0x20\n      add\n      0x00\n      swap1\n    tag_55:\n      dup3\n      dup3\n      lt\n      iszero\n      tag_56\n      jumpi\n      dup4\n      dup3\n      swap1\n      0x00\n      mstore\n      keccak256(0x00, 0x20)\n      swap1\n      0x02\n      mul\n      add\n      mload(0x40)\n      dup1\n      0x40\n      add\n      0x40\n      mstore\n      swap1\n      dup2\n      0x00\n      dup3\n      add\n      dup1\n      sload\n      tag_58\n      swap1\n      tag_42\n      jump\t// in\n    tag_58:\n      dup1\n      0x1f\n      add\n      0x20\n      dup1\n      swap2\n      div\n      mul\n      0x20\n      add\n      mload(0x40)\n      swap1\n      dup2\n      add\n      0x40\n      mstore\n      dup1\n      swap3\n      swap2\n      swap1\n      dup2\n      dup2\n      mstore\n      0x20\n      add\n      dup3\n      dup1\n      sload\n      tag_59\n      swap1\n      tag_42\n      jump\t// in\n    tag_59:\n      dup1\n      iszero\n      tag_60\n      jumpi\n      dup1\n      0x1f\n      lt\n      tag_61\n      jumpi\n      0x0100\n      dup1\n      dup4\n      sload\n      div\n      mul\n      dup4\n      mstore\n      swap2\n      0x20\n      add\n      swap2\n      jump(tag_60)\n    tag_61:\n      dup3\n      add\n      swap2\n      swap1\n      0x00\n      mstore\n      keccak256(0x00, 0x20)\n      swap1\n    tag_62:\n      dup2\n      sload\n      dup2\n      mstore\n      swap1\n      0x01\n      add\n      swap1\n      0x20\n      add\n      dup1\n      dup4\n      gt\n      tag_62\n      jumpi\n      dup3\n      swap1\n      sub\n      0x1f\n      and\n      dup3\n      add\n      swap2\n    tag_60:\n      pop\n      pop\n      pop\n      pop\n      pop\n      dup2\n      mstore\n      0x20\n      add\n      0x01\n      dup3\n      add\n      0x00\n      swap1\n      sload\n      swap1\n      0x0100\n      exp\n      swap1\n      div\n      0xffffffffffffffffffffffffffffffffffffffff\n      and\n      0xffffffffffffffffffffffffffffffffffffffff\n      and\n      0xffffffffffffffffffffffffffffffffffffffff\n      and\n      dup2\n      mstore\n      pop\n      pop\n      dup2\n      mstore\n      0x20\n      add\n      swap1\n      0x01\n      add\n      swap1\n      jump(tag_55)\n    tag_56:\n      pop\n      pop\n      pop\n      pop\n      swap1\n      pop\n        /* \"contracts/AquoProspectusList.sol\":1398:1504  function getAllRecords() public view returns (ProspectusRecord[] memory) {... */\n      swap1\n      jump\t// out\n        /* \"contracts/AquoProspectusList.sol\":1061:1154  function getRecordCount() public view returns (uint) {... */\n    tag_24:\n        /* \"contracts/AquoProspectusList.sol\":1108:1112  uint */\n      0x00\n        /* \"contracts/AquoProspectusList.sol\":1132:1139  records */\n      dup1\n        /* \"contracts/AquoProspectusList.sol\":1132:1146  records.length */\n      dup1\n      sload\n      swap1\n      pop\n        /* \"contracts/AquoProspectusList.sol\":1125:1146  return records.length */\n      swap1\n      pop\n        /* \"contracts/AquoProspectusList.sol\":1061:1154  function getRecordCount() public view returns (uint) {... */\n      swap1\n      jump\t// out\n        /* \"contracts/AquoProspectusList.sol\":523:1013  function addRecord(string memory _ipfsAddress) public {... */\n    tag_30:\n        /* \"contracts/AquoProspectusList.sol\":658:668  ipfsExists */\n      0x01\n        /* \"contracts/AquoProspectusList.sol\":669:681  _ipfsAddress */\n      dup2\n        /* \"contracts/AquoProspectusList.sol\":658:682  ipfsExists[_ipfsAddress] */\n      mload(0x40)\n      tag_65\n      swap2\n      swap1\n      tag_66\n      jump\t// in\n    tag_65:\n      swap1\n      dup2\n      mstore\n      0x20\n      add\n      mload(0x40)\n      dup1\n      swap2\n      sub\n      swap1\n      keccak256\n      0x00\n      swap1\n      sload\n      swap1\n      0x0100\n      exp\n      swap1\n      div\n      0xff\n      and\n        /* \"contracts/AquoProspectusList.sol\":657:682  !ipfsExists[_ipfsAddress] */\n      iszero\n        /* \"contracts/AquoProspectusList.sol\":649:714  require(!ipfsExists[_ipfsAddress], \"IPFS address already exists\") */\n      tag_67\n      jumpi\n      mload(0x40)\n      0x08c379a000000000000000000000000000000000000000000000000000000000\n      dup2\n      mstore\n      0x04\n      add\n      tag_68\n      swap1\n      tag_69\n      jump\t// in\n    tag_68:\n      mload(0x40)\n      dup1\n      swap2\n      sub\n      swap1\n      revert\n    tag_67:\n        /* \"contracts/AquoProspectusList.sol\":792:799  records */\n      0x00\n        /* \"contracts/AquoProspectusList.sol\":805:909  ProspectusRecord({... */\n      mload(0x40)\n      dup1\n      0x40\n      add\n      0x40\n      mstore\n      dup1\n        /* \"contracts/AquoProspectusList.sol\":850:862  _ipfsAddress */\n      dup4\n        /* \"contracts/AquoProspectusList.sol\":805:909  ProspectusRecord({... */\n      dup2\n      mstore\n      0x20\n      add\n        /* \"contracts/AquoProspectusList.sol\":887:897  msg.sender */\n      caller\n        /* \"contracts/AquoProspectusList.sol\":805:909  ProspectusRecord({... */\n      0xffffffffffffffffffffffffffffffffffffffff\n      and\n      dup2\n      mstore\n      pop\n        /* \"contracts/AquoProspectusList.sol\":792:910  records.push(ProspectusRecord({... */\n      swap1\n      dup1\n      0x01\n      dup2\n      sload\n      add\n      dup1\n      dup3\n      sstore\n      dup1\n      swap2\n      pop\n      pop\n      0x01\n      swap1\n      sub\n      swap1\n      0x00\n      mstore\n      keccak256(0x00, 0x20)\n      swap1\n      0x02\n      mul\n      add\n      0x00\n      swap1\n      swap2\n      swap1\n      swap2\n      swap1\n      swap2\n      pop\n      0x00\n      dup3\n      add\n      mload\n      dup2\n      0x00\n      add\n      swap1\n      dup2\n      tag_71\n      swap2\n      swap1\n      tag_72\n      jump\t// in\n    tag_71:\n      pop\n      0x20\n      dup3\n      add\n      mload\n      dup2\n      0x01\n      add\n      exp(0x0100, 0x00)\n      dup2\n      sload\n      dup2\n      0xffffffffffffffffffffffffffffffffffffffff\n      mul\n      not\n      and\n      swap1\n      dup4\n      0xffffffffffffffffffffffffffffffffffffffff\n      and\n      mul\n      or\n      swap1\n      sstore\n      pop\n      pop\n      pop\n        /* \"contracts/AquoProspectusList.sol\":1001:1005  true */\n      0x01\n        /* \"contracts/AquoProspectusList.sol\":974:984  ipfsExists */\n      dup1\n        /* \"contracts/AquoProspectusList.sol\":985:997  _ipfsAddress */\n      dup3\n        /* \"contracts/AquoProspectusList.sol\":974:998  ipfsExists[_ipfsAddress] */\n      mload(0x40)\n      tag_73\n      swap2\n      swap1\n      tag_66\n      jump\t// in\n    tag_73:\n      swap1\n      dup2\n      mstore\n      0x20\n      add\n      mload(0x40)\n      dup1\n      swap2\n      sub\n      swap1\n      keccak256\n      0x00\n        /* \"contracts/AquoProspectusList.sol\":974:1005  ipfsExists[_ipfsAddress] = true */\n      0x0100\n      exp\n      dup2\n      sload\n      dup2\n      0xff\n      mul\n      not\n      and\n      swap1\n      dup4\n      iszero\n      iszero\n      mul\n      or\n      swap1\n      sstore\n      pop\n        /* \"contracts/AquoProspectusList.sol\":523:1013  function addRecord(string memory _ipfsAddress) public {... */\n      pop\n      jump\t// out\n    tag_32:\n      mload(0x40)\n      dup1\n      0x40\n      add\n      0x40\n      mstore\n      dup1\n      0x60\n      dup2\n      mstore\n      0x20\n      add\n      and(0xffffffffffffffffffffffffffffffffffffffff, 0x00)\n      dup2\n      mstore\n      pop\n      swap1\n      jump\t// out\n        /* \"#utility.yul\":7:82   */\n    tag_74:\n        /* \"#utility.yul\":40:46   */\n      0x00\n        /* \"#utility.yul\":73:75   */\n      0x40\n        /* \"#utility.yul\":67:76   */\n      mload\n        /* \"#utility.yul\":57:76   */\n      swap1\n      pop\n        /* \"#utility.yul\":7:82   */\n      swap1\n      jump\t// out\n        /* \"#utility.yul\":88:205   */\n    tag_75:\n        /* \"#utility.yul\":197:198   */\n      0x00\n        /* \"#utility.yul\":194:195   */\n      dup1\n        /* \"#utility.yul\":187:199   */\n      revert\n        /* \"#utility.yul\":211:328   */\n    tag_76:\n        /* \"#utility.yul\":320:321   */\n      0x00\n        /* \"#utility.yul\":317:318   */\n      dup1\n        /* \"#utility.yul\":310:322   */\n      revert\n        /* \"#utility.yul\":334:411   */\n    tag_77:\n        /* \"#utility.yul\":371:378   */\n      0x00\n        /* \"#utility.yul\":400:405   */\n      dup2\n        /* \"#utility.yul\":389:405   */\n      swap1\n      pop\n        /* \"#utility.yul\":334:411   */\n      swap2\n      swap1\n      pop\n      jump\t// out\n        /* \"#utility.yul\":417:539   */\n    tag_78:\n        /* \"#utility.yul\":490:514   */\n      tag_137\n        /* \"#utility.yul\":508:513   */\n      dup2\n        /* \"#utility.yul\":490:514   */\n      tag_77\n      jump\t// in\n    tag_137:\n        /* \"#utility.yul\":483:488   */\n      dup2\n        /* \"#utility.yul\":480:515   */\n      eq\n        /* \"#utility.yul\":470:533   */\n      tag_138\n      jumpi\n        /* \"#utility.yul\":529:530   */\n      0x00\n        /* \"#utility.yul\":526:527   */\n      dup1\n        /* \"#utility.yul\":519:531   */\n      revert\n        /* \"#utility.yul\":470:533   */\n    tag_138:\n        /* \"#utility.yul\":417:539   */\n      pop\n      jump\t// out\n        /* \"#utility.yul\":545:684   */\n    tag_79:\n        /* \"#utility.yul\":591:596   */\n      0x00\n        /* \"#utility.yul\":629:635   */\n      dup2\n        /* \"#utility.yul\":616:636   */\n      calldataload\n        /* \"#utility.yul\":607:636   */\n      swap1\n      pop\n        /* \"#utility.yul\":645:678   */\n      tag_140\n        /* \"#utility.yul\":672:677   */\n      dup2\n        /* \"#utility.yul\":645:678   */\n      tag_78\n      jump\t// in\n    tag_140:\n        /* \"#utility.yul\":545:684   */\n      swap3\n      swap2\n      pop\n      pop\n      jump\t// out\n        /* \"#utility.yul\":690:1019   */\n    tag_10:\n        /* \"#utility.yul\":749:755   */\n      0x00\n        /* \"#utility.yul\":798:800   */\n      0x20\n        /* \"#utility.yul\":786:795   */\n      dup3\n        /* \"#utility.yul\":777:784   */\n      dup5\n        /* \"#utility.yul\":773:796   */\n      sub\n        /* \"#utility.yul\":769:801   */\n      slt\n        /* \"#utility.yul\":766:885   */\n      iszero\n      tag_142\n      jumpi\n        /* \"#utility.yul\":804:883   */\n      tag_143\n      tag_75\n      jump\t// in\n    tag_143:\n        /* \"#utility.yul\":766:885   */\n    tag_142:\n        /* \"#utility.yul\":924:925   */\n      0x00\n        /* \"#utility.yul\":949:1002   */\n      tag_144\n        /* \"#utility.yul\":994:1001   */\n      dup5\n        /* \"#utility.yul\":985:991   */\n      dup3\n        /* \"#utility.yul\":974:983   */\n      dup6\n        /* \"#utility.yul\":970:992   */\n      add\n        /* \"#utility.yul\":949:1002   */\n      tag_79\n      jump\t// in\n    tag_144:\n        /* \"#utility.yul\":939:1002   */\n      swap2\n      pop\n        /* \"#utility.yul\":895:1012   */\n      pop\n        /* \"#utility.yul\":690:1019   */\n      swap3\n      swap2\n      pop\n      pop\n      jump\t// out\n        /* \"#utility.yul\":1025:1124   */\n    tag_80:\n        /* \"#utility.yul\":1077:1083   */\n      0x00\n        /* \"#utility.yul\":1111:1116   */\n      dup2\n        /* \"#utility.yul\":1105:1117   */\n      mload\n        /* \"#utility.yul\":1095:1117   */\n      swap1\n      pop\n        /* \"#utility.yul\":1025:1124   */\n      swap2\n      swap1\n      pop\n      jump\t// out\n        /* \"#utility.yul\":1130:1289   */\n    tag_81:\n        /* \"#utility.yul\":1204:1215   */\n      0x00\n        /* \"#utility.yul\":1238:1244   */\n      dup3\n        /* \"#utility.yul\":1233:1236   */\n      dup3\n        /* \"#utility.yul\":1226:1245   */\n      mstore\n        /* \"#utility.yul\":1278:1282   */\n      0x20\n        /* \"#utility.yul\":1273:1276   */\n      dup3\n        /* \"#utility.yul\":1269:1283   */\n      add\n        /* \"#utility.yul\":1254:1283   */\n      swap1\n      pop\n        /* \"#utility.yul\":1130:1289   */\n      swap3\n      swap2\n      pop\n      pop\n      jump\t// out\n        /* \"#utility.yul\":1295:1541   */\n    tag_82:\n        /* \"#utility.yul\":1376:1377   */\n      0x00\n        /* \"#utility.yul\":1386:1499   */\n    tag_148:\n        /* \"#utility.yul\":1400:1406   */\n      dup4\n        /* \"#utility.yul\":1397:1398   */\n      dup2\n        /* \"#utility.yul\":1394:1407   */\n      lt\n        /* \"#utility.yul\":1386:1499   */\n      iszero\n      tag_150\n      jumpi\n        /* \"#utility.yul\":1485:1486   */\n      dup1\n        /* \"#utility.yul\":1480:1483   */\n      dup3\n        /* \"#utility.yul\":1476:1487   */\n      add\n        /* \"#utility.yul\":1470:1488   */\n      mload\n        /* \"#utility.yul\":1466:1467   */\n      dup2\n        /* \"#utility.yul\":1461:1464   */\n      dup5\n        /* \"#utility.yul\":1457:1468   */\n      add\n        /* \"#utility.yul\":1450:1489   */\n      mstore\n        /* \"#utility.yul\":1422:1424   */\n      0x20\n        /* \"#utility.yul\":1419:1420   */\n      dup2\n        /* \"#utility.yul\":1415:1425   */\n      add\n        /* \"#utility.yul\":1410:1425   */\n      swap1\n      pop\n        /* \"#utility.yul\":1386:1499   */\n      jump(tag_148)\n    tag_150:\n        /* \"#utility.yul\":1533:1534   */\n      0x00\n        /* \"#utility.yul\":1524:1530   */\n      dup5\n        /* \"#utility.yul\":1519:1522   */\n      dup5\n        /* \"#utility.yul\":1515:1531   */\n      add\n        /* \"#utility.yul\":1508:1535   */\n      mstore\n        /* \"#utility.yul\":1357:1541   */\n      pop\n        /* \"#utility.yul\":1295:1541   */\n      pop\n      pop\n      pop\n      jump\t// out\n        /* \"#utility.yul\":1547:1649   */\n    tag_83:\n        /* \"#utility.yul\":1588:1594   */\n      0x00\n        /* \"#utility.yul\":1639:1641   */\n      0x1f\n        /* \"#utility.yul\":1635:1642   */\n      not\n        /* \"#utility.yul\":1630:1632   */\n      0x1f\n        /* \"#utility.yul\":1623:1628   */\n      dup4\n        /* \"#utility.yul\":1619:1633   */\n      add\n        /* \"#utility.yul\":1615:1643   */\n      and\n        /* \"#utility.yul\":1605:1643   */\n      swap1\n      pop\n        /* \"#utility.yul\":1547:1649   */\n      swap2\n      swap1\n      pop\n      jump\t// out\n        /* \"#utility.yul\":1655:2012   */\n    tag_84:\n        /* \"#utility.yul\":1733:1736   */\n      0x00\n        /* \"#utility.yul\":1761:1800   */\n      tag_153\n        /* \"#utility.yul\":1794:1799   */\n      dup3\n        /* \"#utility.yul\":1761:1800   */\n      tag_80\n      jump\t// in\n    tag_153:\n        /* \"#utility.yul\":1816:1877   */\n      tag_154\n        /* \"#utility.yul\":1870:1876   */\n      dup2\n        /* \"#utility.yul\":1865:1868   */\n      dup6\n        /* \"#utility.yul\":1816:1877   */\n      tag_81\n      jump\t// in\n    tag_154:\n        /* \"#utility.yul\":1809:1877   */\n      swap4\n      pop\n        /* \"#utility.yul\":1886:1951   */\n      tag_155\n        /* \"#utility.yul\":1944:1950   */\n      dup2\n        /* \"#utility.yul\":1939:1942   */\n      dup6\n        /* \"#utility.yul\":1932:1936   */\n      0x20\n        /* \"#utility.yul\":1925:1930   */\n      dup7\n        /* \"#utility.yul\":1921:1937   */\n      add\n        /* \"#utility.yul\":1886:1951   */\n      tag_82\n      jump\t// in\n    tag_155:\n        /* \"#utility.yul\":1976:2005   */\n      tag_156\n        /* \"#utility.yul\":1998:2004   */\n      dup2\n        /* \"#utility.yul\":1976:2005   */\n      tag_83\n      jump\t// in\n    tag_156:\n        /* \"#utility.yul\":1971:1974   */\n      dup5\n        /* \"#utility.yul\":1967:2006   */\n      add\n        /* \"#utility.yul\":1960:2006   */\n      swap2\n      pop\n        /* \"#utility.yul\":1737:2012   */\n      pop\n        /* \"#utility.yul\":1655:2012   */\n      swap3\n      swap2\n      pop\n      pop\n      jump\t// out\n        /* \"#utility.yul\":2018:2144   */\n    tag_85:\n        /* \"#utility.yul\":2055:2062   */\n      0x00\n        /* \"#utility.yul\":2095:2137   */\n      0xffffffffffffffffffffffffffffffffffffffff\n        /* \"#utility.yul\":2088:2093   */\n      dup3\n        /* \"#utility.yul\":2084:2138   */\n      and\n        /* \"#utility.yul\":2073:2138   */\n      swap1\n      pop\n        /* \"#utility.yul\":2018:2144   */\n      swap2\n      swap1\n      pop\n      jump\t// out\n        /* \"#utility.yul\":2150:2246   */\n    tag_86:\n        /* \"#utility.yul\":2187:2194   */\n      0x00\n        /* \"#utility.yul\":2216:2240   */\n      tag_159\n        /* \"#utility.yul\":2234:2239   */\n      dup3\n        /* \"#utility.yul\":2216:2240   */\n      tag_85\n      jump\t// in\n    tag_159:\n        /* \"#utility.yul\":2205:2240   */\n      swap1\n      pop\n        /* \"#utility.yul\":2150:2246   */\n      swap2\n      swap1\n      pop\n      jump\t// out\n        /* \"#utility.yul\":2252:2360   */\n    tag_87:\n        /* \"#utility.yul\":2329:2353   */\n      tag_161\n        /* \"#utility.yul\":2347:2352   */\n      dup2\n        /* \"#utility.yul\":2329:2353   */\n      tag_86\n      jump\t// in\n    tag_161:\n        /* \"#utility.yul\":2324:2327   */\n      dup3\n        /* \"#utility.yul\":2317:2354   */\n      mstore\n        /* \"#utility.yul\":2252:2360   */\n      pop\n      pop\n      jump\t// out\n        /* \"#utility.yul\":2462:3091   */\n    tag_88:\n        /* \"#utility.yul\":2593:2596   */\n      0x00\n        /* \"#utility.yul\":2629:2633   */\n      0x40\n        /* \"#utility.yul\":2624:2627   */\n      dup4\n        /* \"#utility.yul\":2620:2634   */\n      add\n        /* \"#utility.yul\":2723:2727   */\n      0x00\n        /* \"#utility.yul\":2716:2721   */\n      dup4\n        /* \"#utility.yul\":2712:2728   */\n      add\n        /* \"#utility.yul\":2706:2729   */\n      mload\n        /* \"#utility.yul\":2776:2779   */\n      dup5\n        /* \"#utility.yul\":2770:2774   */\n      dup3\n        /* \"#utility.yul\":2766:2780   */\n      sub\n        /* \"#utility.yul\":2759:2763   */\n      0x00\n        /* \"#utility.yul\":2754:2757   */\n      dup7\n        /* \"#utility.yul\":2750:2764   */\n      add\n        /* \"#utility.yul\":2743:2781   */\n      mstore\n        /* \"#utility.yul\":2802:2875   */\n      tag_163\n        /* \"#utility.yul\":2870:2874   */\n      dup3\n        /* \"#utility.yul\":2856:2868   */\n      dup3\n        /* \"#utility.yul\":2802:2875   */\n      tag_84\n      jump\t// in\n    tag_163:\n        /* \"#utility.yul\":2794:2875   */\n      swap2\n      pop\n        /* \"#utility.yul\":2644:2886   */\n      pop\n        /* \"#utility.yul\":2972:2976   */\n      0x20\n        /* \"#utility.yul\":2965:2970   */\n      dup4\n        /* \"#utility.yul\":2961:2977   */\n      add\n        /* \"#utility.yul\":2955:2978   */\n      mload\n        /* \"#utility.yul\":2991:3054   */\n      tag_164\n        /* \"#utility.yul\":3048:3052   */\n      0x20\n        /* \"#utility.yul\":3043:3046   */\n      dup7\n        /* \"#utility.yul\":3039:3053   */\n      add\n        /* \"#utility.yul\":3025:3037   */\n      dup3\n        /* \"#utility.yul\":2991:3054   */\n      tag_87\n      jump\t// in\n    tag_164:\n        /* \"#utility.yul\":2896:3064   */\n      pop\n        /* \"#utility.yul\":3081:3085   */\n      dup1\n        /* \"#utility.yul\":3074:3085   */\n      swap2\n      pop\n        /* \"#utility.yul\":2598:3091   */\n      pop\n        /* \"#utility.yul\":2462:3091   */\n      swap3\n      swap2\n      pop\n      pop\n      jump\t// out\n        /* \"#utility.yul\":3097:3494   */\n    tag_13:\n        /* \"#utility.yul\":3252:3256   */\n      0x00\n        /* \"#utility.yul\":3290:3292   */\n      0x20\n        /* \"#utility.yul\":3279:3288   */\n      dup3\n        /* \"#utility.yul\":3275:3293   */\n      add\n        /* \"#utility.yul\":3267:3293   */\n      swap1\n      pop\n        /* \"#utility.yul\":3339:3348   */\n      dup2\n        /* \"#utility.yul\":3333:3337   */\n      dup2\n        /* \"#utility.yul\":3329:3349   */\n      sub\n        /* \"#utility.yul\":3325:3326   */\n      0x00\n        /* \"#utility.yul\":3314:3323   */\n      dup4\n        /* \"#utility.yul\":3310:3327   */\n      add\n        /* \"#utility.yul\":3303:3350   */\n      mstore\n        /* \"#utility.yul\":3367:3487   */\n      tag_166\n        /* \"#utility.yul\":3482:3486   */\n      dup2\n        /* \"#utility.yul\":3473:3479   */\n      dup5\n        /* \"#utility.yul\":3367:3487   */\n      tag_88\n      jump\t// in\n    tag_166:\n        /* \"#utility.yul\":3359:3487   */\n      swap1\n      pop\n        /* \"#utility.yul\":3097:3494   */\n      swap3\n      swap2\n      pop\n      pop\n      jump\t// out\n        /* \"#utility.yul\":3500:3669   */\n    tag_89:\n        /* \"#utility.yul\":3584:3595   */\n      0x00\n        /* \"#utility.yul\":3618:3624   */\n      dup3\n        /* \"#utility.yul\":3613:3616   */\n      dup3\n        /* \"#utility.yul\":3606:3625   */\n      mstore\n        /* \"#utility.yul\":3658:3662   */\n      0x20\n        /* \"#utility.yul\":3653:3656   */\n      dup3\n        /* \"#utility.yul\":3649:3663   */\n      add\n        /* \"#utility.yul\":3634:3663   */\n      swap1\n      pop\n        /* \"#utility.yul\":3500:3669   */\n      swap3\n      swap2\n      pop\n      pop\n      jump\t// out\n        /* \"#utility.yul\":3675:4052   */\n    tag_90:\n        /* \"#utility.yul\":3763:3766   */\n      0x00\n        /* \"#utility.yul\":3791:3830   */\n      tag_169\n        /* \"#utility.yul\":3824:3829   */\n      dup3\n        /* \"#utility.yul\":3791:3830   */\n      tag_80\n      jump\t// in\n    tag_169:\n        /* \"#utility.yul\":3846:3917   */\n      tag_170\n        /* \"#utility.yul\":3910:3916   */\n      dup2\n        /* \"#utility.yul\":3905:3908   */\n      dup6\n        /* \"#utility.yul\":3846:3917   */\n      tag_89\n      jump\t// in\n    tag_170:\n        /* \"#utility.yul\":3839:3917   */\n      swap4\n      pop\n        /* \"#utility.yul\":3926:3991   */\n      tag_171\n        /* \"#utility.yul\":3984:3990   */\n      dup2\n        /* \"#utility.yul\":3979:3982   */\n      dup6\n        /* \"#utility.yul\":3972:3976   */\n      0x20\n        /* \"#utility.yul\":3965:3970   */\n      dup7\n        /* \"#utility.yul\":3961:3977   */\n      add\n        /* \"#utility.yul\":3926:3991   */\n      tag_82\n      jump\t// in\n    tag_171:\n        /* \"#utility.yul\":4016:4045   */\n      tag_172\n        /* \"#utility.yul\":4038:4044   */\n      dup2\n        /* \"#utility.yul\":4016:4045   */\n      tag_83\n      jump\t// in\n    tag_172:\n        /* \"#utility.yul\":4011:4014   */\n      dup5\n        /* \"#utility.yul\":4007:4046   */\n      add\n        /* \"#utility.yul\":4000:4046   */\n      swap2\n      pop\n        /* \"#utility.yul\":3767:4052   */\n      pop\n        /* \"#utility.yul\":3675:4052   */\n      swap3\n      swap2\n      pop\n      pop\n      jump\t// out\n        /* \"#utility.yul\":4058:4176   */\n    tag_91:\n        /* \"#utility.yul\":4145:4169   */\n      tag_174\n        /* \"#utility.yul\":4163:4168   */\n      dup2\n        /* \"#utility.yul\":4145:4169   */\n      tag_86\n      jump\t// in\n    tag_174:\n        /* \"#utility.yul\":4140:4143   */\n      dup3\n        /* \"#utility.yul\":4133:4170   */\n      mstore\n        /* \"#utility.yul\":4058:4176   */\n      pop\n      pop\n      jump\t// out\n        /* \"#utility.yul\":4182:4605   */\n    tag_18:\n        /* \"#utility.yul\":4323:4327   */\n      0x00\n        /* \"#utility.yul\":4361:4363   */\n      0x40\n        /* \"#utility.yul\":4350:4359   */\n      dup3\n        /* \"#utility.yul\":4346:4364   */\n      add\n        /* \"#utility.yul\":4338:4364   */\n      swap1\n      pop\n        /* \"#utility.yul\":4410:4419   */\n      dup2\n        /* \"#utility.yul\":4404:4408   */\n      dup2\n        /* \"#utility.yul\":4400:4420   */\n      sub\n        /* \"#utility.yul\":4396:4397   */\n      0x00\n        /* \"#utility.yul\":4385:4394   */\n      dup4\n        /* \"#utility.yul\":4381:4398   */\n      add\n        /* \"#utility.yul\":4374:4421   */\n      mstore\n        /* \"#utility.yul\":4438:4516   */\n      tag_176\n        /* \"#utility.yul\":4511:4515   */\n      dup2\n        /* \"#utility.yul\":4502:4508   */\n      dup6\n        /* \"#utility.yul\":4438:4516   */\n      tag_90\n      jump\t// in\n    tag_176:\n        /* \"#utility.yul\":4430:4516   */\n      swap1\n      pop\n        /* \"#utility.yul\":4526:4598   */\n      tag_177\n        /* \"#utility.yul\":4594:4596   */\n      0x20\n        /* \"#utility.yul\":4583:4592   */\n      dup4\n        /* \"#utility.yul\":4579:4597   */\n      add\n        /* \"#utility.yul\":4570:4576   */\n      dup5\n        /* \"#utility.yul\":4526:4598   */\n      tag_91\n      jump\t// in\n    tag_177:\n        /* \"#utility.yul\":4182:4605   */\n      swap4\n      swap3\n      pop\n      pop\n      pop\n      jump\t// out\n        /* \"#utility.yul\":4611:4756   */\n    tag_92:\n        /* \"#utility.yul\":4709:4715   */\n      0x00\n        /* \"#utility.yul\":4743:4748   */\n      dup2\n        /* \"#utility.yul\":4737:4749   */\n      mload\n        /* \"#utility.yul\":4727:4749   */\n      swap1\n      pop\n        /* \"#utility.yul\":4611:4756   */\n      swap2\n      swap1\n      pop\n      jump\t// out\n        /* \"#utility.yul\":4762:4977   */\n    tag_93:\n        /* \"#utility.yul\":4892:4903   */\n      0x00\n        /* \"#utility.yul\":4926:4932   */\n      dup3\n        /* \"#utility.yul\":4921:4924   */\n      dup3\n        /* \"#utility.yul\":4914:4933   */\n      mstore\n        /* \"#utility.yul\":4966:4970   */\n      0x20\n        /* \"#utility.yul\":4961:4964   */\n      dup3\n        /* \"#utility.yul\":4957:4971   */\n      add\n        /* \"#utility.yul\":4942:4971   */\n      swap1\n      pop\n        /* \"#utility.yul\":4762:4977   */\n      swap3\n      swap2\n      pop\n      pop\n      jump\t// out\n        /* \"#utility.yul\":4983:5146   */\n    tag_94:\n        /* \"#utility.yul\":5081:5085   */\n      0x00\n        /* \"#utility.yul\":5104:5107   */\n      dup2\n        /* \"#utility.yul\":5096:5107   */\n      swap1\n      pop\n        /* \"#utility.yul\":5134:5138   */\n      0x20\n        /* \"#utility.yul\":5129:5132   */\n      dup3\n        /* \"#utility.yul\":5125:5139   */\n      add\n        /* \"#utility.yul\":5117:5139   */\n      swap1\n      pop\n        /* \"#utility.yul\":4983:5146   */\n      swap2\n      swap1\n      pop\n      jump\t// out\n        /* \"#utility.yul\":5248:5867   */\n    tag_95:\n        /* \"#utility.yul\":5369:5372   */\n      0x00\n        /* \"#utility.yul\":5405:5409   */\n      0x40\n        /* \"#utility.yul\":5400:5403   */\n      dup4\n        /* \"#utility.yul\":5396:5410   */\n      add\n        /* \"#utility.yul\":5499:5503   */\n      0x00\n        /* \"#utility.yul\":5492:5497   */\n      dup4\n        /* \"#utility.yul\":5488:5504   */\n      add\n        /* \"#utility.yul\":5482:5505   */\n      mload\n        /* \"#utility.yul\":5552:5555   */\n      dup5\n        /* \"#utility.yul\":5546:5550   */\n      dup3\n        /* \"#utility.yul\":5542:5556   */\n      sub\n        /* \"#utility.yul\":5535:5539   */\n      0x00\n        /* \"#utility.yul\":5530:5533   */\n      dup7\n        /* \"#utility.yul\":5526:5540   */\n      add\n        /* \"#utility.yul\":5519:5557   */\n      mstore\n        /* \"#utility.yul\":5578:5651   */\n      tag_182\n        /* \"#utility.yul\":5646:5650   */\n      dup3\n        /* \"#utility.yul\":5632:5644   */\n      dup3\n        /* \"#utility.yul\":5578:5651   */\n      tag_84\n      jump\t// in\n    tag_182:\n        /* \"#utility.yul\":5570:5651   */\n      swap2\n      pop\n        /* \"#utility.yul\":5420:5662   */\n      pop\n        /* \"#utility.yul\":5748:5752   */\n      0x20\n        /* \"#utility.yul\":5741:5746   */\n      dup4\n        /* \"#utility.yul\":5737:5753   */\n      add\n        /* \"#utility.yul\":5731:5754   */\n      mload\n        /* \"#utility.yul\":5767:5830   */\n      tag_183\n        /* \"#utility.yul\":5824:5828   */\n      0x20\n        /* \"#utility.yul\":5819:5822   */\n      dup7\n        /* \"#utility.yul\":5815:5829   */\n      add\n        /* \"#utility.yul\":5801:5813   */\n      dup3\n        /* \"#utility.yul\":5767:5830   */\n      tag_87\n      jump\t// in\n    tag_183:\n        /* \"#utility.yul\":5672:5840   */\n      pop\n        /* \"#utility.yul\":5857:5861   */\n      dup1\n        /* \"#utility.yul\":5850:5861   */\n      swap2\n      pop\n        /* \"#utility.yul\":5374:5867   */\n      pop\n        /* \"#utility.yul\":5248:5867   */\n      swap3\n      swap2\n      pop\n      pop\n      jump\t// out\n        /* \"#utility.yul\":5873:6153   */\n    tag_96:\n        /* \"#utility.yul\":6004:6014   */\n      0x00\n        /* \"#utility.yul\":6039:6147   */\n      tag_185\n        /* \"#utility.yul\":6143:6146   */\n      dup4\n        /* \"#utility.yul\":6135:6141   */\n      dup4\n        /* \"#utility.yul\":6039:6147   */\n      tag_95\n      jump\t// in\n    tag_185:\n        /* \"#utility.yul\":6025:6147   */\n      swap1\n      pop\n        /* \"#utility.yul\":5873:6153   */\n      swap3\n      swap2\n      pop\n      pop\n      jump\t// out\n        /* \"#utility.yul\":6159:6303   */\n    tag_97:\n        /* \"#utility.yul\":6260:6264   */\n      0x00\n        /* \"#utility.yul\":6292:6296   */\n      0x20\n        /* \"#utility.yul\":6287:6290   */\n      dup3\n        /* \"#utility.yul\":6283:6297   */\n      add\n        /* \"#utility.yul\":6275:6297   */\n      swap1\n      pop\n        /* \"#utility.yul\":6159:6303   */\n      swap2\n      swap1\n      pop\n      jump\t// out\n        /* \"#utility.yul\":6409:7568   */\n    tag_98:\n        /* \"#utility.yul\":6590:6593   */\n      0x00\n        /* \"#utility.yul\":6619:6704   */\n      tag_188\n        /* \"#utility.yul\":6698:6703   */\n      dup3\n        /* \"#utility.yul\":6619:6704   */\n      tag_92\n      jump\t// in\n    tag_188:\n        /* \"#utility.yul\":6720:6837   */\n      tag_189\n        /* \"#utility.yul\":6830:6836   */\n      dup2\n        /* \"#utility.yul\":6825:6828   */\n      dup6\n        /* \"#utility.yul\":6720:6837   */\n      tag_93\n      jump\t// in\n    tag_189:\n        /* \"#utility.yul\":6713:6837   */\n      swap4\n      pop\n        /* \"#utility.yul\":6863:6866   */\n      dup4\n        /* \"#utility.yul\":6908:6912   */\n      0x20\n        /* \"#utility.yul\":6900:6906   */\n      dup3\n        /* \"#utility.yul\":6896:6913   */\n      mul\n        /* \"#utility.yul\":6891:6894   */\n      dup6\n        /* \"#utility.yul\":6887:6914   */\n      add\n        /* \"#utility.yul\":6938:7025   */\n      tag_190\n        /* \"#utility.yul\":7019:7024   */\n      dup6\n        /* \"#utility.yul\":6938:7025   */\n      tag_94\n      jump\t// in\n    tag_190:\n        /* \"#utility.yul\":7048:7055   */\n      dup1\n        /* \"#utility.yul\":7079:7080   */\n      0x00\n        /* \"#utility.yul\":7064:7523   */\n    tag_191:\n        /* \"#utility.yul\":7089:7095   */\n      dup6\n        /* \"#utility.yul\":7086:7087   */\n      dup2\n        /* \"#utility.yul\":7083:7096   */\n      lt\n        /* \"#utility.yul\":7064:7523   */\n      iszero\n      tag_193\n      jumpi\n        /* \"#utility.yul\":7160:7169   */\n      dup5\n        /* \"#utility.yul\":7154:7158   */\n      dup5\n        /* \"#utility.yul\":7150:7170   */\n      sub\n        /* \"#utility.yul\":7145:7148   */\n      dup10\n        /* \"#utility.yul\":7138:7171   */\n      mstore\n        /* \"#utility.yul\":7211:7217   */\n      dup2\n        /* \"#utility.yul\":7205:7218   */\n      mload\n        /* \"#utility.yul\":7239:7365   */\n      tag_194\n        /* \"#utility.yul\":7360:7364   */\n      dup6\n        /* \"#utility.yul\":7345:7358   */\n      dup3\n        /* \"#utility.yul\":7239:7365   */\n      tag_96\n      jump\t// in\n    tag_194:\n        /* \"#utility.yul\":7231:7365   */\n      swap5\n      pop\n        /* \"#utility.yul\":7388:7479   */\n      tag_195\n        /* \"#utility.yul\":7472:7478   */\n      dup4\n        /* \"#utility.yul\":7388:7479   */\n      tag_97\n      jump\t// in\n    tag_195:\n        /* \"#utility.yul\":7378:7479   */\n      swap3\n      pop\n        /* \"#utility.yul\":7508:7512   */\n      0x20\n        /* \"#utility.yul\":7503:7506   */\n      dup11\n        /* \"#utility.yul\":7499:7513   */\n      add\n        /* \"#utility.yul\":7492:7513   */\n      swap10\n      pop\n        /* \"#utility.yul\":7124:7523   */\n      pop\n        /* \"#utility.yul\":7111:7112   */\n      0x01\n        /* \"#utility.yul\":7108:7109   */\n      dup2\n        /* \"#utility.yul\":7104:7113   */\n      add\n        /* \"#utility.yul\":7099:7113   */\n      swap1\n      pop\n        /* \"#utility.yul\":7064:7523   */\n      jump(tag_191)\n    tag_193:\n        /* \"#utility.yul\":7068:7082   */\n      pop\n        /* \"#utility.yul\":7539:7543   */\n      dup3\n        /* \"#utility.yul\":7532:7543   */\n      swap8\n      pop\n        /* \"#utility.yul\":7559:7562   */\n      dup8\n        /* \"#utility.yul\":7552:7562   */\n      swap6\n      pop\n        /* \"#utility.yul\":6595:7568   */\n      pop\n      pop\n      pop\n      pop\n      pop\n        /* \"#utility.yul\":6409:7568   */\n      swap3\n      swap2\n      pop\n      pop\n      jump\t// out\n        /* \"#utility.yul\":7574:8071   */\n    tag_22:\n        /* \"#utility.yul\":7779:7783   */\n      0x00\n        /* \"#utility.yul\":7817:7819   */\n      0x20\n        /* \"#utility.yul\":7806:7815   */\n      dup3\n        /* \"#utility.yul\":7802:7820   */\n      add\n        /* \"#utility.yul\":7794:7820   */\n      swap1\n      pop\n        /* \"#utility.yul\":7866:7875   */\n      dup2\n        /* \"#utility.yul\":7860:7864   */\n      dup2\n        /* \"#utility.yul\":7856:7876   */\n      sub\n        /* \"#utility.yul\":7852:7853   */\n      0x00\n        /* \"#utility.yul\":7841:7850   */\n      dup4\n        /* \"#utility.yul\":7837:7854   */\n      add\n        /* \"#utility.yul\":7830:7877   */\n      mstore\n        /* \"#utility.yul\":7894:8064   */\n      tag_197\n        /* \"#utility.yul\":8059:8063   */\n      dup2\n        /* \"#utility.yul\":8050:8056   */\n      dup5\n        /* \"#utility.yul\":7894:8064   */\n      tag_98\n      jump\t// in\n    tag_197:\n        /* \"#utility.yul\":7886:8064   */\n      swap1\n      pop\n        /* \"#utility.yul\":7574:8071   */\n      swap3\n      swap2\n      pop\n      pop\n      jump\t// out\n        /* \"#utility.yul\":8077:8195   */\n    tag_99:\n        /* \"#utility.yul\":8164:8188   */\n      tag_199\n        /* \"#utility.yul\":8182:8187   */\n      dup2\n        /* \"#utility.yul\":8164:8188   */\n      tag_77\n      jump\t// in\n    tag_199:\n        /* \"#utility.yul\":8159:8162   */\n      dup3\n        /* \"#utility.yul\":8152:8189   */\n      mstore\n        /* \"#utility.yul\":8077:8195   */\n      pop\n      pop\n      jump\t// out\n        /* \"#utility.yul\":8201:8423   */\n    tag_26:\n        /* \"#utility.yul\":8294:8298   */\n      0x00\n        /* \"#utility.yul\":8332:8334   */\n      0x20\n        /* \"#utility.yul\":8321:8330   */\n      dup3\n        /* \"#utility.yul\":8317:8335   */\n      add\n        /* \"#utility.yul\":8309:8335   */\n      swap1\n      pop\n        /* \"#utility.yul\":8345:8416   */\n      tag_201\n        /* \"#utility.yul\":8413:8414   */\n      0x00\n        /* \"#utility.yul\":8402:8411   */\n      dup4\n        /* \"#utility.yul\":8398:8415   */\n      add\n        /* \"#utility.yul\":8389:8395   */\n      dup5\n        /* \"#utility.yul\":8345:8416   */\n      tag_99\n      jump\t// in\n    tag_201:\n        /* \"#utility.yul\":8201:8423   */\n      swap3\n      swap2\n      pop\n      pop\n      jump\t// out\n        /* \"#utility.yul\":8429:8546   */\n    tag_100:\n        /* \"#utility.yul\":8538:8539   */\n      0x00\n        /* \"#utility.yul\":8535:8536   */\n      dup1\n        /* \"#utility.yul\":8528:8540   */\n      revert\n        /* \"#utility.yul\":8552:8669   */\n    tag_101:\n        /* \"#utility.yul\":8661:8662   */\n      0x00\n        /* \"#utility.yul\":8658:8659   */\n      dup1\n        /* \"#utility.yul\":8651:8663   */\n      revert\n        /* \"#utility.yul\":8675:8855   */\n    tag_102:\n        /* \"#utility.yul\":8723:8800   */\n      0x4e487b7100000000000000000000000000000000000000000000000000000000\n        /* \"#utility.yul\":8720:8721   */\n      0x00\n        /* \"#utility.yul\":8713:8801   */\n      mstore\n        /* \"#utility.yul\":8820:8824   */\n      0x41\n        /* \"#utility.yul\":8817:8818   */\n      0x04\n        /* \"#utility.yul\":8810:8825   */\n      mstore\n        /* \"#utility.yul\":8844:8848   */\n      0x24\n        /* \"#utility.yul\":8841:8842   */\n      0x00\n        /* \"#utility.yul\":8834:8849   */\n      revert\n        /* \"#utility.yul\":8861:9142   */\n    tag_103:\n        /* \"#utility.yul\":8944:8971   */\n      tag_206\n        /* \"#utility.yul\":8966:8970   */\n      dup3\n        /* \"#utility.yul\":8944:8971   */\n      tag_83\n      jump\t// in\n    tag_206:\n        /* \"#utility.yul\":8936:8942   */\n      dup2\n        /* \"#utility.yul\":8932:8972   */\n      add\n        /* \"#utility.yul\":9074:9080   */\n      dup2\n        /* \"#utility.yul\":9062:9072   */\n      dup2\n        /* \"#utility.yul\":9059:9081   */\n      lt\n        /* \"#utility.yul\":9038:9056   */\n      0xffffffffffffffff\n        /* \"#utility.yul\":9026:9036   */\n      dup3\n        /* \"#utility.yul\":9023:9057   */\n      gt\n        /* \"#utility.yul\":9020:9082   */\n      or\n        /* \"#utility.yul\":9017:9105   */\n      iszero\n      tag_207\n      jumpi\n        /* \"#utility.yul\":9085:9103   */\n      tag_208\n      tag_102\n      jump\t// in\n    tag_208:\n        /* \"#utility.yul\":9017:9105   */\n    tag_207:\n        /* \"#utility.yul\":9125:9135   */\n      dup1\n        /* \"#utility.yul\":9121:9123   */\n      0x40\n        /* \"#utility.yul\":9114:9136   */\n      mstore\n        /* \"#utility.yul\":8904:9142   */\n      pop\n        /* \"#utility.yul\":8861:9142   */\n      pop\n      pop\n      jump\t// out\n        /* \"#utility.yul\":9148:9277   */\n    tag_104:\n        /* \"#utility.yul\":9182:9188   */\n      0x00\n        /* \"#utility.yul\":9209:9229   */\n      tag_210\n      tag_74\n      jump\t// in\n    tag_210:\n        /* \"#utility.yul\":9199:9229   */\n      swap1\n      pop\n        /* \"#utility.yul\":9238:9271   */\n      tag_211\n        /* \"#utility.yul\":9266:9270   */\n      dup3\n        /* \"#utility.yul\":9258:9264   */\n      dup3\n        /* \"#utility.yul\":9238:9271   */\n      tag_103\n      jump\t// in\n    tag_211:\n        /* \"#utility.yul\":9148:9277   */\n      swap2\n      swap1\n      pop\n      jump\t// out\n        /* \"#utility.yul\":9283:9591   */\n    tag_105:\n        /* \"#utility.yul\":9345:9349   */\n      0x00\n        /* \"#utility.yul\":9435:9453   */\n      0xffffffffffffffff\n        /* \"#utility.yul\":9427:9433   */\n      dup3\n        /* \"#utility.yul\":9424:9454   */\n      gt\n        /* \"#utility.yul\":9421:9477   */\n      iszero\n      tag_213\n      jumpi\n        /* \"#utility.yul\":9457:9475   */\n      tag_214\n      tag_102\n      jump\t// in\n    tag_214:\n        /* \"#utility.yul\":9421:9477   */\n    tag_213:\n        /* \"#utility.yul\":9495:9524   */\n      tag_215\n        /* \"#utility.yul\":9517:9523   */\n      dup3\n        /* \"#utility.yul\":9495:9524   */\n      tag_83\n      jump\t// in\n    tag_215:\n        /* \"#utility.yul\":9487:9524   */\n      swap1\n      pop\n        /* \"#utility.yul\":9579:9583   */\n      0x20\n        /* \"#utility.yul\":9573:9577   */\n      dup2\n        /* \"#utility.yul\":9569:9584   */\n      add\n        /* \"#utility.yul\":9561:9584   */\n      swap1\n      pop\n        /* \"#utility.yul\":9283:9591   */\n      swap2\n      swap1\n      pop\n      jump\t// out\n        /* \"#utility.yul\":9597:9743   */\n    tag_106:\n        /* \"#utility.yul\":9694:9700   */\n      dup3\n        /* \"#utility.yul\":9689:9692   */\n      dup2\n        /* \"#utility.yul\":9684:9687   */\n      dup4\n        /* \"#utility.yul\":9671:9701   */\n      calldatacopy\n        /* \"#utility.yul\":9735:9736   */\n      0x00\n        /* \"#utility.yul\":9726:9732   */\n      dup4\n        /* \"#utility.yul\":9721:9724   */\n      dup4\n        /* \"#utility.yul\":9717:9733   */\n      add\n        /* \"#utility.yul\":9710:9737   */\n      mstore\n        /* \"#utility.yul\":9597:9743   */\n      pop\n      pop\n      pop\n      jump\t// out\n        /* \"#utility.yul\":9749:10174   */\n    tag_107:\n        /* \"#utility.yul\":9827:9832   */\n      0x00\n        /* \"#utility.yul\":9852:9918   */\n      tag_218\n        /* \"#utility.yul\":9868:9917   */\n      tag_219\n        /* \"#utility.yul\":9910:9916   */\n      dup5\n        /* \"#utility.yul\":9868:9917   */\n      tag_105\n      jump\t// in\n    tag_219:\n        /* \"#utility.yul\":9852:9918   */\n      tag_104\n      jump\t// in\n    tag_218:\n        /* \"#utility.yul\":9843:9918   */\n      swap1\n      pop\n        /* \"#utility.yul\":9941:9947   */\n      dup3\n        /* \"#utility.yul\":9934:9939   */\n      dup2\n        /* \"#utility.yul\":9927:9948   */\n      mstore\n        /* \"#utility.yul\":9979:9983   */\n      0x20\n        /* \"#utility.yul\":9972:9977   */\n      dup2\n        /* \"#utility.yul\":9968:9984   */\n      add\n        /* \"#utility.yul\":10017:10020   */\n      dup5\n        /* \"#utility.yul\":10008:10014   */\n      dup5\n        /* \"#utility.yul\":10003:10006   */\n      dup5\n        /* \"#utility.yul\":9999:10015   */\n      add\n        /* \"#utility.yul\":9996:10021   */\n      gt\n        /* \"#utility.yul\":9993:10105   */\n      iszero\n      tag_220\n      jumpi\n        /* \"#utility.yul\":10024:10103   */\n      tag_221\n      tag_101\n      jump\t// in\n    tag_221:\n        /* \"#utility.yul\":9993:10105   */\n    tag_220:\n        /* \"#utility.yul\":10114:10168   */\n      tag_222\n        /* \"#utility.yul\":10161:10167   */\n      dup5\n        /* \"#utility.yul\":10156:10159   */\n      dup3\n        /* \"#utility.yul\":10151:10154   */\n      dup6\n        /* \"#utility.yul\":10114:10168   */\n      tag_106\n      jump\t// in\n    tag_222:\n        /* \"#utility.yul\":9833:10174   */\n      pop\n        /* \"#utility.yul\":9749:10174   */\n      swap4\n      swap3\n      pop\n      pop\n      pop\n      jump\t// out\n        /* \"#utility.yul\":10194:10534   */\n    tag_108:\n        /* \"#utility.yul\":10250:10255   */\n      0x00\n        /* \"#utility.yul\":10299:10302   */\n      dup3\n        /* \"#utility.yul\":10292:10296   */\n      0x1f\n        /* \"#utility.yul\":10284:10290   */\n      dup4\n        /* \"#utility.yul\":10280:10297   */\n      add\n        /* \"#utility.yul\":10276:10303   */\n      slt\n        /* \"#utility.yul\":10266:10388   */\n      tag_224\n      jumpi\n        /* \"#utility.yul\":10307:10386   */\n      tag_225\n      tag_100\n      jump\t// in\n    tag_225:\n        /* \"#utility.yul\":10266:10388   */\n    tag_224:\n        /* \"#utility.yul\":10424:10430   */\n      dup2\n        /* \"#utility.yul\":10411:10431   */\n      calldataload\n        /* \"#utility.yul\":10449:10528   */\n      tag_226\n        /* \"#utility.yul\":10524:10527   */\n      dup5\n        /* \"#utility.yul\":10516:10522   */\n      dup3\n        /* \"#utility.yul\":10509:10513   */\n      0x20\n        /* \"#utility.yul\":10501:10507   */\n      dup7\n        /* \"#utility.yul\":10497:10514   */\n      add\n        /* \"#utility.yul\":10449:10528   */\n      tag_107\n      jump\t// in\n    tag_226:\n        /* \"#utility.yul\":10440:10528   */\n      swap2\n      pop\n        /* \"#utility.yul\":10256:10534   */\n      pop\n        /* \"#utility.yul\":10194:10534   */\n      swap3\n      swap2\n      pop\n      pop\n      jump\t// out\n        /* \"#utility.yul\":10540:11049   */\n    tag_29:\n        /* \"#utility.yul\":10609:10615   */\n      0x00\n        /* \"#utility.yul\":10658:10660   */\n      0x20\n        /* \"#utility.yul\":10646:10655   */\n      dup3\n        /* \"#utility.yul\":10637:10644   */\n      dup5\n        /* \"#utility.yul\":10633:10656   */\n      sub\n        /* \"#utility.yul\":10629:10661   */\n      slt\n        /* \"#utility.yul\":10626:10745   */\n      iszero\n      tag_228\n      jumpi\n        /* \"#utility.yul\":10664:10743   */\n      tag_229\n      tag_75\n      jump\t// in\n    tag_229:\n        /* \"#utility.yul\":10626:10745   */\n    tag_228:\n        /* \"#utility.yul\":10812:10813   */\n      0x00\n        /* \"#utility.yul\":10801:10810   */\n      dup3\n        /* \"#utility.yul\":10797:10814   */\n      add\n        /* \"#utility.yul\":10784:10815   */\n      calldataload\n        /* \"#utility.yul\":10842:10860   */\n      0xffffffffffffffff\n        /* \"#utility.yul\":10834:10840   */\n      dup2\n        /* \"#utility.yul\":10831:10861   */\n      gt\n        /* \"#utility.yul\":10828:10945   */\n      iszero\n      tag_230\n      jumpi\n        /* \"#utility.yul\":10864:10943   */\n      tag_231\n      tag_76\n      jump\t// in\n    tag_231:\n        /* \"#utility.yul\":10828:10945   */\n    tag_230:\n        /* \"#utility.yul\":10969:11032   */\n      tag_232\n        /* \"#utility.yul\":11024:11031   */\n      dup5\n        /* \"#utility.yul\":11015:11021   */\n      dup3\n        /* \"#utility.yul\":11004:11013   */\n      dup6\n        /* \"#utility.yul\":11000:11022   */\n      add\n        /* \"#utility.yul\":10969:11032   */\n      tag_108\n      jump\t// in\n    tag_232:\n        /* \"#utility.yul\":10959:11032   */\n      swap2\n      pop\n        /* \"#utility.yul\":10755:11042   */\n      pop\n        /* \"#utility.yul\":10540:11049   */\n      swap3\n      swap2\n      pop\n      pop\n      jump\t// out\n        /* \"#utility.yul\":11055:11224   */\n    tag_109:\n        /* \"#utility.yul\":11195:11216   */\n      0x496e646578206f7574206f6620626f756e647300000000000000000000000000\n        /* \"#utility.yul\":11191:11192   */\n      0x00\n        /* \"#utility.yul\":11183:11189   */\n      dup3\n        /* \"#utility.yul\":11179:11193   */\n      add\n        /* \"#utility.yul\":11172:11217   */\n      mstore\n        /* \"#utility.yul\":11055:11224   */\n      pop\n      jump\t// out\n        /* \"#utility.yul\":11230:11596   */\n    tag_110:\n        /* \"#utility.yul\":11372:11375   */\n      0x00\n        /* \"#utility.yul\":11393:11460   */\n      tag_235\n        /* \"#utility.yul\":11457:11459   */\n      0x13\n        /* \"#utility.yul\":11452:11455   */\n      dup4\n        /* \"#utility.yul\":11393:11460   */\n      tag_89\n      jump\t// in\n    tag_235:\n        /* \"#utility.yul\":11386:11460   */\n      swap2\n      pop\n        /* \"#utility.yul\":11469:11562   */\n      tag_236\n        /* \"#utility.yul\":11558:11561   */\n      dup3\n        /* \"#utility.yul\":11469:11562   */\n      tag_109\n      jump\t// in\n    tag_236:\n        /* \"#utility.yul\":11587:11589   */\n      0x20\n        /* \"#utility.yul\":11582:11585   */\n      dup3\n        /* \"#utility.yul\":11578:11590   */\n      add\n        /* \"#utility.yul\":11571:11590   */\n      swap1\n      pop\n        /* \"#utility.yul\":11230:11596   */\n      swap2\n      swap1\n      pop\n      jump\t// out\n        /* \"#utility.yul\":11602:12021   */\n    tag_36:\n        /* \"#utility.yul\":11768:11772   */\n      0x00\n        /* \"#utility.yul\":11806:11808   */\n      0x20\n        /* \"#utility.yul\":11795:11804   */\n      dup3\n        /* \"#utility.yul\":11791:11809   */\n      add\n        /* \"#utility.yul\":11783:11809   */\n      swap1\n      pop\n        /* \"#utility.yul\":11855:11864   */\n      dup2\n        /* \"#utility.yul\":11849:11853   */\n      dup2\n        /* \"#utility.yul\":11845:11865   */\n      sub\n        /* \"#utility.yul\":11841:11842   */\n      0x00\n        /* \"#utility.yul\":11830:11839   */\n      dup4\n        /* \"#utility.yul\":11826:11843   */\n      add\n        /* \"#utility.yul\":11819:11866   */\n      mstore\n        /* \"#utility.yul\":11883:12014   */\n      tag_238\n        /* \"#utility.yul\":12009:12013   */\n      dup2\n        /* \"#utility.yul\":11883:12014   */\n      tag_110\n      jump\t// in\n    tag_238:\n        /* \"#utility.yul\":11875:12014   */\n      swap1\n      pop\n        /* \"#utility.yul\":11602:12021   */\n      swap2\n      swap1\n      pop\n      jump\t// out\n        /* \"#utility.yul\":12027:12207   */\n    tag_39:\n        /* \"#utility.yul\":12075:12152   */\n      0x4e487b7100000000000000000000000000000000000000000000000000000000\n        /* \"#utility.yul\":12072:12073   */\n      0x00\n        /* \"#utility.yul\":12065:12153   */\n      mstore\n        /* \"#utility.yul\":12172:12176   */\n      0x32\n        /* \"#utility.yul\":12169:12170   */\n      0x04\n        /* \"#utility.yul\":12162:12177   */\n      mstore\n        /* \"#utility.yul\":12196:12200   */\n      0x24\n        /* \"#utility.yul\":12193:12194   */\n      0x00\n        /* \"#utility.yul\":12186:12201   */\n      revert\n        /* \"#utility.yul\":12213:12393   */\n    tag_111:\n        /* \"#utility.yul\":12261:12338   */\n      0x4e487b7100000000000000000000000000000000000000000000000000000000\n        /* \"#utility.yul\":12258:12259   */\n      0x00\n        /* \"#utility.yul\":12251:12339   */\n      mstore\n        /* \"#utility.yul\":12358:12362   */\n      0x22\n        /* \"#utility.yul\":12355:12356   */\n      0x04\n        /* \"#utility.yul\":12348:12363   */\n      mstore\n        /* \"#utility.yul\":12382:12386   */\n      0x24\n        /* \"#utility.yul\":12379:12380   */\n      0x00\n        /* \"#utility.yul\":12372:12387   */\n      revert\n        /* \"#utility.yul\":12399:12719   */\n    tag_42:\n        /* \"#utility.yul\":12443:12449   */\n      0x00\n        /* \"#utility.yul\":12480:12481   */\n      0x02\n        /* \"#utility.yul\":12474:12478   */\n      dup3\n        /* \"#utility.yul\":12470:12482   */\n      div\n        /* \"#utility.yul\":12460:12482   */\n      swap1\n      pop\n        /* \"#utility.yul\":12527:12528   */\n      0x01\n        /* \"#utility.yul\":12521:12525   */\n      dup3\n        /* \"#utility.yul\":12517:12529   */\n      and\n        /* \"#utility.yul\":12548:12566   */\n      dup1\n        /* \"#utility.yul\":12538:12619   */\n      tag_242\n      jumpi\n        /* \"#utility.yul\":12604:12608   */\n      0x7f\n        /* \"#utility.yul\":12596:12602   */\n      dup3\n        /* \"#utility.yul\":12592:12609   */\n      and\n        /* \"#utility.yul\":12582:12609   */\n      swap2\n      pop\n        /* \"#utility.yul\":12538:12619   */\n    tag_242:\n        /* \"#utility.yul\":12666:12668   */\n      0x20\n        /* \"#utility.yul\":12658:12664   */\n      dup3\n        /* \"#utility.yul\":12655:12669   */\n      lt\n        /* \"#utility.yul\":12635:12653   */\n      dup2\n        /* \"#utility.yul\":12632:12670   */\n      sub\n        /* \"#utility.yul\":12629:12713   */\n      tag_243\n      jumpi\n        /* \"#utility.yul\":12685:12703   */\n      tag_244\n      tag_111\n      jump\t// in\n    tag_244:\n        /* \"#utility.yul\":12629:12713   */\n    tag_243:\n        /* \"#utility.yul\":12450:12719   */\n      pop\n        /* \"#utility.yul\":12399:12719   */\n      swap2\n      swap1\n      pop\n      jump\t// out\n        /* \"#utility.yul\":12725:12873   */\n    tag_112:\n        /* \"#utility.yul\":12827:12838   */\n      0x00\n        /* \"#utility.yul\":12864:12867   */\n      dup2\n        /* \"#utility.yul\":12849:12867   */\n      swap1\n      pop\n        /* \"#utility.yul\":12725:12873   */\n      swap3\n      swap2\n      pop\n      pop\n      jump\t// out\n        /* \"#utility.yul\":12879:13269   */\n    tag_113:\n        /* \"#utility.yul\":12985:12988   */\n      0x00\n        /* \"#utility.yul\":13013:13052   */\n      tag_247\n        /* \"#utility.yul\":13046:13051   */\n      dup3\n        /* \"#utility.yul\":13013:13052   */\n      tag_80\n      jump\t// in\n    tag_247:\n        /* \"#utility.yul\":13068:13157   */\n      tag_248\n        /* \"#utility.yul\":13150:13156   */\n      dup2\n        /* \"#utility.yul\":13145:13148   */\n      dup6\n        /* \"#utility.yul\":13068:13157   */\n      tag_112\n      jump\t// in\n    tag_248:\n        /* \"#utility.yul\":13061:13157   */\n      swap4\n      pop\n        /* \"#utility.yul\":13166:13231   */\n      tag_249\n        /* \"#utility.yul\":13224:13230   */\n      dup2\n        /* \"#utility.yul\":13219:13222   */\n      dup6\n        /* \"#utility.yul\":13212:13216   */\n      0x20\n        /* \"#utility.yul\":13205:13210   */\n      dup7\n        /* \"#utility.yul\":13201:13217   */\n      add\n        /* \"#utility.yul\":13166:13231   */\n      tag_82\n      jump\t// in\n    tag_249:\n        /* \"#utility.yul\":13256:13262   */\n      dup1\n        /* \"#utility.yul\":13251:13254   */\n      dup5\n        /* \"#utility.yul\":13247:13263   */\n      add\n        /* \"#utility.yul\":13240:13263   */\n      swap2\n      pop\n        /* \"#utility.yul\":12989:13269   */\n      pop\n        /* \"#utility.yul\":12879:13269   */\n      swap3\n      swap2\n      pop\n      pop\n      jump\t// out\n        /* \"#utility.yul\":13275:13550   */\n    tag_66:\n        /* \"#utility.yul\":13407:13410   */\n      0x00\n        /* \"#utility.yul\":13429:13524   */\n      tag_251\n        /* \"#utility.yul\":13520:13523   */\n      dup3\n        /* \"#utility.yul\":13511:13517   */\n      dup5\n        /* \"#utility.yul\":13429:13524   */\n      tag_113\n      jump\t// in\n    tag_251:\n        /* \"#utility.yul\":13422:13524   */\n      swap2\n      pop\n        /* \"#utility.yul\":13541:13544   */\n      dup2\n        /* \"#utility.yul\":13534:13544   */\n      swap1\n      pop\n        /* \"#utility.yul\":13275:13550   */\n      swap3\n      swap2\n      pop\n      pop\n      jump\t// out\n        /* \"#utility.yul\":13556:13733   */\n    tag_114:\n        /* \"#utility.yul\":13696:13725   */\n      0x49504653206164647265737320616c7265616479206578697374730000000000\n        /* \"#utility.yul\":13692:13693   */\n      0x00\n        /* \"#utility.yul\":13684:13690   */\n      dup3\n        /* \"#utility.yul\":13680:13694   */\n      add\n        /* \"#utility.yul\":13673:13726   */\n      mstore\n        /* \"#utility.yul\":13556:13733   */\n      pop\n      jump\t// out\n        /* \"#utility.yul\":13739:14105   */\n    tag_115:\n        /* \"#utility.yul\":13881:13884   */\n      0x00\n        /* \"#utility.yul\":13902:13969   */\n      tag_254\n        /* \"#utility.yul\":13966:13968   */\n      0x1b\n        /* \"#utility.yul\":13961:13964   */\n      dup4\n        /* \"#utility.yul\":13902:13969   */\n      tag_89\n      jump\t// in\n    tag_254:\n        /* \"#utility.yul\":13895:13969   */\n      swap2\n      pop\n        /* \"#utility.yul\":13978:14071   */\n      tag_255\n        /* \"#utility.yul\":14067:14070   */\n      dup3\n        /* \"#utility.yul\":13978:14071   */\n      tag_114\n      jump\t// in\n    tag_255:\n        /* \"#utility.yul\":14096:14098   */\n      0x20\n        /* \"#utility.yul\":14091:14094   */\n      dup3\n        /* \"#utility.yul\":14087:14099   */\n      add\n        /* \"#utility.yul\":14080:14099   */\n      swap1\n      pop\n        /* \"#utility.yul\":13739:14105   */\n      swap2\n      swap1\n      pop\n      jump\t// out\n        /* \"#utility.yul\":14111:14530   */\n    tag_69:\n        /* \"#utility.yul\":14277:14281   */\n      0x00\n        /* \"#utility.yul\":14315:14317   */\n      0x20\n        /* \"#utility.yul\":14304:14313   */\n      dup3\n        /* \"#utility.yul\":14300:14318   */\n      add\n        /* \"#utility.yul\":14292:14318   */\n      swap1\n      pop\n        /* \"#utility.yul\":14364:14373   */\n      dup2\n        /* \"#utility.yul\":14358:14362   */\n      dup2\n        /* \"#utility.yul\":14354:14374   */\n      sub\n        /* \"#utility.yul\":14350:14351   */\n      0x00\n        /* \"#utility.yul\":14339:14348   */\n      dup4\n        /* \"#utility.yul\":14335:14352   */\n      add\n        /* \"#utility.yul\":14328:14375   */\n      mstore\n        /* \"#utility.yul\":14392:14523   */\n      tag_257\n        /* \"#utility.yul\":14518:14522   */\n      dup2\n        /* \"#utility.yul\":14392:14523   */\n      tag_115\n      jump\t// in\n    tag_257:\n        /* \"#utility.yul\":14384:14523   */\n      swap1\n      pop\n        /* \"#utility.yul\":14111:14530   */\n      swap2\n      swap1\n      pop\n      jump\t// out\n        /* \"#utility.yul\":14536:14677   */\n    tag_116:\n        /* \"#utility.yul\":14585:14589   */\n      0x00\n        /* \"#utility.yul\":14608:14611   */\n      dup2\n        /* \"#utility.yul\":14600:14611   */\n      swap1\n      pop\n        /* \"#utility.yul\":14631:14634   */\n      dup2\n        /* \"#utility.yul\":14628:14629   */\n      0x00\n        /* \"#utility.yul\":14621:14635   */\n      mstore\n        /* \"#utility.yul\":14665:14669   */\n      0x20\n        /* \"#utility.yul\":14662:14663   */\n      0x00\n        /* \"#utility.yul\":14652:14670   */\n      keccak256\n        /* \"#utility.yul\":14644:14670   */\n      swap1\n      pop\n        /* \"#utility.yul\":14536:14677   */\n      swap2\n      swap1\n      pop\n      jump\t// out\n        /* \"#utility.yul\":14683:14776   */\n    tag_117:\n        /* \"#utility.yul\":14720:14726   */\n      0x00\n        /* \"#utility.yul\":14767:14769   */\n      0x20\n        /* \"#utility.yul\":14762:14764   */\n      0x1f\n        /* \"#utility.yul\":14755:14760   */\n      dup4\n        /* \"#utility.yul\":14751:14765   */\n      add\n        /* \"#utility.yul\":14747:14770   */\n      div\n        /* \"#utility.yul\":14737:14770   */\n      swap1\n      pop\n        /* \"#utility.yul\":14683:14776   */\n      swap2\n      swap1\n      pop\n      jump\t// out\n        /* \"#utility.yul\":14782:14889   */\n    tag_118:\n        /* \"#utility.yul\":14826:14834   */\n      0x00\n        /* \"#utility.yul\":14876:14881   */\n      dup3\n        /* \"#utility.yul\":14870:14874   */\n      dup3\n        /* \"#utility.yul\":14866:14882   */\n      shl\n        /* \"#utility.yul\":14845:14882   */\n      swap1\n      pop\n        /* \"#utility.yul\":14782:14889   */\n      swap3\n      swap2\n      pop\n      pop\n      jump\t// out\n        /* \"#utility.yul\":14895:15288   */\n    tag_119:\n        /* \"#utility.yul\":14964:14970   */\n      0x00\n        /* \"#utility.yul\":15014:15015   */\n      0x08\n        /* \"#utility.yul\":15002:15012   */\n      dup4\n        /* \"#utility.yul\":14998:15016   */\n      mul\n        /* \"#utility.yul\":15037:15134   */\n      tag_262\n        /* \"#utility.yul\":15067:15133   */\n      0xffffffffffffffffffffffffffffffffffffffffffffffffffffffffffffffff\n        /* \"#utility.yul\":15056:15065   */\n      dup3\n        /* \"#utility.yul\":15037:15134   */\n      tag_118\n      jump\t// in\n    tag_262:\n        /* \"#utility.yul\":15155:15194   */\n      tag_263\n        /* \"#utility.yul\":15185:15193   */\n      dup7\n        /* \"#utility.yul\":15174:15183   */\n      dup4\n        /* \"#utility.yul\":15155:15194   */\n      tag_118\n      jump\t// in\n    tag_263:\n        /* \"#utility.yul\":15143:15194   */\n      swap6\n      pop\n        /* \"#utility.yul\":15227:15231   */\n      dup1\n        /* \"#utility.yul\":15223:15232   */\n      not\n        /* \"#utility.yul\":15216:15221   */\n      dup5\n        /* \"#utility.yul\":15212:15233   */\n      and\n        /* \"#utility.yul\":15203:15233   */\n      swap4\n      pop\n        /* \"#utility.yul\":15276:15280   */\n      dup1\n        /* \"#utility.yul\":15266:15274   */\n      dup7\n        /* \"#utility.yul\":15262:15281   */\n      and\n        /* \"#utility.yul\":15255:15260   */\n      dup5\n        /* \"#utility.yul\":15252:15282   */\n      or\n        /* \"#utility.yul\":15242:15282   */\n      swap3\n      pop\n        /* \"#utility.yul\":14971:15288   */\n      pop\n      pop\n        /* \"#utility.yul\":14895:15288   */\n      swap4\n      swap3\n      pop\n      pop\n      pop\n      jump\t// out\n        /* \"#utility.yul\":15294:15354   */\n    tag_120:\n        /* \"#utility.yul\":15322:15325   */\n      0x00\n        /* \"#utility.yul\":15343:15348   */\n      dup2\n        /* \"#utility.yul\":15336:15348   */\n      swap1\n      pop\n        /* \"#utility.yul\":15294:15354   */\n      swap2\n      swap1\n      pop\n      jump\t// out\n        /* \"#utility.yul\":15360:15502   */\n    tag_121:\n        /* \"#utility.yul\":15410:15419   */\n      0x00\n        /* \"#utility.yul\":15443:15496   */\n      tag_266\n        /* \"#utility.yul\":15461:15495   */\n      tag_267\n        /* \"#utility.yul\":15470:15494   */\n      tag_268\n        /* \"#utility.yul\":15488:15493   */\n      dup5\n        /* \"#utility.yul\":15470:15494   */\n      tag_77\n      jump\t// in\n    tag_268:\n        /* \"#utility.yul\":15461:15495   */\n      tag_120\n      jump\t// in\n    tag_267:\n        /* \"#utility.yul\":15443:15496   */\n      tag_77\n      jump\t// in\n    tag_266:\n        /* \"#utility.yul\":15430:15496   */\n      swap1\n      pop\n        /* \"#utility.yul\":15360:15502   */\n      swap2\n      swap1\n      pop\n      jump\t// out\n        /* \"#utility.yul\":15508:15583   */\n    tag_122:\n        /* \"#utility.yul\":15551:15554   */\n      0x00\n        /* \"#utility.yul\":15572:15577   */\n      dup2\n        /* \"#utility.yul\":15565:15577   */\n      swap1\n      pop\n        /* \"#utility.yul\":15508:15583   */\n      swap2\n      swap1\n      pop\n      jump\t// out\n        /* \"#utility.yul\":15589:15858   */\n    tag_123:\n        /* \"#utility.yul\":15699:15738   */\n      tag_271\n        /* \"#utility.yul\":15730:15737   */\n      dup4\n        /* \"#utility.yul\":15699:15738   */\n      tag_121\n      jump\t// in\n    tag_271:\n        /* \"#utility.yul\":15760:15851   */\n      tag_272\n        /* \"#utility.yul\":15809:15850   */\n      tag_273\n        /* \"#utility.yul\":15833:15849   */\n      dup3\n        /* \"#utility.yul\":15809:15850   */\n      tag_122\n      jump\t// in\n    tag_273:\n        /* \"#utility.yul\":15801:15807   */\n      dup5\n        /* \"#utility.yul\":15794:15798   */\n      dup5\n        /* \"#utility.yul\":15788:15799   */\n      sload\n        /* \"#utility.yul\":15760:15851   */\n      tag_119\n      jump\t// in\n    tag_272:\n        /* \"#utility.yul\":15754:15758   */\n      dup3\n        /* \"#utility.yul\":15747:15852   */\n      sstore\n        /* \"#utility.yul\":15665:15858   */\n      pop\n        /* \"#utility.yul\":15589:15858   */\n      pop\n      pop\n      pop\n      jump\t// out\n        /* \"#utility.yul\":15864:15937   */\n    tag_124:\n        /* \"#utility.yul\":15909:15912   */\n      0x00\n        /* \"#utility.yul\":15864:15937   */\n      swap1\n      jump\t// out\n        /* \"#utility.yul\":15943:16132   */\n    tag_125:\n        /* \"#utility.yul\":16020:16052   */\n      tag_276\n      tag_124\n      jump\t// in\n    tag_276:\n        /* \"#utility.yul\":16061:16126   */\n      tag_277\n        /* \"#utility.yul\":16119:16125   */\n      dup2\n        /* \"#utility.yul\":16111:16117   */\n      dup5\n        /* \"#utility.yul\":16105:16109   */\n      dup5\n        /* \"#utility.yul\":16061:16126   */\n      tag_123\n      jump\t// in\n    tag_277:\n        /* \"#utility.yul\":15996:16132   */\n      pop\n        /* \"#utility.yul\":15943:16132   */\n      pop\n      pop\n      jump\t// out\n        /* \"#utility.yul\":16138:16324   */\n    tag_126:\n        /* \"#utility.yul\":16198:16318   */\n    tag_279:\n        /* \"#utility.yul\":16215:16218   */\n      dup2\n        /* \"#utility.yul\":16208:16213   */\n      dup2\n        /* \"#utility.yul\":16205:16219   */\n      lt\n        /* \"#utility.yul\":16198:16318   */\n      iszero\n      tag_281\n      jumpi\n        /* \"#utility.yul\":16269:16308   */\n      tag_282\n        /* \"#utility.yul\":16306:16307   */\n      0x00\n        /* \"#utility.yul\":16299:16304   */\n      dup3\n        /* \"#utility.yul\":16269:16308   */\n      tag_125\n      jump\t// in\n    tag_282:\n        /* \"#utility.yul\":16242:16243   */\n      0x01\n        /* \"#utility.yul\":16235:16240   */\n      dup2\n        /* \"#utility.yul\":16231:16244   */\n      add\n        /* \"#utility.yul\":16222:16244   */\n      swap1\n      pop\n        /* \"#utility.yul\":16198:16318   */\n      jump(tag_279)\n    tag_281:\n        /* \"#utility.yul\":16138:16324   */\n      pop\n      pop\n      jump\t// out\n        /* \"#utility.yul\":16330:16873   */\n    tag_127:\n        /* \"#utility.yul\":16431:16433   */\n      0x1f\n        /* \"#utility.yul\":16426:16429   */\n      dup3\n        /* \"#utility.yul\":16423:16434   */\n      gt\n        /* \"#utility.yul\":16420:16866   */\n      iszero\n      tag_284\n      jumpi\n        /* \"#utility.yul\":16465:16503   */\n      tag_285\n        /* \"#utility.yul\":16497:16502   */\n      dup2\n        /* \"#utility.yul\":16465:16503   */\n      tag_116\n      jump\t// in\n    tag_285:\n        /* \"#utility.yul\":16549:16578   */\n      tag_286\n        /* \"#utility.yul\":16567:16577   */\n      dup5\n        /* \"#utility.yul\":16549:16578   */\n      tag_117\n      jump\t// in\n    tag_286:\n        /* \"#utility.yul\":16539:16547   */\n      dup2\n        /* \"#utility.yul\":16535:16579   */\n      add\n        /* \"#utility.yul\":16732:16734   */\n      0x20\n        /* \"#utility.yul\":16720:16730   */\n      dup6\n        /* \"#utility.yul\":16717:16735   */\n      lt\n        /* \"#utility.yul\":16714:16763   */\n      iszero\n      tag_287\n      jumpi\n        /* \"#utility.yul\":16753:16761   */\n      dup2\n        /* \"#utility.yul\":16738:16761   */\n      swap1\n      pop\n        /* \"#utility.yul\":16714:16763   */\n    tag_287:\n        /* \"#utility.yul\":16776:16856   */\n      tag_288\n        /* \"#utility.yul\":16832:16854   */\n      tag_289\n        /* \"#utility.yul\":16850:16853   */\n      dup6\n        /* \"#utility.yul\":16832:16854   */\n      tag_117\n      jump\t// in\n    tag_289:\n        /* \"#utility.yul\":16822:16830   */\n      dup4\n        /* \"#utility.yul\":16818:16855   */\n      add\n        /* \"#utility.yul\":16805:16816   */\n      dup3\n        /* \"#utility.yul\":16776:16856   */\n      tag_126\n      jump\t// in\n    tag_288:\n        /* \"#utility.yul\":16435:16866   */\n      pop\n      pop\n        /* \"#utility.yul\":16420:16866   */\n    tag_284:\n        /* \"#utility.yul\":16330:16873   */\n      pop\n      pop\n      pop\n      jump\t// out\n        /* \"#utility.yul\":16879:16996   */\n    tag_128:\n        /* \"#utility.yul\":16933:16941   */\n      0x00\n        /* \"#utility.yul\":16983:16988   */\n      dup3\n        /* \"#utility.yul\":16977:16981   */\n      dup3\n        /* \"#utility.yul\":16973:16989   */\n      shr\n        /* \"#utility.yul\":16952:16989   */\n      swap1\n      pop\n        /* \"#utility.yul\":16879:16996   */\n      swap3\n      swap2\n      pop\n      pop\n      jump\t// out\n        /* \"#utility.yul\":17002:17171   */\n    tag_129:\n        /* \"#utility.yul\":17046:17052   */\n      0x00\n        /* \"#utility.yul\":17079:17130   */\n      tag_292\n        /* \"#utility.yul\":17127:17128   */\n      0x00\n        /* \"#utility.yul\":17123:17129   */\n      not\n        /* \"#utility.yul\":17115:17120   */\n      dup5\n        /* \"#utility.yul\":17112:17113   */\n      0x08\n        /* \"#utility.yul\":17108:17121   */\n      mul\n        /* \"#utility.yul\":17079:17130   */\n      tag_128\n      jump\t// in\n    tag_292:\n        /* \"#utility.yul\":17075:17131   */\n      not\n        /* \"#utility.yul\":17160:17164   */\n      dup1\n        /* \"#utility.yul\":17154:17158   */\n      dup4\n        /* \"#utility.yul\":17150:17165   */\n      and\n        /* \"#utility.yul\":17140:17165   */\n      swap2\n      pop\n        /* \"#utility.yul\":17053:17171   */\n      pop\n        /* \"#utility.yul\":17002:17171   */\n      swap3\n      swap2\n      pop\n      pop\n      jump\t// out\n        /* \"#utility.yul\":17176:17471   */\n    tag_130:\n        /* \"#utility.yul\":17252:17256   */\n      0x00\n        /* \"#utility.yul\":17398:17427   */\n      tag_294\n        /* \"#utility.yul\":17423:17426   */\n      dup4\n        /* \"#utility.yul\":17417:17421   */\n      dup4\n        /* \"#utility.yul\":17398:17427   */\n      tag_129\n      jump\t// in\n    tag_294:\n        /* \"#utility.yul\":17390:17427   */\n      swap2\n      pop\n        /* \"#utility.yul\":17460:17463   */\n      dup3\n        /* \"#utility.yul\":17457:17458   */\n      0x02\n        /* \"#utility.yul\":17453:17464   */\n      mul\n        /* \"#utility.yul\":17447:17451   */\n      dup3\n        /* \"#utility.yul\":17444:17465   */\n      or\n        /* \"#utility.yul\":17436:17465   */\n      swap1\n      pop\n        /* \"#utility.yul\":17176:17471   */\n      swap3\n      swap2\n      pop\n      pop\n      jump\t// out\n        /* \"#utility.yul\":17476:18871   */\n    tag_72:\n        /* \"#utility.yul\":17593:17630   */\n      tag_296\n        /* \"#utility.yul\":17626:17629   */\n      dup3\n        /* \"#utility.yul\":17593:17630   */\n      tag_80\n      jump\t// in\n    tag_296:\n        /* \"#utility.yul\":17695:17713   */\n      0xffffffffffffffff\n        /* \"#utility.yul\":17687:17693   */\n      dup2\n        /* \"#utility.yul\":17684:17714   */\n      gt\n        /* \"#utility.yul\":17681:17737   */\n      iszero\n      tag_297\n      jumpi\n        /* \"#utility.yul\":17717:17735   */\n      tag_298\n      tag_102\n      jump\t// in\n    tag_298:\n        /* \"#utility.yul\":17681:17737   */\n    tag_297:\n        /* \"#utility.yul\":17761:17799   */\n      tag_299\n        /* \"#utility.yul\":17793:17797   */\n      dup3\n        /* \"#utility.yul\":17787:17798   */\n      sload\n        /* \"#utility.yul\":17761:17799   */\n      tag_42\n      jump\t// in\n    tag_299:\n        /* \"#utility.yul\":17846:17913   */\n      tag_300\n        /* \"#utility.yul\":17906:17912   */\n      dup3\n        /* \"#utility.yul\":17898:17904   */\n      dup3\n        /* \"#utility.yul\":17892:17896   */\n      dup6\n        /* \"#utility.yul\":17846:17913   */\n      tag_127\n      jump\t// in\n    tag_300:\n        /* \"#utility.yul\":17940:17941   */\n      0x00\n        /* \"#utility.yul\":17964:17968   */\n      0x20\n        /* \"#utility.yul\":17951:17968   */\n      swap1\n      pop\n        /* \"#utility.yul\":17996:17998   */\n      0x1f\n        /* \"#utility.yul\":17988:17994   */\n      dup4\n        /* \"#utility.yul\":17985:17999   */\n      gt\n        /* \"#utility.yul\":18013:18014   */\n      0x01\n        /* \"#utility.yul\":18008:18626   */\n      dup2\n      eq\n      tag_302\n      jumpi\n        /* \"#utility.yul\":18670:18671   */\n      0x00\n        /* \"#utility.yul\":18687:18693   */\n      dup5\n        /* \"#utility.yul\":18684:18761   */\n      iszero\n      tag_303\n      jumpi\n        /* \"#utility.yul\":18736:18745   */\n      dup3\n        /* \"#utility.yul\":18731:18734   */\n      dup8\n        /* \"#utility.yul\":18727:18746   */\n      add\n        /* \"#utility.yul\":18721:18747   */\n      mload\n        /* \"#utility.yul\":18712:18747   */\n      swap1\n      pop\n        /* \"#utility.yul\":18684:18761   */\n    tag_303:\n        /* \"#utility.yul\":18787:18854   */\n      tag_304\n        /* \"#utility.yul\":18847:18853   */\n      dup6\n        /* \"#utility.yul\":18840:18845   */\n      dup3\n        /* \"#utility.yul\":18787:18854   */\n      tag_130\n      jump\t// in\n    tag_304:\n        /* \"#utility.yul\":18781:18785   */\n      dup7\n        /* \"#utility.yul\":18774:18855   */\n      sstore\n        /* \"#utility.yul\":18643:18865   */\n      pop\n        /* \"#utility.yul\":17978:18865   */\n      jump(tag_301)\n        /* \"#utility.yul\":18008:18626   */\n    tag_302:\n        /* \"#utility.yul\":18060:18064   */\n      0x1f\n        /* \"#utility.yul\":18056:18065   */\n      not\n        /* \"#utility.yul\":18048:18054   */\n      dup5\n        /* \"#utility.yul\":18044:18066   */\n      and\n        /* \"#utility.yul\":18094:18131   */\n      tag_305\n        /* \"#utility.yul\":18126:18130   */\n      dup7\n        /* \"#utility.yul\":18094:18131   */\n      tag_116\n      jump\t// in\n    tag_305:\n        /* \"#utility.yul\":18153:18154   */\n      0x00\n        /* \"#utility.yul\":18167:18375   */\n    tag_306:\n        /* \"#utility.yul\":18181:18188   */\n      dup3\n        /* \"#utility.yul\":18178:18179   */\n      dup2\n        /* \"#utility.yul\":18175:18189   */\n      lt\n        /* \"#utility.yul\":18167:18375   */\n      iszero\n      tag_308\n      jumpi\n        /* \"#utility.yul\":18260:18269   */\n      dup5\n        /* \"#utility.yul\":18255:18258   */\n      dup10\n        /* \"#utility.yul\":18251:18270   */\n      add\n        /* \"#utility.yul\":18245:18271   */\n      mload\n        /* \"#utility.yul\":18237:18243   */\n      dup3\n        /* \"#utility.yul\":18230:18272   */\n      sstore\n        /* \"#utility.yul\":18311:18312   */\n      0x01\n        /* \"#utility.yul\":18303:18309   */\n      dup3\n        /* \"#utility.yul\":18299:18313   */\n      add\n        /* \"#utility.yul\":18289:18313   */\n      swap2\n      pop\n        /* \"#utility.yul\":18358:18360   */\n      0x20\n        /* \"#utility.yul\":18347:18356   */\n      dup6\n        /* \"#utility.yul\":18343:18361   */\n      add\n        /* \"#utility.yul\":18330:18361   */\n      swap5\n      pop\n        /* \"#utility.yul\":18204:18208   */\n      0x20\n        /* \"#utility.yul\":18201:18202   */\n      dup2\n        /* \"#utility.yul\":18197:18209   */\n      add\n        /* \"#utility.yul\":18192:18209   */\n      swap1\n      pop\n        /* \"#utility.yul\":18167:18375   */\n      jump(tag_306)\n    tag_308:\n        /* \"#utility.yul\":18403:18409   */\n      dup7\n        /* \"#utility.yul\":18394:18401   */\n      dup4\n        /* \"#utility.yul\":18391:18410   */\n      lt\n        /* \"#utility.yul\":18388:18567   */\n      iszero\n      tag_309\n      jumpi\n        /* \"#utility.yul\":18461:18470   */\n      dup5\n        /* \"#utility.yul\":18456:18459   */\n      dup10\n        /* \"#utility.yul\":18452:18471   */\n      add\n        /* \"#utility.yul\":18446:18472   */\n      mload\n        /* \"#utility.yul\":18504:18552   */\n      tag_310\n        /* \"#utility.yul\":18546:18550   */\n      0x1f\n        /* \"#utility.yul\":18538:18544   */\n      dup10\n        /* \"#utility.yul\":18534:18551   */\n      and\n        /* \"#utility.yul\":18523:18532   */\n      dup3\n        /* \"#utility.yul\":18504:18552   */\n      tag_129\n      jump\t// in\n    tag_310:\n        /* \"#utility.yul\":18496:18502   */\n      dup4\n        /* \"#utility.yul\":18489:18553   */\n      sstore\n        /* \"#utility.yul\":18411:18567   */\n      pop\n        /* \"#utility.yul\":18388:18567   */\n    tag_309:\n        /* \"#utility.yul\":18613:18614   */\n      0x01\n        /* \"#utility.yul\":18609:18610   */\n      0x02\n        /* \"#utility.yul\":18601:18607   */\n      dup9\n        /* \"#utility.yul\":18597:18611   */\n      mul\n        /* \"#utility.yul\":18593:18615   */\n      add\n        /* \"#utility.yul\":18587:18591   */\n      dup9\n        /* \"#utility.yul\":18580:18616   */\n      sstore\n        /* \"#utility.yul\":18015:18626   */\n      pop\n      pop\n      pop\n        /* \"#utility.yul\":17978:18865   */\n    tag_301:\n      pop\n        /* \"#utility.yul\":17568:18871   */\n      pop\n      pop\n      pop\n        /* \"#utility.yul\":17476:18871   */\n      pop\n      pop\n      jump\t// out\n\n    auxdata: 0xa2646970667358221220854083dfdc359151d2ae6e28b8f1d7fabf1b1a20e7e313003810326af8f1b39264736f6c63430008150033\n}\n",
				"bytecode": {
					"linkReferences": {},
					"object": "608060405234801561000f575f80fd5b50610f258061001d5f395ff3fe608060405234801561000f575f80fd5b5060043610610055575f3560e01c806303e9e609146100595780633446106714610089578063a7f9fe72146100ba578063ca267f28146100d8578063d81aa8c4146100f6575b5f80fd5b610073600480360381019061006e9190610656565b610112565b6040516100809190610784565b60405180910390f35b6100a3600480360381019061009e9190610656565b610275565b6040516100b19291906107fb565b60405180910390f35b6100c2610348565b6040516100cf919061091e565b60405180910390f35b6100e0610487565b6040516100ed919061094d565b60405180910390f35b610110600480360381019061010b9190610a92565b610492565b005b61011a6105e3565b5f805490508210610160576040517f08c379a000000000000000000000000000000000000000000000000000000000815260040161015790610b23565b60405180910390fd5b5f828154811061017357610172610b41565b5b905f5260205f2090600202016040518060400160405290815f8201805461019990610b9b565b80601f01602080910402602001604051908101604052809291908181526020018280546101c590610b9b565b80156102105780601f106101e757610100808354040283529160200191610210565b820191905f5260205f20905b8154815290600101906020018083116101f357829003601f168201915b50505050508152602001600182015f9054906101000a900473ffffffffffffffffffffffffffffffffffffffff1673ffffffffffffffffffffffffffffffffffffffff1673ffffffffffffffffffffffffffffffffffffffff16815250509050919050565b5f8181548110610283575f80fd5b905f5260205f2090600202015f91509050805f0180546102a290610b9b565b80601f01602080910402602001604051908101604052809291908181526020018280546102ce90610b9b565b80156103195780601f106102f057610100808354040283529160200191610319565b820191905f5260205f20905b8154815290600101906020018083116102fc57829003601f168201915b505050505090806001015f9054906101000a900473ffffffffffffffffffffffffffffffffffffffff16905082565b60605f805480602002602001604051908101604052809291908181526020015f905b8282101561047e578382905f5260205f2090600202016040518060400160405290815f8201805461039a90610b9b565b80601f01602080910402602001604051908101604052809291908181526020018280546103c690610b9b565b80156104115780601f106103e857610100808354040283529160200191610411565b820191905f5260205f20905b8154815290600101906020018083116103f457829003601f168201915b50505050508152602001600182015f9054906101000a900473ffffffffffffffffffffffffffffffffffffffff1673ffffffffffffffffffffffffffffffffffffffff1673ffffffffffffffffffffffffffffffffffffffff16815250508152602001906001019061036a565b50505050905090565b5f8080549050905090565b6001816040516104a29190610c05565b90815260200160405180910390205f9054906101000a900460ff16156104fd576040517f08c379a00000000000000000000000000000000000000000000000000000000081526004016104f490610c65565b60405180910390fd5b5f60405180604001604052808381526020013373ffffffffffffffffffffffffffffffffffffffff16815250908060018154018082558091505060019003905f5260205f2090600202015f909190919091505f820151815f0190816105629190610e20565b506020820151816001015f6101000a81548173ffffffffffffffffffffffffffffffffffffffff021916908373ffffffffffffffffffffffffffffffffffffffff1602179055505050600180826040516105bc9190610c05565b90815260200160405180910390205f6101000a81548160ff02191690831515021790555050565b6040518060400160405280606081526020015f73ffffffffffffffffffffffffffffffffffffffff1681525090565b5f604051905090565b5f80fd5b5f80fd5b5f819050919050565b61063581610623565b811461063f575f80fd5b50565b5f813590506106508161062c565b92915050565b5f6020828403121561066b5761066a61061b565b5b5f61067884828501610642565b91505092915050565b5f81519050919050565b5f82825260208201905092915050565b5f5b838110156106b857808201518184015260208101905061069d565b5f8484015250505050565b5f601f19601f8301169050919050565b5f6106dd82610681565b6106e7818561068b565b93506106f781856020860161069b565b610700816106c3565b840191505092915050565b5f73ffffffffffffffffffffffffffffffffffffffff82169050919050565b5f6107348261070b565b9050919050565b6107448161072a565b82525050565b5f604083015f8301518482035f86015261076482826106d3565b9150506020830151610779602086018261073b565b508091505092915050565b5f6020820190508181035f83015261079c818461074a565b905092915050565b5f82825260208201905092915050565b5f6107be82610681565b6107c881856107a4565b93506107d881856020860161069b565b6107e1816106c3565b840191505092915050565b6107f58161072a565b82525050565b5f6040820190508181035f83015261081381856107b4565b905061082260208301846107ec565b9392505050565b5f81519050919050565b5f82825260208201905092915050565b5f819050602082019050919050565b5f604083015f8301518482035f86015261086c82826106d3565b9150506020830151610881602086018261073b565b508091505092915050565b5f6108978383610852565b905092915050565b5f602082019050919050565b5f6108b582610829565b6108bf8185610833565b9350836020820285016108d185610843565b805f5b8581101561090c57848403895281516108ed858261088c565b94506108f88361089f565b925060208a019950506001810190506108d4565b50829750879550505050505092915050565b5f6020820190508181035f83015261093681846108ab565b905092915050565b61094781610623565b82525050565b5f6020820190506109605f83018461093e565b92915050565b5f80fd5b5f80fd5b7f4e487b71000000000000000000000000000000000000000000000000000000005f52604160045260245ffd5b6109a4826106c3565b810181811067ffffffffffffffff821117156109c3576109c261096e565b5b80604052505050565b5f6109d5610612565b90506109e1828261099b565b919050565b5f67ffffffffffffffff821115610a00576109ff61096e565b5b610a09826106c3565b9050602081019050919050565b828183375f83830152505050565b5f610a36610a31846109e6565b6109cc565b905082815260208101848484011115610a5257610a5161096a565b5b610a5d848285610a16565b509392505050565b5f82601f830112610a7957610a78610966565b5b8135610a89848260208601610a24565b91505092915050565b5f60208284031215610aa757610aa661061b565b5b5f82013567ffffffffffffffff811115610ac457610ac361061f565b5b610ad084828501610a65565b91505092915050565b7f496e646578206f7574206f6620626f756e6473000000000000000000000000005f82015250565b5f610b0d6013836107a4565b9150610b1882610ad9565b602082019050919050565b5f6020820190508181035f830152610b3a81610b01565b9050919050565b7f4e487b71000000000000000000000000000000000000000000000000000000005f52603260045260245ffd5b7f4e487b71000000000000000000000000000000000000000000000000000000005f52602260045260245ffd5b5f6002820490506001821680610bb257607f821691505b602082108103610bc557610bc4610b6e565b5b50919050565b5f81905092915050565b5f610bdf82610681565b610be98185610bcb565b9350610bf981856020860161069b565b80840191505092915050565b5f610c108284610bd5565b915081905092915050565b7f49504653206164647265737320616c72656164792065786973747300000000005f82015250565b5f610c4f601b836107a4565b9150610c5a82610c1b565b602082019050919050565b5f6020820190508181035f830152610c7c81610c43565b9050919050565b5f819050815f5260205f209050919050565b5f6020601f8301049050919050565b5f82821b905092915050565b5f60088302610cdf7fffffffffffffffffffffffffffffffffffffffffffffffffffffffffffffffff82610ca4565b610ce98683610ca4565b95508019841693508086168417925050509392505050565b5f819050919050565b5f610d24610d1f610d1a84610623565b610d01565b610623565b9050919050565b5f819050919050565b610d3d83610d0a565b610d51610d4982610d2b565b848454610cb0565b825550505050565b5f90565b610d65610d59565b610d70818484610d34565b505050565b5b81811015610d9357610d885f82610d5d565b600181019050610d76565b5050565b601f821115610dd857610da981610c83565b610db284610c95565b81016020851015610dc1578190505b610dd5610dcd85610c95565b830182610d75565b50505b505050565b5f82821c905092915050565b5f610df85f1984600802610ddd565b1980831691505092915050565b5f610e108383610de9565b9150826002028217905092915050565b610e2982610681565b67ffffffffffffffff811115610e4257610e4161096e565b5b610e4c8254610b9b565b610e57828285610d97565b5f60209050601f831160018114610e88575f8415610e76578287015190505b610e808582610e05565b865550610ee7565b601f198416610e9686610c83565b5f5b82811015610ebd57848901518255600182019150602085019450602081019050610e98565b86831015610eda5784890151610ed6601f891682610de9565b8355505b6001600288020188555050505b50505050505056fea2646970667358221220854083dfdc359151d2ae6e28b8f1d7fabf1b1a20e7e313003810326af8f1b39264736f6c63430008150033",
					"opcodes": "PUSH1 0x80 PUSH1 0x40 MSTORE CALLVALUE DUP1 ISZERO PUSH2 0xF JUMPI PUSH0 DUP1 REVERT JUMPDEST POP PUSH2 0xF25 DUP1 PUSH2 0x1D PUSH0 CODECOPY PUSH0 RETURN INVALID PUSH1 0x80 PUSH1 0x40 MSTORE CALLVALUE DUP1 ISZERO PUSH2 0xF JUMPI PUSH0 DUP1 REVERT JUMPDEST POP PUSH1 0x4 CALLDATASIZE LT PUSH2 0x55 JUMPI PUSH0 CALLDATALOAD PUSH1 0xE0 SHR DUP1 PUSH4 0x3E9E609 EQ PUSH2 0x59 JUMPI DUP1 PUSH4 0x34461067 EQ PUSH2 0x89 JUMPI DUP1 PUSH4 0xA7F9FE72 EQ PUSH2 0xBA JUMPI DUP1 PUSH4 0xCA267F28 EQ PUSH2 0xD8 JUMPI DUP1 PUSH4 0xD81AA8C4 EQ PUSH2 0xF6 JUMPI JUMPDEST PUSH0 DUP1 REVERT JUMPDEST PUSH2 0x73 PUSH1 0x4 DUP1 CALLDATASIZE SUB DUP2 ADD SWAP1 PUSH2 0x6E SWAP2 SWAP1 PUSH2 0x656 JUMP JUMPDEST PUSH2 0x112 JUMP JUMPDEST PUSH1 0x40 MLOAD PUSH2 0x80 SWAP2 SWAP1 PUSH2 0x784 JUMP JUMPDEST PUSH1 0x40 MLOAD DUP1 SWAP2 SUB SWAP1 RETURN JUMPDEST PUSH2 0xA3 PUSH1 0x4 DUP1 CALLDATASIZE SUB DUP2 ADD SWAP1 PUSH2 0x9E SWAP2 SWAP1 PUSH2 0x656 JUMP JUMPDEST PUSH2 0x275 JUMP JUMPDEST PUSH1 0x40 MLOAD PUSH2 0xB1 SWAP3 SWAP2 SWAP1 PUSH2 0x7FB JUMP JUMPDEST PUSH1 0x40 MLOAD DUP1 SWAP2 SUB SWAP1 RETURN JUMPDEST PUSH2 0xC2 PUSH2 0x348 JUMP JUMPDEST PUSH1 0x40 MLOAD PUSH2 0xCF SWAP2 SWAP1 PUSH2 0x91E JUMP JUMPDEST PUSH1 0x40 MLOAD DUP1 SWAP2 SUB SWAP1 RETURN JUMPDEST PUSH2 0xE0 PUSH2 0x487 JUMP JUMPDEST PUSH1 0x40 MLOAD PUSH2 0xED SWAP2 SWAP1 PUSH2 0x94D JUMP JUMPDEST PUSH1 0x40 MLOAD DUP1 SWAP2 SUB SWAP1 RETURN JUMPDEST PUSH2 0x110 PUSH1 0x4 DUP1 CALLDATASIZE SUB DUP2 ADD SWAP1 PUSH2 0x10B SWAP2 SWAP1 PUSH2 0xA92 JUMP JUMPDEST PUSH2 0x492 JUMP JUMPDEST STOP JUMPDEST PUSH2 0x11A PUSH2 0x5E3 JUMP JUMPDEST PUSH0 DUP1 SLOAD SWAP1 POP DUP3 LT PUSH2 0x160 JUMPI PUSH1 0x40 MLOAD PUSH32 0x8C379A000000000000000000000000000000000000000000000000000000000 DUP2 MSTORE PUSH1 0x4 ADD PUSH2 0x157 SWAP1 PUSH2 0xB23 JUMP JUMPDEST PUSH1 0x40 MLOAD DUP1 SWAP2 SUB SWAP1 REVERT JUMPDEST PUSH0 DUP3 DUP2 SLOAD DUP2 LT PUSH2 0x173 JUMPI PUSH2 0x172 PUSH2 0xB41 JUMP JUMPDEST JUMPDEST SWAP1 PUSH0 MSTORE PUSH1 0x20 PUSH0 KECCAK256 SWAP1 PUSH1 0x2 MUL ADD PUSH1 0x40 MLOAD DUP1 PUSH1 0x40 ADD PUSH1 0x40 MSTORE SWAP1 DUP2 PUSH0 DUP3 ADD DUP1 SLOAD PUSH2 0x199 SWAP1 PUSH2 0xB9B JUMP JUMPDEST DUP1 PUSH1 0x1F ADD PUSH1 0x20 DUP1 SWAP2 DIV MUL PUSH1 0x20 ADD PUSH1 0x40 MLOAD SWAP1 DUP2 ADD PUSH1 0x40 MSTORE DUP1 SWAP3 SWAP2 SWAP1 DUP2 DUP2 MSTORE PUSH1 0x20 ADD DUP3 DUP1 SLOAD PUSH2 0x1C5 SWAP1 PUSH2 0xB9B JUMP JUMPDEST DUP1 ISZERO PUSH2 0x210 JUMPI DUP1 PUSH1 0x1F LT PUSH2 0x1E7 JUMPI PUSH2 0x100 DUP1 DUP4 SLOAD DIV MUL DUP4 MSTORE SWAP2 PUSH1 0x20 ADD SWAP2 PUSH2 0x210 JUMP JUMPDEST DUP3 ADD SWAP2 SWAP1 PUSH0 MSTORE PUSH1 0x20 PUSH0 KECCAK256 SWAP1 JUMPDEST DUP2 SLOAD DUP2 MSTORE SWAP1 PUSH1 0x1 ADD SWAP1 PUSH1 0x20 ADD DUP1 DUP4 GT PUSH2 0x1F3 JUMPI DUP3 SWAP1 SUB PUSH1 0x1F AND DUP3 ADD SWAP2 JUMPDEST POP POP POP POP POP DUP2 MSTORE PUSH1 0x20 ADD PUSH1 0x1 DUP3 ADD PUSH0 SWAP1 SLOAD SWAP1 PUSH2 0x100 EXP SWAP1 DIV PUSH20 0xFFFFFFFFFFFFFFFFFFFFFFFFFFFFFFFFFFFFFFFF AND PUSH20 0xFFFFFFFFFFFFFFFFFFFFFFFFFFFFFFFFFFFFFFFF AND PUSH20 0xFFFFFFFFFFFFFFFFFFFFFFFFFFFFFFFFFFFFFFFF AND DUP2 MSTORE POP POP SWAP1 POP SWAP2 SWAP1 POP JUMP JUMPDEST PUSH0 DUP2 DUP2 SLOAD DUP2 LT PUSH2 0x283 JUMPI PUSH0 DUP1 REVERT JUMPDEST SWAP1 PUSH0 MSTORE PUSH1 0x20 PUSH0 KECCAK256 SWAP1 PUSH1 0x2 MUL ADD PUSH0 SWAP2 POP SWAP1 POP DUP1 PUSH0 ADD DUP1 SLOAD PUSH2 0x2A2 SWAP1 PUSH2 0xB9B JUMP JUMPDEST DUP1 PUSH1 0x1F ADD PUSH1 0x20 DUP1 SWAP2 DIV MUL PUSH1 0x20 ADD PUSH1 0x40 MLOAD SWAP1 DUP2 ADD PUSH1 0x40 MSTORE DUP1 SWAP3 SWAP2 SWAP1 DUP2 DUP2 MSTORE PUSH1 0x20 ADD DUP3 DUP1 SLOAD PUSH2 0x2CE SWAP1 PUSH2 0xB9B JUMP JUMPDEST DUP1 ISZERO PUSH2 0x319 JUMPI DUP1 PUSH1 0x1F LT PUSH2 0x2F0 JUMPI PUSH2 0x100 DUP1 DUP4 SLOAD DIV MUL DUP4 MSTORE SWAP2 PUSH1 0x20 ADD SWAP2 PUSH2 0x319 JUMP JUMPDEST DUP3 ADD SWAP2 SWAP1 PUSH0 MSTORE PUSH1 0x20 PUSH0 KECCAK256 SWAP1 JUMPDEST DUP2 SLOAD DUP2 MSTORE SWAP1 PUSH1 0x1 ADD SWAP1 PUSH1 0x20 ADD DUP1 DUP4 GT PUSH2 0x2FC JUMPI DUP3 SWAP1 SUB PUSH1 0x1F AND DUP3 ADD SWAP2 JUMPDEST POP POP POP POP POP SWAP1 DUP1 PUSH1 0x1 ADD PUSH0 SWAP1 SLOAD SWAP1 PUSH2 0x100 EXP SWAP1 DIV PUSH20 0xFFFFFFFFFFFFFFFFFFFFFFFFFFFFFFFFFFFFFFFF AND SWAP1 POP DUP3 JUMP JUMPDEST PUSH1 0x60 PUSH0 DUP1 SLOAD DUP1 PUSH1 0x20 MUL PUSH1 0x20 ADD PUSH1 0x40 MLOAD SWAP1 DUP2 ADD PUSH1 0x40 MSTORE DUP1 SWAP3 SWAP2 SWAP1 DUP2 DUP2 MSTORE PUSH1 0x20 ADD PUSH0 SWAP1 JUMPDEST DUP3 DUP3 LT ISZERO PUSH2 0x47E JUMPI DUP4 DUP3 SWAP1 PUSH0 MSTORE PUSH1 0x20 PUSH0 KECCAK256 SWAP1 PUSH1 0x2 MUL ADD PUSH1 0x40 MLOAD DUP1 PUSH1 0x40 ADD PUSH1 0x40 MSTORE SWAP1 DUP2 PUSH0 DUP3 ADD DUP1 SLOAD PUSH2 0x39A SWAP1 PUSH2 0xB9B JUMP JUMPDEST DUP1 PUSH1 0x1F ADD PUSH1 0x20 DUP1 SWAP2 DIV MUL PUSH1 0x20 ADD PUSH1 0x40 MLOAD SWAP1 DUP2 ADD PUSH1 0x40 MSTORE DUP1 SWAP3 SWAP2 SWAP1 DUP2 DUP2 MSTORE PUSH1 0x20 ADD DUP3 DUP1 SLOAD PUSH2 0x3C6 SWAP1 PUSH2 0xB9B JUMP JUMPDEST DUP1 ISZERO PUSH2 0x411 JUMPI DUP1 PUSH1 0x1F LT PUSH2 0x3E8 JUMPI PUSH2 0x100 DUP1 DUP4 SLOAD DIV MUL DUP4 MSTORE SWAP2 PUSH1 0x20 ADD SWAP2 PUSH2 0x411 JUMP JUMPDEST DUP3 ADD SWAP2 SWAP1 PUSH0 MSTORE PUSH1 0x20 PUSH0 KECCAK256 SWAP1 JUMPDEST DUP2 SLOAD DUP2 MSTORE SWAP1 PUSH1 0x1 ADD SWAP1 PUSH1 0x20 ADD DUP1 DUP4 GT PUSH2 0x3F4 JUMPI DUP3 SWAP1 SUB PUSH1 0x1F AND DUP3 ADD SWAP2 JUMPDEST POP POP POP POP POP DUP2 MSTORE PUSH1 0x20 ADD PUSH1 0x1 DUP3 ADD PUSH0 SWAP1 SLOAD SWAP1 PUSH2 0x100 EXP SWAP1 DIV PUSH20 0xFFFFFFFFFFFFFFFFFFFFFFFFFFFFFFFFFFFFFFFF AND PUSH20 0xFFFFFFFFFFFFFFFFFFFFFFFFFFFFFFFFFFFFFFFF AND PUSH20 0xFFFFFFFFFFFFFFFFFFFFFFFFFFFFFFFFFFFFFFFF AND DUP2 MSTORE POP POP DUP2 MSTORE PUSH1 0x20 ADD SWAP1 PUSH1 0x1 ADD SWAP1 PUSH2 0x36A JUMP JUMPDEST POP POP POP POP SWAP1 POP SWAP1 JUMP JUMPDEST PUSH0 DUP1 DUP1 SLOAD SWAP1 POP SWAP1 POP SWAP1 JUMP JUMPDEST PUSH1 0x1 DUP2 PUSH1 0x40 MLOAD PUSH2 0x4A2 SWAP2 SWAP1 PUSH2 0xC05 JUMP JUMPDEST SWAP1 DUP2 MSTORE PUSH1 0x20 ADD PUSH1 0x40 MLOAD DUP1 SWAP2 SUB SWAP1 KECCAK256 PUSH0 SWAP1 SLOAD SWAP1 PUSH2 0x100 EXP SWAP1 DIV PUSH1 0xFF AND ISZERO PUSH2 0x4FD JUMPI PUSH1 0x40 MLOAD PUSH32 0x8C379A000000000000000000000000000000000000000000000000000000000 DUP2 MSTORE PUSH1 0x4 ADD PUSH2 0x4F4 SWAP1 PUSH2 0xC65 JUMP JUMPDEST PUSH1 0x40 MLOAD DUP1 SWAP2 SUB SWAP1 REVERT JUMPDEST PUSH0 PUSH1 0x40 MLOAD DUP1 PUSH1 0x40 ADD PUSH1 0x40 MSTORE DUP1 DUP4 DUP2 MSTORE PUSH1 0x20 ADD CALLER PUSH20 0xFFFFFFFFFFFFFFFFFFFFFFFFFFFFFFFFFFFFFFFF AND DUP2 MSTORE POP SWAP1 DUP1 PUSH1 0x1 DUP2 SLOAD ADD DUP1 DUP3 SSTORE DUP1 SWAP2 POP POP PUSH1 0x1 SWAP1 SUB SWAP1 PUSH0 MSTORE PUSH1 0x20 PUSH0 KECCAK256 SWAP1 PUSH1 0x2 MUL ADD PUSH0 SWAP1 SWAP2 SWAP1 SWAP2 SWAP1 SWAP2 POP PUSH0 DUP3 ADD MLOAD DUP2 PUSH0 ADD SWAP1 DUP2 PUSH2 0x562 SWAP2 SWAP1 PUSH2 0xE20 JUMP JUMPDEST POP PUSH1 0x20 DUP3 ADD MLOAD DUP2 PUSH1 0x1 ADD PUSH0 PUSH2 0x100 EXP DUP2 SLOAD DUP2 PUSH20 0xFFFFFFFFFFFFFFFFFFFFFFFFFFFFFFFFFFFFFFFF MUL NOT AND SWAP1 DUP4 PUSH20 0xFFFFFFFFFFFFFFFFFFFFFFFFFFFFFFFFFFFFFFFF AND MUL OR SWAP1 SSTORE POP POP POP PUSH1 0x1 DUP1 DUP3 PUSH1 0x40 MLOAD PUSH2 0x5BC SWAP2 SWAP1 PUSH2 0xC05 JUMP JUMPDEST SWAP1 DUP2 MSTORE PUSH1 0x20 ADD PUSH1 0x40 MLOAD DUP1 SWAP2 SUB SWAP1 KECCAK256 PUSH0 PUSH2 0x100 EXP DUP2 SLOAD DUP2 PUSH1 0xFF MUL NOT AND SWAP1 DUP4 ISZERO ISZERO MUL OR SWAP1 SSTORE POP POP JUMP JUMPDEST PUSH1 0x40 MLOAD DUP1 PUSH1 0x40 ADD PUSH1 0x40 MSTORE DUP1 PUSH1 0x60 DUP2 MSTORE PUSH1 0x20 ADD PUSH0 PUSH20 0xFFFFFFFFFFFFFFFFFFFFFFFFFFFFFFFFFFFFFFFF AND DUP2 MSTORE POP SWAP1 JUMP JUMPDEST PUSH0 PUSH1 0x40 MLOAD SWAP1 POP SWAP1 JUMP JUMPDEST PUSH0 DUP1 REVERT JUMPDEST PUSH0 DUP1 REVERT JUMPDEST PUSH0 DUP2 SWAP1 POP SWAP2 SWAP1 POP JUMP JUMPDEST PUSH2 0x635 DUP2 PUSH2 0x623 JUMP JUMPDEST DUP2 EQ PUSH2 0x63F JUMPI PUSH0 DUP1 REVERT JUMPDEST POP JUMP JUMPDEST PUSH0 DUP2 CALLDATALOAD SWAP1 POP PUSH2 0x650 DUP2 PUSH2 0x62C JUMP JUMPDEST SWAP3 SWAP2 POP POP JUMP JUMPDEST PUSH0 PUSH1 0x20 DUP3 DUP5 SUB SLT ISZERO PUSH2 0x66B JUMPI PUSH2 0x66A PUSH2 0x61B JUMP JUMPDEST JUMPDEST PUSH0 PUSH2 0x678 DUP5 DUP3 DUP6 ADD PUSH2 0x642 JUMP JUMPDEST SWAP2 POP POP SWAP3 SWAP2 POP POP JUMP JUMPDEST PUSH0 DUP2 MLOAD SWAP1 POP SWAP2 SWAP1 POP JUMP JUMPDEST PUSH0 DUP3 DUP3 MSTORE PUSH1 0x20 DUP3 ADD SWAP1 POP SWAP3 SWAP2 POP POP JUMP JUMPDEST PUSH0 JUMPDEST DUP4 DUP2 LT ISZERO PUSH2 0x6B8 JUMPI DUP1 DUP3 ADD MLOAD DUP2 DUP5 ADD MSTORE PUSH1 0x20 DUP2 ADD SWAP1 POP PUSH2 0x69D JUMP JUMPDEST PUSH0 DUP5 DUP5 ADD MSTORE POP POP POP POP JUMP JUMPDEST PUSH0 PUSH1 0x1F NOT PUSH1 0x1F DUP4 ADD AND SWAP1 POP SWAP2 SWAP1 POP JUMP JUMPDEST PUSH0 PUSH2 0x6DD DUP3 PUSH2 0x681 JUMP JUMPDEST PUSH2 0x6E7 DUP2 DUP6 PUSH2 0x68B JUMP JUMPDEST SWAP4 POP PUSH2 0x6F7 DUP2 DUP6 PUSH1 0x20 DUP7 ADD PUSH2 0x69B JUMP JUMPDEST PUSH2 0x700 DUP2 PUSH2 0x6C3 JUMP JUMPDEST DUP5 ADD SWAP2 POP POP SWAP3 SWAP2 POP POP JUMP JUMPDEST PUSH0 PUSH20 0xFFFFFFFFFFFFFFFFFFFFFFFFFFFFFFFFFFFFFFFF DUP3 AND SWAP1 POP SWAP2 SWAP1 POP JUMP JUMPDEST PUSH0 PUSH2 0x734 DUP3 PUSH2 0x70B JUMP JUMPDEST SWAP1 POP SWAP2 SWAP1 POP JUMP JUMPDEST PUSH2 0x744 DUP2 PUSH2 0x72A JUMP JUMPDEST DUP3 MSTORE POP POP JUMP JUMPDEST PUSH0 PUSH1 0x40 DUP4 ADD PUSH0 DUP4 ADD MLOAD DUP5 DUP3 SUB PUSH0 DUP7 ADD MSTORE PUSH2 0x764 DUP3 DUP3 PUSH2 0x6D3 JUMP JUMPDEST SWAP2 POP POP PUSH1 0x20 DUP4 ADD MLOAD PUSH2 0x779 PUSH1 0x20 DUP7 ADD DUP3 PUSH2 0x73B JUMP JUMPDEST POP DUP1 SWAP2 POP POP SWAP3 SWAP2 POP POP JUMP JUMPDEST PUSH0 PUSH1 0x20 DUP3 ADD SWAP1 POP DUP2 DUP2 SUB PUSH0 DUP4 ADD MSTORE PUSH2 0x79C DUP2 DUP5 PUSH2 0x74A JUMP JUMPDEST SWAP1 POP SWAP3 SWAP2 POP POP JUMP JUMPDEST PUSH0 DUP3 DUP3 MSTORE PUSH1 0x20 DUP3 ADD SWAP1 POP SWAP3 SWAP2 POP POP JUMP JUMPDEST PUSH0 PUSH2 0x7BE DUP3 PUSH2 0x681 JUMP JUMPDEST PUSH2 0x7C8 DUP2 DUP6 PUSH2 0x7A4 JUMP JUMPDEST SWAP4 POP PUSH2 0x7D8 DUP2 DUP6 PUSH1 0x20 DUP7 ADD PUSH2 0x69B JUMP JUMPDEST PUSH2 0x7E1 DUP2 PUSH2 0x6C3 JUMP JUMPDEST DUP5 ADD SWAP2 POP POP SWAP3 SWAP2 POP POP JUMP JUMPDEST PUSH2 0x7F5 DUP2 PUSH2 0x72A JUMP JUMPDEST DUP3 MSTORE POP POP JUMP JUMPDEST PUSH0 PUSH1 0x40 DUP3 ADD SWAP1 POP DUP2 DUP2 SUB PUSH0 DUP4 ADD MSTORE PUSH2 0x813 DUP2 DUP6 PUSH2 0x7B4 JUMP JUMPDEST SWAP1 POP PUSH2 0x822 PUSH1 0x20 DUP4 ADD DUP5 PUSH2 0x7EC JUMP JUMPDEST SWAP4 SWAP3 POP POP POP JUMP JUMPDEST PUSH0 DUP2 MLOAD SWAP1 POP SWAP2 SWAP1 POP JUMP JUMPDEST PUSH0 DUP3 DUP3 MSTORE PUSH1 0x20 DUP3 ADD SWAP1 POP SWAP3 SWAP2 POP POP JUMP JUMPDEST PUSH0 DUP2 SWAP1 POP PUSH1 0x20 DUP3 ADD SWAP1 POP SWAP2 SWAP1 POP JUMP JUMPDEST PUSH0 PUSH1 0x40 DUP4 ADD PUSH0 DUP4 ADD MLOAD DUP5 DUP3 SUB PUSH0 DUP7 ADD MSTORE PUSH2 0x86C DUP3 DUP3 PUSH2 0x6D3 JUMP JUMPDEST SWAP2 POP POP PUSH1 0x20 DUP4 ADD MLOAD PUSH2 0x881 PUSH1 0x20 DUP7 ADD DUP3 PUSH2 0x73B JUMP JUMPDEST POP DUP1 SWAP2 POP POP SWAP3 SWAP2 POP POP JUMP JUMPDEST PUSH0 PUSH2 0x897 DUP4 DUP4 PUSH2 0x852 JUMP JUMPDEST SWAP1 POP SWAP3 SWAP2 POP POP JUMP JUMPDEST PUSH0 PUSH1 0x20 DUP3 ADD SWAP1 POP SWAP2 SWAP1 POP JUMP JUMPDEST PUSH0 PUSH2 0x8B5 DUP3 PUSH2 0x829 JUMP JUMPDEST PUSH2 0x8BF DUP2 DUP6 PUSH2 0x833 JUMP JUMPDEST SWAP4 POP DUP4 PUSH1 0x20 DUP3 MUL DUP6 ADD PUSH2 0x8D1 DUP6 PUSH2 0x843 JUMP JUMPDEST DUP1 PUSH0 JUMPDEST DUP6 DUP2 LT ISZERO PUSH2 0x90C JUMPI DUP5 DUP5 SUB DUP10 MSTORE DUP2 MLOAD PUSH2 0x8ED DUP6 DUP3 PUSH2 0x88C JUMP JUMPDEST SWAP5 POP PUSH2 0x8F8 DUP4 PUSH2 0x89F JUMP JUMPDEST SWAP3 POP PUSH1 0x20 DUP11 ADD SWAP10 POP POP PUSH1 0x1 DUP2 ADD SWAP1 POP PUSH2 0x8D4 JUMP JUMPDEST POP DUP3 SWAP8 POP DUP8 SWAP6 POP POP POP POP POP POP SWAP3 SWAP2 POP POP JUMP JUMPDEST PUSH0 PUSH1 0x20 DUP3 ADD SWAP1 POP DUP2 DUP2 SUB PUSH0 DUP4 ADD MSTORE PUSH2 0x936 DUP2 DUP5 PUSH2 0x8AB JUMP JUMPDEST SWAP1 POP SWAP3 SWAP2 POP POP JUMP JUMPDEST PUSH2 0x947 DUP2 PUSH2 0x623 JUMP JUMPDEST DUP3 MSTORE POP POP JUMP JUMPDEST PUSH0 PUSH1 0x20 DUP3 ADD SWAP1 POP PUSH2 0x960 PUSH0 DUP4 ADD DUP5 PUSH2 0x93E JUMP JUMPDEST SWAP3 SWAP2 POP POP JUMP JUMPDEST PUSH0 DUP1 REVERT JUMPDEST PUSH0 DUP1 REVERT JUMPDEST PUSH32 0x4E487B7100000000000000000000000000000000000000000000000000000000 PUSH0 MSTORE PUSH1 0x41 PUSH1 0x4 MSTORE PUSH1 0x24 PUSH0 REVERT JUMPDEST PUSH2 0x9A4 DUP3 PUSH2 0x6C3 JUMP JUMPDEST DUP2 ADD DUP2 DUP2 LT PUSH8 0xFFFFFFFFFFFFFFFF DUP3 GT OR ISZERO PUSH2 0x9C3 JUMPI PUSH2 0x9C2 PUSH2 0x96E JUMP JUMPDEST JUMPDEST DUP1 PUSH1 0x40 MSTORE POP POP POP JUMP JUMPDEST PUSH0 PUSH2 0x9D5 PUSH2 0x612 JUMP JUMPDEST SWAP1 POP PUSH2 0x9E1 DUP3 DUP3 PUSH2 0x99B JUMP JUMPDEST SWAP2 SWAP1 POP JUMP JUMPDEST PUSH0 PUSH8 0xFFFFFFFFFFFFFFFF DUP3 GT ISZERO PUSH2 0xA00 JUMPI PUSH2 0x9FF PUSH2 0x96E JUMP JUMPDEST JUMPDEST PUSH2 0xA09 DUP3 PUSH2 0x6C3 JUMP JUMPDEST SWAP1 POP PUSH1 0x20 DUP2 ADD SWAP1 POP SWAP2 SWAP1 POP JUMP JUMPDEST DUP3 DUP2 DUP4 CALLDATACOPY PUSH0 DUP4 DUP4 ADD MSTORE POP POP POP JUMP JUMPDEST PUSH0 PUSH2 0xA36 PUSH2 0xA31 DUP5 PUSH2 0x9E6 JUMP JUMPDEST PUSH2 0x9CC JUMP JUMPDEST SWAP1 POP DUP3 DUP2 MSTORE PUSH1 0x20 DUP2 ADD DUP5 DUP5 DUP5 ADD GT ISZERO PUSH2 0xA52 JUMPI PUSH2 0xA51 PUSH2 0x96A JUMP JUMPDEST JUMPDEST PUSH2 0xA5D DUP5 DUP3 DUP6 PUSH2 0xA16 JUMP JUMPDEST POP SWAP4 SWAP3 POP POP POP JUMP JUMPDEST PUSH0 DUP3 PUSH1 0x1F DUP4 ADD SLT PUSH2 0xA79 JUMPI PUSH2 0xA78 PUSH2 0x966 JUMP JUMPDEST JUMPDEST DUP2 CALLDATALOAD PUSH2 0xA89 DUP5 DUP3 PUSH1 0x20 DUP7 ADD PUSH2 0xA24 JUMP JUMPDEST SWAP2 POP POP SWAP3 SWAP2 POP POP JUMP JUMPDEST PUSH0 PUSH1 0x20 DUP3 DUP5 SUB SLT ISZERO PUSH2 0xAA7 JUMPI PUSH2 0xAA6 PUSH2 0x61B JUMP JUMPDEST JUMPDEST PUSH0 DUP3 ADD CALLDATALOAD PUSH8 0xFFFFFFFFFFFFFFFF DUP2 GT ISZERO PUSH2 0xAC4 JUMPI PUSH2 0xAC3 PUSH2 0x61F JUMP JUMPDEST JUMPDEST PUSH2 0xAD0 DUP5 DUP3 DUP6 ADD PUSH2 0xA65 JUMP JUMPDEST SWAP2 POP POP SWAP3 SWAP2 POP POP JUMP JUMPDEST PUSH32 0x496E646578206F7574206F6620626F756E647300000000000000000000000000 PUSH0 DUP3 ADD MSTORE POP JUMP JUMPDEST PUSH0 PUSH2 0xB0D PUSH1 0x13 DUP4 PUSH2 0x7A4 JUMP JUMPDEST SWAP2 POP PUSH2 0xB18 DUP3 PUSH2 0xAD9 JUMP JUMPDEST PUSH1 0x20 DUP3 ADD SWAP1 POP SWAP2 SWAP1 POP JUMP JUMPDEST PUSH0 PUSH1 0x20 DUP3 ADD SWAP1 POP DUP2 DUP2 SUB PUSH0 DUP4 ADD MSTORE PUSH2 0xB3A DUP2 PUSH2 0xB01 JUMP JUMPDEST SWAP1 POP SWAP2 SWAP1 POP JUMP JUMPDEST PUSH32 0x4E487B7100000000000000000000000000000000000000000000000000000000 PUSH0 MSTORE PUSH1 0x32 PUSH1 0x4 MSTORE PUSH1 0x24 PUSH0 REVERT JUMPDEST PUSH32 0x4E487B7100000000000000000000000000000000000000000000000000000000 PUSH0 MSTORE PUSH1 0x22 PUSH1 0x4 MSTORE PUSH1 0x24 PUSH0 REVERT JUMPDEST PUSH0 PUSH1 0x2 DUP3 DIV SWAP1 POP PUSH1 0x1 DUP3 AND DUP1 PUSH2 0xBB2 JUMPI PUSH1 0x7F DUP3 AND SWAP2 POP JUMPDEST PUSH1 0x20 DUP3 LT DUP2 SUB PUSH2 0xBC5 JUMPI PUSH2 0xBC4 PUSH2 0xB6E JUMP JUMPDEST JUMPDEST POP SWAP2 SWAP1 POP JUMP JUMPDEST PUSH0 DUP2 SWAP1 POP SWAP3 SWAP2 POP POP JUMP JUMPDEST PUSH0 PUSH2 0xBDF DUP3 PUSH2 0x681 JUMP JUMPDEST PUSH2 0xBE9 DUP2 DUP6 PUSH2 0xBCB JUMP JUMPDEST SWAP4 POP PUSH2 0xBF9 DUP2 DUP6 PUSH1 0x20 DUP7 ADD PUSH2 0x69B JUMP JUMPDEST DUP1 DUP5 ADD SWAP2 POP POP SWAP3 SWAP2 POP POP JUMP JUMPDEST PUSH0 PUSH2 0xC10 DUP3 DUP5 PUSH2 0xBD5 JUMP JUMPDEST SWAP2 POP DUP2 SWAP1 POP SWAP3 SWAP2 POP POP JUMP JUMPDEST PUSH32 0x49504653206164647265737320616C7265616479206578697374730000000000 PUSH0 DUP3 ADD MSTORE POP JUMP JUMPDEST PUSH0 PUSH2 0xC4F PUSH1 0x1B DUP4 PUSH2 0x7A4 JUMP JUMPDEST SWAP2 POP PUSH2 0xC5A DUP3 PUSH2 0xC1B JUMP JUMPDEST PUSH1 0x20 DUP3 ADD SWAP1 POP SWAP2 SWAP1 POP JUMP JUMPDEST PUSH0 PUSH1 0x20 DUP3 ADD SWAP1 POP DUP2 DUP2 SUB PUSH0 DUP4 ADD MSTORE PUSH2 0xC7C DUP2 PUSH2 0xC43 JUMP JUMPDEST SWAP1 POP SWAP2 SWAP1 POP JUMP JUMPDEST PUSH0 DUP2 SWAP1 POP DUP2 PUSH0 MSTORE PUSH1 0x20 PUSH0 KECCAK256 SWAP1 POP SWAP2 SWAP1 POP JUMP JUMPDEST PUSH0 PUSH1 0x20 PUSH1 0x1F DUP4 ADD DIV SWAP1 POP SWAP2 SWAP1 POP JUMP JUMPDEST PUSH0 DUP3 DUP3 SHL SWAP1 POP SWAP3 SWAP2 POP POP JUMP JUMPDEST PUSH0 PUSH1 0x8 DUP4 MUL PUSH2 0xCDF PUSH32 0xFFFFFFFFFFFFFFFFFFFFFFFFFFFFFFFFFFFFFFFFFFFFFFFFFFFFFFFFFFFFFFFF DUP3 PUSH2 0xCA4 JUMP JUMPDEST PUSH2 0xCE9 DUP7 DUP4 PUSH2 0xCA4 JUMP JUMPDEST SWAP6 POP DUP1 NOT DUP5 AND SWAP4 POP DUP1 DUP7 AND DUP5 OR SWAP3 POP POP POP SWAP4 SWAP3 POP POP POP JUMP JUMPDEST PUSH0 DUP2 SWAP1 POP SWAP2 SWAP1 POP JUMP JUMPDEST PUSH0 PUSH2 0xD24 PUSH2 0xD1F PUSH2 0xD1A DUP5 PUSH2 0x623 JUMP JUMPDEST PUSH2 0xD01 JUMP JUMPDEST PUSH2 0x623 JUMP JUMPDEST SWAP1 POP SWAP2 SWAP1 POP JUMP JUMPDEST PUSH0 DUP2 SWAP1 POP SWAP2 SWAP1 POP JUMP JUMPDEST PUSH2 0xD3D DUP4 PUSH2 0xD0A JUMP JUMPDEST PUSH2 0xD51 PUSH2 0xD49 DUP3 PUSH2 0xD2B JUMP JUMPDEST DUP5 DUP5 SLOAD PUSH2 0xCB0 JUMP JUMPDEST DUP3 SSTORE POP POP POP POP JUMP JUMPDEST PUSH0 SWAP1 JUMP JUMPDEST PUSH2 0xD65 PUSH2 0xD59 JUMP JUMPDEST PUSH2 0xD70 DUP2 DUP5 DUP5 PUSH2 0xD34 JUMP JUMPDEST POP POP POP JUMP JUMPDEST JUMPDEST DUP2 DUP2 LT ISZERO PUSH2 0xD93 JUMPI PUSH2 0xD88 PUSH0 DUP3 PUSH2 0xD5D JUMP JUMPDEST PUSH1 0x1 DUP2 ADD SWAP1 POP PUSH2 0xD76 JUMP JUMPDEST POP POP JUMP JUMPDEST PUSH1 0x1F DUP3 GT ISZERO PUSH2 0xDD8 JUMPI PUSH2 0xDA9 DUP2 PUSH2 0xC83 JUMP JUMPDEST PUSH2 0xDB2 DUP5 PUSH2 0xC95 JUMP JUMPDEST DUP2 ADD PUSH1 0x20 DUP6 LT ISZERO PUSH2 0xDC1 JUMPI DUP2 SWAP1 POP JUMPDEST PUSH2 0xDD5 PUSH2 0xDCD DUP6 PUSH2 0xC95 JUMP JUMPDEST DUP4 ADD DUP3 PUSH2 0xD75 JUMP JUMPDEST POP POP JUMPDEST POP POP POP JUMP JUMPDEST PUSH0 DUP3 DUP3 SHR SWAP1 POP SWAP3 SWAP2 POP POP JUMP JUMPDEST PUSH0 PUSH2 0xDF8 PUSH0 NOT DUP5 PUSH1 0x8 MUL PUSH2 0xDDD JUMP JUMPDEST NOT DUP1 DUP4 AND SWAP2 POP POP SWAP3 SWAP2 POP POP JUMP JUMPDEST PUSH0 PUSH2 0xE10 DUP4 DUP4 PUSH2 0xDE9 JUMP JUMPDEST SWAP2 POP DUP3 PUSH1 0x2 MUL DUP3 OR SWAP1 POP SWAP3 SWAP2 POP POP JUMP JUMPDEST PUSH2 0xE29 DUP3 PUSH2 0x681 JUMP JUMPDEST PUSH8 0xFFFFFFFFFFFFFFFF DUP2 GT ISZERO PUSH2 0xE42 JUMPI PUSH2 0xE41 PUSH2 0x96E JUMP JUMPDEST JUMPDEST PUSH2 0xE4C DUP3 SLOAD PUSH2 0xB9B JUMP JUMPDEST PUSH2 0xE57 DUP3 DUP3 DUP6 PUSH2 0xD97 JUMP JUMPDEST PUSH0 PUSH1 0x20 SWAP1 POP PUSH1 0x1F DUP4 GT PUSH1 0x1 DUP2 EQ PUSH2 0xE88 JUMPI PUSH0 DUP5 ISZERO PUSH2 0xE76 JUMPI DUP3 DUP8 ADD MLOAD SWAP1 POP JUMPDEST PUSH2 0xE80 DUP6 DUP3 PUSH2 0xE05 JUMP JUMPDEST DUP7 SSTORE POP PUSH2 0xEE7 JUMP JUMPDEST PUSH1 0x1F NOT DUP5 AND PUSH2 0xE96 DUP7 PUSH2 0xC83 JUMP JUMPDEST PUSH0 JUMPDEST DUP3 DUP2 LT ISZERO PUSH2 0xEBD JUMPI DUP5 DUP10 ADD MLOAD DUP3 SSTORE PUSH1 0x1 DUP3 ADD SWAP2 POP PUSH1 0x20 DUP6 ADD SWAP5 POP PUSH1 0x20 DUP2 ADD SWAP1 POP PUSH2 0xE98 JUMP JUMPDEST DUP7 DUP4 LT ISZERO PUSH2 0xEDA JUMPI DUP5 DUP10 ADD MLOAD PUSH2 0xED6 PUSH1 0x1F DUP10 AND DUP3 PUSH2 0xDE9 JUMP JUMPDEST DUP4 SSTORE POP JUMPDEST PUSH1 0x1 PUSH1 0x2 DUP9 MUL ADD DUP9 SSTORE POP POP POP JUMPDEST POP POP POP POP POP POP JUMP INVALID LOG2 PUSH5 0x6970667358 0x22 SLT KECCAK256 DUP6 BLOCKHASH DUP4 0xDF 0xDC CALLDATALOAD SWAP2 MLOAD 0xD2 0xAE PUSH15 0x28B8F1D7FABF1B1A20E7E313003810 ORIGIN PUSH11 0xF8F1B39264736F6C634300 ADDMOD ISZERO STOP CALLER "
				},
				"gasEstimates": {
					"creation": {
						"codeDepositCost": "775400",
						"executionCost": "810",
						"totalCost": "776210"
					},
					"external": {
						"addRecord(string)": "infinite",
						"getAllRecords()": "infinite",
						"getRecord(uint256)": "infinite",
						"getRecordCount()": "2484",
						"records(uint256)": "infinite"
					}
				},
				"methodIdentifiers": {
					"addRecord(string)": "d81aa8c4",
					"getAllRecords()": "a7f9fe72",
					"getRecord(uint256)": "03e9e609",
					"getRecordCount()": "ca267f28",
					"records(uint256)": "34461067"
				}
			},
			"storageLayout": {
				"storage": [
					{
						"astId": 10,
						"contract": "contracts/AquoProspectusList.sol:ProspectusRegistry",
						"label": "records",
						"offset": 0,
						"slot": "0",
						"type": "t_array(t_struct(ProspectusRecord)6_storage)dyn_storage"
					},
					{
						"astId": 14,
						"contract": "contracts/AquoProspectusList.sol:ProspectusRegistry",
						"label": "ipfsExists",
						"offset": 0,
						"slot": "1",
						"type": "t_mapping(t_string_memory_ptr,t_bool)"
					}
				],
				"types": {
					"t_address": {
						"encoding": "inplace",
						"label": "address",
						"numberOfBytes": "20"
					},
					"t_array(t_struct(ProspectusRecord)6_storage)dyn_storage": {
						"base": "t_struct(ProspectusRecord)6_storage",
						"encoding": "dynamic_array",
						"label": "struct ProspectusRegistry.ProspectusRecord[]",
						"numberOfBytes": "32"
					},
					"t_bool": {
						"encoding": "inplace",
						"label": "bool",
						"numberOfBytes": "1"
					},
					"t_mapping(t_string_memory_ptr,t_bool)": {
						"encoding": "mapping",
						"key": "t_string_memory_ptr",
						"label": "mapping(string => bool)",
						"numberOfBytes": "32",
						"value": "t_bool"
					},
					"t_string_memory_ptr": {
						"encoding": "bytes",
						"label": "string",
						"numberOfBytes": "32"
					},
					"t_string_storage": {
						"encoding": "bytes",
						"label": "string",
						"numberOfBytes": "32"
					},
					"t_struct(ProspectusRecord)6_storage": {
						"encoding": "inplace",
						"label": "struct ProspectusRegistry.ProspectusRecord",
						"members": [
							{
								"astId": 3,
								"contract": "contracts/AquoProspectusList.sol:ProspectusRegistry",
								"label": "ipfsAddress",
								"offset": 0,
								"slot": "0",
								"type": "t_string_storage"
							},
							{
								"astId": 5,
								"contract": "contracts/AquoProspectusList.sol:ProspectusRegistry",
								"label": "proposer",
								"offset": 0,
								"slot": "1",
								"type": "t_address"
							}
						],
						"numberOfBytes": "64"
					}
				}
			},
			"userdoc": {
				"kind": "user",
				"methods": {},
				"version": 1
			}
		}
	}
}