{
	"contracts/ethtest1.sol": {
		"NameRegistry": {
			"abi": [
				{
					"anonymous": false,
					"inputs": [
						{
							"indexed": true,
							"internalType": "address",
							"name": "ethAddress",
							"type": "address"
						},
						{
							"indexed": false,
							"internalType": "string",
							"name": "name",
							"type": "string"
						}
					],
					"name": "NameRegistered",
					"type": "event"
				},
				{
					"inputs": [
						{
							"internalType": "address",
							"name": "",
							"type": "address"
						}
					],
					"name": "addressToName",
					"outputs": [
						{
							"internalType": "string",
							"name": "",
							"type": "string"
						}
					],
					"stateMutability": "view",
					"type": "function"
				},
				{
					"inputs": [
						{
							"internalType": "address",
							"name": "_userAddress",
							"type": "address"
						}
					],
					"name": "getName",
					"outputs": [
						{
							"internalType": "string",
							"name": "",
							"type": "string"
						}
					],
					"stateMutability": "view",
					"type": "function"
				},
				{
					"inputs": [
						{
							"internalType": "address",
							"name": "",
							"type": "address"
						}
					],
					"name": "isRegistered",
					"outputs": [
						{
							"internalType": "bool",
							"name": "",
							"type": "bool"
						}
					],
					"stateMutability": "view",
					"type": "function"
				},
				{
					"inputs": [
						{
							"internalType": "string",
							"name": "_userName",
							"type": "string"
						},
						{
							"internalType": "address",
							"name": "_userAddress",
							"type": "address"
						}
					],
					"name": "registerName",
					"outputs": [
						{
							"internalType": "uint256",
							"name": "",
							"type": "uint256"
						}
					],
					"stateMutability": "nonpayable",
					"type": "function"
				}
			],
			"devdoc": {
				"kind": "dev",
				"methods": {},
				"version": 1
			},
			"evm": {
				"assembly": "    /* \"contracts/ethtest1.sol\":60:1759  contract NameRegistry {... */\n  mstore(0x40, 0x80)\n  callvalue\n  dup1\n  iszero\n  tag_1\n  jumpi\n  0x00\n  dup1\n  revert\ntag_1:\n  pop\n  dataSize(sub_0)\n  dup1\n  dataOffset(sub_0)\n  0x00\n  codecopy\n  0x00\n  return\nstop\n\nsub_0: assembly {\n        /* \"contracts/ethtest1.sol\":60:1759  contract NameRegistry {... */\n      mstore(0x40, 0x80)\n      callvalue\n      dup1\n      iszero\n      tag_1\n      jumpi\n      0x00\n      dup1\n      revert\n    tag_1:\n      pop\n      jumpi(tag_2, lt(calldatasize, 0x04))\n      shr(0xe0, calldataload(0x00))\n      dup1\n      0x5fd4b08a\n      eq\n      tag_3\n      jumpi\n      dup1\n      0x7b59af16\n      eq\n      tag_4\n      jumpi\n      dup1\n      0xc3c5a547\n      eq\n      tag_5\n      jumpi\n      dup1\n      0xe2a04b62\n      eq\n      tag_6\n      jumpi\n    tag_2:\n      0x00\n      dup1\n      revert\n        /* \"contracts/ethtest1.sol\":1519:1756  function getName(address _userAddress) public view returns (string memory) {... */\n    tag_3:\n      tag_7\n      0x04\n      dup1\n      calldatasize\n      sub\n      dup2\n      add\n      swap1\n      tag_8\n      swap2\n      swap1\n      tag_9\n      jump\t// in\n    tag_8:\n      tag_10\n      jump\t// in\n    tag_7:\n      mload(0x40)\n      tag_11\n      swap2\n      swap1\n      tag_12\n      jump\t// in\n    tag_11:\n      mload(0x40)\n      dup1\n      swap2\n      sub\n      swap1\n      return\n        /* \"contracts/ethtest1.sol\":536:1436  function registerName(string memory _userName, address _userAddress) public returns (uint) {... */\n    tag_4:\n      tag_13\n      0x04\n      dup1\n      calldatasize\n      sub\n      dup2\n      add\n      swap1\n      tag_14\n      swap2\n      swap1\n      tag_15\n      jump\t// in\n    tag_14:\n      tag_16\n      jump\t// in\n    tag_13:\n      mload(0x40)\n      tag_17\n      swap2\n      swap1\n      tag_18\n      jump\t// in\n    tag_17:\n      mload(0x40)\n      dup1\n      swap2\n      sub\n      swap1\n      return\n        /* \"contracts/ethtest1.sol\":296:340  mapping(address => bool) public isRegistered */\n    tag_5:\n      tag_19\n      0x04\n      dup1\n      calldatasize\n      sub\n      dup2\n      add\n      swap1\n      tag_20\n      swap2\n      swap1\n      tag_9\n      jump\t// in\n    tag_20:\n      tag_21\n      jump\t// in\n    tag_19:\n      mload(0x40)\n      tag_22\n      swap2\n      swap1\n      tag_23\n      jump\t// in\n    tag_22:\n      mload(0x40)\n      dup1\n      swap2\n      sub\n      swap1\n      return\n        /* \"contracts/ethtest1.sol\":167:214  mapping(address => string) public addressToName */\n    tag_6:\n      tag_24\n      0x04\n      dup1\n      calldatasize\n      sub\n      dup2\n      add\n      swap1\n      tag_25\n      swap2\n      swap1\n      tag_9\n      jump\t// in\n    tag_25:\n      tag_26\n      jump\t// in\n    tag_24:\n      mload(0x40)\n      tag_27\n      swap2\n      swap1\n      tag_12\n      jump\t// in\n    tag_27:\n      mload(0x40)\n      dup1\n      swap2\n      sub\n      swap1\n      return\n        /* \"contracts/ethtest1.sol\":1519:1756  function getName(address _userAddress) public view returns (string memory) {... */\n    tag_10:\n        /* \"contracts/ethtest1.sol\":1579:1592  string memory */\n      0x60\n        /* \"contracts/ethtest1.sol\":1609:1621  isRegistered */\n      0x01\n        /* \"contracts/ethtest1.sol\":1609:1635  isRegistered[_userAddress] */\n      0x00\n        /* \"contracts/ethtest1.sol\":1622:1634  _userAddress */\n      dup4\n        /* \"contracts/ethtest1.sol\":1609:1635  isRegistered[_userAddress] */\n      0xffffffffffffffffffffffffffffffffffffffff\n      and\n      0xffffffffffffffffffffffffffffffffffffffff\n      and\n      dup2\n      mstore\n      0x20\n      add\n      swap1\n      dup2\n      mstore\n      0x20\n      add\n      0x00\n      keccak256\n      0x00\n      swap1\n      sload\n      swap1\n      0x0100\n      exp\n      swap1\n      div\n      0xff\n      and\n        /* \"contracts/ethtest1.sol\":1605:1749  if (isRegistered[_userAddress]) {... */\n      iszero\n      tag_29\n      jumpi\n        /* \"contracts/ethtest1.sol\":1659:1672  addressToName */\n      0x00\n        /* \"contracts/ethtest1.sol\":1659:1686  addressToName[_userAddress] */\n      dup1\n        /* \"contracts/ethtest1.sol\":1673:1685  _userAddress */\n      dup4\n        /* \"contracts/ethtest1.sol\":1659:1686  addressToName[_userAddress] */\n      0xffffffffffffffffffffffffffffffffffffffff\n      and\n      0xffffffffffffffffffffffffffffffffffffffff\n      and\n      dup2\n      mstore\n      0x20\n      add\n      swap1\n      dup2\n      mstore\n      0x20\n      add\n      0x00\n      keccak256\n        /* \"contracts/ethtest1.sol\":1652:1686  return addressToName[_userAddress] */\n      dup1\n      sload\n      tag_30\n      swap1\n      tag_31\n      jump\t// in\n    tag_30:\n      dup1\n      0x1f\n      add\n      0x20\n      dup1\n      swap2\n      div\n      mul\n      0x20\n      add\n      mload(0x40)\n      swap1\n      dup2\n      add\n      0x40\n      mstore\n      dup1\n      swap3\n      swap2\n      swap1\n      dup2\n      dup2\n      mstore\n      0x20\n      add\n      dup3\n      dup1\n      sload\n      tag_32\n      swap1\n      tag_31\n      jump\t// in\n    tag_32:\n      dup1\n      iszero\n      tag_33\n      jumpi\n      dup1\n      0x1f\n      lt\n      tag_34\n      jumpi\n      0x0100\n      dup1\n      dup4\n      sload\n      div\n      mul\n      dup4\n      mstore\n      swap2\n      0x20\n      add\n      swap2\n      jump(tag_33)\n    tag_34:\n      dup3\n      add\n      swap2\n      swap1\n      0x00\n      mstore\n      keccak256(0x00, 0x20)\n      swap1\n    tag_35:\n      dup2\n      sload\n      dup2\n      mstore\n      swap1\n      0x01\n      add\n      swap1\n      0x20\n      add\n      dup1\n      dup4\n      gt\n      tag_35\n      jumpi\n      dup3\n      swap1\n      sub\n      0x1f\n      and\n      dup3\n      add\n      swap2\n    tag_33:\n      pop\n      pop\n      pop\n      pop\n      pop\n      swap1\n      pop\n      jump(tag_28)\n        /* \"contracts/ethtest1.sol\":1605:1749  if (isRegistered[_userAddress]) {... */\n    tag_29:\n        /* \"contracts/ethtest1.sol\":1719:1737  return \"not found\" */\n      mload(0x40)\n      dup1\n      0x40\n      add\n      0x40\n      mstore\n      dup1\n      0x09\n      dup2\n      mstore\n      0x20\n      add\n      0x6e6f7420666f756e640000000000000000000000000000000000000000000000\n      dup2\n      mstore\n      pop\n      swap1\n      pop\n        /* \"contracts/ethtest1.sol\":1519:1756  function getName(address _userAddress) public view returns (string memory) {... */\n    tag_28:\n      swap2\n      swap1\n      pop\n      jump\t// out\n        /* \"contracts/ethtest1.sol\":536:1436  function registerName(string memory _userName, address _userAddress) public returns (uint) {... */\n    tag_16:\n        /* \"contracts/ethtest1.sol\":621:625  uint */\n      0x00\n        /* \"contracts/ethtest1.sol\":712:713  0 */\n      dup1\n        /* \"contracts/ethtest1.sol\":691:700  _userName */\n      dup4\n        /* \"contracts/ethtest1.sol\":685:708  bytes(_userName).length */\n      mload\n        /* \"contracts/ethtest1.sol\":685:713  bytes(_userName).length == 0 */\n      sub\n        /* \"contracts/ethtest1.sol\":681:807  if (bytes(_userName).length == 0) {... */\n      tag_38\n      jumpi\n        /* \"contracts/ethtest1.sol\":792:795  404 */\n      0x0194\n        /* \"contracts/ethtest1.sol\":785:795  return 404 */\n      swap1\n      pop\n      jump(tag_37)\n        /* \"contracts/ethtest1.sol\":681:807  if (bytes(_userName).length == 0) {... */\n    tag_38:\n        /* \"contracts/ethtest1.sol\":900:901  0 */\n      0x00\n        /* \"contracts/ethtest1.sol\":876:902  _userAddress == address(0) */\n      0xffffffffffffffffffffffffffffffffffffffff\n      and\n        /* \"contracts/ethtest1.sol\":876:888  _userAddress */\n      dup3\n        /* \"contracts/ethtest1.sol\":876:902  _userAddress == address(0) */\n      0xffffffffffffffffffffffffffffffffffffffff\n      and\n      sub\n        /* \"contracts/ethtest1.sol\":872:999  if (_userAddress == address(0)) {... */\n      tag_39\n      jumpi\n        /* \"contracts/ethtest1.sol\":984:987  405 */\n      0x0195\n        /* \"contracts/ethtest1.sol\":977:987  return 405 */\n      swap1\n      pop\n      jump(tag_37)\n        /* \"contracts/ethtest1.sol\":872:999  if (_userAddress == address(0)) {... */\n    tag_39:\n        /* \"contracts/ethtest1.sol\":1070:1082  isRegistered */\n      0x01\n        /* \"contracts/ethtest1.sol\":1070:1096  isRegistered[_userAddress] */\n      0x00\n        /* \"contracts/ethtest1.sol\":1083:1095  _userAddress */\n      dup4\n        /* \"contracts/ethtest1.sol\":1070:1096  isRegistered[_userAddress] */\n      0xffffffffffffffffffffffffffffffffffffffff\n      and\n      0xffffffffffffffffffffffffffffffffffffffff\n      and\n      dup2\n      mstore\n      0x20\n      add\n      swap1\n      dup2\n      mstore\n      0x20\n      add\n      0x00\n      keccak256\n      0x00\n      swap1\n      sload\n      swap1\n      0x0100\n      exp\n      swap1\n      div\n      0xff\n      and\n        /* \"contracts/ethtest1.sol\":1066:1189  if (isRegistered[_userAddress]) {... */\n      iszero\n      tag_40\n      jumpi\n        /* \"contracts/ethtest1.sol\":1174:1177  811 */\n      0x032b\n        /* \"contracts/ethtest1.sol\":1167:1177  return 811 */\n      swap1\n      pop\n      jump(tag_37)\n        /* \"contracts/ethtest1.sol\":1066:1189  if (isRegistered[_userAddress]) {... */\n    tag_40:\n        /* \"contracts/ethtest1.sol\":1239:1248  _userName */\n      dup3\n        /* \"contracts/ethtest1.sol\":1209:1222  addressToName */\n      0x00\n        /* \"contracts/ethtest1.sol\":1209:1236  addressToName[_userAddress] */\n      dup1\n        /* \"contracts/ethtest1.sol\":1223:1235  _userAddress */\n      dup5\n        /* \"contracts/ethtest1.sol\":1209:1236  addressToName[_userAddress] */\n      0xffffffffffffffffffffffffffffffffffffffff\n      and\n      0xffffffffffffffffffffffffffffffffffffffff\n      and\n      dup2\n      mstore\n      0x20\n      add\n      swap1\n      dup2\n      mstore\n      0x20\n      add\n      0x00\n      keccak256\n        /* \"contracts/ethtest1.sol\":1209:1248  addressToName[_userAddress] = _userName */\n      swap1\n      dup2\n      tag_41\n      swap2\n      swap1\n      tag_42\n      jump\t// in\n    tag_41:\n      pop\n        /* \"contracts/ethtest1.sol\":1288:1292  true */\n      0x01\n        /* \"contracts/ethtest1.sol\":1259:1271  isRegistered */\n      dup1\n        /* \"contracts/ethtest1.sol\":1259:1285  isRegistered[_userAddress] */\n      0x00\n        /* \"contracts/ethtest1.sol\":1272:1284  _userAddress */\n      dup5\n        /* \"contracts/ethtest1.sol\":1259:1285  isRegistered[_userAddress] */\n      0xffffffffffffffffffffffffffffffffffffffff\n      and\n      0xffffffffffffffffffffffffffffffffffffffff\n      and\n      dup2\n      mstore\n      0x20\n      add\n      swap1\n      dup2\n      mstore\n      0x20\n      add\n      0x00\n      keccak256\n      0x00\n        /* \"contracts/ethtest1.sol\":1259:1292  isRegistered[_userAddress] = true */\n      0x0100\n      exp\n      dup2\n      sload\n      dup2\n      0xff\n      mul\n      not\n      and\n      swap1\n      dup4\n      iszero\n      iszero\n      mul\n      or\n      swap1\n      sstore\n      pop\n        /* \"contracts/ethtest1.sol\":1333:1345  _userAddress */\n      dup2\n        /* \"contracts/ethtest1.sol\":1318:1357  NameRegistered(_userAddress, _userName) */\n      0xffffffffffffffffffffffffffffffffffffffff\n      and\n      0x56a1a2764a85c689329fbc04f299b64690a26b1dc5ac82e903cf8ad805cd5396\n        /* \"contracts/ethtest1.sol\":1347:1356  _userName */\n      dup5\n        /* \"contracts/ethtest1.sol\":1318:1357  NameRegistered(_userAddress, _userName) */\n      mload(0x40)\n      tag_43\n      swap2\n      swap1\n      tag_12\n      jump\t// in\n    tag_43:\n      mload(0x40)\n      dup1\n      swap2\n      sub\n      swap1\n      log2\n        /* \"contracts/ethtest1.sol\":1425:1428  200 */\n      0xc8\n        /* \"contracts/ethtest1.sol\":1418:1428  return 200 */\n      swap1\n      pop\n        /* \"contracts/ethtest1.sol\":536:1436  function registerName(string memory _userName, address _userAddress) public returns (uint) {... */\n    tag_37:\n      swap3\n      swap2\n      pop\n      pop\n      jump\t// out\n        /* \"contracts/ethtest1.sol\":296:340  mapping(address => bool) public isRegistered */\n    tag_21:\n      mstore(0x20, 0x01)\n      dup1\n      0x00\n      mstore\n      keccak256(0x00, 0x40)\n      0x00\n      swap2\n      pop\n      sload\n      swap1\n      0x0100\n      exp\n      swap1\n      div\n      0xff\n      and\n      dup2\n      jump\t// out\n        /* \"contracts/ethtest1.sol\":167:214  mapping(address => string) public addressToName */\n    tag_26:\n      mstore(0x20, 0x00)\n      dup1\n      0x00\n      mstore\n      keccak256(0x00, 0x40)\n      0x00\n      swap2\n      pop\n      swap1\n      pop\n      dup1\n      sload\n      tag_44\n      swap1\n      tag_31\n      jump\t// in\n    tag_44:\n      dup1\n      0x1f\n      add\n      0x20\n      dup1\n      swap2\n      div\n      mul\n      0x20\n      add\n      mload(0x40)\n      swap1\n      dup2\n      add\n      0x40\n      mstore\n      dup1\n      swap3\n      swap2\n      swap1\n      dup2\n      dup2\n      mstore\n      0x20\n      add\n      dup3\n      dup1\n      sload\n      tag_45\n      swap1\n      tag_31\n      jump\t// in\n    tag_45:\n      dup1\n      iszero\n      tag_46\n      jumpi\n      dup1\n      0x1f\n      lt\n      tag_47\n      jumpi\n      0x0100\n      dup1\n      dup4\n      sload\n      div\n      mul\n      dup4\n      mstore\n      swap2\n      0x20\n      add\n      swap2\n      jump(tag_46)\n    tag_47:\n      dup3\n      add\n      swap2\n      swap1\n      0x00\n      mstore\n      keccak256(0x00, 0x20)\n      swap1\n    tag_48:\n      dup2\n      sload\n      dup2\n      mstore\n      swap1\n      0x01\n      add\n      swap1\n      0x20\n      add\n      dup1\n      dup4\n      gt\n      tag_48\n      jumpi\n      dup3\n      swap1\n      sub\n      0x1f\n      and\n      dup3\n      add\n      swap2\n    tag_46:\n      pop\n      pop\n      pop\n      pop\n      pop\n      dup2\n      jump\t// out\n        /* \"#utility.yul\":7:82   */\n    tag_49:\n        /* \"#utility.yul\":40:46   */\n      0x00\n        /* \"#utility.yul\":73:75   */\n      0x40\n        /* \"#utility.yul\":67:76   */\n      mload\n        /* \"#utility.yul\":57:76   */\n      swap1\n      pop\n        /* \"#utility.yul\":7:82   */\n      swap1\n      jump\t// out\n        /* \"#utility.yul\":88:205   */\n    tag_50:\n        /* \"#utility.yul\":197:198   */\n      0x00\n        /* \"#utility.yul\":194:195   */\n      dup1\n        /* \"#utility.yul\":187:199   */\n      revert\n        /* \"#utility.yul\":211:328   */\n    tag_51:\n        /* \"#utility.yul\":320:321   */\n      0x00\n        /* \"#utility.yul\":317:318   */\n      dup1\n        /* \"#utility.yul\":310:322   */\n      revert\n        /* \"#utility.yul\":334:460   */\n    tag_52:\n        /* \"#utility.yul\":371:378   */\n      0x00\n        /* \"#utility.yul\":411:453   */\n      0xffffffffffffffffffffffffffffffffffffffff\n        /* \"#utility.yul\":404:409   */\n      dup3\n        /* \"#utility.yul\":400:454   */\n      and\n        /* \"#utility.yul\":389:454   */\n      swap1\n      pop\n        /* \"#utility.yul\":334:460   */\n      swap2\n      swap1\n      pop\n      jump\t// out\n        /* \"#utility.yul\":466:562   */\n    tag_53:\n        /* \"#utility.yul\":503:510   */\n      0x00\n        /* \"#utility.yul\":532:556   */\n      tag_96\n        /* \"#utility.yul\":550:555   */\n      dup3\n        /* \"#utility.yul\":532:556   */\n      tag_52\n      jump\t// in\n    tag_96:\n        /* \"#utility.yul\":521:556   */\n      swap1\n      pop\n        /* \"#utility.yul\":466:562   */\n      swap2\n      swap1\n      pop\n      jump\t// out\n        /* \"#utility.yul\":568:690   */\n    tag_54:\n        /* \"#utility.yul\":641:665   */\n      tag_98\n        /* \"#utility.yul\":659:664   */\n      dup2\n        /* \"#utility.yul\":641:665   */\n      tag_53\n      jump\t// in\n    tag_98:\n        /* \"#utility.yul\":634:639   */\n      dup2\n        /* \"#utility.yul\":631:666   */\n      eq\n        /* \"#utility.yul\":621:684   */\n      tag_99\n      jumpi\n        /* \"#utility.yul\":680:681   */\n      0x00\n        /* \"#utility.yul\":677:678   */\n      dup1\n        /* \"#utility.yul\":670:682   */\n      revert\n        /* \"#utility.yul\":621:684   */\n    tag_99:\n        /* \"#utility.yul\":568:690   */\n      pop\n      jump\t// out\n        /* \"#utility.yul\":696:835   */\n    tag_55:\n        /* \"#utility.yul\":742:747   */\n      0x00\n        /* \"#utility.yul\":780:786   */\n      dup2\n        /* \"#utility.yul\":767:787   */\n      calldataload\n        /* \"#utility.yul\":758:787   */\n      swap1\n      pop\n        /* \"#utility.yul\":796:829   */\n      tag_101\n        /* \"#utility.yul\":823:828   */\n      dup2\n        /* \"#utility.yul\":796:829   */\n      tag_54\n      jump\t// in\n    tag_101:\n        /* \"#utility.yul\":696:835   */\n      swap3\n      swap2\n      pop\n      pop\n      jump\t// out\n        /* \"#utility.yul\":841:1170   */\n    tag_9:\n        /* \"#utility.yul\":900:906   */\n      0x00\n        /* \"#utility.yul\":949:951   */\n      0x20\n        /* \"#utility.yul\":937:946   */\n      dup3\n        /* \"#utility.yul\":928:935   */\n      dup5\n        /* \"#utility.yul\":924:947   */\n      sub\n        /* \"#utility.yul\":920:952   */\n      slt\n        /* \"#utility.yul\":917:1036   */\n      iszero\n      tag_103\n      jumpi\n        /* \"#utility.yul\":955:1034   */\n      tag_104\n      tag_50\n      jump\t// in\n    tag_104:\n        /* \"#utility.yul\":917:1036   */\n    tag_103:\n        /* \"#utility.yul\":1075:1076   */\n      0x00\n        /* \"#utility.yul\":1100:1153   */\n      tag_105\n        /* \"#utility.yul\":1145:1152   */\n      dup5\n        /* \"#utility.yul\":1136:1142   */\n      dup3\n        /* \"#utility.yul\":1125:1134   */\n      dup6\n        /* \"#utility.yul\":1121:1143   */\n      add\n        /* \"#utility.yul\":1100:1153   */\n      tag_55\n      jump\t// in\n    tag_105:\n        /* \"#utility.yul\":1090:1153   */\n      swap2\n      pop\n        /* \"#utility.yul\":1046:1163   */\n      pop\n        /* \"#utility.yul\":841:1170   */\n      swap3\n      swap2\n      pop\n      pop\n      jump\t// out\n        /* \"#utility.yul\":1176:1275   */\n    tag_56:\n        /* \"#utility.yul\":1228:1234   */\n      0x00\n        /* \"#utility.yul\":1262:1267   */\n      dup2\n        /* \"#utility.yul\":1256:1268   */\n      mload\n        /* \"#utility.yul\":1246:1268   */\n      swap1\n      pop\n        /* \"#utility.yul\":1176:1275   */\n      swap2\n      swap1\n      pop\n      jump\t// out\n        /* \"#utility.yul\":1281:1450   */\n    tag_57:\n        /* \"#utility.yul\":1365:1376   */\n      0x00\n        /* \"#utility.yul\":1399:1405   */\n      dup3\n        /* \"#utility.yul\":1394:1397   */\n      dup3\n        /* \"#utility.yul\":1387:1406   */\n      mstore\n        /* \"#utility.yul\":1439:1443   */\n      0x20\n        /* \"#utility.yul\":1434:1437   */\n      dup3\n        /* \"#utility.yul\":1430:1444   */\n      add\n        /* \"#utility.yul\":1415:1444   */\n      swap1\n      pop\n        /* \"#utility.yul\":1281:1450   */\n      swap3\n      swap2\n      pop\n      pop\n      jump\t// out\n        /* \"#utility.yul\":1456:1702   */\n    tag_58:\n        /* \"#utility.yul\":1537:1538   */\n      0x00\n        /* \"#utility.yul\":1547:1660   */\n    tag_109:\n        /* \"#utility.yul\":1561:1567   */\n      dup4\n        /* \"#utility.yul\":1558:1559   */\n      dup2\n        /* \"#utility.yul\":1555:1568   */\n      lt\n        /* \"#utility.yul\":1547:1660   */\n      iszero\n      tag_111\n      jumpi\n        /* \"#utility.yul\":1646:1647   */\n      dup1\n        /* \"#utility.yul\":1641:1644   */\n      dup3\n        /* \"#utility.yul\":1637:1648   */\n      add\n        /* \"#utility.yul\":1631:1649   */\n      mload\n        /* \"#utility.yul\":1627:1628   */\n      dup2\n        /* \"#utility.yul\":1622:1625   */\n      dup5\n        /* \"#utility.yul\":1618:1629   */\n      add\n        /* \"#utility.yul\":1611:1650   */\n      mstore\n        /* \"#utility.yul\":1583:1585   */\n      0x20\n        /* \"#utility.yul\":1580:1581   */\n      dup2\n        /* \"#utility.yul\":1576:1586   */\n      add\n        /* \"#utility.yul\":1571:1586   */\n      swap1\n      pop\n        /* \"#utility.yul\":1547:1660   */\n      jump(tag_109)\n    tag_111:\n        /* \"#utility.yul\":1694:1695   */\n      0x00\n        /* \"#utility.yul\":1685:1691   */\n      dup5\n        /* \"#utility.yul\":1680:1683   */\n      dup5\n        /* \"#utility.yul\":1676:1692   */\n      add\n        /* \"#utility.yul\":1669:1696   */\n      mstore\n        /* \"#utility.yul\":1518:1702   */\n      pop\n        /* \"#utility.yul\":1456:1702   */\n      pop\n      pop\n      pop\n      jump\t// out\n        /* \"#utility.yul\":1708:1810   */\n    tag_59:\n        /* \"#utility.yul\":1749:1755   */\n      0x00\n        /* \"#utility.yul\":1800:1802   */\n      0x1f\n        /* \"#utility.yul\":1796:1803   */\n      not\n        /* \"#utility.yul\":1791:1793   */\n      0x1f\n        /* \"#utility.yul\":1784:1789   */\n      dup4\n        /* \"#utility.yul\":1780:1794   */\n      add\n        /* \"#utility.yul\":1776:1804   */\n      and\n        /* \"#utility.yul\":1766:1804   */\n      swap1\n      pop\n        /* \"#utility.yul\":1708:1810   */\n      swap2\n      swap1\n      pop\n      jump\t// out\n        /* \"#utility.yul\":1816:2193   */\n    tag_60:\n        /* \"#utility.yul\":1904:1907   */\n      0x00\n        /* \"#utility.yul\":1932:1971   */\n      tag_114\n        /* \"#utility.yul\":1965:1970   */\n      dup3\n        /* \"#utility.yul\":1932:1971   */\n      tag_56\n      jump\t// in\n    tag_114:\n        /* \"#utility.yul\":1987:2058   */\n      tag_115\n        /* \"#utility.yul\":2051:2057   */\n      dup2\n        /* \"#utility.yul\":2046:2049   */\n      dup6\n        /* \"#utility.yul\":1987:2058   */\n      tag_57\n      jump\t// in\n    tag_115:\n        /* \"#utility.yul\":1980:2058   */\n      swap4\n      pop\n        /* \"#utility.yul\":2067:2132   */\n      tag_116\n        /* \"#utility.yul\":2125:2131   */\n      dup2\n        /* \"#utility.yul\":2120:2123   */\n      dup6\n        /* \"#utility.yul\":2113:2117   */\n      0x20\n        /* \"#utility.yul\":2106:2111   */\n      dup7\n        /* \"#utility.yul\":2102:2118   */\n      add\n        /* \"#utility.yul\":2067:2132   */\n      tag_58\n      jump\t// in\n    tag_116:\n        /* \"#utility.yul\":2157:2186   */\n      tag_117\n        /* \"#utility.yul\":2179:2185   */\n      dup2\n        /* \"#utility.yul\":2157:2186   */\n      tag_59\n      jump\t// in\n    tag_117:\n        /* \"#utility.yul\":2152:2155   */\n      dup5\n        /* \"#utility.yul\":2148:2187   */\n      add\n        /* \"#utility.yul\":2141:2187   */\n      swap2\n      pop\n        /* \"#utility.yul\":1908:2193   */\n      pop\n        /* \"#utility.yul\":1816:2193   */\n      swap3\n      swap2\n      pop\n      pop\n      jump\t// out\n        /* \"#utility.yul\":2199:2512   */\n    tag_12:\n        /* \"#utility.yul\":2312:2316   */\n      0x00\n        /* \"#utility.yul\":2350:2352   */\n      0x20\n        /* \"#utility.yul\":2339:2348   */\n      dup3\n        /* \"#utility.yul\":2335:2353   */\n      add\n        /* \"#utility.yul\":2327:2353   */\n      swap1\n      pop\n        /* \"#utility.yul\":2399:2408   */\n      dup2\n        /* \"#utility.yul\":2393:2397   */\n      dup2\n        /* \"#utility.yul\":2389:2409   */\n      sub\n        /* \"#utility.yul\":2385:2386   */\n      0x00\n        /* \"#utility.yul\":2374:2383   */\n      dup4\n        /* \"#utility.yul\":2370:2387   */\n      add\n        /* \"#utility.yul\":2363:2410   */\n      mstore\n        /* \"#utility.yul\":2427:2505   */\n      tag_119\n        /* \"#utility.yul\":2500:2504   */\n      dup2\n        /* \"#utility.yul\":2491:2497   */\n      dup5\n        /* \"#utility.yul\":2427:2505   */\n      tag_60\n      jump\t// in\n    tag_119:\n        /* \"#utility.yul\":2419:2505   */\n      swap1\n      pop\n        /* \"#utility.yul\":2199:2512   */\n      swap3\n      swap2\n      pop\n      pop\n      jump\t// out\n        /* \"#utility.yul\":2518:2635   */\n    tag_61:\n        /* \"#utility.yul\":2627:2628   */\n      0x00\n        /* \"#utility.yul\":2624:2625   */\n      dup1\n        /* \"#utility.yul\":2617:2629   */\n      revert\n        /* \"#utility.yul\":2641:2758   */\n    tag_62:\n        /* \"#utility.yul\":2750:2751   */\n      0x00\n        /* \"#utility.yul\":2747:2748   */\n      dup1\n        /* \"#utility.yul\":2740:2752   */\n      revert\n        /* \"#utility.yul\":2764:2944   */\n    tag_63:\n        /* \"#utility.yul\":2812:2889   */\n      0x4e487b7100000000000000000000000000000000000000000000000000000000\n        /* \"#utility.yul\":2809:2810   */\n      0x00\n        /* \"#utility.yul\":2802:2890   */\n      mstore\n        /* \"#utility.yul\":2909:2913   */\n      0x41\n        /* \"#utility.yul\":2906:2907   */\n      0x04\n        /* \"#utility.yul\":2899:2914   */\n      mstore\n        /* \"#utility.yul\":2933:2937   */\n      0x24\n        /* \"#utility.yul\":2930:2931   */\n      0x00\n        /* \"#utility.yul\":2923:2938   */\n      revert\n        /* \"#utility.yul\":2950:3231   */\n    tag_64:\n        /* \"#utility.yul\":3033:3060   */\n      tag_124\n        /* \"#utility.yul\":3055:3059   */\n      dup3\n        /* \"#utility.yul\":3033:3060   */\n      tag_59\n      jump\t// in\n    tag_124:\n        /* \"#utility.yul\":3025:3031   */\n      dup2\n        /* \"#utility.yul\":3021:3061   */\n      add\n        /* \"#utility.yul\":3163:3169   */\n      dup2\n        /* \"#utility.yul\":3151:3161   */\n      dup2\n        /* \"#utility.yul\":3148:3170   */\n      lt\n        /* \"#utility.yul\":3127:3145   */\n      0xffffffffffffffff\n        /* \"#utility.yul\":3115:3125   */\n      dup3\n        /* \"#utility.yul\":3112:3146   */\n      gt\n        /* \"#utility.yul\":3109:3171   */\n      or\n        /* \"#utility.yul\":3106:3194   */\n      iszero\n      tag_125\n      jumpi\n        /* \"#utility.yul\":3174:3192   */\n      tag_126\n      tag_63\n      jump\t// in\n    tag_126:\n        /* \"#utility.yul\":3106:3194   */\n    tag_125:\n        /* \"#utility.yul\":3214:3224   */\n      dup1\n        /* \"#utility.yul\":3210:3212   */\n      0x40\n        /* \"#utility.yul\":3203:3225   */\n      mstore\n        /* \"#utility.yul\":2993:3231   */\n      pop\n        /* \"#utility.yul\":2950:3231   */\n      pop\n      pop\n      jump\t// out\n        /* \"#utility.yul\":3237:3366   */\n    tag_65:\n        /* \"#utility.yul\":3271:3277   */\n      0x00\n        /* \"#utility.yul\":3298:3318   */\n      tag_128\n      tag_49\n      jump\t// in\n    tag_128:\n        /* \"#utility.yul\":3288:3318   */\n      swap1\n      pop\n        /* \"#utility.yul\":3327:3360   */\n      tag_129\n        /* \"#utility.yul\":3355:3359   */\n      dup3\n        /* \"#utility.yul\":3347:3353   */\n      dup3\n        /* \"#utility.yul\":3327:3360   */\n      tag_64\n      jump\t// in\n    tag_129:\n        /* \"#utility.yul\":3237:3366   */\n      swap2\n      swap1\n      pop\n      jump\t// out\n        /* \"#utility.yul\":3372:3680   */\n    tag_66:\n        /* \"#utility.yul\":3434:3438   */\n      0x00\n        /* \"#utility.yul\":3524:3542   */\n      0xffffffffffffffff\n        /* \"#utility.yul\":3516:3522   */\n      dup3\n        /* \"#utility.yul\":3513:3543   */\n      gt\n        /* \"#utility.yul\":3510:3566   */\n      iszero\n      tag_131\n      jumpi\n        /* \"#utility.yul\":3546:3564   */\n      tag_132\n      tag_63\n      jump\t// in\n    tag_132:\n        /* \"#utility.yul\":3510:3566   */\n    tag_131:\n        /* \"#utility.yul\":3584:3613   */\n      tag_133\n        /* \"#utility.yul\":3606:3612   */\n      dup3\n        /* \"#utility.yul\":3584:3613   */\n      tag_59\n      jump\t// in\n    tag_133:\n        /* \"#utility.yul\":3576:3613   */\n      swap1\n      pop\n        /* \"#utility.yul\":3668:3672   */\n      0x20\n        /* \"#utility.yul\":3662:3666   */\n      dup2\n        /* \"#utility.yul\":3658:3673   */\n      add\n        /* \"#utility.yul\":3650:3673   */\n      swap1\n      pop\n        /* \"#utility.yul\":3372:3680   */\n      swap2\n      swap1\n      pop\n      jump\t// out\n        /* \"#utility.yul\":3686:3832   */\n    tag_67:\n        /* \"#utility.yul\":3783:3789   */\n      dup3\n        /* \"#utility.yul\":3778:3781   */\n      dup2\n        /* \"#utility.yul\":3773:3776   */\n      dup4\n        /* \"#utility.yul\":3760:3790   */\n      calldatacopy\n        /* \"#utility.yul\":3824:3825   */\n      0x00\n        /* \"#utility.yul\":3815:3821   */\n      dup4\n        /* \"#utility.yul\":3810:3813   */\n      dup4\n        /* \"#utility.yul\":3806:3822   */\n      add\n        /* \"#utility.yul\":3799:3826   */\n      mstore\n        /* \"#utility.yul\":3686:3832   */\n      pop\n      pop\n      pop\n      jump\t// out\n        /* \"#utility.yul\":3838:4263   */\n    tag_68:\n        /* \"#utility.yul\":3916:3921   */\n      0x00\n        /* \"#utility.yul\":3941:4007   */\n      tag_136\n        /* \"#utility.yul\":3957:4006   */\n      tag_137\n        /* \"#utility.yul\":3999:4005   */\n      dup5\n        /* \"#utility.yul\":3957:4006   */\n      tag_66\n      jump\t// in\n    tag_137:\n        /* \"#utility.yul\":3941:4007   */\n      tag_65\n      jump\t// in\n    tag_136:\n        /* \"#utility.yul\":3932:4007   */\n      swap1\n      pop\n        /* \"#utility.yul\":4030:4036   */\n      dup3\n        /* \"#utility.yul\":4023:4028   */\n      dup2\n        /* \"#utility.yul\":4016:4037   */\n      mstore\n        /* \"#utility.yul\":4068:4072   */\n      0x20\n        /* \"#utility.yul\":4061:4066   */\n      dup2\n        /* \"#utility.yul\":4057:4073   */\n      add\n        /* \"#utility.yul\":4106:4109   */\n      dup5\n        /* \"#utility.yul\":4097:4103   */\n      dup5\n        /* \"#utility.yul\":4092:4095   */\n      dup5\n        /* \"#utility.yul\":4088:4104   */\n      add\n        /* \"#utility.yul\":4085:4110   */\n      gt\n        /* \"#utility.yul\":4082:4194   */\n      iszero\n      tag_138\n      jumpi\n        /* \"#utility.yul\":4113:4192   */\n      tag_139\n      tag_62\n      jump\t// in\n    tag_139:\n        /* \"#utility.yul\":4082:4194   */\n    tag_138:\n        /* \"#utility.yul\":4203:4257   */\n      tag_140\n        /* \"#utility.yul\":4250:4256   */\n      dup5\n        /* \"#utility.yul\":4245:4248   */\n      dup3\n        /* \"#utility.yul\":4240:4243   */\n      dup6\n        /* \"#utility.yul\":4203:4257   */\n      tag_67\n      jump\t// in\n    tag_140:\n        /* \"#utility.yul\":3922:4263   */\n      pop\n        /* \"#utility.yul\":3838:4263   */\n      swap4\n      swap3\n      pop\n      pop\n      pop\n      jump\t// out\n        /* \"#utility.yul\":4283:4623   */\n    tag_69:\n        /* \"#utility.yul\":4339:4344   */\n      0x00\n        /* \"#utility.yul\":4388:4391   */\n      dup3\n        /* \"#utility.yul\":4381:4385   */\n      0x1f\n        /* \"#utility.yul\":4373:4379   */\n      dup4\n        /* \"#utility.yul\":4369:4386   */\n      add\n        /* \"#utility.yul\":4365:4392   */\n      slt\n        /* \"#utility.yul\":4355:4477   */\n      tag_142\n      jumpi\n        /* \"#utility.yul\":4396:4475   */\n      tag_143\n      tag_61\n      jump\t// in\n    tag_143:\n        /* \"#utility.yul\":4355:4477   */\n    tag_142:\n        /* \"#utility.yul\":4513:4519   */\n      dup2\n        /* \"#utility.yul\":4500:4520   */\n      calldataload\n        /* \"#utility.yul\":4538:4617   */\n      tag_144\n        /* \"#utility.yul\":4613:4616   */\n      dup5\n        /* \"#utility.yul\":4605:4611   */\n      dup3\n        /* \"#utility.yul\":4598:4602   */\n      0x20\n        /* \"#utility.yul\":4590:4596   */\n      dup7\n        /* \"#utility.yul\":4586:4603   */\n      add\n        /* \"#utility.yul\":4538:4617   */\n      tag_68\n      jump\t// in\n    tag_144:\n        /* \"#utility.yul\":4529:4617   */\n      swap2\n      pop\n        /* \"#utility.yul\":4345:4623   */\n      pop\n        /* \"#utility.yul\":4283:4623   */\n      swap3\n      swap2\n      pop\n      pop\n      jump\t// out\n        /* \"#utility.yul\":4629:5283   */\n    tag_15:\n        /* \"#utility.yul\":4707:4713   */\n      0x00\n        /* \"#utility.yul\":4715:4721   */\n      dup1\n        /* \"#utility.yul\":4764:4766   */\n      0x40\n        /* \"#utility.yul\":4752:4761   */\n      dup4\n        /* \"#utility.yul\":4743:4750   */\n      dup6\n        /* \"#utility.yul\":4739:4762   */\n      sub\n        /* \"#utility.yul\":4735:4767   */\n      slt\n        /* \"#utility.yul\":4732:4851   */\n      iszero\n      tag_146\n      jumpi\n        /* \"#utility.yul\":4770:4849   */\n      tag_147\n      tag_50\n      jump\t// in\n    tag_147:\n        /* \"#utility.yul\":4732:4851   */\n    tag_146:\n        /* \"#utility.yul\":4918:4919   */\n      0x00\n        /* \"#utility.yul\":4907:4916   */\n      dup4\n        /* \"#utility.yul\":4903:4920   */\n      add\n        /* \"#utility.yul\":4890:4921   */\n      calldataload\n        /* \"#utility.yul\":4948:4966   */\n      0xffffffffffffffff\n        /* \"#utility.yul\":4940:4946   */\n      dup2\n        /* \"#utility.yul\":4937:4967   */\n      gt\n        /* \"#utility.yul\":4934:5051   */\n      iszero\n      tag_148\n      jumpi\n        /* \"#utility.yul\":4970:5049   */\n      tag_149\n      tag_51\n      jump\t// in\n    tag_149:\n        /* \"#utility.yul\":4934:5051   */\n    tag_148:\n        /* \"#utility.yul\":5075:5138   */\n      tag_150\n        /* \"#utility.yul\":5130:5137   */\n      dup6\n        /* \"#utility.yul\":5121:5127   */\n      dup3\n        /* \"#utility.yul\":5110:5119   */\n      dup7\n        /* \"#utility.yul\":5106:5128   */\n      add\n        /* \"#utility.yul\":5075:5138   */\n      tag_69\n      jump\t// in\n    tag_150:\n        /* \"#utility.yul\":5065:5138   */\n      swap3\n      pop\n        /* \"#utility.yul\":4861:5148   */\n      pop\n        /* \"#utility.yul\":5187:5189   */\n      0x20\n        /* \"#utility.yul\":5213:5266   */\n      tag_151\n        /* \"#utility.yul\":5258:5265   */\n      dup6\n        /* \"#utility.yul\":5249:5255   */\n      dup3\n        /* \"#utility.yul\":5238:5247   */\n      dup7\n        /* \"#utility.yul\":5234:5256   */\n      add\n        /* \"#utility.yul\":5213:5266   */\n      tag_55\n      jump\t// in\n    tag_151:\n        /* \"#utility.yul\":5203:5266   */\n      swap2\n      pop\n        /* \"#utility.yul\":5158:5276   */\n      pop\n        /* \"#utility.yul\":4629:5283   */\n      swap3\n      pop\n      swap3\n      swap1\n      pop\n      jump\t// out\n        /* \"#utility.yul\":5289:5366   */\n    tag_70:\n        /* \"#utility.yul\":5326:5333   */\n      0x00\n        /* \"#utility.yul\":5355:5360   */\n      dup2\n        /* \"#utility.yul\":5344:5360   */\n      swap1\n      pop\n        /* \"#utility.yul\":5289:5366   */\n      swap2\n      swap1\n      pop\n      jump\t// out\n        /* \"#utility.yul\":5372:5490   */\n    tag_71:\n        /* \"#utility.yul\":5459:5483   */\n      tag_154\n        /* \"#utility.yul\":5477:5482   */\n      dup2\n        /* \"#utility.yul\":5459:5483   */\n      tag_70\n      jump\t// in\n    tag_154:\n        /* \"#utility.yul\":5454:5457   */\n      dup3\n        /* \"#utility.yul\":5447:5484   */\n      mstore\n        /* \"#utility.yul\":5372:5490   */\n      pop\n      pop\n      jump\t// out\n        /* \"#utility.yul\":5496:5718   */\n    tag_18:\n        /* \"#utility.yul\":5589:5593   */\n      0x00\n        /* \"#utility.yul\":5627:5629   */\n      0x20\n        /* \"#utility.yul\":5616:5625   */\n      dup3\n        /* \"#utility.yul\":5612:5630   */\n      add\n        /* \"#utility.yul\":5604:5630   */\n      swap1\n      pop\n        /* \"#utility.yul\":5640:5711   */\n      tag_156\n        /* \"#utility.yul\":5708:5709   */\n      0x00\n        /* \"#utility.yul\":5697:5706   */\n      dup4\n        /* \"#utility.yul\":5693:5710   */\n      add\n        /* \"#utility.yul\":5684:5690   */\n      dup5\n        /* \"#utility.yul\":5640:5711   */\n      tag_71\n      jump\t// in\n    tag_156:\n        /* \"#utility.yul\":5496:5718   */\n      swap3\n      swap2\n      pop\n      pop\n      jump\t// out\n        /* \"#utility.yul\":5724:5814   */\n    tag_72:\n        /* \"#utility.yul\":5758:5765   */\n      0x00\n        /* \"#utility.yul\":5801:5806   */\n      dup2\n        /* \"#utility.yul\":5794:5807   */\n      iszero\n        /* \"#utility.yul\":5787:5808   */\n      iszero\n        /* \"#utility.yul\":5776:5808   */\n      swap1\n      pop\n        /* \"#utility.yul\":5724:5814   */\n      swap2\n      swap1\n      pop\n      jump\t// out\n        /* \"#utility.yul\":5820:5929   */\n    tag_73:\n        /* \"#utility.yul\":5901:5922   */\n      tag_159\n        /* \"#utility.yul\":5916:5921   */\n      dup2\n        /* \"#utility.yul\":5901:5922   */\n      tag_72\n      jump\t// in\n    tag_159:\n        /* \"#utility.yul\":5896:5899   */\n      dup3\n        /* \"#utility.yul\":5889:5923   */\n      mstore\n        /* \"#utility.yul\":5820:5929   */\n      pop\n      pop\n      jump\t// out\n        /* \"#utility.yul\":5935:6145   */\n    tag_23:\n        /* \"#utility.yul\":6022:6026   */\n      0x00\n        /* \"#utility.yul\":6060:6062   */\n      0x20\n        /* \"#utility.yul\":6049:6058   */\n      dup3\n        /* \"#utility.yul\":6045:6063   */\n      add\n        /* \"#utility.yul\":6037:6063   */\n      swap1\n      pop\n        /* \"#utility.yul\":6073:6138   */\n      tag_161\n        /* \"#utility.yul\":6135:6136   */\n      0x00\n        /* \"#utility.yul\":6124:6133   */\n      dup4\n        /* \"#utility.yul\":6120:6137   */\n      add\n        /* \"#utility.yul\":6111:6117   */\n      dup5\n        /* \"#utility.yul\":6073:6138   */\n      tag_73\n      jump\t// in\n    tag_161:\n        /* \"#utility.yul\":5935:6145   */\n      swap3\n      swap2\n      pop\n      pop\n      jump\t// out\n        /* \"#utility.yul\":6151:6331   */\n    tag_74:\n        /* \"#utility.yul\":6199:6276   */\n      0x4e487b7100000000000000000000000000000000000000000000000000000000\n        /* \"#utility.yul\":6196:6197   */\n      0x00\n        /* \"#utility.yul\":6189:6277   */\n      mstore\n        /* \"#utility.yul\":6296:6300   */\n      0x22\n        /* \"#utility.yul\":6293:6294   */\n      0x04\n        /* \"#utility.yul\":6286:6301   */\n      mstore\n        /* \"#utility.yul\":6320:6324   */\n      0x24\n        /* \"#utility.yul\":6317:6318   */\n      0x00\n        /* \"#utility.yul\":6310:6325   */\n      revert\n        /* \"#utility.yul\":6337:6657   */\n    tag_31:\n        /* \"#utility.yul\":6381:6387   */\n      0x00\n        /* \"#utility.yul\":6418:6419   */\n      0x02\n        /* \"#utility.yul\":6412:6416   */\n      dup3\n        /* \"#utility.yul\":6408:6420   */\n      div\n        /* \"#utility.yul\":6398:6420   */\n      swap1\n      pop\n        /* \"#utility.yul\":6465:6466   */\n      0x01\n        /* \"#utility.yul\":6459:6463   */\n      dup3\n        /* \"#utility.yul\":6455:6467   */\n      and\n        /* \"#utility.yul\":6486:6504   */\n      dup1\n        /* \"#utility.yul\":6476:6557   */\n      tag_164\n      jumpi\n        /* \"#utility.yul\":6542:6546   */\n      0x7f\n        /* \"#utility.yul\":6534:6540   */\n      dup3\n        /* \"#utility.yul\":6530:6547   */\n      and\n        /* \"#utility.yul\":6520:6547   */\n      swap2\n      pop\n        /* \"#utility.yul\":6476:6557   */\n    tag_164:\n        /* \"#utility.yul\":6604:6606   */\n      0x20\n        /* \"#utility.yul\":6596:6602   */\n      dup3\n        /* \"#utility.yul\":6593:6607   */\n      lt\n        /* \"#utility.yul\":6573:6591   */\n      dup2\n        /* \"#utility.yul\":6570:6608   */\n      sub\n        /* \"#utility.yul\":6567:6651   */\n      tag_165\n      jumpi\n        /* \"#utility.yul\":6623:6641   */\n      tag_166\n      tag_74\n      jump\t// in\n    tag_166:\n        /* \"#utility.yul\":6567:6651   */\n    tag_165:\n        /* \"#utility.yul\":6388:6657   */\n      pop\n        /* \"#utility.yul\":6337:6657   */\n      swap2\n      swap1\n      pop\n      jump\t// out\n        /* \"#utility.yul\":6663:6804   */\n    tag_75:\n        /* \"#utility.yul\":6712:6716   */\n      0x00\n        /* \"#utility.yul\":6735:6738   */\n      dup2\n        /* \"#utility.yul\":6727:6738   */\n      swap1\n      pop\n        /* \"#utility.yul\":6758:6761   */\n      dup2\n        /* \"#utility.yul\":6755:6756   */\n      0x00\n        /* \"#utility.yul\":6748:6762   */\n      mstore\n        /* \"#utility.yul\":6792:6796   */\n      0x20\n        /* \"#utility.yul\":6789:6790   */\n      0x00\n        /* \"#utility.yul\":6779:6797   */\n      keccak256\n        /* \"#utility.yul\":6771:6797   */\n      swap1\n      pop\n        /* \"#utility.yul\":6663:6804   */\n      swap2\n      swap1\n      pop\n      jump\t// out\n        /* \"#utility.yul\":6810:6903   */\n    tag_76:\n        /* \"#utility.yul\":6847:6853   */\n      0x00\n        /* \"#utility.yul\":6894:6896   */\n      0x20\n        /* \"#utility.yul\":6889:6891   */\n      0x1f\n        /* \"#utility.yul\":6882:6887   */\n      dup4\n        /* \"#utility.yul\":6878:6892   */\n      add\n        /* \"#utility.yul\":6874:6897   */\n      div\n        /* \"#utility.yul\":6864:6897   */\n      swap1\n      pop\n        /* \"#utility.yul\":6810:6903   */\n      swap2\n      swap1\n      pop\n      jump\t// out\n        /* \"#utility.yul\":6909:7016   */\n    tag_77:\n        /* \"#utility.yul\":6953:6961   */\n      0x00\n        /* \"#utility.yul\":7003:7008   */\n      dup3\n        /* \"#utility.yul\":6997:7001   */\n      dup3\n        /* \"#utility.yul\":6993:7009   */\n      shl\n        /* \"#utility.yul\":6972:7009   */\n      swap1\n      pop\n        /* \"#utility.yul\":6909:7016   */\n      swap3\n      swap2\n      pop\n      pop\n      jump\t// out\n        /* \"#utility.yul\":7022:7415   */\n    tag_78:\n        /* \"#utility.yul\":7091:7097   */\n      0x00\n        /* \"#utility.yul\":7141:7142   */\n      0x08\n        /* \"#utility.yul\":7129:7139   */\n      dup4\n        /* \"#utility.yul\":7125:7143   */\n      mul\n        /* \"#utility.yul\":7164:7261   */\n      tag_171\n        /* \"#utility.yul\":7194:7260   */\n      0xffffffffffffffffffffffffffffffffffffffffffffffffffffffffffffffff\n        /* \"#utility.yul\":7183:7192   */\n      dup3\n        /* \"#utility.yul\":7164:7261   */\n      tag_77\n      jump\t// in\n    tag_171:\n        /* \"#utility.yul\":7282:7321   */\n      tag_172\n        /* \"#utility.yul\":7312:7320   */\n      dup7\n        /* \"#utility.yul\":7301:7310   */\n      dup4\n        /* \"#utility.yul\":7282:7321   */\n      tag_77\n      jump\t// in\n    tag_172:\n        /* \"#utility.yul\":7270:7321   */\n      swap6\n      pop\n        /* \"#utility.yul\":7354:7358   */\n      dup1\n        /* \"#utility.yul\":7350:7359   */\n      not\n        /* \"#utility.yul\":7343:7348   */\n      dup5\n        /* \"#utility.yul\":7339:7360   */\n      and\n        /* \"#utility.yul\":7330:7360   */\n      swap4\n      pop\n        /* \"#utility.yul\":7403:7407   */\n      dup1\n        /* \"#utility.yul\":7393:7401   */\n      dup7\n        /* \"#utility.yul\":7389:7408   */\n      and\n        /* \"#utility.yul\":7382:7387   */\n      dup5\n        /* \"#utility.yul\":7379:7409   */\n      or\n        /* \"#utility.yul\":7369:7409   */\n      swap3\n      pop\n        /* \"#utility.yul\":7098:7415   */\n      pop\n      pop\n        /* \"#utility.yul\":7022:7415   */\n      swap4\n      swap3\n      pop\n      pop\n      pop\n      jump\t// out\n        /* \"#utility.yul\":7421:7481   */\n    tag_79:\n        /* \"#utility.yul\":7449:7452   */\n      0x00\n        /* \"#utility.yul\":7470:7475   */\n      dup2\n        /* \"#utility.yul\":7463:7475   */\n      swap1\n      pop\n        /* \"#utility.yul\":7421:7481   */\n      swap2\n      swap1\n      pop\n      jump\t// out\n        /* \"#utility.yul\":7487:7629   */\n    tag_80:\n        /* \"#utility.yul\":7537:7546   */\n      0x00\n        /* \"#utility.yul\":7570:7623   */\n      tag_175\n        /* \"#utility.yul\":7588:7622   */\n      tag_176\n        /* \"#utility.yul\":7597:7621   */\n      tag_177\n        /* \"#utility.yul\":7615:7620   */\n      dup5\n        /* \"#utility.yul\":7597:7621   */\n      tag_70\n      jump\t// in\n    tag_177:\n        /* \"#utility.yul\":7588:7622   */\n      tag_79\n      jump\t// in\n    tag_176:\n        /* \"#utility.yul\":7570:7623   */\n      tag_70\n      jump\t// in\n    tag_175:\n        /* \"#utility.yul\":7557:7623   */\n      swap1\n      pop\n        /* \"#utility.yul\":7487:7629   */\n      swap2\n      swap1\n      pop\n      jump\t// out\n        /* \"#utility.yul\":7635:7710   */\n    tag_81:\n        /* \"#utility.yul\":7678:7681   */\n      0x00\n        /* \"#utility.yul\":7699:7704   */\n      dup2\n        /* \"#utility.yul\":7692:7704   */\n      swap1\n      pop\n        /* \"#utility.yul\":7635:7710   */\n      swap2\n      swap1\n      pop\n      jump\t// out\n        /* \"#utility.yul\":7716:7985   */\n    tag_82:\n        /* \"#utility.yul\":7826:7865   */\n      tag_180\n        /* \"#utility.yul\":7857:7864   */\n      dup4\n        /* \"#utility.yul\":7826:7865   */\n      tag_80\n      jump\t// in\n    tag_180:\n        /* \"#utility.yul\":7887:7978   */\n      tag_181\n        /* \"#utility.yul\":7936:7977   */\n      tag_182\n        /* \"#utility.yul\":7960:7976   */\n      dup3\n        /* \"#utility.yul\":7936:7977   */\n      tag_81\n      jump\t// in\n    tag_182:\n        /* \"#utility.yul\":7928:7934   */\n      dup5\n        /* \"#utility.yul\":7921:7925   */\n      dup5\n        /* \"#utility.yul\":7915:7926   */\n      sload\n        /* \"#utility.yul\":7887:7978   */\n      tag_78\n      jump\t// in\n    tag_181:\n        /* \"#utility.yul\":7881:7885   */\n      dup3\n        /* \"#utility.yul\":7874:7979   */\n      sstore\n        /* \"#utility.yul\":7792:7985   */\n      pop\n        /* \"#utility.yul\":7716:7985   */\n      pop\n      pop\n      pop\n      jump\t// out\n        /* \"#utility.yul\":7991:8064   */\n    tag_83:\n        /* \"#utility.yul\":8036:8039   */\n      0x00\n        /* \"#utility.yul\":7991:8064   */\n      swap1\n      jump\t// out\n        /* \"#utility.yul\":8070:8259   */\n    tag_84:\n        /* \"#utility.yul\":8147:8179   */\n      tag_185\n      tag_83\n      jump\t// in\n    tag_185:\n        /* \"#utility.yul\":8188:8253   */\n      tag_186\n        /* \"#utility.yul\":8246:8252   */\n      dup2\n        /* \"#utility.yul\":8238:8244   */\n      dup5\n        /* \"#utility.yul\":8232:8236   */\n      dup5\n        /* \"#utility.yul\":8188:8253   */\n      tag_82\n      jump\t// in\n    tag_186:\n        /* \"#utility.yul\":8123:8259   */\n      pop\n        /* \"#utility.yul\":8070:8259   */\n      pop\n      pop\n      jump\t// out\n        /* \"#utility.yul\":8265:8451   */\n    tag_85:\n        /* \"#utility.yul\":8325:8445   */\n    tag_188:\n        /* \"#utility.yul\":8342:8345   */\n      dup2\n        /* \"#utility.yul\":8335:8340   */\n      dup2\n        /* \"#utility.yul\":8332:8346   */\n      lt\n        /* \"#utility.yul\":8325:8445   */\n      iszero\n      tag_190\n      jumpi\n        /* \"#utility.yul\":8396:8435   */\n      tag_191\n        /* \"#utility.yul\":8433:8434   */\n      0x00\n        /* \"#utility.yul\":8426:8431   */\n      dup3\n        /* \"#utility.yul\":8396:8435   */\n      tag_84\n      jump\t// in\n    tag_191:\n        /* \"#utility.yul\":8369:8370   */\n      0x01\n        /* \"#utility.yul\":8362:8367   */\n      dup2\n        /* \"#utility.yul\":8358:8371   */\n      add\n        /* \"#utility.yul\":8349:8371   */\n      swap1\n      pop\n        /* \"#utility.yul\":8325:8445   */\n      jump(tag_188)\n    tag_190:\n        /* \"#utility.yul\":8265:8451   */\n      pop\n      pop\n      jump\t// out\n        /* \"#utility.yul\":8457:9000   */\n    tag_86:\n        /* \"#utility.yul\":8558:8560   */\n      0x1f\n        /* \"#utility.yul\":8553:8556   */\n      dup3\n        /* \"#utility.yul\":8550:8561   */\n      gt\n        /* \"#utility.yul\":8547:8993   */\n      iszero\n      tag_193\n      jumpi\n        /* \"#utility.yul\":8592:8630   */\n      tag_194\n        /* \"#utility.yul\":8624:8629   */\n      dup2\n        /* \"#utility.yul\":8592:8630   */\n      tag_75\n      jump\t// in\n    tag_194:\n        /* \"#utility.yul\":8676:8705   */\n      tag_195\n        /* \"#utility.yul\":8694:8704   */\n      dup5\n        /* \"#utility.yul\":8676:8705   */\n      tag_76\n      jump\t// in\n    tag_195:\n        /* \"#utility.yul\":8666:8674   */\n      dup2\n        /* \"#utility.yul\":8662:8706   */\n      add\n        /* \"#utility.yul\":8859:8861   */\n      0x20\n        /* \"#utility.yul\":8847:8857   */\n      dup6\n        /* \"#utility.yul\":8844:8862   */\n      lt\n        /* \"#utility.yul\":8841:8890   */\n      iszero\n      tag_196\n      jumpi\n        /* \"#utility.yul\":8880:8888   */\n      dup2\n        /* \"#utility.yul\":8865:8888   */\n      swap1\n      pop\n        /* \"#utility.yul\":8841:8890   */\n    tag_196:\n        /* \"#utility.yul\":8903:8983   */\n      tag_197\n        /* \"#utility.yul\":8959:8981   */\n      tag_198\n        /* \"#utility.yul\":8977:8980   */\n      dup6\n        /* \"#utility.yul\":8959:8981   */\n      tag_76\n      jump\t// in\n    tag_198:\n        /* \"#utility.yul\":8949:8957   */\n      dup4\n        /* \"#utility.yul\":8945:8982   */\n      add\n        /* \"#utility.yul\":8932:8943   */\n      dup3\n        /* \"#utility.yul\":8903:8983   */\n      tag_85\n      jump\t// in\n    tag_197:\n        /* \"#utility.yul\":8562:8993   */\n      pop\n      pop\n        /* \"#utility.yul\":8547:8993   */\n    tag_193:\n        /* \"#utility.yul\":8457:9000   */\n      pop\n      pop\n      pop\n      jump\t// out\n        /* \"#utility.yul\":9006:9123   */\n    tag_87:\n        /* \"#utility.yul\":9060:9068   */\n      0x00\n        /* \"#utility.yul\":9110:9115   */\n      dup3\n        /* \"#utility.yul\":9104:9108   */\n      dup3\n        /* \"#utility.yul\":9100:9116   */\n      shr\n        /* \"#utility.yul\":9079:9116   */\n      swap1\n      pop\n        /* \"#utility.yul\":9006:9123   */\n      swap3\n      swap2\n      pop\n      pop\n      jump\t// out\n        /* \"#utility.yul\":9129:9298   */\n    tag_88:\n        /* \"#utility.yul\":9173:9179   */\n      0x00\n        /* \"#utility.yul\":9206:9257   */\n      tag_201\n        /* \"#utility.yul\":9254:9255   */\n      0x00\n        /* \"#utility.yul\":9250:9256   */\n      not\n        /* \"#utility.yul\":9242:9247   */\n      dup5\n        /* \"#utility.yul\":9239:9240   */\n      0x08\n        /* \"#utility.yul\":9235:9248   */\n      mul\n        /* \"#utility.yul\":9206:9257   */\n      tag_87\n      jump\t// in\n    tag_201:\n        /* \"#utility.yul\":9202:9258   */\n      not\n        /* \"#utility.yul\":9287:9291   */\n      dup1\n        /* \"#utility.yul\":9281:9285   */\n      dup4\n        /* \"#utility.yul\":9277:9292   */\n      and\n        /* \"#utility.yul\":9267:9292   */\n      swap2\n      pop\n        /* \"#utility.yul\":9180:9298   */\n      pop\n        /* \"#utility.yul\":9129:9298   */\n      swap3\n      swap2\n      pop\n      pop\n      jump\t// out\n        /* \"#utility.yul\":9303:9598   */\n    tag_89:\n        /* \"#utility.yul\":9379:9383   */\n      0x00\n        /* \"#utility.yul\":9525:9554   */\n      tag_203\n        /* \"#utility.yul\":9550:9553   */\n      dup4\n        /* \"#utility.yul\":9544:9548   */\n      dup4\n        /* \"#utility.yul\":9525:9554   */\n      tag_88\n      jump\t// in\n    tag_203:\n        /* \"#utility.yul\":9517:9554   */\n      swap2\n      pop\n        /* \"#utility.yul\":9587:9590   */\n      dup3\n        /* \"#utility.yul\":9584:9585   */\n      0x02\n        /* \"#utility.yul\":9580:9591   */\n      mul\n        /* \"#utility.yul\":9574:9578   */\n      dup3\n        /* \"#utility.yul\":9571:9592   */\n      or\n        /* \"#utility.yul\":9563:9592   */\n      swap1\n      pop\n        /* \"#utility.yul\":9303:9598   */\n      swap3\n      swap2\n      pop\n      pop\n      jump\t// out\n        /* \"#utility.yul\":9603:10998   */\n    tag_42:\n        /* \"#utility.yul\":9720:9757   */\n      tag_205\n        /* \"#utility.yul\":9753:9756   */\n      dup3\n        /* \"#utility.yul\":9720:9757   */\n      tag_56\n      jump\t// in\n    tag_205:\n        /* \"#utility.yul\":9822:9840   */\n      0xffffffffffffffff\n        /* \"#utility.yul\":9814:9820   */\n      dup2\n        /* \"#utility.yul\":9811:9841   */\n      gt\n        /* \"#utility.yul\":9808:9864   */\n      iszero\n      tag_206\n      jumpi\n        /* \"#utility.yul\":9844:9862   */\n      tag_207\n      tag_63\n      jump\t// in\n    tag_207:\n        /* \"#utility.yul\":9808:9864   */\n    tag_206:\n        /* \"#utility.yul\":9888:9926   */\n      tag_208\n        /* \"#utility.yul\":9920:9924   */\n      dup3\n        /* \"#utility.yul\":9914:9925   */\n      sload\n        /* \"#utility.yul\":9888:9926   */\n      tag_31\n      jump\t// in\n    tag_208:\n        /* \"#utility.yul\":9973:10040   */\n      tag_209\n        /* \"#utility.yul\":10033:10039   */\n      dup3\n        /* \"#utility.yul\":10025:10031   */\n      dup3\n        /* \"#utility.yul\":10019:10023   */\n      dup6\n        /* \"#utility.yul\":9973:10040   */\n      tag_86\n      jump\t// in\n    tag_209:\n        /* \"#utility.yul\":10067:10068   */\n      0x00\n        /* \"#utility.yul\":10091:10095   */\n      0x20\n        /* \"#utility.yul\":10078:10095   */\n      swap1\n      pop\n        /* \"#utility.yul\":10123:10125   */\n      0x1f\n        /* \"#utility.yul\":10115:10121   */\n      dup4\n        /* \"#utility.yul\":10112:10126   */\n      gt\n        /* \"#utility.yul\":10140:10141   */\n      0x01\n        /* \"#utility.yul\":10135:10753   */\n      dup2\n      eq\n      tag_211\n      jumpi\n        /* \"#utility.yul\":10797:10798   */\n      0x00\n        /* \"#utility.yul\":10814:10820   */\n      dup5\n        /* \"#utility.yul\":10811:10888   */\n      iszero\n      tag_212\n      jumpi\n        /* \"#utility.yul\":10863:10872   */\n      dup3\n        /* \"#utility.yul\":10858:10861   */\n      dup8\n        /* \"#utility.yul\":10854:10873   */\n      add\n        /* \"#utility.yul\":10848:10874   */\n      mload\n        /* \"#utility.yul\":10839:10874   */\n      swap1\n      pop\n        /* \"#utility.yul\":10811:10888   */\n    tag_212:\n        /* \"#utility.yul\":10914:10981   */\n      tag_213\n        /* \"#utility.yul\":10974:10980   */\n      dup6\n        /* \"#utility.yul\":10967:10972   */\n      dup3\n        /* \"#utility.yul\":10914:10981   */\n      tag_89\n      jump\t// in\n    tag_213:\n        /* \"#utility.yul\":10908:10912   */\n      dup7\n        /* \"#utility.yul\":10901:10982   */\n      sstore\n        /* \"#utility.yul\":10770:10992   */\n      pop\n        /* \"#utility.yul\":10105:10992   */\n      jump(tag_210)\n        /* \"#utility.yul\":10135:10753   */\n    tag_211:\n        /* \"#utility.yul\":10187:10191   */\n      0x1f\n        /* \"#utility.yul\":10183:10192   */\n      not\n        /* \"#utility.yul\":10175:10181   */\n      dup5\n        /* \"#utility.yul\":10171:10193   */\n      and\n        /* \"#utility.yul\":10221:10258   */\n      tag_214\n        /* \"#utility.yul\":10253:10257   */\n      dup7\n        /* \"#utility.yul\":10221:10258   */\n      tag_75\n      jump\t// in\n    tag_214:\n        /* \"#utility.yul\":10280:10281   */\n      0x00\n        /* \"#utility.yul\":10294:10502   */\n    tag_215:\n        /* \"#utility.yul\":10308:10315   */\n      dup3\n        /* \"#utility.yul\":10305:10306   */\n      dup2\n        /* \"#utility.yul\":10302:10316   */\n      lt\n        /* \"#utility.yul\":10294:10502   */\n      iszero\n      tag_217\n      jumpi\n        /* \"#utility.yul\":10387:10396   */\n      dup5\n        /* \"#utility.yul\":10382:10385   */\n      dup10\n        /* \"#utility.yul\":10378:10397   */\n      add\n        /* \"#utility.yul\":10372:10398   */\n      mload\n        /* \"#utility.yul\":10364:10370   */\n      dup3\n        /* \"#utility.yul\":10357:10399   */\n      sstore\n        /* \"#utility.yul\":10438:10439   */\n      0x01\n        /* \"#utility.yul\":10430:10436   */\n      dup3\n        /* \"#utility.yul\":10426:10440   */\n      add\n        /* \"#utility.yul\":10416:10440   */\n      swap2\n      pop\n        /* \"#utility.yul\":10485:10487   */\n      0x20\n        /* \"#utility.yul\":10474:10483   */\n      dup6\n        /* \"#utility.yul\":10470:10488   */\n      add\n        /* \"#utility.yul\":10457:10488   */\n      swap5\n      pop\n        /* \"#utility.yul\":10331:10335   */\n      0x20\n        /* \"#utility.yul\":10328:10329   */\n      dup2\n        /* \"#utility.yul\":10324:10336   */\n      add\n        /* \"#utility.yul\":10319:10336   */\n      swap1\n      pop\n        /* \"#utility.yul\":10294:10502   */\n      jump(tag_215)\n    tag_217:\n        /* \"#utility.yul\":10530:10536   */\n      dup7\n        /* \"#utility.yul\":10521:10528   */\n      dup4\n        /* \"#utility.yul\":10518:10537   */\n      lt\n        /* \"#utility.yul\":10515:10694   */\n      iszero\n      tag_218\n      jumpi\n        /* \"#utility.yul\":10588:10597   */\n      dup5\n        /* \"#utility.yul\":10583:10586   */\n      dup10\n        /* \"#utility.yul\":10579:10598   */\n      add\n        /* \"#utility.yul\":10573:10599   */\n      mload\n        /* \"#utility.yul\":10631:10679   */\n      tag_219\n        /* \"#utility.yul\":10673:10677   */\n      0x1f\n        /* \"#utility.yul\":10665:10671   */\n      dup10\n        /* \"#utility.yul\":10661:10678   */\n      and\n        /* \"#utility.yul\":10650:10659   */\n      dup3\n        /* \"#utility.yul\":10631:10679   */\n      tag_88\n      jump\t// in\n    tag_219:\n        /* \"#utility.yul\":10623:10629   */\n      dup4\n        /* \"#utility.yul\":10616:10680   */\n      sstore\n        /* \"#utility.yul\":10538:10694   */\n      pop\n        /* \"#utility.yul\":10515:10694   */\n    tag_218:\n        /* \"#utility.yul\":10740:10741   */\n      0x01\n        /* \"#utility.yul\":10736:10737   */\n      0x02\n        /* \"#utility.yul\":10728:10734   */\n      dup9\n        /* \"#utility.yul\":10724:10738   */\n      mul\n        /* \"#utility.yul\":10720:10742   */\n      add\n        /* \"#utility.yul\":10714:10718   */\n      dup9\n        /* \"#utility.yul\":10707:10743   */\n      sstore\n        /* \"#utility.yul\":10142:10753   */\n      pop\n      pop\n      pop\n        /* \"#utility.yul\":10105:10992   */\n    tag_210:\n      pop\n        /* \"#utility.yul\":9695:10998   */\n      pop\n      pop\n      pop\n        /* \"#utility.yul\":9603:10998   */\n      pop\n      pop\n      jump\t// out\n\n    auxdata: 0xa26469706673582212204505f1c943dae260b51080bdf80d94f033c9571c7e8f22d2f10b10d91353417a64736f6c63430008120033\n}\n",
				"bytecode": {
					"linkReferences": {},
					"object": "608060405234801561001057600080fd5b50610b3b806100206000396000f3fe608060405234801561001057600080fd5b506004361061004c5760003560e01c80635fd4b08a146100515780637b59af1614610081578063c3c5a547146100b1578063e2a04b62146100e1575b600080fd5b61006b6004803603810190610066919061054d565b610111565b604051610078919061060a565b60405180910390f35b61009b60048036038101906100969190610761565b610271565b6040516100a891906107d6565b60405180910390f35b6100cb60048036038101906100c6919061054d565b61041b565b6040516100d8919061080c565b60405180910390f35b6100fb60048036038101906100f6919061054d565b61043b565b604051610108919061060a565b60405180910390f35b6060600160008373ffffffffffffffffffffffffffffffffffffffff1673ffffffffffffffffffffffffffffffffffffffff16815260200190815260200160002060009054906101000a900460ff1615610233576000808373ffffffffffffffffffffffffffffffffffffffff1673ffffffffffffffffffffffffffffffffffffffff16815260200190815260200160002080546101ae90610856565b80601f01602080910402602001604051908101604052809291908181526020018280546101da90610856565b80156102275780601f106101fc57610100808354040283529160200191610227565b820191906000526020600020905b81548152906001019060200180831161020a57829003601f168201915b5050505050905061026c565b6040518060400160405280600981526020017f6e6f7420666f756e64000000000000000000000000000000000000000000000081525090505b919050565b600080835103610285576101949050610415565b600073ffffffffffffffffffffffffffffffffffffffff168273ffffffffffffffffffffffffffffffffffffffff16036102c3576101959050610415565b600160008373ffffffffffffffffffffffffffffffffffffffff1673ffffffffffffffffffffffffffffffffffffffff16815260200190815260200160002060009054906101000a900460ff161561031f5761032b9050610415565b826000808473ffffffffffffffffffffffffffffffffffffffff1673ffffffffffffffffffffffffffffffffffffffff168152602001908152602001600020908161036a9190610a33565b5060018060008473ffffffffffffffffffffffffffffffffffffffff1673ffffffffffffffffffffffffffffffffffffffff16815260200190815260200160002060006101000a81548160ff0219169083151502179055508173ffffffffffffffffffffffffffffffffffffffff167f56a1a2764a85c689329fbc04f299b64690a26b1dc5ac82e903cf8ad805cd539684604051610408919061060a565b60405180910390a260c890505b92915050565b60016020528060005260406000206000915054906101000a900460ff1681565b6000602052806000526040600020600091509050805461045a90610856565b80601f016020809104026020016040519081016040528092919081815260200182805461048690610856565b80156104d35780601f106104a8576101008083540402835291602001916104d3565b820191906000526020600020905b8154815290600101906020018083116104b657829003601f168201915b505050505081565b6000604051905090565b600080fd5b600080fd5b600073ffffffffffffffffffffffffffffffffffffffff82169050919050565b600061051a826104ef565b9050919050565b61052a8161050f565b811461053557600080fd5b50565b60008135905061054781610521565b92915050565b600060208284031215610563576105626104e5565b5b600061057184828501610538565b91505092915050565b600081519050919050565b600082825260208201905092915050565b60005b838110156105b4578082015181840152602081019050610599565b60008484015250505050565b6000601f19601f8301169050919050565b60006105dc8261057a565b6105e68185610585565b93506105f6818560208601610596565b6105ff816105c0565b840191505092915050565b6000602082019050818103600083015261062481846105d1565b905092915050565b600080fd5b600080fd5b7f4e487b7100000000000000000000000000000000000000000000000000000000600052604160045260246000fd5b61066e826105c0565b810181811067ffffffffffffffff8211171561068d5761068c610636565b5b80604052505050565b60006106a06104db565b90506106ac8282610665565b919050565b600067ffffffffffffffff8211156106cc576106cb610636565b5b6106d5826105c0565b9050602081019050919050565b82818337600083830152505050565b60006107046106ff846106b1565b610696565b9050828152602081018484840111156107205761071f610631565b5b61072b8482856106e2565b509392505050565b600082601f8301126107485761074761062c565b5b81356107588482602086016106f1565b91505092915050565b60008060408385031215610778576107776104e5565b5b600083013567ffffffffffffffff811115610796576107956104ea565b5b6107a285828601610733565b92505060206107b385828601610538565b9150509250929050565b6000819050919050565b6107d0816107bd565b82525050565b60006020820190506107eb60008301846107c7565b92915050565b60008115159050919050565b610806816107f1565b82525050565b600060208201905061082160008301846107fd565b92915050565b7f4e487b7100000000000000000000000000000000000000000000000000000000600052602260045260246000fd5b6000600282049050600182168061086e57607f821691505b60208210810361088157610880610827565b5b50919050565b60008190508160005260206000209050919050565b60006020601f8301049050919050565b600082821b905092915050565b6000600883026108e97fffffffffffffffffffffffffffffffffffffffffffffffffffffffffffffffff826108ac565b6108f386836108ac565b95508019841693508086168417925050509392505050565b6000819050919050565b600061093061092b610926846107bd565b61090b565b6107bd565b9050919050565b6000819050919050565b61094a83610915565b61095e61095682610937565b8484546108b9565b825550505050565b600090565b610973610966565b61097e818484610941565b505050565b5b818110156109a25761099760008261096b565b600181019050610984565b5050565b601f8211156109e7576109b881610887565b6109c18461089c565b810160208510156109d0578190505b6109e46109dc8561089c565b830182610983565b50505b505050565b600082821c905092915050565b6000610a0a600019846008026109ec565b1980831691505092915050565b6000610a2383836109f9565b9150826002028217905092915050565b610a3c8261057a565b67ffffffffffffffff811115610a5557610a54610636565b5b610a5f8254610856565b610a6a8282856109a6565b600060209050601f831160018114610a9d5760008415610a8b578287015190505b610a958582610a17565b865550610afd565b601f198416610aab86610887565b60005b82811015610ad357848901518255600182019150602085019450602081019050610aae565b86831015610af05784890151610aec601f8916826109f9565b8355505b6001600288020188555050505b50505050505056fea26469706673582212204505f1c943dae260b51080bdf80d94f033c9571c7e8f22d2f10b10d91353417a64736f6c63430008120033",
					"opcodes": "PUSH1 0x80 PUSH1 0x40 MSTORE CALLVALUE DUP1 ISZERO PUSH2 0x10 JUMPI PUSH1 0x0 DUP1 REVERT JUMPDEST POP PUSH2 0xB3B DUP1 PUSH2 0x20 PUSH1 0x0 CODECOPY PUSH1 0x0 RETURN INVALID PUSH1 0x80 PUSH1 0x40 MSTORE CALLVALUE DUP1 ISZERO PUSH2 0x10 JUMPI PUSH1 0x0 DUP1 REVERT JUMPDEST POP PUSH1 0x4 CALLDATASIZE LT PUSH2 0x4C JUMPI PUSH1 0x0 CALLDATALOAD PUSH1 0xE0 SHR DUP1 PUSH4 0x5FD4B08A EQ PUSH2 0x51 JUMPI DUP1 PUSH4 0x7B59AF16 EQ PUSH2 0x81 JUMPI DUP1 PUSH4 0xC3C5A547 EQ PUSH2 0xB1 JUMPI DUP1 PUSH4 0xE2A04B62 EQ PUSH2 0xE1 JUMPI JUMPDEST PUSH1 0x0 DUP1 REVERT JUMPDEST PUSH2 0x6B PUSH1 0x4 DUP1 CALLDATASIZE SUB DUP2 ADD SWAP1 PUSH2 0x66 SWAP2 SWAP1 PUSH2 0x54D JUMP JUMPDEST PUSH2 0x111 JUMP JUMPDEST PUSH1 0x40 MLOAD PUSH2 0x78 SWAP2 SWAP1 PUSH2 0x60A JUMP JUMPDEST PUSH1 0x40 MLOAD DUP1 SWAP2 SUB SWAP1 RETURN JUMPDEST PUSH2 0x9B PUSH1 0x4 DUP1 CALLDATASIZE SUB DUP2 ADD SWAP1 PUSH2 0x96 SWAP2 SWAP1 PUSH2 0x761 JUMP JUMPDEST PUSH2 0x271 JUMP JUMPDEST PUSH1 0x40 MLOAD PUSH2 0xA8 SWAP2 SWAP1 PUSH2 0x7D6 JUMP JUMPDEST PUSH1 0x40 MLOAD DUP1 SWAP2 SUB SWAP1 RETURN JUMPDEST PUSH2 0xCB PUSH1 0x4 DUP1 CALLDATASIZE SUB DUP2 ADD SWAP1 PUSH2 0xC6 SWAP2 SWAP1 PUSH2 0x54D JUMP JUMPDEST PUSH2 0x41B JUMP JUMPDEST PUSH1 0x40 MLOAD PUSH2 0xD8 SWAP2 SWAP1 PUSH2 0x80C JUMP JUMPDEST PUSH1 0x40 MLOAD DUP1 SWAP2 SUB SWAP1 RETURN JUMPDEST PUSH2 0xFB PUSH1 0x4 DUP1 CALLDATASIZE SUB DUP2 ADD SWAP1 PUSH2 0xF6 SWAP2 SWAP1 PUSH2 0x54D JUMP JUMPDEST PUSH2 0x43B JUMP JUMPDEST PUSH1 0x40 MLOAD PUSH2 0x108 SWAP2 SWAP1 PUSH2 0x60A JUMP JUMPDEST PUSH1 0x40 MLOAD DUP1 SWAP2 SUB SWAP1 RETURN JUMPDEST PUSH1 0x60 PUSH1 0x1 PUSH1 0x0 DUP4 PUSH20 0xFFFFFFFFFFFFFFFFFFFFFFFFFFFFFFFFFFFFFFFF AND PUSH20 0xFFFFFFFFFFFFFFFFFFFFFFFFFFFFFFFFFFFFFFFF AND DUP2 MSTORE PUSH1 0x20 ADD SWAP1 DUP2 MSTORE PUSH1 0x20 ADD PUSH1 0x0 KECCAK256 PUSH1 0x0 SWAP1 SLOAD SWAP1 PUSH2 0x100 EXP SWAP1 DIV PUSH1 0xFF AND ISZERO PUSH2 0x233 JUMPI PUSH1 0x0 DUP1 DUP4 PUSH20 0xFFFFFFFFFFFFFFFFFFFFFFFFFFFFFFFFFFFFFFFF AND PUSH20 0xFFFFFFFFFFFFFFFFFFFFFFFFFFFFFFFFFFFFFFFF AND DUP2 MSTORE PUSH1 0x20 ADD SWAP1 DUP2 MSTORE PUSH1 0x20 ADD PUSH1 0x0 KECCAK256 DUP1 SLOAD PUSH2 0x1AE SWAP1 PUSH2 0x856 JUMP JUMPDEST DUP1 PUSH1 0x1F ADD PUSH1 0x20 DUP1 SWAP2 DIV MUL PUSH1 0x20 ADD PUSH1 0x40 MLOAD SWAP1 DUP2 ADD PUSH1 0x40 MSTORE DUP1 SWAP3 SWAP2 SWAP1 DUP2 DUP2 MSTORE PUSH1 0x20 ADD DUP3 DUP1 SLOAD PUSH2 0x1DA SWAP1 PUSH2 0x856 JUMP JUMPDEST DUP1 ISZERO PUSH2 0x227 JUMPI DUP1 PUSH1 0x1F LT PUSH2 0x1FC JUMPI PUSH2 0x100 DUP1 DUP4 SLOAD DIV MUL DUP4 MSTORE SWAP2 PUSH1 0x20 ADD SWAP2 PUSH2 0x227 JUMP JUMPDEST DUP3 ADD SWAP2 SWAP1 PUSH1 0x0 MSTORE PUSH1 0x20 PUSH1 0x0 KECCAK256 SWAP1 JUMPDEST DUP2 SLOAD DUP2 MSTORE SWAP1 PUSH1 0x1 ADD SWAP1 PUSH1 0x20 ADD DUP1 DUP4 GT PUSH2 0x20A JUMPI DUP3 SWAP1 SUB PUSH1 0x1F AND DUP3 ADD SWAP2 JUMPDEST POP POP POP POP POP SWAP1 POP PUSH2 0x26C JUMP JUMPDEST PUSH1 0x40 MLOAD DUP1 PUSH1 0x40 ADD PUSH1 0x40 MSTORE DUP1 PUSH1 0x9 DUP2 MSTORE PUSH1 0x20 ADD PUSH32 0x6E6F7420666F756E640000000000000000000000000000000000000000000000 DUP2 MSTORE POP SWAP1 POP JUMPDEST SWAP2 SWAP1 POP JUMP JUMPDEST PUSH1 0x0 DUP1 DUP4 MLOAD SUB PUSH2 0x285 JUMPI PUSH2 0x194 SWAP1 POP PUSH2 0x415 JUMP JUMPDEST PUSH1 0x0 PUSH20 0xFFFFFFFFFFFFFFFFFFFFFFFFFFFFFFFFFFFFFFFF AND DUP3 PUSH20 0xFFFFFFFFFFFFFFFFFFFFFFFFFFFFFFFFFFFFFFFF AND SUB PUSH2 0x2C3 JUMPI PUSH2 0x195 SWAP1 POP PUSH2 0x415 JUMP JUMPDEST PUSH1 0x1 PUSH1 0x0 DUP4 PUSH20 0xFFFFFFFFFFFFFFFFFFFFFFFFFFFFFFFFFFFFFFFF AND PUSH20 0xFFFFFFFFFFFFFFFFFFFFFFFFFFFFFFFFFFFFFFFF AND DUP2 MSTORE PUSH1 0x20 ADD SWAP1 DUP2 MSTORE PUSH1 0x20 ADD PUSH1 0x0 KECCAK256 PUSH1 0x0 SWAP1 SLOAD SWAP1 PUSH2 0x100 EXP SWAP1 DIV PUSH1 0xFF AND ISZERO PUSH2 0x31F JUMPI PUSH2 0x32B SWAP1 POP PUSH2 0x415 JUMP JUMPDEST DUP3 PUSH1 0x0 DUP1 DUP5 PUSH20 0xFFFFFFFFFFFFFFFFFFFFFFFFFFFFFFFFFFFFFFFF AND PUSH20 0xFFFFFFFFFFFFFFFFFFFFFFFFFFFFFFFFFFFFFFFF AND DUP2 MSTORE PUSH1 0x20 ADD SWAP1 DUP2 MSTORE PUSH1 0x20 ADD PUSH1 0x0 KECCAK256 SWAP1 DUP2 PUSH2 0x36A SWAP2 SWAP1 PUSH2 0xA33 JUMP JUMPDEST POP PUSH1 0x1 DUP1 PUSH1 0x0 DUP5 PUSH20 0xFFFFFFFFFFFFFFFFFFFFFFFFFFFFFFFFFFFFFFFF AND PUSH20 0xFFFFFFFFFFFFFFFFFFFFFFFFFFFFFFFFFFFFFFFF AND DUP2 MSTORE PUSH1 0x20 ADD SWAP1 DUP2 MSTORE PUSH1 0x20 ADD PUSH1 0x0 KECCAK256 PUSH1 0x0 PUSH2 0x100 EXP DUP2 SLOAD DUP2 PUSH1 0xFF MUL NOT AND SWAP1 DUP4 ISZERO ISZERO MUL OR SWAP1 SSTORE POP DUP2 PUSH20 0xFFFFFFFFFFFFFFFFFFFFFFFFFFFFFFFFFFFFFFFF AND PUSH32 0x56A1A2764A85C689329FBC04F299B64690A26B1DC5AC82E903CF8AD805CD5396 DUP5 PUSH1 0x40 MLOAD PUSH2 0x408 SWAP2 SWAP1 PUSH2 0x60A JUMP JUMPDEST PUSH1 0x40 MLOAD DUP1 SWAP2 SUB SWAP1 LOG2 PUSH1 0xC8 SWAP1 POP JUMPDEST SWAP3 SWAP2 POP POP JUMP JUMPDEST PUSH1 0x1 PUSH1 0x20 MSTORE DUP1 PUSH1 0x0 MSTORE PUSH1 0x40 PUSH1 0x0 KECCAK256 PUSH1 0x0 SWAP2 POP SLOAD SWAP1 PUSH2 0x100 EXP SWAP1 DIV PUSH1 0xFF AND DUP2 JUMP JUMPDEST PUSH1 0x0 PUSH1 0x20 MSTORE DUP1 PUSH1 0x0 MSTORE PUSH1 0x40 PUSH1 0x0 KECCAK256 PUSH1 0x0 SWAP2 POP SWAP1 POP DUP1 SLOAD PUSH2 0x45A SWAP1 PUSH2 0x856 JUMP JUMPDEST DUP1 PUSH1 0x1F ADD PUSH1 0x20 DUP1 SWAP2 DIV MUL PUSH1 0x20 ADD PUSH1 0x40 MLOAD SWAP1 DUP2 ADD PUSH1 0x40 MSTORE DUP1 SWAP3 SWAP2 SWAP1 DUP2 DUP2 MSTORE PUSH1 0x20 ADD DUP3 DUP1 SLOAD PUSH2 0x486 SWAP1 PUSH2 0x856 JUMP JUMPDEST DUP1 ISZERO PUSH2 0x4D3 JUMPI DUP1 PUSH1 0x1F LT PUSH2 0x4A8 JUMPI PUSH2 0x100 DUP1 DUP4 SLOAD DIV MUL DUP4 MSTORE SWAP2 PUSH1 0x20 ADD SWAP2 PUSH2 0x4D3 JUMP JUMPDEST DUP3 ADD SWAP2 SWAP1 PUSH1 0x0 MSTORE PUSH1 0x20 PUSH1 0x0 KECCAK256 SWAP1 JUMPDEST DUP2 SLOAD DUP2 MSTORE SWAP1 PUSH1 0x1 ADD SWAP1 PUSH1 0x20 ADD DUP1 DUP4 GT PUSH2 0x4B6 JUMPI DUP3 SWAP1 SUB PUSH1 0x1F AND DUP3 ADD SWAP2 JUMPDEST POP POP POP POP POP DUP2 JUMP JUMPDEST PUSH1 0x0 PUSH1 0x40 MLOAD SWAP1 POP SWAP1 JUMP JUMPDEST PUSH1 0x0 DUP1 REVERT JUMPDEST PUSH1 0x0 DUP1 REVERT JUMPDEST PUSH1 0x0 PUSH20 0xFFFFFFFFFFFFFFFFFFFFFFFFFFFFFFFFFFFFFFFF DUP3 AND SWAP1 POP SWAP2 SWAP1 POP JUMP JUMPDEST PUSH1 0x0 PUSH2 0x51A DUP3 PUSH2 0x4EF JUMP JUMPDEST SWAP1 POP SWAP2 SWAP1 POP JUMP JUMPDEST PUSH2 0x52A DUP2 PUSH2 0x50F JUMP JUMPDEST DUP2 EQ PUSH2 0x535 JUMPI PUSH1 0x0 DUP1 REVERT JUMPDEST POP JUMP JUMPDEST PUSH1 0x0 DUP2 CALLDATALOAD SWAP1 POP PUSH2 0x547 DUP2 PUSH2 0x521 JUMP JUMPDEST SWAP3 SWAP2 POP POP JUMP JUMPDEST PUSH1 0x0 PUSH1 0x20 DUP3 DUP5 SUB SLT ISZERO PUSH2 0x563 JUMPI PUSH2 0x562 PUSH2 0x4E5 JUMP JUMPDEST JUMPDEST PUSH1 0x0 PUSH2 0x571 DUP5 DUP3 DUP6 ADD PUSH2 0x538 JUMP JUMPDEST SWAP2 POP POP SWAP3 SWAP2 POP POP JUMP JUMPDEST PUSH1 0x0 DUP2 MLOAD SWAP1 POP SWAP2 SWAP1 POP JUMP JUMPDEST PUSH1 0x0 DUP3 DUP3 MSTORE PUSH1 0x20 DUP3 ADD SWAP1 POP SWAP3 SWAP2 POP POP JUMP JUMPDEST PUSH1 0x0 JUMPDEST DUP4 DUP2 LT ISZERO PUSH2 0x5B4 JUMPI DUP1 DUP3 ADD MLOAD DUP2 DUP5 ADD MSTORE PUSH1 0x20 DUP2 ADD SWAP1 POP PUSH2 0x599 JUMP JUMPDEST PUSH1 0x0 DUP5 DUP5 ADD MSTORE POP POP POP POP JUMP JUMPDEST PUSH1 0x0 PUSH1 0x1F NOT PUSH1 0x1F DUP4 ADD AND SWAP1 POP SWAP2 SWAP1 POP JUMP JUMPDEST PUSH1 0x0 PUSH2 0x5DC DUP3 PUSH2 0x57A JUMP JUMPDEST PUSH2 0x5E6 DUP2 DUP6 PUSH2 0x585 JUMP JUMPDEST SWAP4 POP PUSH2 0x5F6 DUP2 DUP6 PUSH1 0x20 DUP7 ADD PUSH2 0x596 JUMP JUMPDEST PUSH2 0x5FF DUP2 PUSH2 0x5C0 JUMP JUMPDEST DUP5 ADD SWAP2 POP POP SWAP3 SWAP2 POP POP JUMP JUMPDEST PUSH1 0x0 PUSH1 0x20 DUP3 ADD SWAP1 POP DUP2 DUP2 SUB PUSH1 0x0 DUP4 ADD MSTORE PUSH2 0x624 DUP2 DUP5 PUSH2 0x5D1 JUMP JUMPDEST SWAP1 POP SWAP3 SWAP2 POP POP JUMP JUMPDEST PUSH1 0x0 DUP1 REVERT JUMPDEST PUSH1 0x0 DUP1 REVERT JUMPDEST PUSH32 0x4E487B7100000000000000000000000000000000000000000000000000000000 PUSH1 0x0 MSTORE PUSH1 0x41 PUSH1 0x4 MSTORE PUSH1 0x24 PUSH1 0x0 REVERT JUMPDEST PUSH2 0x66E DUP3 PUSH2 0x5C0 JUMP JUMPDEST DUP2 ADD DUP2 DUP2 LT PUSH8 0xFFFFFFFFFFFFFFFF DUP3 GT OR ISZERO PUSH2 0x68D JUMPI PUSH2 0x68C PUSH2 0x636 JUMP JUMPDEST JUMPDEST DUP1 PUSH1 0x40 MSTORE POP POP POP JUMP JUMPDEST PUSH1 0x0 PUSH2 0x6A0 PUSH2 0x4DB JUMP JUMPDEST SWAP1 POP PUSH2 0x6AC DUP3 DUP3 PUSH2 0x665 JUMP JUMPDEST SWAP2 SWAP1 POP JUMP JUMPDEST PUSH1 0x0 PUSH8 0xFFFFFFFFFFFFFFFF DUP3 GT ISZERO PUSH2 0x6CC JUMPI PUSH2 0x6CB PUSH2 0x636 JUMP JUMPDEST JUMPDEST PUSH2 0x6D5 DUP3 PUSH2 0x5C0 JUMP JUMPDEST SWAP1 POP PUSH1 0x20 DUP2 ADD SWAP1 POP SWAP2 SWAP1 POP JUMP JUMPDEST DUP3 DUP2 DUP4 CALLDATACOPY PUSH1 0x0 DUP4 DUP4 ADD MSTORE POP POP POP JUMP JUMPDEST PUSH1 0x0 PUSH2 0x704 PUSH2 0x6FF DUP5 PUSH2 0x6B1 JUMP JUMPDEST PUSH2 0x696 JUMP JUMPDEST SWAP1 POP DUP3 DUP2 MSTORE PUSH1 0x20 DUP2 ADD DUP5 DUP5 DUP5 ADD GT ISZERO PUSH2 0x720 JUMPI PUSH2 0x71F PUSH2 0x631 JUMP JUMPDEST JUMPDEST PUSH2 0x72B DUP5 DUP3 DUP6 PUSH2 0x6E2 JUMP JUMPDEST POP SWAP4 SWAP3 POP POP POP JUMP JUMPDEST PUSH1 0x0 DUP3 PUSH1 0x1F DUP4 ADD SLT PUSH2 0x748 JUMPI PUSH2 0x747 PUSH2 0x62C JUMP JUMPDEST JUMPDEST DUP2 CALLDATALOAD PUSH2 0x758 DUP5 DUP3 PUSH1 0x20 DUP7 ADD PUSH2 0x6F1 JUMP JUMPDEST SWAP2 POP POP SWAP3 SWAP2 POP POP JUMP JUMPDEST PUSH1 0x0 DUP1 PUSH1 0x40 DUP4 DUP6 SUB SLT ISZERO PUSH2 0x778 JUMPI PUSH2 0x777 PUSH2 0x4E5 JUMP JUMPDEST JUMPDEST PUSH1 0x0 DUP4 ADD CALLDATALOAD PUSH8 0xFFFFFFFFFFFFFFFF DUP2 GT ISZERO PUSH2 0x796 JUMPI PUSH2 0x795 PUSH2 0x4EA JUMP JUMPDEST JUMPDEST PUSH2 0x7A2 DUP6 DUP3 DUP7 ADD PUSH2 0x733 JUMP JUMPDEST SWAP3 POP POP PUSH1 0x20 PUSH2 0x7B3 DUP6 DUP3 DUP7 ADD PUSH2 0x538 JUMP JUMPDEST SWAP2 POP POP SWAP3 POP SWAP3 SWAP1 POP JUMP JUMPDEST PUSH1 0x0 DUP2 SWAP1 POP SWAP2 SWAP1 POP JUMP JUMPDEST PUSH2 0x7D0 DUP2 PUSH2 0x7BD JUMP JUMPDEST DUP3 MSTORE POP POP JUMP JUMPDEST PUSH1 0x0 PUSH1 0x20 DUP3 ADD SWAP1 POP PUSH2 0x7EB PUSH1 0x0 DUP4 ADD DUP5 PUSH2 0x7C7 JUMP JUMPDEST SWAP3 SWAP2 POP POP JUMP JUMPDEST PUSH1 0x0 DUP2 ISZERO ISZERO SWAP1 POP SWAP2 SWAP1 POP JUMP JUMPDEST PUSH2 0x806 DUP2 PUSH2 0x7F1 JUMP JUMPDEST DUP3 MSTORE POP POP JUMP JUMPDEST PUSH1 0x0 PUSH1 0x20 DUP3 ADD SWAP1 POP PUSH2 0x821 PUSH1 0x0 DUP4 ADD DUP5 PUSH2 0x7FD JUMP JUMPDEST SWAP3 SWAP2 POP POP JUMP JUMPDEST PUSH32 0x4E487B7100000000000000000000000000000000000000000000000000000000 PUSH1 0x0 MSTORE PUSH1 0x22 PUSH1 0x4 MSTORE PUSH1 0x24 PUSH1 0x0 REVERT JUMPDEST PUSH1 0x0 PUSH1 0x2 DUP3 DIV SWAP1 POP PUSH1 0x1 DUP3 AND DUP1 PUSH2 0x86E JUMPI PUSH1 0x7F DUP3 AND SWAP2 POP JUMPDEST PUSH1 0x20 DUP3 LT DUP2 SUB PUSH2 0x881 JUMPI PUSH2 0x880 PUSH2 0x827 JUMP JUMPDEST JUMPDEST POP SWAP2 SWAP1 POP JUMP JUMPDEST PUSH1 0x0 DUP2 SWAP1 POP DUP2 PUSH1 0x0 MSTORE PUSH1 0x20 PUSH1 0x0 KECCAK256 SWAP1 POP SWAP2 SWAP1 POP JUMP JUMPDEST PUSH1 0x0 PUSH1 0x20 PUSH1 0x1F DUP4 ADD DIV SWAP1 POP SWAP2 SWAP1 POP JUMP JUMPDEST PUSH1 0x0 DUP3 DUP3 SHL SWAP1 POP SWAP3 SWAP2 POP POP JUMP JUMPDEST PUSH1 0x0 PUSH1 0x8 DUP4 MUL PUSH2 0x8E9 PUSH32 0xFFFFFFFFFFFFFFFFFFFFFFFFFFFFFFFFFFFFFFFFFFFFFFFFFFFFFFFFFFFFFFFF DUP3 PUSH2 0x8AC JUMP JUMPDEST PUSH2 0x8F3 DUP7 DUP4 PUSH2 0x8AC JUMP JUMPDEST SWAP6 POP DUP1 NOT DUP5 AND SWAP4 POP DUP1 DUP7 AND DUP5 OR SWAP3 POP POP POP SWAP4 SWAP3 POP POP POP JUMP JUMPDEST PUSH1 0x0 DUP2 SWAP1 POP SWAP2 SWAP1 POP JUMP JUMPDEST PUSH1 0x0 PUSH2 0x930 PUSH2 0x92B PUSH2 0x926 DUP5 PUSH2 0x7BD JUMP JUMPDEST PUSH2 0x90B JUMP JUMPDEST PUSH2 0x7BD JUMP JUMPDEST SWAP1 POP SWAP2 SWAP1 POP JUMP JUMPDEST PUSH1 0x0 DUP2 SWAP1 POP SWAP2 SWAP1 POP JUMP JUMPDEST PUSH2 0x94A DUP4 PUSH2 0x915 JUMP JUMPDEST PUSH2 0x95E PUSH2 0x956 DUP3 PUSH2 0x937 JUMP JUMPDEST DUP5 DUP5 SLOAD PUSH2 0x8B9 JUMP JUMPDEST DUP3 SSTORE POP POP POP POP JUMP JUMPDEST PUSH1 0x0 SWAP1 JUMP JUMPDEST PUSH2 0x973 PUSH2 0x966 JUMP JUMPDEST PUSH2 0x97E DUP2 DUP5 DUP5 PUSH2 0x941 JUMP JUMPDEST POP POP POP JUMP JUMPDEST JUMPDEST DUP2 DUP2 LT ISZERO PUSH2 0x9A2 JUMPI PUSH2 0x997 PUSH1 0x0 DUP3 PUSH2 0x96B JUMP JUMPDEST PUSH1 0x1 DUP2 ADD SWAP1 POP PUSH2 0x984 JUMP JUMPDEST POP POP JUMP JUMPDEST PUSH1 0x1F DUP3 GT ISZERO PUSH2 0x9E7 JUMPI PUSH2 0x9B8 DUP2 PUSH2 0x887 JUMP JUMPDEST PUSH2 0x9C1 DUP5 PUSH2 0x89C JUMP JUMPDEST DUP2 ADD PUSH1 0x20 DUP6 LT ISZERO PUSH2 0x9D0 JUMPI DUP2 SWAP1 POP JUMPDEST PUSH2 0x9E4 PUSH2 0x9DC DUP6 PUSH2 0x89C JUMP JUMPDEST DUP4 ADD DUP3 PUSH2 0x983 JUMP JUMPDEST POP POP JUMPDEST POP POP POP JUMP JUMPDEST PUSH1 0x0 DUP3 DUP3 SHR SWAP1 POP SWAP3 SWAP2 POP POP JUMP JUMPDEST PUSH1 0x0 PUSH2 0xA0A PUSH1 0x0 NOT DUP5 PUSH1 0x8 MUL PUSH2 0x9EC JUMP JUMPDEST NOT DUP1 DUP4 AND SWAP2 POP POP SWAP3 SWAP2 POP POP JUMP JUMPDEST PUSH1 0x0 PUSH2 0xA23 DUP4 DUP4 PUSH2 0x9F9 JUMP JUMPDEST SWAP2 POP DUP3 PUSH1 0x2 MUL DUP3 OR SWAP1 POP SWAP3 SWAP2 POP POP JUMP JUMPDEST PUSH2 0xA3C DUP3 PUSH2 0x57A JUMP JUMPDEST PUSH8 0xFFFFFFFFFFFFFFFF DUP2 GT ISZERO PUSH2 0xA55 JUMPI PUSH2 0xA54 PUSH2 0x636 JUMP JUMPDEST JUMPDEST PUSH2 0xA5F DUP3 SLOAD PUSH2 0x856 JUMP JUMPDEST PUSH2 0xA6A DUP3 DUP3 DUP6 PUSH2 0x9A6 JUMP JUMPDEST PUSH1 0x0 PUSH1 0x20 SWAP1 POP PUSH1 0x1F DUP4 GT PUSH1 0x1 DUP2 EQ PUSH2 0xA9D JUMPI PUSH1 0x0 DUP5 ISZERO PUSH2 0xA8B JUMPI DUP3 DUP8 ADD MLOAD SWAP1 POP JUMPDEST PUSH2 0xA95 DUP6 DUP3 PUSH2 0xA17 JUMP JUMPDEST DUP7 SSTORE POP PUSH2 0xAFD JUMP JUMPDEST PUSH1 0x1F NOT DUP5 AND PUSH2 0xAAB DUP7 PUSH2 0x887 JUMP JUMPDEST PUSH1 0x0 JUMPDEST DUP3 DUP2 LT ISZERO PUSH2 0xAD3 JUMPI DUP5 DUP10 ADD MLOAD DUP3 SSTORE PUSH1 0x1 DUP3 ADD SWAP2 POP PUSH1 0x20 DUP6 ADD SWAP5 POP PUSH1 0x20 DUP2 ADD SWAP1 POP PUSH2 0xAAE JUMP JUMPDEST DUP7 DUP4 LT ISZERO PUSH2 0xAF0 JUMPI DUP5 DUP10 ADD MLOAD PUSH2 0xAEC PUSH1 0x1F DUP10 AND DUP3 PUSH2 0x9F9 JUMP JUMPDEST DUP4 SSTORE POP JUMPDEST PUSH1 0x1 PUSH1 0x2 DUP9 MUL ADD DUP9 SSTORE POP POP POP JUMPDEST POP POP POP POP POP POP JUMP INVALID LOG2 PUSH5 0x6970667358 0x22 SLT KECCAK256 GASLIMIT SDIV CALL 0xC9 NUMBER 0xDA 0xE2 PUSH1 0xB5 LT DUP1 0xBD 0xF8 0xD SWAP5 CREATE CALLER 0xC9 JUMPI SHR PUSH31 0x8F22D2F10B10D91353417A64736F6C63430008120033000000000000000000 "
				},
				"gasEstimates": {
					"creation": {
						"codeDepositCost": "575000",
						"executionCost": "606",
						"totalCost": "575606"
					},
					"external": {
						"addressToName(address)": "infinite",
						"getName(address)": "infinite",
						"isRegistered(address)": "2867",
						"registerName(string,address)": "infinite"
					}
				},
				"methodIdentifiers": {
					"addressToName(address)": "e2a04b62",
					"getName(address)": "5fd4b08a",
					"isRegistered(address)": "c3c5a547",
					"registerName(string,address)": "7b59af16"
				}
			},
			"storageLayout": {
				"storage": [
					{
						"astId": 5,
						"contract": "contracts/ethtest1.sol:NameRegistry",
						"label": "addressToName",
						"offset": 0,
						"slot": "0",
						"type": "t_mapping(t_address,t_string_storage)"
					},
					{
						"astId": 9,
						"contract": "contracts/ethtest1.sol:NameRegistry",
						"label": "isRegistered",
						"offset": 0,
						"slot": "1",
						"type": "t_mapping(t_address,t_bool)"
					}
				],
				"types": {
					"t_address": {
						"encoding": "inplace",
						"label": "address",
						"numberOfBytes": "20"
					},
					"t_bool": {
						"encoding": "inplace",
						"label": "bool",
						"numberOfBytes": "1"
					},
					"t_mapping(t_address,t_bool)": {
						"encoding": "mapping",
						"key": "t_address",
						"label": "mapping(address => bool)",
						"numberOfBytes": "32",
						"value": "t_bool"
					},
					"t_mapping(t_address,t_string_storage)": {
						"encoding": "mapping",
						"key": "t_address",
						"label": "mapping(address => string)",
						"numberOfBytes": "32",
						"value": "t_string_storage"
					},
					"t_string_storage": {
						"encoding": "bytes",
						"label": "string",
						"numberOfBytes": "32"
					}
				}
			},
			"userdoc": {
				"kind": "user",
				"methods": {},
				"version": 1
			}
		}
	}
}