{
	"data": {
		"bytecode": {
			"linkReferences": {},
			"object": "6080604052600160045534801562000015575f80fd5b5033805f8073ffffffffffffffffffffffffffffffffffffffff168273ffffffffffffffffffffffffffffffffffffffff16036200008a576040517f08c379a000000000000000000000000000000000000000000000000000000000815260040162000081906200054b565b60405180910390fd5b8160065f6101000a81548173ffffffffffffffffffffffffffffffffffffffff021916908373ffffffffffffffffffffffffffffffffffffffff1602179055505f73ffffffffffffffffffffffffffffffffffffffff168173ffffffffffffffffffffffffffffffffffffffff161462000110576200010f81620001ba60201b60201c565b5b5050506200013873326c977e6efc84e512bb9c30f76e30c160ed06fb620002e960201b60201c565b6200015d7312a3d7759f745f4cb8ee8a647038c040cb8862a56200032c60201b60201c565b620001a36040518060400160405280602081526020017f61383335366634383536396334333465616134616335666362346462356363308152506200039060201b60201c565b620001b45f620003b560201b60201c565b620007de565b3373ffffffffffffffffffffffffffffffffffffffff168173ffffffffffffffffffffffffffffffffffffffff16036200022b576040517f08c379a00000000000000000000000000000000000000000000000000000000081526004016200022290620005b9565b60405180910390fd5b8060075f6101000a81548173ffffffffffffffffffffffffffffffffffffffff021916908373ffffffffffffffffffffffffffffffffffffffff1602179055508073ffffffffffffffffffffffffffffffffffffffff1660065f9054906101000a900473ffffffffffffffffffffffffffffffffffffffff1673ffffffffffffffffffffffffffffffffffffffff167fed8889f560326eb138920d842192f0eb3dd22b4f139c87a2c57538e05bae127860405160405180910390a350565b8060025f6101000a81548173ffffffffffffffffffffffffffffffffffffffff021916908373ffffffffffffffffffffffffffffffffffffffff16021790555050565b6200033c620003fc60201b60201c565b8060085f6101000a81548173ffffffffffffffffffffffffffffffffffffffff021916908373ffffffffffffffffffffffffffffffffffffffff1602179055506200038d816200049060201b60201c565b50565b620003a0620003fc60201b60201c565b80620003ac906200061d565b60098190555050565b620003c5620003fc60201b60201c565b620003f96064670de0b6b3a764000083620003e19190620006c2565b620003ed919062000739565b620004d360201b60201c565b50565b60065f9054906101000a900473ffffffffffffffffffffffffffffffffffffffff1673ffffffffffffffffffffffffffffffffffffffff163373ffffffffffffffffffffffffffffffffffffffff16146200048e576040517f08c379a00000000000000000000000000000000000000000000000000000000081526004016200048590620007be565b60405180910390fd5b565b8060035f6101000a81548173ffffffffffffffffffffffffffffffffffffffff021916908373ffffffffffffffffffffffffffffffffffffffff16021790555050565b620004e3620003fc60201b60201c565b80600a8190555050565b5f82825260208201905092915050565b7f43616e6e6f7420736574206f776e657220746f207a65726f00000000000000005f82015250565b5f62000533601883620004ed565b91506200054082620004fd565b602082019050919050565b5f6020820190508181035f830152620005648162000525565b9050919050565b7f43616e6e6f74207472616e7366657220746f2073656c660000000000000000005f82015250565b5f620005a1601783620004ed565b9150620005ae826200056b565b602082019050919050565b5f6020820190508181035f830152620005d28162000593565b9050919050565b5f81519050919050565b5f819050602082019050919050565b5f819050919050565b5f620006088251620005f2565b80915050919050565b5f82821b905092915050565b5f6200062982620005d9565b826200063584620005e3565b90506200064281620005fb565b925060208210156200068557620006807fffffffffffffffffffffffffffffffffffffffffffffffffffffffffffffffff8360200360080262000611565b831692505b5050919050565b5f819050919050565b7f4e487b71000000000000000000000000000000000000000000000000000000005f52601160045260245ffd5b5f620006ce826200068c565b9150620006db836200068c565b9250828202620006eb816200068c565b9150828204841483151762000705576200070462000695565b5b5092915050565b7f4e487b71000000000000000000000000000000000000000000000000000000005f52601260045260245ffd5b5f62000745826200068c565b915062000752836200068c565b9250826200076557620007646200070c565b5b828204905092915050565b7f4f6e6c792063616c6c61626c65206279206f776e6572000000000000000000005f82015250565b5f620007a6601683620004ed565b9150620007b38262000770565b602082019050919050565b5f6020820190508181035f830152620007d78162000798565b9050919050565b6125a880620007ec5f395ff3fe608060405234801561000f575f80fd5b50600436106100e8575f3560e01c80638da5cb5b1161008a578063b18b78dd11610064578063b18b78dd146101e8578063e3da201d14610206578063f2fde38b14610222578063f34473a51461023e576100e8565b80638da5cb5b146101a25780638dc654a2146101c0578063b02f7fe0146101ca576100e8565b80634c69c00f116100c65780634c69c00f14610140578063562376821461015c57806379ba50971461017a5780637a7f01a714610184576100e8565b8063129fc1c0146100ec5780632c199889146101085780634357855e14610124575b5f80fd5b610106600480360381019061010191906118af565b61025a565b005b610122600480360381019061011d91906118af565b610275565b005b61013e6004803603810190610139919061195c565b61058b565b005b61015a600480360381019061015591906119f4565b610696565b005b6101646106ea565b6040516101719190611a2e565b60405180910390f35b61018261071a565b005b61018c6108ab565b6040516101999190611a2e565b60405180910390f35b6101aa6108b1565b6040516101b79190611a56565b60405180910390f35b6101c86108d9565b005b6101d2610a20565b6040516101df9190611ae9565b60405180910390f35b6101f0610a51565b6040516101fd9190611a56565b60405180910390f35b610220600480360381019061021b9190611b09565b610a81565b005b61023c600480360381019061023791906119f4565b610a93565b005b61025860048036038101906102539190611b09565b610aa7565b005b610262610ada565b8061026c90611b6d565b60098190555050565b5f610289600954634357855e60e01b610b6b565b90505f60405180606001604052806022815260200161252d6022913990505f81846040516020016102bb929190611c0d565b604051602081830303815290604052905061034b6040518060400160405280600681526020017f6d6574686f6400000000000000000000000000000000000000000000000000008152506040518060400160405280600381526020017f474554000000000000000000000000000000000000000000000000000000000081525085610b9b9092919063ffffffff16565b6103956040518060400160405280600381526020017f75726c00000000000000000000000000000000000000000000000000000000008152508285610b9b9092919063ffffffff16565b6103f76040518060400160405280600781526020017f686561646572730000000000000000000000000000000000000000000000000081525060405180606001604052806024815260200161254f6024913985610b9b9092919063ffffffff16565b61044f6040518060400160405280600481526020017f626f64790000000000000000000000000000000000000000000000000000000081525060405180602001604052805f81525085610b9b9092919063ffffffff16565b6104a76040518060400160405280600781526020017f636f6e746163740000000000000000000000000000000000000000000000000081525060405180602001604052805f81525085610b9b9092919063ffffffff16565b6105266040518060400160405280600481526020017f70617468000000000000000000000000000000000000000000000000000000008152506040518060400160405280600881526020017f727761507269636500000000000000000000000000000000000000000000000081525085610b9b9092919063ffffffff16565b6105786040518060400160405280600a81526020017f6d756c7469706c69657200000000000000000000000000000000000000000000815250670de0b6b3a764000085610bce9092919063ffffffff16565b61058483600a54610c01565b5050505050565b8160055f8281526020019081526020015f205f9054906101000a900473ffffffffffffffffffffffffffffffffffffffff1673ffffffffffffffffffffffffffffffffffffffff163373ffffffffffffffffffffffffffffffffffffffff161461062a576040517f08c379a000000000000000000000000000000000000000000000000000000000815260040161062190611ca0565b60405180910390fd5b60055f8281526020019081526020015f205f6101000a81549073ffffffffffffffffffffffffffffffffffffffff0219169055807f7cc135e0cebb02c3480ae5d74d377283180a2601f8f644edf7987b009316c63a60405160405180910390a281600b81905550505050565b61069e610ada565b8060085f6101000a81548173ffffffffffffffffffffffffffffffffffffffff021916908373ffffffffffffffffffffffffffffffffffffffff1602179055506106e781610c36565b50565b5f6106f3610ada565b670de0b6b3a76400006064600a5461070b9190611ceb565b6107159190611d59565b905090565b60075f9054906101000a900473ffffffffffffffffffffffffffffffffffffffff1673ffffffffffffffffffffffffffffffffffffffff163373ffffffffffffffffffffffffffffffffffffffff16146107a9576040517f08c379a00000000000000000000000000000000000000000000000000000000081526004016107a090611dd3565b60405180910390fd5b5f60065f9054906101000a900473ffffffffffffffffffffffffffffffffffffffff1690503360065f6101000a81548173ffffffffffffffffffffffffffffffffffffffff021916908373ffffffffffffffffffffffffffffffffffffffff1602179055505f60075f6101000a81548173ffffffffffffffffffffffffffffffffffffffff021916908373ffffffffffffffffffffffffffffffffffffffff1602179055503373ffffffffffffffffffffffffffffffffffffffff168173ffffffffffffffffffffffffffffffffffffffff167f8be0079c531659141344cd1fd0a4f28419497f9722a3daafe3b4186f6b6457e060405160405180910390a350565b600b5481565b5f60065f9054906101000a900473ffffffffffffffffffffffffffffffffffffffff16905090565b6108e1610ada565b5f6108ea610c79565b90508073ffffffffffffffffffffffffffffffffffffffff1663a9059cbb338373ffffffffffffffffffffffffffffffffffffffff166370a08231306040518263ffffffff1660e01b81526004016109429190611a56565b602060405180830381865afa15801561095d573d5f803e3d5ffd5b505050506040513d601f19601f820116820180604052508101906109819190611e05565b6040518363ffffffff1660e01b815260040161099e929190611e30565b6020604051808303815f875af11580156109ba573d5f803e3d5ffd5b505050506040513d601f19601f820116820180604052508101906109de9190611e8c565b610a1d576040517f08c379a0000000000000000000000000000000000000000000000000000000008152600401610a1490611f01565b60405180910390fd5b50565b6060610a2a610ada565b600954604051602001610a3d9190611f3f565b604051602081830303815290604052905090565b5f610a5a610ada565b60085f9054906101000a900473ffffffffffffffffffffffffffffffffffffffff16905090565b610a89610ada565b80600a8190555050565b610a9b610ada565b610aa481610ca1565b50565b610aaf610ada565b610ad76064670de0b6b3a764000083610ac89190611ceb565b610ad29190611d59565b610a81565b50565b60065f9054906101000a900473ffffffffffffffffffffffffffffffffffffffff1673ffffffffffffffffffffffffffffffffffffffff163373ffffffffffffffffffffffffffffffffffffffff1614610b69576040517f08c379a0000000000000000000000000000000000000000000000000000000008152600401610b6090611fa3565b60405180910390fd5b565b610b736116e0565b610b7b6116e0565b610b9284308584610dcd909392919063ffffffff16565b91505092915050565b610bb2828460800151610e7c90919063ffffffff16565b610bc9818460800151610e7c90919063ffffffff16565b505050565b610be5828460800151610e7c90919063ffffffff16565b610bfc818460800151610ea190919063ffffffff16565b505050565b5f610c2e60035f9054906101000a900473ffffffffffffffffffffffffffffffffffffffff168484610f4c565b905092915050565b8060035f6101000a81548173ffffffffffffffffffffffffffffffffffffffff021916908373ffffffffffffffffffffffffffffffffffffffff16021790555050565b5f60025f9054906101000a900473ffffffffffffffffffffffffffffffffffffffff16905090565b3373ffffffffffffffffffffffffffffffffffffffff168173ffffffffffffffffffffffffffffffffffffffff1603610d0f576040517f08c379a0000000000000000000000000000000000000000000000000000000008152600401610d069061200b565b60405180910390fd5b8060075f6101000a81548173ffffffffffffffffffffffffffffffffffffffff021916908373ffffffffffffffffffffffffffffffffffffffff1602179055508073ffffffffffffffffffffffffffffffffffffffff1660065f9054906101000a900473ffffffffffffffffffffffffffffffffffffffff1673ffffffffffffffffffffffffffffffffffffffff167fed8889f560326eb138920d842192f0eb3dd22b4f139c87a2c57538e05bae127860405160405180910390a350565b610dd56116e0565b610de58560800151610100611011565b5083855f01818152505082856020019073ffffffffffffffffffffffffffffffffffffffff16908173ffffffffffffffffffffffffffffffffffffffff16815250508185604001907bffffffffffffffffffffffffffffffffffffffffffffffffffffffff191690817bffffffffffffffffffffffffffffffffffffffffffffffffffffffff191681525050849050949350505050565b610e898260038351611079565b610e9c81836111fe90919063ffffffff16565b505050565b7fffffffffffffffffffffffffffffffffffffffffffffffff0000000000000000811215610ed857610ed3828261121f565b610f48565b67ffffffffffffffff811315610ef757610ef28282611296565b610f47565b5f8112610f0e57610f09825f83611079565b610f46565b610f45826001837fffffffffffffffffffffffffffffffffffffffffffffffffffffffffffffffff610f409190612032565b611079565b5b5b5b5050565b5f806004549050600181610f609190612072565b6004819055505f633c6d41b960e01b5f80875f015188604001518660028b608001515f0151604051602401610f9b9796959493929190612136565b604051602081830303815290604052907bffffffffffffffffffffffffffffffffffffffffffffffffffffffff19166020820180517bffffffffffffffffffffffffffffffffffffffffffffffffffffffff83818316178352505050509050611006868386846112e2565b925050509392505050565b611019611749565b5f60208361102791906121aa565b146110535760208261103991906121aa565b602061104591906121da565b826110509190612072565b91505b818360200181815250506040518084525f81528281016020016040525082905092915050565b60178167ffffffffffffffff16116110b0576110aa8160058460ff16901b60ff16178461146f90919063ffffffff16565b506111f9565b60ff8167ffffffffffffffff1611611106576110df601860058460ff16901b178461146f90919063ffffffff16565b506111008167ffffffffffffffff1660018561148e9092919063ffffffff16565b506111f8565b61ffff8167ffffffffffffffff161161115d57611136601960058460ff16901b178461146f90919063ffffffff16565b506111578167ffffffffffffffff1660028561148e9092919063ffffffff16565b506111f7565b63ffffffff8167ffffffffffffffff16116111b65761118f601a60058460ff16901b178461146f90919063ffffffff16565b506111b08167ffffffffffffffff1660048561148e9092919063ffffffff16565b506111f6565b6111d3601b60058460ff16901b178461146f90919063ffffffff16565b506111f48167ffffffffffffffff1660088561148e9092919063ffffffff16565b505b5b5b5b505050565b611206611749565b61121783845f0151518485516114af565b905092915050565b61123d60036005600660ff16901b178361146f90919063ffffffff16565b5061129282827fffffffffffffffffffffffffffffffffffffffffffffffffffffffffffffffff61126e9190612032565b60405160200161127e9190611a2e565b60405160208183030381529060405261159b565b5050565b6112b460026005600660ff16901b178361146f90919063ffffffff16565b506112de82826040516020016112ca9190611a2e565b60405160208183030381529060405261159b565b5050565b5f30846040516020016112f69291906122be565b6040516020818303038152906040528051906020012090508460055f8381526020019081526020015f205f6101000a81548173ffffffffffffffffffffffffffffffffffffffff021916908373ffffffffffffffffffffffffffffffffffffffff160217905550807fb5e6e01e79f91267dc17b4e6314d5d4d03593d2ceee0fbb452b750bd70ea5af960405160405180910390a260025f9054906101000a900473ffffffffffffffffffffffffffffffffffffffff1673ffffffffffffffffffffffffffffffffffffffff16634000aea08685856040518463ffffffff1660e01b81526004016113e8939291906122e9565b6020604051808303815f875af1158015611404573d5f803e3d5ffd5b505050506040513d601f19601f820116820180604052508101906114289190611e8c565b611467576040517f08c379a000000000000000000000000000000000000000000000000000000000815260040161145e90612395565b60405180910390fd5b949350505050565b611477611749565b61148683845f015151846115c0565b905092915050565b611496611749565b6114a684855f0151518585611616565b90509392505050565b6114b7611749565b82518211156114c4575f80fd5b846020015182856114d59190612072565b111561150a576115098560026114fa886020015188876114f59190612072565b6116a3565b6115049190611ceb565b6116be565b5b5f808651805187602083010193508088870111156115285787860182525b60208701925050505b6020841061156f578051825260208261154a9190612072565b91506020816115599190612072565b905060208461156891906121da565b9350611531565b5f6001856020036101000a03905080198251168184511681811785525050508692505050949350505050565b6115a88260028351611079565b6115bb81836111fe90919063ffffffff16565b505050565b6115c8611749565b836020015183106115ee576115ed84600286602001516115e89190611ceb565b6116be565b5b83518051602085830101848153818603611609576001820183525b5050508390509392505050565b61161e611749565b8460200151848361162f9190612072565b11156116575761165685600286856116479190612072565b6116519190611ceb565b6116be565b5b5f60018361010061166891906124e2565b61167291906121da565b905085518386820101858319825116178152815185880111156116955784870182525b505085915050949350505050565b5f818311156116b4578290506116b8565b8190505b92915050565b5f825f015190506116cf8383611011565b506116da83826111fe565b50505050565b6040518060a001604052805f80191681526020015f73ffffffffffffffffffffffffffffffffffffffff1681526020015f7bffffffffffffffffffffffffffffffffffffffffffffffffffffffff191681526020015f8152602001611743611749565b81525090565b6040518060400160405280606081526020015f81525090565b5f604051905090565b5f80fd5b5f80fd5b5f80fd5b5f80fd5b5f601f19601f8301169050919050565b7f4e487b71000000000000000000000000000000000000000000000000000000005f52604160045260245ffd5b6117c18261177b565b810181811067ffffffffffffffff821117156117e0576117df61178b565b5b80604052505050565b5f6117f2611762565b90506117fe82826117b8565b919050565b5f67ffffffffffffffff82111561181d5761181c61178b565b5b6118268261177b565b9050602081019050919050565b828183375f83830152505050565b5f61185361184e84611803565b6117e9565b90508281526020810184848401111561186f5761186e611777565b5b61187a848285611833565b509392505050565b5f82601f83011261189657611895611773565b5b81356118a6848260208601611841565b91505092915050565b5f602082840312156118c4576118c361176b565b5b5f82013567ffffffffffffffff8111156118e1576118e061176f565b5b6118ed84828501611882565b91505092915050565b5f819050919050565b611908816118f6565b8114611912575f80fd5b50565b5f81359050611923816118ff565b92915050565b5f819050919050565b61193b81611929565b8114611945575f80fd5b50565b5f8135905061195681611932565b92915050565b5f80604083850312156119725761197161176b565b5b5f61197f85828601611915565b925050602061199085828601611948565b9150509250929050565b5f73ffffffffffffffffffffffffffffffffffffffff82169050919050565b5f6119c38261199a565b9050919050565b6119d3816119b9565b81146119dd575f80fd5b50565b5f813590506119ee816119ca565b92915050565b5f60208284031215611a0957611a0861176b565b5b5f611a16848285016119e0565b91505092915050565b611a2881611929565b82525050565b5f602082019050611a415f830184611a1f565b92915050565b611a50816119b9565b82525050565b5f602082019050611a695f830184611a47565b92915050565b5f81519050919050565b5f82825260208201905092915050565b5f5b83811015611aa6578082015181840152602081019050611a8b565b5f8484015250505050565b5f611abb82611a6f565b611ac58185611a79565b9350611ad5818560208601611a89565b611ade8161177b565b840191505092915050565b5f6020820190508181035f830152611b018184611ab1565b905092915050565b5f60208284031215611b1e57611b1d61176b565b5b5f611b2b84828501611948565b91505092915050565b5f81519050919050565b5f819050602082019050919050565b5f611b5882516118f6565b80915050919050565b5f82821b905092915050565b5f611b7782611b34565b82611b8184611b3e565b9050611b8c81611b4d565b92506020821015611bcc57611bc77fffffffffffffffffffffffffffffffffffffffffffffffffffffffffffffffff83602003600802611b61565b831692505b5050919050565b5f81905092915050565b5f611be782611a6f565b611bf18185611bd3565b9350611c01818560208601611a89565b80840191505092915050565b5f611c188285611bdd565b9150611c248284611bdd565b91508190509392505050565b7f536f75726365206d75737420626520746865206f7261636c65206f66207468655f8201527f2072657175657374000000000000000000000000000000000000000000000000602082015250565b5f611c8a602883611a79565b9150611c9582611c30565b604082019050919050565b5f6020820190508181035f830152611cb781611c7e565b9050919050565b7f4e487b71000000000000000000000000000000000000000000000000000000005f52601160045260245ffd5b5f611cf582611929565b9150611d0083611929565b9250828202611d0e81611929565b91508282048414831517611d2557611d24611cbe565b5b5092915050565b7f4e487b71000000000000000000000000000000000000000000000000000000005f52601260045260245ffd5b5f611d6382611929565b9150611d6e83611929565b925082611d7e57611d7d611d2c565b5b828204905092915050565b7f4d7573742062652070726f706f736564206f776e6572000000000000000000005f82015250565b5f611dbd601683611a79565b9150611dc882611d89565b602082019050919050565b5f6020820190508181035f830152611dea81611db1565b9050919050565b5f81519050611dff81611932565b92915050565b5f60208284031215611e1a57611e1961176b565b5b5f611e2784828501611df1565b91505092915050565b5f604082019050611e435f830185611a47565b611e506020830184611a1f565b9392505050565b5f8115159050919050565b611e6b81611e57565b8114611e75575f80fd5b50565b5f81519050611e8681611e62565b92915050565b5f60208284031215611ea157611ea061176b565b5b5f611eae84828501611e78565b91505092915050565b7f556e61626c6520746f207472616e7366657200000000000000000000000000005f82015250565b5f611eeb601283611a79565b9150611ef682611eb7565b602082019050919050565b5f6020820190508181035f830152611f1881611edf565b9050919050565b5f819050919050565b611f39611f34826118f6565b611f1f565b82525050565b5f611f4a8284611f28565b60208201915081905092915050565b7f4f6e6c792063616c6c61626c65206279206f776e6572000000000000000000005f82015250565b5f611f8d601683611a79565b9150611f9882611f59565b602082019050919050565b5f6020820190508181035f830152611fba81611f81565b9050919050565b7f43616e6e6f74207472616e7366657220746f2073656c660000000000000000005f82015250565b5f611ff5601783611a79565b915061200082611fc1565b602082019050919050565b5f6020820190508181035f83015261202281611fe9565b9050919050565b5f819050919050565b5f61203c82612029565b915061204783612029565b925082820390508181125f8412168282135f85121516171561206c5761206b611cbe565b5b92915050565b5f61207c82611929565b915061208783611929565b925082820190508082111561209f5761209e611cbe565b5b92915050565b6120ae816118f6565b82525050565b5f7fffffffff0000000000000000000000000000000000000000000000000000000082169050919050565b6120e8816120b4565b82525050565b5f82825260208201905092915050565b5f61210882611b34565b61211281856120ee565b9350612122818560208601611a89565b61212b8161177b565b840191505092915050565b5f60e0820190506121495f83018a611a47565b6121566020830189611a1f565b61216360408301886120a5565b61217060608301876120df565b61217d6080830186611a1f565b61218a60a0830185611a1f565b81810360c083015261219c81846120fe565b905098975050505050505050565b5f6121b482611929565b91506121bf83611929565b9250826121cf576121ce611d2c565b5b828206905092915050565b5f6121e482611929565b91506121ef83611929565b925082820390508181111561220757612206611cbe565b5b92915050565b5f819050919050565b5f61223061222b6122268461199a565b61220d565b61199a565b9050919050565b5f61224182612216565b9050919050565b5f61225282612237565b9050919050565b5f8160601b9050919050565b5f61226f82612259565b9050919050565b5f61228082612265565b9050919050565b61229861229382612248565b612276565b82525050565b5f819050919050565b6122b86122b382611929565b61229e565b82525050565b5f6122c98285612287565b6014820191506122d982846122a7565b6020820191508190509392505050565b5f6060820190506122fc5f830186611a47565b6123096020830185611a1f565b818103604083015261231b81846120fe565b9050949350505050565b7f756e61626c6520746f207472616e73666572416e6443616c6c20746f206f72615f8201527f636c650000000000000000000000000000000000000000000000000000000000602082015250565b5f61237f602383611a79565b915061238a82612325565b604082019050919050565b5f6020820190508181035f8301526123ac81612373565b9050919050565b5f8160011c9050919050565b5f808291508390505b6001851115612408578086048111156123e4576123e3611cbe565b5b60018516156123f35780820291505b8081029050612401856123b3565b94506123c8565b94509492505050565b5f8261242057600190506124db565b8161242d575f90506124db565b8160018114612443576002811461244d5761247c565b60019150506124db565b60ff84111561245f5761245e611cbe565b5b8360020a91508482111561247657612475611cbe565b5b506124db565b5060208310610133831016604e8410600b84101617156124b15782820a9050838111156124ac576124ab611cbe565b5b6124db565b6124be84848460016123bf565b925090508184048111156124d5576124d4611cbe565b5b81810290505b9392505050565b5f6124ec82611929565b91506124f783611929565b92506125247fffffffffffffffffffffffffffffffffffffffffffffffffffffffffffffffff8484612411565b90509291505056fe68747470733a2f2f70656163696f6170692e636f6d3a333030322f6765745277612f5b22636f6e74656e742d74797065222c20226170706c69636174696f6e2f6a736f6e225da2646970667358221220eba133876a36b8f2fa16c1a34e0b285e0ad539df67278e13aa872d55a989ffd564736f6c63430008180033",
			"opcodes": "PUSH1 0x80 PUSH1 0x40 MSTORE PUSH1 0x1 PUSH1 0x4 SSTORE CALLVALUE DUP1 ISZERO PUSH3 0x15 JUMPI PUSH0 DUP1 REVERT JUMPDEST POP CALLER DUP1 PUSH0 DUP1 PUSH20 0xFFFFFFFFFFFFFFFFFFFFFFFFFFFFFFFFFFFFFFFF AND DUP3 PUSH20 0xFFFFFFFFFFFFFFFFFFFFFFFFFFFFFFFFFFFFFFFF AND SUB PUSH3 0x8A JUMPI PUSH1 0x40 MLOAD PUSH32 0x8C379A000000000000000000000000000000000000000000000000000000000 DUP2 MSTORE PUSH1 0x4 ADD PUSH3 0x81 SWAP1 PUSH3 0x54B JUMP JUMPDEST PUSH1 0x40 MLOAD DUP1 SWAP2 SUB SWAP1 REVERT JUMPDEST DUP2 PUSH1 0x6 PUSH0 PUSH2 0x100 EXP DUP2 SLOAD DUP2 PUSH20 0xFFFFFFFFFFFFFFFFFFFFFFFFFFFFFFFFFFFFFFFF MUL NOT AND SWAP1 DUP4 PUSH20 0xFFFFFFFFFFFFFFFFFFFFFFFFFFFFFFFFFFFFFFFF AND MUL OR SWAP1 SSTORE POP PUSH0 PUSH20 0xFFFFFFFFFFFFFFFFFFFFFFFFFFFFFFFFFFFFFFFF AND DUP2 PUSH20 0xFFFFFFFFFFFFFFFFFFFFFFFFFFFFFFFFFFFFFFFF AND EQ PUSH3 0x110 JUMPI PUSH3 0x10F DUP2 PUSH3 0x1BA PUSH1 0x20 SHL PUSH1 0x20 SHR JUMP JUMPDEST JUMPDEST POP POP POP PUSH3 0x138 PUSH20 0x326C977E6EFC84E512BB9C30F76E30C160ED06FB PUSH3 0x2E9 PUSH1 0x20 SHL PUSH1 0x20 SHR JUMP JUMPDEST PUSH3 0x15D PUSH20 0x12A3D7759F745F4CB8EE8A647038C040CB8862A5 PUSH3 0x32C PUSH1 0x20 SHL PUSH1 0x20 SHR JUMP JUMPDEST PUSH3 0x1A3 PUSH1 0x40 MLOAD DUP1 PUSH1 0x40 ADD PUSH1 0x40 MSTORE DUP1 PUSH1 0x20 DUP2 MSTORE PUSH1 0x20 ADD PUSH32 0x6138333536663438353639633433346561613461633566636234646235636330 DUP2 MSTORE POP PUSH3 0x390 PUSH1 0x20 SHL PUSH1 0x20 SHR JUMP JUMPDEST PUSH3 0x1B4 PUSH0 PUSH3 0x3B5 PUSH1 0x20 SHL PUSH1 0x20 SHR JUMP JUMPDEST PUSH3 0x7DE JUMP JUMPDEST CALLER PUSH20 0xFFFFFFFFFFFFFFFFFFFFFFFFFFFFFFFFFFFFFFFF AND DUP2 PUSH20 0xFFFFFFFFFFFFFFFFFFFFFFFFFFFFFFFFFFFFFFFF AND SUB PUSH3 0x22B JUMPI PUSH1 0x40 MLOAD PUSH32 0x8C379A000000000000000000000000000000000000000000000000000000000 DUP2 MSTORE PUSH1 0x4 ADD PUSH3 0x222 SWAP1 PUSH3 0x5B9 JUMP JUMPDEST PUSH1 0x40 MLOAD DUP1 SWAP2 SUB SWAP1 REVERT JUMPDEST DUP1 PUSH1 0x7 PUSH0 PUSH2 0x100 EXP DUP2 SLOAD DUP2 PUSH20 0xFFFFFFFFFFFFFFFFFFFFFFFFFFFFFFFFFFFFFFFF MUL NOT AND SWAP1 DUP4 PUSH20 0xFFFFFFFFFFFFFFFFFFFFFFFFFFFFFFFFFFFFFFFF AND MUL OR SWAP1 SSTORE POP DUP1 PUSH20 0xFFFFFFFFFFFFFFFFFFFFFFFFFFFFFFFFFFFFFFFF AND PUSH1 0x6 PUSH0 SWAP1 SLOAD SWAP1 PUSH2 0x100 EXP SWAP1 DIV PUSH20 0xFFFFFFFFFFFFFFFFFFFFFFFFFFFFFFFFFFFFFFFF AND PUSH20 0xFFFFFFFFFFFFFFFFFFFFFFFFFFFFFFFFFFFFFFFF AND PUSH32 0xED8889F560326EB138920D842192F0EB3DD22B4F139C87A2C57538E05BAE1278 PUSH1 0x40 MLOAD PUSH1 0x40 MLOAD DUP1 SWAP2 SUB SWAP1 LOG3 POP JUMP JUMPDEST DUP1 PUSH1 0x2 PUSH0 PUSH2 0x100 EXP DUP2 SLOAD DUP2 PUSH20 0xFFFFFFFFFFFFFFFFFFFFFFFFFFFFFFFFFFFFFFFF MUL NOT AND SWAP1 DUP4 PUSH20 0xFFFFFFFFFFFFFFFFFFFFFFFFFFFFFFFFFFFFFFFF AND MUL OR SWAP1 SSTORE POP POP JUMP JUMPDEST PUSH3 0x33C PUSH3 0x3FC PUSH1 0x20 SHL PUSH1 0x20 SHR JUMP JUMPDEST DUP1 PUSH1 0x8 PUSH0 PUSH2 0x100 EXP DUP2 SLOAD DUP2 PUSH20 0xFFFFFFFFFFFFFFFFFFFFFFFFFFFFFFFFFFFFFFFF MUL NOT AND SWAP1 DUP4 PUSH20 0xFFFFFFFFFFFFFFFFFFFFFFFFFFFFFFFFFFFFFFFF AND MUL OR SWAP1 SSTORE POP PUSH3 0x38D DUP2 PUSH3 0x490 PUSH1 0x20 SHL PUSH1 0x20 SHR JUMP JUMPDEST POP JUMP JUMPDEST PUSH3 0x3A0 PUSH3 0x3FC PUSH1 0x20 SHL PUSH1 0x20 SHR JUMP JUMPDEST DUP1 PUSH3 0x3AC SWAP1 PUSH3 0x61D JUMP JUMPDEST PUSH1 0x9 DUP2 SWAP1 SSTORE POP POP JUMP JUMPDEST PUSH3 0x3C5 PUSH3 0x3FC PUSH1 0x20 SHL PUSH1 0x20 SHR JUMP JUMPDEST PUSH3 0x3F9 PUSH1 0x64 PUSH8 0xDE0B6B3A7640000 DUP4 PUSH3 0x3E1 SWAP2 SWAP1 PUSH3 0x6C2 JUMP JUMPDEST PUSH3 0x3ED SWAP2 SWAP1 PUSH3 0x739 JUMP JUMPDEST PUSH3 0x4D3 PUSH1 0x20 SHL PUSH1 0x20 SHR JUMP JUMPDEST POP JUMP JUMPDEST PUSH1 0x6 PUSH0 SWAP1 SLOAD SWAP1 PUSH2 0x100 EXP SWAP1 DIV PUSH20 0xFFFFFFFFFFFFFFFFFFFFFFFFFFFFFFFFFFFFFFFF AND PUSH20 0xFFFFFFFFFFFFFFFFFFFFFFFFFFFFFFFFFFFFFFFF AND CALLER PUSH20 0xFFFFFFFFFFFFFFFFFFFFFFFFFFFFFFFFFFFFFFFF AND EQ PUSH3 0x48E JUMPI PUSH1 0x40 MLOAD PUSH32 0x8C379A000000000000000000000000000000000000000000000000000000000 DUP2 MSTORE PUSH1 0x4 ADD PUSH3 0x485 SWAP1 PUSH3 0x7BE JUMP JUMPDEST PUSH1 0x40 MLOAD DUP1 SWAP2 SUB SWAP1 REVERT JUMPDEST JUMP JUMPDEST DUP1 PUSH1 0x3 PUSH0 PUSH2 0x100 EXP DUP2 SLOAD DUP2 PUSH20 0xFFFFFFFFFFFFFFFFFFFFFFFFFFFFFFFFFFFFFFFF MUL NOT AND SWAP1 DUP4 PUSH20 0xFFFFFFFFFFFFFFFFFFFFFFFFFFFFFFFFFFFFFFFF AND MUL OR SWAP1 SSTORE POP POP JUMP JUMPDEST PUSH3 0x4E3 PUSH3 0x3FC PUSH1 0x20 SHL PUSH1 0x20 SHR JUMP JUMPDEST DUP1 PUSH1 0xA DUP2 SWAP1 SSTORE POP POP JUMP JUMPDEST PUSH0 DUP3 DUP3 MSTORE PUSH1 0x20 DUP3 ADD SWAP1 POP SWAP3 SWAP2 POP POP JUMP JUMPDEST PUSH32 0x43616E6E6F7420736574206F776E657220746F207A65726F0000000000000000 PUSH0 DUP3 ADD MSTORE POP JUMP JUMPDEST PUSH0 PUSH3 0x533 PUSH1 0x18 DUP4 PUSH3 0x4ED JUMP JUMPDEST SWAP2 POP PUSH3 0x540 DUP3 PUSH3 0x4FD JUMP JUMPDEST PUSH1 0x20 DUP3 ADD SWAP1 POP SWAP2 SWAP1 POP JUMP JUMPDEST PUSH0 PUSH1 0x20 DUP3 ADD SWAP1 POP DUP2 DUP2 SUB PUSH0 DUP4 ADD MSTORE PUSH3 0x564 DUP2 PUSH3 0x525 JUMP JUMPDEST SWAP1 POP SWAP2 SWAP1 POP JUMP JUMPDEST PUSH32 0x43616E6E6F74207472616E7366657220746F2073656C66000000000000000000 PUSH0 DUP3 ADD MSTORE POP JUMP JUMPDEST PUSH0 PUSH3 0x5A1 PUSH1 0x17 DUP4 PUSH3 0x4ED JUMP JUMPDEST SWAP2 POP PUSH3 0x5AE DUP3 PUSH3 0x56B JUMP JUMPDEST PUSH1 0x20 DUP3 ADD SWAP1 POP SWAP2 SWAP1 POP JUMP JUMPDEST PUSH0 PUSH1 0x20 DUP3 ADD SWAP1 POP DUP2 DUP2 SUB PUSH0 DUP4 ADD MSTORE PUSH3 0x5D2 DUP2 PUSH3 0x593 JUMP JUMPDEST SWAP1 POP SWAP2 SWAP1 POP JUMP JUMPDEST PUSH0 DUP2 MLOAD SWAP1 POP SWAP2 SWAP1 POP JUMP JUMPDEST PUSH0 DUP2 SWAP1 POP PUSH1 0x20 DUP3 ADD SWAP1 POP SWAP2 SWAP1 POP JUMP JUMPDEST PUSH0 DUP2 SWAP1 POP SWAP2 SWAP1 POP JUMP JUMPDEST PUSH0 PUSH3 0x608 DUP3 MLOAD PUSH3 0x5F2 JUMP JUMPDEST DUP1 SWAP2 POP POP SWAP2 SWAP1 POP JUMP JUMPDEST PUSH0 DUP3 DUP3 SHL SWAP1 POP SWAP3 SWAP2 POP POP JUMP JUMPDEST PUSH0 PUSH3 0x629 DUP3 PUSH3 0x5D9 JUMP JUMPDEST DUP3 PUSH3 0x635 DUP5 PUSH3 0x5E3 JUMP JUMPDEST SWAP1 POP PUSH3 0x642 DUP2 PUSH3 0x5FB JUMP JUMPDEST SWAP3 POP PUSH1 0x20 DUP3 LT ISZERO PUSH3 0x685 JUMPI PUSH3 0x680 PUSH32 0xFFFFFFFFFFFFFFFFFFFFFFFFFFFFFFFFFFFFFFFFFFFFFFFFFFFFFFFFFFFFFFFF DUP4 PUSH1 0x20 SUB PUSH1 0x8 MUL PUSH3 0x611 JUMP JUMPDEST DUP4 AND SWAP3 POP JUMPDEST POP POP SWAP2 SWAP1 POP JUMP JUMPDEST PUSH0 DUP2 SWAP1 POP SWAP2 SWAP1 POP JUMP JUMPDEST PUSH32 0x4E487B7100000000000000000000000000000000000000000000000000000000 PUSH0 MSTORE PUSH1 0x11 PUSH1 0x4 MSTORE PUSH1 0x24 PUSH0 REVERT JUMPDEST PUSH0 PUSH3 0x6CE DUP3 PUSH3 0x68C JUMP JUMPDEST SWAP2 POP PUSH3 0x6DB DUP4 PUSH3 0x68C JUMP JUMPDEST SWAP3 POP DUP3 DUP3 MUL PUSH3 0x6EB DUP2 PUSH3 0x68C JUMP JUMPDEST SWAP2 POP DUP3 DUP3 DIV DUP5 EQ DUP4 ISZERO OR PUSH3 0x705 JUMPI PUSH3 0x704 PUSH3 0x695 JUMP JUMPDEST JUMPDEST POP SWAP3 SWAP2 POP POP JUMP JUMPDEST PUSH32 0x4E487B7100000000000000000000000000000000000000000000000000000000 PUSH0 MSTORE PUSH1 0x12 PUSH1 0x4 MSTORE PUSH1 0x24 PUSH0 REVERT JUMPDEST PUSH0 PUSH3 0x745 DUP3 PUSH3 0x68C JUMP JUMPDEST SWAP2 POP PUSH3 0x752 DUP4 PUSH3 0x68C JUMP JUMPDEST SWAP3 POP DUP3 PUSH3 0x765 JUMPI PUSH3 0x764 PUSH3 0x70C JUMP JUMPDEST JUMPDEST DUP3 DUP3 DIV SWAP1 POP SWAP3 SWAP2 POP POP JUMP JUMPDEST PUSH32 0x4F6E6C792063616C6C61626C65206279206F776E657200000000000000000000 PUSH0 DUP3 ADD MSTORE POP JUMP JUMPDEST PUSH0 PUSH3 0x7A6 PUSH1 0x16 DUP4 PUSH3 0x4ED JUMP JUMPDEST SWAP2 POP PUSH3 0x7B3 DUP3 PUSH3 0x770 JUMP JUMPDEST PUSH1 0x20 DUP3 ADD SWAP1 POP SWAP2 SWAP1 POP JUMP JUMPDEST PUSH0 PUSH1 0x20 DUP3 ADD SWAP1 POP DUP2 DUP2 SUB PUSH0 DUP4 ADD MSTORE PUSH3 0x7D7 DUP2 PUSH3 0x798 JUMP JUMPDEST SWAP1 POP SWAP2 SWAP1 POP JUMP JUMPDEST PUSH2 0x25A8 DUP1 PUSH3 0x7EC PUSH0 CODECOPY PUSH0 RETURN INVALID PUSH1 0x80 PUSH1 0x40 MSTORE CALLVALUE DUP1 ISZERO PUSH2 0xF JUMPI PUSH0 DUP1 REVERT JUMPDEST POP PUSH1 0x4 CALLDATASIZE LT PUSH2 0xE8 JUMPI PUSH0 CALLDATALOAD PUSH1 0xE0 SHR DUP1 PUSH4 0x8DA5CB5B GT PUSH2 0x8A JUMPI DUP1 PUSH4 0xB18B78DD GT PUSH2 0x64 JUMPI DUP1 PUSH4 0xB18B78DD EQ PUSH2 0x1E8 JUMPI DUP1 PUSH4 0xE3DA201D EQ PUSH2 0x206 JUMPI DUP1 PUSH4 0xF2FDE38B EQ PUSH2 0x222 JUMPI DUP1 PUSH4 0xF34473A5 EQ PUSH2 0x23E JUMPI PUSH2 0xE8 JUMP JUMPDEST DUP1 PUSH4 0x8DA5CB5B EQ PUSH2 0x1A2 JUMPI DUP1 PUSH4 0x8DC654A2 EQ PUSH2 0x1C0 JUMPI DUP1 PUSH4 0xB02F7FE0 EQ PUSH2 0x1CA JUMPI PUSH2 0xE8 JUMP JUMPDEST DUP1 PUSH4 0x4C69C00F GT PUSH2 0xC6 JUMPI DUP1 PUSH4 0x4C69C00F EQ PUSH2 0x140 JUMPI DUP1 PUSH4 0x56237682 EQ PUSH2 0x15C JUMPI DUP1 PUSH4 0x79BA5097 EQ PUSH2 0x17A JUMPI DUP1 PUSH4 0x7A7F01A7 EQ PUSH2 0x184 JUMPI PUSH2 0xE8 JUMP JUMPDEST DUP1 PUSH4 0x129FC1C0 EQ PUSH2 0xEC JUMPI DUP1 PUSH4 0x2C199889 EQ PUSH2 0x108 JUMPI DUP1 PUSH4 0x4357855E EQ PUSH2 0x124 JUMPI JUMPDEST PUSH0 DUP1 REVERT JUMPDEST PUSH2 0x106 PUSH1 0x4 DUP1 CALLDATASIZE SUB DUP2 ADD SWAP1 PUSH2 0x101 SWAP2 SWAP1 PUSH2 0x18AF JUMP JUMPDEST PUSH2 0x25A JUMP JUMPDEST STOP JUMPDEST PUSH2 0x122 PUSH1 0x4 DUP1 CALLDATASIZE SUB DUP2 ADD SWAP1 PUSH2 0x11D SWAP2 SWAP1 PUSH2 0x18AF JUMP JUMPDEST PUSH2 0x275 JUMP JUMPDEST STOP JUMPDEST PUSH2 0x13E PUSH1 0x4 DUP1 CALLDATASIZE SUB DUP2 ADD SWAP1 PUSH2 0x139 SWAP2 SWAP1 PUSH2 0x195C JUMP JUMPDEST PUSH2 0x58B JUMP JUMPDEST STOP JUMPDEST PUSH2 0x15A PUSH1 0x4 DUP1 CALLDATASIZE SUB DUP2 ADD SWAP1 PUSH2 0x155 SWAP2 SWAP1 PUSH2 0x19F4 JUMP JUMPDEST PUSH2 0x696 JUMP JUMPDEST STOP JUMPDEST PUSH2 0x164 PUSH2 0x6EA JUMP JUMPDEST PUSH1 0x40 MLOAD PUSH2 0x171 SWAP2 SWAP1 PUSH2 0x1A2E JUMP JUMPDEST PUSH1 0x40 MLOAD DUP1 SWAP2 SUB SWAP1 RETURN JUMPDEST PUSH2 0x182 PUSH2 0x71A JUMP JUMPDEST STOP JUMPDEST PUSH2 0x18C PUSH2 0x8AB JUMP JUMPDEST PUSH1 0x40 MLOAD PUSH2 0x199 SWAP2 SWAP1 PUSH2 0x1A2E JUMP JUMPDEST PUSH1 0x40 MLOAD DUP1 SWAP2 SUB SWAP1 RETURN JUMPDEST PUSH2 0x1AA PUSH2 0x8B1 JUMP JUMPDEST PUSH1 0x40 MLOAD PUSH2 0x1B7 SWAP2 SWAP1 PUSH2 0x1A56 JUMP JUMPDEST PUSH1 0x40 MLOAD DUP1 SWAP2 SUB SWAP1 RETURN JUMPDEST PUSH2 0x1C8 PUSH2 0x8D9 JUMP JUMPDEST STOP JUMPDEST PUSH2 0x1D2 PUSH2 0xA20 JUMP JUMPDEST PUSH1 0x40 MLOAD PUSH2 0x1DF SWAP2 SWAP1 PUSH2 0x1AE9 JUMP JUMPDEST PUSH1 0x40 MLOAD DUP1 SWAP2 SUB SWAP1 RETURN JUMPDEST PUSH2 0x1F0 PUSH2 0xA51 JUMP JUMPDEST PUSH1 0x40 MLOAD PUSH2 0x1FD SWAP2 SWAP1 PUSH2 0x1A56 JUMP JUMPDEST PUSH1 0x40 MLOAD DUP1 SWAP2 SUB SWAP1 RETURN JUMPDEST PUSH2 0x220 PUSH1 0x4 DUP1 CALLDATASIZE SUB DUP2 ADD SWAP1 PUSH2 0x21B SWAP2 SWAP1 PUSH2 0x1B09 JUMP JUMPDEST PUSH2 0xA81 JUMP JUMPDEST STOP JUMPDEST PUSH2 0x23C PUSH1 0x4 DUP1 CALLDATASIZE SUB DUP2 ADD SWAP1 PUSH2 0x237 SWAP2 SWAP1 PUSH2 0x19F4 JUMP JUMPDEST PUSH2 0xA93 JUMP JUMPDEST STOP JUMPDEST PUSH2 0x258 PUSH1 0x4 DUP1 CALLDATASIZE SUB DUP2 ADD SWAP1 PUSH2 0x253 SWAP2 SWAP1 PUSH2 0x1B09 JUMP JUMPDEST PUSH2 0xAA7 JUMP JUMPDEST STOP JUMPDEST PUSH2 0x262 PUSH2 0xADA JUMP JUMPDEST DUP1 PUSH2 0x26C SWAP1 PUSH2 0x1B6D JUMP JUMPDEST PUSH1 0x9 DUP2 SWAP1 SSTORE POP POP JUMP JUMPDEST PUSH0 PUSH2 0x289 PUSH1 0x9 SLOAD PUSH4 0x4357855E PUSH1 0xE0 SHL PUSH2 0xB6B JUMP JUMPDEST SWAP1 POP PUSH0 PUSH1 0x40 MLOAD DUP1 PUSH1 0x60 ADD PUSH1 0x40 MSTORE DUP1 PUSH1 0x22 DUP2 MSTORE PUSH1 0x20 ADD PUSH2 0x252D PUSH1 0x22 SWAP2 CODECOPY SWAP1 POP PUSH0 DUP2 DUP5 PUSH1 0x40 MLOAD PUSH1 0x20 ADD PUSH2 0x2BB SWAP3 SWAP2 SWAP1 PUSH2 0x1C0D JUMP JUMPDEST PUSH1 0x40 MLOAD PUSH1 0x20 DUP2 DUP4 SUB SUB DUP2 MSTORE SWAP1 PUSH1 0x40 MSTORE SWAP1 POP PUSH2 0x34B PUSH1 0x40 MLOAD DUP1 PUSH1 0x40 ADD PUSH1 0x40 MSTORE DUP1 PUSH1 0x6 DUP2 MSTORE PUSH1 0x20 ADD PUSH32 0x6D6574686F640000000000000000000000000000000000000000000000000000 DUP2 MSTORE POP PUSH1 0x40 MLOAD DUP1 PUSH1 0x40 ADD PUSH1 0x40 MSTORE DUP1 PUSH1 0x3 DUP2 MSTORE PUSH1 0x20 ADD PUSH32 0x4745540000000000000000000000000000000000000000000000000000000000 DUP2 MSTORE POP DUP6 PUSH2 0xB9B SWAP1 SWAP3 SWAP2 SWAP1 PUSH4 0xFFFFFFFF AND JUMP JUMPDEST PUSH2 0x395 PUSH1 0x40 MLOAD DUP1 PUSH1 0x40 ADD PUSH1 0x40 MSTORE DUP1 PUSH1 0x3 DUP2 MSTORE PUSH1 0x20 ADD PUSH32 0x75726C0000000000000000000000000000000000000000000000000000000000 DUP2 MSTORE POP DUP3 DUP6 PUSH2 0xB9B SWAP1 SWAP3 SWAP2 SWAP1 PUSH4 0xFFFFFFFF AND JUMP JUMPDEST PUSH2 0x3F7 PUSH1 0x40 MLOAD DUP1 PUSH1 0x40 ADD PUSH1 0x40 MSTORE DUP1 PUSH1 0x7 DUP2 MSTORE PUSH1 0x20 ADD PUSH32 0x6865616465727300000000000000000000000000000000000000000000000000 DUP2 MSTORE POP PUSH1 0x40 MLOAD DUP1 PUSH1 0x60 ADD PUSH1 0x40 MSTORE DUP1 PUSH1 0x24 DUP2 MSTORE PUSH1 0x20 ADD PUSH2 0x254F PUSH1 0x24 SWAP2 CODECOPY DUP6 PUSH2 0xB9B SWAP1 SWAP3 SWAP2 SWAP1 PUSH4 0xFFFFFFFF AND JUMP JUMPDEST PUSH2 0x44F PUSH1 0x40 MLOAD DUP1 PUSH1 0x40 ADD PUSH1 0x40 MSTORE DUP1 PUSH1 0x4 DUP2 MSTORE PUSH1 0x20 ADD PUSH32 0x626F647900000000000000000000000000000000000000000000000000000000 DUP2 MSTORE POP PUSH1 0x40 MLOAD DUP1 PUSH1 0x20 ADD PUSH1 0x40 MSTORE DUP1 PUSH0 DUP2 MSTORE POP DUP6 PUSH2 0xB9B SWAP1 SWAP3 SWAP2 SWAP1 PUSH4 0xFFFFFFFF AND JUMP JUMPDEST PUSH2 0x4A7 PUSH1 0x40 MLOAD DUP1 PUSH1 0x40 ADD PUSH1 0x40 MSTORE DUP1 PUSH1 0x7 DUP2 MSTORE PUSH1 0x20 ADD PUSH32 0x636F6E7461637400000000000000000000000000000000000000000000000000 DUP2 MSTORE POP PUSH1 0x40 MLOAD DUP1 PUSH1 0x20 ADD PUSH1 0x40 MSTORE DUP1 PUSH0 DUP2 MSTORE POP DUP6 PUSH2 0xB9B SWAP1 SWAP3 SWAP2 SWAP1 PUSH4 0xFFFFFFFF AND JUMP JUMPDEST PUSH2 0x526 PUSH1 0x40 MLOAD DUP1 PUSH1 0x40 ADD PUSH1 0x40 MSTORE DUP1 PUSH1 0x4 DUP2 MSTORE PUSH1 0x20 ADD PUSH32 0x7061746800000000000000000000000000000000000000000000000000000000 DUP2 MSTORE POP PUSH1 0x40 MLOAD DUP1 PUSH1 0x40 ADD PUSH1 0x40 MSTORE DUP1 PUSH1 0x8 DUP2 MSTORE PUSH1 0x20 ADD PUSH32 0x7277615072696365000000000000000000000000000000000000000000000000 DUP2 MSTORE POP DUP6 PUSH2 0xB9B SWAP1 SWAP3 SWAP2 SWAP1 PUSH4 0xFFFFFFFF AND JUMP JUMPDEST PUSH2 0x578 PUSH1 0x40 MLOAD DUP1 PUSH1 0x40 ADD PUSH1 0x40 MSTORE DUP1 PUSH1 0xA DUP2 MSTORE PUSH1 0x20 ADD PUSH32 0x6D756C7469706C69657200000000000000000000000000000000000000000000 DUP2 MSTORE POP PUSH8 0xDE0B6B3A7640000 DUP6 PUSH2 0xBCE SWAP1 SWAP3 SWAP2 SWAP1 PUSH4 0xFFFFFFFF AND JUMP JUMPDEST PUSH2 0x584 DUP4 PUSH1 0xA SLOAD PUSH2 0xC01 JUMP JUMPDEST POP POP POP POP POP JUMP JUMPDEST DUP2 PUSH1 0x5 PUSH0 DUP3 DUP2 MSTORE PUSH1 0x20 ADD SWAP1 DUP2 MSTORE PUSH1 0x20 ADD PUSH0 KECCAK256 PUSH0 SWAP1 SLOAD SWAP1 PUSH2 0x100 EXP SWAP1 DIV PUSH20 0xFFFFFFFFFFFFFFFFFFFFFFFFFFFFFFFFFFFFFFFF AND PUSH20 0xFFFFFFFFFFFFFFFFFFFFFFFFFFFFFFFFFFFFFFFF AND CALLER PUSH20 0xFFFFFFFFFFFFFFFFFFFFFFFFFFFFFFFFFFFFFFFF AND EQ PUSH2 0x62A JUMPI PUSH1 0x40 MLOAD PUSH32 0x8C379A000000000000000000000000000000000000000000000000000000000 DUP2 MSTORE PUSH1 0x4 ADD PUSH2 0x621 SWAP1 PUSH2 0x1CA0 JUMP JUMPDEST PUSH1 0x40 MLOAD DUP1 SWAP2 SUB SWAP1 REVERT JUMPDEST PUSH1 0x5 PUSH0 DUP3 DUP2 MSTORE PUSH1 0x20 ADD SWAP1 DUP2 MSTORE PUSH1 0x20 ADD PUSH0 KECCAK256 PUSH0 PUSH2 0x100 EXP DUP2 SLOAD SWAP1 PUSH20 0xFFFFFFFFFFFFFFFFFFFFFFFFFFFFFFFFFFFFFFFF MUL NOT AND SWAP1 SSTORE DUP1 PUSH32 0x7CC135E0CEBB02C3480AE5D74D377283180A2601F8F644EDF7987B009316C63A PUSH1 0x40 MLOAD PUSH1 0x40 MLOAD DUP1 SWAP2 SUB SWAP1 LOG2 DUP2 PUSH1 0xB DUP2 SWAP1 SSTORE POP POP POP POP JUMP JUMPDEST PUSH2 0x69E PUSH2 0xADA JUMP JUMPDEST DUP1 PUSH1 0x8 PUSH0 PUSH2 0x100 EXP DUP2 SLOAD DUP2 PUSH20 0xFFFFFFFFFFFFFFFFFFFFFFFFFFFFFFFFFFFFFFFF MUL NOT AND SWAP1 DUP4 PUSH20 0xFFFFFFFFFFFFFFFFFFFFFFFFFFFFFFFFFFFFFFFF AND MUL OR SWAP1 SSTORE POP PUSH2 0x6E7 DUP2 PUSH2 0xC36 JUMP JUMPDEST POP JUMP JUMPDEST PUSH0 PUSH2 0x6F3 PUSH2 0xADA JUMP JUMPDEST PUSH8 0xDE0B6B3A7640000 PUSH1 0x64 PUSH1 0xA SLOAD PUSH2 0x70B SWAP2 SWAP1 PUSH2 0x1CEB JUMP JUMPDEST PUSH2 0x715 SWAP2 SWAP1 PUSH2 0x1D59 JUMP JUMPDEST SWAP1 POP SWAP1 JUMP JUMPDEST PUSH1 0x7 PUSH0 SWAP1 SLOAD SWAP1 PUSH2 0x100 EXP SWAP1 DIV PUSH20 0xFFFFFFFFFFFFFFFFFFFFFFFFFFFFFFFFFFFFFFFF AND PUSH20 0xFFFFFFFFFFFFFFFFFFFFFFFFFFFFFFFFFFFFFFFF AND CALLER PUSH20 0xFFFFFFFFFFFFFFFFFFFFFFFFFFFFFFFFFFFFFFFF AND EQ PUSH2 0x7A9 JUMPI PUSH1 0x40 MLOAD PUSH32 0x8C379A000000000000000000000000000000000000000000000000000000000 DUP2 MSTORE PUSH1 0x4 ADD PUSH2 0x7A0 SWAP1 PUSH2 0x1DD3 JUMP JUMPDEST PUSH1 0x40 MLOAD DUP1 SWAP2 SUB SWAP1 REVERT JUMPDEST PUSH0 PUSH1 0x6 PUSH0 SWAP1 SLOAD SWAP1 PUSH2 0x100 EXP SWAP1 DIV PUSH20 0xFFFFFFFFFFFFFFFFFFFFFFFFFFFFFFFFFFFFFFFF AND SWAP1 POP CALLER PUSH1 0x6 PUSH0 PUSH2 0x100 EXP DUP2 SLOAD DUP2 PUSH20 0xFFFFFFFFFFFFFFFFFFFFFFFFFFFFFFFFFFFFFFFF MUL NOT AND SWAP1 DUP4 PUSH20 0xFFFFFFFFFFFFFFFFFFFFFFFFFFFFFFFFFFFFFFFF AND MUL OR SWAP1 SSTORE POP PUSH0 PUSH1 0x7 PUSH0 PUSH2 0x100 EXP DUP2 SLOAD DUP2 PUSH20 0xFFFFFFFFFFFFFFFFFFFFFFFFFFFFFFFFFFFFFFFF MUL NOT AND SWAP1 DUP4 PUSH20 0xFFFFFFFFFFFFFFFFFFFFFFFFFFFFFFFFFFFFFFFF AND MUL OR SWAP1 SSTORE POP CALLER PUSH20 0xFFFFFFFFFFFFFFFFFFFFFFFFFFFFFFFFFFFFFFFF AND DUP2 PUSH20 0xFFFFFFFFFFFFFFFFFFFFFFFFFFFFFFFFFFFFFFFF AND PUSH32 0x8BE0079C531659141344CD1FD0A4F28419497F9722A3DAAFE3B4186F6B6457E0 PUSH1 0x40 MLOAD PUSH1 0x40 MLOAD DUP1 SWAP2 SUB SWAP1 LOG3 POP JUMP JUMPDEST PUSH1 0xB SLOAD DUP2 JUMP JUMPDEST PUSH0 PUSH1 0x6 PUSH0 SWAP1 SLOAD SWAP1 PUSH2 0x100 EXP SWAP1 DIV PUSH20 0xFFFFFFFFFFFFFFFFFFFFFFFFFFFFFFFFFFFFFFFF AND SWAP1 POP SWAP1 JUMP JUMPDEST PUSH2 0x8E1 PUSH2 0xADA JUMP JUMPDEST PUSH0 PUSH2 0x8EA PUSH2 0xC79 JUMP JUMPDEST SWAP1 POP DUP1 PUSH20 0xFFFFFFFFFFFFFFFFFFFFFFFFFFFFFFFFFFFFFFFF AND PUSH4 0xA9059CBB CALLER DUP4 PUSH20 0xFFFFFFFFFFFFFFFFFFFFFFFFFFFFFFFFFFFFFFFF AND PUSH4 0x70A08231 ADDRESS PUSH1 0x40 MLOAD DUP3 PUSH4 0xFFFFFFFF AND PUSH1 0xE0 SHL DUP2 MSTORE PUSH1 0x4 ADD PUSH2 0x942 SWAP2 SWAP1 PUSH2 0x1A56 JUMP JUMPDEST PUSH1 0x20 PUSH1 0x40 MLOAD DUP1 DUP4 SUB DUP2 DUP7 GAS STATICCALL ISZERO DUP1 ISZERO PUSH2 0x95D JUMPI RETURNDATASIZE PUSH0 DUP1 RETURNDATACOPY RETURNDATASIZE PUSH0 REVERT JUMPDEST POP POP POP POP PUSH1 0x40 MLOAD RETURNDATASIZE PUSH1 0x1F NOT PUSH1 0x1F DUP3 ADD AND DUP3 ADD DUP1 PUSH1 0x40 MSTORE POP DUP2 ADD SWAP1 PUSH2 0x981 SWAP2 SWAP1 PUSH2 0x1E05 JUMP JUMPDEST PUSH1 0x40 MLOAD DUP4 PUSH4 0xFFFFFFFF AND PUSH1 0xE0 SHL DUP2 MSTORE PUSH1 0x4 ADD PUSH2 0x99E SWAP3 SWAP2 SWAP1 PUSH2 0x1E30 JUMP JUMPDEST PUSH1 0x20 PUSH1 0x40 MLOAD DUP1 DUP4 SUB DUP2 PUSH0 DUP8 GAS CALL ISZERO DUP1 ISZERO PUSH2 0x9BA JUMPI RETURNDATASIZE PUSH0 DUP1 RETURNDATACOPY RETURNDATASIZE PUSH0 REVERT JUMPDEST POP POP POP POP PUSH1 0x40 MLOAD RETURNDATASIZE PUSH1 0x1F NOT PUSH1 0x1F DUP3 ADD AND DUP3 ADD DUP1 PUSH1 0x40 MSTORE POP DUP2 ADD SWAP1 PUSH2 0x9DE SWAP2 SWAP1 PUSH2 0x1E8C JUMP JUMPDEST PUSH2 0xA1D JUMPI PUSH1 0x40 MLOAD PUSH32 0x8C379A000000000000000000000000000000000000000000000000000000000 DUP2 MSTORE PUSH1 0x4 ADD PUSH2 0xA14 SWAP1 PUSH2 0x1F01 JUMP JUMPDEST PUSH1 0x40 MLOAD DUP1 SWAP2 SUB SWAP1 REVERT JUMPDEST POP JUMP JUMPDEST PUSH1 0x60 PUSH2 0xA2A PUSH2 0xADA JUMP JUMPDEST PUSH1 0x9 SLOAD PUSH1 0x40 MLOAD PUSH1 0x20 ADD PUSH2 0xA3D SWAP2 SWAP1 PUSH2 0x1F3F JUMP JUMPDEST PUSH1 0x40 MLOAD PUSH1 0x20 DUP2 DUP4 SUB SUB DUP2 MSTORE SWAP1 PUSH1 0x40 MSTORE SWAP1 POP SWAP1 JUMP JUMPDEST PUSH0 PUSH2 0xA5A PUSH2 0xADA JUMP JUMPDEST PUSH1 0x8 PUSH0 SWAP1 SLOAD SWAP1 PUSH2 0x100 EXP SWAP1 DIV PUSH20 0xFFFFFFFFFFFFFFFFFFFFFFFFFFFFFFFFFFFFFFFF AND SWAP1 POP SWAP1 JUMP JUMPDEST PUSH2 0xA89 PUSH2 0xADA JUMP JUMPDEST DUP1 PUSH1 0xA DUP2 SWAP1 SSTORE POP POP JUMP JUMPDEST PUSH2 0xA9B PUSH2 0xADA JUMP JUMPDEST PUSH2 0xAA4 DUP2 PUSH2 0xCA1 JUMP JUMPDEST POP JUMP JUMPDEST PUSH2 0xAAF PUSH2 0xADA JUMP JUMPDEST PUSH2 0xAD7 PUSH1 0x64 PUSH8 0xDE0B6B3A7640000 DUP4 PUSH2 0xAC8 SWAP2 SWAP1 PUSH2 0x1CEB JUMP JUMPDEST PUSH2 0xAD2 SWAP2 SWAP1 PUSH2 0x1D59 JUMP JUMPDEST PUSH2 0xA81 JUMP JUMPDEST POP JUMP JUMPDEST PUSH1 0x6 PUSH0 SWAP1 SLOAD SWAP1 PUSH2 0x100 EXP SWAP1 DIV PUSH20 0xFFFFFFFFFFFFFFFFFFFFFFFFFFFFFFFFFFFFFFFF AND PUSH20 0xFFFFFFFFFFFFFFFFFFFFFFFFFFFFFFFFFFFFFFFF AND CALLER PUSH20 0xFFFFFFFFFFFFFFFFFFFFFFFFFFFFFFFFFFFFFFFF AND EQ PUSH2 0xB69 JUMPI PUSH1 0x40 MLOAD PUSH32 0x8C379A000000000000000000000000000000000000000000000000000000000 DUP2 MSTORE PUSH1 0x4 ADD PUSH2 0xB60 SWAP1 PUSH2 0x1FA3 JUMP JUMPDEST PUSH1 0x40 MLOAD DUP1 SWAP2 SUB SWAP1 REVERT JUMPDEST JUMP JUMPDEST PUSH2 0xB73 PUSH2 0x16E0 JUMP JUMPDEST PUSH2 0xB7B PUSH2 0x16E0 JUMP JUMPDEST PUSH2 0xB92 DUP5 ADDRESS DUP6 DUP5 PUSH2 0xDCD SWAP1 SWAP4 SWAP3 SWAP2 SWAP1 PUSH4 0xFFFFFFFF AND JUMP JUMPDEST SWAP2 POP POP SWAP3 SWAP2 POP POP JUMP JUMPDEST PUSH2 0xBB2 DUP3 DUP5 PUSH1 0x80 ADD MLOAD PUSH2 0xE7C SWAP1 SWAP2 SWAP1 PUSH4 0xFFFFFFFF AND JUMP JUMPDEST PUSH2 0xBC9 DUP2 DUP5 PUSH1 0x80 ADD MLOAD PUSH2 0xE7C SWAP1 SWAP2 SWAP1 PUSH4 0xFFFFFFFF AND JUMP JUMPDEST POP POP POP JUMP JUMPDEST PUSH2 0xBE5 DUP3 DUP5 PUSH1 0x80 ADD MLOAD PUSH2 0xE7C SWAP1 SWAP2 SWAP1 PUSH4 0xFFFFFFFF AND JUMP JUMPDEST PUSH2 0xBFC DUP2 DUP5 PUSH1 0x80 ADD MLOAD PUSH2 0xEA1 SWAP1 SWAP2 SWAP1 PUSH4 0xFFFFFFFF AND JUMP JUMPDEST POP POP POP JUMP JUMPDEST PUSH0 PUSH2 0xC2E PUSH1 0x3 PUSH0 SWAP1 SLOAD SWAP1 PUSH2 0x100 EXP SWAP1 DIV PUSH20 0xFFFFFFFFFFFFFFFFFFFFFFFFFFFFFFFFFFFFFFFF AND DUP5 DUP5 PUSH2 0xF4C JUMP JUMPDEST SWAP1 POP SWAP3 SWAP2 POP POP JUMP JUMPDEST DUP1 PUSH1 0x3 PUSH0 PUSH2 0x100 EXP DUP2 SLOAD DUP2 PUSH20 0xFFFFFFFFFFFFFFFFFFFFFFFFFFFFFFFFFFFFFFFF MUL NOT AND SWAP1 DUP4 PUSH20 0xFFFFFFFFFFFFFFFFFFFFFFFFFFFFFFFFFFFFFFFF AND MUL OR SWAP1 SSTORE POP POP JUMP JUMPDEST PUSH0 PUSH1 0x2 PUSH0 SWAP1 SLOAD SWAP1 PUSH2 0x100 EXP SWAP1 DIV PUSH20 0xFFFFFFFFFFFFFFFFFFFFFFFFFFFFFFFFFFFFFFFF AND SWAP1 POP SWAP1 JUMP JUMPDEST CALLER PUSH20 0xFFFFFFFFFFFFFFFFFFFFFFFFFFFFFFFFFFFFFFFF AND DUP2 PUSH20 0xFFFFFFFFFFFFFFFFFFFFFFFFFFFFFFFFFFFFFFFF AND SUB PUSH2 0xD0F JUMPI PUSH1 0x40 MLOAD PUSH32 0x8C379A000000000000000000000000000000000000000000000000000000000 DUP2 MSTORE PUSH1 0x4 ADD PUSH2 0xD06 SWAP1 PUSH2 0x200B JUMP JUMPDEST PUSH1 0x40 MLOAD DUP1 SWAP2 SUB SWAP1 REVERT JUMPDEST DUP1 PUSH1 0x7 PUSH0 PUSH2 0x100 EXP DUP2 SLOAD DUP2 PUSH20 0xFFFFFFFFFFFFFFFFFFFFFFFFFFFFFFFFFFFFFFFF MUL NOT AND SWAP1 DUP4 PUSH20 0xFFFFFFFFFFFFFFFFFFFFFFFFFFFFFFFFFFFFFFFF AND MUL OR SWAP1 SSTORE POP DUP1 PUSH20 0xFFFFFFFFFFFFFFFFFFFFFFFFFFFFFFFFFFFFFFFF AND PUSH1 0x6 PUSH0 SWAP1 SLOAD SWAP1 PUSH2 0x100 EXP SWAP1 DIV PUSH20 0xFFFFFFFFFFFFFFFFFFFFFFFFFFFFFFFFFFFFFFFF AND PUSH20 0xFFFFFFFFFFFFFFFFFFFFFFFFFFFFFFFFFFFFFFFF AND PUSH32 0xED8889F560326EB138920D842192F0EB3DD22B4F139C87A2C57538E05BAE1278 PUSH1 0x40 MLOAD PUSH1 0x40 MLOAD DUP1 SWAP2 SUB SWAP1 LOG3 POP JUMP JUMPDEST PUSH2 0xDD5 PUSH2 0x16E0 JUMP JUMPDEST PUSH2 0xDE5 DUP6 PUSH1 0x80 ADD MLOAD PUSH2 0x100 PUSH2 0x1011 JUMP JUMPDEST POP DUP4 DUP6 PUSH0 ADD DUP2 DUP2 MSTORE POP POP DUP3 DUP6 PUSH1 0x20 ADD SWAP1 PUSH20 0xFFFFFFFFFFFFFFFFFFFFFFFFFFFFFFFFFFFFFFFF AND SWAP1 DUP2 PUSH20 0xFFFFFFFFFFFFFFFFFFFFFFFFFFFFFFFFFFFFFFFF AND DUP2 MSTORE POP POP DUP2 DUP6 PUSH1 0x40 ADD SWAP1 PUSH28 0xFFFFFFFFFFFFFFFFFFFFFFFFFFFFFFFFFFFFFFFFFFFFFFFFFFFFFFFF NOT AND SWAP1 DUP2 PUSH28 0xFFFFFFFFFFFFFFFFFFFFFFFFFFFFFFFFFFFFFFFFFFFFFFFFFFFFFFFF NOT AND DUP2 MSTORE POP POP DUP5 SWAP1 POP SWAP5 SWAP4 POP POP POP POP JUMP JUMPDEST PUSH2 0xE89 DUP3 PUSH1 0x3 DUP4 MLOAD PUSH2 0x1079 JUMP JUMPDEST PUSH2 0xE9C DUP2 DUP4 PUSH2 0x11FE SWAP1 SWAP2 SWAP1 PUSH4 0xFFFFFFFF AND JUMP JUMPDEST POP POP POP JUMP JUMPDEST PUSH32 0xFFFFFFFFFFFFFFFFFFFFFFFFFFFFFFFFFFFFFFFFFFFFFFFF0000000000000000 DUP2 SLT ISZERO PUSH2 0xED8 JUMPI PUSH2 0xED3 DUP3 DUP3 PUSH2 0x121F JUMP JUMPDEST PUSH2 0xF48 JUMP JUMPDEST PUSH8 0xFFFFFFFFFFFFFFFF DUP2 SGT ISZERO PUSH2 0xEF7 JUMPI PUSH2 0xEF2 DUP3 DUP3 PUSH2 0x1296 JUMP JUMPDEST PUSH2 0xF47 JUMP JUMPDEST PUSH0 DUP2 SLT PUSH2 0xF0E JUMPI PUSH2 0xF09 DUP3 PUSH0 DUP4 PUSH2 0x1079 JUMP JUMPDEST PUSH2 0xF46 JUMP JUMPDEST PUSH2 0xF45 DUP3 PUSH1 0x1 DUP4 PUSH32 0xFFFFFFFFFFFFFFFFFFFFFFFFFFFFFFFFFFFFFFFFFFFFFFFFFFFFFFFFFFFFFFFF PUSH2 0xF40 SWAP2 SWAP1 PUSH2 0x2032 JUMP JUMPDEST PUSH2 0x1079 JUMP JUMPDEST JUMPDEST JUMPDEST JUMPDEST POP POP JUMP JUMPDEST PUSH0 DUP1 PUSH1 0x4 SLOAD SWAP1 POP PUSH1 0x1 DUP2 PUSH2 0xF60 SWAP2 SWAP1 PUSH2 0x2072 JUMP JUMPDEST PUSH1 0x4 DUP2 SWAP1 SSTORE POP PUSH0 PUSH4 0x3C6D41B9 PUSH1 0xE0 SHL PUSH0 DUP1 DUP8 PUSH0 ADD MLOAD DUP9 PUSH1 0x40 ADD MLOAD DUP7 PUSH1 0x2 DUP12 PUSH1 0x80 ADD MLOAD PUSH0 ADD MLOAD PUSH1 0x40 MLOAD PUSH1 0x24 ADD PUSH2 0xF9B SWAP8 SWAP7 SWAP6 SWAP5 SWAP4 SWAP3 SWAP2 SWAP1 PUSH2 0x2136 JUMP JUMPDEST PUSH1 0x40 MLOAD PUSH1 0x20 DUP2 DUP4 SUB SUB DUP2 MSTORE SWAP1 PUSH1 0x40 MSTORE SWAP1 PUSH28 0xFFFFFFFFFFFFFFFFFFFFFFFFFFFFFFFFFFFFFFFFFFFFFFFFFFFFFFFF NOT AND PUSH1 0x20 DUP3 ADD DUP1 MLOAD PUSH28 0xFFFFFFFFFFFFFFFFFFFFFFFFFFFFFFFFFFFFFFFFFFFFFFFFFFFFFFFF DUP4 DUP2 DUP4 AND OR DUP4 MSTORE POP POP POP POP SWAP1 POP PUSH2 0x1006 DUP7 DUP4 DUP7 DUP5 PUSH2 0x12E2 JUMP JUMPDEST SWAP3 POP POP POP SWAP4 SWAP3 POP POP POP JUMP JUMPDEST PUSH2 0x1019 PUSH2 0x1749 JUMP JUMPDEST PUSH0 PUSH1 0x20 DUP4 PUSH2 0x1027 SWAP2 SWAP1 PUSH2 0x21AA JUMP JUMPDEST EQ PUSH2 0x1053 JUMPI PUSH1 0x20 DUP3 PUSH2 0x1039 SWAP2 SWAP1 PUSH2 0x21AA JUMP JUMPDEST PUSH1 0x20 PUSH2 0x1045 SWAP2 SWAP1 PUSH2 0x21DA JUMP JUMPDEST DUP3 PUSH2 0x1050 SWAP2 SWAP1 PUSH2 0x2072 JUMP JUMPDEST SWAP2 POP JUMPDEST DUP2 DUP4 PUSH1 0x20 ADD DUP2 DUP2 MSTORE POP POP PUSH1 0x40 MLOAD DUP1 DUP5 MSTORE PUSH0 DUP2 MSTORE DUP3 DUP2 ADD PUSH1 0x20 ADD PUSH1 0x40 MSTORE POP DUP3 SWAP1 POP SWAP3 SWAP2 POP POP JUMP JUMPDEST PUSH1 0x17 DUP2 PUSH8 0xFFFFFFFFFFFFFFFF AND GT PUSH2 0x10B0 JUMPI PUSH2 0x10AA DUP2 PUSH1 0x5 DUP5 PUSH1 0xFF AND SWAP1 SHL PUSH1 0xFF AND OR DUP5 PUSH2 0x146F SWAP1 SWAP2 SWAP1 PUSH4 0xFFFFFFFF AND JUMP JUMPDEST POP PUSH2 0x11F9 JUMP JUMPDEST PUSH1 0xFF DUP2 PUSH8 0xFFFFFFFFFFFFFFFF AND GT PUSH2 0x1106 JUMPI PUSH2 0x10DF PUSH1 0x18 PUSH1 0x5 DUP5 PUSH1 0xFF AND SWAP1 SHL OR DUP5 PUSH2 0x146F SWAP1 SWAP2 SWAP1 PUSH4 0xFFFFFFFF AND JUMP JUMPDEST POP PUSH2 0x1100 DUP2 PUSH8 0xFFFFFFFFFFFFFFFF AND PUSH1 0x1 DUP6 PUSH2 0x148E SWAP1 SWAP3 SWAP2 SWAP1 PUSH4 0xFFFFFFFF AND JUMP JUMPDEST POP PUSH2 0x11F8 JUMP JUMPDEST PUSH2 0xFFFF DUP2 PUSH8 0xFFFFFFFFFFFFFFFF AND GT PUSH2 0x115D JUMPI PUSH2 0x1136 PUSH1 0x19 PUSH1 0x5 DUP5 PUSH1 0xFF AND SWAP1 SHL OR DUP5 PUSH2 0x146F SWAP1 SWAP2 SWAP1 PUSH4 0xFFFFFFFF AND JUMP JUMPDEST POP PUSH2 0x1157 DUP2 PUSH8 0xFFFFFFFFFFFFFFFF AND PUSH1 0x2 DUP6 PUSH2 0x148E SWAP1 SWAP3 SWAP2 SWAP1 PUSH4 0xFFFFFFFF AND JUMP JUMPDEST POP PUSH2 0x11F7 JUMP JUMPDEST PUSH4 0xFFFFFFFF DUP2 PUSH8 0xFFFFFFFFFFFFFFFF AND GT PUSH2 0x11B6 JUMPI PUSH2 0x118F PUSH1 0x1A PUSH1 0x5 DUP5 PUSH1 0xFF AND SWAP1 SHL OR DUP5 PUSH2 0x146F SWAP1 SWAP2 SWAP1 PUSH4 0xFFFFFFFF AND JUMP JUMPDEST POP PUSH2 0x11B0 DUP2 PUSH8 0xFFFFFFFFFFFFFFFF AND PUSH1 0x4 DUP6 PUSH2 0x148E SWAP1 SWAP3 SWAP2 SWAP1 PUSH4 0xFFFFFFFF AND JUMP JUMPDEST POP PUSH2 0x11F6 JUMP JUMPDEST PUSH2 0x11D3 PUSH1 0x1B PUSH1 0x5 DUP5 PUSH1 0xFF AND SWAP1 SHL OR DUP5 PUSH2 0x146F SWAP1 SWAP2 SWAP1 PUSH4 0xFFFFFFFF AND JUMP JUMPDEST POP PUSH2 0x11F4 DUP2 PUSH8 0xFFFFFFFFFFFFFFFF AND PUSH1 0x8 DUP6 PUSH2 0x148E SWAP1 SWAP3 SWAP2 SWAP1 PUSH4 0xFFFFFFFF AND JUMP JUMPDEST POP JUMPDEST JUMPDEST JUMPDEST JUMPDEST POP POP POP JUMP JUMPDEST PUSH2 0x1206 PUSH2 0x1749 JUMP JUMPDEST PUSH2 0x1217 DUP4 DUP5 PUSH0 ADD MLOAD MLOAD DUP5 DUP6 MLOAD PUSH2 0x14AF JUMP JUMPDEST SWAP1 POP SWAP3 SWAP2 POP POP JUMP JUMPDEST PUSH2 0x123D PUSH1 0x3 PUSH1 0x5 PUSH1 0x6 PUSH1 0xFF AND SWAP1 SHL OR DUP4 PUSH2 0x146F SWAP1 SWAP2 SWAP1 PUSH4 0xFFFFFFFF AND JUMP JUMPDEST POP PUSH2 0x1292 DUP3 DUP3 PUSH32 0xFFFFFFFFFFFFFFFFFFFFFFFFFFFFFFFFFFFFFFFFFFFFFFFFFFFFFFFFFFFFFFFF PUSH2 0x126E SWAP2 SWAP1 PUSH2 0x2032 JUMP JUMPDEST PUSH1 0x40 MLOAD PUSH1 0x20 ADD PUSH2 0x127E SWAP2 SWAP1 PUSH2 0x1A2E JUMP JUMPDEST PUSH1 0x40 MLOAD PUSH1 0x20 DUP2 DUP4 SUB SUB DUP2 MSTORE SWAP1 PUSH1 0x40 MSTORE PUSH2 0x159B JUMP JUMPDEST POP POP JUMP JUMPDEST PUSH2 0x12B4 PUSH1 0x2 PUSH1 0x5 PUSH1 0x6 PUSH1 0xFF AND SWAP1 SHL OR DUP4 PUSH2 0x146F SWAP1 SWAP2 SWAP1 PUSH4 0xFFFFFFFF AND JUMP JUMPDEST POP PUSH2 0x12DE DUP3 DUP3 PUSH1 0x40 MLOAD PUSH1 0x20 ADD PUSH2 0x12CA SWAP2 SWAP1 PUSH2 0x1A2E JUMP JUMPDEST PUSH1 0x40 MLOAD PUSH1 0x20 DUP2 DUP4 SUB SUB DUP2 MSTORE SWAP1 PUSH1 0x40 MSTORE PUSH2 0x159B JUMP JUMPDEST POP POP JUMP JUMPDEST PUSH0 ADDRESS DUP5 PUSH1 0x40 MLOAD PUSH1 0x20 ADD PUSH2 0x12F6 SWAP3 SWAP2 SWAP1 PUSH2 0x22BE JUMP JUMPDEST PUSH1 0x40 MLOAD PUSH1 0x20 DUP2 DUP4 SUB SUB DUP2 MSTORE SWAP1 PUSH1 0x40 MSTORE DUP1 MLOAD SWAP1 PUSH1 0x20 ADD KECCAK256 SWAP1 POP DUP5 PUSH1 0x5 PUSH0 DUP4 DUP2 MSTORE PUSH1 0x20 ADD SWAP1 DUP2 MSTORE PUSH1 0x20 ADD PUSH0 KECCAK256 PUSH0 PUSH2 0x100 EXP DUP2 SLOAD DUP2 PUSH20 0xFFFFFFFFFFFFFFFFFFFFFFFFFFFFFFFFFFFFFFFF MUL NOT AND SWAP1 DUP4 PUSH20 0xFFFFFFFFFFFFFFFFFFFFFFFFFFFFFFFFFFFFFFFF AND MUL OR SWAP1 SSTORE POP DUP1 PUSH32 0xB5E6E01E79F91267DC17B4E6314D5D4D03593D2CEEE0FBB452B750BD70EA5AF9 PUSH1 0x40 MLOAD PUSH1 0x40 MLOAD DUP1 SWAP2 SUB SWAP1 LOG2 PUSH1 0x2 PUSH0 SWAP1 SLOAD SWAP1 PUSH2 0x100 EXP SWAP1 DIV PUSH20 0xFFFFFFFFFFFFFFFFFFFFFFFFFFFFFFFFFFFFFFFF AND PUSH20 0xFFFFFFFFFFFFFFFFFFFFFFFFFFFFFFFFFFFFFFFF AND PUSH4 0x4000AEA0 DUP7 DUP6 DUP6 PUSH1 0x40 MLOAD DUP5 PUSH4 0xFFFFFFFF AND PUSH1 0xE0 SHL DUP2 MSTORE PUSH1 0x4 ADD PUSH2 0x13E8 SWAP4 SWAP3 SWAP2 SWAP1 PUSH2 0x22E9 JUMP JUMPDEST PUSH1 0x20 PUSH1 0x40 MLOAD DUP1 DUP4 SUB DUP2 PUSH0 DUP8 GAS CALL ISZERO DUP1 ISZERO PUSH2 0x1404 JUMPI RETURNDATASIZE PUSH0 DUP1 RETURNDATACOPY RETURNDATASIZE PUSH0 REVERT JUMPDEST POP POP POP POP PUSH1 0x40 MLOAD RETURNDATASIZE PUSH1 0x1F NOT PUSH1 0x1F DUP3 ADD AND DUP3 ADD DUP1 PUSH1 0x40 MSTORE POP DUP2 ADD SWAP1 PUSH2 0x1428 SWAP2 SWAP1 PUSH2 0x1E8C JUMP JUMPDEST PUSH2 0x1467 JUMPI PUSH1 0x40 MLOAD PUSH32 0x8C379A000000000000000000000000000000000000000000000000000000000 DUP2 MSTORE PUSH1 0x4 ADD PUSH2 0x145E SWAP1 PUSH2 0x2395 JUMP JUMPDEST PUSH1 0x40 MLOAD DUP1 SWAP2 SUB SWAP1 REVERT JUMPDEST SWAP5 SWAP4 POP POP POP POP JUMP JUMPDEST PUSH2 0x1477 PUSH2 0x1749 JUMP JUMPDEST PUSH2 0x1486 DUP4 DUP5 PUSH0 ADD MLOAD MLOAD DUP5 PUSH2 0x15C0 JUMP JUMPDEST SWAP1 POP SWAP3 SWAP2 POP POP JUMP JUMPDEST PUSH2 0x1496 PUSH2 0x1749 JUMP JUMPDEST PUSH2 0x14A6 DUP5 DUP6 PUSH0 ADD MLOAD MLOAD DUP6 DUP6 PUSH2 0x1616 JUMP JUMPDEST SWAP1 POP SWAP4 SWAP3 POP POP POP JUMP JUMPDEST PUSH2 0x14B7 PUSH2 0x1749 JUMP JUMPDEST DUP3 MLOAD DUP3 GT ISZERO PUSH2 0x14C4 JUMPI PUSH0 DUP1 REVERT JUMPDEST DUP5 PUSH1 0x20 ADD MLOAD DUP3 DUP6 PUSH2 0x14D5 SWAP2 SWAP1 PUSH2 0x2072 JUMP JUMPDEST GT ISZERO PUSH2 0x150A JUMPI PUSH2 0x1509 DUP6 PUSH1 0x2 PUSH2 0x14FA DUP9 PUSH1 0x20 ADD MLOAD DUP9 DUP8 PUSH2 0x14F5 SWAP2 SWAP1 PUSH2 0x2072 JUMP JUMPDEST PUSH2 0x16A3 JUMP JUMPDEST PUSH2 0x1504 SWAP2 SWAP1 PUSH2 0x1CEB JUMP JUMPDEST PUSH2 0x16BE JUMP JUMPDEST JUMPDEST PUSH0 DUP1 DUP7 MLOAD DUP1 MLOAD DUP8 PUSH1 0x20 DUP4 ADD ADD SWAP4 POP DUP1 DUP9 DUP8 ADD GT ISZERO PUSH2 0x1528 JUMPI DUP8 DUP7 ADD DUP3 MSTORE JUMPDEST PUSH1 0x20 DUP8 ADD SWAP3 POP POP POP JUMPDEST PUSH1 0x20 DUP5 LT PUSH2 0x156F JUMPI DUP1 MLOAD DUP3 MSTORE PUSH1 0x20 DUP3 PUSH2 0x154A SWAP2 SWAP1 PUSH2 0x2072 JUMP JUMPDEST SWAP2 POP PUSH1 0x20 DUP2 PUSH2 0x1559 SWAP2 SWAP1 PUSH2 0x2072 JUMP JUMPDEST SWAP1 POP PUSH1 0x20 DUP5 PUSH2 0x1568 SWAP2 SWAP1 PUSH2 0x21DA JUMP JUMPDEST SWAP4 POP PUSH2 0x1531 JUMP JUMPDEST PUSH0 PUSH1 0x1 DUP6 PUSH1 0x20 SUB PUSH2 0x100 EXP SUB SWAP1 POP DUP1 NOT DUP3 MLOAD AND DUP2 DUP5 MLOAD AND DUP2 DUP2 OR DUP6 MSTORE POP POP POP DUP7 SWAP3 POP POP POP SWAP5 SWAP4 POP POP POP POP JUMP JUMPDEST PUSH2 0x15A8 DUP3 PUSH1 0x2 DUP4 MLOAD PUSH2 0x1079 JUMP JUMPDEST PUSH2 0x15BB DUP2 DUP4 PUSH2 0x11FE SWAP1 SWAP2 SWAP1 PUSH4 0xFFFFFFFF AND JUMP JUMPDEST POP POP POP JUMP JUMPDEST PUSH2 0x15C8 PUSH2 0x1749 JUMP JUMPDEST DUP4 PUSH1 0x20 ADD MLOAD DUP4 LT PUSH2 0x15EE JUMPI PUSH2 0x15ED DUP5 PUSH1 0x2 DUP7 PUSH1 0x20 ADD MLOAD PUSH2 0x15E8 SWAP2 SWAP1 PUSH2 0x1CEB JUMP JUMPDEST PUSH2 0x16BE JUMP JUMPDEST JUMPDEST DUP4 MLOAD DUP1 MLOAD PUSH1 0x20 DUP6 DUP4 ADD ADD DUP5 DUP2 MSTORE8 DUP2 DUP7 SUB PUSH2 0x1609 JUMPI PUSH1 0x1 DUP3 ADD DUP4 MSTORE JUMPDEST POP POP POP DUP4 SWAP1 POP SWAP4 SWAP3 POP POP POP JUMP JUMPDEST PUSH2 0x161E PUSH2 0x1749 JUMP JUMPDEST DUP5 PUSH1 0x20 ADD MLOAD DUP5 DUP4 PUSH2 0x162F SWAP2 SWAP1 PUSH2 0x2072 JUMP JUMPDEST GT ISZERO PUSH2 0x1657 JUMPI PUSH2 0x1656 DUP6 PUSH1 0x2 DUP7 DUP6 PUSH2 0x1647 SWAP2 SWAP1 PUSH2 0x2072 JUMP JUMPDEST PUSH2 0x1651 SWAP2 SWAP1 PUSH2 0x1CEB JUMP JUMPDEST PUSH2 0x16BE JUMP JUMPDEST JUMPDEST PUSH0 PUSH1 0x1 DUP4 PUSH2 0x100 PUSH2 0x1668 SWAP2 SWAP1 PUSH2 0x24E2 JUMP JUMPDEST PUSH2 0x1672 SWAP2 SWAP1 PUSH2 0x21DA JUMP JUMPDEST SWAP1 POP DUP6 MLOAD DUP4 DUP7 DUP3 ADD ADD DUP6 DUP4 NOT DUP3 MLOAD AND OR DUP2 MSTORE DUP2 MLOAD DUP6 DUP9 ADD GT ISZERO PUSH2 0x1695 JUMPI DUP5 DUP8 ADD DUP3 MSTORE JUMPDEST POP POP DUP6 SWAP2 POP POP SWAP5 SWAP4 POP POP POP POP JUMP JUMPDEST PUSH0 DUP2 DUP4 GT ISZERO PUSH2 0x16B4 JUMPI DUP3 SWAP1 POP PUSH2 0x16B8 JUMP JUMPDEST DUP2 SWAP1 POP JUMPDEST SWAP3 SWAP2 POP POP JUMP JUMPDEST PUSH0 DUP3 PUSH0 ADD MLOAD SWAP1 POP PUSH2 0x16CF DUP4 DUP4 PUSH2 0x1011 JUMP JUMPDEST POP PUSH2 0x16DA DUP4 DUP3 PUSH2 0x11FE JUMP JUMPDEST POP POP POP POP JUMP JUMPDEST PUSH1 0x40 MLOAD DUP1 PUSH1 0xA0 ADD PUSH1 0x40 MSTORE DUP1 PUSH0 DUP1 NOT AND DUP2 MSTORE PUSH1 0x20 ADD PUSH0 PUSH20 0xFFFFFFFFFFFFFFFFFFFFFFFFFFFFFFFFFFFFFFFF AND DUP2 MSTORE PUSH1 0x20 ADD PUSH0 PUSH28 0xFFFFFFFFFFFFFFFFFFFFFFFFFFFFFFFFFFFFFFFFFFFFFFFFFFFFFFFF NOT AND DUP2 MSTORE PUSH1 0x20 ADD PUSH0 DUP2 MSTORE PUSH1 0x20 ADD PUSH2 0x1743 PUSH2 0x1749 JUMP JUMPDEST DUP2 MSTORE POP SWAP1 JUMP JUMPDEST PUSH1 0x40 MLOAD DUP1 PUSH1 0x40 ADD PUSH1 0x40 MSTORE DUP1 PUSH1 0x60 DUP2 MSTORE PUSH1 0x20 ADD PUSH0 DUP2 MSTORE POP SWAP1 JUMP JUMPDEST PUSH0 PUSH1 0x40 MLOAD SWAP1 POP SWAP1 JUMP JUMPDEST PUSH0 DUP1 REVERT JUMPDEST PUSH0 DUP1 REVERT JUMPDEST PUSH0 DUP1 REVERT JUMPDEST PUSH0 DUP1 REVERT JUMPDEST PUSH0 PUSH1 0x1F NOT PUSH1 0x1F DUP4 ADD AND SWAP1 POP SWAP2 SWAP1 POP JUMP JUMPDEST PUSH32 0x4E487B7100000000000000000000000000000000000000000000000000000000 PUSH0 MSTORE PUSH1 0x41 PUSH1 0x4 MSTORE PUSH1 0x24 PUSH0 REVERT JUMPDEST PUSH2 0x17C1 DUP3 PUSH2 0x177B JUMP JUMPDEST DUP2 ADD DUP2 DUP2 LT PUSH8 0xFFFFFFFFFFFFFFFF DUP3 GT OR ISZERO PUSH2 0x17E0 JUMPI PUSH2 0x17DF PUSH2 0x178B JUMP JUMPDEST JUMPDEST DUP1 PUSH1 0x40 MSTORE POP POP POP JUMP JUMPDEST PUSH0 PUSH2 0x17F2 PUSH2 0x1762 JUMP JUMPDEST SWAP1 POP PUSH2 0x17FE DUP3 DUP3 PUSH2 0x17B8 JUMP JUMPDEST SWAP2 SWAP1 POP JUMP JUMPDEST PUSH0 PUSH8 0xFFFFFFFFFFFFFFFF DUP3 GT ISZERO PUSH2 0x181D JUMPI PUSH2 0x181C PUSH2 0x178B JUMP JUMPDEST JUMPDEST PUSH2 0x1826 DUP3 PUSH2 0x177B JUMP JUMPDEST SWAP1 POP PUSH1 0x20 DUP2 ADD SWAP1 POP SWAP2 SWAP1 POP JUMP JUMPDEST DUP3 DUP2 DUP4 CALLDATACOPY PUSH0 DUP4 DUP4 ADD MSTORE POP POP POP JUMP JUMPDEST PUSH0 PUSH2 0x1853 PUSH2 0x184E DUP5 PUSH2 0x1803 JUMP JUMPDEST PUSH2 0x17E9 JUMP JUMPDEST SWAP1 POP DUP3 DUP2 MSTORE PUSH1 0x20 DUP2 ADD DUP5 DUP5 DUP5 ADD GT ISZERO PUSH2 0x186F JUMPI PUSH2 0x186E PUSH2 0x1777 JUMP JUMPDEST JUMPDEST PUSH2 0x187A DUP5 DUP3 DUP6 PUSH2 0x1833 JUMP JUMPDEST POP SWAP4 SWAP3 POP POP POP JUMP JUMPDEST PUSH0 DUP3 PUSH1 0x1F DUP4 ADD SLT PUSH2 0x1896 JUMPI PUSH2 0x1895 PUSH2 0x1773 JUMP JUMPDEST JUMPDEST DUP2 CALLDATALOAD PUSH2 0x18A6 DUP5 DUP3 PUSH1 0x20 DUP7 ADD PUSH2 0x1841 JUMP JUMPDEST SWAP2 POP POP SWAP3 SWAP2 POP POP JUMP JUMPDEST PUSH0 PUSH1 0x20 DUP3 DUP5 SUB SLT ISZERO PUSH2 0x18C4 JUMPI PUSH2 0x18C3 PUSH2 0x176B JUMP JUMPDEST JUMPDEST PUSH0 DUP3 ADD CALLDATALOAD PUSH8 0xFFFFFFFFFFFFFFFF DUP2 GT ISZERO PUSH2 0x18E1 JUMPI PUSH2 0x18E0 PUSH2 0x176F JUMP JUMPDEST JUMPDEST PUSH2 0x18ED DUP5 DUP3 DUP6 ADD PUSH2 0x1882 JUMP JUMPDEST SWAP2 POP POP SWAP3 SWAP2 POP POP JUMP JUMPDEST PUSH0 DUP2 SWAP1 POP SWAP2 SWAP1 POP JUMP JUMPDEST PUSH2 0x1908 DUP2 PUSH2 0x18F6 JUMP JUMPDEST DUP2 EQ PUSH2 0x1912 JUMPI PUSH0 DUP1 REVERT JUMPDEST POP JUMP JUMPDEST PUSH0 DUP2 CALLDATALOAD SWAP1 POP PUSH2 0x1923 DUP2 PUSH2 0x18FF JUMP JUMPDEST SWAP3 SWAP2 POP POP JUMP JUMPDEST PUSH0 DUP2 SWAP1 POP SWAP2 SWAP1 POP JUMP JUMPDEST PUSH2 0x193B DUP2 PUSH2 0x1929 JUMP JUMPDEST DUP2 EQ PUSH2 0x1945 JUMPI PUSH0 DUP1 REVERT JUMPDEST POP JUMP JUMPDEST PUSH0 DUP2 CALLDATALOAD SWAP1 POP PUSH2 0x1956 DUP2 PUSH2 0x1932 JUMP JUMPDEST SWAP3 SWAP2 POP POP JUMP JUMPDEST PUSH0 DUP1 PUSH1 0x40 DUP4 DUP6 SUB SLT ISZERO PUSH2 0x1972 JUMPI PUSH2 0x1971 PUSH2 0x176B JUMP JUMPDEST JUMPDEST PUSH0 PUSH2 0x197F DUP6 DUP3 DUP7 ADD PUSH2 0x1915 JUMP JUMPDEST SWAP3 POP POP PUSH1 0x20 PUSH2 0x1990 DUP6 DUP3 DUP7 ADD PUSH2 0x1948 JUMP JUMPDEST SWAP2 POP POP SWAP3 POP SWAP3 SWAP1 POP JUMP JUMPDEST PUSH0 PUSH20 0xFFFFFFFFFFFFFFFFFFFFFFFFFFFFFFFFFFFFFFFF DUP3 AND SWAP1 POP SWAP2 SWAP1 POP JUMP JUMPDEST PUSH0 PUSH2 0x19C3 DUP3 PUSH2 0x199A JUMP JUMPDEST SWAP1 POP SWAP2 SWAP1 POP JUMP JUMPDEST PUSH2 0x19D3 DUP2 PUSH2 0x19B9 JUMP JUMPDEST DUP2 EQ PUSH2 0x19DD JUMPI PUSH0 DUP1 REVERT JUMPDEST POP JUMP JUMPDEST PUSH0 DUP2 CALLDATALOAD SWAP1 POP PUSH2 0x19EE DUP2 PUSH2 0x19CA JUMP JUMPDEST SWAP3 SWAP2 POP POP JUMP JUMPDEST PUSH0 PUSH1 0x20 DUP3 DUP5 SUB SLT ISZERO PUSH2 0x1A09 JUMPI PUSH2 0x1A08 PUSH2 0x176B JUMP JUMPDEST JUMPDEST PUSH0 PUSH2 0x1A16 DUP5 DUP3 DUP6 ADD PUSH2 0x19E0 JUMP JUMPDEST SWAP2 POP POP SWAP3 SWAP2 POP POP JUMP JUMPDEST PUSH2 0x1A28 DUP2 PUSH2 0x1929 JUMP JUMPDEST DUP3 MSTORE POP POP JUMP JUMPDEST PUSH0 PUSH1 0x20 DUP3 ADD SWAP1 POP PUSH2 0x1A41 PUSH0 DUP4 ADD DUP5 PUSH2 0x1A1F JUMP JUMPDEST SWAP3 SWAP2 POP POP JUMP JUMPDEST PUSH2 0x1A50 DUP2 PUSH2 0x19B9 JUMP JUMPDEST DUP3 MSTORE POP POP JUMP JUMPDEST PUSH0 PUSH1 0x20 DUP3 ADD SWAP1 POP PUSH2 0x1A69 PUSH0 DUP4 ADD DUP5 PUSH2 0x1A47 JUMP JUMPDEST SWAP3 SWAP2 POP POP JUMP JUMPDEST PUSH0 DUP2 MLOAD SWAP1 POP SWAP2 SWAP1 POP JUMP JUMPDEST PUSH0 DUP3 DUP3 MSTORE PUSH1 0x20 DUP3 ADD SWAP1 POP SWAP3 SWAP2 POP POP JUMP JUMPDEST PUSH0 JUMPDEST DUP4 DUP2 LT ISZERO PUSH2 0x1AA6 JUMPI DUP1 DUP3 ADD MLOAD DUP2 DUP5 ADD MSTORE PUSH1 0x20 DUP2 ADD SWAP1 POP PUSH2 0x1A8B JUMP JUMPDEST PUSH0 DUP5 DUP5 ADD MSTORE POP POP POP POP JUMP JUMPDEST PUSH0 PUSH2 0x1ABB DUP3 PUSH2 0x1A6F JUMP JUMPDEST PUSH2 0x1AC5 DUP2 DUP6 PUSH2 0x1A79 JUMP JUMPDEST SWAP4 POP PUSH2 0x1AD5 DUP2 DUP6 PUSH1 0x20 DUP7 ADD PUSH2 0x1A89 JUMP JUMPDEST PUSH2 0x1ADE DUP2 PUSH2 0x177B JUMP JUMPDEST DUP5 ADD SWAP2 POP POP SWAP3 SWAP2 POP POP JUMP JUMPDEST PUSH0 PUSH1 0x20 DUP3 ADD SWAP1 POP DUP2 DUP2 SUB PUSH0 DUP4 ADD MSTORE PUSH2 0x1B01 DUP2 DUP5 PUSH2 0x1AB1 JUMP JUMPDEST SWAP1 POP SWAP3 SWAP2 POP POP JUMP JUMPDEST PUSH0 PUSH1 0x20 DUP3 DUP5 SUB SLT ISZERO PUSH2 0x1B1E JUMPI PUSH2 0x1B1D PUSH2 0x176B JUMP JUMPDEST JUMPDEST PUSH0 PUSH2 0x1B2B DUP5 DUP3 DUP6 ADD PUSH2 0x1948 JUMP JUMPDEST SWAP2 POP POP SWAP3 SWAP2 POP POP JUMP JUMPDEST PUSH0 DUP2 MLOAD SWAP1 POP SWAP2 SWAP1 POP JUMP JUMPDEST PUSH0 DUP2 SWAP1 POP PUSH1 0x20 DUP3 ADD SWAP1 POP SWAP2 SWAP1 POP JUMP JUMPDEST PUSH0 PUSH2 0x1B58 DUP3 MLOAD PUSH2 0x18F6 JUMP JUMPDEST DUP1 SWAP2 POP POP SWAP2 SWAP1 POP JUMP JUMPDEST PUSH0 DUP3 DUP3 SHL SWAP1 POP SWAP3 SWAP2 POP POP JUMP JUMPDEST PUSH0 PUSH2 0x1B77 DUP3 PUSH2 0x1B34 JUMP JUMPDEST DUP3 PUSH2 0x1B81 DUP5 PUSH2 0x1B3E JUMP JUMPDEST SWAP1 POP PUSH2 0x1B8C DUP2 PUSH2 0x1B4D JUMP JUMPDEST SWAP3 POP PUSH1 0x20 DUP3 LT ISZERO PUSH2 0x1BCC JUMPI PUSH2 0x1BC7 PUSH32 0xFFFFFFFFFFFFFFFFFFFFFFFFFFFFFFFFFFFFFFFFFFFFFFFFFFFFFFFFFFFFFFFF DUP4 PUSH1 0x20 SUB PUSH1 0x8 MUL PUSH2 0x1B61 JUMP JUMPDEST DUP4 AND SWAP3 POP JUMPDEST POP POP SWAP2 SWAP1 POP JUMP JUMPDEST PUSH0 DUP2 SWAP1 POP SWAP3 SWAP2 POP POP JUMP JUMPDEST PUSH0 PUSH2 0x1BE7 DUP3 PUSH2 0x1A6F JUMP JUMPDEST PUSH2 0x1BF1 DUP2 DUP6 PUSH2 0x1BD3 JUMP JUMPDEST SWAP4 POP PUSH2 0x1C01 DUP2 DUP6 PUSH1 0x20 DUP7 ADD PUSH2 0x1A89 JUMP JUMPDEST DUP1 DUP5 ADD SWAP2 POP POP SWAP3 SWAP2 POP POP JUMP JUMPDEST PUSH0 PUSH2 0x1C18 DUP3 DUP6 PUSH2 0x1BDD JUMP JUMPDEST SWAP2 POP PUSH2 0x1C24 DUP3 DUP5 PUSH2 0x1BDD JUMP JUMPDEST SWAP2 POP DUP2 SWAP1 POP SWAP4 SWAP3 POP POP POP JUMP JUMPDEST PUSH32 0x536F75726365206D75737420626520746865206F7261636C65206F6620746865 PUSH0 DUP3 ADD MSTORE PUSH32 0x2072657175657374000000000000000000000000000000000000000000000000 PUSH1 0x20 DUP3 ADD MSTORE POP JUMP JUMPDEST PUSH0 PUSH2 0x1C8A PUSH1 0x28 DUP4 PUSH2 0x1A79 JUMP JUMPDEST SWAP2 POP PUSH2 0x1C95 DUP3 PUSH2 0x1C30 JUMP JUMPDEST PUSH1 0x40 DUP3 ADD SWAP1 POP SWAP2 SWAP1 POP JUMP JUMPDEST PUSH0 PUSH1 0x20 DUP3 ADD SWAP1 POP DUP2 DUP2 SUB PUSH0 DUP4 ADD MSTORE PUSH2 0x1CB7 DUP2 PUSH2 0x1C7E JUMP JUMPDEST SWAP1 POP SWAP2 SWAP1 POP JUMP JUMPDEST PUSH32 0x4E487B7100000000000000000000000000000000000000000000000000000000 PUSH0 MSTORE PUSH1 0x11 PUSH1 0x4 MSTORE PUSH1 0x24 PUSH0 REVERT JUMPDEST PUSH0 PUSH2 0x1CF5 DUP3 PUSH2 0x1929 JUMP JUMPDEST SWAP2 POP PUSH2 0x1D00 DUP4 PUSH2 0x1929 JUMP JUMPDEST SWAP3 POP DUP3 DUP3 MUL PUSH2 0x1D0E DUP2 PUSH2 0x1929 JUMP JUMPDEST SWAP2 POP DUP3 DUP3 DIV DUP5 EQ DUP4 ISZERO OR PUSH2 0x1D25 JUMPI PUSH2 0x1D24 PUSH2 0x1CBE JUMP JUMPDEST JUMPDEST POP SWAP3 SWAP2 POP POP JUMP JUMPDEST PUSH32 0x4E487B7100000000000000000000000000000000000000000000000000000000 PUSH0 MSTORE PUSH1 0x12 PUSH1 0x4 MSTORE PUSH1 0x24 PUSH0 REVERT JUMPDEST PUSH0 PUSH2 0x1D63 DUP3 PUSH2 0x1929 JUMP JUMPDEST SWAP2 POP PUSH2 0x1D6E DUP4 PUSH2 0x1929 JUMP JUMPDEST SWAP3 POP DUP3 PUSH2 0x1D7E JUMPI PUSH2 0x1D7D PUSH2 0x1D2C JUMP JUMPDEST JUMPDEST DUP3 DUP3 DIV SWAP1 POP SWAP3 SWAP2 POP POP JUMP JUMPDEST PUSH32 0x4D7573742062652070726F706F736564206F776E657200000000000000000000 PUSH0 DUP3 ADD MSTORE POP JUMP JUMPDEST PUSH0 PUSH2 0x1DBD PUSH1 0x16 DUP4 PUSH2 0x1A79 JUMP JUMPDEST SWAP2 POP PUSH2 0x1DC8 DUP3 PUSH2 0x1D89 JUMP JUMPDEST PUSH1 0x20 DUP3 ADD SWAP1 POP SWAP2 SWAP1 POP JUMP JUMPDEST PUSH0 PUSH1 0x20 DUP3 ADD SWAP1 POP DUP2 DUP2 SUB PUSH0 DUP4 ADD MSTORE PUSH2 0x1DEA DUP2 PUSH2 0x1DB1 JUMP JUMPDEST SWAP1 POP SWAP2 SWAP1 POP JUMP JUMPDEST PUSH0 DUP2 MLOAD SWAP1 POP PUSH2 0x1DFF DUP2 PUSH2 0x1932 JUMP JUMPDEST SWAP3 SWAP2 POP POP JUMP JUMPDEST PUSH0 PUSH1 0x20 DUP3 DUP5 SUB SLT ISZERO PUSH2 0x1E1A JUMPI PUSH2 0x1E19 PUSH2 0x176B JUMP JUMPDEST JUMPDEST PUSH0 PUSH2 0x1E27 DUP5 DUP3 DUP6 ADD PUSH2 0x1DF1 JUMP JUMPDEST SWAP2 POP POP SWAP3 SWAP2 POP POP JUMP JUMPDEST PUSH0 PUSH1 0x40 DUP3 ADD SWAP1 POP PUSH2 0x1E43 PUSH0 DUP4 ADD DUP6 PUSH2 0x1A47 JUMP JUMPDEST PUSH2 0x1E50 PUSH1 0x20 DUP4 ADD DUP5 PUSH2 0x1A1F JUMP JUMPDEST SWAP4 SWAP3 POP POP POP JUMP JUMPDEST PUSH0 DUP2 ISZERO ISZERO SWAP1 POP SWAP2 SWAP1 POP JUMP JUMPDEST PUSH2 0x1E6B DUP2 PUSH2 0x1E57 JUMP JUMPDEST DUP2 EQ PUSH2 0x1E75 JUMPI PUSH0 DUP1 REVERT JUMPDEST POP JUMP JUMPDEST PUSH0 DUP2 MLOAD SWAP1 POP PUSH2 0x1E86 DUP2 PUSH2 0x1E62 JUMP JUMPDEST SWAP3 SWAP2 POP POP JUMP JUMPDEST PUSH0 PUSH1 0x20 DUP3 DUP5 SUB SLT ISZERO PUSH2 0x1EA1 JUMPI PUSH2 0x1EA0 PUSH2 0x176B JUMP JUMPDEST JUMPDEST PUSH0 PUSH2 0x1EAE DUP5 DUP3 DUP6 ADD PUSH2 0x1E78 JUMP JUMPDEST SWAP2 POP POP SWAP3 SWAP2 POP POP JUMP JUMPDEST PUSH32 0x556E61626C6520746F207472616E736665720000000000000000000000000000 PUSH0 DUP3 ADD MSTORE POP JUMP JUMPDEST PUSH0 PUSH2 0x1EEB PUSH1 0x12 DUP4 PUSH2 0x1A79 JUMP JUMPDEST SWAP2 POP PUSH2 0x1EF6 DUP3 PUSH2 0x1EB7 JUMP JUMPDEST PUSH1 0x20 DUP3 ADD SWAP1 POP SWAP2 SWAP1 POP JUMP JUMPDEST PUSH0 PUSH1 0x20 DUP3 ADD SWAP1 POP DUP2 DUP2 SUB PUSH0 DUP4 ADD MSTORE PUSH2 0x1F18 DUP2 PUSH2 0x1EDF JUMP JUMPDEST SWAP1 POP SWAP2 SWAP1 POP JUMP JUMPDEST PUSH0 DUP2 SWAP1 POP SWAP2 SWAP1 POP JUMP JUMPDEST PUSH2 0x1F39 PUSH2 0x1F34 DUP3 PUSH2 0x18F6 JUMP JUMPDEST PUSH2 0x1F1F JUMP JUMPDEST DUP3 MSTORE POP POP JUMP JUMPDEST PUSH0 PUSH2 0x1F4A DUP3 DUP5 PUSH2 0x1F28 JUMP JUMPDEST PUSH1 0x20 DUP3 ADD SWAP2 POP DUP2 SWAP1 POP SWAP3 SWAP2 POP POP JUMP JUMPDEST PUSH32 0x4F6E6C792063616C6C61626C65206279206F776E657200000000000000000000 PUSH0 DUP3 ADD MSTORE POP JUMP JUMPDEST PUSH0 PUSH2 0x1F8D PUSH1 0x16 DUP4 PUSH2 0x1A79 JUMP JUMPDEST SWAP2 POP PUSH2 0x1F98 DUP3 PUSH2 0x1F59 JUMP JUMPDEST PUSH1 0x20 DUP3 ADD SWAP1 POP SWAP2 SWAP1 POP JUMP JUMPDEST PUSH0 PUSH1 0x20 DUP3 ADD SWAP1 POP DUP2 DUP2 SUB PUSH0 DUP4 ADD MSTORE PUSH2 0x1FBA DUP2 PUSH2 0x1F81 JUMP JUMPDEST SWAP1 POP SWAP2 SWAP1 POP JUMP JUMPDEST PUSH32 0x43616E6E6F74207472616E7366657220746F2073656C66000000000000000000 PUSH0 DUP3 ADD MSTORE POP JUMP JUMPDEST PUSH0 PUSH2 0x1FF5 PUSH1 0x17 DUP4 PUSH2 0x1A79 JUMP JUMPDEST SWAP2 POP PUSH2 0x2000 DUP3 PUSH2 0x1FC1 JUMP JUMPDEST PUSH1 0x20 DUP3 ADD SWAP1 POP SWAP2 SWAP1 POP JUMP JUMPDEST PUSH0 PUSH1 0x20 DUP3 ADD SWAP1 POP DUP2 DUP2 SUB PUSH0 DUP4 ADD MSTORE PUSH2 0x2022 DUP2 PUSH2 0x1FE9 JUMP JUMPDEST SWAP1 POP SWAP2 SWAP1 POP JUMP JUMPDEST PUSH0 DUP2 SWAP1 POP SWAP2 SWAP1 POP JUMP JUMPDEST PUSH0 PUSH2 0x203C DUP3 PUSH2 0x2029 JUMP JUMPDEST SWAP2 POP PUSH2 0x2047 DUP4 PUSH2 0x2029 JUMP JUMPDEST SWAP3 POP DUP3 DUP3 SUB SWAP1 POP DUP2 DUP2 SLT PUSH0 DUP5 SLT AND DUP3 DUP3 SGT PUSH0 DUP6 SLT ISZERO AND OR ISZERO PUSH2 0x206C JUMPI PUSH2 0x206B PUSH2 0x1CBE JUMP JUMPDEST JUMPDEST SWAP3 SWAP2 POP POP JUMP JUMPDEST PUSH0 PUSH2 0x207C DUP3 PUSH2 0x1929 JUMP JUMPDEST SWAP2 POP PUSH2 0x2087 DUP4 PUSH2 0x1929 JUMP JUMPDEST SWAP3 POP DUP3 DUP3 ADD SWAP1 POP DUP1 DUP3 GT ISZERO PUSH2 0x209F JUMPI PUSH2 0x209E PUSH2 0x1CBE JUMP JUMPDEST JUMPDEST SWAP3 SWAP2 POP POP JUMP JUMPDEST PUSH2 0x20AE DUP2 PUSH2 0x18F6 JUMP JUMPDEST DUP3 MSTORE POP POP JUMP JUMPDEST PUSH0 PUSH32 0xFFFFFFFF00000000000000000000000000000000000000000000000000000000 DUP3 AND SWAP1 POP SWAP2 SWAP1 POP JUMP JUMPDEST PUSH2 0x20E8 DUP2 PUSH2 0x20B4 JUMP JUMPDEST DUP3 MSTORE POP POP JUMP JUMPDEST PUSH0 DUP3 DUP3 MSTORE PUSH1 0x20 DUP3 ADD SWAP1 POP SWAP3 SWAP2 POP POP JUMP JUMPDEST PUSH0 PUSH2 0x2108 DUP3 PUSH2 0x1B34 JUMP JUMPDEST PUSH2 0x2112 DUP2 DUP6 PUSH2 0x20EE JUMP JUMPDEST SWAP4 POP PUSH2 0x2122 DUP2 DUP6 PUSH1 0x20 DUP7 ADD PUSH2 0x1A89 JUMP JUMPDEST PUSH2 0x212B DUP2 PUSH2 0x177B JUMP JUMPDEST DUP5 ADD SWAP2 POP POP SWAP3 SWAP2 POP POP JUMP JUMPDEST PUSH0 PUSH1 0xE0 DUP3 ADD SWAP1 POP PUSH2 0x2149 PUSH0 DUP4 ADD DUP11 PUSH2 0x1A47 JUMP JUMPDEST PUSH2 0x2156 PUSH1 0x20 DUP4 ADD DUP10 PUSH2 0x1A1F JUMP JUMPDEST PUSH2 0x2163 PUSH1 0x40 DUP4 ADD DUP9 PUSH2 0x20A5 JUMP JUMPDEST PUSH2 0x2170 PUSH1 0x60 DUP4 ADD DUP8 PUSH2 0x20DF JUMP JUMPDEST PUSH2 0x217D PUSH1 0x80 DUP4 ADD DUP7 PUSH2 0x1A1F JUMP JUMPDEST PUSH2 0x218A PUSH1 0xA0 DUP4 ADD DUP6 PUSH2 0x1A1F JUMP JUMPDEST DUP2 DUP2 SUB PUSH1 0xC0 DUP4 ADD MSTORE PUSH2 0x219C DUP2 DUP5 PUSH2 0x20FE JUMP JUMPDEST SWAP1 POP SWAP9 SWAP8 POP POP POP POP POP POP POP POP JUMP JUMPDEST PUSH0 PUSH2 0x21B4 DUP3 PUSH2 0x1929 JUMP JUMPDEST SWAP2 POP PUSH2 0x21BF DUP4 PUSH2 0x1929 JUMP JUMPDEST SWAP3 POP DUP3 PUSH2 0x21CF JUMPI PUSH2 0x21CE PUSH2 0x1D2C JUMP JUMPDEST JUMPDEST DUP3 DUP3 MOD SWAP1 POP SWAP3 SWAP2 POP POP JUMP JUMPDEST PUSH0 PUSH2 0x21E4 DUP3 PUSH2 0x1929 JUMP JUMPDEST SWAP2 POP PUSH2 0x21EF DUP4 PUSH2 0x1929 JUMP JUMPDEST SWAP3 POP DUP3 DUP3 SUB SWAP1 POP DUP2 DUP2 GT ISZERO PUSH2 0x2207 JUMPI PUSH2 0x2206 PUSH2 0x1CBE JUMP JUMPDEST JUMPDEST SWAP3 SWAP2 POP POP JUMP JUMPDEST PUSH0 DUP2 SWAP1 POP SWAP2 SWAP1 POP JUMP JUMPDEST PUSH0 PUSH2 0x2230 PUSH2 0x222B PUSH2 0x2226 DUP5 PUSH2 0x199A JUMP JUMPDEST PUSH2 0x220D JUMP JUMPDEST PUSH2 0x199A JUMP JUMPDEST SWAP1 POP SWAP2 SWAP1 POP JUMP JUMPDEST PUSH0 PUSH2 0x2241 DUP3 PUSH2 0x2216 JUMP JUMPDEST SWAP1 POP SWAP2 SWAP1 POP JUMP JUMPDEST PUSH0 PUSH2 0x2252 DUP3 PUSH2 0x2237 JUMP JUMPDEST SWAP1 POP SWAP2 SWAP1 POP JUMP JUMPDEST PUSH0 DUP2 PUSH1 0x60 SHL SWAP1 POP SWAP2 SWAP1 POP JUMP JUMPDEST PUSH0 PUSH2 0x226F DUP3 PUSH2 0x2259 JUMP JUMPDEST SWAP1 POP SWAP2 SWAP1 POP JUMP JUMPDEST PUSH0 PUSH2 0x2280 DUP3 PUSH2 0x2265 JUMP JUMPDEST SWAP1 POP SWAP2 SWAP1 POP JUMP JUMPDEST PUSH2 0x2298 PUSH2 0x2293 DUP3 PUSH2 0x2248 JUMP JUMPDEST PUSH2 0x2276 JUMP JUMPDEST DUP3 MSTORE POP POP JUMP JUMPDEST PUSH0 DUP2 SWAP1 POP SWAP2 SWAP1 POP JUMP JUMPDEST PUSH2 0x22B8 PUSH2 0x22B3 DUP3 PUSH2 0x1929 JUMP JUMPDEST PUSH2 0x229E JUMP JUMPDEST DUP3 MSTORE POP POP JUMP JUMPDEST PUSH0 PUSH2 0x22C9 DUP3 DUP6 PUSH2 0x2287 JUMP JUMPDEST PUSH1 0x14 DUP3 ADD SWAP2 POP PUSH2 0x22D9 DUP3 DUP5 PUSH2 0x22A7 JUMP JUMPDEST PUSH1 0x20 DUP3 ADD SWAP2 POP DUP2 SWAP1 POP SWAP4 SWAP3 POP POP POP JUMP JUMPDEST PUSH0 PUSH1 0x60 DUP3 ADD SWAP1 POP PUSH2 0x22FC PUSH0 DUP4 ADD DUP7 PUSH2 0x1A47 JUMP JUMPDEST PUSH2 0x2309 PUSH1 0x20 DUP4 ADD DUP6 PUSH2 0x1A1F JUMP JUMPDEST DUP2 DUP2 SUB PUSH1 0x40 DUP4 ADD MSTORE PUSH2 0x231B DUP2 DUP5 PUSH2 0x20FE JUMP JUMPDEST SWAP1 POP SWAP5 SWAP4 POP POP POP POP JUMP JUMPDEST PUSH32 0x756E61626C6520746F207472616E73666572416E6443616C6C20746F206F7261 PUSH0 DUP3 ADD MSTORE PUSH32 0x636C650000000000000000000000000000000000000000000000000000000000 PUSH1 0x20 DUP3 ADD MSTORE POP JUMP JUMPDEST PUSH0 PUSH2 0x237F PUSH1 0x23 DUP4 PUSH2 0x1A79 JUMP JUMPDEST SWAP2 POP PUSH2 0x238A DUP3 PUSH2 0x2325 JUMP JUMPDEST PUSH1 0x40 DUP3 ADD SWAP1 POP SWAP2 SWAP1 POP JUMP JUMPDEST PUSH0 PUSH1 0x20 DUP3 ADD SWAP1 POP DUP2 DUP2 SUB PUSH0 DUP4 ADD MSTORE PUSH2 0x23AC DUP2 PUSH2 0x2373 JUMP JUMPDEST SWAP1 POP SWAP2 SWAP1 POP JUMP JUMPDEST PUSH0 DUP2 PUSH1 0x1 SHR SWAP1 POP SWAP2 SWAP1 POP JUMP JUMPDEST PUSH0 DUP1 DUP3 SWAP2 POP DUP4 SWAP1 POP JUMPDEST PUSH1 0x1 DUP6 GT ISZERO PUSH2 0x2408 JUMPI DUP1 DUP7 DIV DUP2 GT ISZERO PUSH2 0x23E4 JUMPI PUSH2 0x23E3 PUSH2 0x1CBE JUMP JUMPDEST JUMPDEST PUSH1 0x1 DUP6 AND ISZERO PUSH2 0x23F3 JUMPI DUP1 DUP3 MUL SWAP2 POP JUMPDEST DUP1 DUP2 MUL SWAP1 POP PUSH2 0x2401 DUP6 PUSH2 0x23B3 JUMP JUMPDEST SWAP5 POP PUSH2 0x23C8 JUMP JUMPDEST SWAP5 POP SWAP5 SWAP3 POP POP POP JUMP JUMPDEST PUSH0 DUP3 PUSH2 0x2420 JUMPI PUSH1 0x1 SWAP1 POP PUSH2 0x24DB JUMP JUMPDEST DUP2 PUSH2 0x242D JUMPI PUSH0 SWAP1 POP PUSH2 0x24DB JUMP JUMPDEST DUP2 PUSH1 0x1 DUP2 EQ PUSH2 0x2443 JUMPI PUSH1 0x2 DUP2 EQ PUSH2 0x244D JUMPI PUSH2 0x247C JUMP JUMPDEST PUSH1 0x1 SWAP2 POP POP PUSH2 0x24DB JUMP JUMPDEST PUSH1 0xFF DUP5 GT ISZERO PUSH2 0x245F JUMPI PUSH2 0x245E PUSH2 0x1CBE JUMP JUMPDEST JUMPDEST DUP4 PUSH1 0x2 EXP SWAP2 POP DUP5 DUP3 GT ISZERO PUSH2 0x2476 JUMPI PUSH2 0x2475 PUSH2 0x1CBE JUMP JUMPDEST JUMPDEST POP PUSH2 0x24DB JUMP JUMPDEST POP PUSH1 0x20 DUP4 LT PUSH2 0x133 DUP4 LT AND PUSH1 0x4E DUP5 LT PUSH1 0xB DUP5 LT AND OR ISZERO PUSH2 0x24B1 JUMPI DUP3 DUP3 EXP SWAP1 POP DUP4 DUP2 GT ISZERO PUSH2 0x24AC JUMPI PUSH2 0x24AB PUSH2 0x1CBE JUMP JUMPDEST JUMPDEST PUSH2 0x24DB JUMP JUMPDEST PUSH2 0x24BE DUP5 DUP5 DUP5 PUSH1 0x1 PUSH2 0x23BF JUMP JUMPDEST SWAP3 POP SWAP1 POP DUP2 DUP5 DIV DUP2 GT ISZERO PUSH2 0x24D5 JUMPI PUSH2 0x24D4 PUSH2 0x1CBE JUMP JUMPDEST JUMPDEST DUP2 DUP2 MUL SWAP1 POP JUMPDEST SWAP4 SWAP3 POP POP POP JUMP JUMPDEST PUSH0 PUSH2 0x24EC DUP3 PUSH2 0x1929 JUMP JUMPDEST SWAP2 POP PUSH2 0x24F7 DUP4 PUSH2 0x1929 JUMP JUMPDEST SWAP3 POP PUSH2 0x2524 PUSH32 0xFFFFFFFFFFFFFFFFFFFFFFFFFFFFFFFFFFFFFFFFFFFFFFFFFFFFFFFFFFFFFFFF DUP5 DUP5 PUSH2 0x2411 JUMP JUMPDEST SWAP1 POP SWAP3 SWAP2 POP POP JUMP INVALID PUSH9 0x747470733A2F2F7065 PUSH2 0x6369 PUSH16 0x6170692E636F6D3A333030322F676574 MSTORE PUSH24 0x612F5B22636F6E74656E742D74797065222C20226170706C PUSH10 0x636174696F6E2F6A736F PUSH15 0x225DA2646970667358221220EBA133 DUP8 PUSH11 0x36B8F2FA16C1A34E0B285E EXP 0xD5 CODECOPY 0xDF PUSH8 0x278E13AA872D55A9 DUP10 SELFDESTRUCT 0xD5 PUSH5 0x736F6C6343 STOP ADDMOD XOR STOP CALLER "
		},
		"gasEstimates": {
			"creation": {
				"codeDepositCost": "1928000",
				"executionCost": "infinite",
				"totalCost": "infinite"
			},
			"external": {
				"acceptOwnership()": "54600",
				"fulfill(bytes32,uint256)": "50476",
				"getFeeInHundredthsOfLink()": "infinite",
				"getJobId()": "infinite",
				"getOracleAddress()": "4730",
				"owner()": "2538",
				"request(string)": "infinite",
				"response()": "2514",
				"setFeeInHundredthsOfLink(uint256)": "infinite",
				"setFeeInJuels(uint256)": "24752",
				"setJobId(string)": "infinite",
				"setOracleAddress(address)": "51226",
				"transferOwnership(address)": "30717",
				"withdrawLink()": "infinite"
			}
		},
		"methodIdentifiers": {
			"acceptOwnership()": "79ba5097",
			"fulfill(bytes32,uint256)": "4357855e",
			"getFeeInHundredthsOfLink()": "56237682",
			"getJobId()": "b02f7fe0",
			"getOracleAddress()": "b18b78dd",
			"owner()": "8da5cb5b",
			"request(string)": "2c199889",
			"response()": "7a7f01a7",
			"setFeeInHundredthsOfLink(uint256)": "f34473a5",
			"setFeeInJuels(uint256)": "e3da201d",
			"setJobId(string)": "129fc1c0",
			"setOracleAddress(address)": "4c69c00f",
			"transferOwnership(address)": "f2fde38b",
			"withdrawLink()": "8dc654a2"
		}
	},
	"abi": [
		{
			"inputs": [],
			"stateMutability": "nonpayable",
			"type": "constructor"
		},
		{
			"anonymous": false,
			"inputs": [
				{
					"indexed": true,
					"internalType": "bytes32",
					"name": "id",
					"type": "bytes32"
				}
			],
			"name": "ChainlinkCancelled",
			"type": "event"
		},
		{
			"anonymous": false,
			"inputs": [
				{
					"indexed": true,
					"internalType": "bytes32",
					"name": "id",
					"type": "bytes32"
				}
			],
			"name": "ChainlinkFulfilled",
			"type": "event"
		},
		{
			"anonymous": false,
			"inputs": [
				{
					"indexed": true,
					"internalType": "bytes32",
					"name": "id",
					"type": "bytes32"
				}
			],
			"name": "ChainlinkRequested",
			"type": "event"
		},
		{
			"anonymous": false,
			"inputs": [
				{
					"indexed": true,
					"internalType": "address",
					"name": "from",
					"type": "address"
				},
				{
					"indexed": true,
					"internalType": "address",
					"name": "to",
					"type": "address"
				}
			],
			"name": "OwnershipTransferRequested",
			"type": "event"
		},
		{
			"anonymous": false,
			"inputs": [
				{
					"indexed": true,
					"internalType": "address",
					"name": "from",
					"type": "address"
				},
				{
					"indexed": true,
					"internalType": "address",
					"name": "to",
					"type": "address"
				}
			],
			"name": "OwnershipTransferred",
			"type": "event"
		},
		{
			"anonymous": false,
			"inputs": [
				{
					"indexed": true,
					"internalType": "bytes32",
					"name": "requestId",
					"type": "bytes32"
				}
			],
			"name": "RequestFulfilled",
			"type": "event"
		},
		{
			"inputs": [],
			"name": "acceptOwnership",
			"outputs": [],
			"stateMutability": "nonpayable",
			"type": "function"
		},
		{
			"inputs": [
				{
					"internalType": "bytes32",
					"name": "requestId",
					"type": "bytes32"
				},
				{
					"internalType": "uint256",
					"name": "data",
					"type": "uint256"
				}
			],
			"name": "fulfill",
			"outputs": [],
			"stateMutability": "nonpayable",
			"type": "function"
		},
		{
			"inputs": [],
			"name": "getFeeInHundredthsOfLink",
			"outputs": [
				{
					"internalType": "uint256",
					"name": "",
					"type": "uint256"
				}
			],
			"stateMutability": "view",
			"type": "function"
		},
		{
			"inputs": [],
			"name": "getJobId",
			"outputs": [
				{
					"internalType": "string",
					"name": "",
					"type": "string"
				}
			],
			"stateMutability": "view",
			"type": "function"
		},
		{
			"inputs": [],
			"name": "getOracleAddress",
			"outputs": [
				{
					"internalType": "address",
					"name": "",
					"type": "address"
				}
			],
			"stateMutability": "view",
			"type": "function"
		},
		{
			"inputs": [],
			"name": "owner",
			"outputs": [
				{
					"internalType": "address",
					"name": "",
					"type": "address"
				}
			],
			"stateMutability": "view",
			"type": "function"
		},
		{
			"inputs": [
				{
					"internalType": "string",
					"name": "identifier",
					"type": "string"
				}
			],
			"name": "request",
			"outputs": [],
			"stateMutability": "nonpayable",
			"type": "function"
		},
		{
			"inputs": [],
			"name": "response",
			"outputs": [
				{
					"internalType": "uint256",
					"name": "",
					"type": "uint256"
				}
			],
			"stateMutability": "view",
			"type": "function"
		},
		{
			"inputs": [
				{
					"internalType": "uint256",
					"name": "_feeInHundredthsOfLink",
					"type": "uint256"
				}
			],
			"name": "setFeeInHundredthsOfLink",
			"outputs": [],
			"stateMutability": "nonpayable",
			"type": "function"
		},
		{
			"inputs": [
				{
					"internalType": "uint256",
					"name": "_feeInJuels",
					"type": "uint256"
				}
			],
			"name": "setFeeInJuels",
			"outputs": [],
			"stateMutability": "nonpayable",
			"type": "function"
		},
		{
			"inputs": [
				{
					"internalType": "string",
					"name": "_jobId",
					"type": "string"
				}
			],
			"name": "setJobId",
			"outputs": [],
			"stateMutability": "nonpayable",
			"type": "function"
		},
		{
			"inputs": [
				{
					"internalType": "address",
					"name": "_oracleAddress",
					"type": "address"
				}
			],
			"name": "setOracleAddress",
			"outputs": [],
			"stateMutability": "nonpayable",
			"type": "function"
		},
		{
			"inputs": [
				{
					"internalType": "address",
					"name": "to",
					"type": "address"
				}
			],
			"name": "transferOwnership",
			"outputs": [],
			"stateMutability": "nonpayable",
			"type": "function"
		},
		{
			"inputs": [],
			"name": "withdrawLink",
			"outputs": [],
			"stateMutability": "nonpayable",
			"type": "function"
		}
	]
}