{
	"data": {
		"bytecode": {
			"linkReferences": {},
			"object": "608060405260018055348015610013575f80fd5b506109bd806100215f395ff3fe608060405234801561000f575f80fd5b506004361061004a575f3560e01c80633cb2c68a1461004e5780634055837d1461006c5780639b52a7631461009c578063ec0b31de146100cc575b5f80fd5b6100566100fc565b60405161006391906106ff565b60405180910390f35b6100866004803603810190610081919061074d565b6101b5565b60405161009391906107a5565b60405180910390f35b6100b660048036038101906100b191906107e8565b61028e565b6040516100c391906107a5565b60405180910390f35b6100e660048036038101906100e1919061074d565b61033b565b6040516100f39190610822565b60405180910390f35b60605f805480602002602001604051908101604052809291908181526020015f905b828210156101ac578382905f5260205f2090600202016040518060400160405290815f8201548152602001600182015f9054906101000a900473ffffffffffffffffffffffffffffffffffffffff1673ffffffffffffffffffffffffffffffffffffffff1673ffffffffffffffffffffffffffffffffffffffff16815250508152602001906001019061011e565b50505050905090565b6101bd6105a5565b5f60035f8473ffffffffffffffffffffffffffffffffffffffff1673ffffffffffffffffffffffffffffffffffffffff1681526020019081526020015f205490505f81815481106102115761021061083b565b5b905f5260205f2090600202016040518060400160405290815f8201548152602001600182015f9054906101000a900473ffffffffffffffffffffffffffffffffffffffff1673ffffffffffffffffffffffffffffffffffffffff1673ffffffffffffffffffffffffffffffffffffffff1681525050915050919050565b6102966105a5565b5f60025f8481526020019081526020015f205490505f81815481106102be576102bd61083b565b5b905f5260205f2090600202016040518060400160405290815f8201548152602001600182015f9054906101000a900473ffffffffffffffffffffffffffffffffffffffff1673ffffffffffffffffffffffffffffffffffffffff1673ffffffffffffffffffffffffffffffffffffffff1681525050915050919050565b5f60045f8373ffffffffffffffffffffffffffffffffffffffff1673ffffffffffffffffffffffffffffffffffffffff1681526020019081526020015f205f9054906101000a900460ff16156103c6576040517f08c379a00000000000000000000000000000000000000000000000000000000081526004016103bd906108c2565b60405180910390fd5b5f60015f8154809291906103d99061090d565b9190505590505f60405180604001604052808381526020018573ffffffffffffffffffffffffffffffffffffffff1681525090505f81908060018154018082558091505060019003905f5260205f2090600202015f909190919091505f820151815f01556020820151816001015f6101000a81548173ffffffffffffffffffffffffffffffffffffffff021916908373ffffffffffffffffffffffffffffffffffffffff16021790555050505f60015f805490506104979190610954565b90508060025f8581526020019081526020015f20819055508060035f8773ffffffffffffffffffffffffffffffffffffffff1673ffffffffffffffffffffffffffffffffffffffff1681526020019081526020015f2081905550600160045f8773ffffffffffffffffffffffffffffffffffffffff1673ffffffffffffffffffffffffffffffffffffffff1681526020019081526020015f205f6101000a81548160ff0219169083151502179055505f60055f8773ffffffffffffffffffffffffffffffffffffffff1673ffffffffffffffffffffffffffffffffffffffff1681526020019081526020015f205f6101000a81548160ff021916908315150217905550829350505050919050565b60405180604001604052805f81526020015f73ffffffffffffffffffffffffffffffffffffffff1681525090565b5f81519050919050565b5f82825260208201905092915050565b5f819050602082019050919050565b5f819050919050565b61060e816105fc565b82525050565b5f73ffffffffffffffffffffffffffffffffffffffff82169050919050565b5f61063d82610614565b9050919050565b61064d81610633565b82525050565b604082015f8201516106675f850182610605565b50602082015161067a6020850182610644565b50505050565b5f61068b8383610653565b60408301905092915050565b5f602082019050919050565b5f6106ad826105d3565b6106b781856105dd565b93506106c2836105ed565b805f5b838110156106f25781516106d98882610680565b97506106e483610697565b9250506001810190506106c5565b5085935050505092915050565b5f6020820190508181035f83015261071781846106a3565b905092915050565b5f80fd5b61072c81610633565b8114610736575f80fd5b50565b5f8135905061074781610723565b92915050565b5f602082840312156107625761076161071f565b5b5f61076f84828501610739565b91505092915050565b604082015f82015161078c5f850182610605565b50602082015161079f6020850182610644565b50505050565b5f6040820190506107b85f830184610778565b92915050565b6107c7816105fc565b81146107d1575f80fd5b50565b5f813590506107e2816107be565b92915050565b5f602082840312156107fd576107fc61071f565b5b5f61080a848285016107d4565b91505092915050565b61081c816105fc565b82525050565b5f6020820190506108355f830184610813565b92915050565b7f4e487b71000000000000000000000000000000000000000000000000000000005f52603260045260245ffd5b5f82825260208201905092915050565b7f436f6e7472616374204164647265737320616c726561647920657869737473005f82015250565b5f6108ac601f83610868565b91506108b782610878565b602082019050919050565b5f6020820190508181035f8301526108d9816108a0565b9050919050565b7f4e487b71000000000000000000000000000000000000000000000000000000005f52601160045260245ffd5b5f610917826105fc565b91507fffffffffffffffffffffffffffffffffffffffffffffffffffffffffffffffff8203610949576109486108e0565b5b600182019050919050565b5f61095e826105fc565b9150610969836105fc565b9250828203905081811115610981576109806108e0565b5b9291505056fea2646970667358221220b77b431054d0d225e8bad2582088e17a23513bd8d2a4a98fd63310183378b28f64736f6c63430008180033",
			"opcodes": "PUSH1 0x80 PUSH1 0x40 MSTORE PUSH1 0x1 DUP1 SSTORE CALLVALUE DUP1 ISZERO PUSH2 0x13 JUMPI PUSH0 DUP1 REVERT JUMPDEST POP PUSH2 0x9BD DUP1 PUSH2 0x21 PUSH0 CODECOPY PUSH0 RETURN INVALID PUSH1 0x80 PUSH1 0x40 MSTORE CALLVALUE DUP1 ISZERO PUSH2 0xF JUMPI PUSH0 DUP1 REVERT JUMPDEST POP PUSH1 0x4 CALLDATASIZE LT PUSH2 0x4A JUMPI PUSH0 CALLDATALOAD PUSH1 0xE0 SHR DUP1 PUSH4 0x3CB2C68A EQ PUSH2 0x4E JUMPI DUP1 PUSH4 0x4055837D EQ PUSH2 0x6C JUMPI DUP1 PUSH4 0x9B52A763 EQ PUSH2 0x9C JUMPI DUP1 PUSH4 0xEC0B31DE EQ PUSH2 0xCC JUMPI JUMPDEST PUSH0 DUP1 REVERT JUMPDEST PUSH2 0x56 PUSH2 0xFC JUMP JUMPDEST PUSH1 0x40 MLOAD PUSH2 0x63 SWAP2 SWAP1 PUSH2 0x6FF JUMP JUMPDEST PUSH1 0x40 MLOAD DUP1 SWAP2 SUB SWAP1 RETURN JUMPDEST PUSH2 0x86 PUSH1 0x4 DUP1 CALLDATASIZE SUB DUP2 ADD SWAP1 PUSH2 0x81 SWAP2 SWAP1 PUSH2 0x74D JUMP JUMPDEST PUSH2 0x1B5 JUMP JUMPDEST PUSH1 0x40 MLOAD PUSH2 0x93 SWAP2 SWAP1 PUSH2 0x7A5 JUMP JUMPDEST PUSH1 0x40 MLOAD DUP1 SWAP2 SUB SWAP1 RETURN JUMPDEST PUSH2 0xB6 PUSH1 0x4 DUP1 CALLDATASIZE SUB DUP2 ADD SWAP1 PUSH2 0xB1 SWAP2 SWAP1 PUSH2 0x7E8 JUMP JUMPDEST PUSH2 0x28E JUMP JUMPDEST PUSH1 0x40 MLOAD PUSH2 0xC3 SWAP2 SWAP1 PUSH2 0x7A5 JUMP JUMPDEST PUSH1 0x40 MLOAD DUP1 SWAP2 SUB SWAP1 RETURN JUMPDEST PUSH2 0xE6 PUSH1 0x4 DUP1 CALLDATASIZE SUB DUP2 ADD SWAP1 PUSH2 0xE1 SWAP2 SWAP1 PUSH2 0x74D JUMP JUMPDEST PUSH2 0x33B JUMP JUMPDEST PUSH1 0x40 MLOAD PUSH2 0xF3 SWAP2 SWAP1 PUSH2 0x822 JUMP JUMPDEST PUSH1 0x40 MLOAD DUP1 SWAP2 SUB SWAP1 RETURN JUMPDEST PUSH1 0x60 PUSH0 DUP1 SLOAD DUP1 PUSH1 0x20 MUL PUSH1 0x20 ADD PUSH1 0x40 MLOAD SWAP1 DUP2 ADD PUSH1 0x40 MSTORE DUP1 SWAP3 SWAP2 SWAP1 DUP2 DUP2 MSTORE PUSH1 0x20 ADD PUSH0 SWAP1 JUMPDEST DUP3 DUP3 LT ISZERO PUSH2 0x1AC JUMPI DUP4 DUP3 SWAP1 PUSH0 MSTORE PUSH1 0x20 PUSH0 KECCAK256 SWAP1 PUSH1 0x2 MUL ADD PUSH1 0x40 MLOAD DUP1 PUSH1 0x40 ADD PUSH1 0x40 MSTORE SWAP1 DUP2 PUSH0 DUP3 ADD SLOAD DUP2 MSTORE PUSH1 0x20 ADD PUSH1 0x1 DUP3 ADD PUSH0 SWAP1 SLOAD SWAP1 PUSH2 0x100 EXP SWAP1 DIV PUSH20 0xFFFFFFFFFFFFFFFFFFFFFFFFFFFFFFFFFFFFFFFF AND PUSH20 0xFFFFFFFFFFFFFFFFFFFFFFFFFFFFFFFFFFFFFFFF AND PUSH20 0xFFFFFFFFFFFFFFFFFFFFFFFFFFFFFFFFFFFFFFFF AND DUP2 MSTORE POP POP DUP2 MSTORE PUSH1 0x20 ADD SWAP1 PUSH1 0x1 ADD SWAP1 PUSH2 0x11E JUMP JUMPDEST POP POP POP POP SWAP1 POP SWAP1 JUMP JUMPDEST PUSH2 0x1BD PUSH2 0x5A5 JUMP JUMPDEST PUSH0 PUSH1 0x3 PUSH0 DUP5 PUSH20 0xFFFFFFFFFFFFFFFFFFFFFFFFFFFFFFFFFFFFFFFF AND PUSH20 0xFFFFFFFFFFFFFFFFFFFFFFFFFFFFFFFFFFFFFFFF AND DUP2 MSTORE PUSH1 0x20 ADD SWAP1 DUP2 MSTORE PUSH1 0x20 ADD PUSH0 KECCAK256 SLOAD SWAP1 POP PUSH0 DUP2 DUP2 SLOAD DUP2 LT PUSH2 0x211 JUMPI PUSH2 0x210 PUSH2 0x83B JUMP JUMPDEST JUMPDEST SWAP1 PUSH0 MSTORE PUSH1 0x20 PUSH0 KECCAK256 SWAP1 PUSH1 0x2 MUL ADD PUSH1 0x40 MLOAD DUP1 PUSH1 0x40 ADD PUSH1 0x40 MSTORE SWAP1 DUP2 PUSH0 DUP3 ADD SLOAD DUP2 MSTORE PUSH1 0x20 ADD PUSH1 0x1 DUP3 ADD PUSH0 SWAP1 SLOAD SWAP1 PUSH2 0x100 EXP SWAP1 DIV PUSH20 0xFFFFFFFFFFFFFFFFFFFFFFFFFFFFFFFFFFFFFFFF AND PUSH20 0xFFFFFFFFFFFFFFFFFFFFFFFFFFFFFFFFFFFFFFFF AND PUSH20 0xFFFFFFFFFFFFFFFFFFFFFFFFFFFFFFFFFFFFFFFF AND DUP2 MSTORE POP POP SWAP2 POP POP SWAP2 SWAP1 POP JUMP JUMPDEST PUSH2 0x296 PUSH2 0x5A5 JUMP JUMPDEST PUSH0 PUSH1 0x2 PUSH0 DUP5 DUP2 MSTORE PUSH1 0x20 ADD SWAP1 DUP2 MSTORE PUSH1 0x20 ADD PUSH0 KECCAK256 SLOAD SWAP1 POP PUSH0 DUP2 DUP2 SLOAD DUP2 LT PUSH2 0x2BE JUMPI PUSH2 0x2BD PUSH2 0x83B JUMP JUMPDEST JUMPDEST SWAP1 PUSH0 MSTORE PUSH1 0x20 PUSH0 KECCAK256 SWAP1 PUSH1 0x2 MUL ADD PUSH1 0x40 MLOAD DUP1 PUSH1 0x40 ADD PUSH1 0x40 MSTORE SWAP1 DUP2 PUSH0 DUP3 ADD SLOAD DUP2 MSTORE PUSH1 0x20 ADD PUSH1 0x1 DUP3 ADD PUSH0 SWAP1 SLOAD SWAP1 PUSH2 0x100 EXP SWAP1 DIV PUSH20 0xFFFFFFFFFFFFFFFFFFFFFFFFFFFFFFFFFFFFFFFF AND PUSH20 0xFFFFFFFFFFFFFFFFFFFFFFFFFFFFFFFFFFFFFFFF AND PUSH20 0xFFFFFFFFFFFFFFFFFFFFFFFFFFFFFFFFFFFFFFFF AND DUP2 MSTORE POP POP SWAP2 POP POP SWAP2 SWAP1 POP JUMP JUMPDEST PUSH0 PUSH1 0x4 PUSH0 DUP4 PUSH20 0xFFFFFFFFFFFFFFFFFFFFFFFFFFFFFFFFFFFFFFFF AND PUSH20 0xFFFFFFFFFFFFFFFFFFFFFFFFFFFFFFFFFFFFFFFF AND DUP2 MSTORE PUSH1 0x20 ADD SWAP1 DUP2 MSTORE PUSH1 0x20 ADD PUSH0 KECCAK256 PUSH0 SWAP1 SLOAD SWAP1 PUSH2 0x100 EXP SWAP1 DIV PUSH1 0xFF AND ISZERO PUSH2 0x3C6 JUMPI PUSH1 0x40 MLOAD PUSH32 0x8C379A000000000000000000000000000000000000000000000000000000000 DUP2 MSTORE PUSH1 0x4 ADD PUSH2 0x3BD SWAP1 PUSH2 0x8C2 JUMP JUMPDEST PUSH1 0x40 MLOAD DUP1 SWAP2 SUB SWAP1 REVERT JUMPDEST PUSH0 PUSH1 0x1 PUSH0 DUP2 SLOAD DUP1 SWAP3 SWAP2 SWAP1 PUSH2 0x3D9 SWAP1 PUSH2 0x90D JUMP JUMPDEST SWAP2 SWAP1 POP SSTORE SWAP1 POP PUSH0 PUSH1 0x40 MLOAD DUP1 PUSH1 0x40 ADD PUSH1 0x40 MSTORE DUP1 DUP4 DUP2 MSTORE PUSH1 0x20 ADD DUP6 PUSH20 0xFFFFFFFFFFFFFFFFFFFFFFFFFFFFFFFFFFFFFFFF AND DUP2 MSTORE POP SWAP1 POP PUSH0 DUP2 SWAP1 DUP1 PUSH1 0x1 DUP2 SLOAD ADD DUP1 DUP3 SSTORE DUP1 SWAP2 POP POP PUSH1 0x1 SWAP1 SUB SWAP1 PUSH0 MSTORE PUSH1 0x20 PUSH0 KECCAK256 SWAP1 PUSH1 0x2 MUL ADD PUSH0 SWAP1 SWAP2 SWAP1 SWAP2 SWAP1 SWAP2 POP PUSH0 DUP3 ADD MLOAD DUP2 PUSH0 ADD SSTORE PUSH1 0x20 DUP3 ADD MLOAD DUP2 PUSH1 0x1 ADD PUSH0 PUSH2 0x100 EXP DUP2 SLOAD DUP2 PUSH20 0xFFFFFFFFFFFFFFFFFFFFFFFFFFFFFFFFFFFFFFFF MUL NOT AND SWAP1 DUP4 PUSH20 0xFFFFFFFFFFFFFFFFFFFFFFFFFFFFFFFFFFFFFFFF AND MUL OR SWAP1 SSTORE POP POP POP PUSH0 PUSH1 0x1 PUSH0 DUP1 SLOAD SWAP1 POP PUSH2 0x497 SWAP2 SWAP1 PUSH2 0x954 JUMP JUMPDEST SWAP1 POP DUP1 PUSH1 0x2 PUSH0 DUP6 DUP2 MSTORE PUSH1 0x20 ADD SWAP1 DUP2 MSTORE PUSH1 0x20 ADD PUSH0 KECCAK256 DUP2 SWAP1 SSTORE POP DUP1 PUSH1 0x3 PUSH0 DUP8 PUSH20 0xFFFFFFFFFFFFFFFFFFFFFFFFFFFFFFFFFFFFFFFF AND PUSH20 0xFFFFFFFFFFFFFFFFFFFFFFFFFFFFFFFFFFFFFFFF AND DUP2 MSTORE PUSH1 0x20 ADD SWAP1 DUP2 MSTORE PUSH1 0x20 ADD PUSH0 KECCAK256 DUP2 SWAP1 SSTORE POP PUSH1 0x1 PUSH1 0x4 PUSH0 DUP8 PUSH20 0xFFFFFFFFFFFFFFFFFFFFFFFFFFFFFFFFFFFFFFFF AND PUSH20 0xFFFFFFFFFFFFFFFFFFFFFFFFFFFFFFFFFFFFFFFF AND DUP2 MSTORE PUSH1 0x20 ADD SWAP1 DUP2 MSTORE PUSH1 0x20 ADD PUSH0 KECCAK256 PUSH0 PUSH2 0x100 EXP DUP2 SLOAD DUP2 PUSH1 0xFF MUL NOT AND SWAP1 DUP4 ISZERO ISZERO MUL OR SWAP1 SSTORE POP PUSH0 PUSH1 0x5 PUSH0 DUP8 PUSH20 0xFFFFFFFFFFFFFFFFFFFFFFFFFFFFFFFFFFFFFFFF AND PUSH20 0xFFFFFFFFFFFFFFFFFFFFFFFFFFFFFFFFFFFFFFFF AND DUP2 MSTORE PUSH1 0x20 ADD SWAP1 DUP2 MSTORE PUSH1 0x20 ADD PUSH0 KECCAK256 PUSH0 PUSH2 0x100 EXP DUP2 SLOAD DUP2 PUSH1 0xFF MUL NOT AND SWAP1 DUP4 ISZERO ISZERO MUL OR SWAP1 SSTORE POP DUP3 SWAP4 POP POP POP POP SWAP2 SWAP1 POP JUMP JUMPDEST PUSH1 0x40 MLOAD DUP1 PUSH1 0x40 ADD PUSH1 0x40 MSTORE DUP1 PUSH0 DUP2 MSTORE PUSH1 0x20 ADD PUSH0 PUSH20 0xFFFFFFFFFFFFFFFFFFFFFFFFFFFFFFFFFFFFFFFF AND DUP2 MSTORE POP SWAP1 JUMP JUMPDEST PUSH0 DUP2 MLOAD SWAP1 POP SWAP2 SWAP1 POP JUMP JUMPDEST PUSH0 DUP3 DUP3 MSTORE PUSH1 0x20 DUP3 ADD SWAP1 POP SWAP3 SWAP2 POP POP JUMP JUMPDEST PUSH0 DUP2 SWAP1 POP PUSH1 0x20 DUP3 ADD SWAP1 POP SWAP2 SWAP1 POP JUMP JUMPDEST PUSH0 DUP2 SWAP1 POP SWAP2 SWAP1 POP JUMP JUMPDEST PUSH2 0x60E DUP2 PUSH2 0x5FC JUMP JUMPDEST DUP3 MSTORE POP POP JUMP JUMPDEST PUSH0 PUSH20 0xFFFFFFFFFFFFFFFFFFFFFFFFFFFFFFFFFFFFFFFF DUP3 AND SWAP1 POP SWAP2 SWAP1 POP JUMP JUMPDEST PUSH0 PUSH2 0x63D DUP3 PUSH2 0x614 JUMP JUMPDEST SWAP1 POP SWAP2 SWAP1 POP JUMP JUMPDEST PUSH2 0x64D DUP2 PUSH2 0x633 JUMP JUMPDEST DUP3 MSTORE POP POP JUMP JUMPDEST PUSH1 0x40 DUP3 ADD PUSH0 DUP3 ADD MLOAD PUSH2 0x667 PUSH0 DUP6 ADD DUP3 PUSH2 0x605 JUMP JUMPDEST POP PUSH1 0x20 DUP3 ADD MLOAD PUSH2 0x67A PUSH1 0x20 DUP6 ADD DUP3 PUSH2 0x644 JUMP JUMPDEST POP POP POP POP JUMP JUMPDEST PUSH0 PUSH2 0x68B DUP4 DUP4 PUSH2 0x653 JUMP JUMPDEST PUSH1 0x40 DUP4 ADD SWAP1 POP SWAP3 SWAP2 POP POP JUMP JUMPDEST PUSH0 PUSH1 0x20 DUP3 ADD SWAP1 POP SWAP2 SWAP1 POP JUMP JUMPDEST PUSH0 PUSH2 0x6AD DUP3 PUSH2 0x5D3 JUMP JUMPDEST PUSH2 0x6B7 DUP2 DUP6 PUSH2 0x5DD JUMP JUMPDEST SWAP4 POP PUSH2 0x6C2 DUP4 PUSH2 0x5ED JUMP JUMPDEST DUP1 PUSH0 JUMPDEST DUP4 DUP2 LT ISZERO PUSH2 0x6F2 JUMPI DUP2 MLOAD PUSH2 0x6D9 DUP9 DUP3 PUSH2 0x680 JUMP JUMPDEST SWAP8 POP PUSH2 0x6E4 DUP4 PUSH2 0x697 JUMP JUMPDEST SWAP3 POP POP PUSH1 0x1 DUP2 ADD SWAP1 POP PUSH2 0x6C5 JUMP JUMPDEST POP DUP6 SWAP4 POP POP POP POP SWAP3 SWAP2 POP POP JUMP JUMPDEST PUSH0 PUSH1 0x20 DUP3 ADD SWAP1 POP DUP2 DUP2 SUB PUSH0 DUP4 ADD MSTORE PUSH2 0x717 DUP2 DUP5 PUSH2 0x6A3 JUMP JUMPDEST SWAP1 POP SWAP3 SWAP2 POP POP JUMP JUMPDEST PUSH0 DUP1 REVERT JUMPDEST PUSH2 0x72C DUP2 PUSH2 0x633 JUMP JUMPDEST DUP2 EQ PUSH2 0x736 JUMPI PUSH0 DUP1 REVERT JUMPDEST POP JUMP JUMPDEST PUSH0 DUP2 CALLDATALOAD SWAP1 POP PUSH2 0x747 DUP2 PUSH2 0x723 JUMP JUMPDEST SWAP3 SWAP2 POP POP JUMP JUMPDEST PUSH0 PUSH1 0x20 DUP3 DUP5 SUB SLT ISZERO PUSH2 0x762 JUMPI PUSH2 0x761 PUSH2 0x71F JUMP JUMPDEST JUMPDEST PUSH0 PUSH2 0x76F DUP5 DUP3 DUP6 ADD PUSH2 0x739 JUMP JUMPDEST SWAP2 POP POP SWAP3 SWAP2 POP POP JUMP JUMPDEST PUSH1 0x40 DUP3 ADD PUSH0 DUP3 ADD MLOAD PUSH2 0x78C PUSH0 DUP6 ADD DUP3 PUSH2 0x605 JUMP JUMPDEST POP PUSH1 0x20 DUP3 ADD MLOAD PUSH2 0x79F PUSH1 0x20 DUP6 ADD DUP3 PUSH2 0x644 JUMP JUMPDEST POP POP POP POP JUMP JUMPDEST PUSH0 PUSH1 0x40 DUP3 ADD SWAP1 POP PUSH2 0x7B8 PUSH0 DUP4 ADD DUP5 PUSH2 0x778 JUMP JUMPDEST SWAP3 SWAP2 POP POP JUMP JUMPDEST PUSH2 0x7C7 DUP2 PUSH2 0x5FC JUMP JUMPDEST DUP2 EQ PUSH2 0x7D1 JUMPI PUSH0 DUP1 REVERT JUMPDEST POP JUMP JUMPDEST PUSH0 DUP2 CALLDATALOAD SWAP1 POP PUSH2 0x7E2 DUP2 PUSH2 0x7BE JUMP JUMPDEST SWAP3 SWAP2 POP POP JUMP JUMPDEST PUSH0 PUSH1 0x20 DUP3 DUP5 SUB SLT ISZERO PUSH2 0x7FD JUMPI PUSH2 0x7FC PUSH2 0x71F JUMP JUMPDEST JUMPDEST PUSH0 PUSH2 0x80A DUP5 DUP3 DUP6 ADD PUSH2 0x7D4 JUMP JUMPDEST SWAP2 POP POP SWAP3 SWAP2 POP POP JUMP JUMPDEST PUSH2 0x81C DUP2 PUSH2 0x5FC JUMP JUMPDEST DUP3 MSTORE POP POP JUMP JUMPDEST PUSH0 PUSH1 0x20 DUP3 ADD SWAP1 POP PUSH2 0x835 PUSH0 DUP4 ADD DUP5 PUSH2 0x813 JUMP JUMPDEST SWAP3 SWAP2 POP POP JUMP JUMPDEST PUSH32 0x4E487B7100000000000000000000000000000000000000000000000000000000 PUSH0 MSTORE PUSH1 0x32 PUSH1 0x4 MSTORE PUSH1 0x24 PUSH0 REVERT JUMPDEST PUSH0 DUP3 DUP3 MSTORE PUSH1 0x20 DUP3 ADD SWAP1 POP SWAP3 SWAP2 POP POP JUMP JUMPDEST PUSH32 0x436F6E7472616374204164647265737320616C72656164792065786973747300 PUSH0 DUP3 ADD MSTORE POP JUMP JUMPDEST PUSH0 PUSH2 0x8AC PUSH1 0x1F DUP4 PUSH2 0x868 JUMP JUMPDEST SWAP2 POP PUSH2 0x8B7 DUP3 PUSH2 0x878 JUMP JUMPDEST PUSH1 0x20 DUP3 ADD SWAP1 POP SWAP2 SWAP1 POP JUMP JUMPDEST PUSH0 PUSH1 0x20 DUP3 ADD SWAP1 POP DUP2 DUP2 SUB PUSH0 DUP4 ADD MSTORE PUSH2 0x8D9 DUP2 PUSH2 0x8A0 JUMP JUMPDEST SWAP1 POP SWAP2 SWAP1 POP JUMP JUMPDEST PUSH32 0x4E487B7100000000000000000000000000000000000000000000000000000000 PUSH0 MSTORE PUSH1 0x11 PUSH1 0x4 MSTORE PUSH1 0x24 PUSH0 REVERT JUMPDEST PUSH0 PUSH2 0x917 DUP3 PUSH2 0x5FC JUMP JUMPDEST SWAP2 POP PUSH32 0xFFFFFFFFFFFFFFFFFFFFFFFFFFFFFFFFFFFFFFFFFFFFFFFFFFFFFFFFFFFFFFFF DUP3 SUB PUSH2 0x949 JUMPI PUSH2 0x948 PUSH2 0x8E0 JUMP JUMPDEST JUMPDEST PUSH1 0x1 DUP3 ADD SWAP1 POP SWAP2 SWAP1 POP JUMP JUMPDEST PUSH0 PUSH2 0x95E DUP3 PUSH2 0x5FC JUMP JUMPDEST SWAP2 POP PUSH2 0x969 DUP4 PUSH2 0x5FC JUMP JUMPDEST SWAP3 POP DUP3 DUP3 SUB SWAP1 POP DUP2 DUP2 GT ISZERO PUSH2 0x981 JUMPI PUSH2 0x980 PUSH2 0x8E0 JUMP JUMPDEST JUMPDEST SWAP3 SWAP2 POP POP JUMP INVALID LOG2 PUSH5 0x6970667358 0x22 SLT KECCAK256 0xB7 PUSH28 0x431054D0D225E8BAD2582088E17A23513BD8D2A4A98FD63310183378 0xB2 DUP16 PUSH5 0x736F6C6343 STOP ADDMOD XOR STOP CALLER "
		},
		"gasEstimates": {
			"creation": {
				"codeDepositCost": "498600",
				"executionCost": "22634",
				"totalCost": "521234"
			},
			"external": {
				"getAllDAOs()": "infinite",
				"getDAOByDAOAddress(address)": "infinite",
				"getDAOByDAOId(uint256)": "infinite",
				"listDAO(address)": "infinite"
			}
		},
		"methodIdentifiers": {
			"getAllDAOs()": "3cb2c68a",
			"getDAOByDAOAddress(address)": "4055837d",
			"getDAOByDAOId(uint256)": "9b52a763",
			"listDAO(address)": "ec0b31de"
		}
	},
	"abi": [
		{
			"inputs": [],
			"name": "getAllDAOs",
			"outputs": [
				{
					"components": [
						{
							"internalType": "uint256",
							"name": "daoId",
							"type": "uint256"
						},
						{
							"internalType": "address",
							"name": "daoAddress",
							"type": "address"
						}
					],
					"internalType": "struct DAOList.DAO[]",
					"name": "",
					"type": "tuple[]"
				}
			],
			"stateMutability": "view",
			"type": "function"
		},
		{
			"inputs": [
				{
					"internalType": "address",
					"name": "_daoAddress",
					"type": "address"
				}
			],
			"name": "getDAOByDAOAddress",
			"outputs": [
				{
					"components": [
						{
							"internalType": "uint256",
							"name": "daoId",
							"type": "uint256"
						},
						{
							"internalType": "address",
							"name": "daoAddress",
							"type": "address"
						}
					],
					"internalType": "struct DAOList.DAO",
					"name": "",
					"type": "tuple"
				}
			],
			"stateMutability": "view",
			"type": "function"
		},
		{
			"inputs": [
				{
					"internalType": "uint256",
					"name": "_daoId",
					"type": "uint256"
				}
			],
			"name": "getDAOByDAOId",
			"outputs": [
				{
					"components": [
						{
							"internalType": "uint256",
							"name": "daoId",
							"type": "uint256"
						},
						{
							"internalType": "address",
							"name": "daoAddress",
							"type": "address"
						}
					],
					"internalType": "struct DAOList.DAO",
					"name": "",
					"type": "tuple"
				}
			],
			"stateMutability": "view",
			"type": "function"
		},
		{
			"inputs": [
				{
					"internalType": "address",
					"name": "_daoAddress",
					"type": "address"
				}
			],
			"name": "listDAO",
			"outputs": [
				{
					"internalType": "uint256",
					"name": "",
					"type": "uint256"
				}
			],
			"stateMutability": "nonpayable",
			"type": "function"
		}
	]
}