{
	"data": {
		"bytecode": {
			"linkReferences": {},
			"object": "608060405234801562000010575f80fd5b5060405162001401380380620014018339818101604052810190620000369190620000e2565b8060015f6101000a81548173ffffffffffffffffffffffffffffffffffffffff021916908373ffffffffffffffffffffffffffffffffffffffff1602179055505062000112565b5f80fd5b5f73ffffffffffffffffffffffffffffffffffffffff82169050919050565b5f620000ac8262000081565b9050919050565b620000be81620000a0565b8114620000c9575f80fd5b50565b5f81519050620000dc81620000b3565b92915050565b5f60208284031215620000fa57620000f96200007d565b5b5f6200010984828501620000cc565b91505092915050565b6112e180620001205f395ff3fe608060405234801561000f575f80fd5b506004361061007b575f3560e01c8063a2a3094911610059578063a2a3094914610101578063c9d27afe1461011d578063d9a94d9414610139578063fcea1384146101575761007b565b8063013cf08b1461007f5780630d61b519146100b557806343859632146100d1575b5f80fd5b61009960048036038101906100949190610bbb565b610187565b6040516100ac9796959493929190610c4e565b60405180910390f35b6100cf60048036038101906100ca9190610bbb565b61023c565b005b6100eb60048036038101906100e69190610ce5565b6103f8565b6040516100f89190610d23565b60405180910390f35b61011b60048036038101906101169190610d3c565b610422565b005b61013760048036038101906101329190610db6565b610702565b005b610141610b42565b60405161014e9190610e4f565b60405180910390f35b610171600480360381019061016c9190610e9b565b610b67565b60405161017e9190610d23565b60405180910390f35b5f8181548110610195575f80fd5b905f5260205f2090600702015f91509050805f015f9054906101000a900473ffffffffffffffffffffffffffffffffffffffff1690806001015f9054906101000a900473ffffffffffffffffffffffffffffffffffffffff1690806002015f9054906101000a900473ffffffffffffffffffffffffffffffffffffffff1690806003015490806004015490806005015490806006015f9054906101000a900460ff16905087565b5f805490508110610282576040517f08c379a000000000000000000000000000000000000000000000000000000000815260040161027990610f20565b60405180910390fd5b5f80828154811061029657610295610f3e565b5b905f5260205f2090600702019050806006015f9054906101000a900460ff16156102f5576040517f08c379a00000000000000000000000000000000000000000000000000000000081526004016102ec90610fb5565b60405180910390fd5b5f816005015482600401541190505f826001015f9054906101000a900473ffffffffffffffffffffffffffffffffffffffff16836002015f9054906101000a900473ffffffffffffffffffffffffffffffffffffffff1660405160200161035d929190611018565b6040516020818303038152906040528051906020012090508160035f8381526020019081526020015f205f6101000a81548160ff0219169083151502179055506001836006015f6101000a81548160ff0219169083151502179055507f948f4a9cd986f1118c3fbd459f7a22b23c0693e1ca3ef06a6a8be5aa7d39cc0384836040516103ea929190611043565b60405180910390a150505050565b6002602052815f5260405f20602052805f5260405f205f915091509054906101000a900460ff1681565b5f60015f9054906101000a900473ffffffffffffffffffffffffffffffffffffffff1673ffffffffffffffffffffffffffffffffffffffff166370a08231336040518263ffffffff1660e01b815260040161047d919061106a565b602060405180830381865afa158015610498573d5f803e3d5ffd5b505050506040513d601f19601f820116820180604052508101906104bc9190611097565b116104fc576040517f08c379a00000000000000000000000000000000000000000000000000000000081526004016104f39061110c565b60405180910390fd5b5f6040518060e001604052803373ffffffffffffffffffffffffffffffffffffffff1681526020018573ffffffffffffffffffffffffffffffffffffffff1681526020018473ffffffffffffffffffffffffffffffffffffffff1681526020018381526020015f81526020015f81526020015f1515815250908060018154018082558091505060019003905f5260205f2090600702015f909190919091505f820151815f015f6101000a81548173ffffffffffffffffffffffffffffffffffffffff021916908373ffffffffffffffffffffffffffffffffffffffff1602179055506020820151816001015f6101000a81548173ffffffffffffffffffffffffffffffffffffffff021916908373ffffffffffffffffffffffffffffffffffffffff1602179055506040820151816002015f6101000a81548173ffffffffffffffffffffffffffffffffffffffff021916908373ffffffffffffffffffffffffffffffffffffffff160217905550606082015181600301556080820151816004015560a0820151816005015560c0820151816006015f6101000a81548160ff02191690831515021790555050505f60015f805490506106bb9190611157565b90507fd4d57ddd80c3a0225990d2b6fa18e3656b21cfa2fea3b2f3677dc460edbb1d9681338686866040516106f495949392919061118a565b60405180910390a150505050565b5f60015f9054906101000a900473ffffffffffffffffffffffffffffffffffffffff1673ffffffffffffffffffffffffffffffffffffffff166370a08231336040518263ffffffff1660e01b815260040161075d919061106a565b602060405180830381865afa158015610778573d5f803e3d5ffd5b505050506040513d601f19601f8201168201806040525081019061079c9190611097565b116107dc576040517f08c379a00000000000000000000000000000000000000000000000000000000081526004016107d39061110c565b60405180910390fd5b5f805490508210610822576040517f08c379a000000000000000000000000000000000000000000000000000000000815260040161081990610f20565b60405180910390fd5b60025f8381526020019081526020015f205f3373ffffffffffffffffffffffffffffffffffffffff1673ffffffffffffffffffffffffffffffffffffffff1681526020019081526020015f205f9054906101000a900460ff16156108bb576040517f08c379a00000000000000000000000000000000000000000000000000000000081526004016108b290611225565b60405180910390fd5b5f8083815481106108cf576108ce610f3e565b5b905f5260205f2090600702019050806006015f9054906101000a900460ff161561092e576040517f08c379a000000000000000000000000000000000000000000000000000000000815260040161092590610fb5565b60405180910390fd5b81156109eb5760015f9054906101000a900473ffffffffffffffffffffffffffffffffffffffff1673ffffffffffffffffffffffffffffffffffffffff166370a08231336040518263ffffffff1660e01b815260040161098e919061106a565b602060405180830381865afa1580156109a9573d5f803e3d5ffd5b505050506040513d601f19601f820116820180604052508101906109cd9190611097565b816004015f8282546109df9190611243565b92505081905550610a9e565b60015f9054906101000a900473ffffffffffffffffffffffffffffffffffffffff1673ffffffffffffffffffffffffffffffffffffffff166370a08231336040518263ffffffff1660e01b8152600401610a45919061106a565b602060405180830381865afa158015610a60573d5f803e3d5ffd5b505050506040513d601f19601f82011682018060405250810190610a849190611097565b816005015f828254610a969190611243565b925050819055505b600160025f8581526020019081526020015f205f3373ffffffffffffffffffffffffffffffffffffffff1673ffffffffffffffffffffffffffffffffffffffff1681526020019081526020015f205f6101000a81548160ff0219169083151502179055507ff2913dbe661ee2acc4a046d8fbcdc792373bda34c41c6086484b5345e5785e5f833384604051610b3593929190611276565b60405180910390a1505050565b60015f9054906101000a900473ffffffffffffffffffffffffffffffffffffffff1681565b6003602052805f5260405f205f915054906101000a900460ff1681565b5f80fd5b5f819050919050565b610b9a81610b88565b8114610ba4575f80fd5b50565b5f81359050610bb581610b91565b92915050565b5f60208284031215610bd057610bcf610b84565b5b5f610bdd84828501610ba7565b91505092915050565b5f73ffffffffffffffffffffffffffffffffffffffff82169050919050565b5f610c0f82610be6565b9050919050565b610c1f81610c05565b82525050565b610c2e81610b88565b82525050565b5f8115159050919050565b610c4881610c34565b82525050565b5f60e082019050610c615f83018a610c16565b610c6e6020830189610c16565b610c7b6040830188610c16565b610c886060830187610c25565b610c956080830186610c25565b610ca260a0830185610c25565b610caf60c0830184610c3f565b98975050505050505050565b610cc481610c05565b8114610cce575f80fd5b50565b5f81359050610cdf81610cbb565b92915050565b5f8060408385031215610cfb57610cfa610b84565b5b5f610d0885828601610ba7565b9250506020610d1985828601610cd1565b9150509250929050565b5f602082019050610d365f830184610c3f565b92915050565b5f805f60608486031215610d5357610d52610b84565b5b5f610d6086828701610cd1565b9350506020610d7186828701610cd1565b9250506040610d8286828701610ba7565b9150509250925092565b610d9581610c34565b8114610d9f575f80fd5b50565b5f81359050610db081610d8c565b92915050565b5f8060408385031215610dcc57610dcb610b84565b5b5f610dd985828601610ba7565b9250506020610dea85828601610da2565b9150509250929050565b5f819050919050565b5f610e17610e12610e0d84610be6565b610df4565b610be6565b9050919050565b5f610e2882610dfd565b9050919050565b5f610e3982610e1e565b9050919050565b610e4981610e2f565b82525050565b5f602082019050610e625f830184610e40565b92915050565b5f819050919050565b610e7a81610e68565b8114610e84575f80fd5b50565b5f81359050610e9581610e71565b92915050565b5f60208284031215610eb057610eaf610b84565b5b5f610ebd84828501610e87565b91505092915050565b5f82825260208201905092915050565b7f496e76616c69642070726f706f73616c204944000000000000000000000000005f82015250565b5f610f0a601383610ec6565b9150610f1582610ed6565b602082019050919050565b5f6020820190508181035f830152610f3781610efe565b9050919050565b7f4e487b71000000000000000000000000000000000000000000000000000000005f52603260045260245ffd5b7f50726f706f73616c20616c7265616479206578656375746564000000000000005f82015250565b5f610f9f601983610ec6565b9150610faa82610f6b565b602082019050919050565b5f6020820190508181035f830152610fcc81610f93565b9050919050565b5f8160601b9050919050565b5f610fe982610fd3565b9050919050565b5f610ffa82610fdf565b9050919050565b61101261100d82610c05565b610ff0565b82525050565b5f6110238285611001565b6014820191506110338284611001565b6014820191508190509392505050565b5f6040820190506110565f830185610c25565b6110636020830184610c3f565b9392505050565b5f60208201905061107d5f830184610c16565b92915050565b5f8151905061109181610b91565b92915050565b5f602082840312156110ac576110ab610b84565b5b5f6110b984828501611083565b91505092915050565b7f4e6f74206120746f6b656e20686f6c64657200000000000000000000000000005f82015250565b5f6110f6601283610ec6565b9150611101826110c2565b602082019050919050565b5f6020820190508181035f830152611123816110ea565b9050919050565b7f4e487b71000000000000000000000000000000000000000000000000000000005f52601160045260245ffd5b5f61116182610b88565b915061116c83610b88565b92508282039050818111156111845761118361112a565b5b92915050565b5f60a08201905061119d5f830188610c25565b6111aa6020830187610c16565b6111b76040830186610c16565b6111c46060830185610c16565b6111d16080830184610c25565b9695505050505050565b7f416c726561647920766f746564000000000000000000000000000000000000005f82015250565b5f61120f600d83610ec6565b915061121a826111db565b602082019050919050565b5f6020820190508181035f83015261123c81611203565b9050919050565b5f61124d82610b88565b915061125883610b88565b92508282019050808211156112705761126f61112a565b5b92915050565b5f6060820190506112895f830186610c25565b6112966020830185610c16565b6112a36040830184610c3f565b94935050505056fea2646970667358221220098fe5f41c6cdb6589062ae973e3955b27bdffe5e94b9b6a925bdf8dcab534dd64736f6c63430008180033",
			"opcodes": "PUSH1 0x80 PUSH1 0x40 MSTORE CALLVALUE DUP1 ISZERO PUSH3 0x10 JUMPI PUSH0 DUP1 REVERT JUMPDEST POP PUSH1 0x40 MLOAD PUSH3 0x1401 CODESIZE SUB DUP1 PUSH3 0x1401 DUP4 CODECOPY DUP2 DUP2 ADD PUSH1 0x40 MSTORE DUP2 ADD SWAP1 PUSH3 0x36 SWAP2 SWAP1 PUSH3 0xE2 JUMP JUMPDEST DUP1 PUSH1 0x1 PUSH0 PUSH2 0x100 EXP DUP2 SLOAD DUP2 PUSH20 0xFFFFFFFFFFFFFFFFFFFFFFFFFFFFFFFFFFFFFFFF MUL NOT AND SWAP1 DUP4 PUSH20 0xFFFFFFFFFFFFFFFFFFFFFFFFFFFFFFFFFFFFFFFF AND MUL OR SWAP1 SSTORE POP POP PUSH3 0x112 JUMP JUMPDEST PUSH0 DUP1 REVERT JUMPDEST PUSH0 PUSH20 0xFFFFFFFFFFFFFFFFFFFFFFFFFFFFFFFFFFFFFFFF DUP3 AND SWAP1 POP SWAP2 SWAP1 POP JUMP JUMPDEST PUSH0 PUSH3 0xAC DUP3 PUSH3 0x81 JUMP JUMPDEST SWAP1 POP SWAP2 SWAP1 POP JUMP JUMPDEST PUSH3 0xBE DUP2 PUSH3 0xA0 JUMP JUMPDEST DUP2 EQ PUSH3 0xC9 JUMPI PUSH0 DUP1 REVERT JUMPDEST POP JUMP JUMPDEST PUSH0 DUP2 MLOAD SWAP1 POP PUSH3 0xDC DUP2 PUSH3 0xB3 JUMP JUMPDEST SWAP3 SWAP2 POP POP JUMP JUMPDEST PUSH0 PUSH1 0x20 DUP3 DUP5 SUB SLT ISZERO PUSH3 0xFA JUMPI PUSH3 0xF9 PUSH3 0x7D JUMP JUMPDEST JUMPDEST PUSH0 PUSH3 0x109 DUP5 DUP3 DUP6 ADD PUSH3 0xCC JUMP JUMPDEST SWAP2 POP POP SWAP3 SWAP2 POP POP JUMP JUMPDEST PUSH2 0x12E1 DUP1 PUSH3 0x120 PUSH0 CODECOPY PUSH0 RETURN INVALID PUSH1 0x80 PUSH1 0x40 MSTORE CALLVALUE DUP1 ISZERO PUSH2 0xF JUMPI PUSH0 DUP1 REVERT JUMPDEST POP PUSH1 0x4 CALLDATASIZE LT PUSH2 0x7B JUMPI PUSH0 CALLDATALOAD PUSH1 0xE0 SHR DUP1 PUSH4 0xA2A30949 GT PUSH2 0x59 JUMPI DUP1 PUSH4 0xA2A30949 EQ PUSH2 0x101 JUMPI DUP1 PUSH4 0xC9D27AFE EQ PUSH2 0x11D JUMPI DUP1 PUSH4 0xD9A94D94 EQ PUSH2 0x139 JUMPI DUP1 PUSH4 0xFCEA1384 EQ PUSH2 0x157 JUMPI PUSH2 0x7B JUMP JUMPDEST DUP1 PUSH4 0x13CF08B EQ PUSH2 0x7F JUMPI DUP1 PUSH4 0xD61B519 EQ PUSH2 0xB5 JUMPI DUP1 PUSH4 0x43859632 EQ PUSH2 0xD1 JUMPI JUMPDEST PUSH0 DUP1 REVERT JUMPDEST PUSH2 0x99 PUSH1 0x4 DUP1 CALLDATASIZE SUB DUP2 ADD SWAP1 PUSH2 0x94 SWAP2 SWAP1 PUSH2 0xBBB JUMP JUMPDEST PUSH2 0x187 JUMP JUMPDEST PUSH1 0x40 MLOAD PUSH2 0xAC SWAP8 SWAP7 SWAP6 SWAP5 SWAP4 SWAP3 SWAP2 SWAP1 PUSH2 0xC4E JUMP JUMPDEST PUSH1 0x40 MLOAD DUP1 SWAP2 SUB SWAP1 RETURN JUMPDEST PUSH2 0xCF PUSH1 0x4 DUP1 CALLDATASIZE SUB DUP2 ADD SWAP1 PUSH2 0xCA SWAP2 SWAP1 PUSH2 0xBBB JUMP JUMPDEST PUSH2 0x23C JUMP JUMPDEST STOP JUMPDEST PUSH2 0xEB PUSH1 0x4 DUP1 CALLDATASIZE SUB DUP2 ADD SWAP1 PUSH2 0xE6 SWAP2 SWAP1 PUSH2 0xCE5 JUMP JUMPDEST PUSH2 0x3F8 JUMP JUMPDEST PUSH1 0x40 MLOAD PUSH2 0xF8 SWAP2 SWAP1 PUSH2 0xD23 JUMP JUMPDEST PUSH1 0x40 MLOAD DUP1 SWAP2 SUB SWAP1 RETURN JUMPDEST PUSH2 0x11B PUSH1 0x4 DUP1 CALLDATASIZE SUB DUP2 ADD SWAP1 PUSH2 0x116 SWAP2 SWAP1 PUSH2 0xD3C JUMP JUMPDEST PUSH2 0x422 JUMP JUMPDEST STOP JUMPDEST PUSH2 0x137 PUSH1 0x4 DUP1 CALLDATASIZE SUB DUP2 ADD SWAP1 PUSH2 0x132 SWAP2 SWAP1 PUSH2 0xDB6 JUMP JUMPDEST PUSH2 0x702 JUMP JUMPDEST STOP JUMPDEST PUSH2 0x141 PUSH2 0xB42 JUMP JUMPDEST PUSH1 0x40 MLOAD PUSH2 0x14E SWAP2 SWAP1 PUSH2 0xE4F JUMP JUMPDEST PUSH1 0x40 MLOAD DUP1 SWAP2 SUB SWAP1 RETURN JUMPDEST PUSH2 0x171 PUSH1 0x4 DUP1 CALLDATASIZE SUB DUP2 ADD SWAP1 PUSH2 0x16C SWAP2 SWAP1 PUSH2 0xE9B JUMP JUMPDEST PUSH2 0xB67 JUMP JUMPDEST PUSH1 0x40 MLOAD PUSH2 0x17E SWAP2 SWAP1 PUSH2 0xD23 JUMP JUMPDEST PUSH1 0x40 MLOAD DUP1 SWAP2 SUB SWAP1 RETURN JUMPDEST PUSH0 DUP2 DUP2 SLOAD DUP2 LT PUSH2 0x195 JUMPI PUSH0 DUP1 REVERT JUMPDEST SWAP1 PUSH0 MSTORE PUSH1 0x20 PUSH0 KECCAK256 SWAP1 PUSH1 0x7 MUL ADD PUSH0 SWAP2 POP SWAP1 POP DUP1 PUSH0 ADD PUSH0 SWAP1 SLOAD SWAP1 PUSH2 0x100 EXP SWAP1 DIV PUSH20 0xFFFFFFFFFFFFFFFFFFFFFFFFFFFFFFFFFFFFFFFF AND SWAP1 DUP1 PUSH1 0x1 ADD PUSH0 SWAP1 SLOAD SWAP1 PUSH2 0x100 EXP SWAP1 DIV PUSH20 0xFFFFFFFFFFFFFFFFFFFFFFFFFFFFFFFFFFFFFFFF AND SWAP1 DUP1 PUSH1 0x2 ADD PUSH0 SWAP1 SLOAD SWAP1 PUSH2 0x100 EXP SWAP1 DIV PUSH20 0xFFFFFFFFFFFFFFFFFFFFFFFFFFFFFFFFFFFFFFFF AND SWAP1 DUP1 PUSH1 0x3 ADD SLOAD SWAP1 DUP1 PUSH1 0x4 ADD SLOAD SWAP1 DUP1 PUSH1 0x5 ADD SLOAD SWAP1 DUP1 PUSH1 0x6 ADD PUSH0 SWAP1 SLOAD SWAP1 PUSH2 0x100 EXP SWAP1 DIV PUSH1 0xFF AND SWAP1 POP DUP8 JUMP JUMPDEST PUSH0 DUP1 SLOAD SWAP1 POP DUP2 LT PUSH2 0x282 JUMPI PUSH1 0x40 MLOAD PUSH32 0x8C379A000000000000000000000000000000000000000000000000000000000 DUP2 MSTORE PUSH1 0x4 ADD PUSH2 0x279 SWAP1 PUSH2 0xF20 JUMP JUMPDEST PUSH1 0x40 MLOAD DUP1 SWAP2 SUB SWAP1 REVERT JUMPDEST PUSH0 DUP1 DUP3 DUP2 SLOAD DUP2 LT PUSH2 0x296 JUMPI PUSH2 0x295 PUSH2 0xF3E JUMP JUMPDEST JUMPDEST SWAP1 PUSH0 MSTORE PUSH1 0x20 PUSH0 KECCAK256 SWAP1 PUSH1 0x7 MUL ADD SWAP1 POP DUP1 PUSH1 0x6 ADD PUSH0 SWAP1 SLOAD SWAP1 PUSH2 0x100 EXP SWAP1 DIV PUSH1 0xFF AND ISZERO PUSH2 0x2F5 JUMPI PUSH1 0x40 MLOAD PUSH32 0x8C379A000000000000000000000000000000000000000000000000000000000 DUP2 MSTORE PUSH1 0x4 ADD PUSH2 0x2EC SWAP1 PUSH2 0xFB5 JUMP JUMPDEST PUSH1 0x40 MLOAD DUP1 SWAP2 SUB SWAP1 REVERT JUMPDEST PUSH0 DUP2 PUSH1 0x5 ADD SLOAD DUP3 PUSH1 0x4 ADD SLOAD GT SWAP1 POP PUSH0 DUP3 PUSH1 0x1 ADD PUSH0 SWAP1 SLOAD SWAP1 PUSH2 0x100 EXP SWAP1 DIV PUSH20 0xFFFFFFFFFFFFFFFFFFFFFFFFFFFFFFFFFFFFFFFF AND DUP4 PUSH1 0x2 ADD PUSH0 SWAP1 SLOAD SWAP1 PUSH2 0x100 EXP SWAP1 DIV PUSH20 0xFFFFFFFFFFFFFFFFFFFFFFFFFFFFFFFFFFFFFFFF AND PUSH1 0x40 MLOAD PUSH1 0x20 ADD PUSH2 0x35D SWAP3 SWAP2 SWAP1 PUSH2 0x1018 JUMP JUMPDEST PUSH1 0x40 MLOAD PUSH1 0x20 DUP2 DUP4 SUB SUB DUP2 MSTORE SWAP1 PUSH1 0x40 MSTORE DUP1 MLOAD SWAP1 PUSH1 0x20 ADD KECCAK256 SWAP1 POP DUP2 PUSH1 0x3 PUSH0 DUP4 DUP2 MSTORE PUSH1 0x20 ADD SWAP1 DUP2 MSTORE PUSH1 0x20 ADD PUSH0 KECCAK256 PUSH0 PUSH2 0x100 EXP DUP2 SLOAD DUP2 PUSH1 0xFF MUL NOT AND SWAP1 DUP4 ISZERO ISZERO MUL OR SWAP1 SSTORE POP PUSH1 0x1 DUP4 PUSH1 0x6 ADD PUSH0 PUSH2 0x100 EXP DUP2 SLOAD DUP2 PUSH1 0xFF MUL NOT AND SWAP1 DUP4 ISZERO ISZERO MUL OR SWAP1 SSTORE POP PUSH32 0x948F4A9CD986F1118C3FBD459F7A22B23C0693E1CA3EF06A6A8BE5AA7D39CC03 DUP5 DUP4 PUSH1 0x40 MLOAD PUSH2 0x3EA SWAP3 SWAP2 SWAP1 PUSH2 0x1043 JUMP JUMPDEST PUSH1 0x40 MLOAD DUP1 SWAP2 SUB SWAP1 LOG1 POP POP POP POP JUMP JUMPDEST PUSH1 0x2 PUSH1 0x20 MSTORE DUP2 PUSH0 MSTORE PUSH1 0x40 PUSH0 KECCAK256 PUSH1 0x20 MSTORE DUP1 PUSH0 MSTORE PUSH1 0x40 PUSH0 KECCAK256 PUSH0 SWAP2 POP SWAP2 POP SWAP1 SLOAD SWAP1 PUSH2 0x100 EXP SWAP1 DIV PUSH1 0xFF AND DUP2 JUMP JUMPDEST PUSH0 PUSH1 0x1 PUSH0 SWAP1 SLOAD SWAP1 PUSH2 0x100 EXP SWAP1 DIV PUSH20 0xFFFFFFFFFFFFFFFFFFFFFFFFFFFFFFFFFFFFFFFF AND PUSH20 0xFFFFFFFFFFFFFFFFFFFFFFFFFFFFFFFFFFFFFFFF AND PUSH4 0x70A08231 CALLER PUSH1 0x40 MLOAD DUP3 PUSH4 0xFFFFFFFF AND PUSH1 0xE0 SHL DUP2 MSTORE PUSH1 0x4 ADD PUSH2 0x47D SWAP2 SWAP1 PUSH2 0x106A JUMP JUMPDEST PUSH1 0x20 PUSH1 0x40 MLOAD DUP1 DUP4 SUB DUP2 DUP7 GAS STATICCALL ISZERO DUP1 ISZERO PUSH2 0x498 JUMPI RETURNDATASIZE PUSH0 DUP1 RETURNDATACOPY RETURNDATASIZE PUSH0 REVERT JUMPDEST POP POP POP POP PUSH1 0x40 MLOAD RETURNDATASIZE PUSH1 0x1F NOT PUSH1 0x1F DUP3 ADD AND DUP3 ADD DUP1 PUSH1 0x40 MSTORE POP DUP2 ADD SWAP1 PUSH2 0x4BC SWAP2 SWAP1 PUSH2 0x1097 JUMP JUMPDEST GT PUSH2 0x4FC JUMPI PUSH1 0x40 MLOAD PUSH32 0x8C379A000000000000000000000000000000000000000000000000000000000 DUP2 MSTORE PUSH1 0x4 ADD PUSH2 0x4F3 SWAP1 PUSH2 0x110C JUMP JUMPDEST PUSH1 0x40 MLOAD DUP1 SWAP2 SUB SWAP1 REVERT JUMPDEST PUSH0 PUSH1 0x40 MLOAD DUP1 PUSH1 0xE0 ADD PUSH1 0x40 MSTORE DUP1 CALLER PUSH20 0xFFFFFFFFFFFFFFFFFFFFFFFFFFFFFFFFFFFFFFFF AND DUP2 MSTORE PUSH1 0x20 ADD DUP6 PUSH20 0xFFFFFFFFFFFFFFFFFFFFFFFFFFFFFFFFFFFFFFFF AND DUP2 MSTORE PUSH1 0x20 ADD DUP5 PUSH20 0xFFFFFFFFFFFFFFFFFFFFFFFFFFFFFFFFFFFFFFFF AND DUP2 MSTORE PUSH1 0x20 ADD DUP4 DUP2 MSTORE PUSH1 0x20 ADD PUSH0 DUP2 MSTORE PUSH1 0x20 ADD PUSH0 DUP2 MSTORE PUSH1 0x20 ADD PUSH0 ISZERO ISZERO DUP2 MSTORE POP SWAP1 DUP1 PUSH1 0x1 DUP2 SLOAD ADD DUP1 DUP3 SSTORE DUP1 SWAP2 POP POP PUSH1 0x1 SWAP1 SUB SWAP1 PUSH0 MSTORE PUSH1 0x20 PUSH0 KECCAK256 SWAP1 PUSH1 0x7 MUL ADD PUSH0 SWAP1 SWAP2 SWAP1 SWAP2 SWAP1 SWAP2 POP PUSH0 DUP3 ADD MLOAD DUP2 PUSH0 ADD PUSH0 PUSH2 0x100 EXP DUP2 SLOAD DUP2 PUSH20 0xFFFFFFFFFFFFFFFFFFFFFFFFFFFFFFFFFFFFFFFF MUL NOT AND SWAP1 DUP4 PUSH20 0xFFFFFFFFFFFFFFFFFFFFFFFFFFFFFFFFFFFFFFFF AND MUL OR SWAP1 SSTORE POP PUSH1 0x20 DUP3 ADD MLOAD DUP2 PUSH1 0x1 ADD PUSH0 PUSH2 0x100 EXP DUP2 SLOAD DUP2 PUSH20 0xFFFFFFFFFFFFFFFFFFFFFFFFFFFFFFFFFFFFFFFF MUL NOT AND SWAP1 DUP4 PUSH20 0xFFFFFFFFFFFFFFFFFFFFFFFFFFFFFFFFFFFFFFFF AND MUL OR SWAP1 SSTORE POP PUSH1 0x40 DUP3 ADD MLOAD DUP2 PUSH1 0x2 ADD PUSH0 PUSH2 0x100 EXP DUP2 SLOAD DUP2 PUSH20 0xFFFFFFFFFFFFFFFFFFFFFFFFFFFFFFFFFFFFFFFF MUL NOT AND SWAP1 DUP4 PUSH20 0xFFFFFFFFFFFFFFFFFFFFFFFFFFFFFFFFFFFFFFFF AND MUL OR SWAP1 SSTORE POP PUSH1 0x60 DUP3 ADD MLOAD DUP2 PUSH1 0x3 ADD SSTORE PUSH1 0x80 DUP3 ADD MLOAD DUP2 PUSH1 0x4 ADD SSTORE PUSH1 0xA0 DUP3 ADD MLOAD DUP2 PUSH1 0x5 ADD SSTORE PUSH1 0xC0 DUP3 ADD MLOAD DUP2 PUSH1 0x6 ADD PUSH0 PUSH2 0x100 EXP DUP2 SLOAD DUP2 PUSH1 0xFF MUL NOT AND SWAP1 DUP4 ISZERO ISZERO MUL OR SWAP1 SSTORE POP POP POP PUSH0 PUSH1 0x1 PUSH0 DUP1 SLOAD SWAP1 POP PUSH2 0x6BB SWAP2 SWAP1 PUSH2 0x1157 JUMP JUMPDEST SWAP1 POP PUSH32 0xD4D57DDD80C3A0225990D2B6FA18E3656B21CFA2FEA3B2F3677DC460EDBB1D96 DUP2 CALLER DUP7 DUP7 DUP7 PUSH1 0x40 MLOAD PUSH2 0x6F4 SWAP6 SWAP5 SWAP4 SWAP3 SWAP2 SWAP1 PUSH2 0x118A JUMP JUMPDEST PUSH1 0x40 MLOAD DUP1 SWAP2 SUB SWAP1 LOG1 POP POP POP POP JUMP JUMPDEST PUSH0 PUSH1 0x1 PUSH0 SWAP1 SLOAD SWAP1 PUSH2 0x100 EXP SWAP1 DIV PUSH20 0xFFFFFFFFFFFFFFFFFFFFFFFFFFFFFFFFFFFFFFFF AND PUSH20 0xFFFFFFFFFFFFFFFFFFFFFFFFFFFFFFFFFFFFFFFF AND PUSH4 0x70A08231 CALLER PUSH1 0x40 MLOAD DUP3 PUSH4 0xFFFFFFFF AND PUSH1 0xE0 SHL DUP2 MSTORE PUSH1 0x4 ADD PUSH2 0x75D SWAP2 SWAP1 PUSH2 0x106A JUMP JUMPDEST PUSH1 0x20 PUSH1 0x40 MLOAD DUP1 DUP4 SUB DUP2 DUP7 GAS STATICCALL ISZERO DUP1 ISZERO PUSH2 0x778 JUMPI RETURNDATASIZE PUSH0 DUP1 RETURNDATACOPY RETURNDATASIZE PUSH0 REVERT JUMPDEST POP POP POP POP PUSH1 0x40 MLOAD RETURNDATASIZE PUSH1 0x1F NOT PUSH1 0x1F DUP3 ADD AND DUP3 ADD DUP1 PUSH1 0x40 MSTORE POP DUP2 ADD SWAP1 PUSH2 0x79C SWAP2 SWAP1 PUSH2 0x1097 JUMP JUMPDEST GT PUSH2 0x7DC JUMPI PUSH1 0x40 MLOAD PUSH32 0x8C379A000000000000000000000000000000000000000000000000000000000 DUP2 MSTORE PUSH1 0x4 ADD PUSH2 0x7D3 SWAP1 PUSH2 0x110C JUMP JUMPDEST PUSH1 0x40 MLOAD DUP1 SWAP2 SUB SWAP1 REVERT JUMPDEST PUSH0 DUP1 SLOAD SWAP1 POP DUP3 LT PUSH2 0x822 JUMPI PUSH1 0x40 MLOAD PUSH32 0x8C379A000000000000000000000000000000000000000000000000000000000 DUP2 MSTORE PUSH1 0x4 ADD PUSH2 0x819 SWAP1 PUSH2 0xF20 JUMP JUMPDEST PUSH1 0x40 MLOAD DUP1 SWAP2 SUB SWAP1 REVERT JUMPDEST PUSH1 0x2 PUSH0 DUP4 DUP2 MSTORE PUSH1 0x20 ADD SWAP1 DUP2 MSTORE PUSH1 0x20 ADD PUSH0 KECCAK256 PUSH0 CALLER PUSH20 0xFFFFFFFFFFFFFFFFFFFFFFFFFFFFFFFFFFFFFFFF AND PUSH20 0xFFFFFFFFFFFFFFFFFFFFFFFFFFFFFFFFFFFFFFFF AND DUP2 MSTORE PUSH1 0x20 ADD SWAP1 DUP2 MSTORE PUSH1 0x20 ADD PUSH0 KECCAK256 PUSH0 SWAP1 SLOAD SWAP1 PUSH2 0x100 EXP SWAP1 DIV PUSH1 0xFF AND ISZERO PUSH2 0x8BB JUMPI PUSH1 0x40 MLOAD PUSH32 0x8C379A000000000000000000000000000000000000000000000000000000000 DUP2 MSTORE PUSH1 0x4 ADD PUSH2 0x8B2 SWAP1 PUSH2 0x1225 JUMP JUMPDEST PUSH1 0x40 MLOAD DUP1 SWAP2 SUB SWAP1 REVERT JUMPDEST PUSH0 DUP1 DUP4 DUP2 SLOAD DUP2 LT PUSH2 0x8CF JUMPI PUSH2 0x8CE PUSH2 0xF3E JUMP JUMPDEST JUMPDEST SWAP1 PUSH0 MSTORE PUSH1 0x20 PUSH0 KECCAK256 SWAP1 PUSH1 0x7 MUL ADD SWAP1 POP DUP1 PUSH1 0x6 ADD PUSH0 SWAP1 SLOAD SWAP1 PUSH2 0x100 EXP SWAP1 DIV PUSH1 0xFF AND ISZERO PUSH2 0x92E JUMPI PUSH1 0x40 MLOAD PUSH32 0x8C379A000000000000000000000000000000000000000000000000000000000 DUP2 MSTORE PUSH1 0x4 ADD PUSH2 0x925 SWAP1 PUSH2 0xFB5 JUMP JUMPDEST PUSH1 0x40 MLOAD DUP1 SWAP2 SUB SWAP1 REVERT JUMPDEST DUP2 ISZERO PUSH2 0x9EB JUMPI PUSH1 0x1 PUSH0 SWAP1 SLOAD SWAP1 PUSH2 0x100 EXP SWAP1 DIV PUSH20 0xFFFFFFFFFFFFFFFFFFFFFFFFFFFFFFFFFFFFFFFF AND PUSH20 0xFFFFFFFFFFFFFFFFFFFFFFFFFFFFFFFFFFFFFFFF AND PUSH4 0x70A08231 CALLER PUSH1 0x40 MLOAD DUP3 PUSH4 0xFFFFFFFF AND PUSH1 0xE0 SHL DUP2 MSTORE PUSH1 0x4 ADD PUSH2 0x98E SWAP2 SWAP1 PUSH2 0x106A JUMP JUMPDEST PUSH1 0x20 PUSH1 0x40 MLOAD DUP1 DUP4 SUB DUP2 DUP7 GAS STATICCALL ISZERO DUP1 ISZERO PUSH2 0x9A9 JUMPI RETURNDATASIZE PUSH0 DUP1 RETURNDATACOPY RETURNDATASIZE PUSH0 REVERT JUMPDEST POP POP POP POP PUSH1 0x40 MLOAD RETURNDATASIZE PUSH1 0x1F NOT PUSH1 0x1F DUP3 ADD AND DUP3 ADD DUP1 PUSH1 0x40 MSTORE POP DUP2 ADD SWAP1 PUSH2 0x9CD SWAP2 SWAP1 PUSH2 0x1097 JUMP JUMPDEST DUP2 PUSH1 0x4 ADD PUSH0 DUP3 DUP3 SLOAD PUSH2 0x9DF SWAP2 SWAP1 PUSH2 0x1243 JUMP JUMPDEST SWAP3 POP POP DUP2 SWAP1 SSTORE POP PUSH2 0xA9E JUMP JUMPDEST PUSH1 0x1 PUSH0 SWAP1 SLOAD SWAP1 PUSH2 0x100 EXP SWAP1 DIV PUSH20 0xFFFFFFFFFFFFFFFFFFFFFFFFFFFFFFFFFFFFFFFF AND PUSH20 0xFFFFFFFFFFFFFFFFFFFFFFFFFFFFFFFFFFFFFFFF AND PUSH4 0x70A08231 CALLER PUSH1 0x40 MLOAD DUP3 PUSH4 0xFFFFFFFF AND PUSH1 0xE0 SHL DUP2 MSTORE PUSH1 0x4 ADD PUSH2 0xA45 SWAP2 SWAP1 PUSH2 0x106A JUMP JUMPDEST PUSH1 0x20 PUSH1 0x40 MLOAD DUP1 DUP4 SUB DUP2 DUP7 GAS STATICCALL ISZERO DUP1 ISZERO PUSH2 0xA60 JUMPI RETURNDATASIZE PUSH0 DUP1 RETURNDATACOPY RETURNDATASIZE PUSH0 REVERT JUMPDEST POP POP POP POP PUSH1 0x40 MLOAD RETURNDATASIZE PUSH1 0x1F NOT PUSH1 0x1F DUP3 ADD AND DUP3 ADD DUP1 PUSH1 0x40 MSTORE POP DUP2 ADD SWAP1 PUSH2 0xA84 SWAP2 SWAP1 PUSH2 0x1097 JUMP JUMPDEST DUP2 PUSH1 0x5 ADD PUSH0 DUP3 DUP3 SLOAD PUSH2 0xA96 SWAP2 SWAP1 PUSH2 0x1243 JUMP JUMPDEST SWAP3 POP POP DUP2 SWAP1 SSTORE POP JUMPDEST PUSH1 0x1 PUSH1 0x2 PUSH0 DUP6 DUP2 MSTORE PUSH1 0x20 ADD SWAP1 DUP2 MSTORE PUSH1 0x20 ADD PUSH0 KECCAK256 PUSH0 CALLER PUSH20 0xFFFFFFFFFFFFFFFFFFFFFFFFFFFFFFFFFFFFFFFF AND PUSH20 0xFFFFFFFFFFFFFFFFFFFFFFFFFFFFFFFFFFFFFFFF AND DUP2 MSTORE PUSH1 0x20 ADD SWAP1 DUP2 MSTORE PUSH1 0x20 ADD PUSH0 KECCAK256 PUSH0 PUSH2 0x100 EXP DUP2 SLOAD DUP2 PUSH1 0xFF MUL NOT AND SWAP1 DUP4 ISZERO ISZERO MUL OR SWAP1 SSTORE POP PUSH32 0xF2913DBE661EE2ACC4A046D8FBCDC792373BDA34C41C6086484B5345E5785E5F DUP4 CALLER DUP5 PUSH1 0x40 MLOAD PUSH2 0xB35 SWAP4 SWAP3 SWAP2 SWAP1 PUSH2 0x1276 JUMP JUMPDEST PUSH1 0x40 MLOAD DUP1 SWAP2 SUB SWAP1 LOG1 POP POP POP JUMP JUMPDEST PUSH1 0x1 PUSH0 SWAP1 SLOAD SWAP1 PUSH2 0x100 EXP SWAP1 DIV PUSH20 0xFFFFFFFFFFFFFFFFFFFFFFFFFFFFFFFFFFFFFFFF AND DUP2 JUMP JUMPDEST PUSH1 0x3 PUSH1 0x20 MSTORE DUP1 PUSH0 MSTORE PUSH1 0x40 PUSH0 KECCAK256 PUSH0 SWAP2 POP SLOAD SWAP1 PUSH2 0x100 EXP SWAP1 DIV PUSH1 0xFF AND DUP2 JUMP JUMPDEST PUSH0 DUP1 REVERT JUMPDEST PUSH0 DUP2 SWAP1 POP SWAP2 SWAP1 POP JUMP JUMPDEST PUSH2 0xB9A DUP2 PUSH2 0xB88 JUMP JUMPDEST DUP2 EQ PUSH2 0xBA4 JUMPI PUSH0 DUP1 REVERT JUMPDEST POP JUMP JUMPDEST PUSH0 DUP2 CALLDATALOAD SWAP1 POP PUSH2 0xBB5 DUP2 PUSH2 0xB91 JUMP JUMPDEST SWAP3 SWAP2 POP POP JUMP JUMPDEST PUSH0 PUSH1 0x20 DUP3 DUP5 SUB SLT ISZERO PUSH2 0xBD0 JUMPI PUSH2 0xBCF PUSH2 0xB84 JUMP JUMPDEST JUMPDEST PUSH0 PUSH2 0xBDD DUP5 DUP3 DUP6 ADD PUSH2 0xBA7 JUMP JUMPDEST SWAP2 POP POP SWAP3 SWAP2 POP POP JUMP JUMPDEST PUSH0 PUSH20 0xFFFFFFFFFFFFFFFFFFFFFFFFFFFFFFFFFFFFFFFF DUP3 AND SWAP1 POP SWAP2 SWAP1 POP JUMP JUMPDEST PUSH0 PUSH2 0xC0F DUP3 PUSH2 0xBE6 JUMP JUMPDEST SWAP1 POP SWAP2 SWAP1 POP JUMP JUMPDEST PUSH2 0xC1F DUP2 PUSH2 0xC05 JUMP JUMPDEST DUP3 MSTORE POP POP JUMP JUMPDEST PUSH2 0xC2E DUP2 PUSH2 0xB88 JUMP JUMPDEST DUP3 MSTORE POP POP JUMP JUMPDEST PUSH0 DUP2 ISZERO ISZERO SWAP1 POP SWAP2 SWAP1 POP JUMP JUMPDEST PUSH2 0xC48 DUP2 PUSH2 0xC34 JUMP JUMPDEST DUP3 MSTORE POP POP JUMP JUMPDEST PUSH0 PUSH1 0xE0 DUP3 ADD SWAP1 POP PUSH2 0xC61 PUSH0 DUP4 ADD DUP11 PUSH2 0xC16 JUMP JUMPDEST PUSH2 0xC6E PUSH1 0x20 DUP4 ADD DUP10 PUSH2 0xC16 JUMP JUMPDEST PUSH2 0xC7B PUSH1 0x40 DUP4 ADD DUP9 PUSH2 0xC16 JUMP JUMPDEST PUSH2 0xC88 PUSH1 0x60 DUP4 ADD DUP8 PUSH2 0xC25 JUMP JUMPDEST PUSH2 0xC95 PUSH1 0x80 DUP4 ADD DUP7 PUSH2 0xC25 JUMP JUMPDEST PUSH2 0xCA2 PUSH1 0xA0 DUP4 ADD DUP6 PUSH2 0xC25 JUMP JUMPDEST PUSH2 0xCAF PUSH1 0xC0 DUP4 ADD DUP5 PUSH2 0xC3F JUMP JUMPDEST SWAP9 SWAP8 POP POP POP POP POP POP POP POP JUMP JUMPDEST PUSH2 0xCC4 DUP2 PUSH2 0xC05 JUMP JUMPDEST DUP2 EQ PUSH2 0xCCE JUMPI PUSH0 DUP1 REVERT JUMPDEST POP JUMP JUMPDEST PUSH0 DUP2 CALLDATALOAD SWAP1 POP PUSH2 0xCDF DUP2 PUSH2 0xCBB JUMP JUMPDEST SWAP3 SWAP2 POP POP JUMP JUMPDEST PUSH0 DUP1 PUSH1 0x40 DUP4 DUP6 SUB SLT ISZERO PUSH2 0xCFB JUMPI PUSH2 0xCFA PUSH2 0xB84 JUMP JUMPDEST JUMPDEST PUSH0 PUSH2 0xD08 DUP6 DUP3 DUP7 ADD PUSH2 0xBA7 JUMP JUMPDEST SWAP3 POP POP PUSH1 0x20 PUSH2 0xD19 DUP6 DUP3 DUP7 ADD PUSH2 0xCD1 JUMP JUMPDEST SWAP2 POP POP SWAP3 POP SWAP3 SWAP1 POP JUMP JUMPDEST PUSH0 PUSH1 0x20 DUP3 ADD SWAP1 POP PUSH2 0xD36 PUSH0 DUP4 ADD DUP5 PUSH2 0xC3F JUMP JUMPDEST SWAP3 SWAP2 POP POP JUMP JUMPDEST PUSH0 DUP1 PUSH0 PUSH1 0x60 DUP5 DUP7 SUB SLT ISZERO PUSH2 0xD53 JUMPI PUSH2 0xD52 PUSH2 0xB84 JUMP JUMPDEST JUMPDEST PUSH0 PUSH2 0xD60 DUP7 DUP3 DUP8 ADD PUSH2 0xCD1 JUMP JUMPDEST SWAP4 POP POP PUSH1 0x20 PUSH2 0xD71 DUP7 DUP3 DUP8 ADD PUSH2 0xCD1 JUMP JUMPDEST SWAP3 POP POP PUSH1 0x40 PUSH2 0xD82 DUP7 DUP3 DUP8 ADD PUSH2 0xBA7 JUMP JUMPDEST SWAP2 POP POP SWAP3 POP SWAP3 POP SWAP3 JUMP JUMPDEST PUSH2 0xD95 DUP2 PUSH2 0xC34 JUMP JUMPDEST DUP2 EQ PUSH2 0xD9F JUMPI PUSH0 DUP1 REVERT JUMPDEST POP JUMP JUMPDEST PUSH0 DUP2 CALLDATALOAD SWAP1 POP PUSH2 0xDB0 DUP2 PUSH2 0xD8C JUMP JUMPDEST SWAP3 SWAP2 POP POP JUMP JUMPDEST PUSH0 DUP1 PUSH1 0x40 DUP4 DUP6 SUB SLT ISZERO PUSH2 0xDCC JUMPI PUSH2 0xDCB PUSH2 0xB84 JUMP JUMPDEST JUMPDEST PUSH0 PUSH2 0xDD9 DUP6 DUP3 DUP7 ADD PUSH2 0xBA7 JUMP JUMPDEST SWAP3 POP POP PUSH1 0x20 PUSH2 0xDEA DUP6 DUP3 DUP7 ADD PUSH2 0xDA2 JUMP JUMPDEST SWAP2 POP POP SWAP3 POP SWAP3 SWAP1 POP JUMP JUMPDEST PUSH0 DUP2 SWAP1 POP SWAP2 SWAP1 POP JUMP JUMPDEST PUSH0 PUSH2 0xE17 PUSH2 0xE12 PUSH2 0xE0D DUP5 PUSH2 0xBE6 JUMP JUMPDEST PUSH2 0xDF4 JUMP JUMPDEST PUSH2 0xBE6 JUMP JUMPDEST SWAP1 POP SWAP2 SWAP1 POP JUMP JUMPDEST PUSH0 PUSH2 0xE28 DUP3 PUSH2 0xDFD JUMP JUMPDEST SWAP1 POP SWAP2 SWAP1 POP JUMP JUMPDEST PUSH0 PUSH2 0xE39 DUP3 PUSH2 0xE1E JUMP JUMPDEST SWAP1 POP SWAP2 SWAP1 POP JUMP JUMPDEST PUSH2 0xE49 DUP2 PUSH2 0xE2F JUMP JUMPDEST DUP3 MSTORE POP POP JUMP JUMPDEST PUSH0 PUSH1 0x20 DUP3 ADD SWAP1 POP PUSH2 0xE62 PUSH0 DUP4 ADD DUP5 PUSH2 0xE40 JUMP JUMPDEST SWAP3 SWAP2 POP POP JUMP JUMPDEST PUSH0 DUP2 SWAP1 POP SWAP2 SWAP1 POP JUMP JUMPDEST PUSH2 0xE7A DUP2 PUSH2 0xE68 JUMP JUMPDEST DUP2 EQ PUSH2 0xE84 JUMPI PUSH0 DUP1 REVERT JUMPDEST POP JUMP JUMPDEST PUSH0 DUP2 CALLDATALOAD SWAP1 POP PUSH2 0xE95 DUP2 PUSH2 0xE71 JUMP JUMPDEST SWAP3 SWAP2 POP POP JUMP JUMPDEST PUSH0 PUSH1 0x20 DUP3 DUP5 SUB SLT ISZERO PUSH2 0xEB0 JUMPI PUSH2 0xEAF PUSH2 0xB84 JUMP JUMPDEST JUMPDEST PUSH0 PUSH2 0xEBD DUP5 DUP3 DUP6 ADD PUSH2 0xE87 JUMP JUMPDEST SWAP2 POP POP SWAP3 SWAP2 POP POP JUMP JUMPDEST PUSH0 DUP3 DUP3 MSTORE PUSH1 0x20 DUP3 ADD SWAP1 POP SWAP3 SWAP2 POP POP JUMP JUMPDEST PUSH32 0x496E76616C69642070726F706F73616C20494400000000000000000000000000 PUSH0 DUP3 ADD MSTORE POP JUMP JUMPDEST PUSH0 PUSH2 0xF0A PUSH1 0x13 DUP4 PUSH2 0xEC6 JUMP JUMPDEST SWAP2 POP PUSH2 0xF15 DUP3 PUSH2 0xED6 JUMP JUMPDEST PUSH1 0x20 DUP3 ADD SWAP1 POP SWAP2 SWAP1 POP JUMP JUMPDEST PUSH0 PUSH1 0x20 DUP3 ADD SWAP1 POP DUP2 DUP2 SUB PUSH0 DUP4 ADD MSTORE PUSH2 0xF37 DUP2 PUSH2 0xEFE JUMP JUMPDEST SWAP1 POP SWAP2 SWAP1 POP JUMP JUMPDEST PUSH32 0x4E487B7100000000000000000000000000000000000000000000000000000000 PUSH0 MSTORE PUSH1 0x32 PUSH1 0x4 MSTORE PUSH1 0x24 PUSH0 REVERT JUMPDEST PUSH32 0x50726F706F73616C20616C726561647920657865637574656400000000000000 PUSH0 DUP3 ADD MSTORE POP JUMP JUMPDEST PUSH0 PUSH2 0xF9F PUSH1 0x19 DUP4 PUSH2 0xEC6 JUMP JUMPDEST SWAP2 POP PUSH2 0xFAA DUP3 PUSH2 0xF6B JUMP JUMPDEST PUSH1 0x20 DUP3 ADD SWAP1 POP SWAP2 SWAP1 POP JUMP JUMPDEST PUSH0 PUSH1 0x20 DUP3 ADD SWAP1 POP DUP2 DUP2 SUB PUSH0 DUP4 ADD MSTORE PUSH2 0xFCC DUP2 PUSH2 0xF93 JUMP JUMPDEST SWAP1 POP SWAP2 SWAP1 POP JUMP JUMPDEST PUSH0 DUP2 PUSH1 0x60 SHL SWAP1 POP SWAP2 SWAP1 POP JUMP JUMPDEST PUSH0 PUSH2 0xFE9 DUP3 PUSH2 0xFD3 JUMP JUMPDEST SWAP1 POP SWAP2 SWAP1 POP JUMP JUMPDEST PUSH0 PUSH2 0xFFA DUP3 PUSH2 0xFDF JUMP JUMPDEST SWAP1 POP SWAP2 SWAP1 POP JUMP JUMPDEST PUSH2 0x1012 PUSH2 0x100D DUP3 PUSH2 0xC05 JUMP JUMPDEST PUSH2 0xFF0 JUMP JUMPDEST DUP3 MSTORE POP POP JUMP JUMPDEST PUSH0 PUSH2 0x1023 DUP3 DUP6 PUSH2 0x1001 JUMP JUMPDEST PUSH1 0x14 DUP3 ADD SWAP2 POP PUSH2 0x1033 DUP3 DUP5 PUSH2 0x1001 JUMP JUMPDEST PUSH1 0x14 DUP3 ADD SWAP2 POP DUP2 SWAP1 POP SWAP4 SWAP3 POP POP POP JUMP JUMPDEST PUSH0 PUSH1 0x40 DUP3 ADD SWAP1 POP PUSH2 0x1056 PUSH0 DUP4 ADD DUP6 PUSH2 0xC25 JUMP JUMPDEST PUSH2 0x1063 PUSH1 0x20 DUP4 ADD DUP5 PUSH2 0xC3F JUMP JUMPDEST SWAP4 SWAP3 POP POP POP JUMP JUMPDEST PUSH0 PUSH1 0x20 DUP3 ADD SWAP1 POP PUSH2 0x107D PUSH0 DUP4 ADD DUP5 PUSH2 0xC16 JUMP JUMPDEST SWAP3 SWAP2 POP POP JUMP JUMPDEST PUSH0 DUP2 MLOAD SWAP1 POP PUSH2 0x1091 DUP2 PUSH2 0xB91 JUMP JUMPDEST SWAP3 SWAP2 POP POP JUMP JUMPDEST PUSH0 PUSH1 0x20 DUP3 DUP5 SUB SLT ISZERO PUSH2 0x10AC JUMPI PUSH2 0x10AB PUSH2 0xB84 JUMP JUMPDEST JUMPDEST PUSH0 PUSH2 0x10B9 DUP5 DUP3 DUP6 ADD PUSH2 0x1083 JUMP JUMPDEST SWAP2 POP POP SWAP3 SWAP2 POP POP JUMP JUMPDEST PUSH32 0x4E6F74206120746F6B656E20686F6C6465720000000000000000000000000000 PUSH0 DUP3 ADD MSTORE POP JUMP JUMPDEST PUSH0 PUSH2 0x10F6 PUSH1 0x12 DUP4 PUSH2 0xEC6 JUMP JUMPDEST SWAP2 POP PUSH2 0x1101 DUP3 PUSH2 0x10C2 JUMP JUMPDEST PUSH1 0x20 DUP3 ADD SWAP1 POP SWAP2 SWAP1 POP JUMP JUMPDEST PUSH0 PUSH1 0x20 DUP3 ADD SWAP1 POP DUP2 DUP2 SUB PUSH0 DUP4 ADD MSTORE PUSH2 0x1123 DUP2 PUSH2 0x10EA JUMP JUMPDEST SWAP1 POP SWAP2 SWAP1 POP JUMP JUMPDEST PUSH32 0x4E487B7100000000000000000000000000000000000000000000000000000000 PUSH0 MSTORE PUSH1 0x11 PUSH1 0x4 MSTORE PUSH1 0x24 PUSH0 REVERT JUMPDEST PUSH0 PUSH2 0x1161 DUP3 PUSH2 0xB88 JUMP JUMPDEST SWAP2 POP PUSH2 0x116C DUP4 PUSH2 0xB88 JUMP JUMPDEST SWAP3 POP DUP3 DUP3 SUB SWAP1 POP DUP2 DUP2 GT ISZERO PUSH2 0x1184 JUMPI PUSH2 0x1183 PUSH2 0x112A JUMP JUMPDEST JUMPDEST SWAP3 SWAP2 POP POP JUMP JUMPDEST PUSH0 PUSH1 0xA0 DUP3 ADD SWAP1 POP PUSH2 0x119D PUSH0 DUP4 ADD DUP9 PUSH2 0xC25 JUMP JUMPDEST PUSH2 0x11AA PUSH1 0x20 DUP4 ADD DUP8 PUSH2 0xC16 JUMP JUMPDEST PUSH2 0x11B7 PUSH1 0x40 DUP4 ADD DUP7 PUSH2 0xC16 JUMP JUMPDEST PUSH2 0x11C4 PUSH1 0x60 DUP4 ADD DUP6 PUSH2 0xC16 JUMP JUMPDEST PUSH2 0x11D1 PUSH1 0x80 DUP4 ADD DUP5 PUSH2 0xC25 JUMP JUMPDEST SWAP7 SWAP6 POP POP POP POP POP POP JUMP JUMPDEST PUSH32 0x416C726561647920766F74656400000000000000000000000000000000000000 PUSH0 DUP3 ADD MSTORE POP JUMP JUMPDEST PUSH0 PUSH2 0x120F PUSH1 0xD DUP4 PUSH2 0xEC6 JUMP JUMPDEST SWAP2 POP PUSH2 0x121A DUP3 PUSH2 0x11DB JUMP JUMPDEST PUSH1 0x20 DUP3 ADD SWAP1 POP SWAP2 SWAP1 POP JUMP JUMPDEST PUSH0 PUSH1 0x20 DUP3 ADD SWAP1 POP DUP2 DUP2 SUB PUSH0 DUP4 ADD MSTORE PUSH2 0x123C DUP2 PUSH2 0x1203 JUMP JUMPDEST SWAP1 POP SWAP2 SWAP1 POP JUMP JUMPDEST PUSH0 PUSH2 0x124D DUP3 PUSH2 0xB88 JUMP JUMPDEST SWAP2 POP PUSH2 0x1258 DUP4 PUSH2 0xB88 JUMP JUMPDEST SWAP3 POP DUP3 DUP3 ADD SWAP1 POP DUP1 DUP3 GT ISZERO PUSH2 0x1270 JUMPI PUSH2 0x126F PUSH2 0x112A JUMP JUMPDEST JUMPDEST SWAP3 SWAP2 POP POP JUMP JUMPDEST PUSH0 PUSH1 0x60 DUP3 ADD SWAP1 POP PUSH2 0x1289 PUSH0 DUP4 ADD DUP7 PUSH2 0xC25 JUMP JUMPDEST PUSH2 0x1296 PUSH1 0x20 DUP4 ADD DUP6 PUSH2 0xC16 JUMP JUMPDEST PUSH2 0x12A3 PUSH1 0x40 DUP4 ADD DUP5 PUSH2 0xC3F JUMP JUMPDEST SWAP5 SWAP4 POP POP POP POP JUMP INVALID LOG2 PUSH5 0x6970667358 0x22 SLT KECCAK256 MULMOD DUP16 0xE5 DELEGATECALL SHR PUSH13 0xDB6589062AE973E3955B27BDFF 0xE5 0xE9 0x4B SWAP12 PUSH11 0x925BDF8DCAB534DD64736F PUSH13 0x63430008180033000000000000 "
		},
		"gasEstimates": {
			"creation": {
				"codeDepositCost": "966600",
				"executionCost": "infinite",
				"totalCost": "infinite"
			},
			"external": {
				"createProposal(address,address,uint256)": "infinite",
				"executeProposal(uint256)": "infinite",
				"hasVoted(uint256,address)": "3116",
				"proposals(uint256)": "infinite",
				"rwaContract()": "infinite",
				"vote(uint256,bool)": "infinite",
				"voteOutcome(bytes32)": "2851"
			}
		},
		"methodIdentifiers": {
			"createProposal(address,address,uint256)": "a2a30949",
			"executeProposal(uint256)": "0d61b519",
			"hasVoted(uint256,address)": "43859632",
			"proposals(uint256)": "013cf08b",
			"rwaContract()": "d9a94d94",
			"vote(uint256,bool)": "c9d27afe",
			"voteOutcome(bytes32)": "fcea1384"
		}
	},
	"abi": [
		{
			"inputs": [
				{
					"internalType": "address",
					"name": "_rwaContract",
					"type": "address"
				}
			],
			"stateMutability": "nonpayable",
			"type": "constructor"
		},
		{
			"anonymous": false,
			"inputs": [
				{
					"indexed": false,
					"internalType": "uint256",
					"name": "proposalId",
					"type": "uint256"
				},
				{
					"indexed": false,
					"internalType": "address",
					"name": "proposer",
					"type": "address"
				},
				{
					"indexed": false,
					"internalType": "address",
					"name": "poolContract",
					"type": "address"
				},
				{
					"indexed": false,
					"internalType": "address",
					"name": "rwaContract",
					"type": "address"
				},
				{
					"indexed": false,
					"internalType": "uint256",
					"name": "dilution",
					"type": "uint256"
				}
			],
			"name": "ProposalCreated",
			"type": "event"
		},
		{
			"anonymous": false,
			"inputs": [
				{
					"indexed": false,
					"internalType": "uint256",
					"name": "proposalId",
					"type": "uint256"
				},
				{
					"indexed": false,
					"internalType": "bool",
					"name": "outcome",
					"type": "bool"
				}
			],
			"name": "ProposalExecuted",
			"type": "event"
		},
		{
			"anonymous": false,
			"inputs": [
				{
					"indexed": false,
					"internalType": "uint256",
					"name": "proposalId",
					"type": "uint256"
				},
				{
					"indexed": false,
					"internalType": "address",
					"name": "voter",
					"type": "address"
				},
				{
					"indexed": false,
					"internalType": "bool",
					"name": "vote",
					"type": "bool"
				}
			],
			"name": "Voted",
			"type": "event"
		},
		{
			"inputs": [
				{
					"internalType": "address",
					"name": "_poolContract",
					"type": "address"
				},
				{
					"internalType": "address",
					"name": "_rwaContract",
					"type": "address"
				},
				{
					"internalType": "uint256",
					"name": "_dilution",
					"type": "uint256"
				}
			],
			"name": "createProposal",
			"outputs": [],
			"stateMutability": "nonpayable",
			"type": "function"
		},
		{
			"inputs": [
				{
					"internalType": "uint256",
					"name": "_proposalId",
					"type": "uint256"
				}
			],
			"name": "executeProposal",
			"outputs": [],
			"stateMutability": "nonpayable",
			"type": "function"
		},
		{
			"inputs": [
				{
					"internalType": "uint256",
					"name": "",
					"type": "uint256"
				},
				{
					"internalType": "address",
					"name": "",
					"type": "address"
				}
			],
			"name": "hasVoted",
			"outputs": [
				{
					"internalType": "bool",
					"name": "",
					"type": "bool"
				}
			],
			"stateMutability": "view",
			"type": "function"
		},
		{
			"inputs": [
				{
					"internalType": "uint256",
					"name": "",
					"type": "uint256"
				}
			],
			"name": "proposals",
			"outputs": [
				{
					"internalType": "address",
					"name": "proposer",
					"type": "address"
				},
				{
					"internalType": "address",
					"name": "poolContract",
					"type": "address"
				},
				{
					"internalType": "address",
					"name": "rwaContract",
					"type": "address"
				},
				{
					"internalType": "uint256",
					"name": "dilution",
					"type": "uint256"
				},
				{
					"internalType": "uint256",
					"name": "yesVotes",
					"type": "uint256"
				},
				{
					"internalType": "uint256",
					"name": "noVotes",
					"type": "uint256"
				},
				{
					"internalType": "bool",
					"name": "executed",
					"type": "bool"
				}
			],
			"stateMutability": "view",
			"type": "function"
		},
		{
			"inputs": [],
			"name": "rwaContract",
			"outputs": [
				{
					"internalType": "contract IRWATokenization",
					"name": "",
					"type": "address"
				}
			],
			"stateMutability": "view",
			"type": "function"
		},
		{
			"inputs": [
				{
					"internalType": "uint256",
					"name": "_proposalId",
					"type": "uint256"
				},
				{
					"internalType": "bool",
					"name": "_vote",
					"type": "bool"
				}
			],
			"name": "vote",
			"outputs": [],
			"stateMutability": "nonpayable",
			"type": "function"
		},
		{
			"inputs": [
				{
					"internalType": "bytes32",
					"name": "",
					"type": "bytes32"
				}
			],
			"name": "voteOutcome",
			"outputs": [
				{
					"internalType": "bool",
					"name": "",
					"type": "bool"
				}
			],
			"stateMutability": "view",
			"type": "function"
		}
	]
}