{
	"data": {
		"bytecode": {
			"linkReferences": {},
			"object": "608060405234801561000f575f80fd5b50604051611944380380611944833981810160405281019061003191906100d4565b805f806101000a81548173ffffffffffffffffffffffffffffffffffffffff021916908373ffffffffffffffffffffffffffffffffffffffff160217905550506100ff565b5f80fd5b5f73ffffffffffffffffffffffffffffffffffffffff82169050919050565b5f6100a38261007a565b9050919050565b6100b381610099565b81146100bd575f80fd5b50565b5f815190506100ce816100aa565b92915050565b5f602082840312156100e9576100e8610076565b5b5f6100f6848285016100c0565b91505092915050565b6118388061010c5f395ff3fe608060405234801562000010575f80fd5b506004361062000038575f3560e01c8063234cb757146200003c57806354186558146200005e575b5f80fd5b6200004662000094565b6040516200005591906200026d565b60405180910390f35b6200007c600480360381019062000076919062000306565b620000b7565b6040516200008b919062000370565b60405180910390f35b5f8054906101000a900473ffffffffffffffffffffffffffffffffffffffff1681565b5f8084848433604051620000cb90620001d9565b620000da94939291906200039c565b604051809103905ff080158015620000f4573d5f803e3d5ffd5b5090505f8054906101000a900473ffffffffffffffffffffffffffffffffffffffff1673ffffffffffffffffffffffffffffffffffffffff1663ec0b31de826040518263ffffffff1660e01b815260040162000151919062000370565b6020604051808303815f875af11580156200016e573d5f803e3d5ffd5b505050506040513d601f19601f82011682018060405250810190620001949190620003fd565b507f2ab2dbe2fef94a06bd731b26fe04ffccdddd6cf62655fe9b75629ea3b06d653a81604051620001c6919062000370565b60405180910390a1809150509392505050565b6113d5806200042e83390190565b5f73ffffffffffffffffffffffffffffffffffffffff82169050919050565b5f819050919050565b5f6200022f620002296200022384620001e7565b62000206565b620001e7565b9050919050565b5f62000242826200020f565b9050919050565b5f620002558262000236565b9050919050565b620002678162000249565b82525050565b5f602082019050620002825f8301846200025c565b92915050565b5f80fd5b5f6200029882620001e7565b9050919050565b620002aa816200028c565b8114620002b5575f80fd5b50565b5f81359050620002c8816200029f565b92915050565b5f819050919050565b620002e281620002ce565b8114620002ed575f80fd5b50565b5f813590506200030081620002d7565b92915050565b5f805f6060848603121562000320576200031f62000288565b5b5f6200032f86828701620002b8565b93505060206200034286828701620002b8565b92505060406200035586828701620002f0565b9150509250925092565b6200036a816200028c565b82525050565b5f602082019050620003855f8301846200035f565b92915050565b6200039681620002ce565b82525050565b5f608082019050620003b15f8301876200035f565b620003c060208301866200035f565b620003cf60408301856200038b565b620003de60608301846200035f565b95945050505050565b5f81519050620003f781620002d7565b92915050565b5f6020828403121562000415576200041462000288565b5b5f6200042484828501620003e7565b9150509291505056fe608060405234801562000010575f80fd5b50604051620013d5380380620013d5833981810160405281019062000036919062000534565b5f73ffffffffffffffffffffffffffffffffffffffff168173ffffffffffffffffffffffffffffffffffffffff1603620000a7576040517f08c379a00000000000000000000000000000000000000000000000000000000081526004016200009e9062000601565b60405180910390fd5b5f8473ffffffffffffffffffffffffffffffffffffffff166370a08231836040518263ffffffff1660e01b8152600401620000e3919062000632565b602060405180830381865afa158015620000ff573d5f803e3d5ffd5b505050506040513d601f19601f820116820180604052508101906200012591906200064d565b1162000168576040517f08c379a00000000000000000000000000000000000000000000000000000000081526004016200015f90620006f1565b60405180910390fd5b5f73ffffffffffffffffffffffffffffffffffffffff168473ffffffffffffffffffffffffffffffffffffffff1603620001d9576040517f08c379a0000000000000000000000000000000000000000000000000000000008152600401620001d09062000785565b60405180910390fd5b5f73ffffffffffffffffffffffffffffffffffffffff168373ffffffffffffffffffffffffffffffffffffffff16036200024a576040517f08c379a00000000000000000000000000000000000000000000000000000000081526004016200024190620007f3565b60405180910390fd5b8360075f6101000a81548173ffffffffffffffffffffffffffffffffffffffff021916908373ffffffffffffffffffffffffffffffffffffffff1602179055506040518061010001604052808273ffffffffffffffffffffffffffffffffffffffff1681526020018473ffffffffffffffffffffffffffffffffffffffff1681526020018573ffffffffffffffffffffffffffffffffffffffff1681526020018381526020015f81526020015f81526020015f151581526020015f15158152505f80820151815f015f6101000a81548173ffffffffffffffffffffffffffffffffffffffff021916908373ffffffffffffffffffffffffffffffffffffffff1602179055506020820151816001015f6101000a81548173ffffffffffffffffffffffffffffffffffffffff021916908373ffffffffffffffffffffffffffffffffffffffff1602179055506040820151816002015f6101000a81548173ffffffffffffffffffffffffffffffffffffffff021916908373ffffffffffffffffffffffffffffffffffffffff160217905550606082015181600301556080820151816004015560a0820151816005015560c0820151816006015f6101000a81548160ff02191690831515021790555060e08201518160060160016101000a81548160ff0219169083151502179055509050508073ffffffffffffffffffffffffffffffffffffffff167fea852cad362f5c1a9c667d99b45479efe41de31b99ae3638f0c19fa040ab4dc284846040516200048592919062000824565b60405180910390a2505050506200084f565b5f80fd5b5f73ffffffffffffffffffffffffffffffffffffffff82169050919050565b5f620004c6826200049b565b9050919050565b620004d881620004ba565b8114620004e3575f80fd5b50565b5f81519050620004f681620004cd565b92915050565b5f819050919050565b6200051081620004fc565b81146200051b575f80fd5b50565b5f815190506200052e8162000505565b92915050565b5f805f80608085870312156200054f576200054e62000497565b5b5f6200055e87828801620004e6565b94505060206200057187828801620004e6565b935050604062000584878288016200051e565b92505060606200059787828801620004e6565b91505092959194509250565b5f82825260208201905092915050565b7f496e76616c69642070726f706f7365722077616c6c65742061646472657373005f82015250565b5f620005e9601f83620005a3565b9150620005f682620005b3565b602082019050919050565b5f6020820190508181035f8301526200061a81620005db565b9050919050565b6200062c81620004ba565b82525050565b5f602082019050620006475f83018462000621565b92915050565b5f6020828403121562000665576200066462000497565b5b5f62000674848285016200051e565b91505092915050565b7f4465706c6f79696e672077616c6c6574206d757374206265206120746f6b656e5f8201527f20686f6c64657200000000000000000000000000000000000000000000000000602082015250565b5f620006d9602783620005a3565b9150620006e6826200067d565b604082019050919050565b5f6020820190508181035f8301526200070a81620006cb565b9050919050565b7f496e76616c69642052574120746f6b656e697a6174696f6e20636f6e747261635f8201527f7420616464726573730000000000000000000000000000000000000000000000602082015250565b5f6200076d602983620005a3565b91506200077a8262000711565b604082019050919050565b5f6020820190508181035f8301526200079e816200075f565b9050919050565b7f496e76616c696420706f6f6c20616464726573730000000000000000000000005f82015250565b5f620007db601483620005a3565b9150620007e882620007a5565b602082019050919050565b5f6020820190508181035f8301526200080c81620007cd565b9050919050565b6200081e81620004fc565b82525050565b5f604082019050620008395f83018562000621565b62000848602083018462000813565b9392505050565b610b78806200085d5f395ff3fe608060405234801561000f575f80fd5b5060043610610060575f3560e01c806309eef43e1461006457806325fdf6b114610094578063373058b8146100b25780634b9f5c98146100bc578063753ec103146100d8578063cebc56ad146100fd575b5f80fd5b61007e6004803603810190610079919061073b565b61011c565b60405161008b9190610780565b60405180910390f35b61009c610139565b6040516100a991906107f4565b60405180910390f35b6100ba61015e565b005b6100d660048036038101906100d19190610837565b61023b565b005b6100e0610606565b6040516100f4989796959493929190610889565b60405180910390f35b6101056106b0565b604051610113929190610905565b60405180910390f35b6008602052805f5260405f205f915054906101000a900460ff1681565b60075f9054906101000a900473ffffffffffffffffffffffffffffffffffffffff1681565b5f6006015f9054906101000a900460ff16156101af576040517f08c379a00000000000000000000000000000000000000000000000000000000081526004016101a690610986565b60405180910390fd5b5f600501545f60040154115f60060160016101000a81548160ff02191690831515021790555060015f6006015f6101000a81548160ff0219169083151502179055507f1d1550e53334f4835142f95e29cb712071f89ecd734dec7f91ce379cbff186fa5f60060160019054906101000a900460ff166040516102319190610780565b60405180910390a1565b5f60075f9054906101000a900473ffffffffffffffffffffffffffffffffffffffff1673ffffffffffffffffffffffffffffffffffffffff166370a08231336040518263ffffffff1660e01b815260040161029691906109a4565b602060405180830381865afa1580156102b1573d5f803e3d5ffd5b505050506040513d601f19601f820116820180604052508101906102d591906109e7565b11610315576040517f08c379a000000000000000000000000000000000000000000000000000000000815260040161030c90610a5c565b60405180910390fd5b60085f3373ffffffffffffffffffffffffffffffffffffffff1673ffffffffffffffffffffffffffffffffffffffff1681526020019081526020015f205f9054906101000a900460ff161561039f576040517f08c379a000000000000000000000000000000000000000000000000000000000815260040161039690610ac4565b60405180910390fd5b5f6006015f9054906101000a900460ff16156103f0576040517f08c379a00000000000000000000000000000000000000000000000000000000081526004016103e790610986565b60405180910390fd5b80156104ad5760075f9054906101000a900473ffffffffffffffffffffffffffffffffffffffff1673ffffffffffffffffffffffffffffffffffffffff166370a08231336040518263ffffffff1660e01b815260040161045091906109a4565b602060405180830381865afa15801561046b573d5f803e3d5ffd5b505050506040513d601f19601f8201168201806040525081019061048f91906109e7565b5f6004015f8282546104a19190610b0f565b92505081905550610560565b60075f9054906101000a900473ffffffffffffffffffffffffffffffffffffffff1673ffffffffffffffffffffffffffffffffffffffff166370a08231336040518263ffffffff1660e01b815260040161050791906109a4565b602060405180830381865afa158015610522573d5f803e3d5ffd5b505050506040513d601f19601f8201168201806040525081019061054691906109e7565b5f6005015f8282546105589190610b0f565b925050819055505b600160085f3373ffffffffffffffffffffffffffffffffffffffff1673ffffffffffffffffffffffffffffffffffffffff1681526020019081526020015f205f6101000a81548160ff0219169083151502179055503373ffffffffffffffffffffffffffffffffffffffff167f8eb81cb806dbb3d8a2f94981614331a55dfd90e06a42fdc362ca3ca96981d92f826040516105fb9190610780565b60405180910390a250565b5f805f015f9054906101000a900473ffffffffffffffffffffffffffffffffffffffff1690806001015f9054906101000a900473ffffffffffffffffffffffffffffffffffffffff1690806002015f9054906101000a900473ffffffffffffffffffffffffffffffffffffffff1690806003015490806004015490806005015490806006015f9054906101000a900460ff16908060060160019054906101000a900460ff16905088565b5f805f60060160019054906101000a900460ff165f6006015f9054906101000a900460ff16915091509091565b5f80fd5b5f73ffffffffffffffffffffffffffffffffffffffff82169050919050565b5f61070a826106e1565b9050919050565b61071a81610700565b8114610724575f80fd5b50565b5f8135905061073581610711565b92915050565b5f602082840312156107505761074f6106dd565b5b5f61075d84828501610727565b91505092915050565b5f8115159050919050565b61077a81610766565b82525050565b5f6020820190506107935f830184610771565b92915050565b5f819050919050565b5f6107bc6107b76107b2846106e1565b610799565b6106e1565b9050919050565b5f6107cd826107a2565b9050919050565b5f6107de826107c3565b9050919050565b6107ee816107d4565b82525050565b5f6020820190506108075f8301846107e5565b92915050565b61081681610766565b8114610820575f80fd5b50565b5f813590506108318161080d565b92915050565b5f6020828403121561084c5761084b6106dd565b5b5f61085984828501610823565b91505092915050565b61086b81610700565b82525050565b5f819050919050565b61088381610871565b82525050565b5f6101008201905061089d5f83018b610862565b6108aa602083018a610862565b6108b76040830189610862565b6108c4606083018861087a565b6108d1608083018761087a565b6108de60a083018661087a565b6108eb60c0830185610771565b6108f860e0830184610771565b9998505050505050505050565b5f6040820190506109185f830185610771565b6109256020830184610771565b9392505050565b5f82825260208201905092915050565b7f50726f706f73616c20616c7265616479206578656375746564000000000000005f82015250565b5f61097060198361092c565b915061097b8261093c565b602082019050919050565b5f6020820190508181035f83015261099d81610964565b9050919050565b5f6020820190506109b75f830184610862565b92915050565b6109c681610871565b81146109d0575f80fd5b50565b5f815190506109e1816109bd565b92915050565b5f602082840312156109fc576109fb6106dd565b5b5f610a09848285016109d3565b91505092915050565b7f4e6f74206120746f6b656e20686f6c64657200000000000000000000000000005f82015250565b5f610a4660128361092c565b9150610a5182610a12565b602082019050919050565b5f6020820190508181035f830152610a7381610a3a565b9050919050565b7f416c726561647920766f746564000000000000000000000000000000000000005f82015250565b5f610aae600d8361092c565b9150610ab982610a7a565b602082019050919050565b5f6020820190508181035f830152610adb81610aa2565b9050919050565b7f4e487b71000000000000000000000000000000000000000000000000000000005f52601160045260245ffd5b5f610b1982610871565b9150610b2483610871565b9250828201905080821115610b3c57610b3b610ae2565b5b9291505056fea26469706673582212208843212d2a551107a22d8daa5bb2b6827cc2d6aa09d2e4766cd1efff6371cb7d64736f6c63430008180033a2646970667358221220f5b769f4ebde4c5dd36d09d4e1e3186652bbfeea2e551100d89cad6c443a61ff64736f6c63430008180033",
			"opcodes": "PUSH1 0x80 PUSH1 0x40 MSTORE CALLVALUE DUP1 ISZERO PUSH2 0xF JUMPI PUSH0 DUP1 REVERT JUMPDEST POP PUSH1 0x40 MLOAD PUSH2 0x1944 CODESIZE SUB DUP1 PUSH2 0x1944 DUP4 CODECOPY DUP2 DUP2 ADD PUSH1 0x40 MSTORE DUP2 ADD SWAP1 PUSH2 0x31 SWAP2 SWAP1 PUSH2 0xD4 JUMP JUMPDEST DUP1 PUSH0 DUP1 PUSH2 0x100 EXP DUP2 SLOAD DUP2 PUSH20 0xFFFFFFFFFFFFFFFFFFFFFFFFFFFFFFFFFFFFFFFF MUL NOT AND SWAP1 DUP4 PUSH20 0xFFFFFFFFFFFFFFFFFFFFFFFFFFFFFFFFFFFFFFFF AND MUL OR SWAP1 SSTORE POP POP PUSH2 0xFF JUMP JUMPDEST PUSH0 DUP1 REVERT JUMPDEST PUSH0 PUSH20 0xFFFFFFFFFFFFFFFFFFFFFFFFFFFFFFFFFFFFFFFF DUP3 AND SWAP1 POP SWAP2 SWAP1 POP JUMP JUMPDEST PUSH0 PUSH2 0xA3 DUP3 PUSH2 0x7A JUMP JUMPDEST SWAP1 POP SWAP2 SWAP1 POP JUMP JUMPDEST PUSH2 0xB3 DUP2 PUSH2 0x99 JUMP JUMPDEST DUP2 EQ PUSH2 0xBD JUMPI PUSH0 DUP1 REVERT JUMPDEST POP JUMP JUMPDEST PUSH0 DUP2 MLOAD SWAP1 POP PUSH2 0xCE DUP2 PUSH2 0xAA JUMP JUMPDEST SWAP3 SWAP2 POP POP JUMP JUMPDEST PUSH0 PUSH1 0x20 DUP3 DUP5 SUB SLT ISZERO PUSH2 0xE9 JUMPI PUSH2 0xE8 PUSH2 0x76 JUMP JUMPDEST JUMPDEST PUSH0 PUSH2 0xF6 DUP5 DUP3 DUP6 ADD PUSH2 0xC0 JUMP JUMPDEST SWAP2 POP POP SWAP3 SWAP2 POP POP JUMP JUMPDEST PUSH2 0x1838 DUP1 PUSH2 0x10C PUSH0 CODECOPY PUSH0 RETURN INVALID PUSH1 0x80 PUSH1 0x40 MSTORE CALLVALUE DUP1 ISZERO PUSH3 0x10 JUMPI PUSH0 DUP1 REVERT JUMPDEST POP PUSH1 0x4 CALLDATASIZE LT PUSH3 0x38 JUMPI PUSH0 CALLDATALOAD PUSH1 0xE0 SHR DUP1 PUSH4 0x234CB757 EQ PUSH3 0x3C JUMPI DUP1 PUSH4 0x54186558 EQ PUSH3 0x5E JUMPI JUMPDEST PUSH0 DUP1 REVERT JUMPDEST PUSH3 0x46 PUSH3 0x94 JUMP JUMPDEST PUSH1 0x40 MLOAD PUSH3 0x55 SWAP2 SWAP1 PUSH3 0x26D JUMP JUMPDEST PUSH1 0x40 MLOAD DUP1 SWAP2 SUB SWAP1 RETURN JUMPDEST PUSH3 0x7C PUSH1 0x4 DUP1 CALLDATASIZE SUB DUP2 ADD SWAP1 PUSH3 0x76 SWAP2 SWAP1 PUSH3 0x306 JUMP JUMPDEST PUSH3 0xB7 JUMP JUMPDEST PUSH1 0x40 MLOAD PUSH3 0x8B SWAP2 SWAP1 PUSH3 0x370 JUMP JUMPDEST PUSH1 0x40 MLOAD DUP1 SWAP2 SUB SWAP1 RETURN JUMPDEST PUSH0 DUP1 SLOAD SWAP1 PUSH2 0x100 EXP SWAP1 DIV PUSH20 0xFFFFFFFFFFFFFFFFFFFFFFFFFFFFFFFFFFFFFFFF AND DUP2 JUMP JUMPDEST PUSH0 DUP1 DUP5 DUP5 DUP5 CALLER PUSH1 0x40 MLOAD PUSH3 0xCB SWAP1 PUSH3 0x1D9 JUMP JUMPDEST PUSH3 0xDA SWAP5 SWAP4 SWAP3 SWAP2 SWAP1 PUSH3 0x39C JUMP JUMPDEST PUSH1 0x40 MLOAD DUP1 SWAP2 SUB SWAP1 PUSH0 CREATE DUP1 ISZERO DUP1 ISZERO PUSH3 0xF4 JUMPI RETURNDATASIZE PUSH0 DUP1 RETURNDATACOPY RETURNDATASIZE PUSH0 REVERT JUMPDEST POP SWAP1 POP PUSH0 DUP1 SLOAD SWAP1 PUSH2 0x100 EXP SWAP1 DIV PUSH20 0xFFFFFFFFFFFFFFFFFFFFFFFFFFFFFFFFFFFFFFFF AND PUSH20 0xFFFFFFFFFFFFFFFFFFFFFFFFFFFFFFFFFFFFFFFF AND PUSH4 0xEC0B31DE DUP3 PUSH1 0x40 MLOAD DUP3 PUSH4 0xFFFFFFFF AND PUSH1 0xE0 SHL DUP2 MSTORE PUSH1 0x4 ADD PUSH3 0x151 SWAP2 SWAP1 PUSH3 0x370 JUMP JUMPDEST PUSH1 0x20 PUSH1 0x40 MLOAD DUP1 DUP4 SUB DUP2 PUSH0 DUP8 GAS CALL ISZERO DUP1 ISZERO PUSH3 0x16E JUMPI RETURNDATASIZE PUSH0 DUP1 RETURNDATACOPY RETURNDATASIZE PUSH0 REVERT JUMPDEST POP POP POP POP PUSH1 0x40 MLOAD RETURNDATASIZE PUSH1 0x1F NOT PUSH1 0x1F DUP3 ADD AND DUP3 ADD DUP1 PUSH1 0x40 MSTORE POP DUP2 ADD SWAP1 PUSH3 0x194 SWAP2 SWAP1 PUSH3 0x3FD JUMP JUMPDEST POP PUSH32 0x2AB2DBE2FEF94A06BD731B26FE04FFCCDDDD6CF62655FE9B75629EA3B06D653A DUP2 PUSH1 0x40 MLOAD PUSH3 0x1C6 SWAP2 SWAP1 PUSH3 0x370 JUMP JUMPDEST PUSH1 0x40 MLOAD DUP1 SWAP2 SUB SWAP1 LOG1 DUP1 SWAP2 POP POP SWAP4 SWAP3 POP POP POP JUMP JUMPDEST PUSH2 0x13D5 DUP1 PUSH3 0x42E DUP4 CODECOPY ADD SWAP1 JUMP JUMPDEST PUSH0 PUSH20 0xFFFFFFFFFFFFFFFFFFFFFFFFFFFFFFFFFFFFFFFF DUP3 AND SWAP1 POP SWAP2 SWAP1 POP JUMP JUMPDEST PUSH0 DUP2 SWAP1 POP SWAP2 SWAP1 POP JUMP JUMPDEST PUSH0 PUSH3 0x22F PUSH3 0x229 PUSH3 0x223 DUP5 PUSH3 0x1E7 JUMP JUMPDEST PUSH3 0x206 JUMP JUMPDEST PUSH3 0x1E7 JUMP JUMPDEST SWAP1 POP SWAP2 SWAP1 POP JUMP JUMPDEST PUSH0 PUSH3 0x242 DUP3 PUSH3 0x20F JUMP JUMPDEST SWAP1 POP SWAP2 SWAP1 POP JUMP JUMPDEST PUSH0 PUSH3 0x255 DUP3 PUSH3 0x236 JUMP JUMPDEST SWAP1 POP SWAP2 SWAP1 POP JUMP JUMPDEST PUSH3 0x267 DUP2 PUSH3 0x249 JUMP JUMPDEST DUP3 MSTORE POP POP JUMP JUMPDEST PUSH0 PUSH1 0x20 DUP3 ADD SWAP1 POP PUSH3 0x282 PUSH0 DUP4 ADD DUP5 PUSH3 0x25C JUMP JUMPDEST SWAP3 SWAP2 POP POP JUMP JUMPDEST PUSH0 DUP1 REVERT JUMPDEST PUSH0 PUSH3 0x298 DUP3 PUSH3 0x1E7 JUMP JUMPDEST SWAP1 POP SWAP2 SWAP1 POP JUMP JUMPDEST PUSH3 0x2AA DUP2 PUSH3 0x28C JUMP JUMPDEST DUP2 EQ PUSH3 0x2B5 JUMPI PUSH0 DUP1 REVERT JUMPDEST POP JUMP JUMPDEST PUSH0 DUP2 CALLDATALOAD SWAP1 POP PUSH3 0x2C8 DUP2 PUSH3 0x29F JUMP JUMPDEST SWAP3 SWAP2 POP POP JUMP JUMPDEST PUSH0 DUP2 SWAP1 POP SWAP2 SWAP1 POP JUMP JUMPDEST PUSH3 0x2E2 DUP2 PUSH3 0x2CE JUMP JUMPDEST DUP2 EQ PUSH3 0x2ED JUMPI PUSH0 DUP1 REVERT JUMPDEST POP JUMP JUMPDEST PUSH0 DUP2 CALLDATALOAD SWAP1 POP PUSH3 0x300 DUP2 PUSH3 0x2D7 JUMP JUMPDEST SWAP3 SWAP2 POP POP JUMP JUMPDEST PUSH0 DUP1 PUSH0 PUSH1 0x60 DUP5 DUP7 SUB SLT ISZERO PUSH3 0x320 JUMPI PUSH3 0x31F PUSH3 0x288 JUMP JUMPDEST JUMPDEST PUSH0 PUSH3 0x32F DUP7 DUP3 DUP8 ADD PUSH3 0x2B8 JUMP JUMPDEST SWAP4 POP POP PUSH1 0x20 PUSH3 0x342 DUP7 DUP3 DUP8 ADD PUSH3 0x2B8 JUMP JUMPDEST SWAP3 POP POP PUSH1 0x40 PUSH3 0x355 DUP7 DUP3 DUP8 ADD PUSH3 0x2F0 JUMP JUMPDEST SWAP2 POP POP SWAP3 POP SWAP3 POP SWAP3 JUMP JUMPDEST PUSH3 0x36A DUP2 PUSH3 0x28C JUMP JUMPDEST DUP3 MSTORE POP POP JUMP JUMPDEST PUSH0 PUSH1 0x20 DUP3 ADD SWAP1 POP PUSH3 0x385 PUSH0 DUP4 ADD DUP5 PUSH3 0x35F JUMP JUMPDEST SWAP3 SWAP2 POP POP JUMP JUMPDEST PUSH3 0x396 DUP2 PUSH3 0x2CE JUMP JUMPDEST DUP3 MSTORE POP POP JUMP JUMPDEST PUSH0 PUSH1 0x80 DUP3 ADD SWAP1 POP PUSH3 0x3B1 PUSH0 DUP4 ADD DUP8 PUSH3 0x35F JUMP JUMPDEST PUSH3 0x3C0 PUSH1 0x20 DUP4 ADD DUP7 PUSH3 0x35F JUMP JUMPDEST PUSH3 0x3CF PUSH1 0x40 DUP4 ADD DUP6 PUSH3 0x38B JUMP JUMPDEST PUSH3 0x3DE PUSH1 0x60 DUP4 ADD DUP5 PUSH3 0x35F JUMP JUMPDEST SWAP6 SWAP5 POP POP POP POP POP JUMP JUMPDEST PUSH0 DUP2 MLOAD SWAP1 POP PUSH3 0x3F7 DUP2 PUSH3 0x2D7 JUMP JUMPDEST SWAP3 SWAP2 POP POP JUMP JUMPDEST PUSH0 PUSH1 0x20 DUP3 DUP5 SUB SLT ISZERO PUSH3 0x415 JUMPI PUSH3 0x414 PUSH3 0x288 JUMP JUMPDEST JUMPDEST PUSH0 PUSH3 0x424 DUP5 DUP3 DUP6 ADD PUSH3 0x3E7 JUMP JUMPDEST SWAP2 POP POP SWAP3 SWAP2 POP POP JUMP INVALID PUSH1 0x80 PUSH1 0x40 MSTORE CALLVALUE DUP1 ISZERO PUSH3 0x10 JUMPI PUSH0 DUP1 REVERT JUMPDEST POP PUSH1 0x40 MLOAD PUSH3 0x13D5 CODESIZE SUB DUP1 PUSH3 0x13D5 DUP4 CODECOPY DUP2 DUP2 ADD PUSH1 0x40 MSTORE DUP2 ADD SWAP1 PUSH3 0x36 SWAP2 SWAP1 PUSH3 0x534 JUMP JUMPDEST PUSH0 PUSH20 0xFFFFFFFFFFFFFFFFFFFFFFFFFFFFFFFFFFFFFFFF AND DUP2 PUSH20 0xFFFFFFFFFFFFFFFFFFFFFFFFFFFFFFFFFFFFFFFF AND SUB PUSH3 0xA7 JUMPI PUSH1 0x40 MLOAD PUSH32 0x8C379A000000000000000000000000000000000000000000000000000000000 DUP2 MSTORE PUSH1 0x4 ADD PUSH3 0x9E SWAP1 PUSH3 0x601 JUMP JUMPDEST PUSH1 0x40 MLOAD DUP1 SWAP2 SUB SWAP1 REVERT JUMPDEST PUSH0 DUP5 PUSH20 0xFFFFFFFFFFFFFFFFFFFFFFFFFFFFFFFFFFFFFFFF AND PUSH4 0x70A08231 DUP4 PUSH1 0x40 MLOAD DUP3 PUSH4 0xFFFFFFFF AND PUSH1 0xE0 SHL DUP2 MSTORE PUSH1 0x4 ADD PUSH3 0xE3 SWAP2 SWAP1 PUSH3 0x632 JUMP JUMPDEST PUSH1 0x20 PUSH1 0x40 MLOAD DUP1 DUP4 SUB DUP2 DUP7 GAS STATICCALL ISZERO DUP1 ISZERO PUSH3 0xFF JUMPI RETURNDATASIZE PUSH0 DUP1 RETURNDATACOPY RETURNDATASIZE PUSH0 REVERT JUMPDEST POP POP POP POP PUSH1 0x40 MLOAD RETURNDATASIZE PUSH1 0x1F NOT PUSH1 0x1F DUP3 ADD AND DUP3 ADD DUP1 PUSH1 0x40 MSTORE POP DUP2 ADD SWAP1 PUSH3 0x125 SWAP2 SWAP1 PUSH3 0x64D JUMP JUMPDEST GT PUSH3 0x168 JUMPI PUSH1 0x40 MLOAD PUSH32 0x8C379A000000000000000000000000000000000000000000000000000000000 DUP2 MSTORE PUSH1 0x4 ADD PUSH3 0x15F SWAP1 PUSH3 0x6F1 JUMP JUMPDEST PUSH1 0x40 MLOAD DUP1 SWAP2 SUB SWAP1 REVERT JUMPDEST PUSH0 PUSH20 0xFFFFFFFFFFFFFFFFFFFFFFFFFFFFFFFFFFFFFFFF AND DUP5 PUSH20 0xFFFFFFFFFFFFFFFFFFFFFFFFFFFFFFFFFFFFFFFF AND SUB PUSH3 0x1D9 JUMPI PUSH1 0x40 MLOAD PUSH32 0x8C379A000000000000000000000000000000000000000000000000000000000 DUP2 MSTORE PUSH1 0x4 ADD PUSH3 0x1D0 SWAP1 PUSH3 0x785 JUMP JUMPDEST PUSH1 0x40 MLOAD DUP1 SWAP2 SUB SWAP1 REVERT JUMPDEST PUSH0 PUSH20 0xFFFFFFFFFFFFFFFFFFFFFFFFFFFFFFFFFFFFFFFF AND DUP4 PUSH20 0xFFFFFFFFFFFFFFFFFFFFFFFFFFFFFFFFFFFFFFFF AND SUB PUSH3 0x24A JUMPI PUSH1 0x40 MLOAD PUSH32 0x8C379A000000000000000000000000000000000000000000000000000000000 DUP2 MSTORE PUSH1 0x4 ADD PUSH3 0x241 SWAP1 PUSH3 0x7F3 JUMP JUMPDEST PUSH1 0x40 MLOAD DUP1 SWAP2 SUB SWAP1 REVERT JUMPDEST DUP4 PUSH1 0x7 PUSH0 PUSH2 0x100 EXP DUP2 SLOAD DUP2 PUSH20 0xFFFFFFFFFFFFFFFFFFFFFFFFFFFFFFFFFFFFFFFF MUL NOT AND SWAP1 DUP4 PUSH20 0xFFFFFFFFFFFFFFFFFFFFFFFFFFFFFFFFFFFFFFFF AND MUL OR SWAP1 SSTORE POP PUSH1 0x40 MLOAD DUP1 PUSH2 0x100 ADD PUSH1 0x40 MSTORE DUP1 DUP3 PUSH20 0xFFFFFFFFFFFFFFFFFFFFFFFFFFFFFFFFFFFFFFFF AND DUP2 MSTORE PUSH1 0x20 ADD DUP5 PUSH20 0xFFFFFFFFFFFFFFFFFFFFFFFFFFFFFFFFFFFFFFFF AND DUP2 MSTORE PUSH1 0x20 ADD DUP6 PUSH20 0xFFFFFFFFFFFFFFFFFFFFFFFFFFFFFFFFFFFFFFFF AND DUP2 MSTORE PUSH1 0x20 ADD DUP4 DUP2 MSTORE PUSH1 0x20 ADD PUSH0 DUP2 MSTORE PUSH1 0x20 ADD PUSH0 DUP2 MSTORE PUSH1 0x20 ADD PUSH0 ISZERO ISZERO DUP2 MSTORE PUSH1 0x20 ADD PUSH0 ISZERO ISZERO DUP2 MSTORE POP PUSH0 DUP1 DUP3 ADD MLOAD DUP2 PUSH0 ADD PUSH0 PUSH2 0x100 EXP DUP2 SLOAD DUP2 PUSH20 0xFFFFFFFFFFFFFFFFFFFFFFFFFFFFFFFFFFFFFFFF MUL NOT AND SWAP1 DUP4 PUSH20 0xFFFFFFFFFFFFFFFFFFFFFFFFFFFFFFFFFFFFFFFF AND MUL OR SWAP1 SSTORE POP PUSH1 0x20 DUP3 ADD MLOAD DUP2 PUSH1 0x1 ADD PUSH0 PUSH2 0x100 EXP DUP2 SLOAD DUP2 PUSH20 0xFFFFFFFFFFFFFFFFFFFFFFFFFFFFFFFFFFFFFFFF MUL NOT AND SWAP1 DUP4 PUSH20 0xFFFFFFFFFFFFFFFFFFFFFFFFFFFFFFFFFFFFFFFF AND MUL OR SWAP1 SSTORE POP PUSH1 0x40 DUP3 ADD MLOAD DUP2 PUSH1 0x2 ADD PUSH0 PUSH2 0x100 EXP DUP2 SLOAD DUP2 PUSH20 0xFFFFFFFFFFFFFFFFFFFFFFFFFFFFFFFFFFFFFFFF MUL NOT AND SWAP1 DUP4 PUSH20 0xFFFFFFFFFFFFFFFFFFFFFFFFFFFFFFFFFFFFFFFF AND MUL OR SWAP1 SSTORE POP PUSH1 0x60 DUP3 ADD MLOAD DUP2 PUSH1 0x3 ADD SSTORE PUSH1 0x80 DUP3 ADD MLOAD DUP2 PUSH1 0x4 ADD SSTORE PUSH1 0xA0 DUP3 ADD MLOAD DUP2 PUSH1 0x5 ADD SSTORE PUSH1 0xC0 DUP3 ADD MLOAD DUP2 PUSH1 0x6 ADD PUSH0 PUSH2 0x100 EXP DUP2 SLOAD DUP2 PUSH1 0xFF MUL NOT AND SWAP1 DUP4 ISZERO ISZERO MUL OR SWAP1 SSTORE POP PUSH1 0xE0 DUP3 ADD MLOAD DUP2 PUSH1 0x6 ADD PUSH1 0x1 PUSH2 0x100 EXP DUP2 SLOAD DUP2 PUSH1 0xFF MUL NOT AND SWAP1 DUP4 ISZERO ISZERO MUL OR SWAP1 SSTORE POP SWAP1 POP POP DUP1 PUSH20 0xFFFFFFFFFFFFFFFFFFFFFFFFFFFFFFFFFFFFFFFF AND PUSH32 0xEA852CAD362F5C1A9C667D99B45479EFE41DE31B99AE3638F0C19FA040AB4DC2 DUP5 DUP5 PUSH1 0x40 MLOAD PUSH3 0x485 SWAP3 SWAP2 SWAP1 PUSH3 0x824 JUMP JUMPDEST PUSH1 0x40 MLOAD DUP1 SWAP2 SUB SWAP1 LOG2 POP POP POP POP PUSH3 0x84F JUMP JUMPDEST PUSH0 DUP1 REVERT JUMPDEST PUSH0 PUSH20 0xFFFFFFFFFFFFFFFFFFFFFFFFFFFFFFFFFFFFFFFF DUP3 AND SWAP1 POP SWAP2 SWAP1 POP JUMP JUMPDEST PUSH0 PUSH3 0x4C6 DUP3 PUSH3 0x49B JUMP JUMPDEST SWAP1 POP SWAP2 SWAP1 POP JUMP JUMPDEST PUSH3 0x4D8 DUP2 PUSH3 0x4BA JUMP JUMPDEST DUP2 EQ PUSH3 0x4E3 JUMPI PUSH0 DUP1 REVERT JUMPDEST POP JUMP JUMPDEST PUSH0 DUP2 MLOAD SWAP1 POP PUSH3 0x4F6 DUP2 PUSH3 0x4CD JUMP JUMPDEST SWAP3 SWAP2 POP POP JUMP JUMPDEST PUSH0 DUP2 SWAP1 POP SWAP2 SWAP1 POP JUMP JUMPDEST PUSH3 0x510 DUP2 PUSH3 0x4FC JUMP JUMPDEST DUP2 EQ PUSH3 0x51B JUMPI PUSH0 DUP1 REVERT JUMPDEST POP JUMP JUMPDEST PUSH0 DUP2 MLOAD SWAP1 POP PUSH3 0x52E DUP2 PUSH3 0x505 JUMP JUMPDEST SWAP3 SWAP2 POP POP JUMP JUMPDEST PUSH0 DUP1 PUSH0 DUP1 PUSH1 0x80 DUP6 DUP8 SUB SLT ISZERO PUSH3 0x54F JUMPI PUSH3 0x54E PUSH3 0x497 JUMP JUMPDEST JUMPDEST PUSH0 PUSH3 0x55E DUP8 DUP3 DUP9 ADD PUSH3 0x4E6 JUMP JUMPDEST SWAP5 POP POP PUSH1 0x20 PUSH3 0x571 DUP8 DUP3 DUP9 ADD PUSH3 0x4E6 JUMP JUMPDEST SWAP4 POP POP PUSH1 0x40 PUSH3 0x584 DUP8 DUP3 DUP9 ADD PUSH3 0x51E JUMP JUMPDEST SWAP3 POP POP PUSH1 0x60 PUSH3 0x597 DUP8 DUP3 DUP9 ADD PUSH3 0x4E6 JUMP JUMPDEST SWAP2 POP POP SWAP3 SWAP6 SWAP2 SWAP5 POP SWAP3 POP JUMP JUMPDEST PUSH0 DUP3 DUP3 MSTORE PUSH1 0x20 DUP3 ADD SWAP1 POP SWAP3 SWAP2 POP POP JUMP JUMPDEST PUSH32 0x496E76616C69642070726F706F7365722077616C6C6574206164647265737300 PUSH0 DUP3 ADD MSTORE POP JUMP JUMPDEST PUSH0 PUSH3 0x5E9 PUSH1 0x1F DUP4 PUSH3 0x5A3 JUMP JUMPDEST SWAP2 POP PUSH3 0x5F6 DUP3 PUSH3 0x5B3 JUMP JUMPDEST PUSH1 0x20 DUP3 ADD SWAP1 POP SWAP2 SWAP1 POP JUMP JUMPDEST PUSH0 PUSH1 0x20 DUP3 ADD SWAP1 POP DUP2 DUP2 SUB PUSH0 DUP4 ADD MSTORE PUSH3 0x61A DUP2 PUSH3 0x5DB JUMP JUMPDEST SWAP1 POP SWAP2 SWAP1 POP JUMP JUMPDEST PUSH3 0x62C DUP2 PUSH3 0x4BA JUMP JUMPDEST DUP3 MSTORE POP POP JUMP JUMPDEST PUSH0 PUSH1 0x20 DUP3 ADD SWAP1 POP PUSH3 0x647 PUSH0 DUP4 ADD DUP5 PUSH3 0x621 JUMP JUMPDEST SWAP3 SWAP2 POP POP JUMP JUMPDEST PUSH0 PUSH1 0x20 DUP3 DUP5 SUB SLT ISZERO PUSH3 0x665 JUMPI PUSH3 0x664 PUSH3 0x497 JUMP JUMPDEST JUMPDEST PUSH0 PUSH3 0x674 DUP5 DUP3 DUP6 ADD PUSH3 0x51E JUMP JUMPDEST SWAP2 POP POP SWAP3 SWAP2 POP POP JUMP JUMPDEST PUSH32 0x4465706C6F79696E672077616C6C6574206D757374206265206120746F6B656E PUSH0 DUP3 ADD MSTORE PUSH32 0x20686F6C64657200000000000000000000000000000000000000000000000000 PUSH1 0x20 DUP3 ADD MSTORE POP JUMP JUMPDEST PUSH0 PUSH3 0x6D9 PUSH1 0x27 DUP4 PUSH3 0x5A3 JUMP JUMPDEST SWAP2 POP PUSH3 0x6E6 DUP3 PUSH3 0x67D JUMP JUMPDEST PUSH1 0x40 DUP3 ADD SWAP1 POP SWAP2 SWAP1 POP JUMP JUMPDEST PUSH0 PUSH1 0x20 DUP3 ADD SWAP1 POP DUP2 DUP2 SUB PUSH0 DUP4 ADD MSTORE PUSH3 0x70A DUP2 PUSH3 0x6CB JUMP JUMPDEST SWAP1 POP SWAP2 SWAP1 POP JUMP JUMPDEST PUSH32 0x496E76616C69642052574120746F6B656E697A6174696F6E20636F6E74726163 PUSH0 DUP3 ADD MSTORE PUSH32 0x7420616464726573730000000000000000000000000000000000000000000000 PUSH1 0x20 DUP3 ADD MSTORE POP JUMP JUMPDEST PUSH0 PUSH3 0x76D PUSH1 0x29 DUP4 PUSH3 0x5A3 JUMP JUMPDEST SWAP2 POP PUSH3 0x77A DUP3 PUSH3 0x711 JUMP JUMPDEST PUSH1 0x40 DUP3 ADD SWAP1 POP SWAP2 SWAP1 POP JUMP JUMPDEST PUSH0 PUSH1 0x20 DUP3 ADD SWAP1 POP DUP2 DUP2 SUB PUSH0 DUP4 ADD MSTORE PUSH3 0x79E DUP2 PUSH3 0x75F JUMP JUMPDEST SWAP1 POP SWAP2 SWAP1 POP JUMP JUMPDEST PUSH32 0x496E76616C696420706F6F6C2061646472657373000000000000000000000000 PUSH0 DUP3 ADD MSTORE POP JUMP JUMPDEST PUSH0 PUSH3 0x7DB PUSH1 0x14 DUP4 PUSH3 0x5A3 JUMP JUMPDEST SWAP2 POP PUSH3 0x7E8 DUP3 PUSH3 0x7A5 JUMP JUMPDEST PUSH1 0x20 DUP3 ADD SWAP1 POP SWAP2 SWAP1 POP JUMP JUMPDEST PUSH0 PUSH1 0x20 DUP3 ADD SWAP1 POP DUP2 DUP2 SUB PUSH0 DUP4 ADD MSTORE PUSH3 0x80C DUP2 PUSH3 0x7CD JUMP JUMPDEST SWAP1 POP SWAP2 SWAP1 POP JUMP JUMPDEST PUSH3 0x81E DUP2 PUSH3 0x4FC JUMP JUMPDEST DUP3 MSTORE POP POP JUMP JUMPDEST PUSH0 PUSH1 0x40 DUP3 ADD SWAP1 POP PUSH3 0x839 PUSH0 DUP4 ADD DUP6 PUSH3 0x621 JUMP JUMPDEST PUSH3 0x848 PUSH1 0x20 DUP4 ADD DUP5 PUSH3 0x813 JUMP JUMPDEST SWAP4 SWAP3 POP POP POP JUMP JUMPDEST PUSH2 0xB78 DUP1 PUSH3 0x85D PUSH0 CODECOPY PUSH0 RETURN INVALID PUSH1 0x80 PUSH1 0x40 MSTORE CALLVALUE DUP1 ISZERO PUSH2 0xF JUMPI PUSH0 DUP1 REVERT JUMPDEST POP PUSH1 0x4 CALLDATASIZE LT PUSH2 0x60 JUMPI PUSH0 CALLDATALOAD PUSH1 0xE0 SHR DUP1 PUSH4 0x9EEF43E EQ PUSH2 0x64 JUMPI DUP1 PUSH4 0x25FDF6B1 EQ PUSH2 0x94 JUMPI DUP1 PUSH4 0x373058B8 EQ PUSH2 0xB2 JUMPI DUP1 PUSH4 0x4B9F5C98 EQ PUSH2 0xBC JUMPI DUP1 PUSH4 0x753EC103 EQ PUSH2 0xD8 JUMPI DUP1 PUSH4 0xCEBC56AD EQ PUSH2 0xFD JUMPI JUMPDEST PUSH0 DUP1 REVERT JUMPDEST PUSH2 0x7E PUSH1 0x4 DUP1 CALLDATASIZE SUB DUP2 ADD SWAP1 PUSH2 0x79 SWAP2 SWAP1 PUSH2 0x73B JUMP JUMPDEST PUSH2 0x11C JUMP JUMPDEST PUSH1 0x40 MLOAD PUSH2 0x8B SWAP2 SWAP1 PUSH2 0x780 JUMP JUMPDEST PUSH1 0x40 MLOAD DUP1 SWAP2 SUB SWAP1 RETURN JUMPDEST PUSH2 0x9C PUSH2 0x139 JUMP JUMPDEST PUSH1 0x40 MLOAD PUSH2 0xA9 SWAP2 SWAP1 PUSH2 0x7F4 JUMP JUMPDEST PUSH1 0x40 MLOAD DUP1 SWAP2 SUB SWAP1 RETURN JUMPDEST PUSH2 0xBA PUSH2 0x15E JUMP JUMPDEST STOP JUMPDEST PUSH2 0xD6 PUSH1 0x4 DUP1 CALLDATASIZE SUB DUP2 ADD SWAP1 PUSH2 0xD1 SWAP2 SWAP1 PUSH2 0x837 JUMP JUMPDEST PUSH2 0x23B JUMP JUMPDEST STOP JUMPDEST PUSH2 0xE0 PUSH2 0x606 JUMP JUMPDEST PUSH1 0x40 MLOAD PUSH2 0xF4 SWAP9 SWAP8 SWAP7 SWAP6 SWAP5 SWAP4 SWAP3 SWAP2 SWAP1 PUSH2 0x889 JUMP JUMPDEST PUSH1 0x40 MLOAD DUP1 SWAP2 SUB SWAP1 RETURN JUMPDEST PUSH2 0x105 PUSH2 0x6B0 JUMP JUMPDEST PUSH1 0x40 MLOAD PUSH2 0x113 SWAP3 SWAP2 SWAP1 PUSH2 0x905 JUMP JUMPDEST PUSH1 0x40 MLOAD DUP1 SWAP2 SUB SWAP1 RETURN JUMPDEST PUSH1 0x8 PUSH1 0x20 MSTORE DUP1 PUSH0 MSTORE PUSH1 0x40 PUSH0 KECCAK256 PUSH0 SWAP2 POP SLOAD SWAP1 PUSH2 0x100 EXP SWAP1 DIV PUSH1 0xFF AND DUP2 JUMP JUMPDEST PUSH1 0x7 PUSH0 SWAP1 SLOAD SWAP1 PUSH2 0x100 EXP SWAP1 DIV PUSH20 0xFFFFFFFFFFFFFFFFFFFFFFFFFFFFFFFFFFFFFFFF AND DUP2 JUMP JUMPDEST PUSH0 PUSH1 0x6 ADD PUSH0 SWAP1 SLOAD SWAP1 PUSH2 0x100 EXP SWAP1 DIV PUSH1 0xFF AND ISZERO PUSH2 0x1AF JUMPI PUSH1 0x40 MLOAD PUSH32 0x8C379A000000000000000000000000000000000000000000000000000000000 DUP2 MSTORE PUSH1 0x4 ADD PUSH2 0x1A6 SWAP1 PUSH2 0x986 JUMP JUMPDEST PUSH1 0x40 MLOAD DUP1 SWAP2 SUB SWAP1 REVERT JUMPDEST PUSH0 PUSH1 0x5 ADD SLOAD PUSH0 PUSH1 0x4 ADD SLOAD GT PUSH0 PUSH1 0x6 ADD PUSH1 0x1 PUSH2 0x100 EXP DUP2 SLOAD DUP2 PUSH1 0xFF MUL NOT AND SWAP1 DUP4 ISZERO ISZERO MUL OR SWAP1 SSTORE POP PUSH1 0x1 PUSH0 PUSH1 0x6 ADD PUSH0 PUSH2 0x100 EXP DUP2 SLOAD DUP2 PUSH1 0xFF MUL NOT AND SWAP1 DUP4 ISZERO ISZERO MUL OR SWAP1 SSTORE POP PUSH32 0x1D1550E53334F4835142F95E29CB712071F89ECD734DEC7F91CE379CBFF186FA PUSH0 PUSH1 0x6 ADD PUSH1 0x1 SWAP1 SLOAD SWAP1 PUSH2 0x100 EXP SWAP1 DIV PUSH1 0xFF AND PUSH1 0x40 MLOAD PUSH2 0x231 SWAP2 SWAP1 PUSH2 0x780 JUMP JUMPDEST PUSH1 0x40 MLOAD DUP1 SWAP2 SUB SWAP1 LOG1 JUMP JUMPDEST PUSH0 PUSH1 0x7 PUSH0 SWAP1 SLOAD SWAP1 PUSH2 0x100 EXP SWAP1 DIV PUSH20 0xFFFFFFFFFFFFFFFFFFFFFFFFFFFFFFFFFFFFFFFF AND PUSH20 0xFFFFFFFFFFFFFFFFFFFFFFFFFFFFFFFFFFFFFFFF AND PUSH4 0x70A08231 CALLER PUSH1 0x40 MLOAD DUP3 PUSH4 0xFFFFFFFF AND PUSH1 0xE0 SHL DUP2 MSTORE PUSH1 0x4 ADD PUSH2 0x296 SWAP2 SWAP1 PUSH2 0x9A4 JUMP JUMPDEST PUSH1 0x20 PUSH1 0x40 MLOAD DUP1 DUP4 SUB DUP2 DUP7 GAS STATICCALL ISZERO DUP1 ISZERO PUSH2 0x2B1 JUMPI RETURNDATASIZE PUSH0 DUP1 RETURNDATACOPY RETURNDATASIZE PUSH0 REVERT JUMPDEST POP POP POP POP PUSH1 0x40 MLOAD RETURNDATASIZE PUSH1 0x1F NOT PUSH1 0x1F DUP3 ADD AND DUP3 ADD DUP1 PUSH1 0x40 MSTORE POP DUP2 ADD SWAP1 PUSH2 0x2D5 SWAP2 SWAP1 PUSH2 0x9E7 JUMP JUMPDEST GT PUSH2 0x315 JUMPI PUSH1 0x40 MLOAD PUSH32 0x8C379A000000000000000000000000000000000000000000000000000000000 DUP2 MSTORE PUSH1 0x4 ADD PUSH2 0x30C SWAP1 PUSH2 0xA5C JUMP JUMPDEST PUSH1 0x40 MLOAD DUP1 SWAP2 SUB SWAP1 REVERT JUMPDEST PUSH1 0x8 PUSH0 CALLER PUSH20 0xFFFFFFFFFFFFFFFFFFFFFFFFFFFFFFFFFFFFFFFF AND PUSH20 0xFFFFFFFFFFFFFFFFFFFFFFFFFFFFFFFFFFFFFFFF AND DUP2 MSTORE PUSH1 0x20 ADD SWAP1 DUP2 MSTORE PUSH1 0x20 ADD PUSH0 KECCAK256 PUSH0 SWAP1 SLOAD SWAP1 PUSH2 0x100 EXP SWAP1 DIV PUSH1 0xFF AND ISZERO PUSH2 0x39F JUMPI PUSH1 0x40 MLOAD PUSH32 0x8C379A000000000000000000000000000000000000000000000000000000000 DUP2 MSTORE PUSH1 0x4 ADD PUSH2 0x396 SWAP1 PUSH2 0xAC4 JUMP JUMPDEST PUSH1 0x40 MLOAD DUP1 SWAP2 SUB SWAP1 REVERT JUMPDEST PUSH0 PUSH1 0x6 ADD PUSH0 SWAP1 SLOAD SWAP1 PUSH2 0x100 EXP SWAP1 DIV PUSH1 0xFF AND ISZERO PUSH2 0x3F0 JUMPI PUSH1 0x40 MLOAD PUSH32 0x8C379A000000000000000000000000000000000000000000000000000000000 DUP2 MSTORE PUSH1 0x4 ADD PUSH2 0x3E7 SWAP1 PUSH2 0x986 JUMP JUMPDEST PUSH1 0x40 MLOAD DUP1 SWAP2 SUB SWAP1 REVERT JUMPDEST DUP1 ISZERO PUSH2 0x4AD JUMPI PUSH1 0x7 PUSH0 SWAP1 SLOAD SWAP1 PUSH2 0x100 EXP SWAP1 DIV PUSH20 0xFFFFFFFFFFFFFFFFFFFFFFFFFFFFFFFFFFFFFFFF AND PUSH20 0xFFFFFFFFFFFFFFFFFFFFFFFFFFFFFFFFFFFFFFFF AND PUSH4 0x70A08231 CALLER PUSH1 0x40 MLOAD DUP3 PUSH4 0xFFFFFFFF AND PUSH1 0xE0 SHL DUP2 MSTORE PUSH1 0x4 ADD PUSH2 0x450 SWAP2 SWAP1 PUSH2 0x9A4 JUMP JUMPDEST PUSH1 0x20 PUSH1 0x40 MLOAD DUP1 DUP4 SUB DUP2 DUP7 GAS STATICCALL ISZERO DUP1 ISZERO PUSH2 0x46B JUMPI RETURNDATASIZE PUSH0 DUP1 RETURNDATACOPY RETURNDATASIZE PUSH0 REVERT JUMPDEST POP POP POP POP PUSH1 0x40 MLOAD RETURNDATASIZE PUSH1 0x1F NOT PUSH1 0x1F DUP3 ADD AND DUP3 ADD DUP1 PUSH1 0x40 MSTORE POP DUP2 ADD SWAP1 PUSH2 0x48F SWAP2 SWAP1 PUSH2 0x9E7 JUMP JUMPDEST PUSH0 PUSH1 0x4 ADD PUSH0 DUP3 DUP3 SLOAD PUSH2 0x4A1 SWAP2 SWAP1 PUSH2 0xB0F JUMP JUMPDEST SWAP3 POP POP DUP2 SWAP1 SSTORE POP PUSH2 0x560 JUMP JUMPDEST PUSH1 0x7 PUSH0 SWAP1 SLOAD SWAP1 PUSH2 0x100 EXP SWAP1 DIV PUSH20 0xFFFFFFFFFFFFFFFFFFFFFFFFFFFFFFFFFFFFFFFF AND PUSH20 0xFFFFFFFFFFFFFFFFFFFFFFFFFFFFFFFFFFFFFFFF AND PUSH4 0x70A08231 CALLER PUSH1 0x40 MLOAD DUP3 PUSH4 0xFFFFFFFF AND PUSH1 0xE0 SHL DUP2 MSTORE PUSH1 0x4 ADD PUSH2 0x507 SWAP2 SWAP1 PUSH2 0x9A4 JUMP JUMPDEST PUSH1 0x20 PUSH1 0x40 MLOAD DUP1 DUP4 SUB DUP2 DUP7 GAS STATICCALL ISZERO DUP1 ISZERO PUSH2 0x522 JUMPI RETURNDATASIZE PUSH0 DUP1 RETURNDATACOPY RETURNDATASIZE PUSH0 REVERT JUMPDEST POP POP POP POP PUSH1 0x40 MLOAD RETURNDATASIZE PUSH1 0x1F NOT PUSH1 0x1F DUP3 ADD AND DUP3 ADD DUP1 PUSH1 0x40 MSTORE POP DUP2 ADD SWAP1 PUSH2 0x546 SWAP2 SWAP1 PUSH2 0x9E7 JUMP JUMPDEST PUSH0 PUSH1 0x5 ADD PUSH0 DUP3 DUP3 SLOAD PUSH2 0x558 SWAP2 SWAP1 PUSH2 0xB0F JUMP JUMPDEST SWAP3 POP POP DUP2 SWAP1 SSTORE POP JUMPDEST PUSH1 0x1 PUSH1 0x8 PUSH0 CALLER PUSH20 0xFFFFFFFFFFFFFFFFFFFFFFFFFFFFFFFFFFFFFFFF AND PUSH20 0xFFFFFFFFFFFFFFFFFFFFFFFFFFFFFFFFFFFFFFFF AND DUP2 MSTORE PUSH1 0x20 ADD SWAP1 DUP2 MSTORE PUSH1 0x20 ADD PUSH0 KECCAK256 PUSH0 PUSH2 0x100 EXP DUP2 SLOAD DUP2 PUSH1 0xFF MUL NOT AND SWAP1 DUP4 ISZERO ISZERO MUL OR SWAP1 SSTORE POP CALLER PUSH20 0xFFFFFFFFFFFFFFFFFFFFFFFFFFFFFFFFFFFFFFFF AND PUSH32 0x8EB81CB806DBB3D8A2F94981614331A55DFD90E06A42FDC362CA3CA96981D92F DUP3 PUSH1 0x40 MLOAD PUSH2 0x5FB SWAP2 SWAP1 PUSH2 0x780 JUMP JUMPDEST PUSH1 0x40 MLOAD DUP1 SWAP2 SUB SWAP1 LOG2 POP JUMP JUMPDEST PUSH0 DUP1 PUSH0 ADD PUSH0 SWAP1 SLOAD SWAP1 PUSH2 0x100 EXP SWAP1 DIV PUSH20 0xFFFFFFFFFFFFFFFFFFFFFFFFFFFFFFFFFFFFFFFF AND SWAP1 DUP1 PUSH1 0x1 ADD PUSH0 SWAP1 SLOAD SWAP1 PUSH2 0x100 EXP SWAP1 DIV PUSH20 0xFFFFFFFFFFFFFFFFFFFFFFFFFFFFFFFFFFFFFFFF AND SWAP1 DUP1 PUSH1 0x2 ADD PUSH0 SWAP1 SLOAD SWAP1 PUSH2 0x100 EXP SWAP1 DIV PUSH20 0xFFFFFFFFFFFFFFFFFFFFFFFFFFFFFFFFFFFFFFFF AND SWAP1 DUP1 PUSH1 0x3 ADD SLOAD SWAP1 DUP1 PUSH1 0x4 ADD SLOAD SWAP1 DUP1 PUSH1 0x5 ADD SLOAD SWAP1 DUP1 PUSH1 0x6 ADD PUSH0 SWAP1 SLOAD SWAP1 PUSH2 0x100 EXP SWAP1 DIV PUSH1 0xFF AND SWAP1 DUP1 PUSH1 0x6 ADD PUSH1 0x1 SWAP1 SLOAD SWAP1 PUSH2 0x100 EXP SWAP1 DIV PUSH1 0xFF AND SWAP1 POP DUP9 JUMP JUMPDEST PUSH0 DUP1 PUSH0 PUSH1 0x6 ADD PUSH1 0x1 SWAP1 SLOAD SWAP1 PUSH2 0x100 EXP SWAP1 DIV PUSH1 0xFF AND PUSH0 PUSH1 0x6 ADD PUSH0 SWAP1 SLOAD SWAP1 PUSH2 0x100 EXP SWAP1 DIV PUSH1 0xFF AND SWAP2 POP SWAP2 POP SWAP1 SWAP2 JUMP JUMPDEST PUSH0 DUP1 REVERT JUMPDEST PUSH0 PUSH20 0xFFFFFFFFFFFFFFFFFFFFFFFFFFFFFFFFFFFFFFFF DUP3 AND SWAP1 POP SWAP2 SWAP1 POP JUMP JUMPDEST PUSH0 PUSH2 0x70A DUP3 PUSH2 0x6E1 JUMP JUMPDEST SWAP1 POP SWAP2 SWAP1 POP JUMP JUMPDEST PUSH2 0x71A DUP2 PUSH2 0x700 JUMP JUMPDEST DUP2 EQ PUSH2 0x724 JUMPI PUSH0 DUP1 REVERT JUMPDEST POP JUMP JUMPDEST PUSH0 DUP2 CALLDATALOAD SWAP1 POP PUSH2 0x735 DUP2 PUSH2 0x711 JUMP JUMPDEST SWAP3 SWAP2 POP POP JUMP JUMPDEST PUSH0 PUSH1 0x20 DUP3 DUP5 SUB SLT ISZERO PUSH2 0x750 JUMPI PUSH2 0x74F PUSH2 0x6DD JUMP JUMPDEST JUMPDEST PUSH0 PUSH2 0x75D DUP5 DUP3 DUP6 ADD PUSH2 0x727 JUMP JUMPDEST SWAP2 POP POP SWAP3 SWAP2 POP POP JUMP JUMPDEST PUSH0 DUP2 ISZERO ISZERO SWAP1 POP SWAP2 SWAP1 POP JUMP JUMPDEST PUSH2 0x77A DUP2 PUSH2 0x766 JUMP JUMPDEST DUP3 MSTORE POP POP JUMP JUMPDEST PUSH0 PUSH1 0x20 DUP3 ADD SWAP1 POP PUSH2 0x793 PUSH0 DUP4 ADD DUP5 PUSH2 0x771 JUMP JUMPDEST SWAP3 SWAP2 POP POP JUMP JUMPDEST PUSH0 DUP2 SWAP1 POP SWAP2 SWAP1 POP JUMP JUMPDEST PUSH0 PUSH2 0x7BC PUSH2 0x7B7 PUSH2 0x7B2 DUP5 PUSH2 0x6E1 JUMP JUMPDEST PUSH2 0x799 JUMP JUMPDEST PUSH2 0x6E1 JUMP JUMPDEST SWAP1 POP SWAP2 SWAP1 POP JUMP JUMPDEST PUSH0 PUSH2 0x7CD DUP3 PUSH2 0x7A2 JUMP JUMPDEST SWAP1 POP SWAP2 SWAP1 POP JUMP JUMPDEST PUSH0 PUSH2 0x7DE DUP3 PUSH2 0x7C3 JUMP JUMPDEST SWAP1 POP SWAP2 SWAP1 POP JUMP JUMPDEST PUSH2 0x7EE DUP2 PUSH2 0x7D4 JUMP JUMPDEST DUP3 MSTORE POP POP JUMP JUMPDEST PUSH0 PUSH1 0x20 DUP3 ADD SWAP1 POP PUSH2 0x807 PUSH0 DUP4 ADD DUP5 PUSH2 0x7E5 JUMP JUMPDEST SWAP3 SWAP2 POP POP JUMP JUMPDEST PUSH2 0x816 DUP2 PUSH2 0x766 JUMP JUMPDEST DUP2 EQ PUSH2 0x820 JUMPI PUSH0 DUP1 REVERT JUMPDEST POP JUMP JUMPDEST PUSH0 DUP2 CALLDATALOAD SWAP1 POP PUSH2 0x831 DUP2 PUSH2 0x80D JUMP JUMPDEST SWAP3 SWAP2 POP POP JUMP JUMPDEST PUSH0 PUSH1 0x20 DUP3 DUP5 SUB SLT ISZERO PUSH2 0x84C JUMPI PUSH2 0x84B PUSH2 0x6DD JUMP JUMPDEST JUMPDEST PUSH0 PUSH2 0x859 DUP5 DUP3 DUP6 ADD PUSH2 0x823 JUMP JUMPDEST SWAP2 POP POP SWAP3 SWAP2 POP POP JUMP JUMPDEST PUSH2 0x86B DUP2 PUSH2 0x700 JUMP JUMPDEST DUP3 MSTORE POP POP JUMP JUMPDEST PUSH0 DUP2 SWAP1 POP SWAP2 SWAP1 POP JUMP JUMPDEST PUSH2 0x883 DUP2 PUSH2 0x871 JUMP JUMPDEST DUP3 MSTORE POP POP JUMP JUMPDEST PUSH0 PUSH2 0x100 DUP3 ADD SWAP1 POP PUSH2 0x89D PUSH0 DUP4 ADD DUP12 PUSH2 0x862 JUMP JUMPDEST PUSH2 0x8AA PUSH1 0x20 DUP4 ADD DUP11 PUSH2 0x862 JUMP JUMPDEST PUSH2 0x8B7 PUSH1 0x40 DUP4 ADD DUP10 PUSH2 0x862 JUMP JUMPDEST PUSH2 0x8C4 PUSH1 0x60 DUP4 ADD DUP9 PUSH2 0x87A JUMP JUMPDEST PUSH2 0x8D1 PUSH1 0x80 DUP4 ADD DUP8 PUSH2 0x87A JUMP JUMPDEST PUSH2 0x8DE PUSH1 0xA0 DUP4 ADD DUP7 PUSH2 0x87A JUMP JUMPDEST PUSH2 0x8EB PUSH1 0xC0 DUP4 ADD DUP6 PUSH2 0x771 JUMP JUMPDEST PUSH2 0x8F8 PUSH1 0xE0 DUP4 ADD DUP5 PUSH2 0x771 JUMP JUMPDEST SWAP10 SWAP9 POP POP POP POP POP POP POP POP POP JUMP JUMPDEST PUSH0 PUSH1 0x40 DUP3 ADD SWAP1 POP PUSH2 0x918 PUSH0 DUP4 ADD DUP6 PUSH2 0x771 JUMP JUMPDEST PUSH2 0x925 PUSH1 0x20 DUP4 ADD DUP5 PUSH2 0x771 JUMP JUMPDEST SWAP4 SWAP3 POP POP POP JUMP JUMPDEST PUSH0 DUP3 DUP3 MSTORE PUSH1 0x20 DUP3 ADD SWAP1 POP SWAP3 SWAP2 POP POP JUMP JUMPDEST PUSH32 0x50726F706F73616C20616C726561647920657865637574656400000000000000 PUSH0 DUP3 ADD MSTORE POP JUMP JUMPDEST PUSH0 PUSH2 0x970 PUSH1 0x19 DUP4 PUSH2 0x92C JUMP JUMPDEST SWAP2 POP PUSH2 0x97B DUP3 PUSH2 0x93C JUMP JUMPDEST PUSH1 0x20 DUP3 ADD SWAP1 POP SWAP2 SWAP1 POP JUMP JUMPDEST PUSH0 PUSH1 0x20 DUP3 ADD SWAP1 POP DUP2 DUP2 SUB PUSH0 DUP4 ADD MSTORE PUSH2 0x99D DUP2 PUSH2 0x964 JUMP JUMPDEST SWAP1 POP SWAP2 SWAP1 POP JUMP JUMPDEST PUSH0 PUSH1 0x20 DUP3 ADD SWAP1 POP PUSH2 0x9B7 PUSH0 DUP4 ADD DUP5 PUSH2 0x862 JUMP JUMPDEST SWAP3 SWAP2 POP POP JUMP JUMPDEST PUSH2 0x9C6 DUP2 PUSH2 0x871 JUMP JUMPDEST DUP2 EQ PUSH2 0x9D0 JUMPI PUSH0 DUP1 REVERT JUMPDEST POP JUMP JUMPDEST PUSH0 DUP2 MLOAD SWAP1 POP PUSH2 0x9E1 DUP2 PUSH2 0x9BD JUMP JUMPDEST SWAP3 SWAP2 POP POP JUMP JUMPDEST PUSH0 PUSH1 0x20 DUP3 DUP5 SUB SLT ISZERO PUSH2 0x9FC JUMPI PUSH2 0x9FB PUSH2 0x6DD JUMP JUMPDEST JUMPDEST PUSH0 PUSH2 0xA09 DUP5 DUP3 DUP6 ADD PUSH2 0x9D3 JUMP JUMPDEST SWAP2 POP POP SWAP3 SWAP2 POP POP JUMP JUMPDEST PUSH32 0x4E6F74206120746F6B656E20686F6C6465720000000000000000000000000000 PUSH0 DUP3 ADD MSTORE POP JUMP JUMPDEST PUSH0 PUSH2 0xA46 PUSH1 0x12 DUP4 PUSH2 0x92C JUMP JUMPDEST SWAP2 POP PUSH2 0xA51 DUP3 PUSH2 0xA12 JUMP JUMPDEST PUSH1 0x20 DUP3 ADD SWAP1 POP SWAP2 SWAP1 POP JUMP JUMPDEST PUSH0 PUSH1 0x20 DUP3 ADD SWAP1 POP DUP2 DUP2 SUB PUSH0 DUP4 ADD MSTORE PUSH2 0xA73 DUP2 PUSH2 0xA3A JUMP JUMPDEST SWAP1 POP SWAP2 SWAP1 POP JUMP JUMPDEST PUSH32 0x416C726561647920766F74656400000000000000000000000000000000000000 PUSH0 DUP3 ADD MSTORE POP JUMP JUMPDEST PUSH0 PUSH2 0xAAE PUSH1 0xD DUP4 PUSH2 0x92C JUMP JUMPDEST SWAP2 POP PUSH2 0xAB9 DUP3 PUSH2 0xA7A JUMP JUMPDEST PUSH1 0x20 DUP3 ADD SWAP1 POP SWAP2 SWAP1 POP JUMP JUMPDEST PUSH0 PUSH1 0x20 DUP3 ADD SWAP1 POP DUP2 DUP2 SUB PUSH0 DUP4 ADD MSTORE PUSH2 0xADB DUP2 PUSH2 0xAA2 JUMP JUMPDEST SWAP1 POP SWAP2 SWAP1 POP JUMP JUMPDEST PUSH32 0x4E487B7100000000000000000000000000000000000000000000000000000000 PUSH0 MSTORE PUSH1 0x11 PUSH1 0x4 MSTORE PUSH1 0x24 PUSH0 REVERT JUMPDEST PUSH0 PUSH2 0xB19 DUP3 PUSH2 0x871 JUMP JUMPDEST SWAP2 POP PUSH2 0xB24 DUP4 PUSH2 0x871 JUMP JUMPDEST SWAP3 POP DUP3 DUP3 ADD SWAP1 POP DUP1 DUP3 GT ISZERO PUSH2 0xB3C JUMPI PUSH2 0xB3B PUSH2 0xAE2 JUMP JUMPDEST JUMPDEST SWAP3 SWAP2 POP POP JUMP INVALID LOG2 PUSH5 0x6970667358 0x22 SLT KECCAK256 DUP9 NUMBER 0x21 0x2D 0x2A SSTORE GT SMOD LOG2 0x2D DUP14 0xAA JUMPDEST 0xB2 0xB6 DUP3 PUSH29 0xC2D6AA09D2E4766CD1EFFF6371CB7D64736F6C63430008180033A26469 PUSH17 0x667358221220F5B769F4EBDE4C5DD36D09 0xD4 0xE1 0xE3 XOR PUSH7 0x52BBFEEA2E5511 STOP 0xD8 SWAP13 0xAD PUSH13 0x443A61FF64736F6C6343000818 STOP CALLER "
		},
		"gasEstimates": {
			"creation": {
				"codeDepositCost": "1240000",
				"executionCost": "infinite",
				"totalCost": "infinite"
			},
			"external": {
				"daoList()": "infinite",
				"deployAndRegisterDAO(address,address,uint256)": "infinite"
			}
		},
		"methodIdentifiers": {
			"daoList()": "234cb757",
			"deployAndRegisterDAO(address,address,uint256)": "54186558"
		}
	},
	"abi": [
		{
			"inputs": [
				{
					"internalType": "address",
					"name": "_daoList",
					"type": "address"
				}
			],
			"stateMutability": "nonpayable",
			"type": "constructor"
		},
		{
			"anonymous": false,
			"inputs": [
				{
					"indexed": false,
					"internalType": "address",
					"name": "daoAddress",
					"type": "address"
				}
			],
			"name": "daoDeployed",
			"type": "event"
		},
		{
			"inputs": [],
			"name": "daoList",
			"outputs": [
				{
					"internalType": "contract DAOList",
					"name": "",
					"type": "address"
				}
			],
			"stateMutability": "view",
			"type": "function"
		},
		{
			"inputs": [
				{
					"internalType": "address",
					"name": "_rwaContract",
					"type": "address"
				},
				{
					"internalType": "address",
					"name": "_poolAddress",
					"type": "address"
				},
				{
					"internalType": "uint256",
					"name": "_dilution",
					"type": "uint256"
				}
			],
			"name": "deployAndRegisterDAO",
			"outputs": [
				{
					"internalType": "address",
					"name": "",
					"type": "address"
				}
			],
			"stateMutability": "nonpayable",
			"type": "function"
		}
	]
}