{
	"data": {
		"bytecode": {
			"linkReferences": {},
			"object": "608060405234801562000010575f80fd5b50604051620012cd380380620012cd8339818101604052810190620000369190620000e2565b8060015f6101000a81548173ffffffffffffffffffffffffffffffffffffffff021916908373ffffffffffffffffffffffffffffffffffffffff1602179055505062000112565b5f80fd5b5f73ffffffffffffffffffffffffffffffffffffffff82169050919050565b5f620000ac8262000081565b9050919050565b620000be81620000a0565b8114620000c9575f80fd5b50565b5f81519050620000dc81620000b3565b92915050565b5f60208284031215620000fa57620000f96200007d565b5b5f6200010984828501620000cc565b91505092915050565b6111ad80620001205f395ff3fe608060405234801561000f575f80fd5b5060043610610086575f3560e01c80633cd1ff6d116100595780633cd1ff6d1461012a578063c9d27afe1461015a578063dfc51a2514610176578063e90f02791461019257610086565b8063013cf08b1461008a5780630d61b519146100c05780631e6e92ce146100dc57806325fdf6b11461010c575b5f80fd5b6100a4600480360381019061009f9190610bd7565b6101c2565b6040516100b79796959493929190610c6a565b60405180910390f35b6100da60048036038101906100d59190610bd7565b610265565b005b6100f660048036038101906100f19190610d01565b6104ca565b6040516101039190610d2c565b60405180910390f35b6101146104e7565b6040516101219190610da0565b60405180910390f35b610144600480360381019061013f9190610d01565b61050c565b6040516101519190610db9565b60405180910390f35b610174600480360381019061016f9190610dfc565b610521565b005b610190600480360381019061018b9190610e3a565b610864565b005b6101ac60048036038101906101a79190610d01565b610b4e565b6040516101b99190610d2c565b60405180910390f35b5f81815481106101d0575f80fd5b905f5260205f2090600602015f91509050805f015f9054906101000a900473ffffffffffffffffffffffffffffffffffffffff1690806001015f9054906101000a900473ffffffffffffffffffffffffffffffffffffffff1690806002015490806003015490806004015490806005015f9054906101000a900460ff16908060050160019054906101000a900460ff16905087565b5f60015f9054906101000a900473ffffffffffffffffffffffffffffffffffffffff1673ffffffffffffffffffffffffffffffffffffffff166370a08231336040518263ffffffff1660e01b81526004016102c09190610e78565b602060405180830381865afa1580156102db573d5f803e3d5ffd5b505050506040513d601f19601f820116820180604052508101906102ff9190610ea5565b1161033f576040517f08c379a000000000000000000000000000000000000000000000000000000000815260040161033690610f2a565b60405180910390fd5b5f80828154811061035357610352610f48565b5b905f5260205f2090600602019050806005015f9054906101000a900460ff16156103b2576040517f08c379a00000000000000000000000000000000000000000000000000000000081526004016103a990610fbf565b60405180910390fd5b6001816005015f6101000a81548160ff02191690831515021790555080600401548160030154118160050160016101000a81548160ff0219169083151502179055508060050160019054906101000a900460ff1660035f836001015f9054906101000a900473ffffffffffffffffffffffffffffffffffffffff1673ffffffffffffffffffffffffffffffffffffffff1673ffffffffffffffffffffffffffffffffffffffff1681526020019081526020015f205f6101000a81548160ff0219169083151502179055507f948f4a9cd986f1118c3fbd459f7a22b23c0693e1ca3ef06a6a8be5aa7d39cc03828260050160019054906101000a900460ff166040516104be929190610fdd565b60405180910390a15050565b6003602052805f5260405f205f915054906101000a900460ff1681565b60015f9054906101000a900473ffffffffffffffffffffffffffffffffffffffff1681565b6002602052805f5260405f205f915090505481565b5f60015f9054906101000a900473ffffffffffffffffffffffffffffffffffffffff1673ffffffffffffffffffffffffffffffffffffffff166370a08231336040518263ffffffff1660e01b815260040161057c9190610e78565b602060405180830381865afa158015610597573d5f803e3d5ffd5b505050506040513d601f19601f820116820180604052508101906105bb9190610ea5565b116105fb576040517f08c379a00000000000000000000000000000000000000000000000000000000081526004016105f290610f2a565b60405180910390fd5b5f805490508210610641576040517f08c379a00000000000000000000000000000000000000000000000000000000081526004016106389061104e565b60405180910390fd5b5f80838154811061065557610654610f48565b5b905f5260205f2090600602019050806005015f9054906101000a900460ff16156106b4576040517f08c379a00000000000000000000000000000000000000000000000000000000081526004016106ab90610fbf565b60405180910390fd5b81156107715760015f9054906101000a900473ffffffffffffffffffffffffffffffffffffffff1673ffffffffffffffffffffffffffffffffffffffff166370a08231336040518263ffffffff1660e01b81526004016107149190610e78565b602060405180830381865afa15801561072f573d5f803e3d5ffd5b505050506040513d601f19601f820116820180604052508101906107539190610ea5565b816003015f8282546107659190611099565b92505081905550610824565b60015f9054906101000a900473ffffffffffffffffffffffffffffffffffffffff1673ffffffffffffffffffffffffffffffffffffffff166370a08231336040518263ffffffff1660e01b81526004016107cb9190610e78565b602060405180830381865afa1580156107e6573d5f803e3d5ffd5b505050506040513d601f19601f8201168201806040525081019061080a9190610ea5565b816004015f82825461081c9190611099565b925050819055505b7ff2913dbe661ee2acc4a046d8fbcdc792373bda34c41c6086484b5345e5785e5f833384604051610857939291906110cc565b60405180910390a1505050565b5f60015f9054906101000a900473ffffffffffffffffffffffffffffffffffffffff1673ffffffffffffffffffffffffffffffffffffffff166370a08231336040518263ffffffff1660e01b81526004016108bf9190610e78565b602060405180830381865afa1580156108da573d5f803e3d5ffd5b505050506040513d601f19601f820116820180604052508101906108fe9190610ea5565b1161093e576040517f08c379a000000000000000000000000000000000000000000000000000000000815260040161093590610f2a565b60405180910390fd5b5f6040518060e001604052803373ffffffffffffffffffffffffffffffffffffffff1681526020018473ffffffffffffffffffffffffffffffffffffffff1681526020018381526020015f81526020015f81526020015f151581526020015f151581525090505f81908060018154018082558091505060019003905f5260205f2090600602015f909190919091505f820151815f015f6101000a81548173ffffffffffffffffffffffffffffffffffffffff021916908373ffffffffffffffffffffffffffffffffffffffff1602179055506020820151816001015f6101000a81548173ffffffffffffffffffffffffffffffffffffffff021916908373ffffffffffffffffffffffffffffffffffffffff16021790555060408201518160020155606082015181600301556080820151816004015560a0820151816005015f6101000a81548160ff02191690831515021790555060c08201518160050160016101000a81548160ff02191690831515021790555050505f60015f80549050610ac79190611101565b90508060025f8673ffffffffffffffffffffffffffffffffffffffff1673ffffffffffffffffffffffffffffffffffffffff1681526020019081526020015f20819055507f6d4365eeea2290a1fb5155f6f527bb01f4a2797dea12f20abc314effacafd20281338686604051610b409493929190611134565b60405180910390a150505050565b5f60035f8373ffffffffffffffffffffffffffffffffffffffff1673ffffffffffffffffffffffffffffffffffffffff1681526020019081526020015f205f9054906101000a900460ff169050919050565b5f80fd5b5f819050919050565b610bb681610ba4565b8114610bc0575f80fd5b50565b5f81359050610bd181610bad565b92915050565b5f60208284031215610bec57610beb610ba0565b5b5f610bf984828501610bc3565b91505092915050565b5f73ffffffffffffffffffffffffffffffffffffffff82169050919050565b5f610c2b82610c02565b9050919050565b610c3b81610c21565b82525050565b610c4a81610ba4565b82525050565b5f8115159050919050565b610c6481610c50565b82525050565b5f60e082019050610c7d5f83018a610c32565b610c8a6020830189610c32565b610c976040830188610c41565b610ca46060830187610c41565b610cb16080830186610c41565b610cbe60a0830185610c5b565b610ccb60c0830184610c5b565b98975050505050505050565b610ce081610c21565b8114610cea575f80fd5b50565b5f81359050610cfb81610cd7565b92915050565b5f60208284031215610d1657610d15610ba0565b5b5f610d2384828501610ced565b91505092915050565b5f602082019050610d3f5f830184610c5b565b92915050565b5f819050919050565b5f610d68610d63610d5e84610c02565b610d45565b610c02565b9050919050565b5f610d7982610d4e565b9050919050565b5f610d8a82610d6f565b9050919050565b610d9a81610d80565b82525050565b5f602082019050610db35f830184610d91565b92915050565b5f602082019050610dcc5f830184610c41565b92915050565b610ddb81610c50565b8114610de5575f80fd5b50565b5f81359050610df681610dd2565b92915050565b5f8060408385031215610e1257610e11610ba0565b5b5f610e1f85828601610bc3565b9250506020610e3085828601610de8565b9150509250929050565b5f8060408385031215610e5057610e4f610ba0565b5b5f610e5d85828601610ced565b9250506020610e6e85828601610bc3565b9150509250929050565b5f602082019050610e8b5f830184610c32565b92915050565b5f81519050610e9f81610bad565b92915050565b5f60208284031215610eba57610eb9610ba0565b5b5f610ec784828501610e91565b91505092915050565b5f82825260208201905092915050565b7f4e6f74206120746f6b656e20686f6c64657200000000000000000000000000005f82015250565b5f610f14601283610ed0565b9150610f1f82610ee0565b602082019050919050565b5f6020820190508181035f830152610f4181610f08565b9050919050565b7f4e487b71000000000000000000000000000000000000000000000000000000005f52603260045260245ffd5b7f50726f706f73616c20616c7265616479206578656375746564000000000000005f82015250565b5f610fa9601983610ed0565b9150610fb482610f75565b602082019050919050565b5f6020820190508181035f830152610fd681610f9d565b9050919050565b5f604082019050610ff05f830185610c41565b610ffd6020830184610c5b565b9392505050565b7f50726f706f73616c20646f6573206e6f742065786973740000000000000000005f82015250565b5f611038601783610ed0565b915061104382611004565b602082019050919050565b5f6020820190508181035f8301526110658161102c565b9050919050565b7f4e487b71000000000000000000000000000000000000000000000000000000005f52601160045260245ffd5b5f6110a382610ba4565b91506110ae83610ba4565b92508282019050808211156110c6576110c561106c565b5b92915050565b5f6060820190506110df5f830186610c41565b6110ec6020830185610c32565b6110f96040830184610c5b565b949350505050565b5f61110b82610ba4565b915061111683610ba4565b925082820390508181111561112e5761112d61106c565b5b92915050565b5f6080820190506111475f830187610c41565b6111546020830186610c32565b6111616040830185610c32565b61116e6060830184610c41565b9594505050505056fea264697066735822122013bbf20585cffe296e77ab304f0e1a8c9c4d6e0080e339f88c2e99a0e9dc08d864736f6c63430008180033",
			"opcodes": "PUSH1 0x80 PUSH1 0x40 MSTORE CALLVALUE DUP1 ISZERO PUSH3 0x10 JUMPI PUSH0 DUP1 REVERT JUMPDEST POP PUSH1 0x40 MLOAD PUSH3 0x12CD CODESIZE SUB DUP1 PUSH3 0x12CD DUP4 CODECOPY DUP2 DUP2 ADD PUSH1 0x40 MSTORE DUP2 ADD SWAP1 PUSH3 0x36 SWAP2 SWAP1 PUSH3 0xE2 JUMP JUMPDEST DUP1 PUSH1 0x1 PUSH0 PUSH2 0x100 EXP DUP2 SLOAD DUP2 PUSH20 0xFFFFFFFFFFFFFFFFFFFFFFFFFFFFFFFFFFFFFFFF MUL NOT AND SWAP1 DUP4 PUSH20 0xFFFFFFFFFFFFFFFFFFFFFFFFFFFFFFFFFFFFFFFF AND MUL OR SWAP1 SSTORE POP POP PUSH3 0x112 JUMP JUMPDEST PUSH0 DUP1 REVERT JUMPDEST PUSH0 PUSH20 0xFFFFFFFFFFFFFFFFFFFFFFFFFFFFFFFFFFFFFFFF DUP3 AND SWAP1 POP SWAP2 SWAP1 POP JUMP JUMPDEST PUSH0 PUSH3 0xAC DUP3 PUSH3 0x81 JUMP JUMPDEST SWAP1 POP SWAP2 SWAP1 POP JUMP JUMPDEST PUSH3 0xBE DUP2 PUSH3 0xA0 JUMP JUMPDEST DUP2 EQ PUSH3 0xC9 JUMPI PUSH0 DUP1 REVERT JUMPDEST POP JUMP JUMPDEST PUSH0 DUP2 MLOAD SWAP1 POP PUSH3 0xDC DUP2 PUSH3 0xB3 JUMP JUMPDEST SWAP3 SWAP2 POP POP JUMP JUMPDEST PUSH0 PUSH1 0x20 DUP3 DUP5 SUB SLT ISZERO PUSH3 0xFA JUMPI PUSH3 0xF9 PUSH3 0x7D JUMP JUMPDEST JUMPDEST PUSH0 PUSH3 0x109 DUP5 DUP3 DUP6 ADD PUSH3 0xCC JUMP JUMPDEST SWAP2 POP POP SWAP3 SWAP2 POP POP JUMP JUMPDEST PUSH2 0x11AD DUP1 PUSH3 0x120 PUSH0 CODECOPY PUSH0 RETURN INVALID PUSH1 0x80 PUSH1 0x40 MSTORE CALLVALUE DUP1 ISZERO PUSH2 0xF JUMPI PUSH0 DUP1 REVERT JUMPDEST POP PUSH1 0x4 CALLDATASIZE LT PUSH2 0x86 JUMPI PUSH0 CALLDATALOAD PUSH1 0xE0 SHR DUP1 PUSH4 0x3CD1FF6D GT PUSH2 0x59 JUMPI DUP1 PUSH4 0x3CD1FF6D EQ PUSH2 0x12A JUMPI DUP1 PUSH4 0xC9D27AFE EQ PUSH2 0x15A JUMPI DUP1 PUSH4 0xDFC51A25 EQ PUSH2 0x176 JUMPI DUP1 PUSH4 0xE90F0279 EQ PUSH2 0x192 JUMPI PUSH2 0x86 JUMP JUMPDEST DUP1 PUSH4 0x13CF08B EQ PUSH2 0x8A JUMPI DUP1 PUSH4 0xD61B519 EQ PUSH2 0xC0 JUMPI DUP1 PUSH4 0x1E6E92CE EQ PUSH2 0xDC JUMPI DUP1 PUSH4 0x25FDF6B1 EQ PUSH2 0x10C JUMPI JUMPDEST PUSH0 DUP1 REVERT JUMPDEST PUSH2 0xA4 PUSH1 0x4 DUP1 CALLDATASIZE SUB DUP2 ADD SWAP1 PUSH2 0x9F SWAP2 SWAP1 PUSH2 0xBD7 JUMP JUMPDEST PUSH2 0x1C2 JUMP JUMPDEST PUSH1 0x40 MLOAD PUSH2 0xB7 SWAP8 SWAP7 SWAP6 SWAP5 SWAP4 SWAP3 SWAP2 SWAP1 PUSH2 0xC6A JUMP JUMPDEST PUSH1 0x40 MLOAD DUP1 SWAP2 SUB SWAP1 RETURN JUMPDEST PUSH2 0xDA PUSH1 0x4 DUP1 CALLDATASIZE SUB DUP2 ADD SWAP1 PUSH2 0xD5 SWAP2 SWAP1 PUSH2 0xBD7 JUMP JUMPDEST PUSH2 0x265 JUMP JUMPDEST STOP JUMPDEST PUSH2 0xF6 PUSH1 0x4 DUP1 CALLDATASIZE SUB DUP2 ADD SWAP1 PUSH2 0xF1 SWAP2 SWAP1 PUSH2 0xD01 JUMP JUMPDEST PUSH2 0x4CA JUMP JUMPDEST PUSH1 0x40 MLOAD PUSH2 0x103 SWAP2 SWAP1 PUSH2 0xD2C JUMP JUMPDEST PUSH1 0x40 MLOAD DUP1 SWAP2 SUB SWAP1 RETURN JUMPDEST PUSH2 0x114 PUSH2 0x4E7 JUMP JUMPDEST PUSH1 0x40 MLOAD PUSH2 0x121 SWAP2 SWAP1 PUSH2 0xDA0 JUMP JUMPDEST PUSH1 0x40 MLOAD DUP1 SWAP2 SUB SWAP1 RETURN JUMPDEST PUSH2 0x144 PUSH1 0x4 DUP1 CALLDATASIZE SUB DUP2 ADD SWAP1 PUSH2 0x13F SWAP2 SWAP1 PUSH2 0xD01 JUMP JUMPDEST PUSH2 0x50C JUMP JUMPDEST PUSH1 0x40 MLOAD PUSH2 0x151 SWAP2 SWAP1 PUSH2 0xDB9 JUMP JUMPDEST PUSH1 0x40 MLOAD DUP1 SWAP2 SUB SWAP1 RETURN JUMPDEST PUSH2 0x174 PUSH1 0x4 DUP1 CALLDATASIZE SUB DUP2 ADD SWAP1 PUSH2 0x16F SWAP2 SWAP1 PUSH2 0xDFC JUMP JUMPDEST PUSH2 0x521 JUMP JUMPDEST STOP JUMPDEST PUSH2 0x190 PUSH1 0x4 DUP1 CALLDATASIZE SUB DUP2 ADD SWAP1 PUSH2 0x18B SWAP2 SWAP1 PUSH2 0xE3A JUMP JUMPDEST PUSH2 0x864 JUMP JUMPDEST STOP JUMPDEST PUSH2 0x1AC PUSH1 0x4 DUP1 CALLDATASIZE SUB DUP2 ADD SWAP1 PUSH2 0x1A7 SWAP2 SWAP1 PUSH2 0xD01 JUMP JUMPDEST PUSH2 0xB4E JUMP JUMPDEST PUSH1 0x40 MLOAD PUSH2 0x1B9 SWAP2 SWAP1 PUSH2 0xD2C JUMP JUMPDEST PUSH1 0x40 MLOAD DUP1 SWAP2 SUB SWAP1 RETURN JUMPDEST PUSH0 DUP2 DUP2 SLOAD DUP2 LT PUSH2 0x1D0 JUMPI PUSH0 DUP1 REVERT JUMPDEST SWAP1 PUSH0 MSTORE PUSH1 0x20 PUSH0 KECCAK256 SWAP1 PUSH1 0x6 MUL ADD PUSH0 SWAP2 POP SWAP1 POP DUP1 PUSH0 ADD PUSH0 SWAP1 SLOAD SWAP1 PUSH2 0x100 EXP SWAP1 DIV PUSH20 0xFFFFFFFFFFFFFFFFFFFFFFFFFFFFFFFFFFFFFFFF AND SWAP1 DUP1 PUSH1 0x1 ADD PUSH0 SWAP1 SLOAD SWAP1 PUSH2 0x100 EXP SWAP1 DIV PUSH20 0xFFFFFFFFFFFFFFFFFFFFFFFFFFFFFFFFFFFFFFFF AND SWAP1 DUP1 PUSH1 0x2 ADD SLOAD SWAP1 DUP1 PUSH1 0x3 ADD SLOAD SWAP1 DUP1 PUSH1 0x4 ADD SLOAD SWAP1 DUP1 PUSH1 0x5 ADD PUSH0 SWAP1 SLOAD SWAP1 PUSH2 0x100 EXP SWAP1 DIV PUSH1 0xFF AND SWAP1 DUP1 PUSH1 0x5 ADD PUSH1 0x1 SWAP1 SLOAD SWAP1 PUSH2 0x100 EXP SWAP1 DIV PUSH1 0xFF AND SWAP1 POP DUP8 JUMP JUMPDEST PUSH0 PUSH1 0x1 PUSH0 SWAP1 SLOAD SWAP1 PUSH2 0x100 EXP SWAP1 DIV PUSH20 0xFFFFFFFFFFFFFFFFFFFFFFFFFFFFFFFFFFFFFFFF AND PUSH20 0xFFFFFFFFFFFFFFFFFFFFFFFFFFFFFFFFFFFFFFFF AND PUSH4 0x70A08231 CALLER PUSH1 0x40 MLOAD DUP3 PUSH4 0xFFFFFFFF AND PUSH1 0xE0 SHL DUP2 MSTORE PUSH1 0x4 ADD PUSH2 0x2C0 SWAP2 SWAP1 PUSH2 0xE78 JUMP JUMPDEST PUSH1 0x20 PUSH1 0x40 MLOAD DUP1 DUP4 SUB DUP2 DUP7 GAS STATICCALL ISZERO DUP1 ISZERO PUSH2 0x2DB JUMPI RETURNDATASIZE PUSH0 DUP1 RETURNDATACOPY RETURNDATASIZE PUSH0 REVERT JUMPDEST POP POP POP POP PUSH1 0x40 MLOAD RETURNDATASIZE PUSH1 0x1F NOT PUSH1 0x1F DUP3 ADD AND DUP3 ADD DUP1 PUSH1 0x40 MSTORE POP DUP2 ADD SWAP1 PUSH2 0x2FF SWAP2 SWAP1 PUSH2 0xEA5 JUMP JUMPDEST GT PUSH2 0x33F JUMPI PUSH1 0x40 MLOAD PUSH32 0x8C379A000000000000000000000000000000000000000000000000000000000 DUP2 MSTORE PUSH1 0x4 ADD PUSH2 0x336 SWAP1 PUSH2 0xF2A JUMP JUMPDEST PUSH1 0x40 MLOAD DUP1 SWAP2 SUB SWAP1 REVERT JUMPDEST PUSH0 DUP1 DUP3 DUP2 SLOAD DUP2 LT PUSH2 0x353 JUMPI PUSH2 0x352 PUSH2 0xF48 JUMP JUMPDEST JUMPDEST SWAP1 PUSH0 MSTORE PUSH1 0x20 PUSH0 KECCAK256 SWAP1 PUSH1 0x6 MUL ADD SWAP1 POP DUP1 PUSH1 0x5 ADD PUSH0 SWAP1 SLOAD SWAP1 PUSH2 0x100 EXP SWAP1 DIV PUSH1 0xFF AND ISZERO PUSH2 0x3B2 JUMPI PUSH1 0x40 MLOAD PUSH32 0x8C379A000000000000000000000000000000000000000000000000000000000 DUP2 MSTORE PUSH1 0x4 ADD PUSH2 0x3A9 SWAP1 PUSH2 0xFBF JUMP JUMPDEST PUSH1 0x40 MLOAD DUP1 SWAP2 SUB SWAP1 REVERT JUMPDEST PUSH1 0x1 DUP2 PUSH1 0x5 ADD PUSH0 PUSH2 0x100 EXP DUP2 SLOAD DUP2 PUSH1 0xFF MUL NOT AND SWAP1 DUP4 ISZERO ISZERO MUL OR SWAP1 SSTORE POP DUP1 PUSH1 0x4 ADD SLOAD DUP2 PUSH1 0x3 ADD SLOAD GT DUP2 PUSH1 0x5 ADD PUSH1 0x1 PUSH2 0x100 EXP DUP2 SLOAD DUP2 PUSH1 0xFF MUL NOT AND SWAP1 DUP4 ISZERO ISZERO MUL OR SWAP1 SSTORE POP DUP1 PUSH1 0x5 ADD PUSH1 0x1 SWAP1 SLOAD SWAP1 PUSH2 0x100 EXP SWAP1 DIV PUSH1 0xFF AND PUSH1 0x3 PUSH0 DUP4 PUSH1 0x1 ADD PUSH0 SWAP1 SLOAD SWAP1 PUSH2 0x100 EXP SWAP1 DIV PUSH20 0xFFFFFFFFFFFFFFFFFFFFFFFFFFFFFFFFFFFFFFFF AND PUSH20 0xFFFFFFFFFFFFFFFFFFFFFFFFFFFFFFFFFFFFFFFF AND PUSH20 0xFFFFFFFFFFFFFFFFFFFFFFFFFFFFFFFFFFFFFFFF AND DUP2 MSTORE PUSH1 0x20 ADD SWAP1 DUP2 MSTORE PUSH1 0x20 ADD PUSH0 KECCAK256 PUSH0 PUSH2 0x100 EXP DUP2 SLOAD DUP2 PUSH1 0xFF MUL NOT AND SWAP1 DUP4 ISZERO ISZERO MUL OR SWAP1 SSTORE POP PUSH32 0x948F4A9CD986F1118C3FBD459F7A22B23C0693E1CA3EF06A6A8BE5AA7D39CC03 DUP3 DUP3 PUSH1 0x5 ADD PUSH1 0x1 SWAP1 SLOAD SWAP1 PUSH2 0x100 EXP SWAP1 DIV PUSH1 0xFF AND PUSH1 0x40 MLOAD PUSH2 0x4BE SWAP3 SWAP2 SWAP1 PUSH2 0xFDD JUMP JUMPDEST PUSH1 0x40 MLOAD DUP1 SWAP2 SUB SWAP1 LOG1 POP POP JUMP JUMPDEST PUSH1 0x3 PUSH1 0x20 MSTORE DUP1 PUSH0 MSTORE PUSH1 0x40 PUSH0 KECCAK256 PUSH0 SWAP2 POP SLOAD SWAP1 PUSH2 0x100 EXP SWAP1 DIV PUSH1 0xFF AND DUP2 JUMP JUMPDEST PUSH1 0x1 PUSH0 SWAP1 SLOAD SWAP1 PUSH2 0x100 EXP SWAP1 DIV PUSH20 0xFFFFFFFFFFFFFFFFFFFFFFFFFFFFFFFFFFFFFFFF AND DUP2 JUMP JUMPDEST PUSH1 0x2 PUSH1 0x20 MSTORE DUP1 PUSH0 MSTORE PUSH1 0x40 PUSH0 KECCAK256 PUSH0 SWAP2 POP SWAP1 POP SLOAD DUP2 JUMP JUMPDEST PUSH0 PUSH1 0x1 PUSH0 SWAP1 SLOAD SWAP1 PUSH2 0x100 EXP SWAP1 DIV PUSH20 0xFFFFFFFFFFFFFFFFFFFFFFFFFFFFFFFFFFFFFFFF AND PUSH20 0xFFFFFFFFFFFFFFFFFFFFFFFFFFFFFFFFFFFFFFFF AND PUSH4 0x70A08231 CALLER PUSH1 0x40 MLOAD DUP3 PUSH4 0xFFFFFFFF AND PUSH1 0xE0 SHL DUP2 MSTORE PUSH1 0x4 ADD PUSH2 0x57C SWAP2 SWAP1 PUSH2 0xE78 JUMP JUMPDEST PUSH1 0x20 PUSH1 0x40 MLOAD DUP1 DUP4 SUB DUP2 DUP7 GAS STATICCALL ISZERO DUP1 ISZERO PUSH2 0x597 JUMPI RETURNDATASIZE PUSH0 DUP1 RETURNDATACOPY RETURNDATASIZE PUSH0 REVERT JUMPDEST POP POP POP POP PUSH1 0x40 MLOAD RETURNDATASIZE PUSH1 0x1F NOT PUSH1 0x1F DUP3 ADD AND DUP3 ADD DUP1 PUSH1 0x40 MSTORE POP DUP2 ADD SWAP1 PUSH2 0x5BB SWAP2 SWAP1 PUSH2 0xEA5 JUMP JUMPDEST GT PUSH2 0x5FB JUMPI PUSH1 0x40 MLOAD PUSH32 0x8C379A000000000000000000000000000000000000000000000000000000000 DUP2 MSTORE PUSH1 0x4 ADD PUSH2 0x5F2 SWAP1 PUSH2 0xF2A JUMP JUMPDEST PUSH1 0x40 MLOAD DUP1 SWAP2 SUB SWAP1 REVERT JUMPDEST PUSH0 DUP1 SLOAD SWAP1 POP DUP3 LT PUSH2 0x641 JUMPI PUSH1 0x40 MLOAD PUSH32 0x8C379A000000000000000000000000000000000000000000000000000000000 DUP2 MSTORE PUSH1 0x4 ADD PUSH2 0x638 SWAP1 PUSH2 0x104E JUMP JUMPDEST PUSH1 0x40 MLOAD DUP1 SWAP2 SUB SWAP1 REVERT JUMPDEST PUSH0 DUP1 DUP4 DUP2 SLOAD DUP2 LT PUSH2 0x655 JUMPI PUSH2 0x654 PUSH2 0xF48 JUMP JUMPDEST JUMPDEST SWAP1 PUSH0 MSTORE PUSH1 0x20 PUSH0 KECCAK256 SWAP1 PUSH1 0x6 MUL ADD SWAP1 POP DUP1 PUSH1 0x5 ADD PUSH0 SWAP1 SLOAD SWAP1 PUSH2 0x100 EXP SWAP1 DIV PUSH1 0xFF AND ISZERO PUSH2 0x6B4 JUMPI PUSH1 0x40 MLOAD PUSH32 0x8C379A000000000000000000000000000000000000000000000000000000000 DUP2 MSTORE PUSH1 0x4 ADD PUSH2 0x6AB SWAP1 PUSH2 0xFBF JUMP JUMPDEST PUSH1 0x40 MLOAD DUP1 SWAP2 SUB SWAP1 REVERT JUMPDEST DUP2 ISZERO PUSH2 0x771 JUMPI PUSH1 0x1 PUSH0 SWAP1 SLOAD SWAP1 PUSH2 0x100 EXP SWAP1 DIV PUSH20 0xFFFFFFFFFFFFFFFFFFFFFFFFFFFFFFFFFFFFFFFF AND PUSH20 0xFFFFFFFFFFFFFFFFFFFFFFFFFFFFFFFFFFFFFFFF AND PUSH4 0x70A08231 CALLER PUSH1 0x40 MLOAD DUP3 PUSH4 0xFFFFFFFF AND PUSH1 0xE0 SHL DUP2 MSTORE PUSH1 0x4 ADD PUSH2 0x714 SWAP2 SWAP1 PUSH2 0xE78 JUMP JUMPDEST PUSH1 0x20 PUSH1 0x40 MLOAD DUP1 DUP4 SUB DUP2 DUP7 GAS STATICCALL ISZERO DUP1 ISZERO PUSH2 0x72F JUMPI RETURNDATASIZE PUSH0 DUP1 RETURNDATACOPY RETURNDATASIZE PUSH0 REVERT JUMPDEST POP POP POP POP PUSH1 0x40 MLOAD RETURNDATASIZE PUSH1 0x1F NOT PUSH1 0x1F DUP3 ADD AND DUP3 ADD DUP1 PUSH1 0x40 MSTORE POP DUP2 ADD SWAP1 PUSH2 0x753 SWAP2 SWAP1 PUSH2 0xEA5 JUMP JUMPDEST DUP2 PUSH1 0x3 ADD PUSH0 DUP3 DUP3 SLOAD PUSH2 0x765 SWAP2 SWAP1 PUSH2 0x1099 JUMP JUMPDEST SWAP3 POP POP DUP2 SWAP1 SSTORE POP PUSH2 0x824 JUMP JUMPDEST PUSH1 0x1 PUSH0 SWAP1 SLOAD SWAP1 PUSH2 0x100 EXP SWAP1 DIV PUSH20 0xFFFFFFFFFFFFFFFFFFFFFFFFFFFFFFFFFFFFFFFF AND PUSH20 0xFFFFFFFFFFFFFFFFFFFFFFFFFFFFFFFFFFFFFFFF AND PUSH4 0x70A08231 CALLER PUSH1 0x40 MLOAD DUP3 PUSH4 0xFFFFFFFF AND PUSH1 0xE0 SHL DUP2 MSTORE PUSH1 0x4 ADD PUSH2 0x7CB SWAP2 SWAP1 PUSH2 0xE78 JUMP JUMPDEST PUSH1 0x20 PUSH1 0x40 MLOAD DUP1 DUP4 SUB DUP2 DUP7 GAS STATICCALL ISZERO DUP1 ISZERO PUSH2 0x7E6 JUMPI RETURNDATASIZE PUSH0 DUP1 RETURNDATACOPY RETURNDATASIZE PUSH0 REVERT JUMPDEST POP POP POP POP PUSH1 0x40 MLOAD RETURNDATASIZE PUSH1 0x1F NOT PUSH1 0x1F DUP3 ADD AND DUP3 ADD DUP1 PUSH1 0x40 MSTORE POP DUP2 ADD SWAP1 PUSH2 0x80A SWAP2 SWAP1 PUSH2 0xEA5 JUMP JUMPDEST DUP2 PUSH1 0x4 ADD PUSH0 DUP3 DUP3 SLOAD PUSH2 0x81C SWAP2 SWAP1 PUSH2 0x1099 JUMP JUMPDEST SWAP3 POP POP DUP2 SWAP1 SSTORE POP JUMPDEST PUSH32 0xF2913DBE661EE2ACC4A046D8FBCDC792373BDA34C41C6086484B5345E5785E5F DUP4 CALLER DUP5 PUSH1 0x40 MLOAD PUSH2 0x857 SWAP4 SWAP3 SWAP2 SWAP1 PUSH2 0x10CC JUMP JUMPDEST PUSH1 0x40 MLOAD DUP1 SWAP2 SUB SWAP1 LOG1 POP POP POP JUMP JUMPDEST PUSH0 PUSH1 0x1 PUSH0 SWAP1 SLOAD SWAP1 PUSH2 0x100 EXP SWAP1 DIV PUSH20 0xFFFFFFFFFFFFFFFFFFFFFFFFFFFFFFFFFFFFFFFF AND PUSH20 0xFFFFFFFFFFFFFFFFFFFFFFFFFFFFFFFFFFFFFFFF AND PUSH4 0x70A08231 CALLER PUSH1 0x40 MLOAD DUP3 PUSH4 0xFFFFFFFF AND PUSH1 0xE0 SHL DUP2 MSTORE PUSH1 0x4 ADD PUSH2 0x8BF SWAP2 SWAP1 PUSH2 0xE78 JUMP JUMPDEST PUSH1 0x20 PUSH1 0x40 MLOAD DUP1 DUP4 SUB DUP2 DUP7 GAS STATICCALL ISZERO DUP1 ISZERO PUSH2 0x8DA JUMPI RETURNDATASIZE PUSH0 DUP1 RETURNDATACOPY RETURNDATASIZE PUSH0 REVERT JUMPDEST POP POP POP POP PUSH1 0x40 MLOAD RETURNDATASIZE PUSH1 0x1F NOT PUSH1 0x1F DUP3 ADD AND DUP3 ADD DUP1 PUSH1 0x40 MSTORE POP DUP2 ADD SWAP1 PUSH2 0x8FE SWAP2 SWAP1 PUSH2 0xEA5 JUMP JUMPDEST GT PUSH2 0x93E JUMPI PUSH1 0x40 MLOAD PUSH32 0x8C379A000000000000000000000000000000000000000000000000000000000 DUP2 MSTORE PUSH1 0x4 ADD PUSH2 0x935 SWAP1 PUSH2 0xF2A JUMP JUMPDEST PUSH1 0x40 MLOAD DUP1 SWAP2 SUB SWAP1 REVERT JUMPDEST PUSH0 PUSH1 0x40 MLOAD DUP1 PUSH1 0xE0 ADD PUSH1 0x40 MSTORE DUP1 CALLER PUSH20 0xFFFFFFFFFFFFFFFFFFFFFFFFFFFFFFFFFFFFFFFF AND DUP2 MSTORE PUSH1 0x20 ADD DUP5 PUSH20 0xFFFFFFFFFFFFFFFFFFFFFFFFFFFFFFFFFFFFFFFF AND DUP2 MSTORE PUSH1 0x20 ADD DUP4 DUP2 MSTORE PUSH1 0x20 ADD PUSH0 DUP2 MSTORE PUSH1 0x20 ADD PUSH0 DUP2 MSTORE PUSH1 0x20 ADD PUSH0 ISZERO ISZERO DUP2 MSTORE PUSH1 0x20 ADD PUSH0 ISZERO ISZERO DUP2 MSTORE POP SWAP1 POP PUSH0 DUP2 SWAP1 DUP1 PUSH1 0x1 DUP2 SLOAD ADD DUP1 DUP3 SSTORE DUP1 SWAP2 POP POP PUSH1 0x1 SWAP1 SUB SWAP1 PUSH0 MSTORE PUSH1 0x20 PUSH0 KECCAK256 SWAP1 PUSH1 0x6 MUL ADD PUSH0 SWAP1 SWAP2 SWAP1 SWAP2 SWAP1 SWAP2 POP PUSH0 DUP3 ADD MLOAD DUP2 PUSH0 ADD PUSH0 PUSH2 0x100 EXP DUP2 SLOAD DUP2 PUSH20 0xFFFFFFFFFFFFFFFFFFFFFFFFFFFFFFFFFFFFFFFF MUL NOT AND SWAP1 DUP4 PUSH20 0xFFFFFFFFFFFFFFFFFFFFFFFFFFFFFFFFFFFFFFFF AND MUL OR SWAP1 SSTORE POP PUSH1 0x20 DUP3 ADD MLOAD DUP2 PUSH1 0x1 ADD PUSH0 PUSH2 0x100 EXP DUP2 SLOAD DUP2 PUSH20 0xFFFFFFFFFFFFFFFFFFFFFFFFFFFFFFFFFFFFFFFF MUL NOT AND SWAP1 DUP4 PUSH20 0xFFFFFFFFFFFFFFFFFFFFFFFFFFFFFFFFFFFFFFFF AND MUL OR SWAP1 SSTORE POP PUSH1 0x40 DUP3 ADD MLOAD DUP2 PUSH1 0x2 ADD SSTORE PUSH1 0x60 DUP3 ADD MLOAD DUP2 PUSH1 0x3 ADD SSTORE PUSH1 0x80 DUP3 ADD MLOAD DUP2 PUSH1 0x4 ADD SSTORE PUSH1 0xA0 DUP3 ADD MLOAD DUP2 PUSH1 0x5 ADD PUSH0 PUSH2 0x100 EXP DUP2 SLOAD DUP2 PUSH1 0xFF MUL NOT AND SWAP1 DUP4 ISZERO ISZERO MUL OR SWAP1 SSTORE POP PUSH1 0xC0 DUP3 ADD MLOAD DUP2 PUSH1 0x5 ADD PUSH1 0x1 PUSH2 0x100 EXP DUP2 SLOAD DUP2 PUSH1 0xFF MUL NOT AND SWAP1 DUP4 ISZERO ISZERO MUL OR SWAP1 SSTORE POP POP POP PUSH0 PUSH1 0x1 PUSH0 DUP1 SLOAD SWAP1 POP PUSH2 0xAC7 SWAP2 SWAP1 PUSH2 0x1101 JUMP JUMPDEST SWAP1 POP DUP1 PUSH1 0x2 PUSH0 DUP7 PUSH20 0xFFFFFFFFFFFFFFFFFFFFFFFFFFFFFFFFFFFFFFFF AND PUSH20 0xFFFFFFFFFFFFFFFFFFFFFFFFFFFFFFFFFFFFFFFF AND DUP2 MSTORE PUSH1 0x20 ADD SWAP1 DUP2 MSTORE PUSH1 0x20 ADD PUSH0 KECCAK256 DUP2 SWAP1 SSTORE POP PUSH32 0x6D4365EEEA2290A1FB5155F6F527BB01F4A2797DEA12F20ABC314EFFACAFD202 DUP2 CALLER DUP7 DUP7 PUSH1 0x40 MLOAD PUSH2 0xB40 SWAP5 SWAP4 SWAP3 SWAP2 SWAP1 PUSH2 0x1134 JUMP JUMPDEST PUSH1 0x40 MLOAD DUP1 SWAP2 SUB SWAP1 LOG1 POP POP POP POP JUMP JUMPDEST PUSH0 PUSH1 0x3 PUSH0 DUP4 PUSH20 0xFFFFFFFFFFFFFFFFFFFFFFFFFFFFFFFFFFFFFFFF AND PUSH20 0xFFFFFFFFFFFFFFFFFFFFFFFFFFFFFFFFFFFFFFFF AND DUP2 MSTORE PUSH1 0x20 ADD SWAP1 DUP2 MSTORE PUSH1 0x20 ADD PUSH0 KECCAK256 PUSH0 SWAP1 SLOAD SWAP1 PUSH2 0x100 EXP SWAP1 DIV PUSH1 0xFF AND SWAP1 POP SWAP2 SWAP1 POP JUMP JUMPDEST PUSH0 DUP1 REVERT JUMPDEST PUSH0 DUP2 SWAP1 POP SWAP2 SWAP1 POP JUMP JUMPDEST PUSH2 0xBB6 DUP2 PUSH2 0xBA4 JUMP JUMPDEST DUP2 EQ PUSH2 0xBC0 JUMPI PUSH0 DUP1 REVERT JUMPDEST POP JUMP JUMPDEST PUSH0 DUP2 CALLDATALOAD SWAP1 POP PUSH2 0xBD1 DUP2 PUSH2 0xBAD JUMP JUMPDEST SWAP3 SWAP2 POP POP JUMP JUMPDEST PUSH0 PUSH1 0x20 DUP3 DUP5 SUB SLT ISZERO PUSH2 0xBEC JUMPI PUSH2 0xBEB PUSH2 0xBA0 JUMP JUMPDEST JUMPDEST PUSH0 PUSH2 0xBF9 DUP5 DUP3 DUP6 ADD PUSH2 0xBC3 JUMP JUMPDEST SWAP2 POP POP SWAP3 SWAP2 POP POP JUMP JUMPDEST PUSH0 PUSH20 0xFFFFFFFFFFFFFFFFFFFFFFFFFFFFFFFFFFFFFFFF DUP3 AND SWAP1 POP SWAP2 SWAP1 POP JUMP JUMPDEST PUSH0 PUSH2 0xC2B DUP3 PUSH2 0xC02 JUMP JUMPDEST SWAP1 POP SWAP2 SWAP1 POP JUMP JUMPDEST PUSH2 0xC3B DUP2 PUSH2 0xC21 JUMP JUMPDEST DUP3 MSTORE POP POP JUMP JUMPDEST PUSH2 0xC4A DUP2 PUSH2 0xBA4 JUMP JUMPDEST DUP3 MSTORE POP POP JUMP JUMPDEST PUSH0 DUP2 ISZERO ISZERO SWAP1 POP SWAP2 SWAP1 POP JUMP JUMPDEST PUSH2 0xC64 DUP2 PUSH2 0xC50 JUMP JUMPDEST DUP3 MSTORE POP POP JUMP JUMPDEST PUSH0 PUSH1 0xE0 DUP3 ADD SWAP1 POP PUSH2 0xC7D PUSH0 DUP4 ADD DUP11 PUSH2 0xC32 JUMP JUMPDEST PUSH2 0xC8A PUSH1 0x20 DUP4 ADD DUP10 PUSH2 0xC32 JUMP JUMPDEST PUSH2 0xC97 PUSH1 0x40 DUP4 ADD DUP9 PUSH2 0xC41 JUMP JUMPDEST PUSH2 0xCA4 PUSH1 0x60 DUP4 ADD DUP8 PUSH2 0xC41 JUMP JUMPDEST PUSH2 0xCB1 PUSH1 0x80 DUP4 ADD DUP7 PUSH2 0xC41 JUMP JUMPDEST PUSH2 0xCBE PUSH1 0xA0 DUP4 ADD DUP6 PUSH2 0xC5B JUMP JUMPDEST PUSH2 0xCCB PUSH1 0xC0 DUP4 ADD DUP5 PUSH2 0xC5B JUMP JUMPDEST SWAP9 SWAP8 POP POP POP POP POP POP POP POP JUMP JUMPDEST PUSH2 0xCE0 DUP2 PUSH2 0xC21 JUMP JUMPDEST DUP2 EQ PUSH2 0xCEA JUMPI PUSH0 DUP1 REVERT JUMPDEST POP JUMP JUMPDEST PUSH0 DUP2 CALLDATALOAD SWAP1 POP PUSH2 0xCFB DUP2 PUSH2 0xCD7 JUMP JUMPDEST SWAP3 SWAP2 POP POP JUMP JUMPDEST PUSH0 PUSH1 0x20 DUP3 DUP5 SUB SLT ISZERO PUSH2 0xD16 JUMPI PUSH2 0xD15 PUSH2 0xBA0 JUMP JUMPDEST JUMPDEST PUSH0 PUSH2 0xD23 DUP5 DUP3 DUP6 ADD PUSH2 0xCED JUMP JUMPDEST SWAP2 POP POP SWAP3 SWAP2 POP POP JUMP JUMPDEST PUSH0 PUSH1 0x20 DUP3 ADD SWAP1 POP PUSH2 0xD3F PUSH0 DUP4 ADD DUP5 PUSH2 0xC5B JUMP JUMPDEST SWAP3 SWAP2 POP POP JUMP JUMPDEST PUSH0 DUP2 SWAP1 POP SWAP2 SWAP1 POP JUMP JUMPDEST PUSH0 PUSH2 0xD68 PUSH2 0xD63 PUSH2 0xD5E DUP5 PUSH2 0xC02 JUMP JUMPDEST PUSH2 0xD45 JUMP JUMPDEST PUSH2 0xC02 JUMP JUMPDEST SWAP1 POP SWAP2 SWAP1 POP JUMP JUMPDEST PUSH0 PUSH2 0xD79 DUP3 PUSH2 0xD4E JUMP JUMPDEST SWAP1 POP SWAP2 SWAP1 POP JUMP JUMPDEST PUSH0 PUSH2 0xD8A DUP3 PUSH2 0xD6F JUMP JUMPDEST SWAP1 POP SWAP2 SWAP1 POP JUMP JUMPDEST PUSH2 0xD9A DUP2 PUSH2 0xD80 JUMP JUMPDEST DUP3 MSTORE POP POP JUMP JUMPDEST PUSH0 PUSH1 0x20 DUP3 ADD SWAP1 POP PUSH2 0xDB3 PUSH0 DUP4 ADD DUP5 PUSH2 0xD91 JUMP JUMPDEST SWAP3 SWAP2 POP POP JUMP JUMPDEST PUSH0 PUSH1 0x20 DUP3 ADD SWAP1 POP PUSH2 0xDCC PUSH0 DUP4 ADD DUP5 PUSH2 0xC41 JUMP JUMPDEST SWAP3 SWAP2 POP POP JUMP JUMPDEST PUSH2 0xDDB DUP2 PUSH2 0xC50 JUMP JUMPDEST DUP2 EQ PUSH2 0xDE5 JUMPI PUSH0 DUP1 REVERT JUMPDEST POP JUMP JUMPDEST PUSH0 DUP2 CALLDATALOAD SWAP1 POP PUSH2 0xDF6 DUP2 PUSH2 0xDD2 JUMP JUMPDEST SWAP3 SWAP2 POP POP JUMP JUMPDEST PUSH0 DUP1 PUSH1 0x40 DUP4 DUP6 SUB SLT ISZERO PUSH2 0xE12 JUMPI PUSH2 0xE11 PUSH2 0xBA0 JUMP JUMPDEST JUMPDEST PUSH0 PUSH2 0xE1F DUP6 DUP3 DUP7 ADD PUSH2 0xBC3 JUMP JUMPDEST SWAP3 POP POP PUSH1 0x20 PUSH2 0xE30 DUP6 DUP3 DUP7 ADD PUSH2 0xDE8 JUMP JUMPDEST SWAP2 POP POP SWAP3 POP SWAP3 SWAP1 POP JUMP JUMPDEST PUSH0 DUP1 PUSH1 0x40 DUP4 DUP6 SUB SLT ISZERO PUSH2 0xE50 JUMPI PUSH2 0xE4F PUSH2 0xBA0 JUMP JUMPDEST JUMPDEST PUSH0 PUSH2 0xE5D DUP6 DUP3 DUP7 ADD PUSH2 0xCED JUMP JUMPDEST SWAP3 POP POP PUSH1 0x20 PUSH2 0xE6E DUP6 DUP3 DUP7 ADD PUSH2 0xBC3 JUMP JUMPDEST SWAP2 POP POP SWAP3 POP SWAP3 SWAP1 POP JUMP JUMPDEST PUSH0 PUSH1 0x20 DUP3 ADD SWAP1 POP PUSH2 0xE8B PUSH0 DUP4 ADD DUP5 PUSH2 0xC32 JUMP JUMPDEST SWAP3 SWAP2 POP POP JUMP JUMPDEST PUSH0 DUP2 MLOAD SWAP1 POP PUSH2 0xE9F DUP2 PUSH2 0xBAD JUMP JUMPDEST SWAP3 SWAP2 POP POP JUMP JUMPDEST PUSH0 PUSH1 0x20 DUP3 DUP5 SUB SLT ISZERO PUSH2 0xEBA JUMPI PUSH2 0xEB9 PUSH2 0xBA0 JUMP JUMPDEST JUMPDEST PUSH0 PUSH2 0xEC7 DUP5 DUP3 DUP6 ADD PUSH2 0xE91 JUMP JUMPDEST SWAP2 POP POP SWAP3 SWAP2 POP POP JUMP JUMPDEST PUSH0 DUP3 DUP3 MSTORE PUSH1 0x20 DUP3 ADD SWAP1 POP SWAP3 SWAP2 POP POP JUMP JUMPDEST PUSH32 0x4E6F74206120746F6B656E20686F6C6465720000000000000000000000000000 PUSH0 DUP3 ADD MSTORE POP JUMP JUMPDEST PUSH0 PUSH2 0xF14 PUSH1 0x12 DUP4 PUSH2 0xED0 JUMP JUMPDEST SWAP2 POP PUSH2 0xF1F DUP3 PUSH2 0xEE0 JUMP JUMPDEST PUSH1 0x20 DUP3 ADD SWAP1 POP SWAP2 SWAP1 POP JUMP JUMPDEST PUSH0 PUSH1 0x20 DUP3 ADD SWAP1 POP DUP2 DUP2 SUB PUSH0 DUP4 ADD MSTORE PUSH2 0xF41 DUP2 PUSH2 0xF08 JUMP JUMPDEST SWAP1 POP SWAP2 SWAP1 POP JUMP JUMPDEST PUSH32 0x4E487B7100000000000000000000000000000000000000000000000000000000 PUSH0 MSTORE PUSH1 0x32 PUSH1 0x4 MSTORE PUSH1 0x24 PUSH0 REVERT JUMPDEST PUSH32 0x50726F706F73616C20616C726561647920657865637574656400000000000000 PUSH0 DUP3 ADD MSTORE POP JUMP JUMPDEST PUSH0 PUSH2 0xFA9 PUSH1 0x19 DUP4 PUSH2 0xED0 JUMP JUMPDEST SWAP2 POP PUSH2 0xFB4 DUP3 PUSH2 0xF75 JUMP JUMPDEST PUSH1 0x20 DUP3 ADD SWAP1 POP SWAP2 SWAP1 POP JUMP JUMPDEST PUSH0 PUSH1 0x20 DUP3 ADD SWAP1 POP DUP2 DUP2 SUB PUSH0 DUP4 ADD MSTORE PUSH2 0xFD6 DUP2 PUSH2 0xF9D JUMP JUMPDEST SWAP1 POP SWAP2 SWAP1 POP JUMP JUMPDEST PUSH0 PUSH1 0x40 DUP3 ADD SWAP1 POP PUSH2 0xFF0 PUSH0 DUP4 ADD DUP6 PUSH2 0xC41 JUMP JUMPDEST PUSH2 0xFFD PUSH1 0x20 DUP4 ADD DUP5 PUSH2 0xC5B JUMP JUMPDEST SWAP4 SWAP3 POP POP POP JUMP JUMPDEST PUSH32 0x50726F706F73616C20646F6573206E6F74206578697374000000000000000000 PUSH0 DUP3 ADD MSTORE POP JUMP JUMPDEST PUSH0 PUSH2 0x1038 PUSH1 0x17 DUP4 PUSH2 0xED0 JUMP JUMPDEST SWAP2 POP PUSH2 0x1043 DUP3 PUSH2 0x1004 JUMP JUMPDEST PUSH1 0x20 DUP3 ADD SWAP1 POP SWAP2 SWAP1 POP JUMP JUMPDEST PUSH0 PUSH1 0x20 DUP3 ADD SWAP1 POP DUP2 DUP2 SUB PUSH0 DUP4 ADD MSTORE PUSH2 0x1065 DUP2 PUSH2 0x102C JUMP JUMPDEST SWAP1 POP SWAP2 SWAP1 POP JUMP JUMPDEST PUSH32 0x4E487B7100000000000000000000000000000000000000000000000000000000 PUSH0 MSTORE PUSH1 0x11 PUSH1 0x4 MSTORE PUSH1 0x24 PUSH0 REVERT JUMPDEST PUSH0 PUSH2 0x10A3 DUP3 PUSH2 0xBA4 JUMP JUMPDEST SWAP2 POP PUSH2 0x10AE DUP4 PUSH2 0xBA4 JUMP JUMPDEST SWAP3 POP DUP3 DUP3 ADD SWAP1 POP DUP1 DUP3 GT ISZERO PUSH2 0x10C6 JUMPI PUSH2 0x10C5 PUSH2 0x106C JUMP JUMPDEST JUMPDEST SWAP3 SWAP2 POP POP JUMP JUMPDEST PUSH0 PUSH1 0x60 DUP3 ADD SWAP1 POP PUSH2 0x10DF PUSH0 DUP4 ADD DUP7 PUSH2 0xC41 JUMP JUMPDEST PUSH2 0x10EC PUSH1 0x20 DUP4 ADD DUP6 PUSH2 0xC32 JUMP JUMPDEST PUSH2 0x10F9 PUSH1 0x40 DUP4 ADD DUP5 PUSH2 0xC5B JUMP JUMPDEST SWAP5 SWAP4 POP POP POP POP JUMP JUMPDEST PUSH0 PUSH2 0x110B DUP3 PUSH2 0xBA4 JUMP JUMPDEST SWAP2 POP PUSH2 0x1116 DUP4 PUSH2 0xBA4 JUMP JUMPDEST SWAP3 POP DUP3 DUP3 SUB SWAP1 POP DUP2 DUP2 GT ISZERO PUSH2 0x112E JUMPI PUSH2 0x112D PUSH2 0x106C JUMP JUMPDEST JUMPDEST SWAP3 SWAP2 POP POP JUMP JUMPDEST PUSH0 PUSH1 0x80 DUP3 ADD SWAP1 POP PUSH2 0x1147 PUSH0 DUP4 ADD DUP8 PUSH2 0xC41 JUMP JUMPDEST PUSH2 0x1154 PUSH1 0x20 DUP4 ADD DUP7 PUSH2 0xC32 JUMP JUMPDEST PUSH2 0x1161 PUSH1 0x40 DUP4 ADD DUP6 PUSH2 0xC32 JUMP JUMPDEST PUSH2 0x116E PUSH1 0x60 DUP4 ADD DUP5 PUSH2 0xC41 JUMP JUMPDEST SWAP6 SWAP5 POP POP POP POP POP JUMP INVALID LOG2 PUSH5 0x6970667358 0x22 SLT KECCAK256 SGT 0xBB CALLCODE SDIV DUP6 0xCF INVALID 0x29 PUSH15 0x77AB304F0E1A8C9C4D6E0080E339F8 DUP13 0x2E SWAP10 LOG0 0xE9 0xDC ADDMOD 0xD8 PUSH5 0x736F6C6343 STOP ADDMOD XOR STOP CALLER "
		},
		"gasEstimates": {
			"creation": {
				"codeDepositCost": "905000",
				"executionCost": "infinite",
				"totalCost": "infinite"
			},
			"external": {
				"createProposal(address,uint256)": "infinite",
				"executeProposal(uint256)": "infinite",
				"latestOutcome(address)": "2878",
				"latestProposalId(address)": "2802",
				"proposals(uint256)": "infinite",
				"rwaTokenizationContract()": "infinite",
				"viewLatestOutcome(address)": "2936",
				"vote(uint256,bool)": "infinite"
			}
		},
		"methodIdentifiers": {
			"createProposal(address,uint256)": "dfc51a25",
			"executeProposal(uint256)": "0d61b519",
			"latestOutcome(address)": "1e6e92ce",
			"latestProposalId(address)": "3cd1ff6d",
			"proposals(uint256)": "013cf08b",
			"rwaTokenizationContract()": "25fdf6b1",
			"viewLatestOutcome(address)": "e90f0279",
			"vote(uint256,bool)": "c9d27afe"
		}
	},
	"abi": [
		{
			"inputs": [
				{
					"internalType": "address",
					"name": "_rwaTokenizationContract",
					"type": "address"
				}
			],
			"stateMutability": "nonpayable",
			"type": "constructor"
		},
		{
			"anonymous": false,
			"inputs": [
				{
					"indexed": false,
					"internalType": "uint256",
					"name": "proposalId",
					"type": "uint256"
				},
				{
					"indexed": false,
					"internalType": "address",
					"name": "proposer",
					"type": "address"
				},
				{
					"indexed": false,
					"internalType": "address",
					"name": "poolContract",
					"type": "address"
				},
				{
					"indexed": false,
					"internalType": "uint256",
					"name": "dilution",
					"type": "uint256"
				}
			],
			"name": "ProposalCreated",
			"type": "event"
		},
		{
			"anonymous": false,
			"inputs": [
				{
					"indexed": false,
					"internalType": "uint256",
					"name": "proposalId",
					"type": "uint256"
				},
				{
					"indexed": false,
					"internalType": "bool",
					"name": "outcome",
					"type": "bool"
				}
			],
			"name": "ProposalExecuted",
			"type": "event"
		},
		{
			"anonymous": false,
			"inputs": [
				{
					"indexed": false,
					"internalType": "uint256",
					"name": "proposalId",
					"type": "uint256"
				},
				{
					"indexed": false,
					"internalType": "address",
					"name": "voter",
					"type": "address"
				},
				{
					"indexed": false,
					"internalType": "bool",
					"name": "vote",
					"type": "bool"
				}
			],
			"name": "Voted",
			"type": "event"
		},
		{
			"inputs": [
				{
					"internalType": "address",
					"name": "_poolContract",
					"type": "address"
				},
				{
					"internalType": "uint256",
					"name": "_dilution",
					"type": "uint256"
				}
			],
			"name": "createProposal",
			"outputs": [],
			"stateMutability": "nonpayable",
			"type": "function"
		},
		{
			"inputs": [
				{
					"internalType": "uint256",
					"name": "_proposalId",
					"type": "uint256"
				}
			],
			"name": "executeProposal",
			"outputs": [],
			"stateMutability": "nonpayable",
			"type": "function"
		},
		{
			"inputs": [
				{
					"internalType": "address",
					"name": "",
					"type": "address"
				}
			],
			"name": "latestOutcome",
			"outputs": [
				{
					"internalType": "bool",
					"name": "",
					"type": "bool"
				}
			],
			"stateMutability": "view",
			"type": "function"
		},
		{
			"inputs": [
				{
					"internalType": "address",
					"name": "",
					"type": "address"
				}
			],
			"name": "latestProposalId",
			"outputs": [
				{
					"internalType": "uint256",
					"name": "",
					"type": "uint256"
				}
			],
			"stateMutability": "view",
			"type": "function"
		},
		{
			"inputs": [
				{
					"internalType": "uint256",
					"name": "",
					"type": "uint256"
				}
			],
			"name": "proposals",
			"outputs": [
				{
					"internalType": "address",
					"name": "proposer",
					"type": "address"
				},
				{
					"internalType": "address",
					"name": "poolContract",
					"type": "address"
				},
				{
					"internalType": "uint256",
					"name": "dilution",
					"type": "uint256"
				},
				{
					"internalType": "uint256",
					"name": "yesVotes",
					"type": "uint256"
				},
				{
					"internalType": "uint256",
					"name": "noVotes",
					"type": "uint256"
				},
				{
					"internalType": "bool",
					"name": "executed",
					"type": "bool"
				},
				{
					"internalType": "bool",
					"name": "outcome",
					"type": "bool"
				}
			],
			"stateMutability": "view",
			"type": "function"
		},
		{
			"inputs": [],
			"name": "rwaTokenizationContract",
			"outputs": [
				{
					"internalType": "contract IRWATokenization",
					"name": "",
					"type": "address"
				}
			],
			"stateMutability": "view",
			"type": "function"
		},
		{
			"inputs": [
				{
					"internalType": "address",
					"name": "_poolContract",
					"type": "address"
				}
			],
			"name": "viewLatestOutcome",
			"outputs": [
				{
					"internalType": "bool",
					"name": "",
					"type": "bool"
				}
			],
			"stateMutability": "view",
			"type": "function"
		},
		{
			"inputs": [
				{
					"internalType": "uint256",
					"name": "_proposalId",
					"type": "uint256"
				},
				{
					"internalType": "bool",
					"name": "_vote",
					"type": "bool"
				}
			],
			"name": "vote",
			"outputs": [],
			"stateMutability": "nonpayable",
			"type": "function"
		}
	]
}