{
	"data": {
		"bytecode": {
			"linkReferences": {},
			"object": "608060405234801561000f575f80fd5b50604051611476380380611476833981810160405281019061003191906100d4565b805f806101000a81548173ffffffffffffffffffffffffffffffffffffffff021916908373ffffffffffffffffffffffffffffffffffffffff160217905550506100ff565b5f80fd5b5f73ffffffffffffffffffffffffffffffffffffffff82169050919050565b5f6100a38261007a565b9050919050565b6100b381610099565b81146100bd575f80fd5b50565b5f815190506100ce816100aa565b92915050565b5f602082840312156100e9576100e8610076565b5b5f6100f6848285016100c0565b91505092915050565b61136a8061010c5f395ff3fe608060405234801562000010575f80fd5b506004361062000038575f3560e01c806394217ad1146200003c578063c0bb5f07146200005e575b5f80fd5b6200004662000094565b6040516200005591906200026d565b60405180910390f35b6200007c600480360381019062000076919062000429565b620000b7565b6040516200008b9190620004e4565b60405180910390f35b5f8054906101000a900473ffffffffffffffffffffffffffffffffffffffff1681565b5f808483604051620000c990620001d9565b620000d692919062000594565b604051809103905ff080158015620000f0573d5f803e3d5ffd5b5090505f8054906101000a900473ffffffffffffffffffffffffffffffffffffffff1673ffffffffffffffffffffffffffffffffffffffff1663bc2e7f568686846040518463ffffffff1660e01b81526004016200015193929190620005c6565b6020604051808303815f875af11580156200016e573d5f803e3d5ffd5b505050506040513d601f19601f8201168201806040525081019062000194919062000625565b507ff8849446e3e140b0c71bd37d1f05dd1f263ffa145cbc7191331a453114f3153481604051620001c69190620004e4565b60405180910390a1809150509392505050565b610cdf806200065683390190565b5f73ffffffffffffffffffffffffffffffffffffffff82169050919050565b5f819050919050565b5f6200022f620002296200022384620001e7565b62000206565b620001e7565b9050919050565b5f62000242826200020f565b9050919050565b5f620002558262000236565b9050919050565b620002678162000249565b82525050565b5f602082019050620002825f8301846200025c565b92915050565b5f604051905090565b5f80fd5b5f80fd5b5f80fd5b5f80fd5b5f601f19601f8301169050919050565b7f4e487b71000000000000000000000000000000000000000000000000000000005f52604160045260245ffd5b620002e982620002a1565b810181811067ffffffffffffffff821117156200030b576200030a620002b1565b5b80604052505050565b5f6200031f62000288565b90506200032d8282620002de565b919050565b5f67ffffffffffffffff8211156200034f576200034e620002b1565b5b6200035a82620002a1565b9050602081019050919050565b828183375f83830152505050565b5f6200038b620003858462000332565b62000314565b905082815260208101848484011115620003aa57620003a96200029d565b5b620003b784828562000367565b509392505050565b5f82601f830112620003d657620003d562000299565b5b8135620003e884826020860162000375565b91505092915050565b5f819050919050565b6200040581620003f1565b811462000410575f80fd5b50565b5f813590506200042381620003fa565b92915050565b5f805f6060848603121562000443576200044262000291565b5b5f84013567ffffffffffffffff81111562000463576200046262000295565b5b6200047186828701620003bf565b935050602084013567ffffffffffffffff81111562000495576200049462000295565b5b620004a386828701620003bf565b9250506040620004b68682870162000413565b9150509250925092565b5f620004cc82620001e7565b9050919050565b620004de81620004c0565b82525050565b5f602082019050620004f95f830184620004d3565b92915050565b5f81519050919050565b5f82825260208201905092915050565b5f5b83811015620005385780820151818401526020810190506200051b565b5f8484015250505050565b5f6200054f82620004ff565b6200055b818562000509565b93506200056d81856020860162000519565b6200057881620002a1565b840191505092915050565b6200058e81620003f1565b82525050565b5f6040820190508181035f830152620005ae818562000543565b9050620005bf602083018462000583565b9392505050565b5f6060820190508181035f830152620005e0818662000543565b90508181036020830152620005f6818562000543565b9050620006076040830184620004d3565b949350505050565b5f815190506200061f81620003fa565b92915050565b5f602082840312156200063d576200063c62000291565b5b5f6200064c848285016200060f565b9150509291505056fe608060405234801562000010575f80fd5b5060405162000cdf38038062000cdf8339818101604052810190620000369190620002b5565b335f806101000a81548173ffffffffffffffffffffffffffffffffffffffff021916908373ffffffffffffffffffffffffffffffffffffffff160217905550816001908162000086919062000547565b508060025f805f9054906101000a900473ffffffffffffffffffffffffffffffffffffffff1673ffffffffffffffffffffffffffffffffffffffff1673ffffffffffffffffffffffffffffffffffffffff1681526020019081526020015f20819055508060038190555050506200062b565b5f604051905090565b5f80fd5b5f80fd5b5f80fd5b5f80fd5b5f601f19601f8301169050919050565b7f4e487b71000000000000000000000000000000000000000000000000000000005f52604160045260245ffd5b620001598262000111565b810181811067ffffffffffffffff821117156200017b576200017a62000121565b5b80604052505050565b5f6200018f620000f8565b90506200019d82826200014e565b919050565b5f67ffffffffffffffff821115620001bf57620001be62000121565b5b620001ca8262000111565b9050602081019050919050565b5f5b83811015620001f6578082015181840152602081019050620001d9565b5f8484015250505050565b5f620002176200021184620001a2565b62000184565b9050828152602081018484840111156200023657620002356200010d565b5b62000243848285620001d7565b509392505050565b5f82601f83011262000262576200026162000109565b5b81516200027484826020860162000201565b91505092915050565b5f819050919050565b62000291816200027d565b81146200029c575f80fd5b50565b5f81519050620002af8162000286565b92915050565b5f8060408385031215620002ce57620002cd62000101565b5b5f83015167ffffffffffffffff811115620002ee57620002ed62000105565b5b620002fc858286016200024b565b92505060206200030f858286016200029f565b9150509250929050565b5f81519050919050565b7f4e487b71000000000000000000000000000000000000000000000000000000005f52602260045260245ffd5b5f60028204905060018216806200036857607f821691505b6020821081036200037e576200037d62000323565b5b50919050565b5f819050815f5260205f209050919050565b5f6020601f8301049050919050565b5f82821b905092915050565b5f60088302620003e27fffffffffffffffffffffffffffffffffffffffffffffffffffffffffffffffff82620003a5565b620003ee8683620003a5565b95508019841693508086168417925050509392505050565b5f819050919050565b5f6200042f6200042962000423846200027d565b62000406565b6200027d565b9050919050565b5f819050919050565b6200044a836200040f565b62000462620004598262000436565b848454620003b1565b825550505050565b5f90565b620004786200046a565b620004858184846200043f565b505050565b5b81811015620004ac57620004a05f826200046e565b6001810190506200048b565b5050565b601f821115620004fb57620004c58162000384565b620004d08462000396565b81016020851015620004e0578190505b620004f8620004ef8562000396565b8301826200048a565b50505b505050565b5f82821c905092915050565b5f6200051d5f198460080262000500565b1980831691505092915050565b5f6200053783836200050c565b9150826002028217905092915050565b620005528262000319565b67ffffffffffffffff8111156200056e576200056d62000121565b5b6200057a825462000350565b62000587828285620004b0565b5f60209050601f831160018114620005bd575f8415620005a8578287015190505b620005b485826200052a565b86555062000623565b601f198416620005cd8662000384565b5f5b82811015620005f657848901518255600182019150602085019450602081019050620005cf565b8683101562000616578489015162000612601f8916826200050c565b8355505b6001600288020188555050505b505050505050565b6106a680620006395f395ff3fe608060405234801561000f575f80fd5b5060043610610055575f3560e01c80633a98ef391461005957806370a08231146100775780638da5cb5b146100a75780638fcb4e5b146100c5578063e1b40a76146100e1575b5f80fd5b6100616100ff565b60405161006e919061033c565b60405180910390f35b610091600480360381019061008c91906103b3565b610105565b60405161009e919061033c565b60405180910390f35b6100af61014b565b6040516100bc91906103ed565b60405180910390f35b6100df60048036038101906100da9190610430565b61016e565b005b6100e9610298565b6040516100f691906104f8565b60405180910390f35b60035481565b5f60025f8373ffffffffffffffffffffffffffffffffffffffff1673ffffffffffffffffffffffffffffffffffffffff1681526020019081526020015f20549050919050565b5f8054906101000a900473ffffffffffffffffffffffffffffffffffffffff1681565b8060025f3373ffffffffffffffffffffffffffffffffffffffff1673ffffffffffffffffffffffffffffffffffffffff1681526020019081526020015f205410156101ee576040517f08c379a00000000000000000000000000000000000000000000000000000000081526004016101e590610562565b60405180910390fd5b8060025f3373ffffffffffffffffffffffffffffffffffffffff1673ffffffffffffffffffffffffffffffffffffffff1681526020019081526020015f205f82825461023a91906105ad565b925050819055508060025f8473ffffffffffffffffffffffffffffffffffffffff1673ffffffffffffffffffffffffffffffffffffffff1681526020019081526020015f205f82825461028d91906105e0565b925050819055505050565b600180546102a590610640565b80601f01602080910402602001604051908101604052809291908181526020018280546102d190610640565b801561031c5780601f106102f35761010080835404028352916020019161031c565b820191905f5260205f20905b8154815290600101906020018083116102ff57829003601f168201915b505050505081565b5f819050919050565b61033681610324565b82525050565b5f60208201905061034f5f83018461032d565b92915050565b5f80fd5b5f73ffffffffffffffffffffffffffffffffffffffff82169050919050565b5f61038282610359565b9050919050565b61039281610378565b811461039c575f80fd5b50565b5f813590506103ad81610389565b92915050565b5f602082840312156103c8576103c7610355565b5b5f6103d58482850161039f565b91505092915050565b6103e781610378565b82525050565b5f6020820190506104005f8301846103de565b92915050565b61040f81610324565b8114610419575f80fd5b50565b5f8135905061042a81610406565b92915050565b5f806040838503121561044657610445610355565b5b5f6104538582860161039f565b92505060206104648582860161041c565b9150509250929050565b5f81519050919050565b5f82825260208201905092915050565b5f5b838110156104a557808201518184015260208101905061048a565b5f8484015250505050565b5f601f19601f8301169050919050565b5f6104ca8261046e565b6104d48185610478565b93506104e4818560208601610488565b6104ed816104b0565b840191505092915050565b5f6020820190508181035f83015261051081846104c0565b905092915050565b7f496e73756666696369656e7420736861726573000000000000000000000000005f82015250565b5f61054c601383610478565b915061055782610518565b602082019050919050565b5f6020820190508181035f83015261057981610540565b9050919050565b7f4e487b71000000000000000000000000000000000000000000000000000000005f52601160045260245ffd5b5f6105b782610324565b91506105c283610324565b92508282039050818111156105da576105d9610580565b5b92915050565b5f6105ea82610324565b91506105f583610324565b925082820190508082111561060d5761060c610580565b5b92915050565b7f4e487b71000000000000000000000000000000000000000000000000000000005f52602260045260245ffd5b5f600282049050600182168061065757607f821691505b60208210810361066a57610669610613565b5b5091905056fea264697066735822122082969b4947fa0e1955d294bec5fbc161d2441371f1ba9f8c9960b19f6318a76b64736f6c63430008160033a264697066735822122044fb7c5e82b0accae311ff2dc1f4568eaae8fd02ab30aa3e2fefb5d69a71e06764736f6c63430008160033",
			"opcodes": "PUSH1 0x80 PUSH1 0x40 MSTORE CALLVALUE DUP1 ISZERO PUSH2 0xF JUMPI PUSH0 DUP1 REVERT JUMPDEST POP PUSH1 0x40 MLOAD PUSH2 0x1476 CODESIZE SUB DUP1 PUSH2 0x1476 DUP4 CODECOPY DUP2 DUP2 ADD PUSH1 0x40 MSTORE DUP2 ADD SWAP1 PUSH2 0x31 SWAP2 SWAP1 PUSH2 0xD4 JUMP JUMPDEST DUP1 PUSH0 DUP1 PUSH2 0x100 EXP DUP2 SLOAD DUP2 PUSH20 0xFFFFFFFFFFFFFFFFFFFFFFFFFFFFFFFFFFFFFFFF MUL NOT AND SWAP1 DUP4 PUSH20 0xFFFFFFFFFFFFFFFFFFFFFFFFFFFFFFFFFFFFFFFF AND MUL OR SWAP1 SSTORE POP POP PUSH2 0xFF JUMP JUMPDEST PUSH0 DUP1 REVERT JUMPDEST PUSH0 PUSH20 0xFFFFFFFFFFFFFFFFFFFFFFFFFFFFFFFFFFFFFFFF DUP3 AND SWAP1 POP SWAP2 SWAP1 POP JUMP JUMPDEST PUSH0 PUSH2 0xA3 DUP3 PUSH2 0x7A JUMP JUMPDEST SWAP1 POP SWAP2 SWAP1 POP JUMP JUMPDEST PUSH2 0xB3 DUP2 PUSH2 0x99 JUMP JUMPDEST DUP2 EQ PUSH2 0xBD JUMPI PUSH0 DUP1 REVERT JUMPDEST POP JUMP JUMPDEST PUSH0 DUP2 MLOAD SWAP1 POP PUSH2 0xCE DUP2 PUSH2 0xAA JUMP JUMPDEST SWAP3 SWAP2 POP POP JUMP JUMPDEST PUSH0 PUSH1 0x20 DUP3 DUP5 SUB SLT ISZERO PUSH2 0xE9 JUMPI PUSH2 0xE8 PUSH2 0x76 JUMP JUMPDEST JUMPDEST PUSH0 PUSH2 0xF6 DUP5 DUP3 DUP6 ADD PUSH2 0xC0 JUMP JUMPDEST SWAP2 POP POP SWAP3 SWAP2 POP POP JUMP JUMPDEST PUSH2 0x136A DUP1 PUSH2 0x10C PUSH0 CODECOPY PUSH0 RETURN INVALID PUSH1 0x80 PUSH1 0x40 MSTORE CALLVALUE DUP1 ISZERO PUSH3 0x10 JUMPI PUSH0 DUP1 REVERT JUMPDEST POP PUSH1 0x4 CALLDATASIZE LT PUSH3 0x38 JUMPI PUSH0 CALLDATALOAD PUSH1 0xE0 SHR DUP1 PUSH4 0x94217AD1 EQ PUSH3 0x3C JUMPI DUP1 PUSH4 0xC0BB5F07 EQ PUSH3 0x5E JUMPI JUMPDEST PUSH0 DUP1 REVERT JUMPDEST PUSH3 0x46 PUSH3 0x94 JUMP JUMPDEST PUSH1 0x40 MLOAD PUSH3 0x55 SWAP2 SWAP1 PUSH3 0x26D JUMP JUMPDEST PUSH1 0x40 MLOAD DUP1 SWAP2 SUB SWAP1 RETURN JUMPDEST PUSH3 0x7C PUSH1 0x4 DUP1 CALLDATASIZE SUB DUP2 ADD SWAP1 PUSH3 0x76 SWAP2 SWAP1 PUSH3 0x429 JUMP JUMPDEST PUSH3 0xB7 JUMP JUMPDEST PUSH1 0x40 MLOAD PUSH3 0x8B SWAP2 SWAP1 PUSH3 0x4E4 JUMP JUMPDEST PUSH1 0x40 MLOAD DUP1 SWAP2 SUB SWAP1 RETURN JUMPDEST PUSH0 DUP1 SLOAD SWAP1 PUSH2 0x100 EXP SWAP1 DIV PUSH20 0xFFFFFFFFFFFFFFFFFFFFFFFFFFFFFFFFFFFFFFFF AND DUP2 JUMP JUMPDEST PUSH0 DUP1 DUP5 DUP4 PUSH1 0x40 MLOAD PUSH3 0xC9 SWAP1 PUSH3 0x1D9 JUMP JUMPDEST PUSH3 0xD6 SWAP3 SWAP2 SWAP1 PUSH3 0x594 JUMP JUMPDEST PUSH1 0x40 MLOAD DUP1 SWAP2 SUB SWAP1 PUSH0 CREATE DUP1 ISZERO DUP1 ISZERO PUSH3 0xF0 JUMPI RETURNDATASIZE PUSH0 DUP1 RETURNDATACOPY RETURNDATASIZE PUSH0 REVERT JUMPDEST POP SWAP1 POP PUSH0 DUP1 SLOAD SWAP1 PUSH2 0x100 EXP SWAP1 DIV PUSH20 0xFFFFFFFFFFFFFFFFFFFFFFFFFFFFFFFFFFFFFFFF AND PUSH20 0xFFFFFFFFFFFFFFFFFFFFFFFFFFFFFFFFFFFFFFFF AND PUSH4 0xBC2E7F56 DUP7 DUP7 DUP5 PUSH1 0x40 MLOAD DUP5 PUSH4 0xFFFFFFFF AND PUSH1 0xE0 SHL DUP2 MSTORE PUSH1 0x4 ADD PUSH3 0x151 SWAP4 SWAP3 SWAP2 SWAP1 PUSH3 0x5C6 JUMP JUMPDEST PUSH1 0x20 PUSH1 0x40 MLOAD DUP1 DUP4 SUB DUP2 PUSH0 DUP8 GAS CALL ISZERO DUP1 ISZERO PUSH3 0x16E JUMPI RETURNDATASIZE PUSH0 DUP1 RETURNDATACOPY RETURNDATASIZE PUSH0 REVERT JUMPDEST POP POP POP POP PUSH1 0x40 MLOAD RETURNDATASIZE PUSH1 0x1F NOT PUSH1 0x1F DUP3 ADD AND DUP3 ADD DUP1 PUSH1 0x40 MSTORE POP DUP2 ADD SWAP1 PUSH3 0x194 SWAP2 SWAP1 PUSH3 0x625 JUMP JUMPDEST POP PUSH32 0xF8849446E3E140B0C71BD37D1F05DD1F263FFA145CBC7191331A453114F31534 DUP2 PUSH1 0x40 MLOAD PUSH3 0x1C6 SWAP2 SWAP1 PUSH3 0x4E4 JUMP JUMPDEST PUSH1 0x40 MLOAD DUP1 SWAP2 SUB SWAP1 LOG1 DUP1 SWAP2 POP POP SWAP4 SWAP3 POP POP POP JUMP JUMPDEST PUSH2 0xCDF DUP1 PUSH3 0x656 DUP4 CODECOPY ADD SWAP1 JUMP JUMPDEST PUSH0 PUSH20 0xFFFFFFFFFFFFFFFFFFFFFFFFFFFFFFFFFFFFFFFF DUP3 AND SWAP1 POP SWAP2 SWAP1 POP JUMP JUMPDEST PUSH0 DUP2 SWAP1 POP SWAP2 SWAP1 POP JUMP JUMPDEST PUSH0 PUSH3 0x22F PUSH3 0x229 PUSH3 0x223 DUP5 PUSH3 0x1E7 JUMP JUMPDEST PUSH3 0x206 JUMP JUMPDEST PUSH3 0x1E7 JUMP JUMPDEST SWAP1 POP SWAP2 SWAP1 POP JUMP JUMPDEST PUSH0 PUSH3 0x242 DUP3 PUSH3 0x20F JUMP JUMPDEST SWAP1 POP SWAP2 SWAP1 POP JUMP JUMPDEST PUSH0 PUSH3 0x255 DUP3 PUSH3 0x236 JUMP JUMPDEST SWAP1 POP SWAP2 SWAP1 POP JUMP JUMPDEST PUSH3 0x267 DUP2 PUSH3 0x249 JUMP JUMPDEST DUP3 MSTORE POP POP JUMP JUMPDEST PUSH0 PUSH1 0x20 DUP3 ADD SWAP1 POP PUSH3 0x282 PUSH0 DUP4 ADD DUP5 PUSH3 0x25C JUMP JUMPDEST SWAP3 SWAP2 POP POP JUMP JUMPDEST PUSH0 PUSH1 0x40 MLOAD SWAP1 POP SWAP1 JUMP JUMPDEST PUSH0 DUP1 REVERT JUMPDEST PUSH0 DUP1 REVERT JUMPDEST PUSH0 DUP1 REVERT JUMPDEST PUSH0 DUP1 REVERT JUMPDEST PUSH0 PUSH1 0x1F NOT PUSH1 0x1F DUP4 ADD AND SWAP1 POP SWAP2 SWAP1 POP JUMP JUMPDEST PUSH32 0x4E487B7100000000000000000000000000000000000000000000000000000000 PUSH0 MSTORE PUSH1 0x41 PUSH1 0x4 MSTORE PUSH1 0x24 PUSH0 REVERT JUMPDEST PUSH3 0x2E9 DUP3 PUSH3 0x2A1 JUMP JUMPDEST DUP2 ADD DUP2 DUP2 LT PUSH8 0xFFFFFFFFFFFFFFFF DUP3 GT OR ISZERO PUSH3 0x30B JUMPI PUSH3 0x30A PUSH3 0x2B1 JUMP JUMPDEST JUMPDEST DUP1 PUSH1 0x40 MSTORE POP POP POP JUMP JUMPDEST PUSH0 PUSH3 0x31F PUSH3 0x288 JUMP JUMPDEST SWAP1 POP PUSH3 0x32D DUP3 DUP3 PUSH3 0x2DE JUMP JUMPDEST SWAP2 SWAP1 POP JUMP JUMPDEST PUSH0 PUSH8 0xFFFFFFFFFFFFFFFF DUP3 GT ISZERO PUSH3 0x34F JUMPI PUSH3 0x34E PUSH3 0x2B1 JUMP JUMPDEST JUMPDEST PUSH3 0x35A DUP3 PUSH3 0x2A1 JUMP JUMPDEST SWAP1 POP PUSH1 0x20 DUP2 ADD SWAP1 POP SWAP2 SWAP1 POP JUMP JUMPDEST DUP3 DUP2 DUP4 CALLDATACOPY PUSH0 DUP4 DUP4 ADD MSTORE POP POP POP JUMP JUMPDEST PUSH0 PUSH3 0x38B PUSH3 0x385 DUP5 PUSH3 0x332 JUMP JUMPDEST PUSH3 0x314 JUMP JUMPDEST SWAP1 POP DUP3 DUP2 MSTORE PUSH1 0x20 DUP2 ADD DUP5 DUP5 DUP5 ADD GT ISZERO PUSH3 0x3AA JUMPI PUSH3 0x3A9 PUSH3 0x29D JUMP JUMPDEST JUMPDEST PUSH3 0x3B7 DUP5 DUP3 DUP6 PUSH3 0x367 JUMP JUMPDEST POP SWAP4 SWAP3 POP POP POP JUMP JUMPDEST PUSH0 DUP3 PUSH1 0x1F DUP4 ADD SLT PUSH3 0x3D6 JUMPI PUSH3 0x3D5 PUSH3 0x299 JUMP JUMPDEST JUMPDEST DUP2 CALLDATALOAD PUSH3 0x3E8 DUP5 DUP3 PUSH1 0x20 DUP7 ADD PUSH3 0x375 JUMP JUMPDEST SWAP2 POP POP SWAP3 SWAP2 POP POP JUMP JUMPDEST PUSH0 DUP2 SWAP1 POP SWAP2 SWAP1 POP JUMP JUMPDEST PUSH3 0x405 DUP2 PUSH3 0x3F1 JUMP JUMPDEST DUP2 EQ PUSH3 0x410 JUMPI PUSH0 DUP1 REVERT JUMPDEST POP JUMP JUMPDEST PUSH0 DUP2 CALLDATALOAD SWAP1 POP PUSH3 0x423 DUP2 PUSH3 0x3FA JUMP JUMPDEST SWAP3 SWAP2 POP POP JUMP JUMPDEST PUSH0 DUP1 PUSH0 PUSH1 0x60 DUP5 DUP7 SUB SLT ISZERO PUSH3 0x443 JUMPI PUSH3 0x442 PUSH3 0x291 JUMP JUMPDEST JUMPDEST PUSH0 DUP5 ADD CALLDATALOAD PUSH8 0xFFFFFFFFFFFFFFFF DUP2 GT ISZERO PUSH3 0x463 JUMPI PUSH3 0x462 PUSH3 0x295 JUMP JUMPDEST JUMPDEST PUSH3 0x471 DUP7 DUP3 DUP8 ADD PUSH3 0x3BF JUMP JUMPDEST SWAP4 POP POP PUSH1 0x20 DUP5 ADD CALLDATALOAD PUSH8 0xFFFFFFFFFFFFFFFF DUP2 GT ISZERO PUSH3 0x495 JUMPI PUSH3 0x494 PUSH3 0x295 JUMP JUMPDEST JUMPDEST PUSH3 0x4A3 DUP7 DUP3 DUP8 ADD PUSH3 0x3BF JUMP JUMPDEST SWAP3 POP POP PUSH1 0x40 PUSH3 0x4B6 DUP7 DUP3 DUP8 ADD PUSH3 0x413 JUMP JUMPDEST SWAP2 POP POP SWAP3 POP SWAP3 POP SWAP3 JUMP JUMPDEST PUSH0 PUSH3 0x4CC DUP3 PUSH3 0x1E7 JUMP JUMPDEST SWAP1 POP SWAP2 SWAP1 POP JUMP JUMPDEST PUSH3 0x4DE DUP2 PUSH3 0x4C0 JUMP JUMPDEST DUP3 MSTORE POP POP JUMP JUMPDEST PUSH0 PUSH1 0x20 DUP3 ADD SWAP1 POP PUSH3 0x4F9 PUSH0 DUP4 ADD DUP5 PUSH3 0x4D3 JUMP JUMPDEST SWAP3 SWAP2 POP POP JUMP JUMPDEST PUSH0 DUP2 MLOAD SWAP1 POP SWAP2 SWAP1 POP JUMP JUMPDEST PUSH0 DUP3 DUP3 MSTORE PUSH1 0x20 DUP3 ADD SWAP1 POP SWAP3 SWAP2 POP POP JUMP JUMPDEST PUSH0 JUMPDEST DUP4 DUP2 LT ISZERO PUSH3 0x538 JUMPI DUP1 DUP3 ADD MLOAD DUP2 DUP5 ADD MSTORE PUSH1 0x20 DUP2 ADD SWAP1 POP PUSH3 0x51B JUMP JUMPDEST PUSH0 DUP5 DUP5 ADD MSTORE POP POP POP POP JUMP JUMPDEST PUSH0 PUSH3 0x54F DUP3 PUSH3 0x4FF JUMP JUMPDEST PUSH3 0x55B DUP2 DUP6 PUSH3 0x509 JUMP JUMPDEST SWAP4 POP PUSH3 0x56D DUP2 DUP6 PUSH1 0x20 DUP7 ADD PUSH3 0x519 JUMP JUMPDEST PUSH3 0x578 DUP2 PUSH3 0x2A1 JUMP JUMPDEST DUP5 ADD SWAP2 POP POP SWAP3 SWAP2 POP POP JUMP JUMPDEST PUSH3 0x58E DUP2 PUSH3 0x3F1 JUMP JUMPDEST DUP3 MSTORE POP POP JUMP JUMPDEST PUSH0 PUSH1 0x40 DUP3 ADD SWAP1 POP DUP2 DUP2 SUB PUSH0 DUP4 ADD MSTORE PUSH3 0x5AE DUP2 DUP6 PUSH3 0x543 JUMP JUMPDEST SWAP1 POP PUSH3 0x5BF PUSH1 0x20 DUP4 ADD DUP5 PUSH3 0x583 JUMP JUMPDEST SWAP4 SWAP3 POP POP POP JUMP JUMPDEST PUSH0 PUSH1 0x60 DUP3 ADD SWAP1 POP DUP2 DUP2 SUB PUSH0 DUP4 ADD MSTORE PUSH3 0x5E0 DUP2 DUP7 PUSH3 0x543 JUMP JUMPDEST SWAP1 POP DUP2 DUP2 SUB PUSH1 0x20 DUP4 ADD MSTORE PUSH3 0x5F6 DUP2 DUP6 PUSH3 0x543 JUMP JUMPDEST SWAP1 POP PUSH3 0x607 PUSH1 0x40 DUP4 ADD DUP5 PUSH3 0x4D3 JUMP JUMPDEST SWAP5 SWAP4 POP POP POP POP JUMP JUMPDEST PUSH0 DUP2 MLOAD SWAP1 POP PUSH3 0x61F DUP2 PUSH3 0x3FA JUMP JUMPDEST SWAP3 SWAP2 POP POP JUMP JUMPDEST PUSH0 PUSH1 0x20 DUP3 DUP5 SUB SLT ISZERO PUSH3 0x63D JUMPI PUSH3 0x63C PUSH3 0x291 JUMP JUMPDEST JUMPDEST PUSH0 PUSH3 0x64C DUP5 DUP3 DUP6 ADD PUSH3 0x60F JUMP JUMPDEST SWAP2 POP POP SWAP3 SWAP2 POP POP JUMP INVALID PUSH1 0x80 PUSH1 0x40 MSTORE CALLVALUE DUP1 ISZERO PUSH3 0x10 JUMPI PUSH0 DUP1 REVERT JUMPDEST POP PUSH1 0x40 MLOAD PUSH3 0xCDF CODESIZE SUB DUP1 PUSH3 0xCDF DUP4 CODECOPY DUP2 DUP2 ADD PUSH1 0x40 MSTORE DUP2 ADD SWAP1 PUSH3 0x36 SWAP2 SWAP1 PUSH3 0x2B5 JUMP JUMPDEST CALLER PUSH0 DUP1 PUSH2 0x100 EXP DUP2 SLOAD DUP2 PUSH20 0xFFFFFFFFFFFFFFFFFFFFFFFFFFFFFFFFFFFFFFFF MUL NOT AND SWAP1 DUP4 PUSH20 0xFFFFFFFFFFFFFFFFFFFFFFFFFFFFFFFFFFFFFFFF AND MUL OR SWAP1 SSTORE POP DUP2 PUSH1 0x1 SWAP1 DUP2 PUSH3 0x86 SWAP2 SWAP1 PUSH3 0x547 JUMP JUMPDEST POP DUP1 PUSH1 0x2 PUSH0 DUP1 PUSH0 SWAP1 SLOAD SWAP1 PUSH2 0x100 EXP SWAP1 DIV PUSH20 0xFFFFFFFFFFFFFFFFFFFFFFFFFFFFFFFFFFFFFFFF AND PUSH20 0xFFFFFFFFFFFFFFFFFFFFFFFFFFFFFFFFFFFFFFFF AND PUSH20 0xFFFFFFFFFFFFFFFFFFFFFFFFFFFFFFFFFFFFFFFF AND DUP2 MSTORE PUSH1 0x20 ADD SWAP1 DUP2 MSTORE PUSH1 0x20 ADD PUSH0 KECCAK256 DUP2 SWAP1 SSTORE POP DUP1 PUSH1 0x3 DUP2 SWAP1 SSTORE POP POP POP PUSH3 0x62B JUMP JUMPDEST PUSH0 PUSH1 0x40 MLOAD SWAP1 POP SWAP1 JUMP JUMPDEST PUSH0 DUP1 REVERT JUMPDEST PUSH0 DUP1 REVERT JUMPDEST PUSH0 DUP1 REVERT JUMPDEST PUSH0 DUP1 REVERT JUMPDEST PUSH0 PUSH1 0x1F NOT PUSH1 0x1F DUP4 ADD AND SWAP1 POP SWAP2 SWAP1 POP JUMP JUMPDEST PUSH32 0x4E487B7100000000000000000000000000000000000000000000000000000000 PUSH0 MSTORE PUSH1 0x41 PUSH1 0x4 MSTORE PUSH1 0x24 PUSH0 REVERT JUMPDEST PUSH3 0x159 DUP3 PUSH3 0x111 JUMP JUMPDEST DUP2 ADD DUP2 DUP2 LT PUSH8 0xFFFFFFFFFFFFFFFF DUP3 GT OR ISZERO PUSH3 0x17B JUMPI PUSH3 0x17A PUSH3 0x121 JUMP JUMPDEST JUMPDEST DUP1 PUSH1 0x40 MSTORE POP POP POP JUMP JUMPDEST PUSH0 PUSH3 0x18F PUSH3 0xF8 JUMP JUMPDEST SWAP1 POP PUSH3 0x19D DUP3 DUP3 PUSH3 0x14E JUMP JUMPDEST SWAP2 SWAP1 POP JUMP JUMPDEST PUSH0 PUSH8 0xFFFFFFFFFFFFFFFF DUP3 GT ISZERO PUSH3 0x1BF JUMPI PUSH3 0x1BE PUSH3 0x121 JUMP JUMPDEST JUMPDEST PUSH3 0x1CA DUP3 PUSH3 0x111 JUMP JUMPDEST SWAP1 POP PUSH1 0x20 DUP2 ADD SWAP1 POP SWAP2 SWAP1 POP JUMP JUMPDEST PUSH0 JUMPDEST DUP4 DUP2 LT ISZERO PUSH3 0x1F6 JUMPI DUP1 DUP3 ADD MLOAD DUP2 DUP5 ADD MSTORE PUSH1 0x20 DUP2 ADD SWAP1 POP PUSH3 0x1D9 JUMP JUMPDEST PUSH0 DUP5 DUP5 ADD MSTORE POP POP POP POP JUMP JUMPDEST PUSH0 PUSH3 0x217 PUSH3 0x211 DUP5 PUSH3 0x1A2 JUMP JUMPDEST PUSH3 0x184 JUMP JUMPDEST SWAP1 POP DUP3 DUP2 MSTORE PUSH1 0x20 DUP2 ADD DUP5 DUP5 DUP5 ADD GT ISZERO PUSH3 0x236 JUMPI PUSH3 0x235 PUSH3 0x10D JUMP JUMPDEST JUMPDEST PUSH3 0x243 DUP5 DUP3 DUP6 PUSH3 0x1D7 JUMP JUMPDEST POP SWAP4 SWAP3 POP POP POP JUMP JUMPDEST PUSH0 DUP3 PUSH1 0x1F DUP4 ADD SLT PUSH3 0x262 JUMPI PUSH3 0x261 PUSH3 0x109 JUMP JUMPDEST JUMPDEST DUP2 MLOAD PUSH3 0x274 DUP5 DUP3 PUSH1 0x20 DUP7 ADD PUSH3 0x201 JUMP JUMPDEST SWAP2 POP POP SWAP3 SWAP2 POP POP JUMP JUMPDEST PUSH0 DUP2 SWAP1 POP SWAP2 SWAP1 POP JUMP JUMPDEST PUSH3 0x291 DUP2 PUSH3 0x27D JUMP JUMPDEST DUP2 EQ PUSH3 0x29C JUMPI PUSH0 DUP1 REVERT JUMPDEST POP JUMP JUMPDEST PUSH0 DUP2 MLOAD SWAP1 POP PUSH3 0x2AF DUP2 PUSH3 0x286 JUMP JUMPDEST SWAP3 SWAP2 POP POP JUMP JUMPDEST PUSH0 DUP1 PUSH1 0x40 DUP4 DUP6 SUB SLT ISZERO PUSH3 0x2CE JUMPI PUSH3 0x2CD PUSH3 0x101 JUMP JUMPDEST JUMPDEST PUSH0 DUP4 ADD MLOAD PUSH8 0xFFFFFFFFFFFFFFFF DUP2 GT ISZERO PUSH3 0x2EE JUMPI PUSH3 0x2ED PUSH3 0x105 JUMP JUMPDEST JUMPDEST PUSH3 0x2FC DUP6 DUP3 DUP7 ADD PUSH3 0x24B JUMP JUMPDEST SWAP3 POP POP PUSH1 0x20 PUSH3 0x30F DUP6 DUP3 DUP7 ADD PUSH3 0x29F JUMP JUMPDEST SWAP2 POP POP SWAP3 POP SWAP3 SWAP1 POP JUMP JUMPDEST PUSH0 DUP2 MLOAD SWAP1 POP SWAP2 SWAP1 POP JUMP JUMPDEST PUSH32 0x4E487B7100000000000000000000000000000000000000000000000000000000 PUSH0 MSTORE PUSH1 0x22 PUSH1 0x4 MSTORE PUSH1 0x24 PUSH0 REVERT JUMPDEST PUSH0 PUSH1 0x2 DUP3 DIV SWAP1 POP PUSH1 0x1 DUP3 AND DUP1 PUSH3 0x368 JUMPI PUSH1 0x7F DUP3 AND SWAP2 POP JUMPDEST PUSH1 0x20 DUP3 LT DUP2 SUB PUSH3 0x37E JUMPI PUSH3 0x37D PUSH3 0x323 JUMP JUMPDEST JUMPDEST POP SWAP2 SWAP1 POP JUMP JUMPDEST PUSH0 DUP2 SWAP1 POP DUP2 PUSH0 MSTORE PUSH1 0x20 PUSH0 KECCAK256 SWAP1 POP SWAP2 SWAP1 POP JUMP JUMPDEST PUSH0 PUSH1 0x20 PUSH1 0x1F DUP4 ADD DIV SWAP1 POP SWAP2 SWAP1 POP JUMP JUMPDEST PUSH0 DUP3 DUP3 SHL SWAP1 POP SWAP3 SWAP2 POP POP JUMP JUMPDEST PUSH0 PUSH1 0x8 DUP4 MUL PUSH3 0x3E2 PUSH32 0xFFFFFFFFFFFFFFFFFFFFFFFFFFFFFFFFFFFFFFFFFFFFFFFFFFFFFFFFFFFFFFFF DUP3 PUSH3 0x3A5 JUMP JUMPDEST PUSH3 0x3EE DUP7 DUP4 PUSH3 0x3A5 JUMP JUMPDEST SWAP6 POP DUP1 NOT DUP5 AND SWAP4 POP DUP1 DUP7 AND DUP5 OR SWAP3 POP POP POP SWAP4 SWAP3 POP POP POP JUMP JUMPDEST PUSH0 DUP2 SWAP1 POP SWAP2 SWAP1 POP JUMP JUMPDEST PUSH0 PUSH3 0x42F PUSH3 0x429 PUSH3 0x423 DUP5 PUSH3 0x27D JUMP JUMPDEST PUSH3 0x406 JUMP JUMPDEST PUSH3 0x27D JUMP JUMPDEST SWAP1 POP SWAP2 SWAP1 POP JUMP JUMPDEST PUSH0 DUP2 SWAP1 POP SWAP2 SWAP1 POP JUMP JUMPDEST PUSH3 0x44A DUP4 PUSH3 0x40F JUMP JUMPDEST PUSH3 0x462 PUSH3 0x459 DUP3 PUSH3 0x436 JUMP JUMPDEST DUP5 DUP5 SLOAD PUSH3 0x3B1 JUMP JUMPDEST DUP3 SSTORE POP POP POP POP JUMP JUMPDEST PUSH0 SWAP1 JUMP JUMPDEST PUSH3 0x478 PUSH3 0x46A JUMP JUMPDEST PUSH3 0x485 DUP2 DUP5 DUP5 PUSH3 0x43F JUMP JUMPDEST POP POP POP JUMP JUMPDEST JUMPDEST DUP2 DUP2 LT ISZERO PUSH3 0x4AC JUMPI PUSH3 0x4A0 PUSH0 DUP3 PUSH3 0x46E JUMP JUMPDEST PUSH1 0x1 DUP2 ADD SWAP1 POP PUSH3 0x48B JUMP JUMPDEST POP POP JUMP JUMPDEST PUSH1 0x1F DUP3 GT ISZERO PUSH3 0x4FB JUMPI PUSH3 0x4C5 DUP2 PUSH3 0x384 JUMP JUMPDEST PUSH3 0x4D0 DUP5 PUSH3 0x396 JUMP JUMPDEST DUP2 ADD PUSH1 0x20 DUP6 LT ISZERO PUSH3 0x4E0 JUMPI DUP2 SWAP1 POP JUMPDEST PUSH3 0x4F8 PUSH3 0x4EF DUP6 PUSH3 0x396 JUMP JUMPDEST DUP4 ADD DUP3 PUSH3 0x48A JUMP JUMPDEST POP POP JUMPDEST POP POP POP JUMP JUMPDEST PUSH0 DUP3 DUP3 SHR SWAP1 POP SWAP3 SWAP2 POP POP JUMP JUMPDEST PUSH0 PUSH3 0x51D PUSH0 NOT DUP5 PUSH1 0x8 MUL PUSH3 0x500 JUMP JUMPDEST NOT DUP1 DUP4 AND SWAP2 POP POP SWAP3 SWAP2 POP POP JUMP JUMPDEST PUSH0 PUSH3 0x537 DUP4 DUP4 PUSH3 0x50C JUMP JUMPDEST SWAP2 POP DUP3 PUSH1 0x2 MUL DUP3 OR SWAP1 POP SWAP3 SWAP2 POP POP JUMP JUMPDEST PUSH3 0x552 DUP3 PUSH3 0x319 JUMP JUMPDEST PUSH8 0xFFFFFFFFFFFFFFFF DUP2 GT ISZERO PUSH3 0x56E JUMPI PUSH3 0x56D PUSH3 0x121 JUMP JUMPDEST JUMPDEST PUSH3 0x57A DUP3 SLOAD PUSH3 0x350 JUMP JUMPDEST PUSH3 0x587 DUP3 DUP3 DUP6 PUSH3 0x4B0 JUMP JUMPDEST PUSH0 PUSH1 0x20 SWAP1 POP PUSH1 0x1F DUP4 GT PUSH1 0x1 DUP2 EQ PUSH3 0x5BD JUMPI PUSH0 DUP5 ISZERO PUSH3 0x5A8 JUMPI DUP3 DUP8 ADD MLOAD SWAP1 POP JUMPDEST PUSH3 0x5B4 DUP6 DUP3 PUSH3 0x52A JUMP JUMPDEST DUP7 SSTORE POP PUSH3 0x623 JUMP JUMPDEST PUSH1 0x1F NOT DUP5 AND PUSH3 0x5CD DUP7 PUSH3 0x384 JUMP JUMPDEST PUSH0 JUMPDEST DUP3 DUP2 LT ISZERO PUSH3 0x5F6 JUMPI DUP5 DUP10 ADD MLOAD DUP3 SSTORE PUSH1 0x1 DUP3 ADD SWAP2 POP PUSH1 0x20 DUP6 ADD SWAP5 POP PUSH1 0x20 DUP2 ADD SWAP1 POP PUSH3 0x5CF JUMP JUMPDEST DUP7 DUP4 LT ISZERO PUSH3 0x616 JUMPI DUP5 DUP10 ADD MLOAD PUSH3 0x612 PUSH1 0x1F DUP10 AND DUP3 PUSH3 0x50C JUMP JUMPDEST DUP4 SSTORE POP JUMPDEST PUSH1 0x1 PUSH1 0x2 DUP9 MUL ADD DUP9 SSTORE POP POP POP JUMPDEST POP POP POP POP POP POP JUMP JUMPDEST PUSH2 0x6A6 DUP1 PUSH3 0x639 PUSH0 CODECOPY PUSH0 RETURN INVALID PUSH1 0x80 PUSH1 0x40 MSTORE CALLVALUE DUP1 ISZERO PUSH2 0xF JUMPI PUSH0 DUP1 REVERT JUMPDEST POP PUSH1 0x4 CALLDATASIZE LT PUSH2 0x55 JUMPI PUSH0 CALLDATALOAD PUSH1 0xE0 SHR DUP1 PUSH4 0x3A98EF39 EQ PUSH2 0x59 JUMPI DUP1 PUSH4 0x70A08231 EQ PUSH2 0x77 JUMPI DUP1 PUSH4 0x8DA5CB5B EQ PUSH2 0xA7 JUMPI DUP1 PUSH4 0x8FCB4E5B EQ PUSH2 0xC5 JUMPI DUP1 PUSH4 0xE1B40A76 EQ PUSH2 0xE1 JUMPI JUMPDEST PUSH0 DUP1 REVERT JUMPDEST PUSH2 0x61 PUSH2 0xFF JUMP JUMPDEST PUSH1 0x40 MLOAD PUSH2 0x6E SWAP2 SWAP1 PUSH2 0x33C JUMP JUMPDEST PUSH1 0x40 MLOAD DUP1 SWAP2 SUB SWAP1 RETURN JUMPDEST PUSH2 0x91 PUSH1 0x4 DUP1 CALLDATASIZE SUB DUP2 ADD SWAP1 PUSH2 0x8C SWAP2 SWAP1 PUSH2 0x3B3 JUMP JUMPDEST PUSH2 0x105 JUMP JUMPDEST PUSH1 0x40 MLOAD PUSH2 0x9E SWAP2 SWAP1 PUSH2 0x33C JUMP JUMPDEST PUSH1 0x40 MLOAD DUP1 SWAP2 SUB SWAP1 RETURN JUMPDEST PUSH2 0xAF PUSH2 0x14B JUMP JUMPDEST PUSH1 0x40 MLOAD PUSH2 0xBC SWAP2 SWAP1 PUSH2 0x3ED JUMP JUMPDEST PUSH1 0x40 MLOAD DUP1 SWAP2 SUB SWAP1 RETURN JUMPDEST PUSH2 0xDF PUSH1 0x4 DUP1 CALLDATASIZE SUB DUP2 ADD SWAP1 PUSH2 0xDA SWAP2 SWAP1 PUSH2 0x430 JUMP JUMPDEST PUSH2 0x16E JUMP JUMPDEST STOP JUMPDEST PUSH2 0xE9 PUSH2 0x298 JUMP JUMPDEST PUSH1 0x40 MLOAD PUSH2 0xF6 SWAP2 SWAP1 PUSH2 0x4F8 JUMP JUMPDEST PUSH1 0x40 MLOAD DUP1 SWAP2 SUB SWAP1 RETURN JUMPDEST PUSH1 0x3 SLOAD DUP2 JUMP JUMPDEST PUSH0 PUSH1 0x2 PUSH0 DUP4 PUSH20 0xFFFFFFFFFFFFFFFFFFFFFFFFFFFFFFFFFFFFFFFF AND PUSH20 0xFFFFFFFFFFFFFFFFFFFFFFFFFFFFFFFFFFFFFFFF AND DUP2 MSTORE PUSH1 0x20 ADD SWAP1 DUP2 MSTORE PUSH1 0x20 ADD PUSH0 KECCAK256 SLOAD SWAP1 POP SWAP2 SWAP1 POP JUMP JUMPDEST PUSH0 DUP1 SLOAD SWAP1 PUSH2 0x100 EXP SWAP1 DIV PUSH20 0xFFFFFFFFFFFFFFFFFFFFFFFFFFFFFFFFFFFFFFFF AND DUP2 JUMP JUMPDEST DUP1 PUSH1 0x2 PUSH0 CALLER PUSH20 0xFFFFFFFFFFFFFFFFFFFFFFFFFFFFFFFFFFFFFFFF AND PUSH20 0xFFFFFFFFFFFFFFFFFFFFFFFFFFFFFFFFFFFFFFFF AND DUP2 MSTORE PUSH1 0x20 ADD SWAP1 DUP2 MSTORE PUSH1 0x20 ADD PUSH0 KECCAK256 SLOAD LT ISZERO PUSH2 0x1EE JUMPI PUSH1 0x40 MLOAD PUSH32 0x8C379A000000000000000000000000000000000000000000000000000000000 DUP2 MSTORE PUSH1 0x4 ADD PUSH2 0x1E5 SWAP1 PUSH2 0x562 JUMP JUMPDEST PUSH1 0x40 MLOAD DUP1 SWAP2 SUB SWAP1 REVERT JUMPDEST DUP1 PUSH1 0x2 PUSH0 CALLER PUSH20 0xFFFFFFFFFFFFFFFFFFFFFFFFFFFFFFFFFFFFFFFF AND PUSH20 0xFFFFFFFFFFFFFFFFFFFFFFFFFFFFFFFFFFFFFFFF AND DUP2 MSTORE PUSH1 0x20 ADD SWAP1 DUP2 MSTORE PUSH1 0x20 ADD PUSH0 KECCAK256 PUSH0 DUP3 DUP3 SLOAD PUSH2 0x23A SWAP2 SWAP1 PUSH2 0x5AD JUMP JUMPDEST SWAP3 POP POP DUP2 SWAP1 SSTORE POP DUP1 PUSH1 0x2 PUSH0 DUP5 PUSH20 0xFFFFFFFFFFFFFFFFFFFFFFFFFFFFFFFFFFFFFFFF AND PUSH20 0xFFFFFFFFFFFFFFFFFFFFFFFFFFFFFFFFFFFFFFFF AND DUP2 MSTORE PUSH1 0x20 ADD SWAP1 DUP2 MSTORE PUSH1 0x20 ADD PUSH0 KECCAK256 PUSH0 DUP3 DUP3 SLOAD PUSH2 0x28D SWAP2 SWAP1 PUSH2 0x5E0 JUMP JUMPDEST SWAP3 POP POP DUP2 SWAP1 SSTORE POP POP POP JUMP JUMPDEST PUSH1 0x1 DUP1 SLOAD PUSH2 0x2A5 SWAP1 PUSH2 0x640 JUMP JUMPDEST DUP1 PUSH1 0x1F ADD PUSH1 0x20 DUP1 SWAP2 DIV MUL PUSH1 0x20 ADD PUSH1 0x40 MLOAD SWAP1 DUP2 ADD PUSH1 0x40 MSTORE DUP1 SWAP3 SWAP2 SWAP1 DUP2 DUP2 MSTORE PUSH1 0x20 ADD DUP3 DUP1 SLOAD PUSH2 0x2D1 SWAP1 PUSH2 0x640 JUMP JUMPDEST DUP1 ISZERO PUSH2 0x31C JUMPI DUP1 PUSH1 0x1F LT PUSH2 0x2F3 JUMPI PUSH2 0x100 DUP1 DUP4 SLOAD DIV MUL DUP4 MSTORE SWAP2 PUSH1 0x20 ADD SWAP2 PUSH2 0x31C JUMP JUMPDEST DUP3 ADD SWAP2 SWAP1 PUSH0 MSTORE PUSH1 0x20 PUSH0 KECCAK256 SWAP1 JUMPDEST DUP2 SLOAD DUP2 MSTORE SWAP1 PUSH1 0x1 ADD SWAP1 PUSH1 0x20 ADD DUP1 DUP4 GT PUSH2 0x2FF JUMPI DUP3 SWAP1 SUB PUSH1 0x1F AND DUP3 ADD SWAP2 JUMPDEST POP POP POP POP POP DUP2 JUMP JUMPDEST PUSH0 DUP2 SWAP1 POP SWAP2 SWAP1 POP JUMP JUMPDEST PUSH2 0x336 DUP2 PUSH2 0x324 JUMP JUMPDEST DUP3 MSTORE POP POP JUMP JUMPDEST PUSH0 PUSH1 0x20 DUP3 ADD SWAP1 POP PUSH2 0x34F PUSH0 DUP4 ADD DUP5 PUSH2 0x32D JUMP JUMPDEST SWAP3 SWAP2 POP POP JUMP JUMPDEST PUSH0 DUP1 REVERT JUMPDEST PUSH0 PUSH20 0xFFFFFFFFFFFFFFFFFFFFFFFFFFFFFFFFFFFFFFFF DUP3 AND SWAP1 POP SWAP2 SWAP1 POP JUMP JUMPDEST PUSH0 PUSH2 0x382 DUP3 PUSH2 0x359 JUMP JUMPDEST SWAP1 POP SWAP2 SWAP1 POP JUMP JUMPDEST PUSH2 0x392 DUP2 PUSH2 0x378 JUMP JUMPDEST DUP2 EQ PUSH2 0x39C JUMPI PUSH0 DUP1 REVERT JUMPDEST POP JUMP JUMPDEST PUSH0 DUP2 CALLDATALOAD SWAP1 POP PUSH2 0x3AD DUP2 PUSH2 0x389 JUMP JUMPDEST SWAP3 SWAP2 POP POP JUMP JUMPDEST PUSH0 PUSH1 0x20 DUP3 DUP5 SUB SLT ISZERO PUSH2 0x3C8 JUMPI PUSH2 0x3C7 PUSH2 0x355 JUMP JUMPDEST JUMPDEST PUSH0 PUSH2 0x3D5 DUP5 DUP3 DUP6 ADD PUSH2 0x39F JUMP JUMPDEST SWAP2 POP POP SWAP3 SWAP2 POP POP JUMP JUMPDEST PUSH2 0x3E7 DUP2 PUSH2 0x378 JUMP JUMPDEST DUP3 MSTORE POP POP JUMP JUMPDEST PUSH0 PUSH1 0x20 DUP3 ADD SWAP1 POP PUSH2 0x400 PUSH0 DUP4 ADD DUP5 PUSH2 0x3DE JUMP JUMPDEST SWAP3 SWAP2 POP POP JUMP JUMPDEST PUSH2 0x40F DUP2 PUSH2 0x324 JUMP JUMPDEST DUP2 EQ PUSH2 0x419 JUMPI PUSH0 DUP1 REVERT JUMPDEST POP JUMP JUMPDEST PUSH0 DUP2 CALLDATALOAD SWAP1 POP PUSH2 0x42A DUP2 PUSH2 0x406 JUMP JUMPDEST SWAP3 SWAP2 POP POP JUMP JUMPDEST PUSH0 DUP1 PUSH1 0x40 DUP4 DUP6 SUB SLT ISZERO PUSH2 0x446 JUMPI PUSH2 0x445 PUSH2 0x355 JUMP JUMPDEST JUMPDEST PUSH0 PUSH2 0x453 DUP6 DUP3 DUP7 ADD PUSH2 0x39F JUMP JUMPDEST SWAP3 POP POP PUSH1 0x20 PUSH2 0x464 DUP6 DUP3 DUP7 ADD PUSH2 0x41C JUMP JUMPDEST SWAP2 POP POP SWAP3 POP SWAP3 SWAP1 POP JUMP JUMPDEST PUSH0 DUP2 MLOAD SWAP1 POP SWAP2 SWAP1 POP JUMP JUMPDEST PUSH0 DUP3 DUP3 MSTORE PUSH1 0x20 DUP3 ADD SWAP1 POP SWAP3 SWAP2 POP POP JUMP JUMPDEST PUSH0 JUMPDEST DUP4 DUP2 LT ISZERO PUSH2 0x4A5 JUMPI DUP1 DUP3 ADD MLOAD DUP2 DUP5 ADD MSTORE PUSH1 0x20 DUP2 ADD SWAP1 POP PUSH2 0x48A JUMP JUMPDEST PUSH0 DUP5 DUP5 ADD MSTORE POP POP POP POP JUMP JUMPDEST PUSH0 PUSH1 0x1F NOT PUSH1 0x1F DUP4 ADD AND SWAP1 POP SWAP2 SWAP1 POP JUMP JUMPDEST PUSH0 PUSH2 0x4CA DUP3 PUSH2 0x46E JUMP JUMPDEST PUSH2 0x4D4 DUP2 DUP6 PUSH2 0x478 JUMP JUMPDEST SWAP4 POP PUSH2 0x4E4 DUP2 DUP6 PUSH1 0x20 DUP7 ADD PUSH2 0x488 JUMP JUMPDEST PUSH2 0x4ED DUP2 PUSH2 0x4B0 JUMP JUMPDEST DUP5 ADD SWAP2 POP POP SWAP3 SWAP2 POP POP JUMP JUMPDEST PUSH0 PUSH1 0x20 DUP3 ADD SWAP1 POP DUP2 DUP2 SUB PUSH0 DUP4 ADD MSTORE PUSH2 0x510 DUP2 DUP5 PUSH2 0x4C0 JUMP JUMPDEST SWAP1 POP SWAP3 SWAP2 POP POP JUMP JUMPDEST PUSH32 0x496E73756666696369656E742073686172657300000000000000000000000000 PUSH0 DUP3 ADD MSTORE POP JUMP JUMPDEST PUSH0 PUSH2 0x54C PUSH1 0x13 DUP4 PUSH2 0x478 JUMP JUMPDEST SWAP2 POP PUSH2 0x557 DUP3 PUSH2 0x518 JUMP JUMPDEST PUSH1 0x20 DUP3 ADD SWAP1 POP SWAP2 SWAP1 POP JUMP JUMPDEST PUSH0 PUSH1 0x20 DUP3 ADD SWAP1 POP DUP2 DUP2 SUB PUSH0 DUP4 ADD MSTORE PUSH2 0x579 DUP2 PUSH2 0x540 JUMP JUMPDEST SWAP1 POP SWAP2 SWAP1 POP JUMP JUMPDEST PUSH32 0x4E487B7100000000000000000000000000000000000000000000000000000000 PUSH0 MSTORE PUSH1 0x11 PUSH1 0x4 MSTORE PUSH1 0x24 PUSH0 REVERT JUMPDEST PUSH0 PUSH2 0x5B7 DUP3 PUSH2 0x324 JUMP JUMPDEST SWAP2 POP PUSH2 0x5C2 DUP4 PUSH2 0x324 JUMP JUMPDEST SWAP3 POP DUP3 DUP3 SUB SWAP1 POP DUP2 DUP2 GT ISZERO PUSH2 0x5DA JUMPI PUSH2 0x5D9 PUSH2 0x580 JUMP JUMPDEST JUMPDEST SWAP3 SWAP2 POP POP JUMP JUMPDEST PUSH0 PUSH2 0x5EA DUP3 PUSH2 0x324 JUMP JUMPDEST SWAP2 POP PUSH2 0x5F5 DUP4 PUSH2 0x324 JUMP JUMPDEST SWAP3 POP DUP3 DUP3 ADD SWAP1 POP DUP1 DUP3 GT ISZERO PUSH2 0x60D JUMPI PUSH2 0x60C PUSH2 0x580 JUMP JUMPDEST JUMPDEST SWAP3 SWAP2 POP POP JUMP JUMPDEST PUSH32 0x4E487B7100000000000000000000000000000000000000000000000000000000 PUSH0 MSTORE PUSH1 0x22 PUSH1 0x4 MSTORE PUSH1 0x24 PUSH0 REVERT JUMPDEST PUSH0 PUSH1 0x2 DUP3 DIV SWAP1 POP PUSH1 0x1 DUP3 AND DUP1 PUSH2 0x657 JUMPI PUSH1 0x7F DUP3 AND SWAP2 POP JUMPDEST PUSH1 0x20 DUP3 LT DUP2 SUB PUSH2 0x66A JUMPI PUSH2 0x669 PUSH2 0x613 JUMP JUMPDEST JUMPDEST POP SWAP2 SWAP1 POP JUMP INVALID LOG2 PUSH5 0x6970667358 0x22 SLT KECCAK256 DUP3 SWAP7 SWAP12 0x49 SELFBALANCE STATICCALL 0xE NOT SSTORE 0xD2 SWAP5 0xBE 0xC5 0xFB 0xC1 PUSH2 0xD244 SGT PUSH18 0xF1BA9F8C9960B19F6318A76B64736F6C6343 STOP ADDMOD AND STOP CALLER LOG2 PUSH5 0x6970667358 0x22 SLT KECCAK256 PREVRANDAO 0xFB PUSH29 0x5E82B0ACCAE311FF2DC1F4568EAAE8FD02AB30AA3E2FEFB5D69A71E067 PUSH5 0x736F6C6343 STOP ADDMOD AND STOP CALLER "
		},
		"gasEstimates": {
			"creation": {
				"codeDepositCost": "994000",
				"executionCost": "infinite",
				"totalCost": "infinite"
			},
			"external": {
				"assetManager()": "infinite",
				"deployAndRegisterAsset(string,string,uint256)": "infinite"
			}
		},
		"methodIdentifiers": {
			"assetManager()": "94217ad1",
			"deployAndRegisterAsset(string,string,uint256)": "c0bb5f07"
		}
	},
	"abi": [
		{
			"inputs": [
				{
					"internalType": "address",
					"name": "_assetManagerAddress",
					"type": "address"
				}
			],
			"stateMutability": "nonpayable",
			"type": "constructor"
		},
		{
			"anonymous": false,
			"inputs": [
				{
					"indexed": false,
					"internalType": "address",
					"name": "deployedAddress",
					"type": "address"
				}
			],
			"name": "AssetDeployed",
			"type": "event"
		},
		{
			"inputs": [],
			"name": "assetManager",
			"outputs": [
				{
					"internalType": "contract AssetManager",
					"name": "",
					"type": "address"
				}
			],
			"stateMutability": "view",
			"type": "function"
		},
		{
			"inputs": [
				{
					"internalType": "string",
					"name": "ipfsAddress",
					"type": "string"
				},
				{
					"internalType": "string",
					"name": "assetDesc",
					"type": "string"
				},
				{
					"internalType": "uint256",
					"name": "initialShares",
					"type": "uint256"
				}
			],
			"name": "deployAndRegisterAsset",
			"outputs": [
				{
					"internalType": "address",
					"name": "",
					"type": "address"
				}
			],
			"stateMutability": "nonpayable",
			"type": "function"
		}
	]
}