{
	"data": {
		"bytecode": {
			"linkReferences": {},
			"object": "6101406040523480156200001257600080fd5b5060405180604001604052806008815260200167046617374537761760c41b81525080604051806040016040528060018152602001603160f81b81525060405180604001604052806008815260200167447261675261636560c01b815250604051806040016040528060048152602001634452414760e01b81525081600390816200009e919062000b21565b506004620000ad828262000b21565b5050600a805460ff1916905550815160209283012081519183019190912060e08290526101008190524660a0818152604080517f8b73c3c69bb8fe3d512ecc4cf759cc79239f7b179b0ffacaa9a75d522b39400f818801819052818301969096526060810194909452608080850193909352308483018190528151808603909301835260c0948501909152815191909501209052919091526101205250620001576000336200020b565b620001837f5fdbd35e8da83ee755d5e62a539e5ed7f47126abede0b8b10f9ea43dc6eed07f336200020b565b620001af7f65d7a28e3265b37a6474929f336521b332c1681b933f6cb9f3376673440d862a336200020b565b620001d933620001c26012600a62000d00565b620001d39064e8d4a5100062000d11565b62000296565b620002057f9f2df0fed2c77648de5860a4cc508cd0818c85b8b8a1ab4ceeef8d981c8956a6336200020b565b62000d6d565b620002178282620002ad565b620002925760008281526009602090815260408083206001600160a01b03851684529091529020805460ff19166001179055620002513390565b6001600160a01b0316816001600160a01b0316837f2f8788117e7eff1d82e926ec794901d17c78024a50270940304540a733656f0d60405160405180910390a45b5050565b620002928282620002da60201b620011f11760201c565b60008281526009602090815260408083206001600160a01b038516845290915290205460ff165b92915050565b620002f182826200039160201b620012811760201c565b6001600160e01b03620003056200046c8216565b1115620003725760405162461bcd60e51b815260206004820152603060248201527f4552433230566f7465733a20746f74616c20737570706c79207269736b73206f60448201526f766572666c6f77696e6720766f74657360801b60648201526084015b60405180910390fd5b6200038b600f620013546200047260201b178362000487565b50505050565b6001600160a01b038216620003e95760405162461bcd60e51b815260206004820152601f60248201527f45524332303a206d696e7420746f20746865207a65726f206164647265737300604482015260640162000369565b620003f76000838362000619565b80600260008282546200040b919062000d2b565b90915550506001600160a01b038216600081815260208181526040808320805486019055518481527fddf252ad1be2c89b69c2b068fc378daa952ba7f163c4a11628f55a4df523b3ef910160405180910390a3620002926000838362000640565b60025490565b600062000480828462000d2b565b9392505050565b82546000908190818115620004e757620004b687620004a860018562000d41565b600091825260209091200190565b60408051808201909152905463ffffffff8116825264010000000090046001600160e01b03166020820152620004fc565b60408051808201909152600080825260208201525b905080602001516001600160e01b031693506200051a84868860201c565b9250600082118015620005335750805163ffffffff1643145b156200058a576200054f836200065860201b620013601760201c565b6200056188620004a860018662000d41565b80546001600160e01b03929092166401000000000263ffffffff9092169190911790556200060f565b866040518060400160405280620005ac43620006c760201b620013cd1760201c565b63ffffffff168152602001620005cd866200065860201b620013601760201c565b6001600160e01b0390811690915282546001810184556000938452602093849020835194909301519091166401000000000263ffffffff909316929092179101555b5050935093915050565b620006236200072e565b6200063b8383836200077860201b620014321760201c565b505050565b6200063b838383620007e460201b6200147a1760201c565b60006001600160e01b03821115620006c35760405162461bcd60e51b815260206004820152602760248201527f53616665436173743a2076616c756520646f65736e27742066697420696e20326044820152663234206269747360c81b606482015260840162000369565b5090565b600063ffffffff821115620006c35760405162461bcd60e51b815260206004820152602660248201527f53616665436173743a2076616c756520646f65736e27742066697420696e203360448201526532206269747360d01b606482015260840162000369565b600a5460ff1615620007765760405162461bcd60e51b815260206004820152601060248201526f14185d5cd8589b194e881c185d5cd95960821b604482015260640162000369565b565b620007908383836200063b60201b620007831760201c565b6001600160a01b038316620007b457620007aa8262000830565b6200063b62000868565b6001600160a01b038216620007ce57620007aa8362000830565b620007d98362000830565b6200063b8262000830565b620007fc8383836200063b60201b620007831760201c565b6001600160a01b038381166000908152600d60205260408082205485841683529120546200063b9291821691168362000878565b6001600160a01b03811660009081526005602090815260408083209183905290912054620008659190620009b3565b620009b3565b50565b6200077660066200085f60025490565b816001600160a01b0316836001600160a01b0316141580156200089b5750600081115b156200063b576001600160a01b0383161562000928576001600160a01b0383166000908152600e6020908152604082208291620008e5919062000a02901b620014ac178562000487565b91509150846001600160a01b031660008051602062003d4083398151915283836040516200091d929190918252602082015260400190565b60405180910390a250505b6001600160a01b038216156200063b576001600160a01b0382166000908152600e60209081526040822082916200096c919062000472901b62001354178562000487565b91509150836001600160a01b031660008051602062003d408339815191528383604051620009a4929190918252602082015260400190565b60405180910390a25050505050565b6000620009bf62000a10565b905080620009cd8462000a2e565b10156200063b578254600180820185556000858152602080822090930193909355938401805494850181558252902090910155565b600062000480828462000d41565b600062000a29600862000a7960201b620014b81760201c565b905090565b8054600090810362000a4257506000919050565b8154829062000a549060019062000d41565b8154811062000a675762000a6762000d57565b90600052602060002001549050919050565b5490565b634e487b7160e01b600052604160045260246000fd5b600181811c9082168062000aa857607f821691505b60208210810362000ac957634e487b7160e01b600052602260045260246000fd5b50919050565b601f8211156200063b57600081815260208120601f850160051c8101602086101562000af85750805b601f850160051c820191505b8181101562000b195782815560010162000b04565b505050505050565b81516001600160401b0381111562000b3d5762000b3d62000a7d565b62000b558162000b4e845462000a93565b8462000acf565b602080601f83116001811462000b8d576000841562000b745750858301515b600019600386901b1c1916600185901b17855562000b19565b600085815260208120601f198616915b8281101562000bbe5788860151825594840194600190910190840162000b9d565b508582101562000bdd5787850151600019600388901b60f8161c191681555b5050505050600190811b01905550565b634e487b7160e01b600052601160045260246000fd5b600181815b8085111562000c4457816000190482111562000c285762000c2862000bed565b8085161562000c3657918102915b93841c939080029062000c08565b509250929050565b60008262000c5d57506001620002d4565b8162000c6c57506000620002d4565b816001811462000c85576002811462000c905762000cb0565b6001915050620002d4565b60ff84111562000ca45762000ca462000bed565b50506001821b620002d4565b5060208310610133831016604e8410600b841016171562000cd5575081810a620002d4565b62000ce1838362000c03565b806000190482111562000cf85762000cf862000bed565b029392505050565b60006200048060ff84168362000c4c565b8082028115828204841417620002d457620002d462000bed565b80820180821115620002d457620002d462000bed565b81810381811115620002d457620002d462000bed565b634e487b7160e01b600052603260045260246000fd5b60805160a05160c05160e0516101005161012051612f8362000dbd6000396000611923015260006119720152600061194d015260006118a6015260006118d0015260006118fa0152612f836000f3fe608060405234801561001057600080fd5b50600436106102745760003560e01c80637028e2cd11610151578063a217fddf116100c3578063d539139311610087578063d539139314610595578063d547741f146105bc578063d9d98ce4146105cf578063dd62ed3e146105e2578063e63ab1e9146105f5578063f1127ed81461061c57600080fd5b8063a217fddf14610541578063a457c2d714610549578063a9059cbb1461055c578063c3cda5201461056f578063d505accf1461058257600080fd5b80638e539e8c116101155780638e539e8c146104e557806391d14854146104f857806395d89b411461050b5780639711715a14610513578063981b24d01461051b5780639ab24eb01461052e57600080fd5b80637028e2cd1461046757806370a082311461048e57806379cc6790146104b75780637ecebe00146104ca5780638456cb59146104dd57600080fd5b80633a46b1a8116101ea578063587cde1e116101ae578063587cde1e146103b75780635c19a95c146103fb5780635c975abb1461040e5780635cffe9de14610419578063613255ab1461042c5780636fcfff451461043f57600080fd5b80633a46b1a8146103635780633f4ba83a1461037657806340c10f191461037e57806342966c68146103915780634ee2cd7e146103a457600080fd5b8063248a9ca31161023c578063248a9ca3146102ee5780632f2ff15d14610311578063313ce567146103265780633644e5151461033557806336568abe1461033d578063395093511461035057600080fd5b806301ffc9a71461027957806306fdde03146102a1578063095ea7b3146102b657806318160ddd146102c957806323b872dd146102db575b600080fd5b61028c610287366004612a05565b610659565b60405190151581526020015b60405180910390f35b6102a9610690565b6040516102989190612a53565b61028c6102c4366004612a9b565b610722565b6002545b604051908152602001610298565b61028c6102e9366004612ac7565b61073a565b6102cd6102fc366004612b08565b60009081526009602052604090206001015490565b61032461031f366004612b21565b61075e565b005b60405160128152602001610298565b6102cd610788565b61032461034b366004612b21565b610797565b61028c61035e366004612a9b565b61081a565b6102cd610371366004612a9b565b61083c565b6103246108b6565b61032461038c366004612a9b565b6108eb565b61032461039f366004612b08565b61091f565b6102cd6103b2366004612a9b565b610929565b6103e36103c5366004612b51565b6001600160a01b039081166000908152600d60205260409020541690565b6040516001600160a01b039091168152602001610298565b610324610409366004612b51565b610982565b600a5460ff1661028c565b61028c610427366004612b6e565b61098c565b6102cd61043a366004612b51565b610b70565b61045261044d366004612b51565b610b98565b60405163ffffffff9091168152602001610298565b6102cd7f5fdbd35e8da83ee755d5e62a539e5ed7f47126abede0b8b10f9ea43dc6eed07f81565b6102cd61049c366004612b51565b6001600160a01b031660009081526020819052604090205490565b6103246104c5366004612a9b565b610bba565b6102cd6104d8366004612b51565b610bcf565b610324610bed565b6102cd6104f3366004612b08565b610c1f565b61028c610506366004612b21565b610c7b565b6102a9610ca6565b610324610cb5565b6102cd610529366004612b08565b610ce7565b6102cd61053c366004612b51565b610d12565b6102cd600081565b61028c610557366004612a9b565b610d99565b61028c61056a366004612a9b565b610e14565b61032461057d366004612c1e565b610e22565b610324610590366004612c78565b610f58565b6102cd7f9f2df0fed2c77648de5860a4cc508cd0818c85b8b8a1ab4ceeef8d981c8956a681565b6103246105ca366004612b21565b6110bc565b6102cd6105dd366004612a9b565b6110e1565b6102cd6105f0366004612ce6565b611142565b6102cd7f65d7a28e3265b37a6474929f336521b332c1681b933f6cb9f3376673440d862a81565b61062f61062a366004612d14565b61116d565b60408051825163ffffffff1681526020928301516001600160e01b03169281019290925201610298565b60006001600160e01b03198216637965db0b60e01b148061068a57506301ffc9a760e01b6001600160e01b03198316145b92915050565b60606003805461069f90612d4b565b80601f01602080910402602001604051908101604052809291908181526020018280546106cb90612d4b565b80156107185780601f106106ed57610100808354040283529160200191610718565b820191906000526020600020905b8154815290600101906020018083116106fb57829003601f168201915b5050505050905090565b6000336107308185856114bc565b5060019392505050565b6000336107488582856115e0565b610753858585611654565b506001949350505050565b60008281526009602052604090206001015461077981611809565b6107838383611813565b505050565b6000610792611899565b905090565b6001600160a01b038116331461080c5760405162461bcd60e51b815260206004820152602f60248201527f416363657373436f6e74726f6c3a2063616e206f6e6c792072656e6f756e636560448201526e103937b632b9903337b91039b2b63360891b60648201526084015b60405180910390fd5b61081682826119c0565b5050565b60003361073081858561082d8383611142565b6108379190612d95565b6114bc565b600043821061088d5760405162461bcd60e51b815260206004820152601f60248201527f4552433230566f7465733a20626c6f636b206e6f7420796574206d696e6564006044820152606401610803565b6001600160a01b0383166000908152600e602052604090206108af9083611a27565b9392505050565b7f65d7a28e3265b37a6474929f336521b332c1681b933f6cb9f3376673440d862a6108e081611809565b6108e8611b1e565b50565b7f9f2df0fed2c77648de5860a4cc508cd0818c85b8b8a1ab4ceeef8d981c8956a661091581611809565b6107838383611b70565b6108e83382611b7a565b6001600160a01b038216600090815260056020526040812081908190610950908590611b84565b9150915081610977576001600160a01b038516600090815260208190526040902054610979565b805b95945050505050565b6108e83382611c7a565b600061099785610b70565b8411156109fa5760405162461bcd60e51b815260206004820152602b60248201527f4552433230466c6173684d696e743a20616d6f756e742065786365656473206d60448201526a30bc233630b9b42637b0b760a91b6064820152608401610803565b6000610a0686866110e1565b9050610a128786611b70565b6040516323e30c8b60e01b81527f439148f0bbc682ca079e46d6e2c2f0c1e3b820f1a291b069d8882abf8cf18dd9906001600160a01b038916906323e30c8b90610a6a9033908b908b9088908c908c90600401612da8565b6020604051808303816000875af1158015610a89573d6000803e3d6000fd5b505050506040513d601f19601f82011682018060405250810190610aad9190612e04565b14610b065760405162461bcd60e51b8152602060048201526024808201527f4552433230466c6173684d696e743a20696e76616c69642072657475726e2076604482015263616c756560e01b6064820152608401610803565b6000610b1c8830610b17858a612d95565b6115e0565b811580610b3057506001600160a01b038116155b15610b4d57610b4888610b438489612d95565b611b7a565b610b62565b610b578887611b7a565b610b62888284611654565b506001979650505050505050565b60006001600160a01b0382163014610b8957600061068a565b60025461068a90600019612e1d565b6001600160a01b0381166000908152600e602052604081205461068a906113cd565b610bc58233836115e0565b6108168282611b7a565b6001600160a01b0381166000908152600b602052604081205461068a565b7f65d7a28e3265b37a6474929f336521b332c1681b933f6cb9f3376673440d862a610c1781611809565b6108e8611cf3565b6000438210610c705760405162461bcd60e51b815260206004820152601f60248201527f4552433230566f7465733a20626c6f636b206e6f7420796574206d696e6564006044820152606401610803565b61068a600f83611a27565b60009182526009602090815260408084206001600160a01b0393909316845291905290205460ff1690565b60606004805461069f90612d4b565b7f5fdbd35e8da83ee755d5e62a539e5ed7f47126abede0b8b10f9ea43dc6eed07f610cdf81611809565b610816611d30565b6000806000610cf7846006611b84565b9150915081610d0857600254610d0a565b805b949350505050565b6001600160a01b0381166000908152600e60205260408120548015610d86576001600160a01b0383166000908152600e60205260409020610d54600183612e1d565b81548110610d6457610d64612e30565b60009182526020909120015464010000000090046001600160e01b0316610d89565b60005b6001600160e01b03169392505050565b60003381610da78286611142565b905083811015610e075760405162461bcd60e51b815260206004820152602560248201527f45524332303a2064656372656173656420616c6c6f77616e63652062656c6f77604482015264207a65726f60d81b6064820152608401610803565b61075382868684036114bc565b600033610730818585611654565b83421115610e725760405162461bcd60e51b815260206004820152601d60248201527f4552433230566f7465733a207369676e617475726520657870697265640000006044820152606401610803565b604080517fe48329057bfd03d55e49b547132e39cffd9c1820ad7b9d4c5307691425d15adf60208201526001600160a01b038816918101919091526060810186905260808101859052600090610eec90610ee49060a00160405160208183030381529060405280519060200120611d8a565b858585611dd8565b9050610ef781611e00565b8614610f455760405162461bcd60e51b815260206004820152601960248201527f4552433230566f7465733a20696e76616c6964206e6f6e6365000000000000006044820152606401610803565b610f4f8188611c7a565b50505050505050565b83421115610fa85760405162461bcd60e51b815260206004820152601d60248201527f45524332305065726d69743a206578706972656420646561646c696e650000006044820152606401610803565b60007f6e71edae12b1b97f4d1f60370fef10105fa2faae0126114a169c64845d6126c9888888610fd78c611e00565b6040805160208101969096526001600160a01b0394851690860152929091166060840152608083015260a082015260c0810186905260e001604051602081830303815290604052805190602001209050600061103282611d8a565b9050600061104282878787611dd8565b9050896001600160a01b0316816001600160a01b0316146110a55760405162461bcd60e51b815260206004820152601e60248201527f45524332305065726d69743a20696e76616c6964207369676e617475726500006044820152606401610803565b6110b08a8a8a6114bc565b50505050505050505050565b6000828152600960205260409020600101546110d781611809565b61078383836119c0565b60006001600160a01b038316301461113b5760405162461bcd60e51b815260206004820152601b60248201527f4552433230466c6173684d696e743a2077726f6e6720746f6b656e00000000006044820152606401610803565b60006108af565b6001600160a01b03918216600090815260016020908152604080832093909416825291909152205490565b60408051808201909152600080825260208201526001600160a01b0383166000908152600e60205260409020805463ffffffff84169081106111b1576111b1612e30565b60009182526020918290206040805180820190915291015463ffffffff8116825264010000000090046001600160e01b0316918101919091529392505050565b6111fb8282611281565b6002546001600160e01b03101561126d5760405162461bcd60e51b815260206004820152603060248201527f4552433230566f7465733a20746f74616c20737570706c79207269736b73206f60448201526f766572666c6f77696e6720766f74657360801b6064820152608401610803565b61127b600f61135483611e28565b50505050565b6001600160a01b0382166112d75760405162461bcd60e51b815260206004820152601f60248201527f45524332303a206d696e7420746f20746865207a65726f2061646472657373006044820152606401610803565b6112e360008383611f7c565b80600260008282546112f59190612d95565b90915550506001600160a01b038216600081815260208181526040808320805486019055518481527fddf252ad1be2c89b69c2b068fc378daa952ba7f163c4a11628f55a4df523b3ef910160405180910390a361081660008383611f8f565b60006108af8284612d95565b60006001600160e01b038211156113c95760405162461bcd60e51b815260206004820152602760248201527f53616665436173743a2076616c756520646f65736e27742066697420696e20326044820152663234206269747360c81b6064820152608401610803565b5090565b600063ffffffff8211156113c95760405162461bcd60e51b815260206004820152602660248201527f53616665436173743a2076616c756520646f65736e27742066697420696e203360448201526532206269747360d01b6064820152608401610803565b6001600160a01b0383166114515761144982611f9a565b610783611fcc565b6001600160a01b0382166114685761144983611f9a565b61147183611f9a565b61078382611f9a565b6001600160a01b038381166000908152600d602052604080822054858416835291205461078392918216911683611fdc565b60006108af8284612e1d565b5490565b6001600160a01b03831661151e5760405162461bcd60e51b8152602060048201526024808201527f45524332303a20617070726f76652066726f6d20746865207a65726f206164646044820152637265737360e01b6064820152608401610803565b6001600160a01b03821661157f5760405162461bcd60e51b815260206004820152602260248201527f45524332303a20617070726f766520746f20746865207a65726f206164647265604482015261737360f01b6064820152608401610803565b6001600160a01b0383811660008181526001602090815260408083209487168084529482529182902085905590518481527f8c5be1e5ebec7d5bd14f71427d1e84f3dd0314c0f7b2291e5b200ac8c7c3b925910160405180910390a3505050565b60006115ec8484611142565b9050600019811461127b57818110156116475760405162461bcd60e51b815260206004820152601d60248201527f45524332303a20696e73756666696369656e7420616c6c6f77616e63650000006044820152606401610803565b61127b84848484036114bc565b6001600160a01b0383166116b85760405162461bcd60e51b815260206004820152602560248201527f45524332303a207472616e736665722066726f6d20746865207a65726f206164604482015264647265737360d81b6064820152608401610803565b6001600160a01b03821661171a5760405162461bcd60e51b815260206004820152602360248201527f45524332303a207472616e7366657220746f20746865207a65726f206164647260448201526265737360e81b6064820152608401610803565b611725838383611f7c565b6001600160a01b0383166000908152602081905260409020548181101561179d5760405162461bcd60e51b815260206004820152602660248201527f45524332303a207472616e7366657220616d6f756e7420657863656564732062604482015265616c616e636560d01b6064820152608401610803565b6001600160a01b03848116600081815260208181526040808320878703905593871680835291849020805487019055925185815290927fddf252ad1be2c89b69c2b068fc378daa952ba7f163c4a11628f55a4df523b3ef910160405180910390a361127b848484611f8f565b6108e88133612119565b61181d8282610c7b565b6108165760008281526009602090815260408083206001600160a01b03851684529091529020805460ff191660011790556118553390565b6001600160a01b0316816001600160a01b0316837f2f8788117e7eff1d82e926ec794901d17c78024a50270940304540a733656f0d60405160405180910390a45050565b6000306001600160a01b037f0000000000000000000000000000000000000000000000000000000000000000161480156118f257507f000000000000000000000000000000000000000000000000000000000000000046145b1561191c57507f000000000000000000000000000000000000000000000000000000000000000090565b50604080517f00000000000000000000000000000000000000000000000000000000000000006020808301919091527f0000000000000000000000000000000000000000000000000000000000000000828401527f000000000000000000000000000000000000000000000000000000000000000060608301524660808301523060a0808401919091528351808403909101815260c0909201909252805191012090565b6119ca8282610c7b565b156108165760008281526009602090815260408083206001600160a01b0385168085529252808320805460ff1916905551339285917ff6391f5c32d9c69d2a47ea670b442974b53935d1edc7fd64eb21e047a839171b9190a45050565b815460009081816005811115611a81576000611a4284612172565b611a4c9085612e1d565b600088815260209020909150869082015463ffffffff161115611a7157809150611a7f565b611a7c816001612d95565b92505b505b80821015611ace576000611a95838361225a565b600088815260209020909150869082015463ffffffff161115611aba57809150611ac8565b611ac5816001612d95565b92505b50611a81565b8015611b0857611af186611ae3600184612e1d565b600091825260209091200190565b5464010000000090046001600160e01b0316611b0b565b60005b6001600160e01b03169695505050505050565b611b26612275565b600a805460ff191690557f5db9ee0a495bf2e6ff9c91a7834c1ba4fdd244a5e8aa4e537bd38aeae4b073aa335b6040516001600160a01b03909116815260200160405180910390a1565b61081682826111f1565b61081682826122be565b60008060008411611bd05760405162461bcd60e51b815260206004820152601660248201527504552433230536e617073686f743a20696420697320360541b6044820152606401610803565b611bd86122d6565b841115611c275760405162461bcd60e51b815260206004820152601d60248201527f4552433230536e617073686f743a206e6f6e6578697374656e742069640000006044820152606401610803565b6000611c3384866122e1565b84549091508103611c4b576000809250925050611c73565b6001846001018281548110611c6257611c62612e30565b906000526020600020015492509250505b9250929050565b6001600160a01b038281166000818152600d60208181526040808420805485845282862054949093528787166001600160a01b03198416811790915590519190951694919391928592917f3134e8a2e6d97e929a7e54011ea5485d7d196dd5f0ba4d4ef95803e8e3fc257f9190a461127b828483611fdc565b611cfb612380565b600a805460ff191660011790557f62e78cea01bee320cd4e420270b5ea74000d11b0c9f74754ebdbfc544b05a258611b533390565b6000611d40600880546001019055565b6000611d4a6122d6565b90507f8030e83b04d87bef53480e26263266d6ca66863aa8506aca6f2559d18aa1cb6781604051611d7d91815260200190565b60405180910390a1919050565b600061068a611d97611899565b8360405161190160f01b6020820152602281018390526042810182905260009060620160405160208183030381529060405280519060200120905092915050565b6000806000611de9878787876123c6565b91509150611df68161248a565b5095945050505050565b6001600160a01b0381166000908152600b602052604090208054600181018255905b50919050565b82546000908190818115611e7557611e4587611ae3600185612e1d565b60408051808201909152905463ffffffff8116825264010000000090046001600160e01b03166020820152611e8a565b60408051808201909152600080825260208201525b905080602001516001600160e01b03169350611eaa84868863ffffffff16565b9250600082118015611ec25750805163ffffffff1643145b15611f0757611ed083611360565b611edf88611ae3600186612e1d565b80546001600160e01b03929092166401000000000263ffffffff909216919091179055611f72565b866040518060400160405280611f1c436113cd565b63ffffffff168152602001611f3086611360565b6001600160e01b0390811690915282546001810184556000938452602093849020835194909301519091166401000000000263ffffffff909316929092179101555b5050935093915050565b611f84612380565b610783838383611432565b61078383838361147a565b6001600160a01b038116600090815260056020908152604080832091839052909120546108e891906125d4565b6125d4565b611fda6006611fc760025490565b565b816001600160a01b0316836001600160a01b031614158015611ffe5750600081115b15610783576001600160a01b0383161561208c576001600160a01b0383166000908152600e602052604081208190612039906114ac85611e28565b91509150846001600160a01b03167fdec2bacdd2f05b59de34da9b523dff8be42e5e38e818c82fdb0bae774387a7248383604051612081929190918252602082015260400190565b60405180910390a250505b6001600160a01b03821615610783576001600160a01b0382166000908152600e6020526040812081906120c29061135485611e28565b91509150836001600160a01b03167fdec2bacdd2f05b59de34da9b523dff8be42e5e38e818c82fdb0bae774387a724838360405161210a929190918252602082015260400190565b60405180910390a25050505050565b6121238282610c7b565b610816576121308161261e565b61213b836020612630565b60405160200161214c929190612e46565b60408051601f198184030181529082905262461bcd60e51b825261080391600401612a53565b60008160000361218457506000919050565b60006001612191846127cc565b901c6001901b905060018184816121aa576121aa612ebb565b048201901c905060018184816121c2576121c2612ebb565b048201901c905060018184816121da576121da612ebb565b048201901c905060018184816121f2576121f2612ebb565b048201901c9050600181848161220a5761220a612ebb565b048201901c9050600181848161222257612222612ebb565b048201901c9050600181848161223a5761223a612ebb565b048201901c90506108af8182858161225457612254612ebb565b04612860565b60006122696002848418612ed1565b6108af90848416612d95565b600a5460ff16611fda5760405162461bcd60e51b815260206004820152601460248201527314185d5cd8589b194e881b9bdd081c185d5cd95960621b6044820152606401610803565b6122c88282612876565b61127b600f6114ac83611e28565b600061079260085490565b815460009081036122f45750600061068a565b82546000905b8082101561234157600061230e838361225a565b6000878152602090209091508590820154111561232d5780915061233b565b612338816001612d95565b92505b506122fa565b60008211801561235f57508361235c86611ae3600186612e1d565b54145b156123785761236f600183612e1d565b9250505061068a565b50905061068a565b600a5460ff1615611fda5760405162461bcd60e51b815260206004820152601060248201526f14185d5cd8589b194e881c185d5cd95960821b6044820152606401610803565b6000807f7fffffffffffffffffffffffffffffff5d576e7357a4501ddfe92f46681b20a08311156123fd5750600090506003612481565b6040805160008082526020820180845289905260ff881692820192909252606081018690526080810185905260019060a0016020604051602081039080840390855afa158015612451573d6000803e3d6000fd5b5050604051601f1901519150506001600160a01b03811661247a57600060019250925050612481565b9150600090505b94509492505050565b600081600481111561249e5761249e612ef3565b036124a65750565b60018160048111156124ba576124ba612ef3565b036125075760405162461bcd60e51b815260206004820152601860248201527f45434453413a20696e76616c6964207369676e617475726500000000000000006044820152606401610803565b600281600481111561251b5761251b612ef3565b036125685760405162461bcd60e51b815260206004820152601f60248201527f45434453413a20696e76616c6964207369676e6174757265206c656e677468006044820152606401610803565b600381600481111561257c5761257c612ef3565b036108e85760405162461bcd60e51b815260206004820152602260248201527f45434453413a20696e76616c6964207369676e6174757265202773272076616c604482015261756560f01b6064820152608401610803565b60006125de6122d6565b9050806125ea846129bb565b1015610783578254600180820185556000858152602080822090930193909355938401805494850181558252902090910155565b606061068a6001600160a01b03831660145b6060600061263f836002612f09565b61264a906002612d95565b67ffffffffffffffff81111561266257612662612f20565b6040519080825280601f01601f19166020018201604052801561268c576020820181803683370190505b509050600360fc1b816000815181106126a7576126a7612e30565b60200101906001600160f81b031916908160001a905350600f60fb1b816001815181106126d6576126d6612e30565b60200101906001600160f81b031916908160001a90535060006126fa846002612f09565b612705906001612d95565b90505b600181111561277d576f181899199a1a9b1b9c1cb0b131b232b360811b85600f166010811061273957612739612e30565b1a60f81b82828151811061274f5761274f612e30565b60200101906001600160f81b031916908160001a90535060049490941c9361277681612f36565b9050612708565b5083156108af5760405162461bcd60e51b815260206004820181905260248201527f537472696e67733a20686578206c656e67746820696e73756666696369656e746044820152606401610803565b600080608083901c156127e157608092831c92015b604083901c156127f357604092831c92015b602083901c1561280557602092831c92015b601083901c1561281757601092831c92015b600883901c1561282957600892831c92015b600483901c1561283b57600492831c92015b600283901c1561284d57600292831c92015b600183901c1561068a5760010192915050565b600081831061286f57816108af565b5090919050565b6001600160a01b0382166128d65760405162461bcd60e51b815260206004820152602160248201527f45524332303a206275726e2066726f6d20746865207a65726f206164647265736044820152607360f81b6064820152608401610803565b6128e282600083611f7c565b6001600160a01b038216600090815260208190526040902054818110156129565760405162461bcd60e51b815260206004820152602260248201527f45524332303a206275726e20616d6f756e7420657863656564732062616c616e604482015261636560f01b6064820152608401610803565b6001600160a01b0383166000818152602081815260408083208686039055600280548790039055518581529192917fddf252ad1be2c89b69c2b068fc378daa952ba7f163c4a11628f55a4df523b3ef910160405180910390a361078383600084611f8f565b805460009081036129ce57506000919050565b815482906129de90600190612e1d565b815481106129ee576129ee612e30565b90600052602060002001549050919050565b919050565b600060208284031215612a1757600080fd5b81356001600160e01b0319811681146108af57600080fd5b60005b83811015612a4a578181015183820152602001612a32565b50506000910152565b6020815260008251806020840152612a72816040850160208701612a2f565b601f01601f19169190910160400192915050565b6001600160a01b03811681146108e857600080fd5b60008060408385031215612aae57600080fd5b8235612ab981612a86565b946020939093013593505050565b600080600060608486031215612adc57600080fd5b8335612ae781612a86565b92506020840135612af781612a86565b929592945050506040919091013590565b600060208284031215612b1a57600080fd5b5035919050565b60008060408385031215612b3457600080fd5b823591506020830135612b4681612a86565b809150509250929050565b600060208284031215612b6357600080fd5b81356108af81612a86565b600080600080600060808688031215612b8657600080fd5b8535612b9181612a86565b94506020860135612ba181612a86565b935060408601359250606086013567ffffffffffffffff80821115612bc557600080fd5b818801915088601f830112612bd957600080fd5b813581811115612be857600080fd5b896020828501011115612bfa57600080fd5b9699959850939650602001949392505050565b803560ff81168114612a0057600080fd5b60008060008060008060c08789031215612c3757600080fd5b8635612c4281612a86565b95506020870135945060408701359350612c5e60608801612c0d565b92506080870135915060a087013590509295509295509295565b600080600080600080600060e0888a031215612c9357600080fd5b8735612c9e81612a86565b96506020880135612cae81612a86565b95506040880135945060608801359350612cca60808901612c0d565b925060a0880135915060c0880135905092959891949750929550565b60008060408385031215612cf957600080fd5b8235612d0481612a86565b91506020830135612b4681612a86565b60008060408385031215612d2757600080fd5b8235612d3281612a86565b9150602083013563ffffffff81168114612b4657600080fd5b600181811c90821680612d5f57607f821691505b602082108103611e2257634e487b7160e01b600052602260045260246000fd5b634e487b7160e01b600052601160045260246000fd5b8082018082111561068a5761068a612d7f565b6001600160a01b03878116825286166020820152604081018590526060810184905260a06080820181905281018290526000828460c0840137600060c0848401015260c0601f19601f8501168301019050979650505050505050565b600060208284031215612e1657600080fd5b5051919050565b8181038181111561068a5761068a612d7f565b634e487b7160e01b600052603260045260246000fd5b7f416363657373436f6e74726f6c3a206163636f756e7420000000000000000000815260008351612e7e816017850160208801612a2f565b7001034b99036b4b9b9b4b733903937b6329607d1b6017918401918201528351612eaf816028840160208801612a2f565b01602801949350505050565b634e487b7160e01b600052601260045260246000fd5b600082612eee57634e487b7160e01b600052601260045260246000fd5b500490565b634e487b7160e01b600052602160045260246000fd5b808202811582820484141761068a5761068a612d7f565b634e487b7160e01b600052604160045260246000fd5b600081612f4557612f45612d7f565b50600019019056fea26469706673582212209323ddf6e303a18dd156bec4c452ac3f017fc568d7f72af83926afaa71ebd4d564736f6c63430008120033dec2bacdd2f05b59de34da9b523dff8be42e5e38e818c82fdb0bae774387a724",
			"opcodes": "PUSH2 0x140 PUSH1 0x40 MSTORE CALLVALUE DUP1 ISZERO PUSH3 0x12 JUMPI PUSH1 0x0 DUP1 REVERT JUMPDEST POP PUSH1 0x40 MLOAD DUP1 PUSH1 0x40 ADD PUSH1 0x40 MSTORE DUP1 PUSH1 0x8 DUP2 MSTORE PUSH1 0x20 ADD PUSH8 0x466173745377617 PUSH1 0xC4 SHL DUP2 MSTORE POP DUP1 PUSH1 0x40 MLOAD DUP1 PUSH1 0x40 ADD PUSH1 0x40 MSTORE DUP1 PUSH1 0x1 DUP2 MSTORE PUSH1 0x20 ADD PUSH1 0x31 PUSH1 0xF8 SHL DUP2 MSTORE POP PUSH1 0x40 MLOAD DUP1 PUSH1 0x40 ADD PUSH1 0x40 MSTORE DUP1 PUSH1 0x8 DUP2 MSTORE PUSH1 0x20 ADD PUSH8 0x4472616752616365 PUSH1 0xC0 SHL DUP2 MSTORE POP PUSH1 0x40 MLOAD DUP1 PUSH1 0x40 ADD PUSH1 0x40 MSTORE DUP1 PUSH1 0x4 DUP2 MSTORE PUSH1 0x20 ADD PUSH4 0x44524147 PUSH1 0xE0 SHL DUP2 MSTORE POP DUP2 PUSH1 0x3 SWAP1 DUP2 PUSH3 0x9E SWAP2 SWAP1 PUSH3 0xB21 JUMP JUMPDEST POP PUSH1 0x4 PUSH3 0xAD DUP3 DUP3 PUSH3 0xB21 JUMP JUMPDEST POP POP PUSH1 0xA DUP1 SLOAD PUSH1 0xFF NOT AND SWAP1 SSTORE POP DUP2 MLOAD PUSH1 0x20 SWAP3 DUP4 ADD KECCAK256 DUP2 MLOAD SWAP2 DUP4 ADD SWAP2 SWAP1 SWAP2 KECCAK256 PUSH1 0xE0 DUP3 SWAP1 MSTORE PUSH2 0x100 DUP2 SWAP1 MSTORE CHAINID PUSH1 0xA0 DUP2 DUP2 MSTORE PUSH1 0x40 DUP1 MLOAD PUSH32 0x8B73C3C69BB8FE3D512ECC4CF759CC79239F7B179B0FFACAA9A75D522B39400F DUP2 DUP9 ADD DUP2 SWAP1 MSTORE DUP2 DUP4 ADD SWAP7 SWAP1 SWAP7 MSTORE PUSH1 0x60 DUP2 ADD SWAP5 SWAP1 SWAP5 MSTORE PUSH1 0x80 DUP1 DUP6 ADD SWAP4 SWAP1 SWAP4 MSTORE ADDRESS DUP5 DUP4 ADD DUP2 SWAP1 MSTORE DUP2 MLOAD DUP1 DUP7 SUB SWAP1 SWAP4 ADD DUP4 MSTORE PUSH1 0xC0 SWAP5 DUP6 ADD SWAP1 SWAP2 MSTORE DUP2 MLOAD SWAP2 SWAP1 SWAP6 ADD KECCAK256 SWAP1 MSTORE SWAP2 SWAP1 SWAP2 MSTORE PUSH2 0x120 MSTORE POP PUSH3 0x157 PUSH1 0x0 CALLER PUSH3 0x20B JUMP JUMPDEST PUSH3 0x183 PUSH32 0x5FDBD35E8DA83EE755D5E62A539E5ED7F47126ABEDE0B8B10F9EA43DC6EED07F CALLER PUSH3 0x20B JUMP JUMPDEST PUSH3 0x1AF PUSH32 0x65D7A28E3265B37A6474929F336521B332C1681B933F6CB9F3376673440D862A CALLER PUSH3 0x20B JUMP JUMPDEST PUSH3 0x1D9 CALLER PUSH3 0x1C2 PUSH1 0x12 PUSH1 0xA PUSH3 0xD00 JUMP JUMPDEST PUSH3 0x1D3 SWAP1 PUSH5 0xE8D4A51000 PUSH3 0xD11 JUMP JUMPDEST PUSH3 0x296 JUMP JUMPDEST PUSH3 0x205 PUSH32 0x9F2DF0FED2C77648DE5860A4CC508CD0818C85B8B8A1AB4CEEEF8D981C8956A6 CALLER PUSH3 0x20B JUMP JUMPDEST PUSH3 0xD6D JUMP JUMPDEST PUSH3 0x217 DUP3 DUP3 PUSH3 0x2AD JUMP JUMPDEST PUSH3 0x292 JUMPI PUSH1 0x0 DUP3 DUP2 MSTORE PUSH1 0x9 PUSH1 0x20 SWAP1 DUP2 MSTORE PUSH1 0x40 DUP1 DUP4 KECCAK256 PUSH1 0x1 PUSH1 0x1 PUSH1 0xA0 SHL SUB DUP6 AND DUP5 MSTORE SWAP1 SWAP2 MSTORE SWAP1 KECCAK256 DUP1 SLOAD PUSH1 0xFF NOT AND PUSH1 0x1 OR SWAP1 SSTORE PUSH3 0x251 CALLER SWAP1 JUMP JUMPDEST PUSH1 0x1 PUSH1 0x1 PUSH1 0xA0 SHL SUB AND DUP2 PUSH1 0x1 PUSH1 0x1 PUSH1 0xA0 SHL SUB AND DUP4 PUSH32 0x2F8788117E7EFF1D82E926EC794901D17C78024A50270940304540A733656F0D PUSH1 0x40 MLOAD PUSH1 0x40 MLOAD DUP1 SWAP2 SUB SWAP1 LOG4 JUMPDEST POP POP JUMP JUMPDEST PUSH3 0x292 DUP3 DUP3 PUSH3 0x2DA PUSH1 0x20 SHL PUSH3 0x11F1 OR PUSH1 0x20 SHR JUMP JUMPDEST PUSH1 0x0 DUP3 DUP2 MSTORE PUSH1 0x9 PUSH1 0x20 SWAP1 DUP2 MSTORE PUSH1 0x40 DUP1 DUP4 KECCAK256 PUSH1 0x1 PUSH1 0x1 PUSH1 0xA0 SHL SUB DUP6 AND DUP5 MSTORE SWAP1 SWAP2 MSTORE SWAP1 KECCAK256 SLOAD PUSH1 0xFF AND JUMPDEST SWAP3 SWAP2 POP POP JUMP JUMPDEST PUSH3 0x2F1 DUP3 DUP3 PUSH3 0x391 PUSH1 0x20 SHL PUSH3 0x1281 OR PUSH1 0x20 SHR JUMP JUMPDEST PUSH1 0x1 PUSH1 0x1 PUSH1 0xE0 SHL SUB PUSH3 0x305 PUSH3 0x46C DUP3 AND JUMP JUMPDEST GT ISZERO PUSH3 0x372 JUMPI PUSH1 0x40 MLOAD PUSH3 0x461BCD PUSH1 0xE5 SHL DUP2 MSTORE PUSH1 0x20 PUSH1 0x4 DUP3 ADD MSTORE PUSH1 0x30 PUSH1 0x24 DUP3 ADD MSTORE PUSH32 0x4552433230566F7465733A20746F74616C20737570706C79207269736B73206F PUSH1 0x44 DUP3 ADD MSTORE PUSH16 0x766572666C6F77696E6720766F746573 PUSH1 0x80 SHL PUSH1 0x64 DUP3 ADD MSTORE PUSH1 0x84 ADD JUMPDEST PUSH1 0x40 MLOAD DUP1 SWAP2 SUB SWAP1 REVERT JUMPDEST PUSH3 0x38B PUSH1 0xF PUSH3 0x1354 PUSH3 0x472 PUSH1 0x20 SHL OR DUP4 PUSH3 0x487 JUMP JUMPDEST POP POP POP POP JUMP JUMPDEST PUSH1 0x1 PUSH1 0x1 PUSH1 0xA0 SHL SUB DUP3 AND PUSH3 0x3E9 JUMPI PUSH1 0x40 MLOAD PUSH3 0x461BCD PUSH1 0xE5 SHL DUP2 MSTORE PUSH1 0x20 PUSH1 0x4 DUP3 ADD MSTORE PUSH1 0x1F PUSH1 0x24 DUP3 ADD MSTORE PUSH32 0x45524332303A206D696E7420746F20746865207A65726F206164647265737300 PUSH1 0x44 DUP3 ADD MSTORE PUSH1 0x64 ADD PUSH3 0x369 JUMP JUMPDEST PUSH3 0x3F7 PUSH1 0x0 DUP4 DUP4 PUSH3 0x619 JUMP JUMPDEST DUP1 PUSH1 0x2 PUSH1 0x0 DUP3 DUP3 SLOAD PUSH3 0x40B SWAP2 SWAP1 PUSH3 0xD2B JUMP JUMPDEST SWAP1 SWAP2 SSTORE POP POP PUSH1 0x1 PUSH1 0x1 PUSH1 0xA0 SHL SUB DUP3 AND PUSH1 0x0 DUP2 DUP2 MSTORE PUSH1 0x20 DUP2 DUP2 MSTORE PUSH1 0x40 DUP1 DUP4 KECCAK256 DUP1 SLOAD DUP7 ADD SWAP1 SSTORE MLOAD DUP5 DUP2 MSTORE PUSH32 0xDDF252AD1BE2C89B69C2B068FC378DAA952BA7F163C4A11628F55A4DF523B3EF SWAP2 ADD PUSH1 0x40 MLOAD DUP1 SWAP2 SUB SWAP1 LOG3 PUSH3 0x292 PUSH1 0x0 DUP4 DUP4 PUSH3 0x640 JUMP JUMPDEST PUSH1 0x2 SLOAD SWAP1 JUMP JUMPDEST PUSH1 0x0 PUSH3 0x480 DUP3 DUP5 PUSH3 0xD2B JUMP JUMPDEST SWAP4 SWAP3 POP POP POP JUMP JUMPDEST DUP3 SLOAD PUSH1 0x0 SWAP1 DUP2 SWAP1 DUP2 DUP2 ISZERO PUSH3 0x4E7 JUMPI PUSH3 0x4B6 DUP8 PUSH3 0x4A8 PUSH1 0x1 DUP6 PUSH3 0xD41 JUMP JUMPDEST PUSH1 0x0 SWAP2 DUP3 MSTORE PUSH1 0x20 SWAP1 SWAP2 KECCAK256 ADD SWAP1 JUMP JUMPDEST PUSH1 0x40 DUP1 MLOAD DUP1 DUP3 ADD SWAP1 SWAP2 MSTORE SWAP1 SLOAD PUSH4 0xFFFFFFFF DUP2 AND DUP3 MSTORE PUSH5 0x100000000 SWAP1 DIV PUSH1 0x1 PUSH1 0x1 PUSH1 0xE0 SHL SUB AND PUSH1 0x20 DUP3 ADD MSTORE PUSH3 0x4FC JUMP JUMPDEST PUSH1 0x40 DUP1 MLOAD DUP1 DUP3 ADD SWAP1 SWAP2 MSTORE PUSH1 0x0 DUP1 DUP3 MSTORE PUSH1 0x20 DUP3 ADD MSTORE JUMPDEST SWAP1 POP DUP1 PUSH1 0x20 ADD MLOAD PUSH1 0x1 PUSH1 0x1 PUSH1 0xE0 SHL SUB AND SWAP4 POP PUSH3 0x51A DUP5 DUP7 DUP9 PUSH1 0x20 SHR JUMP JUMPDEST SWAP3 POP PUSH1 0x0 DUP3 GT DUP1 ISZERO PUSH3 0x533 JUMPI POP DUP1 MLOAD PUSH4 0xFFFFFFFF AND NUMBER EQ JUMPDEST ISZERO PUSH3 0x58A JUMPI PUSH3 0x54F DUP4 PUSH3 0x658 PUSH1 0x20 SHL PUSH3 0x1360 OR PUSH1 0x20 SHR JUMP JUMPDEST PUSH3 0x561 DUP9 PUSH3 0x4A8 PUSH1 0x1 DUP7 PUSH3 0xD41 JUMP JUMPDEST DUP1 SLOAD PUSH1 0x1 PUSH1 0x1 PUSH1 0xE0 SHL SUB SWAP3 SWAP1 SWAP3 AND PUSH5 0x100000000 MUL PUSH4 0xFFFFFFFF SWAP1 SWAP3 AND SWAP2 SWAP1 SWAP2 OR SWAP1 SSTORE PUSH3 0x60F JUMP JUMPDEST DUP7 PUSH1 0x40 MLOAD DUP1 PUSH1 0x40 ADD PUSH1 0x40 MSTORE DUP1 PUSH3 0x5AC NUMBER PUSH3 0x6C7 PUSH1 0x20 SHL PUSH3 0x13CD OR PUSH1 0x20 SHR JUMP JUMPDEST PUSH4 0xFFFFFFFF AND DUP2 MSTORE PUSH1 0x20 ADD PUSH3 0x5CD DUP7 PUSH3 0x658 PUSH1 0x20 SHL PUSH3 0x1360 OR PUSH1 0x20 SHR JUMP JUMPDEST PUSH1 0x1 PUSH1 0x1 PUSH1 0xE0 SHL SUB SWAP1 DUP2 AND SWAP1 SWAP2 MSTORE DUP3 SLOAD PUSH1 0x1 DUP2 ADD DUP5 SSTORE PUSH1 0x0 SWAP4 DUP5 MSTORE PUSH1 0x20 SWAP4 DUP5 SWAP1 KECCAK256 DUP4 MLOAD SWAP5 SWAP1 SWAP4 ADD MLOAD SWAP1 SWAP2 AND PUSH5 0x100000000 MUL PUSH4 0xFFFFFFFF SWAP1 SWAP4 AND SWAP3 SWAP1 SWAP3 OR SWAP2 ADD SSTORE JUMPDEST POP POP SWAP4 POP SWAP4 SWAP2 POP POP JUMP JUMPDEST PUSH3 0x623 PUSH3 0x72E JUMP JUMPDEST PUSH3 0x63B DUP4 DUP4 DUP4 PUSH3 0x778 PUSH1 0x20 SHL PUSH3 0x1432 OR PUSH1 0x20 SHR JUMP JUMPDEST POP POP POP JUMP JUMPDEST PUSH3 0x63B DUP4 DUP4 DUP4 PUSH3 0x7E4 PUSH1 0x20 SHL PUSH3 0x147A OR PUSH1 0x20 SHR JUMP JUMPDEST PUSH1 0x0 PUSH1 0x1 PUSH1 0x1 PUSH1 0xE0 SHL SUB DUP3 GT ISZERO PUSH3 0x6C3 JUMPI PUSH1 0x40 MLOAD PUSH3 0x461BCD PUSH1 0xE5 SHL DUP2 MSTORE PUSH1 0x20 PUSH1 0x4 DUP3 ADD MSTORE PUSH1 0x27 PUSH1 0x24 DUP3 ADD MSTORE PUSH32 0x53616665436173743A2076616C756520646F65736E27742066697420696E2032 PUSH1 0x44 DUP3 ADD MSTORE PUSH7 0x32342062697473 PUSH1 0xC8 SHL PUSH1 0x64 DUP3 ADD MSTORE PUSH1 0x84 ADD PUSH3 0x369 JUMP JUMPDEST POP SWAP1 JUMP JUMPDEST PUSH1 0x0 PUSH4 0xFFFFFFFF DUP3 GT ISZERO PUSH3 0x6C3 JUMPI PUSH1 0x40 MLOAD PUSH3 0x461BCD PUSH1 0xE5 SHL DUP2 MSTORE PUSH1 0x20 PUSH1 0x4 DUP3 ADD MSTORE PUSH1 0x26 PUSH1 0x24 DUP3 ADD MSTORE PUSH32 0x53616665436173743A2076616C756520646F65736E27742066697420696E2033 PUSH1 0x44 DUP3 ADD MSTORE PUSH6 0x322062697473 PUSH1 0xD0 SHL PUSH1 0x64 DUP3 ADD MSTORE PUSH1 0x84 ADD PUSH3 0x369 JUMP JUMPDEST PUSH1 0xA SLOAD PUSH1 0xFF AND ISZERO PUSH3 0x776 JUMPI PUSH1 0x40 MLOAD PUSH3 0x461BCD PUSH1 0xE5 SHL DUP2 MSTORE PUSH1 0x20 PUSH1 0x4 DUP3 ADD MSTORE PUSH1 0x10 PUSH1 0x24 DUP3 ADD MSTORE PUSH16 0x14185D5CD8589B194E881C185D5CD959 PUSH1 0x82 SHL PUSH1 0x44 DUP3 ADD MSTORE PUSH1 0x64 ADD PUSH3 0x369 JUMP JUMPDEST JUMP JUMPDEST PUSH3 0x790 DUP4 DUP4 DUP4 PUSH3 0x63B PUSH1 0x20 SHL PUSH3 0x783 OR PUSH1 0x20 SHR JUMP JUMPDEST PUSH1 0x1 PUSH1 0x1 PUSH1 0xA0 SHL SUB DUP4 AND PUSH3 0x7B4 JUMPI PUSH3 0x7AA DUP3 PUSH3 0x830 JUMP JUMPDEST PUSH3 0x63B PUSH3 0x868 JUMP JUMPDEST PUSH1 0x1 PUSH1 0x1 PUSH1 0xA0 SHL SUB DUP3 AND PUSH3 0x7CE JUMPI PUSH3 0x7AA DUP4 PUSH3 0x830 JUMP JUMPDEST PUSH3 0x7D9 DUP4 PUSH3 0x830 JUMP JUMPDEST PUSH3 0x63B DUP3 PUSH3 0x830 JUMP JUMPDEST PUSH3 0x7FC DUP4 DUP4 DUP4 PUSH3 0x63B PUSH1 0x20 SHL PUSH3 0x783 OR PUSH1 0x20 SHR JUMP JUMPDEST PUSH1 0x1 PUSH1 0x1 PUSH1 0xA0 SHL SUB DUP4 DUP2 AND PUSH1 0x0 SWAP1 DUP2 MSTORE PUSH1 0xD PUSH1 0x20 MSTORE PUSH1 0x40 DUP1 DUP3 KECCAK256 SLOAD DUP6 DUP5 AND DUP4 MSTORE SWAP2 KECCAK256 SLOAD PUSH3 0x63B SWAP3 SWAP2 DUP3 AND SWAP2 AND DUP4 PUSH3 0x878 JUMP JUMPDEST PUSH1 0x1 PUSH1 0x1 PUSH1 0xA0 SHL SUB DUP2 AND PUSH1 0x0 SWAP1 DUP2 MSTORE PUSH1 0x5 PUSH1 0x20 SWAP1 DUP2 MSTORE PUSH1 0x40 DUP1 DUP4 KECCAK256 SWAP2 DUP4 SWAP1 MSTORE SWAP1 SWAP2 KECCAK256 SLOAD PUSH3 0x865 SWAP2 SWAP1 PUSH3 0x9B3 JUMP JUMPDEST PUSH3 0x9B3 JUMP JUMPDEST POP JUMP JUMPDEST PUSH3 0x776 PUSH1 0x6 PUSH3 0x85F PUSH1 0x2 SLOAD SWAP1 JUMP JUMPDEST DUP2 PUSH1 0x1 PUSH1 0x1 PUSH1 0xA0 SHL SUB AND DUP4 PUSH1 0x1 PUSH1 0x1 PUSH1 0xA0 SHL SUB AND EQ ISZERO DUP1 ISZERO PUSH3 0x89B JUMPI POP PUSH1 0x0 DUP2 GT JUMPDEST ISZERO PUSH3 0x63B JUMPI PUSH1 0x1 PUSH1 0x1 PUSH1 0xA0 SHL SUB DUP4 AND ISZERO PUSH3 0x928 JUMPI PUSH1 0x1 PUSH1 0x1 PUSH1 0xA0 SHL SUB DUP4 AND PUSH1 0x0 SWAP1 DUP2 MSTORE PUSH1 0xE PUSH1 0x20 SWAP1 DUP2 MSTORE PUSH1 0x40 DUP3 KECCAK256 DUP3 SWAP2 PUSH3 0x8E5 SWAP2 SWAP1 PUSH3 0xA02 SWAP1 SHL PUSH3 0x14AC OR DUP6 PUSH3 0x487 JUMP JUMPDEST SWAP2 POP SWAP2 POP DUP5 PUSH1 0x1 PUSH1 0x1 PUSH1 0xA0 SHL SUB AND PUSH1 0x0 DUP1 MLOAD PUSH1 0x20 PUSH3 0x3D40 DUP4 CODECOPY DUP2 MLOAD SWAP2 MSTORE DUP4 DUP4 PUSH1 0x40 MLOAD PUSH3 0x91D SWAP3 SWAP2 SWAP1 SWAP2 DUP3 MSTORE PUSH1 0x20 DUP3 ADD MSTORE PUSH1 0x40 ADD SWAP1 JUMP JUMPDEST PUSH1 0x40 MLOAD DUP1 SWAP2 SUB SWAP1 LOG2 POP POP JUMPDEST PUSH1 0x1 PUSH1 0x1 PUSH1 0xA0 SHL SUB DUP3 AND ISZERO PUSH3 0x63B JUMPI PUSH1 0x1 PUSH1 0x1 PUSH1 0xA0 SHL SUB DUP3 AND PUSH1 0x0 SWAP1 DUP2 MSTORE PUSH1 0xE PUSH1 0x20 SWAP1 DUP2 MSTORE PUSH1 0x40 DUP3 KECCAK256 DUP3 SWAP2 PUSH3 0x96C SWAP2 SWAP1 PUSH3 0x472 SWAP1 SHL PUSH3 0x1354 OR DUP6 PUSH3 0x487 JUMP JUMPDEST SWAP2 POP SWAP2 POP DUP4 PUSH1 0x1 PUSH1 0x1 PUSH1 0xA0 SHL SUB AND PUSH1 0x0 DUP1 MLOAD PUSH1 0x20 PUSH3 0x3D40 DUP4 CODECOPY DUP2 MLOAD SWAP2 MSTORE DUP4 DUP4 PUSH1 0x40 MLOAD PUSH3 0x9A4 SWAP3 SWAP2 SWAP1 SWAP2 DUP3 MSTORE PUSH1 0x20 DUP3 ADD MSTORE PUSH1 0x40 ADD SWAP1 JUMP JUMPDEST PUSH1 0x40 MLOAD DUP1 SWAP2 SUB SWAP1 LOG2 POP POP POP POP POP JUMP JUMPDEST PUSH1 0x0 PUSH3 0x9BF PUSH3 0xA10 JUMP JUMPDEST SWAP1 POP DUP1 PUSH3 0x9CD DUP5 PUSH3 0xA2E JUMP JUMPDEST LT ISZERO PUSH3 0x63B JUMPI DUP3 SLOAD PUSH1 0x1 DUP1 DUP3 ADD DUP6 SSTORE PUSH1 0x0 DUP6 DUP2 MSTORE PUSH1 0x20 DUP1 DUP3 KECCAK256 SWAP1 SWAP4 ADD SWAP4 SWAP1 SWAP4 SSTORE SWAP4 DUP5 ADD DUP1 SLOAD SWAP5 DUP6 ADD DUP2 SSTORE DUP3 MSTORE SWAP1 KECCAK256 SWAP1 SWAP2 ADD SSTORE JUMP JUMPDEST PUSH1 0x0 PUSH3 0x480 DUP3 DUP5 PUSH3 0xD41 JUMP JUMPDEST PUSH1 0x0 PUSH3 0xA29 PUSH1 0x8 PUSH3 0xA79 PUSH1 0x20 SHL PUSH3 0x14B8 OR PUSH1 0x20 SHR JUMP JUMPDEST SWAP1 POP SWAP1 JUMP JUMPDEST DUP1 SLOAD PUSH1 0x0 SWAP1 DUP2 SUB PUSH3 0xA42 JUMPI POP PUSH1 0x0 SWAP2 SWAP1 POP JUMP JUMPDEST DUP2 SLOAD DUP3 SWAP1 PUSH3 0xA54 SWAP1 PUSH1 0x1 SWAP1 PUSH3 0xD41 JUMP JUMPDEST DUP2 SLOAD DUP2 LT PUSH3 0xA67 JUMPI PUSH3 0xA67 PUSH3 0xD57 JUMP JUMPDEST SWAP1 PUSH1 0x0 MSTORE PUSH1 0x20 PUSH1 0x0 KECCAK256 ADD SLOAD SWAP1 POP SWAP2 SWAP1 POP JUMP JUMPDEST SLOAD SWAP1 JUMP JUMPDEST PUSH4 0x4E487B71 PUSH1 0xE0 SHL PUSH1 0x0 MSTORE PUSH1 0x41 PUSH1 0x4 MSTORE PUSH1 0x24 PUSH1 0x0 REVERT JUMPDEST PUSH1 0x1 DUP2 DUP2 SHR SWAP1 DUP3 AND DUP1 PUSH3 0xAA8 JUMPI PUSH1 0x7F DUP3 AND SWAP2 POP JUMPDEST PUSH1 0x20 DUP3 LT DUP2 SUB PUSH3 0xAC9 JUMPI PUSH4 0x4E487B71 PUSH1 0xE0 SHL PUSH1 0x0 MSTORE PUSH1 0x22 PUSH1 0x4 MSTORE PUSH1 0x24 PUSH1 0x0 REVERT JUMPDEST POP SWAP2 SWAP1 POP JUMP JUMPDEST PUSH1 0x1F DUP3 GT ISZERO PUSH3 0x63B JUMPI PUSH1 0x0 DUP2 DUP2 MSTORE PUSH1 0x20 DUP2 KECCAK256 PUSH1 0x1F DUP6 ADD PUSH1 0x5 SHR DUP2 ADD PUSH1 0x20 DUP7 LT ISZERO PUSH3 0xAF8 JUMPI POP DUP1 JUMPDEST PUSH1 0x1F DUP6 ADD PUSH1 0x5 SHR DUP3 ADD SWAP2 POP JUMPDEST DUP2 DUP2 LT ISZERO PUSH3 0xB19 JUMPI DUP3 DUP2 SSTORE PUSH1 0x1 ADD PUSH3 0xB04 JUMP JUMPDEST POP POP POP POP POP POP JUMP JUMPDEST DUP2 MLOAD PUSH1 0x1 PUSH1 0x1 PUSH1 0x40 SHL SUB DUP2 GT ISZERO PUSH3 0xB3D JUMPI PUSH3 0xB3D PUSH3 0xA7D JUMP JUMPDEST PUSH3 0xB55 DUP2 PUSH3 0xB4E DUP5 SLOAD PUSH3 0xA93 JUMP JUMPDEST DUP5 PUSH3 0xACF JUMP JUMPDEST PUSH1 0x20 DUP1 PUSH1 0x1F DUP4 GT PUSH1 0x1 DUP2 EQ PUSH3 0xB8D JUMPI PUSH1 0x0 DUP5 ISZERO PUSH3 0xB74 JUMPI POP DUP6 DUP4 ADD MLOAD JUMPDEST PUSH1 0x0 NOT PUSH1 0x3 DUP7 SWAP1 SHL SHR NOT AND PUSH1 0x1 DUP6 SWAP1 SHL OR DUP6 SSTORE PUSH3 0xB19 JUMP JUMPDEST PUSH1 0x0 DUP6 DUP2 MSTORE PUSH1 0x20 DUP2 KECCAK256 PUSH1 0x1F NOT DUP7 AND SWAP2 JUMPDEST DUP3 DUP2 LT ISZERO PUSH3 0xBBE JUMPI DUP9 DUP7 ADD MLOAD DUP3 SSTORE SWAP5 DUP5 ADD SWAP5 PUSH1 0x1 SWAP1 SWAP2 ADD SWAP1 DUP5 ADD PUSH3 0xB9D JUMP JUMPDEST POP DUP6 DUP3 LT ISZERO PUSH3 0xBDD JUMPI DUP8 DUP6 ADD MLOAD PUSH1 0x0 NOT PUSH1 0x3 DUP9 SWAP1 SHL PUSH1 0xF8 AND SHR NOT AND DUP2 SSTORE JUMPDEST POP POP POP POP POP PUSH1 0x1 SWAP1 DUP2 SHL ADD SWAP1 SSTORE POP JUMP JUMPDEST PUSH4 0x4E487B71 PUSH1 0xE0 SHL PUSH1 0x0 MSTORE PUSH1 0x11 PUSH1 0x4 MSTORE PUSH1 0x24 PUSH1 0x0 REVERT JUMPDEST PUSH1 0x1 DUP2 DUP2 JUMPDEST DUP1 DUP6 GT ISZERO PUSH3 0xC44 JUMPI DUP2 PUSH1 0x0 NOT DIV DUP3 GT ISZERO PUSH3 0xC28 JUMPI PUSH3 0xC28 PUSH3 0xBED JUMP JUMPDEST DUP1 DUP6 AND ISZERO PUSH3 0xC36 JUMPI SWAP2 DUP2 MUL SWAP2 JUMPDEST SWAP4 DUP5 SHR SWAP4 SWAP1 DUP1 MUL SWAP1 PUSH3 0xC08 JUMP JUMPDEST POP SWAP3 POP SWAP3 SWAP1 POP JUMP JUMPDEST PUSH1 0x0 DUP3 PUSH3 0xC5D JUMPI POP PUSH1 0x1 PUSH3 0x2D4 JUMP JUMPDEST DUP2 PUSH3 0xC6C JUMPI POP PUSH1 0x0 PUSH3 0x2D4 JUMP JUMPDEST DUP2 PUSH1 0x1 DUP2 EQ PUSH3 0xC85 JUMPI PUSH1 0x2 DUP2 EQ PUSH3 0xC90 JUMPI PUSH3 0xCB0 JUMP JUMPDEST PUSH1 0x1 SWAP2 POP POP PUSH3 0x2D4 JUMP JUMPDEST PUSH1 0xFF DUP5 GT ISZERO PUSH3 0xCA4 JUMPI PUSH3 0xCA4 PUSH3 0xBED JUMP JUMPDEST POP POP PUSH1 0x1 DUP3 SHL PUSH3 0x2D4 JUMP JUMPDEST POP PUSH1 0x20 DUP4 LT PUSH2 0x133 DUP4 LT AND PUSH1 0x4E DUP5 LT PUSH1 0xB DUP5 LT AND OR ISZERO PUSH3 0xCD5 JUMPI POP DUP2 DUP2 EXP PUSH3 0x2D4 JUMP JUMPDEST PUSH3 0xCE1 DUP4 DUP4 PUSH3 0xC03 JUMP JUMPDEST DUP1 PUSH1 0x0 NOT DIV DUP3 GT ISZERO PUSH3 0xCF8 JUMPI PUSH3 0xCF8 PUSH3 0xBED JUMP JUMPDEST MUL SWAP4 SWAP3 POP POP POP JUMP JUMPDEST PUSH1 0x0 PUSH3 0x480 PUSH1 0xFF DUP5 AND DUP4 PUSH3 0xC4C JUMP JUMPDEST DUP1 DUP3 MUL DUP2 ISZERO DUP3 DUP3 DIV DUP5 EQ OR PUSH3 0x2D4 JUMPI PUSH3 0x2D4 PUSH3 0xBED JUMP JUMPDEST DUP1 DUP3 ADD DUP1 DUP3 GT ISZERO PUSH3 0x2D4 JUMPI PUSH3 0x2D4 PUSH3 0xBED JUMP JUMPDEST DUP2 DUP2 SUB DUP2 DUP2 GT ISZERO PUSH3 0x2D4 JUMPI PUSH3 0x2D4 PUSH3 0xBED JUMP JUMPDEST PUSH4 0x4E487B71 PUSH1 0xE0 SHL PUSH1 0x0 MSTORE PUSH1 0x32 PUSH1 0x4 MSTORE PUSH1 0x24 PUSH1 0x0 REVERT JUMPDEST PUSH1 0x80 MLOAD PUSH1 0xA0 MLOAD PUSH1 0xC0 MLOAD PUSH1 0xE0 MLOAD PUSH2 0x100 MLOAD PUSH2 0x120 MLOAD PUSH2 0x2F83 PUSH3 0xDBD PUSH1 0x0 CODECOPY PUSH1 0x0 PUSH2 0x1923 ADD MSTORE PUSH1 0x0 PUSH2 0x1972 ADD MSTORE PUSH1 0x0 PUSH2 0x194D ADD MSTORE PUSH1 0x0 PUSH2 0x18A6 ADD MSTORE PUSH1 0x0 PUSH2 0x18D0 ADD MSTORE PUSH1 0x0 PUSH2 0x18FA ADD MSTORE PUSH2 0x2F83 PUSH1 0x0 RETURN INVALID PUSH1 0x80 PUSH1 0x40 MSTORE CALLVALUE DUP1 ISZERO PUSH2 0x10 JUMPI PUSH1 0x0 DUP1 REVERT JUMPDEST POP PUSH1 0x4 CALLDATASIZE LT PUSH2 0x274 JUMPI PUSH1 0x0 CALLDATALOAD PUSH1 0xE0 SHR DUP1 PUSH4 0x7028E2CD GT PUSH2 0x151 JUMPI DUP1 PUSH4 0xA217FDDF GT PUSH2 0xC3 JUMPI DUP1 PUSH4 0xD5391393 GT PUSH2 0x87 JUMPI DUP1 PUSH4 0xD5391393 EQ PUSH2 0x595 JUMPI DUP1 PUSH4 0xD547741F EQ PUSH2 0x5BC JUMPI DUP1 PUSH4 0xD9D98CE4 EQ PUSH2 0x5CF JUMPI DUP1 PUSH4 0xDD62ED3E EQ PUSH2 0x5E2 JUMPI DUP1 PUSH4 0xE63AB1E9 EQ PUSH2 0x5F5 JUMPI DUP1 PUSH4 0xF1127ED8 EQ PUSH2 0x61C JUMPI PUSH1 0x0 DUP1 REVERT JUMPDEST DUP1 PUSH4 0xA217FDDF EQ PUSH2 0x541 JUMPI DUP1 PUSH4 0xA457C2D7 EQ PUSH2 0x549 JUMPI DUP1 PUSH4 0xA9059CBB EQ PUSH2 0x55C JUMPI DUP1 PUSH4 0xC3CDA520 EQ PUSH2 0x56F JUMPI DUP1 PUSH4 0xD505ACCF EQ PUSH2 0x582 JUMPI PUSH1 0x0 DUP1 REVERT JUMPDEST DUP1 PUSH4 0x8E539E8C GT PUSH2 0x115 JUMPI DUP1 PUSH4 0x8E539E8C EQ PUSH2 0x4E5 JUMPI DUP1 PUSH4 0x91D14854 EQ PUSH2 0x4F8 JUMPI DUP1 PUSH4 0x95D89B41 EQ PUSH2 0x50B JUMPI DUP1 PUSH4 0x9711715A EQ PUSH2 0x513 JUMPI DUP1 PUSH4 0x981B24D0 EQ PUSH2 0x51B JUMPI DUP1 PUSH4 0x9AB24EB0 EQ PUSH2 0x52E JUMPI PUSH1 0x0 DUP1 REVERT JUMPDEST DUP1 PUSH4 0x7028E2CD EQ PUSH2 0x467 JUMPI DUP1 PUSH4 0x70A08231 EQ PUSH2 0x48E JUMPI DUP1 PUSH4 0x79CC6790 EQ PUSH2 0x4B7 JUMPI DUP1 PUSH4 0x7ECEBE00 EQ PUSH2 0x4CA JUMPI DUP1 PUSH4 0x8456CB59 EQ PUSH2 0x4DD JUMPI PUSH1 0x0 DUP1 REVERT JUMPDEST DUP1 PUSH4 0x3A46B1A8 GT PUSH2 0x1EA JUMPI DUP1 PUSH4 0x587CDE1E GT PUSH2 0x1AE JUMPI DUP1 PUSH4 0x587CDE1E EQ PUSH2 0x3B7 JUMPI DUP1 PUSH4 0x5C19A95C EQ PUSH2 0x3FB JUMPI DUP1 PUSH4 0x5C975ABB EQ PUSH2 0x40E JUMPI DUP1 PUSH4 0x5CFFE9DE EQ PUSH2 0x419 JUMPI DUP1 PUSH4 0x613255AB EQ PUSH2 0x42C JUMPI DUP1 PUSH4 0x6FCFFF45 EQ PUSH2 0x43F JUMPI PUSH1 0x0 DUP1 REVERT JUMPDEST DUP1 PUSH4 0x3A46B1A8 EQ PUSH2 0x363 JUMPI DUP1 PUSH4 0x3F4BA83A EQ PUSH2 0x376 JUMPI DUP1 PUSH4 0x40C10F19 EQ PUSH2 0x37E JUMPI DUP1 PUSH4 0x42966C68 EQ PUSH2 0x391 JUMPI DUP1 PUSH4 0x4EE2CD7E EQ PUSH2 0x3A4 JUMPI PUSH1 0x0 DUP1 REVERT JUMPDEST DUP1 PUSH4 0x248A9CA3 GT PUSH2 0x23C JUMPI DUP1 PUSH4 0x248A9CA3 EQ PUSH2 0x2EE JUMPI DUP1 PUSH4 0x2F2FF15D EQ PUSH2 0x311 JUMPI DUP1 PUSH4 0x313CE567 EQ PUSH2 0x326 JUMPI DUP1 PUSH4 0x3644E515 EQ PUSH2 0x335 JUMPI DUP1 PUSH4 0x36568ABE EQ PUSH2 0x33D JUMPI DUP1 PUSH4 0x39509351 EQ PUSH2 0x350 JUMPI PUSH1 0x0 DUP1 REVERT JUMPDEST DUP1 PUSH4 0x1FFC9A7 EQ PUSH2 0x279 JUMPI DUP1 PUSH4 0x6FDDE03 EQ PUSH2 0x2A1 JUMPI DUP1 PUSH4 0x95EA7B3 EQ PUSH2 0x2B6 JUMPI DUP1 PUSH4 0x18160DDD EQ PUSH2 0x2C9 JUMPI DUP1 PUSH4 0x23B872DD EQ PUSH2 0x2DB JUMPI JUMPDEST PUSH1 0x0 DUP1 REVERT JUMPDEST PUSH2 0x28C PUSH2 0x287 CALLDATASIZE PUSH1 0x4 PUSH2 0x2A05 JUMP JUMPDEST PUSH2 0x659 JUMP JUMPDEST PUSH1 0x40 MLOAD SWAP1 ISZERO ISZERO DUP2 MSTORE PUSH1 0x20 ADD JUMPDEST PUSH1 0x40 MLOAD DUP1 SWAP2 SUB SWAP1 RETURN JUMPDEST PUSH2 0x2A9 PUSH2 0x690 JUMP JUMPDEST PUSH1 0x40 MLOAD PUSH2 0x298 SWAP2 SWAP1 PUSH2 0x2A53 JUMP JUMPDEST PUSH2 0x28C PUSH2 0x2C4 CALLDATASIZE PUSH1 0x4 PUSH2 0x2A9B JUMP JUMPDEST PUSH2 0x722 JUMP JUMPDEST PUSH1 0x2 SLOAD JUMPDEST PUSH1 0x40 MLOAD SWAP1 DUP2 MSTORE PUSH1 0x20 ADD PUSH2 0x298 JUMP JUMPDEST PUSH2 0x28C PUSH2 0x2E9 CALLDATASIZE PUSH1 0x4 PUSH2 0x2AC7 JUMP JUMPDEST PUSH2 0x73A JUMP JUMPDEST PUSH2 0x2CD PUSH2 0x2FC CALLDATASIZE PUSH1 0x4 PUSH2 0x2B08 JUMP JUMPDEST PUSH1 0x0 SWAP1 DUP2 MSTORE PUSH1 0x9 PUSH1 0x20 MSTORE PUSH1 0x40 SWAP1 KECCAK256 PUSH1 0x1 ADD SLOAD SWAP1 JUMP JUMPDEST PUSH2 0x324 PUSH2 0x31F CALLDATASIZE PUSH1 0x4 PUSH2 0x2B21 JUMP JUMPDEST PUSH2 0x75E JUMP JUMPDEST STOP JUMPDEST PUSH1 0x40 MLOAD PUSH1 0x12 DUP2 MSTORE PUSH1 0x20 ADD PUSH2 0x298 JUMP JUMPDEST PUSH2 0x2CD PUSH2 0x788 JUMP JUMPDEST PUSH2 0x324 PUSH2 0x34B CALLDATASIZE PUSH1 0x4 PUSH2 0x2B21 JUMP JUMPDEST PUSH2 0x797 JUMP JUMPDEST PUSH2 0x28C PUSH2 0x35E CALLDATASIZE PUSH1 0x4 PUSH2 0x2A9B JUMP JUMPDEST PUSH2 0x81A JUMP JUMPDEST PUSH2 0x2CD PUSH2 0x371 CALLDATASIZE PUSH1 0x4 PUSH2 0x2A9B JUMP JUMPDEST PUSH2 0x83C JUMP JUMPDEST PUSH2 0x324 PUSH2 0x8B6 JUMP JUMPDEST PUSH2 0x324 PUSH2 0x38C CALLDATASIZE PUSH1 0x4 PUSH2 0x2A9B JUMP JUMPDEST PUSH2 0x8EB JUMP JUMPDEST PUSH2 0x324 PUSH2 0x39F CALLDATASIZE PUSH1 0x4 PUSH2 0x2B08 JUMP JUMPDEST PUSH2 0x91F JUMP JUMPDEST PUSH2 0x2CD PUSH2 0x3B2 CALLDATASIZE PUSH1 0x4 PUSH2 0x2A9B JUMP JUMPDEST PUSH2 0x929 JUMP JUMPDEST PUSH2 0x3E3 PUSH2 0x3C5 CALLDATASIZE PUSH1 0x4 PUSH2 0x2B51 JUMP JUMPDEST PUSH1 0x1 PUSH1 0x1 PUSH1 0xA0 SHL SUB SWAP1 DUP2 AND PUSH1 0x0 SWAP1 DUP2 MSTORE PUSH1 0xD PUSH1 0x20 MSTORE PUSH1 0x40 SWAP1 KECCAK256 SLOAD AND SWAP1 JUMP JUMPDEST PUSH1 0x40 MLOAD PUSH1 0x1 PUSH1 0x1 PUSH1 0xA0 SHL SUB SWAP1 SWAP2 AND DUP2 MSTORE PUSH1 0x20 ADD PUSH2 0x298 JUMP JUMPDEST PUSH2 0x324 PUSH2 0x409 CALLDATASIZE PUSH1 0x4 PUSH2 0x2B51 JUMP JUMPDEST PUSH2 0x982 JUMP JUMPDEST PUSH1 0xA SLOAD PUSH1 0xFF AND PUSH2 0x28C JUMP JUMPDEST PUSH2 0x28C PUSH2 0x427 CALLDATASIZE PUSH1 0x4 PUSH2 0x2B6E JUMP JUMPDEST PUSH2 0x98C JUMP JUMPDEST PUSH2 0x2CD PUSH2 0x43A CALLDATASIZE PUSH1 0x4 PUSH2 0x2B51 JUMP JUMPDEST PUSH2 0xB70 JUMP JUMPDEST PUSH2 0x452 PUSH2 0x44D CALLDATASIZE PUSH1 0x4 PUSH2 0x2B51 JUMP JUMPDEST PUSH2 0xB98 JUMP JUMPDEST PUSH1 0x40 MLOAD PUSH4 0xFFFFFFFF SWAP1 SWAP2 AND DUP2 MSTORE PUSH1 0x20 ADD PUSH2 0x298 JUMP JUMPDEST PUSH2 0x2CD PUSH32 0x5FDBD35E8DA83EE755D5E62A539E5ED7F47126ABEDE0B8B10F9EA43DC6EED07F DUP2 JUMP JUMPDEST PUSH2 0x2CD PUSH2 0x49C CALLDATASIZE PUSH1 0x4 PUSH2 0x2B51 JUMP JUMPDEST PUSH1 0x1 PUSH1 0x1 PUSH1 0xA0 SHL SUB AND PUSH1 0x0 SWAP1 DUP2 MSTORE PUSH1 0x20 DUP2 SWAP1 MSTORE PUSH1 0x40 SWAP1 KECCAK256 SLOAD SWAP1 JUMP JUMPDEST PUSH2 0x324 PUSH2 0x4C5 CALLDATASIZE PUSH1 0x4 PUSH2 0x2A9B JUMP JUMPDEST PUSH2 0xBBA JUMP JUMPDEST PUSH2 0x2CD PUSH2 0x4D8 CALLDATASIZE PUSH1 0x4 PUSH2 0x2B51 JUMP JUMPDEST PUSH2 0xBCF JUMP JUMPDEST PUSH2 0x324 PUSH2 0xBED JUMP JUMPDEST PUSH2 0x2CD PUSH2 0x4F3 CALLDATASIZE PUSH1 0x4 PUSH2 0x2B08 JUMP JUMPDEST PUSH2 0xC1F JUMP JUMPDEST PUSH2 0x28C PUSH2 0x506 CALLDATASIZE PUSH1 0x4 PUSH2 0x2B21 JUMP JUMPDEST PUSH2 0xC7B JUMP JUMPDEST PUSH2 0x2A9 PUSH2 0xCA6 JUMP JUMPDEST PUSH2 0x324 PUSH2 0xCB5 JUMP JUMPDEST PUSH2 0x2CD PUSH2 0x529 CALLDATASIZE PUSH1 0x4 PUSH2 0x2B08 JUMP JUMPDEST PUSH2 0xCE7 JUMP JUMPDEST PUSH2 0x2CD PUSH2 0x53C CALLDATASIZE PUSH1 0x4 PUSH2 0x2B51 JUMP JUMPDEST PUSH2 0xD12 JUMP JUMPDEST PUSH2 0x2CD PUSH1 0x0 DUP2 JUMP JUMPDEST PUSH2 0x28C PUSH2 0x557 CALLDATASIZE PUSH1 0x4 PUSH2 0x2A9B JUMP JUMPDEST PUSH2 0xD99 JUMP JUMPDEST PUSH2 0x28C PUSH2 0x56A CALLDATASIZE PUSH1 0x4 PUSH2 0x2A9B JUMP JUMPDEST PUSH2 0xE14 JUMP JUMPDEST PUSH2 0x324 PUSH2 0x57D CALLDATASIZE PUSH1 0x4 PUSH2 0x2C1E JUMP JUMPDEST PUSH2 0xE22 JUMP JUMPDEST PUSH2 0x324 PUSH2 0x590 CALLDATASIZE PUSH1 0x4 PUSH2 0x2C78 JUMP JUMPDEST PUSH2 0xF58 JUMP JUMPDEST PUSH2 0x2CD PUSH32 0x9F2DF0FED2C77648DE5860A4CC508CD0818C85B8B8A1AB4CEEEF8D981C8956A6 DUP2 JUMP JUMPDEST PUSH2 0x324 PUSH2 0x5CA CALLDATASIZE PUSH1 0x4 PUSH2 0x2B21 JUMP JUMPDEST PUSH2 0x10BC JUMP JUMPDEST PUSH2 0x2CD PUSH2 0x5DD CALLDATASIZE PUSH1 0x4 PUSH2 0x2A9B JUMP JUMPDEST PUSH2 0x10E1 JUMP JUMPDEST PUSH2 0x2CD PUSH2 0x5F0 CALLDATASIZE PUSH1 0x4 PUSH2 0x2CE6 JUMP JUMPDEST PUSH2 0x1142 JUMP JUMPDEST PUSH2 0x2CD PUSH32 0x65D7A28E3265B37A6474929F336521B332C1681B933F6CB9F3376673440D862A DUP2 JUMP JUMPDEST PUSH2 0x62F PUSH2 0x62A CALLDATASIZE PUSH1 0x4 PUSH2 0x2D14 JUMP JUMPDEST PUSH2 0x116D JUMP JUMPDEST PUSH1 0x40 DUP1 MLOAD DUP3 MLOAD PUSH4 0xFFFFFFFF AND DUP2 MSTORE PUSH1 0x20 SWAP3 DUP4 ADD MLOAD PUSH1 0x1 PUSH1 0x1 PUSH1 0xE0 SHL SUB AND SWAP3 DUP2 ADD SWAP3 SWAP1 SWAP3 MSTORE ADD PUSH2 0x298 JUMP JUMPDEST PUSH1 0x0 PUSH1 0x1 PUSH1 0x1 PUSH1 0xE0 SHL SUB NOT DUP3 AND PUSH4 0x7965DB0B PUSH1 0xE0 SHL EQ DUP1 PUSH2 0x68A JUMPI POP PUSH4 0x1FFC9A7 PUSH1 0xE0 SHL PUSH1 0x1 PUSH1 0x1 PUSH1 0xE0 SHL SUB NOT DUP4 AND EQ JUMPDEST SWAP3 SWAP2 POP POP JUMP JUMPDEST PUSH1 0x60 PUSH1 0x3 DUP1 SLOAD PUSH2 0x69F SWAP1 PUSH2 0x2D4B JUMP JUMPDEST DUP1 PUSH1 0x1F ADD PUSH1 0x20 DUP1 SWAP2 DIV MUL PUSH1 0x20 ADD PUSH1 0x40 MLOAD SWAP1 DUP2 ADD PUSH1 0x40 MSTORE DUP1 SWAP3 SWAP2 SWAP1 DUP2 DUP2 MSTORE PUSH1 0x20 ADD DUP3 DUP1 SLOAD PUSH2 0x6CB SWAP1 PUSH2 0x2D4B JUMP JUMPDEST DUP1 ISZERO PUSH2 0x718 JUMPI DUP1 PUSH1 0x1F LT PUSH2 0x6ED JUMPI PUSH2 0x100 DUP1 DUP4 SLOAD DIV MUL DUP4 MSTORE SWAP2 PUSH1 0x20 ADD SWAP2 PUSH2 0x718 JUMP JUMPDEST DUP3 ADD SWAP2 SWAP1 PUSH1 0x0 MSTORE PUSH1 0x20 PUSH1 0x0 KECCAK256 SWAP1 JUMPDEST DUP2 SLOAD DUP2 MSTORE SWAP1 PUSH1 0x1 ADD SWAP1 PUSH1 0x20 ADD DUP1 DUP4 GT PUSH2 0x6FB JUMPI DUP3 SWAP1 SUB PUSH1 0x1F AND DUP3 ADD SWAP2 JUMPDEST POP POP POP POP POP SWAP1 POP SWAP1 JUMP JUMPDEST PUSH1 0x0 CALLER PUSH2 0x730 DUP2 DUP6 DUP6 PUSH2 0x14BC JUMP JUMPDEST POP PUSH1 0x1 SWAP4 SWAP3 POP POP POP JUMP JUMPDEST PUSH1 0x0 CALLER PUSH2 0x748 DUP6 DUP3 DUP6 PUSH2 0x15E0 JUMP JUMPDEST PUSH2 0x753 DUP6 DUP6 DUP6 PUSH2 0x1654 JUMP JUMPDEST POP PUSH1 0x1 SWAP5 SWAP4 POP POP POP POP JUMP JUMPDEST PUSH1 0x0 DUP3 DUP2 MSTORE PUSH1 0x9 PUSH1 0x20 MSTORE PUSH1 0x40 SWAP1 KECCAK256 PUSH1 0x1 ADD SLOAD PUSH2 0x779 DUP2 PUSH2 0x1809 JUMP JUMPDEST PUSH2 0x783 DUP4 DUP4 PUSH2 0x1813 JUMP JUMPDEST POP POP POP JUMP JUMPDEST PUSH1 0x0 PUSH2 0x792 PUSH2 0x1899 JUMP JUMPDEST SWAP1 POP SWAP1 JUMP JUMPDEST PUSH1 0x1 PUSH1 0x1 PUSH1 0xA0 SHL SUB DUP2 AND CALLER EQ PUSH2 0x80C JUMPI PUSH1 0x40 MLOAD PUSH3 0x461BCD PUSH1 0xE5 SHL DUP2 MSTORE PUSH1 0x20 PUSH1 0x4 DUP3 ADD MSTORE PUSH1 0x2F PUSH1 0x24 DUP3 ADD MSTORE PUSH32 0x416363657373436F6E74726F6C3A2063616E206F6E6C792072656E6F756E6365 PUSH1 0x44 DUP3 ADD MSTORE PUSH15 0x103937B632B9903337B91039B2B633 PUSH1 0x89 SHL PUSH1 0x64 DUP3 ADD MSTORE PUSH1 0x84 ADD JUMPDEST PUSH1 0x40 MLOAD DUP1 SWAP2 SUB SWAP1 REVERT JUMPDEST PUSH2 0x816 DUP3 DUP3 PUSH2 0x19C0 JUMP JUMPDEST POP POP JUMP JUMPDEST PUSH1 0x0 CALLER PUSH2 0x730 DUP2 DUP6 DUP6 PUSH2 0x82D DUP4 DUP4 PUSH2 0x1142 JUMP JUMPDEST PUSH2 0x837 SWAP2 SWAP1 PUSH2 0x2D95 JUMP JUMPDEST PUSH2 0x14BC JUMP JUMPDEST PUSH1 0x0 NUMBER DUP3 LT PUSH2 0x88D JUMPI PUSH1 0x40 MLOAD PUSH3 0x461BCD PUSH1 0xE5 SHL DUP2 MSTORE PUSH1 0x20 PUSH1 0x4 DUP3 ADD MSTORE PUSH1 0x1F PUSH1 0x24 DUP3 ADD MSTORE PUSH32 0x4552433230566F7465733A20626C6F636B206E6F7420796574206D696E656400 PUSH1 0x44 DUP3 ADD MSTORE PUSH1 0x64 ADD PUSH2 0x803 JUMP JUMPDEST PUSH1 0x1 PUSH1 0x1 PUSH1 0xA0 SHL SUB DUP4 AND PUSH1 0x0 SWAP1 DUP2 MSTORE PUSH1 0xE PUSH1 0x20 MSTORE PUSH1 0x40 SWAP1 KECCAK256 PUSH2 0x8AF SWAP1 DUP4 PUSH2 0x1A27 JUMP JUMPDEST SWAP4 SWAP3 POP POP POP JUMP JUMPDEST PUSH32 0x65D7A28E3265B37A6474929F336521B332C1681B933F6CB9F3376673440D862A PUSH2 0x8E0 DUP2 PUSH2 0x1809 JUMP JUMPDEST PUSH2 0x8E8 PUSH2 0x1B1E JUMP JUMPDEST POP JUMP JUMPDEST PUSH32 0x9F2DF0FED2C77648DE5860A4CC508CD0818C85B8B8A1AB4CEEEF8D981C8956A6 PUSH2 0x915 DUP2 PUSH2 0x1809 JUMP JUMPDEST PUSH2 0x783 DUP4 DUP4 PUSH2 0x1B70 JUMP JUMPDEST PUSH2 0x8E8 CALLER DUP3 PUSH2 0x1B7A JUMP JUMPDEST PUSH1 0x1 PUSH1 0x1 PUSH1 0xA0 SHL SUB DUP3 AND PUSH1 0x0 SWAP1 DUP2 MSTORE PUSH1 0x5 PUSH1 0x20 MSTORE PUSH1 0x40 DUP2 KECCAK256 DUP2 SWAP1 DUP2 SWAP1 PUSH2 0x950 SWAP1 DUP6 SWAP1 PUSH2 0x1B84 JUMP JUMPDEST SWAP2 POP SWAP2 POP DUP2 PUSH2 0x977 JUMPI PUSH1 0x1 PUSH1 0x1 PUSH1 0xA0 SHL SUB DUP6 AND PUSH1 0x0 SWAP1 DUP2 MSTORE PUSH1 0x20 DUP2 SWAP1 MSTORE PUSH1 0x40 SWAP1 KECCAK256 SLOAD PUSH2 0x979 JUMP JUMPDEST DUP1 JUMPDEST SWAP6 SWAP5 POP POP POP POP POP JUMP JUMPDEST PUSH2 0x8E8 CALLER DUP3 PUSH2 0x1C7A JUMP JUMPDEST PUSH1 0x0 PUSH2 0x997 DUP6 PUSH2 0xB70 JUMP JUMPDEST DUP5 GT ISZERO PUSH2 0x9FA JUMPI PUSH1 0x40 MLOAD PUSH3 0x461BCD PUSH1 0xE5 SHL DUP2 MSTORE PUSH1 0x20 PUSH1 0x4 DUP3 ADD MSTORE PUSH1 0x2B PUSH1 0x24 DUP3 ADD MSTORE PUSH32 0x4552433230466C6173684D696E743A20616D6F756E742065786365656473206D PUSH1 0x44 DUP3 ADD MSTORE PUSH11 0x30BC233630B9B42637B0B7 PUSH1 0xA9 SHL PUSH1 0x64 DUP3 ADD MSTORE PUSH1 0x84 ADD PUSH2 0x803 JUMP JUMPDEST PUSH1 0x0 PUSH2 0xA06 DUP7 DUP7 PUSH2 0x10E1 JUMP JUMPDEST SWAP1 POP PUSH2 0xA12 DUP8 DUP7 PUSH2 0x1B70 JUMP JUMPDEST PUSH1 0x40 MLOAD PUSH4 0x23E30C8B PUSH1 0xE0 SHL DUP2 MSTORE PUSH32 0x439148F0BBC682CA079E46D6E2C2F0C1E3B820F1A291B069D8882ABF8CF18DD9 SWAP1 PUSH1 0x1 PUSH1 0x1 PUSH1 0xA0 SHL SUB DUP10 AND SWAP1 PUSH4 0x23E30C8B SWAP1 PUSH2 0xA6A SWAP1 CALLER SWAP1 DUP12 SWAP1 DUP12 SWAP1 DUP9 SWAP1 DUP13 SWAP1 DUP13 SWAP1 PUSH1 0x4 ADD PUSH2 0x2DA8 JUMP JUMPDEST PUSH1 0x20 PUSH1 0x40 MLOAD DUP1 DUP4 SUB DUP2 PUSH1 0x0 DUP8 GAS CALL ISZERO DUP1 ISZERO PUSH2 0xA89 JUMPI RETURNDATASIZE PUSH1 0x0 DUP1 RETURNDATACOPY RETURNDATASIZE PUSH1 0x0 REVERT JUMPDEST POP POP POP POP PUSH1 0x40 MLOAD RETURNDATASIZE PUSH1 0x1F NOT PUSH1 0x1F DUP3 ADD AND DUP3 ADD DUP1 PUSH1 0x40 MSTORE POP DUP2 ADD SWAP1 PUSH2 0xAAD SWAP2 SWAP1 PUSH2 0x2E04 JUMP JUMPDEST EQ PUSH2 0xB06 JUMPI PUSH1 0x40 MLOAD PUSH3 0x461BCD PUSH1 0xE5 SHL DUP2 MSTORE PUSH1 0x20 PUSH1 0x4 DUP3 ADD MSTORE PUSH1 0x24 DUP1 DUP3 ADD MSTORE PUSH32 0x4552433230466C6173684D696E743A20696E76616C69642072657475726E2076 PUSH1 0x44 DUP3 ADD MSTORE PUSH4 0x616C7565 PUSH1 0xE0 SHL PUSH1 0x64 DUP3 ADD MSTORE PUSH1 0x84 ADD PUSH2 0x803 JUMP JUMPDEST PUSH1 0x0 PUSH2 0xB1C DUP9 ADDRESS PUSH2 0xB17 DUP6 DUP11 PUSH2 0x2D95 JUMP JUMPDEST PUSH2 0x15E0 JUMP JUMPDEST DUP2 ISZERO DUP1 PUSH2 0xB30 JUMPI POP PUSH1 0x1 PUSH1 0x1 PUSH1 0xA0 SHL SUB DUP2 AND ISZERO JUMPDEST ISZERO PUSH2 0xB4D JUMPI PUSH2 0xB48 DUP9 PUSH2 0xB43 DUP5 DUP10 PUSH2 0x2D95 JUMP JUMPDEST PUSH2 0x1B7A JUMP JUMPDEST PUSH2 0xB62 JUMP JUMPDEST PUSH2 0xB57 DUP9 DUP8 PUSH2 0x1B7A JUMP JUMPDEST PUSH2 0xB62 DUP9 DUP3 DUP5 PUSH2 0x1654 JUMP JUMPDEST POP PUSH1 0x1 SWAP8 SWAP7 POP POP POP POP POP POP POP JUMP JUMPDEST PUSH1 0x0 PUSH1 0x1 PUSH1 0x1 PUSH1 0xA0 SHL SUB DUP3 AND ADDRESS EQ PUSH2 0xB89 JUMPI PUSH1 0x0 PUSH2 0x68A JUMP JUMPDEST PUSH1 0x2 SLOAD PUSH2 0x68A SWAP1 PUSH1 0x0 NOT PUSH2 0x2E1D JUMP JUMPDEST PUSH1 0x1 PUSH1 0x1 PUSH1 0xA0 SHL SUB DUP2 AND PUSH1 0x0 SWAP1 DUP2 MSTORE PUSH1 0xE PUSH1 0x20 MSTORE PUSH1 0x40 DUP2 KECCAK256 SLOAD PUSH2 0x68A SWAP1 PUSH2 0x13CD JUMP JUMPDEST PUSH2 0xBC5 DUP3 CALLER DUP4 PUSH2 0x15E0 JUMP JUMPDEST PUSH2 0x816 DUP3 DUP3 PUSH2 0x1B7A JUMP JUMPDEST PUSH1 0x1 PUSH1 0x1 PUSH1 0xA0 SHL SUB DUP2 AND PUSH1 0x0 SWAP1 DUP2 MSTORE PUSH1 0xB PUSH1 0x20 MSTORE PUSH1 0x40 DUP2 KECCAK256 SLOAD PUSH2 0x68A JUMP JUMPDEST PUSH32 0x65D7A28E3265B37A6474929F336521B332C1681B933F6CB9F3376673440D862A PUSH2 0xC17 DUP2 PUSH2 0x1809 JUMP JUMPDEST PUSH2 0x8E8 PUSH2 0x1CF3 JUMP JUMPDEST PUSH1 0x0 NUMBER DUP3 LT PUSH2 0xC70 JUMPI PUSH1 0x40 MLOAD PUSH3 0x461BCD PUSH1 0xE5 SHL DUP2 MSTORE PUSH1 0x20 PUSH1 0x4 DUP3 ADD MSTORE PUSH1 0x1F PUSH1 0x24 DUP3 ADD MSTORE PUSH32 0x4552433230566F7465733A20626C6F636B206E6F7420796574206D696E656400 PUSH1 0x44 DUP3 ADD MSTORE PUSH1 0x64 ADD PUSH2 0x803 JUMP JUMPDEST PUSH2 0x68A PUSH1 0xF DUP4 PUSH2 0x1A27 JUMP JUMPDEST PUSH1 0x0 SWAP2 DUP3 MSTORE PUSH1 0x9 PUSH1 0x20 SWAP1 DUP2 MSTORE PUSH1 0x40 DUP1 DUP5 KECCAK256 PUSH1 0x1 PUSH1 0x1 PUSH1 0xA0 SHL SUB SWAP4 SWAP1 SWAP4 AND DUP5 MSTORE SWAP2 SWAP1 MSTORE SWAP1 KECCAK256 SLOAD PUSH1 0xFF AND SWAP1 JUMP JUMPDEST PUSH1 0x60 PUSH1 0x4 DUP1 SLOAD PUSH2 0x69F SWAP1 PUSH2 0x2D4B JUMP JUMPDEST PUSH32 0x5FDBD35E8DA83EE755D5E62A539E5ED7F47126ABEDE0B8B10F9EA43DC6EED07F PUSH2 0xCDF DUP2 PUSH2 0x1809 JUMP JUMPDEST PUSH2 0x816 PUSH2 0x1D30 JUMP JUMPDEST PUSH1 0x0 DUP1 PUSH1 0x0 PUSH2 0xCF7 DUP5 PUSH1 0x6 PUSH2 0x1B84 JUMP JUMPDEST SWAP2 POP SWAP2 POP DUP2 PUSH2 0xD08 JUMPI PUSH1 0x2 SLOAD PUSH2 0xD0A JUMP JUMPDEST DUP1 JUMPDEST SWAP5 SWAP4 POP POP POP POP JUMP JUMPDEST PUSH1 0x1 PUSH1 0x1 PUSH1 0xA0 SHL SUB DUP2 AND PUSH1 0x0 SWAP1 DUP2 MSTORE PUSH1 0xE PUSH1 0x20 MSTORE PUSH1 0x40 DUP2 KECCAK256 SLOAD DUP1 ISZERO PUSH2 0xD86 JUMPI PUSH1 0x1 PUSH1 0x1 PUSH1 0xA0 SHL SUB DUP4 AND PUSH1 0x0 SWAP1 DUP2 MSTORE PUSH1 0xE PUSH1 0x20 MSTORE PUSH1 0x40 SWAP1 KECCAK256 PUSH2 0xD54 PUSH1 0x1 DUP4 PUSH2 0x2E1D JUMP JUMPDEST DUP2 SLOAD DUP2 LT PUSH2 0xD64 JUMPI PUSH2 0xD64 PUSH2 0x2E30 JUMP JUMPDEST PUSH1 0x0 SWAP2 DUP3 MSTORE PUSH1 0x20 SWAP1 SWAP2 KECCAK256 ADD SLOAD PUSH5 0x100000000 SWAP1 DIV PUSH1 0x1 PUSH1 0x1 PUSH1 0xE0 SHL SUB AND PUSH2 0xD89 JUMP JUMPDEST PUSH1 0x0 JUMPDEST PUSH1 0x1 PUSH1 0x1 PUSH1 0xE0 SHL SUB AND SWAP4 SWAP3 POP POP POP JUMP JUMPDEST PUSH1 0x0 CALLER DUP2 PUSH2 0xDA7 DUP3 DUP7 PUSH2 0x1142 JUMP JUMPDEST SWAP1 POP DUP4 DUP2 LT ISZERO PUSH2 0xE07 JUMPI PUSH1 0x40 MLOAD PUSH3 0x461BCD PUSH1 0xE5 SHL DUP2 MSTORE PUSH1 0x20 PUSH1 0x4 DUP3 ADD MSTORE PUSH1 0x25 PUSH1 0x24 DUP3 ADD MSTORE PUSH32 0x45524332303A2064656372656173656420616C6C6F77616E63652062656C6F77 PUSH1 0x44 DUP3 ADD MSTORE PUSH5 0x207A65726F PUSH1 0xD8 SHL PUSH1 0x64 DUP3 ADD MSTORE PUSH1 0x84 ADD PUSH2 0x803 JUMP JUMPDEST PUSH2 0x753 DUP3 DUP7 DUP7 DUP5 SUB PUSH2 0x14BC JUMP JUMPDEST PUSH1 0x0 CALLER PUSH2 0x730 DUP2 DUP6 DUP6 PUSH2 0x1654 JUMP JUMPDEST DUP4 TIMESTAMP GT ISZERO PUSH2 0xE72 JUMPI PUSH1 0x40 MLOAD PUSH3 0x461BCD PUSH1 0xE5 SHL DUP2 MSTORE PUSH1 0x20 PUSH1 0x4 DUP3 ADD MSTORE PUSH1 0x1D PUSH1 0x24 DUP3 ADD MSTORE PUSH32 0x4552433230566F7465733A207369676E61747572652065787069726564000000 PUSH1 0x44 DUP3 ADD MSTORE PUSH1 0x64 ADD PUSH2 0x803 JUMP JUMPDEST PUSH1 0x40 DUP1 MLOAD PUSH32 0xE48329057BFD03D55E49B547132E39CFFD9C1820AD7B9D4C5307691425D15ADF PUSH1 0x20 DUP3 ADD MSTORE PUSH1 0x1 PUSH1 0x1 PUSH1 0xA0 SHL SUB DUP9 AND SWAP2 DUP2 ADD SWAP2 SWAP1 SWAP2 MSTORE PUSH1 0x60 DUP2 ADD DUP7 SWAP1 MSTORE PUSH1 0x80 DUP2 ADD DUP6 SWAP1 MSTORE PUSH1 0x0 SWAP1 PUSH2 0xEEC SWAP1 PUSH2 0xEE4 SWAP1 PUSH1 0xA0 ADD PUSH1 0x40 MLOAD PUSH1 0x20 DUP2 DUP4 SUB SUB DUP2 MSTORE SWAP1 PUSH1 0x40 MSTORE DUP1 MLOAD SWAP1 PUSH1 0x20 ADD KECCAK256 PUSH2 0x1D8A JUMP JUMPDEST DUP6 DUP6 DUP6 PUSH2 0x1DD8 JUMP JUMPDEST SWAP1 POP PUSH2 0xEF7 DUP2 PUSH2 0x1E00 JUMP JUMPDEST DUP7 EQ PUSH2 0xF45 JUMPI PUSH1 0x40 MLOAD PUSH3 0x461BCD PUSH1 0xE5 SHL DUP2 MSTORE PUSH1 0x20 PUSH1 0x4 DUP3 ADD MSTORE PUSH1 0x19 PUSH1 0x24 DUP3 ADD MSTORE PUSH32 0x4552433230566F7465733A20696E76616C6964206E6F6E636500000000000000 PUSH1 0x44 DUP3 ADD MSTORE PUSH1 0x64 ADD PUSH2 0x803 JUMP JUMPDEST PUSH2 0xF4F DUP2 DUP9 PUSH2 0x1C7A JUMP JUMPDEST POP POP POP POP POP POP POP JUMP JUMPDEST DUP4 TIMESTAMP GT ISZERO PUSH2 0xFA8 JUMPI PUSH1 0x40 MLOAD PUSH3 0x461BCD PUSH1 0xE5 SHL DUP2 MSTORE PUSH1 0x20 PUSH1 0x4 DUP3 ADD MSTORE PUSH1 0x1D PUSH1 0x24 DUP3 ADD MSTORE PUSH32 0x45524332305065726D69743A206578706972656420646561646C696E65000000 PUSH1 0x44 DUP3 ADD MSTORE PUSH1 0x64 ADD PUSH2 0x803 JUMP JUMPDEST PUSH1 0x0 PUSH32 0x6E71EDAE12B1B97F4D1F60370FEF10105FA2FAAE0126114A169C64845D6126C9 DUP9 DUP9 DUP9 PUSH2 0xFD7 DUP13 PUSH2 0x1E00 JUMP JUMPDEST PUSH1 0x40 DUP1 MLOAD PUSH1 0x20 DUP2 ADD SWAP7 SWAP1 SWAP7 MSTORE PUSH1 0x1 PUSH1 0x1 PUSH1 0xA0 SHL SUB SWAP5 DUP6 AND SWAP1 DUP7 ADD MSTORE SWAP3 SWAP1 SWAP2 AND PUSH1 0x60 DUP5 ADD MSTORE PUSH1 0x80 DUP4 ADD MSTORE PUSH1 0xA0 DUP3 ADD MSTORE PUSH1 0xC0 DUP2 ADD DUP7 SWAP1 MSTORE PUSH1 0xE0 ADD PUSH1 0x40 MLOAD PUSH1 0x20 DUP2 DUP4 SUB SUB DUP2 MSTORE SWAP1 PUSH1 0x40 MSTORE DUP1 MLOAD SWAP1 PUSH1 0x20 ADD KECCAK256 SWAP1 POP PUSH1 0x0 PUSH2 0x1032 DUP3 PUSH2 0x1D8A JUMP JUMPDEST SWAP1 POP PUSH1 0x0 PUSH2 0x1042 DUP3 DUP8 DUP8 DUP8 PUSH2 0x1DD8 JUMP JUMPDEST SWAP1 POP DUP10 PUSH1 0x1 PUSH1 0x1 PUSH1 0xA0 SHL SUB AND DUP2 PUSH1 0x1 PUSH1 0x1 PUSH1 0xA0 SHL SUB AND EQ PUSH2 0x10A5 JUMPI PUSH1 0x40 MLOAD PUSH3 0x461BCD PUSH1 0xE5 SHL DUP2 MSTORE PUSH1 0x20 PUSH1 0x4 DUP3 ADD MSTORE PUSH1 0x1E PUSH1 0x24 DUP3 ADD MSTORE PUSH32 0x45524332305065726D69743A20696E76616C6964207369676E61747572650000 PUSH1 0x44 DUP3 ADD MSTORE PUSH1 0x64 ADD PUSH2 0x803 JUMP JUMPDEST PUSH2 0x10B0 DUP11 DUP11 DUP11 PUSH2 0x14BC JUMP JUMPDEST POP POP POP POP POP POP POP POP POP POP JUMP JUMPDEST PUSH1 0x0 DUP3 DUP2 MSTORE PUSH1 0x9 PUSH1 0x20 MSTORE PUSH1 0x40 SWAP1 KECCAK256 PUSH1 0x1 ADD SLOAD PUSH2 0x10D7 DUP2 PUSH2 0x1809 JUMP JUMPDEST PUSH2 0x783 DUP4 DUP4 PUSH2 0x19C0 JUMP JUMPDEST PUSH1 0x0 PUSH1 0x1 PUSH1 0x1 PUSH1 0xA0 SHL SUB DUP4 AND ADDRESS EQ PUSH2 0x113B JUMPI PUSH1 0x40 MLOAD PUSH3 0x461BCD PUSH1 0xE5 SHL DUP2 MSTORE PUSH1 0x20 PUSH1 0x4 DUP3 ADD MSTORE PUSH1 0x1B PUSH1 0x24 DUP3 ADD MSTORE PUSH32 0x4552433230466C6173684D696E743A2077726F6E6720746F6B656E0000000000 PUSH1 0x44 DUP3 ADD MSTORE PUSH1 0x64 ADD PUSH2 0x803 JUMP JUMPDEST PUSH1 0x0 PUSH2 0x8AF JUMP JUMPDEST PUSH1 0x1 PUSH1 0x1 PUSH1 0xA0 SHL SUB SWAP2 DUP3 AND PUSH1 0x0 SWAP1 DUP2 MSTORE PUSH1 0x1 PUSH1 0x20 SWAP1 DUP2 MSTORE PUSH1 0x40 DUP1 DUP4 KECCAK256 SWAP4 SWAP1 SWAP5 AND DUP3 MSTORE SWAP2 SWAP1 SWAP2 MSTORE KECCAK256 SLOAD SWAP1 JUMP JUMPDEST PUSH1 0x40 DUP1 MLOAD DUP1 DUP3 ADD SWAP1 SWAP2 MSTORE PUSH1 0x0 DUP1 DUP3 MSTORE PUSH1 0x20 DUP3 ADD MSTORE PUSH1 0x1 PUSH1 0x1 PUSH1 0xA0 SHL SUB DUP4 AND PUSH1 0x0 SWAP1 DUP2 MSTORE PUSH1 0xE PUSH1 0x20 MSTORE PUSH1 0x40 SWAP1 KECCAK256 DUP1 SLOAD PUSH4 0xFFFFFFFF DUP5 AND SWAP1 DUP2 LT PUSH2 0x11B1 JUMPI PUSH2 0x11B1 PUSH2 0x2E30 JUMP JUMPDEST PUSH1 0x0 SWAP2 DUP3 MSTORE PUSH1 0x20 SWAP2 DUP3 SWAP1 KECCAK256 PUSH1 0x40 DUP1 MLOAD DUP1 DUP3 ADD SWAP1 SWAP2 MSTORE SWAP2 ADD SLOAD PUSH4 0xFFFFFFFF DUP2 AND DUP3 MSTORE PUSH5 0x100000000 SWAP1 DIV PUSH1 0x1 PUSH1 0x1 PUSH1 0xE0 SHL SUB AND SWAP2 DUP2 ADD SWAP2 SWAP1 SWAP2 MSTORE SWAP4 SWAP3 POP POP POP JUMP JUMPDEST PUSH2 0x11FB DUP3 DUP3 PUSH2 0x1281 JUMP JUMPDEST PUSH1 0x2 SLOAD PUSH1 0x1 PUSH1 0x1 PUSH1 0xE0 SHL SUB LT ISZERO PUSH2 0x126D JUMPI PUSH1 0x40 MLOAD PUSH3 0x461BCD PUSH1 0xE5 SHL DUP2 MSTORE PUSH1 0x20 PUSH1 0x4 DUP3 ADD MSTORE PUSH1 0x30 PUSH1 0x24 DUP3 ADD MSTORE PUSH32 0x4552433230566F7465733A20746F74616C20737570706C79207269736B73206F PUSH1 0x44 DUP3 ADD MSTORE PUSH16 0x766572666C6F77696E6720766F746573 PUSH1 0x80 SHL PUSH1 0x64 DUP3 ADD MSTORE PUSH1 0x84 ADD PUSH2 0x803 JUMP JUMPDEST PUSH2 0x127B PUSH1 0xF PUSH2 0x1354 DUP4 PUSH2 0x1E28 JUMP JUMPDEST POP POP POP POP JUMP JUMPDEST PUSH1 0x1 PUSH1 0x1 PUSH1 0xA0 SHL SUB DUP3 AND PUSH2 0x12D7 JUMPI PUSH1 0x40 MLOAD PUSH3 0x461BCD PUSH1 0xE5 SHL DUP2 MSTORE PUSH1 0x20 PUSH1 0x4 DUP3 ADD MSTORE PUSH1 0x1F PUSH1 0x24 DUP3 ADD MSTORE PUSH32 0x45524332303A206D696E7420746F20746865207A65726F206164647265737300 PUSH1 0x44 DUP3 ADD MSTORE PUSH1 0x64 ADD PUSH2 0x803 JUMP JUMPDEST PUSH2 0x12E3 PUSH1 0x0 DUP4 DUP4 PUSH2 0x1F7C JUMP JUMPDEST DUP1 PUSH1 0x2 PUSH1 0x0 DUP3 DUP3 SLOAD PUSH2 0x12F5 SWAP2 SWAP1 PUSH2 0x2D95 JUMP JUMPDEST SWAP1 SWAP2 SSTORE POP POP PUSH1 0x1 PUSH1 0x1 PUSH1 0xA0 SHL SUB DUP3 AND PUSH1 0x0 DUP2 DUP2 MSTORE PUSH1 0x20 DUP2 DUP2 MSTORE PUSH1 0x40 DUP1 DUP4 KECCAK256 DUP1 SLOAD DUP7 ADD SWAP1 SSTORE MLOAD DUP5 DUP2 MSTORE PUSH32 0xDDF252AD1BE2C89B69C2B068FC378DAA952BA7F163C4A11628F55A4DF523B3EF SWAP2 ADD PUSH1 0x40 MLOAD DUP1 SWAP2 SUB SWAP1 LOG3 PUSH2 0x816 PUSH1 0x0 DUP4 DUP4 PUSH2 0x1F8F JUMP JUMPDEST PUSH1 0x0 PUSH2 0x8AF DUP3 DUP5 PUSH2 0x2D95 JUMP JUMPDEST PUSH1 0x0 PUSH1 0x1 PUSH1 0x1 PUSH1 0xE0 SHL SUB DUP3 GT ISZERO PUSH2 0x13C9 JUMPI PUSH1 0x40 MLOAD PUSH3 0x461BCD PUSH1 0xE5 SHL DUP2 MSTORE PUSH1 0x20 PUSH1 0x4 DUP3 ADD MSTORE PUSH1 0x27 PUSH1 0x24 DUP3 ADD MSTORE PUSH32 0x53616665436173743A2076616C756520646F65736E27742066697420696E2032 PUSH1 0x44 DUP3 ADD MSTORE PUSH7 0x32342062697473 PUSH1 0xC8 SHL PUSH1 0x64 DUP3 ADD MSTORE PUSH1 0x84 ADD PUSH2 0x803 JUMP JUMPDEST POP SWAP1 JUMP JUMPDEST PUSH1 0x0 PUSH4 0xFFFFFFFF DUP3 GT ISZERO PUSH2 0x13C9 JUMPI PUSH1 0x40 MLOAD PUSH3 0x461BCD PUSH1 0xE5 SHL DUP2 MSTORE PUSH1 0x20 PUSH1 0x4 DUP3 ADD MSTORE PUSH1 0x26 PUSH1 0x24 DUP3 ADD MSTORE PUSH32 0x53616665436173743A2076616C756520646F65736E27742066697420696E2033 PUSH1 0x44 DUP3 ADD MSTORE PUSH6 0x322062697473 PUSH1 0xD0 SHL PUSH1 0x64 DUP3 ADD MSTORE PUSH1 0x84 ADD PUSH2 0x803 JUMP JUMPDEST PUSH1 0x1 PUSH1 0x1 PUSH1 0xA0 SHL SUB DUP4 AND PUSH2 0x1451 JUMPI PUSH2 0x1449 DUP3 PUSH2 0x1F9A JUMP JUMPDEST PUSH2 0x783 PUSH2 0x1FCC JUMP JUMPDEST PUSH1 0x1 PUSH1 0x1 PUSH1 0xA0 SHL SUB DUP3 AND PUSH2 0x1468 JUMPI PUSH2 0x1449 DUP4 PUSH2 0x1F9A JUMP JUMPDEST PUSH2 0x1471 DUP4 PUSH2 0x1F9A JUMP JUMPDEST PUSH2 0x783 DUP3 PUSH2 0x1F9A JUMP JUMPDEST PUSH1 0x1 PUSH1 0x1 PUSH1 0xA0 SHL SUB DUP4 DUP2 AND PUSH1 0x0 SWAP1 DUP2 MSTORE PUSH1 0xD PUSH1 0x20 MSTORE PUSH1 0x40 DUP1 DUP3 KECCAK256 SLOAD DUP6 DUP5 AND DUP4 MSTORE SWAP2 KECCAK256 SLOAD PUSH2 0x783 SWAP3 SWAP2 DUP3 AND SWAP2 AND DUP4 PUSH2 0x1FDC JUMP JUMPDEST PUSH1 0x0 PUSH2 0x8AF DUP3 DUP5 PUSH2 0x2E1D JUMP JUMPDEST SLOAD SWAP1 JUMP JUMPDEST PUSH1 0x1 PUSH1 0x1 PUSH1 0xA0 SHL SUB DUP4 AND PUSH2 0x151E JUMPI PUSH1 0x40 MLOAD PUSH3 0x461BCD PUSH1 0xE5 SHL DUP2 MSTORE PUSH1 0x20 PUSH1 0x4 DUP3 ADD MSTORE PUSH1 0x24 DUP1 DUP3 ADD MSTORE PUSH32 0x45524332303A20617070726F76652066726F6D20746865207A65726F20616464 PUSH1 0x44 DUP3 ADD MSTORE PUSH4 0x72657373 PUSH1 0xE0 SHL PUSH1 0x64 DUP3 ADD MSTORE PUSH1 0x84 ADD PUSH2 0x803 JUMP JUMPDEST PUSH1 0x1 PUSH1 0x1 PUSH1 0xA0 SHL SUB DUP3 AND PUSH2 0x157F JUMPI PUSH1 0x40 MLOAD PUSH3 0x461BCD PUSH1 0xE5 SHL DUP2 MSTORE PUSH1 0x20 PUSH1 0x4 DUP3 ADD MSTORE PUSH1 0x22 PUSH1 0x24 DUP3 ADD MSTORE PUSH32 0x45524332303A20617070726F766520746F20746865207A65726F206164647265 PUSH1 0x44 DUP3 ADD MSTORE PUSH2 0x7373 PUSH1 0xF0 SHL PUSH1 0x64 DUP3 ADD MSTORE PUSH1 0x84 ADD PUSH2 0x803 JUMP JUMPDEST PUSH1 0x1 PUSH1 0x1 PUSH1 0xA0 SHL SUB DUP4 DUP2 AND PUSH1 0x0 DUP2 DUP2 MSTORE PUSH1 0x1 PUSH1 0x20 SWAP1 DUP2 MSTORE PUSH1 0x40 DUP1 DUP4 KECCAK256 SWAP5 DUP8 AND DUP1 DUP5 MSTORE SWAP5 DUP3 MSTORE SWAP2 DUP3 SWAP1 KECCAK256 DUP6 SWAP1 SSTORE SWAP1 MLOAD DUP5 DUP2 MSTORE PUSH32 0x8C5BE1E5EBEC7D5BD14F71427D1E84F3DD0314C0F7B2291E5B200AC8C7C3B925 SWAP2 ADD PUSH1 0x40 MLOAD DUP1 SWAP2 SUB SWAP1 LOG3 POP POP POP JUMP JUMPDEST PUSH1 0x0 PUSH2 0x15EC DUP5 DUP5 PUSH2 0x1142 JUMP JUMPDEST SWAP1 POP PUSH1 0x0 NOT DUP2 EQ PUSH2 0x127B JUMPI DUP2 DUP2 LT ISZERO PUSH2 0x1647 JUMPI PUSH1 0x40 MLOAD PUSH3 0x461BCD PUSH1 0xE5 SHL DUP2 MSTORE PUSH1 0x20 PUSH1 0x4 DUP3 ADD MSTORE PUSH1 0x1D PUSH1 0x24 DUP3 ADD MSTORE PUSH32 0x45524332303A20696E73756666696369656E7420616C6C6F77616E6365000000 PUSH1 0x44 DUP3 ADD MSTORE PUSH1 0x64 ADD PUSH2 0x803 JUMP JUMPDEST PUSH2 0x127B DUP5 DUP5 DUP5 DUP5 SUB PUSH2 0x14BC JUMP JUMPDEST PUSH1 0x1 PUSH1 0x1 PUSH1 0xA0 SHL SUB DUP4 AND PUSH2 0x16B8 JUMPI PUSH1 0x40 MLOAD PUSH3 0x461BCD PUSH1 0xE5 SHL DUP2 MSTORE PUSH1 0x20 PUSH1 0x4 DUP3 ADD MSTORE PUSH1 0x25 PUSH1 0x24 DUP3 ADD MSTORE PUSH32 0x45524332303A207472616E736665722066726F6D20746865207A65726F206164 PUSH1 0x44 DUP3 ADD MSTORE PUSH5 0x6472657373 PUSH1 0xD8 SHL PUSH1 0x64 DUP3 ADD MSTORE PUSH1 0x84 ADD PUSH2 0x803 JUMP JUMPDEST PUSH1 0x1 PUSH1 0x1 PUSH1 0xA0 SHL SUB DUP3 AND PUSH2 0x171A JUMPI PUSH1 0x40 MLOAD PUSH3 0x461BCD PUSH1 0xE5 SHL DUP2 MSTORE PUSH1 0x20 PUSH1 0x4 DUP3 ADD MSTORE PUSH1 0x23 PUSH1 0x24 DUP3 ADD MSTORE PUSH32 0x45524332303A207472616E7366657220746F20746865207A65726F2061646472 PUSH1 0x44 DUP3 ADD MSTORE PUSH3 0x657373 PUSH1 0xE8 SHL PUSH1 0x64 DUP3 ADD MSTORE PUSH1 0x84 ADD PUSH2 0x803 JUMP JUMPDEST PUSH2 0x1725 DUP4 DUP4 DUP4 PUSH2 0x1F7C JUMP JUMPDEST PUSH1 0x1 PUSH1 0x1 PUSH1 0xA0 SHL SUB DUP4 AND PUSH1 0x0 SWAP1 DUP2 MSTORE PUSH1 0x20 DUP2 SWAP1 MSTORE PUSH1 0x40 SWAP1 KECCAK256 SLOAD DUP2 DUP2 LT ISZERO PUSH2 0x179D JUMPI PUSH1 0x40 MLOAD PUSH3 0x461BCD PUSH1 0xE5 SHL DUP2 MSTORE PUSH1 0x20 PUSH1 0x4 DUP3 ADD MSTORE PUSH1 0x26 PUSH1 0x24 DUP3 ADD MSTORE PUSH32 0x45524332303A207472616E7366657220616D6F756E7420657863656564732062 PUSH1 0x44 DUP3 ADD MSTORE PUSH6 0x616C616E6365 PUSH1 0xD0 SHL PUSH1 0x64 DUP3 ADD MSTORE PUSH1 0x84 ADD PUSH2 0x803 JUMP JUMPDEST PUSH1 0x1 PUSH1 0x1 PUSH1 0xA0 SHL SUB DUP5 DUP2 AND PUSH1 0x0 DUP2 DUP2 MSTORE PUSH1 0x20 DUP2 DUP2 MSTORE PUSH1 0x40 DUP1 DUP4 KECCAK256 DUP8 DUP8 SUB SWAP1 SSTORE SWAP4 DUP8 AND DUP1 DUP4 MSTORE SWAP2 DUP5 SWAP1 KECCAK256 DUP1 SLOAD DUP8 ADD SWAP1 SSTORE SWAP3 MLOAD DUP6 DUP2 MSTORE SWAP1 SWAP3 PUSH32 0xDDF252AD1BE2C89B69C2B068FC378DAA952BA7F163C4A11628F55A4DF523B3EF SWAP2 ADD PUSH1 0x40 MLOAD DUP1 SWAP2 SUB SWAP1 LOG3 PUSH2 0x127B DUP5 DUP5 DUP5 PUSH2 0x1F8F JUMP JUMPDEST PUSH2 0x8E8 DUP2 CALLER PUSH2 0x2119 JUMP JUMPDEST PUSH2 0x181D DUP3 DUP3 PUSH2 0xC7B JUMP JUMPDEST PUSH2 0x816 JUMPI PUSH1 0x0 DUP3 DUP2 MSTORE PUSH1 0x9 PUSH1 0x20 SWAP1 DUP2 MSTORE PUSH1 0x40 DUP1 DUP4 KECCAK256 PUSH1 0x1 PUSH1 0x1 PUSH1 0xA0 SHL SUB DUP6 AND DUP5 MSTORE SWAP1 SWAP2 MSTORE SWAP1 KECCAK256 DUP1 SLOAD PUSH1 0xFF NOT AND PUSH1 0x1 OR SWAP1 SSTORE PUSH2 0x1855 CALLER SWAP1 JUMP JUMPDEST PUSH1 0x1 PUSH1 0x1 PUSH1 0xA0 SHL SUB AND DUP2 PUSH1 0x1 PUSH1 0x1 PUSH1 0xA0 SHL SUB AND DUP4 PUSH32 0x2F8788117E7EFF1D82E926EC794901D17C78024A50270940304540A733656F0D PUSH1 0x40 MLOAD PUSH1 0x40 MLOAD DUP1 SWAP2 SUB SWAP1 LOG4 POP POP JUMP JUMPDEST PUSH1 0x0 ADDRESS PUSH1 0x1 PUSH1 0x1 PUSH1 0xA0 SHL SUB PUSH32 0x0 AND EQ DUP1 ISZERO PUSH2 0x18F2 JUMPI POP PUSH32 0x0 CHAINID EQ JUMPDEST ISZERO PUSH2 0x191C JUMPI POP PUSH32 0x0 SWAP1 JUMP JUMPDEST POP PUSH1 0x40 DUP1 MLOAD PUSH32 0x0 PUSH1 0x20 DUP1 DUP4 ADD SWAP2 SWAP1 SWAP2 MSTORE PUSH32 0x0 DUP3 DUP5 ADD MSTORE PUSH32 0x0 PUSH1 0x60 DUP4 ADD MSTORE CHAINID PUSH1 0x80 DUP4 ADD MSTORE ADDRESS PUSH1 0xA0 DUP1 DUP5 ADD SWAP2 SWAP1 SWAP2 MSTORE DUP4 MLOAD DUP1 DUP5 SUB SWAP1 SWAP2 ADD DUP2 MSTORE PUSH1 0xC0 SWAP1 SWAP3 ADD SWAP1 SWAP3 MSTORE DUP1 MLOAD SWAP2 ADD KECCAK256 SWAP1 JUMP JUMPDEST PUSH2 0x19CA DUP3 DUP3 PUSH2 0xC7B JUMP JUMPDEST ISZERO PUSH2 0x816 JUMPI PUSH1 0x0 DUP3 DUP2 MSTORE PUSH1 0x9 PUSH1 0x20 SWAP1 DUP2 MSTORE PUSH1 0x40 DUP1 DUP4 KECCAK256 PUSH1 0x1 PUSH1 0x1 PUSH1 0xA0 SHL SUB DUP6 AND DUP1 DUP6 MSTORE SWAP3 MSTORE DUP1 DUP4 KECCAK256 DUP1 SLOAD PUSH1 0xFF NOT AND SWAP1 SSTORE MLOAD CALLER SWAP3 DUP6 SWAP2 PUSH32 0xF6391F5C32D9C69D2A47EA670B442974B53935D1EDC7FD64EB21E047A839171B SWAP2 SWAP1 LOG4 POP POP JUMP JUMPDEST DUP2 SLOAD PUSH1 0x0 SWAP1 DUP2 DUP2 PUSH1 0x5 DUP2 GT ISZERO PUSH2 0x1A81 JUMPI PUSH1 0x0 PUSH2 0x1A42 DUP5 PUSH2 0x2172 JUMP JUMPDEST PUSH2 0x1A4C SWAP1 DUP6 PUSH2 0x2E1D JUMP JUMPDEST PUSH1 0x0 DUP9 DUP2 MSTORE PUSH1 0x20 SWAP1 KECCAK256 SWAP1 SWAP2 POP DUP7 SWAP1 DUP3 ADD SLOAD PUSH4 0xFFFFFFFF AND GT ISZERO PUSH2 0x1A71 JUMPI DUP1 SWAP2 POP PUSH2 0x1A7F JUMP JUMPDEST PUSH2 0x1A7C DUP2 PUSH1 0x1 PUSH2 0x2D95 JUMP JUMPDEST SWAP3 POP JUMPDEST POP JUMPDEST DUP1 DUP3 LT ISZERO PUSH2 0x1ACE JUMPI PUSH1 0x0 PUSH2 0x1A95 DUP4 DUP4 PUSH2 0x225A JUMP JUMPDEST PUSH1 0x0 DUP9 DUP2 MSTORE PUSH1 0x20 SWAP1 KECCAK256 SWAP1 SWAP2 POP DUP7 SWAP1 DUP3 ADD SLOAD PUSH4 0xFFFFFFFF AND GT ISZERO PUSH2 0x1ABA JUMPI DUP1 SWAP2 POP PUSH2 0x1AC8 JUMP JUMPDEST PUSH2 0x1AC5 DUP2 PUSH1 0x1 PUSH2 0x2D95 JUMP JUMPDEST SWAP3 POP JUMPDEST POP PUSH2 0x1A81 JUMP JUMPDEST DUP1 ISZERO PUSH2 0x1B08 JUMPI PUSH2 0x1AF1 DUP7 PUSH2 0x1AE3 PUSH1 0x1 DUP5 PUSH2 0x2E1D JUMP JUMPDEST PUSH1 0x0 SWAP2 DUP3 MSTORE PUSH1 0x20 SWAP1 SWAP2 KECCAK256 ADD SWAP1 JUMP JUMPDEST SLOAD PUSH5 0x100000000 SWAP1 DIV PUSH1 0x1 PUSH1 0x1 PUSH1 0xE0 SHL SUB AND PUSH2 0x1B0B JUMP JUMPDEST PUSH1 0x0 JUMPDEST PUSH1 0x1 PUSH1 0x1 PUSH1 0xE0 SHL SUB AND SWAP7 SWAP6 POP POP POP POP POP POP JUMP JUMPDEST PUSH2 0x1B26 PUSH2 0x2275 JUMP JUMPDEST PUSH1 0xA DUP1 SLOAD PUSH1 0xFF NOT AND SWAP1 SSTORE PUSH32 0x5DB9EE0A495BF2E6FF9C91A7834C1BA4FDD244A5E8AA4E537BD38AEAE4B073AA CALLER JUMPDEST PUSH1 0x40 MLOAD PUSH1 0x1 PUSH1 0x1 PUSH1 0xA0 SHL SUB SWAP1 SWAP2 AND DUP2 MSTORE PUSH1 0x20 ADD PUSH1 0x40 MLOAD DUP1 SWAP2 SUB SWAP1 LOG1 JUMP JUMPDEST PUSH2 0x816 DUP3 DUP3 PUSH2 0x11F1 JUMP JUMPDEST PUSH2 0x816 DUP3 DUP3 PUSH2 0x22BE JUMP JUMPDEST PUSH1 0x0 DUP1 PUSH1 0x0 DUP5 GT PUSH2 0x1BD0 JUMPI PUSH1 0x40 MLOAD PUSH3 0x461BCD PUSH1 0xE5 SHL DUP2 MSTORE PUSH1 0x20 PUSH1 0x4 DUP3 ADD MSTORE PUSH1 0x16 PUSH1 0x24 DUP3 ADD MSTORE PUSH22 0x4552433230536E617073686F743A206964206973203 PUSH1 0x54 SHL PUSH1 0x44 DUP3 ADD MSTORE PUSH1 0x64 ADD PUSH2 0x803 JUMP JUMPDEST PUSH2 0x1BD8 PUSH2 0x22D6 JUMP JUMPDEST DUP5 GT ISZERO PUSH2 0x1C27 JUMPI PUSH1 0x40 MLOAD PUSH3 0x461BCD PUSH1 0xE5 SHL DUP2 MSTORE PUSH1 0x20 PUSH1 0x4 DUP3 ADD MSTORE PUSH1 0x1D PUSH1 0x24 DUP3 ADD MSTORE PUSH32 0x4552433230536E617073686F743A206E6F6E6578697374656E74206964000000 PUSH1 0x44 DUP3 ADD MSTORE PUSH1 0x64 ADD PUSH2 0x803 JUMP JUMPDEST PUSH1 0x0 PUSH2 0x1C33 DUP5 DUP7 PUSH2 0x22E1 JUMP JUMPDEST DUP5 SLOAD SWAP1 SWAP2 POP DUP2 SUB PUSH2 0x1C4B JUMPI PUSH1 0x0 DUP1 SWAP3 POP SWAP3 POP POP PUSH2 0x1C73 JUMP JUMPDEST PUSH1 0x1 DUP5 PUSH1 0x1 ADD DUP3 DUP2 SLOAD DUP2 LT PUSH2 0x1C62 JUMPI PUSH2 0x1C62 PUSH2 0x2E30 JUMP JUMPDEST SWAP1 PUSH1 0x0 MSTORE PUSH1 0x20 PUSH1 0x0 KECCAK256 ADD SLOAD SWAP3 POP SWAP3 POP POP JUMPDEST SWAP3 POP SWAP3 SWAP1 POP JUMP JUMPDEST PUSH1 0x1 PUSH1 0x1 PUSH1 0xA0 SHL SUB DUP3 DUP2 AND PUSH1 0x0 DUP2 DUP2 MSTORE PUSH1 0xD PUSH1 0x20 DUP2 DUP2 MSTORE PUSH1 0x40 DUP1 DUP5 KECCAK256 DUP1 SLOAD DUP6 DUP5 MSTORE DUP3 DUP7 KECCAK256 SLOAD SWAP5 SWAP1 SWAP4 MSTORE DUP8 DUP8 AND PUSH1 0x1 PUSH1 0x1 PUSH1 0xA0 SHL SUB NOT DUP5 AND DUP2 OR SWAP1 SWAP2 SSTORE SWAP1 MLOAD SWAP2 SWAP1 SWAP6 AND SWAP5 SWAP2 SWAP4 SWAP2 SWAP3 DUP6 SWAP3 SWAP2 PUSH32 0x3134E8A2E6D97E929A7E54011EA5485D7D196DD5F0BA4D4EF95803E8E3FC257F SWAP2 SWAP1 LOG4 PUSH2 0x127B DUP3 DUP5 DUP4 PUSH2 0x1FDC JUMP JUMPDEST PUSH2 0x1CFB PUSH2 0x2380 JUMP JUMPDEST PUSH1 0xA DUP1 SLOAD PUSH1 0xFF NOT AND PUSH1 0x1 OR SWAP1 SSTORE PUSH32 0x62E78CEA01BEE320CD4E420270B5EA74000D11B0C9F74754EBDBFC544B05A258 PUSH2 0x1B53 CALLER SWAP1 JUMP JUMPDEST PUSH1 0x0 PUSH2 0x1D40 PUSH1 0x8 DUP1 SLOAD PUSH1 0x1 ADD SWAP1 SSTORE JUMP JUMPDEST PUSH1 0x0 PUSH2 0x1D4A PUSH2 0x22D6 JUMP JUMPDEST SWAP1 POP PUSH32 0x8030E83B04D87BEF53480E26263266D6CA66863AA8506ACA6F2559D18AA1CB67 DUP2 PUSH1 0x40 MLOAD PUSH2 0x1D7D SWAP2 DUP2 MSTORE PUSH1 0x20 ADD SWAP1 JUMP JUMPDEST PUSH1 0x40 MLOAD DUP1 SWAP2 SUB SWAP1 LOG1 SWAP2 SWAP1 POP JUMP JUMPDEST PUSH1 0x0 PUSH2 0x68A PUSH2 0x1D97 PUSH2 0x1899 JUMP JUMPDEST DUP4 PUSH1 0x40 MLOAD PUSH2 0x1901 PUSH1 0xF0 SHL PUSH1 0x20 DUP3 ADD MSTORE PUSH1 0x22 DUP2 ADD DUP4 SWAP1 MSTORE PUSH1 0x42 DUP2 ADD DUP3 SWAP1 MSTORE PUSH1 0x0 SWAP1 PUSH1 0x62 ADD PUSH1 0x40 MLOAD PUSH1 0x20 DUP2 DUP4 SUB SUB DUP2 MSTORE SWAP1 PUSH1 0x40 MSTORE DUP1 MLOAD SWAP1 PUSH1 0x20 ADD KECCAK256 SWAP1 POP SWAP3 SWAP2 POP POP JUMP JUMPDEST PUSH1 0x0 DUP1 PUSH1 0x0 PUSH2 0x1DE9 DUP8 DUP8 DUP8 DUP8 PUSH2 0x23C6 JUMP JUMPDEST SWAP2 POP SWAP2 POP PUSH2 0x1DF6 DUP2 PUSH2 0x248A JUMP JUMPDEST POP SWAP6 SWAP5 POP POP POP POP POP JUMP JUMPDEST PUSH1 0x1 PUSH1 0x1 PUSH1 0xA0 SHL SUB DUP2 AND PUSH1 0x0 SWAP1 DUP2 MSTORE PUSH1 0xB PUSH1 0x20 MSTORE PUSH1 0x40 SWAP1 KECCAK256 DUP1 SLOAD PUSH1 0x1 DUP2 ADD DUP3 SSTORE SWAP1 JUMPDEST POP SWAP2 SWAP1 POP JUMP JUMPDEST DUP3 SLOAD PUSH1 0x0 SWAP1 DUP2 SWAP1 DUP2 DUP2 ISZERO PUSH2 0x1E75 JUMPI PUSH2 0x1E45 DUP8 PUSH2 0x1AE3 PUSH1 0x1 DUP6 PUSH2 0x2E1D JUMP JUMPDEST PUSH1 0x40 DUP1 MLOAD DUP1 DUP3 ADD SWAP1 SWAP2 MSTORE SWAP1 SLOAD PUSH4 0xFFFFFFFF DUP2 AND DUP3 MSTORE PUSH5 0x100000000 SWAP1 DIV PUSH1 0x1 PUSH1 0x1 PUSH1 0xE0 SHL SUB AND PUSH1 0x20 DUP3 ADD MSTORE PUSH2 0x1E8A JUMP JUMPDEST PUSH1 0x40 DUP1 MLOAD DUP1 DUP3 ADD SWAP1 SWAP2 MSTORE PUSH1 0x0 DUP1 DUP3 MSTORE PUSH1 0x20 DUP3 ADD MSTORE JUMPDEST SWAP1 POP DUP1 PUSH1 0x20 ADD MLOAD PUSH1 0x1 PUSH1 0x1 PUSH1 0xE0 SHL SUB AND SWAP4 POP PUSH2 0x1EAA DUP5 DUP7 DUP9 PUSH4 0xFFFFFFFF AND JUMP JUMPDEST SWAP3 POP PUSH1 0x0 DUP3 GT DUP1 ISZERO PUSH2 0x1EC2 JUMPI POP DUP1 MLOAD PUSH4 0xFFFFFFFF AND NUMBER EQ JUMPDEST ISZERO PUSH2 0x1F07 JUMPI PUSH2 0x1ED0 DUP4 PUSH2 0x1360 JUMP JUMPDEST PUSH2 0x1EDF DUP9 PUSH2 0x1AE3 PUSH1 0x1 DUP7 PUSH2 0x2E1D JUMP JUMPDEST DUP1 SLOAD PUSH1 0x1 PUSH1 0x1 PUSH1 0xE0 SHL SUB SWAP3 SWAP1 SWAP3 AND PUSH5 0x100000000 MUL PUSH4 0xFFFFFFFF SWAP1 SWAP3 AND SWAP2 SWAP1 SWAP2 OR SWAP1 SSTORE PUSH2 0x1F72 JUMP JUMPDEST DUP7 PUSH1 0x40 MLOAD DUP1 PUSH1 0x40 ADD PUSH1 0x40 MSTORE DUP1 PUSH2 0x1F1C NUMBER PUSH2 0x13CD JUMP JUMPDEST PUSH4 0xFFFFFFFF AND DUP2 MSTORE PUSH1 0x20 ADD PUSH2 0x1F30 DUP7 PUSH2 0x1360 JUMP JUMPDEST PUSH1 0x1 PUSH1 0x1 PUSH1 0xE0 SHL SUB SWAP1 DUP2 AND SWAP1 SWAP2 MSTORE DUP3 SLOAD PUSH1 0x1 DUP2 ADD DUP5 SSTORE PUSH1 0x0 SWAP4 DUP5 MSTORE PUSH1 0x20 SWAP4 DUP5 SWAP1 KECCAK256 DUP4 MLOAD SWAP5 SWAP1 SWAP4 ADD MLOAD SWAP1 SWAP2 AND PUSH5 0x100000000 MUL PUSH4 0xFFFFFFFF SWAP1 SWAP4 AND SWAP3 SWAP1 SWAP3 OR SWAP2 ADD SSTORE JUMPDEST POP POP SWAP4 POP SWAP4 SWAP2 POP POP JUMP JUMPDEST PUSH2 0x1F84 PUSH2 0x2380 JUMP JUMPDEST PUSH2 0x783 DUP4 DUP4 DUP4 PUSH2 0x1432 JUMP JUMPDEST PUSH2 0x783 DUP4 DUP4 DUP4 PUSH2 0x147A JUMP JUMPDEST PUSH1 0x1 PUSH1 0x1 PUSH1 0xA0 SHL SUB DUP2 AND PUSH1 0x0 SWAP1 DUP2 MSTORE PUSH1 0x5 PUSH1 0x20 SWAP1 DUP2 MSTORE PUSH1 0x40 DUP1 DUP4 KECCAK256 SWAP2 DUP4 SWAP1 MSTORE SWAP1 SWAP2 KECCAK256 SLOAD PUSH2 0x8E8 SWAP2 SWAP1 PUSH2 0x25D4 JUMP JUMPDEST PUSH2 0x25D4 JUMP JUMPDEST PUSH2 0x1FDA PUSH1 0x6 PUSH2 0x1FC7 PUSH1 0x2 SLOAD SWAP1 JUMP JUMPDEST JUMP JUMPDEST DUP2 PUSH1 0x1 PUSH1 0x1 PUSH1 0xA0 SHL SUB AND DUP4 PUSH1 0x1 PUSH1 0x1 PUSH1 0xA0 SHL SUB AND EQ ISZERO DUP1 ISZERO PUSH2 0x1FFE JUMPI POP PUSH1 0x0 DUP2 GT JUMPDEST ISZERO PUSH2 0x783 JUMPI PUSH1 0x1 PUSH1 0x1 PUSH1 0xA0 SHL SUB DUP4 AND ISZERO PUSH2 0x208C JUMPI PUSH1 0x1 PUSH1 0x1 PUSH1 0xA0 SHL SUB DUP4 AND PUSH1 0x0 SWAP1 DUP2 MSTORE PUSH1 0xE PUSH1 0x20 MSTORE PUSH1 0x40 DUP2 KECCAK256 DUP2 SWAP1 PUSH2 0x2039 SWAP1 PUSH2 0x14AC DUP6 PUSH2 0x1E28 JUMP JUMPDEST SWAP2 POP SWAP2 POP DUP5 PUSH1 0x1 PUSH1 0x1 PUSH1 0xA0 SHL SUB AND PUSH32 0xDEC2BACDD2F05B59DE34DA9B523DFF8BE42E5E38E818C82FDB0BAE774387A724 DUP4 DUP4 PUSH1 0x40 MLOAD PUSH2 0x2081 SWAP3 SWAP2 SWAP1 SWAP2 DUP3 MSTORE PUSH1 0x20 DUP3 ADD MSTORE PUSH1 0x40 ADD SWAP1 JUMP JUMPDEST PUSH1 0x40 MLOAD DUP1 SWAP2 SUB SWAP1 LOG2 POP POP JUMPDEST PUSH1 0x1 PUSH1 0x1 PUSH1 0xA0 SHL SUB DUP3 AND ISZERO PUSH2 0x783 JUMPI PUSH1 0x1 PUSH1 0x1 PUSH1 0xA0 SHL SUB DUP3 AND PUSH1 0x0 SWAP1 DUP2 MSTORE PUSH1 0xE PUSH1 0x20 MSTORE PUSH1 0x40 DUP2 KECCAK256 DUP2 SWAP1 PUSH2 0x20C2 SWAP1 PUSH2 0x1354 DUP6 PUSH2 0x1E28 JUMP JUMPDEST SWAP2 POP SWAP2 POP DUP4 PUSH1 0x1 PUSH1 0x1 PUSH1 0xA0 SHL SUB AND PUSH32 0xDEC2BACDD2F05B59DE34DA9B523DFF8BE42E5E38E818C82FDB0BAE774387A724 DUP4 DUP4 PUSH1 0x40 MLOAD PUSH2 0x210A SWAP3 SWAP2 SWAP1 SWAP2 DUP3 MSTORE PUSH1 0x20 DUP3 ADD MSTORE PUSH1 0x40 ADD SWAP1 JUMP JUMPDEST PUSH1 0x40 MLOAD DUP1 SWAP2 SUB SWAP1 LOG2 POP POP POP POP POP JUMP JUMPDEST PUSH2 0x2123 DUP3 DUP3 PUSH2 0xC7B JUMP JUMPDEST PUSH2 0x816 JUMPI PUSH2 0x2130 DUP2 PUSH2 0x261E JUMP JUMPDEST PUSH2 0x213B DUP4 PUSH1 0x20 PUSH2 0x2630 JUMP JUMPDEST PUSH1 0x40 MLOAD PUSH1 0x20 ADD PUSH2 0x214C SWAP3 SWAP2 SWAP1 PUSH2 0x2E46 JUMP JUMPDEST PUSH1 0x40 DUP1 MLOAD PUSH1 0x1F NOT DUP2 DUP5 SUB ADD DUP2 MSTORE SWAP1 DUP3 SWAP1 MSTORE PUSH3 0x461BCD PUSH1 0xE5 SHL DUP3 MSTORE PUSH2 0x803 SWAP2 PUSH1 0x4 ADD PUSH2 0x2A53 JUMP JUMPDEST PUSH1 0x0 DUP2 PUSH1 0x0 SUB PUSH2 0x2184 JUMPI POP PUSH1 0x0 SWAP2 SWAP1 POP JUMP JUMPDEST PUSH1 0x0 PUSH1 0x1 PUSH2 0x2191 DUP5 PUSH2 0x27CC JUMP JUMPDEST SWAP1 SHR PUSH1 0x1 SWAP1 SHL SWAP1 POP PUSH1 0x1 DUP2 DUP5 DUP2 PUSH2 0x21AA JUMPI PUSH2 0x21AA PUSH2 0x2EBB JUMP JUMPDEST DIV DUP3 ADD SWAP1 SHR SWAP1 POP PUSH1 0x1 DUP2 DUP5 DUP2 PUSH2 0x21C2 JUMPI PUSH2 0x21C2 PUSH2 0x2EBB JUMP JUMPDEST DIV DUP3 ADD SWAP1 SHR SWAP1 POP PUSH1 0x1 DUP2 DUP5 DUP2 PUSH2 0x21DA JUMPI PUSH2 0x21DA PUSH2 0x2EBB JUMP JUMPDEST DIV DUP3 ADD SWAP1 SHR SWAP1 POP PUSH1 0x1 DUP2 DUP5 DUP2 PUSH2 0x21F2 JUMPI PUSH2 0x21F2 PUSH2 0x2EBB JUMP JUMPDEST DIV DUP3 ADD SWAP1 SHR SWAP1 POP PUSH1 0x1 DUP2 DUP5 DUP2 PUSH2 0x220A JUMPI PUSH2 0x220A PUSH2 0x2EBB JUMP JUMPDEST DIV DUP3 ADD SWAP1 SHR SWAP1 POP PUSH1 0x1 DUP2 DUP5 DUP2 PUSH2 0x2222 JUMPI PUSH2 0x2222 PUSH2 0x2EBB JUMP JUMPDEST DIV DUP3 ADD SWAP1 SHR SWAP1 POP PUSH1 0x1 DUP2 DUP5 DUP2 PUSH2 0x223A JUMPI PUSH2 0x223A PUSH2 0x2EBB JUMP JUMPDEST DIV DUP3 ADD SWAP1 SHR SWAP1 POP PUSH2 0x8AF DUP2 DUP3 DUP6 DUP2 PUSH2 0x2254 JUMPI PUSH2 0x2254 PUSH2 0x2EBB JUMP JUMPDEST DIV PUSH2 0x2860 JUMP JUMPDEST PUSH1 0x0 PUSH2 0x2269 PUSH1 0x2 DUP5 DUP5 XOR PUSH2 0x2ED1 JUMP JUMPDEST PUSH2 0x8AF SWAP1 DUP5 DUP5 AND PUSH2 0x2D95 JUMP JUMPDEST PUSH1 0xA SLOAD PUSH1 0xFF AND PUSH2 0x1FDA JUMPI PUSH1 0x40 MLOAD PUSH3 0x461BCD PUSH1 0xE5 SHL DUP2 MSTORE PUSH1 0x20 PUSH1 0x4 DUP3 ADD MSTORE PUSH1 0x14 PUSH1 0x24 DUP3 ADD MSTORE PUSH20 0x14185D5CD8589B194E881B9BDD081C185D5CD959 PUSH1 0x62 SHL PUSH1 0x44 DUP3 ADD MSTORE PUSH1 0x64 ADD PUSH2 0x803 JUMP JUMPDEST PUSH2 0x22C8 DUP3 DUP3 PUSH2 0x2876 JUMP JUMPDEST PUSH2 0x127B PUSH1 0xF PUSH2 0x14AC DUP4 PUSH2 0x1E28 JUMP JUMPDEST PUSH1 0x0 PUSH2 0x792 PUSH1 0x8 SLOAD SWAP1 JUMP JUMPDEST DUP2 SLOAD PUSH1 0x0 SWAP1 DUP2 SUB PUSH2 0x22F4 JUMPI POP PUSH1 0x0 PUSH2 0x68A JUMP JUMPDEST DUP3 SLOAD PUSH1 0x0 SWAP1 JUMPDEST DUP1 DUP3 LT ISZERO PUSH2 0x2341 JUMPI PUSH1 0x0 PUSH2 0x230E DUP4 DUP4 PUSH2 0x225A JUMP JUMPDEST PUSH1 0x0 DUP8 DUP2 MSTORE PUSH1 0x20 SWAP1 KECCAK256 SWAP1 SWAP2 POP DUP6 SWAP1 DUP3 ADD SLOAD GT ISZERO PUSH2 0x232D JUMPI DUP1 SWAP2 POP PUSH2 0x233B JUMP JUMPDEST PUSH2 0x2338 DUP2 PUSH1 0x1 PUSH2 0x2D95 JUMP JUMPDEST SWAP3 POP JUMPDEST POP PUSH2 0x22FA JUMP JUMPDEST PUSH1 0x0 DUP3 GT DUP1 ISZERO PUSH2 0x235F JUMPI POP DUP4 PUSH2 0x235C DUP7 PUSH2 0x1AE3 PUSH1 0x1 DUP7 PUSH2 0x2E1D JUMP JUMPDEST SLOAD EQ JUMPDEST ISZERO PUSH2 0x2378 JUMPI PUSH2 0x236F PUSH1 0x1 DUP4 PUSH2 0x2E1D JUMP JUMPDEST SWAP3 POP POP POP PUSH2 0x68A JUMP JUMPDEST POP SWAP1 POP PUSH2 0x68A JUMP JUMPDEST PUSH1 0xA SLOAD PUSH1 0xFF AND ISZERO PUSH2 0x1FDA JUMPI PUSH1 0x40 MLOAD PUSH3 0x461BCD PUSH1 0xE5 SHL DUP2 MSTORE PUSH1 0x20 PUSH1 0x4 DUP3 ADD MSTORE PUSH1 0x10 PUSH1 0x24 DUP3 ADD MSTORE PUSH16 0x14185D5CD8589B194E881C185D5CD959 PUSH1 0x82 SHL PUSH1 0x44 DUP3 ADD MSTORE PUSH1 0x64 ADD PUSH2 0x803 JUMP JUMPDEST PUSH1 0x0 DUP1 PUSH32 0x7FFFFFFFFFFFFFFFFFFFFFFFFFFFFFFF5D576E7357A4501DDFE92F46681B20A0 DUP4 GT ISZERO PUSH2 0x23FD JUMPI POP PUSH1 0x0 SWAP1 POP PUSH1 0x3 PUSH2 0x2481 JUMP JUMPDEST PUSH1 0x40 DUP1 MLOAD PUSH1 0x0 DUP1 DUP3 MSTORE PUSH1 0x20 DUP3 ADD DUP1 DUP5 MSTORE DUP10 SWAP1 MSTORE PUSH1 0xFF DUP9 AND SWAP3 DUP3 ADD SWAP3 SWAP1 SWAP3 MSTORE PUSH1 0x60 DUP2 ADD DUP7 SWAP1 MSTORE PUSH1 0x80 DUP2 ADD DUP6 SWAP1 MSTORE PUSH1 0x1 SWAP1 PUSH1 0xA0 ADD PUSH1 0x20 PUSH1 0x40 MLOAD PUSH1 0x20 DUP2 SUB SWAP1 DUP1 DUP5 SUB SWAP1 DUP6 GAS STATICCALL ISZERO DUP1 ISZERO PUSH2 0x2451 JUMPI RETURNDATASIZE PUSH1 0x0 DUP1 RETURNDATACOPY RETURNDATASIZE PUSH1 0x0 REVERT JUMPDEST POP POP PUSH1 0x40 MLOAD PUSH1 0x1F NOT ADD MLOAD SWAP2 POP POP PUSH1 0x1 PUSH1 0x1 PUSH1 0xA0 SHL SUB DUP2 AND PUSH2 0x247A JUMPI PUSH1 0x0 PUSH1 0x1 SWAP3 POP SWAP3 POP POP PUSH2 0x2481 JUMP JUMPDEST SWAP2 POP PUSH1 0x0 SWAP1 POP JUMPDEST SWAP5 POP SWAP5 SWAP3 POP POP POP JUMP JUMPDEST PUSH1 0x0 DUP2 PUSH1 0x4 DUP2 GT ISZERO PUSH2 0x249E JUMPI PUSH2 0x249E PUSH2 0x2EF3 JUMP JUMPDEST SUB PUSH2 0x24A6 JUMPI POP JUMP JUMPDEST PUSH1 0x1 DUP2 PUSH1 0x4 DUP2 GT ISZERO PUSH2 0x24BA JUMPI PUSH2 0x24BA PUSH2 0x2EF3 JUMP JUMPDEST SUB PUSH2 0x2507 JUMPI PUSH1 0x40 MLOAD PUSH3 0x461BCD PUSH1 0xE5 SHL DUP2 MSTORE PUSH1 0x20 PUSH1 0x4 DUP3 ADD MSTORE PUSH1 0x18 PUSH1 0x24 DUP3 ADD MSTORE PUSH32 0x45434453413A20696E76616C6964207369676E61747572650000000000000000 PUSH1 0x44 DUP3 ADD MSTORE PUSH1 0x64 ADD PUSH2 0x803 JUMP JUMPDEST PUSH1 0x2 DUP2 PUSH1 0x4 DUP2 GT ISZERO PUSH2 0x251B JUMPI PUSH2 0x251B PUSH2 0x2EF3 JUMP JUMPDEST SUB PUSH2 0x2568 JUMPI PUSH1 0x40 MLOAD PUSH3 0x461BCD PUSH1 0xE5 SHL DUP2 MSTORE PUSH1 0x20 PUSH1 0x4 DUP3 ADD MSTORE PUSH1 0x1F PUSH1 0x24 DUP3 ADD MSTORE PUSH32 0x45434453413A20696E76616C6964207369676E6174757265206C656E67746800 PUSH1 0x44 DUP3 ADD MSTORE PUSH1 0x64 ADD PUSH2 0x803 JUMP JUMPDEST PUSH1 0x3 DUP2 PUSH1 0x4 DUP2 GT ISZERO PUSH2 0x257C JUMPI PUSH2 0x257C PUSH2 0x2EF3 JUMP JUMPDEST SUB PUSH2 0x8E8 JUMPI PUSH1 0x40 MLOAD PUSH3 0x461BCD PUSH1 0xE5 SHL DUP2 MSTORE PUSH1 0x20 PUSH1 0x4 DUP3 ADD MSTORE PUSH1 0x22 PUSH1 0x24 DUP3 ADD MSTORE PUSH32 0x45434453413A20696E76616C6964207369676E6174757265202773272076616C PUSH1 0x44 DUP3 ADD MSTORE PUSH2 0x7565 PUSH1 0xF0 SHL PUSH1 0x64 DUP3 ADD MSTORE PUSH1 0x84 ADD PUSH2 0x803 JUMP JUMPDEST PUSH1 0x0 PUSH2 0x25DE PUSH2 0x22D6 JUMP JUMPDEST SWAP1 POP DUP1 PUSH2 0x25EA DUP5 PUSH2 0x29BB JUMP JUMPDEST LT ISZERO PUSH2 0x783 JUMPI DUP3 SLOAD PUSH1 0x1 DUP1 DUP3 ADD DUP6 SSTORE PUSH1 0x0 DUP6 DUP2 MSTORE PUSH1 0x20 DUP1 DUP3 KECCAK256 SWAP1 SWAP4 ADD SWAP4 SWAP1 SWAP4 SSTORE SWAP4 DUP5 ADD DUP1 SLOAD SWAP5 DUP6 ADD DUP2 SSTORE DUP3 MSTORE SWAP1 KECCAK256 SWAP1 SWAP2 ADD SSTORE JUMP JUMPDEST PUSH1 0x60 PUSH2 0x68A PUSH1 0x1 PUSH1 0x1 PUSH1 0xA0 SHL SUB DUP4 AND PUSH1 0x14 JUMPDEST PUSH1 0x60 PUSH1 0x0 PUSH2 0x263F DUP4 PUSH1 0x2 PUSH2 0x2F09 JUMP JUMPDEST PUSH2 0x264A SWAP1 PUSH1 0x2 PUSH2 0x2D95 JUMP JUMPDEST PUSH8 0xFFFFFFFFFFFFFFFF DUP2 GT ISZERO PUSH2 0x2662 JUMPI PUSH2 0x2662 PUSH2 0x2F20 JUMP JUMPDEST PUSH1 0x40 MLOAD SWAP1 DUP1 DUP3 MSTORE DUP1 PUSH1 0x1F ADD PUSH1 0x1F NOT AND PUSH1 0x20 ADD DUP3 ADD PUSH1 0x40 MSTORE DUP1 ISZERO PUSH2 0x268C JUMPI PUSH1 0x20 DUP3 ADD DUP2 DUP1 CALLDATASIZE DUP4 CALLDATACOPY ADD SWAP1 POP JUMPDEST POP SWAP1 POP PUSH1 0x3 PUSH1 0xFC SHL DUP2 PUSH1 0x0 DUP2 MLOAD DUP2 LT PUSH2 0x26A7 JUMPI PUSH2 0x26A7 PUSH2 0x2E30 JUMP JUMPDEST PUSH1 0x20 ADD ADD SWAP1 PUSH1 0x1 PUSH1 0x1 PUSH1 0xF8 SHL SUB NOT AND SWAP1 DUP2 PUSH1 0x0 BYTE SWAP1 MSTORE8 POP PUSH1 0xF PUSH1 0xFB SHL DUP2 PUSH1 0x1 DUP2 MLOAD DUP2 LT PUSH2 0x26D6 JUMPI PUSH2 0x26D6 PUSH2 0x2E30 JUMP JUMPDEST PUSH1 0x20 ADD ADD SWAP1 PUSH1 0x1 PUSH1 0x1 PUSH1 0xF8 SHL SUB NOT AND SWAP1 DUP2 PUSH1 0x0 BYTE SWAP1 MSTORE8 POP PUSH1 0x0 PUSH2 0x26FA DUP5 PUSH1 0x2 PUSH2 0x2F09 JUMP JUMPDEST PUSH2 0x2705 SWAP1 PUSH1 0x1 PUSH2 0x2D95 JUMP JUMPDEST SWAP1 POP JUMPDEST PUSH1 0x1 DUP2 GT ISZERO PUSH2 0x277D JUMPI PUSH16 0x181899199A1A9B1B9C1CB0B131B232B3 PUSH1 0x81 SHL DUP6 PUSH1 0xF AND PUSH1 0x10 DUP2 LT PUSH2 0x2739 JUMPI PUSH2 0x2739 PUSH2 0x2E30 JUMP JUMPDEST BYTE PUSH1 0xF8 SHL DUP3 DUP3 DUP2 MLOAD DUP2 LT PUSH2 0x274F JUMPI PUSH2 0x274F PUSH2 0x2E30 JUMP JUMPDEST PUSH1 0x20 ADD ADD SWAP1 PUSH1 0x1 PUSH1 0x1 PUSH1 0xF8 SHL SUB NOT AND SWAP1 DUP2 PUSH1 0x0 BYTE SWAP1 MSTORE8 POP PUSH1 0x4 SWAP5 SWAP1 SWAP5 SHR SWAP4 PUSH2 0x2776 DUP2 PUSH2 0x2F36 JUMP JUMPDEST SWAP1 POP PUSH2 0x2708 JUMP JUMPDEST POP DUP4 ISZERO PUSH2 0x8AF JUMPI PUSH1 0x40 MLOAD PUSH3 0x461BCD PUSH1 0xE5 SHL DUP2 MSTORE PUSH1 0x20 PUSH1 0x4 DUP3 ADD DUP2 SWAP1 MSTORE PUSH1 0x24 DUP3 ADD MSTORE PUSH32 0x537472696E67733A20686578206C656E67746820696E73756666696369656E74 PUSH1 0x44 DUP3 ADD MSTORE PUSH1 0x64 ADD PUSH2 0x803 JUMP JUMPDEST PUSH1 0x0 DUP1 PUSH1 0x80 DUP4 SWAP1 SHR ISZERO PUSH2 0x27E1 JUMPI PUSH1 0x80 SWAP3 DUP4 SHR SWAP3 ADD JUMPDEST PUSH1 0x40 DUP4 SWAP1 SHR ISZERO PUSH2 0x27F3 JUMPI PUSH1 0x40 SWAP3 DUP4 SHR SWAP3 ADD JUMPDEST PUSH1 0x20 DUP4 SWAP1 SHR ISZERO PUSH2 0x2805 JUMPI PUSH1 0x20 SWAP3 DUP4 SHR SWAP3 ADD JUMPDEST PUSH1 0x10 DUP4 SWAP1 SHR ISZERO PUSH2 0x2817 JUMPI PUSH1 0x10 SWAP3 DUP4 SHR SWAP3 ADD JUMPDEST PUSH1 0x8 DUP4 SWAP1 SHR ISZERO PUSH2 0x2829 JUMPI PUSH1 0x8 SWAP3 DUP4 SHR SWAP3 ADD JUMPDEST PUSH1 0x4 DUP4 SWAP1 SHR ISZERO PUSH2 0x283B JUMPI PUSH1 0x4 SWAP3 DUP4 SHR SWAP3 ADD JUMPDEST PUSH1 0x2 DUP4 SWAP1 SHR ISZERO PUSH2 0x284D JUMPI PUSH1 0x2 SWAP3 DUP4 SHR SWAP3 ADD JUMPDEST PUSH1 0x1 DUP4 SWAP1 SHR ISZERO PUSH2 0x68A JUMPI PUSH1 0x1 ADD SWAP3 SWAP2 POP POP JUMP JUMPDEST PUSH1 0x0 DUP2 DUP4 LT PUSH2 0x286F JUMPI DUP2 PUSH2 0x8AF JUMP JUMPDEST POP SWAP1 SWAP2 SWAP1 POP JUMP JUMPDEST PUSH1 0x1 PUSH1 0x1 PUSH1 0xA0 SHL SUB DUP3 AND PUSH2 0x28D6 JUMPI PUSH1 0x40 MLOAD PUSH3 0x461BCD PUSH1 0xE5 SHL DUP2 MSTORE PUSH1 0x20 PUSH1 0x4 DUP3 ADD MSTORE PUSH1 0x21 PUSH1 0x24 DUP3 ADD MSTORE PUSH32 0x45524332303A206275726E2066726F6D20746865207A65726F20616464726573 PUSH1 0x44 DUP3 ADD MSTORE PUSH1 0x73 PUSH1 0xF8 SHL PUSH1 0x64 DUP3 ADD MSTORE PUSH1 0x84 ADD PUSH2 0x803 JUMP JUMPDEST PUSH2 0x28E2 DUP3 PUSH1 0x0 DUP4 PUSH2 0x1F7C JUMP JUMPDEST PUSH1 0x1 PUSH1 0x1 PUSH1 0xA0 SHL SUB DUP3 AND PUSH1 0x0 SWAP1 DUP2 MSTORE PUSH1 0x20 DUP2 SWAP1 MSTORE PUSH1 0x40 SWAP1 KECCAK256 SLOAD DUP2 DUP2 LT ISZERO PUSH2 0x2956 JUMPI PUSH1 0x40 MLOAD PUSH3 0x461BCD PUSH1 0xE5 SHL DUP2 MSTORE PUSH1 0x20 PUSH1 0x4 DUP3 ADD MSTORE PUSH1 0x22 PUSH1 0x24 DUP3 ADD MSTORE PUSH32 0x45524332303A206275726E20616D6F756E7420657863656564732062616C616E PUSH1 0x44 DUP3 ADD MSTORE PUSH2 0x6365 PUSH1 0xF0 SHL PUSH1 0x64 DUP3 ADD MSTORE PUSH1 0x84 ADD PUSH2 0x803 JUMP JUMPDEST PUSH1 0x1 PUSH1 0x1 PUSH1 0xA0 SHL SUB DUP4 AND PUSH1 0x0 DUP2 DUP2 MSTORE PUSH1 0x20 DUP2 DUP2 MSTORE PUSH1 0x40 DUP1 DUP4 KECCAK256 DUP7 DUP7 SUB SWAP1 SSTORE PUSH1 0x2 DUP1 SLOAD DUP8 SWAP1 SUB SWAP1 SSTORE MLOAD DUP6 DUP2 MSTORE SWAP2 SWAP3 SWAP2 PUSH32 0xDDF252AD1BE2C89B69C2B068FC378DAA952BA7F163C4A11628F55A4DF523B3EF SWAP2 ADD PUSH1 0x40 MLOAD DUP1 SWAP2 SUB SWAP1 LOG3 PUSH2 0x783 DUP4 PUSH1 0x0 DUP5 PUSH2 0x1F8F JUMP JUMPDEST DUP1 SLOAD PUSH1 0x0 SWAP1 DUP2 SUB PUSH2 0x29CE JUMPI POP PUSH1 0x0 SWAP2 SWAP1 POP JUMP JUMPDEST DUP2 SLOAD DUP3 SWAP1 PUSH2 0x29DE SWAP1 PUSH1 0x1 SWAP1 PUSH2 0x2E1D JUMP JUMPDEST DUP2 SLOAD DUP2 LT PUSH2 0x29EE JUMPI PUSH2 0x29EE PUSH2 0x2E30 JUMP JUMPDEST SWAP1 PUSH1 0x0 MSTORE PUSH1 0x20 PUSH1 0x0 KECCAK256 ADD SLOAD SWAP1 POP SWAP2 SWAP1 POP JUMP JUMPDEST SWAP2 SWAP1 POP JUMP JUMPDEST PUSH1 0x0 PUSH1 0x20 DUP3 DUP5 SUB SLT ISZERO PUSH2 0x2A17 JUMPI PUSH1 0x0 DUP1 REVERT JUMPDEST DUP2 CALLDATALOAD PUSH1 0x1 PUSH1 0x1 PUSH1 0xE0 SHL SUB NOT DUP2 AND DUP2 EQ PUSH2 0x8AF JUMPI PUSH1 0x0 DUP1 REVERT JUMPDEST PUSH1 0x0 JUMPDEST DUP4 DUP2 LT ISZERO PUSH2 0x2A4A JUMPI DUP2 DUP2 ADD MLOAD DUP4 DUP3 ADD MSTORE PUSH1 0x20 ADD PUSH2 0x2A32 JUMP JUMPDEST POP POP PUSH1 0x0 SWAP2 ADD MSTORE JUMP JUMPDEST PUSH1 0x20 DUP2 MSTORE PUSH1 0x0 DUP3 MLOAD DUP1 PUSH1 0x20 DUP5 ADD MSTORE PUSH2 0x2A72 DUP2 PUSH1 0x40 DUP6 ADD PUSH1 0x20 DUP8 ADD PUSH2 0x2A2F JUMP JUMPDEST PUSH1 0x1F ADD PUSH1 0x1F NOT AND SWAP2 SWAP1 SWAP2 ADD PUSH1 0x40 ADD SWAP3 SWAP2 POP POP JUMP JUMPDEST PUSH1 0x1 PUSH1 0x1 PUSH1 0xA0 SHL SUB DUP2 AND DUP2 EQ PUSH2 0x8E8 JUMPI PUSH1 0x0 DUP1 REVERT JUMPDEST PUSH1 0x0 DUP1 PUSH1 0x40 DUP4 DUP6 SUB SLT ISZERO PUSH2 0x2AAE JUMPI PUSH1 0x0 DUP1 REVERT JUMPDEST DUP3 CALLDATALOAD PUSH2 0x2AB9 DUP2 PUSH2 0x2A86 JUMP JUMPDEST SWAP5 PUSH1 0x20 SWAP4 SWAP1 SWAP4 ADD CALLDATALOAD SWAP4 POP POP POP JUMP JUMPDEST PUSH1 0x0 DUP1 PUSH1 0x0 PUSH1 0x60 DUP5 DUP7 SUB SLT ISZERO PUSH2 0x2ADC JUMPI PUSH1 0x0 DUP1 REVERT JUMPDEST DUP4 CALLDATALOAD PUSH2 0x2AE7 DUP2 PUSH2 0x2A86 JUMP JUMPDEST SWAP3 POP PUSH1 0x20 DUP5 ADD CALLDATALOAD PUSH2 0x2AF7 DUP2 PUSH2 0x2A86 JUMP JUMPDEST SWAP3 SWAP6 SWAP3 SWAP5 POP POP POP PUSH1 0x40 SWAP2 SWAP1 SWAP2 ADD CALLDATALOAD SWAP1 JUMP JUMPDEST PUSH1 0x0 PUSH1 0x20 DUP3 DUP5 SUB SLT ISZERO PUSH2 0x2B1A JUMPI PUSH1 0x0 DUP1 REVERT JUMPDEST POP CALLDATALOAD SWAP2 SWAP1 POP JUMP JUMPDEST PUSH1 0x0 DUP1 PUSH1 0x40 DUP4 DUP6 SUB SLT ISZERO PUSH2 0x2B34 JUMPI PUSH1 0x0 DUP1 REVERT JUMPDEST DUP3 CALLDATALOAD SWAP2 POP PUSH1 0x20 DUP4 ADD CALLDATALOAD PUSH2 0x2B46 DUP2 PUSH2 0x2A86 JUMP JUMPDEST DUP1 SWAP2 POP POP SWAP3 POP SWAP3 SWAP1 POP JUMP JUMPDEST PUSH1 0x0 PUSH1 0x20 DUP3 DUP5 SUB SLT ISZERO PUSH2 0x2B63 JUMPI PUSH1 0x0 DUP1 REVERT JUMPDEST DUP2 CALLDATALOAD PUSH2 0x8AF DUP2 PUSH2 0x2A86 JUMP JUMPDEST PUSH1 0x0 DUP1 PUSH1 0x0 DUP1 PUSH1 0x0 PUSH1 0x80 DUP7 DUP9 SUB SLT ISZERO PUSH2 0x2B86 JUMPI PUSH1 0x0 DUP1 REVERT JUMPDEST DUP6 CALLDATALOAD PUSH2 0x2B91 DUP2 PUSH2 0x2A86 JUMP JUMPDEST SWAP5 POP PUSH1 0x20 DUP7 ADD CALLDATALOAD PUSH2 0x2BA1 DUP2 PUSH2 0x2A86 JUMP JUMPDEST SWAP4 POP PUSH1 0x40 DUP7 ADD CALLDATALOAD SWAP3 POP PUSH1 0x60 DUP7 ADD CALLDATALOAD PUSH8 0xFFFFFFFFFFFFFFFF DUP1 DUP3 GT ISZERO PUSH2 0x2BC5 JUMPI PUSH1 0x0 DUP1 REVERT JUMPDEST DUP2 DUP9 ADD SWAP2 POP DUP9 PUSH1 0x1F DUP4 ADD SLT PUSH2 0x2BD9 JUMPI PUSH1 0x0 DUP1 REVERT JUMPDEST DUP2 CALLDATALOAD DUP2 DUP2 GT ISZERO PUSH2 0x2BE8 JUMPI PUSH1 0x0 DUP1 REVERT JUMPDEST DUP10 PUSH1 0x20 DUP3 DUP6 ADD ADD GT ISZERO PUSH2 0x2BFA JUMPI PUSH1 0x0 DUP1 REVERT JUMPDEST SWAP7 SWAP10 SWAP6 SWAP9 POP SWAP4 SWAP7 POP PUSH1 0x20 ADD SWAP5 SWAP4 SWAP3 POP POP POP JUMP JUMPDEST DUP1 CALLDATALOAD PUSH1 0xFF DUP2 AND DUP2 EQ PUSH2 0x2A00 JUMPI PUSH1 0x0 DUP1 REVERT JUMPDEST PUSH1 0x0 DUP1 PUSH1 0x0 DUP1 PUSH1 0x0 DUP1 PUSH1 0xC0 DUP8 DUP10 SUB SLT ISZERO PUSH2 0x2C37 JUMPI PUSH1 0x0 DUP1 REVERT JUMPDEST DUP7 CALLDATALOAD PUSH2 0x2C42 DUP2 PUSH2 0x2A86 JUMP JUMPDEST SWAP6 POP PUSH1 0x20 DUP8 ADD CALLDATALOAD SWAP5 POP PUSH1 0x40 DUP8 ADD CALLDATALOAD SWAP4 POP PUSH2 0x2C5E PUSH1 0x60 DUP9 ADD PUSH2 0x2C0D JUMP JUMPDEST SWAP3 POP PUSH1 0x80 DUP8 ADD CALLDATALOAD SWAP2 POP PUSH1 0xA0 DUP8 ADD CALLDATALOAD SWAP1 POP SWAP3 SWAP6 POP SWAP3 SWAP6 POP SWAP3 SWAP6 JUMP JUMPDEST PUSH1 0x0 DUP1 PUSH1 0x0 DUP1 PUSH1 0x0 DUP1 PUSH1 0x0 PUSH1 0xE0 DUP9 DUP11 SUB SLT ISZERO PUSH2 0x2C93 JUMPI PUSH1 0x0 DUP1 REVERT JUMPDEST DUP8 CALLDATALOAD PUSH2 0x2C9E DUP2 PUSH2 0x2A86 JUMP JUMPDEST SWAP7 POP PUSH1 0x20 DUP9 ADD CALLDATALOAD PUSH2 0x2CAE DUP2 PUSH2 0x2A86 JUMP JUMPDEST SWAP6 POP PUSH1 0x40 DUP9 ADD CALLDATALOAD SWAP5 POP PUSH1 0x60 DUP9 ADD CALLDATALOAD SWAP4 POP PUSH2 0x2CCA PUSH1 0x80 DUP10 ADD PUSH2 0x2C0D JUMP JUMPDEST SWAP3 POP PUSH1 0xA0 DUP9 ADD CALLDATALOAD SWAP2 POP PUSH1 0xC0 DUP9 ADD CALLDATALOAD SWAP1 POP SWAP3 SWAP6 SWAP9 SWAP2 SWAP5 SWAP8 POP SWAP3 SWAP6 POP JUMP JUMPDEST PUSH1 0x0 DUP1 PUSH1 0x40 DUP4 DUP6 SUB SLT ISZERO PUSH2 0x2CF9 JUMPI PUSH1 0x0 DUP1 REVERT JUMPDEST DUP3 CALLDATALOAD PUSH2 0x2D04 DUP2 PUSH2 0x2A86 JUMP JUMPDEST SWAP2 POP PUSH1 0x20 DUP4 ADD CALLDATALOAD PUSH2 0x2B46 DUP2 PUSH2 0x2A86 JUMP JUMPDEST PUSH1 0x0 DUP1 PUSH1 0x40 DUP4 DUP6 SUB SLT ISZERO PUSH2 0x2D27 JUMPI PUSH1 0x0 DUP1 REVERT JUMPDEST DUP3 CALLDATALOAD PUSH2 0x2D32 DUP2 PUSH2 0x2A86 JUMP JUMPDEST SWAP2 POP PUSH1 0x20 DUP4 ADD CALLDATALOAD PUSH4 0xFFFFFFFF DUP2 AND DUP2 EQ PUSH2 0x2B46 JUMPI PUSH1 0x0 DUP1 REVERT JUMPDEST PUSH1 0x1 DUP2 DUP2 SHR SWAP1 DUP3 AND DUP1 PUSH2 0x2D5F JUMPI PUSH1 0x7F DUP3 AND SWAP2 POP JUMPDEST PUSH1 0x20 DUP3 LT DUP2 SUB PUSH2 0x1E22 JUMPI PUSH4 0x4E487B71 PUSH1 0xE0 SHL PUSH1 0x0 MSTORE PUSH1 0x22 PUSH1 0x4 MSTORE PUSH1 0x24 PUSH1 0x0 REVERT JUMPDEST PUSH4 0x4E487B71 PUSH1 0xE0 SHL PUSH1 0x0 MSTORE PUSH1 0x11 PUSH1 0x4 MSTORE PUSH1 0x24 PUSH1 0x0 REVERT JUMPDEST DUP1 DUP3 ADD DUP1 DUP3 GT ISZERO PUSH2 0x68A JUMPI PUSH2 0x68A PUSH2 0x2D7F JUMP JUMPDEST PUSH1 0x1 PUSH1 0x1 PUSH1 0xA0 SHL SUB DUP8 DUP2 AND DUP3 MSTORE DUP7 AND PUSH1 0x20 DUP3 ADD MSTORE PUSH1 0x40 DUP2 ADD DUP6 SWAP1 MSTORE PUSH1 0x60 DUP2 ADD DUP5 SWAP1 MSTORE PUSH1 0xA0 PUSH1 0x80 DUP3 ADD DUP2 SWAP1 MSTORE DUP2 ADD DUP3 SWAP1 MSTORE PUSH1 0x0 DUP3 DUP5 PUSH1 0xC0 DUP5 ADD CALLDATACOPY PUSH1 0x0 PUSH1 0xC0 DUP5 DUP5 ADD ADD MSTORE PUSH1 0xC0 PUSH1 0x1F NOT PUSH1 0x1F DUP6 ADD AND DUP4 ADD ADD SWAP1 POP SWAP8 SWAP7 POP POP POP POP POP POP POP JUMP JUMPDEST PUSH1 0x0 PUSH1 0x20 DUP3 DUP5 SUB SLT ISZERO PUSH2 0x2E16 JUMPI PUSH1 0x0 DUP1 REVERT JUMPDEST POP MLOAD SWAP2 SWAP1 POP JUMP JUMPDEST DUP2 DUP2 SUB DUP2 DUP2 GT ISZERO PUSH2 0x68A JUMPI PUSH2 0x68A PUSH2 0x2D7F JUMP JUMPDEST PUSH4 0x4E487B71 PUSH1 0xE0 SHL PUSH1 0x0 MSTORE PUSH1 0x32 PUSH1 0x4 MSTORE PUSH1 0x24 PUSH1 0x0 REVERT JUMPDEST PUSH32 0x416363657373436F6E74726F6C3A206163636F756E7420000000000000000000 DUP2 MSTORE PUSH1 0x0 DUP4 MLOAD PUSH2 0x2E7E DUP2 PUSH1 0x17 DUP6 ADD PUSH1 0x20 DUP9 ADD PUSH2 0x2A2F JUMP JUMPDEST PUSH17 0x1034B99036B4B9B9B4B733903937B6329 PUSH1 0x7D SHL PUSH1 0x17 SWAP2 DUP5 ADD SWAP2 DUP3 ADD MSTORE DUP4 MLOAD PUSH2 0x2EAF DUP2 PUSH1 0x28 DUP5 ADD PUSH1 0x20 DUP9 ADD PUSH2 0x2A2F JUMP JUMPDEST ADD PUSH1 0x28 ADD SWAP5 SWAP4 POP POP POP POP JUMP JUMPDEST PUSH4 0x4E487B71 PUSH1 0xE0 SHL PUSH1 0x0 MSTORE PUSH1 0x12 PUSH1 0x4 MSTORE PUSH1 0x24 PUSH1 0x0 REVERT JUMPDEST PUSH1 0x0 DUP3 PUSH2 0x2EEE JUMPI PUSH4 0x4E487B71 PUSH1 0xE0 SHL PUSH1 0x0 MSTORE PUSH1 0x12 PUSH1 0x4 MSTORE PUSH1 0x24 PUSH1 0x0 REVERT JUMPDEST POP DIV SWAP1 JUMP JUMPDEST PUSH4 0x4E487B71 PUSH1 0xE0 SHL PUSH1 0x0 MSTORE PUSH1 0x21 PUSH1 0x4 MSTORE PUSH1 0x24 PUSH1 0x0 REVERT JUMPDEST DUP1 DUP3 MUL DUP2 ISZERO DUP3 DUP3 DIV DUP5 EQ OR PUSH2 0x68A JUMPI PUSH2 0x68A PUSH2 0x2D7F JUMP JUMPDEST PUSH4 0x4E487B71 PUSH1 0xE0 SHL PUSH1 0x0 MSTORE PUSH1 0x41 PUSH1 0x4 MSTORE PUSH1 0x24 PUSH1 0x0 REVERT JUMPDEST PUSH1 0x0 DUP2 PUSH2 0x2F45 JUMPI PUSH2 0x2F45 PUSH2 0x2D7F JUMP JUMPDEST POP PUSH1 0x0 NOT ADD SWAP1 JUMP INVALID LOG2 PUSH5 0x6970667358 0x22 SLT KECCAK256 SWAP4 0x23 0xDD 0xF6 0xE3 SUB LOG1 DUP14 0xD1 JUMP 0xBE 0xC4 0xC4 MSTORE 0xAC EXTCODEHASH ADD PUSH32 0xC568D7F72AF83926AFAA71EBD4D564736F6C63430008120033DEC2BACDD2F05B MSIZE 0xDE CALLVALUE 0xDA SWAP12 MSTORE RETURNDATASIZE SELFDESTRUCT DUP12 0xE4 0x2E 0x5E CODESIZE 0xE8 XOR 0xC8 0x2F 0xDB SIGNEXTEND 0xAE PUSH24 0x4387A7240000000000000000000000000000000000000000 "
		},
		"gasEstimates": {
			"creation": {
				"codeDepositCost": "2432600",
				"executionCost": "infinite",
				"totalCost": "infinite"
			},
			"external": {
				"DEFAULT_ADMIN_ROLE()": "240",
				"DOMAIN_SEPARATOR()": "infinite",
				"MINTER_ROLE()": "239",
				"PAUSER_ROLE()": "327",
				"SNAPSHOT_ROLE()": "241",
				"allowance(address,address)": "infinite",
				"approve(address,uint256)": "24675",
				"balanceOf(address)": "2602",
				"balanceOfAt(address,uint256)": "infinite",
				"burn(uint256)": "infinite",
				"burnFrom(address,uint256)": "infinite",
				"checkpoints(address,uint32)": "5191",
				"decimals()": "267",
				"decreaseAllowance(address,uint256)": "27000",
				"delegate(address)": "infinite",
				"delegateBySig(address,uint256,uint256,uint8,bytes32,bytes32)": "infinite",
				"delegates(address)": "2606",
				"flashFee(address,uint256)": "555",
				"flashLoan(address,address,uint256,bytes)": "infinite",
				"getPastTotalSupply(uint256)": "infinite",
				"getPastVotes(address,uint256)": "infinite",
				"getRoleAdmin(bytes32)": "2490",
				"getVotes(address)": "7236",
				"grantRole(bytes32,address)": "infinite",
				"hasRole(bytes32,address)": "2720",
				"increaseAllowance(address,uint256)": "27122",
				"maxFlashLoan(address)": "infinite",
				"mint(address,uint256)": "infinite",
				"name()": "infinite",
				"nonces(address)": "2677",
				"numCheckpoints(address)": "2819",
				"pause()": "infinite",
				"paused()": "2382",
				"permit(address,address,uint256,uint256,uint8,bytes32,bytes32)": "infinite",
				"renounceRole(bytes32,address)": "29134",
				"revokeRole(bytes32,address)": "infinite",
				"snapshot()": "infinite",
				"supportsInterface(bytes4)": "473",
				"symbol()": "infinite",
				"totalSupply()": "2394",
				"totalSupplyAt(uint256)": "infinite",
				"transfer(address,uint256)": "infinite",
				"transferFrom(address,address,uint256)": "infinite",
				"unpause()": "infinite"
			},
			"internal": {
				"_afterTokenTransfer(address,address,uint256)": "infinite",
				"_beforeTokenTransfer(address,address,uint256)": "infinite",
				"_burn(address,uint256)": "infinite",
				"_mint(address,uint256)": "infinite"
			}
		},
		"methodIdentifiers": {
			"DEFAULT_ADMIN_ROLE()": "a217fddf",
			"DOMAIN_SEPARATOR()": "3644e515",
			"MINTER_ROLE()": "d5391393",
			"PAUSER_ROLE()": "e63ab1e9",
			"SNAPSHOT_ROLE()": "7028e2cd",
			"allowance(address,address)": "dd62ed3e",
			"approve(address,uint256)": "095ea7b3",
			"balanceOf(address)": "70a08231",
			"balanceOfAt(address,uint256)": "4ee2cd7e",
			"burn(uint256)": "42966c68",
			"burnFrom(address,uint256)": "79cc6790",
			"checkpoints(address,uint32)": "f1127ed8",
			"decimals()": "313ce567",
			"decreaseAllowance(address,uint256)": "a457c2d7",
			"delegate(address)": "5c19a95c",
			"delegateBySig(address,uint256,uint256,uint8,bytes32,bytes32)": "c3cda520",
			"delegates(address)": "587cde1e",
			"flashFee(address,uint256)": "d9d98ce4",
			"flashLoan(address,address,uint256,bytes)": "5cffe9de",
			"getPastTotalSupply(uint256)": "8e539e8c",
			"getPastVotes(address,uint256)": "3a46b1a8",
			"getRoleAdmin(bytes32)": "248a9ca3",
			"getVotes(address)": "9ab24eb0",
			"grantRole(bytes32,address)": "2f2ff15d",
			"hasRole(bytes32,address)": "91d14854",
			"increaseAllowance(address,uint256)": "39509351",
			"maxFlashLoan(address)": "613255ab",
			"mint(address,uint256)": "40c10f19",
			"name()": "06fdde03",
			"nonces(address)": "7ecebe00",
			"numCheckpoints(address)": "6fcfff45",
			"pause()": "8456cb59",
			"paused()": "5c975abb",
			"permit(address,address,uint256,uint256,uint8,bytes32,bytes32)": "d505accf",
			"renounceRole(bytes32,address)": "36568abe",
			"revokeRole(bytes32,address)": "d547741f",
			"snapshot()": "9711715a",
			"supportsInterface(bytes4)": "01ffc9a7",
			"symbol()": "95d89b41",
			"totalSupply()": "18160ddd",
			"totalSupplyAt(uint256)": "981b24d0",
			"transfer(address,uint256)": "a9059cbb",
			"transferFrom(address,address,uint256)": "23b872dd",
			"unpause()": "3f4ba83a"
		}
	},
	"abi": [
		{
			"inputs": [],
			"stateMutability": "nonpayable",
			"type": "constructor"
		},
		{
			"anonymous": false,
			"inputs": [
				{
					"indexed": true,
					"internalType": "address",
					"name": "owner",
					"type": "address"
				},
				{
					"indexed": true,
					"internalType": "address",
					"name": "spender",
					"type": "address"
				},
				{
					"indexed": false,
					"internalType": "uint256",
					"name": "value",
					"type": "uint256"
				}
			],
			"name": "Approval",
			"type": "event"
		},
		{
			"anonymous": false,
			"inputs": [
				{
					"indexed": true,
					"internalType": "address",
					"name": "delegator",
					"type": "address"
				},
				{
					"indexed": true,
					"internalType": "address",
					"name": "fromDelegate",
					"type": "address"
				},
				{
					"indexed": true,
					"internalType": "address",
					"name": "toDelegate",
					"type": "address"
				}
			],
			"name": "DelegateChanged",
			"type": "event"
		},
		{
			"anonymous": false,
			"inputs": [
				{
					"indexed": true,
					"internalType": "address",
					"name": "delegate",
					"type": "address"
				},
				{
					"indexed": false,
					"internalType": "uint256",
					"name": "previousBalance",
					"type": "uint256"
				},
				{
					"indexed": false,
					"internalType": "uint256",
					"name": "newBalance",
					"type": "uint256"
				}
			],
			"name": "DelegateVotesChanged",
			"type": "event"
		},
		{
			"anonymous": false,
			"inputs": [
				{
					"indexed": false,
					"internalType": "address",
					"name": "account",
					"type": "address"
				}
			],
			"name": "Paused",
			"type": "event"
		},
		{
			"anonymous": false,
			"inputs": [
				{
					"indexed": true,
					"internalType": "bytes32",
					"name": "role",
					"type": "bytes32"
				},
				{
					"indexed": true,
					"internalType": "bytes32",
					"name": "previousAdminRole",
					"type": "bytes32"
				},
				{
					"indexed": true,
					"internalType": "bytes32",
					"name": "newAdminRole",
					"type": "bytes32"
				}
			],
			"name": "RoleAdminChanged",
			"type": "event"
		},
		{
			"anonymous": false,
			"inputs": [
				{
					"indexed": true,
					"internalType": "bytes32",
					"name": "role",
					"type": "bytes32"
				},
				{
					"indexed": true,
					"internalType": "address",
					"name": "account",
					"type": "address"
				},
				{
					"indexed": true,
					"internalType": "address",
					"name": "sender",
					"type": "address"
				}
			],
			"name": "RoleGranted",
			"type": "event"
		},
		{
			"anonymous": false,
			"inputs": [
				{
					"indexed": true,
					"internalType": "bytes32",
					"name": "role",
					"type": "bytes32"
				},
				{
					"indexed": true,
					"internalType": "address",
					"name": "account",
					"type": "address"
				},
				{
					"indexed": true,
					"internalType": "address",
					"name": "sender",
					"type": "address"
				}
			],
			"name": "RoleRevoked",
			"type": "event"
		},
		{
			"anonymous": false,
			"inputs": [
				{
					"indexed": false,
					"internalType": "uint256",
					"name": "id",
					"type": "uint256"
				}
			],
			"name": "Snapshot",
			"type": "event"
		},
		{
			"anonymous": false,
			"inputs": [
				{
					"indexed": true,
					"internalType": "address",
					"name": "from",
					"type": "address"
				},
				{
					"indexed": true,
					"internalType": "address",
					"name": "to",
					"type": "address"
				},
				{
					"indexed": false,
					"internalType": "uint256",
					"name": "value",
					"type": "uint256"
				}
			],
			"name": "Transfer",
			"type": "event"
		},
		{
			"anonymous": false,
			"inputs": [
				{
					"indexed": false,
					"internalType": "address",
					"name": "account",
					"type": "address"
				}
			],
			"name": "Unpaused",
			"type": "event"
		},
		{
			"inputs": [],
			"name": "DEFAULT_ADMIN_ROLE",
			"outputs": [
				{
					"internalType": "bytes32",
					"name": "",
					"type": "bytes32"
				}
			],
			"stateMutability": "view",
			"type": "function"
		},
		{
			"inputs": [],
			"name": "DOMAIN_SEPARATOR",
			"outputs": [
				{
					"internalType": "bytes32",
					"name": "",
					"type": "bytes32"
				}
			],
			"stateMutability": "view",
			"type": "function"
		},
		{
			"inputs": [],
			"name": "MINTER_ROLE",
			"outputs": [
				{
					"internalType": "bytes32",
					"name": "",
					"type": "bytes32"
				}
			],
			"stateMutability": "view",
			"type": "function"
		},
		{
			"inputs": [],
			"name": "PAUSER_ROLE",
			"outputs": [
				{
					"internalType": "bytes32",
					"name": "",
					"type": "bytes32"
				}
			],
			"stateMutability": "view",
			"type": "function"
		},
		{
			"inputs": [],
			"name": "SNAPSHOT_ROLE",
			"outputs": [
				{
					"internalType": "bytes32",
					"name": "",
					"type": "bytes32"
				}
			],
			"stateMutability": "view",
			"type": "function"
		},
		{
			"inputs": [
				{
					"internalType": "address",
					"name": "owner",
					"type": "address"
				},
				{
					"internalType": "address",
					"name": "spender",
					"type": "address"
				}
			],
			"name": "allowance",
			"outputs": [
				{
					"internalType": "uint256",
					"name": "",
					"type": "uint256"
				}
			],
			"stateMutability": "view",
			"type": "function"
		},
		{
			"inputs": [
				{
					"internalType": "address",
					"name": "spender",
					"type": "address"
				},
				{
					"internalType": "uint256",
					"name": "amount",
					"type": "uint256"
				}
			],
			"name": "approve",
			"outputs": [
				{
					"internalType": "bool",
					"name": "",
					"type": "bool"
				}
			],
			"stateMutability": "nonpayable",
			"type": "function"
		},
		{
			"inputs": [
				{
					"internalType": "address",
					"name": "account",
					"type": "address"
				}
			],
			"name": "balanceOf",
			"outputs": [
				{
					"internalType": "uint256",
					"name": "",
					"type": "uint256"
				}
			],
			"stateMutability": "view",
			"type": "function"
		},
		{
			"inputs": [
				{
					"internalType": "address",
					"name": "account",
					"type": "address"
				},
				{
					"internalType": "uint256",
					"name": "snapshotId",
					"type": "uint256"
				}
			],
			"name": "balanceOfAt",
			"outputs": [
				{
					"internalType": "uint256",
					"name": "",
					"type": "uint256"
				}
			],
			"stateMutability": "view",
			"type": "function"
		},
		{
			"inputs": [
				{
					"internalType": "uint256",
					"name": "amount",
					"type": "uint256"
				}
			],
			"name": "burn",
			"outputs": [],
			"stateMutability": "nonpayable",
			"type": "function"
		},
		{
			"inputs": [
				{
					"internalType": "address",
					"name": "account",
					"type": "address"
				},
				{
					"internalType": "uint256",
					"name": "amount",
					"type": "uint256"
				}
			],
			"name": "burnFrom",
			"outputs": [],
			"stateMutability": "nonpayable",
			"type": "function"
		},
		{
			"inputs": [
				{
					"internalType": "address",
					"name": "account",
					"type": "address"
				},
				{
					"internalType": "uint32",
					"name": "pos",
					"type": "uint32"
				}
			],
			"name": "checkpoints",
			"outputs": [
				{
					"components": [
						{
							"internalType": "uint32",
							"name": "fromBlock",
							"type": "uint32"
						},
						{
							"internalType": "uint224",
							"name": "votes",
							"type": "uint224"
						}
					],
					"internalType": "struct ERC20Votes.Checkpoint",
					"name": "",
					"type": "tuple"
				}
			],
			"stateMutability": "view",
			"type": "function"
		},
		{
			"inputs": [],
			"name": "decimals",
			"outputs": [
				{
					"internalType": "uint8",
					"name": "",
					"type": "uint8"
				}
			],
			"stateMutability": "view",
			"type": "function"
		},
		{
			"inputs": [
				{
					"internalType": "address",
					"name": "spender",
					"type": "address"
				},
				{
					"internalType": "uint256",
					"name": "subtractedValue",
					"type": "uint256"
				}
			],
			"name": "decreaseAllowance",
			"outputs": [
				{
					"internalType": "bool",
					"name": "",
					"type": "bool"
				}
			],
			"stateMutability": "nonpayable",
			"type": "function"
		},
		{
			"inputs": [
				{
					"internalType": "address",
					"name": "delegatee",
					"type": "address"
				}
			],
			"name": "delegate",
			"outputs": [],
			"stateMutability": "nonpayable",
			"type": "function"
		},
		{
			"inputs": [
				{
					"internalType": "address",
					"name": "delegatee",
					"type": "address"
				},
				{
					"internalType": "uint256",
					"name": "nonce",
					"type": "uint256"
				},
				{
					"internalType": "uint256",
					"name": "expiry",
					"type": "uint256"
				},
				{
					"internalType": "uint8",
					"name": "v",
					"type": "uint8"
				},
				{
					"internalType": "bytes32",
					"name": "r",
					"type": "bytes32"
				},
				{
					"internalType": "bytes32",
					"name": "s",
					"type": "bytes32"
				}
			],
			"name": "delegateBySig",
			"outputs": [],
			"stateMutability": "nonpayable",
			"type": "function"
		},
		{
			"inputs": [
				{
					"internalType": "address",
					"name": "account",
					"type": "address"
				}
			],
			"name": "delegates",
			"outputs": [
				{
					"internalType": "address",
					"name": "",
					"type": "address"
				}
			],
			"stateMutability": "view",
			"type": "function"
		},
		{
			"inputs": [
				{
					"internalType": "address",
					"name": "token",
					"type": "address"
				},
				{
					"internalType": "uint256",
					"name": "amount",
					"type": "uint256"
				}
			],
			"name": "flashFee",
			"outputs": [
				{
					"internalType": "uint256",
					"name": "",
					"type": "uint256"
				}
			],
			"stateMutability": "view",
			"type": "function"
		},
		{
			"inputs": [
				{
					"internalType": "contract IERC3156FlashBorrower",
					"name": "receiver",
					"type": "address"
				},
				{
					"internalType": "address",
					"name": "token",
					"type": "address"
				},
				{
					"internalType": "uint256",
					"name": "amount",
					"type": "uint256"
				},
				{
					"internalType": "bytes",
					"name": "data",
					"type": "bytes"
				}
			],
			"name": "flashLoan",
			"outputs": [
				{
					"internalType": "bool",
					"name": "",
					"type": "bool"
				}
			],
			"stateMutability": "nonpayable",
			"type": "function"
		},
		{
			"inputs": [
				{
					"internalType": "uint256",
					"name": "blockNumber",
					"type": "uint256"
				}
			],
			"name": "getPastTotalSupply",
			"outputs": [
				{
					"internalType": "uint256",
					"name": "",
					"type": "uint256"
				}
			],
			"stateMutability": "view",
			"type": "function"
		},
		{
			"inputs": [
				{
					"internalType": "address",
					"name": "account",
					"type": "address"
				},
				{
					"internalType": "uint256",
					"name": "blockNumber",
					"type": "uint256"
				}
			],
			"name": "getPastVotes",
			"outputs": [
				{
					"internalType": "uint256",
					"name": "",
					"type": "uint256"
				}
			],
			"stateMutability": "view",
			"type": "function"
		},
		{
			"inputs": [
				{
					"internalType": "bytes32",
					"name": "role",
					"type": "bytes32"
				}
			],
			"name": "getRoleAdmin",
			"outputs": [
				{
					"internalType": "bytes32",
					"name": "",
					"type": "bytes32"
				}
			],
			"stateMutability": "view",
			"type": "function"
		},
		{
			"inputs": [
				{
					"internalType": "address",
					"name": "account",
					"type": "address"
				}
			],
			"name": "getVotes",
			"outputs": [
				{
					"internalType": "uint256",
					"name": "",
					"type": "uint256"
				}
			],
			"stateMutability": "view",
			"type": "function"
		},
		{
			"inputs": [
				{
					"internalType": "bytes32",
					"name": "role",
					"type": "bytes32"
				},
				{
					"internalType": "address",
					"name": "account",
					"type": "address"
				}
			],
			"name": "grantRole",
			"outputs": [],
			"stateMutability": "nonpayable",
			"type": "function"
		},
		{
			"inputs": [
				{
					"internalType": "bytes32",
					"name": "role",
					"type": "bytes32"
				},
				{
					"internalType": "address",
					"name": "account",
					"type": "address"
				}
			],
			"name": "hasRole",
			"outputs": [
				{
					"internalType": "bool",
					"name": "",
					"type": "bool"
				}
			],
			"stateMutability": "view",
			"type": "function"
		},
		{
			"inputs": [
				{
					"internalType": "address",
					"name": "spender",
					"type": "address"
				},
				{
					"internalType": "uint256",
					"name": "addedValue",
					"type": "uint256"
				}
			],
			"name": "increaseAllowance",
			"outputs": [
				{
					"internalType": "bool",
					"name": "",
					"type": "bool"
				}
			],
			"stateMutability": "nonpayable",
			"type": "function"
		},
		{
			"inputs": [
				{
					"internalType": "address",
					"name": "token",
					"type": "address"
				}
			],
			"name": "maxFlashLoan",
			"outputs": [
				{
					"internalType": "uint256",
					"name": "",
					"type": "uint256"
				}
			],
			"stateMutability": "view",
			"type": "function"
		},
		{
			"inputs": [
				{
					"internalType": "address",
					"name": "to",
					"type": "address"
				},
				{
					"internalType": "uint256",
					"name": "amount",
					"type": "uint256"
				}
			],
			"name": "mint",
			"outputs": [],
			"stateMutability": "nonpayable",
			"type": "function"
		},
		{
			"inputs": [],
			"name": "name",
			"outputs": [
				{
					"internalType": "string",
					"name": "",
					"type": "string"
				}
			],
			"stateMutability": "view",
			"type": "function"
		},
		{
			"inputs": [
				{
					"internalType": "address",
					"name": "owner",
					"type": "address"
				}
			],
			"name": "nonces",
			"outputs": [
				{
					"internalType": "uint256",
					"name": "",
					"type": "uint256"
				}
			],
			"stateMutability": "view",
			"type": "function"
		},
		{
			"inputs": [
				{
					"internalType": "address",
					"name": "account",
					"type": "address"
				}
			],
			"name": "numCheckpoints",
			"outputs": [
				{
					"internalType": "uint32",
					"name": "",
					"type": "uint32"
				}
			],
			"stateMutability": "view",
			"type": "function"
		},
		{
			"inputs": [],
			"name": "pause",
			"outputs": [],
			"stateMutability": "nonpayable",
			"type": "function"
		},
		{
			"inputs": [],
			"name": "paused",
			"outputs": [
				{
					"internalType": "bool",
					"name": "",
					"type": "bool"
				}
			],
			"stateMutability": "view",
			"type": "function"
		},
		{
			"inputs": [
				{
					"internalType": "address",
					"name": "owner",
					"type": "address"
				},
				{
					"internalType": "address",
					"name": "spender",
					"type": "address"
				},
				{
					"internalType": "uint256",
					"name": "value",
					"type": "uint256"
				},
				{
					"internalType": "uint256",
					"name": "deadline",
					"type": "uint256"
				},
				{
					"internalType": "uint8",
					"name": "v",
					"type": "uint8"
				},
				{
					"internalType": "bytes32",
					"name": "r",
					"type": "bytes32"
				},
				{
					"internalType": "bytes32",
					"name": "s",
					"type": "bytes32"
				}
			],
			"name": "permit",
			"outputs": [],
			"stateMutability": "nonpayable",
			"type": "function"
		},
		{
			"inputs": [
				{
					"internalType": "bytes32",
					"name": "role",
					"type": "bytes32"
				},
				{
					"internalType": "address",
					"name": "account",
					"type": "address"
				}
			],
			"name": "renounceRole",
			"outputs": [],
			"stateMutability": "nonpayable",
			"type": "function"
		},
		{
			"inputs": [
				{
					"internalType": "bytes32",
					"name": "role",
					"type": "bytes32"
				},
				{
					"internalType": "address",
					"name": "account",
					"type": "address"
				}
			],
			"name": "revokeRole",
			"outputs": [],
			"stateMutability": "nonpayable",
			"type": "function"
		},
		{
			"inputs": [],
			"name": "snapshot",
			"outputs": [],
			"stateMutability": "nonpayable",
			"type": "function"
		},
		{
			"inputs": [
				{
					"internalType": "bytes4",
					"name": "interfaceId",
					"type": "bytes4"
				}
			],
			"name": "supportsInterface",
			"outputs": [
				{
					"internalType": "bool",
					"name": "",
					"type": "bool"
				}
			],
			"stateMutability": "view",
			"type": "function"
		},
		{
			"inputs": [],
			"name": "symbol",
			"outputs": [
				{
					"internalType": "string",
					"name": "",
					"type": "string"
				}
			],
			"stateMutability": "view",
			"type": "function"
		},
		{
			"inputs": [],
			"name": "totalSupply",
			"outputs": [
				{
					"internalType": "uint256",
					"name": "",
					"type": "uint256"
				}
			],
			"stateMutability": "view",
			"type": "function"
		},
		{
			"inputs": [
				{
					"internalType": "uint256",
					"name": "snapshotId",
					"type": "uint256"
				}
			],
			"name": "totalSupplyAt",
			"outputs": [
				{
					"internalType": "uint256",
					"name": "",
					"type": "uint256"
				}
			],
			"stateMutability": "view",
			"type": "function"
		},
		{
			"inputs": [
				{
					"internalType": "address",
					"name": "to",
					"type": "address"
				},
				{
					"internalType": "uint256",
					"name": "amount",
					"type": "uint256"
				}
			],
			"name": "transfer",
			"outputs": [
				{
					"internalType": "bool",
					"name": "",
					"type": "bool"
				}
			],
			"stateMutability": "nonpayable",
			"type": "function"
		},
		{
			"inputs": [
				{
					"internalType": "address",
					"name": "from",
					"type": "address"
				},
				{
					"internalType": "address",
					"name": "to",
					"type": "address"
				},
				{
					"internalType": "uint256",
					"name": "amount",
					"type": "uint256"
				}
			],
			"name": "transferFrom",
			"outputs": [
				{
					"internalType": "bool",
					"name": "",
					"type": "bool"
				}
			],
			"stateMutability": "nonpayable",
			"type": "function"
		},
		{
			"inputs": [],
			"name": "unpause",
			"outputs": [],
			"stateMutability": "nonpayable",
			"type": "function"
		}
	]
}