{
	"data": {
		"bytecode": {
			"linkReferences": {},
			"object": "608060405260646000806101000a81548160ff021916908360ff16021790555034801561002b57600080fd5b506102628061003b6000396000f3fe608060405234801561001057600080fd5b50600436106100415760003560e01c806318a1fcdc14610046578063b798c42414610050578063e6c48a841461005a575b600080fd5b61004e610064565b005b6100586100c0565b005b61006261012b565b005b60005b60648160ff1610156100bd577f0f64abd31fd9a17efc95c4556df546d8798c94364fa22e529bfd36facad4d242816040516100a291906101b9565b60405180910390a180806100b590610203565b915050610067565b50565b60005b60008054906101000a900460ff1660ff168160ff161015610128577f0f64abd31fd9a17efc95c4556df546d8798c94364fa22e529bfd36facad4d2428160405161010d91906101b9565b60405180910390a1808061012090610203565b9150506100c3565b50565b60008060009054906101000a900460ff16905060005b8160ff168160ff161015610199577f0f64abd31fd9a17efc95c4556df546d8798c94364fa22e529bfd36facad4d2428160405161017e91906101b9565b60405180910390a1808061019190610203565b915050610141565b5050565b600060ff82169050919050565b6101b38161019d565b82525050565b60006020820190506101ce60008301846101aa565b92915050565b7f4e487b7100000000000000000000000000000000000000000000000000000000600052601160045260246000fd5b600061020e8261019d565b915060ff8203610221576102206101d4565b5b60018201905091905056fea2646970667358221220ef4978cfea5070f7f690ec05b3fcaba5530e7738ffc73869fc9bb825adf1af7564736f6c63430008120033",
			"opcodes": "PUSH1 0x80 PUSH1 0x40 MSTORE PUSH1 0x64 PUSH1 0x0 DUP1 PUSH2 0x100 EXP DUP2 SLOAD DUP2 PUSH1 0xFF MUL NOT AND SWAP1 DUP4 PUSH1 0xFF AND MUL OR SWAP1 SSTORE POP CALLVALUE DUP1 ISZERO PUSH2 0x2B JUMPI PUSH1 0x0 DUP1 REVERT JUMPDEST POP PUSH2 0x262 DUP1 PUSH2 0x3B PUSH1 0x0 CODECOPY PUSH1 0x0 RETURN INVALID PUSH1 0x80 PUSH1 0x40 MSTORE CALLVALUE DUP1 ISZERO PUSH2 0x10 JUMPI PUSH1 0x0 DUP1 REVERT JUMPDEST POP PUSH1 0x4 CALLDATASIZE LT PUSH2 0x41 JUMPI PUSH1 0x0 CALLDATALOAD PUSH1 0xE0 SHR DUP1 PUSH4 0x18A1FCDC EQ PUSH2 0x46 JUMPI DUP1 PUSH4 0xB798C424 EQ PUSH2 0x50 JUMPI DUP1 PUSH4 0xE6C48A84 EQ PUSH2 0x5A JUMPI JUMPDEST PUSH1 0x0 DUP1 REVERT JUMPDEST PUSH2 0x4E PUSH2 0x64 JUMP JUMPDEST STOP JUMPDEST PUSH2 0x58 PUSH2 0xC0 JUMP JUMPDEST STOP JUMPDEST PUSH2 0x62 PUSH2 0x12B JUMP JUMPDEST STOP JUMPDEST PUSH1 0x0 JUMPDEST PUSH1 0x64 DUP2 PUSH1 0xFF AND LT ISZERO PUSH2 0xBD JUMPI PUSH32 0xF64ABD31FD9A17EFC95C4556DF546D8798C94364FA22E529BFD36FACAD4D242 DUP2 PUSH1 0x40 MLOAD PUSH2 0xA2 SWAP2 SWAP1 PUSH2 0x1B9 JUMP JUMPDEST PUSH1 0x40 MLOAD DUP1 SWAP2 SUB SWAP1 LOG1 DUP1 DUP1 PUSH2 0xB5 SWAP1 PUSH2 0x203 JUMP JUMPDEST SWAP2 POP POP PUSH2 0x67 JUMP JUMPDEST POP JUMP JUMPDEST PUSH1 0x0 JUMPDEST PUSH1 0x0 DUP1 SLOAD SWAP1 PUSH2 0x100 EXP SWAP1 DIV PUSH1 0xFF AND PUSH1 0xFF AND DUP2 PUSH1 0xFF AND LT ISZERO PUSH2 0x128 JUMPI PUSH32 0xF64ABD31FD9A17EFC95C4556DF546D8798C94364FA22E529BFD36FACAD4D242 DUP2 PUSH1 0x40 MLOAD PUSH2 0x10D SWAP2 SWAP1 PUSH2 0x1B9 JUMP JUMPDEST PUSH1 0x40 MLOAD DUP1 SWAP2 SUB SWAP1 LOG1 DUP1 DUP1 PUSH2 0x120 SWAP1 PUSH2 0x203 JUMP JUMPDEST SWAP2 POP POP PUSH2 0xC3 JUMP JUMPDEST POP JUMP JUMPDEST PUSH1 0x0 DUP1 PUSH1 0x0 SWAP1 SLOAD SWAP1 PUSH2 0x100 EXP SWAP1 DIV PUSH1 0xFF AND SWAP1 POP PUSH1 0x0 JUMPDEST DUP2 PUSH1 0xFF AND DUP2 PUSH1 0xFF AND LT ISZERO PUSH2 0x199 JUMPI PUSH32 0xF64ABD31FD9A17EFC95C4556DF546D8798C94364FA22E529BFD36FACAD4D242 DUP2 PUSH1 0x40 MLOAD PUSH2 0x17E SWAP2 SWAP1 PUSH2 0x1B9 JUMP JUMPDEST PUSH1 0x40 MLOAD DUP1 SWAP2 SUB SWAP1 LOG1 DUP1 DUP1 PUSH2 0x191 SWAP1 PUSH2 0x203 JUMP JUMPDEST SWAP2 POP POP PUSH2 0x141 JUMP JUMPDEST POP POP JUMP JUMPDEST PUSH1 0x0 PUSH1 0xFF DUP3 AND SWAP1 POP SWAP2 SWAP1 POP JUMP JUMPDEST PUSH2 0x1B3 DUP2 PUSH2 0x19D JUMP JUMPDEST DUP3 MSTORE POP POP JUMP JUMPDEST PUSH1 0x0 PUSH1 0x20 DUP3 ADD SWAP1 POP PUSH2 0x1CE PUSH1 0x0 DUP4 ADD DUP5 PUSH2 0x1AA JUMP JUMPDEST SWAP3 SWAP2 POP POP JUMP JUMPDEST PUSH32 0x4E487B7100000000000000000000000000000000000000000000000000000000 PUSH1 0x0 MSTORE PUSH1 0x11 PUSH1 0x4 MSTORE PUSH1 0x24 PUSH1 0x0 REVERT JUMPDEST PUSH1 0x0 PUSH2 0x20E DUP3 PUSH2 0x19D JUMP JUMPDEST SWAP2 POP PUSH1 0xFF DUP3 SUB PUSH2 0x221 JUMPI PUSH2 0x220 PUSH2 0x1D4 JUMP JUMPDEST JUMPDEST PUSH1 0x1 DUP3 ADD SWAP1 POP SWAP2 SWAP1 POP JUMP INVALID LOG2 PUSH5 0x6970667358 0x22 SLT KECCAK256 0xEF 0x49 PUSH25 0xCFEA5070F7F690EC05B3FCABA5530E7738FFC73869FC9BB825 0xAD CALL 0xAF PUSH22 0x64736F6C634300081200330000000000000000000000 "
		},
		"gasEstimates": {
			"creation": {
				"codeDepositCost": "122000",
				"executionCost": "24438",
				"totalCost": "146438"
			},
			"external": {
				"emitNumber1()": "infinite",
				"emitNumber2()": "infinite",
				"emitNumber3()": "infinite"
			}
		},
		"methodIdentifiers": {
			"emitNumber1()": "b798c424",
			"emitNumber2()": "e6c48a84",
			"emitNumber3()": "18a1fcdc"
		}
	},
	"abi": [
		{
			"anonymous": false,
			"inputs": [
				{
					"indexed": false,
					"internalType": "uint8",
					"name": "",
					"type": "uint8"
				}
			],
			"name": "Number",
			"type": "event"
		},
		{
			"inputs": [],
			"name": "emitNumber1",
			"outputs": [],
			"stateMutability": "nonpayable",
			"type": "function"
		},
		{
			"inputs": [],
			"name": "emitNumber2",
			"outputs": [],
			"stateMutability": "nonpayable",
			"type": "function"
		},
		{
			"inputs": [],
			"name": "emitNumber3",
			"outputs": [],
			"stateMutability": "nonpayable",
			"type": "function"
		}
	]
}