{
	"data": {
		"bytecode": {
			"linkReferences": {},
			"object": "608060405234801561001057600080fd5b50610115806100206000396000f3fe6080604052348015600f57600080fd5b506004361060285760003560e01c8063200d2ed214602d575b600080fd5b60336047565b604051603e919060c6565b60405180910390f35b60008054906101000a900460ff1681565b7f4e487b7100000000000000000000000000000000000000000000000000000000600052602160045260246000fd5b6005811060955760946058565b5b50565b600081905060a4826087565b919050565b600060b2826098565b9050919050565b60c08160a9565b82525050565b600060208201905060d9600083018460b9565b9291505056fea2646970667358221220118f63cfd6d2138929165843bf3591f94e3af4017776171700ab9c4753c1adb964736f6c63430008120033",
			"opcodes": "PUSH1 0x80 PUSH1 0x40 MSTORE CALLVALUE DUP1 ISZERO PUSH2 0x10 JUMPI PUSH1 0x0 DUP1 REVERT JUMPDEST POP PUSH2 0x115 DUP1 PUSH2 0x20 PUSH1 0x0 CODECOPY PUSH1 0x0 RETURN INVALID PUSH1 0x80 PUSH1 0x40 MSTORE CALLVALUE DUP1 ISZERO PUSH1 0xF JUMPI PUSH1 0x0 DUP1 REVERT JUMPDEST POP PUSH1 0x4 CALLDATASIZE LT PUSH1 0x28 JUMPI PUSH1 0x0 CALLDATALOAD PUSH1 0xE0 SHR DUP1 PUSH4 0x200D2ED2 EQ PUSH1 0x2D JUMPI JUMPDEST PUSH1 0x0 DUP1 REVERT JUMPDEST PUSH1 0x33 PUSH1 0x47 JUMP JUMPDEST PUSH1 0x40 MLOAD PUSH1 0x3E SWAP2 SWAP1 PUSH1 0xC6 JUMP JUMPDEST PUSH1 0x40 MLOAD DUP1 SWAP2 SUB SWAP1 RETURN JUMPDEST PUSH1 0x0 DUP1 SLOAD SWAP1 PUSH2 0x100 EXP SWAP1 DIV PUSH1 0xFF AND DUP2 JUMP JUMPDEST PUSH32 0x4E487B7100000000000000000000000000000000000000000000000000000000 PUSH1 0x0 MSTORE PUSH1 0x21 PUSH1 0x4 MSTORE PUSH1 0x24 PUSH1 0x0 REVERT JUMPDEST PUSH1 0x5 DUP2 LT PUSH1 0x95 JUMPI PUSH1 0x94 PUSH1 0x58 JUMP JUMPDEST JUMPDEST POP JUMP JUMPDEST PUSH1 0x0 DUP2 SWAP1 POP PUSH1 0xA4 DUP3 PUSH1 0x87 JUMP JUMPDEST SWAP2 SWAP1 POP JUMP JUMPDEST PUSH1 0x0 PUSH1 0xB2 DUP3 PUSH1 0x98 JUMP JUMPDEST SWAP1 POP SWAP2 SWAP1 POP JUMP JUMPDEST PUSH1 0xC0 DUP2 PUSH1 0xA9 JUMP JUMPDEST DUP3 MSTORE POP POP JUMP JUMPDEST PUSH1 0x0 PUSH1 0x20 DUP3 ADD SWAP1 POP PUSH1 0xD9 PUSH1 0x0 DUP4 ADD DUP5 PUSH1 0xB9 JUMP JUMPDEST SWAP3 SWAP2 POP POP JUMP INVALID LOG2 PUSH5 0x6970667358 0x22 SLT KECCAK256 GT DUP16 PUSH4 0xCFD6D213 DUP10 0x29 AND PC NUMBER 0xBF CALLDATALOAD SWAP2 0xF9 0x4E GASPRICE DELEGATECALL ADD PUSH24 0x76171700AB9C4753C1ADB964736F6C634300081200330000 "
		},
		"gasEstimates": {
			"creation": {
				"codeDepositCost": "55400",
				"executionCost": "105",
				"totalCost": "55505"
			},
			"external": {
				"status()": "2535"
			}
		},
		"methodIdentifiers": {
			"status()": "200d2ed2"
		}
	},
	"abi": [
		{
			"inputs": [],
			"name": "status",
			"outputs": [
				{
					"internalType": "enum Enum.Status",
					"name": "",
					"type": "uint8"
				}
			],
			"stateMutability": "view",
			"type": "function"
		}
	]
}