{
	"data": {
		"bytecode": {
			"linkReferences": {},
			"object": "608060405234801561001057600080fd5b5061083d806100206000396000f3fe608060405234801561001057600080fd5b50600436106100b45760003560e01c8063ab0bcc4111610071578063ab0bcc411461017f578063ad7d5f0c1461019d578063b187bd26146101bb578063bff172a2146101d9578063f2aa821814610209578063f851a44014610239576100b4565b806317d70f7c146100b957806318160ddd146100d7578063314203b0146100f55780635a980a0f146101255780635c474f9e1461014357806387a1175d14610161575b600080fd5b6100c1610257565b6040516100ce919061045c565b60405180910390f35b6100df610269565b6040516100ec919061045c565b60405180910390f35b61010f600480360381019061010a91906105d1565b61027d565b60405161011c9190610633565b60405180910390f35b61012d610294565b60405161013a9190610633565b60405180910390f35b61014b6102d9565b6040516101589190610669565b60405180910390f35b6101696102ec565b6040516101769190610633565b60405180910390f35b610187610331565b60405161019491906106af565b60405180910390f35b6101a5610353565b6040516101b29190610633565b60405180910390f35b6101c3610398565b6040516101d09190610669565b60405180910390f35b6101f360048036038101906101ee91906105d1565b6103ab565b6040516102009190610633565b60405180910390f35b610223600480360381019061021e91906106f6565b6103e3565b6040516102309190610764565b60405180910390f35b610241610419565b60405161024e9190610764565b60405180910390f35b60008054906101000a900461ffff1681565b600160119054906101000a900461ffff1681565b600080610289836103ab565b905080915050919050565b60006102d46040518060400160405280600881526020017f70617373776f726400000000000000000000000000000000000000000000000081525061027d565b905090565b600160109054906101000a900460ff1681565b600061032c6040518060400160405280600b81526020017f746f74616c537570706c7900000000000000000000000000000000000000000081525061027d565b905090565b600160009054906101000a90046fffffffffffffffffffffffffffffffff1681565b60006103936040518060400160405280600981526020017f6275796572735b305d000000000000000000000000000000000000000000000081525061027d565b905090565b600560009054906101000a900460ff1681565b600080826040516020016103bf91906107f0565b6040516020818303038152906040528051906020012090508060001c915050919050565b600281600281106103f357600080fd5b016000915054906101000a900473ffffffffffffffffffffffffffffffffffffffff1681565b600060029054906101000a900473ffffffffffffffffffffffffffffffffffffffff1681565b600061ffff82169050919050565b6104568161043f565b82525050565b6000602082019050610471600083018461044d565b92915050565b6000604051905090565b600080fd5b600080fd5b600080fd5b600080fd5b6000601f19601f8301169050919050565b7f4e487b7100000000000000000000000000000000000000000000000000000000600052604160045260246000fd5b6104de82610495565b810181811067ffffffffffffffff821117156104fd576104fc6104a6565b5b80604052505050565b6000610510610477565b905061051c82826104d5565b919050565b600067ffffffffffffffff82111561053c5761053b6104a6565b5b61054582610495565b9050602081019050919050565b82818337600083830152505050565b600061057461056f84610521565b610506565b9050828152602081018484840111156105905761058f610490565b5b61059b848285610552565b509392505050565b600082601f8301126105b8576105b761048b565b5b81356105c8848260208601610561565b91505092915050565b6000602082840312156105e7576105e6610481565b5b600082013567ffffffffffffffff81111561060557610604610486565b5b610611848285016105a3565b91505092915050565b6000819050919050565b61062d8161061a565b82525050565b60006020820190506106486000830184610624565b92915050565b60008115159050919050565b6106638161064e565b82525050565b600060208201905061067e600083018461065a565b92915050565b60006fffffffffffffffffffffffffffffffff82169050919050565b6106a981610684565b82525050565b60006020820190506106c460008301846106a0565b92915050565b6106d38161061a565b81146106de57600080fd5b50565b6000813590506106f0816106ca565b92915050565b60006020828403121561070c5761070b610481565b5b600061071a848285016106e1565b91505092915050565b600073ffffffffffffffffffffffffffffffffffffffff82169050919050565b600061074e82610723565b9050919050565b61075e81610743565b82525050565b60006020820190506107796000830184610755565b92915050565b600081519050919050565b600081905092915050565b60005b838110156107b3578082015181840152602081019050610798565b60008484015250505050565b60006107ca8261077f565b6107d4818561078a565b93506107e4818560208601610795565b80840191505092915050565b60006107fc82846107bf565b91508190509291505056fea2646970667358221220b1a370df4af182eed91b2dd7cde38bac20e2b3d29146dc2d10de842dbabf935864736f6c63430008120033",
			"opcodes": "PUSH1 0x80 PUSH1 0x40 MSTORE CALLVALUE DUP1 ISZERO PUSH2 0x10 JUMPI PUSH1 0x0 DUP1 REVERT JUMPDEST POP PUSH2 0x83D DUP1 PUSH2 0x20 PUSH1 0x0 CODECOPY PUSH1 0x0 RETURN INVALID PUSH1 0x80 PUSH1 0x40 MSTORE CALLVALUE DUP1 ISZERO PUSH2 0x10 JUMPI PUSH1 0x0 DUP1 REVERT JUMPDEST POP PUSH1 0x4 CALLDATASIZE LT PUSH2 0xB4 JUMPI PUSH1 0x0 CALLDATALOAD PUSH1 0xE0 SHR DUP1 PUSH4 0xAB0BCC41 GT PUSH2 0x71 JUMPI DUP1 PUSH4 0xAB0BCC41 EQ PUSH2 0x17F JUMPI DUP1 PUSH4 0xAD7D5F0C EQ PUSH2 0x19D JUMPI DUP1 PUSH4 0xB187BD26 EQ PUSH2 0x1BB JUMPI DUP1 PUSH4 0xBFF172A2 EQ PUSH2 0x1D9 JUMPI DUP1 PUSH4 0xF2AA8218 EQ PUSH2 0x209 JUMPI DUP1 PUSH4 0xF851A440 EQ PUSH2 0x239 JUMPI PUSH2 0xB4 JUMP JUMPDEST DUP1 PUSH4 0x17D70F7C EQ PUSH2 0xB9 JUMPI DUP1 PUSH4 0x18160DDD EQ PUSH2 0xD7 JUMPI DUP1 PUSH4 0x314203B0 EQ PUSH2 0xF5 JUMPI DUP1 PUSH4 0x5A980A0F EQ PUSH2 0x125 JUMPI DUP1 PUSH4 0x5C474F9E EQ PUSH2 0x143 JUMPI DUP1 PUSH4 0x87A1175D EQ PUSH2 0x161 JUMPI JUMPDEST PUSH1 0x0 DUP1 REVERT JUMPDEST PUSH2 0xC1 PUSH2 0x257 JUMP JUMPDEST PUSH1 0x40 MLOAD PUSH2 0xCE SWAP2 SWAP1 PUSH2 0x45C JUMP JUMPDEST PUSH1 0x40 MLOAD DUP1 SWAP2 SUB SWAP1 RETURN JUMPDEST PUSH2 0xDF PUSH2 0x269 JUMP JUMPDEST PUSH1 0x40 MLOAD PUSH2 0xEC SWAP2 SWAP1 PUSH2 0x45C JUMP JUMPDEST PUSH1 0x40 MLOAD DUP1 SWAP2 SUB SWAP1 RETURN JUMPDEST PUSH2 0x10F PUSH1 0x4 DUP1 CALLDATASIZE SUB DUP2 ADD SWAP1 PUSH2 0x10A SWAP2 SWAP1 PUSH2 0x5D1 JUMP JUMPDEST PUSH2 0x27D JUMP JUMPDEST PUSH1 0x40 MLOAD PUSH2 0x11C SWAP2 SWAP1 PUSH2 0x633 JUMP JUMPDEST PUSH1 0x40 MLOAD DUP1 SWAP2 SUB SWAP1 RETURN JUMPDEST PUSH2 0x12D PUSH2 0x294 JUMP JUMPDEST PUSH1 0x40 MLOAD PUSH2 0x13A SWAP2 SWAP1 PUSH2 0x633 JUMP JUMPDEST PUSH1 0x40 MLOAD DUP1 SWAP2 SUB SWAP1 RETURN JUMPDEST PUSH2 0x14B PUSH2 0x2D9 JUMP JUMPDEST PUSH1 0x40 MLOAD PUSH2 0x158 SWAP2 SWAP1 PUSH2 0x669 JUMP JUMPDEST PUSH1 0x40 MLOAD DUP1 SWAP2 SUB SWAP1 RETURN JUMPDEST PUSH2 0x169 PUSH2 0x2EC JUMP JUMPDEST PUSH1 0x40 MLOAD PUSH2 0x176 SWAP2 SWAP1 PUSH2 0x633 JUMP JUMPDEST PUSH1 0x40 MLOAD DUP1 SWAP2 SUB SWAP1 RETURN JUMPDEST PUSH2 0x187 PUSH2 0x331 JUMP JUMPDEST PUSH1 0x40 MLOAD PUSH2 0x194 SWAP2 SWAP1 PUSH2 0x6AF JUMP JUMPDEST PUSH1 0x40 MLOAD DUP1 SWAP2 SUB SWAP1 RETURN JUMPDEST PUSH2 0x1A5 PUSH2 0x353 JUMP JUMPDEST PUSH1 0x40 MLOAD PUSH2 0x1B2 SWAP2 SWAP1 PUSH2 0x633 JUMP JUMPDEST PUSH1 0x40 MLOAD DUP1 SWAP2 SUB SWAP1 RETURN JUMPDEST PUSH2 0x1C3 PUSH2 0x398 JUMP JUMPDEST PUSH1 0x40 MLOAD PUSH2 0x1D0 SWAP2 SWAP1 PUSH2 0x669 JUMP JUMPDEST PUSH1 0x40 MLOAD DUP1 SWAP2 SUB SWAP1 RETURN JUMPDEST PUSH2 0x1F3 PUSH1 0x4 DUP1 CALLDATASIZE SUB DUP2 ADD SWAP1 PUSH2 0x1EE SWAP2 SWAP1 PUSH2 0x5D1 JUMP JUMPDEST PUSH2 0x3AB JUMP JUMPDEST PUSH1 0x40 MLOAD PUSH2 0x200 SWAP2 SWAP1 PUSH2 0x633 JUMP JUMPDEST PUSH1 0x40 MLOAD DUP1 SWAP2 SUB SWAP1 RETURN JUMPDEST PUSH2 0x223 PUSH1 0x4 DUP1 CALLDATASIZE SUB DUP2 ADD SWAP1 PUSH2 0x21E SWAP2 SWAP1 PUSH2 0x6F6 JUMP JUMPDEST PUSH2 0x3E3 JUMP JUMPDEST PUSH1 0x40 MLOAD PUSH2 0x230 SWAP2 SWAP1 PUSH2 0x764 JUMP JUMPDEST PUSH1 0x40 MLOAD DUP1 SWAP2 SUB SWAP1 RETURN JUMPDEST PUSH2 0x241 PUSH2 0x419 JUMP JUMPDEST PUSH1 0x40 MLOAD PUSH2 0x24E SWAP2 SWAP1 PUSH2 0x764 JUMP JUMPDEST PUSH1 0x40 MLOAD DUP1 SWAP2 SUB SWAP1 RETURN JUMPDEST PUSH1 0x0 DUP1 SLOAD SWAP1 PUSH2 0x100 EXP SWAP1 DIV PUSH2 0xFFFF AND DUP2 JUMP JUMPDEST PUSH1 0x1 PUSH1 0x11 SWAP1 SLOAD SWAP1 PUSH2 0x100 EXP SWAP1 DIV PUSH2 0xFFFF AND DUP2 JUMP JUMPDEST PUSH1 0x0 DUP1 PUSH2 0x289 DUP4 PUSH2 0x3AB JUMP JUMPDEST SWAP1 POP DUP1 SWAP2 POP POP SWAP2 SWAP1 POP JUMP JUMPDEST PUSH1 0x0 PUSH2 0x2D4 PUSH1 0x40 MLOAD DUP1 PUSH1 0x40 ADD PUSH1 0x40 MSTORE DUP1 PUSH1 0x8 DUP2 MSTORE PUSH1 0x20 ADD PUSH32 0x70617373776F7264000000000000000000000000000000000000000000000000 DUP2 MSTORE POP PUSH2 0x27D JUMP JUMPDEST SWAP1 POP SWAP1 JUMP JUMPDEST PUSH1 0x1 PUSH1 0x10 SWAP1 SLOAD SWAP1 PUSH2 0x100 EXP SWAP1 DIV PUSH1 0xFF AND DUP2 JUMP JUMPDEST PUSH1 0x0 PUSH2 0x32C PUSH1 0x40 MLOAD DUP1 PUSH1 0x40 ADD PUSH1 0x40 MSTORE DUP1 PUSH1 0xB DUP2 MSTORE PUSH1 0x20 ADD PUSH32 0x746F74616C537570706C79000000000000000000000000000000000000000000 DUP2 MSTORE POP PUSH2 0x27D JUMP JUMPDEST SWAP1 POP SWAP1 JUMP JUMPDEST PUSH1 0x1 PUSH1 0x0 SWAP1 SLOAD SWAP1 PUSH2 0x100 EXP SWAP1 DIV PUSH16 0xFFFFFFFFFFFFFFFFFFFFFFFFFFFFFFFF AND DUP2 JUMP JUMPDEST PUSH1 0x0 PUSH2 0x393 PUSH1 0x40 MLOAD DUP1 PUSH1 0x40 ADD PUSH1 0x40 MSTORE DUP1 PUSH1 0x9 DUP2 MSTORE PUSH1 0x20 ADD PUSH32 0x6275796572735B305D0000000000000000000000000000000000000000000000 DUP2 MSTORE POP PUSH2 0x27D JUMP JUMPDEST SWAP1 POP SWAP1 JUMP JUMPDEST PUSH1 0x5 PUSH1 0x0 SWAP1 SLOAD SWAP1 PUSH2 0x100 EXP SWAP1 DIV PUSH1 0xFF AND DUP2 JUMP JUMPDEST PUSH1 0x0 DUP1 DUP3 PUSH1 0x40 MLOAD PUSH1 0x20 ADD PUSH2 0x3BF SWAP2 SWAP1 PUSH2 0x7F0 JUMP JUMPDEST PUSH1 0x40 MLOAD PUSH1 0x20 DUP2 DUP4 SUB SUB DUP2 MSTORE SWAP1 PUSH1 0x40 MSTORE DUP1 MLOAD SWAP1 PUSH1 0x20 ADD KECCAK256 SWAP1 POP DUP1 PUSH1 0x0 SHR SWAP2 POP POP SWAP2 SWAP1 POP JUMP JUMPDEST PUSH1 0x2 DUP2 PUSH1 0x2 DUP2 LT PUSH2 0x3F3 JUMPI PUSH1 0x0 DUP1 REVERT JUMPDEST ADD PUSH1 0x0 SWAP2 POP SLOAD SWAP1 PUSH2 0x100 EXP SWAP1 DIV PUSH20 0xFFFFFFFFFFFFFFFFFFFFFFFFFFFFFFFFFFFFFFFF AND DUP2 JUMP JUMPDEST PUSH1 0x0 PUSH1 0x2 SWAP1 SLOAD SWAP1 PUSH2 0x100 EXP SWAP1 DIV PUSH20 0xFFFFFFFFFFFFFFFFFFFFFFFFFFFFFFFFFFFFFFFF AND DUP2 JUMP JUMPDEST PUSH1 0x0 PUSH2 0xFFFF DUP3 AND SWAP1 POP SWAP2 SWAP1 POP JUMP JUMPDEST PUSH2 0x456 DUP2 PUSH2 0x43F JUMP JUMPDEST DUP3 MSTORE POP POP JUMP JUMPDEST PUSH1 0x0 PUSH1 0x20 DUP3 ADD SWAP1 POP PUSH2 0x471 PUSH1 0x0 DUP4 ADD DUP5 PUSH2 0x44D JUMP JUMPDEST SWAP3 SWAP2 POP POP JUMP JUMPDEST PUSH1 0x0 PUSH1 0x40 MLOAD SWAP1 POP SWAP1 JUMP JUMPDEST PUSH1 0x0 DUP1 REVERT JUMPDEST PUSH1 0x0 DUP1 REVERT JUMPDEST PUSH1 0x0 DUP1 REVERT JUMPDEST PUSH1 0x0 DUP1 REVERT JUMPDEST PUSH1 0x0 PUSH1 0x1F NOT PUSH1 0x1F DUP4 ADD AND SWAP1 POP SWAP2 SWAP1 POP JUMP JUMPDEST PUSH32 0x4E487B7100000000000000000000000000000000000000000000000000000000 PUSH1 0x0 MSTORE PUSH1 0x41 PUSH1 0x4 MSTORE PUSH1 0x24 PUSH1 0x0 REVERT JUMPDEST PUSH2 0x4DE DUP3 PUSH2 0x495 JUMP JUMPDEST DUP2 ADD DUP2 DUP2 LT PUSH8 0xFFFFFFFFFFFFFFFF DUP3 GT OR ISZERO PUSH2 0x4FD JUMPI PUSH2 0x4FC PUSH2 0x4A6 JUMP JUMPDEST JUMPDEST DUP1 PUSH1 0x40 MSTORE POP POP POP JUMP JUMPDEST PUSH1 0x0 PUSH2 0x510 PUSH2 0x477 JUMP JUMPDEST SWAP1 POP PUSH2 0x51C DUP3 DUP3 PUSH2 0x4D5 JUMP JUMPDEST SWAP2 SWAP1 POP JUMP JUMPDEST PUSH1 0x0 PUSH8 0xFFFFFFFFFFFFFFFF DUP3 GT ISZERO PUSH2 0x53C JUMPI PUSH2 0x53B PUSH2 0x4A6 JUMP JUMPDEST JUMPDEST PUSH2 0x545 DUP3 PUSH2 0x495 JUMP JUMPDEST SWAP1 POP PUSH1 0x20 DUP2 ADD SWAP1 POP SWAP2 SWAP1 POP JUMP JUMPDEST DUP3 DUP2 DUP4 CALLDATACOPY PUSH1 0x0 DUP4 DUP4 ADD MSTORE POP POP POP JUMP JUMPDEST PUSH1 0x0 PUSH2 0x574 PUSH2 0x56F DUP5 PUSH2 0x521 JUMP JUMPDEST PUSH2 0x506 JUMP JUMPDEST SWAP1 POP DUP3 DUP2 MSTORE PUSH1 0x20 DUP2 ADD DUP5 DUP5 DUP5 ADD GT ISZERO PUSH2 0x590 JUMPI PUSH2 0x58F PUSH2 0x490 JUMP JUMPDEST JUMPDEST PUSH2 0x59B DUP5 DUP3 DUP6 PUSH2 0x552 JUMP JUMPDEST POP SWAP4 SWAP3 POP POP POP JUMP JUMPDEST PUSH1 0x0 DUP3 PUSH1 0x1F DUP4 ADD SLT PUSH2 0x5B8 JUMPI PUSH2 0x5B7 PUSH2 0x48B JUMP JUMPDEST JUMPDEST DUP2 CALLDATALOAD PUSH2 0x5C8 DUP5 DUP3 PUSH1 0x20 DUP7 ADD PUSH2 0x561 JUMP JUMPDEST SWAP2 POP POP SWAP3 SWAP2 POP POP JUMP JUMPDEST PUSH1 0x0 PUSH1 0x20 DUP3 DUP5 SUB SLT ISZERO PUSH2 0x5E7 JUMPI PUSH2 0x5E6 PUSH2 0x481 JUMP JUMPDEST JUMPDEST PUSH1 0x0 DUP3 ADD CALLDATALOAD PUSH8 0xFFFFFFFFFFFFFFFF DUP2 GT ISZERO PUSH2 0x605 JUMPI PUSH2 0x604 PUSH2 0x486 JUMP JUMPDEST JUMPDEST PUSH2 0x611 DUP5 DUP3 DUP6 ADD PUSH2 0x5A3 JUMP JUMPDEST SWAP2 POP POP SWAP3 SWAP2 POP POP JUMP JUMPDEST PUSH1 0x0 DUP2 SWAP1 POP SWAP2 SWAP1 POP JUMP JUMPDEST PUSH2 0x62D DUP2 PUSH2 0x61A JUMP JUMPDEST DUP3 MSTORE POP POP JUMP JUMPDEST PUSH1 0x0 PUSH1 0x20 DUP3 ADD SWAP1 POP PUSH2 0x648 PUSH1 0x0 DUP4 ADD DUP5 PUSH2 0x624 JUMP JUMPDEST SWAP3 SWAP2 POP POP JUMP JUMPDEST PUSH1 0x0 DUP2 ISZERO ISZERO SWAP1 POP SWAP2 SWAP1 POP JUMP JUMPDEST PUSH2 0x663 DUP2 PUSH2 0x64E JUMP JUMPDEST DUP3 MSTORE POP POP JUMP JUMPDEST PUSH1 0x0 PUSH1 0x20 DUP3 ADD SWAP1 POP PUSH2 0x67E PUSH1 0x0 DUP4 ADD DUP5 PUSH2 0x65A JUMP JUMPDEST SWAP3 SWAP2 POP POP JUMP JUMPDEST PUSH1 0x0 PUSH16 0xFFFFFFFFFFFFFFFFFFFFFFFFFFFFFFFF DUP3 AND SWAP1 POP SWAP2 SWAP1 POP JUMP JUMPDEST PUSH2 0x6A9 DUP2 PUSH2 0x684 JUMP JUMPDEST DUP3 MSTORE POP POP JUMP JUMPDEST PUSH1 0x0 PUSH1 0x20 DUP3 ADD SWAP1 POP PUSH2 0x6C4 PUSH1 0x0 DUP4 ADD DUP5 PUSH2 0x6A0 JUMP JUMPDEST SWAP3 SWAP2 POP POP JUMP JUMPDEST PUSH2 0x6D3 DUP2 PUSH2 0x61A JUMP JUMPDEST DUP2 EQ PUSH2 0x6DE JUMPI PUSH1 0x0 DUP1 REVERT JUMPDEST POP JUMP JUMPDEST PUSH1 0x0 DUP2 CALLDATALOAD SWAP1 POP PUSH2 0x6F0 DUP2 PUSH2 0x6CA JUMP JUMPDEST SWAP3 SWAP2 POP POP JUMP JUMPDEST PUSH1 0x0 PUSH1 0x20 DUP3 DUP5 SUB SLT ISZERO PUSH2 0x70C JUMPI PUSH2 0x70B PUSH2 0x481 JUMP JUMPDEST JUMPDEST PUSH1 0x0 PUSH2 0x71A DUP5 DUP3 DUP6 ADD PUSH2 0x6E1 JUMP JUMPDEST SWAP2 POP POP SWAP3 SWAP2 POP POP JUMP JUMPDEST PUSH1 0x0 PUSH20 0xFFFFFFFFFFFFFFFFFFFFFFFFFFFFFFFFFFFFFFFF DUP3 AND SWAP1 POP SWAP2 SWAP1 POP JUMP JUMPDEST PUSH1 0x0 PUSH2 0x74E DUP3 PUSH2 0x723 JUMP JUMPDEST SWAP1 POP SWAP2 SWAP1 POP JUMP JUMPDEST PUSH2 0x75E DUP2 PUSH2 0x743 JUMP JUMPDEST DUP3 MSTORE POP POP JUMP JUMPDEST PUSH1 0x0 PUSH1 0x20 DUP3 ADD SWAP1 POP PUSH2 0x779 PUSH1 0x0 DUP4 ADD DUP5 PUSH2 0x755 JUMP JUMPDEST SWAP3 SWAP2 POP POP JUMP JUMPDEST PUSH1 0x0 DUP2 MLOAD SWAP1 POP SWAP2 SWAP1 POP JUMP JUMPDEST PUSH1 0x0 DUP2 SWAP1 POP SWAP3 SWAP2 POP POP JUMP JUMPDEST PUSH1 0x0 JUMPDEST DUP4 DUP2 LT ISZERO PUSH2 0x7B3 JUMPI DUP1 DUP3 ADD MLOAD DUP2 DUP5 ADD MSTORE PUSH1 0x20 DUP2 ADD SWAP1 POP PUSH2 0x798 JUMP JUMPDEST PUSH1 0x0 DUP5 DUP5 ADD MSTORE POP POP POP POP JUMP JUMPDEST PUSH1 0x0 PUSH2 0x7CA DUP3 PUSH2 0x77F JUMP JUMPDEST PUSH2 0x7D4 DUP2 DUP6 PUSH2 0x78A JUMP JUMPDEST SWAP4 POP PUSH2 0x7E4 DUP2 DUP6 PUSH1 0x20 DUP7 ADD PUSH2 0x795 JUMP JUMPDEST DUP1 DUP5 ADD SWAP2 POP POP SWAP3 SWAP2 POP POP JUMP JUMPDEST PUSH1 0x0 PUSH2 0x7FC DUP3 DUP5 PUSH2 0x7BF JUMP JUMPDEST SWAP2 POP DUP2 SWAP1 POP SWAP3 SWAP2 POP POP JUMP INVALID LOG2 PUSH5 0x6970667358 0x22 SLT KECCAK256 0xB1 LOG3 PUSH17 0xDF4AF182EED91B2DD7CDE38BAC20E2B3D2 SWAP2 CHAINID 0xDC 0x2D LT 0xDE DUP5 0x2D 0xBA 0xBF SWAP4 PC PUSH5 0x736F6C6343 STOP ADDMOD SLT STOP CALLER "
		},
		"gasEstimates": {
			"creation": {
				"codeDepositCost": "421800",
				"executionCost": "455",
				"totalCost": "422255"
			},
			"external": {
				"admin()": "2674",
				"buyers(uint256)": "2893",
				"getBuyers0SlotNumber()": "infinite",
				"getPasswordSlotNumber()": "infinite",
				"getSlot(string)": "infinite",
				"getTotalSupplySlotNumber()": "infinite",
				"getVariableSlotNumber(string)": "infinite",
				"isPaused()": "2515",
				"saleStart()": "2471",
				"saleStarted()": "2610",
				"tokenId()": "2469",
				"totalSupply()": "2544"
			}
		},
		"methodIdentifiers": {
			"admin()": "f851a440",
			"buyers(uint256)": "f2aa8218",
			"getBuyers0SlotNumber()": "ad7d5f0c",
			"getPasswordSlotNumber()": "5a980a0f",
			"getSlot(string)": "bff172a2",
			"getTotalSupplySlotNumber()": "87a1175d",
			"getVariableSlotNumber(string)": "314203b0",
			"isPaused()": "b187bd26",
			"saleStart()": "ab0bcc41",
			"saleStarted()": "5c474f9e",
			"tokenId()": "17d70f7c",
			"totalSupply()": "18160ddd"
		}
	},
	"abi": [
		{
			"inputs": [],
			"name": "admin",
			"outputs": [
				{
					"internalType": "address",
					"name": "",
					"type": "address"
				}
			],
			"stateMutability": "view",
			"type": "function"
		},
		{
			"inputs": [
				{
					"internalType": "uint256",
					"name": "",
					"type": "uint256"
				}
			],
			"name": "buyers",
			"outputs": [
				{
					"internalType": "address",
					"name": "",
					"type": "address"
				}
			],
			"stateMutability": "view",
			"type": "function"
		},
		{
			"inputs": [],
			"name": "getBuyers0SlotNumber",
			"outputs": [
				{
					"internalType": "uint256",
					"name": "",
					"type": "uint256"
				}
			],
			"stateMutability": "view",
			"type": "function"
		},
		{
			"inputs": [],
			"name": "getPasswordSlotNumber",
			"outputs": [
				{
					"internalType": "uint256",
					"name": "",
					"type": "uint256"
				}
			],
			"stateMutability": "view",
			"type": "function"
		},
		{
			"inputs": [
				{
					"internalType": "string",
					"name": "variableName",
					"type": "string"
				}
			],
			"name": "getSlot",
			"outputs": [
				{
					"internalType": "uint256",
					"name": "",
					"type": "uint256"
				}
			],
			"stateMutability": "pure",
			"type": "function"
		},
		{
			"inputs": [],
			"name": "getTotalSupplySlotNumber",
			"outputs": [
				{
					"internalType": "uint256",
					"name": "",
					"type": "uint256"
				}
			],
			"stateMutability": "view",
			"type": "function"
		},
		{
			"inputs": [
				{
					"internalType": "string",
					"name": "variableName",
					"type": "string"
				}
			],
			"name": "getVariableSlotNumber",
			"outputs": [
				{
					"internalType": "uint256",
					"name": "",
					"type": "uint256"
				}
			],
			"stateMutability": "view",
			"type": "function"
		},
		{
			"inputs": [],
			"name": "isPaused",
			"outputs": [
				{
					"internalType": "bool",
					"name": "",
					"type": "bool"
				}
			],
			"stateMutability": "view",
			"type": "function"
		},
		{
			"inputs": [],
			"name": "saleStart",
			"outputs": [
				{
					"internalType": "uint128",
					"name": "",
					"type": "uint128"
				}
			],
			"stateMutability": "view",
			"type": "function"
		},
		{
			"inputs": [],
			"name": "saleStarted",
			"outputs": [
				{
					"internalType": "bool",
					"name": "",
					"type": "bool"
				}
			],
			"stateMutability": "view",
			"type": "function"
		},
		{
			"inputs": [],
			"name": "tokenId",
			"outputs": [
				{
					"internalType": "uint16",
					"name": "",
					"type": "uint16"
				}
			],
			"stateMutability": "view",
			"type": "function"
		},
		{
			"inputs": [],
			"name": "totalSupply",
			"outputs": [
				{
					"internalType": "uint16",
					"name": "",
					"type": "uint16"
				}
			],
			"stateMutability": "view",
			"type": "function"
		}
	]
}