{
	"data": {
		"bytecode": {
			"linkReferences": {},
			"object": "60806040526040518060400160405280600c81526020017f48656c6c6f20576f726c64210000000000000000000000000000000000000000815250600090816200004a9190620002d9565b503480156200005857600080fd5b50620003c0565b600081519050919050565b7f4e487b7100000000000000000000000000000000000000000000000000000000600052604160045260246000fd5b7f4e487b7100000000000000000000000000000000000000000000000000000000600052602260045260246000fd5b60006002820490506001821680620000e157607f821691505b602082108103620000f757620000f662000099565b5b50919050565b60008190508160005260206000209050919050565b60006020601f8301049050919050565b600082821b905092915050565b600060088302620001617fffffffffffffffffffffffffffffffffffffffffffffffffffffffffffffffff8262000122565b6200016d868362000122565b95508019841693508086168417925050509392505050565b6000819050919050565b6000819050919050565b6000620001ba620001b4620001ae8462000185565b6200018f565b62000185565b9050919050565b6000819050919050565b620001d68362000199565b620001ee620001e582620001c1565b8484546200012f565b825550505050565b600090565b62000205620001f6565b62000212818484620001cb565b505050565b5b818110156200023a576200022e600082620001fb565b60018101905062000218565b5050565b601f82111562000289576200025381620000fd565b6200025e8462000112565b810160208510156200026e578190505b620002866200027d8562000112565b83018262000217565b50505b505050565b600082821c905092915050565b6000620002ae600019846008026200028e565b1980831691505092915050565b6000620002c983836200029b565b9150826002028217905092915050565b620002e4826200005f565b67ffffffffffffffff8111156200030057620002ff6200006a565b5b6200030c8254620000c8565b620003198282856200023e565b600060209050601f8311600181146200035157600084156200033c578287015190505b620003488582620002bb565b865550620003b8565b601f1984166200036186620000fd565b60005b828110156200038b5784890151825560018201915060208501945060208101905062000364565b86831015620003ab5784890151620003a7601f8916826200029b565b8355505b6001600288020188555050505b505050505050565b61079880620003d06000396000f3fe608060405234801561001057600080fd5b506004361061004c5760003560e01c8063a413686214610051578063ab5ed1501461006d578063cfae32171461008b578063ef690cc0146100a9575b600080fd5b61006b60048036038101906100669190610366565b6100c7565b005b6100756100e3565b60405161008291906103c8565b60405180910390f35b6100936100ec565b6040516100a09190610462565b60405180910390f35b6100b161017e565b6040516100be9190610462565b60405180910390f35b80600090816100d69190610690565b506100df6100ec565b5050565b60006001905090565b6060600080546100fb906104b3565b80601f0160208091040260200160405190810160405280929190818152602001828054610127906104b3565b80156101745780601f1061014957610100808354040283529160200191610174565b820191906000526020600020905b81548152906001019060200180831161015757829003601f168201915b5050505050905090565b6000805461018b906104b3565b80601f01602080910402602001604051908101604052809291908181526020018280546101b7906104b3565b80156102045780601f106101d957610100808354040283529160200191610204565b820191906000526020600020905b8154815290600101906020018083116101e757829003601f168201915b505050505081565b6000604051905090565b600080fd5b600080fd5b600080fd5b600080fd5b6000601f19601f8301169050919050565b7f4e487b7100000000000000000000000000000000000000000000000000000000600052604160045260246000fd5b6102738261022a565b810181811067ffffffffffffffff821117156102925761029161023b565b5b80604052505050565b60006102a561020c565b90506102b1828261026a565b919050565b600067ffffffffffffffff8211156102d1576102d061023b565b5b6102da8261022a565b9050602081019050919050565b82818337600083830152505050565b6000610309610304846102b6565b61029b565b90508281526020810184848401111561032557610324610225565b5b6103308482856102e7565b509392505050565b600082601f83011261034d5761034c610220565b5b813561035d8482602086016102f6565b91505092915050565b60006020828403121561037c5761037b610216565b5b600082013567ffffffffffffffff81111561039a5761039961021b565b5b6103a684828501610338565b91505092915050565b6000819050919050565b6103c2816103af565b82525050565b60006020820190506103dd60008301846103b9565b92915050565b600081519050919050565b600082825260208201905092915050565b60005b8381101561041d578082015181840152602081019050610402565b60008484015250505050565b6000610434826103e3565b61043e81856103ee565b935061044e8185602086016103ff565b6104578161022a565b840191505092915050565b6000602082019050818103600083015261047c8184610429565b905092915050565b7f4e487b7100000000000000000000000000000000000000000000000000000000600052602260045260246000fd5b600060028204905060018216806104cb57607f821691505b6020821081036104de576104dd610484565b5b50919050565b60008190508160005260206000209050919050565b60006020601f8301049050919050565b600082821b905092915050565b6000600883026105467fffffffffffffffffffffffffffffffffffffffffffffffffffffffffffffffff82610509565b6105508683610509565b95508019841693508086168417925050509392505050565b6000819050919050565b600061058d610588610583846103af565b610568565b6103af565b9050919050565b6000819050919050565b6105a783610572565b6105bb6105b382610594565b848454610516565b825550505050565b600090565b6105d06105c3565b6105db81848461059e565b505050565b5b818110156105ff576105f46000826105c8565b6001810190506105e1565b5050565b601f82111561064457610615816104e4565b61061e846104f9565b8101602085101561062d578190505b610641610639856104f9565b8301826105e0565b50505b505050565b600082821c905092915050565b600061066760001984600802610649565b1980831691505092915050565b60006106808383610656565b9150826002028217905092915050565b610699826103e3565b67ffffffffffffffff8111156106b2576106b161023b565b5b6106bc82546104b3565b6106c7828285610603565b600060209050601f8311600181146106fa57600084156106e8578287015190505b6106f28582610674565b86555061075a565b601f198416610708866104e4565b60005b828110156107305784890151825560018201915060208501945060208101905061070b565b8683101561074d5784890151610749601f891682610656565b8355505b6001600288020188555050505b50505050505056fea2646970667358221220cb339d49fa9fd2c6ddd1d91320f2c26642dff9e0231e817e3925ad2212f2972364736f6c63430008120033",
			"opcodes": "PUSH1 0x80 PUSH1 0x40 MSTORE PUSH1 0x40 MLOAD DUP1 PUSH1 0x40 ADD PUSH1 0x40 MSTORE DUP1 PUSH1 0xC DUP2 MSTORE PUSH1 0x20 ADD PUSH32 0x48656C6C6F20576F726C64210000000000000000000000000000000000000000 DUP2 MSTORE POP PUSH1 0x0 SWAP1 DUP2 PUSH3 0x4A SWAP2 SWAP1 PUSH3 0x2D9 JUMP JUMPDEST POP CALLVALUE DUP1 ISZERO PUSH3 0x58 JUMPI PUSH1 0x0 DUP1 REVERT JUMPDEST POP PUSH3 0x3C0 JUMP JUMPDEST PUSH1 0x0 DUP2 MLOAD SWAP1 POP SWAP2 SWAP1 POP JUMP JUMPDEST PUSH32 0x4E487B7100000000000000000000000000000000000000000000000000000000 PUSH1 0x0 MSTORE PUSH1 0x41 PUSH1 0x4 MSTORE PUSH1 0x24 PUSH1 0x0 REVERT JUMPDEST PUSH32 0x4E487B7100000000000000000000000000000000000000000000000000000000 PUSH1 0x0 MSTORE PUSH1 0x22 PUSH1 0x4 MSTORE PUSH1 0x24 PUSH1 0x0 REVERT JUMPDEST PUSH1 0x0 PUSH1 0x2 DUP3 DIV SWAP1 POP PUSH1 0x1 DUP3 AND DUP1 PUSH3 0xE1 JUMPI PUSH1 0x7F DUP3 AND SWAP2 POP JUMPDEST PUSH1 0x20 DUP3 LT DUP2 SUB PUSH3 0xF7 JUMPI PUSH3 0xF6 PUSH3 0x99 JUMP JUMPDEST JUMPDEST POP SWAP2 SWAP1 POP JUMP JUMPDEST PUSH1 0x0 DUP2 SWAP1 POP DUP2 PUSH1 0x0 MSTORE PUSH1 0x20 PUSH1 0x0 KECCAK256 SWAP1 POP SWAP2 SWAP1 POP JUMP JUMPDEST PUSH1 0x0 PUSH1 0x20 PUSH1 0x1F DUP4 ADD DIV SWAP1 POP SWAP2 SWAP1 POP JUMP JUMPDEST PUSH1 0x0 DUP3 DUP3 SHL SWAP1 POP SWAP3 SWAP2 POP POP JUMP JUMPDEST PUSH1 0x0 PUSH1 0x8 DUP4 MUL PUSH3 0x161 PUSH32 0xFFFFFFFFFFFFFFFFFFFFFFFFFFFFFFFFFFFFFFFFFFFFFFFFFFFFFFFFFFFFFFFF DUP3 PUSH3 0x122 JUMP JUMPDEST PUSH3 0x16D DUP7 DUP4 PUSH3 0x122 JUMP JUMPDEST SWAP6 POP DUP1 NOT DUP5 AND SWAP4 POP DUP1 DUP7 AND DUP5 OR SWAP3 POP POP POP SWAP4 SWAP3 POP POP POP JUMP JUMPDEST PUSH1 0x0 DUP2 SWAP1 POP SWAP2 SWAP1 POP JUMP JUMPDEST PUSH1 0x0 DUP2 SWAP1 POP SWAP2 SWAP1 POP JUMP JUMPDEST PUSH1 0x0 PUSH3 0x1BA PUSH3 0x1B4 PUSH3 0x1AE DUP5 PUSH3 0x185 JUMP JUMPDEST PUSH3 0x18F JUMP JUMPDEST PUSH3 0x185 JUMP JUMPDEST SWAP1 POP SWAP2 SWAP1 POP JUMP JUMPDEST PUSH1 0x0 DUP2 SWAP1 POP SWAP2 SWAP1 POP JUMP JUMPDEST PUSH3 0x1D6 DUP4 PUSH3 0x199 JUMP JUMPDEST PUSH3 0x1EE PUSH3 0x1E5 DUP3 PUSH3 0x1C1 JUMP JUMPDEST DUP5 DUP5 SLOAD PUSH3 0x12F JUMP JUMPDEST DUP3 SSTORE POP POP POP POP JUMP JUMPDEST PUSH1 0x0 SWAP1 JUMP JUMPDEST PUSH3 0x205 PUSH3 0x1F6 JUMP JUMPDEST PUSH3 0x212 DUP2 DUP5 DUP5 PUSH3 0x1CB JUMP JUMPDEST POP POP POP JUMP JUMPDEST JUMPDEST DUP2 DUP2 LT ISZERO PUSH3 0x23A JUMPI PUSH3 0x22E PUSH1 0x0 DUP3 PUSH3 0x1FB JUMP JUMPDEST PUSH1 0x1 DUP2 ADD SWAP1 POP PUSH3 0x218 JUMP JUMPDEST POP POP JUMP JUMPDEST PUSH1 0x1F DUP3 GT ISZERO PUSH3 0x289 JUMPI PUSH3 0x253 DUP2 PUSH3 0xFD JUMP JUMPDEST PUSH3 0x25E DUP5 PUSH3 0x112 JUMP JUMPDEST DUP2 ADD PUSH1 0x20 DUP6 LT ISZERO PUSH3 0x26E JUMPI DUP2 SWAP1 POP JUMPDEST PUSH3 0x286 PUSH3 0x27D DUP6 PUSH3 0x112 JUMP JUMPDEST DUP4 ADD DUP3 PUSH3 0x217 JUMP JUMPDEST POP POP JUMPDEST POP POP POP JUMP JUMPDEST PUSH1 0x0 DUP3 DUP3 SHR SWAP1 POP SWAP3 SWAP2 POP POP JUMP JUMPDEST PUSH1 0x0 PUSH3 0x2AE PUSH1 0x0 NOT DUP5 PUSH1 0x8 MUL PUSH3 0x28E JUMP JUMPDEST NOT DUP1 DUP4 AND SWAP2 POP POP SWAP3 SWAP2 POP POP JUMP JUMPDEST PUSH1 0x0 PUSH3 0x2C9 DUP4 DUP4 PUSH3 0x29B JUMP JUMPDEST SWAP2 POP DUP3 PUSH1 0x2 MUL DUP3 OR SWAP1 POP SWAP3 SWAP2 POP POP JUMP JUMPDEST PUSH3 0x2E4 DUP3 PUSH3 0x5F JUMP JUMPDEST PUSH8 0xFFFFFFFFFFFFFFFF DUP2 GT ISZERO PUSH3 0x300 JUMPI PUSH3 0x2FF PUSH3 0x6A JUMP JUMPDEST JUMPDEST PUSH3 0x30C DUP3 SLOAD PUSH3 0xC8 JUMP JUMPDEST PUSH3 0x319 DUP3 DUP3 DUP6 PUSH3 0x23E JUMP JUMPDEST PUSH1 0x0 PUSH1 0x20 SWAP1 POP PUSH1 0x1F DUP4 GT PUSH1 0x1 DUP2 EQ PUSH3 0x351 JUMPI PUSH1 0x0 DUP5 ISZERO PUSH3 0x33C JUMPI DUP3 DUP8 ADD MLOAD SWAP1 POP JUMPDEST PUSH3 0x348 DUP6 DUP3 PUSH3 0x2BB JUMP JUMPDEST DUP7 SSTORE POP PUSH3 0x3B8 JUMP JUMPDEST PUSH1 0x1F NOT DUP5 AND PUSH3 0x361 DUP7 PUSH3 0xFD JUMP JUMPDEST PUSH1 0x0 JUMPDEST DUP3 DUP2 LT ISZERO PUSH3 0x38B JUMPI DUP5 DUP10 ADD MLOAD DUP3 SSTORE PUSH1 0x1 DUP3 ADD SWAP2 POP PUSH1 0x20 DUP6 ADD SWAP5 POP PUSH1 0x20 DUP2 ADD SWAP1 POP PUSH3 0x364 JUMP JUMPDEST DUP7 DUP4 LT ISZERO PUSH3 0x3AB JUMPI DUP5 DUP10 ADD MLOAD PUSH3 0x3A7 PUSH1 0x1F DUP10 AND DUP3 PUSH3 0x29B JUMP JUMPDEST DUP4 SSTORE POP JUMPDEST PUSH1 0x1 PUSH1 0x2 DUP9 MUL ADD DUP9 SSTORE POP POP POP JUMPDEST POP POP POP POP POP POP JUMP JUMPDEST PUSH2 0x798 DUP1 PUSH3 0x3D0 PUSH1 0x0 CODECOPY PUSH1 0x0 RETURN INVALID PUSH1 0x80 PUSH1 0x40 MSTORE CALLVALUE DUP1 ISZERO PUSH2 0x10 JUMPI PUSH1 0x0 DUP1 REVERT JUMPDEST POP PUSH1 0x4 CALLDATASIZE LT PUSH2 0x4C JUMPI PUSH1 0x0 CALLDATALOAD PUSH1 0xE0 SHR DUP1 PUSH4 0xA4136862 EQ PUSH2 0x51 JUMPI DUP1 PUSH4 0xAB5ED150 EQ PUSH2 0x6D JUMPI DUP1 PUSH4 0xCFAE3217 EQ PUSH2 0x8B JUMPI DUP1 PUSH4 0xEF690CC0 EQ PUSH2 0xA9 JUMPI JUMPDEST PUSH1 0x0 DUP1 REVERT JUMPDEST PUSH2 0x6B PUSH1 0x4 DUP1 CALLDATASIZE SUB DUP2 ADD SWAP1 PUSH2 0x66 SWAP2 SWAP1 PUSH2 0x366 JUMP JUMPDEST PUSH2 0xC7 JUMP JUMPDEST STOP JUMPDEST PUSH2 0x75 PUSH2 0xE3 JUMP JUMPDEST PUSH1 0x40 MLOAD PUSH2 0x82 SWAP2 SWAP1 PUSH2 0x3C8 JUMP JUMPDEST PUSH1 0x40 MLOAD DUP1 SWAP2 SUB SWAP1 RETURN JUMPDEST PUSH2 0x93 PUSH2 0xEC JUMP JUMPDEST PUSH1 0x40 MLOAD PUSH2 0xA0 SWAP2 SWAP1 PUSH2 0x462 JUMP JUMPDEST PUSH1 0x40 MLOAD DUP1 SWAP2 SUB SWAP1 RETURN JUMPDEST PUSH2 0xB1 PUSH2 0x17E JUMP JUMPDEST PUSH1 0x40 MLOAD PUSH2 0xBE SWAP2 SWAP1 PUSH2 0x462 JUMP JUMPDEST PUSH1 0x40 MLOAD DUP1 SWAP2 SUB SWAP1 RETURN JUMPDEST DUP1 PUSH1 0x0 SWAP1 DUP2 PUSH2 0xD6 SWAP2 SWAP1 PUSH2 0x690 JUMP JUMPDEST POP PUSH2 0xDF PUSH2 0xEC JUMP JUMPDEST POP POP JUMP JUMPDEST PUSH1 0x0 PUSH1 0x1 SWAP1 POP SWAP1 JUMP JUMPDEST PUSH1 0x60 PUSH1 0x0 DUP1 SLOAD PUSH2 0xFB SWAP1 PUSH2 0x4B3 JUMP JUMPDEST DUP1 PUSH1 0x1F ADD PUSH1 0x20 DUP1 SWAP2 DIV MUL PUSH1 0x20 ADD PUSH1 0x40 MLOAD SWAP1 DUP2 ADD PUSH1 0x40 MSTORE DUP1 SWAP3 SWAP2 SWAP1 DUP2 DUP2 MSTORE PUSH1 0x20 ADD DUP3 DUP1 SLOAD PUSH2 0x127 SWAP1 PUSH2 0x4B3 JUMP JUMPDEST DUP1 ISZERO PUSH2 0x174 JUMPI DUP1 PUSH1 0x1F LT PUSH2 0x149 JUMPI PUSH2 0x100 DUP1 DUP4 SLOAD DIV MUL DUP4 MSTORE SWAP2 PUSH1 0x20 ADD SWAP2 PUSH2 0x174 JUMP JUMPDEST DUP3 ADD SWAP2 SWAP1 PUSH1 0x0 MSTORE PUSH1 0x20 PUSH1 0x0 KECCAK256 SWAP1 JUMPDEST DUP2 SLOAD DUP2 MSTORE SWAP1 PUSH1 0x1 ADD SWAP1 PUSH1 0x20 ADD DUP1 DUP4 GT PUSH2 0x157 JUMPI DUP3 SWAP1 SUB PUSH1 0x1F AND DUP3 ADD SWAP2 JUMPDEST POP POP POP POP POP SWAP1 POP SWAP1 JUMP JUMPDEST PUSH1 0x0 DUP1 SLOAD PUSH2 0x18B SWAP1 PUSH2 0x4B3 JUMP JUMPDEST DUP1 PUSH1 0x1F ADD PUSH1 0x20 DUP1 SWAP2 DIV MUL PUSH1 0x20 ADD PUSH1 0x40 MLOAD SWAP1 DUP2 ADD PUSH1 0x40 MSTORE DUP1 SWAP3 SWAP2 SWAP1 DUP2 DUP2 MSTORE PUSH1 0x20 ADD DUP3 DUP1 SLOAD PUSH2 0x1B7 SWAP1 PUSH2 0x4B3 JUMP JUMPDEST DUP1 ISZERO PUSH2 0x204 JUMPI DUP1 PUSH1 0x1F LT PUSH2 0x1D9 JUMPI PUSH2 0x100 DUP1 DUP4 SLOAD DIV MUL DUP4 MSTORE SWAP2 PUSH1 0x20 ADD SWAP2 PUSH2 0x204 JUMP JUMPDEST DUP3 ADD SWAP2 SWAP1 PUSH1 0x0 MSTORE PUSH1 0x20 PUSH1 0x0 KECCAK256 SWAP1 JUMPDEST DUP2 SLOAD DUP2 MSTORE SWAP1 PUSH1 0x1 ADD SWAP1 PUSH1 0x20 ADD DUP1 DUP4 GT PUSH2 0x1E7 JUMPI DUP3 SWAP1 SUB PUSH1 0x1F AND DUP3 ADD SWAP2 JUMPDEST POP POP POP POP POP DUP2 JUMP JUMPDEST PUSH1 0x0 PUSH1 0x40 MLOAD SWAP1 POP SWAP1 JUMP JUMPDEST PUSH1 0x0 DUP1 REVERT JUMPDEST PUSH1 0x0 DUP1 REVERT JUMPDEST PUSH1 0x0 DUP1 REVERT JUMPDEST PUSH1 0x0 DUP1 REVERT JUMPDEST PUSH1 0x0 PUSH1 0x1F NOT PUSH1 0x1F DUP4 ADD AND SWAP1 POP SWAP2 SWAP1 POP JUMP JUMPDEST PUSH32 0x4E487B7100000000000000000000000000000000000000000000000000000000 PUSH1 0x0 MSTORE PUSH1 0x41 PUSH1 0x4 MSTORE PUSH1 0x24 PUSH1 0x0 REVERT JUMPDEST PUSH2 0x273 DUP3 PUSH2 0x22A JUMP JUMPDEST DUP2 ADD DUP2 DUP2 LT PUSH8 0xFFFFFFFFFFFFFFFF DUP3 GT OR ISZERO PUSH2 0x292 JUMPI PUSH2 0x291 PUSH2 0x23B JUMP JUMPDEST JUMPDEST DUP1 PUSH1 0x40 MSTORE POP POP POP JUMP JUMPDEST PUSH1 0x0 PUSH2 0x2A5 PUSH2 0x20C JUMP JUMPDEST SWAP1 POP PUSH2 0x2B1 DUP3 DUP3 PUSH2 0x26A JUMP JUMPDEST SWAP2 SWAP1 POP JUMP JUMPDEST PUSH1 0x0 PUSH8 0xFFFFFFFFFFFFFFFF DUP3 GT ISZERO PUSH2 0x2D1 JUMPI PUSH2 0x2D0 PUSH2 0x23B JUMP JUMPDEST JUMPDEST PUSH2 0x2DA DUP3 PUSH2 0x22A JUMP JUMPDEST SWAP1 POP PUSH1 0x20 DUP2 ADD SWAP1 POP SWAP2 SWAP1 POP JUMP JUMPDEST DUP3 DUP2 DUP4 CALLDATACOPY PUSH1 0x0 DUP4 DUP4 ADD MSTORE POP POP POP JUMP JUMPDEST PUSH1 0x0 PUSH2 0x309 PUSH2 0x304 DUP5 PUSH2 0x2B6 JUMP JUMPDEST PUSH2 0x29B JUMP JUMPDEST SWAP1 POP DUP3 DUP2 MSTORE PUSH1 0x20 DUP2 ADD DUP5 DUP5 DUP5 ADD GT ISZERO PUSH2 0x325 JUMPI PUSH2 0x324 PUSH2 0x225 JUMP JUMPDEST JUMPDEST PUSH2 0x330 DUP5 DUP3 DUP6 PUSH2 0x2E7 JUMP JUMPDEST POP SWAP4 SWAP3 POP POP POP JUMP JUMPDEST PUSH1 0x0 DUP3 PUSH1 0x1F DUP4 ADD SLT PUSH2 0x34D JUMPI PUSH2 0x34C PUSH2 0x220 JUMP JUMPDEST JUMPDEST DUP2 CALLDATALOAD PUSH2 0x35D DUP5 DUP3 PUSH1 0x20 DUP7 ADD PUSH2 0x2F6 JUMP JUMPDEST SWAP2 POP POP SWAP3 SWAP2 POP POP JUMP JUMPDEST PUSH1 0x0 PUSH1 0x20 DUP3 DUP5 SUB SLT ISZERO PUSH2 0x37C JUMPI PUSH2 0x37B PUSH2 0x216 JUMP JUMPDEST JUMPDEST PUSH1 0x0 DUP3 ADD CALLDATALOAD PUSH8 0xFFFFFFFFFFFFFFFF DUP2 GT ISZERO PUSH2 0x39A JUMPI PUSH2 0x399 PUSH2 0x21B JUMP JUMPDEST JUMPDEST PUSH2 0x3A6 DUP5 DUP3 DUP6 ADD PUSH2 0x338 JUMP JUMPDEST SWAP2 POP POP SWAP3 SWAP2 POP POP JUMP JUMPDEST PUSH1 0x0 DUP2 SWAP1 POP SWAP2 SWAP1 POP JUMP JUMPDEST PUSH2 0x3C2 DUP2 PUSH2 0x3AF JUMP JUMPDEST DUP3 MSTORE POP POP JUMP JUMPDEST PUSH1 0x0 PUSH1 0x20 DUP3 ADD SWAP1 POP PUSH2 0x3DD PUSH1 0x0 DUP4 ADD DUP5 PUSH2 0x3B9 JUMP JUMPDEST SWAP3 SWAP2 POP POP JUMP JUMPDEST PUSH1 0x0 DUP2 MLOAD SWAP1 POP SWAP2 SWAP1 POP JUMP JUMPDEST PUSH1 0x0 DUP3 DUP3 MSTORE PUSH1 0x20 DUP3 ADD SWAP1 POP SWAP3 SWAP2 POP POP JUMP JUMPDEST PUSH1 0x0 JUMPDEST DUP4 DUP2 LT ISZERO PUSH2 0x41D JUMPI DUP1 DUP3 ADD MLOAD DUP2 DUP5 ADD MSTORE PUSH1 0x20 DUP2 ADD SWAP1 POP PUSH2 0x402 JUMP JUMPDEST PUSH1 0x0 DUP5 DUP5 ADD MSTORE POP POP POP POP JUMP JUMPDEST PUSH1 0x0 PUSH2 0x434 DUP3 PUSH2 0x3E3 JUMP JUMPDEST PUSH2 0x43E DUP2 DUP6 PUSH2 0x3EE JUMP JUMPDEST SWAP4 POP PUSH2 0x44E DUP2 DUP6 PUSH1 0x20 DUP7 ADD PUSH2 0x3FF JUMP JUMPDEST PUSH2 0x457 DUP2 PUSH2 0x22A JUMP JUMPDEST DUP5 ADD SWAP2 POP POP SWAP3 SWAP2 POP POP JUMP JUMPDEST PUSH1 0x0 PUSH1 0x20 DUP3 ADD SWAP1 POP DUP2 DUP2 SUB PUSH1 0x0 DUP4 ADD MSTORE PUSH2 0x47C DUP2 DUP5 PUSH2 0x429 JUMP JUMPDEST SWAP1 POP SWAP3 SWAP2 POP POP JUMP JUMPDEST PUSH32 0x4E487B7100000000000000000000000000000000000000000000000000000000 PUSH1 0x0 MSTORE PUSH1 0x22 PUSH1 0x4 MSTORE PUSH1 0x24 PUSH1 0x0 REVERT JUMPDEST PUSH1 0x0 PUSH1 0x2 DUP3 DIV SWAP1 POP PUSH1 0x1 DUP3 AND DUP1 PUSH2 0x4CB JUMPI PUSH1 0x7F DUP3 AND SWAP2 POP JUMPDEST PUSH1 0x20 DUP3 LT DUP2 SUB PUSH2 0x4DE JUMPI PUSH2 0x4DD PUSH2 0x484 JUMP JUMPDEST JUMPDEST POP SWAP2 SWAP1 POP JUMP JUMPDEST PUSH1 0x0 DUP2 SWAP1 POP DUP2 PUSH1 0x0 MSTORE PUSH1 0x20 PUSH1 0x0 KECCAK256 SWAP1 POP SWAP2 SWAP1 POP JUMP JUMPDEST PUSH1 0x0 PUSH1 0x20 PUSH1 0x1F DUP4 ADD DIV SWAP1 POP SWAP2 SWAP1 POP JUMP JUMPDEST PUSH1 0x0 DUP3 DUP3 SHL SWAP1 POP SWAP3 SWAP2 POP POP JUMP JUMPDEST PUSH1 0x0 PUSH1 0x8 DUP4 MUL PUSH2 0x546 PUSH32 0xFFFFFFFFFFFFFFFFFFFFFFFFFFFFFFFFFFFFFFFFFFFFFFFFFFFFFFFFFFFFFFFF DUP3 PUSH2 0x509 JUMP JUMPDEST PUSH2 0x550 DUP7 DUP4 PUSH2 0x509 JUMP JUMPDEST SWAP6 POP DUP1 NOT DUP5 AND SWAP4 POP DUP1 DUP7 AND DUP5 OR SWAP3 POP POP POP SWAP4 SWAP3 POP POP POP JUMP JUMPDEST PUSH1 0x0 DUP2 SWAP1 POP SWAP2 SWAP1 POP JUMP JUMPDEST PUSH1 0x0 PUSH2 0x58D PUSH2 0x588 PUSH2 0x583 DUP5 PUSH2 0x3AF JUMP JUMPDEST PUSH2 0x568 JUMP JUMPDEST PUSH2 0x3AF JUMP JUMPDEST SWAP1 POP SWAP2 SWAP1 POP JUMP JUMPDEST PUSH1 0x0 DUP2 SWAP1 POP SWAP2 SWAP1 POP JUMP JUMPDEST PUSH2 0x5A7 DUP4 PUSH2 0x572 JUMP JUMPDEST PUSH2 0x5BB PUSH2 0x5B3 DUP3 PUSH2 0x594 JUMP JUMPDEST DUP5 DUP5 SLOAD PUSH2 0x516 JUMP JUMPDEST DUP3 SSTORE POP POP POP POP JUMP JUMPDEST PUSH1 0x0 SWAP1 JUMP JUMPDEST PUSH2 0x5D0 PUSH2 0x5C3 JUMP JUMPDEST PUSH2 0x5DB DUP2 DUP5 DUP5 PUSH2 0x59E JUMP JUMPDEST POP POP POP JUMP JUMPDEST JUMPDEST DUP2 DUP2 LT ISZERO PUSH2 0x5FF JUMPI PUSH2 0x5F4 PUSH1 0x0 DUP3 PUSH2 0x5C8 JUMP JUMPDEST PUSH1 0x1 DUP2 ADD SWAP1 POP PUSH2 0x5E1 JUMP JUMPDEST POP POP JUMP JUMPDEST PUSH1 0x1F DUP3 GT ISZERO PUSH2 0x644 JUMPI PUSH2 0x615 DUP2 PUSH2 0x4E4 JUMP JUMPDEST PUSH2 0x61E DUP5 PUSH2 0x4F9 JUMP JUMPDEST DUP2 ADD PUSH1 0x20 DUP6 LT ISZERO PUSH2 0x62D JUMPI DUP2 SWAP1 POP JUMPDEST PUSH2 0x641 PUSH2 0x639 DUP6 PUSH2 0x4F9 JUMP JUMPDEST DUP4 ADD DUP3 PUSH2 0x5E0 JUMP JUMPDEST POP POP JUMPDEST POP POP POP JUMP JUMPDEST PUSH1 0x0 DUP3 DUP3 SHR SWAP1 POP SWAP3 SWAP2 POP POP JUMP JUMPDEST PUSH1 0x0 PUSH2 0x667 PUSH1 0x0 NOT DUP5 PUSH1 0x8 MUL PUSH2 0x649 JUMP JUMPDEST NOT DUP1 DUP4 AND SWAP2 POP POP SWAP3 SWAP2 POP POP JUMP JUMPDEST PUSH1 0x0 PUSH2 0x680 DUP4 DUP4 PUSH2 0x656 JUMP JUMPDEST SWAP2 POP DUP3 PUSH1 0x2 MUL DUP3 OR SWAP1 POP SWAP3 SWAP2 POP POP JUMP JUMPDEST PUSH2 0x699 DUP3 PUSH2 0x3E3 JUMP JUMPDEST PUSH8 0xFFFFFFFFFFFFFFFF DUP2 GT ISZERO PUSH2 0x6B2 JUMPI PUSH2 0x6B1 PUSH2 0x23B JUMP JUMPDEST JUMPDEST PUSH2 0x6BC DUP3 SLOAD PUSH2 0x4B3 JUMP JUMPDEST PUSH2 0x6C7 DUP3 DUP3 DUP6 PUSH2 0x603 JUMP JUMPDEST PUSH1 0x0 PUSH1 0x20 SWAP1 POP PUSH1 0x1F DUP4 GT PUSH1 0x1 DUP2 EQ PUSH2 0x6FA JUMPI PUSH1 0x0 DUP5 ISZERO PUSH2 0x6E8 JUMPI DUP3 DUP8 ADD MLOAD SWAP1 POP JUMPDEST PUSH2 0x6F2 DUP6 DUP3 PUSH2 0x674 JUMP JUMPDEST DUP7 SSTORE POP PUSH2 0x75A JUMP JUMPDEST PUSH1 0x1F NOT DUP5 AND PUSH2 0x708 DUP7 PUSH2 0x4E4 JUMP JUMPDEST PUSH1 0x0 JUMPDEST DUP3 DUP2 LT ISZERO PUSH2 0x730 JUMPI DUP5 DUP10 ADD MLOAD DUP3 SSTORE PUSH1 0x1 DUP3 ADD SWAP2 POP PUSH1 0x20 DUP6 ADD SWAP5 POP PUSH1 0x20 DUP2 ADD SWAP1 POP PUSH2 0x70B JUMP JUMPDEST DUP7 DUP4 LT ISZERO PUSH2 0x74D JUMPI DUP5 DUP10 ADD MLOAD PUSH2 0x749 PUSH1 0x1F DUP10 AND DUP3 PUSH2 0x656 JUMP JUMPDEST DUP4 SSTORE POP JUMPDEST PUSH1 0x1 PUSH1 0x2 DUP9 MUL ADD DUP9 SSTORE POP POP POP JUMPDEST POP POP POP POP POP POP JUMP INVALID LOG2 PUSH5 0x6970667358 0x22 SLT KECCAK256 0xCB CALLER SWAP14 0x49 STATICCALL SWAP16 0xD2 0xC6 0xDD 0xD1 0xD9 SGT KECCAK256 CALLCODE 0xC2 PUSH7 0x42DFF9E0231E81 PUSH31 0x3925AD2212F2972364736F6C63430008120033000000000000000000000000 "
		},
		"gasEstimates": {
			"creation": {
				"codeDepositCost": "388800",
				"executionCost": "infinite",
				"totalCost": "infinite"
			},
			"external": {
				"getOne()": "337",
				"greet()": "infinite",
				"greeting()": "infinite",
				"setGreeting(string)": "infinite"
			}
		},
		"methodIdentifiers": {
			"getOne()": "ab5ed150",
			"greet()": "cfae3217",
			"greeting()": "ef690cc0",
			"setGreeting(string)": "a4136862"
		}
	},
	"abi": [
		{
			"inputs": [],
			"name": "getOne",
			"outputs": [
				{
					"internalType": "uint256",
					"name": "",
					"type": "uint256"
				}
			],
			"stateMutability": "pure",
			"type": "function"
		},
		{
			"inputs": [],
			"name": "greet",
			"outputs": [
				{
					"internalType": "string",
					"name": "",
					"type": "string"
				}
			],
			"stateMutability": "view",
			"type": "function"
		},
		{
			"inputs": [],
			"name": "greeting",
			"outputs": [
				{
					"internalType": "string",
					"name": "",
					"type": "string"
				}
			],
			"stateMutability": "view",
			"type": "function"
		},
		{
			"inputs": [
				{
					"internalType": "string",
					"name": "msg",
					"type": "string"
				}
			],
			"name": "setGreeting",
			"outputs": [],
			"stateMutability": "nonpayable",
			"type": "function"
		}
	]
}