{
	"data": {
		"bytecode": {
			"linkReferences": {},
			"object": "60806040523480156200001157600080fd5b5060405162000f5038038062000f5083398181016040528101906200003791906200018a565b82600160006101000a81548173ffffffffffffffffffffffffffffffffffffffff021916908373ffffffffffffffffffffffffffffffffffffffff16021790555081600381905550806004819055506001600560006101000a81548160ff021916908315150217905550505050620001e6565b600080fd5b600073ffffffffffffffffffffffffffffffffffffffff82169050919050565b6000620000dc82620000af565b9050919050565b620000ee81620000cf565b8114620000fa57600080fd5b50565b6000815190506200010e81620000e3565b92915050565b6000819050919050565b620001298162000114565b81146200013557600080fd5b50565b60008151905062000149816200011e565b92915050565b6000819050919050565b62000164816200014f565b81146200017057600080fd5b50565b600081519050620001848162000159565b92915050565b600080600060608486031215620001a657620001a5620000aa565b5b6000620001b686828701620000fd565b9350506020620001c98682870162000138565b9250506040620001dc8682870162000173565b9150509250925092565b610d5a80620001f66000396000f3fe60806040526004361061007f5760003560e01c80637150d8ae1161004e5780637150d8ae1461011d5780638d0d8cb614610148578063bd66528a14610152578063d29e68031461016e57610080565b806308551a53146100855780634665096d146100b057806347535d7b146100db578063590e1ae31461010657610080565b5b600080fd5b34801561009157600080fd5b5061009a610199565b6040516100a79190610938565b60405180910390f35b3480156100bc57600080fd5b506100c56101bf565b6040516100d2919061096c565b60405180910390f35b3480156100e757600080fd5b506100f06101c5565b6040516100fd91906109a2565b60405180910390f35b34801561011257600080fd5b5061011b6101d8565b005b34801561012957600080fd5b50610132610420565b60405161013f9190610938565b60405180910390f35b610150610444565b005b61016c600480360381019061016791906109f8565b61063a565b005b34801561017a57600080fd5b506101836108f1565b6040516101909190610a34565b60405180910390f35b600160009054906101000a900473ffffffffffffffffffffffffffffffffffffffff1681565b60045481565b600560009054906101000a900460ff1681565b600560009054906101000a900460ff16610227576040517f08c379a000000000000000000000000000000000000000000000000000000000815260040161021e90610aac565b60405180910390fd5b60045442101561026c576040517f08c379a000000000000000000000000000000000000000000000000000000000815260040161026390610b18565b60405180910390fd5b60008054906101000a900473ffffffffffffffffffffffffffffffffffffffff1673ffffffffffffffffffffffffffffffffffffffff163373ffffffffffffffffffffffffffffffffffffffff16146102fa576040517f08c379a00000000000000000000000000000000000000000000000000000000081526004016102f190610b84565b60405180910390fd5b6000600560006101000a81548160ff02191690831515021790555060008054906101000a900473ffffffffffffffffffffffffffffffffffffffff1673ffffffffffffffffffffffffffffffffffffffff166108fc600260003373ffffffffffffffffffffffffffffffffffffffff1673ffffffffffffffffffffffffffffffffffffffff168152602001908152602001600020549081150290604051600060405180830381858888f193505050501580156103ba573d6000803e3d6000fd5b5060008054906101000a900473ffffffffffffffffffffffffffffffffffffffff1673ffffffffffffffffffffffffffffffffffffffff167f8fb5d4bce9f90698aa0f0090d8cc6ca4c2d52976816621a1033250b2a43cd93060405160405180910390a2565b60008054906101000a900473ffffffffffffffffffffffffffffffffffffffff1681565b600560009054906101000a900460ff16610493576040517f08c379a000000000000000000000000000000000000000000000000000000000815260040161048a90610aac565b60405180910390fd5b600034116104d6576040517f08c379a00000000000000000000000000000000000000000000000000000000081526004016104cd90610bf0565b60405180910390fd5b600160009054906101000a900473ffffffffffffffffffffffffffffffffffffffff1673ffffffffffffffffffffffffffffffffffffffff163373ffffffffffffffffffffffffffffffffffffffff1603610566576040517f08c379a000000000000000000000000000000000000000000000000000000000815260040161055d90610c5c565b60405180910390fd5b34600260003373ffffffffffffffffffffffffffffffffffffffff1673ffffffffffffffffffffffffffffffffffffffff16815260200190815260200160002081905550336000806101000a81548173ffffffffffffffffffffffffffffffffffffffff021916908373ffffffffffffffffffffffffffffffffffffffff1602179055503373ffffffffffffffffffffffffffffffffffffffff167fe1fffcc4923d04b559f4d29a8bfc6cda04eb5b0d3c460751c2402c5c5cc9109c34604051610630919061096c565b60405180910390a2565b600560009054906101000a900460ff16610689576040517f08c379a000000000000000000000000000000000000000000000000000000000815260040161068090610aac565b60405180910390fd5b6003548160405160200161069d9190610c9d565b60405160208183030381529060405280519060200120146106f3576040517f08c379a00000000000000000000000000000000000000000000000000000000081526004016106ea90610d04565b60405180910390fd5b600454421015610738576040517f08c379a000000000000000000000000000000000000000000000000000000000815260040161072f90610b18565b60405180910390fd5b60008054906101000a900473ffffffffffffffffffffffffffffffffffffffff1673ffffffffffffffffffffffffffffffffffffffff163373ffffffffffffffffffffffffffffffffffffffff16146107c6576040517f08c379a00000000000000000000000000000000000000000000000000000000081526004016107bd90610b84565b60405180910390fd5b6000600560006101000a81548160ff021916908315150217905550600160009054906101000a900473ffffffffffffffffffffffffffffffffffffffff1673ffffffffffffffffffffffffffffffffffffffff166108fc600260003373ffffffffffffffffffffffffffffffffffffffff1673ffffffffffffffffffffffffffffffffffffffff168152602001908152602001600020549081150290604051600060405180830381858888f19350505050158015610888573d6000803e3d6000fd5b50600160009054906101000a900473ffffffffffffffffffffffffffffffffffffffff1673ffffffffffffffffffffffffffffffffffffffff167f0c7ef932d3b91976772937f18d5ef9b39a9930bef486b576c374f047c4b512dc60405160405180910390a250565b60035481565b600073ffffffffffffffffffffffffffffffffffffffff82169050919050565b6000610922826108f7565b9050919050565b61093281610917565b82525050565b600060208201905061094d6000830184610929565b92915050565b6000819050919050565b61096681610953565b82525050565b6000602082019050610981600083018461095d565b92915050565b60008115159050919050565b61099c81610987565b82525050565b60006020820190506109b76000830184610993565b92915050565b600080fd5b6000819050919050565b6109d5816109c2565b81146109e057600080fd5b50565b6000813590506109f2816109cc565b92915050565b600060208284031215610a0e57610a0d6109bd565b5b6000610a1c848285016109e3565b91505092915050565b610a2e816109c2565b82525050565b6000602082019050610a496000830184610a25565b92915050565b600082825260208201905092915050565b7f48544c4320697320636c6f736564000000000000000000000000000000000000600082015250565b6000610a96600e83610a4f565b9150610aa182610a60565b602082019050919050565b60006020820190508181036000830152610ac581610a89565b9050919050565b7f48544c4320686173206e6f742079657420657870697265640000000000000000600082015250565b6000610b02601883610a4f565b9150610b0d82610acc565b602082019050919050565b60006020820190508181036000830152610b3181610af5565b9050919050565b7f53656e646572206973206e6f7420746865206275796572000000000000000000600082015250565b6000610b6e601783610a4f565b9150610b7982610b38565b602082019050919050565b60006020820190508181036000830152610b9d81610b61565b9050919050565b7f4465706f736974206d7573742062652067726561746572207468616e20300000600082015250565b6000610bda601e83610a4f565b9150610be582610ba4565b602082019050919050565b60006020820190508181036000830152610c0981610bcd565b9050919050565b7f53656e6465722063616e6e6f74206265207468652073656c6c65720000000000600082015250565b6000610c46601b83610a4f565b9150610c5182610c10565b602082019050919050565b60006020820190508181036000830152610c7581610c39565b9050919050565b6000819050919050565b610c97610c92826109c2565b610c7c565b82525050565b6000610ca98284610c86565b60208201915081905092915050565b7f53656372657420646f6573206e6f74206d617463682068617368000000000000600082015250565b6000610cee601a83610a4f565b9150610cf982610cb8565b602082019050919050565b60006020820190508181036000830152610d1d81610ce1565b905091905056fea2646970667358221220d746b5f52e1f6089cd92f18f34db05544f39724a31d1a92a4510667962a07db764736f6c63430008110033",
			"opcodes": "PUSH1 0x80 PUSH1 0x40 MSTORE CALLVALUE DUP1 ISZERO PUSH3 0x11 JUMPI PUSH1 0x0 DUP1 REVERT JUMPDEST POP PUSH1 0x40 MLOAD PUSH3 0xF50 CODESIZE SUB DUP1 PUSH3 0xF50 DUP4 CODECOPY DUP2 DUP2 ADD PUSH1 0x40 MSTORE DUP2 ADD SWAP1 PUSH3 0x37 SWAP2 SWAP1 PUSH3 0x18A JUMP JUMPDEST DUP3 PUSH1 0x1 PUSH1 0x0 PUSH2 0x100 EXP DUP2 SLOAD DUP2 PUSH20 0xFFFFFFFFFFFFFFFFFFFFFFFFFFFFFFFFFFFFFFFF MUL NOT AND SWAP1 DUP4 PUSH20 0xFFFFFFFFFFFFFFFFFFFFFFFFFFFFFFFFFFFFFFFF AND MUL OR SWAP1 SSTORE POP DUP2 PUSH1 0x3 DUP2 SWAP1 SSTORE POP DUP1 PUSH1 0x4 DUP2 SWAP1 SSTORE POP PUSH1 0x1 PUSH1 0x5 PUSH1 0x0 PUSH2 0x100 EXP DUP2 SLOAD DUP2 PUSH1 0xFF MUL NOT AND SWAP1 DUP4 ISZERO ISZERO MUL OR SWAP1 SSTORE POP POP POP POP PUSH3 0x1E6 JUMP JUMPDEST PUSH1 0x0 DUP1 REVERT JUMPDEST PUSH1 0x0 PUSH20 0xFFFFFFFFFFFFFFFFFFFFFFFFFFFFFFFFFFFFFFFF DUP3 AND SWAP1 POP SWAP2 SWAP1 POP JUMP JUMPDEST PUSH1 0x0 PUSH3 0xDC DUP3 PUSH3 0xAF JUMP JUMPDEST SWAP1 POP SWAP2 SWAP1 POP JUMP JUMPDEST PUSH3 0xEE DUP2 PUSH3 0xCF JUMP JUMPDEST DUP2 EQ PUSH3 0xFA JUMPI PUSH1 0x0 DUP1 REVERT JUMPDEST POP JUMP JUMPDEST PUSH1 0x0 DUP2 MLOAD SWAP1 POP PUSH3 0x10E DUP2 PUSH3 0xE3 JUMP JUMPDEST SWAP3 SWAP2 POP POP JUMP JUMPDEST PUSH1 0x0 DUP2 SWAP1 POP SWAP2 SWAP1 POP JUMP JUMPDEST PUSH3 0x129 DUP2 PUSH3 0x114 JUMP JUMPDEST DUP2 EQ PUSH3 0x135 JUMPI PUSH1 0x0 DUP1 REVERT JUMPDEST POP JUMP JUMPDEST PUSH1 0x0 DUP2 MLOAD SWAP1 POP PUSH3 0x149 DUP2 PUSH3 0x11E JUMP JUMPDEST SWAP3 SWAP2 POP POP JUMP JUMPDEST PUSH1 0x0 DUP2 SWAP1 POP SWAP2 SWAP1 POP JUMP JUMPDEST PUSH3 0x164 DUP2 PUSH3 0x14F JUMP JUMPDEST DUP2 EQ PUSH3 0x170 JUMPI PUSH1 0x0 DUP1 REVERT JUMPDEST POP JUMP JUMPDEST PUSH1 0x0 DUP2 MLOAD SWAP1 POP PUSH3 0x184 DUP2 PUSH3 0x159 JUMP JUMPDEST SWAP3 SWAP2 POP POP JUMP JUMPDEST PUSH1 0x0 DUP1 PUSH1 0x0 PUSH1 0x60 DUP5 DUP7 SUB SLT ISZERO PUSH3 0x1A6 JUMPI PUSH3 0x1A5 PUSH3 0xAA JUMP JUMPDEST JUMPDEST PUSH1 0x0 PUSH3 0x1B6 DUP7 DUP3 DUP8 ADD PUSH3 0xFD JUMP JUMPDEST SWAP4 POP POP PUSH1 0x20 PUSH3 0x1C9 DUP7 DUP3 DUP8 ADD PUSH3 0x138 JUMP JUMPDEST SWAP3 POP POP PUSH1 0x40 PUSH3 0x1DC DUP7 DUP3 DUP8 ADD PUSH3 0x173 JUMP JUMPDEST SWAP2 POP POP SWAP3 POP SWAP3 POP SWAP3 JUMP JUMPDEST PUSH2 0xD5A DUP1 PUSH3 0x1F6 PUSH1 0x0 CODECOPY PUSH1 0x0 RETURN INVALID PUSH1 0x80 PUSH1 0x40 MSTORE PUSH1 0x4 CALLDATASIZE LT PUSH2 0x7F JUMPI PUSH1 0x0 CALLDATALOAD PUSH1 0xE0 SHR DUP1 PUSH4 0x7150D8AE GT PUSH2 0x4E JUMPI DUP1 PUSH4 0x7150D8AE EQ PUSH2 0x11D JUMPI DUP1 PUSH4 0x8D0D8CB6 EQ PUSH2 0x148 JUMPI DUP1 PUSH4 0xBD66528A EQ PUSH2 0x152 JUMPI DUP1 PUSH4 0xD29E6803 EQ PUSH2 0x16E JUMPI PUSH2 0x80 JUMP JUMPDEST DUP1 PUSH4 0x8551A53 EQ PUSH2 0x85 JUMPI DUP1 PUSH4 0x4665096D EQ PUSH2 0xB0 JUMPI DUP1 PUSH4 0x47535D7B EQ PUSH2 0xDB JUMPI DUP1 PUSH4 0x590E1AE3 EQ PUSH2 0x106 JUMPI PUSH2 0x80 JUMP JUMPDEST JUMPDEST PUSH1 0x0 DUP1 REVERT JUMPDEST CALLVALUE DUP1 ISZERO PUSH2 0x91 JUMPI PUSH1 0x0 DUP1 REVERT JUMPDEST POP PUSH2 0x9A PUSH2 0x199 JUMP JUMPDEST PUSH1 0x40 MLOAD PUSH2 0xA7 SWAP2 SWAP1 PUSH2 0x938 JUMP JUMPDEST PUSH1 0x40 MLOAD DUP1 SWAP2 SUB SWAP1 RETURN JUMPDEST CALLVALUE DUP1 ISZERO PUSH2 0xBC JUMPI PUSH1 0x0 DUP1 REVERT JUMPDEST POP PUSH2 0xC5 PUSH2 0x1BF JUMP JUMPDEST PUSH1 0x40 MLOAD PUSH2 0xD2 SWAP2 SWAP1 PUSH2 0x96C JUMP JUMPDEST PUSH1 0x40 MLOAD DUP1 SWAP2 SUB SWAP1 RETURN JUMPDEST CALLVALUE DUP1 ISZERO PUSH2 0xE7 JUMPI PUSH1 0x0 DUP1 REVERT JUMPDEST POP PUSH2 0xF0 PUSH2 0x1C5 JUMP JUMPDEST PUSH1 0x40 MLOAD PUSH2 0xFD SWAP2 SWAP1 PUSH2 0x9A2 JUMP JUMPDEST PUSH1 0x40 MLOAD DUP1 SWAP2 SUB SWAP1 RETURN JUMPDEST CALLVALUE DUP1 ISZERO PUSH2 0x112 JUMPI PUSH1 0x0 DUP1 REVERT JUMPDEST POP PUSH2 0x11B PUSH2 0x1D8 JUMP JUMPDEST STOP JUMPDEST CALLVALUE DUP1 ISZERO PUSH2 0x129 JUMPI PUSH1 0x0 DUP1 REVERT JUMPDEST POP PUSH2 0x132 PUSH2 0x420 JUMP JUMPDEST PUSH1 0x40 MLOAD PUSH2 0x13F SWAP2 SWAP1 PUSH2 0x938 JUMP JUMPDEST PUSH1 0x40 MLOAD DUP1 SWAP2 SUB SWAP1 RETURN JUMPDEST PUSH2 0x150 PUSH2 0x444 JUMP JUMPDEST STOP JUMPDEST PUSH2 0x16C PUSH1 0x4 DUP1 CALLDATASIZE SUB DUP2 ADD SWAP1 PUSH2 0x167 SWAP2 SWAP1 PUSH2 0x9F8 JUMP JUMPDEST PUSH2 0x63A JUMP JUMPDEST STOP JUMPDEST CALLVALUE DUP1 ISZERO PUSH2 0x17A JUMPI PUSH1 0x0 DUP1 REVERT JUMPDEST POP PUSH2 0x183 PUSH2 0x8F1 JUMP JUMPDEST PUSH1 0x40 MLOAD PUSH2 0x190 SWAP2 SWAP1 PUSH2 0xA34 JUMP JUMPDEST PUSH1 0x40 MLOAD DUP1 SWAP2 SUB SWAP1 RETURN JUMPDEST PUSH1 0x1 PUSH1 0x0 SWAP1 SLOAD SWAP1 PUSH2 0x100 EXP SWAP1 DIV PUSH20 0xFFFFFFFFFFFFFFFFFFFFFFFFFFFFFFFFFFFFFFFF AND DUP2 JUMP JUMPDEST PUSH1 0x4 SLOAD DUP2 JUMP JUMPDEST PUSH1 0x5 PUSH1 0x0 SWAP1 SLOAD SWAP1 PUSH2 0x100 EXP SWAP1 DIV PUSH1 0xFF AND DUP2 JUMP JUMPDEST PUSH1 0x5 PUSH1 0x0 SWAP1 SLOAD SWAP1 PUSH2 0x100 EXP SWAP1 DIV PUSH1 0xFF AND PUSH2 0x227 JUMPI PUSH1 0x40 MLOAD PUSH32 0x8C379A000000000000000000000000000000000000000000000000000000000 DUP2 MSTORE PUSH1 0x4 ADD PUSH2 0x21E SWAP1 PUSH2 0xAAC JUMP JUMPDEST PUSH1 0x40 MLOAD DUP1 SWAP2 SUB SWAP1 REVERT JUMPDEST PUSH1 0x4 SLOAD TIMESTAMP LT ISZERO PUSH2 0x26C JUMPI PUSH1 0x40 MLOAD PUSH32 0x8C379A000000000000000000000000000000000000000000000000000000000 DUP2 MSTORE PUSH1 0x4 ADD PUSH2 0x263 SWAP1 PUSH2 0xB18 JUMP JUMPDEST PUSH1 0x40 MLOAD DUP1 SWAP2 SUB SWAP1 REVERT JUMPDEST PUSH1 0x0 DUP1 SLOAD SWAP1 PUSH2 0x100 EXP SWAP1 DIV PUSH20 0xFFFFFFFFFFFFFFFFFFFFFFFFFFFFFFFFFFFFFFFF AND PUSH20 0xFFFFFFFFFFFFFFFFFFFFFFFFFFFFFFFFFFFFFFFF AND CALLER PUSH20 0xFFFFFFFFFFFFFFFFFFFFFFFFFFFFFFFFFFFFFFFF AND EQ PUSH2 0x2FA JUMPI PUSH1 0x40 MLOAD PUSH32 0x8C379A000000000000000000000000000000000000000000000000000000000 DUP2 MSTORE PUSH1 0x4 ADD PUSH2 0x2F1 SWAP1 PUSH2 0xB84 JUMP JUMPDEST PUSH1 0x40 MLOAD DUP1 SWAP2 SUB SWAP1 REVERT JUMPDEST PUSH1 0x0 PUSH1 0x5 PUSH1 0x0 PUSH2 0x100 EXP DUP2 SLOAD DUP2 PUSH1 0xFF MUL NOT AND SWAP1 DUP4 ISZERO ISZERO MUL OR SWAP1 SSTORE POP PUSH1 0x0 DUP1 SLOAD SWAP1 PUSH2 0x100 EXP SWAP1 DIV PUSH20 0xFFFFFFFFFFFFFFFFFFFFFFFFFFFFFFFFFFFFFFFF AND PUSH20 0xFFFFFFFFFFFFFFFFFFFFFFFFFFFFFFFFFFFFFFFF AND PUSH2 0x8FC PUSH1 0x2 PUSH1 0x0 CALLER PUSH20 0xFFFFFFFFFFFFFFFFFFFFFFFFFFFFFFFFFFFFFFFF AND PUSH20 0xFFFFFFFFFFFFFFFFFFFFFFFFFFFFFFFFFFFFFFFF AND DUP2 MSTORE PUSH1 0x20 ADD SWAP1 DUP2 MSTORE PUSH1 0x20 ADD PUSH1 0x0 KECCAK256 SLOAD SWAP1 DUP2 ISZERO MUL SWAP1 PUSH1 0x40 MLOAD PUSH1 0x0 PUSH1 0x40 MLOAD DUP1 DUP4 SUB DUP2 DUP6 DUP9 DUP9 CALL SWAP4 POP POP POP POP ISZERO DUP1 ISZERO PUSH2 0x3BA JUMPI RETURNDATASIZE PUSH1 0x0 DUP1 RETURNDATACOPY RETURNDATASIZE PUSH1 0x0 REVERT JUMPDEST POP PUSH1 0x0 DUP1 SLOAD SWAP1 PUSH2 0x100 EXP SWAP1 DIV PUSH20 0xFFFFFFFFFFFFFFFFFFFFFFFFFFFFFFFFFFFFFFFF AND PUSH20 0xFFFFFFFFFFFFFFFFFFFFFFFFFFFFFFFFFFFFFFFF AND PUSH32 0x8FB5D4BCE9F90698AA0F0090D8CC6CA4C2D52976816621A1033250B2A43CD930 PUSH1 0x40 MLOAD PUSH1 0x40 MLOAD DUP1 SWAP2 SUB SWAP1 LOG2 JUMP JUMPDEST PUSH1 0x0 DUP1 SLOAD SWAP1 PUSH2 0x100 EXP SWAP1 DIV PUSH20 0xFFFFFFFFFFFFFFFFFFFFFFFFFFFFFFFFFFFFFFFF AND DUP2 JUMP JUMPDEST PUSH1 0x5 PUSH1 0x0 SWAP1 SLOAD SWAP1 PUSH2 0x100 EXP SWAP1 DIV PUSH1 0xFF AND PUSH2 0x493 JUMPI PUSH1 0x40 MLOAD PUSH32 0x8C379A000000000000000000000000000000000000000000000000000000000 DUP2 MSTORE PUSH1 0x4 ADD PUSH2 0x48A SWAP1 PUSH2 0xAAC JUMP JUMPDEST PUSH1 0x40 MLOAD DUP1 SWAP2 SUB SWAP1 REVERT JUMPDEST PUSH1 0x0 CALLVALUE GT PUSH2 0x4D6 JUMPI PUSH1 0x40 MLOAD PUSH32 0x8C379A000000000000000000000000000000000000000000000000000000000 DUP2 MSTORE PUSH1 0x4 ADD PUSH2 0x4CD SWAP1 PUSH2 0xBF0 JUMP JUMPDEST PUSH1 0x40 MLOAD DUP1 SWAP2 SUB SWAP1 REVERT JUMPDEST PUSH1 0x1 PUSH1 0x0 SWAP1 SLOAD SWAP1 PUSH2 0x100 EXP SWAP1 DIV PUSH20 0xFFFFFFFFFFFFFFFFFFFFFFFFFFFFFFFFFFFFFFFF AND PUSH20 0xFFFFFFFFFFFFFFFFFFFFFFFFFFFFFFFFFFFFFFFF AND CALLER PUSH20 0xFFFFFFFFFFFFFFFFFFFFFFFFFFFFFFFFFFFFFFFF AND SUB PUSH2 0x566 JUMPI PUSH1 0x40 MLOAD PUSH32 0x8C379A000000000000000000000000000000000000000000000000000000000 DUP2 MSTORE PUSH1 0x4 ADD PUSH2 0x55D SWAP1 PUSH2 0xC5C JUMP JUMPDEST PUSH1 0x40 MLOAD DUP1 SWAP2 SUB SWAP1 REVERT JUMPDEST CALLVALUE PUSH1 0x2 PUSH1 0x0 CALLER PUSH20 0xFFFFFFFFFFFFFFFFFFFFFFFFFFFFFFFFFFFFFFFF AND PUSH20 0xFFFFFFFFFFFFFFFFFFFFFFFFFFFFFFFFFFFFFFFF AND DUP2 MSTORE PUSH1 0x20 ADD SWAP1 DUP2 MSTORE PUSH1 0x20 ADD PUSH1 0x0 KECCAK256 DUP2 SWAP1 SSTORE POP CALLER PUSH1 0x0 DUP1 PUSH2 0x100 EXP DUP2 SLOAD DUP2 PUSH20 0xFFFFFFFFFFFFFFFFFFFFFFFFFFFFFFFFFFFFFFFF MUL NOT AND SWAP1 DUP4 PUSH20 0xFFFFFFFFFFFFFFFFFFFFFFFFFFFFFFFFFFFFFFFF AND MUL OR SWAP1 SSTORE POP CALLER PUSH20 0xFFFFFFFFFFFFFFFFFFFFFFFFFFFFFFFFFFFFFFFF AND PUSH32 0xE1FFFCC4923D04B559F4D29A8BFC6CDA04EB5B0D3C460751C2402C5C5CC9109C CALLVALUE PUSH1 0x40 MLOAD PUSH2 0x630 SWAP2 SWAP1 PUSH2 0x96C JUMP JUMPDEST PUSH1 0x40 MLOAD DUP1 SWAP2 SUB SWAP1 LOG2 JUMP JUMPDEST PUSH1 0x5 PUSH1 0x0 SWAP1 SLOAD SWAP1 PUSH2 0x100 EXP SWAP1 DIV PUSH1 0xFF AND PUSH2 0x689 JUMPI PUSH1 0x40 MLOAD PUSH32 0x8C379A000000000000000000000000000000000000000000000000000000000 DUP2 MSTORE PUSH1 0x4 ADD PUSH2 0x680 SWAP1 PUSH2 0xAAC JUMP JUMPDEST PUSH1 0x40 MLOAD DUP1 SWAP2 SUB SWAP1 REVERT JUMPDEST PUSH1 0x3 SLOAD DUP2 PUSH1 0x40 MLOAD PUSH1 0x20 ADD PUSH2 0x69D SWAP2 SWAP1 PUSH2 0xC9D JUMP JUMPDEST PUSH1 0x40 MLOAD PUSH1 0x20 DUP2 DUP4 SUB SUB DUP2 MSTORE SWAP1 PUSH1 0x40 MSTORE DUP1 MLOAD SWAP1 PUSH1 0x20 ADD KECCAK256 EQ PUSH2 0x6F3 JUMPI PUSH1 0x40 MLOAD PUSH32 0x8C379A000000000000000000000000000000000000000000000000000000000 DUP2 MSTORE PUSH1 0x4 ADD PUSH2 0x6EA SWAP1 PUSH2 0xD04 JUMP JUMPDEST PUSH1 0x40 MLOAD DUP1 SWAP2 SUB SWAP1 REVERT JUMPDEST PUSH1 0x4 SLOAD TIMESTAMP LT ISZERO PUSH2 0x738 JUMPI PUSH1 0x40 MLOAD PUSH32 0x8C379A000000000000000000000000000000000000000000000000000000000 DUP2 MSTORE PUSH1 0x4 ADD PUSH2 0x72F SWAP1 PUSH2 0xB18 JUMP JUMPDEST PUSH1 0x40 MLOAD DUP1 SWAP2 SUB SWAP1 REVERT JUMPDEST PUSH1 0x0 DUP1 SLOAD SWAP1 PUSH2 0x100 EXP SWAP1 DIV PUSH20 0xFFFFFFFFFFFFFFFFFFFFFFFFFFFFFFFFFFFFFFFF AND PUSH20 0xFFFFFFFFFFFFFFFFFFFFFFFFFFFFFFFFFFFFFFFF AND CALLER PUSH20 0xFFFFFFFFFFFFFFFFFFFFFFFFFFFFFFFFFFFFFFFF AND EQ PUSH2 0x7C6 JUMPI PUSH1 0x40 MLOAD PUSH32 0x8C379A000000000000000000000000000000000000000000000000000000000 DUP2 MSTORE PUSH1 0x4 ADD PUSH2 0x7BD SWAP1 PUSH2 0xB84 JUMP JUMPDEST PUSH1 0x40 MLOAD DUP1 SWAP2 SUB SWAP1 REVERT JUMPDEST PUSH1 0x0 PUSH1 0x5 PUSH1 0x0 PUSH2 0x100 EXP DUP2 SLOAD DUP2 PUSH1 0xFF MUL NOT AND SWAP1 DUP4 ISZERO ISZERO MUL OR SWAP1 SSTORE POP PUSH1 0x1 PUSH1 0x0 SWAP1 SLOAD SWAP1 PUSH2 0x100 EXP SWAP1 DIV PUSH20 0xFFFFFFFFFFFFFFFFFFFFFFFFFFFFFFFFFFFFFFFF AND PUSH20 0xFFFFFFFFFFFFFFFFFFFFFFFFFFFFFFFFFFFFFFFF AND PUSH2 0x8FC PUSH1 0x2 PUSH1 0x0 CALLER PUSH20 0xFFFFFFFFFFFFFFFFFFFFFFFFFFFFFFFFFFFFFFFF AND PUSH20 0xFFFFFFFFFFFFFFFFFFFFFFFFFFFFFFFFFFFFFFFF AND DUP2 MSTORE PUSH1 0x20 ADD SWAP1 DUP2 MSTORE PUSH1 0x20 ADD PUSH1 0x0 KECCAK256 SLOAD SWAP1 DUP2 ISZERO MUL SWAP1 PUSH1 0x40 MLOAD PUSH1 0x0 PUSH1 0x40 MLOAD DUP1 DUP4 SUB DUP2 DUP6 DUP9 DUP9 CALL SWAP4 POP POP POP POP ISZERO DUP1 ISZERO PUSH2 0x888 JUMPI RETURNDATASIZE PUSH1 0x0 DUP1 RETURNDATACOPY RETURNDATASIZE PUSH1 0x0 REVERT JUMPDEST POP PUSH1 0x1 PUSH1 0x0 SWAP1 SLOAD SWAP1 PUSH2 0x100 EXP SWAP1 DIV PUSH20 0xFFFFFFFFFFFFFFFFFFFFFFFFFFFFFFFFFFFFFFFF AND PUSH20 0xFFFFFFFFFFFFFFFFFFFFFFFFFFFFFFFFFFFFFFFF AND PUSH32 0xC7EF932D3B91976772937F18D5EF9B39A9930BEF486B576C374F047C4B512DC PUSH1 0x40 MLOAD PUSH1 0x40 MLOAD DUP1 SWAP2 SUB SWAP1 LOG2 POP JUMP JUMPDEST PUSH1 0x3 SLOAD DUP2 JUMP JUMPDEST PUSH1 0x0 PUSH20 0xFFFFFFFFFFFFFFFFFFFFFFFFFFFFFFFFFFFFFFFF DUP3 AND SWAP1 POP SWAP2 SWAP1 POP JUMP JUMPDEST PUSH1 0x0 PUSH2 0x922 DUP3 PUSH2 0x8F7 JUMP JUMPDEST SWAP1 POP SWAP2 SWAP1 POP JUMP JUMPDEST PUSH2 0x932 DUP2 PUSH2 0x917 JUMP JUMPDEST DUP3 MSTORE POP POP JUMP JUMPDEST PUSH1 0x0 PUSH1 0x20 DUP3 ADD SWAP1 POP PUSH2 0x94D PUSH1 0x0 DUP4 ADD DUP5 PUSH2 0x929 JUMP JUMPDEST SWAP3 SWAP2 POP POP JUMP JUMPDEST PUSH1 0x0 DUP2 SWAP1 POP SWAP2 SWAP1 POP JUMP JUMPDEST PUSH2 0x966 DUP2 PUSH2 0x953 JUMP JUMPDEST DUP3 MSTORE POP POP JUMP JUMPDEST PUSH1 0x0 PUSH1 0x20 DUP3 ADD SWAP1 POP PUSH2 0x981 PUSH1 0x0 DUP4 ADD DUP5 PUSH2 0x95D JUMP JUMPDEST SWAP3 SWAP2 POP POP JUMP JUMPDEST PUSH1 0x0 DUP2 ISZERO ISZERO SWAP1 POP SWAP2 SWAP1 POP JUMP JUMPDEST PUSH2 0x99C DUP2 PUSH2 0x987 JUMP JUMPDEST DUP3 MSTORE POP POP JUMP JUMPDEST PUSH1 0x0 PUSH1 0x20 DUP3 ADD SWAP1 POP PUSH2 0x9B7 PUSH1 0x0 DUP4 ADD DUP5 PUSH2 0x993 JUMP JUMPDEST SWAP3 SWAP2 POP POP JUMP JUMPDEST PUSH1 0x0 DUP1 REVERT JUMPDEST PUSH1 0x0 DUP2 SWAP1 POP SWAP2 SWAP1 POP JUMP JUMPDEST PUSH2 0x9D5 DUP2 PUSH2 0x9C2 JUMP JUMPDEST DUP2 EQ PUSH2 0x9E0 JUMPI PUSH1 0x0 DUP1 REVERT JUMPDEST POP JUMP JUMPDEST PUSH1 0x0 DUP2 CALLDATALOAD SWAP1 POP PUSH2 0x9F2 DUP2 PUSH2 0x9CC JUMP JUMPDEST SWAP3 SWAP2 POP POP JUMP JUMPDEST PUSH1 0x0 PUSH1 0x20 DUP3 DUP5 SUB SLT ISZERO PUSH2 0xA0E JUMPI PUSH2 0xA0D PUSH2 0x9BD JUMP JUMPDEST JUMPDEST PUSH1 0x0 PUSH2 0xA1C DUP5 DUP3 DUP6 ADD PUSH2 0x9E3 JUMP JUMPDEST SWAP2 POP POP SWAP3 SWAP2 POP POP JUMP JUMPDEST PUSH2 0xA2E DUP2 PUSH2 0x9C2 JUMP JUMPDEST DUP3 MSTORE POP POP JUMP JUMPDEST PUSH1 0x0 PUSH1 0x20 DUP3 ADD SWAP1 POP PUSH2 0xA49 PUSH1 0x0 DUP4 ADD DUP5 PUSH2 0xA25 JUMP JUMPDEST SWAP3 SWAP2 POP POP JUMP JUMPDEST PUSH1 0x0 DUP3 DUP3 MSTORE PUSH1 0x20 DUP3 ADD SWAP1 POP SWAP3 SWAP2 POP POP JUMP JUMPDEST PUSH32 0x48544C4320697320636C6F736564000000000000000000000000000000000000 PUSH1 0x0 DUP3 ADD MSTORE POP JUMP JUMPDEST PUSH1 0x0 PUSH2 0xA96 PUSH1 0xE DUP4 PUSH2 0xA4F JUMP JUMPDEST SWAP2 POP PUSH2 0xAA1 DUP3 PUSH2 0xA60 JUMP JUMPDEST PUSH1 0x20 DUP3 ADD SWAP1 POP SWAP2 SWAP1 POP JUMP JUMPDEST PUSH1 0x0 PUSH1 0x20 DUP3 ADD SWAP1 POP DUP2 DUP2 SUB PUSH1 0x0 DUP4 ADD MSTORE PUSH2 0xAC5 DUP2 PUSH2 0xA89 JUMP JUMPDEST SWAP1 POP SWAP2 SWAP1 POP JUMP JUMPDEST PUSH32 0x48544C4320686173206E6F742079657420657870697265640000000000000000 PUSH1 0x0 DUP3 ADD MSTORE POP JUMP JUMPDEST PUSH1 0x0 PUSH2 0xB02 PUSH1 0x18 DUP4 PUSH2 0xA4F JUMP JUMPDEST SWAP2 POP PUSH2 0xB0D DUP3 PUSH2 0xACC JUMP JUMPDEST PUSH1 0x20 DUP3 ADD SWAP1 POP SWAP2 SWAP1 POP JUMP JUMPDEST PUSH1 0x0 PUSH1 0x20 DUP3 ADD SWAP1 POP DUP2 DUP2 SUB PUSH1 0x0 DUP4 ADD MSTORE PUSH2 0xB31 DUP2 PUSH2 0xAF5 JUMP JUMPDEST SWAP1 POP SWAP2 SWAP1 POP JUMP JUMPDEST PUSH32 0x53656E646572206973206E6F7420746865206275796572000000000000000000 PUSH1 0x0 DUP3 ADD MSTORE POP JUMP JUMPDEST PUSH1 0x0 PUSH2 0xB6E PUSH1 0x17 DUP4 PUSH2 0xA4F JUMP JUMPDEST SWAP2 POP PUSH2 0xB79 DUP3 PUSH2 0xB38 JUMP JUMPDEST PUSH1 0x20 DUP3 ADD SWAP1 POP SWAP2 SWAP1 POP JUMP JUMPDEST PUSH1 0x0 PUSH1 0x20 DUP3 ADD SWAP1 POP DUP2 DUP2 SUB PUSH1 0x0 DUP4 ADD MSTORE PUSH2 0xB9D DUP2 PUSH2 0xB61 JUMP JUMPDEST SWAP1 POP SWAP2 SWAP1 POP JUMP JUMPDEST PUSH32 0x4465706F736974206D7573742062652067726561746572207468616E20300000 PUSH1 0x0 DUP3 ADD MSTORE POP JUMP JUMPDEST PUSH1 0x0 PUSH2 0xBDA PUSH1 0x1E DUP4 PUSH2 0xA4F JUMP JUMPDEST SWAP2 POP PUSH2 0xBE5 DUP3 PUSH2 0xBA4 JUMP JUMPDEST PUSH1 0x20 DUP3 ADD SWAP1 POP SWAP2 SWAP1 POP JUMP JUMPDEST PUSH1 0x0 PUSH1 0x20 DUP3 ADD SWAP1 POP DUP2 DUP2 SUB PUSH1 0x0 DUP4 ADD MSTORE PUSH2 0xC09 DUP2 PUSH2 0xBCD JUMP JUMPDEST SWAP1 POP SWAP2 SWAP1 POP JUMP JUMPDEST PUSH32 0x53656E6465722063616E6E6F74206265207468652073656C6C65720000000000 PUSH1 0x0 DUP3 ADD MSTORE POP JUMP JUMPDEST PUSH1 0x0 PUSH2 0xC46 PUSH1 0x1B DUP4 PUSH2 0xA4F JUMP JUMPDEST SWAP2 POP PUSH2 0xC51 DUP3 PUSH2 0xC10 JUMP JUMPDEST PUSH1 0x20 DUP3 ADD SWAP1 POP SWAP2 SWAP1 POP JUMP JUMPDEST PUSH1 0x0 PUSH1 0x20 DUP3 ADD SWAP1 POP DUP2 DUP2 SUB PUSH1 0x0 DUP4 ADD MSTORE PUSH2 0xC75 DUP2 PUSH2 0xC39 JUMP JUMPDEST SWAP1 POP SWAP2 SWAP1 POP JUMP JUMPDEST PUSH1 0x0 DUP2 SWAP1 POP SWAP2 SWAP1 POP JUMP JUMPDEST PUSH2 0xC97 PUSH2 0xC92 DUP3 PUSH2 0x9C2 JUMP JUMPDEST PUSH2 0xC7C JUMP JUMPDEST DUP3 MSTORE POP POP JUMP JUMPDEST PUSH1 0x0 PUSH2 0xCA9 DUP3 DUP5 PUSH2 0xC86 JUMP JUMPDEST PUSH1 0x20 DUP3 ADD SWAP2 POP DUP2 SWAP1 POP SWAP3 SWAP2 POP POP JUMP JUMPDEST PUSH32 0x53656372657420646F6573206E6F74206D617463682068617368000000000000 PUSH1 0x0 DUP3 ADD MSTORE POP JUMP JUMPDEST PUSH1 0x0 PUSH2 0xCEE PUSH1 0x1A DUP4 PUSH2 0xA4F JUMP JUMPDEST SWAP2 POP PUSH2 0xCF9 DUP3 PUSH2 0xCB8 JUMP JUMPDEST PUSH1 0x20 DUP3 ADD SWAP1 POP SWAP2 SWAP1 POP JUMP JUMPDEST PUSH1 0x0 PUSH1 0x20 DUP3 ADD SWAP1 POP DUP2 DUP2 SUB PUSH1 0x0 DUP4 ADD MSTORE PUSH2 0xD1D DUP2 PUSH2 0xCE1 JUMP JUMPDEST SWAP1 POP SWAP2 SWAP1 POP JUMP INVALID LOG2 PUSH5 0x6970667358 0x22 SLT KECCAK256 0xD7 CHAINID 0xB5 CREATE2 0x2E 0x1F PUSH1 0x89 0xCD SWAP3 CALL DUP16 CALLVALUE 0xDB SDIV SLOAD 0x4F CODECOPY PUSH19 0x4A31D1A92A4510667962A07DB764736F6C6343 STOP ADDMOD GT STOP CALLER "
		},
		"gasEstimates": {
			"creation": {
				"codeDepositCost": "683600",
				"executionCost": "infinite",
				"totalCost": "infinite"
			},
			"external": {
				"": "180",
				"buyer()": "2511",
				"claim(bytes32)": "infinite",
				"depositFund()": "52528",
				"expiration()": "2452",
				"isOpen()": "2516",
				"refund()": "infinite",
				"secretHash()": "2495",
				"seller()": "2515"
			}
		},
		"methodIdentifiers": {
			"buyer()": "7150d8ae",
			"claim(bytes32)": "bd66528a",
			"depositFund()": "8d0d8cb6",
			"expiration()": "4665096d",
			"isOpen()": "47535d7b",
			"refund()": "590e1ae3",
			"secretHash()": "d29e6803",
			"seller()": "08551a53"
		}
	},
	"abi": [
		{
			"inputs": [
				{
					"internalType": "address payable",
					"name": "_seller",
					"type": "address"
				},
				{
					"internalType": "bytes32",
					"name": "_secretHash",
					"type": "bytes32"
				},
				{
					"internalType": "uint256",
					"name": "_expiration",
					"type": "uint256"
				}
			],
			"stateMutability": "nonpayable",
			"type": "constructor"
		},
		{
			"anonymous": false,
			"inputs": [
				{
					"indexed": true,
					"internalType": "address",
					"name": "_seller",
					"type": "address"
				}
			],
			"name": "Claim",
			"type": "event"
		},
		{
			"anonymous": false,
			"inputs": [
				{
					"indexed": true,
					"internalType": "address",
					"name": "_buyer",
					"type": "address"
				},
				{
					"indexed": false,
					"internalType": "uint256",
					"name": "_value",
					"type": "uint256"
				}
			],
			"name": "Deposit",
			"type": "event"
		},
		{
			"anonymous": false,
			"inputs": [
				{
					"indexed": true,
					"internalType": "address",
					"name": "_buyer",
					"type": "address"
				}
			],
			"name": "Refund",
			"type": "event"
		},
		{
			"stateMutability": "payable",
			"type": "fallback"
		},
		{
			"inputs": [],
			"name": "buyer",
			"outputs": [
				{
					"internalType": "address payable",
					"name": "",
					"type": "address"
				}
			],
			"stateMutability": "view",
			"type": "function"
		},
		{
			"inputs": [
				{
					"internalType": "bytes32",
					"name": "_secret",
					"type": "bytes32"
				}
			],
			"name": "claim",
			"outputs": [],
			"stateMutability": "payable",
			"type": "function"
		},
		{
			"inputs": [],
			"name": "depositFund",
			"outputs": [],
			"stateMutability": "payable",
			"type": "function"
		},
		{
			"inputs": [],
			"name": "expiration",
			"outputs": [
				{
					"internalType": "uint256",
					"name": "",
					"type": "uint256"
				}
			],
			"stateMutability": "view",
			"type": "function"
		},
		{
			"inputs": [],
			"name": "isOpen",
			"outputs": [
				{
					"internalType": "bool",
					"name": "",
					"type": "bool"
				}
			],
			"stateMutability": "view",
			"type": "function"
		},
		{
			"inputs": [],
			"name": "refund",
			"outputs": [],
			"stateMutability": "nonpayable",
			"type": "function"
		},
		{
			"inputs": [],
			"name": "secretHash",
			"outputs": [
				{
					"internalType": "bytes32",
					"name": "",
					"type": "bytes32"
				}
			],
			"stateMutability": "view",
			"type": "function"
		},
		{
			"inputs": [],
			"name": "seller",
			"outputs": [
				{
					"internalType": "address payable",
					"name": "",
					"type": "address"
				}
			],
			"stateMutability": "view",
			"type": "function"
		}
	]
}