{
	"data": {
		"bytecode": {
			"linkReferences": {},
			"object": "60806040526001805534801562000014575f80fd5b50604051620013423803806200134283398181016040528101906200003a9190620001ce565b6200005a6200004e620000a160201b60201c565b620000a860201b60201c565b8060035f6101000a81548173ffffffffffffffffffffffffffffffffffffffff021916908373ffffffffffffffffffffffffffffffffffffffff16021790555050620001fe565b5f33905090565b5f805f9054906101000a900473ffffffffffffffffffffffffffffffffffffffff169050815f806101000a81548173ffffffffffffffffffffffffffffffffffffffff021916908373ffffffffffffffffffffffffffffffffffffffff1602179055508173ffffffffffffffffffffffffffffffffffffffff168173ffffffffffffffffffffffffffffffffffffffff167f8be0079c531659141344cd1fd0a4f28419497f9722a3daafe3b4186f6b6457e060405160405180910390a35050565b5f80fd5b5f73ffffffffffffffffffffffffffffffffffffffff82169050919050565b5f62000198826200016d565b9050919050565b620001aa816200018c565b8114620001b5575f80fd5b50565b5f81519050620001c8816200019f565b92915050565b5f60208284031215620001e657620001e562000169565b5b5f620001f584828501620001b8565b91505092915050565b611136806200020c5f395ff3fe608060405234801561000f575f80fd5b5060043610610091575f3560e01c806384b9a6e61161006457806384b9a6e61461011d5780638da5cb5b14610139578063cf35bdd014610157578063e0b4a10514610188578063f2fde38b146101b857610091565b80631bc7ffe914610095578063385fa5b1146100c557806367ccdf38146100e3578063715018a614610113575b5f80fd5b6100af60048036038101906100aa91906108cf565b6101d4565b6040516100bc9190610938565b60405180910390f35b6100cd6102d2565b6040516100da91906109cb565b60405180910390f35b6100fd60048036038101906100f891906109e4565b6102f7565b60405161010a9190610a2f565b60405180910390f35b61011b610321565b005b61013760048036038101906101329190610a72565b610334565b005b610141610416565b60405161014e9190610a2f565b60405180910390f35b610171600480360381019061016c91906109e4565b61043d565b60405161017f929190610b3c565b60405180910390f35b6101a2600480360381019061019d9190610b6a565b6104e3565b6040516101af9190610938565b60405180910390f35b6101d260048036038101906101cd9190610ba8565b610587565b005b5f6101dd610609565b5f60015f8154809291906101f090610c00565b91905055905060035f9054906101000a900473ffffffffffffffffffffffffffffffffffffffff1673ffffffffffffffffffffffffffffffffffffffff16630a5a801e8233866040518463ffffffff1660e01b815260040161025493929190610c47565b5f604051808303815f87803b15801561026b575f80fd5b505af115801561027d573d5f803e3d5ffd5b5050505060405180604001604052808281526020018581525060025f8381526020019081526020015f205f820151815f015560208201518160010190816102c49190610e6d565b509050508091505092915050565b60035f9054906101000a900473ffffffffffffffffffffffffffffffffffffffff1681565b5f60035f9054906101000a900473ffffffffffffffffffffffffffffffffffffffff169050919050565b610329610609565b6103325f610687565b565b8060035f9054906101000a900473ffffffffffffffffffffffffffffffffffffffff1673ffffffffffffffffffffffffffffffffffffffff1663a7c3e39385336040518363ffffffff1660e01b8152600401610391929190610f3c565b602060405180830381865afa1580156103ac573d5f803e3d5ffd5b505050506040513d601f19601f820116820180604052508101906103d09190610f77565b1015610411576040517f08c379a000000000000000000000000000000000000000000000000000000000815260040161040890610fec565b60405180910390fd5b505050565b5f805f9054906101000a900473ffffffffffffffffffffffffffffffffffffffff16905090565b6002602052805f5260405f205f91509050805f01549080600101805461046290610ca9565b80601f016020809104026020016040519081016040528092919081815260200182805461048e90610ca9565b80156104d95780601f106104b0576101008083540402835291602001916104d9565b820191905f5260205f20905b8154815290600101906020018083116104bc57829003601f168201915b5050505050905082565b5f60035f9054906101000a900473ffffffffffffffffffffffffffffffffffffffff1673ffffffffffffffffffffffffffffffffffffffff1663a7c3e39384846040518363ffffffff1660e01b8152600401610540929190610f3c565b602060405180830381865afa15801561055b573d5f803e3d5ffd5b505050506040513d601f19601f8201168201806040525081019061057f9190610f77565b905092915050565b61058f610609565b5f73ffffffffffffffffffffffffffffffffffffffff168173ffffffffffffffffffffffffffffffffffffffff16036105fd576040517f08c379a00000000000000000000000000000000000000000000000000000000081526004016105f49061107a565b60405180910390fd5b61060681610687565b50565b610611610748565b73ffffffffffffffffffffffffffffffffffffffff1661062f610416565b73ffffffffffffffffffffffffffffffffffffffff1614610685576040517f08c379a000000000000000000000000000000000000000000000000000000000815260040161067c906110e2565b60405180910390fd5b565b5f805f9054906101000a900473ffffffffffffffffffffffffffffffffffffffff169050815f806101000a81548173ffffffffffffffffffffffffffffffffffffffff021916908373ffffffffffffffffffffffffffffffffffffffff1602179055508173ffffffffffffffffffffffffffffffffffffffff168173ffffffffffffffffffffffffffffffffffffffff167f8be0079c531659141344cd1fd0a4f28419497f9722a3daafe3b4186f6b6457e060405160405180910390a35050565b5f33905090565b5f604051905090565b5f80fd5b5f80fd5b5f80fd5b5f80fd5b5f601f19601f8301169050919050565b7f4e487b71000000000000000000000000000000000000000000000000000000005f52604160045260245ffd5b6107ae82610768565b810181811067ffffffffffffffff821117156107cd576107cc610778565b5b80604052505050565b5f6107df61074f565b90506107eb82826107a5565b919050565b5f67ffffffffffffffff82111561080a57610809610778565b5b61081382610768565b9050602081019050919050565b828183375f83830152505050565b5f61084061083b846107f0565b6107d6565b90508281526020810184848401111561085c5761085b610764565b5b610867848285610820565b509392505050565b5f82601f83011261088357610882610760565b5b813561089384826020860161082e565b91505092915050565b5f819050919050565b6108ae8161089c565b81146108b8575f80fd5b50565b5f813590506108c9816108a5565b92915050565b5f80604083850312156108e5576108e4610758565b5b5f83013567ffffffffffffffff8111156109025761090161075c565b5b61090e8582860161086f565b925050602061091f858286016108bb565b9150509250929050565b6109328161089c565b82525050565b5f60208201905061094b5f830184610929565b92915050565b5f73ffffffffffffffffffffffffffffffffffffffff82169050919050565b5f819050919050565b5f61099361098e61098984610951565b610970565b610951565b9050919050565b5f6109a482610979565b9050919050565b5f6109b58261099a565b9050919050565b6109c5816109ab565b82525050565b5f6020820190506109de5f8301846109bc565b92915050565b5f602082840312156109f9576109f8610758565b5b5f610a06848285016108bb565b91505092915050565b5f610a1982610951565b9050919050565b610a2981610a0f565b82525050565b5f602082019050610a425f830184610a20565b92915050565b610a5181610a0f565b8114610a5b575f80fd5b50565b5f81359050610a6c81610a48565b92915050565b5f805f60608486031215610a8957610a88610758565b5b5f610a96868287016108bb565b9350506020610aa786828701610a5e565b9250506040610ab8868287016108bb565b9150509250925092565b5f81519050919050565b5f82825260208201905092915050565b5f5b83811015610af9578082015181840152602081019050610ade565b5f8484015250505050565b5f610b0e82610ac2565b610b188185610acc565b9350610b28818560208601610adc565b610b3181610768565b840191505092915050565b5f604082019050610b4f5f830185610929565b8181036020830152610b618184610b04565b90509392505050565b5f8060408385031215610b8057610b7f610758565b5b5f610b8d858286016108bb565b9250506020610b9e85828601610a5e565b9150509250929050565b5f60208284031215610bbd57610bbc610758565b5b5f610bca84828501610a5e565b91505092915050565b7f4e487b71000000000000000000000000000000000000000000000000000000005f52601160045260245ffd5b5f610c0a8261089c565b91507fffffffffffffffffffffffffffffffffffffffffffffffffffffffffffffffff8203610c3c57610c3b610bd3565b5b600182019050919050565b5f606082019050610c5a5f830186610929565b610c676020830185610a20565b610c746040830184610929565b949350505050565b7f4e487b71000000000000000000000000000000000000000000000000000000005f52602260045260245ffd5b5f6002820490506001821680610cc057607f821691505b602082108103610cd357610cd2610c7c565b5b50919050565b5f819050815f5260205f209050919050565b5f6020601f8301049050919050565b5f82821b905092915050565b5f60088302610d357fffffffffffffffffffffffffffffffffffffffffffffffffffffffffffffffff82610cfa565b610d3f8683610cfa565b95508019841693508086168417925050509392505050565b5f610d71610d6c610d678461089c565b610970565b61089c565b9050919050565b5f819050919050565b610d8a83610d57565b610d9e610d9682610d78565b848454610d06565b825550505050565b5f90565b610db2610da6565b610dbd818484610d81565b505050565b5b81811015610de057610dd55f82610daa565b600181019050610dc3565b5050565b601f821115610e2557610df681610cd9565b610dff84610ceb565b81016020851015610e0e578190505b610e22610e1a85610ceb565b830182610dc2565b50505b505050565b5f82821c905092915050565b5f610e455f1984600802610e2a565b1980831691505092915050565b5f610e5d8383610e36565b9150826002028217905092915050565b610e7682610ac2565b67ffffffffffffffff811115610e8f57610e8e610778565b5b610e998254610ca9565b610ea4828285610de4565b5f60209050601f831160018114610ed5575f8415610ec3578287015190505b610ecd8582610e52565b865550610f34565b601f198416610ee386610cd9565b5f5b82811015610f0a57848901518255600182019150602085019450602081019050610ee5565b86831015610f275784890151610f23601f891682610e36565b8355505b6001600288020188555050505b505050505050565b5f604082019050610f4f5f830185610929565b610f5c6020830184610a20565b9392505050565b5f81519050610f71816108a5565b92915050565b5f60208284031215610f8c57610f8b610758565b5b5f610f9984828501610f63565b91505092915050565b7f496e73756666696369656e742062616c616e63650000000000000000000000005f82015250565b5f610fd6601483610acc565b9150610fe182610fa2565b602082019050919050565b5f6020820190508181035f83015261100381610fca565b9050919050565b7f4f776e61626c653a206e6577206f776e657220697320746865207a65726f20615f8201527f6464726573730000000000000000000000000000000000000000000000000000602082015250565b5f611064602683610acc565b915061106f8261100a565b604082019050919050565b5f6020820190508181035f83015261109181611058565b9050919050565b7f4f776e61626c653a2063616c6c6572206973206e6f7420746865206f776e65725f82015250565b5f6110cc602083610acc565b91506110d782611098565b602082019050919050565b5f6020820190508181035f8301526110f9816110c0565b905091905056fea2646970667358221220b9a90182bd6503f7d48294cba40daa5e5ed8d0529d9d69eda011157eb4390d4c64736f6c63430008150033",
			"opcodes": "PUSH1 0x80 PUSH1 0x40 MSTORE PUSH1 0x1 DUP1 SSTORE CALLVALUE DUP1 ISZERO PUSH3 0x14 JUMPI PUSH0 DUP1 REVERT JUMPDEST POP PUSH1 0x40 MLOAD PUSH3 0x1342 CODESIZE SUB DUP1 PUSH3 0x1342 DUP4 CODECOPY DUP2 DUP2 ADD PUSH1 0x40 MSTORE DUP2 ADD SWAP1 PUSH3 0x3A SWAP2 SWAP1 PUSH3 0x1CE JUMP JUMPDEST PUSH3 0x5A PUSH3 0x4E PUSH3 0xA1 PUSH1 0x20 SHL PUSH1 0x20 SHR JUMP JUMPDEST PUSH3 0xA8 PUSH1 0x20 SHL PUSH1 0x20 SHR JUMP JUMPDEST DUP1 PUSH1 0x3 PUSH0 PUSH2 0x100 EXP DUP2 SLOAD DUP2 PUSH20 0xFFFFFFFFFFFFFFFFFFFFFFFFFFFFFFFFFFFFFFFF MUL NOT AND SWAP1 DUP4 PUSH20 0xFFFFFFFFFFFFFFFFFFFFFFFFFFFFFFFFFFFFFFFF AND MUL OR SWAP1 SSTORE POP POP PUSH3 0x1FE JUMP JUMPDEST PUSH0 CALLER SWAP1 POP SWAP1 JUMP JUMPDEST PUSH0 DUP1 PUSH0 SWAP1 SLOAD SWAP1 PUSH2 0x100 EXP SWAP1 DIV PUSH20 0xFFFFFFFFFFFFFFFFFFFFFFFFFFFFFFFFFFFFFFFF AND SWAP1 POP DUP2 PUSH0 DUP1 PUSH2 0x100 EXP DUP2 SLOAD DUP2 PUSH20 0xFFFFFFFFFFFFFFFFFFFFFFFFFFFFFFFFFFFFFFFF MUL NOT AND SWAP1 DUP4 PUSH20 0xFFFFFFFFFFFFFFFFFFFFFFFFFFFFFFFFFFFFFFFF AND MUL OR SWAP1 SSTORE POP DUP2 PUSH20 0xFFFFFFFFFFFFFFFFFFFFFFFFFFFFFFFFFFFFFFFF AND DUP2 PUSH20 0xFFFFFFFFFFFFFFFFFFFFFFFFFFFFFFFFFFFFFFFF AND PUSH32 0x8BE0079C531659141344CD1FD0A4F28419497F9722A3DAAFE3B4186F6B6457E0 PUSH1 0x40 MLOAD PUSH1 0x40 MLOAD DUP1 SWAP2 SUB SWAP1 LOG3 POP POP JUMP JUMPDEST PUSH0 DUP1 REVERT JUMPDEST PUSH0 PUSH20 0xFFFFFFFFFFFFFFFFFFFFFFFFFFFFFFFFFFFFFFFF DUP3 AND SWAP1 POP SWAP2 SWAP1 POP JUMP JUMPDEST PUSH0 PUSH3 0x198 DUP3 PUSH3 0x16D JUMP JUMPDEST SWAP1 POP SWAP2 SWAP1 POP JUMP JUMPDEST PUSH3 0x1AA DUP2 PUSH3 0x18C JUMP JUMPDEST DUP2 EQ PUSH3 0x1B5 JUMPI PUSH0 DUP1 REVERT JUMPDEST POP JUMP JUMPDEST PUSH0 DUP2 MLOAD SWAP1 POP PUSH3 0x1C8 DUP2 PUSH3 0x19F JUMP JUMPDEST SWAP3 SWAP2 POP POP JUMP JUMPDEST PUSH0 PUSH1 0x20 DUP3 DUP5 SUB SLT ISZERO PUSH3 0x1E6 JUMPI PUSH3 0x1E5 PUSH3 0x169 JUMP JUMPDEST JUMPDEST PUSH0 PUSH3 0x1F5 DUP5 DUP3 DUP6 ADD PUSH3 0x1B8 JUMP JUMPDEST SWAP2 POP POP SWAP3 SWAP2 POP POP JUMP JUMPDEST PUSH2 0x1136 DUP1 PUSH3 0x20C PUSH0 CODECOPY PUSH0 RETURN INVALID PUSH1 0x80 PUSH1 0x40 MSTORE CALLVALUE DUP1 ISZERO PUSH2 0xF JUMPI PUSH0 DUP1 REVERT JUMPDEST POP PUSH1 0x4 CALLDATASIZE LT PUSH2 0x91 JUMPI PUSH0 CALLDATALOAD PUSH1 0xE0 SHR DUP1 PUSH4 0x84B9A6E6 GT PUSH2 0x64 JUMPI DUP1 PUSH4 0x84B9A6E6 EQ PUSH2 0x11D JUMPI DUP1 PUSH4 0x8DA5CB5B EQ PUSH2 0x139 JUMPI DUP1 PUSH4 0xCF35BDD0 EQ PUSH2 0x157 JUMPI DUP1 PUSH4 0xE0B4A105 EQ PUSH2 0x188 JUMPI DUP1 PUSH4 0xF2FDE38B EQ PUSH2 0x1B8 JUMPI PUSH2 0x91 JUMP JUMPDEST DUP1 PUSH4 0x1BC7FFE9 EQ PUSH2 0x95 JUMPI DUP1 PUSH4 0x385FA5B1 EQ PUSH2 0xC5 JUMPI DUP1 PUSH4 0x67CCDF38 EQ PUSH2 0xE3 JUMPI DUP1 PUSH4 0x715018A6 EQ PUSH2 0x113 JUMPI JUMPDEST PUSH0 DUP1 REVERT JUMPDEST PUSH2 0xAF PUSH1 0x4 DUP1 CALLDATASIZE SUB DUP2 ADD SWAP1 PUSH2 0xAA SWAP2 SWAP1 PUSH2 0x8CF JUMP JUMPDEST PUSH2 0x1D4 JUMP JUMPDEST PUSH1 0x40 MLOAD PUSH2 0xBC SWAP2 SWAP1 PUSH2 0x938 JUMP JUMPDEST PUSH1 0x40 MLOAD DUP1 SWAP2 SUB SWAP1 RETURN JUMPDEST PUSH2 0xCD PUSH2 0x2D2 JUMP JUMPDEST PUSH1 0x40 MLOAD PUSH2 0xDA SWAP2 SWAP1 PUSH2 0x9CB JUMP JUMPDEST PUSH1 0x40 MLOAD DUP1 SWAP2 SUB SWAP1 RETURN JUMPDEST PUSH2 0xFD PUSH1 0x4 DUP1 CALLDATASIZE SUB DUP2 ADD SWAP1 PUSH2 0xF8 SWAP2 SWAP1 PUSH2 0x9E4 JUMP JUMPDEST PUSH2 0x2F7 JUMP JUMPDEST PUSH1 0x40 MLOAD PUSH2 0x10A SWAP2 SWAP1 PUSH2 0xA2F JUMP JUMPDEST PUSH1 0x40 MLOAD DUP1 SWAP2 SUB SWAP1 RETURN JUMPDEST PUSH2 0x11B PUSH2 0x321 JUMP JUMPDEST STOP JUMPDEST PUSH2 0x137 PUSH1 0x4 DUP1 CALLDATASIZE SUB DUP2 ADD SWAP1 PUSH2 0x132 SWAP2 SWAP1 PUSH2 0xA72 JUMP JUMPDEST PUSH2 0x334 JUMP JUMPDEST STOP JUMPDEST PUSH2 0x141 PUSH2 0x416 JUMP JUMPDEST PUSH1 0x40 MLOAD PUSH2 0x14E SWAP2 SWAP1 PUSH2 0xA2F JUMP JUMPDEST PUSH1 0x40 MLOAD DUP1 SWAP2 SUB SWAP1 RETURN JUMPDEST PUSH2 0x171 PUSH1 0x4 DUP1 CALLDATASIZE SUB DUP2 ADD SWAP1 PUSH2 0x16C SWAP2 SWAP1 PUSH2 0x9E4 JUMP JUMPDEST PUSH2 0x43D JUMP JUMPDEST PUSH1 0x40 MLOAD PUSH2 0x17F SWAP3 SWAP2 SWAP1 PUSH2 0xB3C JUMP JUMPDEST PUSH1 0x40 MLOAD DUP1 SWAP2 SUB SWAP1 RETURN JUMPDEST PUSH2 0x1A2 PUSH1 0x4 DUP1 CALLDATASIZE SUB DUP2 ADD SWAP1 PUSH2 0x19D SWAP2 SWAP1 PUSH2 0xB6A JUMP JUMPDEST PUSH2 0x4E3 JUMP JUMPDEST PUSH1 0x40 MLOAD PUSH2 0x1AF SWAP2 SWAP1 PUSH2 0x938 JUMP JUMPDEST PUSH1 0x40 MLOAD DUP1 SWAP2 SUB SWAP1 RETURN JUMPDEST PUSH2 0x1D2 PUSH1 0x4 DUP1 CALLDATASIZE SUB DUP2 ADD SWAP1 PUSH2 0x1CD SWAP2 SWAP1 PUSH2 0xBA8 JUMP JUMPDEST PUSH2 0x587 JUMP JUMPDEST STOP JUMPDEST PUSH0 PUSH2 0x1DD PUSH2 0x609 JUMP JUMPDEST PUSH0 PUSH1 0x1 PUSH0 DUP2 SLOAD DUP1 SWAP3 SWAP2 SWAP1 PUSH2 0x1F0 SWAP1 PUSH2 0xC00 JUMP JUMPDEST SWAP2 SWAP1 POP SSTORE SWAP1 POP PUSH1 0x3 PUSH0 SWAP1 SLOAD SWAP1 PUSH2 0x100 EXP SWAP1 DIV PUSH20 0xFFFFFFFFFFFFFFFFFFFFFFFFFFFFFFFFFFFFFFFF AND PUSH20 0xFFFFFFFFFFFFFFFFFFFFFFFFFFFFFFFFFFFFFFFF AND PUSH4 0xA5A801E DUP3 CALLER DUP7 PUSH1 0x40 MLOAD DUP5 PUSH4 0xFFFFFFFF AND PUSH1 0xE0 SHL DUP2 MSTORE PUSH1 0x4 ADD PUSH2 0x254 SWAP4 SWAP3 SWAP2 SWAP1 PUSH2 0xC47 JUMP JUMPDEST PUSH0 PUSH1 0x40 MLOAD DUP1 DUP4 SUB DUP2 PUSH0 DUP8 DUP1 EXTCODESIZE ISZERO DUP1 ISZERO PUSH2 0x26B JUMPI PUSH0 DUP1 REVERT JUMPDEST POP GAS CALL ISZERO DUP1 ISZERO PUSH2 0x27D JUMPI RETURNDATASIZE PUSH0 DUP1 RETURNDATACOPY RETURNDATASIZE PUSH0 REVERT JUMPDEST POP POP POP POP PUSH1 0x40 MLOAD DUP1 PUSH1 0x40 ADD PUSH1 0x40 MSTORE DUP1 DUP3 DUP2 MSTORE PUSH1 0x20 ADD DUP6 DUP2 MSTORE POP PUSH1 0x2 PUSH0 DUP4 DUP2 MSTORE PUSH1 0x20 ADD SWAP1 DUP2 MSTORE PUSH1 0x20 ADD PUSH0 KECCAK256 PUSH0 DUP3 ADD MLOAD DUP2 PUSH0 ADD SSTORE PUSH1 0x20 DUP3 ADD MLOAD DUP2 PUSH1 0x1 ADD SWAP1 DUP2 PUSH2 0x2C4 SWAP2 SWAP1 PUSH2 0xE6D JUMP JUMPDEST POP SWAP1 POP POP DUP1 SWAP2 POP POP SWAP3 SWAP2 POP POP JUMP JUMPDEST PUSH1 0x3 PUSH0 SWAP1 SLOAD SWAP1 PUSH2 0x100 EXP SWAP1 DIV PUSH20 0xFFFFFFFFFFFFFFFFFFFFFFFFFFFFFFFFFFFFFFFF AND DUP2 JUMP JUMPDEST PUSH0 PUSH1 0x3 PUSH0 SWAP1 SLOAD SWAP1 PUSH2 0x100 EXP SWAP1 DIV PUSH20 0xFFFFFFFFFFFFFFFFFFFFFFFFFFFFFFFFFFFFFFFF AND SWAP1 POP SWAP2 SWAP1 POP JUMP JUMPDEST PUSH2 0x329 PUSH2 0x609 JUMP JUMPDEST PUSH2 0x332 PUSH0 PUSH2 0x687 JUMP JUMPDEST JUMP JUMPDEST DUP1 PUSH1 0x3 PUSH0 SWAP1 SLOAD SWAP1 PUSH2 0x100 EXP SWAP1 DIV PUSH20 0xFFFFFFFFFFFFFFFFFFFFFFFFFFFFFFFFFFFFFFFF AND PUSH20 0xFFFFFFFFFFFFFFFFFFFFFFFFFFFFFFFFFFFFFFFF AND PUSH4 0xA7C3E393 DUP6 CALLER PUSH1 0x40 MLOAD DUP4 PUSH4 0xFFFFFFFF AND PUSH1 0xE0 SHL DUP2 MSTORE PUSH1 0x4 ADD PUSH2 0x391 SWAP3 SWAP2 SWAP1 PUSH2 0xF3C JUMP JUMPDEST PUSH1 0x20 PUSH1 0x40 MLOAD DUP1 DUP4 SUB DUP2 DUP7 GAS STATICCALL ISZERO DUP1 ISZERO PUSH2 0x3AC JUMPI RETURNDATASIZE PUSH0 DUP1 RETURNDATACOPY RETURNDATASIZE PUSH0 REVERT JUMPDEST POP POP POP POP PUSH1 0x40 MLOAD RETURNDATASIZE PUSH1 0x1F NOT PUSH1 0x1F DUP3 ADD AND DUP3 ADD DUP1 PUSH1 0x40 MSTORE POP DUP2 ADD SWAP1 PUSH2 0x3D0 SWAP2 SWAP1 PUSH2 0xF77 JUMP JUMPDEST LT ISZERO PUSH2 0x411 JUMPI PUSH1 0x40 MLOAD PUSH32 0x8C379A000000000000000000000000000000000000000000000000000000000 DUP2 MSTORE PUSH1 0x4 ADD PUSH2 0x408 SWAP1 PUSH2 0xFEC JUMP JUMPDEST PUSH1 0x40 MLOAD DUP1 SWAP2 SUB SWAP1 REVERT JUMPDEST POP POP POP JUMP JUMPDEST PUSH0 DUP1 PUSH0 SWAP1 SLOAD SWAP1 PUSH2 0x100 EXP SWAP1 DIV PUSH20 0xFFFFFFFFFFFFFFFFFFFFFFFFFFFFFFFFFFFFFFFF AND SWAP1 POP SWAP1 JUMP JUMPDEST PUSH1 0x2 PUSH1 0x20 MSTORE DUP1 PUSH0 MSTORE PUSH1 0x40 PUSH0 KECCAK256 PUSH0 SWAP2 POP SWAP1 POP DUP1 PUSH0 ADD SLOAD SWAP1 DUP1 PUSH1 0x1 ADD DUP1 SLOAD PUSH2 0x462 SWAP1 PUSH2 0xCA9 JUMP JUMPDEST DUP1 PUSH1 0x1F ADD PUSH1 0x20 DUP1 SWAP2 DIV MUL PUSH1 0x20 ADD PUSH1 0x40 MLOAD SWAP1 DUP2 ADD PUSH1 0x40 MSTORE DUP1 SWAP3 SWAP2 SWAP1 DUP2 DUP2 MSTORE PUSH1 0x20 ADD DUP3 DUP1 SLOAD PUSH2 0x48E SWAP1 PUSH2 0xCA9 JUMP JUMPDEST DUP1 ISZERO PUSH2 0x4D9 JUMPI DUP1 PUSH1 0x1F LT PUSH2 0x4B0 JUMPI PUSH2 0x100 DUP1 DUP4 SLOAD DIV MUL DUP4 MSTORE SWAP2 PUSH1 0x20 ADD SWAP2 PUSH2 0x4D9 JUMP JUMPDEST DUP3 ADD SWAP2 SWAP1 PUSH0 MSTORE PUSH1 0x20 PUSH0 KECCAK256 SWAP1 JUMPDEST DUP2 SLOAD DUP2 MSTORE SWAP1 PUSH1 0x1 ADD SWAP1 PUSH1 0x20 ADD DUP1 DUP4 GT PUSH2 0x4BC JUMPI DUP3 SWAP1 SUB PUSH1 0x1F AND DUP3 ADD SWAP2 JUMPDEST POP POP POP POP POP SWAP1 POP DUP3 JUMP JUMPDEST PUSH0 PUSH1 0x3 PUSH0 SWAP1 SLOAD SWAP1 PUSH2 0x100 EXP SWAP1 DIV PUSH20 0xFFFFFFFFFFFFFFFFFFFFFFFFFFFFFFFFFFFFFFFF AND PUSH20 0xFFFFFFFFFFFFFFFFFFFFFFFFFFFFFFFFFFFFFFFF AND PUSH4 0xA7C3E393 DUP5 DUP5 PUSH1 0x40 MLOAD DUP4 PUSH4 0xFFFFFFFF AND PUSH1 0xE0 SHL DUP2 MSTORE PUSH1 0x4 ADD PUSH2 0x540 SWAP3 SWAP2 SWAP1 PUSH2 0xF3C JUMP JUMPDEST PUSH1 0x20 PUSH1 0x40 MLOAD DUP1 DUP4 SUB DUP2 DUP7 GAS STATICCALL ISZERO DUP1 ISZERO PUSH2 0x55B JUMPI RETURNDATASIZE PUSH0 DUP1 RETURNDATACOPY RETURNDATASIZE PUSH0 REVERT JUMPDEST POP POP POP POP PUSH1 0x40 MLOAD RETURNDATASIZE PUSH1 0x1F NOT PUSH1 0x1F DUP3 ADD AND DUP3 ADD DUP1 PUSH1 0x40 MSTORE POP DUP2 ADD SWAP1 PUSH2 0x57F SWAP2 SWAP1 PUSH2 0xF77 JUMP JUMPDEST SWAP1 POP SWAP3 SWAP2 POP POP JUMP JUMPDEST PUSH2 0x58F PUSH2 0x609 JUMP JUMPDEST PUSH0 PUSH20 0xFFFFFFFFFFFFFFFFFFFFFFFFFFFFFFFFFFFFFFFF AND DUP2 PUSH20 0xFFFFFFFFFFFFFFFFFFFFFFFFFFFFFFFFFFFFFFFF AND SUB PUSH2 0x5FD JUMPI PUSH1 0x40 MLOAD PUSH32 0x8C379A000000000000000000000000000000000000000000000000000000000 DUP2 MSTORE PUSH1 0x4 ADD PUSH2 0x5F4 SWAP1 PUSH2 0x107A JUMP JUMPDEST PUSH1 0x40 MLOAD DUP1 SWAP2 SUB SWAP1 REVERT JUMPDEST PUSH2 0x606 DUP2 PUSH2 0x687 JUMP JUMPDEST POP JUMP JUMPDEST PUSH2 0x611 PUSH2 0x748 JUMP JUMPDEST PUSH20 0xFFFFFFFFFFFFFFFFFFFFFFFFFFFFFFFFFFFFFFFF AND PUSH2 0x62F PUSH2 0x416 JUMP JUMPDEST PUSH20 0xFFFFFFFFFFFFFFFFFFFFFFFFFFFFFFFFFFFFFFFF AND EQ PUSH2 0x685 JUMPI PUSH1 0x40 MLOAD PUSH32 0x8C379A000000000000000000000000000000000000000000000000000000000 DUP2 MSTORE PUSH1 0x4 ADD PUSH2 0x67C SWAP1 PUSH2 0x10E2 JUMP JUMPDEST PUSH1 0x40 MLOAD DUP1 SWAP2 SUB SWAP1 REVERT JUMPDEST JUMP JUMPDEST PUSH0 DUP1 PUSH0 SWAP1 SLOAD SWAP1 PUSH2 0x100 EXP SWAP1 DIV PUSH20 0xFFFFFFFFFFFFFFFFFFFFFFFFFFFFFFFFFFFFFFFF AND SWAP1 POP DUP2 PUSH0 DUP1 PUSH2 0x100 EXP DUP2 SLOAD DUP2 PUSH20 0xFFFFFFFFFFFFFFFFFFFFFFFFFFFFFFFFFFFFFFFF MUL NOT AND SWAP1 DUP4 PUSH20 0xFFFFFFFFFFFFFFFFFFFFFFFFFFFFFFFFFFFFFFFF AND MUL OR SWAP1 SSTORE POP DUP2 PUSH20 0xFFFFFFFFFFFFFFFFFFFFFFFFFFFFFFFFFFFFFFFF AND DUP2 PUSH20 0xFFFFFFFFFFFFFFFFFFFFFFFFFFFFFFFFFFFFFFFF AND PUSH32 0x8BE0079C531659141344CD1FD0A4F28419497F9722A3DAAFE3B4186F6B6457E0 PUSH1 0x40 MLOAD PUSH1 0x40 MLOAD DUP1 SWAP2 SUB SWAP1 LOG3 POP POP JUMP JUMPDEST PUSH0 CALLER SWAP1 POP SWAP1 JUMP JUMPDEST PUSH0 PUSH1 0x40 MLOAD SWAP1 POP SWAP1 JUMP JUMPDEST PUSH0 DUP1 REVERT JUMPDEST PUSH0 DUP1 REVERT JUMPDEST PUSH0 DUP1 REVERT JUMPDEST PUSH0 DUP1 REVERT JUMPDEST PUSH0 PUSH1 0x1F NOT PUSH1 0x1F DUP4 ADD AND SWAP1 POP SWAP2 SWAP1 POP JUMP JUMPDEST PUSH32 0x4E487B7100000000000000000000000000000000000000000000000000000000 PUSH0 MSTORE PUSH1 0x41 PUSH1 0x4 MSTORE PUSH1 0x24 PUSH0 REVERT JUMPDEST PUSH2 0x7AE DUP3 PUSH2 0x768 JUMP JUMPDEST DUP2 ADD DUP2 DUP2 LT PUSH8 0xFFFFFFFFFFFFFFFF DUP3 GT OR ISZERO PUSH2 0x7CD JUMPI PUSH2 0x7CC PUSH2 0x778 JUMP JUMPDEST JUMPDEST DUP1 PUSH1 0x40 MSTORE POP POP POP JUMP JUMPDEST PUSH0 PUSH2 0x7DF PUSH2 0x74F JUMP JUMPDEST SWAP1 POP PUSH2 0x7EB DUP3 DUP3 PUSH2 0x7A5 JUMP JUMPDEST SWAP2 SWAP1 POP JUMP JUMPDEST PUSH0 PUSH8 0xFFFFFFFFFFFFFFFF DUP3 GT ISZERO PUSH2 0x80A JUMPI PUSH2 0x809 PUSH2 0x778 JUMP JUMPDEST JUMPDEST PUSH2 0x813 DUP3 PUSH2 0x768 JUMP JUMPDEST SWAP1 POP PUSH1 0x20 DUP2 ADD SWAP1 POP SWAP2 SWAP1 POP JUMP JUMPDEST DUP3 DUP2 DUP4 CALLDATACOPY PUSH0 DUP4 DUP4 ADD MSTORE POP POP POP JUMP JUMPDEST PUSH0 PUSH2 0x840 PUSH2 0x83B DUP5 PUSH2 0x7F0 JUMP JUMPDEST PUSH2 0x7D6 JUMP JUMPDEST SWAP1 POP DUP3 DUP2 MSTORE PUSH1 0x20 DUP2 ADD DUP5 DUP5 DUP5 ADD GT ISZERO PUSH2 0x85C JUMPI PUSH2 0x85B PUSH2 0x764 JUMP JUMPDEST JUMPDEST PUSH2 0x867 DUP5 DUP3 DUP6 PUSH2 0x820 JUMP JUMPDEST POP SWAP4 SWAP3 POP POP POP JUMP JUMPDEST PUSH0 DUP3 PUSH1 0x1F DUP4 ADD SLT PUSH2 0x883 JUMPI PUSH2 0x882 PUSH2 0x760 JUMP JUMPDEST JUMPDEST DUP2 CALLDATALOAD PUSH2 0x893 DUP5 DUP3 PUSH1 0x20 DUP7 ADD PUSH2 0x82E JUMP JUMPDEST SWAP2 POP POP SWAP3 SWAP2 POP POP JUMP JUMPDEST PUSH0 DUP2 SWAP1 POP SWAP2 SWAP1 POP JUMP JUMPDEST PUSH2 0x8AE DUP2 PUSH2 0x89C JUMP JUMPDEST DUP2 EQ PUSH2 0x8B8 JUMPI PUSH0 DUP1 REVERT JUMPDEST POP JUMP JUMPDEST PUSH0 DUP2 CALLDATALOAD SWAP1 POP PUSH2 0x8C9 DUP2 PUSH2 0x8A5 JUMP JUMPDEST SWAP3 SWAP2 POP POP JUMP JUMPDEST PUSH0 DUP1 PUSH1 0x40 DUP4 DUP6 SUB SLT ISZERO PUSH2 0x8E5 JUMPI PUSH2 0x8E4 PUSH2 0x758 JUMP JUMPDEST JUMPDEST PUSH0 DUP4 ADD CALLDATALOAD PUSH8 0xFFFFFFFFFFFFFFFF DUP2 GT ISZERO PUSH2 0x902 JUMPI PUSH2 0x901 PUSH2 0x75C JUMP JUMPDEST JUMPDEST PUSH2 0x90E DUP6 DUP3 DUP7 ADD PUSH2 0x86F JUMP JUMPDEST SWAP3 POP POP PUSH1 0x20 PUSH2 0x91F DUP6 DUP3 DUP7 ADD PUSH2 0x8BB JUMP JUMPDEST SWAP2 POP POP SWAP3 POP SWAP3 SWAP1 POP JUMP JUMPDEST PUSH2 0x932 DUP2 PUSH2 0x89C JUMP JUMPDEST DUP3 MSTORE POP POP JUMP JUMPDEST PUSH0 PUSH1 0x20 DUP3 ADD SWAP1 POP PUSH2 0x94B PUSH0 DUP4 ADD DUP5 PUSH2 0x929 JUMP JUMPDEST SWAP3 SWAP2 POP POP JUMP JUMPDEST PUSH0 PUSH20 0xFFFFFFFFFFFFFFFFFFFFFFFFFFFFFFFFFFFFFFFF DUP3 AND SWAP1 POP SWAP2 SWAP1 POP JUMP JUMPDEST PUSH0 DUP2 SWAP1 POP SWAP2 SWAP1 POP JUMP JUMPDEST PUSH0 PUSH2 0x993 PUSH2 0x98E PUSH2 0x989 DUP5 PUSH2 0x951 JUMP JUMPDEST PUSH2 0x970 JUMP JUMPDEST PUSH2 0x951 JUMP JUMPDEST SWAP1 POP SWAP2 SWAP1 POP JUMP JUMPDEST PUSH0 PUSH2 0x9A4 DUP3 PUSH2 0x979 JUMP JUMPDEST SWAP1 POP SWAP2 SWAP1 POP JUMP JUMPDEST PUSH0 PUSH2 0x9B5 DUP3 PUSH2 0x99A JUMP JUMPDEST SWAP1 POP SWAP2 SWAP1 POP JUMP JUMPDEST PUSH2 0x9C5 DUP2 PUSH2 0x9AB JUMP JUMPDEST DUP3 MSTORE POP POP JUMP JUMPDEST PUSH0 PUSH1 0x20 DUP3 ADD SWAP1 POP PUSH2 0x9DE PUSH0 DUP4 ADD DUP5 PUSH2 0x9BC JUMP JUMPDEST SWAP3 SWAP2 POP POP JUMP JUMPDEST PUSH0 PUSH1 0x20 DUP3 DUP5 SUB SLT ISZERO PUSH2 0x9F9 JUMPI PUSH2 0x9F8 PUSH2 0x758 JUMP JUMPDEST JUMPDEST PUSH0 PUSH2 0xA06 DUP5 DUP3 DUP6 ADD PUSH2 0x8BB JUMP JUMPDEST SWAP2 POP POP SWAP3 SWAP2 POP POP JUMP JUMPDEST PUSH0 PUSH2 0xA19 DUP3 PUSH2 0x951 JUMP JUMPDEST SWAP1 POP SWAP2 SWAP1 POP JUMP JUMPDEST PUSH2 0xA29 DUP2 PUSH2 0xA0F JUMP JUMPDEST DUP3 MSTORE POP POP JUMP JUMPDEST PUSH0 PUSH1 0x20 DUP3 ADD SWAP1 POP PUSH2 0xA42 PUSH0 DUP4 ADD DUP5 PUSH2 0xA20 JUMP JUMPDEST SWAP3 SWAP2 POP POP JUMP JUMPDEST PUSH2 0xA51 DUP2 PUSH2 0xA0F JUMP JUMPDEST DUP2 EQ PUSH2 0xA5B JUMPI PUSH0 DUP1 REVERT JUMPDEST POP JUMP JUMPDEST PUSH0 DUP2 CALLDATALOAD SWAP1 POP PUSH2 0xA6C DUP2 PUSH2 0xA48 JUMP JUMPDEST SWAP3 SWAP2 POP POP JUMP JUMPDEST PUSH0 DUP1 PUSH0 PUSH1 0x60 DUP5 DUP7 SUB SLT ISZERO PUSH2 0xA89 JUMPI PUSH2 0xA88 PUSH2 0x758 JUMP JUMPDEST JUMPDEST PUSH0 PUSH2 0xA96 DUP7 DUP3 DUP8 ADD PUSH2 0x8BB JUMP JUMPDEST SWAP4 POP POP PUSH1 0x20 PUSH2 0xAA7 DUP7 DUP3 DUP8 ADD PUSH2 0xA5E JUMP JUMPDEST SWAP3 POP POP PUSH1 0x40 PUSH2 0xAB8 DUP7 DUP3 DUP8 ADD PUSH2 0x8BB JUMP JUMPDEST SWAP2 POP POP SWAP3 POP SWAP3 POP SWAP3 JUMP JUMPDEST PUSH0 DUP2 MLOAD SWAP1 POP SWAP2 SWAP1 POP JUMP JUMPDEST PUSH0 DUP3 DUP3 MSTORE PUSH1 0x20 DUP3 ADD SWAP1 POP SWAP3 SWAP2 POP POP JUMP JUMPDEST PUSH0 JUMPDEST DUP4 DUP2 LT ISZERO PUSH2 0xAF9 JUMPI DUP1 DUP3 ADD MLOAD DUP2 DUP5 ADD MSTORE PUSH1 0x20 DUP2 ADD SWAP1 POP PUSH2 0xADE JUMP JUMPDEST PUSH0 DUP5 DUP5 ADD MSTORE POP POP POP POP JUMP JUMPDEST PUSH0 PUSH2 0xB0E DUP3 PUSH2 0xAC2 JUMP JUMPDEST PUSH2 0xB18 DUP2 DUP6 PUSH2 0xACC JUMP JUMPDEST SWAP4 POP PUSH2 0xB28 DUP2 DUP6 PUSH1 0x20 DUP7 ADD PUSH2 0xADC JUMP JUMPDEST PUSH2 0xB31 DUP2 PUSH2 0x768 JUMP JUMPDEST DUP5 ADD SWAP2 POP POP SWAP3 SWAP2 POP POP JUMP JUMPDEST PUSH0 PUSH1 0x40 DUP3 ADD SWAP1 POP PUSH2 0xB4F PUSH0 DUP4 ADD DUP6 PUSH2 0x929 JUMP JUMPDEST DUP2 DUP2 SUB PUSH1 0x20 DUP4 ADD MSTORE PUSH2 0xB61 DUP2 DUP5 PUSH2 0xB04 JUMP JUMPDEST SWAP1 POP SWAP4 SWAP3 POP POP POP JUMP JUMPDEST PUSH0 DUP1 PUSH1 0x40 DUP4 DUP6 SUB SLT ISZERO PUSH2 0xB80 JUMPI PUSH2 0xB7F PUSH2 0x758 JUMP JUMPDEST JUMPDEST PUSH0 PUSH2 0xB8D DUP6 DUP3 DUP7 ADD PUSH2 0x8BB JUMP JUMPDEST SWAP3 POP POP PUSH1 0x20 PUSH2 0xB9E DUP6 DUP3 DUP7 ADD PUSH2 0xA5E JUMP JUMPDEST SWAP2 POP POP SWAP3 POP SWAP3 SWAP1 POP JUMP JUMPDEST PUSH0 PUSH1 0x20 DUP3 DUP5 SUB SLT ISZERO PUSH2 0xBBD JUMPI PUSH2 0xBBC PUSH2 0x758 JUMP JUMPDEST JUMPDEST PUSH0 PUSH2 0xBCA DUP5 DUP3 DUP6 ADD PUSH2 0xA5E JUMP JUMPDEST SWAP2 POP POP SWAP3 SWAP2 POP POP JUMP JUMPDEST PUSH32 0x4E487B7100000000000000000000000000000000000000000000000000000000 PUSH0 MSTORE PUSH1 0x11 PUSH1 0x4 MSTORE PUSH1 0x24 PUSH0 REVERT JUMPDEST PUSH0 PUSH2 0xC0A DUP3 PUSH2 0x89C JUMP JUMPDEST SWAP2 POP PUSH32 0xFFFFFFFFFFFFFFFFFFFFFFFFFFFFFFFFFFFFFFFFFFFFFFFFFFFFFFFFFFFFFFFF DUP3 SUB PUSH2 0xC3C JUMPI PUSH2 0xC3B PUSH2 0xBD3 JUMP JUMPDEST JUMPDEST PUSH1 0x1 DUP3 ADD SWAP1 POP SWAP2 SWAP1 POP JUMP JUMPDEST PUSH0 PUSH1 0x60 DUP3 ADD SWAP1 POP PUSH2 0xC5A PUSH0 DUP4 ADD DUP7 PUSH2 0x929 JUMP JUMPDEST PUSH2 0xC67 PUSH1 0x20 DUP4 ADD DUP6 PUSH2 0xA20 JUMP JUMPDEST PUSH2 0xC74 PUSH1 0x40 DUP4 ADD DUP5 PUSH2 0x929 JUMP JUMPDEST SWAP5 SWAP4 POP POP POP POP JUMP JUMPDEST PUSH32 0x4E487B7100000000000000000000000000000000000000000000000000000000 PUSH0 MSTORE PUSH1 0x22 PUSH1 0x4 MSTORE PUSH1 0x24 PUSH0 REVERT JUMPDEST PUSH0 PUSH1 0x2 DUP3 DIV SWAP1 POP PUSH1 0x1 DUP3 AND DUP1 PUSH2 0xCC0 JUMPI PUSH1 0x7F DUP3 AND SWAP2 POP JUMPDEST PUSH1 0x20 DUP3 LT DUP2 SUB PUSH2 0xCD3 JUMPI PUSH2 0xCD2 PUSH2 0xC7C JUMP JUMPDEST JUMPDEST POP SWAP2 SWAP1 POP JUMP JUMPDEST PUSH0 DUP2 SWAP1 POP DUP2 PUSH0 MSTORE PUSH1 0x20 PUSH0 KECCAK256 SWAP1 POP SWAP2 SWAP1 POP JUMP JUMPDEST PUSH0 PUSH1 0x20 PUSH1 0x1F DUP4 ADD DIV SWAP1 POP SWAP2 SWAP1 POP JUMP JUMPDEST PUSH0 DUP3 DUP3 SHL SWAP1 POP SWAP3 SWAP2 POP POP JUMP JUMPDEST PUSH0 PUSH1 0x8 DUP4 MUL PUSH2 0xD35 PUSH32 0xFFFFFFFFFFFFFFFFFFFFFFFFFFFFFFFFFFFFFFFFFFFFFFFFFFFFFFFFFFFFFFFF DUP3 PUSH2 0xCFA JUMP JUMPDEST PUSH2 0xD3F DUP7 DUP4 PUSH2 0xCFA JUMP JUMPDEST SWAP6 POP DUP1 NOT DUP5 AND SWAP4 POP DUP1 DUP7 AND DUP5 OR SWAP3 POP POP POP SWAP4 SWAP3 POP POP POP JUMP JUMPDEST PUSH0 PUSH2 0xD71 PUSH2 0xD6C PUSH2 0xD67 DUP5 PUSH2 0x89C JUMP JUMPDEST PUSH2 0x970 JUMP JUMPDEST PUSH2 0x89C JUMP JUMPDEST SWAP1 POP SWAP2 SWAP1 POP JUMP JUMPDEST PUSH0 DUP2 SWAP1 POP SWAP2 SWAP1 POP JUMP JUMPDEST PUSH2 0xD8A DUP4 PUSH2 0xD57 JUMP JUMPDEST PUSH2 0xD9E PUSH2 0xD96 DUP3 PUSH2 0xD78 JUMP JUMPDEST DUP5 DUP5 SLOAD PUSH2 0xD06 JUMP JUMPDEST DUP3 SSTORE POP POP POP POP JUMP JUMPDEST PUSH0 SWAP1 JUMP JUMPDEST PUSH2 0xDB2 PUSH2 0xDA6 JUMP JUMPDEST PUSH2 0xDBD DUP2 DUP5 DUP5 PUSH2 0xD81 JUMP JUMPDEST POP POP POP JUMP JUMPDEST JUMPDEST DUP2 DUP2 LT ISZERO PUSH2 0xDE0 JUMPI PUSH2 0xDD5 PUSH0 DUP3 PUSH2 0xDAA JUMP JUMPDEST PUSH1 0x1 DUP2 ADD SWAP1 POP PUSH2 0xDC3 JUMP JUMPDEST POP POP JUMP JUMPDEST PUSH1 0x1F DUP3 GT ISZERO PUSH2 0xE25 JUMPI PUSH2 0xDF6 DUP2 PUSH2 0xCD9 JUMP JUMPDEST PUSH2 0xDFF DUP5 PUSH2 0xCEB JUMP JUMPDEST DUP2 ADD PUSH1 0x20 DUP6 LT ISZERO PUSH2 0xE0E JUMPI DUP2 SWAP1 POP JUMPDEST PUSH2 0xE22 PUSH2 0xE1A DUP6 PUSH2 0xCEB JUMP JUMPDEST DUP4 ADD DUP3 PUSH2 0xDC2 JUMP JUMPDEST POP POP JUMPDEST POP POP POP JUMP JUMPDEST PUSH0 DUP3 DUP3 SHR SWAP1 POP SWAP3 SWAP2 POP POP JUMP JUMPDEST PUSH0 PUSH2 0xE45 PUSH0 NOT DUP5 PUSH1 0x8 MUL PUSH2 0xE2A JUMP JUMPDEST NOT DUP1 DUP4 AND SWAP2 POP POP SWAP3 SWAP2 POP POP JUMP JUMPDEST PUSH0 PUSH2 0xE5D DUP4 DUP4 PUSH2 0xE36 JUMP JUMPDEST SWAP2 POP DUP3 PUSH1 0x2 MUL DUP3 OR SWAP1 POP SWAP3 SWAP2 POP POP JUMP JUMPDEST PUSH2 0xE76 DUP3 PUSH2 0xAC2 JUMP JUMPDEST PUSH8 0xFFFFFFFFFFFFFFFF DUP2 GT ISZERO PUSH2 0xE8F JUMPI PUSH2 0xE8E PUSH2 0x778 JUMP JUMPDEST JUMPDEST PUSH2 0xE99 DUP3 SLOAD PUSH2 0xCA9 JUMP JUMPDEST PUSH2 0xEA4 DUP3 DUP3 DUP6 PUSH2 0xDE4 JUMP JUMPDEST PUSH0 PUSH1 0x20 SWAP1 POP PUSH1 0x1F DUP4 GT PUSH1 0x1 DUP2 EQ PUSH2 0xED5 JUMPI PUSH0 DUP5 ISZERO PUSH2 0xEC3 JUMPI DUP3 DUP8 ADD MLOAD SWAP1 POP JUMPDEST PUSH2 0xECD DUP6 DUP3 PUSH2 0xE52 JUMP JUMPDEST DUP7 SSTORE POP PUSH2 0xF34 JUMP JUMPDEST PUSH1 0x1F NOT DUP5 AND PUSH2 0xEE3 DUP7 PUSH2 0xCD9 JUMP JUMPDEST PUSH0 JUMPDEST DUP3 DUP2 LT ISZERO PUSH2 0xF0A JUMPI DUP5 DUP10 ADD MLOAD DUP3 SSTORE PUSH1 0x1 DUP3 ADD SWAP2 POP PUSH1 0x20 DUP6 ADD SWAP5 POP PUSH1 0x20 DUP2 ADD SWAP1 POP PUSH2 0xEE5 JUMP JUMPDEST DUP7 DUP4 LT ISZERO PUSH2 0xF27 JUMPI DUP5 DUP10 ADD MLOAD PUSH2 0xF23 PUSH1 0x1F DUP10 AND DUP3 PUSH2 0xE36 JUMP JUMPDEST DUP4 SSTORE POP JUMPDEST PUSH1 0x1 PUSH1 0x2 DUP9 MUL ADD DUP9 SSTORE POP POP POP JUMPDEST POP POP POP POP POP POP JUMP JUMPDEST PUSH0 PUSH1 0x40 DUP3 ADD SWAP1 POP PUSH2 0xF4F PUSH0 DUP4 ADD DUP6 PUSH2 0x929 JUMP JUMPDEST PUSH2 0xF5C PUSH1 0x20 DUP4 ADD DUP5 PUSH2 0xA20 JUMP JUMPDEST SWAP4 SWAP3 POP POP POP JUMP JUMPDEST PUSH0 DUP2 MLOAD SWAP1 POP PUSH2 0xF71 DUP2 PUSH2 0x8A5 JUMP JUMPDEST SWAP3 SWAP2 POP POP JUMP JUMPDEST PUSH0 PUSH1 0x20 DUP3 DUP5 SUB SLT ISZERO PUSH2 0xF8C JUMPI PUSH2 0xF8B PUSH2 0x758 JUMP JUMPDEST JUMPDEST PUSH0 PUSH2 0xF99 DUP5 DUP3 DUP6 ADD PUSH2 0xF63 JUMP JUMPDEST SWAP2 POP POP SWAP3 SWAP2 POP POP JUMP JUMPDEST PUSH32 0x496E73756666696369656E742062616C616E6365000000000000000000000000 PUSH0 DUP3 ADD MSTORE POP JUMP JUMPDEST PUSH0 PUSH2 0xFD6 PUSH1 0x14 DUP4 PUSH2 0xACC JUMP JUMPDEST SWAP2 POP PUSH2 0xFE1 DUP3 PUSH2 0xFA2 JUMP JUMPDEST PUSH1 0x20 DUP3 ADD SWAP1 POP SWAP2 SWAP1 POP JUMP JUMPDEST PUSH0 PUSH1 0x20 DUP3 ADD SWAP1 POP DUP2 DUP2 SUB PUSH0 DUP4 ADD MSTORE PUSH2 0x1003 DUP2 PUSH2 0xFCA JUMP JUMPDEST SWAP1 POP SWAP2 SWAP1 POP JUMP JUMPDEST PUSH32 0x4F776E61626C653A206E6577206F776E657220697320746865207A65726F2061 PUSH0 DUP3 ADD MSTORE PUSH32 0x6464726573730000000000000000000000000000000000000000000000000000 PUSH1 0x20 DUP3 ADD MSTORE POP JUMP JUMPDEST PUSH0 PUSH2 0x1064 PUSH1 0x26 DUP4 PUSH2 0xACC JUMP JUMPDEST SWAP2 POP PUSH2 0x106F DUP3 PUSH2 0x100A JUMP JUMPDEST PUSH1 0x40 DUP3 ADD SWAP1 POP SWAP2 SWAP1 POP JUMP JUMPDEST PUSH0 PUSH1 0x20 DUP3 ADD SWAP1 POP DUP2 DUP2 SUB PUSH0 DUP4 ADD MSTORE PUSH2 0x1091 DUP2 PUSH2 0x1058 JUMP JUMPDEST SWAP1 POP SWAP2 SWAP1 POP JUMP JUMPDEST PUSH32 0x4F776E61626C653A2063616C6C6572206973206E6F7420746865206F776E6572 PUSH0 DUP3 ADD MSTORE POP JUMP JUMPDEST PUSH0 PUSH2 0x10CC PUSH1 0x20 DUP4 PUSH2 0xACC JUMP JUMPDEST SWAP2 POP PUSH2 0x10D7 DUP3 PUSH2 0x1098 JUMP JUMPDEST PUSH1 0x20 DUP3 ADD SWAP1 POP SWAP2 SWAP1 POP JUMP JUMPDEST PUSH0 PUSH1 0x20 DUP3 ADD SWAP1 POP DUP2 DUP2 SUB PUSH0 DUP4 ADD MSTORE PUSH2 0x10F9 DUP2 PUSH2 0x10C0 JUMP JUMPDEST SWAP1 POP SWAP2 SWAP1 POP JUMP INVALID LOG2 PUSH5 0x6970667358 0x22 SLT KECCAK256 0xB9 0xA9 ADD DUP3 0xBD PUSH6 0x3F7D48294CB LOG4 0xD 0xAA 0x5E 0x5E 0xD8 0xD0 MSTORE SWAP14 SWAP14 PUSH10 0xEDA011157EB4390D4C64 PUSH20 0x6F6C634300081500330000000000000000000000 "
		},
		"gasEstimates": {
			"creation": {
				"codeDepositCost": "881200",
				"executionCost": "infinite",
				"totalCost": "infinite"
			},
			"external": {
				"addAsset(string,uint256)": "infinite",
				"assets(uint256)": "infinite",
				"getSharesForWallet(uint256,address)": "infinite",
				"getTokenAddress(uint256)": "2821",
				"owner()": "2537",
				"renounceOwnership()": "30457",
				"sharedToken()": "infinite",
				"transferOwnership(address)": "30819",
				"transferShares(uint256,address,uint256)": "infinite"
			}
		},
		"methodIdentifiers": {
			"addAsset(string,uint256)": "1bc7ffe9",
			"assets(uint256)": "cf35bdd0",
			"getSharesForWallet(uint256,address)": "e0b4a105",
			"getTokenAddress(uint256)": "67ccdf38",
			"owner()": "8da5cb5b",
			"renounceOwnership()": "715018a6",
			"sharedToken()": "385fa5b1",
			"transferOwnership(address)": "f2fde38b",
			"transferShares(uint256,address,uint256)": "84b9a6e6"
		}
	},
	"abi": [
		{
			"inputs": [
				{
					"internalType": "address",
					"name": "_sharedToken",
					"type": "address"
				}
			],
			"stateMutability": "nonpayable",
			"type": "constructor"
		},
		{
			"anonymous": false,
			"inputs": [
				{
					"indexed": true,
					"internalType": "address",
					"name": "previousOwner",
					"type": "address"
				},
				{
					"indexed": true,
					"internalType": "address",
					"name": "newOwner",
					"type": "address"
				}
			],
			"name": "OwnershipTransferred",
			"type": "event"
		},
		{
			"inputs": [
				{
					"internalType": "string",
					"name": "ipfsAddress",
					"type": "string"
				},
				{
					"internalType": "uint256",
					"name": "initialSupply",
					"type": "uint256"
				}
			],
			"name": "addAsset",
			"outputs": [
				{
					"internalType": "uint256",
					"name": "",
					"type": "uint256"
				}
			],
			"stateMutability": "nonpayable",
			"type": "function"
		},
		{
			"inputs": [
				{
					"internalType": "uint256",
					"name": "",
					"type": "uint256"
				}
			],
			"name": "assets",
			"outputs": [
				{
					"internalType": "uint256",
					"name": "assetId",
					"type": "uint256"
				},
				{
					"internalType": "string",
					"name": "ipfsAddress",
					"type": "string"
				}
			],
			"stateMutability": "view",
			"type": "function"
		},
		{
			"inputs": [
				{
					"internalType": "uint256",
					"name": "assetId",
					"type": "uint256"
				},
				{
					"internalType": "address",
					"name": "wallet",
					"type": "address"
				}
			],
			"name": "getSharesForWallet",
			"outputs": [
				{
					"internalType": "uint256",
					"name": "",
					"type": "uint256"
				}
			],
			"stateMutability": "view",
			"type": "function"
		},
		{
			"inputs": [
				{
					"internalType": "uint256",
					"name": "assetId",
					"type": "uint256"
				}
			],
			"name": "getTokenAddress",
			"outputs": [
				{
					"internalType": "address",
					"name": "",
					"type": "address"
				}
			],
			"stateMutability": "view",
			"type": "function"
		},
		{
			"inputs": [],
			"name": "owner",
			"outputs": [
				{
					"internalType": "address",
					"name": "",
					"type": "address"
				}
			],
			"stateMutability": "view",
			"type": "function"
		},
		{
			"inputs": [],
			"name": "renounceOwnership",
			"outputs": [],
			"stateMutability": "nonpayable",
			"type": "function"
		},
		{
			"inputs": [],
			"name": "sharedToken",
			"outputs": [
				{
					"internalType": "contract AssetShareToken",
					"name": "",
					"type": "address"
				}
			],
			"stateMutability": "view",
			"type": "function"
		},
		{
			"inputs": [
				{
					"internalType": "address",
					"name": "newOwner",
					"type": "address"
				}
			],
			"name": "transferOwnership",
			"outputs": [],
			"stateMutability": "nonpayable",
			"type": "function"
		},
		{
			"inputs": [
				{
					"internalType": "uint256",
					"name": "assetId",
					"type": "uint256"
				},
				{
					"internalType": "address",
					"name": "recipient",
					"type": "address"
				},
				{
					"internalType": "uint256",
					"name": "amount",
					"type": "uint256"
				}
			],
			"name": "transferShares",
			"outputs": [],
			"stateMutability": "nonpayable",
			"type": "function"
		}
	]
}