{
	"data": {
		"bytecode": {
			"linkReferences": {},
			"object": "608060405260018055348015610013575f80fd5b5061003061002561003560201b60201c565b61003c60201b60201c565b6100fd565b5f33905090565b5f805f9054906101000a900473ffffffffffffffffffffffffffffffffffffffff169050815f806101000a81548173ffffffffffffffffffffffffffffffffffffffff021916908373ffffffffffffffffffffffffffffffffffffffff1602179055508173ffffffffffffffffffffffffffffffffffffffff168173ffffffffffffffffffffffffffffffffffffffff167f8be0079c531659141344cd1fd0a4f28419497f9722a3daafe3b4186f6b6457e060405160405180910390a35050565b6112108061010a5f395ff3fe608060405234801561000f575f80fd5b5060043610610091575f3560e01c806387541ed61161006457806387541ed61461011b5780638da5cb5b1461014b578063cf35bdd014610169578063e122f9071461019a578063f2fde38b146101b857610091565b80631bc7ffe9146100955780633656eec2146100c5578063715018a6146100f557806384b9a6e6146100ff575b5f80fd5b6100af60048036038101906100aa9190610972565b6101d4565b6040516100bc91906109db565b60405180910390f35b6100df60048036038101906100da9190610a4e565b6102b4565b6040516100ec91906109db565b60405180910390f35b6100fd61030d565b005b61011960048036038101906101149190610a8c565b610320565b005b61013560048036038101906101309190610adc565b6104e7565b60405161014291906109db565b60405180910390f35b610153610507565b6040516101609190610b16565b60405180910390f35b610183600480360381019061017e9190610adc565b61052e565b604051610191929190610ba9565b60405180910390f35b6101a26105d4565b6040516101af9190610c8e565b60405180910390f35b6101d260048036038101906101cd9190610cae565b61062a565b005b5f6101dd6106ac565b5f60015f8154809291906101f090610d06565b9190505590508360025f8381526020019081526020015f205f0190816102169190610f47565b508260025f8381526020019081526020015f206001015f3373ffffffffffffffffffffffffffffffffffffffff1673ffffffffffffffffffffffffffffffffffffffff1681526020019081526020015f20819055508260025f8381526020019081526020015f2060020181905550600381908060018154018082558091505060019003905f5260205f20015f90919091909150558091505092915050565b5f60025f8481526020019081526020015f206001015f8373ffffffffffffffffffffffffffffffffffffffff1673ffffffffffffffffffffffffffffffffffffffff1681526020019081526020015f2054905092915050565b6103156106ac565b61031e5f61072a565b565b8060025f8581526020019081526020015f206001015f3373ffffffffffffffffffffffffffffffffffffffff1673ffffffffffffffffffffffffffffffffffffffff1681526020019081526020015f205410156103b2576040517f08c379a00000000000000000000000000000000000000000000000000000000081526004016103a990611060565b60405180910390fd5b8060025f8581526020019081526020015f206001015f3373ffffffffffffffffffffffffffffffffffffffff1673ffffffffffffffffffffffffffffffffffffffff1681526020019081526020015f205f828254610410919061107e565b925050819055508060025f8581526020019081526020015f206001015f8473ffffffffffffffffffffffffffffffffffffffff1673ffffffffffffffffffffffffffffffffffffffff1681526020019081526020015f205f82825461047591906110b1565b925050819055508173ffffffffffffffffffffffffffffffffffffffff163373ffffffffffffffffffffffffffffffffffffffff16847f0d93b0e8579bc9db73c85a1fb79d785ffc47f8e20d346253f809cc98c48292a0846040516104da91906109db565b60405180910390a4505050565b600381815481106104f6575f80fd5b905f5260205f20015f915090505481565b5f805f9054906101000a900473ffffffffffffffffffffffffffffffffffffffff16905090565b6002602052805f5260405f205f91509050805f01805461054d90610d7a565b80601f016020809104026020016040519081016040528092919081815260200182805461057990610d7a565b80156105c45780601f1061059b576101008083540402835291602001916105c4565b820191905f5260205f20905b8154815290600101906020018083116105a757829003601f168201915b5050505050908060020154905082565b6060600380548060200260200160405190810160405280929190818152602001828054801561062057602002820191905f5260205f20905b81548152602001906001019080831161060c575b5050505050905090565b6106326106ac565b5f73ffffffffffffffffffffffffffffffffffffffff168173ffffffffffffffffffffffffffffffffffffffff16036106a0576040517f08c379a000000000000000000000000000000000000000000000000000000000815260040161069790611154565b60405180910390fd5b6106a98161072a565b50565b6106b46107eb565b73ffffffffffffffffffffffffffffffffffffffff166106d2610507565b73ffffffffffffffffffffffffffffffffffffffff1614610728576040517f08c379a000000000000000000000000000000000000000000000000000000000815260040161071f906111bc565b60405180910390fd5b565b5f805f9054906101000a900473ffffffffffffffffffffffffffffffffffffffff169050815f806101000a81548173ffffffffffffffffffffffffffffffffffffffff021916908373ffffffffffffffffffffffffffffffffffffffff1602179055508173ffffffffffffffffffffffffffffffffffffffff168173ffffffffffffffffffffffffffffffffffffffff167f8be0079c531659141344cd1fd0a4f28419497f9722a3daafe3b4186f6b6457e060405160405180910390a35050565b5f33905090565b5f604051905090565b5f80fd5b5f80fd5b5f80fd5b5f80fd5b5f601f19601f8301169050919050565b7f4e487b71000000000000000000000000000000000000000000000000000000005f52604160045260245ffd5b6108518261080b565b810181811067ffffffffffffffff821117156108705761086f61081b565b5b80604052505050565b5f6108826107f2565b905061088e8282610848565b919050565b5f67ffffffffffffffff8211156108ad576108ac61081b565b5b6108b68261080b565b9050602081019050919050565b828183375f83830152505050565b5f6108e36108de84610893565b610879565b9050828152602081018484840111156108ff576108fe610807565b5b61090a8482856108c3565b509392505050565b5f82601f83011261092657610925610803565b5b81356109368482602086016108d1565b91505092915050565b5f819050919050565b6109518161093f565b811461095b575f80fd5b50565b5f8135905061096c81610948565b92915050565b5f8060408385031215610988576109876107fb565b5b5f83013567ffffffffffffffff8111156109a5576109a46107ff565b5b6109b185828601610912565b92505060206109c28582860161095e565b9150509250929050565b6109d58161093f565b82525050565b5f6020820190506109ee5f8301846109cc565b92915050565b5f73ffffffffffffffffffffffffffffffffffffffff82169050919050565b5f610a1d826109f4565b9050919050565b610a2d81610a13565b8114610a37575f80fd5b50565b5f81359050610a4881610a24565b92915050565b5f8060408385031215610a6457610a636107fb565b5b5f610a718582860161095e565b9250506020610a8285828601610a3a565b9150509250929050565b5f805f60608486031215610aa357610aa26107fb565b5b5f610ab08682870161095e565b9350506020610ac186828701610a3a565b9250506040610ad28682870161095e565b9150509250925092565b5f60208284031215610af157610af06107fb565b5b5f610afe8482850161095e565b91505092915050565b610b1081610a13565b82525050565b5f602082019050610b295f830184610b07565b92915050565b5f81519050919050565b5f82825260208201905092915050565b5f5b83811015610b66578082015181840152602081019050610b4b565b5f8484015250505050565b5f610b7b82610b2f565b610b858185610b39565b9350610b95818560208601610b49565b610b9e8161080b565b840191505092915050565b5f6040820190508181035f830152610bc18185610b71565b9050610bd060208301846109cc565b9392505050565b5f81519050919050565b5f82825260208201905092915050565b5f819050602082019050919050565b610c098161093f565b82525050565b5f610c1a8383610c00565b60208301905092915050565b5f602082019050919050565b5f610c3c82610bd7565b610c468185610be1565b9350610c5183610bf1565b805f5b83811015610c81578151610c688882610c0f565b9750610c7383610c26565b925050600181019050610c54565b5085935050505092915050565b5f6020820190508181035f830152610ca68184610c32565b905092915050565b5f60208284031215610cc357610cc26107fb565b5b5f610cd084828501610a3a565b91505092915050565b7f4e487b71000000000000000000000000000000000000000000000000000000005f52601160045260245ffd5b5f610d108261093f565b91507fffffffffffffffffffffffffffffffffffffffffffffffffffffffffffffffff8203610d4257610d41610cd9565b5b600182019050919050565b7f4e487b71000000000000000000000000000000000000000000000000000000005f52602260045260245ffd5b5f6002820490506001821680610d9157607f821691505b602082108103610da457610da3610d4d565b5b50919050565b5f819050815f5260205f209050919050565b5f6020601f8301049050919050565b5f82821b905092915050565b5f60088302610e067fffffffffffffffffffffffffffffffffffffffffffffffffffffffffffffffff82610dcb565b610e108683610dcb565b95508019841693508086168417925050509392505050565b5f819050919050565b5f610e4b610e46610e418461093f565b610e28565b61093f565b9050919050565b5f819050919050565b610e6483610e31565b610e78610e7082610e52565b848454610dd7565b825550505050565b5f90565b610e8c610e80565b610e97818484610e5b565b505050565b5b81811015610eba57610eaf5f82610e84565b600181019050610e9d565b5050565b601f821115610eff57610ed081610daa565b610ed984610dbc565b81016020851015610ee8578190505b610efc610ef485610dbc565b830182610e9c565b50505b505050565b5f82821c905092915050565b5f610f1f5f1984600802610f04565b1980831691505092915050565b5f610f378383610f10565b9150826002028217905092915050565b610f5082610b2f565b67ffffffffffffffff811115610f6957610f6861081b565b5b610f738254610d7a565b610f7e828285610ebe565b5f60209050601f831160018114610faf575f8415610f9d578287015190505b610fa78582610f2c565b86555061100e565b601f198416610fbd86610daa565b5f5b82811015610fe457848901518255600182019150602085019450602081019050610fbf565b868310156110015784890151610ffd601f891682610f10565b8355505b6001600288020188555050505b505050505050565b7f496e73756666696369656e7420736861726573000000000000000000000000005f82015250565b5f61104a601383610b39565b915061105582611016565b602082019050919050565b5f6020820190508181035f8301526110778161103e565b9050919050565b5f6110888261093f565b91506110938361093f565b92508282039050818111156110ab576110aa610cd9565b5b92915050565b5f6110bb8261093f565b91506110c68361093f565b92508282019050808211156110de576110dd610cd9565b5b92915050565b7f4f776e61626c653a206e6577206f776e657220697320746865207a65726f20615f8201527f6464726573730000000000000000000000000000000000000000000000000000602082015250565b5f61113e602683610b39565b9150611149826110e4565b604082019050919050565b5f6020820190508181035f83015261116b81611132565b9050919050565b7f4f776e61626c653a2063616c6c6572206973206e6f7420746865206f776e65725f82015250565b5f6111a6602083610b39565b91506111b182611172565b602082019050919050565b5f6020820190508181035f8301526111d38161119a565b905091905056fea2646970667358221220e14e40aeb926e9608f58329ea055616a1bea6025c69839fcc983613b514b2a2564736f6c63430008150033",
			"opcodes": "PUSH1 0x80 PUSH1 0x40 MSTORE PUSH1 0x1 DUP1 SSTORE CALLVALUE DUP1 ISZERO PUSH2 0x13 JUMPI PUSH0 DUP1 REVERT JUMPDEST POP PUSH2 0x30 PUSH2 0x25 PUSH2 0x35 PUSH1 0x20 SHL PUSH1 0x20 SHR JUMP JUMPDEST PUSH2 0x3C PUSH1 0x20 SHL PUSH1 0x20 SHR JUMP JUMPDEST PUSH2 0xFD JUMP JUMPDEST PUSH0 CALLER SWAP1 POP SWAP1 JUMP JUMPDEST PUSH0 DUP1 PUSH0 SWAP1 SLOAD SWAP1 PUSH2 0x100 EXP SWAP1 DIV PUSH20 0xFFFFFFFFFFFFFFFFFFFFFFFFFFFFFFFFFFFFFFFF AND SWAP1 POP DUP2 PUSH0 DUP1 PUSH2 0x100 EXP DUP2 SLOAD DUP2 PUSH20 0xFFFFFFFFFFFFFFFFFFFFFFFFFFFFFFFFFFFFFFFF MUL NOT AND SWAP1 DUP4 PUSH20 0xFFFFFFFFFFFFFFFFFFFFFFFFFFFFFFFFFFFFFFFF AND MUL OR SWAP1 SSTORE POP DUP2 PUSH20 0xFFFFFFFFFFFFFFFFFFFFFFFFFFFFFFFFFFFFFFFF AND DUP2 PUSH20 0xFFFFFFFFFFFFFFFFFFFFFFFFFFFFFFFFFFFFFFFF AND PUSH32 0x8BE0079C531659141344CD1FD0A4F28419497F9722A3DAAFE3B4186F6B6457E0 PUSH1 0x40 MLOAD PUSH1 0x40 MLOAD DUP1 SWAP2 SUB SWAP1 LOG3 POP POP JUMP JUMPDEST PUSH2 0x1210 DUP1 PUSH2 0x10A PUSH0 CODECOPY PUSH0 RETURN INVALID PUSH1 0x80 PUSH1 0x40 MSTORE CALLVALUE DUP1 ISZERO PUSH2 0xF JUMPI PUSH0 DUP1 REVERT JUMPDEST POP PUSH1 0x4 CALLDATASIZE LT PUSH2 0x91 JUMPI PUSH0 CALLDATALOAD PUSH1 0xE0 SHR DUP1 PUSH4 0x87541ED6 GT PUSH2 0x64 JUMPI DUP1 PUSH4 0x87541ED6 EQ PUSH2 0x11B JUMPI DUP1 PUSH4 0x8DA5CB5B EQ PUSH2 0x14B JUMPI DUP1 PUSH4 0xCF35BDD0 EQ PUSH2 0x169 JUMPI DUP1 PUSH4 0xE122F907 EQ PUSH2 0x19A JUMPI DUP1 PUSH4 0xF2FDE38B EQ PUSH2 0x1B8 JUMPI PUSH2 0x91 JUMP JUMPDEST DUP1 PUSH4 0x1BC7FFE9 EQ PUSH2 0x95 JUMPI DUP1 PUSH4 0x3656EEC2 EQ PUSH2 0xC5 JUMPI DUP1 PUSH4 0x715018A6 EQ PUSH2 0xF5 JUMPI DUP1 PUSH4 0x84B9A6E6 EQ PUSH2 0xFF JUMPI JUMPDEST PUSH0 DUP1 REVERT JUMPDEST PUSH2 0xAF PUSH1 0x4 DUP1 CALLDATASIZE SUB DUP2 ADD SWAP1 PUSH2 0xAA SWAP2 SWAP1 PUSH2 0x972 JUMP JUMPDEST PUSH2 0x1D4 JUMP JUMPDEST PUSH1 0x40 MLOAD PUSH2 0xBC SWAP2 SWAP1 PUSH2 0x9DB JUMP JUMPDEST PUSH1 0x40 MLOAD DUP1 SWAP2 SUB SWAP1 RETURN JUMPDEST PUSH2 0xDF PUSH1 0x4 DUP1 CALLDATASIZE SUB DUP2 ADD SWAP1 PUSH2 0xDA SWAP2 SWAP1 PUSH2 0xA4E JUMP JUMPDEST PUSH2 0x2B4 JUMP JUMPDEST PUSH1 0x40 MLOAD PUSH2 0xEC SWAP2 SWAP1 PUSH2 0x9DB JUMP JUMPDEST PUSH1 0x40 MLOAD DUP1 SWAP2 SUB SWAP1 RETURN JUMPDEST PUSH2 0xFD PUSH2 0x30D JUMP JUMPDEST STOP JUMPDEST PUSH2 0x119 PUSH1 0x4 DUP1 CALLDATASIZE SUB DUP2 ADD SWAP1 PUSH2 0x114 SWAP2 SWAP1 PUSH2 0xA8C JUMP JUMPDEST PUSH2 0x320 JUMP JUMPDEST STOP JUMPDEST PUSH2 0x135 PUSH1 0x4 DUP1 CALLDATASIZE SUB DUP2 ADD SWAP1 PUSH2 0x130 SWAP2 SWAP1 PUSH2 0xADC JUMP JUMPDEST PUSH2 0x4E7 JUMP JUMPDEST PUSH1 0x40 MLOAD PUSH2 0x142 SWAP2 SWAP1 PUSH2 0x9DB JUMP JUMPDEST PUSH1 0x40 MLOAD DUP1 SWAP2 SUB SWAP1 RETURN JUMPDEST PUSH2 0x153 PUSH2 0x507 JUMP JUMPDEST PUSH1 0x40 MLOAD PUSH2 0x160 SWAP2 SWAP1 PUSH2 0xB16 JUMP JUMPDEST PUSH1 0x40 MLOAD DUP1 SWAP2 SUB SWAP1 RETURN JUMPDEST PUSH2 0x183 PUSH1 0x4 DUP1 CALLDATASIZE SUB DUP2 ADD SWAP1 PUSH2 0x17E SWAP2 SWAP1 PUSH2 0xADC JUMP JUMPDEST PUSH2 0x52E JUMP JUMPDEST PUSH1 0x40 MLOAD PUSH2 0x191 SWAP3 SWAP2 SWAP1 PUSH2 0xBA9 JUMP JUMPDEST PUSH1 0x40 MLOAD DUP1 SWAP2 SUB SWAP1 RETURN JUMPDEST PUSH2 0x1A2 PUSH2 0x5D4 JUMP JUMPDEST PUSH1 0x40 MLOAD PUSH2 0x1AF SWAP2 SWAP1 PUSH2 0xC8E JUMP JUMPDEST PUSH1 0x40 MLOAD DUP1 SWAP2 SUB SWAP1 RETURN JUMPDEST PUSH2 0x1D2 PUSH1 0x4 DUP1 CALLDATASIZE SUB DUP2 ADD SWAP1 PUSH2 0x1CD SWAP2 SWAP1 PUSH2 0xCAE JUMP JUMPDEST PUSH2 0x62A JUMP JUMPDEST STOP JUMPDEST PUSH0 PUSH2 0x1DD PUSH2 0x6AC JUMP JUMPDEST PUSH0 PUSH1 0x1 PUSH0 DUP2 SLOAD DUP1 SWAP3 SWAP2 SWAP1 PUSH2 0x1F0 SWAP1 PUSH2 0xD06 JUMP JUMPDEST SWAP2 SWAP1 POP SSTORE SWAP1 POP DUP4 PUSH1 0x2 PUSH0 DUP4 DUP2 MSTORE PUSH1 0x20 ADD SWAP1 DUP2 MSTORE PUSH1 0x20 ADD PUSH0 KECCAK256 PUSH0 ADD SWAP1 DUP2 PUSH2 0x216 SWAP2 SWAP1 PUSH2 0xF47 JUMP JUMPDEST POP DUP3 PUSH1 0x2 PUSH0 DUP4 DUP2 MSTORE PUSH1 0x20 ADD SWAP1 DUP2 MSTORE PUSH1 0x20 ADD PUSH0 KECCAK256 PUSH1 0x1 ADD PUSH0 CALLER PUSH20 0xFFFFFFFFFFFFFFFFFFFFFFFFFFFFFFFFFFFFFFFF AND PUSH20 0xFFFFFFFFFFFFFFFFFFFFFFFFFFFFFFFFFFFFFFFF AND DUP2 MSTORE PUSH1 0x20 ADD SWAP1 DUP2 MSTORE PUSH1 0x20 ADD PUSH0 KECCAK256 DUP2 SWAP1 SSTORE POP DUP3 PUSH1 0x2 PUSH0 DUP4 DUP2 MSTORE PUSH1 0x20 ADD SWAP1 DUP2 MSTORE PUSH1 0x20 ADD PUSH0 KECCAK256 PUSH1 0x2 ADD DUP2 SWAP1 SSTORE POP PUSH1 0x3 DUP2 SWAP1 DUP1 PUSH1 0x1 DUP2 SLOAD ADD DUP1 DUP3 SSTORE DUP1 SWAP2 POP POP PUSH1 0x1 SWAP1 SUB SWAP1 PUSH0 MSTORE PUSH1 0x20 PUSH0 KECCAK256 ADD PUSH0 SWAP1 SWAP2 SWAP1 SWAP2 SWAP1 SWAP2 POP SSTORE DUP1 SWAP2 POP POP SWAP3 SWAP2 POP POP JUMP JUMPDEST PUSH0 PUSH1 0x2 PUSH0 DUP5 DUP2 MSTORE PUSH1 0x20 ADD SWAP1 DUP2 MSTORE PUSH1 0x20 ADD PUSH0 KECCAK256 PUSH1 0x1 ADD PUSH0 DUP4 PUSH20 0xFFFFFFFFFFFFFFFFFFFFFFFFFFFFFFFFFFFFFFFF AND PUSH20 0xFFFFFFFFFFFFFFFFFFFFFFFFFFFFFFFFFFFFFFFF AND DUP2 MSTORE PUSH1 0x20 ADD SWAP1 DUP2 MSTORE PUSH1 0x20 ADD PUSH0 KECCAK256 SLOAD SWAP1 POP SWAP3 SWAP2 POP POP JUMP JUMPDEST PUSH2 0x315 PUSH2 0x6AC JUMP JUMPDEST PUSH2 0x31E PUSH0 PUSH2 0x72A JUMP JUMPDEST JUMP JUMPDEST DUP1 PUSH1 0x2 PUSH0 DUP6 DUP2 MSTORE PUSH1 0x20 ADD SWAP1 DUP2 MSTORE PUSH1 0x20 ADD PUSH0 KECCAK256 PUSH1 0x1 ADD PUSH0 CALLER PUSH20 0xFFFFFFFFFFFFFFFFFFFFFFFFFFFFFFFFFFFFFFFF AND PUSH20 0xFFFFFFFFFFFFFFFFFFFFFFFFFFFFFFFFFFFFFFFF AND DUP2 MSTORE PUSH1 0x20 ADD SWAP1 DUP2 MSTORE PUSH1 0x20 ADD PUSH0 KECCAK256 SLOAD LT ISZERO PUSH2 0x3B2 JUMPI PUSH1 0x40 MLOAD PUSH32 0x8C379A000000000000000000000000000000000000000000000000000000000 DUP2 MSTORE PUSH1 0x4 ADD PUSH2 0x3A9 SWAP1 PUSH2 0x1060 JUMP JUMPDEST PUSH1 0x40 MLOAD DUP1 SWAP2 SUB SWAP1 REVERT JUMPDEST DUP1 PUSH1 0x2 PUSH0 DUP6 DUP2 MSTORE PUSH1 0x20 ADD SWAP1 DUP2 MSTORE PUSH1 0x20 ADD PUSH0 KECCAK256 PUSH1 0x1 ADD PUSH0 CALLER PUSH20 0xFFFFFFFFFFFFFFFFFFFFFFFFFFFFFFFFFFFFFFFF AND PUSH20 0xFFFFFFFFFFFFFFFFFFFFFFFFFFFFFFFFFFFFFFFF AND DUP2 MSTORE PUSH1 0x20 ADD SWAP1 DUP2 MSTORE PUSH1 0x20 ADD PUSH0 KECCAK256 PUSH0 DUP3 DUP3 SLOAD PUSH2 0x410 SWAP2 SWAP1 PUSH2 0x107E JUMP JUMPDEST SWAP3 POP POP DUP2 SWAP1 SSTORE POP DUP1 PUSH1 0x2 PUSH0 DUP6 DUP2 MSTORE PUSH1 0x20 ADD SWAP1 DUP2 MSTORE PUSH1 0x20 ADD PUSH0 KECCAK256 PUSH1 0x1 ADD PUSH0 DUP5 PUSH20 0xFFFFFFFFFFFFFFFFFFFFFFFFFFFFFFFFFFFFFFFF AND PUSH20 0xFFFFFFFFFFFFFFFFFFFFFFFFFFFFFFFFFFFFFFFF AND DUP2 MSTORE PUSH1 0x20 ADD SWAP1 DUP2 MSTORE PUSH1 0x20 ADD PUSH0 KECCAK256 PUSH0 DUP3 DUP3 SLOAD PUSH2 0x475 SWAP2 SWAP1 PUSH2 0x10B1 JUMP JUMPDEST SWAP3 POP POP DUP2 SWAP1 SSTORE POP DUP2 PUSH20 0xFFFFFFFFFFFFFFFFFFFFFFFFFFFFFFFFFFFFFFFF AND CALLER PUSH20 0xFFFFFFFFFFFFFFFFFFFFFFFFFFFFFFFFFFFFFFFF AND DUP5 PUSH32 0xD93B0E8579BC9DB73C85A1FB79D785FFC47F8E20D346253F809CC98C48292A0 DUP5 PUSH1 0x40 MLOAD PUSH2 0x4DA SWAP2 SWAP1 PUSH2 0x9DB JUMP JUMPDEST PUSH1 0x40 MLOAD DUP1 SWAP2 SUB SWAP1 LOG4 POP POP POP JUMP JUMPDEST PUSH1 0x3 DUP2 DUP2 SLOAD DUP2 LT PUSH2 0x4F6 JUMPI PUSH0 DUP1 REVERT JUMPDEST SWAP1 PUSH0 MSTORE PUSH1 0x20 PUSH0 KECCAK256 ADD PUSH0 SWAP2 POP SWAP1 POP SLOAD DUP2 JUMP JUMPDEST PUSH0 DUP1 PUSH0 SWAP1 SLOAD SWAP1 PUSH2 0x100 EXP SWAP1 DIV PUSH20 0xFFFFFFFFFFFFFFFFFFFFFFFFFFFFFFFFFFFFFFFF AND SWAP1 POP SWAP1 JUMP JUMPDEST PUSH1 0x2 PUSH1 0x20 MSTORE DUP1 PUSH0 MSTORE PUSH1 0x40 PUSH0 KECCAK256 PUSH0 SWAP2 POP SWAP1 POP DUP1 PUSH0 ADD DUP1 SLOAD PUSH2 0x54D SWAP1 PUSH2 0xD7A JUMP JUMPDEST DUP1 PUSH1 0x1F ADD PUSH1 0x20 DUP1 SWAP2 DIV MUL PUSH1 0x20 ADD PUSH1 0x40 MLOAD SWAP1 DUP2 ADD PUSH1 0x40 MSTORE DUP1 SWAP3 SWAP2 SWAP1 DUP2 DUP2 MSTORE PUSH1 0x20 ADD DUP3 DUP1 SLOAD PUSH2 0x579 SWAP1 PUSH2 0xD7A JUMP JUMPDEST DUP1 ISZERO PUSH2 0x5C4 JUMPI DUP1 PUSH1 0x1F LT PUSH2 0x59B JUMPI PUSH2 0x100 DUP1 DUP4 SLOAD DIV MUL DUP4 MSTORE SWAP2 PUSH1 0x20 ADD SWAP2 PUSH2 0x5C4 JUMP JUMPDEST DUP3 ADD SWAP2 SWAP1 PUSH0 MSTORE PUSH1 0x20 PUSH0 KECCAK256 SWAP1 JUMPDEST DUP2 SLOAD DUP2 MSTORE SWAP1 PUSH1 0x1 ADD SWAP1 PUSH1 0x20 ADD DUP1 DUP4 GT PUSH2 0x5A7 JUMPI DUP3 SWAP1 SUB PUSH1 0x1F AND DUP3 ADD SWAP2 JUMPDEST POP POP POP POP POP SWAP1 DUP1 PUSH1 0x2 ADD SLOAD SWAP1 POP DUP3 JUMP JUMPDEST PUSH1 0x60 PUSH1 0x3 DUP1 SLOAD DUP1 PUSH1 0x20 MUL PUSH1 0x20 ADD PUSH1 0x40 MLOAD SWAP1 DUP2 ADD PUSH1 0x40 MSTORE DUP1 SWAP3 SWAP2 SWAP1 DUP2 DUP2 MSTORE PUSH1 0x20 ADD DUP3 DUP1 SLOAD DUP1 ISZERO PUSH2 0x620 JUMPI PUSH1 0x20 MUL DUP3 ADD SWAP2 SWAP1 PUSH0 MSTORE PUSH1 0x20 PUSH0 KECCAK256 SWAP1 JUMPDEST DUP2 SLOAD DUP2 MSTORE PUSH1 0x20 ADD SWAP1 PUSH1 0x1 ADD SWAP1 DUP1 DUP4 GT PUSH2 0x60C JUMPI JUMPDEST POP POP POP POP POP SWAP1 POP SWAP1 JUMP JUMPDEST PUSH2 0x632 PUSH2 0x6AC JUMP JUMPDEST PUSH0 PUSH20 0xFFFFFFFFFFFFFFFFFFFFFFFFFFFFFFFFFFFFFFFF AND DUP2 PUSH20 0xFFFFFFFFFFFFFFFFFFFFFFFFFFFFFFFFFFFFFFFF AND SUB PUSH2 0x6A0 JUMPI PUSH1 0x40 MLOAD PUSH32 0x8C379A000000000000000000000000000000000000000000000000000000000 DUP2 MSTORE PUSH1 0x4 ADD PUSH2 0x697 SWAP1 PUSH2 0x1154 JUMP JUMPDEST PUSH1 0x40 MLOAD DUP1 SWAP2 SUB SWAP1 REVERT JUMPDEST PUSH2 0x6A9 DUP2 PUSH2 0x72A JUMP JUMPDEST POP JUMP JUMPDEST PUSH2 0x6B4 PUSH2 0x7EB JUMP JUMPDEST PUSH20 0xFFFFFFFFFFFFFFFFFFFFFFFFFFFFFFFFFFFFFFFF AND PUSH2 0x6D2 PUSH2 0x507 JUMP JUMPDEST PUSH20 0xFFFFFFFFFFFFFFFFFFFFFFFFFFFFFFFFFFFFFFFF AND EQ PUSH2 0x728 JUMPI PUSH1 0x40 MLOAD PUSH32 0x8C379A000000000000000000000000000000000000000000000000000000000 DUP2 MSTORE PUSH1 0x4 ADD PUSH2 0x71F SWAP1 PUSH2 0x11BC JUMP JUMPDEST PUSH1 0x40 MLOAD DUP1 SWAP2 SUB SWAP1 REVERT JUMPDEST JUMP JUMPDEST PUSH0 DUP1 PUSH0 SWAP1 SLOAD SWAP1 PUSH2 0x100 EXP SWAP1 DIV PUSH20 0xFFFFFFFFFFFFFFFFFFFFFFFFFFFFFFFFFFFFFFFF AND SWAP1 POP DUP2 PUSH0 DUP1 PUSH2 0x100 EXP DUP2 SLOAD DUP2 PUSH20 0xFFFFFFFFFFFFFFFFFFFFFFFFFFFFFFFFFFFFFFFF MUL NOT AND SWAP1 DUP4 PUSH20 0xFFFFFFFFFFFFFFFFFFFFFFFFFFFFFFFFFFFFFFFF AND MUL OR SWAP1 SSTORE POP DUP2 PUSH20 0xFFFFFFFFFFFFFFFFFFFFFFFFFFFFFFFFFFFFFFFF AND DUP2 PUSH20 0xFFFFFFFFFFFFFFFFFFFFFFFFFFFFFFFFFFFFFFFF AND PUSH32 0x8BE0079C531659141344CD1FD0A4F28419497F9722A3DAAFE3B4186F6B6457E0 PUSH1 0x40 MLOAD PUSH1 0x40 MLOAD DUP1 SWAP2 SUB SWAP1 LOG3 POP POP JUMP JUMPDEST PUSH0 CALLER SWAP1 POP SWAP1 JUMP JUMPDEST PUSH0 PUSH1 0x40 MLOAD SWAP1 POP SWAP1 JUMP JUMPDEST PUSH0 DUP1 REVERT JUMPDEST PUSH0 DUP1 REVERT JUMPDEST PUSH0 DUP1 REVERT JUMPDEST PUSH0 DUP1 REVERT JUMPDEST PUSH0 PUSH1 0x1F NOT PUSH1 0x1F DUP4 ADD AND SWAP1 POP SWAP2 SWAP1 POP JUMP JUMPDEST PUSH32 0x4E487B7100000000000000000000000000000000000000000000000000000000 PUSH0 MSTORE PUSH1 0x41 PUSH1 0x4 MSTORE PUSH1 0x24 PUSH0 REVERT JUMPDEST PUSH2 0x851 DUP3 PUSH2 0x80B JUMP JUMPDEST DUP2 ADD DUP2 DUP2 LT PUSH8 0xFFFFFFFFFFFFFFFF DUP3 GT OR ISZERO PUSH2 0x870 JUMPI PUSH2 0x86F PUSH2 0x81B JUMP JUMPDEST JUMPDEST DUP1 PUSH1 0x40 MSTORE POP POP POP JUMP JUMPDEST PUSH0 PUSH2 0x882 PUSH2 0x7F2 JUMP JUMPDEST SWAP1 POP PUSH2 0x88E DUP3 DUP3 PUSH2 0x848 JUMP JUMPDEST SWAP2 SWAP1 POP JUMP JUMPDEST PUSH0 PUSH8 0xFFFFFFFFFFFFFFFF DUP3 GT ISZERO PUSH2 0x8AD JUMPI PUSH2 0x8AC PUSH2 0x81B JUMP JUMPDEST JUMPDEST PUSH2 0x8B6 DUP3 PUSH2 0x80B JUMP JUMPDEST SWAP1 POP PUSH1 0x20 DUP2 ADD SWAP1 POP SWAP2 SWAP1 POP JUMP JUMPDEST DUP3 DUP2 DUP4 CALLDATACOPY PUSH0 DUP4 DUP4 ADD MSTORE POP POP POP JUMP JUMPDEST PUSH0 PUSH2 0x8E3 PUSH2 0x8DE DUP5 PUSH2 0x893 JUMP JUMPDEST PUSH2 0x879 JUMP JUMPDEST SWAP1 POP DUP3 DUP2 MSTORE PUSH1 0x20 DUP2 ADD DUP5 DUP5 DUP5 ADD GT ISZERO PUSH2 0x8FF JUMPI PUSH2 0x8FE PUSH2 0x807 JUMP JUMPDEST JUMPDEST PUSH2 0x90A DUP5 DUP3 DUP6 PUSH2 0x8C3 JUMP JUMPDEST POP SWAP4 SWAP3 POP POP POP JUMP JUMPDEST PUSH0 DUP3 PUSH1 0x1F DUP4 ADD SLT PUSH2 0x926 JUMPI PUSH2 0x925 PUSH2 0x803 JUMP JUMPDEST JUMPDEST DUP2 CALLDATALOAD PUSH2 0x936 DUP5 DUP3 PUSH1 0x20 DUP7 ADD PUSH2 0x8D1 JUMP JUMPDEST SWAP2 POP POP SWAP3 SWAP2 POP POP JUMP JUMPDEST PUSH0 DUP2 SWAP1 POP SWAP2 SWAP1 POP JUMP JUMPDEST PUSH2 0x951 DUP2 PUSH2 0x93F JUMP JUMPDEST DUP2 EQ PUSH2 0x95B JUMPI PUSH0 DUP1 REVERT JUMPDEST POP JUMP JUMPDEST PUSH0 DUP2 CALLDATALOAD SWAP1 POP PUSH2 0x96C DUP2 PUSH2 0x948 JUMP JUMPDEST SWAP3 SWAP2 POP POP JUMP JUMPDEST PUSH0 DUP1 PUSH1 0x40 DUP4 DUP6 SUB SLT ISZERO PUSH2 0x988 JUMPI PUSH2 0x987 PUSH2 0x7FB JUMP JUMPDEST JUMPDEST PUSH0 DUP4 ADD CALLDATALOAD PUSH8 0xFFFFFFFFFFFFFFFF DUP2 GT ISZERO PUSH2 0x9A5 JUMPI PUSH2 0x9A4 PUSH2 0x7FF JUMP JUMPDEST JUMPDEST PUSH2 0x9B1 DUP6 DUP3 DUP7 ADD PUSH2 0x912 JUMP JUMPDEST SWAP3 POP POP PUSH1 0x20 PUSH2 0x9C2 DUP6 DUP3 DUP7 ADD PUSH2 0x95E JUMP JUMPDEST SWAP2 POP POP SWAP3 POP SWAP3 SWAP1 POP JUMP JUMPDEST PUSH2 0x9D5 DUP2 PUSH2 0x93F JUMP JUMPDEST DUP3 MSTORE POP POP JUMP JUMPDEST PUSH0 PUSH1 0x20 DUP3 ADD SWAP1 POP PUSH2 0x9EE PUSH0 DUP4 ADD DUP5 PUSH2 0x9CC JUMP JUMPDEST SWAP3 SWAP2 POP POP JUMP JUMPDEST PUSH0 PUSH20 0xFFFFFFFFFFFFFFFFFFFFFFFFFFFFFFFFFFFFFFFF DUP3 AND SWAP1 POP SWAP2 SWAP1 POP JUMP JUMPDEST PUSH0 PUSH2 0xA1D DUP3 PUSH2 0x9F4 JUMP JUMPDEST SWAP1 POP SWAP2 SWAP1 POP JUMP JUMPDEST PUSH2 0xA2D DUP2 PUSH2 0xA13 JUMP JUMPDEST DUP2 EQ PUSH2 0xA37 JUMPI PUSH0 DUP1 REVERT JUMPDEST POP JUMP JUMPDEST PUSH0 DUP2 CALLDATALOAD SWAP1 POP PUSH2 0xA48 DUP2 PUSH2 0xA24 JUMP JUMPDEST SWAP3 SWAP2 POP POP JUMP JUMPDEST PUSH0 DUP1 PUSH1 0x40 DUP4 DUP6 SUB SLT ISZERO PUSH2 0xA64 JUMPI PUSH2 0xA63 PUSH2 0x7FB JUMP JUMPDEST JUMPDEST PUSH0 PUSH2 0xA71 DUP6 DUP3 DUP7 ADD PUSH2 0x95E JUMP JUMPDEST SWAP3 POP POP PUSH1 0x20 PUSH2 0xA82 DUP6 DUP3 DUP7 ADD PUSH2 0xA3A JUMP JUMPDEST SWAP2 POP POP SWAP3 POP SWAP3 SWAP1 POP JUMP JUMPDEST PUSH0 DUP1 PUSH0 PUSH1 0x60 DUP5 DUP7 SUB SLT ISZERO PUSH2 0xAA3 JUMPI PUSH2 0xAA2 PUSH2 0x7FB JUMP JUMPDEST JUMPDEST PUSH0 PUSH2 0xAB0 DUP7 DUP3 DUP8 ADD PUSH2 0x95E JUMP JUMPDEST SWAP4 POP POP PUSH1 0x20 PUSH2 0xAC1 DUP7 DUP3 DUP8 ADD PUSH2 0xA3A JUMP JUMPDEST SWAP3 POP POP PUSH1 0x40 PUSH2 0xAD2 DUP7 DUP3 DUP8 ADD PUSH2 0x95E JUMP JUMPDEST SWAP2 POP POP SWAP3 POP SWAP3 POP SWAP3 JUMP JUMPDEST PUSH0 PUSH1 0x20 DUP3 DUP5 SUB SLT ISZERO PUSH2 0xAF1 JUMPI PUSH2 0xAF0 PUSH2 0x7FB JUMP JUMPDEST JUMPDEST PUSH0 PUSH2 0xAFE DUP5 DUP3 DUP6 ADD PUSH2 0x95E JUMP JUMPDEST SWAP2 POP POP SWAP3 SWAP2 POP POP JUMP JUMPDEST PUSH2 0xB10 DUP2 PUSH2 0xA13 JUMP JUMPDEST DUP3 MSTORE POP POP JUMP JUMPDEST PUSH0 PUSH1 0x20 DUP3 ADD SWAP1 POP PUSH2 0xB29 PUSH0 DUP4 ADD DUP5 PUSH2 0xB07 JUMP JUMPDEST SWAP3 SWAP2 POP POP JUMP JUMPDEST PUSH0 DUP2 MLOAD SWAP1 POP SWAP2 SWAP1 POP JUMP JUMPDEST PUSH0 DUP3 DUP3 MSTORE PUSH1 0x20 DUP3 ADD SWAP1 POP SWAP3 SWAP2 POP POP JUMP JUMPDEST PUSH0 JUMPDEST DUP4 DUP2 LT ISZERO PUSH2 0xB66 JUMPI DUP1 DUP3 ADD MLOAD DUP2 DUP5 ADD MSTORE PUSH1 0x20 DUP2 ADD SWAP1 POP PUSH2 0xB4B JUMP JUMPDEST PUSH0 DUP5 DUP5 ADD MSTORE POP POP POP POP JUMP JUMPDEST PUSH0 PUSH2 0xB7B DUP3 PUSH2 0xB2F JUMP JUMPDEST PUSH2 0xB85 DUP2 DUP6 PUSH2 0xB39 JUMP JUMPDEST SWAP4 POP PUSH2 0xB95 DUP2 DUP6 PUSH1 0x20 DUP7 ADD PUSH2 0xB49 JUMP JUMPDEST PUSH2 0xB9E DUP2 PUSH2 0x80B JUMP JUMPDEST DUP5 ADD SWAP2 POP POP SWAP3 SWAP2 POP POP JUMP JUMPDEST PUSH0 PUSH1 0x40 DUP3 ADD SWAP1 POP DUP2 DUP2 SUB PUSH0 DUP4 ADD MSTORE PUSH2 0xBC1 DUP2 DUP6 PUSH2 0xB71 JUMP JUMPDEST SWAP1 POP PUSH2 0xBD0 PUSH1 0x20 DUP4 ADD DUP5 PUSH2 0x9CC JUMP JUMPDEST SWAP4 SWAP3 POP POP POP JUMP JUMPDEST PUSH0 DUP2 MLOAD SWAP1 POP SWAP2 SWAP1 POP JUMP JUMPDEST PUSH0 DUP3 DUP3 MSTORE PUSH1 0x20 DUP3 ADD SWAP1 POP SWAP3 SWAP2 POP POP JUMP JUMPDEST PUSH0 DUP2 SWAP1 POP PUSH1 0x20 DUP3 ADD SWAP1 POP SWAP2 SWAP1 POP JUMP JUMPDEST PUSH2 0xC09 DUP2 PUSH2 0x93F JUMP JUMPDEST DUP3 MSTORE POP POP JUMP JUMPDEST PUSH0 PUSH2 0xC1A DUP4 DUP4 PUSH2 0xC00 JUMP JUMPDEST PUSH1 0x20 DUP4 ADD SWAP1 POP SWAP3 SWAP2 POP POP JUMP JUMPDEST PUSH0 PUSH1 0x20 DUP3 ADD SWAP1 POP SWAP2 SWAP1 POP JUMP JUMPDEST PUSH0 PUSH2 0xC3C DUP3 PUSH2 0xBD7 JUMP JUMPDEST PUSH2 0xC46 DUP2 DUP6 PUSH2 0xBE1 JUMP JUMPDEST SWAP4 POP PUSH2 0xC51 DUP4 PUSH2 0xBF1 JUMP JUMPDEST DUP1 PUSH0 JUMPDEST DUP4 DUP2 LT ISZERO PUSH2 0xC81 JUMPI DUP2 MLOAD PUSH2 0xC68 DUP9 DUP3 PUSH2 0xC0F JUMP JUMPDEST SWAP8 POP PUSH2 0xC73 DUP4 PUSH2 0xC26 JUMP JUMPDEST SWAP3 POP POP PUSH1 0x1 DUP2 ADD SWAP1 POP PUSH2 0xC54 JUMP JUMPDEST POP DUP6 SWAP4 POP POP POP POP SWAP3 SWAP2 POP POP JUMP JUMPDEST PUSH0 PUSH1 0x20 DUP3 ADD SWAP1 POP DUP2 DUP2 SUB PUSH0 DUP4 ADD MSTORE PUSH2 0xCA6 DUP2 DUP5 PUSH2 0xC32 JUMP JUMPDEST SWAP1 POP SWAP3 SWAP2 POP POP JUMP JUMPDEST PUSH0 PUSH1 0x20 DUP3 DUP5 SUB SLT ISZERO PUSH2 0xCC3 JUMPI PUSH2 0xCC2 PUSH2 0x7FB JUMP JUMPDEST JUMPDEST PUSH0 PUSH2 0xCD0 DUP5 DUP3 DUP6 ADD PUSH2 0xA3A JUMP JUMPDEST SWAP2 POP POP SWAP3 SWAP2 POP POP JUMP JUMPDEST PUSH32 0x4E487B7100000000000000000000000000000000000000000000000000000000 PUSH0 MSTORE PUSH1 0x11 PUSH1 0x4 MSTORE PUSH1 0x24 PUSH0 REVERT JUMPDEST PUSH0 PUSH2 0xD10 DUP3 PUSH2 0x93F JUMP JUMPDEST SWAP2 POP PUSH32 0xFFFFFFFFFFFFFFFFFFFFFFFFFFFFFFFFFFFFFFFFFFFFFFFFFFFFFFFFFFFFFFFF DUP3 SUB PUSH2 0xD42 JUMPI PUSH2 0xD41 PUSH2 0xCD9 JUMP JUMPDEST JUMPDEST PUSH1 0x1 DUP3 ADD SWAP1 POP SWAP2 SWAP1 POP JUMP JUMPDEST PUSH32 0x4E487B7100000000000000000000000000000000000000000000000000000000 PUSH0 MSTORE PUSH1 0x22 PUSH1 0x4 MSTORE PUSH1 0x24 PUSH0 REVERT JUMPDEST PUSH0 PUSH1 0x2 DUP3 DIV SWAP1 POP PUSH1 0x1 DUP3 AND DUP1 PUSH2 0xD91 JUMPI PUSH1 0x7F DUP3 AND SWAP2 POP JUMPDEST PUSH1 0x20 DUP3 LT DUP2 SUB PUSH2 0xDA4 JUMPI PUSH2 0xDA3 PUSH2 0xD4D JUMP JUMPDEST JUMPDEST POP SWAP2 SWAP1 POP JUMP JUMPDEST PUSH0 DUP2 SWAP1 POP DUP2 PUSH0 MSTORE PUSH1 0x20 PUSH0 KECCAK256 SWAP1 POP SWAP2 SWAP1 POP JUMP JUMPDEST PUSH0 PUSH1 0x20 PUSH1 0x1F DUP4 ADD DIV SWAP1 POP SWAP2 SWAP1 POP JUMP JUMPDEST PUSH0 DUP3 DUP3 SHL SWAP1 POP SWAP3 SWAP2 POP POP JUMP JUMPDEST PUSH0 PUSH1 0x8 DUP4 MUL PUSH2 0xE06 PUSH32 0xFFFFFFFFFFFFFFFFFFFFFFFFFFFFFFFFFFFFFFFFFFFFFFFFFFFFFFFFFFFFFFFF DUP3 PUSH2 0xDCB JUMP JUMPDEST PUSH2 0xE10 DUP7 DUP4 PUSH2 0xDCB JUMP JUMPDEST SWAP6 POP DUP1 NOT DUP5 AND SWAP4 POP DUP1 DUP7 AND DUP5 OR SWAP3 POP POP POP SWAP4 SWAP3 POP POP POP JUMP JUMPDEST PUSH0 DUP2 SWAP1 POP SWAP2 SWAP1 POP JUMP JUMPDEST PUSH0 PUSH2 0xE4B PUSH2 0xE46 PUSH2 0xE41 DUP5 PUSH2 0x93F JUMP JUMPDEST PUSH2 0xE28 JUMP JUMPDEST PUSH2 0x93F JUMP JUMPDEST SWAP1 POP SWAP2 SWAP1 POP JUMP JUMPDEST PUSH0 DUP2 SWAP1 POP SWAP2 SWAP1 POP JUMP JUMPDEST PUSH2 0xE64 DUP4 PUSH2 0xE31 JUMP JUMPDEST PUSH2 0xE78 PUSH2 0xE70 DUP3 PUSH2 0xE52 JUMP JUMPDEST DUP5 DUP5 SLOAD PUSH2 0xDD7 JUMP JUMPDEST DUP3 SSTORE POP POP POP POP JUMP JUMPDEST PUSH0 SWAP1 JUMP JUMPDEST PUSH2 0xE8C PUSH2 0xE80 JUMP JUMPDEST PUSH2 0xE97 DUP2 DUP5 DUP5 PUSH2 0xE5B JUMP JUMPDEST POP POP POP JUMP JUMPDEST JUMPDEST DUP2 DUP2 LT ISZERO PUSH2 0xEBA JUMPI PUSH2 0xEAF PUSH0 DUP3 PUSH2 0xE84 JUMP JUMPDEST PUSH1 0x1 DUP2 ADD SWAP1 POP PUSH2 0xE9D JUMP JUMPDEST POP POP JUMP JUMPDEST PUSH1 0x1F DUP3 GT ISZERO PUSH2 0xEFF JUMPI PUSH2 0xED0 DUP2 PUSH2 0xDAA JUMP JUMPDEST PUSH2 0xED9 DUP5 PUSH2 0xDBC JUMP JUMPDEST DUP2 ADD PUSH1 0x20 DUP6 LT ISZERO PUSH2 0xEE8 JUMPI DUP2 SWAP1 POP JUMPDEST PUSH2 0xEFC PUSH2 0xEF4 DUP6 PUSH2 0xDBC JUMP JUMPDEST DUP4 ADD DUP3 PUSH2 0xE9C JUMP JUMPDEST POP POP JUMPDEST POP POP POP JUMP JUMPDEST PUSH0 DUP3 DUP3 SHR SWAP1 POP SWAP3 SWAP2 POP POP JUMP JUMPDEST PUSH0 PUSH2 0xF1F PUSH0 NOT DUP5 PUSH1 0x8 MUL PUSH2 0xF04 JUMP JUMPDEST NOT DUP1 DUP4 AND SWAP2 POP POP SWAP3 SWAP2 POP POP JUMP JUMPDEST PUSH0 PUSH2 0xF37 DUP4 DUP4 PUSH2 0xF10 JUMP JUMPDEST SWAP2 POP DUP3 PUSH1 0x2 MUL DUP3 OR SWAP1 POP SWAP3 SWAP2 POP POP JUMP JUMPDEST PUSH2 0xF50 DUP3 PUSH2 0xB2F JUMP JUMPDEST PUSH8 0xFFFFFFFFFFFFFFFF DUP2 GT ISZERO PUSH2 0xF69 JUMPI PUSH2 0xF68 PUSH2 0x81B JUMP JUMPDEST JUMPDEST PUSH2 0xF73 DUP3 SLOAD PUSH2 0xD7A JUMP JUMPDEST PUSH2 0xF7E DUP3 DUP3 DUP6 PUSH2 0xEBE JUMP JUMPDEST PUSH0 PUSH1 0x20 SWAP1 POP PUSH1 0x1F DUP4 GT PUSH1 0x1 DUP2 EQ PUSH2 0xFAF JUMPI PUSH0 DUP5 ISZERO PUSH2 0xF9D JUMPI DUP3 DUP8 ADD MLOAD SWAP1 POP JUMPDEST PUSH2 0xFA7 DUP6 DUP3 PUSH2 0xF2C JUMP JUMPDEST DUP7 SSTORE POP PUSH2 0x100E JUMP JUMPDEST PUSH1 0x1F NOT DUP5 AND PUSH2 0xFBD DUP7 PUSH2 0xDAA JUMP JUMPDEST PUSH0 JUMPDEST DUP3 DUP2 LT ISZERO PUSH2 0xFE4 JUMPI DUP5 DUP10 ADD MLOAD DUP3 SSTORE PUSH1 0x1 DUP3 ADD SWAP2 POP PUSH1 0x20 DUP6 ADD SWAP5 POP PUSH1 0x20 DUP2 ADD SWAP1 POP PUSH2 0xFBF JUMP JUMPDEST DUP7 DUP4 LT ISZERO PUSH2 0x1001 JUMPI DUP5 DUP10 ADD MLOAD PUSH2 0xFFD PUSH1 0x1F DUP10 AND DUP3 PUSH2 0xF10 JUMP JUMPDEST DUP4 SSTORE POP JUMPDEST PUSH1 0x1 PUSH1 0x2 DUP9 MUL ADD DUP9 SSTORE POP POP POP JUMPDEST POP POP POP POP POP POP JUMP JUMPDEST PUSH32 0x496E73756666696369656E742073686172657300000000000000000000000000 PUSH0 DUP3 ADD MSTORE POP JUMP JUMPDEST PUSH0 PUSH2 0x104A PUSH1 0x13 DUP4 PUSH2 0xB39 JUMP JUMPDEST SWAP2 POP PUSH2 0x1055 DUP3 PUSH2 0x1016 JUMP JUMPDEST PUSH1 0x20 DUP3 ADD SWAP1 POP SWAP2 SWAP1 POP JUMP JUMPDEST PUSH0 PUSH1 0x20 DUP3 ADD SWAP1 POP DUP2 DUP2 SUB PUSH0 DUP4 ADD MSTORE PUSH2 0x1077 DUP2 PUSH2 0x103E JUMP JUMPDEST SWAP1 POP SWAP2 SWAP1 POP JUMP JUMPDEST PUSH0 PUSH2 0x1088 DUP3 PUSH2 0x93F JUMP JUMPDEST SWAP2 POP PUSH2 0x1093 DUP4 PUSH2 0x93F JUMP JUMPDEST SWAP3 POP DUP3 DUP3 SUB SWAP1 POP DUP2 DUP2 GT ISZERO PUSH2 0x10AB JUMPI PUSH2 0x10AA PUSH2 0xCD9 JUMP JUMPDEST JUMPDEST SWAP3 SWAP2 POP POP JUMP JUMPDEST PUSH0 PUSH2 0x10BB DUP3 PUSH2 0x93F JUMP JUMPDEST SWAP2 POP PUSH2 0x10C6 DUP4 PUSH2 0x93F JUMP JUMPDEST SWAP3 POP DUP3 DUP3 ADD SWAP1 POP DUP1 DUP3 GT ISZERO PUSH2 0x10DE JUMPI PUSH2 0x10DD PUSH2 0xCD9 JUMP JUMPDEST JUMPDEST SWAP3 SWAP2 POP POP JUMP JUMPDEST PUSH32 0x4F776E61626C653A206E6577206F776E657220697320746865207A65726F2061 PUSH0 DUP3 ADD MSTORE PUSH32 0x6464726573730000000000000000000000000000000000000000000000000000 PUSH1 0x20 DUP3 ADD MSTORE POP JUMP JUMPDEST PUSH0 PUSH2 0x113E PUSH1 0x26 DUP4 PUSH2 0xB39 JUMP JUMPDEST SWAP2 POP PUSH2 0x1149 DUP3 PUSH2 0x10E4 JUMP JUMPDEST PUSH1 0x40 DUP3 ADD SWAP1 POP SWAP2 SWAP1 POP JUMP JUMPDEST PUSH0 PUSH1 0x20 DUP3 ADD SWAP1 POP DUP2 DUP2 SUB PUSH0 DUP4 ADD MSTORE PUSH2 0x116B DUP2 PUSH2 0x1132 JUMP JUMPDEST SWAP1 POP SWAP2 SWAP1 POP JUMP JUMPDEST PUSH32 0x4F776E61626C653A2063616C6C6572206973206E6F7420746865206F776E6572 PUSH0 DUP3 ADD MSTORE POP JUMP JUMPDEST PUSH0 PUSH2 0x11A6 PUSH1 0x20 DUP4 PUSH2 0xB39 JUMP JUMPDEST SWAP2 POP PUSH2 0x11B1 DUP3 PUSH2 0x1172 JUMP JUMPDEST PUSH1 0x20 DUP3 ADD SWAP1 POP SWAP2 SWAP1 POP JUMP JUMPDEST PUSH0 PUSH1 0x20 DUP3 ADD SWAP1 POP DUP2 DUP2 SUB PUSH0 DUP4 ADD MSTORE PUSH2 0x11D3 DUP2 PUSH2 0x119A JUMP JUMPDEST SWAP1 POP SWAP2 SWAP1 POP JUMP INVALID LOG2 PUSH5 0x6970667358 0x22 SLT KECCAK256 0xE1 0x4E BLOCKHASH 0xAE 0xB9 0x26 0xE9 PUSH1 0x8F PC ORIGIN SWAP15 LOG0 SSTORE PUSH2 0x6A1B 0xEA PUSH1 0x25 0xC6 SWAP9 CODECOPY 0xFC 0xC9 DUP4 PUSH2 0x3B51 0x4B 0x2A 0x25 PUSH5 0x736F6C6343 STOP ADDMOD ISZERO STOP CALLER "
		},
		"gasEstimates": {
			"creation": {
				"codeDepositCost": "924800",
				"executionCost": "infinite",
				"totalCost": "infinite"
			},
			"external": {
				"addAsset(string,uint256)": "infinite",
				"assetIds(uint256)": "infinite",
				"assets(uint256)": "infinite",
				"balanceOf(uint256,address)": "infinite",
				"getAllAssetIds()": "infinite",
				"owner()": "2537",
				"renounceOwnership()": "30435",
				"transferOwnership(address)": "30819",
				"transferShares(uint256,address,uint256)": "infinite"
			}
		},
		"methodIdentifiers": {
			"addAsset(string,uint256)": "1bc7ffe9",
			"assetIds(uint256)": "87541ed6",
			"assets(uint256)": "cf35bdd0",
			"balanceOf(uint256,address)": "3656eec2",
			"getAllAssetIds()": "e122f907",
			"owner()": "8da5cb5b",
			"renounceOwnership()": "715018a6",
			"transferOwnership(address)": "f2fde38b",
			"transferShares(uint256,address,uint256)": "84b9a6e6"
		}
	},
	"abi": [
		{
			"anonymous": false,
			"inputs": [
				{
					"indexed": true,
					"internalType": "address",
					"name": "previousOwner",
					"type": "address"
				},
				{
					"indexed": true,
					"internalType": "address",
					"name": "newOwner",
					"type": "address"
				}
			],
			"name": "OwnershipTransferred",
			"type": "event"
		},
		{
			"anonymous": false,
			"inputs": [
				{
					"indexed": true,
					"internalType": "uint256",
					"name": "assetId",
					"type": "uint256"
				},
				{
					"indexed": true,
					"internalType": "address",
					"name": "from",
					"type": "address"
				},
				{
					"indexed": true,
					"internalType": "address",
					"name": "to",
					"type": "address"
				},
				{
					"indexed": false,
					"internalType": "uint256",
					"name": "amount",
					"type": "uint256"
				}
			],
			"name": "TransferShares",
			"type": "event"
		},
		{
			"inputs": [
				{
					"internalType": "string",
					"name": "ipfsAddress",
					"type": "string"
				},
				{
					"internalType": "uint256",
					"name": "initialShares",
					"type": "uint256"
				}
			],
			"name": "addAsset",
			"outputs": [
				{
					"internalType": "uint256",
					"name": "",
					"type": "uint256"
				}
			],
			"stateMutability": "nonpayable",
			"type": "function"
		},
		{
			"inputs": [
				{
					"internalType": "uint256",
					"name": "",
					"type": "uint256"
				}
			],
			"name": "assetIds",
			"outputs": [
				{
					"internalType": "uint256",
					"name": "",
					"type": "uint256"
				}
			],
			"stateMutability": "view",
			"type": "function"
		},
		{
			"inputs": [
				{
					"internalType": "uint256",
					"name": "",
					"type": "uint256"
				}
			],
			"name": "assets",
			"outputs": [
				{
					"internalType": "string",
					"name": "ipfsAddress",
					"type": "string"
				},
				{
					"internalType": "uint256",
					"name": "totalShares",
					"type": "uint256"
				}
			],
			"stateMutability": "view",
			"type": "function"
		},
		{
			"inputs": [
				{
					"internalType": "uint256",
					"name": "assetId",
					"type": "uint256"
				},
				{
					"internalType": "address",
					"name": "user",
					"type": "address"
				}
			],
			"name": "balanceOf",
			"outputs": [
				{
					"internalType": "uint256",
					"name": "",
					"type": "uint256"
				}
			],
			"stateMutability": "view",
			"type": "function"
		},
		{
			"inputs": [],
			"name": "getAllAssetIds",
			"outputs": [
				{
					"internalType": "uint256[]",
					"name": "",
					"type": "uint256[]"
				}
			],
			"stateMutability": "view",
			"type": "function"
		},
		{
			"inputs": [],
			"name": "owner",
			"outputs": [
				{
					"internalType": "address",
					"name": "",
					"type": "address"
				}
			],
			"stateMutability": "view",
			"type": "function"
		},
		{
			"inputs": [],
			"name": "renounceOwnership",
			"outputs": [],
			"stateMutability": "nonpayable",
			"type": "function"
		},
		{
			"inputs": [
				{
					"internalType": "address",
					"name": "newOwner",
					"type": "address"
				}
			],
			"name": "transferOwnership",
			"outputs": [],
			"stateMutability": "nonpayable",
			"type": "function"
		},
		{
			"inputs": [
				{
					"internalType": "uint256",
					"name": "assetId",
					"type": "uint256"
				},
				{
					"internalType": "address",
					"name": "to",
					"type": "address"
				},
				{
					"internalType": "uint256",
					"name": "amount",
					"type": "uint256"
				}
			],
			"name": "transferShares",
			"outputs": [],
			"stateMutability": "nonpayable",
			"type": "function"
		}
	]
}