{
	"data": {
		"bytecode": {
			"linkReferences": {},
			"object": "608060405234801561001057600080fd5b506106e6806100206000396000f3fe608060405234801561001057600080fd5b50600436106100365760003560e01c806306ead22e1461003b5780631e47df061461006d575b600080fd5b61005560048036038101906100509190610270565b610077565b60405161006493929190610365565b60405180910390f35b610075610154565b005b6000818154811061008757600080fd5b90600052602060002090600302016000915090508060000160009054906101000a900461ffff16908060010180546100be906103d2565b80601f01602080910402602001604051908101604052809291908181526020018280546100ea906103d2565b80156101375780601f1061010c57610100808354040283529160200191610137565b820191906000526020600020905b81548152906001019060200180831161011a57829003601f168201915b5050505050908060020160009054906101000a900460ff16905083565b600060405180606001604052806101f561ffff1681526020016040518060400160405280600481526020017f4a6f686e00000000000000000000000000000000000000000000000000000000815250815260200160011515815250908060018154018082558091505060019003906000526020600020906003020160009091909190915060008201518160000160006101000a81548161ffff021916908361ffff160217905550602082015181600101908161021091906105de565b5060408201518160020160006101000a81548160ff0219169083151502179055505050565b600080fd5b6000819050919050565b61024d8161023a565b811461025857600080fd5b50565b60008135905061026a81610244565b92915050565b60006020828403121561028657610285610235565b5b60006102948482850161025b565b91505092915050565b600061ffff82169050919050565b6102b48161029d565b82525050565b600081519050919050565b600082825260208201905092915050565b60005b838110156102f45780820151818401526020810190506102d9565b60008484015250505050565b6000601f19601f8301169050919050565b600061031c826102ba565b61032681856102c5565b93506103368185602086016102d6565b61033f81610300565b840191505092915050565b60008115159050919050565b61035f8161034a565b82525050565b600060608201905061037a60008301866102ab565b818103602083015261038c8185610311565b905061039b6040830184610356565b949350505050565b7f4e487b7100000000000000000000000000000000000000000000000000000000600052602260045260246000fd5b600060028204905060018216806103ea57607f821691505b6020821081036103fd576103fc6103a3565b5b50919050565b7f4e487b7100000000000000000000000000000000000000000000000000000000600052604160045260246000fd5b60008190508160005260206000209050919050565b60006020601f8301049050919050565b600082821b905092915050565b6000600883026104947fffffffffffffffffffffffffffffffffffffffffffffffffffffffffffffffff82610457565b61049e8683610457565b95508019841693508086168417925050509392505050565b6000819050919050565b60006104db6104d66104d18461023a565b6104b6565b61023a565b9050919050565b6000819050919050565b6104f5836104c0565b610509610501826104e2565b848454610464565b825550505050565b600090565b61051e610511565b6105298184846104ec565b505050565b5b8181101561054d57610542600082610516565b60018101905061052f565b5050565b601f8211156105925761056381610432565b61056c84610447565b8101602085101561057b578190505b61058f61058785610447565b83018261052e565b50505b505050565b600082821c905092915050565b60006105b560001984600802610597565b1980831691505092915050565b60006105ce83836105a4565b9150826002028217905092915050565b6105e7826102ba565b67ffffffffffffffff811115610600576105ff610403565b5b61060a82546103d2565b610615828285610551565b600060209050601f8311600181146106485760008415610636578287015190505b61064085826105c2565b8655506106a8565b601f19841661065686610432565b60005b8281101561067e57848901518255600182019150602085019450602081019050610659565b8683101561069b5784890151610697601f8916826105a4565b8355505b6001600288020188555050505b50505050505056fea26469706673582212200743c8fe49d44345b5f61397338fbfec3085037c4a14a29b303e68ba77a651e764736f6c63430008120033",
			"opcodes": "PUSH1 0x80 PUSH1 0x40 MSTORE CALLVALUE DUP1 ISZERO PUSH2 0x10 JUMPI PUSH1 0x0 DUP1 REVERT JUMPDEST POP PUSH2 0x6E6 DUP1 PUSH2 0x20 PUSH1 0x0 CODECOPY PUSH1 0x0 RETURN INVALID PUSH1 0x80 PUSH1 0x40 MSTORE CALLVALUE DUP1 ISZERO PUSH2 0x10 JUMPI PUSH1 0x0 DUP1 REVERT JUMPDEST POP PUSH1 0x4 CALLDATASIZE LT PUSH2 0x36 JUMPI PUSH1 0x0 CALLDATALOAD PUSH1 0xE0 SHR DUP1 PUSH4 0x6EAD22E EQ PUSH2 0x3B JUMPI DUP1 PUSH4 0x1E47DF06 EQ PUSH2 0x6D JUMPI JUMPDEST PUSH1 0x0 DUP1 REVERT JUMPDEST PUSH2 0x55 PUSH1 0x4 DUP1 CALLDATASIZE SUB DUP2 ADD SWAP1 PUSH2 0x50 SWAP2 SWAP1 PUSH2 0x270 JUMP JUMPDEST PUSH2 0x77 JUMP JUMPDEST PUSH1 0x40 MLOAD PUSH2 0x64 SWAP4 SWAP3 SWAP2 SWAP1 PUSH2 0x365 JUMP JUMPDEST PUSH1 0x40 MLOAD DUP1 SWAP2 SUB SWAP1 RETURN JUMPDEST PUSH2 0x75 PUSH2 0x154 JUMP JUMPDEST STOP JUMPDEST PUSH1 0x0 DUP2 DUP2 SLOAD DUP2 LT PUSH2 0x87 JUMPI PUSH1 0x0 DUP1 REVERT JUMPDEST SWAP1 PUSH1 0x0 MSTORE PUSH1 0x20 PUSH1 0x0 KECCAK256 SWAP1 PUSH1 0x3 MUL ADD PUSH1 0x0 SWAP2 POP SWAP1 POP DUP1 PUSH1 0x0 ADD PUSH1 0x0 SWAP1 SLOAD SWAP1 PUSH2 0x100 EXP SWAP1 DIV PUSH2 0xFFFF AND SWAP1 DUP1 PUSH1 0x1 ADD DUP1 SLOAD PUSH2 0xBE SWAP1 PUSH2 0x3D2 JUMP JUMPDEST DUP1 PUSH1 0x1F ADD PUSH1 0x20 DUP1 SWAP2 DIV MUL PUSH1 0x20 ADD PUSH1 0x40 MLOAD SWAP1 DUP2 ADD PUSH1 0x40 MSTORE DUP1 SWAP3 SWAP2 SWAP1 DUP2 DUP2 MSTORE PUSH1 0x20 ADD DUP3 DUP1 SLOAD PUSH2 0xEA SWAP1 PUSH2 0x3D2 JUMP JUMPDEST DUP1 ISZERO PUSH2 0x137 JUMPI DUP1 PUSH1 0x1F LT PUSH2 0x10C JUMPI PUSH2 0x100 DUP1 DUP4 SLOAD DIV MUL DUP4 MSTORE SWAP2 PUSH1 0x20 ADD SWAP2 PUSH2 0x137 JUMP JUMPDEST DUP3 ADD SWAP2 SWAP1 PUSH1 0x0 MSTORE PUSH1 0x20 PUSH1 0x0 KECCAK256 SWAP1 JUMPDEST DUP2 SLOAD DUP2 MSTORE SWAP1 PUSH1 0x1 ADD SWAP1 PUSH1 0x20 ADD DUP1 DUP4 GT PUSH2 0x11A JUMPI DUP3 SWAP1 SUB PUSH1 0x1F AND DUP3 ADD SWAP2 JUMPDEST POP POP POP POP POP SWAP1 DUP1 PUSH1 0x2 ADD PUSH1 0x0 SWAP1 SLOAD SWAP1 PUSH2 0x100 EXP SWAP1 DIV PUSH1 0xFF AND SWAP1 POP DUP4 JUMP JUMPDEST PUSH1 0x0 PUSH1 0x40 MLOAD DUP1 PUSH1 0x60 ADD PUSH1 0x40 MSTORE DUP1 PUSH2 0x1F5 PUSH2 0xFFFF AND DUP2 MSTORE PUSH1 0x20 ADD PUSH1 0x40 MLOAD DUP1 PUSH1 0x40 ADD PUSH1 0x40 MSTORE DUP1 PUSH1 0x4 DUP2 MSTORE PUSH1 0x20 ADD PUSH32 0x4A6F686E00000000000000000000000000000000000000000000000000000000 DUP2 MSTORE POP DUP2 MSTORE PUSH1 0x20 ADD PUSH1 0x1 ISZERO ISZERO DUP2 MSTORE POP SWAP1 DUP1 PUSH1 0x1 DUP2 SLOAD ADD DUP1 DUP3 SSTORE DUP1 SWAP2 POP POP PUSH1 0x1 SWAP1 SUB SWAP1 PUSH1 0x0 MSTORE PUSH1 0x20 PUSH1 0x0 KECCAK256 SWAP1 PUSH1 0x3 MUL ADD PUSH1 0x0 SWAP1 SWAP2 SWAP1 SWAP2 SWAP1 SWAP2 POP PUSH1 0x0 DUP3 ADD MLOAD DUP2 PUSH1 0x0 ADD PUSH1 0x0 PUSH2 0x100 EXP DUP2 SLOAD DUP2 PUSH2 0xFFFF MUL NOT AND SWAP1 DUP4 PUSH2 0xFFFF AND MUL OR SWAP1 SSTORE POP PUSH1 0x20 DUP3 ADD MLOAD DUP2 PUSH1 0x1 ADD SWAP1 DUP2 PUSH2 0x210 SWAP2 SWAP1 PUSH2 0x5DE JUMP JUMPDEST POP PUSH1 0x40 DUP3 ADD MLOAD DUP2 PUSH1 0x2 ADD PUSH1 0x0 PUSH2 0x100 EXP DUP2 SLOAD DUP2 PUSH1 0xFF MUL NOT AND SWAP1 DUP4 ISZERO ISZERO MUL OR SWAP1 SSTORE POP POP POP JUMP JUMPDEST PUSH1 0x0 DUP1 REVERT JUMPDEST PUSH1 0x0 DUP2 SWAP1 POP SWAP2 SWAP1 POP JUMP JUMPDEST PUSH2 0x24D DUP2 PUSH2 0x23A JUMP JUMPDEST DUP2 EQ PUSH2 0x258 JUMPI PUSH1 0x0 DUP1 REVERT JUMPDEST POP JUMP JUMPDEST PUSH1 0x0 DUP2 CALLDATALOAD SWAP1 POP PUSH2 0x26A DUP2 PUSH2 0x244 JUMP JUMPDEST SWAP3 SWAP2 POP POP JUMP JUMPDEST PUSH1 0x0 PUSH1 0x20 DUP3 DUP5 SUB SLT ISZERO PUSH2 0x286 JUMPI PUSH2 0x285 PUSH2 0x235 JUMP JUMPDEST JUMPDEST PUSH1 0x0 PUSH2 0x294 DUP5 DUP3 DUP6 ADD PUSH2 0x25B JUMP JUMPDEST SWAP2 POP POP SWAP3 SWAP2 POP POP JUMP JUMPDEST PUSH1 0x0 PUSH2 0xFFFF DUP3 AND SWAP1 POP SWAP2 SWAP1 POP JUMP JUMPDEST PUSH2 0x2B4 DUP2 PUSH2 0x29D JUMP JUMPDEST DUP3 MSTORE POP POP JUMP JUMPDEST PUSH1 0x0 DUP2 MLOAD SWAP1 POP SWAP2 SWAP1 POP JUMP JUMPDEST PUSH1 0x0 DUP3 DUP3 MSTORE PUSH1 0x20 DUP3 ADD SWAP1 POP SWAP3 SWAP2 POP POP JUMP JUMPDEST PUSH1 0x0 JUMPDEST DUP4 DUP2 LT ISZERO PUSH2 0x2F4 JUMPI DUP1 DUP3 ADD MLOAD DUP2 DUP5 ADD MSTORE PUSH1 0x20 DUP2 ADD SWAP1 POP PUSH2 0x2D9 JUMP JUMPDEST PUSH1 0x0 DUP5 DUP5 ADD MSTORE POP POP POP POP JUMP JUMPDEST PUSH1 0x0 PUSH1 0x1F NOT PUSH1 0x1F DUP4 ADD AND SWAP1 POP SWAP2 SWAP1 POP JUMP JUMPDEST PUSH1 0x0 PUSH2 0x31C DUP3 PUSH2 0x2BA JUMP JUMPDEST PUSH2 0x326 DUP2 DUP6 PUSH2 0x2C5 JUMP JUMPDEST SWAP4 POP PUSH2 0x336 DUP2 DUP6 PUSH1 0x20 DUP7 ADD PUSH2 0x2D6 JUMP JUMPDEST PUSH2 0x33F DUP2 PUSH2 0x300 JUMP JUMPDEST DUP5 ADD SWAP2 POP POP SWAP3 SWAP2 POP POP JUMP JUMPDEST PUSH1 0x0 DUP2 ISZERO ISZERO SWAP1 POP SWAP2 SWAP1 POP JUMP JUMPDEST PUSH2 0x35F DUP2 PUSH2 0x34A JUMP JUMPDEST DUP3 MSTORE POP POP JUMP JUMPDEST PUSH1 0x0 PUSH1 0x60 DUP3 ADD SWAP1 POP PUSH2 0x37A PUSH1 0x0 DUP4 ADD DUP7 PUSH2 0x2AB JUMP JUMPDEST DUP2 DUP2 SUB PUSH1 0x20 DUP4 ADD MSTORE PUSH2 0x38C DUP2 DUP6 PUSH2 0x311 JUMP JUMPDEST SWAP1 POP PUSH2 0x39B PUSH1 0x40 DUP4 ADD DUP5 PUSH2 0x356 JUMP JUMPDEST SWAP5 SWAP4 POP POP POP POP JUMP JUMPDEST PUSH32 0x4E487B7100000000000000000000000000000000000000000000000000000000 PUSH1 0x0 MSTORE PUSH1 0x22 PUSH1 0x4 MSTORE PUSH1 0x24 PUSH1 0x0 REVERT JUMPDEST PUSH1 0x0 PUSH1 0x2 DUP3 DIV SWAP1 POP PUSH1 0x1 DUP3 AND DUP1 PUSH2 0x3EA JUMPI PUSH1 0x7F DUP3 AND SWAP2 POP JUMPDEST PUSH1 0x20 DUP3 LT DUP2 SUB PUSH2 0x3FD JUMPI PUSH2 0x3FC PUSH2 0x3A3 JUMP JUMPDEST JUMPDEST POP SWAP2 SWAP1 POP JUMP JUMPDEST PUSH32 0x4E487B7100000000000000000000000000000000000000000000000000000000 PUSH1 0x0 MSTORE PUSH1 0x41 PUSH1 0x4 MSTORE PUSH1 0x24 PUSH1 0x0 REVERT JUMPDEST PUSH1 0x0 DUP2 SWAP1 POP DUP2 PUSH1 0x0 MSTORE PUSH1 0x20 PUSH1 0x0 KECCAK256 SWAP1 POP SWAP2 SWAP1 POP JUMP JUMPDEST PUSH1 0x0 PUSH1 0x20 PUSH1 0x1F DUP4 ADD DIV SWAP1 POP SWAP2 SWAP1 POP JUMP JUMPDEST PUSH1 0x0 DUP3 DUP3 SHL SWAP1 POP SWAP3 SWAP2 POP POP JUMP JUMPDEST PUSH1 0x0 PUSH1 0x8 DUP4 MUL PUSH2 0x494 PUSH32 0xFFFFFFFFFFFFFFFFFFFFFFFFFFFFFFFFFFFFFFFFFFFFFFFFFFFFFFFFFFFFFFFF DUP3 PUSH2 0x457 JUMP JUMPDEST PUSH2 0x49E DUP7 DUP4 PUSH2 0x457 JUMP JUMPDEST SWAP6 POP DUP1 NOT DUP5 AND SWAP4 POP DUP1 DUP7 AND DUP5 OR SWAP3 POP POP POP SWAP4 SWAP3 POP POP POP JUMP JUMPDEST PUSH1 0x0 DUP2 SWAP1 POP SWAP2 SWAP1 POP JUMP JUMPDEST PUSH1 0x0 PUSH2 0x4DB PUSH2 0x4D6 PUSH2 0x4D1 DUP5 PUSH2 0x23A JUMP JUMPDEST PUSH2 0x4B6 JUMP JUMPDEST PUSH2 0x23A JUMP JUMPDEST SWAP1 POP SWAP2 SWAP1 POP JUMP JUMPDEST PUSH1 0x0 DUP2 SWAP1 POP SWAP2 SWAP1 POP JUMP JUMPDEST PUSH2 0x4F5 DUP4 PUSH2 0x4C0 JUMP JUMPDEST PUSH2 0x509 PUSH2 0x501 DUP3 PUSH2 0x4E2 JUMP JUMPDEST DUP5 DUP5 SLOAD PUSH2 0x464 JUMP JUMPDEST DUP3 SSTORE POP POP POP POP JUMP JUMPDEST PUSH1 0x0 SWAP1 JUMP JUMPDEST PUSH2 0x51E PUSH2 0x511 JUMP JUMPDEST PUSH2 0x529 DUP2 DUP5 DUP5 PUSH2 0x4EC JUMP JUMPDEST POP POP POP JUMP JUMPDEST JUMPDEST DUP2 DUP2 LT ISZERO PUSH2 0x54D JUMPI PUSH2 0x542 PUSH1 0x0 DUP3 PUSH2 0x516 JUMP JUMPDEST PUSH1 0x1 DUP2 ADD SWAP1 POP PUSH2 0x52F JUMP JUMPDEST POP POP JUMP JUMPDEST PUSH1 0x1F DUP3 GT ISZERO PUSH2 0x592 JUMPI PUSH2 0x563 DUP2 PUSH2 0x432 JUMP JUMPDEST PUSH2 0x56C DUP5 PUSH2 0x447 JUMP JUMPDEST DUP2 ADD PUSH1 0x20 DUP6 LT ISZERO PUSH2 0x57B JUMPI DUP2 SWAP1 POP JUMPDEST PUSH2 0x58F PUSH2 0x587 DUP6 PUSH2 0x447 JUMP JUMPDEST DUP4 ADD DUP3 PUSH2 0x52E JUMP JUMPDEST POP POP JUMPDEST POP POP POP JUMP JUMPDEST PUSH1 0x0 DUP3 DUP3 SHR SWAP1 POP SWAP3 SWAP2 POP POP JUMP JUMPDEST PUSH1 0x0 PUSH2 0x5B5 PUSH1 0x0 NOT DUP5 PUSH1 0x8 MUL PUSH2 0x597 JUMP JUMPDEST NOT DUP1 DUP4 AND SWAP2 POP POP SWAP3 SWAP2 POP POP JUMP JUMPDEST PUSH1 0x0 PUSH2 0x5CE DUP4 DUP4 PUSH2 0x5A4 JUMP JUMPDEST SWAP2 POP DUP3 PUSH1 0x2 MUL DUP3 OR SWAP1 POP SWAP3 SWAP2 POP POP JUMP JUMPDEST PUSH2 0x5E7 DUP3 PUSH2 0x2BA JUMP JUMPDEST PUSH8 0xFFFFFFFFFFFFFFFF DUP2 GT ISZERO PUSH2 0x600 JUMPI PUSH2 0x5FF PUSH2 0x403 JUMP JUMPDEST JUMPDEST PUSH2 0x60A DUP3 SLOAD PUSH2 0x3D2 JUMP JUMPDEST PUSH2 0x615 DUP3 DUP3 DUP6 PUSH2 0x551 JUMP JUMPDEST PUSH1 0x0 PUSH1 0x20 SWAP1 POP PUSH1 0x1F DUP4 GT PUSH1 0x1 DUP2 EQ PUSH2 0x648 JUMPI PUSH1 0x0 DUP5 ISZERO PUSH2 0x636 JUMPI DUP3 DUP8 ADD MLOAD SWAP1 POP JUMPDEST PUSH2 0x640 DUP6 DUP3 PUSH2 0x5C2 JUMP JUMPDEST DUP7 SSTORE POP PUSH2 0x6A8 JUMP JUMPDEST PUSH1 0x1F NOT DUP5 AND PUSH2 0x656 DUP7 PUSH2 0x432 JUMP JUMPDEST PUSH1 0x0 JUMPDEST DUP3 DUP2 LT ISZERO PUSH2 0x67E JUMPI DUP5 DUP10 ADD MLOAD DUP3 SSTORE PUSH1 0x1 DUP3 ADD SWAP2 POP PUSH1 0x20 DUP6 ADD SWAP5 POP PUSH1 0x20 DUP2 ADD SWAP1 POP PUSH2 0x659 JUMP JUMPDEST DUP7 DUP4 LT ISZERO PUSH2 0x69B JUMPI DUP5 DUP10 ADD MLOAD PUSH2 0x697 PUSH1 0x1F DUP10 AND DUP3 PUSH2 0x5A4 JUMP JUMPDEST DUP4 SSTORE POP JUMPDEST PUSH1 0x1 PUSH1 0x2 DUP9 MUL ADD DUP9 SSTORE POP POP POP JUMPDEST POP POP POP POP POP POP JUMP INVALID LOG2 PUSH5 0x6970667358 0x22 SLT KECCAK256 SMOD NUMBER 0xC8 INVALID 0x49 0xD4 NUMBER GASLIMIT 0xB5 0xF6 SGT SWAP8 CALLER DUP16 0xBF 0xEC ADDRESS DUP6 SUB PUSH29 0x4A14A29B303E68BA77A651E764736F6C63430008120033000000000000 "
		},
		"gasEstimates": {
			"creation": {
				"codeDepositCost": "353200",
				"executionCost": "393",
				"totalCost": "353593"
			},
			"external": {
				"addStudentErr()": "infinite",
				"students(uint256)": "infinite"
			}
		},
		"methodIdentifiers": {
			"addStudentErr()": "1e47df06",
			"students(uint256)": "06ead22e"
		}
	},
	"abi": [
		{
			"inputs": [],
			"name": "addStudentErr",
			"outputs": [],
			"stateMutability": "nonpayable",
			"type": "function"
		},
		{
			"inputs": [
				{
					"internalType": "uint256",
					"name": "",
					"type": "uint256"
				}
			],
			"name": "students",
			"outputs": [
				{
					"internalType": "uint16",
					"name": "roll_num",
					"type": "uint16"
				},
				{
					"internalType": "string",
					"name": "name",
					"type": "string"
				},
				{
					"internalType": "bool",
					"name": "result",
					"type": "bool"
				}
			],
			"stateMutability": "view",
			"type": "function"
		}
	]
}