{
	"data": {
		"bytecode": {
			"linkReferences": {},
			"object": "608060405234801561001057600080fd5b5061046f806100206000396000f3fe608060405234801561001057600080fd5b50600436106100365760003560e01c8063a7f689ff1461003b578063a9158d6c1461006b575b600080fd5b610055600480360381019061005091906102ec565b61009b565b6040516100629190610344565b60405180910390f35b610085600480360381019061008091906102ec565b6100f1565b6040516100929190610344565b60405180910390f35b6000806000905060005b83518110156100e7578381815181106100c1576100c061035f565b5b6020026020010151826100d491906103bd565b9150806100e0906103f1565b90506100a5565b5080915050919050565b6000806000905060005b835181101561013f578381815181106101175761011661035f565b5b60200260200101518261012a91906103bd565b91508080610137906103f1565b9150506100fb565b5080915050919050565b6000604051905090565b600080fd5b600080fd5b600080fd5b6000601f19601f8301169050919050565b7f4e487b7100000000000000000000000000000000000000000000000000000000600052604160045260246000fd5b6101ab82610162565b810181811067ffffffffffffffff821117156101ca576101c9610173565b5b80604052505050565b60006101dd610149565b90506101e982826101a2565b919050565b600067ffffffffffffffff82111561020957610208610173565b5b602082029050602081019050919050565b600080fd5b6000819050919050565b6102328161021f565b811461023d57600080fd5b50565b60008135905061024f81610229565b92915050565b6000610268610263846101ee565b6101d3565b9050808382526020820190506020840283018581111561028b5761028a61021a565b5b835b818110156102b457806102a08882610240565b84526020840193505060208101905061028d565b5050509392505050565b600082601f8301126102d3576102d261015d565b5b81356102e3848260208601610255565b91505092915050565b60006020828403121561030257610301610153565b5b600082013567ffffffffffffffff8111156103205761031f610158565b5b61032c848285016102be565b91505092915050565b61033e8161021f565b82525050565b60006020820190506103596000830184610335565b92915050565b7f4e487b7100000000000000000000000000000000000000000000000000000000600052603260045260246000fd5b7f4e487b7100000000000000000000000000000000000000000000000000000000600052601160045260246000fd5b60006103c88261021f565b91506103d38361021f565b92508282019050808211156103eb576103ea61038e565b5b92915050565b60006103fc8261021f565b91507fffffffffffffffffffffffffffffffffffffffffffffffffffffffffffffffff820361042e5761042d61038e565b5b60018201905091905056fea2646970667358221220c8aa8aeea4616d643cf0370c71501d7cc2f9ebc35c01166eb6deef47221b2a3264736f6c63430008120033",
			"opcodes": "PUSH1 0x80 PUSH1 0x40 MSTORE CALLVALUE DUP1 ISZERO PUSH2 0x10 JUMPI PUSH1 0x0 DUP1 REVERT JUMPDEST POP PUSH2 0x46F DUP1 PUSH2 0x20 PUSH1 0x0 CODECOPY PUSH1 0x0 RETURN INVALID PUSH1 0x80 PUSH1 0x40 MSTORE CALLVALUE DUP1 ISZERO PUSH2 0x10 JUMPI PUSH1 0x0 DUP1 REVERT JUMPDEST POP PUSH1 0x4 CALLDATASIZE LT PUSH2 0x36 JUMPI PUSH1 0x0 CALLDATALOAD PUSH1 0xE0 SHR DUP1 PUSH4 0xA7F689FF EQ PUSH2 0x3B JUMPI DUP1 PUSH4 0xA9158D6C EQ PUSH2 0x6B JUMPI JUMPDEST PUSH1 0x0 DUP1 REVERT JUMPDEST PUSH2 0x55 PUSH1 0x4 DUP1 CALLDATASIZE SUB DUP2 ADD SWAP1 PUSH2 0x50 SWAP2 SWAP1 PUSH2 0x2EC JUMP JUMPDEST PUSH2 0x9B JUMP JUMPDEST PUSH1 0x40 MLOAD PUSH2 0x62 SWAP2 SWAP1 PUSH2 0x344 JUMP JUMPDEST PUSH1 0x40 MLOAD DUP1 SWAP2 SUB SWAP1 RETURN JUMPDEST PUSH2 0x85 PUSH1 0x4 DUP1 CALLDATASIZE SUB DUP2 ADD SWAP1 PUSH2 0x80 SWAP2 SWAP1 PUSH2 0x2EC JUMP JUMPDEST PUSH2 0xF1 JUMP JUMPDEST PUSH1 0x40 MLOAD PUSH2 0x92 SWAP2 SWAP1 PUSH2 0x344 JUMP JUMPDEST PUSH1 0x40 MLOAD DUP1 SWAP2 SUB SWAP1 RETURN JUMPDEST PUSH1 0x0 DUP1 PUSH1 0x0 SWAP1 POP PUSH1 0x0 JUMPDEST DUP4 MLOAD DUP2 LT ISZERO PUSH2 0xE7 JUMPI DUP4 DUP2 DUP2 MLOAD DUP2 LT PUSH2 0xC1 JUMPI PUSH2 0xC0 PUSH2 0x35F JUMP JUMPDEST JUMPDEST PUSH1 0x20 MUL PUSH1 0x20 ADD ADD MLOAD DUP3 PUSH2 0xD4 SWAP2 SWAP1 PUSH2 0x3BD JUMP JUMPDEST SWAP2 POP DUP1 PUSH2 0xE0 SWAP1 PUSH2 0x3F1 JUMP JUMPDEST SWAP1 POP PUSH2 0xA5 JUMP JUMPDEST POP DUP1 SWAP2 POP POP SWAP2 SWAP1 POP JUMP JUMPDEST PUSH1 0x0 DUP1 PUSH1 0x0 SWAP1 POP PUSH1 0x0 JUMPDEST DUP4 MLOAD DUP2 LT ISZERO PUSH2 0x13F JUMPI DUP4 DUP2 DUP2 MLOAD DUP2 LT PUSH2 0x117 JUMPI PUSH2 0x116 PUSH2 0x35F JUMP JUMPDEST JUMPDEST PUSH1 0x20 MUL PUSH1 0x20 ADD ADD MLOAD DUP3 PUSH2 0x12A SWAP2 SWAP1 PUSH2 0x3BD JUMP JUMPDEST SWAP2 POP DUP1 DUP1 PUSH2 0x137 SWAP1 PUSH2 0x3F1 JUMP JUMPDEST SWAP2 POP POP PUSH2 0xFB JUMP JUMPDEST POP DUP1 SWAP2 POP POP SWAP2 SWAP1 POP JUMP JUMPDEST PUSH1 0x0 PUSH1 0x40 MLOAD SWAP1 POP SWAP1 JUMP JUMPDEST PUSH1 0x0 DUP1 REVERT JUMPDEST PUSH1 0x0 DUP1 REVERT JUMPDEST PUSH1 0x0 DUP1 REVERT JUMPDEST PUSH1 0x0 PUSH1 0x1F NOT PUSH1 0x1F DUP4 ADD AND SWAP1 POP SWAP2 SWAP1 POP JUMP JUMPDEST PUSH32 0x4E487B7100000000000000000000000000000000000000000000000000000000 PUSH1 0x0 MSTORE PUSH1 0x41 PUSH1 0x4 MSTORE PUSH1 0x24 PUSH1 0x0 REVERT JUMPDEST PUSH2 0x1AB DUP3 PUSH2 0x162 JUMP JUMPDEST DUP2 ADD DUP2 DUP2 LT PUSH8 0xFFFFFFFFFFFFFFFF DUP3 GT OR ISZERO PUSH2 0x1CA JUMPI PUSH2 0x1C9 PUSH2 0x173 JUMP JUMPDEST JUMPDEST DUP1 PUSH1 0x40 MSTORE POP POP POP JUMP JUMPDEST PUSH1 0x0 PUSH2 0x1DD PUSH2 0x149 JUMP JUMPDEST SWAP1 POP PUSH2 0x1E9 DUP3 DUP3 PUSH2 0x1A2 JUMP JUMPDEST SWAP2 SWAP1 POP JUMP JUMPDEST PUSH1 0x0 PUSH8 0xFFFFFFFFFFFFFFFF DUP3 GT ISZERO PUSH2 0x209 JUMPI PUSH2 0x208 PUSH2 0x173 JUMP JUMPDEST JUMPDEST PUSH1 0x20 DUP3 MUL SWAP1 POP PUSH1 0x20 DUP2 ADD SWAP1 POP SWAP2 SWAP1 POP JUMP JUMPDEST PUSH1 0x0 DUP1 REVERT JUMPDEST PUSH1 0x0 DUP2 SWAP1 POP SWAP2 SWAP1 POP JUMP JUMPDEST PUSH2 0x232 DUP2 PUSH2 0x21F JUMP JUMPDEST DUP2 EQ PUSH2 0x23D JUMPI PUSH1 0x0 DUP1 REVERT JUMPDEST POP JUMP JUMPDEST PUSH1 0x0 DUP2 CALLDATALOAD SWAP1 POP PUSH2 0x24F DUP2 PUSH2 0x229 JUMP JUMPDEST SWAP3 SWAP2 POP POP JUMP JUMPDEST PUSH1 0x0 PUSH2 0x268 PUSH2 0x263 DUP5 PUSH2 0x1EE JUMP JUMPDEST PUSH2 0x1D3 JUMP JUMPDEST SWAP1 POP DUP1 DUP4 DUP3 MSTORE PUSH1 0x20 DUP3 ADD SWAP1 POP PUSH1 0x20 DUP5 MUL DUP4 ADD DUP6 DUP2 GT ISZERO PUSH2 0x28B JUMPI PUSH2 0x28A PUSH2 0x21A JUMP JUMPDEST JUMPDEST DUP4 JUMPDEST DUP2 DUP2 LT ISZERO PUSH2 0x2B4 JUMPI DUP1 PUSH2 0x2A0 DUP9 DUP3 PUSH2 0x240 JUMP JUMPDEST DUP5 MSTORE PUSH1 0x20 DUP5 ADD SWAP4 POP POP PUSH1 0x20 DUP2 ADD SWAP1 POP PUSH2 0x28D JUMP JUMPDEST POP POP POP SWAP4 SWAP3 POP POP POP JUMP JUMPDEST PUSH1 0x0 DUP3 PUSH1 0x1F DUP4 ADD SLT PUSH2 0x2D3 JUMPI PUSH2 0x2D2 PUSH2 0x15D JUMP JUMPDEST JUMPDEST DUP2 CALLDATALOAD PUSH2 0x2E3 DUP5 DUP3 PUSH1 0x20 DUP7 ADD PUSH2 0x255 JUMP JUMPDEST SWAP2 POP POP SWAP3 SWAP2 POP POP JUMP JUMPDEST PUSH1 0x0 PUSH1 0x20 DUP3 DUP5 SUB SLT ISZERO PUSH2 0x302 JUMPI PUSH2 0x301 PUSH2 0x153 JUMP JUMPDEST JUMPDEST PUSH1 0x0 DUP3 ADD CALLDATALOAD PUSH8 0xFFFFFFFFFFFFFFFF DUP2 GT ISZERO PUSH2 0x320 JUMPI PUSH2 0x31F PUSH2 0x158 JUMP JUMPDEST JUMPDEST PUSH2 0x32C DUP5 DUP3 DUP6 ADD PUSH2 0x2BE JUMP JUMPDEST SWAP2 POP POP SWAP3 SWAP2 POP POP JUMP JUMPDEST PUSH2 0x33E DUP2 PUSH2 0x21F JUMP JUMPDEST DUP3 MSTORE POP POP JUMP JUMPDEST PUSH1 0x0 PUSH1 0x20 DUP3 ADD SWAP1 POP PUSH2 0x359 PUSH1 0x0 DUP4 ADD DUP5 PUSH2 0x335 JUMP JUMPDEST SWAP3 SWAP2 POP POP JUMP JUMPDEST PUSH32 0x4E487B7100000000000000000000000000000000000000000000000000000000 PUSH1 0x0 MSTORE PUSH1 0x32 PUSH1 0x4 MSTORE PUSH1 0x24 PUSH1 0x0 REVERT JUMPDEST PUSH32 0x4E487B7100000000000000000000000000000000000000000000000000000000 PUSH1 0x0 MSTORE PUSH1 0x11 PUSH1 0x4 MSTORE PUSH1 0x24 PUSH1 0x0 REVERT JUMPDEST PUSH1 0x0 PUSH2 0x3C8 DUP3 PUSH2 0x21F JUMP JUMPDEST SWAP2 POP PUSH2 0x3D3 DUP4 PUSH2 0x21F JUMP JUMPDEST SWAP3 POP DUP3 DUP3 ADD SWAP1 POP DUP1 DUP3 GT ISZERO PUSH2 0x3EB JUMPI PUSH2 0x3EA PUSH2 0x38E JUMP JUMPDEST JUMPDEST SWAP3 SWAP2 POP POP JUMP JUMPDEST PUSH1 0x0 PUSH2 0x3FC DUP3 PUSH2 0x21F JUMP JUMPDEST SWAP2 POP PUSH32 0xFFFFFFFFFFFFFFFFFFFFFFFFFFFFFFFFFFFFFFFFFFFFFFFFFFFFFFFFFFFFFFFF DUP3 SUB PUSH2 0x42E JUMPI PUSH2 0x42D PUSH2 0x38E JUMP JUMPDEST JUMPDEST PUSH1 0x1 DUP3 ADD SWAP1 POP SWAP2 SWAP1 POP JUMP INVALID LOG2 PUSH5 0x6970667358 0x22 SLT KECCAK256 0xC8 0xAA DUP11 0xEE LOG4 PUSH2 0x6D64 EXTCODECOPY CREATE CALLDATACOPY 0xC PUSH18 0x501D7CC2F9EBC35C01166EB6DEEF47221B2A ORIGIN PUSH5 0x736F6C6343 STOP ADDMOD SLT STOP CALLER "
		},
		"gasEstimates": {
			"creation": {
				"codeDepositCost": "227000",
				"executionCost": "269",
				"totalCost": "227269"
			},
			"external": {
				"add1(uint256[])": "infinite",
				"add2(uint256[])": "infinite"
			}
		},
		"methodIdentifiers": {
			"add1(uint256[])": "a9158d6c",
			"add2(uint256[])": "a7f689ff"
		}
	},
	"abi": [
		{
			"inputs": [
				{
					"internalType": "uint256[]",
					"name": "data",
					"type": "uint256[]"
				}
			],
			"name": "add1",
			"outputs": [
				{
					"internalType": "uint256",
					"name": "",
					"type": "uint256"
				}
			],
			"stateMutability": "pure",
			"type": "function"
		},
		{
			"inputs": [
				{
					"internalType": "uint256[]",
					"name": "data",
					"type": "uint256[]"
				}
			],
			"name": "add2",
			"outputs": [
				{
					"internalType": "uint256",
					"name": "",
					"type": "uint256"
				}
			],
			"stateMutability": "pure",
			"type": "function"
		}
	]
}