{
	"data": {
		"bytecode": {
			"linkReferences": {},
			"object": "608060405234801561001057600080fd5b506101f9806100206000396000f3fe608060405234801561001057600080fd5b50600436106100365760003560e01c8063d8d77f751461003b578063f3b5cf371461006b575b600080fd5b61005560048036038101906100509190610100565b61009b565b604051610062919061013c565b60405180910390f35b61008560048036038101906100809190610100565b6100b1565b604051610092919061013c565b60405180910390f35b60006002826100aa9190610186565b9050919050565b600060018260ff16901b9050919050565b600080fd5b600060ff82169050919050565b6100dd816100c7565b81146100e857600080fd5b50565b6000813590506100fa816100d4565b92915050565b600060208284031215610116576101156100c2565b5b6000610124848285016100eb565b91505092915050565b610136816100c7565b82525050565b6000602082019050610151600083018461012d565b92915050565b7f4e487b7100000000000000000000000000000000000000000000000000000000600052601160045260246000fd5b6000610191826100c7565b915061019c836100c7565b92508282026101aa816100c7565b91508082146101bc576101bb610157565b5b509291505056fea2646970667358221220bd3a614be1c3cc00edab4c85d78adb3b693093fc8cfdf08708bb81477194afb764736f6c63430008120033",
			"opcodes": "PUSH1 0x80 PUSH1 0x40 MSTORE CALLVALUE DUP1 ISZERO PUSH2 0x10 JUMPI PUSH1 0x0 DUP1 REVERT JUMPDEST POP PUSH2 0x1F9 DUP1 PUSH2 0x20 PUSH1 0x0 CODECOPY PUSH1 0x0 RETURN INVALID PUSH1 0x80 PUSH1 0x40 MSTORE CALLVALUE DUP1 ISZERO PUSH2 0x10 JUMPI PUSH1 0x0 DUP1 REVERT JUMPDEST POP PUSH1 0x4 CALLDATASIZE LT PUSH2 0x36 JUMPI PUSH1 0x0 CALLDATALOAD PUSH1 0xE0 SHR DUP1 PUSH4 0xD8D77F75 EQ PUSH2 0x3B JUMPI DUP1 PUSH4 0xF3B5CF37 EQ PUSH2 0x6B JUMPI JUMPDEST PUSH1 0x0 DUP1 REVERT JUMPDEST PUSH2 0x55 PUSH1 0x4 DUP1 CALLDATASIZE SUB DUP2 ADD SWAP1 PUSH2 0x50 SWAP2 SWAP1 PUSH2 0x100 JUMP JUMPDEST PUSH2 0x9B JUMP JUMPDEST PUSH1 0x40 MLOAD PUSH2 0x62 SWAP2 SWAP1 PUSH2 0x13C JUMP JUMPDEST PUSH1 0x40 MLOAD DUP1 SWAP2 SUB SWAP1 RETURN JUMPDEST PUSH2 0x85 PUSH1 0x4 DUP1 CALLDATASIZE SUB DUP2 ADD SWAP1 PUSH2 0x80 SWAP2 SWAP1 PUSH2 0x100 JUMP JUMPDEST PUSH2 0xB1 JUMP JUMPDEST PUSH1 0x40 MLOAD PUSH2 0x92 SWAP2 SWAP1 PUSH2 0x13C JUMP JUMPDEST PUSH1 0x40 MLOAD DUP1 SWAP2 SUB SWAP1 RETURN JUMPDEST PUSH1 0x0 PUSH1 0x2 DUP3 PUSH2 0xAA SWAP2 SWAP1 PUSH2 0x186 JUMP JUMPDEST SWAP1 POP SWAP2 SWAP1 POP JUMP JUMPDEST PUSH1 0x0 PUSH1 0x1 DUP3 PUSH1 0xFF AND SWAP1 SHL SWAP1 POP SWAP2 SWAP1 POP JUMP JUMPDEST PUSH1 0x0 DUP1 REVERT JUMPDEST PUSH1 0x0 PUSH1 0xFF DUP3 AND SWAP1 POP SWAP2 SWAP1 POP JUMP JUMPDEST PUSH2 0xDD DUP2 PUSH2 0xC7 JUMP JUMPDEST DUP2 EQ PUSH2 0xE8 JUMPI PUSH1 0x0 DUP1 REVERT JUMPDEST POP JUMP JUMPDEST PUSH1 0x0 DUP2 CALLDATALOAD SWAP1 POP PUSH2 0xFA DUP2 PUSH2 0xD4 JUMP JUMPDEST SWAP3 SWAP2 POP POP JUMP JUMPDEST PUSH1 0x0 PUSH1 0x20 DUP3 DUP5 SUB SLT ISZERO PUSH2 0x116 JUMPI PUSH2 0x115 PUSH2 0xC2 JUMP JUMPDEST JUMPDEST PUSH1 0x0 PUSH2 0x124 DUP5 DUP3 DUP6 ADD PUSH2 0xEB JUMP JUMPDEST SWAP2 POP POP SWAP3 SWAP2 POP POP JUMP JUMPDEST PUSH2 0x136 DUP2 PUSH2 0xC7 JUMP JUMPDEST DUP3 MSTORE POP POP JUMP JUMPDEST PUSH1 0x0 PUSH1 0x20 DUP3 ADD SWAP1 POP PUSH2 0x151 PUSH1 0x0 DUP4 ADD DUP5 PUSH2 0x12D JUMP JUMPDEST SWAP3 SWAP2 POP POP JUMP JUMPDEST PUSH32 0x4E487B7100000000000000000000000000000000000000000000000000000000 PUSH1 0x0 MSTORE PUSH1 0x11 PUSH1 0x4 MSTORE PUSH1 0x24 PUSH1 0x0 REVERT JUMPDEST PUSH1 0x0 PUSH2 0x191 DUP3 PUSH2 0xC7 JUMP JUMPDEST SWAP2 POP PUSH2 0x19C DUP4 PUSH2 0xC7 JUMP JUMPDEST SWAP3 POP DUP3 DUP3 MUL PUSH2 0x1AA DUP2 PUSH2 0xC7 JUMP JUMPDEST SWAP2 POP DUP1 DUP3 EQ PUSH2 0x1BC JUMPI PUSH2 0x1BB PUSH2 0x157 JUMP JUMPDEST JUMPDEST POP SWAP3 SWAP2 POP POP JUMP INVALID LOG2 PUSH5 0x6970667358 0x22 SLT KECCAK256 0xBD GASPRICE PUSH2 0x4BE1 0xC3 0xCC STOP 0xED 0xAB 0x4C DUP6 0xD7 DUP11 0xDB EXTCODESIZE PUSH10 0x3093FC8CFDF08708BB81 SELFBALANCE PUSH18 0x94AFB764736F6C6343000812003300000000 "
		},
		"gasEstimates": {
			"creation": {
				"codeDepositCost": "101000",
				"executionCost": "147",
				"totalCost": "101147"
			},
			"external": {
				"double(uint8)": "infinite",
				"shiftLeft(uint8)": "infinite"
			}
		},
		"methodIdentifiers": {
			"double(uint8)": "d8d77f75",
			"shiftLeft(uint8)": "f3b5cf37"
		}
	},
	"abi": [
		{
			"inputs": [
				{
					"internalType": "uint8",
					"name": "x",
					"type": "uint8"
				}
			],
			"name": "double",
			"outputs": [
				{
					"internalType": "uint8",
					"name": "",
					"type": "uint8"
				}
			],
			"stateMutability": "pure",
			"type": "function"
		},
		{
			"inputs": [
				{
					"internalType": "uint8",
					"name": "x",
					"type": "uint8"
				}
			],
			"name": "shiftLeft",
			"outputs": [
				{
					"internalType": "uint8",
					"name": "",
					"type": "uint8"
				}
			],
			"stateMutability": "pure",
			"type": "function"
		}
	]
}