{
	"aquo/aquopool.sol": {
		"POOLToken": {
			"abi": [
				{
					"inputs": [],
					"stateMutability": "nonpayable",
					"type": "constructor"
				},
				{
					"inputs": [
						{
							"internalType": "address",
							"name": "rwaAddress",
							"type": "address"
						}
					],
					"name": "addSlot",
					"outputs": [],
					"stateMutability": "nonpayable",
					"type": "function"
				},
				{
					"inputs": [
						{
							"internalType": "address",
							"name": "",
							"type": "address"
						}
					],
					"name": "balances",
					"outputs": [
						{
							"internalType": "uint256",
							"name": "",
							"type": "uint256"
						}
					],
					"stateMutability": "view",
					"type": "function"
				},
				{
					"inputs": [],
					"name": "lastSlot",
					"outputs": [
						{
							"internalType": "uint256",
							"name": "",
							"type": "uint256"
						}
					],
					"stateMutability": "view",
					"type": "function"
				},
				{
					"inputs": [
						{
							"internalType": "uint256",
							"name": "amount",
							"type": "uint256"
						}
					],
					"name": "mint",
					"outputs": [],
					"stateMutability": "nonpayable",
					"type": "function"
				},
				{
					"inputs": [],
					"name": "name",
					"outputs": [
						{
							"internalType": "string",
							"name": "",
							"type": "string"
						}
					],
					"stateMutability": "view",
					"type": "function"
				},
				{
					"inputs": [],
					"name": "owner",
					"outputs": [
						{
							"internalType": "address",
							"name": "",
							"type": "address"
						}
					],
					"stateMutability": "view",
					"type": "function"
				},
				{
					"inputs": [
						{
							"internalType": "uint256",
							"name": "",
							"type": "uint256"
						}
					],
					"name": "slotToAddress",
					"outputs": [
						{
							"internalType": "address",
							"name": "",
							"type": "address"
						}
					],
					"stateMutability": "view",
					"type": "function"
				},
				{
					"inputs": [],
					"name": "symbol",
					"outputs": [
						{
							"internalType": "string",
							"name": "",
							"type": "string"
						}
					],
					"stateMutability": "view",
					"type": "function"
				},
				{
					"inputs": [
						{
							"internalType": "address",
							"name": "to",
							"type": "address"
						},
						{
							"internalType": "address",
							"name": "rwaContractAddr",
							"type": "address"
						},
						{
							"internalType": "uint256",
							"name": "poolSlot",
							"type": "uint256"
						},
						{
							"internalType": "uint256",
							"name": "amount",
							"type": "uint256"
						}
					],
					"name": "transfer",
					"outputs": [],
					"stateMutability": "nonpayable",
					"type": "function"
				},
				{
					"inputs": [
						{
							"internalType": "address",
							"name": "from",
							"type": "address"
						},
						{
							"internalType": "address",
							"name": "to",
							"type": "address"
						},
						{
							"internalType": "uint256",
							"name": "amount",
							"type": "uint256"
						}
					],
					"name": "transferFrom",
					"outputs": [],
					"stateMutability": "nonpayable",
					"type": "function"
				}
			],
			"devdoc": {
				"kind": "dev",
				"methods": {},
				"version": 1
			},
			"evm": {
				"assembly": "    /* \"aquo/aquopool.sol\":269:3216  contract POOLToken {... */\n  mstore(0x40, 0x80)\n    /* \"aquo/aquopool.sol\":477:478  0 */\n  0x00\n    /* \"aquo/aquopool.sol\":454:478  uint public lastSlot = 0 */\n  0x03\n  sstore\n    /* \"aquo/aquopool.sol\":574:608  string public name = \"POOL Tokens\" */\n  mload(0x40)\n  dup1\n  0x40\n  add\n  0x40\n  mstore\n  dup1\n  0x0b\n  dup2\n  mstore\n  0x20\n  add\n  0x504f4f4c20546f6b656e73000000000000000000000000000000000000000000\n  dup2\n  mstore\n  pop\n  0x04\n  swap1\n  dup2\n  tag_1\n  swap2\n  swap1\n  tag_2\n  jump\t// in\ntag_1:\n  pop\n    /* \"aquo/aquopool.sol\":615:644  string public symbol = \"POOL\" */\n  mload(0x40)\n  dup1\n  0x40\n  add\n  0x40\n  mstore\n  dup1\n  0x04\n  dup2\n  mstore\n  0x20\n  add\n  0x504f4f4c00000000000000000000000000000000000000000000000000000000\n  dup2\n  mstore\n  pop\n  0x05\n  swap1\n  dup2\n  tag_3\n  swap2\n  swap1\n  tag_2\n  jump\t// in\ntag_3:\n  pop\n    /* \"aquo/aquopool.sol\":653:750  constructor() {... */\n  callvalue\n  dup1\n  iszero\n  tag_4\n  jumpi\n  0x00\n  dup1\n  revert\ntag_4:\n  pop\n    /* \"aquo/aquopool.sol\":686:696  msg.sender */\n  caller\n    /* \"aquo/aquopool.sol\":678:683  owner */\n  0x00\n  dup1\n    /* \"aquo/aquopool.sol\":678:696  owner = msg.sender */\n  0x0100\n  exp\n  dup2\n  sload\n  dup2\n  0xffffffffffffffffffffffffffffffffffffffff\n  mul\n  not\n  and\n  swap1\n  dup4\n  0xffffffffffffffffffffffffffffffffffffffff\n  and\n  mul\n  or\n  swap1\n  sstore\n  pop\n    /* \"aquo/aquopool.sol\":269:3216  contract POOLToken {... */\n  jump(tag_7)\n    /* \"#utility.yul\":7:106   */\ntag_8:\n    /* \"#utility.yul\":59:65   */\n  0x00\n    /* \"#utility.yul\":93:98   */\n  dup2\n    /* \"#utility.yul\":87:99   */\n  mload\n    /* \"#utility.yul\":77:99   */\n  swap1\n  pop\n    /* \"#utility.yul\":7:106   */\n  swap2\n  swap1\n  pop\n  jump\t// out\n    /* \"#utility.yul\":112:292   */\ntag_9:\n    /* \"#utility.yul\":160:237   */\n  0x4e487b7100000000000000000000000000000000000000000000000000000000\n    /* \"#utility.yul\":157:158   */\n  0x00\n    /* \"#utility.yul\":150:238   */\n  mstore\n    /* \"#utility.yul\":257:261   */\n  0x41\n    /* \"#utility.yul\":254:255   */\n  0x04\n    /* \"#utility.yul\":247:262   */\n  mstore\n    /* \"#utility.yul\":281:285   */\n  0x24\n    /* \"#utility.yul\":278:279   */\n  0x00\n    /* \"#utility.yul\":271:286   */\n  revert\n    /* \"#utility.yul\":298:478   */\ntag_10:\n    /* \"#utility.yul\":346:423   */\n  0x4e487b7100000000000000000000000000000000000000000000000000000000\n    /* \"#utility.yul\":343:344   */\n  0x00\n    /* \"#utility.yul\":336:424   */\n  mstore\n    /* \"#utility.yul\":443:447   */\n  0x22\n    /* \"#utility.yul\":440:441   */\n  0x04\n    /* \"#utility.yul\":433:448   */\n  mstore\n    /* \"#utility.yul\":467:471   */\n  0x24\n    /* \"#utility.yul\":464:465   */\n  0x00\n    /* \"#utility.yul\":457:472   */\n  revert\n    /* \"#utility.yul\":484:804   */\ntag_11:\n    /* \"#utility.yul\":528:534   */\n  0x00\n    /* \"#utility.yul\":565:566   */\n  0x02\n    /* \"#utility.yul\":559:563   */\n  dup3\n    /* \"#utility.yul\":555:567   */\n  div\n    /* \"#utility.yul\":545:567   */\n  swap1\n  pop\n    /* \"#utility.yul\":612:613   */\n  0x01\n    /* \"#utility.yul\":606:610   */\n  dup3\n    /* \"#utility.yul\":602:614   */\n  and\n    /* \"#utility.yul\":633:651   */\n  dup1\n    /* \"#utility.yul\":623:704   */\n  tag_33\n  jumpi\n    /* \"#utility.yul\":689:693   */\n  0x7f\n    /* \"#utility.yul\":681:687   */\n  dup3\n    /* \"#utility.yul\":677:694   */\n  and\n    /* \"#utility.yul\":667:694   */\n  swap2\n  pop\n    /* \"#utility.yul\":623:704   */\ntag_33:\n    /* \"#utility.yul\":751:753   */\n  0x20\n    /* \"#utility.yul\":743:749   */\n  dup3\n    /* \"#utility.yul\":740:754   */\n  lt\n    /* \"#utility.yul\":720:738   */\n  dup2\n    /* \"#utility.yul\":717:755   */\n  sub\n    /* \"#utility.yul\":714:798   */\n  tag_34\n  jumpi\n    /* \"#utility.yul\":770:788   */\n  tag_35\n  tag_10\n  jump\t// in\ntag_35:\n    /* \"#utility.yul\":714:798   */\ntag_34:\n    /* \"#utility.yul\":535:804   */\n  pop\n    /* \"#utility.yul\":484:804   */\n  swap2\n  swap1\n  pop\n  jump\t// out\n    /* \"#utility.yul\":810:951   */\ntag_12:\n    /* \"#utility.yul\":859:863   */\n  0x00\n    /* \"#utility.yul\":882:885   */\n  dup2\n    /* \"#utility.yul\":874:885   */\n  swap1\n  pop\n    /* \"#utility.yul\":905:908   */\n  dup2\n    /* \"#utility.yul\":902:903   */\n  0x00\n    /* \"#utility.yul\":895:909   */\n  mstore\n    /* \"#utility.yul\":939:943   */\n  0x20\n    /* \"#utility.yul\":936:937   */\n  0x00\n    /* \"#utility.yul\":926:944   */\n  keccak256\n    /* \"#utility.yul\":918:944   */\n  swap1\n  pop\n    /* \"#utility.yul\":810:951   */\n  swap2\n  swap1\n  pop\n  jump\t// out\n    /* \"#utility.yul\":957:1050   */\ntag_13:\n    /* \"#utility.yul\":994:1000   */\n  0x00\n    /* \"#utility.yul\":1041:1043   */\n  0x20\n    /* \"#utility.yul\":1036:1038   */\n  0x1f\n    /* \"#utility.yul\":1029:1034   */\n  dup4\n    /* \"#utility.yul\":1025:1039   */\n  add\n    /* \"#utility.yul\":1021:1044   */\n  div\n    /* \"#utility.yul\":1011:1044   */\n  swap1\n  pop\n    /* \"#utility.yul\":957:1050   */\n  swap2\n  swap1\n  pop\n  jump\t// out\n    /* \"#utility.yul\":1056:1163   */\ntag_14:\n    /* \"#utility.yul\":1100:1108   */\n  0x00\n    /* \"#utility.yul\":1150:1155   */\n  dup3\n    /* \"#utility.yul\":1144:1148   */\n  dup3\n    /* \"#utility.yul\":1140:1156   */\n  shl\n    /* \"#utility.yul\":1119:1156   */\n  swap1\n  pop\n    /* \"#utility.yul\":1056:1163   */\n  swap3\n  swap2\n  pop\n  pop\n  jump\t// out\n    /* \"#utility.yul\":1169:1562   */\ntag_15:\n    /* \"#utility.yul\":1238:1244   */\n  0x00\n    /* \"#utility.yul\":1288:1289   */\n  0x08\n    /* \"#utility.yul\":1276:1286   */\n  dup4\n    /* \"#utility.yul\":1272:1290   */\n  mul\n    /* \"#utility.yul\":1311:1408   */\n  tag_40\n    /* \"#utility.yul\":1341:1407   */\n  0xffffffffffffffffffffffffffffffffffffffffffffffffffffffffffffffff\n    /* \"#utility.yul\":1330:1339   */\n  dup3\n    /* \"#utility.yul\":1311:1408   */\n  tag_14\n  jump\t// in\ntag_40:\n    /* \"#utility.yul\":1429:1468   */\n  tag_41\n    /* \"#utility.yul\":1459:1467   */\n  dup7\n    /* \"#utility.yul\":1448:1457   */\n  dup4\n    /* \"#utility.yul\":1429:1468   */\n  tag_14\n  jump\t// in\ntag_41:\n    /* \"#utility.yul\":1417:1468   */\n  swap6\n  pop\n    /* \"#utility.yul\":1501:1505   */\n  dup1\n    /* \"#utility.yul\":1497:1506   */\n  not\n    /* \"#utility.yul\":1490:1495   */\n  dup5\n    /* \"#utility.yul\":1486:1507   */\n  and\n    /* \"#utility.yul\":1477:1507   */\n  swap4\n  pop\n    /* \"#utility.yul\":1550:1554   */\n  dup1\n    /* \"#utility.yul\":1540:1548   */\n  dup7\n    /* \"#utility.yul\":1536:1555   */\n  and\n    /* \"#utility.yul\":1529:1534   */\n  dup5\n    /* \"#utility.yul\":1526:1556   */\n  or\n    /* \"#utility.yul\":1516:1556   */\n  swap3\n  pop\n    /* \"#utility.yul\":1245:1562   */\n  pop\n  pop\n    /* \"#utility.yul\":1169:1562   */\n  swap4\n  swap3\n  pop\n  pop\n  pop\n  jump\t// out\n    /* \"#utility.yul\":1568:1645   */\ntag_16:\n    /* \"#utility.yul\":1605:1612   */\n  0x00\n    /* \"#utility.yul\":1634:1639   */\n  dup2\n    /* \"#utility.yul\":1623:1639   */\n  swap1\n  pop\n    /* \"#utility.yul\":1568:1645   */\n  swap2\n  swap1\n  pop\n  jump\t// out\n    /* \"#utility.yul\":1651:1711   */\ntag_17:\n    /* \"#utility.yul\":1679:1682   */\n  0x00\n    /* \"#utility.yul\":1700:1705   */\n  dup2\n    /* \"#utility.yul\":1693:1705   */\n  swap1\n  pop\n    /* \"#utility.yul\":1651:1711   */\n  swap2\n  swap1\n  pop\n  jump\t// out\n    /* \"#utility.yul\":1717:1859   */\ntag_18:\n    /* \"#utility.yul\":1767:1776   */\n  0x00\n    /* \"#utility.yul\":1800:1853   */\n  tag_45\n    /* \"#utility.yul\":1818:1852   */\n  tag_46\n    /* \"#utility.yul\":1827:1851   */\n  tag_47\n    /* \"#utility.yul\":1845:1850   */\n  dup5\n    /* \"#utility.yul\":1827:1851   */\n  tag_16\n  jump\t// in\ntag_47:\n    /* \"#utility.yul\":1818:1852   */\n  tag_17\n  jump\t// in\ntag_46:\n    /* \"#utility.yul\":1800:1853   */\n  tag_16\n  jump\t// in\ntag_45:\n    /* \"#utility.yul\":1787:1853   */\n  swap1\n  pop\n    /* \"#utility.yul\":1717:1859   */\n  swap2\n  swap1\n  pop\n  jump\t// out\n    /* \"#utility.yul\":1865:1940   */\ntag_19:\n    /* \"#utility.yul\":1908:1911   */\n  0x00\n    /* \"#utility.yul\":1929:1934   */\n  dup2\n    /* \"#utility.yul\":1922:1934   */\n  swap1\n  pop\n    /* \"#utility.yul\":1865:1940   */\n  swap2\n  swap1\n  pop\n  jump\t// out\n    /* \"#utility.yul\":1946:2215   */\ntag_20:\n    /* \"#utility.yul\":2056:2095   */\n  tag_50\n    /* \"#utility.yul\":2087:2094   */\n  dup4\n    /* \"#utility.yul\":2056:2095   */\n  tag_18\n  jump\t// in\ntag_50:\n    /* \"#utility.yul\":2117:2208   */\n  tag_51\n    /* \"#utility.yul\":2166:2207   */\n  tag_52\n    /* \"#utility.yul\":2190:2206   */\n  dup3\n    /* \"#utility.yul\":2166:2207   */\n  tag_19\n  jump\t// in\ntag_52:\n    /* \"#utility.yul\":2158:2164   */\n  dup5\n    /* \"#utility.yul\":2151:2155   */\n  dup5\n    /* \"#utility.yul\":2145:2156   */\n  sload\n    /* \"#utility.yul\":2117:2208   */\n  tag_15\n  jump\t// in\ntag_51:\n    /* \"#utility.yul\":2111:2115   */\n  dup3\n    /* \"#utility.yul\":2104:2209   */\n  sstore\n    /* \"#utility.yul\":2022:2215   */\n  pop\n    /* \"#utility.yul\":1946:2215   */\n  pop\n  pop\n  pop\n  jump\t// out\n    /* \"#utility.yul\":2221:2294   */\ntag_21:\n    /* \"#utility.yul\":2266:2269   */\n  0x00\n    /* \"#utility.yul\":2221:2294   */\n  swap1\n  jump\t// out\n    /* \"#utility.yul\":2300:2489   */\ntag_22:\n    /* \"#utility.yul\":2377:2409   */\n  tag_55\n  tag_21\n  jump\t// in\ntag_55:\n    /* \"#utility.yul\":2418:2483   */\n  tag_56\n    /* \"#utility.yul\":2476:2482   */\n  dup2\n    /* \"#utility.yul\":2468:2474   */\n  dup5\n    /* \"#utility.yul\":2462:2466   */\n  dup5\n    /* \"#utility.yul\":2418:2483   */\n  tag_20\n  jump\t// in\ntag_56:\n    /* \"#utility.yul\":2353:2489   */\n  pop\n    /* \"#utility.yul\":2300:2489   */\n  pop\n  pop\n  jump\t// out\n    /* \"#utility.yul\":2495:2681   */\ntag_23:\n    /* \"#utility.yul\":2555:2675   */\ntag_58:\n    /* \"#utility.yul\":2572:2575   */\n  dup2\n    /* \"#utility.yul\":2565:2570   */\n  dup2\n    /* \"#utility.yul\":2562:2576   */\n  lt\n    /* \"#utility.yul\":2555:2675   */\n  iszero\n  tag_60\n  jumpi\n    /* \"#utility.yul\":2626:2665   */\n  tag_61\n    /* \"#utility.yul\":2663:2664   */\n  0x00\n    /* \"#utility.yul\":2656:2661   */\n  dup3\n    /* \"#utility.yul\":2626:2665   */\n  tag_22\n  jump\t// in\ntag_61:\n    /* \"#utility.yul\":2599:2600   */\n  0x01\n    /* \"#utility.yul\":2592:2597   */\n  dup2\n    /* \"#utility.yul\":2588:2601   */\n  add\n    /* \"#utility.yul\":2579:2601   */\n  swap1\n  pop\n    /* \"#utility.yul\":2555:2675   */\n  jump(tag_58)\ntag_60:\n    /* \"#utility.yul\":2495:2681   */\n  pop\n  pop\n  jump\t// out\n    /* \"#utility.yul\":2687:3230   */\ntag_24:\n    /* \"#utility.yul\":2788:2790   */\n  0x1f\n    /* \"#utility.yul\":2783:2786   */\n  dup3\n    /* \"#utility.yul\":2780:2791   */\n  gt\n    /* \"#utility.yul\":2777:3223   */\n  iszero\n  tag_63\n  jumpi\n    /* \"#utility.yul\":2822:2860   */\n  tag_64\n    /* \"#utility.yul\":2854:2859   */\n  dup2\n    /* \"#utility.yul\":2822:2860   */\n  tag_12\n  jump\t// in\ntag_64:\n    /* \"#utility.yul\":2906:2935   */\n  tag_65\n    /* \"#utility.yul\":2924:2934   */\n  dup5\n    /* \"#utility.yul\":2906:2935   */\n  tag_13\n  jump\t// in\ntag_65:\n    /* \"#utility.yul\":2896:2904   */\n  dup2\n    /* \"#utility.yul\":2892:2936   */\n  add\n    /* \"#utility.yul\":3089:3091   */\n  0x20\n    /* \"#utility.yul\":3077:3087   */\n  dup6\n    /* \"#utility.yul\":3074:3092   */\n  lt\n    /* \"#utility.yul\":3071:3120   */\n  iszero\n  tag_66\n  jumpi\n    /* \"#utility.yul\":3110:3118   */\n  dup2\n    /* \"#utility.yul\":3095:3118   */\n  swap1\n  pop\n    /* \"#utility.yul\":3071:3120   */\ntag_66:\n    /* \"#utility.yul\":3133:3213   */\n  tag_67\n    /* \"#utility.yul\":3189:3211   */\n  tag_68\n    /* \"#utility.yul\":3207:3210   */\n  dup6\n    /* \"#utility.yul\":3189:3211   */\n  tag_13\n  jump\t// in\ntag_68:\n    /* \"#utility.yul\":3179:3187   */\n  dup4\n    /* \"#utility.yul\":3175:3212   */\n  add\n    /* \"#utility.yul\":3162:3173   */\n  dup3\n    /* \"#utility.yul\":3133:3213   */\n  tag_23\n  jump\t// in\ntag_67:\n    /* \"#utility.yul\":2792:3223   */\n  pop\n  pop\n    /* \"#utility.yul\":2777:3223   */\ntag_63:\n    /* \"#utility.yul\":2687:3230   */\n  pop\n  pop\n  pop\n  jump\t// out\n    /* \"#utility.yul\":3236:3353   */\ntag_25:\n    /* \"#utility.yul\":3290:3298   */\n  0x00\n    /* \"#utility.yul\":3340:3345   */\n  dup3\n    /* \"#utility.yul\":3334:3338   */\n  dup3\n    /* \"#utility.yul\":3330:3346   */\n  shr\n    /* \"#utility.yul\":3309:3346   */\n  swap1\n  pop\n    /* \"#utility.yul\":3236:3353   */\n  swap3\n  swap2\n  pop\n  pop\n  jump\t// out\n    /* \"#utility.yul\":3359:3528   */\ntag_26:\n    /* \"#utility.yul\":3403:3409   */\n  0x00\n    /* \"#utility.yul\":3436:3487   */\n  tag_71\n    /* \"#utility.yul\":3484:3485   */\n  0x00\n    /* \"#utility.yul\":3480:3486   */\n  not\n    /* \"#utility.yul\":3472:3477   */\n  dup5\n    /* \"#utility.yul\":3469:3470   */\n  0x08\n    /* \"#utility.yul\":3465:3478   */\n  mul\n    /* \"#utility.yul\":3436:3487   */\n  tag_25\n  jump\t// in\ntag_71:\n    /* \"#utility.yul\":3432:3488   */\n  not\n    /* \"#utility.yul\":3517:3521   */\n  dup1\n    /* \"#utility.yul\":3511:3515   */\n  dup4\n    /* \"#utility.yul\":3507:3522   */\n  and\n    /* \"#utility.yul\":3497:3522   */\n  swap2\n  pop\n    /* \"#utility.yul\":3410:3528   */\n  pop\n    /* \"#utility.yul\":3359:3528   */\n  swap3\n  swap2\n  pop\n  pop\n  jump\t// out\n    /* \"#utility.yul\":3533:3828   */\ntag_27:\n    /* \"#utility.yul\":3609:3613   */\n  0x00\n    /* \"#utility.yul\":3755:3784   */\n  tag_73\n    /* \"#utility.yul\":3780:3783   */\n  dup4\n    /* \"#utility.yul\":3774:3778   */\n  dup4\n    /* \"#utility.yul\":3755:3784   */\n  tag_26\n  jump\t// in\ntag_73:\n    /* \"#utility.yul\":3747:3784   */\n  swap2\n  pop\n    /* \"#utility.yul\":3817:3820   */\n  dup3\n    /* \"#utility.yul\":3814:3815   */\n  0x02\n    /* \"#utility.yul\":3810:3821   */\n  mul\n    /* \"#utility.yul\":3804:3808   */\n  dup3\n    /* \"#utility.yul\":3801:3822   */\n  or\n    /* \"#utility.yul\":3793:3822   */\n  swap1\n  pop\n    /* \"#utility.yul\":3533:3828   */\n  swap3\n  swap2\n  pop\n  pop\n  jump\t// out\n    /* \"#utility.yul\":3833:5228   */\ntag_2:\n    /* \"#utility.yul\":3950:3987   */\n  tag_75\n    /* \"#utility.yul\":3983:3986   */\n  dup3\n    /* \"#utility.yul\":3950:3987   */\n  tag_8\n  jump\t// in\ntag_75:\n    /* \"#utility.yul\":4052:4070   */\n  0xffffffffffffffff\n    /* \"#utility.yul\":4044:4050   */\n  dup2\n    /* \"#utility.yul\":4041:4071   */\n  gt\n    /* \"#utility.yul\":4038:4094   */\n  iszero\n  tag_76\n  jumpi\n    /* \"#utility.yul\":4074:4092   */\n  tag_77\n  tag_9\n  jump\t// in\ntag_77:\n    /* \"#utility.yul\":4038:4094   */\ntag_76:\n    /* \"#utility.yul\":4118:4156   */\n  tag_78\n    /* \"#utility.yul\":4150:4154   */\n  dup3\n    /* \"#utility.yul\":4144:4155   */\n  sload\n    /* \"#utility.yul\":4118:4156   */\n  tag_11\n  jump\t// in\ntag_78:\n    /* \"#utility.yul\":4203:4270   */\n  tag_79\n    /* \"#utility.yul\":4263:4269   */\n  dup3\n    /* \"#utility.yul\":4255:4261   */\n  dup3\n    /* \"#utility.yul\":4249:4253   */\n  dup6\n    /* \"#utility.yul\":4203:4270   */\n  tag_24\n  jump\t// in\ntag_79:\n    /* \"#utility.yul\":4297:4298   */\n  0x00\n    /* \"#utility.yul\":4321:4325   */\n  0x20\n    /* \"#utility.yul\":4308:4325   */\n  swap1\n  pop\n    /* \"#utility.yul\":4353:4355   */\n  0x1f\n    /* \"#utility.yul\":4345:4351   */\n  dup4\n    /* \"#utility.yul\":4342:4356   */\n  gt\n    /* \"#utility.yul\":4370:4371   */\n  0x01\n    /* \"#utility.yul\":4365:4983   */\n  dup2\n  eq\n  tag_81\n  jumpi\n    /* \"#utility.yul\":5027:5028   */\n  0x00\n    /* \"#utility.yul\":5044:5050   */\n  dup5\n    /* \"#utility.yul\":5041:5118   */\n  iszero\n  tag_82\n  jumpi\n    /* \"#utility.yul\":5093:5102   */\n  dup3\n    /* \"#utility.yul\":5088:5091   */\n  dup8\n    /* \"#utility.yul\":5084:5103   */\n  add\n    /* \"#utility.yul\":5078:5104   */\n  mload\n    /* \"#utility.yul\":5069:5104   */\n  swap1\n  pop\n    /* \"#utility.yul\":5041:5118   */\ntag_82:\n    /* \"#utility.yul\":5144:5211   */\n  tag_83\n    /* \"#utility.yul\":5204:5210   */\n  dup6\n    /* \"#utility.yul\":5197:5202   */\n  dup3\n    /* \"#utility.yul\":5144:5211   */\n  tag_27\n  jump\t// in\ntag_83:\n    /* \"#utility.yul\":5138:5142   */\n  dup7\n    /* \"#utility.yul\":5131:5212   */\n  sstore\n    /* \"#utility.yul\":5000:5222   */\n  pop\n    /* \"#utility.yul\":4335:5222   */\n  jump(tag_80)\n    /* \"#utility.yul\":4365:4983   */\ntag_81:\n    /* \"#utility.yul\":4417:4421   */\n  0x1f\n    /* \"#utility.yul\":4413:4422   */\n  not\n    /* \"#utility.yul\":4405:4411   */\n  dup5\n    /* \"#utility.yul\":4401:4423   */\n  and\n    /* \"#utility.yul\":4451:4488   */\n  tag_84\n    /* \"#utility.yul\":4483:4487   */\n  dup7\n    /* \"#utility.yul\":4451:4488   */\n  tag_12\n  jump\t// in\ntag_84:\n    /* \"#utility.yul\":4510:4511   */\n  0x00\n    /* \"#utility.yul\":4524:4732   */\ntag_85:\n    /* \"#utility.yul\":4538:4545   */\n  dup3\n    /* \"#utility.yul\":4535:4536   */\n  dup2\n    /* \"#utility.yul\":4532:4546   */\n  lt\n    /* \"#utility.yul\":4524:4732   */\n  iszero\n  tag_87\n  jumpi\n    /* \"#utility.yul\":4617:4626   */\n  dup5\n    /* \"#utility.yul\":4612:4615   */\n  dup10\n    /* \"#utility.yul\":4608:4627   */\n  add\n    /* \"#utility.yul\":4602:4628   */\n  mload\n    /* \"#utility.yul\":4594:4600   */\n  dup3\n    /* \"#utility.yul\":4587:4629   */\n  sstore\n    /* \"#utility.yul\":4668:4669   */\n  0x01\n    /* \"#utility.yul\":4660:4666   */\n  dup3\n    /* \"#utility.yul\":4656:4670   */\n  add\n    /* \"#utility.yul\":4646:4670   */\n  swap2\n  pop\n    /* \"#utility.yul\":4715:4717   */\n  0x20\n    /* \"#utility.yul\":4704:4713   */\n  dup6\n    /* \"#utility.yul\":4700:4718   */\n  add\n    /* \"#utility.yul\":4687:4718   */\n  swap5\n  pop\n    /* \"#utility.yul\":4561:4565   */\n  0x20\n    /* \"#utility.yul\":4558:4559   */\n  dup2\n    /* \"#utility.yul\":4554:4566   */\n  add\n    /* \"#utility.yul\":4549:4566   */\n  swap1\n  pop\n    /* \"#utility.yul\":4524:4732   */\n  jump(tag_85)\ntag_87:\n    /* \"#utility.yul\":4760:4766   */\n  dup7\n    /* \"#utility.yul\":4751:4758   */\n  dup4\n    /* \"#utility.yul\":4748:4767   */\n  lt\n    /* \"#utility.yul\":4745:4924   */\n  iszero\n  tag_88\n  jumpi\n    /* \"#utility.yul\":4818:4827   */\n  dup5\n    /* \"#utility.yul\":4813:4816   */\n  dup10\n    /* \"#utility.yul\":4809:4828   */\n  add\n    /* \"#utility.yul\":4803:4829   */\n  mload\n    /* \"#utility.yul\":4861:4909   */\n  tag_89\n    /* \"#utility.yul\":4903:4907   */\n  0x1f\n    /* \"#utility.yul\":4895:4901   */\n  dup10\n    /* \"#utility.yul\":4891:4908   */\n  and\n    /* \"#utility.yul\":4880:4889   */\n  dup3\n    /* \"#utility.yul\":4861:4909   */\n  tag_26\n  jump\t// in\ntag_89:\n    /* \"#utility.yul\":4853:4859   */\n  dup4\n    /* \"#utility.yul\":4846:4910   */\n  sstore\n    /* \"#utility.yul\":4768:4924   */\n  pop\n    /* \"#utility.yul\":4745:4924   */\ntag_88:\n    /* \"#utility.yul\":4970:4971   */\n  0x01\n    /* \"#utility.yul\":4966:4967   */\n  0x02\n    /* \"#utility.yul\":4958:4964   */\n  dup9\n    /* \"#utility.yul\":4954:4968   */\n  mul\n    /* \"#utility.yul\":4950:4972   */\n  add\n    /* \"#utility.yul\":4944:4948   */\n  dup9\n    /* \"#utility.yul\":4937:4973   */\n  sstore\n    /* \"#utility.yul\":4372:4983   */\n  pop\n  pop\n  pop\n    /* \"#utility.yul\":4335:5222   */\ntag_80:\n  pop\n    /* \"#utility.yul\":3925:5228   */\n  pop\n  pop\n  pop\n    /* \"#utility.yul\":3833:5228   */\n  pop\n  pop\n  jump\t// out\n    /* \"aquo/aquopool.sol\":269:3216  contract POOLToken {... */\ntag_7:\n  dataSize(sub_0)\n  dup1\n  dataOffset(sub_0)\n  0x00\n  codecopy\n  0x00\n  return\nstop\n\nsub_0: assembly {\n        /* \"aquo/aquopool.sol\":269:3216  contract POOLToken {... */\n      mstore(0x40, 0x80)\n      callvalue\n      dup1\n      iszero\n      tag_1\n      jumpi\n      0x00\n      dup1\n      revert\n    tag_1:\n      pop\n      jumpi(tag_2, lt(calldatasize, 0x04))\n      shr(0xe0, calldataload(0x00))\n      dup1\n      0x8da5cb5b\n      gt\n      tag_13\n      jumpi\n      dup1\n      0x8da5cb5b\n      eq\n      tag_8\n      jumpi\n      dup1\n      0x95d89b41\n      eq\n      tag_9\n      jumpi\n      dup1\n      0xa0712d68\n      eq\n      tag_10\n      jumpi\n      dup1\n      0xe890e45e\n      eq\n      tag_11\n      jumpi\n      dup1\n      0xfb44ba24\n      eq\n      tag_12\n      jumpi\n      jump(tag_2)\n    tag_13:\n      dup1\n      0x0411b252\n      eq\n      tag_3\n      jumpi\n      dup1\n      0x06fdde03\n      eq\n      tag_4\n      jumpi\n      dup1\n      0x23b872dd\n      eq\n      tag_5\n      jumpi\n      dup1\n      0x27e235e3\n      eq\n      tag_6\n      jumpi\n      dup1\n      0x6ea667cd\n      eq\n      tag_7\n      jumpi\n    tag_2:\n      0x00\n      dup1\n      revert\n        /* \"aquo/aquopool.sol\":1393:2519  function transfer(address to, address rwaContractAddr, uint poolSlot, uint amount) public validAddress(slotToAddress[poolSlot]) {... */\n    tag_3:\n      tag_14\n      0x04\n      dup1\n      calldatasize\n      sub\n      dup2\n      add\n      swap1\n      tag_15\n      swap2\n      swap1\n      tag_16\n      jump\t// in\n    tag_15:\n      tag_17\n      jump\t// in\n    tag_14:\n      stop\n        /* \"aquo/aquopool.sol\":574:608  string public name = \"POOL Tokens\" */\n    tag_4:\n      tag_18\n      tag_19\n      jump\t// in\n    tag_18:\n      mload(0x40)\n      tag_20\n      swap2\n      swap1\n      tag_21\n      jump\t// in\n    tag_20:\n      mload(0x40)\n      dup1\n      swap2\n      sub\n      swap1\n      return\n        /* \"aquo/aquopool.sol\":2527:2739  function transferFrom(address from, address to, uint amount) public {... */\n    tag_5:\n      tag_22\n      0x04\n      dup1\n      calldatasize\n      sub\n      dup2\n      add\n      swap1\n      tag_23\n      swap2\n      swap1\n      tag_24\n      jump\t// in\n    tag_23:\n      tag_25\n      jump\t// in\n    tag_22:\n      stop\n        /* \"aquo/aquopool.sol\":322:362  mapping(address => uint) public balances */\n    tag_6:\n      tag_26\n      0x04\n      dup1\n      calldatasize\n      sub\n      dup2\n      add\n      swap1\n      tag_27\n      swap2\n      swap1\n      tag_28\n      jump\t// in\n    tag_27:\n      tag_29\n      jump\t// in\n    tag_26:\n      mload(0x40)\n      tag_30\n      swap2\n      swap1\n      tag_31\n      jump\t// in\n    tag_30:\n      mload(0x40)\n      dup1\n      swap2\n      sub\n      swap1\n      return\n        /* \"aquo/aquopool.sol\":454:478  uint public lastSlot = 0 */\n    tag_7:\n      tag_32\n      tag_33\n      jump\t// in\n    tag_32:\n      mload(0x40)\n      tag_34\n      swap2\n      swap1\n      tag_31\n      jump\t// in\n    tag_34:\n      mload(0x40)\n      dup1\n      swap2\n      sub\n      swap1\n      return\n        /* \"aquo/aquopool.sol\":295:315  address public owner */\n    tag_8:\n      tag_35\n      tag_36\n      jump\t// in\n    tag_35:\n      mload(0x40)\n      tag_37\n      swap2\n      swap1\n      tag_38\n      jump\t// in\n    tag_37:\n      mload(0x40)\n      dup1\n      swap2\n      sub\n      swap1\n      return\n        /* \"aquo/aquopool.sol\":615:644  string public symbol = \"POOL\" */\n    tag_9:\n      tag_39\n      tag_40\n      jump\t// in\n    tag_39:\n      mload(0x40)\n      tag_41\n      swap2\n      swap1\n      tag_21\n      jump\t// in\n    tag_41:\n      mload(0x40)\n      dup1\n      swap2\n      sub\n      swap1\n      return\n        /* \"aquo/aquopool.sol\":1216:1312  function mint(uint amount) public onlyOwner {... */\n    tag_10:\n      tag_42\n      0x04\n      dup1\n      calldatasize\n      sub\n      dup2\n      add\n      swap1\n      tag_43\n      swap2\n      swap1\n      tag_44\n      jump\t// in\n    tag_43:\n      tag_45\n      jump\t// in\n    tag_42:\n      stop\n        /* \"aquo/aquopool.sol\":369:414  mapping(uint => address) public slotToAddress */\n    tag_11:\n      tag_46\n      0x04\n      dup1\n      calldatasize\n      sub\n      dup2\n      add\n      swap1\n      tag_47\n      swap2\n      swap1\n      tag_44\n      jump\t// in\n    tag_47:\n      tag_48\n      jump\t// in\n    tag_46:\n      mload(0x40)\n      tag_49\n      swap2\n      swap1\n      tag_38\n      jump\t// in\n    tag_49:\n      mload(0x40)\n      dup1\n      swap2\n      sub\n      swap1\n      return\n        /* \"aquo/aquopool.sol\":2812:3213  function addSlot(address rwaAddress) public onlyOwner validAddress(rwaAddress) {... */\n    tag_12:\n      tag_50\n      0x04\n      dup1\n      calldatasize\n      sub\n      dup2\n      add\n      swap1\n      tag_51\n      swap2\n      swap1\n      tag_28\n      jump\t// in\n    tag_51:\n      tag_52\n      jump\t// in\n    tag_50:\n      stop\n        /* \"aquo/aquopool.sol\":1393:2519  function transfer(address to, address rwaContractAddr, uint poolSlot, uint amount) public validAddress(slotToAddress[poolSlot]) {... */\n    tag_17:\n        /* \"aquo/aquopool.sol\":1496:1509  slotToAddress */\n      0x02\n        /* \"aquo/aquopool.sol\":1496:1519  slotToAddress[poolSlot] */\n      0x00\n        /* \"aquo/aquopool.sol\":1510:1518  poolSlot */\n      dup4\n        /* \"aquo/aquopool.sol\":1496:1519  slotToAddress[poolSlot] */\n      dup2\n      mstore\n      0x20\n      add\n      swap1\n      dup2\n      mstore\n      0x20\n      add\n      0x00\n      keccak256\n      0x00\n      swap1\n      sload\n      swap1\n      0x0100\n      exp\n      swap1\n      div\n      0xffffffffffffffffffffffffffffffffffffffff\n      and\n        /* \"aquo/aquopool.sol\":1082:1083  0 */\n      0x00\n        /* \"aquo/aquopool.sol\":1066:1084  addr != address(0) */\n      0xffffffffffffffffffffffffffffffffffffffff\n      and\n        /* \"aquo/aquopool.sol\":1066:1070  addr */\n      dup2\n        /* \"aquo/aquopool.sol\":1066:1084  addr != address(0) */\n      0xffffffffffffffffffffffffffffffffffffffff\n      and\n      sub\n        /* \"aquo/aquopool.sol\":1058:1104  require(addr != address(0), \"Invalid address\") */\n      tag_54\n      jumpi\n      mload(0x40)\n      0x08c379a000000000000000000000000000000000000000000000000000000000\n      dup2\n      mstore\n      0x04\n      add\n      tag_55\n      swap1\n      tag_56\n      jump\t// in\n    tag_55:\n      mload(0x40)\n      dup1\n      swap2\n      sub\n      swap1\n      revert\n    tag_54:\n        /* \"aquo/aquopool.sol\":1567:1573  amount */\n      dup2\n        /* \"aquo/aquopool.sol\":1540:1548  balances */\n      0x01\n        /* \"aquo/aquopool.sol\":1540:1563  balances[address(this)] */\n      0x00\n        /* \"aquo/aquopool.sol\":1557:1561  this */\n      address\n        /* \"aquo/aquopool.sol\":1540:1563  balances[address(this)] */\n      0xffffffffffffffffffffffffffffffffffffffff\n      and\n      0xffffffffffffffffffffffffffffffffffffffff\n      and\n      dup2\n      mstore\n      0x20\n      add\n      swap1\n      dup2\n      mstore\n      0x20\n      add\n      0x00\n      keccak256\n      sload\n        /* \"aquo/aquopool.sol\":1540:1573  balances[address(this)] >= amount */\n      lt\n      iszero\n        /* \"aquo/aquopool.sol\":1532:1607  require(balances[address(this)] >= amount, \"Not enough tokens in contract\") */\n      tag_58\n      jumpi\n      mload(0x40)\n      0x08c379a000000000000000000000000000000000000000000000000000000000\n      dup2\n      mstore\n      0x04\n      add\n      tag_59\n      swap1\n      tag_60\n      jump\t// in\n    tag_59:\n      mload(0x40)\n      dup1\n      swap2\n      sub\n      swap1\n      revert\n    tag_58:\n        /* \"aquo/aquopool.sol\":1653:1668  rwaContractAddr */\n      dup4\n        /* \"aquo/aquopool.sol\":1626:1668  slotToAddress[poolSlot] == rwaContractAddr */\n      0xffffffffffffffffffffffffffffffffffffffff\n      and\n        /* \"aquo/aquopool.sol\":1626:1639  slotToAddress */\n      0x02\n        /* \"aquo/aquopool.sol\":1626:1649  slotToAddress[poolSlot] */\n      0x00\n        /* \"aquo/aquopool.sol\":1640:1648  poolSlot */\n      dup6\n        /* \"aquo/aquopool.sol\":1626:1649  slotToAddress[poolSlot] */\n      dup2\n      mstore\n      0x20\n      add\n      swap1\n      dup2\n      mstore\n      0x20\n      add\n      0x00\n      keccak256\n      0x00\n      swap1\n      sload\n      swap1\n      0x0100\n      exp\n      swap1\n      div\n      0xffffffffffffffffffffffffffffffffffffffff\n      and\n        /* \"aquo/aquopool.sol\":1626:1668  slotToAddress[poolSlot] == rwaContractAddr */\n      0xffffffffffffffffffffffffffffffffffffffff\n      and\n      eq\n        /* \"aquo/aquopool.sol\":1618:1704  require(slotToAddress[poolSlot] == rwaContractAddr, \"RWA address does not match slot\") */\n      tag_61\n      jumpi\n      mload(0x40)\n      0x08c379a000000000000000000000000000000000000000000000000000000000\n      dup2\n      mstore\n      0x04\n      add\n      tag_62\n      swap1\n      tag_63\n      jump\t// in\n    tag_62:\n      mload(0x40)\n      dup1\n      swap2\n      sub\n      swap1\n      revert\n    tag_61:\n        /* \"aquo/aquopool.sol\":1803:1804  0 */\n      0x00\n        /* \"aquo/aquopool.sol\":1768:1805  slotToAddress[poolSlot] != address(0) */\n      0xffffffffffffffffffffffffffffffffffffffff\n      and\n        /* \"aquo/aquopool.sol\":1768:1781  slotToAddress */\n      0x02\n        /* \"aquo/aquopool.sol\":1768:1791  slotToAddress[poolSlot] */\n      0x00\n        /* \"aquo/aquopool.sol\":1782:1790  poolSlot */\n      dup6\n        /* \"aquo/aquopool.sol\":1768:1791  slotToAddress[poolSlot] */\n      dup2\n      mstore\n      0x20\n      add\n      swap1\n      dup2\n      mstore\n      0x20\n      add\n      0x00\n      keccak256\n      0x00\n      swap1\n      sload\n      swap1\n      0x0100\n      exp\n      swap1\n      div\n      0xffffffffffffffffffffffffffffffffffffffff\n      and\n        /* \"aquo/aquopool.sol\":1768:1805  slotToAddress[poolSlot] != address(0) */\n      0xffffffffffffffffffffffffffffffffffffffff\n      and\n      sub\n        /* \"aquo/aquopool.sol\":1760:1829  require(slotToAddress[poolSlot] != address(0), \"Slot does not exist\") */\n      tag_64\n      jumpi\n      mload(0x40)\n      0x08c379a000000000000000000000000000000000000000000000000000000000\n      dup2\n      mstore\n      0x04\n      add\n      tag_65\n      swap1\n      tag_66\n      jump\t// in\n    tag_65:\n      mload(0x40)\n      dup1\n      swap2\n      sub\n      swap1\n      revert\n    tag_64:\n        /* \"aquo/aquopool.sol\":1952:1958  amount */\n      dup2\n        /* \"aquo/aquopool.sol\":1925:1933  balances */\n      0x01\n        /* \"aquo/aquopool.sol\":1925:1948  balances[address(this)] */\n      0x00\n        /* \"aquo/aquopool.sol\":1942:1946  this */\n      address\n        /* \"aquo/aquopool.sol\":1925:1948  balances[address(this)] */\n      0xffffffffffffffffffffffffffffffffffffffff\n      and\n      0xffffffffffffffffffffffffffffffffffffffff\n      and\n      dup2\n      mstore\n      0x20\n      add\n      swap1\n      dup2\n      mstore\n      0x20\n      add\n      0x00\n      keccak256\n      0x00\n        /* \"aquo/aquopool.sol\":1925:1958  balances[address(this)] -= amount */\n      dup3\n      dup3\n      sload\n      tag_67\n      swap2\n      swap1\n      tag_68\n      jump\t// in\n    tag_67:\n      swap3\n      pop\n      pop\n      dup2\n      swap1\n      sstore\n      pop\n        /* \"aquo/aquopool.sol\":1985:1991  amount */\n      dup2\n        /* \"aquo/aquopool.sol\":1969:1977  balances */\n      0x01\n        /* \"aquo/aquopool.sol\":1969:1981  balances[to] */\n      0x00\n        /* \"aquo/aquopool.sol\":1978:1980  to */\n      dup8\n        /* \"aquo/aquopool.sol\":1969:1981  balances[to] */\n      0xffffffffffffffffffffffffffffffffffffffff\n      and\n      0xffffffffffffffffffffffffffffffffffffffff\n      and\n      dup2\n      mstore\n      0x20\n      add\n      swap1\n      dup2\n      mstore\n      0x20\n      add\n      0x00\n      keccak256\n      0x00\n        /* \"aquo/aquopool.sol\":1969:1991  balances[to] += amount */\n      dup3\n      dup3\n      sload\n      tag_69\n      swap2\n      swap1\n      tag_70\n      jump\t// in\n    tag_69:\n      swap3\n      pop\n      pop\n      dup2\n      swap1\n      sstore\n      pop\n        /* \"aquo/aquopool.sol\":2184:2202  IRWAToken rwaToken */\n      0x00\n        /* \"aquo/aquopool.sol\":2215:2230  rwaContractAddr */\n      dup5\n        /* \"aquo/aquopool.sol\":2184:2231  IRWAToken rwaToken = IRWAToken(rwaContractAddr) */\n      swap1\n      pop\n        /* \"aquo/aquopool.sol\":2463:2471  rwaToken */\n      dup1\n        /* \"aquo/aquopool.sol\":2463:2484  rwaToken.transferFrom */\n      0xffffffffffffffffffffffffffffffffffffffff\n      and\n      0x23b872dd\n        /* \"aquo/aquopool.sol\":2485:2487  to */\n      dup8\n        /* \"aquo/aquopool.sol\":2497:2501  this */\n      address\n        /* \"aquo/aquopool.sol\":2504:2510  amount */\n      dup7\n        /* \"aquo/aquopool.sol\":2463:2511  rwaToken.transferFrom(to, address(this), amount) */\n      mload(0x40)\n      dup5\n      0xffffffff\n      and\n      0xe0\n      shl\n      dup2\n      mstore\n      0x04\n      add\n      tag_71\n      swap4\n      swap3\n      swap2\n      swap1\n      tag_72\n      jump\t// in\n    tag_71:\n      0x00\n      mload(0x40)\n      dup1\n      dup4\n      sub\n      dup2\n      0x00\n      dup8\n      dup1\n      extcodesize\n      iszero\n      dup1\n      iszero\n      tag_73\n      jumpi\n      0x00\n      dup1\n      revert\n    tag_73:\n      pop\n      gas\n      call\n      iszero\n      dup1\n      iszero\n      tag_75\n      jumpi\n      returndatasize\n      0x00\n      dup1\n      returndatacopy\n      revert(0x00, returndatasize)\n    tag_75:\n      pop\n      pop\n      pop\n      pop\n        /* \"aquo/aquopool.sol\":1521:2519  {... */\n      pop\n        /* \"aquo/aquopool.sol\":1393:2519  function transfer(address to, address rwaContractAddr, uint poolSlot, uint amount) public validAddress(slotToAddress[poolSlot]) {... */\n      pop\n      pop\n      pop\n      pop\n      pop\n      jump\t// out\n        /* \"aquo/aquopool.sol\":574:608  string public name = \"POOL Tokens\" */\n    tag_19:\n      0x04\n      dup1\n      sload\n      tag_76\n      swap1\n      tag_77\n      jump\t// in\n    tag_76:\n      dup1\n      0x1f\n      add\n      0x20\n      dup1\n      swap2\n      div\n      mul\n      0x20\n      add\n      mload(0x40)\n      swap1\n      dup2\n      add\n      0x40\n      mstore\n      dup1\n      swap3\n      swap2\n      swap1\n      dup2\n      dup2\n      mstore\n      0x20\n      add\n      dup3\n      dup1\n      sload\n      tag_78\n      swap1\n      tag_77\n      jump\t// in\n    tag_78:\n      dup1\n      iszero\n      tag_79\n      jumpi\n      dup1\n      0x1f\n      lt\n      tag_80\n      jumpi\n      0x0100\n      dup1\n      dup4\n      sload\n      div\n      mul\n      dup4\n      mstore\n      swap2\n      0x20\n      add\n      swap2\n      jump(tag_79)\n    tag_80:\n      dup3\n      add\n      swap2\n      swap1\n      0x00\n      mstore\n      keccak256(0x00, 0x20)\n      swap1\n    tag_81:\n      dup2\n      sload\n      dup2\n      mstore\n      swap1\n      0x01\n      add\n      swap1\n      0x20\n      add\n      dup1\n      dup4\n      gt\n      tag_81\n      jumpi\n      dup3\n      swap1\n      sub\n      0x1f\n      and\n      dup3\n      add\n      swap2\n    tag_79:\n      pop\n      pop\n      pop\n      pop\n      pop\n      dup2\n      jump\t// out\n        /* \"aquo/aquopool.sol\":2527:2739  function transferFrom(address from, address to, uint amount) public {... */\n    tag_25:\n        /* \"aquo/aquopool.sol\":2632:2638  amount */\n      dup1\n        /* \"aquo/aquopool.sol\":2614:2622  balances */\n      0x01\n        /* \"aquo/aquopool.sol\":2614:2628  balances[from] */\n      0x00\n        /* \"aquo/aquopool.sol\":2623:2627  from */\n      dup6\n        /* \"aquo/aquopool.sol\":2614:2628  balances[from] */\n      0xffffffffffffffffffffffffffffffffffffffff\n      and\n      0xffffffffffffffffffffffffffffffffffffffff\n      and\n      dup2\n      mstore\n      0x20\n      add\n      swap1\n      dup2\n      mstore\n      0x20\n      add\n      0x00\n      keccak256\n      sload\n        /* \"aquo/aquopool.sol\":2614:2638  balances[from] >= amount */\n      lt\n      iszero\n        /* \"aquo/aquopool.sol\":2606:2663  require(balances[from] >= amount, \"Insufficient balance\") */\n      tag_83\n      jumpi\n      mload(0x40)\n      0x08c379a000000000000000000000000000000000000000000000000000000000\n      dup2\n      mstore\n      0x04\n      add\n      tag_84\n      swap1\n      tag_85\n      jump\t// in\n    tag_84:\n      mload(0x40)\n      dup1\n      swap2\n      sub\n      swap1\n      revert\n    tag_83:\n        /* \"aquo/aquopool.sol\":2692:2698  amount */\n      dup1\n        /* \"aquo/aquopool.sol\":2674:2682  balances */\n      0x01\n        /* \"aquo/aquopool.sol\":2674:2688  balances[from] */\n      0x00\n        /* \"aquo/aquopool.sol\":2683:2687  from */\n      dup6\n        /* \"aquo/aquopool.sol\":2674:2688  balances[from] */\n      0xffffffffffffffffffffffffffffffffffffffff\n      and\n      0xffffffffffffffffffffffffffffffffffffffff\n      and\n      dup2\n      mstore\n      0x20\n      add\n      swap1\n      dup2\n      mstore\n      0x20\n      add\n      0x00\n      keccak256\n      0x00\n        /* \"aquo/aquopool.sol\":2674:2698  balances[from] -= amount */\n      dup3\n      dup3\n      sload\n      tag_86\n      swap2\n      swap1\n      tag_68\n      jump\t// in\n    tag_86:\n      swap3\n      pop\n      pop\n      dup2\n      swap1\n      sstore\n      pop\n        /* \"aquo/aquopool.sol\":2725:2731  amount */\n      dup1\n        /* \"aquo/aquopool.sol\":2709:2717  balances */\n      0x01\n        /* \"aquo/aquopool.sol\":2709:2721  balances[to] */\n      0x00\n        /* \"aquo/aquopool.sol\":2718:2720  to */\n      dup5\n        /* \"aquo/aquopool.sol\":2709:2721  balances[to] */\n      0xffffffffffffffffffffffffffffffffffffffff\n      and\n      0xffffffffffffffffffffffffffffffffffffffff\n      and\n      dup2\n      mstore\n      0x20\n      add\n      swap1\n      dup2\n      mstore\n      0x20\n      add\n      0x00\n      keccak256\n      0x00\n        /* \"aquo/aquopool.sol\":2709:2731  balances[to] += amount */\n      dup3\n      dup3\n      sload\n      tag_87\n      swap2\n      swap1\n      tag_70\n      jump\t// in\n    tag_87:\n      swap3\n      pop\n      pop\n      dup2\n      swap1\n      sstore\n      pop\n        /* \"aquo/aquopool.sol\":2527:2739  function transferFrom(address from, address to, uint amount) public {... */\n      pop\n      pop\n      pop\n      jump\t// out\n        /* \"aquo/aquopool.sol\":322:362  mapping(address => uint) public balances */\n    tag_29:\n      mstore(0x20, 0x01)\n      dup1\n      0x00\n      mstore\n      keccak256(0x00, 0x40)\n      0x00\n      swap2\n      pop\n      swap1\n      pop\n      sload\n      dup2\n      jump\t// out\n        /* \"aquo/aquopool.sol\":454:478  uint public lastSlot = 0 */\n    tag_33:\n      sload(0x03)\n      dup2\n      jump\t// out\n        /* \"aquo/aquopool.sol\":295:315  address public owner */\n    tag_36:\n      0x00\n      dup1\n      sload\n      swap1\n      0x0100\n      exp\n      swap1\n      div\n      0xffffffffffffffffffffffffffffffffffffffff\n      and\n      dup2\n      jump\t// out\n        /* \"aquo/aquopool.sol\":615:644  string public symbol = \"POOL\" */\n    tag_40:\n      0x05\n      dup1\n      sload\n      tag_88\n      swap1\n      tag_77\n      jump\t// in\n    tag_88:\n      dup1\n      0x1f\n      add\n      0x20\n      dup1\n      swap2\n      div\n      mul\n      0x20\n      add\n      mload(0x40)\n      swap1\n      dup2\n      add\n      0x40\n      mstore\n      dup1\n      swap3\n      swap2\n      swap1\n      dup2\n      dup2\n      mstore\n      0x20\n      add\n      dup3\n      dup1\n      sload\n      tag_89\n      swap1\n      tag_77\n      jump\t// in\n    tag_89:\n      dup1\n      iszero\n      tag_90\n      jumpi\n      dup1\n      0x1f\n      lt\n      tag_91\n      jumpi\n      0x0100\n      dup1\n      dup4\n      sload\n      div\n      mul\n      dup4\n      mstore\n      swap2\n      0x20\n      add\n      swap2\n      jump(tag_90)\n    tag_91:\n      dup3\n      add\n      swap2\n      swap1\n      0x00\n      mstore\n      keccak256(0x00, 0x20)\n      swap1\n    tag_92:\n      dup2\n      sload\n      dup2\n      mstore\n      swap1\n      0x01\n      add\n      swap1\n      0x20\n      add\n      dup1\n      dup4\n      gt\n      tag_92\n      jumpi\n      dup3\n      swap1\n      sub\n      0x1f\n      and\n      dup3\n      add\n      swap2\n    tag_90:\n      pop\n      pop\n      pop\n      pop\n      pop\n      dup2\n      jump\t// out\n        /* \"aquo/aquopool.sol\":1216:1312  function mint(uint amount) public onlyOwner {... */\n    tag_45:\n        /* \"aquo/aquopool.sol\":883:888  owner */\n      0x00\n      dup1\n      sload\n      swap1\n      0x0100\n      exp\n      swap1\n      div\n      0xffffffffffffffffffffffffffffffffffffffff\n      and\n        /* \"aquo/aquopool.sol\":869:888  msg.sender == owner */\n      0xffffffffffffffffffffffffffffffffffffffff\n      and\n        /* \"aquo/aquopool.sol\":869:879  msg.sender */\n      caller\n        /* \"aquo/aquopool.sol\":869:888  msg.sender == owner */\n      0xffffffffffffffffffffffffffffffffffffffff\n      and\n      eq\n        /* \"aquo/aquopool.sol\":861:940  require(msg.sender == owner, \"Only the contract owner can perform this action\") */\n      tag_94\n      jumpi\n      mload(0x40)\n      0x08c379a000000000000000000000000000000000000000000000000000000000\n      dup2\n      mstore\n      0x04\n      add\n      tag_95\n      swap1\n      tag_96\n      jump\t// in\n    tag_95:\n      mload(0x40)\n      dup1\n      swap2\n      sub\n      swap1\n      revert\n    tag_94:\n        /* \"aquo/aquopool.sol\":1298:1304  amount */\n      dup1\n        /* \"aquo/aquopool.sol\":1271:1279  balances */\n      0x01\n        /* \"aquo/aquopool.sol\":1271:1294  balances[address(this)] */\n      0x00\n        /* \"aquo/aquopool.sol\":1288:1292  this */\n      address\n        /* \"aquo/aquopool.sol\":1271:1294  balances[address(this)] */\n      0xffffffffffffffffffffffffffffffffffffffff\n      and\n      0xffffffffffffffffffffffffffffffffffffffff\n      and\n      dup2\n      mstore\n      0x20\n      add\n      swap1\n      dup2\n      mstore\n      0x20\n      add\n      0x00\n      keccak256\n      0x00\n        /* \"aquo/aquopool.sol\":1271:1304  balances[address(this)] += amount */\n      dup3\n      dup3\n      sload\n      tag_98\n      swap2\n      swap1\n      tag_70\n      jump\t// in\n    tag_98:\n      swap3\n      pop\n      pop\n      dup2\n      swap1\n      sstore\n      pop\n        /* \"aquo/aquopool.sol\":1216:1312  function mint(uint amount) public onlyOwner {... */\n      pop\n      jump\t// out\n        /* \"aquo/aquopool.sol\":369:414  mapping(uint => address) public slotToAddress */\n    tag_48:\n      mstore(0x20, 0x02)\n      dup1\n      0x00\n      mstore\n      keccak256(0x00, 0x40)\n      0x00\n      swap2\n      pop\n      sload\n      swap1\n      0x0100\n      exp\n      swap1\n      div\n      0xffffffffffffffffffffffffffffffffffffffff\n      and\n      dup2\n      jump\t// out\n        /* \"aquo/aquopool.sol\":2812:3213  function addSlot(address rwaAddress) public onlyOwner validAddress(rwaAddress) {... */\n    tag_52:\n        /* \"aquo/aquopool.sol\":883:888  owner */\n      0x00\n      dup1\n      sload\n      swap1\n      0x0100\n      exp\n      swap1\n      div\n      0xffffffffffffffffffffffffffffffffffffffff\n      and\n        /* \"aquo/aquopool.sol\":869:888  msg.sender == owner */\n      0xffffffffffffffffffffffffffffffffffffffff\n      and\n        /* \"aquo/aquopool.sol\":869:879  msg.sender */\n      caller\n        /* \"aquo/aquopool.sol\":869:888  msg.sender == owner */\n      0xffffffffffffffffffffffffffffffffffffffff\n      and\n      eq\n        /* \"aquo/aquopool.sol\":861:940  require(msg.sender == owner, \"Only the contract owner can perform this action\") */\n      tag_100\n      jumpi\n      mload(0x40)\n      0x08c379a000000000000000000000000000000000000000000000000000000000\n      dup2\n      mstore\n      0x04\n      add\n      tag_101\n      swap1\n      tag_96\n      jump\t// in\n    tag_101:\n      mload(0x40)\n      dup1\n      swap2\n      sub\n      swap1\n      revert\n    tag_100:\n        /* \"aquo/aquopool.sol\":2879:2889  rwaAddress */\n      dup1\n        /* \"aquo/aquopool.sol\":1082:1083  0 */\n      0x00\n        /* \"aquo/aquopool.sol\":1066:1084  addr != address(0) */\n      0xffffffffffffffffffffffffffffffffffffffff\n      and\n        /* \"aquo/aquopool.sol\":1066:1070  addr */\n      dup2\n        /* \"aquo/aquopool.sol\":1066:1084  addr != address(0) */\n      0xffffffffffffffffffffffffffffffffffffffff\n      and\n      sub\n        /* \"aquo/aquopool.sol\":1058:1104  require(addr != address(0), \"Invalid address\") */\n      tag_103\n      jumpi\n      mload(0x40)\n      0x08c379a000000000000000000000000000000000000000000000000000000000\n      dup2\n      mstore\n      0x04\n      add\n      tag_104\n      swap1\n      tag_56\n      jump\t// in\n    tag_104:\n      mload(0x40)\n      dup1\n      swap2\n      sub\n      swap1\n      revert\n    tag_103:\n        /* \"aquo/aquopool.sol\":2902:2914  uint newSlot */\n      0x00\n        /* \"aquo/aquopool.sol\":2928:2929  1 */\n      0x01\n        /* \"aquo/aquopool.sol\":2917:2925  lastSlot */\n      sload(0x03)\n        /* \"aquo/aquopool.sol\":2917:2929  lastSlot + 1 */\n      tag_106\n      swap2\n      swap1\n      tag_70\n      jump\t// in\n    tag_106:\n        /* \"aquo/aquopool.sol\":2902:2929  uint newSlot = lastSlot + 1 */\n      swap1\n      pop\n        /* \"aquo/aquopool.sol\":2965:2975  rwaAddress */\n      dup3\n        /* \"aquo/aquopool.sol\":2940:2953  slotToAddress */\n      0x02\n        /* \"aquo/aquopool.sol\":2940:2962  slotToAddress[newSlot] */\n      0x00\n        /* \"aquo/aquopool.sol\":2954:2961  newSlot */\n      dup4\n        /* \"aquo/aquopool.sol\":2940:2962  slotToAddress[newSlot] */\n      dup2\n      mstore\n      0x20\n      add\n      swap1\n      dup2\n      mstore\n      0x20\n      add\n      0x00\n      keccak256\n      0x00\n        /* \"aquo/aquopool.sol\":2940:2975  slotToAddress[newSlot] = rwaAddress */\n      0x0100\n      exp\n      dup2\n      sload\n      dup2\n      0xffffffffffffffffffffffffffffffffffffffff\n      mul\n      not\n      and\n      swap1\n      dup4\n      0xffffffffffffffffffffffffffffffffffffffff\n      and\n      mul\n      or\n      swap1\n      sstore\n      pop\n        /* \"aquo/aquopool.sol\":2986:3004  IRWAToken rwaToken */\n      0x00\n        /* \"aquo/aquopool.sol\":3017:3027  rwaAddress */\n      dup4\n        /* \"aquo/aquopool.sol\":2986:3028  IRWAToken rwaToken = IRWAToken(rwaAddress) */\n      swap1\n      pop\n        /* \"aquo/aquopool.sol\":3091:3099  rwaToken */\n      dup1\n        /* \"aquo/aquopool.sol\":3091:3114  rwaToken.updatePoolSlot */\n      0xffffffffffffffffffffffffffffffffffffffff\n      and\n      0xd5783659\n        /* \"aquo/aquopool.sol\":3115:3122  newSlot */\n      dup4\n        /* \"aquo/aquopool.sol\":3091:3123  rwaToken.updatePoolSlot(newSlot) */\n      mload(0x40)\n      dup3\n      0xffffffff\n      and\n      0xe0\n      shl\n      dup2\n      mstore\n      0x04\n      add\n      tag_107\n      swap2\n      swap1\n      tag_31\n      jump\t// in\n    tag_107:\n      0x00\n      mload(0x40)\n      dup1\n      dup4\n      sub\n      dup2\n      0x00\n      dup8\n      dup1\n      extcodesize\n      iszero\n      dup1\n      iszero\n      tag_108\n      jumpi\n      0x00\n      dup1\n      revert\n    tag_108:\n      pop\n      gas\n      call\n      iszero\n      dup1\n      iszero\n      tag_110\n      jumpi\n      returndatasize\n      0x00\n      dup1\n      returndatacopy\n      revert(0x00, returndatasize)\n    tag_110:\n      pop\n      pop\n      pop\n      pop\n        /* \"aquo/aquopool.sol\":3146:3153  newSlot */\n      dup2\n        /* \"aquo/aquopool.sol\":3135:3143  lastSlot */\n      0x03\n        /* \"aquo/aquopool.sol\":3135:3153  lastSlot = newSlot */\n      dup2\n      swap1\n      sstore\n      pop\n        /* \"aquo/aquopool.sol\":2891:3213  {... */\n      pop\n      pop\n        /* \"aquo/aquopool.sol\":951:952  _ */\n      pop\n        /* \"aquo/aquopool.sol\":2812:3213  function addSlot(address rwaAddress) public onlyOwner validAddress(rwaAddress) {... */\n      pop\n      jump\t// out\n        /* \"#utility.yul\":88:205   */\n    tag_112:\n        /* \"#utility.yul\":197:198   */\n      0x00\n        /* \"#utility.yul\":194:195   */\n      dup1\n        /* \"#utility.yul\":187:199   */\n      revert\n        /* \"#utility.yul\":334:460   */\n    tag_114:\n        /* \"#utility.yul\":371:378   */\n      0x00\n        /* \"#utility.yul\":411:453   */\n      0xffffffffffffffffffffffffffffffffffffffff\n        /* \"#utility.yul\":404:409   */\n      dup3\n        /* \"#utility.yul\":400:454   */\n      and\n        /* \"#utility.yul\":389:454   */\n      swap1\n      pop\n        /* \"#utility.yul\":334:460   */\n      swap2\n      swap1\n      pop\n      jump\t// out\n        /* \"#utility.yul\":466:562   */\n    tag_115:\n        /* \"#utility.yul\":503:510   */\n      0x00\n        /* \"#utility.yul\":532:556   */\n      tag_148\n        /* \"#utility.yul\":550:555   */\n      dup3\n        /* \"#utility.yul\":532:556   */\n      tag_114\n      jump\t// in\n    tag_148:\n        /* \"#utility.yul\":521:556   */\n      swap1\n      pop\n        /* \"#utility.yul\":466:562   */\n      swap2\n      swap1\n      pop\n      jump\t// out\n        /* \"#utility.yul\":568:690   */\n    tag_116:\n        /* \"#utility.yul\":641:665   */\n      tag_150\n        /* \"#utility.yul\":659:664   */\n      dup2\n        /* \"#utility.yul\":641:665   */\n      tag_115\n      jump\t// in\n    tag_150:\n        /* \"#utility.yul\":634:639   */\n      dup2\n        /* \"#utility.yul\":631:666   */\n      eq\n        /* \"#utility.yul\":621:684   */\n      tag_151\n      jumpi\n        /* \"#utility.yul\":680:681   */\n      0x00\n        /* \"#utility.yul\":677:678   */\n      dup1\n        /* \"#utility.yul\":670:682   */\n      revert\n        /* \"#utility.yul\":621:684   */\n    tag_151:\n        /* \"#utility.yul\":568:690   */\n      pop\n      jump\t// out\n        /* \"#utility.yul\":696:835   */\n    tag_117:\n        /* \"#utility.yul\":742:747   */\n      0x00\n        /* \"#utility.yul\":780:786   */\n      dup2\n        /* \"#utility.yul\":767:787   */\n      calldataload\n        /* \"#utility.yul\":758:787   */\n      swap1\n      pop\n        /* \"#utility.yul\":796:829   */\n      tag_153\n        /* \"#utility.yul\":823:828   */\n      dup2\n        /* \"#utility.yul\":796:829   */\n      tag_116\n      jump\t// in\n    tag_153:\n        /* \"#utility.yul\":696:835   */\n      swap3\n      swap2\n      pop\n      pop\n      jump\t// out\n        /* \"#utility.yul\":841:918   */\n    tag_118:\n        /* \"#utility.yul\":878:885   */\n      0x00\n        /* \"#utility.yul\":907:912   */\n      dup2\n        /* \"#utility.yul\":896:912   */\n      swap1\n      pop\n        /* \"#utility.yul\":841:918   */\n      swap2\n      swap1\n      pop\n      jump\t// out\n        /* \"#utility.yul\":924:1046   */\n    tag_119:\n        /* \"#utility.yul\":997:1021   */\n      tag_156\n        /* \"#utility.yul\":1015:1020   */\n      dup2\n        /* \"#utility.yul\":997:1021   */\n      tag_118\n      jump\t// in\n    tag_156:\n        /* \"#utility.yul\":990:995   */\n      dup2\n        /* \"#utility.yul\":987:1022   */\n      eq\n        /* \"#utility.yul\":977:1040   */\n      tag_157\n      jumpi\n        /* \"#utility.yul\":1036:1037   */\n      0x00\n        /* \"#utility.yul\":1033:1034   */\n      dup1\n        /* \"#utility.yul\":1026:1038   */\n      revert\n        /* \"#utility.yul\":977:1040   */\n    tag_157:\n        /* \"#utility.yul\":924:1046   */\n      pop\n      jump\t// out\n        /* \"#utility.yul\":1052:1191   */\n    tag_120:\n        /* \"#utility.yul\":1098:1103   */\n      0x00\n        /* \"#utility.yul\":1136:1142   */\n      dup2\n        /* \"#utility.yul\":1123:1143   */\n      calldataload\n        /* \"#utility.yul\":1114:1143   */\n      swap1\n      pop\n        /* \"#utility.yul\":1152:1185   */\n      tag_159\n        /* \"#utility.yul\":1179:1184   */\n      dup2\n        /* \"#utility.yul\":1152:1185   */\n      tag_119\n      jump\t// in\n    tag_159:\n        /* \"#utility.yul\":1052:1191   */\n      swap3\n      swap2\n      pop\n      pop\n      jump\t// out\n        /* \"#utility.yul\":1197:1962   */\n    tag_16:\n        /* \"#utility.yul\":1283:1289   */\n      0x00\n        /* \"#utility.yul\":1291:1297   */\n      dup1\n        /* \"#utility.yul\":1299:1305   */\n      0x00\n        /* \"#utility.yul\":1307:1313   */\n      dup1\n        /* \"#utility.yul\":1356:1359   */\n      0x80\n        /* \"#utility.yul\":1344:1353   */\n      dup6\n        /* \"#utility.yul\":1335:1342   */\n      dup8\n        /* \"#utility.yul\":1331:1354   */\n      sub\n        /* \"#utility.yul\":1327:1360   */\n      slt\n        /* \"#utility.yul\":1324:1444   */\n      iszero\n      tag_161\n      jumpi\n        /* \"#utility.yul\":1363:1442   */\n      tag_162\n      tag_112\n      jump\t// in\n    tag_162:\n        /* \"#utility.yul\":1324:1444   */\n    tag_161:\n        /* \"#utility.yul\":1483:1484   */\n      0x00\n        /* \"#utility.yul\":1508:1561   */\n      tag_163\n        /* \"#utility.yul\":1553:1560   */\n      dup8\n        /* \"#utility.yul\":1544:1550   */\n      dup3\n        /* \"#utility.yul\":1533:1542   */\n      dup9\n        /* \"#utility.yul\":1529:1551   */\n      add\n        /* \"#utility.yul\":1508:1561   */\n      tag_117\n      jump\t// in\n    tag_163:\n        /* \"#utility.yul\":1498:1561   */\n      swap5\n      pop\n        /* \"#utility.yul\":1454:1571   */\n      pop\n        /* \"#utility.yul\":1610:1612   */\n      0x20\n        /* \"#utility.yul\":1636:1689   */\n      tag_164\n        /* \"#utility.yul\":1681:1688   */\n      dup8\n        /* \"#utility.yul\":1672:1678   */\n      dup3\n        /* \"#utility.yul\":1661:1670   */\n      dup9\n        /* \"#utility.yul\":1657:1679   */\n      add\n        /* \"#utility.yul\":1636:1689   */\n      tag_117\n      jump\t// in\n    tag_164:\n        /* \"#utility.yul\":1626:1689   */\n      swap4\n      pop\n        /* \"#utility.yul\":1581:1699   */\n      pop\n        /* \"#utility.yul\":1738:1740   */\n      0x40\n        /* \"#utility.yul\":1764:1817   */\n      tag_165\n        /* \"#utility.yul\":1809:1816   */\n      dup8\n        /* \"#utility.yul\":1800:1806   */\n      dup3\n        /* \"#utility.yul\":1789:1798   */\n      dup9\n        /* \"#utility.yul\":1785:1807   */\n      add\n        /* \"#utility.yul\":1764:1817   */\n      tag_120\n      jump\t// in\n    tag_165:\n        /* \"#utility.yul\":1754:1817   */\n      swap3\n      pop\n        /* \"#utility.yul\":1709:1827   */\n      pop\n        /* \"#utility.yul\":1866:1868   */\n      0x60\n        /* \"#utility.yul\":1892:1945   */\n      tag_166\n        /* \"#utility.yul\":1937:1944   */\n      dup8\n        /* \"#utility.yul\":1928:1934   */\n      dup3\n        /* \"#utility.yul\":1917:1926   */\n      dup9\n        /* \"#utility.yul\":1913:1935   */\n      add\n        /* \"#utility.yul\":1892:1945   */\n      tag_120\n      jump\t// in\n    tag_166:\n        /* \"#utility.yul\":1882:1945   */\n      swap2\n      pop\n        /* \"#utility.yul\":1837:1955   */\n      pop\n        /* \"#utility.yul\":1197:1962   */\n      swap3\n      swap6\n      swap2\n      swap5\n      pop\n      swap3\n      pop\n      jump\t// out\n        /* \"#utility.yul\":1968:2067   */\n    tag_121:\n        /* \"#utility.yul\":2020:2026   */\n      0x00\n        /* \"#utility.yul\":2054:2059   */\n      dup2\n        /* \"#utility.yul\":2048:2060   */\n      mload\n        /* \"#utility.yul\":2038:2060   */\n      swap1\n      pop\n        /* \"#utility.yul\":1968:2067   */\n      swap2\n      swap1\n      pop\n      jump\t// out\n        /* \"#utility.yul\":2073:2242   */\n    tag_122:\n        /* \"#utility.yul\":2157:2168   */\n      0x00\n        /* \"#utility.yul\":2191:2197   */\n      dup3\n        /* \"#utility.yul\":2186:2189   */\n      dup3\n        /* \"#utility.yul\":2179:2198   */\n      mstore\n        /* \"#utility.yul\":2231:2235   */\n      0x20\n        /* \"#utility.yul\":2226:2229   */\n      dup3\n        /* \"#utility.yul\":2222:2236   */\n      add\n        /* \"#utility.yul\":2207:2236   */\n      swap1\n      pop\n        /* \"#utility.yul\":2073:2242   */\n      swap3\n      swap2\n      pop\n      pop\n      jump\t// out\n        /* \"#utility.yul\":2248:2494   */\n    tag_123:\n        /* \"#utility.yul\":2329:2330   */\n      0x00\n        /* \"#utility.yul\":2339:2452   */\n    tag_170:\n        /* \"#utility.yul\":2353:2359   */\n      dup4\n        /* \"#utility.yul\":2350:2351   */\n      dup2\n        /* \"#utility.yul\":2347:2360   */\n      lt\n        /* \"#utility.yul\":2339:2452   */\n      iszero\n      tag_172\n      jumpi\n        /* \"#utility.yul\":2438:2439   */\n      dup1\n        /* \"#utility.yul\":2433:2436   */\n      dup3\n        /* \"#utility.yul\":2429:2440   */\n      add\n        /* \"#utility.yul\":2423:2441   */\n      mload\n        /* \"#utility.yul\":2419:2420   */\n      dup2\n        /* \"#utility.yul\":2414:2417   */\n      dup5\n        /* \"#utility.yul\":2410:2421   */\n      add\n        /* \"#utility.yul\":2403:2442   */\n      mstore\n        /* \"#utility.yul\":2375:2377   */\n      0x20\n        /* \"#utility.yul\":2372:2373   */\n      dup2\n        /* \"#utility.yul\":2368:2378   */\n      add\n        /* \"#utility.yul\":2363:2378   */\n      swap1\n      pop\n        /* \"#utility.yul\":2339:2452   */\n      jump(tag_170)\n    tag_172:\n        /* \"#utility.yul\":2486:2487   */\n      0x00\n        /* \"#utility.yul\":2477:2483   */\n      dup5\n        /* \"#utility.yul\":2472:2475   */\n      dup5\n        /* \"#utility.yul\":2468:2484   */\n      add\n        /* \"#utility.yul\":2461:2488   */\n      mstore\n        /* \"#utility.yul\":2310:2494   */\n      pop\n        /* \"#utility.yul\":2248:2494   */\n      pop\n      pop\n      pop\n      jump\t// out\n        /* \"#utility.yul\":2500:2602   */\n    tag_124:\n        /* \"#utility.yul\":2541:2547   */\n      0x00\n        /* \"#utility.yul\":2592:2594   */\n      0x1f\n        /* \"#utility.yul\":2588:2595   */\n      not\n        /* \"#utility.yul\":2583:2585   */\n      0x1f\n        /* \"#utility.yul\":2576:2581   */\n      dup4\n        /* \"#utility.yul\":2572:2586   */\n      add\n        /* \"#utility.yul\":2568:2596   */\n      and\n        /* \"#utility.yul\":2558:2596   */\n      swap1\n      pop\n        /* \"#utility.yul\":2500:2602   */\n      swap2\n      swap1\n      pop\n      jump\t// out\n        /* \"#utility.yul\":2608:2985   */\n    tag_125:\n        /* \"#utility.yul\":2696:2699   */\n      0x00\n        /* \"#utility.yul\":2724:2763   */\n      tag_175\n        /* \"#utility.yul\":2757:2762   */\n      dup3\n        /* \"#utility.yul\":2724:2763   */\n      tag_121\n      jump\t// in\n    tag_175:\n        /* \"#utility.yul\":2779:2850   */\n      tag_176\n        /* \"#utility.yul\":2843:2849   */\n      dup2\n        /* \"#utility.yul\":2838:2841   */\n      dup6\n        /* \"#utility.yul\":2779:2850   */\n      tag_122\n      jump\t// in\n    tag_176:\n        /* \"#utility.yul\":2772:2850   */\n      swap4\n      pop\n        /* \"#utility.yul\":2859:2924   */\n      tag_177\n        /* \"#utility.yul\":2917:2923   */\n      dup2\n        /* \"#utility.yul\":2912:2915   */\n      dup6\n        /* \"#utility.yul\":2905:2909   */\n      0x20\n        /* \"#utility.yul\":2898:2903   */\n      dup7\n        /* \"#utility.yul\":2894:2910   */\n      add\n        /* \"#utility.yul\":2859:2924   */\n      tag_123\n      jump\t// in\n    tag_177:\n        /* \"#utility.yul\":2949:2978   */\n      tag_178\n        /* \"#utility.yul\":2971:2977   */\n      dup2\n        /* \"#utility.yul\":2949:2978   */\n      tag_124\n      jump\t// in\n    tag_178:\n        /* \"#utility.yul\":2944:2947   */\n      dup5\n        /* \"#utility.yul\":2940:2979   */\n      add\n        /* \"#utility.yul\":2933:2979   */\n      swap2\n      pop\n        /* \"#utility.yul\":2700:2985   */\n      pop\n        /* \"#utility.yul\":2608:2985   */\n      swap3\n      swap2\n      pop\n      pop\n      jump\t// out\n        /* \"#utility.yul\":2991:3304   */\n    tag_21:\n        /* \"#utility.yul\":3104:3108   */\n      0x00\n        /* \"#utility.yul\":3142:3144   */\n      0x20\n        /* \"#utility.yul\":3131:3140   */\n      dup3\n        /* \"#utility.yul\":3127:3145   */\n      add\n        /* \"#utility.yul\":3119:3145   */\n      swap1\n      pop\n        /* \"#utility.yul\":3191:3200   */\n      dup2\n        /* \"#utility.yul\":3185:3189   */\n      dup2\n        /* \"#utility.yul\":3181:3201   */\n      sub\n        /* \"#utility.yul\":3177:3178   */\n      0x00\n        /* \"#utility.yul\":3166:3175   */\n      dup4\n        /* \"#utility.yul\":3162:3179   */\n      add\n        /* \"#utility.yul\":3155:3202   */\n      mstore\n        /* \"#utility.yul\":3219:3297   */\n      tag_180\n        /* \"#utility.yul\":3292:3296   */\n      dup2\n        /* \"#utility.yul\":3283:3289   */\n      dup5\n        /* \"#utility.yul\":3219:3297   */\n      tag_125\n      jump\t// in\n    tag_180:\n        /* \"#utility.yul\":3211:3297   */\n      swap1\n      pop\n        /* \"#utility.yul\":2991:3304   */\n      swap3\n      swap2\n      pop\n      pop\n      jump\t// out\n        /* \"#utility.yul\":3310:3929   */\n    tag_24:\n        /* \"#utility.yul\":3387:3393   */\n      0x00\n        /* \"#utility.yul\":3395:3401   */\n      dup1\n        /* \"#utility.yul\":3403:3409   */\n      0x00\n        /* \"#utility.yul\":3452:3454   */\n      0x60\n        /* \"#utility.yul\":3440:3449   */\n      dup5\n        /* \"#utility.yul\":3431:3438   */\n      dup7\n        /* \"#utility.yul\":3427:3450   */\n      sub\n        /* \"#utility.yul\":3423:3455   */\n      slt\n        /* \"#utility.yul\":3420:3539   */\n      iszero\n      tag_182\n      jumpi\n        /* \"#utility.yul\":3458:3537   */\n      tag_183\n      tag_112\n      jump\t// in\n    tag_183:\n        /* \"#utility.yul\":3420:3539   */\n    tag_182:\n        /* \"#utility.yul\":3578:3579   */\n      0x00\n        /* \"#utility.yul\":3603:3656   */\n      tag_184\n        /* \"#utility.yul\":3648:3655   */\n      dup7\n        /* \"#utility.yul\":3639:3645   */\n      dup3\n        /* \"#utility.yul\":3628:3637   */\n      dup8\n        /* \"#utility.yul\":3624:3646   */\n      add\n        /* \"#utility.yul\":3603:3656   */\n      tag_117\n      jump\t// in\n    tag_184:\n        /* \"#utility.yul\":3593:3656   */\n      swap4\n      pop\n        /* \"#utility.yul\":3549:3666   */\n      pop\n        /* \"#utility.yul\":3705:3707   */\n      0x20\n        /* \"#utility.yul\":3731:3784   */\n      tag_185\n        /* \"#utility.yul\":3776:3783   */\n      dup7\n        /* \"#utility.yul\":3767:3773   */\n      dup3\n        /* \"#utility.yul\":3756:3765   */\n      dup8\n        /* \"#utility.yul\":3752:3774   */\n      add\n        /* \"#utility.yul\":3731:3784   */\n      tag_117\n      jump\t// in\n    tag_185:\n        /* \"#utility.yul\":3721:3784   */\n      swap3\n      pop\n        /* \"#utility.yul\":3676:3794   */\n      pop\n        /* \"#utility.yul\":3833:3835   */\n      0x40\n        /* \"#utility.yul\":3859:3912   */\n      tag_186\n        /* \"#utility.yul\":3904:3911   */\n      dup7\n        /* \"#utility.yul\":3895:3901   */\n      dup3\n        /* \"#utility.yul\":3884:3893   */\n      dup8\n        /* \"#utility.yul\":3880:3902   */\n      add\n        /* \"#utility.yul\":3859:3912   */\n      tag_120\n      jump\t// in\n    tag_186:\n        /* \"#utility.yul\":3849:3912   */\n      swap2\n      pop\n        /* \"#utility.yul\":3804:3922   */\n      pop\n        /* \"#utility.yul\":3310:3929   */\n      swap3\n      pop\n      swap3\n      pop\n      swap3\n      jump\t// out\n        /* \"#utility.yul\":3935:4264   */\n    tag_28:\n        /* \"#utility.yul\":3994:4000   */\n      0x00\n        /* \"#utility.yul\":4043:4045   */\n      0x20\n        /* \"#utility.yul\":4031:4040   */\n      dup3\n        /* \"#utility.yul\":4022:4029   */\n      dup5\n        /* \"#utility.yul\":4018:4041   */\n      sub\n        /* \"#utility.yul\":4014:4046   */\n      slt\n        /* \"#utility.yul\":4011:4130   */\n      iszero\n      tag_188\n      jumpi\n        /* \"#utility.yul\":4049:4128   */\n      tag_189\n      tag_112\n      jump\t// in\n    tag_189:\n        /* \"#utility.yul\":4011:4130   */\n    tag_188:\n        /* \"#utility.yul\":4169:4170   */\n      0x00\n        /* \"#utility.yul\":4194:4247   */\n      tag_190\n        /* \"#utility.yul\":4239:4246   */\n      dup5\n        /* \"#utility.yul\":4230:4236   */\n      dup3\n        /* \"#utility.yul\":4219:4228   */\n      dup6\n        /* \"#utility.yul\":4215:4237   */\n      add\n        /* \"#utility.yul\":4194:4247   */\n      tag_117\n      jump\t// in\n    tag_190:\n        /* \"#utility.yul\":4184:4247   */\n      swap2\n      pop\n        /* \"#utility.yul\":4140:4257   */\n      pop\n        /* \"#utility.yul\":3935:4264   */\n      swap3\n      swap2\n      pop\n      pop\n      jump\t// out\n        /* \"#utility.yul\":4270:4388   */\n    tag_126:\n        /* \"#utility.yul\":4357:4381   */\n      tag_192\n        /* \"#utility.yul\":4375:4380   */\n      dup2\n        /* \"#utility.yul\":4357:4381   */\n      tag_118\n      jump\t// in\n    tag_192:\n        /* \"#utility.yul\":4352:4355   */\n      dup3\n        /* \"#utility.yul\":4345:4382   */\n      mstore\n        /* \"#utility.yul\":4270:4388   */\n      pop\n      pop\n      jump\t// out\n        /* \"#utility.yul\":4394:4616   */\n    tag_31:\n        /* \"#utility.yul\":4487:4491   */\n      0x00\n        /* \"#utility.yul\":4525:4527   */\n      0x20\n        /* \"#utility.yul\":4514:4523   */\n      dup3\n        /* \"#utility.yul\":4510:4528   */\n      add\n        /* \"#utility.yul\":4502:4528   */\n      swap1\n      pop\n        /* \"#utility.yul\":4538:4609   */\n      tag_194\n        /* \"#utility.yul\":4606:4607   */\n      0x00\n        /* \"#utility.yul\":4595:4604   */\n      dup4\n        /* \"#utility.yul\":4591:4608   */\n      add\n        /* \"#utility.yul\":4582:4588   */\n      dup5\n        /* \"#utility.yul\":4538:4609   */\n      tag_126\n      jump\t// in\n    tag_194:\n        /* \"#utility.yul\":4394:4616   */\n      swap3\n      swap2\n      pop\n      pop\n      jump\t// out\n        /* \"#utility.yul\":4622:4740   */\n    tag_127:\n        /* \"#utility.yul\":4709:4733   */\n      tag_196\n        /* \"#utility.yul\":4727:4732   */\n      dup2\n        /* \"#utility.yul\":4709:4733   */\n      tag_115\n      jump\t// in\n    tag_196:\n        /* \"#utility.yul\":4704:4707   */\n      dup3\n        /* \"#utility.yul\":4697:4734   */\n      mstore\n        /* \"#utility.yul\":4622:4740   */\n      pop\n      pop\n      jump\t// out\n        /* \"#utility.yul\":4746:4968   */\n    tag_38:\n        /* \"#utility.yul\":4839:4843   */\n      0x00\n        /* \"#utility.yul\":4877:4879   */\n      0x20\n        /* \"#utility.yul\":4866:4875   */\n      dup3\n        /* \"#utility.yul\":4862:4880   */\n      add\n        /* \"#utility.yul\":4854:4880   */\n      swap1\n      pop\n        /* \"#utility.yul\":4890:4961   */\n      tag_198\n        /* \"#utility.yul\":4958:4959   */\n      0x00\n        /* \"#utility.yul\":4947:4956   */\n      dup4\n        /* \"#utility.yul\":4943:4960   */\n      add\n        /* \"#utility.yul\":4934:4940   */\n      dup5\n        /* \"#utility.yul\":4890:4961   */\n      tag_127\n      jump\t// in\n    tag_198:\n        /* \"#utility.yul\":4746:4968   */\n      swap3\n      swap2\n      pop\n      pop\n      jump\t// out\n        /* \"#utility.yul\":4974:5303   */\n    tag_44:\n        /* \"#utility.yul\":5033:5039   */\n      0x00\n        /* \"#utility.yul\":5082:5084   */\n      0x20\n        /* \"#utility.yul\":5070:5079   */\n      dup3\n        /* \"#utility.yul\":5061:5068   */\n      dup5\n        /* \"#utility.yul\":5057:5080   */\n      sub\n        /* \"#utility.yul\":5053:5085   */\n      slt\n        /* \"#utility.yul\":5050:5169   */\n      iszero\n      tag_200\n      jumpi\n        /* \"#utility.yul\":5088:5167   */\n      tag_201\n      tag_112\n      jump\t// in\n    tag_201:\n        /* \"#utility.yul\":5050:5169   */\n    tag_200:\n        /* \"#utility.yul\":5208:5209   */\n      0x00\n        /* \"#utility.yul\":5233:5286   */\n      tag_202\n        /* \"#utility.yul\":5278:5285   */\n      dup5\n        /* \"#utility.yul\":5269:5275   */\n      dup3\n        /* \"#utility.yul\":5258:5267   */\n      dup6\n        /* \"#utility.yul\":5254:5276   */\n      add\n        /* \"#utility.yul\":5233:5286   */\n      tag_120\n      jump\t// in\n    tag_202:\n        /* \"#utility.yul\":5223:5286   */\n      swap2\n      pop\n        /* \"#utility.yul\":5179:5296   */\n      pop\n        /* \"#utility.yul\":4974:5303   */\n      swap3\n      swap2\n      pop\n      pop\n      jump\t// out\n        /* \"#utility.yul\":5309:5474   */\n    tag_128:\n        /* \"#utility.yul\":5449:5466   */\n      0x496e76616c696420616464726573730000000000000000000000000000000000\n        /* \"#utility.yul\":5445:5446   */\n      0x00\n        /* \"#utility.yul\":5437:5443   */\n      dup3\n        /* \"#utility.yul\":5433:5447   */\n      add\n        /* \"#utility.yul\":5426:5467   */\n      mstore\n        /* \"#utility.yul\":5309:5474   */\n      pop\n      jump\t// out\n        /* \"#utility.yul\":5480:5846   */\n    tag_129:\n        /* \"#utility.yul\":5622:5625   */\n      0x00\n        /* \"#utility.yul\":5643:5710   */\n      tag_205\n        /* \"#utility.yul\":5707:5709   */\n      0x0f\n        /* \"#utility.yul\":5702:5705   */\n      dup4\n        /* \"#utility.yul\":5643:5710   */\n      tag_122\n      jump\t// in\n    tag_205:\n        /* \"#utility.yul\":5636:5710   */\n      swap2\n      pop\n        /* \"#utility.yul\":5719:5812   */\n      tag_206\n        /* \"#utility.yul\":5808:5811   */\n      dup3\n        /* \"#utility.yul\":5719:5812   */\n      tag_128\n      jump\t// in\n    tag_206:\n        /* \"#utility.yul\":5837:5839   */\n      0x20\n        /* \"#utility.yul\":5832:5835   */\n      dup3\n        /* \"#utility.yul\":5828:5840   */\n      add\n        /* \"#utility.yul\":5821:5840   */\n      swap1\n      pop\n        /* \"#utility.yul\":5480:5846   */\n      swap2\n      swap1\n      pop\n      jump\t// out\n        /* \"#utility.yul\":5852:6271   */\n    tag_56:\n        /* \"#utility.yul\":6018:6022   */\n      0x00\n        /* \"#utility.yul\":6056:6058   */\n      0x20\n        /* \"#utility.yul\":6045:6054   */\n      dup3\n        /* \"#utility.yul\":6041:6059   */\n      add\n        /* \"#utility.yul\":6033:6059   */\n      swap1\n      pop\n        /* \"#utility.yul\":6105:6114   */\n      dup2\n        /* \"#utility.yul\":6099:6103   */\n      dup2\n        /* \"#utility.yul\":6095:6115   */\n      sub\n        /* \"#utility.yul\":6091:6092   */\n      0x00\n        /* \"#utility.yul\":6080:6089   */\n      dup4\n        /* \"#utility.yul\":6076:6093   */\n      add\n        /* \"#utility.yul\":6069:6116   */\n      mstore\n        /* \"#utility.yul\":6133:6264   */\n      tag_208\n        /* \"#utility.yul\":6259:6263   */\n      dup2\n        /* \"#utility.yul\":6133:6264   */\n      tag_129\n      jump\t// in\n    tag_208:\n        /* \"#utility.yul\":6125:6264   */\n      swap1\n      pop\n        /* \"#utility.yul\":5852:6271   */\n      swap2\n      swap1\n      pop\n      jump\t// out\n        /* \"#utility.yul\":6277:6456   */\n    tag_130:\n        /* \"#utility.yul\":6417:6448   */\n      0x4e6f7420656e6f75676820746f6b656e7320696e20636f6e7472616374000000\n        /* \"#utility.yul\":6413:6414   */\n      0x00\n        /* \"#utility.yul\":6405:6411   */\n      dup3\n        /* \"#utility.yul\":6401:6415   */\n      add\n        /* \"#utility.yul\":6394:6449   */\n      mstore\n        /* \"#utility.yul\":6277:6456   */\n      pop\n      jump\t// out\n        /* \"#utility.yul\":6462:6828   */\n    tag_131:\n        /* \"#utility.yul\":6604:6607   */\n      0x00\n        /* \"#utility.yul\":6625:6692   */\n      tag_211\n        /* \"#utility.yul\":6689:6691   */\n      0x1d\n        /* \"#utility.yul\":6684:6687   */\n      dup4\n        /* \"#utility.yul\":6625:6692   */\n      tag_122\n      jump\t// in\n    tag_211:\n        /* \"#utility.yul\":6618:6692   */\n      swap2\n      pop\n        /* \"#utility.yul\":6701:6794   */\n      tag_212\n        /* \"#utility.yul\":6790:6793   */\n      dup3\n        /* \"#utility.yul\":6701:6794   */\n      tag_130\n      jump\t// in\n    tag_212:\n        /* \"#utility.yul\":6819:6821   */\n      0x20\n        /* \"#utility.yul\":6814:6817   */\n      dup3\n        /* \"#utility.yul\":6810:6822   */\n      add\n        /* \"#utility.yul\":6803:6822   */\n      swap1\n      pop\n        /* \"#utility.yul\":6462:6828   */\n      swap2\n      swap1\n      pop\n      jump\t// out\n        /* \"#utility.yul\":6834:7253   */\n    tag_60:\n        /* \"#utility.yul\":7000:7004   */\n      0x00\n        /* \"#utility.yul\":7038:7040   */\n      0x20\n        /* \"#utility.yul\":7027:7036   */\n      dup3\n        /* \"#utility.yul\":7023:7041   */\n      add\n        /* \"#utility.yul\":7015:7041   */\n      swap1\n      pop\n        /* \"#utility.yul\":7087:7096   */\n      dup2\n        /* \"#utility.yul\":7081:7085   */\n      dup2\n        /* \"#utility.yul\":7077:7097   */\n      sub\n        /* \"#utility.yul\":7073:7074   */\n      0x00\n        /* \"#utility.yul\":7062:7071   */\n      dup4\n        /* \"#utility.yul\":7058:7075   */\n      add\n        /* \"#utility.yul\":7051:7098   */\n      mstore\n        /* \"#utility.yul\":7115:7246   */\n      tag_214\n        /* \"#utility.yul\":7241:7245   */\n      dup2\n        /* \"#utility.yul\":7115:7246   */\n      tag_131\n      jump\t// in\n    tag_214:\n        /* \"#utility.yul\":7107:7246   */\n      swap1\n      pop\n        /* \"#utility.yul\":6834:7253   */\n      swap2\n      swap1\n      pop\n      jump\t// out\n        /* \"#utility.yul\":7259:7440   */\n    tag_132:\n        /* \"#utility.yul\":7399:7432   */\n      0x525741206164647265737320646f6573206e6f74206d6174636820736c6f7400\n        /* \"#utility.yul\":7395:7396   */\n      0x00\n        /* \"#utility.yul\":7387:7393   */\n      dup3\n        /* \"#utility.yul\":7383:7397   */\n      add\n        /* \"#utility.yul\":7376:7433   */\n      mstore\n        /* \"#utility.yul\":7259:7440   */\n      pop\n      jump\t// out\n        /* \"#utility.yul\":7446:7812   */\n    tag_133:\n        /* \"#utility.yul\":7588:7591   */\n      0x00\n        /* \"#utility.yul\":7609:7676   */\n      tag_217\n        /* \"#utility.yul\":7673:7675   */\n      0x1f\n        /* \"#utility.yul\":7668:7671   */\n      dup4\n        /* \"#utility.yul\":7609:7676   */\n      tag_122\n      jump\t// in\n    tag_217:\n        /* \"#utility.yul\":7602:7676   */\n      swap2\n      pop\n        /* \"#utility.yul\":7685:7778   */\n      tag_218\n        /* \"#utility.yul\":7774:7777   */\n      dup3\n        /* \"#utility.yul\":7685:7778   */\n      tag_132\n      jump\t// in\n    tag_218:\n        /* \"#utility.yul\":7803:7805   */\n      0x20\n        /* \"#utility.yul\":7798:7801   */\n      dup3\n        /* \"#utility.yul\":7794:7806   */\n      add\n        /* \"#utility.yul\":7787:7806   */\n      swap1\n      pop\n        /* \"#utility.yul\":7446:7812   */\n      swap2\n      swap1\n      pop\n      jump\t// out\n        /* \"#utility.yul\":7818:8237   */\n    tag_63:\n        /* \"#utility.yul\":7984:7988   */\n      0x00\n        /* \"#utility.yul\":8022:8024   */\n      0x20\n        /* \"#utility.yul\":8011:8020   */\n      dup3\n        /* \"#utility.yul\":8007:8025   */\n      add\n        /* \"#utility.yul\":7999:8025   */\n      swap1\n      pop\n        /* \"#utility.yul\":8071:8080   */\n      dup2\n        /* \"#utility.yul\":8065:8069   */\n      dup2\n        /* \"#utility.yul\":8061:8081   */\n      sub\n        /* \"#utility.yul\":8057:8058   */\n      0x00\n        /* \"#utility.yul\":8046:8055   */\n      dup4\n        /* \"#utility.yul\":8042:8059   */\n      add\n        /* \"#utility.yul\":8035:8082   */\n      mstore\n        /* \"#utility.yul\":8099:8230   */\n      tag_220\n        /* \"#utility.yul\":8225:8229   */\n      dup2\n        /* \"#utility.yul\":8099:8230   */\n      tag_133\n      jump\t// in\n    tag_220:\n        /* \"#utility.yul\":8091:8230   */\n      swap1\n      pop\n        /* \"#utility.yul\":7818:8237   */\n      swap2\n      swap1\n      pop\n      jump\t// out\n        /* \"#utility.yul\":8243:8412   */\n    tag_134:\n        /* \"#utility.yul\":8383:8404   */\n      0x536c6f7420646f6573206e6f7420657869737400000000000000000000000000\n        /* \"#utility.yul\":8379:8380   */\n      0x00\n        /* \"#utility.yul\":8371:8377   */\n      dup3\n        /* \"#utility.yul\":8367:8381   */\n      add\n        /* \"#utility.yul\":8360:8405   */\n      mstore\n        /* \"#utility.yul\":8243:8412   */\n      pop\n      jump\t// out\n        /* \"#utility.yul\":8418:8784   */\n    tag_135:\n        /* \"#utility.yul\":8560:8563   */\n      0x00\n        /* \"#utility.yul\":8581:8648   */\n      tag_223\n        /* \"#utility.yul\":8645:8647   */\n      0x13\n        /* \"#utility.yul\":8640:8643   */\n      dup4\n        /* \"#utility.yul\":8581:8648   */\n      tag_122\n      jump\t// in\n    tag_223:\n        /* \"#utility.yul\":8574:8648   */\n      swap2\n      pop\n        /* \"#utility.yul\":8657:8750   */\n      tag_224\n        /* \"#utility.yul\":8746:8749   */\n      dup3\n        /* \"#utility.yul\":8657:8750   */\n      tag_134\n      jump\t// in\n    tag_224:\n        /* \"#utility.yul\":8775:8777   */\n      0x20\n        /* \"#utility.yul\":8770:8773   */\n      dup3\n        /* \"#utility.yul\":8766:8778   */\n      add\n        /* \"#utility.yul\":8759:8778   */\n      swap1\n      pop\n        /* \"#utility.yul\":8418:8784   */\n      swap2\n      swap1\n      pop\n      jump\t// out\n        /* \"#utility.yul\":8790:9209   */\n    tag_66:\n        /* \"#utility.yul\":8956:8960   */\n      0x00\n        /* \"#utility.yul\":8994:8996   */\n      0x20\n        /* \"#utility.yul\":8983:8992   */\n      dup3\n        /* \"#utility.yul\":8979:8997   */\n      add\n        /* \"#utility.yul\":8971:8997   */\n      swap1\n      pop\n        /* \"#utility.yul\":9043:9052   */\n      dup2\n        /* \"#utility.yul\":9037:9041   */\n      dup2\n        /* \"#utility.yul\":9033:9053   */\n      sub\n        /* \"#utility.yul\":9029:9030   */\n      0x00\n        /* \"#utility.yul\":9018:9027   */\n      dup4\n        /* \"#utility.yul\":9014:9031   */\n      add\n        /* \"#utility.yul\":9007:9054   */\n      mstore\n        /* \"#utility.yul\":9071:9202   */\n      tag_226\n        /* \"#utility.yul\":9197:9201   */\n      dup2\n        /* \"#utility.yul\":9071:9202   */\n      tag_135\n      jump\t// in\n    tag_226:\n        /* \"#utility.yul\":9063:9202   */\n      swap1\n      pop\n        /* \"#utility.yul\":8790:9209   */\n      swap2\n      swap1\n      pop\n      jump\t// out\n        /* \"#utility.yul\":9215:9395   */\n    tag_136:\n        /* \"#utility.yul\":9263:9340   */\n      0x4e487b7100000000000000000000000000000000000000000000000000000000\n        /* \"#utility.yul\":9260:9261   */\n      0x00\n        /* \"#utility.yul\":9253:9341   */\n      mstore\n        /* \"#utility.yul\":9360:9364   */\n      0x11\n        /* \"#utility.yul\":9357:9358   */\n      0x04\n        /* \"#utility.yul\":9350:9365   */\n      mstore\n        /* \"#utility.yul\":9384:9388   */\n      0x24\n        /* \"#utility.yul\":9381:9382   */\n      0x00\n        /* \"#utility.yul\":9374:9389   */\n      revert\n        /* \"#utility.yul\":9401:9595   */\n    tag_68:\n        /* \"#utility.yul\":9441:9445   */\n      0x00\n        /* \"#utility.yul\":9461:9481   */\n      tag_229\n        /* \"#utility.yul\":9479:9480   */\n      dup3\n        /* \"#utility.yul\":9461:9481   */\n      tag_118\n      jump\t// in\n    tag_229:\n        /* \"#utility.yul\":9456:9481   */\n      swap2\n      pop\n        /* \"#utility.yul\":9495:9515   */\n      tag_230\n        /* \"#utility.yul\":9513:9514   */\n      dup4\n        /* \"#utility.yul\":9495:9515   */\n      tag_118\n      jump\t// in\n    tag_230:\n        /* \"#utility.yul\":9490:9515   */\n      swap3\n      pop\n        /* \"#utility.yul\":9539:9540   */\n      dup3\n        /* \"#utility.yul\":9536:9537   */\n      dup3\n        /* \"#utility.yul\":9532:9541   */\n      sub\n        /* \"#utility.yul\":9524:9541   */\n      swap1\n      pop\n        /* \"#utility.yul\":9563:9564   */\n      dup2\n        /* \"#utility.yul\":9557:9561   */\n      dup2\n        /* \"#utility.yul\":9554:9565   */\n      gt\n        /* \"#utility.yul\":9551:9588   */\n      iszero\n      tag_231\n      jumpi\n        /* \"#utility.yul\":9568:9586   */\n      tag_232\n      tag_136\n      jump\t// in\n    tag_232:\n        /* \"#utility.yul\":9551:9588   */\n    tag_231:\n        /* \"#utility.yul\":9401:9595   */\n      swap3\n      swap2\n      pop\n      pop\n      jump\t// out\n        /* \"#utility.yul\":9601:9792   */\n    tag_70:\n        /* \"#utility.yul\":9641:9644   */\n      0x00\n        /* \"#utility.yul\":9660:9680   */\n      tag_234\n        /* \"#utility.yul\":9678:9679   */\n      dup3\n        /* \"#utility.yul\":9660:9680   */\n      tag_118\n      jump\t// in\n    tag_234:\n        /* \"#utility.yul\":9655:9680   */\n      swap2\n      pop\n        /* \"#utility.yul\":9694:9714   */\n      tag_235\n        /* \"#utility.yul\":9712:9713   */\n      dup4\n        /* \"#utility.yul\":9694:9714   */\n      tag_118\n      jump\t// in\n    tag_235:\n        /* \"#utility.yul\":9689:9714   */\n      swap3\n      pop\n        /* \"#utility.yul\":9737:9738   */\n      dup3\n        /* \"#utility.yul\":9734:9735   */\n      dup3\n        /* \"#utility.yul\":9730:9739   */\n      add\n        /* \"#utility.yul\":9723:9739   */\n      swap1\n      pop\n        /* \"#utility.yul\":9758:9761   */\n      dup1\n        /* \"#utility.yul\":9755:9756   */\n      dup3\n        /* \"#utility.yul\":9752:9762   */\n      gt\n        /* \"#utility.yul\":9749:9785   */\n      iszero\n      tag_236\n      jumpi\n        /* \"#utility.yul\":9765:9783   */\n      tag_237\n      tag_136\n      jump\t// in\n    tag_237:\n        /* \"#utility.yul\":9749:9785   */\n    tag_236:\n        /* \"#utility.yul\":9601:9792   */\n      swap3\n      swap2\n      pop\n      pop\n      jump\t// out\n        /* \"#utility.yul\":9798:10240   */\n    tag_72:\n        /* \"#utility.yul\":9947:9951   */\n      0x00\n        /* \"#utility.yul\":9985:9987   */\n      0x60\n        /* \"#utility.yul\":9974:9983   */\n      dup3\n        /* \"#utility.yul\":9970:9988   */\n      add\n        /* \"#utility.yul\":9962:9988   */\n      swap1\n      pop\n        /* \"#utility.yul\":9998:10069   */\n      tag_239\n        /* \"#utility.yul\":10066:10067   */\n      0x00\n        /* \"#utility.yul\":10055:10064   */\n      dup4\n        /* \"#utility.yul\":10051:10068   */\n      add\n        /* \"#utility.yul\":10042:10048   */\n      dup7\n        /* \"#utility.yul\":9998:10069   */\n      tag_127\n      jump\t// in\n    tag_239:\n        /* \"#utility.yul\":10079:10151   */\n      tag_240\n        /* \"#utility.yul\":10147:10149   */\n      0x20\n        /* \"#utility.yul\":10136:10145   */\n      dup4\n        /* \"#utility.yul\":10132:10150   */\n      add\n        /* \"#utility.yul\":10123:10129   */\n      dup6\n        /* \"#utility.yul\":10079:10151   */\n      tag_127\n      jump\t// in\n    tag_240:\n        /* \"#utility.yul\":10161:10233   */\n      tag_241\n        /* \"#utility.yul\":10229:10231   */\n      0x40\n        /* \"#utility.yul\":10218:10227   */\n      dup4\n        /* \"#utility.yul\":10214:10232   */\n      add\n        /* \"#utility.yul\":10205:10211   */\n      dup5\n        /* \"#utility.yul\":10161:10233   */\n      tag_126\n      jump\t// in\n    tag_241:\n        /* \"#utility.yul\":9798:10240   */\n      swap5\n      swap4\n      pop\n      pop\n      pop\n      pop\n      jump\t// out\n        /* \"#utility.yul\":10246:10426   */\n    tag_137:\n        /* \"#utility.yul\":10294:10371   */\n      0x4e487b7100000000000000000000000000000000000000000000000000000000\n        /* \"#utility.yul\":10291:10292   */\n      0x00\n        /* \"#utility.yul\":10284:10372   */\n      mstore\n        /* \"#utility.yul\":10391:10395   */\n      0x22\n        /* \"#utility.yul\":10388:10389   */\n      0x04\n        /* \"#utility.yul\":10381:10396   */\n      mstore\n        /* \"#utility.yul\":10415:10419   */\n      0x24\n        /* \"#utility.yul\":10412:10413   */\n      0x00\n        /* \"#utility.yul\":10405:10420   */\n      revert\n        /* \"#utility.yul\":10432:10752   */\n    tag_77:\n        /* \"#utility.yul\":10476:10482   */\n      0x00\n        /* \"#utility.yul\":10513:10514   */\n      0x02\n        /* \"#utility.yul\":10507:10511   */\n      dup3\n        /* \"#utility.yul\":10503:10515   */\n      div\n        /* \"#utility.yul\":10493:10515   */\n      swap1\n      pop\n        /* \"#utility.yul\":10560:10561   */\n      0x01\n        /* \"#utility.yul\":10554:10558   */\n      dup3\n        /* \"#utility.yul\":10550:10562   */\n      and\n        /* \"#utility.yul\":10581:10599   */\n      dup1\n        /* \"#utility.yul\":10571:10652   */\n      tag_244\n      jumpi\n        /* \"#utility.yul\":10637:10641   */\n      0x7f\n        /* \"#utility.yul\":10629:10635   */\n      dup3\n        /* \"#utility.yul\":10625:10642   */\n      and\n        /* \"#utility.yul\":10615:10642   */\n      swap2\n      pop\n        /* \"#utility.yul\":10571:10652   */\n    tag_244:\n        /* \"#utility.yul\":10699:10701   */\n      0x20\n        /* \"#utility.yul\":10691:10697   */\n      dup3\n        /* \"#utility.yul\":10688:10702   */\n      lt\n        /* \"#utility.yul\":10668:10686   */\n      dup2\n        /* \"#utility.yul\":10665:10703   */\n      sub\n        /* \"#utility.yul\":10662:10746   */\n      tag_245\n      jumpi\n        /* \"#utility.yul\":10718:10736   */\n      tag_246\n      tag_137\n      jump\t// in\n    tag_246:\n        /* \"#utility.yul\":10662:10746   */\n    tag_245:\n        /* \"#utility.yul\":10483:10752   */\n      pop\n        /* \"#utility.yul\":10432:10752   */\n      swap2\n      swap1\n      pop\n      jump\t// out\n        /* \"#utility.yul\":10758:10928   */\n    tag_138:\n        /* \"#utility.yul\":10898:10920   */\n      0x496e73756666696369656e742062616c616e6365000000000000000000000000\n        /* \"#utility.yul\":10894:10895   */\n      0x00\n        /* \"#utility.yul\":10886:10892   */\n      dup3\n        /* \"#utility.yul\":10882:10896   */\n      add\n        /* \"#utility.yul\":10875:10921   */\n      mstore\n        /* \"#utility.yul\":10758:10928   */\n      pop\n      jump\t// out\n        /* \"#utility.yul\":10934:11300   */\n    tag_139:\n        /* \"#utility.yul\":11076:11079   */\n      0x00\n        /* \"#utility.yul\":11097:11164   */\n      tag_249\n        /* \"#utility.yul\":11161:11163   */\n      0x14\n        /* \"#utility.yul\":11156:11159   */\n      dup4\n        /* \"#utility.yul\":11097:11164   */\n      tag_122\n      jump\t// in\n    tag_249:\n        /* \"#utility.yul\":11090:11164   */\n      swap2\n      pop\n        /* \"#utility.yul\":11173:11266   */\n      tag_250\n        /* \"#utility.yul\":11262:11265   */\n      dup3\n        /* \"#utility.yul\":11173:11266   */\n      tag_138\n      jump\t// in\n    tag_250:\n        /* \"#utility.yul\":11291:11293   */\n      0x20\n        /* \"#utility.yul\":11286:11289   */\n      dup3\n        /* \"#utility.yul\":11282:11294   */\n      add\n        /* \"#utility.yul\":11275:11294   */\n      swap1\n      pop\n        /* \"#utility.yul\":10934:11300   */\n      swap2\n      swap1\n      pop\n      jump\t// out\n        /* \"#utility.yul\":11306:11725   */\n    tag_85:\n        /* \"#utility.yul\":11472:11476   */\n      0x00\n        /* \"#utility.yul\":11510:11512   */\n      0x20\n        /* \"#utility.yul\":11499:11508   */\n      dup3\n        /* \"#utility.yul\":11495:11513   */\n      add\n        /* \"#utility.yul\":11487:11513   */\n      swap1\n      pop\n        /* \"#utility.yul\":11559:11568   */\n      dup2\n        /* \"#utility.yul\":11553:11557   */\n      dup2\n        /* \"#utility.yul\":11549:11569   */\n      sub\n        /* \"#utility.yul\":11545:11546   */\n      0x00\n        /* \"#utility.yul\":11534:11543   */\n      dup4\n        /* \"#utility.yul\":11530:11547   */\n      add\n        /* \"#utility.yul\":11523:11570   */\n      mstore\n        /* \"#utility.yul\":11587:11718   */\n      tag_252\n        /* \"#utility.yul\":11713:11717   */\n      dup2\n        /* \"#utility.yul\":11587:11718   */\n      tag_139\n      jump\t// in\n    tag_252:\n        /* \"#utility.yul\":11579:11718   */\n      swap1\n      pop\n        /* \"#utility.yul\":11306:11725   */\n      swap2\n      swap1\n      pop\n      jump\t// out\n        /* \"#utility.yul\":11731:11965   */\n    tag_140:\n        /* \"#utility.yul\":11871:11905   */\n      0x4f6e6c792074686520636f6e7472616374206f776e65722063616e2070657266\n        /* \"#utility.yul\":11867:11868   */\n      0x00\n        /* \"#utility.yul\":11859:11865   */\n      dup3\n        /* \"#utility.yul\":11855:11869   */\n      add\n        /* \"#utility.yul\":11848:11906   */\n      mstore\n        /* \"#utility.yul\":11940:11957   */\n      0x6f726d207468697320616374696f6e0000000000000000000000000000000000\n        /* \"#utility.yul\":11935:11937   */\n      0x20\n        /* \"#utility.yul\":11927:11933   */\n      dup3\n        /* \"#utility.yul\":11923:11938   */\n      add\n        /* \"#utility.yul\":11916:11958   */\n      mstore\n        /* \"#utility.yul\":11731:11965   */\n      pop\n      jump\t// out\n        /* \"#utility.yul\":11971:12337   */\n    tag_141:\n        /* \"#utility.yul\":12113:12116   */\n      0x00\n        /* \"#utility.yul\":12134:12201   */\n      tag_255\n        /* \"#utility.yul\":12198:12200   */\n      0x2f\n        /* \"#utility.yul\":12193:12196   */\n      dup4\n        /* \"#utility.yul\":12134:12201   */\n      tag_122\n      jump\t// in\n    tag_255:\n        /* \"#utility.yul\":12127:12201   */\n      swap2\n      pop\n        /* \"#utility.yul\":12210:12303   */\n      tag_256\n        /* \"#utility.yul\":12299:12302   */\n      dup3\n        /* \"#utility.yul\":12210:12303   */\n      tag_140\n      jump\t// in\n    tag_256:\n        /* \"#utility.yul\":12328:12330   */\n      0x40\n        /* \"#utility.yul\":12323:12326   */\n      dup3\n        /* \"#utility.yul\":12319:12331   */\n      add\n        /* \"#utility.yul\":12312:12331   */\n      swap1\n      pop\n        /* \"#utility.yul\":11971:12337   */\n      swap2\n      swap1\n      pop\n      jump\t// out\n        /* \"#utility.yul\":12343:12762   */\n    tag_96:\n        /* \"#utility.yul\":12509:12513   */\n      0x00\n        /* \"#utility.yul\":12547:12549   */\n      0x20\n        /* \"#utility.yul\":12536:12545   */\n      dup3\n        /* \"#utility.yul\":12532:12550   */\n      add\n        /* \"#utility.yul\":12524:12550   */\n      swap1\n      pop\n        /* \"#utility.yul\":12596:12605   */\n      dup2\n        /* \"#utility.yul\":12590:12594   */\n      dup2\n        /* \"#utility.yul\":12586:12606   */\n      sub\n        /* \"#utility.yul\":12582:12583   */\n      0x00\n        /* \"#utility.yul\":12571:12580   */\n      dup4\n        /* \"#utility.yul\":12567:12584   */\n      add\n        /* \"#utility.yul\":12560:12607   */\n      mstore\n        /* \"#utility.yul\":12624:12755   */\n      tag_258\n        /* \"#utility.yul\":12750:12754   */\n      dup2\n        /* \"#utility.yul\":12624:12755   */\n      tag_141\n      jump\t// in\n    tag_258:\n        /* \"#utility.yul\":12616:12755   */\n      swap1\n      pop\n        /* \"#utility.yul\":12343:12762   */\n      swap2\n      swap1\n      pop\n      jump\t// out\n\n    auxdata: 0xa264697066735822122016e32d8e1494accaafb5197359251a72ac9bc37ad4abf829e356ceaf2b11903064736f6c63430008180033\n}\n",
				"bytecode": {
					"linkReferences": {},
					"object": "60806040525f6003556040518060400160405280600b81526020017f504f4f4c20546f6b656e73000000000000000000000000000000000000000000815250600490816200004e91906200034c565b506040518060400160405280600481526020017f504f4f4c00000000000000000000000000000000000000000000000000000000815250600590816200009591906200034c565b50348015620000a2575f80fd5b50335f806101000a81548173ffffffffffffffffffffffffffffffffffffffff021916908373ffffffffffffffffffffffffffffffffffffffff16021790555062000430565b5f81519050919050565b7f4e487b71000000000000000000000000000000000000000000000000000000005f52604160045260245ffd5b7f4e487b71000000000000000000000000000000000000000000000000000000005f52602260045260245ffd5b5f60028204905060018216806200016457607f821691505b6020821081036200017a57620001796200011f565b5b50919050565b5f819050815f5260205f209050919050565b5f6020601f8301049050919050565b5f82821b905092915050565b5f60088302620001de7fffffffffffffffffffffffffffffffffffffffffffffffffffffffffffffffff82620001a1565b620001ea8683620001a1565b95508019841693508086168417925050509392505050565b5f819050919050565b5f819050919050565b5f620002346200022e620002288462000202565b6200020b565b62000202565b9050919050565b5f819050919050565b6200024f8362000214565b620002676200025e826200023b565b848454620001ad565b825550505050565b5f90565b6200027d6200026f565b6200028a81848462000244565b505050565b5b81811015620002b157620002a55f8262000273565b60018101905062000290565b5050565b601f8211156200030057620002ca8162000180565b620002d58462000192565b81016020851015620002e5578190505b620002fd620002f48562000192565b8301826200028f565b50505b505050565b5f82821c905092915050565b5f620003225f198460080262000305565b1980831691505092915050565b5f6200033c838362000311565b9150826002028217905092915050565b6200035782620000e8565b67ffffffffffffffff811115620003735762000372620000f2565b5b6200037f82546200014c565b6200038c828285620002b5565b5f60209050601f831160018114620003c2575f8415620003ad578287015190505b620003b985826200032f565b86555062000428565b601f198416620003d28662000180565b5f5b82811015620003fb57848901518255600182019150602085019450602081019050620003d4565b868310156200041b578489015162000417601f89168262000311565b8355505b6001600288020188555050505b505050505050565b61114d806200043e5f395ff3fe608060405234801561000f575f80fd5b506004361061009c575f3560e01c80638da5cb5b116100645780638da5cb5b1461014457806395d89b4114610162578063a0712d6814610180578063e890e45e1461019c578063fb44ba24146101cc5761009c565b80630411b252146100a057806306fdde03146100bc57806323b872dd146100da57806327e235e3146100f65780636ea667cd14610126575b5f80fd5b6100ba60048036038101906100b59190610b58565b6101e8565b005b6100c461055f565b6040516100d19190610c46565b60405180910390f35b6100f460048036038101906100ef9190610c66565b6105eb565b005b610110600480360381019061010b9190610cb6565b610716565b60405161011d9190610cf0565b60405180910390f35b61012e61072b565b60405161013b9190610cf0565b60405180910390f35b61014c610731565b6040516101599190610d18565b60405180910390f35b61016a610754565b6040516101779190610c46565b60405180910390f35b61019a60048036038101906101959190610d31565b6107e0565b005b6101b660048036038101906101b19190610d31565b6108c3565b6040516101c39190610d18565b60405180910390f35b6101e660048036038101906101e19190610cb6565b6108f3565b005b60025f8381526020019081526020015f205f9054906101000a900473ffffffffffffffffffffffffffffffffffffffff165f73ffffffffffffffffffffffffffffffffffffffff168173ffffffffffffffffffffffffffffffffffffffff1603610287576040517f08c379a000000000000000000000000000000000000000000000000000000000815260040161027e90610da6565b60405180910390fd5b8160015f3073ffffffffffffffffffffffffffffffffffffffff1673ffffffffffffffffffffffffffffffffffffffff1681526020019081526020015f20541015610307576040517f08c379a00000000000000000000000000000000000000000000000000000000081526004016102fe90610e0e565b60405180910390fd5b8373ffffffffffffffffffffffffffffffffffffffff1660025f8581526020019081526020015f205f9054906101000a900473ffffffffffffffffffffffffffffffffffffffff1673ffffffffffffffffffffffffffffffffffffffff16146103a5576040517f08c379a000000000000000000000000000000000000000000000000000000000815260040161039c90610e76565b60405180910390fd5b5f73ffffffffffffffffffffffffffffffffffffffff1660025f8581526020019081526020015f205f9054906101000a900473ffffffffffffffffffffffffffffffffffffffff1673ffffffffffffffffffffffffffffffffffffffff1603610443576040517f08c379a000000000000000000000000000000000000000000000000000000000815260040161043a90610ede565b60405180910390fd5b8160015f3073ffffffffffffffffffffffffffffffffffffffff1673ffffffffffffffffffffffffffffffffffffffff1681526020019081526020015f205f82825461048f9190610f29565b925050819055508160015f8773ffffffffffffffffffffffffffffffffffffffff1673ffffffffffffffffffffffffffffffffffffffff1681526020019081526020015f205f8282546104e29190610f5c565b925050819055505f8490508073ffffffffffffffffffffffffffffffffffffffff166323b872dd8730866040518463ffffffff1660e01b815260040161052a93929190610f8f565b5f604051808303815f87803b158015610541575f80fd5b505af1158015610553573d5f803e3d5ffd5b50505050505050505050565b6004805461056c90610ff1565b80601f016020809104026020016040519081016040528092919081815260200182805461059890610ff1565b80156105e35780601f106105ba576101008083540402835291602001916105e3565b820191905f5260205f20905b8154815290600101906020018083116105c657829003601f168201915b505050505081565b8060015f8573ffffffffffffffffffffffffffffffffffffffff1673ffffffffffffffffffffffffffffffffffffffff1681526020019081526020015f2054101561066b576040517f08c379a00000000000000000000000000000000000000000000000000000000081526004016106629061106b565b60405180910390fd5b8060015f8573ffffffffffffffffffffffffffffffffffffffff1673ffffffffffffffffffffffffffffffffffffffff1681526020019081526020015f205f8282546106b79190610f29565b925050819055508060015f8473ffffffffffffffffffffffffffffffffffffffff1673ffffffffffffffffffffffffffffffffffffffff1681526020019081526020015f205f82825461070a9190610f5c565b92505081905550505050565b6001602052805f5260405f205f915090505481565b60035481565b5f8054906101000a900473ffffffffffffffffffffffffffffffffffffffff1681565b6005805461076190610ff1565b80601f016020809104026020016040519081016040528092919081815260200182805461078d90610ff1565b80156107d85780601f106107af576101008083540402835291602001916107d8565b820191905f5260205f20905b8154815290600101906020018083116107bb57829003601f168201915b505050505081565b5f8054906101000a900473ffffffffffffffffffffffffffffffffffffffff1673ffffffffffffffffffffffffffffffffffffffff163373ffffffffffffffffffffffffffffffffffffffff161461086d576040517f08c379a0000000000000000000000000000000000000000000000000000000008152600401610864906110f9565b60405180910390fd5b8060015f3073ffffffffffffffffffffffffffffffffffffffff1673ffffffffffffffffffffffffffffffffffffffff1681526020019081526020015f205f8282546108b99190610f5c565b9250508190555050565b6002602052805f5260405f205f915054906101000a900473ffffffffffffffffffffffffffffffffffffffff1681565b5f8054906101000a900473ffffffffffffffffffffffffffffffffffffffff1673ffffffffffffffffffffffffffffffffffffffff163373ffffffffffffffffffffffffffffffffffffffff1614610980576040517f08c379a0000000000000000000000000000000000000000000000000000000008152600401610977906110f9565b60405180910390fd5b805f73ffffffffffffffffffffffffffffffffffffffff168173ffffffffffffffffffffffffffffffffffffffff16036109ef576040517f08c379a00000000000000000000000000000000000000000000000000000000081526004016109e690610da6565b60405180910390fd5b5f60016003546109ff9190610f5c565b90508260025f8381526020019081526020015f205f6101000a81548173ffffffffffffffffffffffffffffffffffffffff021916908373ffffffffffffffffffffffffffffffffffffffff1602179055505f8390508073ffffffffffffffffffffffffffffffffffffffff1663d5783659836040518263ffffffff1660e01b8152600401610a8d9190610cf0565b5f604051808303815f87803b158015610aa4575f80fd5b505af1158015610ab6573d5f803e3d5ffd5b505050508160038190555050505050565b5f80fd5b5f73ffffffffffffffffffffffffffffffffffffffff82169050919050565b5f610af482610acb565b9050919050565b610b0481610aea565b8114610b0e575f80fd5b50565b5f81359050610b1f81610afb565b92915050565b5f819050919050565b610b3781610b25565b8114610b41575f80fd5b50565b5f81359050610b5281610b2e565b92915050565b5f805f8060808587031215610b7057610b6f610ac7565b5b5f610b7d87828801610b11565b9450506020610b8e87828801610b11565b9350506040610b9f87828801610b44565b9250506060610bb087828801610b44565b91505092959194509250565b5f81519050919050565b5f82825260208201905092915050565b5f5b83811015610bf3578082015181840152602081019050610bd8565b5f8484015250505050565b5f601f19601f8301169050919050565b5f610c1882610bbc565b610c228185610bc6565b9350610c32818560208601610bd6565b610c3b81610bfe565b840191505092915050565b5f6020820190508181035f830152610c5e8184610c0e565b905092915050565b5f805f60608486031215610c7d57610c7c610ac7565b5b5f610c8a86828701610b11565b9350506020610c9b86828701610b11565b9250506040610cac86828701610b44565b9150509250925092565b5f60208284031215610ccb57610cca610ac7565b5b5f610cd884828501610b11565b91505092915050565b610cea81610b25565b82525050565b5f602082019050610d035f830184610ce1565b92915050565b610d1281610aea565b82525050565b5f602082019050610d2b5f830184610d09565b92915050565b5f60208284031215610d4657610d45610ac7565b5b5f610d5384828501610b44565b91505092915050565b7f496e76616c6964206164647265737300000000000000000000000000000000005f82015250565b5f610d90600f83610bc6565b9150610d9b82610d5c565b602082019050919050565b5f6020820190508181035f830152610dbd81610d84565b9050919050565b7f4e6f7420656e6f75676820746f6b656e7320696e20636f6e74726163740000005f82015250565b5f610df8601d83610bc6565b9150610e0382610dc4565b602082019050919050565b5f6020820190508181035f830152610e2581610dec565b9050919050565b7f525741206164647265737320646f6573206e6f74206d6174636820736c6f74005f82015250565b5f610e60601f83610bc6565b9150610e6b82610e2c565b602082019050919050565b5f6020820190508181035f830152610e8d81610e54565b9050919050565b7f536c6f7420646f6573206e6f74206578697374000000000000000000000000005f82015250565b5f610ec8601383610bc6565b9150610ed382610e94565b602082019050919050565b5f6020820190508181035f830152610ef581610ebc565b9050919050565b7f4e487b71000000000000000000000000000000000000000000000000000000005f52601160045260245ffd5b5f610f3382610b25565b9150610f3e83610b25565b9250828203905081811115610f5657610f55610efc565b5b92915050565b5f610f6682610b25565b9150610f7183610b25565b9250828201905080821115610f8957610f88610efc565b5b92915050565b5f606082019050610fa25f830186610d09565b610faf6020830185610d09565b610fbc6040830184610ce1565b949350505050565b7f4e487b71000000000000000000000000000000000000000000000000000000005f52602260045260245ffd5b5f600282049050600182168061100857607f821691505b60208210810361101b5761101a610fc4565b5b50919050565b7f496e73756666696369656e742062616c616e63650000000000000000000000005f82015250565b5f611055601483610bc6565b915061106082611021565b602082019050919050565b5f6020820190508181035f83015261108281611049565b9050919050565b7f4f6e6c792074686520636f6e7472616374206f776e65722063616e20706572665f8201527f6f726d207468697320616374696f6e0000000000000000000000000000000000602082015250565b5f6110e3602f83610bc6565b91506110ee82611089565b604082019050919050565b5f6020820190508181035f830152611110816110d7565b905091905056fea264697066735822122016e32d8e1494accaafb5197359251a72ac9bc37ad4abf829e356ceaf2b11903064736f6c63430008180033",
					"opcodes": "PUSH1 0x80 PUSH1 0x40 MSTORE PUSH0 PUSH1 0x3 SSTORE PUSH1 0x40 MLOAD DUP1 PUSH1 0x40 ADD PUSH1 0x40 MSTORE DUP1 PUSH1 0xB DUP2 MSTORE PUSH1 0x20 ADD PUSH32 0x504F4F4C20546F6B656E73000000000000000000000000000000000000000000 DUP2 MSTORE POP PUSH1 0x4 SWAP1 DUP2 PUSH3 0x4E SWAP2 SWAP1 PUSH3 0x34C JUMP JUMPDEST POP PUSH1 0x40 MLOAD DUP1 PUSH1 0x40 ADD PUSH1 0x40 MSTORE DUP1 PUSH1 0x4 DUP2 MSTORE PUSH1 0x20 ADD PUSH32 0x504F4F4C00000000000000000000000000000000000000000000000000000000 DUP2 MSTORE POP PUSH1 0x5 SWAP1 DUP2 PUSH3 0x95 SWAP2 SWAP1 PUSH3 0x34C JUMP JUMPDEST POP CALLVALUE DUP1 ISZERO PUSH3 0xA2 JUMPI PUSH0 DUP1 REVERT JUMPDEST POP CALLER PUSH0 DUP1 PUSH2 0x100 EXP DUP2 SLOAD DUP2 PUSH20 0xFFFFFFFFFFFFFFFFFFFFFFFFFFFFFFFFFFFFFFFF MUL NOT AND SWAP1 DUP4 PUSH20 0xFFFFFFFFFFFFFFFFFFFFFFFFFFFFFFFFFFFFFFFF AND MUL OR SWAP1 SSTORE POP PUSH3 0x430 JUMP JUMPDEST PUSH0 DUP2 MLOAD SWAP1 POP SWAP2 SWAP1 POP JUMP JUMPDEST PUSH32 0x4E487B7100000000000000000000000000000000000000000000000000000000 PUSH0 MSTORE PUSH1 0x41 PUSH1 0x4 MSTORE PUSH1 0x24 PUSH0 REVERT JUMPDEST PUSH32 0x4E487B7100000000000000000000000000000000000000000000000000000000 PUSH0 MSTORE PUSH1 0x22 PUSH1 0x4 MSTORE PUSH1 0x24 PUSH0 REVERT JUMPDEST PUSH0 PUSH1 0x2 DUP3 DIV SWAP1 POP PUSH1 0x1 DUP3 AND DUP1 PUSH3 0x164 JUMPI PUSH1 0x7F DUP3 AND SWAP2 POP JUMPDEST PUSH1 0x20 DUP3 LT DUP2 SUB PUSH3 0x17A JUMPI PUSH3 0x179 PUSH3 0x11F JUMP JUMPDEST JUMPDEST POP SWAP2 SWAP1 POP JUMP JUMPDEST PUSH0 DUP2 SWAP1 POP DUP2 PUSH0 MSTORE PUSH1 0x20 PUSH0 KECCAK256 SWAP1 POP SWAP2 SWAP1 POP JUMP JUMPDEST PUSH0 PUSH1 0x20 PUSH1 0x1F DUP4 ADD DIV SWAP1 POP SWAP2 SWAP1 POP JUMP JUMPDEST PUSH0 DUP3 DUP3 SHL SWAP1 POP SWAP3 SWAP2 POP POP JUMP JUMPDEST PUSH0 PUSH1 0x8 DUP4 MUL PUSH3 0x1DE PUSH32 0xFFFFFFFFFFFFFFFFFFFFFFFFFFFFFFFFFFFFFFFFFFFFFFFFFFFFFFFFFFFFFFFF DUP3 PUSH3 0x1A1 JUMP JUMPDEST PUSH3 0x1EA DUP7 DUP4 PUSH3 0x1A1 JUMP JUMPDEST SWAP6 POP DUP1 NOT DUP5 AND SWAP4 POP DUP1 DUP7 AND DUP5 OR SWAP3 POP POP POP SWAP4 SWAP3 POP POP POP JUMP JUMPDEST PUSH0 DUP2 SWAP1 POP SWAP2 SWAP1 POP JUMP JUMPDEST PUSH0 DUP2 SWAP1 POP SWAP2 SWAP1 POP JUMP JUMPDEST PUSH0 PUSH3 0x234 PUSH3 0x22E PUSH3 0x228 DUP5 PUSH3 0x202 JUMP JUMPDEST PUSH3 0x20B JUMP JUMPDEST PUSH3 0x202 JUMP JUMPDEST SWAP1 POP SWAP2 SWAP1 POP JUMP JUMPDEST PUSH0 DUP2 SWAP1 POP SWAP2 SWAP1 POP JUMP JUMPDEST PUSH3 0x24F DUP4 PUSH3 0x214 JUMP JUMPDEST PUSH3 0x267 PUSH3 0x25E DUP3 PUSH3 0x23B JUMP JUMPDEST DUP5 DUP5 SLOAD PUSH3 0x1AD JUMP JUMPDEST DUP3 SSTORE POP POP POP POP JUMP JUMPDEST PUSH0 SWAP1 JUMP JUMPDEST PUSH3 0x27D PUSH3 0x26F JUMP JUMPDEST PUSH3 0x28A DUP2 DUP5 DUP5 PUSH3 0x244 JUMP JUMPDEST POP POP POP JUMP JUMPDEST JUMPDEST DUP2 DUP2 LT ISZERO PUSH3 0x2B1 JUMPI PUSH3 0x2A5 PUSH0 DUP3 PUSH3 0x273 JUMP JUMPDEST PUSH1 0x1 DUP2 ADD SWAP1 POP PUSH3 0x290 JUMP JUMPDEST POP POP JUMP JUMPDEST PUSH1 0x1F DUP3 GT ISZERO PUSH3 0x300 JUMPI PUSH3 0x2CA DUP2 PUSH3 0x180 JUMP JUMPDEST PUSH3 0x2D5 DUP5 PUSH3 0x192 JUMP JUMPDEST DUP2 ADD PUSH1 0x20 DUP6 LT ISZERO PUSH3 0x2E5 JUMPI DUP2 SWAP1 POP JUMPDEST PUSH3 0x2FD PUSH3 0x2F4 DUP6 PUSH3 0x192 JUMP JUMPDEST DUP4 ADD DUP3 PUSH3 0x28F JUMP JUMPDEST POP POP JUMPDEST POP POP POP JUMP JUMPDEST PUSH0 DUP3 DUP3 SHR SWAP1 POP SWAP3 SWAP2 POP POP JUMP JUMPDEST PUSH0 PUSH3 0x322 PUSH0 NOT DUP5 PUSH1 0x8 MUL PUSH3 0x305 JUMP JUMPDEST NOT DUP1 DUP4 AND SWAP2 POP POP SWAP3 SWAP2 POP POP JUMP JUMPDEST PUSH0 PUSH3 0x33C DUP4 DUP4 PUSH3 0x311 JUMP JUMPDEST SWAP2 POP DUP3 PUSH1 0x2 MUL DUP3 OR SWAP1 POP SWAP3 SWAP2 POP POP JUMP JUMPDEST PUSH3 0x357 DUP3 PUSH3 0xE8 JUMP JUMPDEST PUSH8 0xFFFFFFFFFFFFFFFF DUP2 GT ISZERO PUSH3 0x373 JUMPI PUSH3 0x372 PUSH3 0xF2 JUMP JUMPDEST JUMPDEST PUSH3 0x37F DUP3 SLOAD PUSH3 0x14C JUMP JUMPDEST PUSH3 0x38C DUP3 DUP3 DUP6 PUSH3 0x2B5 JUMP JUMPDEST PUSH0 PUSH1 0x20 SWAP1 POP PUSH1 0x1F DUP4 GT PUSH1 0x1 DUP2 EQ PUSH3 0x3C2 JUMPI PUSH0 DUP5 ISZERO PUSH3 0x3AD JUMPI DUP3 DUP8 ADD MLOAD SWAP1 POP JUMPDEST PUSH3 0x3B9 DUP6 DUP3 PUSH3 0x32F JUMP JUMPDEST DUP7 SSTORE POP PUSH3 0x428 JUMP JUMPDEST PUSH1 0x1F NOT DUP5 AND PUSH3 0x3D2 DUP7 PUSH3 0x180 JUMP JUMPDEST PUSH0 JUMPDEST DUP3 DUP2 LT ISZERO PUSH3 0x3FB JUMPI DUP5 DUP10 ADD MLOAD DUP3 SSTORE PUSH1 0x1 DUP3 ADD SWAP2 POP PUSH1 0x20 DUP6 ADD SWAP5 POP PUSH1 0x20 DUP2 ADD SWAP1 POP PUSH3 0x3D4 JUMP JUMPDEST DUP7 DUP4 LT ISZERO PUSH3 0x41B JUMPI DUP5 DUP10 ADD MLOAD PUSH3 0x417 PUSH1 0x1F DUP10 AND DUP3 PUSH3 0x311 JUMP JUMPDEST DUP4 SSTORE POP JUMPDEST PUSH1 0x1 PUSH1 0x2 DUP9 MUL ADD DUP9 SSTORE POP POP POP JUMPDEST POP POP POP POP POP POP JUMP JUMPDEST PUSH2 0x114D DUP1 PUSH3 0x43E PUSH0 CODECOPY PUSH0 RETURN INVALID PUSH1 0x80 PUSH1 0x40 MSTORE CALLVALUE DUP1 ISZERO PUSH2 0xF JUMPI PUSH0 DUP1 REVERT JUMPDEST POP PUSH1 0x4 CALLDATASIZE LT PUSH2 0x9C JUMPI PUSH0 CALLDATALOAD PUSH1 0xE0 SHR DUP1 PUSH4 0x8DA5CB5B GT PUSH2 0x64 JUMPI DUP1 PUSH4 0x8DA5CB5B EQ PUSH2 0x144 JUMPI DUP1 PUSH4 0x95D89B41 EQ PUSH2 0x162 JUMPI DUP1 PUSH4 0xA0712D68 EQ PUSH2 0x180 JUMPI DUP1 PUSH4 0xE890E45E EQ PUSH2 0x19C JUMPI DUP1 PUSH4 0xFB44BA24 EQ PUSH2 0x1CC JUMPI PUSH2 0x9C JUMP JUMPDEST DUP1 PUSH4 0x411B252 EQ PUSH2 0xA0 JUMPI DUP1 PUSH4 0x6FDDE03 EQ PUSH2 0xBC JUMPI DUP1 PUSH4 0x23B872DD EQ PUSH2 0xDA JUMPI DUP1 PUSH4 0x27E235E3 EQ PUSH2 0xF6 JUMPI DUP1 PUSH4 0x6EA667CD EQ PUSH2 0x126 JUMPI JUMPDEST PUSH0 DUP1 REVERT JUMPDEST PUSH2 0xBA PUSH1 0x4 DUP1 CALLDATASIZE SUB DUP2 ADD SWAP1 PUSH2 0xB5 SWAP2 SWAP1 PUSH2 0xB58 JUMP JUMPDEST PUSH2 0x1E8 JUMP JUMPDEST STOP JUMPDEST PUSH2 0xC4 PUSH2 0x55F JUMP JUMPDEST PUSH1 0x40 MLOAD PUSH2 0xD1 SWAP2 SWAP1 PUSH2 0xC46 JUMP JUMPDEST PUSH1 0x40 MLOAD DUP1 SWAP2 SUB SWAP1 RETURN JUMPDEST PUSH2 0xF4 PUSH1 0x4 DUP1 CALLDATASIZE SUB DUP2 ADD SWAP1 PUSH2 0xEF SWAP2 SWAP1 PUSH2 0xC66 JUMP JUMPDEST PUSH2 0x5EB JUMP JUMPDEST STOP JUMPDEST PUSH2 0x110 PUSH1 0x4 DUP1 CALLDATASIZE SUB DUP2 ADD SWAP1 PUSH2 0x10B SWAP2 SWAP1 PUSH2 0xCB6 JUMP JUMPDEST PUSH2 0x716 JUMP JUMPDEST PUSH1 0x40 MLOAD PUSH2 0x11D SWAP2 SWAP1 PUSH2 0xCF0 JUMP JUMPDEST PUSH1 0x40 MLOAD DUP1 SWAP2 SUB SWAP1 RETURN JUMPDEST PUSH2 0x12E PUSH2 0x72B JUMP JUMPDEST PUSH1 0x40 MLOAD PUSH2 0x13B SWAP2 SWAP1 PUSH2 0xCF0 JUMP JUMPDEST PUSH1 0x40 MLOAD DUP1 SWAP2 SUB SWAP1 RETURN JUMPDEST PUSH2 0x14C PUSH2 0x731 JUMP JUMPDEST PUSH1 0x40 MLOAD PUSH2 0x159 SWAP2 SWAP1 PUSH2 0xD18 JUMP JUMPDEST PUSH1 0x40 MLOAD DUP1 SWAP2 SUB SWAP1 RETURN JUMPDEST PUSH2 0x16A PUSH2 0x754 JUMP JUMPDEST PUSH1 0x40 MLOAD PUSH2 0x177 SWAP2 SWAP1 PUSH2 0xC46 JUMP JUMPDEST PUSH1 0x40 MLOAD DUP1 SWAP2 SUB SWAP1 RETURN JUMPDEST PUSH2 0x19A PUSH1 0x4 DUP1 CALLDATASIZE SUB DUP2 ADD SWAP1 PUSH2 0x195 SWAP2 SWAP1 PUSH2 0xD31 JUMP JUMPDEST PUSH2 0x7E0 JUMP JUMPDEST STOP JUMPDEST PUSH2 0x1B6 PUSH1 0x4 DUP1 CALLDATASIZE SUB DUP2 ADD SWAP1 PUSH2 0x1B1 SWAP2 SWAP1 PUSH2 0xD31 JUMP JUMPDEST PUSH2 0x8C3 JUMP JUMPDEST PUSH1 0x40 MLOAD PUSH2 0x1C3 SWAP2 SWAP1 PUSH2 0xD18 JUMP JUMPDEST PUSH1 0x40 MLOAD DUP1 SWAP2 SUB SWAP1 RETURN JUMPDEST PUSH2 0x1E6 PUSH1 0x4 DUP1 CALLDATASIZE SUB DUP2 ADD SWAP1 PUSH2 0x1E1 SWAP2 SWAP1 PUSH2 0xCB6 JUMP JUMPDEST PUSH2 0x8F3 JUMP JUMPDEST STOP JUMPDEST PUSH1 0x2 PUSH0 DUP4 DUP2 MSTORE PUSH1 0x20 ADD SWAP1 DUP2 MSTORE PUSH1 0x20 ADD PUSH0 KECCAK256 PUSH0 SWAP1 SLOAD SWAP1 PUSH2 0x100 EXP SWAP1 DIV PUSH20 0xFFFFFFFFFFFFFFFFFFFFFFFFFFFFFFFFFFFFFFFF AND PUSH0 PUSH20 0xFFFFFFFFFFFFFFFFFFFFFFFFFFFFFFFFFFFFFFFF AND DUP2 PUSH20 0xFFFFFFFFFFFFFFFFFFFFFFFFFFFFFFFFFFFFFFFF AND SUB PUSH2 0x287 JUMPI PUSH1 0x40 MLOAD PUSH32 0x8C379A000000000000000000000000000000000000000000000000000000000 DUP2 MSTORE PUSH1 0x4 ADD PUSH2 0x27E SWAP1 PUSH2 0xDA6 JUMP JUMPDEST PUSH1 0x40 MLOAD DUP1 SWAP2 SUB SWAP1 REVERT JUMPDEST DUP2 PUSH1 0x1 PUSH0 ADDRESS PUSH20 0xFFFFFFFFFFFFFFFFFFFFFFFFFFFFFFFFFFFFFFFF AND PUSH20 0xFFFFFFFFFFFFFFFFFFFFFFFFFFFFFFFFFFFFFFFF AND DUP2 MSTORE PUSH1 0x20 ADD SWAP1 DUP2 MSTORE PUSH1 0x20 ADD PUSH0 KECCAK256 SLOAD LT ISZERO PUSH2 0x307 JUMPI PUSH1 0x40 MLOAD PUSH32 0x8C379A000000000000000000000000000000000000000000000000000000000 DUP2 MSTORE PUSH1 0x4 ADD PUSH2 0x2FE SWAP1 PUSH2 0xE0E JUMP JUMPDEST PUSH1 0x40 MLOAD DUP1 SWAP2 SUB SWAP1 REVERT JUMPDEST DUP4 PUSH20 0xFFFFFFFFFFFFFFFFFFFFFFFFFFFFFFFFFFFFFFFF AND PUSH1 0x2 PUSH0 DUP6 DUP2 MSTORE PUSH1 0x20 ADD SWAP1 DUP2 MSTORE PUSH1 0x20 ADD PUSH0 KECCAK256 PUSH0 SWAP1 SLOAD SWAP1 PUSH2 0x100 EXP SWAP1 DIV PUSH20 0xFFFFFFFFFFFFFFFFFFFFFFFFFFFFFFFFFFFFFFFF AND PUSH20 0xFFFFFFFFFFFFFFFFFFFFFFFFFFFFFFFFFFFFFFFF AND EQ PUSH2 0x3A5 JUMPI PUSH1 0x40 MLOAD PUSH32 0x8C379A000000000000000000000000000000000000000000000000000000000 DUP2 MSTORE PUSH1 0x4 ADD PUSH2 0x39C SWAP1 PUSH2 0xE76 JUMP JUMPDEST PUSH1 0x40 MLOAD DUP1 SWAP2 SUB SWAP1 REVERT JUMPDEST PUSH0 PUSH20 0xFFFFFFFFFFFFFFFFFFFFFFFFFFFFFFFFFFFFFFFF AND PUSH1 0x2 PUSH0 DUP6 DUP2 MSTORE PUSH1 0x20 ADD SWAP1 DUP2 MSTORE PUSH1 0x20 ADD PUSH0 KECCAK256 PUSH0 SWAP1 SLOAD SWAP1 PUSH2 0x100 EXP SWAP1 DIV PUSH20 0xFFFFFFFFFFFFFFFFFFFFFFFFFFFFFFFFFFFFFFFF AND PUSH20 0xFFFFFFFFFFFFFFFFFFFFFFFFFFFFFFFFFFFFFFFF AND SUB PUSH2 0x443 JUMPI PUSH1 0x40 MLOAD PUSH32 0x8C379A000000000000000000000000000000000000000000000000000000000 DUP2 MSTORE PUSH1 0x4 ADD PUSH2 0x43A SWAP1 PUSH2 0xEDE JUMP JUMPDEST PUSH1 0x40 MLOAD DUP1 SWAP2 SUB SWAP1 REVERT JUMPDEST DUP2 PUSH1 0x1 PUSH0 ADDRESS PUSH20 0xFFFFFFFFFFFFFFFFFFFFFFFFFFFFFFFFFFFFFFFF AND PUSH20 0xFFFFFFFFFFFFFFFFFFFFFFFFFFFFFFFFFFFFFFFF AND DUP2 MSTORE PUSH1 0x20 ADD SWAP1 DUP2 MSTORE PUSH1 0x20 ADD PUSH0 KECCAK256 PUSH0 DUP3 DUP3 SLOAD PUSH2 0x48F SWAP2 SWAP1 PUSH2 0xF29 JUMP JUMPDEST SWAP3 POP POP DUP2 SWAP1 SSTORE POP DUP2 PUSH1 0x1 PUSH0 DUP8 PUSH20 0xFFFFFFFFFFFFFFFFFFFFFFFFFFFFFFFFFFFFFFFF AND PUSH20 0xFFFFFFFFFFFFFFFFFFFFFFFFFFFFFFFFFFFFFFFF AND DUP2 MSTORE PUSH1 0x20 ADD SWAP1 DUP2 MSTORE PUSH1 0x20 ADD PUSH0 KECCAK256 PUSH0 DUP3 DUP3 SLOAD PUSH2 0x4E2 SWAP2 SWAP1 PUSH2 0xF5C JUMP JUMPDEST SWAP3 POP POP DUP2 SWAP1 SSTORE POP PUSH0 DUP5 SWAP1 POP DUP1 PUSH20 0xFFFFFFFFFFFFFFFFFFFFFFFFFFFFFFFFFFFFFFFF AND PUSH4 0x23B872DD DUP8 ADDRESS DUP7 PUSH1 0x40 MLOAD DUP5 PUSH4 0xFFFFFFFF AND PUSH1 0xE0 SHL DUP2 MSTORE PUSH1 0x4 ADD PUSH2 0x52A SWAP4 SWAP3 SWAP2 SWAP1 PUSH2 0xF8F JUMP JUMPDEST PUSH0 PUSH1 0x40 MLOAD DUP1 DUP4 SUB DUP2 PUSH0 DUP8 DUP1 EXTCODESIZE ISZERO DUP1 ISZERO PUSH2 0x541 JUMPI PUSH0 DUP1 REVERT JUMPDEST POP GAS CALL ISZERO DUP1 ISZERO PUSH2 0x553 JUMPI RETURNDATASIZE PUSH0 DUP1 RETURNDATACOPY RETURNDATASIZE PUSH0 REVERT JUMPDEST POP POP POP POP POP POP POP POP POP POP JUMP JUMPDEST PUSH1 0x4 DUP1 SLOAD PUSH2 0x56C SWAP1 PUSH2 0xFF1 JUMP JUMPDEST DUP1 PUSH1 0x1F ADD PUSH1 0x20 DUP1 SWAP2 DIV MUL PUSH1 0x20 ADD PUSH1 0x40 MLOAD SWAP1 DUP2 ADD PUSH1 0x40 MSTORE DUP1 SWAP3 SWAP2 SWAP1 DUP2 DUP2 MSTORE PUSH1 0x20 ADD DUP3 DUP1 SLOAD PUSH2 0x598 SWAP1 PUSH2 0xFF1 JUMP JUMPDEST DUP1 ISZERO PUSH2 0x5E3 JUMPI DUP1 PUSH1 0x1F LT PUSH2 0x5BA JUMPI PUSH2 0x100 DUP1 DUP4 SLOAD DIV MUL DUP4 MSTORE SWAP2 PUSH1 0x20 ADD SWAP2 PUSH2 0x5E3 JUMP JUMPDEST DUP3 ADD SWAP2 SWAP1 PUSH0 MSTORE PUSH1 0x20 PUSH0 KECCAK256 SWAP1 JUMPDEST DUP2 SLOAD DUP2 MSTORE SWAP1 PUSH1 0x1 ADD SWAP1 PUSH1 0x20 ADD DUP1 DUP4 GT PUSH2 0x5C6 JUMPI DUP3 SWAP1 SUB PUSH1 0x1F AND DUP3 ADD SWAP2 JUMPDEST POP POP POP POP POP DUP2 JUMP JUMPDEST DUP1 PUSH1 0x1 PUSH0 DUP6 PUSH20 0xFFFFFFFFFFFFFFFFFFFFFFFFFFFFFFFFFFFFFFFF AND PUSH20 0xFFFFFFFFFFFFFFFFFFFFFFFFFFFFFFFFFFFFFFFF AND DUP2 MSTORE PUSH1 0x20 ADD SWAP1 DUP2 MSTORE PUSH1 0x20 ADD PUSH0 KECCAK256 SLOAD LT ISZERO PUSH2 0x66B JUMPI PUSH1 0x40 MLOAD PUSH32 0x8C379A000000000000000000000000000000000000000000000000000000000 DUP2 MSTORE PUSH1 0x4 ADD PUSH2 0x662 SWAP1 PUSH2 0x106B JUMP JUMPDEST PUSH1 0x40 MLOAD DUP1 SWAP2 SUB SWAP1 REVERT JUMPDEST DUP1 PUSH1 0x1 PUSH0 DUP6 PUSH20 0xFFFFFFFFFFFFFFFFFFFFFFFFFFFFFFFFFFFFFFFF AND PUSH20 0xFFFFFFFFFFFFFFFFFFFFFFFFFFFFFFFFFFFFFFFF AND DUP2 MSTORE PUSH1 0x20 ADD SWAP1 DUP2 MSTORE PUSH1 0x20 ADD PUSH0 KECCAK256 PUSH0 DUP3 DUP3 SLOAD PUSH2 0x6B7 SWAP2 SWAP1 PUSH2 0xF29 JUMP JUMPDEST SWAP3 POP POP DUP2 SWAP1 SSTORE POP DUP1 PUSH1 0x1 PUSH0 DUP5 PUSH20 0xFFFFFFFFFFFFFFFFFFFFFFFFFFFFFFFFFFFFFFFF AND PUSH20 0xFFFFFFFFFFFFFFFFFFFFFFFFFFFFFFFFFFFFFFFF AND DUP2 MSTORE PUSH1 0x20 ADD SWAP1 DUP2 MSTORE PUSH1 0x20 ADD PUSH0 KECCAK256 PUSH0 DUP3 DUP3 SLOAD PUSH2 0x70A SWAP2 SWAP1 PUSH2 0xF5C JUMP JUMPDEST SWAP3 POP POP DUP2 SWAP1 SSTORE POP POP POP POP JUMP JUMPDEST PUSH1 0x1 PUSH1 0x20 MSTORE DUP1 PUSH0 MSTORE PUSH1 0x40 PUSH0 KECCAK256 PUSH0 SWAP2 POP SWAP1 POP SLOAD DUP2 JUMP JUMPDEST PUSH1 0x3 SLOAD DUP2 JUMP JUMPDEST PUSH0 DUP1 SLOAD SWAP1 PUSH2 0x100 EXP SWAP1 DIV PUSH20 0xFFFFFFFFFFFFFFFFFFFFFFFFFFFFFFFFFFFFFFFF AND DUP2 JUMP JUMPDEST PUSH1 0x5 DUP1 SLOAD PUSH2 0x761 SWAP1 PUSH2 0xFF1 JUMP JUMPDEST DUP1 PUSH1 0x1F ADD PUSH1 0x20 DUP1 SWAP2 DIV MUL PUSH1 0x20 ADD PUSH1 0x40 MLOAD SWAP1 DUP2 ADD PUSH1 0x40 MSTORE DUP1 SWAP3 SWAP2 SWAP1 DUP2 DUP2 MSTORE PUSH1 0x20 ADD DUP3 DUP1 SLOAD PUSH2 0x78D SWAP1 PUSH2 0xFF1 JUMP JUMPDEST DUP1 ISZERO PUSH2 0x7D8 JUMPI DUP1 PUSH1 0x1F LT PUSH2 0x7AF JUMPI PUSH2 0x100 DUP1 DUP4 SLOAD DIV MUL DUP4 MSTORE SWAP2 PUSH1 0x20 ADD SWAP2 PUSH2 0x7D8 JUMP JUMPDEST DUP3 ADD SWAP2 SWAP1 PUSH0 MSTORE PUSH1 0x20 PUSH0 KECCAK256 SWAP1 JUMPDEST DUP2 SLOAD DUP2 MSTORE SWAP1 PUSH1 0x1 ADD SWAP1 PUSH1 0x20 ADD DUP1 DUP4 GT PUSH2 0x7BB JUMPI DUP3 SWAP1 SUB PUSH1 0x1F AND DUP3 ADD SWAP2 JUMPDEST POP POP POP POP POP DUP2 JUMP JUMPDEST PUSH0 DUP1 SLOAD SWAP1 PUSH2 0x100 EXP SWAP1 DIV PUSH20 0xFFFFFFFFFFFFFFFFFFFFFFFFFFFFFFFFFFFFFFFF AND PUSH20 0xFFFFFFFFFFFFFFFFFFFFFFFFFFFFFFFFFFFFFFFF AND CALLER PUSH20 0xFFFFFFFFFFFFFFFFFFFFFFFFFFFFFFFFFFFFFFFF AND EQ PUSH2 0x86D JUMPI PUSH1 0x40 MLOAD PUSH32 0x8C379A000000000000000000000000000000000000000000000000000000000 DUP2 MSTORE PUSH1 0x4 ADD PUSH2 0x864 SWAP1 PUSH2 0x10F9 JUMP JUMPDEST PUSH1 0x40 MLOAD DUP1 SWAP2 SUB SWAP1 REVERT JUMPDEST DUP1 PUSH1 0x1 PUSH0 ADDRESS PUSH20 0xFFFFFFFFFFFFFFFFFFFFFFFFFFFFFFFFFFFFFFFF AND PUSH20 0xFFFFFFFFFFFFFFFFFFFFFFFFFFFFFFFFFFFFFFFF AND DUP2 MSTORE PUSH1 0x20 ADD SWAP1 DUP2 MSTORE PUSH1 0x20 ADD PUSH0 KECCAK256 PUSH0 DUP3 DUP3 SLOAD PUSH2 0x8B9 SWAP2 SWAP1 PUSH2 0xF5C JUMP JUMPDEST SWAP3 POP POP DUP2 SWAP1 SSTORE POP POP JUMP JUMPDEST PUSH1 0x2 PUSH1 0x20 MSTORE DUP1 PUSH0 MSTORE PUSH1 0x40 PUSH0 KECCAK256 PUSH0 SWAP2 POP SLOAD SWAP1 PUSH2 0x100 EXP SWAP1 DIV PUSH20 0xFFFFFFFFFFFFFFFFFFFFFFFFFFFFFFFFFFFFFFFF AND DUP2 JUMP JUMPDEST PUSH0 DUP1 SLOAD SWAP1 PUSH2 0x100 EXP SWAP1 DIV PUSH20 0xFFFFFFFFFFFFFFFFFFFFFFFFFFFFFFFFFFFFFFFF AND PUSH20 0xFFFFFFFFFFFFFFFFFFFFFFFFFFFFFFFFFFFFFFFF AND CALLER PUSH20 0xFFFFFFFFFFFFFFFFFFFFFFFFFFFFFFFFFFFFFFFF AND EQ PUSH2 0x980 JUMPI PUSH1 0x40 MLOAD PUSH32 0x8C379A000000000000000000000000000000000000000000000000000000000 DUP2 MSTORE PUSH1 0x4 ADD PUSH2 0x977 SWAP1 PUSH2 0x10F9 JUMP JUMPDEST PUSH1 0x40 MLOAD DUP1 SWAP2 SUB SWAP1 REVERT JUMPDEST DUP1 PUSH0 PUSH20 0xFFFFFFFFFFFFFFFFFFFFFFFFFFFFFFFFFFFFFFFF AND DUP2 PUSH20 0xFFFFFFFFFFFFFFFFFFFFFFFFFFFFFFFFFFFFFFFF AND SUB PUSH2 0x9EF JUMPI PUSH1 0x40 MLOAD PUSH32 0x8C379A000000000000000000000000000000000000000000000000000000000 DUP2 MSTORE PUSH1 0x4 ADD PUSH2 0x9E6 SWAP1 PUSH2 0xDA6 JUMP JUMPDEST PUSH1 0x40 MLOAD DUP1 SWAP2 SUB SWAP1 REVERT JUMPDEST PUSH0 PUSH1 0x1 PUSH1 0x3 SLOAD PUSH2 0x9FF SWAP2 SWAP1 PUSH2 0xF5C JUMP JUMPDEST SWAP1 POP DUP3 PUSH1 0x2 PUSH0 DUP4 DUP2 MSTORE PUSH1 0x20 ADD SWAP1 DUP2 MSTORE PUSH1 0x20 ADD PUSH0 KECCAK256 PUSH0 PUSH2 0x100 EXP DUP2 SLOAD DUP2 PUSH20 0xFFFFFFFFFFFFFFFFFFFFFFFFFFFFFFFFFFFFFFFF MUL NOT AND SWAP1 DUP4 PUSH20 0xFFFFFFFFFFFFFFFFFFFFFFFFFFFFFFFFFFFFFFFF AND MUL OR SWAP1 SSTORE POP PUSH0 DUP4 SWAP1 POP DUP1 PUSH20 0xFFFFFFFFFFFFFFFFFFFFFFFFFFFFFFFFFFFFFFFF AND PUSH4 0xD5783659 DUP4 PUSH1 0x40 MLOAD DUP3 PUSH4 0xFFFFFFFF AND PUSH1 0xE0 SHL DUP2 MSTORE PUSH1 0x4 ADD PUSH2 0xA8D SWAP2 SWAP1 PUSH2 0xCF0 JUMP JUMPDEST PUSH0 PUSH1 0x40 MLOAD DUP1 DUP4 SUB DUP2 PUSH0 DUP8 DUP1 EXTCODESIZE ISZERO DUP1 ISZERO PUSH2 0xAA4 JUMPI PUSH0 DUP1 REVERT JUMPDEST POP GAS CALL ISZERO DUP1 ISZERO PUSH2 0xAB6 JUMPI RETURNDATASIZE PUSH0 DUP1 RETURNDATACOPY RETURNDATASIZE PUSH0 REVERT JUMPDEST POP POP POP POP DUP2 PUSH1 0x3 DUP2 SWAP1 SSTORE POP POP POP POP POP JUMP JUMPDEST PUSH0 DUP1 REVERT JUMPDEST PUSH0 PUSH20 0xFFFFFFFFFFFFFFFFFFFFFFFFFFFFFFFFFFFFFFFF DUP3 AND SWAP1 POP SWAP2 SWAP1 POP JUMP JUMPDEST PUSH0 PUSH2 0xAF4 DUP3 PUSH2 0xACB JUMP JUMPDEST SWAP1 POP SWAP2 SWAP1 POP JUMP JUMPDEST PUSH2 0xB04 DUP2 PUSH2 0xAEA JUMP JUMPDEST DUP2 EQ PUSH2 0xB0E JUMPI PUSH0 DUP1 REVERT JUMPDEST POP JUMP JUMPDEST PUSH0 DUP2 CALLDATALOAD SWAP1 POP PUSH2 0xB1F DUP2 PUSH2 0xAFB JUMP JUMPDEST SWAP3 SWAP2 POP POP JUMP JUMPDEST PUSH0 DUP2 SWAP1 POP SWAP2 SWAP1 POP JUMP JUMPDEST PUSH2 0xB37 DUP2 PUSH2 0xB25 JUMP JUMPDEST DUP2 EQ PUSH2 0xB41 JUMPI PUSH0 DUP1 REVERT JUMPDEST POP JUMP JUMPDEST PUSH0 DUP2 CALLDATALOAD SWAP1 POP PUSH2 0xB52 DUP2 PUSH2 0xB2E JUMP JUMPDEST SWAP3 SWAP2 POP POP JUMP JUMPDEST PUSH0 DUP1 PUSH0 DUP1 PUSH1 0x80 DUP6 DUP8 SUB SLT ISZERO PUSH2 0xB70 JUMPI PUSH2 0xB6F PUSH2 0xAC7 JUMP JUMPDEST JUMPDEST PUSH0 PUSH2 0xB7D DUP8 DUP3 DUP9 ADD PUSH2 0xB11 JUMP JUMPDEST SWAP5 POP POP PUSH1 0x20 PUSH2 0xB8E DUP8 DUP3 DUP9 ADD PUSH2 0xB11 JUMP JUMPDEST SWAP4 POP POP PUSH1 0x40 PUSH2 0xB9F DUP8 DUP3 DUP9 ADD PUSH2 0xB44 JUMP JUMPDEST SWAP3 POP POP PUSH1 0x60 PUSH2 0xBB0 DUP8 DUP3 DUP9 ADD PUSH2 0xB44 JUMP JUMPDEST SWAP2 POP POP SWAP3 SWAP6 SWAP2 SWAP5 POP SWAP3 POP JUMP JUMPDEST PUSH0 DUP2 MLOAD SWAP1 POP SWAP2 SWAP1 POP JUMP JUMPDEST PUSH0 DUP3 DUP3 MSTORE PUSH1 0x20 DUP3 ADD SWAP1 POP SWAP3 SWAP2 POP POP JUMP JUMPDEST PUSH0 JUMPDEST DUP4 DUP2 LT ISZERO PUSH2 0xBF3 JUMPI DUP1 DUP3 ADD MLOAD DUP2 DUP5 ADD MSTORE PUSH1 0x20 DUP2 ADD SWAP1 POP PUSH2 0xBD8 JUMP JUMPDEST PUSH0 DUP5 DUP5 ADD MSTORE POP POP POP POP JUMP JUMPDEST PUSH0 PUSH1 0x1F NOT PUSH1 0x1F DUP4 ADD AND SWAP1 POP SWAP2 SWAP1 POP JUMP JUMPDEST PUSH0 PUSH2 0xC18 DUP3 PUSH2 0xBBC JUMP JUMPDEST PUSH2 0xC22 DUP2 DUP6 PUSH2 0xBC6 JUMP JUMPDEST SWAP4 POP PUSH2 0xC32 DUP2 DUP6 PUSH1 0x20 DUP7 ADD PUSH2 0xBD6 JUMP JUMPDEST PUSH2 0xC3B DUP2 PUSH2 0xBFE JUMP JUMPDEST DUP5 ADD SWAP2 POP POP SWAP3 SWAP2 POP POP JUMP JUMPDEST PUSH0 PUSH1 0x20 DUP3 ADD SWAP1 POP DUP2 DUP2 SUB PUSH0 DUP4 ADD MSTORE PUSH2 0xC5E DUP2 DUP5 PUSH2 0xC0E JUMP JUMPDEST SWAP1 POP SWAP3 SWAP2 POP POP JUMP JUMPDEST PUSH0 DUP1 PUSH0 PUSH1 0x60 DUP5 DUP7 SUB SLT ISZERO PUSH2 0xC7D JUMPI PUSH2 0xC7C PUSH2 0xAC7 JUMP JUMPDEST JUMPDEST PUSH0 PUSH2 0xC8A DUP7 DUP3 DUP8 ADD PUSH2 0xB11 JUMP JUMPDEST SWAP4 POP POP PUSH1 0x20 PUSH2 0xC9B DUP7 DUP3 DUP8 ADD PUSH2 0xB11 JUMP JUMPDEST SWAP3 POP POP PUSH1 0x40 PUSH2 0xCAC DUP7 DUP3 DUP8 ADD PUSH2 0xB44 JUMP JUMPDEST SWAP2 POP POP SWAP3 POP SWAP3 POP SWAP3 JUMP JUMPDEST PUSH0 PUSH1 0x20 DUP3 DUP5 SUB SLT ISZERO PUSH2 0xCCB JUMPI PUSH2 0xCCA PUSH2 0xAC7 JUMP JUMPDEST JUMPDEST PUSH0 PUSH2 0xCD8 DUP5 DUP3 DUP6 ADD PUSH2 0xB11 JUMP JUMPDEST SWAP2 POP POP SWAP3 SWAP2 POP POP JUMP JUMPDEST PUSH2 0xCEA DUP2 PUSH2 0xB25 JUMP JUMPDEST DUP3 MSTORE POP POP JUMP JUMPDEST PUSH0 PUSH1 0x20 DUP3 ADD SWAP1 POP PUSH2 0xD03 PUSH0 DUP4 ADD DUP5 PUSH2 0xCE1 JUMP JUMPDEST SWAP3 SWAP2 POP POP JUMP JUMPDEST PUSH2 0xD12 DUP2 PUSH2 0xAEA JUMP JUMPDEST DUP3 MSTORE POP POP JUMP JUMPDEST PUSH0 PUSH1 0x20 DUP3 ADD SWAP1 POP PUSH2 0xD2B PUSH0 DUP4 ADD DUP5 PUSH2 0xD09 JUMP JUMPDEST SWAP3 SWAP2 POP POP JUMP JUMPDEST PUSH0 PUSH1 0x20 DUP3 DUP5 SUB SLT ISZERO PUSH2 0xD46 JUMPI PUSH2 0xD45 PUSH2 0xAC7 JUMP JUMPDEST JUMPDEST PUSH0 PUSH2 0xD53 DUP5 DUP3 DUP6 ADD PUSH2 0xB44 JUMP JUMPDEST SWAP2 POP POP SWAP3 SWAP2 POP POP JUMP JUMPDEST PUSH32 0x496E76616C696420616464726573730000000000000000000000000000000000 PUSH0 DUP3 ADD MSTORE POP JUMP JUMPDEST PUSH0 PUSH2 0xD90 PUSH1 0xF DUP4 PUSH2 0xBC6 JUMP JUMPDEST SWAP2 POP PUSH2 0xD9B DUP3 PUSH2 0xD5C JUMP JUMPDEST PUSH1 0x20 DUP3 ADD SWAP1 POP SWAP2 SWAP1 POP JUMP JUMPDEST PUSH0 PUSH1 0x20 DUP3 ADD SWAP1 POP DUP2 DUP2 SUB PUSH0 DUP4 ADD MSTORE PUSH2 0xDBD DUP2 PUSH2 0xD84 JUMP JUMPDEST SWAP1 POP SWAP2 SWAP1 POP JUMP JUMPDEST PUSH32 0x4E6F7420656E6F75676820746F6B656E7320696E20636F6E7472616374000000 PUSH0 DUP3 ADD MSTORE POP JUMP JUMPDEST PUSH0 PUSH2 0xDF8 PUSH1 0x1D DUP4 PUSH2 0xBC6 JUMP JUMPDEST SWAP2 POP PUSH2 0xE03 DUP3 PUSH2 0xDC4 JUMP JUMPDEST PUSH1 0x20 DUP3 ADD SWAP1 POP SWAP2 SWAP1 POP JUMP JUMPDEST PUSH0 PUSH1 0x20 DUP3 ADD SWAP1 POP DUP2 DUP2 SUB PUSH0 DUP4 ADD MSTORE PUSH2 0xE25 DUP2 PUSH2 0xDEC JUMP JUMPDEST SWAP1 POP SWAP2 SWAP1 POP JUMP JUMPDEST PUSH32 0x525741206164647265737320646F6573206E6F74206D6174636820736C6F7400 PUSH0 DUP3 ADD MSTORE POP JUMP JUMPDEST PUSH0 PUSH2 0xE60 PUSH1 0x1F DUP4 PUSH2 0xBC6 JUMP JUMPDEST SWAP2 POP PUSH2 0xE6B DUP3 PUSH2 0xE2C JUMP JUMPDEST PUSH1 0x20 DUP3 ADD SWAP1 POP SWAP2 SWAP1 POP JUMP JUMPDEST PUSH0 PUSH1 0x20 DUP3 ADD SWAP1 POP DUP2 DUP2 SUB PUSH0 DUP4 ADD MSTORE PUSH2 0xE8D DUP2 PUSH2 0xE54 JUMP JUMPDEST SWAP1 POP SWAP2 SWAP1 POP JUMP JUMPDEST PUSH32 0x536C6F7420646F6573206E6F7420657869737400000000000000000000000000 PUSH0 DUP3 ADD MSTORE POP JUMP JUMPDEST PUSH0 PUSH2 0xEC8 PUSH1 0x13 DUP4 PUSH2 0xBC6 JUMP JUMPDEST SWAP2 POP PUSH2 0xED3 DUP3 PUSH2 0xE94 JUMP JUMPDEST PUSH1 0x20 DUP3 ADD SWAP1 POP SWAP2 SWAP1 POP JUMP JUMPDEST PUSH0 PUSH1 0x20 DUP3 ADD SWAP1 POP DUP2 DUP2 SUB PUSH0 DUP4 ADD MSTORE PUSH2 0xEF5 DUP2 PUSH2 0xEBC JUMP JUMPDEST SWAP1 POP SWAP2 SWAP1 POP JUMP JUMPDEST PUSH32 0x4E487B7100000000000000000000000000000000000000000000000000000000 PUSH0 MSTORE PUSH1 0x11 PUSH1 0x4 MSTORE PUSH1 0x24 PUSH0 REVERT JUMPDEST PUSH0 PUSH2 0xF33 DUP3 PUSH2 0xB25 JUMP JUMPDEST SWAP2 POP PUSH2 0xF3E DUP4 PUSH2 0xB25 JUMP JUMPDEST SWAP3 POP DUP3 DUP3 SUB SWAP1 POP DUP2 DUP2 GT ISZERO PUSH2 0xF56 JUMPI PUSH2 0xF55 PUSH2 0xEFC JUMP JUMPDEST JUMPDEST SWAP3 SWAP2 POP POP JUMP JUMPDEST PUSH0 PUSH2 0xF66 DUP3 PUSH2 0xB25 JUMP JUMPDEST SWAP2 POP PUSH2 0xF71 DUP4 PUSH2 0xB25 JUMP JUMPDEST SWAP3 POP DUP3 DUP3 ADD SWAP1 POP DUP1 DUP3 GT ISZERO PUSH2 0xF89 JUMPI PUSH2 0xF88 PUSH2 0xEFC JUMP JUMPDEST JUMPDEST SWAP3 SWAP2 POP POP JUMP JUMPDEST PUSH0 PUSH1 0x60 DUP3 ADD SWAP1 POP PUSH2 0xFA2 PUSH0 DUP4 ADD DUP7 PUSH2 0xD09 JUMP JUMPDEST PUSH2 0xFAF PUSH1 0x20 DUP4 ADD DUP6 PUSH2 0xD09 JUMP JUMPDEST PUSH2 0xFBC PUSH1 0x40 DUP4 ADD DUP5 PUSH2 0xCE1 JUMP JUMPDEST SWAP5 SWAP4 POP POP POP POP JUMP JUMPDEST PUSH32 0x4E487B7100000000000000000000000000000000000000000000000000000000 PUSH0 MSTORE PUSH1 0x22 PUSH1 0x4 MSTORE PUSH1 0x24 PUSH0 REVERT JUMPDEST PUSH0 PUSH1 0x2 DUP3 DIV SWAP1 POP PUSH1 0x1 DUP3 AND DUP1 PUSH2 0x1008 JUMPI PUSH1 0x7F DUP3 AND SWAP2 POP JUMPDEST PUSH1 0x20 DUP3 LT DUP2 SUB PUSH2 0x101B JUMPI PUSH2 0x101A PUSH2 0xFC4 JUMP JUMPDEST JUMPDEST POP SWAP2 SWAP1 POP JUMP JUMPDEST PUSH32 0x496E73756666696369656E742062616C616E6365000000000000000000000000 PUSH0 DUP3 ADD MSTORE POP JUMP JUMPDEST PUSH0 PUSH2 0x1055 PUSH1 0x14 DUP4 PUSH2 0xBC6 JUMP JUMPDEST SWAP2 POP PUSH2 0x1060 DUP3 PUSH2 0x1021 JUMP JUMPDEST PUSH1 0x20 DUP3 ADD SWAP1 POP SWAP2 SWAP1 POP JUMP JUMPDEST PUSH0 PUSH1 0x20 DUP3 ADD SWAP1 POP DUP2 DUP2 SUB PUSH0 DUP4 ADD MSTORE PUSH2 0x1082 DUP2 PUSH2 0x1049 JUMP JUMPDEST SWAP1 POP SWAP2 SWAP1 POP JUMP JUMPDEST PUSH32 0x4F6E6C792074686520636F6E7472616374206F776E65722063616E2070657266 PUSH0 DUP3 ADD MSTORE PUSH32 0x6F726D207468697320616374696F6E0000000000000000000000000000000000 PUSH1 0x20 DUP3 ADD MSTORE POP JUMP JUMPDEST PUSH0 PUSH2 0x10E3 PUSH1 0x2F DUP4 PUSH2 0xBC6 JUMP JUMPDEST SWAP2 POP PUSH2 0x10EE DUP3 PUSH2 0x1089 JUMP JUMPDEST PUSH1 0x40 DUP3 ADD SWAP1 POP SWAP2 SWAP1 POP JUMP JUMPDEST PUSH0 PUSH1 0x20 DUP3 ADD SWAP1 POP DUP2 DUP2 SUB PUSH0 DUP4 ADD MSTORE PUSH2 0x1110 DUP2 PUSH2 0x10D7 JUMP JUMPDEST SWAP1 POP SWAP2 SWAP1 POP JUMP INVALID LOG2 PUSH5 0x6970667358 0x22 SLT KECCAK256 AND 0xE3 0x2D DUP15 EQ SWAP5 0xAC 0xCA 0xAF 0xB5 NOT PUSH20 0x59251A72AC9BC37AD4ABF829E356CEAF2B119030 PUSH5 0x736F6C6343 STOP ADDMOD XOR STOP CALLER "
				},
				"gasEstimates": {
					"creation": {
						"codeDepositCost": "885800",
						"executionCost": "infinite",
						"totalCost": "infinite"
					},
					"external": {
						"addSlot(address)": "infinite",
						"balances(address)": "2869",
						"lastSlot()": "2514",
						"mint(uint256)": "infinite",
						"name()": "infinite",
						"owner()": "2505",
						"slotToAddress(uint256)": "2893",
						"symbol()": "infinite",
						"transfer(address,address,uint256,uint256)": "infinite",
						"transferFrom(address,address,uint256)": "infinite"
					}
				},
				"methodIdentifiers": {
					"addSlot(address)": "fb44ba24",
					"balances(address)": "27e235e3",
					"lastSlot()": "6ea667cd",
					"mint(uint256)": "a0712d68",
					"name()": "06fdde03",
					"owner()": "8da5cb5b",
					"slotToAddress(uint256)": "e890e45e",
					"symbol()": "95d89b41",
					"transfer(address,address,uint256,uint256)": "0411b252",
					"transferFrom(address,address,uint256)": "23b872dd"
				}
			},
			"storageLayout": {
				"storage": [
					{
						"astId": 18,
						"contract": "aquo/aquopool.sol:POOLToken",
						"label": "owner",
						"offset": 0,
						"slot": "0",
						"type": "t_address"
					},
					{
						"astId": 22,
						"contract": "aquo/aquopool.sol:POOLToken",
						"label": "balances",
						"offset": 0,
						"slot": "1",
						"type": "t_mapping(t_address,t_uint256)"
					},
					{
						"astId": 26,
						"contract": "aquo/aquopool.sol:POOLToken",
						"label": "slotToAddress",
						"offset": 0,
						"slot": "2",
						"type": "t_mapping(t_uint256,t_address)"
					},
					{
						"astId": 29,
						"contract": "aquo/aquopool.sol:POOLToken",
						"label": "lastSlot",
						"offset": 0,
						"slot": "3",
						"type": "t_uint256"
					},
					{
						"astId": 32,
						"contract": "aquo/aquopool.sol:POOLToken",
						"label": "name",
						"offset": 0,
						"slot": "4",
						"type": "t_string_storage"
					},
					{
						"astId": 35,
						"contract": "aquo/aquopool.sol:POOLToken",
						"label": "symbol",
						"offset": 0,
						"slot": "5",
						"type": "t_string_storage"
					}
				],
				"types": {
					"t_address": {
						"encoding": "inplace",
						"label": "address",
						"numberOfBytes": "20"
					},
					"t_mapping(t_address,t_uint256)": {
						"encoding": "mapping",
						"key": "t_address",
						"label": "mapping(address => uint256)",
						"numberOfBytes": "32",
						"value": "t_uint256"
					},
					"t_mapping(t_uint256,t_address)": {
						"encoding": "mapping",
						"key": "t_uint256",
						"label": "mapping(uint256 => address)",
						"numberOfBytes": "32",
						"value": "t_address"
					},
					"t_string_storage": {
						"encoding": "bytes",
						"label": "string",
						"numberOfBytes": "32"
					},
					"t_uint256": {
						"encoding": "inplace",
						"label": "uint256",
						"numberOfBytes": "32"
					}
				}
			},
			"userdoc": {
				"kind": "user",
				"methods": {},
				"version": 1
			}
		}
	}
}