{
	"aquo/AquoPoolList.sol": {
		"PoolList": {
			"abi": [
				{
					"inputs": [],
					"name": "getAllPools",
					"outputs": [
						{
							"components": [
								{
									"internalType": "uint256",
									"name": "poolId",
									"type": "uint256"
								},
								{
									"internalType": "address",
									"name": "poolAddress",
									"type": "address"
								}
							],
							"internalType": "struct PoolList.Pool[]",
							"name": "",
							"type": "tuple[]"
						}
					],
					"stateMutability": "view",
					"type": "function"
				},
				{
					"inputs": [
						{
							"internalType": "address",
							"name": "_poolAddress",
							"type": "address"
						}
					],
					"name": "getPoolByPoolAddress",
					"outputs": [
						{
							"components": [
								{
									"internalType": "uint256",
									"name": "poolId",
									"type": "uint256"
								},
								{
									"internalType": "address",
									"name": "poolAddress",
									"type": "address"
								}
							],
							"internalType": "struct PoolList.Pool",
							"name": "",
							"type": "tuple"
						}
					],
					"stateMutability": "view",
					"type": "function"
				},
				{
					"inputs": [
						{
							"internalType": "uint256",
							"name": "_poolId",
							"type": "uint256"
						}
					],
					"name": "getPoolByPoolId",
					"outputs": [
						{
							"components": [
								{
									"internalType": "uint256",
									"name": "poolId",
									"type": "uint256"
								},
								{
									"internalType": "address",
									"name": "poolAddress",
									"type": "address"
								}
							],
							"internalType": "struct PoolList.Pool",
							"name": "",
							"type": "tuple"
						}
					],
					"stateMutability": "view",
					"type": "function"
				},
				{
					"inputs": [
						{
							"internalType": "address",
							"name": "_poolAddress",
							"type": "address"
						}
					],
					"name": "listPool",
					"outputs": [
						{
							"internalType": "uint256",
							"name": "",
							"type": "uint256"
						}
					],
					"stateMutability": "nonpayable",
					"type": "function"
				}
			],
			"devdoc": {
				"kind": "dev",
				"methods": {},
				"version": 1
			},
			"evm": {
				"assembly": "    /* \"aquo/AquoPoolList.sol\":61:1582  contract PoolList {... */\n  mstore(0x40, 0x80)\n    /* \"aquo/AquoPoolList.sol\":225:226  1 */\n  0x01\n    /* \"aquo/AquoPoolList.sol\":196:226  uint256 private nextPoolId = 1 */\n  dup1\n  sstore\n    /* \"aquo/AquoPoolList.sol\":61:1582  contract PoolList {... */\n  callvalue\n  dup1\n  iszero\n  tag_1\n  jumpi\n  0x00\n  dup1\n  revert\ntag_1:\n  pop\n  dataSize(sub_0)\n  dup1\n  dataOffset(sub_0)\n  0x00\n  codecopy\n  0x00\n  return\nstop\n\nsub_0: assembly {\n        /* \"aquo/AquoPoolList.sol\":61:1582  contract PoolList {... */\n      mstore(0x40, 0x80)\n      callvalue\n      dup1\n      iszero\n      tag_1\n      jumpi\n      0x00\n      dup1\n      revert\n    tag_1:\n      pop\n      jumpi(tag_2, lt(calldatasize, 0x04))\n      shr(0xe0, calldataload(0x00))\n      dup1\n      0x0f23deff\n      eq\n      tag_3\n      jumpi\n      dup1\n      0x2ba6cc59\n      eq\n      tag_4\n      jumpi\n      dup1\n      0xb5e363b7\n      eq\n      tag_5\n      jumpi\n      dup1\n      0xd88ff1f4\n      eq\n      tag_6\n      jumpi\n    tag_2:\n      0x00\n      dup1\n      revert\n        /* \"aquo/AquoPoolList.sol\":1318:1481  function getPoolByPoolId(uint256 _poolId) public view returns (Pool memory) {... */\n    tag_3:\n      tag_7\n      0x04\n      dup1\n      calldatasize\n      sub\n      dup2\n      add\n      swap1\n      tag_8\n      swap2\n      swap1\n      tag_9\n      jump\t// in\n    tag_8:\n      tag_10\n      jump\t// in\n    tag_7:\n      mload(0x40)\n      tag_11\n      swap2\n      swap1\n      tag_12\n      jump\t// in\n    tag_11:\n      mload(0x40)\n      dup1\n      swap2\n      sub\n      swap1\n      return\n        /* \"aquo/AquoPoolList.sol\":1127:1310  function getPoolByPoolAddress(address _poolAddress) public view returns (Pool memory) {... */\n    tag_4:\n      tag_13\n      0x04\n      dup1\n      calldatasize\n      sub\n      dup2\n      add\n      swap1\n      tag_14\n      swap2\n      swap1\n      tag_15\n      jump\t// in\n    tag_14:\n      tag_16\n      jump\t// in\n    tag_13:\n      mload(0x40)\n      tag_17\n      swap2\n      swap1\n      tag_12\n      jump\t// in\n    tag_17:\n      mload(0x40)\n      dup1\n      swap2\n      sub\n      swap1\n      return\n        /* \"aquo/AquoPoolList.sol\":500:1119  function listPool(address _poolAddress) public returns (uint256) {... */\n    tag_5:\n      tag_18\n      0x04\n      dup1\n      calldatasize\n      sub\n      dup2\n      add\n      swap1\n      tag_19\n      swap2\n      swap1\n      tag_15\n      jump\t// in\n    tag_19:\n      tag_20\n      jump\t// in\n    tag_18:\n      mload(0x40)\n      tag_21\n      swap2\n      swap1\n      tag_22\n      jump\t// in\n    tag_21:\n      mload(0x40)\n      dup1\n      swap2\n      sub\n      swap1\n      return\n        /* \"aquo/AquoPoolList.sol\":1489:1579  function getAllPools() public view returns (Pool[] memory) {... */\n    tag_6:\n      tag_23\n      tag_24\n      jump\t// in\n    tag_23:\n      mload(0x40)\n      tag_25\n      swap2\n      swap1\n      tag_26\n      jump\t// in\n    tag_25:\n      mload(0x40)\n      dup1\n      swap2\n      sub\n      swap1\n      return\n        /* \"aquo/AquoPoolList.sol\":1318:1481  function getPoolByPoolId(uint256 _poolId) public view returns (Pool memory) {... */\n    tag_10:\n        /* \"aquo/AquoPoolList.sol\":1381:1392  Pool memory */\n      tag_27\n      tag_28\n      jump\t// in\n    tag_27:\n        /* \"aquo/AquoPoolList.sol\":1405:1418  uint256 index */\n      0x00\n        /* \"aquo/AquoPoolList.sol\":1421:1434  poolIdToIndex */\n      0x02\n        /* \"aquo/AquoPoolList.sol\":1421:1443  poolIdToIndex[_poolId] */\n      0x00\n        /* \"aquo/AquoPoolList.sol\":1435:1442  _poolId */\n      dup5\n        /* \"aquo/AquoPoolList.sol\":1421:1443  poolIdToIndex[_poolId] */\n      dup2\n      mstore\n      0x20\n      add\n      swap1\n      dup2\n      mstore\n      0x20\n      add\n      0x00\n      keccak256\n      sload\n        /* \"aquo/AquoPoolList.sol\":1405:1443  uint256 index = poolIdToIndex[_poolId] */\n      swap1\n      pop\n        /* \"aquo/AquoPoolList.sol\":1461:1466  pools */\n      0x00\n        /* \"aquo/AquoPoolList.sol\":1467:1472  index */\n      dup2\n        /* \"aquo/AquoPoolList.sol\":1461:1473  pools[index] */\n      dup2\n      sload\n      dup2\n      lt\n      tag_30\n      jumpi\n      tag_31\n      tag_32\n      jump\t// in\n    tag_31:\n    tag_30:\n      swap1\n      0x00\n      mstore\n      keccak256(0x00, 0x20)\n      swap1\n      0x02\n      mul\n      add\n        /* \"aquo/AquoPoolList.sol\":1454:1473  return pools[index] */\n      mload(0x40)\n      dup1\n      0x40\n      add\n      0x40\n      mstore\n      swap1\n      dup2\n      0x00\n      dup3\n      add\n      sload\n      dup2\n      mstore\n      0x20\n      add\n      0x01\n      dup3\n      add\n      0x00\n      swap1\n      sload\n      swap1\n      0x0100\n      exp\n      swap1\n      div\n      0xffffffffffffffffffffffffffffffffffffffff\n      and\n      0xffffffffffffffffffffffffffffffffffffffff\n      and\n      0xffffffffffffffffffffffffffffffffffffffff\n      and\n      dup2\n      mstore\n      pop\n      pop\n      swap2\n      pop\n      pop\n        /* \"aquo/AquoPoolList.sol\":1318:1481  function getPoolByPoolId(uint256 _poolId) public view returns (Pool memory) {... */\n      swap2\n      swap1\n      pop\n      jump\t// out\n        /* \"aquo/AquoPoolList.sol\":1127:1310  function getPoolByPoolAddress(address _poolAddress) public view returns (Pool memory) {... */\n    tag_16:\n        /* \"aquo/AquoPoolList.sol\":1200:1211  Pool memory */\n      tag_34\n      tag_28\n      jump\t// in\n    tag_34:\n        /* \"aquo/AquoPoolList.sol\":1224:1237  uint256 index */\n      0x00\n        /* \"aquo/AquoPoolList.sol\":1240:1258  poolAddressToIndex */\n      0x03\n        /* \"aquo/AquoPoolList.sol\":1240:1272  poolAddressToIndex[_poolAddress] */\n      0x00\n        /* \"aquo/AquoPoolList.sol\":1259:1271  _poolAddress */\n      dup5\n        /* \"aquo/AquoPoolList.sol\":1240:1272  poolAddressToIndex[_poolAddress] */\n      0xffffffffffffffffffffffffffffffffffffffff\n      and\n      0xffffffffffffffffffffffffffffffffffffffff\n      and\n      dup2\n      mstore\n      0x20\n      add\n      swap1\n      dup2\n      mstore\n      0x20\n      add\n      0x00\n      keccak256\n      sload\n        /* \"aquo/AquoPoolList.sol\":1224:1272  uint256 index = poolAddressToIndex[_poolAddress] */\n      swap1\n      pop\n        /* \"aquo/AquoPoolList.sol\":1290:1295  pools */\n      0x00\n        /* \"aquo/AquoPoolList.sol\":1296:1301  index */\n      dup2\n        /* \"aquo/AquoPoolList.sol\":1290:1302  pools[index] */\n      dup2\n      sload\n      dup2\n      lt\n      tag_36\n      jumpi\n      tag_37\n      tag_32\n      jump\t// in\n    tag_37:\n    tag_36:\n      swap1\n      0x00\n      mstore\n      keccak256(0x00, 0x20)\n      swap1\n      0x02\n      mul\n      add\n        /* \"aquo/AquoPoolList.sol\":1283:1302  return pools[index] */\n      mload(0x40)\n      dup1\n      0x40\n      add\n      0x40\n      mstore\n      swap1\n      dup2\n      0x00\n      dup3\n      add\n      sload\n      dup2\n      mstore\n      0x20\n      add\n      0x01\n      dup3\n      add\n      0x00\n      swap1\n      sload\n      swap1\n      0x0100\n      exp\n      swap1\n      div\n      0xffffffffffffffffffffffffffffffffffffffff\n      and\n      0xffffffffffffffffffffffffffffffffffffffff\n      and\n      0xffffffffffffffffffffffffffffffffffffffff\n      and\n      dup2\n      mstore\n      pop\n      pop\n      swap2\n      pop\n      pop\n        /* \"aquo/AquoPoolList.sol\":1127:1310  function getPoolByPoolAddress(address _poolAddress) public view returns (Pool memory) {... */\n      swap2\n      swap1\n      pop\n      jump\t// out\n        /* \"aquo/AquoPoolList.sol\":500:1119  function listPool(address _poolAddress) public returns (uint256) {... */\n    tag_20:\n        /* \"aquo/AquoPoolList.sol\":556:563  uint256 */\n      0x00\n        /* \"aquo/AquoPoolList.sol\":585:602  poolAddressExists */\n      0x04\n        /* \"aquo/AquoPoolList.sol\":585:616  poolAddressExists[_poolAddress] */\n      0x00\n        /* \"aquo/AquoPoolList.sol\":603:615  _poolAddress */\n      dup4\n        /* \"aquo/AquoPoolList.sol\":585:616  poolAddressExists[_poolAddress] */\n      0xffffffffffffffffffffffffffffffffffffffff\n      and\n      0xffffffffffffffffffffffffffffffffffffffff\n      and\n      dup2\n      mstore\n      0x20\n      add\n      swap1\n      dup2\n      mstore\n      0x20\n      add\n      0x00\n      keccak256\n      0x00\n      swap1\n      sload\n      swap1\n      0x0100\n      exp\n      swap1\n      div\n      0xff\n      and\n        /* \"aquo/AquoPoolList.sol\":584:616  !poolAddressExists[_poolAddress] */\n      iszero\n        /* \"aquo/AquoPoolList.sol\":576:652  require(!poolAddressExists[_poolAddress], \"Contract Address already exists\") */\n      tag_40\n      jumpi\n      mload(0x40)\n      0x08c379a000000000000000000000000000000000000000000000000000000000\n      dup2\n      mstore\n      0x04\n      add\n      tag_41\n      swap1\n      tag_42\n      jump\t// in\n    tag_41:\n      mload(0x40)\n      dup1\n      swap2\n      sub\n      swap1\n      revert\n    tag_40:\n        /* \"aquo/AquoPoolList.sol\":665:679  uint256 poolId */\n      0x00\n        /* \"aquo/AquoPoolList.sol\":682:692  nextPoolId */\n      0x01\n      0x00\n        /* \"aquo/AquoPoolList.sol\":682:694  nextPoolId++ */\n      dup2\n      sload\n      dup1\n      swap3\n      swap2\n      swap1\n      tag_43\n      swap1\n      tag_44\n      jump\t// in\n    tag_43:\n      swap2\n      swap1\n      pop\n      sstore\n        /* \"aquo/AquoPoolList.sol\":665:694  uint256 poolId = nextPoolId++ */\n      swap1\n      pop\n        /* \"aquo/AquoPoolList.sol\":705:724  Pool memory newPool */\n      0x00\n        /* \"aquo/AquoPoolList.sol\":727:813  Pool({... */\n      mload(0x40)\n      dup1\n      0x40\n      add\n      0x40\n      mstore\n      dup1\n        /* \"aquo/AquoPoolList.sol\":755:761  poolId */\n      dup4\n        /* \"aquo/AquoPoolList.sol\":727:813  Pool({... */\n      dup2\n      mstore\n      0x20\n      add\n        /* \"aquo/AquoPoolList.sol\":789:801  _poolAddress */\n      dup6\n        /* \"aquo/AquoPoolList.sol\":727:813  Pool({... */\n      0xffffffffffffffffffffffffffffffffffffffff\n      and\n      dup2\n      mstore\n      pop\n        /* \"aquo/AquoPoolList.sol\":705:813  Pool memory newPool = Pool({... */\n      swap1\n      pop\n        /* \"aquo/AquoPoolList.sol\":824:829  pools */\n      0x00\n        /* \"aquo/AquoPoolList.sol\":835:842  newPool */\n      dup2\n        /* \"aquo/AquoPoolList.sol\":824:843  pools.push(newPool) */\n      swap1\n      dup1\n      0x01\n      dup2\n      sload\n      add\n      dup1\n      dup3\n      sstore\n      dup1\n      swap2\n      pop\n      pop\n      0x01\n      swap1\n      sub\n      swap1\n      0x00\n      mstore\n      keccak256(0x00, 0x20)\n      swap1\n      0x02\n      mul\n      add\n      0x00\n      swap1\n      swap2\n      swap1\n      swap2\n      swap1\n      swap2\n      pop\n      0x00\n      dup3\n      add\n      mload\n      dup2\n      0x00\n      add\n      sstore\n      0x20\n      dup3\n      add\n      mload\n      dup2\n      0x01\n      add\n      exp(0x0100, 0x00)\n      dup2\n      sload\n      dup2\n      0xffffffffffffffffffffffffffffffffffffffff\n      mul\n      not\n      and\n      swap1\n      dup4\n      0xffffffffffffffffffffffffffffffffffffffff\n      and\n      mul\n      or\n      swap1\n      sstore\n      pop\n      pop\n      pop\n        /* \"aquo/AquoPoolList.sol\":854:867  uint256 index */\n      0x00\n        /* \"aquo/AquoPoolList.sol\":885:886  1 */\n      0x01\n        /* \"aquo/AquoPoolList.sol\":870:875  pools */\n      0x00\n        /* \"aquo/AquoPoolList.sol\":870:882  pools.length */\n      dup1\n      sload\n      swap1\n      pop\n        /* \"aquo/AquoPoolList.sol\":870:886  pools.length - 1 */\n      tag_46\n      swap2\n      swap1\n      tag_47\n      jump\t// in\n    tag_46:\n        /* \"aquo/AquoPoolList.sol\":854:886  uint256 index = pools.length - 1 */\n      swap1\n      pop\n        /* \"aquo/AquoPoolList.sol\":921:926  index */\n      dup1\n        /* \"aquo/AquoPoolList.sol\":897:910  poolIdToIndex */\n      0x02\n        /* \"aquo/AquoPoolList.sol\":897:918  poolIdToIndex[poolId] */\n      0x00\n        /* \"aquo/AquoPoolList.sol\":911:917  poolId */\n      dup6\n        /* \"aquo/AquoPoolList.sol\":897:918  poolIdToIndex[poolId] */\n      dup2\n      mstore\n      0x20\n      add\n      swap1\n      dup2\n      mstore\n      0x20\n      add\n      0x00\n      keccak256\n        /* \"aquo/AquoPoolList.sol\":897:926  poolIdToIndex[poolId] = index */\n      dup2\n      swap1\n      sstore\n      pop\n        /* \"aquo/AquoPoolList.sol\":972:977  index */\n      dup1\n        /* \"aquo/AquoPoolList.sol\":937:955  poolAddressToIndex */\n      0x03\n        /* \"aquo/AquoPoolList.sol\":937:969  poolAddressToIndex[_poolAddress] */\n      0x00\n        /* \"aquo/AquoPoolList.sol\":956:968  _poolAddress */\n      dup8\n        /* \"aquo/AquoPoolList.sol\":937:969  poolAddressToIndex[_poolAddress] */\n      0xffffffffffffffffffffffffffffffffffffffff\n      and\n      0xffffffffffffffffffffffffffffffffffffffff\n      and\n      dup2\n      mstore\n      0x20\n      add\n      swap1\n      dup2\n      mstore\n      0x20\n      add\n      0x00\n      keccak256\n        /* \"aquo/AquoPoolList.sol\":937:977  poolAddressToIndex[_poolAddress] = index */\n      dup2\n      swap1\n      sstore\n      pop\n        /* \"aquo/AquoPoolList.sol\":1022:1026  true */\n      0x01\n        /* \"aquo/AquoPoolList.sol\":988:1005  poolAddressExists */\n      0x04\n        /* \"aquo/AquoPoolList.sol\":988:1019  poolAddressExists[_poolAddress] */\n      0x00\n        /* \"aquo/AquoPoolList.sol\":1006:1018  _poolAddress */\n      dup8\n        /* \"aquo/AquoPoolList.sol\":988:1019  poolAddressExists[_poolAddress] */\n      0xffffffffffffffffffffffffffffffffffffffff\n      and\n      0xffffffffffffffffffffffffffffffffffffffff\n      and\n      dup2\n      mstore\n      0x20\n      add\n      swap1\n      dup2\n      mstore\n      0x20\n      add\n      0x00\n      keccak256\n      0x00\n        /* \"aquo/AquoPoolList.sol\":988:1026  poolAddressExists[_poolAddress] = true */\n      0x0100\n      exp\n      dup2\n      sload\n      dup2\n      0xff\n      mul\n      not\n      and\n      swap1\n      dup4\n      iszero\n      iszero\n      mul\n      or\n      swap1\n      sstore\n      pop\n        /* \"aquo/AquoPoolList.sol\":1069:1074  false */\n      0x00\n        /* \"aquo/AquoPoolList.sol\":1037:1052  unallocatedPool */\n      0x05\n        /* \"aquo/AquoPoolList.sol\":1037:1066  unallocatedPool[_poolAddress] */\n      0x00\n        /* \"aquo/AquoPoolList.sol\":1053:1065  _poolAddress */\n      dup8\n        /* \"aquo/AquoPoolList.sol\":1037:1066  unallocatedPool[_poolAddress] */\n      0xffffffffffffffffffffffffffffffffffffffff\n      and\n      0xffffffffffffffffffffffffffffffffffffffff\n      and\n      dup2\n      mstore\n      0x20\n      add\n      swap1\n      dup2\n      mstore\n      0x20\n      add\n      0x00\n      keccak256\n      0x00\n        /* \"aquo/AquoPoolList.sol\":1037:1074  unallocatedPool[_poolAddress] = false */\n      0x0100\n      exp\n      dup2\n      sload\n      dup2\n      0xff\n      mul\n      not\n      and\n      swap1\n      dup4\n      iszero\n      iszero\n      mul\n      or\n      swap1\n      sstore\n      pop\n        /* \"aquo/AquoPoolList.sol\":1105:1111  poolId */\n      dup3\n        /* \"aquo/AquoPoolList.sol\":1098:1111  return poolId */\n      swap4\n      pop\n      pop\n      pop\n      pop\n        /* \"aquo/AquoPoolList.sol\":500:1119  function listPool(address _poolAddress) public returns (uint256) {... */\n      swap2\n      swap1\n      pop\n      jump\t// out\n        /* \"aquo/AquoPoolList.sol\":1489:1579  function getAllPools() public view returns (Pool[] memory) {... */\n    tag_24:\n        /* \"aquo/AquoPoolList.sol\":1533:1546  Pool[] memory */\n      0x60\n        /* \"aquo/AquoPoolList.sol\":1566:1571  pools */\n      0x00\n        /* \"aquo/AquoPoolList.sol\":1559:1571  return pools */\n      dup1\n      sload\n      dup1\n      0x20\n      mul\n      0x20\n      add\n      mload(0x40)\n      swap1\n      dup2\n      add\n      0x40\n      mstore\n      dup1\n      swap3\n      swap2\n      swap1\n      dup2\n      dup2\n      mstore\n      0x20\n      add\n      0x00\n      swap1\n    tag_49:\n      dup3\n      dup3\n      lt\n      iszero\n      tag_50\n      jumpi\n      dup4\n      dup3\n      swap1\n      0x00\n      mstore\n      keccak256(0x00, 0x20)\n      swap1\n      0x02\n      mul\n      add\n      mload(0x40)\n      dup1\n      0x40\n      add\n      0x40\n      mstore\n      swap1\n      dup2\n      0x00\n      dup3\n      add\n      sload\n      dup2\n      mstore\n      0x20\n      add\n      0x01\n      dup3\n      add\n      0x00\n      swap1\n      sload\n      swap1\n      0x0100\n      exp\n      swap1\n      div\n      0xffffffffffffffffffffffffffffffffffffffff\n      and\n      0xffffffffffffffffffffffffffffffffffffffff\n      and\n      0xffffffffffffffffffffffffffffffffffffffff\n      and\n      dup2\n      mstore\n      pop\n      pop\n      dup2\n      mstore\n      0x20\n      add\n      swap1\n      0x01\n      add\n      swap1\n      jump(tag_49)\n    tag_50:\n      pop\n      pop\n      pop\n      pop\n      swap1\n      pop\n        /* \"aquo/AquoPoolList.sol\":1489:1579  function getAllPools() public view returns (Pool[] memory) {... */\n      swap1\n      jump\t// out\n    tag_28:\n      mload(0x40)\n      dup1\n      0x40\n      add\n      0x40\n      mstore\n      dup1\n      0x00\n      dup2\n      mstore\n      0x20\n      add\n      and(0xffffffffffffffffffffffffffffffffffffffff, 0x00)\n      dup2\n      mstore\n      pop\n      swap1\n      jump\t// out\n        /* \"#utility.yul\":88:205   */\n    tag_53:\n        /* \"#utility.yul\":197:198   */\n      0x00\n        /* \"#utility.yul\":194:195   */\n      dup1\n        /* \"#utility.yul\":187:199   */\n      revert\n        /* \"#utility.yul\":334:411   */\n    tag_55:\n        /* \"#utility.yul\":371:378   */\n      0x00\n        /* \"#utility.yul\":400:405   */\n      dup2\n        /* \"#utility.yul\":389:405   */\n      swap1\n      pop\n        /* \"#utility.yul\":334:411   */\n      swap2\n      swap1\n      pop\n      jump\t// out\n        /* \"#utility.yul\":417:539   */\n    tag_56:\n        /* \"#utility.yul\":490:514   */\n      tag_83\n        /* \"#utility.yul\":508:513   */\n      dup2\n        /* \"#utility.yul\":490:514   */\n      tag_55\n      jump\t// in\n    tag_83:\n        /* \"#utility.yul\":483:488   */\n      dup2\n        /* \"#utility.yul\":480:515   */\n      eq\n        /* \"#utility.yul\":470:533   */\n      tag_84\n      jumpi\n        /* \"#utility.yul\":529:530   */\n      0x00\n        /* \"#utility.yul\":526:527   */\n      dup1\n        /* \"#utility.yul\":519:531   */\n      revert\n        /* \"#utility.yul\":470:533   */\n    tag_84:\n        /* \"#utility.yul\":417:539   */\n      pop\n      jump\t// out\n        /* \"#utility.yul\":545:684   */\n    tag_57:\n        /* \"#utility.yul\":591:596   */\n      0x00\n        /* \"#utility.yul\":629:635   */\n      dup2\n        /* \"#utility.yul\":616:636   */\n      calldataload\n        /* \"#utility.yul\":607:636   */\n      swap1\n      pop\n        /* \"#utility.yul\":645:678   */\n      tag_86\n        /* \"#utility.yul\":672:677   */\n      dup2\n        /* \"#utility.yul\":645:678   */\n      tag_56\n      jump\t// in\n    tag_86:\n        /* \"#utility.yul\":545:684   */\n      swap3\n      swap2\n      pop\n      pop\n      jump\t// out\n        /* \"#utility.yul\":690:1019   */\n    tag_9:\n        /* \"#utility.yul\":749:755   */\n      0x00\n        /* \"#utility.yul\":798:800   */\n      0x20\n        /* \"#utility.yul\":786:795   */\n      dup3\n        /* \"#utility.yul\":777:784   */\n      dup5\n        /* \"#utility.yul\":773:796   */\n      sub\n        /* \"#utility.yul\":769:801   */\n      slt\n        /* \"#utility.yul\":766:885   */\n      iszero\n      tag_88\n      jumpi\n        /* \"#utility.yul\":804:883   */\n      tag_89\n      tag_53\n      jump\t// in\n    tag_89:\n        /* \"#utility.yul\":766:885   */\n    tag_88:\n        /* \"#utility.yul\":924:925   */\n      0x00\n        /* \"#utility.yul\":949:1002   */\n      tag_90\n        /* \"#utility.yul\":994:1001   */\n      dup5\n        /* \"#utility.yul\":985:991   */\n      dup3\n        /* \"#utility.yul\":974:983   */\n      dup6\n        /* \"#utility.yul\":970:992   */\n      add\n        /* \"#utility.yul\":949:1002   */\n      tag_57\n      jump\t// in\n    tag_90:\n        /* \"#utility.yul\":939:1002   */\n      swap2\n      pop\n        /* \"#utility.yul\":895:1012   */\n      pop\n        /* \"#utility.yul\":690:1019   */\n      swap3\n      swap2\n      pop\n      pop\n      jump\t// out\n        /* \"#utility.yul\":1025:1133   */\n    tag_58:\n        /* \"#utility.yul\":1102:1126   */\n      tag_92\n        /* \"#utility.yul\":1120:1125   */\n      dup2\n        /* \"#utility.yul\":1102:1126   */\n      tag_55\n      jump\t// in\n    tag_92:\n        /* \"#utility.yul\":1097:1100   */\n      dup3\n        /* \"#utility.yul\":1090:1127   */\n      mstore\n        /* \"#utility.yul\":1025:1133   */\n      pop\n      pop\n      jump\t// out\n        /* \"#utility.yul\":1139:1265   */\n    tag_59:\n        /* \"#utility.yul\":1176:1183   */\n      0x00\n        /* \"#utility.yul\":1216:1258   */\n      0xffffffffffffffffffffffffffffffffffffffff\n        /* \"#utility.yul\":1209:1214   */\n      dup3\n        /* \"#utility.yul\":1205:1259   */\n      and\n        /* \"#utility.yul\":1194:1259   */\n      swap1\n      pop\n        /* \"#utility.yul\":1139:1265   */\n      swap2\n      swap1\n      pop\n      jump\t// out\n        /* \"#utility.yul\":1271:1367   */\n    tag_60:\n        /* \"#utility.yul\":1308:1315   */\n      0x00\n        /* \"#utility.yul\":1337:1361   */\n      tag_95\n        /* \"#utility.yul\":1355:1360   */\n      dup3\n        /* \"#utility.yul\":1337:1361   */\n      tag_59\n      jump\t// in\n    tag_95:\n        /* \"#utility.yul\":1326:1361   */\n      swap1\n      pop\n        /* \"#utility.yul\":1271:1367   */\n      swap2\n      swap1\n      pop\n      jump\t// out\n        /* \"#utility.yul\":1373:1481   */\n    tag_61:\n        /* \"#utility.yul\":1450:1474   */\n      tag_97\n        /* \"#utility.yul\":1468:1473   */\n      dup2\n        /* \"#utility.yul\":1450:1474   */\n      tag_60\n      jump\t// in\n    tag_97:\n        /* \"#utility.yul\":1445:1448   */\n      dup3\n        /* \"#utility.yul\":1438:1475   */\n      mstore\n        /* \"#utility.yul\":1373:1481   */\n      pop\n      pop\n      jump\t// out\n        /* \"#utility.yul\":1539:2043   */\n    tag_62:\n        /* \"#utility.yul\":1674:1678   */\n      0x40\n        /* \"#utility.yul\":1669:1672   */\n      dup3\n        /* \"#utility.yul\":1665:1679   */\n      add\n        /* \"#utility.yul\":1763:1767   */\n      0x00\n        /* \"#utility.yul\":1756:1761   */\n      dup3\n        /* \"#utility.yul\":1752:1768   */\n      add\n        /* \"#utility.yul\":1746:1769   */\n      mload\n        /* \"#utility.yul\":1782:1845   */\n      tag_99\n        /* \"#utility.yul\":1839:1843   */\n      0x00\n        /* \"#utility.yul\":1834:1837   */\n      dup6\n        /* \"#utility.yul\":1830:1844   */\n      add\n        /* \"#utility.yul\":1816:1828   */\n      dup3\n        /* \"#utility.yul\":1782:1845   */\n      tag_58\n      jump\t// in\n    tag_99:\n        /* \"#utility.yul\":1689:1855   */\n      pop\n        /* \"#utility.yul\":1944:1948   */\n      0x20\n        /* \"#utility.yul\":1937:1942   */\n      dup3\n        /* \"#utility.yul\":1933:1949   */\n      add\n        /* \"#utility.yul\":1927:1950   */\n      mload\n        /* \"#utility.yul\":1963:2026   */\n      tag_100\n        /* \"#utility.yul\":2020:2024   */\n      0x20\n        /* \"#utility.yul\":2015:2018   */\n      dup6\n        /* \"#utility.yul\":2011:2025   */\n      add\n        /* \"#utility.yul\":1997:2009   */\n      dup3\n        /* \"#utility.yul\":1963:2026   */\n      tag_61\n      jump\t// in\n    tag_100:\n        /* \"#utility.yul\":1865:2036   */\n      pop\n        /* \"#utility.yul\":1643:2043   */\n      pop\n        /* \"#utility.yul\":1539:2043   */\n      pop\n      pop\n      jump\t// out\n        /* \"#utility.yul\":2049:2347   */\n    tag_12:\n        /* \"#utility.yul\":2180:2184   */\n      0x00\n        /* \"#utility.yul\":2218:2220   */\n      0x40\n        /* \"#utility.yul\":2207:2216   */\n      dup3\n        /* \"#utility.yul\":2203:2221   */\n      add\n        /* \"#utility.yul\":2195:2221   */\n      swap1\n      pop\n        /* \"#utility.yul\":2231:2340   */\n      tag_102\n        /* \"#utility.yul\":2337:2338   */\n      0x00\n        /* \"#utility.yul\":2326:2335   */\n      dup4\n        /* \"#utility.yul\":2322:2339   */\n      add\n        /* \"#utility.yul\":2313:2319   */\n      dup5\n        /* \"#utility.yul\":2231:2340   */\n      tag_62\n      jump\t// in\n    tag_102:\n        /* \"#utility.yul\":2049:2347   */\n      swap3\n      swap2\n      pop\n      pop\n      jump\t// out\n        /* \"#utility.yul\":2353:2475   */\n    tag_63:\n        /* \"#utility.yul\":2426:2450   */\n      tag_104\n        /* \"#utility.yul\":2444:2449   */\n      dup2\n        /* \"#utility.yul\":2426:2450   */\n      tag_60\n      jump\t// in\n    tag_104:\n        /* \"#utility.yul\":2419:2424   */\n      dup2\n        /* \"#utility.yul\":2416:2451   */\n      eq\n        /* \"#utility.yul\":2406:2469   */\n      tag_105\n      jumpi\n        /* \"#utility.yul\":2465:2466   */\n      0x00\n        /* \"#utility.yul\":2462:2463   */\n      dup1\n        /* \"#utility.yul\":2455:2467   */\n      revert\n        /* \"#utility.yul\":2406:2469   */\n    tag_105:\n        /* \"#utility.yul\":2353:2475   */\n      pop\n      jump\t// out\n        /* \"#utility.yul\":2481:2620   */\n    tag_64:\n        /* \"#utility.yul\":2527:2532   */\n      0x00\n        /* \"#utility.yul\":2565:2571   */\n      dup2\n        /* \"#utility.yul\":2552:2572   */\n      calldataload\n        /* \"#utility.yul\":2543:2572   */\n      swap1\n      pop\n        /* \"#utility.yul\":2581:2614   */\n      tag_107\n        /* \"#utility.yul\":2608:2613   */\n      dup2\n        /* \"#utility.yul\":2581:2614   */\n      tag_63\n      jump\t// in\n    tag_107:\n        /* \"#utility.yul\":2481:2620   */\n      swap3\n      swap2\n      pop\n      pop\n      jump\t// out\n        /* \"#utility.yul\":2626:2955   */\n    tag_15:\n        /* \"#utility.yul\":2685:2691   */\n      0x00\n        /* \"#utility.yul\":2734:2736   */\n      0x20\n        /* \"#utility.yul\":2722:2731   */\n      dup3\n        /* \"#utility.yul\":2713:2720   */\n      dup5\n        /* \"#utility.yul\":2709:2732   */\n      sub\n        /* \"#utility.yul\":2705:2737   */\n      slt\n        /* \"#utility.yul\":2702:2821   */\n      iszero\n      tag_109\n      jumpi\n        /* \"#utility.yul\":2740:2819   */\n      tag_110\n      tag_53\n      jump\t// in\n    tag_110:\n        /* \"#utility.yul\":2702:2821   */\n    tag_109:\n        /* \"#utility.yul\":2860:2861   */\n      0x00\n        /* \"#utility.yul\":2885:2938   */\n      tag_111\n        /* \"#utility.yul\":2930:2937   */\n      dup5\n        /* \"#utility.yul\":2921:2927   */\n      dup3\n        /* \"#utility.yul\":2910:2919   */\n      dup6\n        /* \"#utility.yul\":2906:2928   */\n      add\n        /* \"#utility.yul\":2885:2938   */\n      tag_64\n      jump\t// in\n    tag_111:\n        /* \"#utility.yul\":2875:2938   */\n      swap2\n      pop\n        /* \"#utility.yul\":2831:2948   */\n      pop\n        /* \"#utility.yul\":2626:2955   */\n      swap3\n      swap2\n      pop\n      pop\n      jump\t// out\n        /* \"#utility.yul\":2961:3079   */\n    tag_65:\n        /* \"#utility.yul\":3048:3072   */\n      tag_113\n        /* \"#utility.yul\":3066:3071   */\n      dup2\n        /* \"#utility.yul\":3048:3072   */\n      tag_55\n      jump\t// in\n    tag_113:\n        /* \"#utility.yul\":3043:3046   */\n      dup3\n        /* \"#utility.yul\":3036:3073   */\n      mstore\n        /* \"#utility.yul\":2961:3079   */\n      pop\n      pop\n      jump\t// out\n        /* \"#utility.yul\":3085:3307   */\n    tag_22:\n        /* \"#utility.yul\":3178:3182   */\n      0x00\n        /* \"#utility.yul\":3216:3218   */\n      0x20\n        /* \"#utility.yul\":3205:3214   */\n      dup3\n        /* \"#utility.yul\":3201:3219   */\n      add\n        /* \"#utility.yul\":3193:3219   */\n      swap1\n      pop\n        /* \"#utility.yul\":3229:3300   */\n      tag_115\n        /* \"#utility.yul\":3297:3298   */\n      0x00\n        /* \"#utility.yul\":3286:3295   */\n      dup4\n        /* \"#utility.yul\":3282:3299   */\n      add\n        /* \"#utility.yul\":3273:3279   */\n      dup5\n        /* \"#utility.yul\":3229:3300   */\n      tag_65\n      jump\t// in\n    tag_115:\n        /* \"#utility.yul\":3085:3307   */\n      swap3\n      swap2\n      pop\n      pop\n      jump\t// out\n        /* \"#utility.yul\":3313:3446   */\n    tag_66:\n        /* \"#utility.yul\":3399:3405   */\n      0x00\n        /* \"#utility.yul\":3433:3438   */\n      dup2\n        /* \"#utility.yul\":3427:3439   */\n      mload\n        /* \"#utility.yul\":3417:3439   */\n      swap1\n      pop\n        /* \"#utility.yul\":3313:3446   */\n      swap2\n      swap1\n      pop\n      jump\t// out\n        /* \"#utility.yul\":3452:3655   */\n    tag_67:\n        /* \"#utility.yul\":3570:3581   */\n      0x00\n        /* \"#utility.yul\":3604:3610   */\n      dup3\n        /* \"#utility.yul\":3599:3602   */\n      dup3\n        /* \"#utility.yul\":3592:3611   */\n      mstore\n        /* \"#utility.yul\":3644:3648   */\n      0x20\n        /* \"#utility.yul\":3639:3642   */\n      dup3\n        /* \"#utility.yul\":3635:3649   */\n      add\n        /* \"#utility.yul\":3620:3649   */\n      swap1\n      pop\n        /* \"#utility.yul\":3452:3655   */\n      swap3\n      swap2\n      pop\n      pop\n      jump\t// out\n        /* \"#utility.yul\":3661:3812   */\n    tag_68:\n        /* \"#utility.yul\":3747:3751   */\n      0x00\n        /* \"#utility.yul\":3770:3773   */\n      dup2\n        /* \"#utility.yul\":3762:3773   */\n      swap1\n      pop\n        /* \"#utility.yul\":3800:3804   */\n      0x20\n        /* \"#utility.yul\":3795:3798   */\n      dup3\n        /* \"#utility.yul\":3791:3805   */\n      add\n        /* \"#utility.yul\":3783:3805   */\n      swap1\n      pop\n        /* \"#utility.yul\":3661:3812   */\n      swap2\n      swap1\n      pop\n      jump\t// out\n        /* \"#utility.yul\":3870:4364   */\n    tag_69:\n        /* \"#utility.yul\":3995:3999   */\n      0x40\n        /* \"#utility.yul\":3990:3993   */\n      dup3\n        /* \"#utility.yul\":3986:4000   */\n      add\n        /* \"#utility.yul\":4084:4088   */\n      0x00\n        /* \"#utility.yul\":4077:4082   */\n      dup3\n        /* \"#utility.yul\":4073:4089   */\n      add\n        /* \"#utility.yul\":4067:4090   */\n      mload\n        /* \"#utility.yul\":4103:4166   */\n      tag_120\n        /* \"#utility.yul\":4160:4164   */\n      0x00\n        /* \"#utility.yul\":4155:4158   */\n      dup6\n        /* \"#utility.yul\":4151:4165   */\n      add\n        /* \"#utility.yul\":4137:4149   */\n      dup3\n        /* \"#utility.yul\":4103:4166   */\n      tag_58\n      jump\t// in\n    tag_120:\n        /* \"#utility.yul\":4010:4176   */\n      pop\n        /* \"#utility.yul\":4265:4269   */\n      0x20\n        /* \"#utility.yul\":4258:4263   */\n      dup3\n        /* \"#utility.yul\":4254:4270   */\n      add\n        /* \"#utility.yul\":4248:4271   */\n      mload\n        /* \"#utility.yul\":4284:4347   */\n      tag_121\n        /* \"#utility.yul\":4341:4345   */\n      0x20\n        /* \"#utility.yul\":4336:4339   */\n      dup6\n        /* \"#utility.yul\":4332:4346   */\n      add\n        /* \"#utility.yul\":4318:4330   */\n      dup3\n        /* \"#utility.yul\":4284:4347   */\n      tag_61\n      jump\t// in\n    tag_121:\n        /* \"#utility.yul\":4186:4357   */\n      pop\n        /* \"#utility.yul\":3964:4364   */\n      pop\n        /* \"#utility.yul\":3870:4364   */\n      pop\n      pop\n      jump\t// out\n        /* \"#utility.yul\":4370:4625   */\n    tag_70:\n        /* \"#utility.yul\":4477:4487   */\n      0x00\n        /* \"#utility.yul\":4498:4582   */\n      tag_123\n        /* \"#utility.yul\":4578:4581   */\n      dup4\n        /* \"#utility.yul\":4570:4576   */\n      dup4\n        /* \"#utility.yul\":4498:4582   */\n      tag_69\n      jump\t// in\n    tag_123:\n        /* \"#utility.yul\":4614:4618   */\n      0x40\n        /* \"#utility.yul\":4609:4612   */\n      dup4\n        /* \"#utility.yul\":4605:4619   */\n      add\n        /* \"#utility.yul\":4591:4619   */\n      swap1\n      pop\n        /* \"#utility.yul\":4370:4625   */\n      swap3\n      swap2\n      pop\n      pop\n      jump\t// out\n        /* \"#utility.yul\":4631:4763   */\n    tag_71:\n        /* \"#utility.yul\":4720:4724   */\n      0x00\n        /* \"#utility.yul\":4752:4756   */\n      0x20\n        /* \"#utility.yul\":4747:4750   */\n      dup3\n        /* \"#utility.yul\":4743:4757   */\n      add\n        /* \"#utility.yul\":4735:4757   */\n      swap1\n      pop\n        /* \"#utility.yul\":4631:4763   */\n      swap2\n      swap1\n      pop\n      jump\t// out\n        /* \"#utility.yul\":4825:5709   */\n    tag_72:\n        /* \"#utility.yul\":4982:4985   */\n      0x00\n        /* \"#utility.yul\":5011:5084   */\n      tag_126\n        /* \"#utility.yul\":5078:5083   */\n      dup3\n        /* \"#utility.yul\":5011:5084   */\n      tag_66\n      jump\t// in\n    tag_126:\n        /* \"#utility.yul\":5100:5205   */\n      tag_127\n        /* \"#utility.yul\":5198:5204   */\n      dup2\n        /* \"#utility.yul\":5193:5196   */\n      dup6\n        /* \"#utility.yul\":5100:5205   */\n      tag_67\n      jump\t// in\n    tag_127:\n        /* \"#utility.yul\":5093:5205   */\n      swap4\n      pop\n        /* \"#utility.yul\":5229:5304   */\n      tag_128\n        /* \"#utility.yul\":5298:5303   */\n      dup4\n        /* \"#utility.yul\":5229:5304   */\n      tag_68\n      jump\t// in\n    tag_128:\n        /* \"#utility.yul\":5327:5334   */\n      dup1\n        /* \"#utility.yul\":5358:5359   */\n      0x00\n        /* \"#utility.yul\":5343:5684   */\n    tag_129:\n        /* \"#utility.yul\":5368:5374   */\n      dup4\n        /* \"#utility.yul\":5365:5366   */\n      dup2\n        /* \"#utility.yul\":5362:5375   */\n      lt\n        /* \"#utility.yul\":5343:5684   */\n      iszero\n      tag_131\n      jumpi\n        /* \"#utility.yul\":5444:5450   */\n      dup2\n        /* \"#utility.yul\":5438:5451   */\n      mload\n        /* \"#utility.yul\":5471:5572   */\n      tag_132\n        /* \"#utility.yul\":5568:5571   */\n      dup9\n        /* \"#utility.yul\":5553:5566   */\n      dup3\n        /* \"#utility.yul\":5471:5572   */\n      tag_70\n      jump\t// in\n    tag_132:\n        /* \"#utility.yul\":5464:5572   */\n      swap8\n      pop\n        /* \"#utility.yul\":5595:5674   */\n      tag_133\n        /* \"#utility.yul\":5667:5673   */\n      dup4\n        /* \"#utility.yul\":5595:5674   */\n      tag_71\n      jump\t// in\n    tag_133:\n        /* \"#utility.yul\":5585:5674   */\n      swap3\n      pop\n        /* \"#utility.yul\":5403:5684   */\n      pop\n        /* \"#utility.yul\":5390:5391   */\n      0x01\n        /* \"#utility.yul\":5387:5388   */\n      dup2\n        /* \"#utility.yul\":5383:5392   */\n      add\n        /* \"#utility.yul\":5378:5392   */\n      swap1\n      pop\n        /* \"#utility.yul\":5343:5684   */\n      jump(tag_129)\n    tag_131:\n        /* \"#utility.yul\":5347:5361   */\n      pop\n        /* \"#utility.yul\":5700:5703   */\n      dup6\n        /* \"#utility.yul\":5693:5703   */\n      swap4\n      pop\n        /* \"#utility.yul\":4987:5709   */\n      pop\n      pop\n      pop\n        /* \"#utility.yul\":4825:5709   */\n      swap3\n      swap2\n      pop\n      pop\n      jump\t// out\n        /* \"#utility.yul\":5715:6164   */\n    tag_26:\n        /* \"#utility.yul\":5896:5900   */\n      0x00\n        /* \"#utility.yul\":5934:5936   */\n      0x20\n        /* \"#utility.yul\":5923:5932   */\n      dup3\n        /* \"#utility.yul\":5919:5937   */\n      add\n        /* \"#utility.yul\":5911:5937   */\n      swap1\n      pop\n        /* \"#utility.yul\":5983:5992   */\n      dup2\n        /* \"#utility.yul\":5977:5981   */\n      dup2\n        /* \"#utility.yul\":5973:5993   */\n      sub\n        /* \"#utility.yul\":5969:5970   */\n      0x00\n        /* \"#utility.yul\":5958:5967   */\n      dup4\n        /* \"#utility.yul\":5954:5971   */\n      add\n        /* \"#utility.yul\":5947:5994   */\n      mstore\n        /* \"#utility.yul\":6011:6157   */\n      tag_135\n        /* \"#utility.yul\":6152:6156   */\n      dup2\n        /* \"#utility.yul\":6143:6149   */\n      dup5\n        /* \"#utility.yul\":6011:6157   */\n      tag_72\n      jump\t// in\n    tag_135:\n        /* \"#utility.yul\":6003:6157   */\n      swap1\n      pop\n        /* \"#utility.yul\":5715:6164   */\n      swap3\n      swap2\n      pop\n      pop\n      jump\t// out\n        /* \"#utility.yul\":6170:6350   */\n    tag_32:\n        /* \"#utility.yul\":6218:6295   */\n      0x4e487b7100000000000000000000000000000000000000000000000000000000\n        /* \"#utility.yul\":6215:6216   */\n      0x00\n        /* \"#utility.yul\":6208:6296   */\n      mstore\n        /* \"#utility.yul\":6315:6319   */\n      0x32\n        /* \"#utility.yul\":6312:6313   */\n      0x04\n        /* \"#utility.yul\":6305:6320   */\n      mstore\n        /* \"#utility.yul\":6339:6343   */\n      0x24\n        /* \"#utility.yul\":6336:6337   */\n      0x00\n        /* \"#utility.yul\":6329:6344   */\n      revert\n        /* \"#utility.yul\":6356:6525   */\n    tag_73:\n        /* \"#utility.yul\":6440:6451   */\n      0x00\n        /* \"#utility.yul\":6474:6480   */\n      dup3\n        /* \"#utility.yul\":6469:6472   */\n      dup3\n        /* \"#utility.yul\":6462:6481   */\n      mstore\n        /* \"#utility.yul\":6514:6518   */\n      0x20\n        /* \"#utility.yul\":6509:6512   */\n      dup3\n        /* \"#utility.yul\":6505:6519   */\n      add\n        /* \"#utility.yul\":6490:6519   */\n      swap1\n      pop\n        /* \"#utility.yul\":6356:6525   */\n      swap3\n      swap2\n      pop\n      pop\n      jump\t// out\n        /* \"#utility.yul\":6531:6712   */\n    tag_74:\n        /* \"#utility.yul\":6671:6704   */\n      0x436f6e7472616374204164647265737320616c72656164792065786973747300\n        /* \"#utility.yul\":6667:6668   */\n      0x00\n        /* \"#utility.yul\":6659:6665   */\n      dup3\n        /* \"#utility.yul\":6655:6669   */\n      add\n        /* \"#utility.yul\":6648:6705   */\n      mstore\n        /* \"#utility.yul\":6531:6712   */\n      pop\n      jump\t// out\n        /* \"#utility.yul\":6718:7084   */\n    tag_75:\n        /* \"#utility.yul\":6860:6863   */\n      0x00\n        /* \"#utility.yul\":6881:6948   */\n      tag_140\n        /* \"#utility.yul\":6945:6947   */\n      0x1f\n        /* \"#utility.yul\":6940:6943   */\n      dup4\n        /* \"#utility.yul\":6881:6948   */\n      tag_73\n      jump\t// in\n    tag_140:\n        /* \"#utility.yul\":6874:6948   */\n      swap2\n      pop\n        /* \"#utility.yul\":6957:7050   */\n      tag_141\n        /* \"#utility.yul\":7046:7049   */\n      dup3\n        /* \"#utility.yul\":6957:7050   */\n      tag_74\n      jump\t// in\n    tag_141:\n        /* \"#utility.yul\":7075:7077   */\n      0x20\n        /* \"#utility.yul\":7070:7073   */\n      dup3\n        /* \"#utility.yul\":7066:7078   */\n      add\n        /* \"#utility.yul\":7059:7078   */\n      swap1\n      pop\n        /* \"#utility.yul\":6718:7084   */\n      swap2\n      swap1\n      pop\n      jump\t// out\n        /* \"#utility.yul\":7090:7509   */\n    tag_42:\n        /* \"#utility.yul\":7256:7260   */\n      0x00\n        /* \"#utility.yul\":7294:7296   */\n      0x20\n        /* \"#utility.yul\":7283:7292   */\n      dup3\n        /* \"#utility.yul\":7279:7297   */\n      add\n        /* \"#utility.yul\":7271:7297   */\n      swap1\n      pop\n        /* \"#utility.yul\":7343:7352   */\n      dup2\n        /* \"#utility.yul\":7337:7341   */\n      dup2\n        /* \"#utility.yul\":7333:7353   */\n      sub\n        /* \"#utility.yul\":7329:7330   */\n      0x00\n        /* \"#utility.yul\":7318:7327   */\n      dup4\n        /* \"#utility.yul\":7314:7331   */\n      add\n        /* \"#utility.yul\":7307:7354   */\n      mstore\n        /* \"#utility.yul\":7371:7502   */\n      tag_143\n        /* \"#utility.yul\":7497:7501   */\n      dup2\n        /* \"#utility.yul\":7371:7502   */\n      tag_75\n      jump\t// in\n    tag_143:\n        /* \"#utility.yul\":7363:7502   */\n      swap1\n      pop\n        /* \"#utility.yul\":7090:7509   */\n      swap2\n      swap1\n      pop\n      jump\t// out\n        /* \"#utility.yul\":7515:7695   */\n    tag_76:\n        /* \"#utility.yul\":7563:7640   */\n      0x4e487b7100000000000000000000000000000000000000000000000000000000\n        /* \"#utility.yul\":7560:7561   */\n      0x00\n        /* \"#utility.yul\":7553:7641   */\n      mstore\n        /* \"#utility.yul\":7660:7664   */\n      0x11\n        /* \"#utility.yul\":7657:7658   */\n      0x04\n        /* \"#utility.yul\":7650:7665   */\n      mstore\n        /* \"#utility.yul\":7684:7688   */\n      0x24\n        /* \"#utility.yul\":7681:7682   */\n      0x00\n        /* \"#utility.yul\":7674:7689   */\n      revert\n        /* \"#utility.yul\":7701:7934   */\n    tag_44:\n        /* \"#utility.yul\":7740:7743   */\n      0x00\n        /* \"#utility.yul\":7763:7787   */\n      tag_146\n        /* \"#utility.yul\":7781:7786   */\n      dup3\n        /* \"#utility.yul\":7763:7787   */\n      tag_55\n      jump\t// in\n    tag_146:\n        /* \"#utility.yul\":7754:7787   */\n      swap2\n      pop\n        /* \"#utility.yul\":7809:7875   */\n      0xffffffffffffffffffffffffffffffffffffffffffffffffffffffffffffffff\n        /* \"#utility.yul\":7802:7807   */\n      dup3\n        /* \"#utility.yul\":7799:7876   */\n      sub\n        /* \"#utility.yul\":7796:7899   */\n      tag_147\n      jumpi\n        /* \"#utility.yul\":7879:7897   */\n      tag_148\n      tag_76\n      jump\t// in\n    tag_148:\n        /* \"#utility.yul\":7796:7899   */\n    tag_147:\n        /* \"#utility.yul\":7926:7927   */\n      0x01\n        /* \"#utility.yul\":7919:7924   */\n      dup3\n        /* \"#utility.yul\":7915:7928   */\n      add\n        /* \"#utility.yul\":7908:7928   */\n      swap1\n      pop\n        /* \"#utility.yul\":7701:7934   */\n      swap2\n      swap1\n      pop\n      jump\t// out\n        /* \"#utility.yul\":7940:8134   */\n    tag_47:\n        /* \"#utility.yul\":7980:7984   */\n      0x00\n        /* \"#utility.yul\":8000:8020   */\n      tag_150\n        /* \"#utility.yul\":8018:8019   */\n      dup3\n        /* \"#utility.yul\":8000:8020   */\n      tag_55\n      jump\t// in\n    tag_150:\n        /* \"#utility.yul\":7995:8020   */\n      swap2\n      pop\n        /* \"#utility.yul\":8034:8054   */\n      tag_151\n        /* \"#utility.yul\":8052:8053   */\n      dup4\n        /* \"#utility.yul\":8034:8054   */\n      tag_55\n      jump\t// in\n    tag_151:\n        /* \"#utility.yul\":8029:8054   */\n      swap3\n      pop\n        /* \"#utility.yul\":8078:8079   */\n      dup3\n        /* \"#utility.yul\":8075:8076   */\n      dup3\n        /* \"#utility.yul\":8071:8080   */\n      sub\n        /* \"#utility.yul\":8063:8080   */\n      swap1\n      pop\n        /* \"#utility.yul\":8102:8103   */\n      dup2\n        /* \"#utility.yul\":8096:8100   */\n      dup2\n        /* \"#utility.yul\":8093:8104   */\n      gt\n        /* \"#utility.yul\":8090:8127   */\n      iszero\n      tag_152\n      jumpi\n        /* \"#utility.yul\":8107:8125   */\n      tag_153\n      tag_76\n      jump\t// in\n    tag_153:\n        /* \"#utility.yul\":8090:8127   */\n    tag_152:\n        /* \"#utility.yul\":7940:8134   */\n      swap3\n      swap2\n      pop\n      pop\n      jump\t// out\n\n    auxdata: 0xa2646970667358221220e309a2da267a63267aa528fd23cebf85cb34ebdb6a63993ccd64e8d3ef83726964736f6c63430008180033\n}\n",
				"bytecode": {
					"linkReferences": {},
					"object": "608060405260018055348015610013575f80fd5b506109bd806100215f395ff3fe608060405234801561000f575f80fd5b506004361061004a575f3560e01c80630f23deff1461004e5780632ba6cc591461007e578063b5e363b7146100ae578063d88ff1f4146100de575b5f80fd5b6100686004803603810190610063919061060a565b6100fc565b60405161007591906106b0565b60405180910390f35b610098600480360381019061009391906106f3565b6101a9565b6040516100a591906106b0565b60405180910390f35b6100c860048036038101906100c391906106f3565b610282565b6040516100d5919061072d565b60405180910390f35b6100e66104ec565b6040516100f3919061081b565b60405180910390f35b6101046105a5565b5f60025f8481526020019081526020015f205490505f818154811061012c5761012b61083b565b5b905f5260205f2090600202016040518060400160405290815f8201548152602001600182015f9054906101000a900473ffffffffffffffffffffffffffffffffffffffff1673ffffffffffffffffffffffffffffffffffffffff1673ffffffffffffffffffffffffffffffffffffffff1681525050915050919050565b6101b16105a5565b5f60035f8473ffffffffffffffffffffffffffffffffffffffff1673ffffffffffffffffffffffffffffffffffffffff1681526020019081526020015f205490505f81815481106102055761020461083b565b5b905f5260205f2090600202016040518060400160405290815f8201548152602001600182015f9054906101000a900473ffffffffffffffffffffffffffffffffffffffff1673ffffffffffffffffffffffffffffffffffffffff1673ffffffffffffffffffffffffffffffffffffffff1681525050915050919050565b5f60045f8373ffffffffffffffffffffffffffffffffffffffff1673ffffffffffffffffffffffffffffffffffffffff1681526020019081526020015f205f9054906101000a900460ff161561030d576040517f08c379a0000000000000000000000000000000000000000000000000000000008152600401610304906108c2565b60405180910390fd5b5f60015f8154809291906103209061090d565b9190505590505f60405180604001604052808381526020018573ffffffffffffffffffffffffffffffffffffffff1681525090505f81908060018154018082558091505060019003905f5260205f2090600202015f909190919091505f820151815f01556020820151816001015f6101000a81548173ffffffffffffffffffffffffffffffffffffffff021916908373ffffffffffffffffffffffffffffffffffffffff16021790555050505f60015f805490506103de9190610954565b90508060025f8581526020019081526020015f20819055508060035f8773ffffffffffffffffffffffffffffffffffffffff1673ffffffffffffffffffffffffffffffffffffffff1681526020019081526020015f2081905550600160045f8773ffffffffffffffffffffffffffffffffffffffff1673ffffffffffffffffffffffffffffffffffffffff1681526020019081526020015f205f6101000a81548160ff0219169083151502179055505f60055f8773ffffffffffffffffffffffffffffffffffffffff1673ffffffffffffffffffffffffffffffffffffffff1681526020019081526020015f205f6101000a81548160ff021916908315150217905550829350505050919050565b60605f805480602002602001604051908101604052809291908181526020015f905b8282101561059c578382905f5260205f2090600202016040518060400160405290815f8201548152602001600182015f9054906101000a900473ffffffffffffffffffffffffffffffffffffffff1673ffffffffffffffffffffffffffffffffffffffff1673ffffffffffffffffffffffffffffffffffffffff16815250508152602001906001019061050e565b50505050905090565b60405180604001604052805f81526020015f73ffffffffffffffffffffffffffffffffffffffff1681525090565b5f80fd5b5f819050919050565b6105e9816105d7565b81146105f3575f80fd5b50565b5f81359050610604816105e0565b92915050565b5f6020828403121561061f5761061e6105d3565b5b5f61062c848285016105f6565b91505092915050565b61063e816105d7565b82525050565b5f73ffffffffffffffffffffffffffffffffffffffff82169050919050565b5f61066d82610644565b9050919050565b61067d81610663565b82525050565b604082015f8201516106975f850182610635565b5060208201516106aa6020850182610674565b50505050565b5f6040820190506106c35f830184610683565b92915050565b6106d281610663565b81146106dc575f80fd5b50565b5f813590506106ed816106c9565b92915050565b5f60208284031215610708576107076105d3565b5b5f610715848285016106df565b91505092915050565b610727816105d7565b82525050565b5f6020820190506107405f83018461071e565b92915050565b5f81519050919050565b5f82825260208201905092915050565b5f819050602082019050919050565b604082015f8201516107835f850182610635565b5060208201516107966020850182610674565b50505050565b5f6107a7838361076f565b60408301905092915050565b5f602082019050919050565b5f6107c982610746565b6107d38185610750565b93506107de83610760565b805f5b8381101561080e5781516107f5888261079c565b9750610800836107b3565b9250506001810190506107e1565b5085935050505092915050565b5f6020820190508181035f83015261083381846107bf565b905092915050565b7f4e487b71000000000000000000000000000000000000000000000000000000005f52603260045260245ffd5b5f82825260208201905092915050565b7f436f6e7472616374204164647265737320616c726561647920657869737473005f82015250565b5f6108ac601f83610868565b91506108b782610878565b602082019050919050565b5f6020820190508181035f8301526108d9816108a0565b9050919050565b7f4e487b71000000000000000000000000000000000000000000000000000000005f52601160045260245ffd5b5f610917826105d7565b91507fffffffffffffffffffffffffffffffffffffffffffffffffffffffffffffffff8203610949576109486108e0565b5b600182019050919050565b5f61095e826105d7565b9150610969836105d7565b9250828203905081811115610981576109806108e0565b5b9291505056fea2646970667358221220e309a2da267a63267aa528fd23cebf85cb34ebdb6a63993ccd64e8d3ef83726964736f6c63430008180033",
					"opcodes": "PUSH1 0x80 PUSH1 0x40 MSTORE PUSH1 0x1 DUP1 SSTORE CALLVALUE DUP1 ISZERO PUSH2 0x13 JUMPI PUSH0 DUP1 REVERT JUMPDEST POP PUSH2 0x9BD DUP1 PUSH2 0x21 PUSH0 CODECOPY PUSH0 RETURN INVALID PUSH1 0x80 PUSH1 0x40 MSTORE CALLVALUE DUP1 ISZERO PUSH2 0xF JUMPI PUSH0 DUP1 REVERT JUMPDEST POP PUSH1 0x4 CALLDATASIZE LT PUSH2 0x4A JUMPI PUSH0 CALLDATALOAD PUSH1 0xE0 SHR DUP1 PUSH4 0xF23DEFF EQ PUSH2 0x4E JUMPI DUP1 PUSH4 0x2BA6CC59 EQ PUSH2 0x7E JUMPI DUP1 PUSH4 0xB5E363B7 EQ PUSH2 0xAE JUMPI DUP1 PUSH4 0xD88FF1F4 EQ PUSH2 0xDE JUMPI JUMPDEST PUSH0 DUP1 REVERT JUMPDEST PUSH2 0x68 PUSH1 0x4 DUP1 CALLDATASIZE SUB DUP2 ADD SWAP1 PUSH2 0x63 SWAP2 SWAP1 PUSH2 0x60A JUMP JUMPDEST PUSH2 0xFC JUMP JUMPDEST PUSH1 0x40 MLOAD PUSH2 0x75 SWAP2 SWAP1 PUSH2 0x6B0 JUMP JUMPDEST PUSH1 0x40 MLOAD DUP1 SWAP2 SUB SWAP1 RETURN JUMPDEST PUSH2 0x98 PUSH1 0x4 DUP1 CALLDATASIZE SUB DUP2 ADD SWAP1 PUSH2 0x93 SWAP2 SWAP1 PUSH2 0x6F3 JUMP JUMPDEST PUSH2 0x1A9 JUMP JUMPDEST PUSH1 0x40 MLOAD PUSH2 0xA5 SWAP2 SWAP1 PUSH2 0x6B0 JUMP JUMPDEST PUSH1 0x40 MLOAD DUP1 SWAP2 SUB SWAP1 RETURN JUMPDEST PUSH2 0xC8 PUSH1 0x4 DUP1 CALLDATASIZE SUB DUP2 ADD SWAP1 PUSH2 0xC3 SWAP2 SWAP1 PUSH2 0x6F3 JUMP JUMPDEST PUSH2 0x282 JUMP JUMPDEST PUSH1 0x40 MLOAD PUSH2 0xD5 SWAP2 SWAP1 PUSH2 0x72D JUMP JUMPDEST PUSH1 0x40 MLOAD DUP1 SWAP2 SUB SWAP1 RETURN JUMPDEST PUSH2 0xE6 PUSH2 0x4EC JUMP JUMPDEST PUSH1 0x40 MLOAD PUSH2 0xF3 SWAP2 SWAP1 PUSH2 0x81B JUMP JUMPDEST PUSH1 0x40 MLOAD DUP1 SWAP2 SUB SWAP1 RETURN JUMPDEST PUSH2 0x104 PUSH2 0x5A5 JUMP JUMPDEST PUSH0 PUSH1 0x2 PUSH0 DUP5 DUP2 MSTORE PUSH1 0x20 ADD SWAP1 DUP2 MSTORE PUSH1 0x20 ADD PUSH0 KECCAK256 SLOAD SWAP1 POP PUSH0 DUP2 DUP2 SLOAD DUP2 LT PUSH2 0x12C JUMPI PUSH2 0x12B PUSH2 0x83B JUMP JUMPDEST JUMPDEST SWAP1 PUSH0 MSTORE PUSH1 0x20 PUSH0 KECCAK256 SWAP1 PUSH1 0x2 MUL ADD PUSH1 0x40 MLOAD DUP1 PUSH1 0x40 ADD PUSH1 0x40 MSTORE SWAP1 DUP2 PUSH0 DUP3 ADD SLOAD DUP2 MSTORE PUSH1 0x20 ADD PUSH1 0x1 DUP3 ADD PUSH0 SWAP1 SLOAD SWAP1 PUSH2 0x100 EXP SWAP1 DIV PUSH20 0xFFFFFFFFFFFFFFFFFFFFFFFFFFFFFFFFFFFFFFFF AND PUSH20 0xFFFFFFFFFFFFFFFFFFFFFFFFFFFFFFFFFFFFFFFF AND PUSH20 0xFFFFFFFFFFFFFFFFFFFFFFFFFFFFFFFFFFFFFFFF AND DUP2 MSTORE POP POP SWAP2 POP POP SWAP2 SWAP1 POP JUMP JUMPDEST PUSH2 0x1B1 PUSH2 0x5A5 JUMP JUMPDEST PUSH0 PUSH1 0x3 PUSH0 DUP5 PUSH20 0xFFFFFFFFFFFFFFFFFFFFFFFFFFFFFFFFFFFFFFFF AND PUSH20 0xFFFFFFFFFFFFFFFFFFFFFFFFFFFFFFFFFFFFFFFF AND DUP2 MSTORE PUSH1 0x20 ADD SWAP1 DUP2 MSTORE PUSH1 0x20 ADD PUSH0 KECCAK256 SLOAD SWAP1 POP PUSH0 DUP2 DUP2 SLOAD DUP2 LT PUSH2 0x205 JUMPI PUSH2 0x204 PUSH2 0x83B JUMP JUMPDEST JUMPDEST SWAP1 PUSH0 MSTORE PUSH1 0x20 PUSH0 KECCAK256 SWAP1 PUSH1 0x2 MUL ADD PUSH1 0x40 MLOAD DUP1 PUSH1 0x40 ADD PUSH1 0x40 MSTORE SWAP1 DUP2 PUSH0 DUP3 ADD SLOAD DUP2 MSTORE PUSH1 0x20 ADD PUSH1 0x1 DUP3 ADD PUSH0 SWAP1 SLOAD SWAP1 PUSH2 0x100 EXP SWAP1 DIV PUSH20 0xFFFFFFFFFFFFFFFFFFFFFFFFFFFFFFFFFFFFFFFF AND PUSH20 0xFFFFFFFFFFFFFFFFFFFFFFFFFFFFFFFFFFFFFFFF AND PUSH20 0xFFFFFFFFFFFFFFFFFFFFFFFFFFFFFFFFFFFFFFFF AND DUP2 MSTORE POP POP SWAP2 POP POP SWAP2 SWAP1 POP JUMP JUMPDEST PUSH0 PUSH1 0x4 PUSH0 DUP4 PUSH20 0xFFFFFFFFFFFFFFFFFFFFFFFFFFFFFFFFFFFFFFFF AND PUSH20 0xFFFFFFFFFFFFFFFFFFFFFFFFFFFFFFFFFFFFFFFF AND DUP2 MSTORE PUSH1 0x20 ADD SWAP1 DUP2 MSTORE PUSH1 0x20 ADD PUSH0 KECCAK256 PUSH0 SWAP1 SLOAD SWAP1 PUSH2 0x100 EXP SWAP1 DIV PUSH1 0xFF AND ISZERO PUSH2 0x30D JUMPI PUSH1 0x40 MLOAD PUSH32 0x8C379A000000000000000000000000000000000000000000000000000000000 DUP2 MSTORE PUSH1 0x4 ADD PUSH2 0x304 SWAP1 PUSH2 0x8C2 JUMP JUMPDEST PUSH1 0x40 MLOAD DUP1 SWAP2 SUB SWAP1 REVERT JUMPDEST PUSH0 PUSH1 0x1 PUSH0 DUP2 SLOAD DUP1 SWAP3 SWAP2 SWAP1 PUSH2 0x320 SWAP1 PUSH2 0x90D JUMP JUMPDEST SWAP2 SWAP1 POP SSTORE SWAP1 POP PUSH0 PUSH1 0x40 MLOAD DUP1 PUSH1 0x40 ADD PUSH1 0x40 MSTORE DUP1 DUP4 DUP2 MSTORE PUSH1 0x20 ADD DUP6 PUSH20 0xFFFFFFFFFFFFFFFFFFFFFFFFFFFFFFFFFFFFFFFF AND DUP2 MSTORE POP SWAP1 POP PUSH0 DUP2 SWAP1 DUP1 PUSH1 0x1 DUP2 SLOAD ADD DUP1 DUP3 SSTORE DUP1 SWAP2 POP POP PUSH1 0x1 SWAP1 SUB SWAP1 PUSH0 MSTORE PUSH1 0x20 PUSH0 KECCAK256 SWAP1 PUSH1 0x2 MUL ADD PUSH0 SWAP1 SWAP2 SWAP1 SWAP2 SWAP1 SWAP2 POP PUSH0 DUP3 ADD MLOAD DUP2 PUSH0 ADD SSTORE PUSH1 0x20 DUP3 ADD MLOAD DUP2 PUSH1 0x1 ADD PUSH0 PUSH2 0x100 EXP DUP2 SLOAD DUP2 PUSH20 0xFFFFFFFFFFFFFFFFFFFFFFFFFFFFFFFFFFFFFFFF MUL NOT AND SWAP1 DUP4 PUSH20 0xFFFFFFFFFFFFFFFFFFFFFFFFFFFFFFFFFFFFFFFF AND MUL OR SWAP1 SSTORE POP POP POP PUSH0 PUSH1 0x1 PUSH0 DUP1 SLOAD SWAP1 POP PUSH2 0x3DE SWAP2 SWAP1 PUSH2 0x954 JUMP JUMPDEST SWAP1 POP DUP1 PUSH1 0x2 PUSH0 DUP6 DUP2 MSTORE PUSH1 0x20 ADD SWAP1 DUP2 MSTORE PUSH1 0x20 ADD PUSH0 KECCAK256 DUP2 SWAP1 SSTORE POP DUP1 PUSH1 0x3 PUSH0 DUP8 PUSH20 0xFFFFFFFFFFFFFFFFFFFFFFFFFFFFFFFFFFFFFFFF AND PUSH20 0xFFFFFFFFFFFFFFFFFFFFFFFFFFFFFFFFFFFFFFFF AND DUP2 MSTORE PUSH1 0x20 ADD SWAP1 DUP2 MSTORE PUSH1 0x20 ADD PUSH0 KECCAK256 DUP2 SWAP1 SSTORE POP PUSH1 0x1 PUSH1 0x4 PUSH0 DUP8 PUSH20 0xFFFFFFFFFFFFFFFFFFFFFFFFFFFFFFFFFFFFFFFF AND PUSH20 0xFFFFFFFFFFFFFFFFFFFFFFFFFFFFFFFFFFFFFFFF AND DUP2 MSTORE PUSH1 0x20 ADD SWAP1 DUP2 MSTORE PUSH1 0x20 ADD PUSH0 KECCAK256 PUSH0 PUSH2 0x100 EXP DUP2 SLOAD DUP2 PUSH1 0xFF MUL NOT AND SWAP1 DUP4 ISZERO ISZERO MUL OR SWAP1 SSTORE POP PUSH0 PUSH1 0x5 PUSH0 DUP8 PUSH20 0xFFFFFFFFFFFFFFFFFFFFFFFFFFFFFFFFFFFFFFFF AND PUSH20 0xFFFFFFFFFFFFFFFFFFFFFFFFFFFFFFFFFFFFFFFF AND DUP2 MSTORE PUSH1 0x20 ADD SWAP1 DUP2 MSTORE PUSH1 0x20 ADD PUSH0 KECCAK256 PUSH0 PUSH2 0x100 EXP DUP2 SLOAD DUP2 PUSH1 0xFF MUL NOT AND SWAP1 DUP4 ISZERO ISZERO MUL OR SWAP1 SSTORE POP DUP3 SWAP4 POP POP POP POP SWAP2 SWAP1 POP JUMP JUMPDEST PUSH1 0x60 PUSH0 DUP1 SLOAD DUP1 PUSH1 0x20 MUL PUSH1 0x20 ADD PUSH1 0x40 MLOAD SWAP1 DUP2 ADD PUSH1 0x40 MSTORE DUP1 SWAP3 SWAP2 SWAP1 DUP2 DUP2 MSTORE PUSH1 0x20 ADD PUSH0 SWAP1 JUMPDEST DUP3 DUP3 LT ISZERO PUSH2 0x59C JUMPI DUP4 DUP3 SWAP1 PUSH0 MSTORE PUSH1 0x20 PUSH0 KECCAK256 SWAP1 PUSH1 0x2 MUL ADD PUSH1 0x40 MLOAD DUP1 PUSH1 0x40 ADD PUSH1 0x40 MSTORE SWAP1 DUP2 PUSH0 DUP3 ADD SLOAD DUP2 MSTORE PUSH1 0x20 ADD PUSH1 0x1 DUP3 ADD PUSH0 SWAP1 SLOAD SWAP1 PUSH2 0x100 EXP SWAP1 DIV PUSH20 0xFFFFFFFFFFFFFFFFFFFFFFFFFFFFFFFFFFFFFFFF AND PUSH20 0xFFFFFFFFFFFFFFFFFFFFFFFFFFFFFFFFFFFFFFFF AND PUSH20 0xFFFFFFFFFFFFFFFFFFFFFFFFFFFFFFFFFFFFFFFF AND DUP2 MSTORE POP POP DUP2 MSTORE PUSH1 0x20 ADD SWAP1 PUSH1 0x1 ADD SWAP1 PUSH2 0x50E JUMP JUMPDEST POP POP POP POP SWAP1 POP SWAP1 JUMP JUMPDEST PUSH1 0x40 MLOAD DUP1 PUSH1 0x40 ADD PUSH1 0x40 MSTORE DUP1 PUSH0 DUP2 MSTORE PUSH1 0x20 ADD PUSH0 PUSH20 0xFFFFFFFFFFFFFFFFFFFFFFFFFFFFFFFFFFFFFFFF AND DUP2 MSTORE POP SWAP1 JUMP JUMPDEST PUSH0 DUP1 REVERT JUMPDEST PUSH0 DUP2 SWAP1 POP SWAP2 SWAP1 POP JUMP JUMPDEST PUSH2 0x5E9 DUP2 PUSH2 0x5D7 JUMP JUMPDEST DUP2 EQ PUSH2 0x5F3 JUMPI PUSH0 DUP1 REVERT JUMPDEST POP JUMP JUMPDEST PUSH0 DUP2 CALLDATALOAD SWAP1 POP PUSH2 0x604 DUP2 PUSH2 0x5E0 JUMP JUMPDEST SWAP3 SWAP2 POP POP JUMP JUMPDEST PUSH0 PUSH1 0x20 DUP3 DUP5 SUB SLT ISZERO PUSH2 0x61F JUMPI PUSH2 0x61E PUSH2 0x5D3 JUMP JUMPDEST JUMPDEST PUSH0 PUSH2 0x62C DUP5 DUP3 DUP6 ADD PUSH2 0x5F6 JUMP JUMPDEST SWAP2 POP POP SWAP3 SWAP2 POP POP JUMP JUMPDEST PUSH2 0x63E DUP2 PUSH2 0x5D7 JUMP JUMPDEST DUP3 MSTORE POP POP JUMP JUMPDEST PUSH0 PUSH20 0xFFFFFFFFFFFFFFFFFFFFFFFFFFFFFFFFFFFFFFFF DUP3 AND SWAP1 POP SWAP2 SWAP1 POP JUMP JUMPDEST PUSH0 PUSH2 0x66D DUP3 PUSH2 0x644 JUMP JUMPDEST SWAP1 POP SWAP2 SWAP1 POP JUMP JUMPDEST PUSH2 0x67D DUP2 PUSH2 0x663 JUMP JUMPDEST DUP3 MSTORE POP POP JUMP JUMPDEST PUSH1 0x40 DUP3 ADD PUSH0 DUP3 ADD MLOAD PUSH2 0x697 PUSH0 DUP6 ADD DUP3 PUSH2 0x635 JUMP JUMPDEST POP PUSH1 0x20 DUP3 ADD MLOAD PUSH2 0x6AA PUSH1 0x20 DUP6 ADD DUP3 PUSH2 0x674 JUMP JUMPDEST POP POP POP POP JUMP JUMPDEST PUSH0 PUSH1 0x40 DUP3 ADD SWAP1 POP PUSH2 0x6C3 PUSH0 DUP4 ADD DUP5 PUSH2 0x683 JUMP JUMPDEST SWAP3 SWAP2 POP POP JUMP JUMPDEST PUSH2 0x6D2 DUP2 PUSH2 0x663 JUMP JUMPDEST DUP2 EQ PUSH2 0x6DC JUMPI PUSH0 DUP1 REVERT JUMPDEST POP JUMP JUMPDEST PUSH0 DUP2 CALLDATALOAD SWAP1 POP PUSH2 0x6ED DUP2 PUSH2 0x6C9 JUMP JUMPDEST SWAP3 SWAP2 POP POP JUMP JUMPDEST PUSH0 PUSH1 0x20 DUP3 DUP5 SUB SLT ISZERO PUSH2 0x708 JUMPI PUSH2 0x707 PUSH2 0x5D3 JUMP JUMPDEST JUMPDEST PUSH0 PUSH2 0x715 DUP5 DUP3 DUP6 ADD PUSH2 0x6DF JUMP JUMPDEST SWAP2 POP POP SWAP3 SWAP2 POP POP JUMP JUMPDEST PUSH2 0x727 DUP2 PUSH2 0x5D7 JUMP JUMPDEST DUP3 MSTORE POP POP JUMP JUMPDEST PUSH0 PUSH1 0x20 DUP3 ADD SWAP1 POP PUSH2 0x740 PUSH0 DUP4 ADD DUP5 PUSH2 0x71E JUMP JUMPDEST SWAP3 SWAP2 POP POP JUMP JUMPDEST PUSH0 DUP2 MLOAD SWAP1 POP SWAP2 SWAP1 POP JUMP JUMPDEST PUSH0 DUP3 DUP3 MSTORE PUSH1 0x20 DUP3 ADD SWAP1 POP SWAP3 SWAP2 POP POP JUMP JUMPDEST PUSH0 DUP2 SWAP1 POP PUSH1 0x20 DUP3 ADD SWAP1 POP SWAP2 SWAP1 POP JUMP JUMPDEST PUSH1 0x40 DUP3 ADD PUSH0 DUP3 ADD MLOAD PUSH2 0x783 PUSH0 DUP6 ADD DUP3 PUSH2 0x635 JUMP JUMPDEST POP PUSH1 0x20 DUP3 ADD MLOAD PUSH2 0x796 PUSH1 0x20 DUP6 ADD DUP3 PUSH2 0x674 JUMP JUMPDEST POP POP POP POP JUMP JUMPDEST PUSH0 PUSH2 0x7A7 DUP4 DUP4 PUSH2 0x76F JUMP JUMPDEST PUSH1 0x40 DUP4 ADD SWAP1 POP SWAP3 SWAP2 POP POP JUMP JUMPDEST PUSH0 PUSH1 0x20 DUP3 ADD SWAP1 POP SWAP2 SWAP1 POP JUMP JUMPDEST PUSH0 PUSH2 0x7C9 DUP3 PUSH2 0x746 JUMP JUMPDEST PUSH2 0x7D3 DUP2 DUP6 PUSH2 0x750 JUMP JUMPDEST SWAP4 POP PUSH2 0x7DE DUP4 PUSH2 0x760 JUMP JUMPDEST DUP1 PUSH0 JUMPDEST DUP4 DUP2 LT ISZERO PUSH2 0x80E JUMPI DUP2 MLOAD PUSH2 0x7F5 DUP9 DUP3 PUSH2 0x79C JUMP JUMPDEST SWAP8 POP PUSH2 0x800 DUP4 PUSH2 0x7B3 JUMP JUMPDEST SWAP3 POP POP PUSH1 0x1 DUP2 ADD SWAP1 POP PUSH2 0x7E1 JUMP JUMPDEST POP DUP6 SWAP4 POP POP POP POP SWAP3 SWAP2 POP POP JUMP JUMPDEST PUSH0 PUSH1 0x20 DUP3 ADD SWAP1 POP DUP2 DUP2 SUB PUSH0 DUP4 ADD MSTORE PUSH2 0x833 DUP2 DUP5 PUSH2 0x7BF JUMP JUMPDEST SWAP1 POP SWAP3 SWAP2 POP POP JUMP JUMPDEST PUSH32 0x4E487B7100000000000000000000000000000000000000000000000000000000 PUSH0 MSTORE PUSH1 0x32 PUSH1 0x4 MSTORE PUSH1 0x24 PUSH0 REVERT JUMPDEST PUSH0 DUP3 DUP3 MSTORE PUSH1 0x20 DUP3 ADD SWAP1 POP SWAP3 SWAP2 POP POP JUMP JUMPDEST PUSH32 0x436F6E7472616374204164647265737320616C72656164792065786973747300 PUSH0 DUP3 ADD MSTORE POP JUMP JUMPDEST PUSH0 PUSH2 0x8AC PUSH1 0x1F DUP4 PUSH2 0x868 JUMP JUMPDEST SWAP2 POP PUSH2 0x8B7 DUP3 PUSH2 0x878 JUMP JUMPDEST PUSH1 0x20 DUP3 ADD SWAP1 POP SWAP2 SWAP1 POP JUMP JUMPDEST PUSH0 PUSH1 0x20 DUP3 ADD SWAP1 POP DUP2 DUP2 SUB PUSH0 DUP4 ADD MSTORE PUSH2 0x8D9 DUP2 PUSH2 0x8A0 JUMP JUMPDEST SWAP1 POP SWAP2 SWAP1 POP JUMP JUMPDEST PUSH32 0x4E487B7100000000000000000000000000000000000000000000000000000000 PUSH0 MSTORE PUSH1 0x11 PUSH1 0x4 MSTORE PUSH1 0x24 PUSH0 REVERT JUMPDEST PUSH0 PUSH2 0x917 DUP3 PUSH2 0x5D7 JUMP JUMPDEST SWAP2 POP PUSH32 0xFFFFFFFFFFFFFFFFFFFFFFFFFFFFFFFFFFFFFFFFFFFFFFFFFFFFFFFFFFFFFFFF DUP3 SUB PUSH2 0x949 JUMPI PUSH2 0x948 PUSH2 0x8E0 JUMP JUMPDEST JUMPDEST PUSH1 0x1 DUP3 ADD SWAP1 POP SWAP2 SWAP1 POP JUMP JUMPDEST PUSH0 PUSH2 0x95E DUP3 PUSH2 0x5D7 JUMP JUMPDEST SWAP2 POP PUSH2 0x969 DUP4 PUSH2 0x5D7 JUMP JUMPDEST SWAP3 POP DUP3 DUP3 SUB SWAP1 POP DUP2 DUP2 GT ISZERO PUSH2 0x981 JUMPI PUSH2 0x980 PUSH2 0x8E0 JUMP JUMPDEST JUMPDEST SWAP3 SWAP2 POP POP JUMP INVALID LOG2 PUSH5 0x6970667358 0x22 SLT KECCAK256 0xE3 MULMOD LOG2 0xDA 0x26 PUSH27 0x63267AA528FD23CEBF85CB34EBDB6A63993CCD64E8D3EF83726964 PUSH20 0x6F6C634300081800330000000000000000000000 "
				},
				"gasEstimates": {
					"creation": {
						"codeDepositCost": "498600",
						"executionCost": "22634",
						"totalCost": "521234"
					},
					"external": {
						"getAllPools()": "infinite",
						"getPoolByPoolAddress(address)": "infinite",
						"getPoolByPoolId(uint256)": "infinite",
						"listPool(address)": "infinite"
					}
				},
				"methodIdentifiers": {
					"getAllPools()": "d88ff1f4",
					"getPoolByPoolAddress(address)": "2ba6cc59",
					"getPoolByPoolId(uint256)": "0f23deff",
					"listPool(address)": "b5e363b7"
				}
			},
			"storageLayout": {
				"storage": [
					{
						"astId": 10,
						"contract": "aquo/AquoPoolList.sol:PoolList",
						"label": "pools",
						"offset": 0,
						"slot": "0",
						"type": "t_array(t_struct(Pool)6_storage)dyn_storage"
					},
					{
						"astId": 13,
						"contract": "aquo/AquoPoolList.sol:PoolList",
						"label": "nextPoolId",
						"offset": 0,
						"slot": "1",
						"type": "t_uint256"
					},
					{
						"astId": 17,
						"contract": "aquo/AquoPoolList.sol:PoolList",
						"label": "poolIdToIndex",
						"offset": 0,
						"slot": "2",
						"type": "t_mapping(t_uint256,t_uint256)"
					},
					{
						"astId": 21,
						"contract": "aquo/AquoPoolList.sol:PoolList",
						"label": "poolAddressToIndex",
						"offset": 0,
						"slot": "3",
						"type": "t_mapping(t_address,t_uint256)"
					},
					{
						"astId": 25,
						"contract": "aquo/AquoPoolList.sol:PoolList",
						"label": "poolAddressExists",
						"offset": 0,
						"slot": "4",
						"type": "t_mapping(t_address,t_bool)"
					},
					{
						"astId": 29,
						"contract": "aquo/AquoPoolList.sol:PoolList",
						"label": "unallocatedPool",
						"offset": 0,
						"slot": "5",
						"type": "t_mapping(t_address,t_bool)"
					}
				],
				"types": {
					"t_address": {
						"encoding": "inplace",
						"label": "address",
						"numberOfBytes": "20"
					},
					"t_array(t_struct(Pool)6_storage)dyn_storage": {
						"base": "t_struct(Pool)6_storage",
						"encoding": "dynamic_array",
						"label": "struct PoolList.Pool[]",
						"numberOfBytes": "32"
					},
					"t_bool": {
						"encoding": "inplace",
						"label": "bool",
						"numberOfBytes": "1"
					},
					"t_mapping(t_address,t_bool)": {
						"encoding": "mapping",
						"key": "t_address",
						"label": "mapping(address => bool)",
						"numberOfBytes": "32",
						"value": "t_bool"
					},
					"t_mapping(t_address,t_uint256)": {
						"encoding": "mapping",
						"key": "t_address",
						"label": "mapping(address => uint256)",
						"numberOfBytes": "32",
						"value": "t_uint256"
					},
					"t_mapping(t_uint256,t_uint256)": {
						"encoding": "mapping",
						"key": "t_uint256",
						"label": "mapping(uint256 => uint256)",
						"numberOfBytes": "32",
						"value": "t_uint256"
					},
					"t_struct(Pool)6_storage": {
						"encoding": "inplace",
						"label": "struct PoolList.Pool",
						"members": [
							{
								"astId": 3,
								"contract": "aquo/AquoPoolList.sol:PoolList",
								"label": "poolId",
								"offset": 0,
								"slot": "0",
								"type": "t_uint256"
							},
							{
								"astId": 5,
								"contract": "aquo/AquoPoolList.sol:PoolList",
								"label": "poolAddress",
								"offset": 0,
								"slot": "1",
								"type": "t_address"
							}
						],
						"numberOfBytes": "64"
					},
					"t_uint256": {
						"encoding": "inplace",
						"label": "uint256",
						"numberOfBytes": "32"
					}
				}
			},
			"userdoc": {
				"kind": "user",
				"methods": {},
				"version": 1
			}
		}
	}
}