{
	"aquo/amm.sol": {
		"POOLDEX": {
			"abi": [
				{
					"inputs": [
						{
							"internalType": "address",
							"name": "_rwaPoolToken",
							"type": "address"
						},
						{
							"internalType": "address",
							"name": "_usdtToken",
							"type": "address"
						},
						{
							"internalType": "address",
							"name": "_priceOracle",
							"type": "address"
						}
					],
					"stateMutability": "nonpayable",
					"type": "constructor"
				},
				{
					"inputs": [],
					"name": "PRICE_PRECISION",
					"outputs": [
						{
							"internalType": "uint256",
							"name": "",
							"type": "uint256"
						}
					],
					"stateMutability": "view",
					"type": "function"
				},
				{
					"inputs": [],
					"name": "checkAndRebalance",
					"outputs": [],
					"stateMutability": "view",
					"type": "function"
				},
				{
					"inputs": [],
					"name": "getRWAPoolPrice",
					"outputs": [
						{
							"internalType": "uint256",
							"name": "",
							"type": "uint256"
						}
					],
					"stateMutability": "view",
					"type": "function"
				},
				{
					"inputs": [
						{
							"internalType": "uint256",
							"name": "oraclePrice",
							"type": "uint256"
						},
						{
							"internalType": "uint256",
							"name": "rwaPoolPrice",
							"type": "uint256"
						}
					],
					"name": "isRebalanceNeeded",
					"outputs": [
						{
							"internalType": "bool",
							"name": "",
							"type": "bool"
						}
					],
					"stateMutability": "view",
					"type": "function"
				},
				{
					"inputs": [],
					"name": "priceOracle",
					"outputs": [
						{
							"internalType": "contract IPriceOracle",
							"name": "",
							"type": "address"
						}
					],
					"stateMutability": "view",
					"type": "function"
				},
				{
					"inputs": [],
					"name": "rebalanceThreshold",
					"outputs": [
						{
							"internalType": "uint256",
							"name": "",
							"type": "uint256"
						}
					],
					"stateMutability": "view",
					"type": "function"
				},
				{
					"inputs": [],
					"name": "rwaPoolToken",
					"outputs": [
						{
							"internalType": "contract IERC20",
							"name": "",
							"type": "address"
						}
					],
					"stateMutability": "view",
					"type": "function"
				},
				{
					"inputs": [],
					"name": "usdtToken",
					"outputs": [
						{
							"internalType": "contract IERC20",
							"name": "",
							"type": "address"
						}
					],
					"stateMutability": "view",
					"type": "function"
				}
			],
			"devdoc": {
				"kind": "dev",
				"methods": {},
				"version": 1
			},
			"evm": {
				"assembly": "    /* \"aquo/amm.sol\":703:2765  contract POOLDEX {... */\n  mstore(0x40, 0x80)\n    /* \"aquo/amm.sol\":1000:1007  5 * 1e4 */\n  0xc350\n    /* \"aquo/amm.sol\":964:1007  uint256 public rebalanceThreshold = 5 * 1e4 */\n  0x03\n  sstore\n    /* \"aquo/amm.sol\":1022:1246  constructor(address _rwaPoolToken, address _usdtToken, address _priceOracle) {... */\n  callvalue\n  dup1\n  iszero\n  tag_1\n  jumpi\n  0x00\n  dup1\n  revert\ntag_1:\n  pop\n  mload(0x40)\n  sub(codesize, bytecodeSize)\n  dup1\n  bytecodeSize\n  dup4\n  codecopy\n  dup2\n  dup2\n  add\n  0x40\n  mstore\n  dup2\n  add\n  swap1\n  tag_2\n  swap2\n  swap1\n  tag_3\n  jump\t// in\ntag_2:\n    /* \"aquo/amm.sol\":1132:1145  _rwaPoolToken */\n  dup3\n    /* \"aquo/amm.sol\":1110:1122  rwaPoolToken */\n  0x00\n  dup1\n    /* \"aquo/amm.sol\":1110:1146  rwaPoolToken = IERC20(_rwaPoolToken) */\n  0x0100\n  exp\n  dup2\n  sload\n  dup2\n  0xffffffffffffffffffffffffffffffffffffffff\n  mul\n  not\n  and\n  swap1\n  dup4\n  0xffffffffffffffffffffffffffffffffffffffff\n  and\n  mul\n  or\n  swap1\n  sstore\n  pop\n    /* \"aquo/amm.sol\":1176:1186  _usdtToken */\n  dup2\n    /* \"aquo/amm.sol\":1157:1166  usdtToken */\n  0x01\n  0x00\n    /* \"aquo/amm.sol\":1157:1187  usdtToken = IERC20(_usdtToken) */\n  0x0100\n  exp\n  dup2\n  sload\n  dup2\n  0xffffffffffffffffffffffffffffffffffffffff\n  mul\n  not\n  and\n  swap1\n  dup4\n  0xffffffffffffffffffffffffffffffffffffffff\n  and\n  mul\n  or\n  swap1\n  sstore\n  pop\n    /* \"aquo/amm.sol\":1225:1237  _priceOracle */\n  dup1\n    /* \"aquo/amm.sol\":1198:1209  priceOracle */\n  0x02\n  0x00\n    /* \"aquo/amm.sol\":1198:1238  priceOracle = IPriceOracle(_priceOracle) */\n  0x0100\n  exp\n  dup2\n  sload\n  dup2\n  0xffffffffffffffffffffffffffffffffffffffff\n  mul\n  not\n  and\n  swap1\n  dup4\n  0xffffffffffffffffffffffffffffffffffffffff\n  and\n  mul\n  or\n  swap1\n  sstore\n  pop\n    /* \"aquo/amm.sol\":1022:1246  constructor(address _rwaPoolToken, address _usdtToken, address _priceOracle) {... */\n  pop\n  pop\n  pop\n    /* \"aquo/amm.sol\":703:2765  contract POOLDEX {... */\n  jump(tag_6)\n    /* \"#utility.yul\":88:205   */\ntag_8:\n    /* \"#utility.yul\":197:198   */\n  0x00\n    /* \"#utility.yul\":194:195   */\n  dup1\n    /* \"#utility.yul\":187:199   */\n  revert\n    /* \"#utility.yul\":334:460   */\ntag_10:\n    /* \"#utility.yul\":371:378   */\n  0x00\n    /* \"#utility.yul\":411:453   */\n  0xffffffffffffffffffffffffffffffffffffffff\n    /* \"#utility.yul\":404:409   */\n  dup3\n    /* \"#utility.yul\":400:454   */\n  and\n    /* \"#utility.yul\":389:454   */\n  swap1\n  pop\n    /* \"#utility.yul\":334:460   */\n  swap2\n  swap1\n  pop\n  jump\t// out\n    /* \"#utility.yul\":466:562   */\ntag_11:\n    /* \"#utility.yul\":503:510   */\n  0x00\n    /* \"#utility.yul\":532:556   */\n  tag_20\n    /* \"#utility.yul\":550:555   */\n  dup3\n    /* \"#utility.yul\":532:556   */\n  tag_10\n  jump\t// in\ntag_20:\n    /* \"#utility.yul\":521:556   */\n  swap1\n  pop\n    /* \"#utility.yul\":466:562   */\n  swap2\n  swap1\n  pop\n  jump\t// out\n    /* \"#utility.yul\":568:690   */\ntag_12:\n    /* \"#utility.yul\":641:665   */\n  tag_22\n    /* \"#utility.yul\":659:664   */\n  dup2\n    /* \"#utility.yul\":641:665   */\n  tag_11\n  jump\t// in\ntag_22:\n    /* \"#utility.yul\":634:639   */\n  dup2\n    /* \"#utility.yul\":631:666   */\n  eq\n    /* \"#utility.yul\":621:684   */\n  tag_23\n  jumpi\n    /* \"#utility.yul\":680:681   */\n  0x00\n    /* \"#utility.yul\":677:678   */\n  dup1\n    /* \"#utility.yul\":670:682   */\n  revert\n    /* \"#utility.yul\":621:684   */\ntag_23:\n    /* \"#utility.yul\":568:690   */\n  pop\n  jump\t// out\n    /* \"#utility.yul\":696:839   */\ntag_13:\n    /* \"#utility.yul\":753:758   */\n  0x00\n    /* \"#utility.yul\":784:790   */\n  dup2\n    /* \"#utility.yul\":778:791   */\n  mload\n    /* \"#utility.yul\":769:791   */\n  swap1\n  pop\n    /* \"#utility.yul\":800:833   */\n  tag_25\n    /* \"#utility.yul\":827:832   */\n  dup2\n    /* \"#utility.yul\":800:833   */\n  tag_12\n  jump\t// in\ntag_25:\n    /* \"#utility.yul\":696:839   */\n  swap3\n  swap2\n  pop\n  pop\n  jump\t// out\n    /* \"#utility.yul\":845:1508   */\ntag_3:\n    /* \"#utility.yul\":933:939   */\n  0x00\n    /* \"#utility.yul\":941:947   */\n  dup1\n    /* \"#utility.yul\":949:955   */\n  0x00\n    /* \"#utility.yul\":998:1000   */\n  0x60\n    /* \"#utility.yul\":986:995   */\n  dup5\n    /* \"#utility.yul\":977:984   */\n  dup7\n    /* \"#utility.yul\":973:996   */\n  sub\n    /* \"#utility.yul\":969:1001   */\n  slt\n    /* \"#utility.yul\":966:1085   */\n  iszero\n  tag_27\n  jumpi\n    /* \"#utility.yul\":1004:1083   */\n  tag_28\n  tag_8\n  jump\t// in\ntag_28:\n    /* \"#utility.yul\":966:1085   */\ntag_27:\n    /* \"#utility.yul\":1124:1125   */\n  0x00\n    /* \"#utility.yul\":1149:1213   */\n  tag_29\n    /* \"#utility.yul\":1205:1212   */\n  dup7\n    /* \"#utility.yul\":1196:1202   */\n  dup3\n    /* \"#utility.yul\":1185:1194   */\n  dup8\n    /* \"#utility.yul\":1181:1203   */\n  add\n    /* \"#utility.yul\":1149:1213   */\n  tag_13\n  jump\t// in\ntag_29:\n    /* \"#utility.yul\":1139:1213   */\n  swap4\n  pop\n    /* \"#utility.yul\":1095:1223   */\n  pop\n    /* \"#utility.yul\":1262:1264   */\n  0x20\n    /* \"#utility.yul\":1288:1352   */\n  tag_30\n    /* \"#utility.yul\":1344:1351   */\n  dup7\n    /* \"#utility.yul\":1335:1341   */\n  dup3\n    /* \"#utility.yul\":1324:1333   */\n  dup8\n    /* \"#utility.yul\":1320:1342   */\n  add\n    /* \"#utility.yul\":1288:1352   */\n  tag_13\n  jump\t// in\ntag_30:\n    /* \"#utility.yul\":1278:1352   */\n  swap3\n  pop\n    /* \"#utility.yul\":1233:1362   */\n  pop\n    /* \"#utility.yul\":1401:1403   */\n  0x40\n    /* \"#utility.yul\":1427:1491   */\n  tag_31\n    /* \"#utility.yul\":1483:1490   */\n  dup7\n    /* \"#utility.yul\":1474:1480   */\n  dup3\n    /* \"#utility.yul\":1463:1472   */\n  dup8\n    /* \"#utility.yul\":1459:1481   */\n  add\n    /* \"#utility.yul\":1427:1491   */\n  tag_13\n  jump\t// in\ntag_31:\n    /* \"#utility.yul\":1417:1491   */\n  swap2\n  pop\n    /* \"#utility.yul\":1372:1501   */\n  pop\n    /* \"#utility.yul\":845:1508   */\n  swap3\n  pop\n  swap3\n  pop\n  swap3\n  jump\t// out\n    /* \"aquo/amm.sol\":703:2765  contract POOLDEX {... */\ntag_6:\n  dataSize(sub_0)\n  dup1\n  dataOffset(sub_0)\n  0x00\n  codecopy\n  0x00\n  return\nstop\n\nsub_0: assembly {\n        /* \"aquo/amm.sol\":703:2765  contract POOLDEX {... */\n      mstore(0x40, 0x80)\n      callvalue\n      dup1\n      iszero\n      tag_1\n      jumpi\n      0x00\n      dup1\n      revert\n    tag_1:\n      pop\n      jumpi(tag_2, lt(calldatasize, 0x04))\n      shr(0xe0, calldataload(0x00))\n      dup1\n      0x3ed55f0c\n      gt\n      tag_11\n      jumpi\n      dup1\n      0x3ed55f0c\n      eq\n      tag_7\n      jumpi\n      dup1\n      0x95082d25\n      eq\n      tag_8\n      jumpi\n      dup1\n      0xa98ad46c\n      eq\n      tag_9\n      jumpi\n      dup1\n      0xbc27f662\n      eq\n      tag_10\n      jumpi\n      jump(tag_2)\n    tag_11:\n      dup1\n      0x25a15921\n      eq\n      tag_3\n      jumpi\n      dup1\n      0x2630c12f\n      eq\n      tag_4\n      jumpi\n      dup1\n      0x39c23ed4\n      eq\n      tag_5\n      jumpi\n      dup1\n      0x3dfe9f6a\n      eq\n      tag_6\n      jumpi\n    tag_2:\n      0x00\n      dup1\n      revert\n        /* \"aquo/amm.sol\":727:753  IERC20 public rwaPoolToken */\n    tag_3:\n      tag_12\n      tag_13\n      jump\t// in\n    tag_12:\n      mload(0x40)\n      tag_14\n      swap2\n      swap1\n      tag_15\n      jump\t// in\n    tag_14:\n      mload(0x40)\n      dup1\n      swap2\n      sub\n      swap1\n      return\n        /* \"aquo/amm.sol\":790:821  IPriceOracle public priceOracle */\n    tag_4:\n      tag_16\n      tag_17\n      jump\t// in\n    tag_16:\n      mload(0x40)\n      tag_18\n      swap2\n      swap1\n      tag_19\n      jump\t// in\n    tag_18:\n      mload(0x40)\n      dup1\n      swap2\n      sub\n      swap1\n      return\n        /* \"aquo/amm.sol\":1811:2198  function isRebalanceNeeded(uint256 oraclePrice, uint256 rwaPoolPrice) public view returns (bool) {... */\n    tag_5:\n      tag_20\n      0x04\n      dup1\n      calldatasize\n      sub\n      dup2\n      add\n      swap1\n      tag_21\n      swap2\n      swap1\n      tag_22\n      jump\t// in\n    tag_21:\n      tag_23\n      jump\t// in\n    tag_20:\n      mload(0x40)\n      tag_24\n      swap2\n      swap1\n      tag_25\n      jump\t// in\n    tag_24:\n      mload(0x40)\n      dup1\n      swap2\n      sub\n      swap1\n      return\n        /* \"aquo/amm.sol\":964:1007  uint256 public rebalanceThreshold = 5 * 1e4 */\n    tag_6:\n      tag_26\n      tag_27\n      jump\t// in\n    tag_26:\n      mload(0x40)\n      tag_28\n      swap2\n      swap1\n      tag_29\n      jump\t// in\n    tag_28:\n      mload(0x40)\n      dup1\n      swap2\n      sub\n      swap1\n      return\n        /* \"aquo/amm.sol\":1254:1803  function checkAndRebalance() public view {... */\n    tag_7:\n      tag_30\n      tag_31\n      jump\t// in\n    tag_30:\n      stop\n        /* \"aquo/amm.sol\":830:875  uint256 public constant PRICE_PRECISION = 1e6 */\n    tag_8:\n      tag_32\n      tag_33\n      jump\t// in\n    tag_32:\n      mload(0x40)\n      tag_34\n      swap2\n      swap1\n      tag_29\n      jump\t// in\n    tag_34:\n      mload(0x40)\n      dup1\n      swap2\n      sub\n      swap1\n      return\n        /* \"aquo/amm.sol\":760:783  IERC20 public usdtToken */\n    tag_9:\n      tag_35\n      tag_36\n      jump\t// in\n    tag_35:\n      mload(0x40)\n      tag_37\n      swap2\n      swap1\n      tag_15\n      jump\t// in\n    tag_37:\n      mload(0x40)\n      dup1\n      swap2\n      sub\n      swap1\n      return\n        /* \"aquo/amm.sol\":2206:2664  function getRWAPoolPrice() public view returns (uint256) {... */\n    tag_10:\n      tag_38\n      tag_39\n      jump\t// in\n    tag_38:\n      mload(0x40)\n      tag_40\n      swap2\n      swap1\n      tag_29\n      jump\t// in\n    tag_40:\n      mload(0x40)\n      dup1\n      swap2\n      sub\n      swap1\n      return\n        /* \"aquo/amm.sol\":727:753  IERC20 public rwaPoolToken */\n    tag_13:\n      0x00\n      dup1\n      sload\n      swap1\n      0x0100\n      exp\n      swap1\n      div\n      0xffffffffffffffffffffffffffffffffffffffff\n      and\n      dup2\n      jump\t// out\n        /* \"aquo/amm.sol\":790:821  IPriceOracle public priceOracle */\n    tag_17:\n      0x02\n      0x00\n      swap1\n      sload\n      swap1\n      0x0100\n      exp\n      swap1\n      div\n      0xffffffffffffffffffffffffffffffffffffffff\n      and\n      dup2\n      jump\t// out\n        /* \"aquo/amm.sol\":1811:2198  function isRebalanceNeeded(uint256 oraclePrice, uint256 rwaPoolPrice) public view returns (bool) {... */\n    tag_23:\n        /* \"aquo/amm.sol\":1902:1906  bool */\n      0x00\n        /* \"aquo/amm.sol\":1919:1942  uint256 priceDifference */\n      dup1\n        /* \"aquo/amm.sol\":1959:1971  rwaPoolPrice */\n      dup3\n        /* \"aquo/amm.sol\":1945:1956  oraclePrice */\n      dup5\n        /* \"aquo/amm.sol\":1945:1971  oraclePrice > rwaPoolPrice */\n      gt\n        /* \"aquo/amm.sol\":1945:2029  oraclePrice > rwaPoolPrice ? oraclePrice - rwaPoolPrice : rwaPoolPrice - oraclePrice */\n      tag_42\n      jumpi\n        /* \"aquo/amm.sol\":2018:2029  oraclePrice */\n      dup4\n        /* \"aquo/amm.sol\":2003:2015  rwaPoolPrice */\n      dup4\n        /* \"aquo/amm.sol\":2003:2029  rwaPoolPrice - oraclePrice */\n      tag_43\n      swap2\n      swap1\n      tag_44\n      jump\t// in\n    tag_43:\n        /* \"aquo/amm.sol\":1945:2029  oraclePrice > rwaPoolPrice ? oraclePrice - rwaPoolPrice : rwaPoolPrice - oraclePrice */\n      jump(tag_45)\n    tag_42:\n        /* \"aquo/amm.sol\":1988:2000  rwaPoolPrice */\n      dup3\n        /* \"aquo/amm.sol\":1974:1985  oraclePrice */\n      dup5\n        /* \"aquo/amm.sol\":1974:2000  oraclePrice - rwaPoolPrice */\n      tag_46\n      swap2\n      swap1\n      tag_44\n      jump\t// in\n    tag_46:\n        /* \"aquo/amm.sol\":1945:2029  oraclePrice > rwaPoolPrice ? oraclePrice - rwaPoolPrice : rwaPoolPrice - oraclePrice */\n    tag_45:\n        /* \"aquo/amm.sol\":1919:2029  uint256 priceDifference = oraclePrice > rwaPoolPrice ? oraclePrice - rwaPoolPrice : rwaPoolPrice - oraclePrice */\n      swap1\n      pop\n        /* \"aquo/amm.sol\":2040:2073  uint256 priceDifferencePercentage */\n      0x00\n        /* \"aquo/amm.sol\":2114:2125  oraclePrice */\n      dup5\n        /* \"aquo/amm.sol\":872:875  1e6 */\n      0x0f4240\n        /* \"aquo/amm.sol\":2077:2092  priceDifference */\n      dup4\n        /* \"aquo/amm.sol\":2077:2110  priceDifference * PRICE_PRECISION */\n      tag_47\n      swap2\n      swap1\n      tag_48\n      jump\t// in\n    tag_47:\n        /* \"aquo/amm.sol\":2076:2125  (priceDifference * PRICE_PRECISION) / oraclePrice */\n      tag_49\n      swap2\n      swap1\n      tag_50\n      jump\t// in\n    tag_49:\n        /* \"aquo/amm.sol\":2040:2125  uint256 priceDifferencePercentage = (priceDifference * PRICE_PRECISION) / oraclePrice */\n      swap1\n      pop\n        /* \"aquo/amm.sol\":2172:2190  rebalanceThreshold */\n      sload(0x03)\n        /* \"aquo/amm.sol\":2143:2168  priceDifferencePercentage */\n      dup2\n        /* \"aquo/amm.sol\":2143:2190  priceDifferencePercentage >= rebalanceThreshold */\n      lt\n      iszero\n        /* \"aquo/amm.sol\":2136:2190  return priceDifferencePercentage >= rebalanceThreshold */\n      swap3\n      pop\n      pop\n      pop\n        /* \"aquo/amm.sol\":1811:2198  function isRebalanceNeeded(uint256 oraclePrice, uint256 rwaPoolPrice) public view returns (bool) {... */\n      swap3\n      swap2\n      pop\n      pop\n      jump\t// out\n        /* \"aquo/amm.sol\":964:1007  uint256 public rebalanceThreshold = 5 * 1e4 */\n    tag_27:\n      sload(0x03)\n      dup2\n      jump\t// out\n        /* \"aquo/amm.sol\":1254:1803  function checkAndRebalance() public view {... */\n    tag_31:\n        /* \"aquo/amm.sol\":1306:1325  uint256 oraclePrice */\n      0x00\n        /* \"aquo/amm.sol\":1328:1339  priceOracle */\n      0x02\n      0x00\n      swap1\n      sload\n      swap1\n      0x0100\n      exp\n      swap1\n      div\n      0xffffffffffffffffffffffffffffffffffffffff\n      and\n        /* \"aquo/amm.sol\":1328:1354  priceOracle.getLatestPrice */\n      0xffffffffffffffffffffffffffffffffffffffff\n      and\n      0x8e15f473\n        /* \"aquo/amm.sol\":1328:1356  priceOracle.getLatestPrice() */\n      mload(0x40)\n      dup2\n      0xffffffff\n      and\n      0xe0\n      shl\n      dup2\n      mstore\n      0x04\n      add\n      0x20\n      mload(0x40)\n      dup1\n      dup4\n      sub\n      dup2\n      dup7\n      gas\n      staticcall\n      iszero\n      dup1\n      iszero\n      tag_53\n      jumpi\n      returndatasize\n      0x00\n      dup1\n      returndatacopy\n      revert(0x00, returndatasize)\n    tag_53:\n      pop\n      pop\n      pop\n      pop\n      mload(0x40)\n      returndatasize\n      not(0x1f)\n      0x1f\n      dup3\n      add\n      and\n      dup3\n      add\n      dup1\n      0x40\n      mstore\n      pop\n      dup2\n      add\n      swap1\n      tag_54\n      swap2\n      swap1\n      tag_55\n      jump\t// in\n    tag_54:\n        /* \"aquo/amm.sol\":1306:1356  uint256 oraclePrice = priceOracle.getLatestPrice() */\n      swap1\n      pop\n        /* \"aquo/amm.sol\":1426:1446  uint256 rwaPoolPrice */\n      0x00\n        /* \"aquo/amm.sol\":1449:1466  getRWAPoolPrice() */\n      tag_56\n        /* \"aquo/amm.sol\":1449:1464  getRWAPoolPrice */\n      tag_39\n        /* \"aquo/amm.sol\":1449:1466  getRWAPoolPrice() */\n      jump\t// in\n    tag_56:\n        /* \"aquo/amm.sol\":1426:1466  uint256 rwaPoolPrice = getRWAPoolPrice() */\n      swap1\n      pop\n        /* \"aquo/amm.sol\":1483:1527  isRebalanceNeeded(oraclePrice, rwaPoolPrice) */\n      tag_57\n        /* \"aquo/amm.sol\":1501:1512  oraclePrice */\n      dup3\n        /* \"aquo/amm.sol\":1514:1526  rwaPoolPrice */\n      dup3\n        /* \"aquo/amm.sol\":1483:1500  isRebalanceNeeded */\n      tag_23\n        /* \"aquo/amm.sol\":1483:1527  isRebalanceNeeded(oraclePrice, rwaPoolPrice) */\n      jump\t// in\n    tag_57:\n        /* \"aquo/amm.sol\":1479:1796  if (isRebalanceNeeded(oraclePrice, rwaPoolPrice)) {... */\n      pop\n        /* \"aquo/amm.sol\":1295:1803  {... */\n      pop\n      pop\n        /* \"aquo/amm.sol\":1254:1803  function checkAndRebalance() public view {... */\n      jump\t// out\n        /* \"aquo/amm.sol\":830:875  uint256 public constant PRICE_PRECISION = 1e6 */\n    tag_33:\n        /* \"aquo/amm.sol\":872:875  1e6 */\n      0x0f4240\n        /* \"aquo/amm.sol\":830:875  uint256 public constant PRICE_PRECISION = 1e6 */\n      dup2\n      jump\t// out\n        /* \"aquo/amm.sol\":760:783  IERC20 public usdtToken */\n    tag_36:\n      0x01\n      0x00\n      swap1\n      sload\n      swap1\n      0x0100\n      exp\n      swap1\n      div\n      0xffffffffffffffffffffffffffffffffffffffff\n      and\n      dup2\n      jump\t// out\n        /* \"aquo/amm.sol\":2206:2664  function getRWAPoolPrice() public view returns (uint256) {... */\n    tag_39:\n        /* \"aquo/amm.sol\":2254:2261  uint256 */\n      0x00\n        /* \"aquo/amm.sol\":2461:2483  uint256 rwaPoolBalance */\n      dup1\n        /* \"aquo/amm.sol\":2486:2498  rwaPoolToken */\n      0x00\n      dup1\n      sload\n      swap1\n      0x0100\n      exp\n      swap1\n      div\n      0xffffffffffffffffffffffffffffffffffffffff\n      and\n        /* \"aquo/amm.sol\":2486:2508  rwaPoolToken.balanceOf */\n      0xffffffffffffffffffffffffffffffffffffffff\n      and\n      0x70a08231\n        /* \"aquo/amm.sol\":2517:2521  this */\n      address\n        /* \"aquo/amm.sol\":2486:2523  rwaPoolToken.balanceOf(address(this)) */\n      mload(0x40)\n      dup3\n      0xffffffff\n      and\n      0xe0\n      shl\n      dup2\n      mstore\n      0x04\n      add\n      tag_60\n      swap2\n      swap1\n      tag_61\n      jump\t// in\n    tag_60:\n      0x20\n      mload(0x40)\n      dup1\n      dup4\n      sub\n      dup2\n      dup7\n      gas\n      staticcall\n      iszero\n      dup1\n      iszero\n      tag_63\n      jumpi\n      returndatasize\n      0x00\n      dup1\n      returndatacopy\n      revert(0x00, returndatasize)\n    tag_63:\n      pop\n      pop\n      pop\n      pop\n      mload(0x40)\n      returndatasize\n      not(0x1f)\n      0x1f\n      dup3\n      add\n      and\n      dup3\n      add\n      dup1\n      0x40\n      mstore\n      pop\n      dup2\n      add\n      swap1\n      tag_64\n      swap2\n      swap1\n      tag_55\n      jump\t// in\n    tag_64:\n        /* \"aquo/amm.sol\":2461:2523  uint256 rwaPoolBalance = rwaPoolToken.balanceOf(address(this)) */\n      swap1\n      pop\n        /* \"aquo/amm.sol\":2534:2553  uint256 usdtBalance */\n      0x00\n        /* \"aquo/amm.sol\":2556:2565  usdtToken */\n      0x01\n      0x00\n      swap1\n      sload\n      swap1\n      0x0100\n      exp\n      swap1\n      div\n      0xffffffffffffffffffffffffffffffffffffffff\n      and\n        /* \"aquo/amm.sol\":2556:2575  usdtToken.balanceOf */\n      0xffffffffffffffffffffffffffffffffffffffff\n      and\n      0x70a08231\n        /* \"aquo/amm.sol\":2584:2588  this */\n      address\n        /* \"aquo/amm.sol\":2556:2590  usdtToken.balanceOf(address(this)) */\n      mload(0x40)\n      dup3\n      0xffffffff\n      and\n      0xe0\n      shl\n      dup2\n      mstore\n      0x04\n      add\n      tag_65\n      swap2\n      swap1\n      tag_61\n      jump\t// in\n    tag_65:\n      0x20\n      mload(0x40)\n      dup1\n      dup4\n      sub\n      dup2\n      dup7\n      gas\n      staticcall\n      iszero\n      dup1\n      iszero\n      tag_67\n      jumpi\n      returndatasize\n      0x00\n      dup1\n      returndatacopy\n      revert(0x00, returndatasize)\n    tag_67:\n      pop\n      pop\n      pop\n      pop\n      mload(0x40)\n      returndatasize\n      not(0x1f)\n      0x1f\n      dup3\n      add\n      and\n      dup3\n      add\n      dup1\n      0x40\n      mstore\n      pop\n      dup2\n      add\n      swap1\n      tag_68\n      swap2\n      swap1\n      tag_55\n      jump\t// in\n    tag_68:\n        /* \"aquo/amm.sol\":2534:2590  uint256 usdtBalance = usdtToken.balanceOf(address(this)) */\n      swap1\n      pop\n        /* \"aquo/amm.sol\":2642:2656  rwaPoolBalance */\n      dup2\n        /* \"aquo/amm.sol\":872:875  1e6 */\n      0x0f4240\n        /* \"aquo/amm.sol\":2609:2620  usdtBalance */\n      dup3\n        /* \"aquo/amm.sol\":2609:2638  usdtBalance * PRICE_PRECISION */\n      tag_69\n      swap2\n      swap1\n      tag_48\n      jump\t// in\n    tag_69:\n        /* \"aquo/amm.sol\":2608:2656  (usdtBalance * PRICE_PRECISION) / rwaPoolBalance */\n      tag_70\n      swap2\n      swap1\n      tag_50\n      jump\t// in\n    tag_70:\n        /* \"aquo/amm.sol\":2601:2656  return (usdtBalance * PRICE_PRECISION) / rwaPoolBalance */\n      swap3\n      pop\n      pop\n      pop\n        /* \"aquo/amm.sol\":2206:2664  function getRWAPoolPrice() public view returns (uint256) {... */\n      swap1\n      jump\t// out\n        /* \"#utility.yul\":7:133   */\n    tag_71:\n        /* \"#utility.yul\":44:51   */\n      0x00\n        /* \"#utility.yul\":84:126   */\n      0xffffffffffffffffffffffffffffffffffffffff\n        /* \"#utility.yul\":77:82   */\n      dup3\n        /* \"#utility.yul\":73:127   */\n      and\n        /* \"#utility.yul\":62:127   */\n      swap1\n      pop\n        /* \"#utility.yul\":7:133   */\n      swap2\n      swap1\n      pop\n      jump\t// out\n        /* \"#utility.yul\":139:199   */\n    tag_72:\n        /* \"#utility.yul\":167:170   */\n      0x00\n        /* \"#utility.yul\":188:193   */\n      dup2\n        /* \"#utility.yul\":181:193   */\n      swap1\n      pop\n        /* \"#utility.yul\":139:199   */\n      swap2\n      swap1\n      pop\n      jump\t// out\n        /* \"#utility.yul\":205:347   */\n    tag_73:\n        /* \"#utility.yul\":255:264   */\n      0x00\n        /* \"#utility.yul\":288:341   */\n      tag_97\n        /* \"#utility.yul\":306:340   */\n      tag_98\n        /* \"#utility.yul\":315:339   */\n      tag_99\n        /* \"#utility.yul\":333:338   */\n      dup5\n        /* \"#utility.yul\":315:339   */\n      tag_71\n      jump\t// in\n    tag_99:\n        /* \"#utility.yul\":306:340   */\n      tag_72\n      jump\t// in\n    tag_98:\n        /* \"#utility.yul\":288:341   */\n      tag_71\n      jump\t// in\n    tag_97:\n        /* \"#utility.yul\":275:341   */\n      swap1\n      pop\n        /* \"#utility.yul\":205:347   */\n      swap2\n      swap1\n      pop\n      jump\t// out\n        /* \"#utility.yul\":353:479   */\n    tag_74:\n        /* \"#utility.yul\":403:412   */\n      0x00\n        /* \"#utility.yul\":436:473   */\n      tag_101\n        /* \"#utility.yul\":467:472   */\n      dup3\n        /* \"#utility.yul\":436:473   */\n      tag_73\n      jump\t// in\n    tag_101:\n        /* \"#utility.yul\":423:473   */\n      swap1\n      pop\n        /* \"#utility.yul\":353:479   */\n      swap2\n      swap1\n      pop\n      jump\t// out\n        /* \"#utility.yul\":485:624   */\n    tag_75:\n        /* \"#utility.yul\":548:557   */\n      0x00\n        /* \"#utility.yul\":581:618   */\n      tag_103\n        /* \"#utility.yul\":612:617   */\n      dup3\n        /* \"#utility.yul\":581:618   */\n      tag_74\n      jump\t// in\n    tag_103:\n        /* \"#utility.yul\":568:618   */\n      swap1\n      pop\n        /* \"#utility.yul\":485:624   */\n      swap2\n      swap1\n      pop\n      jump\t// out\n        /* \"#utility.yul\":630:787   */\n    tag_76:\n        /* \"#utility.yul\":730:780   */\n      tag_105\n        /* \"#utility.yul\":774:779   */\n      dup2\n        /* \"#utility.yul\":730:780   */\n      tag_75\n      jump\t// in\n    tag_105:\n        /* \"#utility.yul\":725:728   */\n      dup3\n        /* \"#utility.yul\":718:781   */\n      mstore\n        /* \"#utility.yul\":630:787   */\n      pop\n      pop\n      jump\t// out\n        /* \"#utility.yul\":793:1041   */\n    tag_15:\n        /* \"#utility.yul\":899:903   */\n      0x00\n        /* \"#utility.yul\":937:939   */\n      0x20\n        /* \"#utility.yul\":926:935   */\n      dup3\n        /* \"#utility.yul\":922:940   */\n      add\n        /* \"#utility.yul\":914:940   */\n      swap1\n      pop\n        /* \"#utility.yul\":950:1034   */\n      tag_107\n        /* \"#utility.yul\":1031:1032   */\n      0x00\n        /* \"#utility.yul\":1020:1029   */\n      dup4\n        /* \"#utility.yul\":1016:1033   */\n      add\n        /* \"#utility.yul\":1007:1013   */\n      dup5\n        /* \"#utility.yul\":950:1034   */\n      tag_76\n      jump\t// in\n    tag_107:\n        /* \"#utility.yul\":793:1041   */\n      swap3\n      swap2\n      pop\n      pop\n      jump\t// out\n        /* \"#utility.yul\":1047:1192   */\n    tag_77:\n        /* \"#utility.yul\":1116:1125   */\n      0x00\n        /* \"#utility.yul\":1149:1186   */\n      tag_109\n        /* \"#utility.yul\":1180:1185   */\n      dup3\n        /* \"#utility.yul\":1149:1186   */\n      tag_74\n      jump\t// in\n    tag_109:\n        /* \"#utility.yul\":1136:1186   */\n      swap1\n      pop\n        /* \"#utility.yul\":1047:1192   */\n      swap2\n      swap1\n      pop\n      jump\t// out\n        /* \"#utility.yul\":1198:1367   */\n    tag_78:\n        /* \"#utility.yul\":1304:1360   */\n      tag_111\n        /* \"#utility.yul\":1354:1359   */\n      dup2\n        /* \"#utility.yul\":1304:1360   */\n      tag_77\n      jump\t// in\n    tag_111:\n        /* \"#utility.yul\":1299:1302   */\n      dup3\n        /* \"#utility.yul\":1292:1361   */\n      mstore\n        /* \"#utility.yul\":1198:1367   */\n      pop\n      pop\n      jump\t// out\n        /* \"#utility.yul\":1373:1633   */\n    tag_19:\n        /* \"#utility.yul\":1485:1489   */\n      0x00\n        /* \"#utility.yul\":1523:1525   */\n      0x20\n        /* \"#utility.yul\":1512:1521   */\n      dup3\n        /* \"#utility.yul\":1508:1526   */\n      add\n        /* \"#utility.yul\":1500:1526   */\n      swap1\n      pop\n        /* \"#utility.yul\":1536:1626   */\n      tag_113\n        /* \"#utility.yul\":1623:1624   */\n      0x00\n        /* \"#utility.yul\":1612:1621   */\n      dup4\n        /* \"#utility.yul\":1608:1625   */\n      add\n        /* \"#utility.yul\":1599:1605   */\n      dup5\n        /* \"#utility.yul\":1536:1626   */\n      tag_78\n      jump\t// in\n    tag_113:\n        /* \"#utility.yul\":1373:1633   */\n      swap3\n      swap2\n      pop\n      pop\n      jump\t// out\n        /* \"#utility.yul\":1720:1837   */\n    tag_80:\n        /* \"#utility.yul\":1829:1830   */\n      0x00\n        /* \"#utility.yul\":1826:1827   */\n      dup1\n        /* \"#utility.yul\":1819:1831   */\n      revert\n        /* \"#utility.yul\":1966:2043   */\n    tag_82:\n        /* \"#utility.yul\":2003:2010   */\n      0x00\n        /* \"#utility.yul\":2032:2037   */\n      dup2\n        /* \"#utility.yul\":2021:2037   */\n      swap1\n      pop\n        /* \"#utility.yul\":1966:2043   */\n      swap2\n      swap1\n      pop\n      jump\t// out\n        /* \"#utility.yul\":2049:2171   */\n    tag_83:\n        /* \"#utility.yul\":2122:2146   */\n      tag_119\n        /* \"#utility.yul\":2140:2145   */\n      dup2\n        /* \"#utility.yul\":2122:2146   */\n      tag_82\n      jump\t// in\n    tag_119:\n        /* \"#utility.yul\":2115:2120   */\n      dup2\n        /* \"#utility.yul\":2112:2147   */\n      eq\n        /* \"#utility.yul\":2102:2165   */\n      tag_120\n      jumpi\n        /* \"#utility.yul\":2161:2162   */\n      0x00\n        /* \"#utility.yul\":2158:2159   */\n      dup1\n        /* \"#utility.yul\":2151:2163   */\n      revert\n        /* \"#utility.yul\":2102:2165   */\n    tag_120:\n        /* \"#utility.yul\":2049:2171   */\n      pop\n      jump\t// out\n        /* \"#utility.yul\":2177:2316   */\n    tag_84:\n        /* \"#utility.yul\":2223:2228   */\n      0x00\n        /* \"#utility.yul\":2261:2267   */\n      dup2\n        /* \"#utility.yul\":2248:2268   */\n      calldataload\n        /* \"#utility.yul\":2239:2268   */\n      swap1\n      pop\n        /* \"#utility.yul\":2277:2310   */\n      tag_122\n        /* \"#utility.yul\":2304:2309   */\n      dup2\n        /* \"#utility.yul\":2277:2310   */\n      tag_83\n      jump\t// in\n    tag_122:\n        /* \"#utility.yul\":2177:2316   */\n      swap3\n      swap2\n      pop\n      pop\n      jump\t// out\n        /* \"#utility.yul\":2322:2796   */\n    tag_22:\n        /* \"#utility.yul\":2390:2396   */\n      0x00\n        /* \"#utility.yul\":2398:2404   */\n      dup1\n        /* \"#utility.yul\":2447:2449   */\n      0x40\n        /* \"#utility.yul\":2435:2444   */\n      dup4\n        /* \"#utility.yul\":2426:2433   */\n      dup6\n        /* \"#utility.yul\":2422:2445   */\n      sub\n        /* \"#utility.yul\":2418:2450   */\n      slt\n        /* \"#utility.yul\":2415:2534   */\n      iszero\n      tag_124\n      jumpi\n        /* \"#utility.yul\":2453:2532   */\n      tag_125\n      tag_80\n      jump\t// in\n    tag_125:\n        /* \"#utility.yul\":2415:2534   */\n    tag_124:\n        /* \"#utility.yul\":2573:2574   */\n      0x00\n        /* \"#utility.yul\":2598:2651   */\n      tag_126\n        /* \"#utility.yul\":2643:2650   */\n      dup6\n        /* \"#utility.yul\":2634:2640   */\n      dup3\n        /* \"#utility.yul\":2623:2632   */\n      dup7\n        /* \"#utility.yul\":2619:2641   */\n      add\n        /* \"#utility.yul\":2598:2651   */\n      tag_84\n      jump\t// in\n    tag_126:\n        /* \"#utility.yul\":2588:2651   */\n      swap3\n      pop\n        /* \"#utility.yul\":2544:2661   */\n      pop\n        /* \"#utility.yul\":2700:2702   */\n      0x20\n        /* \"#utility.yul\":2726:2779   */\n      tag_127\n        /* \"#utility.yul\":2771:2778   */\n      dup6\n        /* \"#utility.yul\":2762:2768   */\n      dup3\n        /* \"#utility.yul\":2751:2760   */\n      dup7\n        /* \"#utility.yul\":2747:2769   */\n      add\n        /* \"#utility.yul\":2726:2779   */\n      tag_84\n      jump\t// in\n    tag_127:\n        /* \"#utility.yul\":2716:2779   */\n      swap2\n      pop\n        /* \"#utility.yul\":2671:2789   */\n      pop\n        /* \"#utility.yul\":2322:2796   */\n      swap3\n      pop\n      swap3\n      swap1\n      pop\n      jump\t// out\n        /* \"#utility.yul\":2802:2892   */\n    tag_85:\n        /* \"#utility.yul\":2836:2843   */\n      0x00\n        /* \"#utility.yul\":2879:2884   */\n      dup2\n        /* \"#utility.yul\":2872:2885   */\n      iszero\n        /* \"#utility.yul\":2865:2886   */\n      iszero\n        /* \"#utility.yul\":2854:2886   */\n      swap1\n      pop\n        /* \"#utility.yul\":2802:2892   */\n      swap2\n      swap1\n      pop\n      jump\t// out\n        /* \"#utility.yul\":2898:3007   */\n    tag_86:\n        /* \"#utility.yul\":2979:3000   */\n      tag_130\n        /* \"#utility.yul\":2994:2999   */\n      dup2\n        /* \"#utility.yul\":2979:3000   */\n      tag_85\n      jump\t// in\n    tag_130:\n        /* \"#utility.yul\":2974:2977   */\n      dup3\n        /* \"#utility.yul\":2967:3001   */\n      mstore\n        /* \"#utility.yul\":2898:3007   */\n      pop\n      pop\n      jump\t// out\n        /* \"#utility.yul\":3013:3223   */\n    tag_25:\n        /* \"#utility.yul\":3100:3104   */\n      0x00\n        /* \"#utility.yul\":3138:3140   */\n      0x20\n        /* \"#utility.yul\":3127:3136   */\n      dup3\n        /* \"#utility.yul\":3123:3141   */\n      add\n        /* \"#utility.yul\":3115:3141   */\n      swap1\n      pop\n        /* \"#utility.yul\":3151:3216   */\n      tag_132\n        /* \"#utility.yul\":3213:3214   */\n      0x00\n        /* \"#utility.yul\":3202:3211   */\n      dup4\n        /* \"#utility.yul\":3198:3215   */\n      add\n        /* \"#utility.yul\":3189:3195   */\n      dup5\n        /* \"#utility.yul\":3151:3216   */\n      tag_86\n      jump\t// in\n    tag_132:\n        /* \"#utility.yul\":3013:3223   */\n      swap3\n      swap2\n      pop\n      pop\n      jump\t// out\n        /* \"#utility.yul\":3229:3347   */\n    tag_87:\n        /* \"#utility.yul\":3316:3340   */\n      tag_134\n        /* \"#utility.yul\":3334:3339   */\n      dup2\n        /* \"#utility.yul\":3316:3340   */\n      tag_82\n      jump\t// in\n    tag_134:\n        /* \"#utility.yul\":3311:3314   */\n      dup3\n        /* \"#utility.yul\":3304:3341   */\n      mstore\n        /* \"#utility.yul\":3229:3347   */\n      pop\n      pop\n      jump\t// out\n        /* \"#utility.yul\":3353:3575   */\n    tag_29:\n        /* \"#utility.yul\":3446:3450   */\n      0x00\n        /* \"#utility.yul\":3484:3486   */\n      0x20\n        /* \"#utility.yul\":3473:3482   */\n      dup3\n        /* \"#utility.yul\":3469:3487   */\n      add\n        /* \"#utility.yul\":3461:3487   */\n      swap1\n      pop\n        /* \"#utility.yul\":3497:3568   */\n      tag_136\n        /* \"#utility.yul\":3565:3566   */\n      0x00\n        /* \"#utility.yul\":3554:3563   */\n      dup4\n        /* \"#utility.yul\":3550:3567   */\n      add\n        /* \"#utility.yul\":3541:3547   */\n      dup5\n        /* \"#utility.yul\":3497:3568   */\n      tag_87\n      jump\t// in\n    tag_136:\n        /* \"#utility.yul\":3353:3575   */\n      swap3\n      swap2\n      pop\n      pop\n      jump\t// out\n        /* \"#utility.yul\":3581:3761   */\n    tag_88:\n        /* \"#utility.yul\":3629:3706   */\n      0x4e487b7100000000000000000000000000000000000000000000000000000000\n        /* \"#utility.yul\":3626:3627   */\n      0x00\n        /* \"#utility.yul\":3619:3707   */\n      mstore\n        /* \"#utility.yul\":3726:3730   */\n      0x11\n        /* \"#utility.yul\":3723:3724   */\n      0x04\n        /* \"#utility.yul\":3716:3731   */\n      mstore\n        /* \"#utility.yul\":3750:3754   */\n      0x24\n        /* \"#utility.yul\":3747:3748   */\n      0x00\n        /* \"#utility.yul\":3740:3755   */\n      revert\n        /* \"#utility.yul\":3767:3961   */\n    tag_44:\n        /* \"#utility.yul\":3807:3811   */\n      0x00\n        /* \"#utility.yul\":3827:3847   */\n      tag_139\n        /* \"#utility.yul\":3845:3846   */\n      dup3\n        /* \"#utility.yul\":3827:3847   */\n      tag_82\n      jump\t// in\n    tag_139:\n        /* \"#utility.yul\":3822:3847   */\n      swap2\n      pop\n        /* \"#utility.yul\":3861:3881   */\n      tag_140\n        /* \"#utility.yul\":3879:3880   */\n      dup4\n        /* \"#utility.yul\":3861:3881   */\n      tag_82\n      jump\t// in\n    tag_140:\n        /* \"#utility.yul\":3856:3881   */\n      swap3\n      pop\n        /* \"#utility.yul\":3905:3906   */\n      dup3\n        /* \"#utility.yul\":3902:3903   */\n      dup3\n        /* \"#utility.yul\":3898:3907   */\n      sub\n        /* \"#utility.yul\":3890:3907   */\n      swap1\n      pop\n        /* \"#utility.yul\":3929:3930   */\n      dup2\n        /* \"#utility.yul\":3923:3927   */\n      dup2\n        /* \"#utility.yul\":3920:3931   */\n      gt\n        /* \"#utility.yul\":3917:3954   */\n      iszero\n      tag_141\n      jumpi\n        /* \"#utility.yul\":3934:3952   */\n      tag_142\n      tag_88\n      jump\t// in\n    tag_142:\n        /* \"#utility.yul\":3917:3954   */\n    tag_141:\n        /* \"#utility.yul\":3767:3961   */\n      swap3\n      swap2\n      pop\n      pop\n      jump\t// out\n        /* \"#utility.yul\":3967:4377   */\n    tag_48:\n        /* \"#utility.yul\":4007:4014   */\n      0x00\n        /* \"#utility.yul\":4030:4050   */\n      tag_144\n        /* \"#utility.yul\":4048:4049   */\n      dup3\n        /* \"#utility.yul\":4030:4050   */\n      tag_82\n      jump\t// in\n    tag_144:\n        /* \"#utility.yul\":4025:4050   */\n      swap2\n      pop\n        /* \"#utility.yul\":4064:4084   */\n      tag_145\n        /* \"#utility.yul\":4082:4083   */\n      dup4\n        /* \"#utility.yul\":4064:4084   */\n      tag_82\n      jump\t// in\n    tag_145:\n        /* \"#utility.yul\":4059:4084   */\n      swap3\n      pop\n        /* \"#utility.yul\":4119:4120   */\n      dup3\n        /* \"#utility.yul\":4116:4117   */\n      dup3\n        /* \"#utility.yul\":4112:4121   */\n      mul\n        /* \"#utility.yul\":4141:4171   */\n      tag_146\n        /* \"#utility.yul\":4159:4170   */\n      dup2\n        /* \"#utility.yul\":4141:4171   */\n      tag_82\n      jump\t// in\n    tag_146:\n        /* \"#utility.yul\":4130:4171   */\n      swap2\n      pop\n        /* \"#utility.yul\":4320:4321   */\n      dup3\n        /* \"#utility.yul\":4311:4318   */\n      dup3\n        /* \"#utility.yul\":4307:4322   */\n      div\n        /* \"#utility.yul\":4304:4305   */\n      dup5\n        /* \"#utility.yul\":4301:4323   */\n      eq\n        /* \"#utility.yul\":4281:4282   */\n      dup4\n        /* \"#utility.yul\":4274:4283   */\n      iszero\n        /* \"#utility.yul\":4254:4337   */\n      or\n        /* \"#utility.yul\":4231:4370   */\n      tag_147\n      jumpi\n        /* \"#utility.yul\":4350:4368   */\n      tag_148\n      tag_88\n      jump\t// in\n    tag_148:\n        /* \"#utility.yul\":4231:4370   */\n    tag_147:\n        /* \"#utility.yul\":4015:4377   */\n      pop\n        /* \"#utility.yul\":3967:4377   */\n      swap3\n      swap2\n      pop\n      pop\n      jump\t// out\n        /* \"#utility.yul\":4383:4563   */\n    tag_89:\n        /* \"#utility.yul\":4431:4508   */\n      0x4e487b7100000000000000000000000000000000000000000000000000000000\n        /* \"#utility.yul\":4428:4429   */\n      0x00\n        /* \"#utility.yul\":4421:4509   */\n      mstore\n        /* \"#utility.yul\":4528:4532   */\n      0x12\n        /* \"#utility.yul\":4525:4526   */\n      0x04\n        /* \"#utility.yul\":4518:4533   */\n      mstore\n        /* \"#utility.yul\":4552:4556   */\n      0x24\n        /* \"#utility.yul\":4549:4550   */\n      0x00\n        /* \"#utility.yul\":4542:4557   */\n      revert\n        /* \"#utility.yul\":4569:4754   */\n    tag_50:\n        /* \"#utility.yul\":4609:4610   */\n      0x00\n        /* \"#utility.yul\":4626:4646   */\n      tag_151\n        /* \"#utility.yul\":4644:4645   */\n      dup3\n        /* \"#utility.yul\":4626:4646   */\n      tag_82\n      jump\t// in\n    tag_151:\n        /* \"#utility.yul\":4621:4646   */\n      swap2\n      pop\n        /* \"#utility.yul\":4660:4680   */\n      tag_152\n        /* \"#utility.yul\":4678:4679   */\n      dup4\n        /* \"#utility.yul\":4660:4680   */\n      tag_82\n      jump\t// in\n    tag_152:\n        /* \"#utility.yul\":4655:4680   */\n      swap3\n      pop\n        /* \"#utility.yul\":4699:4700   */\n      dup3\n        /* \"#utility.yul\":4689:4724   */\n      tag_153\n      jumpi\n        /* \"#utility.yul\":4704:4722   */\n      tag_154\n      tag_89\n      jump\t// in\n    tag_154:\n        /* \"#utility.yul\":4689:4724   */\n    tag_153:\n        /* \"#utility.yul\":4746:4747   */\n      dup3\n        /* \"#utility.yul\":4743:4744   */\n      dup3\n        /* \"#utility.yul\":4739:4748   */\n      div\n        /* \"#utility.yul\":4734:4748   */\n      swap1\n      pop\n        /* \"#utility.yul\":4569:4754   */\n      swap3\n      swap2\n      pop\n      pop\n      jump\t// out\n        /* \"#utility.yul\":4760:4903   */\n    tag_90:\n        /* \"#utility.yul\":4817:4822   */\n      0x00\n        /* \"#utility.yul\":4848:4854   */\n      dup2\n        /* \"#utility.yul\":4842:4855   */\n      mload\n        /* \"#utility.yul\":4833:4855   */\n      swap1\n      pop\n        /* \"#utility.yul\":4864:4897   */\n      tag_156\n        /* \"#utility.yul\":4891:4896   */\n      dup2\n        /* \"#utility.yul\":4864:4897   */\n      tag_83\n      jump\t// in\n    tag_156:\n        /* \"#utility.yul\":4760:4903   */\n      swap3\n      swap2\n      pop\n      pop\n      jump\t// out\n        /* \"#utility.yul\":4909:5260   */\n    tag_55:\n        /* \"#utility.yul\":4979:4985   */\n      0x00\n        /* \"#utility.yul\":5028:5030   */\n      0x20\n        /* \"#utility.yul\":5016:5025   */\n      dup3\n        /* \"#utility.yul\":5007:5014   */\n      dup5\n        /* \"#utility.yul\":5003:5026   */\n      sub\n        /* \"#utility.yul\":4999:5031   */\n      slt\n        /* \"#utility.yul\":4996:5115   */\n      iszero\n      tag_158\n      jumpi\n        /* \"#utility.yul\":5034:5113   */\n      tag_159\n      tag_80\n      jump\t// in\n    tag_159:\n        /* \"#utility.yul\":4996:5115   */\n    tag_158:\n        /* \"#utility.yul\":5154:5155   */\n      0x00\n        /* \"#utility.yul\":5179:5243   */\n      tag_160\n        /* \"#utility.yul\":5235:5242   */\n      dup5\n        /* \"#utility.yul\":5226:5232   */\n      dup3\n        /* \"#utility.yul\":5215:5224   */\n      dup6\n        /* \"#utility.yul\":5211:5233   */\n      add\n        /* \"#utility.yul\":5179:5243   */\n      tag_90\n      jump\t// in\n    tag_160:\n        /* \"#utility.yul\":5169:5243   */\n      swap2\n      pop\n        /* \"#utility.yul\":5125:5253   */\n      pop\n        /* \"#utility.yul\":4909:5260   */\n      swap3\n      swap2\n      pop\n      pop\n      jump\t// out\n        /* \"#utility.yul\":5266:5362   */\n    tag_91:\n        /* \"#utility.yul\":5303:5310   */\n      0x00\n        /* \"#utility.yul\":5332:5356   */\n      tag_162\n        /* \"#utility.yul\":5350:5355   */\n      dup3\n        /* \"#utility.yul\":5332:5356   */\n      tag_71\n      jump\t// in\n    tag_162:\n        /* \"#utility.yul\":5321:5356   */\n      swap1\n      pop\n        /* \"#utility.yul\":5266:5362   */\n      swap2\n      swap1\n      pop\n      jump\t// out\n        /* \"#utility.yul\":5368:5486   */\n    tag_92:\n        /* \"#utility.yul\":5455:5479   */\n      tag_164\n        /* \"#utility.yul\":5473:5478   */\n      dup2\n        /* \"#utility.yul\":5455:5479   */\n      tag_91\n      jump\t// in\n    tag_164:\n        /* \"#utility.yul\":5450:5453   */\n      dup3\n        /* \"#utility.yul\":5443:5480   */\n      mstore\n        /* \"#utility.yul\":5368:5486   */\n      pop\n      pop\n      jump\t// out\n        /* \"#utility.yul\":5492:5714   */\n    tag_61:\n        /* \"#utility.yul\":5585:5589   */\n      0x00\n        /* \"#utility.yul\":5623:5625   */\n      0x20\n        /* \"#utility.yul\":5612:5621   */\n      dup3\n        /* \"#utility.yul\":5608:5626   */\n      add\n        /* \"#utility.yul\":5600:5626   */\n      swap1\n      pop\n        /* \"#utility.yul\":5636:5707   */\n      tag_166\n        /* \"#utility.yul\":5704:5705   */\n      0x00\n        /* \"#utility.yul\":5693:5702   */\n      dup4\n        /* \"#utility.yul\":5689:5706   */\n      add\n        /* \"#utility.yul\":5680:5686   */\n      dup5\n        /* \"#utility.yul\":5636:5707   */\n      tag_92\n      jump\t// in\n    tag_166:\n        /* \"#utility.yul\":5492:5714   */\n      swap3\n      swap2\n      pop\n      pop\n      jump\t// out\n\n    auxdata: 0xa2646970667358221220d33b44f32ed442029acd5a15aa937c1ed4a2b5937f7b3014fd66f8d8524abf4064736f6c63430008180033\n}\n",
				"bytecode": {
					"linkReferences": {},
					"object": "608060405261c350600355348015610015575f80fd5b5060405161094c38038061094c8339818101604052810190610037919061015c565b825f806101000a81548173ffffffffffffffffffffffffffffffffffffffff021916908373ffffffffffffffffffffffffffffffffffffffff1602179055508160015f6101000a81548173ffffffffffffffffffffffffffffffffffffffff021916908373ffffffffffffffffffffffffffffffffffffffff1602179055508060025f6101000a81548173ffffffffffffffffffffffffffffffffffffffff021916908373ffffffffffffffffffffffffffffffffffffffff1602179055505050506101ac565b5f80fd5b5f73ffffffffffffffffffffffffffffffffffffffff82169050919050565b5f61012b82610102565b9050919050565b61013b81610121565b8114610145575f80fd5b50565b5f8151905061015681610132565b92915050565b5f805f60608486031215610173576101726100fe565b5b5f61018086828701610148565b935050602061019186828701610148565b92505060406101a286828701610148565b9150509250925092565b610793806101b95f395ff3fe608060405234801561000f575f80fd5b5060043610610086575f3560e01c80633ed55f0c116100595780633ed55f0c1461011457806395082d251461011e578063a98ad46c1461013c578063bc27f6621461015a57610086565b806325a159211461008a5780632630c12f146100a857806339c23ed4146100c65780633dfe9f6a146100f6575b5f80fd5b610092610178565b60405161009f91906104c5565b60405180910390f35b6100b061019b565b6040516100bd91906104fe565b60405180910390f35b6100e060048036038101906100db919061054e565b6101c0565b6040516100ed91906105a6565b60405180910390f35b6100fe610216565b60405161010b91906105ce565b60405180910390f35b61011c61021c565b005b6101266102c7565b60405161013391906105ce565b60405180910390f35b6101446102ce565b60405161015191906104c5565b60405180910390f35b6101626102f3565b60405161016f91906105ce565b60405180910390f35b5f8054906101000a900473ffffffffffffffffffffffffffffffffffffffff1681565b60025f9054906101000a900473ffffffffffffffffffffffffffffffffffffffff1681565b5f808284116101da5783836101d59190610614565b6101e7565b82846101e69190610614565b5b90505f84620f4240836101fa9190610647565b61020491906106b5565b90506003548110159250505092915050565b60035481565b5f60025f9054906101000a900473ffffffffffffffffffffffffffffffffffffffff1673ffffffffffffffffffffffffffffffffffffffff16638e15f4736040518163ffffffff1660e01b8152600401602060405180830381865afa158015610287573d5f803e3d5ffd5b505050506040513d601f19601f820116820180604052508101906102ab91906106f9565b90505f6102b66102f3565b90506102c282826101c0565b505050565b620f424081565b60015f9054906101000a900473ffffffffffffffffffffffffffffffffffffffff1681565b5f805f8054906101000a900473ffffffffffffffffffffffffffffffffffffffff1673ffffffffffffffffffffffffffffffffffffffff166370a08231306040518263ffffffff1660e01b815260040161034d9190610744565b602060405180830381865afa158015610368573d5f803e3d5ffd5b505050506040513d601f19601f8201168201806040525081019061038c91906106f9565b90505f60015f9054906101000a900473ffffffffffffffffffffffffffffffffffffffff1673ffffffffffffffffffffffffffffffffffffffff166370a08231306040518263ffffffff1660e01b81526004016103e99190610744565b602060405180830381865afa158015610404573d5f803e3d5ffd5b505050506040513d601f19601f8201168201806040525081019061042891906106f9565b905081620f42408261043a9190610647565b61044491906106b5565b9250505090565b5f73ffffffffffffffffffffffffffffffffffffffff82169050919050565b5f819050919050565b5f61048d6104886104838461044b565b61046a565b61044b565b9050919050565b5f61049e82610473565b9050919050565b5f6104af82610494565b9050919050565b6104bf816104a5565b82525050565b5f6020820190506104d85f8301846104b6565b92915050565b5f6104e882610494565b9050919050565b6104f8816104de565b82525050565b5f6020820190506105115f8301846104ef565b92915050565b5f80fd5b5f819050919050565b61052d8161051b565b8114610537575f80fd5b50565b5f8135905061054881610524565b92915050565b5f806040838503121561056457610563610517565b5b5f6105718582860161053a565b92505060206105828582860161053a565b9150509250929050565b5f8115159050919050565b6105a08161058c565b82525050565b5f6020820190506105b95f830184610597565b92915050565b6105c88161051b565b82525050565b5f6020820190506105e15f8301846105bf565b92915050565b7f4e487b71000000000000000000000000000000000000000000000000000000005f52601160045260245ffd5b5f61061e8261051b565b91506106298361051b565b9250828203905081811115610641576106406105e7565b5b92915050565b5f6106518261051b565b915061065c8361051b565b925082820261066a8161051b565b91508282048414831517610681576106806105e7565b5b5092915050565b7f4e487b71000000000000000000000000000000000000000000000000000000005f52601260045260245ffd5b5f6106bf8261051b565b91506106ca8361051b565b9250826106da576106d9610688565b5b828204905092915050565b5f815190506106f381610524565b92915050565b5f6020828403121561070e5761070d610517565b5b5f61071b848285016106e5565b91505092915050565b5f61072e8261044b565b9050919050565b61073e81610724565b82525050565b5f6020820190506107575f830184610735565b9291505056fea2646970667358221220d33b44f32ed442029acd5a15aa937c1ed4a2b5937f7b3014fd66f8d8524abf4064736f6c63430008180033",
					"opcodes": "PUSH1 0x80 PUSH1 0x40 MSTORE PUSH2 0xC350 PUSH1 0x3 SSTORE CALLVALUE DUP1 ISZERO PUSH2 0x15 JUMPI PUSH0 DUP1 REVERT JUMPDEST POP PUSH1 0x40 MLOAD PUSH2 0x94C CODESIZE SUB DUP1 PUSH2 0x94C DUP4 CODECOPY DUP2 DUP2 ADD PUSH1 0x40 MSTORE DUP2 ADD SWAP1 PUSH2 0x37 SWAP2 SWAP1 PUSH2 0x15C JUMP JUMPDEST DUP3 PUSH0 DUP1 PUSH2 0x100 EXP DUP2 SLOAD DUP2 PUSH20 0xFFFFFFFFFFFFFFFFFFFFFFFFFFFFFFFFFFFFFFFF MUL NOT AND SWAP1 DUP4 PUSH20 0xFFFFFFFFFFFFFFFFFFFFFFFFFFFFFFFFFFFFFFFF AND MUL OR SWAP1 SSTORE POP DUP2 PUSH1 0x1 PUSH0 PUSH2 0x100 EXP DUP2 SLOAD DUP2 PUSH20 0xFFFFFFFFFFFFFFFFFFFFFFFFFFFFFFFFFFFFFFFF MUL NOT AND SWAP1 DUP4 PUSH20 0xFFFFFFFFFFFFFFFFFFFFFFFFFFFFFFFFFFFFFFFF AND MUL OR SWAP1 SSTORE POP DUP1 PUSH1 0x2 PUSH0 PUSH2 0x100 EXP DUP2 SLOAD DUP2 PUSH20 0xFFFFFFFFFFFFFFFFFFFFFFFFFFFFFFFFFFFFFFFF MUL NOT AND SWAP1 DUP4 PUSH20 0xFFFFFFFFFFFFFFFFFFFFFFFFFFFFFFFFFFFFFFFF AND MUL OR SWAP1 SSTORE POP POP POP POP PUSH2 0x1AC JUMP JUMPDEST PUSH0 DUP1 REVERT JUMPDEST PUSH0 PUSH20 0xFFFFFFFFFFFFFFFFFFFFFFFFFFFFFFFFFFFFFFFF DUP3 AND SWAP1 POP SWAP2 SWAP1 POP JUMP JUMPDEST PUSH0 PUSH2 0x12B DUP3 PUSH2 0x102 JUMP JUMPDEST SWAP1 POP SWAP2 SWAP1 POP JUMP JUMPDEST PUSH2 0x13B DUP2 PUSH2 0x121 JUMP JUMPDEST DUP2 EQ PUSH2 0x145 JUMPI PUSH0 DUP1 REVERT JUMPDEST POP JUMP JUMPDEST PUSH0 DUP2 MLOAD SWAP1 POP PUSH2 0x156 DUP2 PUSH2 0x132 JUMP JUMPDEST SWAP3 SWAP2 POP POP JUMP JUMPDEST PUSH0 DUP1 PUSH0 PUSH1 0x60 DUP5 DUP7 SUB SLT ISZERO PUSH2 0x173 JUMPI PUSH2 0x172 PUSH2 0xFE JUMP JUMPDEST JUMPDEST PUSH0 PUSH2 0x180 DUP7 DUP3 DUP8 ADD PUSH2 0x148 JUMP JUMPDEST SWAP4 POP POP PUSH1 0x20 PUSH2 0x191 DUP7 DUP3 DUP8 ADD PUSH2 0x148 JUMP JUMPDEST SWAP3 POP POP PUSH1 0x40 PUSH2 0x1A2 DUP7 DUP3 DUP8 ADD PUSH2 0x148 JUMP JUMPDEST SWAP2 POP POP SWAP3 POP SWAP3 POP SWAP3 JUMP JUMPDEST PUSH2 0x793 DUP1 PUSH2 0x1B9 PUSH0 CODECOPY PUSH0 RETURN INVALID PUSH1 0x80 PUSH1 0x40 MSTORE CALLVALUE DUP1 ISZERO PUSH2 0xF JUMPI PUSH0 DUP1 REVERT JUMPDEST POP PUSH1 0x4 CALLDATASIZE LT PUSH2 0x86 JUMPI PUSH0 CALLDATALOAD PUSH1 0xE0 SHR DUP1 PUSH4 0x3ED55F0C GT PUSH2 0x59 JUMPI DUP1 PUSH4 0x3ED55F0C EQ PUSH2 0x114 JUMPI DUP1 PUSH4 0x95082D25 EQ PUSH2 0x11E JUMPI DUP1 PUSH4 0xA98AD46C EQ PUSH2 0x13C JUMPI DUP1 PUSH4 0xBC27F662 EQ PUSH2 0x15A JUMPI PUSH2 0x86 JUMP JUMPDEST DUP1 PUSH4 0x25A15921 EQ PUSH2 0x8A JUMPI DUP1 PUSH4 0x2630C12F EQ PUSH2 0xA8 JUMPI DUP1 PUSH4 0x39C23ED4 EQ PUSH2 0xC6 JUMPI DUP1 PUSH4 0x3DFE9F6A EQ PUSH2 0xF6 JUMPI JUMPDEST PUSH0 DUP1 REVERT JUMPDEST PUSH2 0x92 PUSH2 0x178 JUMP JUMPDEST PUSH1 0x40 MLOAD PUSH2 0x9F SWAP2 SWAP1 PUSH2 0x4C5 JUMP JUMPDEST PUSH1 0x40 MLOAD DUP1 SWAP2 SUB SWAP1 RETURN JUMPDEST PUSH2 0xB0 PUSH2 0x19B JUMP JUMPDEST PUSH1 0x40 MLOAD PUSH2 0xBD SWAP2 SWAP1 PUSH2 0x4FE JUMP JUMPDEST PUSH1 0x40 MLOAD DUP1 SWAP2 SUB SWAP1 RETURN JUMPDEST PUSH2 0xE0 PUSH1 0x4 DUP1 CALLDATASIZE SUB DUP2 ADD SWAP1 PUSH2 0xDB SWAP2 SWAP1 PUSH2 0x54E JUMP JUMPDEST PUSH2 0x1C0 JUMP JUMPDEST PUSH1 0x40 MLOAD PUSH2 0xED SWAP2 SWAP1 PUSH2 0x5A6 JUMP JUMPDEST PUSH1 0x40 MLOAD DUP1 SWAP2 SUB SWAP1 RETURN JUMPDEST PUSH2 0xFE PUSH2 0x216 JUMP JUMPDEST PUSH1 0x40 MLOAD PUSH2 0x10B SWAP2 SWAP1 PUSH2 0x5CE JUMP JUMPDEST PUSH1 0x40 MLOAD DUP1 SWAP2 SUB SWAP1 RETURN JUMPDEST PUSH2 0x11C PUSH2 0x21C JUMP JUMPDEST STOP JUMPDEST PUSH2 0x126 PUSH2 0x2C7 JUMP JUMPDEST PUSH1 0x40 MLOAD PUSH2 0x133 SWAP2 SWAP1 PUSH2 0x5CE JUMP JUMPDEST PUSH1 0x40 MLOAD DUP1 SWAP2 SUB SWAP1 RETURN JUMPDEST PUSH2 0x144 PUSH2 0x2CE JUMP JUMPDEST PUSH1 0x40 MLOAD PUSH2 0x151 SWAP2 SWAP1 PUSH2 0x4C5 JUMP JUMPDEST PUSH1 0x40 MLOAD DUP1 SWAP2 SUB SWAP1 RETURN JUMPDEST PUSH2 0x162 PUSH2 0x2F3 JUMP JUMPDEST PUSH1 0x40 MLOAD PUSH2 0x16F SWAP2 SWAP1 PUSH2 0x5CE JUMP JUMPDEST PUSH1 0x40 MLOAD DUP1 SWAP2 SUB SWAP1 RETURN JUMPDEST PUSH0 DUP1 SLOAD SWAP1 PUSH2 0x100 EXP SWAP1 DIV PUSH20 0xFFFFFFFFFFFFFFFFFFFFFFFFFFFFFFFFFFFFFFFF AND DUP2 JUMP JUMPDEST PUSH1 0x2 PUSH0 SWAP1 SLOAD SWAP1 PUSH2 0x100 EXP SWAP1 DIV PUSH20 0xFFFFFFFFFFFFFFFFFFFFFFFFFFFFFFFFFFFFFFFF AND DUP2 JUMP JUMPDEST PUSH0 DUP1 DUP3 DUP5 GT PUSH2 0x1DA JUMPI DUP4 DUP4 PUSH2 0x1D5 SWAP2 SWAP1 PUSH2 0x614 JUMP JUMPDEST PUSH2 0x1E7 JUMP JUMPDEST DUP3 DUP5 PUSH2 0x1E6 SWAP2 SWAP1 PUSH2 0x614 JUMP JUMPDEST JUMPDEST SWAP1 POP PUSH0 DUP5 PUSH3 0xF4240 DUP4 PUSH2 0x1FA SWAP2 SWAP1 PUSH2 0x647 JUMP JUMPDEST PUSH2 0x204 SWAP2 SWAP1 PUSH2 0x6B5 JUMP JUMPDEST SWAP1 POP PUSH1 0x3 SLOAD DUP2 LT ISZERO SWAP3 POP POP POP SWAP3 SWAP2 POP POP JUMP JUMPDEST PUSH1 0x3 SLOAD DUP2 JUMP JUMPDEST PUSH0 PUSH1 0x2 PUSH0 SWAP1 SLOAD SWAP1 PUSH2 0x100 EXP SWAP1 DIV PUSH20 0xFFFFFFFFFFFFFFFFFFFFFFFFFFFFFFFFFFFFFFFF AND PUSH20 0xFFFFFFFFFFFFFFFFFFFFFFFFFFFFFFFFFFFFFFFF AND PUSH4 0x8E15F473 PUSH1 0x40 MLOAD DUP2 PUSH4 0xFFFFFFFF AND PUSH1 0xE0 SHL DUP2 MSTORE PUSH1 0x4 ADD PUSH1 0x20 PUSH1 0x40 MLOAD DUP1 DUP4 SUB DUP2 DUP7 GAS STATICCALL ISZERO DUP1 ISZERO PUSH2 0x287 JUMPI RETURNDATASIZE PUSH0 DUP1 RETURNDATACOPY RETURNDATASIZE PUSH0 REVERT JUMPDEST POP POP POP POP PUSH1 0x40 MLOAD RETURNDATASIZE PUSH1 0x1F NOT PUSH1 0x1F DUP3 ADD AND DUP3 ADD DUP1 PUSH1 0x40 MSTORE POP DUP2 ADD SWAP1 PUSH2 0x2AB SWAP2 SWAP1 PUSH2 0x6F9 JUMP JUMPDEST SWAP1 POP PUSH0 PUSH2 0x2B6 PUSH2 0x2F3 JUMP JUMPDEST SWAP1 POP PUSH2 0x2C2 DUP3 DUP3 PUSH2 0x1C0 JUMP JUMPDEST POP POP POP JUMP JUMPDEST PUSH3 0xF4240 DUP2 JUMP JUMPDEST PUSH1 0x1 PUSH0 SWAP1 SLOAD SWAP1 PUSH2 0x100 EXP SWAP1 DIV PUSH20 0xFFFFFFFFFFFFFFFFFFFFFFFFFFFFFFFFFFFFFFFF AND DUP2 JUMP JUMPDEST PUSH0 DUP1 PUSH0 DUP1 SLOAD SWAP1 PUSH2 0x100 EXP SWAP1 DIV PUSH20 0xFFFFFFFFFFFFFFFFFFFFFFFFFFFFFFFFFFFFFFFF AND PUSH20 0xFFFFFFFFFFFFFFFFFFFFFFFFFFFFFFFFFFFFFFFF AND PUSH4 0x70A08231 ADDRESS PUSH1 0x40 MLOAD DUP3 PUSH4 0xFFFFFFFF AND PUSH1 0xE0 SHL DUP2 MSTORE PUSH1 0x4 ADD PUSH2 0x34D SWAP2 SWAP1 PUSH2 0x744 JUMP JUMPDEST PUSH1 0x20 PUSH1 0x40 MLOAD DUP1 DUP4 SUB DUP2 DUP7 GAS STATICCALL ISZERO DUP1 ISZERO PUSH2 0x368 JUMPI RETURNDATASIZE PUSH0 DUP1 RETURNDATACOPY RETURNDATASIZE PUSH0 REVERT JUMPDEST POP POP POP POP PUSH1 0x40 MLOAD RETURNDATASIZE PUSH1 0x1F NOT PUSH1 0x1F DUP3 ADD AND DUP3 ADD DUP1 PUSH1 0x40 MSTORE POP DUP2 ADD SWAP1 PUSH2 0x38C SWAP2 SWAP1 PUSH2 0x6F9 JUMP JUMPDEST SWAP1 POP PUSH0 PUSH1 0x1 PUSH0 SWAP1 SLOAD SWAP1 PUSH2 0x100 EXP SWAP1 DIV PUSH20 0xFFFFFFFFFFFFFFFFFFFFFFFFFFFFFFFFFFFFFFFF AND PUSH20 0xFFFFFFFFFFFFFFFFFFFFFFFFFFFFFFFFFFFFFFFF AND PUSH4 0x70A08231 ADDRESS PUSH1 0x40 MLOAD DUP3 PUSH4 0xFFFFFFFF AND PUSH1 0xE0 SHL DUP2 MSTORE PUSH1 0x4 ADD PUSH2 0x3E9 SWAP2 SWAP1 PUSH2 0x744 JUMP JUMPDEST PUSH1 0x20 PUSH1 0x40 MLOAD DUP1 DUP4 SUB DUP2 DUP7 GAS STATICCALL ISZERO DUP1 ISZERO PUSH2 0x404 JUMPI RETURNDATASIZE PUSH0 DUP1 RETURNDATACOPY RETURNDATASIZE PUSH0 REVERT JUMPDEST POP POP POP POP PUSH1 0x40 MLOAD RETURNDATASIZE PUSH1 0x1F NOT PUSH1 0x1F DUP3 ADD AND DUP3 ADD DUP1 PUSH1 0x40 MSTORE POP DUP2 ADD SWAP1 PUSH2 0x428 SWAP2 SWAP1 PUSH2 0x6F9 JUMP JUMPDEST SWAP1 POP DUP2 PUSH3 0xF4240 DUP3 PUSH2 0x43A SWAP2 SWAP1 PUSH2 0x647 JUMP JUMPDEST PUSH2 0x444 SWAP2 SWAP1 PUSH2 0x6B5 JUMP JUMPDEST SWAP3 POP POP POP SWAP1 JUMP JUMPDEST PUSH0 PUSH20 0xFFFFFFFFFFFFFFFFFFFFFFFFFFFFFFFFFFFFFFFF DUP3 AND SWAP1 POP SWAP2 SWAP1 POP JUMP JUMPDEST PUSH0 DUP2 SWAP1 POP SWAP2 SWAP1 POP JUMP JUMPDEST PUSH0 PUSH2 0x48D PUSH2 0x488 PUSH2 0x483 DUP5 PUSH2 0x44B JUMP JUMPDEST PUSH2 0x46A JUMP JUMPDEST PUSH2 0x44B JUMP JUMPDEST SWAP1 POP SWAP2 SWAP1 POP JUMP JUMPDEST PUSH0 PUSH2 0x49E DUP3 PUSH2 0x473 JUMP JUMPDEST SWAP1 POP SWAP2 SWAP1 POP JUMP JUMPDEST PUSH0 PUSH2 0x4AF DUP3 PUSH2 0x494 JUMP JUMPDEST SWAP1 POP SWAP2 SWAP1 POP JUMP JUMPDEST PUSH2 0x4BF DUP2 PUSH2 0x4A5 JUMP JUMPDEST DUP3 MSTORE POP POP JUMP JUMPDEST PUSH0 PUSH1 0x20 DUP3 ADD SWAP1 POP PUSH2 0x4D8 PUSH0 DUP4 ADD DUP5 PUSH2 0x4B6 JUMP JUMPDEST SWAP3 SWAP2 POP POP JUMP JUMPDEST PUSH0 PUSH2 0x4E8 DUP3 PUSH2 0x494 JUMP JUMPDEST SWAP1 POP SWAP2 SWAP1 POP JUMP JUMPDEST PUSH2 0x4F8 DUP2 PUSH2 0x4DE JUMP JUMPDEST DUP3 MSTORE POP POP JUMP JUMPDEST PUSH0 PUSH1 0x20 DUP3 ADD SWAP1 POP PUSH2 0x511 PUSH0 DUP4 ADD DUP5 PUSH2 0x4EF JUMP JUMPDEST SWAP3 SWAP2 POP POP JUMP JUMPDEST PUSH0 DUP1 REVERT JUMPDEST PUSH0 DUP2 SWAP1 POP SWAP2 SWAP1 POP JUMP JUMPDEST PUSH2 0x52D DUP2 PUSH2 0x51B JUMP JUMPDEST DUP2 EQ PUSH2 0x537 JUMPI PUSH0 DUP1 REVERT JUMPDEST POP JUMP JUMPDEST PUSH0 DUP2 CALLDATALOAD SWAP1 POP PUSH2 0x548 DUP2 PUSH2 0x524 JUMP JUMPDEST SWAP3 SWAP2 POP POP JUMP JUMPDEST PUSH0 DUP1 PUSH1 0x40 DUP4 DUP6 SUB SLT ISZERO PUSH2 0x564 JUMPI PUSH2 0x563 PUSH2 0x517 JUMP JUMPDEST JUMPDEST PUSH0 PUSH2 0x571 DUP6 DUP3 DUP7 ADD PUSH2 0x53A JUMP JUMPDEST SWAP3 POP POP PUSH1 0x20 PUSH2 0x582 DUP6 DUP3 DUP7 ADD PUSH2 0x53A JUMP JUMPDEST SWAP2 POP POP SWAP3 POP SWAP3 SWAP1 POP JUMP JUMPDEST PUSH0 DUP2 ISZERO ISZERO SWAP1 POP SWAP2 SWAP1 POP JUMP JUMPDEST PUSH2 0x5A0 DUP2 PUSH2 0x58C JUMP JUMPDEST DUP3 MSTORE POP POP JUMP JUMPDEST PUSH0 PUSH1 0x20 DUP3 ADD SWAP1 POP PUSH2 0x5B9 PUSH0 DUP4 ADD DUP5 PUSH2 0x597 JUMP JUMPDEST SWAP3 SWAP2 POP POP JUMP JUMPDEST PUSH2 0x5C8 DUP2 PUSH2 0x51B JUMP JUMPDEST DUP3 MSTORE POP POP JUMP JUMPDEST PUSH0 PUSH1 0x20 DUP3 ADD SWAP1 POP PUSH2 0x5E1 PUSH0 DUP4 ADD DUP5 PUSH2 0x5BF JUMP JUMPDEST SWAP3 SWAP2 POP POP JUMP JUMPDEST PUSH32 0x4E487B7100000000000000000000000000000000000000000000000000000000 PUSH0 MSTORE PUSH1 0x11 PUSH1 0x4 MSTORE PUSH1 0x24 PUSH0 REVERT JUMPDEST PUSH0 PUSH2 0x61E DUP3 PUSH2 0x51B JUMP JUMPDEST SWAP2 POP PUSH2 0x629 DUP4 PUSH2 0x51B JUMP JUMPDEST SWAP3 POP DUP3 DUP3 SUB SWAP1 POP DUP2 DUP2 GT ISZERO PUSH2 0x641 JUMPI PUSH2 0x640 PUSH2 0x5E7 JUMP JUMPDEST JUMPDEST SWAP3 SWAP2 POP POP JUMP JUMPDEST PUSH0 PUSH2 0x651 DUP3 PUSH2 0x51B JUMP JUMPDEST SWAP2 POP PUSH2 0x65C DUP4 PUSH2 0x51B JUMP JUMPDEST SWAP3 POP DUP3 DUP3 MUL PUSH2 0x66A DUP2 PUSH2 0x51B JUMP JUMPDEST SWAP2 POP DUP3 DUP3 DIV DUP5 EQ DUP4 ISZERO OR PUSH2 0x681 JUMPI PUSH2 0x680 PUSH2 0x5E7 JUMP JUMPDEST JUMPDEST POP SWAP3 SWAP2 POP POP JUMP JUMPDEST PUSH32 0x4E487B7100000000000000000000000000000000000000000000000000000000 PUSH0 MSTORE PUSH1 0x12 PUSH1 0x4 MSTORE PUSH1 0x24 PUSH0 REVERT JUMPDEST PUSH0 PUSH2 0x6BF DUP3 PUSH2 0x51B JUMP JUMPDEST SWAP2 POP PUSH2 0x6CA DUP4 PUSH2 0x51B JUMP JUMPDEST SWAP3 POP DUP3 PUSH2 0x6DA JUMPI PUSH2 0x6D9 PUSH2 0x688 JUMP JUMPDEST JUMPDEST DUP3 DUP3 DIV SWAP1 POP SWAP3 SWAP2 POP POP JUMP JUMPDEST PUSH0 DUP2 MLOAD SWAP1 POP PUSH2 0x6F3 DUP2 PUSH2 0x524 JUMP JUMPDEST SWAP3 SWAP2 POP POP JUMP JUMPDEST PUSH0 PUSH1 0x20 DUP3 DUP5 SUB SLT ISZERO PUSH2 0x70E JUMPI PUSH2 0x70D PUSH2 0x517 JUMP JUMPDEST JUMPDEST PUSH0 PUSH2 0x71B DUP5 DUP3 DUP6 ADD PUSH2 0x6E5 JUMP JUMPDEST SWAP2 POP POP SWAP3 SWAP2 POP POP JUMP JUMPDEST PUSH0 PUSH2 0x72E DUP3 PUSH2 0x44B JUMP JUMPDEST SWAP1 POP SWAP2 SWAP1 POP JUMP JUMPDEST PUSH2 0x73E DUP2 PUSH2 0x724 JUMP JUMPDEST DUP3 MSTORE POP POP JUMP JUMPDEST PUSH0 PUSH1 0x20 DUP3 ADD SWAP1 POP PUSH2 0x757 PUSH0 DUP4 ADD DUP5 PUSH2 0x735 JUMP JUMPDEST SWAP3 SWAP2 POP POP JUMP INVALID LOG2 PUSH5 0x6970667358 0x22 SLT KECCAK256 0xD3 EXTCODESIZE PREVRANDAO RETURN 0x2E 0xD4 TIMESTAMP MUL SWAP11 0xCD GAS ISZERO 0xAA SWAP4 PUSH29 0x1ED4A2B5937F7B3014FD66F8D8524ABF4064736F6C6343000818003300 "
				},
				"gasEstimates": {
					"creation": {
						"codeDepositCost": "387800",
						"executionCost": "infinite",
						"totalCost": "infinite"
					},
					"external": {
						"PRICE_PRECISION()": "347",
						"checkAndRebalance()": "infinite",
						"getRWAPoolPrice()": "infinite",
						"isRebalanceNeeded(uint256,uint256)": "infinite",
						"priceOracle()": "infinite",
						"rebalanceThreshold()": "2492",
						"rwaPoolToken()": "infinite",
						"usdtToken()": "infinite"
					}
				},
				"methodIdentifiers": {
					"PRICE_PRECISION()": "95082d25",
					"checkAndRebalance()": "3ed55f0c",
					"getRWAPoolPrice()": "bc27f662",
					"isRebalanceNeeded(uint256,uint256)": "39c23ed4",
					"priceOracle()": "2630c12f",
					"rebalanceThreshold()": "3dfe9f6a",
					"rwaPoolToken()": "25a15921",
					"usdtToken()": "a98ad46c"
				}
			},
			"storageLayout": {
				"storage": [
					{
						"astId": 61,
						"contract": "aquo/amm.sol:POOLDEX",
						"label": "rwaPoolToken",
						"offset": 0,
						"slot": "0",
						"type": "t_contract(IERC20)52"
					},
					{
						"astId": 64,
						"contract": "aquo/amm.sol:POOLDEX",
						"label": "usdtToken",
						"offset": 0,
						"slot": "1",
						"type": "t_contract(IERC20)52"
					},
					{
						"astId": 67,
						"contract": "aquo/amm.sol:POOLDEX",
						"label": "priceOracle",
						"offset": 0,
						"slot": "2",
						"type": "t_contract(IPriceOracle)58"
					},
					{
						"astId": 75,
						"contract": "aquo/amm.sol:POOLDEX",
						"label": "rebalanceThreshold",
						"offset": 0,
						"slot": "3",
						"type": "t_uint256"
					}
				],
				"types": {
					"t_contract(IERC20)52": {
						"encoding": "inplace",
						"label": "contract IERC20",
						"numberOfBytes": "20"
					},
					"t_contract(IPriceOracle)58": {
						"encoding": "inplace",
						"label": "contract IPriceOracle",
						"numberOfBytes": "20"
					},
					"t_uint256": {
						"encoding": "inplace",
						"label": "uint256",
						"numberOfBytes": "32"
					}
				}
			},
			"userdoc": {
				"kind": "user",
				"methods": {},
				"version": 1
			}
		}
	}
}