{
	"aquo/aquooracle.sol": {
		"AquoOracle": {
			"abi": [
				{
					"inputs": [],
					"stateMutability": "nonpayable",
					"type": "constructor"
				},
				{
					"anonymous": false,
					"inputs": [
						{
							"indexed": true,
							"internalType": "bytes32",
							"name": "id",
							"type": "bytes32"
						}
					],
					"name": "ChainlinkCancelled",
					"type": "event"
				},
				{
					"anonymous": false,
					"inputs": [
						{
							"indexed": true,
							"internalType": "bytes32",
							"name": "id",
							"type": "bytes32"
						}
					],
					"name": "ChainlinkFulfilled",
					"type": "event"
				},
				{
					"anonymous": false,
					"inputs": [
						{
							"indexed": true,
							"internalType": "bytes32",
							"name": "id",
							"type": "bytes32"
						}
					],
					"name": "ChainlinkRequested",
					"type": "event"
				},
				{
					"anonymous": false,
					"inputs": [
						{
							"indexed": true,
							"internalType": "address",
							"name": "from",
							"type": "address"
						},
						{
							"indexed": true,
							"internalType": "address",
							"name": "to",
							"type": "address"
						}
					],
					"name": "OwnershipTransferRequested",
					"type": "event"
				},
				{
					"anonymous": false,
					"inputs": [
						{
							"indexed": true,
							"internalType": "address",
							"name": "from",
							"type": "address"
						},
						{
							"indexed": true,
							"internalType": "address",
							"name": "to",
							"type": "address"
						}
					],
					"name": "OwnershipTransferred",
					"type": "event"
				},
				{
					"anonymous": false,
					"inputs": [
						{
							"indexed": true,
							"internalType": "bytes32",
							"name": "requestId",
							"type": "bytes32"
						}
					],
					"name": "RequestFulfilled",
					"type": "event"
				},
				{
					"inputs": [],
					"name": "acceptOwnership",
					"outputs": [],
					"stateMutability": "nonpayable",
					"type": "function"
				},
				{
					"inputs": [
						{
							"internalType": "bytes32",
							"name": "requestId",
							"type": "bytes32"
						},
						{
							"internalType": "uint256",
							"name": "data",
							"type": "uint256"
						}
					],
					"name": "fulfill",
					"outputs": [],
					"stateMutability": "nonpayable",
					"type": "function"
				},
				{
					"inputs": [],
					"name": "getFeeInHundredthsOfLink",
					"outputs": [
						{
							"internalType": "uint256",
							"name": "",
							"type": "uint256"
						}
					],
					"stateMutability": "view",
					"type": "function"
				},
				{
					"inputs": [],
					"name": "getJobId",
					"outputs": [
						{
							"internalType": "string",
							"name": "",
							"type": "string"
						}
					],
					"stateMutability": "view",
					"type": "function"
				},
				{
					"inputs": [],
					"name": "getOracleAddress",
					"outputs": [
						{
							"internalType": "address",
							"name": "",
							"type": "address"
						}
					],
					"stateMutability": "view",
					"type": "function"
				},
				{
					"inputs": [],
					"name": "owner",
					"outputs": [
						{
							"internalType": "address",
							"name": "",
							"type": "address"
						}
					],
					"stateMutability": "view",
					"type": "function"
				},
				{
					"inputs": [
						{
							"internalType": "string",
							"name": "identifier",
							"type": "string"
						}
					],
					"name": "request",
					"outputs": [],
					"stateMutability": "nonpayable",
					"type": "function"
				},
				{
					"inputs": [],
					"name": "response",
					"outputs": [
						{
							"internalType": "uint256",
							"name": "",
							"type": "uint256"
						}
					],
					"stateMutability": "view",
					"type": "function"
				},
				{
					"inputs": [
						{
							"internalType": "uint256",
							"name": "_feeInHundredthsOfLink",
							"type": "uint256"
						}
					],
					"name": "setFeeInHundredthsOfLink",
					"outputs": [],
					"stateMutability": "nonpayable",
					"type": "function"
				},
				{
					"inputs": [
						{
							"internalType": "uint256",
							"name": "_feeInJuels",
							"type": "uint256"
						}
					],
					"name": "setFeeInJuels",
					"outputs": [],
					"stateMutability": "nonpayable",
					"type": "function"
				},
				{
					"inputs": [
						{
							"internalType": "string",
							"name": "_jobId",
							"type": "string"
						}
					],
					"name": "setJobId",
					"outputs": [],
					"stateMutability": "nonpayable",
					"type": "function"
				},
				{
					"inputs": [
						{
							"internalType": "address",
							"name": "_oracleAddress",
							"type": "address"
						}
					],
					"name": "setOracleAddress",
					"outputs": [],
					"stateMutability": "nonpayable",
					"type": "function"
				},
				{
					"inputs": [
						{
							"internalType": "address",
							"name": "to",
							"type": "address"
						}
					],
					"name": "transferOwnership",
					"outputs": [],
					"stateMutability": "nonpayable",
					"type": "function"
				},
				{
					"inputs": [],
					"name": "withdrawLink",
					"outputs": [],
					"stateMutability": "nonpayable",
					"type": "function"
				}
			],
			"devdoc": {
				"kind": "dev",
				"methods": {},
				"version": 1
			},
			"evm": {
				"assembly": "    /* \"aquo/aquooracle.sol\":474:4377  contract AquoOracle is ChainlinkClient, ConfirmedOwner {... */\n  mstore(0x40, 0x80)\n    /* \"@chainlink/contracts/src/v0.8/ChainlinkClient.sol\":1300:1301  1 */\n  0x01\n    /* \"@chainlink/contracts/src/v0.8/ChainlinkClient.sol\":1267:1301  uint256 private s_requestCount = 1 */\n  0x04\n  sstore\n    /* \"aquo/aquooracle.sol\":675:974  constructor() ConfirmedOwner(msg.sender) {... */\n  callvalue\n  dup1\n  iszero\n  tag_1\n  jumpi\n  0x00\n  dup1\n  revert\ntag_1:\n  pop\n    /* \"aquo/aquooracle.sol\":704:714  msg.sender */\n  caller\n    /* \"@chainlink/contracts/src/v0.8/ConfirmedOwner.sol\":327:335  newOwner */\n  dup1\n    /* \"@chainlink/contracts/src/v0.8/ConfirmedOwner.sol\":345:346  0 */\n  0x00\n    /* \"@chainlink/contracts/src/v0.8/ConfirmedOwnerWithProposal.sol\":572:573  0 */\n  dup1\n    /* \"@chainlink/contracts/src/v0.8/ConfirmedOwnerWithProposal.sol\":552:574  newOwner != address(0) */\n  0xffffffffffffffffffffffffffffffffffffffff\n  and\n    /* \"@chainlink/contracts/src/v0.8/ConfirmedOwnerWithProposal.sol\":552:560  newOwner */\n  dup3\n    /* \"@chainlink/contracts/src/v0.8/ConfirmedOwnerWithProposal.sol\":552:574  newOwner != address(0) */\n  0xffffffffffffffffffffffffffffffffffffffff\n  and\n  sub\n    /* \"@chainlink/contracts/src/v0.8/ConfirmedOwnerWithProposal.sol\":544:603  require(newOwner != address(0), \"Cannot set owner to zero\") */\n  tag_6\n  jumpi\n  mload(0x40)\n  0x08c379a000000000000000000000000000000000000000000000000000000000\n  dup2\n  mstore\n  0x04\n  add\n  tag_7\n  swap1\n  tag_8\n  jump\t// in\ntag_7:\n  mload(0x40)\n  dup1\n  swap2\n  sub\n  swap1\n  revert\ntag_6:\n    /* \"@chainlink/contracts/src/v0.8/ConfirmedOwnerWithProposal.sol\":620:628  newOwner */\n  dup2\n    /* \"@chainlink/contracts/src/v0.8/ConfirmedOwnerWithProposal.sol\":610:617  s_owner */\n  0x06\n  0x00\n    /* \"@chainlink/contracts/src/v0.8/ConfirmedOwnerWithProposal.sol\":610:628  s_owner = newOwner */\n  0x0100\n  exp\n  dup2\n  sload\n  dup2\n  0xffffffffffffffffffffffffffffffffffffffff\n  mul\n  not\n  and\n  swap1\n  dup4\n  0xffffffffffffffffffffffffffffffffffffffff\n  and\n  mul\n  or\n  swap1\n  sstore\n  pop\n    /* \"@chainlink/contracts/src/v0.8/ConfirmedOwnerWithProposal.sol\":662:663  0 */\n  0x00\n    /* \"@chainlink/contracts/src/v0.8/ConfirmedOwnerWithProposal.sol\":638:664  pendingOwner != address(0) */\n  0xffffffffffffffffffffffffffffffffffffffff\n  and\n    /* \"@chainlink/contracts/src/v0.8/ConfirmedOwnerWithProposal.sol\":638:650  pendingOwner */\n  dup2\n    /* \"@chainlink/contracts/src/v0.8/ConfirmedOwnerWithProposal.sol\":638:664  pendingOwner != address(0) */\n  0xffffffffffffffffffffffffffffffffffffffff\n  and\n  eq\n    /* \"@chainlink/contracts/src/v0.8/ConfirmedOwnerWithProposal.sol\":634:713  if (pendingOwner != address(0)) {... */\n  tag_9\n  jumpi\n    /* \"@chainlink/contracts/src/v0.8/ConfirmedOwnerWithProposal.sol\":674:706  _transferOwnership(pendingOwner) */\n  tag_10\n    /* \"@chainlink/contracts/src/v0.8/ConfirmedOwnerWithProposal.sol\":693:705  pendingOwner */\n  dup2\n    /* \"@chainlink/contracts/src/v0.8/ConfirmedOwnerWithProposal.sol\":674:692  _transferOwnership */\n  shl(0x20, tag_11)\n    /* \"@chainlink/contracts/src/v0.8/ConfirmedOwnerWithProposal.sol\":674:706  _transferOwnership(pendingOwner) */\n  0x20\n  shr\n  jump\t// in\ntag_10:\n    /* \"@chainlink/contracts/src/v0.8/ConfirmedOwnerWithProposal.sol\":634:713  if (pendingOwner != address(0)) {... */\ntag_9:\n    /* \"@chainlink/contracts/src/v0.8/ConfirmedOwnerWithProposal.sol\":486:717  constructor(address newOwner, address pendingOwner) {... */\n  pop\n  pop\n    /* \"@chainlink/contracts/src/v0.8/ConfirmedOwner.sol\":270:351  constructor(address newOwner) ConfirmedOwnerWithProposal(newOwner, address(0)) {} */\n  pop\n    /* \"aquo/aquooracle.sol\":727:788  setChainlinkToken(0x326C977E6efc84E512bB9C30f76E30c160eD06FB) */\n  tag_14\n    /* \"aquo/aquooracle.sol\":745:787  0x326C977E6efc84E512bB9C30f76E30c160eD06FB */\n  0x326c977e6efc84e512bb9c30f76e30c160ed06fb\n    /* \"aquo/aquooracle.sol\":727:744  setChainlinkToken */\n  shl(0x20, tag_15)\n    /* \"aquo/aquooracle.sol\":727:788  setChainlinkToken(0x326C977E6efc84E512bB9C30f76E30c160eD06FB) */\n  0x20\n  shr\n  jump\t// in\ntag_14:\n    /* \"aquo/aquooracle.sol\":799:859  setOracleAddress(0x12A3d7759F745f4cb8EE8a647038c040cB8862A5) */\n  tag_16\n    /* \"aquo/aquooracle.sol\":816:858  0x12A3d7759F745f4cb8EE8a647038c040cB8862A5 */\n  0x12a3d7759f745f4cb8ee8a647038c040cb8862a5\n    /* \"aquo/aquooracle.sol\":799:815  setOracleAddress */\n  shl(0x20, tag_17)\n    /* \"aquo/aquooracle.sol\":799:859  setOracleAddress(0x12A3d7759F745f4cb8EE8a647038c040cB8862A5) */\n  0x20\n  shr\n  jump\t// in\ntag_16:\n    /* \"aquo/aquooracle.sol\":870:914  setJobId(\"a8356f48569c434eaa4ac5fcb4db5cc0\") */\n  tag_18\n  mload(0x40)\n  dup1\n  0x40\n  add\n  0x40\n  mstore\n  dup1\n  0x20\n  dup2\n  mstore\n  0x20\n  add\n  0x6138333536663438353639633433346561613461633566636234646235636330\n  dup2\n  mstore\n  pop\n    /* \"aquo/aquooracle.sol\":870:878  setJobId */\n  shl(0x20, tag_19)\n    /* \"aquo/aquooracle.sol\":870:914  setJobId(\"a8356f48569c434eaa4ac5fcb4db5cc0\") */\n  0x20\n  shr\n  jump\t// in\ntag_18:\n    /* \"aquo/aquooracle.sol\":925:952  setFeeInHundredthsOfLink(0) */\n  tag_20\n    /* \"aquo/aquooracle.sol\":950:951  0 */\n  0x00\n    /* \"aquo/aquooracle.sol\":925:949  setFeeInHundredthsOfLink */\n  shl(0x20, tag_21)\n    /* \"aquo/aquooracle.sol\":925:952  setFeeInHundredthsOfLink(0) */\n  0x20\n  shr\n  jump\t// in\ntag_20:\n    /* \"aquo/aquooracle.sol\":474:4377  contract AquoOracle is ChainlinkClient, ConfirmedOwner {... */\n  jump(tag_22)\n    /* \"@chainlink/contracts/src/v0.8/ConfirmedOwnerWithProposal.sol\":1497:1685  function _transferOwnership(address to) private {... */\ntag_11:\n    /* \"@chainlink/contracts/src/v0.8/ConfirmedOwnerWithProposal.sol\":1565:1575  msg.sender */\n  caller\n    /* \"@chainlink/contracts/src/v0.8/ConfirmedOwnerWithProposal.sol\":1559:1575  to != msg.sender */\n  0xffffffffffffffffffffffffffffffffffffffff\n  and\n    /* \"@chainlink/contracts/src/v0.8/ConfirmedOwnerWithProposal.sol\":1559:1561  to */\n  dup2\n    /* \"@chainlink/contracts/src/v0.8/ConfirmedOwnerWithProposal.sol\":1559:1575  to != msg.sender */\n  0xffffffffffffffffffffffffffffffffffffffff\n  and\n  sub\n    /* \"@chainlink/contracts/src/v0.8/ConfirmedOwnerWithProposal.sol\":1551:1603  require(to != msg.sender, \"Cannot transfer to self\") */\n  tag_24\n  jumpi\n  mload(0x40)\n  0x08c379a000000000000000000000000000000000000000000000000000000000\n  dup2\n  mstore\n  0x04\n  add\n  tag_25\n  swap1\n  tag_26\n  jump\t// in\ntag_25:\n  mload(0x40)\n  dup1\n  swap2\n  sub\n  swap1\n  revert\ntag_24:\n    /* \"@chainlink/contracts/src/v0.8/ConfirmedOwnerWithProposal.sol\":1627:1629  to */\n  dup1\n    /* \"@chainlink/contracts/src/v0.8/ConfirmedOwnerWithProposal.sol\":1610:1624  s_pendingOwner */\n  0x07\n  0x00\n    /* \"@chainlink/contracts/src/v0.8/ConfirmedOwnerWithProposal.sol\":1610:1629  s_pendingOwner = to */\n  0x0100\n  exp\n  dup2\n  sload\n  dup2\n  0xffffffffffffffffffffffffffffffffffffffff\n  mul\n  not\n  and\n  swap1\n  dup4\n  0xffffffffffffffffffffffffffffffffffffffff\n  and\n  mul\n  or\n  swap1\n  sstore\n  pop\n    /* \"@chainlink/contracts/src/v0.8/ConfirmedOwnerWithProposal.sol\":1677:1679  to */\n  dup1\n    /* \"@chainlink/contracts/src/v0.8/ConfirmedOwnerWithProposal.sol\":1641:1680  OwnershipTransferRequested(s_owner, to) */\n  0xffffffffffffffffffffffffffffffffffffffff\n  and\n    /* \"@chainlink/contracts/src/v0.8/ConfirmedOwnerWithProposal.sol\":1668:1675  s_owner */\n  0x06\n  0x00\n  swap1\n  sload\n  swap1\n  0x0100\n  exp\n  swap1\n  div\n  0xffffffffffffffffffffffffffffffffffffffff\n  and\n    /* \"@chainlink/contracts/src/v0.8/ConfirmedOwnerWithProposal.sol\":1641:1680  OwnershipTransferRequested(s_owner, to) */\n  0xffffffffffffffffffffffffffffffffffffffff\n  and\n  0xed8889f560326eb138920d842192f0eb3dd22b4f139c87a2c57538e05bae1278\n  mload(0x40)\n  mload(0x40)\n  dup1\n  swap2\n  sub\n  swap1\n  log3\n    /* \"@chainlink/contracts/src/v0.8/ConfirmedOwnerWithProposal.sol\":1497:1685  function _transferOwnership(address to) private {... */\n  pop\n  jump\t// out\n    /* \"@chainlink/contracts/src/v0.8/ChainlinkClient.sol\":8632:8740  function setChainlinkToken(address linkAddress) internal {... */\ntag_15:\n    /* \"@chainlink/contracts/src/v0.8/ChainlinkClient.sol\":8723:8734  linkAddress */\n  dup1\n    /* \"@chainlink/contracts/src/v0.8/ChainlinkClient.sol\":8695:8701  s_link */\n  0x02\n  0x00\n    /* \"@chainlink/contracts/src/v0.8/ChainlinkClient.sol\":8695:8735  s_link = LinkTokenInterface(linkAddress) */\n  0x0100\n  exp\n  dup2\n  sload\n  dup2\n  0xffffffffffffffffffffffffffffffffffffffff\n  mul\n  not\n  and\n  swap1\n  dup4\n  0xffffffffffffffffffffffffffffffffffffffff\n  and\n  mul\n  or\n  swap1\n  sstore\n  pop\n    /* \"@chainlink/contracts/src/v0.8/ChainlinkClient.sol\":8632:8740  function setChainlinkToken(address linkAddress) internal {... */\n  pop\n  jump\t// out\n    /* \"aquo/aquooracle.sol\":3121:3282  function setOracleAddress(address _oracleAddress) public onlyOwner {... */\ntag_17:\n    /* \"@chainlink/contracts/src/v0.8/ConfirmedOwnerWithProposal.sol\":1956:1976  _validateOwnership() */\n  tag_29\n    /* \"@chainlink/contracts/src/v0.8/ConfirmedOwnerWithProposal.sol\":1956:1974  _validateOwnership */\n  shl(0x20, tag_30)\n    /* \"@chainlink/contracts/src/v0.8/ConfirmedOwnerWithProposal.sol\":1956:1976  _validateOwnership() */\n  0x20\n  shr\n  jump\t// in\ntag_29:\n    /* \"aquo/aquooracle.sol\":3215:3229  _oracleAddress */\n  dup1\n    /* \"aquo/aquooracle.sol\":3199:3212  oracleAddress */\n  0x08\n  0x00\n    /* \"aquo/aquooracle.sol\":3199:3229  oracleAddress = _oracleAddress */\n  0x0100\n  exp\n  dup2\n  sload\n  dup2\n  0xffffffffffffffffffffffffffffffffffffffff\n  mul\n  not\n  and\n  swap1\n  dup4\n  0xffffffffffffffffffffffffffffffffffffffff\n  and\n  mul\n  or\n  swap1\n  sstore\n  pop\n    /* \"aquo/aquooracle.sol\":3240:3274  setChainlinkOracle(_oracleAddress) */\n  tag_32\n    /* \"aquo/aquooracle.sol\":3259:3273  _oracleAddress */\n  dup2\n    /* \"aquo/aquooracle.sol\":3240:3258  setChainlinkOracle */\n  shl(0x20, tag_33)\n    /* \"aquo/aquooracle.sol\":3240:3274  setChainlinkOracle(_oracleAddress) */\n  0x20\n  shr\n  jump\t// in\ntag_32:\n    /* \"aquo/aquooracle.sol\":3121:3282  function setOracleAddress(address _oracleAddress) public onlyOwner {... */\n  pop\n  jump\t// out\n    /* \"aquo/aquooracle.sol\":3424:3530  function setJobId(string memory _jobId) public onlyOwner {... */\ntag_19:\n    /* \"@chainlink/contracts/src/v0.8/ConfirmedOwnerWithProposal.sol\":1956:1976  _validateOwnership() */\n  tag_35\n    /* \"@chainlink/contracts/src/v0.8/ConfirmedOwnerWithProposal.sol\":1956:1974  _validateOwnership */\n  shl(0x20, tag_30)\n    /* \"@chainlink/contracts/src/v0.8/ConfirmedOwnerWithProposal.sol\":1956:1976  _validateOwnership() */\n  0x20\n  shr\n  jump\t// in\ntag_35:\n    /* \"aquo/aquooracle.sol\":3514:3520  _jobId */\n  dup1\n    /* \"aquo/aquooracle.sol\":3500:3522  bytes32(bytes(_jobId)) */\n  tag_37\n  swap1\n  tag_38\n  jump\t// in\ntag_37:\n    /* \"aquo/aquooracle.sol\":3492:3497  jobId */\n  0x09\n    /* \"aquo/aquooracle.sol\":3492:3522  jobId = bytes32(bytes(_jobId)) */\n  dup2\n  swap1\n  sstore\n  pop\n    /* \"aquo/aquooracle.sol\":3424:3530  function setJobId(string memory _jobId) public onlyOwner {... */\n  pop\n  jump\t// out\n    /* \"aquo/aquooracle.sol\":3794:3961  function setFeeInHundredthsOfLink(uint256 _feeInHundredthsOfLink) public onlyOwner {... */\ntag_21:\n    /* \"@chainlink/contracts/src/v0.8/ConfirmedOwnerWithProposal.sol\":1956:1976  _validateOwnership() */\n  tag_40\n    /* \"@chainlink/contracts/src/v0.8/ConfirmedOwnerWithProposal.sol\":1956:1974  _validateOwnership */\n  shl(0x20, tag_30)\n    /* \"@chainlink/contracts/src/v0.8/ConfirmedOwnerWithProposal.sol\":1956:1976  _validateOwnership() */\n  0x20\n  shr\n  jump\t// in\ntag_40:\n    /* \"aquo/aquooracle.sol\":3888:3953  setFeeInJuels((_feeInHundredthsOfLink * LINK_DIVISIBILITY) / 100) */\n  tag_42\n    /* \"aquo/aquooracle.sol\":3949:3952  100 */\n  0x64\n    /* \"@chainlink/contracts/src/v0.8/ChainlinkClient.sol\":682:690  10 ** 18 */\n  0x0de0b6b3a7640000\n    /* \"aquo/aquooracle.sol\":3903:3925  _feeInHundredthsOfLink */\n  dup4\n    /* \"aquo/aquooracle.sol\":3903:3945  _feeInHundredthsOfLink * LINK_DIVISIBILITY */\n  tag_43\n  swap2\n  swap1\n  tag_44\n  jump\t// in\ntag_43:\n    /* \"aquo/aquooracle.sol\":3902:3952  (_feeInHundredthsOfLink * LINK_DIVISIBILITY) / 100 */\n  tag_45\n  swap2\n  swap1\n  tag_46\n  jump\t// in\ntag_45:\n    /* \"aquo/aquooracle.sol\":3888:3901  setFeeInJuels */\n  shl(0x20, tag_47)\n    /* \"aquo/aquooracle.sol\":3888:3953  setFeeInJuels((_feeInHundredthsOfLink * LINK_DIVISIBILITY) / 100) */\n  0x20\n  shr\n  jump\t// in\ntag_42:\n    /* \"aquo/aquooracle.sol\":3794:3961  function setFeeInHundredthsOfLink(uint256 _feeInHundredthsOfLink) public onlyOwner {... */\n  pop\n  jump\t// out\n    /* \"@chainlink/contracts/src/v0.8/ConfirmedOwnerWithProposal.sol\":1730:1841  function _validateOwnership() internal view {... */\ntag_30:\n    /* \"@chainlink/contracts/src/v0.8/ConfirmedOwnerWithProposal.sol\":1802:1809  s_owner */\n  0x06\n  0x00\n  swap1\n  sload\n  swap1\n  0x0100\n  exp\n  swap1\n  div\n  0xffffffffffffffffffffffffffffffffffffffff\n  and\n    /* \"@chainlink/contracts/src/v0.8/ConfirmedOwnerWithProposal.sol\":1788:1809  msg.sender == s_owner */\n  0xffffffffffffffffffffffffffffffffffffffff\n  and\n    /* \"@chainlink/contracts/src/v0.8/ConfirmedOwnerWithProposal.sol\":1788:1798  msg.sender */\n  caller\n    /* \"@chainlink/contracts/src/v0.8/ConfirmedOwnerWithProposal.sol\":1788:1809  msg.sender == s_owner */\n  0xffffffffffffffffffffffffffffffffffffffff\n  and\n  eq\n    /* \"@chainlink/contracts/src/v0.8/ConfirmedOwnerWithProposal.sol\":1780:1836  require(msg.sender == s_owner, \"Only callable by owner\") */\n  tag_49\n  jumpi\n  mload(0x40)\n  0x08c379a000000000000000000000000000000000000000000000000000000000\n  dup2\n  mstore\n  0x04\n  add\n  tag_50\n  swap1\n  tag_51\n  jump\t// in\ntag_50:\n  mload(0x40)\n  dup1\n  swap2\n  sub\n  swap1\n  revert\ntag_49:\n    /* \"@chainlink/contracts/src/v0.8/ConfirmedOwnerWithProposal.sol\":1730:1841  function _validateOwnership() internal view {... */\n  jump\t// out\n    /* \"@chainlink/contracts/src/v0.8/ChainlinkClient.sol\":8398:8512  function setChainlinkOracle(address oracleAddress) internal {... */\ntag_33:\n    /* \"@chainlink/contracts/src/v0.8/ChainlinkClient.sol\":8493:8506  oracleAddress */\n  dup1\n    /* \"@chainlink/contracts/src/v0.8/ChainlinkClient.sol\":8464:8472  s_oracle */\n  0x03\n  0x00\n    /* \"@chainlink/contracts/src/v0.8/ChainlinkClient.sol\":8464:8507  s_oracle = OperatorInterface(oracleAddress) */\n  0x0100\n  exp\n  dup2\n  sload\n  dup2\n  0xffffffffffffffffffffffffffffffffffffffff\n  mul\n  not\n  and\n  swap1\n  dup4\n  0xffffffffffffffffffffffffffffffffffffffff\n  and\n  mul\n  or\n  swap1\n  sstore\n  pop\n    /* \"@chainlink/contracts/src/v0.8/ChainlinkClient.sol\":8398:8512  function setChainlinkOracle(address oracleAddress) internal {... */\n  pop\n  jump\t// out\n    /* \"aquo/aquooracle.sol\":3691:3788  function setFeeInJuels(uint256 _feeInJuels) public onlyOwner {... */\ntag_47:\n    /* \"@chainlink/contracts/src/v0.8/ConfirmedOwnerWithProposal.sol\":1956:1976  _validateOwnership() */\n  tag_54\n    /* \"@chainlink/contracts/src/v0.8/ConfirmedOwnerWithProposal.sol\":1956:1974  _validateOwnership */\n  shl(0x20, tag_30)\n    /* \"@chainlink/contracts/src/v0.8/ConfirmedOwnerWithProposal.sol\":1956:1976  _validateOwnership() */\n  0x20\n  shr\n  jump\t// in\ntag_54:\n    /* \"aquo/aquooracle.sol\":3769:3780  _feeInJuels */\n  dup1\n    /* \"aquo/aquooracle.sol\":3763:3766  fee */\n  0x0a\n    /* \"aquo/aquooracle.sol\":3763:3780  fee = _feeInJuels */\n  dup2\n  swap1\n  sstore\n  pop\n    /* \"aquo/aquooracle.sol\":3691:3788  function setFeeInJuels(uint256 _feeInJuels) public onlyOwner {... */\n  pop\n  jump\t// out\n    /* \"#utility.yul\":7:176   */\ntag_56:\n    /* \"#utility.yul\":91:102   */\n  0x00\n    /* \"#utility.yul\":125:131   */\n  dup3\n    /* \"#utility.yul\":120:123   */\n  dup3\n    /* \"#utility.yul\":113:132   */\n  mstore\n    /* \"#utility.yul\":165:169   */\n  0x20\n    /* \"#utility.yul\":160:163   */\n  dup3\n    /* \"#utility.yul\":156:170   */\n  add\n    /* \"#utility.yul\":141:170   */\n  swap1\n  pop\n    /* \"#utility.yul\":7:176   */\n  swap3\n  swap2\n  pop\n  pop\n  jump\t// out\n    /* \"#utility.yul\":182:356   */\ntag_57:\n    /* \"#utility.yul\":322:348   */\n  0x43616e6e6f7420736574206f776e657220746f207a65726f0000000000000000\n    /* \"#utility.yul\":318:319   */\n  0x00\n    /* \"#utility.yul\":310:316   */\n  dup3\n    /* \"#utility.yul\":306:320   */\n  add\n    /* \"#utility.yul\":299:349   */\n  mstore\n    /* \"#utility.yul\":182:356   */\n  pop\n  jump\t// out\n    /* \"#utility.yul\":362:728   */\ntag_58:\n    /* \"#utility.yul\":504:507   */\n  0x00\n    /* \"#utility.yul\":525:592   */\n  tag_75\n    /* \"#utility.yul\":589:591   */\n  0x18\n    /* \"#utility.yul\":584:587   */\n  dup4\n    /* \"#utility.yul\":525:592   */\n  tag_56\n  jump\t// in\ntag_75:\n    /* \"#utility.yul\":518:592   */\n  swap2\n  pop\n    /* \"#utility.yul\":601:694   */\n  tag_76\n    /* \"#utility.yul\":690:693   */\n  dup3\n    /* \"#utility.yul\":601:694   */\n  tag_57\n  jump\t// in\ntag_76:\n    /* \"#utility.yul\":719:721   */\n  0x20\n    /* \"#utility.yul\":714:717   */\n  dup3\n    /* \"#utility.yul\":710:722   */\n  add\n    /* \"#utility.yul\":703:722   */\n  swap1\n  pop\n    /* \"#utility.yul\":362:728   */\n  swap2\n  swap1\n  pop\n  jump\t// out\n    /* \"#utility.yul\":734:1153   */\ntag_8:\n    /* \"#utility.yul\":900:904   */\n  0x00\n    /* \"#utility.yul\":938:940   */\n  0x20\n    /* \"#utility.yul\":927:936   */\n  dup3\n    /* \"#utility.yul\":923:941   */\n  add\n    /* \"#utility.yul\":915:941   */\n  swap1\n  pop\n    /* \"#utility.yul\":987:996   */\n  dup2\n    /* \"#utility.yul\":981:985   */\n  dup2\n    /* \"#utility.yul\":977:997   */\n  sub\n    /* \"#utility.yul\":973:974   */\n  0x00\n    /* \"#utility.yul\":962:971   */\n  dup4\n    /* \"#utility.yul\":958:975   */\n  add\n    /* \"#utility.yul\":951:998   */\n  mstore\n    /* \"#utility.yul\":1015:1146   */\n  tag_78\n    /* \"#utility.yul\":1141:1145   */\n  dup2\n    /* \"#utility.yul\":1015:1146   */\n  tag_58\n  jump\t// in\ntag_78:\n    /* \"#utility.yul\":1007:1146   */\n  swap1\n  pop\n    /* \"#utility.yul\":734:1153   */\n  swap2\n  swap1\n  pop\n  jump\t// out\n    /* \"#utility.yul\":1159:1332   */\ntag_59:\n    /* \"#utility.yul\":1299:1324   */\n  0x43616e6e6f74207472616e7366657220746f2073656c66000000000000000000\n    /* \"#utility.yul\":1295:1296   */\n  0x00\n    /* \"#utility.yul\":1287:1293   */\n  dup3\n    /* \"#utility.yul\":1283:1297   */\n  add\n    /* \"#utility.yul\":1276:1325   */\n  mstore\n    /* \"#utility.yul\":1159:1332   */\n  pop\n  jump\t// out\n    /* \"#utility.yul\":1338:1704   */\ntag_60:\n    /* \"#utility.yul\":1480:1483   */\n  0x00\n    /* \"#utility.yul\":1501:1568   */\n  tag_81\n    /* \"#utility.yul\":1565:1567   */\n  0x17\n    /* \"#utility.yul\":1560:1563   */\n  dup4\n    /* \"#utility.yul\":1501:1568   */\n  tag_56\n  jump\t// in\ntag_81:\n    /* \"#utility.yul\":1494:1568   */\n  swap2\n  pop\n    /* \"#utility.yul\":1577:1670   */\n  tag_82\n    /* \"#utility.yul\":1666:1669   */\n  dup3\n    /* \"#utility.yul\":1577:1670   */\n  tag_59\n  jump\t// in\ntag_82:\n    /* \"#utility.yul\":1695:1697   */\n  0x20\n    /* \"#utility.yul\":1690:1693   */\n  dup3\n    /* \"#utility.yul\":1686:1698   */\n  add\n    /* \"#utility.yul\":1679:1698   */\n  swap1\n  pop\n    /* \"#utility.yul\":1338:1704   */\n  swap2\n  swap1\n  pop\n  jump\t// out\n    /* \"#utility.yul\":1710:2129   */\ntag_26:\n    /* \"#utility.yul\":1876:1880   */\n  0x00\n    /* \"#utility.yul\":1914:1916   */\n  0x20\n    /* \"#utility.yul\":1903:1912   */\n  dup3\n    /* \"#utility.yul\":1899:1917   */\n  add\n    /* \"#utility.yul\":1891:1917   */\n  swap1\n  pop\n    /* \"#utility.yul\":1963:1972   */\n  dup2\n    /* \"#utility.yul\":1957:1961   */\n  dup2\n    /* \"#utility.yul\":1953:1973   */\n  sub\n    /* \"#utility.yul\":1949:1950   */\n  0x00\n    /* \"#utility.yul\":1938:1947   */\n  dup4\n    /* \"#utility.yul\":1934:1951   */\n  add\n    /* \"#utility.yul\":1927:1974   */\n  mstore\n    /* \"#utility.yul\":1991:2122   */\n  tag_84\n    /* \"#utility.yul\":2117:2121   */\n  dup2\n    /* \"#utility.yul\":1991:2122   */\n  tag_60\n  jump\t// in\ntag_84:\n    /* \"#utility.yul\":1983:2122   */\n  swap1\n  pop\n    /* \"#utility.yul\":1710:2129   */\n  swap2\n  swap1\n  pop\n  jump\t// out\n    /* \"#utility.yul\":2135:2233   */\ntag_61:\n    /* \"#utility.yul\":2186:2192   */\n  0x00\n    /* \"#utility.yul\":2220:2225   */\n  dup2\n    /* \"#utility.yul\":2214:2226   */\n  mload\n    /* \"#utility.yul\":2204:2226   */\n  swap1\n  pop\n    /* \"#utility.yul\":2135:2233   */\n  swap2\n  swap1\n  pop\n  jump\t// out\n    /* \"#utility.yul\":2239:2355   */\ntag_62:\n    /* \"#utility.yul\":2290:2294   */\n  0x00\n    /* \"#utility.yul\":2313:2316   */\n  dup2\n    /* \"#utility.yul\":2305:2316   */\n  swap1\n  pop\n    /* \"#utility.yul\":2343:2347   */\n  0x20\n    /* \"#utility.yul\":2338:2341   */\n  dup3\n    /* \"#utility.yul\":2334:2348   */\n  add\n    /* \"#utility.yul\":2326:2348   */\n  swap1\n  pop\n    /* \"#utility.yul\":2239:2355   */\n  swap2\n  swap1\n  pop\n  jump\t// out\n    /* \"#utility.yul\":2361:2438   */\ntag_63:\n    /* \"#utility.yul\":2398:2405   */\n  0x00\n    /* \"#utility.yul\":2427:2432   */\n  dup2\n    /* \"#utility.yul\":2416:2432   */\n  swap1\n  pop\n    /* \"#utility.yul\":2361:2438   */\n  swap2\n  swap1\n  pop\n  jump\t// out\n    /* \"#utility.yul\":2444:2598   */\ntag_64:\n    /* \"#utility.yul\":2487:2498   */\n  0x00\n    /* \"#utility.yul\":2523:2552   */\n  tag_89\n    /* \"#utility.yul\":2547:2550   */\n  dup3\n    /* \"#utility.yul\":2541:2551   */\n  mload\n    /* \"#utility.yul\":2523:2552   */\n  tag_63\n  jump\t// in\ntag_89:\n    /* \"#utility.yul\":2586:2591   */\n  dup1\n    /* \"#utility.yul\":2562:2591   */\n  swap2\n  pop\n    /* \"#utility.yul\":2499:2598   */\n  pop\n    /* \"#utility.yul\":2444:2598   */\n  swap2\n  swap1\n  pop\n  jump\t// out\n    /* \"#utility.yul\":2604:2711   */\ntag_65:\n    /* \"#utility.yul\":2648:2656   */\n  0x00\n    /* \"#utility.yul\":2698:2703   */\n  dup3\n    /* \"#utility.yul\":2692:2696   */\n  dup3\n    /* \"#utility.yul\":2688:2704   */\n  shl\n    /* \"#utility.yul\":2667:2704   */\n  swap1\n  pop\n    /* \"#utility.yul\":2604:2711   */\n  swap3\n  swap2\n  pop\n  pop\n  jump\t// out\n    /* \"#utility.yul\":2717:3311   */\ntag_38:\n    /* \"#utility.yul\":2801:2806   */\n  0x00\n    /* \"#utility.yul\":2832:2870   */\n  tag_92\n    /* \"#utility.yul\":2864:2869   */\n  dup3\n    /* \"#utility.yul\":2832:2870   */\n  tag_61\n  jump\t// in\ntag_92:\n    /* \"#utility.yul\":2895:2900   */\n  dup3\n    /* \"#utility.yul\":2922:2962   */\n  tag_93\n    /* \"#utility.yul\":2956:2961   */\n  dup5\n    /* \"#utility.yul\":2922:2962   */\n  tag_62\n  jump\t// in\ntag_93:\n    /* \"#utility.yul\":2910:2962   */\n  swap1\n  pop\n    /* \"#utility.yul\":2981:3016   */\n  tag_94\n    /* \"#utility.yul\":3007:3015   */\n  dup2\n    /* \"#utility.yul\":2981:3016   */\n  tag_64\n  jump\t// in\ntag_94:\n    /* \"#utility.yul\":2972:3016   */\n  swap3\n  pop\n    /* \"#utility.yul\":3040:3042   */\n  0x20\n    /* \"#utility.yul\":3032:3038   */\n  dup3\n    /* \"#utility.yul\":3029:3043   */\n  lt\n    /* \"#utility.yul\":3026:3304   */\n  iszero\n  tag_95\n  jumpi\n    /* \"#utility.yul\":3111:3280   */\n  tag_96\n    /* \"#utility.yul\":3196:3262   */\n  0xffffffffffffffffffffffffffffffffffffffffffffffffffffffffffffffff\n    /* \"#utility.yul\":3166:3172   */\n  dup4\n    /* \"#utility.yul\":3162:3164   */\n  0x20\n    /* \"#utility.yul\":3158:3173   */\n  sub\n    /* \"#utility.yul\":3155:3156   */\n  0x08\n    /* \"#utility.yul\":3151:3174   */\n  mul\n    /* \"#utility.yul\":3111:3280   */\n  tag_65\n  jump\t// in\ntag_96:\n    /* \"#utility.yul\":3088:3093   */\n  dup4\n    /* \"#utility.yul\":3067:3294   */\n  and\n    /* \"#utility.yul\":3058:3294   */\n  swap3\n  pop\n    /* \"#utility.yul\":3026:3304   */\ntag_95:\n    /* \"#utility.yul\":2807:3311   */\n  pop\n  pop\n    /* \"#utility.yul\":2717:3311   */\n  swap2\n  swap1\n  pop\n  jump\t// out\n    /* \"#utility.yul\":3317:3394   */\ntag_66:\n    /* \"#utility.yul\":3354:3361   */\n  0x00\n    /* \"#utility.yul\":3383:3388   */\n  dup2\n    /* \"#utility.yul\":3372:3388   */\n  swap1\n  pop\n    /* \"#utility.yul\":3317:3394   */\n  swap2\n  swap1\n  pop\n  jump\t// out\n    /* \"#utility.yul\":3400:3580   */\ntag_67:\n    /* \"#utility.yul\":3448:3525   */\n  0x4e487b7100000000000000000000000000000000000000000000000000000000\n    /* \"#utility.yul\":3445:3446   */\n  0x00\n    /* \"#utility.yul\":3438:3526   */\n  mstore\n    /* \"#utility.yul\":3545:3549   */\n  0x11\n    /* \"#utility.yul\":3542:3543   */\n  0x04\n    /* \"#utility.yul\":3535:3550   */\n  mstore\n    /* \"#utility.yul\":3569:3573   */\n  0x24\n    /* \"#utility.yul\":3566:3567   */\n  0x00\n    /* \"#utility.yul\":3559:3574   */\n  revert\n    /* \"#utility.yul\":3586:3996   */\ntag_44:\n    /* \"#utility.yul\":3626:3633   */\n  0x00\n    /* \"#utility.yul\":3649:3669   */\n  tag_100\n    /* \"#utility.yul\":3667:3668   */\n  dup3\n    /* \"#utility.yul\":3649:3669   */\n  tag_66\n  jump\t// in\ntag_100:\n    /* \"#utility.yul\":3644:3669   */\n  swap2\n  pop\n    /* \"#utility.yul\":3683:3703   */\n  tag_101\n    /* \"#utility.yul\":3701:3702   */\n  dup4\n    /* \"#utility.yul\":3683:3703   */\n  tag_66\n  jump\t// in\ntag_101:\n    /* \"#utility.yul\":3678:3703   */\n  swap3\n  pop\n    /* \"#utility.yul\":3738:3739   */\n  dup3\n    /* \"#utility.yul\":3735:3736   */\n  dup3\n    /* \"#utility.yul\":3731:3740   */\n  mul\n    /* \"#utility.yul\":3760:3790   */\n  tag_102\n    /* \"#utility.yul\":3778:3789   */\n  dup2\n    /* \"#utility.yul\":3760:3790   */\n  tag_66\n  jump\t// in\ntag_102:\n    /* \"#utility.yul\":3749:3790   */\n  swap2\n  pop\n    /* \"#utility.yul\":3939:3940   */\n  dup3\n    /* \"#utility.yul\":3930:3937   */\n  dup3\n    /* \"#utility.yul\":3926:3941   */\n  div\n    /* \"#utility.yul\":3923:3924   */\n  dup5\n    /* \"#utility.yul\":3920:3942   */\n  eq\n    /* \"#utility.yul\":3900:3901   */\n  dup4\n    /* \"#utility.yul\":3893:3902   */\n  iszero\n    /* \"#utility.yul\":3873:3956   */\n  or\n    /* \"#utility.yul\":3850:3989   */\n  tag_103\n  jumpi\n    /* \"#utility.yul\":3969:3987   */\n  tag_104\n  tag_67\n  jump\t// in\ntag_104:\n    /* \"#utility.yul\":3850:3989   */\ntag_103:\n    /* \"#utility.yul\":3634:3996   */\n  pop\n    /* \"#utility.yul\":3586:3996   */\n  swap3\n  swap2\n  pop\n  pop\n  jump\t// out\n    /* \"#utility.yul\":4002:4182   */\ntag_68:\n    /* \"#utility.yul\":4050:4127   */\n  0x4e487b7100000000000000000000000000000000000000000000000000000000\n    /* \"#utility.yul\":4047:4048   */\n  0x00\n    /* \"#utility.yul\":4040:4128   */\n  mstore\n    /* \"#utility.yul\":4147:4151   */\n  0x12\n    /* \"#utility.yul\":4144:4145   */\n  0x04\n    /* \"#utility.yul\":4137:4152   */\n  mstore\n    /* \"#utility.yul\":4171:4175   */\n  0x24\n    /* \"#utility.yul\":4168:4169   */\n  0x00\n    /* \"#utility.yul\":4161:4176   */\n  revert\n    /* \"#utility.yul\":4188:4373   */\ntag_46:\n    /* \"#utility.yul\":4228:4229   */\n  0x00\n    /* \"#utility.yul\":4245:4265   */\n  tag_107\n    /* \"#utility.yul\":4263:4264   */\n  dup3\n    /* \"#utility.yul\":4245:4265   */\n  tag_66\n  jump\t// in\ntag_107:\n    /* \"#utility.yul\":4240:4265   */\n  swap2\n  pop\n    /* \"#utility.yul\":4279:4299   */\n  tag_108\n    /* \"#utility.yul\":4297:4298   */\n  dup4\n    /* \"#utility.yul\":4279:4299   */\n  tag_66\n  jump\t// in\ntag_108:\n    /* \"#utility.yul\":4274:4299   */\n  swap3\n  pop\n    /* \"#utility.yul\":4318:4319   */\n  dup3\n    /* \"#utility.yul\":4308:4343   */\n  tag_109\n  jumpi\n    /* \"#utility.yul\":4323:4341   */\n  tag_110\n  tag_68\n  jump\t// in\ntag_110:\n    /* \"#utility.yul\":4308:4343   */\ntag_109:\n    /* \"#utility.yul\":4365:4366   */\n  dup3\n    /* \"#utility.yul\":4362:4363   */\n  dup3\n    /* \"#utility.yul\":4358:4367   */\n  div\n    /* \"#utility.yul\":4353:4367   */\n  swap1\n  pop\n    /* \"#utility.yul\":4188:4373   */\n  swap3\n  swap2\n  pop\n  pop\n  jump\t// out\n    /* \"#utility.yul\":4379:4551   */\ntag_69:\n    /* \"#utility.yul\":4519:4543   */\n  0x4f6e6c792063616c6c61626c65206279206f776e657200000000000000000000\n    /* \"#utility.yul\":4515:4516   */\n  0x00\n    /* \"#utility.yul\":4507:4513   */\n  dup3\n    /* \"#utility.yul\":4503:4517   */\n  add\n    /* \"#utility.yul\":4496:4544   */\n  mstore\n    /* \"#utility.yul\":4379:4551   */\n  pop\n  jump\t// out\n    /* \"#utility.yul\":4557:4923   */\ntag_70:\n    /* \"#utility.yul\":4699:4702   */\n  0x00\n    /* \"#utility.yul\":4720:4787   */\n  tag_113\n    /* \"#utility.yul\":4784:4786   */\n  0x16\n    /* \"#utility.yul\":4779:4782   */\n  dup4\n    /* \"#utility.yul\":4720:4787   */\n  tag_56\n  jump\t// in\ntag_113:\n    /* \"#utility.yul\":4713:4787   */\n  swap2\n  pop\n    /* \"#utility.yul\":4796:4889   */\n  tag_114\n    /* \"#utility.yul\":4885:4888   */\n  dup3\n    /* \"#utility.yul\":4796:4889   */\n  tag_69\n  jump\t// in\ntag_114:\n    /* \"#utility.yul\":4914:4916   */\n  0x20\n    /* \"#utility.yul\":4909:4912   */\n  dup3\n    /* \"#utility.yul\":4905:4917   */\n  add\n    /* \"#utility.yul\":4898:4917   */\n  swap1\n  pop\n    /* \"#utility.yul\":4557:4923   */\n  swap2\n  swap1\n  pop\n  jump\t// out\n    /* \"#utility.yul\":4929:5348   */\ntag_51:\n    /* \"#utility.yul\":5095:5099   */\n  0x00\n    /* \"#utility.yul\":5133:5135   */\n  0x20\n    /* \"#utility.yul\":5122:5131   */\n  dup3\n    /* \"#utility.yul\":5118:5136   */\n  add\n    /* \"#utility.yul\":5110:5136   */\n  swap1\n  pop\n    /* \"#utility.yul\":5182:5191   */\n  dup2\n    /* \"#utility.yul\":5176:5180   */\n  dup2\n    /* \"#utility.yul\":5172:5192   */\n  sub\n    /* \"#utility.yul\":5168:5169   */\n  0x00\n    /* \"#utility.yul\":5157:5166   */\n  dup4\n    /* \"#utility.yul\":5153:5170   */\n  add\n    /* \"#utility.yul\":5146:5193   */\n  mstore\n    /* \"#utility.yul\":5210:5341   */\n  tag_116\n    /* \"#utility.yul\":5336:5340   */\n  dup2\n    /* \"#utility.yul\":5210:5341   */\n  tag_70\n  jump\t// in\ntag_116:\n    /* \"#utility.yul\":5202:5341   */\n  swap1\n  pop\n    /* \"#utility.yul\":4929:5348   */\n  swap2\n  swap1\n  pop\n  jump\t// out\n    /* \"aquo/aquooracle.sol\":474:4377  contract AquoOracle is ChainlinkClient, ConfirmedOwner {... */\ntag_22:\n  dataSize(sub_0)\n  dup1\n  dataOffset(sub_0)\n  0x00\n  codecopy\n  0x00\n  return\nstop\n\nsub_0: assembly {\n        /* \"aquo/aquooracle.sol\":474:4377  contract AquoOracle is ChainlinkClient, ConfirmedOwner {... */\n      mstore(0x40, 0x80)\n      callvalue\n      dup1\n      iszero\n      tag_1\n      jumpi\n      0x00\n      dup1\n      revert\n    tag_1:\n      pop\n      jumpi(tag_2, lt(calldatasize, 0x04))\n      shr(0xe0, calldataload(0x00))\n      dup1\n      0x8da5cb5b\n      gt\n      tag_17\n      jumpi\n      dup1\n      0xb18b78dd\n      gt\n      tag_18\n      jumpi\n      dup1\n      0xb18b78dd\n      eq\n      tag_13\n      jumpi\n      dup1\n      0xe3da201d\n      eq\n      tag_14\n      jumpi\n      dup1\n      0xf2fde38b\n      eq\n      tag_15\n      jumpi\n      dup1\n      0xf34473a5\n      eq\n      tag_16\n      jumpi\n      jump(tag_2)\n    tag_18:\n      dup1\n      0x8da5cb5b\n      eq\n      tag_10\n      jumpi\n      dup1\n      0x8dc654a2\n      eq\n      tag_11\n      jumpi\n      dup1\n      0xb02f7fe0\n      eq\n      tag_12\n      jumpi\n      jump(tag_2)\n    tag_17:\n      dup1\n      0x4c69c00f\n      gt\n      tag_19\n      jumpi\n      dup1\n      0x4c69c00f\n      eq\n      tag_6\n      jumpi\n      dup1\n      0x56237682\n      eq\n      tag_7\n      jumpi\n      dup1\n      0x79ba5097\n      eq\n      tag_8\n      jumpi\n      dup1\n      0x7a7f01a7\n      eq\n      tag_9\n      jumpi\n      jump(tag_2)\n    tag_19:\n      dup1\n      0x129fc1c0\n      eq\n      tag_3\n      jumpi\n      dup1\n      0x2c199889\n      eq\n      tag_4\n      jumpi\n      dup1\n      0x4357855e\n      eq\n      tag_5\n      jumpi\n    tag_2:\n      0x00\n      dup1\n      revert\n        /* \"aquo/aquooracle.sol\":3424:3530  function setJobId(string memory _jobId) public onlyOwner {... */\n    tag_3:\n      tag_20\n      0x04\n      dup1\n      calldatasize\n      sub\n      dup2\n      add\n      swap1\n      tag_21\n      swap2\n      swap1\n      tag_22\n      jump\t// in\n    tag_21:\n      tag_23\n      jump\t// in\n    tag_20:\n      stop\n        /* \"aquo/aquooracle.sol\":1029:2502  function request(string memory identifier) public {... */\n    tag_4:\n      tag_24\n      0x04\n      dup1\n      calldatasize\n      sub\n      dup2\n      add\n      swap1\n      tag_25\n      swap2\n      swap1\n      tag_22\n      jump\t// in\n    tag_25:\n      tag_26\n      jump\t// in\n    tag_24:\n      stop\n        /* \"aquo/aquooracle.sol\":2659:3083  function fulfill(bytes32 requestId, uint256 data) public recordChainlinkFulfillment(requestId) {... */\n    tag_5:\n      tag_27\n      0x04\n      dup1\n      calldatasize\n      sub\n      dup2\n      add\n      swap1\n      tag_28\n      swap2\n      swap1\n      tag_29\n      jump\t// in\n    tag_28:\n      tag_30\n      jump\t// in\n    tag_27:\n      stop\n        /* \"aquo/aquooracle.sol\":3121:3282  function setOracleAddress(address _oracleAddress) public onlyOwner {... */\n    tag_6:\n      tag_31\n      0x04\n      dup1\n      calldatasize\n      sub\n      dup2\n      add\n      swap1\n      tag_32\n      swap2\n      swap1\n      tag_33\n      jump\t// in\n    tag_32:\n      tag_34\n      jump\t// in\n    tag_31:\n      stop\n        /* \"aquo/aquooracle.sol\":3967:4100  function getFeeInHundredthsOfLink() public view onlyOwner returns (uint256) {... */\n    tag_7:\n      tag_35\n      tag_36\n      jump\t// in\n    tag_35:\n      mload(0x40)\n      tag_37\n      swap2\n      swap1\n      tag_38\n      jump\t// in\n    tag_37:\n      mload(0x40)\n      dup1\n      swap2\n      sub\n      swap1\n      return\n        /* \"@chainlink/contracts/src/v0.8/ConfirmedOwnerWithProposal.sol\":1016:1281  function acceptOwnership() external override {... */\n    tag_8:\n      tag_39\n      tag_40\n      jump\t// in\n    tag_39:\n      stop\n        /* \"aquo/aquooracle.sol\":2510:2533  uint256 public response */\n    tag_9:\n      tag_41\n      tag_42\n      jump\t// in\n    tag_41:\n      mload(0x40)\n      tag_43\n      swap2\n      swap1\n      tag_38\n      jump\t// in\n    tag_43:\n      mload(0x40)\n      dup1\n      swap2\n      sub\n      swap1\n      return\n        /* \"@chainlink/contracts/src/v0.8/ConfirmedOwnerWithProposal.sol\":1332:1413  function owner() public view override returns (address) {... */\n    tag_10:\n      tag_44\n      tag_45\n      jump\t// in\n    tag_44:\n      mload(0x40)\n      tag_46\n      swap2\n      swap1\n      tag_47\n      jump\t// in\n    tag_46:\n      mload(0x40)\n      dup1\n      swap2\n      sub\n      swap1\n      return\n        /* \"aquo/aquooracle.sol\":4110:4374  function withdrawLink() public onlyOwner {... */\n    tag_11:\n      tag_48\n      tag_49\n      jump\t// in\n    tag_48:\n      stop\n        /* \"aquo/aquooracle.sol\":3536:3659  function getJobId() public view onlyOwner returns (string memory) {... */\n    tag_12:\n      tag_50\n      tag_51\n      jump\t// in\n    tag_50:\n      mload(0x40)\n      tag_52\n      swap2\n      swap1\n      tag_53\n      jump\t// in\n    tag_52:\n      mload(0x40)\n      dup1\n      swap2\n      sub\n      swap1\n      return\n        /* \"aquo/aquooracle.sol\":3288:3395  function getOracleAddress() public view onlyOwner returns (address) {... */\n    tag_13:\n      tag_54\n      tag_55\n      jump\t// in\n    tag_54:\n      mload(0x40)\n      tag_56\n      swap2\n      swap1\n      tag_47\n      jump\t// in\n    tag_56:\n      mload(0x40)\n      dup1\n      swap2\n      sub\n      swap1\n      return\n        /* \"aquo/aquooracle.sol\":3691:3788  function setFeeInJuels(uint256 _feeInJuels) public onlyOwner {... */\n    tag_14:\n      tag_57\n      0x04\n      dup1\n      calldatasize\n      sub\n      dup2\n      add\n      swap1\n      tag_58\n      swap2\n      swap1\n      tag_59\n      jump\t// in\n    tag_58:\n      tag_60\n      jump\t// in\n    tag_57:\n      stop\n        /* \"@chainlink/contracts/src/v0.8/ConfirmedOwnerWithProposal.sol\":826:924  function transferOwnership(address to) public override onlyOwner {... */\n    tag_15:\n      tag_61\n      0x04\n      dup1\n      calldatasize\n      sub\n      dup2\n      add\n      swap1\n      tag_62\n      swap2\n      swap1\n      tag_33\n      jump\t// in\n    tag_62:\n      tag_63\n      jump\t// in\n    tag_61:\n      stop\n        /* \"aquo/aquooracle.sol\":3794:3961  function setFeeInHundredthsOfLink(uint256 _feeInHundredthsOfLink) public onlyOwner {... */\n    tag_16:\n      tag_64\n      0x04\n      dup1\n      calldatasize\n      sub\n      dup2\n      add\n      swap1\n      tag_65\n      swap2\n      swap1\n      tag_59\n      jump\t// in\n    tag_65:\n      tag_66\n      jump\t// in\n    tag_64:\n      stop\n        /* \"aquo/aquooracle.sol\":3424:3530  function setJobId(string memory _jobId) public onlyOwner {... */\n    tag_23:\n        /* \"@chainlink/contracts/src/v0.8/ConfirmedOwnerWithProposal.sol\":1956:1976  _validateOwnership() */\n      tag_68\n        /* \"@chainlink/contracts/src/v0.8/ConfirmedOwnerWithProposal.sol\":1956:1974  _validateOwnership */\n      tag_69\n        /* \"@chainlink/contracts/src/v0.8/ConfirmedOwnerWithProposal.sol\":1956:1976  _validateOwnership() */\n      jump\t// in\n    tag_68:\n        /* \"aquo/aquooracle.sol\":3514:3520  _jobId */\n      dup1\n        /* \"aquo/aquooracle.sol\":3500:3522  bytes32(bytes(_jobId)) */\n      tag_71\n      swap1\n      tag_72\n      jump\t// in\n    tag_71:\n        /* \"aquo/aquooracle.sol\":3492:3497  jobId */\n      0x09\n        /* \"aquo/aquooracle.sol\":3492:3522  jobId = bytes32(bytes(_jobId)) */\n      dup2\n      swap1\n      sstore\n      pop\n        /* \"aquo/aquooracle.sol\":3424:3530  function setJobId(string memory _jobId) public onlyOwner {... */\n      pop\n      jump\t// out\n        /* \"aquo/aquooracle.sol\":1029:2502  function request(string memory identifier) public {... */\n    tag_26:\n        /* \"aquo/aquooracle.sol\":1096:1124  Chainlink.Request memory req */\n      0x00\n        /* \"aquo/aquooracle.sol\":1127:1177  buildOperatorRequest(jobId, this.fulfill.selector) */\n      tag_74\n        /* \"aquo/aquooracle.sol\":1148:1153  jobId */\n      sload(0x09)\n        /* \"aquo/aquooracle.sol\":1155:1176  this.fulfill.selector */\n      shl(0xe0, 0x4357855e)\n        /* \"aquo/aquooracle.sol\":1127:1147  buildOperatorRequest */\n      tag_75\n        /* \"aquo/aquooracle.sol\":1127:1177  buildOperatorRequest(jobId, this.fulfill.selector) */\n      jump\t// in\n    tag_74:\n        /* \"aquo/aquooracle.sol\":1096:1177  Chainlink.Request memory req = buildOperatorRequest(jobId, this.fulfill.selector) */\n      swap1\n      pop\n        /* \"aquo/aquooracle.sol\":1198:1219  string memory baseURL */\n      0x00\n        /* \"aquo/aquooracle.sol\":1198:1258  string memory baseURL = \"https://peacioapi.com:3002/getRwa/\" */\n      mload(0x40)\n      dup1\n      0x60\n      add\n      0x40\n      mstore\n      dup1\n      0x22\n      dup2\n      mstore\n      0x20\n      add\n      data_a917319d0c16ba4cac932157b59744b1249a2b13dba6ee56adc014a26fe2bb82\n      0x22\n      swap2\n      codecopy\n      swap1\n      pop\n        /* \"aquo/aquooracle.sol\":1269:1290  string memory fullURL */\n      0x00\n        /* \"aquo/aquooracle.sol\":1317:1324  baseURL */\n      dup2\n        /* \"aquo/aquooracle.sol\":1326:1336  identifier */\n      dup5\n        /* \"aquo/aquooracle.sol\":1300:1337  abi.encodePacked(baseURL, identifier) */\n      add(0x20, mload(0x40))\n      tag_76\n      swap3\n      swap2\n      swap1\n      tag_77\n      jump\t// in\n    tag_76:\n      mload(0x40)\n      0x20\n      dup2\n      dup4\n      sub\n      sub\n      dup2\n      mstore\n      swap1\n      0x40\n      mstore\n        /* \"aquo/aquooracle.sol\":1269:1338  string memory fullURL = string(abi.encodePacked(baseURL, identifier)) */\n      swap1\n      pop\n        /* \"aquo/aquooracle.sol\":1403:1427  req.add('method', 'GET') */\n      tag_78\n      mload(0x40)\n      dup1\n      0x40\n      add\n      0x40\n      mstore\n      dup1\n      0x06\n      dup2\n      mstore\n      0x20\n      add\n      0x6d6574686f640000000000000000000000000000000000000000000000000000\n      dup2\n      mstore\n      pop\n      mload(0x40)\n      dup1\n      0x40\n      add\n      0x40\n      mstore\n      dup1\n      0x03\n      dup2\n      mstore\n      0x20\n      add\n      0x4745540000000000000000000000000000000000000000000000000000000000\n      dup2\n      mstore\n      pop\n        /* \"aquo/aquooracle.sol\":1403:1406  req */\n      dup6\n        /* \"aquo/aquooracle.sol\":1403:1410  req.add */\n      tag_79\n      swap1\n        /* \"aquo/aquooracle.sol\":1403:1427  req.add('method', 'GET') */\n      swap3\n      swap2\n      swap1\n      0xffffffff\n      and\n      jump\t// in\n    tag_78:\n        /* \"aquo/aquooracle.sol\":1438:1461  req.add('url', fullURL) */\n      tag_80\n      mload(0x40)\n      dup1\n      0x40\n      add\n      0x40\n      mstore\n      dup1\n      0x03\n      dup2\n      mstore\n      0x20\n      add\n      0x75726c0000000000000000000000000000000000000000000000000000000000\n      dup2\n      mstore\n      pop\n        /* \"aquo/aquooracle.sol\":1453:1460  fullURL */\n      dup3\n        /* \"aquo/aquooracle.sol\":1438:1441  req */\n      dup6\n        /* \"aquo/aquooracle.sol\":1438:1445  req.add */\n      tag_79\n      swap1\n        /* \"aquo/aquooracle.sol\":1438:1461  req.add('url', fullURL) */\n      swap3\n      swap2\n      swap1\n      0xffffffff\n      and\n      jump\t// in\n    tag_80:\n        /* \"aquo/aquooracle.sol\":1472:1530  req.add('headers', '[\"content-type\", \"application/json\"]') */\n      tag_81\n      mload(0x40)\n      dup1\n      0x40\n      add\n      0x40\n      mstore\n      dup1\n      0x07\n      dup2\n      mstore\n      0x20\n      add\n      0x6865616465727300000000000000000000000000000000000000000000000000\n      dup2\n      mstore\n      pop\n      mload(0x40)\n      dup1\n      0x60\n      add\n      0x40\n      mstore\n      dup1\n      0x24\n      dup2\n      mstore\n      0x20\n      add\n      data_afbd8fb867d177e51da50dde301b1bc19bcbc4086107da2adefc8c4bcdba802d\n      0x24\n      swap2\n      codecopy\n        /* \"aquo/aquooracle.sol\":1472:1475  req */\n      dup6\n        /* \"aquo/aquooracle.sol\":1472:1479  req.add */\n      tag_79\n      swap1\n        /* \"aquo/aquooracle.sol\":1472:1530  req.add('headers', '[\"content-type\", \"application/json\"]') */\n      swap3\n      swap2\n      swap1\n      0xffffffff\n      and\n      jump\t// in\n    tag_81:\n        /* \"aquo/aquooracle.sol\":1541:1560  req.add('body', '') */\n      tag_82\n      mload(0x40)\n      dup1\n      0x40\n      add\n      0x40\n      mstore\n      dup1\n      0x04\n      dup2\n      mstore\n      0x20\n      add\n      0x626f647900000000000000000000000000000000000000000000000000000000\n      dup2\n      mstore\n      pop\n      mload(0x40)\n      dup1\n      0x20\n      add\n      0x40\n      mstore\n      dup1\n      0x00\n      dup2\n      mstore\n      pop\n        /* \"aquo/aquooracle.sol\":1541:1544  req */\n      dup6\n        /* \"aquo/aquooracle.sol\":1541:1548  req.add */\n      tag_79\n      swap1\n        /* \"aquo/aquooracle.sol\":1541:1560  req.add('body', '') */\n      swap3\n      swap2\n      swap1\n      0xffffffff\n      and\n      jump\t// in\n    tag_82:\n        /* \"aquo/aquooracle.sol\":1571:1593  req.add('contact', '') */\n      tag_83\n      mload(0x40)\n      dup1\n      0x40\n      add\n      0x40\n      mstore\n      dup1\n      0x07\n      dup2\n      mstore\n      0x20\n      add\n      0x636f6e7461637400000000000000000000000000000000000000000000000000\n      dup2\n      mstore\n      pop\n      mload(0x40)\n      dup1\n      0x20\n      add\n      0x40\n      mstore\n      dup1\n      0x00\n      dup2\n      mstore\n      pop\n        /* \"aquo/aquooracle.sol\":1571:1574  req */\n      dup6\n        /* \"aquo/aquooracle.sol\":1571:1578  req.add */\n      tag_79\n      swap1\n        /* \"aquo/aquooracle.sol\":1571:1593  req.add('contact', '') */\n      swap3\n      swap2\n      swap1\n      0xffffffff\n      and\n      jump\t// in\n    tag_83:\n        /* \"aquo/aquooracle.sol\":2247:2274  req.add('path', 'rwaPrice') */\n      tag_84\n      mload(0x40)\n      dup1\n      0x40\n      add\n      0x40\n      mstore\n      dup1\n      0x04\n      dup2\n      mstore\n      0x20\n      add\n      0x7061746800000000000000000000000000000000000000000000000000000000\n      dup2\n      mstore\n      pop\n      mload(0x40)\n      dup1\n      0x40\n      add\n      0x40\n      mstore\n      dup1\n      0x08\n      dup2\n      mstore\n      0x20\n      add\n      0x7277615072696365000000000000000000000000000000000000000000000000\n      dup2\n      mstore\n      pop\n        /* \"aquo/aquooracle.sol\":2247:2250  req */\n      dup6\n        /* \"aquo/aquooracle.sol\":2247:2254  req.add */\n      tag_79\n      swap1\n        /* \"aquo/aquooracle.sol\":2247:2274  req.add('path', 'rwaPrice') */\n      swap3\n      swap2\n      swap1\n      0xffffffff\n      and\n      jump\t// in\n    tag_84:\n        /* \"aquo/aquooracle.sol\":2357:2391  req.addInt('multiplier', 10 ** 18) */\n      tag_85\n      mload(0x40)\n      dup1\n      0x40\n      add\n      0x40\n      mstore\n      dup1\n      0x0a\n      dup2\n      mstore\n      0x20\n      add\n      0x6d756c7469706c69657200000000000000000000000000000000000000000000\n      dup2\n      mstore\n      pop\n        /* \"aquo/aquooracle.sol\":2382:2390  10 ** 18 */\n      0x0de0b6b3a7640000\n        /* \"aquo/aquooracle.sol\":2357:2360  req */\n      dup6\n        /* \"aquo/aquooracle.sol\":2357:2367  req.addInt */\n      tag_86\n      swap1\n        /* \"aquo/aquooracle.sol\":2357:2391  req.addInt('multiplier', 10 ** 18) */\n      swap3\n      swap2\n      swap1\n      0xffffffff\n      and\n      jump\t// in\n    tag_85:\n        /* \"aquo/aquooracle.sol\":2465:2494  sendOperatorRequest(req, fee) */\n      tag_87\n        /* \"aquo/aquooracle.sol\":2485:2488  req */\n      dup4\n        /* \"aquo/aquooracle.sol\":2490:2493  fee */\n      sload(0x0a)\n        /* \"aquo/aquooracle.sol\":2465:2484  sendOperatorRequest */\n      tag_88\n        /* \"aquo/aquooracle.sol\":2465:2494  sendOperatorRequest(req, fee) */\n      jump\t// in\n    tag_87:\n      pop\n        /* \"aquo/aquooracle.sol\":1079:2502  {... */\n      pop\n      pop\n      pop\n        /* \"aquo/aquooracle.sol\":1029:2502  function request(string memory identifier) public {... */\n      pop\n      jump\t// out\n        /* \"aquo/aquooracle.sol\":2659:3083  function fulfill(bytes32 requestId, uint256 data) public recordChainlinkFulfillment(requestId) {... */\n    tag_30:\n        /* \"aquo/aquooracle.sol\":2743:2752  requestId */\n      dup2\n        /* \"@chainlink/contracts/src/v0.8/ChainlinkClient.sol\":11672:11689  s_pendingRequests */\n      0x05\n        /* \"@chainlink/contracts/src/v0.8/ChainlinkClient.sol\":11672:11700  s_pendingRequests[requestId] */\n      0x00\n        /* \"@chainlink/contracts/src/v0.8/ChainlinkClient.sol\":11690:11699  requestId */\n      dup3\n        /* \"@chainlink/contracts/src/v0.8/ChainlinkClient.sol\":11672:11700  s_pendingRequests[requestId] */\n      dup2\n      mstore\n      0x20\n      add\n      swap1\n      dup2\n      mstore\n      0x20\n      add\n      0x00\n      keccak256\n      0x00\n      swap1\n      sload\n      swap1\n      0x0100\n      exp\n      swap1\n      div\n      0xffffffffffffffffffffffffffffffffffffffff\n      and\n        /* \"@chainlink/contracts/src/v0.8/ChainlinkClient.sol\":11658:11700  msg.sender == s_pendingRequests[requestId] */\n      0xffffffffffffffffffffffffffffffffffffffff\n      and\n        /* \"@chainlink/contracts/src/v0.8/ChainlinkClient.sol\":11658:11668  msg.sender */\n      caller\n        /* \"@chainlink/contracts/src/v0.8/ChainlinkClient.sol\":11658:11700  msg.sender == s_pendingRequests[requestId] */\n      0xffffffffffffffffffffffffffffffffffffffff\n      and\n      eq\n        /* \"@chainlink/contracts/src/v0.8/ChainlinkClient.sol\":11650:11745  require(msg.sender == s_pendingRequests[requestId], \"Source must be the oracle of the request\") */\n      tag_90\n      jumpi\n      mload(0x40)\n      0x08c379a000000000000000000000000000000000000000000000000000000000\n      dup2\n      mstore\n      0x04\n      add\n      tag_91\n      swap1\n      tag_92\n      jump\t// in\n    tag_91:\n      mload(0x40)\n      dup1\n      swap2\n      sub\n      swap1\n      revert\n    tag_90:\n        /* \"@chainlink/contracts/src/v0.8/ChainlinkClient.sol\":11758:11775  s_pendingRequests */\n      0x05\n        /* \"@chainlink/contracts/src/v0.8/ChainlinkClient.sol\":11758:11786  s_pendingRequests[requestId] */\n      0x00\n        /* \"@chainlink/contracts/src/v0.8/ChainlinkClient.sol\":11776:11785  requestId */\n      dup3\n        /* \"@chainlink/contracts/src/v0.8/ChainlinkClient.sol\":11758:11786  s_pendingRequests[requestId] */\n      dup2\n      mstore\n      0x20\n      add\n      swap1\n      dup2\n      mstore\n      0x20\n      add\n      0x00\n      keccak256\n      0x00\n        /* \"@chainlink/contracts/src/v0.8/ChainlinkClient.sol\":11751:11786  delete s_pendingRequests[requestId] */\n      0x0100\n      exp\n      dup2\n      sload\n      swap1\n      0xffffffffffffffffffffffffffffffffffffffff\n      mul\n      not\n      and\n      swap1\n      sstore\n        /* \"@chainlink/contracts/src/v0.8/ChainlinkClient.sol\":11816:11825  requestId */\n      dup1\n        /* \"@chainlink/contracts/src/v0.8/ChainlinkClient.sol\":11797:11826  ChainlinkFulfilled(requestId) */\n      0x7cc135e0cebb02c3480ae5d74d377283180a2601f8f644edf7987b009316c63a\n      mload(0x40)\n      mload(0x40)\n      dup1\n      swap2\n      sub\n      swap1\n      log2\n        /* \"aquo/aquooracle.sol\":2985:2989  data */\n      dup2\n        /* \"aquo/aquooracle.sol\":2974:2982  response */\n      0x0b\n        /* \"aquo/aquooracle.sol\":2974:2989  response = data */\n      dup2\n      swap1\n      sstore\n      pop\n        /* \"aquo/aquooracle.sol\":2659:3083  function fulfill(bytes32 requestId, uint256 data) public recordChainlinkFulfillment(requestId) {... */\n      pop\n      pop\n      pop\n      jump\t// out\n        /* \"aquo/aquooracle.sol\":3121:3282  function setOracleAddress(address _oracleAddress) public onlyOwner {... */\n    tag_34:\n        /* \"@chainlink/contracts/src/v0.8/ConfirmedOwnerWithProposal.sol\":1956:1976  _validateOwnership() */\n      tag_95\n        /* \"@chainlink/contracts/src/v0.8/ConfirmedOwnerWithProposal.sol\":1956:1974  _validateOwnership */\n      tag_69\n        /* \"@chainlink/contracts/src/v0.8/ConfirmedOwnerWithProposal.sol\":1956:1976  _validateOwnership() */\n      jump\t// in\n    tag_95:\n        /* \"aquo/aquooracle.sol\":3215:3229  _oracleAddress */\n      dup1\n        /* \"aquo/aquooracle.sol\":3199:3212  oracleAddress */\n      0x08\n      0x00\n        /* \"aquo/aquooracle.sol\":3199:3229  oracleAddress = _oracleAddress */\n      0x0100\n      exp\n      dup2\n      sload\n      dup2\n      0xffffffffffffffffffffffffffffffffffffffff\n      mul\n      not\n      and\n      swap1\n      dup4\n      0xffffffffffffffffffffffffffffffffffffffff\n      and\n      mul\n      or\n      swap1\n      sstore\n      pop\n        /* \"aquo/aquooracle.sol\":3240:3274  setChainlinkOracle(_oracleAddress) */\n      tag_97\n        /* \"aquo/aquooracle.sol\":3259:3273  _oracleAddress */\n      dup2\n        /* \"aquo/aquooracle.sol\":3240:3258  setChainlinkOracle */\n      tag_98\n        /* \"aquo/aquooracle.sol\":3240:3274  setChainlinkOracle(_oracleAddress) */\n      jump\t// in\n    tag_97:\n        /* \"aquo/aquooracle.sol\":3121:3282  function setOracleAddress(address _oracleAddress) public onlyOwner {... */\n      pop\n      jump\t// out\n        /* \"aquo/aquooracle.sol\":3967:4100  function getFeeInHundredthsOfLink() public view onlyOwner returns (uint256) {... */\n    tag_36:\n        /* \"aquo/aquooracle.sol\":4034:4041  uint256 */\n      0x00\n        /* \"@chainlink/contracts/src/v0.8/ConfirmedOwnerWithProposal.sol\":1956:1976  _validateOwnership() */\n      tag_100\n        /* \"@chainlink/contracts/src/v0.8/ConfirmedOwnerWithProposal.sol\":1956:1974  _validateOwnership */\n      tag_69\n        /* \"@chainlink/contracts/src/v0.8/ConfirmedOwnerWithProposal.sol\":1956:1976  _validateOwnership() */\n      jump\t// in\n    tag_100:\n        /* \"@chainlink/contracts/src/v0.8/ChainlinkClient.sol\":682:690  10 ** 18 */\n      0x0de0b6b3a7640000\n        /* \"aquo/aquooracle.sol\":4068:4071  100 */\n      0x64\n        /* \"aquo/aquooracle.sol\":4062:4065  fee */\n      sload(0x0a)\n        /* \"aquo/aquooracle.sol\":4062:4071  fee * 100 */\n      tag_102\n      swap2\n      swap1\n      tag_103\n      jump\t// in\n    tag_102:\n        /* \"aquo/aquooracle.sol\":4061:4092  (fee * 100) / LINK_DIVISIBILITY */\n      tag_104\n      swap2\n      swap1\n      tag_105\n      jump\t// in\n    tag_104:\n        /* \"aquo/aquooracle.sol\":4054:4092  return (fee * 100) / LINK_DIVISIBILITY */\n      swap1\n      pop\n        /* \"aquo/aquooracle.sol\":3967:4100  function getFeeInHundredthsOfLink() public view onlyOwner returns (uint256) {... */\n      swap1\n      jump\t// out\n        /* \"@chainlink/contracts/src/v0.8/ConfirmedOwnerWithProposal.sol\":1016:1281  function acceptOwnership() external override {... */\n    tag_40:\n        /* \"@chainlink/contracts/src/v0.8/ConfirmedOwnerWithProposal.sol\":1089:1103  s_pendingOwner */\n      0x07\n      0x00\n      swap1\n      sload\n      swap1\n      0x0100\n      exp\n      swap1\n      div\n      0xffffffffffffffffffffffffffffffffffffffff\n      and\n        /* \"@chainlink/contracts/src/v0.8/ConfirmedOwnerWithProposal.sol\":1075:1103  msg.sender == s_pendingOwner */\n      0xffffffffffffffffffffffffffffffffffffffff\n      and\n        /* \"@chainlink/contracts/src/v0.8/ConfirmedOwnerWithProposal.sol\":1075:1085  msg.sender */\n      caller\n        /* \"@chainlink/contracts/src/v0.8/ConfirmedOwnerWithProposal.sol\":1075:1103  msg.sender == s_pendingOwner */\n      0xffffffffffffffffffffffffffffffffffffffff\n      and\n      eq\n        /* \"@chainlink/contracts/src/v0.8/ConfirmedOwnerWithProposal.sol\":1067:1130  require(msg.sender == s_pendingOwner, \"Must be proposed owner\") */\n      tag_107\n      jumpi\n      mload(0x40)\n      0x08c379a000000000000000000000000000000000000000000000000000000000\n      dup2\n      mstore\n      0x04\n      add\n      tag_108\n      swap1\n      tag_109\n      jump\t// in\n    tag_108:\n      mload(0x40)\n      dup1\n      swap2\n      sub\n      swap1\n      revert\n    tag_107:\n        /* \"@chainlink/contracts/src/v0.8/ConfirmedOwnerWithProposal.sol\":1137:1153  address oldOwner */\n      0x00\n        /* \"@chainlink/contracts/src/v0.8/ConfirmedOwnerWithProposal.sol\":1156:1163  s_owner */\n      0x06\n      0x00\n      swap1\n      sload\n      swap1\n      0x0100\n      exp\n      swap1\n      div\n      0xffffffffffffffffffffffffffffffffffffffff\n      and\n        /* \"@chainlink/contracts/src/v0.8/ConfirmedOwnerWithProposal.sol\":1137:1163  address oldOwner = s_owner */\n      swap1\n      pop\n        /* \"@chainlink/contracts/src/v0.8/ConfirmedOwnerWithProposal.sol\":1179:1189  msg.sender */\n      caller\n        /* \"@chainlink/contracts/src/v0.8/ConfirmedOwnerWithProposal.sol\":1169:1176  s_owner */\n      0x06\n      0x00\n        /* \"@chainlink/contracts/src/v0.8/ConfirmedOwnerWithProposal.sol\":1169:1189  s_owner = msg.sender */\n      0x0100\n      exp\n      dup2\n      sload\n      dup2\n      0xffffffffffffffffffffffffffffffffffffffff\n      mul\n      not\n      and\n      swap1\n      dup4\n      0xffffffffffffffffffffffffffffffffffffffff\n      and\n      mul\n      or\n      swap1\n      sstore\n      pop\n        /* \"@chainlink/contracts/src/v0.8/ConfirmedOwnerWithProposal.sol\":1220:1221  0 */\n      0x00\n        /* \"@chainlink/contracts/src/v0.8/ConfirmedOwnerWithProposal.sol\":1195:1209  s_pendingOwner */\n      0x07\n      0x00\n        /* \"@chainlink/contracts/src/v0.8/ConfirmedOwnerWithProposal.sol\":1195:1222  s_pendingOwner = address(0) */\n      0x0100\n      exp\n      dup2\n      sload\n      dup2\n      0xffffffffffffffffffffffffffffffffffffffff\n      mul\n      not\n      and\n      swap1\n      dup4\n      0xffffffffffffffffffffffffffffffffffffffff\n      and\n      mul\n      or\n      swap1\n      sstore\n      pop\n        /* \"@chainlink/contracts/src/v0.8/ConfirmedOwnerWithProposal.sol\":1265:1275  msg.sender */\n      caller\n        /* \"@chainlink/contracts/src/v0.8/ConfirmedOwnerWithProposal.sol\":1234:1276  OwnershipTransferred(oldOwner, msg.sender) */\n      0xffffffffffffffffffffffffffffffffffffffff\n      and\n        /* \"@chainlink/contracts/src/v0.8/ConfirmedOwnerWithProposal.sol\":1255:1263  oldOwner */\n      dup2\n        /* \"@chainlink/contracts/src/v0.8/ConfirmedOwnerWithProposal.sol\":1234:1276  OwnershipTransferred(oldOwner, msg.sender) */\n      0xffffffffffffffffffffffffffffffffffffffff\n      and\n      0x8be0079c531659141344cd1fd0a4f28419497f9722a3daafe3b4186f6b6457e0\n      mload(0x40)\n      mload(0x40)\n      dup1\n      swap2\n      sub\n      swap1\n      log3\n        /* \"@chainlink/contracts/src/v0.8/ConfirmedOwnerWithProposal.sol\":1061:1281  {... */\n      pop\n        /* \"@chainlink/contracts/src/v0.8/ConfirmedOwnerWithProposal.sol\":1016:1281  function acceptOwnership() external override {... */\n      jump\t// out\n        /* \"aquo/aquooracle.sol\":2510:2533  uint256 public response */\n    tag_42:\n      sload(0x0b)\n      dup2\n      jump\t// out\n        /* \"@chainlink/contracts/src/v0.8/ConfirmedOwnerWithProposal.sol\":1332:1413  function owner() public view override returns (address) {... */\n    tag_45:\n        /* \"@chainlink/contracts/src/v0.8/ConfirmedOwnerWithProposal.sol\":1379:1386  address */\n      0x00\n        /* \"@chainlink/contracts/src/v0.8/ConfirmedOwnerWithProposal.sol\":1401:1408  s_owner */\n      0x06\n      0x00\n      swap1\n      sload\n      swap1\n      0x0100\n      exp\n      swap1\n      div\n      0xffffffffffffffffffffffffffffffffffffffff\n      and\n        /* \"@chainlink/contracts/src/v0.8/ConfirmedOwnerWithProposal.sol\":1394:1408  return s_owner */\n      swap1\n      pop\n        /* \"@chainlink/contracts/src/v0.8/ConfirmedOwnerWithProposal.sol\":1332:1413  function owner() public view override returns (address) {... */\n      swap1\n      jump\t// out\n        /* \"aquo/aquooracle.sol\":4110:4374  function withdrawLink() public onlyOwner {... */\n    tag_49:\n        /* \"@chainlink/contracts/src/v0.8/ConfirmedOwnerWithProposal.sol\":1956:1976  _validateOwnership() */\n      tag_112\n        /* \"@chainlink/contracts/src/v0.8/ConfirmedOwnerWithProposal.sol\":1956:1974  _validateOwnership */\n      tag_69\n        /* \"@chainlink/contracts/src/v0.8/ConfirmedOwnerWithProposal.sol\":1956:1976  _validateOwnership() */\n      jump\t// in\n    tag_112:\n        /* \"aquo/aquooracle.sol\":4162:4185  LinkTokenInterface link */\n      0x00\n        /* \"aquo/aquooracle.sol\":4207:4230  chainlinkTokenAddress() */\n      tag_114\n        /* \"aquo/aquooracle.sol\":4207:4228  chainlinkTokenAddress */\n      tag_115\n        /* \"aquo/aquooracle.sol\":4207:4230  chainlinkTokenAddress() */\n      jump\t// in\n    tag_114:\n        /* \"aquo/aquooracle.sol\":4162:4231  LinkTokenInterface link = LinkTokenInterface(chainlinkTokenAddress()) */\n      swap1\n      pop\n        /* \"aquo/aquooracle.sol\":4264:4268  link */\n      dup1\n        /* \"aquo/aquooracle.sol\":4264:4277  link.transfer */\n      0xffffffffffffffffffffffffffffffffffffffff\n      and\n      0xa9059cbb\n        /* \"aquo/aquooracle.sol\":4278:4288  msg.sender */\n      caller\n        /* \"aquo/aquooracle.sol\":4290:4294  link */\n      dup4\n        /* \"aquo/aquooracle.sol\":4290:4304  link.balanceOf */\n      0xffffffffffffffffffffffffffffffffffffffff\n      and\n      0x70a08231\n        /* \"aquo/aquooracle.sol\":4313:4317  this */\n      address\n        /* \"aquo/aquooracle.sol\":4290:4319  link.balanceOf(address(this)) */\n      mload(0x40)\n      dup3\n      0xffffffff\n      and\n      0xe0\n      shl\n      dup2\n      mstore\n      0x04\n      add\n      tag_116\n      swap2\n      swap1\n      tag_47\n      jump\t// in\n    tag_116:\n      0x20\n      mload(0x40)\n      dup1\n      dup4\n      sub\n      dup2\n      dup7\n      gas\n      staticcall\n      iszero\n      dup1\n      iszero\n      tag_118\n      jumpi\n      returndatasize\n      0x00\n      dup1\n      returndatacopy\n      revert(0x00, returndatasize)\n    tag_118:\n      pop\n      pop\n      pop\n      pop\n      mload(0x40)\n      returndatasize\n      not(0x1f)\n      0x1f\n      dup3\n      add\n      and\n      dup3\n      add\n      dup1\n      0x40\n      mstore\n      pop\n      dup2\n      add\n      swap1\n      tag_119\n      swap2\n      swap1\n      tag_120\n      jump\t// in\n    tag_119:\n        /* \"aquo/aquooracle.sol\":4264:4320  link.transfer(msg.sender, link.balanceOf(address(this))) */\n      mload(0x40)\n      dup4\n      0xffffffff\n      and\n      0xe0\n      shl\n      dup2\n      mstore\n      0x04\n      add\n      tag_121\n      swap3\n      swap2\n      swap1\n      tag_122\n      jump\t// in\n    tag_121:\n      0x20\n      mload(0x40)\n      dup1\n      dup4\n      sub\n      dup2\n      0x00\n      dup8\n      gas\n      call\n      iszero\n      dup1\n      iszero\n      tag_124\n      jumpi\n      returndatasize\n      0x00\n      dup1\n      returndatacopy\n      revert(0x00, returndatasize)\n    tag_124:\n      pop\n      pop\n      pop\n      pop\n      mload(0x40)\n      returndatasize\n      not(0x1f)\n      0x1f\n      dup3\n      add\n      and\n      dup3\n      add\n      dup1\n      0x40\n      mstore\n      pop\n      dup2\n      add\n      swap1\n      tag_125\n      swap2\n      swap1\n      tag_126\n      jump\t// in\n    tag_125:\n        /* \"aquo/aquooracle.sol\":4242:4366  require(... */\n      tag_127\n      jumpi\n      mload(0x40)\n      0x08c379a000000000000000000000000000000000000000000000000000000000\n      dup2\n      mstore\n      0x04\n      add\n      tag_128\n      swap1\n      tag_129\n      jump\t// in\n    tag_128:\n      mload(0x40)\n      dup1\n      swap2\n      sub\n      swap1\n      revert\n    tag_127:\n        /* \"aquo/aquooracle.sol\":4151:4374  {... */\n      pop\n        /* \"aquo/aquooracle.sol\":4110:4374  function withdrawLink() public onlyOwner {... */\n      jump\t// out\n        /* \"aquo/aquooracle.sol\":3536:3659  function getJobId() public view onlyOwner returns (string memory) {... */\n    tag_51:\n        /* \"aquo/aquooracle.sol\":3587:3600  string memory */\n      0x60\n        /* \"@chainlink/contracts/src/v0.8/ConfirmedOwnerWithProposal.sol\":1956:1976  _validateOwnership() */\n      tag_131\n        /* \"@chainlink/contracts/src/v0.8/ConfirmedOwnerWithProposal.sol\":1956:1974  _validateOwnership */\n      tag_69\n        /* \"@chainlink/contracts/src/v0.8/ConfirmedOwnerWithProposal.sol\":1956:1976  _validateOwnership() */\n      jump\t// in\n    tag_131:\n        /* \"aquo/aquooracle.sol\":3644:3649  jobId */\n      sload(0x09)\n        /* \"aquo/aquooracle.sol\":3627:3650  abi.encodePacked(jobId) */\n      add(0x20, mload(0x40))\n      tag_133\n      swap2\n      swap1\n      tag_134\n      jump\t// in\n    tag_133:\n      mload(0x40)\n      0x20\n      dup2\n      dup4\n      sub\n      sub\n      dup2\n      mstore\n      swap1\n      0x40\n      mstore\n        /* \"aquo/aquooracle.sol\":3613:3651  return string(abi.encodePacked(jobId)) */\n      swap1\n      pop\n        /* \"aquo/aquooracle.sol\":3536:3659  function getJobId() public view onlyOwner returns (string memory) {... */\n      swap1\n      jump\t// out\n        /* \"aquo/aquooracle.sol\":3288:3395  function getOracleAddress() public view onlyOwner returns (address) {... */\n    tag_55:\n        /* \"aquo/aquooracle.sol\":3347:3354  address */\n      0x00\n        /* \"@chainlink/contracts/src/v0.8/ConfirmedOwnerWithProposal.sol\":1956:1976  _validateOwnership() */\n      tag_136\n        /* \"@chainlink/contracts/src/v0.8/ConfirmedOwnerWithProposal.sol\":1956:1974  _validateOwnership */\n      tag_69\n        /* \"@chainlink/contracts/src/v0.8/ConfirmedOwnerWithProposal.sol\":1956:1976  _validateOwnership() */\n      jump\t// in\n    tag_136:\n        /* \"aquo/aquooracle.sol\":3374:3387  oracleAddress */\n      0x08\n      0x00\n      swap1\n      sload\n      swap1\n      0x0100\n      exp\n      swap1\n      div\n      0xffffffffffffffffffffffffffffffffffffffff\n      and\n        /* \"aquo/aquooracle.sol\":3367:3387  return oracleAddress */\n      swap1\n      pop\n        /* \"aquo/aquooracle.sol\":3288:3395  function getOracleAddress() public view onlyOwner returns (address) {... */\n      swap1\n      jump\t// out\n        /* \"aquo/aquooracle.sol\":3691:3788  function setFeeInJuels(uint256 _feeInJuels) public onlyOwner {... */\n    tag_60:\n        /* \"@chainlink/contracts/src/v0.8/ConfirmedOwnerWithProposal.sol\":1956:1976  _validateOwnership() */\n      tag_139\n        /* \"@chainlink/contracts/src/v0.8/ConfirmedOwnerWithProposal.sol\":1956:1974  _validateOwnership */\n      tag_69\n        /* \"@chainlink/contracts/src/v0.8/ConfirmedOwnerWithProposal.sol\":1956:1976  _validateOwnership() */\n      jump\t// in\n    tag_139:\n        /* \"aquo/aquooracle.sol\":3769:3780  _feeInJuels */\n      dup1\n        /* \"aquo/aquooracle.sol\":3763:3766  fee */\n      0x0a\n        /* \"aquo/aquooracle.sol\":3763:3780  fee = _feeInJuels */\n      dup2\n      swap1\n      sstore\n      pop\n        /* \"aquo/aquooracle.sol\":3691:3788  function setFeeInJuels(uint256 _feeInJuels) public onlyOwner {... */\n      pop\n      jump\t// out\n        /* \"@chainlink/contracts/src/v0.8/ConfirmedOwnerWithProposal.sol\":826:924  function transferOwnership(address to) public override onlyOwner {... */\n    tag_63:\n        /* \"@chainlink/contracts/src/v0.8/ConfirmedOwnerWithProposal.sol\":1956:1976  _validateOwnership() */\n      tag_142\n        /* \"@chainlink/contracts/src/v0.8/ConfirmedOwnerWithProposal.sol\":1956:1974  _validateOwnership */\n      tag_69\n        /* \"@chainlink/contracts/src/v0.8/ConfirmedOwnerWithProposal.sol\":1956:1976  _validateOwnership() */\n      jump\t// in\n    tag_142:\n        /* \"@chainlink/contracts/src/v0.8/ConfirmedOwnerWithProposal.sol\":897:919  _transferOwnership(to) */\n      tag_144\n        /* \"@chainlink/contracts/src/v0.8/ConfirmedOwnerWithProposal.sol\":916:918  to */\n      dup2\n        /* \"@chainlink/contracts/src/v0.8/ConfirmedOwnerWithProposal.sol\":897:915  _transferOwnership */\n      tag_145\n        /* \"@chainlink/contracts/src/v0.8/ConfirmedOwnerWithProposal.sol\":897:919  _transferOwnership(to) */\n      jump\t// in\n    tag_144:\n        /* \"@chainlink/contracts/src/v0.8/ConfirmedOwnerWithProposal.sol\":826:924  function transferOwnership(address to) public override onlyOwner {... */\n      pop\n      jump\t// out\n        /* \"aquo/aquooracle.sol\":3794:3961  function setFeeInHundredthsOfLink(uint256 _feeInHundredthsOfLink) public onlyOwner {... */\n    tag_66:\n        /* \"@chainlink/contracts/src/v0.8/ConfirmedOwnerWithProposal.sol\":1956:1976  _validateOwnership() */\n      tag_147\n        /* \"@chainlink/contracts/src/v0.8/ConfirmedOwnerWithProposal.sol\":1956:1974  _validateOwnership */\n      tag_69\n        /* \"@chainlink/contracts/src/v0.8/ConfirmedOwnerWithProposal.sol\":1956:1976  _validateOwnership() */\n      jump\t// in\n    tag_147:\n        /* \"aquo/aquooracle.sol\":3888:3953  setFeeInJuels((_feeInHundredthsOfLink * LINK_DIVISIBILITY) / 100) */\n      tag_149\n        /* \"aquo/aquooracle.sol\":3949:3952  100 */\n      0x64\n        /* \"@chainlink/contracts/src/v0.8/ChainlinkClient.sol\":682:690  10 ** 18 */\n      0x0de0b6b3a7640000\n        /* \"aquo/aquooracle.sol\":3903:3925  _feeInHundredthsOfLink */\n      dup4\n        /* \"aquo/aquooracle.sol\":3903:3945  _feeInHundredthsOfLink * LINK_DIVISIBILITY */\n      tag_150\n      swap2\n      swap1\n      tag_103\n      jump\t// in\n    tag_150:\n        /* \"aquo/aquooracle.sol\":3902:3952  (_feeInHundredthsOfLink * LINK_DIVISIBILITY) / 100 */\n      tag_151\n      swap2\n      swap1\n      tag_105\n      jump\t// in\n    tag_151:\n        /* \"aquo/aquooracle.sol\":3888:3901  setFeeInJuels */\n      tag_60\n        /* \"aquo/aquooracle.sol\":3888:3953  setFeeInJuels((_feeInHundredthsOfLink * LINK_DIVISIBILITY) / 100) */\n      jump\t// in\n    tag_149:\n        /* \"aquo/aquooracle.sol\":3794:3961  function setFeeInHundredthsOfLink(uint256 _feeInHundredthsOfLink) public onlyOwner {... */\n      pop\n      jump\t// out\n        /* \"@chainlink/contracts/src/v0.8/ConfirmedOwnerWithProposal.sol\":1730:1841  function _validateOwnership() internal view {... */\n    tag_69:\n        /* \"@chainlink/contracts/src/v0.8/ConfirmedOwnerWithProposal.sol\":1802:1809  s_owner */\n      0x06\n      0x00\n      swap1\n      sload\n      swap1\n      0x0100\n      exp\n      swap1\n      div\n      0xffffffffffffffffffffffffffffffffffffffff\n      and\n        /* \"@chainlink/contracts/src/v0.8/ConfirmedOwnerWithProposal.sol\":1788:1809  msg.sender == s_owner */\n      0xffffffffffffffffffffffffffffffffffffffff\n      and\n        /* \"@chainlink/contracts/src/v0.8/ConfirmedOwnerWithProposal.sol\":1788:1798  msg.sender */\n      caller\n        /* \"@chainlink/contracts/src/v0.8/ConfirmedOwnerWithProposal.sol\":1788:1809  msg.sender == s_owner */\n      0xffffffffffffffffffffffffffffffffffffffff\n      and\n      eq\n        /* \"@chainlink/contracts/src/v0.8/ConfirmedOwnerWithProposal.sol\":1780:1836  require(msg.sender == s_owner, \"Only callable by owner\") */\n      tag_153\n      jumpi\n      mload(0x40)\n      0x08c379a000000000000000000000000000000000000000000000000000000000\n      dup2\n      mstore\n      0x04\n      add\n      tag_154\n      swap1\n      tag_155\n      jump\t// in\n    tag_154:\n      mload(0x40)\n      dup1\n      swap2\n      sub\n      swap1\n      revert\n    tag_153:\n        /* \"@chainlink/contracts/src/v0.8/ConfirmedOwnerWithProposal.sol\":1730:1841  function _validateOwnership() internal view {... */\n      jump\t// out\n        /* \"@chainlink/contracts/src/v0.8/ChainlinkClient.sol\":2437:2694  function buildOperatorRequest(... */\n    tag_75:\n        /* \"@chainlink/contracts/src/v0.8/ChainlinkClient.sol\":2552:2576  Chainlink.Request memory */\n      tag_156\n      tag_157\n      jump\t// in\n    tag_156:\n        /* \"@chainlink/contracts/src/v0.8/ChainlinkClient.sol\":2584:2612  Chainlink.Request memory req */\n      tag_159\n      tag_157\n      jump\t// in\n    tag_159:\n        /* \"@chainlink/contracts/src/v0.8/ChainlinkClient.sol\":2625:2689  req.initialize(specId, address(this), callbackFunctionSignature) */\n      tag_160\n        /* \"@chainlink/contracts/src/v0.8/ChainlinkClient.sol\":2640:2646  specId */\n      dup5\n        /* \"@chainlink/contracts/src/v0.8/ChainlinkClient.sol\":2656:2660  this */\n      address\n        /* \"@chainlink/contracts/src/v0.8/ChainlinkClient.sol\":2663:2688  callbackFunctionSignature */\n      dup6\n        /* \"@chainlink/contracts/src/v0.8/ChainlinkClient.sol\":2625:2628  req */\n      dup5\n        /* \"@chainlink/contracts/src/v0.8/ChainlinkClient.sol\":2625:2639  req.initialize */\n      tag_161\n      swap1\n        /* \"@chainlink/contracts/src/v0.8/ChainlinkClient.sol\":2625:2689  req.initialize(specId, address(this), callbackFunctionSignature) */\n      swap4\n      swap3\n      swap2\n      swap1\n      0xffffffff\n      and\n      jump\t// in\n    tag_160:\n        /* \"@chainlink/contracts/src/v0.8/ChainlinkClient.sol\":2618:2689  return req.initialize(specId, address(this), callbackFunctionSignature) */\n      swap2\n      pop\n      pop\n        /* \"@chainlink/contracts/src/v0.8/ChainlinkClient.sol\":2437:2694  function buildOperatorRequest(... */\n      swap3\n      swap2\n      pop\n      pop\n      jump\t// out\n        /* \"@chainlink/contracts/src/v0.8/Chainlink.sol\":1951:2110  function add(Request memory self, string memory key, string memory value) internal pure {... */\n    tag_79:\n        /* \"@chainlink/contracts/src/v0.8/Chainlink.sol\":2045:2071  self.buf.encodeString(key) */\n      tag_163\n        /* \"@chainlink/contracts/src/v0.8/Chainlink.sol\":2067:2070  key */\n      dup3\n        /* \"@chainlink/contracts/src/v0.8/Chainlink.sol\":2045:2049  self */\n      dup5\n        /* \"@chainlink/contracts/src/v0.8/Chainlink.sol\":2045:2053  self.buf */\n      0x80\n      add\n      mload\n        /* \"@chainlink/contracts/src/v0.8/Chainlink.sol\":2045:2066  self.buf.encodeString */\n      tag_164\n      swap1\n        /* \"@chainlink/contracts/src/v0.8/Chainlink.sol\":2045:2071  self.buf.encodeString(key) */\n      swap2\n      swap1\n      0xffffffff\n      and\n      jump\t// in\n    tag_163:\n        /* \"@chainlink/contracts/src/v0.8/Chainlink.sol\":2077:2105  self.buf.encodeString(value) */\n      tag_165\n        /* \"@chainlink/contracts/src/v0.8/Chainlink.sol\":2099:2104  value */\n      dup2\n        /* \"@chainlink/contracts/src/v0.8/Chainlink.sol\":2077:2081  self */\n      dup5\n        /* \"@chainlink/contracts/src/v0.8/Chainlink.sol\":2077:2085  self.buf */\n      0x80\n      add\n      mload\n        /* \"@chainlink/contracts/src/v0.8/Chainlink.sol\":2077:2098  self.buf.encodeString */\n      tag_164\n      swap1\n        /* \"@chainlink/contracts/src/v0.8/Chainlink.sol\":2077:2105  self.buf.encodeString(value) */\n      swap2\n      swap1\n      0xffffffff\n      and\n      jump\t// in\n    tag_165:\n        /* \"@chainlink/contracts/src/v0.8/Chainlink.sol\":1951:2110  function add(Request memory self, string memory key, string memory value) internal pure {... */\n      pop\n      pop\n      pop\n      jump\t// out\n        /* \"@chainlink/contracts/src/v0.8/Chainlink.sol\":2680:2832  function addInt(Request memory self, string memory key, int256 value) internal pure {... */\n    tag_86:\n        /* \"@chainlink/contracts/src/v0.8/Chainlink.sol\":2770:2796  self.buf.encodeString(key) */\n      tag_167\n        /* \"@chainlink/contracts/src/v0.8/Chainlink.sol\":2792:2795  key */\n      dup3\n        /* \"@chainlink/contracts/src/v0.8/Chainlink.sol\":2770:2774  self */\n      dup5\n        /* \"@chainlink/contracts/src/v0.8/Chainlink.sol\":2770:2778  self.buf */\n      0x80\n      add\n      mload\n        /* \"@chainlink/contracts/src/v0.8/Chainlink.sol\":2770:2791  self.buf.encodeString */\n      tag_164\n      swap1\n        /* \"@chainlink/contracts/src/v0.8/Chainlink.sol\":2770:2796  self.buf.encodeString(key) */\n      swap2\n      swap1\n      0xffffffff\n      and\n      jump\t// in\n    tag_167:\n        /* \"@chainlink/contracts/src/v0.8/Chainlink.sol\":2802:2827  self.buf.encodeInt(value) */\n      tag_168\n        /* \"@chainlink/contracts/src/v0.8/Chainlink.sol\":2821:2826  value */\n      dup2\n        /* \"@chainlink/contracts/src/v0.8/Chainlink.sol\":2802:2806  self */\n      dup5\n        /* \"@chainlink/contracts/src/v0.8/Chainlink.sol\":2802:2810  self.buf */\n      0x80\n      add\n      mload\n        /* \"@chainlink/contracts/src/v0.8/Chainlink.sol\":2802:2820  self.buf.encodeInt */\n      tag_169\n      swap1\n        /* \"@chainlink/contracts/src/v0.8/Chainlink.sol\":2802:2827  self.buf.encodeInt(value) */\n      swap2\n      swap1\n      0xffffffff\n      and\n      jump\t// in\n    tag_168:\n        /* \"@chainlink/contracts/src/v0.8/Chainlink.sol\":2680:2832  function addInt(Request memory self, string memory key, int256 value) internal pure {... */\n      pop\n      pop\n      pop\n      jump\t// out\n        /* \"@chainlink/contracts/src/v0.8/ChainlinkClient.sol\":4811:4986  function sendOperatorRequest(Chainlink.Request memory req, uint256 payment) internal returns (bytes32) {... */\n    tag_88:\n        /* \"@chainlink/contracts/src/v0.8/ChainlinkClient.sol\":4905:4912  bytes32 */\n      0x00\n        /* \"@chainlink/contracts/src/v0.8/ChainlinkClient.sol\":4927:4981  sendOperatorRequestTo(address(s_oracle), req, payment) */\n      tag_171\n        /* \"@chainlink/contracts/src/v0.8/ChainlinkClient.sol\":4957:4965  s_oracle */\n      0x03\n      0x00\n      swap1\n      sload\n      swap1\n      0x0100\n      exp\n      swap1\n      div\n      0xffffffffffffffffffffffffffffffffffffffff\n      and\n        /* \"@chainlink/contracts/src/v0.8/ChainlinkClient.sol\":4968:4971  req */\n      dup5\n        /* \"@chainlink/contracts/src/v0.8/ChainlinkClient.sol\":4973:4980  payment */\n      dup5\n        /* \"@chainlink/contracts/src/v0.8/ChainlinkClient.sol\":4927:4948  sendOperatorRequestTo */\n      tag_172\n        /* \"@chainlink/contracts/src/v0.8/ChainlinkClient.sol\":4927:4981  sendOperatorRequestTo(address(s_oracle), req, payment) */\n      jump\t// in\n    tag_171:\n        /* \"@chainlink/contracts/src/v0.8/ChainlinkClient.sol\":4920:4981  return sendOperatorRequestTo(address(s_oracle), req, payment) */\n      swap1\n      pop\n        /* \"@chainlink/contracts/src/v0.8/ChainlinkClient.sol\":4811:4986  function sendOperatorRequest(Chainlink.Request memory req, uint256 payment) internal returns (bytes32) {... */\n      swap3\n      swap2\n      pop\n      pop\n      jump\t// out\n        /* \"@chainlink/contracts/src/v0.8/ChainlinkClient.sol\":8398:8512  function setChainlinkOracle(address oracleAddress) internal {... */\n    tag_98:\n        /* \"@chainlink/contracts/src/v0.8/ChainlinkClient.sol\":8493:8506  oracleAddress */\n      dup1\n        /* \"@chainlink/contracts/src/v0.8/ChainlinkClient.sol\":8464:8472  s_oracle */\n      0x03\n      0x00\n        /* \"@chainlink/contracts/src/v0.8/ChainlinkClient.sol\":8464:8507  s_oracle = OperatorInterface(oracleAddress) */\n      0x0100\n      exp\n      dup2\n      sload\n      dup2\n      0xffffffffffffffffffffffffffffffffffffffff\n      mul\n      not\n      and\n      swap1\n      dup4\n      0xffffffffffffffffffffffffffffffffffffffff\n      and\n      mul\n      or\n      swap1\n      sstore\n      pop\n        /* \"@chainlink/contracts/src/v0.8/ChainlinkClient.sol\":8398:8512  function setChainlinkOracle(address oracleAddress) internal {... */\n      pop\n      jump\t// out\n        /* \"@chainlink/contracts/src/v0.8/ChainlinkClient.sol\":9105:9203  function chainlinkTokenAddress() internal view returns (address) {... */\n    tag_115:\n        /* \"@chainlink/contracts/src/v0.8/ChainlinkClient.sol\":9161:9168  address */\n      0x00\n        /* \"@chainlink/contracts/src/v0.8/ChainlinkClient.sol\":9191:9197  s_link */\n      0x02\n      0x00\n      swap1\n      sload\n      swap1\n      0x0100\n      exp\n      swap1\n      div\n      0xffffffffffffffffffffffffffffffffffffffff\n      and\n        /* \"@chainlink/contracts/src/v0.8/ChainlinkClient.sol\":9176:9198  return address(s_link) */\n      swap1\n      pop\n        /* \"@chainlink/contracts/src/v0.8/ChainlinkClient.sol\":9105:9203  function chainlinkTokenAddress() internal view returns (address) {... */\n      swap1\n      jump\t// out\n        /* \"@chainlink/contracts/src/v0.8/ConfirmedOwnerWithProposal.sol\":1497:1685  function _transferOwnership(address to) private {... */\n    tag_145:\n        /* \"@chainlink/contracts/src/v0.8/ConfirmedOwnerWithProposal.sol\":1565:1575  msg.sender */\n      caller\n        /* \"@chainlink/contracts/src/v0.8/ConfirmedOwnerWithProposal.sol\":1559:1575  to != msg.sender */\n      0xffffffffffffffffffffffffffffffffffffffff\n      and\n        /* \"@chainlink/contracts/src/v0.8/ConfirmedOwnerWithProposal.sol\":1559:1561  to */\n      dup2\n        /* \"@chainlink/contracts/src/v0.8/ConfirmedOwnerWithProposal.sol\":1559:1575  to != msg.sender */\n      0xffffffffffffffffffffffffffffffffffffffff\n      and\n      sub\n        /* \"@chainlink/contracts/src/v0.8/ConfirmedOwnerWithProposal.sol\":1551:1603  require(to != msg.sender, \"Cannot transfer to self\") */\n      tag_176\n      jumpi\n      mload(0x40)\n      0x08c379a000000000000000000000000000000000000000000000000000000000\n      dup2\n      mstore\n      0x04\n      add\n      tag_177\n      swap1\n      tag_178\n      jump\t// in\n    tag_177:\n      mload(0x40)\n      dup1\n      swap2\n      sub\n      swap1\n      revert\n    tag_176:\n        /* \"@chainlink/contracts/src/v0.8/ConfirmedOwnerWithProposal.sol\":1627:1629  to */\n      dup1\n        /* \"@chainlink/contracts/src/v0.8/ConfirmedOwnerWithProposal.sol\":1610:1624  s_pendingOwner */\n      0x07\n      0x00\n        /* \"@chainlink/contracts/src/v0.8/ConfirmedOwnerWithProposal.sol\":1610:1629  s_pendingOwner = to */\n      0x0100\n      exp\n      dup2\n      sload\n      dup2\n      0xffffffffffffffffffffffffffffffffffffffff\n      mul\n      not\n      and\n      swap1\n      dup4\n      0xffffffffffffffffffffffffffffffffffffffff\n      and\n      mul\n      or\n      swap1\n      sstore\n      pop\n        /* \"@chainlink/contracts/src/v0.8/ConfirmedOwnerWithProposal.sol\":1677:1679  to */\n      dup1\n        /* \"@chainlink/contracts/src/v0.8/ConfirmedOwnerWithProposal.sol\":1641:1680  OwnershipTransferRequested(s_owner, to) */\n      0xffffffffffffffffffffffffffffffffffffffff\n      and\n        /* \"@chainlink/contracts/src/v0.8/ConfirmedOwnerWithProposal.sol\":1668:1675  s_owner */\n      0x06\n      0x00\n      swap1\n      sload\n      swap1\n      0x0100\n      exp\n      swap1\n      div\n      0xffffffffffffffffffffffffffffffffffffffff\n      and\n        /* \"@chainlink/contracts/src/v0.8/ConfirmedOwnerWithProposal.sol\":1641:1680  OwnershipTransferRequested(s_owner, to) */\n      0xffffffffffffffffffffffffffffffffffffffff\n      and\n      0xed8889f560326eb138920d842192f0eb3dd22b4f139c87a2c57538e05bae1278\n      mload(0x40)\n      mload(0x40)\n      dup1\n      swap2\n      sub\n      swap1\n      log3\n        /* \"@chainlink/contracts/src/v0.8/ConfirmedOwnerWithProposal.sol\":1497:1685  function _transferOwnership(address to) private {... */\n      pop\n      jump\t// out\n        /* \"@chainlink/contracts/src/v0.8/Chainlink.sol\":987:1338  function initialize(... */\n    tag_161:\n        /* \"@chainlink/contracts/src/v0.8/Chainlink.sol\":1129:1153  Chainlink.Request memory */\n      tag_179\n      tag_157\n      jump\t// in\n    tag_179:\n        /* \"@chainlink/contracts/src/v0.8/Chainlink.sol\":1161:1210  BufferChainlink.init(self.buf, defaultBufferSize) */\n      tag_181\n        /* \"@chainlink/contracts/src/v0.8/Chainlink.sol\":1182:1186  self */\n      dup6\n        /* \"@chainlink/contracts/src/v0.8/Chainlink.sol\":1182:1190  self.buf */\n      0x80\n      add\n      mload\n        /* \"@chainlink/contracts/src/v0.8/Chainlink.sol\":361:364  256 */\n      0x0100\n        /* \"@chainlink/contracts/src/v0.8/Chainlink.sol\":1161:1181  BufferChainlink.init */\n      tag_182\n        /* \"@chainlink/contracts/src/v0.8/Chainlink.sol\":1161:1210  BufferChainlink.init(self.buf, defaultBufferSize) */\n      jump\t// in\n    tag_181:\n      pop\n        /* \"@chainlink/contracts/src/v0.8/Chainlink.sol\":1226:1231  jobId */\n      dup4\n        /* \"@chainlink/contracts/src/v0.8/Chainlink.sol\":1216:1220  self */\n      dup6\n        /* \"@chainlink/contracts/src/v0.8/Chainlink.sol\":1216:1223  self.id */\n      0x00\n      add\n        /* \"@chainlink/contracts/src/v0.8/Chainlink.sol\":1216:1231  self.id = jobId */\n      dup2\n      dup2\n      mstore\n      pop\n      pop\n        /* \"@chainlink/contracts/src/v0.8/Chainlink.sol\":1260:1272  callbackAddr */\n      dup3\n        /* \"@chainlink/contracts/src/v0.8/Chainlink.sol\":1237:1241  self */\n      dup6\n        /* \"@chainlink/contracts/src/v0.8/Chainlink.sol\":1237:1257  self.callbackAddress */\n      0x20\n      add\n        /* \"@chainlink/contracts/src/v0.8/Chainlink.sol\":1237:1272  self.callbackAddress = callbackAddr */\n      swap1\n      0xffffffffffffffffffffffffffffffffffffffff\n      and\n      swap1\n      dup2\n      0xffffffffffffffffffffffffffffffffffffffff\n      and\n      dup2\n      mstore\n      pop\n      pop\n        /* \"@chainlink/contracts/src/v0.8/Chainlink.sol\":1304:1316  callbackFunc */\n      dup2\n        /* \"@chainlink/contracts/src/v0.8/Chainlink.sol\":1278:1282  self */\n      dup6\n        /* \"@chainlink/contracts/src/v0.8/Chainlink.sol\":1278:1301  self.callbackFunctionId */\n      0x40\n      add\n        /* \"@chainlink/contracts/src/v0.8/Chainlink.sol\":1278:1316  self.callbackFunctionId = callbackFunc */\n      swap1\n      not(0xffffffffffffffffffffffffffffffffffffffffffffffffffffffff)\n      and\n      swap1\n      dup2\n      not(0xffffffffffffffffffffffffffffffffffffffffffffffffffffffff)\n      and\n      dup2\n      mstore\n      pop\n      pop\n        /* \"@chainlink/contracts/src/v0.8/Chainlink.sol\":1329:1333  self */\n      dup5\n        /* \"@chainlink/contracts/src/v0.8/Chainlink.sol\":1322:1333  return self */\n      swap1\n      pop\n        /* \"@chainlink/contracts/src/v0.8/Chainlink.sol\":987:1338  function initialize(... */\n      swap5\n      swap4\n      pop\n      pop\n      pop\n      pop\n      jump\t// out\n        /* \"@chainlink/contracts/src/v0.8/vendor/CBORChainlink.sol\":2777:2981  function encodeString(BufferChainlink.buffer memory buf, string memory value) internal pure {... */\n    tag_164:\n        /* \"@chainlink/contracts/src/v0.8/vendor/CBORChainlink.sol\":2875:2946  encodeFixedNumeric(buf, MAJOR_TYPE_STRING, uint64(bytes(value).length)) */\n      tag_184\n        /* \"@chainlink/contracts/src/v0.8/vendor/CBORChainlink.sol\":2894:2897  buf */\n      dup3\n        /* \"@chainlink/contracts/src/v0.8/vendor/CBORChainlink.sol\":383:384  3 */\n      0x03\n        /* \"@chainlink/contracts/src/v0.8/vendor/CBORChainlink.sol\":2931:2936  value */\n      dup4\n        /* \"@chainlink/contracts/src/v0.8/vendor/CBORChainlink.sol\":2925:2944  bytes(value).length */\n      mload\n        /* \"@chainlink/contracts/src/v0.8/vendor/CBORChainlink.sol\":2875:2893  encodeFixedNumeric */\n      tag_185\n        /* \"@chainlink/contracts/src/v0.8/vendor/CBORChainlink.sol\":2875:2946  encodeFixedNumeric(buf, MAJOR_TYPE_STRING, uint64(bytes(value).length)) */\n      jump\t// in\n    tag_184:\n        /* \"@chainlink/contracts/src/v0.8/vendor/CBORChainlink.sol\":2952:2976  buf.append(bytes(value)) */\n      tag_186\n        /* \"@chainlink/contracts/src/v0.8/vendor/CBORChainlink.sol\":2969:2974  value */\n      dup2\n        /* \"@chainlink/contracts/src/v0.8/vendor/CBORChainlink.sol\":2952:2955  buf */\n      dup4\n        /* \"@chainlink/contracts/src/v0.8/vendor/CBORChainlink.sol\":2952:2962  buf.append */\n      tag_187\n      swap1\n        /* \"@chainlink/contracts/src/v0.8/vendor/CBORChainlink.sol\":2952:2976  buf.append(bytes(value)) */\n      swap2\n      swap1\n      0xffffffff\n      and\n      jump\t// in\n    tag_186:\n      pop\n        /* \"@chainlink/contracts/src/v0.8/vendor/CBORChainlink.sol\":2777:2981  function encodeString(BufferChainlink.buffer memory buf, string memory value) internal pure {... */\n      pop\n      pop\n      jump\t// out\n        /* \"@chainlink/contracts/src/v0.8/vendor/CBORChainlink.sol\":1704:2150  function encodeInt(BufferChainlink.buffer memory buf, int value) internal pure {... */\n    tag_169:\n        /* \"@chainlink/contracts/src/v0.8/vendor/CBORChainlink.sol\":1800:1820  -0x10000000000000000 */\n      0xffffffffffffffffffffffffffffffffffffffffffffffff0000000000000000\n        /* \"@chainlink/contracts/src/v0.8/vendor/CBORChainlink.sol\":1792:1797  value */\n      dup2\n        /* \"@chainlink/contracts/src/v0.8/vendor/CBORChainlink.sol\":1792:1820  value < -0x10000000000000000 */\n      slt\n        /* \"@chainlink/contracts/src/v0.8/vendor/CBORChainlink.sol\":1789:2146  if(value < -0x10000000000000000) {... */\n      iszero\n      tag_189\n      jumpi\n        /* \"@chainlink/contracts/src/v0.8/vendor/CBORChainlink.sol\":1830:1860  encodeSignedBigNum(buf, value) */\n      tag_190\n        /* \"@chainlink/contracts/src/v0.8/vendor/CBORChainlink.sol\":1849:1852  buf */\n      dup3\n        /* \"@chainlink/contracts/src/v0.8/vendor/CBORChainlink.sol\":1854:1859  value */\n      dup3\n        /* \"@chainlink/contracts/src/v0.8/vendor/CBORChainlink.sol\":1830:1848  encodeSignedBigNum */\n      tag_191\n        /* \"@chainlink/contracts/src/v0.8/vendor/CBORChainlink.sol\":1830:1860  encodeSignedBigNum(buf, value) */\n      jump\t// in\n    tag_190:\n        /* \"@chainlink/contracts/src/v0.8/vendor/CBORChainlink.sol\":1789:2146  if(value < -0x10000000000000000) {... */\n      jump(tag_192)\n    tag_189:\n        /* \"@chainlink/contracts/src/v0.8/vendor/CBORChainlink.sol\":1884:1902  0xFFFFFFFFFFFFFFFF */\n      0xffffffffffffffff\n        /* \"@chainlink/contracts/src/v0.8/vendor/CBORChainlink.sol\":1876:1881  value */\n      dup2\n        /* \"@chainlink/contracts/src/v0.8/vendor/CBORChainlink.sol\":1876:1902  value > 0xFFFFFFFFFFFFFFFF */\n      sgt\n        /* \"@chainlink/contracts/src/v0.8/vendor/CBORChainlink.sol\":1873:2146  if(value > 0xFFFFFFFFFFFFFFFF) {... */\n      iszero\n      tag_193\n      jumpi\n        /* \"@chainlink/contracts/src/v0.8/vendor/CBORChainlink.sol\":1912:1942  encodeBigNum(buf, uint(value)) */\n      tag_194\n        /* \"@chainlink/contracts/src/v0.8/vendor/CBORChainlink.sol\":1925:1928  buf */\n      dup3\n        /* \"@chainlink/contracts/src/v0.8/vendor/CBORChainlink.sol\":1935:1940  value */\n      dup3\n        /* \"@chainlink/contracts/src/v0.8/vendor/CBORChainlink.sol\":1912:1924  encodeBigNum */\n      tag_195\n        /* \"@chainlink/contracts/src/v0.8/vendor/CBORChainlink.sol\":1912:1942  encodeBigNum(buf, uint(value)) */\n      jump\t// in\n    tag_194:\n        /* \"@chainlink/contracts/src/v0.8/vendor/CBORChainlink.sol\":1873:2146  if(value > 0xFFFFFFFFFFFFFFFF) {... */\n      jump(tag_196)\n    tag_193:\n        /* \"@chainlink/contracts/src/v0.8/vendor/CBORChainlink.sol\":1967:1968  0 */\n      0x00\n        /* \"@chainlink/contracts/src/v0.8/vendor/CBORChainlink.sol\":1958:1963  value */\n      dup2\n        /* \"@chainlink/contracts/src/v0.8/vendor/CBORChainlink.sol\":1958:1968  value >= 0 */\n      slt\n        /* \"@chainlink/contracts/src/v0.8/vendor/CBORChainlink.sol\":1955:2146  if(value >= 0) {... */\n      tag_197\n      jumpi\n        /* \"@chainlink/contracts/src/v0.8/vendor/CBORChainlink.sol\":1978:2041  encodeFixedNumeric(buf, MAJOR_TYPE_INT, uint64(uint256(value))) */\n      tag_198\n        /* \"@chainlink/contracts/src/v0.8/vendor/CBORChainlink.sol\":1997:2000  buf */\n      dup3\n        /* \"@chainlink/contracts/src/v0.8/vendor/CBORChainlink.sol\":234:235  0 */\n      0x00\n        /* \"@chainlink/contracts/src/v0.8/vendor/CBORChainlink.sol\":2033:2038  value */\n      dup4\n        /* \"@chainlink/contracts/src/v0.8/vendor/CBORChainlink.sol\":1978:1996  encodeFixedNumeric */\n      tag_185\n        /* \"@chainlink/contracts/src/v0.8/vendor/CBORChainlink.sol\":1978:2041  encodeFixedNumeric(buf, MAJOR_TYPE_INT, uint64(uint256(value))) */\n      jump\t// in\n    tag_198:\n        /* \"@chainlink/contracts/src/v0.8/vendor/CBORChainlink.sol\":1955:2146  if(value >= 0) {... */\n      jump(tag_199)\n    tag_197:\n        /* \"@chainlink/contracts/src/v0.8/vendor/CBORChainlink.sol\":2062:2139  encodeFixedNumeric(buf, MAJOR_TYPE_NEGATIVE_INT, uint64(uint256(-1 - value))) */\n      tag_200\n        /* \"@chainlink/contracts/src/v0.8/vendor/CBORChainlink.sol\":2081:2084  buf */\n      dup3\n        /* \"@chainlink/contracts/src/v0.8/vendor/CBORChainlink.sol\":288:289  1 */\n      0x01\n        /* \"@chainlink/contracts/src/v0.8/vendor/CBORChainlink.sol\":2131:2136  value */\n      dup4\n        /* \"@chainlink/contracts/src/v0.8/vendor/CBORChainlink.sol\":2126:2128  -1 */\n      0xffffffffffffffffffffffffffffffffffffffffffffffffffffffffffffffff\n        /* \"@chainlink/contracts/src/v0.8/vendor/CBORChainlink.sol\":2126:2136  -1 - value */\n      tag_201\n      swap2\n      swap1\n      tag_202\n      jump\t// in\n    tag_201:\n        /* \"@chainlink/contracts/src/v0.8/vendor/CBORChainlink.sol\":2062:2080  encodeFixedNumeric */\n      tag_185\n        /* \"@chainlink/contracts/src/v0.8/vendor/CBORChainlink.sol\":2062:2139  encodeFixedNumeric(buf, MAJOR_TYPE_NEGATIVE_INT, uint64(uint256(-1 - value))) */\n      jump\t// in\n    tag_200:\n        /* \"@chainlink/contracts/src/v0.8/vendor/CBORChainlink.sol\":1955:2146  if(value >= 0) {... */\n    tag_199:\n        /* \"@chainlink/contracts/src/v0.8/vendor/CBORChainlink.sol\":1873:2146  if(value > 0xFFFFFFFFFFFFFFFF) {... */\n    tag_196:\n        /* \"@chainlink/contracts/src/v0.8/vendor/CBORChainlink.sol\":1789:2146  if(value < -0x10000000000000000) {... */\n    tag_192:\n        /* \"@chainlink/contracts/src/v0.8/vendor/CBORChainlink.sol\":1704:2150  function encodeInt(BufferChainlink.buffer memory buf, int value) internal pure {... */\n      pop\n      pop\n      jump\t// out\n        /* \"@chainlink/contracts/src/v0.8/ChainlinkClient.sol\":5557:6287  function sendOperatorRequestTo(... */\n    tag_172:\n        /* \"@chainlink/contracts/src/v0.8/ChainlinkClient.sol\":5692:5709  bytes32 requestId */\n      0x00\n        /* \"@chainlink/contracts/src/v0.8/ChainlinkClient.sol\":5717:5730  uint256 nonce */\n      dup1\n        /* \"@chainlink/contracts/src/v0.8/ChainlinkClient.sol\":5733:5747  s_requestCount */\n      sload(0x04)\n        /* \"@chainlink/contracts/src/v0.8/ChainlinkClient.sol\":5717:5747  uint256 nonce = s_requestCount */\n      swap1\n      pop\n        /* \"@chainlink/contracts/src/v0.8/ChainlinkClient.sol\":5778:5779  1 */\n      0x01\n        /* \"@chainlink/contracts/src/v0.8/ChainlinkClient.sol\":5770:5775  nonce */\n      dup2\n        /* \"@chainlink/contracts/src/v0.8/ChainlinkClient.sol\":5770:5779  nonce + 1 */\n      tag_204\n      swap2\n      swap1\n      tag_205\n      jump\t// in\n    tag_204:\n        /* \"@chainlink/contracts/src/v0.8/ChainlinkClient.sol\":5753:5767  s_requestCount */\n      0x04\n        /* \"@chainlink/contracts/src/v0.8/ChainlinkClient.sol\":5753:5779  s_requestCount = nonce + 1 */\n      dup2\n      swap1\n      sstore\n      pop\n        /* \"@chainlink/contracts/src/v0.8/ChainlinkClient.sol\":5785:5812  bytes memory encodedRequest */\n      0x00\n        /* \"@chainlink/contracts/src/v0.8/ChainlinkClient.sol\":5845:5887  OperatorInterface.operatorRequest.selector */\n      shl(0xe0, 0x3c6d41b9)\n        /* \"@chainlink/contracts/src/v0.8/ChainlinkClient.sol\":793:794  0 */\n      0x00\n        /* \"@chainlink/contracts/src/v0.8/ChainlinkClient.sol\":737:738  0 */\n      dup1\n        /* \"@chainlink/contracts/src/v0.8/ChainlinkClient.sol\":6108:6111  req */\n      dup8\n        /* \"@chainlink/contracts/src/v0.8/ChainlinkClient.sol\":6108:6114  req.id */\n      0x00\n      add\n      mload\n        /* \"@chainlink/contracts/src/v0.8/ChainlinkClient.sol\":6122:6125  req */\n      dup9\n        /* \"@chainlink/contracts/src/v0.8/ChainlinkClient.sol\":6122:6144  req.callbackFunctionId */\n      0x40\n      add\n      mload\n        /* \"@chainlink/contracts/src/v0.8/ChainlinkClient.sol\":6152:6157  nonce */\n      dup7\n        /* \"@chainlink/contracts/src/v0.8/ChainlinkClient.sol\":900:901  2 */\n      0x02\n        /* \"@chainlink/contracts/src/v0.8/ChainlinkClient.sol\":6194:6197  req */\n      dup12\n        /* \"@chainlink/contracts/src/v0.8/ChainlinkClient.sol\":6194:6201  req.buf */\n      0x80\n      add\n      mload\n        /* \"@chainlink/contracts/src/v0.8/ChainlinkClient.sol\":6194:6205  req.buf.buf */\n      0x00\n      add\n      mload\n        /* \"@chainlink/contracts/src/v0.8/ChainlinkClient.sol\":5815:6211  abi.encodeWithSelector(... */\n      add(0x24, mload(0x40))\n      tag_206\n      swap8\n      swap7\n      swap6\n      swap5\n      swap4\n      swap3\n      swap2\n      swap1\n      tag_207\n      jump\t// in\n    tag_206:\n      mload(0x40)\n      0x20\n      dup2\n      dup4\n      sub\n      sub\n      dup2\n      mstore\n      swap1\n      0x40\n      mstore\n      swap1\n      not(0xffffffffffffffffffffffffffffffffffffffffffffffffffffffff)\n      and\n      0x20\n      dup3\n      add\n      dup1\n      mload\n      0xffffffffffffffffffffffffffffffffffffffffffffffffffffffff\n      dup4\n      dup2\n      dup4\n      and\n      or\n      dup4\n      mstore\n      pop\n      pop\n      pop\n      pop\n        /* \"@chainlink/contracts/src/v0.8/ChainlinkClient.sol\":5785:6211  bytes memory encodedRequest = abi.encodeWithSelector(... */\n      swap1\n      pop\n        /* \"@chainlink/contracts/src/v0.8/ChainlinkClient.sol\":6224:6282  _rawRequest(oracleAddress, nonce, payment, encodedRequest) */\n      tag_208\n        /* \"@chainlink/contracts/src/v0.8/ChainlinkClient.sol\":6236:6249  oracleAddress */\n      dup7\n        /* \"@chainlink/contracts/src/v0.8/ChainlinkClient.sol\":6251:6256  nonce */\n      dup4\n        /* \"@chainlink/contracts/src/v0.8/ChainlinkClient.sol\":6258:6265  payment */\n      dup7\n        /* \"@chainlink/contracts/src/v0.8/ChainlinkClient.sol\":6267:6281  encodedRequest */\n      dup5\n        /* \"@chainlink/contracts/src/v0.8/ChainlinkClient.sol\":6224:6235  _rawRequest */\n      tag_209\n        /* \"@chainlink/contracts/src/v0.8/ChainlinkClient.sol\":6224:6282  _rawRequest(oracleAddress, nonce, payment, encodedRequest) */\n      jump\t// in\n    tag_208:\n        /* \"@chainlink/contracts/src/v0.8/ChainlinkClient.sol\":6217:6282  return _rawRequest(oracleAddress, nonce, payment, encodedRequest) */\n      swap3\n      pop\n      pop\n      pop\n        /* \"@chainlink/contracts/src/v0.8/ChainlinkClient.sol\":5557:6287  function sendOperatorRequestTo(... */\n      swap4\n      swap3\n      pop\n      pop\n      pop\n      jump\t// out\n        /* \"@chainlink/contracts/src/v0.8/vendor/BufferChainlink.sol\":1001:1400  function init(buffer memory buf, uint256 capacity) internal pure returns (buffer memory) {... */\n    tag_182:\n        /* \"@chainlink/contracts/src/v0.8/vendor/BufferChainlink.sol\":1075:1088  buffer memory */\n      tag_210\n      tag_211\n      jump\t// in\n    tag_210:\n        /* \"@chainlink/contracts/src/v0.8/vendor/BufferChainlink.sol\":1117:1118  0 */\n      0x00\n        /* \"@chainlink/contracts/src/v0.8/vendor/BufferChainlink.sol\":1111:1113  32 */\n      0x20\n        /* \"@chainlink/contracts/src/v0.8/vendor/BufferChainlink.sol\":1100:1108  capacity */\n      dup4\n        /* \"@chainlink/contracts/src/v0.8/vendor/BufferChainlink.sol\":1100:1113  capacity % 32 */\n      tag_213\n      swap2\n      swap1\n      tag_214\n      jump\t// in\n    tag_213:\n        /* \"@chainlink/contracts/src/v0.8/vendor/BufferChainlink.sol\":1100:1118  capacity % 32 != 0 */\n      eq\n        /* \"@chainlink/contracts/src/v0.8/vendor/BufferChainlink.sol\":1096:1167  if (capacity % 32 != 0) {... */\n      tag_215\n      jumpi\n        /* \"@chainlink/contracts/src/v0.8/vendor/BufferChainlink.sol\":1157:1159  32 */\n      0x20\n        /* \"@chainlink/contracts/src/v0.8/vendor/BufferChainlink.sol\":1146:1154  capacity */\n      dup3\n        /* \"@chainlink/contracts/src/v0.8/vendor/BufferChainlink.sol\":1146:1159  capacity % 32 */\n      tag_216\n      swap2\n      swap1\n      tag_214\n      jump\t// in\n    tag_216:\n        /* \"@chainlink/contracts/src/v0.8/vendor/BufferChainlink.sol\":1140:1142  32 */\n      0x20\n        /* \"@chainlink/contracts/src/v0.8/vendor/BufferChainlink.sol\":1140:1160  32 - (capacity % 32) */\n      tag_217\n      swap2\n      swap1\n      tag_218\n      jump\t// in\n    tag_217:\n        /* \"@chainlink/contracts/src/v0.8/vendor/BufferChainlink.sol\":1128:1160  capacity += 32 - (capacity % 32) */\n      dup3\n      tag_219\n      swap2\n      swap1\n      tag_205\n      jump\t// in\n    tag_219:\n      swap2\n      pop\n        /* \"@chainlink/contracts/src/v0.8/vendor/BufferChainlink.sol\":1096:1167  if (capacity % 32 != 0) {... */\n    tag_215:\n        /* \"@chainlink/contracts/src/v0.8/vendor/BufferChainlink.sol\":1229:1237  capacity */\n      dup2\n        /* \"@chainlink/contracts/src/v0.8/vendor/BufferChainlink.sol\":1214:1217  buf */\n      dup4\n        /* \"@chainlink/contracts/src/v0.8/vendor/BufferChainlink.sol\":1214:1226  buf.capacity */\n      0x20\n      add\n        /* \"@chainlink/contracts/src/v0.8/vendor/BufferChainlink.sol\":1214:1237  buf.capacity = capacity */\n      dup2\n      dup2\n      mstore\n      pop\n      pop\n        /* \"@chainlink/contracts/src/v0.8/vendor/BufferChainlink.sol\":1277:1281  0x40 */\n      0x40\n        /* \"@chainlink/contracts/src/v0.8/vendor/BufferChainlink.sol\":1271:1282  mload(0x40) */\n      mload\n        /* \"@chainlink/contracts/src/v0.8/vendor/BufferChainlink.sol\":1301:1304  ptr */\n      dup1\n        /* \"@chainlink/contracts/src/v0.8/vendor/BufferChainlink.sol\":1296:1299  buf */\n      dup5\n        /* \"@chainlink/contracts/src/v0.8/vendor/BufferChainlink.sol\":1289:1305  mstore(buf, ptr) */\n      mstore\n        /* \"@chainlink/contracts/src/v0.8/vendor/BufferChainlink.sol\":1324:1325  0 */\n      0x00\n        /* \"@chainlink/contracts/src/v0.8/vendor/BufferChainlink.sol\":1319:1322  ptr */\n      dup2\n        /* \"@chainlink/contracts/src/v0.8/vendor/BufferChainlink.sol\":1312:1326  mstore(ptr, 0) */\n      mstore\n        /* \"@chainlink/contracts/src/v0.8/vendor/BufferChainlink.sol\":1363:1371  capacity */\n      dup3\n        /* \"@chainlink/contracts/src/v0.8/vendor/BufferChainlink.sol\":1358:1361  ptr */\n      dup2\n        /* \"@chainlink/contracts/src/v0.8/vendor/BufferChainlink.sol\":1354:1372  add(ptr, capacity) */\n      add\n        /* \"@chainlink/contracts/src/v0.8/vendor/BufferChainlink.sol\":1350:1352  32 */\n      0x20\n        /* \"@chainlink/contracts/src/v0.8/vendor/BufferChainlink.sol\":1346:1373  add(32, add(ptr, capacity)) */\n      add\n        /* \"@chainlink/contracts/src/v0.8/vendor/BufferChainlink.sol\":1340:1344  0x40 */\n      0x40\n        /* \"@chainlink/contracts/src/v0.8/vendor/BufferChainlink.sol\":1333:1374  mstore(0x40, add(32, add(ptr, capacity))) */\n      mstore\n        /* \"@chainlink/contracts/src/v0.8/vendor/BufferChainlink.sol\":1252:1380  {... */\n      pop\n        /* \"@chainlink/contracts/src/v0.8/vendor/BufferChainlink.sol\":1392:1395  buf */\n      dup3\n        /* \"@chainlink/contracts/src/v0.8/vendor/BufferChainlink.sol\":1385:1395  return buf */\n      swap1\n      pop\n        /* \"@chainlink/contracts/src/v0.8/vendor/BufferChainlink.sol\":1001:1400  function init(buffer memory buf, uint256 capacity) internal pure returns (buffer memory) {... */\n      swap3\n      swap2\n      pop\n      pop\n      jump\t// out\n        /* \"@chainlink/contracts/src/v0.8/vendor/CBORChainlink.sol\":682:1307  function encodeFixedNumeric(BufferChainlink.buffer memory buf, uint8 major, uint64 value) private pure {... */\n    tag_185:\n        /* \"@chainlink/contracts/src/v0.8/vendor/CBORChainlink.sol\":803:805  23 */\n      0x17\n        /* \"@chainlink/contracts/src/v0.8/vendor/CBORChainlink.sol\":794:799  value */\n      dup2\n        /* \"@chainlink/contracts/src/v0.8/vendor/CBORChainlink.sol\":794:805  value <= 23 */\n      0xffffffffffffffff\n      and\n      gt\n        /* \"@chainlink/contracts/src/v0.8/vendor/CBORChainlink.sol\":791:1303  if(value <= 23) {... */\n      tag_221\n      jumpi\n        /* \"@chainlink/contracts/src/v0.8/vendor/CBORChainlink.sol\":815:859  buf.appendUint8(uint8((major << 5) | value)) */\n      tag_222\n        /* \"@chainlink/contracts/src/v0.8/vendor/CBORChainlink.sol\":852:857  value */\n      dup2\n        /* \"@chainlink/contracts/src/v0.8/vendor/CBORChainlink.sol\":847:848  5 */\n      0x05\n        /* \"@chainlink/contracts/src/v0.8/vendor/CBORChainlink.sol\":838:843  major */\n      dup5\n        /* \"@chainlink/contracts/src/v0.8/vendor/CBORChainlink.sol\":838:848  major << 5 */\n      0xff\n      and\n      swap1\n      shl\n        /* \"@chainlink/contracts/src/v0.8/vendor/CBORChainlink.sol\":837:857  (major << 5) | value */\n      0xff\n      and\n      or\n        /* \"@chainlink/contracts/src/v0.8/vendor/CBORChainlink.sol\":815:818  buf */\n      dup5\n        /* \"@chainlink/contracts/src/v0.8/vendor/CBORChainlink.sol\":815:830  buf.appendUint8 */\n      tag_223\n      swap1\n        /* \"@chainlink/contracts/src/v0.8/vendor/CBORChainlink.sol\":815:859  buf.appendUint8(uint8((major << 5) | value)) */\n      swap2\n      swap1\n      0xffffffff\n      and\n      jump\t// in\n    tag_222:\n      pop\n        /* \"@chainlink/contracts/src/v0.8/vendor/CBORChainlink.sol\":791:1303  if(value <= 23) {... */\n      jump(tag_224)\n    tag_221:\n        /* \"@chainlink/contracts/src/v0.8/vendor/CBORChainlink.sol\":885:889  0xFF */\n      0xff\n        /* \"@chainlink/contracts/src/v0.8/vendor/CBORChainlink.sol\":876:881  value */\n      dup2\n        /* \"@chainlink/contracts/src/v0.8/vendor/CBORChainlink.sol\":876:889  value <= 0xFF */\n      0xffffffffffffffff\n      and\n      gt\n        /* \"@chainlink/contracts/src/v0.8/vendor/CBORChainlink.sol\":872:1303  if (value <= 0xFF) {... */\n      tag_225\n      jumpi\n        /* \"@chainlink/contracts/src/v0.8/vendor/CBORChainlink.sol\":899:940  buf.appendUint8(uint8((major << 5) | 24)) */\n      tag_226\n        /* \"@chainlink/contracts/src/v0.8/vendor/CBORChainlink.sol\":936:938  24 */\n      0x18\n        /* \"@chainlink/contracts/src/v0.8/vendor/CBORChainlink.sol\":931:932  5 */\n      0x05\n        /* \"@chainlink/contracts/src/v0.8/vendor/CBORChainlink.sol\":922:927  major */\n      dup5\n        /* \"@chainlink/contracts/src/v0.8/vendor/CBORChainlink.sol\":922:932  major << 5 */\n      0xff\n      and\n      swap1\n      shl\n        /* \"@chainlink/contracts/src/v0.8/vendor/CBORChainlink.sol\":921:938  (major << 5) | 24 */\n      or\n        /* \"@chainlink/contracts/src/v0.8/vendor/CBORChainlink.sol\":899:902  buf */\n      dup5\n        /* \"@chainlink/contracts/src/v0.8/vendor/CBORChainlink.sol\":899:914  buf.appendUint8 */\n      tag_223\n      swap1\n        /* \"@chainlink/contracts/src/v0.8/vendor/CBORChainlink.sol\":899:940  buf.appendUint8(uint8((major << 5) | 24)) */\n      swap2\n      swap1\n      0xffffffff\n      and\n      jump\t// in\n    tag_226:\n      pop\n        /* \"@chainlink/contracts/src/v0.8/vendor/CBORChainlink.sol\":948:971  buf.appendInt(value, 1) */\n      tag_227\n        /* \"@chainlink/contracts/src/v0.8/vendor/CBORChainlink.sol\":962:967  value */\n      dup2\n        /* \"@chainlink/contracts/src/v0.8/vendor/CBORChainlink.sol\":948:971  buf.appendInt(value, 1) */\n      0xffffffffffffffff\n      and\n        /* \"@chainlink/contracts/src/v0.8/vendor/CBORChainlink.sol\":969:970  1 */\n      0x01\n        /* \"@chainlink/contracts/src/v0.8/vendor/CBORChainlink.sol\":948:951  buf */\n      dup6\n        /* \"@chainlink/contracts/src/v0.8/vendor/CBORChainlink.sol\":948:961  buf.appendInt */\n      tag_228\n      swap1\n        /* \"@chainlink/contracts/src/v0.8/vendor/CBORChainlink.sol\":948:971  buf.appendInt(value, 1) */\n      swap3\n      swap2\n      swap1\n      0xffffffff\n      and\n      jump\t// in\n    tag_227:\n      pop\n        /* \"@chainlink/contracts/src/v0.8/vendor/CBORChainlink.sol\":872:1303  if (value <= 0xFF) {... */\n      jump(tag_229)\n    tag_225:\n        /* \"@chainlink/contracts/src/v0.8/vendor/CBORChainlink.sol\":997:1003  0xFFFF */\n      0xffff\n        /* \"@chainlink/contracts/src/v0.8/vendor/CBORChainlink.sol\":988:993  value */\n      dup2\n        /* \"@chainlink/contracts/src/v0.8/vendor/CBORChainlink.sol\":988:1003  value <= 0xFFFF */\n      0xffffffffffffffff\n      and\n      gt\n        /* \"@chainlink/contracts/src/v0.8/vendor/CBORChainlink.sol\":984:1303  if (value <= 0xFFFF) {... */\n      tag_230\n      jumpi\n        /* \"@chainlink/contracts/src/v0.8/vendor/CBORChainlink.sol\":1013:1054  buf.appendUint8(uint8((major << 5) | 25)) */\n      tag_231\n        /* \"@chainlink/contracts/src/v0.8/vendor/CBORChainlink.sol\":1050:1052  25 */\n      0x19\n        /* \"@chainlink/contracts/src/v0.8/vendor/CBORChainlink.sol\":1045:1046  5 */\n      0x05\n        /* \"@chainlink/contracts/src/v0.8/vendor/CBORChainlink.sol\":1036:1041  major */\n      dup5\n        /* \"@chainlink/contracts/src/v0.8/vendor/CBORChainlink.sol\":1036:1046  major << 5 */\n      0xff\n      and\n      swap1\n      shl\n        /* \"@chainlink/contracts/src/v0.8/vendor/CBORChainlink.sol\":1035:1052  (major << 5) | 25 */\n      or\n        /* \"@chainlink/contracts/src/v0.8/vendor/CBORChainlink.sol\":1013:1016  buf */\n      dup5\n        /* \"@chainlink/contracts/src/v0.8/vendor/CBORChainlink.sol\":1013:1028  buf.appendUint8 */\n      tag_223\n      swap1\n        /* \"@chainlink/contracts/src/v0.8/vendor/CBORChainlink.sol\":1013:1054  buf.appendUint8(uint8((major << 5) | 25)) */\n      swap2\n      swap1\n      0xffffffff\n      and\n      jump\t// in\n    tag_231:\n      pop\n        /* \"@chainlink/contracts/src/v0.8/vendor/CBORChainlink.sol\":1062:1085  buf.appendInt(value, 2) */\n      tag_232\n        /* \"@chainlink/contracts/src/v0.8/vendor/CBORChainlink.sol\":1076:1081  value */\n      dup2\n        /* \"@chainlink/contracts/src/v0.8/vendor/CBORChainlink.sol\":1062:1085  buf.appendInt(value, 2) */\n      0xffffffffffffffff\n      and\n        /* \"@chainlink/contracts/src/v0.8/vendor/CBORChainlink.sol\":1083:1084  2 */\n      0x02\n        /* \"@chainlink/contracts/src/v0.8/vendor/CBORChainlink.sol\":1062:1065  buf */\n      dup6\n        /* \"@chainlink/contracts/src/v0.8/vendor/CBORChainlink.sol\":1062:1075  buf.appendInt */\n      tag_228\n      swap1\n        /* \"@chainlink/contracts/src/v0.8/vendor/CBORChainlink.sol\":1062:1085  buf.appendInt(value, 2) */\n      swap3\n      swap2\n      swap1\n      0xffffffff\n      and\n      jump\t// in\n    tag_232:\n      pop\n        /* \"@chainlink/contracts/src/v0.8/vendor/CBORChainlink.sol\":984:1303  if (value <= 0xFFFF) {... */\n      jump(tag_233)\n    tag_230:\n        /* \"@chainlink/contracts/src/v0.8/vendor/CBORChainlink.sol\":1111:1121  0xFFFFFFFF */\n      0xffffffff\n        /* \"@chainlink/contracts/src/v0.8/vendor/CBORChainlink.sol\":1102:1107  value */\n      dup2\n        /* \"@chainlink/contracts/src/v0.8/vendor/CBORChainlink.sol\":1102:1121  value <= 0xFFFFFFFF */\n      0xffffffffffffffff\n      and\n      gt\n        /* \"@chainlink/contracts/src/v0.8/vendor/CBORChainlink.sol\":1098:1303  if (value <= 0xFFFFFFFF) {... */\n      tag_234\n      jumpi\n        /* \"@chainlink/contracts/src/v0.8/vendor/CBORChainlink.sol\":1131:1172  buf.appendUint8(uint8((major << 5) | 26)) */\n      tag_235\n        /* \"@chainlink/contracts/src/v0.8/vendor/CBORChainlink.sol\":1168:1170  26 */\n      0x1a\n        /* \"@chainlink/contracts/src/v0.8/vendor/CBORChainlink.sol\":1163:1164  5 */\n      0x05\n        /* \"@chainlink/contracts/src/v0.8/vendor/CBORChainlink.sol\":1154:1159  major */\n      dup5\n        /* \"@chainlink/contracts/src/v0.8/vendor/CBORChainlink.sol\":1154:1164  major << 5 */\n      0xff\n      and\n      swap1\n      shl\n        /* \"@chainlink/contracts/src/v0.8/vendor/CBORChainlink.sol\":1153:1170  (major << 5) | 26 */\n      or\n        /* \"@chainlink/contracts/src/v0.8/vendor/CBORChainlink.sol\":1131:1134  buf */\n      dup5\n        /* \"@chainlink/contracts/src/v0.8/vendor/CBORChainlink.sol\":1131:1146  buf.appendUint8 */\n      tag_223\n      swap1\n        /* \"@chainlink/contracts/src/v0.8/vendor/CBORChainlink.sol\":1131:1172  buf.appendUint8(uint8((major << 5) | 26)) */\n      swap2\n      swap1\n      0xffffffff\n      and\n      jump\t// in\n    tag_235:\n      pop\n        /* \"@chainlink/contracts/src/v0.8/vendor/CBORChainlink.sol\":1180:1203  buf.appendInt(value, 4) */\n      tag_236\n        /* \"@chainlink/contracts/src/v0.8/vendor/CBORChainlink.sol\":1194:1199  value */\n      dup2\n        /* \"@chainlink/contracts/src/v0.8/vendor/CBORChainlink.sol\":1180:1203  buf.appendInt(value, 4) */\n      0xffffffffffffffff\n      and\n        /* \"@chainlink/contracts/src/v0.8/vendor/CBORChainlink.sol\":1201:1202  4 */\n      0x04\n        /* \"@chainlink/contracts/src/v0.8/vendor/CBORChainlink.sol\":1180:1183  buf */\n      dup6\n        /* \"@chainlink/contracts/src/v0.8/vendor/CBORChainlink.sol\":1180:1193  buf.appendInt */\n      tag_228\n      swap1\n        /* \"@chainlink/contracts/src/v0.8/vendor/CBORChainlink.sol\":1180:1203  buf.appendInt(value, 4) */\n      swap3\n      swap2\n      swap1\n      0xffffffff\n      and\n      jump\t// in\n    tag_236:\n      pop\n        /* \"@chainlink/contracts/src/v0.8/vendor/CBORChainlink.sol\":1098:1303  if (value <= 0xFFFFFFFF) {... */\n      jump(tag_237)\n    tag_234:\n        /* \"@chainlink/contracts/src/v0.8/vendor/CBORChainlink.sol\":1224:1265  buf.appendUint8(uint8((major << 5) | 27)) */\n      tag_238\n        /* \"@chainlink/contracts/src/v0.8/vendor/CBORChainlink.sol\":1261:1263  27 */\n      0x1b\n        /* \"@chainlink/contracts/src/v0.8/vendor/CBORChainlink.sol\":1256:1257  5 */\n      0x05\n        /* \"@chainlink/contracts/src/v0.8/vendor/CBORChainlink.sol\":1247:1252  major */\n      dup5\n        /* \"@chainlink/contracts/src/v0.8/vendor/CBORChainlink.sol\":1247:1257  major << 5 */\n      0xff\n      and\n      swap1\n      shl\n        /* \"@chainlink/contracts/src/v0.8/vendor/CBORChainlink.sol\":1246:1263  (major << 5) | 27 */\n      or\n        /* \"@chainlink/contracts/src/v0.8/vendor/CBORChainlink.sol\":1224:1227  buf */\n      dup5\n        /* \"@chainlink/contracts/src/v0.8/vendor/CBORChainlink.sol\":1224:1239  buf.appendUint8 */\n      tag_223\n      swap1\n        /* \"@chainlink/contracts/src/v0.8/vendor/CBORChainlink.sol\":1224:1265  buf.appendUint8(uint8((major << 5) | 27)) */\n      swap2\n      swap1\n      0xffffffff\n      and\n      jump\t// in\n    tag_238:\n      pop\n        /* \"@chainlink/contracts/src/v0.8/vendor/CBORChainlink.sol\":1273:1296  buf.appendInt(value, 8) */\n      tag_239\n        /* \"@chainlink/contracts/src/v0.8/vendor/CBORChainlink.sol\":1287:1292  value */\n      dup2\n        /* \"@chainlink/contracts/src/v0.8/vendor/CBORChainlink.sol\":1273:1296  buf.appendInt(value, 8) */\n      0xffffffffffffffff\n      and\n        /* \"@chainlink/contracts/src/v0.8/vendor/CBORChainlink.sol\":1294:1295  8 */\n      0x08\n        /* \"@chainlink/contracts/src/v0.8/vendor/CBORChainlink.sol\":1273:1276  buf */\n      dup6\n        /* \"@chainlink/contracts/src/v0.8/vendor/CBORChainlink.sol\":1273:1286  buf.appendInt */\n      tag_228\n      swap1\n        /* \"@chainlink/contracts/src/v0.8/vendor/CBORChainlink.sol\":1273:1296  buf.appendInt(value, 8) */\n      swap3\n      swap2\n      swap1\n      0xffffffff\n      and\n      jump\t// in\n    tag_239:\n      pop\n        /* \"@chainlink/contracts/src/v0.8/vendor/CBORChainlink.sol\":1098:1303  if (value <= 0xFFFFFFFF) {... */\n    tag_237:\n        /* \"@chainlink/contracts/src/v0.8/vendor/CBORChainlink.sol\":984:1303  if (value <= 0xFFFF) {... */\n    tag_233:\n        /* \"@chainlink/contracts/src/v0.8/vendor/CBORChainlink.sol\":872:1303  if (value <= 0xFF) {... */\n    tag_229:\n        /* \"@chainlink/contracts/src/v0.8/vendor/CBORChainlink.sol\":791:1303  if(value <= 23) {... */\n    tag_224:\n        /* \"@chainlink/contracts/src/v0.8/vendor/CBORChainlink.sol\":682:1307  function encodeFixedNumeric(BufferChainlink.buffer memory buf, uint8 major, uint64 value) private pure {... */\n      pop\n      pop\n      pop\n      jump\t// out\n        /* \"@chainlink/contracts/src/v0.8/vendor/BufferChainlink.sol\":4692:4847  function append(buffer memory buf, bytes memory data) internal pure returns (buffer memory) {... */\n    tag_187:\n        /* \"@chainlink/contracts/src/v0.8/vendor/BufferChainlink.sol\":4769:4782  buffer memory */\n      tag_240\n      tag_211\n      jump\t// in\n    tag_240:\n        /* \"@chainlink/contracts/src/v0.8/vendor/BufferChainlink.sol\":4797:4842  write(buf, buf.buf.length, data, data.length) */\n      tag_242\n        /* \"@chainlink/contracts/src/v0.8/vendor/BufferChainlink.sol\":4803:4806  buf */\n      dup4\n        /* \"@chainlink/contracts/src/v0.8/vendor/BufferChainlink.sol\":4808:4811  buf */\n      dup5\n        /* \"@chainlink/contracts/src/v0.8/vendor/BufferChainlink.sol\":4808:4815  buf.buf */\n      0x00\n      add\n      mload\n        /* \"@chainlink/contracts/src/v0.8/vendor/BufferChainlink.sol\":4808:4822  buf.buf.length */\n      mload\n        /* \"@chainlink/contracts/src/v0.8/vendor/BufferChainlink.sol\":4824:4828  data */\n      dup5\n        /* \"@chainlink/contracts/src/v0.8/vendor/BufferChainlink.sol\":4830:4834  data */\n      dup6\n        /* \"@chainlink/contracts/src/v0.8/vendor/BufferChainlink.sol\":4830:4841  data.length */\n      mload\n        /* \"@chainlink/contracts/src/v0.8/vendor/BufferChainlink.sol\":4797:4802  write */\n      tag_243\n        /* \"@chainlink/contracts/src/v0.8/vendor/BufferChainlink.sol\":4797:4842  write(buf, buf.buf.length, data, data.length) */\n      jump\t// in\n    tag_242:\n        /* \"@chainlink/contracts/src/v0.8/vendor/BufferChainlink.sol\":4790:4842  return write(buf, buf.buf.length, data, data.length) */\n      swap1\n      pop\n        /* \"@chainlink/contracts/src/v0.8/vendor/BufferChainlink.sol\":4692:4847  function append(buffer memory buf, bytes memory data) internal pure returns (buffer memory) {... */\n      swap3\n      swap2\n      pop\n      pop\n      jump\t// out\n        /* \"@chainlink/contracts/src/v0.8/vendor/CBORChainlink.sol\":2547:2773  function encodeSignedBigNum(BufferChainlink.buffer memory buf, int input) internal pure {... */\n    tag_191:\n        /* \"@chainlink/contracts/src/v0.8/vendor/CBORChainlink.sol\":2641:2713  buf.appendUint8(uint8((MAJOR_TYPE_TAG << 5) | TAG_TYPE_NEGATIVE_BIGNUM)) */\n      tag_245\n        /* \"@chainlink/contracts/src/v0.8/vendor/CBORChainlink.sol\":676:677  3 */\n      0x03\n        /* \"@chainlink/contracts/src/v0.8/vendor/CBORChainlink.sol\":2682:2683  5 */\n      0x05\n        /* \"@chainlink/contracts/src/v0.8/vendor/CBORChainlink.sol\":520:521  6 */\n      0x06\n        /* \"@chainlink/contracts/src/v0.8/vendor/CBORChainlink.sol\":2664:2683  MAJOR_TYPE_TAG << 5 */\n      0xff\n      and\n      swap1\n      shl\n        /* \"@chainlink/contracts/src/v0.8/vendor/CBORChainlink.sol\":2663:2711  (MAJOR_TYPE_TAG << 5) | TAG_TYPE_NEGATIVE_BIGNUM */\n      or\n        /* \"@chainlink/contracts/src/v0.8/vendor/CBORChainlink.sol\":2641:2644  buf */\n      dup4\n        /* \"@chainlink/contracts/src/v0.8/vendor/CBORChainlink.sol\":2641:2656  buf.appendUint8 */\n      tag_223\n      swap1\n        /* \"@chainlink/contracts/src/v0.8/vendor/CBORChainlink.sol\":2641:2713  buf.appendUint8(uint8((MAJOR_TYPE_TAG << 5) | TAG_TYPE_NEGATIVE_BIGNUM)) */\n      swap2\n      swap1\n      0xffffffff\n      and\n      jump\t// in\n    tag_245:\n      pop\n        /* \"@chainlink/contracts/src/v0.8/vendor/CBORChainlink.sol\":2719:2768  encodeBytes(buf, abi.encode(uint256(-1 - input))) */\n      tag_246\n        /* \"@chainlink/contracts/src/v0.8/vendor/CBORChainlink.sol\":2731:2734  buf */\n      dup3\n        /* \"@chainlink/contracts/src/v0.8/vendor/CBORChainlink.sol\":2760:2765  input */\n      dup3\n        /* \"@chainlink/contracts/src/v0.8/vendor/CBORChainlink.sol\":2755:2757  -1 */\n      0xffffffffffffffffffffffffffffffffffffffffffffffffffffffffffffffff\n        /* \"@chainlink/contracts/src/v0.8/vendor/CBORChainlink.sol\":2755:2765  -1 - input */\n      tag_247\n      swap2\n      swap1\n      tag_202\n      jump\t// in\n    tag_247:\n        /* \"@chainlink/contracts/src/v0.8/vendor/CBORChainlink.sol\":2736:2767  abi.encode(uint256(-1 - input)) */\n      add(0x20, mload(0x40))\n      tag_248\n      swap2\n      swap1\n      tag_38\n      jump\t// in\n    tag_248:\n      mload(0x40)\n      0x20\n      dup2\n      dup4\n      sub\n      sub\n      dup2\n      mstore\n      swap1\n      0x40\n      mstore\n        /* \"@chainlink/contracts/src/v0.8/vendor/CBORChainlink.sol\":2719:2730  encodeBytes */\n      tag_249\n        /* \"@chainlink/contracts/src/v0.8/vendor/CBORChainlink.sol\":2719:2768  encodeBytes(buf, abi.encode(uint256(-1 - input))) */\n      jump\t// in\n    tag_246:\n        /* \"@chainlink/contracts/src/v0.8/vendor/CBORChainlink.sol\":2547:2773  function encodeSignedBigNum(BufferChainlink.buffer memory buf, int input) internal pure {... */\n      pop\n      pop\n      jump\t// out\n        /* \"@chainlink/contracts/src/v0.8/vendor/CBORChainlink.sol\":2345:2543  function encodeBigNum(BufferChainlink.buffer memory buf, uint value) internal pure {... */\n    tag_195:\n        /* \"@chainlink/contracts/src/v0.8/vendor/CBORChainlink.sol\":2434:2497  buf.appendUint8(uint8((MAJOR_TYPE_TAG << 5) | TAG_TYPE_BIGNUM)) */\n      tag_251\n        /* \"@chainlink/contracts/src/v0.8/vendor/CBORChainlink.sol\":621:622  2 */\n      0x02\n        /* \"@chainlink/contracts/src/v0.8/vendor/CBORChainlink.sol\":2475:2476  5 */\n      0x05\n        /* \"@chainlink/contracts/src/v0.8/vendor/CBORChainlink.sol\":520:521  6 */\n      0x06\n        /* \"@chainlink/contracts/src/v0.8/vendor/CBORChainlink.sol\":2457:2476  MAJOR_TYPE_TAG << 5 */\n      0xff\n      and\n      swap1\n      shl\n        /* \"@chainlink/contracts/src/v0.8/vendor/CBORChainlink.sol\":2456:2495  (MAJOR_TYPE_TAG << 5) | TAG_TYPE_BIGNUM */\n      or\n        /* \"@chainlink/contracts/src/v0.8/vendor/CBORChainlink.sol\":2434:2437  buf */\n      dup4\n        /* \"@chainlink/contracts/src/v0.8/vendor/CBORChainlink.sol\":2434:2449  buf.appendUint8 */\n      tag_223\n      swap1\n        /* \"@chainlink/contracts/src/v0.8/vendor/CBORChainlink.sol\":2434:2497  buf.appendUint8(uint8((MAJOR_TYPE_TAG << 5) | TAG_TYPE_BIGNUM)) */\n      swap2\n      swap1\n      0xffffffff\n      and\n      jump\t// in\n    tag_251:\n      pop\n        /* \"@chainlink/contracts/src/v0.8/vendor/CBORChainlink.sol\":2503:2538  encodeBytes(buf, abi.encode(value)) */\n      tag_252\n        /* \"@chainlink/contracts/src/v0.8/vendor/CBORChainlink.sol\":2515:2518  buf */\n      dup3\n        /* \"@chainlink/contracts/src/v0.8/vendor/CBORChainlink.sol\":2531:2536  value */\n      dup3\n        /* \"@chainlink/contracts/src/v0.8/vendor/CBORChainlink.sol\":2520:2537  abi.encode(value) */\n      add(0x20, mload(0x40))\n      tag_253\n      swap2\n      swap1\n      tag_38\n      jump\t// in\n    tag_253:\n      mload(0x40)\n      0x20\n      dup2\n      dup4\n      sub\n      sub\n      dup2\n      mstore\n      swap1\n      0x40\n      mstore\n        /* \"@chainlink/contracts/src/v0.8/vendor/CBORChainlink.sol\":2503:2514  encodeBytes */\n      tag_249\n        /* \"@chainlink/contracts/src/v0.8/vendor/CBORChainlink.sol\":2503:2538  encodeBytes(buf, abi.encode(value)) */\n      jump\t// in\n    tag_252:\n        /* \"@chainlink/contracts/src/v0.8/vendor/CBORChainlink.sol\":2345:2543  function encodeBigNum(BufferChainlink.buffer memory buf, uint value) internal pure {... */\n      pop\n      pop\n      jump\t// out\n        /* \"@chainlink/contracts/src/v0.8/ChainlinkClient.sol\":6636:7066  function _rawRequest(... */\n    tag_209:\n        /* \"@chainlink/contracts/src/v0.8/ChainlinkClient.sol\":6778:6795  bytes32 requestId */\n      0x00\n        /* \"@chainlink/contracts/src/v0.8/ChainlinkClient.sol\":6842:6846  this */\n      address\n        /* \"@chainlink/contracts/src/v0.8/ChainlinkClient.sol\":6848:6853  nonce */\n      dup5\n        /* \"@chainlink/contracts/src/v0.8/ChainlinkClient.sol\":6825:6854  abi.encodePacked(this, nonce) */\n      add(0x20, mload(0x40))\n      tag_255\n      swap3\n      swap2\n      swap1\n      tag_256\n      jump\t// in\n    tag_255:\n      mload(0x40)\n      0x20\n      dup2\n      dup4\n      sub\n      sub\n      dup2\n      mstore\n      swap1\n      0x40\n      mstore\n        /* \"@chainlink/contracts/src/v0.8/ChainlinkClient.sol\":6815:6855  keccak256(abi.encodePacked(this, nonce)) */\n      dup1\n      mload\n      swap1\n      0x20\n      add\n      keccak256\n        /* \"@chainlink/contracts/src/v0.8/ChainlinkClient.sol\":6803:6855  requestId = keccak256(abi.encodePacked(this, nonce)) */\n      swap1\n      pop\n        /* \"@chainlink/contracts/src/v0.8/ChainlinkClient.sol\":6892:6905  oracleAddress */\n      dup5\n        /* \"@chainlink/contracts/src/v0.8/ChainlinkClient.sol\":6861:6878  s_pendingRequests */\n      0x05\n        /* \"@chainlink/contracts/src/v0.8/ChainlinkClient.sol\":6861:6889  s_pendingRequests[requestId] */\n      0x00\n        /* \"@chainlink/contracts/src/v0.8/ChainlinkClient.sol\":6879:6888  requestId */\n      dup4\n        /* \"@chainlink/contracts/src/v0.8/ChainlinkClient.sol\":6861:6889  s_pendingRequests[requestId] */\n      dup2\n      mstore\n      0x20\n      add\n      swap1\n      dup2\n      mstore\n      0x20\n      add\n      0x00\n      keccak256\n      0x00\n        /* \"@chainlink/contracts/src/v0.8/ChainlinkClient.sol\":6861:6905  s_pendingRequests[requestId] = oracleAddress */\n      0x0100\n      exp\n      dup2\n      sload\n      dup2\n      0xffffffffffffffffffffffffffffffffffffffff\n      mul\n      not\n      and\n      swap1\n      dup4\n      0xffffffffffffffffffffffffffffffffffffffff\n      and\n      mul\n      or\n      swap1\n      sstore\n      pop\n        /* \"@chainlink/contracts/src/v0.8/ChainlinkClient.sol\":6935:6944  requestId */\n      dup1\n        /* \"@chainlink/contracts/src/v0.8/ChainlinkClient.sol\":6916:6945  ChainlinkRequested(requestId) */\n      0xb5e6e01e79f91267dc17b4e6314d5d4d03593d2ceee0fbb452b750bd70ea5af9\n      mload(0x40)\n      mload(0x40)\n      dup1\n      swap2\n      sub\n      swap1\n      log2\n        /* \"@chainlink/contracts/src/v0.8/ChainlinkClient.sol\":6959:6965  s_link */\n      0x02\n      0x00\n      swap1\n      sload\n      swap1\n      0x0100\n      exp\n      swap1\n      div\n      0xffffffffffffffffffffffffffffffffffffffff\n      and\n        /* \"@chainlink/contracts/src/v0.8/ChainlinkClient.sol\":6959:6981  s_link.transferAndCall */\n      0xffffffffffffffffffffffffffffffffffffffff\n      and\n      0x4000aea0\n        /* \"@chainlink/contracts/src/v0.8/ChainlinkClient.sol\":6982:6995  oracleAddress */\n      dup7\n        /* \"@chainlink/contracts/src/v0.8/ChainlinkClient.sol\":6997:7004  payment */\n      dup6\n        /* \"@chainlink/contracts/src/v0.8/ChainlinkClient.sol\":7006:7020  encodedRequest */\n      dup6\n        /* \"@chainlink/contracts/src/v0.8/ChainlinkClient.sol\":6959:7021  s_link.transferAndCall(oracleAddress, payment, encodedRequest) */\n      mload(0x40)\n      dup5\n      0xffffffff\n      and\n      0xe0\n      shl\n      dup2\n      mstore\n      0x04\n      add\n      tag_257\n      swap4\n      swap3\n      swap2\n      swap1\n      tag_258\n      jump\t// in\n    tag_257:\n      0x20\n      mload(0x40)\n      dup1\n      dup4\n      sub\n      dup2\n      0x00\n      dup8\n      gas\n      call\n      iszero\n      dup1\n      iszero\n      tag_260\n      jumpi\n      returndatasize\n      0x00\n      dup1\n      returndatacopy\n      revert(0x00, returndatasize)\n    tag_260:\n      pop\n      pop\n      pop\n      pop\n      mload(0x40)\n      returndatasize\n      not(0x1f)\n      0x1f\n      dup3\n      add\n      and\n      dup3\n      add\n      dup1\n      0x40\n      mstore\n      pop\n      dup2\n      add\n      swap1\n      tag_261\n      swap2\n      swap1\n      tag_126\n      jump\t// in\n    tag_261:\n        /* \"@chainlink/contracts/src/v0.8/ChainlinkClient.sol\":6951:7061  require(s_link.transferAndCall(oracleAddress, payment, encodedRequest), \"unable to transferAndCall to oracle\") */\n      tag_262\n      jumpi\n      mload(0x40)\n      0x08c379a000000000000000000000000000000000000000000000000000000000\n      dup2\n      mstore\n      0x04\n      add\n      tag_263\n      swap1\n      tag_264\n      jump\t// in\n    tag_263:\n      mload(0x40)\n      dup1\n      swap2\n      sub\n      swap1\n      revert\n    tag_262:\n        /* \"@chainlink/contracts/src/v0.8/ChainlinkClient.sol\":6636:7066  function _rawRequest(... */\n      swap5\n      swap4\n      pop\n      pop\n      pop\n      pop\n      jump\t// out\n        /* \"@chainlink/contracts/src/v0.8/vendor/BufferChainlink.sol\":6040:6185  function appendUint8(buffer memory buf, uint8 data) internal pure returns (buffer memory) {... */\n    tag_223:\n        /* \"@chainlink/contracts/src/v0.8/vendor/BufferChainlink.sol\":6115:6128  buffer memory */\n      tag_265\n      tag_211\n      jump\t// in\n    tag_265:\n        /* \"@chainlink/contracts/src/v0.8/vendor/BufferChainlink.sol\":6143:6180  writeUint8(buf, buf.buf.length, data) */\n      tag_267\n        /* \"@chainlink/contracts/src/v0.8/vendor/BufferChainlink.sol\":6154:6157  buf */\n      dup4\n        /* \"@chainlink/contracts/src/v0.8/vendor/BufferChainlink.sol\":6159:6162  buf */\n      dup5\n        /* \"@chainlink/contracts/src/v0.8/vendor/BufferChainlink.sol\":6159:6166  buf.buf */\n      0x00\n      add\n      mload\n        /* \"@chainlink/contracts/src/v0.8/vendor/BufferChainlink.sol\":6159:6173  buf.buf.length */\n      mload\n        /* \"@chainlink/contracts/src/v0.8/vendor/BufferChainlink.sol\":6175:6179  data */\n      dup5\n        /* \"@chainlink/contracts/src/v0.8/vendor/BufferChainlink.sol\":6143:6153  writeUint8 */\n      tag_268\n        /* \"@chainlink/contracts/src/v0.8/vendor/BufferChainlink.sol\":6143:6180  writeUint8(buf, buf.buf.length, data) */\n      jump\t// in\n    tag_267:\n        /* \"@chainlink/contracts/src/v0.8/vendor/BufferChainlink.sol\":6136:6180  return writeUint8(buf, buf.buf.length, data) */\n      swap1\n      pop\n        /* \"@chainlink/contracts/src/v0.8/vendor/BufferChainlink.sol\":6040:6185  function appendUint8(buffer memory buf, uint8 data) internal pure returns (buffer memory) {... */\n      swap3\n      swap2\n      pop\n      pop\n      jump\t// out\n        /* \"@chainlink/contracts/src/v0.8/vendor/BufferChainlink.sol\":9894:10071  function appendInt(... */\n    tag_228:\n        /* \"@chainlink/contracts/src/v0.8/vendor/BufferChainlink.sol\":9998:10011  buffer memory */\n      tag_269\n      tag_211\n      jump\t// in\n    tag_269:\n        /* \"@chainlink/contracts/src/v0.8/vendor/BufferChainlink.sol\":10026:10066  writeInt(buf, buf.buf.length, data, len) */\n      tag_271\n        /* \"@chainlink/contracts/src/v0.8/vendor/BufferChainlink.sol\":10035:10038  buf */\n      dup5\n        /* \"@chainlink/contracts/src/v0.8/vendor/BufferChainlink.sol\":10040:10043  buf */\n      dup6\n        /* \"@chainlink/contracts/src/v0.8/vendor/BufferChainlink.sol\":10040:10047  buf.buf */\n      0x00\n      add\n      mload\n        /* \"@chainlink/contracts/src/v0.8/vendor/BufferChainlink.sol\":10040:10054  buf.buf.length */\n      mload\n        /* \"@chainlink/contracts/src/v0.8/vendor/BufferChainlink.sol\":10056:10060  data */\n      dup6\n        /* \"@chainlink/contracts/src/v0.8/vendor/BufferChainlink.sol\":10062:10065  len */\n      dup6\n        /* \"@chainlink/contracts/src/v0.8/vendor/BufferChainlink.sol\":10026:10034  writeInt */\n      tag_272\n        /* \"@chainlink/contracts/src/v0.8/vendor/BufferChainlink.sol\":10026:10066  writeInt(buf, buf.buf.length, data, len) */\n      jump\t// in\n    tag_271:\n        /* \"@chainlink/contracts/src/v0.8/vendor/BufferChainlink.sol\":10019:10066  return writeInt(buf, buf.buf.length, data, len) */\n      swap1\n      pop\n        /* \"@chainlink/contracts/src/v0.8/vendor/BufferChainlink.sol\":9894:10071  function appendInt(... */\n      swap4\n      swap3\n      pop\n      pop\n      pop\n      jump\t// out\n        /* \"@chainlink/contracts/src/v0.8/vendor/BufferChainlink.sol\":2745:3955  function write(... */\n    tag_243:\n        /* \"@chainlink/contracts/src/v0.8/vendor/BufferChainlink.sol\":2867:2880  buffer memory */\n      tag_273\n      tag_211\n      jump\t// in\n    tag_273:\n        /* \"@chainlink/contracts/src/v0.8/vendor/BufferChainlink.sol\":2903:2907  data */\n      dup3\n        /* \"@chainlink/contracts/src/v0.8/vendor/BufferChainlink.sol\":2903:2914  data.length */\n      mload\n        /* \"@chainlink/contracts/src/v0.8/vendor/BufferChainlink.sol\":2896:2899  len */\n      dup3\n        /* \"@chainlink/contracts/src/v0.8/vendor/BufferChainlink.sol\":2896:2914  len <= data.length */\n      gt\n      iszero\n        /* \"@chainlink/contracts/src/v0.8/vendor/BufferChainlink.sol\":2888:2915  require(len <= data.length) */\n      tag_275\n      jumpi\n      0x00\n      dup1\n      revert\n    tag_275:\n        /* \"@chainlink/contracts/src/v0.8/vendor/BufferChainlink.sol\":2938:2941  buf */\n      dup5\n        /* \"@chainlink/contracts/src/v0.8/vendor/BufferChainlink.sol\":2938:2950  buf.capacity */\n      0x20\n      add\n      mload\n        /* \"@chainlink/contracts/src/v0.8/vendor/BufferChainlink.sol\":2932:2935  len */\n      dup3\n        /* \"@chainlink/contracts/src/v0.8/vendor/BufferChainlink.sol\":2926:2929  off */\n      dup6\n        /* \"@chainlink/contracts/src/v0.8/vendor/BufferChainlink.sol\":2926:2935  off + len */\n      tag_276\n      swap2\n      swap1\n      tag_205\n      jump\t// in\n    tag_276:\n        /* \"@chainlink/contracts/src/v0.8/vendor/BufferChainlink.sol\":2926:2950  off + len > buf.capacity */\n      gt\n        /* \"@chainlink/contracts/src/v0.8/vendor/BufferChainlink.sol\":2922:3012  if (off + len > buf.capacity) {... */\n      iszero\n      tag_277\n      jumpi\n        /* \"@chainlink/contracts/src/v0.8/vendor/BufferChainlink.sol\":2960:3005  resize(buf, max(buf.capacity, len + off) * 2) */\n      tag_278\n        /* \"@chainlink/contracts/src/v0.8/vendor/BufferChainlink.sol\":2967:2970  buf */\n      dup6\n        /* \"@chainlink/contracts/src/v0.8/vendor/BufferChainlink.sol\":3003:3004  2 */\n      0x02\n        /* \"@chainlink/contracts/src/v0.8/vendor/BufferChainlink.sol\":2972:3000  max(buf.capacity, len + off) */\n      tag_279\n        /* \"@chainlink/contracts/src/v0.8/vendor/BufferChainlink.sol\":2976:2979  buf */\n      dup9\n        /* \"@chainlink/contracts/src/v0.8/vendor/BufferChainlink.sol\":2976:2988  buf.capacity */\n      0x20\n      add\n      mload\n        /* \"@chainlink/contracts/src/v0.8/vendor/BufferChainlink.sol\":2996:2999  off */\n      dup9\n        /* \"@chainlink/contracts/src/v0.8/vendor/BufferChainlink.sol\":2990:2993  len */\n      dup8\n        /* \"@chainlink/contracts/src/v0.8/vendor/BufferChainlink.sol\":2990:2999  len + off */\n      tag_280\n      swap2\n      swap1\n      tag_205\n      jump\t// in\n    tag_280:\n        /* \"@chainlink/contracts/src/v0.8/vendor/BufferChainlink.sol\":2972:2975  max */\n      tag_281\n        /* \"@chainlink/contracts/src/v0.8/vendor/BufferChainlink.sol\":2972:3000  max(buf.capacity, len + off) */\n      jump\t// in\n    tag_279:\n        /* \"@chainlink/contracts/src/v0.8/vendor/BufferChainlink.sol\":2972:3004  max(buf.capacity, len + off) * 2 */\n      tag_282\n      swap2\n      swap1\n      tag_103\n      jump\t// in\n    tag_282:\n        /* \"@chainlink/contracts/src/v0.8/vendor/BufferChainlink.sol\":2960:2966  resize */\n      tag_283\n        /* \"@chainlink/contracts/src/v0.8/vendor/BufferChainlink.sol\":2960:3005  resize(buf, max(buf.capacity, len + off) * 2) */\n      jump\t// in\n    tag_278:\n        /* \"@chainlink/contracts/src/v0.8/vendor/BufferChainlink.sol\":2922:3012  if (off + len > buf.capacity) {... */\n    tag_277:\n        /* \"@chainlink/contracts/src/v0.8/vendor/BufferChainlink.sol\":3018:3030  uint256 dest */\n      0x00\n        /* \"@chainlink/contracts/src/v0.8/vendor/BufferChainlink.sol\":3036:3047  uint256 src */\n      dup1\n        /* \"@chainlink/contracts/src/v0.8/vendor/BufferChainlink.sol\":3133:3136  buf */\n      dup7\n        /* \"@chainlink/contracts/src/v0.8/vendor/BufferChainlink.sol\":3127:3137  mload(buf) */\n      mload\n        /* \"@chainlink/contracts/src/v0.8/vendor/BufferChainlink.sol\":3204:3210  bufptr */\n      dup1\n        /* \"@chainlink/contracts/src/v0.8/vendor/BufferChainlink.sol\":3198:3211  mload(bufptr) */\n      mload\n        /* \"@chainlink/contracts/src/v0.8/vendor/BufferChainlink.sol\":3320:3323  off */\n      dup8\n        /* \"@chainlink/contracts/src/v0.8/vendor/BufferChainlink.sol\":3315:3317  32 */\n      0x20\n        /* \"@chainlink/contracts/src/v0.8/vendor/BufferChainlink.sol\":3307:3313  bufptr */\n      dup4\n        /* \"@chainlink/contracts/src/v0.8/vendor/BufferChainlink.sol\":3303:3318  add(bufptr, 32) */\n      add\n        /* \"@chainlink/contracts/src/v0.8/vendor/BufferChainlink.sol\":3299:3324  add(add(bufptr, 32), off) */\n      add\n        /* \"@chainlink/contracts/src/v0.8/vendor/BufferChainlink.sol\":3291:3324  dest := add(add(bufptr, 32), off) */\n      swap4\n      pop\n        /* \"@chainlink/contracts/src/v0.8/vendor/BufferChainlink.sol\":3404:3410  buflen */\n      dup1\n        /* \"@chainlink/contracts/src/v0.8/vendor/BufferChainlink.sol\":3398:3401  off */\n      dup9\n        /* \"@chainlink/contracts/src/v0.8/vendor/BufferChainlink.sol\":3393:3396  len */\n      dup8\n        /* \"@chainlink/contracts/src/v0.8/vendor/BufferChainlink.sol\":3389:3402  add(len, off) */\n      add\n        /* \"@chainlink/contracts/src/v0.8/vendor/BufferChainlink.sol\":3386:3411  gt(add(len, off), buflen) */\n      gt\n        /* \"@chainlink/contracts/src/v0.8/vendor/BufferChainlink.sol\":3383:3459  if gt(add(len, off), buflen) {... */\n      iszero\n      tag_284\n      jumpi\n        /* \"@chainlink/contracts/src/v0.8/vendor/BufferChainlink.sol\":3446:3449  off */\n      dup8\n        /* \"@chainlink/contracts/src/v0.8/vendor/BufferChainlink.sol\":3441:3444  len */\n      dup7\n        /* \"@chainlink/contracts/src/v0.8/vendor/BufferChainlink.sol\":3437:3450  add(len, off) */\n      add\n        /* \"@chainlink/contracts/src/v0.8/vendor/BufferChainlink.sol\":3429:3435  bufptr */\n      dup3\n        /* \"@chainlink/contracts/src/v0.8/vendor/BufferChainlink.sol\":3422:3451  mstore(bufptr, add(len, off)) */\n      mstore\n        /* \"@chainlink/contracts/src/v0.8/vendor/BufferChainlink.sol\":3383:3459  if gt(add(len, off), buflen) {... */\n    tag_284:\n        /* \"@chainlink/contracts/src/v0.8/vendor/BufferChainlink.sol\":3483:3485  32 */\n      0x20\n        /* \"@chainlink/contracts/src/v0.8/vendor/BufferChainlink.sol\":3477:3481  data */\n      dup8\n        /* \"@chainlink/contracts/src/v0.8/vendor/BufferChainlink.sol\":3473:3486  add(data, 32) */\n      add\n        /* \"@chainlink/contracts/src/v0.8/vendor/BufferChainlink.sol\":3466:3486  src := add(data, 32) */\n      swap3\n      pop\n        /* \"@chainlink/contracts/src/v0.8/vendor/BufferChainlink.sol\":3062:3492  {... */\n      pop\n      pop\n        /* \"@chainlink/contracts/src/v0.8/vendor/BufferChainlink.sol\":3544:3673  for (; len >= 32; len -= 32) {... */\n    tag_285:\n        /* \"@chainlink/contracts/src/v0.8/vendor/BufferChainlink.sol\":3558:3560  32 */\n      0x20\n        /* \"@chainlink/contracts/src/v0.8/vendor/BufferChainlink.sol\":3551:3554  len */\n      dup5\n        /* \"@chainlink/contracts/src/v0.8/vendor/BufferChainlink.sol\":3551:3560  len >= 32 */\n      lt\n        /* \"@chainlink/contracts/src/v0.8/vendor/BufferChainlink.sol\":3544:3673  for (; len >= 32; len -= 32) {... */\n      tag_286\n      jumpi\n        /* \"@chainlink/contracts/src/v0.8/vendor/BufferChainlink.sol\":3619:3622  src */\n      dup1\n        /* \"@chainlink/contracts/src/v0.8/vendor/BufferChainlink.sol\":3613:3623  mload(src) */\n      mload\n        /* \"@chainlink/contracts/src/v0.8/vendor/BufferChainlink.sol\":3607:3611  dest */\n      dup3\n        /* \"@chainlink/contracts/src/v0.8/vendor/BufferChainlink.sol\":3600:3624  mstore(dest, mload(src)) */\n      mstore\n        /* \"@chainlink/contracts/src/v0.8/vendor/BufferChainlink.sol\":3647:3649  32 */\n      0x20\n        /* \"@chainlink/contracts/src/v0.8/vendor/BufferChainlink.sol\":3639:3649  dest += 32 */\n      dup3\n      tag_288\n      swap2\n      swap1\n      tag_205\n      jump\t// in\n    tag_288:\n      swap2\n      pop\n        /* \"@chainlink/contracts/src/v0.8/vendor/BufferChainlink.sol\":3664:3666  32 */\n      0x20\n        /* \"@chainlink/contracts/src/v0.8/vendor/BufferChainlink.sol\":3657:3666  src += 32 */\n      dup2\n      tag_289\n      swap2\n      swap1\n      tag_205\n      jump\t// in\n    tag_289:\n      swap1\n      pop\n        /* \"@chainlink/contracts/src/v0.8/vendor/BufferChainlink.sol\":3569:3571  32 */\n      0x20\n        /* \"@chainlink/contracts/src/v0.8/vendor/BufferChainlink.sol\":3562:3571  len -= 32 */\n      dup5\n      tag_290\n      swap2\n      swap1\n      tag_218\n      jump\t// in\n    tag_290:\n      swap4\n      pop\n        /* \"@chainlink/contracts/src/v0.8/vendor/BufferChainlink.sol\":3544:3673  for (; len >= 32; len -= 32) {... */\n      jump(tag_285)\n    tag_286:\n        /* \"@chainlink/contracts/src/v0.8/vendor/BufferChainlink.sol\":3725:3737  uint256 mask */\n      0x00\n        /* \"@chainlink/contracts/src/v0.8/vendor/BufferChainlink.sol\":3760:3761  1 */\n      0x01\n        /* \"@chainlink/contracts/src/v0.8/vendor/BufferChainlink.sol\":3752:3755  len */\n      dup6\n        /* \"@chainlink/contracts/src/v0.8/vendor/BufferChainlink.sol\":3747:3749  32 */\n      0x20\n        /* \"@chainlink/contracts/src/v0.8/vendor/BufferChainlink.sol\":3747:3755  32 - len */\n      sub\n        /* \"@chainlink/contracts/src/v0.8/vendor/BufferChainlink.sol\":3741:3744  256 */\n      0x0100\n        /* \"@chainlink/contracts/src/v0.8/vendor/BufferChainlink.sol\":3741:3756  256**(32 - len) */\n      exp\n        /* \"@chainlink/contracts/src/v0.8/vendor/BufferChainlink.sol\":3740:3761  (256**(32 - len)) - 1 */\n      sub\n        /* \"@chainlink/contracts/src/v0.8/vendor/BufferChainlink.sol\":3725:3761  uint256 mask = (256**(32 - len)) - 1 */\n      swap1\n      pop\n        /* \"@chainlink/contracts/src/v0.8/vendor/BufferChainlink.sol\":3823:3827  mask */\n      dup1\n        /* \"@chainlink/contracts/src/v0.8/vendor/BufferChainlink.sol\":3819:3828  not(mask) */\n      not\n        /* \"@chainlink/contracts/src/v0.8/vendor/BufferChainlink.sol\":3813:3816  src */\n      dup3\n        /* \"@chainlink/contracts/src/v0.8/vendor/BufferChainlink.sol\":3807:3817  mload(src) */\n      mload\n        /* \"@chainlink/contracts/src/v0.8/vendor/BufferChainlink.sol\":3803:3829  and(mload(src), not(mask)) */\n      and\n        /* \"@chainlink/contracts/src/v0.8/vendor/BufferChainlink.sol\":3871:3875  mask */\n      dup2\n        /* \"@chainlink/contracts/src/v0.8/vendor/BufferChainlink.sol\":3864:3868  dest */\n      dup5\n        /* \"@chainlink/contracts/src/v0.8/vendor/BufferChainlink.sol\":3858:3869  mload(dest) */\n      mload\n        /* \"@chainlink/contracts/src/v0.8/vendor/BufferChainlink.sol\":3854:3876  and(mload(dest), mask) */\n      and\n        /* \"@chainlink/contracts/src/v0.8/vendor/BufferChainlink.sol\":3911:3918  srcpart */\n      dup2\n        /* \"@chainlink/contracts/src/v0.8/vendor/BufferChainlink.sol\":3901:3909  destpart */\n      dup2\n        /* \"@chainlink/contracts/src/v0.8/vendor/BufferChainlink.sol\":3898:3919  or(destpart, srcpart) */\n      or\n        /* \"@chainlink/contracts/src/v0.8/vendor/BufferChainlink.sol\":3892:3896  dest */\n      dup6\n        /* \"@chainlink/contracts/src/v0.8/vendor/BufferChainlink.sol\":3885:3920  mstore(dest, or(destpart, srcpart)) */\n      mstore\n        /* \"@chainlink/contracts/src/v0.8/vendor/BufferChainlink.sol\":3778:3928  {... */\n      pop\n      pop\n      pop\n        /* \"@chainlink/contracts/src/v0.8/vendor/BufferChainlink.sol\":3947:3950  buf */\n      dup7\n        /* \"@chainlink/contracts/src/v0.8/vendor/BufferChainlink.sol\":3940:3950  return buf */\n      swap3\n      pop\n      pop\n      pop\n        /* \"@chainlink/contracts/src/v0.8/vendor/BufferChainlink.sol\":2745:3955  function write(... */\n      swap5\n      swap4\n      pop\n      pop\n      pop\n      pop\n      jump\t// out\n        /* \"@chainlink/contracts/src/v0.8/vendor/CBORChainlink.sol\":2154:2341  function encodeBytes(BufferChainlink.buffer memory buf, bytes memory value) internal pure {... */\n    tag_249:\n        /* \"@chainlink/contracts/src/v0.8/vendor/CBORChainlink.sol\":2250:2313  encodeFixedNumeric(buf, MAJOR_TYPE_BYTES, uint64(value.length)) */\n      tag_292\n        /* \"@chainlink/contracts/src/v0.8/vendor/CBORChainlink.sol\":2269:2272  buf */\n      dup3\n        /* \"@chainlink/contracts/src/v0.8/vendor/CBORChainlink.sol\":335:336  2 */\n      0x02\n        /* \"@chainlink/contracts/src/v0.8/vendor/CBORChainlink.sol\":2299:2304  value */\n      dup4\n        /* \"@chainlink/contracts/src/v0.8/vendor/CBORChainlink.sol\":2299:2311  value.length */\n      mload\n        /* \"@chainlink/contracts/src/v0.8/vendor/CBORChainlink.sol\":2250:2268  encodeFixedNumeric */\n      tag_185\n        /* \"@chainlink/contracts/src/v0.8/vendor/CBORChainlink.sol\":2250:2313  encodeFixedNumeric(buf, MAJOR_TYPE_BYTES, uint64(value.length)) */\n      jump\t// in\n    tag_292:\n        /* \"@chainlink/contracts/src/v0.8/vendor/CBORChainlink.sol\":2319:2336  buf.append(value) */\n      tag_293\n        /* \"@chainlink/contracts/src/v0.8/vendor/CBORChainlink.sol\":2330:2335  value */\n      dup2\n        /* \"@chainlink/contracts/src/v0.8/vendor/CBORChainlink.sol\":2319:2322  buf */\n      dup4\n        /* \"@chainlink/contracts/src/v0.8/vendor/CBORChainlink.sol\":2319:2329  buf.append */\n      tag_187\n      swap1\n        /* \"@chainlink/contracts/src/v0.8/vendor/CBORChainlink.sol\":2319:2336  buf.append(value) */\n      swap2\n      swap1\n      0xffffffff\n      and\n      jump\t// in\n    tag_293:\n      pop\n        /* \"@chainlink/contracts/src/v0.8/vendor/CBORChainlink.sol\":2154:2341  function encodeBytes(BufferChainlink.buffer memory buf, bytes memory value) internal pure {... */\n      pop\n      pop\n      jump\t// out\n        /* \"@chainlink/contracts/src/v0.8/vendor/BufferChainlink.sol\":5148:5787  function writeUint8(... */\n    tag_268:\n        /* \"@chainlink/contracts/src/v0.8/vendor/BufferChainlink.sol\":5251:5264  buffer memory */\n      tag_294\n      tag_211\n      jump\t// in\n    tag_294:\n        /* \"@chainlink/contracts/src/v0.8/vendor/BufferChainlink.sol\":5283:5286  buf */\n      dup4\n        /* \"@chainlink/contracts/src/v0.8/vendor/BufferChainlink.sol\":5283:5295  buf.capacity */\n      0x20\n      add\n      mload\n        /* \"@chainlink/contracts/src/v0.8/vendor/BufferChainlink.sol\":5276:5279  off */\n      dup4\n        /* \"@chainlink/contracts/src/v0.8/vendor/BufferChainlink.sol\":5276:5295  off >= buf.capacity */\n      lt\n        /* \"@chainlink/contracts/src/v0.8/vendor/BufferChainlink.sol\":5272:5341  if (off >= buf.capacity) {... */\n      tag_296\n      jumpi\n        /* \"@chainlink/contracts/src/v0.8/vendor/BufferChainlink.sol\":5305:5334  resize(buf, buf.capacity * 2) */\n      tag_297\n        /* \"@chainlink/contracts/src/v0.8/vendor/BufferChainlink.sol\":5312:5315  buf */\n      dup5\n        /* \"@chainlink/contracts/src/v0.8/vendor/BufferChainlink.sol\":5332:5333  2 */\n      0x02\n        /* \"@chainlink/contracts/src/v0.8/vendor/BufferChainlink.sol\":5317:5320  buf */\n      dup7\n        /* \"@chainlink/contracts/src/v0.8/vendor/BufferChainlink.sol\":5317:5329  buf.capacity */\n      0x20\n      add\n      mload\n        /* \"@chainlink/contracts/src/v0.8/vendor/BufferChainlink.sol\":5317:5333  buf.capacity * 2 */\n      tag_298\n      swap2\n      swap1\n      tag_103\n      jump\t// in\n    tag_298:\n        /* \"@chainlink/contracts/src/v0.8/vendor/BufferChainlink.sol\":5305:5311  resize */\n      tag_283\n        /* \"@chainlink/contracts/src/v0.8/vendor/BufferChainlink.sol\":5305:5334  resize(buf, buf.capacity * 2) */\n      jump\t// in\n    tag_297:\n        /* \"@chainlink/contracts/src/v0.8/vendor/BufferChainlink.sol\":5272:5341  if (off >= buf.capacity) {... */\n    tag_296:\n        /* \"@chainlink/contracts/src/v0.8/vendor/BufferChainlink.sol\":5427:5430  buf */\n      dup4\n        /* \"@chainlink/contracts/src/v0.8/vendor/BufferChainlink.sol\":5421:5431  mload(buf) */\n      mload\n        /* \"@chainlink/contracts/src/v0.8/vendor/BufferChainlink.sol\":5498:5504  bufptr */\n      dup1\n        /* \"@chainlink/contracts/src/v0.8/vendor/BufferChainlink.sol\":5492:5505  mload(bufptr) */\n      mload\n        /* \"@chainlink/contracts/src/v0.8/vendor/BufferChainlink.sol\":5610:5612  32 */\n      0x20\n        /* \"@chainlink/contracts/src/v0.8/vendor/BufferChainlink.sol\":5604:5607  off */\n      dup6\n        /* \"@chainlink/contracts/src/v0.8/vendor/BufferChainlink.sol\":5596:5602  bufptr */\n      dup4\n        /* \"@chainlink/contracts/src/v0.8/vendor/BufferChainlink.sol\":5592:5608  add(bufptr, off) */\n      add\n        /* \"@chainlink/contracts/src/v0.8/vendor/BufferChainlink.sol\":5588:5613  add(add(bufptr, off), 32) */\n      add\n        /* \"@chainlink/contracts/src/v0.8/vendor/BufferChainlink.sol\":5634:5638  data */\n      dup5\n        /* \"@chainlink/contracts/src/v0.8/vendor/BufferChainlink.sol\":5628:5632  dest */\n      dup2\n        /* \"@chainlink/contracts/src/v0.8/vendor/BufferChainlink.sol\":5620:5639  mstore8(dest, data) */\n      mstore8\n        /* \"@chainlink/contracts/src/v0.8/vendor/BufferChainlink.sol\":5705:5711  buflen */\n      dup2\n        /* \"@chainlink/contracts/src/v0.8/vendor/BufferChainlink.sol\":5700:5703  off */\n      dup7\n        /* \"@chainlink/contracts/src/v0.8/vendor/BufferChainlink.sol\":5697:5712  eq(off, buflen) */\n      sub\n        /* \"@chainlink/contracts/src/v0.8/vendor/BufferChainlink.sol\":5694:5761  if eq(off, buflen) {... */\n      tag_299\n      jumpi\n        /* \"@chainlink/contracts/src/v0.8/vendor/BufferChainlink.sol\":5750:5751  1 */\n      0x01\n        /* \"@chainlink/contracts/src/v0.8/vendor/BufferChainlink.sol\":5742:5748  buflen */\n      dup3\n        /* \"@chainlink/contracts/src/v0.8/vendor/BufferChainlink.sol\":5738:5752  add(buflen, 1) */\n      add\n        /* \"@chainlink/contracts/src/v0.8/vendor/BufferChainlink.sol\":5730:5736  bufptr */\n      dup4\n        /* \"@chainlink/contracts/src/v0.8/vendor/BufferChainlink.sol\":5723:5753  mstore(bufptr, add(buflen, 1)) */\n      mstore\n        /* \"@chainlink/contracts/src/v0.8/vendor/BufferChainlink.sol\":5694:5761  if eq(off, buflen) {... */\n    tag_299:\n        /* \"@chainlink/contracts/src/v0.8/vendor/BufferChainlink.sol\":5356:5767  {... */\n      pop\n      pop\n      pop\n        /* \"@chainlink/contracts/src/v0.8/vendor/BufferChainlink.sol\":5779:5782  buf */\n      dup4\n        /* \"@chainlink/contracts/src/v0.8/vendor/BufferChainlink.sol\":5772:5782  return buf */\n      swap1\n      pop\n        /* \"@chainlink/contracts/src/v0.8/vendor/BufferChainlink.sol\":5148:5787  function writeUint8(... */\n      swap4\n      swap3\n      pop\n      pop\n      pop\n      jump\t// out\n        /* \"@chainlink/contracts/src/v0.8/vendor/BufferChainlink.sol\":8974:9649  function writeInt(... */\n    tag_272:\n        /* \"@chainlink/contracts/src/v0.8/vendor/BufferChainlink.sol\":9093:9106  buffer memory */\n      tag_300\n      tag_211\n      jump\t// in\n    tag_300:\n        /* \"@chainlink/contracts/src/v0.8/vendor/BufferChainlink.sol\":9130:9133  buf */\n      dup5\n        /* \"@chainlink/contracts/src/v0.8/vendor/BufferChainlink.sol\":9130:9142  buf.capacity */\n      0x20\n      add\n      mload\n        /* \"@chainlink/contracts/src/v0.8/vendor/BufferChainlink.sol\":9124:9127  off */\n      dup5\n        /* \"@chainlink/contracts/src/v0.8/vendor/BufferChainlink.sol\":9118:9121  len */\n      dup4\n        /* \"@chainlink/contracts/src/v0.8/vendor/BufferChainlink.sol\":9118:9127  len + off */\n      tag_302\n      swap2\n      swap1\n      tag_205\n      jump\t// in\n    tag_302:\n        /* \"@chainlink/contracts/src/v0.8/vendor/BufferChainlink.sol\":9118:9142  len + off > buf.capacity */\n      gt\n        /* \"@chainlink/contracts/src/v0.8/vendor/BufferChainlink.sol\":9114:9187  if (len + off > buf.capacity) {... */\n      iszero\n      tag_303\n      jumpi\n        /* \"@chainlink/contracts/src/v0.8/vendor/BufferChainlink.sol\":9152:9180  resize(buf, (len + off) * 2) */\n      tag_304\n        /* \"@chainlink/contracts/src/v0.8/vendor/BufferChainlink.sol\":9159:9162  buf */\n      dup6\n        /* \"@chainlink/contracts/src/v0.8/vendor/BufferChainlink.sol\":9178:9179  2 */\n      0x02\n        /* \"@chainlink/contracts/src/v0.8/vendor/BufferChainlink.sol\":9171:9174  off */\n      dup7\n        /* \"@chainlink/contracts/src/v0.8/vendor/BufferChainlink.sol\":9165:9168  len */\n      dup6\n        /* \"@chainlink/contracts/src/v0.8/vendor/BufferChainlink.sol\":9165:9174  len + off */\n      tag_305\n      swap2\n      swap1\n      tag_205\n      jump\t// in\n    tag_305:\n        /* \"@chainlink/contracts/src/v0.8/vendor/BufferChainlink.sol\":9164:9179  (len + off) * 2 */\n      tag_306\n      swap2\n      swap1\n      tag_103\n      jump\t// in\n    tag_306:\n        /* \"@chainlink/contracts/src/v0.8/vendor/BufferChainlink.sol\":9152:9158  resize */\n      tag_283\n        /* \"@chainlink/contracts/src/v0.8/vendor/BufferChainlink.sol\":9152:9180  resize(buf, (len + off) * 2) */\n      jump\t// in\n    tag_304:\n        /* \"@chainlink/contracts/src/v0.8/vendor/BufferChainlink.sol\":9114:9187  if (len + off > buf.capacity) {... */\n    tag_303:\n        /* \"@chainlink/contracts/src/v0.8/vendor/BufferChainlink.sol\":9193:9205  uint256 mask */\n      0x00\n        /* \"@chainlink/contracts/src/v0.8/vendor/BufferChainlink.sol\":9221:9222  1 */\n      0x01\n        /* \"@chainlink/contracts/src/v0.8/vendor/BufferChainlink.sol\":9214:9217  len */\n      dup4\n        /* \"@chainlink/contracts/src/v0.8/vendor/BufferChainlink.sol\":9209:9212  256 */\n      0x0100\n        /* \"@chainlink/contracts/src/v0.8/vendor/BufferChainlink.sol\":9209:9217  256**len */\n      tag_307\n      swap2\n      swap1\n      tag_308\n      jump\t// in\n    tag_307:\n        /* \"@chainlink/contracts/src/v0.8/vendor/BufferChainlink.sol\":9208:9222  (256**len) - 1 */\n      tag_309\n      swap2\n      swap1\n      tag_218\n      jump\t// in\n    tag_309:\n        /* \"@chainlink/contracts/src/v0.8/vendor/BufferChainlink.sol\":9193:9222  uint256 mask = (256**len) - 1 */\n      swap1\n      pop\n        /* \"@chainlink/contracts/src/v0.8/vendor/BufferChainlink.sol\":9308:9311  buf */\n      dup6\n        /* \"@chainlink/contracts/src/v0.8/vendor/BufferChainlink.sol\":9302:9312  mload(buf) */\n      mload\n        /* \"@chainlink/contracts/src/v0.8/vendor/BufferChainlink.sol\":9423:9426  len */\n      dup4\n        /* \"@chainlink/contracts/src/v0.8/vendor/BufferChainlink.sol\":9417:9420  off */\n      dup7\n        /* \"@chainlink/contracts/src/v0.8/vendor/BufferChainlink.sol\":9409:9415  bufptr */\n      dup3\n        /* \"@chainlink/contracts/src/v0.8/vendor/BufferChainlink.sol\":9405:9421  add(bufptr, off) */\n      add\n        /* \"@chainlink/contracts/src/v0.8/vendor/BufferChainlink.sol\":9401:9427  add(add(bufptr, off), len) */\n      add\n        /* \"@chainlink/contracts/src/v0.8/vendor/BufferChainlink.sol\":9479:9483  data */\n      dup6\n        /* \"@chainlink/contracts/src/v0.8/vendor/BufferChainlink.sol\":9471:9475  mask */\n      dup4\n        /* \"@chainlink/contracts/src/v0.8/vendor/BufferChainlink.sol\":9467:9476  not(mask) */\n      not\n        /* \"@chainlink/contracts/src/v0.8/vendor/BufferChainlink.sol\":9460:9464  dest */\n      dup3\n        /* \"@chainlink/contracts/src/v0.8/vendor/BufferChainlink.sol\":9454:9465  mload(dest) */\n      mload\n        /* \"@chainlink/contracts/src/v0.8/vendor/BufferChainlink.sol\":9450:9477  and(mload(dest), not(mask)) */\n      and\n        /* \"@chainlink/contracts/src/v0.8/vendor/BufferChainlink.sol\":9447:9484  or(and(mload(dest), not(mask)), data) */\n      or\n        /* \"@chainlink/contracts/src/v0.8/vendor/BufferChainlink.sol\":9441:9445  dest */\n      dup2\n        /* \"@chainlink/contracts/src/v0.8/vendor/BufferChainlink.sol\":9434:9485  mstore(dest, or(and(mload(dest), not(mask)), data)) */\n      mstore\n        /* \"@chainlink/contracts/src/v0.8/vendor/BufferChainlink.sol\":9567:9573  bufptr */\n      dup2\n        /* \"@chainlink/contracts/src/v0.8/vendor/BufferChainlink.sol\":9561:9574  mload(bufptr) */\n      mload\n        /* \"@chainlink/contracts/src/v0.8/vendor/BufferChainlink.sol\":9555:9558  len */\n      dup6\n        /* \"@chainlink/contracts/src/v0.8/vendor/BufferChainlink.sol\":9550:9553  off */\n      dup9\n        /* \"@chainlink/contracts/src/v0.8/vendor/BufferChainlink.sol\":9546:9559  add(off, len) */\n      add\n        /* \"@chainlink/contracts/src/v0.8/vendor/BufferChainlink.sol\":9543:9575  gt(add(off, len), mload(bufptr)) */\n      gt\n        /* \"@chainlink/contracts/src/v0.8/vendor/BufferChainlink.sol\":9540:9623  if gt(add(off, len), mload(bufptr)) {... */\n      iszero\n      tag_310\n      jumpi\n        /* \"@chainlink/contracts/src/v0.8/vendor/BufferChainlink.sol\":9610:9613  len */\n      dup5\n        /* \"@chainlink/contracts/src/v0.8/vendor/BufferChainlink.sol\":9605:9608  off */\n      dup8\n        /* \"@chainlink/contracts/src/v0.8/vendor/BufferChainlink.sol\":9601:9614  add(off, len) */\n      add\n        /* \"@chainlink/contracts/src/v0.8/vendor/BufferChainlink.sol\":9593:9599  bufptr */\n      dup3\n        /* \"@chainlink/contracts/src/v0.8/vendor/BufferChainlink.sol\":9586:9615  mstore(bufptr, add(off, len)) */\n      mstore\n        /* \"@chainlink/contracts/src/v0.8/vendor/BufferChainlink.sol\":9540:9623  if gt(add(off, len), mload(bufptr)) {... */\n    tag_310:\n        /* \"@chainlink/contracts/src/v0.8/vendor/BufferChainlink.sol\":9237:9629  {... */\n      pop\n      pop\n        /* \"@chainlink/contracts/src/v0.8/vendor/BufferChainlink.sol\":9641:9644  buf */\n      dup6\n        /* \"@chainlink/contracts/src/v0.8/vendor/BufferChainlink.sol\":9634:9644  return buf */\n      swap2\n      pop\n      pop\n        /* \"@chainlink/contracts/src/v0.8/vendor/BufferChainlink.sol\":8974:9649  function writeInt(... */\n      swap5\n      swap4\n      pop\n      pop\n      pop\n      pop\n      jump\t// out\n        /* \"@chainlink/contracts/src/v0.8/vendor/BufferChainlink.sol\":1961:2085  function max(uint256 a, uint256 b) private pure returns (uint256) {... */\n    tag_281:\n        /* \"@chainlink/contracts/src/v0.8/vendor/BufferChainlink.sol\":2018:2025  uint256 */\n      0x00\n        /* \"@chainlink/contracts/src/v0.8/vendor/BufferChainlink.sol\":2041:2042  b */\n      dup2\n        /* \"@chainlink/contracts/src/v0.8/vendor/BufferChainlink.sol\":2037:2038  a */\n      dup4\n        /* \"@chainlink/contracts/src/v0.8/vendor/BufferChainlink.sol\":2037:2042  a > b */\n      gt\n        /* \"@chainlink/contracts/src/v0.8/vendor/BufferChainlink.sol\":2033:2067  if (a > b) {... */\n      iszero\n      tag_312\n      jumpi\n        /* \"@chainlink/contracts/src/v0.8/vendor/BufferChainlink.sol\":2059:2060  a */\n      dup3\n        /* \"@chainlink/contracts/src/v0.8/vendor/BufferChainlink.sol\":2052:2060  return a */\n      swap1\n      pop\n      jump(tag_311)\n        /* \"@chainlink/contracts/src/v0.8/vendor/BufferChainlink.sol\":2033:2067  if (a > b) {... */\n    tag_312:\n        /* \"@chainlink/contracts/src/v0.8/vendor/BufferChainlink.sol\":2079:2080  b */\n      dup2\n        /* \"@chainlink/contracts/src/v0.8/vendor/BufferChainlink.sol\":2072:2080  return b */\n      swap1\n      pop\n        /* \"@chainlink/contracts/src/v0.8/vendor/BufferChainlink.sol\":1961:2085  function max(uint256 a, uint256 b) private pure returns (uint256) {... */\n    tag_311:\n      swap3\n      swap2\n      pop\n      pop\n      jump\t// out\n        /* \"@chainlink/contracts/src/v0.8/vendor/BufferChainlink.sol\":1801:1957  function resize(buffer memory buf, uint256 capacity) private pure {... */\n    tag_283:\n        /* \"@chainlink/contracts/src/v0.8/vendor/BufferChainlink.sol\":1873:1892  bytes memory oldbuf */\n      0x00\n        /* \"@chainlink/contracts/src/v0.8/vendor/BufferChainlink.sol\":1895:1898  buf */\n      dup3\n        /* \"@chainlink/contracts/src/v0.8/vendor/BufferChainlink.sol\":1895:1902  buf.buf */\n      0x00\n      add\n      mload\n        /* \"@chainlink/contracts/src/v0.8/vendor/BufferChainlink.sol\":1873:1902  bytes memory oldbuf = buf.buf */\n      swap1\n      pop\n        /* \"@chainlink/contracts/src/v0.8/vendor/BufferChainlink.sol\":1908:1927  init(buf, capacity) */\n      tag_314\n        /* \"@chainlink/contracts/src/v0.8/vendor/BufferChainlink.sol\":1913:1916  buf */\n      dup4\n        /* \"@chainlink/contracts/src/v0.8/vendor/BufferChainlink.sol\":1918:1926  capacity */\n      dup4\n        /* \"@chainlink/contracts/src/v0.8/vendor/BufferChainlink.sol\":1908:1912  init */\n      tag_182\n        /* \"@chainlink/contracts/src/v0.8/vendor/BufferChainlink.sol\":1908:1927  init(buf, capacity) */\n      jump\t// in\n    tag_314:\n      pop\n        /* \"@chainlink/contracts/src/v0.8/vendor/BufferChainlink.sol\":1933:1952  append(buf, oldbuf) */\n      tag_315\n        /* \"@chainlink/contracts/src/v0.8/vendor/BufferChainlink.sol\":1940:1943  buf */\n      dup4\n        /* \"@chainlink/contracts/src/v0.8/vendor/BufferChainlink.sol\":1945:1951  oldbuf */\n      dup3\n        /* \"@chainlink/contracts/src/v0.8/vendor/BufferChainlink.sol\":1933:1939  append */\n      tag_187\n        /* \"@chainlink/contracts/src/v0.8/vendor/BufferChainlink.sol\":1933:1952  append(buf, oldbuf) */\n      jump\t// in\n    tag_315:\n      pop\n        /* \"@chainlink/contracts/src/v0.8/vendor/BufferChainlink.sol\":1867:1957  {... */\n      pop\n        /* \"@chainlink/contracts/src/v0.8/vendor/BufferChainlink.sol\":1801:1957  function resize(buffer memory buf, uint256 capacity) private pure {... */\n      pop\n      pop\n      jump\t// out\n    tag_157:\n      mload(0x40)\n      dup1\n      0xa0\n      add\n      0x40\n      mstore\n      dup1\n      0x00\n      dup1\n      not\n      and\n      dup2\n      mstore\n      0x20\n      add\n      and(0xffffffffffffffffffffffffffffffffffffffff, 0x00)\n      dup2\n      mstore\n      0x20\n      add\n      and(not(0xffffffffffffffffffffffffffffffffffffffffffffffffffffffff), 0x00)\n      dup2\n      mstore\n      0x20\n      add\n      0x00\n      dup2\n      mstore\n      0x20\n      add\n      tag_316\n      tag_211\n      jump\t// in\n    tag_316:\n      dup2\n      mstore\n      pop\n      swap1\n      jump\t// out\n    tag_211:\n      mload(0x40)\n      dup1\n      0x40\n      add\n      0x40\n      mstore\n      dup1\n      0x60\n      dup2\n      mstore\n      0x20\n      add\n      0x00\n      dup2\n      mstore\n      pop\n      swap1\n      jump\t// out\n        /* \"#utility.yul\":7:82   */\n    tag_317:\n        /* \"#utility.yul\":40:46   */\n      0x00\n        /* \"#utility.yul\":73:75   */\n      0x40\n        /* \"#utility.yul\":67:76   */\n      mload\n        /* \"#utility.yul\":57:76   */\n      swap1\n      pop\n        /* \"#utility.yul\":7:82   */\n      swap1\n      jump\t// out\n        /* \"#utility.yul\":88:205   */\n    tag_318:\n        /* \"#utility.yul\":197:198   */\n      0x00\n        /* \"#utility.yul\":194:195   */\n      dup1\n        /* \"#utility.yul\":187:199   */\n      revert\n        /* \"#utility.yul\":211:328   */\n    tag_319:\n        /* \"#utility.yul\":320:321   */\n      0x00\n        /* \"#utility.yul\":317:318   */\n      dup1\n        /* \"#utility.yul\":310:322   */\n      revert\n        /* \"#utility.yul\":334:451   */\n    tag_320:\n        /* \"#utility.yul\":443:444   */\n      0x00\n        /* \"#utility.yul\":440:441   */\n      dup1\n        /* \"#utility.yul\":433:445   */\n      revert\n        /* \"#utility.yul\":457:574   */\n    tag_321:\n        /* \"#utility.yul\":566:567   */\n      0x00\n        /* \"#utility.yul\":563:564   */\n      dup1\n        /* \"#utility.yul\":556:568   */\n      revert\n        /* \"#utility.yul\":580:682   */\n    tag_322:\n        /* \"#utility.yul\":621:627   */\n      0x00\n        /* \"#utility.yul\":672:674   */\n      0x1f\n        /* \"#utility.yul\":668:675   */\n      not\n        /* \"#utility.yul\":663:665   */\n      0x1f\n        /* \"#utility.yul\":656:661   */\n      dup4\n        /* \"#utility.yul\":652:666   */\n      add\n        /* \"#utility.yul\":648:676   */\n      and\n        /* \"#utility.yul\":638:676   */\n      swap1\n      pop\n        /* \"#utility.yul\":580:682   */\n      swap2\n      swap1\n      pop\n      jump\t// out\n        /* \"#utility.yul\":688:868   */\n    tag_323:\n        /* \"#utility.yul\":736:813   */\n      0x4e487b7100000000000000000000000000000000000000000000000000000000\n        /* \"#utility.yul\":733:734   */\n      0x00\n        /* \"#utility.yul\":726:814   */\n      mstore\n        /* \"#utility.yul\":833:837   */\n      0x41\n        /* \"#utility.yul\":830:831   */\n      0x04\n        /* \"#utility.yul\":823:838   */\n      mstore\n        /* \"#utility.yul\":857:861   */\n      0x24\n        /* \"#utility.yul\":854:855   */\n      0x00\n        /* \"#utility.yul\":847:862   */\n      revert\n        /* \"#utility.yul\":874:1155   */\n    tag_324:\n        /* \"#utility.yul\":957:984   */\n      tag_400\n        /* \"#utility.yul\":979:983   */\n      dup3\n        /* \"#utility.yul\":957:984   */\n      tag_322\n      jump\t// in\n    tag_400:\n        /* \"#utility.yul\":949:955   */\n      dup2\n        /* \"#utility.yul\":945:985   */\n      add\n        /* \"#utility.yul\":1087:1093   */\n      dup2\n        /* \"#utility.yul\":1075:1085   */\n      dup2\n        /* \"#utility.yul\":1072:1094   */\n      lt\n        /* \"#utility.yul\":1051:1069   */\n      0xffffffffffffffff\n        /* \"#utility.yul\":1039:1049   */\n      dup3\n        /* \"#utility.yul\":1036:1070   */\n      gt\n        /* \"#utility.yul\":1033:1095   */\n      or\n        /* \"#utility.yul\":1030:1118   */\n      iszero\n      tag_401\n      jumpi\n        /* \"#utility.yul\":1098:1116   */\n      tag_402\n      tag_323\n      jump\t// in\n    tag_402:\n        /* \"#utility.yul\":1030:1118   */\n    tag_401:\n        /* \"#utility.yul\":1138:1148   */\n      dup1\n        /* \"#utility.yul\":1134:1136   */\n      0x40\n        /* \"#utility.yul\":1127:1149   */\n      mstore\n        /* \"#utility.yul\":917:1155   */\n      pop\n        /* \"#utility.yul\":874:1155   */\n      pop\n      pop\n      jump\t// out\n        /* \"#utility.yul\":1161:1290   */\n    tag_325:\n        /* \"#utility.yul\":1195:1201   */\n      0x00\n        /* \"#utility.yul\":1222:1242   */\n      tag_404\n      tag_317\n      jump\t// in\n    tag_404:\n        /* \"#utility.yul\":1212:1242   */\n      swap1\n      pop\n        /* \"#utility.yul\":1251:1284   */\n      tag_405\n        /* \"#utility.yul\":1279:1283   */\n      dup3\n        /* \"#utility.yul\":1271:1277   */\n      dup3\n        /* \"#utility.yul\":1251:1284   */\n      tag_324\n      jump\t// in\n    tag_405:\n        /* \"#utility.yul\":1161:1290   */\n      swap2\n      swap1\n      pop\n      jump\t// out\n        /* \"#utility.yul\":1296:1604   */\n    tag_326:\n        /* \"#utility.yul\":1358:1362   */\n      0x00\n        /* \"#utility.yul\":1448:1466   */\n      0xffffffffffffffff\n        /* \"#utility.yul\":1440:1446   */\n      dup3\n        /* \"#utility.yul\":1437:1467   */\n      gt\n        /* \"#utility.yul\":1434:1490   */\n      iszero\n      tag_407\n      jumpi\n        /* \"#utility.yul\":1470:1488   */\n      tag_408\n      tag_323\n      jump\t// in\n    tag_408:\n        /* \"#utility.yul\":1434:1490   */\n    tag_407:\n        /* \"#utility.yul\":1508:1537   */\n      tag_409\n        /* \"#utility.yul\":1530:1536   */\n      dup3\n        /* \"#utility.yul\":1508:1537   */\n      tag_322\n      jump\t// in\n    tag_409:\n        /* \"#utility.yul\":1500:1537   */\n      swap1\n      pop\n        /* \"#utility.yul\":1592:1596   */\n      0x20\n        /* \"#utility.yul\":1586:1590   */\n      dup2\n        /* \"#utility.yul\":1582:1597   */\n      add\n        /* \"#utility.yul\":1574:1597   */\n      swap1\n      pop\n        /* \"#utility.yul\":1296:1604   */\n      swap2\n      swap1\n      pop\n      jump\t// out\n        /* \"#utility.yul\":1610:1756   */\n    tag_327:\n        /* \"#utility.yul\":1707:1713   */\n      dup3\n        /* \"#utility.yul\":1702:1705   */\n      dup2\n        /* \"#utility.yul\":1697:1700   */\n      dup4\n        /* \"#utility.yul\":1684:1714   */\n      calldatacopy\n        /* \"#utility.yul\":1748:1749   */\n      0x00\n        /* \"#utility.yul\":1739:1745   */\n      dup4\n        /* \"#utility.yul\":1734:1737   */\n      dup4\n        /* \"#utility.yul\":1730:1746   */\n      add\n        /* \"#utility.yul\":1723:1750   */\n      mstore\n        /* \"#utility.yul\":1610:1756   */\n      pop\n      pop\n      pop\n      jump\t// out\n        /* \"#utility.yul\":1762:2187   */\n    tag_328:\n        /* \"#utility.yul\":1840:1845   */\n      0x00\n        /* \"#utility.yul\":1865:1931   */\n      tag_412\n        /* \"#utility.yul\":1881:1930   */\n      tag_413\n        /* \"#utility.yul\":1923:1929   */\n      dup5\n        /* \"#utility.yul\":1881:1930   */\n      tag_326\n      jump\t// in\n    tag_413:\n        /* \"#utility.yul\":1865:1931   */\n      tag_325\n      jump\t// in\n    tag_412:\n        /* \"#utility.yul\":1856:1931   */\n      swap1\n      pop\n        /* \"#utility.yul\":1954:1960   */\n      dup3\n        /* \"#utility.yul\":1947:1952   */\n      dup2\n        /* \"#utility.yul\":1940:1961   */\n      mstore\n        /* \"#utility.yul\":1992:1996   */\n      0x20\n        /* \"#utility.yul\":1985:1990   */\n      dup2\n        /* \"#utility.yul\":1981:1997   */\n      add\n        /* \"#utility.yul\":2030:2033   */\n      dup5\n        /* \"#utility.yul\":2021:2027   */\n      dup5\n        /* \"#utility.yul\":2016:2019   */\n      dup5\n        /* \"#utility.yul\":2012:2028   */\n      add\n        /* \"#utility.yul\":2009:2034   */\n      gt\n        /* \"#utility.yul\":2006:2118   */\n      iszero\n      tag_414\n      jumpi\n        /* \"#utility.yul\":2037:2116   */\n      tag_415\n      tag_321\n      jump\t// in\n    tag_415:\n        /* \"#utility.yul\":2006:2118   */\n    tag_414:\n        /* \"#utility.yul\":2127:2181   */\n      tag_416\n        /* \"#utility.yul\":2174:2180   */\n      dup5\n        /* \"#utility.yul\":2169:2172   */\n      dup3\n        /* \"#utility.yul\":2164:2167   */\n      dup6\n        /* \"#utility.yul\":2127:2181   */\n      tag_327\n      jump\t// in\n    tag_416:\n        /* \"#utility.yul\":1846:2187   */\n      pop\n        /* \"#utility.yul\":1762:2187   */\n      swap4\n      swap3\n      pop\n      pop\n      pop\n      jump\t// out\n        /* \"#utility.yul\":2207:2547   */\n    tag_329:\n        /* \"#utility.yul\":2263:2268   */\n      0x00\n        /* \"#utility.yul\":2312:2315   */\n      dup3\n        /* \"#utility.yul\":2305:2309   */\n      0x1f\n        /* \"#utility.yul\":2297:2303   */\n      dup4\n        /* \"#utility.yul\":2293:2310   */\n      add\n        /* \"#utility.yul\":2289:2316   */\n      slt\n        /* \"#utility.yul\":2279:2401   */\n      tag_418\n      jumpi\n        /* \"#utility.yul\":2320:2399   */\n      tag_419\n      tag_320\n      jump\t// in\n    tag_419:\n        /* \"#utility.yul\":2279:2401   */\n    tag_418:\n        /* \"#utility.yul\":2437:2443   */\n      dup2\n        /* \"#utility.yul\":2424:2444   */\n      calldataload\n        /* \"#utility.yul\":2462:2541   */\n      tag_420\n        /* \"#utility.yul\":2537:2540   */\n      dup5\n        /* \"#utility.yul\":2529:2535   */\n      dup3\n        /* \"#utility.yul\":2522:2526   */\n      0x20\n        /* \"#utility.yul\":2514:2520   */\n      dup7\n        /* \"#utility.yul\":2510:2527   */\n      add\n        /* \"#utility.yul\":2462:2541   */\n      tag_328\n      jump\t// in\n    tag_420:\n        /* \"#utility.yul\":2453:2541   */\n      swap2\n      pop\n        /* \"#utility.yul\":2269:2547   */\n      pop\n        /* \"#utility.yul\":2207:2547   */\n      swap3\n      swap2\n      pop\n      pop\n      jump\t// out\n        /* \"#utility.yul\":2553:3062   */\n    tag_22:\n        /* \"#utility.yul\":2622:2628   */\n      0x00\n        /* \"#utility.yul\":2671:2673   */\n      0x20\n        /* \"#utility.yul\":2659:2668   */\n      dup3\n        /* \"#utility.yul\":2650:2657   */\n      dup5\n        /* \"#utility.yul\":2646:2669   */\n      sub\n        /* \"#utility.yul\":2642:2674   */\n      slt\n        /* \"#utility.yul\":2639:2758   */\n      iszero\n      tag_422\n      jumpi\n        /* \"#utility.yul\":2677:2756   */\n      tag_423\n      tag_318\n      jump\t// in\n    tag_423:\n        /* \"#utility.yul\":2639:2758   */\n    tag_422:\n        /* \"#utility.yul\":2825:2826   */\n      0x00\n        /* \"#utility.yul\":2814:2823   */\n      dup3\n        /* \"#utility.yul\":2810:2827   */\n      add\n        /* \"#utility.yul\":2797:2828   */\n      calldataload\n        /* \"#utility.yul\":2855:2873   */\n      0xffffffffffffffff\n        /* \"#utility.yul\":2847:2853   */\n      dup2\n        /* \"#utility.yul\":2844:2874   */\n      gt\n        /* \"#utility.yul\":2841:2958   */\n      iszero\n      tag_424\n      jumpi\n        /* \"#utility.yul\":2877:2956   */\n      tag_425\n      tag_319\n      jump\t// in\n    tag_425:\n        /* \"#utility.yul\":2841:2958   */\n    tag_424:\n        /* \"#utility.yul\":2982:3045   */\n      tag_426\n        /* \"#utility.yul\":3037:3044   */\n      dup5\n        /* \"#utility.yul\":3028:3034   */\n      dup3\n        /* \"#utility.yul\":3017:3026   */\n      dup6\n        /* \"#utility.yul\":3013:3035   */\n      add\n        /* \"#utility.yul\":2982:3045   */\n      tag_329\n      jump\t// in\n    tag_426:\n        /* \"#utility.yul\":2972:3045   */\n      swap2\n      pop\n        /* \"#utility.yul\":2768:3055   */\n      pop\n        /* \"#utility.yul\":2553:3062   */\n      swap3\n      swap2\n      pop\n      pop\n      jump\t// out\n        /* \"#utility.yul\":3068:3145   */\n    tag_330:\n        /* \"#utility.yul\":3105:3112   */\n      0x00\n        /* \"#utility.yul\":3134:3139   */\n      dup2\n        /* \"#utility.yul\":3123:3139   */\n      swap1\n      pop\n        /* \"#utility.yul\":3068:3145   */\n      swap2\n      swap1\n      pop\n      jump\t// out\n        /* \"#utility.yul\":3151:3273   */\n    tag_331:\n        /* \"#utility.yul\":3224:3248   */\n      tag_429\n        /* \"#utility.yul\":3242:3247   */\n      dup2\n        /* \"#utility.yul\":3224:3248   */\n      tag_330\n      jump\t// in\n    tag_429:\n        /* \"#utility.yul\":3217:3222   */\n      dup2\n        /* \"#utility.yul\":3214:3249   */\n      eq\n        /* \"#utility.yul\":3204:3267   */\n      tag_430\n      jumpi\n        /* \"#utility.yul\":3263:3264   */\n      0x00\n        /* \"#utility.yul\":3260:3261   */\n      dup1\n        /* \"#utility.yul\":3253:3265   */\n      revert\n        /* \"#utility.yul\":3204:3267   */\n    tag_430:\n        /* \"#utility.yul\":3151:3273   */\n      pop\n      jump\t// out\n        /* \"#utility.yul\":3279:3418   */\n    tag_332:\n        /* \"#utility.yul\":3325:3330   */\n      0x00\n        /* \"#utility.yul\":3363:3369   */\n      dup2\n        /* \"#utility.yul\":3350:3370   */\n      calldataload\n        /* \"#utility.yul\":3341:3370   */\n      swap1\n      pop\n        /* \"#utility.yul\":3379:3412   */\n      tag_432\n        /* \"#utility.yul\":3406:3411   */\n      dup2\n        /* \"#utility.yul\":3379:3412   */\n      tag_331\n      jump\t// in\n    tag_432:\n        /* \"#utility.yul\":3279:3418   */\n      swap3\n      swap2\n      pop\n      pop\n      jump\t// out\n        /* \"#utility.yul\":3424:3501   */\n    tag_333:\n        /* \"#utility.yul\":3461:3468   */\n      0x00\n        /* \"#utility.yul\":3490:3495   */\n      dup2\n        /* \"#utility.yul\":3479:3495   */\n      swap1\n      pop\n        /* \"#utility.yul\":3424:3501   */\n      swap2\n      swap1\n      pop\n      jump\t// out\n        /* \"#utility.yul\":3507:3629   */\n    tag_334:\n        /* \"#utility.yul\":3580:3604   */\n      tag_435\n        /* \"#utility.yul\":3598:3603   */\n      dup2\n        /* \"#utility.yul\":3580:3604   */\n      tag_333\n      jump\t// in\n    tag_435:\n        /* \"#utility.yul\":3573:3578   */\n      dup2\n        /* \"#utility.yul\":3570:3605   */\n      eq\n        /* \"#utility.yul\":3560:3623   */\n      tag_436\n      jumpi\n        /* \"#utility.yul\":3619:3620   */\n      0x00\n        /* \"#utility.yul\":3616:3617   */\n      dup1\n        /* \"#utility.yul\":3609:3621   */\n      revert\n        /* \"#utility.yul\":3560:3623   */\n    tag_436:\n        /* \"#utility.yul\":3507:3629   */\n      pop\n      jump\t// out\n        /* \"#utility.yul\":3635:3774   */\n    tag_335:\n        /* \"#utility.yul\":3681:3686   */\n      0x00\n        /* \"#utility.yul\":3719:3725   */\n      dup2\n        /* \"#utility.yul\":3706:3726   */\n      calldataload\n        /* \"#utility.yul\":3697:3726   */\n      swap1\n      pop\n        /* \"#utility.yul\":3735:3768   */\n      tag_438\n        /* \"#utility.yul\":3762:3767   */\n      dup2\n        /* \"#utility.yul\":3735:3768   */\n      tag_334\n      jump\t// in\n    tag_438:\n        /* \"#utility.yul\":3635:3774   */\n      swap3\n      swap2\n      pop\n      pop\n      jump\t// out\n        /* \"#utility.yul\":3780:4254   */\n    tag_29:\n        /* \"#utility.yul\":3848:3854   */\n      0x00\n        /* \"#utility.yul\":3856:3862   */\n      dup1\n        /* \"#utility.yul\":3905:3907   */\n      0x40\n        /* \"#utility.yul\":3893:3902   */\n      dup4\n        /* \"#utility.yul\":3884:3891   */\n      dup6\n        /* \"#utility.yul\":3880:3903   */\n      sub\n        /* \"#utility.yul\":3876:3908   */\n      slt\n        /* \"#utility.yul\":3873:3992   */\n      iszero\n      tag_440\n      jumpi\n        /* \"#utility.yul\":3911:3990   */\n      tag_441\n      tag_318\n      jump\t// in\n    tag_441:\n        /* \"#utility.yul\":3873:3992   */\n    tag_440:\n        /* \"#utility.yul\":4031:4032   */\n      0x00\n        /* \"#utility.yul\":4056:4109   */\n      tag_442\n        /* \"#utility.yul\":4101:4108   */\n      dup6\n        /* \"#utility.yul\":4092:4098   */\n      dup3\n        /* \"#utility.yul\":4081:4090   */\n      dup7\n        /* \"#utility.yul\":4077:4099   */\n      add\n        /* \"#utility.yul\":4056:4109   */\n      tag_332\n      jump\t// in\n    tag_442:\n        /* \"#utility.yul\":4046:4109   */\n      swap3\n      pop\n        /* \"#utility.yul\":4002:4119   */\n      pop\n        /* \"#utility.yul\":4158:4160   */\n      0x20\n        /* \"#utility.yul\":4184:4237   */\n      tag_443\n        /* \"#utility.yul\":4229:4236   */\n      dup6\n        /* \"#utility.yul\":4220:4226   */\n      dup3\n        /* \"#utility.yul\":4209:4218   */\n      dup7\n        /* \"#utility.yul\":4205:4227   */\n      add\n        /* \"#utility.yul\":4184:4237   */\n      tag_335\n      jump\t// in\n    tag_443:\n        /* \"#utility.yul\":4174:4237   */\n      swap2\n      pop\n        /* \"#utility.yul\":4129:4247   */\n      pop\n        /* \"#utility.yul\":3780:4254   */\n      swap3\n      pop\n      swap3\n      swap1\n      pop\n      jump\t// out\n        /* \"#utility.yul\":4260:4386   */\n    tag_336:\n        /* \"#utility.yul\":4297:4304   */\n      0x00\n        /* \"#utility.yul\":4337:4379   */\n      0xffffffffffffffffffffffffffffffffffffffff\n        /* \"#utility.yul\":4330:4335   */\n      dup3\n        /* \"#utility.yul\":4326:4380   */\n      and\n        /* \"#utility.yul\":4315:4380   */\n      swap1\n      pop\n        /* \"#utility.yul\":4260:4386   */\n      swap2\n      swap1\n      pop\n      jump\t// out\n        /* \"#utility.yul\":4392:4488   */\n    tag_337:\n        /* \"#utility.yul\":4429:4436   */\n      0x00\n        /* \"#utility.yul\":4458:4482   */\n      tag_446\n        /* \"#utility.yul\":4476:4481   */\n      dup3\n        /* \"#utility.yul\":4458:4482   */\n      tag_336\n      jump\t// in\n    tag_446:\n        /* \"#utility.yul\":4447:4482   */\n      swap1\n      pop\n        /* \"#utility.yul\":4392:4488   */\n      swap2\n      swap1\n      pop\n      jump\t// out\n        /* \"#utility.yul\":4494:4616   */\n    tag_338:\n        /* \"#utility.yul\":4567:4591   */\n      tag_448\n        /* \"#utility.yul\":4585:4590   */\n      dup2\n        /* \"#utility.yul\":4567:4591   */\n      tag_337\n      jump\t// in\n    tag_448:\n        /* \"#utility.yul\":4560:4565   */\n      dup2\n        /* \"#utility.yul\":4557:4592   */\n      eq\n        /* \"#utility.yul\":4547:4610   */\n      tag_449\n      jumpi\n        /* \"#utility.yul\":4606:4607   */\n      0x00\n        /* \"#utility.yul\":4603:4604   */\n      dup1\n        /* \"#utility.yul\":4596:4608   */\n      revert\n        /* \"#utility.yul\":4547:4610   */\n    tag_449:\n        /* \"#utility.yul\":4494:4616   */\n      pop\n      jump\t// out\n        /* \"#utility.yul\":4622:4761   */\n    tag_339:\n        /* \"#utility.yul\":4668:4673   */\n      0x00\n        /* \"#utility.yul\":4706:4712   */\n      dup2\n        /* \"#utility.yul\":4693:4713   */\n      calldataload\n        /* \"#utility.yul\":4684:4713   */\n      swap1\n      pop\n        /* \"#utility.yul\":4722:4755   */\n      tag_451\n        /* \"#utility.yul\":4749:4754   */\n      dup2\n        /* \"#utility.yul\":4722:4755   */\n      tag_338\n      jump\t// in\n    tag_451:\n        /* \"#utility.yul\":4622:4761   */\n      swap3\n      swap2\n      pop\n      pop\n      jump\t// out\n        /* \"#utility.yul\":4767:5096   */\n    tag_33:\n        /* \"#utility.yul\":4826:4832   */\n      0x00\n        /* \"#utility.yul\":4875:4877   */\n      0x20\n        /* \"#utility.yul\":4863:4872   */\n      dup3\n        /* \"#utility.yul\":4854:4861   */\n      dup5\n        /* \"#utility.yul\":4850:4873   */\n      sub\n        /* \"#utility.yul\":4846:4878   */\n      slt\n        /* \"#utility.yul\":4843:4962   */\n      iszero\n      tag_453\n      jumpi\n        /* \"#utility.yul\":4881:4960   */\n      tag_454\n      tag_318\n      jump\t// in\n    tag_454:\n        /* \"#utility.yul\":4843:4962   */\n    tag_453:\n        /* \"#utility.yul\":5001:5002   */\n      0x00\n        /* \"#utility.yul\":5026:5079   */\n      tag_455\n        /* \"#utility.yul\":5071:5078   */\n      dup5\n        /* \"#utility.yul\":5062:5068   */\n      dup3\n        /* \"#utility.yul\":5051:5060   */\n      dup6\n        /* \"#utility.yul\":5047:5069   */\n      add\n        /* \"#utility.yul\":5026:5079   */\n      tag_339\n      jump\t// in\n    tag_455:\n        /* \"#utility.yul\":5016:5079   */\n      swap2\n      pop\n        /* \"#utility.yul\":4972:5089   */\n      pop\n        /* \"#utility.yul\":4767:5096   */\n      swap3\n      swap2\n      pop\n      pop\n      jump\t// out\n        /* \"#utility.yul\":5102:5220   */\n    tag_340:\n        /* \"#utility.yul\":5189:5213   */\n      tag_457\n        /* \"#utility.yul\":5207:5212   */\n      dup2\n        /* \"#utility.yul\":5189:5213   */\n      tag_333\n      jump\t// in\n    tag_457:\n        /* \"#utility.yul\":5184:5187   */\n      dup3\n        /* \"#utility.yul\":5177:5214   */\n      mstore\n        /* \"#utility.yul\":5102:5220   */\n      pop\n      pop\n      jump\t// out\n        /* \"#utility.yul\":5226:5448   */\n    tag_38:\n        /* \"#utility.yul\":5319:5323   */\n      0x00\n        /* \"#utility.yul\":5357:5359   */\n      0x20\n        /* \"#utility.yul\":5346:5355   */\n      dup3\n        /* \"#utility.yul\":5342:5360   */\n      add\n        /* \"#utility.yul\":5334:5360   */\n      swap1\n      pop\n        /* \"#utility.yul\":5370:5441   */\n      tag_459\n        /* \"#utility.yul\":5438:5439   */\n      0x00\n        /* \"#utility.yul\":5427:5436   */\n      dup4\n        /* \"#utility.yul\":5423:5440   */\n      add\n        /* \"#utility.yul\":5414:5420   */\n      dup5\n        /* \"#utility.yul\":5370:5441   */\n      tag_340\n      jump\t// in\n    tag_459:\n        /* \"#utility.yul\":5226:5448   */\n      swap3\n      swap2\n      pop\n      pop\n      jump\t// out\n        /* \"#utility.yul\":5454:5572   */\n    tag_341:\n        /* \"#utility.yul\":5541:5565   */\n      tag_461\n        /* \"#utility.yul\":5559:5564   */\n      dup2\n        /* \"#utility.yul\":5541:5565   */\n      tag_337\n      jump\t// in\n    tag_461:\n        /* \"#utility.yul\":5536:5539   */\n      dup3\n        /* \"#utility.yul\":5529:5566   */\n      mstore\n        /* \"#utility.yul\":5454:5572   */\n      pop\n      pop\n      jump\t// out\n        /* \"#utility.yul\":5578:5800   */\n    tag_47:\n        /* \"#utility.yul\":5671:5675   */\n      0x00\n        /* \"#utility.yul\":5709:5711   */\n      0x20\n        /* \"#utility.yul\":5698:5707   */\n      dup3\n        /* \"#utility.yul\":5694:5712   */\n      add\n        /* \"#utility.yul\":5686:5712   */\n      swap1\n      pop\n        /* \"#utility.yul\":5722:5793   */\n      tag_463\n        /* \"#utility.yul\":5790:5791   */\n      0x00\n        /* \"#utility.yul\":5779:5788   */\n      dup4\n        /* \"#utility.yul\":5775:5792   */\n      add\n        /* \"#utility.yul\":5766:5772   */\n      dup5\n        /* \"#utility.yul\":5722:5793   */\n      tag_341\n      jump\t// in\n    tag_463:\n        /* \"#utility.yul\":5578:5800   */\n      swap3\n      swap2\n      pop\n      pop\n      jump\t// out\n        /* \"#utility.yul\":5806:5905   */\n    tag_342:\n        /* \"#utility.yul\":5858:5864   */\n      0x00\n        /* \"#utility.yul\":5892:5897   */\n      dup2\n        /* \"#utility.yul\":5886:5898   */\n      mload\n        /* \"#utility.yul\":5876:5898   */\n      swap1\n      pop\n        /* \"#utility.yul\":5806:5905   */\n      swap2\n      swap1\n      pop\n      jump\t// out\n        /* \"#utility.yul\":5911:6080   */\n    tag_343:\n        /* \"#utility.yul\":5995:6006   */\n      0x00\n        /* \"#utility.yul\":6029:6035   */\n      dup3\n        /* \"#utility.yul\":6024:6027   */\n      dup3\n        /* \"#utility.yul\":6017:6036   */\n      mstore\n        /* \"#utility.yul\":6069:6073   */\n      0x20\n        /* \"#utility.yul\":6064:6067   */\n      dup3\n        /* \"#utility.yul\":6060:6074   */\n      add\n        /* \"#utility.yul\":6045:6074   */\n      swap1\n      pop\n        /* \"#utility.yul\":5911:6080   */\n      swap3\n      swap2\n      pop\n      pop\n      jump\t// out\n        /* \"#utility.yul\":6086:6332   */\n    tag_344:\n        /* \"#utility.yul\":6167:6168   */\n      0x00\n        /* \"#utility.yul\":6177:6290   */\n    tag_467:\n        /* \"#utility.yul\":6191:6197   */\n      dup4\n        /* \"#utility.yul\":6188:6189   */\n      dup2\n        /* \"#utility.yul\":6185:6198   */\n      lt\n        /* \"#utility.yul\":6177:6290   */\n      iszero\n      tag_469\n      jumpi\n        /* \"#utility.yul\":6276:6277   */\n      dup1\n        /* \"#utility.yul\":6271:6274   */\n      dup3\n        /* \"#utility.yul\":6267:6278   */\n      add\n        /* \"#utility.yul\":6261:6279   */\n      mload\n        /* \"#utility.yul\":6257:6258   */\n      dup2\n        /* \"#utility.yul\":6252:6255   */\n      dup5\n        /* \"#utility.yul\":6248:6259   */\n      add\n        /* \"#utility.yul\":6241:6280   */\n      mstore\n        /* \"#utility.yul\":6213:6215   */\n      0x20\n        /* \"#utility.yul\":6210:6211   */\n      dup2\n        /* \"#utility.yul\":6206:6216   */\n      add\n        /* \"#utility.yul\":6201:6216   */\n      swap1\n      pop\n        /* \"#utility.yul\":6177:6290   */\n      jump(tag_467)\n    tag_469:\n        /* \"#utility.yul\":6324:6325   */\n      0x00\n        /* \"#utility.yul\":6315:6321   */\n      dup5\n        /* \"#utility.yul\":6310:6313   */\n      dup5\n        /* \"#utility.yul\":6306:6322   */\n      add\n        /* \"#utility.yul\":6299:6326   */\n      mstore\n        /* \"#utility.yul\":6148:6332   */\n      pop\n        /* \"#utility.yul\":6086:6332   */\n      pop\n      pop\n      pop\n      jump\t// out\n        /* \"#utility.yul\":6338:6715   */\n    tag_345:\n        /* \"#utility.yul\":6426:6429   */\n      0x00\n        /* \"#utility.yul\":6454:6493   */\n      tag_471\n        /* \"#utility.yul\":6487:6492   */\n      dup3\n        /* \"#utility.yul\":6454:6493   */\n      tag_342\n      jump\t// in\n    tag_471:\n        /* \"#utility.yul\":6509:6580   */\n      tag_472\n        /* \"#utility.yul\":6573:6579   */\n      dup2\n        /* \"#utility.yul\":6568:6571   */\n      dup6\n        /* \"#utility.yul\":6509:6580   */\n      tag_343\n      jump\t// in\n    tag_472:\n        /* \"#utility.yul\":6502:6580   */\n      swap4\n      pop\n        /* \"#utility.yul\":6589:6654   */\n      tag_473\n        /* \"#utility.yul\":6647:6653   */\n      dup2\n        /* \"#utility.yul\":6642:6645   */\n      dup6\n        /* \"#utility.yul\":6635:6639   */\n      0x20\n        /* \"#utility.yul\":6628:6633   */\n      dup7\n        /* \"#utility.yul\":6624:6640   */\n      add\n        /* \"#utility.yul\":6589:6654   */\n      tag_344\n      jump\t// in\n    tag_473:\n        /* \"#utility.yul\":6679:6708   */\n      tag_474\n        /* \"#utility.yul\":6701:6707   */\n      dup2\n        /* \"#utility.yul\":6679:6708   */\n      tag_322\n      jump\t// in\n    tag_474:\n        /* \"#utility.yul\":6674:6677   */\n      dup5\n        /* \"#utility.yul\":6670:6709   */\n      add\n        /* \"#utility.yul\":6663:6709   */\n      swap2\n      pop\n        /* \"#utility.yul\":6430:6715   */\n      pop\n        /* \"#utility.yul\":6338:6715   */\n      swap3\n      swap2\n      pop\n      pop\n      jump\t// out\n        /* \"#utility.yul\":6721:7034   */\n    tag_53:\n        /* \"#utility.yul\":6834:6838   */\n      0x00\n        /* \"#utility.yul\":6872:6874   */\n      0x20\n        /* \"#utility.yul\":6861:6870   */\n      dup3\n        /* \"#utility.yul\":6857:6875   */\n      add\n        /* \"#utility.yul\":6849:6875   */\n      swap1\n      pop\n        /* \"#utility.yul\":6921:6930   */\n      dup2\n        /* \"#utility.yul\":6915:6919   */\n      dup2\n        /* \"#utility.yul\":6911:6931   */\n      sub\n        /* \"#utility.yul\":6907:6908   */\n      0x00\n        /* \"#utility.yul\":6896:6905   */\n      dup4\n        /* \"#utility.yul\":6892:6909   */\n      add\n        /* \"#utility.yul\":6885:6932   */\n      mstore\n        /* \"#utility.yul\":6949:7027   */\n      tag_476\n        /* \"#utility.yul\":7022:7026   */\n      dup2\n        /* \"#utility.yul\":7013:7019   */\n      dup5\n        /* \"#utility.yul\":6949:7027   */\n      tag_345\n      jump\t// in\n    tag_476:\n        /* \"#utility.yul\":6941:7027   */\n      swap1\n      pop\n        /* \"#utility.yul\":6721:7034   */\n      swap3\n      swap2\n      pop\n      pop\n      jump\t// out\n        /* \"#utility.yul\":7040:7369   */\n    tag_59:\n        /* \"#utility.yul\":7099:7105   */\n      0x00\n        /* \"#utility.yul\":7148:7150   */\n      0x20\n        /* \"#utility.yul\":7136:7145   */\n      dup3\n        /* \"#utility.yul\":7127:7134   */\n      dup5\n        /* \"#utility.yul\":7123:7146   */\n      sub\n        /* \"#utility.yul\":7119:7151   */\n      slt\n        /* \"#utility.yul\":7116:7235   */\n      iszero\n      tag_478\n      jumpi\n        /* \"#utility.yul\":7154:7233   */\n      tag_479\n      tag_318\n      jump\t// in\n    tag_479:\n        /* \"#utility.yul\":7116:7235   */\n    tag_478:\n        /* \"#utility.yul\":7274:7275   */\n      0x00\n        /* \"#utility.yul\":7299:7352   */\n      tag_480\n        /* \"#utility.yul\":7344:7351   */\n      dup5\n        /* \"#utility.yul\":7335:7341   */\n      dup3\n        /* \"#utility.yul\":7324:7333   */\n      dup6\n        /* \"#utility.yul\":7320:7342   */\n      add\n        /* \"#utility.yul\":7299:7352   */\n      tag_335\n      jump\t// in\n    tag_480:\n        /* \"#utility.yul\":7289:7352   */\n      swap2\n      pop\n        /* \"#utility.yul\":7245:7362   */\n      pop\n        /* \"#utility.yul\":7040:7369   */\n      swap3\n      swap2\n      pop\n      pop\n      jump\t// out\n        /* \"#utility.yul\":7375:7473   */\n    tag_346:\n        /* \"#utility.yul\":7426:7432   */\n      0x00\n        /* \"#utility.yul\":7460:7465   */\n      dup2\n        /* \"#utility.yul\":7454:7466   */\n      mload\n        /* \"#utility.yul\":7444:7466   */\n      swap1\n      pop\n        /* \"#utility.yul\":7375:7473   */\n      swap2\n      swap1\n      pop\n      jump\t// out\n        /* \"#utility.yul\":7479:7595   */\n    tag_347:\n        /* \"#utility.yul\":7530:7534   */\n      0x00\n        /* \"#utility.yul\":7553:7556   */\n      dup2\n        /* \"#utility.yul\":7545:7556   */\n      swap1\n      pop\n        /* \"#utility.yul\":7583:7587   */\n      0x20\n        /* \"#utility.yul\":7578:7581   */\n      dup3\n        /* \"#utility.yul\":7574:7588   */\n      add\n        /* \"#utility.yul\":7566:7588   */\n      swap1\n      pop\n        /* \"#utility.yul\":7479:7595   */\n      swap2\n      swap1\n      pop\n      jump\t// out\n        /* \"#utility.yul\":7601:7755   */\n    tag_348:\n        /* \"#utility.yul\":7644:7655   */\n      0x00\n        /* \"#utility.yul\":7680:7709   */\n      tag_484\n        /* \"#utility.yul\":7704:7707   */\n      dup3\n        /* \"#utility.yul\":7698:7708   */\n      mload\n        /* \"#utility.yul\":7680:7709   */\n      tag_330\n      jump\t// in\n    tag_484:\n        /* \"#utility.yul\":7743:7748   */\n      dup1\n        /* \"#utility.yul\":7719:7748   */\n      swap2\n      pop\n        /* \"#utility.yul\":7656:7755   */\n      pop\n        /* \"#utility.yul\":7601:7755   */\n      swap2\n      swap1\n      pop\n      jump\t// out\n        /* \"#utility.yul\":7761:7868   */\n    tag_349:\n        /* \"#utility.yul\":7805:7813   */\n      0x00\n        /* \"#utility.yul\":7855:7860   */\n      dup3\n        /* \"#utility.yul\":7849:7853   */\n      dup3\n        /* \"#utility.yul\":7845:7861   */\n      shl\n        /* \"#utility.yul\":7824:7861   */\n      swap1\n      pop\n        /* \"#utility.yul\":7761:7868   */\n      swap3\n      swap2\n      pop\n      pop\n      jump\t// out\n        /* \"#utility.yul\":7874:8468   */\n    tag_72:\n        /* \"#utility.yul\":7958:7963   */\n      0x00\n        /* \"#utility.yul\":7989:8027   */\n      tag_487\n        /* \"#utility.yul\":8021:8026   */\n      dup3\n        /* \"#utility.yul\":7989:8027   */\n      tag_346\n      jump\t// in\n    tag_487:\n        /* \"#utility.yul\":8052:8057   */\n      dup3\n        /* \"#utility.yul\":8079:8119   */\n      tag_488\n        /* \"#utility.yul\":8113:8118   */\n      dup5\n        /* \"#utility.yul\":8079:8119   */\n      tag_347\n      jump\t// in\n    tag_488:\n        /* \"#utility.yul\":8067:8119   */\n      swap1\n      pop\n        /* \"#utility.yul\":8138:8173   */\n      tag_489\n        /* \"#utility.yul\":8164:8172   */\n      dup2\n        /* \"#utility.yul\":8138:8173   */\n      tag_348\n      jump\t// in\n    tag_489:\n        /* \"#utility.yul\":8129:8173   */\n      swap3\n      pop\n        /* \"#utility.yul\":8197:8199   */\n      0x20\n        /* \"#utility.yul\":8189:8195   */\n      dup3\n        /* \"#utility.yul\":8186:8200   */\n      lt\n        /* \"#utility.yul\":8183:8461   */\n      iszero\n      tag_490\n      jumpi\n        /* \"#utility.yul\":8268:8437   */\n      tag_491\n        /* \"#utility.yul\":8353:8419   */\n      0xffffffffffffffffffffffffffffffffffffffffffffffffffffffffffffffff\n        /* \"#utility.yul\":8323:8329   */\n      dup4\n        /* \"#utility.yul\":8319:8321   */\n      0x20\n        /* \"#utility.yul\":8315:8330   */\n      sub\n        /* \"#utility.yul\":8312:8313   */\n      0x08\n        /* \"#utility.yul\":8308:8331   */\n      mul\n        /* \"#utility.yul\":8268:8437   */\n      tag_349\n      jump\t// in\n    tag_491:\n        /* \"#utility.yul\":8245:8250   */\n      dup4\n        /* \"#utility.yul\":8224:8451   */\n      and\n        /* \"#utility.yul\":8215:8451   */\n      swap3\n      pop\n        /* \"#utility.yul\":8183:8461   */\n    tag_490:\n        /* \"#utility.yul\":7964:8468   */\n      pop\n      pop\n        /* \"#utility.yul\":7874:8468   */\n      swap2\n      swap1\n      pop\n      jump\t// out\n        /* \"#utility.yul\":8474:8622   */\n    tag_350:\n        /* \"#utility.yul\":8576:8587   */\n      0x00\n        /* \"#utility.yul\":8613:8616   */\n      dup2\n        /* \"#utility.yul\":8598:8616   */\n      swap1\n      pop\n        /* \"#utility.yul\":8474:8622   */\n      swap3\n      swap2\n      pop\n      pop\n      jump\t// out\n        /* \"#utility.yul\":8628:9018   */\n    tag_351:\n        /* \"#utility.yul\":8734:8737   */\n      0x00\n        /* \"#utility.yul\":8762:8801   */\n      tag_494\n        /* \"#utility.yul\":8795:8800   */\n      dup3\n        /* \"#utility.yul\":8762:8801   */\n      tag_342\n      jump\t// in\n    tag_494:\n        /* \"#utility.yul\":8817:8906   */\n      tag_495\n        /* \"#utility.yul\":8899:8905   */\n      dup2\n        /* \"#utility.yul\":8894:8897   */\n      dup6\n        /* \"#utility.yul\":8817:8906   */\n      tag_350\n      jump\t// in\n    tag_495:\n        /* \"#utility.yul\":8810:8906   */\n      swap4\n      pop\n        /* \"#utility.yul\":8915:8980   */\n      tag_496\n        /* \"#utility.yul\":8973:8979   */\n      dup2\n        /* \"#utility.yul\":8968:8971   */\n      dup6\n        /* \"#utility.yul\":8961:8965   */\n      0x20\n        /* \"#utility.yul\":8954:8959   */\n      dup7\n        /* \"#utility.yul\":8950:8966   */\n      add\n        /* \"#utility.yul\":8915:8980   */\n      tag_344\n      jump\t// in\n    tag_496:\n        /* \"#utility.yul\":9005:9011   */\n      dup1\n        /* \"#utility.yul\":9000:9003   */\n      dup5\n        /* \"#utility.yul\":8996:9012   */\n      add\n        /* \"#utility.yul\":8989:9012   */\n      swap2\n      pop\n        /* \"#utility.yul\":8738:9018   */\n      pop\n        /* \"#utility.yul\":8628:9018   */\n      swap3\n      swap2\n      pop\n      pop\n      jump\t// out\n        /* \"#utility.yul\":9024:9459   */\n    tag_77:\n        /* \"#utility.yul\":9204:9207   */\n      0x00\n        /* \"#utility.yul\":9226:9321   */\n      tag_498\n        /* \"#utility.yul\":9317:9320   */\n      dup3\n        /* \"#utility.yul\":9308:9314   */\n      dup6\n        /* \"#utility.yul\":9226:9321   */\n      tag_351\n      jump\t// in\n    tag_498:\n        /* \"#utility.yul\":9219:9321   */\n      swap2\n      pop\n        /* \"#utility.yul\":9338:9433   */\n      tag_499\n        /* \"#utility.yul\":9429:9432   */\n      dup3\n        /* \"#utility.yul\":9420:9426   */\n      dup5\n        /* \"#utility.yul\":9338:9433   */\n      tag_351\n      jump\t// in\n    tag_499:\n        /* \"#utility.yul\":9331:9433   */\n      swap2\n      pop\n        /* \"#utility.yul\":9450:9453   */\n      dup2\n        /* \"#utility.yul\":9443:9453   */\n      swap1\n      pop\n        /* \"#utility.yul\":9024:9459   */\n      swap4\n      swap3\n      pop\n      pop\n      pop\n      jump\t// out\n        /* \"#utility.yul\":9465:9692   */\n    tag_352:\n        /* \"#utility.yul\":9605:9639   */\n      0x536f75726365206d75737420626520746865206f7261636c65206f6620746865\n        /* \"#utility.yul\":9601:9602   */\n      0x00\n        /* \"#utility.yul\":9593:9599   */\n      dup3\n        /* \"#utility.yul\":9589:9603   */\n      add\n        /* \"#utility.yul\":9582:9640   */\n      mstore\n        /* \"#utility.yul\":9674:9684   */\n      0x2072657175657374000000000000000000000000000000000000000000000000\n        /* \"#utility.yul\":9669:9671   */\n      0x20\n        /* \"#utility.yul\":9661:9667   */\n      dup3\n        /* \"#utility.yul\":9657:9672   */\n      add\n        /* \"#utility.yul\":9650:9685   */\n      mstore\n        /* \"#utility.yul\":9465:9692   */\n      pop\n      jump\t// out\n        /* \"#utility.yul\":9698:10064   */\n    tag_353:\n        /* \"#utility.yul\":9840:9843   */\n      0x00\n        /* \"#utility.yul\":9861:9928   */\n      tag_502\n        /* \"#utility.yul\":9925:9927   */\n      0x28\n        /* \"#utility.yul\":9920:9923   */\n      dup4\n        /* \"#utility.yul\":9861:9928   */\n      tag_343\n      jump\t// in\n    tag_502:\n        /* \"#utility.yul\":9854:9928   */\n      swap2\n      pop\n        /* \"#utility.yul\":9937:10030   */\n      tag_503\n        /* \"#utility.yul\":10026:10029   */\n      dup3\n        /* \"#utility.yul\":9937:10030   */\n      tag_352\n      jump\t// in\n    tag_503:\n        /* \"#utility.yul\":10055:10057   */\n      0x40\n        /* \"#utility.yul\":10050:10053   */\n      dup3\n        /* \"#utility.yul\":10046:10058   */\n      add\n        /* \"#utility.yul\":10039:10058   */\n      swap1\n      pop\n        /* \"#utility.yul\":9698:10064   */\n      swap2\n      swap1\n      pop\n      jump\t// out\n        /* \"#utility.yul\":10070:10489   */\n    tag_92:\n        /* \"#utility.yul\":10236:10240   */\n      0x00\n        /* \"#utility.yul\":10274:10276   */\n      0x20\n        /* \"#utility.yul\":10263:10272   */\n      dup3\n        /* \"#utility.yul\":10259:10277   */\n      add\n        /* \"#utility.yul\":10251:10277   */\n      swap1\n      pop\n        /* \"#utility.yul\":10323:10332   */\n      dup2\n        /* \"#utility.yul\":10317:10321   */\n      dup2\n        /* \"#utility.yul\":10313:10333   */\n      sub\n        /* \"#utility.yul\":10309:10310   */\n      0x00\n        /* \"#utility.yul\":10298:10307   */\n      dup4\n        /* \"#utility.yul\":10294:10311   */\n      add\n        /* \"#utility.yul\":10287:10334   */\n      mstore\n        /* \"#utility.yul\":10351:10482   */\n      tag_505\n        /* \"#utility.yul\":10477:10481   */\n      dup2\n        /* \"#utility.yul\":10351:10482   */\n      tag_353\n      jump\t// in\n    tag_505:\n        /* \"#utility.yul\":10343:10482   */\n      swap1\n      pop\n        /* \"#utility.yul\":10070:10489   */\n      swap2\n      swap1\n      pop\n      jump\t// out\n        /* \"#utility.yul\":10495:10675   */\n    tag_354:\n        /* \"#utility.yul\":10543:10620   */\n      0x4e487b7100000000000000000000000000000000000000000000000000000000\n        /* \"#utility.yul\":10540:10541   */\n      0x00\n        /* \"#utility.yul\":10533:10621   */\n      mstore\n        /* \"#utility.yul\":10640:10644   */\n      0x11\n        /* \"#utility.yul\":10637:10638   */\n      0x04\n        /* \"#utility.yul\":10630:10645   */\n      mstore\n        /* \"#utility.yul\":10664:10668   */\n      0x24\n        /* \"#utility.yul\":10661:10662   */\n      0x00\n        /* \"#utility.yul\":10654:10669   */\n      revert\n        /* \"#utility.yul\":10681:11091   */\n    tag_103:\n        /* \"#utility.yul\":10721:10728   */\n      0x00\n        /* \"#utility.yul\":10744:10764   */\n      tag_508\n        /* \"#utility.yul\":10762:10763   */\n      dup3\n        /* \"#utility.yul\":10744:10764   */\n      tag_333\n      jump\t// in\n    tag_508:\n        /* \"#utility.yul\":10739:10764   */\n      swap2\n      pop\n        /* \"#utility.yul\":10778:10798   */\n      tag_509\n        /* \"#utility.yul\":10796:10797   */\n      dup4\n        /* \"#utility.yul\":10778:10798   */\n      tag_333\n      jump\t// in\n    tag_509:\n        /* \"#utility.yul\":10773:10798   */\n      swap3\n      pop\n        /* \"#utility.yul\":10833:10834   */\n      dup3\n        /* \"#utility.yul\":10830:10831   */\n      dup3\n        /* \"#utility.yul\":10826:10835   */\n      mul\n        /* \"#utility.yul\":10855:10885   */\n      tag_510\n        /* \"#utility.yul\":10873:10884   */\n      dup2\n        /* \"#utility.yul\":10855:10885   */\n      tag_333\n      jump\t// in\n    tag_510:\n        /* \"#utility.yul\":10844:10885   */\n      swap2\n      pop\n        /* \"#utility.yul\":11034:11035   */\n      dup3\n        /* \"#utility.yul\":11025:11032   */\n      dup3\n        /* \"#utility.yul\":11021:11036   */\n      div\n        /* \"#utility.yul\":11018:11019   */\n      dup5\n        /* \"#utility.yul\":11015:11037   */\n      eq\n        /* \"#utility.yul\":10995:10996   */\n      dup4\n        /* \"#utility.yul\":10988:10997   */\n      iszero\n        /* \"#utility.yul\":10968:11051   */\n      or\n        /* \"#utility.yul\":10945:11084   */\n      tag_511\n      jumpi\n        /* \"#utility.yul\":11064:11082   */\n      tag_512\n      tag_354\n      jump\t// in\n    tag_512:\n        /* \"#utility.yul\":10945:11084   */\n    tag_511:\n        /* \"#utility.yul\":10729:11091   */\n      pop\n        /* \"#utility.yul\":10681:11091   */\n      swap3\n      swap2\n      pop\n      pop\n      jump\t// out\n        /* \"#utility.yul\":11097:11277   */\n    tag_355:\n        /* \"#utility.yul\":11145:11222   */\n      0x4e487b7100000000000000000000000000000000000000000000000000000000\n        /* \"#utility.yul\":11142:11143   */\n      0x00\n        /* \"#utility.yul\":11135:11223   */\n      mstore\n        /* \"#utility.yul\":11242:11246   */\n      0x12\n        /* \"#utility.yul\":11239:11240   */\n      0x04\n        /* \"#utility.yul\":11232:11247   */\n      mstore\n        /* \"#utility.yul\":11266:11270   */\n      0x24\n        /* \"#utility.yul\":11263:11264   */\n      0x00\n        /* \"#utility.yul\":11256:11271   */\n      revert\n        /* \"#utility.yul\":11283:11468   */\n    tag_105:\n        /* \"#utility.yul\":11323:11324   */\n      0x00\n        /* \"#utility.yul\":11340:11360   */\n      tag_515\n        /* \"#utility.yul\":11358:11359   */\n      dup3\n        /* \"#utility.yul\":11340:11360   */\n      tag_333\n      jump\t// in\n    tag_515:\n        /* \"#utility.yul\":11335:11360   */\n      swap2\n      pop\n        /* \"#utility.yul\":11374:11394   */\n      tag_516\n        /* \"#utility.yul\":11392:11393   */\n      dup4\n        /* \"#utility.yul\":11374:11394   */\n      tag_333\n      jump\t// in\n    tag_516:\n        /* \"#utility.yul\":11369:11394   */\n      swap3\n      pop\n        /* \"#utility.yul\":11413:11414   */\n      dup3\n        /* \"#utility.yul\":11403:11438   */\n      tag_517\n      jumpi\n        /* \"#utility.yul\":11418:11436   */\n      tag_518\n      tag_355\n      jump\t// in\n    tag_518:\n        /* \"#utility.yul\":11403:11438   */\n    tag_517:\n        /* \"#utility.yul\":11460:11461   */\n      dup3\n        /* \"#utility.yul\":11457:11458   */\n      dup3\n        /* \"#utility.yul\":11453:11462   */\n      div\n        /* \"#utility.yul\":11448:11462   */\n      swap1\n      pop\n        /* \"#utility.yul\":11283:11468   */\n      swap3\n      swap2\n      pop\n      pop\n      jump\t// out\n        /* \"#utility.yul\":11474:11646   */\n    tag_356:\n        /* \"#utility.yul\":11614:11638   */\n      0x4d7573742062652070726f706f736564206f776e657200000000000000000000\n        /* \"#utility.yul\":11610:11611   */\n      0x00\n        /* \"#utility.yul\":11602:11608   */\n      dup3\n        /* \"#utility.yul\":11598:11612   */\n      add\n        /* \"#utility.yul\":11591:11639   */\n      mstore\n        /* \"#utility.yul\":11474:11646   */\n      pop\n      jump\t// out\n        /* \"#utility.yul\":11652:12018   */\n    tag_357:\n        /* \"#utility.yul\":11794:11797   */\n      0x00\n        /* \"#utility.yul\":11815:11882   */\n      tag_521\n        /* \"#utility.yul\":11879:11881   */\n      0x16\n        /* \"#utility.yul\":11874:11877   */\n      dup4\n        /* \"#utility.yul\":11815:11882   */\n      tag_343\n      jump\t// in\n    tag_521:\n        /* \"#utility.yul\":11808:11882   */\n      swap2\n      pop\n        /* \"#utility.yul\":11891:11984   */\n      tag_522\n        /* \"#utility.yul\":11980:11983   */\n      dup3\n        /* \"#utility.yul\":11891:11984   */\n      tag_356\n      jump\t// in\n    tag_522:\n        /* \"#utility.yul\":12009:12011   */\n      0x20\n        /* \"#utility.yul\":12004:12007   */\n      dup3\n        /* \"#utility.yul\":12000:12012   */\n      add\n        /* \"#utility.yul\":11993:12012   */\n      swap1\n      pop\n        /* \"#utility.yul\":11652:12018   */\n      swap2\n      swap1\n      pop\n      jump\t// out\n        /* \"#utility.yul\":12024:12443   */\n    tag_109:\n        /* \"#utility.yul\":12190:12194   */\n      0x00\n        /* \"#utility.yul\":12228:12230   */\n      0x20\n        /* \"#utility.yul\":12217:12226   */\n      dup3\n        /* \"#utility.yul\":12213:12231   */\n      add\n        /* \"#utility.yul\":12205:12231   */\n      swap1\n      pop\n        /* \"#utility.yul\":12277:12286   */\n      dup2\n        /* \"#utility.yul\":12271:12275   */\n      dup2\n        /* \"#utility.yul\":12267:12287   */\n      sub\n        /* \"#utility.yul\":12263:12264   */\n      0x00\n        /* \"#utility.yul\":12252:12261   */\n      dup4\n        /* \"#utility.yul\":12248:12265   */\n      add\n        /* \"#utility.yul\":12241:12288   */\n      mstore\n        /* \"#utility.yul\":12305:12436   */\n      tag_524\n        /* \"#utility.yul\":12431:12435   */\n      dup2\n        /* \"#utility.yul\":12305:12436   */\n      tag_357\n      jump\t// in\n    tag_524:\n        /* \"#utility.yul\":12297:12436   */\n      swap1\n      pop\n        /* \"#utility.yul\":12024:12443   */\n      swap2\n      swap1\n      pop\n      jump\t// out\n        /* \"#utility.yul\":12449:12592   */\n    tag_358:\n        /* \"#utility.yul\":12506:12511   */\n      0x00\n        /* \"#utility.yul\":12537:12543   */\n      dup2\n        /* \"#utility.yul\":12531:12544   */\n      mload\n        /* \"#utility.yul\":12522:12544   */\n      swap1\n      pop\n        /* \"#utility.yul\":12553:12586   */\n      tag_526\n        /* \"#utility.yul\":12580:12585   */\n      dup2\n        /* \"#utility.yul\":12553:12586   */\n      tag_334\n      jump\t// in\n    tag_526:\n        /* \"#utility.yul\":12449:12592   */\n      swap3\n      swap2\n      pop\n      pop\n      jump\t// out\n        /* \"#utility.yul\":12598:12949   */\n    tag_120:\n        /* \"#utility.yul\":12668:12674   */\n      0x00\n        /* \"#utility.yul\":12717:12719   */\n      0x20\n        /* \"#utility.yul\":12705:12714   */\n      dup3\n        /* \"#utility.yul\":12696:12703   */\n      dup5\n        /* \"#utility.yul\":12692:12715   */\n      sub\n        /* \"#utility.yul\":12688:12720   */\n      slt\n        /* \"#utility.yul\":12685:12804   */\n      iszero\n      tag_528\n      jumpi\n        /* \"#utility.yul\":12723:12802   */\n      tag_529\n      tag_318\n      jump\t// in\n    tag_529:\n        /* \"#utility.yul\":12685:12804   */\n    tag_528:\n        /* \"#utility.yul\":12843:12844   */\n      0x00\n        /* \"#utility.yul\":12868:12932   */\n      tag_530\n        /* \"#utility.yul\":12924:12931   */\n      dup5\n        /* \"#utility.yul\":12915:12921   */\n      dup3\n        /* \"#utility.yul\":12904:12913   */\n      dup6\n        /* \"#utility.yul\":12900:12922   */\n      add\n        /* \"#utility.yul\":12868:12932   */\n      tag_358\n      jump\t// in\n    tag_530:\n        /* \"#utility.yul\":12858:12932   */\n      swap2\n      pop\n        /* \"#utility.yul\":12814:12942   */\n      pop\n        /* \"#utility.yul\":12598:12949   */\n      swap3\n      swap2\n      pop\n      pop\n      jump\t// out\n        /* \"#utility.yul\":12955:13287   */\n    tag_122:\n        /* \"#utility.yul\":13076:13080   */\n      0x00\n        /* \"#utility.yul\":13114:13116   */\n      0x40\n        /* \"#utility.yul\":13103:13112   */\n      dup3\n        /* \"#utility.yul\":13099:13117   */\n      add\n        /* \"#utility.yul\":13091:13117   */\n      swap1\n      pop\n        /* \"#utility.yul\":13127:13198   */\n      tag_532\n        /* \"#utility.yul\":13195:13196   */\n      0x00\n        /* \"#utility.yul\":13184:13193   */\n      dup4\n        /* \"#utility.yul\":13180:13197   */\n      add\n        /* \"#utility.yul\":13171:13177   */\n      dup6\n        /* \"#utility.yul\":13127:13198   */\n      tag_341\n      jump\t// in\n    tag_532:\n        /* \"#utility.yul\":13208:13280   */\n      tag_533\n        /* \"#utility.yul\":13276:13278   */\n      0x20\n        /* \"#utility.yul\":13265:13274   */\n      dup4\n        /* \"#utility.yul\":13261:13279   */\n      add\n        /* \"#utility.yul\":13252:13258   */\n      dup5\n        /* \"#utility.yul\":13208:13280   */\n      tag_340\n      jump\t// in\n    tag_533:\n        /* \"#utility.yul\":12955:13287   */\n      swap4\n      swap3\n      pop\n      pop\n      pop\n      jump\t// out\n        /* \"#utility.yul\":13293:13383   */\n    tag_359:\n        /* \"#utility.yul\":13327:13334   */\n      0x00\n        /* \"#utility.yul\":13370:13375   */\n      dup2\n        /* \"#utility.yul\":13363:13376   */\n      iszero\n        /* \"#utility.yul\":13356:13377   */\n      iszero\n        /* \"#utility.yul\":13345:13377   */\n      swap1\n      pop\n        /* \"#utility.yul\":13293:13383   */\n      swap2\n      swap1\n      pop\n      jump\t// out\n        /* \"#utility.yul\":13389:13505   */\n    tag_360:\n        /* \"#utility.yul\":13459:13480   */\n      tag_536\n        /* \"#utility.yul\":13474:13479   */\n      dup2\n        /* \"#utility.yul\":13459:13480   */\n      tag_359\n      jump\t// in\n    tag_536:\n        /* \"#utility.yul\":13452:13457   */\n      dup2\n        /* \"#utility.yul\":13449:13481   */\n      eq\n        /* \"#utility.yul\":13439:13499   */\n      tag_537\n      jumpi\n        /* \"#utility.yul\":13495:13496   */\n      0x00\n        /* \"#utility.yul\":13492:13493   */\n      dup1\n        /* \"#utility.yul\":13485:13497   */\n      revert\n        /* \"#utility.yul\":13439:13499   */\n    tag_537:\n        /* \"#utility.yul\":13389:13505   */\n      pop\n      jump\t// out\n        /* \"#utility.yul\":13511:13648   */\n    tag_361:\n        /* \"#utility.yul\":13565:13570   */\n      0x00\n        /* \"#utility.yul\":13596:13602   */\n      dup2\n        /* \"#utility.yul\":13590:13603   */\n      mload\n        /* \"#utility.yul\":13581:13603   */\n      swap1\n      pop\n        /* \"#utility.yul\":13612:13642   */\n      tag_539\n        /* \"#utility.yul\":13636:13641   */\n      dup2\n        /* \"#utility.yul\":13612:13642   */\n      tag_360\n      jump\t// in\n    tag_539:\n        /* \"#utility.yul\":13511:13648   */\n      swap3\n      swap2\n      pop\n      pop\n      jump\t// out\n        /* \"#utility.yul\":13654:13999   */\n    tag_126:\n        /* \"#utility.yul\":13721:13727   */\n      0x00\n        /* \"#utility.yul\":13770:13772   */\n      0x20\n        /* \"#utility.yul\":13758:13767   */\n      dup3\n        /* \"#utility.yul\":13749:13756   */\n      dup5\n        /* \"#utility.yul\":13745:13768   */\n      sub\n        /* \"#utility.yul\":13741:13773   */\n      slt\n        /* \"#utility.yul\":13738:13857   */\n      iszero\n      tag_541\n      jumpi\n        /* \"#utility.yul\":13776:13855   */\n      tag_542\n      tag_318\n      jump\t// in\n    tag_542:\n        /* \"#utility.yul\":13738:13857   */\n    tag_541:\n        /* \"#utility.yul\":13896:13897   */\n      0x00\n        /* \"#utility.yul\":13921:13982   */\n      tag_543\n        /* \"#utility.yul\":13974:13981   */\n      dup5\n        /* \"#utility.yul\":13965:13971   */\n      dup3\n        /* \"#utility.yul\":13954:13963   */\n      dup6\n        /* \"#utility.yul\":13950:13972   */\n      add\n        /* \"#utility.yul\":13921:13982   */\n      tag_361\n      jump\t// in\n    tag_543:\n        /* \"#utility.yul\":13911:13982   */\n      swap2\n      pop\n        /* \"#utility.yul\":13867:13992   */\n      pop\n        /* \"#utility.yul\":13654:13999   */\n      swap3\n      swap2\n      pop\n      pop\n      jump\t// out\n        /* \"#utility.yul\":14005:14173   */\n    tag_362:\n        /* \"#utility.yul\":14145:14165   */\n      0x556e61626c6520746f207472616e736665720000000000000000000000000000\n        /* \"#utility.yul\":14141:14142   */\n      0x00\n        /* \"#utility.yul\":14133:14139   */\n      dup3\n        /* \"#utility.yul\":14129:14143   */\n      add\n        /* \"#utility.yul\":14122:14166   */\n      mstore\n        /* \"#utility.yul\":14005:14173   */\n      pop\n      jump\t// out\n        /* \"#utility.yul\":14179:14545   */\n    tag_363:\n        /* \"#utility.yul\":14321:14324   */\n      0x00\n        /* \"#utility.yul\":14342:14409   */\n      tag_546\n        /* \"#utility.yul\":14406:14408   */\n      0x12\n        /* \"#utility.yul\":14401:14404   */\n      dup4\n        /* \"#utility.yul\":14342:14409   */\n      tag_343\n      jump\t// in\n    tag_546:\n        /* \"#utility.yul\":14335:14409   */\n      swap2\n      pop\n        /* \"#utility.yul\":14418:14511   */\n      tag_547\n        /* \"#utility.yul\":14507:14510   */\n      dup3\n        /* \"#utility.yul\":14418:14511   */\n      tag_362\n      jump\t// in\n    tag_547:\n        /* \"#utility.yul\":14536:14538   */\n      0x20\n        /* \"#utility.yul\":14531:14534   */\n      dup3\n        /* \"#utility.yul\":14527:14539   */\n      add\n        /* \"#utility.yul\":14520:14539   */\n      swap1\n      pop\n        /* \"#utility.yul\":14179:14545   */\n      swap2\n      swap1\n      pop\n      jump\t// out\n        /* \"#utility.yul\":14551:14970   */\n    tag_129:\n        /* \"#utility.yul\":14717:14721   */\n      0x00\n        /* \"#utility.yul\":14755:14757   */\n      0x20\n        /* \"#utility.yul\":14744:14753   */\n      dup3\n        /* \"#utility.yul\":14740:14758   */\n      add\n        /* \"#utility.yul\":14732:14758   */\n      swap1\n      pop\n        /* \"#utility.yul\":14804:14813   */\n      dup2\n        /* \"#utility.yul\":14798:14802   */\n      dup2\n        /* \"#utility.yul\":14794:14814   */\n      sub\n        /* \"#utility.yul\":14790:14791   */\n      0x00\n        /* \"#utility.yul\":14779:14788   */\n      dup4\n        /* \"#utility.yul\":14775:14792   */\n      add\n        /* \"#utility.yul\":14768:14815   */\n      mstore\n        /* \"#utility.yul\":14832:14963   */\n      tag_549\n        /* \"#utility.yul\":14958:14962   */\n      dup2\n        /* \"#utility.yul\":14832:14963   */\n      tag_363\n      jump\t// in\n    tag_549:\n        /* \"#utility.yul\":14824:14963   */\n      swap1\n      pop\n        /* \"#utility.yul\":14551:14970   */\n      swap2\n      swap1\n      pop\n      jump\t// out\n        /* \"#utility.yul\":14976:15055   */\n    tag_364:\n        /* \"#utility.yul\":15015:15022   */\n      0x00\n        /* \"#utility.yul\":15044:15049   */\n      dup2\n        /* \"#utility.yul\":15033:15049   */\n      swap1\n      pop\n        /* \"#utility.yul\":14976:15055   */\n      swap2\n      swap1\n      pop\n      jump\t// out\n        /* \"#utility.yul\":15061:15218   */\n    tag_365:\n        /* \"#utility.yul\":15166:15211   */\n      tag_552\n        /* \"#utility.yul\":15186:15210   */\n      tag_553\n        /* \"#utility.yul\":15204:15209   */\n      dup3\n        /* \"#utility.yul\":15186:15210   */\n      tag_330\n      jump\t// in\n    tag_553:\n        /* \"#utility.yul\":15166:15211   */\n      tag_364\n      jump\t// in\n    tag_552:\n        /* \"#utility.yul\":15161:15164   */\n      dup3\n        /* \"#utility.yul\":15154:15212   */\n      mstore\n        /* \"#utility.yul\":15061:15218   */\n      pop\n      pop\n      jump\t// out\n        /* \"#utility.yul\":15224:15480   */\n    tag_134:\n        /* \"#utility.yul\":15336:15339   */\n      0x00\n        /* \"#utility.yul\":15351:15426   */\n      tag_555\n        /* \"#utility.yul\":15422:15425   */\n      dup3\n        /* \"#utility.yul\":15413:15419   */\n      dup5\n        /* \"#utility.yul\":15351:15426   */\n      tag_365\n      jump\t// in\n    tag_555:\n        /* \"#utility.yul\":15451:15453   */\n      0x20\n        /* \"#utility.yul\":15446:15449   */\n      dup3\n        /* \"#utility.yul\":15442:15454   */\n      add\n        /* \"#utility.yul\":15435:15454   */\n      swap2\n      pop\n        /* \"#utility.yul\":15471:15474   */\n      dup2\n        /* \"#utility.yul\":15464:15474   */\n      swap1\n      pop\n        /* \"#utility.yul\":15224:15480   */\n      swap3\n      swap2\n      pop\n      pop\n      jump\t// out\n        /* \"#utility.yul\":15486:15658   */\n    tag_366:\n        /* \"#utility.yul\":15626:15650   */\n      0x4f6e6c792063616c6c61626c65206279206f776e657200000000000000000000\n        /* \"#utility.yul\":15622:15623   */\n      0x00\n        /* \"#utility.yul\":15614:15620   */\n      dup3\n        /* \"#utility.yul\":15610:15624   */\n      add\n        /* \"#utility.yul\":15603:15651   */\n      mstore\n        /* \"#utility.yul\":15486:15658   */\n      pop\n      jump\t// out\n        /* \"#utility.yul\":15664:16030   */\n    tag_367:\n        /* \"#utility.yul\":15806:15809   */\n      0x00\n        /* \"#utility.yul\":15827:15894   */\n      tag_558\n        /* \"#utility.yul\":15891:15893   */\n      0x16\n        /* \"#utility.yul\":15886:15889   */\n      dup4\n        /* \"#utility.yul\":15827:15894   */\n      tag_343\n      jump\t// in\n    tag_558:\n        /* \"#utility.yul\":15820:15894   */\n      swap2\n      pop\n        /* \"#utility.yul\":15903:15996   */\n      tag_559\n        /* \"#utility.yul\":15992:15995   */\n      dup3\n        /* \"#utility.yul\":15903:15996   */\n      tag_366\n      jump\t// in\n    tag_559:\n        /* \"#utility.yul\":16021:16023   */\n      0x20\n        /* \"#utility.yul\":16016:16019   */\n      dup3\n        /* \"#utility.yul\":16012:16024   */\n      add\n        /* \"#utility.yul\":16005:16024   */\n      swap1\n      pop\n        /* \"#utility.yul\":15664:16030   */\n      swap2\n      swap1\n      pop\n      jump\t// out\n        /* \"#utility.yul\":16036:16455   */\n    tag_155:\n        /* \"#utility.yul\":16202:16206   */\n      0x00\n        /* \"#utility.yul\":16240:16242   */\n      0x20\n        /* \"#utility.yul\":16229:16238   */\n      dup3\n        /* \"#utility.yul\":16225:16243   */\n      add\n        /* \"#utility.yul\":16217:16243   */\n      swap1\n      pop\n        /* \"#utility.yul\":16289:16298   */\n      dup2\n        /* \"#utility.yul\":16283:16287   */\n      dup2\n        /* \"#utility.yul\":16279:16299   */\n      sub\n        /* \"#utility.yul\":16275:16276   */\n      0x00\n        /* \"#utility.yul\":16264:16273   */\n      dup4\n        /* \"#utility.yul\":16260:16277   */\n      add\n        /* \"#utility.yul\":16253:16300   */\n      mstore\n        /* \"#utility.yul\":16317:16448   */\n      tag_561\n        /* \"#utility.yul\":16443:16447   */\n      dup2\n        /* \"#utility.yul\":16317:16448   */\n      tag_367\n      jump\t// in\n    tag_561:\n        /* \"#utility.yul\":16309:16448   */\n      swap1\n      pop\n        /* \"#utility.yul\":16036:16455   */\n      swap2\n      swap1\n      pop\n      jump\t// out\n        /* \"#utility.yul\":16461:16634   */\n    tag_368:\n        /* \"#utility.yul\":16601:16626   */\n      0x43616e6e6f74207472616e7366657220746f2073656c66000000000000000000\n        /* \"#utility.yul\":16597:16598   */\n      0x00\n        /* \"#utility.yul\":16589:16595   */\n      dup3\n        /* \"#utility.yul\":16585:16599   */\n      add\n        /* \"#utility.yul\":16578:16627   */\n      mstore\n        /* \"#utility.yul\":16461:16634   */\n      pop\n      jump\t// out\n        /* \"#utility.yul\":16640:17006   */\n    tag_369:\n        /* \"#utility.yul\":16782:16785   */\n      0x00\n        /* \"#utility.yul\":16803:16870   */\n      tag_564\n        /* \"#utility.yul\":16867:16869   */\n      0x17\n        /* \"#utility.yul\":16862:16865   */\n      dup4\n        /* \"#utility.yul\":16803:16870   */\n      tag_343\n      jump\t// in\n    tag_564:\n        /* \"#utility.yul\":16796:16870   */\n      swap2\n      pop\n        /* \"#utility.yul\":16879:16972   */\n      tag_565\n        /* \"#utility.yul\":16968:16971   */\n      dup3\n        /* \"#utility.yul\":16879:16972   */\n      tag_368\n      jump\t// in\n    tag_565:\n        /* \"#utility.yul\":16997:16999   */\n      0x20\n        /* \"#utility.yul\":16992:16995   */\n      dup3\n        /* \"#utility.yul\":16988:17000   */\n      add\n        /* \"#utility.yul\":16981:17000   */\n      swap1\n      pop\n        /* \"#utility.yul\":16640:17006   */\n      swap2\n      swap1\n      pop\n      jump\t// out\n        /* \"#utility.yul\":17012:17431   */\n    tag_178:\n        /* \"#utility.yul\":17178:17182   */\n      0x00\n        /* \"#utility.yul\":17216:17218   */\n      0x20\n        /* \"#utility.yul\":17205:17214   */\n      dup3\n        /* \"#utility.yul\":17201:17219   */\n      add\n        /* \"#utility.yul\":17193:17219   */\n      swap1\n      pop\n        /* \"#utility.yul\":17265:17274   */\n      dup2\n        /* \"#utility.yul\":17259:17263   */\n      dup2\n        /* \"#utility.yul\":17255:17275   */\n      sub\n        /* \"#utility.yul\":17251:17252   */\n      0x00\n        /* \"#utility.yul\":17240:17249   */\n      dup4\n        /* \"#utility.yul\":17236:17253   */\n      add\n        /* \"#utility.yul\":17229:17276   */\n      mstore\n        /* \"#utility.yul\":17293:17424   */\n      tag_567\n        /* \"#utility.yul\":17419:17423   */\n      dup2\n        /* \"#utility.yul\":17293:17424   */\n      tag_369\n      jump\t// in\n    tag_567:\n        /* \"#utility.yul\":17285:17424   */\n      swap1\n      pop\n        /* \"#utility.yul\":17012:17431   */\n      swap2\n      swap1\n      pop\n      jump\t// out\n        /* \"#utility.yul\":17437:17513   */\n    tag_370:\n        /* \"#utility.yul\":17473:17480   */\n      0x00\n        /* \"#utility.yul\":17502:17507   */\n      dup2\n        /* \"#utility.yul\":17491:17507   */\n      swap1\n      pop\n        /* \"#utility.yul\":17437:17513   */\n      swap2\n      swap1\n      pop\n      jump\t// out\n        /* \"#utility.yul\":17519:17891   */\n    tag_202:\n        /* \"#utility.yul\":17558:17562   */\n      0x00\n        /* \"#utility.yul\":17578:17597   */\n      tag_570\n        /* \"#utility.yul\":17595:17596   */\n      dup3\n        /* \"#utility.yul\":17578:17597   */\n      tag_370\n      jump\t// in\n    tag_570:\n        /* \"#utility.yul\":17573:17597   */\n      swap2\n      pop\n        /* \"#utility.yul\":17611:17630   */\n      tag_571\n        /* \"#utility.yul\":17628:17629   */\n      dup4\n        /* \"#utility.yul\":17611:17630   */\n      tag_370\n      jump\t// in\n    tag_571:\n        /* \"#utility.yul\":17606:17630   */\n      swap3\n      pop\n        /* \"#utility.yul\":17654:17655   */\n      dup3\n        /* \"#utility.yul\":17651:17652   */\n      dup3\n        /* \"#utility.yul\":17647:17656   */\n      sub\n        /* \"#utility.yul\":17639:17656   */\n      swap1\n      pop\n        /* \"#utility.yul\":17848:17849   */\n      dup2\n        /* \"#utility.yul\":17842:17846   */\n      dup2\n        /* \"#utility.yul\":17838:17850   */\n      slt\n        /* \"#utility.yul\":17834:17835   */\n      0x00\n        /* \"#utility.yul\":17831:17832   */\n      dup5\n        /* \"#utility.yul\":17827:17836   */\n      slt\n        /* \"#utility.yul\":17823:17851   */\n      and\n        /* \"#utility.yul\":17806:17807   */\n      dup3\n        /* \"#utility.yul\":17800:17804   */\n      dup3\n        /* \"#utility.yul\":17796:17808   */\n      sgt\n        /* \"#utility.yul\":17791:17792   */\n      0x00\n        /* \"#utility.yul\":17788:17789   */\n      dup6\n        /* \"#utility.yul\":17784:17793   */\n      slt\n        /* \"#utility.yul\":17777:17794   */\n      iszero\n        /* \"#utility.yul\":17773:17809   */\n      and\n        /* \"#utility.yul\":17757:17861   */\n      or\n        /* \"#utility.yul\":17754:17884   */\n      iszero\n      tag_572\n      jumpi\n        /* \"#utility.yul\":17864:17882   */\n      tag_573\n      tag_354\n      jump\t// in\n    tag_573:\n        /* \"#utility.yul\":17754:17884   */\n    tag_572:\n        /* \"#utility.yul\":17519:17891   */\n      swap3\n      swap2\n      pop\n      pop\n      jump\t// out\n        /* \"#utility.yul\":17897:18088   */\n    tag_205:\n        /* \"#utility.yul\":17937:17940   */\n      0x00\n        /* \"#utility.yul\":17956:17976   */\n      tag_575\n        /* \"#utility.yul\":17974:17975   */\n      dup3\n        /* \"#utility.yul\":17956:17976   */\n      tag_333\n      jump\t// in\n    tag_575:\n        /* \"#utility.yul\":17951:17976   */\n      swap2\n      pop\n        /* \"#utility.yul\":17990:18010   */\n      tag_576\n        /* \"#utility.yul\":18008:18009   */\n      dup4\n        /* \"#utility.yul\":17990:18010   */\n      tag_333\n      jump\t// in\n    tag_576:\n        /* \"#utility.yul\":17985:18010   */\n      swap3\n      pop\n        /* \"#utility.yul\":18033:18034   */\n      dup3\n        /* \"#utility.yul\":18030:18031   */\n      dup3\n        /* \"#utility.yul\":18026:18035   */\n      add\n        /* \"#utility.yul\":18019:18035   */\n      swap1\n      pop\n        /* \"#utility.yul\":18054:18057   */\n      dup1\n        /* \"#utility.yul\":18051:18052   */\n      dup3\n        /* \"#utility.yul\":18048:18058   */\n      gt\n        /* \"#utility.yul\":18045:18081   */\n      iszero\n      tag_577\n      jumpi\n        /* \"#utility.yul\":18061:18079   */\n      tag_578\n      tag_354\n      jump\t// in\n    tag_578:\n        /* \"#utility.yul\":18045:18081   */\n    tag_577:\n        /* \"#utility.yul\":17897:18088   */\n      swap3\n      swap2\n      pop\n      pop\n      jump\t// out\n        /* \"#utility.yul\":18094:18212   */\n    tag_371:\n        /* \"#utility.yul\":18181:18205   */\n      tag_580\n        /* \"#utility.yul\":18199:18204   */\n      dup2\n        /* \"#utility.yul\":18181:18205   */\n      tag_330\n      jump\t// in\n    tag_580:\n        /* \"#utility.yul\":18176:18179   */\n      dup3\n        /* \"#utility.yul\":18169:18206   */\n      mstore\n        /* \"#utility.yul\":18094:18212   */\n      pop\n      pop\n      jump\t// out\n        /* \"#utility.yul\":18218:18367   */\n    tag_372:\n        /* \"#utility.yul\":18254:18261   */\n      0x00\n        /* \"#utility.yul\":18294:18360   */\n      0xffffffff00000000000000000000000000000000000000000000000000000000\n        /* \"#utility.yul\":18287:18292   */\n      dup3\n        /* \"#utility.yul\":18283:18361   */\n      and\n        /* \"#utility.yul\":18272:18361   */\n      swap1\n      pop\n        /* \"#utility.yul\":18218:18367   */\n      swap2\n      swap1\n      pop\n      jump\t// out\n        /* \"#utility.yul\":18373:18488   */\n    tag_373:\n        /* \"#utility.yul\":18458:18481   */\n      tag_583\n        /* \"#utility.yul\":18475:18480   */\n      dup2\n        /* \"#utility.yul\":18458:18481   */\n      tag_372\n      jump\t// in\n    tag_583:\n        /* \"#utility.yul\":18453:18456   */\n      dup3\n        /* \"#utility.yul\":18446:18482   */\n      mstore\n        /* \"#utility.yul\":18373:18488   */\n      pop\n      pop\n      jump\t// out\n        /* \"#utility.yul\":18494:18662   */\n    tag_374:\n        /* \"#utility.yul\":18577:18588   */\n      0x00\n        /* \"#utility.yul\":18611:18617   */\n      dup3\n        /* \"#utility.yul\":18606:18609   */\n      dup3\n        /* \"#utility.yul\":18599:18618   */\n      mstore\n        /* \"#utility.yul\":18651:18655   */\n      0x20\n        /* \"#utility.yul\":18646:18649   */\n      dup3\n        /* \"#utility.yul\":18642:18656   */\n      add\n        /* \"#utility.yul\":18627:18656   */\n      swap1\n      pop\n        /* \"#utility.yul\":18494:18662   */\n      swap3\n      swap2\n      pop\n      pop\n      jump\t// out\n        /* \"#utility.yul\":18668:19041   */\n    tag_375:\n        /* \"#utility.yul\":18754:18757   */\n      0x00\n        /* \"#utility.yul\":18782:18820   */\n      tag_586\n        /* \"#utility.yul\":18814:18819   */\n      dup3\n        /* \"#utility.yul\":18782:18820   */\n      tag_346\n      jump\t// in\n    tag_586:\n        /* \"#utility.yul\":18836:18906   */\n      tag_587\n        /* \"#utility.yul\":18899:18905   */\n      dup2\n        /* \"#utility.yul\":18894:18897   */\n      dup6\n        /* \"#utility.yul\":18836:18906   */\n      tag_374\n      jump\t// in\n    tag_587:\n        /* \"#utility.yul\":18829:18906   */\n      swap4\n      pop\n        /* \"#utility.yul\":18915:18980   */\n      tag_588\n        /* \"#utility.yul\":18973:18979   */\n      dup2\n        /* \"#utility.yul\":18968:18971   */\n      dup6\n        /* \"#utility.yul\":18961:18965   */\n      0x20\n        /* \"#utility.yul\":18954:18959   */\n      dup7\n        /* \"#utility.yul\":18950:18966   */\n      add\n        /* \"#utility.yul\":18915:18980   */\n      tag_344\n      jump\t// in\n    tag_588:\n        /* \"#utility.yul\":19005:19034   */\n      tag_589\n        /* \"#utility.yul\":19027:19033   */\n      dup2\n        /* \"#utility.yul\":19005:19034   */\n      tag_322\n      jump\t// in\n    tag_589:\n        /* \"#utility.yul\":19000:19003   */\n      dup5\n        /* \"#utility.yul\":18996:19035   */\n      add\n        /* \"#utility.yul\":18989:19035   */\n      swap2\n      pop\n        /* \"#utility.yul\":18758:19041   */\n      pop\n        /* \"#utility.yul\":18668:19041   */\n      swap3\n      swap2\n      pop\n      pop\n      jump\t// out\n        /* \"#utility.yul\":19047:20016   */\n    tag_207:\n        /* \"#utility.yul\":19324:19328   */\n      0x00\n        /* \"#utility.yul\":19362:19365   */\n      0xe0\n        /* \"#utility.yul\":19351:19360   */\n      dup3\n        /* \"#utility.yul\":19347:19366   */\n      add\n        /* \"#utility.yul\":19339:19366   */\n      swap1\n      pop\n        /* \"#utility.yul\":19376:19447   */\n      tag_591\n        /* \"#utility.yul\":19444:19445   */\n      0x00\n        /* \"#utility.yul\":19433:19442   */\n      dup4\n        /* \"#utility.yul\":19429:19446   */\n      add\n        /* \"#utility.yul\":19420:19426   */\n      dup11\n        /* \"#utility.yul\":19376:19447   */\n      tag_341\n      jump\t// in\n    tag_591:\n        /* \"#utility.yul\":19457:19529   */\n      tag_592\n        /* \"#utility.yul\":19525:19527   */\n      0x20\n        /* \"#utility.yul\":19514:19523   */\n      dup4\n        /* \"#utility.yul\":19510:19528   */\n      add\n        /* \"#utility.yul\":19501:19507   */\n      dup10\n        /* \"#utility.yul\":19457:19529   */\n      tag_340\n      jump\t// in\n    tag_592:\n        /* \"#utility.yul\":19539:19611   */\n      tag_593\n        /* \"#utility.yul\":19607:19609   */\n      0x40\n        /* \"#utility.yul\":19596:19605   */\n      dup4\n        /* \"#utility.yul\":19592:19610   */\n      add\n        /* \"#utility.yul\":19583:19589   */\n      dup9\n        /* \"#utility.yul\":19539:19611   */\n      tag_371\n      jump\t// in\n    tag_593:\n        /* \"#utility.yul\":19621:19691   */\n      tag_594\n        /* \"#utility.yul\":19687:19689   */\n      0x60\n        /* \"#utility.yul\":19676:19685   */\n      dup4\n        /* \"#utility.yul\":19672:19690   */\n      add\n        /* \"#utility.yul\":19663:19669   */\n      dup8\n        /* \"#utility.yul\":19621:19691   */\n      tag_373\n      jump\t// in\n    tag_594:\n        /* \"#utility.yul\":19701:19774   */\n      tag_595\n        /* \"#utility.yul\":19769:19772   */\n      0x80\n        /* \"#utility.yul\":19758:19767   */\n      dup4\n        /* \"#utility.yul\":19754:19773   */\n      add\n        /* \"#utility.yul\":19745:19751   */\n      dup7\n        /* \"#utility.yul\":19701:19774   */\n      tag_340\n      jump\t// in\n    tag_595:\n        /* \"#utility.yul\":19784:19857   */\n      tag_596\n        /* \"#utility.yul\":19852:19855   */\n      0xa0\n        /* \"#utility.yul\":19841:19850   */\n      dup4\n        /* \"#utility.yul\":19837:19856   */\n      add\n        /* \"#utility.yul\":19828:19834   */\n      dup6\n        /* \"#utility.yul\":19784:19857   */\n      tag_340\n      jump\t// in\n    tag_596:\n        /* \"#utility.yul\":19905:19914   */\n      dup2\n        /* \"#utility.yul\":19899:19903   */\n      dup2\n        /* \"#utility.yul\":19895:19915   */\n      sub\n        /* \"#utility.yul\":19889:19892   */\n      0xc0\n        /* \"#utility.yul\":19878:19887   */\n      dup4\n        /* \"#utility.yul\":19874:19893   */\n      add\n        /* \"#utility.yul\":19867:19916   */\n      mstore\n        /* \"#utility.yul\":19933:20009   */\n      tag_597\n        /* \"#utility.yul\":20004:20008   */\n      dup2\n        /* \"#utility.yul\":19995:20001   */\n      dup5\n        /* \"#utility.yul\":19933:20009   */\n      tag_375\n      jump\t// in\n    tag_597:\n        /* \"#utility.yul\":19925:20009   */\n      swap1\n      pop\n        /* \"#utility.yul\":19047:20016   */\n      swap9\n      swap8\n      pop\n      pop\n      pop\n      pop\n      pop\n      pop\n      pop\n      pop\n      jump\t// out\n        /* \"#utility.yul\":20022:20198   */\n    tag_214:\n        /* \"#utility.yul\":20054:20055   */\n      0x00\n        /* \"#utility.yul\":20071:20091   */\n      tag_599\n        /* \"#utility.yul\":20089:20090   */\n      dup3\n        /* \"#utility.yul\":20071:20091   */\n      tag_333\n      jump\t// in\n    tag_599:\n        /* \"#utility.yul\":20066:20091   */\n      swap2\n      pop\n        /* \"#utility.yul\":20105:20125   */\n      tag_600\n        /* \"#utility.yul\":20123:20124   */\n      dup4\n        /* \"#utility.yul\":20105:20125   */\n      tag_333\n      jump\t// in\n    tag_600:\n        /* \"#utility.yul\":20100:20125   */\n      swap3\n      pop\n        /* \"#utility.yul\":20144:20145   */\n      dup3\n        /* \"#utility.yul\":20134:20169   */\n      tag_601\n      jumpi\n        /* \"#utility.yul\":20149:20167   */\n      tag_602\n      tag_355\n      jump\t// in\n    tag_602:\n        /* \"#utility.yul\":20134:20169   */\n    tag_601:\n        /* \"#utility.yul\":20190:20191   */\n      dup3\n        /* \"#utility.yul\":20187:20188   */\n      dup3\n        /* \"#utility.yul\":20183:20192   */\n      mod\n        /* \"#utility.yul\":20178:20192   */\n      swap1\n      pop\n        /* \"#utility.yul\":20022:20198   */\n      swap3\n      swap2\n      pop\n      pop\n      jump\t// out\n        /* \"#utility.yul\":20204:20398   */\n    tag_218:\n        /* \"#utility.yul\":20244:20248   */\n      0x00\n        /* \"#utility.yul\":20264:20284   */\n      tag_604\n        /* \"#utility.yul\":20282:20283   */\n      dup3\n        /* \"#utility.yul\":20264:20284   */\n      tag_333\n      jump\t// in\n    tag_604:\n        /* \"#utility.yul\":20259:20284   */\n      swap2\n      pop\n        /* \"#utility.yul\":20298:20318   */\n      tag_605\n        /* \"#utility.yul\":20316:20317   */\n      dup4\n        /* \"#utility.yul\":20298:20318   */\n      tag_333\n      jump\t// in\n    tag_605:\n        /* \"#utility.yul\":20293:20318   */\n      swap3\n      pop\n        /* \"#utility.yul\":20342:20343   */\n      dup3\n        /* \"#utility.yul\":20339:20340   */\n      dup3\n        /* \"#utility.yul\":20335:20344   */\n      sub\n        /* \"#utility.yul\":20327:20344   */\n      swap1\n      pop\n        /* \"#utility.yul\":20366:20367   */\n      dup2\n        /* \"#utility.yul\":20360:20364   */\n      dup2\n        /* \"#utility.yul\":20357:20368   */\n      gt\n        /* \"#utility.yul\":20354:20391   */\n      iszero\n      tag_606\n      jumpi\n        /* \"#utility.yul\":20371:20389   */\n      tag_607\n      tag_354\n      jump\t// in\n    tag_607:\n        /* \"#utility.yul\":20354:20391   */\n    tag_606:\n        /* \"#utility.yul\":20204:20398   */\n      swap3\n      swap2\n      pop\n      pop\n      jump\t// out\n        /* \"#utility.yul\":20404:20464   */\n    tag_376:\n        /* \"#utility.yul\":20432:20435   */\n      0x00\n        /* \"#utility.yul\":20453:20458   */\n      dup2\n        /* \"#utility.yul\":20446:20458   */\n      swap1\n      pop\n        /* \"#utility.yul\":20404:20464   */\n      swap2\n      swap1\n      pop\n      jump\t// out\n        /* \"#utility.yul\":20470:20612   */\n    tag_377:\n        /* \"#utility.yul\":20520:20529   */\n      0x00\n        /* \"#utility.yul\":20553:20606   */\n      tag_610\n        /* \"#utility.yul\":20571:20605   */\n      tag_611\n        /* \"#utility.yul\":20580:20604   */\n      tag_612\n        /* \"#utility.yul\":20598:20603   */\n      dup5\n        /* \"#utility.yul\":20580:20604   */\n      tag_336\n      jump\t// in\n    tag_612:\n        /* \"#utility.yul\":20571:20605   */\n      tag_376\n      jump\t// in\n    tag_611:\n        /* \"#utility.yul\":20553:20606   */\n      tag_336\n      jump\t// in\n    tag_610:\n        /* \"#utility.yul\":20540:20606   */\n      swap1\n      pop\n        /* \"#utility.yul\":20470:20612   */\n      swap2\n      swap1\n      pop\n      jump\t// out\n        /* \"#utility.yul\":20618:20744   */\n    tag_378:\n        /* \"#utility.yul\":20668:20677   */\n      0x00\n        /* \"#utility.yul\":20701:20738   */\n      tag_614\n        /* \"#utility.yul\":20732:20737   */\n      dup3\n        /* \"#utility.yul\":20701:20738   */\n      tag_377\n      jump\t// in\n    tag_614:\n        /* \"#utility.yul\":20688:20738   */\n      swap1\n      pop\n        /* \"#utility.yul\":20618:20744   */\n      swap2\n      swap1\n      pop\n      jump\t// out\n        /* \"#utility.yul\":20750:20899   */\n    tag_379:\n        /* \"#utility.yul\":20823:20832   */\n      0x00\n        /* \"#utility.yul\":20856:20893   */\n      tag_616\n        /* \"#utility.yul\":20887:20892   */\n      dup3\n        /* \"#utility.yul\":20856:20893   */\n      tag_378\n      jump\t// in\n    tag_616:\n        /* \"#utility.yul\":20843:20893   */\n      swap1\n      pop\n        /* \"#utility.yul\":20750:20899   */\n      swap2\n      swap1\n      pop\n      jump\t// out\n        /* \"#utility.yul\":20905:20999   */\n    tag_380:\n        /* \"#utility.yul\":20938:20946   */\n      0x00\n        /* \"#utility.yul\":20986:20991   */\n      dup2\n        /* \"#utility.yul\":20982:20984   */\n      0x60\n        /* \"#utility.yul\":20978:20992   */\n      shl\n        /* \"#utility.yul\":20957:20992   */\n      swap1\n      pop\n        /* \"#utility.yul\":20905:20999   */\n      swap2\n      swap1\n      pop\n      jump\t// out\n        /* \"#utility.yul\":21005:21099   */\n    tag_381:\n        /* \"#utility.yul\":21044:21051   */\n      0x00\n        /* \"#utility.yul\":21073:21093   */\n      tag_619\n        /* \"#utility.yul\":21087:21092   */\n      dup3\n        /* \"#utility.yul\":21073:21093   */\n      tag_380\n      jump\t// in\n    tag_619:\n        /* \"#utility.yul\":21062:21093   */\n      swap1\n      pop\n        /* \"#utility.yul\":21005:21099   */\n      swap2\n      swap1\n      pop\n      jump\t// out\n        /* \"#utility.yul\":21105:21205   */\n    tag_382:\n        /* \"#utility.yul\":21144:21151   */\n      0x00\n        /* \"#utility.yul\":21173:21199   */\n      tag_621\n        /* \"#utility.yul\":21193:21198   */\n      dup3\n        /* \"#utility.yul\":21173:21199   */\n      tag_381\n      jump\t// in\n    tag_621:\n        /* \"#utility.yul\":21162:21199   */\n      swap1\n      pop\n        /* \"#utility.yul\":21105:21205   */\n      swap2\n      swap1\n      pop\n      jump\t// out\n        /* \"#utility.yul\":21211:21427   */\n    tag_383:\n        /* \"#utility.yul\":21339:21420   */\n      tag_623\n        /* \"#utility.yul\":21359:21419   */\n      tag_624\n        /* \"#utility.yul\":21413:21418   */\n      dup3\n        /* \"#utility.yul\":21359:21419   */\n      tag_379\n      jump\t// in\n    tag_624:\n        /* \"#utility.yul\":21339:21420   */\n      tag_382\n      jump\t// in\n    tag_623:\n        /* \"#utility.yul\":21334:21337   */\n      dup3\n        /* \"#utility.yul\":21327:21421   */\n      mstore\n        /* \"#utility.yul\":21211:21427   */\n      pop\n      pop\n      jump\t// out\n        /* \"#utility.yul\":21433:21512   */\n    tag_384:\n        /* \"#utility.yul\":21472:21479   */\n      0x00\n        /* \"#utility.yul\":21501:21506   */\n      dup2\n        /* \"#utility.yul\":21490:21506   */\n      swap1\n      pop\n        /* \"#utility.yul\":21433:21512   */\n      swap2\n      swap1\n      pop\n      jump\t// out\n        /* \"#utility.yul\":21518:21675   */\n    tag_385:\n        /* \"#utility.yul\":21623:21668   */\n      tag_627\n        /* \"#utility.yul\":21643:21667   */\n      tag_628\n        /* \"#utility.yul\":21661:21666   */\n      dup3\n        /* \"#utility.yul\":21643:21667   */\n      tag_333\n      jump\t// in\n    tag_628:\n        /* \"#utility.yul\":21623:21668   */\n      tag_384\n      jump\t// in\n    tag_627:\n        /* \"#utility.yul\":21618:21621   */\n      dup3\n        /* \"#utility.yul\":21611:21669   */\n      mstore\n        /* \"#utility.yul\":21518:21675   */\n      pop\n      pop\n      jump\t// out\n        /* \"#utility.yul\":21681:22124   */\n    tag_256:\n        /* \"#utility.yul\":21844:21847   */\n      0x00\n        /* \"#utility.yul\":21859:21957   */\n      tag_630\n        /* \"#utility.yul\":21953:21956   */\n      dup3\n        /* \"#utility.yul\":21944:21950   */\n      dup6\n        /* \"#utility.yul\":21859:21957   */\n      tag_383\n      jump\t// in\n    tag_630:\n        /* \"#utility.yul\":21982:21984   */\n      0x14\n        /* \"#utility.yul\":21977:21980   */\n      dup3\n        /* \"#utility.yul\":21973:21985   */\n      add\n        /* \"#utility.yul\":21966:21985   */\n      swap2\n      pop\n        /* \"#utility.yul\":21995:22070   */\n      tag_631\n        /* \"#utility.yul\":22066:22069   */\n      dup3\n        /* \"#utility.yul\":22057:22063   */\n      dup5\n        /* \"#utility.yul\":21995:22070   */\n      tag_385\n      jump\t// in\n    tag_631:\n        /* \"#utility.yul\":22095:22097   */\n      0x20\n        /* \"#utility.yul\":22090:22093   */\n      dup3\n        /* \"#utility.yul\":22086:22098   */\n      add\n        /* \"#utility.yul\":22079:22098   */\n      swap2\n      pop\n        /* \"#utility.yul\":22115:22118   */\n      dup2\n        /* \"#utility.yul\":22108:22118   */\n      swap1\n      pop\n        /* \"#utility.yul\":21681:22124   */\n      swap4\n      swap3\n      pop\n      pop\n      pop\n      jump\t// out\n        /* \"#utility.yul\":22130:22659   */\n    tag_258:\n        /* \"#utility.yul\":22297:22301   */\n      0x00\n        /* \"#utility.yul\":22335:22337   */\n      0x60\n        /* \"#utility.yul\":22324:22333   */\n      dup3\n        /* \"#utility.yul\":22320:22338   */\n      add\n        /* \"#utility.yul\":22312:22338   */\n      swap1\n      pop\n        /* \"#utility.yul\":22348:22419   */\n      tag_633\n        /* \"#utility.yul\":22416:22417   */\n      0x00\n        /* \"#utility.yul\":22405:22414   */\n      dup4\n        /* \"#utility.yul\":22401:22418   */\n      add\n        /* \"#utility.yul\":22392:22398   */\n      dup7\n        /* \"#utility.yul\":22348:22419   */\n      tag_341\n      jump\t// in\n    tag_633:\n        /* \"#utility.yul\":22429:22501   */\n      tag_634\n        /* \"#utility.yul\":22497:22499   */\n      0x20\n        /* \"#utility.yul\":22486:22495   */\n      dup4\n        /* \"#utility.yul\":22482:22500   */\n      add\n        /* \"#utility.yul\":22473:22479   */\n      dup6\n        /* \"#utility.yul\":22429:22501   */\n      tag_340\n      jump\t// in\n    tag_634:\n        /* \"#utility.yul\":22548:22557   */\n      dup2\n        /* \"#utility.yul\":22542:22546   */\n      dup2\n        /* \"#utility.yul\":22538:22558   */\n      sub\n        /* \"#utility.yul\":22533:22535   */\n      0x40\n        /* \"#utility.yul\":22522:22531   */\n      dup4\n        /* \"#utility.yul\":22518:22536   */\n      add\n        /* \"#utility.yul\":22511:22559   */\n      mstore\n        /* \"#utility.yul\":22576:22652   */\n      tag_635\n        /* \"#utility.yul\":22647:22651   */\n      dup2\n        /* \"#utility.yul\":22638:22644   */\n      dup5\n        /* \"#utility.yul\":22576:22652   */\n      tag_375\n      jump\t// in\n    tag_635:\n        /* \"#utility.yul\":22568:22652   */\n      swap1\n      pop\n        /* \"#utility.yul\":22130:22659   */\n      swap5\n      swap4\n      pop\n      pop\n      pop\n      pop\n      jump\t// out\n        /* \"#utility.yul\":22665:22887   */\n    tag_386:\n        /* \"#utility.yul\":22805:22839   */\n      0x756e61626c6520746f207472616e73666572416e6443616c6c20746f206f7261\n        /* \"#utility.yul\":22801:22802   */\n      0x00\n        /* \"#utility.yul\":22793:22799   */\n      dup3\n        /* \"#utility.yul\":22789:22803   */\n      add\n        /* \"#utility.yul\":22782:22840   */\n      mstore\n        /* \"#utility.yul\":22874:22879   */\n      0x636c650000000000000000000000000000000000000000000000000000000000\n        /* \"#utility.yul\":22869:22871   */\n      0x20\n        /* \"#utility.yul\":22861:22867   */\n      dup3\n        /* \"#utility.yul\":22857:22872   */\n      add\n        /* \"#utility.yul\":22850:22880   */\n      mstore\n        /* \"#utility.yul\":22665:22887   */\n      pop\n      jump\t// out\n        /* \"#utility.yul\":22893:23259   */\n    tag_387:\n        /* \"#utility.yul\":23035:23038   */\n      0x00\n        /* \"#utility.yul\":23056:23123   */\n      tag_638\n        /* \"#utility.yul\":23120:23122   */\n      0x23\n        /* \"#utility.yul\":23115:23118   */\n      dup4\n        /* \"#utility.yul\":23056:23123   */\n      tag_343\n      jump\t// in\n    tag_638:\n        /* \"#utility.yul\":23049:23123   */\n      swap2\n      pop\n        /* \"#utility.yul\":23132:23225   */\n      tag_639\n        /* \"#utility.yul\":23221:23224   */\n      dup3\n        /* \"#utility.yul\":23132:23225   */\n      tag_386\n      jump\t// in\n    tag_639:\n        /* \"#utility.yul\":23250:23252   */\n      0x40\n        /* \"#utility.yul\":23245:23248   */\n      dup3\n        /* \"#utility.yul\":23241:23253   */\n      add\n        /* \"#utility.yul\":23234:23253   */\n      swap1\n      pop\n        /* \"#utility.yul\":22893:23259   */\n      swap2\n      swap1\n      pop\n      jump\t// out\n        /* \"#utility.yul\":23265:23684   */\n    tag_264:\n        /* \"#utility.yul\":23431:23435   */\n      0x00\n        /* \"#utility.yul\":23469:23471   */\n      0x20\n        /* \"#utility.yul\":23458:23467   */\n      dup3\n        /* \"#utility.yul\":23454:23472   */\n      add\n        /* \"#utility.yul\":23446:23472   */\n      swap1\n      pop\n        /* \"#utility.yul\":23518:23527   */\n      dup2\n        /* \"#utility.yul\":23512:23516   */\n      dup2\n        /* \"#utility.yul\":23508:23528   */\n      sub\n        /* \"#utility.yul\":23504:23505   */\n      0x00\n        /* \"#utility.yul\":23493:23502   */\n      dup4\n        /* \"#utility.yul\":23489:23506   */\n      add\n        /* \"#utility.yul\":23482:23529   */\n      mstore\n        /* \"#utility.yul\":23546:23677   */\n      tag_641\n        /* \"#utility.yul\":23672:23676   */\n      dup2\n        /* \"#utility.yul\":23546:23677   */\n      tag_387\n      jump\t// in\n    tag_641:\n        /* \"#utility.yul\":23538:23677   */\n      swap1\n      pop\n        /* \"#utility.yul\":23265:23684   */\n      swap2\n      swap1\n      pop\n      jump\t// out\n        /* \"#utility.yul\":23690:23792   */\n    tag_388:\n        /* \"#utility.yul\":23732:23740   */\n      0x00\n        /* \"#utility.yul\":23779:23784   */\n      dup2\n        /* \"#utility.yul\":23776:23777   */\n      0x01\n        /* \"#utility.yul\":23772:23785   */\n      shr\n        /* \"#utility.yul\":23751:23785   */\n      swap1\n      pop\n        /* \"#utility.yul\":23690:23792   */\n      swap2\n      swap1\n      pop\n      jump\t// out\n        /* \"#utility.yul\":23798:24646   */\n    tag_389:\n        /* \"#utility.yul\":23859:23864   */\n      0x00\n        /* \"#utility.yul\":23866:23870   */\n      dup1\n        /* \"#utility.yul\":23890:23896   */\n      dup3\n        /* \"#utility.yul\":23881:23896   */\n      swap2\n      pop\n        /* \"#utility.yul\":23914:23919   */\n      dup4\n        /* \"#utility.yul\":23905:23919   */\n      swap1\n      pop\n        /* \"#utility.yul\":23928:24640   */\n    tag_644:\n        /* \"#utility.yul\":23949:23950   */\n      0x01\n        /* \"#utility.yul\":23939:23947   */\n      dup6\n        /* \"#utility.yul\":23936:23951   */\n      gt\n        /* \"#utility.yul\":23928:24640   */\n      iszero\n      tag_646\n      jumpi\n        /* \"#utility.yul\":24044:24048   */\n      dup1\n        /* \"#utility.yul\":24039:24042   */\n      dup7\n        /* \"#utility.yul\":24035:24049   */\n      div\n        /* \"#utility.yul\":24029:24033   */\n      dup2\n        /* \"#utility.yul\":24026:24050   */\n      gt\n        /* \"#utility.yul\":24023:24073   */\n      iszero\n      tag_647\n      jumpi\n        /* \"#utility.yul\":24053:24071   */\n      tag_648\n      tag_354\n      jump\t// in\n    tag_648:\n        /* \"#utility.yul\":24023:24073   */\n    tag_647:\n        /* \"#utility.yul\":24103:24104   */\n      0x01\n        /* \"#utility.yul\":24093:24101   */\n      dup6\n        /* \"#utility.yul\":24089:24105   */\n      and\n        /* \"#utility.yul\":24086:24537   */\n      iszero\n      tag_649\n      jumpi\n        /* \"#utility.yul\":24518:24522   */\n      dup1\n        /* \"#utility.yul\":24511:24516   */\n      dup3\n        /* \"#utility.yul\":24507:24523   */\n      mul\n        /* \"#utility.yul\":24498:24523   */\n      swap2\n      pop\n        /* \"#utility.yul\":24086:24537   */\n    tag_649:\n        /* \"#utility.yul\":24568:24572   */\n      dup1\n        /* \"#utility.yul\":24562:24566   */\n      dup2\n        /* \"#utility.yul\":24558:24573   */\n      mul\n        /* \"#utility.yul\":24550:24573   */\n      swap1\n      pop\n        /* \"#utility.yul\":24598:24630   */\n      tag_650\n        /* \"#utility.yul\":24621:24629   */\n      dup6\n        /* \"#utility.yul\":24598:24630   */\n      tag_388\n      jump\t// in\n    tag_650:\n        /* \"#utility.yul\":24586:24630   */\n      swap5\n      pop\n        /* \"#utility.yul\":23928:24640   */\n      jump(tag_644)\n    tag_646:\n        /* \"#utility.yul\":23798:24646   */\n      swap5\n      pop\n      swap5\n      swap3\n      pop\n      pop\n      pop\n      jump\t// out\n        /* \"#utility.yul\":24652:25725   */\n    tag_390:\n        /* \"#utility.yul\":24706:24711   */\n      0x00\n        /* \"#utility.yul\":24897:24905   */\n      dup3\n        /* \"#utility.yul\":24887:24927   */\n      tag_652\n      jumpi\n        /* \"#utility.yul\":24918:24919   */\n      0x01\n        /* \"#utility.yul\":24909:24919   */\n      swap1\n      pop\n        /* \"#utility.yul\":24920:24925   */\n      jump(tag_651)\n        /* \"#utility.yul\":24887:24927   */\n    tag_652:\n        /* \"#utility.yul\":24946:24950   */\n      dup2\n        /* \"#utility.yul\":24936:24972   */\n      tag_653\n      jumpi\n        /* \"#utility.yul\":24963:24964   */\n      0x00\n        /* \"#utility.yul\":24954:24964   */\n      swap1\n      pop\n        /* \"#utility.yul\":24965:24970   */\n      jump(tag_651)\n        /* \"#utility.yul\":24936:24972   */\n    tag_653:\n        /* \"#utility.yul\":25032:25036   */\n      dup2\n        /* \"#utility.yul\":25080:25081   */\n      0x01\n        /* \"#utility.yul\":25075:25102   */\n      dup2\n      eq\n      tag_655\n      jumpi\n        /* \"#utility.yul\":25116:25117   */\n      0x02\n        /* \"#utility.yul\":25111:25302   */\n      dup2\n      eq\n      tag_656\n      jumpi\n        /* \"#utility.yul\":25025:25302   */\n      jump(tag_654)\n        /* \"#utility.yul\":25075:25102   */\n    tag_655:\n        /* \"#utility.yul\":25093:25094   */\n      0x01\n        /* \"#utility.yul\":25084:25094   */\n      swap2\n      pop\n        /* \"#utility.yul\":25095:25100   */\n      pop\n      jump(tag_651)\n        /* \"#utility.yul\":25111:25302   */\n    tag_656:\n        /* \"#utility.yul\":25156:25159   */\n      0xff\n        /* \"#utility.yul\":25146:25154   */\n      dup5\n        /* \"#utility.yul\":25143:25160   */\n      gt\n        /* \"#utility.yul\":25140:25183   */\n      iszero\n      tag_657\n      jumpi\n        /* \"#utility.yul\":25163:25181   */\n      tag_658\n      tag_354\n      jump\t// in\n    tag_658:\n        /* \"#utility.yul\":25140:25183   */\n    tag_657:\n        /* \"#utility.yul\":25212:25220   */\n      dup4\n        /* \"#utility.yul\":25209:25210   */\n      0x02\n        /* \"#utility.yul\":25205:25221   */\n      exp\n        /* \"#utility.yul\":25196:25221   */\n      swap2\n      pop\n        /* \"#utility.yul\":25247:25250   */\n      dup5\n        /* \"#utility.yul\":25240:25245   */\n      dup3\n        /* \"#utility.yul\":25237:25251   */\n      gt\n        /* \"#utility.yul\":25234:25274   */\n      iszero\n      tag_659\n      jumpi\n        /* \"#utility.yul\":25254:25272   */\n      tag_660\n      tag_354\n      jump\t// in\n    tag_660:\n        /* \"#utility.yul\":25234:25274   */\n    tag_659:\n        /* \"#utility.yul\":25287:25292   */\n      pop\n      jump(tag_651)\n        /* \"#utility.yul\":25025:25302   */\n    tag_654:\n      pop\n        /* \"#utility.yul\":25411:25413   */\n      0x20\n        /* \"#utility.yul\":25401:25409   */\n      dup4\n        /* \"#utility.yul\":25398:25414   */\n      lt\n        /* \"#utility.yul\":25392:25395   */\n      0x0133\n        /* \"#utility.yul\":25386:25390   */\n      dup4\n        /* \"#utility.yul\":25383:25396   */\n      lt\n        /* \"#utility.yul\":25379:25415   */\n      and\n        /* \"#utility.yul\":25361:25363   */\n      0x4e\n        /* \"#utility.yul\":25351:25359   */\n      dup5\n        /* \"#utility.yul\":25348:25364   */\n      lt\n        /* \"#utility.yul\":25343:25345   */\n      0x0b\n        /* \"#utility.yul\":25337:25341   */\n      dup5\n        /* \"#utility.yul\":25334:25346   */\n      lt\n        /* \"#utility.yul\":25330:25365   */\n      and\n        /* \"#utility.yul\":25314:25425   */\n      or\n        /* \"#utility.yul\":25311:25557   */\n      iszero\n      tag_661\n      jumpi\n        /* \"#utility.yul\":25467:25475   */\n      dup3\n        /* \"#utility.yul\":25461:25465   */\n      dup3\n        /* \"#utility.yul\":25457:25476   */\n      exp\n        /* \"#utility.yul\":25448:25476   */\n      swap1\n      pop\n        /* \"#utility.yul\":25502:25505   */\n      dup4\n        /* \"#utility.yul\":25495:25500   */\n      dup2\n        /* \"#utility.yul\":25492:25506   */\n      gt\n        /* \"#utility.yul\":25489:25529   */\n      iszero\n      tag_662\n      jumpi\n        /* \"#utility.yul\":25509:25527   */\n      tag_663\n      tag_354\n      jump\t// in\n    tag_663:\n        /* \"#utility.yul\":25489:25529   */\n    tag_662:\n        /* \"#utility.yul\":25542:25547   */\n      jump(tag_651)\n        /* \"#utility.yul\":25311:25557   */\n    tag_661:\n        /* \"#utility.yul\":25582:25624   */\n      tag_664\n        /* \"#utility.yul\":25620:25623   */\n      dup5\n        /* \"#utility.yul\":25610:25618   */\n      dup5\n        /* \"#utility.yul\":25604:25608   */\n      dup5\n        /* \"#utility.yul\":25601:25602   */\n      0x01\n        /* \"#utility.yul\":25582:25624   */\n      tag_389\n      jump\t// in\n    tag_664:\n        /* \"#utility.yul\":25567:25624   */\n      swap3\n      pop\n      swap1\n      pop\n        /* \"#utility.yul\":25656:25660   */\n      dup2\n        /* \"#utility.yul\":25651:25654   */\n      dup5\n        /* \"#utility.yul\":25647:25661   */\n      div\n        /* \"#utility.yul\":25640:25645   */\n      dup2\n        /* \"#utility.yul\":25637:25662   */\n      gt\n        /* \"#utility.yul\":25634:25685   */\n      iszero\n      tag_665\n      jumpi\n        /* \"#utility.yul\":25665:25683   */\n      tag_666\n      tag_354\n      jump\t// in\n    tag_666:\n        /* \"#utility.yul\":25634:25685   */\n    tag_665:\n        /* \"#utility.yul\":25714:25718   */\n      dup2\n        /* \"#utility.yul\":25707:25712   */\n      dup2\n        /* \"#utility.yul\":25703:25719   */\n      mul\n        /* \"#utility.yul\":25694:25719   */\n      swap1\n      pop\n        /* \"#utility.yul\":24652:25725   */\n    tag_651:\n      swap4\n      swap3\n      pop\n      pop\n      pop\n      jump\t// out\n        /* \"#utility.yul\":25731:26016   */\n    tag_308:\n        /* \"#utility.yul\":25791:25796   */\n      0x00\n        /* \"#utility.yul\":25815:25838   */\n      tag_668\n        /* \"#utility.yul\":25833:25837   */\n      dup3\n        /* \"#utility.yul\":25815:25838   */\n      tag_333\n      jump\t// in\n    tag_668:\n        /* \"#utility.yul\":25807:25838   */\n      swap2\n      pop\n        /* \"#utility.yul\":25859:25886   */\n      tag_669\n        /* \"#utility.yul\":25877:25885   */\n      dup4\n        /* \"#utility.yul\":25859:25886   */\n      tag_333\n      jump\t// in\n    tag_669:\n        /* \"#utility.yul\":25847:25886   */\n      swap3\n      pop\n        /* \"#utility.yul\":25905:26009   */\n      tag_670\n        /* \"#utility.yul\":25942:26008   */\n      0xffffffffffffffffffffffffffffffffffffffffffffffffffffffffffffffff\n        /* \"#utility.yul\":25932:25940   */\n      dup5\n        /* \"#utility.yul\":25926:25930   */\n      dup5\n        /* \"#utility.yul\":25905:26009   */\n      tag_390\n      jump\t// in\n    tag_670:\n        /* \"#utility.yul\":25896:26009   */\n      swap1\n      pop\n        /* \"#utility.yul\":25731:26016   */\n      swap3\n      swap2\n      pop\n      pop\n      jump\t// out\n    stop\n    data_a917319d0c16ba4cac932157b59744b1249a2b13dba6ee56adc014a26fe2bb82 68747470733a2f2f70656163696f6170692e636f6d3a333030322f6765745277612f\n    data_afbd8fb867d177e51da50dde301b1bc19bcbc4086107da2adefc8c4bcdba802d 5b22636f6e74656e742d74797065222c20226170706c69636174696f6e2f6a736f6e225d\n\n    auxdata: 0xa2646970667358221220eba133876a36b8f2fa16c1a34e0b285e0ad539df67278e13aa872d55a989ffd564736f6c63430008180033\n}\n",
				"bytecode": {
					"linkReferences": {},
					"object": "6080604052600160045534801562000015575f80fd5b5033805f8073ffffffffffffffffffffffffffffffffffffffff168273ffffffffffffffffffffffffffffffffffffffff16036200008a576040517f08c379a000000000000000000000000000000000000000000000000000000000815260040162000081906200054b565b60405180910390fd5b8160065f6101000a81548173ffffffffffffffffffffffffffffffffffffffff021916908373ffffffffffffffffffffffffffffffffffffffff1602179055505f73ffffffffffffffffffffffffffffffffffffffff168173ffffffffffffffffffffffffffffffffffffffff161462000110576200010f81620001ba60201b60201c565b5b5050506200013873326c977e6efc84e512bb9c30f76e30c160ed06fb620002e960201b60201c565b6200015d7312a3d7759f745f4cb8ee8a647038c040cb8862a56200032c60201b60201c565b620001a36040518060400160405280602081526020017f61383335366634383536396334333465616134616335666362346462356363308152506200039060201b60201c565b620001b45f620003b560201b60201c565b620007de565b3373ffffffffffffffffffffffffffffffffffffffff168173ffffffffffffffffffffffffffffffffffffffff16036200022b576040517f08c379a00000000000000000000000000000000000000000000000000000000081526004016200022290620005b9565b60405180910390fd5b8060075f6101000a81548173ffffffffffffffffffffffffffffffffffffffff021916908373ffffffffffffffffffffffffffffffffffffffff1602179055508073ffffffffffffffffffffffffffffffffffffffff1660065f9054906101000a900473ffffffffffffffffffffffffffffffffffffffff1673ffffffffffffffffffffffffffffffffffffffff167fed8889f560326eb138920d842192f0eb3dd22b4f139c87a2c57538e05bae127860405160405180910390a350565b8060025f6101000a81548173ffffffffffffffffffffffffffffffffffffffff021916908373ffffffffffffffffffffffffffffffffffffffff16021790555050565b6200033c620003fc60201b60201c565b8060085f6101000a81548173ffffffffffffffffffffffffffffffffffffffff021916908373ffffffffffffffffffffffffffffffffffffffff1602179055506200038d816200049060201b60201c565b50565b620003a0620003fc60201b60201c565b80620003ac906200061d565b60098190555050565b620003c5620003fc60201b60201c565b620003f96064670de0b6b3a764000083620003e19190620006c2565b620003ed919062000739565b620004d360201b60201c565b50565b60065f9054906101000a900473ffffffffffffffffffffffffffffffffffffffff1673ffffffffffffffffffffffffffffffffffffffff163373ffffffffffffffffffffffffffffffffffffffff16146200048e576040517f08c379a00000000000000000000000000000000000000000000000000000000081526004016200048590620007be565b60405180910390fd5b565b8060035f6101000a81548173ffffffffffffffffffffffffffffffffffffffff021916908373ffffffffffffffffffffffffffffffffffffffff16021790555050565b620004e3620003fc60201b60201c565b80600a8190555050565b5f82825260208201905092915050565b7f43616e6e6f7420736574206f776e657220746f207a65726f00000000000000005f82015250565b5f62000533601883620004ed565b91506200054082620004fd565b602082019050919050565b5f6020820190508181035f830152620005648162000525565b9050919050565b7f43616e6e6f74207472616e7366657220746f2073656c660000000000000000005f82015250565b5f620005a1601783620004ed565b9150620005ae826200056b565b602082019050919050565b5f6020820190508181035f830152620005d28162000593565b9050919050565b5f81519050919050565b5f819050602082019050919050565b5f819050919050565b5f620006088251620005f2565b80915050919050565b5f82821b905092915050565b5f6200062982620005d9565b826200063584620005e3565b90506200064281620005fb565b925060208210156200068557620006807fffffffffffffffffffffffffffffffffffffffffffffffffffffffffffffffff8360200360080262000611565b831692505b5050919050565b5f819050919050565b7f4e487b71000000000000000000000000000000000000000000000000000000005f52601160045260245ffd5b5f620006ce826200068c565b9150620006db836200068c565b9250828202620006eb816200068c565b9150828204841483151762000705576200070462000695565b5b5092915050565b7f4e487b71000000000000000000000000000000000000000000000000000000005f52601260045260245ffd5b5f62000745826200068c565b915062000752836200068c565b9250826200076557620007646200070c565b5b828204905092915050565b7f4f6e6c792063616c6c61626c65206279206f776e6572000000000000000000005f82015250565b5f620007a6601683620004ed565b9150620007b38262000770565b602082019050919050565b5f6020820190508181035f830152620007d78162000798565b9050919050565b6125a880620007ec5f395ff3fe608060405234801561000f575f80fd5b50600436106100e8575f3560e01c80638da5cb5b1161008a578063b18b78dd11610064578063b18b78dd146101e8578063e3da201d14610206578063f2fde38b14610222578063f34473a51461023e576100e8565b80638da5cb5b146101a25780638dc654a2146101c0578063b02f7fe0146101ca576100e8565b80634c69c00f116100c65780634c69c00f14610140578063562376821461015c57806379ba50971461017a5780637a7f01a714610184576100e8565b8063129fc1c0146100ec5780632c199889146101085780634357855e14610124575b5f80fd5b610106600480360381019061010191906118af565b61025a565b005b610122600480360381019061011d91906118af565b610275565b005b61013e6004803603810190610139919061195c565b61058b565b005b61015a600480360381019061015591906119f4565b610696565b005b6101646106ea565b6040516101719190611a2e565b60405180910390f35b61018261071a565b005b61018c6108ab565b6040516101999190611a2e565b60405180910390f35b6101aa6108b1565b6040516101b79190611a56565b60405180910390f35b6101c86108d9565b005b6101d2610a20565b6040516101df9190611ae9565b60405180910390f35b6101f0610a51565b6040516101fd9190611a56565b60405180910390f35b610220600480360381019061021b9190611b09565b610a81565b005b61023c600480360381019061023791906119f4565b610a93565b005b61025860048036038101906102539190611b09565b610aa7565b005b610262610ada565b8061026c90611b6d565b60098190555050565b5f610289600954634357855e60e01b610b6b565b90505f60405180606001604052806022815260200161252d6022913990505f81846040516020016102bb929190611c0d565b604051602081830303815290604052905061034b6040518060400160405280600681526020017f6d6574686f6400000000000000000000000000000000000000000000000000008152506040518060400160405280600381526020017f474554000000000000000000000000000000000000000000000000000000000081525085610b9b9092919063ffffffff16565b6103956040518060400160405280600381526020017f75726c00000000000000000000000000000000000000000000000000000000008152508285610b9b9092919063ffffffff16565b6103f76040518060400160405280600781526020017f686561646572730000000000000000000000000000000000000000000000000081525060405180606001604052806024815260200161254f6024913985610b9b9092919063ffffffff16565b61044f6040518060400160405280600481526020017f626f64790000000000000000000000000000000000000000000000000000000081525060405180602001604052805f81525085610b9b9092919063ffffffff16565b6104a76040518060400160405280600781526020017f636f6e746163740000000000000000000000000000000000000000000000000081525060405180602001604052805f81525085610b9b9092919063ffffffff16565b6105266040518060400160405280600481526020017f70617468000000000000000000000000000000000000000000000000000000008152506040518060400160405280600881526020017f727761507269636500000000000000000000000000000000000000000000000081525085610b9b9092919063ffffffff16565b6105786040518060400160405280600a81526020017f6d756c7469706c69657200000000000000000000000000000000000000000000815250670de0b6b3a764000085610bce9092919063ffffffff16565b61058483600a54610c01565b5050505050565b8160055f8281526020019081526020015f205f9054906101000a900473ffffffffffffffffffffffffffffffffffffffff1673ffffffffffffffffffffffffffffffffffffffff163373ffffffffffffffffffffffffffffffffffffffff161461062a576040517f08c379a000000000000000000000000000000000000000000000000000000000815260040161062190611ca0565b60405180910390fd5b60055f8281526020019081526020015f205f6101000a81549073ffffffffffffffffffffffffffffffffffffffff0219169055807f7cc135e0cebb02c3480ae5d74d377283180a2601f8f644edf7987b009316c63a60405160405180910390a281600b81905550505050565b61069e610ada565b8060085f6101000a81548173ffffffffffffffffffffffffffffffffffffffff021916908373ffffffffffffffffffffffffffffffffffffffff1602179055506106e781610c36565b50565b5f6106f3610ada565b670de0b6b3a76400006064600a5461070b9190611ceb565b6107159190611d59565b905090565b60075f9054906101000a900473ffffffffffffffffffffffffffffffffffffffff1673ffffffffffffffffffffffffffffffffffffffff163373ffffffffffffffffffffffffffffffffffffffff16146107a9576040517f08c379a00000000000000000000000000000000000000000000000000000000081526004016107a090611dd3565b60405180910390fd5b5f60065f9054906101000a900473ffffffffffffffffffffffffffffffffffffffff1690503360065f6101000a81548173ffffffffffffffffffffffffffffffffffffffff021916908373ffffffffffffffffffffffffffffffffffffffff1602179055505f60075f6101000a81548173ffffffffffffffffffffffffffffffffffffffff021916908373ffffffffffffffffffffffffffffffffffffffff1602179055503373ffffffffffffffffffffffffffffffffffffffff168173ffffffffffffffffffffffffffffffffffffffff167f8be0079c531659141344cd1fd0a4f28419497f9722a3daafe3b4186f6b6457e060405160405180910390a350565b600b5481565b5f60065f9054906101000a900473ffffffffffffffffffffffffffffffffffffffff16905090565b6108e1610ada565b5f6108ea610c79565b90508073ffffffffffffffffffffffffffffffffffffffff1663a9059cbb338373ffffffffffffffffffffffffffffffffffffffff166370a08231306040518263ffffffff1660e01b81526004016109429190611a56565b602060405180830381865afa15801561095d573d5f803e3d5ffd5b505050506040513d601f19601f820116820180604052508101906109819190611e05565b6040518363ffffffff1660e01b815260040161099e929190611e30565b6020604051808303815f875af11580156109ba573d5f803e3d5ffd5b505050506040513d601f19601f820116820180604052508101906109de9190611e8c565b610a1d576040517f08c379a0000000000000000000000000000000000000000000000000000000008152600401610a1490611f01565b60405180910390fd5b50565b6060610a2a610ada565b600954604051602001610a3d9190611f3f565b604051602081830303815290604052905090565b5f610a5a610ada565b60085f9054906101000a900473ffffffffffffffffffffffffffffffffffffffff16905090565b610a89610ada565b80600a8190555050565b610a9b610ada565b610aa481610ca1565b50565b610aaf610ada565b610ad76064670de0b6b3a764000083610ac89190611ceb565b610ad29190611d59565b610a81565b50565b60065f9054906101000a900473ffffffffffffffffffffffffffffffffffffffff1673ffffffffffffffffffffffffffffffffffffffff163373ffffffffffffffffffffffffffffffffffffffff1614610b69576040517f08c379a0000000000000000000000000000000000000000000000000000000008152600401610b6090611fa3565b60405180910390fd5b565b610b736116e0565b610b7b6116e0565b610b9284308584610dcd909392919063ffffffff16565b91505092915050565b610bb2828460800151610e7c90919063ffffffff16565b610bc9818460800151610e7c90919063ffffffff16565b505050565b610be5828460800151610e7c90919063ffffffff16565b610bfc818460800151610ea190919063ffffffff16565b505050565b5f610c2e60035f9054906101000a900473ffffffffffffffffffffffffffffffffffffffff168484610f4c565b905092915050565b8060035f6101000a81548173ffffffffffffffffffffffffffffffffffffffff021916908373ffffffffffffffffffffffffffffffffffffffff16021790555050565b5f60025f9054906101000a900473ffffffffffffffffffffffffffffffffffffffff16905090565b3373ffffffffffffffffffffffffffffffffffffffff168173ffffffffffffffffffffffffffffffffffffffff1603610d0f576040517f08c379a0000000000000000000000000000000000000000000000000000000008152600401610d069061200b565b60405180910390fd5b8060075f6101000a81548173ffffffffffffffffffffffffffffffffffffffff021916908373ffffffffffffffffffffffffffffffffffffffff1602179055508073ffffffffffffffffffffffffffffffffffffffff1660065f9054906101000a900473ffffffffffffffffffffffffffffffffffffffff1673ffffffffffffffffffffffffffffffffffffffff167fed8889f560326eb138920d842192f0eb3dd22b4f139c87a2c57538e05bae127860405160405180910390a350565b610dd56116e0565b610de58560800151610100611011565b5083855f01818152505082856020019073ffffffffffffffffffffffffffffffffffffffff16908173ffffffffffffffffffffffffffffffffffffffff16815250508185604001907bffffffffffffffffffffffffffffffffffffffffffffffffffffffff191690817bffffffffffffffffffffffffffffffffffffffffffffffffffffffff191681525050849050949350505050565b610e898260038351611079565b610e9c81836111fe90919063ffffffff16565b505050565b7fffffffffffffffffffffffffffffffffffffffffffffffff0000000000000000811215610ed857610ed3828261121f565b610f48565b67ffffffffffffffff811315610ef757610ef28282611296565b610f47565b5f8112610f0e57610f09825f83611079565b610f46565b610f45826001837fffffffffffffffffffffffffffffffffffffffffffffffffffffffffffffffff610f409190612032565b611079565b5b5b5b5050565b5f806004549050600181610f609190612072565b6004819055505f633c6d41b960e01b5f80875f015188604001518660028b608001515f0151604051602401610f9b9796959493929190612136565b604051602081830303815290604052907bffffffffffffffffffffffffffffffffffffffffffffffffffffffff19166020820180517bffffffffffffffffffffffffffffffffffffffffffffffffffffffff83818316178352505050509050611006868386846112e2565b925050509392505050565b611019611749565b5f60208361102791906121aa565b146110535760208261103991906121aa565b602061104591906121da565b826110509190612072565b91505b818360200181815250506040518084525f81528281016020016040525082905092915050565b60178167ffffffffffffffff16116110b0576110aa8160058460ff16901b60ff16178461146f90919063ffffffff16565b506111f9565b60ff8167ffffffffffffffff1611611106576110df601860058460ff16901b178461146f90919063ffffffff16565b506111008167ffffffffffffffff1660018561148e9092919063ffffffff16565b506111f8565b61ffff8167ffffffffffffffff161161115d57611136601960058460ff16901b178461146f90919063ffffffff16565b506111578167ffffffffffffffff1660028561148e9092919063ffffffff16565b506111f7565b63ffffffff8167ffffffffffffffff16116111b65761118f601a60058460ff16901b178461146f90919063ffffffff16565b506111b08167ffffffffffffffff1660048561148e9092919063ffffffff16565b506111f6565b6111d3601b60058460ff16901b178461146f90919063ffffffff16565b506111f48167ffffffffffffffff1660088561148e9092919063ffffffff16565b505b5b5b5b505050565b611206611749565b61121783845f0151518485516114af565b905092915050565b61123d60036005600660ff16901b178361146f90919063ffffffff16565b5061129282827fffffffffffffffffffffffffffffffffffffffffffffffffffffffffffffffff61126e9190612032565b60405160200161127e9190611a2e565b60405160208183030381529060405261159b565b5050565b6112b460026005600660ff16901b178361146f90919063ffffffff16565b506112de82826040516020016112ca9190611a2e565b60405160208183030381529060405261159b565b5050565b5f30846040516020016112f69291906122be565b6040516020818303038152906040528051906020012090508460055f8381526020019081526020015f205f6101000a81548173ffffffffffffffffffffffffffffffffffffffff021916908373ffffffffffffffffffffffffffffffffffffffff160217905550807fb5e6e01e79f91267dc17b4e6314d5d4d03593d2ceee0fbb452b750bd70ea5af960405160405180910390a260025f9054906101000a900473ffffffffffffffffffffffffffffffffffffffff1673ffffffffffffffffffffffffffffffffffffffff16634000aea08685856040518463ffffffff1660e01b81526004016113e8939291906122e9565b6020604051808303815f875af1158015611404573d5f803e3d5ffd5b505050506040513d601f19601f820116820180604052508101906114289190611e8c565b611467576040517f08c379a000000000000000000000000000000000000000000000000000000000815260040161145e90612395565b60405180910390fd5b949350505050565b611477611749565b61148683845f015151846115c0565b905092915050565b611496611749565b6114a684855f0151518585611616565b90509392505050565b6114b7611749565b82518211156114c4575f80fd5b846020015182856114d59190612072565b111561150a576115098560026114fa886020015188876114f59190612072565b6116a3565b6115049190611ceb565b6116be565b5b5f808651805187602083010193508088870111156115285787860182525b60208701925050505b6020841061156f578051825260208261154a9190612072565b91506020816115599190612072565b905060208461156891906121da565b9350611531565b5f6001856020036101000a03905080198251168184511681811785525050508692505050949350505050565b6115a88260028351611079565b6115bb81836111fe90919063ffffffff16565b505050565b6115c8611749565b836020015183106115ee576115ed84600286602001516115e89190611ceb565b6116be565b5b83518051602085830101848153818603611609576001820183525b5050508390509392505050565b61161e611749565b8460200151848361162f9190612072565b11156116575761165685600286856116479190612072565b6116519190611ceb565b6116be565b5b5f60018361010061166891906124e2565b61167291906121da565b905085518386820101858319825116178152815185880111156116955784870182525b505085915050949350505050565b5f818311156116b4578290506116b8565b8190505b92915050565b5f825f015190506116cf8383611011565b506116da83826111fe565b50505050565b6040518060a001604052805f80191681526020015f73ffffffffffffffffffffffffffffffffffffffff1681526020015f7bffffffffffffffffffffffffffffffffffffffffffffffffffffffff191681526020015f8152602001611743611749565b81525090565b6040518060400160405280606081526020015f81525090565b5f604051905090565b5f80fd5b5f80fd5b5f80fd5b5f80fd5b5f601f19601f8301169050919050565b7f4e487b71000000000000000000000000000000000000000000000000000000005f52604160045260245ffd5b6117c18261177b565b810181811067ffffffffffffffff821117156117e0576117df61178b565b5b80604052505050565b5f6117f2611762565b90506117fe82826117b8565b919050565b5f67ffffffffffffffff82111561181d5761181c61178b565b5b6118268261177b565b9050602081019050919050565b828183375f83830152505050565b5f61185361184e84611803565b6117e9565b90508281526020810184848401111561186f5761186e611777565b5b61187a848285611833565b509392505050565b5f82601f83011261189657611895611773565b5b81356118a6848260208601611841565b91505092915050565b5f602082840312156118c4576118c361176b565b5b5f82013567ffffffffffffffff8111156118e1576118e061176f565b5b6118ed84828501611882565b91505092915050565b5f819050919050565b611908816118f6565b8114611912575f80fd5b50565b5f81359050611923816118ff565b92915050565b5f819050919050565b61193b81611929565b8114611945575f80fd5b50565b5f8135905061195681611932565b92915050565b5f80604083850312156119725761197161176b565b5b5f61197f85828601611915565b925050602061199085828601611948565b9150509250929050565b5f73ffffffffffffffffffffffffffffffffffffffff82169050919050565b5f6119c38261199a565b9050919050565b6119d3816119b9565b81146119dd575f80fd5b50565b5f813590506119ee816119ca565b92915050565b5f60208284031215611a0957611a0861176b565b5b5f611a16848285016119e0565b91505092915050565b611a2881611929565b82525050565b5f602082019050611a415f830184611a1f565b92915050565b611a50816119b9565b82525050565b5f602082019050611a695f830184611a47565b92915050565b5f81519050919050565b5f82825260208201905092915050565b5f5b83811015611aa6578082015181840152602081019050611a8b565b5f8484015250505050565b5f611abb82611a6f565b611ac58185611a79565b9350611ad5818560208601611a89565b611ade8161177b565b840191505092915050565b5f6020820190508181035f830152611b018184611ab1565b905092915050565b5f60208284031215611b1e57611b1d61176b565b5b5f611b2b84828501611948565b91505092915050565b5f81519050919050565b5f819050602082019050919050565b5f611b5882516118f6565b80915050919050565b5f82821b905092915050565b5f611b7782611b34565b82611b8184611b3e565b9050611b8c81611b4d565b92506020821015611bcc57611bc77fffffffffffffffffffffffffffffffffffffffffffffffffffffffffffffffff83602003600802611b61565b831692505b5050919050565b5f81905092915050565b5f611be782611a6f565b611bf18185611bd3565b9350611c01818560208601611a89565b80840191505092915050565b5f611c188285611bdd565b9150611c248284611bdd565b91508190509392505050565b7f536f75726365206d75737420626520746865206f7261636c65206f66207468655f8201527f2072657175657374000000000000000000000000000000000000000000000000602082015250565b5f611c8a602883611a79565b9150611c9582611c30565b604082019050919050565b5f6020820190508181035f830152611cb781611c7e565b9050919050565b7f4e487b71000000000000000000000000000000000000000000000000000000005f52601160045260245ffd5b5f611cf582611929565b9150611d0083611929565b9250828202611d0e81611929565b91508282048414831517611d2557611d24611cbe565b5b5092915050565b7f4e487b71000000000000000000000000000000000000000000000000000000005f52601260045260245ffd5b5f611d6382611929565b9150611d6e83611929565b925082611d7e57611d7d611d2c565b5b828204905092915050565b7f4d7573742062652070726f706f736564206f776e6572000000000000000000005f82015250565b5f611dbd601683611a79565b9150611dc882611d89565b602082019050919050565b5f6020820190508181035f830152611dea81611db1565b9050919050565b5f81519050611dff81611932565b92915050565b5f60208284031215611e1a57611e1961176b565b5b5f611e2784828501611df1565b91505092915050565b5f604082019050611e435f830185611a47565b611e506020830184611a1f565b9392505050565b5f8115159050919050565b611e6b81611e57565b8114611e75575f80fd5b50565b5f81519050611e8681611e62565b92915050565b5f60208284031215611ea157611ea061176b565b5b5f611eae84828501611e78565b91505092915050565b7f556e61626c6520746f207472616e7366657200000000000000000000000000005f82015250565b5f611eeb601283611a79565b9150611ef682611eb7565b602082019050919050565b5f6020820190508181035f830152611f1881611edf565b9050919050565b5f819050919050565b611f39611f34826118f6565b611f1f565b82525050565b5f611f4a8284611f28565b60208201915081905092915050565b7f4f6e6c792063616c6c61626c65206279206f776e6572000000000000000000005f82015250565b5f611f8d601683611a79565b9150611f9882611f59565b602082019050919050565b5f6020820190508181035f830152611fba81611f81565b9050919050565b7f43616e6e6f74207472616e7366657220746f2073656c660000000000000000005f82015250565b5f611ff5601783611a79565b915061200082611fc1565b602082019050919050565b5f6020820190508181035f83015261202281611fe9565b9050919050565b5f819050919050565b5f61203c82612029565b915061204783612029565b925082820390508181125f8412168282135f85121516171561206c5761206b611cbe565b5b92915050565b5f61207c82611929565b915061208783611929565b925082820190508082111561209f5761209e611cbe565b5b92915050565b6120ae816118f6565b82525050565b5f7fffffffff0000000000000000000000000000000000000000000000000000000082169050919050565b6120e8816120b4565b82525050565b5f82825260208201905092915050565b5f61210882611b34565b61211281856120ee565b9350612122818560208601611a89565b61212b8161177b565b840191505092915050565b5f60e0820190506121495f83018a611a47565b6121566020830189611a1f565b61216360408301886120a5565b61217060608301876120df565b61217d6080830186611a1f565b61218a60a0830185611a1f565b81810360c083015261219c81846120fe565b905098975050505050505050565b5f6121b482611929565b91506121bf83611929565b9250826121cf576121ce611d2c565b5b828206905092915050565b5f6121e482611929565b91506121ef83611929565b925082820390508181111561220757612206611cbe565b5b92915050565b5f819050919050565b5f61223061222b6122268461199a565b61220d565b61199a565b9050919050565b5f61224182612216565b9050919050565b5f61225282612237565b9050919050565b5f8160601b9050919050565b5f61226f82612259565b9050919050565b5f61228082612265565b9050919050565b61229861229382612248565b612276565b82525050565b5f819050919050565b6122b86122b382611929565b61229e565b82525050565b5f6122c98285612287565b6014820191506122d982846122a7565b6020820191508190509392505050565b5f6060820190506122fc5f830186611a47565b6123096020830185611a1f565b818103604083015261231b81846120fe565b9050949350505050565b7f756e61626c6520746f207472616e73666572416e6443616c6c20746f206f72615f8201527f636c650000000000000000000000000000000000000000000000000000000000602082015250565b5f61237f602383611a79565b915061238a82612325565b604082019050919050565b5f6020820190508181035f8301526123ac81612373565b9050919050565b5f8160011c9050919050565b5f808291508390505b6001851115612408578086048111156123e4576123e3611cbe565b5b60018516156123f35780820291505b8081029050612401856123b3565b94506123c8565b94509492505050565b5f8261242057600190506124db565b8161242d575f90506124db565b8160018114612443576002811461244d5761247c565b60019150506124db565b60ff84111561245f5761245e611cbe565b5b8360020a91508482111561247657612475611cbe565b5b506124db565b5060208310610133831016604e8410600b84101617156124b15782820a9050838111156124ac576124ab611cbe565b5b6124db565b6124be84848460016123bf565b925090508184048111156124d5576124d4611cbe565b5b81810290505b9392505050565b5f6124ec82611929565b91506124f783611929565b92506125247fffffffffffffffffffffffffffffffffffffffffffffffffffffffffffffffff8484612411565b90509291505056fe68747470733a2f2f70656163696f6170692e636f6d3a333030322f6765745277612f5b22636f6e74656e742d74797065222c20226170706c69636174696f6e2f6a736f6e225da2646970667358221220eba133876a36b8f2fa16c1a34e0b285e0ad539df67278e13aa872d55a989ffd564736f6c63430008180033",
					"opcodes": "PUSH1 0x80 PUSH1 0x40 MSTORE PUSH1 0x1 PUSH1 0x4 SSTORE CALLVALUE DUP1 ISZERO PUSH3 0x15 JUMPI PUSH0 DUP1 REVERT JUMPDEST POP CALLER DUP1 PUSH0 DUP1 PUSH20 0xFFFFFFFFFFFFFFFFFFFFFFFFFFFFFFFFFFFFFFFF AND DUP3 PUSH20 0xFFFFFFFFFFFFFFFFFFFFFFFFFFFFFFFFFFFFFFFF AND SUB PUSH3 0x8A JUMPI PUSH1 0x40 MLOAD PUSH32 0x8C379A000000000000000000000000000000000000000000000000000000000 DUP2 MSTORE PUSH1 0x4 ADD PUSH3 0x81 SWAP1 PUSH3 0x54B JUMP JUMPDEST PUSH1 0x40 MLOAD DUP1 SWAP2 SUB SWAP1 REVERT JUMPDEST DUP2 PUSH1 0x6 PUSH0 PUSH2 0x100 EXP DUP2 SLOAD DUP2 PUSH20 0xFFFFFFFFFFFFFFFFFFFFFFFFFFFFFFFFFFFFFFFF MUL NOT AND SWAP1 DUP4 PUSH20 0xFFFFFFFFFFFFFFFFFFFFFFFFFFFFFFFFFFFFFFFF AND MUL OR SWAP1 SSTORE POP PUSH0 PUSH20 0xFFFFFFFFFFFFFFFFFFFFFFFFFFFFFFFFFFFFFFFF AND DUP2 PUSH20 0xFFFFFFFFFFFFFFFFFFFFFFFFFFFFFFFFFFFFFFFF AND EQ PUSH3 0x110 JUMPI PUSH3 0x10F DUP2 PUSH3 0x1BA PUSH1 0x20 SHL PUSH1 0x20 SHR JUMP JUMPDEST JUMPDEST POP POP POP PUSH3 0x138 PUSH20 0x326C977E6EFC84E512BB9C30F76E30C160ED06FB PUSH3 0x2E9 PUSH1 0x20 SHL PUSH1 0x20 SHR JUMP JUMPDEST PUSH3 0x15D PUSH20 0x12A3D7759F745F4CB8EE8A647038C040CB8862A5 PUSH3 0x32C PUSH1 0x20 SHL PUSH1 0x20 SHR JUMP JUMPDEST PUSH3 0x1A3 PUSH1 0x40 MLOAD DUP1 PUSH1 0x40 ADD PUSH1 0x40 MSTORE DUP1 PUSH1 0x20 DUP2 MSTORE PUSH1 0x20 ADD PUSH32 0x6138333536663438353639633433346561613461633566636234646235636330 DUP2 MSTORE POP PUSH3 0x390 PUSH1 0x20 SHL PUSH1 0x20 SHR JUMP JUMPDEST PUSH3 0x1B4 PUSH0 PUSH3 0x3B5 PUSH1 0x20 SHL PUSH1 0x20 SHR JUMP JUMPDEST PUSH3 0x7DE JUMP JUMPDEST CALLER PUSH20 0xFFFFFFFFFFFFFFFFFFFFFFFFFFFFFFFFFFFFFFFF AND DUP2 PUSH20 0xFFFFFFFFFFFFFFFFFFFFFFFFFFFFFFFFFFFFFFFF AND SUB PUSH3 0x22B JUMPI PUSH1 0x40 MLOAD PUSH32 0x8C379A000000000000000000000000000000000000000000000000000000000 DUP2 MSTORE PUSH1 0x4 ADD PUSH3 0x222 SWAP1 PUSH3 0x5B9 JUMP JUMPDEST PUSH1 0x40 MLOAD DUP1 SWAP2 SUB SWAP1 REVERT JUMPDEST DUP1 PUSH1 0x7 PUSH0 PUSH2 0x100 EXP DUP2 SLOAD DUP2 PUSH20 0xFFFFFFFFFFFFFFFFFFFFFFFFFFFFFFFFFFFFFFFF MUL NOT AND SWAP1 DUP4 PUSH20 0xFFFFFFFFFFFFFFFFFFFFFFFFFFFFFFFFFFFFFFFF AND MUL OR SWAP1 SSTORE POP DUP1 PUSH20 0xFFFFFFFFFFFFFFFFFFFFFFFFFFFFFFFFFFFFFFFF AND PUSH1 0x6 PUSH0 SWAP1 SLOAD SWAP1 PUSH2 0x100 EXP SWAP1 DIV PUSH20 0xFFFFFFFFFFFFFFFFFFFFFFFFFFFFFFFFFFFFFFFF AND PUSH20 0xFFFFFFFFFFFFFFFFFFFFFFFFFFFFFFFFFFFFFFFF AND PUSH32 0xED8889F560326EB138920D842192F0EB3DD22B4F139C87A2C57538E05BAE1278 PUSH1 0x40 MLOAD PUSH1 0x40 MLOAD DUP1 SWAP2 SUB SWAP1 LOG3 POP JUMP JUMPDEST DUP1 PUSH1 0x2 PUSH0 PUSH2 0x100 EXP DUP2 SLOAD DUP2 PUSH20 0xFFFFFFFFFFFFFFFFFFFFFFFFFFFFFFFFFFFFFFFF MUL NOT AND SWAP1 DUP4 PUSH20 0xFFFFFFFFFFFFFFFFFFFFFFFFFFFFFFFFFFFFFFFF AND MUL OR SWAP1 SSTORE POP POP JUMP JUMPDEST PUSH3 0x33C PUSH3 0x3FC PUSH1 0x20 SHL PUSH1 0x20 SHR JUMP JUMPDEST DUP1 PUSH1 0x8 PUSH0 PUSH2 0x100 EXP DUP2 SLOAD DUP2 PUSH20 0xFFFFFFFFFFFFFFFFFFFFFFFFFFFFFFFFFFFFFFFF MUL NOT AND SWAP1 DUP4 PUSH20 0xFFFFFFFFFFFFFFFFFFFFFFFFFFFFFFFFFFFFFFFF AND MUL OR SWAP1 SSTORE POP PUSH3 0x38D DUP2 PUSH3 0x490 PUSH1 0x20 SHL PUSH1 0x20 SHR JUMP JUMPDEST POP JUMP JUMPDEST PUSH3 0x3A0 PUSH3 0x3FC PUSH1 0x20 SHL PUSH1 0x20 SHR JUMP JUMPDEST DUP1 PUSH3 0x3AC SWAP1 PUSH3 0x61D JUMP JUMPDEST PUSH1 0x9 DUP2 SWAP1 SSTORE POP POP JUMP JUMPDEST PUSH3 0x3C5 PUSH3 0x3FC PUSH1 0x20 SHL PUSH1 0x20 SHR JUMP JUMPDEST PUSH3 0x3F9 PUSH1 0x64 PUSH8 0xDE0B6B3A7640000 DUP4 PUSH3 0x3E1 SWAP2 SWAP1 PUSH3 0x6C2 JUMP JUMPDEST PUSH3 0x3ED SWAP2 SWAP1 PUSH3 0x739 JUMP JUMPDEST PUSH3 0x4D3 PUSH1 0x20 SHL PUSH1 0x20 SHR JUMP JUMPDEST POP JUMP JUMPDEST PUSH1 0x6 PUSH0 SWAP1 SLOAD SWAP1 PUSH2 0x100 EXP SWAP1 DIV PUSH20 0xFFFFFFFFFFFFFFFFFFFFFFFFFFFFFFFFFFFFFFFF AND PUSH20 0xFFFFFFFFFFFFFFFFFFFFFFFFFFFFFFFFFFFFFFFF AND CALLER PUSH20 0xFFFFFFFFFFFFFFFFFFFFFFFFFFFFFFFFFFFFFFFF AND EQ PUSH3 0x48E JUMPI PUSH1 0x40 MLOAD PUSH32 0x8C379A000000000000000000000000000000000000000000000000000000000 DUP2 MSTORE PUSH1 0x4 ADD PUSH3 0x485 SWAP1 PUSH3 0x7BE JUMP JUMPDEST PUSH1 0x40 MLOAD DUP1 SWAP2 SUB SWAP1 REVERT JUMPDEST JUMP JUMPDEST DUP1 PUSH1 0x3 PUSH0 PUSH2 0x100 EXP DUP2 SLOAD DUP2 PUSH20 0xFFFFFFFFFFFFFFFFFFFFFFFFFFFFFFFFFFFFFFFF MUL NOT AND SWAP1 DUP4 PUSH20 0xFFFFFFFFFFFFFFFFFFFFFFFFFFFFFFFFFFFFFFFF AND MUL OR SWAP1 SSTORE POP POP JUMP JUMPDEST PUSH3 0x4E3 PUSH3 0x3FC PUSH1 0x20 SHL PUSH1 0x20 SHR JUMP JUMPDEST DUP1 PUSH1 0xA DUP2 SWAP1 SSTORE POP POP JUMP JUMPDEST PUSH0 DUP3 DUP3 MSTORE PUSH1 0x20 DUP3 ADD SWAP1 POP SWAP3 SWAP2 POP POP JUMP JUMPDEST PUSH32 0x43616E6E6F7420736574206F776E657220746F207A65726F0000000000000000 PUSH0 DUP3 ADD MSTORE POP JUMP JUMPDEST PUSH0 PUSH3 0x533 PUSH1 0x18 DUP4 PUSH3 0x4ED JUMP JUMPDEST SWAP2 POP PUSH3 0x540 DUP3 PUSH3 0x4FD JUMP JUMPDEST PUSH1 0x20 DUP3 ADD SWAP1 POP SWAP2 SWAP1 POP JUMP JUMPDEST PUSH0 PUSH1 0x20 DUP3 ADD SWAP1 POP DUP2 DUP2 SUB PUSH0 DUP4 ADD MSTORE PUSH3 0x564 DUP2 PUSH3 0x525 JUMP JUMPDEST SWAP1 POP SWAP2 SWAP1 POP JUMP JUMPDEST PUSH32 0x43616E6E6F74207472616E7366657220746F2073656C66000000000000000000 PUSH0 DUP3 ADD MSTORE POP JUMP JUMPDEST PUSH0 PUSH3 0x5A1 PUSH1 0x17 DUP4 PUSH3 0x4ED JUMP JUMPDEST SWAP2 POP PUSH3 0x5AE DUP3 PUSH3 0x56B JUMP JUMPDEST PUSH1 0x20 DUP3 ADD SWAP1 POP SWAP2 SWAP1 POP JUMP JUMPDEST PUSH0 PUSH1 0x20 DUP3 ADD SWAP1 POP DUP2 DUP2 SUB PUSH0 DUP4 ADD MSTORE PUSH3 0x5D2 DUP2 PUSH3 0x593 JUMP JUMPDEST SWAP1 POP SWAP2 SWAP1 POP JUMP JUMPDEST PUSH0 DUP2 MLOAD SWAP1 POP SWAP2 SWAP1 POP JUMP JUMPDEST PUSH0 DUP2 SWAP1 POP PUSH1 0x20 DUP3 ADD SWAP1 POP SWAP2 SWAP1 POP JUMP JUMPDEST PUSH0 DUP2 SWAP1 POP SWAP2 SWAP1 POP JUMP JUMPDEST PUSH0 PUSH3 0x608 DUP3 MLOAD PUSH3 0x5F2 JUMP JUMPDEST DUP1 SWAP2 POP POP SWAP2 SWAP1 POP JUMP JUMPDEST PUSH0 DUP3 DUP3 SHL SWAP1 POP SWAP3 SWAP2 POP POP JUMP JUMPDEST PUSH0 PUSH3 0x629 DUP3 PUSH3 0x5D9 JUMP JUMPDEST DUP3 PUSH3 0x635 DUP5 PUSH3 0x5E3 JUMP JUMPDEST SWAP1 POP PUSH3 0x642 DUP2 PUSH3 0x5FB JUMP JUMPDEST SWAP3 POP PUSH1 0x20 DUP3 LT ISZERO PUSH3 0x685 JUMPI PUSH3 0x680 PUSH32 0xFFFFFFFFFFFFFFFFFFFFFFFFFFFFFFFFFFFFFFFFFFFFFFFFFFFFFFFFFFFFFFFF DUP4 PUSH1 0x20 SUB PUSH1 0x8 MUL PUSH3 0x611 JUMP JUMPDEST DUP4 AND SWAP3 POP JUMPDEST POP POP SWAP2 SWAP1 POP JUMP JUMPDEST PUSH0 DUP2 SWAP1 POP SWAP2 SWAP1 POP JUMP JUMPDEST PUSH32 0x4E487B7100000000000000000000000000000000000000000000000000000000 PUSH0 MSTORE PUSH1 0x11 PUSH1 0x4 MSTORE PUSH1 0x24 PUSH0 REVERT JUMPDEST PUSH0 PUSH3 0x6CE DUP3 PUSH3 0x68C JUMP JUMPDEST SWAP2 POP PUSH3 0x6DB DUP4 PUSH3 0x68C JUMP JUMPDEST SWAP3 POP DUP3 DUP3 MUL PUSH3 0x6EB DUP2 PUSH3 0x68C JUMP JUMPDEST SWAP2 POP DUP3 DUP3 DIV DUP5 EQ DUP4 ISZERO OR PUSH3 0x705 JUMPI PUSH3 0x704 PUSH3 0x695 JUMP JUMPDEST JUMPDEST POP SWAP3 SWAP2 POP POP JUMP JUMPDEST PUSH32 0x4E487B7100000000000000000000000000000000000000000000000000000000 PUSH0 MSTORE PUSH1 0x12 PUSH1 0x4 MSTORE PUSH1 0x24 PUSH0 REVERT JUMPDEST PUSH0 PUSH3 0x745 DUP3 PUSH3 0x68C JUMP JUMPDEST SWAP2 POP PUSH3 0x752 DUP4 PUSH3 0x68C JUMP JUMPDEST SWAP3 POP DUP3 PUSH3 0x765 JUMPI PUSH3 0x764 PUSH3 0x70C JUMP JUMPDEST JUMPDEST DUP3 DUP3 DIV SWAP1 POP SWAP3 SWAP2 POP POP JUMP JUMPDEST PUSH32 0x4F6E6C792063616C6C61626C65206279206F776E657200000000000000000000 PUSH0 DUP3 ADD MSTORE POP JUMP JUMPDEST PUSH0 PUSH3 0x7A6 PUSH1 0x16 DUP4 PUSH3 0x4ED JUMP JUMPDEST SWAP2 POP PUSH3 0x7B3 DUP3 PUSH3 0x770 JUMP JUMPDEST PUSH1 0x20 DUP3 ADD SWAP1 POP SWAP2 SWAP1 POP JUMP JUMPDEST PUSH0 PUSH1 0x20 DUP3 ADD SWAP1 POP DUP2 DUP2 SUB PUSH0 DUP4 ADD MSTORE PUSH3 0x7D7 DUP2 PUSH3 0x798 JUMP JUMPDEST SWAP1 POP SWAP2 SWAP1 POP JUMP JUMPDEST PUSH2 0x25A8 DUP1 PUSH3 0x7EC PUSH0 CODECOPY PUSH0 RETURN INVALID PUSH1 0x80 PUSH1 0x40 MSTORE CALLVALUE DUP1 ISZERO PUSH2 0xF JUMPI PUSH0 DUP1 REVERT JUMPDEST POP PUSH1 0x4 CALLDATASIZE LT PUSH2 0xE8 JUMPI PUSH0 CALLDATALOAD PUSH1 0xE0 SHR DUP1 PUSH4 0x8DA5CB5B GT PUSH2 0x8A JUMPI DUP1 PUSH4 0xB18B78DD GT PUSH2 0x64 JUMPI DUP1 PUSH4 0xB18B78DD EQ PUSH2 0x1E8 JUMPI DUP1 PUSH4 0xE3DA201D EQ PUSH2 0x206 JUMPI DUP1 PUSH4 0xF2FDE38B EQ PUSH2 0x222 JUMPI DUP1 PUSH4 0xF34473A5 EQ PUSH2 0x23E JUMPI PUSH2 0xE8 JUMP JUMPDEST DUP1 PUSH4 0x8DA5CB5B EQ PUSH2 0x1A2 JUMPI DUP1 PUSH4 0x8DC654A2 EQ PUSH2 0x1C0 JUMPI DUP1 PUSH4 0xB02F7FE0 EQ PUSH2 0x1CA JUMPI PUSH2 0xE8 JUMP JUMPDEST DUP1 PUSH4 0x4C69C00F GT PUSH2 0xC6 JUMPI DUP1 PUSH4 0x4C69C00F EQ PUSH2 0x140 JUMPI DUP1 PUSH4 0x56237682 EQ PUSH2 0x15C JUMPI DUP1 PUSH4 0x79BA5097 EQ PUSH2 0x17A JUMPI DUP1 PUSH4 0x7A7F01A7 EQ PUSH2 0x184 JUMPI PUSH2 0xE8 JUMP JUMPDEST DUP1 PUSH4 0x129FC1C0 EQ PUSH2 0xEC JUMPI DUP1 PUSH4 0x2C199889 EQ PUSH2 0x108 JUMPI DUP1 PUSH4 0x4357855E EQ PUSH2 0x124 JUMPI JUMPDEST PUSH0 DUP1 REVERT JUMPDEST PUSH2 0x106 PUSH1 0x4 DUP1 CALLDATASIZE SUB DUP2 ADD SWAP1 PUSH2 0x101 SWAP2 SWAP1 PUSH2 0x18AF JUMP JUMPDEST PUSH2 0x25A JUMP JUMPDEST STOP JUMPDEST PUSH2 0x122 PUSH1 0x4 DUP1 CALLDATASIZE SUB DUP2 ADD SWAP1 PUSH2 0x11D SWAP2 SWAP1 PUSH2 0x18AF JUMP JUMPDEST PUSH2 0x275 JUMP JUMPDEST STOP JUMPDEST PUSH2 0x13E PUSH1 0x4 DUP1 CALLDATASIZE SUB DUP2 ADD SWAP1 PUSH2 0x139 SWAP2 SWAP1 PUSH2 0x195C JUMP JUMPDEST PUSH2 0x58B JUMP JUMPDEST STOP JUMPDEST PUSH2 0x15A PUSH1 0x4 DUP1 CALLDATASIZE SUB DUP2 ADD SWAP1 PUSH2 0x155 SWAP2 SWAP1 PUSH2 0x19F4 JUMP JUMPDEST PUSH2 0x696 JUMP JUMPDEST STOP JUMPDEST PUSH2 0x164 PUSH2 0x6EA JUMP JUMPDEST PUSH1 0x40 MLOAD PUSH2 0x171 SWAP2 SWAP1 PUSH2 0x1A2E JUMP JUMPDEST PUSH1 0x40 MLOAD DUP1 SWAP2 SUB SWAP1 RETURN JUMPDEST PUSH2 0x182 PUSH2 0x71A JUMP JUMPDEST STOP JUMPDEST PUSH2 0x18C PUSH2 0x8AB JUMP JUMPDEST PUSH1 0x40 MLOAD PUSH2 0x199 SWAP2 SWAP1 PUSH2 0x1A2E JUMP JUMPDEST PUSH1 0x40 MLOAD DUP1 SWAP2 SUB SWAP1 RETURN JUMPDEST PUSH2 0x1AA PUSH2 0x8B1 JUMP JUMPDEST PUSH1 0x40 MLOAD PUSH2 0x1B7 SWAP2 SWAP1 PUSH2 0x1A56 JUMP JUMPDEST PUSH1 0x40 MLOAD DUP1 SWAP2 SUB SWAP1 RETURN JUMPDEST PUSH2 0x1C8 PUSH2 0x8D9 JUMP JUMPDEST STOP JUMPDEST PUSH2 0x1D2 PUSH2 0xA20 JUMP JUMPDEST PUSH1 0x40 MLOAD PUSH2 0x1DF SWAP2 SWAP1 PUSH2 0x1AE9 JUMP JUMPDEST PUSH1 0x40 MLOAD DUP1 SWAP2 SUB SWAP1 RETURN JUMPDEST PUSH2 0x1F0 PUSH2 0xA51 JUMP JUMPDEST PUSH1 0x40 MLOAD PUSH2 0x1FD SWAP2 SWAP1 PUSH2 0x1A56 JUMP JUMPDEST PUSH1 0x40 MLOAD DUP1 SWAP2 SUB SWAP1 RETURN JUMPDEST PUSH2 0x220 PUSH1 0x4 DUP1 CALLDATASIZE SUB DUP2 ADD SWAP1 PUSH2 0x21B SWAP2 SWAP1 PUSH2 0x1B09 JUMP JUMPDEST PUSH2 0xA81 JUMP JUMPDEST STOP JUMPDEST PUSH2 0x23C PUSH1 0x4 DUP1 CALLDATASIZE SUB DUP2 ADD SWAP1 PUSH2 0x237 SWAP2 SWAP1 PUSH2 0x19F4 JUMP JUMPDEST PUSH2 0xA93 JUMP JUMPDEST STOP JUMPDEST PUSH2 0x258 PUSH1 0x4 DUP1 CALLDATASIZE SUB DUP2 ADD SWAP1 PUSH2 0x253 SWAP2 SWAP1 PUSH2 0x1B09 JUMP JUMPDEST PUSH2 0xAA7 JUMP JUMPDEST STOP JUMPDEST PUSH2 0x262 PUSH2 0xADA JUMP JUMPDEST DUP1 PUSH2 0x26C SWAP1 PUSH2 0x1B6D JUMP JUMPDEST PUSH1 0x9 DUP2 SWAP1 SSTORE POP POP JUMP JUMPDEST PUSH0 PUSH2 0x289 PUSH1 0x9 SLOAD PUSH4 0x4357855E PUSH1 0xE0 SHL PUSH2 0xB6B JUMP JUMPDEST SWAP1 POP PUSH0 PUSH1 0x40 MLOAD DUP1 PUSH1 0x60 ADD PUSH1 0x40 MSTORE DUP1 PUSH1 0x22 DUP2 MSTORE PUSH1 0x20 ADD PUSH2 0x252D PUSH1 0x22 SWAP2 CODECOPY SWAP1 POP PUSH0 DUP2 DUP5 PUSH1 0x40 MLOAD PUSH1 0x20 ADD PUSH2 0x2BB SWAP3 SWAP2 SWAP1 PUSH2 0x1C0D JUMP JUMPDEST PUSH1 0x40 MLOAD PUSH1 0x20 DUP2 DUP4 SUB SUB DUP2 MSTORE SWAP1 PUSH1 0x40 MSTORE SWAP1 POP PUSH2 0x34B PUSH1 0x40 MLOAD DUP1 PUSH1 0x40 ADD PUSH1 0x40 MSTORE DUP1 PUSH1 0x6 DUP2 MSTORE PUSH1 0x20 ADD PUSH32 0x6D6574686F640000000000000000000000000000000000000000000000000000 DUP2 MSTORE POP PUSH1 0x40 MLOAD DUP1 PUSH1 0x40 ADD PUSH1 0x40 MSTORE DUP1 PUSH1 0x3 DUP2 MSTORE PUSH1 0x20 ADD PUSH32 0x4745540000000000000000000000000000000000000000000000000000000000 DUP2 MSTORE POP DUP6 PUSH2 0xB9B SWAP1 SWAP3 SWAP2 SWAP1 PUSH4 0xFFFFFFFF AND JUMP JUMPDEST PUSH2 0x395 PUSH1 0x40 MLOAD DUP1 PUSH1 0x40 ADD PUSH1 0x40 MSTORE DUP1 PUSH1 0x3 DUP2 MSTORE PUSH1 0x20 ADD PUSH32 0x75726C0000000000000000000000000000000000000000000000000000000000 DUP2 MSTORE POP DUP3 DUP6 PUSH2 0xB9B SWAP1 SWAP3 SWAP2 SWAP1 PUSH4 0xFFFFFFFF AND JUMP JUMPDEST PUSH2 0x3F7 PUSH1 0x40 MLOAD DUP1 PUSH1 0x40 ADD PUSH1 0x40 MSTORE DUP1 PUSH1 0x7 DUP2 MSTORE PUSH1 0x20 ADD PUSH32 0x6865616465727300000000000000000000000000000000000000000000000000 DUP2 MSTORE POP PUSH1 0x40 MLOAD DUP1 PUSH1 0x60 ADD PUSH1 0x40 MSTORE DUP1 PUSH1 0x24 DUP2 MSTORE PUSH1 0x20 ADD PUSH2 0x254F PUSH1 0x24 SWAP2 CODECOPY DUP6 PUSH2 0xB9B SWAP1 SWAP3 SWAP2 SWAP1 PUSH4 0xFFFFFFFF AND JUMP JUMPDEST PUSH2 0x44F PUSH1 0x40 MLOAD DUP1 PUSH1 0x40 ADD PUSH1 0x40 MSTORE DUP1 PUSH1 0x4 DUP2 MSTORE PUSH1 0x20 ADD PUSH32 0x626F647900000000000000000000000000000000000000000000000000000000 DUP2 MSTORE POP PUSH1 0x40 MLOAD DUP1 PUSH1 0x20 ADD PUSH1 0x40 MSTORE DUP1 PUSH0 DUP2 MSTORE POP DUP6 PUSH2 0xB9B SWAP1 SWAP3 SWAP2 SWAP1 PUSH4 0xFFFFFFFF AND JUMP JUMPDEST PUSH2 0x4A7 PUSH1 0x40 MLOAD DUP1 PUSH1 0x40 ADD PUSH1 0x40 MSTORE DUP1 PUSH1 0x7 DUP2 MSTORE PUSH1 0x20 ADD PUSH32 0x636F6E7461637400000000000000000000000000000000000000000000000000 DUP2 MSTORE POP PUSH1 0x40 MLOAD DUP1 PUSH1 0x20 ADD PUSH1 0x40 MSTORE DUP1 PUSH0 DUP2 MSTORE POP DUP6 PUSH2 0xB9B SWAP1 SWAP3 SWAP2 SWAP1 PUSH4 0xFFFFFFFF AND JUMP JUMPDEST PUSH2 0x526 PUSH1 0x40 MLOAD DUP1 PUSH1 0x40 ADD PUSH1 0x40 MSTORE DUP1 PUSH1 0x4 DUP2 MSTORE PUSH1 0x20 ADD PUSH32 0x7061746800000000000000000000000000000000000000000000000000000000 DUP2 MSTORE POP PUSH1 0x40 MLOAD DUP1 PUSH1 0x40 ADD PUSH1 0x40 MSTORE DUP1 PUSH1 0x8 DUP2 MSTORE PUSH1 0x20 ADD PUSH32 0x7277615072696365000000000000000000000000000000000000000000000000 DUP2 MSTORE POP DUP6 PUSH2 0xB9B SWAP1 SWAP3 SWAP2 SWAP1 PUSH4 0xFFFFFFFF AND JUMP JUMPDEST PUSH2 0x578 PUSH1 0x40 MLOAD DUP1 PUSH1 0x40 ADD PUSH1 0x40 MSTORE DUP1 PUSH1 0xA DUP2 MSTORE PUSH1 0x20 ADD PUSH32 0x6D756C7469706C69657200000000000000000000000000000000000000000000 DUP2 MSTORE POP PUSH8 0xDE0B6B3A7640000 DUP6 PUSH2 0xBCE SWAP1 SWAP3 SWAP2 SWAP1 PUSH4 0xFFFFFFFF AND JUMP JUMPDEST PUSH2 0x584 DUP4 PUSH1 0xA SLOAD PUSH2 0xC01 JUMP JUMPDEST POP POP POP POP POP JUMP JUMPDEST DUP2 PUSH1 0x5 PUSH0 DUP3 DUP2 MSTORE PUSH1 0x20 ADD SWAP1 DUP2 MSTORE PUSH1 0x20 ADD PUSH0 KECCAK256 PUSH0 SWAP1 SLOAD SWAP1 PUSH2 0x100 EXP SWAP1 DIV PUSH20 0xFFFFFFFFFFFFFFFFFFFFFFFFFFFFFFFFFFFFFFFF AND PUSH20 0xFFFFFFFFFFFFFFFFFFFFFFFFFFFFFFFFFFFFFFFF AND CALLER PUSH20 0xFFFFFFFFFFFFFFFFFFFFFFFFFFFFFFFFFFFFFFFF AND EQ PUSH2 0x62A JUMPI PUSH1 0x40 MLOAD PUSH32 0x8C379A000000000000000000000000000000000000000000000000000000000 DUP2 MSTORE PUSH1 0x4 ADD PUSH2 0x621 SWAP1 PUSH2 0x1CA0 JUMP JUMPDEST PUSH1 0x40 MLOAD DUP1 SWAP2 SUB SWAP1 REVERT JUMPDEST PUSH1 0x5 PUSH0 DUP3 DUP2 MSTORE PUSH1 0x20 ADD SWAP1 DUP2 MSTORE PUSH1 0x20 ADD PUSH0 KECCAK256 PUSH0 PUSH2 0x100 EXP DUP2 SLOAD SWAP1 PUSH20 0xFFFFFFFFFFFFFFFFFFFFFFFFFFFFFFFFFFFFFFFF MUL NOT AND SWAP1 SSTORE DUP1 PUSH32 0x7CC135E0CEBB02C3480AE5D74D377283180A2601F8F644EDF7987B009316C63A PUSH1 0x40 MLOAD PUSH1 0x40 MLOAD DUP1 SWAP2 SUB SWAP1 LOG2 DUP2 PUSH1 0xB DUP2 SWAP1 SSTORE POP POP POP POP JUMP JUMPDEST PUSH2 0x69E PUSH2 0xADA JUMP JUMPDEST DUP1 PUSH1 0x8 PUSH0 PUSH2 0x100 EXP DUP2 SLOAD DUP2 PUSH20 0xFFFFFFFFFFFFFFFFFFFFFFFFFFFFFFFFFFFFFFFF MUL NOT AND SWAP1 DUP4 PUSH20 0xFFFFFFFFFFFFFFFFFFFFFFFFFFFFFFFFFFFFFFFF AND MUL OR SWAP1 SSTORE POP PUSH2 0x6E7 DUP2 PUSH2 0xC36 JUMP JUMPDEST POP JUMP JUMPDEST PUSH0 PUSH2 0x6F3 PUSH2 0xADA JUMP JUMPDEST PUSH8 0xDE0B6B3A7640000 PUSH1 0x64 PUSH1 0xA SLOAD PUSH2 0x70B SWAP2 SWAP1 PUSH2 0x1CEB JUMP JUMPDEST PUSH2 0x715 SWAP2 SWAP1 PUSH2 0x1D59 JUMP JUMPDEST SWAP1 POP SWAP1 JUMP JUMPDEST PUSH1 0x7 PUSH0 SWAP1 SLOAD SWAP1 PUSH2 0x100 EXP SWAP1 DIV PUSH20 0xFFFFFFFFFFFFFFFFFFFFFFFFFFFFFFFFFFFFFFFF AND PUSH20 0xFFFFFFFFFFFFFFFFFFFFFFFFFFFFFFFFFFFFFFFF AND CALLER PUSH20 0xFFFFFFFFFFFFFFFFFFFFFFFFFFFFFFFFFFFFFFFF AND EQ PUSH2 0x7A9 JUMPI PUSH1 0x40 MLOAD PUSH32 0x8C379A000000000000000000000000000000000000000000000000000000000 DUP2 MSTORE PUSH1 0x4 ADD PUSH2 0x7A0 SWAP1 PUSH2 0x1DD3 JUMP JUMPDEST PUSH1 0x40 MLOAD DUP1 SWAP2 SUB SWAP1 REVERT JUMPDEST PUSH0 PUSH1 0x6 PUSH0 SWAP1 SLOAD SWAP1 PUSH2 0x100 EXP SWAP1 DIV PUSH20 0xFFFFFFFFFFFFFFFFFFFFFFFFFFFFFFFFFFFFFFFF AND SWAP1 POP CALLER PUSH1 0x6 PUSH0 PUSH2 0x100 EXP DUP2 SLOAD DUP2 PUSH20 0xFFFFFFFFFFFFFFFFFFFFFFFFFFFFFFFFFFFFFFFF MUL NOT AND SWAP1 DUP4 PUSH20 0xFFFFFFFFFFFFFFFFFFFFFFFFFFFFFFFFFFFFFFFF AND MUL OR SWAP1 SSTORE POP PUSH0 PUSH1 0x7 PUSH0 PUSH2 0x100 EXP DUP2 SLOAD DUP2 PUSH20 0xFFFFFFFFFFFFFFFFFFFFFFFFFFFFFFFFFFFFFFFF MUL NOT AND SWAP1 DUP4 PUSH20 0xFFFFFFFFFFFFFFFFFFFFFFFFFFFFFFFFFFFFFFFF AND MUL OR SWAP1 SSTORE POP CALLER PUSH20 0xFFFFFFFFFFFFFFFFFFFFFFFFFFFFFFFFFFFFFFFF AND DUP2 PUSH20 0xFFFFFFFFFFFFFFFFFFFFFFFFFFFFFFFFFFFFFFFF AND PUSH32 0x8BE0079C531659141344CD1FD0A4F28419497F9722A3DAAFE3B4186F6B6457E0 PUSH1 0x40 MLOAD PUSH1 0x40 MLOAD DUP1 SWAP2 SUB SWAP1 LOG3 POP JUMP JUMPDEST PUSH1 0xB SLOAD DUP2 JUMP JUMPDEST PUSH0 PUSH1 0x6 PUSH0 SWAP1 SLOAD SWAP1 PUSH2 0x100 EXP SWAP1 DIV PUSH20 0xFFFFFFFFFFFFFFFFFFFFFFFFFFFFFFFFFFFFFFFF AND SWAP1 POP SWAP1 JUMP JUMPDEST PUSH2 0x8E1 PUSH2 0xADA JUMP JUMPDEST PUSH0 PUSH2 0x8EA PUSH2 0xC79 JUMP JUMPDEST SWAP1 POP DUP1 PUSH20 0xFFFFFFFFFFFFFFFFFFFFFFFFFFFFFFFFFFFFFFFF AND PUSH4 0xA9059CBB CALLER DUP4 PUSH20 0xFFFFFFFFFFFFFFFFFFFFFFFFFFFFFFFFFFFFFFFF AND PUSH4 0x70A08231 ADDRESS PUSH1 0x40 MLOAD DUP3 PUSH4 0xFFFFFFFF AND PUSH1 0xE0 SHL DUP2 MSTORE PUSH1 0x4 ADD PUSH2 0x942 SWAP2 SWAP1 PUSH2 0x1A56 JUMP JUMPDEST PUSH1 0x20 PUSH1 0x40 MLOAD DUP1 DUP4 SUB DUP2 DUP7 GAS STATICCALL ISZERO DUP1 ISZERO PUSH2 0x95D JUMPI RETURNDATASIZE PUSH0 DUP1 RETURNDATACOPY RETURNDATASIZE PUSH0 REVERT JUMPDEST POP POP POP POP PUSH1 0x40 MLOAD RETURNDATASIZE PUSH1 0x1F NOT PUSH1 0x1F DUP3 ADD AND DUP3 ADD DUP1 PUSH1 0x40 MSTORE POP DUP2 ADD SWAP1 PUSH2 0x981 SWAP2 SWAP1 PUSH2 0x1E05 JUMP JUMPDEST PUSH1 0x40 MLOAD DUP4 PUSH4 0xFFFFFFFF AND PUSH1 0xE0 SHL DUP2 MSTORE PUSH1 0x4 ADD PUSH2 0x99E SWAP3 SWAP2 SWAP1 PUSH2 0x1E30 JUMP JUMPDEST PUSH1 0x20 PUSH1 0x40 MLOAD DUP1 DUP4 SUB DUP2 PUSH0 DUP8 GAS CALL ISZERO DUP1 ISZERO PUSH2 0x9BA JUMPI RETURNDATASIZE PUSH0 DUP1 RETURNDATACOPY RETURNDATASIZE PUSH0 REVERT JUMPDEST POP POP POP POP PUSH1 0x40 MLOAD RETURNDATASIZE PUSH1 0x1F NOT PUSH1 0x1F DUP3 ADD AND DUP3 ADD DUP1 PUSH1 0x40 MSTORE POP DUP2 ADD SWAP1 PUSH2 0x9DE SWAP2 SWAP1 PUSH2 0x1E8C JUMP JUMPDEST PUSH2 0xA1D JUMPI PUSH1 0x40 MLOAD PUSH32 0x8C379A000000000000000000000000000000000000000000000000000000000 DUP2 MSTORE PUSH1 0x4 ADD PUSH2 0xA14 SWAP1 PUSH2 0x1F01 JUMP JUMPDEST PUSH1 0x40 MLOAD DUP1 SWAP2 SUB SWAP1 REVERT JUMPDEST POP JUMP JUMPDEST PUSH1 0x60 PUSH2 0xA2A PUSH2 0xADA JUMP JUMPDEST PUSH1 0x9 SLOAD PUSH1 0x40 MLOAD PUSH1 0x20 ADD PUSH2 0xA3D SWAP2 SWAP1 PUSH2 0x1F3F JUMP JUMPDEST PUSH1 0x40 MLOAD PUSH1 0x20 DUP2 DUP4 SUB SUB DUP2 MSTORE SWAP1 PUSH1 0x40 MSTORE SWAP1 POP SWAP1 JUMP JUMPDEST PUSH0 PUSH2 0xA5A PUSH2 0xADA JUMP JUMPDEST PUSH1 0x8 PUSH0 SWAP1 SLOAD SWAP1 PUSH2 0x100 EXP SWAP1 DIV PUSH20 0xFFFFFFFFFFFFFFFFFFFFFFFFFFFFFFFFFFFFFFFF AND SWAP1 POP SWAP1 JUMP JUMPDEST PUSH2 0xA89 PUSH2 0xADA JUMP JUMPDEST DUP1 PUSH1 0xA DUP2 SWAP1 SSTORE POP POP JUMP JUMPDEST PUSH2 0xA9B PUSH2 0xADA JUMP JUMPDEST PUSH2 0xAA4 DUP2 PUSH2 0xCA1 JUMP JUMPDEST POP JUMP JUMPDEST PUSH2 0xAAF PUSH2 0xADA JUMP JUMPDEST PUSH2 0xAD7 PUSH1 0x64 PUSH8 0xDE0B6B3A7640000 DUP4 PUSH2 0xAC8 SWAP2 SWAP1 PUSH2 0x1CEB JUMP JUMPDEST PUSH2 0xAD2 SWAP2 SWAP1 PUSH2 0x1D59 JUMP JUMPDEST PUSH2 0xA81 JUMP JUMPDEST POP JUMP JUMPDEST PUSH1 0x6 PUSH0 SWAP1 SLOAD SWAP1 PUSH2 0x100 EXP SWAP1 DIV PUSH20 0xFFFFFFFFFFFFFFFFFFFFFFFFFFFFFFFFFFFFFFFF AND PUSH20 0xFFFFFFFFFFFFFFFFFFFFFFFFFFFFFFFFFFFFFFFF AND CALLER PUSH20 0xFFFFFFFFFFFFFFFFFFFFFFFFFFFFFFFFFFFFFFFF AND EQ PUSH2 0xB69 JUMPI PUSH1 0x40 MLOAD PUSH32 0x8C379A000000000000000000000000000000000000000000000000000000000 DUP2 MSTORE PUSH1 0x4 ADD PUSH2 0xB60 SWAP1 PUSH2 0x1FA3 JUMP JUMPDEST PUSH1 0x40 MLOAD DUP1 SWAP2 SUB SWAP1 REVERT JUMPDEST JUMP JUMPDEST PUSH2 0xB73 PUSH2 0x16E0 JUMP JUMPDEST PUSH2 0xB7B PUSH2 0x16E0 JUMP JUMPDEST PUSH2 0xB92 DUP5 ADDRESS DUP6 DUP5 PUSH2 0xDCD SWAP1 SWAP4 SWAP3 SWAP2 SWAP1 PUSH4 0xFFFFFFFF AND JUMP JUMPDEST SWAP2 POP POP SWAP3 SWAP2 POP POP JUMP JUMPDEST PUSH2 0xBB2 DUP3 DUP5 PUSH1 0x80 ADD MLOAD PUSH2 0xE7C SWAP1 SWAP2 SWAP1 PUSH4 0xFFFFFFFF AND JUMP JUMPDEST PUSH2 0xBC9 DUP2 DUP5 PUSH1 0x80 ADD MLOAD PUSH2 0xE7C SWAP1 SWAP2 SWAP1 PUSH4 0xFFFFFFFF AND JUMP JUMPDEST POP POP POP JUMP JUMPDEST PUSH2 0xBE5 DUP3 DUP5 PUSH1 0x80 ADD MLOAD PUSH2 0xE7C SWAP1 SWAP2 SWAP1 PUSH4 0xFFFFFFFF AND JUMP JUMPDEST PUSH2 0xBFC DUP2 DUP5 PUSH1 0x80 ADD MLOAD PUSH2 0xEA1 SWAP1 SWAP2 SWAP1 PUSH4 0xFFFFFFFF AND JUMP JUMPDEST POP POP POP JUMP JUMPDEST PUSH0 PUSH2 0xC2E PUSH1 0x3 PUSH0 SWAP1 SLOAD SWAP1 PUSH2 0x100 EXP SWAP1 DIV PUSH20 0xFFFFFFFFFFFFFFFFFFFFFFFFFFFFFFFFFFFFFFFF AND DUP5 DUP5 PUSH2 0xF4C JUMP JUMPDEST SWAP1 POP SWAP3 SWAP2 POP POP JUMP JUMPDEST DUP1 PUSH1 0x3 PUSH0 PUSH2 0x100 EXP DUP2 SLOAD DUP2 PUSH20 0xFFFFFFFFFFFFFFFFFFFFFFFFFFFFFFFFFFFFFFFF MUL NOT AND SWAP1 DUP4 PUSH20 0xFFFFFFFFFFFFFFFFFFFFFFFFFFFFFFFFFFFFFFFF AND MUL OR SWAP1 SSTORE POP POP JUMP JUMPDEST PUSH0 PUSH1 0x2 PUSH0 SWAP1 SLOAD SWAP1 PUSH2 0x100 EXP SWAP1 DIV PUSH20 0xFFFFFFFFFFFFFFFFFFFFFFFFFFFFFFFFFFFFFFFF AND SWAP1 POP SWAP1 JUMP JUMPDEST CALLER PUSH20 0xFFFFFFFFFFFFFFFFFFFFFFFFFFFFFFFFFFFFFFFF AND DUP2 PUSH20 0xFFFFFFFFFFFFFFFFFFFFFFFFFFFFFFFFFFFFFFFF AND SUB PUSH2 0xD0F JUMPI PUSH1 0x40 MLOAD PUSH32 0x8C379A000000000000000000000000000000000000000000000000000000000 DUP2 MSTORE PUSH1 0x4 ADD PUSH2 0xD06 SWAP1 PUSH2 0x200B JUMP JUMPDEST PUSH1 0x40 MLOAD DUP1 SWAP2 SUB SWAP1 REVERT JUMPDEST DUP1 PUSH1 0x7 PUSH0 PUSH2 0x100 EXP DUP2 SLOAD DUP2 PUSH20 0xFFFFFFFFFFFFFFFFFFFFFFFFFFFFFFFFFFFFFFFF MUL NOT AND SWAP1 DUP4 PUSH20 0xFFFFFFFFFFFFFFFFFFFFFFFFFFFFFFFFFFFFFFFF AND MUL OR SWAP1 SSTORE POP DUP1 PUSH20 0xFFFFFFFFFFFFFFFFFFFFFFFFFFFFFFFFFFFFFFFF AND PUSH1 0x6 PUSH0 SWAP1 SLOAD SWAP1 PUSH2 0x100 EXP SWAP1 DIV PUSH20 0xFFFFFFFFFFFFFFFFFFFFFFFFFFFFFFFFFFFFFFFF AND PUSH20 0xFFFFFFFFFFFFFFFFFFFFFFFFFFFFFFFFFFFFFFFF AND PUSH32 0xED8889F560326EB138920D842192F0EB3DD22B4F139C87A2C57538E05BAE1278 PUSH1 0x40 MLOAD PUSH1 0x40 MLOAD DUP1 SWAP2 SUB SWAP1 LOG3 POP JUMP JUMPDEST PUSH2 0xDD5 PUSH2 0x16E0 JUMP JUMPDEST PUSH2 0xDE5 DUP6 PUSH1 0x80 ADD MLOAD PUSH2 0x100 PUSH2 0x1011 JUMP JUMPDEST POP DUP4 DUP6 PUSH0 ADD DUP2 DUP2 MSTORE POP POP DUP3 DUP6 PUSH1 0x20 ADD SWAP1 PUSH20 0xFFFFFFFFFFFFFFFFFFFFFFFFFFFFFFFFFFFFFFFF AND SWAP1 DUP2 PUSH20 0xFFFFFFFFFFFFFFFFFFFFFFFFFFFFFFFFFFFFFFFF AND DUP2 MSTORE POP POP DUP2 DUP6 PUSH1 0x40 ADD SWAP1 PUSH28 0xFFFFFFFFFFFFFFFFFFFFFFFFFFFFFFFFFFFFFFFFFFFFFFFFFFFFFFFF NOT AND SWAP1 DUP2 PUSH28 0xFFFFFFFFFFFFFFFFFFFFFFFFFFFFFFFFFFFFFFFFFFFFFFFFFFFFFFFF NOT AND DUP2 MSTORE POP POP DUP5 SWAP1 POP SWAP5 SWAP4 POP POP POP POP JUMP JUMPDEST PUSH2 0xE89 DUP3 PUSH1 0x3 DUP4 MLOAD PUSH2 0x1079 JUMP JUMPDEST PUSH2 0xE9C DUP2 DUP4 PUSH2 0x11FE SWAP1 SWAP2 SWAP1 PUSH4 0xFFFFFFFF AND JUMP JUMPDEST POP POP POP JUMP JUMPDEST PUSH32 0xFFFFFFFFFFFFFFFFFFFFFFFFFFFFFFFFFFFFFFFFFFFFFFFF0000000000000000 DUP2 SLT ISZERO PUSH2 0xED8 JUMPI PUSH2 0xED3 DUP3 DUP3 PUSH2 0x121F JUMP JUMPDEST PUSH2 0xF48 JUMP JUMPDEST PUSH8 0xFFFFFFFFFFFFFFFF DUP2 SGT ISZERO PUSH2 0xEF7 JUMPI PUSH2 0xEF2 DUP3 DUP3 PUSH2 0x1296 JUMP JUMPDEST PUSH2 0xF47 JUMP JUMPDEST PUSH0 DUP2 SLT PUSH2 0xF0E JUMPI PUSH2 0xF09 DUP3 PUSH0 DUP4 PUSH2 0x1079 JUMP JUMPDEST PUSH2 0xF46 JUMP JUMPDEST PUSH2 0xF45 DUP3 PUSH1 0x1 DUP4 PUSH32 0xFFFFFFFFFFFFFFFFFFFFFFFFFFFFFFFFFFFFFFFFFFFFFFFFFFFFFFFFFFFFFFFF PUSH2 0xF40 SWAP2 SWAP1 PUSH2 0x2032 JUMP JUMPDEST PUSH2 0x1079 JUMP JUMPDEST JUMPDEST JUMPDEST JUMPDEST POP POP JUMP JUMPDEST PUSH0 DUP1 PUSH1 0x4 SLOAD SWAP1 POP PUSH1 0x1 DUP2 PUSH2 0xF60 SWAP2 SWAP1 PUSH2 0x2072 JUMP JUMPDEST PUSH1 0x4 DUP2 SWAP1 SSTORE POP PUSH0 PUSH4 0x3C6D41B9 PUSH1 0xE0 SHL PUSH0 DUP1 DUP8 PUSH0 ADD MLOAD DUP9 PUSH1 0x40 ADD MLOAD DUP7 PUSH1 0x2 DUP12 PUSH1 0x80 ADD MLOAD PUSH0 ADD MLOAD PUSH1 0x40 MLOAD PUSH1 0x24 ADD PUSH2 0xF9B SWAP8 SWAP7 SWAP6 SWAP5 SWAP4 SWAP3 SWAP2 SWAP1 PUSH2 0x2136 JUMP JUMPDEST PUSH1 0x40 MLOAD PUSH1 0x20 DUP2 DUP4 SUB SUB DUP2 MSTORE SWAP1 PUSH1 0x40 MSTORE SWAP1 PUSH28 0xFFFFFFFFFFFFFFFFFFFFFFFFFFFFFFFFFFFFFFFFFFFFFFFFFFFFFFFF NOT AND PUSH1 0x20 DUP3 ADD DUP1 MLOAD PUSH28 0xFFFFFFFFFFFFFFFFFFFFFFFFFFFFFFFFFFFFFFFFFFFFFFFFFFFFFFFF DUP4 DUP2 DUP4 AND OR DUP4 MSTORE POP POP POP POP SWAP1 POP PUSH2 0x1006 DUP7 DUP4 DUP7 DUP5 PUSH2 0x12E2 JUMP JUMPDEST SWAP3 POP POP POP SWAP4 SWAP3 POP POP POP JUMP JUMPDEST PUSH2 0x1019 PUSH2 0x1749 JUMP JUMPDEST PUSH0 PUSH1 0x20 DUP4 PUSH2 0x1027 SWAP2 SWAP1 PUSH2 0x21AA JUMP JUMPDEST EQ PUSH2 0x1053 JUMPI PUSH1 0x20 DUP3 PUSH2 0x1039 SWAP2 SWAP1 PUSH2 0x21AA JUMP JUMPDEST PUSH1 0x20 PUSH2 0x1045 SWAP2 SWAP1 PUSH2 0x21DA JUMP JUMPDEST DUP3 PUSH2 0x1050 SWAP2 SWAP1 PUSH2 0x2072 JUMP JUMPDEST SWAP2 POP JUMPDEST DUP2 DUP4 PUSH1 0x20 ADD DUP2 DUP2 MSTORE POP POP PUSH1 0x40 MLOAD DUP1 DUP5 MSTORE PUSH0 DUP2 MSTORE DUP3 DUP2 ADD PUSH1 0x20 ADD PUSH1 0x40 MSTORE POP DUP3 SWAP1 POP SWAP3 SWAP2 POP POP JUMP JUMPDEST PUSH1 0x17 DUP2 PUSH8 0xFFFFFFFFFFFFFFFF AND GT PUSH2 0x10B0 JUMPI PUSH2 0x10AA DUP2 PUSH1 0x5 DUP5 PUSH1 0xFF AND SWAP1 SHL PUSH1 0xFF AND OR DUP5 PUSH2 0x146F SWAP1 SWAP2 SWAP1 PUSH4 0xFFFFFFFF AND JUMP JUMPDEST POP PUSH2 0x11F9 JUMP JUMPDEST PUSH1 0xFF DUP2 PUSH8 0xFFFFFFFFFFFFFFFF AND GT PUSH2 0x1106 JUMPI PUSH2 0x10DF PUSH1 0x18 PUSH1 0x5 DUP5 PUSH1 0xFF AND SWAP1 SHL OR DUP5 PUSH2 0x146F SWAP1 SWAP2 SWAP1 PUSH4 0xFFFFFFFF AND JUMP JUMPDEST POP PUSH2 0x1100 DUP2 PUSH8 0xFFFFFFFFFFFFFFFF AND PUSH1 0x1 DUP6 PUSH2 0x148E SWAP1 SWAP3 SWAP2 SWAP1 PUSH4 0xFFFFFFFF AND JUMP JUMPDEST POP PUSH2 0x11F8 JUMP JUMPDEST PUSH2 0xFFFF DUP2 PUSH8 0xFFFFFFFFFFFFFFFF AND GT PUSH2 0x115D JUMPI PUSH2 0x1136 PUSH1 0x19 PUSH1 0x5 DUP5 PUSH1 0xFF AND SWAP1 SHL OR DUP5 PUSH2 0x146F SWAP1 SWAP2 SWAP1 PUSH4 0xFFFFFFFF AND JUMP JUMPDEST POP PUSH2 0x1157 DUP2 PUSH8 0xFFFFFFFFFFFFFFFF AND PUSH1 0x2 DUP6 PUSH2 0x148E SWAP1 SWAP3 SWAP2 SWAP1 PUSH4 0xFFFFFFFF AND JUMP JUMPDEST POP PUSH2 0x11F7 JUMP JUMPDEST PUSH4 0xFFFFFFFF DUP2 PUSH8 0xFFFFFFFFFFFFFFFF AND GT PUSH2 0x11B6 JUMPI PUSH2 0x118F PUSH1 0x1A PUSH1 0x5 DUP5 PUSH1 0xFF AND SWAP1 SHL OR DUP5 PUSH2 0x146F SWAP1 SWAP2 SWAP1 PUSH4 0xFFFFFFFF AND JUMP JUMPDEST POP PUSH2 0x11B0 DUP2 PUSH8 0xFFFFFFFFFFFFFFFF AND PUSH1 0x4 DUP6 PUSH2 0x148E SWAP1 SWAP3 SWAP2 SWAP1 PUSH4 0xFFFFFFFF AND JUMP JUMPDEST POP PUSH2 0x11F6 JUMP JUMPDEST PUSH2 0x11D3 PUSH1 0x1B PUSH1 0x5 DUP5 PUSH1 0xFF AND SWAP1 SHL OR DUP5 PUSH2 0x146F SWAP1 SWAP2 SWAP1 PUSH4 0xFFFFFFFF AND JUMP JUMPDEST POP PUSH2 0x11F4 DUP2 PUSH8 0xFFFFFFFFFFFFFFFF AND PUSH1 0x8 DUP6 PUSH2 0x148E SWAP1 SWAP3 SWAP2 SWAP1 PUSH4 0xFFFFFFFF AND JUMP JUMPDEST POP JUMPDEST JUMPDEST JUMPDEST JUMPDEST POP POP POP JUMP JUMPDEST PUSH2 0x1206 PUSH2 0x1749 JUMP JUMPDEST PUSH2 0x1217 DUP4 DUP5 PUSH0 ADD MLOAD MLOAD DUP5 DUP6 MLOAD PUSH2 0x14AF JUMP JUMPDEST SWAP1 POP SWAP3 SWAP2 POP POP JUMP JUMPDEST PUSH2 0x123D PUSH1 0x3 PUSH1 0x5 PUSH1 0x6 PUSH1 0xFF AND SWAP1 SHL OR DUP4 PUSH2 0x146F SWAP1 SWAP2 SWAP1 PUSH4 0xFFFFFFFF AND JUMP JUMPDEST POP PUSH2 0x1292 DUP3 DUP3 PUSH32 0xFFFFFFFFFFFFFFFFFFFFFFFFFFFFFFFFFFFFFFFFFFFFFFFFFFFFFFFFFFFFFFFF PUSH2 0x126E SWAP2 SWAP1 PUSH2 0x2032 JUMP JUMPDEST PUSH1 0x40 MLOAD PUSH1 0x20 ADD PUSH2 0x127E SWAP2 SWAP1 PUSH2 0x1A2E JUMP JUMPDEST PUSH1 0x40 MLOAD PUSH1 0x20 DUP2 DUP4 SUB SUB DUP2 MSTORE SWAP1 PUSH1 0x40 MSTORE PUSH2 0x159B JUMP JUMPDEST POP POP JUMP JUMPDEST PUSH2 0x12B4 PUSH1 0x2 PUSH1 0x5 PUSH1 0x6 PUSH1 0xFF AND SWAP1 SHL OR DUP4 PUSH2 0x146F SWAP1 SWAP2 SWAP1 PUSH4 0xFFFFFFFF AND JUMP JUMPDEST POP PUSH2 0x12DE DUP3 DUP3 PUSH1 0x40 MLOAD PUSH1 0x20 ADD PUSH2 0x12CA SWAP2 SWAP1 PUSH2 0x1A2E JUMP JUMPDEST PUSH1 0x40 MLOAD PUSH1 0x20 DUP2 DUP4 SUB SUB DUP2 MSTORE SWAP1 PUSH1 0x40 MSTORE PUSH2 0x159B JUMP JUMPDEST POP POP JUMP JUMPDEST PUSH0 ADDRESS DUP5 PUSH1 0x40 MLOAD PUSH1 0x20 ADD PUSH2 0x12F6 SWAP3 SWAP2 SWAP1 PUSH2 0x22BE JUMP JUMPDEST PUSH1 0x40 MLOAD PUSH1 0x20 DUP2 DUP4 SUB SUB DUP2 MSTORE SWAP1 PUSH1 0x40 MSTORE DUP1 MLOAD SWAP1 PUSH1 0x20 ADD KECCAK256 SWAP1 POP DUP5 PUSH1 0x5 PUSH0 DUP4 DUP2 MSTORE PUSH1 0x20 ADD SWAP1 DUP2 MSTORE PUSH1 0x20 ADD PUSH0 KECCAK256 PUSH0 PUSH2 0x100 EXP DUP2 SLOAD DUP2 PUSH20 0xFFFFFFFFFFFFFFFFFFFFFFFFFFFFFFFFFFFFFFFF MUL NOT AND SWAP1 DUP4 PUSH20 0xFFFFFFFFFFFFFFFFFFFFFFFFFFFFFFFFFFFFFFFF AND MUL OR SWAP1 SSTORE POP DUP1 PUSH32 0xB5E6E01E79F91267DC17B4E6314D5D4D03593D2CEEE0FBB452B750BD70EA5AF9 PUSH1 0x40 MLOAD PUSH1 0x40 MLOAD DUP1 SWAP2 SUB SWAP1 LOG2 PUSH1 0x2 PUSH0 SWAP1 SLOAD SWAP1 PUSH2 0x100 EXP SWAP1 DIV PUSH20 0xFFFFFFFFFFFFFFFFFFFFFFFFFFFFFFFFFFFFFFFF AND PUSH20 0xFFFFFFFFFFFFFFFFFFFFFFFFFFFFFFFFFFFFFFFF AND PUSH4 0x4000AEA0 DUP7 DUP6 DUP6 PUSH1 0x40 MLOAD DUP5 PUSH4 0xFFFFFFFF AND PUSH1 0xE0 SHL DUP2 MSTORE PUSH1 0x4 ADD PUSH2 0x13E8 SWAP4 SWAP3 SWAP2 SWAP1 PUSH2 0x22E9 JUMP JUMPDEST PUSH1 0x20 PUSH1 0x40 MLOAD DUP1 DUP4 SUB DUP2 PUSH0 DUP8 GAS CALL ISZERO DUP1 ISZERO PUSH2 0x1404 JUMPI RETURNDATASIZE PUSH0 DUP1 RETURNDATACOPY RETURNDATASIZE PUSH0 REVERT JUMPDEST POP POP POP POP PUSH1 0x40 MLOAD RETURNDATASIZE PUSH1 0x1F NOT PUSH1 0x1F DUP3 ADD AND DUP3 ADD DUP1 PUSH1 0x40 MSTORE POP DUP2 ADD SWAP1 PUSH2 0x1428 SWAP2 SWAP1 PUSH2 0x1E8C JUMP JUMPDEST PUSH2 0x1467 JUMPI PUSH1 0x40 MLOAD PUSH32 0x8C379A000000000000000000000000000000000000000000000000000000000 DUP2 MSTORE PUSH1 0x4 ADD PUSH2 0x145E SWAP1 PUSH2 0x2395 JUMP JUMPDEST PUSH1 0x40 MLOAD DUP1 SWAP2 SUB SWAP1 REVERT JUMPDEST SWAP5 SWAP4 POP POP POP POP JUMP JUMPDEST PUSH2 0x1477 PUSH2 0x1749 JUMP JUMPDEST PUSH2 0x1486 DUP4 DUP5 PUSH0 ADD MLOAD MLOAD DUP5 PUSH2 0x15C0 JUMP JUMPDEST SWAP1 POP SWAP3 SWAP2 POP POP JUMP JUMPDEST PUSH2 0x1496 PUSH2 0x1749 JUMP JUMPDEST PUSH2 0x14A6 DUP5 DUP6 PUSH0 ADD MLOAD MLOAD DUP6 DUP6 PUSH2 0x1616 JUMP JUMPDEST SWAP1 POP SWAP4 SWAP3 POP POP POP JUMP JUMPDEST PUSH2 0x14B7 PUSH2 0x1749 JUMP JUMPDEST DUP3 MLOAD DUP3 GT ISZERO PUSH2 0x14C4 JUMPI PUSH0 DUP1 REVERT JUMPDEST DUP5 PUSH1 0x20 ADD MLOAD DUP3 DUP6 PUSH2 0x14D5 SWAP2 SWAP1 PUSH2 0x2072 JUMP JUMPDEST GT ISZERO PUSH2 0x150A JUMPI PUSH2 0x1509 DUP6 PUSH1 0x2 PUSH2 0x14FA DUP9 PUSH1 0x20 ADD MLOAD DUP9 DUP8 PUSH2 0x14F5 SWAP2 SWAP1 PUSH2 0x2072 JUMP JUMPDEST PUSH2 0x16A3 JUMP JUMPDEST PUSH2 0x1504 SWAP2 SWAP1 PUSH2 0x1CEB JUMP JUMPDEST PUSH2 0x16BE JUMP JUMPDEST JUMPDEST PUSH0 DUP1 DUP7 MLOAD DUP1 MLOAD DUP8 PUSH1 0x20 DUP4 ADD ADD SWAP4 POP DUP1 DUP9 DUP8 ADD GT ISZERO PUSH2 0x1528 JUMPI DUP8 DUP7 ADD DUP3 MSTORE JUMPDEST PUSH1 0x20 DUP8 ADD SWAP3 POP POP POP JUMPDEST PUSH1 0x20 DUP5 LT PUSH2 0x156F JUMPI DUP1 MLOAD DUP3 MSTORE PUSH1 0x20 DUP3 PUSH2 0x154A SWAP2 SWAP1 PUSH2 0x2072 JUMP JUMPDEST SWAP2 POP PUSH1 0x20 DUP2 PUSH2 0x1559 SWAP2 SWAP1 PUSH2 0x2072 JUMP JUMPDEST SWAP1 POP PUSH1 0x20 DUP5 PUSH2 0x1568 SWAP2 SWAP1 PUSH2 0x21DA JUMP JUMPDEST SWAP4 POP PUSH2 0x1531 JUMP JUMPDEST PUSH0 PUSH1 0x1 DUP6 PUSH1 0x20 SUB PUSH2 0x100 EXP SUB SWAP1 POP DUP1 NOT DUP3 MLOAD AND DUP2 DUP5 MLOAD AND DUP2 DUP2 OR DUP6 MSTORE POP POP POP DUP7 SWAP3 POP POP POP SWAP5 SWAP4 POP POP POP POP JUMP JUMPDEST PUSH2 0x15A8 DUP3 PUSH1 0x2 DUP4 MLOAD PUSH2 0x1079 JUMP JUMPDEST PUSH2 0x15BB DUP2 DUP4 PUSH2 0x11FE SWAP1 SWAP2 SWAP1 PUSH4 0xFFFFFFFF AND JUMP JUMPDEST POP POP POP JUMP JUMPDEST PUSH2 0x15C8 PUSH2 0x1749 JUMP JUMPDEST DUP4 PUSH1 0x20 ADD MLOAD DUP4 LT PUSH2 0x15EE JUMPI PUSH2 0x15ED DUP5 PUSH1 0x2 DUP7 PUSH1 0x20 ADD MLOAD PUSH2 0x15E8 SWAP2 SWAP1 PUSH2 0x1CEB JUMP JUMPDEST PUSH2 0x16BE JUMP JUMPDEST JUMPDEST DUP4 MLOAD DUP1 MLOAD PUSH1 0x20 DUP6 DUP4 ADD ADD DUP5 DUP2 MSTORE8 DUP2 DUP7 SUB PUSH2 0x1609 JUMPI PUSH1 0x1 DUP3 ADD DUP4 MSTORE JUMPDEST POP POP POP DUP4 SWAP1 POP SWAP4 SWAP3 POP POP POP JUMP JUMPDEST PUSH2 0x161E PUSH2 0x1749 JUMP JUMPDEST DUP5 PUSH1 0x20 ADD MLOAD DUP5 DUP4 PUSH2 0x162F SWAP2 SWAP1 PUSH2 0x2072 JUMP JUMPDEST GT ISZERO PUSH2 0x1657 JUMPI PUSH2 0x1656 DUP6 PUSH1 0x2 DUP7 DUP6 PUSH2 0x1647 SWAP2 SWAP1 PUSH2 0x2072 JUMP JUMPDEST PUSH2 0x1651 SWAP2 SWAP1 PUSH2 0x1CEB JUMP JUMPDEST PUSH2 0x16BE JUMP JUMPDEST JUMPDEST PUSH0 PUSH1 0x1 DUP4 PUSH2 0x100 PUSH2 0x1668 SWAP2 SWAP1 PUSH2 0x24E2 JUMP JUMPDEST PUSH2 0x1672 SWAP2 SWAP1 PUSH2 0x21DA JUMP JUMPDEST SWAP1 POP DUP6 MLOAD DUP4 DUP7 DUP3 ADD ADD DUP6 DUP4 NOT DUP3 MLOAD AND OR DUP2 MSTORE DUP2 MLOAD DUP6 DUP9 ADD GT ISZERO PUSH2 0x1695 JUMPI DUP5 DUP8 ADD DUP3 MSTORE JUMPDEST POP POP DUP6 SWAP2 POP POP SWAP5 SWAP4 POP POP POP POP JUMP JUMPDEST PUSH0 DUP2 DUP4 GT ISZERO PUSH2 0x16B4 JUMPI DUP3 SWAP1 POP PUSH2 0x16B8 JUMP JUMPDEST DUP2 SWAP1 POP JUMPDEST SWAP3 SWAP2 POP POP JUMP JUMPDEST PUSH0 DUP3 PUSH0 ADD MLOAD SWAP1 POP PUSH2 0x16CF DUP4 DUP4 PUSH2 0x1011 JUMP JUMPDEST POP PUSH2 0x16DA DUP4 DUP3 PUSH2 0x11FE JUMP JUMPDEST POP POP POP POP JUMP JUMPDEST PUSH1 0x40 MLOAD DUP1 PUSH1 0xA0 ADD PUSH1 0x40 MSTORE DUP1 PUSH0 DUP1 NOT AND DUP2 MSTORE PUSH1 0x20 ADD PUSH0 PUSH20 0xFFFFFFFFFFFFFFFFFFFFFFFFFFFFFFFFFFFFFFFF AND DUP2 MSTORE PUSH1 0x20 ADD PUSH0 PUSH28 0xFFFFFFFFFFFFFFFFFFFFFFFFFFFFFFFFFFFFFFFFFFFFFFFFFFFFFFFF NOT AND DUP2 MSTORE PUSH1 0x20 ADD PUSH0 DUP2 MSTORE PUSH1 0x20 ADD PUSH2 0x1743 PUSH2 0x1749 JUMP JUMPDEST DUP2 MSTORE POP SWAP1 JUMP JUMPDEST PUSH1 0x40 MLOAD DUP1 PUSH1 0x40 ADD PUSH1 0x40 MSTORE DUP1 PUSH1 0x60 DUP2 MSTORE PUSH1 0x20 ADD PUSH0 DUP2 MSTORE POP SWAP1 JUMP JUMPDEST PUSH0 PUSH1 0x40 MLOAD SWAP1 POP SWAP1 JUMP JUMPDEST PUSH0 DUP1 REVERT JUMPDEST PUSH0 DUP1 REVERT JUMPDEST PUSH0 DUP1 REVERT JUMPDEST PUSH0 DUP1 REVERT JUMPDEST PUSH0 PUSH1 0x1F NOT PUSH1 0x1F DUP4 ADD AND SWAP1 POP SWAP2 SWAP1 POP JUMP JUMPDEST PUSH32 0x4E487B7100000000000000000000000000000000000000000000000000000000 PUSH0 MSTORE PUSH1 0x41 PUSH1 0x4 MSTORE PUSH1 0x24 PUSH0 REVERT JUMPDEST PUSH2 0x17C1 DUP3 PUSH2 0x177B JUMP JUMPDEST DUP2 ADD DUP2 DUP2 LT PUSH8 0xFFFFFFFFFFFFFFFF DUP3 GT OR ISZERO PUSH2 0x17E0 JUMPI PUSH2 0x17DF PUSH2 0x178B JUMP JUMPDEST JUMPDEST DUP1 PUSH1 0x40 MSTORE POP POP POP JUMP JUMPDEST PUSH0 PUSH2 0x17F2 PUSH2 0x1762 JUMP JUMPDEST SWAP1 POP PUSH2 0x17FE DUP3 DUP3 PUSH2 0x17B8 JUMP JUMPDEST SWAP2 SWAP1 POP JUMP JUMPDEST PUSH0 PUSH8 0xFFFFFFFFFFFFFFFF DUP3 GT ISZERO PUSH2 0x181D JUMPI PUSH2 0x181C PUSH2 0x178B JUMP JUMPDEST JUMPDEST PUSH2 0x1826 DUP3 PUSH2 0x177B JUMP JUMPDEST SWAP1 POP PUSH1 0x20 DUP2 ADD SWAP1 POP SWAP2 SWAP1 POP JUMP JUMPDEST DUP3 DUP2 DUP4 CALLDATACOPY PUSH0 DUP4 DUP4 ADD MSTORE POP POP POP JUMP JUMPDEST PUSH0 PUSH2 0x1853 PUSH2 0x184E DUP5 PUSH2 0x1803 JUMP JUMPDEST PUSH2 0x17E9 JUMP JUMPDEST SWAP1 POP DUP3 DUP2 MSTORE PUSH1 0x20 DUP2 ADD DUP5 DUP5 DUP5 ADD GT ISZERO PUSH2 0x186F JUMPI PUSH2 0x186E PUSH2 0x1777 JUMP JUMPDEST JUMPDEST PUSH2 0x187A DUP5 DUP3 DUP6 PUSH2 0x1833 JUMP JUMPDEST POP SWAP4 SWAP3 POP POP POP JUMP JUMPDEST PUSH0 DUP3 PUSH1 0x1F DUP4 ADD SLT PUSH2 0x1896 JUMPI PUSH2 0x1895 PUSH2 0x1773 JUMP JUMPDEST JUMPDEST DUP2 CALLDATALOAD PUSH2 0x18A6 DUP5 DUP3 PUSH1 0x20 DUP7 ADD PUSH2 0x1841 JUMP JUMPDEST SWAP2 POP POP SWAP3 SWAP2 POP POP JUMP JUMPDEST PUSH0 PUSH1 0x20 DUP3 DUP5 SUB SLT ISZERO PUSH2 0x18C4 JUMPI PUSH2 0x18C3 PUSH2 0x176B JUMP JUMPDEST JUMPDEST PUSH0 DUP3 ADD CALLDATALOAD PUSH8 0xFFFFFFFFFFFFFFFF DUP2 GT ISZERO PUSH2 0x18E1 JUMPI PUSH2 0x18E0 PUSH2 0x176F JUMP JUMPDEST JUMPDEST PUSH2 0x18ED DUP5 DUP3 DUP6 ADD PUSH2 0x1882 JUMP JUMPDEST SWAP2 POP POP SWAP3 SWAP2 POP POP JUMP JUMPDEST PUSH0 DUP2 SWAP1 POP SWAP2 SWAP1 POP JUMP JUMPDEST PUSH2 0x1908 DUP2 PUSH2 0x18F6 JUMP JUMPDEST DUP2 EQ PUSH2 0x1912 JUMPI PUSH0 DUP1 REVERT JUMPDEST POP JUMP JUMPDEST PUSH0 DUP2 CALLDATALOAD SWAP1 POP PUSH2 0x1923 DUP2 PUSH2 0x18FF JUMP JUMPDEST SWAP3 SWAP2 POP POP JUMP JUMPDEST PUSH0 DUP2 SWAP1 POP SWAP2 SWAP1 POP JUMP JUMPDEST PUSH2 0x193B DUP2 PUSH2 0x1929 JUMP JUMPDEST DUP2 EQ PUSH2 0x1945 JUMPI PUSH0 DUP1 REVERT JUMPDEST POP JUMP JUMPDEST PUSH0 DUP2 CALLDATALOAD SWAP1 POP PUSH2 0x1956 DUP2 PUSH2 0x1932 JUMP JUMPDEST SWAP3 SWAP2 POP POP JUMP JUMPDEST PUSH0 DUP1 PUSH1 0x40 DUP4 DUP6 SUB SLT ISZERO PUSH2 0x1972 JUMPI PUSH2 0x1971 PUSH2 0x176B JUMP JUMPDEST JUMPDEST PUSH0 PUSH2 0x197F DUP6 DUP3 DUP7 ADD PUSH2 0x1915 JUMP JUMPDEST SWAP3 POP POP PUSH1 0x20 PUSH2 0x1990 DUP6 DUP3 DUP7 ADD PUSH2 0x1948 JUMP JUMPDEST SWAP2 POP POP SWAP3 POP SWAP3 SWAP1 POP JUMP JUMPDEST PUSH0 PUSH20 0xFFFFFFFFFFFFFFFFFFFFFFFFFFFFFFFFFFFFFFFF DUP3 AND SWAP1 POP SWAP2 SWAP1 POP JUMP JUMPDEST PUSH0 PUSH2 0x19C3 DUP3 PUSH2 0x199A JUMP JUMPDEST SWAP1 POP SWAP2 SWAP1 POP JUMP JUMPDEST PUSH2 0x19D3 DUP2 PUSH2 0x19B9 JUMP JUMPDEST DUP2 EQ PUSH2 0x19DD JUMPI PUSH0 DUP1 REVERT JUMPDEST POP JUMP JUMPDEST PUSH0 DUP2 CALLDATALOAD SWAP1 POP PUSH2 0x19EE DUP2 PUSH2 0x19CA JUMP JUMPDEST SWAP3 SWAP2 POP POP JUMP JUMPDEST PUSH0 PUSH1 0x20 DUP3 DUP5 SUB SLT ISZERO PUSH2 0x1A09 JUMPI PUSH2 0x1A08 PUSH2 0x176B JUMP JUMPDEST JUMPDEST PUSH0 PUSH2 0x1A16 DUP5 DUP3 DUP6 ADD PUSH2 0x19E0 JUMP JUMPDEST SWAP2 POP POP SWAP3 SWAP2 POP POP JUMP JUMPDEST PUSH2 0x1A28 DUP2 PUSH2 0x1929 JUMP JUMPDEST DUP3 MSTORE POP POP JUMP JUMPDEST PUSH0 PUSH1 0x20 DUP3 ADD SWAP1 POP PUSH2 0x1A41 PUSH0 DUP4 ADD DUP5 PUSH2 0x1A1F JUMP JUMPDEST SWAP3 SWAP2 POP POP JUMP JUMPDEST PUSH2 0x1A50 DUP2 PUSH2 0x19B9 JUMP JUMPDEST DUP3 MSTORE POP POP JUMP JUMPDEST PUSH0 PUSH1 0x20 DUP3 ADD SWAP1 POP PUSH2 0x1A69 PUSH0 DUP4 ADD DUP5 PUSH2 0x1A47 JUMP JUMPDEST SWAP3 SWAP2 POP POP JUMP JUMPDEST PUSH0 DUP2 MLOAD SWAP1 POP SWAP2 SWAP1 POP JUMP JUMPDEST PUSH0 DUP3 DUP3 MSTORE PUSH1 0x20 DUP3 ADD SWAP1 POP SWAP3 SWAP2 POP POP JUMP JUMPDEST PUSH0 JUMPDEST DUP4 DUP2 LT ISZERO PUSH2 0x1AA6 JUMPI DUP1 DUP3 ADD MLOAD DUP2 DUP5 ADD MSTORE PUSH1 0x20 DUP2 ADD SWAP1 POP PUSH2 0x1A8B JUMP JUMPDEST PUSH0 DUP5 DUP5 ADD MSTORE POP POP POP POP JUMP JUMPDEST PUSH0 PUSH2 0x1ABB DUP3 PUSH2 0x1A6F JUMP JUMPDEST PUSH2 0x1AC5 DUP2 DUP6 PUSH2 0x1A79 JUMP JUMPDEST SWAP4 POP PUSH2 0x1AD5 DUP2 DUP6 PUSH1 0x20 DUP7 ADD PUSH2 0x1A89 JUMP JUMPDEST PUSH2 0x1ADE DUP2 PUSH2 0x177B JUMP JUMPDEST DUP5 ADD SWAP2 POP POP SWAP3 SWAP2 POP POP JUMP JUMPDEST PUSH0 PUSH1 0x20 DUP3 ADD SWAP1 POP DUP2 DUP2 SUB PUSH0 DUP4 ADD MSTORE PUSH2 0x1B01 DUP2 DUP5 PUSH2 0x1AB1 JUMP JUMPDEST SWAP1 POP SWAP3 SWAP2 POP POP JUMP JUMPDEST PUSH0 PUSH1 0x20 DUP3 DUP5 SUB SLT ISZERO PUSH2 0x1B1E JUMPI PUSH2 0x1B1D PUSH2 0x176B JUMP JUMPDEST JUMPDEST PUSH0 PUSH2 0x1B2B DUP5 DUP3 DUP6 ADD PUSH2 0x1948 JUMP JUMPDEST SWAP2 POP POP SWAP3 SWAP2 POP POP JUMP JUMPDEST PUSH0 DUP2 MLOAD SWAP1 POP SWAP2 SWAP1 POP JUMP JUMPDEST PUSH0 DUP2 SWAP1 POP PUSH1 0x20 DUP3 ADD SWAP1 POP SWAP2 SWAP1 POP JUMP JUMPDEST PUSH0 PUSH2 0x1B58 DUP3 MLOAD PUSH2 0x18F6 JUMP JUMPDEST DUP1 SWAP2 POP POP SWAP2 SWAP1 POP JUMP JUMPDEST PUSH0 DUP3 DUP3 SHL SWAP1 POP SWAP3 SWAP2 POP POP JUMP JUMPDEST PUSH0 PUSH2 0x1B77 DUP3 PUSH2 0x1B34 JUMP JUMPDEST DUP3 PUSH2 0x1B81 DUP5 PUSH2 0x1B3E JUMP JUMPDEST SWAP1 POP PUSH2 0x1B8C DUP2 PUSH2 0x1B4D JUMP JUMPDEST SWAP3 POP PUSH1 0x20 DUP3 LT ISZERO PUSH2 0x1BCC JUMPI PUSH2 0x1BC7 PUSH32 0xFFFFFFFFFFFFFFFFFFFFFFFFFFFFFFFFFFFFFFFFFFFFFFFFFFFFFFFFFFFFFFFF DUP4 PUSH1 0x20 SUB PUSH1 0x8 MUL PUSH2 0x1B61 JUMP JUMPDEST DUP4 AND SWAP3 POP JUMPDEST POP POP SWAP2 SWAP1 POP JUMP JUMPDEST PUSH0 DUP2 SWAP1 POP SWAP3 SWAP2 POP POP JUMP JUMPDEST PUSH0 PUSH2 0x1BE7 DUP3 PUSH2 0x1A6F JUMP JUMPDEST PUSH2 0x1BF1 DUP2 DUP6 PUSH2 0x1BD3 JUMP JUMPDEST SWAP4 POP PUSH2 0x1C01 DUP2 DUP6 PUSH1 0x20 DUP7 ADD PUSH2 0x1A89 JUMP JUMPDEST DUP1 DUP5 ADD SWAP2 POP POP SWAP3 SWAP2 POP POP JUMP JUMPDEST PUSH0 PUSH2 0x1C18 DUP3 DUP6 PUSH2 0x1BDD JUMP JUMPDEST SWAP2 POP PUSH2 0x1C24 DUP3 DUP5 PUSH2 0x1BDD JUMP JUMPDEST SWAP2 POP DUP2 SWAP1 POP SWAP4 SWAP3 POP POP POP JUMP JUMPDEST PUSH32 0x536F75726365206D75737420626520746865206F7261636C65206F6620746865 PUSH0 DUP3 ADD MSTORE PUSH32 0x2072657175657374000000000000000000000000000000000000000000000000 PUSH1 0x20 DUP3 ADD MSTORE POP JUMP JUMPDEST PUSH0 PUSH2 0x1C8A PUSH1 0x28 DUP4 PUSH2 0x1A79 JUMP JUMPDEST SWAP2 POP PUSH2 0x1C95 DUP3 PUSH2 0x1C30 JUMP JUMPDEST PUSH1 0x40 DUP3 ADD SWAP1 POP SWAP2 SWAP1 POP JUMP JUMPDEST PUSH0 PUSH1 0x20 DUP3 ADD SWAP1 POP DUP2 DUP2 SUB PUSH0 DUP4 ADD MSTORE PUSH2 0x1CB7 DUP2 PUSH2 0x1C7E JUMP JUMPDEST SWAP1 POP SWAP2 SWAP1 POP JUMP JUMPDEST PUSH32 0x4E487B7100000000000000000000000000000000000000000000000000000000 PUSH0 MSTORE PUSH1 0x11 PUSH1 0x4 MSTORE PUSH1 0x24 PUSH0 REVERT JUMPDEST PUSH0 PUSH2 0x1CF5 DUP3 PUSH2 0x1929 JUMP JUMPDEST SWAP2 POP PUSH2 0x1D00 DUP4 PUSH2 0x1929 JUMP JUMPDEST SWAP3 POP DUP3 DUP3 MUL PUSH2 0x1D0E DUP2 PUSH2 0x1929 JUMP JUMPDEST SWAP2 POP DUP3 DUP3 DIV DUP5 EQ DUP4 ISZERO OR PUSH2 0x1D25 JUMPI PUSH2 0x1D24 PUSH2 0x1CBE JUMP JUMPDEST JUMPDEST POP SWAP3 SWAP2 POP POP JUMP JUMPDEST PUSH32 0x4E487B7100000000000000000000000000000000000000000000000000000000 PUSH0 MSTORE PUSH1 0x12 PUSH1 0x4 MSTORE PUSH1 0x24 PUSH0 REVERT JUMPDEST PUSH0 PUSH2 0x1D63 DUP3 PUSH2 0x1929 JUMP JUMPDEST SWAP2 POP PUSH2 0x1D6E DUP4 PUSH2 0x1929 JUMP JUMPDEST SWAP3 POP DUP3 PUSH2 0x1D7E JUMPI PUSH2 0x1D7D PUSH2 0x1D2C JUMP JUMPDEST JUMPDEST DUP3 DUP3 DIV SWAP1 POP SWAP3 SWAP2 POP POP JUMP JUMPDEST PUSH32 0x4D7573742062652070726F706F736564206F776E657200000000000000000000 PUSH0 DUP3 ADD MSTORE POP JUMP JUMPDEST PUSH0 PUSH2 0x1DBD PUSH1 0x16 DUP4 PUSH2 0x1A79 JUMP JUMPDEST SWAP2 POP PUSH2 0x1DC8 DUP3 PUSH2 0x1D89 JUMP JUMPDEST PUSH1 0x20 DUP3 ADD SWAP1 POP SWAP2 SWAP1 POP JUMP JUMPDEST PUSH0 PUSH1 0x20 DUP3 ADD SWAP1 POP DUP2 DUP2 SUB PUSH0 DUP4 ADD MSTORE PUSH2 0x1DEA DUP2 PUSH2 0x1DB1 JUMP JUMPDEST SWAP1 POP SWAP2 SWAP1 POP JUMP JUMPDEST PUSH0 DUP2 MLOAD SWAP1 POP PUSH2 0x1DFF DUP2 PUSH2 0x1932 JUMP JUMPDEST SWAP3 SWAP2 POP POP JUMP JUMPDEST PUSH0 PUSH1 0x20 DUP3 DUP5 SUB SLT ISZERO PUSH2 0x1E1A JUMPI PUSH2 0x1E19 PUSH2 0x176B JUMP JUMPDEST JUMPDEST PUSH0 PUSH2 0x1E27 DUP5 DUP3 DUP6 ADD PUSH2 0x1DF1 JUMP JUMPDEST SWAP2 POP POP SWAP3 SWAP2 POP POP JUMP JUMPDEST PUSH0 PUSH1 0x40 DUP3 ADD SWAP1 POP PUSH2 0x1E43 PUSH0 DUP4 ADD DUP6 PUSH2 0x1A47 JUMP JUMPDEST PUSH2 0x1E50 PUSH1 0x20 DUP4 ADD DUP5 PUSH2 0x1A1F JUMP JUMPDEST SWAP4 SWAP3 POP POP POP JUMP JUMPDEST PUSH0 DUP2 ISZERO ISZERO SWAP1 POP SWAP2 SWAP1 POP JUMP JUMPDEST PUSH2 0x1E6B DUP2 PUSH2 0x1E57 JUMP JUMPDEST DUP2 EQ PUSH2 0x1E75 JUMPI PUSH0 DUP1 REVERT JUMPDEST POP JUMP JUMPDEST PUSH0 DUP2 MLOAD SWAP1 POP PUSH2 0x1E86 DUP2 PUSH2 0x1E62 JUMP JUMPDEST SWAP3 SWAP2 POP POP JUMP JUMPDEST PUSH0 PUSH1 0x20 DUP3 DUP5 SUB SLT ISZERO PUSH2 0x1EA1 JUMPI PUSH2 0x1EA0 PUSH2 0x176B JUMP JUMPDEST JUMPDEST PUSH0 PUSH2 0x1EAE DUP5 DUP3 DUP6 ADD PUSH2 0x1E78 JUMP JUMPDEST SWAP2 POP POP SWAP3 SWAP2 POP POP JUMP JUMPDEST PUSH32 0x556E61626C6520746F207472616E736665720000000000000000000000000000 PUSH0 DUP3 ADD MSTORE POP JUMP JUMPDEST PUSH0 PUSH2 0x1EEB PUSH1 0x12 DUP4 PUSH2 0x1A79 JUMP JUMPDEST SWAP2 POP PUSH2 0x1EF6 DUP3 PUSH2 0x1EB7 JUMP JUMPDEST PUSH1 0x20 DUP3 ADD SWAP1 POP SWAP2 SWAP1 POP JUMP JUMPDEST PUSH0 PUSH1 0x20 DUP3 ADD SWAP1 POP DUP2 DUP2 SUB PUSH0 DUP4 ADD MSTORE PUSH2 0x1F18 DUP2 PUSH2 0x1EDF JUMP JUMPDEST SWAP1 POP SWAP2 SWAP1 POP JUMP JUMPDEST PUSH0 DUP2 SWAP1 POP SWAP2 SWAP1 POP JUMP JUMPDEST PUSH2 0x1F39 PUSH2 0x1F34 DUP3 PUSH2 0x18F6 JUMP JUMPDEST PUSH2 0x1F1F JUMP JUMPDEST DUP3 MSTORE POP POP JUMP JUMPDEST PUSH0 PUSH2 0x1F4A DUP3 DUP5 PUSH2 0x1F28 JUMP JUMPDEST PUSH1 0x20 DUP3 ADD SWAP2 POP DUP2 SWAP1 POP SWAP3 SWAP2 POP POP JUMP JUMPDEST PUSH32 0x4F6E6C792063616C6C61626C65206279206F776E657200000000000000000000 PUSH0 DUP3 ADD MSTORE POP JUMP JUMPDEST PUSH0 PUSH2 0x1F8D PUSH1 0x16 DUP4 PUSH2 0x1A79 JUMP JUMPDEST SWAP2 POP PUSH2 0x1F98 DUP3 PUSH2 0x1F59 JUMP JUMPDEST PUSH1 0x20 DUP3 ADD SWAP1 POP SWAP2 SWAP1 POP JUMP JUMPDEST PUSH0 PUSH1 0x20 DUP3 ADD SWAP1 POP DUP2 DUP2 SUB PUSH0 DUP4 ADD MSTORE PUSH2 0x1FBA DUP2 PUSH2 0x1F81 JUMP JUMPDEST SWAP1 POP SWAP2 SWAP1 POP JUMP JUMPDEST PUSH32 0x43616E6E6F74207472616E7366657220746F2073656C66000000000000000000 PUSH0 DUP3 ADD MSTORE POP JUMP JUMPDEST PUSH0 PUSH2 0x1FF5 PUSH1 0x17 DUP4 PUSH2 0x1A79 JUMP JUMPDEST SWAP2 POP PUSH2 0x2000 DUP3 PUSH2 0x1FC1 JUMP JUMPDEST PUSH1 0x20 DUP3 ADD SWAP1 POP SWAP2 SWAP1 POP JUMP JUMPDEST PUSH0 PUSH1 0x20 DUP3 ADD SWAP1 POP DUP2 DUP2 SUB PUSH0 DUP4 ADD MSTORE PUSH2 0x2022 DUP2 PUSH2 0x1FE9 JUMP JUMPDEST SWAP1 POP SWAP2 SWAP1 POP JUMP JUMPDEST PUSH0 DUP2 SWAP1 POP SWAP2 SWAP1 POP JUMP JUMPDEST PUSH0 PUSH2 0x203C DUP3 PUSH2 0x2029 JUMP JUMPDEST SWAP2 POP PUSH2 0x2047 DUP4 PUSH2 0x2029 JUMP JUMPDEST SWAP3 POP DUP3 DUP3 SUB SWAP1 POP DUP2 DUP2 SLT PUSH0 DUP5 SLT AND DUP3 DUP3 SGT PUSH0 DUP6 SLT ISZERO AND OR ISZERO PUSH2 0x206C JUMPI PUSH2 0x206B PUSH2 0x1CBE JUMP JUMPDEST JUMPDEST SWAP3 SWAP2 POP POP JUMP JUMPDEST PUSH0 PUSH2 0x207C DUP3 PUSH2 0x1929 JUMP JUMPDEST SWAP2 POP PUSH2 0x2087 DUP4 PUSH2 0x1929 JUMP JUMPDEST SWAP3 POP DUP3 DUP3 ADD SWAP1 POP DUP1 DUP3 GT ISZERO PUSH2 0x209F JUMPI PUSH2 0x209E PUSH2 0x1CBE JUMP JUMPDEST JUMPDEST SWAP3 SWAP2 POP POP JUMP JUMPDEST PUSH2 0x20AE DUP2 PUSH2 0x18F6 JUMP JUMPDEST DUP3 MSTORE POP POP JUMP JUMPDEST PUSH0 PUSH32 0xFFFFFFFF00000000000000000000000000000000000000000000000000000000 DUP3 AND SWAP1 POP SWAP2 SWAP1 POP JUMP JUMPDEST PUSH2 0x20E8 DUP2 PUSH2 0x20B4 JUMP JUMPDEST DUP3 MSTORE POP POP JUMP JUMPDEST PUSH0 DUP3 DUP3 MSTORE PUSH1 0x20 DUP3 ADD SWAP1 POP SWAP3 SWAP2 POP POP JUMP JUMPDEST PUSH0 PUSH2 0x2108 DUP3 PUSH2 0x1B34 JUMP JUMPDEST PUSH2 0x2112 DUP2 DUP6 PUSH2 0x20EE JUMP JUMPDEST SWAP4 POP PUSH2 0x2122 DUP2 DUP6 PUSH1 0x20 DUP7 ADD PUSH2 0x1A89 JUMP JUMPDEST PUSH2 0x212B DUP2 PUSH2 0x177B JUMP JUMPDEST DUP5 ADD SWAP2 POP POP SWAP3 SWAP2 POP POP JUMP JUMPDEST PUSH0 PUSH1 0xE0 DUP3 ADD SWAP1 POP PUSH2 0x2149 PUSH0 DUP4 ADD DUP11 PUSH2 0x1A47 JUMP JUMPDEST PUSH2 0x2156 PUSH1 0x20 DUP4 ADD DUP10 PUSH2 0x1A1F JUMP JUMPDEST PUSH2 0x2163 PUSH1 0x40 DUP4 ADD DUP9 PUSH2 0x20A5 JUMP JUMPDEST PUSH2 0x2170 PUSH1 0x60 DUP4 ADD DUP8 PUSH2 0x20DF JUMP JUMPDEST PUSH2 0x217D PUSH1 0x80 DUP4 ADD DUP7 PUSH2 0x1A1F JUMP JUMPDEST PUSH2 0x218A PUSH1 0xA0 DUP4 ADD DUP6 PUSH2 0x1A1F JUMP JUMPDEST DUP2 DUP2 SUB PUSH1 0xC0 DUP4 ADD MSTORE PUSH2 0x219C DUP2 DUP5 PUSH2 0x20FE JUMP JUMPDEST SWAP1 POP SWAP9 SWAP8 POP POP POP POP POP POP POP POP JUMP JUMPDEST PUSH0 PUSH2 0x21B4 DUP3 PUSH2 0x1929 JUMP JUMPDEST SWAP2 POP PUSH2 0x21BF DUP4 PUSH2 0x1929 JUMP JUMPDEST SWAP3 POP DUP3 PUSH2 0x21CF JUMPI PUSH2 0x21CE PUSH2 0x1D2C JUMP JUMPDEST JUMPDEST DUP3 DUP3 MOD SWAP1 POP SWAP3 SWAP2 POP POP JUMP JUMPDEST PUSH0 PUSH2 0x21E4 DUP3 PUSH2 0x1929 JUMP JUMPDEST SWAP2 POP PUSH2 0x21EF DUP4 PUSH2 0x1929 JUMP JUMPDEST SWAP3 POP DUP3 DUP3 SUB SWAP1 POP DUP2 DUP2 GT ISZERO PUSH2 0x2207 JUMPI PUSH2 0x2206 PUSH2 0x1CBE JUMP JUMPDEST JUMPDEST SWAP3 SWAP2 POP POP JUMP JUMPDEST PUSH0 DUP2 SWAP1 POP SWAP2 SWAP1 POP JUMP JUMPDEST PUSH0 PUSH2 0x2230 PUSH2 0x222B PUSH2 0x2226 DUP5 PUSH2 0x199A JUMP JUMPDEST PUSH2 0x220D JUMP JUMPDEST PUSH2 0x199A JUMP JUMPDEST SWAP1 POP SWAP2 SWAP1 POP JUMP JUMPDEST PUSH0 PUSH2 0x2241 DUP3 PUSH2 0x2216 JUMP JUMPDEST SWAP1 POP SWAP2 SWAP1 POP JUMP JUMPDEST PUSH0 PUSH2 0x2252 DUP3 PUSH2 0x2237 JUMP JUMPDEST SWAP1 POP SWAP2 SWAP1 POP JUMP JUMPDEST PUSH0 DUP2 PUSH1 0x60 SHL SWAP1 POP SWAP2 SWAP1 POP JUMP JUMPDEST PUSH0 PUSH2 0x226F DUP3 PUSH2 0x2259 JUMP JUMPDEST SWAP1 POP SWAP2 SWAP1 POP JUMP JUMPDEST PUSH0 PUSH2 0x2280 DUP3 PUSH2 0x2265 JUMP JUMPDEST SWAP1 POP SWAP2 SWAP1 POP JUMP JUMPDEST PUSH2 0x2298 PUSH2 0x2293 DUP3 PUSH2 0x2248 JUMP JUMPDEST PUSH2 0x2276 JUMP JUMPDEST DUP3 MSTORE POP POP JUMP JUMPDEST PUSH0 DUP2 SWAP1 POP SWAP2 SWAP1 POP JUMP JUMPDEST PUSH2 0x22B8 PUSH2 0x22B3 DUP3 PUSH2 0x1929 JUMP JUMPDEST PUSH2 0x229E JUMP JUMPDEST DUP3 MSTORE POP POP JUMP JUMPDEST PUSH0 PUSH2 0x22C9 DUP3 DUP6 PUSH2 0x2287 JUMP JUMPDEST PUSH1 0x14 DUP3 ADD SWAP2 POP PUSH2 0x22D9 DUP3 DUP5 PUSH2 0x22A7 JUMP JUMPDEST PUSH1 0x20 DUP3 ADD SWAP2 POP DUP2 SWAP1 POP SWAP4 SWAP3 POP POP POP JUMP JUMPDEST PUSH0 PUSH1 0x60 DUP3 ADD SWAP1 POP PUSH2 0x22FC PUSH0 DUP4 ADD DUP7 PUSH2 0x1A47 JUMP JUMPDEST PUSH2 0x2309 PUSH1 0x20 DUP4 ADD DUP6 PUSH2 0x1A1F JUMP JUMPDEST DUP2 DUP2 SUB PUSH1 0x40 DUP4 ADD MSTORE PUSH2 0x231B DUP2 DUP5 PUSH2 0x20FE JUMP JUMPDEST SWAP1 POP SWAP5 SWAP4 POP POP POP POP JUMP JUMPDEST PUSH32 0x756E61626C6520746F207472616E73666572416E6443616C6C20746F206F7261 PUSH0 DUP3 ADD MSTORE PUSH32 0x636C650000000000000000000000000000000000000000000000000000000000 PUSH1 0x20 DUP3 ADD MSTORE POP JUMP JUMPDEST PUSH0 PUSH2 0x237F PUSH1 0x23 DUP4 PUSH2 0x1A79 JUMP JUMPDEST SWAP2 POP PUSH2 0x238A DUP3 PUSH2 0x2325 JUMP JUMPDEST PUSH1 0x40 DUP3 ADD SWAP1 POP SWAP2 SWAP1 POP JUMP JUMPDEST PUSH0 PUSH1 0x20 DUP3 ADD SWAP1 POP DUP2 DUP2 SUB PUSH0 DUP4 ADD MSTORE PUSH2 0x23AC DUP2 PUSH2 0x2373 JUMP JUMPDEST SWAP1 POP SWAP2 SWAP1 POP JUMP JUMPDEST PUSH0 DUP2 PUSH1 0x1 SHR SWAP1 POP SWAP2 SWAP1 POP JUMP JUMPDEST PUSH0 DUP1 DUP3 SWAP2 POP DUP4 SWAP1 POP JUMPDEST PUSH1 0x1 DUP6 GT ISZERO PUSH2 0x2408 JUMPI DUP1 DUP7 DIV DUP2 GT ISZERO PUSH2 0x23E4 JUMPI PUSH2 0x23E3 PUSH2 0x1CBE JUMP JUMPDEST JUMPDEST PUSH1 0x1 DUP6 AND ISZERO PUSH2 0x23F3 JUMPI DUP1 DUP3 MUL SWAP2 POP JUMPDEST DUP1 DUP2 MUL SWAP1 POP PUSH2 0x2401 DUP6 PUSH2 0x23B3 JUMP JUMPDEST SWAP5 POP PUSH2 0x23C8 JUMP JUMPDEST SWAP5 POP SWAP5 SWAP3 POP POP POP JUMP JUMPDEST PUSH0 DUP3 PUSH2 0x2420 JUMPI PUSH1 0x1 SWAP1 POP PUSH2 0x24DB JUMP JUMPDEST DUP2 PUSH2 0x242D JUMPI PUSH0 SWAP1 POP PUSH2 0x24DB JUMP JUMPDEST DUP2 PUSH1 0x1 DUP2 EQ PUSH2 0x2443 JUMPI PUSH1 0x2 DUP2 EQ PUSH2 0x244D JUMPI PUSH2 0x247C JUMP JUMPDEST PUSH1 0x1 SWAP2 POP POP PUSH2 0x24DB JUMP JUMPDEST PUSH1 0xFF DUP5 GT ISZERO PUSH2 0x245F JUMPI PUSH2 0x245E PUSH2 0x1CBE JUMP JUMPDEST JUMPDEST DUP4 PUSH1 0x2 EXP SWAP2 POP DUP5 DUP3 GT ISZERO PUSH2 0x2476 JUMPI PUSH2 0x2475 PUSH2 0x1CBE JUMP JUMPDEST JUMPDEST POP PUSH2 0x24DB JUMP JUMPDEST POP PUSH1 0x20 DUP4 LT PUSH2 0x133 DUP4 LT AND PUSH1 0x4E DUP5 LT PUSH1 0xB DUP5 LT AND OR ISZERO PUSH2 0x24B1 JUMPI DUP3 DUP3 EXP SWAP1 POP DUP4 DUP2 GT ISZERO PUSH2 0x24AC JUMPI PUSH2 0x24AB PUSH2 0x1CBE JUMP JUMPDEST JUMPDEST PUSH2 0x24DB JUMP JUMPDEST PUSH2 0x24BE DUP5 DUP5 DUP5 PUSH1 0x1 PUSH2 0x23BF JUMP JUMPDEST SWAP3 POP SWAP1 POP DUP2 DUP5 DIV DUP2 GT ISZERO PUSH2 0x24D5 JUMPI PUSH2 0x24D4 PUSH2 0x1CBE JUMP JUMPDEST JUMPDEST DUP2 DUP2 MUL SWAP1 POP JUMPDEST SWAP4 SWAP3 POP POP POP JUMP JUMPDEST PUSH0 PUSH2 0x24EC DUP3 PUSH2 0x1929 JUMP JUMPDEST SWAP2 POP PUSH2 0x24F7 DUP4 PUSH2 0x1929 JUMP JUMPDEST SWAP3 POP PUSH2 0x2524 PUSH32 0xFFFFFFFFFFFFFFFFFFFFFFFFFFFFFFFFFFFFFFFFFFFFFFFFFFFFFFFFFFFFFFFF DUP5 DUP5 PUSH2 0x2411 JUMP JUMPDEST SWAP1 POP SWAP3 SWAP2 POP POP JUMP INVALID PUSH9 0x747470733A2F2F7065 PUSH2 0x6369 PUSH16 0x6170692E636F6D3A333030322F676574 MSTORE PUSH24 0x612F5B22636F6E74656E742D74797065222C20226170706C PUSH10 0x636174696F6E2F6A736F PUSH15 0x225DA2646970667358221220EBA133 DUP8 PUSH11 0x36B8F2FA16C1A34E0B285E EXP 0xD5 CODECOPY 0xDF PUSH8 0x278E13AA872D55A9 DUP10 SELFDESTRUCT 0xD5 PUSH5 0x736F6C6343 STOP ADDMOD XOR STOP CALLER "
				},
				"gasEstimates": {
					"creation": {
						"codeDepositCost": "1928000",
						"executionCost": "infinite",
						"totalCost": "infinite"
					},
					"external": {
						"acceptOwnership()": "54600",
						"fulfill(bytes32,uint256)": "50476",
						"getFeeInHundredthsOfLink()": "infinite",
						"getJobId()": "infinite",
						"getOracleAddress()": "4730",
						"owner()": "2538",
						"request(string)": "infinite",
						"response()": "2514",
						"setFeeInHundredthsOfLink(uint256)": "infinite",
						"setFeeInJuels(uint256)": "24752",
						"setJobId(string)": "infinite",
						"setOracleAddress(address)": "51226",
						"transferOwnership(address)": "30717",
						"withdrawLink()": "infinite"
					}
				},
				"methodIdentifiers": {
					"acceptOwnership()": "79ba5097",
					"fulfill(bytes32,uint256)": "4357855e",
					"getFeeInHundredthsOfLink()": "56237682",
					"getJobId()": "b02f7fe0",
					"getOracleAddress()": "b18b78dd",
					"owner()": "8da5cb5b",
					"request(string)": "2c199889",
					"response()": "7a7f01a7",
					"setFeeInHundredthsOfLink(uint256)": "f34473a5",
					"setFeeInJuels(uint256)": "e3da201d",
					"setJobId(string)": "129fc1c0",
					"setOracleAddress(address)": "4c69c00f",
					"transferOwnership(address)": "f2fde38b",
					"withdrawLink()": "8dc654a2"
				}
			},
			"storageLayout": {
				"storage": [
					{
						"astId": 319,
						"contract": "aquo/aquooracle.sol:AquoOracle",
						"label": "s_ens",
						"offset": 0,
						"slot": "0",
						"type": "t_contract(ENSInterface)1156"
					},
					{
						"astId": 321,
						"contract": "aquo/aquooracle.sol:AquoOracle",
						"label": "s_ensNode",
						"offset": 0,
						"slot": "1",
						"type": "t_bytes32"
					},
					{
						"astId": 324,
						"contract": "aquo/aquooracle.sol:AquoOracle",
						"label": "s_link",
						"offset": 0,
						"slot": "2",
						"type": "t_contract(LinkTokenInterface)1394"
					},
					{
						"astId": 327,
						"contract": "aquo/aquooracle.sol:AquoOracle",
						"label": "s_oracle",
						"offset": 0,
						"slot": "3",
						"type": "t_contract(OperatorInterface)1236"
					},
					{
						"astId": 330,
						"contract": "aquo/aquooracle.sol:AquoOracle",
						"label": "s_requestCount",
						"offset": 0,
						"slot": "4",
						"type": "t_uint256"
					},
					{
						"astId": 334,
						"contract": "aquo/aquooracle.sol:AquoOracle",
						"label": "s_pendingRequests",
						"offset": 0,
						"slot": "5",
						"type": "t_mapping(t_bytes32,t_address)"
					},
					{
						"astId": 889,
						"contract": "aquo/aquooracle.sol:AquoOracle",
						"label": "s_owner",
						"offset": 0,
						"slot": "6",
						"type": "t_address"
					},
					{
						"astId": 891,
						"contract": "aquo/aquooracle.sol:AquoOracle",
						"label": "s_pendingOwner",
						"offset": 0,
						"slot": "7",
						"type": "t_address"
					},
					{
						"astId": 2389,
						"contract": "aquo/aquooracle.sol:AquoOracle",
						"label": "oracleAddress",
						"offset": 0,
						"slot": "8",
						"type": "t_address"
					},
					{
						"astId": 2391,
						"contract": "aquo/aquooracle.sol:AquoOracle",
						"label": "jobId",
						"offset": 0,
						"slot": "9",
						"type": "t_bytes32"
					},
					{
						"astId": 2393,
						"contract": "aquo/aquooracle.sol:AquoOracle",
						"label": "fee",
						"offset": 0,
						"slot": "10",
						"type": "t_uint256"
					},
					{
						"astId": 2508,
						"contract": "aquo/aquooracle.sol:AquoOracle",
						"label": "response",
						"offset": 0,
						"slot": "11",
						"type": "t_uint256"
					}
				],
				"types": {
					"t_address": {
						"encoding": "inplace",
						"label": "address",
						"numberOfBytes": "20"
					},
					"t_bytes32": {
						"encoding": "inplace",
						"label": "bytes32",
						"numberOfBytes": "32"
					},
					"t_contract(ENSInterface)1156": {
						"encoding": "inplace",
						"label": "contract ENSInterface",
						"numberOfBytes": "20"
					},
					"t_contract(LinkTokenInterface)1394": {
						"encoding": "inplace",
						"label": "contract LinkTokenInterface",
						"numberOfBytes": "20"
					},
					"t_contract(OperatorInterface)1236": {
						"encoding": "inplace",
						"label": "contract OperatorInterface",
						"numberOfBytes": "20"
					},
					"t_mapping(t_bytes32,t_address)": {
						"encoding": "mapping",
						"key": "t_bytes32",
						"label": "mapping(bytes32 => address)",
						"numberOfBytes": "32",
						"value": "t_address"
					},
					"t_uint256": {
						"encoding": "inplace",
						"label": "uint256",
						"numberOfBytes": "32"
					}
				}
			},
			"userdoc": {
				"kind": "user",
				"methods": {
					"acceptOwnership()": {
						"notice": "Allows an ownership transfer to be completed by the recipient."
					},
					"owner()": {
						"notice": "Get the current owner"
					},
					"transferOwnership(address)": {
						"notice": "Allows an owner to begin transferring ownership to a new address, pending."
					}
				},
				"notice": "THIS IS AN EXAMPLE CONTRACT THAT USES UN-AUDITED CODE.",
				"version": 1
			}
		}
	}
}