{
	"aquo/aquodao.sol": {
		"DAO": {
			"abi": [
				{
					"inputs": [
						{
							"internalType": "address",
							"name": "_rwaTokenizationContract",
							"type": "address"
						},
						{
							"internalType": "address",
							"name": "_poolAddress",
							"type": "address"
						},
						{
							"internalType": "uint256",
							"name": "_dilution",
							"type": "uint256"
						},
						{
							"internalType": "address",
							"name": "_proposerWallet",
							"type": "address"
						}
					],
					"stateMutability": "nonpayable",
					"type": "constructor"
				},
				{
					"anonymous": false,
					"inputs": [
						{
							"indexed": true,
							"internalType": "address",
							"name": "proposer",
							"type": "address"
						},
						{
							"indexed": false,
							"internalType": "address",
							"name": "poolContract",
							"type": "address"
						},
						{
							"indexed": false,
							"internalType": "uint256",
							"name": "dilution",
							"type": "uint256"
						}
					],
					"name": "ProposalCreated",
					"type": "event"
				},
				{
					"anonymous": false,
					"inputs": [
						{
							"indexed": false,
							"internalType": "bool",
							"name": "outcome",
							"type": "bool"
						}
					],
					"name": "ProposalExecuted",
					"type": "event"
				},
				{
					"anonymous": false,
					"inputs": [
						{
							"indexed": true,
							"internalType": "address",
							"name": "voter",
							"type": "address"
						},
						{
							"indexed": false,
							"internalType": "bool",
							"name": "vote",
							"type": "bool"
						}
					],
					"name": "Voted",
					"type": "event"
				},
				{
					"inputs": [],
					"name": "executeProposal",
					"outputs": [],
					"stateMutability": "nonpayable",
					"type": "function"
				},
				{
					"inputs": [],
					"name": "getProposalOutcome",
					"outputs": [
						{
							"internalType": "bool",
							"name": "outcome",
							"type": "bool"
						},
						{
							"internalType": "bool",
							"name": "executed",
							"type": "bool"
						}
					],
					"stateMutability": "view",
					"type": "function"
				},
				{
					"inputs": [
						{
							"internalType": "address",
							"name": "",
							"type": "address"
						}
					],
					"name": "hasVoted",
					"outputs": [
						{
							"internalType": "bool",
							"name": "",
							"type": "bool"
						}
					],
					"stateMutability": "view",
					"type": "function"
				},
				{
					"inputs": [],
					"name": "proposal",
					"outputs": [
						{
							"internalType": "address",
							"name": "proposer",
							"type": "address"
						},
						{
							"internalType": "address",
							"name": "poolAddress",
							"type": "address"
						},
						{
							"internalType": "address",
							"name": "rwaContract",
							"type": "address"
						},
						{
							"internalType": "uint256",
							"name": "dilution",
							"type": "uint256"
						},
						{
							"internalType": "uint256",
							"name": "yesVotes",
							"type": "uint256"
						},
						{
							"internalType": "uint256",
							"name": "noVotes",
							"type": "uint256"
						},
						{
							"internalType": "bool",
							"name": "executed",
							"type": "bool"
						},
						{
							"internalType": "bool",
							"name": "outcome",
							"type": "bool"
						}
					],
					"stateMutability": "view",
					"type": "function"
				},
				{
					"inputs": [],
					"name": "rwaTokenizationContract",
					"outputs": [
						{
							"internalType": "contract IRWATokenization",
							"name": "",
							"type": "address"
						}
					],
					"stateMutability": "view",
					"type": "function"
				},
				{
					"inputs": [
						{
							"internalType": "bool",
							"name": "_vote",
							"type": "bool"
						}
					],
					"name": "vote",
					"outputs": [],
					"stateMutability": "nonpayable",
					"type": "function"
				}
			],
			"devdoc": {
				"kind": "dev",
				"methods": {},
				"version": 1
			},
			"evm": {
				"assembly": "    /* \"aquo/aquodao.sol\":240:3635  contract DAO {... */\n  mstore(0x40, 0x80)\n    /* \"aquo/aquodao.sol\":1166:2489  constructor(... */\n  callvalue\n  dup1\n  iszero\n  tag_1\n  jumpi\n  0x00\n  dup1\n  revert\ntag_1:\n  pop\n  mload(0x40)\n  sub(codesize, bytecodeSize)\n  dup1\n  bytecodeSize\n  dup4\n  codecopy\n  dup2\n  dup2\n  add\n  0x40\n  mstore\n  dup2\n  add\n  swap1\n  tag_2\n  swap2\n  swap1\n  tag_3\n  jump\t// in\ntag_2:\n    /* \"aquo/aquodao.sol\":1415:1416  0 */\n  0x00\n    /* \"aquo/aquodao.sol\":1388:1417  _proposerWallet != address(0) */\n  0xffffffffffffffffffffffffffffffffffffffff\n  and\n    /* \"aquo/aquodao.sol\":1388:1403  _proposerWallet */\n  dup2\n    /* \"aquo/aquodao.sol\":1388:1417  _proposerWallet != address(0) */\n  0xffffffffffffffffffffffffffffffffffffffff\n  and\n  sub\n    /* \"aquo/aquodao.sol\":1380:1453  require(_proposerWallet != address(0), \"Invalid proposer wallet address\") */\n  tag_6\n  jumpi\n  mload(0x40)\n  0x08c379a000000000000000000000000000000000000000000000000000000000\n  dup2\n  mstore\n  0x04\n  add\n  tag_7\n  swap1\n  tag_8\n  jump\t// in\ntag_7:\n  mload(0x40)\n  dup1\n  swap2\n  sub\n  swap1\n  revert\ntag_6:\n    /* \"aquo/aquodao.sol\":1540:1541  0 */\n  0x00\n    /* \"aquo/aquodao.sol\":1485:1509  _rwaTokenizationContract */\n  dup5\n    /* \"aquo/aquodao.sol\":1468:1520  IRWATokenization(_rwaTokenizationContract).balanceOf */\n  0xffffffffffffffffffffffffffffffffffffffff\n  and\n  0x70a08231\n    /* \"aquo/aquodao.sol\":1521:1536  _proposerWallet */\n  dup4\n    /* \"aquo/aquodao.sol\":1468:1537  IRWATokenization(_rwaTokenizationContract).balanceOf(_proposerWallet) */\n  mload(0x40)\n  dup3\n  0xffffffff\n  and\n  0xe0\n  shl\n  dup2\n  mstore\n  0x04\n  add\n  tag_9\n  swap2\n  swap1\n  tag_10\n  jump\t// in\ntag_9:\n  0x20\n  mload(0x40)\n  dup1\n  dup4\n  sub\n  dup2\n  dup7\n  gas\n  staticcall\n  iszero\n  dup1\n  iszero\n  tag_12\n  jumpi\n  returndatasize\n  0x00\n  dup1\n  returndatacopy\n  revert(0x00, returndatasize)\ntag_12:\n  pop\n  pop\n  pop\n  pop\n  mload(0x40)\n  returndatasize\n  not(0x1f)\n  0x1f\n  dup3\n  add\n  and\n  dup3\n  add\n  dup1\n  0x40\n  mstore\n  pop\n  dup2\n  add\n  swap1\n  tag_13\n  swap2\n  swap1\n  tag_14\n  jump\t// in\ntag_13:\n    /* \"aquo/aquodao.sol\":1468:1541  IRWATokenization(_rwaTokenizationContract).balanceOf(_proposerWallet) > 0 */\n  gt\n    /* \"aquo/aquodao.sol\":1460:1585  require(IRWATokenization(_rwaTokenizationContract).balanceOf(_proposerWallet) > 0, \"Deploying wallet must be a token holder\") */\n  tag_15\n  jumpi\n  mload(0x40)\n  0x08c379a000000000000000000000000000000000000000000000000000000000\n  dup2\n  mstore\n  0x04\n  add\n  tag_16\n  swap1\n  tag_17\n  jump\t// in\ntag_16:\n  mload(0x40)\n  dup1\n  swap2\n  sub\n  swap1\n  revert\ntag_15:\n    /* \"aquo/aquodao.sol\":1702:1703  0 */\n  0x00\n    /* \"aquo/aquodao.sol\":1666:1704  _rwaTokenizationContract != address(0) */\n  0xffffffffffffffffffffffffffffffffffffffff\n  and\n    /* \"aquo/aquodao.sol\":1666:1690  _rwaTokenizationContract */\n  dup5\n    /* \"aquo/aquodao.sol\":1666:1704  _rwaTokenizationContract != address(0) */\n  0xffffffffffffffffffffffffffffffffffffffff\n  and\n  sub\n    /* \"aquo/aquodao.sol\":1658:1750  require(_rwaTokenizationContract != address(0), \"Invalid RWA tokenization contract address\") */\n  tag_18\n  jumpi\n  mload(0x40)\n  0x08c379a000000000000000000000000000000000000000000000000000000000\n  dup2\n  mstore\n  0x04\n  add\n  tag_19\n  swap1\n  tag_20\n  jump\t// in\ntag_19:\n  mload(0x40)\n  dup1\n  swap2\n  sub\n  swap1\n  revert\ntag_18:\n    /* \"aquo/aquodao.sol\":1834:1835  0 */\n  0x00\n    /* \"aquo/aquodao.sol\":1810:1836  _poolAddress != address(0) */\n  0xffffffffffffffffffffffffffffffffffffffff\n  and\n    /* \"aquo/aquodao.sol\":1810:1822  _poolAddress */\n  dup4\n    /* \"aquo/aquodao.sol\":1810:1836  _poolAddress != address(0) */\n  0xffffffffffffffffffffffffffffffffffffffff\n  and\n  sub\n    /* \"aquo/aquodao.sol\":1802:1861  require(_poolAddress != address(0), \"Invalid pool address\") */\n  tag_21\n  jumpi\n  mload(0x40)\n  0x08c379a000000000000000000000000000000000000000000000000000000000\n  dup2\n  mstore\n  0x04\n  add\n  tag_22\n  swap1\n  tag_23\n  jump\t// in\ntag_22:\n  mload(0x40)\n  dup1\n  swap2\n  sub\n  swap1\n  revert\ntag_21:\n    /* \"aquo/aquodao.sol\":2031:2055  _rwaTokenizationContract */\n  dup4\n    /* \"aquo/aquodao.sol\":1988:2011  rwaTokenizationContract */\n  0x07\n  0x00\n    /* \"aquo/aquodao.sol\":1988:2056  rwaTokenizationContract = IRWATokenization(_rwaTokenizationContract) */\n  0x0100\n  exp\n  dup2\n  sload\n  dup2\n  0xffffffffffffffffffffffffffffffffffffffff\n  mul\n  not\n  and\n  swap1\n  dup4\n  0xffffffffffffffffffffffffffffffffffffffff\n  and\n  mul\n  or\n  swap1\n  sstore\n  pop\n    /* \"aquo/aquodao.sol\":2076:2414  Proposal({... */\n  mload(0x40)\n  dup1\n  0x0100\n  add\n  0x40\n  mstore\n  dup1\n    /* \"aquo/aquodao.sol\":2106:2121  _proposerWallet */\n  dup3\n    /* \"aquo/aquodao.sol\":2076:2414  Proposal({... */\n  0xffffffffffffffffffffffffffffffffffffffff\n  and\n  dup2\n  mstore\n  0x20\n  add\n    /* \"aquo/aquodao.sol\":2187:2199  _poolAddress */\n  dup5\n    /* \"aquo/aquodao.sol\":2076:2414  Proposal({... */\n  0xffffffffffffffffffffffffffffffffffffffff\n  and\n  dup2\n  mstore\n  0x20\n  add\n    /* \"aquo/aquodao.sol\":2223:2247  _rwaTokenizationContract */\n  dup6\n    /* \"aquo/aquodao.sol\":2076:2414  Proposal({... */\n  0xffffffffffffffffffffffffffffffffffffffff\n  and\n  dup2\n  mstore\n  0x20\n  add\n    /* \"aquo/aquodao.sol\":2268:2277  _dilution */\n  dup4\n    /* \"aquo/aquodao.sol\":2076:2414  Proposal({... */\n  dup2\n  mstore\n  0x20\n  add\n    /* \"aquo/aquodao.sol\":2298:2299  0 */\n  0x00\n    /* \"aquo/aquodao.sol\":2076:2414  Proposal({... */\n  dup2\n  mstore\n  0x20\n  add\n    /* \"aquo/aquodao.sol\":2319:2320  0 */\n  0x00\n    /* \"aquo/aquodao.sol\":2076:2414  Proposal({... */\n  dup2\n  mstore\n  0x20\n  add\n    /* \"aquo/aquodao.sol\":2341:2346  false */\n  0x00\n    /* \"aquo/aquodao.sol\":2076:2414  Proposal({... */\n  iszero\n  iszero\n  dup2\n  mstore\n  0x20\n  add\n    /* \"aquo/aquodao.sol\":2366:2371  false */\n  0x00\n    /* \"aquo/aquodao.sol\":2076:2414  Proposal({... */\n  iszero\n  iszero\n  dup2\n  mstore\n  pop\n    /* \"aquo/aquodao.sol\":2065:2073  proposal */\n  0x00\n    /* \"aquo/aquodao.sol\":2065:2414  proposal = Proposal({... */\n  dup1\n  dup3\n  add\n  mload\n  dup2\n  0x00\n  add\n  exp(0x0100, 0x00)\n  dup2\n  sload\n  dup2\n  0xffffffffffffffffffffffffffffffffffffffff\n  mul\n  not\n  and\n  swap1\n  dup4\n  0xffffffffffffffffffffffffffffffffffffffff\n  and\n  mul\n  or\n  swap1\n  sstore\n  pop\n  0x20\n  dup3\n  add\n  mload\n  dup2\n  0x01\n  add\n  exp(0x0100, 0x00)\n  dup2\n  sload\n  dup2\n  0xffffffffffffffffffffffffffffffffffffffff\n  mul\n  not\n  and\n  swap1\n  dup4\n  0xffffffffffffffffffffffffffffffffffffffff\n  and\n  mul\n  or\n  swap1\n  sstore\n  pop\n  0x40\n  dup3\n  add\n  mload\n  dup2\n  0x02\n  add\n  exp(0x0100, 0x00)\n  dup2\n  sload\n  dup2\n  0xffffffffffffffffffffffffffffffffffffffff\n  mul\n  not\n  and\n  swap1\n  dup4\n  0xffffffffffffffffffffffffffffffffffffffff\n  and\n  mul\n  or\n  swap1\n  sstore\n  pop\n  0x60\n  dup3\n  add\n  mload\n  dup2\n  0x03\n  add\n  sstore\n  0x80\n  dup3\n  add\n  mload\n  dup2\n  0x04\n  add\n  sstore\n  0xa0\n  dup3\n  add\n  mload\n  dup2\n  0x05\n  add\n  sstore\n  0xc0\n  dup3\n  add\n  mload\n  dup2\n  0x06\n  add\n  exp(0x0100, 0x00)\n  dup2\n  sload\n  dup2\n  0xff\n  mul\n  not\n  and\n  swap1\n  dup4\n  iszero\n  iszero\n  mul\n  or\n  swap1\n  sstore\n  pop\n  0xe0\n  dup3\n  add\n  mload\n  dup2\n  0x06\n  add\n  exp(0x0100, 0x01)\n  dup2\n  sload\n  dup2\n  0xff\n  mul\n  not\n  and\n  swap1\n  dup4\n  iszero\n  iszero\n  mul\n  or\n  swap1\n  sstore\n  pop\n  swap1\n  pop\n  pop\n    /* \"aquo/aquodao.sol\":2444:2459  _proposerWallet */\n  dup1\n    /* \"aquo/aquodao.sol\":2428:2485  ProposalCreated(_proposerWallet, _poolAddress, _dilution) */\n  0xffffffffffffffffffffffffffffffffffffffff\n  and\n  0xea852cad362f5c1a9c667d99b45479efe41de31b99ae3638f0c19fa040ab4dc2\n    /* \"aquo/aquodao.sol\":2461:2473  _poolAddress */\n  dup5\n    /* \"aquo/aquodao.sol\":2475:2484  _dilution */\n  dup5\n    /* \"aquo/aquodao.sol\":2428:2485  ProposalCreated(_proposerWallet, _poolAddress, _dilution) */\n  mload(0x40)\n  tag_24\n  swap3\n  swap2\n  swap1\n  tag_25\n  jump\t// in\ntag_24:\n  mload(0x40)\n  dup1\n  swap2\n  sub\n  swap1\n  log2\n    /* \"aquo/aquodao.sol\":1166:2489  constructor(... */\n  pop\n  pop\n  pop\n  pop\n    /* \"aquo/aquodao.sol\":240:3635  contract DAO {... */\n  jump(tag_26)\n    /* \"#utility.yul\":88:205   */\ntag_28:\n    /* \"#utility.yul\":197:198   */\n  0x00\n    /* \"#utility.yul\":194:195   */\n  dup1\n    /* \"#utility.yul\":187:199   */\n  revert\n    /* \"#utility.yul\":334:460   */\ntag_30:\n    /* \"#utility.yul\":371:378   */\n  0x00\n    /* \"#utility.yul\":411:453   */\n  0xffffffffffffffffffffffffffffffffffffffff\n    /* \"#utility.yul\":404:409   */\n  dup3\n    /* \"#utility.yul\":400:454   */\n  and\n    /* \"#utility.yul\":389:454   */\n  swap1\n  pop\n    /* \"#utility.yul\":334:460   */\n  swap2\n  swap1\n  pop\n  jump\t// out\n    /* \"#utility.yul\":466:562   */\ntag_31:\n    /* \"#utility.yul\":503:510   */\n  0x00\n    /* \"#utility.yul\":532:556   */\n  tag_54\n    /* \"#utility.yul\":550:555   */\n  dup3\n    /* \"#utility.yul\":532:556   */\n  tag_30\n  jump\t// in\ntag_54:\n    /* \"#utility.yul\":521:556   */\n  swap1\n  pop\n    /* \"#utility.yul\":466:562   */\n  swap2\n  swap1\n  pop\n  jump\t// out\n    /* \"#utility.yul\":568:690   */\ntag_32:\n    /* \"#utility.yul\":641:665   */\n  tag_56\n    /* \"#utility.yul\":659:664   */\n  dup2\n    /* \"#utility.yul\":641:665   */\n  tag_31\n  jump\t// in\ntag_56:\n    /* \"#utility.yul\":634:639   */\n  dup2\n    /* \"#utility.yul\":631:666   */\n  eq\n    /* \"#utility.yul\":621:684   */\n  tag_57\n  jumpi\n    /* \"#utility.yul\":680:681   */\n  0x00\n    /* \"#utility.yul\":677:678   */\n  dup1\n    /* \"#utility.yul\":670:682   */\n  revert\n    /* \"#utility.yul\":621:684   */\ntag_57:\n    /* \"#utility.yul\":568:690   */\n  pop\n  jump\t// out\n    /* \"#utility.yul\":696:839   */\ntag_33:\n    /* \"#utility.yul\":753:758   */\n  0x00\n    /* \"#utility.yul\":784:790   */\n  dup2\n    /* \"#utility.yul\":778:791   */\n  mload\n    /* \"#utility.yul\":769:791   */\n  swap1\n  pop\n    /* \"#utility.yul\":800:833   */\n  tag_59\n    /* \"#utility.yul\":827:832   */\n  dup2\n    /* \"#utility.yul\":800:833   */\n  tag_32\n  jump\t// in\ntag_59:\n    /* \"#utility.yul\":696:839   */\n  swap3\n  swap2\n  pop\n  pop\n  jump\t// out\n    /* \"#utility.yul\":845:922   */\ntag_34:\n    /* \"#utility.yul\":882:889   */\n  0x00\n    /* \"#utility.yul\":911:916   */\n  dup2\n    /* \"#utility.yul\":900:916   */\n  swap1\n  pop\n    /* \"#utility.yul\":845:922   */\n  swap2\n  swap1\n  pop\n  jump\t// out\n    /* \"#utility.yul\":928:1050   */\ntag_35:\n    /* \"#utility.yul\":1001:1025   */\n  tag_62\n    /* \"#utility.yul\":1019:1024   */\n  dup2\n    /* \"#utility.yul\":1001:1025   */\n  tag_34\n  jump\t// in\ntag_62:\n    /* \"#utility.yul\":994:999   */\n  dup2\n    /* \"#utility.yul\":991:1026   */\n  eq\n    /* \"#utility.yul\":981:1044   */\n  tag_63\n  jumpi\n    /* \"#utility.yul\":1040:1041   */\n  0x00\n    /* \"#utility.yul\":1037:1038   */\n  dup1\n    /* \"#utility.yul\":1030:1042   */\n  revert\n    /* \"#utility.yul\":981:1044   */\ntag_63:\n    /* \"#utility.yul\":928:1050   */\n  pop\n  jump\t// out\n    /* \"#utility.yul\":1056:1199   */\ntag_36:\n    /* \"#utility.yul\":1113:1118   */\n  0x00\n    /* \"#utility.yul\":1144:1150   */\n  dup2\n    /* \"#utility.yul\":1138:1151   */\n  mload\n    /* \"#utility.yul\":1129:1151   */\n  swap1\n  pop\n    /* \"#utility.yul\":1160:1193   */\n  tag_65\n    /* \"#utility.yul\":1187:1192   */\n  dup2\n    /* \"#utility.yul\":1160:1193   */\n  tag_35\n  jump\t// in\ntag_65:\n    /* \"#utility.yul\":1056:1199   */\n  swap3\n  swap2\n  pop\n  pop\n  jump\t// out\n    /* \"#utility.yul\":1205:2025   */\ntag_3:\n    /* \"#utility.yul\":1302:1308   */\n  0x00\n    /* \"#utility.yul\":1310:1316   */\n  dup1\n    /* \"#utility.yul\":1318:1324   */\n  0x00\n    /* \"#utility.yul\":1326:1332   */\n  dup1\n    /* \"#utility.yul\":1375:1378   */\n  0x80\n    /* \"#utility.yul\":1363:1372   */\n  dup6\n    /* \"#utility.yul\":1354:1361   */\n  dup8\n    /* \"#utility.yul\":1350:1373   */\n  sub\n    /* \"#utility.yul\":1346:1379   */\n  slt\n    /* \"#utility.yul\":1343:1463   */\n  iszero\n  tag_67\n  jumpi\n    /* \"#utility.yul\":1382:1461   */\n  tag_68\n  tag_28\n  jump\t// in\ntag_68:\n    /* \"#utility.yul\":1343:1463   */\ntag_67:\n    /* \"#utility.yul\":1502:1503   */\n  0x00\n    /* \"#utility.yul\":1527:1591   */\n  tag_69\n    /* \"#utility.yul\":1583:1590   */\n  dup8\n    /* \"#utility.yul\":1574:1580   */\n  dup3\n    /* \"#utility.yul\":1563:1572   */\n  dup9\n    /* \"#utility.yul\":1559:1581   */\n  add\n    /* \"#utility.yul\":1527:1591   */\n  tag_33\n  jump\t// in\ntag_69:\n    /* \"#utility.yul\":1517:1591   */\n  swap5\n  pop\n    /* \"#utility.yul\":1473:1601   */\n  pop\n    /* \"#utility.yul\":1640:1642   */\n  0x20\n    /* \"#utility.yul\":1666:1730   */\n  tag_70\n    /* \"#utility.yul\":1722:1729   */\n  dup8\n    /* \"#utility.yul\":1713:1719   */\n  dup3\n    /* \"#utility.yul\":1702:1711   */\n  dup9\n    /* \"#utility.yul\":1698:1720   */\n  add\n    /* \"#utility.yul\":1666:1730   */\n  tag_33\n  jump\t// in\ntag_70:\n    /* \"#utility.yul\":1656:1730   */\n  swap4\n  pop\n    /* \"#utility.yul\":1611:1740   */\n  pop\n    /* \"#utility.yul\":1779:1781   */\n  0x40\n    /* \"#utility.yul\":1805:1869   */\n  tag_71\n    /* \"#utility.yul\":1861:1868   */\n  dup8\n    /* \"#utility.yul\":1852:1858   */\n  dup3\n    /* \"#utility.yul\":1841:1850   */\n  dup9\n    /* \"#utility.yul\":1837:1859   */\n  add\n    /* \"#utility.yul\":1805:1869   */\n  tag_36\n  jump\t// in\ntag_71:\n    /* \"#utility.yul\":1795:1869   */\n  swap3\n  pop\n    /* \"#utility.yul\":1750:1879   */\n  pop\n    /* \"#utility.yul\":1918:1920   */\n  0x60\n    /* \"#utility.yul\":1944:2008   */\n  tag_72\n    /* \"#utility.yul\":2000:2007   */\n  dup8\n    /* \"#utility.yul\":1991:1997   */\n  dup3\n    /* \"#utility.yul\":1980:1989   */\n  dup9\n    /* \"#utility.yul\":1976:1998   */\n  add\n    /* \"#utility.yul\":1944:2008   */\n  tag_33\n  jump\t// in\ntag_72:\n    /* \"#utility.yul\":1934:2008   */\n  swap2\n  pop\n    /* \"#utility.yul\":1889:2018   */\n  pop\n    /* \"#utility.yul\":1205:2025   */\n  swap3\n  swap6\n  swap2\n  swap5\n  pop\n  swap3\n  pop\n  jump\t// out\n    /* \"#utility.yul\":2031:2200   */\ntag_37:\n    /* \"#utility.yul\":2115:2126   */\n  0x00\n    /* \"#utility.yul\":2149:2155   */\n  dup3\n    /* \"#utility.yul\":2144:2147   */\n  dup3\n    /* \"#utility.yul\":2137:2156   */\n  mstore\n    /* \"#utility.yul\":2189:2193   */\n  0x20\n    /* \"#utility.yul\":2184:2187   */\n  dup3\n    /* \"#utility.yul\":2180:2194   */\n  add\n    /* \"#utility.yul\":2165:2194   */\n  swap1\n  pop\n    /* \"#utility.yul\":2031:2200   */\n  swap3\n  swap2\n  pop\n  pop\n  jump\t// out\n    /* \"#utility.yul\":2206:2387   */\ntag_38:\n    /* \"#utility.yul\":2346:2379   */\n  0x496e76616c69642070726f706f7365722077616c6c6574206164647265737300\n    /* \"#utility.yul\":2342:2343   */\n  0x00\n    /* \"#utility.yul\":2334:2340   */\n  dup3\n    /* \"#utility.yul\":2330:2344   */\n  add\n    /* \"#utility.yul\":2323:2380   */\n  mstore\n    /* \"#utility.yul\":2206:2387   */\n  pop\n  jump\t// out\n    /* \"#utility.yul\":2393:2759   */\ntag_39:\n    /* \"#utility.yul\":2535:2538   */\n  0x00\n    /* \"#utility.yul\":2556:2623   */\n  tag_76\n    /* \"#utility.yul\":2620:2622   */\n  0x1f\n    /* \"#utility.yul\":2615:2618   */\n  dup4\n    /* \"#utility.yul\":2556:2623   */\n  tag_37\n  jump\t// in\ntag_76:\n    /* \"#utility.yul\":2549:2623   */\n  swap2\n  pop\n    /* \"#utility.yul\":2632:2725   */\n  tag_77\n    /* \"#utility.yul\":2721:2724   */\n  dup3\n    /* \"#utility.yul\":2632:2725   */\n  tag_38\n  jump\t// in\ntag_77:\n    /* \"#utility.yul\":2750:2752   */\n  0x20\n    /* \"#utility.yul\":2745:2748   */\n  dup3\n    /* \"#utility.yul\":2741:2753   */\n  add\n    /* \"#utility.yul\":2734:2753   */\n  swap1\n  pop\n    /* \"#utility.yul\":2393:2759   */\n  swap2\n  swap1\n  pop\n  jump\t// out\n    /* \"#utility.yul\":2765:3184   */\ntag_8:\n    /* \"#utility.yul\":2931:2935   */\n  0x00\n    /* \"#utility.yul\":2969:2971   */\n  0x20\n    /* \"#utility.yul\":2958:2967   */\n  dup3\n    /* \"#utility.yul\":2954:2972   */\n  add\n    /* \"#utility.yul\":2946:2972   */\n  swap1\n  pop\n    /* \"#utility.yul\":3018:3027   */\n  dup2\n    /* \"#utility.yul\":3012:3016   */\n  dup2\n    /* \"#utility.yul\":3008:3028   */\n  sub\n    /* \"#utility.yul\":3004:3005   */\n  0x00\n    /* \"#utility.yul\":2993:3002   */\n  dup4\n    /* \"#utility.yul\":2989:3006   */\n  add\n    /* \"#utility.yul\":2982:3029   */\n  mstore\n    /* \"#utility.yul\":3046:3177   */\n  tag_79\n    /* \"#utility.yul\":3172:3176   */\n  dup2\n    /* \"#utility.yul\":3046:3177   */\n  tag_39\n  jump\t// in\ntag_79:\n    /* \"#utility.yul\":3038:3177   */\n  swap1\n  pop\n    /* \"#utility.yul\":2765:3184   */\n  swap2\n  swap1\n  pop\n  jump\t// out\n    /* \"#utility.yul\":3190:3308   */\ntag_40:\n    /* \"#utility.yul\":3277:3301   */\n  tag_81\n    /* \"#utility.yul\":3295:3300   */\n  dup2\n    /* \"#utility.yul\":3277:3301   */\n  tag_31\n  jump\t// in\ntag_81:\n    /* \"#utility.yul\":3272:3275   */\n  dup3\n    /* \"#utility.yul\":3265:3302   */\n  mstore\n    /* \"#utility.yul\":3190:3308   */\n  pop\n  pop\n  jump\t// out\n    /* \"#utility.yul\":3314:3536   */\ntag_10:\n    /* \"#utility.yul\":3407:3411   */\n  0x00\n    /* \"#utility.yul\":3445:3447   */\n  0x20\n    /* \"#utility.yul\":3434:3443   */\n  dup3\n    /* \"#utility.yul\":3430:3448   */\n  add\n    /* \"#utility.yul\":3422:3448   */\n  swap1\n  pop\n    /* \"#utility.yul\":3458:3529   */\n  tag_83\n    /* \"#utility.yul\":3526:3527   */\n  0x00\n    /* \"#utility.yul\":3515:3524   */\n  dup4\n    /* \"#utility.yul\":3511:3528   */\n  add\n    /* \"#utility.yul\":3502:3508   */\n  dup5\n    /* \"#utility.yul\":3458:3529   */\n  tag_40\n  jump\t// in\ntag_83:\n    /* \"#utility.yul\":3314:3536   */\n  swap3\n  swap2\n  pop\n  pop\n  jump\t// out\n    /* \"#utility.yul\":3542:3893   */\ntag_14:\n    /* \"#utility.yul\":3612:3618   */\n  0x00\n    /* \"#utility.yul\":3661:3663   */\n  0x20\n    /* \"#utility.yul\":3649:3658   */\n  dup3\n    /* \"#utility.yul\":3640:3647   */\n  dup5\n    /* \"#utility.yul\":3636:3659   */\n  sub\n    /* \"#utility.yul\":3632:3664   */\n  slt\n    /* \"#utility.yul\":3629:3748   */\n  iszero\n  tag_85\n  jumpi\n    /* \"#utility.yul\":3667:3746   */\n  tag_86\n  tag_28\n  jump\t// in\ntag_86:\n    /* \"#utility.yul\":3629:3748   */\ntag_85:\n    /* \"#utility.yul\":3787:3788   */\n  0x00\n    /* \"#utility.yul\":3812:3876   */\n  tag_87\n    /* \"#utility.yul\":3868:3875   */\n  dup5\n    /* \"#utility.yul\":3859:3865   */\n  dup3\n    /* \"#utility.yul\":3848:3857   */\n  dup6\n    /* \"#utility.yul\":3844:3866   */\n  add\n    /* \"#utility.yul\":3812:3876   */\n  tag_36\n  jump\t// in\ntag_87:\n    /* \"#utility.yul\":3802:3876   */\n  swap2\n  pop\n    /* \"#utility.yul\":3758:3886   */\n  pop\n    /* \"#utility.yul\":3542:3893   */\n  swap3\n  swap2\n  pop\n  pop\n  jump\t// out\n    /* \"#utility.yul\":3899:4125   */\ntag_41:\n    /* \"#utility.yul\":4039:4073   */\n  0x4465706c6f79696e672077616c6c6574206d757374206265206120746f6b656e\n    /* \"#utility.yul\":4035:4036   */\n  0x00\n    /* \"#utility.yul\":4027:4033   */\n  dup3\n    /* \"#utility.yul\":4023:4037   */\n  add\n    /* \"#utility.yul\":4016:4074   */\n  mstore\n    /* \"#utility.yul\":4108:4117   */\n  0x20686f6c64657200000000000000000000000000000000000000000000000000\n    /* \"#utility.yul\":4103:4105   */\n  0x20\n    /* \"#utility.yul\":4095:4101   */\n  dup3\n    /* \"#utility.yul\":4091:4106   */\n  add\n    /* \"#utility.yul\":4084:4118   */\n  mstore\n    /* \"#utility.yul\":3899:4125   */\n  pop\n  jump\t// out\n    /* \"#utility.yul\":4131:4497   */\ntag_42:\n    /* \"#utility.yul\":4273:4276   */\n  0x00\n    /* \"#utility.yul\":4294:4361   */\n  tag_90\n    /* \"#utility.yul\":4358:4360   */\n  0x27\n    /* \"#utility.yul\":4353:4356   */\n  dup4\n    /* \"#utility.yul\":4294:4361   */\n  tag_37\n  jump\t// in\ntag_90:\n    /* \"#utility.yul\":4287:4361   */\n  swap2\n  pop\n    /* \"#utility.yul\":4370:4463   */\n  tag_91\n    /* \"#utility.yul\":4459:4462   */\n  dup3\n    /* \"#utility.yul\":4370:4463   */\n  tag_41\n  jump\t// in\ntag_91:\n    /* \"#utility.yul\":4488:4490   */\n  0x40\n    /* \"#utility.yul\":4483:4486   */\n  dup3\n    /* \"#utility.yul\":4479:4491   */\n  add\n    /* \"#utility.yul\":4472:4491   */\n  swap1\n  pop\n    /* \"#utility.yul\":4131:4497   */\n  swap2\n  swap1\n  pop\n  jump\t// out\n    /* \"#utility.yul\":4503:4922   */\ntag_17:\n    /* \"#utility.yul\":4669:4673   */\n  0x00\n    /* \"#utility.yul\":4707:4709   */\n  0x20\n    /* \"#utility.yul\":4696:4705   */\n  dup3\n    /* \"#utility.yul\":4692:4710   */\n  add\n    /* \"#utility.yul\":4684:4710   */\n  swap1\n  pop\n    /* \"#utility.yul\":4756:4765   */\n  dup2\n    /* \"#utility.yul\":4750:4754   */\n  dup2\n    /* \"#utility.yul\":4746:4766   */\n  sub\n    /* \"#utility.yul\":4742:4743   */\n  0x00\n    /* \"#utility.yul\":4731:4740   */\n  dup4\n    /* \"#utility.yul\":4727:4744   */\n  add\n    /* \"#utility.yul\":4720:4767   */\n  mstore\n    /* \"#utility.yul\":4784:4915   */\n  tag_93\n    /* \"#utility.yul\":4910:4914   */\n  dup2\n    /* \"#utility.yul\":4784:4915   */\n  tag_42\n  jump\t// in\ntag_93:\n    /* \"#utility.yul\":4776:4915   */\n  swap1\n  pop\n    /* \"#utility.yul\":4503:4922   */\n  swap2\n  swap1\n  pop\n  jump\t// out\n    /* \"#utility.yul\":4928:5156   */\ntag_43:\n    /* \"#utility.yul\":5068:5102   */\n  0x496e76616c69642052574120746f6b656e697a6174696f6e20636f6e74726163\n    /* \"#utility.yul\":5064:5065   */\n  0x00\n    /* \"#utility.yul\":5056:5062   */\n  dup3\n    /* \"#utility.yul\":5052:5066   */\n  add\n    /* \"#utility.yul\":5045:5103   */\n  mstore\n    /* \"#utility.yul\":5137:5148   */\n  0x7420616464726573730000000000000000000000000000000000000000000000\n    /* \"#utility.yul\":5132:5134   */\n  0x20\n    /* \"#utility.yul\":5124:5130   */\n  dup3\n    /* \"#utility.yul\":5120:5135   */\n  add\n    /* \"#utility.yul\":5113:5149   */\n  mstore\n    /* \"#utility.yul\":4928:5156   */\n  pop\n  jump\t// out\n    /* \"#utility.yul\":5162:5528   */\ntag_44:\n    /* \"#utility.yul\":5304:5307   */\n  0x00\n    /* \"#utility.yul\":5325:5392   */\n  tag_96\n    /* \"#utility.yul\":5389:5391   */\n  0x29\n    /* \"#utility.yul\":5384:5387   */\n  dup4\n    /* \"#utility.yul\":5325:5392   */\n  tag_37\n  jump\t// in\ntag_96:\n    /* \"#utility.yul\":5318:5392   */\n  swap2\n  pop\n    /* \"#utility.yul\":5401:5494   */\n  tag_97\n    /* \"#utility.yul\":5490:5493   */\n  dup3\n    /* \"#utility.yul\":5401:5494   */\n  tag_43\n  jump\t// in\ntag_97:\n    /* \"#utility.yul\":5519:5521   */\n  0x40\n    /* \"#utility.yul\":5514:5517   */\n  dup3\n    /* \"#utility.yul\":5510:5522   */\n  add\n    /* \"#utility.yul\":5503:5522   */\n  swap1\n  pop\n    /* \"#utility.yul\":5162:5528   */\n  swap2\n  swap1\n  pop\n  jump\t// out\n    /* \"#utility.yul\":5534:5953   */\ntag_20:\n    /* \"#utility.yul\":5700:5704   */\n  0x00\n    /* \"#utility.yul\":5738:5740   */\n  0x20\n    /* \"#utility.yul\":5727:5736   */\n  dup3\n    /* \"#utility.yul\":5723:5741   */\n  add\n    /* \"#utility.yul\":5715:5741   */\n  swap1\n  pop\n    /* \"#utility.yul\":5787:5796   */\n  dup2\n    /* \"#utility.yul\":5781:5785   */\n  dup2\n    /* \"#utility.yul\":5777:5797   */\n  sub\n    /* \"#utility.yul\":5773:5774   */\n  0x00\n    /* \"#utility.yul\":5762:5771   */\n  dup4\n    /* \"#utility.yul\":5758:5775   */\n  add\n    /* \"#utility.yul\":5751:5798   */\n  mstore\n    /* \"#utility.yul\":5815:5946   */\n  tag_99\n    /* \"#utility.yul\":5941:5945   */\n  dup2\n    /* \"#utility.yul\":5815:5946   */\n  tag_44\n  jump\t// in\ntag_99:\n    /* \"#utility.yul\":5807:5946   */\n  swap1\n  pop\n    /* \"#utility.yul\":5534:5953   */\n  swap2\n  swap1\n  pop\n  jump\t// out\n    /* \"#utility.yul\":5959:6129   */\ntag_45:\n    /* \"#utility.yul\":6099:6121   */\n  0x496e76616c696420706f6f6c2061646472657373000000000000000000000000\n    /* \"#utility.yul\":6095:6096   */\n  0x00\n    /* \"#utility.yul\":6087:6093   */\n  dup3\n    /* \"#utility.yul\":6083:6097   */\n  add\n    /* \"#utility.yul\":6076:6122   */\n  mstore\n    /* \"#utility.yul\":5959:6129   */\n  pop\n  jump\t// out\n    /* \"#utility.yul\":6135:6501   */\ntag_46:\n    /* \"#utility.yul\":6277:6280   */\n  0x00\n    /* \"#utility.yul\":6298:6365   */\n  tag_102\n    /* \"#utility.yul\":6362:6364   */\n  0x14\n    /* \"#utility.yul\":6357:6360   */\n  dup4\n    /* \"#utility.yul\":6298:6365   */\n  tag_37\n  jump\t// in\ntag_102:\n    /* \"#utility.yul\":6291:6365   */\n  swap2\n  pop\n    /* \"#utility.yul\":6374:6467   */\n  tag_103\n    /* \"#utility.yul\":6463:6466   */\n  dup3\n    /* \"#utility.yul\":6374:6467   */\n  tag_45\n  jump\t// in\ntag_103:\n    /* \"#utility.yul\":6492:6494   */\n  0x20\n    /* \"#utility.yul\":6487:6490   */\n  dup3\n    /* \"#utility.yul\":6483:6495   */\n  add\n    /* \"#utility.yul\":6476:6495   */\n  swap1\n  pop\n    /* \"#utility.yul\":6135:6501   */\n  swap2\n  swap1\n  pop\n  jump\t// out\n    /* \"#utility.yul\":6507:6926   */\ntag_23:\n    /* \"#utility.yul\":6673:6677   */\n  0x00\n    /* \"#utility.yul\":6711:6713   */\n  0x20\n    /* \"#utility.yul\":6700:6709   */\n  dup3\n    /* \"#utility.yul\":6696:6714   */\n  add\n    /* \"#utility.yul\":6688:6714   */\n  swap1\n  pop\n    /* \"#utility.yul\":6760:6769   */\n  dup2\n    /* \"#utility.yul\":6754:6758   */\n  dup2\n    /* \"#utility.yul\":6750:6770   */\n  sub\n    /* \"#utility.yul\":6746:6747   */\n  0x00\n    /* \"#utility.yul\":6735:6744   */\n  dup4\n    /* \"#utility.yul\":6731:6748   */\n  add\n    /* \"#utility.yul\":6724:6771   */\n  mstore\n    /* \"#utility.yul\":6788:6919   */\n  tag_105\n    /* \"#utility.yul\":6914:6918   */\n  dup2\n    /* \"#utility.yul\":6788:6919   */\n  tag_46\n  jump\t// in\ntag_105:\n    /* \"#utility.yul\":6780:6919   */\n  swap1\n  pop\n    /* \"#utility.yul\":6507:6926   */\n  swap2\n  swap1\n  pop\n  jump\t// out\n    /* \"#utility.yul\":6932:7050   */\ntag_47:\n    /* \"#utility.yul\":7019:7043   */\n  tag_107\n    /* \"#utility.yul\":7037:7042   */\n  dup2\n    /* \"#utility.yul\":7019:7043   */\n  tag_34\n  jump\t// in\ntag_107:\n    /* \"#utility.yul\":7014:7017   */\n  dup3\n    /* \"#utility.yul\":7007:7044   */\n  mstore\n    /* \"#utility.yul\":6932:7050   */\n  pop\n  pop\n  jump\t// out\n    /* \"#utility.yul\":7056:7388   */\ntag_25:\n    /* \"#utility.yul\":7177:7181   */\n  0x00\n    /* \"#utility.yul\":7215:7217   */\n  0x40\n    /* \"#utility.yul\":7204:7213   */\n  dup3\n    /* \"#utility.yul\":7200:7218   */\n  add\n    /* \"#utility.yul\":7192:7218   */\n  swap1\n  pop\n    /* \"#utility.yul\":7228:7299   */\n  tag_109\n    /* \"#utility.yul\":7296:7297   */\n  0x00\n    /* \"#utility.yul\":7285:7294   */\n  dup4\n    /* \"#utility.yul\":7281:7298   */\n  add\n    /* \"#utility.yul\":7272:7278   */\n  dup6\n    /* \"#utility.yul\":7228:7299   */\n  tag_40\n  jump\t// in\ntag_109:\n    /* \"#utility.yul\":7309:7381   */\n  tag_110\n    /* \"#utility.yul\":7377:7379   */\n  0x20\n    /* \"#utility.yul\":7366:7375   */\n  dup4\n    /* \"#utility.yul\":7362:7380   */\n  add\n    /* \"#utility.yul\":7353:7359   */\n  dup5\n    /* \"#utility.yul\":7309:7381   */\n  tag_47\n  jump\t// in\ntag_110:\n    /* \"#utility.yul\":7056:7388   */\n  swap4\n  swap3\n  pop\n  pop\n  pop\n  jump\t// out\n    /* \"aquo/aquodao.sol\":240:3635  contract DAO {... */\ntag_26:\n  dataSize(sub_0)\n  dup1\n  dataOffset(sub_0)\n  0x00\n  codecopy\n  0x00\n  return\nstop\n\nsub_0: assembly {\n        /* \"aquo/aquodao.sol\":240:3635  contract DAO {... */\n      mstore(0x40, 0x80)\n      callvalue\n      dup1\n      iszero\n      tag_1\n      jumpi\n      0x00\n      dup1\n      revert\n    tag_1:\n      pop\n      jumpi(tag_2, lt(calldatasize, 0x04))\n      shr(0xe0, calldataload(0x00))\n      dup1\n      0x09eef43e\n      eq\n      tag_3\n      jumpi\n      dup1\n      0x25fdf6b1\n      eq\n      tag_4\n      jumpi\n      dup1\n      0x373058b8\n      eq\n      tag_5\n      jumpi\n      dup1\n      0x4b9f5c98\n      eq\n      tag_6\n      jumpi\n      dup1\n      0x753ec103\n      eq\n      tag_7\n      jumpi\n      dup1\n      0xcebc56ad\n      eq\n      tag_8\n      jumpi\n    tag_2:\n      0x00\n      dup1\n      revert\n        /* \"aquo/aquodao.sol\":901:941  mapping(address => bool) public hasVoted */\n    tag_3:\n      tag_9\n      0x04\n      dup1\n      calldatasize\n      sub\n      dup2\n      add\n      swap1\n      tag_10\n      swap2\n      swap1\n      tag_11\n      jump\t// in\n    tag_10:\n      tag_12\n      jump\t// in\n    tag_9:\n      mload(0x40)\n      tag_13\n      swap2\n      swap1\n      tag_14\n      jump\t// in\n    tag_13:\n      mload(0x40)\n      dup1\n      swap2\n      sub\n      swap1\n      return\n        /* \"aquo/aquodao.sol\":820:867  IRWATokenization public rwaTokenizationContract */\n    tag_4:\n      tag_15\n      tag_16\n      jump\t// in\n    tag_15:\n      mload(0x40)\n      tag_17\n      swap2\n      swap1\n      tag_18\n      jump\t// in\n    tag_17:\n      mload(0x40)\n      dup1\n      swap2\n      sub\n      swap1\n      return\n        /* \"aquo/aquodao.sol\":3129:3418  function executeProposal() public {... */\n    tag_5:\n      tag_19\n      tag_20\n      jump\t// in\n    tag_19:\n      stop\n        /* \"aquo/aquodao.sol\":2645:3121  function vote(bool _vote) public onlyTokenHolder {... */\n    tag_6:\n      tag_21\n      0x04\n      dup1\n      calldatasize\n      sub\n      dup2\n      add\n      swap1\n      tag_22\n      swap2\n      swap1\n      tag_23\n      jump\t// in\n    tag_22:\n      tag_24\n      jump\t// in\n    tag_21:\n      stop\n        /* \"aquo/aquodao.sol\":744:768  Proposal public proposal */\n    tag_7:\n      tag_25\n      tag_26\n      jump\t// in\n    tag_25:\n      mload(0x40)\n      tag_27\n      swap9\n      swap8\n      swap7\n      swap6\n      swap5\n      swap4\n      swap3\n      swap2\n      swap1\n      tag_28\n      jump\t// in\n    tag_27:\n      mload(0x40)\n      dup1\n      swap2\n      sub\n      swap1\n      return\n        /* \"aquo/aquodao.sol\":3489:3632  function getProposalOutcome() public view returns (bool outcome, bool executed) {... */\n    tag_8:\n      tag_29\n      tag_30\n      jump\t// in\n    tag_29:\n      mload(0x40)\n      tag_31\n      swap3\n      swap2\n      swap1\n      tag_32\n      jump\t// in\n    tag_31:\n      mload(0x40)\n      dup1\n      swap2\n      sub\n      swap1\n      return\n        /* \"aquo/aquodao.sol\":901:941  mapping(address => bool) public hasVoted */\n    tag_12:\n      mstore(0x20, 0x08)\n      dup1\n      0x00\n      mstore\n      keccak256(0x00, 0x40)\n      0x00\n      swap2\n      pop\n      sload\n      swap1\n      0x0100\n      exp\n      swap1\n      div\n      0xff\n      and\n      dup2\n      jump\t// out\n        /* \"aquo/aquodao.sol\":820:867  IRWATokenization public rwaTokenizationContract */\n    tag_16:\n      0x07\n      0x00\n      swap1\n      sload\n      swap1\n      0x0100\n      exp\n      swap1\n      div\n      0xffffffffffffffffffffffffffffffffffffffff\n      and\n      dup2\n      jump\t// out\n        /* \"aquo/aquodao.sol\":3129:3418  function executeProposal() public {... */\n    tag_20:\n        /* \"aquo/aquodao.sol\":3183:3191  proposal */\n      0x00\n        /* \"aquo/aquodao.sol\":3183:3200  proposal.executed */\n      0x06\n      add\n      0x00\n      swap1\n      sload\n      swap1\n      0x0100\n      exp\n      swap1\n      div\n      0xff\n      and\n        /* \"aquo/aquodao.sol\":3182:3200  !proposal.executed */\n      iszero\n        /* \"aquo/aquodao.sol\":3174:3230  require(!proposal.executed, \"Proposal already executed\") */\n      tag_34\n      jumpi\n      mload(0x40)\n      0x08c379a000000000000000000000000000000000000000000000000000000000\n      dup2\n      mstore\n      0x04\n      add\n      tag_35\n      swap1\n      tag_36\n      jump\t// in\n    tag_35:\n      mload(0x40)\n      dup1\n      swap2\n      sub\n      swap1\n      revert\n    tag_34:\n        /* \"aquo/aquodao.sol\":3282:3290  proposal */\n      0x00\n        /* \"aquo/aquodao.sol\":3282:3298  proposal.noVotes */\n      0x05\n      add\n      sload\n        /* \"aquo/aquodao.sol\":3262:3270  proposal */\n      0x00\n        /* \"aquo/aquodao.sol\":3262:3279  proposal.yesVotes */\n      0x04\n      add\n      sload\n        /* \"aquo/aquodao.sol\":3262:3298  proposal.yesVotes > proposal.noVotes */\n      gt\n        /* \"aquo/aquodao.sol\":3243:3251  proposal */\n      0x00\n        /* \"aquo/aquodao.sol\":3243:3259  proposal.outcome */\n      0x06\n      add\n      0x01\n        /* \"aquo/aquodao.sol\":3243:3298  proposal.outcome = proposal.yesVotes > proposal.noVotes */\n      0x0100\n      exp\n      dup2\n      sload\n      dup2\n      0xff\n      mul\n      not\n      and\n      swap1\n      dup4\n      iszero\n      iszero\n      mul\n      or\n      swap1\n      sstore\n      pop\n        /* \"aquo/aquodao.sol\":3354:3358  true */\n      0x01\n        /* \"aquo/aquodao.sol\":3334:3342  proposal */\n      0x00\n        /* \"aquo/aquodao.sol\":3334:3351  proposal.executed */\n      0x06\n      add\n      0x00\n        /* \"aquo/aquodao.sol\":3334:3358  proposal.executed = true */\n      0x0100\n      exp\n      dup2\n      sload\n      dup2\n      0xff\n      mul\n      not\n      and\n      swap1\n      dup4\n      iszero\n      iszero\n      mul\n      or\n      swap1\n      sstore\n      pop\n        /* \"aquo/aquodao.sol\":3376:3410  ProposalExecuted(proposal.outcome) */\n      0x1d1550e53334f4835142f95e29cb712071f89ecd734dec7f91ce379cbff186fa\n        /* \"aquo/aquodao.sol\":3393:3401  proposal */\n      0x00\n        /* \"aquo/aquodao.sol\":3393:3409  proposal.outcome */\n      0x06\n      add\n      0x01\n      swap1\n      sload\n      swap1\n      0x0100\n      exp\n      swap1\n      div\n      0xff\n      and\n        /* \"aquo/aquodao.sol\":3376:3410  ProposalExecuted(proposal.outcome) */\n      mload(0x40)\n      tag_37\n      swap2\n      swap1\n      tag_14\n      jump\t// in\n    tag_37:\n      mload(0x40)\n      dup1\n      swap2\n      sub\n      swap1\n      log1\n        /* \"aquo/aquodao.sol\":3129:3418  function executeProposal() public {... */\n      jump\t// out\n        /* \"aquo/aquodao.sol\":2645:3121  function vote(bool _vote) public onlyTokenHolder {... */\n    tag_24:\n        /* \"aquo/aquodao.sol\":2593:2594  0 */\n      0x00\n        /* \"aquo/aquodao.sol\":2545:2568  rwaTokenizationContract */\n      0x07\n      0x00\n      swap1\n      sload\n      swap1\n      0x0100\n      exp\n      swap1\n      div\n      0xffffffffffffffffffffffffffffffffffffffff\n      and\n        /* \"aquo/aquodao.sol\":2545:2578  rwaTokenizationContract.balanceOf */\n      0xffffffffffffffffffffffffffffffffffffffff\n      and\n      0x70a08231\n        /* \"aquo/aquodao.sol\":2579:2589  msg.sender */\n      caller\n        /* \"aquo/aquodao.sol\":2545:2590  rwaTokenizationContract.balanceOf(msg.sender) */\n      mload(0x40)\n      dup3\n      0xffffffff\n      and\n      0xe0\n      shl\n      dup2\n      mstore\n      0x04\n      add\n      tag_39\n      swap2\n      swap1\n      tag_40\n      jump\t// in\n    tag_39:\n      0x20\n      mload(0x40)\n      dup1\n      dup4\n      sub\n      dup2\n      dup7\n      gas\n      staticcall\n      iszero\n      dup1\n      iszero\n      tag_42\n      jumpi\n      returndatasize\n      0x00\n      dup1\n      returndatacopy\n      revert(0x00, returndatasize)\n    tag_42:\n      pop\n      pop\n      pop\n      pop\n      mload(0x40)\n      returndatasize\n      not(0x1f)\n      0x1f\n      dup3\n      add\n      and\n      dup3\n      add\n      dup1\n      0x40\n      mstore\n      pop\n      dup2\n      add\n      swap1\n      tag_43\n      swap2\n      swap1\n      tag_44\n      jump\t// in\n    tag_43:\n        /* \"aquo/aquodao.sol\":2545:2594  rwaTokenizationContract.balanceOf(msg.sender) > 0 */\n      gt\n        /* \"aquo/aquodao.sol\":2537:2617  require(rwaTokenizationContract.balanceOf(msg.sender) > 0, \"Not a token holder\") */\n      tag_45\n      jumpi\n      mload(0x40)\n      0x08c379a000000000000000000000000000000000000000000000000000000000\n      dup2\n      mstore\n      0x04\n      add\n      tag_46\n      swap1\n      tag_47\n      jump\t// in\n    tag_46:\n      mload(0x40)\n      dup1\n      swap2\n      sub\n      swap1\n      revert\n    tag_45:\n        /* \"aquo/aquodao.sol\":2714:2722  hasVoted */\n      0x08\n        /* \"aquo/aquodao.sol\":2714:2734  hasVoted[msg.sender] */\n      0x00\n        /* \"aquo/aquodao.sol\":2723:2733  msg.sender */\n      caller\n        /* \"aquo/aquodao.sol\":2714:2734  hasVoted[msg.sender] */\n      0xffffffffffffffffffffffffffffffffffffffff\n      and\n      0xffffffffffffffffffffffffffffffffffffffff\n      and\n      dup2\n      mstore\n      0x20\n      add\n      swap1\n      dup2\n      mstore\n      0x20\n      add\n      0x00\n      keccak256\n      0x00\n      swap1\n      sload\n      swap1\n      0x0100\n      exp\n      swap1\n      div\n      0xff\n      and\n        /* \"aquo/aquodao.sol\":2713:2734  !hasVoted[msg.sender] */\n      iszero\n        /* \"aquo/aquodao.sol\":2705:2752  require(!hasVoted[msg.sender], \"Already voted\") */\n      tag_49\n      jumpi\n      mload(0x40)\n      0x08c379a000000000000000000000000000000000000000000000000000000000\n      dup2\n      mstore\n      0x04\n      add\n      tag_50\n      swap1\n      tag_51\n      jump\t// in\n    tag_50:\n      mload(0x40)\n      dup1\n      swap2\n      sub\n      swap1\n      revert\n    tag_49:\n        /* \"aquo/aquodao.sol\":2772:2780  proposal */\n      0x00\n        /* \"aquo/aquodao.sol\":2772:2789  proposal.executed */\n      0x06\n      add\n      0x00\n      swap1\n      sload\n      swap1\n      0x0100\n      exp\n      swap1\n      div\n      0xff\n      and\n        /* \"aquo/aquodao.sol\":2771:2789  !proposal.executed */\n      iszero\n        /* \"aquo/aquodao.sol\":2763:2819  require(!proposal.executed, \"Proposal already executed\") */\n      tag_52\n      jumpi\n      mload(0x40)\n      0x08c379a000000000000000000000000000000000000000000000000000000000\n      dup2\n      mstore\n      0x04\n      add\n      tag_53\n      swap1\n      tag_36\n      jump\t// in\n    tag_53:\n      mload(0x40)\n      dup1\n      swap2\n      sub\n      swap1\n      revert\n    tag_52:\n        /* \"aquo/aquodao.sol\":2836:2841  _vote */\n      dup1\n        /* \"aquo/aquodao.sol\":2832:3034  if (_vote) {... */\n      iszero\n      tag_54\n      jumpi\n        /* \"aquo/aquodao.sol\":2879:2902  rwaTokenizationContract */\n      0x07\n      0x00\n      swap1\n      sload\n      swap1\n      0x0100\n      exp\n      swap1\n      div\n      0xffffffffffffffffffffffffffffffffffffffff\n      and\n        /* \"aquo/aquodao.sol\":2879:2912  rwaTokenizationContract.balanceOf */\n      0xffffffffffffffffffffffffffffffffffffffff\n      and\n      0x70a08231\n        /* \"aquo/aquodao.sol\":2913:2923  msg.sender */\n      caller\n        /* \"aquo/aquodao.sol\":2879:2924  rwaTokenizationContract.balanceOf(msg.sender) */\n      mload(0x40)\n      dup3\n      0xffffffff\n      and\n      0xe0\n      shl\n      dup2\n      mstore\n      0x04\n      add\n      tag_55\n      swap2\n      swap1\n      tag_40\n      jump\t// in\n    tag_55:\n      0x20\n      mload(0x40)\n      dup1\n      dup4\n      sub\n      dup2\n      dup7\n      gas\n      staticcall\n      iszero\n      dup1\n      iszero\n      tag_57\n      jumpi\n      returndatasize\n      0x00\n      dup1\n      returndatacopy\n      revert(0x00, returndatasize)\n    tag_57:\n      pop\n      pop\n      pop\n      pop\n      mload(0x40)\n      returndatasize\n      not(0x1f)\n      0x1f\n      dup3\n      add\n      and\n      dup3\n      add\n      dup1\n      0x40\n      mstore\n      pop\n      dup2\n      add\n      swap1\n      tag_58\n      swap2\n      swap1\n      tag_44\n      jump\t// in\n    tag_58:\n        /* \"aquo/aquodao.sol\":2858:2866  proposal */\n      0x00\n        /* \"aquo/aquodao.sol\":2858:2875  proposal.yesVotes */\n      0x04\n      add\n      0x00\n        /* \"aquo/aquodao.sol\":2858:2924  proposal.yesVotes += rwaTokenizationContract.balanceOf(msg.sender) */\n      dup3\n      dup3\n      sload\n      tag_59\n      swap2\n      swap1\n      tag_60\n      jump\t// in\n    tag_59:\n      swap3\n      pop\n      pop\n      dup2\n      swap1\n      sstore\n      pop\n        /* \"aquo/aquodao.sol\":2832:3034  if (_vote) {... */\n      jump(tag_61)\n    tag_54:\n        /* \"aquo/aquodao.sol\":2977:3000  rwaTokenizationContract */\n      0x07\n      0x00\n      swap1\n      sload\n      swap1\n      0x0100\n      exp\n      swap1\n      div\n      0xffffffffffffffffffffffffffffffffffffffff\n      and\n        /* \"aquo/aquodao.sol\":2977:3010  rwaTokenizationContract.balanceOf */\n      0xffffffffffffffffffffffffffffffffffffffff\n      and\n      0x70a08231\n        /* \"aquo/aquodao.sol\":3011:3021  msg.sender */\n      caller\n        /* \"aquo/aquodao.sol\":2977:3022  rwaTokenizationContract.balanceOf(msg.sender) */\n      mload(0x40)\n      dup3\n      0xffffffff\n      and\n      0xe0\n      shl\n      dup2\n      mstore\n      0x04\n      add\n      tag_62\n      swap2\n      swap1\n      tag_40\n      jump\t// in\n    tag_62:\n      0x20\n      mload(0x40)\n      dup1\n      dup4\n      sub\n      dup2\n      dup7\n      gas\n      staticcall\n      iszero\n      dup1\n      iszero\n      tag_64\n      jumpi\n      returndatasize\n      0x00\n      dup1\n      returndatacopy\n      revert(0x00, returndatasize)\n    tag_64:\n      pop\n      pop\n      pop\n      pop\n      mload(0x40)\n      returndatasize\n      not(0x1f)\n      0x1f\n      dup3\n      add\n      and\n      dup3\n      add\n      dup1\n      0x40\n      mstore\n      pop\n      dup2\n      add\n      swap1\n      tag_65\n      swap2\n      swap1\n      tag_44\n      jump\t// in\n    tag_65:\n        /* \"aquo/aquodao.sol\":2957:2965  proposal */\n      0x00\n        /* \"aquo/aquodao.sol\":2957:2973  proposal.noVotes */\n      0x05\n      add\n      0x00\n        /* \"aquo/aquodao.sol\":2957:3022  proposal.noVotes += rwaTokenizationContract.balanceOf(msg.sender) */\n      dup3\n      dup3\n      sload\n      tag_66\n      swap2\n      swap1\n      tag_60\n      jump\t// in\n    tag_66:\n      swap3\n      pop\n      pop\n      dup2\n      swap1\n      sstore\n      pop\n        /* \"aquo/aquodao.sol\":2832:3034  if (_vote) {... */\n    tag_61:\n        /* \"aquo/aquodao.sol\":3069:3073  true */\n      0x01\n        /* \"aquo/aquodao.sol\":3046:3054  hasVoted */\n      0x08\n        /* \"aquo/aquodao.sol\":3046:3066  hasVoted[msg.sender] */\n      0x00\n        /* \"aquo/aquodao.sol\":3055:3065  msg.sender */\n      caller\n        /* \"aquo/aquodao.sol\":3046:3066  hasVoted[msg.sender] */\n      0xffffffffffffffffffffffffffffffffffffffff\n      and\n      0xffffffffffffffffffffffffffffffffffffffff\n      and\n      dup2\n      mstore\n      0x20\n      add\n      swap1\n      dup2\n      mstore\n      0x20\n      add\n      0x00\n      keccak256\n      0x00\n        /* \"aquo/aquodao.sol\":3046:3073  hasVoted[msg.sender] = true */\n      0x0100\n      exp\n      dup2\n      sload\n      dup2\n      0xff\n      mul\n      not\n      and\n      swap1\n      dup4\n      iszero\n      iszero\n      mul\n      or\n      swap1\n      sstore\n      pop\n        /* \"aquo/aquodao.sol\":3095:3105  msg.sender */\n      caller\n        /* \"aquo/aquodao.sol\":3089:3113  Voted(msg.sender, _vote) */\n      0xffffffffffffffffffffffffffffffffffffffff\n      and\n      0x8eb81cb806dbb3d8a2f94981614331a55dfd90e06a42fdc362ca3ca96981d92f\n        /* \"aquo/aquodao.sol\":3107:3112  _vote */\n      dup3\n        /* \"aquo/aquodao.sol\":3089:3113  Voted(msg.sender, _vote) */\n      mload(0x40)\n      tag_67\n      swap2\n      swap1\n      tag_14\n      jump\t// in\n    tag_67:\n      mload(0x40)\n      dup1\n      swap2\n      sub\n      swap1\n      log2\n        /* \"aquo/aquodao.sol\":2645:3121  function vote(bool _vote) public onlyTokenHolder {... */\n      pop\n      jump\t// out\n        /* \"aquo/aquodao.sol\":744:768  Proposal public proposal */\n    tag_26:\n      0x00\n      dup1\n      0x00\n      add\n      0x00\n      swap1\n      sload\n      swap1\n      0x0100\n      exp\n      swap1\n      div\n      0xffffffffffffffffffffffffffffffffffffffff\n      and\n      swap1\n      dup1\n      0x01\n      add\n      0x00\n      swap1\n      sload\n      swap1\n      0x0100\n      exp\n      swap1\n      div\n      0xffffffffffffffffffffffffffffffffffffffff\n      and\n      swap1\n      dup1\n      0x02\n      add\n      0x00\n      swap1\n      sload\n      swap1\n      0x0100\n      exp\n      swap1\n      div\n      0xffffffffffffffffffffffffffffffffffffffff\n      and\n      swap1\n      dup1\n      0x03\n      add\n      sload\n      swap1\n      dup1\n      0x04\n      add\n      sload\n      swap1\n      dup1\n      0x05\n      add\n      sload\n      swap1\n      dup1\n      0x06\n      add\n      0x00\n      swap1\n      sload\n      swap1\n      0x0100\n      exp\n      swap1\n      div\n      0xff\n      and\n      swap1\n      dup1\n      0x06\n      add\n      0x01\n      swap1\n      sload\n      swap1\n      0x0100\n      exp\n      swap1\n      div\n      0xff\n      and\n      swap1\n      pop\n      dup9\n      jump\t// out\n        /* \"aquo/aquodao.sol\":3489:3632  function getProposalOutcome() public view returns (bool outcome, bool executed) {... */\n    tag_30:\n        /* \"aquo/aquodao.sol\":3540:3552  bool outcome */\n      0x00\n        /* \"aquo/aquodao.sol\":3554:3567  bool executed */\n      dup1\n        /* \"aquo/aquodao.sol\":3588:3596  proposal */\n      0x00\n        /* \"aquo/aquodao.sol\":3588:3604  proposal.outcome */\n      0x06\n      add\n      0x01\n      swap1\n      sload\n      swap1\n      0x0100\n      exp\n      swap1\n      div\n      0xff\n      and\n        /* \"aquo/aquodao.sol\":3606:3614  proposal */\n      0x00\n        /* \"aquo/aquodao.sol\":3606:3623  proposal.executed */\n      0x06\n      add\n      0x00\n      swap1\n      sload\n      swap1\n      0x0100\n      exp\n      swap1\n      div\n      0xff\n      and\n        /* \"aquo/aquodao.sol\":3580:3624  return (proposal.outcome, proposal.executed) */\n      swap2\n      pop\n      swap2\n      pop\n        /* \"aquo/aquodao.sol\":3489:3632  function getProposalOutcome() public view returns (bool outcome, bool executed) {... */\n      swap1\n      swap2\n      jump\t// out\n        /* \"#utility.yul\":88:205   */\n    tag_70:\n        /* \"#utility.yul\":197:198   */\n      0x00\n        /* \"#utility.yul\":194:195   */\n      dup1\n        /* \"#utility.yul\":187:199   */\n      revert\n        /* \"#utility.yul\":334:460   */\n    tag_72:\n        /* \"#utility.yul\":371:378   */\n      0x00\n        /* \"#utility.yul\":411:453   */\n      0xffffffffffffffffffffffffffffffffffffffff\n        /* \"#utility.yul\":404:409   */\n      dup3\n        /* \"#utility.yul\":400:454   */\n      and\n        /* \"#utility.yul\":389:454   */\n      swap1\n      pop\n        /* \"#utility.yul\":334:460   */\n      swap2\n      swap1\n      pop\n      jump\t// out\n        /* \"#utility.yul\":466:562   */\n    tag_73:\n        /* \"#utility.yul\":503:510   */\n      0x00\n        /* \"#utility.yul\":532:556   */\n      tag_104\n        /* \"#utility.yul\":550:555   */\n      dup3\n        /* \"#utility.yul\":532:556   */\n      tag_72\n      jump\t// in\n    tag_104:\n        /* \"#utility.yul\":521:556   */\n      swap1\n      pop\n        /* \"#utility.yul\":466:562   */\n      swap2\n      swap1\n      pop\n      jump\t// out\n        /* \"#utility.yul\":568:690   */\n    tag_74:\n        /* \"#utility.yul\":641:665   */\n      tag_106\n        /* \"#utility.yul\":659:664   */\n      dup2\n        /* \"#utility.yul\":641:665   */\n      tag_73\n      jump\t// in\n    tag_106:\n        /* \"#utility.yul\":634:639   */\n      dup2\n        /* \"#utility.yul\":631:666   */\n      eq\n        /* \"#utility.yul\":621:684   */\n      tag_107\n      jumpi\n        /* \"#utility.yul\":680:681   */\n      0x00\n        /* \"#utility.yul\":677:678   */\n      dup1\n        /* \"#utility.yul\":670:682   */\n      revert\n        /* \"#utility.yul\":621:684   */\n    tag_107:\n        /* \"#utility.yul\":568:690   */\n      pop\n      jump\t// out\n        /* \"#utility.yul\":696:835   */\n    tag_75:\n        /* \"#utility.yul\":742:747   */\n      0x00\n        /* \"#utility.yul\":780:786   */\n      dup2\n        /* \"#utility.yul\":767:787   */\n      calldataload\n        /* \"#utility.yul\":758:787   */\n      swap1\n      pop\n        /* \"#utility.yul\":796:829   */\n      tag_109\n        /* \"#utility.yul\":823:828   */\n      dup2\n        /* \"#utility.yul\":796:829   */\n      tag_74\n      jump\t// in\n    tag_109:\n        /* \"#utility.yul\":696:835   */\n      swap3\n      swap2\n      pop\n      pop\n      jump\t// out\n        /* \"#utility.yul\":841:1170   */\n    tag_11:\n        /* \"#utility.yul\":900:906   */\n      0x00\n        /* \"#utility.yul\":949:951   */\n      0x20\n        /* \"#utility.yul\":937:946   */\n      dup3\n        /* \"#utility.yul\":928:935   */\n      dup5\n        /* \"#utility.yul\":924:947   */\n      sub\n        /* \"#utility.yul\":920:952   */\n      slt\n        /* \"#utility.yul\":917:1036   */\n      iszero\n      tag_111\n      jumpi\n        /* \"#utility.yul\":955:1034   */\n      tag_112\n      tag_70\n      jump\t// in\n    tag_112:\n        /* \"#utility.yul\":917:1036   */\n    tag_111:\n        /* \"#utility.yul\":1075:1076   */\n      0x00\n        /* \"#utility.yul\":1100:1153   */\n      tag_113\n        /* \"#utility.yul\":1145:1152   */\n      dup5\n        /* \"#utility.yul\":1136:1142   */\n      dup3\n        /* \"#utility.yul\":1125:1134   */\n      dup6\n        /* \"#utility.yul\":1121:1143   */\n      add\n        /* \"#utility.yul\":1100:1153   */\n      tag_75\n      jump\t// in\n    tag_113:\n        /* \"#utility.yul\":1090:1153   */\n      swap2\n      pop\n        /* \"#utility.yul\":1046:1163   */\n      pop\n        /* \"#utility.yul\":841:1170   */\n      swap3\n      swap2\n      pop\n      pop\n      jump\t// out\n        /* \"#utility.yul\":1176:1266   */\n    tag_76:\n        /* \"#utility.yul\":1210:1217   */\n      0x00\n        /* \"#utility.yul\":1253:1258   */\n      dup2\n        /* \"#utility.yul\":1246:1259   */\n      iszero\n        /* \"#utility.yul\":1239:1260   */\n      iszero\n        /* \"#utility.yul\":1228:1260   */\n      swap1\n      pop\n        /* \"#utility.yul\":1176:1266   */\n      swap2\n      swap1\n      pop\n      jump\t// out\n        /* \"#utility.yul\":1272:1381   */\n    tag_77:\n        /* \"#utility.yul\":1353:1374   */\n      tag_116\n        /* \"#utility.yul\":1368:1373   */\n      dup2\n        /* \"#utility.yul\":1353:1374   */\n      tag_76\n      jump\t// in\n    tag_116:\n        /* \"#utility.yul\":1348:1351   */\n      dup3\n        /* \"#utility.yul\":1341:1375   */\n      mstore\n        /* \"#utility.yul\":1272:1381   */\n      pop\n      pop\n      jump\t// out\n        /* \"#utility.yul\":1387:1597   */\n    tag_14:\n        /* \"#utility.yul\":1474:1478   */\n      0x00\n        /* \"#utility.yul\":1512:1514   */\n      0x20\n        /* \"#utility.yul\":1501:1510   */\n      dup3\n        /* \"#utility.yul\":1497:1515   */\n      add\n        /* \"#utility.yul\":1489:1515   */\n      swap1\n      pop\n        /* \"#utility.yul\":1525:1590   */\n      tag_118\n        /* \"#utility.yul\":1587:1588   */\n      0x00\n        /* \"#utility.yul\":1576:1585   */\n      dup4\n        /* \"#utility.yul\":1572:1589   */\n      add\n        /* \"#utility.yul\":1563:1569   */\n      dup5\n        /* \"#utility.yul\":1525:1590   */\n      tag_77\n      jump\t// in\n    tag_118:\n        /* \"#utility.yul\":1387:1597   */\n      swap3\n      swap2\n      pop\n      pop\n      jump\t// out\n        /* \"#utility.yul\":1603:1663   */\n    tag_78:\n        /* \"#utility.yul\":1631:1634   */\n      0x00\n        /* \"#utility.yul\":1652:1657   */\n      dup2\n        /* \"#utility.yul\":1645:1657   */\n      swap1\n      pop\n        /* \"#utility.yul\":1603:1663   */\n      swap2\n      swap1\n      pop\n      jump\t// out\n        /* \"#utility.yul\":1669:1811   */\n    tag_79:\n        /* \"#utility.yul\":1719:1728   */\n      0x00\n        /* \"#utility.yul\":1752:1805   */\n      tag_121\n        /* \"#utility.yul\":1770:1804   */\n      tag_122\n        /* \"#utility.yul\":1779:1803   */\n      tag_123\n        /* \"#utility.yul\":1797:1802   */\n      dup5\n        /* \"#utility.yul\":1779:1803   */\n      tag_72\n      jump\t// in\n    tag_123:\n        /* \"#utility.yul\":1770:1804   */\n      tag_78\n      jump\t// in\n    tag_122:\n        /* \"#utility.yul\":1752:1805   */\n      tag_72\n      jump\t// in\n    tag_121:\n        /* \"#utility.yul\":1739:1805   */\n      swap1\n      pop\n        /* \"#utility.yul\":1669:1811   */\n      swap2\n      swap1\n      pop\n      jump\t// out\n        /* \"#utility.yul\":1817:1943   */\n    tag_80:\n        /* \"#utility.yul\":1867:1876   */\n      0x00\n        /* \"#utility.yul\":1900:1937   */\n      tag_125\n        /* \"#utility.yul\":1931:1936   */\n      dup3\n        /* \"#utility.yul\":1900:1937   */\n      tag_79\n      jump\t// in\n    tag_125:\n        /* \"#utility.yul\":1887:1937   */\n      swap1\n      pop\n        /* \"#utility.yul\":1817:1943   */\n      swap2\n      swap1\n      pop\n      jump\t// out\n        /* \"#utility.yul\":1949:2098   */\n    tag_81:\n        /* \"#utility.yul\":2022:2031   */\n      0x00\n        /* \"#utility.yul\":2055:2092   */\n      tag_127\n        /* \"#utility.yul\":2086:2091   */\n      dup3\n        /* \"#utility.yul\":2055:2092   */\n      tag_80\n      jump\t// in\n    tag_127:\n        /* \"#utility.yul\":2042:2092   */\n      swap1\n      pop\n        /* \"#utility.yul\":1949:2098   */\n      swap2\n      swap1\n      pop\n      jump\t// out\n        /* \"#utility.yul\":2104:2281   */\n    tag_82:\n        /* \"#utility.yul\":2214:2274   */\n      tag_129\n        /* \"#utility.yul\":2268:2273   */\n      dup2\n        /* \"#utility.yul\":2214:2274   */\n      tag_81\n      jump\t// in\n    tag_129:\n        /* \"#utility.yul\":2209:2212   */\n      dup3\n        /* \"#utility.yul\":2202:2275   */\n      mstore\n        /* \"#utility.yul\":2104:2281   */\n      pop\n      pop\n      jump\t// out\n        /* \"#utility.yul\":2287:2555   */\n    tag_18:\n        /* \"#utility.yul\":2403:2407   */\n      0x00\n        /* \"#utility.yul\":2441:2443   */\n      0x20\n        /* \"#utility.yul\":2430:2439   */\n      dup3\n        /* \"#utility.yul\":2426:2444   */\n      add\n        /* \"#utility.yul\":2418:2444   */\n      swap1\n      pop\n        /* \"#utility.yul\":2454:2548   */\n      tag_131\n        /* \"#utility.yul\":2545:2546   */\n      0x00\n        /* \"#utility.yul\":2534:2543   */\n      dup4\n        /* \"#utility.yul\":2530:2547   */\n      add\n        /* \"#utility.yul\":2521:2527   */\n      dup5\n        /* \"#utility.yul\":2454:2548   */\n      tag_82\n      jump\t// in\n    tag_131:\n        /* \"#utility.yul\":2287:2555   */\n      swap3\n      swap2\n      pop\n      pop\n      jump\t// out\n        /* \"#utility.yul\":2561:2677   */\n    tag_83:\n        /* \"#utility.yul\":2631:2652   */\n      tag_133\n        /* \"#utility.yul\":2646:2651   */\n      dup2\n        /* \"#utility.yul\":2631:2652   */\n      tag_76\n      jump\t// in\n    tag_133:\n        /* \"#utility.yul\":2624:2629   */\n      dup2\n        /* \"#utility.yul\":2621:2653   */\n      eq\n        /* \"#utility.yul\":2611:2671   */\n      tag_134\n      jumpi\n        /* \"#utility.yul\":2667:2668   */\n      0x00\n        /* \"#utility.yul\":2664:2665   */\n      dup1\n        /* \"#utility.yul\":2657:2669   */\n      revert\n        /* \"#utility.yul\":2611:2671   */\n    tag_134:\n        /* \"#utility.yul\":2561:2677   */\n      pop\n      jump\t// out\n        /* \"#utility.yul\":2683:2816   */\n    tag_84:\n        /* \"#utility.yul\":2726:2731   */\n      0x00\n        /* \"#utility.yul\":2764:2770   */\n      dup2\n        /* \"#utility.yul\":2751:2771   */\n      calldataload\n        /* \"#utility.yul\":2742:2771   */\n      swap1\n      pop\n        /* \"#utility.yul\":2780:2810   */\n      tag_136\n        /* \"#utility.yul\":2804:2809   */\n      dup2\n        /* \"#utility.yul\":2780:2810   */\n      tag_83\n      jump\t// in\n    tag_136:\n        /* \"#utility.yul\":2683:2816   */\n      swap3\n      swap2\n      pop\n      pop\n      jump\t// out\n        /* \"#utility.yul\":2822:3145   */\n    tag_23:\n        /* \"#utility.yul\":2878:2884   */\n      0x00\n        /* \"#utility.yul\":2927:2929   */\n      0x20\n        /* \"#utility.yul\":2915:2924   */\n      dup3\n        /* \"#utility.yul\":2906:2913   */\n      dup5\n        /* \"#utility.yul\":2902:2925   */\n      sub\n        /* \"#utility.yul\":2898:2930   */\n      slt\n        /* \"#utility.yul\":2895:3014   */\n      iszero\n      tag_138\n      jumpi\n        /* \"#utility.yul\":2933:3012   */\n      tag_139\n      tag_70\n      jump\t// in\n    tag_139:\n        /* \"#utility.yul\":2895:3014   */\n    tag_138:\n        /* \"#utility.yul\":3053:3054   */\n      0x00\n        /* \"#utility.yul\":3078:3128   */\n      tag_140\n        /* \"#utility.yul\":3120:3127   */\n      dup5\n        /* \"#utility.yul\":3111:3117   */\n      dup3\n        /* \"#utility.yul\":3100:3109   */\n      dup6\n        /* \"#utility.yul\":3096:3118   */\n      add\n        /* \"#utility.yul\":3078:3128   */\n      tag_84\n      jump\t// in\n    tag_140:\n        /* \"#utility.yul\":3068:3128   */\n      swap2\n      pop\n        /* \"#utility.yul\":3024:3138   */\n      pop\n        /* \"#utility.yul\":2822:3145   */\n      swap3\n      swap2\n      pop\n      pop\n      jump\t// out\n        /* \"#utility.yul\":3151:3269   */\n    tag_85:\n        /* \"#utility.yul\":3238:3262   */\n      tag_142\n        /* \"#utility.yul\":3256:3261   */\n      dup2\n        /* \"#utility.yul\":3238:3262   */\n      tag_73\n      jump\t// in\n    tag_142:\n        /* \"#utility.yul\":3233:3236   */\n      dup3\n        /* \"#utility.yul\":3226:3263   */\n      mstore\n        /* \"#utility.yul\":3151:3269   */\n      pop\n      pop\n      jump\t// out\n        /* \"#utility.yul\":3275:3352   */\n    tag_86:\n        /* \"#utility.yul\":3312:3319   */\n      0x00\n        /* \"#utility.yul\":3341:3346   */\n      dup2\n        /* \"#utility.yul\":3330:3346   */\n      swap1\n      pop\n        /* \"#utility.yul\":3275:3352   */\n      swap2\n      swap1\n      pop\n      jump\t// out\n        /* \"#utility.yul\":3358:3476   */\n    tag_87:\n        /* \"#utility.yul\":3445:3469   */\n      tag_145\n        /* \"#utility.yul\":3463:3468   */\n      dup2\n        /* \"#utility.yul\":3445:3469   */\n      tag_86\n      jump\t// in\n    tag_145:\n        /* \"#utility.yul\":3440:3443   */\n      dup3\n        /* \"#utility.yul\":3433:3470   */\n      mstore\n        /* \"#utility.yul\":3358:3476   */\n      pop\n      pop\n      jump\t// out\n        /* \"#utility.yul\":3482:4455   */\n    tag_28:\n        /* \"#utility.yul\":3759:3763   */\n      0x00\n        /* \"#utility.yul\":3797:3800   */\n      0x0100\n        /* \"#utility.yul\":3786:3795   */\n      dup3\n        /* \"#utility.yul\":3782:3801   */\n      add\n        /* \"#utility.yul\":3774:3801   */\n      swap1\n      pop\n        /* \"#utility.yul\":3811:3882   */\n      tag_147\n        /* \"#utility.yul\":3879:3880   */\n      0x00\n        /* \"#utility.yul\":3868:3877   */\n      dup4\n        /* \"#utility.yul\":3864:3881   */\n      add\n        /* \"#utility.yul\":3855:3861   */\n      dup12\n        /* \"#utility.yul\":3811:3882   */\n      tag_85\n      jump\t// in\n    tag_147:\n        /* \"#utility.yul\":3892:3964   */\n      tag_148\n        /* \"#utility.yul\":3960:3962   */\n      0x20\n        /* \"#utility.yul\":3949:3958   */\n      dup4\n        /* \"#utility.yul\":3945:3963   */\n      add\n        /* \"#utility.yul\":3936:3942   */\n      dup11\n        /* \"#utility.yul\":3892:3964   */\n      tag_85\n      jump\t// in\n    tag_148:\n        /* \"#utility.yul\":3974:4046   */\n      tag_149\n        /* \"#utility.yul\":4042:4044   */\n      0x40\n        /* \"#utility.yul\":4031:4040   */\n      dup4\n        /* \"#utility.yul\":4027:4045   */\n      add\n        /* \"#utility.yul\":4018:4024   */\n      dup10\n        /* \"#utility.yul\":3974:4046   */\n      tag_85\n      jump\t// in\n    tag_149:\n        /* \"#utility.yul\":4056:4128   */\n      tag_150\n        /* \"#utility.yul\":4124:4126   */\n      0x60\n        /* \"#utility.yul\":4113:4122   */\n      dup4\n        /* \"#utility.yul\":4109:4127   */\n      add\n        /* \"#utility.yul\":4100:4106   */\n      dup9\n        /* \"#utility.yul\":4056:4128   */\n      tag_87\n      jump\t// in\n    tag_150:\n        /* \"#utility.yul\":4138:4211   */\n      tag_151\n        /* \"#utility.yul\":4206:4209   */\n      0x80\n        /* \"#utility.yul\":4195:4204   */\n      dup4\n        /* \"#utility.yul\":4191:4210   */\n      add\n        /* \"#utility.yul\":4182:4188   */\n      dup8\n        /* \"#utility.yul\":4138:4211   */\n      tag_87\n      jump\t// in\n    tag_151:\n        /* \"#utility.yul\":4221:4294   */\n      tag_152\n        /* \"#utility.yul\":4289:4292   */\n      0xa0\n        /* \"#utility.yul\":4278:4287   */\n      dup4\n        /* \"#utility.yul\":4274:4293   */\n      add\n        /* \"#utility.yul\":4265:4271   */\n      dup7\n        /* \"#utility.yul\":4221:4294   */\n      tag_87\n      jump\t// in\n    tag_152:\n        /* \"#utility.yul\":4304:4371   */\n      tag_153\n        /* \"#utility.yul\":4366:4369   */\n      0xc0\n        /* \"#utility.yul\":4355:4364   */\n      dup4\n        /* \"#utility.yul\":4351:4370   */\n      add\n        /* \"#utility.yul\":4342:4348   */\n      dup6\n        /* \"#utility.yul\":4304:4371   */\n      tag_77\n      jump\t// in\n    tag_153:\n        /* \"#utility.yul\":4381:4448   */\n      tag_154\n        /* \"#utility.yul\":4443:4446   */\n      0xe0\n        /* \"#utility.yul\":4432:4441   */\n      dup4\n        /* \"#utility.yul\":4428:4447   */\n      add\n        /* \"#utility.yul\":4419:4425   */\n      dup5\n        /* \"#utility.yul\":4381:4448   */\n      tag_77\n      jump\t// in\n    tag_154:\n        /* \"#utility.yul\":3482:4455   */\n      swap10\n      swap9\n      pop\n      pop\n      pop\n      pop\n      pop\n      pop\n      pop\n      pop\n      pop\n      jump\t// out\n        /* \"#utility.yul\":4461:4769   */\n    tag_32:\n        /* \"#utility.yul\":4570:4574   */\n      0x00\n        /* \"#utility.yul\":4608:4610   */\n      0x40\n        /* \"#utility.yul\":4597:4606   */\n      dup3\n        /* \"#utility.yul\":4593:4611   */\n      add\n        /* \"#utility.yul\":4585:4611   */\n      swap1\n      pop\n        /* \"#utility.yul\":4621:4686   */\n      tag_156\n        /* \"#utility.yul\":4683:4684   */\n      0x00\n        /* \"#utility.yul\":4672:4681   */\n      dup4\n        /* \"#utility.yul\":4668:4685   */\n      add\n        /* \"#utility.yul\":4659:4665   */\n      dup6\n        /* \"#utility.yul\":4621:4686   */\n      tag_77\n      jump\t// in\n    tag_156:\n        /* \"#utility.yul\":4696:4762   */\n      tag_157\n        /* \"#utility.yul\":4758:4760   */\n      0x20\n        /* \"#utility.yul\":4747:4756   */\n      dup4\n        /* \"#utility.yul\":4743:4761   */\n      add\n        /* \"#utility.yul\":4734:4740   */\n      dup5\n        /* \"#utility.yul\":4696:4762   */\n      tag_77\n      jump\t// in\n    tag_157:\n        /* \"#utility.yul\":4461:4769   */\n      swap4\n      swap3\n      pop\n      pop\n      pop\n      jump\t// out\n        /* \"#utility.yul\":4775:4944   */\n    tag_88:\n        /* \"#utility.yul\":4859:4870   */\n      0x00\n        /* \"#utility.yul\":4893:4899   */\n      dup3\n        /* \"#utility.yul\":4888:4891   */\n      dup3\n        /* \"#utility.yul\":4881:4900   */\n      mstore\n        /* \"#utility.yul\":4933:4937   */\n      0x20\n        /* \"#utility.yul\":4928:4931   */\n      dup3\n        /* \"#utility.yul\":4924:4938   */\n      add\n        /* \"#utility.yul\":4909:4938   */\n      swap1\n      pop\n        /* \"#utility.yul\":4775:4944   */\n      swap3\n      swap2\n      pop\n      pop\n      jump\t// out\n        /* \"#utility.yul\":4950:5125   */\n    tag_89:\n        /* \"#utility.yul\":5090:5117   */\n      0x50726f706f73616c20616c726561647920657865637574656400000000000000\n        /* \"#utility.yul\":5086:5087   */\n      0x00\n        /* \"#utility.yul\":5078:5084   */\n      dup3\n        /* \"#utility.yul\":5074:5088   */\n      add\n        /* \"#utility.yul\":5067:5118   */\n      mstore\n        /* \"#utility.yul\":4950:5125   */\n      pop\n      jump\t// out\n        /* \"#utility.yul\":5131:5497   */\n    tag_90:\n        /* \"#utility.yul\":5273:5276   */\n      0x00\n        /* \"#utility.yul\":5294:5361   */\n      tag_161\n        /* \"#utility.yul\":5358:5360   */\n      0x19\n        /* \"#utility.yul\":5353:5356   */\n      dup4\n        /* \"#utility.yul\":5294:5361   */\n      tag_88\n      jump\t// in\n    tag_161:\n        /* \"#utility.yul\":5287:5361   */\n      swap2\n      pop\n        /* \"#utility.yul\":5370:5463   */\n      tag_162\n        /* \"#utility.yul\":5459:5462   */\n      dup3\n        /* \"#utility.yul\":5370:5463   */\n      tag_89\n      jump\t// in\n    tag_162:\n        /* \"#utility.yul\":5488:5490   */\n      0x20\n        /* \"#utility.yul\":5483:5486   */\n      dup3\n        /* \"#utility.yul\":5479:5491   */\n      add\n        /* \"#utility.yul\":5472:5491   */\n      swap1\n      pop\n        /* \"#utility.yul\":5131:5497   */\n      swap2\n      swap1\n      pop\n      jump\t// out\n        /* \"#utility.yul\":5503:5922   */\n    tag_36:\n        /* \"#utility.yul\":5669:5673   */\n      0x00\n        /* \"#utility.yul\":5707:5709   */\n      0x20\n        /* \"#utility.yul\":5696:5705   */\n      dup3\n        /* \"#utility.yul\":5692:5710   */\n      add\n        /* \"#utility.yul\":5684:5710   */\n      swap1\n      pop\n        /* \"#utility.yul\":5756:5765   */\n      dup2\n        /* \"#utility.yul\":5750:5754   */\n      dup2\n        /* \"#utility.yul\":5746:5766   */\n      sub\n        /* \"#utility.yul\":5742:5743   */\n      0x00\n        /* \"#utility.yul\":5731:5740   */\n      dup4\n        /* \"#utility.yul\":5727:5744   */\n      add\n        /* \"#utility.yul\":5720:5767   */\n      mstore\n        /* \"#utility.yul\":5784:5915   */\n      tag_164\n        /* \"#utility.yul\":5910:5914   */\n      dup2\n        /* \"#utility.yul\":5784:5915   */\n      tag_90\n      jump\t// in\n    tag_164:\n        /* \"#utility.yul\":5776:5915   */\n      swap1\n      pop\n        /* \"#utility.yul\":5503:5922   */\n      swap2\n      swap1\n      pop\n      jump\t// out\n        /* \"#utility.yul\":5928:6150   */\n    tag_40:\n        /* \"#utility.yul\":6021:6025   */\n      0x00\n        /* \"#utility.yul\":6059:6061   */\n      0x20\n        /* \"#utility.yul\":6048:6057   */\n      dup3\n        /* \"#utility.yul\":6044:6062   */\n      add\n        /* \"#utility.yul\":6036:6062   */\n      swap1\n      pop\n        /* \"#utility.yul\":6072:6143   */\n      tag_166\n        /* \"#utility.yul\":6140:6141   */\n      0x00\n        /* \"#utility.yul\":6129:6138   */\n      dup4\n        /* \"#utility.yul\":6125:6142   */\n      add\n        /* \"#utility.yul\":6116:6122   */\n      dup5\n        /* \"#utility.yul\":6072:6143   */\n      tag_85\n      jump\t// in\n    tag_166:\n        /* \"#utility.yul\":5928:6150   */\n      swap3\n      swap2\n      pop\n      pop\n      jump\t// out\n        /* \"#utility.yul\":6156:6278   */\n    tag_91:\n        /* \"#utility.yul\":6229:6253   */\n      tag_168\n        /* \"#utility.yul\":6247:6252   */\n      dup2\n        /* \"#utility.yul\":6229:6253   */\n      tag_86\n      jump\t// in\n    tag_168:\n        /* \"#utility.yul\":6222:6227   */\n      dup2\n        /* \"#utility.yul\":6219:6254   */\n      eq\n        /* \"#utility.yul\":6209:6272   */\n      tag_169\n      jumpi\n        /* \"#utility.yul\":6268:6269   */\n      0x00\n        /* \"#utility.yul\":6265:6266   */\n      dup1\n        /* \"#utility.yul\":6258:6270   */\n      revert\n        /* \"#utility.yul\":6209:6272   */\n    tag_169:\n        /* \"#utility.yul\":6156:6278   */\n      pop\n      jump\t// out\n        /* \"#utility.yul\":6284:6427   */\n    tag_92:\n        /* \"#utility.yul\":6341:6346   */\n      0x00\n        /* \"#utility.yul\":6372:6378   */\n      dup2\n        /* \"#utility.yul\":6366:6379   */\n      mload\n        /* \"#utility.yul\":6357:6379   */\n      swap1\n      pop\n        /* \"#utility.yul\":6388:6421   */\n      tag_171\n        /* \"#utility.yul\":6415:6420   */\n      dup2\n        /* \"#utility.yul\":6388:6421   */\n      tag_91\n      jump\t// in\n    tag_171:\n        /* \"#utility.yul\":6284:6427   */\n      swap3\n      swap2\n      pop\n      pop\n      jump\t// out\n        /* \"#utility.yul\":6433:6784   */\n    tag_44:\n        /* \"#utility.yul\":6503:6509   */\n      0x00\n        /* \"#utility.yul\":6552:6554   */\n      0x20\n        /* \"#utility.yul\":6540:6549   */\n      dup3\n        /* \"#utility.yul\":6531:6538   */\n      dup5\n        /* \"#utility.yul\":6527:6550   */\n      sub\n        /* \"#utility.yul\":6523:6555   */\n      slt\n        /* \"#utility.yul\":6520:6639   */\n      iszero\n      tag_173\n      jumpi\n        /* \"#utility.yul\":6558:6637   */\n      tag_174\n      tag_70\n      jump\t// in\n    tag_174:\n        /* \"#utility.yul\":6520:6639   */\n    tag_173:\n        /* \"#utility.yul\":6678:6679   */\n      0x00\n        /* \"#utility.yul\":6703:6767   */\n      tag_175\n        /* \"#utility.yul\":6759:6766   */\n      dup5\n        /* \"#utility.yul\":6750:6756   */\n      dup3\n        /* \"#utility.yul\":6739:6748   */\n      dup6\n        /* \"#utility.yul\":6735:6757   */\n      add\n        /* \"#utility.yul\":6703:6767   */\n      tag_92\n      jump\t// in\n    tag_175:\n        /* \"#utility.yul\":6693:6767   */\n      swap2\n      pop\n        /* \"#utility.yul\":6649:6777   */\n      pop\n        /* \"#utility.yul\":6433:6784   */\n      swap3\n      swap2\n      pop\n      pop\n      jump\t// out\n        /* \"#utility.yul\":6790:6958   */\n    tag_93:\n        /* \"#utility.yul\":6930:6950   */\n      0x4e6f74206120746f6b656e20686f6c6465720000000000000000000000000000\n        /* \"#utility.yul\":6926:6927   */\n      0x00\n        /* \"#utility.yul\":6918:6924   */\n      dup3\n        /* \"#utility.yul\":6914:6928   */\n      add\n        /* \"#utility.yul\":6907:6951   */\n      mstore\n        /* \"#utility.yul\":6790:6958   */\n      pop\n      jump\t// out\n        /* \"#utility.yul\":6964:7330   */\n    tag_94:\n        /* \"#utility.yul\":7106:7109   */\n      0x00\n        /* \"#utility.yul\":7127:7194   */\n      tag_178\n        /* \"#utility.yul\":7191:7193   */\n      0x12\n        /* \"#utility.yul\":7186:7189   */\n      dup4\n        /* \"#utility.yul\":7127:7194   */\n      tag_88\n      jump\t// in\n    tag_178:\n        /* \"#utility.yul\":7120:7194   */\n      swap2\n      pop\n        /* \"#utility.yul\":7203:7296   */\n      tag_179\n        /* \"#utility.yul\":7292:7295   */\n      dup3\n        /* \"#utility.yul\":7203:7296   */\n      tag_93\n      jump\t// in\n    tag_179:\n        /* \"#utility.yul\":7321:7323   */\n      0x20\n        /* \"#utility.yul\":7316:7319   */\n      dup3\n        /* \"#utility.yul\":7312:7324   */\n      add\n        /* \"#utility.yul\":7305:7324   */\n      swap1\n      pop\n        /* \"#utility.yul\":6964:7330   */\n      swap2\n      swap1\n      pop\n      jump\t// out\n        /* \"#utility.yul\":7336:7755   */\n    tag_47:\n        /* \"#utility.yul\":7502:7506   */\n      0x00\n        /* \"#utility.yul\":7540:7542   */\n      0x20\n        /* \"#utility.yul\":7529:7538   */\n      dup3\n        /* \"#utility.yul\":7525:7543   */\n      add\n        /* \"#utility.yul\":7517:7543   */\n      swap1\n      pop\n        /* \"#utility.yul\":7589:7598   */\n      dup2\n        /* \"#utility.yul\":7583:7587   */\n      dup2\n        /* \"#utility.yul\":7579:7599   */\n      sub\n        /* \"#utility.yul\":7575:7576   */\n      0x00\n        /* \"#utility.yul\":7564:7573   */\n      dup4\n        /* \"#utility.yul\":7560:7577   */\n      add\n        /* \"#utility.yul\":7553:7600   */\n      mstore\n        /* \"#utility.yul\":7617:7748   */\n      tag_181\n        /* \"#utility.yul\":7743:7747   */\n      dup2\n        /* \"#utility.yul\":7617:7748   */\n      tag_94\n      jump\t// in\n    tag_181:\n        /* \"#utility.yul\":7609:7748   */\n      swap1\n      pop\n        /* \"#utility.yul\":7336:7755   */\n      swap2\n      swap1\n      pop\n      jump\t// out\n        /* \"#utility.yul\":7761:7924   */\n    tag_95:\n        /* \"#utility.yul\":7901:7916   */\n      0x416c726561647920766f74656400000000000000000000000000000000000000\n        /* \"#utility.yul\":7897:7898   */\n      0x00\n        /* \"#utility.yul\":7889:7895   */\n      dup3\n        /* \"#utility.yul\":7885:7899   */\n      add\n        /* \"#utility.yul\":7878:7917   */\n      mstore\n        /* \"#utility.yul\":7761:7924   */\n      pop\n      jump\t// out\n        /* \"#utility.yul\":7930:8296   */\n    tag_96:\n        /* \"#utility.yul\":8072:8075   */\n      0x00\n        /* \"#utility.yul\":8093:8160   */\n      tag_184\n        /* \"#utility.yul\":8157:8159   */\n      0x0d\n        /* \"#utility.yul\":8152:8155   */\n      dup4\n        /* \"#utility.yul\":8093:8160   */\n      tag_88\n      jump\t// in\n    tag_184:\n        /* \"#utility.yul\":8086:8160   */\n      swap2\n      pop\n        /* \"#utility.yul\":8169:8262   */\n      tag_185\n        /* \"#utility.yul\":8258:8261   */\n      dup3\n        /* \"#utility.yul\":8169:8262   */\n      tag_95\n      jump\t// in\n    tag_185:\n        /* \"#utility.yul\":8287:8289   */\n      0x20\n        /* \"#utility.yul\":8282:8285   */\n      dup3\n        /* \"#utility.yul\":8278:8290   */\n      add\n        /* \"#utility.yul\":8271:8290   */\n      swap1\n      pop\n        /* \"#utility.yul\":7930:8296   */\n      swap2\n      swap1\n      pop\n      jump\t// out\n        /* \"#utility.yul\":8302:8721   */\n    tag_51:\n        /* \"#utility.yul\":8468:8472   */\n      0x00\n        /* \"#utility.yul\":8506:8508   */\n      0x20\n        /* \"#utility.yul\":8495:8504   */\n      dup3\n        /* \"#utility.yul\":8491:8509   */\n      add\n        /* \"#utility.yul\":8483:8509   */\n      swap1\n      pop\n        /* \"#utility.yul\":8555:8564   */\n      dup2\n        /* \"#utility.yul\":8549:8553   */\n      dup2\n        /* \"#utility.yul\":8545:8565   */\n      sub\n        /* \"#utility.yul\":8541:8542   */\n      0x00\n        /* \"#utility.yul\":8530:8539   */\n      dup4\n        /* \"#utility.yul\":8526:8543   */\n      add\n        /* \"#utility.yul\":8519:8566   */\n      mstore\n        /* \"#utility.yul\":8583:8714   */\n      tag_187\n        /* \"#utility.yul\":8709:8713   */\n      dup2\n        /* \"#utility.yul\":8583:8714   */\n      tag_96\n      jump\t// in\n    tag_187:\n        /* \"#utility.yul\":8575:8714   */\n      swap1\n      pop\n        /* \"#utility.yul\":8302:8721   */\n      swap2\n      swap1\n      pop\n      jump\t// out\n        /* \"#utility.yul\":8727:8907   */\n    tag_97:\n        /* \"#utility.yul\":8775:8852   */\n      0x4e487b7100000000000000000000000000000000000000000000000000000000\n        /* \"#utility.yul\":8772:8773   */\n      0x00\n        /* \"#utility.yul\":8765:8853   */\n      mstore\n        /* \"#utility.yul\":8872:8876   */\n      0x11\n        /* \"#utility.yul\":8869:8870   */\n      0x04\n        /* \"#utility.yul\":8862:8877   */\n      mstore\n        /* \"#utility.yul\":8896:8900   */\n      0x24\n        /* \"#utility.yul\":8893:8894   */\n      0x00\n        /* \"#utility.yul\":8886:8901   */\n      revert\n        /* \"#utility.yul\":8913:9104   */\n    tag_60:\n        /* \"#utility.yul\":8953:8956   */\n      0x00\n        /* \"#utility.yul\":8972:8992   */\n      tag_190\n        /* \"#utility.yul\":8990:8991   */\n      dup3\n        /* \"#utility.yul\":8972:8992   */\n      tag_86\n      jump\t// in\n    tag_190:\n        /* \"#utility.yul\":8967:8992   */\n      swap2\n      pop\n        /* \"#utility.yul\":9006:9026   */\n      tag_191\n        /* \"#utility.yul\":9024:9025   */\n      dup4\n        /* \"#utility.yul\":9006:9026   */\n      tag_86\n      jump\t// in\n    tag_191:\n        /* \"#utility.yul\":9001:9026   */\n      swap3\n      pop\n        /* \"#utility.yul\":9049:9050   */\n      dup3\n        /* \"#utility.yul\":9046:9047   */\n      dup3\n        /* \"#utility.yul\":9042:9051   */\n      add\n        /* \"#utility.yul\":9035:9051   */\n      swap1\n      pop\n        /* \"#utility.yul\":9070:9073   */\n      dup1\n        /* \"#utility.yul\":9067:9068   */\n      dup3\n        /* \"#utility.yul\":9064:9074   */\n      gt\n        /* \"#utility.yul\":9061:9097   */\n      iszero\n      tag_192\n      jumpi\n        /* \"#utility.yul\":9077:9095   */\n      tag_193\n      tag_97\n      jump\t// in\n    tag_193:\n        /* \"#utility.yul\":9061:9097   */\n    tag_192:\n        /* \"#utility.yul\":8913:9104   */\n      swap3\n      swap2\n      pop\n      pop\n      jump\t// out\n\n    auxdata: 0xa26469706673582212208843212d2a551107a22d8daa5bb2b6827cc2d6aa09d2e4766cd1efff6371cb7d64736f6c63430008180033\n}\n",
				"bytecode": {
					"linkReferences": {},
					"object": "608060405234801562000010575f80fd5b50604051620013d5380380620013d5833981810160405281019062000036919062000534565b5f73ffffffffffffffffffffffffffffffffffffffff168173ffffffffffffffffffffffffffffffffffffffff1603620000a7576040517f08c379a00000000000000000000000000000000000000000000000000000000081526004016200009e9062000601565b60405180910390fd5b5f8473ffffffffffffffffffffffffffffffffffffffff166370a08231836040518263ffffffff1660e01b8152600401620000e3919062000632565b602060405180830381865afa158015620000ff573d5f803e3d5ffd5b505050506040513d601f19601f820116820180604052508101906200012591906200064d565b1162000168576040517f08c379a00000000000000000000000000000000000000000000000000000000081526004016200015f90620006f1565b60405180910390fd5b5f73ffffffffffffffffffffffffffffffffffffffff168473ffffffffffffffffffffffffffffffffffffffff1603620001d9576040517f08c379a0000000000000000000000000000000000000000000000000000000008152600401620001d09062000785565b60405180910390fd5b5f73ffffffffffffffffffffffffffffffffffffffff168373ffffffffffffffffffffffffffffffffffffffff16036200024a576040517f08c379a00000000000000000000000000000000000000000000000000000000081526004016200024190620007f3565b60405180910390fd5b8360075f6101000a81548173ffffffffffffffffffffffffffffffffffffffff021916908373ffffffffffffffffffffffffffffffffffffffff1602179055506040518061010001604052808273ffffffffffffffffffffffffffffffffffffffff1681526020018473ffffffffffffffffffffffffffffffffffffffff1681526020018573ffffffffffffffffffffffffffffffffffffffff1681526020018381526020015f81526020015f81526020015f151581526020015f15158152505f80820151815f015f6101000a81548173ffffffffffffffffffffffffffffffffffffffff021916908373ffffffffffffffffffffffffffffffffffffffff1602179055506020820151816001015f6101000a81548173ffffffffffffffffffffffffffffffffffffffff021916908373ffffffffffffffffffffffffffffffffffffffff1602179055506040820151816002015f6101000a81548173ffffffffffffffffffffffffffffffffffffffff021916908373ffffffffffffffffffffffffffffffffffffffff160217905550606082015181600301556080820151816004015560a0820151816005015560c0820151816006015f6101000a81548160ff02191690831515021790555060e08201518160060160016101000a81548160ff0219169083151502179055509050508073ffffffffffffffffffffffffffffffffffffffff167fea852cad362f5c1a9c667d99b45479efe41de31b99ae3638f0c19fa040ab4dc284846040516200048592919062000824565b60405180910390a2505050506200084f565b5f80fd5b5f73ffffffffffffffffffffffffffffffffffffffff82169050919050565b5f620004c6826200049b565b9050919050565b620004d881620004ba565b8114620004e3575f80fd5b50565b5f81519050620004f681620004cd565b92915050565b5f819050919050565b6200051081620004fc565b81146200051b575f80fd5b50565b5f815190506200052e8162000505565b92915050565b5f805f80608085870312156200054f576200054e62000497565b5b5f6200055e87828801620004e6565b94505060206200057187828801620004e6565b935050604062000584878288016200051e565b92505060606200059787828801620004e6565b91505092959194509250565b5f82825260208201905092915050565b7f496e76616c69642070726f706f7365722077616c6c65742061646472657373005f82015250565b5f620005e9601f83620005a3565b9150620005f682620005b3565b602082019050919050565b5f6020820190508181035f8301526200061a81620005db565b9050919050565b6200062c81620004ba565b82525050565b5f602082019050620006475f83018462000621565b92915050565b5f6020828403121562000665576200066462000497565b5b5f62000674848285016200051e565b91505092915050565b7f4465706c6f79696e672077616c6c6574206d757374206265206120746f6b656e5f8201527f20686f6c64657200000000000000000000000000000000000000000000000000602082015250565b5f620006d9602783620005a3565b9150620006e6826200067d565b604082019050919050565b5f6020820190508181035f8301526200070a81620006cb565b9050919050565b7f496e76616c69642052574120746f6b656e697a6174696f6e20636f6e747261635f8201527f7420616464726573730000000000000000000000000000000000000000000000602082015250565b5f6200076d602983620005a3565b91506200077a8262000711565b604082019050919050565b5f6020820190508181035f8301526200079e816200075f565b9050919050565b7f496e76616c696420706f6f6c20616464726573730000000000000000000000005f82015250565b5f620007db601483620005a3565b9150620007e882620007a5565b602082019050919050565b5f6020820190508181035f8301526200080c81620007cd565b9050919050565b6200081e81620004fc565b82525050565b5f604082019050620008395f83018562000621565b62000848602083018462000813565b9392505050565b610b78806200085d5f395ff3fe608060405234801561000f575f80fd5b5060043610610060575f3560e01c806309eef43e1461006457806325fdf6b114610094578063373058b8146100b25780634b9f5c98146100bc578063753ec103146100d8578063cebc56ad146100fd575b5f80fd5b61007e6004803603810190610079919061073b565b61011c565b60405161008b9190610780565b60405180910390f35b61009c610139565b6040516100a991906107f4565b60405180910390f35b6100ba61015e565b005b6100d660048036038101906100d19190610837565b61023b565b005b6100e0610606565b6040516100f4989796959493929190610889565b60405180910390f35b6101056106b0565b604051610113929190610905565b60405180910390f35b6008602052805f5260405f205f915054906101000a900460ff1681565b60075f9054906101000a900473ffffffffffffffffffffffffffffffffffffffff1681565b5f6006015f9054906101000a900460ff16156101af576040517f08c379a00000000000000000000000000000000000000000000000000000000081526004016101a690610986565b60405180910390fd5b5f600501545f60040154115f60060160016101000a81548160ff02191690831515021790555060015f6006015f6101000a81548160ff0219169083151502179055507f1d1550e53334f4835142f95e29cb712071f89ecd734dec7f91ce379cbff186fa5f60060160019054906101000a900460ff166040516102319190610780565b60405180910390a1565b5f60075f9054906101000a900473ffffffffffffffffffffffffffffffffffffffff1673ffffffffffffffffffffffffffffffffffffffff166370a08231336040518263ffffffff1660e01b815260040161029691906109a4565b602060405180830381865afa1580156102b1573d5f803e3d5ffd5b505050506040513d601f19601f820116820180604052508101906102d591906109e7565b11610315576040517f08c379a000000000000000000000000000000000000000000000000000000000815260040161030c90610a5c565b60405180910390fd5b60085f3373ffffffffffffffffffffffffffffffffffffffff1673ffffffffffffffffffffffffffffffffffffffff1681526020019081526020015f205f9054906101000a900460ff161561039f576040517f08c379a000000000000000000000000000000000000000000000000000000000815260040161039690610ac4565b60405180910390fd5b5f6006015f9054906101000a900460ff16156103f0576040517f08c379a00000000000000000000000000000000000000000000000000000000081526004016103e790610986565b60405180910390fd5b80156104ad5760075f9054906101000a900473ffffffffffffffffffffffffffffffffffffffff1673ffffffffffffffffffffffffffffffffffffffff166370a08231336040518263ffffffff1660e01b815260040161045091906109a4565b602060405180830381865afa15801561046b573d5f803e3d5ffd5b505050506040513d601f19601f8201168201806040525081019061048f91906109e7565b5f6004015f8282546104a19190610b0f565b92505081905550610560565b60075f9054906101000a900473ffffffffffffffffffffffffffffffffffffffff1673ffffffffffffffffffffffffffffffffffffffff166370a08231336040518263ffffffff1660e01b815260040161050791906109a4565b602060405180830381865afa158015610522573d5f803e3d5ffd5b505050506040513d601f19601f8201168201806040525081019061054691906109e7565b5f6005015f8282546105589190610b0f565b925050819055505b600160085f3373ffffffffffffffffffffffffffffffffffffffff1673ffffffffffffffffffffffffffffffffffffffff1681526020019081526020015f205f6101000a81548160ff0219169083151502179055503373ffffffffffffffffffffffffffffffffffffffff167f8eb81cb806dbb3d8a2f94981614331a55dfd90e06a42fdc362ca3ca96981d92f826040516105fb9190610780565b60405180910390a250565b5f805f015f9054906101000a900473ffffffffffffffffffffffffffffffffffffffff1690806001015f9054906101000a900473ffffffffffffffffffffffffffffffffffffffff1690806002015f9054906101000a900473ffffffffffffffffffffffffffffffffffffffff1690806003015490806004015490806005015490806006015f9054906101000a900460ff16908060060160019054906101000a900460ff16905088565b5f805f60060160019054906101000a900460ff165f6006015f9054906101000a900460ff16915091509091565b5f80fd5b5f73ffffffffffffffffffffffffffffffffffffffff82169050919050565b5f61070a826106e1565b9050919050565b61071a81610700565b8114610724575f80fd5b50565b5f8135905061073581610711565b92915050565b5f602082840312156107505761074f6106dd565b5b5f61075d84828501610727565b91505092915050565b5f8115159050919050565b61077a81610766565b82525050565b5f6020820190506107935f830184610771565b92915050565b5f819050919050565b5f6107bc6107b76107b2846106e1565b610799565b6106e1565b9050919050565b5f6107cd826107a2565b9050919050565b5f6107de826107c3565b9050919050565b6107ee816107d4565b82525050565b5f6020820190506108075f8301846107e5565b92915050565b61081681610766565b8114610820575f80fd5b50565b5f813590506108318161080d565b92915050565b5f6020828403121561084c5761084b6106dd565b5b5f61085984828501610823565b91505092915050565b61086b81610700565b82525050565b5f819050919050565b61088381610871565b82525050565b5f6101008201905061089d5f83018b610862565b6108aa602083018a610862565b6108b76040830189610862565b6108c4606083018861087a565b6108d1608083018761087a565b6108de60a083018661087a565b6108eb60c0830185610771565b6108f860e0830184610771565b9998505050505050505050565b5f6040820190506109185f830185610771565b6109256020830184610771565b9392505050565b5f82825260208201905092915050565b7f50726f706f73616c20616c7265616479206578656375746564000000000000005f82015250565b5f61097060198361092c565b915061097b8261093c565b602082019050919050565b5f6020820190508181035f83015261099d81610964565b9050919050565b5f6020820190506109b75f830184610862565b92915050565b6109c681610871565b81146109d0575f80fd5b50565b5f815190506109e1816109bd565b92915050565b5f602082840312156109fc576109fb6106dd565b5b5f610a09848285016109d3565b91505092915050565b7f4e6f74206120746f6b656e20686f6c64657200000000000000000000000000005f82015250565b5f610a4660128361092c565b9150610a5182610a12565b602082019050919050565b5f6020820190508181035f830152610a7381610a3a565b9050919050565b7f416c726561647920766f746564000000000000000000000000000000000000005f82015250565b5f610aae600d8361092c565b9150610ab982610a7a565b602082019050919050565b5f6020820190508181035f830152610adb81610aa2565b9050919050565b7f4e487b71000000000000000000000000000000000000000000000000000000005f52601160045260245ffd5b5f610b1982610871565b9150610b2483610871565b9250828201905080821115610b3c57610b3b610ae2565b5b9291505056fea26469706673582212208843212d2a551107a22d8daa5bb2b6827cc2d6aa09d2e4766cd1efff6371cb7d64736f6c63430008180033",
					"opcodes": "PUSH1 0x80 PUSH1 0x40 MSTORE CALLVALUE DUP1 ISZERO PUSH3 0x10 JUMPI PUSH0 DUP1 REVERT JUMPDEST POP PUSH1 0x40 MLOAD PUSH3 0x13D5 CODESIZE SUB DUP1 PUSH3 0x13D5 DUP4 CODECOPY DUP2 DUP2 ADD PUSH1 0x40 MSTORE DUP2 ADD SWAP1 PUSH3 0x36 SWAP2 SWAP1 PUSH3 0x534 JUMP JUMPDEST PUSH0 PUSH20 0xFFFFFFFFFFFFFFFFFFFFFFFFFFFFFFFFFFFFFFFF AND DUP2 PUSH20 0xFFFFFFFFFFFFFFFFFFFFFFFFFFFFFFFFFFFFFFFF AND SUB PUSH3 0xA7 JUMPI PUSH1 0x40 MLOAD PUSH32 0x8C379A000000000000000000000000000000000000000000000000000000000 DUP2 MSTORE PUSH1 0x4 ADD PUSH3 0x9E SWAP1 PUSH3 0x601 JUMP JUMPDEST PUSH1 0x40 MLOAD DUP1 SWAP2 SUB SWAP1 REVERT JUMPDEST PUSH0 DUP5 PUSH20 0xFFFFFFFFFFFFFFFFFFFFFFFFFFFFFFFFFFFFFFFF AND PUSH4 0x70A08231 DUP4 PUSH1 0x40 MLOAD DUP3 PUSH4 0xFFFFFFFF AND PUSH1 0xE0 SHL DUP2 MSTORE PUSH1 0x4 ADD PUSH3 0xE3 SWAP2 SWAP1 PUSH3 0x632 JUMP JUMPDEST PUSH1 0x20 PUSH1 0x40 MLOAD DUP1 DUP4 SUB DUP2 DUP7 GAS STATICCALL ISZERO DUP1 ISZERO PUSH3 0xFF JUMPI RETURNDATASIZE PUSH0 DUP1 RETURNDATACOPY RETURNDATASIZE PUSH0 REVERT JUMPDEST POP POP POP POP PUSH1 0x40 MLOAD RETURNDATASIZE PUSH1 0x1F NOT PUSH1 0x1F DUP3 ADD AND DUP3 ADD DUP1 PUSH1 0x40 MSTORE POP DUP2 ADD SWAP1 PUSH3 0x125 SWAP2 SWAP1 PUSH3 0x64D JUMP JUMPDEST GT PUSH3 0x168 JUMPI PUSH1 0x40 MLOAD PUSH32 0x8C379A000000000000000000000000000000000000000000000000000000000 DUP2 MSTORE PUSH1 0x4 ADD PUSH3 0x15F SWAP1 PUSH3 0x6F1 JUMP JUMPDEST PUSH1 0x40 MLOAD DUP1 SWAP2 SUB SWAP1 REVERT JUMPDEST PUSH0 PUSH20 0xFFFFFFFFFFFFFFFFFFFFFFFFFFFFFFFFFFFFFFFF AND DUP5 PUSH20 0xFFFFFFFFFFFFFFFFFFFFFFFFFFFFFFFFFFFFFFFF AND SUB PUSH3 0x1D9 JUMPI PUSH1 0x40 MLOAD PUSH32 0x8C379A000000000000000000000000000000000000000000000000000000000 DUP2 MSTORE PUSH1 0x4 ADD PUSH3 0x1D0 SWAP1 PUSH3 0x785 JUMP JUMPDEST PUSH1 0x40 MLOAD DUP1 SWAP2 SUB SWAP1 REVERT JUMPDEST PUSH0 PUSH20 0xFFFFFFFFFFFFFFFFFFFFFFFFFFFFFFFFFFFFFFFF AND DUP4 PUSH20 0xFFFFFFFFFFFFFFFFFFFFFFFFFFFFFFFFFFFFFFFF AND SUB PUSH3 0x24A JUMPI PUSH1 0x40 MLOAD PUSH32 0x8C379A000000000000000000000000000000000000000000000000000000000 DUP2 MSTORE PUSH1 0x4 ADD PUSH3 0x241 SWAP1 PUSH3 0x7F3 JUMP JUMPDEST PUSH1 0x40 MLOAD DUP1 SWAP2 SUB SWAP1 REVERT JUMPDEST DUP4 PUSH1 0x7 PUSH0 PUSH2 0x100 EXP DUP2 SLOAD DUP2 PUSH20 0xFFFFFFFFFFFFFFFFFFFFFFFFFFFFFFFFFFFFFFFF MUL NOT AND SWAP1 DUP4 PUSH20 0xFFFFFFFFFFFFFFFFFFFFFFFFFFFFFFFFFFFFFFFF AND MUL OR SWAP1 SSTORE POP PUSH1 0x40 MLOAD DUP1 PUSH2 0x100 ADD PUSH1 0x40 MSTORE DUP1 DUP3 PUSH20 0xFFFFFFFFFFFFFFFFFFFFFFFFFFFFFFFFFFFFFFFF AND DUP2 MSTORE PUSH1 0x20 ADD DUP5 PUSH20 0xFFFFFFFFFFFFFFFFFFFFFFFFFFFFFFFFFFFFFFFF AND DUP2 MSTORE PUSH1 0x20 ADD DUP6 PUSH20 0xFFFFFFFFFFFFFFFFFFFFFFFFFFFFFFFFFFFFFFFF AND DUP2 MSTORE PUSH1 0x20 ADD DUP4 DUP2 MSTORE PUSH1 0x20 ADD PUSH0 DUP2 MSTORE PUSH1 0x20 ADD PUSH0 DUP2 MSTORE PUSH1 0x20 ADD PUSH0 ISZERO ISZERO DUP2 MSTORE PUSH1 0x20 ADD PUSH0 ISZERO ISZERO DUP2 MSTORE POP PUSH0 DUP1 DUP3 ADD MLOAD DUP2 PUSH0 ADD PUSH0 PUSH2 0x100 EXP DUP2 SLOAD DUP2 PUSH20 0xFFFFFFFFFFFFFFFFFFFFFFFFFFFFFFFFFFFFFFFF MUL NOT AND SWAP1 DUP4 PUSH20 0xFFFFFFFFFFFFFFFFFFFFFFFFFFFFFFFFFFFFFFFF AND MUL OR SWAP1 SSTORE POP PUSH1 0x20 DUP3 ADD MLOAD DUP2 PUSH1 0x1 ADD PUSH0 PUSH2 0x100 EXP DUP2 SLOAD DUP2 PUSH20 0xFFFFFFFFFFFFFFFFFFFFFFFFFFFFFFFFFFFFFFFF MUL NOT AND SWAP1 DUP4 PUSH20 0xFFFFFFFFFFFFFFFFFFFFFFFFFFFFFFFFFFFFFFFF AND MUL OR SWAP1 SSTORE POP PUSH1 0x40 DUP3 ADD MLOAD DUP2 PUSH1 0x2 ADD PUSH0 PUSH2 0x100 EXP DUP2 SLOAD DUP2 PUSH20 0xFFFFFFFFFFFFFFFFFFFFFFFFFFFFFFFFFFFFFFFF MUL NOT AND SWAP1 DUP4 PUSH20 0xFFFFFFFFFFFFFFFFFFFFFFFFFFFFFFFFFFFFFFFF AND MUL OR SWAP1 SSTORE POP PUSH1 0x60 DUP3 ADD MLOAD DUP2 PUSH1 0x3 ADD SSTORE PUSH1 0x80 DUP3 ADD MLOAD DUP2 PUSH1 0x4 ADD SSTORE PUSH1 0xA0 DUP3 ADD MLOAD DUP2 PUSH1 0x5 ADD SSTORE PUSH1 0xC0 DUP3 ADD MLOAD DUP2 PUSH1 0x6 ADD PUSH0 PUSH2 0x100 EXP DUP2 SLOAD DUP2 PUSH1 0xFF MUL NOT AND SWAP1 DUP4 ISZERO ISZERO MUL OR SWAP1 SSTORE POP PUSH1 0xE0 DUP3 ADD MLOAD DUP2 PUSH1 0x6 ADD PUSH1 0x1 PUSH2 0x100 EXP DUP2 SLOAD DUP2 PUSH1 0xFF MUL NOT AND SWAP1 DUP4 ISZERO ISZERO MUL OR SWAP1 SSTORE POP SWAP1 POP POP DUP1 PUSH20 0xFFFFFFFFFFFFFFFFFFFFFFFFFFFFFFFFFFFFFFFF AND PUSH32 0xEA852CAD362F5C1A9C667D99B45479EFE41DE31B99AE3638F0C19FA040AB4DC2 DUP5 DUP5 PUSH1 0x40 MLOAD PUSH3 0x485 SWAP3 SWAP2 SWAP1 PUSH3 0x824 JUMP JUMPDEST PUSH1 0x40 MLOAD DUP1 SWAP2 SUB SWAP1 LOG2 POP POP POP POP PUSH3 0x84F JUMP JUMPDEST PUSH0 DUP1 REVERT JUMPDEST PUSH0 PUSH20 0xFFFFFFFFFFFFFFFFFFFFFFFFFFFFFFFFFFFFFFFF DUP3 AND SWAP1 POP SWAP2 SWAP1 POP JUMP JUMPDEST PUSH0 PUSH3 0x4C6 DUP3 PUSH3 0x49B JUMP JUMPDEST SWAP1 POP SWAP2 SWAP1 POP JUMP JUMPDEST PUSH3 0x4D8 DUP2 PUSH3 0x4BA JUMP JUMPDEST DUP2 EQ PUSH3 0x4E3 JUMPI PUSH0 DUP1 REVERT JUMPDEST POP JUMP JUMPDEST PUSH0 DUP2 MLOAD SWAP1 POP PUSH3 0x4F6 DUP2 PUSH3 0x4CD JUMP JUMPDEST SWAP3 SWAP2 POP POP JUMP JUMPDEST PUSH0 DUP2 SWAP1 POP SWAP2 SWAP1 POP JUMP JUMPDEST PUSH3 0x510 DUP2 PUSH3 0x4FC JUMP JUMPDEST DUP2 EQ PUSH3 0x51B JUMPI PUSH0 DUP1 REVERT JUMPDEST POP JUMP JUMPDEST PUSH0 DUP2 MLOAD SWAP1 POP PUSH3 0x52E DUP2 PUSH3 0x505 JUMP JUMPDEST SWAP3 SWAP2 POP POP JUMP JUMPDEST PUSH0 DUP1 PUSH0 DUP1 PUSH1 0x80 DUP6 DUP8 SUB SLT ISZERO PUSH3 0x54F JUMPI PUSH3 0x54E PUSH3 0x497 JUMP JUMPDEST JUMPDEST PUSH0 PUSH3 0x55E DUP8 DUP3 DUP9 ADD PUSH3 0x4E6 JUMP JUMPDEST SWAP5 POP POP PUSH1 0x20 PUSH3 0x571 DUP8 DUP3 DUP9 ADD PUSH3 0x4E6 JUMP JUMPDEST SWAP4 POP POP PUSH1 0x40 PUSH3 0x584 DUP8 DUP3 DUP9 ADD PUSH3 0x51E JUMP JUMPDEST SWAP3 POP POP PUSH1 0x60 PUSH3 0x597 DUP8 DUP3 DUP9 ADD PUSH3 0x4E6 JUMP JUMPDEST SWAP2 POP POP SWAP3 SWAP6 SWAP2 SWAP5 POP SWAP3 POP JUMP JUMPDEST PUSH0 DUP3 DUP3 MSTORE PUSH1 0x20 DUP3 ADD SWAP1 POP SWAP3 SWAP2 POP POP JUMP JUMPDEST PUSH32 0x496E76616C69642070726F706F7365722077616C6C6574206164647265737300 PUSH0 DUP3 ADD MSTORE POP JUMP JUMPDEST PUSH0 PUSH3 0x5E9 PUSH1 0x1F DUP4 PUSH3 0x5A3 JUMP JUMPDEST SWAP2 POP PUSH3 0x5F6 DUP3 PUSH3 0x5B3 JUMP JUMPDEST PUSH1 0x20 DUP3 ADD SWAP1 POP SWAP2 SWAP1 POP JUMP JUMPDEST PUSH0 PUSH1 0x20 DUP3 ADD SWAP1 POP DUP2 DUP2 SUB PUSH0 DUP4 ADD MSTORE PUSH3 0x61A DUP2 PUSH3 0x5DB JUMP JUMPDEST SWAP1 POP SWAP2 SWAP1 POP JUMP JUMPDEST PUSH3 0x62C DUP2 PUSH3 0x4BA JUMP JUMPDEST DUP3 MSTORE POP POP JUMP JUMPDEST PUSH0 PUSH1 0x20 DUP3 ADD SWAP1 POP PUSH3 0x647 PUSH0 DUP4 ADD DUP5 PUSH3 0x621 JUMP JUMPDEST SWAP3 SWAP2 POP POP JUMP JUMPDEST PUSH0 PUSH1 0x20 DUP3 DUP5 SUB SLT ISZERO PUSH3 0x665 JUMPI PUSH3 0x664 PUSH3 0x497 JUMP JUMPDEST JUMPDEST PUSH0 PUSH3 0x674 DUP5 DUP3 DUP6 ADD PUSH3 0x51E JUMP JUMPDEST SWAP2 POP POP SWAP3 SWAP2 POP POP JUMP JUMPDEST PUSH32 0x4465706C6F79696E672077616C6C6574206D757374206265206120746F6B656E PUSH0 DUP3 ADD MSTORE PUSH32 0x20686F6C64657200000000000000000000000000000000000000000000000000 PUSH1 0x20 DUP3 ADD MSTORE POP JUMP JUMPDEST PUSH0 PUSH3 0x6D9 PUSH1 0x27 DUP4 PUSH3 0x5A3 JUMP JUMPDEST SWAP2 POP PUSH3 0x6E6 DUP3 PUSH3 0x67D JUMP JUMPDEST PUSH1 0x40 DUP3 ADD SWAP1 POP SWAP2 SWAP1 POP JUMP JUMPDEST PUSH0 PUSH1 0x20 DUP3 ADD SWAP1 POP DUP2 DUP2 SUB PUSH0 DUP4 ADD MSTORE PUSH3 0x70A DUP2 PUSH3 0x6CB JUMP JUMPDEST SWAP1 POP SWAP2 SWAP1 POP JUMP JUMPDEST PUSH32 0x496E76616C69642052574120746F6B656E697A6174696F6E20636F6E74726163 PUSH0 DUP3 ADD MSTORE PUSH32 0x7420616464726573730000000000000000000000000000000000000000000000 PUSH1 0x20 DUP3 ADD MSTORE POP JUMP JUMPDEST PUSH0 PUSH3 0x76D PUSH1 0x29 DUP4 PUSH3 0x5A3 JUMP JUMPDEST SWAP2 POP PUSH3 0x77A DUP3 PUSH3 0x711 JUMP JUMPDEST PUSH1 0x40 DUP3 ADD SWAP1 POP SWAP2 SWAP1 POP JUMP JUMPDEST PUSH0 PUSH1 0x20 DUP3 ADD SWAP1 POP DUP2 DUP2 SUB PUSH0 DUP4 ADD MSTORE PUSH3 0x79E DUP2 PUSH3 0x75F JUMP JUMPDEST SWAP1 POP SWAP2 SWAP1 POP JUMP JUMPDEST PUSH32 0x496E76616C696420706F6F6C2061646472657373000000000000000000000000 PUSH0 DUP3 ADD MSTORE POP JUMP JUMPDEST PUSH0 PUSH3 0x7DB PUSH1 0x14 DUP4 PUSH3 0x5A3 JUMP JUMPDEST SWAP2 POP PUSH3 0x7E8 DUP3 PUSH3 0x7A5 JUMP JUMPDEST PUSH1 0x20 DUP3 ADD SWAP1 POP SWAP2 SWAP1 POP JUMP JUMPDEST PUSH0 PUSH1 0x20 DUP3 ADD SWAP1 POP DUP2 DUP2 SUB PUSH0 DUP4 ADD MSTORE PUSH3 0x80C DUP2 PUSH3 0x7CD JUMP JUMPDEST SWAP1 POP SWAP2 SWAP1 POP JUMP JUMPDEST PUSH3 0x81E DUP2 PUSH3 0x4FC JUMP JUMPDEST DUP3 MSTORE POP POP JUMP JUMPDEST PUSH0 PUSH1 0x40 DUP3 ADD SWAP1 POP PUSH3 0x839 PUSH0 DUP4 ADD DUP6 PUSH3 0x621 JUMP JUMPDEST PUSH3 0x848 PUSH1 0x20 DUP4 ADD DUP5 PUSH3 0x813 JUMP JUMPDEST SWAP4 SWAP3 POP POP POP JUMP JUMPDEST PUSH2 0xB78 DUP1 PUSH3 0x85D PUSH0 CODECOPY PUSH0 RETURN INVALID PUSH1 0x80 PUSH1 0x40 MSTORE CALLVALUE DUP1 ISZERO PUSH2 0xF JUMPI PUSH0 DUP1 REVERT JUMPDEST POP PUSH1 0x4 CALLDATASIZE LT PUSH2 0x60 JUMPI PUSH0 CALLDATALOAD PUSH1 0xE0 SHR DUP1 PUSH4 0x9EEF43E EQ PUSH2 0x64 JUMPI DUP1 PUSH4 0x25FDF6B1 EQ PUSH2 0x94 JUMPI DUP1 PUSH4 0x373058B8 EQ PUSH2 0xB2 JUMPI DUP1 PUSH4 0x4B9F5C98 EQ PUSH2 0xBC JUMPI DUP1 PUSH4 0x753EC103 EQ PUSH2 0xD8 JUMPI DUP1 PUSH4 0xCEBC56AD EQ PUSH2 0xFD JUMPI JUMPDEST PUSH0 DUP1 REVERT JUMPDEST PUSH2 0x7E PUSH1 0x4 DUP1 CALLDATASIZE SUB DUP2 ADD SWAP1 PUSH2 0x79 SWAP2 SWAP1 PUSH2 0x73B JUMP JUMPDEST PUSH2 0x11C JUMP JUMPDEST PUSH1 0x40 MLOAD PUSH2 0x8B SWAP2 SWAP1 PUSH2 0x780 JUMP JUMPDEST PUSH1 0x40 MLOAD DUP1 SWAP2 SUB SWAP1 RETURN JUMPDEST PUSH2 0x9C PUSH2 0x139 JUMP JUMPDEST PUSH1 0x40 MLOAD PUSH2 0xA9 SWAP2 SWAP1 PUSH2 0x7F4 JUMP JUMPDEST PUSH1 0x40 MLOAD DUP1 SWAP2 SUB SWAP1 RETURN JUMPDEST PUSH2 0xBA PUSH2 0x15E JUMP JUMPDEST STOP JUMPDEST PUSH2 0xD6 PUSH1 0x4 DUP1 CALLDATASIZE SUB DUP2 ADD SWAP1 PUSH2 0xD1 SWAP2 SWAP1 PUSH2 0x837 JUMP JUMPDEST PUSH2 0x23B JUMP JUMPDEST STOP JUMPDEST PUSH2 0xE0 PUSH2 0x606 JUMP JUMPDEST PUSH1 0x40 MLOAD PUSH2 0xF4 SWAP9 SWAP8 SWAP7 SWAP6 SWAP5 SWAP4 SWAP3 SWAP2 SWAP1 PUSH2 0x889 JUMP JUMPDEST PUSH1 0x40 MLOAD DUP1 SWAP2 SUB SWAP1 RETURN JUMPDEST PUSH2 0x105 PUSH2 0x6B0 JUMP JUMPDEST PUSH1 0x40 MLOAD PUSH2 0x113 SWAP3 SWAP2 SWAP1 PUSH2 0x905 JUMP JUMPDEST PUSH1 0x40 MLOAD DUP1 SWAP2 SUB SWAP1 RETURN JUMPDEST PUSH1 0x8 PUSH1 0x20 MSTORE DUP1 PUSH0 MSTORE PUSH1 0x40 PUSH0 KECCAK256 PUSH0 SWAP2 POP SLOAD SWAP1 PUSH2 0x100 EXP SWAP1 DIV PUSH1 0xFF AND DUP2 JUMP JUMPDEST PUSH1 0x7 PUSH0 SWAP1 SLOAD SWAP1 PUSH2 0x100 EXP SWAP1 DIV PUSH20 0xFFFFFFFFFFFFFFFFFFFFFFFFFFFFFFFFFFFFFFFF AND DUP2 JUMP JUMPDEST PUSH0 PUSH1 0x6 ADD PUSH0 SWAP1 SLOAD SWAP1 PUSH2 0x100 EXP SWAP1 DIV PUSH1 0xFF AND ISZERO PUSH2 0x1AF JUMPI PUSH1 0x40 MLOAD PUSH32 0x8C379A000000000000000000000000000000000000000000000000000000000 DUP2 MSTORE PUSH1 0x4 ADD PUSH2 0x1A6 SWAP1 PUSH2 0x986 JUMP JUMPDEST PUSH1 0x40 MLOAD DUP1 SWAP2 SUB SWAP1 REVERT JUMPDEST PUSH0 PUSH1 0x5 ADD SLOAD PUSH0 PUSH1 0x4 ADD SLOAD GT PUSH0 PUSH1 0x6 ADD PUSH1 0x1 PUSH2 0x100 EXP DUP2 SLOAD DUP2 PUSH1 0xFF MUL NOT AND SWAP1 DUP4 ISZERO ISZERO MUL OR SWAP1 SSTORE POP PUSH1 0x1 PUSH0 PUSH1 0x6 ADD PUSH0 PUSH2 0x100 EXP DUP2 SLOAD DUP2 PUSH1 0xFF MUL NOT AND SWAP1 DUP4 ISZERO ISZERO MUL OR SWAP1 SSTORE POP PUSH32 0x1D1550E53334F4835142F95E29CB712071F89ECD734DEC7F91CE379CBFF186FA PUSH0 PUSH1 0x6 ADD PUSH1 0x1 SWAP1 SLOAD SWAP1 PUSH2 0x100 EXP SWAP1 DIV PUSH1 0xFF AND PUSH1 0x40 MLOAD PUSH2 0x231 SWAP2 SWAP1 PUSH2 0x780 JUMP JUMPDEST PUSH1 0x40 MLOAD DUP1 SWAP2 SUB SWAP1 LOG1 JUMP JUMPDEST PUSH0 PUSH1 0x7 PUSH0 SWAP1 SLOAD SWAP1 PUSH2 0x100 EXP SWAP1 DIV PUSH20 0xFFFFFFFFFFFFFFFFFFFFFFFFFFFFFFFFFFFFFFFF AND PUSH20 0xFFFFFFFFFFFFFFFFFFFFFFFFFFFFFFFFFFFFFFFF AND PUSH4 0x70A08231 CALLER PUSH1 0x40 MLOAD DUP3 PUSH4 0xFFFFFFFF AND PUSH1 0xE0 SHL DUP2 MSTORE PUSH1 0x4 ADD PUSH2 0x296 SWAP2 SWAP1 PUSH2 0x9A4 JUMP JUMPDEST PUSH1 0x20 PUSH1 0x40 MLOAD DUP1 DUP4 SUB DUP2 DUP7 GAS STATICCALL ISZERO DUP1 ISZERO PUSH2 0x2B1 JUMPI RETURNDATASIZE PUSH0 DUP1 RETURNDATACOPY RETURNDATASIZE PUSH0 REVERT JUMPDEST POP POP POP POP PUSH1 0x40 MLOAD RETURNDATASIZE PUSH1 0x1F NOT PUSH1 0x1F DUP3 ADD AND DUP3 ADD DUP1 PUSH1 0x40 MSTORE POP DUP2 ADD SWAP1 PUSH2 0x2D5 SWAP2 SWAP1 PUSH2 0x9E7 JUMP JUMPDEST GT PUSH2 0x315 JUMPI PUSH1 0x40 MLOAD PUSH32 0x8C379A000000000000000000000000000000000000000000000000000000000 DUP2 MSTORE PUSH1 0x4 ADD PUSH2 0x30C SWAP1 PUSH2 0xA5C JUMP JUMPDEST PUSH1 0x40 MLOAD DUP1 SWAP2 SUB SWAP1 REVERT JUMPDEST PUSH1 0x8 PUSH0 CALLER PUSH20 0xFFFFFFFFFFFFFFFFFFFFFFFFFFFFFFFFFFFFFFFF AND PUSH20 0xFFFFFFFFFFFFFFFFFFFFFFFFFFFFFFFFFFFFFFFF AND DUP2 MSTORE PUSH1 0x20 ADD SWAP1 DUP2 MSTORE PUSH1 0x20 ADD PUSH0 KECCAK256 PUSH0 SWAP1 SLOAD SWAP1 PUSH2 0x100 EXP SWAP1 DIV PUSH1 0xFF AND ISZERO PUSH2 0x39F JUMPI PUSH1 0x40 MLOAD PUSH32 0x8C379A000000000000000000000000000000000000000000000000000000000 DUP2 MSTORE PUSH1 0x4 ADD PUSH2 0x396 SWAP1 PUSH2 0xAC4 JUMP JUMPDEST PUSH1 0x40 MLOAD DUP1 SWAP2 SUB SWAP1 REVERT JUMPDEST PUSH0 PUSH1 0x6 ADD PUSH0 SWAP1 SLOAD SWAP1 PUSH2 0x100 EXP SWAP1 DIV PUSH1 0xFF AND ISZERO PUSH2 0x3F0 JUMPI PUSH1 0x40 MLOAD PUSH32 0x8C379A000000000000000000000000000000000000000000000000000000000 DUP2 MSTORE PUSH1 0x4 ADD PUSH2 0x3E7 SWAP1 PUSH2 0x986 JUMP JUMPDEST PUSH1 0x40 MLOAD DUP1 SWAP2 SUB SWAP1 REVERT JUMPDEST DUP1 ISZERO PUSH2 0x4AD JUMPI PUSH1 0x7 PUSH0 SWAP1 SLOAD SWAP1 PUSH2 0x100 EXP SWAP1 DIV PUSH20 0xFFFFFFFFFFFFFFFFFFFFFFFFFFFFFFFFFFFFFFFF AND PUSH20 0xFFFFFFFFFFFFFFFFFFFFFFFFFFFFFFFFFFFFFFFF AND PUSH4 0x70A08231 CALLER PUSH1 0x40 MLOAD DUP3 PUSH4 0xFFFFFFFF AND PUSH1 0xE0 SHL DUP2 MSTORE PUSH1 0x4 ADD PUSH2 0x450 SWAP2 SWAP1 PUSH2 0x9A4 JUMP JUMPDEST PUSH1 0x20 PUSH1 0x40 MLOAD DUP1 DUP4 SUB DUP2 DUP7 GAS STATICCALL ISZERO DUP1 ISZERO PUSH2 0x46B JUMPI RETURNDATASIZE PUSH0 DUP1 RETURNDATACOPY RETURNDATASIZE PUSH0 REVERT JUMPDEST POP POP POP POP PUSH1 0x40 MLOAD RETURNDATASIZE PUSH1 0x1F NOT PUSH1 0x1F DUP3 ADD AND DUP3 ADD DUP1 PUSH1 0x40 MSTORE POP DUP2 ADD SWAP1 PUSH2 0x48F SWAP2 SWAP1 PUSH2 0x9E7 JUMP JUMPDEST PUSH0 PUSH1 0x4 ADD PUSH0 DUP3 DUP3 SLOAD PUSH2 0x4A1 SWAP2 SWAP1 PUSH2 0xB0F JUMP JUMPDEST SWAP3 POP POP DUP2 SWAP1 SSTORE POP PUSH2 0x560 JUMP JUMPDEST PUSH1 0x7 PUSH0 SWAP1 SLOAD SWAP1 PUSH2 0x100 EXP SWAP1 DIV PUSH20 0xFFFFFFFFFFFFFFFFFFFFFFFFFFFFFFFFFFFFFFFF AND PUSH20 0xFFFFFFFFFFFFFFFFFFFFFFFFFFFFFFFFFFFFFFFF AND PUSH4 0x70A08231 CALLER PUSH1 0x40 MLOAD DUP3 PUSH4 0xFFFFFFFF AND PUSH1 0xE0 SHL DUP2 MSTORE PUSH1 0x4 ADD PUSH2 0x507 SWAP2 SWAP1 PUSH2 0x9A4 JUMP JUMPDEST PUSH1 0x20 PUSH1 0x40 MLOAD DUP1 DUP4 SUB DUP2 DUP7 GAS STATICCALL ISZERO DUP1 ISZERO PUSH2 0x522 JUMPI RETURNDATASIZE PUSH0 DUP1 RETURNDATACOPY RETURNDATASIZE PUSH0 REVERT JUMPDEST POP POP POP POP PUSH1 0x40 MLOAD RETURNDATASIZE PUSH1 0x1F NOT PUSH1 0x1F DUP3 ADD AND DUP3 ADD DUP1 PUSH1 0x40 MSTORE POP DUP2 ADD SWAP1 PUSH2 0x546 SWAP2 SWAP1 PUSH2 0x9E7 JUMP JUMPDEST PUSH0 PUSH1 0x5 ADD PUSH0 DUP3 DUP3 SLOAD PUSH2 0x558 SWAP2 SWAP1 PUSH2 0xB0F JUMP JUMPDEST SWAP3 POP POP DUP2 SWAP1 SSTORE POP JUMPDEST PUSH1 0x1 PUSH1 0x8 PUSH0 CALLER PUSH20 0xFFFFFFFFFFFFFFFFFFFFFFFFFFFFFFFFFFFFFFFF AND PUSH20 0xFFFFFFFFFFFFFFFFFFFFFFFFFFFFFFFFFFFFFFFF AND DUP2 MSTORE PUSH1 0x20 ADD SWAP1 DUP2 MSTORE PUSH1 0x20 ADD PUSH0 KECCAK256 PUSH0 PUSH2 0x100 EXP DUP2 SLOAD DUP2 PUSH1 0xFF MUL NOT AND SWAP1 DUP4 ISZERO ISZERO MUL OR SWAP1 SSTORE POP CALLER PUSH20 0xFFFFFFFFFFFFFFFFFFFFFFFFFFFFFFFFFFFFFFFF AND PUSH32 0x8EB81CB806DBB3D8A2F94981614331A55DFD90E06A42FDC362CA3CA96981D92F DUP3 PUSH1 0x40 MLOAD PUSH2 0x5FB SWAP2 SWAP1 PUSH2 0x780 JUMP JUMPDEST PUSH1 0x40 MLOAD DUP1 SWAP2 SUB SWAP1 LOG2 POP JUMP JUMPDEST PUSH0 DUP1 PUSH0 ADD PUSH0 SWAP1 SLOAD SWAP1 PUSH2 0x100 EXP SWAP1 DIV PUSH20 0xFFFFFFFFFFFFFFFFFFFFFFFFFFFFFFFFFFFFFFFF AND SWAP1 DUP1 PUSH1 0x1 ADD PUSH0 SWAP1 SLOAD SWAP1 PUSH2 0x100 EXP SWAP1 DIV PUSH20 0xFFFFFFFFFFFFFFFFFFFFFFFFFFFFFFFFFFFFFFFF AND SWAP1 DUP1 PUSH1 0x2 ADD PUSH0 SWAP1 SLOAD SWAP1 PUSH2 0x100 EXP SWAP1 DIV PUSH20 0xFFFFFFFFFFFFFFFFFFFFFFFFFFFFFFFFFFFFFFFF AND SWAP1 DUP1 PUSH1 0x3 ADD SLOAD SWAP1 DUP1 PUSH1 0x4 ADD SLOAD SWAP1 DUP1 PUSH1 0x5 ADD SLOAD SWAP1 DUP1 PUSH1 0x6 ADD PUSH0 SWAP1 SLOAD SWAP1 PUSH2 0x100 EXP SWAP1 DIV PUSH1 0xFF AND SWAP1 DUP1 PUSH1 0x6 ADD PUSH1 0x1 SWAP1 SLOAD SWAP1 PUSH2 0x100 EXP SWAP1 DIV PUSH1 0xFF AND SWAP1 POP DUP9 JUMP JUMPDEST PUSH0 DUP1 PUSH0 PUSH1 0x6 ADD PUSH1 0x1 SWAP1 SLOAD SWAP1 PUSH2 0x100 EXP SWAP1 DIV PUSH1 0xFF AND PUSH0 PUSH1 0x6 ADD PUSH0 SWAP1 SLOAD SWAP1 PUSH2 0x100 EXP SWAP1 DIV PUSH1 0xFF AND SWAP2 POP SWAP2 POP SWAP1 SWAP2 JUMP JUMPDEST PUSH0 DUP1 REVERT JUMPDEST PUSH0 PUSH20 0xFFFFFFFFFFFFFFFFFFFFFFFFFFFFFFFFFFFFFFFF DUP3 AND SWAP1 POP SWAP2 SWAP1 POP JUMP JUMPDEST PUSH0 PUSH2 0x70A DUP3 PUSH2 0x6E1 JUMP JUMPDEST SWAP1 POP SWAP2 SWAP1 POP JUMP JUMPDEST PUSH2 0x71A DUP2 PUSH2 0x700 JUMP JUMPDEST DUP2 EQ PUSH2 0x724 JUMPI PUSH0 DUP1 REVERT JUMPDEST POP JUMP JUMPDEST PUSH0 DUP2 CALLDATALOAD SWAP1 POP PUSH2 0x735 DUP2 PUSH2 0x711 JUMP JUMPDEST SWAP3 SWAP2 POP POP JUMP JUMPDEST PUSH0 PUSH1 0x20 DUP3 DUP5 SUB SLT ISZERO PUSH2 0x750 JUMPI PUSH2 0x74F PUSH2 0x6DD JUMP JUMPDEST JUMPDEST PUSH0 PUSH2 0x75D DUP5 DUP3 DUP6 ADD PUSH2 0x727 JUMP JUMPDEST SWAP2 POP POP SWAP3 SWAP2 POP POP JUMP JUMPDEST PUSH0 DUP2 ISZERO ISZERO SWAP1 POP SWAP2 SWAP1 POP JUMP JUMPDEST PUSH2 0x77A DUP2 PUSH2 0x766 JUMP JUMPDEST DUP3 MSTORE POP POP JUMP JUMPDEST PUSH0 PUSH1 0x20 DUP3 ADD SWAP1 POP PUSH2 0x793 PUSH0 DUP4 ADD DUP5 PUSH2 0x771 JUMP JUMPDEST SWAP3 SWAP2 POP POP JUMP JUMPDEST PUSH0 DUP2 SWAP1 POP SWAP2 SWAP1 POP JUMP JUMPDEST PUSH0 PUSH2 0x7BC PUSH2 0x7B7 PUSH2 0x7B2 DUP5 PUSH2 0x6E1 JUMP JUMPDEST PUSH2 0x799 JUMP JUMPDEST PUSH2 0x6E1 JUMP JUMPDEST SWAP1 POP SWAP2 SWAP1 POP JUMP JUMPDEST PUSH0 PUSH2 0x7CD DUP3 PUSH2 0x7A2 JUMP JUMPDEST SWAP1 POP SWAP2 SWAP1 POP JUMP JUMPDEST PUSH0 PUSH2 0x7DE DUP3 PUSH2 0x7C3 JUMP JUMPDEST SWAP1 POP SWAP2 SWAP1 POP JUMP JUMPDEST PUSH2 0x7EE DUP2 PUSH2 0x7D4 JUMP JUMPDEST DUP3 MSTORE POP POP JUMP JUMPDEST PUSH0 PUSH1 0x20 DUP3 ADD SWAP1 POP PUSH2 0x807 PUSH0 DUP4 ADD DUP5 PUSH2 0x7E5 JUMP JUMPDEST SWAP3 SWAP2 POP POP JUMP JUMPDEST PUSH2 0x816 DUP2 PUSH2 0x766 JUMP JUMPDEST DUP2 EQ PUSH2 0x820 JUMPI PUSH0 DUP1 REVERT JUMPDEST POP JUMP JUMPDEST PUSH0 DUP2 CALLDATALOAD SWAP1 POP PUSH2 0x831 DUP2 PUSH2 0x80D JUMP JUMPDEST SWAP3 SWAP2 POP POP JUMP JUMPDEST PUSH0 PUSH1 0x20 DUP3 DUP5 SUB SLT ISZERO PUSH2 0x84C JUMPI PUSH2 0x84B PUSH2 0x6DD JUMP JUMPDEST JUMPDEST PUSH0 PUSH2 0x859 DUP5 DUP3 DUP6 ADD PUSH2 0x823 JUMP JUMPDEST SWAP2 POP POP SWAP3 SWAP2 POP POP JUMP JUMPDEST PUSH2 0x86B DUP2 PUSH2 0x700 JUMP JUMPDEST DUP3 MSTORE POP POP JUMP JUMPDEST PUSH0 DUP2 SWAP1 POP SWAP2 SWAP1 POP JUMP JUMPDEST PUSH2 0x883 DUP2 PUSH2 0x871 JUMP JUMPDEST DUP3 MSTORE POP POP JUMP JUMPDEST PUSH0 PUSH2 0x100 DUP3 ADD SWAP1 POP PUSH2 0x89D PUSH0 DUP4 ADD DUP12 PUSH2 0x862 JUMP JUMPDEST PUSH2 0x8AA PUSH1 0x20 DUP4 ADD DUP11 PUSH2 0x862 JUMP JUMPDEST PUSH2 0x8B7 PUSH1 0x40 DUP4 ADD DUP10 PUSH2 0x862 JUMP JUMPDEST PUSH2 0x8C4 PUSH1 0x60 DUP4 ADD DUP9 PUSH2 0x87A JUMP JUMPDEST PUSH2 0x8D1 PUSH1 0x80 DUP4 ADD DUP8 PUSH2 0x87A JUMP JUMPDEST PUSH2 0x8DE PUSH1 0xA0 DUP4 ADD DUP7 PUSH2 0x87A JUMP JUMPDEST PUSH2 0x8EB PUSH1 0xC0 DUP4 ADD DUP6 PUSH2 0x771 JUMP JUMPDEST PUSH2 0x8F8 PUSH1 0xE0 DUP4 ADD DUP5 PUSH2 0x771 JUMP JUMPDEST SWAP10 SWAP9 POP POP POP POP POP POP POP POP POP JUMP JUMPDEST PUSH0 PUSH1 0x40 DUP3 ADD SWAP1 POP PUSH2 0x918 PUSH0 DUP4 ADD DUP6 PUSH2 0x771 JUMP JUMPDEST PUSH2 0x925 PUSH1 0x20 DUP4 ADD DUP5 PUSH2 0x771 JUMP JUMPDEST SWAP4 SWAP3 POP POP POP JUMP JUMPDEST PUSH0 DUP3 DUP3 MSTORE PUSH1 0x20 DUP3 ADD SWAP1 POP SWAP3 SWAP2 POP POP JUMP JUMPDEST PUSH32 0x50726F706F73616C20616C726561647920657865637574656400000000000000 PUSH0 DUP3 ADD MSTORE POP JUMP JUMPDEST PUSH0 PUSH2 0x970 PUSH1 0x19 DUP4 PUSH2 0x92C JUMP JUMPDEST SWAP2 POP PUSH2 0x97B DUP3 PUSH2 0x93C JUMP JUMPDEST PUSH1 0x20 DUP3 ADD SWAP1 POP SWAP2 SWAP1 POP JUMP JUMPDEST PUSH0 PUSH1 0x20 DUP3 ADD SWAP1 POP DUP2 DUP2 SUB PUSH0 DUP4 ADD MSTORE PUSH2 0x99D DUP2 PUSH2 0x964 JUMP JUMPDEST SWAP1 POP SWAP2 SWAP1 POP JUMP JUMPDEST PUSH0 PUSH1 0x20 DUP3 ADD SWAP1 POP PUSH2 0x9B7 PUSH0 DUP4 ADD DUP5 PUSH2 0x862 JUMP JUMPDEST SWAP3 SWAP2 POP POP JUMP JUMPDEST PUSH2 0x9C6 DUP2 PUSH2 0x871 JUMP JUMPDEST DUP2 EQ PUSH2 0x9D0 JUMPI PUSH0 DUP1 REVERT JUMPDEST POP JUMP JUMPDEST PUSH0 DUP2 MLOAD SWAP1 POP PUSH2 0x9E1 DUP2 PUSH2 0x9BD JUMP JUMPDEST SWAP3 SWAP2 POP POP JUMP JUMPDEST PUSH0 PUSH1 0x20 DUP3 DUP5 SUB SLT ISZERO PUSH2 0x9FC JUMPI PUSH2 0x9FB PUSH2 0x6DD JUMP JUMPDEST JUMPDEST PUSH0 PUSH2 0xA09 DUP5 DUP3 DUP6 ADD PUSH2 0x9D3 JUMP JUMPDEST SWAP2 POP POP SWAP3 SWAP2 POP POP JUMP JUMPDEST PUSH32 0x4E6F74206120746F6B656E20686F6C6465720000000000000000000000000000 PUSH0 DUP3 ADD MSTORE POP JUMP JUMPDEST PUSH0 PUSH2 0xA46 PUSH1 0x12 DUP4 PUSH2 0x92C JUMP JUMPDEST SWAP2 POP PUSH2 0xA51 DUP3 PUSH2 0xA12 JUMP JUMPDEST PUSH1 0x20 DUP3 ADD SWAP1 POP SWAP2 SWAP1 POP JUMP JUMPDEST PUSH0 PUSH1 0x20 DUP3 ADD SWAP1 POP DUP2 DUP2 SUB PUSH0 DUP4 ADD MSTORE PUSH2 0xA73 DUP2 PUSH2 0xA3A JUMP JUMPDEST SWAP1 POP SWAP2 SWAP1 POP JUMP JUMPDEST PUSH32 0x416C726561647920766F74656400000000000000000000000000000000000000 PUSH0 DUP3 ADD MSTORE POP JUMP JUMPDEST PUSH0 PUSH2 0xAAE PUSH1 0xD DUP4 PUSH2 0x92C JUMP JUMPDEST SWAP2 POP PUSH2 0xAB9 DUP3 PUSH2 0xA7A JUMP JUMPDEST PUSH1 0x20 DUP3 ADD SWAP1 POP SWAP2 SWAP1 POP JUMP JUMPDEST PUSH0 PUSH1 0x20 DUP3 ADD SWAP1 POP DUP2 DUP2 SUB PUSH0 DUP4 ADD MSTORE PUSH2 0xADB DUP2 PUSH2 0xAA2 JUMP JUMPDEST SWAP1 POP SWAP2 SWAP1 POP JUMP JUMPDEST PUSH32 0x4E487B7100000000000000000000000000000000000000000000000000000000 PUSH0 MSTORE PUSH1 0x11 PUSH1 0x4 MSTORE PUSH1 0x24 PUSH0 REVERT JUMPDEST PUSH0 PUSH2 0xB19 DUP3 PUSH2 0x871 JUMP JUMPDEST SWAP2 POP PUSH2 0xB24 DUP4 PUSH2 0x871 JUMP JUMPDEST SWAP3 POP DUP3 DUP3 ADD SWAP1 POP DUP1 DUP3 GT ISZERO PUSH2 0xB3C JUMPI PUSH2 0xB3B PUSH2 0xAE2 JUMP JUMPDEST JUMPDEST SWAP3 SWAP2 POP POP JUMP INVALID LOG2 PUSH5 0x6970667358 0x22 SLT KECCAK256 DUP9 NUMBER 0x21 0x2D 0x2A SSTORE GT SMOD LOG2 0x2D DUP14 0xAA JUMPDEST 0xB2 0xB6 DUP3 PUSH29 0xC2D6AA09D2E4766CD1EFFF6371CB7D64736F6C63430008180033000000 "
				},
				"gasEstimates": {
					"creation": {
						"codeDepositCost": "587200",
						"executionCost": "infinite",
						"totalCost": "infinite"
					},
					"external": {
						"executeProposal()": "58519",
						"getProposalOutcome()": "infinite",
						"hasVoted(address)": "2811",
						"proposal()": "infinite",
						"rwaTokenizationContract()": "infinite",
						"vote(bool)": "infinite"
					}
				},
				"methodIdentifiers": {
					"executeProposal()": "373058b8",
					"getProposalOutcome()": "cebc56ad",
					"hasVoted(address)": "09eef43e",
					"proposal()": "753ec103",
					"rwaTokenizationContract()": "25fdf6b1",
					"vote(bool)": "4b9f5c98"
				}
			},
			"storageLayout": {
				"storage": [
					{
						"astId": 35,
						"contract": "aquo/aquodao.sol:DAO",
						"label": "proposal",
						"offset": 0,
						"slot": "0",
						"type": "t_struct(Proposal)32_storage"
					},
					{
						"astId": 38,
						"contract": "aquo/aquodao.sol:DAO",
						"label": "rwaTokenizationContract",
						"offset": 0,
						"slot": "7",
						"type": "t_contract(IRWATokenization)15"
					},
					{
						"astId": 42,
						"contract": "aquo/aquodao.sol:DAO",
						"label": "hasVoted",
						"offset": 0,
						"slot": "8",
						"type": "t_mapping(t_address,t_bool)"
					}
				],
				"types": {
					"t_address": {
						"encoding": "inplace",
						"label": "address",
						"numberOfBytes": "20"
					},
					"t_bool": {
						"encoding": "inplace",
						"label": "bool",
						"numberOfBytes": "1"
					},
					"t_contract(IRWATokenization)15": {
						"encoding": "inplace",
						"label": "contract IRWATokenization",
						"numberOfBytes": "20"
					},
					"t_mapping(t_address,t_bool)": {
						"encoding": "mapping",
						"key": "t_address",
						"label": "mapping(address => bool)",
						"numberOfBytes": "32",
						"value": "t_bool"
					},
					"t_struct(Proposal)32_storage": {
						"encoding": "inplace",
						"label": "struct DAO.Proposal",
						"members": [
							{
								"astId": 17,
								"contract": "aquo/aquodao.sol:DAO",
								"label": "proposer",
								"offset": 0,
								"slot": "0",
								"type": "t_address"
							},
							{
								"astId": 19,
								"contract": "aquo/aquodao.sol:DAO",
								"label": "poolAddress",
								"offset": 0,
								"slot": "1",
								"type": "t_address"
							},
							{
								"astId": 21,
								"contract": "aquo/aquodao.sol:DAO",
								"label": "rwaContract",
								"offset": 0,
								"slot": "2",
								"type": "t_address"
							},
							{
								"astId": 23,
								"contract": "aquo/aquodao.sol:DAO",
								"label": "dilution",
								"offset": 0,
								"slot": "3",
								"type": "t_uint256"
							},
							{
								"astId": 25,
								"contract": "aquo/aquodao.sol:DAO",
								"label": "yesVotes",
								"offset": 0,
								"slot": "4",
								"type": "t_uint256"
							},
							{
								"astId": 27,
								"contract": "aquo/aquodao.sol:DAO",
								"label": "noVotes",
								"offset": 0,
								"slot": "5",
								"type": "t_uint256"
							},
							{
								"astId": 29,
								"contract": "aquo/aquodao.sol:DAO",
								"label": "executed",
								"offset": 0,
								"slot": "6",
								"type": "t_bool"
							},
							{
								"astId": 31,
								"contract": "aquo/aquodao.sol:DAO",
								"label": "outcome",
								"offset": 1,
								"slot": "6",
								"type": "t_bool"
							}
						],
						"numberOfBytes": "224"
					},
					"t_uint256": {
						"encoding": "inplace",
						"label": "uint256",
						"numberOfBytes": "32"
					}
				}
			},
			"userdoc": {
				"kind": "user",
				"methods": {},
				"version": 1
			}
		}
	}
}