{
	"aquo/AquoAssetTransferv3.sol": {
		"AssetContract": {
			"abi": [
				{
					"inputs": [
						{
							"internalType": "uint256",
							"name": "_initialShares",
							"type": "uint256"
						},
						{
							"internalType": "address",
							"name": "_owner",
							"type": "address"
						}
					],
					"stateMutability": "nonpayable",
					"type": "constructor"
				},
				{
					"inputs": [
						{
							"internalType": "address",
							"name": "_user",
							"type": "address"
						}
					],
					"name": "balanceOf",
					"outputs": [
						{
							"internalType": "uint256",
							"name": "",
							"type": "uint256"
						}
					],
					"stateMutability": "view",
					"type": "function"
				},
				{
					"inputs": [],
					"name": "getHolders",
					"outputs": [
						{
							"components": [
								{
									"internalType": "address",
									"name": "addr",
									"type": "address"
								},
								{
									"internalType": "uint256",
									"name": "balance",
									"type": "uint256"
								}
							],
							"internalType": "struct AssetContract.Holder[]",
							"name": "",
							"type": "tuple[]"
						}
					],
					"stateMutability": "view",
					"type": "function"
				},
				{
					"inputs": [],
					"name": "owner",
					"outputs": [
						{
							"internalType": "address",
							"name": "",
							"type": "address"
						}
					],
					"stateMutability": "view",
					"type": "function"
				},
				{
					"inputs": [
						{
							"internalType": "address",
							"name": "_to",
							"type": "address"
						},
						{
							"internalType": "uint256",
							"name": "_amount",
							"type": "uint256"
						}
					],
					"name": "transferShares",
					"outputs": [],
					"stateMutability": "nonpayable",
					"type": "function"
				}
			],
			"devdoc": {
				"kind": "dev",
				"methods": {},
				"version": 1
			},
			"evm": {
				"assembly": "    /* \"aquo/AquoAssetTransferv3.sol\":61:1609  contract AssetContract {... */\n  mstore(0x40, 0x80)\n    /* \"aquo/AquoAssetTransferv3.sol\":494:714  constructor(uint256 _initialShares, address _owner) {... */\n  callvalue\n  dup1\n  iszero\n  tag_1\n  jumpi\n  0x00\n  dup1\n  revert\ntag_1:\n  pop\n  mload(0x40)\n  sub(codesize, bytecodeSize)\n  dup1\n  bytecodeSize\n  dup4\n  codecopy\n  dup2\n  dup2\n  add\n  0x40\n  mstore\n  dup2\n  add\n  swap1\n  tag_2\n  swap2\n  swap1\n  tag_3\n  jump\t// in\ntag_2:\n    /* \"aquo/AquoAssetTransferv3.sol\":565:571  _owner */\n  dup1\n    /* \"aquo/AquoAssetTransferv3.sol\":557:562  owner */\n  0x00\n  dup1\n    /* \"aquo/AquoAssetTransferv3.sol\":557:571  owner = _owner */\n  0x0100\n  exp\n  dup2\n  sload\n  dup2\n  0xffffffffffffffffffffffffffffffffffffffff\n  mul\n  not\n  and\n  swap1\n  dup4\n  0xffffffffffffffffffffffffffffffffffffffff\n  and\n  mul\n  or\n  swap1\n  sstore\n  pop\n    /* \"aquo/AquoAssetTransferv3.sol\":606:620  _initialShares */\n  dup2\n    /* \"aquo/AquoAssetTransferv3.sol\":582:595  shareBalances */\n  0x01\n    /* \"aquo/AquoAssetTransferv3.sol\":582:603  shareBalances[_owner] */\n  0x00\n    /* \"aquo/AquoAssetTransferv3.sol\":596:602  _owner */\n  dup4\n    /* \"aquo/AquoAssetTransferv3.sol\":582:603  shareBalances[_owner] */\n  0xffffffffffffffffffffffffffffffffffffffff\n  and\n  0xffffffffffffffffffffffffffffffffffffffff\n  and\n  dup2\n  mstore\n  0x20\n  add\n  swap1\n  dup2\n  mstore\n  0x20\n  add\n  0x00\n  keccak256\n    /* \"aquo/AquoAssetTransferv3.sol\":582:620  shareBalances[_owner] = _initialShares */\n  dup2\n  swap1\n  sstore\n  pop\n    /* \"aquo/AquoAssetTransferv3.sol\":631:646  holderAddresses */\n  0x02\n    /* \"aquo/AquoAssetTransferv3.sol\":652:658  _owner */\n  dup2\n    /* \"aquo/AquoAssetTransferv3.sol\":631:659  holderAddresses.push(_owner) */\n  swap1\n  dup1\n  0x01\n  dup2\n  sload\n  add\n  dup1\n  dup3\n  sstore\n  dup1\n  swap2\n  pop\n  pop\n  0x01\n  swap1\n  sub\n  swap1\n  0x00\n  mstore\n  keccak256(0x00, 0x20)\n  add\n  0x00\n  swap1\n  swap2\n  swap1\n  swap2\n  swap1\n  swap2\n  0x0100\n  exp\n  dup2\n  sload\n  dup2\n  0xffffffffffffffffffffffffffffffffffffffff\n  mul\n  not\n  and\n  swap1\n  dup4\n  0xffffffffffffffffffffffffffffffffffffffff\n  and\n  mul\n  or\n  swap1\n  sstore\n  pop\n    /* \"aquo/AquoAssetTransferv3.sol\":494:714  constructor(uint256 _initialShares, address _owner) {... */\n  pop\n  pop\n    /* \"aquo/AquoAssetTransferv3.sol\":61:1609  contract AssetContract {... */\n  jump(tag_7)\n    /* \"#utility.yul\":88:205   */\ntag_9:\n    /* \"#utility.yul\":197:198   */\n  0x00\n    /* \"#utility.yul\":194:195   */\n  dup1\n    /* \"#utility.yul\":187:199   */\n  revert\n    /* \"#utility.yul\":334:411   */\ntag_11:\n    /* \"#utility.yul\":371:378   */\n  0x00\n    /* \"#utility.yul\":400:405   */\n  dup2\n    /* \"#utility.yul\":389:405   */\n  swap1\n  pop\n    /* \"#utility.yul\":334:411   */\n  swap2\n  swap1\n  pop\n  jump\t// out\n    /* \"#utility.yul\":417:539   */\ntag_12:\n    /* \"#utility.yul\":490:514   */\n  tag_24\n    /* \"#utility.yul\":508:513   */\n  dup2\n    /* \"#utility.yul\":490:514   */\n  tag_11\n  jump\t// in\ntag_24:\n    /* \"#utility.yul\":483:488   */\n  dup2\n    /* \"#utility.yul\":480:515   */\n  eq\n    /* \"#utility.yul\":470:533   */\n  tag_25\n  jumpi\n    /* \"#utility.yul\":529:530   */\n  0x00\n    /* \"#utility.yul\":526:527   */\n  dup1\n    /* \"#utility.yul\":519:531   */\n  revert\n    /* \"#utility.yul\":470:533   */\ntag_25:\n    /* \"#utility.yul\":417:539   */\n  pop\n  jump\t// out\n    /* \"#utility.yul\":545:688   */\ntag_13:\n    /* \"#utility.yul\":602:607   */\n  0x00\n    /* \"#utility.yul\":633:639   */\n  dup2\n    /* \"#utility.yul\":627:640   */\n  mload\n    /* \"#utility.yul\":618:640   */\n  swap1\n  pop\n    /* \"#utility.yul\":649:682   */\n  tag_27\n    /* \"#utility.yul\":676:681   */\n  dup2\n    /* \"#utility.yul\":649:682   */\n  tag_12\n  jump\t// in\ntag_27:\n    /* \"#utility.yul\":545:688   */\n  swap3\n  swap2\n  pop\n  pop\n  jump\t// out\n    /* \"#utility.yul\":694:820   */\ntag_14:\n    /* \"#utility.yul\":731:738   */\n  0x00\n    /* \"#utility.yul\":771:813   */\n  0xffffffffffffffffffffffffffffffffffffffff\n    /* \"#utility.yul\":764:769   */\n  dup3\n    /* \"#utility.yul\":760:814   */\n  and\n    /* \"#utility.yul\":749:814   */\n  swap1\n  pop\n    /* \"#utility.yul\":694:820   */\n  swap2\n  swap1\n  pop\n  jump\t// out\n    /* \"#utility.yul\":826:922   */\ntag_15:\n    /* \"#utility.yul\":863:870   */\n  0x00\n    /* \"#utility.yul\":892:916   */\n  tag_30\n    /* \"#utility.yul\":910:915   */\n  dup3\n    /* \"#utility.yul\":892:916   */\n  tag_14\n  jump\t// in\ntag_30:\n    /* \"#utility.yul\":881:916   */\n  swap1\n  pop\n    /* \"#utility.yul\":826:922   */\n  swap2\n  swap1\n  pop\n  jump\t// out\n    /* \"#utility.yul\":928:1050   */\ntag_16:\n    /* \"#utility.yul\":1001:1025   */\n  tag_32\n    /* \"#utility.yul\":1019:1024   */\n  dup2\n    /* \"#utility.yul\":1001:1025   */\n  tag_15\n  jump\t// in\ntag_32:\n    /* \"#utility.yul\":994:999   */\n  dup2\n    /* \"#utility.yul\":991:1026   */\n  eq\n    /* \"#utility.yul\":981:1044   */\n  tag_33\n  jumpi\n    /* \"#utility.yul\":1040:1041   */\n  0x00\n    /* \"#utility.yul\":1037:1038   */\n  dup1\n    /* \"#utility.yul\":1030:1042   */\n  revert\n    /* \"#utility.yul\":981:1044   */\ntag_33:\n    /* \"#utility.yul\":928:1050   */\n  pop\n  jump\t// out\n    /* \"#utility.yul\":1056:1199   */\ntag_17:\n    /* \"#utility.yul\":1113:1118   */\n  0x00\n    /* \"#utility.yul\":1144:1150   */\n  dup2\n    /* \"#utility.yul\":1138:1151   */\n  mload\n    /* \"#utility.yul\":1129:1151   */\n  swap1\n  pop\n    /* \"#utility.yul\":1160:1193   */\n  tag_35\n    /* \"#utility.yul\":1187:1192   */\n  dup2\n    /* \"#utility.yul\":1160:1193   */\n  tag_16\n  jump\t// in\ntag_35:\n    /* \"#utility.yul\":1056:1199   */\n  swap3\n  swap2\n  pop\n  pop\n  jump\t// out\n    /* \"#utility.yul\":1205:1712   */\ntag_3:\n    /* \"#utility.yul\":1284:1290   */\n  0x00\n    /* \"#utility.yul\":1292:1298   */\n  dup1\n    /* \"#utility.yul\":1341:1343   */\n  0x40\n    /* \"#utility.yul\":1329:1338   */\n  dup4\n    /* \"#utility.yul\":1320:1327   */\n  dup6\n    /* \"#utility.yul\":1316:1339   */\n  sub\n    /* \"#utility.yul\":1312:1344   */\n  slt\n    /* \"#utility.yul\":1309:1428   */\n  iszero\n  tag_37\n  jumpi\n    /* \"#utility.yul\":1347:1426   */\n  tag_38\n  tag_9\n  jump\t// in\ntag_38:\n    /* \"#utility.yul\":1309:1428   */\ntag_37:\n    /* \"#utility.yul\":1467:1468   */\n  0x00\n    /* \"#utility.yul\":1492:1556   */\n  tag_39\n    /* \"#utility.yul\":1548:1555   */\n  dup6\n    /* \"#utility.yul\":1539:1545   */\n  dup3\n    /* \"#utility.yul\":1528:1537   */\n  dup7\n    /* \"#utility.yul\":1524:1546   */\n  add\n    /* \"#utility.yul\":1492:1556   */\n  tag_13\n  jump\t// in\ntag_39:\n    /* \"#utility.yul\":1482:1556   */\n  swap3\n  pop\n    /* \"#utility.yul\":1438:1566   */\n  pop\n    /* \"#utility.yul\":1605:1607   */\n  0x20\n    /* \"#utility.yul\":1631:1695   */\n  tag_40\n    /* \"#utility.yul\":1687:1694   */\n  dup6\n    /* \"#utility.yul\":1678:1684   */\n  dup3\n    /* \"#utility.yul\":1667:1676   */\n  dup7\n    /* \"#utility.yul\":1663:1685   */\n  add\n    /* \"#utility.yul\":1631:1695   */\n  tag_17\n  jump\t// in\ntag_40:\n    /* \"#utility.yul\":1621:1695   */\n  swap2\n  pop\n    /* \"#utility.yul\":1576:1705   */\n  pop\n    /* \"#utility.yul\":1205:1712   */\n  swap3\n  pop\n  swap3\n  swap1\n  pop\n  jump\t// out\n    /* \"aquo/AquoAssetTransferv3.sol\":61:1609  contract AssetContract {... */\ntag_7:\n  dataSize(sub_0)\n  dup1\n  dataOffset(sub_0)\n  0x00\n  codecopy\n  0x00\n  return\nstop\n\nsub_0: assembly {\n        /* \"aquo/AquoAssetTransferv3.sol\":61:1609  contract AssetContract {... */\n      mstore(0x40, 0x80)\n      callvalue\n      dup1\n      iszero\n      tag_1\n      jumpi\n      0x00\n      dup1\n      revert\n    tag_1:\n      pop\n      jumpi(tag_2, lt(calldatasize, 0x04))\n      shr(0xe0, calldataload(0x00))\n      dup1\n      0x5fe8e7cc\n      eq\n      tag_3\n      jumpi\n      dup1\n      0x70a08231\n      eq\n      tag_4\n      jumpi\n      dup1\n      0x8da5cb5b\n      eq\n      tag_5\n      jumpi\n      dup1\n      0x8fcb4e5b\n      eq\n      tag_6\n      jumpi\n    tag_2:\n      0x00\n      dup1\n      revert\n        /* \"aquo/AquoAssetTransferv3.sol\":1276:1606  function getHolders() public view returns (Holder[] memory) {... */\n    tag_3:\n      tag_7\n      tag_8\n      jump\t// in\n    tag_7:\n      mload(0x40)\n      tag_9\n      swap2\n      swap1\n      tag_10\n      jump\t// in\n    tag_9:\n      mload(0x40)\n      dup1\n      swap2\n      sub\n      swap1\n      return\n        /* \"aquo/AquoAssetTransferv3.sol\":722:832  function balanceOf(address _user) public view returns (uint256) {... */\n    tag_4:\n      tag_11\n      0x04\n      dup1\n      calldatasize\n      sub\n      dup2\n      add\n      swap1\n      tag_12\n      swap2\n      swap1\n      tag_13\n      jump\t// in\n    tag_12:\n      tag_14\n      jump\t// in\n    tag_11:\n      mload(0x40)\n      tag_15\n      swap2\n      swap1\n      tag_16\n      jump\t// in\n    tag_15:\n      mload(0x40)\n      dup1\n      swap2\n      sub\n      swap1\n      return\n        /* \"aquo/AquoAssetTransferv3.sol\":91:111  address public owner */\n    tag_5:\n      tag_17\n      tag_18\n      jump\t// in\n    tag_17:\n      mload(0x40)\n      tag_19\n      swap2\n      swap1\n      tag_20\n      jump\t// in\n    tag_19:\n      mload(0x40)\n      dup1\n      swap2\n      sub\n      swap1\n      return\n        /* \"aquo/AquoAssetTransferv3.sol\":840:1268  function transferShares(address _to, uint256 _amount) public {... */\n    tag_6:\n      tag_21\n      0x04\n      dup1\n      calldatasize\n      sub\n      dup2\n      add\n      swap1\n      tag_22\n      swap2\n      swap1\n      tag_23\n      jump\t// in\n    tag_22:\n      tag_24\n      jump\t// in\n    tag_21:\n      stop\n        /* \"aquo/AquoAssetTransferv3.sol\":1276:1606  function getHolders() public view returns (Holder[] memory) {... */\n    tag_8:\n        /* \"aquo/AquoAssetTransferv3.sol\":1319:1334  Holder[] memory */\n      0x60\n        /* \"aquo/AquoAssetTransferv3.sol\":1347:1370  Holder[] memory holders */\n      0x00\n        /* \"aquo/AquoAssetTransferv3.sol\":1386:1401  holderAddresses */\n      0x02\n        /* \"aquo/AquoAssetTransferv3.sol\":1386:1408  holderAddresses.length */\n      dup1\n      sload\n      swap1\n      pop\n        /* \"aquo/AquoAssetTransferv3.sol\":1373:1409  new Holder[](holderAddresses.length) */\n      0xffffffffffffffff\n      dup2\n      gt\n      iszero\n      tag_26\n      jumpi\n      tag_27\n      tag_28\n      jump\t// in\n    tag_27:\n    tag_26:\n      mload(0x40)\n      swap1\n      dup1\n      dup3\n      mstore\n      dup1\n      0x20\n      mul\n      0x20\n      add\n      dup3\n      add\n      0x40\n      mstore\n      dup1\n      iszero\n      tag_29\n      jumpi\n      dup2\n      0x20\n      add\n    tag_30:\n      tag_31\n      tag_32\n      jump\t// in\n    tag_31:\n      dup2\n      mstore\n      0x20\n      add\n      swap1\n      0x01\n      swap1\n      sub\n      swap1\n      dup2\n      tag_30\n      jumpi\n      swap1\n      pop\n    tag_29:\n      pop\n        /* \"aquo/AquoAssetTransferv3.sol\":1347:1409  Holder[] memory holders = new Holder[](holderAddresses.length) */\n      swap1\n      pop\n        /* \"aquo/AquoAssetTransferv3.sol\":1425:1434  uint256 i */\n      0x00\n        /* \"aquo/AquoAssetTransferv3.sol\":1420:1574  for (uint256 i = 0; i < holderAddresses.length; i++) {... */\n    tag_33:\n        /* \"aquo/AquoAssetTransferv3.sol\":1444:1459  holderAddresses */\n      0x02\n        /* \"aquo/AquoAssetTransferv3.sol\":1444:1466  holderAddresses.length */\n      dup1\n      sload\n      swap1\n      pop\n        /* \"aquo/AquoAssetTransferv3.sol\":1440:1441  i */\n      dup2\n        /* \"aquo/AquoAssetTransferv3.sol\":1440:1466  i < holderAddresses.length */\n      lt\n        /* \"aquo/AquoAssetTransferv3.sol\":1420:1574  for (uint256 i = 0; i < holderAddresses.length; i++) {... */\n      iszero\n      tag_34\n      jumpi\n        /* \"aquo/AquoAssetTransferv3.sol\":1501:1562  Holder(holderAddresses[i], shareBalances[holderAddresses[i]]) */\n      mload(0x40)\n      dup1\n      0x40\n      add\n      0x40\n      mstore\n      dup1\n        /* \"aquo/AquoAssetTransferv3.sol\":1508:1523  holderAddresses */\n      0x02\n        /* \"aquo/AquoAssetTransferv3.sol\":1524:1525  i */\n      dup4\n        /* \"aquo/AquoAssetTransferv3.sol\":1508:1526  holderAddresses[i] */\n      dup2\n      sload\n      dup2\n      lt\n      tag_36\n      jumpi\n      tag_37\n      tag_38\n      jump\t// in\n    tag_37:\n    tag_36:\n      swap1\n      0x00\n      mstore\n      keccak256(0x00, 0x20)\n      add\n      0x00\n      swap1\n      sload\n      swap1\n      0x0100\n      exp\n      swap1\n      div\n      0xffffffffffffffffffffffffffffffffffffffff\n      and\n        /* \"aquo/AquoAssetTransferv3.sol\":1501:1562  Holder(holderAddresses[i], shareBalances[holderAddresses[i]]) */\n      0xffffffffffffffffffffffffffffffffffffffff\n      and\n      dup2\n      mstore\n      0x20\n      add\n        /* \"aquo/AquoAssetTransferv3.sol\":1528:1541  shareBalances */\n      0x01\n        /* \"aquo/AquoAssetTransferv3.sol\":1528:1561  shareBalances[holderAddresses[i]] */\n      0x00\n        /* \"aquo/AquoAssetTransferv3.sol\":1542:1557  holderAddresses */\n      0x02\n        /* \"aquo/AquoAssetTransferv3.sol\":1558:1559  i */\n      dup6\n        /* \"aquo/AquoAssetTransferv3.sol\":1542:1560  holderAddresses[i] */\n      dup2\n      sload\n      dup2\n      lt\n      tag_40\n      jumpi\n      tag_41\n      tag_38\n      jump\t// in\n    tag_41:\n    tag_40:\n      swap1\n      0x00\n      mstore\n      keccak256(0x00, 0x20)\n      add\n      0x00\n      swap1\n      sload\n      swap1\n      0x0100\n      exp\n      swap1\n      div\n      0xffffffffffffffffffffffffffffffffffffffff\n      and\n        /* \"aquo/AquoAssetTransferv3.sol\":1528:1561  shareBalances[holderAddresses[i]] */\n      0xffffffffffffffffffffffffffffffffffffffff\n      and\n      0xffffffffffffffffffffffffffffffffffffffff\n      and\n      dup2\n      mstore\n      0x20\n      add\n      swap1\n      dup2\n      mstore\n      0x20\n      add\n      0x00\n      keccak256\n      sload\n        /* \"aquo/AquoAssetTransferv3.sol\":1501:1562  Holder(holderAddresses[i], shareBalances[holderAddresses[i]]) */\n      dup2\n      mstore\n      pop\n        /* \"aquo/AquoAssetTransferv3.sol\":1488:1495  holders */\n      dup3\n        /* \"aquo/AquoAssetTransferv3.sol\":1496:1497  i */\n      dup3\n        /* \"aquo/AquoAssetTransferv3.sol\":1488:1498  holders[i] */\n      dup2\n      mload\n      dup2\n      lt\n      tag_43\n      jumpi\n      tag_44\n      tag_38\n      jump\t// in\n    tag_44:\n    tag_43:\n      0x20\n      mul\n      0x20\n      add\n      add\n        /* \"aquo/AquoAssetTransferv3.sol\":1488:1562  holders[i] = Holder(holderAddresses[i], shareBalances[holderAddresses[i]]) */\n      dup2\n      swap1\n      mstore\n      pop\n        /* \"aquo/AquoAssetTransferv3.sol\":1468:1471  i++ */\n      dup1\n      dup1\n      0x01\n      add\n      swap2\n      pop\n      pop\n        /* \"aquo/AquoAssetTransferv3.sol\":1420:1574  for (uint256 i = 0; i < holderAddresses.length; i++) {... */\n      jump(tag_33)\n    tag_34:\n      pop\n        /* \"aquo/AquoAssetTransferv3.sol\":1591:1598  holders */\n      dup1\n        /* \"aquo/AquoAssetTransferv3.sol\":1584:1598  return holders */\n      swap2\n      pop\n      pop\n        /* \"aquo/AquoAssetTransferv3.sol\":1276:1606  function getHolders() public view returns (Holder[] memory) {... */\n      swap1\n      jump\t// out\n        /* \"aquo/AquoAssetTransferv3.sol\":722:832  function balanceOf(address _user) public view returns (uint256) {... */\n    tag_14:\n        /* \"aquo/AquoAssetTransferv3.sol\":777:784  uint256 */\n      0x00\n        /* \"aquo/AquoAssetTransferv3.sol\":804:817  shareBalances */\n      0x01\n        /* \"aquo/AquoAssetTransferv3.sol\":804:824  shareBalances[_user] */\n      0x00\n        /* \"aquo/AquoAssetTransferv3.sol\":818:823  _user */\n      dup4\n        /* \"aquo/AquoAssetTransferv3.sol\":804:824  shareBalances[_user] */\n      0xffffffffffffffffffffffffffffffffffffffff\n      and\n      0xffffffffffffffffffffffffffffffffffffffff\n      and\n      dup2\n      mstore\n      0x20\n      add\n      swap1\n      dup2\n      mstore\n      0x20\n      add\n      0x00\n      keccak256\n      sload\n        /* \"aquo/AquoAssetTransferv3.sol\":797:824  return shareBalances[_user] */\n      swap1\n      pop\n        /* \"aquo/AquoAssetTransferv3.sol\":722:832  function balanceOf(address _user) public view returns (uint256) {... */\n      swap2\n      swap1\n      pop\n      jump\t// out\n        /* \"aquo/AquoAssetTransferv3.sol\":91:111  address public owner */\n    tag_18:\n      0x00\n      dup1\n      sload\n      swap1\n      0x0100\n      exp\n      swap1\n      div\n      0xffffffffffffffffffffffffffffffffffffffff\n      and\n      dup2\n      jump\t// out\n        /* \"aquo/AquoAssetTransferv3.sol\":840:1268  function transferShares(address _to, uint256 _amount) public {... */\n    tag_24:\n        /* \"aquo/AquoAssetTransferv3.sol\":949:956  _amount */\n      dup1\n        /* \"aquo/AquoAssetTransferv3.sol\":920:933  shareBalances */\n      0x01\n        /* \"aquo/AquoAssetTransferv3.sol\":920:945  shareBalances[msg.sender] */\n      0x00\n        /* \"aquo/AquoAssetTransferv3.sol\":934:944  msg.sender */\n      caller\n        /* \"aquo/AquoAssetTransferv3.sol\":920:945  shareBalances[msg.sender] */\n      0xffffffffffffffffffffffffffffffffffffffff\n      and\n      0xffffffffffffffffffffffffffffffffffffffff\n      and\n      dup2\n      mstore\n      0x20\n      add\n      swap1\n      dup2\n      mstore\n      0x20\n      add\n      0x00\n      keccak256\n      sload\n        /* \"aquo/AquoAssetTransferv3.sol\":920:956  shareBalances[msg.sender] >= _amount */\n      lt\n      iszero\n        /* \"aquo/AquoAssetTransferv3.sol\":912:980  require(shareBalances[msg.sender] >= _amount, \"Insufficient shares\") */\n      tag_47\n      jumpi\n      mload(0x40)\n      0x08c379a000000000000000000000000000000000000000000000000000000000\n      dup2\n      mstore\n      0x04\n      add\n      tag_48\n      swap1\n      tag_49\n      jump\t// in\n    tag_48:\n      mload(0x40)\n      dup1\n      swap2\n      sub\n      swap1\n      revert\n    tag_47:\n        /* \"aquo/AquoAssetTransferv3.sol\":1020:1027  _amount */\n      dup1\n        /* \"aquo/AquoAssetTransferv3.sol\":991:1004  shareBalances */\n      0x01\n        /* \"aquo/AquoAssetTransferv3.sol\":991:1016  shareBalances[msg.sender] */\n      0x00\n        /* \"aquo/AquoAssetTransferv3.sol\":1005:1015  msg.sender */\n      caller\n        /* \"aquo/AquoAssetTransferv3.sol\":991:1016  shareBalances[msg.sender] */\n      0xffffffffffffffffffffffffffffffffffffffff\n      and\n      0xffffffffffffffffffffffffffffffffffffffff\n      and\n      dup2\n      mstore\n      0x20\n      add\n      swap1\n      dup2\n      mstore\n      0x20\n      add\n      0x00\n      keccak256\n      0x00\n        /* \"aquo/AquoAssetTransferv3.sol\":991:1027  shareBalances[msg.sender] -= _amount */\n      dup3\n      dup3\n      sload\n      tag_50\n      swap2\n      swap1\n      tag_51\n      jump\t// in\n    tag_50:\n      swap3\n      pop\n      pop\n      dup2\n      swap1\n      sstore\n      pop\n        /* \"aquo/AquoAssetTransferv3.sol\":1060:1067  _amount */\n      dup1\n        /* \"aquo/AquoAssetTransferv3.sol\":1038:1051  shareBalances */\n      0x01\n        /* \"aquo/AquoAssetTransferv3.sol\":1038:1056  shareBalances[_to] */\n      0x00\n        /* \"aquo/AquoAssetTransferv3.sol\":1052:1055  _to */\n      dup5\n        /* \"aquo/AquoAssetTransferv3.sol\":1038:1056  shareBalances[_to] */\n      0xffffffffffffffffffffffffffffffffffffffff\n      and\n      0xffffffffffffffffffffffffffffffffffffffff\n      and\n      dup2\n      mstore\n      0x20\n      add\n      swap1\n      dup2\n      mstore\n      0x20\n      add\n      0x00\n      keccak256\n      0x00\n        /* \"aquo/AquoAssetTransferv3.sol\":1038:1067  shareBalances[_to] += _amount */\n      dup3\n      dup3\n      sload\n      tag_52\n      swap2\n      swap1\n      tag_53\n      jump\t// in\n    tag_52:\n      swap3\n      pop\n      pop\n      dup2\n      swap1\n      sstore\n      pop\n        /* \"aquo/AquoAssetTransferv3.sol\":1106:1113  _amount */\n      dup1\n        /* \"aquo/AquoAssetTransferv3.sol\":1084:1097  shareBalances */\n      0x01\n        /* \"aquo/AquoAssetTransferv3.sol\":1084:1102  shareBalances[_to] */\n      0x00\n        /* \"aquo/AquoAssetTransferv3.sol\":1098:1101  _to */\n      dup5\n        /* \"aquo/AquoAssetTransferv3.sol\":1084:1102  shareBalances[_to] */\n      0xffffffffffffffffffffffffffffffffffffffff\n      and\n      0xffffffffffffffffffffffffffffffffffffffff\n      and\n      dup2\n      mstore\n      0x20\n      add\n      swap1\n      dup2\n      mstore\n      0x20\n      add\n      0x00\n      keccak256\n      sload\n        /* \"aquo/AquoAssetTransferv3.sol\":1084:1113  shareBalances[_to] == _amount */\n      sub\n        /* \"aquo/AquoAssetTransferv3.sol\":1080:1261  if (shareBalances[_to] == _amount) { // if the balance was zero before transfer... */\n      tag_54\n      jumpi\n        /* \"aquo/AquoAssetTransferv3.sol\":1173:1188  holderAddresses */\n      0x02\n        /* \"aquo/AquoAssetTransferv3.sol\":1194:1197  _to */\n      dup3\n        /* \"aquo/AquoAssetTransferv3.sol\":1173:1198  holderAddresses.push(_to) */\n      swap1\n      dup1\n      0x01\n      dup2\n      sload\n      add\n      dup1\n      dup3\n      sstore\n      dup1\n      swap2\n      pop\n      pop\n      0x01\n      swap1\n      sub\n      swap1\n      0x00\n      mstore\n      keccak256(0x00, 0x20)\n      add\n      0x00\n      swap1\n      swap2\n      swap1\n      swap2\n      swap1\n      swap2\n      0x0100\n      exp\n      dup2\n      sload\n      dup2\n      0xffffffffffffffffffffffffffffffffffffffff\n      mul\n      not\n      and\n      swap1\n      dup4\n      0xffffffffffffffffffffffffffffffffffffffff\n      and\n      mul\n      or\n      swap1\n      sstore\n      pop\n        /* \"aquo/AquoAssetTransferv3.sol\":1080:1261  if (shareBalances[_to] == _amount) { // if the balance was zero before transfer... */\n    tag_54:\n        /* \"aquo/AquoAssetTransferv3.sol\":840:1268  function transferShares(address _to, uint256 _amount) public {... */\n      pop\n      pop\n      jump\t// out\n    tag_32:\n      mload(0x40)\n      dup1\n      0x40\n      add\n      0x40\n      mstore\n      dup1\n      and(0xffffffffffffffffffffffffffffffffffffffff, 0x00)\n      dup2\n      mstore\n      0x20\n      add\n      0x00\n      dup2\n      mstore\n      pop\n      swap1\n      jump\t// out\n        /* \"#utility.yul\":7:143   */\n    tag_56:\n        /* \"#utility.yul\":96:102   */\n      0x00\n        /* \"#utility.yul\":130:135   */\n      dup2\n        /* \"#utility.yul\":124:136   */\n      mload\n        /* \"#utility.yul\":114:136   */\n      swap1\n      pop\n        /* \"#utility.yul\":7:143   */\n      swap2\n      swap1\n      pop\n      jump\t// out\n        /* \"#utility.yul\":149:355   */\n    tag_57:\n        /* \"#utility.yul\":270:281   */\n      0x00\n        /* \"#utility.yul\":304:310   */\n      dup3\n        /* \"#utility.yul\":299:302   */\n      dup3\n        /* \"#utility.yul\":292:311   */\n      mstore\n        /* \"#utility.yul\":344:348   */\n      0x20\n        /* \"#utility.yul\":339:342   */\n      dup3\n        /* \"#utility.yul\":335:349   */\n      add\n        /* \"#utility.yul\":320:349   */\n      swap1\n      pop\n        /* \"#utility.yul\":149:355   */\n      swap3\n      swap2\n      pop\n      pop\n      jump\t// out\n        /* \"#utility.yul\":361:515   */\n    tag_58:\n        /* \"#utility.yul\":450:454   */\n      0x00\n        /* \"#utility.yul\":473:476   */\n      dup2\n        /* \"#utility.yul\":465:476   */\n      swap1\n      pop\n        /* \"#utility.yul\":503:507   */\n      0x20\n        /* \"#utility.yul\":498:501   */\n      dup3\n        /* \"#utility.yul\":494:508   */\n      add\n        /* \"#utility.yul\":486:508   */\n      swap1\n      pop\n        /* \"#utility.yul\":361:515   */\n      swap2\n      swap1\n      pop\n      jump\t// out\n        /* \"#utility.yul\":521:647   */\n    tag_59:\n        /* \"#utility.yul\":558:565   */\n      0x00\n        /* \"#utility.yul\":598:640   */\n      0xffffffffffffffffffffffffffffffffffffffff\n        /* \"#utility.yul\":591:596   */\n      dup3\n        /* \"#utility.yul\":587:641   */\n      and\n        /* \"#utility.yul\":576:641   */\n      swap1\n      pop\n        /* \"#utility.yul\":521:647   */\n      swap2\n      swap1\n      pop\n      jump\t// out\n        /* \"#utility.yul\":653:749   */\n    tag_60:\n        /* \"#utility.yul\":690:697   */\n      0x00\n        /* \"#utility.yul\":719:743   */\n      tag_87\n        /* \"#utility.yul\":737:742   */\n      dup3\n        /* \"#utility.yul\":719:743   */\n      tag_59\n      jump\t// in\n    tag_87:\n        /* \"#utility.yul\":708:743   */\n      swap1\n      pop\n        /* \"#utility.yul\":653:749   */\n      swap2\n      swap1\n      pop\n      jump\t// out\n        /* \"#utility.yul\":755:863   */\n    tag_61:\n        /* \"#utility.yul\":832:856   */\n      tag_89\n        /* \"#utility.yul\":850:855   */\n      dup2\n        /* \"#utility.yul\":832:856   */\n      tag_60\n      jump\t// in\n    tag_89:\n        /* \"#utility.yul\":827:830   */\n      dup3\n        /* \"#utility.yul\":820:857   */\n      mstore\n        /* \"#utility.yul\":755:863   */\n      pop\n      pop\n      jump\t// out\n        /* \"#utility.yul\":869:946   */\n    tag_62:\n        /* \"#utility.yul\":906:913   */\n      0x00\n        /* \"#utility.yul\":935:940   */\n      dup2\n        /* \"#utility.yul\":924:940   */\n      swap1\n      pop\n        /* \"#utility.yul\":869:946   */\n      swap2\n      swap1\n      pop\n      jump\t// out\n        /* \"#utility.yul\":952:1060   */\n    tag_63:\n        /* \"#utility.yul\":1029:1053   */\n      tag_92\n        /* \"#utility.yul\":1047:1052   */\n      dup2\n        /* \"#utility.yul\":1029:1053   */\n      tag_62\n      jump\t// in\n    tag_92:\n        /* \"#utility.yul\":1024:1027   */\n      dup3\n        /* \"#utility.yul\":1017:1054   */\n      mstore\n        /* \"#utility.yul\":952:1060   */\n      pop\n      pop\n      jump\t// out\n        /* \"#utility.yul\":1132:1626   */\n    tag_64:\n        /* \"#utility.yul\":1263:1267   */\n      0x40\n        /* \"#utility.yul\":1258:1261   */\n      dup3\n        /* \"#utility.yul\":1254:1268   */\n      add\n        /* \"#utility.yul\":1350:1354   */\n      0x00\n        /* \"#utility.yul\":1343:1348   */\n      dup3\n        /* \"#utility.yul\":1339:1355   */\n      add\n        /* \"#utility.yul\":1333:1356   */\n      mload\n        /* \"#utility.yul\":1369:1432   */\n      tag_94\n        /* \"#utility.yul\":1426:1430   */\n      0x00\n        /* \"#utility.yul\":1421:1424   */\n      dup6\n        /* \"#utility.yul\":1417:1431   */\n      add\n        /* \"#utility.yul\":1403:1415   */\n      dup3\n        /* \"#utility.yul\":1369:1432   */\n      tag_61\n      jump\t// in\n    tag_94:\n        /* \"#utility.yul\":1278:1442   */\n      pop\n        /* \"#utility.yul\":1527:1531   */\n      0x20\n        /* \"#utility.yul\":1520:1525   */\n      dup3\n        /* \"#utility.yul\":1516:1532   */\n      add\n        /* \"#utility.yul\":1510:1533   */\n      mload\n        /* \"#utility.yul\":1546:1609   */\n      tag_95\n        /* \"#utility.yul\":1603:1607   */\n      0x20\n        /* \"#utility.yul\":1598:1601   */\n      dup6\n        /* \"#utility.yul\":1594:1608   */\n      add\n        /* \"#utility.yul\":1580:1592   */\n      dup3\n        /* \"#utility.yul\":1546:1609   */\n      tag_63\n      jump\t// in\n    tag_95:\n        /* \"#utility.yul\":1452:1619   */\n      pop\n        /* \"#utility.yul\":1232:1626   */\n      pop\n        /* \"#utility.yul\":1132:1626   */\n      pop\n      pop\n      jump\t// out\n        /* \"#utility.yul\":1632:1899   */\n    tag_65:\n        /* \"#utility.yul\":1745:1755   */\n      0x00\n        /* \"#utility.yul\":1766:1856   */\n      tag_97\n        /* \"#utility.yul\":1852:1855   */\n      dup4\n        /* \"#utility.yul\":1844:1850   */\n      dup4\n        /* \"#utility.yul\":1766:1856   */\n      tag_64\n      jump\t// in\n    tag_97:\n        /* \"#utility.yul\":1888:1892   */\n      0x40\n        /* \"#utility.yul\":1883:1886   */\n      dup4\n        /* \"#utility.yul\":1879:1893   */\n      add\n        /* \"#utility.yul\":1865:1893   */\n      swap1\n      pop\n        /* \"#utility.yul\":1632:1899   */\n      swap3\n      swap2\n      pop\n      pop\n      jump\t// out\n        /* \"#utility.yul\":1905:2040   */\n    tag_66:\n        /* \"#utility.yul\":1997:2001   */\n      0x00\n        /* \"#utility.yul\":2029:2033   */\n      0x20\n        /* \"#utility.yul\":2024:2027   */\n      dup3\n        /* \"#utility.yul\":2020:2034   */\n      add\n        /* \"#utility.yul\":2012:2034   */\n      swap1\n      pop\n        /* \"#utility.yul\":1905:2040   */\n      swap2\n      swap1\n      pop\n      jump\t// out\n        /* \"#utility.yul\":2116:3024   */\n    tag_67:\n        /* \"#utility.yul\":2279:2282   */\n      0x00\n        /* \"#utility.yul\":2308:2384   */\n      tag_100\n        /* \"#utility.yul\":2378:2383   */\n      dup3\n        /* \"#utility.yul\":2308:2384   */\n      tag_56\n      jump\t// in\n    tag_100:\n        /* \"#utility.yul\":2400:2508   */\n      tag_101\n        /* \"#utility.yul\":2501:2507   */\n      dup2\n        /* \"#utility.yul\":2496:2499   */\n      dup6\n        /* \"#utility.yul\":2400:2508   */\n      tag_57\n      jump\t// in\n    tag_101:\n        /* \"#utility.yul\":2393:2508   */\n      swap4\n      pop\n        /* \"#utility.yul\":2532:2610   */\n      tag_102\n        /* \"#utility.yul\":2604:2609   */\n      dup4\n        /* \"#utility.yul\":2532:2610   */\n      tag_58\n      jump\t// in\n    tag_102:\n        /* \"#utility.yul\":2633:2640   */\n      dup1\n        /* \"#utility.yul\":2664:2665   */\n      0x00\n        /* \"#utility.yul\":2649:2999   */\n    tag_103:\n        /* \"#utility.yul\":2674:2680   */\n      dup4\n        /* \"#utility.yul\":2671:2672   */\n      dup2\n        /* \"#utility.yul\":2668:2681   */\n      lt\n        /* \"#utility.yul\":2649:2999   */\n      iszero\n      tag_105\n      jumpi\n        /* \"#utility.yul\":2750:2756   */\n      dup2\n        /* \"#utility.yul\":2744:2757   */\n      mload\n        /* \"#utility.yul\":2777:2884   */\n      tag_106\n        /* \"#utility.yul\":2880:2883   */\n      dup9\n        /* \"#utility.yul\":2865:2878   */\n      dup3\n        /* \"#utility.yul\":2777:2884   */\n      tag_65\n      jump\t// in\n    tag_106:\n        /* \"#utility.yul\":2770:2884   */\n      swap8\n      pop\n        /* \"#utility.yul\":2907:2989   */\n      tag_107\n        /* \"#utility.yul\":2982:2988   */\n      dup4\n        /* \"#utility.yul\":2907:2989   */\n      tag_66\n      jump\t// in\n    tag_107:\n        /* \"#utility.yul\":2897:2989   */\n      swap3\n      pop\n        /* \"#utility.yul\":2709:2999   */\n      pop\n        /* \"#utility.yul\":2696:2697   */\n      0x01\n        /* \"#utility.yul\":2693:2694   */\n      dup2\n        /* \"#utility.yul\":2689:2698   */\n      add\n        /* \"#utility.yul\":2684:2698   */\n      swap1\n      pop\n        /* \"#utility.yul\":2649:2999   */\n      jump(tag_103)\n    tag_105:\n        /* \"#utility.yul\":2653:2667   */\n      pop\n        /* \"#utility.yul\":3015:3018   */\n      dup6\n        /* \"#utility.yul\":3008:3018   */\n      swap4\n      pop\n        /* \"#utility.yul\":2284:3024   */\n      pop\n      pop\n      pop\n        /* \"#utility.yul\":2116:3024   */\n      swap3\n      swap2\n      pop\n      pop\n      jump\t// out\n        /* \"#utility.yul\":3030:3491   */\n    tag_10:\n        /* \"#utility.yul\":3217:3221   */\n      0x00\n        /* \"#utility.yul\":3255:3257   */\n      0x20\n        /* \"#utility.yul\":3244:3253   */\n      dup3\n        /* \"#utility.yul\":3240:3258   */\n      add\n        /* \"#utility.yul\":3232:3258   */\n      swap1\n      pop\n        /* \"#utility.yul\":3304:3313   */\n      dup2\n        /* \"#utility.yul\":3298:3302   */\n      dup2\n        /* \"#utility.yul\":3294:3314   */\n      sub\n        /* \"#utility.yul\":3290:3291   */\n      0x00\n        /* \"#utility.yul\":3279:3288   */\n      dup4\n        /* \"#utility.yul\":3275:3292   */\n      add\n        /* \"#utility.yul\":3268:3315   */\n      mstore\n        /* \"#utility.yul\":3332:3484   */\n      tag_109\n        /* \"#utility.yul\":3479:3483   */\n      dup2\n        /* \"#utility.yul\":3470:3476   */\n      dup5\n        /* \"#utility.yul\":3332:3484   */\n      tag_67\n      jump\t// in\n    tag_109:\n        /* \"#utility.yul\":3324:3484   */\n      swap1\n      pop\n        /* \"#utility.yul\":3030:3491   */\n      swap3\n      swap2\n      pop\n      pop\n      jump\t// out\n        /* \"#utility.yul\":3578:3695   */\n    tag_69:\n        /* \"#utility.yul\":3687:3688   */\n      0x00\n        /* \"#utility.yul\":3684:3685   */\n      dup1\n        /* \"#utility.yul\":3677:3689   */\n      revert\n        /* \"#utility.yul\":3824:3946   */\n    tag_71:\n        /* \"#utility.yul\":3897:3921   */\n      tag_114\n        /* \"#utility.yul\":3915:3920   */\n      dup2\n        /* \"#utility.yul\":3897:3921   */\n      tag_60\n      jump\t// in\n    tag_114:\n        /* \"#utility.yul\":3890:3895   */\n      dup2\n        /* \"#utility.yul\":3887:3922   */\n      eq\n        /* \"#utility.yul\":3877:3940   */\n      tag_115\n      jumpi\n        /* \"#utility.yul\":3936:3937   */\n      0x00\n        /* \"#utility.yul\":3933:3934   */\n      dup1\n        /* \"#utility.yul\":3926:3938   */\n      revert\n        /* \"#utility.yul\":3877:3940   */\n    tag_115:\n        /* \"#utility.yul\":3824:3946   */\n      pop\n      jump\t// out\n        /* \"#utility.yul\":3952:4091   */\n    tag_72:\n        /* \"#utility.yul\":3998:4003   */\n      0x00\n        /* \"#utility.yul\":4036:4042   */\n      dup2\n        /* \"#utility.yul\":4023:4043   */\n      calldataload\n        /* \"#utility.yul\":4014:4043   */\n      swap1\n      pop\n        /* \"#utility.yul\":4052:4085   */\n      tag_117\n        /* \"#utility.yul\":4079:4084   */\n      dup2\n        /* \"#utility.yul\":4052:4085   */\n      tag_71\n      jump\t// in\n    tag_117:\n        /* \"#utility.yul\":3952:4091   */\n      swap3\n      swap2\n      pop\n      pop\n      jump\t// out\n        /* \"#utility.yul\":4097:4426   */\n    tag_13:\n        /* \"#utility.yul\":4156:4162   */\n      0x00\n        /* \"#utility.yul\":4205:4207   */\n      0x20\n        /* \"#utility.yul\":4193:4202   */\n      dup3\n        /* \"#utility.yul\":4184:4191   */\n      dup5\n        /* \"#utility.yul\":4180:4203   */\n      sub\n        /* \"#utility.yul\":4176:4208   */\n      slt\n        /* \"#utility.yul\":4173:4292   */\n      iszero\n      tag_119\n      jumpi\n        /* \"#utility.yul\":4211:4290   */\n      tag_120\n      tag_69\n      jump\t// in\n    tag_120:\n        /* \"#utility.yul\":4173:4292   */\n    tag_119:\n        /* \"#utility.yul\":4331:4332   */\n      0x00\n        /* \"#utility.yul\":4356:4409   */\n      tag_121\n        /* \"#utility.yul\":4401:4408   */\n      dup5\n        /* \"#utility.yul\":4392:4398   */\n      dup3\n        /* \"#utility.yul\":4381:4390   */\n      dup6\n        /* \"#utility.yul\":4377:4399   */\n      add\n        /* \"#utility.yul\":4356:4409   */\n      tag_72\n      jump\t// in\n    tag_121:\n        /* \"#utility.yul\":4346:4409   */\n      swap2\n      pop\n        /* \"#utility.yul\":4302:4419   */\n      pop\n        /* \"#utility.yul\":4097:4426   */\n      swap3\n      swap2\n      pop\n      pop\n      jump\t// out\n        /* \"#utility.yul\":4432:4550   */\n    tag_73:\n        /* \"#utility.yul\":4519:4543   */\n      tag_123\n        /* \"#utility.yul\":4537:4542   */\n      dup2\n        /* \"#utility.yul\":4519:4543   */\n      tag_62\n      jump\t// in\n    tag_123:\n        /* \"#utility.yul\":4514:4517   */\n      dup3\n        /* \"#utility.yul\":4507:4544   */\n      mstore\n        /* \"#utility.yul\":4432:4550   */\n      pop\n      pop\n      jump\t// out\n        /* \"#utility.yul\":4556:4778   */\n    tag_16:\n        /* \"#utility.yul\":4649:4653   */\n      0x00\n        /* \"#utility.yul\":4687:4689   */\n      0x20\n        /* \"#utility.yul\":4676:4685   */\n      dup3\n        /* \"#utility.yul\":4672:4690   */\n      add\n        /* \"#utility.yul\":4664:4690   */\n      swap1\n      pop\n        /* \"#utility.yul\":4700:4771   */\n      tag_125\n        /* \"#utility.yul\":4768:4769   */\n      0x00\n        /* \"#utility.yul\":4757:4766   */\n      dup4\n        /* \"#utility.yul\":4753:4770   */\n      add\n        /* \"#utility.yul\":4744:4750   */\n      dup5\n        /* \"#utility.yul\":4700:4771   */\n      tag_73\n      jump\t// in\n    tag_125:\n        /* \"#utility.yul\":4556:4778   */\n      swap3\n      swap2\n      pop\n      pop\n      jump\t// out\n        /* \"#utility.yul\":4784:4902   */\n    tag_74:\n        /* \"#utility.yul\":4871:4895   */\n      tag_127\n        /* \"#utility.yul\":4889:4894   */\n      dup2\n        /* \"#utility.yul\":4871:4895   */\n      tag_60\n      jump\t// in\n    tag_127:\n        /* \"#utility.yul\":4866:4869   */\n      dup3\n        /* \"#utility.yul\":4859:4896   */\n      mstore\n        /* \"#utility.yul\":4784:4902   */\n      pop\n      pop\n      jump\t// out\n        /* \"#utility.yul\":4908:5130   */\n    tag_20:\n        /* \"#utility.yul\":5001:5005   */\n      0x00\n        /* \"#utility.yul\":5039:5041   */\n      0x20\n        /* \"#utility.yul\":5028:5037   */\n      dup3\n        /* \"#utility.yul\":5024:5042   */\n      add\n        /* \"#utility.yul\":5016:5042   */\n      swap1\n      pop\n        /* \"#utility.yul\":5052:5123   */\n      tag_129\n        /* \"#utility.yul\":5120:5121   */\n      0x00\n        /* \"#utility.yul\":5109:5118   */\n      dup4\n        /* \"#utility.yul\":5105:5122   */\n      add\n        /* \"#utility.yul\":5096:5102   */\n      dup5\n        /* \"#utility.yul\":5052:5123   */\n      tag_74\n      jump\t// in\n    tag_129:\n        /* \"#utility.yul\":4908:5130   */\n      swap3\n      swap2\n      pop\n      pop\n      jump\t// out\n        /* \"#utility.yul\":5136:5258   */\n    tag_75:\n        /* \"#utility.yul\":5209:5233   */\n      tag_131\n        /* \"#utility.yul\":5227:5232   */\n      dup2\n        /* \"#utility.yul\":5209:5233   */\n      tag_62\n      jump\t// in\n    tag_131:\n        /* \"#utility.yul\":5202:5207   */\n      dup2\n        /* \"#utility.yul\":5199:5234   */\n      eq\n        /* \"#utility.yul\":5189:5252   */\n      tag_132\n      jumpi\n        /* \"#utility.yul\":5248:5249   */\n      0x00\n        /* \"#utility.yul\":5245:5246   */\n      dup1\n        /* \"#utility.yul\":5238:5250   */\n      revert\n        /* \"#utility.yul\":5189:5252   */\n    tag_132:\n        /* \"#utility.yul\":5136:5258   */\n      pop\n      jump\t// out\n        /* \"#utility.yul\":5264:5403   */\n    tag_76:\n        /* \"#utility.yul\":5310:5315   */\n      0x00\n        /* \"#utility.yul\":5348:5354   */\n      dup2\n        /* \"#utility.yul\":5335:5355   */\n      calldataload\n        /* \"#utility.yul\":5326:5355   */\n      swap1\n      pop\n        /* \"#utility.yul\":5364:5397   */\n      tag_134\n        /* \"#utility.yul\":5391:5396   */\n      dup2\n        /* \"#utility.yul\":5364:5397   */\n      tag_75\n      jump\t// in\n    tag_134:\n        /* \"#utility.yul\":5264:5403   */\n      swap3\n      swap2\n      pop\n      pop\n      jump\t// out\n        /* \"#utility.yul\":5409:5883   */\n    tag_23:\n        /* \"#utility.yul\":5477:5483   */\n      0x00\n        /* \"#utility.yul\":5485:5491   */\n      dup1\n        /* \"#utility.yul\":5534:5536   */\n      0x40\n        /* \"#utility.yul\":5522:5531   */\n      dup4\n        /* \"#utility.yul\":5513:5520   */\n      dup6\n        /* \"#utility.yul\":5509:5532   */\n      sub\n        /* \"#utility.yul\":5505:5537   */\n      slt\n        /* \"#utility.yul\":5502:5621   */\n      iszero\n      tag_136\n      jumpi\n        /* \"#utility.yul\":5540:5619   */\n      tag_137\n      tag_69\n      jump\t// in\n    tag_137:\n        /* \"#utility.yul\":5502:5621   */\n    tag_136:\n        /* \"#utility.yul\":5660:5661   */\n      0x00\n        /* \"#utility.yul\":5685:5738   */\n      tag_138\n        /* \"#utility.yul\":5730:5737   */\n      dup6\n        /* \"#utility.yul\":5721:5727   */\n      dup3\n        /* \"#utility.yul\":5710:5719   */\n      dup7\n        /* \"#utility.yul\":5706:5728   */\n      add\n        /* \"#utility.yul\":5685:5738   */\n      tag_72\n      jump\t// in\n    tag_138:\n        /* \"#utility.yul\":5675:5738   */\n      swap3\n      pop\n        /* \"#utility.yul\":5631:5748   */\n      pop\n        /* \"#utility.yul\":5787:5789   */\n      0x20\n        /* \"#utility.yul\":5813:5866   */\n      tag_139\n        /* \"#utility.yul\":5858:5865   */\n      dup6\n        /* \"#utility.yul\":5849:5855   */\n      dup3\n        /* \"#utility.yul\":5838:5847   */\n      dup7\n        /* \"#utility.yul\":5834:5856   */\n      add\n        /* \"#utility.yul\":5813:5866   */\n      tag_76\n      jump\t// in\n    tag_139:\n        /* \"#utility.yul\":5803:5866   */\n      swap2\n      pop\n        /* \"#utility.yul\":5758:5876   */\n      pop\n        /* \"#utility.yul\":5409:5883   */\n      swap3\n      pop\n      swap3\n      swap1\n      pop\n      jump\t// out\n        /* \"#utility.yul\":5889:6069   */\n    tag_28:\n        /* \"#utility.yul\":5937:6014   */\n      0x4e487b7100000000000000000000000000000000000000000000000000000000\n        /* \"#utility.yul\":5934:5935   */\n      0x00\n        /* \"#utility.yul\":5927:6015   */\n      mstore\n        /* \"#utility.yul\":6034:6038   */\n      0x41\n        /* \"#utility.yul\":6031:6032   */\n      0x04\n        /* \"#utility.yul\":6024:6039   */\n      mstore\n        /* \"#utility.yul\":6058:6062   */\n      0x24\n        /* \"#utility.yul\":6055:6056   */\n      0x00\n        /* \"#utility.yul\":6048:6063   */\n      revert\n        /* \"#utility.yul\":6075:6255   */\n    tag_38:\n        /* \"#utility.yul\":6123:6200   */\n      0x4e487b7100000000000000000000000000000000000000000000000000000000\n        /* \"#utility.yul\":6120:6121   */\n      0x00\n        /* \"#utility.yul\":6113:6201   */\n      mstore\n        /* \"#utility.yul\":6220:6224   */\n      0x32\n        /* \"#utility.yul\":6217:6218   */\n      0x04\n        /* \"#utility.yul\":6210:6225   */\n      mstore\n        /* \"#utility.yul\":6244:6248   */\n      0x24\n        /* \"#utility.yul\":6241:6242   */\n      0x00\n        /* \"#utility.yul\":6234:6249   */\n      revert\n        /* \"#utility.yul\":6261:6430   */\n    tag_77:\n        /* \"#utility.yul\":6345:6356   */\n      0x00\n        /* \"#utility.yul\":6379:6385   */\n      dup3\n        /* \"#utility.yul\":6374:6377   */\n      dup3\n        /* \"#utility.yul\":6367:6386   */\n      mstore\n        /* \"#utility.yul\":6419:6423   */\n      0x20\n        /* \"#utility.yul\":6414:6417   */\n      dup3\n        /* \"#utility.yul\":6410:6424   */\n      add\n        /* \"#utility.yul\":6395:6424   */\n      swap1\n      pop\n        /* \"#utility.yul\":6261:6430   */\n      swap3\n      swap2\n      pop\n      pop\n      jump\t// out\n        /* \"#utility.yul\":6436:6605   */\n    tag_78:\n        /* \"#utility.yul\":6576:6597   */\n      0x496e73756666696369656e742073686172657300000000000000000000000000\n        /* \"#utility.yul\":6572:6573   */\n      0x00\n        /* \"#utility.yul\":6564:6570   */\n      dup3\n        /* \"#utility.yul\":6560:6574   */\n      add\n        /* \"#utility.yul\":6553:6598   */\n      mstore\n        /* \"#utility.yul\":6436:6605   */\n      pop\n      jump\t// out\n        /* \"#utility.yul\":6611:6977   */\n    tag_79:\n        /* \"#utility.yul\":6753:6756   */\n      0x00\n        /* \"#utility.yul\":6774:6841   */\n      tag_145\n        /* \"#utility.yul\":6838:6840   */\n      0x13\n        /* \"#utility.yul\":6833:6836   */\n      dup4\n        /* \"#utility.yul\":6774:6841   */\n      tag_77\n      jump\t// in\n    tag_145:\n        /* \"#utility.yul\":6767:6841   */\n      swap2\n      pop\n        /* \"#utility.yul\":6850:6943   */\n      tag_146\n        /* \"#utility.yul\":6939:6942   */\n      dup3\n        /* \"#utility.yul\":6850:6943   */\n      tag_78\n      jump\t// in\n    tag_146:\n        /* \"#utility.yul\":6968:6970   */\n      0x20\n        /* \"#utility.yul\":6963:6966   */\n      dup3\n        /* \"#utility.yul\":6959:6971   */\n      add\n        /* \"#utility.yul\":6952:6971   */\n      swap1\n      pop\n        /* \"#utility.yul\":6611:6977   */\n      swap2\n      swap1\n      pop\n      jump\t// out\n        /* \"#utility.yul\":6983:7402   */\n    tag_49:\n        /* \"#utility.yul\":7149:7153   */\n      0x00\n        /* \"#utility.yul\":7187:7189   */\n      0x20\n        /* \"#utility.yul\":7176:7185   */\n      dup3\n        /* \"#utility.yul\":7172:7190   */\n      add\n        /* \"#utility.yul\":7164:7190   */\n      swap1\n      pop\n        /* \"#utility.yul\":7236:7245   */\n      dup2\n        /* \"#utility.yul\":7230:7234   */\n      dup2\n        /* \"#utility.yul\":7226:7246   */\n      sub\n        /* \"#utility.yul\":7222:7223   */\n      0x00\n        /* \"#utility.yul\":7211:7220   */\n      dup4\n        /* \"#utility.yul\":7207:7224   */\n      add\n        /* \"#utility.yul\":7200:7247   */\n      mstore\n        /* \"#utility.yul\":7264:7395   */\n      tag_148\n        /* \"#utility.yul\":7390:7394   */\n      dup2\n        /* \"#utility.yul\":7264:7395   */\n      tag_79\n      jump\t// in\n    tag_148:\n        /* \"#utility.yul\":7256:7395   */\n      swap1\n      pop\n        /* \"#utility.yul\":6983:7402   */\n      swap2\n      swap1\n      pop\n      jump\t// out\n        /* \"#utility.yul\":7408:7588   */\n    tag_80:\n        /* \"#utility.yul\":7456:7533   */\n      0x4e487b7100000000000000000000000000000000000000000000000000000000\n        /* \"#utility.yul\":7453:7454   */\n      0x00\n        /* \"#utility.yul\":7446:7534   */\n      mstore\n        /* \"#utility.yul\":7553:7557   */\n      0x11\n        /* \"#utility.yul\":7550:7551   */\n      0x04\n        /* \"#utility.yul\":7543:7558   */\n      mstore\n        /* \"#utility.yul\":7577:7581   */\n      0x24\n        /* \"#utility.yul\":7574:7575   */\n      0x00\n        /* \"#utility.yul\":7567:7582   */\n      revert\n        /* \"#utility.yul\":7594:7788   */\n    tag_51:\n        /* \"#utility.yul\":7634:7638   */\n      0x00\n        /* \"#utility.yul\":7654:7674   */\n      tag_151\n        /* \"#utility.yul\":7672:7673   */\n      dup3\n        /* \"#utility.yul\":7654:7674   */\n      tag_62\n      jump\t// in\n    tag_151:\n        /* \"#utility.yul\":7649:7674   */\n      swap2\n      pop\n        /* \"#utility.yul\":7688:7708   */\n      tag_152\n        /* \"#utility.yul\":7706:7707   */\n      dup4\n        /* \"#utility.yul\":7688:7708   */\n      tag_62\n      jump\t// in\n    tag_152:\n        /* \"#utility.yul\":7683:7708   */\n      swap3\n      pop\n        /* \"#utility.yul\":7732:7733   */\n      dup3\n        /* \"#utility.yul\":7729:7730   */\n      dup3\n        /* \"#utility.yul\":7725:7734   */\n      sub\n        /* \"#utility.yul\":7717:7734   */\n      swap1\n      pop\n        /* \"#utility.yul\":7756:7757   */\n      dup2\n        /* \"#utility.yul\":7750:7754   */\n      dup2\n        /* \"#utility.yul\":7747:7758   */\n      gt\n        /* \"#utility.yul\":7744:7781   */\n      iszero\n      tag_153\n      jumpi\n        /* \"#utility.yul\":7761:7779   */\n      tag_154\n      tag_80\n      jump\t// in\n    tag_154:\n        /* \"#utility.yul\":7744:7781   */\n    tag_153:\n        /* \"#utility.yul\":7594:7788   */\n      swap3\n      swap2\n      pop\n      pop\n      jump\t// out\n        /* \"#utility.yul\":7794:7985   */\n    tag_53:\n        /* \"#utility.yul\":7834:7837   */\n      0x00\n        /* \"#utility.yul\":7853:7873   */\n      tag_156\n        /* \"#utility.yul\":7871:7872   */\n      dup3\n        /* \"#utility.yul\":7853:7873   */\n      tag_62\n      jump\t// in\n    tag_156:\n        /* \"#utility.yul\":7848:7873   */\n      swap2\n      pop\n        /* \"#utility.yul\":7887:7907   */\n      tag_157\n        /* \"#utility.yul\":7905:7906   */\n      dup4\n        /* \"#utility.yul\":7887:7907   */\n      tag_62\n      jump\t// in\n    tag_157:\n        /* \"#utility.yul\":7882:7907   */\n      swap3\n      pop\n        /* \"#utility.yul\":7930:7931   */\n      dup3\n        /* \"#utility.yul\":7927:7928   */\n      dup3\n        /* \"#utility.yul\":7923:7932   */\n      add\n        /* \"#utility.yul\":7916:7932   */\n      swap1\n      pop\n        /* \"#utility.yul\":7951:7954   */\n      dup1\n        /* \"#utility.yul\":7948:7949   */\n      dup3\n        /* \"#utility.yul\":7945:7955   */\n      gt\n        /* \"#utility.yul\":7942:7978   */\n      iszero\n      tag_158\n      jumpi\n        /* \"#utility.yul\":7958:7976   */\n      tag_159\n      tag_80\n      jump\t// in\n    tag_159:\n        /* \"#utility.yul\":7942:7978   */\n    tag_158:\n        /* \"#utility.yul\":7794:7985   */\n      swap3\n      swap2\n      pop\n      pop\n      jump\t// out\n\n    auxdata: 0xa26469706673582212203f2bf022e6ffd5085d2cb9f9ae7efc26ccb56cd88ce3625a41fcc069a8c49c5664736f6c63430008180033\n}\n",
				"bytecode": {
					"linkReferences": {},
					"object": "608060405234801561000f575f80fd5b50604051610aa7380380610aa7833981810160405281019061003191906101aa565b805f806101000a81548173ffffffffffffffffffffffffffffffffffffffff021916908373ffffffffffffffffffffffffffffffffffffffff1602179055508160015f8373ffffffffffffffffffffffffffffffffffffffff1673ffffffffffffffffffffffffffffffffffffffff1681526020019081526020015f2081905550600281908060018154018082558091505060019003905f5260205f20015f9091909190916101000a81548173ffffffffffffffffffffffffffffffffffffffff021916908373ffffffffffffffffffffffffffffffffffffffff16021790555050506101e8565b5f80fd5b5f819050919050565b61012f8161011d565b8114610139575f80fd5b50565b5f8151905061014a81610126565b92915050565b5f73ffffffffffffffffffffffffffffffffffffffff82169050919050565b5f61017982610150565b9050919050565b6101898161016f565b8114610193575f80fd5b50565b5f815190506101a481610180565b92915050565b5f80604083850312156101c0576101bf610119565b5b5f6101cd8582860161013c565b92505060206101de85828601610196565b9150509250929050565b6108b2806101f55f395ff3fe608060405234801561000f575f80fd5b506004361061004a575f3560e01c80635fe8e7cc1461004e57806370a082311461006c5780638da5cb5b1461009c5780638fcb4e5b146100ba575b5f80fd5b6100566100d6565b60405161006391906105e6565b60405180910390f35b61008660048036038101906100819190610634565b610254565b604051610093919061066e565b60405180910390f35b6100a461029a565b6040516100b19190610696565b60405180910390f35b6100d460048036038101906100cf91906106d9565b6102bd565b005b60605f60028054905067ffffffffffffffff8111156100f8576100f7610717565b5b60405190808252806020026020018201604052801561013157816020015b61011e61048c565b8152602001906001900390816101165790505b5090505f5b60028054905081101561024c5760405180604001604052806002838154811061016257610161610744565b5b905f5260205f20015f9054906101000a900473ffffffffffffffffffffffffffffffffffffffff1673ffffffffffffffffffffffffffffffffffffffff16815260200160015f600285815481106101bc576101bb610744565b5b905f5260205f20015f9054906101000a900473ffffffffffffffffffffffffffffffffffffffff1673ffffffffffffffffffffffffffffffffffffffff1673ffffffffffffffffffffffffffffffffffffffff1681526020019081526020015f205481525082828151811061023457610233610744565b5b60200260200101819052508080600101915050610136565b508091505090565b5f60015f8373ffffffffffffffffffffffffffffffffffffffff1673ffffffffffffffffffffffffffffffffffffffff1681526020019081526020015f20549050919050565b5f8054906101000a900473ffffffffffffffffffffffffffffffffffffffff1681565b8060015f3373ffffffffffffffffffffffffffffffffffffffff1673ffffffffffffffffffffffffffffffffffffffff1681526020019081526020015f2054101561033d576040517f08c379a0000000000000000000000000000000000000000000000000000000008152600401610334906107cb565b60405180910390fd5b8060015f3373ffffffffffffffffffffffffffffffffffffffff1673ffffffffffffffffffffffffffffffffffffffff1681526020019081526020015f205f8282546103899190610816565b925050819055508060015f8473ffffffffffffffffffffffffffffffffffffffff1673ffffffffffffffffffffffffffffffffffffffff1681526020019081526020015f205f8282546103dc9190610849565b925050819055508060015f8473ffffffffffffffffffffffffffffffffffffffff1673ffffffffffffffffffffffffffffffffffffffff1681526020019081526020015f20540361048857600282908060018154018082558091505060019003905f5260205f20015f9091909190916101000a81548173ffffffffffffffffffffffffffffffffffffffff021916908373ffffffffffffffffffffffffffffffffffffffff1602179055505b5050565b60405180604001604052805f73ffffffffffffffffffffffffffffffffffffffff1681526020015f81525090565b5f81519050919050565b5f82825260208201905092915050565b5f819050602082019050919050565b5f73ffffffffffffffffffffffffffffffffffffffff82169050919050565b5f61050c826104e3565b9050919050565b61051c81610502565b82525050565b5f819050919050565b61053481610522565b82525050565b604082015f82015161054e5f850182610513565b506020820151610561602085018261052b565b50505050565b5f610572838361053a565b60408301905092915050565b5f602082019050919050565b5f610594826104ba565b61059e81856104c4565b93506105a9836104d4565b805f5b838110156105d95781516105c08882610567565b97506105cb8361057e565b9250506001810190506105ac565b5085935050505092915050565b5f6020820190508181035f8301526105fe818461058a565b905092915050565b5f80fd5b61061381610502565b811461061d575f80fd5b50565b5f8135905061062e8161060a565b92915050565b5f6020828403121561064957610648610606565b5b5f61065684828501610620565b91505092915050565b61066881610522565b82525050565b5f6020820190506106815f83018461065f565b92915050565b61069081610502565b82525050565b5f6020820190506106a95f830184610687565b92915050565b6106b881610522565b81146106c2575f80fd5b50565b5f813590506106d3816106af565b92915050565b5f80604083850312156106ef576106ee610606565b5b5f6106fc85828601610620565b925050602061070d858286016106c5565b9150509250929050565b7f4e487b71000000000000000000000000000000000000000000000000000000005f52604160045260245ffd5b7f4e487b71000000000000000000000000000000000000000000000000000000005f52603260045260245ffd5b5f82825260208201905092915050565b7f496e73756666696369656e7420736861726573000000000000000000000000005f82015250565b5f6107b5601383610771565b91506107c082610781565b602082019050919050565b5f6020820190508181035f8301526107e2816107a9565b9050919050565b7f4e487b71000000000000000000000000000000000000000000000000000000005f52601160045260245ffd5b5f61082082610522565b915061082b83610522565b9250828203905081811115610843576108426107e9565b5b92915050565b5f61085382610522565b915061085e83610522565b9250828201905080821115610876576108756107e9565b5b9291505056fea26469706673582212203f2bf022e6ffd5085d2cb9f9ae7efc26ccb56cd88ce3625a41fcc069a8c49c5664736f6c63430008180033",
					"opcodes": "PUSH1 0x80 PUSH1 0x40 MSTORE CALLVALUE DUP1 ISZERO PUSH2 0xF JUMPI PUSH0 DUP1 REVERT JUMPDEST POP PUSH1 0x40 MLOAD PUSH2 0xAA7 CODESIZE SUB DUP1 PUSH2 0xAA7 DUP4 CODECOPY DUP2 DUP2 ADD PUSH1 0x40 MSTORE DUP2 ADD SWAP1 PUSH2 0x31 SWAP2 SWAP1 PUSH2 0x1AA JUMP JUMPDEST DUP1 PUSH0 DUP1 PUSH2 0x100 EXP DUP2 SLOAD DUP2 PUSH20 0xFFFFFFFFFFFFFFFFFFFFFFFFFFFFFFFFFFFFFFFF MUL NOT AND SWAP1 DUP4 PUSH20 0xFFFFFFFFFFFFFFFFFFFFFFFFFFFFFFFFFFFFFFFF AND MUL OR SWAP1 SSTORE POP DUP2 PUSH1 0x1 PUSH0 DUP4 PUSH20 0xFFFFFFFFFFFFFFFFFFFFFFFFFFFFFFFFFFFFFFFF AND PUSH20 0xFFFFFFFFFFFFFFFFFFFFFFFFFFFFFFFFFFFFFFFF AND DUP2 MSTORE PUSH1 0x20 ADD SWAP1 DUP2 MSTORE PUSH1 0x20 ADD PUSH0 KECCAK256 DUP2 SWAP1 SSTORE POP PUSH1 0x2 DUP2 SWAP1 DUP1 PUSH1 0x1 DUP2 SLOAD ADD DUP1 DUP3 SSTORE DUP1 SWAP2 POP POP PUSH1 0x1 SWAP1 SUB SWAP1 PUSH0 MSTORE PUSH1 0x20 PUSH0 KECCAK256 ADD PUSH0 SWAP1 SWAP2 SWAP1 SWAP2 SWAP1 SWAP2 PUSH2 0x100 EXP DUP2 SLOAD DUP2 PUSH20 0xFFFFFFFFFFFFFFFFFFFFFFFFFFFFFFFFFFFFFFFF MUL NOT AND SWAP1 DUP4 PUSH20 0xFFFFFFFFFFFFFFFFFFFFFFFFFFFFFFFFFFFFFFFF AND MUL OR SWAP1 SSTORE POP POP POP PUSH2 0x1E8 JUMP JUMPDEST PUSH0 DUP1 REVERT JUMPDEST PUSH0 DUP2 SWAP1 POP SWAP2 SWAP1 POP JUMP JUMPDEST PUSH2 0x12F DUP2 PUSH2 0x11D JUMP JUMPDEST DUP2 EQ PUSH2 0x139 JUMPI PUSH0 DUP1 REVERT JUMPDEST POP JUMP JUMPDEST PUSH0 DUP2 MLOAD SWAP1 POP PUSH2 0x14A DUP2 PUSH2 0x126 JUMP JUMPDEST SWAP3 SWAP2 POP POP JUMP JUMPDEST PUSH0 PUSH20 0xFFFFFFFFFFFFFFFFFFFFFFFFFFFFFFFFFFFFFFFF DUP3 AND SWAP1 POP SWAP2 SWAP1 POP JUMP JUMPDEST PUSH0 PUSH2 0x179 DUP3 PUSH2 0x150 JUMP JUMPDEST SWAP1 POP SWAP2 SWAP1 POP JUMP JUMPDEST PUSH2 0x189 DUP2 PUSH2 0x16F JUMP JUMPDEST DUP2 EQ PUSH2 0x193 JUMPI PUSH0 DUP1 REVERT JUMPDEST POP JUMP JUMPDEST PUSH0 DUP2 MLOAD SWAP1 POP PUSH2 0x1A4 DUP2 PUSH2 0x180 JUMP JUMPDEST SWAP3 SWAP2 POP POP JUMP JUMPDEST PUSH0 DUP1 PUSH1 0x40 DUP4 DUP6 SUB SLT ISZERO PUSH2 0x1C0 JUMPI PUSH2 0x1BF PUSH2 0x119 JUMP JUMPDEST JUMPDEST PUSH0 PUSH2 0x1CD DUP6 DUP3 DUP7 ADD PUSH2 0x13C JUMP JUMPDEST SWAP3 POP POP PUSH1 0x20 PUSH2 0x1DE DUP6 DUP3 DUP7 ADD PUSH2 0x196 JUMP JUMPDEST SWAP2 POP POP SWAP3 POP SWAP3 SWAP1 POP JUMP JUMPDEST PUSH2 0x8B2 DUP1 PUSH2 0x1F5 PUSH0 CODECOPY PUSH0 RETURN INVALID PUSH1 0x80 PUSH1 0x40 MSTORE CALLVALUE DUP1 ISZERO PUSH2 0xF JUMPI PUSH0 DUP1 REVERT JUMPDEST POP PUSH1 0x4 CALLDATASIZE LT PUSH2 0x4A JUMPI PUSH0 CALLDATALOAD PUSH1 0xE0 SHR DUP1 PUSH4 0x5FE8E7CC EQ PUSH2 0x4E JUMPI DUP1 PUSH4 0x70A08231 EQ PUSH2 0x6C JUMPI DUP1 PUSH4 0x8DA5CB5B EQ PUSH2 0x9C JUMPI DUP1 PUSH4 0x8FCB4E5B EQ PUSH2 0xBA JUMPI JUMPDEST PUSH0 DUP1 REVERT JUMPDEST PUSH2 0x56 PUSH2 0xD6 JUMP JUMPDEST PUSH1 0x40 MLOAD PUSH2 0x63 SWAP2 SWAP1 PUSH2 0x5E6 JUMP JUMPDEST PUSH1 0x40 MLOAD DUP1 SWAP2 SUB SWAP1 RETURN JUMPDEST PUSH2 0x86 PUSH1 0x4 DUP1 CALLDATASIZE SUB DUP2 ADD SWAP1 PUSH2 0x81 SWAP2 SWAP1 PUSH2 0x634 JUMP JUMPDEST PUSH2 0x254 JUMP JUMPDEST PUSH1 0x40 MLOAD PUSH2 0x93 SWAP2 SWAP1 PUSH2 0x66E JUMP JUMPDEST PUSH1 0x40 MLOAD DUP1 SWAP2 SUB SWAP1 RETURN JUMPDEST PUSH2 0xA4 PUSH2 0x29A JUMP JUMPDEST PUSH1 0x40 MLOAD PUSH2 0xB1 SWAP2 SWAP1 PUSH2 0x696 JUMP JUMPDEST PUSH1 0x40 MLOAD DUP1 SWAP2 SUB SWAP1 RETURN JUMPDEST PUSH2 0xD4 PUSH1 0x4 DUP1 CALLDATASIZE SUB DUP2 ADD SWAP1 PUSH2 0xCF SWAP2 SWAP1 PUSH2 0x6D9 JUMP JUMPDEST PUSH2 0x2BD JUMP JUMPDEST STOP JUMPDEST PUSH1 0x60 PUSH0 PUSH1 0x2 DUP1 SLOAD SWAP1 POP PUSH8 0xFFFFFFFFFFFFFFFF DUP2 GT ISZERO PUSH2 0xF8 JUMPI PUSH2 0xF7 PUSH2 0x717 JUMP JUMPDEST JUMPDEST PUSH1 0x40 MLOAD SWAP1 DUP1 DUP3 MSTORE DUP1 PUSH1 0x20 MUL PUSH1 0x20 ADD DUP3 ADD PUSH1 0x40 MSTORE DUP1 ISZERO PUSH2 0x131 JUMPI DUP2 PUSH1 0x20 ADD JUMPDEST PUSH2 0x11E PUSH2 0x48C JUMP JUMPDEST DUP2 MSTORE PUSH1 0x20 ADD SWAP1 PUSH1 0x1 SWAP1 SUB SWAP1 DUP2 PUSH2 0x116 JUMPI SWAP1 POP JUMPDEST POP SWAP1 POP PUSH0 JUMPDEST PUSH1 0x2 DUP1 SLOAD SWAP1 POP DUP2 LT ISZERO PUSH2 0x24C JUMPI PUSH1 0x40 MLOAD DUP1 PUSH1 0x40 ADD PUSH1 0x40 MSTORE DUP1 PUSH1 0x2 DUP4 DUP2 SLOAD DUP2 LT PUSH2 0x162 JUMPI PUSH2 0x161 PUSH2 0x744 JUMP JUMPDEST JUMPDEST SWAP1 PUSH0 MSTORE PUSH1 0x20 PUSH0 KECCAK256 ADD PUSH0 SWAP1 SLOAD SWAP1 PUSH2 0x100 EXP SWAP1 DIV PUSH20 0xFFFFFFFFFFFFFFFFFFFFFFFFFFFFFFFFFFFFFFFF AND PUSH20 0xFFFFFFFFFFFFFFFFFFFFFFFFFFFFFFFFFFFFFFFF AND DUP2 MSTORE PUSH1 0x20 ADD PUSH1 0x1 PUSH0 PUSH1 0x2 DUP6 DUP2 SLOAD DUP2 LT PUSH2 0x1BC JUMPI PUSH2 0x1BB PUSH2 0x744 JUMP JUMPDEST JUMPDEST SWAP1 PUSH0 MSTORE PUSH1 0x20 PUSH0 KECCAK256 ADD PUSH0 SWAP1 SLOAD SWAP1 PUSH2 0x100 EXP SWAP1 DIV PUSH20 0xFFFFFFFFFFFFFFFFFFFFFFFFFFFFFFFFFFFFFFFF AND PUSH20 0xFFFFFFFFFFFFFFFFFFFFFFFFFFFFFFFFFFFFFFFF AND PUSH20 0xFFFFFFFFFFFFFFFFFFFFFFFFFFFFFFFFFFFFFFFF AND DUP2 MSTORE PUSH1 0x20 ADD SWAP1 DUP2 MSTORE PUSH1 0x20 ADD PUSH0 KECCAK256 SLOAD DUP2 MSTORE POP DUP3 DUP3 DUP2 MLOAD DUP2 LT PUSH2 0x234 JUMPI PUSH2 0x233 PUSH2 0x744 JUMP JUMPDEST JUMPDEST PUSH1 0x20 MUL PUSH1 0x20 ADD ADD DUP2 SWAP1 MSTORE POP DUP1 DUP1 PUSH1 0x1 ADD SWAP2 POP POP PUSH2 0x136 JUMP JUMPDEST POP DUP1 SWAP2 POP POP SWAP1 JUMP JUMPDEST PUSH0 PUSH1 0x1 PUSH0 DUP4 PUSH20 0xFFFFFFFFFFFFFFFFFFFFFFFFFFFFFFFFFFFFFFFF AND PUSH20 0xFFFFFFFFFFFFFFFFFFFFFFFFFFFFFFFFFFFFFFFF AND DUP2 MSTORE PUSH1 0x20 ADD SWAP1 DUP2 MSTORE PUSH1 0x20 ADD PUSH0 KECCAK256 SLOAD SWAP1 POP SWAP2 SWAP1 POP JUMP JUMPDEST PUSH0 DUP1 SLOAD SWAP1 PUSH2 0x100 EXP SWAP1 DIV PUSH20 0xFFFFFFFFFFFFFFFFFFFFFFFFFFFFFFFFFFFFFFFF AND DUP2 JUMP JUMPDEST DUP1 PUSH1 0x1 PUSH0 CALLER PUSH20 0xFFFFFFFFFFFFFFFFFFFFFFFFFFFFFFFFFFFFFFFF AND PUSH20 0xFFFFFFFFFFFFFFFFFFFFFFFFFFFFFFFFFFFFFFFF AND DUP2 MSTORE PUSH1 0x20 ADD SWAP1 DUP2 MSTORE PUSH1 0x20 ADD PUSH0 KECCAK256 SLOAD LT ISZERO PUSH2 0x33D JUMPI PUSH1 0x40 MLOAD PUSH32 0x8C379A000000000000000000000000000000000000000000000000000000000 DUP2 MSTORE PUSH1 0x4 ADD PUSH2 0x334 SWAP1 PUSH2 0x7CB JUMP JUMPDEST PUSH1 0x40 MLOAD DUP1 SWAP2 SUB SWAP1 REVERT JUMPDEST DUP1 PUSH1 0x1 PUSH0 CALLER PUSH20 0xFFFFFFFFFFFFFFFFFFFFFFFFFFFFFFFFFFFFFFFF AND PUSH20 0xFFFFFFFFFFFFFFFFFFFFFFFFFFFFFFFFFFFFFFFF AND DUP2 MSTORE PUSH1 0x20 ADD SWAP1 DUP2 MSTORE PUSH1 0x20 ADD PUSH0 KECCAK256 PUSH0 DUP3 DUP3 SLOAD PUSH2 0x389 SWAP2 SWAP1 PUSH2 0x816 JUMP JUMPDEST SWAP3 POP POP DUP2 SWAP1 SSTORE POP DUP1 PUSH1 0x1 PUSH0 DUP5 PUSH20 0xFFFFFFFFFFFFFFFFFFFFFFFFFFFFFFFFFFFFFFFF AND PUSH20 0xFFFFFFFFFFFFFFFFFFFFFFFFFFFFFFFFFFFFFFFF AND DUP2 MSTORE PUSH1 0x20 ADD SWAP1 DUP2 MSTORE PUSH1 0x20 ADD PUSH0 KECCAK256 PUSH0 DUP3 DUP3 SLOAD PUSH2 0x3DC SWAP2 SWAP1 PUSH2 0x849 JUMP JUMPDEST SWAP3 POP POP DUP2 SWAP1 SSTORE POP DUP1 PUSH1 0x1 PUSH0 DUP5 PUSH20 0xFFFFFFFFFFFFFFFFFFFFFFFFFFFFFFFFFFFFFFFF AND PUSH20 0xFFFFFFFFFFFFFFFFFFFFFFFFFFFFFFFFFFFFFFFF AND DUP2 MSTORE PUSH1 0x20 ADD SWAP1 DUP2 MSTORE PUSH1 0x20 ADD PUSH0 KECCAK256 SLOAD SUB PUSH2 0x488 JUMPI PUSH1 0x2 DUP3 SWAP1 DUP1 PUSH1 0x1 DUP2 SLOAD ADD DUP1 DUP3 SSTORE DUP1 SWAP2 POP POP PUSH1 0x1 SWAP1 SUB SWAP1 PUSH0 MSTORE PUSH1 0x20 PUSH0 KECCAK256 ADD PUSH0 SWAP1 SWAP2 SWAP1 SWAP2 SWAP1 SWAP2 PUSH2 0x100 EXP DUP2 SLOAD DUP2 PUSH20 0xFFFFFFFFFFFFFFFFFFFFFFFFFFFFFFFFFFFFFFFF MUL NOT AND SWAP1 DUP4 PUSH20 0xFFFFFFFFFFFFFFFFFFFFFFFFFFFFFFFFFFFFFFFF AND MUL OR SWAP1 SSTORE POP JUMPDEST POP POP JUMP JUMPDEST PUSH1 0x40 MLOAD DUP1 PUSH1 0x40 ADD PUSH1 0x40 MSTORE DUP1 PUSH0 PUSH20 0xFFFFFFFFFFFFFFFFFFFFFFFFFFFFFFFFFFFFFFFF AND DUP2 MSTORE PUSH1 0x20 ADD PUSH0 DUP2 MSTORE POP SWAP1 JUMP JUMPDEST PUSH0 DUP2 MLOAD SWAP1 POP SWAP2 SWAP1 POP JUMP JUMPDEST PUSH0 DUP3 DUP3 MSTORE PUSH1 0x20 DUP3 ADD SWAP1 POP SWAP3 SWAP2 POP POP JUMP JUMPDEST PUSH0 DUP2 SWAP1 POP PUSH1 0x20 DUP3 ADD SWAP1 POP SWAP2 SWAP1 POP JUMP JUMPDEST PUSH0 PUSH20 0xFFFFFFFFFFFFFFFFFFFFFFFFFFFFFFFFFFFFFFFF DUP3 AND SWAP1 POP SWAP2 SWAP1 POP JUMP JUMPDEST PUSH0 PUSH2 0x50C DUP3 PUSH2 0x4E3 JUMP JUMPDEST SWAP1 POP SWAP2 SWAP1 POP JUMP JUMPDEST PUSH2 0x51C DUP2 PUSH2 0x502 JUMP JUMPDEST DUP3 MSTORE POP POP JUMP JUMPDEST PUSH0 DUP2 SWAP1 POP SWAP2 SWAP1 POP JUMP JUMPDEST PUSH2 0x534 DUP2 PUSH2 0x522 JUMP JUMPDEST DUP3 MSTORE POP POP JUMP JUMPDEST PUSH1 0x40 DUP3 ADD PUSH0 DUP3 ADD MLOAD PUSH2 0x54E PUSH0 DUP6 ADD DUP3 PUSH2 0x513 JUMP JUMPDEST POP PUSH1 0x20 DUP3 ADD MLOAD PUSH2 0x561 PUSH1 0x20 DUP6 ADD DUP3 PUSH2 0x52B JUMP JUMPDEST POP POP POP POP JUMP JUMPDEST PUSH0 PUSH2 0x572 DUP4 DUP4 PUSH2 0x53A JUMP JUMPDEST PUSH1 0x40 DUP4 ADD SWAP1 POP SWAP3 SWAP2 POP POP JUMP JUMPDEST PUSH0 PUSH1 0x20 DUP3 ADD SWAP1 POP SWAP2 SWAP1 POP JUMP JUMPDEST PUSH0 PUSH2 0x594 DUP3 PUSH2 0x4BA JUMP JUMPDEST PUSH2 0x59E DUP2 DUP6 PUSH2 0x4C4 JUMP JUMPDEST SWAP4 POP PUSH2 0x5A9 DUP4 PUSH2 0x4D4 JUMP JUMPDEST DUP1 PUSH0 JUMPDEST DUP4 DUP2 LT ISZERO PUSH2 0x5D9 JUMPI DUP2 MLOAD PUSH2 0x5C0 DUP9 DUP3 PUSH2 0x567 JUMP JUMPDEST SWAP8 POP PUSH2 0x5CB DUP4 PUSH2 0x57E JUMP JUMPDEST SWAP3 POP POP PUSH1 0x1 DUP2 ADD SWAP1 POP PUSH2 0x5AC JUMP JUMPDEST POP DUP6 SWAP4 POP POP POP POP SWAP3 SWAP2 POP POP JUMP JUMPDEST PUSH0 PUSH1 0x20 DUP3 ADD SWAP1 POP DUP2 DUP2 SUB PUSH0 DUP4 ADD MSTORE PUSH2 0x5FE DUP2 DUP5 PUSH2 0x58A JUMP JUMPDEST SWAP1 POP SWAP3 SWAP2 POP POP JUMP JUMPDEST PUSH0 DUP1 REVERT JUMPDEST PUSH2 0x613 DUP2 PUSH2 0x502 JUMP JUMPDEST DUP2 EQ PUSH2 0x61D JUMPI PUSH0 DUP1 REVERT JUMPDEST POP JUMP JUMPDEST PUSH0 DUP2 CALLDATALOAD SWAP1 POP PUSH2 0x62E DUP2 PUSH2 0x60A JUMP JUMPDEST SWAP3 SWAP2 POP POP JUMP JUMPDEST PUSH0 PUSH1 0x20 DUP3 DUP5 SUB SLT ISZERO PUSH2 0x649 JUMPI PUSH2 0x648 PUSH2 0x606 JUMP JUMPDEST JUMPDEST PUSH0 PUSH2 0x656 DUP5 DUP3 DUP6 ADD PUSH2 0x620 JUMP JUMPDEST SWAP2 POP POP SWAP3 SWAP2 POP POP JUMP JUMPDEST PUSH2 0x668 DUP2 PUSH2 0x522 JUMP JUMPDEST DUP3 MSTORE POP POP JUMP JUMPDEST PUSH0 PUSH1 0x20 DUP3 ADD SWAP1 POP PUSH2 0x681 PUSH0 DUP4 ADD DUP5 PUSH2 0x65F JUMP JUMPDEST SWAP3 SWAP2 POP POP JUMP JUMPDEST PUSH2 0x690 DUP2 PUSH2 0x502 JUMP JUMPDEST DUP3 MSTORE POP POP JUMP JUMPDEST PUSH0 PUSH1 0x20 DUP3 ADD SWAP1 POP PUSH2 0x6A9 PUSH0 DUP4 ADD DUP5 PUSH2 0x687 JUMP JUMPDEST SWAP3 SWAP2 POP POP JUMP JUMPDEST PUSH2 0x6B8 DUP2 PUSH2 0x522 JUMP JUMPDEST DUP2 EQ PUSH2 0x6C2 JUMPI PUSH0 DUP1 REVERT JUMPDEST POP JUMP JUMPDEST PUSH0 DUP2 CALLDATALOAD SWAP1 POP PUSH2 0x6D3 DUP2 PUSH2 0x6AF JUMP JUMPDEST SWAP3 SWAP2 POP POP JUMP JUMPDEST PUSH0 DUP1 PUSH1 0x40 DUP4 DUP6 SUB SLT ISZERO PUSH2 0x6EF JUMPI PUSH2 0x6EE PUSH2 0x606 JUMP JUMPDEST JUMPDEST PUSH0 PUSH2 0x6FC DUP6 DUP3 DUP7 ADD PUSH2 0x620 JUMP JUMPDEST SWAP3 POP POP PUSH1 0x20 PUSH2 0x70D DUP6 DUP3 DUP7 ADD PUSH2 0x6C5 JUMP JUMPDEST SWAP2 POP POP SWAP3 POP SWAP3 SWAP1 POP JUMP JUMPDEST PUSH32 0x4E487B7100000000000000000000000000000000000000000000000000000000 PUSH0 MSTORE PUSH1 0x41 PUSH1 0x4 MSTORE PUSH1 0x24 PUSH0 REVERT JUMPDEST PUSH32 0x4E487B7100000000000000000000000000000000000000000000000000000000 PUSH0 MSTORE PUSH1 0x32 PUSH1 0x4 MSTORE PUSH1 0x24 PUSH0 REVERT JUMPDEST PUSH0 DUP3 DUP3 MSTORE PUSH1 0x20 DUP3 ADD SWAP1 POP SWAP3 SWAP2 POP POP JUMP JUMPDEST PUSH32 0x496E73756666696369656E742073686172657300000000000000000000000000 PUSH0 DUP3 ADD MSTORE POP JUMP JUMPDEST PUSH0 PUSH2 0x7B5 PUSH1 0x13 DUP4 PUSH2 0x771 JUMP JUMPDEST SWAP2 POP PUSH2 0x7C0 DUP3 PUSH2 0x781 JUMP JUMPDEST PUSH1 0x20 DUP3 ADD SWAP1 POP SWAP2 SWAP1 POP JUMP JUMPDEST PUSH0 PUSH1 0x20 DUP3 ADD SWAP1 POP DUP2 DUP2 SUB PUSH0 DUP4 ADD MSTORE PUSH2 0x7E2 DUP2 PUSH2 0x7A9 JUMP JUMPDEST SWAP1 POP SWAP2 SWAP1 POP JUMP JUMPDEST PUSH32 0x4E487B7100000000000000000000000000000000000000000000000000000000 PUSH0 MSTORE PUSH1 0x11 PUSH1 0x4 MSTORE PUSH1 0x24 PUSH0 REVERT JUMPDEST PUSH0 PUSH2 0x820 DUP3 PUSH2 0x522 JUMP JUMPDEST SWAP2 POP PUSH2 0x82B DUP4 PUSH2 0x522 JUMP JUMPDEST SWAP3 POP DUP3 DUP3 SUB SWAP1 POP DUP2 DUP2 GT ISZERO PUSH2 0x843 JUMPI PUSH2 0x842 PUSH2 0x7E9 JUMP JUMPDEST JUMPDEST SWAP3 SWAP2 POP POP JUMP JUMPDEST PUSH0 PUSH2 0x853 DUP3 PUSH2 0x522 JUMP JUMPDEST SWAP2 POP PUSH2 0x85E DUP4 PUSH2 0x522 JUMP JUMPDEST SWAP3 POP DUP3 DUP3 ADD SWAP1 POP DUP1 DUP3 GT ISZERO PUSH2 0x876 JUMPI PUSH2 0x875 PUSH2 0x7E9 JUMP JUMPDEST JUMPDEST SWAP3 SWAP2 POP POP JUMP INVALID LOG2 PUSH5 0x6970667358 0x22 SLT KECCAK256 EXTCODEHASH 0x2B CREATE 0x22 0xE6 SELFDESTRUCT 0xD5 ADDMOD TSTORE 0x2C 0xB9 0xF9 0xAE PUSH31 0xFC26CCB56CD88CE3625A41FCC069A8C49C5664736F6C634300081800330000 "
				},
				"gasEstimates": {
					"creation": {
						"codeDepositCost": "445200",
						"executionCost": "infinite",
						"totalCost": "infinite"
					},
					"external": {
						"balanceOf(address)": "2829",
						"getHolders()": "infinite",
						"owner()": "2527",
						"transferShares(address,uint256)": "infinite"
					}
				},
				"methodIdentifiers": {
					"balanceOf(address)": "70a08231",
					"getHolders()": "5fe8e7cc",
					"owner()": "8da5cb5b",
					"transferShares(address,uint256)": "8fcb4e5b"
				}
			},
			"storageLayout": {
				"storage": [
					{
						"astId": 3,
						"contract": "aquo/AquoAssetTransferv3.sol:AssetContract",
						"label": "owner",
						"offset": 0,
						"slot": "0",
						"type": "t_address"
					},
					{
						"astId": 7,
						"contract": "aquo/AquoAssetTransferv3.sol:AssetContract",
						"label": "shareBalances",
						"offset": 0,
						"slot": "1",
						"type": "t_mapping(t_address,t_uint256)"
					},
					{
						"astId": 10,
						"contract": "aquo/AquoAssetTransferv3.sol:AssetContract",
						"label": "holderAddresses",
						"offset": 0,
						"slot": "2",
						"type": "t_array(t_address)dyn_storage"
					}
				],
				"types": {
					"t_address": {
						"encoding": "inplace",
						"label": "address",
						"numberOfBytes": "20"
					},
					"t_array(t_address)dyn_storage": {
						"base": "t_address",
						"encoding": "dynamic_array",
						"label": "address[]",
						"numberOfBytes": "32"
					},
					"t_mapping(t_address,t_uint256)": {
						"encoding": "mapping",
						"key": "t_address",
						"label": "mapping(address => uint256)",
						"numberOfBytes": "32",
						"value": "t_uint256"
					},
					"t_uint256": {
						"encoding": "inplace",
						"label": "uint256",
						"numberOfBytes": "32"
					}
				}
			},
			"userdoc": {
				"kind": "user",
				"methods": {},
				"version": 1
			}
		}
	}
}