{
	"aquo/DAO.sol": {
		"DAO": {
			"abi": [
				{
					"inputs": [
						{
							"internalType": "address",
							"name": "_rwaTokenizationContract",
							"type": "address"
						}
					],
					"stateMutability": "nonpayable",
					"type": "constructor"
				},
				{
					"anonymous": false,
					"inputs": [
						{
							"indexed": true,
							"internalType": "uint256",
							"name": "proposalId",
							"type": "uint256"
						},
						{
							"indexed": true,
							"internalType": "address",
							"name": "proposer",
							"type": "address"
						},
						{
							"indexed": false,
							"internalType": "address",
							"name": "poolContract",
							"type": "address"
						},
						{
							"indexed": false,
							"internalType": "uint256",
							"name": "dilution",
							"type": "uint256"
						}
					],
					"name": "ProposalCreated",
					"type": "event"
				},
				{
					"anonymous": false,
					"inputs": [
						{
							"indexed": true,
							"internalType": "uint256",
							"name": "proposalId",
							"type": "uint256"
						},
						{
							"indexed": false,
							"internalType": "bool",
							"name": "outcome",
							"type": "bool"
						}
					],
					"name": "ProposalExecuted",
					"type": "event"
				},
				{
					"anonymous": false,
					"inputs": [
						{
							"indexed": true,
							"internalType": "uint256",
							"name": "proposalId",
							"type": "uint256"
						},
						{
							"indexed": true,
							"internalType": "address",
							"name": "voter",
							"type": "address"
						},
						{
							"indexed": false,
							"internalType": "bool",
							"name": "vote",
							"type": "bool"
						}
					],
					"name": "Voted",
					"type": "event"
				},
				{
					"inputs": [
						{
							"internalType": "address",
							"name": "_poolContract",
							"type": "address"
						},
						{
							"internalType": "uint256",
							"name": "_dilution",
							"type": "uint256"
						}
					],
					"name": "createProposal",
					"outputs": [],
					"stateMutability": "nonpayable",
					"type": "function"
				},
				{
					"inputs": [
						{
							"internalType": "uint256",
							"name": "_proposalId",
							"type": "uint256"
						}
					],
					"name": "executeProposal",
					"outputs": [],
					"stateMutability": "nonpayable",
					"type": "function"
				},
				{
					"inputs": [
						{
							"internalType": "uint256",
							"name": "_proposalId",
							"type": "uint256"
						}
					],
					"name": "getProposalOutcome",
					"outputs": [
						{
							"internalType": "bool",
							"name": "outcome",
							"type": "bool"
						},
						{
							"internalType": "bool",
							"name": "executed",
							"type": "bool"
						}
					],
					"stateMutability": "view",
					"type": "function"
				},
				{
					"inputs": [
						{
							"internalType": "uint256",
							"name": "",
							"type": "uint256"
						},
						{
							"internalType": "address",
							"name": "",
							"type": "address"
						}
					],
					"name": "hasVoted",
					"outputs": [
						{
							"internalType": "bool",
							"name": "",
							"type": "bool"
						}
					],
					"stateMutability": "view",
					"type": "function"
				},
				{
					"inputs": [
						{
							"internalType": "uint256",
							"name": "",
							"type": "uint256"
						}
					],
					"name": "proposals",
					"outputs": [
						{
							"internalType": "address",
							"name": "proposer",
							"type": "address"
						},
						{
							"internalType": "address",
							"name": "poolContract",
							"type": "address"
						},
						{
							"internalType": "uint256",
							"name": "dilution",
							"type": "uint256"
						},
						{
							"internalType": "uint256",
							"name": "yesVotes",
							"type": "uint256"
						},
						{
							"internalType": "uint256",
							"name": "noVotes",
							"type": "uint256"
						},
						{
							"internalType": "bool",
							"name": "executed",
							"type": "bool"
						},
						{
							"internalType": "bool",
							"name": "outcome",
							"type": "bool"
						}
					],
					"stateMutability": "view",
					"type": "function"
				},
				{
					"inputs": [],
					"name": "rwaTokenizationContract",
					"outputs": [
						{
							"internalType": "contract IRWATokenization",
							"name": "",
							"type": "address"
						}
					],
					"stateMutability": "view",
					"type": "function"
				},
				{
					"inputs": [
						{
							"internalType": "uint256",
							"name": "_proposalId",
							"type": "uint256"
						},
						{
							"internalType": "bool",
							"name": "_vote",
							"type": "bool"
						}
					],
					"name": "vote",
					"outputs": [],
					"stateMutability": "nonpayable",
					"type": "function"
				}
			],
			"devdoc": {
				"kind": "dev",
				"methods": {},
				"version": 1
			},
			"evm": {
				"assembly": "    /* \"aquo/DAO.sol\":240:3504  contract DAO {... */\n  mstore(0x40, 0x80)\n    /* \"aquo/DAO.sol\":1224:1357  constructor(address _rwaTokenizationContract) {... */\n  callvalue\n  dup1\n  iszero\n  tag_1\n  jumpi\n  0x00\n  dup1\n  revert\ntag_1:\n  pop\n  mload(0x40)\n  sub(codesize, bytecodeSize)\n  dup1\n  bytecodeSize\n  dup4\n  codecopy\n  dup2\n  dup2\n  add\n  0x40\n  mstore\n  dup2\n  add\n  swap1\n  tag_2\n  swap2\n  swap1\n  tag_3\n  jump\t// in\ntag_2:\n    /* \"aquo/DAO.sol\":1324:1348  _rwaTokenizationContract */\n  dup1\n    /* \"aquo/DAO.sol\":1281:1304  rwaTokenizationContract */\n  0x01\n  0x00\n    /* \"aquo/DAO.sol\":1281:1349  rwaTokenizationContract = IRWATokenization(_rwaTokenizationContract) */\n  0x0100\n  exp\n  dup2\n  sload\n  dup2\n  0xffffffffffffffffffffffffffffffffffffffff\n  mul\n  not\n  and\n  swap1\n  dup4\n  0xffffffffffffffffffffffffffffffffffffffff\n  and\n  mul\n  or\n  swap1\n  sstore\n  pop\n    /* \"aquo/DAO.sol\":1224:1357  constructor(address _rwaTokenizationContract) {... */\n  pop\n    /* \"aquo/DAO.sol\":240:3504  contract DAO {... */\n  jump(tag_6)\n    /* \"#utility.yul\":88:205   */\ntag_8:\n    /* \"#utility.yul\":197:198   */\n  0x00\n    /* \"#utility.yul\":194:195   */\n  dup1\n    /* \"#utility.yul\":187:199   */\n  revert\n    /* \"#utility.yul\":334:460   */\ntag_10:\n    /* \"#utility.yul\":371:378   */\n  0x00\n    /* \"#utility.yul\":411:453   */\n  0xffffffffffffffffffffffffffffffffffffffff\n    /* \"#utility.yul\":404:409   */\n  dup3\n    /* \"#utility.yul\":400:454   */\n  and\n    /* \"#utility.yul\":389:454   */\n  swap1\n  pop\n    /* \"#utility.yul\":334:460   */\n  swap2\n  swap1\n  pop\n  jump\t// out\n    /* \"#utility.yul\":466:562   */\ntag_11:\n    /* \"#utility.yul\":503:510   */\n  0x00\n    /* \"#utility.yul\":532:556   */\n  tag_20\n    /* \"#utility.yul\":550:555   */\n  dup3\n    /* \"#utility.yul\":532:556   */\n  tag_10\n  jump\t// in\ntag_20:\n    /* \"#utility.yul\":521:556   */\n  swap1\n  pop\n    /* \"#utility.yul\":466:562   */\n  swap2\n  swap1\n  pop\n  jump\t// out\n    /* \"#utility.yul\":568:690   */\ntag_12:\n    /* \"#utility.yul\":641:665   */\n  tag_22\n    /* \"#utility.yul\":659:664   */\n  dup2\n    /* \"#utility.yul\":641:665   */\n  tag_11\n  jump\t// in\ntag_22:\n    /* \"#utility.yul\":634:639   */\n  dup2\n    /* \"#utility.yul\":631:666   */\n  eq\n    /* \"#utility.yul\":621:684   */\n  tag_23\n  jumpi\n    /* \"#utility.yul\":680:681   */\n  0x00\n    /* \"#utility.yul\":677:678   */\n  dup1\n    /* \"#utility.yul\":670:682   */\n  revert\n    /* \"#utility.yul\":621:684   */\ntag_23:\n    /* \"#utility.yul\":568:690   */\n  pop\n  jump\t// out\n    /* \"#utility.yul\":696:839   */\ntag_13:\n    /* \"#utility.yul\":753:758   */\n  0x00\n    /* \"#utility.yul\":784:790   */\n  dup2\n    /* \"#utility.yul\":778:791   */\n  mload\n    /* \"#utility.yul\":769:791   */\n  swap1\n  pop\n    /* \"#utility.yul\":800:833   */\n  tag_25\n    /* \"#utility.yul\":827:832   */\n  dup2\n    /* \"#utility.yul\":800:833   */\n  tag_12\n  jump\t// in\ntag_25:\n    /* \"#utility.yul\":696:839   */\n  swap3\n  swap2\n  pop\n  pop\n  jump\t// out\n    /* \"#utility.yul\":845:1196   */\ntag_3:\n    /* \"#utility.yul\":915:921   */\n  0x00\n    /* \"#utility.yul\":964:966   */\n  0x20\n    /* \"#utility.yul\":952:961   */\n  dup3\n    /* \"#utility.yul\":943:950   */\n  dup5\n    /* \"#utility.yul\":939:962   */\n  sub\n    /* \"#utility.yul\":935:967   */\n  slt\n    /* \"#utility.yul\":932:1051   */\n  iszero\n  tag_27\n  jumpi\n    /* \"#utility.yul\":970:1049   */\n  tag_28\n  tag_8\n  jump\t// in\ntag_28:\n    /* \"#utility.yul\":932:1051   */\ntag_27:\n    /* \"#utility.yul\":1090:1091   */\n  0x00\n    /* \"#utility.yul\":1115:1179   */\n  tag_29\n    /* \"#utility.yul\":1171:1178   */\n  dup5\n    /* \"#utility.yul\":1162:1168   */\n  dup3\n    /* \"#utility.yul\":1151:1160   */\n  dup6\n    /* \"#utility.yul\":1147:1169   */\n  add\n    /* \"#utility.yul\":1115:1179   */\n  tag_13\n  jump\t// in\ntag_29:\n    /* \"#utility.yul\":1105:1179   */\n  swap2\n  pop\n    /* \"#utility.yul\":1061:1189   */\n  pop\n    /* \"#utility.yul\":845:1196   */\n  swap3\n  swap2\n  pop\n  pop\n  jump\t// out\n    /* \"aquo/DAO.sol\":240:3504  contract DAO {... */\ntag_6:\n  dataSize(sub_0)\n  dup1\n  dataOffset(sub_0)\n  0x00\n  codecopy\n  0x00\n  return\nstop\n\nsub_0: assembly {\n        /* \"aquo/DAO.sol\":240:3504  contract DAO {... */\n      mstore(0x40, 0x80)\n      callvalue\n      dup1\n      iszero\n      tag_1\n      jumpi\n      0x00\n      dup1\n      revert\n    tag_1:\n      pop\n      jumpi(tag_2, lt(calldatasize, 0x04))\n      shr(0xe0, calldataload(0x00))\n      dup1\n      0x43859632\n      gt\n      tag_10\n      jumpi\n      dup1\n      0x43859632\n      eq\n      tag_6\n      jumpi\n      dup1\n      0x6fdb6f7c\n      eq\n      tag_7\n      jumpi\n      dup1\n      0xc9d27afe\n      eq\n      tag_8\n      jumpi\n      dup1\n      0xdfc51a25\n      eq\n      tag_9\n      jumpi\n      jump(tag_2)\n    tag_10:\n      dup1\n      0x013cf08b\n      eq\n      tag_3\n      jumpi\n      dup1\n      0x0d61b519\n      eq\n      tag_4\n      jumpi\n      dup1\n      0x25fdf6b1\n      eq\n      tag_5\n      jumpi\n    tag_2:\n      0x00\n      dup1\n      revert\n        /* \"aquo/DAO.sol\":732:759  Proposal[] public proposals */\n    tag_3:\n      tag_11\n      0x04\n      dup1\n      calldatasize\n      sub\n      dup2\n      add\n      swap1\n      tag_12\n      swap2\n      swap1\n      tag_13\n      jump\t// in\n    tag_12:\n      tag_14\n      jump\t// in\n    tag_11:\n      mload(0x40)\n      tag_15\n      swap8\n      swap7\n      swap6\n      swap5\n      swap4\n      swap3\n      swap2\n      swap1\n      tag_16\n      jump\t// in\n    tag_15:\n      mload(0x40)\n      dup1\n      swap2\n      sub\n      swap1\n      return\n        /* \"aquo/DAO.sol\":2747:3126  function executeProposal(uint _proposalId) public {... */\n    tag_4:\n      tag_17\n      0x04\n      dup1\n      calldatasize\n      sub\n      dup2\n      add\n      swap1\n      tag_18\n      swap2\n      swap1\n      tag_13\n      jump\t// in\n    tag_18:\n      tag_19\n      jump\t// in\n    tag_17:\n      stop\n        /* \"aquo/DAO.sol\":766:813  IRWATokenization public rwaTokenizationContract */\n    tag_5:\n      tag_20\n      tag_21\n      jump\t// in\n    tag_20:\n      mload(0x40)\n      tag_22\n      swap2\n      swap1\n      tag_23\n      jump\t// in\n    tag_22:\n      mload(0x40)\n      dup1\n      swap2\n      sub\n      swap1\n      return\n        /* \"aquo/DAO.sol\":845:902  mapping(uint => mapping(address => bool)) public hasVoted */\n    tag_6:\n      tag_24\n      0x04\n      dup1\n      calldatasize\n      sub\n      dup2\n      add\n      swap1\n      tag_25\n      swap2\n      swap1\n      tag_26\n      jump\t// in\n    tag_25:\n      tag_27\n      jump\t// in\n    tag_24:\n      mload(0x40)\n      tag_28\n      swap2\n      swap1\n      tag_29\n      jump\t// in\n    tag_28:\n      mload(0x40)\n      dup1\n      swap2\n      sub\n      swap1\n      return\n        /* \"aquo/DAO.sol\":3204:3501  function getProposalOutcome(uint _proposalId) public view returns (bool outcome, bool executed) {... */\n    tag_7:\n      tag_30\n      0x04\n      dup1\n      calldatasize\n      sub\n      dup2\n      add\n      swap1\n      tag_31\n      swap2\n      swap1\n      tag_13\n      jump\t// in\n    tag_31:\n      tag_32\n      jump\t// in\n    tag_30:\n      mload(0x40)\n      tag_33\n      swap3\n      swap2\n      swap1\n      tag_34\n      jump\t// in\n    tag_33:\n      mload(0x40)\n      dup1\n      swap2\n      sub\n      swap1\n      return\n        /* \"aquo/DAO.sol\":2049:2739  function vote(uint _proposalId, bool _vote) public onlyTokenHolder {... */\n    tag_8:\n      tag_35\n      0x04\n      dup1\n      calldatasize\n      sub\n      dup2\n      add\n      swap1\n      tag_36\n      swap2\n      swap1\n      tag_37\n      jump\t// in\n    tag_36:\n      tag_38\n      jump\t// in\n    tag_35:\n      stop\n        /* \"aquo/DAO.sol\":1511:2041  function createProposal(address _poolContract, uint _dilution) public onlyTokenHolder {... */\n    tag_9:\n      tag_39\n      0x04\n      dup1\n      calldatasize\n      sub\n      dup2\n      add\n      swap1\n      tag_40\n      swap2\n      swap1\n      tag_41\n      jump\t// in\n    tag_40:\n      tag_42\n      jump\t// in\n    tag_39:\n      stop\n        /* \"aquo/DAO.sol\":732:759  Proposal[] public proposals */\n    tag_14:\n      0x00\n      dup2\n      dup2\n      sload\n      dup2\n      lt\n      tag_43\n      jumpi\n      0x00\n      dup1\n      revert\n    tag_43:\n      swap1\n      0x00\n      mstore\n      keccak256(0x00, 0x20)\n      swap1\n      0x06\n      mul\n      add\n      0x00\n      swap2\n      pop\n      swap1\n      pop\n      dup1\n      0x00\n      add\n      0x00\n      swap1\n      sload\n      swap1\n      0x0100\n      exp\n      swap1\n      div\n      0xffffffffffffffffffffffffffffffffffffffff\n      and\n      swap1\n      dup1\n      0x01\n      add\n      0x00\n      swap1\n      sload\n      swap1\n      0x0100\n      exp\n      swap1\n      div\n      0xffffffffffffffffffffffffffffffffffffffff\n      and\n      swap1\n      dup1\n      0x02\n      add\n      sload\n      swap1\n      dup1\n      0x03\n      add\n      sload\n      swap1\n      dup1\n      0x04\n      add\n      sload\n      swap1\n      dup1\n      0x05\n      add\n      0x00\n      swap1\n      sload\n      swap1\n      0x0100\n      exp\n      swap1\n      div\n      0xff\n      and\n      swap1\n      dup1\n      0x05\n      add\n      0x01\n      swap1\n      sload\n      swap1\n      0x0100\n      exp\n      swap1\n      div\n      0xff\n      and\n      swap1\n      pop\n      dup8\n      jump\t// out\n        /* \"aquo/DAO.sol\":2747:3126  function executeProposal(uint _proposalId) public {... */\n    tag_19:\n        /* \"aquo/DAO.sol\":2808:2833  Proposal storage proposal */\n      0x00\n        /* \"aquo/DAO.sol\":2836:2845  proposals */\n      dup1\n        /* \"aquo/DAO.sol\":2846:2857  _proposalId */\n      dup3\n        /* \"aquo/DAO.sol\":2836:2858  proposals[_proposalId] */\n      dup2\n      sload\n      dup2\n      lt\n      tag_46\n      jumpi\n      tag_47\n      tag_48\n      jump\t// in\n    tag_47:\n    tag_46:\n      swap1\n      0x00\n      mstore\n      keccak256(0x00, 0x20)\n      swap1\n      0x06\n      mul\n      add\n        /* \"aquo/DAO.sol\":2808:2858  Proposal storage proposal = proposals[_proposalId] */\n      swap1\n      pop\n        /* \"aquo/DAO.sol\":2878:2886  proposal */\n      dup1\n        /* \"aquo/DAO.sol\":2878:2895  proposal.executed */\n      0x05\n      add\n      0x00\n      swap1\n      sload\n      swap1\n      0x0100\n      exp\n      swap1\n      div\n      0xff\n      and\n        /* \"aquo/DAO.sol\":2877:2895  !proposal.executed */\n      iszero\n        /* \"aquo/DAO.sol\":2869:2925  require(!proposal.executed, \"Proposal already executed\") */\n      tag_50\n      jumpi\n      mload(0x40)\n      0x08c379a000000000000000000000000000000000000000000000000000000000\n      dup2\n      mstore\n      0x04\n      add\n      tag_51\n      swap1\n      tag_52\n      jump\t// in\n    tag_51:\n      mload(0x40)\n      dup1\n      swap2\n      sub\n      swap1\n      revert\n    tag_50:\n        /* \"aquo/DAO.sol\":2977:2985  proposal */\n      dup1\n        /* \"aquo/DAO.sol\":2977:2993  proposal.noVotes */\n      0x04\n      add\n      sload\n        /* \"aquo/DAO.sol\":2957:2965  proposal */\n      dup2\n        /* \"aquo/DAO.sol\":2957:2974  proposal.yesVotes */\n      0x03\n      add\n      sload\n        /* \"aquo/DAO.sol\":2957:2993  proposal.yesVotes > proposal.noVotes */\n      gt\n        /* \"aquo/DAO.sol\":2938:2946  proposal */\n      dup2\n        /* \"aquo/DAO.sol\":2938:2954  proposal.outcome */\n      0x05\n      add\n      0x01\n        /* \"aquo/DAO.sol\":2938:2993  proposal.outcome = proposal.yesVotes > proposal.noVotes */\n      0x0100\n      exp\n      dup2\n      sload\n      dup2\n      0xff\n      mul\n      not\n      and\n      swap1\n      dup4\n      iszero\n      iszero\n      mul\n      or\n      swap1\n      sstore\n      pop\n        /* \"aquo/DAO.sol\":3049:3053  true */\n      0x01\n        /* \"aquo/DAO.sol\":3029:3037  proposal */\n      dup2\n        /* \"aquo/DAO.sol\":3029:3046  proposal.executed */\n      0x05\n      add\n      0x00\n        /* \"aquo/DAO.sol\":3029:3053  proposal.executed = true */\n      0x0100\n      exp\n      dup2\n      sload\n      dup2\n      0xff\n      mul\n      not\n      and\n      swap1\n      dup4\n      iszero\n      iszero\n      mul\n      or\n      swap1\n      sstore\n      pop\n        /* \"aquo/DAO.sol\":3088:3099  _proposalId */\n      dup2\n        /* \"aquo/DAO.sol\":3071:3118  ProposalExecuted(_proposalId, proposal.outcome) */\n      0x948f4a9cd986f1118c3fbd459f7a22b23c0693e1ca3ef06a6a8be5aa7d39cc03\n        /* \"aquo/DAO.sol\":3101:3109  proposal */\n      dup3\n        /* \"aquo/DAO.sol\":3101:3117  proposal.outcome */\n      0x05\n      add\n      0x01\n      swap1\n      sload\n      swap1\n      0x0100\n      exp\n      swap1\n      div\n      0xff\n      and\n        /* \"aquo/DAO.sol\":3071:3118  ProposalExecuted(_proposalId, proposal.outcome) */\n      mload(0x40)\n      tag_53\n      swap2\n      swap1\n      tag_29\n      jump\t// in\n    tag_53:\n      mload(0x40)\n      dup1\n      swap2\n      sub\n      swap1\n      log2\n        /* \"aquo/DAO.sol\":2797:3126  {... */\n      pop\n        /* \"aquo/DAO.sol\":2747:3126  function executeProposal(uint _proposalId) public {... */\n      pop\n      jump\t// out\n        /* \"aquo/DAO.sol\":766:813  IRWATokenization public rwaTokenizationContract */\n    tag_21:\n      0x01\n      0x00\n      swap1\n      sload\n      swap1\n      0x0100\n      exp\n      swap1\n      div\n      0xffffffffffffffffffffffffffffffffffffffff\n      and\n      dup2\n      jump\t// out\n        /* \"aquo/DAO.sol\":845:902  mapping(uint => mapping(address => bool)) public hasVoted */\n    tag_27:\n      mstore(0x20, 0x02)\n      dup2\n      0x00\n      mstore\n      mstore(0x20, keccak256(0x00, 0x40))\n      dup1\n      0x00\n      mstore\n      keccak256(0x00, 0x40)\n      0x00\n      swap2\n      pop\n      swap2\n      pop\n      swap1\n      sload\n      swap1\n      0x0100\n      exp\n      swap1\n      div\n      0xff\n      and\n      dup2\n      jump\t// out\n        /* \"aquo/DAO.sol\":3204:3501  function getProposalOutcome(uint _proposalId) public view returns (bool outcome, bool executed) {... */\n    tag_32:\n        /* \"aquo/DAO.sol\":3271:3283  bool outcome */\n      0x00\n        /* \"aquo/DAO.sol\":3285:3298  bool executed */\n      dup1\n        /* \"aquo/DAO.sol\":3333:3342  proposals */\n      0x00\n        /* \"aquo/DAO.sol\":3333:3349  proposals.length */\n      dup1\n      sload\n      swap1\n      pop\n        /* \"aquo/DAO.sol\":3319:3330  _proposalId */\n      dup4\n        /* \"aquo/DAO.sol\":3319:3349  _proposalId < proposals.length */\n      lt\n        /* \"aquo/DAO.sol\":3311:3377  require(_proposalId < proposals.length, \"Proposal does not exist\") */\n      tag_55\n      jumpi\n      mload(0x40)\n      0x08c379a000000000000000000000000000000000000000000000000000000000\n      dup2\n      mstore\n      0x04\n      add\n      tag_56\n      swap1\n      tag_57\n      jump\t// in\n    tag_56:\n      mload(0x40)\n      dup1\n      swap2\n      sub\n      swap1\n      revert\n    tag_55:\n        /* \"aquo/DAO.sol\":3388:3413  Proposal storage proposal */\n      0x00\n        /* \"aquo/DAO.sol\":3416:3425  proposals */\n      dup1\n        /* \"aquo/DAO.sol\":3426:3437  _proposalId */\n      dup5\n        /* \"aquo/DAO.sol\":3416:3438  proposals[_proposalId] */\n      dup2\n      sload\n      dup2\n      lt\n      tag_58\n      jumpi\n      tag_59\n      tag_48\n      jump\t// in\n    tag_59:\n    tag_58:\n      swap1\n      0x00\n      mstore\n      keccak256(0x00, 0x20)\n      swap1\n      0x06\n      mul\n      add\n        /* \"aquo/DAO.sol\":3388:3438  Proposal storage proposal = proposals[_proposalId] */\n      swap1\n      pop\n        /* \"aquo/DAO.sol\":3457:3465  proposal */\n      dup1\n        /* \"aquo/DAO.sol\":3457:3473  proposal.outcome */\n      0x05\n      add\n      0x01\n      swap1\n      sload\n      swap1\n      0x0100\n      exp\n      swap1\n      div\n      0xff\n      and\n        /* \"aquo/DAO.sol\":3475:3483  proposal */\n      dup2\n        /* \"aquo/DAO.sol\":3475:3492  proposal.executed */\n      0x05\n      add\n      0x00\n      swap1\n      sload\n      swap1\n      0x0100\n      exp\n      swap1\n      div\n      0xff\n      and\n        /* \"aquo/DAO.sol\":3449:3493  return (proposal.outcome, proposal.executed) */\n      swap3\n      pop\n      swap3\n      pop\n      pop\n        /* \"aquo/DAO.sol\":3204:3501  function getProposalOutcome(uint _proposalId) public view returns (bool outcome, bool executed) {... */\n      swap2\n      pop\n      swap2\n      jump\t// out\n        /* \"aquo/DAO.sol\":2049:2739  function vote(uint _proposalId, bool _vote) public onlyTokenHolder {... */\n    tag_38:\n        /* \"aquo/DAO.sol\":1459:1460  0 */\n      0x00\n        /* \"aquo/DAO.sol\":1411:1434  rwaTokenizationContract */\n      0x01\n      0x00\n      swap1\n      sload\n      swap1\n      0x0100\n      exp\n      swap1\n      div\n      0xffffffffffffffffffffffffffffffffffffffff\n      and\n        /* \"aquo/DAO.sol\":1411:1444  rwaTokenizationContract.balanceOf */\n      0xffffffffffffffffffffffffffffffffffffffff\n      and\n      0x70a08231\n        /* \"aquo/DAO.sol\":1445:1455  msg.sender */\n      caller\n        /* \"aquo/DAO.sol\":1411:1456  rwaTokenizationContract.balanceOf(msg.sender) */\n      mload(0x40)\n      dup3\n      0xffffffff\n      and\n      0xe0\n      shl\n      dup2\n      mstore\n      0x04\n      add\n      tag_62\n      swap2\n      swap1\n      tag_63\n      jump\t// in\n    tag_62:\n      0x20\n      mload(0x40)\n      dup1\n      dup4\n      sub\n      dup2\n      dup7\n      gas\n      staticcall\n      iszero\n      dup1\n      iszero\n      tag_65\n      jumpi\n      returndatasize\n      0x00\n      dup1\n      returndatacopy\n      revert(0x00, returndatasize)\n    tag_65:\n      pop\n      pop\n      pop\n      pop\n      mload(0x40)\n      returndatasize\n      not(0x1f)\n      0x1f\n      dup3\n      add\n      and\n      dup3\n      add\n      dup1\n      0x40\n      mstore\n      pop\n      dup2\n      add\n      swap1\n      tag_66\n      swap2\n      swap1\n      tag_67\n      jump\t// in\n    tag_66:\n        /* \"aquo/DAO.sol\":1411:1460  rwaTokenizationContract.balanceOf(msg.sender) > 0 */\n      gt\n        /* \"aquo/DAO.sol\":1403:1483  require(rwaTokenizationContract.balanceOf(msg.sender) > 0, \"Not a token holder\") */\n      tag_68\n      jumpi\n      mload(0x40)\n      0x08c379a000000000000000000000000000000000000000000000000000000000\n      dup2\n      mstore\n      0x04\n      add\n      tag_69\n      swap1\n      tag_70\n      jump\t// in\n    tag_69:\n      mload(0x40)\n      dup1\n      swap2\n      sub\n      swap1\n      revert\n    tag_68:\n        /* \"aquo/DAO.sol\":2149:2158  proposals */\n      0x00\n        /* \"aquo/DAO.sol\":2149:2165  proposals.length */\n      dup1\n      sload\n      swap1\n      pop\n        /* \"aquo/DAO.sol\":2135:2146  _proposalId */\n      dup3\n        /* \"aquo/DAO.sol\":2135:2165  _proposalId < proposals.length */\n      lt\n        /* \"aquo/DAO.sol\":2127:2193  require(_proposalId < proposals.length, \"Proposal does not exist\") */\n      tag_72\n      jumpi\n      mload(0x40)\n      0x08c379a000000000000000000000000000000000000000000000000000000000\n      dup2\n      mstore\n      0x04\n      add\n      tag_73\n      swap1\n      tag_57\n      jump\t// in\n    tag_73:\n      mload(0x40)\n      dup1\n      swap2\n      sub\n      swap1\n      revert\n    tag_72:\n        /* \"aquo/DAO.sol\":2213:2221  hasVoted */\n      0x02\n        /* \"aquo/DAO.sol\":2213:2234  hasVoted[_proposalId] */\n      0x00\n        /* \"aquo/DAO.sol\":2222:2233  _proposalId */\n      dup4\n        /* \"aquo/DAO.sol\":2213:2234  hasVoted[_proposalId] */\n      dup2\n      mstore\n      0x20\n      add\n      swap1\n      dup2\n      mstore\n      0x20\n      add\n      0x00\n      keccak256\n        /* \"aquo/DAO.sol\":2213:2246  hasVoted[_proposalId][msg.sender] */\n      0x00\n        /* \"aquo/DAO.sol\":2235:2245  msg.sender */\n      caller\n        /* \"aquo/DAO.sol\":2213:2246  hasVoted[_proposalId][msg.sender] */\n      0xffffffffffffffffffffffffffffffffffffffff\n      and\n      0xffffffffffffffffffffffffffffffffffffffff\n      and\n      dup2\n      mstore\n      0x20\n      add\n      swap1\n      dup2\n      mstore\n      0x20\n      add\n      0x00\n      keccak256\n      0x00\n      swap1\n      sload\n      swap1\n      0x0100\n      exp\n      swap1\n      div\n      0xff\n      and\n        /* \"aquo/DAO.sol\":2212:2246  !hasVoted[_proposalId][msg.sender] */\n      iszero\n        /* \"aquo/DAO.sol\":2204:2281  require(!hasVoted[_proposalId][msg.sender], \"Already voted on this proposal\") */\n      tag_74\n      jumpi\n      mload(0x40)\n      0x08c379a000000000000000000000000000000000000000000000000000000000\n      dup2\n      mstore\n      0x04\n      add\n      tag_75\n      swap1\n      tag_76\n      jump\t// in\n    tag_75:\n      mload(0x40)\n      dup1\n      swap2\n      sub\n      swap1\n      revert\n    tag_74:\n        /* \"aquo/DAO.sol\":2294:2319  Proposal storage proposal */\n      0x00\n        /* \"aquo/DAO.sol\":2322:2331  proposals */\n      dup1\n        /* \"aquo/DAO.sol\":2332:2343  _proposalId */\n      dup4\n        /* \"aquo/DAO.sol\":2322:2344  proposals[_proposalId] */\n      dup2\n      sload\n      dup2\n      lt\n      tag_77\n      jumpi\n      tag_78\n      tag_48\n      jump\t// in\n    tag_78:\n    tag_77:\n      swap1\n      0x00\n      mstore\n      keccak256(0x00, 0x20)\n      swap1\n      0x06\n      mul\n      add\n        /* \"aquo/DAO.sol\":2294:2344  Proposal storage proposal = proposals[_proposalId] */\n      swap1\n      pop\n        /* \"aquo/DAO.sol\":2364:2372  proposal */\n      dup1\n        /* \"aquo/DAO.sol\":2364:2381  proposal.executed */\n      0x05\n      add\n      0x00\n      swap1\n      sload\n      swap1\n      0x0100\n      exp\n      swap1\n      div\n      0xff\n      and\n        /* \"aquo/DAO.sol\":2363:2381  !proposal.executed */\n      iszero\n        /* \"aquo/DAO.sol\":2355:2411  require(!proposal.executed, \"Proposal already executed\") */\n      tag_80\n      jumpi\n      mload(0x40)\n      0x08c379a000000000000000000000000000000000000000000000000000000000\n      dup2\n      mstore\n      0x04\n      add\n      tag_81\n      swap1\n      tag_52\n      jump\t// in\n    tag_81:\n      mload(0x40)\n      dup1\n      swap2\n      sub\n      swap1\n      revert\n    tag_80:\n        /* \"aquo/DAO.sol\":2428:2433  _vote */\n      dup2\n        /* \"aquo/DAO.sol\":2424:2626  if (_vote) {... */\n      iszero\n      tag_82\n      jumpi\n        /* \"aquo/DAO.sol\":2471:2494  rwaTokenizationContract */\n      0x01\n      0x00\n      swap1\n      sload\n      swap1\n      0x0100\n      exp\n      swap1\n      div\n      0xffffffffffffffffffffffffffffffffffffffff\n      and\n        /* \"aquo/DAO.sol\":2471:2504  rwaTokenizationContract.balanceOf */\n      0xffffffffffffffffffffffffffffffffffffffff\n      and\n      0x70a08231\n        /* \"aquo/DAO.sol\":2505:2515  msg.sender */\n      caller\n        /* \"aquo/DAO.sol\":2471:2516  rwaTokenizationContract.balanceOf(msg.sender) */\n      mload(0x40)\n      dup3\n      0xffffffff\n      and\n      0xe0\n      shl\n      dup2\n      mstore\n      0x04\n      add\n      tag_83\n      swap2\n      swap1\n      tag_63\n      jump\t// in\n    tag_83:\n      0x20\n      mload(0x40)\n      dup1\n      dup4\n      sub\n      dup2\n      dup7\n      gas\n      staticcall\n      iszero\n      dup1\n      iszero\n      tag_85\n      jumpi\n      returndatasize\n      0x00\n      dup1\n      returndatacopy\n      revert(0x00, returndatasize)\n    tag_85:\n      pop\n      pop\n      pop\n      pop\n      mload(0x40)\n      returndatasize\n      not(0x1f)\n      0x1f\n      dup3\n      add\n      and\n      dup3\n      add\n      dup1\n      0x40\n      mstore\n      pop\n      dup2\n      add\n      swap1\n      tag_86\n      swap2\n      swap1\n      tag_67\n      jump\t// in\n    tag_86:\n        /* \"aquo/DAO.sol\":2450:2458  proposal */\n      dup2\n        /* \"aquo/DAO.sol\":2450:2467  proposal.yesVotes */\n      0x03\n      add\n      0x00\n        /* \"aquo/DAO.sol\":2450:2516  proposal.yesVotes += rwaTokenizationContract.balanceOf(msg.sender) */\n      dup3\n      dup3\n      sload\n      tag_87\n      swap2\n      swap1\n      tag_88\n      jump\t// in\n    tag_87:\n      swap3\n      pop\n      pop\n      dup2\n      swap1\n      sstore\n      pop\n        /* \"aquo/DAO.sol\":2424:2626  if (_vote) {... */\n      jump(tag_89)\n    tag_82:\n        /* \"aquo/DAO.sol\":2569:2592  rwaTokenizationContract */\n      0x01\n      0x00\n      swap1\n      sload\n      swap1\n      0x0100\n      exp\n      swap1\n      div\n      0xffffffffffffffffffffffffffffffffffffffff\n      and\n        /* \"aquo/DAO.sol\":2569:2602  rwaTokenizationContract.balanceOf */\n      0xffffffffffffffffffffffffffffffffffffffff\n      and\n      0x70a08231\n        /* \"aquo/DAO.sol\":2603:2613  msg.sender */\n      caller\n        /* \"aquo/DAO.sol\":2569:2614  rwaTokenizationContract.balanceOf(msg.sender) */\n      mload(0x40)\n      dup3\n      0xffffffff\n      and\n      0xe0\n      shl\n      dup2\n      mstore\n      0x04\n      add\n      tag_90\n      swap2\n      swap1\n      tag_63\n      jump\t// in\n    tag_90:\n      0x20\n      mload(0x40)\n      dup1\n      dup4\n      sub\n      dup2\n      dup7\n      gas\n      staticcall\n      iszero\n      dup1\n      iszero\n      tag_92\n      jumpi\n      returndatasize\n      0x00\n      dup1\n      returndatacopy\n      revert(0x00, returndatasize)\n    tag_92:\n      pop\n      pop\n      pop\n      pop\n      mload(0x40)\n      returndatasize\n      not(0x1f)\n      0x1f\n      dup3\n      add\n      and\n      dup3\n      add\n      dup1\n      0x40\n      mstore\n      pop\n      dup2\n      add\n      swap1\n      tag_93\n      swap2\n      swap1\n      tag_67\n      jump\t// in\n    tag_93:\n        /* \"aquo/DAO.sol\":2549:2557  proposal */\n      dup2\n        /* \"aquo/DAO.sol\":2549:2565  proposal.noVotes */\n      0x04\n      add\n      0x00\n        /* \"aquo/DAO.sol\":2549:2614  proposal.noVotes += rwaTokenizationContract.balanceOf(msg.sender) */\n      dup3\n      dup3\n      sload\n      tag_94\n      swap2\n      swap1\n      tag_88\n      jump\t// in\n    tag_94:\n      swap3\n      pop\n      pop\n      dup2\n      swap1\n      sstore\n      pop\n        /* \"aquo/DAO.sol\":2424:2626  if (_vote) {... */\n    tag_89:\n        /* \"aquo/DAO.sol\":2674:2678  true */\n      0x01\n        /* \"aquo/DAO.sol\":2638:2646  hasVoted */\n      0x02\n        /* \"aquo/DAO.sol\":2638:2659  hasVoted[_proposalId] */\n      0x00\n        /* \"aquo/DAO.sol\":2647:2658  _proposalId */\n      dup6\n        /* \"aquo/DAO.sol\":2638:2659  hasVoted[_proposalId] */\n      dup2\n      mstore\n      0x20\n      add\n      swap1\n      dup2\n      mstore\n      0x20\n      add\n      0x00\n      keccak256\n        /* \"aquo/DAO.sol\":2638:2671  hasVoted[_proposalId][msg.sender] */\n      0x00\n        /* \"aquo/DAO.sol\":2660:2670  msg.sender */\n      caller\n        /* \"aquo/DAO.sol\":2638:2671  hasVoted[_proposalId][msg.sender] */\n      0xffffffffffffffffffffffffffffffffffffffff\n      and\n      0xffffffffffffffffffffffffffffffffffffffff\n      and\n      dup2\n      mstore\n      0x20\n      add\n      swap1\n      dup2\n      mstore\n      0x20\n      add\n      0x00\n      keccak256\n      0x00\n        /* \"aquo/DAO.sol\":2638:2678  hasVoted[_proposalId][msg.sender] = true */\n      0x0100\n      exp\n      dup2\n      sload\n      dup2\n      0xff\n      mul\n      not\n      and\n      swap1\n      dup4\n      iszero\n      iszero\n      mul\n      or\n      swap1\n      sstore\n      pop\n        /* \"aquo/DAO.sol\":2713:2723  msg.sender */\n      caller\n        /* \"aquo/DAO.sol\":2694:2731  Voted(_proposalId, msg.sender, _vote) */\n      0xffffffffffffffffffffffffffffffffffffffff\n      and\n        /* \"aquo/DAO.sol\":2700:2711  _proposalId */\n      dup4\n        /* \"aquo/DAO.sol\":2694:2731  Voted(_proposalId, msg.sender, _vote) */\n      0xf2913dbe661ee2acc4a046d8fbcdc792373bda34c41c6086484b5345e5785e5f\n        /* \"aquo/DAO.sol\":2725:2730  _vote */\n      dup5\n        /* \"aquo/DAO.sol\":2694:2731  Voted(_proposalId, msg.sender, _vote) */\n      mload(0x40)\n      tag_95\n      swap2\n      swap1\n      tag_29\n      jump\t// in\n    tag_95:\n      mload(0x40)\n      dup1\n      swap2\n      sub\n      swap1\n      log3\n        /* \"aquo/DAO.sol\":2116:2739  {... */\n      pop\n        /* \"aquo/DAO.sol\":2049:2739  function vote(uint _proposalId, bool _vote) public onlyTokenHolder {... */\n      pop\n      pop\n      jump\t// out\n        /* \"aquo/DAO.sol\":1511:2041  function createProposal(address _poolContract, uint _dilution) public onlyTokenHolder {... */\n    tag_42:\n        /* \"aquo/DAO.sol\":1459:1460  0 */\n      0x00\n        /* \"aquo/DAO.sol\":1411:1434  rwaTokenizationContract */\n      0x01\n      0x00\n      swap1\n      sload\n      swap1\n      0x0100\n      exp\n      swap1\n      div\n      0xffffffffffffffffffffffffffffffffffffffff\n      and\n        /* \"aquo/DAO.sol\":1411:1444  rwaTokenizationContract.balanceOf */\n      0xffffffffffffffffffffffffffffffffffffffff\n      and\n      0x70a08231\n        /* \"aquo/DAO.sol\":1445:1455  msg.sender */\n      caller\n        /* \"aquo/DAO.sol\":1411:1456  rwaTokenizationContract.balanceOf(msg.sender) */\n      mload(0x40)\n      dup3\n      0xffffffff\n      and\n      0xe0\n      shl\n      dup2\n      mstore\n      0x04\n      add\n      tag_97\n      swap2\n      swap1\n      tag_63\n      jump\t// in\n    tag_97:\n      0x20\n      mload(0x40)\n      dup1\n      dup4\n      sub\n      dup2\n      dup7\n      gas\n      staticcall\n      iszero\n      dup1\n      iszero\n      tag_99\n      jumpi\n      returndatasize\n      0x00\n      dup1\n      returndatacopy\n      revert(0x00, returndatasize)\n    tag_99:\n      pop\n      pop\n      pop\n      pop\n      mload(0x40)\n      returndatasize\n      not(0x1f)\n      0x1f\n      dup3\n      add\n      and\n      dup3\n      add\n      dup1\n      0x40\n      mstore\n      pop\n      dup2\n      add\n      swap1\n      tag_100\n      swap2\n      swap1\n      tag_67\n      jump\t// in\n    tag_100:\n        /* \"aquo/DAO.sol\":1411:1460  rwaTokenizationContract.balanceOf(msg.sender) > 0 */\n      gt\n        /* \"aquo/DAO.sol\":1403:1483  require(rwaTokenizationContract.balanceOf(msg.sender) > 0, \"Not a token holder\") */\n      tag_101\n      jumpi\n      mload(0x40)\n      0x08c379a000000000000000000000000000000000000000000000000000000000\n      dup2\n      mstore\n      0x04\n      add\n      tag_102\n      swap1\n      tag_70\n      jump\t// in\n    tag_102:\n      mload(0x40)\n      dup1\n      swap2\n      sub\n      swap1\n      revert\n    tag_101:\n        /* \"aquo/DAO.sol\":1608:1617  proposals */\n      0x00\n        /* \"aquo/DAO.sol\":1623:1900  Proposal({... */\n      mload(0x40)\n      dup1\n      0xe0\n      add\n      0x40\n      mstore\n      dup1\n        /* \"aquo/DAO.sol\":1657:1667  msg.sender */\n      caller\n        /* \"aquo/DAO.sol\":1623:1900  Proposal({... */\n      0xffffffffffffffffffffffffffffffffffffffff\n      and\n      dup2\n      mstore\n      0x20\n      add\n        /* \"aquo/DAO.sol\":1696:1709  _poolContract */\n      dup5\n        /* \"aquo/DAO.sol\":1623:1900  Proposal({... */\n      0xffffffffffffffffffffffffffffffffffffffff\n      and\n      dup2\n      mstore\n      0x20\n      add\n        /* \"aquo/DAO.sol\":1734:1743  _dilution */\n      dup4\n        /* \"aquo/DAO.sol\":1623:1900  Proposal({... */\n      dup2\n      mstore\n      0x20\n      add\n        /* \"aquo/DAO.sol\":1768:1769  0 */\n      0x00\n        /* \"aquo/DAO.sol\":1623:1900  Proposal({... */\n      dup2\n      mstore\n      0x20\n      add\n        /* \"aquo/DAO.sol\":1793:1794  0 */\n      0x00\n        /* \"aquo/DAO.sol\":1623:1900  Proposal({... */\n      dup2\n      mstore\n      0x20\n      add\n        /* \"aquo/DAO.sol\":1819:1824  false */\n      0x00\n        /* \"aquo/DAO.sol\":1623:1900  Proposal({... */\n      iszero\n      iszero\n      dup2\n      mstore\n      0x20\n      add\n        /* \"aquo/DAO.sol\":1848:1853  false */\n      0x00\n        /* \"aquo/DAO.sol\":1623:1900  Proposal({... */\n      iszero\n      iszero\n      dup2\n      mstore\n      pop\n        /* \"aquo/DAO.sol\":1608:1901  proposals.push(Proposal({... */\n      swap1\n      dup1\n      0x01\n      dup2\n      sload\n      add\n      dup1\n      dup3\n      sstore\n      dup1\n      swap2\n      pop\n      pop\n      0x01\n      swap1\n      sub\n      swap1\n      0x00\n      mstore\n      keccak256(0x00, 0x20)\n      swap1\n      0x06\n      mul\n      add\n      0x00\n      swap1\n      swap2\n      swap1\n      swap2\n      swap1\n      swap2\n      pop\n      0x00\n      dup3\n      add\n      mload\n      dup2\n      0x00\n      add\n      exp(0x0100, 0x00)\n      dup2\n      sload\n      dup2\n      0xffffffffffffffffffffffffffffffffffffffff\n      mul\n      not\n      and\n      swap1\n      dup4\n      0xffffffffffffffffffffffffffffffffffffffff\n      and\n      mul\n      or\n      swap1\n      sstore\n      pop\n      0x20\n      dup3\n      add\n      mload\n      dup2\n      0x01\n      add\n      exp(0x0100, 0x00)\n      dup2\n      sload\n      dup2\n      0xffffffffffffffffffffffffffffffffffffffff\n      mul\n      not\n      and\n      swap1\n      dup4\n      0xffffffffffffffffffffffffffffffffffffffff\n      and\n      mul\n      or\n      swap1\n      sstore\n      pop\n      0x40\n      dup3\n      add\n      mload\n      dup2\n      0x02\n      add\n      sstore\n      0x60\n      dup3\n      add\n      mload\n      dup2\n      0x03\n      add\n      sstore\n      0x80\n      dup3\n      add\n      mload\n      dup2\n      0x04\n      add\n      sstore\n      0xa0\n      dup3\n      add\n      mload\n      dup2\n      0x05\n      add\n      exp(0x0100, 0x00)\n      dup2\n      sload\n      dup2\n      0xff\n      mul\n      not\n      and\n      swap1\n      dup4\n      iszero\n      iszero\n      mul\n      or\n      swap1\n      sstore\n      pop\n      0xc0\n      dup3\n      add\n      mload\n      dup2\n      0x05\n      add\n      exp(0x0100, 0x01)\n      dup2\n      sload\n      dup2\n      0xff\n      mul\n      not\n      and\n      swap1\n      dup4\n      iszero\n      iszero\n      mul\n      or\n      swap1\n      sstore\n      pop\n      pop\n      pop\n        /* \"aquo/DAO.sol\":1914:1929  uint proposalId */\n      0x00\n        /* \"aquo/DAO.sol\":1951:1952  1 */\n      0x01\n        /* \"aquo/DAO.sol\":1932:1941  proposals */\n      0x00\n        /* \"aquo/DAO.sol\":1932:1948  proposals.length */\n      dup1\n      sload\n      swap1\n      pop\n        /* \"aquo/DAO.sol\":1932:1952  proposals.length - 1 */\n      tag_105\n      swap2\n      swap1\n      tag_106\n      jump\t// in\n    tag_105:\n        /* \"aquo/DAO.sol\":1914:1952  uint proposalId = proposals.length - 1 */\n      swap1\n      pop\n        /* \"aquo/DAO.sol\":1996:2006  msg.sender */\n      caller\n        /* \"aquo/DAO.sol\":1968:2033  ProposalCreated(proposalId, msg.sender, _poolContract, _dilution) */\n      0xffffffffffffffffffffffffffffffffffffffff\n      and\n        /* \"aquo/DAO.sol\":1984:1994  proposalId */\n      dup2\n        /* \"aquo/DAO.sol\":1968:2033  ProposalCreated(proposalId, msg.sender, _poolContract, _dilution) */\n      0x6d4365eeea2290a1fb5155f6f527bb01f4a2797dea12f20abc314effacafd202\n        /* \"aquo/DAO.sol\":2008:2021  _poolContract */\n      dup6\n        /* \"aquo/DAO.sol\":2023:2032  _dilution */\n      dup6\n        /* \"aquo/DAO.sol\":1968:2033  ProposalCreated(proposalId, msg.sender, _poolContract, _dilution) */\n      mload(0x40)\n      tag_107\n      swap3\n      swap2\n      swap1\n      tag_108\n      jump\t// in\n    tag_107:\n      mload(0x40)\n      dup1\n      swap2\n      sub\n      swap1\n      log3\n        /* \"aquo/DAO.sol\":1597:2041  {... */\n      pop\n        /* \"aquo/DAO.sol\":1511:2041  function createProposal(address _poolContract, uint _dilution) public onlyTokenHolder {... */\n      pop\n      pop\n      jump\t// out\n        /* \"#utility.yul\":88:205   */\n    tag_110:\n        /* \"#utility.yul\":197:198   */\n      0x00\n        /* \"#utility.yul\":194:195   */\n      dup1\n        /* \"#utility.yul\":187:199   */\n      revert\n        /* \"#utility.yul\":334:411   */\n    tag_112:\n        /* \"#utility.yul\":371:378   */\n      0x00\n        /* \"#utility.yul\":400:405   */\n      dup2\n        /* \"#utility.yul\":389:405   */\n      swap1\n      pop\n        /* \"#utility.yul\":334:411   */\n      swap2\n      swap1\n      pop\n      jump\t// out\n        /* \"#utility.yul\":417:539   */\n    tag_113:\n        /* \"#utility.yul\":490:514   */\n      tag_147\n        /* \"#utility.yul\":508:513   */\n      dup2\n        /* \"#utility.yul\":490:514   */\n      tag_112\n      jump\t// in\n    tag_147:\n        /* \"#utility.yul\":483:488   */\n      dup2\n        /* \"#utility.yul\":480:515   */\n      eq\n        /* \"#utility.yul\":470:533   */\n      tag_148\n      jumpi\n        /* \"#utility.yul\":529:530   */\n      0x00\n        /* \"#utility.yul\":526:527   */\n      dup1\n        /* \"#utility.yul\":519:531   */\n      revert\n        /* \"#utility.yul\":470:533   */\n    tag_148:\n        /* \"#utility.yul\":417:539   */\n      pop\n      jump\t// out\n        /* \"#utility.yul\":545:684   */\n    tag_114:\n        /* \"#utility.yul\":591:596   */\n      0x00\n        /* \"#utility.yul\":629:635   */\n      dup2\n        /* \"#utility.yul\":616:636   */\n      calldataload\n        /* \"#utility.yul\":607:636   */\n      swap1\n      pop\n        /* \"#utility.yul\":645:678   */\n      tag_150\n        /* \"#utility.yul\":672:677   */\n      dup2\n        /* \"#utility.yul\":645:678   */\n      tag_113\n      jump\t// in\n    tag_150:\n        /* \"#utility.yul\":545:684   */\n      swap3\n      swap2\n      pop\n      pop\n      jump\t// out\n        /* \"#utility.yul\":690:1019   */\n    tag_13:\n        /* \"#utility.yul\":749:755   */\n      0x00\n        /* \"#utility.yul\":798:800   */\n      0x20\n        /* \"#utility.yul\":786:795   */\n      dup3\n        /* \"#utility.yul\":777:784   */\n      dup5\n        /* \"#utility.yul\":773:796   */\n      sub\n        /* \"#utility.yul\":769:801   */\n      slt\n        /* \"#utility.yul\":766:885   */\n      iszero\n      tag_152\n      jumpi\n        /* \"#utility.yul\":804:883   */\n      tag_153\n      tag_110\n      jump\t// in\n    tag_153:\n        /* \"#utility.yul\":766:885   */\n    tag_152:\n        /* \"#utility.yul\":924:925   */\n      0x00\n        /* \"#utility.yul\":949:1002   */\n      tag_154\n        /* \"#utility.yul\":994:1001   */\n      dup5\n        /* \"#utility.yul\":985:991   */\n      dup3\n        /* \"#utility.yul\":974:983   */\n      dup6\n        /* \"#utility.yul\":970:992   */\n      add\n        /* \"#utility.yul\":949:1002   */\n      tag_114\n      jump\t// in\n    tag_154:\n        /* \"#utility.yul\":939:1002   */\n      swap2\n      pop\n        /* \"#utility.yul\":895:1012   */\n      pop\n        /* \"#utility.yul\":690:1019   */\n      swap3\n      swap2\n      pop\n      pop\n      jump\t// out\n        /* \"#utility.yul\":1025:1151   */\n    tag_115:\n        /* \"#utility.yul\":1062:1069   */\n      0x00\n        /* \"#utility.yul\":1102:1144   */\n      0xffffffffffffffffffffffffffffffffffffffff\n        /* \"#utility.yul\":1095:1100   */\n      dup3\n        /* \"#utility.yul\":1091:1145   */\n      and\n        /* \"#utility.yul\":1080:1145   */\n      swap1\n      pop\n        /* \"#utility.yul\":1025:1151   */\n      swap2\n      swap1\n      pop\n      jump\t// out\n        /* \"#utility.yul\":1157:1253   */\n    tag_116:\n        /* \"#utility.yul\":1194:1201   */\n      0x00\n        /* \"#utility.yul\":1223:1247   */\n      tag_157\n        /* \"#utility.yul\":1241:1246   */\n      dup3\n        /* \"#utility.yul\":1223:1247   */\n      tag_115\n      jump\t// in\n    tag_157:\n        /* \"#utility.yul\":1212:1247   */\n      swap1\n      pop\n        /* \"#utility.yul\":1157:1253   */\n      swap2\n      swap1\n      pop\n      jump\t// out\n        /* \"#utility.yul\":1259:1377   */\n    tag_117:\n        /* \"#utility.yul\":1346:1370   */\n      tag_159\n        /* \"#utility.yul\":1364:1369   */\n      dup2\n        /* \"#utility.yul\":1346:1370   */\n      tag_116\n      jump\t// in\n    tag_159:\n        /* \"#utility.yul\":1341:1344   */\n      dup3\n        /* \"#utility.yul\":1334:1371   */\n      mstore\n        /* \"#utility.yul\":1259:1377   */\n      pop\n      pop\n      jump\t// out\n        /* \"#utility.yul\":1383:1501   */\n    tag_118:\n        /* \"#utility.yul\":1470:1494   */\n      tag_161\n        /* \"#utility.yul\":1488:1493   */\n      dup2\n        /* \"#utility.yul\":1470:1494   */\n      tag_112\n      jump\t// in\n    tag_161:\n        /* \"#utility.yul\":1465:1468   */\n      dup3\n        /* \"#utility.yul\":1458:1495   */\n      mstore\n        /* \"#utility.yul\":1383:1501   */\n      pop\n      pop\n      jump\t// out\n        /* \"#utility.yul\":1507:1597   */\n    tag_119:\n        /* \"#utility.yul\":1541:1548   */\n      0x00\n        /* \"#utility.yul\":1584:1589   */\n      dup2\n        /* \"#utility.yul\":1577:1590   */\n      iszero\n        /* \"#utility.yul\":1570:1591   */\n      iszero\n        /* \"#utility.yul\":1559:1591   */\n      swap1\n      pop\n        /* \"#utility.yul\":1507:1597   */\n      swap2\n      swap1\n      pop\n      jump\t// out\n        /* \"#utility.yul\":1603:1712   */\n    tag_120:\n        /* \"#utility.yul\":1684:1705   */\n      tag_164\n        /* \"#utility.yul\":1699:1704   */\n      dup2\n        /* \"#utility.yul\":1684:1705   */\n      tag_119\n      jump\t// in\n    tag_164:\n        /* \"#utility.yul\":1679:1682   */\n      dup3\n        /* \"#utility.yul\":1672:1706   */\n      mstore\n        /* \"#utility.yul\":1603:1712   */\n      pop\n      pop\n      jump\t// out\n        /* \"#utility.yul\":1718:2580   */\n    tag_16:\n        /* \"#utility.yul\":1967:1971   */\n      0x00\n        /* \"#utility.yul\":2005:2008   */\n      0xe0\n        /* \"#utility.yul\":1994:2003   */\n      dup3\n        /* \"#utility.yul\":1990:2009   */\n      add\n        /* \"#utility.yul\":1982:2009   */\n      swap1\n      pop\n        /* \"#utility.yul\":2019:2090   */\n      tag_166\n        /* \"#utility.yul\":2087:2088   */\n      0x00\n        /* \"#utility.yul\":2076:2085   */\n      dup4\n        /* \"#utility.yul\":2072:2089   */\n      add\n        /* \"#utility.yul\":2063:2069   */\n      dup11\n        /* \"#utility.yul\":2019:2090   */\n      tag_117\n      jump\t// in\n    tag_166:\n        /* \"#utility.yul\":2100:2172   */\n      tag_167\n        /* \"#utility.yul\":2168:2170   */\n      0x20\n        /* \"#utility.yul\":2157:2166   */\n      dup4\n        /* \"#utility.yul\":2153:2171   */\n      add\n        /* \"#utility.yul\":2144:2150   */\n      dup10\n        /* \"#utility.yul\":2100:2172   */\n      tag_117\n      jump\t// in\n    tag_167:\n        /* \"#utility.yul\":2182:2254   */\n      tag_168\n        /* \"#utility.yul\":2250:2252   */\n      0x40\n        /* \"#utility.yul\":2239:2248   */\n      dup4\n        /* \"#utility.yul\":2235:2253   */\n      add\n        /* \"#utility.yul\":2226:2232   */\n      dup9\n        /* \"#utility.yul\":2182:2254   */\n      tag_118\n      jump\t// in\n    tag_168:\n        /* \"#utility.yul\":2264:2336   */\n      tag_169\n        /* \"#utility.yul\":2332:2334   */\n      0x60\n        /* \"#utility.yul\":2321:2330   */\n      dup4\n        /* \"#utility.yul\":2317:2335   */\n      add\n        /* \"#utility.yul\":2308:2314   */\n      dup8\n        /* \"#utility.yul\":2264:2336   */\n      tag_118\n      jump\t// in\n    tag_169:\n        /* \"#utility.yul\":2346:2419   */\n      tag_170\n        /* \"#utility.yul\":2414:2417   */\n      0x80\n        /* \"#utility.yul\":2403:2412   */\n      dup4\n        /* \"#utility.yul\":2399:2418   */\n      add\n        /* \"#utility.yul\":2390:2396   */\n      dup7\n        /* \"#utility.yul\":2346:2419   */\n      tag_118\n      jump\t// in\n    tag_170:\n        /* \"#utility.yul\":2429:2496   */\n      tag_171\n        /* \"#utility.yul\":2491:2494   */\n      0xa0\n        /* \"#utility.yul\":2480:2489   */\n      dup4\n        /* \"#utility.yul\":2476:2495   */\n      add\n        /* \"#utility.yul\":2467:2473   */\n      dup6\n        /* \"#utility.yul\":2429:2496   */\n      tag_120\n      jump\t// in\n    tag_171:\n        /* \"#utility.yul\":2506:2573   */\n      tag_172\n        /* \"#utility.yul\":2568:2571   */\n      0xc0\n        /* \"#utility.yul\":2557:2566   */\n      dup4\n        /* \"#utility.yul\":2553:2572   */\n      add\n        /* \"#utility.yul\":2544:2550   */\n      dup5\n        /* \"#utility.yul\":2506:2573   */\n      tag_120\n      jump\t// in\n    tag_172:\n        /* \"#utility.yul\":1718:2580   */\n      swap9\n      swap8\n      pop\n      pop\n      pop\n      pop\n      pop\n      pop\n      pop\n      pop\n      jump\t// out\n        /* \"#utility.yul\":2586:2646   */\n    tag_121:\n        /* \"#utility.yul\":2614:2617   */\n      0x00\n        /* \"#utility.yul\":2635:2640   */\n      dup2\n        /* \"#utility.yul\":2628:2640   */\n      swap1\n      pop\n        /* \"#utility.yul\":2586:2646   */\n      swap2\n      swap1\n      pop\n      jump\t// out\n        /* \"#utility.yul\":2652:2794   */\n    tag_122:\n        /* \"#utility.yul\":2702:2711   */\n      0x00\n        /* \"#utility.yul\":2735:2788   */\n      tag_175\n        /* \"#utility.yul\":2753:2787   */\n      tag_176\n        /* \"#utility.yul\":2762:2786   */\n      tag_177\n        /* \"#utility.yul\":2780:2785   */\n      dup5\n        /* \"#utility.yul\":2762:2786   */\n      tag_115\n      jump\t// in\n    tag_177:\n        /* \"#utility.yul\":2753:2787   */\n      tag_121\n      jump\t// in\n    tag_176:\n        /* \"#utility.yul\":2735:2788   */\n      tag_115\n      jump\t// in\n    tag_175:\n        /* \"#utility.yul\":2722:2788   */\n      swap1\n      pop\n        /* \"#utility.yul\":2652:2794   */\n      swap2\n      swap1\n      pop\n      jump\t// out\n        /* \"#utility.yul\":2800:2926   */\n    tag_123:\n        /* \"#utility.yul\":2850:2859   */\n      0x00\n        /* \"#utility.yul\":2883:2920   */\n      tag_179\n        /* \"#utility.yul\":2914:2919   */\n      dup3\n        /* \"#utility.yul\":2883:2920   */\n      tag_122\n      jump\t// in\n    tag_179:\n        /* \"#utility.yul\":2870:2920   */\n      swap1\n      pop\n        /* \"#utility.yul\":2800:2926   */\n      swap2\n      swap1\n      pop\n      jump\t// out\n        /* \"#utility.yul\":2932:3081   */\n    tag_124:\n        /* \"#utility.yul\":3005:3014   */\n      0x00\n        /* \"#utility.yul\":3038:3075   */\n      tag_181\n        /* \"#utility.yul\":3069:3074   */\n      dup3\n        /* \"#utility.yul\":3038:3075   */\n      tag_123\n      jump\t// in\n    tag_181:\n        /* \"#utility.yul\":3025:3075   */\n      swap1\n      pop\n        /* \"#utility.yul\":2932:3081   */\n      swap2\n      swap1\n      pop\n      jump\t// out\n        /* \"#utility.yul\":3087:3264   */\n    tag_125:\n        /* \"#utility.yul\":3197:3257   */\n      tag_183\n        /* \"#utility.yul\":3251:3256   */\n      dup2\n        /* \"#utility.yul\":3197:3257   */\n      tag_124\n      jump\t// in\n    tag_183:\n        /* \"#utility.yul\":3192:3195   */\n      dup3\n        /* \"#utility.yul\":3185:3258   */\n      mstore\n        /* \"#utility.yul\":3087:3264   */\n      pop\n      pop\n      jump\t// out\n        /* \"#utility.yul\":3270:3538   */\n    tag_23:\n        /* \"#utility.yul\":3386:3390   */\n      0x00\n        /* \"#utility.yul\":3424:3426   */\n      0x20\n        /* \"#utility.yul\":3413:3422   */\n      dup3\n        /* \"#utility.yul\":3409:3427   */\n      add\n        /* \"#utility.yul\":3401:3427   */\n      swap1\n      pop\n        /* \"#utility.yul\":3437:3531   */\n      tag_185\n        /* \"#utility.yul\":3528:3529   */\n      0x00\n        /* \"#utility.yul\":3517:3526   */\n      dup4\n        /* \"#utility.yul\":3513:3530   */\n      add\n        /* \"#utility.yul\":3504:3510   */\n      dup5\n        /* \"#utility.yul\":3437:3531   */\n      tag_125\n      jump\t// in\n    tag_185:\n        /* \"#utility.yul\":3270:3538   */\n      swap3\n      swap2\n      pop\n      pop\n      jump\t// out\n        /* \"#utility.yul\":3544:3666   */\n    tag_126:\n        /* \"#utility.yul\":3617:3641   */\n      tag_187\n        /* \"#utility.yul\":3635:3640   */\n      dup2\n        /* \"#utility.yul\":3617:3641   */\n      tag_116\n      jump\t// in\n    tag_187:\n        /* \"#utility.yul\":3610:3615   */\n      dup2\n        /* \"#utility.yul\":3607:3642   */\n      eq\n        /* \"#utility.yul\":3597:3660   */\n      tag_188\n      jumpi\n        /* \"#utility.yul\":3656:3657   */\n      0x00\n        /* \"#utility.yul\":3653:3654   */\n      dup1\n        /* \"#utility.yul\":3646:3658   */\n      revert\n        /* \"#utility.yul\":3597:3660   */\n    tag_188:\n        /* \"#utility.yul\":3544:3666   */\n      pop\n      jump\t// out\n        /* \"#utility.yul\":3672:3811   */\n    tag_127:\n        /* \"#utility.yul\":3718:3723   */\n      0x00\n        /* \"#utility.yul\":3756:3762   */\n      dup2\n        /* \"#utility.yul\":3743:3763   */\n      calldataload\n        /* \"#utility.yul\":3734:3763   */\n      swap1\n      pop\n        /* \"#utility.yul\":3772:3805   */\n      tag_190\n        /* \"#utility.yul\":3799:3804   */\n      dup2\n        /* \"#utility.yul\":3772:3805   */\n      tag_126\n      jump\t// in\n    tag_190:\n        /* \"#utility.yul\":3672:3811   */\n      swap3\n      swap2\n      pop\n      pop\n      jump\t// out\n        /* \"#utility.yul\":3817:4291   */\n    tag_26:\n        /* \"#utility.yul\":3885:3891   */\n      0x00\n        /* \"#utility.yul\":3893:3899   */\n      dup1\n        /* \"#utility.yul\":3942:3944   */\n      0x40\n        /* \"#utility.yul\":3930:3939   */\n      dup4\n        /* \"#utility.yul\":3921:3928   */\n      dup6\n        /* \"#utility.yul\":3917:3940   */\n      sub\n        /* \"#utility.yul\":3913:3945   */\n      slt\n        /* \"#utility.yul\":3910:4029   */\n      iszero\n      tag_192\n      jumpi\n        /* \"#utility.yul\":3948:4027   */\n      tag_193\n      tag_110\n      jump\t// in\n    tag_193:\n        /* \"#utility.yul\":3910:4029   */\n    tag_192:\n        /* \"#utility.yul\":4068:4069   */\n      0x00\n        /* \"#utility.yul\":4093:4146   */\n      tag_194\n        /* \"#utility.yul\":4138:4145   */\n      dup6\n        /* \"#utility.yul\":4129:4135   */\n      dup3\n        /* \"#utility.yul\":4118:4127   */\n      dup7\n        /* \"#utility.yul\":4114:4136   */\n      add\n        /* \"#utility.yul\":4093:4146   */\n      tag_114\n      jump\t// in\n    tag_194:\n        /* \"#utility.yul\":4083:4146   */\n      swap3\n      pop\n        /* \"#utility.yul\":4039:4156   */\n      pop\n        /* \"#utility.yul\":4195:4197   */\n      0x20\n        /* \"#utility.yul\":4221:4274   */\n      tag_195\n        /* \"#utility.yul\":4266:4273   */\n      dup6\n        /* \"#utility.yul\":4257:4263   */\n      dup3\n        /* \"#utility.yul\":4246:4255   */\n      dup7\n        /* \"#utility.yul\":4242:4264   */\n      add\n        /* \"#utility.yul\":4221:4274   */\n      tag_127\n      jump\t// in\n    tag_195:\n        /* \"#utility.yul\":4211:4274   */\n      swap2\n      pop\n        /* \"#utility.yul\":4166:4284   */\n      pop\n        /* \"#utility.yul\":3817:4291   */\n      swap3\n      pop\n      swap3\n      swap1\n      pop\n      jump\t// out\n        /* \"#utility.yul\":4297:4507   */\n    tag_29:\n        /* \"#utility.yul\":4384:4388   */\n      0x00\n        /* \"#utility.yul\":4422:4424   */\n      0x20\n        /* \"#utility.yul\":4411:4420   */\n      dup3\n        /* \"#utility.yul\":4407:4425   */\n      add\n        /* \"#utility.yul\":4399:4425   */\n      swap1\n      pop\n        /* \"#utility.yul\":4435:4500   */\n      tag_197\n        /* \"#utility.yul\":4497:4498   */\n      0x00\n        /* \"#utility.yul\":4486:4495   */\n      dup4\n        /* \"#utility.yul\":4482:4499   */\n      add\n        /* \"#utility.yul\":4473:4479   */\n      dup5\n        /* \"#utility.yul\":4435:4500   */\n      tag_120\n      jump\t// in\n    tag_197:\n        /* \"#utility.yul\":4297:4507   */\n      swap3\n      swap2\n      pop\n      pop\n      jump\t// out\n        /* \"#utility.yul\":4513:4821   */\n    tag_34:\n        /* \"#utility.yul\":4622:4626   */\n      0x00\n        /* \"#utility.yul\":4660:4662   */\n      0x40\n        /* \"#utility.yul\":4649:4658   */\n      dup3\n        /* \"#utility.yul\":4645:4663   */\n      add\n        /* \"#utility.yul\":4637:4663   */\n      swap1\n      pop\n        /* \"#utility.yul\":4673:4738   */\n      tag_199\n        /* \"#utility.yul\":4735:4736   */\n      0x00\n        /* \"#utility.yul\":4724:4733   */\n      dup4\n        /* \"#utility.yul\":4720:4737   */\n      add\n        /* \"#utility.yul\":4711:4717   */\n      dup6\n        /* \"#utility.yul\":4673:4738   */\n      tag_120\n      jump\t// in\n    tag_199:\n        /* \"#utility.yul\":4748:4814   */\n      tag_200\n        /* \"#utility.yul\":4810:4812   */\n      0x20\n        /* \"#utility.yul\":4799:4808   */\n      dup4\n        /* \"#utility.yul\":4795:4813   */\n      add\n        /* \"#utility.yul\":4786:4792   */\n      dup5\n        /* \"#utility.yul\":4748:4814   */\n      tag_120\n      jump\t// in\n    tag_200:\n        /* \"#utility.yul\":4513:4821   */\n      swap4\n      swap3\n      pop\n      pop\n      pop\n      jump\t// out\n        /* \"#utility.yul\":4827:4943   */\n    tag_128:\n        /* \"#utility.yul\":4897:4918   */\n      tag_202\n        /* \"#utility.yul\":4912:4917   */\n      dup2\n        /* \"#utility.yul\":4897:4918   */\n      tag_119\n      jump\t// in\n    tag_202:\n        /* \"#utility.yul\":4890:4895   */\n      dup2\n        /* \"#utility.yul\":4887:4919   */\n      eq\n        /* \"#utility.yul\":4877:4937   */\n      tag_203\n      jumpi\n        /* \"#utility.yul\":4933:4934   */\n      0x00\n        /* \"#utility.yul\":4930:4931   */\n      dup1\n        /* \"#utility.yul\":4923:4935   */\n      revert\n        /* \"#utility.yul\":4877:4937   */\n    tag_203:\n        /* \"#utility.yul\":4827:4943   */\n      pop\n      jump\t// out\n        /* \"#utility.yul\":4949:5082   */\n    tag_129:\n        /* \"#utility.yul\":4992:4997   */\n      0x00\n        /* \"#utility.yul\":5030:5036   */\n      dup2\n        /* \"#utility.yul\":5017:5037   */\n      calldataload\n        /* \"#utility.yul\":5008:5037   */\n      swap1\n      pop\n        /* \"#utility.yul\":5046:5076   */\n      tag_205\n        /* \"#utility.yul\":5070:5075   */\n      dup2\n        /* \"#utility.yul\":5046:5076   */\n      tag_128\n      jump\t// in\n    tag_205:\n        /* \"#utility.yul\":4949:5082   */\n      swap3\n      swap2\n      pop\n      pop\n      jump\t// out\n        /* \"#utility.yul\":5088:5556   */\n    tag_37:\n        /* \"#utility.yul\":5153:5159   */\n      0x00\n        /* \"#utility.yul\":5161:5167   */\n      dup1\n        /* \"#utility.yul\":5210:5212   */\n      0x40\n        /* \"#utility.yul\":5198:5207   */\n      dup4\n        /* \"#utility.yul\":5189:5196   */\n      dup6\n        /* \"#utility.yul\":5185:5208   */\n      sub\n        /* \"#utility.yul\":5181:5213   */\n      slt\n        /* \"#utility.yul\":5178:5297   */\n      iszero\n      tag_207\n      jumpi\n        /* \"#utility.yul\":5216:5295   */\n      tag_208\n      tag_110\n      jump\t// in\n    tag_208:\n        /* \"#utility.yul\":5178:5297   */\n    tag_207:\n        /* \"#utility.yul\":5336:5337   */\n      0x00\n        /* \"#utility.yul\":5361:5414   */\n      tag_209\n        /* \"#utility.yul\":5406:5413   */\n      dup6\n        /* \"#utility.yul\":5397:5403   */\n      dup3\n        /* \"#utility.yul\":5386:5395   */\n      dup7\n        /* \"#utility.yul\":5382:5404   */\n      add\n        /* \"#utility.yul\":5361:5414   */\n      tag_114\n      jump\t// in\n    tag_209:\n        /* \"#utility.yul\":5351:5414   */\n      swap3\n      pop\n        /* \"#utility.yul\":5307:5424   */\n      pop\n        /* \"#utility.yul\":5463:5465   */\n      0x20\n        /* \"#utility.yul\":5489:5539   */\n      tag_210\n        /* \"#utility.yul\":5531:5538   */\n      dup6\n        /* \"#utility.yul\":5522:5528   */\n      dup3\n        /* \"#utility.yul\":5511:5520   */\n      dup7\n        /* \"#utility.yul\":5507:5529   */\n      add\n        /* \"#utility.yul\":5489:5539   */\n      tag_129\n      jump\t// in\n    tag_210:\n        /* \"#utility.yul\":5479:5539   */\n      swap2\n      pop\n        /* \"#utility.yul\":5434:5549   */\n      pop\n        /* \"#utility.yul\":5088:5556   */\n      swap3\n      pop\n      swap3\n      swap1\n      pop\n      jump\t// out\n        /* \"#utility.yul\":5562:6036   */\n    tag_41:\n        /* \"#utility.yul\":5630:5636   */\n      0x00\n        /* \"#utility.yul\":5638:5644   */\n      dup1\n        /* \"#utility.yul\":5687:5689   */\n      0x40\n        /* \"#utility.yul\":5675:5684   */\n      dup4\n        /* \"#utility.yul\":5666:5673   */\n      dup6\n        /* \"#utility.yul\":5662:5685   */\n      sub\n        /* \"#utility.yul\":5658:5690   */\n      slt\n        /* \"#utility.yul\":5655:5774   */\n      iszero\n      tag_212\n      jumpi\n        /* \"#utility.yul\":5693:5772   */\n      tag_213\n      tag_110\n      jump\t// in\n    tag_213:\n        /* \"#utility.yul\":5655:5774   */\n    tag_212:\n        /* \"#utility.yul\":5813:5814   */\n      0x00\n        /* \"#utility.yul\":5838:5891   */\n      tag_214\n        /* \"#utility.yul\":5883:5890   */\n      dup6\n        /* \"#utility.yul\":5874:5880   */\n      dup3\n        /* \"#utility.yul\":5863:5872   */\n      dup7\n        /* \"#utility.yul\":5859:5881   */\n      add\n        /* \"#utility.yul\":5838:5891   */\n      tag_127\n      jump\t// in\n    tag_214:\n        /* \"#utility.yul\":5828:5891   */\n      swap3\n      pop\n        /* \"#utility.yul\":5784:5901   */\n      pop\n        /* \"#utility.yul\":5940:5942   */\n      0x20\n        /* \"#utility.yul\":5966:6019   */\n      tag_215\n        /* \"#utility.yul\":6011:6018   */\n      dup6\n        /* \"#utility.yul\":6002:6008   */\n      dup3\n        /* \"#utility.yul\":5991:6000   */\n      dup7\n        /* \"#utility.yul\":5987:6009   */\n      add\n        /* \"#utility.yul\":5966:6019   */\n      tag_114\n      jump\t// in\n    tag_215:\n        /* \"#utility.yul\":5956:6019   */\n      swap2\n      pop\n        /* \"#utility.yul\":5911:6029   */\n      pop\n        /* \"#utility.yul\":5562:6036   */\n      swap3\n      pop\n      swap3\n      swap1\n      pop\n      jump\t// out\n        /* \"#utility.yul\":6042:6222   */\n    tag_48:\n        /* \"#utility.yul\":6090:6167   */\n      0x4e487b7100000000000000000000000000000000000000000000000000000000\n        /* \"#utility.yul\":6087:6088   */\n      0x00\n        /* \"#utility.yul\":6080:6168   */\n      mstore\n        /* \"#utility.yul\":6187:6191   */\n      0x32\n        /* \"#utility.yul\":6184:6185   */\n      0x04\n        /* \"#utility.yul\":6177:6192   */\n      mstore\n        /* \"#utility.yul\":6211:6215   */\n      0x24\n        /* \"#utility.yul\":6208:6209   */\n      0x00\n        /* \"#utility.yul\":6201:6216   */\n      revert\n        /* \"#utility.yul\":6228:6397   */\n    tag_130:\n        /* \"#utility.yul\":6312:6323   */\n      0x00\n        /* \"#utility.yul\":6346:6352   */\n      dup3\n        /* \"#utility.yul\":6341:6344   */\n      dup3\n        /* \"#utility.yul\":6334:6353   */\n      mstore\n        /* \"#utility.yul\":6386:6390   */\n      0x20\n        /* \"#utility.yul\":6381:6384   */\n      dup3\n        /* \"#utility.yul\":6377:6391   */\n      add\n        /* \"#utility.yul\":6362:6391   */\n      swap1\n      pop\n        /* \"#utility.yul\":6228:6397   */\n      swap3\n      swap2\n      pop\n      pop\n      jump\t// out\n        /* \"#utility.yul\":6403:6578   */\n    tag_131:\n        /* \"#utility.yul\":6543:6570   */\n      0x50726f706f73616c20616c726561647920657865637574656400000000000000\n        /* \"#utility.yul\":6539:6540   */\n      0x00\n        /* \"#utility.yul\":6531:6537   */\n      dup3\n        /* \"#utility.yul\":6527:6541   */\n      add\n        /* \"#utility.yul\":6520:6571   */\n      mstore\n        /* \"#utility.yul\":6403:6578   */\n      pop\n      jump\t// out\n        /* \"#utility.yul\":6584:6950   */\n    tag_132:\n        /* \"#utility.yul\":6726:6729   */\n      0x00\n        /* \"#utility.yul\":6747:6814   */\n      tag_220\n        /* \"#utility.yul\":6811:6813   */\n      0x19\n        /* \"#utility.yul\":6806:6809   */\n      dup4\n        /* \"#utility.yul\":6747:6814   */\n      tag_130\n      jump\t// in\n    tag_220:\n        /* \"#utility.yul\":6740:6814   */\n      swap2\n      pop\n        /* \"#utility.yul\":6823:6916   */\n      tag_221\n        /* \"#utility.yul\":6912:6915   */\n      dup3\n        /* \"#utility.yul\":6823:6916   */\n      tag_131\n      jump\t// in\n    tag_221:\n        /* \"#utility.yul\":6941:6943   */\n      0x20\n        /* \"#utility.yul\":6936:6939   */\n      dup3\n        /* \"#utility.yul\":6932:6944   */\n      add\n        /* \"#utility.yul\":6925:6944   */\n      swap1\n      pop\n        /* \"#utility.yul\":6584:6950   */\n      swap2\n      swap1\n      pop\n      jump\t// out\n        /* \"#utility.yul\":6956:7375   */\n    tag_52:\n        /* \"#utility.yul\":7122:7126   */\n      0x00\n        /* \"#utility.yul\":7160:7162   */\n      0x20\n        /* \"#utility.yul\":7149:7158   */\n      dup3\n        /* \"#utility.yul\":7145:7163   */\n      add\n        /* \"#utility.yul\":7137:7163   */\n      swap1\n      pop\n        /* \"#utility.yul\":7209:7218   */\n      dup2\n        /* \"#utility.yul\":7203:7207   */\n      dup2\n        /* \"#utility.yul\":7199:7219   */\n      sub\n        /* \"#utility.yul\":7195:7196   */\n      0x00\n        /* \"#utility.yul\":7184:7193   */\n      dup4\n        /* \"#utility.yul\":7180:7197   */\n      add\n        /* \"#utility.yul\":7173:7220   */\n      mstore\n        /* \"#utility.yul\":7237:7368   */\n      tag_223\n        /* \"#utility.yul\":7363:7367   */\n      dup2\n        /* \"#utility.yul\":7237:7368   */\n      tag_132\n      jump\t// in\n    tag_223:\n        /* \"#utility.yul\":7229:7368   */\n      swap1\n      pop\n        /* \"#utility.yul\":6956:7375   */\n      swap2\n      swap1\n      pop\n      jump\t// out\n        /* \"#utility.yul\":7381:7554   */\n    tag_133:\n        /* \"#utility.yul\":7521:7546   */\n      0x50726f706f73616c20646f6573206e6f74206578697374000000000000000000\n        /* \"#utility.yul\":7517:7518   */\n      0x00\n        /* \"#utility.yul\":7509:7515   */\n      dup3\n        /* \"#utility.yul\":7505:7519   */\n      add\n        /* \"#utility.yul\":7498:7547   */\n      mstore\n        /* \"#utility.yul\":7381:7554   */\n      pop\n      jump\t// out\n        /* \"#utility.yul\":7560:7926   */\n    tag_134:\n        /* \"#utility.yul\":7702:7705   */\n      0x00\n        /* \"#utility.yul\":7723:7790   */\n      tag_226\n        /* \"#utility.yul\":7787:7789   */\n      0x17\n        /* \"#utility.yul\":7782:7785   */\n      dup4\n        /* \"#utility.yul\":7723:7790   */\n      tag_130\n      jump\t// in\n    tag_226:\n        /* \"#utility.yul\":7716:7790   */\n      swap2\n      pop\n        /* \"#utility.yul\":7799:7892   */\n      tag_227\n        /* \"#utility.yul\":7888:7891   */\n      dup3\n        /* \"#utility.yul\":7799:7892   */\n      tag_133\n      jump\t// in\n    tag_227:\n        /* \"#utility.yul\":7917:7919   */\n      0x20\n        /* \"#utility.yul\":7912:7915   */\n      dup3\n        /* \"#utility.yul\":7908:7920   */\n      add\n        /* \"#utility.yul\":7901:7920   */\n      swap1\n      pop\n        /* \"#utility.yul\":7560:7926   */\n      swap2\n      swap1\n      pop\n      jump\t// out\n        /* \"#utility.yul\":7932:8351   */\n    tag_57:\n        /* \"#utility.yul\":8098:8102   */\n      0x00\n        /* \"#utility.yul\":8136:8138   */\n      0x20\n        /* \"#utility.yul\":8125:8134   */\n      dup3\n        /* \"#utility.yul\":8121:8139   */\n      add\n        /* \"#utility.yul\":8113:8139   */\n      swap1\n      pop\n        /* \"#utility.yul\":8185:8194   */\n      dup2\n        /* \"#utility.yul\":8179:8183   */\n      dup2\n        /* \"#utility.yul\":8175:8195   */\n      sub\n        /* \"#utility.yul\":8171:8172   */\n      0x00\n        /* \"#utility.yul\":8160:8169   */\n      dup4\n        /* \"#utility.yul\":8156:8173   */\n      add\n        /* \"#utility.yul\":8149:8196   */\n      mstore\n        /* \"#utility.yul\":8213:8344   */\n      tag_229\n        /* \"#utility.yul\":8339:8343   */\n      dup2\n        /* \"#utility.yul\":8213:8344   */\n      tag_134\n      jump\t// in\n    tag_229:\n        /* \"#utility.yul\":8205:8344   */\n      swap1\n      pop\n        /* \"#utility.yul\":7932:8351   */\n      swap2\n      swap1\n      pop\n      jump\t// out\n        /* \"#utility.yul\":8357:8579   */\n    tag_63:\n        /* \"#utility.yul\":8450:8454   */\n      0x00\n        /* \"#utility.yul\":8488:8490   */\n      0x20\n        /* \"#utility.yul\":8477:8486   */\n      dup3\n        /* \"#utility.yul\":8473:8491   */\n      add\n        /* \"#utility.yul\":8465:8491   */\n      swap1\n      pop\n        /* \"#utility.yul\":8501:8572   */\n      tag_231\n        /* \"#utility.yul\":8569:8570   */\n      0x00\n        /* \"#utility.yul\":8558:8567   */\n      dup4\n        /* \"#utility.yul\":8554:8571   */\n      add\n        /* \"#utility.yul\":8545:8551   */\n      dup5\n        /* \"#utility.yul\":8501:8572   */\n      tag_117\n      jump\t// in\n    tag_231:\n        /* \"#utility.yul\":8357:8579   */\n      swap3\n      swap2\n      pop\n      pop\n      jump\t// out\n        /* \"#utility.yul\":8585:8728   */\n    tag_135:\n        /* \"#utility.yul\":8642:8647   */\n      0x00\n        /* \"#utility.yul\":8673:8679   */\n      dup2\n        /* \"#utility.yul\":8667:8680   */\n      mload\n        /* \"#utility.yul\":8658:8680   */\n      swap1\n      pop\n        /* \"#utility.yul\":8689:8722   */\n      tag_233\n        /* \"#utility.yul\":8716:8721   */\n      dup2\n        /* \"#utility.yul\":8689:8722   */\n      tag_113\n      jump\t// in\n    tag_233:\n        /* \"#utility.yul\":8585:8728   */\n      swap3\n      swap2\n      pop\n      pop\n      jump\t// out\n        /* \"#utility.yul\":8734:9085   */\n    tag_67:\n        /* \"#utility.yul\":8804:8810   */\n      0x00\n        /* \"#utility.yul\":8853:8855   */\n      0x20\n        /* \"#utility.yul\":8841:8850   */\n      dup3\n        /* \"#utility.yul\":8832:8839   */\n      dup5\n        /* \"#utility.yul\":8828:8851   */\n      sub\n        /* \"#utility.yul\":8824:8856   */\n      slt\n        /* \"#utility.yul\":8821:8940   */\n      iszero\n      tag_235\n      jumpi\n        /* \"#utility.yul\":8859:8938   */\n      tag_236\n      tag_110\n      jump\t// in\n    tag_236:\n        /* \"#utility.yul\":8821:8940   */\n    tag_235:\n        /* \"#utility.yul\":8979:8980   */\n      0x00\n        /* \"#utility.yul\":9004:9068   */\n      tag_237\n        /* \"#utility.yul\":9060:9067   */\n      dup5\n        /* \"#utility.yul\":9051:9057   */\n      dup3\n        /* \"#utility.yul\":9040:9049   */\n      dup6\n        /* \"#utility.yul\":9036:9058   */\n      add\n        /* \"#utility.yul\":9004:9068   */\n      tag_135\n      jump\t// in\n    tag_237:\n        /* \"#utility.yul\":8994:9068   */\n      swap2\n      pop\n        /* \"#utility.yul\":8950:9078   */\n      pop\n        /* \"#utility.yul\":8734:9085   */\n      swap3\n      swap2\n      pop\n      pop\n      jump\t// out\n        /* \"#utility.yul\":9091:9259   */\n    tag_136:\n        /* \"#utility.yul\":9231:9251   */\n      0x4e6f74206120746f6b656e20686f6c6465720000000000000000000000000000\n        /* \"#utility.yul\":9227:9228   */\n      0x00\n        /* \"#utility.yul\":9219:9225   */\n      dup3\n        /* \"#utility.yul\":9215:9229   */\n      add\n        /* \"#utility.yul\":9208:9252   */\n      mstore\n        /* \"#utility.yul\":9091:9259   */\n      pop\n      jump\t// out\n        /* \"#utility.yul\":9265:9631   */\n    tag_137:\n        /* \"#utility.yul\":9407:9410   */\n      0x00\n        /* \"#utility.yul\":9428:9495   */\n      tag_240\n        /* \"#utility.yul\":9492:9494   */\n      0x12\n        /* \"#utility.yul\":9487:9490   */\n      dup4\n        /* \"#utility.yul\":9428:9495   */\n      tag_130\n      jump\t// in\n    tag_240:\n        /* \"#utility.yul\":9421:9495   */\n      swap2\n      pop\n        /* \"#utility.yul\":9504:9597   */\n      tag_241\n        /* \"#utility.yul\":9593:9596   */\n      dup3\n        /* \"#utility.yul\":9504:9597   */\n      tag_136\n      jump\t// in\n    tag_241:\n        /* \"#utility.yul\":9622:9624   */\n      0x20\n        /* \"#utility.yul\":9617:9620   */\n      dup3\n        /* \"#utility.yul\":9613:9625   */\n      add\n        /* \"#utility.yul\":9606:9625   */\n      swap1\n      pop\n        /* \"#utility.yul\":9265:9631   */\n      swap2\n      swap1\n      pop\n      jump\t// out\n        /* \"#utility.yul\":9637:10056   */\n    tag_70:\n        /* \"#utility.yul\":9803:9807   */\n      0x00\n        /* \"#utility.yul\":9841:9843   */\n      0x20\n        /* \"#utility.yul\":9830:9839   */\n      dup3\n        /* \"#utility.yul\":9826:9844   */\n      add\n        /* \"#utility.yul\":9818:9844   */\n      swap1\n      pop\n        /* \"#utility.yul\":9890:9899   */\n      dup2\n        /* \"#utility.yul\":9884:9888   */\n      dup2\n        /* \"#utility.yul\":9880:9900   */\n      sub\n        /* \"#utility.yul\":9876:9877   */\n      0x00\n        /* \"#utility.yul\":9865:9874   */\n      dup4\n        /* \"#utility.yul\":9861:9878   */\n      add\n        /* \"#utility.yul\":9854:9901   */\n      mstore\n        /* \"#utility.yul\":9918:10049   */\n      tag_243\n        /* \"#utility.yul\":10044:10048   */\n      dup2\n        /* \"#utility.yul\":9918:10049   */\n      tag_137\n      jump\t// in\n    tag_243:\n        /* \"#utility.yul\":9910:10049   */\n      swap1\n      pop\n        /* \"#utility.yul\":9637:10056   */\n      swap2\n      swap1\n      pop\n      jump\t// out\n        /* \"#utility.yul\":10062:10242   */\n    tag_138:\n        /* \"#utility.yul\":10202:10234   */\n      0x416c726561647920766f746564206f6e20746869732070726f706f73616c0000\n        /* \"#utility.yul\":10198:10199   */\n      0x00\n        /* \"#utility.yul\":10190:10196   */\n      dup3\n        /* \"#utility.yul\":10186:10200   */\n      add\n        /* \"#utility.yul\":10179:10235   */\n      mstore\n        /* \"#utility.yul\":10062:10242   */\n      pop\n      jump\t// out\n        /* \"#utility.yul\":10248:10614   */\n    tag_139:\n        /* \"#utility.yul\":10390:10393   */\n      0x00\n        /* \"#utility.yul\":10411:10478   */\n      tag_246\n        /* \"#utility.yul\":10475:10477   */\n      0x1e\n        /* \"#utility.yul\":10470:10473   */\n      dup4\n        /* \"#utility.yul\":10411:10478   */\n      tag_130\n      jump\t// in\n    tag_246:\n        /* \"#utility.yul\":10404:10478   */\n      swap2\n      pop\n        /* \"#utility.yul\":10487:10580   */\n      tag_247\n        /* \"#utility.yul\":10576:10579   */\n      dup3\n        /* \"#utility.yul\":10487:10580   */\n      tag_138\n      jump\t// in\n    tag_247:\n        /* \"#utility.yul\":10605:10607   */\n      0x20\n        /* \"#utility.yul\":10600:10603   */\n      dup3\n        /* \"#utility.yul\":10596:10608   */\n      add\n        /* \"#utility.yul\":10589:10608   */\n      swap1\n      pop\n        /* \"#utility.yul\":10248:10614   */\n      swap2\n      swap1\n      pop\n      jump\t// out\n        /* \"#utility.yul\":10620:11039   */\n    tag_76:\n        /* \"#utility.yul\":10786:10790   */\n      0x00\n        /* \"#utility.yul\":10824:10826   */\n      0x20\n        /* \"#utility.yul\":10813:10822   */\n      dup3\n        /* \"#utility.yul\":10809:10827   */\n      add\n        /* \"#utility.yul\":10801:10827   */\n      swap1\n      pop\n        /* \"#utility.yul\":10873:10882   */\n      dup2\n        /* \"#utility.yul\":10867:10871   */\n      dup2\n        /* \"#utility.yul\":10863:10883   */\n      sub\n        /* \"#utility.yul\":10859:10860   */\n      0x00\n        /* \"#utility.yul\":10848:10857   */\n      dup4\n        /* \"#utility.yul\":10844:10861   */\n      add\n        /* \"#utility.yul\":10837:10884   */\n      mstore\n        /* \"#utility.yul\":10901:11032   */\n      tag_249\n        /* \"#utility.yul\":11027:11031   */\n      dup2\n        /* \"#utility.yul\":10901:11032   */\n      tag_139\n      jump\t// in\n    tag_249:\n        /* \"#utility.yul\":10893:11032   */\n      swap1\n      pop\n        /* \"#utility.yul\":10620:11039   */\n      swap2\n      swap1\n      pop\n      jump\t// out\n        /* \"#utility.yul\":11045:11225   */\n    tag_140:\n        /* \"#utility.yul\":11093:11170   */\n      0x4e487b7100000000000000000000000000000000000000000000000000000000\n        /* \"#utility.yul\":11090:11091   */\n      0x00\n        /* \"#utility.yul\":11083:11171   */\n      mstore\n        /* \"#utility.yul\":11190:11194   */\n      0x11\n        /* \"#utility.yul\":11187:11188   */\n      0x04\n        /* \"#utility.yul\":11180:11195   */\n      mstore\n        /* \"#utility.yul\":11214:11218   */\n      0x24\n        /* \"#utility.yul\":11211:11212   */\n      0x00\n        /* \"#utility.yul\":11204:11219   */\n      revert\n        /* \"#utility.yul\":11231:11422   */\n    tag_88:\n        /* \"#utility.yul\":11271:11274   */\n      0x00\n        /* \"#utility.yul\":11290:11310   */\n      tag_252\n        /* \"#utility.yul\":11308:11309   */\n      dup3\n        /* \"#utility.yul\":11290:11310   */\n      tag_112\n      jump\t// in\n    tag_252:\n        /* \"#utility.yul\":11285:11310   */\n      swap2\n      pop\n        /* \"#utility.yul\":11324:11344   */\n      tag_253\n        /* \"#utility.yul\":11342:11343   */\n      dup4\n        /* \"#utility.yul\":11324:11344   */\n      tag_112\n      jump\t// in\n    tag_253:\n        /* \"#utility.yul\":11319:11344   */\n      swap3\n      pop\n        /* \"#utility.yul\":11367:11368   */\n      dup3\n        /* \"#utility.yul\":11364:11365   */\n      dup3\n        /* \"#utility.yul\":11360:11369   */\n      add\n        /* \"#utility.yul\":11353:11369   */\n      swap1\n      pop\n        /* \"#utility.yul\":11388:11391   */\n      dup1\n        /* \"#utility.yul\":11385:11386   */\n      dup3\n        /* \"#utility.yul\":11382:11392   */\n      gt\n        /* \"#utility.yul\":11379:11415   */\n      iszero\n      tag_254\n      jumpi\n        /* \"#utility.yul\":11395:11413   */\n      tag_255\n      tag_140\n      jump\t// in\n    tag_255:\n        /* \"#utility.yul\":11379:11415   */\n    tag_254:\n        /* \"#utility.yul\":11231:11422   */\n      swap3\n      swap2\n      pop\n      pop\n      jump\t// out\n        /* \"#utility.yul\":11428:11622   */\n    tag_106:\n        /* \"#utility.yul\":11468:11472   */\n      0x00\n        /* \"#utility.yul\":11488:11508   */\n      tag_257\n        /* \"#utility.yul\":11506:11507   */\n      dup3\n        /* \"#utility.yul\":11488:11508   */\n      tag_112\n      jump\t// in\n    tag_257:\n        /* \"#utility.yul\":11483:11508   */\n      swap2\n      pop\n        /* \"#utility.yul\":11522:11542   */\n      tag_258\n        /* \"#utility.yul\":11540:11541   */\n      dup4\n        /* \"#utility.yul\":11522:11542   */\n      tag_112\n      jump\t// in\n    tag_258:\n        /* \"#utility.yul\":11517:11542   */\n      swap3\n      pop\n        /* \"#utility.yul\":11566:11567   */\n      dup3\n        /* \"#utility.yul\":11563:11564   */\n      dup3\n        /* \"#utility.yul\":11559:11568   */\n      sub\n        /* \"#utility.yul\":11551:11568   */\n      swap1\n      pop\n        /* \"#utility.yul\":11590:11591   */\n      dup2\n        /* \"#utility.yul\":11584:11588   */\n      dup2\n        /* \"#utility.yul\":11581:11592   */\n      gt\n        /* \"#utility.yul\":11578:11615   */\n      iszero\n      tag_259\n      jumpi\n        /* \"#utility.yul\":11595:11613   */\n      tag_260\n      tag_140\n      jump\t// in\n    tag_260:\n        /* \"#utility.yul\":11578:11615   */\n    tag_259:\n        /* \"#utility.yul\":11428:11622   */\n      swap3\n      swap2\n      pop\n      pop\n      jump\t// out\n        /* \"#utility.yul\":11628:11960   */\n    tag_108:\n        /* \"#utility.yul\":11749:11753   */\n      0x00\n        /* \"#utility.yul\":11787:11789   */\n      0x40\n        /* \"#utility.yul\":11776:11785   */\n      dup3\n        /* \"#utility.yul\":11772:11790   */\n      add\n        /* \"#utility.yul\":11764:11790   */\n      swap1\n      pop\n        /* \"#utility.yul\":11800:11871   */\n      tag_262\n        /* \"#utility.yul\":11868:11869   */\n      0x00\n        /* \"#utility.yul\":11857:11866   */\n      dup4\n        /* \"#utility.yul\":11853:11870   */\n      add\n        /* \"#utility.yul\":11844:11850   */\n      dup6\n        /* \"#utility.yul\":11800:11871   */\n      tag_117\n      jump\t// in\n    tag_262:\n        /* \"#utility.yul\":11881:11953   */\n      tag_263\n        /* \"#utility.yul\":11949:11951   */\n      0x20\n        /* \"#utility.yul\":11938:11947   */\n      dup4\n        /* \"#utility.yul\":11934:11952   */\n      add\n        /* \"#utility.yul\":11925:11931   */\n      dup5\n        /* \"#utility.yul\":11881:11953   */\n      tag_118\n      jump\t// in\n    tag_263:\n        /* \"#utility.yul\":11628:11960   */\n      swap4\n      swap3\n      pop\n      pop\n      pop\n      jump\t// out\n\n    auxdata: 0xa264697066735822122080d2165a878487def1bd616875dd988320f3472c8b7856eeb2b50b2b34021ea564736f6c63430008180033\n}\n",
				"bytecode": {
					"linkReferences": {},
					"object": "608060405234801562000010575f80fd5b506040516200125c3803806200125c8339818101604052810190620000369190620000e2565b8060015f6101000a81548173ffffffffffffffffffffffffffffffffffffffff021916908373ffffffffffffffffffffffffffffffffffffffff1602179055505062000112565b5f80fd5b5f73ffffffffffffffffffffffffffffffffffffffff82169050919050565b5f620000ac8262000081565b9050919050565b620000be81620000a0565b8114620000c9575f80fd5b50565b5f81519050620000dc81620000b3565b92915050565b5f60208284031215620000fa57620000f96200007d565b5b5f6200010984828501620000cc565b91505092915050565b61113c80620001205f395ff3fe608060405234801561000f575f80fd5b506004361061007b575f3560e01c8063438596321161005957806343859632146100ef5780636fdb6f7c1461011f578063c9d27afe14610150578063dfc51a251461016c5761007b565b8063013cf08b1461007f5780630d61b519146100b557806325fdf6b1146100d1575b5f80fd5b61009960048036038101906100949190610b55565b610188565b6040516100ac9796959493929190610be8565b60405180910390f35b6100cf60048036038101906100ca9190610b55565b61022b565b005b6100d961032d565b6040516100e69190610cb0565b60405180910390f35b61010960048036038101906101049190610cf3565b610352565b6040516101169190610d31565b60405180910390f35b61013960048036038101906101349190610b55565b61037c565b604051610147929190610d4a565b60405180910390f35b61016a60048036038101906101659190610d9b565b610413565b005b61018660048036038101906101819190610dd9565b610867565b005b5f8181548110610196575f80fd5b905f5260205f2090600602015f91509050805f015f9054906101000a900473ffffffffffffffffffffffffffffffffffffffff1690806001015f9054906101000a900473ffffffffffffffffffffffffffffffffffffffff1690806002015490806003015490806004015490806005015f9054906101000a900460ff16908060050160019054906101000a900460ff16905087565b5f80828154811061023f5761023e610e17565b5b905f5260205f2090600602019050806005015f9054906101000a900460ff161561029e576040517f08c379a000000000000000000000000000000000000000000000000000000000815260040161029590610e9e565b60405180910390fd5b80600401548160030154118160050160016101000a81548160ff0219169083151502179055506001816005015f6101000a81548160ff021916908315150217905550817f948f4a9cd986f1118c3fbd459f7a22b23c0693e1ca3ef06a6a8be5aa7d39cc038260050160019054906101000a900460ff166040516103219190610d31565b60405180910390a25050565b60015f9054906101000a900473ffffffffffffffffffffffffffffffffffffffff1681565b6002602052815f5260405f20602052805f5260405f205f915091509054906101000a900460ff1681565b5f805f8054905083106103c4576040517f08c379a00000000000000000000000000000000000000000000000000000000081526004016103bb90610f06565b60405180910390fd5b5f8084815481106103d8576103d7610e17565b5b905f5260205f20906006020190508060050160019054906101000a900460ff16816005015f9054906101000a900460ff169250925050915091565b5f60015f9054906101000a900473ffffffffffffffffffffffffffffffffffffffff1673ffffffffffffffffffffffffffffffffffffffff166370a08231336040518263ffffffff1660e01b815260040161046e9190610f24565b602060405180830381865afa158015610489573d5f803e3d5ffd5b505050506040513d601f19601f820116820180604052508101906104ad9190610f51565b116104ed576040517f08c379a00000000000000000000000000000000000000000000000000000000081526004016104e490610fc6565b60405180910390fd5b5f805490508210610533576040517f08c379a000000000000000000000000000000000000000000000000000000000815260040161052a90610f06565b60405180910390fd5b60025f8381526020019081526020015f205f3373ffffffffffffffffffffffffffffffffffffffff1673ffffffffffffffffffffffffffffffffffffffff1681526020019081526020015f205f9054906101000a900460ff16156105cc576040517f08c379a00000000000000000000000000000000000000000000000000000000081526004016105c39061102e565b60405180910390fd5b5f8083815481106105e0576105df610e17565b5b905f5260205f2090600602019050806005015f9054906101000a900460ff161561063f576040517f08c379a000000000000000000000000000000000000000000000000000000000815260040161063690610e9e565b60405180910390fd5b81156106fc5760015f9054906101000a900473ffffffffffffffffffffffffffffffffffffffff1673ffffffffffffffffffffffffffffffffffffffff166370a08231336040518263ffffffff1660e01b815260040161069f9190610f24565b602060405180830381865afa1580156106ba573d5f803e3d5ffd5b505050506040513d601f19601f820116820180604052508101906106de9190610f51565b816003015f8282546106f09190611079565b925050819055506107af565b60015f9054906101000a900473ffffffffffffffffffffffffffffffffffffffff1673ffffffffffffffffffffffffffffffffffffffff166370a08231336040518263ffffffff1660e01b81526004016107569190610f24565b602060405180830381865afa158015610771573d5f803e3d5ffd5b505050506040513d601f19601f820116820180604052508101906107959190610f51565b816004015f8282546107a79190611079565b925050819055505b600160025f8581526020019081526020015f205f3373ffffffffffffffffffffffffffffffffffffffff1673ffffffffffffffffffffffffffffffffffffffff1681526020019081526020015f205f6101000a81548160ff0219169083151502179055503373ffffffffffffffffffffffffffffffffffffffff16837ff2913dbe661ee2acc4a046d8fbcdc792373bda34c41c6086484b5345e5785e5f8460405161085a9190610d31565b60405180910390a3505050565b5f60015f9054906101000a900473ffffffffffffffffffffffffffffffffffffffff1673ffffffffffffffffffffffffffffffffffffffff166370a08231336040518263ffffffff1660e01b81526004016108c29190610f24565b602060405180830381865afa1580156108dd573d5f803e3d5ffd5b505050506040513d601f19601f820116820180604052508101906109019190610f51565b11610941576040517f08c379a000000000000000000000000000000000000000000000000000000000815260040161093890610fc6565b60405180910390fd5b5f6040518060e001604052803373ffffffffffffffffffffffffffffffffffffffff1681526020018473ffffffffffffffffffffffffffffffffffffffff1681526020018381526020015f81526020015f81526020015f151581526020015f1515815250908060018154018082558091505060019003905f5260205f2090600602015f909190919091505f820151815f015f6101000a81548173ffffffffffffffffffffffffffffffffffffffff021916908373ffffffffffffffffffffffffffffffffffffffff1602179055506020820151816001015f6101000a81548173ffffffffffffffffffffffffffffffffffffffff021916908373ffffffffffffffffffffffffffffffffffffffff16021790555060408201518160020155606082015181600301556080820151816004015560a0820151816005015f6101000a81548160ff02191690831515021790555060c08201518160050160016101000a81548160ff02191690831515021790555050505f60015f80549050610ac691906110ac565b90503373ffffffffffffffffffffffffffffffffffffffff16817f6d4365eeea2290a1fb5155f6f527bb01f4a2797dea12f20abc314effacafd2028585604051610b119291906110df565b60405180910390a3505050565b5f80fd5b5f819050919050565b610b3481610b22565b8114610b3e575f80fd5b50565b5f81359050610b4f81610b2b565b92915050565b5f60208284031215610b6a57610b69610b1e565b5b5f610b7784828501610b41565b91505092915050565b5f73ffffffffffffffffffffffffffffffffffffffff82169050919050565b5f610ba982610b80565b9050919050565b610bb981610b9f565b82525050565b610bc881610b22565b82525050565b5f8115159050919050565b610be281610bce565b82525050565b5f60e082019050610bfb5f83018a610bb0565b610c086020830189610bb0565b610c156040830188610bbf565b610c226060830187610bbf565b610c2f6080830186610bbf565b610c3c60a0830185610bd9565b610c4960c0830184610bd9565b98975050505050505050565b5f819050919050565b5f610c78610c73610c6e84610b80565b610c55565b610b80565b9050919050565b5f610c8982610c5e565b9050919050565b5f610c9a82610c7f565b9050919050565b610caa81610c90565b82525050565b5f602082019050610cc35f830184610ca1565b92915050565b610cd281610b9f565b8114610cdc575f80fd5b50565b5f81359050610ced81610cc9565b92915050565b5f8060408385031215610d0957610d08610b1e565b5b5f610d1685828601610b41565b9250506020610d2785828601610cdf565b9150509250929050565b5f602082019050610d445f830184610bd9565b92915050565b5f604082019050610d5d5f830185610bd9565b610d6a6020830184610bd9565b9392505050565b610d7a81610bce565b8114610d84575f80fd5b50565b5f81359050610d9581610d71565b92915050565b5f8060408385031215610db157610db0610b1e565b5b5f610dbe85828601610b41565b9250506020610dcf85828601610d87565b9150509250929050565b5f8060408385031215610def57610dee610b1e565b5b5f610dfc85828601610cdf565b9250506020610e0d85828601610b41565b9150509250929050565b7f4e487b71000000000000000000000000000000000000000000000000000000005f52603260045260245ffd5b5f82825260208201905092915050565b7f50726f706f73616c20616c7265616479206578656375746564000000000000005f82015250565b5f610e88601983610e44565b9150610e9382610e54565b602082019050919050565b5f6020820190508181035f830152610eb581610e7c565b9050919050565b7f50726f706f73616c20646f6573206e6f742065786973740000000000000000005f82015250565b5f610ef0601783610e44565b9150610efb82610ebc565b602082019050919050565b5f6020820190508181035f830152610f1d81610ee4565b9050919050565b5f602082019050610f375f830184610bb0565b92915050565b5f81519050610f4b81610b2b565b92915050565b5f60208284031215610f6657610f65610b1e565b5b5f610f7384828501610f3d565b91505092915050565b7f4e6f74206120746f6b656e20686f6c64657200000000000000000000000000005f82015250565b5f610fb0601283610e44565b9150610fbb82610f7c565b602082019050919050565b5f6020820190508181035f830152610fdd81610fa4565b9050919050565b7f416c726561647920766f746564206f6e20746869732070726f706f73616c00005f82015250565b5f611018601e83610e44565b915061102382610fe4565b602082019050919050565b5f6020820190508181035f8301526110458161100c565b9050919050565b7f4e487b71000000000000000000000000000000000000000000000000000000005f52601160045260245ffd5b5f61108382610b22565b915061108e83610b22565b92508282019050808211156110a6576110a561104c565b5b92915050565b5f6110b682610b22565b91506110c183610b22565b92508282039050818111156110d9576110d861104c565b5b92915050565b5f6040820190506110f25f830185610bb0565b6110ff6020830184610bbf565b939250505056fea264697066735822122080d2165a878487def1bd616875dd988320f3472c8b7856eeb2b50b2b34021ea564736f6c63430008180033",
					"opcodes": "PUSH1 0x80 PUSH1 0x40 MSTORE CALLVALUE DUP1 ISZERO PUSH3 0x10 JUMPI PUSH0 DUP1 REVERT JUMPDEST POP PUSH1 0x40 MLOAD PUSH3 0x125C CODESIZE SUB DUP1 PUSH3 0x125C DUP4 CODECOPY DUP2 DUP2 ADD PUSH1 0x40 MSTORE DUP2 ADD SWAP1 PUSH3 0x36 SWAP2 SWAP1 PUSH3 0xE2 JUMP JUMPDEST DUP1 PUSH1 0x1 PUSH0 PUSH2 0x100 EXP DUP2 SLOAD DUP2 PUSH20 0xFFFFFFFFFFFFFFFFFFFFFFFFFFFFFFFFFFFFFFFF MUL NOT AND SWAP1 DUP4 PUSH20 0xFFFFFFFFFFFFFFFFFFFFFFFFFFFFFFFFFFFFFFFF AND MUL OR SWAP1 SSTORE POP POP PUSH3 0x112 JUMP JUMPDEST PUSH0 DUP1 REVERT JUMPDEST PUSH0 PUSH20 0xFFFFFFFFFFFFFFFFFFFFFFFFFFFFFFFFFFFFFFFF DUP3 AND SWAP1 POP SWAP2 SWAP1 POP JUMP JUMPDEST PUSH0 PUSH3 0xAC DUP3 PUSH3 0x81 JUMP JUMPDEST SWAP1 POP SWAP2 SWAP1 POP JUMP JUMPDEST PUSH3 0xBE DUP2 PUSH3 0xA0 JUMP JUMPDEST DUP2 EQ PUSH3 0xC9 JUMPI PUSH0 DUP1 REVERT JUMPDEST POP JUMP JUMPDEST PUSH0 DUP2 MLOAD SWAP1 POP PUSH3 0xDC DUP2 PUSH3 0xB3 JUMP JUMPDEST SWAP3 SWAP2 POP POP JUMP JUMPDEST PUSH0 PUSH1 0x20 DUP3 DUP5 SUB SLT ISZERO PUSH3 0xFA JUMPI PUSH3 0xF9 PUSH3 0x7D JUMP JUMPDEST JUMPDEST PUSH0 PUSH3 0x109 DUP5 DUP3 DUP6 ADD PUSH3 0xCC JUMP JUMPDEST SWAP2 POP POP SWAP3 SWAP2 POP POP JUMP JUMPDEST PUSH2 0x113C DUP1 PUSH3 0x120 PUSH0 CODECOPY PUSH0 RETURN INVALID PUSH1 0x80 PUSH1 0x40 MSTORE CALLVALUE DUP1 ISZERO PUSH2 0xF JUMPI PUSH0 DUP1 REVERT JUMPDEST POP PUSH1 0x4 CALLDATASIZE LT PUSH2 0x7B JUMPI PUSH0 CALLDATALOAD PUSH1 0xE0 SHR DUP1 PUSH4 0x43859632 GT PUSH2 0x59 JUMPI DUP1 PUSH4 0x43859632 EQ PUSH2 0xEF JUMPI DUP1 PUSH4 0x6FDB6F7C EQ PUSH2 0x11F JUMPI DUP1 PUSH4 0xC9D27AFE EQ PUSH2 0x150 JUMPI DUP1 PUSH4 0xDFC51A25 EQ PUSH2 0x16C JUMPI PUSH2 0x7B JUMP JUMPDEST DUP1 PUSH4 0x13CF08B EQ PUSH2 0x7F JUMPI DUP1 PUSH4 0xD61B519 EQ PUSH2 0xB5 JUMPI DUP1 PUSH4 0x25FDF6B1 EQ PUSH2 0xD1 JUMPI JUMPDEST PUSH0 DUP1 REVERT JUMPDEST PUSH2 0x99 PUSH1 0x4 DUP1 CALLDATASIZE SUB DUP2 ADD SWAP1 PUSH2 0x94 SWAP2 SWAP1 PUSH2 0xB55 JUMP JUMPDEST PUSH2 0x188 JUMP JUMPDEST PUSH1 0x40 MLOAD PUSH2 0xAC SWAP8 SWAP7 SWAP6 SWAP5 SWAP4 SWAP3 SWAP2 SWAP1 PUSH2 0xBE8 JUMP JUMPDEST PUSH1 0x40 MLOAD DUP1 SWAP2 SUB SWAP1 RETURN JUMPDEST PUSH2 0xCF PUSH1 0x4 DUP1 CALLDATASIZE SUB DUP2 ADD SWAP1 PUSH2 0xCA SWAP2 SWAP1 PUSH2 0xB55 JUMP JUMPDEST PUSH2 0x22B JUMP JUMPDEST STOP JUMPDEST PUSH2 0xD9 PUSH2 0x32D JUMP JUMPDEST PUSH1 0x40 MLOAD PUSH2 0xE6 SWAP2 SWAP1 PUSH2 0xCB0 JUMP JUMPDEST PUSH1 0x40 MLOAD DUP1 SWAP2 SUB SWAP1 RETURN JUMPDEST PUSH2 0x109 PUSH1 0x4 DUP1 CALLDATASIZE SUB DUP2 ADD SWAP1 PUSH2 0x104 SWAP2 SWAP1 PUSH2 0xCF3 JUMP JUMPDEST PUSH2 0x352 JUMP JUMPDEST PUSH1 0x40 MLOAD PUSH2 0x116 SWAP2 SWAP1 PUSH2 0xD31 JUMP JUMPDEST PUSH1 0x40 MLOAD DUP1 SWAP2 SUB SWAP1 RETURN JUMPDEST PUSH2 0x139 PUSH1 0x4 DUP1 CALLDATASIZE SUB DUP2 ADD SWAP1 PUSH2 0x134 SWAP2 SWAP1 PUSH2 0xB55 JUMP JUMPDEST PUSH2 0x37C JUMP JUMPDEST PUSH1 0x40 MLOAD PUSH2 0x147 SWAP3 SWAP2 SWAP1 PUSH2 0xD4A JUMP JUMPDEST PUSH1 0x40 MLOAD DUP1 SWAP2 SUB SWAP1 RETURN JUMPDEST PUSH2 0x16A PUSH1 0x4 DUP1 CALLDATASIZE SUB DUP2 ADD SWAP1 PUSH2 0x165 SWAP2 SWAP1 PUSH2 0xD9B JUMP JUMPDEST PUSH2 0x413 JUMP JUMPDEST STOP JUMPDEST PUSH2 0x186 PUSH1 0x4 DUP1 CALLDATASIZE SUB DUP2 ADD SWAP1 PUSH2 0x181 SWAP2 SWAP1 PUSH2 0xDD9 JUMP JUMPDEST PUSH2 0x867 JUMP JUMPDEST STOP JUMPDEST PUSH0 DUP2 DUP2 SLOAD DUP2 LT PUSH2 0x196 JUMPI PUSH0 DUP1 REVERT JUMPDEST SWAP1 PUSH0 MSTORE PUSH1 0x20 PUSH0 KECCAK256 SWAP1 PUSH1 0x6 MUL ADD PUSH0 SWAP2 POP SWAP1 POP DUP1 PUSH0 ADD PUSH0 SWAP1 SLOAD SWAP1 PUSH2 0x100 EXP SWAP1 DIV PUSH20 0xFFFFFFFFFFFFFFFFFFFFFFFFFFFFFFFFFFFFFFFF AND SWAP1 DUP1 PUSH1 0x1 ADD PUSH0 SWAP1 SLOAD SWAP1 PUSH2 0x100 EXP SWAP1 DIV PUSH20 0xFFFFFFFFFFFFFFFFFFFFFFFFFFFFFFFFFFFFFFFF AND SWAP1 DUP1 PUSH1 0x2 ADD SLOAD SWAP1 DUP1 PUSH1 0x3 ADD SLOAD SWAP1 DUP1 PUSH1 0x4 ADD SLOAD SWAP1 DUP1 PUSH1 0x5 ADD PUSH0 SWAP1 SLOAD SWAP1 PUSH2 0x100 EXP SWAP1 DIV PUSH1 0xFF AND SWAP1 DUP1 PUSH1 0x5 ADD PUSH1 0x1 SWAP1 SLOAD SWAP1 PUSH2 0x100 EXP SWAP1 DIV PUSH1 0xFF AND SWAP1 POP DUP8 JUMP JUMPDEST PUSH0 DUP1 DUP3 DUP2 SLOAD DUP2 LT PUSH2 0x23F JUMPI PUSH2 0x23E PUSH2 0xE17 JUMP JUMPDEST JUMPDEST SWAP1 PUSH0 MSTORE PUSH1 0x20 PUSH0 KECCAK256 SWAP1 PUSH1 0x6 MUL ADD SWAP1 POP DUP1 PUSH1 0x5 ADD PUSH0 SWAP1 SLOAD SWAP1 PUSH2 0x100 EXP SWAP1 DIV PUSH1 0xFF AND ISZERO PUSH2 0x29E JUMPI PUSH1 0x40 MLOAD PUSH32 0x8C379A000000000000000000000000000000000000000000000000000000000 DUP2 MSTORE PUSH1 0x4 ADD PUSH2 0x295 SWAP1 PUSH2 0xE9E JUMP JUMPDEST PUSH1 0x40 MLOAD DUP1 SWAP2 SUB SWAP1 REVERT JUMPDEST DUP1 PUSH1 0x4 ADD SLOAD DUP2 PUSH1 0x3 ADD SLOAD GT DUP2 PUSH1 0x5 ADD PUSH1 0x1 PUSH2 0x100 EXP DUP2 SLOAD DUP2 PUSH1 0xFF MUL NOT AND SWAP1 DUP4 ISZERO ISZERO MUL OR SWAP1 SSTORE POP PUSH1 0x1 DUP2 PUSH1 0x5 ADD PUSH0 PUSH2 0x100 EXP DUP2 SLOAD DUP2 PUSH1 0xFF MUL NOT AND SWAP1 DUP4 ISZERO ISZERO MUL OR SWAP1 SSTORE POP DUP2 PUSH32 0x948F4A9CD986F1118C3FBD459F7A22B23C0693E1CA3EF06A6A8BE5AA7D39CC03 DUP3 PUSH1 0x5 ADD PUSH1 0x1 SWAP1 SLOAD SWAP1 PUSH2 0x100 EXP SWAP1 DIV PUSH1 0xFF AND PUSH1 0x40 MLOAD PUSH2 0x321 SWAP2 SWAP1 PUSH2 0xD31 JUMP JUMPDEST PUSH1 0x40 MLOAD DUP1 SWAP2 SUB SWAP1 LOG2 POP POP JUMP JUMPDEST PUSH1 0x1 PUSH0 SWAP1 SLOAD SWAP1 PUSH2 0x100 EXP SWAP1 DIV PUSH20 0xFFFFFFFFFFFFFFFFFFFFFFFFFFFFFFFFFFFFFFFF AND DUP2 JUMP JUMPDEST PUSH1 0x2 PUSH1 0x20 MSTORE DUP2 PUSH0 MSTORE PUSH1 0x40 PUSH0 KECCAK256 PUSH1 0x20 MSTORE DUP1 PUSH0 MSTORE PUSH1 0x40 PUSH0 KECCAK256 PUSH0 SWAP2 POP SWAP2 POP SWAP1 SLOAD SWAP1 PUSH2 0x100 EXP SWAP1 DIV PUSH1 0xFF AND DUP2 JUMP JUMPDEST PUSH0 DUP1 PUSH0 DUP1 SLOAD SWAP1 POP DUP4 LT PUSH2 0x3C4 JUMPI PUSH1 0x40 MLOAD PUSH32 0x8C379A000000000000000000000000000000000000000000000000000000000 DUP2 MSTORE PUSH1 0x4 ADD PUSH2 0x3BB SWAP1 PUSH2 0xF06 JUMP JUMPDEST PUSH1 0x40 MLOAD DUP1 SWAP2 SUB SWAP1 REVERT JUMPDEST PUSH0 DUP1 DUP5 DUP2 SLOAD DUP2 LT PUSH2 0x3D8 JUMPI PUSH2 0x3D7 PUSH2 0xE17 JUMP JUMPDEST JUMPDEST SWAP1 PUSH0 MSTORE PUSH1 0x20 PUSH0 KECCAK256 SWAP1 PUSH1 0x6 MUL ADD SWAP1 POP DUP1 PUSH1 0x5 ADD PUSH1 0x1 SWAP1 SLOAD SWAP1 PUSH2 0x100 EXP SWAP1 DIV PUSH1 0xFF AND DUP2 PUSH1 0x5 ADD PUSH0 SWAP1 SLOAD SWAP1 PUSH2 0x100 EXP SWAP1 DIV PUSH1 0xFF AND SWAP3 POP SWAP3 POP POP SWAP2 POP SWAP2 JUMP JUMPDEST PUSH0 PUSH1 0x1 PUSH0 SWAP1 SLOAD SWAP1 PUSH2 0x100 EXP SWAP1 DIV PUSH20 0xFFFFFFFFFFFFFFFFFFFFFFFFFFFFFFFFFFFFFFFF AND PUSH20 0xFFFFFFFFFFFFFFFFFFFFFFFFFFFFFFFFFFFFFFFF AND PUSH4 0x70A08231 CALLER PUSH1 0x40 MLOAD DUP3 PUSH4 0xFFFFFFFF AND PUSH1 0xE0 SHL DUP2 MSTORE PUSH1 0x4 ADD PUSH2 0x46E SWAP2 SWAP1 PUSH2 0xF24 JUMP JUMPDEST PUSH1 0x20 PUSH1 0x40 MLOAD DUP1 DUP4 SUB DUP2 DUP7 GAS STATICCALL ISZERO DUP1 ISZERO PUSH2 0x489 JUMPI RETURNDATASIZE PUSH0 DUP1 RETURNDATACOPY RETURNDATASIZE PUSH0 REVERT JUMPDEST POP POP POP POP PUSH1 0x40 MLOAD RETURNDATASIZE PUSH1 0x1F NOT PUSH1 0x1F DUP3 ADD AND DUP3 ADD DUP1 PUSH1 0x40 MSTORE POP DUP2 ADD SWAP1 PUSH2 0x4AD SWAP2 SWAP1 PUSH2 0xF51 JUMP JUMPDEST GT PUSH2 0x4ED JUMPI PUSH1 0x40 MLOAD PUSH32 0x8C379A000000000000000000000000000000000000000000000000000000000 DUP2 MSTORE PUSH1 0x4 ADD PUSH2 0x4E4 SWAP1 PUSH2 0xFC6 JUMP JUMPDEST PUSH1 0x40 MLOAD DUP1 SWAP2 SUB SWAP1 REVERT JUMPDEST PUSH0 DUP1 SLOAD SWAP1 POP DUP3 LT PUSH2 0x533 JUMPI PUSH1 0x40 MLOAD PUSH32 0x8C379A000000000000000000000000000000000000000000000000000000000 DUP2 MSTORE PUSH1 0x4 ADD PUSH2 0x52A SWAP1 PUSH2 0xF06 JUMP JUMPDEST PUSH1 0x40 MLOAD DUP1 SWAP2 SUB SWAP1 REVERT JUMPDEST PUSH1 0x2 PUSH0 DUP4 DUP2 MSTORE PUSH1 0x20 ADD SWAP1 DUP2 MSTORE PUSH1 0x20 ADD PUSH0 KECCAK256 PUSH0 CALLER PUSH20 0xFFFFFFFFFFFFFFFFFFFFFFFFFFFFFFFFFFFFFFFF AND PUSH20 0xFFFFFFFFFFFFFFFFFFFFFFFFFFFFFFFFFFFFFFFF AND DUP2 MSTORE PUSH1 0x20 ADD SWAP1 DUP2 MSTORE PUSH1 0x20 ADD PUSH0 KECCAK256 PUSH0 SWAP1 SLOAD SWAP1 PUSH2 0x100 EXP SWAP1 DIV PUSH1 0xFF AND ISZERO PUSH2 0x5CC JUMPI PUSH1 0x40 MLOAD PUSH32 0x8C379A000000000000000000000000000000000000000000000000000000000 DUP2 MSTORE PUSH1 0x4 ADD PUSH2 0x5C3 SWAP1 PUSH2 0x102E JUMP JUMPDEST PUSH1 0x40 MLOAD DUP1 SWAP2 SUB SWAP1 REVERT JUMPDEST PUSH0 DUP1 DUP4 DUP2 SLOAD DUP2 LT PUSH2 0x5E0 JUMPI PUSH2 0x5DF PUSH2 0xE17 JUMP JUMPDEST JUMPDEST SWAP1 PUSH0 MSTORE PUSH1 0x20 PUSH0 KECCAK256 SWAP1 PUSH1 0x6 MUL ADD SWAP1 POP DUP1 PUSH1 0x5 ADD PUSH0 SWAP1 SLOAD SWAP1 PUSH2 0x100 EXP SWAP1 DIV PUSH1 0xFF AND ISZERO PUSH2 0x63F JUMPI PUSH1 0x40 MLOAD PUSH32 0x8C379A000000000000000000000000000000000000000000000000000000000 DUP2 MSTORE PUSH1 0x4 ADD PUSH2 0x636 SWAP1 PUSH2 0xE9E JUMP JUMPDEST PUSH1 0x40 MLOAD DUP1 SWAP2 SUB SWAP1 REVERT JUMPDEST DUP2 ISZERO PUSH2 0x6FC JUMPI PUSH1 0x1 PUSH0 SWAP1 SLOAD SWAP1 PUSH2 0x100 EXP SWAP1 DIV PUSH20 0xFFFFFFFFFFFFFFFFFFFFFFFFFFFFFFFFFFFFFFFF AND PUSH20 0xFFFFFFFFFFFFFFFFFFFFFFFFFFFFFFFFFFFFFFFF AND PUSH4 0x70A08231 CALLER PUSH1 0x40 MLOAD DUP3 PUSH4 0xFFFFFFFF AND PUSH1 0xE0 SHL DUP2 MSTORE PUSH1 0x4 ADD PUSH2 0x69F SWAP2 SWAP1 PUSH2 0xF24 JUMP JUMPDEST PUSH1 0x20 PUSH1 0x40 MLOAD DUP1 DUP4 SUB DUP2 DUP7 GAS STATICCALL ISZERO DUP1 ISZERO PUSH2 0x6BA JUMPI RETURNDATASIZE PUSH0 DUP1 RETURNDATACOPY RETURNDATASIZE PUSH0 REVERT JUMPDEST POP POP POP POP PUSH1 0x40 MLOAD RETURNDATASIZE PUSH1 0x1F NOT PUSH1 0x1F DUP3 ADD AND DUP3 ADD DUP1 PUSH1 0x40 MSTORE POP DUP2 ADD SWAP1 PUSH2 0x6DE SWAP2 SWAP1 PUSH2 0xF51 JUMP JUMPDEST DUP2 PUSH1 0x3 ADD PUSH0 DUP3 DUP3 SLOAD PUSH2 0x6F0 SWAP2 SWAP1 PUSH2 0x1079 JUMP JUMPDEST SWAP3 POP POP DUP2 SWAP1 SSTORE POP PUSH2 0x7AF JUMP JUMPDEST PUSH1 0x1 PUSH0 SWAP1 SLOAD SWAP1 PUSH2 0x100 EXP SWAP1 DIV PUSH20 0xFFFFFFFFFFFFFFFFFFFFFFFFFFFFFFFFFFFFFFFF AND PUSH20 0xFFFFFFFFFFFFFFFFFFFFFFFFFFFFFFFFFFFFFFFF AND PUSH4 0x70A08231 CALLER PUSH1 0x40 MLOAD DUP3 PUSH4 0xFFFFFFFF AND PUSH1 0xE0 SHL DUP2 MSTORE PUSH1 0x4 ADD PUSH2 0x756 SWAP2 SWAP1 PUSH2 0xF24 JUMP JUMPDEST PUSH1 0x20 PUSH1 0x40 MLOAD DUP1 DUP4 SUB DUP2 DUP7 GAS STATICCALL ISZERO DUP1 ISZERO PUSH2 0x771 JUMPI RETURNDATASIZE PUSH0 DUP1 RETURNDATACOPY RETURNDATASIZE PUSH0 REVERT JUMPDEST POP POP POP POP PUSH1 0x40 MLOAD RETURNDATASIZE PUSH1 0x1F NOT PUSH1 0x1F DUP3 ADD AND DUP3 ADD DUP1 PUSH1 0x40 MSTORE POP DUP2 ADD SWAP1 PUSH2 0x795 SWAP2 SWAP1 PUSH2 0xF51 JUMP JUMPDEST DUP2 PUSH1 0x4 ADD PUSH0 DUP3 DUP3 SLOAD PUSH2 0x7A7 SWAP2 SWAP1 PUSH2 0x1079 JUMP JUMPDEST SWAP3 POP POP DUP2 SWAP1 SSTORE POP JUMPDEST PUSH1 0x1 PUSH1 0x2 PUSH0 DUP6 DUP2 MSTORE PUSH1 0x20 ADD SWAP1 DUP2 MSTORE PUSH1 0x20 ADD PUSH0 KECCAK256 PUSH0 CALLER PUSH20 0xFFFFFFFFFFFFFFFFFFFFFFFFFFFFFFFFFFFFFFFF AND PUSH20 0xFFFFFFFFFFFFFFFFFFFFFFFFFFFFFFFFFFFFFFFF AND DUP2 MSTORE PUSH1 0x20 ADD SWAP1 DUP2 MSTORE PUSH1 0x20 ADD PUSH0 KECCAK256 PUSH0 PUSH2 0x100 EXP DUP2 SLOAD DUP2 PUSH1 0xFF MUL NOT AND SWAP1 DUP4 ISZERO ISZERO MUL OR SWAP1 SSTORE POP CALLER PUSH20 0xFFFFFFFFFFFFFFFFFFFFFFFFFFFFFFFFFFFFFFFF AND DUP4 PUSH32 0xF2913DBE661EE2ACC4A046D8FBCDC792373BDA34C41C6086484B5345E5785E5F DUP5 PUSH1 0x40 MLOAD PUSH2 0x85A SWAP2 SWAP1 PUSH2 0xD31 JUMP JUMPDEST PUSH1 0x40 MLOAD DUP1 SWAP2 SUB SWAP1 LOG3 POP POP POP JUMP JUMPDEST PUSH0 PUSH1 0x1 PUSH0 SWAP1 SLOAD SWAP1 PUSH2 0x100 EXP SWAP1 DIV PUSH20 0xFFFFFFFFFFFFFFFFFFFFFFFFFFFFFFFFFFFFFFFF AND PUSH20 0xFFFFFFFFFFFFFFFFFFFFFFFFFFFFFFFFFFFFFFFF AND PUSH4 0x70A08231 CALLER PUSH1 0x40 MLOAD DUP3 PUSH4 0xFFFFFFFF AND PUSH1 0xE0 SHL DUP2 MSTORE PUSH1 0x4 ADD PUSH2 0x8C2 SWAP2 SWAP1 PUSH2 0xF24 JUMP JUMPDEST PUSH1 0x20 PUSH1 0x40 MLOAD DUP1 DUP4 SUB DUP2 DUP7 GAS STATICCALL ISZERO DUP1 ISZERO PUSH2 0x8DD JUMPI RETURNDATASIZE PUSH0 DUP1 RETURNDATACOPY RETURNDATASIZE PUSH0 REVERT JUMPDEST POP POP POP POP PUSH1 0x40 MLOAD RETURNDATASIZE PUSH1 0x1F NOT PUSH1 0x1F DUP3 ADD AND DUP3 ADD DUP1 PUSH1 0x40 MSTORE POP DUP2 ADD SWAP1 PUSH2 0x901 SWAP2 SWAP1 PUSH2 0xF51 JUMP JUMPDEST GT PUSH2 0x941 JUMPI PUSH1 0x40 MLOAD PUSH32 0x8C379A000000000000000000000000000000000000000000000000000000000 DUP2 MSTORE PUSH1 0x4 ADD PUSH2 0x938 SWAP1 PUSH2 0xFC6 JUMP JUMPDEST PUSH1 0x40 MLOAD DUP1 SWAP2 SUB SWAP1 REVERT JUMPDEST PUSH0 PUSH1 0x40 MLOAD DUP1 PUSH1 0xE0 ADD PUSH1 0x40 MSTORE DUP1 CALLER PUSH20 0xFFFFFFFFFFFFFFFFFFFFFFFFFFFFFFFFFFFFFFFF AND DUP2 MSTORE PUSH1 0x20 ADD DUP5 PUSH20 0xFFFFFFFFFFFFFFFFFFFFFFFFFFFFFFFFFFFFFFFF AND DUP2 MSTORE PUSH1 0x20 ADD DUP4 DUP2 MSTORE PUSH1 0x20 ADD PUSH0 DUP2 MSTORE PUSH1 0x20 ADD PUSH0 DUP2 MSTORE PUSH1 0x20 ADD PUSH0 ISZERO ISZERO DUP2 MSTORE PUSH1 0x20 ADD PUSH0 ISZERO ISZERO DUP2 MSTORE POP SWAP1 DUP1 PUSH1 0x1 DUP2 SLOAD ADD DUP1 DUP3 SSTORE DUP1 SWAP2 POP POP PUSH1 0x1 SWAP1 SUB SWAP1 PUSH0 MSTORE PUSH1 0x20 PUSH0 KECCAK256 SWAP1 PUSH1 0x6 MUL ADD PUSH0 SWAP1 SWAP2 SWAP1 SWAP2 SWAP1 SWAP2 POP PUSH0 DUP3 ADD MLOAD DUP2 PUSH0 ADD PUSH0 PUSH2 0x100 EXP DUP2 SLOAD DUP2 PUSH20 0xFFFFFFFFFFFFFFFFFFFFFFFFFFFFFFFFFFFFFFFF MUL NOT AND SWAP1 DUP4 PUSH20 0xFFFFFFFFFFFFFFFFFFFFFFFFFFFFFFFFFFFFFFFF AND MUL OR SWAP1 SSTORE POP PUSH1 0x20 DUP3 ADD MLOAD DUP2 PUSH1 0x1 ADD PUSH0 PUSH2 0x100 EXP DUP2 SLOAD DUP2 PUSH20 0xFFFFFFFFFFFFFFFFFFFFFFFFFFFFFFFFFFFFFFFF MUL NOT AND SWAP1 DUP4 PUSH20 0xFFFFFFFFFFFFFFFFFFFFFFFFFFFFFFFFFFFFFFFF AND MUL OR SWAP1 SSTORE POP PUSH1 0x40 DUP3 ADD MLOAD DUP2 PUSH1 0x2 ADD SSTORE PUSH1 0x60 DUP3 ADD MLOAD DUP2 PUSH1 0x3 ADD SSTORE PUSH1 0x80 DUP3 ADD MLOAD DUP2 PUSH1 0x4 ADD SSTORE PUSH1 0xA0 DUP3 ADD MLOAD DUP2 PUSH1 0x5 ADD PUSH0 PUSH2 0x100 EXP DUP2 SLOAD DUP2 PUSH1 0xFF MUL NOT AND SWAP1 DUP4 ISZERO ISZERO MUL OR SWAP1 SSTORE POP PUSH1 0xC0 DUP3 ADD MLOAD DUP2 PUSH1 0x5 ADD PUSH1 0x1 PUSH2 0x100 EXP DUP2 SLOAD DUP2 PUSH1 0xFF MUL NOT AND SWAP1 DUP4 ISZERO ISZERO MUL OR SWAP1 SSTORE POP POP POP PUSH0 PUSH1 0x1 PUSH0 DUP1 SLOAD SWAP1 POP PUSH2 0xAC6 SWAP2 SWAP1 PUSH2 0x10AC JUMP JUMPDEST SWAP1 POP CALLER PUSH20 0xFFFFFFFFFFFFFFFFFFFFFFFFFFFFFFFFFFFFFFFF AND DUP2 PUSH32 0x6D4365EEEA2290A1FB5155F6F527BB01F4A2797DEA12F20ABC314EFFACAFD202 DUP6 DUP6 PUSH1 0x40 MLOAD PUSH2 0xB11 SWAP3 SWAP2 SWAP1 PUSH2 0x10DF JUMP JUMPDEST PUSH1 0x40 MLOAD DUP1 SWAP2 SUB SWAP1 LOG3 POP POP POP JUMP JUMPDEST PUSH0 DUP1 REVERT JUMPDEST PUSH0 DUP2 SWAP1 POP SWAP2 SWAP1 POP JUMP JUMPDEST PUSH2 0xB34 DUP2 PUSH2 0xB22 JUMP JUMPDEST DUP2 EQ PUSH2 0xB3E JUMPI PUSH0 DUP1 REVERT JUMPDEST POP JUMP JUMPDEST PUSH0 DUP2 CALLDATALOAD SWAP1 POP PUSH2 0xB4F DUP2 PUSH2 0xB2B JUMP JUMPDEST SWAP3 SWAP2 POP POP JUMP JUMPDEST PUSH0 PUSH1 0x20 DUP3 DUP5 SUB SLT ISZERO PUSH2 0xB6A JUMPI PUSH2 0xB69 PUSH2 0xB1E JUMP JUMPDEST JUMPDEST PUSH0 PUSH2 0xB77 DUP5 DUP3 DUP6 ADD PUSH2 0xB41 JUMP JUMPDEST SWAP2 POP POP SWAP3 SWAP2 POP POP JUMP JUMPDEST PUSH0 PUSH20 0xFFFFFFFFFFFFFFFFFFFFFFFFFFFFFFFFFFFFFFFF DUP3 AND SWAP1 POP SWAP2 SWAP1 POP JUMP JUMPDEST PUSH0 PUSH2 0xBA9 DUP3 PUSH2 0xB80 JUMP JUMPDEST SWAP1 POP SWAP2 SWAP1 POP JUMP JUMPDEST PUSH2 0xBB9 DUP2 PUSH2 0xB9F JUMP JUMPDEST DUP3 MSTORE POP POP JUMP JUMPDEST PUSH2 0xBC8 DUP2 PUSH2 0xB22 JUMP JUMPDEST DUP3 MSTORE POP POP JUMP JUMPDEST PUSH0 DUP2 ISZERO ISZERO SWAP1 POP SWAP2 SWAP1 POP JUMP JUMPDEST PUSH2 0xBE2 DUP2 PUSH2 0xBCE JUMP JUMPDEST DUP3 MSTORE POP POP JUMP JUMPDEST PUSH0 PUSH1 0xE0 DUP3 ADD SWAP1 POP PUSH2 0xBFB PUSH0 DUP4 ADD DUP11 PUSH2 0xBB0 JUMP JUMPDEST PUSH2 0xC08 PUSH1 0x20 DUP4 ADD DUP10 PUSH2 0xBB0 JUMP JUMPDEST PUSH2 0xC15 PUSH1 0x40 DUP4 ADD DUP9 PUSH2 0xBBF JUMP JUMPDEST PUSH2 0xC22 PUSH1 0x60 DUP4 ADD DUP8 PUSH2 0xBBF JUMP JUMPDEST PUSH2 0xC2F PUSH1 0x80 DUP4 ADD DUP7 PUSH2 0xBBF JUMP JUMPDEST PUSH2 0xC3C PUSH1 0xA0 DUP4 ADD DUP6 PUSH2 0xBD9 JUMP JUMPDEST PUSH2 0xC49 PUSH1 0xC0 DUP4 ADD DUP5 PUSH2 0xBD9 JUMP JUMPDEST SWAP9 SWAP8 POP POP POP POP POP POP POP POP JUMP JUMPDEST PUSH0 DUP2 SWAP1 POP SWAP2 SWAP1 POP JUMP JUMPDEST PUSH0 PUSH2 0xC78 PUSH2 0xC73 PUSH2 0xC6E DUP5 PUSH2 0xB80 JUMP JUMPDEST PUSH2 0xC55 JUMP JUMPDEST PUSH2 0xB80 JUMP JUMPDEST SWAP1 POP SWAP2 SWAP1 POP JUMP JUMPDEST PUSH0 PUSH2 0xC89 DUP3 PUSH2 0xC5E JUMP JUMPDEST SWAP1 POP SWAP2 SWAP1 POP JUMP JUMPDEST PUSH0 PUSH2 0xC9A DUP3 PUSH2 0xC7F JUMP JUMPDEST SWAP1 POP SWAP2 SWAP1 POP JUMP JUMPDEST PUSH2 0xCAA DUP2 PUSH2 0xC90 JUMP JUMPDEST DUP3 MSTORE POP POP JUMP JUMPDEST PUSH0 PUSH1 0x20 DUP3 ADD SWAP1 POP PUSH2 0xCC3 PUSH0 DUP4 ADD DUP5 PUSH2 0xCA1 JUMP JUMPDEST SWAP3 SWAP2 POP POP JUMP JUMPDEST PUSH2 0xCD2 DUP2 PUSH2 0xB9F JUMP JUMPDEST DUP2 EQ PUSH2 0xCDC JUMPI PUSH0 DUP1 REVERT JUMPDEST POP JUMP JUMPDEST PUSH0 DUP2 CALLDATALOAD SWAP1 POP PUSH2 0xCED DUP2 PUSH2 0xCC9 JUMP JUMPDEST SWAP3 SWAP2 POP POP JUMP JUMPDEST PUSH0 DUP1 PUSH1 0x40 DUP4 DUP6 SUB SLT ISZERO PUSH2 0xD09 JUMPI PUSH2 0xD08 PUSH2 0xB1E JUMP JUMPDEST JUMPDEST PUSH0 PUSH2 0xD16 DUP6 DUP3 DUP7 ADD PUSH2 0xB41 JUMP JUMPDEST SWAP3 POP POP PUSH1 0x20 PUSH2 0xD27 DUP6 DUP3 DUP7 ADD PUSH2 0xCDF JUMP JUMPDEST SWAP2 POP POP SWAP3 POP SWAP3 SWAP1 POP JUMP JUMPDEST PUSH0 PUSH1 0x20 DUP3 ADD SWAP1 POP PUSH2 0xD44 PUSH0 DUP4 ADD DUP5 PUSH2 0xBD9 JUMP JUMPDEST SWAP3 SWAP2 POP POP JUMP JUMPDEST PUSH0 PUSH1 0x40 DUP3 ADD SWAP1 POP PUSH2 0xD5D PUSH0 DUP4 ADD DUP6 PUSH2 0xBD9 JUMP JUMPDEST PUSH2 0xD6A PUSH1 0x20 DUP4 ADD DUP5 PUSH2 0xBD9 JUMP JUMPDEST SWAP4 SWAP3 POP POP POP JUMP JUMPDEST PUSH2 0xD7A DUP2 PUSH2 0xBCE JUMP JUMPDEST DUP2 EQ PUSH2 0xD84 JUMPI PUSH0 DUP1 REVERT JUMPDEST POP JUMP JUMPDEST PUSH0 DUP2 CALLDATALOAD SWAP1 POP PUSH2 0xD95 DUP2 PUSH2 0xD71 JUMP JUMPDEST SWAP3 SWAP2 POP POP JUMP JUMPDEST PUSH0 DUP1 PUSH1 0x40 DUP4 DUP6 SUB SLT ISZERO PUSH2 0xDB1 JUMPI PUSH2 0xDB0 PUSH2 0xB1E JUMP JUMPDEST JUMPDEST PUSH0 PUSH2 0xDBE DUP6 DUP3 DUP7 ADD PUSH2 0xB41 JUMP JUMPDEST SWAP3 POP POP PUSH1 0x20 PUSH2 0xDCF DUP6 DUP3 DUP7 ADD PUSH2 0xD87 JUMP JUMPDEST SWAP2 POP POP SWAP3 POP SWAP3 SWAP1 POP JUMP JUMPDEST PUSH0 DUP1 PUSH1 0x40 DUP4 DUP6 SUB SLT ISZERO PUSH2 0xDEF JUMPI PUSH2 0xDEE PUSH2 0xB1E JUMP JUMPDEST JUMPDEST PUSH0 PUSH2 0xDFC DUP6 DUP3 DUP7 ADD PUSH2 0xCDF JUMP JUMPDEST SWAP3 POP POP PUSH1 0x20 PUSH2 0xE0D DUP6 DUP3 DUP7 ADD PUSH2 0xB41 JUMP JUMPDEST SWAP2 POP POP SWAP3 POP SWAP3 SWAP1 POP JUMP JUMPDEST PUSH32 0x4E487B7100000000000000000000000000000000000000000000000000000000 PUSH0 MSTORE PUSH1 0x32 PUSH1 0x4 MSTORE PUSH1 0x24 PUSH0 REVERT JUMPDEST PUSH0 DUP3 DUP3 MSTORE PUSH1 0x20 DUP3 ADD SWAP1 POP SWAP3 SWAP2 POP POP JUMP JUMPDEST PUSH32 0x50726F706F73616C20616C726561647920657865637574656400000000000000 PUSH0 DUP3 ADD MSTORE POP JUMP JUMPDEST PUSH0 PUSH2 0xE88 PUSH1 0x19 DUP4 PUSH2 0xE44 JUMP JUMPDEST SWAP2 POP PUSH2 0xE93 DUP3 PUSH2 0xE54 JUMP JUMPDEST PUSH1 0x20 DUP3 ADD SWAP1 POP SWAP2 SWAP1 POP JUMP JUMPDEST PUSH0 PUSH1 0x20 DUP3 ADD SWAP1 POP DUP2 DUP2 SUB PUSH0 DUP4 ADD MSTORE PUSH2 0xEB5 DUP2 PUSH2 0xE7C JUMP JUMPDEST SWAP1 POP SWAP2 SWAP1 POP JUMP JUMPDEST PUSH32 0x50726F706F73616C20646F6573206E6F74206578697374000000000000000000 PUSH0 DUP3 ADD MSTORE POP JUMP JUMPDEST PUSH0 PUSH2 0xEF0 PUSH1 0x17 DUP4 PUSH2 0xE44 JUMP JUMPDEST SWAP2 POP PUSH2 0xEFB DUP3 PUSH2 0xEBC JUMP JUMPDEST PUSH1 0x20 DUP3 ADD SWAP1 POP SWAP2 SWAP1 POP JUMP JUMPDEST PUSH0 PUSH1 0x20 DUP3 ADD SWAP1 POP DUP2 DUP2 SUB PUSH0 DUP4 ADD MSTORE PUSH2 0xF1D DUP2 PUSH2 0xEE4 JUMP JUMPDEST SWAP1 POP SWAP2 SWAP1 POP JUMP JUMPDEST PUSH0 PUSH1 0x20 DUP3 ADD SWAP1 POP PUSH2 0xF37 PUSH0 DUP4 ADD DUP5 PUSH2 0xBB0 JUMP JUMPDEST SWAP3 SWAP2 POP POP JUMP JUMPDEST PUSH0 DUP2 MLOAD SWAP1 POP PUSH2 0xF4B DUP2 PUSH2 0xB2B JUMP JUMPDEST SWAP3 SWAP2 POP POP JUMP JUMPDEST PUSH0 PUSH1 0x20 DUP3 DUP5 SUB SLT ISZERO PUSH2 0xF66 JUMPI PUSH2 0xF65 PUSH2 0xB1E JUMP JUMPDEST JUMPDEST PUSH0 PUSH2 0xF73 DUP5 DUP3 DUP6 ADD PUSH2 0xF3D JUMP JUMPDEST SWAP2 POP POP SWAP3 SWAP2 POP POP JUMP JUMPDEST PUSH32 0x4E6F74206120746F6B656E20686F6C6465720000000000000000000000000000 PUSH0 DUP3 ADD MSTORE POP JUMP JUMPDEST PUSH0 PUSH2 0xFB0 PUSH1 0x12 DUP4 PUSH2 0xE44 JUMP JUMPDEST SWAP2 POP PUSH2 0xFBB DUP3 PUSH2 0xF7C JUMP JUMPDEST PUSH1 0x20 DUP3 ADD SWAP1 POP SWAP2 SWAP1 POP JUMP JUMPDEST PUSH0 PUSH1 0x20 DUP3 ADD SWAP1 POP DUP2 DUP2 SUB PUSH0 DUP4 ADD MSTORE PUSH2 0xFDD DUP2 PUSH2 0xFA4 JUMP JUMPDEST SWAP1 POP SWAP2 SWAP1 POP JUMP JUMPDEST PUSH32 0x416C726561647920766F746564206F6E20746869732070726F706F73616C0000 PUSH0 DUP3 ADD MSTORE POP JUMP JUMPDEST PUSH0 PUSH2 0x1018 PUSH1 0x1E DUP4 PUSH2 0xE44 JUMP JUMPDEST SWAP2 POP PUSH2 0x1023 DUP3 PUSH2 0xFE4 JUMP JUMPDEST PUSH1 0x20 DUP3 ADD SWAP1 POP SWAP2 SWAP1 POP JUMP JUMPDEST PUSH0 PUSH1 0x20 DUP3 ADD SWAP1 POP DUP2 DUP2 SUB PUSH0 DUP4 ADD MSTORE PUSH2 0x1045 DUP2 PUSH2 0x100C JUMP JUMPDEST SWAP1 POP SWAP2 SWAP1 POP JUMP JUMPDEST PUSH32 0x4E487B7100000000000000000000000000000000000000000000000000000000 PUSH0 MSTORE PUSH1 0x11 PUSH1 0x4 MSTORE PUSH1 0x24 PUSH0 REVERT JUMPDEST PUSH0 PUSH2 0x1083 DUP3 PUSH2 0xB22 JUMP JUMPDEST SWAP2 POP PUSH2 0x108E DUP4 PUSH2 0xB22 JUMP JUMPDEST SWAP3 POP DUP3 DUP3 ADD SWAP1 POP DUP1 DUP3 GT ISZERO PUSH2 0x10A6 JUMPI PUSH2 0x10A5 PUSH2 0x104C JUMP JUMPDEST JUMPDEST SWAP3 SWAP2 POP POP JUMP JUMPDEST PUSH0 PUSH2 0x10B6 DUP3 PUSH2 0xB22 JUMP JUMPDEST SWAP2 POP PUSH2 0x10C1 DUP4 PUSH2 0xB22 JUMP JUMPDEST SWAP3 POP DUP3 DUP3 SUB SWAP1 POP DUP2 DUP2 GT ISZERO PUSH2 0x10D9 JUMPI PUSH2 0x10D8 PUSH2 0x104C JUMP JUMPDEST JUMPDEST SWAP3 SWAP2 POP POP JUMP JUMPDEST PUSH0 PUSH1 0x40 DUP3 ADD SWAP1 POP PUSH2 0x10F2 PUSH0 DUP4 ADD DUP6 PUSH2 0xBB0 JUMP JUMPDEST PUSH2 0x10FF PUSH1 0x20 DUP4 ADD DUP5 PUSH2 0xBBF JUMP JUMPDEST SWAP4 SWAP3 POP POP POP JUMP INVALID LOG2 PUSH5 0x6970667358 0x22 SLT KECCAK256 DUP1 0xD2 AND GAS DUP8 DUP5 DUP8 0xDE CALL 0xBD PUSH2 0x6875 0xDD SWAP9 DUP4 KECCAK256 RETURN SELFBALANCE 0x2C DUP12 PUSH25 0x56EEB2B50B2B34021EA564736F6C6343000818003300000000 "
				},
				"gasEstimates": {
					"creation": {
						"codeDepositCost": "882400",
						"executionCost": "infinite",
						"totalCost": "infinite"
					},
					"external": {
						"createProposal(address,uint256)": "infinite",
						"executeProposal(uint256)": "61363",
						"getProposalOutcome(uint256)": "infinite",
						"hasVoted(uint256,address)": "3071",
						"proposals(uint256)": "infinite",
						"rwaTokenizationContract()": "infinite",
						"vote(uint256,bool)": "infinite"
					}
				},
				"methodIdentifiers": {
					"createProposal(address,uint256)": "dfc51a25",
					"executeProposal(uint256)": "0d61b519",
					"getProposalOutcome(uint256)": "6fdb6f7c",
					"hasVoted(uint256,address)": "43859632",
					"proposals(uint256)": "013cf08b",
					"rwaTokenizationContract()": "25fdf6b1",
					"vote(uint256,bool)": "c9d27afe"
				}
			},
			"storageLayout": {
				"storage": [
					{
						"astId": 34,
						"contract": "aquo/DAO.sol:DAO",
						"label": "proposals",
						"offset": 0,
						"slot": "0",
						"type": "t_array(t_struct(Proposal)30_storage)dyn_storage"
					},
					{
						"astId": 37,
						"contract": "aquo/DAO.sol:DAO",
						"label": "rwaTokenizationContract",
						"offset": 0,
						"slot": "1",
						"type": "t_contract(IRWATokenization)15"
					},
					{
						"astId": 43,
						"contract": "aquo/DAO.sol:DAO",
						"label": "hasVoted",
						"offset": 0,
						"slot": "2",
						"type": "t_mapping(t_uint256,t_mapping(t_address,t_bool))"
					}
				],
				"types": {
					"t_address": {
						"encoding": "inplace",
						"label": "address",
						"numberOfBytes": "20"
					},
					"t_array(t_struct(Proposal)30_storage)dyn_storage": {
						"base": "t_struct(Proposal)30_storage",
						"encoding": "dynamic_array",
						"label": "struct DAO.Proposal[]",
						"numberOfBytes": "32"
					},
					"t_bool": {
						"encoding": "inplace",
						"label": "bool",
						"numberOfBytes": "1"
					},
					"t_contract(IRWATokenization)15": {
						"encoding": "inplace",
						"label": "contract IRWATokenization",
						"numberOfBytes": "20"
					},
					"t_mapping(t_address,t_bool)": {
						"encoding": "mapping",
						"key": "t_address",
						"label": "mapping(address => bool)",
						"numberOfBytes": "32",
						"value": "t_bool"
					},
					"t_mapping(t_uint256,t_mapping(t_address,t_bool))": {
						"encoding": "mapping",
						"key": "t_uint256",
						"label": "mapping(uint256 => mapping(address => bool))",
						"numberOfBytes": "32",
						"value": "t_mapping(t_address,t_bool)"
					},
					"t_struct(Proposal)30_storage": {
						"encoding": "inplace",
						"label": "struct DAO.Proposal",
						"members": [
							{
								"astId": 17,
								"contract": "aquo/DAO.sol:DAO",
								"label": "proposer",
								"offset": 0,
								"slot": "0",
								"type": "t_address"
							},
							{
								"astId": 19,
								"contract": "aquo/DAO.sol:DAO",
								"label": "poolContract",
								"offset": 0,
								"slot": "1",
								"type": "t_address"
							},
							{
								"astId": 21,
								"contract": "aquo/DAO.sol:DAO",
								"label": "dilution",
								"offset": 0,
								"slot": "2",
								"type": "t_uint256"
							},
							{
								"astId": 23,
								"contract": "aquo/DAO.sol:DAO",
								"label": "yesVotes",
								"offset": 0,
								"slot": "3",
								"type": "t_uint256"
							},
							{
								"astId": 25,
								"contract": "aquo/DAO.sol:DAO",
								"label": "noVotes",
								"offset": 0,
								"slot": "4",
								"type": "t_uint256"
							},
							{
								"astId": 27,
								"contract": "aquo/DAO.sol:DAO",
								"label": "executed",
								"offset": 0,
								"slot": "5",
								"type": "t_bool"
							},
							{
								"astId": 29,
								"contract": "aquo/DAO.sol:DAO",
								"label": "outcome",
								"offset": 1,
								"slot": "5",
								"type": "t_bool"
							}
						],
						"numberOfBytes": "192"
					},
					"t_uint256": {
						"encoding": "inplace",
						"label": "uint256",
						"numberOfBytes": "32"
					}
				}
			},
			"userdoc": {
				"kind": "user",
				"methods": {},
				"version": 1
			}
		}
	}
}