{
	"aquo/AquoDaoList.sol": {
		"DAOList": {
			"abi": [
				{
					"inputs": [],
					"name": "getAllDAOs",
					"outputs": [
						{
							"components": [
								{
									"internalType": "uint256",
									"name": "daoId",
									"type": "uint256"
								},
								{
									"internalType": "address",
									"name": "daoAddress",
									"type": "address"
								}
							],
							"internalType": "struct DAOList.DAO[]",
							"name": "",
							"type": "tuple[]"
						}
					],
					"stateMutability": "view",
					"type": "function"
				},
				{
					"inputs": [
						{
							"internalType": "address",
							"name": "_daoAddress",
							"type": "address"
						}
					],
					"name": "getDAOByDAOAddress",
					"outputs": [
						{
							"components": [
								{
									"internalType": "uint256",
									"name": "daoId",
									"type": "uint256"
								},
								{
									"internalType": "address",
									"name": "daoAddress",
									"type": "address"
								}
							],
							"internalType": "struct DAOList.DAO",
							"name": "",
							"type": "tuple"
						}
					],
					"stateMutability": "view",
					"type": "function"
				},
				{
					"inputs": [
						{
							"internalType": "uint256",
							"name": "_daoId",
							"type": "uint256"
						}
					],
					"name": "getDAOByDAOId",
					"outputs": [
						{
							"components": [
								{
									"internalType": "uint256",
									"name": "daoId",
									"type": "uint256"
								},
								{
									"internalType": "address",
									"name": "daoAddress",
									"type": "address"
								}
							],
							"internalType": "struct DAOList.DAO",
							"name": "",
							"type": "tuple"
						}
					],
					"stateMutability": "view",
					"type": "function"
				},
				{
					"inputs": [
						{
							"internalType": "address",
							"name": "_daoAddress",
							"type": "address"
						}
					],
					"name": "listDAO",
					"outputs": [
						{
							"internalType": "uint256",
							"name": "",
							"type": "uint256"
						}
					],
					"stateMutability": "nonpayable",
					"type": "function"
				}
			],
			"devdoc": {
				"kind": "dev",
				"methods": {},
				"version": 1
			},
			"evm": {
				"assembly": "    /* \"aquo/AquoDaoList.sol\":61:1529  contract DAOList {... */\n  mstore(0x40, 0x80)\n    /* \"aquo/AquoDaoList.sol\":218:219  1 */\n  0x01\n    /* \"aquo/AquoDaoList.sol\":190:219  uint256 private nextDAOId = 1 */\n  dup1\n  sstore\n    /* \"aquo/AquoDaoList.sol\":61:1529  contract DAOList {... */\n  callvalue\n  dup1\n  iszero\n  tag_1\n  jumpi\n  0x00\n  dup1\n  revert\ntag_1:\n  pop\n  dataSize(sub_0)\n  dup1\n  dataOffset(sub_0)\n  0x00\n  codecopy\n  0x00\n  return\nstop\n\nsub_0: assembly {\n        /* \"aquo/AquoDaoList.sol\":61:1529  contract DAOList {... */\n      mstore(0x40, 0x80)\n      callvalue\n      dup1\n      iszero\n      tag_1\n      jumpi\n      0x00\n      dup1\n      revert\n    tag_1:\n      pop\n      jumpi(tag_2, lt(calldatasize, 0x04))\n      shr(0xe0, calldataload(0x00))\n      dup1\n      0x3cb2c68a\n      eq\n      tag_3\n      jumpi\n      dup1\n      0x4055837d\n      eq\n      tag_4\n      jumpi\n      dup1\n      0x9b52a763\n      eq\n      tag_5\n      jumpi\n      dup1\n      0xec0b31de\n      eq\n      tag_6\n      jumpi\n    tag_2:\n      0x00\n      dup1\n      revert\n        /* \"aquo/AquoDaoList.sol\":1439:1526  function getAllDAOs() public view returns (DAO[] memory) {... */\n    tag_3:\n      tag_7\n      tag_8\n      jump\t// in\n    tag_7:\n      mload(0x40)\n      tag_9\n      swap2\n      swap1\n      tag_10\n      jump\t// in\n    tag_9:\n      mload(0x40)\n      dup1\n      swap2\n      sub\n      swap1\n      return\n        /* \"aquo/AquoDaoList.sol\":1091:1267  function getDAOByDAOAddress(address _daoAddress) public view returns (DAO memory) {... */\n    tag_4:\n      tag_11\n      0x04\n      dup1\n      calldatasize\n      sub\n      dup2\n      add\n      swap1\n      tag_12\n      swap2\n      swap1\n      tag_13\n      jump\t// in\n    tag_12:\n      tag_14\n      jump\t// in\n    tag_11:\n      mload(0x40)\n      tag_15\n      swap2\n      swap1\n      tag_16\n      jump\t// in\n    tag_15:\n      mload(0x40)\n      dup1\n      swap2\n      sub\n      swap1\n      return\n        /* \"aquo/AquoDaoList.sol\":1275:1431  function getDAOByDAOId(uint256 _daoId) public view returns (DAO memory) {... */\n    tag_5:\n      tag_17\n      0x04\n      dup1\n      calldatasize\n      sub\n      dup2\n      add\n      swap1\n      tag_18\n      swap2\n      swap1\n      tag_19\n      jump\t// in\n    tag_18:\n      tag_20\n      jump\t// in\n    tag_17:\n      mload(0x40)\n      tag_21\n      swap2\n      swap1\n      tag_16\n      jump\t// in\n    tag_21:\n      mload(0x40)\n      dup1\n      swap2\n      sub\n      swap1\n      return\n        /* \"aquo/AquoDaoList.sol\":489:1083  function listDAO(address _daoAddress) public returns (uint256) {... */\n    tag_6:\n      tag_22\n      0x04\n      dup1\n      calldatasize\n      sub\n      dup2\n      add\n      swap1\n      tag_23\n      swap2\n      swap1\n      tag_13\n      jump\t// in\n    tag_23:\n      tag_24\n      jump\t// in\n    tag_22:\n      mload(0x40)\n      tag_25\n      swap2\n      swap1\n      tag_26\n      jump\t// in\n    tag_25:\n      mload(0x40)\n      dup1\n      swap2\n      sub\n      swap1\n      return\n        /* \"aquo/AquoDaoList.sol\":1439:1526  function getAllDAOs() public view returns (DAO[] memory) {... */\n    tag_8:\n        /* \"aquo/AquoDaoList.sol\":1482:1494  DAO[] memory */\n      0x60\n        /* \"aquo/AquoDaoList.sol\":1514:1518  daos */\n      0x00\n        /* \"aquo/AquoDaoList.sol\":1507:1518  return daos */\n      dup1\n      sload\n      dup1\n      0x20\n      mul\n      0x20\n      add\n      mload(0x40)\n      swap1\n      dup2\n      add\n      0x40\n      mstore\n      dup1\n      swap3\n      swap2\n      swap1\n      dup2\n      dup2\n      mstore\n      0x20\n      add\n      0x00\n      swap1\n    tag_28:\n      dup3\n      dup3\n      lt\n      iszero\n      tag_29\n      jumpi\n      dup4\n      dup3\n      swap1\n      0x00\n      mstore\n      keccak256(0x00, 0x20)\n      swap1\n      0x02\n      mul\n      add\n      mload(0x40)\n      dup1\n      0x40\n      add\n      0x40\n      mstore\n      swap1\n      dup2\n      0x00\n      dup3\n      add\n      sload\n      dup2\n      mstore\n      0x20\n      add\n      0x01\n      dup3\n      add\n      0x00\n      swap1\n      sload\n      swap1\n      0x0100\n      exp\n      swap1\n      div\n      0xffffffffffffffffffffffffffffffffffffffff\n      and\n      0xffffffffffffffffffffffffffffffffffffffff\n      and\n      0xffffffffffffffffffffffffffffffffffffffff\n      and\n      dup2\n      mstore\n      pop\n      pop\n      dup2\n      mstore\n      0x20\n      add\n      swap1\n      0x01\n      add\n      swap1\n      jump(tag_28)\n    tag_29:\n      pop\n      pop\n      pop\n      pop\n      swap1\n      pop\n        /* \"aquo/AquoDaoList.sol\":1439:1526  function getAllDAOs() public view returns (DAO[] memory) {... */\n      swap1\n      jump\t// out\n        /* \"aquo/AquoDaoList.sol\":1091:1267  function getDAOByDAOAddress(address _daoAddress) public view returns (DAO memory) {... */\n    tag_14:\n        /* \"aquo/AquoDaoList.sol\":1161:1171  DAO memory */\n      tag_31\n      tag_32\n      jump\t// in\n    tag_31:\n        /* \"aquo/AquoDaoList.sol\":1184:1197  uint256 index */\n      0x00\n        /* \"aquo/AquoDaoList.sol\":1200:1217  daoAddressToIndex */\n      0x03\n        /* \"aquo/AquoDaoList.sol\":1200:1230  daoAddressToIndex[_daoAddress] */\n      0x00\n        /* \"aquo/AquoDaoList.sol\":1218:1229  _daoAddress */\n      dup5\n        /* \"aquo/AquoDaoList.sol\":1200:1230  daoAddressToIndex[_daoAddress] */\n      0xffffffffffffffffffffffffffffffffffffffff\n      and\n      0xffffffffffffffffffffffffffffffffffffffff\n      and\n      dup2\n      mstore\n      0x20\n      add\n      swap1\n      dup2\n      mstore\n      0x20\n      add\n      0x00\n      keccak256\n      sload\n        /* \"aquo/AquoDaoList.sol\":1184:1230  uint256 index = daoAddressToIndex[_daoAddress] */\n      swap1\n      pop\n        /* \"aquo/AquoDaoList.sol\":1248:1252  daos */\n      0x00\n        /* \"aquo/AquoDaoList.sol\":1253:1258  index */\n      dup2\n        /* \"aquo/AquoDaoList.sol\":1248:1259  daos[index] */\n      dup2\n      sload\n      dup2\n      lt\n      tag_34\n      jumpi\n      tag_35\n      tag_36\n      jump\t// in\n    tag_35:\n    tag_34:\n      swap1\n      0x00\n      mstore\n      keccak256(0x00, 0x20)\n      swap1\n      0x02\n      mul\n      add\n        /* \"aquo/AquoDaoList.sol\":1241:1259  return daos[index] */\n      mload(0x40)\n      dup1\n      0x40\n      add\n      0x40\n      mstore\n      swap1\n      dup2\n      0x00\n      dup3\n      add\n      sload\n      dup2\n      mstore\n      0x20\n      add\n      0x01\n      dup3\n      add\n      0x00\n      swap1\n      sload\n      swap1\n      0x0100\n      exp\n      swap1\n      div\n      0xffffffffffffffffffffffffffffffffffffffff\n      and\n      0xffffffffffffffffffffffffffffffffffffffff\n      and\n      0xffffffffffffffffffffffffffffffffffffffff\n      and\n      dup2\n      mstore\n      pop\n      pop\n      swap2\n      pop\n      pop\n        /* \"aquo/AquoDaoList.sol\":1091:1267  function getDAOByDAOAddress(address _daoAddress) public view returns (DAO memory) {... */\n      swap2\n      swap1\n      pop\n      jump\t// out\n        /* \"aquo/AquoDaoList.sol\":1275:1431  function getDAOByDAOId(uint256 _daoId) public view returns (DAO memory) {... */\n    tag_20:\n        /* \"aquo/AquoDaoList.sol\":1335:1345  DAO memory */\n      tag_38\n      tag_32\n      jump\t// in\n    tag_38:\n        /* \"aquo/AquoDaoList.sol\":1358:1371  uint256 index */\n      0x00\n        /* \"aquo/AquoDaoList.sol\":1374:1386  daoIdToIndex */\n      0x02\n        /* \"aquo/AquoDaoList.sol\":1374:1394  daoIdToIndex[_daoId] */\n      0x00\n        /* \"aquo/AquoDaoList.sol\":1387:1393  _daoId */\n      dup5\n        /* \"aquo/AquoDaoList.sol\":1374:1394  daoIdToIndex[_daoId] */\n      dup2\n      mstore\n      0x20\n      add\n      swap1\n      dup2\n      mstore\n      0x20\n      add\n      0x00\n      keccak256\n      sload\n        /* \"aquo/AquoDaoList.sol\":1358:1394  uint256 index = daoIdToIndex[_daoId] */\n      swap1\n      pop\n        /* \"aquo/AquoDaoList.sol\":1412:1416  daos */\n      0x00\n        /* \"aquo/AquoDaoList.sol\":1417:1422  index */\n      dup2\n        /* \"aquo/AquoDaoList.sol\":1412:1423  daos[index] */\n      dup2\n      sload\n      dup2\n      lt\n      tag_40\n      jumpi\n      tag_41\n      tag_36\n      jump\t// in\n    tag_41:\n    tag_40:\n      swap1\n      0x00\n      mstore\n      keccak256(0x00, 0x20)\n      swap1\n      0x02\n      mul\n      add\n        /* \"aquo/AquoDaoList.sol\":1405:1423  return daos[index] */\n      mload(0x40)\n      dup1\n      0x40\n      add\n      0x40\n      mstore\n      swap1\n      dup2\n      0x00\n      dup3\n      add\n      sload\n      dup2\n      mstore\n      0x20\n      add\n      0x01\n      dup3\n      add\n      0x00\n      swap1\n      sload\n      swap1\n      0x0100\n      exp\n      swap1\n      div\n      0xffffffffffffffffffffffffffffffffffffffff\n      and\n      0xffffffffffffffffffffffffffffffffffffffff\n      and\n      0xffffffffffffffffffffffffffffffffffffffff\n      and\n      dup2\n      mstore\n      pop\n      pop\n      swap2\n      pop\n      pop\n        /* \"aquo/AquoDaoList.sol\":1275:1431  function getDAOByDAOId(uint256 _daoId) public view returns (DAO memory) {... */\n      swap2\n      swap1\n      pop\n      jump\t// out\n        /* \"aquo/AquoDaoList.sol\":489:1083  function listDAO(address _daoAddress) public returns (uint256) {... */\n    tag_24:\n        /* \"aquo/AquoDaoList.sol\":543:550  uint256 */\n      0x00\n        /* \"aquo/AquoDaoList.sol\":572:588  daoAddressExists */\n      0x04\n        /* \"aquo/AquoDaoList.sol\":572:601  daoAddressExists[_daoAddress] */\n      0x00\n        /* \"aquo/AquoDaoList.sol\":589:600  _daoAddress */\n      dup4\n        /* \"aquo/AquoDaoList.sol\":572:601  daoAddressExists[_daoAddress] */\n      0xffffffffffffffffffffffffffffffffffffffff\n      and\n      0xffffffffffffffffffffffffffffffffffffffff\n      and\n      dup2\n      mstore\n      0x20\n      add\n      swap1\n      dup2\n      mstore\n      0x20\n      add\n      0x00\n      keccak256\n      0x00\n      swap1\n      sload\n      swap1\n      0x0100\n      exp\n      swap1\n      div\n      0xff\n      and\n        /* \"aquo/AquoDaoList.sol\":571:601  !daoAddressExists[_daoAddress] */\n      iszero\n        /* \"aquo/AquoDaoList.sol\":563:637  require(!daoAddressExists[_daoAddress], \"Contract Address already exists\") */\n      tag_44\n      jumpi\n      mload(0x40)\n      0x08c379a000000000000000000000000000000000000000000000000000000000\n      dup2\n      mstore\n      0x04\n      add\n      tag_45\n      swap1\n      tag_46\n      jump\t// in\n    tag_45:\n      mload(0x40)\n      dup1\n      swap2\n      sub\n      swap1\n      revert\n    tag_44:\n        /* \"aquo/AquoDaoList.sol\":650:663  uint256 daoId */\n      0x00\n        /* \"aquo/AquoDaoList.sol\":666:675  nextDAOId */\n      0x01\n      0x00\n        /* \"aquo/AquoDaoList.sol\":666:677  nextDAOId++ */\n      dup2\n      sload\n      dup1\n      swap3\n      swap2\n      swap1\n      tag_47\n      swap1\n      tag_48\n      jump\t// in\n    tag_47:\n      swap2\n      swap1\n      pop\n      sstore\n        /* \"aquo/AquoDaoList.sol\":650:677  uint256 daoId = nextDAOId++ */\n      swap1\n      pop\n        /* \"aquo/AquoDaoList.sol\":688:705  DAO memory newDAO */\n      0x00\n        /* \"aquo/AquoDaoList.sol\":708:789  DAO({... */\n      mload(0x40)\n      dup1\n      0x40\n      add\n      0x40\n      mstore\n      dup1\n        /* \"aquo/AquoDaoList.sol\":734:739  daoId */\n      dup4\n        /* \"aquo/AquoDaoList.sol\":708:789  DAO({... */\n      dup2\n      mstore\n      0x20\n      add\n        /* \"aquo/AquoDaoList.sol\":766:777  _daoAddress */\n      dup6\n        /* \"aquo/AquoDaoList.sol\":708:789  DAO({... */\n      0xffffffffffffffffffffffffffffffffffffffff\n      and\n      dup2\n      mstore\n      pop\n        /* \"aquo/AquoDaoList.sol\":688:789  DAO memory newDAO = DAO({... */\n      swap1\n      pop\n        /* \"aquo/AquoDaoList.sol\":800:804  daos */\n      0x00\n        /* \"aquo/AquoDaoList.sol\":810:816  newDAO */\n      dup2\n        /* \"aquo/AquoDaoList.sol\":800:817  daos.push(newDAO) */\n      swap1\n      dup1\n      0x01\n      dup2\n      sload\n      add\n      dup1\n      dup3\n      sstore\n      dup1\n      swap2\n      pop\n      pop\n      0x01\n      swap1\n      sub\n      swap1\n      0x00\n      mstore\n      keccak256(0x00, 0x20)\n      swap1\n      0x02\n      mul\n      add\n      0x00\n      swap1\n      swap2\n      swap1\n      swap2\n      swap1\n      swap2\n      pop\n      0x00\n      dup3\n      add\n      mload\n      dup2\n      0x00\n      add\n      sstore\n      0x20\n      dup3\n      add\n      mload\n      dup2\n      0x01\n      add\n      exp(0x0100, 0x00)\n      dup2\n      sload\n      dup2\n      0xffffffffffffffffffffffffffffffffffffffff\n      mul\n      not\n      and\n      swap1\n      dup4\n      0xffffffffffffffffffffffffffffffffffffffff\n      and\n      mul\n      or\n      swap1\n      sstore\n      pop\n      pop\n      pop\n        /* \"aquo/AquoDaoList.sol\":828:841  uint256 index */\n      0x00\n        /* \"aquo/AquoDaoList.sol\":858:859  1 */\n      0x01\n        /* \"aquo/AquoDaoList.sol\":844:848  daos */\n      0x00\n        /* \"aquo/AquoDaoList.sol\":844:855  daos.length */\n      dup1\n      sload\n      swap1\n      pop\n        /* \"aquo/AquoDaoList.sol\":844:859  daos.length - 1 */\n      tag_50\n      swap2\n      swap1\n      tag_51\n      jump\t// in\n    tag_50:\n        /* \"aquo/AquoDaoList.sol\":828:859  uint256 index = daos.length - 1 */\n      swap1\n      pop\n        /* \"aquo/AquoDaoList.sol\":892:897  index */\n      dup1\n        /* \"aquo/AquoDaoList.sol\":870:882  daoIdToIndex */\n      0x02\n        /* \"aquo/AquoDaoList.sol\":870:889  daoIdToIndex[daoId] */\n      0x00\n        /* \"aquo/AquoDaoList.sol\":883:888  daoId */\n      dup6\n        /* \"aquo/AquoDaoList.sol\":870:889  daoIdToIndex[daoId] */\n      dup2\n      mstore\n      0x20\n      add\n      swap1\n      dup2\n      mstore\n      0x20\n      add\n      0x00\n      keccak256\n        /* \"aquo/AquoDaoList.sol\":870:897  daoIdToIndex[daoId] = index */\n      dup2\n      swap1\n      sstore\n      pop\n        /* \"aquo/AquoDaoList.sol\":941:946  index */\n      dup1\n        /* \"aquo/AquoDaoList.sol\":908:925  daoAddressToIndex */\n      0x03\n        /* \"aquo/AquoDaoList.sol\":908:938  daoAddressToIndex[_daoAddress] */\n      0x00\n        /* \"aquo/AquoDaoList.sol\":926:937  _daoAddress */\n      dup8\n        /* \"aquo/AquoDaoList.sol\":908:938  daoAddressToIndex[_daoAddress] */\n      0xffffffffffffffffffffffffffffffffffffffff\n      and\n      0xffffffffffffffffffffffffffffffffffffffff\n      and\n      dup2\n      mstore\n      0x20\n      add\n      swap1\n      dup2\n      mstore\n      0x20\n      add\n      0x00\n      keccak256\n        /* \"aquo/AquoDaoList.sol\":908:946  daoAddressToIndex[_daoAddress] = index */\n      dup2\n      swap1\n      sstore\n      pop\n        /* \"aquo/AquoDaoList.sol\":989:993  true */\n      0x01\n        /* \"aquo/AquoDaoList.sol\":957:973  daoAddressExists */\n      0x04\n        /* \"aquo/AquoDaoList.sol\":957:986  daoAddressExists[_daoAddress] */\n      0x00\n        /* \"aquo/AquoDaoList.sol\":974:985  _daoAddress */\n      dup8\n        /* \"aquo/AquoDaoList.sol\":957:986  daoAddressExists[_daoAddress] */\n      0xffffffffffffffffffffffffffffffffffffffff\n      and\n      0xffffffffffffffffffffffffffffffffffffffff\n      and\n      dup2\n      mstore\n      0x20\n      add\n      swap1\n      dup2\n      mstore\n      0x20\n      add\n      0x00\n      keccak256\n      0x00\n        /* \"aquo/AquoDaoList.sol\":957:993  daoAddressExists[_daoAddress] = true */\n      0x0100\n      exp\n      dup2\n      sload\n      dup2\n      0xff\n      mul\n      not\n      and\n      swap1\n      dup4\n      iszero\n      iszero\n      mul\n      or\n      swap1\n      sstore\n      pop\n        /* \"aquo/AquoDaoList.sol\":1034:1039  false */\n      0x00\n        /* \"aquo/AquoDaoList.sol\":1004:1018  unallocatedDAO */\n      0x05\n        /* \"aquo/AquoDaoList.sol\":1004:1031  unallocatedDAO[_daoAddress] */\n      0x00\n        /* \"aquo/AquoDaoList.sol\":1019:1030  _daoAddress */\n      dup8\n        /* \"aquo/AquoDaoList.sol\":1004:1031  unallocatedDAO[_daoAddress] */\n      0xffffffffffffffffffffffffffffffffffffffff\n      and\n      0xffffffffffffffffffffffffffffffffffffffff\n      and\n      dup2\n      mstore\n      0x20\n      add\n      swap1\n      dup2\n      mstore\n      0x20\n      add\n      0x00\n      keccak256\n      0x00\n        /* \"aquo/AquoDaoList.sol\":1004:1039  unallocatedDAO[_daoAddress] = false */\n      0x0100\n      exp\n      dup2\n      sload\n      dup2\n      0xff\n      mul\n      not\n      and\n      swap1\n      dup4\n      iszero\n      iszero\n      mul\n      or\n      swap1\n      sstore\n      pop\n        /* \"aquo/AquoDaoList.sol\":1070:1075  daoId */\n      dup3\n        /* \"aquo/AquoDaoList.sol\":1063:1075  return daoId */\n      swap4\n      pop\n      pop\n      pop\n      pop\n        /* \"aquo/AquoDaoList.sol\":489:1083  function listDAO(address _daoAddress) public returns (uint256) {... */\n      swap2\n      swap1\n      pop\n      jump\t// out\n    tag_32:\n      mload(0x40)\n      dup1\n      0x40\n      add\n      0x40\n      mstore\n      dup1\n      0x00\n      dup2\n      mstore\n      0x20\n      add\n      and(0xffffffffffffffffffffffffffffffffffffffff, 0x00)\n      dup2\n      mstore\n      pop\n      swap1\n      jump\t// out\n        /* \"#utility.yul\":7:139   */\n    tag_52:\n        /* \"#utility.yul\":92:98   */\n      0x00\n        /* \"#utility.yul\":126:131   */\n      dup2\n        /* \"#utility.yul\":120:132   */\n      mload\n        /* \"#utility.yul\":110:132   */\n      swap1\n      pop\n        /* \"#utility.yul\":7:139   */\n      swap2\n      swap1\n      pop\n      jump\t// out\n        /* \"#utility.yul\":145:347   */\n    tag_53:\n        /* \"#utility.yul\":262:273   */\n      0x00\n        /* \"#utility.yul\":296:302   */\n      dup3\n        /* \"#utility.yul\":291:294   */\n      dup3\n        /* \"#utility.yul\":284:303   */\n      mstore\n        /* \"#utility.yul\":336:340   */\n      0x20\n        /* \"#utility.yul\":331:334   */\n      dup3\n        /* \"#utility.yul\":327:341   */\n      add\n        /* \"#utility.yul\":312:341   */\n      swap1\n      pop\n        /* \"#utility.yul\":145:347   */\n      swap3\n      swap2\n      pop\n      pop\n      jump\t// out\n        /* \"#utility.yul\":353:503   */\n    tag_54:\n        /* \"#utility.yul\":438:442   */\n      0x00\n        /* \"#utility.yul\":461:464   */\n      dup2\n        /* \"#utility.yul\":453:464   */\n      swap1\n      pop\n        /* \"#utility.yul\":491:495   */\n      0x20\n        /* \"#utility.yul\":486:489   */\n      dup3\n        /* \"#utility.yul\":482:496   */\n      add\n        /* \"#utility.yul\":474:496   */\n      swap1\n      pop\n        /* \"#utility.yul\":353:503   */\n      swap2\n      swap1\n      pop\n      jump\t// out\n        /* \"#utility.yul\":509:586   */\n    tag_55:\n        /* \"#utility.yul\":546:553   */\n      0x00\n        /* \"#utility.yul\":575:580   */\n      dup2\n        /* \"#utility.yul\":564:580   */\n      swap1\n      pop\n        /* \"#utility.yul\":509:586   */\n      swap2\n      swap1\n      pop\n      jump\t// out\n        /* \"#utility.yul\":592:700   */\n    tag_56:\n        /* \"#utility.yul\":669:693   */\n      tag_83\n        /* \"#utility.yul\":687:692   */\n      dup2\n        /* \"#utility.yul\":669:693   */\n      tag_55\n      jump\t// in\n    tag_83:\n        /* \"#utility.yul\":664:667   */\n      dup3\n        /* \"#utility.yul\":657:694   */\n      mstore\n        /* \"#utility.yul\":592:700   */\n      pop\n      pop\n      jump\t// out\n        /* \"#utility.yul\":706:832   */\n    tag_57:\n        /* \"#utility.yul\":743:750   */\n      0x00\n        /* \"#utility.yul\":783:825   */\n      0xffffffffffffffffffffffffffffffffffffffff\n        /* \"#utility.yul\":776:781   */\n      dup3\n        /* \"#utility.yul\":772:826   */\n      and\n        /* \"#utility.yul\":761:826   */\n      swap1\n      pop\n        /* \"#utility.yul\":706:832   */\n      swap2\n      swap1\n      pop\n      jump\t// out\n        /* \"#utility.yul\":838:934   */\n    tag_58:\n        /* \"#utility.yul\":875:882   */\n      0x00\n        /* \"#utility.yul\":904:928   */\n      tag_86\n        /* \"#utility.yul\":922:927   */\n      dup3\n        /* \"#utility.yul\":904:928   */\n      tag_57\n      jump\t// in\n    tag_86:\n        /* \"#utility.yul\":893:928   */\n      swap1\n      pop\n        /* \"#utility.yul\":838:934   */\n      swap2\n      swap1\n      pop\n      jump\t// out\n        /* \"#utility.yul\":940:1048   */\n    tag_59:\n        /* \"#utility.yul\":1017:1041   */\n      tag_88\n        /* \"#utility.yul\":1035:1040   */\n      dup2\n        /* \"#utility.yul\":1017:1041   */\n      tag_58\n      jump\t// in\n    tag_88:\n        /* \"#utility.yul\":1012:1015   */\n      dup3\n        /* \"#utility.yul\":1005:1042   */\n      mstore\n        /* \"#utility.yul\":940:1048   */\n      pop\n      pop\n      jump\t// out\n        /* \"#utility.yul\":1102:1592   */\n    tag_60:\n        /* \"#utility.yul\":1225:1229   */\n      0x40\n        /* \"#utility.yul\":1220:1223   */\n      dup3\n        /* \"#utility.yul\":1216:1230   */\n      add\n        /* \"#utility.yul\":1313:1317   */\n      0x00\n        /* \"#utility.yul\":1306:1311   */\n      dup3\n        /* \"#utility.yul\":1302:1318   */\n      add\n        /* \"#utility.yul\":1296:1319   */\n      mload\n        /* \"#utility.yul\":1332:1395   */\n      tag_90\n        /* \"#utility.yul\":1389:1393   */\n      0x00\n        /* \"#utility.yul\":1384:1387   */\n      dup6\n        /* \"#utility.yul\":1380:1394   */\n      add\n        /* \"#utility.yul\":1366:1378   */\n      dup3\n        /* \"#utility.yul\":1332:1395   */\n      tag_56\n      jump\t// in\n    tag_90:\n        /* \"#utility.yul\":1240:1405   */\n      pop\n        /* \"#utility.yul\":1493:1497   */\n      0x20\n        /* \"#utility.yul\":1486:1491   */\n      dup3\n        /* \"#utility.yul\":1482:1498   */\n      add\n        /* \"#utility.yul\":1476:1499   */\n      mload\n        /* \"#utility.yul\":1512:1575   */\n      tag_91\n        /* \"#utility.yul\":1569:1573   */\n      0x20\n        /* \"#utility.yul\":1564:1567   */\n      dup6\n        /* \"#utility.yul\":1560:1574   */\n      add\n        /* \"#utility.yul\":1546:1558   */\n      dup3\n        /* \"#utility.yul\":1512:1575   */\n      tag_59\n      jump\t// in\n    tag_91:\n        /* \"#utility.yul\":1415:1585   */\n      pop\n        /* \"#utility.yul\":1194:1592   */\n      pop\n        /* \"#utility.yul\":1102:1592   */\n      pop\n      pop\n      jump\t// out\n        /* \"#utility.yul\":1598:1849   */\n    tag_61:\n        /* \"#utility.yul\":1703:1713   */\n      0x00\n        /* \"#utility.yul\":1724:1806   */\n      tag_93\n        /* \"#utility.yul\":1802:1805   */\n      dup4\n        /* \"#utility.yul\":1794:1800   */\n      dup4\n        /* \"#utility.yul\":1724:1806   */\n      tag_60\n      jump\t// in\n    tag_93:\n        /* \"#utility.yul\":1838:1842   */\n      0x40\n        /* \"#utility.yul\":1833:1836   */\n      dup4\n        /* \"#utility.yul\":1829:1843   */\n      add\n        /* \"#utility.yul\":1815:1843   */\n      swap1\n      pop\n        /* \"#utility.yul\":1598:1849   */\n      swap3\n      swap2\n      pop\n      pop\n      jump\t// out\n        /* \"#utility.yul\":1855:1986   */\n    tag_62:\n        /* \"#utility.yul\":1943:1947   */\n      0x00\n        /* \"#utility.yul\":1975:1979   */\n      0x20\n        /* \"#utility.yul\":1970:1973   */\n      dup3\n        /* \"#utility.yul\":1966:1980   */\n      add\n        /* \"#utility.yul\":1958:1980   */\n      swap1\n      pop\n        /* \"#utility.yul\":1855:1986   */\n      swap2\n      swap1\n      pop\n      jump\t// out\n        /* \"#utility.yul\":2044:2920   */\n    tag_63:\n        /* \"#utility.yul\":2199:2202   */\n      0x00\n        /* \"#utility.yul\":2228:2300   */\n      tag_96\n        /* \"#utility.yul\":2294:2299   */\n      dup3\n        /* \"#utility.yul\":2228:2300   */\n      tag_52\n      jump\t// in\n    tag_96:\n        /* \"#utility.yul\":2316:2420   */\n      tag_97\n        /* \"#utility.yul\":2413:2419   */\n      dup2\n        /* \"#utility.yul\":2408:2411   */\n      dup6\n        /* \"#utility.yul\":2316:2420   */\n      tag_53\n      jump\t// in\n    tag_97:\n        /* \"#utility.yul\":2309:2420   */\n      swap4\n      pop\n        /* \"#utility.yul\":2444:2518   */\n      tag_98\n        /* \"#utility.yul\":2512:2517   */\n      dup4\n        /* \"#utility.yul\":2444:2518   */\n      tag_54\n      jump\t// in\n    tag_98:\n        /* \"#utility.yul\":2541:2548   */\n      dup1\n        /* \"#utility.yul\":2572:2573   */\n      0x00\n        /* \"#utility.yul\":2557:2895   */\n    tag_99:\n        /* \"#utility.yul\":2582:2588   */\n      dup4\n        /* \"#utility.yul\":2579:2580   */\n      dup2\n        /* \"#utility.yul\":2576:2589   */\n      lt\n        /* \"#utility.yul\":2557:2895   */\n      iszero\n      tag_101\n      jumpi\n        /* \"#utility.yul\":2658:2664   */\n      dup2\n        /* \"#utility.yul\":2652:2665   */\n      mload\n        /* \"#utility.yul\":2685:2784   */\n      tag_102\n        /* \"#utility.yul\":2780:2783   */\n      dup9\n        /* \"#utility.yul\":2765:2778   */\n      dup3\n        /* \"#utility.yul\":2685:2784   */\n      tag_61\n      jump\t// in\n    tag_102:\n        /* \"#utility.yul\":2678:2784   */\n      swap8\n      pop\n        /* \"#utility.yul\":2807:2885   */\n      tag_103\n        /* \"#utility.yul\":2878:2884   */\n      dup4\n        /* \"#utility.yul\":2807:2885   */\n      tag_62\n      jump\t// in\n    tag_103:\n        /* \"#utility.yul\":2797:2885   */\n      swap3\n      pop\n        /* \"#utility.yul\":2617:2895   */\n      pop\n        /* \"#utility.yul\":2604:2605   */\n      0x01\n        /* \"#utility.yul\":2601:2602   */\n      dup2\n        /* \"#utility.yul\":2597:2606   */\n      add\n        /* \"#utility.yul\":2592:2606   */\n      swap1\n      pop\n        /* \"#utility.yul\":2557:2895   */\n      jump(tag_99)\n    tag_101:\n        /* \"#utility.yul\":2561:2575   */\n      pop\n        /* \"#utility.yul\":2911:2914   */\n      dup6\n        /* \"#utility.yul\":2904:2914   */\n      swap4\n      pop\n        /* \"#utility.yul\":2204:2920   */\n      pop\n      pop\n      pop\n        /* \"#utility.yul\":2044:2920   */\n      swap3\n      swap2\n      pop\n      pop\n      jump\t// out\n        /* \"#utility.yul\":2926:3371   */\n    tag_10:\n        /* \"#utility.yul\":3105:3109   */\n      0x00\n        /* \"#utility.yul\":3143:3145   */\n      0x20\n        /* \"#utility.yul\":3132:3141   */\n      dup3\n        /* \"#utility.yul\":3128:3146   */\n      add\n        /* \"#utility.yul\":3120:3146   */\n      swap1\n      pop\n        /* \"#utility.yul\":3192:3201   */\n      dup2\n        /* \"#utility.yul\":3186:3190   */\n      dup2\n        /* \"#utility.yul\":3182:3202   */\n      sub\n        /* \"#utility.yul\":3178:3179   */\n      0x00\n        /* \"#utility.yul\":3167:3176   */\n      dup4\n        /* \"#utility.yul\":3163:3180   */\n      add\n        /* \"#utility.yul\":3156:3203   */\n      mstore\n        /* \"#utility.yul\":3220:3364   */\n      tag_105\n        /* \"#utility.yul\":3359:3363   */\n      dup2\n        /* \"#utility.yul\":3350:3356   */\n      dup5\n        /* \"#utility.yul\":3220:3364   */\n      tag_63\n      jump\t// in\n    tag_105:\n        /* \"#utility.yul\":3212:3364   */\n      swap1\n      pop\n        /* \"#utility.yul\":2926:3371   */\n      swap3\n      swap2\n      pop\n      pop\n      jump\t// out\n        /* \"#utility.yul\":3458:3575   */\n    tag_65:\n        /* \"#utility.yul\":3567:3568   */\n      0x00\n        /* \"#utility.yul\":3564:3565   */\n      dup1\n        /* \"#utility.yul\":3557:3569   */\n      revert\n        /* \"#utility.yul\":3704:3826   */\n    tag_67:\n        /* \"#utility.yul\":3777:3801   */\n      tag_110\n        /* \"#utility.yul\":3795:3800   */\n      dup2\n        /* \"#utility.yul\":3777:3801   */\n      tag_58\n      jump\t// in\n    tag_110:\n        /* \"#utility.yul\":3770:3775   */\n      dup2\n        /* \"#utility.yul\":3767:3802   */\n      eq\n        /* \"#utility.yul\":3757:3820   */\n      tag_111\n      jumpi\n        /* \"#utility.yul\":3816:3817   */\n      0x00\n        /* \"#utility.yul\":3813:3814   */\n      dup1\n        /* \"#utility.yul\":3806:3818   */\n      revert\n        /* \"#utility.yul\":3757:3820   */\n    tag_111:\n        /* \"#utility.yul\":3704:3826   */\n      pop\n      jump\t// out\n        /* \"#utility.yul\":3832:3971   */\n    tag_68:\n        /* \"#utility.yul\":3878:3883   */\n      0x00\n        /* \"#utility.yul\":3916:3922   */\n      dup2\n        /* \"#utility.yul\":3903:3923   */\n      calldataload\n        /* \"#utility.yul\":3894:3923   */\n      swap1\n      pop\n        /* \"#utility.yul\":3932:3965   */\n      tag_113\n        /* \"#utility.yul\":3959:3964   */\n      dup2\n        /* \"#utility.yul\":3932:3965   */\n      tag_67\n      jump\t// in\n    tag_113:\n        /* \"#utility.yul\":3832:3971   */\n      swap3\n      swap2\n      pop\n      pop\n      jump\t// out\n        /* \"#utility.yul\":3977:4306   */\n    tag_13:\n        /* \"#utility.yul\":4036:4042   */\n      0x00\n        /* \"#utility.yul\":4085:4087   */\n      0x20\n        /* \"#utility.yul\":4073:4082   */\n      dup3\n        /* \"#utility.yul\":4064:4071   */\n      dup5\n        /* \"#utility.yul\":4060:4083   */\n      sub\n        /* \"#utility.yul\":4056:4088   */\n      slt\n        /* \"#utility.yul\":4053:4172   */\n      iszero\n      tag_115\n      jumpi\n        /* \"#utility.yul\":4091:4170   */\n      tag_116\n      tag_65\n      jump\t// in\n    tag_116:\n        /* \"#utility.yul\":4053:4172   */\n    tag_115:\n        /* \"#utility.yul\":4211:4212   */\n      0x00\n        /* \"#utility.yul\":4236:4289   */\n      tag_117\n        /* \"#utility.yul\":4281:4288   */\n      dup5\n        /* \"#utility.yul\":4272:4278   */\n      dup3\n        /* \"#utility.yul\":4261:4270   */\n      dup6\n        /* \"#utility.yul\":4257:4279   */\n      add\n        /* \"#utility.yul\":4236:4289   */\n      tag_68\n      jump\t// in\n    tag_117:\n        /* \"#utility.yul\":4226:4289   */\n      swap2\n      pop\n        /* \"#utility.yul\":4182:4299   */\n      pop\n        /* \"#utility.yul\":3977:4306   */\n      swap3\n      swap2\n      pop\n      pop\n      jump\t// out\n        /* \"#utility.yul\":4360:4860   */\n    tag_69:\n        /* \"#utility.yul\":4493:4497   */\n      0x40\n        /* \"#utility.yul\":4488:4491   */\n      dup3\n        /* \"#utility.yul\":4484:4498   */\n      add\n        /* \"#utility.yul\":4581:4585   */\n      0x00\n        /* \"#utility.yul\":4574:4579   */\n      dup3\n        /* \"#utility.yul\":4570:4586   */\n      add\n        /* \"#utility.yul\":4564:4587   */\n      mload\n        /* \"#utility.yul\":4600:4663   */\n      tag_119\n        /* \"#utility.yul\":4657:4661   */\n      0x00\n        /* \"#utility.yul\":4652:4655   */\n      dup6\n        /* \"#utility.yul\":4648:4662   */\n      add\n        /* \"#utility.yul\":4634:4646   */\n      dup3\n        /* \"#utility.yul\":4600:4663   */\n      tag_56\n      jump\t// in\n    tag_119:\n        /* \"#utility.yul\":4508:4673   */\n      pop\n        /* \"#utility.yul\":4761:4765   */\n      0x20\n        /* \"#utility.yul\":4754:4759   */\n      dup3\n        /* \"#utility.yul\":4750:4766   */\n      add\n        /* \"#utility.yul\":4744:4767   */\n      mload\n        /* \"#utility.yul\":4780:4843   */\n      tag_120\n        /* \"#utility.yul\":4837:4841   */\n      0x20\n        /* \"#utility.yul\":4832:4835   */\n      dup6\n        /* \"#utility.yul\":4828:4842   */\n      add\n        /* \"#utility.yul\":4814:4826   */\n      dup3\n        /* \"#utility.yul\":4780:4843   */\n      tag_59\n      jump\t// in\n    tag_120:\n        /* \"#utility.yul\":4683:4853   */\n      pop\n        /* \"#utility.yul\":4462:4860   */\n      pop\n        /* \"#utility.yul\":4360:4860   */\n      pop\n      pop\n      jump\t// out\n        /* \"#utility.yul\":4866:5160   */\n    tag_16:\n        /* \"#utility.yul\":4995:4999   */\n      0x00\n        /* \"#utility.yul\":5033:5035   */\n      0x40\n        /* \"#utility.yul\":5022:5031   */\n      dup3\n        /* \"#utility.yul\":5018:5036   */\n      add\n        /* \"#utility.yul\":5010:5036   */\n      swap1\n      pop\n        /* \"#utility.yul\":5046:5153   */\n      tag_122\n        /* \"#utility.yul\":5150:5151   */\n      0x00\n        /* \"#utility.yul\":5139:5148   */\n      dup4\n        /* \"#utility.yul\":5135:5152   */\n      add\n        /* \"#utility.yul\":5126:5132   */\n      dup5\n        /* \"#utility.yul\":5046:5153   */\n      tag_69\n      jump\t// in\n    tag_122:\n        /* \"#utility.yul\":4866:5160   */\n      swap3\n      swap2\n      pop\n      pop\n      jump\t// out\n        /* \"#utility.yul\":5166:5288   */\n    tag_70:\n        /* \"#utility.yul\":5239:5263   */\n      tag_124\n        /* \"#utility.yul\":5257:5262   */\n      dup2\n        /* \"#utility.yul\":5239:5263   */\n      tag_55\n      jump\t// in\n    tag_124:\n        /* \"#utility.yul\":5232:5237   */\n      dup2\n        /* \"#utility.yul\":5229:5264   */\n      eq\n        /* \"#utility.yul\":5219:5282   */\n      tag_125\n      jumpi\n        /* \"#utility.yul\":5278:5279   */\n      0x00\n        /* \"#utility.yul\":5275:5276   */\n      dup1\n        /* \"#utility.yul\":5268:5280   */\n      revert\n        /* \"#utility.yul\":5219:5282   */\n    tag_125:\n        /* \"#utility.yul\":5166:5288   */\n      pop\n      jump\t// out\n        /* \"#utility.yul\":5294:5433   */\n    tag_71:\n        /* \"#utility.yul\":5340:5345   */\n      0x00\n        /* \"#utility.yul\":5378:5384   */\n      dup2\n        /* \"#utility.yul\":5365:5385   */\n      calldataload\n        /* \"#utility.yul\":5356:5385   */\n      swap1\n      pop\n        /* \"#utility.yul\":5394:5427   */\n      tag_127\n        /* \"#utility.yul\":5421:5426   */\n      dup2\n        /* \"#utility.yul\":5394:5427   */\n      tag_70\n      jump\t// in\n    tag_127:\n        /* \"#utility.yul\":5294:5433   */\n      swap3\n      swap2\n      pop\n      pop\n      jump\t// out\n        /* \"#utility.yul\":5439:5768   */\n    tag_19:\n        /* \"#utility.yul\":5498:5504   */\n      0x00\n        /* \"#utility.yul\":5547:5549   */\n      0x20\n        /* \"#utility.yul\":5535:5544   */\n      dup3\n        /* \"#utility.yul\":5526:5533   */\n      dup5\n        /* \"#utility.yul\":5522:5545   */\n      sub\n        /* \"#utility.yul\":5518:5550   */\n      slt\n        /* \"#utility.yul\":5515:5634   */\n      iszero\n      tag_129\n      jumpi\n        /* \"#utility.yul\":5553:5632   */\n      tag_130\n      tag_65\n      jump\t// in\n    tag_130:\n        /* \"#utility.yul\":5515:5634   */\n    tag_129:\n        /* \"#utility.yul\":5673:5674   */\n      0x00\n        /* \"#utility.yul\":5698:5751   */\n      tag_131\n        /* \"#utility.yul\":5743:5750   */\n      dup5\n        /* \"#utility.yul\":5734:5740   */\n      dup3\n        /* \"#utility.yul\":5723:5732   */\n      dup6\n        /* \"#utility.yul\":5719:5741   */\n      add\n        /* \"#utility.yul\":5698:5751   */\n      tag_71\n      jump\t// in\n    tag_131:\n        /* \"#utility.yul\":5688:5751   */\n      swap2\n      pop\n        /* \"#utility.yul\":5644:5761   */\n      pop\n        /* \"#utility.yul\":5439:5768   */\n      swap3\n      swap2\n      pop\n      pop\n      jump\t// out\n        /* \"#utility.yul\":5774:5892   */\n    tag_72:\n        /* \"#utility.yul\":5861:5885   */\n      tag_133\n        /* \"#utility.yul\":5879:5884   */\n      dup2\n        /* \"#utility.yul\":5861:5885   */\n      tag_55\n      jump\t// in\n    tag_133:\n        /* \"#utility.yul\":5856:5859   */\n      dup3\n        /* \"#utility.yul\":5849:5886   */\n      mstore\n        /* \"#utility.yul\":5774:5892   */\n      pop\n      pop\n      jump\t// out\n        /* \"#utility.yul\":5898:6120   */\n    tag_26:\n        /* \"#utility.yul\":5991:5995   */\n      0x00\n        /* \"#utility.yul\":6029:6031   */\n      0x20\n        /* \"#utility.yul\":6018:6027   */\n      dup3\n        /* \"#utility.yul\":6014:6032   */\n      add\n        /* \"#utility.yul\":6006:6032   */\n      swap1\n      pop\n        /* \"#utility.yul\":6042:6113   */\n      tag_135\n        /* \"#utility.yul\":6110:6111   */\n      0x00\n        /* \"#utility.yul\":6099:6108   */\n      dup4\n        /* \"#utility.yul\":6095:6112   */\n      add\n        /* \"#utility.yul\":6086:6092   */\n      dup5\n        /* \"#utility.yul\":6042:6113   */\n      tag_72\n      jump\t// in\n    tag_135:\n        /* \"#utility.yul\":5898:6120   */\n      swap3\n      swap2\n      pop\n      pop\n      jump\t// out\n        /* \"#utility.yul\":6126:6306   */\n    tag_36:\n        /* \"#utility.yul\":6174:6251   */\n      0x4e487b7100000000000000000000000000000000000000000000000000000000\n        /* \"#utility.yul\":6171:6172   */\n      0x00\n        /* \"#utility.yul\":6164:6252   */\n      mstore\n        /* \"#utility.yul\":6271:6275   */\n      0x32\n        /* \"#utility.yul\":6268:6269   */\n      0x04\n        /* \"#utility.yul\":6261:6276   */\n      mstore\n        /* \"#utility.yul\":6295:6299   */\n      0x24\n        /* \"#utility.yul\":6292:6293   */\n      0x00\n        /* \"#utility.yul\":6285:6300   */\n      revert\n        /* \"#utility.yul\":6312:6481   */\n    tag_73:\n        /* \"#utility.yul\":6396:6407   */\n      0x00\n        /* \"#utility.yul\":6430:6436   */\n      dup3\n        /* \"#utility.yul\":6425:6428   */\n      dup3\n        /* \"#utility.yul\":6418:6437   */\n      mstore\n        /* \"#utility.yul\":6470:6474   */\n      0x20\n        /* \"#utility.yul\":6465:6468   */\n      dup3\n        /* \"#utility.yul\":6461:6475   */\n      add\n        /* \"#utility.yul\":6446:6475   */\n      swap1\n      pop\n        /* \"#utility.yul\":6312:6481   */\n      swap3\n      swap2\n      pop\n      pop\n      jump\t// out\n        /* \"#utility.yul\":6487:6668   */\n    tag_74:\n        /* \"#utility.yul\":6627:6660   */\n      0x436f6e7472616374204164647265737320616c72656164792065786973747300\n        /* \"#utility.yul\":6623:6624   */\n      0x00\n        /* \"#utility.yul\":6615:6621   */\n      dup3\n        /* \"#utility.yul\":6611:6625   */\n      add\n        /* \"#utility.yul\":6604:6661   */\n      mstore\n        /* \"#utility.yul\":6487:6668   */\n      pop\n      jump\t// out\n        /* \"#utility.yul\":6674:7040   */\n    tag_75:\n        /* \"#utility.yul\":6816:6819   */\n      0x00\n        /* \"#utility.yul\":6837:6904   */\n      tag_140\n        /* \"#utility.yul\":6901:6903   */\n      0x1f\n        /* \"#utility.yul\":6896:6899   */\n      dup4\n        /* \"#utility.yul\":6837:6904   */\n      tag_73\n      jump\t// in\n    tag_140:\n        /* \"#utility.yul\":6830:6904   */\n      swap2\n      pop\n        /* \"#utility.yul\":6913:7006   */\n      tag_141\n        /* \"#utility.yul\":7002:7005   */\n      dup3\n        /* \"#utility.yul\":6913:7006   */\n      tag_74\n      jump\t// in\n    tag_141:\n        /* \"#utility.yul\":7031:7033   */\n      0x20\n        /* \"#utility.yul\":7026:7029   */\n      dup3\n        /* \"#utility.yul\":7022:7034   */\n      add\n        /* \"#utility.yul\":7015:7034   */\n      swap1\n      pop\n        /* \"#utility.yul\":6674:7040   */\n      swap2\n      swap1\n      pop\n      jump\t// out\n        /* \"#utility.yul\":7046:7465   */\n    tag_46:\n        /* \"#utility.yul\":7212:7216   */\n      0x00\n        /* \"#utility.yul\":7250:7252   */\n      0x20\n        /* \"#utility.yul\":7239:7248   */\n      dup3\n        /* \"#utility.yul\":7235:7253   */\n      add\n        /* \"#utility.yul\":7227:7253   */\n      swap1\n      pop\n        /* \"#utility.yul\":7299:7308   */\n      dup2\n        /* \"#utility.yul\":7293:7297   */\n      dup2\n        /* \"#utility.yul\":7289:7309   */\n      sub\n        /* \"#utility.yul\":7285:7286   */\n      0x00\n        /* \"#utility.yul\":7274:7283   */\n      dup4\n        /* \"#utility.yul\":7270:7287   */\n      add\n        /* \"#utility.yul\":7263:7310   */\n      mstore\n        /* \"#utility.yul\":7327:7458   */\n      tag_143\n        /* \"#utility.yul\":7453:7457   */\n      dup2\n        /* \"#utility.yul\":7327:7458   */\n      tag_75\n      jump\t// in\n    tag_143:\n        /* \"#utility.yul\":7319:7458   */\n      swap1\n      pop\n        /* \"#utility.yul\":7046:7465   */\n      swap2\n      swap1\n      pop\n      jump\t// out\n        /* \"#utility.yul\":7471:7651   */\n    tag_76:\n        /* \"#utility.yul\":7519:7596   */\n      0x4e487b7100000000000000000000000000000000000000000000000000000000\n        /* \"#utility.yul\":7516:7517   */\n      0x00\n        /* \"#utility.yul\":7509:7597   */\n      mstore\n        /* \"#utility.yul\":7616:7620   */\n      0x11\n        /* \"#utility.yul\":7613:7614   */\n      0x04\n        /* \"#utility.yul\":7606:7621   */\n      mstore\n        /* \"#utility.yul\":7640:7644   */\n      0x24\n        /* \"#utility.yul\":7637:7638   */\n      0x00\n        /* \"#utility.yul\":7630:7645   */\n      revert\n        /* \"#utility.yul\":7657:7890   */\n    tag_48:\n        /* \"#utility.yul\":7696:7699   */\n      0x00\n        /* \"#utility.yul\":7719:7743   */\n      tag_146\n        /* \"#utility.yul\":7737:7742   */\n      dup3\n        /* \"#utility.yul\":7719:7743   */\n      tag_55\n      jump\t// in\n    tag_146:\n        /* \"#utility.yul\":7710:7743   */\n      swap2\n      pop\n        /* \"#utility.yul\":7765:7831   */\n      0xffffffffffffffffffffffffffffffffffffffffffffffffffffffffffffffff\n        /* \"#utility.yul\":7758:7763   */\n      dup3\n        /* \"#utility.yul\":7755:7832   */\n      sub\n        /* \"#utility.yul\":7752:7855   */\n      tag_147\n      jumpi\n        /* \"#utility.yul\":7835:7853   */\n      tag_148\n      tag_76\n      jump\t// in\n    tag_148:\n        /* \"#utility.yul\":7752:7855   */\n    tag_147:\n        /* \"#utility.yul\":7882:7883   */\n      0x01\n        /* \"#utility.yul\":7875:7880   */\n      dup3\n        /* \"#utility.yul\":7871:7884   */\n      add\n        /* \"#utility.yul\":7864:7884   */\n      swap1\n      pop\n        /* \"#utility.yul\":7657:7890   */\n      swap2\n      swap1\n      pop\n      jump\t// out\n        /* \"#utility.yul\":7896:8090   */\n    tag_51:\n        /* \"#utility.yul\":7936:7940   */\n      0x00\n        /* \"#utility.yul\":7956:7976   */\n      tag_150\n        /* \"#utility.yul\":7974:7975   */\n      dup3\n        /* \"#utility.yul\":7956:7976   */\n      tag_55\n      jump\t// in\n    tag_150:\n        /* \"#utility.yul\":7951:7976   */\n      swap2\n      pop\n        /* \"#utility.yul\":7990:8010   */\n      tag_151\n        /* \"#utility.yul\":8008:8009   */\n      dup4\n        /* \"#utility.yul\":7990:8010   */\n      tag_55\n      jump\t// in\n    tag_151:\n        /* \"#utility.yul\":7985:8010   */\n      swap3\n      pop\n        /* \"#utility.yul\":8034:8035   */\n      dup3\n        /* \"#utility.yul\":8031:8032   */\n      dup3\n        /* \"#utility.yul\":8027:8036   */\n      sub\n        /* \"#utility.yul\":8019:8036   */\n      swap1\n      pop\n        /* \"#utility.yul\":8058:8059   */\n      dup2\n        /* \"#utility.yul\":8052:8056   */\n      dup2\n        /* \"#utility.yul\":8049:8060   */\n      gt\n        /* \"#utility.yul\":8046:8083   */\n      iszero\n      tag_152\n      jumpi\n        /* \"#utility.yul\":8063:8081   */\n      tag_153\n      tag_76\n      jump\t// in\n    tag_153:\n        /* \"#utility.yul\":8046:8083   */\n    tag_152:\n        /* \"#utility.yul\":7896:8090   */\n      swap3\n      swap2\n      pop\n      pop\n      jump\t// out\n\n    auxdata: 0xa2646970667358221220b77b431054d0d225e8bad2582088e17a23513bd8d2a4a98fd63310183378b28f64736f6c63430008180033\n}\n",
				"bytecode": {
					"linkReferences": {},
					"object": "608060405260018055348015610013575f80fd5b506109bd806100215f395ff3fe608060405234801561000f575f80fd5b506004361061004a575f3560e01c80633cb2c68a1461004e5780634055837d1461006c5780639b52a7631461009c578063ec0b31de146100cc575b5f80fd5b6100566100fc565b60405161006391906106ff565b60405180910390f35b6100866004803603810190610081919061074d565b6101b5565b60405161009391906107a5565b60405180910390f35b6100b660048036038101906100b191906107e8565b61028e565b6040516100c391906107a5565b60405180910390f35b6100e660048036038101906100e1919061074d565b61033b565b6040516100f39190610822565b60405180910390f35b60605f805480602002602001604051908101604052809291908181526020015f905b828210156101ac578382905f5260205f2090600202016040518060400160405290815f8201548152602001600182015f9054906101000a900473ffffffffffffffffffffffffffffffffffffffff1673ffffffffffffffffffffffffffffffffffffffff1673ffffffffffffffffffffffffffffffffffffffff16815250508152602001906001019061011e565b50505050905090565b6101bd6105a5565b5f60035f8473ffffffffffffffffffffffffffffffffffffffff1673ffffffffffffffffffffffffffffffffffffffff1681526020019081526020015f205490505f81815481106102115761021061083b565b5b905f5260205f2090600202016040518060400160405290815f8201548152602001600182015f9054906101000a900473ffffffffffffffffffffffffffffffffffffffff1673ffffffffffffffffffffffffffffffffffffffff1673ffffffffffffffffffffffffffffffffffffffff1681525050915050919050565b6102966105a5565b5f60025f8481526020019081526020015f205490505f81815481106102be576102bd61083b565b5b905f5260205f2090600202016040518060400160405290815f8201548152602001600182015f9054906101000a900473ffffffffffffffffffffffffffffffffffffffff1673ffffffffffffffffffffffffffffffffffffffff1673ffffffffffffffffffffffffffffffffffffffff1681525050915050919050565b5f60045f8373ffffffffffffffffffffffffffffffffffffffff1673ffffffffffffffffffffffffffffffffffffffff1681526020019081526020015f205f9054906101000a900460ff16156103c6576040517f08c379a00000000000000000000000000000000000000000000000000000000081526004016103bd906108c2565b60405180910390fd5b5f60015f8154809291906103d99061090d565b9190505590505f60405180604001604052808381526020018573ffffffffffffffffffffffffffffffffffffffff1681525090505f81908060018154018082558091505060019003905f5260205f2090600202015f909190919091505f820151815f01556020820151816001015f6101000a81548173ffffffffffffffffffffffffffffffffffffffff021916908373ffffffffffffffffffffffffffffffffffffffff16021790555050505f60015f805490506104979190610954565b90508060025f8581526020019081526020015f20819055508060035f8773ffffffffffffffffffffffffffffffffffffffff1673ffffffffffffffffffffffffffffffffffffffff1681526020019081526020015f2081905550600160045f8773ffffffffffffffffffffffffffffffffffffffff1673ffffffffffffffffffffffffffffffffffffffff1681526020019081526020015f205f6101000a81548160ff0219169083151502179055505f60055f8773ffffffffffffffffffffffffffffffffffffffff1673ffffffffffffffffffffffffffffffffffffffff1681526020019081526020015f205f6101000a81548160ff021916908315150217905550829350505050919050565b60405180604001604052805f81526020015f73ffffffffffffffffffffffffffffffffffffffff1681525090565b5f81519050919050565b5f82825260208201905092915050565b5f819050602082019050919050565b5f819050919050565b61060e816105fc565b82525050565b5f73ffffffffffffffffffffffffffffffffffffffff82169050919050565b5f61063d82610614565b9050919050565b61064d81610633565b82525050565b604082015f8201516106675f850182610605565b50602082015161067a6020850182610644565b50505050565b5f61068b8383610653565b60408301905092915050565b5f602082019050919050565b5f6106ad826105d3565b6106b781856105dd565b93506106c2836105ed565b805f5b838110156106f25781516106d98882610680565b97506106e483610697565b9250506001810190506106c5565b5085935050505092915050565b5f6020820190508181035f83015261071781846106a3565b905092915050565b5f80fd5b61072c81610633565b8114610736575f80fd5b50565b5f8135905061074781610723565b92915050565b5f602082840312156107625761076161071f565b5b5f61076f84828501610739565b91505092915050565b604082015f82015161078c5f850182610605565b50602082015161079f6020850182610644565b50505050565b5f6040820190506107b85f830184610778565b92915050565b6107c7816105fc565b81146107d1575f80fd5b50565b5f813590506107e2816107be565b92915050565b5f602082840312156107fd576107fc61071f565b5b5f61080a848285016107d4565b91505092915050565b61081c816105fc565b82525050565b5f6020820190506108355f830184610813565b92915050565b7f4e487b71000000000000000000000000000000000000000000000000000000005f52603260045260245ffd5b5f82825260208201905092915050565b7f436f6e7472616374204164647265737320616c726561647920657869737473005f82015250565b5f6108ac601f83610868565b91506108b782610878565b602082019050919050565b5f6020820190508181035f8301526108d9816108a0565b9050919050565b7f4e487b71000000000000000000000000000000000000000000000000000000005f52601160045260245ffd5b5f610917826105fc565b91507fffffffffffffffffffffffffffffffffffffffffffffffffffffffffffffffff8203610949576109486108e0565b5b600182019050919050565b5f61095e826105fc565b9150610969836105fc565b9250828203905081811115610981576109806108e0565b5b9291505056fea2646970667358221220b77b431054d0d225e8bad2582088e17a23513bd8d2a4a98fd63310183378b28f64736f6c63430008180033",
					"opcodes": "PUSH1 0x80 PUSH1 0x40 MSTORE PUSH1 0x1 DUP1 SSTORE CALLVALUE DUP1 ISZERO PUSH2 0x13 JUMPI PUSH0 DUP1 REVERT JUMPDEST POP PUSH2 0x9BD DUP1 PUSH2 0x21 PUSH0 CODECOPY PUSH0 RETURN INVALID PUSH1 0x80 PUSH1 0x40 MSTORE CALLVALUE DUP1 ISZERO PUSH2 0xF JUMPI PUSH0 DUP1 REVERT JUMPDEST POP PUSH1 0x4 CALLDATASIZE LT PUSH2 0x4A JUMPI PUSH0 CALLDATALOAD PUSH1 0xE0 SHR DUP1 PUSH4 0x3CB2C68A EQ PUSH2 0x4E JUMPI DUP1 PUSH4 0x4055837D EQ PUSH2 0x6C JUMPI DUP1 PUSH4 0x9B52A763 EQ PUSH2 0x9C JUMPI DUP1 PUSH4 0xEC0B31DE EQ PUSH2 0xCC JUMPI JUMPDEST PUSH0 DUP1 REVERT JUMPDEST PUSH2 0x56 PUSH2 0xFC JUMP JUMPDEST PUSH1 0x40 MLOAD PUSH2 0x63 SWAP2 SWAP1 PUSH2 0x6FF JUMP JUMPDEST PUSH1 0x40 MLOAD DUP1 SWAP2 SUB SWAP1 RETURN JUMPDEST PUSH2 0x86 PUSH1 0x4 DUP1 CALLDATASIZE SUB DUP2 ADD SWAP1 PUSH2 0x81 SWAP2 SWAP1 PUSH2 0x74D JUMP JUMPDEST PUSH2 0x1B5 JUMP JUMPDEST PUSH1 0x40 MLOAD PUSH2 0x93 SWAP2 SWAP1 PUSH2 0x7A5 JUMP JUMPDEST PUSH1 0x40 MLOAD DUP1 SWAP2 SUB SWAP1 RETURN JUMPDEST PUSH2 0xB6 PUSH1 0x4 DUP1 CALLDATASIZE SUB DUP2 ADD SWAP1 PUSH2 0xB1 SWAP2 SWAP1 PUSH2 0x7E8 JUMP JUMPDEST PUSH2 0x28E JUMP JUMPDEST PUSH1 0x40 MLOAD PUSH2 0xC3 SWAP2 SWAP1 PUSH2 0x7A5 JUMP JUMPDEST PUSH1 0x40 MLOAD DUP1 SWAP2 SUB SWAP1 RETURN JUMPDEST PUSH2 0xE6 PUSH1 0x4 DUP1 CALLDATASIZE SUB DUP2 ADD SWAP1 PUSH2 0xE1 SWAP2 SWAP1 PUSH2 0x74D JUMP JUMPDEST PUSH2 0x33B JUMP JUMPDEST PUSH1 0x40 MLOAD PUSH2 0xF3 SWAP2 SWAP1 PUSH2 0x822 JUMP JUMPDEST PUSH1 0x40 MLOAD DUP1 SWAP2 SUB SWAP1 RETURN JUMPDEST PUSH1 0x60 PUSH0 DUP1 SLOAD DUP1 PUSH1 0x20 MUL PUSH1 0x20 ADD PUSH1 0x40 MLOAD SWAP1 DUP2 ADD PUSH1 0x40 MSTORE DUP1 SWAP3 SWAP2 SWAP1 DUP2 DUP2 MSTORE PUSH1 0x20 ADD PUSH0 SWAP1 JUMPDEST DUP3 DUP3 LT ISZERO PUSH2 0x1AC JUMPI DUP4 DUP3 SWAP1 PUSH0 MSTORE PUSH1 0x20 PUSH0 KECCAK256 SWAP1 PUSH1 0x2 MUL ADD PUSH1 0x40 MLOAD DUP1 PUSH1 0x40 ADD PUSH1 0x40 MSTORE SWAP1 DUP2 PUSH0 DUP3 ADD SLOAD DUP2 MSTORE PUSH1 0x20 ADD PUSH1 0x1 DUP3 ADD PUSH0 SWAP1 SLOAD SWAP1 PUSH2 0x100 EXP SWAP1 DIV PUSH20 0xFFFFFFFFFFFFFFFFFFFFFFFFFFFFFFFFFFFFFFFF AND PUSH20 0xFFFFFFFFFFFFFFFFFFFFFFFFFFFFFFFFFFFFFFFF AND PUSH20 0xFFFFFFFFFFFFFFFFFFFFFFFFFFFFFFFFFFFFFFFF AND DUP2 MSTORE POP POP DUP2 MSTORE PUSH1 0x20 ADD SWAP1 PUSH1 0x1 ADD SWAP1 PUSH2 0x11E JUMP JUMPDEST POP POP POP POP SWAP1 POP SWAP1 JUMP JUMPDEST PUSH2 0x1BD PUSH2 0x5A5 JUMP JUMPDEST PUSH0 PUSH1 0x3 PUSH0 DUP5 PUSH20 0xFFFFFFFFFFFFFFFFFFFFFFFFFFFFFFFFFFFFFFFF AND PUSH20 0xFFFFFFFFFFFFFFFFFFFFFFFFFFFFFFFFFFFFFFFF AND DUP2 MSTORE PUSH1 0x20 ADD SWAP1 DUP2 MSTORE PUSH1 0x20 ADD PUSH0 KECCAK256 SLOAD SWAP1 POP PUSH0 DUP2 DUP2 SLOAD DUP2 LT PUSH2 0x211 JUMPI PUSH2 0x210 PUSH2 0x83B JUMP JUMPDEST JUMPDEST SWAP1 PUSH0 MSTORE PUSH1 0x20 PUSH0 KECCAK256 SWAP1 PUSH1 0x2 MUL ADD PUSH1 0x40 MLOAD DUP1 PUSH1 0x40 ADD PUSH1 0x40 MSTORE SWAP1 DUP2 PUSH0 DUP3 ADD SLOAD DUP2 MSTORE PUSH1 0x20 ADD PUSH1 0x1 DUP3 ADD PUSH0 SWAP1 SLOAD SWAP1 PUSH2 0x100 EXP SWAP1 DIV PUSH20 0xFFFFFFFFFFFFFFFFFFFFFFFFFFFFFFFFFFFFFFFF AND PUSH20 0xFFFFFFFFFFFFFFFFFFFFFFFFFFFFFFFFFFFFFFFF AND PUSH20 0xFFFFFFFFFFFFFFFFFFFFFFFFFFFFFFFFFFFFFFFF AND DUP2 MSTORE POP POP SWAP2 POP POP SWAP2 SWAP1 POP JUMP JUMPDEST PUSH2 0x296 PUSH2 0x5A5 JUMP JUMPDEST PUSH0 PUSH1 0x2 PUSH0 DUP5 DUP2 MSTORE PUSH1 0x20 ADD SWAP1 DUP2 MSTORE PUSH1 0x20 ADD PUSH0 KECCAK256 SLOAD SWAP1 POP PUSH0 DUP2 DUP2 SLOAD DUP2 LT PUSH2 0x2BE JUMPI PUSH2 0x2BD PUSH2 0x83B JUMP JUMPDEST JUMPDEST SWAP1 PUSH0 MSTORE PUSH1 0x20 PUSH0 KECCAK256 SWAP1 PUSH1 0x2 MUL ADD PUSH1 0x40 MLOAD DUP1 PUSH1 0x40 ADD PUSH1 0x40 MSTORE SWAP1 DUP2 PUSH0 DUP3 ADD SLOAD DUP2 MSTORE PUSH1 0x20 ADD PUSH1 0x1 DUP3 ADD PUSH0 SWAP1 SLOAD SWAP1 PUSH2 0x100 EXP SWAP1 DIV PUSH20 0xFFFFFFFFFFFFFFFFFFFFFFFFFFFFFFFFFFFFFFFF AND PUSH20 0xFFFFFFFFFFFFFFFFFFFFFFFFFFFFFFFFFFFFFFFF AND PUSH20 0xFFFFFFFFFFFFFFFFFFFFFFFFFFFFFFFFFFFFFFFF AND DUP2 MSTORE POP POP SWAP2 POP POP SWAP2 SWAP1 POP JUMP JUMPDEST PUSH0 PUSH1 0x4 PUSH0 DUP4 PUSH20 0xFFFFFFFFFFFFFFFFFFFFFFFFFFFFFFFFFFFFFFFF AND PUSH20 0xFFFFFFFFFFFFFFFFFFFFFFFFFFFFFFFFFFFFFFFF AND DUP2 MSTORE PUSH1 0x20 ADD SWAP1 DUP2 MSTORE PUSH1 0x20 ADD PUSH0 KECCAK256 PUSH0 SWAP1 SLOAD SWAP1 PUSH2 0x100 EXP SWAP1 DIV PUSH1 0xFF AND ISZERO PUSH2 0x3C6 JUMPI PUSH1 0x40 MLOAD PUSH32 0x8C379A000000000000000000000000000000000000000000000000000000000 DUP2 MSTORE PUSH1 0x4 ADD PUSH2 0x3BD SWAP1 PUSH2 0x8C2 JUMP JUMPDEST PUSH1 0x40 MLOAD DUP1 SWAP2 SUB SWAP1 REVERT JUMPDEST PUSH0 PUSH1 0x1 PUSH0 DUP2 SLOAD DUP1 SWAP3 SWAP2 SWAP1 PUSH2 0x3D9 SWAP1 PUSH2 0x90D JUMP JUMPDEST SWAP2 SWAP1 POP SSTORE SWAP1 POP PUSH0 PUSH1 0x40 MLOAD DUP1 PUSH1 0x40 ADD PUSH1 0x40 MSTORE DUP1 DUP4 DUP2 MSTORE PUSH1 0x20 ADD DUP6 PUSH20 0xFFFFFFFFFFFFFFFFFFFFFFFFFFFFFFFFFFFFFFFF AND DUP2 MSTORE POP SWAP1 POP PUSH0 DUP2 SWAP1 DUP1 PUSH1 0x1 DUP2 SLOAD ADD DUP1 DUP3 SSTORE DUP1 SWAP2 POP POP PUSH1 0x1 SWAP1 SUB SWAP1 PUSH0 MSTORE PUSH1 0x20 PUSH0 KECCAK256 SWAP1 PUSH1 0x2 MUL ADD PUSH0 SWAP1 SWAP2 SWAP1 SWAP2 SWAP1 SWAP2 POP PUSH0 DUP3 ADD MLOAD DUP2 PUSH0 ADD SSTORE PUSH1 0x20 DUP3 ADD MLOAD DUP2 PUSH1 0x1 ADD PUSH0 PUSH2 0x100 EXP DUP2 SLOAD DUP2 PUSH20 0xFFFFFFFFFFFFFFFFFFFFFFFFFFFFFFFFFFFFFFFF MUL NOT AND SWAP1 DUP4 PUSH20 0xFFFFFFFFFFFFFFFFFFFFFFFFFFFFFFFFFFFFFFFF AND MUL OR SWAP1 SSTORE POP POP POP PUSH0 PUSH1 0x1 PUSH0 DUP1 SLOAD SWAP1 POP PUSH2 0x497 SWAP2 SWAP1 PUSH2 0x954 JUMP JUMPDEST SWAP1 POP DUP1 PUSH1 0x2 PUSH0 DUP6 DUP2 MSTORE PUSH1 0x20 ADD SWAP1 DUP2 MSTORE PUSH1 0x20 ADD PUSH0 KECCAK256 DUP2 SWAP1 SSTORE POP DUP1 PUSH1 0x3 PUSH0 DUP8 PUSH20 0xFFFFFFFFFFFFFFFFFFFFFFFFFFFFFFFFFFFFFFFF AND PUSH20 0xFFFFFFFFFFFFFFFFFFFFFFFFFFFFFFFFFFFFFFFF AND DUP2 MSTORE PUSH1 0x20 ADD SWAP1 DUP2 MSTORE PUSH1 0x20 ADD PUSH0 KECCAK256 DUP2 SWAP1 SSTORE POP PUSH1 0x1 PUSH1 0x4 PUSH0 DUP8 PUSH20 0xFFFFFFFFFFFFFFFFFFFFFFFFFFFFFFFFFFFFFFFF AND PUSH20 0xFFFFFFFFFFFFFFFFFFFFFFFFFFFFFFFFFFFFFFFF AND DUP2 MSTORE PUSH1 0x20 ADD SWAP1 DUP2 MSTORE PUSH1 0x20 ADD PUSH0 KECCAK256 PUSH0 PUSH2 0x100 EXP DUP2 SLOAD DUP2 PUSH1 0xFF MUL NOT AND SWAP1 DUP4 ISZERO ISZERO MUL OR SWAP1 SSTORE POP PUSH0 PUSH1 0x5 PUSH0 DUP8 PUSH20 0xFFFFFFFFFFFFFFFFFFFFFFFFFFFFFFFFFFFFFFFF AND PUSH20 0xFFFFFFFFFFFFFFFFFFFFFFFFFFFFFFFFFFFFFFFF AND DUP2 MSTORE PUSH1 0x20 ADD SWAP1 DUP2 MSTORE PUSH1 0x20 ADD PUSH0 KECCAK256 PUSH0 PUSH2 0x100 EXP DUP2 SLOAD DUP2 PUSH1 0xFF MUL NOT AND SWAP1 DUP4 ISZERO ISZERO MUL OR SWAP1 SSTORE POP DUP3 SWAP4 POP POP POP POP SWAP2 SWAP1 POP JUMP JUMPDEST PUSH1 0x40 MLOAD DUP1 PUSH1 0x40 ADD PUSH1 0x40 MSTORE DUP1 PUSH0 DUP2 MSTORE PUSH1 0x20 ADD PUSH0 PUSH20 0xFFFFFFFFFFFFFFFFFFFFFFFFFFFFFFFFFFFFFFFF AND DUP2 MSTORE POP SWAP1 JUMP JUMPDEST PUSH0 DUP2 MLOAD SWAP1 POP SWAP2 SWAP1 POP JUMP JUMPDEST PUSH0 DUP3 DUP3 MSTORE PUSH1 0x20 DUP3 ADD SWAP1 POP SWAP3 SWAP2 POP POP JUMP JUMPDEST PUSH0 DUP2 SWAP1 POP PUSH1 0x20 DUP3 ADD SWAP1 POP SWAP2 SWAP1 POP JUMP JUMPDEST PUSH0 DUP2 SWAP1 POP SWAP2 SWAP1 POP JUMP JUMPDEST PUSH2 0x60E DUP2 PUSH2 0x5FC JUMP JUMPDEST DUP3 MSTORE POP POP JUMP JUMPDEST PUSH0 PUSH20 0xFFFFFFFFFFFFFFFFFFFFFFFFFFFFFFFFFFFFFFFF DUP3 AND SWAP1 POP SWAP2 SWAP1 POP JUMP JUMPDEST PUSH0 PUSH2 0x63D DUP3 PUSH2 0x614 JUMP JUMPDEST SWAP1 POP SWAP2 SWAP1 POP JUMP JUMPDEST PUSH2 0x64D DUP2 PUSH2 0x633 JUMP JUMPDEST DUP3 MSTORE POP POP JUMP JUMPDEST PUSH1 0x40 DUP3 ADD PUSH0 DUP3 ADD MLOAD PUSH2 0x667 PUSH0 DUP6 ADD DUP3 PUSH2 0x605 JUMP JUMPDEST POP PUSH1 0x20 DUP3 ADD MLOAD PUSH2 0x67A PUSH1 0x20 DUP6 ADD DUP3 PUSH2 0x644 JUMP JUMPDEST POP POP POP POP JUMP JUMPDEST PUSH0 PUSH2 0x68B DUP4 DUP4 PUSH2 0x653 JUMP JUMPDEST PUSH1 0x40 DUP4 ADD SWAP1 POP SWAP3 SWAP2 POP POP JUMP JUMPDEST PUSH0 PUSH1 0x20 DUP3 ADD SWAP1 POP SWAP2 SWAP1 POP JUMP JUMPDEST PUSH0 PUSH2 0x6AD DUP3 PUSH2 0x5D3 JUMP JUMPDEST PUSH2 0x6B7 DUP2 DUP6 PUSH2 0x5DD JUMP JUMPDEST SWAP4 POP PUSH2 0x6C2 DUP4 PUSH2 0x5ED JUMP JUMPDEST DUP1 PUSH0 JUMPDEST DUP4 DUP2 LT ISZERO PUSH2 0x6F2 JUMPI DUP2 MLOAD PUSH2 0x6D9 DUP9 DUP3 PUSH2 0x680 JUMP JUMPDEST SWAP8 POP PUSH2 0x6E4 DUP4 PUSH2 0x697 JUMP JUMPDEST SWAP3 POP POP PUSH1 0x1 DUP2 ADD SWAP1 POP PUSH2 0x6C5 JUMP JUMPDEST POP DUP6 SWAP4 POP POP POP POP SWAP3 SWAP2 POP POP JUMP JUMPDEST PUSH0 PUSH1 0x20 DUP3 ADD SWAP1 POP DUP2 DUP2 SUB PUSH0 DUP4 ADD MSTORE PUSH2 0x717 DUP2 DUP5 PUSH2 0x6A3 JUMP JUMPDEST SWAP1 POP SWAP3 SWAP2 POP POP JUMP JUMPDEST PUSH0 DUP1 REVERT JUMPDEST PUSH2 0x72C DUP2 PUSH2 0x633 JUMP JUMPDEST DUP2 EQ PUSH2 0x736 JUMPI PUSH0 DUP1 REVERT JUMPDEST POP JUMP JUMPDEST PUSH0 DUP2 CALLDATALOAD SWAP1 POP PUSH2 0x747 DUP2 PUSH2 0x723 JUMP JUMPDEST SWAP3 SWAP2 POP POP JUMP JUMPDEST PUSH0 PUSH1 0x20 DUP3 DUP5 SUB SLT ISZERO PUSH2 0x762 JUMPI PUSH2 0x761 PUSH2 0x71F JUMP JUMPDEST JUMPDEST PUSH0 PUSH2 0x76F DUP5 DUP3 DUP6 ADD PUSH2 0x739 JUMP JUMPDEST SWAP2 POP POP SWAP3 SWAP2 POP POP JUMP JUMPDEST PUSH1 0x40 DUP3 ADD PUSH0 DUP3 ADD MLOAD PUSH2 0x78C PUSH0 DUP6 ADD DUP3 PUSH2 0x605 JUMP JUMPDEST POP PUSH1 0x20 DUP3 ADD MLOAD PUSH2 0x79F PUSH1 0x20 DUP6 ADD DUP3 PUSH2 0x644 JUMP JUMPDEST POP POP POP POP JUMP JUMPDEST PUSH0 PUSH1 0x40 DUP3 ADD SWAP1 POP PUSH2 0x7B8 PUSH0 DUP4 ADD DUP5 PUSH2 0x778 JUMP JUMPDEST SWAP3 SWAP2 POP POP JUMP JUMPDEST PUSH2 0x7C7 DUP2 PUSH2 0x5FC JUMP JUMPDEST DUP2 EQ PUSH2 0x7D1 JUMPI PUSH0 DUP1 REVERT JUMPDEST POP JUMP JUMPDEST PUSH0 DUP2 CALLDATALOAD SWAP1 POP PUSH2 0x7E2 DUP2 PUSH2 0x7BE JUMP JUMPDEST SWAP3 SWAP2 POP POP JUMP JUMPDEST PUSH0 PUSH1 0x20 DUP3 DUP5 SUB SLT ISZERO PUSH2 0x7FD JUMPI PUSH2 0x7FC PUSH2 0x71F JUMP JUMPDEST JUMPDEST PUSH0 PUSH2 0x80A DUP5 DUP3 DUP6 ADD PUSH2 0x7D4 JUMP JUMPDEST SWAP2 POP POP SWAP3 SWAP2 POP POP JUMP JUMPDEST PUSH2 0x81C DUP2 PUSH2 0x5FC JUMP JUMPDEST DUP3 MSTORE POP POP JUMP JUMPDEST PUSH0 PUSH1 0x20 DUP3 ADD SWAP1 POP PUSH2 0x835 PUSH0 DUP4 ADD DUP5 PUSH2 0x813 JUMP JUMPDEST SWAP3 SWAP2 POP POP JUMP JUMPDEST PUSH32 0x4E487B7100000000000000000000000000000000000000000000000000000000 PUSH0 MSTORE PUSH1 0x32 PUSH1 0x4 MSTORE PUSH1 0x24 PUSH0 REVERT JUMPDEST PUSH0 DUP3 DUP3 MSTORE PUSH1 0x20 DUP3 ADD SWAP1 POP SWAP3 SWAP2 POP POP JUMP JUMPDEST PUSH32 0x436F6E7472616374204164647265737320616C72656164792065786973747300 PUSH0 DUP3 ADD MSTORE POP JUMP JUMPDEST PUSH0 PUSH2 0x8AC PUSH1 0x1F DUP4 PUSH2 0x868 JUMP JUMPDEST SWAP2 POP PUSH2 0x8B7 DUP3 PUSH2 0x878 JUMP JUMPDEST PUSH1 0x20 DUP3 ADD SWAP1 POP SWAP2 SWAP1 POP JUMP JUMPDEST PUSH0 PUSH1 0x20 DUP3 ADD SWAP1 POP DUP2 DUP2 SUB PUSH0 DUP4 ADD MSTORE PUSH2 0x8D9 DUP2 PUSH2 0x8A0 JUMP JUMPDEST SWAP1 POP SWAP2 SWAP1 POP JUMP JUMPDEST PUSH32 0x4E487B7100000000000000000000000000000000000000000000000000000000 PUSH0 MSTORE PUSH1 0x11 PUSH1 0x4 MSTORE PUSH1 0x24 PUSH0 REVERT JUMPDEST PUSH0 PUSH2 0x917 DUP3 PUSH2 0x5FC JUMP JUMPDEST SWAP2 POP PUSH32 0xFFFFFFFFFFFFFFFFFFFFFFFFFFFFFFFFFFFFFFFFFFFFFFFFFFFFFFFFFFFFFFFF DUP3 SUB PUSH2 0x949 JUMPI PUSH2 0x948 PUSH2 0x8E0 JUMP JUMPDEST JUMPDEST PUSH1 0x1 DUP3 ADD SWAP1 POP SWAP2 SWAP1 POP JUMP JUMPDEST PUSH0 PUSH2 0x95E DUP3 PUSH2 0x5FC JUMP JUMPDEST SWAP2 POP PUSH2 0x969 DUP4 PUSH2 0x5FC JUMP JUMPDEST SWAP3 POP DUP3 DUP3 SUB SWAP1 POP DUP2 DUP2 GT ISZERO PUSH2 0x981 JUMPI PUSH2 0x980 PUSH2 0x8E0 JUMP JUMPDEST JUMPDEST SWAP3 SWAP2 POP POP JUMP INVALID LOG2 PUSH5 0x6970667358 0x22 SLT KECCAK256 0xB7 PUSH28 0x431054D0D225E8BAD2582088E17A23513BD8D2A4A98FD63310183378 0xB2 DUP16 PUSH5 0x736F6C6343 STOP ADDMOD XOR STOP CALLER "
				},
				"gasEstimates": {
					"creation": {
						"codeDepositCost": "498600",
						"executionCost": "22634",
						"totalCost": "521234"
					},
					"external": {
						"getAllDAOs()": "infinite",
						"getDAOByDAOAddress(address)": "infinite",
						"getDAOByDAOId(uint256)": "infinite",
						"listDAO(address)": "infinite"
					}
				},
				"methodIdentifiers": {
					"getAllDAOs()": "3cb2c68a",
					"getDAOByDAOAddress(address)": "4055837d",
					"getDAOByDAOId(uint256)": "9b52a763",
					"listDAO(address)": "ec0b31de"
				}
			},
			"storageLayout": {
				"storage": [
					{
						"astId": 10,
						"contract": "aquo/AquoDaoList.sol:DAOList",
						"label": "daos",
						"offset": 0,
						"slot": "0",
						"type": "t_array(t_struct(DAO)6_storage)dyn_storage"
					},
					{
						"astId": 13,
						"contract": "aquo/AquoDaoList.sol:DAOList",
						"label": "nextDAOId",
						"offset": 0,
						"slot": "1",
						"type": "t_uint256"
					},
					{
						"astId": 17,
						"contract": "aquo/AquoDaoList.sol:DAOList",
						"label": "daoIdToIndex",
						"offset": 0,
						"slot": "2",
						"type": "t_mapping(t_uint256,t_uint256)"
					},
					{
						"astId": 21,
						"contract": "aquo/AquoDaoList.sol:DAOList",
						"label": "daoAddressToIndex",
						"offset": 0,
						"slot": "3",
						"type": "t_mapping(t_address,t_uint256)"
					},
					{
						"astId": 25,
						"contract": "aquo/AquoDaoList.sol:DAOList",
						"label": "daoAddressExists",
						"offset": 0,
						"slot": "4",
						"type": "t_mapping(t_address,t_bool)"
					},
					{
						"astId": 29,
						"contract": "aquo/AquoDaoList.sol:DAOList",
						"label": "unallocatedDAO",
						"offset": 0,
						"slot": "5",
						"type": "t_mapping(t_address,t_bool)"
					}
				],
				"types": {
					"t_address": {
						"encoding": "inplace",
						"label": "address",
						"numberOfBytes": "20"
					},
					"t_array(t_struct(DAO)6_storage)dyn_storage": {
						"base": "t_struct(DAO)6_storage",
						"encoding": "dynamic_array",
						"label": "struct DAOList.DAO[]",
						"numberOfBytes": "32"
					},
					"t_bool": {
						"encoding": "inplace",
						"label": "bool",
						"numberOfBytes": "1"
					},
					"t_mapping(t_address,t_bool)": {
						"encoding": "mapping",
						"key": "t_address",
						"label": "mapping(address => bool)",
						"numberOfBytes": "32",
						"value": "t_bool"
					},
					"t_mapping(t_address,t_uint256)": {
						"encoding": "mapping",
						"key": "t_address",
						"label": "mapping(address => uint256)",
						"numberOfBytes": "32",
						"value": "t_uint256"
					},
					"t_mapping(t_uint256,t_uint256)": {
						"encoding": "mapping",
						"key": "t_uint256",
						"label": "mapping(uint256 => uint256)",
						"numberOfBytes": "32",
						"value": "t_uint256"
					},
					"t_struct(DAO)6_storage": {
						"encoding": "inplace",
						"label": "struct DAOList.DAO",
						"members": [
							{
								"astId": 3,
								"contract": "aquo/AquoDaoList.sol:DAOList",
								"label": "daoId",
								"offset": 0,
								"slot": "0",
								"type": "t_uint256"
							},
							{
								"astId": 5,
								"contract": "aquo/AquoDaoList.sol:DAOList",
								"label": "daoAddress",
								"offset": 0,
								"slot": "1",
								"type": "t_address"
							}
						],
						"numberOfBytes": "64"
					},
					"t_uint256": {
						"encoding": "inplace",
						"label": "uint256",
						"numberOfBytes": "32"
					}
				}
			},
			"userdoc": {
				"kind": "user",
				"methods": {},
				"version": 1
			}
		}
	}
}