{
	"aquo/RWA.sol": {
		"RWA": {
			"abi": [
				{
					"inputs": [
						{
							"internalType": "uint256",
							"name": "_rwaCode",
							"type": "uint256"
						},
						{
							"internalType": "uint256",
							"name": "_initialSupply",
							"type": "uint256"
						}
					],
					"stateMutability": "nonpayable",
					"type": "constructor"
				},
				{
					"anonymous": false,
					"inputs": [
						{
							"indexed": false,
							"internalType": "address",
							"name": "to",
							"type": "address"
						},
						{
							"indexed": false,
							"internalType": "uint256",
							"name": "amount",
							"type": "uint256"
						},
						{
							"indexed": false,
							"internalType": "uint256",
							"name": "rwaCode",
							"type": "uint256"
						}
					],
					"name": "Minted",
					"type": "event"
				},
				{
					"anonymous": false,
					"inputs": [
						{
							"indexed": true,
							"internalType": "address",
							"name": "previousOwner",
							"type": "address"
						},
						{
							"indexed": true,
							"internalType": "address",
							"name": "newOwner",
							"type": "address"
						}
					],
					"name": "OwnershipTransferred",
					"type": "event"
				},
				{
					"anonymous": false,
					"inputs": [
						{
							"indexed": true,
							"internalType": "address",
							"name": "from",
							"type": "address"
						},
						{
							"indexed": true,
							"internalType": "address",
							"name": "to",
							"type": "address"
						},
						{
							"indexed": false,
							"internalType": "uint256",
							"name": "amount",
							"type": "uint256"
						}
					],
					"name": "Transfer",
					"type": "event"
				},
				{
					"inputs": [
						{
							"internalType": "address",
							"name": "_wallet",
							"type": "address"
						}
					],
					"name": "balanceOf",
					"outputs": [
						{
							"internalType": "uint256",
							"name": "",
							"type": "uint256"
						}
					],
					"stateMutability": "view",
					"type": "function"
				},
				{
					"inputs": [
						{
							"internalType": "address",
							"name": "",
							"type": "address"
						}
					],
					"name": "balances",
					"outputs": [
						{
							"internalType": "uint256",
							"name": "",
							"type": "uint256"
						}
					],
					"stateMutability": "view",
					"type": "function"
				},
				{
					"inputs": [],
					"name": "getTokenHolders",
					"outputs": [
						{
							"internalType": "address[]",
							"name": "",
							"type": "address[]"
						}
					],
					"stateMutability": "view",
					"type": "function"
				},
				{
					"inputs": [],
					"name": "owner",
					"outputs": [
						{
							"internalType": "address",
							"name": "",
							"type": "address"
						}
					],
					"stateMutability": "view",
					"type": "function"
				},
				{
					"inputs": [],
					"name": "rwaCode",
					"outputs": [
						{
							"internalType": "uint256",
							"name": "",
							"type": "uint256"
						}
					],
					"stateMutability": "view",
					"type": "function"
				},
				{
					"inputs": [
						{
							"internalType": "uint256",
							"name": "",
							"type": "uint256"
						}
					],
					"name": "tokenHolders",
					"outputs": [
						{
							"internalType": "address",
							"name": "",
							"type": "address"
						}
					],
					"stateMutability": "view",
					"type": "function"
				},
				{
					"inputs": [
						{
							"internalType": "address",
							"name": "_seller",
							"type": "address"
						},
						{
							"internalType": "address",
							"name": "_buyer",
							"type": "address"
						},
						{
							"internalType": "uint256",
							"name": "_amount",
							"type": "uint256"
						}
					],
					"name": "transfer",
					"outputs": [],
					"stateMutability": "nonpayable",
					"type": "function"
				},
				{
					"inputs": [
						{
							"internalType": "address",
							"name": "newOwner",
							"type": "address"
						}
					],
					"name": "transferOwnership",
					"outputs": [],
					"stateMutability": "nonpayable",
					"type": "function"
				}
			],
			"devdoc": {
				"kind": "dev",
				"methods": {},
				"version": 1
			},
			"evm": {
				"assembly": "    /* \"aquo/RWA.sol\":60:2776  contract RWA {... */\n  mstore(0x40, 0x80)\n    /* \"aquo/RWA.sol\":593:848  constructor(uint _rwaCode, uint _initialSupply) {... */\n  callvalue\n  dup1\n  iszero\n  tag_1\n  jumpi\n  0x00\n  dup1\n  revert\ntag_1:\n  pop\n  mload(0x40)\n  sub(codesize, bytecodeSize)\n  dup1\n  bytecodeSize\n  dup4\n  codecopy\n  dup2\n  dup2\n  add\n  0x40\n  mstore\n  dup2\n  add\n  swap1\n  tag_2\n  swap2\n  swap1\n  tag_3\n  jump\t// in\ntag_2:\n    /* \"aquo/RWA.sol\":660:670  msg.sender */\n  caller\n    /* \"aquo/RWA.sol\":652:657  owner */\n  0x00\n  dup1\n    /* \"aquo/RWA.sol\":652:670  owner = msg.sender */\n  0x0100\n  exp\n  dup2\n  sload\n  dup2\n  0xffffffffffffffffffffffffffffffffffffffff\n  mul\n  not\n  and\n  swap1\n  dup4\n  0xffffffffffffffffffffffffffffffffffffffff\n  and\n  mul\n  or\n  swap1\n  sstore\n  pop\n    /* \"aquo/RWA.sol\":728:736  _rwaCode */\n  dup2\n    /* \"aquo/RWA.sol\":718:725  rwaCode */\n  0x01\n    /* \"aquo/RWA.sol\":718:736  rwaCode = _rwaCode */\n  dup2\n  swap1\n  sstore\n  pop\n    /* \"aquo/RWA.sol\":781:808  mint(owner, _initialSupply) */\n  tag_6\n    /* \"aquo/RWA.sol\":786:791  owner */\n  0x00\n  dup1\n  sload\n  swap1\n  0x0100\n  exp\n  swap1\n  div\n  0xffffffffffffffffffffffffffffffffffffffff\n  and\n    /* \"aquo/RWA.sol\":793:807  _initialSupply */\n  dup3\n    /* \"aquo/RWA.sol\":781:785  mint */\n  shl(0x20, tag_7)\n    /* \"aquo/RWA.sol\":781:808  mint(owner, _initialSupply) */\n  0x20\n  shr\n  jump\t// in\ntag_6:\n    /* \"aquo/RWA.sol\":593:848  constructor(uint _rwaCode, uint _initialSupply) {... */\n  pop\n  pop\n    /* \"aquo/RWA.sol\":60:2776  contract RWA {... */\n  jump(tag_8)\n    /* \"aquo/RWA.sol\":1003:1317  function mint(address _to, uint _amount) internal { // Changed to internal... */\ntag_7:\n    /* \"aquo/RWA.sol\":1110:1111  0 */\n  0x00\n    /* \"aquo/RWA.sol\":1095:1112  _to != address(0) */\n  0xffffffffffffffffffffffffffffffffffffffff\n  and\n    /* \"aquo/RWA.sol\":1095:1098  _to */\n  dup3\n    /* \"aquo/RWA.sol\":1095:1112  _to != address(0) */\n  0xffffffffffffffffffffffffffffffffffffffff\n  and\n  sub\n    /* \"aquo/RWA.sol\":1087:1132  require(_to != address(0), \"Invalid address\") */\n  tag_10\n  jumpi\n  mload(0x40)\n  0x08c379a000000000000000000000000000000000000000000000000000000000\n  dup2\n  mstore\n  0x04\n  add\n  tag_11\n  swap1\n  tag_12\n  jump\t// in\ntag_11:\n  mload(0x40)\n  dup1\n  swap2\n  sub\n  swap1\n  revert\ntag_10:\n    /* \"aquo/RWA.sol\":1160:1167  _amount */\n  dup1\n    /* \"aquo/RWA.sol\":1143:1151  balances */\n  0x02\n    /* \"aquo/RWA.sol\":1143:1156  balances[_to] */\n  0x00\n    /* \"aquo/RWA.sol\":1152:1155  _to */\n  dup5\n    /* \"aquo/RWA.sol\":1143:1156  balances[_to] */\n  0xffffffffffffffffffffffffffffffffffffffff\n  and\n  0xffffffffffffffffffffffffffffffffffffffff\n  and\n  dup2\n  mstore\n  0x20\n  add\n  swap1\n  dup2\n  mstore\n  0x20\n  add\n  0x00\n  keccak256\n  0x00\n    /* \"aquo/RWA.sol\":1143:1167  balances[_to] += _amount */\n  dup3\n  dup3\n  sload\n  tag_13\n  swap2\n  swap1\n  tag_14\n  jump\t// in\ntag_13:\n  swap3\n  pop\n  pop\n  dup2\n  swap1\n  sstore\n  pop\n    /* \"aquo/RWA.sol\":1219:1231  tokenHolders */\n  0x03\n    /* \"aquo/RWA.sol\":1237:1240  _to */\n  dup3\n    /* \"aquo/RWA.sol\":1219:1241  tokenHolders.push(_to) */\n  swap1\n  dup1\n  0x01\n  dup2\n  sload\n  add\n  dup1\n  dup3\n  sstore\n  dup1\n  swap2\n  pop\n  pop\n  0x01\n  swap1\n  sub\n  swap1\n  0x00\n  mstore\n  keccak256(0x00, 0x20)\n  add\n  0x00\n  swap1\n  swap2\n  swap1\n  swap2\n  swap1\n  swap2\n  0x0100\n  exp\n  dup2\n  sload\n  dup2\n  0xffffffffffffffffffffffffffffffffffffffff\n  mul\n  not\n  and\n  swap1\n  dup4\n  0xffffffffffffffffffffffffffffffffffffffff\n  and\n  mul\n  or\n  swap1\n  sstore\n  pop\n    /* \"aquo/RWA.sol\":1280:1309  Minted(_to, _amount, rwaCode) */\n  0x25b428dfde728ccfaddad7e29e4ac23c24ed7fd1a6e3e3f91894a9a073f5dfff\n    /* \"aquo/RWA.sol\":1287:1290  _to */\n  dup3\n    /* \"aquo/RWA.sol\":1292:1299  _amount */\n  dup3\n    /* \"aquo/RWA.sol\":1301:1308  rwaCode */\n  sload(0x01)\n    /* \"aquo/RWA.sol\":1280:1309  Minted(_to, _amount, rwaCode) */\n  mload(0x40)\n  tag_16\n  swap4\n  swap3\n  swap2\n  swap1\n  tag_17\n  jump\t// in\ntag_16:\n  mload(0x40)\n  dup1\n  swap2\n  sub\n  swap1\n  log1\n    /* \"aquo/RWA.sol\":1003:1317  function mint(address _to, uint _amount) internal { // Changed to internal... */\n  pop\n  pop\n  jump\t// out\n    /* \"#utility.yul\":88:205   */\ntag_19:\n    /* \"#utility.yul\":197:198   */\n  0x00\n    /* \"#utility.yul\":194:195   */\n  dup1\n    /* \"#utility.yul\":187:199   */\n  revert\n    /* \"#utility.yul\":334:411   */\ntag_21:\n    /* \"#utility.yul\":371:378   */\n  0x00\n    /* \"#utility.yul\":400:405   */\n  dup2\n    /* \"#utility.yul\":389:405   */\n  swap1\n  pop\n    /* \"#utility.yul\":334:411   */\n  swap2\n  swap1\n  pop\n  jump\t// out\n    /* \"#utility.yul\":417:539   */\ntag_22:\n    /* \"#utility.yul\":490:514   */\n  tag_38\n    /* \"#utility.yul\":508:513   */\n  dup2\n    /* \"#utility.yul\":490:514   */\n  tag_21\n  jump\t// in\ntag_38:\n    /* \"#utility.yul\":483:488   */\n  dup2\n    /* \"#utility.yul\":480:515   */\n  eq\n    /* \"#utility.yul\":470:533   */\n  tag_39\n  jumpi\n    /* \"#utility.yul\":529:530   */\n  0x00\n    /* \"#utility.yul\":526:527   */\n  dup1\n    /* \"#utility.yul\":519:531   */\n  revert\n    /* \"#utility.yul\":470:533   */\ntag_39:\n    /* \"#utility.yul\":417:539   */\n  pop\n  jump\t// out\n    /* \"#utility.yul\":545:688   */\ntag_23:\n    /* \"#utility.yul\":602:607   */\n  0x00\n    /* \"#utility.yul\":633:639   */\n  dup2\n    /* \"#utility.yul\":627:640   */\n  mload\n    /* \"#utility.yul\":618:640   */\n  swap1\n  pop\n    /* \"#utility.yul\":649:682   */\n  tag_41\n    /* \"#utility.yul\":676:681   */\n  dup2\n    /* \"#utility.yul\":649:682   */\n  tag_22\n  jump\t// in\ntag_41:\n    /* \"#utility.yul\":545:688   */\n  swap3\n  swap2\n  pop\n  pop\n  jump\t// out\n    /* \"#utility.yul\":694:1201   */\ntag_3:\n    /* \"#utility.yul\":773:779   */\n  0x00\n    /* \"#utility.yul\":781:787   */\n  dup1\n    /* \"#utility.yul\":830:832   */\n  0x40\n    /* \"#utility.yul\":818:827   */\n  dup4\n    /* \"#utility.yul\":809:816   */\n  dup6\n    /* \"#utility.yul\":805:828   */\n  sub\n    /* \"#utility.yul\":801:833   */\n  slt\n    /* \"#utility.yul\":798:917   */\n  iszero\n  tag_43\n  jumpi\n    /* \"#utility.yul\":836:915   */\n  tag_44\n  tag_19\n  jump\t// in\ntag_44:\n    /* \"#utility.yul\":798:917   */\ntag_43:\n    /* \"#utility.yul\":956:957   */\n  0x00\n    /* \"#utility.yul\":981:1045   */\n  tag_45\n    /* \"#utility.yul\":1037:1044   */\n  dup6\n    /* \"#utility.yul\":1028:1034   */\n  dup3\n    /* \"#utility.yul\":1017:1026   */\n  dup7\n    /* \"#utility.yul\":1013:1035   */\n  add\n    /* \"#utility.yul\":981:1045   */\n  tag_23\n  jump\t// in\ntag_45:\n    /* \"#utility.yul\":971:1045   */\n  swap3\n  pop\n    /* \"#utility.yul\":927:1055   */\n  pop\n    /* \"#utility.yul\":1094:1096   */\n  0x20\n    /* \"#utility.yul\":1120:1184   */\n  tag_46\n    /* \"#utility.yul\":1176:1183   */\n  dup6\n    /* \"#utility.yul\":1167:1173   */\n  dup3\n    /* \"#utility.yul\":1156:1165   */\n  dup7\n    /* \"#utility.yul\":1152:1174   */\n  add\n    /* \"#utility.yul\":1120:1184   */\n  tag_23\n  jump\t// in\ntag_46:\n    /* \"#utility.yul\":1110:1184   */\n  swap2\n  pop\n    /* \"#utility.yul\":1065:1194   */\n  pop\n    /* \"#utility.yul\":694:1201   */\n  swap3\n  pop\n  swap3\n  swap1\n  pop\n  jump\t// out\n    /* \"#utility.yul\":1207:1376   */\ntag_24:\n    /* \"#utility.yul\":1291:1302   */\n  0x00\n    /* \"#utility.yul\":1325:1331   */\n  dup3\n    /* \"#utility.yul\":1320:1323   */\n  dup3\n    /* \"#utility.yul\":1313:1332   */\n  mstore\n    /* \"#utility.yul\":1365:1369   */\n  0x20\n    /* \"#utility.yul\":1360:1363   */\n  dup3\n    /* \"#utility.yul\":1356:1370   */\n  add\n    /* \"#utility.yul\":1341:1370   */\n  swap1\n  pop\n    /* \"#utility.yul\":1207:1376   */\n  swap3\n  swap2\n  pop\n  pop\n  jump\t// out\n    /* \"#utility.yul\":1382:1547   */\ntag_25:\n    /* \"#utility.yul\":1522:1539   */\n  0x496e76616c696420616464726573730000000000000000000000000000000000\n    /* \"#utility.yul\":1518:1519   */\n  0x00\n    /* \"#utility.yul\":1510:1516   */\n  dup3\n    /* \"#utility.yul\":1506:1520   */\n  add\n    /* \"#utility.yul\":1499:1540   */\n  mstore\n    /* \"#utility.yul\":1382:1547   */\n  pop\n  jump\t// out\n    /* \"#utility.yul\":1553:1919   */\ntag_26:\n    /* \"#utility.yul\":1695:1698   */\n  0x00\n    /* \"#utility.yul\":1716:1783   */\n  tag_50\n    /* \"#utility.yul\":1780:1782   */\n  0x0f\n    /* \"#utility.yul\":1775:1778   */\n  dup4\n    /* \"#utility.yul\":1716:1783   */\n  tag_24\n  jump\t// in\ntag_50:\n    /* \"#utility.yul\":1709:1783   */\n  swap2\n  pop\n    /* \"#utility.yul\":1792:1885   */\n  tag_51\n    /* \"#utility.yul\":1881:1884   */\n  dup3\n    /* \"#utility.yul\":1792:1885   */\n  tag_25\n  jump\t// in\ntag_51:\n    /* \"#utility.yul\":1910:1912   */\n  0x20\n    /* \"#utility.yul\":1905:1908   */\n  dup3\n    /* \"#utility.yul\":1901:1913   */\n  add\n    /* \"#utility.yul\":1894:1913   */\n  swap1\n  pop\n    /* \"#utility.yul\":1553:1919   */\n  swap2\n  swap1\n  pop\n  jump\t// out\n    /* \"#utility.yul\":1925:2344   */\ntag_12:\n    /* \"#utility.yul\":2091:2095   */\n  0x00\n    /* \"#utility.yul\":2129:2131   */\n  0x20\n    /* \"#utility.yul\":2118:2127   */\n  dup3\n    /* \"#utility.yul\":2114:2132   */\n  add\n    /* \"#utility.yul\":2106:2132   */\n  swap1\n  pop\n    /* \"#utility.yul\":2178:2187   */\n  dup2\n    /* \"#utility.yul\":2172:2176   */\n  dup2\n    /* \"#utility.yul\":2168:2188   */\n  sub\n    /* \"#utility.yul\":2164:2165   */\n  0x00\n    /* \"#utility.yul\":2153:2162   */\n  dup4\n    /* \"#utility.yul\":2149:2166   */\n  add\n    /* \"#utility.yul\":2142:2189   */\n  mstore\n    /* \"#utility.yul\":2206:2337   */\n  tag_53\n    /* \"#utility.yul\":2332:2336   */\n  dup2\n    /* \"#utility.yul\":2206:2337   */\n  tag_26\n  jump\t// in\ntag_53:\n    /* \"#utility.yul\":2198:2337   */\n  swap1\n  pop\n    /* \"#utility.yul\":1925:2344   */\n  swap2\n  swap1\n  pop\n  jump\t// out\n    /* \"#utility.yul\":2350:2530   */\ntag_27:\n    /* \"#utility.yul\":2398:2475   */\n  0x4e487b7100000000000000000000000000000000000000000000000000000000\n    /* \"#utility.yul\":2395:2396   */\n  0x00\n    /* \"#utility.yul\":2388:2476   */\n  mstore\n    /* \"#utility.yul\":2495:2499   */\n  0x11\n    /* \"#utility.yul\":2492:2493   */\n  0x04\n    /* \"#utility.yul\":2485:2500   */\n  mstore\n    /* \"#utility.yul\":2519:2523   */\n  0x24\n    /* \"#utility.yul\":2516:2517   */\n  0x00\n    /* \"#utility.yul\":2509:2524   */\n  revert\n    /* \"#utility.yul\":2536:2727   */\ntag_14:\n    /* \"#utility.yul\":2576:2579   */\n  0x00\n    /* \"#utility.yul\":2595:2615   */\n  tag_56\n    /* \"#utility.yul\":2613:2614   */\n  dup3\n    /* \"#utility.yul\":2595:2615   */\n  tag_21\n  jump\t// in\ntag_56:\n    /* \"#utility.yul\":2590:2615   */\n  swap2\n  pop\n    /* \"#utility.yul\":2629:2649   */\n  tag_57\n    /* \"#utility.yul\":2647:2648   */\n  dup4\n    /* \"#utility.yul\":2629:2649   */\n  tag_21\n  jump\t// in\ntag_57:\n    /* \"#utility.yul\":2624:2649   */\n  swap3\n  pop\n    /* \"#utility.yul\":2672:2673   */\n  dup3\n    /* \"#utility.yul\":2669:2670   */\n  dup3\n    /* \"#utility.yul\":2665:2674   */\n  add\n    /* \"#utility.yul\":2658:2674   */\n  swap1\n  pop\n    /* \"#utility.yul\":2693:2696   */\n  dup1\n    /* \"#utility.yul\":2690:2691   */\n  dup3\n    /* \"#utility.yul\":2687:2697   */\n  gt\n    /* \"#utility.yul\":2684:2720   */\n  iszero\n  tag_58\n  jumpi\n    /* \"#utility.yul\":2700:2718   */\n  tag_59\n  tag_27\n  jump\t// in\ntag_59:\n    /* \"#utility.yul\":2684:2720   */\ntag_58:\n    /* \"#utility.yul\":2536:2727   */\n  swap3\n  swap2\n  pop\n  pop\n  jump\t// out\n    /* \"#utility.yul\":2733:2859   */\ntag_28:\n    /* \"#utility.yul\":2770:2777   */\n  0x00\n    /* \"#utility.yul\":2810:2852   */\n  0xffffffffffffffffffffffffffffffffffffffff\n    /* \"#utility.yul\":2803:2808   */\n  dup3\n    /* \"#utility.yul\":2799:2853   */\n  and\n    /* \"#utility.yul\":2788:2853   */\n  swap1\n  pop\n    /* \"#utility.yul\":2733:2859   */\n  swap2\n  swap1\n  pop\n  jump\t// out\n    /* \"#utility.yul\":2865:2961   */\ntag_29:\n    /* \"#utility.yul\":2902:2909   */\n  0x00\n    /* \"#utility.yul\":2931:2955   */\n  tag_62\n    /* \"#utility.yul\":2949:2954   */\n  dup3\n    /* \"#utility.yul\":2931:2955   */\n  tag_28\n  jump\t// in\ntag_62:\n    /* \"#utility.yul\":2920:2955   */\n  swap1\n  pop\n    /* \"#utility.yul\":2865:2961   */\n  swap2\n  swap1\n  pop\n  jump\t// out\n    /* \"#utility.yul\":2967:3085   */\ntag_30:\n    /* \"#utility.yul\":3054:3078   */\n  tag_64\n    /* \"#utility.yul\":3072:3077   */\n  dup2\n    /* \"#utility.yul\":3054:3078   */\n  tag_29\n  jump\t// in\ntag_64:\n    /* \"#utility.yul\":3049:3052   */\n  dup3\n    /* \"#utility.yul\":3042:3079   */\n  mstore\n    /* \"#utility.yul\":2967:3085   */\n  pop\n  pop\n  jump\t// out\n    /* \"#utility.yul\":3091:3209   */\ntag_31:\n    /* \"#utility.yul\":3178:3202   */\n  tag_66\n    /* \"#utility.yul\":3196:3201   */\n  dup2\n    /* \"#utility.yul\":3178:3202   */\n  tag_21\n  jump\t// in\ntag_66:\n    /* \"#utility.yul\":3173:3176   */\n  dup3\n    /* \"#utility.yul\":3166:3203   */\n  mstore\n    /* \"#utility.yul\":3091:3209   */\n  pop\n  pop\n  jump\t// out\n    /* \"#utility.yul\":3215:3657   */\ntag_17:\n    /* \"#utility.yul\":3364:3368   */\n  0x00\n    /* \"#utility.yul\":3402:3404   */\n  0x60\n    /* \"#utility.yul\":3391:3400   */\n  dup3\n    /* \"#utility.yul\":3387:3405   */\n  add\n    /* \"#utility.yul\":3379:3405   */\n  swap1\n  pop\n    /* \"#utility.yul\":3415:3486   */\n  tag_68\n    /* \"#utility.yul\":3483:3484   */\n  0x00\n    /* \"#utility.yul\":3472:3481   */\n  dup4\n    /* \"#utility.yul\":3468:3485   */\n  add\n    /* \"#utility.yul\":3459:3465   */\n  dup7\n    /* \"#utility.yul\":3415:3486   */\n  tag_30\n  jump\t// in\ntag_68:\n    /* \"#utility.yul\":3496:3568   */\n  tag_69\n    /* \"#utility.yul\":3564:3566   */\n  0x20\n    /* \"#utility.yul\":3553:3562   */\n  dup4\n    /* \"#utility.yul\":3549:3567   */\n  add\n    /* \"#utility.yul\":3540:3546   */\n  dup6\n    /* \"#utility.yul\":3496:3568   */\n  tag_31\n  jump\t// in\ntag_69:\n    /* \"#utility.yul\":3578:3650   */\n  tag_70\n    /* \"#utility.yul\":3646:3648   */\n  0x40\n    /* \"#utility.yul\":3635:3644   */\n  dup4\n    /* \"#utility.yul\":3631:3649   */\n  add\n    /* \"#utility.yul\":3622:3628   */\n  dup5\n    /* \"#utility.yul\":3578:3650   */\n  tag_31\n  jump\t// in\ntag_70:\n    /* \"#utility.yul\":3215:3657   */\n  swap5\n  swap4\n  pop\n  pop\n  pop\n  pop\n  jump\t// out\n    /* \"aquo/RWA.sol\":60:2776  contract RWA {... */\ntag_8:\n  dataSize(sub_0)\n  dup1\n  dataOffset(sub_0)\n  0x00\n  codecopy\n  0x00\n  return\nstop\n\nsub_0: assembly {\n        /* \"aquo/RWA.sol\":60:2776  contract RWA {... */\n      mstore(0x40, 0x80)\n      callvalue\n      dup1\n      iszero\n      tag_1\n      jumpi\n      0x00\n      dup1\n      revert\n    tag_1:\n      pop\n      jumpi(tag_2, lt(calldatasize, 0x04))\n      shr(0xe0, calldataload(0x00))\n      dup1\n      0x8da5cb5b\n      gt\n      tag_11\n      jumpi\n      dup1\n      0x8da5cb5b\n      eq\n      tag_7\n      jumpi\n      dup1\n      0x923108d9\n      eq\n      tag_8\n      jumpi\n      dup1\n      0xbeabacc8\n      eq\n      tag_9\n      jumpi\n      dup1\n      0xf2fde38b\n      eq\n      tag_10\n      jumpi\n      jump(tag_2)\n    tag_11:\n      dup1\n      0x27e235e3\n      eq\n      tag_3\n      jumpi\n      dup1\n      0x70a08231\n      eq\n      tag_4\n      jumpi\n      dup1\n      0x834253e1\n      eq\n      tag_5\n      jumpi\n      dup1\n      0x876b1566\n      eq\n      tag_6\n      jumpi\n    tag_2:\n      0x00\n      dup1\n      revert\n        /* \"aquo/RWA.sol\":168:208  mapping(address => uint) public balances */\n    tag_3:\n      tag_12\n      0x04\n      dup1\n      calldatasize\n      sub\n      dup2\n      add\n      swap1\n      tag_13\n      swap2\n      swap1\n      tag_14\n      jump\t// in\n    tag_13:\n      tag_15\n      jump\t// in\n    tag_12:\n      mload(0x40)\n      tag_16\n      swap2\n      swap1\n      tag_17\n      jump\t// in\n    tag_16:\n      mload(0x40)\n      dup1\n      swap2\n      sub\n      swap1\n      return\n        /* \"aquo/RWA.sol\":2232:2338  function balanceOf(address _wallet) public view returns (uint) {... */\n    tag_4:\n      tag_18\n      0x04\n      dup1\n      calldatasize\n      sub\n      dup2\n      add\n      swap1\n      tag_19\n      swap2\n      swap1\n      tag_14\n      jump\t// in\n    tag_19:\n      tag_20\n      jump\t// in\n    tag_18:\n      mload(0x40)\n      tag_21\n      swap2\n      swap1\n      tag_17\n      jump\t// in\n    tag_21:\n      mload(0x40)\n      dup1\n      swap2\n      sub\n      swap1\n      return\n        /* \"aquo/RWA.sol\":109:128  uint public rwaCode */\n    tag_5:\n      tag_22\n      tag_23\n      jump\t// in\n    tag_22:\n      mload(0x40)\n      tag_24\n      swap2\n      swap1\n      tag_17\n      jump\t// in\n    tag_24:\n      mload(0x40)\n      dup1\n      swap2\n      sub\n      swap1\n      return\n        /* \"aquo/RWA.sol\":2388:2492  function getTokenHolders() public view returns (address[] memory) {... */\n    tag_6:\n      tag_25\n      tag_26\n      jump\t// in\n    tag_25:\n      mload(0x40)\n      tag_27\n      swap2\n      swap1\n      tag_28\n      jump\t// in\n    tag_27:\n      mload(0x40)\n      dup1\n      swap2\n      sub\n      swap1\n      return\n        /* \"aquo/RWA.sol\":82:102  address public owner */\n    tag_7:\n      tag_29\n      tag_30\n      jump\t// in\n    tag_29:\n      mload(0x40)\n      tag_31\n      swap2\n      swap1\n      tag_32\n      jump\t// in\n    tag_31:\n      mload(0x40)\n      dup1\n      swap2\n      sub\n      swap1\n      return\n        /* \"aquo/RWA.sol\":264:293  address[] public tokenHolders */\n    tag_8:\n      tag_33\n      0x04\n      dup1\n      calldatasize\n      sub\n      dup2\n      add\n      swap1\n      tag_34\n      swap2\n      swap1\n      tag_35\n      jump\t// in\n    tag_34:\n      tag_36\n      jump\t// in\n    tag_33:\n      mload(0x40)\n      tag_37\n      swap2\n      swap1\n      tag_32\n      jump\t// in\n    tag_37:\n      mload(0x40)\n      dup1\n      swap2\n      sub\n      swap1\n      return\n        /* \"aquo/RWA.sol\":1382:2172  function transfer(address _seller, address _buyer, uint _amount) public {... */\n    tag_9:\n      tag_38\n      0x04\n      dup1\n      calldatasize\n      sub\n      dup2\n      add\n      swap1\n      tag_39\n      swap2\n      swap1\n      tag_40\n      jump\t// in\n    tag_39:\n      tag_41\n      jump\t// in\n    tag_38:\n      stop\n        /* \"aquo/RWA.sol\":2548:2773  function transferOwnership(address newOwner) public onlyOwner {... */\n    tag_10:\n      tag_42\n      0x04\n      dup1\n      calldatasize\n      sub\n      dup2\n      add\n      swap1\n      tag_43\n      swap2\n      swap1\n      tag_14\n      jump\t// in\n    tag_43:\n      tag_44\n      jump\t// in\n    tag_42:\n      stop\n        /* \"aquo/RWA.sol\":168:208  mapping(address => uint) public balances */\n    tag_15:\n      mstore(0x20, 0x02)\n      dup1\n      0x00\n      mstore\n      keccak256(0x00, 0x40)\n      0x00\n      swap2\n      pop\n      swap1\n      pop\n      sload\n      dup2\n      jump\t// out\n        /* \"aquo/RWA.sol\":2232:2338  function balanceOf(address _wallet) public view returns (uint) {... */\n    tag_20:\n        /* \"aquo/RWA.sol\":2289:2293  uint */\n      0x00\n        /* \"aquo/RWA.sol\":2313:2321  balances */\n      0x02\n        /* \"aquo/RWA.sol\":2313:2330  balances[_wallet] */\n      0x00\n        /* \"aquo/RWA.sol\":2322:2329  _wallet */\n      dup4\n        /* \"aquo/RWA.sol\":2313:2330  balances[_wallet] */\n      0xffffffffffffffffffffffffffffffffffffffff\n      and\n      0xffffffffffffffffffffffffffffffffffffffff\n      and\n      dup2\n      mstore\n      0x20\n      add\n      swap1\n      dup2\n      mstore\n      0x20\n      add\n      0x00\n      keccak256\n      sload\n        /* \"aquo/RWA.sol\":2306:2330  return balances[_wallet] */\n      swap1\n      pop\n        /* \"aquo/RWA.sol\":2232:2338  function balanceOf(address _wallet) public view returns (uint) {... */\n      swap2\n      swap1\n      pop\n      jump\t// out\n        /* \"aquo/RWA.sol\":109:128  uint public rwaCode */\n    tag_23:\n      sload(0x01)\n      dup2\n      jump\t// out\n        /* \"aquo/RWA.sol\":2388:2492  function getTokenHolders() public view returns (address[] memory) {... */\n    tag_26:\n        /* \"aquo/RWA.sol\":2436:2452  address[] memory */\n      0x60\n        /* \"aquo/RWA.sol\":2472:2484  tokenHolders */\n      0x03\n        /* \"aquo/RWA.sol\":2465:2484  return tokenHolders */\n      dup1\n      sload\n      dup1\n      0x20\n      mul\n      0x20\n      add\n      mload(0x40)\n      swap1\n      dup2\n      add\n      0x40\n      mstore\n      dup1\n      swap3\n      swap2\n      swap1\n      dup2\n      dup2\n      mstore\n      0x20\n      add\n      dup3\n      dup1\n      sload\n      dup1\n      iszero\n      tag_47\n      jumpi\n      0x20\n      mul\n      dup3\n      add\n      swap2\n      swap1\n      0x00\n      mstore\n      keccak256(0x00, 0x20)\n      swap1\n    tag_48:\n      dup2\n      0x00\n      swap1\n      sload\n      swap1\n      0x0100\n      exp\n      swap1\n      div\n      0xffffffffffffffffffffffffffffffffffffffff\n      and\n      0xffffffffffffffffffffffffffffffffffffffff\n      and\n      dup2\n      mstore\n      0x20\n      add\n      swap1\n      0x01\n      add\n      swap1\n      dup1\n      dup4\n      gt\n      tag_48\n      jumpi\n    tag_47:\n      pop\n      pop\n      pop\n      pop\n      pop\n      swap1\n      pop\n        /* \"aquo/RWA.sol\":2388:2492  function getTokenHolders() public view returns (address[] memory) {... */\n      swap1\n      jump\t// out\n        /* \"aquo/RWA.sol\":82:102  address public owner */\n    tag_30:\n      0x00\n      dup1\n      sload\n      swap1\n      0x0100\n      exp\n      swap1\n      div\n      0xffffffffffffffffffffffffffffffffffffffff\n      and\n      dup2\n      jump\t// out\n        /* \"aquo/RWA.sol\":264:293  address[] public tokenHolders */\n    tag_36:\n      0x03\n      dup2\n      dup2\n      sload\n      dup2\n      lt\n      tag_49\n      jumpi\n      0x00\n      dup1\n      revert\n    tag_49:\n      swap1\n      0x00\n      mstore\n      keccak256(0x00, 0x20)\n      add\n      0x00\n      swap2\n      pop\n      sload\n      swap1\n      0x0100\n      exp\n      swap1\n      div\n      0xffffffffffffffffffffffffffffffffffffffff\n      and\n      dup2\n      jump\t// out\n        /* \"aquo/RWA.sol\":1382:2172  function transfer(address _seller, address _buyer, uint _amount) public {... */\n    tag_41:\n        /* \"aquo/RWA.sol\":1492:1493  0 */\n      0x00\n        /* \"aquo/RWA.sol\":1473:1494  _seller != address(0) */\n      0xffffffffffffffffffffffffffffffffffffffff\n      and\n        /* \"aquo/RWA.sol\":1473:1480  _seller */\n      dup4\n        /* \"aquo/RWA.sol\":1473:1494  _seller != address(0) */\n      0xffffffffffffffffffffffffffffffffffffffff\n      and\n      eq\n      iszero\n        /* \"aquo/RWA.sol\":1473:1518  _seller != address(0) && _buyer != address(0) */\n      dup1\n      iszero\n      tag_52\n      jumpi\n      pop\n        /* \"aquo/RWA.sol\":1516:1517  0 */\n      0x00\n        /* \"aquo/RWA.sol\":1498:1518  _buyer != address(0) */\n      0xffffffffffffffffffffffffffffffffffffffff\n      and\n        /* \"aquo/RWA.sol\":1498:1504  _buyer */\n      dup3\n        /* \"aquo/RWA.sol\":1498:1518  _buyer != address(0) */\n      0xffffffffffffffffffffffffffffffffffffffff\n      and\n      eq\n      iszero\n        /* \"aquo/RWA.sol\":1473:1518  _seller != address(0) && _buyer != address(0) */\n    tag_52:\n        /* \"aquo/RWA.sol\":1465:1538  require(_seller != address(0) && _buyer != address(0), \"Invalid address\") */\n      tag_53\n      jumpi\n      mload(0x40)\n      0x08c379a000000000000000000000000000000000000000000000000000000000\n      dup2\n      mstore\n      0x04\n      add\n      tag_54\n      swap1\n      tag_55\n      jump\t// in\n    tag_54:\n      mload(0x40)\n      dup1\n      swap2\n      sub\n      swap1\n      revert\n    tag_53:\n        /* \"aquo/RWA.sol\":1578:1585  _amount */\n      dup1\n        /* \"aquo/RWA.sol\":1557:1565  balances */\n      0x02\n        /* \"aquo/RWA.sol\":1557:1574  balances[_seller] */\n      0x00\n        /* \"aquo/RWA.sol\":1566:1573  _seller */\n      dup6\n        /* \"aquo/RWA.sol\":1557:1574  balances[_seller] */\n      0xffffffffffffffffffffffffffffffffffffffff\n      and\n      0xffffffffffffffffffffffffffffffffffffffff\n      and\n      dup2\n      mstore\n      0x20\n      add\n      swap1\n      dup2\n      mstore\n      0x20\n      add\n      0x00\n      keccak256\n      sload\n        /* \"aquo/RWA.sol\":1557:1585  balances[_seller] >= _amount */\n      lt\n      iszero\n        /* \"aquo/RWA.sol\":1549:1624  require(balances[_seller] >= _amount, \"Seller does not have enough tokens\") */\n      tag_56\n      jumpi\n      mload(0x40)\n      0x08c379a000000000000000000000000000000000000000000000000000000000\n      dup2\n      mstore\n      0x04\n      add\n      tag_57\n      swap1\n      tag_58\n      jump\t// in\n    tag_57:\n      mload(0x40)\n      dup1\n      swap2\n      sub\n      swap1\n      revert\n    tag_56:\n        /* \"aquo/RWA.sol\":1690:1697  _amount */\n      dup1\n        /* \"aquo/RWA.sol\":1669:1677  balances */\n      0x02\n        /* \"aquo/RWA.sol\":1669:1686  balances[_seller] */\n      0x00\n        /* \"aquo/RWA.sol\":1678:1685  _seller */\n      dup6\n        /* \"aquo/RWA.sol\":1669:1686  balances[_seller] */\n      0xffffffffffffffffffffffffffffffffffffffff\n      and\n      0xffffffffffffffffffffffffffffffffffffffff\n      and\n      dup2\n      mstore\n      0x20\n      add\n      swap1\n      dup2\n      mstore\n      0x20\n      add\n      0x00\n      keccak256\n      0x00\n        /* \"aquo/RWA.sol\":1669:1697  balances[_seller] -= _amount */\n      dup3\n      dup3\n      sload\n      tag_59\n      swap2\n      swap1\n      tag_60\n      jump\t// in\n    tag_59:\n      swap3\n      pop\n      pop\n      dup2\n      swap1\n      sstore\n      pop\n        /* \"aquo/RWA.sol\":1728:1735  _amount */\n      dup1\n        /* \"aquo/RWA.sol\":1708:1716  balances */\n      0x02\n        /* \"aquo/RWA.sol\":1708:1724  balances[_buyer] */\n      0x00\n        /* \"aquo/RWA.sol\":1717:1723  _buyer */\n      dup5\n        /* \"aquo/RWA.sol\":1708:1724  balances[_buyer] */\n      0xffffffffffffffffffffffffffffffffffffffff\n      and\n      0xffffffffffffffffffffffffffffffffffffffff\n      and\n      dup2\n      mstore\n      0x20\n      add\n      swap1\n      dup2\n      mstore\n      0x20\n      add\n      0x00\n      keccak256\n      0x00\n        /* \"aquo/RWA.sol\":1708:1735  balances[_buyer] += _amount */\n      dup3\n      dup3\n      sload\n      tag_61\n      swap2\n      swap1\n      tag_62\n      jump\t// in\n    tag_61:\n      swap3\n      pop\n      pop\n      dup2\n      swap1\n      sstore\n      pop\n        /* \"aquo/RWA.sol\":1811:1829  bool isTokenHolder */\n      0x00\n        /* \"aquo/RWA.sol\":1853:1859  uint i */\n      dup1\n        /* \"aquo/RWA.sol\":1848:2031  for (uint i = 0; i < tokenHolders.length; i++) {... */\n    tag_63:\n        /* \"aquo/RWA.sol\":1869:1881  tokenHolders */\n      0x03\n        /* \"aquo/RWA.sol\":1869:1888  tokenHolders.length */\n      dup1\n      sload\n      swap1\n      pop\n        /* \"aquo/RWA.sol\":1865:1866  i */\n      dup2\n        /* \"aquo/RWA.sol\":1865:1888  i < tokenHolders.length */\n      lt\n        /* \"aquo/RWA.sol\":1848:2031  for (uint i = 0; i < tokenHolders.length; i++) {... */\n      iszero\n      tag_64\n      jumpi\n        /* \"aquo/RWA.sol\":1933:1939  _buyer */\n      dup4\n        /* \"aquo/RWA.sol\":1914:1939  tokenHolders[i] == _buyer */\n      0xffffffffffffffffffffffffffffffffffffffff\n      and\n        /* \"aquo/RWA.sol\":1914:1926  tokenHolders */\n      0x03\n        /* \"aquo/RWA.sol\":1927:1928  i */\n      dup3\n        /* \"aquo/RWA.sol\":1914:1929  tokenHolders[i] */\n      dup2\n      sload\n      dup2\n      lt\n      tag_66\n      jumpi\n      tag_67\n      tag_68\n      jump\t// in\n    tag_67:\n    tag_66:\n      swap1\n      0x00\n      mstore\n      keccak256(0x00, 0x20)\n      add\n      0x00\n      swap1\n      sload\n      swap1\n      0x0100\n      exp\n      swap1\n      div\n      0xffffffffffffffffffffffffffffffffffffffff\n      and\n        /* \"aquo/RWA.sol\":1914:1939  tokenHolders[i] == _buyer */\n      0xffffffffffffffffffffffffffffffffffffffff\n      and\n      sub\n        /* \"aquo/RWA.sol\":1910:2020  if (tokenHolders[i] == _buyer) {... */\n      tag_70\n      jumpi\n        /* \"aquo/RWA.sol\":1976:1980  true */\n      0x01\n        /* \"aquo/RWA.sol\":1960:1980  isTokenHolder = true */\n      swap2\n      pop\n        /* \"aquo/RWA.sol\":1999:2004  break */\n      jump(tag_64)\n        /* \"aquo/RWA.sol\":1910:2020  if (tokenHolders[i] == _buyer) {... */\n    tag_70:\n        /* \"aquo/RWA.sol\":1890:1893  i++ */\n      dup1\n      dup1\n      0x01\n      add\n      swap2\n      pop\n      pop\n        /* \"aquo/RWA.sol\":1848:2031  for (uint i = 0; i < tokenHolders.length; i++) {... */\n      jump(tag_63)\n    tag_64:\n      pop\n        /* \"aquo/RWA.sol\":2046:2059  isTokenHolder */\n      dup1\n        /* \"aquo/RWA.sol\":2041:2113  if (!isTokenHolder) {... */\n      tag_71\n      jumpi\n        /* \"aquo/RWA.sol\":2076:2088  tokenHolders */\n      0x03\n        /* \"aquo/RWA.sol\":2094:2100  _buyer */\n      dup4\n        /* \"aquo/RWA.sol\":2076:2101  tokenHolders.push(_buyer) */\n      swap1\n      dup1\n      0x01\n      dup2\n      sload\n      add\n      dup1\n      dup3\n      sstore\n      dup1\n      swap2\n      pop\n      pop\n      0x01\n      swap1\n      sub\n      swap1\n      0x00\n      mstore\n      keccak256(0x00, 0x20)\n      add\n      0x00\n      swap1\n      swap2\n      swap1\n      swap2\n      swap1\n      swap2\n      0x0100\n      exp\n      dup2\n      sload\n      dup2\n      0xffffffffffffffffffffffffffffffffffffffff\n      mul\n      not\n      and\n      swap1\n      dup4\n      0xffffffffffffffffffffffffffffffffffffffff\n      and\n      mul\n      or\n      swap1\n      sstore\n      pop\n        /* \"aquo/RWA.sol\":2041:2113  if (!isTokenHolder) {... */\n    tag_71:\n        /* \"aquo/RWA.sol\":2148:2154  _buyer */\n      dup3\n        /* \"aquo/RWA.sol\":2130:2164  Transfer(_seller, _buyer, _amount) */\n      0xffffffffffffffffffffffffffffffffffffffff\n      and\n        /* \"aquo/RWA.sol\":2139:2146  _seller */\n      dup5\n        /* \"aquo/RWA.sol\":2130:2164  Transfer(_seller, _buyer, _amount) */\n      0xffffffffffffffffffffffffffffffffffffffff\n      and\n      0xddf252ad1be2c89b69c2b068fc378daa952ba7f163c4a11628f55a4df523b3ef\n        /* \"aquo/RWA.sol\":2156:2163  _amount */\n      dup5\n        /* \"aquo/RWA.sol\":2130:2164  Transfer(_seller, _buyer, _amount) */\n      mload(0x40)\n      tag_73\n      swap2\n      swap1\n      tag_17\n      jump\t// in\n    tag_73:\n      mload(0x40)\n      dup1\n      swap2\n      sub\n      swap1\n      log3\n        /* \"aquo/RWA.sol\":1454:2172  {... */\n      pop\n        /* \"aquo/RWA.sol\":1382:2172  function transfer(address _seller, address _buyer, uint _amount) public {... */\n      pop\n      pop\n      pop\n      jump\t// out\n        /* \"aquo/RWA.sol\":2548:2773  function transferOwnership(address newOwner) public onlyOwner {... */\n    tag_44:\n        /* \"aquo/RWA.sol\":910:915  owner */\n      0x00\n      dup1\n      sload\n      swap1\n      0x0100\n      exp\n      swap1\n      div\n      0xffffffffffffffffffffffffffffffffffffffff\n      and\n        /* \"aquo/RWA.sol\":896:915  msg.sender == owner */\n      0xffffffffffffffffffffffffffffffffffffffff\n      and\n        /* \"aquo/RWA.sol\":896:906  msg.sender */\n      caller\n        /* \"aquo/RWA.sol\":896:915  msg.sender == owner */\n      0xffffffffffffffffffffffffffffffffffffffff\n      and\n      eq\n        /* \"aquo/RWA.sol\":888:943  require(msg.sender == owner, \"Caller is not the owner\") */\n      tag_75\n      jumpi\n      mload(0x40)\n      0x08c379a000000000000000000000000000000000000000000000000000000000\n      dup2\n      mstore\n      0x04\n      add\n      tag_76\n      swap1\n      tag_77\n      jump\t// in\n    tag_76:\n      mload(0x40)\n      dup1\n      swap2\n      sub\n      swap1\n      revert\n    tag_75:\n        /* \"aquo/RWA.sol\":2649:2650  0 */\n      0x00\n        /* \"aquo/RWA.sol\":2629:2651  newOwner != address(0) */\n      0xffffffffffffffffffffffffffffffffffffffff\n      and\n        /* \"aquo/RWA.sol\":2629:2637  newOwner */\n      dup2\n        /* \"aquo/RWA.sol\":2629:2651  newOwner != address(0) */\n      0xffffffffffffffffffffffffffffffffffffffff\n      and\n      sub\n        /* \"aquo/RWA.sol\":2621:2685  require(newOwner != address(0), \"New owner is the zero address\") */\n      tag_79\n      jumpi\n      mload(0x40)\n      0x08c379a000000000000000000000000000000000000000000000000000000000\n      dup2\n      mstore\n      0x04\n      add\n      tag_80\n      swap1\n      tag_81\n      jump\t// in\n    tag_80:\n      mload(0x40)\n      dup1\n      swap2\n      sub\n      swap1\n      revert\n    tag_79:\n        /* \"aquo/RWA.sol\":2729:2737  newOwner */\n      dup1\n        /* \"aquo/RWA.sol\":2701:2738  OwnershipTransferred(owner, newOwner) */\n      0xffffffffffffffffffffffffffffffffffffffff\n      and\n        /* \"aquo/RWA.sol\":2722:2727  owner */\n      0x00\n      dup1\n      sload\n      swap1\n      0x0100\n      exp\n      swap1\n      div\n      0xffffffffffffffffffffffffffffffffffffffff\n      and\n        /* \"aquo/RWA.sol\":2701:2738  OwnershipTransferred(owner, newOwner) */\n      0xffffffffffffffffffffffffffffffffffffffff\n      and\n      0x8be0079c531659141344cd1fd0a4f28419497f9722a3daafe3b4186f6b6457e0\n      mload(0x40)\n      mload(0x40)\n      dup1\n      swap2\n      sub\n      swap1\n      log3\n        /* \"aquo/RWA.sol\":2757:2765  newOwner */\n      dup1\n        /* \"aquo/RWA.sol\":2749:2754  owner */\n      0x00\n      dup1\n        /* \"aquo/RWA.sol\":2749:2765  owner = newOwner */\n      0x0100\n      exp\n      dup2\n      sload\n      dup2\n      0xffffffffffffffffffffffffffffffffffffffff\n      mul\n      not\n      and\n      swap1\n      dup4\n      0xffffffffffffffffffffffffffffffffffffffff\n      and\n      mul\n      or\n      swap1\n      sstore\n      pop\n        /* \"aquo/RWA.sol\":2548:2773  function transferOwnership(address newOwner) public onlyOwner {... */\n      pop\n      jump\t// out\n        /* \"#utility.yul\":88:205   */\n    tag_83:\n        /* \"#utility.yul\":197:198   */\n      0x00\n        /* \"#utility.yul\":194:195   */\n      dup1\n        /* \"#utility.yul\":187:199   */\n      revert\n        /* \"#utility.yul\":334:460   */\n    tag_85:\n        /* \"#utility.yul\":371:378   */\n      0x00\n        /* \"#utility.yul\":411:453   */\n      0xffffffffffffffffffffffffffffffffffffffff\n        /* \"#utility.yul\":404:409   */\n      dup3\n        /* \"#utility.yul\":400:454   */\n      and\n        /* \"#utility.yul\":389:454   */\n      swap1\n      pop\n        /* \"#utility.yul\":334:460   */\n      swap2\n      swap1\n      pop\n      jump\t// out\n        /* \"#utility.yul\":466:562   */\n    tag_86:\n        /* \"#utility.yul\":503:510   */\n      0x00\n        /* \"#utility.yul\":532:556   */\n      tag_117\n        /* \"#utility.yul\":550:555   */\n      dup3\n        /* \"#utility.yul\":532:556   */\n      tag_85\n      jump\t// in\n    tag_117:\n        /* \"#utility.yul\":521:556   */\n      swap1\n      pop\n        /* \"#utility.yul\":466:562   */\n      swap2\n      swap1\n      pop\n      jump\t// out\n        /* \"#utility.yul\":568:690   */\n    tag_87:\n        /* \"#utility.yul\":641:665   */\n      tag_119\n        /* \"#utility.yul\":659:664   */\n      dup2\n        /* \"#utility.yul\":641:665   */\n      tag_86\n      jump\t// in\n    tag_119:\n        /* \"#utility.yul\":634:639   */\n      dup2\n        /* \"#utility.yul\":631:666   */\n      eq\n        /* \"#utility.yul\":621:684   */\n      tag_120\n      jumpi\n        /* \"#utility.yul\":680:681   */\n      0x00\n        /* \"#utility.yul\":677:678   */\n      dup1\n        /* \"#utility.yul\":670:682   */\n      revert\n        /* \"#utility.yul\":621:684   */\n    tag_120:\n        /* \"#utility.yul\":568:690   */\n      pop\n      jump\t// out\n        /* \"#utility.yul\":696:835   */\n    tag_88:\n        /* \"#utility.yul\":742:747   */\n      0x00\n        /* \"#utility.yul\":780:786   */\n      dup2\n        /* \"#utility.yul\":767:787   */\n      calldataload\n        /* \"#utility.yul\":758:787   */\n      swap1\n      pop\n        /* \"#utility.yul\":796:829   */\n      tag_122\n        /* \"#utility.yul\":823:828   */\n      dup2\n        /* \"#utility.yul\":796:829   */\n      tag_87\n      jump\t// in\n    tag_122:\n        /* \"#utility.yul\":696:835   */\n      swap3\n      swap2\n      pop\n      pop\n      jump\t// out\n        /* \"#utility.yul\":841:1170   */\n    tag_14:\n        /* \"#utility.yul\":900:906   */\n      0x00\n        /* \"#utility.yul\":949:951   */\n      0x20\n        /* \"#utility.yul\":937:946   */\n      dup3\n        /* \"#utility.yul\":928:935   */\n      dup5\n        /* \"#utility.yul\":924:947   */\n      sub\n        /* \"#utility.yul\":920:952   */\n      slt\n        /* \"#utility.yul\":917:1036   */\n      iszero\n      tag_124\n      jumpi\n        /* \"#utility.yul\":955:1034   */\n      tag_125\n      tag_83\n      jump\t// in\n    tag_125:\n        /* \"#utility.yul\":917:1036   */\n    tag_124:\n        /* \"#utility.yul\":1075:1076   */\n      0x00\n        /* \"#utility.yul\":1100:1153   */\n      tag_126\n        /* \"#utility.yul\":1145:1152   */\n      dup5\n        /* \"#utility.yul\":1136:1142   */\n      dup3\n        /* \"#utility.yul\":1125:1134   */\n      dup6\n        /* \"#utility.yul\":1121:1143   */\n      add\n        /* \"#utility.yul\":1100:1153   */\n      tag_88\n      jump\t// in\n    tag_126:\n        /* \"#utility.yul\":1090:1153   */\n      swap2\n      pop\n        /* \"#utility.yul\":1046:1163   */\n      pop\n        /* \"#utility.yul\":841:1170   */\n      swap3\n      swap2\n      pop\n      pop\n      jump\t// out\n        /* \"#utility.yul\":1176:1253   */\n    tag_89:\n        /* \"#utility.yul\":1213:1220   */\n      0x00\n        /* \"#utility.yul\":1242:1247   */\n      dup2\n        /* \"#utility.yul\":1231:1247   */\n      swap1\n      pop\n        /* \"#utility.yul\":1176:1253   */\n      swap2\n      swap1\n      pop\n      jump\t// out\n        /* \"#utility.yul\":1259:1377   */\n    tag_90:\n        /* \"#utility.yul\":1346:1370   */\n      tag_129\n        /* \"#utility.yul\":1364:1369   */\n      dup2\n        /* \"#utility.yul\":1346:1370   */\n      tag_89\n      jump\t// in\n    tag_129:\n        /* \"#utility.yul\":1341:1344   */\n      dup3\n        /* \"#utility.yul\":1334:1371   */\n      mstore\n        /* \"#utility.yul\":1259:1377   */\n      pop\n      pop\n      jump\t// out\n        /* \"#utility.yul\":1383:1605   */\n    tag_17:\n        /* \"#utility.yul\":1476:1480   */\n      0x00\n        /* \"#utility.yul\":1514:1516   */\n      0x20\n        /* \"#utility.yul\":1503:1512   */\n      dup3\n        /* \"#utility.yul\":1499:1517   */\n      add\n        /* \"#utility.yul\":1491:1517   */\n      swap1\n      pop\n        /* \"#utility.yul\":1527:1598   */\n      tag_131\n        /* \"#utility.yul\":1595:1596   */\n      0x00\n        /* \"#utility.yul\":1584:1593   */\n      dup4\n        /* \"#utility.yul\":1580:1597   */\n      add\n        /* \"#utility.yul\":1571:1577   */\n      dup5\n        /* \"#utility.yul\":1527:1598   */\n      tag_90\n      jump\t// in\n    tag_131:\n        /* \"#utility.yul\":1383:1605   */\n      swap3\n      swap2\n      pop\n      pop\n      jump\t// out\n        /* \"#utility.yul\":1611:1725   */\n    tag_91:\n        /* \"#utility.yul\":1678:1684   */\n      0x00\n        /* \"#utility.yul\":1712:1717   */\n      dup2\n        /* \"#utility.yul\":1706:1718   */\n      mload\n        /* \"#utility.yul\":1696:1718   */\n      swap1\n      pop\n        /* \"#utility.yul\":1611:1725   */\n      swap2\n      swap1\n      pop\n      jump\t// out\n        /* \"#utility.yul\":1731:1915   */\n    tag_92:\n        /* \"#utility.yul\":1830:1841   */\n      0x00\n        /* \"#utility.yul\":1864:1870   */\n      dup3\n        /* \"#utility.yul\":1859:1862   */\n      dup3\n        /* \"#utility.yul\":1852:1871   */\n      mstore\n        /* \"#utility.yul\":1904:1908   */\n      0x20\n        /* \"#utility.yul\":1899:1902   */\n      dup3\n        /* \"#utility.yul\":1895:1909   */\n      add\n        /* \"#utility.yul\":1880:1909   */\n      swap1\n      pop\n        /* \"#utility.yul\":1731:1915   */\n      swap3\n      swap2\n      pop\n      pop\n      jump\t// out\n        /* \"#utility.yul\":1921:2053   */\n    tag_93:\n        /* \"#utility.yul\":1988:1992   */\n      0x00\n        /* \"#utility.yul\":2011:2014   */\n      dup2\n        /* \"#utility.yul\":2003:2014   */\n      swap1\n      pop\n        /* \"#utility.yul\":2041:2045   */\n      0x20\n        /* \"#utility.yul\":2036:2039   */\n      dup3\n        /* \"#utility.yul\":2032:2046   */\n      add\n        /* \"#utility.yul\":2024:2046   */\n      swap1\n      pop\n        /* \"#utility.yul\":1921:2053   */\n      swap2\n      swap1\n      pop\n      jump\t// out\n        /* \"#utility.yul\":2059:2167   */\n    tag_94:\n        /* \"#utility.yul\":2136:2160   */\n      tag_136\n        /* \"#utility.yul\":2154:2159   */\n      dup2\n        /* \"#utility.yul\":2136:2160   */\n      tag_86\n      jump\t// in\n    tag_136:\n        /* \"#utility.yul\":2131:2134   */\n      dup3\n        /* \"#utility.yul\":2124:2161   */\n      mstore\n        /* \"#utility.yul\":2059:2167   */\n      pop\n      pop\n      jump\t// out\n        /* \"#utility.yul\":2173:2352   */\n    tag_95:\n        /* \"#utility.yul\":2242:2252   */\n      0x00\n        /* \"#utility.yul\":2263:2309   */\n      tag_138\n        /* \"#utility.yul\":2305:2308   */\n      dup4\n        /* \"#utility.yul\":2297:2303   */\n      dup4\n        /* \"#utility.yul\":2263:2309   */\n      tag_94\n      jump\t// in\n    tag_138:\n        /* \"#utility.yul\":2341:2345   */\n      0x20\n        /* \"#utility.yul\":2336:2339   */\n      dup4\n        /* \"#utility.yul\":2332:2346   */\n      add\n        /* \"#utility.yul\":2318:2346   */\n      swap1\n      pop\n        /* \"#utility.yul\":2173:2352   */\n      swap3\n      swap2\n      pop\n      pop\n      jump\t// out\n        /* \"#utility.yul\":2358:2471   */\n    tag_96:\n        /* \"#utility.yul\":2428:2432   */\n      0x00\n        /* \"#utility.yul\":2460:2464   */\n      0x20\n        /* \"#utility.yul\":2455:2458   */\n      dup3\n        /* \"#utility.yul\":2451:2465   */\n      add\n        /* \"#utility.yul\":2443:2465   */\n      swap1\n      pop\n        /* \"#utility.yul\":2358:2471   */\n      swap2\n      swap1\n      pop\n      jump\t// out\n        /* \"#utility.yul\":2507:3239   */\n    tag_97:\n        /* \"#utility.yul\":2626:2629   */\n      0x00\n        /* \"#utility.yul\":2655:2709   */\n      tag_141\n        /* \"#utility.yul\":2703:2708   */\n      dup3\n        /* \"#utility.yul\":2655:2709   */\n      tag_91\n      jump\t// in\n    tag_141:\n        /* \"#utility.yul\":2725:2811   */\n      tag_142\n        /* \"#utility.yul\":2804:2810   */\n      dup2\n        /* \"#utility.yul\":2799:2802   */\n      dup6\n        /* \"#utility.yul\":2725:2811   */\n      tag_92\n      jump\t// in\n    tag_142:\n        /* \"#utility.yul\":2718:2811   */\n      swap4\n      pop\n        /* \"#utility.yul\":2835:2891   */\n      tag_143\n        /* \"#utility.yul\":2885:2890   */\n      dup4\n        /* \"#utility.yul\":2835:2891   */\n      tag_93\n      jump\t// in\n    tag_143:\n        /* \"#utility.yul\":2914:2921   */\n      dup1\n        /* \"#utility.yul\":2945:2946   */\n      0x00\n        /* \"#utility.yul\":2930:3214   */\n    tag_144:\n        /* \"#utility.yul\":2955:2961   */\n      dup4\n        /* \"#utility.yul\":2952:2953   */\n      dup2\n        /* \"#utility.yul\":2949:2962   */\n      lt\n        /* \"#utility.yul\":2930:3214   */\n      iszero\n      tag_146\n      jumpi\n        /* \"#utility.yul\":3031:3037   */\n      dup2\n        /* \"#utility.yul\":3025:3038   */\n      mload\n        /* \"#utility.yul\":3058:3121   */\n      tag_147\n        /* \"#utility.yul\":3117:3120   */\n      dup9\n        /* \"#utility.yul\":3102:3115   */\n      dup3\n        /* \"#utility.yul\":3058:3121   */\n      tag_95\n      jump\t// in\n    tag_147:\n        /* \"#utility.yul\":3051:3121   */\n      swap8\n      pop\n        /* \"#utility.yul\":3144:3204   */\n      tag_148\n        /* \"#utility.yul\":3197:3203   */\n      dup4\n        /* \"#utility.yul\":3144:3204   */\n      tag_96\n      jump\t// in\n    tag_148:\n        /* \"#utility.yul\":3134:3204   */\n      swap3\n      pop\n        /* \"#utility.yul\":2990:3214   */\n      pop\n        /* \"#utility.yul\":2977:2978   */\n      0x01\n        /* \"#utility.yul\":2974:2975   */\n      dup2\n        /* \"#utility.yul\":2970:2979   */\n      add\n        /* \"#utility.yul\":2965:2979   */\n      swap1\n      pop\n        /* \"#utility.yul\":2930:3214   */\n      jump(tag_144)\n    tag_146:\n        /* \"#utility.yul\":2934:2948   */\n      pop\n        /* \"#utility.yul\":3230:3233   */\n      dup6\n        /* \"#utility.yul\":3223:3233   */\n      swap4\n      pop\n        /* \"#utility.yul\":2631:3239   */\n      pop\n      pop\n      pop\n        /* \"#utility.yul\":2507:3239   */\n      swap3\n      swap2\n      pop\n      pop\n      jump\t// out\n        /* \"#utility.yul\":3245:3618   */\n    tag_28:\n        /* \"#utility.yul\":3388:3392   */\n      0x00\n        /* \"#utility.yul\":3426:3428   */\n      0x20\n        /* \"#utility.yul\":3415:3424   */\n      dup3\n        /* \"#utility.yul\":3411:3429   */\n      add\n        /* \"#utility.yul\":3403:3429   */\n      swap1\n      pop\n        /* \"#utility.yul\":3475:3484   */\n      dup2\n        /* \"#utility.yul\":3469:3473   */\n      dup2\n        /* \"#utility.yul\":3465:3485   */\n      sub\n        /* \"#utility.yul\":3461:3462   */\n      0x00\n        /* \"#utility.yul\":3450:3459   */\n      dup4\n        /* \"#utility.yul\":3446:3463   */\n      add\n        /* \"#utility.yul\":3439:3486   */\n      mstore\n        /* \"#utility.yul\":3503:3611   */\n      tag_150\n        /* \"#utility.yul\":3606:3610   */\n      dup2\n        /* \"#utility.yul\":3597:3603   */\n      dup5\n        /* \"#utility.yul\":3503:3611   */\n      tag_97\n      jump\t// in\n    tag_150:\n        /* \"#utility.yul\":3495:3611   */\n      swap1\n      pop\n        /* \"#utility.yul\":3245:3618   */\n      swap3\n      swap2\n      pop\n      pop\n      jump\t// out\n        /* \"#utility.yul\":3624:3742   */\n    tag_98:\n        /* \"#utility.yul\":3711:3735   */\n      tag_152\n        /* \"#utility.yul\":3729:3734   */\n      dup2\n        /* \"#utility.yul\":3711:3735   */\n      tag_86\n      jump\t// in\n    tag_152:\n        /* \"#utility.yul\":3706:3709   */\n      dup3\n        /* \"#utility.yul\":3699:3736   */\n      mstore\n        /* \"#utility.yul\":3624:3742   */\n      pop\n      pop\n      jump\t// out\n        /* \"#utility.yul\":3748:3970   */\n    tag_32:\n        /* \"#utility.yul\":3841:3845   */\n      0x00\n        /* \"#utility.yul\":3879:3881   */\n      0x20\n        /* \"#utility.yul\":3868:3877   */\n      dup3\n        /* \"#utility.yul\":3864:3882   */\n      add\n        /* \"#utility.yul\":3856:3882   */\n      swap1\n      pop\n        /* \"#utility.yul\":3892:3963   */\n      tag_154\n        /* \"#utility.yul\":3960:3961   */\n      0x00\n        /* \"#utility.yul\":3949:3958   */\n      dup4\n        /* \"#utility.yul\":3945:3962   */\n      add\n        /* \"#utility.yul\":3936:3942   */\n      dup5\n        /* \"#utility.yul\":3892:3963   */\n      tag_98\n      jump\t// in\n    tag_154:\n        /* \"#utility.yul\":3748:3970   */\n      swap3\n      swap2\n      pop\n      pop\n      jump\t// out\n        /* \"#utility.yul\":3976:4098   */\n    tag_99:\n        /* \"#utility.yul\":4049:4073   */\n      tag_156\n        /* \"#utility.yul\":4067:4072   */\n      dup2\n        /* \"#utility.yul\":4049:4073   */\n      tag_89\n      jump\t// in\n    tag_156:\n        /* \"#utility.yul\":4042:4047   */\n      dup2\n        /* \"#utility.yul\":4039:4074   */\n      eq\n        /* \"#utility.yul\":4029:4092   */\n      tag_157\n      jumpi\n        /* \"#utility.yul\":4088:4089   */\n      0x00\n        /* \"#utility.yul\":4085:4086   */\n      dup1\n        /* \"#utility.yul\":4078:4090   */\n      revert\n        /* \"#utility.yul\":4029:4092   */\n    tag_157:\n        /* \"#utility.yul\":3976:4098   */\n      pop\n      jump\t// out\n        /* \"#utility.yul\":4104:4243   */\n    tag_100:\n        /* \"#utility.yul\":4150:4155   */\n      0x00\n        /* \"#utility.yul\":4188:4194   */\n      dup2\n        /* \"#utility.yul\":4175:4195   */\n      calldataload\n        /* \"#utility.yul\":4166:4195   */\n      swap1\n      pop\n        /* \"#utility.yul\":4204:4237   */\n      tag_159\n        /* \"#utility.yul\":4231:4236   */\n      dup2\n        /* \"#utility.yul\":4204:4237   */\n      tag_99\n      jump\t// in\n    tag_159:\n        /* \"#utility.yul\":4104:4243   */\n      swap3\n      swap2\n      pop\n      pop\n      jump\t// out\n        /* \"#utility.yul\":4249:4578   */\n    tag_35:\n        /* \"#utility.yul\":4308:4314   */\n      0x00\n        /* \"#utility.yul\":4357:4359   */\n      0x20\n        /* \"#utility.yul\":4345:4354   */\n      dup3\n        /* \"#utility.yul\":4336:4343   */\n      dup5\n        /* \"#utility.yul\":4332:4355   */\n      sub\n        /* \"#utility.yul\":4328:4360   */\n      slt\n        /* \"#utility.yul\":4325:4444   */\n      iszero\n      tag_161\n      jumpi\n        /* \"#utility.yul\":4363:4442   */\n      tag_162\n      tag_83\n      jump\t// in\n    tag_162:\n        /* \"#utility.yul\":4325:4444   */\n    tag_161:\n        /* \"#utility.yul\":4483:4484   */\n      0x00\n        /* \"#utility.yul\":4508:4561   */\n      tag_163\n        /* \"#utility.yul\":4553:4560   */\n      dup5\n        /* \"#utility.yul\":4544:4550   */\n      dup3\n        /* \"#utility.yul\":4533:4542   */\n      dup6\n        /* \"#utility.yul\":4529:4551   */\n      add\n        /* \"#utility.yul\":4508:4561   */\n      tag_100\n      jump\t// in\n    tag_163:\n        /* \"#utility.yul\":4498:4561   */\n      swap2\n      pop\n        /* \"#utility.yul\":4454:4571   */\n      pop\n        /* \"#utility.yul\":4249:4578   */\n      swap3\n      swap2\n      pop\n      pop\n      jump\t// out\n        /* \"#utility.yul\":4584:5203   */\n    tag_40:\n        /* \"#utility.yul\":4661:4667   */\n      0x00\n        /* \"#utility.yul\":4669:4675   */\n      dup1\n        /* \"#utility.yul\":4677:4683   */\n      0x00\n        /* \"#utility.yul\":4726:4728   */\n      0x60\n        /* \"#utility.yul\":4714:4723   */\n      dup5\n        /* \"#utility.yul\":4705:4712   */\n      dup7\n        /* \"#utility.yul\":4701:4724   */\n      sub\n        /* \"#utility.yul\":4697:4729   */\n      slt\n        /* \"#utility.yul\":4694:4813   */\n      iszero\n      tag_165\n      jumpi\n        /* \"#utility.yul\":4732:4811   */\n      tag_166\n      tag_83\n      jump\t// in\n    tag_166:\n        /* \"#utility.yul\":4694:4813   */\n    tag_165:\n        /* \"#utility.yul\":4852:4853   */\n      0x00\n        /* \"#utility.yul\":4877:4930   */\n      tag_167\n        /* \"#utility.yul\":4922:4929   */\n      dup7\n        /* \"#utility.yul\":4913:4919   */\n      dup3\n        /* \"#utility.yul\":4902:4911   */\n      dup8\n        /* \"#utility.yul\":4898:4920   */\n      add\n        /* \"#utility.yul\":4877:4930   */\n      tag_88\n      jump\t// in\n    tag_167:\n        /* \"#utility.yul\":4867:4930   */\n      swap4\n      pop\n        /* \"#utility.yul\":4823:4940   */\n      pop\n        /* \"#utility.yul\":4979:4981   */\n      0x20\n        /* \"#utility.yul\":5005:5058   */\n      tag_168\n        /* \"#utility.yul\":5050:5057   */\n      dup7\n        /* \"#utility.yul\":5041:5047   */\n      dup3\n        /* \"#utility.yul\":5030:5039   */\n      dup8\n        /* \"#utility.yul\":5026:5048   */\n      add\n        /* \"#utility.yul\":5005:5058   */\n      tag_88\n      jump\t// in\n    tag_168:\n        /* \"#utility.yul\":4995:5058   */\n      swap3\n      pop\n        /* \"#utility.yul\":4950:5068   */\n      pop\n        /* \"#utility.yul\":5107:5109   */\n      0x40\n        /* \"#utility.yul\":5133:5186   */\n      tag_169\n        /* \"#utility.yul\":5178:5185   */\n      dup7\n        /* \"#utility.yul\":5169:5175   */\n      dup3\n        /* \"#utility.yul\":5158:5167   */\n      dup8\n        /* \"#utility.yul\":5154:5176   */\n      add\n        /* \"#utility.yul\":5133:5186   */\n      tag_100\n      jump\t// in\n    tag_169:\n        /* \"#utility.yul\":5123:5186   */\n      swap2\n      pop\n        /* \"#utility.yul\":5078:5196   */\n      pop\n        /* \"#utility.yul\":4584:5203   */\n      swap3\n      pop\n      swap3\n      pop\n      swap3\n      jump\t// out\n        /* \"#utility.yul\":5209:5378   */\n    tag_101:\n        /* \"#utility.yul\":5293:5304   */\n      0x00\n        /* \"#utility.yul\":5327:5333   */\n      dup3\n        /* \"#utility.yul\":5322:5325   */\n      dup3\n        /* \"#utility.yul\":5315:5334   */\n      mstore\n        /* \"#utility.yul\":5367:5371   */\n      0x20\n        /* \"#utility.yul\":5362:5365   */\n      dup3\n        /* \"#utility.yul\":5358:5372   */\n      add\n        /* \"#utility.yul\":5343:5372   */\n      swap1\n      pop\n        /* \"#utility.yul\":5209:5378   */\n      swap3\n      swap2\n      pop\n      pop\n      jump\t// out\n        /* \"#utility.yul\":5384:5549   */\n    tag_102:\n        /* \"#utility.yul\":5524:5541   */\n      0x496e76616c696420616464726573730000000000000000000000000000000000\n        /* \"#utility.yul\":5520:5521   */\n      0x00\n        /* \"#utility.yul\":5512:5518   */\n      dup3\n        /* \"#utility.yul\":5508:5522   */\n      add\n        /* \"#utility.yul\":5501:5542   */\n      mstore\n        /* \"#utility.yul\":5384:5549   */\n      pop\n      jump\t// out\n        /* \"#utility.yul\":5555:5921   */\n    tag_103:\n        /* \"#utility.yul\":5697:5700   */\n      0x00\n        /* \"#utility.yul\":5718:5785   */\n      tag_173\n        /* \"#utility.yul\":5782:5784   */\n      0x0f\n        /* \"#utility.yul\":5777:5780   */\n      dup4\n        /* \"#utility.yul\":5718:5785   */\n      tag_101\n      jump\t// in\n    tag_173:\n        /* \"#utility.yul\":5711:5785   */\n      swap2\n      pop\n        /* \"#utility.yul\":5794:5887   */\n      tag_174\n        /* \"#utility.yul\":5883:5886   */\n      dup3\n        /* \"#utility.yul\":5794:5887   */\n      tag_102\n      jump\t// in\n    tag_174:\n        /* \"#utility.yul\":5912:5914   */\n      0x20\n        /* \"#utility.yul\":5907:5910   */\n      dup3\n        /* \"#utility.yul\":5903:5915   */\n      add\n        /* \"#utility.yul\":5896:5915   */\n      swap1\n      pop\n        /* \"#utility.yul\":5555:5921   */\n      swap2\n      swap1\n      pop\n      jump\t// out\n        /* \"#utility.yul\":5927:6346   */\n    tag_55:\n        /* \"#utility.yul\":6093:6097   */\n      0x00\n        /* \"#utility.yul\":6131:6133   */\n      0x20\n        /* \"#utility.yul\":6120:6129   */\n      dup3\n        /* \"#utility.yul\":6116:6134   */\n      add\n        /* \"#utility.yul\":6108:6134   */\n      swap1\n      pop\n        /* \"#utility.yul\":6180:6189   */\n      dup2\n        /* \"#utility.yul\":6174:6178   */\n      dup2\n        /* \"#utility.yul\":6170:6190   */\n      sub\n        /* \"#utility.yul\":6166:6167   */\n      0x00\n        /* \"#utility.yul\":6155:6164   */\n      dup4\n        /* \"#utility.yul\":6151:6168   */\n      add\n        /* \"#utility.yul\":6144:6191   */\n      mstore\n        /* \"#utility.yul\":6208:6339   */\n      tag_176\n        /* \"#utility.yul\":6334:6338   */\n      dup2\n        /* \"#utility.yul\":6208:6339   */\n      tag_103\n      jump\t// in\n    tag_176:\n        /* \"#utility.yul\":6200:6339   */\n      swap1\n      pop\n        /* \"#utility.yul\":5927:6346   */\n      swap2\n      swap1\n      pop\n      jump\t// out\n        /* \"#utility.yul\":6352:6573   */\n    tag_104:\n        /* \"#utility.yul\":6492:6526   */\n      0x53656c6c657220646f6573206e6f74206861766520656e6f75676820746f6b65\n        /* \"#utility.yul\":6488:6489   */\n      0x00\n        /* \"#utility.yul\":6480:6486   */\n      dup3\n        /* \"#utility.yul\":6476:6490   */\n      add\n        /* \"#utility.yul\":6469:6527   */\n      mstore\n        /* \"#utility.yul\":6561:6565   */\n      0x6e73000000000000000000000000000000000000000000000000000000000000\n        /* \"#utility.yul\":6556:6558   */\n      0x20\n        /* \"#utility.yul\":6548:6554   */\n      dup3\n        /* \"#utility.yul\":6544:6559   */\n      add\n        /* \"#utility.yul\":6537:6566   */\n      mstore\n        /* \"#utility.yul\":6352:6573   */\n      pop\n      jump\t// out\n        /* \"#utility.yul\":6579:6945   */\n    tag_105:\n        /* \"#utility.yul\":6721:6724   */\n      0x00\n        /* \"#utility.yul\":6742:6809   */\n      tag_179\n        /* \"#utility.yul\":6806:6808   */\n      0x22\n        /* \"#utility.yul\":6801:6804   */\n      dup4\n        /* \"#utility.yul\":6742:6809   */\n      tag_101\n      jump\t// in\n    tag_179:\n        /* \"#utility.yul\":6735:6809   */\n      swap2\n      pop\n        /* \"#utility.yul\":6818:6911   */\n      tag_180\n        /* \"#utility.yul\":6907:6910   */\n      dup3\n        /* \"#utility.yul\":6818:6911   */\n      tag_104\n      jump\t// in\n    tag_180:\n        /* \"#utility.yul\":6936:6938   */\n      0x40\n        /* \"#utility.yul\":6931:6934   */\n      dup3\n        /* \"#utility.yul\":6927:6939   */\n      add\n        /* \"#utility.yul\":6920:6939   */\n      swap1\n      pop\n        /* \"#utility.yul\":6579:6945   */\n      swap2\n      swap1\n      pop\n      jump\t// out\n        /* \"#utility.yul\":6951:7370   */\n    tag_58:\n        /* \"#utility.yul\":7117:7121   */\n      0x00\n        /* \"#utility.yul\":7155:7157   */\n      0x20\n        /* \"#utility.yul\":7144:7153   */\n      dup3\n        /* \"#utility.yul\":7140:7158   */\n      add\n        /* \"#utility.yul\":7132:7158   */\n      swap1\n      pop\n        /* \"#utility.yul\":7204:7213   */\n      dup2\n        /* \"#utility.yul\":7198:7202   */\n      dup2\n        /* \"#utility.yul\":7194:7214   */\n      sub\n        /* \"#utility.yul\":7190:7191   */\n      0x00\n        /* \"#utility.yul\":7179:7188   */\n      dup4\n        /* \"#utility.yul\":7175:7192   */\n      add\n        /* \"#utility.yul\":7168:7215   */\n      mstore\n        /* \"#utility.yul\":7232:7363   */\n      tag_182\n        /* \"#utility.yul\":7358:7362   */\n      dup2\n        /* \"#utility.yul\":7232:7363   */\n      tag_105\n      jump\t// in\n    tag_182:\n        /* \"#utility.yul\":7224:7363   */\n      swap1\n      pop\n        /* \"#utility.yul\":6951:7370   */\n      swap2\n      swap1\n      pop\n      jump\t// out\n        /* \"#utility.yul\":7376:7556   */\n    tag_106:\n        /* \"#utility.yul\":7424:7501   */\n      0x4e487b7100000000000000000000000000000000000000000000000000000000\n        /* \"#utility.yul\":7421:7422   */\n      0x00\n        /* \"#utility.yul\":7414:7502   */\n      mstore\n        /* \"#utility.yul\":7521:7525   */\n      0x11\n        /* \"#utility.yul\":7518:7519   */\n      0x04\n        /* \"#utility.yul\":7511:7526   */\n      mstore\n        /* \"#utility.yul\":7545:7549   */\n      0x24\n        /* \"#utility.yul\":7542:7543   */\n      0x00\n        /* \"#utility.yul\":7535:7550   */\n      revert\n        /* \"#utility.yul\":7562:7756   */\n    tag_60:\n        /* \"#utility.yul\":7602:7606   */\n      0x00\n        /* \"#utility.yul\":7622:7642   */\n      tag_185\n        /* \"#utility.yul\":7640:7641   */\n      dup3\n        /* \"#utility.yul\":7622:7642   */\n      tag_89\n      jump\t// in\n    tag_185:\n        /* \"#utility.yul\":7617:7642   */\n      swap2\n      pop\n        /* \"#utility.yul\":7656:7676   */\n      tag_186\n        /* \"#utility.yul\":7674:7675   */\n      dup4\n        /* \"#utility.yul\":7656:7676   */\n      tag_89\n      jump\t// in\n    tag_186:\n        /* \"#utility.yul\":7651:7676   */\n      swap3\n      pop\n        /* \"#utility.yul\":7700:7701   */\n      dup3\n        /* \"#utility.yul\":7697:7698   */\n      dup3\n        /* \"#utility.yul\":7693:7702   */\n      sub\n        /* \"#utility.yul\":7685:7702   */\n      swap1\n      pop\n        /* \"#utility.yul\":7724:7725   */\n      dup2\n        /* \"#utility.yul\":7718:7722   */\n      dup2\n        /* \"#utility.yul\":7715:7726   */\n      gt\n        /* \"#utility.yul\":7712:7749   */\n      iszero\n      tag_187\n      jumpi\n        /* \"#utility.yul\":7729:7747   */\n      tag_188\n      tag_106\n      jump\t// in\n    tag_188:\n        /* \"#utility.yul\":7712:7749   */\n    tag_187:\n        /* \"#utility.yul\":7562:7756   */\n      swap3\n      swap2\n      pop\n      pop\n      jump\t// out\n        /* \"#utility.yul\":7762:7953   */\n    tag_62:\n        /* \"#utility.yul\":7802:7805   */\n      0x00\n        /* \"#utility.yul\":7821:7841   */\n      tag_190\n        /* \"#utility.yul\":7839:7840   */\n      dup3\n        /* \"#utility.yul\":7821:7841   */\n      tag_89\n      jump\t// in\n    tag_190:\n        /* \"#utility.yul\":7816:7841   */\n      swap2\n      pop\n        /* \"#utility.yul\":7855:7875   */\n      tag_191\n        /* \"#utility.yul\":7873:7874   */\n      dup4\n        /* \"#utility.yul\":7855:7875   */\n      tag_89\n      jump\t// in\n    tag_191:\n        /* \"#utility.yul\":7850:7875   */\n      swap3\n      pop\n        /* \"#utility.yul\":7898:7899   */\n      dup3\n        /* \"#utility.yul\":7895:7896   */\n      dup3\n        /* \"#utility.yul\":7891:7900   */\n      add\n        /* \"#utility.yul\":7884:7900   */\n      swap1\n      pop\n        /* \"#utility.yul\":7919:7922   */\n      dup1\n        /* \"#utility.yul\":7916:7917   */\n      dup3\n        /* \"#utility.yul\":7913:7923   */\n      gt\n        /* \"#utility.yul\":7910:7946   */\n      iszero\n      tag_192\n      jumpi\n        /* \"#utility.yul\":7926:7944   */\n      tag_193\n      tag_106\n      jump\t// in\n    tag_193:\n        /* \"#utility.yul\":7910:7946   */\n    tag_192:\n        /* \"#utility.yul\":7762:7953   */\n      swap3\n      swap2\n      pop\n      pop\n      jump\t// out\n        /* \"#utility.yul\":7959:8139   */\n    tag_68:\n        /* \"#utility.yul\":8007:8084   */\n      0x4e487b7100000000000000000000000000000000000000000000000000000000\n        /* \"#utility.yul\":8004:8005   */\n      0x00\n        /* \"#utility.yul\":7997:8085   */\n      mstore\n        /* \"#utility.yul\":8104:8108   */\n      0x32\n        /* \"#utility.yul\":8101:8102   */\n      0x04\n        /* \"#utility.yul\":8094:8109   */\n      mstore\n        /* \"#utility.yul\":8128:8132   */\n      0x24\n        /* \"#utility.yul\":8125:8126   */\n      0x00\n        /* \"#utility.yul\":8118:8133   */\n      revert\n        /* \"#utility.yul\":8145:8318   */\n    tag_107:\n        /* \"#utility.yul\":8285:8310   */\n      0x43616c6c6572206973206e6f7420746865206f776e6572000000000000000000\n        /* \"#utility.yul\":8281:8282   */\n      0x00\n        /* \"#utility.yul\":8273:8279   */\n      dup3\n        /* \"#utility.yul\":8269:8283   */\n      add\n        /* \"#utility.yul\":8262:8311   */\n      mstore\n        /* \"#utility.yul\":8145:8318   */\n      pop\n      jump\t// out\n        /* \"#utility.yul\":8324:8690   */\n    tag_108:\n        /* \"#utility.yul\":8466:8469   */\n      0x00\n        /* \"#utility.yul\":8487:8554   */\n      tag_197\n        /* \"#utility.yul\":8551:8553   */\n      0x17\n        /* \"#utility.yul\":8546:8549   */\n      dup4\n        /* \"#utility.yul\":8487:8554   */\n      tag_101\n      jump\t// in\n    tag_197:\n        /* \"#utility.yul\":8480:8554   */\n      swap2\n      pop\n        /* \"#utility.yul\":8563:8656   */\n      tag_198\n        /* \"#utility.yul\":8652:8655   */\n      dup3\n        /* \"#utility.yul\":8563:8656   */\n      tag_107\n      jump\t// in\n    tag_198:\n        /* \"#utility.yul\":8681:8683   */\n      0x20\n        /* \"#utility.yul\":8676:8679   */\n      dup3\n        /* \"#utility.yul\":8672:8684   */\n      add\n        /* \"#utility.yul\":8665:8684   */\n      swap1\n      pop\n        /* \"#utility.yul\":8324:8690   */\n      swap2\n      swap1\n      pop\n      jump\t// out\n        /* \"#utility.yul\":8696:9115   */\n    tag_77:\n        /* \"#utility.yul\":8862:8866   */\n      0x00\n        /* \"#utility.yul\":8900:8902   */\n      0x20\n        /* \"#utility.yul\":8889:8898   */\n      dup3\n        /* \"#utility.yul\":8885:8903   */\n      add\n        /* \"#utility.yul\":8877:8903   */\n      swap1\n      pop\n        /* \"#utility.yul\":8949:8958   */\n      dup2\n        /* \"#utility.yul\":8943:8947   */\n      dup2\n        /* \"#utility.yul\":8939:8959   */\n      sub\n        /* \"#utility.yul\":8935:8936   */\n      0x00\n        /* \"#utility.yul\":8924:8933   */\n      dup4\n        /* \"#utility.yul\":8920:8937   */\n      add\n        /* \"#utility.yul\":8913:8960   */\n      mstore\n        /* \"#utility.yul\":8977:9108   */\n      tag_200\n        /* \"#utility.yul\":9103:9107   */\n      dup2\n        /* \"#utility.yul\":8977:9108   */\n      tag_108\n      jump\t// in\n    tag_200:\n        /* \"#utility.yul\":8969:9108   */\n      swap1\n      pop\n        /* \"#utility.yul\":8696:9115   */\n      swap2\n      swap1\n      pop\n      jump\t// out\n        /* \"#utility.yul\":9121:9300   */\n    tag_109:\n        /* \"#utility.yul\":9261:9292   */\n      0x4e6577206f776e657220697320746865207a65726f2061646472657373000000\n        /* \"#utility.yul\":9257:9258   */\n      0x00\n        /* \"#utility.yul\":9249:9255   */\n      dup3\n        /* \"#utility.yul\":9245:9259   */\n      add\n        /* \"#utility.yul\":9238:9293   */\n      mstore\n        /* \"#utility.yul\":9121:9300   */\n      pop\n      jump\t// out\n        /* \"#utility.yul\":9306:9672   */\n    tag_110:\n        /* \"#utility.yul\":9448:9451   */\n      0x00\n        /* \"#utility.yul\":9469:9536   */\n      tag_203\n        /* \"#utility.yul\":9533:9535   */\n      0x1d\n        /* \"#utility.yul\":9528:9531   */\n      dup4\n        /* \"#utility.yul\":9469:9536   */\n      tag_101\n      jump\t// in\n    tag_203:\n        /* \"#utility.yul\":9462:9536   */\n      swap2\n      pop\n        /* \"#utility.yul\":9545:9638   */\n      tag_204\n        /* \"#utility.yul\":9634:9637   */\n      dup3\n        /* \"#utility.yul\":9545:9638   */\n      tag_109\n      jump\t// in\n    tag_204:\n        /* \"#utility.yul\":9663:9665   */\n      0x20\n        /* \"#utility.yul\":9658:9661   */\n      dup3\n        /* \"#utility.yul\":9654:9666   */\n      add\n        /* \"#utility.yul\":9647:9666   */\n      swap1\n      pop\n        /* \"#utility.yul\":9306:9672   */\n      swap2\n      swap1\n      pop\n      jump\t// out\n        /* \"#utility.yul\":9678:10097   */\n    tag_81:\n        /* \"#utility.yul\":9844:9848   */\n      0x00\n        /* \"#utility.yul\":9882:9884   */\n      0x20\n        /* \"#utility.yul\":9871:9880   */\n      dup3\n        /* \"#utility.yul\":9867:9885   */\n      add\n        /* \"#utility.yul\":9859:9885   */\n      swap1\n      pop\n        /* \"#utility.yul\":9931:9940   */\n      dup2\n        /* \"#utility.yul\":9925:9929   */\n      dup2\n        /* \"#utility.yul\":9921:9941   */\n      sub\n        /* \"#utility.yul\":9917:9918   */\n      0x00\n        /* \"#utility.yul\":9906:9915   */\n      dup4\n        /* \"#utility.yul\":9902:9919   */\n      add\n        /* \"#utility.yul\":9895:9942   */\n      mstore\n        /* \"#utility.yul\":9959:10090   */\n      tag_206\n        /* \"#utility.yul\":10085:10089   */\n      dup2\n        /* \"#utility.yul\":9959:10090   */\n      tag_110\n      jump\t// in\n    tag_206:\n        /* \"#utility.yul\":9951:10090   */\n      swap1\n      pop\n        /* \"#utility.yul\":9678:10097   */\n      swap2\n      swap1\n      pop\n      jump\t// out\n\n    auxdata: 0xa2646970667358221220bcb68a5386c3d7f79e3876093cc68e4667515ed3cd037f49e2d99839675050a864736f6c63430008180033\n}\n",
				"bytecode": {
					"linkReferences": {},
					"object": "608060405234801562000010575f80fd5b506040516200112a3803806200112a83398181016040528101906200003691906200025a565b335f806101000a81548173ffffffffffffffffffffffffffffffffffffffff021916908373ffffffffffffffffffffffffffffffffffffffff16021790555081600181905550620000ad5f8054906101000a900473ffffffffffffffffffffffffffffffffffffffff1682620000b560201b60201c565b505062000413565b5f73ffffffffffffffffffffffffffffffffffffffff168273ffffffffffffffffffffffffffffffffffffffff160362000126576040517f08c379a00000000000000000000000000000000000000000000000000000000081526004016200011d90620002fd565b60405180910390fd5b8060025f8473ffffffffffffffffffffffffffffffffffffffff1673ffffffffffffffffffffffffffffffffffffffff1681526020019081526020015f205f8282546200017491906200034a565b92505081905550600382908060018154018082558091505060019003905f5260205f20015f9091909190916101000a81548173ffffffffffffffffffffffffffffffffffffffff021916908373ffffffffffffffffffffffffffffffffffffffff1602179055507f25b428dfde728ccfaddad7e29e4ac23c24ed7fd1a6e3e3f91894a9a073f5dfff82826001546040516200021293929190620003d8565b60405180910390a15050565b5f80fd5b5f819050919050565b620002368162000222565b811462000241575f80fd5b50565b5f8151905062000254816200022b565b92915050565b5f80604083850312156200027357620002726200021e565b5b5f620002828582860162000244565b9250506020620002958582860162000244565b9150509250929050565b5f82825260208201905092915050565b7f496e76616c6964206164647265737300000000000000000000000000000000005f82015250565b5f620002e5600f836200029f565b9150620002f282620002af565b602082019050919050565b5f6020820190508181035f8301526200031681620002d7565b9050919050565b7f4e487b71000000000000000000000000000000000000000000000000000000005f52601160045260245ffd5b5f620003568262000222565b9150620003638362000222565b92508282019050808211156200037e576200037d6200031d565b5b92915050565b5f73ffffffffffffffffffffffffffffffffffffffff82169050919050565b5f620003af8262000384565b9050919050565b620003c181620003a3565b82525050565b620003d28162000222565b82525050565b5f606082019050620003ed5f830186620003b6565b620003fc6020830185620003c7565b6200040b6040830184620003c7565b949350505050565b610d0980620004215f395ff3fe608060405234801561000f575f80fd5b5060043610610086575f3560e01c80638da5cb5b116100595780638da5cb5b14610126578063923108d914610144578063beabacc814610174578063f2fde38b1461019057610086565b806327e235e31461008a57806370a08231146100ba578063834253e1146100ea578063876b156614610108575b5f80fd5b6100a4600480360381019061009f919061083d565b6101ac565b6040516100b19190610880565b60405180910390f35b6100d460048036038101906100cf919061083d565b6101c1565b6040516100e19190610880565b60405180910390f35b6100f2610207565b6040516100ff9190610880565b60405180910390f35b61011061020d565b60405161011d9190610950565b60405180910390f35b61012e610298565b60405161013b919061097f565b60405180910390f35b61015e600480360381019061015991906109c2565b6102bb565b60405161016b919061097f565b60405180910390f35b61018e600480360381019061018991906109ed565b6102f6565b005b6101aa60048036038101906101a5919061083d565b610629565b005b6002602052805f5260405f205f915090505481565b5f60025f8373ffffffffffffffffffffffffffffffffffffffff1673ffffffffffffffffffffffffffffffffffffffff1681526020019081526020015f20549050919050565b60015481565b6060600380548060200260200160405190810160405280929190818152602001828054801561028e57602002820191905f5260205f20905b815f9054906101000a900473ffffffffffffffffffffffffffffffffffffffff1673ffffffffffffffffffffffffffffffffffffffff1681526020019060010190808311610245575b5050505050905090565b5f8054906101000a900473ffffffffffffffffffffffffffffffffffffffff1681565b600381815481106102ca575f80fd5b905f5260205f20015f915054906101000a900473ffffffffffffffffffffffffffffffffffffffff1681565b5f73ffffffffffffffffffffffffffffffffffffffff168373ffffffffffffffffffffffffffffffffffffffff161415801561035e57505f73ffffffffffffffffffffffffffffffffffffffff168273ffffffffffffffffffffffffffffffffffffffff1614155b61039d576040517f08c379a000000000000000000000000000000000000000000000000000000000815260040161039490610a97565b60405180910390fd5b8060025f8573ffffffffffffffffffffffffffffffffffffffff1673ffffffffffffffffffffffffffffffffffffffff1681526020019081526020015f2054101561041d576040517f08c379a000000000000000000000000000000000000000000000000000000000815260040161041490610b25565b60405180910390fd5b8060025f8573ffffffffffffffffffffffffffffffffffffffff1673ffffffffffffffffffffffffffffffffffffffff1681526020019081526020015f205f8282546104699190610b70565b925050819055508060025f8473ffffffffffffffffffffffffffffffffffffffff1673ffffffffffffffffffffffffffffffffffffffff1681526020019081526020015f205f8282546104bc9190610ba3565b925050819055505f805b600380549050811015610557578373ffffffffffffffffffffffffffffffffffffffff16600382815481106104fe576104fd610bd6565b5b905f5260205f20015f9054906101000a900473ffffffffffffffffffffffffffffffffffffffff1673ffffffffffffffffffffffffffffffffffffffff160361054a5760019150610557565b80806001019150506104c6565b50806105be57600383908060018154018082558091505060019003905f5260205f20015f9091909190916101000a81548173ffffffffffffffffffffffffffffffffffffffff021916908373ffffffffffffffffffffffffffffffffffffffff1602179055505b8273ffffffffffffffffffffffffffffffffffffffff168473ffffffffffffffffffffffffffffffffffffffff167fddf252ad1be2c89b69c2b068fc378daa952ba7f163c4a11628f55a4df523b3ef8460405161061b9190610880565b60405180910390a350505050565b5f8054906101000a900473ffffffffffffffffffffffffffffffffffffffff1673ffffffffffffffffffffffffffffffffffffffff163373ffffffffffffffffffffffffffffffffffffffff16146106b6576040517f08c379a00000000000000000000000000000000000000000000000000000000081526004016106ad90610c4d565b60405180910390fd5b5f73ffffffffffffffffffffffffffffffffffffffff168173ffffffffffffffffffffffffffffffffffffffff1603610724576040517f08c379a000000000000000000000000000000000000000000000000000000000815260040161071b90610cb5565b60405180910390fd5b8073ffffffffffffffffffffffffffffffffffffffff165f8054906101000a900473ffffffffffffffffffffffffffffffffffffffff1673ffffffffffffffffffffffffffffffffffffffff167f8be0079c531659141344cd1fd0a4f28419497f9722a3daafe3b4186f6b6457e060405160405180910390a3805f806101000a81548173ffffffffffffffffffffffffffffffffffffffff021916908373ffffffffffffffffffffffffffffffffffffffff16021790555050565b5f80fd5b5f73ffffffffffffffffffffffffffffffffffffffff82169050919050565b5f61080c826107e3565b9050919050565b61081c81610802565b8114610826575f80fd5b50565b5f8135905061083781610813565b92915050565b5f60208284031215610852576108516107df565b5b5f61085f84828501610829565b91505092915050565b5f819050919050565b61087a81610868565b82525050565b5f6020820190506108935f830184610871565b92915050565b5f81519050919050565b5f82825260208201905092915050565b5f819050602082019050919050565b6108cb81610802565b82525050565b5f6108dc83836108c2565b60208301905092915050565b5f602082019050919050565b5f6108fe82610899565b61090881856108a3565b9350610913836108b3565b805f5b8381101561094357815161092a88826108d1565b9750610935836108e8565b925050600181019050610916565b5085935050505092915050565b5f6020820190508181035f83015261096881846108f4565b905092915050565b61097981610802565b82525050565b5f6020820190506109925f830184610970565b92915050565b6109a181610868565b81146109ab575f80fd5b50565b5f813590506109bc81610998565b92915050565b5f602082840312156109d7576109d66107df565b5b5f6109e4848285016109ae565b91505092915050565b5f805f60608486031215610a0457610a036107df565b5b5f610a1186828701610829565b9350506020610a2286828701610829565b9250506040610a33868287016109ae565b9150509250925092565b5f82825260208201905092915050565b7f496e76616c6964206164647265737300000000000000000000000000000000005f82015250565b5f610a81600f83610a3d565b9150610a8c82610a4d565b602082019050919050565b5f6020820190508181035f830152610aae81610a75565b9050919050565b7f53656c6c657220646f6573206e6f74206861766520656e6f75676820746f6b655f8201527f6e73000000000000000000000000000000000000000000000000000000000000602082015250565b5f610b0f602283610a3d565b9150610b1a82610ab5565b604082019050919050565b5f6020820190508181035f830152610b3c81610b03565b9050919050565b7f4e487b71000000000000000000000000000000000000000000000000000000005f52601160045260245ffd5b5f610b7a82610868565b9150610b8583610868565b9250828203905081811115610b9d57610b9c610b43565b5b92915050565b5f610bad82610868565b9150610bb883610868565b9250828201905080821115610bd057610bcf610b43565b5b92915050565b7f4e487b71000000000000000000000000000000000000000000000000000000005f52603260045260245ffd5b7f43616c6c6572206973206e6f7420746865206f776e65720000000000000000005f82015250565b5f610c37601783610a3d565b9150610c4282610c03565b602082019050919050565b5f6020820190508181035f830152610c6481610c2b565b9050919050565b7f4e6577206f776e657220697320746865207a65726f20616464726573730000005f82015250565b5f610c9f601d83610a3d565b9150610caa82610c6b565b602082019050919050565b5f6020820190508181035f830152610ccc81610c93565b905091905056fea2646970667358221220bcb68a5386c3d7f79e3876093cc68e4667515ed3cd037f49e2d99839675050a864736f6c63430008180033",
					"opcodes": "PUSH1 0x80 PUSH1 0x40 MSTORE CALLVALUE DUP1 ISZERO PUSH3 0x10 JUMPI PUSH0 DUP1 REVERT JUMPDEST POP PUSH1 0x40 MLOAD PUSH3 0x112A CODESIZE SUB DUP1 PUSH3 0x112A DUP4 CODECOPY DUP2 DUP2 ADD PUSH1 0x40 MSTORE DUP2 ADD SWAP1 PUSH3 0x36 SWAP2 SWAP1 PUSH3 0x25A JUMP JUMPDEST CALLER PUSH0 DUP1 PUSH2 0x100 EXP DUP2 SLOAD DUP2 PUSH20 0xFFFFFFFFFFFFFFFFFFFFFFFFFFFFFFFFFFFFFFFF MUL NOT AND SWAP1 DUP4 PUSH20 0xFFFFFFFFFFFFFFFFFFFFFFFFFFFFFFFFFFFFFFFF AND MUL OR SWAP1 SSTORE POP DUP2 PUSH1 0x1 DUP2 SWAP1 SSTORE POP PUSH3 0xAD PUSH0 DUP1 SLOAD SWAP1 PUSH2 0x100 EXP SWAP1 DIV PUSH20 0xFFFFFFFFFFFFFFFFFFFFFFFFFFFFFFFFFFFFFFFF AND DUP3 PUSH3 0xB5 PUSH1 0x20 SHL PUSH1 0x20 SHR JUMP JUMPDEST POP POP PUSH3 0x413 JUMP JUMPDEST PUSH0 PUSH20 0xFFFFFFFFFFFFFFFFFFFFFFFFFFFFFFFFFFFFFFFF AND DUP3 PUSH20 0xFFFFFFFFFFFFFFFFFFFFFFFFFFFFFFFFFFFFFFFF AND SUB PUSH3 0x126 JUMPI PUSH1 0x40 MLOAD PUSH32 0x8C379A000000000000000000000000000000000000000000000000000000000 DUP2 MSTORE PUSH1 0x4 ADD PUSH3 0x11D SWAP1 PUSH3 0x2FD JUMP JUMPDEST PUSH1 0x40 MLOAD DUP1 SWAP2 SUB SWAP1 REVERT JUMPDEST DUP1 PUSH1 0x2 PUSH0 DUP5 PUSH20 0xFFFFFFFFFFFFFFFFFFFFFFFFFFFFFFFFFFFFFFFF AND PUSH20 0xFFFFFFFFFFFFFFFFFFFFFFFFFFFFFFFFFFFFFFFF AND DUP2 MSTORE PUSH1 0x20 ADD SWAP1 DUP2 MSTORE PUSH1 0x20 ADD PUSH0 KECCAK256 PUSH0 DUP3 DUP3 SLOAD PUSH3 0x174 SWAP2 SWAP1 PUSH3 0x34A JUMP JUMPDEST SWAP3 POP POP DUP2 SWAP1 SSTORE POP PUSH1 0x3 DUP3 SWAP1 DUP1 PUSH1 0x1 DUP2 SLOAD ADD DUP1 DUP3 SSTORE DUP1 SWAP2 POP POP PUSH1 0x1 SWAP1 SUB SWAP1 PUSH0 MSTORE PUSH1 0x20 PUSH0 KECCAK256 ADD PUSH0 SWAP1 SWAP2 SWAP1 SWAP2 SWAP1 SWAP2 PUSH2 0x100 EXP DUP2 SLOAD DUP2 PUSH20 0xFFFFFFFFFFFFFFFFFFFFFFFFFFFFFFFFFFFFFFFF MUL NOT AND SWAP1 DUP4 PUSH20 0xFFFFFFFFFFFFFFFFFFFFFFFFFFFFFFFFFFFFFFFF AND MUL OR SWAP1 SSTORE POP PUSH32 0x25B428DFDE728CCFADDAD7E29E4AC23C24ED7FD1A6E3E3F91894A9A073F5DFFF DUP3 DUP3 PUSH1 0x1 SLOAD PUSH1 0x40 MLOAD PUSH3 0x212 SWAP4 SWAP3 SWAP2 SWAP1 PUSH3 0x3D8 JUMP JUMPDEST PUSH1 0x40 MLOAD DUP1 SWAP2 SUB SWAP1 LOG1 POP POP JUMP JUMPDEST PUSH0 DUP1 REVERT JUMPDEST PUSH0 DUP2 SWAP1 POP SWAP2 SWAP1 POP JUMP JUMPDEST PUSH3 0x236 DUP2 PUSH3 0x222 JUMP JUMPDEST DUP2 EQ PUSH3 0x241 JUMPI PUSH0 DUP1 REVERT JUMPDEST POP JUMP JUMPDEST PUSH0 DUP2 MLOAD SWAP1 POP PUSH3 0x254 DUP2 PUSH3 0x22B JUMP JUMPDEST SWAP3 SWAP2 POP POP JUMP JUMPDEST PUSH0 DUP1 PUSH1 0x40 DUP4 DUP6 SUB SLT ISZERO PUSH3 0x273 JUMPI PUSH3 0x272 PUSH3 0x21E JUMP JUMPDEST JUMPDEST PUSH0 PUSH3 0x282 DUP6 DUP3 DUP7 ADD PUSH3 0x244 JUMP JUMPDEST SWAP3 POP POP PUSH1 0x20 PUSH3 0x295 DUP6 DUP3 DUP7 ADD PUSH3 0x244 JUMP JUMPDEST SWAP2 POP POP SWAP3 POP SWAP3 SWAP1 POP JUMP JUMPDEST PUSH0 DUP3 DUP3 MSTORE PUSH1 0x20 DUP3 ADD SWAP1 POP SWAP3 SWAP2 POP POP JUMP JUMPDEST PUSH32 0x496E76616C696420616464726573730000000000000000000000000000000000 PUSH0 DUP3 ADD MSTORE POP JUMP JUMPDEST PUSH0 PUSH3 0x2E5 PUSH1 0xF DUP4 PUSH3 0x29F JUMP JUMPDEST SWAP2 POP PUSH3 0x2F2 DUP3 PUSH3 0x2AF JUMP JUMPDEST PUSH1 0x20 DUP3 ADD SWAP1 POP SWAP2 SWAP1 POP JUMP JUMPDEST PUSH0 PUSH1 0x20 DUP3 ADD SWAP1 POP DUP2 DUP2 SUB PUSH0 DUP4 ADD MSTORE PUSH3 0x316 DUP2 PUSH3 0x2D7 JUMP JUMPDEST SWAP1 POP SWAP2 SWAP1 POP JUMP JUMPDEST PUSH32 0x4E487B7100000000000000000000000000000000000000000000000000000000 PUSH0 MSTORE PUSH1 0x11 PUSH1 0x4 MSTORE PUSH1 0x24 PUSH0 REVERT JUMPDEST PUSH0 PUSH3 0x356 DUP3 PUSH3 0x222 JUMP JUMPDEST SWAP2 POP PUSH3 0x363 DUP4 PUSH3 0x222 JUMP JUMPDEST SWAP3 POP DUP3 DUP3 ADD SWAP1 POP DUP1 DUP3 GT ISZERO PUSH3 0x37E JUMPI PUSH3 0x37D PUSH3 0x31D JUMP JUMPDEST JUMPDEST SWAP3 SWAP2 POP POP JUMP JUMPDEST PUSH0 PUSH20 0xFFFFFFFFFFFFFFFFFFFFFFFFFFFFFFFFFFFFFFFF DUP3 AND SWAP1 POP SWAP2 SWAP1 POP JUMP JUMPDEST PUSH0 PUSH3 0x3AF DUP3 PUSH3 0x384 JUMP JUMPDEST SWAP1 POP SWAP2 SWAP1 POP JUMP JUMPDEST PUSH3 0x3C1 DUP2 PUSH3 0x3A3 JUMP JUMPDEST DUP3 MSTORE POP POP JUMP JUMPDEST PUSH3 0x3D2 DUP2 PUSH3 0x222 JUMP JUMPDEST DUP3 MSTORE POP POP JUMP JUMPDEST PUSH0 PUSH1 0x60 DUP3 ADD SWAP1 POP PUSH3 0x3ED PUSH0 DUP4 ADD DUP7 PUSH3 0x3B6 JUMP JUMPDEST PUSH3 0x3FC PUSH1 0x20 DUP4 ADD DUP6 PUSH3 0x3C7 JUMP JUMPDEST PUSH3 0x40B PUSH1 0x40 DUP4 ADD DUP5 PUSH3 0x3C7 JUMP JUMPDEST SWAP5 SWAP4 POP POP POP POP JUMP JUMPDEST PUSH2 0xD09 DUP1 PUSH3 0x421 PUSH0 CODECOPY PUSH0 RETURN INVALID PUSH1 0x80 PUSH1 0x40 MSTORE CALLVALUE DUP1 ISZERO PUSH2 0xF JUMPI PUSH0 DUP1 REVERT JUMPDEST POP PUSH1 0x4 CALLDATASIZE LT PUSH2 0x86 JUMPI PUSH0 CALLDATALOAD PUSH1 0xE0 SHR DUP1 PUSH4 0x8DA5CB5B GT PUSH2 0x59 JUMPI DUP1 PUSH4 0x8DA5CB5B EQ PUSH2 0x126 JUMPI DUP1 PUSH4 0x923108D9 EQ PUSH2 0x144 JUMPI DUP1 PUSH4 0xBEABACC8 EQ PUSH2 0x174 JUMPI DUP1 PUSH4 0xF2FDE38B EQ PUSH2 0x190 JUMPI PUSH2 0x86 JUMP JUMPDEST DUP1 PUSH4 0x27E235E3 EQ PUSH2 0x8A JUMPI DUP1 PUSH4 0x70A08231 EQ PUSH2 0xBA JUMPI DUP1 PUSH4 0x834253E1 EQ PUSH2 0xEA JUMPI DUP1 PUSH4 0x876B1566 EQ PUSH2 0x108 JUMPI JUMPDEST PUSH0 DUP1 REVERT JUMPDEST PUSH2 0xA4 PUSH1 0x4 DUP1 CALLDATASIZE SUB DUP2 ADD SWAP1 PUSH2 0x9F SWAP2 SWAP1 PUSH2 0x83D JUMP JUMPDEST PUSH2 0x1AC JUMP JUMPDEST PUSH1 0x40 MLOAD PUSH2 0xB1 SWAP2 SWAP1 PUSH2 0x880 JUMP JUMPDEST PUSH1 0x40 MLOAD DUP1 SWAP2 SUB SWAP1 RETURN JUMPDEST PUSH2 0xD4 PUSH1 0x4 DUP1 CALLDATASIZE SUB DUP2 ADD SWAP1 PUSH2 0xCF SWAP2 SWAP1 PUSH2 0x83D JUMP JUMPDEST PUSH2 0x1C1 JUMP JUMPDEST PUSH1 0x40 MLOAD PUSH2 0xE1 SWAP2 SWAP1 PUSH2 0x880 JUMP JUMPDEST PUSH1 0x40 MLOAD DUP1 SWAP2 SUB SWAP1 RETURN JUMPDEST PUSH2 0xF2 PUSH2 0x207 JUMP JUMPDEST PUSH1 0x40 MLOAD PUSH2 0xFF SWAP2 SWAP1 PUSH2 0x880 JUMP JUMPDEST PUSH1 0x40 MLOAD DUP1 SWAP2 SUB SWAP1 RETURN JUMPDEST PUSH2 0x110 PUSH2 0x20D JUMP JUMPDEST PUSH1 0x40 MLOAD PUSH2 0x11D SWAP2 SWAP1 PUSH2 0x950 JUMP JUMPDEST PUSH1 0x40 MLOAD DUP1 SWAP2 SUB SWAP1 RETURN JUMPDEST PUSH2 0x12E PUSH2 0x298 JUMP JUMPDEST PUSH1 0x40 MLOAD PUSH2 0x13B SWAP2 SWAP1 PUSH2 0x97F JUMP JUMPDEST PUSH1 0x40 MLOAD DUP1 SWAP2 SUB SWAP1 RETURN JUMPDEST PUSH2 0x15E PUSH1 0x4 DUP1 CALLDATASIZE SUB DUP2 ADD SWAP1 PUSH2 0x159 SWAP2 SWAP1 PUSH2 0x9C2 JUMP JUMPDEST PUSH2 0x2BB JUMP JUMPDEST PUSH1 0x40 MLOAD PUSH2 0x16B SWAP2 SWAP1 PUSH2 0x97F JUMP JUMPDEST PUSH1 0x40 MLOAD DUP1 SWAP2 SUB SWAP1 RETURN JUMPDEST PUSH2 0x18E PUSH1 0x4 DUP1 CALLDATASIZE SUB DUP2 ADD SWAP1 PUSH2 0x189 SWAP2 SWAP1 PUSH2 0x9ED JUMP JUMPDEST PUSH2 0x2F6 JUMP JUMPDEST STOP JUMPDEST PUSH2 0x1AA PUSH1 0x4 DUP1 CALLDATASIZE SUB DUP2 ADD SWAP1 PUSH2 0x1A5 SWAP2 SWAP1 PUSH2 0x83D JUMP JUMPDEST PUSH2 0x629 JUMP JUMPDEST STOP JUMPDEST PUSH1 0x2 PUSH1 0x20 MSTORE DUP1 PUSH0 MSTORE PUSH1 0x40 PUSH0 KECCAK256 PUSH0 SWAP2 POP SWAP1 POP SLOAD DUP2 JUMP JUMPDEST PUSH0 PUSH1 0x2 PUSH0 DUP4 PUSH20 0xFFFFFFFFFFFFFFFFFFFFFFFFFFFFFFFFFFFFFFFF AND PUSH20 0xFFFFFFFFFFFFFFFFFFFFFFFFFFFFFFFFFFFFFFFF AND DUP2 MSTORE PUSH1 0x20 ADD SWAP1 DUP2 MSTORE PUSH1 0x20 ADD PUSH0 KECCAK256 SLOAD SWAP1 POP SWAP2 SWAP1 POP JUMP JUMPDEST PUSH1 0x1 SLOAD DUP2 JUMP JUMPDEST PUSH1 0x60 PUSH1 0x3 DUP1 SLOAD DUP1 PUSH1 0x20 MUL PUSH1 0x20 ADD PUSH1 0x40 MLOAD SWAP1 DUP2 ADD PUSH1 0x40 MSTORE DUP1 SWAP3 SWAP2 SWAP1 DUP2 DUP2 MSTORE PUSH1 0x20 ADD DUP3 DUP1 SLOAD DUP1 ISZERO PUSH2 0x28E JUMPI PUSH1 0x20 MUL DUP3 ADD SWAP2 SWAP1 PUSH0 MSTORE PUSH1 0x20 PUSH0 KECCAK256 SWAP1 JUMPDEST DUP2 PUSH0 SWAP1 SLOAD SWAP1 PUSH2 0x100 EXP SWAP1 DIV PUSH20 0xFFFFFFFFFFFFFFFFFFFFFFFFFFFFFFFFFFFFFFFF AND PUSH20 0xFFFFFFFFFFFFFFFFFFFFFFFFFFFFFFFFFFFFFFFF AND DUP2 MSTORE PUSH1 0x20 ADD SWAP1 PUSH1 0x1 ADD SWAP1 DUP1 DUP4 GT PUSH2 0x245 JUMPI JUMPDEST POP POP POP POP POP SWAP1 POP SWAP1 JUMP JUMPDEST PUSH0 DUP1 SLOAD SWAP1 PUSH2 0x100 EXP SWAP1 DIV PUSH20 0xFFFFFFFFFFFFFFFFFFFFFFFFFFFFFFFFFFFFFFFF AND DUP2 JUMP JUMPDEST PUSH1 0x3 DUP2 DUP2 SLOAD DUP2 LT PUSH2 0x2CA JUMPI PUSH0 DUP1 REVERT JUMPDEST SWAP1 PUSH0 MSTORE PUSH1 0x20 PUSH0 KECCAK256 ADD PUSH0 SWAP2 POP SLOAD SWAP1 PUSH2 0x100 EXP SWAP1 DIV PUSH20 0xFFFFFFFFFFFFFFFFFFFFFFFFFFFFFFFFFFFFFFFF AND DUP2 JUMP JUMPDEST PUSH0 PUSH20 0xFFFFFFFFFFFFFFFFFFFFFFFFFFFFFFFFFFFFFFFF AND DUP4 PUSH20 0xFFFFFFFFFFFFFFFFFFFFFFFFFFFFFFFFFFFFFFFF AND EQ ISZERO DUP1 ISZERO PUSH2 0x35E JUMPI POP PUSH0 PUSH20 0xFFFFFFFFFFFFFFFFFFFFFFFFFFFFFFFFFFFFFFFF AND DUP3 PUSH20 0xFFFFFFFFFFFFFFFFFFFFFFFFFFFFFFFFFFFFFFFF AND EQ ISZERO JUMPDEST PUSH2 0x39D JUMPI PUSH1 0x40 MLOAD PUSH32 0x8C379A000000000000000000000000000000000000000000000000000000000 DUP2 MSTORE PUSH1 0x4 ADD PUSH2 0x394 SWAP1 PUSH2 0xA97 JUMP JUMPDEST PUSH1 0x40 MLOAD DUP1 SWAP2 SUB SWAP1 REVERT JUMPDEST DUP1 PUSH1 0x2 PUSH0 DUP6 PUSH20 0xFFFFFFFFFFFFFFFFFFFFFFFFFFFFFFFFFFFFFFFF AND PUSH20 0xFFFFFFFFFFFFFFFFFFFFFFFFFFFFFFFFFFFFFFFF AND DUP2 MSTORE PUSH1 0x20 ADD SWAP1 DUP2 MSTORE PUSH1 0x20 ADD PUSH0 KECCAK256 SLOAD LT ISZERO PUSH2 0x41D JUMPI PUSH1 0x40 MLOAD PUSH32 0x8C379A000000000000000000000000000000000000000000000000000000000 DUP2 MSTORE PUSH1 0x4 ADD PUSH2 0x414 SWAP1 PUSH2 0xB25 JUMP JUMPDEST PUSH1 0x40 MLOAD DUP1 SWAP2 SUB SWAP1 REVERT JUMPDEST DUP1 PUSH1 0x2 PUSH0 DUP6 PUSH20 0xFFFFFFFFFFFFFFFFFFFFFFFFFFFFFFFFFFFFFFFF AND PUSH20 0xFFFFFFFFFFFFFFFFFFFFFFFFFFFFFFFFFFFFFFFF AND DUP2 MSTORE PUSH1 0x20 ADD SWAP1 DUP2 MSTORE PUSH1 0x20 ADD PUSH0 KECCAK256 PUSH0 DUP3 DUP3 SLOAD PUSH2 0x469 SWAP2 SWAP1 PUSH2 0xB70 JUMP JUMPDEST SWAP3 POP POP DUP2 SWAP1 SSTORE POP DUP1 PUSH1 0x2 PUSH0 DUP5 PUSH20 0xFFFFFFFFFFFFFFFFFFFFFFFFFFFFFFFFFFFFFFFF AND PUSH20 0xFFFFFFFFFFFFFFFFFFFFFFFFFFFFFFFFFFFFFFFF AND DUP2 MSTORE PUSH1 0x20 ADD SWAP1 DUP2 MSTORE PUSH1 0x20 ADD PUSH0 KECCAK256 PUSH0 DUP3 DUP3 SLOAD PUSH2 0x4BC SWAP2 SWAP1 PUSH2 0xBA3 JUMP JUMPDEST SWAP3 POP POP DUP2 SWAP1 SSTORE POP PUSH0 DUP1 JUMPDEST PUSH1 0x3 DUP1 SLOAD SWAP1 POP DUP2 LT ISZERO PUSH2 0x557 JUMPI DUP4 PUSH20 0xFFFFFFFFFFFFFFFFFFFFFFFFFFFFFFFFFFFFFFFF AND PUSH1 0x3 DUP3 DUP2 SLOAD DUP2 LT PUSH2 0x4FE JUMPI PUSH2 0x4FD PUSH2 0xBD6 JUMP JUMPDEST JUMPDEST SWAP1 PUSH0 MSTORE PUSH1 0x20 PUSH0 KECCAK256 ADD PUSH0 SWAP1 SLOAD SWAP1 PUSH2 0x100 EXP SWAP1 DIV PUSH20 0xFFFFFFFFFFFFFFFFFFFFFFFFFFFFFFFFFFFFFFFF AND PUSH20 0xFFFFFFFFFFFFFFFFFFFFFFFFFFFFFFFFFFFFFFFF AND SUB PUSH2 0x54A JUMPI PUSH1 0x1 SWAP2 POP PUSH2 0x557 JUMP JUMPDEST DUP1 DUP1 PUSH1 0x1 ADD SWAP2 POP POP PUSH2 0x4C6 JUMP JUMPDEST POP DUP1 PUSH2 0x5BE JUMPI PUSH1 0x3 DUP4 SWAP1 DUP1 PUSH1 0x1 DUP2 SLOAD ADD DUP1 DUP3 SSTORE DUP1 SWAP2 POP POP PUSH1 0x1 SWAP1 SUB SWAP1 PUSH0 MSTORE PUSH1 0x20 PUSH0 KECCAK256 ADD PUSH0 SWAP1 SWAP2 SWAP1 SWAP2 SWAP1 SWAP2 PUSH2 0x100 EXP DUP2 SLOAD DUP2 PUSH20 0xFFFFFFFFFFFFFFFFFFFFFFFFFFFFFFFFFFFFFFFF MUL NOT AND SWAP1 DUP4 PUSH20 0xFFFFFFFFFFFFFFFFFFFFFFFFFFFFFFFFFFFFFFFF AND MUL OR SWAP1 SSTORE POP JUMPDEST DUP3 PUSH20 0xFFFFFFFFFFFFFFFFFFFFFFFFFFFFFFFFFFFFFFFF AND DUP5 PUSH20 0xFFFFFFFFFFFFFFFFFFFFFFFFFFFFFFFFFFFFFFFF AND PUSH32 0xDDF252AD1BE2C89B69C2B068FC378DAA952BA7F163C4A11628F55A4DF523B3EF DUP5 PUSH1 0x40 MLOAD PUSH2 0x61B SWAP2 SWAP1 PUSH2 0x880 JUMP JUMPDEST PUSH1 0x40 MLOAD DUP1 SWAP2 SUB SWAP1 LOG3 POP POP POP POP JUMP JUMPDEST PUSH0 DUP1 SLOAD SWAP1 PUSH2 0x100 EXP SWAP1 DIV PUSH20 0xFFFFFFFFFFFFFFFFFFFFFFFFFFFFFFFFFFFFFFFF AND PUSH20 0xFFFFFFFFFFFFFFFFFFFFFFFFFFFFFFFFFFFFFFFF AND CALLER PUSH20 0xFFFFFFFFFFFFFFFFFFFFFFFFFFFFFFFFFFFFFFFF AND EQ PUSH2 0x6B6 JUMPI PUSH1 0x40 MLOAD PUSH32 0x8C379A000000000000000000000000000000000000000000000000000000000 DUP2 MSTORE PUSH1 0x4 ADD PUSH2 0x6AD SWAP1 PUSH2 0xC4D JUMP JUMPDEST PUSH1 0x40 MLOAD DUP1 SWAP2 SUB SWAP1 REVERT JUMPDEST PUSH0 PUSH20 0xFFFFFFFFFFFFFFFFFFFFFFFFFFFFFFFFFFFFFFFF AND DUP2 PUSH20 0xFFFFFFFFFFFFFFFFFFFFFFFFFFFFFFFFFFFFFFFF AND SUB PUSH2 0x724 JUMPI PUSH1 0x40 MLOAD PUSH32 0x8C379A000000000000000000000000000000000000000000000000000000000 DUP2 MSTORE PUSH1 0x4 ADD PUSH2 0x71B SWAP1 PUSH2 0xCB5 JUMP JUMPDEST PUSH1 0x40 MLOAD DUP1 SWAP2 SUB SWAP1 REVERT JUMPDEST DUP1 PUSH20 0xFFFFFFFFFFFFFFFFFFFFFFFFFFFFFFFFFFFFFFFF AND PUSH0 DUP1 SLOAD SWAP1 PUSH2 0x100 EXP SWAP1 DIV PUSH20 0xFFFFFFFFFFFFFFFFFFFFFFFFFFFFFFFFFFFFFFFF AND PUSH20 0xFFFFFFFFFFFFFFFFFFFFFFFFFFFFFFFFFFFFFFFF AND PUSH32 0x8BE0079C531659141344CD1FD0A4F28419497F9722A3DAAFE3B4186F6B6457E0 PUSH1 0x40 MLOAD PUSH1 0x40 MLOAD DUP1 SWAP2 SUB SWAP1 LOG3 DUP1 PUSH0 DUP1 PUSH2 0x100 EXP DUP2 SLOAD DUP2 PUSH20 0xFFFFFFFFFFFFFFFFFFFFFFFFFFFFFFFFFFFFFFFF MUL NOT AND SWAP1 DUP4 PUSH20 0xFFFFFFFFFFFFFFFFFFFFFFFFFFFFFFFFFFFFFFFF AND MUL OR SWAP1 SSTORE POP POP JUMP JUMPDEST PUSH0 DUP1 REVERT JUMPDEST PUSH0 PUSH20 0xFFFFFFFFFFFFFFFFFFFFFFFFFFFFFFFFFFFFFFFF DUP3 AND SWAP1 POP SWAP2 SWAP1 POP JUMP JUMPDEST PUSH0 PUSH2 0x80C DUP3 PUSH2 0x7E3 JUMP JUMPDEST SWAP1 POP SWAP2 SWAP1 POP JUMP JUMPDEST PUSH2 0x81C DUP2 PUSH2 0x802 JUMP JUMPDEST DUP2 EQ PUSH2 0x826 JUMPI PUSH0 DUP1 REVERT JUMPDEST POP JUMP JUMPDEST PUSH0 DUP2 CALLDATALOAD SWAP1 POP PUSH2 0x837 DUP2 PUSH2 0x813 JUMP JUMPDEST SWAP3 SWAP2 POP POP JUMP JUMPDEST PUSH0 PUSH1 0x20 DUP3 DUP5 SUB SLT ISZERO PUSH2 0x852 JUMPI PUSH2 0x851 PUSH2 0x7DF JUMP JUMPDEST JUMPDEST PUSH0 PUSH2 0x85F DUP5 DUP3 DUP6 ADD PUSH2 0x829 JUMP JUMPDEST SWAP2 POP POP SWAP3 SWAP2 POP POP JUMP JUMPDEST PUSH0 DUP2 SWAP1 POP SWAP2 SWAP1 POP JUMP JUMPDEST PUSH2 0x87A DUP2 PUSH2 0x868 JUMP JUMPDEST DUP3 MSTORE POP POP JUMP JUMPDEST PUSH0 PUSH1 0x20 DUP3 ADD SWAP1 POP PUSH2 0x893 PUSH0 DUP4 ADD DUP5 PUSH2 0x871 JUMP JUMPDEST SWAP3 SWAP2 POP POP JUMP JUMPDEST PUSH0 DUP2 MLOAD SWAP1 POP SWAP2 SWAP1 POP JUMP JUMPDEST PUSH0 DUP3 DUP3 MSTORE PUSH1 0x20 DUP3 ADD SWAP1 POP SWAP3 SWAP2 POP POP JUMP JUMPDEST PUSH0 DUP2 SWAP1 POP PUSH1 0x20 DUP3 ADD SWAP1 POP SWAP2 SWAP1 POP JUMP JUMPDEST PUSH2 0x8CB DUP2 PUSH2 0x802 JUMP JUMPDEST DUP3 MSTORE POP POP JUMP JUMPDEST PUSH0 PUSH2 0x8DC DUP4 DUP4 PUSH2 0x8C2 JUMP JUMPDEST PUSH1 0x20 DUP4 ADD SWAP1 POP SWAP3 SWAP2 POP POP JUMP JUMPDEST PUSH0 PUSH1 0x20 DUP3 ADD SWAP1 POP SWAP2 SWAP1 POP JUMP JUMPDEST PUSH0 PUSH2 0x8FE DUP3 PUSH2 0x899 JUMP JUMPDEST PUSH2 0x908 DUP2 DUP6 PUSH2 0x8A3 JUMP JUMPDEST SWAP4 POP PUSH2 0x913 DUP4 PUSH2 0x8B3 JUMP JUMPDEST DUP1 PUSH0 JUMPDEST DUP4 DUP2 LT ISZERO PUSH2 0x943 JUMPI DUP2 MLOAD PUSH2 0x92A DUP9 DUP3 PUSH2 0x8D1 JUMP JUMPDEST SWAP8 POP PUSH2 0x935 DUP4 PUSH2 0x8E8 JUMP JUMPDEST SWAP3 POP POP PUSH1 0x1 DUP2 ADD SWAP1 POP PUSH2 0x916 JUMP JUMPDEST POP DUP6 SWAP4 POP POP POP POP SWAP3 SWAP2 POP POP JUMP JUMPDEST PUSH0 PUSH1 0x20 DUP3 ADD SWAP1 POP DUP2 DUP2 SUB PUSH0 DUP4 ADD MSTORE PUSH2 0x968 DUP2 DUP5 PUSH2 0x8F4 JUMP JUMPDEST SWAP1 POP SWAP3 SWAP2 POP POP JUMP JUMPDEST PUSH2 0x979 DUP2 PUSH2 0x802 JUMP JUMPDEST DUP3 MSTORE POP POP JUMP JUMPDEST PUSH0 PUSH1 0x20 DUP3 ADD SWAP1 POP PUSH2 0x992 PUSH0 DUP4 ADD DUP5 PUSH2 0x970 JUMP JUMPDEST SWAP3 SWAP2 POP POP JUMP JUMPDEST PUSH2 0x9A1 DUP2 PUSH2 0x868 JUMP JUMPDEST DUP2 EQ PUSH2 0x9AB JUMPI PUSH0 DUP1 REVERT JUMPDEST POP JUMP JUMPDEST PUSH0 DUP2 CALLDATALOAD SWAP1 POP PUSH2 0x9BC DUP2 PUSH2 0x998 JUMP JUMPDEST SWAP3 SWAP2 POP POP JUMP JUMPDEST PUSH0 PUSH1 0x20 DUP3 DUP5 SUB SLT ISZERO PUSH2 0x9D7 JUMPI PUSH2 0x9D6 PUSH2 0x7DF JUMP JUMPDEST JUMPDEST PUSH0 PUSH2 0x9E4 DUP5 DUP3 DUP6 ADD PUSH2 0x9AE JUMP JUMPDEST SWAP2 POP POP SWAP3 SWAP2 POP POP JUMP JUMPDEST PUSH0 DUP1 PUSH0 PUSH1 0x60 DUP5 DUP7 SUB SLT ISZERO PUSH2 0xA04 JUMPI PUSH2 0xA03 PUSH2 0x7DF JUMP JUMPDEST JUMPDEST PUSH0 PUSH2 0xA11 DUP7 DUP3 DUP8 ADD PUSH2 0x829 JUMP JUMPDEST SWAP4 POP POP PUSH1 0x20 PUSH2 0xA22 DUP7 DUP3 DUP8 ADD PUSH2 0x829 JUMP JUMPDEST SWAP3 POP POP PUSH1 0x40 PUSH2 0xA33 DUP7 DUP3 DUP8 ADD PUSH2 0x9AE JUMP JUMPDEST SWAP2 POP POP SWAP3 POP SWAP3 POP SWAP3 JUMP JUMPDEST PUSH0 DUP3 DUP3 MSTORE PUSH1 0x20 DUP3 ADD SWAP1 POP SWAP3 SWAP2 POP POP JUMP JUMPDEST PUSH32 0x496E76616C696420616464726573730000000000000000000000000000000000 PUSH0 DUP3 ADD MSTORE POP JUMP JUMPDEST PUSH0 PUSH2 0xA81 PUSH1 0xF DUP4 PUSH2 0xA3D JUMP JUMPDEST SWAP2 POP PUSH2 0xA8C DUP3 PUSH2 0xA4D JUMP JUMPDEST PUSH1 0x20 DUP3 ADD SWAP1 POP SWAP2 SWAP1 POP JUMP JUMPDEST PUSH0 PUSH1 0x20 DUP3 ADD SWAP1 POP DUP2 DUP2 SUB PUSH0 DUP4 ADD MSTORE PUSH2 0xAAE DUP2 PUSH2 0xA75 JUMP JUMPDEST SWAP1 POP SWAP2 SWAP1 POP JUMP JUMPDEST PUSH32 0x53656C6C657220646F6573206E6F74206861766520656E6F75676820746F6B65 PUSH0 DUP3 ADD MSTORE PUSH32 0x6E73000000000000000000000000000000000000000000000000000000000000 PUSH1 0x20 DUP3 ADD MSTORE POP JUMP JUMPDEST PUSH0 PUSH2 0xB0F PUSH1 0x22 DUP4 PUSH2 0xA3D JUMP JUMPDEST SWAP2 POP PUSH2 0xB1A DUP3 PUSH2 0xAB5 JUMP JUMPDEST PUSH1 0x40 DUP3 ADD SWAP1 POP SWAP2 SWAP1 POP JUMP JUMPDEST PUSH0 PUSH1 0x20 DUP3 ADD SWAP1 POP DUP2 DUP2 SUB PUSH0 DUP4 ADD MSTORE PUSH2 0xB3C DUP2 PUSH2 0xB03 JUMP JUMPDEST SWAP1 POP SWAP2 SWAP1 POP JUMP JUMPDEST PUSH32 0x4E487B7100000000000000000000000000000000000000000000000000000000 PUSH0 MSTORE PUSH1 0x11 PUSH1 0x4 MSTORE PUSH1 0x24 PUSH0 REVERT JUMPDEST PUSH0 PUSH2 0xB7A DUP3 PUSH2 0x868 JUMP JUMPDEST SWAP2 POP PUSH2 0xB85 DUP4 PUSH2 0x868 JUMP JUMPDEST SWAP3 POP DUP3 DUP3 SUB SWAP1 POP DUP2 DUP2 GT ISZERO PUSH2 0xB9D JUMPI PUSH2 0xB9C PUSH2 0xB43 JUMP JUMPDEST JUMPDEST SWAP3 SWAP2 POP POP JUMP JUMPDEST PUSH0 PUSH2 0xBAD DUP3 PUSH2 0x868 JUMP JUMPDEST SWAP2 POP PUSH2 0xBB8 DUP4 PUSH2 0x868 JUMP JUMPDEST SWAP3 POP DUP3 DUP3 ADD SWAP1 POP DUP1 DUP3 GT ISZERO PUSH2 0xBD0 JUMPI PUSH2 0xBCF PUSH2 0xB43 JUMP JUMPDEST JUMPDEST SWAP3 SWAP2 POP POP JUMP JUMPDEST PUSH32 0x4E487B7100000000000000000000000000000000000000000000000000000000 PUSH0 MSTORE PUSH1 0x32 PUSH1 0x4 MSTORE PUSH1 0x24 PUSH0 REVERT JUMPDEST PUSH32 0x43616C6C6572206973206E6F7420746865206F776E6572000000000000000000 PUSH0 DUP3 ADD MSTORE POP JUMP JUMPDEST PUSH0 PUSH2 0xC37 PUSH1 0x17 DUP4 PUSH2 0xA3D JUMP JUMPDEST SWAP2 POP PUSH2 0xC42 DUP3 PUSH2 0xC03 JUMP JUMPDEST PUSH1 0x20 DUP3 ADD SWAP1 POP SWAP2 SWAP1 POP JUMP JUMPDEST PUSH0 PUSH1 0x20 DUP3 ADD SWAP1 POP DUP2 DUP2 SUB PUSH0 DUP4 ADD MSTORE PUSH2 0xC64 DUP2 PUSH2 0xC2B JUMP JUMPDEST SWAP1 POP SWAP2 SWAP1 POP JUMP JUMPDEST PUSH32 0x4E6577206F776E657220697320746865207A65726F2061646472657373000000 PUSH0 DUP3 ADD MSTORE POP JUMP JUMPDEST PUSH0 PUSH2 0xC9F PUSH1 0x1D DUP4 PUSH2 0xA3D JUMP JUMPDEST SWAP2 POP PUSH2 0xCAA DUP3 PUSH2 0xC6B JUMP JUMPDEST PUSH1 0x20 DUP3 ADD SWAP1 POP SWAP2 SWAP1 POP JUMP JUMPDEST PUSH0 PUSH1 0x20 DUP3 ADD SWAP1 POP DUP2 DUP2 SUB PUSH0 DUP4 ADD MSTORE PUSH2 0xCCC DUP2 PUSH2 0xC93 JUMP JUMPDEST SWAP1 POP SWAP2 SWAP1 POP JUMP INVALID LOG2 PUSH5 0x6970667358 0x22 SLT KECCAK256 0xBC 0xB6 DUP11 MSTORE8 DUP7 0xC3 0xD7 0xF7 SWAP15 CODESIZE PUSH23 0x93CC68E4667515ED3CD037F49E2D99839675050A86473 PUSH16 0x6C634300081800330000000000000000 "
				},
				"gasEstimates": {
					"creation": {
						"codeDepositCost": "667400",
						"executionCost": "infinite",
						"totalCost": "infinite"
					},
					"external": {
						"balanceOf(address)": "2852",
						"balances(address)": "2803",
						"getTokenHolders()": "infinite",
						"owner()": "2505",
						"rwaCode()": "2470",
						"tokenHolders(uint256)": "4966",
						"transfer(address,address,uint256)": "infinite",
						"transferOwnership(address)": "30658"
					},
					"internal": {
						"mint(address,uint256)": "infinite"
					}
				},
				"methodIdentifiers": {
					"balanceOf(address)": "70a08231",
					"balances(address)": "27e235e3",
					"getTokenHolders()": "876b1566",
					"owner()": "8da5cb5b",
					"rwaCode()": "834253e1",
					"tokenHolders(uint256)": "923108d9",
					"transfer(address,address,uint256)": "beabacc8",
					"transferOwnership(address)": "f2fde38b"
				}
			},
			"storageLayout": {
				"storage": [
					{
						"astId": 3,
						"contract": "aquo/RWA.sol:RWA",
						"label": "owner",
						"offset": 0,
						"slot": "0",
						"type": "t_address"
					},
					{
						"astId": 5,
						"contract": "aquo/RWA.sol:RWA",
						"label": "rwaCode",
						"offset": 0,
						"slot": "1",
						"type": "t_uint256"
					},
					{
						"astId": 9,
						"contract": "aquo/RWA.sol:RWA",
						"label": "balances",
						"offset": 0,
						"slot": "2",
						"type": "t_mapping(t_address,t_uint256)"
					},
					{
						"astId": 12,
						"contract": "aquo/RWA.sol:RWA",
						"label": "tokenHolders",
						"offset": 0,
						"slot": "3",
						"type": "t_array(t_address)dyn_storage"
					}
				],
				"types": {
					"t_address": {
						"encoding": "inplace",
						"label": "address",
						"numberOfBytes": "20"
					},
					"t_array(t_address)dyn_storage": {
						"base": "t_address",
						"encoding": "dynamic_array",
						"label": "address[]",
						"numberOfBytes": "32"
					},
					"t_mapping(t_address,t_uint256)": {
						"encoding": "mapping",
						"key": "t_address",
						"label": "mapping(address => uint256)",
						"numberOfBytes": "32",
						"value": "t_uint256"
					},
					"t_uint256": {
						"encoding": "inplace",
						"label": "uint256",
						"numberOfBytes": "32"
					}
				}
			},
			"userdoc": {
				"kind": "user",
				"methods": {},
				"version": 1
			}
		}
	}
}