{
	"contracts/aquo/AquoContractListv3.sol": {
		"ContractList": {
			"abi": [
				{
					"inputs": [],
					"name": "getAllContracts",
					"outputs": [
						{
							"components": [
								{
									"internalType": "uint256",
									"name": "contractId",
									"type": "uint256"
								},
								{
									"internalType": "string",
									"name": "ipfsAddress",
									"type": "string"
								},
								{
									"internalType": "address",
									"name": "contractAddress",
									"type": "address"
								}
							],
							"internalType": "struct ContractList.Contract[]",
							"name": "",
							"type": "tuple[]"
						}
					],
					"stateMutability": "view",
					"type": "function"
				},
				{
					"inputs": [
						{
							"internalType": "address",
							"name": "_contractAddress",
							"type": "address"
						}
					],
					"name": "getAssetByContractAddress",
					"outputs": [
						{
							"components": [
								{
									"internalType": "uint256",
									"name": "contractId",
									"type": "uint256"
								},
								{
									"internalType": "string",
									"name": "ipfsAddress",
									"type": "string"
								},
								{
									"internalType": "address",
									"name": "contractAddress",
									"type": "address"
								}
							],
							"internalType": "struct ContractList.Contract",
							"name": "",
							"type": "tuple"
						}
					],
					"stateMutability": "view",
					"type": "function"
				},
				{
					"inputs": [
						{
							"internalType": "uint256",
							"name": "_contractId",
							"type": "uint256"
						}
					],
					"name": "getContractByContractId",
					"outputs": [
						{
							"components": [
								{
									"internalType": "uint256",
									"name": "contractId",
									"type": "uint256"
								},
								{
									"internalType": "string",
									"name": "ipfsAddress",
									"type": "string"
								},
								{
									"internalType": "address",
									"name": "contractAddress",
									"type": "address"
								}
							],
							"internalType": "struct ContractList.Contract",
							"name": "",
							"type": "tuple"
						}
					],
					"stateMutability": "view",
					"type": "function"
				},
				{
					"inputs": [
						{
							"internalType": "address",
							"name": "_contractAddress",
							"type": "address"
						},
						{
							"internalType": "string",
							"name": "_ipfsAddress",
							"type": "string"
						}
					],
					"name": "listContract",
					"outputs": [
						{
							"internalType": "uint256",
							"name": "",
							"type": "uint256"
						}
					],
					"stateMutability": "nonpayable",
					"type": "function"
				}
			],
			"devdoc": {
				"kind": "dev",
				"methods": {},
				"version": 1
			},
			"evm": {
				"assembly": "    /* \"contracts/aquo/AquoContractListv3.sol\":61:1890  contract ContractList {... */\n  mstore(0x40, 0x80)\n    /* \"contracts/aquo/AquoContractListv3.sol\":282:283  1 */\n  0x01\n    /* \"contracts/aquo/AquoContractListv3.sol\":249:283  uint256 private nextContractId = 1 */\n  dup1\n  sstore\n    /* \"contracts/aquo/AquoContractListv3.sol\":61:1890  contract ContractList {... */\n  callvalue\n  dup1\n  iszero\n  tag_1\n  jumpi\n  0x00\n  dup1\n  revert\ntag_1:\n  pop\n  dataSize(sub_0)\n  dup1\n  dataOffset(sub_0)\n  0x00\n  codecopy\n  0x00\n  return\nstop\n\nsub_0: assembly {\n        /* \"contracts/aquo/AquoContractListv3.sol\":61:1890  contract ContractList {... */\n      mstore(0x40, 0x80)\n      callvalue\n      dup1\n      iszero\n      tag_1\n      jumpi\n      0x00\n      dup1\n      revert\n    tag_1:\n      pop\n      jumpi(tag_2, lt(calldatasize, 0x04))\n      shr(0xe0, calldataload(0x00))\n      dup1\n      0x18d3ce96\n      eq\n      tag_3\n      jumpi\n      dup1\n      0x5d9c610c\n      eq\n      tag_4\n      jumpi\n      dup1\n      0xe385e261\n      eq\n      tag_5\n      jumpi\n      dup1\n      0xe803abaa\n      eq\n      tag_6\n      jumpi\n    tag_2:\n      0x00\n      dup1\n      revert\n        /* \"contracts/aquo/AquoContractListv3.sol\":1785:1887  function getAllContracts() public view returns (Contract[] memory) {... */\n    tag_3:\n      tag_7\n      tag_8\n      jump\t// in\n    tag_7:\n      mload(0x40)\n      tag_9\n      swap2\n      swap1\n      tag_10\n      jump\t// in\n    tag_9:\n      mload(0x40)\n      dup1\n      swap2\n      sub\n      swap1\n      return\n        /* \"contracts/aquo/AquoContractListv3.sol\":1370:1578  function getAssetByContractAddress(address _contractAddress) public view returns (Contract memory) {... */\n    tag_4:\n      tag_11\n      0x04\n      dup1\n      calldatasize\n      sub\n      dup2\n      add\n      swap1\n      tag_12\n      swap2\n      swap1\n      tag_13\n      jump\t// in\n    tag_12:\n      tag_14\n      jump\t// in\n    tag_11:\n      mload(0x40)\n      tag_15\n      swap2\n      swap1\n      tag_16\n      jump\t// in\n    tag_15:\n      mload(0x40)\n      dup1\n      swap2\n      sub\n      swap1\n      return\n        /* \"contracts/aquo/AquoContractListv3.sol\":1586:1777  function getContractByContractId(uint256 _contractId) public view returns (Contract memory) {... */\n    tag_5:\n      tag_17\n      0x04\n      dup1\n      calldatasize\n      sub\n      dup2\n      add\n      swap1\n      tag_18\n      swap2\n      swap1\n      tag_19\n      jump\t// in\n    tag_18:\n      tag_20\n      jump\t// in\n    tag_17:\n      mload(0x40)\n      tag_21\n      swap2\n      swap1\n      tag_16\n      jump\t// in\n    tag_21:\n      mload(0x40)\n      dup1\n      swap2\n      sub\n      swap1\n      return\n        /* \"contracts/aquo/AquoContractListv3.sol\":574:1362  function listContract(address _contractAddress, string memory _ipfsAddress) public returns (uint256) {... */\n    tag_6:\n      tag_22\n      0x04\n      dup1\n      calldatasize\n      sub\n      dup2\n      add\n      swap1\n      tag_23\n      swap2\n      swap1\n      tag_24\n      jump\t// in\n    tag_23:\n      tag_25\n      jump\t// in\n    tag_22:\n      mload(0x40)\n      tag_26\n      swap2\n      swap1\n      tag_27\n      jump\t// in\n    tag_26:\n      mload(0x40)\n      dup1\n      swap2\n      sub\n      swap1\n      return\n        /* \"contracts/aquo/AquoContractListv3.sol\":1785:1887  function getAllContracts() public view returns (Contract[] memory) {... */\n    tag_8:\n        /* \"contracts/aquo/AquoContractListv3.sol\":1833:1850  Contract[] memory */\n      0x60\n        /* \"contracts/aquo/AquoContractListv3.sol\":1870:1879  contracts */\n      0x00\n        /* \"contracts/aquo/AquoContractListv3.sol\":1863:1879  return contracts */\n      dup1\n      sload\n      dup1\n      0x20\n      mul\n      0x20\n      add\n      mload(0x40)\n      swap1\n      dup2\n      add\n      0x40\n      mstore\n      dup1\n      swap3\n      swap2\n      swap1\n      dup2\n      dup2\n      mstore\n      0x20\n      add\n      0x00\n      swap1\n    tag_29:\n      dup3\n      dup3\n      lt\n      iszero\n      tag_30\n      jumpi\n      dup4\n      dup3\n      swap1\n      0x00\n      mstore\n      keccak256(0x00, 0x20)\n      swap1\n      0x03\n      mul\n      add\n      mload(0x40)\n      dup1\n      0x60\n      add\n      0x40\n      mstore\n      swap1\n      dup2\n      0x00\n      dup3\n      add\n      sload\n      dup2\n      mstore\n      0x20\n      add\n      0x01\n      dup3\n      add\n      dup1\n      sload\n      tag_32\n      swap1\n      tag_33\n      jump\t// in\n    tag_32:\n      dup1\n      0x1f\n      add\n      0x20\n      dup1\n      swap2\n      div\n      mul\n      0x20\n      add\n      mload(0x40)\n      swap1\n      dup2\n      add\n      0x40\n      mstore\n      dup1\n      swap3\n      swap2\n      swap1\n      dup2\n      dup2\n      mstore\n      0x20\n      add\n      dup3\n      dup1\n      sload\n      tag_34\n      swap1\n      tag_33\n      jump\t// in\n    tag_34:\n      dup1\n      iszero\n      tag_35\n      jumpi\n      dup1\n      0x1f\n      lt\n      tag_36\n      jumpi\n      0x0100\n      dup1\n      dup4\n      sload\n      div\n      mul\n      dup4\n      mstore\n      swap2\n      0x20\n      add\n      swap2\n      jump(tag_35)\n    tag_36:\n      dup3\n      add\n      swap2\n      swap1\n      0x00\n      mstore\n      keccak256(0x00, 0x20)\n      swap1\n    tag_37:\n      dup2\n      sload\n      dup2\n      mstore\n      swap1\n      0x01\n      add\n      swap1\n      0x20\n      add\n      dup1\n      dup4\n      gt\n      tag_37\n      jumpi\n      dup3\n      swap1\n      sub\n      0x1f\n      and\n      dup3\n      add\n      swap2\n    tag_35:\n      pop\n      pop\n      pop\n      pop\n      pop\n      dup2\n      mstore\n      0x20\n      add\n      0x02\n      dup3\n      add\n      0x00\n      swap1\n      sload\n      swap1\n      0x0100\n      exp\n      swap1\n      div\n      0xffffffffffffffffffffffffffffffffffffffff\n      and\n      0xffffffffffffffffffffffffffffffffffffffff\n      and\n      0xffffffffffffffffffffffffffffffffffffffff\n      and\n      dup2\n      mstore\n      pop\n      pop\n      dup2\n      mstore\n      0x20\n      add\n      swap1\n      0x01\n      add\n      swap1\n      jump(tag_29)\n    tag_30:\n      pop\n      pop\n      pop\n      pop\n      swap1\n      pop\n        /* \"contracts/aquo/AquoContractListv3.sol\":1785:1887  function getAllContracts() public view returns (Contract[] memory) {... */\n      swap1\n      jump\t// out\n        /* \"contracts/aquo/AquoContractListv3.sol\":1370:1578  function getAssetByContractAddress(address _contractAddress) public view returns (Contract memory) {... */\n    tag_14:\n        /* \"contracts/aquo/AquoContractListv3.sol\":1452:1467  Contract memory */\n      tag_38\n      tag_39\n      jump\t// in\n    tag_38:\n        /* \"contracts/aquo/AquoContractListv3.sol\":1480:1493  uint256 index */\n      0x00\n        /* \"contracts/aquo/AquoContractListv3.sol\":1496:1518  contractAddressToIndex */\n      0x03\n        /* \"contracts/aquo/AquoContractListv3.sol\":1496:1536  contractAddressToIndex[_contractAddress] */\n      0x00\n        /* \"contracts/aquo/AquoContractListv3.sol\":1519:1535  _contractAddress */\n      dup5\n        /* \"contracts/aquo/AquoContractListv3.sol\":1496:1536  contractAddressToIndex[_contractAddress] */\n      0xffffffffffffffffffffffffffffffffffffffff\n      and\n      0xffffffffffffffffffffffffffffffffffffffff\n      and\n      dup2\n      mstore\n      0x20\n      add\n      swap1\n      dup2\n      mstore\n      0x20\n      add\n      0x00\n      keccak256\n      sload\n        /* \"contracts/aquo/AquoContractListv3.sol\":1480:1536  uint256 index = contractAddressToIndex[_contractAddress] */\n      swap1\n      pop\n        /* \"contracts/aquo/AquoContractListv3.sol\":1554:1563  contracts */\n      0x00\n        /* \"contracts/aquo/AquoContractListv3.sol\":1564:1569  index */\n      dup2\n        /* \"contracts/aquo/AquoContractListv3.sol\":1554:1570  contracts[index] */\n      dup2\n      sload\n      dup2\n      lt\n      tag_41\n      jumpi\n      tag_42\n      tag_43\n      jump\t// in\n    tag_42:\n    tag_41:\n      swap1\n      0x00\n      mstore\n      keccak256(0x00, 0x20)\n      swap1\n      0x03\n      mul\n      add\n        /* \"contracts/aquo/AquoContractListv3.sol\":1547:1570  return contracts[index] */\n      mload(0x40)\n      dup1\n      0x60\n      add\n      0x40\n      mstore\n      swap1\n      dup2\n      0x00\n      dup3\n      add\n      sload\n      dup2\n      mstore\n      0x20\n      add\n      0x01\n      dup3\n      add\n      dup1\n      sload\n      tag_45\n      swap1\n      tag_33\n      jump\t// in\n    tag_45:\n      dup1\n      0x1f\n      add\n      0x20\n      dup1\n      swap2\n      div\n      mul\n      0x20\n      add\n      mload(0x40)\n      swap1\n      dup2\n      add\n      0x40\n      mstore\n      dup1\n      swap3\n      swap2\n      swap1\n      dup2\n      dup2\n      mstore\n      0x20\n      add\n      dup3\n      dup1\n      sload\n      tag_46\n      swap1\n      tag_33\n      jump\t// in\n    tag_46:\n      dup1\n      iszero\n      tag_47\n      jumpi\n      dup1\n      0x1f\n      lt\n      tag_48\n      jumpi\n      0x0100\n      dup1\n      dup4\n      sload\n      div\n      mul\n      dup4\n      mstore\n      swap2\n      0x20\n      add\n      swap2\n      jump(tag_47)\n    tag_48:\n      dup3\n      add\n      swap2\n      swap1\n      0x00\n      mstore\n      keccak256(0x00, 0x20)\n      swap1\n    tag_49:\n      dup2\n      sload\n      dup2\n      mstore\n      swap1\n      0x01\n      add\n      swap1\n      0x20\n      add\n      dup1\n      dup4\n      gt\n      tag_49\n      jumpi\n      dup3\n      swap1\n      sub\n      0x1f\n      and\n      dup3\n      add\n      swap2\n    tag_47:\n      pop\n      pop\n      pop\n      pop\n      pop\n      dup2\n      mstore\n      0x20\n      add\n      0x02\n      dup3\n      add\n      0x00\n      swap1\n      sload\n      swap1\n      0x0100\n      exp\n      swap1\n      div\n      0xffffffffffffffffffffffffffffffffffffffff\n      and\n      0xffffffffffffffffffffffffffffffffffffffff\n      and\n      0xffffffffffffffffffffffffffffffffffffffff\n      and\n      dup2\n      mstore\n      pop\n      pop\n      swap2\n      pop\n      pop\n        /* \"contracts/aquo/AquoContractListv3.sol\":1370:1578  function getAssetByContractAddress(address _contractAddress) public view returns (Contract memory) {... */\n      swap2\n      swap1\n      pop\n      jump\t// out\n        /* \"contracts/aquo/AquoContractListv3.sol\":1586:1777  function getContractByContractId(uint256 _contractId) public view returns (Contract memory) {... */\n    tag_20:\n        /* \"contracts/aquo/AquoContractListv3.sol\":1661:1676  Contract memory */\n      tag_50\n      tag_39\n      jump\t// in\n    tag_50:\n        /* \"contracts/aquo/AquoContractListv3.sol\":1689:1702  uint256 index */\n      0x00\n        /* \"contracts/aquo/AquoContractListv3.sol\":1705:1722  contractIdToIndex */\n      0x02\n        /* \"contracts/aquo/AquoContractListv3.sol\":1705:1735  contractIdToIndex[_contractId] */\n      0x00\n        /* \"contracts/aquo/AquoContractListv3.sol\":1723:1734  _contractId */\n      dup5\n        /* \"contracts/aquo/AquoContractListv3.sol\":1705:1735  contractIdToIndex[_contractId] */\n      dup2\n      mstore\n      0x20\n      add\n      swap1\n      dup2\n      mstore\n      0x20\n      add\n      0x00\n      keccak256\n      sload\n        /* \"contracts/aquo/AquoContractListv3.sol\":1689:1735  uint256 index = contractIdToIndex[_contractId] */\n      swap1\n      pop\n        /* \"contracts/aquo/AquoContractListv3.sol\":1753:1762  contracts */\n      0x00\n        /* \"contracts/aquo/AquoContractListv3.sol\":1763:1768  index */\n      dup2\n        /* \"contracts/aquo/AquoContractListv3.sol\":1753:1769  contracts[index] */\n      dup2\n      sload\n      dup2\n      lt\n      tag_52\n      jumpi\n      tag_53\n      tag_43\n      jump\t// in\n    tag_53:\n    tag_52:\n      swap1\n      0x00\n      mstore\n      keccak256(0x00, 0x20)\n      swap1\n      0x03\n      mul\n      add\n        /* \"contracts/aquo/AquoContractListv3.sol\":1746:1769  return contracts[index] */\n      mload(0x40)\n      dup1\n      0x60\n      add\n      0x40\n      mstore\n      swap1\n      dup2\n      0x00\n      dup3\n      add\n      sload\n      dup2\n      mstore\n      0x20\n      add\n      0x01\n      dup3\n      add\n      dup1\n      sload\n      tag_55\n      swap1\n      tag_33\n      jump\t// in\n    tag_55:\n      dup1\n      0x1f\n      add\n      0x20\n      dup1\n      swap2\n      div\n      mul\n      0x20\n      add\n      mload(0x40)\n      swap1\n      dup2\n      add\n      0x40\n      mstore\n      dup1\n      swap3\n      swap2\n      swap1\n      dup2\n      dup2\n      mstore\n      0x20\n      add\n      dup3\n      dup1\n      sload\n      tag_56\n      swap1\n      tag_33\n      jump\t// in\n    tag_56:\n      dup1\n      iszero\n      tag_57\n      jumpi\n      dup1\n      0x1f\n      lt\n      tag_58\n      jumpi\n      0x0100\n      dup1\n      dup4\n      sload\n      div\n      mul\n      dup4\n      mstore\n      swap2\n      0x20\n      add\n      swap2\n      jump(tag_57)\n    tag_58:\n      dup3\n      add\n      swap2\n      swap1\n      0x00\n      mstore\n      keccak256(0x00, 0x20)\n      swap1\n    tag_59:\n      dup2\n      sload\n      dup2\n      mstore\n      swap1\n      0x01\n      add\n      swap1\n      0x20\n      add\n      dup1\n      dup4\n      gt\n      tag_59\n      jumpi\n      dup3\n      swap1\n      sub\n      0x1f\n      and\n      dup3\n      add\n      swap2\n    tag_57:\n      pop\n      pop\n      pop\n      pop\n      pop\n      dup2\n      mstore\n      0x20\n      add\n      0x02\n      dup3\n      add\n      0x00\n      swap1\n      sload\n      swap1\n      0x0100\n      exp\n      swap1\n      div\n      0xffffffffffffffffffffffffffffffffffffffff\n      and\n      0xffffffffffffffffffffffffffffffffffffffff\n      and\n      0xffffffffffffffffffffffffffffffffffffffff\n      and\n      dup2\n      mstore\n      pop\n      pop\n      swap2\n      pop\n      pop\n        /* \"contracts/aquo/AquoContractListv3.sol\":1586:1777  function getContractByContractId(uint256 _contractId) public view returns (Contract memory) {... */\n      swap2\n      swap1\n      pop\n      jump\t// out\n        /* \"contracts/aquo/AquoContractListv3.sol\":574:1362  function listContract(address _contractAddress, string memory _ipfsAddress) public returns (uint256) {... */\n    tag_25:\n        /* \"contracts/aquo/AquoContractListv3.sol\":666:673  uint256 */\n      0x00\n        /* \"contracts/aquo/AquoContractListv3.sol\":695:716  contractAddressExists */\n      0x04\n        /* \"contracts/aquo/AquoContractListv3.sol\":695:734  contractAddressExists[_contractAddress] */\n      0x00\n        /* \"contracts/aquo/AquoContractListv3.sol\":717:733  _contractAddress */\n      dup5\n        /* \"contracts/aquo/AquoContractListv3.sol\":695:734  contractAddressExists[_contractAddress] */\n      0xffffffffffffffffffffffffffffffffffffffff\n      and\n      0xffffffffffffffffffffffffffffffffffffffff\n      and\n      dup2\n      mstore\n      0x20\n      add\n      swap1\n      dup2\n      mstore\n      0x20\n      add\n      0x00\n      keccak256\n      0x00\n      swap1\n      sload\n      swap1\n      0x0100\n      exp\n      swap1\n      div\n      0xff\n      and\n        /* \"contracts/aquo/AquoContractListv3.sol\":694:734  !contractAddressExists[_contractAddress] */\n      iszero\n        /* \"contracts/aquo/AquoContractListv3.sol\":686:770  require(!contractAddressExists[_contractAddress], \"Contract Address already exists\") */\n      tag_61\n      jumpi\n      mload(0x40)\n      0x08c379a000000000000000000000000000000000000000000000000000000000\n      dup2\n      mstore\n      0x04\n      add\n      tag_62\n      swap1\n      tag_63\n      jump\t// in\n    tag_62:\n      mload(0x40)\n      dup1\n      swap2\n      sub\n      swap1\n      revert\n    tag_61:\n        /* \"contracts/aquo/AquoContractListv3.sol\":783:801  uint256 contractId */\n      0x00\n        /* \"contracts/aquo/AquoContractListv3.sol\":804:818  nextContractId */\n      0x01\n      0x00\n        /* \"contracts/aquo/AquoContractListv3.sol\":804:820  nextContractId++ */\n      dup2\n      sload\n      dup1\n      swap3\n      swap2\n      swap1\n      tag_64\n      swap1\n      tag_65\n      jump\t// in\n    tag_64:\n      swap2\n      swap1\n      pop\n      sstore\n        /* \"contracts/aquo/AquoContractListv3.sol\":783:820  uint256 contractId = nextContractId++ */\n      swap1\n      pop\n        /* \"contracts/aquo/AquoContractListv3.sol\":831:858  Contract memory newContract */\n      0x00\n        /* \"contracts/aquo/AquoContractListv3.sol\":861:1007  Contract({... */\n      mload(0x40)\n      dup1\n      0x60\n      add\n      0x40\n      mstore\n      dup1\n        /* \"contracts/aquo/AquoContractListv3.sol\":897:907  contractId */\n      dup4\n        /* \"contracts/aquo/AquoContractListv3.sol\":861:1007  Contract({... */\n      dup2\n      mstore\n      0x20\n      add\n        /* \"contracts/aquo/AquoContractListv3.sol\":935:947  _ipfsAddress */\n      dup6\n        /* \"contracts/aquo/AquoContractListv3.sol\":861:1007  Contract({... */\n      dup2\n      mstore\n      0x20\n      add\n        /* \"contracts/aquo/AquoContractListv3.sol\":979:995  _contractAddress */\n      dup7\n        /* \"contracts/aquo/AquoContractListv3.sol\":861:1007  Contract({... */\n      0xffffffffffffffffffffffffffffffffffffffff\n      and\n      dup2\n      mstore\n      pop\n        /* \"contracts/aquo/AquoContractListv3.sol\":831:1007  Contract memory newContract = Contract({... */\n      swap1\n      pop\n        /* \"contracts/aquo/AquoContractListv3.sol\":1018:1027  contracts */\n      0x00\n        /* \"contracts/aquo/AquoContractListv3.sol\":1033:1044  newContract */\n      dup2\n        /* \"contracts/aquo/AquoContractListv3.sol\":1018:1045  contracts.push(newContract) */\n      swap1\n      dup1\n      0x01\n      dup2\n      sload\n      add\n      dup1\n      dup3\n      sstore\n      dup1\n      swap2\n      pop\n      pop\n      0x01\n      swap1\n      sub\n      swap1\n      0x00\n      mstore\n      keccak256(0x00, 0x20)\n      swap1\n      0x03\n      mul\n      add\n      0x00\n      swap1\n      swap2\n      swap1\n      swap2\n      swap1\n      swap2\n      pop\n      0x00\n      dup3\n      add\n      mload\n      dup2\n      0x00\n      add\n      sstore\n      0x20\n      dup3\n      add\n      mload\n      dup2\n      0x01\n      add\n      swap1\n      dup2\n      tag_67\n      swap2\n      swap1\n      tag_68\n      jump\t// in\n    tag_67:\n      pop\n      0x40\n      dup3\n      add\n      mload\n      dup2\n      0x02\n      add\n      exp(0x0100, 0x00)\n      dup2\n      sload\n      dup2\n      0xffffffffffffffffffffffffffffffffffffffff\n      mul\n      not\n      and\n      swap1\n      dup4\n      0xffffffffffffffffffffffffffffffffffffffff\n      and\n      mul\n      or\n      swap1\n      sstore\n      pop\n      pop\n      pop\n        /* \"contracts/aquo/AquoContractListv3.sol\":1056:1069  uint256 index */\n      0x00\n        /* \"contracts/aquo/AquoContractListv3.sol\":1091:1092  1 */\n      0x01\n        /* \"contracts/aquo/AquoContractListv3.sol\":1072:1081  contracts */\n      0x00\n        /* \"contracts/aquo/AquoContractListv3.sol\":1072:1088  contracts.length */\n      dup1\n      sload\n      swap1\n      pop\n        /* \"contracts/aquo/AquoContractListv3.sol\":1072:1092  contracts.length - 1 */\n      tag_69\n      swap2\n      swap1\n      tag_70\n      jump\t// in\n    tag_69:\n        /* \"contracts/aquo/AquoContractListv3.sol\":1056:1092  uint256 index = contracts.length - 1 */\n      swap1\n      pop\n        /* \"contracts/aquo/AquoContractListv3.sol\":1135:1140  index */\n      dup1\n        /* \"contracts/aquo/AquoContractListv3.sol\":1103:1120  contractIdToIndex */\n      0x02\n        /* \"contracts/aquo/AquoContractListv3.sol\":1103:1132  contractIdToIndex[contractId] */\n      0x00\n        /* \"contracts/aquo/AquoContractListv3.sol\":1121:1131  contractId */\n      dup6\n        /* \"contracts/aquo/AquoContractListv3.sol\":1103:1132  contractIdToIndex[contractId] */\n      dup2\n      mstore\n      0x20\n      add\n      swap1\n      dup2\n      mstore\n      0x20\n      add\n      0x00\n      keccak256\n        /* \"contracts/aquo/AquoContractListv3.sol\":1103:1140  contractIdToIndex[contractId] = index */\n      dup2\n      swap1\n      sstore\n      pop\n        /* \"contracts/aquo/AquoContractListv3.sol\":1194:1199  index */\n      dup1\n        /* \"contracts/aquo/AquoContractListv3.sol\":1151:1173  contractAddressToIndex */\n      0x03\n        /* \"contracts/aquo/AquoContractListv3.sol\":1151:1191  contractAddressToIndex[_contractAddress] */\n      0x00\n        /* \"contracts/aquo/AquoContractListv3.sol\":1174:1190  _contractAddress */\n      dup9\n        /* \"contracts/aquo/AquoContractListv3.sol\":1151:1191  contractAddressToIndex[_contractAddress] */\n      0xffffffffffffffffffffffffffffffffffffffff\n      and\n      0xffffffffffffffffffffffffffffffffffffffff\n      and\n      dup2\n      mstore\n      0x20\n      add\n      swap1\n      dup2\n      mstore\n      0x20\n      add\n      0x00\n      keccak256\n        /* \"contracts/aquo/AquoContractListv3.sol\":1151:1199  contractAddressToIndex[_contractAddress] = index */\n      dup2\n      swap1\n      sstore\n      pop\n        /* \"contracts/aquo/AquoContractListv3.sol\":1252:1256  true */\n      0x01\n        /* \"contracts/aquo/AquoContractListv3.sol\":1210:1231  contractAddressExists */\n      0x04\n        /* \"contracts/aquo/AquoContractListv3.sol\":1210:1249  contractAddressExists[_contractAddress] */\n      0x00\n        /* \"contracts/aquo/AquoContractListv3.sol\":1232:1248  _contractAddress */\n      dup9\n        /* \"contracts/aquo/AquoContractListv3.sol\":1210:1249  contractAddressExists[_contractAddress] */\n      0xffffffffffffffffffffffffffffffffffffffff\n      and\n      0xffffffffffffffffffffffffffffffffffffffff\n      and\n      dup2\n      mstore\n      0x20\n      add\n      swap1\n      dup2\n      mstore\n      0x20\n      add\n      0x00\n      keccak256\n      0x00\n        /* \"contracts/aquo/AquoContractListv3.sol\":1210:1256  contractAddressExists[_contractAddress] = true */\n      0x0100\n      exp\n      dup2\n      sload\n      dup2\n      0xff\n      mul\n      not\n      and\n      swap1\n      dup4\n      iszero\n      iszero\n      mul\n      or\n      swap1\n      sstore\n      pop\n        /* \"contracts/aquo/AquoContractListv3.sol\":1308:1313  false */\n      0x00\n        /* \"contracts/aquo/AquoContractListv3.sol\":1267:1287  unallocatedContracts */\n      0x05\n        /* \"contracts/aquo/AquoContractListv3.sol\":1267:1305  unallocatedContracts[_contractAddress] */\n      0x00\n        /* \"contracts/aquo/AquoContractListv3.sol\":1288:1304  _contractAddress */\n      dup9\n        /* \"contracts/aquo/AquoContractListv3.sol\":1267:1305  unallocatedContracts[_contractAddress] */\n      0xffffffffffffffffffffffffffffffffffffffff\n      and\n      0xffffffffffffffffffffffffffffffffffffffff\n      and\n      dup2\n      mstore\n      0x20\n      add\n      swap1\n      dup2\n      mstore\n      0x20\n      add\n      0x00\n      keccak256\n      0x00\n        /* \"contracts/aquo/AquoContractListv3.sol\":1267:1313  unallocatedContracts[_contractAddress] = false */\n      0x0100\n      exp\n      dup2\n      sload\n      dup2\n      0xff\n      mul\n      not\n      and\n      swap1\n      dup4\n      iszero\n      iszero\n      mul\n      or\n      swap1\n      sstore\n      pop\n        /* \"contracts/aquo/AquoContractListv3.sol\":1344:1354  contractId */\n      dup3\n        /* \"contracts/aquo/AquoContractListv3.sol\":1337:1354  return contractId */\n      swap4\n      pop\n      pop\n      pop\n      pop\n        /* \"contracts/aquo/AquoContractListv3.sol\":574:1362  function listContract(address _contractAddress, string memory _ipfsAddress) public returns (uint256) {... */\n      swap3\n      swap2\n      pop\n      pop\n      jump\t// out\n    tag_39:\n      mload(0x40)\n      dup1\n      0x60\n      add\n      0x40\n      mstore\n      dup1\n      0x00\n      dup2\n      mstore\n      0x20\n      add\n      0x60\n      dup2\n      mstore\n      0x20\n      add\n      and(0xffffffffffffffffffffffffffffffffffffffff, 0x00)\n      dup2\n      mstore\n      pop\n      swap1\n      jump\t// out\n        /* \"#utility.yul\":7:145   */\n    tag_71:\n        /* \"#utility.yul\":98:104   */\n      0x00\n        /* \"#utility.yul\":132:137   */\n      dup2\n        /* \"#utility.yul\":126:138   */\n      mload\n        /* \"#utility.yul\":116:138   */\n      swap1\n      pop\n        /* \"#utility.yul\":7:145   */\n      swap2\n      swap1\n      pop\n      jump\t// out\n        /* \"#utility.yul\":151:359   */\n    tag_72:\n        /* \"#utility.yul\":274:285   */\n      0x00\n        /* \"#utility.yul\":308:314   */\n      dup3\n        /* \"#utility.yul\":303:306   */\n      dup3\n        /* \"#utility.yul\":296:315   */\n      mstore\n        /* \"#utility.yul\":348:352   */\n      0x20\n        /* \"#utility.yul\":343:346   */\n      dup3\n        /* \"#utility.yul\":339:353   */\n      add\n        /* \"#utility.yul\":324:353   */\n      swap1\n      pop\n        /* \"#utility.yul\":151:359   */\n      swap3\n      swap2\n      pop\n      pop\n      jump\t// out\n        /* \"#utility.yul\":365:521   */\n    tag_73:\n        /* \"#utility.yul\":456:460   */\n      0x00\n        /* \"#utility.yul\":479:482   */\n      dup2\n        /* \"#utility.yul\":471:482   */\n      swap1\n      pop\n        /* \"#utility.yul\":509:513   */\n      0x20\n        /* \"#utility.yul\":504:507   */\n      dup3\n        /* \"#utility.yul\":500:514   */\n      add\n        /* \"#utility.yul\":492:514   */\n      swap1\n      pop\n        /* \"#utility.yul\":365:521   */\n      swap2\n      swap1\n      pop\n      jump\t// out\n        /* \"#utility.yul\":527:604   */\n    tag_74:\n        /* \"#utility.yul\":564:571   */\n      0x00\n        /* \"#utility.yul\":593:598   */\n      dup2\n        /* \"#utility.yul\":582:598   */\n      swap1\n      pop\n        /* \"#utility.yul\":527:604   */\n      swap2\n      swap1\n      pop\n      jump\t// out\n        /* \"#utility.yul\":610:718   */\n    tag_75:\n        /* \"#utility.yul\":687:711   */\n      tag_132\n        /* \"#utility.yul\":705:710   */\n      dup2\n        /* \"#utility.yul\":687:711   */\n      tag_74\n      jump\t// in\n    tag_132:\n        /* \"#utility.yul\":682:685   */\n      dup3\n        /* \"#utility.yul\":675:712   */\n      mstore\n        /* \"#utility.yul\":610:718   */\n      pop\n      pop\n      jump\t// out\n        /* \"#utility.yul\":724:823   */\n    tag_76:\n        /* \"#utility.yul\":776:782   */\n      0x00\n        /* \"#utility.yul\":810:815   */\n      dup2\n        /* \"#utility.yul\":804:816   */\n      mload\n        /* \"#utility.yul\":794:816   */\n      swap1\n      pop\n        /* \"#utility.yul\":724:823   */\n      swap2\n      swap1\n      pop\n      jump\t// out\n        /* \"#utility.yul\":829:988   */\n    tag_77:\n        /* \"#utility.yul\":903:914   */\n      0x00\n        /* \"#utility.yul\":937:943   */\n      dup3\n        /* \"#utility.yul\":932:935   */\n      dup3\n        /* \"#utility.yul\":925:944   */\n      mstore\n        /* \"#utility.yul\":977:981   */\n      0x20\n        /* \"#utility.yul\":972:975   */\n      dup3\n        /* \"#utility.yul\":968:982   */\n      add\n        /* \"#utility.yul\":953:982   */\n      swap1\n      pop\n        /* \"#utility.yul\":829:988   */\n      swap3\n      swap2\n      pop\n      pop\n      jump\t// out\n        /* \"#utility.yul\":994:1240   */\n    tag_78:\n        /* \"#utility.yul\":1075:1076   */\n      0x00\n        /* \"#utility.yul\":1085:1198   */\n    tag_136:\n        /* \"#utility.yul\":1099:1105   */\n      dup4\n        /* \"#utility.yul\":1096:1097   */\n      dup2\n        /* \"#utility.yul\":1093:1106   */\n      lt\n        /* \"#utility.yul\":1085:1198   */\n      iszero\n      tag_138\n      jumpi\n        /* \"#utility.yul\":1184:1185   */\n      dup1\n        /* \"#utility.yul\":1179:1182   */\n      dup3\n        /* \"#utility.yul\":1175:1186   */\n      add\n        /* \"#utility.yul\":1169:1187   */\n      mload\n        /* \"#utility.yul\":1165:1166   */\n      dup2\n        /* \"#utility.yul\":1160:1163   */\n      dup5\n        /* \"#utility.yul\":1156:1167   */\n      add\n        /* \"#utility.yul\":1149:1188   */\n      mstore\n        /* \"#utility.yul\":1121:1123   */\n      0x20\n        /* \"#utility.yul\":1118:1119   */\n      dup2\n        /* \"#utility.yul\":1114:1124   */\n      add\n        /* \"#utility.yul\":1109:1124   */\n      swap1\n      pop\n        /* \"#utility.yul\":1085:1198   */\n      jump(tag_136)\n    tag_138:\n        /* \"#utility.yul\":1232:1233   */\n      0x00\n        /* \"#utility.yul\":1223:1229   */\n      dup5\n        /* \"#utility.yul\":1218:1221   */\n      dup5\n        /* \"#utility.yul\":1214:1230   */\n      add\n        /* \"#utility.yul\":1207:1234   */\n      mstore\n        /* \"#utility.yul\":1056:1240   */\n      pop\n        /* \"#utility.yul\":994:1240   */\n      pop\n      pop\n      pop\n      jump\t// out\n        /* \"#utility.yul\":1246:1348   */\n    tag_79:\n        /* \"#utility.yul\":1287:1293   */\n      0x00\n        /* \"#utility.yul\":1338:1340   */\n      0x1f\n        /* \"#utility.yul\":1334:1341   */\n      not\n        /* \"#utility.yul\":1329:1331   */\n      0x1f\n        /* \"#utility.yul\":1322:1327   */\n      dup4\n        /* \"#utility.yul\":1318:1332   */\n      add\n        /* \"#utility.yul\":1314:1342   */\n      and\n        /* \"#utility.yul\":1304:1342   */\n      swap1\n      pop\n        /* \"#utility.yul\":1246:1348   */\n      swap2\n      swap1\n      pop\n      jump\t// out\n        /* \"#utility.yul\":1354:1711   */\n    tag_80:\n        /* \"#utility.yul\":1432:1435   */\n      0x00\n        /* \"#utility.yul\":1460:1499   */\n      tag_141\n        /* \"#utility.yul\":1493:1498   */\n      dup3\n        /* \"#utility.yul\":1460:1499   */\n      tag_76\n      jump\t// in\n    tag_141:\n        /* \"#utility.yul\":1515:1576   */\n      tag_142\n        /* \"#utility.yul\":1569:1575   */\n      dup2\n        /* \"#utility.yul\":1564:1567   */\n      dup6\n        /* \"#utility.yul\":1515:1576   */\n      tag_77\n      jump\t// in\n    tag_142:\n        /* \"#utility.yul\":1508:1576   */\n      swap4\n      pop\n        /* \"#utility.yul\":1585:1650   */\n      tag_143\n        /* \"#utility.yul\":1643:1649   */\n      dup2\n        /* \"#utility.yul\":1638:1641   */\n      dup6\n        /* \"#utility.yul\":1631:1635   */\n      0x20\n        /* \"#utility.yul\":1624:1629   */\n      dup7\n        /* \"#utility.yul\":1620:1636   */\n      add\n        /* \"#utility.yul\":1585:1650   */\n      tag_78\n      jump\t// in\n    tag_143:\n        /* \"#utility.yul\":1675:1704   */\n      tag_144\n        /* \"#utility.yul\":1697:1703   */\n      dup2\n        /* \"#utility.yul\":1675:1704   */\n      tag_79\n      jump\t// in\n    tag_144:\n        /* \"#utility.yul\":1670:1673   */\n      dup5\n        /* \"#utility.yul\":1666:1705   */\n      add\n        /* \"#utility.yul\":1659:1705   */\n      swap2\n      pop\n        /* \"#utility.yul\":1436:1711   */\n      pop\n        /* \"#utility.yul\":1354:1711   */\n      swap3\n      swap2\n      pop\n      pop\n      jump\t// out\n        /* \"#utility.yul\":1717:1843   */\n    tag_81:\n        /* \"#utility.yul\":1754:1761   */\n      0x00\n        /* \"#utility.yul\":1794:1836   */\n      0xffffffffffffffffffffffffffffffffffffffff\n        /* \"#utility.yul\":1787:1792   */\n      dup3\n        /* \"#utility.yul\":1783:1837   */\n      and\n        /* \"#utility.yul\":1772:1837   */\n      swap1\n      pop\n        /* \"#utility.yul\":1717:1843   */\n      swap2\n      swap1\n      pop\n      jump\t// out\n        /* \"#utility.yul\":1849:1945   */\n    tag_82:\n        /* \"#utility.yul\":1886:1893   */\n      0x00\n        /* \"#utility.yul\":1915:1939   */\n      tag_147\n        /* \"#utility.yul\":1933:1938   */\n      dup3\n        /* \"#utility.yul\":1915:1939   */\n      tag_81\n      jump\t// in\n    tag_147:\n        /* \"#utility.yul\":1904:1939   */\n      swap1\n      pop\n        /* \"#utility.yul\":1849:1945   */\n      swap2\n      swap1\n      pop\n      jump\t// out\n        /* \"#utility.yul\":1951:2059   */\n    tag_83:\n        /* \"#utility.yul\":2028:2052   */\n      tag_149\n        /* \"#utility.yul\":2046:2051   */\n      dup2\n        /* \"#utility.yul\":2028:2052   */\n      tag_82\n      jump\t// in\n    tag_149:\n        /* \"#utility.yul\":2023:2026   */\n      dup3\n        /* \"#utility.yul\":2016:2053   */\n      mstore\n        /* \"#utility.yul\":1951:2059   */\n      pop\n      pop\n      jump\t// out\n        /* \"#utility.yul\":2133:2925   */\n    tag_84:\n        /* \"#utility.yul\":2240:2243   */\n      0x00\n        /* \"#utility.yul\":2276:2280   */\n      0x60\n        /* \"#utility.yul\":2271:2274   */\n      dup4\n        /* \"#utility.yul\":2267:2281   */\n      add\n        /* \"#utility.yul\":2369:2373   */\n      0x00\n        /* \"#utility.yul\":2362:2367   */\n      dup4\n        /* \"#utility.yul\":2358:2374   */\n      add\n        /* \"#utility.yul\":2352:2375   */\n      mload\n        /* \"#utility.yul\":2388:2451   */\n      tag_151\n        /* \"#utility.yul\":2445:2449   */\n      0x00\n        /* \"#utility.yul\":2440:2443   */\n      dup7\n        /* \"#utility.yul\":2436:2450   */\n      add\n        /* \"#utility.yul\":2422:2434   */\n      dup3\n        /* \"#utility.yul\":2388:2451   */\n      tag_75\n      jump\t// in\n    tag_151:\n        /* \"#utility.yul\":2291:2461   */\n      pop\n        /* \"#utility.yul\":2550:2554   */\n      0x20\n        /* \"#utility.yul\":2543:2548   */\n      dup4\n        /* \"#utility.yul\":2539:2555   */\n      add\n        /* \"#utility.yul\":2533:2556   */\n      mload\n        /* \"#utility.yul\":2603:2606   */\n      dup5\n        /* \"#utility.yul\":2597:2601   */\n      dup3\n        /* \"#utility.yul\":2593:2607   */\n      sub\n        /* \"#utility.yul\":2586:2590   */\n      0x20\n        /* \"#utility.yul\":2581:2584   */\n      dup7\n        /* \"#utility.yul\":2577:2591   */\n      add\n        /* \"#utility.yul\":2570:2608   */\n      mstore\n        /* \"#utility.yul\":2629:2702   */\n      tag_152\n        /* \"#utility.yul\":2697:2701   */\n      dup3\n        /* \"#utility.yul\":2683:2695   */\n      dup3\n        /* \"#utility.yul\":2629:2702   */\n      tag_80\n      jump\t// in\n    tag_152:\n        /* \"#utility.yul\":2621:2702   */\n      swap2\n      pop\n        /* \"#utility.yul\":2471:2713   */\n      pop\n        /* \"#utility.yul\":2806:2810   */\n      0x40\n        /* \"#utility.yul\":2799:2804   */\n      dup4\n        /* \"#utility.yul\":2795:2811   */\n      add\n        /* \"#utility.yul\":2789:2812   */\n      mload\n        /* \"#utility.yul\":2825:2888   */\n      tag_153\n        /* \"#utility.yul\":2882:2886   */\n      0x40\n        /* \"#utility.yul\":2877:2880   */\n      dup7\n        /* \"#utility.yul\":2873:2887   */\n      add\n        /* \"#utility.yul\":2859:2871   */\n      dup3\n        /* \"#utility.yul\":2825:2888   */\n      tag_83\n      jump\t// in\n    tag_153:\n        /* \"#utility.yul\":2723:2898   */\n      pop\n        /* \"#utility.yul\":2915:2919   */\n      dup1\n        /* \"#utility.yul\":2908:2919   */\n      swap2\n      pop\n        /* \"#utility.yul\":2245:2925   */\n      pop\n        /* \"#utility.yul\":2133:2925   */\n      swap3\n      swap2\n      pop\n      pop\n      jump\t// out\n        /* \"#utility.yul\":2931:3183   */\n    tag_85:\n        /* \"#utility.yul\":3048:3058   */\n      0x00\n        /* \"#utility.yul\":3083:3177   */\n      tag_155\n        /* \"#utility.yul\":3173:3176   */\n      dup4\n        /* \"#utility.yul\":3165:3171   */\n      dup4\n        /* \"#utility.yul\":3083:3177   */\n      tag_84\n      jump\t// in\n    tag_155:\n        /* \"#utility.yul\":3069:3177   */\n      swap1\n      pop\n        /* \"#utility.yul\":2931:3183   */\n      swap3\n      swap2\n      pop\n      pop\n      jump\t// out\n        /* \"#utility.yul\":3189:3326   */\n    tag_86:\n        /* \"#utility.yul\":3283:3287   */\n      0x00\n        /* \"#utility.yul\":3315:3319   */\n      0x20\n        /* \"#utility.yul\":3310:3313   */\n      dup3\n        /* \"#utility.yul\":3306:3320   */\n      add\n        /* \"#utility.yul\":3298:3320   */\n      swap1\n      pop\n        /* \"#utility.yul\":3189:3326   */\n      swap2\n      swap1\n      pop\n      jump\t// out\n        /* \"#utility.yul\":3404:4507   */\n    tag_87:\n        /* \"#utility.yul\":3571:3574   */\n      0x00\n        /* \"#utility.yul\":3600:3678   */\n      tag_158\n        /* \"#utility.yul\":3672:3677   */\n      dup3\n        /* \"#utility.yul\":3600:3678   */\n      tag_71\n      jump\t// in\n    tag_158:\n        /* \"#utility.yul\":3694:3804   */\n      tag_159\n        /* \"#utility.yul\":3797:3803   */\n      dup2\n        /* \"#utility.yul\":3792:3795   */\n      dup6\n        /* \"#utility.yul\":3694:3804   */\n      tag_72\n      jump\t// in\n    tag_159:\n        /* \"#utility.yul\":3687:3804   */\n      swap4\n      pop\n        /* \"#utility.yul\":3830:3833   */\n      dup4\n        /* \"#utility.yul\":3875:3879   */\n      0x20\n        /* \"#utility.yul\":3867:3873   */\n      dup3\n        /* \"#utility.yul\":3863:3880   */\n      mul\n        /* \"#utility.yul\":3858:3861   */\n      dup6\n        /* \"#utility.yul\":3854:3881   */\n      add\n        /* \"#utility.yul\":3905:3985   */\n      tag_160\n        /* \"#utility.yul\":3979:3984   */\n      dup6\n        /* \"#utility.yul\":3905:3985   */\n      tag_73\n      jump\t// in\n    tag_160:\n        /* \"#utility.yul\":4008:4015   */\n      dup1\n        /* \"#utility.yul\":4039:4040   */\n      0x00\n        /* \"#utility.yul\":4024:4462   */\n    tag_161:\n        /* \"#utility.yul\":4049:4055   */\n      dup6\n        /* \"#utility.yul\":4046:4047   */\n      dup2\n        /* \"#utility.yul\":4043:4056   */\n      lt\n        /* \"#utility.yul\":4024:4462   */\n      iszero\n      tag_163\n      jumpi\n        /* \"#utility.yul\":4120:4129   */\n      dup5\n        /* \"#utility.yul\":4114:4118   */\n      dup5\n        /* \"#utility.yul\":4110:4130   */\n      sub\n        /* \"#utility.yul\":4105:4108   */\n      dup10\n        /* \"#utility.yul\":4098:4131   */\n      mstore\n        /* \"#utility.yul\":4171:4177   */\n      dup2\n        /* \"#utility.yul\":4165:4178   */\n      mload\n        /* \"#utility.yul\":4199:4311   */\n      tag_164\n        /* \"#utility.yul\":4306:4310   */\n      dup6\n        /* \"#utility.yul\":4291:4304   */\n      dup3\n        /* \"#utility.yul\":4199:4311   */\n      tag_85\n      jump\t// in\n    tag_164:\n        /* \"#utility.yul\":4191:4311   */\n      swap5\n      pop\n        /* \"#utility.yul\":4334:4418   */\n      tag_165\n        /* \"#utility.yul\":4411:4417   */\n      dup4\n        /* \"#utility.yul\":4334:4418   */\n      tag_86\n      jump\t// in\n    tag_165:\n        /* \"#utility.yul\":4324:4418   */\n      swap3\n      pop\n        /* \"#utility.yul\":4447:4451   */\n      0x20\n        /* \"#utility.yul\":4442:4445   */\n      dup11\n        /* \"#utility.yul\":4438:4452   */\n      add\n        /* \"#utility.yul\":4431:4452   */\n      swap10\n      pop\n        /* \"#utility.yul\":4084:4462   */\n      pop\n        /* \"#utility.yul\":4071:4072   */\n      0x01\n        /* \"#utility.yul\":4068:4069   */\n      dup2\n        /* \"#utility.yul\":4064:4073   */\n      add\n        /* \"#utility.yul\":4059:4073   */\n      swap1\n      pop\n        /* \"#utility.yul\":4024:4462   */\n      jump(tag_161)\n    tag_163:\n        /* \"#utility.yul\":4028:4042   */\n      pop\n        /* \"#utility.yul\":4478:4482   */\n      dup3\n        /* \"#utility.yul\":4471:4482   */\n      swap8\n      pop\n        /* \"#utility.yul\":4498:4501   */\n      dup8\n        /* \"#utility.yul\":4491:4501   */\n      swap6\n      pop\n        /* \"#utility.yul\":3576:4507   */\n      pop\n      pop\n      pop\n      pop\n      pop\n        /* \"#utility.yul\":3404:4507   */\n      swap3\n      swap2\n      pop\n      pop\n      jump\t// out\n        /* \"#utility.yul\":4513:4982   */\n    tag_10:\n        /* \"#utility.yul\":4704:4708   */\n      0x00\n        /* \"#utility.yul\":4742:4744   */\n      0x20\n        /* \"#utility.yul\":4731:4740   */\n      dup3\n        /* \"#utility.yul\":4727:4745   */\n      add\n        /* \"#utility.yul\":4719:4745   */\n      swap1\n      pop\n        /* \"#utility.yul\":4791:4800   */\n      dup2\n        /* \"#utility.yul\":4785:4789   */\n      dup2\n        /* \"#utility.yul\":4781:4801   */\n      sub\n        /* \"#utility.yul\":4777:4778   */\n      0x00\n        /* \"#utility.yul\":4766:4775   */\n      dup4\n        /* \"#utility.yul\":4762:4779   */\n      add\n        /* \"#utility.yul\":4755:4802   */\n      mstore\n        /* \"#utility.yul\":4819:4975   */\n      tag_167\n        /* \"#utility.yul\":4970:4974   */\n      dup2\n        /* \"#utility.yul\":4961:4967   */\n      dup5\n        /* \"#utility.yul\":4819:4975   */\n      tag_87\n      jump\t// in\n    tag_167:\n        /* \"#utility.yul\":4811:4975   */\n      swap1\n      pop\n        /* \"#utility.yul\":4513:4982   */\n      swap3\n      swap2\n      pop\n      pop\n      jump\t// out\n        /* \"#utility.yul\":4988:5063   */\n    tag_88:\n        /* \"#utility.yul\":5021:5027   */\n      0x00\n        /* \"#utility.yul\":5054:5056   */\n      0x40\n        /* \"#utility.yul\":5048:5057   */\n      mload\n        /* \"#utility.yul\":5038:5057   */\n      swap1\n      pop\n        /* \"#utility.yul\":4988:5063   */\n      swap1\n      jump\t// out\n        /* \"#utility.yul\":5069:5186   */\n    tag_89:\n        /* \"#utility.yul\":5178:5179   */\n      0x00\n        /* \"#utility.yul\":5175:5176   */\n      dup1\n        /* \"#utility.yul\":5168:5180   */\n      revert\n        /* \"#utility.yul\":5192:5309   */\n    tag_90:\n        /* \"#utility.yul\":5301:5302   */\n      0x00\n        /* \"#utility.yul\":5298:5299   */\n      dup1\n        /* \"#utility.yul\":5291:5303   */\n      revert\n        /* \"#utility.yul\":5315:5437   */\n    tag_91:\n        /* \"#utility.yul\":5388:5412   */\n      tag_172\n        /* \"#utility.yul\":5406:5411   */\n      dup2\n        /* \"#utility.yul\":5388:5412   */\n      tag_82\n      jump\t// in\n    tag_172:\n        /* \"#utility.yul\":5381:5386   */\n      dup2\n        /* \"#utility.yul\":5378:5413   */\n      eq\n        /* \"#utility.yul\":5368:5431   */\n      tag_173\n      jumpi\n        /* \"#utility.yul\":5427:5428   */\n      0x00\n        /* \"#utility.yul\":5424:5425   */\n      dup1\n        /* \"#utility.yul\":5417:5429   */\n      revert\n        /* \"#utility.yul\":5368:5431   */\n    tag_173:\n        /* \"#utility.yul\":5315:5437   */\n      pop\n      jump\t// out\n        /* \"#utility.yul\":5443:5582   */\n    tag_92:\n        /* \"#utility.yul\":5489:5494   */\n      0x00\n        /* \"#utility.yul\":5527:5533   */\n      dup2\n        /* \"#utility.yul\":5514:5534   */\n      calldataload\n        /* \"#utility.yul\":5505:5534   */\n      swap1\n      pop\n        /* \"#utility.yul\":5543:5576   */\n      tag_175\n        /* \"#utility.yul\":5570:5575   */\n      dup2\n        /* \"#utility.yul\":5543:5576   */\n      tag_91\n      jump\t// in\n    tag_175:\n        /* \"#utility.yul\":5443:5582   */\n      swap3\n      swap2\n      pop\n      pop\n      jump\t// out\n        /* \"#utility.yul\":5588:5917   */\n    tag_13:\n        /* \"#utility.yul\":5647:5653   */\n      0x00\n        /* \"#utility.yul\":5696:5698   */\n      0x20\n        /* \"#utility.yul\":5684:5693   */\n      dup3\n        /* \"#utility.yul\":5675:5682   */\n      dup5\n        /* \"#utility.yul\":5671:5694   */\n      sub\n        /* \"#utility.yul\":5667:5699   */\n      slt\n        /* \"#utility.yul\":5664:5783   */\n      iszero\n      tag_177\n      jumpi\n        /* \"#utility.yul\":5702:5781   */\n      tag_178\n      tag_89\n      jump\t// in\n    tag_178:\n        /* \"#utility.yul\":5664:5783   */\n    tag_177:\n        /* \"#utility.yul\":5822:5823   */\n      0x00\n        /* \"#utility.yul\":5847:5900   */\n      tag_179\n        /* \"#utility.yul\":5892:5899   */\n      dup5\n        /* \"#utility.yul\":5883:5889   */\n      dup3\n        /* \"#utility.yul\":5872:5881   */\n      dup6\n        /* \"#utility.yul\":5868:5890   */\n      add\n        /* \"#utility.yul\":5847:5900   */\n      tag_92\n      jump\t// in\n    tag_179:\n        /* \"#utility.yul\":5837:5900   */\n      swap2\n      pop\n        /* \"#utility.yul\":5793:5910   */\n      pop\n        /* \"#utility.yul\":5588:5917   */\n      swap3\n      swap2\n      pop\n      pop\n      jump\t// out\n        /* \"#utility.yul\":5991:6793   */\n    tag_93:\n        /* \"#utility.yul\":6108:6111   */\n      0x00\n        /* \"#utility.yul\":6144:6148   */\n      0x60\n        /* \"#utility.yul\":6139:6142   */\n      dup4\n        /* \"#utility.yul\":6135:6149   */\n      add\n        /* \"#utility.yul\":6237:6241   */\n      0x00\n        /* \"#utility.yul\":6230:6235   */\n      dup4\n        /* \"#utility.yul\":6226:6242   */\n      add\n        /* \"#utility.yul\":6220:6243   */\n      mload\n        /* \"#utility.yul\":6256:6319   */\n      tag_181\n        /* \"#utility.yul\":6313:6317   */\n      0x00\n        /* \"#utility.yul\":6308:6311   */\n      dup7\n        /* \"#utility.yul\":6304:6318   */\n      add\n        /* \"#utility.yul\":6290:6302   */\n      dup3\n        /* \"#utility.yul\":6256:6319   */\n      tag_75\n      jump\t// in\n    tag_181:\n        /* \"#utility.yul\":6159:6329   */\n      pop\n        /* \"#utility.yul\":6418:6422   */\n      0x20\n        /* \"#utility.yul\":6411:6416   */\n      dup4\n        /* \"#utility.yul\":6407:6423   */\n      add\n        /* \"#utility.yul\":6401:6424   */\n      mload\n        /* \"#utility.yul\":6471:6474   */\n      dup5\n        /* \"#utility.yul\":6465:6469   */\n      dup3\n        /* \"#utility.yul\":6461:6475   */\n      sub\n        /* \"#utility.yul\":6454:6458   */\n      0x20\n        /* \"#utility.yul\":6449:6452   */\n      dup7\n        /* \"#utility.yul\":6445:6459   */\n      add\n        /* \"#utility.yul\":6438:6476   */\n      mstore\n        /* \"#utility.yul\":6497:6570   */\n      tag_182\n        /* \"#utility.yul\":6565:6569   */\n      dup3\n        /* \"#utility.yul\":6551:6563   */\n      dup3\n        /* \"#utility.yul\":6497:6570   */\n      tag_80\n      jump\t// in\n    tag_182:\n        /* \"#utility.yul\":6489:6570   */\n      swap2\n      pop\n        /* \"#utility.yul\":6339:6581   */\n      pop\n        /* \"#utility.yul\":6674:6678   */\n      0x40\n        /* \"#utility.yul\":6667:6672   */\n      dup4\n        /* \"#utility.yul\":6663:6679   */\n      add\n        /* \"#utility.yul\":6657:6680   */\n      mload\n        /* \"#utility.yul\":6693:6756   */\n      tag_183\n        /* \"#utility.yul\":6750:6754   */\n      0x40\n        /* \"#utility.yul\":6745:6748   */\n      dup7\n        /* \"#utility.yul\":6741:6755   */\n      add\n        /* \"#utility.yul\":6727:6739   */\n      dup3\n        /* \"#utility.yul\":6693:6756   */\n      tag_83\n      jump\t// in\n    tag_183:\n        /* \"#utility.yul\":6591:6766   */\n      pop\n        /* \"#utility.yul\":6783:6787   */\n      dup1\n        /* \"#utility.yul\":6776:6787   */\n      swap2\n      pop\n        /* \"#utility.yul\":6113:6793   */\n      pop\n        /* \"#utility.yul\":5991:6793   */\n      swap3\n      swap2\n      pop\n      pop\n      jump\t// out\n        /* \"#utility.yul\":6799:7168   */\n    tag_16:\n        /* \"#utility.yul\":6940:6944   */\n      0x00\n        /* \"#utility.yul\":6978:6980   */\n      0x20\n        /* \"#utility.yul\":6967:6976   */\n      dup3\n        /* \"#utility.yul\":6963:6981   */\n      add\n        /* \"#utility.yul\":6955:6981   */\n      swap1\n      pop\n        /* \"#utility.yul\":7027:7036   */\n      dup2\n        /* \"#utility.yul\":7021:7025   */\n      dup2\n        /* \"#utility.yul\":7017:7037   */\n      sub\n        /* \"#utility.yul\":7013:7014   */\n      0x00\n        /* \"#utility.yul\":7002:7011   */\n      dup4\n        /* \"#utility.yul\":6998:7015   */\n      add\n        /* \"#utility.yul\":6991:7038   */\n      mstore\n        /* \"#utility.yul\":7055:7161   */\n      tag_185\n        /* \"#utility.yul\":7156:7160   */\n      dup2\n        /* \"#utility.yul\":7147:7153   */\n      dup5\n        /* \"#utility.yul\":7055:7161   */\n      tag_93\n      jump\t// in\n    tag_185:\n        /* \"#utility.yul\":7047:7161   */\n      swap1\n      pop\n        /* \"#utility.yul\":6799:7168   */\n      swap3\n      swap2\n      pop\n      pop\n      jump\t// out\n        /* \"#utility.yul\":7174:7296   */\n    tag_94:\n        /* \"#utility.yul\":7247:7271   */\n      tag_187\n        /* \"#utility.yul\":7265:7270   */\n      dup2\n        /* \"#utility.yul\":7247:7271   */\n      tag_74\n      jump\t// in\n    tag_187:\n        /* \"#utility.yul\":7240:7245   */\n      dup2\n        /* \"#utility.yul\":7237:7272   */\n      eq\n        /* \"#utility.yul\":7227:7290   */\n      tag_188\n      jumpi\n        /* \"#utility.yul\":7286:7287   */\n      0x00\n        /* \"#utility.yul\":7283:7284   */\n      dup1\n        /* \"#utility.yul\":7276:7288   */\n      revert\n        /* \"#utility.yul\":7227:7290   */\n    tag_188:\n        /* \"#utility.yul\":7174:7296   */\n      pop\n      jump\t// out\n        /* \"#utility.yul\":7302:7441   */\n    tag_95:\n        /* \"#utility.yul\":7348:7353   */\n      0x00\n        /* \"#utility.yul\":7386:7392   */\n      dup2\n        /* \"#utility.yul\":7373:7393   */\n      calldataload\n        /* \"#utility.yul\":7364:7393   */\n      swap1\n      pop\n        /* \"#utility.yul\":7402:7435   */\n      tag_190\n        /* \"#utility.yul\":7429:7434   */\n      dup2\n        /* \"#utility.yul\":7402:7435   */\n      tag_94\n      jump\t// in\n    tag_190:\n        /* \"#utility.yul\":7302:7441   */\n      swap3\n      swap2\n      pop\n      pop\n      jump\t// out\n        /* \"#utility.yul\":7447:7776   */\n    tag_19:\n        /* \"#utility.yul\":7506:7512   */\n      0x00\n        /* \"#utility.yul\":7555:7557   */\n      0x20\n        /* \"#utility.yul\":7543:7552   */\n      dup3\n        /* \"#utility.yul\":7534:7541   */\n      dup5\n        /* \"#utility.yul\":7530:7553   */\n      sub\n        /* \"#utility.yul\":7526:7558   */\n      slt\n        /* \"#utility.yul\":7523:7642   */\n      iszero\n      tag_192\n      jumpi\n        /* \"#utility.yul\":7561:7640   */\n      tag_193\n      tag_89\n      jump\t// in\n    tag_193:\n        /* \"#utility.yul\":7523:7642   */\n    tag_192:\n        /* \"#utility.yul\":7681:7682   */\n      0x00\n        /* \"#utility.yul\":7706:7759   */\n      tag_194\n        /* \"#utility.yul\":7751:7758   */\n      dup5\n        /* \"#utility.yul\":7742:7748   */\n      dup3\n        /* \"#utility.yul\":7731:7740   */\n      dup6\n        /* \"#utility.yul\":7727:7749   */\n      add\n        /* \"#utility.yul\":7706:7759   */\n      tag_95\n      jump\t// in\n    tag_194:\n        /* \"#utility.yul\":7696:7759   */\n      swap2\n      pop\n        /* \"#utility.yul\":7652:7769   */\n      pop\n        /* \"#utility.yul\":7447:7776   */\n      swap3\n      swap2\n      pop\n      pop\n      jump\t// out\n        /* \"#utility.yul\":7782:7899   */\n    tag_96:\n        /* \"#utility.yul\":7891:7892   */\n      0x00\n        /* \"#utility.yul\":7888:7889   */\n      dup1\n        /* \"#utility.yul\":7881:7893   */\n      revert\n        /* \"#utility.yul\":7905:8022   */\n    tag_97:\n        /* \"#utility.yul\":8014:8015   */\n      0x00\n        /* \"#utility.yul\":8011:8012   */\n      dup1\n        /* \"#utility.yul\":8004:8016   */\n      revert\n        /* \"#utility.yul\":8028:8208   */\n    tag_98:\n        /* \"#utility.yul\":8076:8153   */\n      0x4e487b7100000000000000000000000000000000000000000000000000000000\n        /* \"#utility.yul\":8073:8074   */\n      0x00\n        /* \"#utility.yul\":8066:8154   */\n      mstore\n        /* \"#utility.yul\":8173:8177   */\n      0x41\n        /* \"#utility.yul\":8170:8171   */\n      0x04\n        /* \"#utility.yul\":8163:8178   */\n      mstore\n        /* \"#utility.yul\":8197:8201   */\n      0x24\n        /* \"#utility.yul\":8194:8195   */\n      0x00\n        /* \"#utility.yul\":8187:8202   */\n      revert\n        /* \"#utility.yul\":8214:8495   */\n    tag_99:\n        /* \"#utility.yul\":8297:8324   */\n      tag_199\n        /* \"#utility.yul\":8319:8323   */\n      dup3\n        /* \"#utility.yul\":8297:8324   */\n      tag_79\n      jump\t// in\n    tag_199:\n        /* \"#utility.yul\":8289:8295   */\n      dup2\n        /* \"#utility.yul\":8285:8325   */\n      add\n        /* \"#utility.yul\":8427:8433   */\n      dup2\n        /* \"#utility.yul\":8415:8425   */\n      dup2\n        /* \"#utility.yul\":8412:8434   */\n      lt\n        /* \"#utility.yul\":8391:8409   */\n      0xffffffffffffffff\n        /* \"#utility.yul\":8379:8389   */\n      dup3\n        /* \"#utility.yul\":8376:8410   */\n      gt\n        /* \"#utility.yul\":8373:8435   */\n      or\n        /* \"#utility.yul\":8370:8458   */\n      iszero\n      tag_200\n      jumpi\n        /* \"#utility.yul\":8438:8456   */\n      tag_201\n      tag_98\n      jump\t// in\n    tag_201:\n        /* \"#utility.yul\":8370:8458   */\n    tag_200:\n        /* \"#utility.yul\":8478:8488   */\n      dup1\n        /* \"#utility.yul\":8474:8476   */\n      0x40\n        /* \"#utility.yul\":8467:8489   */\n      mstore\n        /* \"#utility.yul\":8257:8495   */\n      pop\n        /* \"#utility.yul\":8214:8495   */\n      pop\n      pop\n      jump\t// out\n        /* \"#utility.yul\":8501:8630   */\n    tag_100:\n        /* \"#utility.yul\":8535:8541   */\n      0x00\n        /* \"#utility.yul\":8562:8582   */\n      tag_203\n      tag_88\n      jump\t// in\n    tag_203:\n        /* \"#utility.yul\":8552:8582   */\n      swap1\n      pop\n        /* \"#utility.yul\":8591:8624   */\n      tag_204\n        /* \"#utility.yul\":8619:8623   */\n      dup3\n        /* \"#utility.yul\":8611:8617   */\n      dup3\n        /* \"#utility.yul\":8591:8624   */\n      tag_99\n      jump\t// in\n    tag_204:\n        /* \"#utility.yul\":8501:8630   */\n      swap2\n      swap1\n      pop\n      jump\t// out\n        /* \"#utility.yul\":8636:8944   */\n    tag_101:\n        /* \"#utility.yul\":8698:8702   */\n      0x00\n        /* \"#utility.yul\":8788:8806   */\n      0xffffffffffffffff\n        /* \"#utility.yul\":8780:8786   */\n      dup3\n        /* \"#utility.yul\":8777:8807   */\n      gt\n        /* \"#utility.yul\":8774:8830   */\n      iszero\n      tag_206\n      jumpi\n        /* \"#utility.yul\":8810:8828   */\n      tag_207\n      tag_98\n      jump\t// in\n    tag_207:\n        /* \"#utility.yul\":8774:8830   */\n    tag_206:\n        /* \"#utility.yul\":8848:8877   */\n      tag_208\n        /* \"#utility.yul\":8870:8876   */\n      dup3\n        /* \"#utility.yul\":8848:8877   */\n      tag_79\n      jump\t// in\n    tag_208:\n        /* \"#utility.yul\":8840:8877   */\n      swap1\n      pop\n        /* \"#utility.yul\":8932:8936   */\n      0x20\n        /* \"#utility.yul\":8926:8930   */\n      dup2\n        /* \"#utility.yul\":8922:8937   */\n      add\n        /* \"#utility.yul\":8914:8937   */\n      swap1\n      pop\n        /* \"#utility.yul\":8636:8944   */\n      swap2\n      swap1\n      pop\n      jump\t// out\n        /* \"#utility.yul\":8950:9096   */\n    tag_102:\n        /* \"#utility.yul\":9047:9053   */\n      dup3\n        /* \"#utility.yul\":9042:9045   */\n      dup2\n        /* \"#utility.yul\":9037:9040   */\n      dup4\n        /* \"#utility.yul\":9024:9054   */\n      calldatacopy\n        /* \"#utility.yul\":9088:9089   */\n      0x00\n        /* \"#utility.yul\":9079:9085   */\n      dup4\n        /* \"#utility.yul\":9074:9077   */\n      dup4\n        /* \"#utility.yul\":9070:9086   */\n      add\n        /* \"#utility.yul\":9063:9090   */\n      mstore\n        /* \"#utility.yul\":8950:9096   */\n      pop\n      pop\n      pop\n      jump\t// out\n        /* \"#utility.yul\":9102:9527   */\n    tag_103:\n        /* \"#utility.yul\":9180:9185   */\n      0x00\n        /* \"#utility.yul\":9205:9271   */\n      tag_211\n        /* \"#utility.yul\":9221:9270   */\n      tag_212\n        /* \"#utility.yul\":9263:9269   */\n      dup5\n        /* \"#utility.yul\":9221:9270   */\n      tag_101\n      jump\t// in\n    tag_212:\n        /* \"#utility.yul\":9205:9271   */\n      tag_100\n      jump\t// in\n    tag_211:\n        /* \"#utility.yul\":9196:9271   */\n      swap1\n      pop\n        /* \"#utility.yul\":9294:9300   */\n      dup3\n        /* \"#utility.yul\":9287:9292   */\n      dup2\n        /* \"#utility.yul\":9280:9301   */\n      mstore\n        /* \"#utility.yul\":9332:9336   */\n      0x20\n        /* \"#utility.yul\":9325:9330   */\n      dup2\n        /* \"#utility.yul\":9321:9337   */\n      add\n        /* \"#utility.yul\":9370:9373   */\n      dup5\n        /* \"#utility.yul\":9361:9367   */\n      dup5\n        /* \"#utility.yul\":9356:9359   */\n      dup5\n        /* \"#utility.yul\":9352:9368   */\n      add\n        /* \"#utility.yul\":9349:9374   */\n      gt\n        /* \"#utility.yul\":9346:9458   */\n      iszero\n      tag_213\n      jumpi\n        /* \"#utility.yul\":9377:9456   */\n      tag_214\n      tag_97\n      jump\t// in\n    tag_214:\n        /* \"#utility.yul\":9346:9458   */\n    tag_213:\n        /* \"#utility.yul\":9467:9521   */\n      tag_215\n        /* \"#utility.yul\":9514:9520   */\n      dup5\n        /* \"#utility.yul\":9509:9512   */\n      dup3\n        /* \"#utility.yul\":9504:9507   */\n      dup6\n        /* \"#utility.yul\":9467:9521   */\n      tag_102\n      jump\t// in\n    tag_215:\n        /* \"#utility.yul\":9186:9527   */\n      pop\n        /* \"#utility.yul\":9102:9527   */\n      swap4\n      swap3\n      pop\n      pop\n      pop\n      jump\t// out\n        /* \"#utility.yul\":9547:9887   */\n    tag_104:\n        /* \"#utility.yul\":9603:9608   */\n      0x00\n        /* \"#utility.yul\":9652:9655   */\n      dup3\n        /* \"#utility.yul\":9645:9649   */\n      0x1f\n        /* \"#utility.yul\":9637:9643   */\n      dup4\n        /* \"#utility.yul\":9633:9650   */\n      add\n        /* \"#utility.yul\":9629:9656   */\n      slt\n        /* \"#utility.yul\":9619:9741   */\n      tag_217\n      jumpi\n        /* \"#utility.yul\":9660:9739   */\n      tag_218\n      tag_96\n      jump\t// in\n    tag_218:\n        /* \"#utility.yul\":9619:9741   */\n    tag_217:\n        /* \"#utility.yul\":9777:9783   */\n      dup2\n        /* \"#utility.yul\":9764:9784   */\n      calldataload\n        /* \"#utility.yul\":9802:9881   */\n      tag_219\n        /* \"#utility.yul\":9877:9880   */\n      dup5\n        /* \"#utility.yul\":9869:9875   */\n      dup3\n        /* \"#utility.yul\":9862:9866   */\n      0x20\n        /* \"#utility.yul\":9854:9860   */\n      dup7\n        /* \"#utility.yul\":9850:9867   */\n      add\n        /* \"#utility.yul\":9802:9881   */\n      tag_103\n      jump\t// in\n    tag_219:\n        /* \"#utility.yul\":9793:9881   */\n      swap2\n      pop\n        /* \"#utility.yul\":9609:9887   */\n      pop\n        /* \"#utility.yul\":9547:9887   */\n      swap3\n      swap2\n      pop\n      pop\n      jump\t// out\n        /* \"#utility.yul\":9893:10547   */\n    tag_24:\n        /* \"#utility.yul\":9971:9977   */\n      0x00\n        /* \"#utility.yul\":9979:9985   */\n      dup1\n        /* \"#utility.yul\":10028:10030   */\n      0x40\n        /* \"#utility.yul\":10016:10025   */\n      dup4\n        /* \"#utility.yul\":10007:10014   */\n      dup6\n        /* \"#utility.yul\":10003:10026   */\n      sub\n        /* \"#utility.yul\":9999:10031   */\n      slt\n        /* \"#utility.yul\":9996:10115   */\n      iszero\n      tag_221\n      jumpi\n        /* \"#utility.yul\":10034:10113   */\n      tag_222\n      tag_89\n      jump\t// in\n    tag_222:\n        /* \"#utility.yul\":9996:10115   */\n    tag_221:\n        /* \"#utility.yul\":10154:10155   */\n      0x00\n        /* \"#utility.yul\":10179:10232   */\n      tag_223\n        /* \"#utility.yul\":10224:10231   */\n      dup6\n        /* \"#utility.yul\":10215:10221   */\n      dup3\n        /* \"#utility.yul\":10204:10213   */\n      dup7\n        /* \"#utility.yul\":10200:10222   */\n      add\n        /* \"#utility.yul\":10179:10232   */\n      tag_92\n      jump\t// in\n    tag_223:\n        /* \"#utility.yul\":10169:10232   */\n      swap3\n      pop\n        /* \"#utility.yul\":10125:10242   */\n      pop\n        /* \"#utility.yul\":10309:10311   */\n      0x20\n        /* \"#utility.yul\":10298:10307   */\n      dup4\n        /* \"#utility.yul\":10294:10312   */\n      add\n        /* \"#utility.yul\":10281:10313   */\n      calldataload\n        /* \"#utility.yul\":10340:10358   */\n      0xffffffffffffffff\n        /* \"#utility.yul\":10332:10338   */\n      dup2\n        /* \"#utility.yul\":10329:10359   */\n      gt\n        /* \"#utility.yul\":10326:10443   */\n      iszero\n      tag_224\n      jumpi\n        /* \"#utility.yul\":10362:10441   */\n      tag_225\n      tag_90\n      jump\t// in\n    tag_225:\n        /* \"#utility.yul\":10326:10443   */\n    tag_224:\n        /* \"#utility.yul\":10467:10530   */\n      tag_226\n        /* \"#utility.yul\":10522:10529   */\n      dup6\n        /* \"#utility.yul\":10513:10519   */\n      dup3\n        /* \"#utility.yul\":10502:10511   */\n      dup7\n        /* \"#utility.yul\":10498:10520   */\n      add\n        /* \"#utility.yul\":10467:10530   */\n      tag_104\n      jump\t// in\n    tag_226:\n        /* \"#utility.yul\":10457:10530   */\n      swap2\n      pop\n        /* \"#utility.yul\":10252:10540   */\n      pop\n        /* \"#utility.yul\":9893:10547   */\n      swap3\n      pop\n      swap3\n      swap1\n      pop\n      jump\t// out\n        /* \"#utility.yul\":10553:10671   */\n    tag_105:\n        /* \"#utility.yul\":10640:10664   */\n      tag_228\n        /* \"#utility.yul\":10658:10663   */\n      dup2\n        /* \"#utility.yul\":10640:10664   */\n      tag_74\n      jump\t// in\n    tag_228:\n        /* \"#utility.yul\":10635:10638   */\n      dup3\n        /* \"#utility.yul\":10628:10665   */\n      mstore\n        /* \"#utility.yul\":10553:10671   */\n      pop\n      pop\n      jump\t// out\n        /* \"#utility.yul\":10677:10899   */\n    tag_27:\n        /* \"#utility.yul\":10770:10774   */\n      0x00\n        /* \"#utility.yul\":10808:10810   */\n      0x20\n        /* \"#utility.yul\":10797:10806   */\n      dup3\n        /* \"#utility.yul\":10793:10811   */\n      add\n        /* \"#utility.yul\":10785:10811   */\n      swap1\n      pop\n        /* \"#utility.yul\":10821:10892   */\n      tag_230\n        /* \"#utility.yul\":10889:10890   */\n      0x00\n        /* \"#utility.yul\":10878:10887   */\n      dup4\n        /* \"#utility.yul\":10874:10891   */\n      add\n        /* \"#utility.yul\":10865:10871   */\n      dup5\n        /* \"#utility.yul\":10821:10892   */\n      tag_105\n      jump\t// in\n    tag_230:\n        /* \"#utility.yul\":10677:10899   */\n      swap3\n      swap2\n      pop\n      pop\n      jump\t// out\n        /* \"#utility.yul\":10905:11085   */\n    tag_106:\n        /* \"#utility.yul\":10953:11030   */\n      0x4e487b7100000000000000000000000000000000000000000000000000000000\n        /* \"#utility.yul\":10950:10951   */\n      0x00\n        /* \"#utility.yul\":10943:11031   */\n      mstore\n        /* \"#utility.yul\":11050:11054   */\n      0x22\n        /* \"#utility.yul\":11047:11048   */\n      0x04\n        /* \"#utility.yul\":11040:11055   */\n      mstore\n        /* \"#utility.yul\":11074:11078   */\n      0x24\n        /* \"#utility.yul\":11071:11072   */\n      0x00\n        /* \"#utility.yul\":11064:11079   */\n      revert\n        /* \"#utility.yul\":11091:11411   */\n    tag_33:\n        /* \"#utility.yul\":11135:11141   */\n      0x00\n        /* \"#utility.yul\":11172:11173   */\n      0x02\n        /* \"#utility.yul\":11166:11170   */\n      dup3\n        /* \"#utility.yul\":11162:11174   */\n      div\n        /* \"#utility.yul\":11152:11174   */\n      swap1\n      pop\n        /* \"#utility.yul\":11219:11220   */\n      0x01\n        /* \"#utility.yul\":11213:11217   */\n      dup3\n        /* \"#utility.yul\":11209:11221   */\n      and\n        /* \"#utility.yul\":11240:11258   */\n      dup1\n        /* \"#utility.yul\":11230:11311   */\n      tag_233\n      jumpi\n        /* \"#utility.yul\":11296:11300   */\n      0x7f\n        /* \"#utility.yul\":11288:11294   */\n      dup3\n        /* \"#utility.yul\":11284:11301   */\n      and\n        /* \"#utility.yul\":11274:11301   */\n      swap2\n      pop\n        /* \"#utility.yul\":11230:11311   */\n    tag_233:\n        /* \"#utility.yul\":11358:11360   */\n      0x20\n        /* \"#utility.yul\":11350:11356   */\n      dup3\n        /* \"#utility.yul\":11347:11361   */\n      lt\n        /* \"#utility.yul\":11327:11345   */\n      dup2\n        /* \"#utility.yul\":11324:11362   */\n      sub\n        /* \"#utility.yul\":11321:11405   */\n      tag_234\n      jumpi\n        /* \"#utility.yul\":11377:11395   */\n      tag_235\n      tag_106\n      jump\t// in\n    tag_235:\n        /* \"#utility.yul\":11321:11405   */\n    tag_234:\n        /* \"#utility.yul\":11142:11411   */\n      pop\n        /* \"#utility.yul\":11091:11411   */\n      swap2\n      swap1\n      pop\n      jump\t// out\n        /* \"#utility.yul\":11417:11597   */\n    tag_43:\n        /* \"#utility.yul\":11465:11542   */\n      0x4e487b7100000000000000000000000000000000000000000000000000000000\n        /* \"#utility.yul\":11462:11463   */\n      0x00\n        /* \"#utility.yul\":11455:11543   */\n      mstore\n        /* \"#utility.yul\":11562:11566   */\n      0x32\n        /* \"#utility.yul\":11559:11560   */\n      0x04\n        /* \"#utility.yul\":11552:11567   */\n      mstore\n        /* \"#utility.yul\":11586:11590   */\n      0x24\n        /* \"#utility.yul\":11583:11584   */\n      0x00\n        /* \"#utility.yul\":11576:11591   */\n      revert\n        /* \"#utility.yul\":11603:11772   */\n    tag_107:\n        /* \"#utility.yul\":11687:11698   */\n      0x00\n        /* \"#utility.yul\":11721:11727   */\n      dup3\n        /* \"#utility.yul\":11716:11719   */\n      dup3\n        /* \"#utility.yul\":11709:11728   */\n      mstore\n        /* \"#utility.yul\":11761:11765   */\n      0x20\n        /* \"#utility.yul\":11756:11759   */\n      dup3\n        /* \"#utility.yul\":11752:11766   */\n      add\n        /* \"#utility.yul\":11737:11766   */\n      swap1\n      pop\n        /* \"#utility.yul\":11603:11772   */\n      swap3\n      swap2\n      pop\n      pop\n      jump\t// out\n        /* \"#utility.yul\":11778:11959   */\n    tag_108:\n        /* \"#utility.yul\":11918:11951   */\n      0x436f6e7472616374204164647265737320616c72656164792065786973747300\n        /* \"#utility.yul\":11914:11915   */\n      0x00\n        /* \"#utility.yul\":11906:11912   */\n      dup3\n        /* \"#utility.yul\":11902:11916   */\n      add\n        /* \"#utility.yul\":11895:11952   */\n      mstore\n        /* \"#utility.yul\":11778:11959   */\n      pop\n      jump\t// out\n        /* \"#utility.yul\":11965:12331   */\n    tag_109:\n        /* \"#utility.yul\":12107:12110   */\n      0x00\n        /* \"#utility.yul\":12128:12195   */\n      tag_240\n        /* \"#utility.yul\":12192:12194   */\n      0x1f\n        /* \"#utility.yul\":12187:12190   */\n      dup4\n        /* \"#utility.yul\":12128:12195   */\n      tag_107\n      jump\t// in\n    tag_240:\n        /* \"#utility.yul\":12121:12195   */\n      swap2\n      pop\n        /* \"#utility.yul\":12204:12297   */\n      tag_241\n        /* \"#utility.yul\":12293:12296   */\n      dup3\n        /* \"#utility.yul\":12204:12297   */\n      tag_108\n      jump\t// in\n    tag_241:\n        /* \"#utility.yul\":12322:12324   */\n      0x20\n        /* \"#utility.yul\":12317:12320   */\n      dup3\n        /* \"#utility.yul\":12313:12325   */\n      add\n        /* \"#utility.yul\":12306:12325   */\n      swap1\n      pop\n        /* \"#utility.yul\":11965:12331   */\n      swap2\n      swap1\n      pop\n      jump\t// out\n        /* \"#utility.yul\":12337:12756   */\n    tag_63:\n        /* \"#utility.yul\":12503:12507   */\n      0x00\n        /* \"#utility.yul\":12541:12543   */\n      0x20\n        /* \"#utility.yul\":12530:12539   */\n      dup3\n        /* \"#utility.yul\":12526:12544   */\n      add\n        /* \"#utility.yul\":12518:12544   */\n      swap1\n      pop\n        /* \"#utility.yul\":12590:12599   */\n      dup2\n        /* \"#utility.yul\":12584:12588   */\n      dup2\n        /* \"#utility.yul\":12580:12600   */\n      sub\n        /* \"#utility.yul\":12576:12577   */\n      0x00\n        /* \"#utility.yul\":12565:12574   */\n      dup4\n        /* \"#utility.yul\":12561:12578   */\n      add\n        /* \"#utility.yul\":12554:12601   */\n      mstore\n        /* \"#utility.yul\":12618:12749   */\n      tag_243\n        /* \"#utility.yul\":12744:12748   */\n      dup2\n        /* \"#utility.yul\":12618:12749   */\n      tag_109\n      jump\t// in\n    tag_243:\n        /* \"#utility.yul\":12610:12749   */\n      swap1\n      pop\n        /* \"#utility.yul\":12337:12756   */\n      swap2\n      swap1\n      pop\n      jump\t// out\n        /* \"#utility.yul\":12762:12942   */\n    tag_110:\n        /* \"#utility.yul\":12810:12887   */\n      0x4e487b7100000000000000000000000000000000000000000000000000000000\n        /* \"#utility.yul\":12807:12808   */\n      0x00\n        /* \"#utility.yul\":12800:12888   */\n      mstore\n        /* \"#utility.yul\":12907:12911   */\n      0x11\n        /* \"#utility.yul\":12904:12905   */\n      0x04\n        /* \"#utility.yul\":12897:12912   */\n      mstore\n        /* \"#utility.yul\":12931:12935   */\n      0x24\n        /* \"#utility.yul\":12928:12929   */\n      0x00\n        /* \"#utility.yul\":12921:12936   */\n      revert\n        /* \"#utility.yul\":12948:13181   */\n    tag_65:\n        /* \"#utility.yul\":12987:12990   */\n      0x00\n        /* \"#utility.yul\":13010:13034   */\n      tag_246\n        /* \"#utility.yul\":13028:13033   */\n      dup3\n        /* \"#utility.yul\":13010:13034   */\n      tag_74\n      jump\t// in\n    tag_246:\n        /* \"#utility.yul\":13001:13034   */\n      swap2\n      pop\n        /* \"#utility.yul\":13056:13122   */\n      0xffffffffffffffffffffffffffffffffffffffffffffffffffffffffffffffff\n        /* \"#utility.yul\":13049:13054   */\n      dup3\n        /* \"#utility.yul\":13046:13123   */\n      sub\n        /* \"#utility.yul\":13043:13146   */\n      tag_247\n      jumpi\n        /* \"#utility.yul\":13126:13144   */\n      tag_248\n      tag_110\n      jump\t// in\n    tag_248:\n        /* \"#utility.yul\":13043:13146   */\n    tag_247:\n        /* \"#utility.yul\":13173:13174   */\n      0x01\n        /* \"#utility.yul\":13166:13171   */\n      dup3\n        /* \"#utility.yul\":13162:13175   */\n      add\n        /* \"#utility.yul\":13155:13175   */\n      swap1\n      pop\n        /* \"#utility.yul\":12948:13181   */\n      swap2\n      swap1\n      pop\n      jump\t// out\n        /* \"#utility.yul\":13187:13328   */\n    tag_111:\n        /* \"#utility.yul\":13236:13240   */\n      0x00\n        /* \"#utility.yul\":13259:13262   */\n      dup2\n        /* \"#utility.yul\":13251:13262   */\n      swap1\n      pop\n        /* \"#utility.yul\":13282:13285   */\n      dup2\n        /* \"#utility.yul\":13279:13280   */\n      0x00\n        /* \"#utility.yul\":13272:13286   */\n      mstore\n        /* \"#utility.yul\":13316:13320   */\n      0x20\n        /* \"#utility.yul\":13313:13314   */\n      0x00\n        /* \"#utility.yul\":13303:13321   */\n      keccak256\n        /* \"#utility.yul\":13295:13321   */\n      swap1\n      pop\n        /* \"#utility.yul\":13187:13328   */\n      swap2\n      swap1\n      pop\n      jump\t// out\n        /* \"#utility.yul\":13334:13427   */\n    tag_112:\n        /* \"#utility.yul\":13371:13377   */\n      0x00\n        /* \"#utility.yul\":13418:13420   */\n      0x20\n        /* \"#utility.yul\":13413:13415   */\n      0x1f\n        /* \"#utility.yul\":13406:13411   */\n      dup4\n        /* \"#utility.yul\":13402:13416   */\n      add\n        /* \"#utility.yul\":13398:13421   */\n      div\n        /* \"#utility.yul\":13388:13421   */\n      swap1\n      pop\n        /* \"#utility.yul\":13334:13427   */\n      swap2\n      swap1\n      pop\n      jump\t// out\n        /* \"#utility.yul\":13433:13540   */\n    tag_113:\n        /* \"#utility.yul\":13477:13485   */\n      0x00\n        /* \"#utility.yul\":13527:13532   */\n      dup3\n        /* \"#utility.yul\":13521:13525   */\n      dup3\n        /* \"#utility.yul\":13517:13533   */\n      shl\n        /* \"#utility.yul\":13496:13533   */\n      swap1\n      pop\n        /* \"#utility.yul\":13433:13540   */\n      swap3\n      swap2\n      pop\n      pop\n      jump\t// out\n        /* \"#utility.yul\":13546:13939   */\n    tag_114:\n        /* \"#utility.yul\":13615:13621   */\n      0x00\n        /* \"#utility.yul\":13665:13666   */\n      0x08\n        /* \"#utility.yul\":13653:13663   */\n      dup4\n        /* \"#utility.yul\":13649:13667   */\n      mul\n        /* \"#utility.yul\":13688:13785   */\n      tag_253\n        /* \"#utility.yul\":13718:13784   */\n      0xffffffffffffffffffffffffffffffffffffffffffffffffffffffffffffffff\n        /* \"#utility.yul\":13707:13716   */\n      dup3\n        /* \"#utility.yul\":13688:13785   */\n      tag_113\n      jump\t// in\n    tag_253:\n        /* \"#utility.yul\":13806:13845   */\n      tag_254\n        /* \"#utility.yul\":13836:13844   */\n      dup7\n        /* \"#utility.yul\":13825:13834   */\n      dup4\n        /* \"#utility.yul\":13806:13845   */\n      tag_113\n      jump\t// in\n    tag_254:\n        /* \"#utility.yul\":13794:13845   */\n      swap6\n      pop\n        /* \"#utility.yul\":13878:13882   */\n      dup1\n        /* \"#utility.yul\":13874:13883   */\n      not\n        /* \"#utility.yul\":13867:13872   */\n      dup5\n        /* \"#utility.yul\":13863:13884   */\n      and\n        /* \"#utility.yul\":13854:13884   */\n      swap4\n      pop\n        /* \"#utility.yul\":13927:13931   */\n      dup1\n        /* \"#utility.yul\":13917:13925   */\n      dup7\n        /* \"#utility.yul\":13913:13932   */\n      and\n        /* \"#utility.yul\":13906:13911   */\n      dup5\n        /* \"#utility.yul\":13903:13933   */\n      or\n        /* \"#utility.yul\":13893:13933   */\n      swap3\n      pop\n        /* \"#utility.yul\":13622:13939   */\n      pop\n      pop\n        /* \"#utility.yul\":13546:13939   */\n      swap4\n      swap3\n      pop\n      pop\n      pop\n      jump\t// out\n        /* \"#utility.yul\":13945:14005   */\n    tag_115:\n        /* \"#utility.yul\":13973:13976   */\n      0x00\n        /* \"#utility.yul\":13994:13999   */\n      dup2\n        /* \"#utility.yul\":13987:13999   */\n      swap1\n      pop\n        /* \"#utility.yul\":13945:14005   */\n      swap2\n      swap1\n      pop\n      jump\t// out\n        /* \"#utility.yul\":14011:14153   */\n    tag_116:\n        /* \"#utility.yul\":14061:14070   */\n      0x00\n        /* \"#utility.yul\":14094:14147   */\n      tag_257\n        /* \"#utility.yul\":14112:14146   */\n      tag_258\n        /* \"#utility.yul\":14121:14145   */\n      tag_259\n        /* \"#utility.yul\":14139:14144   */\n      dup5\n        /* \"#utility.yul\":14121:14145   */\n      tag_74\n      jump\t// in\n    tag_259:\n        /* \"#utility.yul\":14112:14146   */\n      tag_115\n      jump\t// in\n    tag_258:\n        /* \"#utility.yul\":14094:14147   */\n      tag_74\n      jump\t// in\n    tag_257:\n        /* \"#utility.yul\":14081:14147   */\n      swap1\n      pop\n        /* \"#utility.yul\":14011:14153   */\n      swap2\n      swap1\n      pop\n      jump\t// out\n        /* \"#utility.yul\":14159:14234   */\n    tag_117:\n        /* \"#utility.yul\":14202:14205   */\n      0x00\n        /* \"#utility.yul\":14223:14228   */\n      dup2\n        /* \"#utility.yul\":14216:14228   */\n      swap1\n      pop\n        /* \"#utility.yul\":14159:14234   */\n      swap2\n      swap1\n      pop\n      jump\t// out\n        /* \"#utility.yul\":14240:14509   */\n    tag_118:\n        /* \"#utility.yul\":14350:14389   */\n      tag_262\n        /* \"#utility.yul\":14381:14388   */\n      dup4\n        /* \"#utility.yul\":14350:14389   */\n      tag_116\n      jump\t// in\n    tag_262:\n        /* \"#utility.yul\":14411:14502   */\n      tag_263\n        /* \"#utility.yul\":14460:14501   */\n      tag_264\n        /* \"#utility.yul\":14484:14500   */\n      dup3\n        /* \"#utility.yul\":14460:14501   */\n      tag_117\n      jump\t// in\n    tag_264:\n        /* \"#utility.yul\":14452:14458   */\n      dup5\n        /* \"#utility.yul\":14445:14449   */\n      dup5\n        /* \"#utility.yul\":14439:14450   */\n      sload\n        /* \"#utility.yul\":14411:14502   */\n      tag_114\n      jump\t// in\n    tag_263:\n        /* \"#utility.yul\":14405:14409   */\n      dup3\n        /* \"#utility.yul\":14398:14503   */\n      sstore\n        /* \"#utility.yul\":14316:14509   */\n      pop\n        /* \"#utility.yul\":14240:14509   */\n      pop\n      pop\n      pop\n      jump\t// out\n        /* \"#utility.yul\":14515:14588   */\n    tag_119:\n        /* \"#utility.yul\":14560:14563   */\n      0x00\n        /* \"#utility.yul\":14515:14588   */\n      swap1\n      jump\t// out\n        /* \"#utility.yul\":14594:14783   */\n    tag_120:\n        /* \"#utility.yul\":14671:14703   */\n      tag_267\n      tag_119\n      jump\t// in\n    tag_267:\n        /* \"#utility.yul\":14712:14777   */\n      tag_268\n        /* \"#utility.yul\":14770:14776   */\n      dup2\n        /* \"#utility.yul\":14762:14768   */\n      dup5\n        /* \"#utility.yul\":14756:14760   */\n      dup5\n        /* \"#utility.yul\":14712:14777   */\n      tag_118\n      jump\t// in\n    tag_268:\n        /* \"#utility.yul\":14647:14783   */\n      pop\n        /* \"#utility.yul\":14594:14783   */\n      pop\n      pop\n      jump\t// out\n        /* \"#utility.yul\":14789:14975   */\n    tag_121:\n        /* \"#utility.yul\":14849:14969   */\n    tag_270:\n        /* \"#utility.yul\":14866:14869   */\n      dup2\n        /* \"#utility.yul\":14859:14864   */\n      dup2\n        /* \"#utility.yul\":14856:14870   */\n      lt\n        /* \"#utility.yul\":14849:14969   */\n      iszero\n      tag_272\n      jumpi\n        /* \"#utility.yul\":14920:14959   */\n      tag_273\n        /* \"#utility.yul\":14957:14958   */\n      0x00\n        /* \"#utility.yul\":14950:14955   */\n      dup3\n        /* \"#utility.yul\":14920:14959   */\n      tag_120\n      jump\t// in\n    tag_273:\n        /* \"#utility.yul\":14893:14894   */\n      0x01\n        /* \"#utility.yul\":14886:14891   */\n      dup2\n        /* \"#utility.yul\":14882:14895   */\n      add\n        /* \"#utility.yul\":14873:14895   */\n      swap1\n      pop\n        /* \"#utility.yul\":14849:14969   */\n      jump(tag_270)\n    tag_272:\n        /* \"#utility.yul\":14789:14975   */\n      pop\n      pop\n      jump\t// out\n        /* \"#utility.yul\":14981:15524   */\n    tag_122:\n        /* \"#utility.yul\":15082:15084   */\n      0x1f\n        /* \"#utility.yul\":15077:15080   */\n      dup3\n        /* \"#utility.yul\":15074:15085   */\n      gt\n        /* \"#utility.yul\":15071:15517   */\n      iszero\n      tag_275\n      jumpi\n        /* \"#utility.yul\":15116:15154   */\n      tag_276\n        /* \"#utility.yul\":15148:15153   */\n      dup2\n        /* \"#utility.yul\":15116:15154   */\n      tag_111\n      jump\t// in\n    tag_276:\n        /* \"#utility.yul\":15200:15229   */\n      tag_277\n        /* \"#utility.yul\":15218:15228   */\n      dup5\n        /* \"#utility.yul\":15200:15229   */\n      tag_112\n      jump\t// in\n    tag_277:\n        /* \"#utility.yul\":15190:15198   */\n      dup2\n        /* \"#utility.yul\":15186:15230   */\n      add\n        /* \"#utility.yul\":15383:15385   */\n      0x20\n        /* \"#utility.yul\":15371:15381   */\n      dup6\n        /* \"#utility.yul\":15368:15386   */\n      lt\n        /* \"#utility.yul\":15365:15414   */\n      iszero\n      tag_278\n      jumpi\n        /* \"#utility.yul\":15404:15412   */\n      dup2\n        /* \"#utility.yul\":15389:15412   */\n      swap1\n      pop\n        /* \"#utility.yul\":15365:15414   */\n    tag_278:\n        /* \"#utility.yul\":15427:15507   */\n      tag_279\n        /* \"#utility.yul\":15483:15505   */\n      tag_280\n        /* \"#utility.yul\":15501:15504   */\n      dup6\n        /* \"#utility.yul\":15483:15505   */\n      tag_112\n      jump\t// in\n    tag_280:\n        /* \"#utility.yul\":15473:15481   */\n      dup4\n        /* \"#utility.yul\":15469:15506   */\n      add\n        /* \"#utility.yul\":15456:15467   */\n      dup3\n        /* \"#utility.yul\":15427:15507   */\n      tag_121\n      jump\t// in\n    tag_279:\n        /* \"#utility.yul\":15086:15517   */\n      pop\n      pop\n        /* \"#utility.yul\":15071:15517   */\n    tag_275:\n        /* \"#utility.yul\":14981:15524   */\n      pop\n      pop\n      pop\n      jump\t// out\n        /* \"#utility.yul\":15530:15647   */\n    tag_123:\n        /* \"#utility.yul\":15584:15592   */\n      0x00\n        /* \"#utility.yul\":15634:15639   */\n      dup3\n        /* \"#utility.yul\":15628:15632   */\n      dup3\n        /* \"#utility.yul\":15624:15640   */\n      shr\n        /* \"#utility.yul\":15603:15640   */\n      swap1\n      pop\n        /* \"#utility.yul\":15530:15647   */\n      swap3\n      swap2\n      pop\n      pop\n      jump\t// out\n        /* \"#utility.yul\":15653:15822   */\n    tag_124:\n        /* \"#utility.yul\":15697:15703   */\n      0x00\n        /* \"#utility.yul\":15730:15781   */\n      tag_283\n        /* \"#utility.yul\":15778:15779   */\n      0x00\n        /* \"#utility.yul\":15774:15780   */\n      not\n        /* \"#utility.yul\":15766:15771   */\n      dup5\n        /* \"#utility.yul\":15763:15764   */\n      0x08\n        /* \"#utility.yul\":15759:15772   */\n      mul\n        /* \"#utility.yul\":15730:15781   */\n      tag_123\n      jump\t// in\n    tag_283:\n        /* \"#utility.yul\":15726:15782   */\n      not\n        /* \"#utility.yul\":15811:15815   */\n      dup1\n        /* \"#utility.yul\":15805:15809   */\n      dup4\n        /* \"#utility.yul\":15801:15816   */\n      and\n        /* \"#utility.yul\":15791:15816   */\n      swap2\n      pop\n        /* \"#utility.yul\":15704:15822   */\n      pop\n        /* \"#utility.yul\":15653:15822   */\n      swap3\n      swap2\n      pop\n      pop\n      jump\t// out\n        /* \"#utility.yul\":15827:16122   */\n    tag_125:\n        /* \"#utility.yul\":15903:15907   */\n      0x00\n        /* \"#utility.yul\":16049:16078   */\n      tag_285\n        /* \"#utility.yul\":16074:16077   */\n      dup4\n        /* \"#utility.yul\":16068:16072   */\n      dup4\n        /* \"#utility.yul\":16049:16078   */\n      tag_124\n      jump\t// in\n    tag_285:\n        /* \"#utility.yul\":16041:16078   */\n      swap2\n      pop\n        /* \"#utility.yul\":16111:16114   */\n      dup3\n        /* \"#utility.yul\":16108:16109   */\n      0x02\n        /* \"#utility.yul\":16104:16115   */\n      mul\n        /* \"#utility.yul\":16098:16102   */\n      dup3\n        /* \"#utility.yul\":16095:16116   */\n      or\n        /* \"#utility.yul\":16087:16116   */\n      swap1\n      pop\n        /* \"#utility.yul\":15827:16122   */\n      swap3\n      swap2\n      pop\n      pop\n      jump\t// out\n        /* \"#utility.yul\":16127:17522   */\n    tag_68:\n        /* \"#utility.yul\":16244:16281   */\n      tag_287\n        /* \"#utility.yul\":16277:16280   */\n      dup3\n        /* \"#utility.yul\":16244:16281   */\n      tag_76\n      jump\t// in\n    tag_287:\n        /* \"#utility.yul\":16346:16364   */\n      0xffffffffffffffff\n        /* \"#utility.yul\":16338:16344   */\n      dup2\n        /* \"#utility.yul\":16335:16365   */\n      gt\n        /* \"#utility.yul\":16332:16388   */\n      iszero\n      tag_288\n      jumpi\n        /* \"#utility.yul\":16368:16386   */\n      tag_289\n      tag_98\n      jump\t// in\n    tag_289:\n        /* \"#utility.yul\":16332:16388   */\n    tag_288:\n        /* \"#utility.yul\":16412:16450   */\n      tag_290\n        /* \"#utility.yul\":16444:16448   */\n      dup3\n        /* \"#utility.yul\":16438:16449   */\n      sload\n        /* \"#utility.yul\":16412:16450   */\n      tag_33\n      jump\t// in\n    tag_290:\n        /* \"#utility.yul\":16497:16564   */\n      tag_291\n        /* \"#utility.yul\":16557:16563   */\n      dup3\n        /* \"#utility.yul\":16549:16555   */\n      dup3\n        /* \"#utility.yul\":16543:16547   */\n      dup6\n        /* \"#utility.yul\":16497:16564   */\n      tag_122\n      jump\t// in\n    tag_291:\n        /* \"#utility.yul\":16591:16592   */\n      0x00\n        /* \"#utility.yul\":16615:16619   */\n      0x20\n        /* \"#utility.yul\":16602:16619   */\n      swap1\n      pop\n        /* \"#utility.yul\":16647:16649   */\n      0x1f\n        /* \"#utility.yul\":16639:16645   */\n      dup4\n        /* \"#utility.yul\":16636:16650   */\n      gt\n        /* \"#utility.yul\":16664:16665   */\n      0x01\n        /* \"#utility.yul\":16659:17277   */\n      dup2\n      eq\n      tag_293\n      jumpi\n        /* \"#utility.yul\":17321:17322   */\n      0x00\n        /* \"#utility.yul\":17338:17344   */\n      dup5\n        /* \"#utility.yul\":17335:17412   */\n      iszero\n      tag_294\n      jumpi\n        /* \"#utility.yul\":17387:17396   */\n      dup3\n        /* \"#utility.yul\":17382:17385   */\n      dup8\n        /* \"#utility.yul\":17378:17397   */\n      add\n        /* \"#utility.yul\":17372:17398   */\n      mload\n        /* \"#utility.yul\":17363:17398   */\n      swap1\n      pop\n        /* \"#utility.yul\":17335:17412   */\n    tag_294:\n        /* \"#utility.yul\":17438:17505   */\n      tag_295\n        /* \"#utility.yul\":17498:17504   */\n      dup6\n        /* \"#utility.yul\":17491:17496   */\n      dup3\n        /* \"#utility.yul\":17438:17505   */\n      tag_125\n      jump\t// in\n    tag_295:\n        /* \"#utility.yul\":17432:17436   */\n      dup7\n        /* \"#utility.yul\":17425:17506   */\n      sstore\n        /* \"#utility.yul\":17294:17516   */\n      pop\n        /* \"#utility.yul\":16629:17516   */\n      jump(tag_292)\n        /* \"#utility.yul\":16659:17277   */\n    tag_293:\n        /* \"#utility.yul\":16711:16715   */\n      0x1f\n        /* \"#utility.yul\":16707:16716   */\n      not\n        /* \"#utility.yul\":16699:16705   */\n      dup5\n        /* \"#utility.yul\":16695:16717   */\n      and\n        /* \"#utility.yul\":16745:16782   */\n      tag_296\n        /* \"#utility.yul\":16777:16781   */\n      dup7\n        /* \"#utility.yul\":16745:16782   */\n      tag_111\n      jump\t// in\n    tag_296:\n        /* \"#utility.yul\":16804:16805   */\n      0x00\n        /* \"#utility.yul\":16818:17026   */\n    tag_297:\n        /* \"#utility.yul\":16832:16839   */\n      dup3\n        /* \"#utility.yul\":16829:16830   */\n      dup2\n        /* \"#utility.yul\":16826:16840   */\n      lt\n        /* \"#utility.yul\":16818:17026   */\n      iszero\n      tag_299\n      jumpi\n        /* \"#utility.yul\":16911:16920   */\n      dup5\n        /* \"#utility.yul\":16906:16909   */\n      dup10\n        /* \"#utility.yul\":16902:16921   */\n      add\n        /* \"#utility.yul\":16896:16922   */\n      mload\n        /* \"#utility.yul\":16888:16894   */\n      dup3\n        /* \"#utility.yul\":16881:16923   */\n      sstore\n        /* \"#utility.yul\":16962:16963   */\n      0x01\n        /* \"#utility.yul\":16954:16960   */\n      dup3\n        /* \"#utility.yul\":16950:16964   */\n      add\n        /* \"#utility.yul\":16940:16964   */\n      swap2\n      pop\n        /* \"#utility.yul\":17009:17011   */\n      0x20\n        /* \"#utility.yul\":16998:17007   */\n      dup6\n        /* \"#utility.yul\":16994:17012   */\n      add\n        /* \"#utility.yul\":16981:17012   */\n      swap5\n      pop\n        /* \"#utility.yul\":16855:16859   */\n      0x20\n        /* \"#utility.yul\":16852:16853   */\n      dup2\n        /* \"#utility.yul\":16848:16860   */\n      add\n        /* \"#utility.yul\":16843:16860   */\n      swap1\n      pop\n        /* \"#utility.yul\":16818:17026   */\n      jump(tag_297)\n    tag_299:\n        /* \"#utility.yul\":17054:17060   */\n      dup7\n        /* \"#utility.yul\":17045:17052   */\n      dup4\n        /* \"#utility.yul\":17042:17061   */\n      lt\n        /* \"#utility.yul\":17039:17218   */\n      iszero\n      tag_300\n      jumpi\n        /* \"#utility.yul\":17112:17121   */\n      dup5\n        /* \"#utility.yul\":17107:17110   */\n      dup10\n        /* \"#utility.yul\":17103:17122   */\n      add\n        /* \"#utility.yul\":17097:17123   */\n      mload\n        /* \"#utility.yul\":17155:17203   */\n      tag_301\n        /* \"#utility.yul\":17197:17201   */\n      0x1f\n        /* \"#utility.yul\":17189:17195   */\n      dup10\n        /* \"#utility.yul\":17185:17202   */\n      and\n        /* \"#utility.yul\":17174:17183   */\n      dup3\n        /* \"#utility.yul\":17155:17203   */\n      tag_124\n      jump\t// in\n    tag_301:\n        /* \"#utility.yul\":17147:17153   */\n      dup4\n        /* \"#utility.yul\":17140:17204   */\n      sstore\n        /* \"#utility.yul\":17062:17218   */\n      pop\n        /* \"#utility.yul\":17039:17218   */\n    tag_300:\n        /* \"#utility.yul\":17264:17265   */\n      0x01\n        /* \"#utility.yul\":17260:17261   */\n      0x02\n        /* \"#utility.yul\":17252:17258   */\n      dup9\n        /* \"#utility.yul\":17248:17262   */\n      mul\n        /* \"#utility.yul\":17244:17266   */\n      add\n        /* \"#utility.yul\":17238:17242   */\n      dup9\n        /* \"#utility.yul\":17231:17267   */\n      sstore\n        /* \"#utility.yul\":16666:17277   */\n      pop\n      pop\n      pop\n        /* \"#utility.yul\":16629:17516   */\n    tag_292:\n      pop\n        /* \"#utility.yul\":16219:17522   */\n      pop\n      pop\n      pop\n        /* \"#utility.yul\":16127:17522   */\n      pop\n      pop\n      jump\t// out\n        /* \"#utility.yul\":17528:17722   */\n    tag_70:\n        /* \"#utility.yul\":17568:17572   */\n      0x00\n        /* \"#utility.yul\":17588:17608   */\n      tag_303\n        /* \"#utility.yul\":17606:17607   */\n      dup3\n        /* \"#utility.yul\":17588:17608   */\n      tag_74\n      jump\t// in\n    tag_303:\n        /* \"#utility.yul\":17583:17608   */\n      swap2\n      pop\n        /* \"#utility.yul\":17622:17642   */\n      tag_304\n        /* \"#utility.yul\":17640:17641   */\n      dup4\n        /* \"#utility.yul\":17622:17642   */\n      tag_74\n      jump\t// in\n    tag_304:\n        /* \"#utility.yul\":17617:17642   */\n      swap3\n      pop\n        /* \"#utility.yul\":17666:17667   */\n      dup3\n        /* \"#utility.yul\":17663:17664   */\n      dup3\n        /* \"#utility.yul\":17659:17668   */\n      sub\n        /* \"#utility.yul\":17651:17668   */\n      swap1\n      pop\n        /* \"#utility.yul\":17690:17691   */\n      dup2\n        /* \"#utility.yul\":17684:17688   */\n      dup2\n        /* \"#utility.yul\":17681:17692   */\n      gt\n        /* \"#utility.yul\":17678:17715   */\n      iszero\n      tag_305\n      jumpi\n        /* \"#utility.yul\":17695:17713   */\n      tag_306\n      tag_110\n      jump\t// in\n    tag_306:\n        /* \"#utility.yul\":17678:17715   */\n    tag_305:\n        /* \"#utility.yul\":17528:17722   */\n      swap3\n      swap2\n      pop\n      pop\n      jump\t// out\n\n    auxdata: 0xa2646970667358221220a33881270dbe2567d2ac1ece953028a5afa13297a1d6d5d9ba5caecd87c5f07764736f6c63430008170033\n}\n",
				"bytecode": {
					"linkReferences": {},
					"object": "608060405260018055348015610013575f80fd5b506110d1806100215f395ff3fe608060405234801561000f575f80fd5b506004361061004a575f3560e01c806318d3ce961461004e5780635d9c610c1461006c578063e385e2611461009c578063e803abaa146100cc575b5f80fd5b6100566100fc565b6040516100639190610990565b60405180910390f35b610086600480360381019061008191906109eb565b610245565b6040516100939190610a63565b60405180910390f35b6100b660048036038101906100b19190610aad565b6103ae565b6040516100c39190610a63565b60405180910390f35b6100e660048036038101906100e19190610c04565b6104eb565b6040516100f39190610c6d565b60405180910390f35b60605f805480602002602001604051908101604052809291908181526020015f905b8282101561023c578382905f5260205f2090600302016040518060600160405290815f820154815260200160018201805461015890610cb3565b80601f016020809104026020016040519081016040528092919081815260200182805461018490610cb3565b80156101cf5780601f106101a6576101008083540402835291602001916101cf565b820191905f5260205f20905b8154815290600101906020018083116101b257829003601f168201915b50505050508152602001600282015f9054906101000a900473ffffffffffffffffffffffffffffffffffffffff1673ffffffffffffffffffffffffffffffffffffffff1673ffffffffffffffffffffffffffffffffffffffff16815250508152602001906001019061011e565b50505050905090565b61024d610772565b5f60035f8473ffffffffffffffffffffffffffffffffffffffff1673ffffffffffffffffffffffffffffffffffffffff1681526020019081526020015f205490505f81815481106102a1576102a0610ce3565b5b905f5260205f2090600302016040518060600160405290815f82015481526020016001820180546102d190610cb3565b80601f01602080910402602001604051908101604052809291908181526020018280546102fd90610cb3565b80156103485780601f1061031f57610100808354040283529160200191610348565b820191905f5260205f20905b81548152906001019060200180831161032b57829003601f168201915b50505050508152602001600282015f9054906101000a900473ffffffffffffffffffffffffffffffffffffffff1673ffffffffffffffffffffffffffffffffffffffff1673ffffffffffffffffffffffffffffffffffffffff1681525050915050919050565b6103b6610772565b5f60025f8481526020019081526020015f205490505f81815481106103de576103dd610ce3565b5b905f5260205f2090600302016040518060600160405290815f820154815260200160018201805461040e90610cb3565b80601f016020809104026020016040519081016040528092919081815260200182805461043a90610cb3565b80156104855780601f1061045c57610100808354040283529160200191610485565b820191905f5260205f20905b81548152906001019060200180831161046857829003601f168201915b50505050508152602001600282015f9054906101000a900473ffffffffffffffffffffffffffffffffffffffff1673ffffffffffffffffffffffffffffffffffffffff1673ffffffffffffffffffffffffffffffffffffffff1681525050915050919050565b5f60045f8473ffffffffffffffffffffffffffffffffffffffff1673ffffffffffffffffffffffffffffffffffffffff1681526020019081526020015f205f9054906101000a900460ff1615610576576040517f08c379a000000000000000000000000000000000000000000000000000000000815260040161056d90610d6a565b60405180910390fd5b5f60015f81548092919061058990610db5565b9190505590505f60405180606001604052808381526020018581526020018673ffffffffffffffffffffffffffffffffffffffff1681525090505f81908060018154018082558091505060019003905f5260205f2090600302015f909190919091505f820151815f015560208201518160010190816106089190610f99565b506040820151816002015f6101000a81548173ffffffffffffffffffffffffffffffffffffffff021916908373ffffffffffffffffffffffffffffffffffffffff16021790555050505f60015f805490506106639190611068565b90508060025f8581526020019081526020015f20819055508060035f8873ffffffffffffffffffffffffffffffffffffffff1673ffffffffffffffffffffffffffffffffffffffff1681526020019081526020015f2081905550600160045f8873ffffffffffffffffffffffffffffffffffffffff1673ffffffffffffffffffffffffffffffffffffffff1681526020019081526020015f205f6101000a81548160ff0219169083151502179055505f60055f8873ffffffffffffffffffffffffffffffffffffffff1673ffffffffffffffffffffffffffffffffffffffff1681526020019081526020015f205f6101000a81548160ff02191690831515021790555082935050505092915050565b60405180606001604052805f8152602001606081526020015f73ffffffffffffffffffffffffffffffffffffffff1681525090565b5f81519050919050565b5f82825260208201905092915050565b5f819050602082019050919050565b5f819050919050565b6107e2816107d0565b82525050565b5f81519050919050565b5f82825260208201905092915050565b5f5b8381101561081f578082015181840152602081019050610804565b5f8484015250505050565b5f601f19601f8301169050919050565b5f610844826107e8565b61084e81856107f2565b935061085e818560208601610802565b6108678161082a565b840191505092915050565b5f73ffffffffffffffffffffffffffffffffffffffff82169050919050565b5f61089b82610872565b9050919050565b6108ab81610891565b82525050565b5f606083015f8301516108c65f8601826107d9565b50602083015184820360208601526108de828261083a565b91505060408301516108f360408601826108a2565b508091505092915050565b5f61090983836108b1565b905092915050565b5f602082019050919050565b5f610927826107a7565b61093181856107b1565b935083602082028501610943856107c1565b805f5b8581101561097e578484038952815161095f85826108fe565b945061096a83610911565b925060208a01995050600181019050610946565b50829750879550505050505092915050565b5f6020820190508181035f8301526109a8818461091d565b905092915050565b5f604051905090565b5f80fd5b5f80fd5b6109ca81610891565b81146109d4575f80fd5b50565b5f813590506109e5816109c1565b92915050565b5f60208284031215610a00576109ff6109b9565b5b5f610a0d848285016109d7565b91505092915050565b5f606083015f830151610a2b5f8601826107d9565b5060208301518482036020860152610a43828261083a565b9150506040830151610a5860408601826108a2565b508091505092915050565b5f6020820190508181035f830152610a7b8184610a16565b905092915050565b610a8c816107d0565b8114610a96575f80fd5b50565b5f81359050610aa781610a83565b92915050565b5f60208284031215610ac257610ac16109b9565b5b5f610acf84828501610a99565b91505092915050565b5f80fd5b5f80fd5b7f4e487b71000000000000000000000000000000000000000000000000000000005f52604160045260245ffd5b610b168261082a565b810181811067ffffffffffffffff82111715610b3557610b34610ae0565b5b80604052505050565b5f610b476109b0565b9050610b538282610b0d565b919050565b5f67ffffffffffffffff821115610b7257610b71610ae0565b5b610b7b8261082a565b9050602081019050919050565b828183375f83830152505050565b5f610ba8610ba384610b58565b610b3e565b905082815260208101848484011115610bc457610bc3610adc565b5b610bcf848285610b88565b509392505050565b5f82601f830112610beb57610bea610ad8565b5b8135610bfb848260208601610b96565b91505092915050565b5f8060408385031215610c1a57610c196109b9565b5b5f610c27858286016109d7565b925050602083013567ffffffffffffffff811115610c4857610c476109bd565b5b610c5485828601610bd7565b9150509250929050565b610c67816107d0565b82525050565b5f602082019050610c805f830184610c5e565b92915050565b7f4e487b71000000000000000000000000000000000000000000000000000000005f52602260045260245ffd5b5f6002820490506001821680610cca57607f821691505b602082108103610cdd57610cdc610c86565b5b50919050565b7f4e487b71000000000000000000000000000000000000000000000000000000005f52603260045260245ffd5b5f82825260208201905092915050565b7f436f6e7472616374204164647265737320616c726561647920657869737473005f82015250565b5f610d54601f83610d10565b9150610d5f82610d20565b602082019050919050565b5f6020820190508181035f830152610d8181610d48565b9050919050565b7f4e487b71000000000000000000000000000000000000000000000000000000005f52601160045260245ffd5b5f610dbf826107d0565b91507fffffffffffffffffffffffffffffffffffffffffffffffffffffffffffffffff8203610df157610df0610d88565b5b600182019050919050565b5f819050815f5260205f209050919050565b5f6020601f8301049050919050565b5f82821b905092915050565b5f60088302610e587fffffffffffffffffffffffffffffffffffffffffffffffffffffffffffffffff82610e1d565b610e628683610e1d565b95508019841693508086168417925050509392505050565b5f819050919050565b5f610e9d610e98610e93846107d0565b610e7a565b6107d0565b9050919050565b5f819050919050565b610eb683610e83565b610eca610ec282610ea4565b848454610e29565b825550505050565b5f90565b610ede610ed2565b610ee9818484610ead565b505050565b5b81811015610f0c57610f015f82610ed6565b600181019050610eef565b5050565b601f821115610f5157610f2281610dfc565b610f2b84610e0e565b81016020851015610f3a578190505b610f4e610f4685610e0e565b830182610eee565b50505b505050565b5f82821c905092915050565b5f610f715f1984600802610f56565b1980831691505092915050565b5f610f898383610f62565b9150826002028217905092915050565b610fa2826107e8565b67ffffffffffffffff811115610fbb57610fba610ae0565b5b610fc58254610cb3565b610fd0828285610f10565b5f60209050601f831160018114611001575f8415610fef578287015190505b610ff98582610f7e565b865550611060565b601f19841661100f86610dfc565b5f5b8281101561103657848901518255600182019150602085019450602081019050611011565b86831015611053578489015161104f601f891682610f62565b8355505b6001600288020188555050505b505050505050565b5f611072826107d0565b915061107d836107d0565b925082820390508181111561109557611094610d88565b5b9291505056fea2646970667358221220a33881270dbe2567d2ac1ece953028a5afa13297a1d6d5d9ba5caecd87c5f07764736f6c63430008170033",
					"opcodes": "PUSH1 0x80 PUSH1 0x40 MSTORE PUSH1 0x1 DUP1 SSTORE CALLVALUE DUP1 ISZERO PUSH2 0x13 JUMPI PUSH0 DUP1 REVERT JUMPDEST POP PUSH2 0x10D1 DUP1 PUSH2 0x21 PUSH0 CODECOPY PUSH0 RETURN INVALID PUSH1 0x80 PUSH1 0x40 MSTORE CALLVALUE DUP1 ISZERO PUSH2 0xF JUMPI PUSH0 DUP1 REVERT JUMPDEST POP PUSH1 0x4 CALLDATASIZE LT PUSH2 0x4A JUMPI PUSH0 CALLDATALOAD PUSH1 0xE0 SHR DUP1 PUSH4 0x18D3CE96 EQ PUSH2 0x4E JUMPI DUP1 PUSH4 0x5D9C610C EQ PUSH2 0x6C JUMPI DUP1 PUSH4 0xE385E261 EQ PUSH2 0x9C JUMPI DUP1 PUSH4 0xE803ABAA EQ PUSH2 0xCC JUMPI JUMPDEST PUSH0 DUP1 REVERT JUMPDEST PUSH2 0x56 PUSH2 0xFC JUMP JUMPDEST PUSH1 0x40 MLOAD PUSH2 0x63 SWAP2 SWAP1 PUSH2 0x990 JUMP JUMPDEST PUSH1 0x40 MLOAD DUP1 SWAP2 SUB SWAP1 RETURN JUMPDEST PUSH2 0x86 PUSH1 0x4 DUP1 CALLDATASIZE SUB DUP2 ADD SWAP1 PUSH2 0x81 SWAP2 SWAP1 PUSH2 0x9EB JUMP JUMPDEST PUSH2 0x245 JUMP JUMPDEST PUSH1 0x40 MLOAD PUSH2 0x93 SWAP2 SWAP1 PUSH2 0xA63 JUMP JUMPDEST PUSH1 0x40 MLOAD DUP1 SWAP2 SUB SWAP1 RETURN JUMPDEST PUSH2 0xB6 PUSH1 0x4 DUP1 CALLDATASIZE SUB DUP2 ADD SWAP1 PUSH2 0xB1 SWAP2 SWAP1 PUSH2 0xAAD JUMP JUMPDEST PUSH2 0x3AE JUMP JUMPDEST PUSH1 0x40 MLOAD PUSH2 0xC3 SWAP2 SWAP1 PUSH2 0xA63 JUMP JUMPDEST PUSH1 0x40 MLOAD DUP1 SWAP2 SUB SWAP1 RETURN JUMPDEST PUSH2 0xE6 PUSH1 0x4 DUP1 CALLDATASIZE SUB DUP2 ADD SWAP1 PUSH2 0xE1 SWAP2 SWAP1 PUSH2 0xC04 JUMP JUMPDEST PUSH2 0x4EB JUMP JUMPDEST PUSH1 0x40 MLOAD PUSH2 0xF3 SWAP2 SWAP1 PUSH2 0xC6D JUMP JUMPDEST PUSH1 0x40 MLOAD DUP1 SWAP2 SUB SWAP1 RETURN JUMPDEST PUSH1 0x60 PUSH0 DUP1 SLOAD DUP1 PUSH1 0x20 MUL PUSH1 0x20 ADD PUSH1 0x40 MLOAD SWAP1 DUP2 ADD PUSH1 0x40 MSTORE DUP1 SWAP3 SWAP2 SWAP1 DUP2 DUP2 MSTORE PUSH1 0x20 ADD PUSH0 SWAP1 JUMPDEST DUP3 DUP3 LT ISZERO PUSH2 0x23C JUMPI DUP4 DUP3 SWAP1 PUSH0 MSTORE PUSH1 0x20 PUSH0 KECCAK256 SWAP1 PUSH1 0x3 MUL ADD PUSH1 0x40 MLOAD DUP1 PUSH1 0x60 ADD PUSH1 0x40 MSTORE SWAP1 DUP2 PUSH0 DUP3 ADD SLOAD DUP2 MSTORE PUSH1 0x20 ADD PUSH1 0x1 DUP3 ADD DUP1 SLOAD PUSH2 0x158 SWAP1 PUSH2 0xCB3 JUMP JUMPDEST DUP1 PUSH1 0x1F ADD PUSH1 0x20 DUP1 SWAP2 DIV MUL PUSH1 0x20 ADD PUSH1 0x40 MLOAD SWAP1 DUP2 ADD PUSH1 0x40 MSTORE DUP1 SWAP3 SWAP2 SWAP1 DUP2 DUP2 MSTORE PUSH1 0x20 ADD DUP3 DUP1 SLOAD PUSH2 0x184 SWAP1 PUSH2 0xCB3 JUMP JUMPDEST DUP1 ISZERO PUSH2 0x1CF JUMPI DUP1 PUSH1 0x1F LT PUSH2 0x1A6 JUMPI PUSH2 0x100 DUP1 DUP4 SLOAD DIV MUL DUP4 MSTORE SWAP2 PUSH1 0x20 ADD SWAP2 PUSH2 0x1CF JUMP JUMPDEST DUP3 ADD SWAP2 SWAP1 PUSH0 MSTORE PUSH1 0x20 PUSH0 KECCAK256 SWAP1 JUMPDEST DUP2 SLOAD DUP2 MSTORE SWAP1 PUSH1 0x1 ADD SWAP1 PUSH1 0x20 ADD DUP1 DUP4 GT PUSH2 0x1B2 JUMPI DUP3 SWAP1 SUB PUSH1 0x1F AND DUP3 ADD SWAP2 JUMPDEST POP POP POP POP POP DUP2 MSTORE PUSH1 0x20 ADD PUSH1 0x2 DUP3 ADD PUSH0 SWAP1 SLOAD SWAP1 PUSH2 0x100 EXP SWAP1 DIV PUSH20 0xFFFFFFFFFFFFFFFFFFFFFFFFFFFFFFFFFFFFFFFF AND PUSH20 0xFFFFFFFFFFFFFFFFFFFFFFFFFFFFFFFFFFFFFFFF AND PUSH20 0xFFFFFFFFFFFFFFFFFFFFFFFFFFFFFFFFFFFFFFFF AND DUP2 MSTORE POP POP DUP2 MSTORE PUSH1 0x20 ADD SWAP1 PUSH1 0x1 ADD SWAP1 PUSH2 0x11E JUMP JUMPDEST POP POP POP POP SWAP1 POP SWAP1 JUMP JUMPDEST PUSH2 0x24D PUSH2 0x772 JUMP JUMPDEST PUSH0 PUSH1 0x3 PUSH0 DUP5 PUSH20 0xFFFFFFFFFFFFFFFFFFFFFFFFFFFFFFFFFFFFFFFF AND PUSH20 0xFFFFFFFFFFFFFFFFFFFFFFFFFFFFFFFFFFFFFFFF AND DUP2 MSTORE PUSH1 0x20 ADD SWAP1 DUP2 MSTORE PUSH1 0x20 ADD PUSH0 KECCAK256 SLOAD SWAP1 POP PUSH0 DUP2 DUP2 SLOAD DUP2 LT PUSH2 0x2A1 JUMPI PUSH2 0x2A0 PUSH2 0xCE3 JUMP JUMPDEST JUMPDEST SWAP1 PUSH0 MSTORE PUSH1 0x20 PUSH0 KECCAK256 SWAP1 PUSH1 0x3 MUL ADD PUSH1 0x40 MLOAD DUP1 PUSH1 0x60 ADD PUSH1 0x40 MSTORE SWAP1 DUP2 PUSH0 DUP3 ADD SLOAD DUP2 MSTORE PUSH1 0x20 ADD PUSH1 0x1 DUP3 ADD DUP1 SLOAD PUSH2 0x2D1 SWAP1 PUSH2 0xCB3 JUMP JUMPDEST DUP1 PUSH1 0x1F ADD PUSH1 0x20 DUP1 SWAP2 DIV MUL PUSH1 0x20 ADD PUSH1 0x40 MLOAD SWAP1 DUP2 ADD PUSH1 0x40 MSTORE DUP1 SWAP3 SWAP2 SWAP1 DUP2 DUP2 MSTORE PUSH1 0x20 ADD DUP3 DUP1 SLOAD PUSH2 0x2FD SWAP1 PUSH2 0xCB3 JUMP JUMPDEST DUP1 ISZERO PUSH2 0x348 JUMPI DUP1 PUSH1 0x1F LT PUSH2 0x31F JUMPI PUSH2 0x100 DUP1 DUP4 SLOAD DIV MUL DUP4 MSTORE SWAP2 PUSH1 0x20 ADD SWAP2 PUSH2 0x348 JUMP JUMPDEST DUP3 ADD SWAP2 SWAP1 PUSH0 MSTORE PUSH1 0x20 PUSH0 KECCAK256 SWAP1 JUMPDEST DUP2 SLOAD DUP2 MSTORE SWAP1 PUSH1 0x1 ADD SWAP1 PUSH1 0x20 ADD DUP1 DUP4 GT PUSH2 0x32B JUMPI DUP3 SWAP1 SUB PUSH1 0x1F AND DUP3 ADD SWAP2 JUMPDEST POP POP POP POP POP DUP2 MSTORE PUSH1 0x20 ADD PUSH1 0x2 DUP3 ADD PUSH0 SWAP1 SLOAD SWAP1 PUSH2 0x100 EXP SWAP1 DIV PUSH20 0xFFFFFFFFFFFFFFFFFFFFFFFFFFFFFFFFFFFFFFFF AND PUSH20 0xFFFFFFFFFFFFFFFFFFFFFFFFFFFFFFFFFFFFFFFF AND PUSH20 0xFFFFFFFFFFFFFFFFFFFFFFFFFFFFFFFFFFFFFFFF AND DUP2 MSTORE POP POP SWAP2 POP POP SWAP2 SWAP1 POP JUMP JUMPDEST PUSH2 0x3B6 PUSH2 0x772 JUMP JUMPDEST PUSH0 PUSH1 0x2 PUSH0 DUP5 DUP2 MSTORE PUSH1 0x20 ADD SWAP1 DUP2 MSTORE PUSH1 0x20 ADD PUSH0 KECCAK256 SLOAD SWAP1 POP PUSH0 DUP2 DUP2 SLOAD DUP2 LT PUSH2 0x3DE JUMPI PUSH2 0x3DD PUSH2 0xCE3 JUMP JUMPDEST JUMPDEST SWAP1 PUSH0 MSTORE PUSH1 0x20 PUSH0 KECCAK256 SWAP1 PUSH1 0x3 MUL ADD PUSH1 0x40 MLOAD DUP1 PUSH1 0x60 ADD PUSH1 0x40 MSTORE SWAP1 DUP2 PUSH0 DUP3 ADD SLOAD DUP2 MSTORE PUSH1 0x20 ADD PUSH1 0x1 DUP3 ADD DUP1 SLOAD PUSH2 0x40E SWAP1 PUSH2 0xCB3 JUMP JUMPDEST DUP1 PUSH1 0x1F ADD PUSH1 0x20 DUP1 SWAP2 DIV MUL PUSH1 0x20 ADD PUSH1 0x40 MLOAD SWAP1 DUP2 ADD PUSH1 0x40 MSTORE DUP1 SWAP3 SWAP2 SWAP1 DUP2 DUP2 MSTORE PUSH1 0x20 ADD DUP3 DUP1 SLOAD PUSH2 0x43A SWAP1 PUSH2 0xCB3 JUMP JUMPDEST DUP1 ISZERO PUSH2 0x485 JUMPI DUP1 PUSH1 0x1F LT PUSH2 0x45C JUMPI PUSH2 0x100 DUP1 DUP4 SLOAD DIV MUL DUP4 MSTORE SWAP2 PUSH1 0x20 ADD SWAP2 PUSH2 0x485 JUMP JUMPDEST DUP3 ADD SWAP2 SWAP1 PUSH0 MSTORE PUSH1 0x20 PUSH0 KECCAK256 SWAP1 JUMPDEST DUP2 SLOAD DUP2 MSTORE SWAP1 PUSH1 0x1 ADD SWAP1 PUSH1 0x20 ADD DUP1 DUP4 GT PUSH2 0x468 JUMPI DUP3 SWAP1 SUB PUSH1 0x1F AND DUP3 ADD SWAP2 JUMPDEST POP POP POP POP POP DUP2 MSTORE PUSH1 0x20 ADD PUSH1 0x2 DUP3 ADD PUSH0 SWAP1 SLOAD SWAP1 PUSH2 0x100 EXP SWAP1 DIV PUSH20 0xFFFFFFFFFFFFFFFFFFFFFFFFFFFFFFFFFFFFFFFF AND PUSH20 0xFFFFFFFFFFFFFFFFFFFFFFFFFFFFFFFFFFFFFFFF AND PUSH20 0xFFFFFFFFFFFFFFFFFFFFFFFFFFFFFFFFFFFFFFFF AND DUP2 MSTORE POP POP SWAP2 POP POP SWAP2 SWAP1 POP JUMP JUMPDEST PUSH0 PUSH1 0x4 PUSH0 DUP5 PUSH20 0xFFFFFFFFFFFFFFFFFFFFFFFFFFFFFFFFFFFFFFFF AND PUSH20 0xFFFFFFFFFFFFFFFFFFFFFFFFFFFFFFFFFFFFFFFF AND DUP2 MSTORE PUSH1 0x20 ADD SWAP1 DUP2 MSTORE PUSH1 0x20 ADD PUSH0 KECCAK256 PUSH0 SWAP1 SLOAD SWAP1 PUSH2 0x100 EXP SWAP1 DIV PUSH1 0xFF AND ISZERO PUSH2 0x576 JUMPI PUSH1 0x40 MLOAD PUSH32 0x8C379A000000000000000000000000000000000000000000000000000000000 DUP2 MSTORE PUSH1 0x4 ADD PUSH2 0x56D SWAP1 PUSH2 0xD6A JUMP JUMPDEST PUSH1 0x40 MLOAD DUP1 SWAP2 SUB SWAP1 REVERT JUMPDEST PUSH0 PUSH1 0x1 PUSH0 DUP2 SLOAD DUP1 SWAP3 SWAP2 SWAP1 PUSH2 0x589 SWAP1 PUSH2 0xDB5 JUMP JUMPDEST SWAP2 SWAP1 POP SSTORE SWAP1 POP PUSH0 PUSH1 0x40 MLOAD DUP1 PUSH1 0x60 ADD PUSH1 0x40 MSTORE DUP1 DUP4 DUP2 MSTORE PUSH1 0x20 ADD DUP6 DUP2 MSTORE PUSH1 0x20 ADD DUP7 PUSH20 0xFFFFFFFFFFFFFFFFFFFFFFFFFFFFFFFFFFFFFFFF AND DUP2 MSTORE POP SWAP1 POP PUSH0 DUP2 SWAP1 DUP1 PUSH1 0x1 DUP2 SLOAD ADD DUP1 DUP3 SSTORE DUP1 SWAP2 POP POP PUSH1 0x1 SWAP1 SUB SWAP1 PUSH0 MSTORE PUSH1 0x20 PUSH0 KECCAK256 SWAP1 PUSH1 0x3 MUL ADD PUSH0 SWAP1 SWAP2 SWAP1 SWAP2 SWAP1 SWAP2 POP PUSH0 DUP3 ADD MLOAD DUP2 PUSH0 ADD SSTORE PUSH1 0x20 DUP3 ADD MLOAD DUP2 PUSH1 0x1 ADD SWAP1 DUP2 PUSH2 0x608 SWAP2 SWAP1 PUSH2 0xF99 JUMP JUMPDEST POP PUSH1 0x40 DUP3 ADD MLOAD DUP2 PUSH1 0x2 ADD PUSH0 PUSH2 0x100 EXP DUP2 SLOAD DUP2 PUSH20 0xFFFFFFFFFFFFFFFFFFFFFFFFFFFFFFFFFFFFFFFF MUL NOT AND SWAP1 DUP4 PUSH20 0xFFFFFFFFFFFFFFFFFFFFFFFFFFFFFFFFFFFFFFFF AND MUL OR SWAP1 SSTORE POP POP POP PUSH0 PUSH1 0x1 PUSH0 DUP1 SLOAD SWAP1 POP PUSH2 0x663 SWAP2 SWAP1 PUSH2 0x1068 JUMP JUMPDEST SWAP1 POP DUP1 PUSH1 0x2 PUSH0 DUP6 DUP2 MSTORE PUSH1 0x20 ADD SWAP1 DUP2 MSTORE PUSH1 0x20 ADD PUSH0 KECCAK256 DUP2 SWAP1 SSTORE POP DUP1 PUSH1 0x3 PUSH0 DUP9 PUSH20 0xFFFFFFFFFFFFFFFFFFFFFFFFFFFFFFFFFFFFFFFF AND PUSH20 0xFFFFFFFFFFFFFFFFFFFFFFFFFFFFFFFFFFFFFFFF AND DUP2 MSTORE PUSH1 0x20 ADD SWAP1 DUP2 MSTORE PUSH1 0x20 ADD PUSH0 KECCAK256 DUP2 SWAP1 SSTORE POP PUSH1 0x1 PUSH1 0x4 PUSH0 DUP9 PUSH20 0xFFFFFFFFFFFFFFFFFFFFFFFFFFFFFFFFFFFFFFFF AND PUSH20 0xFFFFFFFFFFFFFFFFFFFFFFFFFFFFFFFFFFFFFFFF AND DUP2 MSTORE PUSH1 0x20 ADD SWAP1 DUP2 MSTORE PUSH1 0x20 ADD PUSH0 KECCAK256 PUSH0 PUSH2 0x100 EXP DUP2 SLOAD DUP2 PUSH1 0xFF MUL NOT AND SWAP1 DUP4 ISZERO ISZERO MUL OR SWAP1 SSTORE POP PUSH0 PUSH1 0x5 PUSH0 DUP9 PUSH20 0xFFFFFFFFFFFFFFFFFFFFFFFFFFFFFFFFFFFFFFFF AND PUSH20 0xFFFFFFFFFFFFFFFFFFFFFFFFFFFFFFFFFFFFFFFF AND DUP2 MSTORE PUSH1 0x20 ADD SWAP1 DUP2 MSTORE PUSH1 0x20 ADD PUSH0 KECCAK256 PUSH0 PUSH2 0x100 EXP DUP2 SLOAD DUP2 PUSH1 0xFF MUL NOT AND SWAP1 DUP4 ISZERO ISZERO MUL OR SWAP1 SSTORE POP DUP3 SWAP4 POP POP POP POP SWAP3 SWAP2 POP POP JUMP JUMPDEST PUSH1 0x40 MLOAD DUP1 PUSH1 0x60 ADD PUSH1 0x40 MSTORE DUP1 PUSH0 DUP2 MSTORE PUSH1 0x20 ADD PUSH1 0x60 DUP2 MSTORE PUSH1 0x20 ADD PUSH0 PUSH20 0xFFFFFFFFFFFFFFFFFFFFFFFFFFFFFFFFFFFFFFFF AND DUP2 MSTORE POP SWAP1 JUMP JUMPDEST PUSH0 DUP2 MLOAD SWAP1 POP SWAP2 SWAP1 POP JUMP JUMPDEST PUSH0 DUP3 DUP3 MSTORE PUSH1 0x20 DUP3 ADD SWAP1 POP SWAP3 SWAP2 POP POP JUMP JUMPDEST PUSH0 DUP2 SWAP1 POP PUSH1 0x20 DUP3 ADD SWAP1 POP SWAP2 SWAP1 POP JUMP JUMPDEST PUSH0 DUP2 SWAP1 POP SWAP2 SWAP1 POP JUMP JUMPDEST PUSH2 0x7E2 DUP2 PUSH2 0x7D0 JUMP JUMPDEST DUP3 MSTORE POP POP JUMP JUMPDEST PUSH0 DUP2 MLOAD SWAP1 POP SWAP2 SWAP1 POP JUMP JUMPDEST PUSH0 DUP3 DUP3 MSTORE PUSH1 0x20 DUP3 ADD SWAP1 POP SWAP3 SWAP2 POP POP JUMP JUMPDEST PUSH0 JUMPDEST DUP4 DUP2 LT ISZERO PUSH2 0x81F JUMPI DUP1 DUP3 ADD MLOAD DUP2 DUP5 ADD MSTORE PUSH1 0x20 DUP2 ADD SWAP1 POP PUSH2 0x804 JUMP JUMPDEST PUSH0 DUP5 DUP5 ADD MSTORE POP POP POP POP JUMP JUMPDEST PUSH0 PUSH1 0x1F NOT PUSH1 0x1F DUP4 ADD AND SWAP1 POP SWAP2 SWAP1 POP JUMP JUMPDEST PUSH0 PUSH2 0x844 DUP3 PUSH2 0x7E8 JUMP JUMPDEST PUSH2 0x84E DUP2 DUP6 PUSH2 0x7F2 JUMP JUMPDEST SWAP4 POP PUSH2 0x85E DUP2 DUP6 PUSH1 0x20 DUP7 ADD PUSH2 0x802 JUMP JUMPDEST PUSH2 0x867 DUP2 PUSH2 0x82A JUMP JUMPDEST DUP5 ADD SWAP2 POP POP SWAP3 SWAP2 POP POP JUMP JUMPDEST PUSH0 PUSH20 0xFFFFFFFFFFFFFFFFFFFFFFFFFFFFFFFFFFFFFFFF DUP3 AND SWAP1 POP SWAP2 SWAP1 POP JUMP JUMPDEST PUSH0 PUSH2 0x89B DUP3 PUSH2 0x872 JUMP JUMPDEST SWAP1 POP SWAP2 SWAP1 POP JUMP JUMPDEST PUSH2 0x8AB DUP2 PUSH2 0x891 JUMP JUMPDEST DUP3 MSTORE POP POP JUMP JUMPDEST PUSH0 PUSH1 0x60 DUP4 ADD PUSH0 DUP4 ADD MLOAD PUSH2 0x8C6 PUSH0 DUP7 ADD DUP3 PUSH2 0x7D9 JUMP JUMPDEST POP PUSH1 0x20 DUP4 ADD MLOAD DUP5 DUP3 SUB PUSH1 0x20 DUP7 ADD MSTORE PUSH2 0x8DE DUP3 DUP3 PUSH2 0x83A JUMP JUMPDEST SWAP2 POP POP PUSH1 0x40 DUP4 ADD MLOAD PUSH2 0x8F3 PUSH1 0x40 DUP7 ADD DUP3 PUSH2 0x8A2 JUMP JUMPDEST POP DUP1 SWAP2 POP POP SWAP3 SWAP2 POP POP JUMP JUMPDEST PUSH0 PUSH2 0x909 DUP4 DUP4 PUSH2 0x8B1 JUMP JUMPDEST SWAP1 POP SWAP3 SWAP2 POP POP JUMP JUMPDEST PUSH0 PUSH1 0x20 DUP3 ADD SWAP1 POP SWAP2 SWAP1 POP JUMP JUMPDEST PUSH0 PUSH2 0x927 DUP3 PUSH2 0x7A7 JUMP JUMPDEST PUSH2 0x931 DUP2 DUP6 PUSH2 0x7B1 JUMP JUMPDEST SWAP4 POP DUP4 PUSH1 0x20 DUP3 MUL DUP6 ADD PUSH2 0x943 DUP6 PUSH2 0x7C1 JUMP JUMPDEST DUP1 PUSH0 JUMPDEST DUP6 DUP2 LT ISZERO PUSH2 0x97E JUMPI DUP5 DUP5 SUB DUP10 MSTORE DUP2 MLOAD PUSH2 0x95F DUP6 DUP3 PUSH2 0x8FE JUMP JUMPDEST SWAP5 POP PUSH2 0x96A DUP4 PUSH2 0x911 JUMP JUMPDEST SWAP3 POP PUSH1 0x20 DUP11 ADD SWAP10 POP POP PUSH1 0x1 DUP2 ADD SWAP1 POP PUSH2 0x946 JUMP JUMPDEST POP DUP3 SWAP8 POP DUP8 SWAP6 POP POP POP POP POP POP SWAP3 SWAP2 POP POP JUMP JUMPDEST PUSH0 PUSH1 0x20 DUP3 ADD SWAP1 POP DUP2 DUP2 SUB PUSH0 DUP4 ADD MSTORE PUSH2 0x9A8 DUP2 DUP5 PUSH2 0x91D JUMP JUMPDEST SWAP1 POP SWAP3 SWAP2 POP POP JUMP JUMPDEST PUSH0 PUSH1 0x40 MLOAD SWAP1 POP SWAP1 JUMP JUMPDEST PUSH0 DUP1 REVERT JUMPDEST PUSH0 DUP1 REVERT JUMPDEST PUSH2 0x9CA DUP2 PUSH2 0x891 JUMP JUMPDEST DUP2 EQ PUSH2 0x9D4 JUMPI PUSH0 DUP1 REVERT JUMPDEST POP JUMP JUMPDEST PUSH0 DUP2 CALLDATALOAD SWAP1 POP PUSH2 0x9E5 DUP2 PUSH2 0x9C1 JUMP JUMPDEST SWAP3 SWAP2 POP POP JUMP JUMPDEST PUSH0 PUSH1 0x20 DUP3 DUP5 SUB SLT ISZERO PUSH2 0xA00 JUMPI PUSH2 0x9FF PUSH2 0x9B9 JUMP JUMPDEST JUMPDEST PUSH0 PUSH2 0xA0D DUP5 DUP3 DUP6 ADD PUSH2 0x9D7 JUMP JUMPDEST SWAP2 POP POP SWAP3 SWAP2 POP POP JUMP JUMPDEST PUSH0 PUSH1 0x60 DUP4 ADD PUSH0 DUP4 ADD MLOAD PUSH2 0xA2B PUSH0 DUP7 ADD DUP3 PUSH2 0x7D9 JUMP JUMPDEST POP PUSH1 0x20 DUP4 ADD MLOAD DUP5 DUP3 SUB PUSH1 0x20 DUP7 ADD MSTORE PUSH2 0xA43 DUP3 DUP3 PUSH2 0x83A JUMP JUMPDEST SWAP2 POP POP PUSH1 0x40 DUP4 ADD MLOAD PUSH2 0xA58 PUSH1 0x40 DUP7 ADD DUP3 PUSH2 0x8A2 JUMP JUMPDEST POP DUP1 SWAP2 POP POP SWAP3 SWAP2 POP POP JUMP JUMPDEST PUSH0 PUSH1 0x20 DUP3 ADD SWAP1 POP DUP2 DUP2 SUB PUSH0 DUP4 ADD MSTORE PUSH2 0xA7B DUP2 DUP5 PUSH2 0xA16 JUMP JUMPDEST SWAP1 POP SWAP3 SWAP2 POP POP JUMP JUMPDEST PUSH2 0xA8C DUP2 PUSH2 0x7D0 JUMP JUMPDEST DUP2 EQ PUSH2 0xA96 JUMPI PUSH0 DUP1 REVERT JUMPDEST POP JUMP JUMPDEST PUSH0 DUP2 CALLDATALOAD SWAP1 POP PUSH2 0xAA7 DUP2 PUSH2 0xA83 JUMP JUMPDEST SWAP3 SWAP2 POP POP JUMP JUMPDEST PUSH0 PUSH1 0x20 DUP3 DUP5 SUB SLT ISZERO PUSH2 0xAC2 JUMPI PUSH2 0xAC1 PUSH2 0x9B9 JUMP JUMPDEST JUMPDEST PUSH0 PUSH2 0xACF DUP5 DUP3 DUP6 ADD PUSH2 0xA99 JUMP JUMPDEST SWAP2 POP POP SWAP3 SWAP2 POP POP JUMP JUMPDEST PUSH0 DUP1 REVERT JUMPDEST PUSH0 DUP1 REVERT JUMPDEST PUSH32 0x4E487B7100000000000000000000000000000000000000000000000000000000 PUSH0 MSTORE PUSH1 0x41 PUSH1 0x4 MSTORE PUSH1 0x24 PUSH0 REVERT JUMPDEST PUSH2 0xB16 DUP3 PUSH2 0x82A JUMP JUMPDEST DUP2 ADD DUP2 DUP2 LT PUSH8 0xFFFFFFFFFFFFFFFF DUP3 GT OR ISZERO PUSH2 0xB35 JUMPI PUSH2 0xB34 PUSH2 0xAE0 JUMP JUMPDEST JUMPDEST DUP1 PUSH1 0x40 MSTORE POP POP POP JUMP JUMPDEST PUSH0 PUSH2 0xB47 PUSH2 0x9B0 JUMP JUMPDEST SWAP1 POP PUSH2 0xB53 DUP3 DUP3 PUSH2 0xB0D JUMP JUMPDEST SWAP2 SWAP1 POP JUMP JUMPDEST PUSH0 PUSH8 0xFFFFFFFFFFFFFFFF DUP3 GT ISZERO PUSH2 0xB72 JUMPI PUSH2 0xB71 PUSH2 0xAE0 JUMP JUMPDEST JUMPDEST PUSH2 0xB7B DUP3 PUSH2 0x82A JUMP JUMPDEST SWAP1 POP PUSH1 0x20 DUP2 ADD SWAP1 POP SWAP2 SWAP1 POP JUMP JUMPDEST DUP3 DUP2 DUP4 CALLDATACOPY PUSH0 DUP4 DUP4 ADD MSTORE POP POP POP JUMP JUMPDEST PUSH0 PUSH2 0xBA8 PUSH2 0xBA3 DUP5 PUSH2 0xB58 JUMP JUMPDEST PUSH2 0xB3E JUMP JUMPDEST SWAP1 POP DUP3 DUP2 MSTORE PUSH1 0x20 DUP2 ADD DUP5 DUP5 DUP5 ADD GT ISZERO PUSH2 0xBC4 JUMPI PUSH2 0xBC3 PUSH2 0xADC JUMP JUMPDEST JUMPDEST PUSH2 0xBCF DUP5 DUP3 DUP6 PUSH2 0xB88 JUMP JUMPDEST POP SWAP4 SWAP3 POP POP POP JUMP JUMPDEST PUSH0 DUP3 PUSH1 0x1F DUP4 ADD SLT PUSH2 0xBEB JUMPI PUSH2 0xBEA PUSH2 0xAD8 JUMP JUMPDEST JUMPDEST DUP2 CALLDATALOAD PUSH2 0xBFB DUP5 DUP3 PUSH1 0x20 DUP7 ADD PUSH2 0xB96 JUMP JUMPDEST SWAP2 POP POP SWAP3 SWAP2 POP POP JUMP JUMPDEST PUSH0 DUP1 PUSH1 0x40 DUP4 DUP6 SUB SLT ISZERO PUSH2 0xC1A JUMPI PUSH2 0xC19 PUSH2 0x9B9 JUMP JUMPDEST JUMPDEST PUSH0 PUSH2 0xC27 DUP6 DUP3 DUP7 ADD PUSH2 0x9D7 JUMP JUMPDEST SWAP3 POP POP PUSH1 0x20 DUP4 ADD CALLDATALOAD PUSH8 0xFFFFFFFFFFFFFFFF DUP2 GT ISZERO PUSH2 0xC48 JUMPI PUSH2 0xC47 PUSH2 0x9BD JUMP JUMPDEST JUMPDEST PUSH2 0xC54 DUP6 DUP3 DUP7 ADD PUSH2 0xBD7 JUMP JUMPDEST SWAP2 POP POP SWAP3 POP SWAP3 SWAP1 POP JUMP JUMPDEST PUSH2 0xC67 DUP2 PUSH2 0x7D0 JUMP JUMPDEST DUP3 MSTORE POP POP JUMP JUMPDEST PUSH0 PUSH1 0x20 DUP3 ADD SWAP1 POP PUSH2 0xC80 PUSH0 DUP4 ADD DUP5 PUSH2 0xC5E JUMP JUMPDEST SWAP3 SWAP2 POP POP JUMP JUMPDEST PUSH32 0x4E487B7100000000000000000000000000000000000000000000000000000000 PUSH0 MSTORE PUSH1 0x22 PUSH1 0x4 MSTORE PUSH1 0x24 PUSH0 REVERT JUMPDEST PUSH0 PUSH1 0x2 DUP3 DIV SWAP1 POP PUSH1 0x1 DUP3 AND DUP1 PUSH2 0xCCA JUMPI PUSH1 0x7F DUP3 AND SWAP2 POP JUMPDEST PUSH1 0x20 DUP3 LT DUP2 SUB PUSH2 0xCDD JUMPI PUSH2 0xCDC PUSH2 0xC86 JUMP JUMPDEST JUMPDEST POP SWAP2 SWAP1 POP JUMP JUMPDEST PUSH32 0x4E487B7100000000000000000000000000000000000000000000000000000000 PUSH0 MSTORE PUSH1 0x32 PUSH1 0x4 MSTORE PUSH1 0x24 PUSH0 REVERT JUMPDEST PUSH0 DUP3 DUP3 MSTORE PUSH1 0x20 DUP3 ADD SWAP1 POP SWAP3 SWAP2 POP POP JUMP JUMPDEST PUSH32 0x436F6E7472616374204164647265737320616C72656164792065786973747300 PUSH0 DUP3 ADD MSTORE POP JUMP JUMPDEST PUSH0 PUSH2 0xD54 PUSH1 0x1F DUP4 PUSH2 0xD10 JUMP JUMPDEST SWAP2 POP PUSH2 0xD5F DUP3 PUSH2 0xD20 JUMP JUMPDEST PUSH1 0x20 DUP3 ADD SWAP1 POP SWAP2 SWAP1 POP JUMP JUMPDEST PUSH0 PUSH1 0x20 DUP3 ADD SWAP1 POP DUP2 DUP2 SUB PUSH0 DUP4 ADD MSTORE PUSH2 0xD81 DUP2 PUSH2 0xD48 JUMP JUMPDEST SWAP1 POP SWAP2 SWAP1 POP JUMP JUMPDEST PUSH32 0x4E487B7100000000000000000000000000000000000000000000000000000000 PUSH0 MSTORE PUSH1 0x11 PUSH1 0x4 MSTORE PUSH1 0x24 PUSH0 REVERT JUMPDEST PUSH0 PUSH2 0xDBF DUP3 PUSH2 0x7D0 JUMP JUMPDEST SWAP2 POP PUSH32 0xFFFFFFFFFFFFFFFFFFFFFFFFFFFFFFFFFFFFFFFFFFFFFFFFFFFFFFFFFFFFFFFF DUP3 SUB PUSH2 0xDF1 JUMPI PUSH2 0xDF0 PUSH2 0xD88 JUMP JUMPDEST JUMPDEST PUSH1 0x1 DUP3 ADD SWAP1 POP SWAP2 SWAP1 POP JUMP JUMPDEST PUSH0 DUP2 SWAP1 POP DUP2 PUSH0 MSTORE PUSH1 0x20 PUSH0 KECCAK256 SWAP1 POP SWAP2 SWAP1 POP JUMP JUMPDEST PUSH0 PUSH1 0x20 PUSH1 0x1F DUP4 ADD DIV SWAP1 POP SWAP2 SWAP1 POP JUMP JUMPDEST PUSH0 DUP3 DUP3 SHL SWAP1 POP SWAP3 SWAP2 POP POP JUMP JUMPDEST PUSH0 PUSH1 0x8 DUP4 MUL PUSH2 0xE58 PUSH32 0xFFFFFFFFFFFFFFFFFFFFFFFFFFFFFFFFFFFFFFFFFFFFFFFFFFFFFFFFFFFFFFFF DUP3 PUSH2 0xE1D JUMP JUMPDEST PUSH2 0xE62 DUP7 DUP4 PUSH2 0xE1D JUMP JUMPDEST SWAP6 POP DUP1 NOT DUP5 AND SWAP4 POP DUP1 DUP7 AND DUP5 OR SWAP3 POP POP POP SWAP4 SWAP3 POP POP POP JUMP JUMPDEST PUSH0 DUP2 SWAP1 POP SWAP2 SWAP1 POP JUMP JUMPDEST PUSH0 PUSH2 0xE9D PUSH2 0xE98 PUSH2 0xE93 DUP5 PUSH2 0x7D0 JUMP JUMPDEST PUSH2 0xE7A JUMP JUMPDEST PUSH2 0x7D0 JUMP JUMPDEST SWAP1 POP SWAP2 SWAP1 POP JUMP JUMPDEST PUSH0 DUP2 SWAP1 POP SWAP2 SWAP1 POP JUMP JUMPDEST PUSH2 0xEB6 DUP4 PUSH2 0xE83 JUMP JUMPDEST PUSH2 0xECA PUSH2 0xEC2 DUP3 PUSH2 0xEA4 JUMP JUMPDEST DUP5 DUP5 SLOAD PUSH2 0xE29 JUMP JUMPDEST DUP3 SSTORE POP POP POP POP JUMP JUMPDEST PUSH0 SWAP1 JUMP JUMPDEST PUSH2 0xEDE PUSH2 0xED2 JUMP JUMPDEST PUSH2 0xEE9 DUP2 DUP5 DUP5 PUSH2 0xEAD JUMP JUMPDEST POP POP POP JUMP JUMPDEST JUMPDEST DUP2 DUP2 LT ISZERO PUSH2 0xF0C JUMPI PUSH2 0xF01 PUSH0 DUP3 PUSH2 0xED6 JUMP JUMPDEST PUSH1 0x1 DUP2 ADD SWAP1 POP PUSH2 0xEEF JUMP JUMPDEST POP POP JUMP JUMPDEST PUSH1 0x1F DUP3 GT ISZERO PUSH2 0xF51 JUMPI PUSH2 0xF22 DUP2 PUSH2 0xDFC JUMP JUMPDEST PUSH2 0xF2B DUP5 PUSH2 0xE0E JUMP JUMPDEST DUP2 ADD PUSH1 0x20 DUP6 LT ISZERO PUSH2 0xF3A JUMPI DUP2 SWAP1 POP JUMPDEST PUSH2 0xF4E PUSH2 0xF46 DUP6 PUSH2 0xE0E JUMP JUMPDEST DUP4 ADD DUP3 PUSH2 0xEEE JUMP JUMPDEST POP POP JUMPDEST POP POP POP JUMP JUMPDEST PUSH0 DUP3 DUP3 SHR SWAP1 POP SWAP3 SWAP2 POP POP JUMP JUMPDEST PUSH0 PUSH2 0xF71 PUSH0 NOT DUP5 PUSH1 0x8 MUL PUSH2 0xF56 JUMP JUMPDEST NOT DUP1 DUP4 AND SWAP2 POP POP SWAP3 SWAP2 POP POP JUMP JUMPDEST PUSH0 PUSH2 0xF89 DUP4 DUP4 PUSH2 0xF62 JUMP JUMPDEST SWAP2 POP DUP3 PUSH1 0x2 MUL DUP3 OR SWAP1 POP SWAP3 SWAP2 POP POP JUMP JUMPDEST PUSH2 0xFA2 DUP3 PUSH2 0x7E8 JUMP JUMPDEST PUSH8 0xFFFFFFFFFFFFFFFF DUP2 GT ISZERO PUSH2 0xFBB JUMPI PUSH2 0xFBA PUSH2 0xAE0 JUMP JUMPDEST JUMPDEST PUSH2 0xFC5 DUP3 SLOAD PUSH2 0xCB3 JUMP JUMPDEST PUSH2 0xFD0 DUP3 DUP3 DUP6 PUSH2 0xF10 JUMP JUMPDEST PUSH0 PUSH1 0x20 SWAP1 POP PUSH1 0x1F DUP4 GT PUSH1 0x1 DUP2 EQ PUSH2 0x1001 JUMPI PUSH0 DUP5 ISZERO PUSH2 0xFEF JUMPI DUP3 DUP8 ADD MLOAD SWAP1 POP JUMPDEST PUSH2 0xFF9 DUP6 DUP3 PUSH2 0xF7E JUMP JUMPDEST DUP7 SSTORE POP PUSH2 0x1060 JUMP JUMPDEST PUSH1 0x1F NOT DUP5 AND PUSH2 0x100F DUP7 PUSH2 0xDFC JUMP JUMPDEST PUSH0 JUMPDEST DUP3 DUP2 LT ISZERO PUSH2 0x1036 JUMPI DUP5 DUP10 ADD MLOAD DUP3 SSTORE PUSH1 0x1 DUP3 ADD SWAP2 POP PUSH1 0x20 DUP6 ADD SWAP5 POP PUSH1 0x20 DUP2 ADD SWAP1 POP PUSH2 0x1011 JUMP JUMPDEST DUP7 DUP4 LT ISZERO PUSH2 0x1053 JUMPI DUP5 DUP10 ADD MLOAD PUSH2 0x104F PUSH1 0x1F DUP10 AND DUP3 PUSH2 0xF62 JUMP JUMPDEST DUP4 SSTORE POP JUMPDEST PUSH1 0x1 PUSH1 0x2 DUP9 MUL ADD DUP9 SSTORE POP POP POP JUMPDEST POP POP POP POP POP POP JUMP JUMPDEST PUSH0 PUSH2 0x1072 DUP3 PUSH2 0x7D0 JUMP JUMPDEST SWAP2 POP PUSH2 0x107D DUP4 PUSH2 0x7D0 JUMP JUMPDEST SWAP3 POP DUP3 DUP3 SUB SWAP1 POP DUP2 DUP2 GT ISZERO PUSH2 0x1095 JUMPI PUSH2 0x1094 PUSH2 0xD88 JUMP JUMPDEST JUMPDEST SWAP3 SWAP2 POP POP JUMP INVALID LOG2 PUSH5 0x6970667358 0x22 SLT KECCAK256 LOG3 CODESIZE DUP2 0x27 0xD 0xBE 0x25 PUSH8 0xD2AC1ECE953028A5 0xAF LOG1 ORIGIN SWAP8 LOG1 0xD6 0xD5 0xD9 0xBA 0x5C 0xAE 0xCD DUP8 0xC5 CREATE PUSH24 0x64736F6C6343000817003300000000000000000000000000 "
				},
				"gasEstimates": {
					"creation": {
						"codeDepositCost": "861000",
						"executionCost": "23000",
						"totalCost": "884000"
					},
					"external": {
						"getAllContracts()": "infinite",
						"getAssetByContractAddress(address)": "infinite",
						"getContractByContractId(uint256)": "infinite",
						"listContract(address,string)": "infinite"
					}
				},
				"methodIdentifiers": {
					"getAllContracts()": "18d3ce96",
					"getAssetByContractAddress(address)": "5d9c610c",
					"getContractByContractId(uint256)": "e385e261",
					"listContract(address,string)": "e803abaa"
				}
			},
			"storageLayout": {
				"storage": [
					{
						"astId": 88,
						"contract": "contracts/aquo/AquoContractListv3.sol:ContractList",
						"label": "contracts",
						"offset": 0,
						"slot": "0",
						"type": "t_array(t_struct(Contract)84_storage)dyn_storage"
					},
					{
						"astId": 91,
						"contract": "contracts/aquo/AquoContractListv3.sol:ContractList",
						"label": "nextContractId",
						"offset": 0,
						"slot": "1",
						"type": "t_uint256"
					},
					{
						"astId": 95,
						"contract": "contracts/aquo/AquoContractListv3.sol:ContractList",
						"label": "contractIdToIndex",
						"offset": 0,
						"slot": "2",
						"type": "t_mapping(t_uint256,t_uint256)"
					},
					{
						"astId": 99,
						"contract": "contracts/aquo/AquoContractListv3.sol:ContractList",
						"label": "contractAddressToIndex",
						"offset": 0,
						"slot": "3",
						"type": "t_mapping(t_address,t_uint256)"
					},
					{
						"astId": 103,
						"contract": "contracts/aquo/AquoContractListv3.sol:ContractList",
						"label": "contractAddressExists",
						"offset": 0,
						"slot": "4",
						"type": "t_mapping(t_address,t_bool)"
					},
					{
						"astId": 107,
						"contract": "contracts/aquo/AquoContractListv3.sol:ContractList",
						"label": "unallocatedContracts",
						"offset": 0,
						"slot": "5",
						"type": "t_mapping(t_address,t_bool)"
					}
				],
				"types": {
					"t_address": {
						"encoding": "inplace",
						"label": "address",
						"numberOfBytes": "20"
					},
					"t_array(t_struct(Contract)84_storage)dyn_storage": {
						"base": "t_struct(Contract)84_storage",
						"encoding": "dynamic_array",
						"label": "struct ContractList.Contract[]",
						"numberOfBytes": "32"
					},
					"t_bool": {
						"encoding": "inplace",
						"label": "bool",
						"numberOfBytes": "1"
					},
					"t_mapping(t_address,t_bool)": {
						"encoding": "mapping",
						"key": "t_address",
						"label": "mapping(address => bool)",
						"numberOfBytes": "32",
						"value": "t_bool"
					},
					"t_mapping(t_address,t_uint256)": {
						"encoding": "mapping",
						"key": "t_address",
						"label": "mapping(address => uint256)",
						"numberOfBytes": "32",
						"value": "t_uint256"
					},
					"t_mapping(t_uint256,t_uint256)": {
						"encoding": "mapping",
						"key": "t_uint256",
						"label": "mapping(uint256 => uint256)",
						"numberOfBytes": "32",
						"value": "t_uint256"
					},
					"t_string_storage": {
						"encoding": "bytes",
						"label": "string",
						"numberOfBytes": "32"
					},
					"t_struct(Contract)84_storage": {
						"encoding": "inplace",
						"label": "struct ContractList.Contract",
						"members": [
							{
								"astId": 79,
								"contract": "contracts/aquo/AquoContractListv3.sol:ContractList",
								"label": "contractId",
								"offset": 0,
								"slot": "0",
								"type": "t_uint256"
							},
							{
								"astId": 81,
								"contract": "contracts/aquo/AquoContractListv3.sol:ContractList",
								"label": "ipfsAddress",
								"offset": 0,
								"slot": "1",
								"type": "t_string_storage"
							},
							{
								"astId": 83,
								"contract": "contracts/aquo/AquoContractListv3.sol:ContractList",
								"label": "contractAddress",
								"offset": 0,
								"slot": "2",
								"type": "t_address"
							}
						],
						"numberOfBytes": "96"
					},
					"t_uint256": {
						"encoding": "inplace",
						"label": "uint256",
						"numberOfBytes": "32"
					}
				}
			},
			"userdoc": {
				"kind": "user",
				"methods": {},
				"version": 1
			}
		}
	}
}