{
	"contracts/aquo/AquoContractListv4.sol": {
		"ContractList": {
			"abi": [
				{
					"inputs": [
						{
							"internalType": "address",
							"name": "_oracleAddress",
							"type": "address"
						}
					],
					"stateMutability": "nonpayable",
					"type": "constructor"
				},
				{
					"anonymous": false,
					"inputs": [
						{
							"indexed": true,
							"internalType": "address",
							"name": "contractAddress",
							"type": "address"
						},
						{
							"indexed": false,
							"internalType": "uint256",
							"name": "newValuation",
							"type": "uint256"
						}
					],
					"name": "ValuationUpdated",
					"type": "event"
				},
				{
					"inputs": [],
					"name": "getAllContracts",
					"outputs": [
						{
							"components": [
								{
									"internalType": "uint256",
									"name": "contractId",
									"type": "uint256"
								},
								{
									"internalType": "string",
									"name": "ipfsAddress",
									"type": "string"
								},
								{
									"internalType": "address",
									"name": "contractAddress",
									"type": "address"
								},
								{
									"internalType": "uint256",
									"name": "valuation",
									"type": "uint256"
								}
							],
							"internalType": "struct ContractList.Contract[]",
							"name": "",
							"type": "tuple[]"
						}
					],
					"stateMutability": "view",
					"type": "function"
				},
				{
					"inputs": [
						{
							"internalType": "address",
							"name": "_contractAddress",
							"type": "address"
						}
					],
					"name": "getAssetByContractAddress",
					"outputs": [
						{
							"components": [
								{
									"internalType": "uint256",
									"name": "contractId",
									"type": "uint256"
								},
								{
									"internalType": "string",
									"name": "ipfsAddress",
									"type": "string"
								},
								{
									"internalType": "address",
									"name": "contractAddress",
									"type": "address"
								},
								{
									"internalType": "uint256",
									"name": "valuation",
									"type": "uint256"
								}
							],
							"internalType": "struct ContractList.Contract",
							"name": "",
							"type": "tuple"
						}
					],
					"stateMutability": "view",
					"type": "function"
				},
				{
					"inputs": [
						{
							"internalType": "uint256",
							"name": "_contractId",
							"type": "uint256"
						}
					],
					"name": "getContractByContractId",
					"outputs": [
						{
							"components": [
								{
									"internalType": "uint256",
									"name": "contractId",
									"type": "uint256"
								},
								{
									"internalType": "string",
									"name": "ipfsAddress",
									"type": "string"
								},
								{
									"internalType": "address",
									"name": "contractAddress",
									"type": "address"
								},
								{
									"internalType": "uint256",
									"name": "valuation",
									"type": "uint256"
								}
							],
							"internalType": "struct ContractList.Contract",
							"name": "",
							"type": "tuple"
						}
					],
					"stateMutability": "view",
					"type": "function"
				},
				{
					"inputs": [
						{
							"internalType": "address",
							"name": "_contractAddress",
							"type": "address"
						},
						{
							"internalType": "string",
							"name": "_ipfsAddress",
							"type": "string"
						}
					],
					"name": "listContract",
					"outputs": [
						{
							"internalType": "uint256",
							"name": "",
							"type": "uint256"
						}
					],
					"stateMutability": "nonpayable",
					"type": "function"
				},
				{
					"inputs": [],
					"name": "oracle",
					"outputs": [
						{
							"internalType": "contract IOracle",
							"name": "",
							"type": "address"
						}
					],
					"stateMutability": "view",
					"type": "function"
				},
				{
					"inputs": [
						{
							"internalType": "address",
							"name": "_contractAddress",
							"type": "address"
						}
					],
					"name": "updateValuation",
					"outputs": [],
					"stateMutability": "nonpayable",
					"type": "function"
				}
			],
			"devdoc": {
				"kind": "dev",
				"methods": {},
				"version": 1
			},
			"evm": {
				"assembly": "    /* \"contracts/aquo/AquoContractListv4.sol\":176:2950  contract ContractList {... */\n  mstore(0x40, 0x80)\n    /* \"contracts/aquo/AquoContractListv4.sol\":469:470  1 */\n  0x01\n    /* \"contracts/aquo/AquoContractListv4.sol\":436:470  uint256 private nextContractId = 1 */\n  dup1\n  sstore\n    /* \"contracts/aquo/AquoContractListv4.sol\":546:673  constructor(address _oracleAddress) {... */\n  callvalue\n  dup1\n  iszero\n  tag_1\n  jumpi\n  0x00\n  dup1\n  revert\ntag_1:\n  pop\n  mload(0x40)\n  sub(codesize, bytecodeSize)\n  dup1\n  bytecodeSize\n  dup4\n  codecopy\n  dup2\n  dup2\n  add\n  0x40\n  mstore\n  dup2\n  add\n  swap1\n  tag_2\n  swap2\n  swap1\n  tag_3\n  jump\t// in\ntag_2:\n    /* \"contracts/aquo/AquoContractListv4.sol\":610:624  _oracleAddress */\n  dup1\n    /* \"contracts/aquo/AquoContractListv4.sol\":593:599  oracle */\n  0x02\n  0x00\n    /* \"contracts/aquo/AquoContractListv4.sol\":593:625  oracle = IOracle(_oracleAddress) */\n  0x0100\n  exp\n  dup2\n  sload\n  dup2\n  0xffffffffffffffffffffffffffffffffffffffff\n  mul\n  not\n  and\n  swap1\n  dup4\n  0xffffffffffffffffffffffffffffffffffffffff\n  and\n  mul\n  or\n  swap1\n  sstore\n  pop\n    /* \"contracts/aquo/AquoContractListv4.sol\":546:673  constructor(address _oracleAddress) {... */\n  pop\n    /* \"contracts/aquo/AquoContractListv4.sol\":176:2950  contract ContractList {... */\n  jump(tag_6)\n    /* \"#utility.yul\":88:205   */\ntag_8:\n    /* \"#utility.yul\":197:198   */\n  0x00\n    /* \"#utility.yul\":194:195   */\n  dup1\n    /* \"#utility.yul\":187:199   */\n  revert\n    /* \"#utility.yul\":334:460   */\ntag_10:\n    /* \"#utility.yul\":371:378   */\n  0x00\n    /* \"#utility.yul\":411:453   */\n  0xffffffffffffffffffffffffffffffffffffffff\n    /* \"#utility.yul\":404:409   */\n  dup3\n    /* \"#utility.yul\":400:454   */\n  and\n    /* \"#utility.yul\":389:454   */\n  swap1\n  pop\n    /* \"#utility.yul\":334:460   */\n  swap2\n  swap1\n  pop\n  jump\t// out\n    /* \"#utility.yul\":466:562   */\ntag_11:\n    /* \"#utility.yul\":503:510   */\n  0x00\n    /* \"#utility.yul\":532:556   */\n  tag_20\n    /* \"#utility.yul\":550:555   */\n  dup3\n    /* \"#utility.yul\":532:556   */\n  tag_10\n  jump\t// in\ntag_20:\n    /* \"#utility.yul\":521:556   */\n  swap1\n  pop\n    /* \"#utility.yul\":466:562   */\n  swap2\n  swap1\n  pop\n  jump\t// out\n    /* \"#utility.yul\":568:690   */\ntag_12:\n    /* \"#utility.yul\":641:665   */\n  tag_22\n    /* \"#utility.yul\":659:664   */\n  dup2\n    /* \"#utility.yul\":641:665   */\n  tag_11\n  jump\t// in\ntag_22:\n    /* \"#utility.yul\":634:639   */\n  dup2\n    /* \"#utility.yul\":631:666   */\n  eq\n    /* \"#utility.yul\":621:684   */\n  tag_23\n  jumpi\n    /* \"#utility.yul\":680:681   */\n  0x00\n    /* \"#utility.yul\":677:678   */\n  dup1\n    /* \"#utility.yul\":670:682   */\n  revert\n    /* \"#utility.yul\":621:684   */\ntag_23:\n    /* \"#utility.yul\":568:690   */\n  pop\n  jump\t// out\n    /* \"#utility.yul\":696:839   */\ntag_13:\n    /* \"#utility.yul\":753:758   */\n  0x00\n    /* \"#utility.yul\":784:790   */\n  dup2\n    /* \"#utility.yul\":778:791   */\n  mload\n    /* \"#utility.yul\":769:791   */\n  swap1\n  pop\n    /* \"#utility.yul\":800:833   */\n  tag_25\n    /* \"#utility.yul\":827:832   */\n  dup2\n    /* \"#utility.yul\":800:833   */\n  tag_12\n  jump\t// in\ntag_25:\n    /* \"#utility.yul\":696:839   */\n  swap3\n  swap2\n  pop\n  pop\n  jump\t// out\n    /* \"#utility.yul\":845:1196   */\ntag_3:\n    /* \"#utility.yul\":915:921   */\n  0x00\n    /* \"#utility.yul\":964:966   */\n  0x20\n    /* \"#utility.yul\":952:961   */\n  dup3\n    /* \"#utility.yul\":943:950   */\n  dup5\n    /* \"#utility.yul\":939:962   */\n  sub\n    /* \"#utility.yul\":935:967   */\n  slt\n    /* \"#utility.yul\":932:1051   */\n  iszero\n  tag_27\n  jumpi\n    /* \"#utility.yul\":970:1049   */\n  tag_28\n  tag_8\n  jump\t// in\ntag_28:\n    /* \"#utility.yul\":932:1051   */\ntag_27:\n    /* \"#utility.yul\":1090:1091   */\n  0x00\n    /* \"#utility.yul\":1115:1179   */\n  tag_29\n    /* \"#utility.yul\":1171:1178   */\n  dup5\n    /* \"#utility.yul\":1162:1168   */\n  dup3\n    /* \"#utility.yul\":1151:1160   */\n  dup6\n    /* \"#utility.yul\":1147:1169   */\n  add\n    /* \"#utility.yul\":1115:1179   */\n  tag_13\n  jump\t// in\ntag_29:\n    /* \"#utility.yul\":1105:1179   */\n  swap2\n  pop\n    /* \"#utility.yul\":1061:1189   */\n  pop\n    /* \"#utility.yul\":845:1196   */\n  swap3\n  swap2\n  pop\n  pop\n  jump\t// out\n    /* \"contracts/aquo/AquoContractListv4.sol\":176:2950  contract ContractList {... */\ntag_6:\n  dataSize(sub_0)\n  dup1\n  dataOffset(sub_0)\n  0x00\n  codecopy\n  0x00\n  return\nstop\n\nsub_0: assembly {\n        /* \"contracts/aquo/AquoContractListv4.sol\":176:2950  contract ContractList {... */\n      mstore(0x40, 0x80)\n      callvalue\n      dup1\n      iszero\n      tag_1\n      jumpi\n      0x00\n      dup1\n      revert\n    tag_1:\n      pop\n      jumpi(tag_2, lt(calldatasize, 0x04))\n      shr(0xe0, calldataload(0x00))\n      dup1\n      0x18d3ce96\n      eq\n      tag_3\n      jumpi\n      dup1\n      0x5d9c610c\n      eq\n      tag_4\n      jumpi\n      dup1\n      0x7dc0d1d0\n      eq\n      tag_5\n      jumpi\n      dup1\n      0xdcdb65b3\n      eq\n      tag_6\n      jumpi\n      dup1\n      0xe385e261\n      eq\n      tag_7\n      jumpi\n      dup1\n      0xe803abaa\n      eq\n      tag_8\n      jumpi\n    tag_2:\n      0x00\n      dup1\n      revert\n        /* \"contracts/aquo/AquoContractListv4.sol\":2845:2947  function getAllContracts() public view returns (Contract[] memory) {... */\n    tag_3:\n      tag_9\n      tag_10\n      jump\t// in\n    tag_9:\n      mload(0x40)\n      tag_11\n      swap2\n      swap1\n      tag_12\n      jump\t// in\n    tag_11:\n      mload(0x40)\n      dup1\n      swap2\n      sub\n      swap1\n      return\n        /* \"contracts/aquo/AquoContractListv4.sol\":2400:2670  function getAssetByContractAddress(address _contractAddress) public view returns (Contract memory) {... */\n    tag_4:\n      tag_13\n      0x04\n      dup1\n      calldatasize\n      sub\n      dup2\n      add\n      swap1\n      tag_14\n      swap2\n      swap1\n      tag_15\n      jump\t// in\n    tag_14:\n      tag_16\n      jump\t// in\n    tag_13:\n      mload(0x40)\n      tag_17\n      swap2\n      swap1\n      tag_18\n      jump\t// in\n    tag_17:\n      mload(0x40)\n      dup1\n      swap2\n      sub\n      swap1\n      return\n        /* \"contracts/aquo/AquoContractListv4.sol\":477:498  IOracle public oracle */\n    tag_5:\n      tag_19\n      tag_20\n      jump\t// in\n    tag_19:\n      mload(0x40)\n      tag_21\n      swap2\n      swap1\n      tag_22\n      jump\t// in\n    tag_21:\n      mload(0x40)\n      dup1\n      swap2\n      sub\n      swap1\n      return\n        /* \"contracts/aquo/AquoContractListv4.sol\":1972:2392  function updateValuation(address _contractAddress) public {... */\n    tag_6:\n      tag_23\n      0x04\n      dup1\n      calldatasize\n      sub\n      dup2\n      add\n      swap1\n      tag_24\n      swap2\n      swap1\n      tag_15\n      jump\t// in\n    tag_24:\n      tag_25\n      jump\t// in\n    tag_23:\n      stop\n        /* \"contracts/aquo/AquoContractListv4.sol\":2678:2837  function getContractByContractId(uint256 _contractId) public view returns (Contract memory) {... */\n    tag_7:\n      tag_26\n      0x04\n      dup1\n      calldatasize\n      sub\n      dup2\n      add\n      swap1\n      tag_27\n      swap2\n      swap1\n      tag_28\n      jump\t// in\n    tag_27:\n      tag_29\n      jump\t// in\n    tag_26:\n      mload(0x40)\n      tag_30\n      swap2\n      swap1\n      tag_18\n      jump\t// in\n    tag_30:\n      mload(0x40)\n      dup1\n      swap2\n      sub\n      swap1\n      return\n        /* \"contracts/aquo/AquoContractListv4.sol\":1112:1964  function listContract(address _contractAddress, string memory _ipfsAddress) public returns (uint256) {... */\n    tag_8:\n      tag_31\n      0x04\n      dup1\n      calldatasize\n      sub\n      dup2\n      add\n      swap1\n      tag_32\n      swap2\n      swap1\n      tag_33\n      jump\t// in\n    tag_32:\n      tag_34\n      jump\t// in\n    tag_31:\n      mload(0x40)\n      tag_35\n      swap2\n      swap1\n      tag_36\n      jump\t// in\n    tag_35:\n      mload(0x40)\n      dup1\n      swap2\n      sub\n      swap1\n      return\n        /* \"contracts/aquo/AquoContractListv4.sol\":2845:2947  function getAllContracts() public view returns (Contract[] memory) {... */\n    tag_10:\n        /* \"contracts/aquo/AquoContractListv4.sol\":2893:2910  Contract[] memory */\n      0x60\n        /* \"contracts/aquo/AquoContractListv4.sol\":2930:2939  contracts */\n      0x00\n        /* \"contracts/aquo/AquoContractListv4.sol\":2923:2939  return contracts */\n      dup1\n      sload\n      dup1\n      0x20\n      mul\n      0x20\n      add\n      mload(0x40)\n      swap1\n      dup2\n      add\n      0x40\n      mstore\n      dup1\n      swap3\n      swap2\n      swap1\n      dup2\n      dup2\n      mstore\n      0x20\n      add\n      0x00\n      swap1\n    tag_38:\n      dup3\n      dup3\n      lt\n      iszero\n      tag_39\n      jumpi\n      dup4\n      dup3\n      swap1\n      0x00\n      mstore\n      keccak256(0x00, 0x20)\n      swap1\n      0x04\n      mul\n      add\n      mload(0x40)\n      dup1\n      0x80\n      add\n      0x40\n      mstore\n      swap1\n      dup2\n      0x00\n      dup3\n      add\n      sload\n      dup2\n      mstore\n      0x20\n      add\n      0x01\n      dup3\n      add\n      dup1\n      sload\n      tag_41\n      swap1\n      tag_42\n      jump\t// in\n    tag_41:\n      dup1\n      0x1f\n      add\n      0x20\n      dup1\n      swap2\n      div\n      mul\n      0x20\n      add\n      mload(0x40)\n      swap1\n      dup2\n      add\n      0x40\n      mstore\n      dup1\n      swap3\n      swap2\n      swap1\n      dup2\n      dup2\n      mstore\n      0x20\n      add\n      dup3\n      dup1\n      sload\n      tag_43\n      swap1\n      tag_42\n      jump\t// in\n    tag_43:\n      dup1\n      iszero\n      tag_44\n      jumpi\n      dup1\n      0x1f\n      lt\n      tag_45\n      jumpi\n      0x0100\n      dup1\n      dup4\n      sload\n      div\n      mul\n      dup4\n      mstore\n      swap2\n      0x20\n      add\n      swap2\n      jump(tag_44)\n    tag_45:\n      dup3\n      add\n      swap2\n      swap1\n      0x00\n      mstore\n      keccak256(0x00, 0x20)\n      swap1\n    tag_46:\n      dup2\n      sload\n      dup2\n      mstore\n      swap1\n      0x01\n      add\n      swap1\n      0x20\n      add\n      dup1\n      dup4\n      gt\n      tag_46\n      jumpi\n      dup3\n      swap1\n      sub\n      0x1f\n      and\n      dup3\n      add\n      swap2\n    tag_44:\n      pop\n      pop\n      pop\n      pop\n      pop\n      dup2\n      mstore\n      0x20\n      add\n      0x02\n      dup3\n      add\n      0x00\n      swap1\n      sload\n      swap1\n      0x0100\n      exp\n      swap1\n      div\n      0xffffffffffffffffffffffffffffffffffffffff\n      and\n      0xffffffffffffffffffffffffffffffffffffffff\n      and\n      0xffffffffffffffffffffffffffffffffffffffff\n      and\n      dup2\n      mstore\n      0x20\n      add\n      0x03\n      dup3\n      add\n      sload\n      dup2\n      mstore\n      pop\n      pop\n      dup2\n      mstore\n      0x20\n      add\n      swap1\n      0x01\n      add\n      swap1\n      jump(tag_38)\n    tag_39:\n      pop\n      pop\n      pop\n      pop\n      swap1\n      pop\n        /* \"contracts/aquo/AquoContractListv4.sol\":2845:2947  function getAllContracts() public view returns (Contract[] memory) {... */\n      swap1\n      jump\t// out\n        /* \"contracts/aquo/AquoContractListv4.sol\":2400:2670  function getAssetByContractAddress(address _contractAddress) public view returns (Contract memory) {... */\n    tag_16:\n        /* \"contracts/aquo/AquoContractListv4.sol\":2482:2497  Contract memory */\n      tag_47\n      tag_48\n      jump\t// in\n    tag_47:\n        /* \"contracts/aquo/AquoContractListv4.sol\":2518:2539  contractAddressExists */\n      0x05\n        /* \"contracts/aquo/AquoContractListv4.sol\":2518:2557  contractAddressExists[_contractAddress] */\n      0x00\n        /* \"contracts/aquo/AquoContractListv4.sol\":2540:2556  _contractAddress */\n      dup4\n        /* \"contracts/aquo/AquoContractListv4.sol\":2518:2557  contractAddressExists[_contractAddress] */\n      0xffffffffffffffffffffffffffffffffffffffff\n      and\n      0xffffffffffffffffffffffffffffffffffffffff\n      and\n      dup2\n      mstore\n      0x20\n      add\n      swap1\n      dup2\n      mstore\n      0x20\n      add\n      0x00\n      keccak256\n      0x00\n      swap1\n      sload\n      swap1\n      0x0100\n      exp\n      swap1\n      div\n      0xff\n      and\n        /* \"contracts/aquo/AquoContractListv4.sol\":2510:2593  require(contractAddressExists[_contractAddress], \"Contract Address does not exist\") */\n      tag_50\n      jumpi\n      mload(0x40)\n      0x08c379a000000000000000000000000000000000000000000000000000000000\n      dup2\n      mstore\n      0x04\n      add\n      tag_51\n      swap1\n      tag_52\n      jump\t// in\n    tag_51:\n      mload(0x40)\n      dup1\n      swap2\n      sub\n      swap1\n      revert\n    tag_50:\n        /* \"contracts/aquo/AquoContractListv4.sol\":2611:2620  contracts */\n      0x00\n        /* \"contracts/aquo/AquoContractListv4.sol\":2621:2643  contractAddressToIndex */\n      0x04\n        /* \"contracts/aquo/AquoContractListv4.sol\":2621:2661  contractAddressToIndex[_contractAddress] */\n      0x00\n        /* \"contracts/aquo/AquoContractListv4.sol\":2644:2660  _contractAddress */\n      dup5\n        /* \"contracts/aquo/AquoContractListv4.sol\":2621:2661  contractAddressToIndex[_contractAddress] */\n      0xffffffffffffffffffffffffffffffffffffffff\n      and\n      0xffffffffffffffffffffffffffffffffffffffff\n      and\n      dup2\n      mstore\n      0x20\n      add\n      swap1\n      dup2\n      mstore\n      0x20\n      add\n      0x00\n      keccak256\n      sload\n        /* \"contracts/aquo/AquoContractListv4.sol\":2611:2662  contracts[contractAddressToIndex[_contractAddress]] */\n      dup2\n      sload\n      dup2\n      lt\n      tag_53\n      jumpi\n      tag_54\n      tag_55\n      jump\t// in\n    tag_54:\n    tag_53:\n      swap1\n      0x00\n      mstore\n      keccak256(0x00, 0x20)\n      swap1\n      0x04\n      mul\n      add\n        /* \"contracts/aquo/AquoContractListv4.sol\":2604:2662  return contracts[contractAddressToIndex[_contractAddress]] */\n      mload(0x40)\n      dup1\n      0x80\n      add\n      0x40\n      mstore\n      swap1\n      dup2\n      0x00\n      dup3\n      add\n      sload\n      dup2\n      mstore\n      0x20\n      add\n      0x01\n      dup3\n      add\n      dup1\n      sload\n      tag_57\n      swap1\n      tag_42\n      jump\t// in\n    tag_57:\n      dup1\n      0x1f\n      add\n      0x20\n      dup1\n      swap2\n      div\n      mul\n      0x20\n      add\n      mload(0x40)\n      swap1\n      dup2\n      add\n      0x40\n      mstore\n      dup1\n      swap3\n      swap2\n      swap1\n      dup2\n      dup2\n      mstore\n      0x20\n      add\n      dup3\n      dup1\n      sload\n      tag_58\n      swap1\n      tag_42\n      jump\t// in\n    tag_58:\n      dup1\n      iszero\n      tag_59\n      jumpi\n      dup1\n      0x1f\n      lt\n      tag_60\n      jumpi\n      0x0100\n      dup1\n      dup4\n      sload\n      div\n      mul\n      dup4\n      mstore\n      swap2\n      0x20\n      add\n      swap2\n      jump(tag_59)\n    tag_60:\n      dup3\n      add\n      swap2\n      swap1\n      0x00\n      mstore\n      keccak256(0x00, 0x20)\n      swap1\n    tag_61:\n      dup2\n      sload\n      dup2\n      mstore\n      swap1\n      0x01\n      add\n      swap1\n      0x20\n      add\n      dup1\n      dup4\n      gt\n      tag_61\n      jumpi\n      dup3\n      swap1\n      sub\n      0x1f\n      and\n      dup3\n      add\n      swap2\n    tag_59:\n      pop\n      pop\n      pop\n      pop\n      pop\n      dup2\n      mstore\n      0x20\n      add\n      0x02\n      dup3\n      add\n      0x00\n      swap1\n      sload\n      swap1\n      0x0100\n      exp\n      swap1\n      div\n      0xffffffffffffffffffffffffffffffffffffffff\n      and\n      0xffffffffffffffffffffffffffffffffffffffff\n      and\n      0xffffffffffffffffffffffffffffffffffffffff\n      and\n      dup2\n      mstore\n      0x20\n      add\n      0x03\n      dup3\n      add\n      sload\n      dup2\n      mstore\n      pop\n      pop\n      swap1\n      pop\n        /* \"contracts/aquo/AquoContractListv4.sol\":2400:2670  function getAssetByContractAddress(address _contractAddress) public view returns (Contract memory) {... */\n      swap2\n      swap1\n      pop\n      jump\t// out\n        /* \"contracts/aquo/AquoContractListv4.sol\":477:498  IOracle public oracle */\n    tag_20:\n      0x02\n      0x00\n      swap1\n      sload\n      swap1\n      0x0100\n      exp\n      swap1\n      div\n      0xffffffffffffffffffffffffffffffffffffffff\n      and\n      dup2\n      jump\t// out\n        /* \"contracts/aquo/AquoContractListv4.sol\":1972:2392  function updateValuation(address _contractAddress) public {... */\n    tag_25:\n        /* \"contracts/aquo/AquoContractListv4.sol\":2049:2070  contractAddressExists */\n      0x05\n        /* \"contracts/aquo/AquoContractListv4.sol\":2049:2088  contractAddressExists[_contractAddress] */\n      0x00\n        /* \"contracts/aquo/AquoContractListv4.sol\":2071:2087  _contractAddress */\n      dup3\n        /* \"contracts/aquo/AquoContractListv4.sol\":2049:2088  contractAddressExists[_contractAddress] */\n      0xffffffffffffffffffffffffffffffffffffffff\n      and\n      0xffffffffffffffffffffffffffffffffffffffff\n      and\n      dup2\n      mstore\n      0x20\n      add\n      swap1\n      dup2\n      mstore\n      0x20\n      add\n      0x00\n      keccak256\n      0x00\n      swap1\n      sload\n      swap1\n      0x0100\n      exp\n      swap1\n      div\n      0xff\n      and\n        /* \"contracts/aquo/AquoContractListv4.sol\":2041:2124  require(contractAddressExists[_contractAddress], \"Contract Address does not exist\") */\n      tag_63\n      jumpi\n      mload(0x40)\n      0x08c379a000000000000000000000000000000000000000000000000000000000\n      dup2\n      mstore\n      0x04\n      add\n      tag_64\n      swap1\n      tag_52\n      jump\t// in\n    tag_64:\n      mload(0x40)\n      dup1\n      swap2\n      sub\n      swap1\n      revert\n    tag_63:\n        /* \"contracts/aquo/AquoContractListv4.sol\":2135:2148  uint256 index */\n      0x00\n        /* \"contracts/aquo/AquoContractListv4.sol\":2151:2173  contractAddressToIndex */\n      0x04\n        /* \"contracts/aquo/AquoContractListv4.sol\":2151:2191  contractAddressToIndex[_contractAddress] */\n      0x00\n        /* \"contracts/aquo/AquoContractListv4.sol\":2174:2190  _contractAddress */\n      dup4\n        /* \"contracts/aquo/AquoContractListv4.sol\":2151:2191  contractAddressToIndex[_contractAddress] */\n      0xffffffffffffffffffffffffffffffffffffffff\n      and\n      0xffffffffffffffffffffffffffffffffffffffff\n      and\n      dup2\n      mstore\n      0x20\n      add\n      swap1\n      dup2\n      mstore\n      0x20\n      add\n      0x00\n      keccak256\n      sload\n        /* \"contracts/aquo/AquoContractListv4.sol\":2135:2191  uint256 index = contractAddressToIndex[_contractAddress] */\n      swap1\n      pop\n        /* \"contracts/aquo/AquoContractListv4.sol\":2202:2222  uint256 newValuation */\n      0x00\n        /* \"contracts/aquo/AquoContractListv4.sol\":2225:2231  oracle */\n      0x02\n      0x00\n      swap1\n      sload\n      swap1\n      0x0100\n      exp\n      swap1\n      div\n      0xffffffffffffffffffffffffffffffffffffffff\n      and\n        /* \"contracts/aquo/AquoContractListv4.sol\":2225:2250  oracle.getLatestValuation */\n      0xffffffffffffffffffffffffffffffffffffffff\n      and\n      0xc2ea6519\n        /* \"contracts/aquo/AquoContractListv4.sol\":2251:2267  _contractAddress */\n      dup5\n        /* \"contracts/aquo/AquoContractListv4.sol\":2225:2268  oracle.getLatestValuation(_contractAddress) */\n      mload(0x40)\n      dup3\n      0xffffffff\n      and\n      0xe0\n      shl\n      dup2\n      mstore\n      0x04\n      add\n      tag_65\n      swap2\n      swap1\n      tag_66\n      jump\t// in\n    tag_65:\n      0x20\n      mload(0x40)\n      dup1\n      dup4\n      sub\n      dup2\n      dup7\n      gas\n      staticcall\n      iszero\n      dup1\n      iszero\n      tag_68\n      jumpi\n      returndatasize\n      0x00\n      dup1\n      returndatacopy\n      revert(0x00, returndatasize)\n    tag_68:\n      pop\n      pop\n      pop\n      pop\n      mload(0x40)\n      returndatasize\n      not(0x1f)\n      0x1f\n      dup3\n      add\n      and\n      dup3\n      add\n      dup1\n      0x40\n      mstore\n      pop\n      dup2\n      add\n      swap1\n      tag_69\n      swap2\n      swap1\n      tag_70\n      jump\t// in\n    tag_69:\n        /* \"contracts/aquo/AquoContractListv4.sol\":2202:2268  uint256 newValuation = oracle.getLatestValuation(_contractAddress) */\n      swap1\n      pop\n        /* \"contracts/aquo/AquoContractListv4.sol\":2308:2320  newValuation */\n      dup1\n        /* \"contracts/aquo/AquoContractListv4.sol\":2279:2288  contracts */\n      0x00\n        /* \"contracts/aquo/AquoContractListv4.sol\":2289:2294  index */\n      dup4\n        /* \"contracts/aquo/AquoContractListv4.sol\":2279:2295  contracts[index] */\n      dup2\n      sload\n      dup2\n      lt\n      tag_71\n      jumpi\n      tag_72\n      tag_55\n      jump\t// in\n    tag_72:\n    tag_71:\n      swap1\n      0x00\n      mstore\n      keccak256(0x00, 0x20)\n      swap1\n      0x04\n      mul\n      add\n        /* \"contracts/aquo/AquoContractListv4.sol\":2279:2305  contracts[index].valuation */\n      0x03\n      add\n        /* \"contracts/aquo/AquoContractListv4.sol\":2279:2320  contracts[index].valuation = newValuation */\n      dup2\n      swap1\n      sstore\n      pop\n        /* \"contracts/aquo/AquoContractListv4.sol\":2353:2369  _contractAddress */\n      dup3\n        /* \"contracts/aquo/AquoContractListv4.sol\":2336:2384  ValuationUpdated(_contractAddress, newValuation) */\n      0xffffffffffffffffffffffffffffffffffffffff\n      and\n      0xd7c8e3f1cf0cde9378530e35ac4f45bbf534b0658c24dd4e1b56b6099959eee3\n        /* \"contracts/aquo/AquoContractListv4.sol\":2371:2383  newValuation */\n      dup3\n        /* \"contracts/aquo/AquoContractListv4.sol\":2336:2384  ValuationUpdated(_contractAddress, newValuation) */\n      mload(0x40)\n      tag_74\n      swap2\n      swap1\n      tag_36\n      jump\t// in\n    tag_74:\n      mload(0x40)\n      dup1\n      swap2\n      sub\n      swap1\n      log2\n        /* \"contracts/aquo/AquoContractListv4.sol\":2030:2392  {... */\n      pop\n      pop\n        /* \"contracts/aquo/AquoContractListv4.sol\":1972:2392  function updateValuation(address _contractAddress) public {... */\n      pop\n      jump\t// out\n        /* \"contracts/aquo/AquoContractListv4.sol\":2678:2837  function getContractByContractId(uint256 _contractId) public view returns (Contract memory) {... */\n    tag_29:\n        /* \"contracts/aquo/AquoContractListv4.sol\":2753:2768  Contract memory */\n      tag_75\n      tag_48\n      jump\t// in\n    tag_75:\n        /* \"contracts/aquo/AquoContractListv4.sol\":2788:2797  contracts */\n      0x00\n        /* \"contracts/aquo/AquoContractListv4.sol\":2798:2815  contractIdToIndex */\n      0x03\n        /* \"contracts/aquo/AquoContractListv4.sol\":2798:2828  contractIdToIndex[_contractId] */\n      0x00\n        /* \"contracts/aquo/AquoContractListv4.sol\":2816:2827  _contractId */\n      dup5\n        /* \"contracts/aquo/AquoContractListv4.sol\":2798:2828  contractIdToIndex[_contractId] */\n      dup2\n      mstore\n      0x20\n      add\n      swap1\n      dup2\n      mstore\n      0x20\n      add\n      0x00\n      keccak256\n      sload\n        /* \"contracts/aquo/AquoContractListv4.sol\":2788:2829  contracts[contractIdToIndex[_contractId]] */\n      dup2\n      sload\n      dup2\n      lt\n      tag_77\n      jumpi\n      tag_78\n      tag_55\n      jump\t// in\n    tag_78:\n    tag_77:\n      swap1\n      0x00\n      mstore\n      keccak256(0x00, 0x20)\n      swap1\n      0x04\n      mul\n      add\n        /* \"contracts/aquo/AquoContractListv4.sol\":2781:2829  return contracts[contractIdToIndex[_contractId]] */\n      mload(0x40)\n      dup1\n      0x80\n      add\n      0x40\n      mstore\n      swap1\n      dup2\n      0x00\n      dup3\n      add\n      sload\n      dup2\n      mstore\n      0x20\n      add\n      0x01\n      dup3\n      add\n      dup1\n      sload\n      tag_80\n      swap1\n      tag_42\n      jump\t// in\n    tag_80:\n      dup1\n      0x1f\n      add\n      0x20\n      dup1\n      swap2\n      div\n      mul\n      0x20\n      add\n      mload(0x40)\n      swap1\n      dup2\n      add\n      0x40\n      mstore\n      dup1\n      swap3\n      swap2\n      swap1\n      dup2\n      dup2\n      mstore\n      0x20\n      add\n      dup3\n      dup1\n      sload\n      tag_81\n      swap1\n      tag_42\n      jump\t// in\n    tag_81:\n      dup1\n      iszero\n      tag_82\n      jumpi\n      dup1\n      0x1f\n      lt\n      tag_83\n      jumpi\n      0x0100\n      dup1\n      dup4\n      sload\n      div\n      mul\n      dup4\n      mstore\n      swap2\n      0x20\n      add\n      swap2\n      jump(tag_82)\n    tag_83:\n      dup3\n      add\n      swap2\n      swap1\n      0x00\n      mstore\n      keccak256(0x00, 0x20)\n      swap1\n    tag_84:\n      dup2\n      sload\n      dup2\n      mstore\n      swap1\n      0x01\n      add\n      swap1\n      0x20\n      add\n      dup1\n      dup4\n      gt\n      tag_84\n      jumpi\n      dup3\n      swap1\n      sub\n      0x1f\n      and\n      dup3\n      add\n      swap2\n    tag_82:\n      pop\n      pop\n      pop\n      pop\n      pop\n      dup2\n      mstore\n      0x20\n      add\n      0x02\n      dup3\n      add\n      0x00\n      swap1\n      sload\n      swap1\n      0x0100\n      exp\n      swap1\n      div\n      0xffffffffffffffffffffffffffffffffffffffff\n      and\n      0xffffffffffffffffffffffffffffffffffffffff\n      and\n      0xffffffffffffffffffffffffffffffffffffffff\n      and\n      dup2\n      mstore\n      0x20\n      add\n      0x03\n      dup3\n      add\n      sload\n      dup2\n      mstore\n      pop\n      pop\n      swap1\n      pop\n        /* \"contracts/aquo/AquoContractListv4.sol\":2678:2837  function getContractByContractId(uint256 _contractId) public view returns (Contract memory) {... */\n      swap2\n      swap1\n      pop\n      jump\t// out\n        /* \"contracts/aquo/AquoContractListv4.sol\":1112:1964  function listContract(address _contractAddress, string memory _ipfsAddress) public returns (uint256) {... */\n    tag_34:\n        /* \"contracts/aquo/AquoContractListv4.sol\":1204:1211  uint256 */\n      0x00\n        /* \"contracts/aquo/AquoContractListv4.sol\":1233:1254  contractAddressExists */\n      0x05\n        /* \"contracts/aquo/AquoContractListv4.sol\":1233:1272  contractAddressExists[_contractAddress] */\n      0x00\n        /* \"contracts/aquo/AquoContractListv4.sol\":1255:1271  _contractAddress */\n      dup5\n        /* \"contracts/aquo/AquoContractListv4.sol\":1233:1272  contractAddressExists[_contractAddress] */\n      0xffffffffffffffffffffffffffffffffffffffff\n      and\n      0xffffffffffffffffffffffffffffffffffffffff\n      and\n      dup2\n      mstore\n      0x20\n      add\n      swap1\n      dup2\n      mstore\n      0x20\n      add\n      0x00\n      keccak256\n      0x00\n      swap1\n      sload\n      swap1\n      0x0100\n      exp\n      swap1\n      div\n      0xff\n      and\n        /* \"contracts/aquo/AquoContractListv4.sol\":1232:1272  !contractAddressExists[_contractAddress] */\n      iszero\n        /* \"contracts/aquo/AquoContractListv4.sol\":1224:1308  require(!contractAddressExists[_contractAddress], \"Contract Address already exists\") */\n      tag_86\n      jumpi\n      mload(0x40)\n      0x08c379a000000000000000000000000000000000000000000000000000000000\n      dup2\n      mstore\n      0x04\n      add\n      tag_87\n      swap1\n      tag_88\n      jump\t// in\n    tag_87:\n      mload(0x40)\n      dup1\n      swap2\n      sub\n      swap1\n      revert\n    tag_86:\n        /* \"contracts/aquo/AquoContractListv4.sol\":1321:1339  uint256 contractId */\n      0x00\n        /* \"contracts/aquo/AquoContractListv4.sol\":1342:1356  nextContractId */\n      0x01\n      0x00\n        /* \"contracts/aquo/AquoContractListv4.sol\":1342:1358  nextContractId++ */\n      dup2\n      sload\n      dup1\n      swap3\n      swap2\n      swap1\n      tag_89\n      swap1\n      tag_90\n      jump\t// in\n    tag_89:\n      swap2\n      swap1\n      pop\n      sstore\n        /* \"contracts/aquo/AquoContractListv4.sol\":1321:1358  uint256 contractId = nextContractId++ */\n      swap1\n      pop\n        /* \"contracts/aquo/AquoContractListv4.sol\":1369:1396  Contract memory newContract */\n      0x00\n        /* \"contracts/aquo/AquoContractListv4.sol\":1399:1607  Contract({... */\n      mload(0x40)\n      dup1\n      0x80\n      add\n      0x40\n      mstore\n      dup1\n        /* \"contracts/aquo/AquoContractListv4.sol\":1435:1445  contractId */\n      dup4\n        /* \"contracts/aquo/AquoContractListv4.sol\":1399:1607  Contract({... */\n      dup2\n      mstore\n      0x20\n      add\n        /* \"contracts/aquo/AquoContractListv4.sol\":1473:1485  _ipfsAddress */\n      dup6\n        /* \"contracts/aquo/AquoContractListv4.sol\":1399:1607  Contract({... */\n      dup2\n      mstore\n      0x20\n      add\n        /* \"contracts/aquo/AquoContractListv4.sol\":1517:1533  _contractAddress */\n      dup7\n        /* \"contracts/aquo/AquoContractListv4.sol\":1399:1607  Contract({... */\n      0xffffffffffffffffffffffffffffffffffffffff\n      and\n      dup2\n      mstore\n      0x20\n      add\n        /* \"contracts/aquo/AquoContractListv4.sol\":1559:1560  0 */\n      0x00\n        /* \"contracts/aquo/AquoContractListv4.sol\":1399:1607  Contract({... */\n      dup2\n      mstore\n      pop\n        /* \"contracts/aquo/AquoContractListv4.sol\":1369:1607  Contract memory newContract = Contract({... */\n      swap1\n      pop\n        /* \"contracts/aquo/AquoContractListv4.sol\":1618:1627  contracts */\n      0x00\n        /* \"contracts/aquo/AquoContractListv4.sol\":1633:1644  newContract */\n      dup2\n        /* \"contracts/aquo/AquoContractListv4.sol\":1618:1645  contracts.push(newContract) */\n      swap1\n      dup1\n      0x01\n      dup2\n      sload\n      add\n      dup1\n      dup3\n      sstore\n      dup1\n      swap2\n      pop\n      pop\n      0x01\n      swap1\n      sub\n      swap1\n      0x00\n      mstore\n      keccak256(0x00, 0x20)\n      swap1\n      0x04\n      mul\n      add\n      0x00\n      swap1\n      swap2\n      swap1\n      swap2\n      swap1\n      swap2\n      pop\n      0x00\n      dup3\n      add\n      mload\n      dup2\n      0x00\n      add\n      sstore\n      0x20\n      dup3\n      add\n      mload\n      dup2\n      0x01\n      add\n      swap1\n      dup2\n      tag_92\n      swap2\n      swap1\n      tag_93\n      jump\t// in\n    tag_92:\n      pop\n      0x40\n      dup3\n      add\n      mload\n      dup2\n      0x02\n      add\n      exp(0x0100, 0x00)\n      dup2\n      sload\n      dup2\n      0xffffffffffffffffffffffffffffffffffffffff\n      mul\n      not\n      and\n      swap1\n      dup4\n      0xffffffffffffffffffffffffffffffffffffffff\n      and\n      mul\n      or\n      swap1\n      sstore\n      pop\n      0x60\n      dup3\n      add\n      mload\n      dup2\n      0x03\n      add\n      sstore\n      pop\n      pop\n        /* \"contracts/aquo/AquoContractListv4.sol\":1656:1669  uint256 index */\n      0x00\n        /* \"contracts/aquo/AquoContractListv4.sol\":1691:1692  1 */\n      0x01\n        /* \"contracts/aquo/AquoContractListv4.sol\":1672:1681  contracts */\n      0x00\n        /* \"contracts/aquo/AquoContractListv4.sol\":1672:1688  contracts.length */\n      dup1\n      sload\n      swap1\n      pop\n        /* \"contracts/aquo/AquoContractListv4.sol\":1672:1692  contracts.length - 1 */\n      tag_94\n      swap2\n      swap1\n      tag_95\n      jump\t// in\n    tag_94:\n        /* \"contracts/aquo/AquoContractListv4.sol\":1656:1692  uint256 index = contracts.length - 1 */\n      swap1\n      pop\n        /* \"contracts/aquo/AquoContractListv4.sol\":1737:1742  index */\n      dup1\n        /* \"contracts/aquo/AquoContractListv4.sol\":1705:1722  contractIdToIndex */\n      0x03\n        /* \"contracts/aquo/AquoContractListv4.sol\":1705:1734  contractIdToIndex[contractId] */\n      0x00\n        /* \"contracts/aquo/AquoContractListv4.sol\":1723:1733  contractId */\n      dup6\n        /* \"contracts/aquo/AquoContractListv4.sol\":1705:1734  contractIdToIndex[contractId] */\n      dup2\n      mstore\n      0x20\n      add\n      swap1\n      dup2\n      mstore\n      0x20\n      add\n      0x00\n      keccak256\n        /* \"contracts/aquo/AquoContractListv4.sol\":1705:1742  contractIdToIndex[contractId] = index */\n      dup2\n      swap1\n      sstore\n      pop\n        /* \"contracts/aquo/AquoContractListv4.sol\":1796:1801  index */\n      dup1\n        /* \"contracts/aquo/AquoContractListv4.sol\":1753:1775  contractAddressToIndex */\n      0x04\n        /* \"contracts/aquo/AquoContractListv4.sol\":1753:1793  contractAddressToIndex[_contractAddress] */\n      0x00\n        /* \"contracts/aquo/AquoContractListv4.sol\":1776:1792  _contractAddress */\n      dup9\n        /* \"contracts/aquo/AquoContractListv4.sol\":1753:1793  contractAddressToIndex[_contractAddress] */\n      0xffffffffffffffffffffffffffffffffffffffff\n      and\n      0xffffffffffffffffffffffffffffffffffffffff\n      and\n      dup2\n      mstore\n      0x20\n      add\n      swap1\n      dup2\n      mstore\n      0x20\n      add\n      0x00\n      keccak256\n        /* \"contracts/aquo/AquoContractListv4.sol\":1753:1801  contractAddressToIndex[_contractAddress] = index */\n      dup2\n      swap1\n      sstore\n      pop\n        /* \"contracts/aquo/AquoContractListv4.sol\":1854:1858  true */\n      0x01\n        /* \"contracts/aquo/AquoContractListv4.sol\":1812:1833  contractAddressExists */\n      0x05\n        /* \"contracts/aquo/AquoContractListv4.sol\":1812:1851  contractAddressExists[_contractAddress] */\n      0x00\n        /* \"contracts/aquo/AquoContractListv4.sol\":1834:1850  _contractAddress */\n      dup9\n        /* \"contracts/aquo/AquoContractListv4.sol\":1812:1851  contractAddressExists[_contractAddress] */\n      0xffffffffffffffffffffffffffffffffffffffff\n      and\n      0xffffffffffffffffffffffffffffffffffffffff\n      and\n      dup2\n      mstore\n      0x20\n      add\n      swap1\n      dup2\n      mstore\n      0x20\n      add\n      0x00\n      keccak256\n      0x00\n        /* \"contracts/aquo/AquoContractListv4.sol\":1812:1858  contractAddressExists[_contractAddress] = true */\n      0x0100\n      exp\n      dup2\n      sload\n      dup2\n      0xff\n      mul\n      not\n      and\n      swap1\n      dup4\n      iszero\n      iszero\n      mul\n      or\n      swap1\n      sstore\n      pop\n        /* \"contracts/aquo/AquoContractListv4.sol\":1910:1915  false */\n      0x00\n        /* \"contracts/aquo/AquoContractListv4.sol\":1869:1889  unallocatedContracts */\n      0x06\n        /* \"contracts/aquo/AquoContractListv4.sol\":1869:1907  unallocatedContracts[_contractAddress] */\n      0x00\n        /* \"contracts/aquo/AquoContractListv4.sol\":1890:1906  _contractAddress */\n      dup9\n        /* \"contracts/aquo/AquoContractListv4.sol\":1869:1907  unallocatedContracts[_contractAddress] */\n      0xffffffffffffffffffffffffffffffffffffffff\n      and\n      0xffffffffffffffffffffffffffffffffffffffff\n      and\n      dup2\n      mstore\n      0x20\n      add\n      swap1\n      dup2\n      mstore\n      0x20\n      add\n      0x00\n      keccak256\n      0x00\n        /* \"contracts/aquo/AquoContractListv4.sol\":1869:1915  unallocatedContracts[_contractAddress] = false */\n      0x0100\n      exp\n      dup2\n      sload\n      dup2\n      0xff\n      mul\n      not\n      and\n      swap1\n      dup4\n      iszero\n      iszero\n      mul\n      or\n      swap1\n      sstore\n      pop\n        /* \"contracts/aquo/AquoContractListv4.sol\":1946:1956  contractId */\n      dup3\n        /* \"contracts/aquo/AquoContractListv4.sol\":1939:1956  return contractId */\n      swap4\n      pop\n      pop\n      pop\n      pop\n        /* \"contracts/aquo/AquoContractListv4.sol\":1112:1964  function listContract(address _contractAddress, string memory _ipfsAddress) public returns (uint256) {... */\n      swap3\n      swap2\n      pop\n      pop\n      jump\t// out\n    tag_48:\n      mload(0x40)\n      dup1\n      0x80\n      add\n      0x40\n      mstore\n      dup1\n      0x00\n      dup2\n      mstore\n      0x20\n      add\n      0x60\n      dup2\n      mstore\n      0x20\n      add\n      and(0xffffffffffffffffffffffffffffffffffffffff, 0x00)\n      dup2\n      mstore\n      0x20\n      add\n      0x00\n      dup2\n      mstore\n      pop\n      swap1\n      jump\t// out\n        /* \"#utility.yul\":7:145   */\n    tag_96:\n        /* \"#utility.yul\":98:104   */\n      0x00\n        /* \"#utility.yul\":132:137   */\n      dup2\n        /* \"#utility.yul\":126:138   */\n      mload\n        /* \"#utility.yul\":116:138   */\n      swap1\n      pop\n        /* \"#utility.yul\":7:145   */\n      swap2\n      swap1\n      pop\n      jump\t// out\n        /* \"#utility.yul\":151:359   */\n    tag_97:\n        /* \"#utility.yul\":274:285   */\n      0x00\n        /* \"#utility.yul\":308:314   */\n      dup3\n        /* \"#utility.yul\":303:306   */\n      dup3\n        /* \"#utility.yul\":296:315   */\n      mstore\n        /* \"#utility.yul\":348:352   */\n      0x20\n        /* \"#utility.yul\":343:346   */\n      dup3\n        /* \"#utility.yul\":339:353   */\n      add\n        /* \"#utility.yul\":324:353   */\n      swap1\n      pop\n        /* \"#utility.yul\":151:359   */\n      swap3\n      swap2\n      pop\n      pop\n      jump\t// out\n        /* \"#utility.yul\":365:521   */\n    tag_98:\n        /* \"#utility.yul\":456:460   */\n      0x00\n        /* \"#utility.yul\":479:482   */\n      dup2\n        /* \"#utility.yul\":471:482   */\n      swap1\n      pop\n        /* \"#utility.yul\":509:513   */\n      0x20\n        /* \"#utility.yul\":504:507   */\n      dup3\n        /* \"#utility.yul\":500:514   */\n      add\n        /* \"#utility.yul\":492:514   */\n      swap1\n      pop\n        /* \"#utility.yul\":365:521   */\n      swap2\n      swap1\n      pop\n      jump\t// out\n        /* \"#utility.yul\":527:604   */\n    tag_99:\n        /* \"#utility.yul\":564:571   */\n      0x00\n        /* \"#utility.yul\":593:598   */\n      dup2\n        /* \"#utility.yul\":582:598   */\n      swap1\n      pop\n        /* \"#utility.yul\":527:604   */\n      swap2\n      swap1\n      pop\n      jump\t// out\n        /* \"#utility.yul\":610:718   */\n    tag_100:\n        /* \"#utility.yul\":687:711   */\n      tag_165\n        /* \"#utility.yul\":705:710   */\n      dup2\n        /* \"#utility.yul\":687:711   */\n      tag_99\n      jump\t// in\n    tag_165:\n        /* \"#utility.yul\":682:685   */\n      dup3\n        /* \"#utility.yul\":675:712   */\n      mstore\n        /* \"#utility.yul\":610:718   */\n      pop\n      pop\n      jump\t// out\n        /* \"#utility.yul\":724:823   */\n    tag_101:\n        /* \"#utility.yul\":776:782   */\n      0x00\n        /* \"#utility.yul\":810:815   */\n      dup2\n        /* \"#utility.yul\":804:816   */\n      mload\n        /* \"#utility.yul\":794:816   */\n      swap1\n      pop\n        /* \"#utility.yul\":724:823   */\n      swap2\n      swap1\n      pop\n      jump\t// out\n        /* \"#utility.yul\":829:988   */\n    tag_102:\n        /* \"#utility.yul\":903:914   */\n      0x00\n        /* \"#utility.yul\":937:943   */\n      dup3\n        /* \"#utility.yul\":932:935   */\n      dup3\n        /* \"#utility.yul\":925:944   */\n      mstore\n        /* \"#utility.yul\":977:981   */\n      0x20\n        /* \"#utility.yul\":972:975   */\n      dup3\n        /* \"#utility.yul\":968:982   */\n      add\n        /* \"#utility.yul\":953:982   */\n      swap1\n      pop\n        /* \"#utility.yul\":829:988   */\n      swap3\n      swap2\n      pop\n      pop\n      jump\t// out\n        /* \"#utility.yul\":994:1240   */\n    tag_103:\n        /* \"#utility.yul\":1075:1076   */\n      0x00\n        /* \"#utility.yul\":1085:1198   */\n    tag_169:\n        /* \"#utility.yul\":1099:1105   */\n      dup4\n        /* \"#utility.yul\":1096:1097   */\n      dup2\n        /* \"#utility.yul\":1093:1106   */\n      lt\n        /* \"#utility.yul\":1085:1198   */\n      iszero\n      tag_171\n      jumpi\n        /* \"#utility.yul\":1184:1185   */\n      dup1\n        /* \"#utility.yul\":1179:1182   */\n      dup3\n        /* \"#utility.yul\":1175:1186   */\n      add\n        /* \"#utility.yul\":1169:1187   */\n      mload\n        /* \"#utility.yul\":1165:1166   */\n      dup2\n        /* \"#utility.yul\":1160:1163   */\n      dup5\n        /* \"#utility.yul\":1156:1167   */\n      add\n        /* \"#utility.yul\":1149:1188   */\n      mstore\n        /* \"#utility.yul\":1121:1123   */\n      0x20\n        /* \"#utility.yul\":1118:1119   */\n      dup2\n        /* \"#utility.yul\":1114:1124   */\n      add\n        /* \"#utility.yul\":1109:1124   */\n      swap1\n      pop\n        /* \"#utility.yul\":1085:1198   */\n      jump(tag_169)\n    tag_171:\n        /* \"#utility.yul\":1232:1233   */\n      0x00\n        /* \"#utility.yul\":1223:1229   */\n      dup5\n        /* \"#utility.yul\":1218:1221   */\n      dup5\n        /* \"#utility.yul\":1214:1230   */\n      add\n        /* \"#utility.yul\":1207:1234   */\n      mstore\n        /* \"#utility.yul\":1056:1240   */\n      pop\n        /* \"#utility.yul\":994:1240   */\n      pop\n      pop\n      pop\n      jump\t// out\n        /* \"#utility.yul\":1246:1348   */\n    tag_104:\n        /* \"#utility.yul\":1287:1293   */\n      0x00\n        /* \"#utility.yul\":1338:1340   */\n      0x1f\n        /* \"#utility.yul\":1334:1341   */\n      not\n        /* \"#utility.yul\":1329:1331   */\n      0x1f\n        /* \"#utility.yul\":1322:1327   */\n      dup4\n        /* \"#utility.yul\":1318:1332   */\n      add\n        /* \"#utility.yul\":1314:1342   */\n      and\n        /* \"#utility.yul\":1304:1342   */\n      swap1\n      pop\n        /* \"#utility.yul\":1246:1348   */\n      swap2\n      swap1\n      pop\n      jump\t// out\n        /* \"#utility.yul\":1354:1711   */\n    tag_105:\n        /* \"#utility.yul\":1432:1435   */\n      0x00\n        /* \"#utility.yul\":1460:1499   */\n      tag_174\n        /* \"#utility.yul\":1493:1498   */\n      dup3\n        /* \"#utility.yul\":1460:1499   */\n      tag_101\n      jump\t// in\n    tag_174:\n        /* \"#utility.yul\":1515:1576   */\n      tag_175\n        /* \"#utility.yul\":1569:1575   */\n      dup2\n        /* \"#utility.yul\":1564:1567   */\n      dup6\n        /* \"#utility.yul\":1515:1576   */\n      tag_102\n      jump\t// in\n    tag_175:\n        /* \"#utility.yul\":1508:1576   */\n      swap4\n      pop\n        /* \"#utility.yul\":1585:1650   */\n      tag_176\n        /* \"#utility.yul\":1643:1649   */\n      dup2\n        /* \"#utility.yul\":1638:1641   */\n      dup6\n        /* \"#utility.yul\":1631:1635   */\n      0x20\n        /* \"#utility.yul\":1624:1629   */\n      dup7\n        /* \"#utility.yul\":1620:1636   */\n      add\n        /* \"#utility.yul\":1585:1650   */\n      tag_103\n      jump\t// in\n    tag_176:\n        /* \"#utility.yul\":1675:1704   */\n      tag_177\n        /* \"#utility.yul\":1697:1703   */\n      dup2\n        /* \"#utility.yul\":1675:1704   */\n      tag_104\n      jump\t// in\n    tag_177:\n        /* \"#utility.yul\":1670:1673   */\n      dup5\n        /* \"#utility.yul\":1666:1705   */\n      add\n        /* \"#utility.yul\":1659:1705   */\n      swap2\n      pop\n        /* \"#utility.yul\":1436:1711   */\n      pop\n        /* \"#utility.yul\":1354:1711   */\n      swap3\n      swap2\n      pop\n      pop\n      jump\t// out\n        /* \"#utility.yul\":1717:1843   */\n    tag_106:\n        /* \"#utility.yul\":1754:1761   */\n      0x00\n        /* \"#utility.yul\":1794:1836   */\n      0xffffffffffffffffffffffffffffffffffffffff\n        /* \"#utility.yul\":1787:1792   */\n      dup3\n        /* \"#utility.yul\":1783:1837   */\n      and\n        /* \"#utility.yul\":1772:1837   */\n      swap1\n      pop\n        /* \"#utility.yul\":1717:1843   */\n      swap2\n      swap1\n      pop\n      jump\t// out\n        /* \"#utility.yul\":1849:1945   */\n    tag_107:\n        /* \"#utility.yul\":1886:1893   */\n      0x00\n        /* \"#utility.yul\":1915:1939   */\n      tag_180\n        /* \"#utility.yul\":1933:1938   */\n      dup3\n        /* \"#utility.yul\":1915:1939   */\n      tag_106\n      jump\t// in\n    tag_180:\n        /* \"#utility.yul\":1904:1939   */\n      swap1\n      pop\n        /* \"#utility.yul\":1849:1945   */\n      swap2\n      swap1\n      pop\n      jump\t// out\n        /* \"#utility.yul\":1951:2059   */\n    tag_108:\n        /* \"#utility.yul\":2028:2052   */\n      tag_182\n        /* \"#utility.yul\":2046:2051   */\n      dup2\n        /* \"#utility.yul\":2028:2052   */\n      tag_107\n      jump\t// in\n    tag_182:\n        /* \"#utility.yul\":2023:2026   */\n      dup3\n        /* \"#utility.yul\":2016:2053   */\n      mstore\n        /* \"#utility.yul\":1951:2059   */\n      pop\n      pop\n      jump\t// out\n        /* \"#utility.yul\":2133:3104   */\n    tag_109:\n        /* \"#utility.yul\":2240:2243   */\n      0x00\n        /* \"#utility.yul\":2276:2280   */\n      0x80\n        /* \"#utility.yul\":2271:2274   */\n      dup4\n        /* \"#utility.yul\":2267:2281   */\n      add\n        /* \"#utility.yul\":2369:2373   */\n      0x00\n        /* \"#utility.yul\":2362:2367   */\n      dup4\n        /* \"#utility.yul\":2358:2374   */\n      add\n        /* \"#utility.yul\":2352:2375   */\n      mload\n        /* \"#utility.yul\":2388:2451   */\n      tag_184\n        /* \"#utility.yul\":2445:2449   */\n      0x00\n        /* \"#utility.yul\":2440:2443   */\n      dup7\n        /* \"#utility.yul\":2436:2450   */\n      add\n        /* \"#utility.yul\":2422:2434   */\n      dup3\n        /* \"#utility.yul\":2388:2451   */\n      tag_100\n      jump\t// in\n    tag_184:\n        /* \"#utility.yul\":2291:2461   */\n      pop\n        /* \"#utility.yul\":2550:2554   */\n      0x20\n        /* \"#utility.yul\":2543:2548   */\n      dup4\n        /* \"#utility.yul\":2539:2555   */\n      add\n        /* \"#utility.yul\":2533:2556   */\n      mload\n        /* \"#utility.yul\":2603:2606   */\n      dup5\n        /* \"#utility.yul\":2597:2601   */\n      dup3\n        /* \"#utility.yul\":2593:2607   */\n      sub\n        /* \"#utility.yul\":2586:2590   */\n      0x20\n        /* \"#utility.yul\":2581:2584   */\n      dup7\n        /* \"#utility.yul\":2577:2591   */\n      add\n        /* \"#utility.yul\":2570:2608   */\n      mstore\n        /* \"#utility.yul\":2629:2702   */\n      tag_185\n        /* \"#utility.yul\":2697:2701   */\n      dup3\n        /* \"#utility.yul\":2683:2695   */\n      dup3\n        /* \"#utility.yul\":2629:2702   */\n      tag_105\n      jump\t// in\n    tag_185:\n        /* \"#utility.yul\":2621:2702   */\n      swap2\n      pop\n        /* \"#utility.yul\":2471:2713   */\n      pop\n        /* \"#utility.yul\":2806:2810   */\n      0x40\n        /* \"#utility.yul\":2799:2804   */\n      dup4\n        /* \"#utility.yul\":2795:2811   */\n      add\n        /* \"#utility.yul\":2789:2812   */\n      mload\n        /* \"#utility.yul\":2825:2888   */\n      tag_186\n        /* \"#utility.yul\":2882:2886   */\n      0x40\n        /* \"#utility.yul\":2877:2880   */\n      dup7\n        /* \"#utility.yul\":2873:2887   */\n      add\n        /* \"#utility.yul\":2859:2871   */\n      dup3\n        /* \"#utility.yul\":2825:2888   */\n      tag_108\n      jump\t// in\n    tag_186:\n        /* \"#utility.yul\":2723:2898   */\n      pop\n        /* \"#utility.yul\":2985:2989   */\n      0x60\n        /* \"#utility.yul\":2978:2983   */\n      dup4\n        /* \"#utility.yul\":2974:2990   */\n      add\n        /* \"#utility.yul\":2968:2991   */\n      mload\n        /* \"#utility.yul\":3004:3067   */\n      tag_187\n        /* \"#utility.yul\":3061:3065   */\n      0x60\n        /* \"#utility.yul\":3056:3059   */\n      dup7\n        /* \"#utility.yul\":3052:3066   */\n      add\n        /* \"#utility.yul\":3038:3050   */\n      dup3\n        /* \"#utility.yul\":3004:3067   */\n      tag_100\n      jump\t// in\n    tag_187:\n        /* \"#utility.yul\":2908:3077   */\n      pop\n        /* \"#utility.yul\":3094:3098   */\n      dup1\n        /* \"#utility.yul\":3087:3098   */\n      swap2\n      pop\n        /* \"#utility.yul\":2245:3104   */\n      pop\n        /* \"#utility.yul\":2133:3104   */\n      swap3\n      swap2\n      pop\n      pop\n      jump\t// out\n        /* \"#utility.yul\":3110:3362   */\n    tag_110:\n        /* \"#utility.yul\":3227:3237   */\n      0x00\n        /* \"#utility.yul\":3262:3356   */\n      tag_189\n        /* \"#utility.yul\":3352:3355   */\n      dup4\n        /* \"#utility.yul\":3344:3350   */\n      dup4\n        /* \"#utility.yul\":3262:3356   */\n      tag_109\n      jump\t// in\n    tag_189:\n        /* \"#utility.yul\":3248:3356   */\n      swap1\n      pop\n        /* \"#utility.yul\":3110:3362   */\n      swap3\n      swap2\n      pop\n      pop\n      jump\t// out\n        /* \"#utility.yul\":3368:3505   */\n    tag_111:\n        /* \"#utility.yul\":3462:3466   */\n      0x00\n        /* \"#utility.yul\":3494:3498   */\n      0x20\n        /* \"#utility.yul\":3489:3492   */\n      dup3\n        /* \"#utility.yul\":3485:3499   */\n      add\n        /* \"#utility.yul\":3477:3499   */\n      swap1\n      pop\n        /* \"#utility.yul\":3368:3505   */\n      swap2\n      swap1\n      pop\n      jump\t// out\n        /* \"#utility.yul\":3583:4686   */\n    tag_112:\n        /* \"#utility.yul\":3750:3753   */\n      0x00\n        /* \"#utility.yul\":3779:3857   */\n      tag_192\n        /* \"#utility.yul\":3851:3856   */\n      dup3\n        /* \"#utility.yul\":3779:3857   */\n      tag_96\n      jump\t// in\n    tag_192:\n        /* \"#utility.yul\":3873:3983   */\n      tag_193\n        /* \"#utility.yul\":3976:3982   */\n      dup2\n        /* \"#utility.yul\":3971:3974   */\n      dup6\n        /* \"#utility.yul\":3873:3983   */\n      tag_97\n      jump\t// in\n    tag_193:\n        /* \"#utility.yul\":3866:3983   */\n      swap4\n      pop\n        /* \"#utility.yul\":4009:4012   */\n      dup4\n        /* \"#utility.yul\":4054:4058   */\n      0x20\n        /* \"#utility.yul\":4046:4052   */\n      dup3\n        /* \"#utility.yul\":4042:4059   */\n      mul\n        /* \"#utility.yul\":4037:4040   */\n      dup6\n        /* \"#utility.yul\":4033:4060   */\n      add\n        /* \"#utility.yul\":4084:4164   */\n      tag_194\n        /* \"#utility.yul\":4158:4163   */\n      dup6\n        /* \"#utility.yul\":4084:4164   */\n      tag_98\n      jump\t// in\n    tag_194:\n        /* \"#utility.yul\":4187:4194   */\n      dup1\n        /* \"#utility.yul\":4218:4219   */\n      0x00\n        /* \"#utility.yul\":4203:4641   */\n    tag_195:\n        /* \"#utility.yul\":4228:4234   */\n      dup6\n        /* \"#utility.yul\":4225:4226   */\n      dup2\n        /* \"#utility.yul\":4222:4235   */\n      lt\n        /* \"#utility.yul\":4203:4641   */\n      iszero\n      tag_197\n      jumpi\n        /* \"#utility.yul\":4299:4308   */\n      dup5\n        /* \"#utility.yul\":4293:4297   */\n      dup5\n        /* \"#utility.yul\":4289:4309   */\n      sub\n        /* \"#utility.yul\":4284:4287   */\n      dup10\n        /* \"#utility.yul\":4277:4310   */\n      mstore\n        /* \"#utility.yul\":4350:4356   */\n      dup2\n        /* \"#utility.yul\":4344:4357   */\n      mload\n        /* \"#utility.yul\":4378:4490   */\n      tag_198\n        /* \"#utility.yul\":4485:4489   */\n      dup6\n        /* \"#utility.yul\":4470:4483   */\n      dup3\n        /* \"#utility.yul\":4378:4490   */\n      tag_110\n      jump\t// in\n    tag_198:\n        /* \"#utility.yul\":4370:4490   */\n      swap5\n      pop\n        /* \"#utility.yul\":4513:4597   */\n      tag_199\n        /* \"#utility.yul\":4590:4596   */\n      dup4\n        /* \"#utility.yul\":4513:4597   */\n      tag_111\n      jump\t// in\n    tag_199:\n        /* \"#utility.yul\":4503:4597   */\n      swap3\n      pop\n        /* \"#utility.yul\":4626:4630   */\n      0x20\n        /* \"#utility.yul\":4621:4624   */\n      dup11\n        /* \"#utility.yul\":4617:4631   */\n      add\n        /* \"#utility.yul\":4610:4631   */\n      swap10\n      pop\n        /* \"#utility.yul\":4263:4641   */\n      pop\n        /* \"#utility.yul\":4250:4251   */\n      0x01\n        /* \"#utility.yul\":4247:4248   */\n      dup2\n        /* \"#utility.yul\":4243:4252   */\n      add\n        /* \"#utility.yul\":4238:4252   */\n      swap1\n      pop\n        /* \"#utility.yul\":4203:4641   */\n      jump(tag_195)\n    tag_197:\n        /* \"#utility.yul\":4207:4221   */\n      pop\n        /* \"#utility.yul\":4657:4661   */\n      dup3\n        /* \"#utility.yul\":4650:4661   */\n      swap8\n      pop\n        /* \"#utility.yul\":4677:4680   */\n      dup8\n        /* \"#utility.yul\":4670:4680   */\n      swap6\n      pop\n        /* \"#utility.yul\":3755:4686   */\n      pop\n      pop\n      pop\n      pop\n      pop\n        /* \"#utility.yul\":3583:4686   */\n      swap3\n      swap2\n      pop\n      pop\n      jump\t// out\n        /* \"#utility.yul\":4692:5161   */\n    tag_12:\n        /* \"#utility.yul\":4883:4887   */\n      0x00\n        /* \"#utility.yul\":4921:4923   */\n      0x20\n        /* \"#utility.yul\":4910:4919   */\n      dup3\n        /* \"#utility.yul\":4906:4924   */\n      add\n        /* \"#utility.yul\":4898:4924   */\n      swap1\n      pop\n        /* \"#utility.yul\":4970:4979   */\n      dup2\n        /* \"#utility.yul\":4964:4968   */\n      dup2\n        /* \"#utility.yul\":4960:4980   */\n      sub\n        /* \"#utility.yul\":4956:4957   */\n      0x00\n        /* \"#utility.yul\":4945:4954   */\n      dup4\n        /* \"#utility.yul\":4941:4958   */\n      add\n        /* \"#utility.yul\":4934:4981   */\n      mstore\n        /* \"#utility.yul\":4998:5154   */\n      tag_201\n        /* \"#utility.yul\":5149:5153   */\n      dup2\n        /* \"#utility.yul\":5140:5146   */\n      dup5\n        /* \"#utility.yul\":4998:5154   */\n      tag_112\n      jump\t// in\n    tag_201:\n        /* \"#utility.yul\":4990:5154   */\n      swap1\n      pop\n        /* \"#utility.yul\":4692:5161   */\n      swap3\n      swap2\n      pop\n      pop\n      jump\t// out\n        /* \"#utility.yul\":5167:5242   */\n    tag_113:\n        /* \"#utility.yul\":5200:5206   */\n      0x00\n        /* \"#utility.yul\":5233:5235   */\n      0x40\n        /* \"#utility.yul\":5227:5236   */\n      mload\n        /* \"#utility.yul\":5217:5236   */\n      swap1\n      pop\n        /* \"#utility.yul\":5167:5242   */\n      swap1\n      jump\t// out\n        /* \"#utility.yul\":5248:5365   */\n    tag_114:\n        /* \"#utility.yul\":5357:5358   */\n      0x00\n        /* \"#utility.yul\":5354:5355   */\n      dup1\n        /* \"#utility.yul\":5347:5359   */\n      revert\n        /* \"#utility.yul\":5371:5488   */\n    tag_115:\n        /* \"#utility.yul\":5480:5481   */\n      0x00\n        /* \"#utility.yul\":5477:5478   */\n      dup1\n        /* \"#utility.yul\":5470:5482   */\n      revert\n        /* \"#utility.yul\":5494:5616   */\n    tag_116:\n        /* \"#utility.yul\":5567:5591   */\n      tag_206\n        /* \"#utility.yul\":5585:5590   */\n      dup2\n        /* \"#utility.yul\":5567:5591   */\n      tag_107\n      jump\t// in\n    tag_206:\n        /* \"#utility.yul\":5560:5565   */\n      dup2\n        /* \"#utility.yul\":5557:5592   */\n      eq\n        /* \"#utility.yul\":5547:5610   */\n      tag_207\n      jumpi\n        /* \"#utility.yul\":5606:5607   */\n      0x00\n        /* \"#utility.yul\":5603:5604   */\n      dup1\n        /* \"#utility.yul\":5596:5608   */\n      revert\n        /* \"#utility.yul\":5547:5610   */\n    tag_207:\n        /* \"#utility.yul\":5494:5616   */\n      pop\n      jump\t// out\n        /* \"#utility.yul\":5622:5761   */\n    tag_117:\n        /* \"#utility.yul\":5668:5673   */\n      0x00\n        /* \"#utility.yul\":5706:5712   */\n      dup2\n        /* \"#utility.yul\":5693:5713   */\n      calldataload\n        /* \"#utility.yul\":5684:5713   */\n      swap1\n      pop\n        /* \"#utility.yul\":5722:5755   */\n      tag_209\n        /* \"#utility.yul\":5749:5754   */\n      dup2\n        /* \"#utility.yul\":5722:5755   */\n      tag_116\n      jump\t// in\n    tag_209:\n        /* \"#utility.yul\":5622:5761   */\n      swap3\n      swap2\n      pop\n      pop\n      jump\t// out\n        /* \"#utility.yul\":5767:6096   */\n    tag_15:\n        /* \"#utility.yul\":5826:5832   */\n      0x00\n        /* \"#utility.yul\":5875:5877   */\n      0x20\n        /* \"#utility.yul\":5863:5872   */\n      dup3\n        /* \"#utility.yul\":5854:5861   */\n      dup5\n        /* \"#utility.yul\":5850:5873   */\n      sub\n        /* \"#utility.yul\":5846:5878   */\n      slt\n        /* \"#utility.yul\":5843:5962   */\n      iszero\n      tag_211\n      jumpi\n        /* \"#utility.yul\":5881:5960   */\n      tag_212\n      tag_114\n      jump\t// in\n    tag_212:\n        /* \"#utility.yul\":5843:5962   */\n    tag_211:\n        /* \"#utility.yul\":6001:6002   */\n      0x00\n        /* \"#utility.yul\":6026:6079   */\n      tag_213\n        /* \"#utility.yul\":6071:6078   */\n      dup5\n        /* \"#utility.yul\":6062:6068   */\n      dup3\n        /* \"#utility.yul\":6051:6060   */\n      dup6\n        /* \"#utility.yul\":6047:6069   */\n      add\n        /* \"#utility.yul\":6026:6079   */\n      tag_117\n      jump\t// in\n    tag_213:\n        /* \"#utility.yul\":6016:6079   */\n      swap2\n      pop\n        /* \"#utility.yul\":5972:6089   */\n      pop\n        /* \"#utility.yul\":5767:6096   */\n      swap3\n      swap2\n      pop\n      pop\n      jump\t// out\n        /* \"#utility.yul\":6170:7151   */\n    tag_118:\n        /* \"#utility.yul\":6287:6290   */\n      0x00\n        /* \"#utility.yul\":6323:6327   */\n      0x80\n        /* \"#utility.yul\":6318:6321   */\n      dup4\n        /* \"#utility.yul\":6314:6328   */\n      add\n        /* \"#utility.yul\":6416:6420   */\n      0x00\n        /* \"#utility.yul\":6409:6414   */\n      dup4\n        /* \"#utility.yul\":6405:6421   */\n      add\n        /* \"#utility.yul\":6399:6422   */\n      mload\n        /* \"#utility.yul\":6435:6498   */\n      tag_215\n        /* \"#utility.yul\":6492:6496   */\n      0x00\n        /* \"#utility.yul\":6487:6490   */\n      dup7\n        /* \"#utility.yul\":6483:6497   */\n      add\n        /* \"#utility.yul\":6469:6481   */\n      dup3\n        /* \"#utility.yul\":6435:6498   */\n      tag_100\n      jump\t// in\n    tag_215:\n        /* \"#utility.yul\":6338:6508   */\n      pop\n        /* \"#utility.yul\":6597:6601   */\n      0x20\n        /* \"#utility.yul\":6590:6595   */\n      dup4\n        /* \"#utility.yul\":6586:6602   */\n      add\n        /* \"#utility.yul\":6580:6603   */\n      mload\n        /* \"#utility.yul\":6650:6653   */\n      dup5\n        /* \"#utility.yul\":6644:6648   */\n      dup3\n        /* \"#utility.yul\":6640:6654   */\n      sub\n        /* \"#utility.yul\":6633:6637   */\n      0x20\n        /* \"#utility.yul\":6628:6631   */\n      dup7\n        /* \"#utility.yul\":6624:6638   */\n      add\n        /* \"#utility.yul\":6617:6655   */\n      mstore\n        /* \"#utility.yul\":6676:6749   */\n      tag_216\n        /* \"#utility.yul\":6744:6748   */\n      dup3\n        /* \"#utility.yul\":6730:6742   */\n      dup3\n        /* \"#utility.yul\":6676:6749   */\n      tag_105\n      jump\t// in\n    tag_216:\n        /* \"#utility.yul\":6668:6749   */\n      swap2\n      pop\n        /* \"#utility.yul\":6518:6760   */\n      pop\n        /* \"#utility.yul\":6853:6857   */\n      0x40\n        /* \"#utility.yul\":6846:6851   */\n      dup4\n        /* \"#utility.yul\":6842:6858   */\n      add\n        /* \"#utility.yul\":6836:6859   */\n      mload\n        /* \"#utility.yul\":6872:6935   */\n      tag_217\n        /* \"#utility.yul\":6929:6933   */\n      0x40\n        /* \"#utility.yul\":6924:6927   */\n      dup7\n        /* \"#utility.yul\":6920:6934   */\n      add\n        /* \"#utility.yul\":6906:6918   */\n      dup3\n        /* \"#utility.yul\":6872:6935   */\n      tag_108\n      jump\t// in\n    tag_217:\n        /* \"#utility.yul\":6770:6945   */\n      pop\n        /* \"#utility.yul\":7032:7036   */\n      0x60\n        /* \"#utility.yul\":7025:7030   */\n      dup4\n        /* \"#utility.yul\":7021:7037   */\n      add\n        /* \"#utility.yul\":7015:7038   */\n      mload\n        /* \"#utility.yul\":7051:7114   */\n      tag_218\n        /* \"#utility.yul\":7108:7112   */\n      0x60\n        /* \"#utility.yul\":7103:7106   */\n      dup7\n        /* \"#utility.yul\":7099:7113   */\n      add\n        /* \"#utility.yul\":7085:7097   */\n      dup3\n        /* \"#utility.yul\":7051:7114   */\n      tag_100\n      jump\t// in\n    tag_218:\n        /* \"#utility.yul\":6955:7124   */\n      pop\n        /* \"#utility.yul\":7141:7145   */\n      dup1\n        /* \"#utility.yul\":7134:7145   */\n      swap2\n      pop\n        /* \"#utility.yul\":6292:7151   */\n      pop\n        /* \"#utility.yul\":6170:7151   */\n      swap3\n      swap2\n      pop\n      pop\n      jump\t// out\n        /* \"#utility.yul\":7157:7526   */\n    tag_18:\n        /* \"#utility.yul\":7298:7302   */\n      0x00\n        /* \"#utility.yul\":7336:7338   */\n      0x20\n        /* \"#utility.yul\":7325:7334   */\n      dup3\n        /* \"#utility.yul\":7321:7339   */\n      add\n        /* \"#utility.yul\":7313:7339   */\n      swap1\n      pop\n        /* \"#utility.yul\":7385:7394   */\n      dup2\n        /* \"#utility.yul\":7379:7383   */\n      dup2\n        /* \"#utility.yul\":7375:7395   */\n      sub\n        /* \"#utility.yul\":7371:7372   */\n      0x00\n        /* \"#utility.yul\":7360:7369   */\n      dup4\n        /* \"#utility.yul\":7356:7373   */\n      add\n        /* \"#utility.yul\":7349:7396   */\n      mstore\n        /* \"#utility.yul\":7413:7519   */\n      tag_220\n        /* \"#utility.yul\":7514:7518   */\n      dup2\n        /* \"#utility.yul\":7505:7511   */\n      dup5\n        /* \"#utility.yul\":7413:7519   */\n      tag_118\n      jump\t// in\n    tag_220:\n        /* \"#utility.yul\":7405:7519   */\n      swap1\n      pop\n        /* \"#utility.yul\":7157:7526   */\n      swap3\n      swap2\n      pop\n      pop\n      jump\t// out\n        /* \"#utility.yul\":7532:7592   */\n    tag_119:\n        /* \"#utility.yul\":7560:7563   */\n      0x00\n        /* \"#utility.yul\":7581:7586   */\n      dup2\n        /* \"#utility.yul\":7574:7586   */\n      swap1\n      pop\n        /* \"#utility.yul\":7532:7592   */\n      swap2\n      swap1\n      pop\n      jump\t// out\n        /* \"#utility.yul\":7598:7740   */\n    tag_120:\n        /* \"#utility.yul\":7648:7657   */\n      0x00\n        /* \"#utility.yul\":7681:7734   */\n      tag_223\n        /* \"#utility.yul\":7699:7733   */\n      tag_224\n        /* \"#utility.yul\":7708:7732   */\n      tag_225\n        /* \"#utility.yul\":7726:7731   */\n      dup5\n        /* \"#utility.yul\":7708:7732   */\n      tag_106\n      jump\t// in\n    tag_225:\n        /* \"#utility.yul\":7699:7733   */\n      tag_119\n      jump\t// in\n    tag_224:\n        /* \"#utility.yul\":7681:7734   */\n      tag_106\n      jump\t// in\n    tag_223:\n        /* \"#utility.yul\":7668:7734   */\n      swap1\n      pop\n        /* \"#utility.yul\":7598:7740   */\n      swap2\n      swap1\n      pop\n      jump\t// out\n        /* \"#utility.yul\":7746:7872   */\n    tag_121:\n        /* \"#utility.yul\":7796:7805   */\n      0x00\n        /* \"#utility.yul\":7829:7866   */\n      tag_227\n        /* \"#utility.yul\":7860:7865   */\n      dup3\n        /* \"#utility.yul\":7829:7866   */\n      tag_120\n      jump\t// in\n    tag_227:\n        /* \"#utility.yul\":7816:7866   */\n      swap1\n      pop\n        /* \"#utility.yul\":7746:7872   */\n      swap2\n      swap1\n      pop\n      jump\t// out\n        /* \"#utility.yul\":7878:8017   */\n    tag_122:\n        /* \"#utility.yul\":7941:7950   */\n      0x00\n        /* \"#utility.yul\":7974:8011   */\n      tag_229\n        /* \"#utility.yul\":8005:8010   */\n      dup3\n        /* \"#utility.yul\":7974:8011   */\n      tag_121\n      jump\t// in\n    tag_229:\n        /* \"#utility.yul\":7961:8011   */\n      swap1\n      pop\n        /* \"#utility.yul\":7878:8017   */\n      swap2\n      swap1\n      pop\n      jump\t// out\n        /* \"#utility.yul\":8023:8180   */\n    tag_123:\n        /* \"#utility.yul\":8123:8173   */\n      tag_231\n        /* \"#utility.yul\":8167:8172   */\n      dup2\n        /* \"#utility.yul\":8123:8173   */\n      tag_122\n      jump\t// in\n    tag_231:\n        /* \"#utility.yul\":8118:8121   */\n      dup3\n        /* \"#utility.yul\":8111:8174   */\n      mstore\n        /* \"#utility.yul\":8023:8180   */\n      pop\n      pop\n      jump\t// out\n        /* \"#utility.yul\":8186:8434   */\n    tag_22:\n        /* \"#utility.yul\":8292:8296   */\n      0x00\n        /* \"#utility.yul\":8330:8332   */\n      0x20\n        /* \"#utility.yul\":8319:8328   */\n      dup3\n        /* \"#utility.yul\":8315:8333   */\n      add\n        /* \"#utility.yul\":8307:8333   */\n      swap1\n      pop\n        /* \"#utility.yul\":8343:8427   */\n      tag_233\n        /* \"#utility.yul\":8424:8425   */\n      0x00\n        /* \"#utility.yul\":8413:8422   */\n      dup4\n        /* \"#utility.yul\":8409:8426   */\n      add\n        /* \"#utility.yul\":8400:8406   */\n      dup5\n        /* \"#utility.yul\":8343:8427   */\n      tag_123\n      jump\t// in\n    tag_233:\n        /* \"#utility.yul\":8186:8434   */\n      swap3\n      swap2\n      pop\n      pop\n      jump\t// out\n        /* \"#utility.yul\":8440:8562   */\n    tag_124:\n        /* \"#utility.yul\":8513:8537   */\n      tag_235\n        /* \"#utility.yul\":8531:8536   */\n      dup2\n        /* \"#utility.yul\":8513:8537   */\n      tag_99\n      jump\t// in\n    tag_235:\n        /* \"#utility.yul\":8506:8511   */\n      dup2\n        /* \"#utility.yul\":8503:8538   */\n      eq\n        /* \"#utility.yul\":8493:8556   */\n      tag_236\n      jumpi\n        /* \"#utility.yul\":8552:8553   */\n      0x00\n        /* \"#utility.yul\":8549:8550   */\n      dup1\n        /* \"#utility.yul\":8542:8554   */\n      revert\n        /* \"#utility.yul\":8493:8556   */\n    tag_236:\n        /* \"#utility.yul\":8440:8562   */\n      pop\n      jump\t// out\n        /* \"#utility.yul\":8568:8707   */\n    tag_125:\n        /* \"#utility.yul\":8614:8619   */\n      0x00\n        /* \"#utility.yul\":8652:8658   */\n      dup2\n        /* \"#utility.yul\":8639:8659   */\n      calldataload\n        /* \"#utility.yul\":8630:8659   */\n      swap1\n      pop\n        /* \"#utility.yul\":8668:8701   */\n      tag_238\n        /* \"#utility.yul\":8695:8700   */\n      dup2\n        /* \"#utility.yul\":8668:8701   */\n      tag_124\n      jump\t// in\n    tag_238:\n        /* \"#utility.yul\":8568:8707   */\n      swap3\n      swap2\n      pop\n      pop\n      jump\t// out\n        /* \"#utility.yul\":8713:9042   */\n    tag_28:\n        /* \"#utility.yul\":8772:8778   */\n      0x00\n        /* \"#utility.yul\":8821:8823   */\n      0x20\n        /* \"#utility.yul\":8809:8818   */\n      dup3\n        /* \"#utility.yul\":8800:8807   */\n      dup5\n        /* \"#utility.yul\":8796:8819   */\n      sub\n        /* \"#utility.yul\":8792:8824   */\n      slt\n        /* \"#utility.yul\":8789:8908   */\n      iszero\n      tag_240\n      jumpi\n        /* \"#utility.yul\":8827:8906   */\n      tag_241\n      tag_114\n      jump\t// in\n    tag_241:\n        /* \"#utility.yul\":8789:8908   */\n    tag_240:\n        /* \"#utility.yul\":8947:8948   */\n      0x00\n        /* \"#utility.yul\":8972:9025   */\n      tag_242\n        /* \"#utility.yul\":9017:9024   */\n      dup5\n        /* \"#utility.yul\":9008:9014   */\n      dup3\n        /* \"#utility.yul\":8997:9006   */\n      dup6\n        /* \"#utility.yul\":8993:9015   */\n      add\n        /* \"#utility.yul\":8972:9025   */\n      tag_125\n      jump\t// in\n    tag_242:\n        /* \"#utility.yul\":8962:9025   */\n      swap2\n      pop\n        /* \"#utility.yul\":8918:9035   */\n      pop\n        /* \"#utility.yul\":8713:9042   */\n      swap3\n      swap2\n      pop\n      pop\n      jump\t// out\n        /* \"#utility.yul\":9048:9165   */\n    tag_126:\n        /* \"#utility.yul\":9157:9158   */\n      0x00\n        /* \"#utility.yul\":9154:9155   */\n      dup1\n        /* \"#utility.yul\":9147:9159   */\n      revert\n        /* \"#utility.yul\":9171:9288   */\n    tag_127:\n        /* \"#utility.yul\":9280:9281   */\n      0x00\n        /* \"#utility.yul\":9277:9278   */\n      dup1\n        /* \"#utility.yul\":9270:9282   */\n      revert\n        /* \"#utility.yul\":9294:9474   */\n    tag_128:\n        /* \"#utility.yul\":9342:9419   */\n      0x4e487b7100000000000000000000000000000000000000000000000000000000\n        /* \"#utility.yul\":9339:9340   */\n      0x00\n        /* \"#utility.yul\":9332:9420   */\n      mstore\n        /* \"#utility.yul\":9439:9443   */\n      0x41\n        /* \"#utility.yul\":9436:9437   */\n      0x04\n        /* \"#utility.yul\":9429:9444   */\n      mstore\n        /* \"#utility.yul\":9463:9467   */\n      0x24\n        /* \"#utility.yul\":9460:9461   */\n      0x00\n        /* \"#utility.yul\":9453:9468   */\n      revert\n        /* \"#utility.yul\":9480:9761   */\n    tag_129:\n        /* \"#utility.yul\":9563:9590   */\n      tag_247\n        /* \"#utility.yul\":9585:9589   */\n      dup3\n        /* \"#utility.yul\":9563:9590   */\n      tag_104\n      jump\t// in\n    tag_247:\n        /* \"#utility.yul\":9555:9561   */\n      dup2\n        /* \"#utility.yul\":9551:9591   */\n      add\n        /* \"#utility.yul\":9693:9699   */\n      dup2\n        /* \"#utility.yul\":9681:9691   */\n      dup2\n        /* \"#utility.yul\":9678:9700   */\n      lt\n        /* \"#utility.yul\":9657:9675   */\n      0xffffffffffffffff\n        /* \"#utility.yul\":9645:9655   */\n      dup3\n        /* \"#utility.yul\":9642:9676   */\n      gt\n        /* \"#utility.yul\":9639:9701   */\n      or\n        /* \"#utility.yul\":9636:9724   */\n      iszero\n      tag_248\n      jumpi\n        /* \"#utility.yul\":9704:9722   */\n      tag_249\n      tag_128\n      jump\t// in\n    tag_249:\n        /* \"#utility.yul\":9636:9724   */\n    tag_248:\n        /* \"#utility.yul\":9744:9754   */\n      dup1\n        /* \"#utility.yul\":9740:9742   */\n      0x40\n        /* \"#utility.yul\":9733:9755   */\n      mstore\n        /* \"#utility.yul\":9523:9761   */\n      pop\n        /* \"#utility.yul\":9480:9761   */\n      pop\n      pop\n      jump\t// out\n        /* \"#utility.yul\":9767:9896   */\n    tag_130:\n        /* \"#utility.yul\":9801:9807   */\n      0x00\n        /* \"#utility.yul\":9828:9848   */\n      tag_251\n      tag_113\n      jump\t// in\n    tag_251:\n        /* \"#utility.yul\":9818:9848   */\n      swap1\n      pop\n        /* \"#utility.yul\":9857:9890   */\n      tag_252\n        /* \"#utility.yul\":9885:9889   */\n      dup3\n        /* \"#utility.yul\":9877:9883   */\n      dup3\n        /* \"#utility.yul\":9857:9890   */\n      tag_129\n      jump\t// in\n    tag_252:\n        /* \"#utility.yul\":9767:9896   */\n      swap2\n      swap1\n      pop\n      jump\t// out\n        /* \"#utility.yul\":9902:10210   */\n    tag_131:\n        /* \"#utility.yul\":9964:9968   */\n      0x00\n        /* \"#utility.yul\":10054:10072   */\n      0xffffffffffffffff\n        /* \"#utility.yul\":10046:10052   */\n      dup3\n        /* \"#utility.yul\":10043:10073   */\n      gt\n        /* \"#utility.yul\":10040:10096   */\n      iszero\n      tag_254\n      jumpi\n        /* \"#utility.yul\":10076:10094   */\n      tag_255\n      tag_128\n      jump\t// in\n    tag_255:\n        /* \"#utility.yul\":10040:10096   */\n    tag_254:\n        /* \"#utility.yul\":10114:10143   */\n      tag_256\n        /* \"#utility.yul\":10136:10142   */\n      dup3\n        /* \"#utility.yul\":10114:10143   */\n      tag_104\n      jump\t// in\n    tag_256:\n        /* \"#utility.yul\":10106:10143   */\n      swap1\n      pop\n        /* \"#utility.yul\":10198:10202   */\n      0x20\n        /* \"#utility.yul\":10192:10196   */\n      dup2\n        /* \"#utility.yul\":10188:10203   */\n      add\n        /* \"#utility.yul\":10180:10203   */\n      swap1\n      pop\n        /* \"#utility.yul\":9902:10210   */\n      swap2\n      swap1\n      pop\n      jump\t// out\n        /* \"#utility.yul\":10216:10362   */\n    tag_132:\n        /* \"#utility.yul\":10313:10319   */\n      dup3\n        /* \"#utility.yul\":10308:10311   */\n      dup2\n        /* \"#utility.yul\":10303:10306   */\n      dup4\n        /* \"#utility.yul\":10290:10320   */\n      calldatacopy\n        /* \"#utility.yul\":10354:10355   */\n      0x00\n        /* \"#utility.yul\":10345:10351   */\n      dup4\n        /* \"#utility.yul\":10340:10343   */\n      dup4\n        /* \"#utility.yul\":10336:10352   */\n      add\n        /* \"#utility.yul\":10329:10356   */\n      mstore\n        /* \"#utility.yul\":10216:10362   */\n      pop\n      pop\n      pop\n      jump\t// out\n        /* \"#utility.yul\":10368:10793   */\n    tag_133:\n        /* \"#utility.yul\":10446:10451   */\n      0x00\n        /* \"#utility.yul\":10471:10537   */\n      tag_259\n        /* \"#utility.yul\":10487:10536   */\n      tag_260\n        /* \"#utility.yul\":10529:10535   */\n      dup5\n        /* \"#utility.yul\":10487:10536   */\n      tag_131\n      jump\t// in\n    tag_260:\n        /* \"#utility.yul\":10471:10537   */\n      tag_130\n      jump\t// in\n    tag_259:\n        /* \"#utility.yul\":10462:10537   */\n      swap1\n      pop\n        /* \"#utility.yul\":10560:10566   */\n      dup3\n        /* \"#utility.yul\":10553:10558   */\n      dup2\n        /* \"#utility.yul\":10546:10567   */\n      mstore\n        /* \"#utility.yul\":10598:10602   */\n      0x20\n        /* \"#utility.yul\":10591:10596   */\n      dup2\n        /* \"#utility.yul\":10587:10603   */\n      add\n        /* \"#utility.yul\":10636:10639   */\n      dup5\n        /* \"#utility.yul\":10627:10633   */\n      dup5\n        /* \"#utility.yul\":10622:10625   */\n      dup5\n        /* \"#utility.yul\":10618:10634   */\n      add\n        /* \"#utility.yul\":10615:10640   */\n      gt\n        /* \"#utility.yul\":10612:10724   */\n      iszero\n      tag_261\n      jumpi\n        /* \"#utility.yul\":10643:10722   */\n      tag_262\n      tag_127\n      jump\t// in\n    tag_262:\n        /* \"#utility.yul\":10612:10724   */\n    tag_261:\n        /* \"#utility.yul\":10733:10787   */\n      tag_263\n        /* \"#utility.yul\":10780:10786   */\n      dup5\n        /* \"#utility.yul\":10775:10778   */\n      dup3\n        /* \"#utility.yul\":10770:10773   */\n      dup6\n        /* \"#utility.yul\":10733:10787   */\n      tag_132\n      jump\t// in\n    tag_263:\n        /* \"#utility.yul\":10452:10793   */\n      pop\n        /* \"#utility.yul\":10368:10793   */\n      swap4\n      swap3\n      pop\n      pop\n      pop\n      jump\t// out\n        /* \"#utility.yul\":10813:11153   */\n    tag_134:\n        /* \"#utility.yul\":10869:10874   */\n      0x00\n        /* \"#utility.yul\":10918:10921   */\n      dup3\n        /* \"#utility.yul\":10911:10915   */\n      0x1f\n        /* \"#utility.yul\":10903:10909   */\n      dup4\n        /* \"#utility.yul\":10899:10916   */\n      add\n        /* \"#utility.yul\":10895:10922   */\n      slt\n        /* \"#utility.yul\":10885:11007   */\n      tag_265\n      jumpi\n        /* \"#utility.yul\":10926:11005   */\n      tag_266\n      tag_126\n      jump\t// in\n    tag_266:\n        /* \"#utility.yul\":10885:11007   */\n    tag_265:\n        /* \"#utility.yul\":11043:11049   */\n      dup2\n        /* \"#utility.yul\":11030:11050   */\n      calldataload\n        /* \"#utility.yul\":11068:11147   */\n      tag_267\n        /* \"#utility.yul\":11143:11146   */\n      dup5\n        /* \"#utility.yul\":11135:11141   */\n      dup3\n        /* \"#utility.yul\":11128:11132   */\n      0x20\n        /* \"#utility.yul\":11120:11126   */\n      dup7\n        /* \"#utility.yul\":11116:11133   */\n      add\n        /* \"#utility.yul\":11068:11147   */\n      tag_133\n      jump\t// in\n    tag_267:\n        /* \"#utility.yul\":11059:11147   */\n      swap2\n      pop\n        /* \"#utility.yul\":10875:11153   */\n      pop\n        /* \"#utility.yul\":10813:11153   */\n      swap3\n      swap2\n      pop\n      pop\n      jump\t// out\n        /* \"#utility.yul\":11159:11813   */\n    tag_33:\n        /* \"#utility.yul\":11237:11243   */\n      0x00\n        /* \"#utility.yul\":11245:11251   */\n      dup1\n        /* \"#utility.yul\":11294:11296   */\n      0x40\n        /* \"#utility.yul\":11282:11291   */\n      dup4\n        /* \"#utility.yul\":11273:11280   */\n      dup6\n        /* \"#utility.yul\":11269:11292   */\n      sub\n        /* \"#utility.yul\":11265:11297   */\n      slt\n        /* \"#utility.yul\":11262:11381   */\n      iszero\n      tag_269\n      jumpi\n        /* \"#utility.yul\":11300:11379   */\n      tag_270\n      tag_114\n      jump\t// in\n    tag_270:\n        /* \"#utility.yul\":11262:11381   */\n    tag_269:\n        /* \"#utility.yul\":11420:11421   */\n      0x00\n        /* \"#utility.yul\":11445:11498   */\n      tag_271\n        /* \"#utility.yul\":11490:11497   */\n      dup6\n        /* \"#utility.yul\":11481:11487   */\n      dup3\n        /* \"#utility.yul\":11470:11479   */\n      dup7\n        /* \"#utility.yul\":11466:11488   */\n      add\n        /* \"#utility.yul\":11445:11498   */\n      tag_117\n      jump\t// in\n    tag_271:\n        /* \"#utility.yul\":11435:11498   */\n      swap3\n      pop\n        /* \"#utility.yul\":11391:11508   */\n      pop\n        /* \"#utility.yul\":11575:11577   */\n      0x20\n        /* \"#utility.yul\":11564:11573   */\n      dup4\n        /* \"#utility.yul\":11560:11578   */\n      add\n        /* \"#utility.yul\":11547:11579   */\n      calldataload\n        /* \"#utility.yul\":11606:11624   */\n      0xffffffffffffffff\n        /* \"#utility.yul\":11598:11604   */\n      dup2\n        /* \"#utility.yul\":11595:11625   */\n      gt\n        /* \"#utility.yul\":11592:11709   */\n      iszero\n      tag_272\n      jumpi\n        /* \"#utility.yul\":11628:11707   */\n      tag_273\n      tag_115\n      jump\t// in\n    tag_273:\n        /* \"#utility.yul\":11592:11709   */\n    tag_272:\n        /* \"#utility.yul\":11733:11796   */\n      tag_274\n        /* \"#utility.yul\":11788:11795   */\n      dup6\n        /* \"#utility.yul\":11779:11785   */\n      dup3\n        /* \"#utility.yul\":11768:11777   */\n      dup7\n        /* \"#utility.yul\":11764:11786   */\n      add\n        /* \"#utility.yul\":11733:11796   */\n      tag_134\n      jump\t// in\n    tag_274:\n        /* \"#utility.yul\":11723:11796   */\n      swap2\n      pop\n        /* \"#utility.yul\":11518:11806   */\n      pop\n        /* \"#utility.yul\":11159:11813   */\n      swap3\n      pop\n      swap3\n      swap1\n      pop\n      jump\t// out\n        /* \"#utility.yul\":11819:11937   */\n    tag_135:\n        /* \"#utility.yul\":11906:11930   */\n      tag_276\n        /* \"#utility.yul\":11924:11929   */\n      dup2\n        /* \"#utility.yul\":11906:11930   */\n      tag_99\n      jump\t// in\n    tag_276:\n        /* \"#utility.yul\":11901:11904   */\n      dup3\n        /* \"#utility.yul\":11894:11931   */\n      mstore\n        /* \"#utility.yul\":11819:11937   */\n      pop\n      pop\n      jump\t// out\n        /* \"#utility.yul\":11943:12165   */\n    tag_36:\n        /* \"#utility.yul\":12036:12040   */\n      0x00\n        /* \"#utility.yul\":12074:12076   */\n      0x20\n        /* \"#utility.yul\":12063:12072   */\n      dup3\n        /* \"#utility.yul\":12059:12077   */\n      add\n        /* \"#utility.yul\":12051:12077   */\n      swap1\n      pop\n        /* \"#utility.yul\":12087:12158   */\n      tag_278\n        /* \"#utility.yul\":12155:12156   */\n      0x00\n        /* \"#utility.yul\":12144:12153   */\n      dup4\n        /* \"#utility.yul\":12140:12157   */\n      add\n        /* \"#utility.yul\":12131:12137   */\n      dup5\n        /* \"#utility.yul\":12087:12158   */\n      tag_135\n      jump\t// in\n    tag_278:\n        /* \"#utility.yul\":11943:12165   */\n      swap3\n      swap2\n      pop\n      pop\n      jump\t// out\n        /* \"#utility.yul\":12171:12351   */\n    tag_136:\n        /* \"#utility.yul\":12219:12296   */\n      0x4e487b7100000000000000000000000000000000000000000000000000000000\n        /* \"#utility.yul\":12216:12217   */\n      0x00\n        /* \"#utility.yul\":12209:12297   */\n      mstore\n        /* \"#utility.yul\":12316:12320   */\n      0x22\n        /* \"#utility.yul\":12313:12314   */\n      0x04\n        /* \"#utility.yul\":12306:12321   */\n      mstore\n        /* \"#utility.yul\":12340:12344   */\n      0x24\n        /* \"#utility.yul\":12337:12338   */\n      0x00\n        /* \"#utility.yul\":12330:12345   */\n      revert\n        /* \"#utility.yul\":12357:12677   */\n    tag_42:\n        /* \"#utility.yul\":12401:12407   */\n      0x00\n        /* \"#utility.yul\":12438:12439   */\n      0x02\n        /* \"#utility.yul\":12432:12436   */\n      dup3\n        /* \"#utility.yul\":12428:12440   */\n      div\n        /* \"#utility.yul\":12418:12440   */\n      swap1\n      pop\n        /* \"#utility.yul\":12485:12486   */\n      0x01\n        /* \"#utility.yul\":12479:12483   */\n      dup3\n        /* \"#utility.yul\":12475:12487   */\n      and\n        /* \"#utility.yul\":12506:12524   */\n      dup1\n        /* \"#utility.yul\":12496:12577   */\n      tag_281\n      jumpi\n        /* \"#utility.yul\":12562:12566   */\n      0x7f\n        /* \"#utility.yul\":12554:12560   */\n      dup3\n        /* \"#utility.yul\":12550:12567   */\n      and\n        /* \"#utility.yul\":12540:12567   */\n      swap2\n      pop\n        /* \"#utility.yul\":12496:12577   */\n    tag_281:\n        /* \"#utility.yul\":12624:12626   */\n      0x20\n        /* \"#utility.yul\":12616:12622   */\n      dup3\n        /* \"#utility.yul\":12613:12627   */\n      lt\n        /* \"#utility.yul\":12593:12611   */\n      dup2\n        /* \"#utility.yul\":12590:12628   */\n      sub\n        /* \"#utility.yul\":12587:12671   */\n      tag_282\n      jumpi\n        /* \"#utility.yul\":12643:12661   */\n      tag_283\n      tag_136\n      jump\t// in\n    tag_283:\n        /* \"#utility.yul\":12587:12671   */\n    tag_282:\n        /* \"#utility.yul\":12408:12677   */\n      pop\n        /* \"#utility.yul\":12357:12677   */\n      swap2\n      swap1\n      pop\n      jump\t// out\n        /* \"#utility.yul\":12683:12852   */\n    tag_137:\n        /* \"#utility.yul\":12767:12778   */\n      0x00\n        /* \"#utility.yul\":12801:12807   */\n      dup3\n        /* \"#utility.yul\":12796:12799   */\n      dup3\n        /* \"#utility.yul\":12789:12808   */\n      mstore\n        /* \"#utility.yul\":12841:12845   */\n      0x20\n        /* \"#utility.yul\":12836:12839   */\n      dup3\n        /* \"#utility.yul\":12832:12846   */\n      add\n        /* \"#utility.yul\":12817:12846   */\n      swap1\n      pop\n        /* \"#utility.yul\":12683:12852   */\n      swap3\n      swap2\n      pop\n      pop\n      jump\t// out\n        /* \"#utility.yul\":12858:13039   */\n    tag_138:\n        /* \"#utility.yul\":12998:13031   */\n      0x436f6e7472616374204164647265737320646f6573206e6f7420657869737400\n        /* \"#utility.yul\":12994:12995   */\n      0x00\n        /* \"#utility.yul\":12986:12992   */\n      dup3\n        /* \"#utility.yul\":12982:12996   */\n      add\n        /* \"#utility.yul\":12975:13032   */\n      mstore\n        /* \"#utility.yul\":12858:13039   */\n      pop\n      jump\t// out\n        /* \"#utility.yul\":13045:13411   */\n    tag_139:\n        /* \"#utility.yul\":13187:13190   */\n      0x00\n        /* \"#utility.yul\":13208:13275   */\n      tag_287\n        /* \"#utility.yul\":13272:13274   */\n      0x1f\n        /* \"#utility.yul\":13267:13270   */\n      dup4\n        /* \"#utility.yul\":13208:13275   */\n      tag_137\n      jump\t// in\n    tag_287:\n        /* \"#utility.yul\":13201:13275   */\n      swap2\n      pop\n        /* \"#utility.yul\":13284:13377   */\n      tag_288\n        /* \"#utility.yul\":13373:13376   */\n      dup3\n        /* \"#utility.yul\":13284:13377   */\n      tag_138\n      jump\t// in\n    tag_288:\n        /* \"#utility.yul\":13402:13404   */\n      0x20\n        /* \"#utility.yul\":13397:13400   */\n      dup3\n        /* \"#utility.yul\":13393:13405   */\n      add\n        /* \"#utility.yul\":13386:13405   */\n      swap1\n      pop\n        /* \"#utility.yul\":13045:13411   */\n      swap2\n      swap1\n      pop\n      jump\t// out\n        /* \"#utility.yul\":13417:13836   */\n    tag_52:\n        /* \"#utility.yul\":13583:13587   */\n      0x00\n        /* \"#utility.yul\":13621:13623   */\n      0x20\n        /* \"#utility.yul\":13610:13619   */\n      dup3\n        /* \"#utility.yul\":13606:13624   */\n      add\n        /* \"#utility.yul\":13598:13624   */\n      swap1\n      pop\n        /* \"#utility.yul\":13670:13679   */\n      dup2\n        /* \"#utility.yul\":13664:13668   */\n      dup2\n        /* \"#utility.yul\":13660:13680   */\n      sub\n        /* \"#utility.yul\":13656:13657   */\n      0x00\n        /* \"#utility.yul\":13645:13654   */\n      dup4\n        /* \"#utility.yul\":13641:13658   */\n      add\n        /* \"#utility.yul\":13634:13681   */\n      mstore\n        /* \"#utility.yul\":13698:13829   */\n      tag_290\n        /* \"#utility.yul\":13824:13828   */\n      dup2\n        /* \"#utility.yul\":13698:13829   */\n      tag_139\n      jump\t// in\n    tag_290:\n        /* \"#utility.yul\":13690:13829   */\n      swap1\n      pop\n        /* \"#utility.yul\":13417:13836   */\n      swap2\n      swap1\n      pop\n      jump\t// out\n        /* \"#utility.yul\":13842:14022   */\n    tag_55:\n        /* \"#utility.yul\":13890:13967   */\n      0x4e487b7100000000000000000000000000000000000000000000000000000000\n        /* \"#utility.yul\":13887:13888   */\n      0x00\n        /* \"#utility.yul\":13880:13968   */\n      mstore\n        /* \"#utility.yul\":13987:13991   */\n      0x32\n        /* \"#utility.yul\":13984:13985   */\n      0x04\n        /* \"#utility.yul\":13977:13992   */\n      mstore\n        /* \"#utility.yul\":14011:14015   */\n      0x24\n        /* \"#utility.yul\":14008:14009   */\n      0x00\n        /* \"#utility.yul\":14001:14016   */\n      revert\n        /* \"#utility.yul\":14028:14146   */\n    tag_140:\n        /* \"#utility.yul\":14115:14139   */\n      tag_293\n        /* \"#utility.yul\":14133:14138   */\n      dup2\n        /* \"#utility.yul\":14115:14139   */\n      tag_107\n      jump\t// in\n    tag_293:\n        /* \"#utility.yul\":14110:14113   */\n      dup3\n        /* \"#utility.yul\":14103:14140   */\n      mstore\n        /* \"#utility.yul\":14028:14146   */\n      pop\n      pop\n      jump\t// out\n        /* \"#utility.yul\":14152:14374   */\n    tag_66:\n        /* \"#utility.yul\":14245:14249   */\n      0x00\n        /* \"#utility.yul\":14283:14285   */\n      0x20\n        /* \"#utility.yul\":14272:14281   */\n      dup3\n        /* \"#utility.yul\":14268:14286   */\n      add\n        /* \"#utility.yul\":14260:14286   */\n      swap1\n      pop\n        /* \"#utility.yul\":14296:14367   */\n      tag_295\n        /* \"#utility.yul\":14364:14365   */\n      0x00\n        /* \"#utility.yul\":14353:14362   */\n      dup4\n        /* \"#utility.yul\":14349:14366   */\n      add\n        /* \"#utility.yul\":14340:14346   */\n      dup5\n        /* \"#utility.yul\":14296:14367   */\n      tag_140\n      jump\t// in\n    tag_295:\n        /* \"#utility.yul\":14152:14374   */\n      swap3\n      swap2\n      pop\n      pop\n      jump\t// out\n        /* \"#utility.yul\":14380:14523   */\n    tag_141:\n        /* \"#utility.yul\":14437:14442   */\n      0x00\n        /* \"#utility.yul\":14468:14474   */\n      dup2\n        /* \"#utility.yul\":14462:14475   */\n      mload\n        /* \"#utility.yul\":14453:14475   */\n      swap1\n      pop\n        /* \"#utility.yul\":14484:14517   */\n      tag_297\n        /* \"#utility.yul\":14511:14516   */\n      dup2\n        /* \"#utility.yul\":14484:14517   */\n      tag_124\n      jump\t// in\n    tag_297:\n        /* \"#utility.yul\":14380:14523   */\n      swap3\n      swap2\n      pop\n      pop\n      jump\t// out\n        /* \"#utility.yul\":14529:14880   */\n    tag_70:\n        /* \"#utility.yul\":14599:14605   */\n      0x00\n        /* \"#utility.yul\":14648:14650   */\n      0x20\n        /* \"#utility.yul\":14636:14645   */\n      dup3\n        /* \"#utility.yul\":14627:14634   */\n      dup5\n        /* \"#utility.yul\":14623:14646   */\n      sub\n        /* \"#utility.yul\":14619:14651   */\n      slt\n        /* \"#utility.yul\":14616:14735   */\n      iszero\n      tag_299\n      jumpi\n        /* \"#utility.yul\":14654:14733   */\n      tag_300\n      tag_114\n      jump\t// in\n    tag_300:\n        /* \"#utility.yul\":14616:14735   */\n    tag_299:\n        /* \"#utility.yul\":14774:14775   */\n      0x00\n        /* \"#utility.yul\":14799:14863   */\n      tag_301\n        /* \"#utility.yul\":14855:14862   */\n      dup5\n        /* \"#utility.yul\":14846:14852   */\n      dup3\n        /* \"#utility.yul\":14835:14844   */\n      dup6\n        /* \"#utility.yul\":14831:14853   */\n      add\n        /* \"#utility.yul\":14799:14863   */\n      tag_141\n      jump\t// in\n    tag_301:\n        /* \"#utility.yul\":14789:14863   */\n      swap2\n      pop\n        /* \"#utility.yul\":14745:14873   */\n      pop\n        /* \"#utility.yul\":14529:14880   */\n      swap3\n      swap2\n      pop\n      pop\n      jump\t// out\n        /* \"#utility.yul\":14886:15067   */\n    tag_142:\n        /* \"#utility.yul\":15026:15059   */\n      0x436f6e7472616374204164647265737320616c72656164792065786973747300\n        /* \"#utility.yul\":15022:15023   */\n      0x00\n        /* \"#utility.yul\":15014:15020   */\n      dup3\n        /* \"#utility.yul\":15010:15024   */\n      add\n        /* \"#utility.yul\":15003:15060   */\n      mstore\n        /* \"#utility.yul\":14886:15067   */\n      pop\n      jump\t// out\n        /* \"#utility.yul\":15073:15439   */\n    tag_143:\n        /* \"#utility.yul\":15215:15218   */\n      0x00\n        /* \"#utility.yul\":15236:15303   */\n      tag_304\n        /* \"#utility.yul\":15300:15302   */\n      0x1f\n        /* \"#utility.yul\":15295:15298   */\n      dup4\n        /* \"#utility.yul\":15236:15303   */\n      tag_137\n      jump\t// in\n    tag_304:\n        /* \"#utility.yul\":15229:15303   */\n      swap2\n      pop\n        /* \"#utility.yul\":15312:15405   */\n      tag_305\n        /* \"#utility.yul\":15401:15404   */\n      dup3\n        /* \"#utility.yul\":15312:15405   */\n      tag_142\n      jump\t// in\n    tag_305:\n        /* \"#utility.yul\":15430:15432   */\n      0x20\n        /* \"#utility.yul\":15425:15428   */\n      dup3\n        /* \"#utility.yul\":15421:15433   */\n      add\n        /* \"#utility.yul\":15414:15433   */\n      swap1\n      pop\n        /* \"#utility.yul\":15073:15439   */\n      swap2\n      swap1\n      pop\n      jump\t// out\n        /* \"#utility.yul\":15445:15864   */\n    tag_88:\n        /* \"#utility.yul\":15611:15615   */\n      0x00\n        /* \"#utility.yul\":15649:15651   */\n      0x20\n        /* \"#utility.yul\":15638:15647   */\n      dup3\n        /* \"#utility.yul\":15634:15652   */\n      add\n        /* \"#utility.yul\":15626:15652   */\n      swap1\n      pop\n        /* \"#utility.yul\":15698:15707   */\n      dup2\n        /* \"#utility.yul\":15692:15696   */\n      dup2\n        /* \"#utility.yul\":15688:15708   */\n      sub\n        /* \"#utility.yul\":15684:15685   */\n      0x00\n        /* \"#utility.yul\":15673:15682   */\n      dup4\n        /* \"#utility.yul\":15669:15686   */\n      add\n        /* \"#utility.yul\":15662:15709   */\n      mstore\n        /* \"#utility.yul\":15726:15857   */\n      tag_307\n        /* \"#utility.yul\":15852:15856   */\n      dup2\n        /* \"#utility.yul\":15726:15857   */\n      tag_143\n      jump\t// in\n    tag_307:\n        /* \"#utility.yul\":15718:15857   */\n      swap1\n      pop\n        /* \"#utility.yul\":15445:15864   */\n      swap2\n      swap1\n      pop\n      jump\t// out\n        /* \"#utility.yul\":15870:16050   */\n    tag_144:\n        /* \"#utility.yul\":15918:15995   */\n      0x4e487b7100000000000000000000000000000000000000000000000000000000\n        /* \"#utility.yul\":15915:15916   */\n      0x00\n        /* \"#utility.yul\":15908:15996   */\n      mstore\n        /* \"#utility.yul\":16015:16019   */\n      0x11\n        /* \"#utility.yul\":16012:16013   */\n      0x04\n        /* \"#utility.yul\":16005:16020   */\n      mstore\n        /* \"#utility.yul\":16039:16043   */\n      0x24\n        /* \"#utility.yul\":16036:16037   */\n      0x00\n        /* \"#utility.yul\":16029:16044   */\n      revert\n        /* \"#utility.yul\":16056:16289   */\n    tag_90:\n        /* \"#utility.yul\":16095:16098   */\n      0x00\n        /* \"#utility.yul\":16118:16142   */\n      tag_310\n        /* \"#utility.yul\":16136:16141   */\n      dup3\n        /* \"#utility.yul\":16118:16142   */\n      tag_99\n      jump\t// in\n    tag_310:\n        /* \"#utility.yul\":16109:16142   */\n      swap2\n      pop\n        /* \"#utility.yul\":16164:16230   */\n      0xffffffffffffffffffffffffffffffffffffffffffffffffffffffffffffffff\n        /* \"#utility.yul\":16157:16162   */\n      dup3\n        /* \"#utility.yul\":16154:16231   */\n      sub\n        /* \"#utility.yul\":16151:16254   */\n      tag_311\n      jumpi\n        /* \"#utility.yul\":16234:16252   */\n      tag_312\n      tag_144\n      jump\t// in\n    tag_312:\n        /* \"#utility.yul\":16151:16254   */\n    tag_311:\n        /* \"#utility.yul\":16281:16282   */\n      0x01\n        /* \"#utility.yul\":16274:16279   */\n      dup3\n        /* \"#utility.yul\":16270:16283   */\n      add\n        /* \"#utility.yul\":16263:16283   */\n      swap1\n      pop\n        /* \"#utility.yul\":16056:16289   */\n      swap2\n      swap1\n      pop\n      jump\t// out\n        /* \"#utility.yul\":16295:16436   */\n    tag_145:\n        /* \"#utility.yul\":16344:16348   */\n      0x00\n        /* \"#utility.yul\":16367:16370   */\n      dup2\n        /* \"#utility.yul\":16359:16370   */\n      swap1\n      pop\n        /* \"#utility.yul\":16390:16393   */\n      dup2\n        /* \"#utility.yul\":16387:16388   */\n      0x00\n        /* \"#utility.yul\":16380:16394   */\n      mstore\n        /* \"#utility.yul\":16424:16428   */\n      0x20\n        /* \"#utility.yul\":16421:16422   */\n      0x00\n        /* \"#utility.yul\":16411:16429   */\n      keccak256\n        /* \"#utility.yul\":16403:16429   */\n      swap1\n      pop\n        /* \"#utility.yul\":16295:16436   */\n      swap2\n      swap1\n      pop\n      jump\t// out\n        /* \"#utility.yul\":16442:16535   */\n    tag_146:\n        /* \"#utility.yul\":16479:16485   */\n      0x00\n        /* \"#utility.yul\":16526:16528   */\n      0x20\n        /* \"#utility.yul\":16521:16523   */\n      0x1f\n        /* \"#utility.yul\":16514:16519   */\n      dup4\n        /* \"#utility.yul\":16510:16524   */\n      add\n        /* \"#utility.yul\":16506:16529   */\n      div\n        /* \"#utility.yul\":16496:16529   */\n      swap1\n      pop\n        /* \"#utility.yul\":16442:16535   */\n      swap2\n      swap1\n      pop\n      jump\t// out\n        /* \"#utility.yul\":16541:16648   */\n    tag_147:\n        /* \"#utility.yul\":16585:16593   */\n      0x00\n        /* \"#utility.yul\":16635:16640   */\n      dup3\n        /* \"#utility.yul\":16629:16633   */\n      dup3\n        /* \"#utility.yul\":16625:16641   */\n      shl\n        /* \"#utility.yul\":16604:16641   */\n      swap1\n      pop\n        /* \"#utility.yul\":16541:16648   */\n      swap3\n      swap2\n      pop\n      pop\n      jump\t// out\n        /* \"#utility.yul\":16654:17047   */\n    tag_148:\n        /* \"#utility.yul\":16723:16729   */\n      0x00\n        /* \"#utility.yul\":16773:16774   */\n      0x08\n        /* \"#utility.yul\":16761:16771   */\n      dup4\n        /* \"#utility.yul\":16757:16775   */\n      mul\n        /* \"#utility.yul\":16796:16893   */\n      tag_317\n        /* \"#utility.yul\":16826:16892   */\n      0xffffffffffffffffffffffffffffffffffffffffffffffffffffffffffffffff\n        /* \"#utility.yul\":16815:16824   */\n      dup3\n        /* \"#utility.yul\":16796:16893   */\n      tag_147\n      jump\t// in\n    tag_317:\n        /* \"#utility.yul\":16914:16953   */\n      tag_318\n        /* \"#utility.yul\":16944:16952   */\n      dup7\n        /* \"#utility.yul\":16933:16942   */\n      dup4\n        /* \"#utility.yul\":16914:16953   */\n      tag_147\n      jump\t// in\n    tag_318:\n        /* \"#utility.yul\":16902:16953   */\n      swap6\n      pop\n        /* \"#utility.yul\":16986:16990   */\n      dup1\n        /* \"#utility.yul\":16982:16991   */\n      not\n        /* \"#utility.yul\":16975:16980   */\n      dup5\n        /* \"#utility.yul\":16971:16992   */\n      and\n        /* \"#utility.yul\":16962:16992   */\n      swap4\n      pop\n        /* \"#utility.yul\":17035:17039   */\n      dup1\n        /* \"#utility.yul\":17025:17033   */\n      dup7\n        /* \"#utility.yul\":17021:17040   */\n      and\n        /* \"#utility.yul\":17014:17019   */\n      dup5\n        /* \"#utility.yul\":17011:17041   */\n      or\n        /* \"#utility.yul\":17001:17041   */\n      swap3\n      pop\n        /* \"#utility.yul\":16730:17047   */\n      pop\n      pop\n        /* \"#utility.yul\":16654:17047   */\n      swap4\n      swap3\n      pop\n      pop\n      pop\n      jump\t// out\n        /* \"#utility.yul\":17053:17195   */\n    tag_149:\n        /* \"#utility.yul\":17103:17112   */\n      0x00\n        /* \"#utility.yul\":17136:17189   */\n      tag_320\n        /* \"#utility.yul\":17154:17188   */\n      tag_321\n        /* \"#utility.yul\":17163:17187   */\n      tag_322\n        /* \"#utility.yul\":17181:17186   */\n      dup5\n        /* \"#utility.yul\":17163:17187   */\n      tag_99\n      jump\t// in\n    tag_322:\n        /* \"#utility.yul\":17154:17188   */\n      tag_119\n      jump\t// in\n    tag_321:\n        /* \"#utility.yul\":17136:17189   */\n      tag_99\n      jump\t// in\n    tag_320:\n        /* \"#utility.yul\":17123:17189   */\n      swap1\n      pop\n        /* \"#utility.yul\":17053:17195   */\n      swap2\n      swap1\n      pop\n      jump\t// out\n        /* \"#utility.yul\":17201:17276   */\n    tag_150:\n        /* \"#utility.yul\":17244:17247   */\n      0x00\n        /* \"#utility.yul\":17265:17270   */\n      dup2\n        /* \"#utility.yul\":17258:17270   */\n      swap1\n      pop\n        /* \"#utility.yul\":17201:17276   */\n      swap2\n      swap1\n      pop\n      jump\t// out\n        /* \"#utility.yul\":17282:17551   */\n    tag_151:\n        /* \"#utility.yul\":17392:17431   */\n      tag_325\n        /* \"#utility.yul\":17423:17430   */\n      dup4\n        /* \"#utility.yul\":17392:17431   */\n      tag_149\n      jump\t// in\n    tag_325:\n        /* \"#utility.yul\":17453:17544   */\n      tag_326\n        /* \"#utility.yul\":17502:17543   */\n      tag_327\n        /* \"#utility.yul\":17526:17542   */\n      dup3\n        /* \"#utility.yul\":17502:17543   */\n      tag_150\n      jump\t// in\n    tag_327:\n        /* \"#utility.yul\":17494:17500   */\n      dup5\n        /* \"#utility.yul\":17487:17491   */\n      dup5\n        /* \"#utility.yul\":17481:17492   */\n      sload\n        /* \"#utility.yul\":17453:17544   */\n      tag_148\n      jump\t// in\n    tag_326:\n        /* \"#utility.yul\":17447:17451   */\n      dup3\n        /* \"#utility.yul\":17440:17545   */\n      sstore\n        /* \"#utility.yul\":17358:17551   */\n      pop\n        /* \"#utility.yul\":17282:17551   */\n      pop\n      pop\n      pop\n      jump\t// out\n        /* \"#utility.yul\":17557:17630   */\n    tag_152:\n        /* \"#utility.yul\":17602:17605   */\n      0x00\n        /* \"#utility.yul\":17557:17630   */\n      swap1\n      jump\t// out\n        /* \"#utility.yul\":17636:17825   */\n    tag_153:\n        /* \"#utility.yul\":17713:17745   */\n      tag_330\n      tag_152\n      jump\t// in\n    tag_330:\n        /* \"#utility.yul\":17754:17819   */\n      tag_331\n        /* \"#utility.yul\":17812:17818   */\n      dup2\n        /* \"#utility.yul\":17804:17810   */\n      dup5\n        /* \"#utility.yul\":17798:17802   */\n      dup5\n        /* \"#utility.yul\":17754:17819   */\n      tag_151\n      jump\t// in\n    tag_331:\n        /* \"#utility.yul\":17689:17825   */\n      pop\n        /* \"#utility.yul\":17636:17825   */\n      pop\n      pop\n      jump\t// out\n        /* \"#utility.yul\":17831:18017   */\n    tag_154:\n        /* \"#utility.yul\":17891:18011   */\n    tag_333:\n        /* \"#utility.yul\":17908:17911   */\n      dup2\n        /* \"#utility.yul\":17901:17906   */\n      dup2\n        /* \"#utility.yul\":17898:17912   */\n      lt\n        /* \"#utility.yul\":17891:18011   */\n      iszero\n      tag_335\n      jumpi\n        /* \"#utility.yul\":17962:18001   */\n      tag_336\n        /* \"#utility.yul\":17999:18000   */\n      0x00\n        /* \"#utility.yul\":17992:17997   */\n      dup3\n        /* \"#utility.yul\":17962:18001   */\n      tag_153\n      jump\t// in\n    tag_336:\n        /* \"#utility.yul\":17935:17936   */\n      0x01\n        /* \"#utility.yul\":17928:17933   */\n      dup2\n        /* \"#utility.yul\":17924:17937   */\n      add\n        /* \"#utility.yul\":17915:17937   */\n      swap1\n      pop\n        /* \"#utility.yul\":17891:18011   */\n      jump(tag_333)\n    tag_335:\n        /* \"#utility.yul\":17831:18017   */\n      pop\n      pop\n      jump\t// out\n        /* \"#utility.yul\":18023:18566   */\n    tag_155:\n        /* \"#utility.yul\":18124:18126   */\n      0x1f\n        /* \"#utility.yul\":18119:18122   */\n      dup3\n        /* \"#utility.yul\":18116:18127   */\n      gt\n        /* \"#utility.yul\":18113:18559   */\n      iszero\n      tag_338\n      jumpi\n        /* \"#utility.yul\":18158:18196   */\n      tag_339\n        /* \"#utility.yul\":18190:18195   */\n      dup2\n        /* \"#utility.yul\":18158:18196   */\n      tag_145\n      jump\t// in\n    tag_339:\n        /* \"#utility.yul\":18242:18271   */\n      tag_340\n        /* \"#utility.yul\":18260:18270   */\n      dup5\n        /* \"#utility.yul\":18242:18271   */\n      tag_146\n      jump\t// in\n    tag_340:\n        /* \"#utility.yul\":18232:18240   */\n      dup2\n        /* \"#utility.yul\":18228:18272   */\n      add\n        /* \"#utility.yul\":18425:18427   */\n      0x20\n        /* \"#utility.yul\":18413:18423   */\n      dup6\n        /* \"#utility.yul\":18410:18428   */\n      lt\n        /* \"#utility.yul\":18407:18456   */\n      iszero\n      tag_341\n      jumpi\n        /* \"#utility.yul\":18446:18454   */\n      dup2\n        /* \"#utility.yul\":18431:18454   */\n      swap1\n      pop\n        /* \"#utility.yul\":18407:18456   */\n    tag_341:\n        /* \"#utility.yul\":18469:18549   */\n      tag_342\n        /* \"#utility.yul\":18525:18547   */\n      tag_343\n        /* \"#utility.yul\":18543:18546   */\n      dup6\n        /* \"#utility.yul\":18525:18547   */\n      tag_146\n      jump\t// in\n    tag_343:\n        /* \"#utility.yul\":18515:18523   */\n      dup4\n        /* \"#utility.yul\":18511:18548   */\n      add\n        /* \"#utility.yul\":18498:18509   */\n      dup3\n        /* \"#utility.yul\":18469:18549   */\n      tag_154\n      jump\t// in\n    tag_342:\n        /* \"#utility.yul\":18128:18559   */\n      pop\n      pop\n        /* \"#utility.yul\":18113:18559   */\n    tag_338:\n        /* \"#utility.yul\":18023:18566   */\n      pop\n      pop\n      pop\n      jump\t// out\n        /* \"#utility.yul\":18572:18689   */\n    tag_156:\n        /* \"#utility.yul\":18626:18634   */\n      0x00\n        /* \"#utility.yul\":18676:18681   */\n      dup3\n        /* \"#utility.yul\":18670:18674   */\n      dup3\n        /* \"#utility.yul\":18666:18682   */\n      shr\n        /* \"#utility.yul\":18645:18682   */\n      swap1\n      pop\n        /* \"#utility.yul\":18572:18689   */\n      swap3\n      swap2\n      pop\n      pop\n      jump\t// out\n        /* \"#utility.yul\":18695:18864   */\n    tag_157:\n        /* \"#utility.yul\":18739:18745   */\n      0x00\n        /* \"#utility.yul\":18772:18823   */\n      tag_346\n        /* \"#utility.yul\":18820:18821   */\n      0x00\n        /* \"#utility.yul\":18816:18822   */\n      not\n        /* \"#utility.yul\":18808:18813   */\n      dup5\n        /* \"#utility.yul\":18805:18806   */\n      0x08\n        /* \"#utility.yul\":18801:18814   */\n      mul\n        /* \"#utility.yul\":18772:18823   */\n      tag_156\n      jump\t// in\n    tag_346:\n        /* \"#utility.yul\":18768:18824   */\n      not\n        /* \"#utility.yul\":18853:18857   */\n      dup1\n        /* \"#utility.yul\":18847:18851   */\n      dup4\n        /* \"#utility.yul\":18843:18858   */\n      and\n        /* \"#utility.yul\":18833:18858   */\n      swap2\n      pop\n        /* \"#utility.yul\":18746:18864   */\n      pop\n        /* \"#utility.yul\":18695:18864   */\n      swap3\n      swap2\n      pop\n      pop\n      jump\t// out\n        /* \"#utility.yul\":18869:19164   */\n    tag_158:\n        /* \"#utility.yul\":18945:18949   */\n      0x00\n        /* \"#utility.yul\":19091:19120   */\n      tag_348\n        /* \"#utility.yul\":19116:19119   */\n      dup4\n        /* \"#utility.yul\":19110:19114   */\n      dup4\n        /* \"#utility.yul\":19091:19120   */\n      tag_157\n      jump\t// in\n    tag_348:\n        /* \"#utility.yul\":19083:19120   */\n      swap2\n      pop\n        /* \"#utility.yul\":19153:19156   */\n      dup3\n        /* \"#utility.yul\":19150:19151   */\n      0x02\n        /* \"#utility.yul\":19146:19157   */\n      mul\n        /* \"#utility.yul\":19140:19144   */\n      dup3\n        /* \"#utility.yul\":19137:19158   */\n      or\n        /* \"#utility.yul\":19129:19158   */\n      swap1\n      pop\n        /* \"#utility.yul\":18869:19164   */\n      swap3\n      swap2\n      pop\n      pop\n      jump\t// out\n        /* \"#utility.yul\":19169:20564   */\n    tag_93:\n        /* \"#utility.yul\":19286:19323   */\n      tag_350\n        /* \"#utility.yul\":19319:19322   */\n      dup3\n        /* \"#utility.yul\":19286:19323   */\n      tag_101\n      jump\t// in\n    tag_350:\n        /* \"#utility.yul\":19388:19406   */\n      0xffffffffffffffff\n        /* \"#utility.yul\":19380:19386   */\n      dup2\n        /* \"#utility.yul\":19377:19407   */\n      gt\n        /* \"#utility.yul\":19374:19430   */\n      iszero\n      tag_351\n      jumpi\n        /* \"#utility.yul\":19410:19428   */\n      tag_352\n      tag_128\n      jump\t// in\n    tag_352:\n        /* \"#utility.yul\":19374:19430   */\n    tag_351:\n        /* \"#utility.yul\":19454:19492   */\n      tag_353\n        /* \"#utility.yul\":19486:19490   */\n      dup3\n        /* \"#utility.yul\":19480:19491   */\n      sload\n        /* \"#utility.yul\":19454:19492   */\n      tag_42\n      jump\t// in\n    tag_353:\n        /* \"#utility.yul\":19539:19606   */\n      tag_354\n        /* \"#utility.yul\":19599:19605   */\n      dup3\n        /* \"#utility.yul\":19591:19597   */\n      dup3\n        /* \"#utility.yul\":19585:19589   */\n      dup6\n        /* \"#utility.yul\":19539:19606   */\n      tag_155\n      jump\t// in\n    tag_354:\n        /* \"#utility.yul\":19633:19634   */\n      0x00\n        /* \"#utility.yul\":19657:19661   */\n      0x20\n        /* \"#utility.yul\":19644:19661   */\n      swap1\n      pop\n        /* \"#utility.yul\":19689:19691   */\n      0x1f\n        /* \"#utility.yul\":19681:19687   */\n      dup4\n        /* \"#utility.yul\":19678:19692   */\n      gt\n        /* \"#utility.yul\":19706:19707   */\n      0x01\n        /* \"#utility.yul\":19701:20319   */\n      dup2\n      eq\n      tag_356\n      jumpi\n        /* \"#utility.yul\":20363:20364   */\n      0x00\n        /* \"#utility.yul\":20380:20386   */\n      dup5\n        /* \"#utility.yul\":20377:20454   */\n      iszero\n      tag_357\n      jumpi\n        /* \"#utility.yul\":20429:20438   */\n      dup3\n        /* \"#utility.yul\":20424:20427   */\n      dup8\n        /* \"#utility.yul\":20420:20439   */\n      add\n        /* \"#utility.yul\":20414:20440   */\n      mload\n        /* \"#utility.yul\":20405:20440   */\n      swap1\n      pop\n        /* \"#utility.yul\":20377:20454   */\n    tag_357:\n        /* \"#utility.yul\":20480:20547   */\n      tag_358\n        /* \"#utility.yul\":20540:20546   */\n      dup6\n        /* \"#utility.yul\":20533:20538   */\n      dup3\n        /* \"#utility.yul\":20480:20547   */\n      tag_158\n      jump\t// in\n    tag_358:\n        /* \"#utility.yul\":20474:20478   */\n      dup7\n        /* \"#utility.yul\":20467:20548   */\n      sstore\n        /* \"#utility.yul\":20336:20558   */\n      pop\n        /* \"#utility.yul\":19671:20558   */\n      jump(tag_355)\n        /* \"#utility.yul\":19701:20319   */\n    tag_356:\n        /* \"#utility.yul\":19753:19757   */\n      0x1f\n        /* \"#utility.yul\":19749:19758   */\n      not\n        /* \"#utility.yul\":19741:19747   */\n      dup5\n        /* \"#utility.yul\":19737:19759   */\n      and\n        /* \"#utility.yul\":19787:19824   */\n      tag_359\n        /* \"#utility.yul\":19819:19823   */\n      dup7\n        /* \"#utility.yul\":19787:19824   */\n      tag_145\n      jump\t// in\n    tag_359:\n        /* \"#utility.yul\":19846:19847   */\n      0x00\n        /* \"#utility.yul\":19860:20068   */\n    tag_360:\n        /* \"#utility.yul\":19874:19881   */\n      dup3\n        /* \"#utility.yul\":19871:19872   */\n      dup2\n        /* \"#utility.yul\":19868:19882   */\n      lt\n        /* \"#utility.yul\":19860:20068   */\n      iszero\n      tag_362\n      jumpi\n        /* \"#utility.yul\":19953:19962   */\n      dup5\n        /* \"#utility.yul\":19948:19951   */\n      dup10\n        /* \"#utility.yul\":19944:19963   */\n      add\n        /* \"#utility.yul\":19938:19964   */\n      mload\n        /* \"#utility.yul\":19930:19936   */\n      dup3\n        /* \"#utility.yul\":19923:19965   */\n      sstore\n        /* \"#utility.yul\":20004:20005   */\n      0x01\n        /* \"#utility.yul\":19996:20002   */\n      dup3\n        /* \"#utility.yul\":19992:20006   */\n      add\n        /* \"#utility.yul\":19982:20006   */\n      swap2\n      pop\n        /* \"#utility.yul\":20051:20053   */\n      0x20\n        /* \"#utility.yul\":20040:20049   */\n      dup6\n        /* \"#utility.yul\":20036:20054   */\n      add\n        /* \"#utility.yul\":20023:20054   */\n      swap5\n      pop\n        /* \"#utility.yul\":19897:19901   */\n      0x20\n        /* \"#utility.yul\":19894:19895   */\n      dup2\n        /* \"#utility.yul\":19890:19902   */\n      add\n        /* \"#utility.yul\":19885:19902   */\n      swap1\n      pop\n        /* \"#utility.yul\":19860:20068   */\n      jump(tag_360)\n    tag_362:\n        /* \"#utility.yul\":20096:20102   */\n      dup7\n        /* \"#utility.yul\":20087:20094   */\n      dup4\n        /* \"#utility.yul\":20084:20103   */\n      lt\n        /* \"#utility.yul\":20081:20260   */\n      iszero\n      tag_363\n      jumpi\n        /* \"#utility.yul\":20154:20163   */\n      dup5\n        /* \"#utility.yul\":20149:20152   */\n      dup10\n        /* \"#utility.yul\":20145:20164   */\n      add\n        /* \"#utility.yul\":20139:20165   */\n      mload\n        /* \"#utility.yul\":20197:20245   */\n      tag_364\n        /* \"#utility.yul\":20239:20243   */\n      0x1f\n        /* \"#utility.yul\":20231:20237   */\n      dup10\n        /* \"#utility.yul\":20227:20244   */\n      and\n        /* \"#utility.yul\":20216:20225   */\n      dup3\n        /* \"#utility.yul\":20197:20245   */\n      tag_157\n      jump\t// in\n    tag_364:\n        /* \"#utility.yul\":20189:20195   */\n      dup4\n        /* \"#utility.yul\":20182:20246   */\n      sstore\n        /* \"#utility.yul\":20104:20260   */\n      pop\n        /* \"#utility.yul\":20081:20260   */\n    tag_363:\n        /* \"#utility.yul\":20306:20307   */\n      0x01\n        /* \"#utility.yul\":20302:20303   */\n      0x02\n        /* \"#utility.yul\":20294:20300   */\n      dup9\n        /* \"#utility.yul\":20290:20304   */\n      mul\n        /* \"#utility.yul\":20286:20308   */\n      add\n        /* \"#utility.yul\":20280:20284   */\n      dup9\n        /* \"#utility.yul\":20273:20309   */\n      sstore\n        /* \"#utility.yul\":19708:20319   */\n      pop\n      pop\n      pop\n        /* \"#utility.yul\":19671:20558   */\n    tag_355:\n      pop\n        /* \"#utility.yul\":19261:20564   */\n      pop\n      pop\n      pop\n        /* \"#utility.yul\":19169:20564   */\n      pop\n      pop\n      jump\t// out\n        /* \"#utility.yul\":20570:20764   */\n    tag_95:\n        /* \"#utility.yul\":20610:20614   */\n      0x00\n        /* \"#utility.yul\":20630:20650   */\n      tag_366\n        /* \"#utility.yul\":20648:20649   */\n      dup3\n        /* \"#utility.yul\":20630:20650   */\n      tag_99\n      jump\t// in\n    tag_366:\n        /* \"#utility.yul\":20625:20650   */\n      swap2\n      pop\n        /* \"#utility.yul\":20664:20684   */\n      tag_367\n        /* \"#utility.yul\":20682:20683   */\n      dup4\n        /* \"#utility.yul\":20664:20684   */\n      tag_99\n      jump\t// in\n    tag_367:\n        /* \"#utility.yul\":20659:20684   */\n      swap3\n      pop\n        /* \"#utility.yul\":20708:20709   */\n      dup3\n        /* \"#utility.yul\":20705:20706   */\n      dup3\n        /* \"#utility.yul\":20701:20710   */\n      sub\n        /* \"#utility.yul\":20693:20710   */\n      swap1\n      pop\n        /* \"#utility.yul\":20732:20733   */\n      dup2\n        /* \"#utility.yul\":20726:20730   */\n      dup2\n        /* \"#utility.yul\":20723:20734   */\n      gt\n        /* \"#utility.yul\":20720:20757   */\n      iszero\n      tag_368\n      jumpi\n        /* \"#utility.yul\":20737:20755   */\n      tag_369\n      tag_144\n      jump\t// in\n    tag_369:\n        /* \"#utility.yul\":20720:20757   */\n    tag_368:\n        /* \"#utility.yul\":20570:20764   */\n      swap3\n      swap2\n      pop\n      pop\n      jump\t// out\n\n    auxdata: 0xa2646970667358221220db76fa22f18ec1d742e190b11e9f9bc20772bbd83d27952841654b00a4c77cf564736f6c63430008170033\n}\n",
				"bytecode": {
					"linkReferences": {},
					"object": "60806040526001805534801562000014575f80fd5b506040516200165d3803806200165d83398181016040528101906200003a9190620000e6565b8060025f6101000a81548173ffffffffffffffffffffffffffffffffffffffff021916908373ffffffffffffffffffffffffffffffffffffffff1602179055505062000116565b5f80fd5b5f73ffffffffffffffffffffffffffffffffffffffff82169050919050565b5f620000b08262000085565b9050919050565b620000c281620000a4565b8114620000cd575f80fd5b50565b5f81519050620000e081620000b7565b92915050565b5f60208284031215620000fe57620000fd62000081565b5b5f6200010d84828501620000d0565b91505092915050565b61153980620001245f395ff3fe608060405234801561000f575f80fd5b5060043610610060575f3560e01c806318d3ce96146100645780635d9c610c146100825780637dc0d1d0146100b2578063dcdb65b3146100d0578063e385e261146100ec578063e803abaa1461011c575b5f80fd5b61006c61014c565b6040516100799190610cab565b60405180910390f35b61009c60048036038101906100979190610d06565b61029f565b6040516100a99190610d91565b60405180910390f35b6100ba610496565b6040516100c79190610e0c565b60405180910390f35b6100ea60048036038101906100e59190610d06565b6104bb565b005b61010660048036038101906101019190610e4f565b61069b565b6040516101139190610d91565b60405180910390f35b61013660048036038101906101319190610fa6565b6107dd565b604051610143919061100f565b60405180910390f35b60605f805480602002602001604051908101604052809291908181526020015f905b82821015610296578382905f5260205f2090600402016040518060800160405290815f82015481526020016001820180546101a890611055565b80601f01602080910402602001604051908101604052809291908181526020018280546101d490611055565b801561021f5780601f106101f65761010080835404028352916020019161021f565b820191905f5260205f20905b81548152906001019060200180831161020257829003601f168201915b50505050508152602001600282015f9054906101000a900473ffffffffffffffffffffffffffffffffffffffff1673ffffffffffffffffffffffffffffffffffffffff1673ffffffffffffffffffffffffffffffffffffffff1681526020016003820154815250508152602001906001019061016e565b50505050905090565b6102a7610a74565b60055f8373ffffffffffffffffffffffffffffffffffffffff1673ffffffffffffffffffffffffffffffffffffffff1681526020019081526020015f205f9054906101000a900460ff16610330576040517f08c379a0000000000000000000000000000000000000000000000000000000008152600401610327906110df565b60405180910390fd5b5f60045f8473ffffffffffffffffffffffffffffffffffffffff1673ffffffffffffffffffffffffffffffffffffffff1681526020019081526020015f2054815481106103805761037f6110fd565b5b905f5260205f2090600402016040518060800160405290815f82015481526020016001820180546103b090611055565b80601f01602080910402602001604051908101604052809291908181526020018280546103dc90611055565b80156104275780601f106103fe57610100808354040283529160200191610427565b820191905f5260205f20905b81548152906001019060200180831161040a57829003601f168201915b50505050508152602001600282015f9054906101000a900473ffffffffffffffffffffffffffffffffffffffff1673ffffffffffffffffffffffffffffffffffffffff1673ffffffffffffffffffffffffffffffffffffffff1681526020016003820154815250509050919050565b60025f9054906101000a900473ffffffffffffffffffffffffffffffffffffffff1681565b60055f8273ffffffffffffffffffffffffffffffffffffffff1673ffffffffffffffffffffffffffffffffffffffff1681526020019081526020015f205f9054906101000a900460ff16610544576040517f08c379a000000000000000000000000000000000000000000000000000000000815260040161053b906110df565b60405180910390fd5b5f60045f8373ffffffffffffffffffffffffffffffffffffffff1673ffffffffffffffffffffffffffffffffffffffff1681526020019081526020015f205490505f60025f9054906101000a900473ffffffffffffffffffffffffffffffffffffffff1673ffffffffffffffffffffffffffffffffffffffff1663c2ea6519846040518263ffffffff1660e01b81526004016105e09190611139565b602060405180830381865afa1580156105fb573d5f803e3d5ffd5b505050506040513d601f19601f8201168201806040525081019061061f9190611166565b9050805f8381548110610635576106346110fd565b5b905f5260205f209060040201600301819055508273ffffffffffffffffffffffffffffffffffffffff167fd7c8e3f1cf0cde9378530e35ac4f45bbf534b0658c24dd4e1b56b6099959eee38260405161068e919061100f565b60405180910390a2505050565b6106a3610a74565b5f60035f8481526020019081526020015f2054815481106106c7576106c66110fd565b5b905f5260205f2090600402016040518060800160405290815f82015481526020016001820180546106f790611055565b80601f016020809104026020016040519081016040528092919081815260200182805461072390611055565b801561076e5780601f106107455761010080835404028352916020019161076e565b820191905f5260205f20905b81548152906001019060200180831161075157829003601f168201915b50505050508152602001600282015f9054906101000a900473ffffffffffffffffffffffffffffffffffffffff1673ffffffffffffffffffffffffffffffffffffffff1673ffffffffffffffffffffffffffffffffffffffff1681526020016003820154815250509050919050565b5f60055f8473ffffffffffffffffffffffffffffffffffffffff1673ffffffffffffffffffffffffffffffffffffffff1681526020019081526020015f205f9054906101000a900460ff1615610868576040517f08c379a000000000000000000000000000000000000000000000000000000000815260040161085f906111db565b60405180910390fd5b5f60015f81548092919061087b90611226565b9190505590505f60405180608001604052808381526020018581526020018673ffffffffffffffffffffffffffffffffffffffff1681526020015f81525090505f81908060018154018082558091505060019003905f5260205f2090600402015f909190919091505f820151815f015560208201518160010190816109009190611401565b506040820151816002015f6101000a81548173ffffffffffffffffffffffffffffffffffffffff021916908373ffffffffffffffffffffffffffffffffffffffff1602179055506060820151816003015550505f60015f8054905061096591906114d0565b90508060035f8581526020019081526020015f20819055508060045f8873ffffffffffffffffffffffffffffffffffffffff1673ffffffffffffffffffffffffffffffffffffffff1681526020019081526020015f2081905550600160055f8873ffffffffffffffffffffffffffffffffffffffff1673ffffffffffffffffffffffffffffffffffffffff1681526020019081526020015f205f6101000a81548160ff0219169083151502179055505f60065f8873ffffffffffffffffffffffffffffffffffffffff1673ffffffffffffffffffffffffffffffffffffffff1681526020019081526020015f205f6101000a81548160ff02191690831515021790555082935050505092915050565b60405180608001604052805f8152602001606081526020015f73ffffffffffffffffffffffffffffffffffffffff1681526020015f81525090565b5f81519050919050565b5f82825260208201905092915050565b5f819050602082019050919050565b5f819050919050565b610aea81610ad8565b82525050565b5f81519050919050565b5f82825260208201905092915050565b5f5b83811015610b27578082015181840152602081019050610b0c565b5f8484015250505050565b5f601f19601f8301169050919050565b5f610b4c82610af0565b610b568185610afa565b9350610b66818560208601610b0a565b610b6f81610b32565b840191505092915050565b5f73ffffffffffffffffffffffffffffffffffffffff82169050919050565b5f610ba382610b7a565b9050919050565b610bb381610b99565b82525050565b5f608083015f830151610bce5f860182610ae1565b5060208301518482036020860152610be68282610b42565b9150506040830151610bfb6040860182610baa565b506060830151610c0e6060860182610ae1565b508091505092915050565b5f610c248383610bb9565b905092915050565b5f602082019050919050565b5f610c4282610aaf565b610c4c8185610ab9565b935083602082028501610c5e85610ac9565b805f5b85811015610c995784840389528151610c7a8582610c19565b9450610c8583610c2c565b925060208a01995050600181019050610c61565b50829750879550505050505092915050565b5f6020820190508181035f830152610cc38184610c38565b905092915050565b5f604051905090565b5f80fd5b5f80fd5b610ce581610b99565b8114610cef575f80fd5b50565b5f81359050610d0081610cdc565b92915050565b5f60208284031215610d1b57610d1a610cd4565b5b5f610d2884828501610cf2565b91505092915050565b5f608083015f830151610d465f860182610ae1565b5060208301518482036020860152610d5e8282610b42565b9150506040830151610d736040860182610baa565b506060830151610d866060860182610ae1565b508091505092915050565b5f6020820190508181035f830152610da98184610d31565b905092915050565b5f819050919050565b5f610dd4610dcf610dca84610b7a565b610db1565b610b7a565b9050919050565b5f610de582610dba565b9050919050565b5f610df682610ddb565b9050919050565b610e0681610dec565b82525050565b5f602082019050610e1f5f830184610dfd565b92915050565b610e2e81610ad8565b8114610e38575f80fd5b50565b5f81359050610e4981610e25565b92915050565b5f60208284031215610e6457610e63610cd4565b5b5f610e7184828501610e3b565b91505092915050565b5f80fd5b5f80fd5b7f4e487b71000000000000000000000000000000000000000000000000000000005f52604160045260245ffd5b610eb882610b32565b810181811067ffffffffffffffff82111715610ed757610ed6610e82565b5b80604052505050565b5f610ee9610ccb565b9050610ef58282610eaf565b919050565b5f67ffffffffffffffff821115610f1457610f13610e82565b5b610f1d82610b32565b9050602081019050919050565b828183375f83830152505050565b5f610f4a610f4584610efa565b610ee0565b905082815260208101848484011115610f6657610f65610e7e565b5b610f71848285610f2a565b509392505050565b5f82601f830112610f8d57610f8c610e7a565b5b8135610f9d848260208601610f38565b91505092915050565b5f8060408385031215610fbc57610fbb610cd4565b5b5f610fc985828601610cf2565b925050602083013567ffffffffffffffff811115610fea57610fe9610cd8565b5b610ff685828601610f79565b9150509250929050565b61100981610ad8565b82525050565b5f6020820190506110225f830184611000565b92915050565b7f4e487b71000000000000000000000000000000000000000000000000000000005f52602260045260245ffd5b5f600282049050600182168061106c57607f821691505b60208210810361107f5761107e611028565b5b50919050565b5f82825260208201905092915050565b7f436f6e7472616374204164647265737320646f6573206e6f74206578697374005f82015250565b5f6110c9601f83611085565b91506110d482611095565b602082019050919050565b5f6020820190508181035f8301526110f6816110bd565b9050919050565b7f4e487b71000000000000000000000000000000000000000000000000000000005f52603260045260245ffd5b61113381610b99565b82525050565b5f60208201905061114c5f83018461112a565b92915050565b5f8151905061116081610e25565b92915050565b5f6020828403121561117b5761117a610cd4565b5b5f61118884828501611152565b91505092915050565b7f436f6e7472616374204164647265737320616c726561647920657869737473005f82015250565b5f6111c5601f83611085565b91506111d082611191565b602082019050919050565b5f6020820190508181035f8301526111f2816111b9565b9050919050565b7f4e487b71000000000000000000000000000000000000000000000000000000005f52601160045260245ffd5b5f61123082610ad8565b91507fffffffffffffffffffffffffffffffffffffffffffffffffffffffffffffffff8203611262576112616111f9565b5b600182019050919050565b5f819050815f5260205f209050919050565b5f6020601f8301049050919050565b5f82821b905092915050565b5f600883026112c97fffffffffffffffffffffffffffffffffffffffffffffffffffffffffffffffff8261128e565b6112d3868361128e565b95508019841693508086168417925050509392505050565b5f6113056113006112fb84610ad8565b610db1565b610ad8565b9050919050565b5f819050919050565b61131e836112eb565b61133261132a8261130c565b84845461129a565b825550505050565b5f90565b61134661133a565b611351818484611315565b505050565b5b81811015611374576113695f8261133e565b600181019050611357565b5050565b601f8211156113b95761138a8161126d565b6113938461127f565b810160208510156113a2578190505b6113b66113ae8561127f565b830182611356565b50505b505050565b5f82821c905092915050565b5f6113d95f19846008026113be565b1980831691505092915050565b5f6113f183836113ca565b9150826002028217905092915050565b61140a82610af0565b67ffffffffffffffff81111561142357611422610e82565b5b61142d8254611055565b611438828285611378565b5f60209050601f831160018114611469575f8415611457578287015190505b61146185826113e6565b8655506114c8565b601f1984166114778661126d565b5f5b8281101561149e57848901518255600182019150602085019450602081019050611479565b868310156114bb57848901516114b7601f8916826113ca565b8355505b6001600288020188555050505b505050505050565b5f6114da82610ad8565b91506114e583610ad8565b92508282039050818111156114fd576114fc6111f9565b5b9291505056fea2646970667358221220db76fa22f18ec1d742e190b11e9f9bc20772bbd83d27952841654b00a4c77cf564736f6c63430008170033",
					"opcodes": "PUSH1 0x80 PUSH1 0x40 MSTORE PUSH1 0x1 DUP1 SSTORE CALLVALUE DUP1 ISZERO PUSH3 0x14 JUMPI PUSH0 DUP1 REVERT JUMPDEST POP PUSH1 0x40 MLOAD PUSH3 0x165D CODESIZE SUB DUP1 PUSH3 0x165D DUP4 CODECOPY DUP2 DUP2 ADD PUSH1 0x40 MSTORE DUP2 ADD SWAP1 PUSH3 0x3A SWAP2 SWAP1 PUSH3 0xE6 JUMP JUMPDEST DUP1 PUSH1 0x2 PUSH0 PUSH2 0x100 EXP DUP2 SLOAD DUP2 PUSH20 0xFFFFFFFFFFFFFFFFFFFFFFFFFFFFFFFFFFFFFFFF MUL NOT AND SWAP1 DUP4 PUSH20 0xFFFFFFFFFFFFFFFFFFFFFFFFFFFFFFFFFFFFFFFF AND MUL OR SWAP1 SSTORE POP POP PUSH3 0x116 JUMP JUMPDEST PUSH0 DUP1 REVERT JUMPDEST PUSH0 PUSH20 0xFFFFFFFFFFFFFFFFFFFFFFFFFFFFFFFFFFFFFFFF DUP3 AND SWAP1 POP SWAP2 SWAP1 POP JUMP JUMPDEST PUSH0 PUSH3 0xB0 DUP3 PUSH3 0x85 JUMP JUMPDEST SWAP1 POP SWAP2 SWAP1 POP JUMP JUMPDEST PUSH3 0xC2 DUP2 PUSH3 0xA4 JUMP JUMPDEST DUP2 EQ PUSH3 0xCD JUMPI PUSH0 DUP1 REVERT JUMPDEST POP JUMP JUMPDEST PUSH0 DUP2 MLOAD SWAP1 POP PUSH3 0xE0 DUP2 PUSH3 0xB7 JUMP JUMPDEST SWAP3 SWAP2 POP POP JUMP JUMPDEST PUSH0 PUSH1 0x20 DUP3 DUP5 SUB SLT ISZERO PUSH3 0xFE JUMPI PUSH3 0xFD PUSH3 0x81 JUMP JUMPDEST JUMPDEST PUSH0 PUSH3 0x10D DUP5 DUP3 DUP6 ADD PUSH3 0xD0 JUMP JUMPDEST SWAP2 POP POP SWAP3 SWAP2 POP POP JUMP JUMPDEST PUSH2 0x1539 DUP1 PUSH3 0x124 PUSH0 CODECOPY PUSH0 RETURN INVALID PUSH1 0x80 PUSH1 0x40 MSTORE CALLVALUE DUP1 ISZERO PUSH2 0xF JUMPI PUSH0 DUP1 REVERT JUMPDEST POP PUSH1 0x4 CALLDATASIZE LT PUSH2 0x60 JUMPI PUSH0 CALLDATALOAD PUSH1 0xE0 SHR DUP1 PUSH4 0x18D3CE96 EQ PUSH2 0x64 JUMPI DUP1 PUSH4 0x5D9C610C EQ PUSH2 0x82 JUMPI DUP1 PUSH4 0x7DC0D1D0 EQ PUSH2 0xB2 JUMPI DUP1 PUSH4 0xDCDB65B3 EQ PUSH2 0xD0 JUMPI DUP1 PUSH4 0xE385E261 EQ PUSH2 0xEC JUMPI DUP1 PUSH4 0xE803ABAA EQ PUSH2 0x11C JUMPI JUMPDEST PUSH0 DUP1 REVERT JUMPDEST PUSH2 0x6C PUSH2 0x14C JUMP JUMPDEST PUSH1 0x40 MLOAD PUSH2 0x79 SWAP2 SWAP1 PUSH2 0xCAB JUMP JUMPDEST PUSH1 0x40 MLOAD DUP1 SWAP2 SUB SWAP1 RETURN JUMPDEST PUSH2 0x9C PUSH1 0x4 DUP1 CALLDATASIZE SUB DUP2 ADD SWAP1 PUSH2 0x97 SWAP2 SWAP1 PUSH2 0xD06 JUMP JUMPDEST PUSH2 0x29F JUMP JUMPDEST PUSH1 0x40 MLOAD PUSH2 0xA9 SWAP2 SWAP1 PUSH2 0xD91 JUMP JUMPDEST PUSH1 0x40 MLOAD DUP1 SWAP2 SUB SWAP1 RETURN JUMPDEST PUSH2 0xBA PUSH2 0x496 JUMP JUMPDEST PUSH1 0x40 MLOAD PUSH2 0xC7 SWAP2 SWAP1 PUSH2 0xE0C JUMP JUMPDEST PUSH1 0x40 MLOAD DUP1 SWAP2 SUB SWAP1 RETURN JUMPDEST PUSH2 0xEA PUSH1 0x4 DUP1 CALLDATASIZE SUB DUP2 ADD SWAP1 PUSH2 0xE5 SWAP2 SWAP1 PUSH2 0xD06 JUMP JUMPDEST PUSH2 0x4BB JUMP JUMPDEST STOP JUMPDEST PUSH2 0x106 PUSH1 0x4 DUP1 CALLDATASIZE SUB DUP2 ADD SWAP1 PUSH2 0x101 SWAP2 SWAP1 PUSH2 0xE4F JUMP JUMPDEST PUSH2 0x69B JUMP JUMPDEST PUSH1 0x40 MLOAD PUSH2 0x113 SWAP2 SWAP1 PUSH2 0xD91 JUMP JUMPDEST PUSH1 0x40 MLOAD DUP1 SWAP2 SUB SWAP1 RETURN JUMPDEST PUSH2 0x136 PUSH1 0x4 DUP1 CALLDATASIZE SUB DUP2 ADD SWAP1 PUSH2 0x131 SWAP2 SWAP1 PUSH2 0xFA6 JUMP JUMPDEST PUSH2 0x7DD JUMP JUMPDEST PUSH1 0x40 MLOAD PUSH2 0x143 SWAP2 SWAP1 PUSH2 0x100F JUMP JUMPDEST PUSH1 0x40 MLOAD DUP1 SWAP2 SUB SWAP1 RETURN JUMPDEST PUSH1 0x60 PUSH0 DUP1 SLOAD DUP1 PUSH1 0x20 MUL PUSH1 0x20 ADD PUSH1 0x40 MLOAD SWAP1 DUP2 ADD PUSH1 0x40 MSTORE DUP1 SWAP3 SWAP2 SWAP1 DUP2 DUP2 MSTORE PUSH1 0x20 ADD PUSH0 SWAP1 JUMPDEST DUP3 DUP3 LT ISZERO PUSH2 0x296 JUMPI DUP4 DUP3 SWAP1 PUSH0 MSTORE PUSH1 0x20 PUSH0 KECCAK256 SWAP1 PUSH1 0x4 MUL ADD PUSH1 0x40 MLOAD DUP1 PUSH1 0x80 ADD PUSH1 0x40 MSTORE SWAP1 DUP2 PUSH0 DUP3 ADD SLOAD DUP2 MSTORE PUSH1 0x20 ADD PUSH1 0x1 DUP3 ADD DUP1 SLOAD PUSH2 0x1A8 SWAP1 PUSH2 0x1055 JUMP JUMPDEST DUP1 PUSH1 0x1F ADD PUSH1 0x20 DUP1 SWAP2 DIV MUL PUSH1 0x20 ADD PUSH1 0x40 MLOAD SWAP1 DUP2 ADD PUSH1 0x40 MSTORE DUP1 SWAP3 SWAP2 SWAP1 DUP2 DUP2 MSTORE PUSH1 0x20 ADD DUP3 DUP1 SLOAD PUSH2 0x1D4 SWAP1 PUSH2 0x1055 JUMP JUMPDEST DUP1 ISZERO PUSH2 0x21F JUMPI DUP1 PUSH1 0x1F LT PUSH2 0x1F6 JUMPI PUSH2 0x100 DUP1 DUP4 SLOAD DIV MUL DUP4 MSTORE SWAP2 PUSH1 0x20 ADD SWAP2 PUSH2 0x21F JUMP JUMPDEST DUP3 ADD SWAP2 SWAP1 PUSH0 MSTORE PUSH1 0x20 PUSH0 KECCAK256 SWAP1 JUMPDEST DUP2 SLOAD DUP2 MSTORE SWAP1 PUSH1 0x1 ADD SWAP1 PUSH1 0x20 ADD DUP1 DUP4 GT PUSH2 0x202 JUMPI DUP3 SWAP1 SUB PUSH1 0x1F AND DUP3 ADD SWAP2 JUMPDEST POP POP POP POP POP DUP2 MSTORE PUSH1 0x20 ADD PUSH1 0x2 DUP3 ADD PUSH0 SWAP1 SLOAD SWAP1 PUSH2 0x100 EXP SWAP1 DIV PUSH20 0xFFFFFFFFFFFFFFFFFFFFFFFFFFFFFFFFFFFFFFFF AND PUSH20 0xFFFFFFFFFFFFFFFFFFFFFFFFFFFFFFFFFFFFFFFF AND PUSH20 0xFFFFFFFFFFFFFFFFFFFFFFFFFFFFFFFFFFFFFFFF AND DUP2 MSTORE PUSH1 0x20 ADD PUSH1 0x3 DUP3 ADD SLOAD DUP2 MSTORE POP POP DUP2 MSTORE PUSH1 0x20 ADD SWAP1 PUSH1 0x1 ADD SWAP1 PUSH2 0x16E JUMP JUMPDEST POP POP POP POP SWAP1 POP SWAP1 JUMP JUMPDEST PUSH2 0x2A7 PUSH2 0xA74 JUMP JUMPDEST PUSH1 0x5 PUSH0 DUP4 PUSH20 0xFFFFFFFFFFFFFFFFFFFFFFFFFFFFFFFFFFFFFFFF AND PUSH20 0xFFFFFFFFFFFFFFFFFFFFFFFFFFFFFFFFFFFFFFFF AND DUP2 MSTORE PUSH1 0x20 ADD SWAP1 DUP2 MSTORE PUSH1 0x20 ADD PUSH0 KECCAK256 PUSH0 SWAP1 SLOAD SWAP1 PUSH2 0x100 EXP SWAP1 DIV PUSH1 0xFF AND PUSH2 0x330 JUMPI PUSH1 0x40 MLOAD PUSH32 0x8C379A000000000000000000000000000000000000000000000000000000000 DUP2 MSTORE PUSH1 0x4 ADD PUSH2 0x327 SWAP1 PUSH2 0x10DF JUMP JUMPDEST PUSH1 0x40 MLOAD DUP1 SWAP2 SUB SWAP1 REVERT JUMPDEST PUSH0 PUSH1 0x4 PUSH0 DUP5 PUSH20 0xFFFFFFFFFFFFFFFFFFFFFFFFFFFFFFFFFFFFFFFF AND PUSH20 0xFFFFFFFFFFFFFFFFFFFFFFFFFFFFFFFFFFFFFFFF AND DUP2 MSTORE PUSH1 0x20 ADD SWAP1 DUP2 MSTORE PUSH1 0x20 ADD PUSH0 KECCAK256 SLOAD DUP2 SLOAD DUP2 LT PUSH2 0x380 JUMPI PUSH2 0x37F PUSH2 0x10FD JUMP JUMPDEST JUMPDEST SWAP1 PUSH0 MSTORE PUSH1 0x20 PUSH0 KECCAK256 SWAP1 PUSH1 0x4 MUL ADD PUSH1 0x40 MLOAD DUP1 PUSH1 0x80 ADD PUSH1 0x40 MSTORE SWAP1 DUP2 PUSH0 DUP3 ADD SLOAD DUP2 MSTORE PUSH1 0x20 ADD PUSH1 0x1 DUP3 ADD DUP1 SLOAD PUSH2 0x3B0 SWAP1 PUSH2 0x1055 JUMP JUMPDEST DUP1 PUSH1 0x1F ADD PUSH1 0x20 DUP1 SWAP2 DIV MUL PUSH1 0x20 ADD PUSH1 0x40 MLOAD SWAP1 DUP2 ADD PUSH1 0x40 MSTORE DUP1 SWAP3 SWAP2 SWAP1 DUP2 DUP2 MSTORE PUSH1 0x20 ADD DUP3 DUP1 SLOAD PUSH2 0x3DC SWAP1 PUSH2 0x1055 JUMP JUMPDEST DUP1 ISZERO PUSH2 0x427 JUMPI DUP1 PUSH1 0x1F LT PUSH2 0x3FE JUMPI PUSH2 0x100 DUP1 DUP4 SLOAD DIV MUL DUP4 MSTORE SWAP2 PUSH1 0x20 ADD SWAP2 PUSH2 0x427 JUMP JUMPDEST DUP3 ADD SWAP2 SWAP1 PUSH0 MSTORE PUSH1 0x20 PUSH0 KECCAK256 SWAP1 JUMPDEST DUP2 SLOAD DUP2 MSTORE SWAP1 PUSH1 0x1 ADD SWAP1 PUSH1 0x20 ADD DUP1 DUP4 GT PUSH2 0x40A JUMPI DUP3 SWAP1 SUB PUSH1 0x1F AND DUP3 ADD SWAP2 JUMPDEST POP POP POP POP POP DUP2 MSTORE PUSH1 0x20 ADD PUSH1 0x2 DUP3 ADD PUSH0 SWAP1 SLOAD SWAP1 PUSH2 0x100 EXP SWAP1 DIV PUSH20 0xFFFFFFFFFFFFFFFFFFFFFFFFFFFFFFFFFFFFFFFF AND PUSH20 0xFFFFFFFFFFFFFFFFFFFFFFFFFFFFFFFFFFFFFFFF AND PUSH20 0xFFFFFFFFFFFFFFFFFFFFFFFFFFFFFFFFFFFFFFFF AND DUP2 MSTORE PUSH1 0x20 ADD PUSH1 0x3 DUP3 ADD SLOAD DUP2 MSTORE POP POP SWAP1 POP SWAP2 SWAP1 POP JUMP JUMPDEST PUSH1 0x2 PUSH0 SWAP1 SLOAD SWAP1 PUSH2 0x100 EXP SWAP1 DIV PUSH20 0xFFFFFFFFFFFFFFFFFFFFFFFFFFFFFFFFFFFFFFFF AND DUP2 JUMP JUMPDEST PUSH1 0x5 PUSH0 DUP3 PUSH20 0xFFFFFFFFFFFFFFFFFFFFFFFFFFFFFFFFFFFFFFFF AND PUSH20 0xFFFFFFFFFFFFFFFFFFFFFFFFFFFFFFFFFFFFFFFF AND DUP2 MSTORE PUSH1 0x20 ADD SWAP1 DUP2 MSTORE PUSH1 0x20 ADD PUSH0 KECCAK256 PUSH0 SWAP1 SLOAD SWAP1 PUSH2 0x100 EXP SWAP1 DIV PUSH1 0xFF AND PUSH2 0x544 JUMPI PUSH1 0x40 MLOAD PUSH32 0x8C379A000000000000000000000000000000000000000000000000000000000 DUP2 MSTORE PUSH1 0x4 ADD PUSH2 0x53B SWAP1 PUSH2 0x10DF JUMP JUMPDEST PUSH1 0x40 MLOAD DUP1 SWAP2 SUB SWAP1 REVERT JUMPDEST PUSH0 PUSH1 0x4 PUSH0 DUP4 PUSH20 0xFFFFFFFFFFFFFFFFFFFFFFFFFFFFFFFFFFFFFFFF AND PUSH20 0xFFFFFFFFFFFFFFFFFFFFFFFFFFFFFFFFFFFFFFFF AND DUP2 MSTORE PUSH1 0x20 ADD SWAP1 DUP2 MSTORE PUSH1 0x20 ADD PUSH0 KECCAK256 SLOAD SWAP1 POP PUSH0 PUSH1 0x2 PUSH0 SWAP1 SLOAD SWAP1 PUSH2 0x100 EXP SWAP1 DIV PUSH20 0xFFFFFFFFFFFFFFFFFFFFFFFFFFFFFFFFFFFFFFFF AND PUSH20 0xFFFFFFFFFFFFFFFFFFFFFFFFFFFFFFFFFFFFFFFF AND PUSH4 0xC2EA6519 DUP5 PUSH1 0x40 MLOAD DUP3 PUSH4 0xFFFFFFFF AND PUSH1 0xE0 SHL DUP2 MSTORE PUSH1 0x4 ADD PUSH2 0x5E0 SWAP2 SWAP1 PUSH2 0x1139 JUMP JUMPDEST PUSH1 0x20 PUSH1 0x40 MLOAD DUP1 DUP4 SUB DUP2 DUP7 GAS STATICCALL ISZERO DUP1 ISZERO PUSH2 0x5FB JUMPI RETURNDATASIZE PUSH0 DUP1 RETURNDATACOPY RETURNDATASIZE PUSH0 REVERT JUMPDEST POP POP POP POP PUSH1 0x40 MLOAD RETURNDATASIZE PUSH1 0x1F NOT PUSH1 0x1F DUP3 ADD AND DUP3 ADD DUP1 PUSH1 0x40 MSTORE POP DUP2 ADD SWAP1 PUSH2 0x61F SWAP2 SWAP1 PUSH2 0x1166 JUMP JUMPDEST SWAP1 POP DUP1 PUSH0 DUP4 DUP2 SLOAD DUP2 LT PUSH2 0x635 JUMPI PUSH2 0x634 PUSH2 0x10FD JUMP JUMPDEST JUMPDEST SWAP1 PUSH0 MSTORE PUSH1 0x20 PUSH0 KECCAK256 SWAP1 PUSH1 0x4 MUL ADD PUSH1 0x3 ADD DUP2 SWAP1 SSTORE POP DUP3 PUSH20 0xFFFFFFFFFFFFFFFFFFFFFFFFFFFFFFFFFFFFFFFF AND PUSH32 0xD7C8E3F1CF0CDE9378530E35AC4F45BBF534B0658C24DD4E1B56B6099959EEE3 DUP3 PUSH1 0x40 MLOAD PUSH2 0x68E SWAP2 SWAP1 PUSH2 0x100F JUMP JUMPDEST PUSH1 0x40 MLOAD DUP1 SWAP2 SUB SWAP1 LOG2 POP POP POP JUMP JUMPDEST PUSH2 0x6A3 PUSH2 0xA74 JUMP JUMPDEST PUSH0 PUSH1 0x3 PUSH0 DUP5 DUP2 MSTORE PUSH1 0x20 ADD SWAP1 DUP2 MSTORE PUSH1 0x20 ADD PUSH0 KECCAK256 SLOAD DUP2 SLOAD DUP2 LT PUSH2 0x6C7 JUMPI PUSH2 0x6C6 PUSH2 0x10FD JUMP JUMPDEST JUMPDEST SWAP1 PUSH0 MSTORE PUSH1 0x20 PUSH0 KECCAK256 SWAP1 PUSH1 0x4 MUL ADD PUSH1 0x40 MLOAD DUP1 PUSH1 0x80 ADD PUSH1 0x40 MSTORE SWAP1 DUP2 PUSH0 DUP3 ADD SLOAD DUP2 MSTORE PUSH1 0x20 ADD PUSH1 0x1 DUP3 ADD DUP1 SLOAD PUSH2 0x6F7 SWAP1 PUSH2 0x1055 JUMP JUMPDEST DUP1 PUSH1 0x1F ADD PUSH1 0x20 DUP1 SWAP2 DIV MUL PUSH1 0x20 ADD PUSH1 0x40 MLOAD SWAP1 DUP2 ADD PUSH1 0x40 MSTORE DUP1 SWAP3 SWAP2 SWAP1 DUP2 DUP2 MSTORE PUSH1 0x20 ADD DUP3 DUP1 SLOAD PUSH2 0x723 SWAP1 PUSH2 0x1055 JUMP JUMPDEST DUP1 ISZERO PUSH2 0x76E JUMPI DUP1 PUSH1 0x1F LT PUSH2 0x745 JUMPI PUSH2 0x100 DUP1 DUP4 SLOAD DIV MUL DUP4 MSTORE SWAP2 PUSH1 0x20 ADD SWAP2 PUSH2 0x76E JUMP JUMPDEST DUP3 ADD SWAP2 SWAP1 PUSH0 MSTORE PUSH1 0x20 PUSH0 KECCAK256 SWAP1 JUMPDEST DUP2 SLOAD DUP2 MSTORE SWAP1 PUSH1 0x1 ADD SWAP1 PUSH1 0x20 ADD DUP1 DUP4 GT PUSH2 0x751 JUMPI DUP3 SWAP1 SUB PUSH1 0x1F AND DUP3 ADD SWAP2 JUMPDEST POP POP POP POP POP DUP2 MSTORE PUSH1 0x20 ADD PUSH1 0x2 DUP3 ADD PUSH0 SWAP1 SLOAD SWAP1 PUSH2 0x100 EXP SWAP1 DIV PUSH20 0xFFFFFFFFFFFFFFFFFFFFFFFFFFFFFFFFFFFFFFFF AND PUSH20 0xFFFFFFFFFFFFFFFFFFFFFFFFFFFFFFFFFFFFFFFF AND PUSH20 0xFFFFFFFFFFFFFFFFFFFFFFFFFFFFFFFFFFFFFFFF AND DUP2 MSTORE PUSH1 0x20 ADD PUSH1 0x3 DUP3 ADD SLOAD DUP2 MSTORE POP POP SWAP1 POP SWAP2 SWAP1 POP JUMP JUMPDEST PUSH0 PUSH1 0x5 PUSH0 DUP5 PUSH20 0xFFFFFFFFFFFFFFFFFFFFFFFFFFFFFFFFFFFFFFFF AND PUSH20 0xFFFFFFFFFFFFFFFFFFFFFFFFFFFFFFFFFFFFFFFF AND DUP2 MSTORE PUSH1 0x20 ADD SWAP1 DUP2 MSTORE PUSH1 0x20 ADD PUSH0 KECCAK256 PUSH0 SWAP1 SLOAD SWAP1 PUSH2 0x100 EXP SWAP1 DIV PUSH1 0xFF AND ISZERO PUSH2 0x868 JUMPI PUSH1 0x40 MLOAD PUSH32 0x8C379A000000000000000000000000000000000000000000000000000000000 DUP2 MSTORE PUSH1 0x4 ADD PUSH2 0x85F SWAP1 PUSH2 0x11DB JUMP JUMPDEST PUSH1 0x40 MLOAD DUP1 SWAP2 SUB SWAP1 REVERT JUMPDEST PUSH0 PUSH1 0x1 PUSH0 DUP2 SLOAD DUP1 SWAP3 SWAP2 SWAP1 PUSH2 0x87B SWAP1 PUSH2 0x1226 JUMP JUMPDEST SWAP2 SWAP1 POP SSTORE SWAP1 POP PUSH0 PUSH1 0x40 MLOAD DUP1 PUSH1 0x80 ADD PUSH1 0x40 MSTORE DUP1 DUP4 DUP2 MSTORE PUSH1 0x20 ADD DUP6 DUP2 MSTORE PUSH1 0x20 ADD DUP7 PUSH20 0xFFFFFFFFFFFFFFFFFFFFFFFFFFFFFFFFFFFFFFFF AND DUP2 MSTORE PUSH1 0x20 ADD PUSH0 DUP2 MSTORE POP SWAP1 POP PUSH0 DUP2 SWAP1 DUP1 PUSH1 0x1 DUP2 SLOAD ADD DUP1 DUP3 SSTORE DUP1 SWAP2 POP POP PUSH1 0x1 SWAP1 SUB SWAP1 PUSH0 MSTORE PUSH1 0x20 PUSH0 KECCAK256 SWAP1 PUSH1 0x4 MUL ADD PUSH0 SWAP1 SWAP2 SWAP1 SWAP2 SWAP1 SWAP2 POP PUSH0 DUP3 ADD MLOAD DUP2 PUSH0 ADD SSTORE PUSH1 0x20 DUP3 ADD MLOAD DUP2 PUSH1 0x1 ADD SWAP1 DUP2 PUSH2 0x900 SWAP2 SWAP1 PUSH2 0x1401 JUMP JUMPDEST POP PUSH1 0x40 DUP3 ADD MLOAD DUP2 PUSH1 0x2 ADD PUSH0 PUSH2 0x100 EXP DUP2 SLOAD DUP2 PUSH20 0xFFFFFFFFFFFFFFFFFFFFFFFFFFFFFFFFFFFFFFFF MUL NOT AND SWAP1 DUP4 PUSH20 0xFFFFFFFFFFFFFFFFFFFFFFFFFFFFFFFFFFFFFFFF AND MUL OR SWAP1 SSTORE POP PUSH1 0x60 DUP3 ADD MLOAD DUP2 PUSH1 0x3 ADD SSTORE POP POP PUSH0 PUSH1 0x1 PUSH0 DUP1 SLOAD SWAP1 POP PUSH2 0x965 SWAP2 SWAP1 PUSH2 0x14D0 JUMP JUMPDEST SWAP1 POP DUP1 PUSH1 0x3 PUSH0 DUP6 DUP2 MSTORE PUSH1 0x20 ADD SWAP1 DUP2 MSTORE PUSH1 0x20 ADD PUSH0 KECCAK256 DUP2 SWAP1 SSTORE POP DUP1 PUSH1 0x4 PUSH0 DUP9 PUSH20 0xFFFFFFFFFFFFFFFFFFFFFFFFFFFFFFFFFFFFFFFF AND PUSH20 0xFFFFFFFFFFFFFFFFFFFFFFFFFFFFFFFFFFFFFFFF AND DUP2 MSTORE PUSH1 0x20 ADD SWAP1 DUP2 MSTORE PUSH1 0x20 ADD PUSH0 KECCAK256 DUP2 SWAP1 SSTORE POP PUSH1 0x1 PUSH1 0x5 PUSH0 DUP9 PUSH20 0xFFFFFFFFFFFFFFFFFFFFFFFFFFFFFFFFFFFFFFFF AND PUSH20 0xFFFFFFFFFFFFFFFFFFFFFFFFFFFFFFFFFFFFFFFF AND DUP2 MSTORE PUSH1 0x20 ADD SWAP1 DUP2 MSTORE PUSH1 0x20 ADD PUSH0 KECCAK256 PUSH0 PUSH2 0x100 EXP DUP2 SLOAD DUP2 PUSH1 0xFF MUL NOT AND SWAP1 DUP4 ISZERO ISZERO MUL OR SWAP1 SSTORE POP PUSH0 PUSH1 0x6 PUSH0 DUP9 PUSH20 0xFFFFFFFFFFFFFFFFFFFFFFFFFFFFFFFFFFFFFFFF AND PUSH20 0xFFFFFFFFFFFFFFFFFFFFFFFFFFFFFFFFFFFFFFFF AND DUP2 MSTORE PUSH1 0x20 ADD SWAP1 DUP2 MSTORE PUSH1 0x20 ADD PUSH0 KECCAK256 PUSH0 PUSH2 0x100 EXP DUP2 SLOAD DUP2 PUSH1 0xFF MUL NOT AND SWAP1 DUP4 ISZERO ISZERO MUL OR SWAP1 SSTORE POP DUP3 SWAP4 POP POP POP POP SWAP3 SWAP2 POP POP JUMP JUMPDEST PUSH1 0x40 MLOAD DUP1 PUSH1 0x80 ADD PUSH1 0x40 MSTORE DUP1 PUSH0 DUP2 MSTORE PUSH1 0x20 ADD PUSH1 0x60 DUP2 MSTORE PUSH1 0x20 ADD PUSH0 PUSH20 0xFFFFFFFFFFFFFFFFFFFFFFFFFFFFFFFFFFFFFFFF AND DUP2 MSTORE PUSH1 0x20 ADD PUSH0 DUP2 MSTORE POP SWAP1 JUMP JUMPDEST PUSH0 DUP2 MLOAD SWAP1 POP SWAP2 SWAP1 POP JUMP JUMPDEST PUSH0 DUP3 DUP3 MSTORE PUSH1 0x20 DUP3 ADD SWAP1 POP SWAP3 SWAP2 POP POP JUMP JUMPDEST PUSH0 DUP2 SWAP1 POP PUSH1 0x20 DUP3 ADD SWAP1 POP SWAP2 SWAP1 POP JUMP JUMPDEST PUSH0 DUP2 SWAP1 POP SWAP2 SWAP1 POP JUMP JUMPDEST PUSH2 0xAEA DUP2 PUSH2 0xAD8 JUMP JUMPDEST DUP3 MSTORE POP POP JUMP JUMPDEST PUSH0 DUP2 MLOAD SWAP1 POP SWAP2 SWAP1 POP JUMP JUMPDEST PUSH0 DUP3 DUP3 MSTORE PUSH1 0x20 DUP3 ADD SWAP1 POP SWAP3 SWAP2 POP POP JUMP JUMPDEST PUSH0 JUMPDEST DUP4 DUP2 LT ISZERO PUSH2 0xB27 JUMPI DUP1 DUP3 ADD MLOAD DUP2 DUP5 ADD MSTORE PUSH1 0x20 DUP2 ADD SWAP1 POP PUSH2 0xB0C JUMP JUMPDEST PUSH0 DUP5 DUP5 ADD MSTORE POP POP POP POP JUMP JUMPDEST PUSH0 PUSH1 0x1F NOT PUSH1 0x1F DUP4 ADD AND SWAP1 POP SWAP2 SWAP1 POP JUMP JUMPDEST PUSH0 PUSH2 0xB4C DUP3 PUSH2 0xAF0 JUMP JUMPDEST PUSH2 0xB56 DUP2 DUP6 PUSH2 0xAFA JUMP JUMPDEST SWAP4 POP PUSH2 0xB66 DUP2 DUP6 PUSH1 0x20 DUP7 ADD PUSH2 0xB0A JUMP JUMPDEST PUSH2 0xB6F DUP2 PUSH2 0xB32 JUMP JUMPDEST DUP5 ADD SWAP2 POP POP SWAP3 SWAP2 POP POP JUMP JUMPDEST PUSH0 PUSH20 0xFFFFFFFFFFFFFFFFFFFFFFFFFFFFFFFFFFFFFFFF DUP3 AND SWAP1 POP SWAP2 SWAP1 POP JUMP JUMPDEST PUSH0 PUSH2 0xBA3 DUP3 PUSH2 0xB7A JUMP JUMPDEST SWAP1 POP SWAP2 SWAP1 POP JUMP JUMPDEST PUSH2 0xBB3 DUP2 PUSH2 0xB99 JUMP JUMPDEST DUP3 MSTORE POP POP JUMP JUMPDEST PUSH0 PUSH1 0x80 DUP4 ADD PUSH0 DUP4 ADD MLOAD PUSH2 0xBCE PUSH0 DUP7 ADD DUP3 PUSH2 0xAE1 JUMP JUMPDEST POP PUSH1 0x20 DUP4 ADD MLOAD DUP5 DUP3 SUB PUSH1 0x20 DUP7 ADD MSTORE PUSH2 0xBE6 DUP3 DUP3 PUSH2 0xB42 JUMP JUMPDEST SWAP2 POP POP PUSH1 0x40 DUP4 ADD MLOAD PUSH2 0xBFB PUSH1 0x40 DUP7 ADD DUP3 PUSH2 0xBAA JUMP JUMPDEST POP PUSH1 0x60 DUP4 ADD MLOAD PUSH2 0xC0E PUSH1 0x60 DUP7 ADD DUP3 PUSH2 0xAE1 JUMP JUMPDEST POP DUP1 SWAP2 POP POP SWAP3 SWAP2 POP POP JUMP JUMPDEST PUSH0 PUSH2 0xC24 DUP4 DUP4 PUSH2 0xBB9 JUMP JUMPDEST SWAP1 POP SWAP3 SWAP2 POP POP JUMP JUMPDEST PUSH0 PUSH1 0x20 DUP3 ADD SWAP1 POP SWAP2 SWAP1 POP JUMP JUMPDEST PUSH0 PUSH2 0xC42 DUP3 PUSH2 0xAAF JUMP JUMPDEST PUSH2 0xC4C DUP2 DUP6 PUSH2 0xAB9 JUMP JUMPDEST SWAP4 POP DUP4 PUSH1 0x20 DUP3 MUL DUP6 ADD PUSH2 0xC5E DUP6 PUSH2 0xAC9 JUMP JUMPDEST DUP1 PUSH0 JUMPDEST DUP6 DUP2 LT ISZERO PUSH2 0xC99 JUMPI DUP5 DUP5 SUB DUP10 MSTORE DUP2 MLOAD PUSH2 0xC7A DUP6 DUP3 PUSH2 0xC19 JUMP JUMPDEST SWAP5 POP PUSH2 0xC85 DUP4 PUSH2 0xC2C JUMP JUMPDEST SWAP3 POP PUSH1 0x20 DUP11 ADD SWAP10 POP POP PUSH1 0x1 DUP2 ADD SWAP1 POP PUSH2 0xC61 JUMP JUMPDEST POP DUP3 SWAP8 POP DUP8 SWAP6 POP POP POP POP POP POP SWAP3 SWAP2 POP POP JUMP JUMPDEST PUSH0 PUSH1 0x20 DUP3 ADD SWAP1 POP DUP2 DUP2 SUB PUSH0 DUP4 ADD MSTORE PUSH2 0xCC3 DUP2 DUP5 PUSH2 0xC38 JUMP JUMPDEST SWAP1 POP SWAP3 SWAP2 POP POP JUMP JUMPDEST PUSH0 PUSH1 0x40 MLOAD SWAP1 POP SWAP1 JUMP JUMPDEST PUSH0 DUP1 REVERT JUMPDEST PUSH0 DUP1 REVERT JUMPDEST PUSH2 0xCE5 DUP2 PUSH2 0xB99 JUMP JUMPDEST DUP2 EQ PUSH2 0xCEF JUMPI PUSH0 DUP1 REVERT JUMPDEST POP JUMP JUMPDEST PUSH0 DUP2 CALLDATALOAD SWAP1 POP PUSH2 0xD00 DUP2 PUSH2 0xCDC JUMP JUMPDEST SWAP3 SWAP2 POP POP JUMP JUMPDEST PUSH0 PUSH1 0x20 DUP3 DUP5 SUB SLT ISZERO PUSH2 0xD1B JUMPI PUSH2 0xD1A PUSH2 0xCD4 JUMP JUMPDEST JUMPDEST PUSH0 PUSH2 0xD28 DUP5 DUP3 DUP6 ADD PUSH2 0xCF2 JUMP JUMPDEST SWAP2 POP POP SWAP3 SWAP2 POP POP JUMP JUMPDEST PUSH0 PUSH1 0x80 DUP4 ADD PUSH0 DUP4 ADD MLOAD PUSH2 0xD46 PUSH0 DUP7 ADD DUP3 PUSH2 0xAE1 JUMP JUMPDEST POP PUSH1 0x20 DUP4 ADD MLOAD DUP5 DUP3 SUB PUSH1 0x20 DUP7 ADD MSTORE PUSH2 0xD5E DUP3 DUP3 PUSH2 0xB42 JUMP JUMPDEST SWAP2 POP POP PUSH1 0x40 DUP4 ADD MLOAD PUSH2 0xD73 PUSH1 0x40 DUP7 ADD DUP3 PUSH2 0xBAA JUMP JUMPDEST POP PUSH1 0x60 DUP4 ADD MLOAD PUSH2 0xD86 PUSH1 0x60 DUP7 ADD DUP3 PUSH2 0xAE1 JUMP JUMPDEST POP DUP1 SWAP2 POP POP SWAP3 SWAP2 POP POP JUMP JUMPDEST PUSH0 PUSH1 0x20 DUP3 ADD SWAP1 POP DUP2 DUP2 SUB PUSH0 DUP4 ADD MSTORE PUSH2 0xDA9 DUP2 DUP5 PUSH2 0xD31 JUMP JUMPDEST SWAP1 POP SWAP3 SWAP2 POP POP JUMP JUMPDEST PUSH0 DUP2 SWAP1 POP SWAP2 SWAP1 POP JUMP JUMPDEST PUSH0 PUSH2 0xDD4 PUSH2 0xDCF PUSH2 0xDCA DUP5 PUSH2 0xB7A JUMP JUMPDEST PUSH2 0xDB1 JUMP JUMPDEST PUSH2 0xB7A JUMP JUMPDEST SWAP1 POP SWAP2 SWAP1 POP JUMP JUMPDEST PUSH0 PUSH2 0xDE5 DUP3 PUSH2 0xDBA JUMP JUMPDEST SWAP1 POP SWAP2 SWAP1 POP JUMP JUMPDEST PUSH0 PUSH2 0xDF6 DUP3 PUSH2 0xDDB JUMP JUMPDEST SWAP1 POP SWAP2 SWAP1 POP JUMP JUMPDEST PUSH2 0xE06 DUP2 PUSH2 0xDEC JUMP JUMPDEST DUP3 MSTORE POP POP JUMP JUMPDEST PUSH0 PUSH1 0x20 DUP3 ADD SWAP1 POP PUSH2 0xE1F PUSH0 DUP4 ADD DUP5 PUSH2 0xDFD JUMP JUMPDEST SWAP3 SWAP2 POP POP JUMP JUMPDEST PUSH2 0xE2E DUP2 PUSH2 0xAD8 JUMP JUMPDEST DUP2 EQ PUSH2 0xE38 JUMPI PUSH0 DUP1 REVERT JUMPDEST POP JUMP JUMPDEST PUSH0 DUP2 CALLDATALOAD SWAP1 POP PUSH2 0xE49 DUP2 PUSH2 0xE25 JUMP JUMPDEST SWAP3 SWAP2 POP POP JUMP JUMPDEST PUSH0 PUSH1 0x20 DUP3 DUP5 SUB SLT ISZERO PUSH2 0xE64 JUMPI PUSH2 0xE63 PUSH2 0xCD4 JUMP JUMPDEST JUMPDEST PUSH0 PUSH2 0xE71 DUP5 DUP3 DUP6 ADD PUSH2 0xE3B JUMP JUMPDEST SWAP2 POP POP SWAP3 SWAP2 POP POP JUMP JUMPDEST PUSH0 DUP1 REVERT JUMPDEST PUSH0 DUP1 REVERT JUMPDEST PUSH32 0x4E487B7100000000000000000000000000000000000000000000000000000000 PUSH0 MSTORE PUSH1 0x41 PUSH1 0x4 MSTORE PUSH1 0x24 PUSH0 REVERT JUMPDEST PUSH2 0xEB8 DUP3 PUSH2 0xB32 JUMP JUMPDEST DUP2 ADD DUP2 DUP2 LT PUSH8 0xFFFFFFFFFFFFFFFF DUP3 GT OR ISZERO PUSH2 0xED7 JUMPI PUSH2 0xED6 PUSH2 0xE82 JUMP JUMPDEST JUMPDEST DUP1 PUSH1 0x40 MSTORE POP POP POP JUMP JUMPDEST PUSH0 PUSH2 0xEE9 PUSH2 0xCCB JUMP JUMPDEST SWAP1 POP PUSH2 0xEF5 DUP3 DUP3 PUSH2 0xEAF JUMP JUMPDEST SWAP2 SWAP1 POP JUMP JUMPDEST PUSH0 PUSH8 0xFFFFFFFFFFFFFFFF DUP3 GT ISZERO PUSH2 0xF14 JUMPI PUSH2 0xF13 PUSH2 0xE82 JUMP JUMPDEST JUMPDEST PUSH2 0xF1D DUP3 PUSH2 0xB32 JUMP JUMPDEST SWAP1 POP PUSH1 0x20 DUP2 ADD SWAP1 POP SWAP2 SWAP1 POP JUMP JUMPDEST DUP3 DUP2 DUP4 CALLDATACOPY PUSH0 DUP4 DUP4 ADD MSTORE POP POP POP JUMP JUMPDEST PUSH0 PUSH2 0xF4A PUSH2 0xF45 DUP5 PUSH2 0xEFA JUMP JUMPDEST PUSH2 0xEE0 JUMP JUMPDEST SWAP1 POP DUP3 DUP2 MSTORE PUSH1 0x20 DUP2 ADD DUP5 DUP5 DUP5 ADD GT ISZERO PUSH2 0xF66 JUMPI PUSH2 0xF65 PUSH2 0xE7E JUMP JUMPDEST JUMPDEST PUSH2 0xF71 DUP5 DUP3 DUP6 PUSH2 0xF2A JUMP JUMPDEST POP SWAP4 SWAP3 POP POP POP JUMP JUMPDEST PUSH0 DUP3 PUSH1 0x1F DUP4 ADD SLT PUSH2 0xF8D JUMPI PUSH2 0xF8C PUSH2 0xE7A JUMP JUMPDEST JUMPDEST DUP2 CALLDATALOAD PUSH2 0xF9D DUP5 DUP3 PUSH1 0x20 DUP7 ADD PUSH2 0xF38 JUMP JUMPDEST SWAP2 POP POP SWAP3 SWAP2 POP POP JUMP JUMPDEST PUSH0 DUP1 PUSH1 0x40 DUP4 DUP6 SUB SLT ISZERO PUSH2 0xFBC JUMPI PUSH2 0xFBB PUSH2 0xCD4 JUMP JUMPDEST JUMPDEST PUSH0 PUSH2 0xFC9 DUP6 DUP3 DUP7 ADD PUSH2 0xCF2 JUMP JUMPDEST SWAP3 POP POP PUSH1 0x20 DUP4 ADD CALLDATALOAD PUSH8 0xFFFFFFFFFFFFFFFF DUP2 GT ISZERO PUSH2 0xFEA JUMPI PUSH2 0xFE9 PUSH2 0xCD8 JUMP JUMPDEST JUMPDEST PUSH2 0xFF6 DUP6 DUP3 DUP7 ADD PUSH2 0xF79 JUMP JUMPDEST SWAP2 POP POP SWAP3 POP SWAP3 SWAP1 POP JUMP JUMPDEST PUSH2 0x1009 DUP2 PUSH2 0xAD8 JUMP JUMPDEST DUP3 MSTORE POP POP JUMP JUMPDEST PUSH0 PUSH1 0x20 DUP3 ADD SWAP1 POP PUSH2 0x1022 PUSH0 DUP4 ADD DUP5 PUSH2 0x1000 JUMP JUMPDEST SWAP3 SWAP2 POP POP JUMP JUMPDEST PUSH32 0x4E487B7100000000000000000000000000000000000000000000000000000000 PUSH0 MSTORE PUSH1 0x22 PUSH1 0x4 MSTORE PUSH1 0x24 PUSH0 REVERT JUMPDEST PUSH0 PUSH1 0x2 DUP3 DIV SWAP1 POP PUSH1 0x1 DUP3 AND DUP1 PUSH2 0x106C JUMPI PUSH1 0x7F DUP3 AND SWAP2 POP JUMPDEST PUSH1 0x20 DUP3 LT DUP2 SUB PUSH2 0x107F JUMPI PUSH2 0x107E PUSH2 0x1028 JUMP JUMPDEST JUMPDEST POP SWAP2 SWAP1 POP JUMP JUMPDEST PUSH0 DUP3 DUP3 MSTORE PUSH1 0x20 DUP3 ADD SWAP1 POP SWAP3 SWAP2 POP POP JUMP JUMPDEST PUSH32 0x436F6E7472616374204164647265737320646F6573206E6F7420657869737400 PUSH0 DUP3 ADD MSTORE POP JUMP JUMPDEST PUSH0 PUSH2 0x10C9 PUSH1 0x1F DUP4 PUSH2 0x1085 JUMP JUMPDEST SWAP2 POP PUSH2 0x10D4 DUP3 PUSH2 0x1095 JUMP JUMPDEST PUSH1 0x20 DUP3 ADD SWAP1 POP SWAP2 SWAP1 POP JUMP JUMPDEST PUSH0 PUSH1 0x20 DUP3 ADD SWAP1 POP DUP2 DUP2 SUB PUSH0 DUP4 ADD MSTORE PUSH2 0x10F6 DUP2 PUSH2 0x10BD JUMP JUMPDEST SWAP1 POP SWAP2 SWAP1 POP JUMP JUMPDEST PUSH32 0x4E487B7100000000000000000000000000000000000000000000000000000000 PUSH0 MSTORE PUSH1 0x32 PUSH1 0x4 MSTORE PUSH1 0x24 PUSH0 REVERT JUMPDEST PUSH2 0x1133 DUP2 PUSH2 0xB99 JUMP JUMPDEST DUP3 MSTORE POP POP JUMP JUMPDEST PUSH0 PUSH1 0x20 DUP3 ADD SWAP1 POP PUSH2 0x114C PUSH0 DUP4 ADD DUP5 PUSH2 0x112A JUMP JUMPDEST SWAP3 SWAP2 POP POP JUMP JUMPDEST PUSH0 DUP2 MLOAD SWAP1 POP PUSH2 0x1160 DUP2 PUSH2 0xE25 JUMP JUMPDEST SWAP3 SWAP2 POP POP JUMP JUMPDEST PUSH0 PUSH1 0x20 DUP3 DUP5 SUB SLT ISZERO PUSH2 0x117B JUMPI PUSH2 0x117A PUSH2 0xCD4 JUMP JUMPDEST JUMPDEST PUSH0 PUSH2 0x1188 DUP5 DUP3 DUP6 ADD PUSH2 0x1152 JUMP JUMPDEST SWAP2 POP POP SWAP3 SWAP2 POP POP JUMP JUMPDEST PUSH32 0x436F6E7472616374204164647265737320616C72656164792065786973747300 PUSH0 DUP3 ADD MSTORE POP JUMP JUMPDEST PUSH0 PUSH2 0x11C5 PUSH1 0x1F DUP4 PUSH2 0x1085 JUMP JUMPDEST SWAP2 POP PUSH2 0x11D0 DUP3 PUSH2 0x1191 JUMP JUMPDEST PUSH1 0x20 DUP3 ADD SWAP1 POP SWAP2 SWAP1 POP JUMP JUMPDEST PUSH0 PUSH1 0x20 DUP3 ADD SWAP1 POP DUP2 DUP2 SUB PUSH0 DUP4 ADD MSTORE PUSH2 0x11F2 DUP2 PUSH2 0x11B9 JUMP JUMPDEST SWAP1 POP SWAP2 SWAP1 POP JUMP JUMPDEST PUSH32 0x4E487B7100000000000000000000000000000000000000000000000000000000 PUSH0 MSTORE PUSH1 0x11 PUSH1 0x4 MSTORE PUSH1 0x24 PUSH0 REVERT JUMPDEST PUSH0 PUSH2 0x1230 DUP3 PUSH2 0xAD8 JUMP JUMPDEST SWAP2 POP PUSH32 0xFFFFFFFFFFFFFFFFFFFFFFFFFFFFFFFFFFFFFFFFFFFFFFFFFFFFFFFFFFFFFFFF DUP3 SUB PUSH2 0x1262 JUMPI PUSH2 0x1261 PUSH2 0x11F9 JUMP JUMPDEST JUMPDEST PUSH1 0x1 DUP3 ADD SWAP1 POP SWAP2 SWAP1 POP JUMP JUMPDEST PUSH0 DUP2 SWAP1 POP DUP2 PUSH0 MSTORE PUSH1 0x20 PUSH0 KECCAK256 SWAP1 POP SWAP2 SWAP1 POP JUMP JUMPDEST PUSH0 PUSH1 0x20 PUSH1 0x1F DUP4 ADD DIV SWAP1 POP SWAP2 SWAP1 POP JUMP JUMPDEST PUSH0 DUP3 DUP3 SHL SWAP1 POP SWAP3 SWAP2 POP POP JUMP JUMPDEST PUSH0 PUSH1 0x8 DUP4 MUL PUSH2 0x12C9 PUSH32 0xFFFFFFFFFFFFFFFFFFFFFFFFFFFFFFFFFFFFFFFFFFFFFFFFFFFFFFFFFFFFFFFF DUP3 PUSH2 0x128E JUMP JUMPDEST PUSH2 0x12D3 DUP7 DUP4 PUSH2 0x128E JUMP JUMPDEST SWAP6 POP DUP1 NOT DUP5 AND SWAP4 POP DUP1 DUP7 AND DUP5 OR SWAP3 POP POP POP SWAP4 SWAP3 POP POP POP JUMP JUMPDEST PUSH0 PUSH2 0x1305 PUSH2 0x1300 PUSH2 0x12FB DUP5 PUSH2 0xAD8 JUMP JUMPDEST PUSH2 0xDB1 JUMP JUMPDEST PUSH2 0xAD8 JUMP JUMPDEST SWAP1 POP SWAP2 SWAP1 POP JUMP JUMPDEST PUSH0 DUP2 SWAP1 POP SWAP2 SWAP1 POP JUMP JUMPDEST PUSH2 0x131E DUP4 PUSH2 0x12EB JUMP JUMPDEST PUSH2 0x1332 PUSH2 0x132A DUP3 PUSH2 0x130C JUMP JUMPDEST DUP5 DUP5 SLOAD PUSH2 0x129A JUMP JUMPDEST DUP3 SSTORE POP POP POP POP JUMP JUMPDEST PUSH0 SWAP1 JUMP JUMPDEST PUSH2 0x1346 PUSH2 0x133A JUMP JUMPDEST PUSH2 0x1351 DUP2 DUP5 DUP5 PUSH2 0x1315 JUMP JUMPDEST POP POP POP JUMP JUMPDEST JUMPDEST DUP2 DUP2 LT ISZERO PUSH2 0x1374 JUMPI PUSH2 0x1369 PUSH0 DUP3 PUSH2 0x133E JUMP JUMPDEST PUSH1 0x1 DUP2 ADD SWAP1 POP PUSH2 0x1357 JUMP JUMPDEST POP POP JUMP JUMPDEST PUSH1 0x1F DUP3 GT ISZERO PUSH2 0x13B9 JUMPI PUSH2 0x138A DUP2 PUSH2 0x126D JUMP JUMPDEST PUSH2 0x1393 DUP5 PUSH2 0x127F JUMP JUMPDEST DUP2 ADD PUSH1 0x20 DUP6 LT ISZERO PUSH2 0x13A2 JUMPI DUP2 SWAP1 POP JUMPDEST PUSH2 0x13B6 PUSH2 0x13AE DUP6 PUSH2 0x127F JUMP JUMPDEST DUP4 ADD DUP3 PUSH2 0x1356 JUMP JUMPDEST POP POP JUMPDEST POP POP POP JUMP JUMPDEST PUSH0 DUP3 DUP3 SHR SWAP1 POP SWAP3 SWAP2 POP POP JUMP JUMPDEST PUSH0 PUSH2 0x13D9 PUSH0 NOT DUP5 PUSH1 0x8 MUL PUSH2 0x13BE JUMP JUMPDEST NOT DUP1 DUP4 AND SWAP2 POP POP SWAP3 SWAP2 POP POP JUMP JUMPDEST PUSH0 PUSH2 0x13F1 DUP4 DUP4 PUSH2 0x13CA JUMP JUMPDEST SWAP2 POP DUP3 PUSH1 0x2 MUL DUP3 OR SWAP1 POP SWAP3 SWAP2 POP POP JUMP JUMPDEST PUSH2 0x140A DUP3 PUSH2 0xAF0 JUMP JUMPDEST PUSH8 0xFFFFFFFFFFFFFFFF DUP2 GT ISZERO PUSH2 0x1423 JUMPI PUSH2 0x1422 PUSH2 0xE82 JUMP JUMPDEST JUMPDEST PUSH2 0x142D DUP3 SLOAD PUSH2 0x1055 JUMP JUMPDEST PUSH2 0x1438 DUP3 DUP3 DUP6 PUSH2 0x1378 JUMP JUMPDEST PUSH0 PUSH1 0x20 SWAP1 POP PUSH1 0x1F DUP4 GT PUSH1 0x1 DUP2 EQ PUSH2 0x1469 JUMPI PUSH0 DUP5 ISZERO PUSH2 0x1457 JUMPI DUP3 DUP8 ADD MLOAD SWAP1 POP JUMPDEST PUSH2 0x1461 DUP6 DUP3 PUSH2 0x13E6 JUMP JUMPDEST DUP7 SSTORE POP PUSH2 0x14C8 JUMP JUMPDEST PUSH1 0x1F NOT DUP5 AND PUSH2 0x1477 DUP7 PUSH2 0x126D JUMP JUMPDEST PUSH0 JUMPDEST DUP3 DUP2 LT ISZERO PUSH2 0x149E JUMPI DUP5 DUP10 ADD MLOAD DUP3 SSTORE PUSH1 0x1 DUP3 ADD SWAP2 POP PUSH1 0x20 DUP6 ADD SWAP5 POP PUSH1 0x20 DUP2 ADD SWAP1 POP PUSH2 0x1479 JUMP JUMPDEST DUP7 DUP4 LT ISZERO PUSH2 0x14BB JUMPI DUP5 DUP10 ADD MLOAD PUSH2 0x14B7 PUSH1 0x1F DUP10 AND DUP3 PUSH2 0x13CA JUMP JUMPDEST DUP4 SSTORE POP JUMPDEST PUSH1 0x1 PUSH1 0x2 DUP9 MUL ADD DUP9 SSTORE POP POP POP JUMPDEST POP POP POP POP POP POP JUMP JUMPDEST PUSH0 PUSH2 0x14DA DUP3 PUSH2 0xAD8 JUMP JUMPDEST SWAP2 POP PUSH2 0x14E5 DUP4 PUSH2 0xAD8 JUMP JUMPDEST SWAP3 POP DUP3 DUP3 SUB SWAP1 POP DUP2 DUP2 GT ISZERO PUSH2 0x14FD JUMPI PUSH2 0x14FC PUSH2 0x11F9 JUMP JUMPDEST JUMPDEST SWAP3 SWAP2 POP POP JUMP INVALID LOG2 PUSH5 0x6970667358 0x22 SLT KECCAK256 0xDB PUSH23 0xFA22F18EC1D742E190B11E9F9BC20772BBD83D27952841 PUSH6 0x4B00A4C77CF5 PUSH5 0x736F6C6343 STOP ADDMOD OR STOP CALLER "
				},
				"gasEstimates": {
					"creation": {
						"codeDepositCost": "1086600",
						"executionCost": "infinite",
						"totalCost": "infinite"
					},
					"external": {
						"getAllContracts()": "infinite",
						"getAssetByContractAddress(address)": "infinite",
						"getContractByContractId(uint256)": "infinite",
						"listContract(address,string)": "infinite",
						"oracle()": "infinite",
						"updateValuation(address)": "infinite"
					}
				},
				"methodIdentifiers": {
					"getAllContracts()": "18d3ce96",
					"getAssetByContractAddress(address)": "5d9c610c",
					"getContractByContractId(uint256)": "e385e261",
					"listContract(address,string)": "e803abaa",
					"oracle()": "7dc0d1d0",
					"updateValuation(address)": "dcdb65b3"
				}
			},
			"storageLayout": {
				"storage": [
					{
						"astId": 22,
						"contract": "contracts/aquo/AquoContractListv4.sol:ContractList",
						"label": "contracts",
						"offset": 0,
						"slot": "0",
						"type": "t_array(t_struct(Contract)18_storage)dyn_storage"
					},
					{
						"astId": 25,
						"contract": "contracts/aquo/AquoContractListv4.sol:ContractList",
						"label": "nextContractId",
						"offset": 0,
						"slot": "1",
						"type": "t_uint256"
					},
					{
						"astId": 28,
						"contract": "contracts/aquo/AquoContractListv4.sol:ContractList",
						"label": "oracle",
						"offset": 0,
						"slot": "2",
						"type": "t_contract(IOracle)9"
					},
					{
						"astId": 44,
						"contract": "contracts/aquo/AquoContractListv4.sol:ContractList",
						"label": "contractIdToIndex",
						"offset": 0,
						"slot": "3",
						"type": "t_mapping(t_uint256,t_uint256)"
					},
					{
						"astId": 48,
						"contract": "contracts/aquo/AquoContractListv4.sol:ContractList",
						"label": "contractAddressToIndex",
						"offset": 0,
						"slot": "4",
						"type": "t_mapping(t_address,t_uint256)"
					},
					{
						"astId": 52,
						"contract": "contracts/aquo/AquoContractListv4.sol:ContractList",
						"label": "contractAddressExists",
						"offset": 0,
						"slot": "5",
						"type": "t_mapping(t_address,t_bool)"
					},
					{
						"astId": 56,
						"contract": "contracts/aquo/AquoContractListv4.sol:ContractList",
						"label": "unallocatedContracts",
						"offset": 0,
						"slot": "6",
						"type": "t_mapping(t_address,t_bool)"
					}
				],
				"types": {
					"t_address": {
						"encoding": "inplace",
						"label": "address",
						"numberOfBytes": "20"
					},
					"t_array(t_struct(Contract)18_storage)dyn_storage": {
						"base": "t_struct(Contract)18_storage",
						"encoding": "dynamic_array",
						"label": "struct ContractList.Contract[]",
						"numberOfBytes": "32"
					},
					"t_bool": {
						"encoding": "inplace",
						"label": "bool",
						"numberOfBytes": "1"
					},
					"t_contract(IOracle)9": {
						"encoding": "inplace",
						"label": "contract IOracle",
						"numberOfBytes": "20"
					},
					"t_mapping(t_address,t_bool)": {
						"encoding": "mapping",
						"key": "t_address",
						"label": "mapping(address => bool)",
						"numberOfBytes": "32",
						"value": "t_bool"
					},
					"t_mapping(t_address,t_uint256)": {
						"encoding": "mapping",
						"key": "t_address",
						"label": "mapping(address => uint256)",
						"numberOfBytes": "32",
						"value": "t_uint256"
					},
					"t_mapping(t_uint256,t_uint256)": {
						"encoding": "mapping",
						"key": "t_uint256",
						"label": "mapping(uint256 => uint256)",
						"numberOfBytes": "32",
						"value": "t_uint256"
					},
					"t_string_storage": {
						"encoding": "bytes",
						"label": "string",
						"numberOfBytes": "32"
					},
					"t_struct(Contract)18_storage": {
						"encoding": "inplace",
						"label": "struct ContractList.Contract",
						"members": [
							{
								"astId": 11,
								"contract": "contracts/aquo/AquoContractListv4.sol:ContractList",
								"label": "contractId",
								"offset": 0,
								"slot": "0",
								"type": "t_uint256"
							},
							{
								"astId": 13,
								"contract": "contracts/aquo/AquoContractListv4.sol:ContractList",
								"label": "ipfsAddress",
								"offset": 0,
								"slot": "1",
								"type": "t_string_storage"
							},
							{
								"astId": 15,
								"contract": "contracts/aquo/AquoContractListv4.sol:ContractList",
								"label": "contractAddress",
								"offset": 0,
								"slot": "2",
								"type": "t_address"
							},
							{
								"astId": 17,
								"contract": "contracts/aquo/AquoContractListv4.sol:ContractList",
								"label": "valuation",
								"offset": 0,
								"slot": "3",
								"type": "t_uint256"
							}
						],
						"numberOfBytes": "128"
					},
					"t_uint256": {
						"encoding": "inplace",
						"label": "uint256",
						"numberOfBytes": "32"
					}
				}
			},
			"userdoc": {
				"kind": "user",
				"methods": {},
				"version": 1
			}
		}
	}
}