{
	"contracts/aquo/AquoLink.sol": {
		"LinkWellUint256ConsumerContractExample": {
			"abi": [
				{
					"inputs": [],
					"stateMutability": "nonpayable",
					"type": "constructor"
				},
				{
					"anonymous": false,
					"inputs": [
						{
							"indexed": true,
							"internalType": "bytes32",
							"name": "id",
							"type": "bytes32"
						}
					],
					"name": "ChainlinkCancelled",
					"type": "event"
				},
				{
					"anonymous": false,
					"inputs": [
						{
							"indexed": true,
							"internalType": "bytes32",
							"name": "id",
							"type": "bytes32"
						}
					],
					"name": "ChainlinkFulfilled",
					"type": "event"
				},
				{
					"anonymous": false,
					"inputs": [
						{
							"indexed": true,
							"internalType": "bytes32",
							"name": "id",
							"type": "bytes32"
						}
					],
					"name": "ChainlinkRequested",
					"type": "event"
				},
				{
					"anonymous": false,
					"inputs": [
						{
							"indexed": true,
							"internalType": "address",
							"name": "from",
							"type": "address"
						},
						{
							"indexed": true,
							"internalType": "address",
							"name": "to",
							"type": "address"
						}
					],
					"name": "OwnershipTransferRequested",
					"type": "event"
				},
				{
					"anonymous": false,
					"inputs": [
						{
							"indexed": true,
							"internalType": "address",
							"name": "from",
							"type": "address"
						},
						{
							"indexed": true,
							"internalType": "address",
							"name": "to",
							"type": "address"
						}
					],
					"name": "OwnershipTransferred",
					"type": "event"
				},
				{
					"anonymous": false,
					"inputs": [
						{
							"indexed": true,
							"internalType": "bytes32",
							"name": "requestId",
							"type": "bytes32"
						}
					],
					"name": "RequestFulfilled",
					"type": "event"
				},
				{
					"inputs": [],
					"name": "acceptOwnership",
					"outputs": [],
					"stateMutability": "nonpayable",
					"type": "function"
				},
				{
					"inputs": [
						{
							"internalType": "bytes32",
							"name": "requestId",
							"type": "bytes32"
						},
						{
							"internalType": "uint256",
							"name": "data",
							"type": "uint256"
						}
					],
					"name": "fulfill",
					"outputs": [],
					"stateMutability": "nonpayable",
					"type": "function"
				},
				{
					"inputs": [],
					"name": "getFeeInHundredthsOfLink",
					"outputs": [
						{
							"internalType": "uint256",
							"name": "",
							"type": "uint256"
						}
					],
					"stateMutability": "view",
					"type": "function"
				},
				{
					"inputs": [],
					"name": "getJobId",
					"outputs": [
						{
							"internalType": "string",
							"name": "",
							"type": "string"
						}
					],
					"stateMutability": "view",
					"type": "function"
				},
				{
					"inputs": [],
					"name": "getOracleAddress",
					"outputs": [
						{
							"internalType": "address",
							"name": "",
							"type": "address"
						}
					],
					"stateMutability": "view",
					"type": "function"
				},
				{
					"inputs": [],
					"name": "owner",
					"outputs": [
						{
							"internalType": "address",
							"name": "",
							"type": "address"
						}
					],
					"stateMutability": "view",
					"type": "function"
				},
				{
					"inputs": [],
					"name": "request",
					"outputs": [],
					"stateMutability": "nonpayable",
					"type": "function"
				},
				{
					"inputs": [],
					"name": "response",
					"outputs": [
						{
							"internalType": "uint256",
							"name": "",
							"type": "uint256"
						}
					],
					"stateMutability": "view",
					"type": "function"
				},
				{
					"inputs": [
						{
							"internalType": "uint256",
							"name": "_feeInHundredthsOfLink",
							"type": "uint256"
						}
					],
					"name": "setFeeInHundredthsOfLink",
					"outputs": [],
					"stateMutability": "nonpayable",
					"type": "function"
				},
				{
					"inputs": [
						{
							"internalType": "uint256",
							"name": "_feeInJuels",
							"type": "uint256"
						}
					],
					"name": "setFeeInJuels",
					"outputs": [],
					"stateMutability": "nonpayable",
					"type": "function"
				},
				{
					"inputs": [
						{
							"internalType": "string",
							"name": "_jobId",
							"type": "string"
						}
					],
					"name": "setJobId",
					"outputs": [],
					"stateMutability": "nonpayable",
					"type": "function"
				},
				{
					"inputs": [
						{
							"internalType": "address",
							"name": "_oracleAddress",
							"type": "address"
						}
					],
					"name": "setOracleAddress",
					"outputs": [],
					"stateMutability": "nonpayable",
					"type": "function"
				},
				{
					"inputs": [
						{
							"internalType": "address",
							"name": "to",
							"type": "address"
						}
					],
					"name": "transferOwnership",
					"outputs": [],
					"stateMutability": "nonpayable",
					"type": "function"
				},
				{
					"inputs": [],
					"name": "withdrawLink",
					"outputs": [],
					"stateMutability": "nonpayable",
					"type": "function"
				}
			],
			"devdoc": {
				"kind": "dev",
				"methods": {},
				"version": 1
			},
			"evm": {
				"assembly": "    /* \"contracts/aquo/AquoLink.sol\":474:4197  contract LinkWellUint256ConsumerContractExample is ChainlinkClient, ConfirmedOwner {... */\n  mstore(0x40, 0x80)\n    /* \"@chainlink/contracts/src/v0.8/ChainlinkClient.sol\":1300:1301  1 */\n  0x01\n    /* \"@chainlink/contracts/src/v0.8/ChainlinkClient.sol\":1267:1301  uint256 private s_requestCount = 1 */\n  0x04\n  sstore\n    /* \"contracts/aquo/AquoLink.sol\":703:1002  constructor() ConfirmedOwner(msg.sender) {... */\n  callvalue\n  dup1\n  iszero\n  tag_1\n  jumpi\n  0x00\n  dup1\n  revert\ntag_1:\n  pop\n    /* \"contracts/aquo/AquoLink.sol\":732:742  msg.sender */\n  caller\n    /* \"@chainlink/contracts/src/v0.8/ConfirmedOwner.sol\":327:335  newOwner */\n  dup1\n    /* \"@chainlink/contracts/src/v0.8/ConfirmedOwner.sol\":345:346  0 */\n  0x00\n    /* \"@chainlink/contracts/src/v0.8/ConfirmedOwnerWithProposal.sol\":572:573  0 */\n  dup1\n    /* \"@chainlink/contracts/src/v0.8/ConfirmedOwnerWithProposal.sol\":552:574  newOwner != address(0) */\n  0xffffffffffffffffffffffffffffffffffffffff\n  and\n    /* \"@chainlink/contracts/src/v0.8/ConfirmedOwnerWithProposal.sol\":552:560  newOwner */\n  dup3\n    /* \"@chainlink/contracts/src/v0.8/ConfirmedOwnerWithProposal.sol\":552:574  newOwner != address(0) */\n  0xffffffffffffffffffffffffffffffffffffffff\n  and\n  sub\n    /* \"@chainlink/contracts/src/v0.8/ConfirmedOwnerWithProposal.sol\":544:603  require(newOwner != address(0), \"Cannot set owner to zero\") */\n  tag_6\n  jumpi\n  mload(0x40)\n  0x08c379a000000000000000000000000000000000000000000000000000000000\n  dup2\n  mstore\n  0x04\n  add\n  tag_7\n  swap1\n  tag_8\n  jump\t// in\ntag_7:\n  mload(0x40)\n  dup1\n  swap2\n  sub\n  swap1\n  revert\ntag_6:\n    /* \"@chainlink/contracts/src/v0.8/ConfirmedOwnerWithProposal.sol\":620:628  newOwner */\n  dup2\n    /* \"@chainlink/contracts/src/v0.8/ConfirmedOwnerWithProposal.sol\":610:617  s_owner */\n  0x06\n  0x00\n    /* \"@chainlink/contracts/src/v0.8/ConfirmedOwnerWithProposal.sol\":610:628  s_owner = newOwner */\n  0x0100\n  exp\n  dup2\n  sload\n  dup2\n  0xffffffffffffffffffffffffffffffffffffffff\n  mul\n  not\n  and\n  swap1\n  dup4\n  0xffffffffffffffffffffffffffffffffffffffff\n  and\n  mul\n  or\n  swap1\n  sstore\n  pop\n    /* \"@chainlink/contracts/src/v0.8/ConfirmedOwnerWithProposal.sol\":662:663  0 */\n  0x00\n    /* \"@chainlink/contracts/src/v0.8/ConfirmedOwnerWithProposal.sol\":638:664  pendingOwner != address(0) */\n  0xffffffffffffffffffffffffffffffffffffffff\n  and\n    /* \"@chainlink/contracts/src/v0.8/ConfirmedOwnerWithProposal.sol\":638:650  pendingOwner */\n  dup2\n    /* \"@chainlink/contracts/src/v0.8/ConfirmedOwnerWithProposal.sol\":638:664  pendingOwner != address(0) */\n  0xffffffffffffffffffffffffffffffffffffffff\n  and\n  eq\n    /* \"@chainlink/contracts/src/v0.8/ConfirmedOwnerWithProposal.sol\":634:713  if (pendingOwner != address(0)) {... */\n  tag_9\n  jumpi\n    /* \"@chainlink/contracts/src/v0.8/ConfirmedOwnerWithProposal.sol\":674:706  _transferOwnership(pendingOwner) */\n  tag_10\n    /* \"@chainlink/contracts/src/v0.8/ConfirmedOwnerWithProposal.sol\":693:705  pendingOwner */\n  dup2\n    /* \"@chainlink/contracts/src/v0.8/ConfirmedOwnerWithProposal.sol\":674:692  _transferOwnership */\n  shl(0x20, tag_11)\n    /* \"@chainlink/contracts/src/v0.8/ConfirmedOwnerWithProposal.sol\":674:706  _transferOwnership(pendingOwner) */\n  0x20\n  shr\n  jump\t// in\ntag_10:\n    /* \"@chainlink/contracts/src/v0.8/ConfirmedOwnerWithProposal.sol\":634:713  if (pendingOwner != address(0)) {... */\ntag_9:\n    /* \"@chainlink/contracts/src/v0.8/ConfirmedOwnerWithProposal.sol\":486:717  constructor(address newOwner, address pendingOwner) {... */\n  pop\n  pop\n    /* \"@chainlink/contracts/src/v0.8/ConfirmedOwner.sol\":270:351  constructor(address newOwner) ConfirmedOwnerWithProposal(newOwner, address(0)) {} */\n  pop\n    /* \"contracts/aquo/AquoLink.sol\":755:816  setChainlinkToken(0x326C977E6efc84E512bB9C30f76E30c160eD06FB) */\n  tag_14\n    /* \"contracts/aquo/AquoLink.sol\":773:815  0x326C977E6efc84E512bB9C30f76E30c160eD06FB */\n  0x326c977e6efc84e512bb9c30f76e30c160ed06fb\n    /* \"contracts/aquo/AquoLink.sol\":755:772  setChainlinkToken */\n  shl(0x20, tag_15)\n    /* \"contracts/aquo/AquoLink.sol\":755:816  setChainlinkToken(0x326C977E6efc84E512bB9C30f76E30c160eD06FB) */\n  0x20\n  shr\n  jump\t// in\ntag_14:\n    /* \"contracts/aquo/AquoLink.sol\":827:887  setOracleAddress(0x12A3d7759F745f4cb8EE8a647038c040cB8862A5) */\n  tag_16\n    /* \"contracts/aquo/AquoLink.sol\":844:886  0x12A3d7759F745f4cb8EE8a647038c040cB8862A5 */\n  0x12a3d7759f745f4cb8ee8a647038c040cb8862a5\n    /* \"contracts/aquo/AquoLink.sol\":827:843  setOracleAddress */\n  shl(0x20, tag_17)\n    /* \"contracts/aquo/AquoLink.sol\":827:887  setOracleAddress(0x12A3d7759F745f4cb8EE8a647038c040cB8862A5) */\n  0x20\n  shr\n  jump\t// in\ntag_16:\n    /* \"contracts/aquo/AquoLink.sol\":898:942  setJobId(\"a8356f48569c434eaa4ac5fcb4db5cc0\") */\n  tag_18\n  mload(0x40)\n  dup1\n  0x40\n  add\n  0x40\n  mstore\n  dup1\n  0x20\n  dup2\n  mstore\n  0x20\n  add\n  0x6138333536663438353639633433346561613461633566636234646235636330\n  dup2\n  mstore\n  pop\n    /* \"contracts/aquo/AquoLink.sol\":898:906  setJobId */\n  shl(0x20, tag_19)\n    /* \"contracts/aquo/AquoLink.sol\":898:942  setJobId(\"a8356f48569c434eaa4ac5fcb4db5cc0\") */\n  0x20\n  shr\n  jump\t// in\ntag_18:\n    /* \"contracts/aquo/AquoLink.sol\":953:980  setFeeInHundredthsOfLink(0) */\n  tag_20\n    /* \"contracts/aquo/AquoLink.sol\":978:979  0 */\n  0x00\n    /* \"contracts/aquo/AquoLink.sol\":953:977  setFeeInHundredthsOfLink */\n  shl(0x20, tag_21)\n    /* \"contracts/aquo/AquoLink.sol\":953:980  setFeeInHundredthsOfLink(0) */\n  0x20\n  shr\n  jump\t// in\ntag_20:\n    /* \"contracts/aquo/AquoLink.sol\":474:4197  contract LinkWellUint256ConsumerContractExample is ChainlinkClient, ConfirmedOwner {... */\n  jump(tag_22)\n    /* \"@chainlink/contracts/src/v0.8/ConfirmedOwnerWithProposal.sol\":1497:1685  function _transferOwnership(address to) private {... */\ntag_11:\n    /* \"@chainlink/contracts/src/v0.8/ConfirmedOwnerWithProposal.sol\":1565:1575  msg.sender */\n  caller\n    /* \"@chainlink/contracts/src/v0.8/ConfirmedOwnerWithProposal.sol\":1559:1575  to != msg.sender */\n  0xffffffffffffffffffffffffffffffffffffffff\n  and\n    /* \"@chainlink/contracts/src/v0.8/ConfirmedOwnerWithProposal.sol\":1559:1561  to */\n  dup2\n    /* \"@chainlink/contracts/src/v0.8/ConfirmedOwnerWithProposal.sol\":1559:1575  to != msg.sender */\n  0xffffffffffffffffffffffffffffffffffffffff\n  and\n  sub\n    /* \"@chainlink/contracts/src/v0.8/ConfirmedOwnerWithProposal.sol\":1551:1603  require(to != msg.sender, \"Cannot transfer to self\") */\n  tag_24\n  jumpi\n  mload(0x40)\n  0x08c379a000000000000000000000000000000000000000000000000000000000\n  dup2\n  mstore\n  0x04\n  add\n  tag_25\n  swap1\n  tag_26\n  jump\t// in\ntag_25:\n  mload(0x40)\n  dup1\n  swap2\n  sub\n  swap1\n  revert\ntag_24:\n    /* \"@chainlink/contracts/src/v0.8/ConfirmedOwnerWithProposal.sol\":1627:1629  to */\n  dup1\n    /* \"@chainlink/contracts/src/v0.8/ConfirmedOwnerWithProposal.sol\":1610:1624  s_pendingOwner */\n  0x07\n  0x00\n    /* \"@chainlink/contracts/src/v0.8/ConfirmedOwnerWithProposal.sol\":1610:1629  s_pendingOwner = to */\n  0x0100\n  exp\n  dup2\n  sload\n  dup2\n  0xffffffffffffffffffffffffffffffffffffffff\n  mul\n  not\n  and\n  swap1\n  dup4\n  0xffffffffffffffffffffffffffffffffffffffff\n  and\n  mul\n  or\n  swap1\n  sstore\n  pop\n    /* \"@chainlink/contracts/src/v0.8/ConfirmedOwnerWithProposal.sol\":1677:1679  to */\n  dup1\n    /* \"@chainlink/contracts/src/v0.8/ConfirmedOwnerWithProposal.sol\":1641:1680  OwnershipTransferRequested(s_owner, to) */\n  0xffffffffffffffffffffffffffffffffffffffff\n  and\n    /* \"@chainlink/contracts/src/v0.8/ConfirmedOwnerWithProposal.sol\":1668:1675  s_owner */\n  0x06\n  0x00\n  swap1\n  sload\n  swap1\n  0x0100\n  exp\n  swap1\n  div\n  0xffffffffffffffffffffffffffffffffffffffff\n  and\n    /* \"@chainlink/contracts/src/v0.8/ConfirmedOwnerWithProposal.sol\":1641:1680  OwnershipTransferRequested(s_owner, to) */\n  0xffffffffffffffffffffffffffffffffffffffff\n  and\n  0xed8889f560326eb138920d842192f0eb3dd22b4f139c87a2c57538e05bae1278\n  mload(0x40)\n  mload(0x40)\n  dup1\n  swap2\n  sub\n  swap1\n  log3\n    /* \"@chainlink/contracts/src/v0.8/ConfirmedOwnerWithProposal.sol\":1497:1685  function _transferOwnership(address to) private {... */\n  pop\n  jump\t// out\n    /* \"@chainlink/contracts/src/v0.8/ChainlinkClient.sol\":8632:8740  function setChainlinkToken(address linkAddress) internal {... */\ntag_15:\n    /* \"@chainlink/contracts/src/v0.8/ChainlinkClient.sol\":8723:8734  linkAddress */\n  dup1\n    /* \"@chainlink/contracts/src/v0.8/ChainlinkClient.sol\":8695:8701  s_link */\n  0x02\n  0x00\n    /* \"@chainlink/contracts/src/v0.8/ChainlinkClient.sol\":8695:8735  s_link = LinkTokenInterface(linkAddress) */\n  0x0100\n  exp\n  dup2\n  sload\n  dup2\n  0xffffffffffffffffffffffffffffffffffffffff\n  mul\n  not\n  and\n  swap1\n  dup4\n  0xffffffffffffffffffffffffffffffffffffffff\n  and\n  mul\n  or\n  swap1\n  sstore\n  pop\n    /* \"@chainlink/contracts/src/v0.8/ChainlinkClient.sol\":8632:8740  function setChainlinkToken(address linkAddress) internal {... */\n  pop\n  jump\t// out\n    /* \"contracts/aquo/AquoLink.sol\":2943:3104  function setOracleAddress(address _oracleAddress) public onlyOwner {... */\ntag_17:\n    /* \"@chainlink/contracts/src/v0.8/ConfirmedOwnerWithProposal.sol\":1956:1976  _validateOwnership() */\n  tag_29\n    /* \"@chainlink/contracts/src/v0.8/ConfirmedOwnerWithProposal.sol\":1956:1974  _validateOwnership */\n  shl(0x20, tag_30)\n    /* \"@chainlink/contracts/src/v0.8/ConfirmedOwnerWithProposal.sol\":1956:1976  _validateOwnership() */\n  0x20\n  shr\n  jump\t// in\ntag_29:\n    /* \"contracts/aquo/AquoLink.sol\":3037:3051  _oracleAddress */\n  dup1\n    /* \"contracts/aquo/AquoLink.sol\":3021:3034  oracleAddress */\n  0x08\n  0x00\n    /* \"contracts/aquo/AquoLink.sol\":3021:3051  oracleAddress = _oracleAddress */\n  0x0100\n  exp\n  dup2\n  sload\n  dup2\n  0xffffffffffffffffffffffffffffffffffffffff\n  mul\n  not\n  and\n  swap1\n  dup4\n  0xffffffffffffffffffffffffffffffffffffffff\n  and\n  mul\n  or\n  swap1\n  sstore\n  pop\n    /* \"contracts/aquo/AquoLink.sol\":3062:3096  setChainlinkOracle(_oracleAddress) */\n  tag_32\n    /* \"contracts/aquo/AquoLink.sol\":3081:3095  _oracleAddress */\n  dup2\n    /* \"contracts/aquo/AquoLink.sol\":3062:3080  setChainlinkOracle */\n  shl(0x20, tag_33)\n    /* \"contracts/aquo/AquoLink.sol\":3062:3096  setChainlinkOracle(_oracleAddress) */\n  0x20\n  shr\n  jump\t// in\ntag_32:\n    /* \"contracts/aquo/AquoLink.sol\":2943:3104  function setOracleAddress(address _oracleAddress) public onlyOwner {... */\n  pop\n  jump\t// out\n    /* \"contracts/aquo/AquoLink.sol\":3246:3352  function setJobId(string memory _jobId) public onlyOwner {... */\ntag_19:\n    /* \"@chainlink/contracts/src/v0.8/ConfirmedOwnerWithProposal.sol\":1956:1976  _validateOwnership() */\n  tag_35\n    /* \"@chainlink/contracts/src/v0.8/ConfirmedOwnerWithProposal.sol\":1956:1974  _validateOwnership */\n  shl(0x20, tag_30)\n    /* \"@chainlink/contracts/src/v0.8/ConfirmedOwnerWithProposal.sol\":1956:1976  _validateOwnership() */\n  0x20\n  shr\n  jump\t// in\ntag_35:\n    /* \"contracts/aquo/AquoLink.sol\":3336:3342  _jobId */\n  dup1\n    /* \"contracts/aquo/AquoLink.sol\":3322:3344  bytes32(bytes(_jobId)) */\n  tag_37\n  swap1\n  tag_38\n  jump\t// in\ntag_37:\n    /* \"contracts/aquo/AquoLink.sol\":3314:3319  jobId */\n  0x09\n    /* \"contracts/aquo/AquoLink.sol\":3314:3344  jobId = bytes32(bytes(_jobId)) */\n  dup2\n  swap1\n  sstore\n  pop\n    /* \"contracts/aquo/AquoLink.sol\":3246:3352  function setJobId(string memory _jobId) public onlyOwner {... */\n  pop\n  jump\t// out\n    /* \"contracts/aquo/AquoLink.sol\":3616:3783  function setFeeInHundredthsOfLink(uint256 _feeInHundredthsOfLink) public onlyOwner {... */\ntag_21:\n    /* \"@chainlink/contracts/src/v0.8/ConfirmedOwnerWithProposal.sol\":1956:1976  _validateOwnership() */\n  tag_40\n    /* \"@chainlink/contracts/src/v0.8/ConfirmedOwnerWithProposal.sol\":1956:1974  _validateOwnership */\n  shl(0x20, tag_30)\n    /* \"@chainlink/contracts/src/v0.8/ConfirmedOwnerWithProposal.sol\":1956:1976  _validateOwnership() */\n  0x20\n  shr\n  jump\t// in\ntag_40:\n    /* \"contracts/aquo/AquoLink.sol\":3710:3775  setFeeInJuels((_feeInHundredthsOfLink * LINK_DIVISIBILITY) / 100) */\n  tag_42\n    /* \"contracts/aquo/AquoLink.sol\":3771:3774  100 */\n  0x64\n    /* \"@chainlink/contracts/src/v0.8/ChainlinkClient.sol\":682:690  10 ** 18 */\n  0x0de0b6b3a7640000\n    /* \"contracts/aquo/AquoLink.sol\":3725:3747  _feeInHundredthsOfLink */\n  dup4\n    /* \"contracts/aquo/AquoLink.sol\":3725:3767  _feeInHundredthsOfLink * LINK_DIVISIBILITY */\n  tag_43\n  swap2\n  swap1\n  tag_44\n  jump\t// in\ntag_43:\n    /* \"contracts/aquo/AquoLink.sol\":3724:3774  (_feeInHundredthsOfLink * LINK_DIVISIBILITY) / 100 */\n  tag_45\n  swap2\n  swap1\n  tag_46\n  jump\t// in\ntag_45:\n    /* \"contracts/aquo/AquoLink.sol\":3710:3723  setFeeInJuels */\n  shl(0x20, tag_47)\n    /* \"contracts/aquo/AquoLink.sol\":3710:3775  setFeeInJuels((_feeInHundredthsOfLink * LINK_DIVISIBILITY) / 100) */\n  0x20\n  shr\n  jump\t// in\ntag_42:\n    /* \"contracts/aquo/AquoLink.sol\":3616:3783  function setFeeInHundredthsOfLink(uint256 _feeInHundredthsOfLink) public onlyOwner {... */\n  pop\n  jump\t// out\n    /* \"@chainlink/contracts/src/v0.8/ConfirmedOwnerWithProposal.sol\":1730:1841  function _validateOwnership() internal view {... */\ntag_30:\n    /* \"@chainlink/contracts/src/v0.8/ConfirmedOwnerWithProposal.sol\":1802:1809  s_owner */\n  0x06\n  0x00\n  swap1\n  sload\n  swap1\n  0x0100\n  exp\n  swap1\n  div\n  0xffffffffffffffffffffffffffffffffffffffff\n  and\n    /* \"@chainlink/contracts/src/v0.8/ConfirmedOwnerWithProposal.sol\":1788:1809  msg.sender == s_owner */\n  0xffffffffffffffffffffffffffffffffffffffff\n  and\n    /* \"@chainlink/contracts/src/v0.8/ConfirmedOwnerWithProposal.sol\":1788:1798  msg.sender */\n  caller\n    /* \"@chainlink/contracts/src/v0.8/ConfirmedOwnerWithProposal.sol\":1788:1809  msg.sender == s_owner */\n  0xffffffffffffffffffffffffffffffffffffffff\n  and\n  eq\n    /* \"@chainlink/contracts/src/v0.8/ConfirmedOwnerWithProposal.sol\":1780:1836  require(msg.sender == s_owner, \"Only callable by owner\") */\n  tag_49\n  jumpi\n  mload(0x40)\n  0x08c379a000000000000000000000000000000000000000000000000000000000\n  dup2\n  mstore\n  0x04\n  add\n  tag_50\n  swap1\n  tag_51\n  jump\t// in\ntag_50:\n  mload(0x40)\n  dup1\n  swap2\n  sub\n  swap1\n  revert\ntag_49:\n    /* \"@chainlink/contracts/src/v0.8/ConfirmedOwnerWithProposal.sol\":1730:1841  function _validateOwnership() internal view {... */\n  jump\t// out\n    /* \"@chainlink/contracts/src/v0.8/ChainlinkClient.sol\":8398:8512  function setChainlinkOracle(address oracleAddress) internal {... */\ntag_33:\n    /* \"@chainlink/contracts/src/v0.8/ChainlinkClient.sol\":8493:8506  oracleAddress */\n  dup1\n    /* \"@chainlink/contracts/src/v0.8/ChainlinkClient.sol\":8464:8472  s_oracle */\n  0x03\n  0x00\n    /* \"@chainlink/contracts/src/v0.8/ChainlinkClient.sol\":8464:8507  s_oracle = OperatorInterface(oracleAddress) */\n  0x0100\n  exp\n  dup2\n  sload\n  dup2\n  0xffffffffffffffffffffffffffffffffffffffff\n  mul\n  not\n  and\n  swap1\n  dup4\n  0xffffffffffffffffffffffffffffffffffffffff\n  and\n  mul\n  or\n  swap1\n  sstore\n  pop\n    /* \"@chainlink/contracts/src/v0.8/ChainlinkClient.sol\":8398:8512  function setChainlinkOracle(address oracleAddress) internal {... */\n  pop\n  jump\t// out\n    /* \"contracts/aquo/AquoLink.sol\":3513:3610  function setFeeInJuels(uint256 _feeInJuels) public onlyOwner {... */\ntag_47:\n    /* \"@chainlink/contracts/src/v0.8/ConfirmedOwnerWithProposal.sol\":1956:1976  _validateOwnership() */\n  tag_54\n    /* \"@chainlink/contracts/src/v0.8/ConfirmedOwnerWithProposal.sol\":1956:1974  _validateOwnership */\n  shl(0x20, tag_30)\n    /* \"@chainlink/contracts/src/v0.8/ConfirmedOwnerWithProposal.sol\":1956:1976  _validateOwnership() */\n  0x20\n  shr\n  jump\t// in\ntag_54:\n    /* \"contracts/aquo/AquoLink.sol\":3591:3602  _feeInJuels */\n  dup1\n    /* \"contracts/aquo/AquoLink.sol\":3585:3588  fee */\n  0x0a\n    /* \"contracts/aquo/AquoLink.sol\":3585:3602  fee = _feeInJuels */\n  dup2\n  swap1\n  sstore\n  pop\n    /* \"contracts/aquo/AquoLink.sol\":3513:3610  function setFeeInJuels(uint256 _feeInJuels) public onlyOwner {... */\n  pop\n  jump\t// out\n    /* \"#utility.yul\":7:176   */\ntag_56:\n    /* \"#utility.yul\":91:102   */\n  0x00\n    /* \"#utility.yul\":125:131   */\n  dup3\n    /* \"#utility.yul\":120:123   */\n  dup3\n    /* \"#utility.yul\":113:132   */\n  mstore\n    /* \"#utility.yul\":165:169   */\n  0x20\n    /* \"#utility.yul\":160:163   */\n  dup3\n    /* \"#utility.yul\":156:170   */\n  add\n    /* \"#utility.yul\":141:170   */\n  swap1\n  pop\n    /* \"#utility.yul\":7:176   */\n  swap3\n  swap2\n  pop\n  pop\n  jump\t// out\n    /* \"#utility.yul\":182:356   */\ntag_57:\n    /* \"#utility.yul\":322:348   */\n  0x43616e6e6f7420736574206f776e657220746f207a65726f0000000000000000\n    /* \"#utility.yul\":318:319   */\n  0x00\n    /* \"#utility.yul\":310:316   */\n  dup3\n    /* \"#utility.yul\":306:320   */\n  add\n    /* \"#utility.yul\":299:349   */\n  mstore\n    /* \"#utility.yul\":182:356   */\n  pop\n  jump\t// out\n    /* \"#utility.yul\":362:728   */\ntag_58:\n    /* \"#utility.yul\":504:507   */\n  0x00\n    /* \"#utility.yul\":525:592   */\n  tag_75\n    /* \"#utility.yul\":589:591   */\n  0x18\n    /* \"#utility.yul\":584:587   */\n  dup4\n    /* \"#utility.yul\":525:592   */\n  tag_56\n  jump\t// in\ntag_75:\n    /* \"#utility.yul\":518:592   */\n  swap2\n  pop\n    /* \"#utility.yul\":601:694   */\n  tag_76\n    /* \"#utility.yul\":690:693   */\n  dup3\n    /* \"#utility.yul\":601:694   */\n  tag_57\n  jump\t// in\ntag_76:\n    /* \"#utility.yul\":719:721   */\n  0x20\n    /* \"#utility.yul\":714:717   */\n  dup3\n    /* \"#utility.yul\":710:722   */\n  add\n    /* \"#utility.yul\":703:722   */\n  swap1\n  pop\n    /* \"#utility.yul\":362:728   */\n  swap2\n  swap1\n  pop\n  jump\t// out\n    /* \"#utility.yul\":734:1153   */\ntag_8:\n    /* \"#utility.yul\":900:904   */\n  0x00\n    /* \"#utility.yul\":938:940   */\n  0x20\n    /* \"#utility.yul\":927:936   */\n  dup3\n    /* \"#utility.yul\":923:941   */\n  add\n    /* \"#utility.yul\":915:941   */\n  swap1\n  pop\n    /* \"#utility.yul\":987:996   */\n  dup2\n    /* \"#utility.yul\":981:985   */\n  dup2\n    /* \"#utility.yul\":977:997   */\n  sub\n    /* \"#utility.yul\":973:974   */\n  0x00\n    /* \"#utility.yul\":962:971   */\n  dup4\n    /* \"#utility.yul\":958:975   */\n  add\n    /* \"#utility.yul\":951:998   */\n  mstore\n    /* \"#utility.yul\":1015:1146   */\n  tag_78\n    /* \"#utility.yul\":1141:1145   */\n  dup2\n    /* \"#utility.yul\":1015:1146   */\n  tag_58\n  jump\t// in\ntag_78:\n    /* \"#utility.yul\":1007:1146   */\n  swap1\n  pop\n    /* \"#utility.yul\":734:1153   */\n  swap2\n  swap1\n  pop\n  jump\t// out\n    /* \"#utility.yul\":1159:1332   */\ntag_59:\n    /* \"#utility.yul\":1299:1324   */\n  0x43616e6e6f74207472616e7366657220746f2073656c66000000000000000000\n    /* \"#utility.yul\":1295:1296   */\n  0x00\n    /* \"#utility.yul\":1287:1293   */\n  dup3\n    /* \"#utility.yul\":1283:1297   */\n  add\n    /* \"#utility.yul\":1276:1325   */\n  mstore\n    /* \"#utility.yul\":1159:1332   */\n  pop\n  jump\t// out\n    /* \"#utility.yul\":1338:1704   */\ntag_60:\n    /* \"#utility.yul\":1480:1483   */\n  0x00\n    /* \"#utility.yul\":1501:1568   */\n  tag_81\n    /* \"#utility.yul\":1565:1567   */\n  0x17\n    /* \"#utility.yul\":1560:1563   */\n  dup4\n    /* \"#utility.yul\":1501:1568   */\n  tag_56\n  jump\t// in\ntag_81:\n    /* \"#utility.yul\":1494:1568   */\n  swap2\n  pop\n    /* \"#utility.yul\":1577:1670   */\n  tag_82\n    /* \"#utility.yul\":1666:1669   */\n  dup3\n    /* \"#utility.yul\":1577:1670   */\n  tag_59\n  jump\t// in\ntag_82:\n    /* \"#utility.yul\":1695:1697   */\n  0x20\n    /* \"#utility.yul\":1690:1693   */\n  dup3\n    /* \"#utility.yul\":1686:1698   */\n  add\n    /* \"#utility.yul\":1679:1698   */\n  swap1\n  pop\n    /* \"#utility.yul\":1338:1704   */\n  swap2\n  swap1\n  pop\n  jump\t// out\n    /* \"#utility.yul\":1710:2129   */\ntag_26:\n    /* \"#utility.yul\":1876:1880   */\n  0x00\n    /* \"#utility.yul\":1914:1916   */\n  0x20\n    /* \"#utility.yul\":1903:1912   */\n  dup3\n    /* \"#utility.yul\":1899:1917   */\n  add\n    /* \"#utility.yul\":1891:1917   */\n  swap1\n  pop\n    /* \"#utility.yul\":1963:1972   */\n  dup2\n    /* \"#utility.yul\":1957:1961   */\n  dup2\n    /* \"#utility.yul\":1953:1973   */\n  sub\n    /* \"#utility.yul\":1949:1950   */\n  0x00\n    /* \"#utility.yul\":1938:1947   */\n  dup4\n    /* \"#utility.yul\":1934:1951   */\n  add\n    /* \"#utility.yul\":1927:1974   */\n  mstore\n    /* \"#utility.yul\":1991:2122   */\n  tag_84\n    /* \"#utility.yul\":2117:2121   */\n  dup2\n    /* \"#utility.yul\":1991:2122   */\n  tag_60\n  jump\t// in\ntag_84:\n    /* \"#utility.yul\":1983:2122   */\n  swap1\n  pop\n    /* \"#utility.yul\":1710:2129   */\n  swap2\n  swap1\n  pop\n  jump\t// out\n    /* \"#utility.yul\":2135:2233   */\ntag_61:\n    /* \"#utility.yul\":2186:2192   */\n  0x00\n    /* \"#utility.yul\":2220:2225   */\n  dup2\n    /* \"#utility.yul\":2214:2226   */\n  mload\n    /* \"#utility.yul\":2204:2226   */\n  swap1\n  pop\n    /* \"#utility.yul\":2135:2233   */\n  swap2\n  swap1\n  pop\n  jump\t// out\n    /* \"#utility.yul\":2239:2355   */\ntag_62:\n    /* \"#utility.yul\":2290:2294   */\n  0x00\n    /* \"#utility.yul\":2313:2316   */\n  dup2\n    /* \"#utility.yul\":2305:2316   */\n  swap1\n  pop\n    /* \"#utility.yul\":2343:2347   */\n  0x20\n    /* \"#utility.yul\":2338:2341   */\n  dup3\n    /* \"#utility.yul\":2334:2348   */\n  add\n    /* \"#utility.yul\":2326:2348   */\n  swap1\n  pop\n    /* \"#utility.yul\":2239:2355   */\n  swap2\n  swap1\n  pop\n  jump\t// out\n    /* \"#utility.yul\":2361:2438   */\ntag_63:\n    /* \"#utility.yul\":2398:2405   */\n  0x00\n    /* \"#utility.yul\":2427:2432   */\n  dup2\n    /* \"#utility.yul\":2416:2432   */\n  swap1\n  pop\n    /* \"#utility.yul\":2361:2438   */\n  swap2\n  swap1\n  pop\n  jump\t// out\n    /* \"#utility.yul\":2444:2598   */\ntag_64:\n    /* \"#utility.yul\":2487:2498   */\n  0x00\n    /* \"#utility.yul\":2523:2552   */\n  tag_89\n    /* \"#utility.yul\":2547:2550   */\n  dup3\n    /* \"#utility.yul\":2541:2551   */\n  mload\n    /* \"#utility.yul\":2523:2552   */\n  tag_63\n  jump\t// in\ntag_89:\n    /* \"#utility.yul\":2586:2591   */\n  dup1\n    /* \"#utility.yul\":2562:2591   */\n  swap2\n  pop\n    /* \"#utility.yul\":2499:2598   */\n  pop\n    /* \"#utility.yul\":2444:2598   */\n  swap2\n  swap1\n  pop\n  jump\t// out\n    /* \"#utility.yul\":2604:2711   */\ntag_65:\n    /* \"#utility.yul\":2648:2656   */\n  0x00\n    /* \"#utility.yul\":2698:2703   */\n  dup3\n    /* \"#utility.yul\":2692:2696   */\n  dup3\n    /* \"#utility.yul\":2688:2704   */\n  shl\n    /* \"#utility.yul\":2667:2704   */\n  swap1\n  pop\n    /* \"#utility.yul\":2604:2711   */\n  swap3\n  swap2\n  pop\n  pop\n  jump\t// out\n    /* \"#utility.yul\":2717:3311   */\ntag_38:\n    /* \"#utility.yul\":2801:2806   */\n  0x00\n    /* \"#utility.yul\":2832:2870   */\n  tag_92\n    /* \"#utility.yul\":2864:2869   */\n  dup3\n    /* \"#utility.yul\":2832:2870   */\n  tag_61\n  jump\t// in\ntag_92:\n    /* \"#utility.yul\":2895:2900   */\n  dup3\n    /* \"#utility.yul\":2922:2962   */\n  tag_93\n    /* \"#utility.yul\":2956:2961   */\n  dup5\n    /* \"#utility.yul\":2922:2962   */\n  tag_62\n  jump\t// in\ntag_93:\n    /* \"#utility.yul\":2910:2962   */\n  swap1\n  pop\n    /* \"#utility.yul\":2981:3016   */\n  tag_94\n    /* \"#utility.yul\":3007:3015   */\n  dup2\n    /* \"#utility.yul\":2981:3016   */\n  tag_64\n  jump\t// in\ntag_94:\n    /* \"#utility.yul\":2972:3016   */\n  swap3\n  pop\n    /* \"#utility.yul\":3040:3042   */\n  0x20\n    /* \"#utility.yul\":3032:3038   */\n  dup3\n    /* \"#utility.yul\":3029:3043   */\n  lt\n    /* \"#utility.yul\":3026:3304   */\n  iszero\n  tag_95\n  jumpi\n    /* \"#utility.yul\":3111:3280   */\n  tag_96\n    /* \"#utility.yul\":3196:3262   */\n  0xffffffffffffffffffffffffffffffffffffffffffffffffffffffffffffffff\n    /* \"#utility.yul\":3166:3172   */\n  dup4\n    /* \"#utility.yul\":3162:3164   */\n  0x20\n    /* \"#utility.yul\":3158:3173   */\n  sub\n    /* \"#utility.yul\":3155:3156   */\n  0x08\n    /* \"#utility.yul\":3151:3174   */\n  mul\n    /* \"#utility.yul\":3111:3280   */\n  tag_65\n  jump\t// in\ntag_96:\n    /* \"#utility.yul\":3088:3093   */\n  dup4\n    /* \"#utility.yul\":3067:3294   */\n  and\n    /* \"#utility.yul\":3058:3294   */\n  swap3\n  pop\n    /* \"#utility.yul\":3026:3304   */\ntag_95:\n    /* \"#utility.yul\":2807:3311   */\n  pop\n  pop\n    /* \"#utility.yul\":2717:3311   */\n  swap2\n  swap1\n  pop\n  jump\t// out\n    /* \"#utility.yul\":3317:3394   */\ntag_66:\n    /* \"#utility.yul\":3354:3361   */\n  0x00\n    /* \"#utility.yul\":3383:3388   */\n  dup2\n    /* \"#utility.yul\":3372:3388   */\n  swap1\n  pop\n    /* \"#utility.yul\":3317:3394   */\n  swap2\n  swap1\n  pop\n  jump\t// out\n    /* \"#utility.yul\":3400:3580   */\ntag_67:\n    /* \"#utility.yul\":3448:3525   */\n  0x4e487b7100000000000000000000000000000000000000000000000000000000\n    /* \"#utility.yul\":3445:3446   */\n  0x00\n    /* \"#utility.yul\":3438:3526   */\n  mstore\n    /* \"#utility.yul\":3545:3549   */\n  0x11\n    /* \"#utility.yul\":3542:3543   */\n  0x04\n    /* \"#utility.yul\":3535:3550   */\n  mstore\n    /* \"#utility.yul\":3569:3573   */\n  0x24\n    /* \"#utility.yul\":3566:3567   */\n  0x00\n    /* \"#utility.yul\":3559:3574   */\n  revert\n    /* \"#utility.yul\":3586:3996   */\ntag_44:\n    /* \"#utility.yul\":3626:3633   */\n  0x00\n    /* \"#utility.yul\":3649:3669   */\n  tag_100\n    /* \"#utility.yul\":3667:3668   */\n  dup3\n    /* \"#utility.yul\":3649:3669   */\n  tag_66\n  jump\t// in\ntag_100:\n    /* \"#utility.yul\":3644:3669   */\n  swap2\n  pop\n    /* \"#utility.yul\":3683:3703   */\n  tag_101\n    /* \"#utility.yul\":3701:3702   */\n  dup4\n    /* \"#utility.yul\":3683:3703   */\n  tag_66\n  jump\t// in\ntag_101:\n    /* \"#utility.yul\":3678:3703   */\n  swap3\n  pop\n    /* \"#utility.yul\":3738:3739   */\n  dup3\n    /* \"#utility.yul\":3735:3736   */\n  dup3\n    /* \"#utility.yul\":3731:3740   */\n  mul\n    /* \"#utility.yul\":3760:3790   */\n  tag_102\n    /* \"#utility.yul\":3778:3789   */\n  dup2\n    /* \"#utility.yul\":3760:3790   */\n  tag_66\n  jump\t// in\ntag_102:\n    /* \"#utility.yul\":3749:3790   */\n  swap2\n  pop\n    /* \"#utility.yul\":3939:3940   */\n  dup3\n    /* \"#utility.yul\":3930:3937   */\n  dup3\n    /* \"#utility.yul\":3926:3941   */\n  div\n    /* \"#utility.yul\":3923:3924   */\n  dup5\n    /* \"#utility.yul\":3920:3942   */\n  eq\n    /* \"#utility.yul\":3900:3901   */\n  dup4\n    /* \"#utility.yul\":3893:3902   */\n  iszero\n    /* \"#utility.yul\":3873:3956   */\n  or\n    /* \"#utility.yul\":3850:3989   */\n  tag_103\n  jumpi\n    /* \"#utility.yul\":3969:3987   */\n  tag_104\n  tag_67\n  jump\t// in\ntag_104:\n    /* \"#utility.yul\":3850:3989   */\ntag_103:\n    /* \"#utility.yul\":3634:3996   */\n  pop\n    /* \"#utility.yul\":3586:3996   */\n  swap3\n  swap2\n  pop\n  pop\n  jump\t// out\n    /* \"#utility.yul\":4002:4182   */\ntag_68:\n    /* \"#utility.yul\":4050:4127   */\n  0x4e487b7100000000000000000000000000000000000000000000000000000000\n    /* \"#utility.yul\":4047:4048   */\n  0x00\n    /* \"#utility.yul\":4040:4128   */\n  mstore\n    /* \"#utility.yul\":4147:4151   */\n  0x12\n    /* \"#utility.yul\":4144:4145   */\n  0x04\n    /* \"#utility.yul\":4137:4152   */\n  mstore\n    /* \"#utility.yul\":4171:4175   */\n  0x24\n    /* \"#utility.yul\":4168:4169   */\n  0x00\n    /* \"#utility.yul\":4161:4176   */\n  revert\n    /* \"#utility.yul\":4188:4373   */\ntag_46:\n    /* \"#utility.yul\":4228:4229   */\n  0x00\n    /* \"#utility.yul\":4245:4265   */\n  tag_107\n    /* \"#utility.yul\":4263:4264   */\n  dup3\n    /* \"#utility.yul\":4245:4265   */\n  tag_66\n  jump\t// in\ntag_107:\n    /* \"#utility.yul\":4240:4265   */\n  swap2\n  pop\n    /* \"#utility.yul\":4279:4299   */\n  tag_108\n    /* \"#utility.yul\":4297:4298   */\n  dup4\n    /* \"#utility.yul\":4279:4299   */\n  tag_66\n  jump\t// in\ntag_108:\n    /* \"#utility.yul\":4274:4299   */\n  swap3\n  pop\n    /* \"#utility.yul\":4318:4319   */\n  dup3\n    /* \"#utility.yul\":4308:4343   */\n  tag_109\n  jumpi\n    /* \"#utility.yul\":4323:4341   */\n  tag_110\n  tag_68\n  jump\t// in\ntag_110:\n    /* \"#utility.yul\":4308:4343   */\ntag_109:\n    /* \"#utility.yul\":4365:4366   */\n  dup3\n    /* \"#utility.yul\":4362:4363   */\n  dup3\n    /* \"#utility.yul\":4358:4367   */\n  div\n    /* \"#utility.yul\":4353:4367   */\n  swap1\n  pop\n    /* \"#utility.yul\":4188:4373   */\n  swap3\n  swap2\n  pop\n  pop\n  jump\t// out\n    /* \"#utility.yul\":4379:4551   */\ntag_69:\n    /* \"#utility.yul\":4519:4543   */\n  0x4f6e6c792063616c6c61626c65206279206f776e657200000000000000000000\n    /* \"#utility.yul\":4515:4516   */\n  0x00\n    /* \"#utility.yul\":4507:4513   */\n  dup3\n    /* \"#utility.yul\":4503:4517   */\n  add\n    /* \"#utility.yul\":4496:4544   */\n  mstore\n    /* \"#utility.yul\":4379:4551   */\n  pop\n  jump\t// out\n    /* \"#utility.yul\":4557:4923   */\ntag_70:\n    /* \"#utility.yul\":4699:4702   */\n  0x00\n    /* \"#utility.yul\":4720:4787   */\n  tag_113\n    /* \"#utility.yul\":4784:4786   */\n  0x16\n    /* \"#utility.yul\":4779:4782   */\n  dup4\n    /* \"#utility.yul\":4720:4787   */\n  tag_56\n  jump\t// in\ntag_113:\n    /* \"#utility.yul\":4713:4787   */\n  swap2\n  pop\n    /* \"#utility.yul\":4796:4889   */\n  tag_114\n    /* \"#utility.yul\":4885:4888   */\n  dup3\n    /* \"#utility.yul\":4796:4889   */\n  tag_69\n  jump\t// in\ntag_114:\n    /* \"#utility.yul\":4914:4916   */\n  0x20\n    /* \"#utility.yul\":4909:4912   */\n  dup3\n    /* \"#utility.yul\":4905:4917   */\n  add\n    /* \"#utility.yul\":4898:4917   */\n  swap1\n  pop\n    /* \"#utility.yul\":4557:4923   */\n  swap2\n  swap1\n  pop\n  jump\t// out\n    /* \"#utility.yul\":4929:5348   */\ntag_51:\n    /* \"#utility.yul\":5095:5099   */\n  0x00\n    /* \"#utility.yul\":5133:5135   */\n  0x20\n    /* \"#utility.yul\":5122:5131   */\n  dup3\n    /* \"#utility.yul\":5118:5136   */\n  add\n    /* \"#utility.yul\":5110:5136   */\n  swap1\n  pop\n    /* \"#utility.yul\":5182:5191   */\n  dup2\n    /* \"#utility.yul\":5176:5180   */\n  dup2\n    /* \"#utility.yul\":5172:5192   */\n  sub\n    /* \"#utility.yul\":5168:5169   */\n  0x00\n    /* \"#utility.yul\":5157:5166   */\n  dup4\n    /* \"#utility.yul\":5153:5170   */\n  add\n    /* \"#utility.yul\":5146:5193   */\n  mstore\n    /* \"#utility.yul\":5210:5341   */\n  tag_116\n    /* \"#utility.yul\":5336:5340   */\n  dup2\n    /* \"#utility.yul\":5210:5341   */\n  tag_70\n  jump\t// in\ntag_116:\n    /* \"#utility.yul\":5202:5341   */\n  swap1\n  pop\n    /* \"#utility.yul\":4929:5348   */\n  swap2\n  swap1\n  pop\n  jump\t// out\n    /* \"contracts/aquo/AquoLink.sol\":474:4197  contract LinkWellUint256ConsumerContractExample is ChainlinkClient, ConfirmedOwner {... */\ntag_22:\n  dataSize(sub_0)\n  dup1\n  dataOffset(sub_0)\n  0x00\n  codecopy\n  0x00\n  return\nstop\n\nsub_0: assembly {\n        /* \"contracts/aquo/AquoLink.sol\":474:4197  contract LinkWellUint256ConsumerContractExample is ChainlinkClient, ConfirmedOwner {... */\n      mstore(0x40, 0x80)\n      callvalue\n      dup1\n      iszero\n      tag_1\n      jumpi\n      0x00\n      dup1\n      revert\n    tag_1:\n      pop\n      jumpi(tag_2, lt(calldatasize, 0x04))\n      shr(0xe0, calldataload(0x00))\n      dup1\n      0x8da5cb5b\n      gt\n      tag_17\n      jumpi\n      dup1\n      0xb18b78dd\n      gt\n      tag_18\n      jumpi\n      dup1\n      0xb18b78dd\n      eq\n      tag_13\n      jumpi\n      dup1\n      0xe3da201d\n      eq\n      tag_14\n      jumpi\n      dup1\n      0xf2fde38b\n      eq\n      tag_15\n      jumpi\n      dup1\n      0xf34473a5\n      eq\n      tag_16\n      jumpi\n      jump(tag_2)\n    tag_18:\n      dup1\n      0x8da5cb5b\n      eq\n      tag_10\n      jumpi\n      dup1\n      0x8dc654a2\n      eq\n      tag_11\n      jumpi\n      dup1\n      0xb02f7fe0\n      eq\n      tag_12\n      jumpi\n      jump(tag_2)\n    tag_17:\n      dup1\n      0x4c69c00f\n      gt\n      tag_19\n      jumpi\n      dup1\n      0x4c69c00f\n      eq\n      tag_6\n      jumpi\n      dup1\n      0x56237682\n      eq\n      tag_7\n      jumpi\n      dup1\n      0x79ba5097\n      eq\n      tag_8\n      jumpi\n      dup1\n      0x7a7f01a7\n      eq\n      tag_9\n      jumpi\n      jump(tag_2)\n    tag_19:\n      dup1\n      0x129fc1c0\n      eq\n      tag_3\n      jumpi\n      dup1\n      0x338cdca1\n      eq\n      tag_4\n      jumpi\n      dup1\n      0x4357855e\n      eq\n      tag_5\n      jumpi\n    tag_2:\n      0x00\n      dup1\n      revert\n        /* \"contracts/aquo/AquoLink.sol\":3246:3352  function setJobId(string memory _jobId) public onlyOwner {... */\n    tag_3:\n      tag_20\n      0x04\n      dup1\n      calldatasize\n      sub\n      dup2\n      add\n      swap1\n      tag_21\n      swap2\n      swap1\n      tag_22\n      jump\t// in\n    tag_21:\n      tag_23\n      jump\t// in\n    tag_20:\n      stop\n        /* \"contracts/aquo/AquoLink.sol\":1057:2324  function request() public {... */\n    tag_4:\n      tag_24\n      tag_25\n      jump\t// in\n    tag_24:\n      stop\n        /* \"contracts/aquo/AquoLink.sol\":2481:2905  function fulfill(bytes32 requestId, uint256 data) public recordChainlinkFulfillment(requestId) {... */\n    tag_5:\n      tag_26\n      0x04\n      dup1\n      calldatasize\n      sub\n      dup2\n      add\n      swap1\n      tag_27\n      swap2\n      swap1\n      tag_28\n      jump\t// in\n    tag_27:\n      tag_29\n      jump\t// in\n    tag_26:\n      stop\n        /* \"contracts/aquo/AquoLink.sol\":2943:3104  function setOracleAddress(address _oracleAddress) public onlyOwner {... */\n    tag_6:\n      tag_30\n      0x04\n      dup1\n      calldatasize\n      sub\n      dup2\n      add\n      swap1\n      tag_31\n      swap2\n      swap1\n      tag_32\n      jump\t// in\n    tag_31:\n      tag_33\n      jump\t// in\n    tag_30:\n      stop\n        /* \"contracts/aquo/AquoLink.sol\":3789:3922  function getFeeInHundredthsOfLink() public view onlyOwner returns (uint256) {... */\n    tag_7:\n      tag_34\n      tag_35\n      jump\t// in\n    tag_34:\n      mload(0x40)\n      tag_36\n      swap2\n      swap1\n      tag_37\n      jump\t// in\n    tag_36:\n      mload(0x40)\n      dup1\n      swap2\n      sub\n      swap1\n      return\n        /* \"@chainlink/contracts/src/v0.8/ConfirmedOwnerWithProposal.sol\":1016:1281  function acceptOwnership() external override {... */\n    tag_8:\n      tag_38\n      tag_39\n      jump\t// in\n    tag_38:\n      stop\n        /* \"contracts/aquo/AquoLink.sol\":2332:2355  uint256 public response */\n    tag_9:\n      tag_40\n      tag_41\n      jump\t// in\n    tag_40:\n      mload(0x40)\n      tag_42\n      swap2\n      swap1\n      tag_37\n      jump\t// in\n    tag_42:\n      mload(0x40)\n      dup1\n      swap2\n      sub\n      swap1\n      return\n        /* \"@chainlink/contracts/src/v0.8/ConfirmedOwnerWithProposal.sol\":1332:1413  function owner() public view override returns (address) {... */\n    tag_10:\n      tag_43\n      tag_44\n      jump\t// in\n    tag_43:\n      mload(0x40)\n      tag_45\n      swap2\n      swap1\n      tag_46\n      jump\t// in\n    tag_45:\n      mload(0x40)\n      dup1\n      swap2\n      sub\n      swap1\n      return\n        /* \"contracts/aquo/AquoLink.sol\":3930:4194  function withdrawLink() public onlyOwner {... */\n    tag_11:\n      tag_47\n      tag_48\n      jump\t// in\n    tag_47:\n      stop\n        /* \"contracts/aquo/AquoLink.sol\":3358:3481  function getJobId() public view onlyOwner returns (string memory) {... */\n    tag_12:\n      tag_49\n      tag_50\n      jump\t// in\n    tag_49:\n      mload(0x40)\n      tag_51\n      swap2\n      swap1\n      tag_52\n      jump\t// in\n    tag_51:\n      mload(0x40)\n      dup1\n      swap2\n      sub\n      swap1\n      return\n        /* \"contracts/aquo/AquoLink.sol\":3110:3217  function getOracleAddress() public view onlyOwner returns (address) {... */\n    tag_13:\n      tag_53\n      tag_54\n      jump\t// in\n    tag_53:\n      mload(0x40)\n      tag_55\n      swap2\n      swap1\n      tag_46\n      jump\t// in\n    tag_55:\n      mload(0x40)\n      dup1\n      swap2\n      sub\n      swap1\n      return\n        /* \"contracts/aquo/AquoLink.sol\":3513:3610  function setFeeInJuels(uint256 _feeInJuels) public onlyOwner {... */\n    tag_14:\n      tag_56\n      0x04\n      dup1\n      calldatasize\n      sub\n      dup2\n      add\n      swap1\n      tag_57\n      swap2\n      swap1\n      tag_58\n      jump\t// in\n    tag_57:\n      tag_59\n      jump\t// in\n    tag_56:\n      stop\n        /* \"@chainlink/contracts/src/v0.8/ConfirmedOwnerWithProposal.sol\":826:924  function transferOwnership(address to) public override onlyOwner {... */\n    tag_15:\n      tag_60\n      0x04\n      dup1\n      calldatasize\n      sub\n      dup2\n      add\n      swap1\n      tag_61\n      swap2\n      swap1\n      tag_32\n      jump\t// in\n    tag_61:\n      tag_62\n      jump\t// in\n    tag_60:\n      stop\n        /* \"contracts/aquo/AquoLink.sol\":3616:3783  function setFeeInHundredthsOfLink(uint256 _feeInHundredthsOfLink) public onlyOwner {... */\n    tag_16:\n      tag_63\n      0x04\n      dup1\n      calldatasize\n      sub\n      dup2\n      add\n      swap1\n      tag_64\n      swap2\n      swap1\n      tag_58\n      jump\t// in\n    tag_64:\n      tag_65\n      jump\t// in\n    tag_63:\n      stop\n        /* \"contracts/aquo/AquoLink.sol\":3246:3352  function setJobId(string memory _jobId) public onlyOwner {... */\n    tag_23:\n        /* \"@chainlink/contracts/src/v0.8/ConfirmedOwnerWithProposal.sol\":1956:1976  _validateOwnership() */\n      tag_67\n        /* \"@chainlink/contracts/src/v0.8/ConfirmedOwnerWithProposal.sol\":1956:1974  _validateOwnership */\n      tag_68\n        /* \"@chainlink/contracts/src/v0.8/ConfirmedOwnerWithProposal.sol\":1956:1976  _validateOwnership() */\n      jump\t// in\n    tag_67:\n        /* \"contracts/aquo/AquoLink.sol\":3336:3342  _jobId */\n      dup1\n        /* \"contracts/aquo/AquoLink.sol\":3322:3344  bytes32(bytes(_jobId)) */\n      tag_70\n      swap1\n      tag_71\n      jump\t// in\n    tag_70:\n        /* \"contracts/aquo/AquoLink.sol\":3314:3319  jobId */\n      0x09\n        /* \"contracts/aquo/AquoLink.sol\":3314:3344  jobId = bytes32(bytes(_jobId)) */\n      dup2\n      swap1\n      sstore\n      pop\n        /* \"contracts/aquo/AquoLink.sol\":3246:3352  function setJobId(string memory _jobId) public onlyOwner {... */\n      pop\n      jump\t// out\n        /* \"contracts/aquo/AquoLink.sol\":1057:2324  function request() public {... */\n    tag_25:\n        /* \"contracts/aquo/AquoLink.sol\":1100:1128  Chainlink.Request memory req */\n      0x00\n        /* \"contracts/aquo/AquoLink.sol\":1131:1181  buildOperatorRequest(jobId, this.fulfill.selector) */\n      tag_73\n        /* \"contracts/aquo/AquoLink.sol\":1152:1157  jobId */\n      sload(0x09)\n        /* \"contracts/aquo/AquoLink.sol\":1159:1180  this.fulfill.selector */\n      shl(0xe0, 0x4357855e)\n        /* \"contracts/aquo/AquoLink.sol\":1131:1151  buildOperatorRequest */\n      tag_74\n        /* \"contracts/aquo/AquoLink.sol\":1131:1181  buildOperatorRequest(jobId, this.fulfill.selector) */\n      jump\t// in\n    tag_73:\n        /* \"contracts/aquo/AquoLink.sol\":1100:1181  Chainlink.Request memory req = buildOperatorRequest(jobId, this.fulfill.selector) */\n      swap1\n      pop\n        /* \"contracts/aquo/AquoLink.sol\":1254:1278  req.add('method', 'GET') */\n      tag_75\n      mload(0x40)\n      dup1\n      0x40\n      add\n      0x40\n      mstore\n      dup1\n      0x06\n      dup2\n      mstore\n      0x20\n      add\n      0x6d6574686f640000000000000000000000000000000000000000000000000000\n      dup2\n      mstore\n      pop\n      mload(0x40)\n      dup1\n      0x40\n      add\n      0x40\n      mstore\n      dup1\n      0x03\n      dup2\n      mstore\n      0x20\n      add\n      0x4745540000000000000000000000000000000000000000000000000000000000\n      dup2\n      mstore\n      pop\n        /* \"contracts/aquo/AquoLink.sol\":1254:1257  req */\n      dup4\n        /* \"contracts/aquo/AquoLink.sol\":1254:1261  req.add */\n      tag_76\n      swap1\n        /* \"contracts/aquo/AquoLink.sol\":1254:1278  req.add('method', 'GET') */\n      swap3\n      swap2\n      swap1\n      0xffffffff\n      and\n      jump\t// in\n    tag_75:\n        /* \"contracts/aquo/AquoLink.sol\":1289:1384  req.add('url', 'https://min-api.cryptocompare.com/data/pricemulti?fsyms=BTC,ETH&tsyms=USD,EUR') */\n      tag_77\n      mload(0x40)\n      dup1\n      0x40\n      add\n      0x40\n      mstore\n      dup1\n      0x03\n      dup2\n      mstore\n      0x20\n      add\n      0x75726c0000000000000000000000000000000000000000000000000000000000\n      dup2\n      mstore\n      pop\n      mload(0x40)\n      dup1\n      0x80\n      add\n      0x40\n      mstore\n      dup1\n      0x4d\n      dup2\n      mstore\n      0x20\n      add\n      data_6d3e44bb624583aa251837d16e4131f753816d55bda731fd016d5c1caa4fce29\n      0x4d\n      swap2\n      codecopy\n        /* \"contracts/aquo/AquoLink.sol\":1289:1292  req */\n      dup4\n        /* \"contracts/aquo/AquoLink.sol\":1289:1296  req.add */\n      tag_76\n      swap1\n        /* \"contracts/aquo/AquoLink.sol\":1289:1384  req.add('url', 'https://min-api.cryptocompare.com/data/pricemulti?fsyms=BTC,ETH&tsyms=USD,EUR') */\n      swap3\n      swap2\n      swap1\n      0xffffffff\n      and\n      jump\t// in\n    tag_77:\n        /* \"contracts/aquo/AquoLink.sol\":1395:1480  req.add('headers', '[\"content-type\", \"application/json\", \"set-cookie\", \"sid=14A52\"]') */\n      tag_78\n      mload(0x40)\n      dup1\n      0x40\n      add\n      0x40\n      mstore\n      dup1\n      0x07\n      dup2\n      mstore\n      0x20\n      add\n      0x6865616465727300000000000000000000000000000000000000000000000000\n      dup2\n      mstore\n      pop\n      mload(0x40)\n      dup1\n      0x60\n      add\n      0x40\n      mstore\n      dup1\n      0x3f\n      dup2\n      mstore\n      0x20\n      add\n      data_e4aa5fa7723df6220ef57d812ce4054cd7493ed501c0550ebe67d0389237eb02\n      0x3f\n      swap2\n      codecopy\n        /* \"contracts/aquo/AquoLink.sol\":1395:1398  req */\n      dup4\n        /* \"contracts/aquo/AquoLink.sol\":1395:1402  req.add */\n      tag_76\n      swap1\n        /* \"contracts/aquo/AquoLink.sol\":1395:1480  req.add('headers', '[\"content-type\", \"application/json\", \"set-cookie\", \"sid=14A52\"]') */\n      swap3\n      swap2\n      swap1\n      0xffffffff\n      and\n      jump\t// in\n    tag_78:\n        /* \"contracts/aquo/AquoLink.sol\":1491:1510  req.add('body', '') */\n      tag_79\n      mload(0x40)\n      dup1\n      0x40\n      add\n      0x40\n      mstore\n      dup1\n      0x04\n      dup2\n      mstore\n      0x20\n      add\n      0x626f647900000000000000000000000000000000000000000000000000000000\n      dup2\n      mstore\n      pop\n      mload(0x40)\n      dup1\n      0x20\n      add\n      0x40\n      mstore\n      dup1\n      0x00\n      dup2\n      mstore\n      pop\n        /* \"contracts/aquo/AquoLink.sol\":1491:1494  req */\n      dup4\n        /* \"contracts/aquo/AquoLink.sol\":1491:1498  req.add */\n      tag_76\n      swap1\n        /* \"contracts/aquo/AquoLink.sol\":1491:1510  req.add('body', '') */\n      swap3\n      swap2\n      swap1\n      0xffffffff\n      and\n      jump\t// in\n    tag_79:\n        /* \"contracts/aquo/AquoLink.sol\":1521:1543  req.add('contact', '') */\n      tag_80\n      mload(0x40)\n      dup1\n      0x40\n      add\n      0x40\n      mstore\n      dup1\n      0x07\n      dup2\n      mstore\n      0x20\n      add\n      0x636f6e7461637400000000000000000000000000000000000000000000000000\n      dup2\n      mstore\n      pop\n      mload(0x40)\n      dup1\n      0x20\n      add\n      0x40\n      mstore\n      dup1\n      0x00\n      dup2\n      mstore\n      pop\n        /* \"contracts/aquo/AquoLink.sol\":1521:1524  req */\n      dup4\n        /* \"contracts/aquo/AquoLink.sol\":1521:1528  req.add */\n      tag_76\n      swap1\n        /* \"contracts/aquo/AquoLink.sol\":1521:1543  req.add('contact', '') */\n      swap3\n      swap2\n      swap1\n      0xffffffff\n      and\n      jump\t// in\n    tag_80:\n        /* \"contracts/aquo/AquoLink.sol\":2142:2168  req.add('path', 'ETH,USD') */\n      tag_81\n      mload(0x40)\n      dup1\n      0x40\n      add\n      0x40\n      mstore\n      dup1\n      0x04\n      dup2\n      mstore\n      0x20\n      add\n      0x7061746800000000000000000000000000000000000000000000000000000000\n      dup2\n      mstore\n      pop\n      mload(0x40)\n      dup1\n      0x40\n      add\n      0x40\n      mstore\n      dup1\n      0x07\n      dup2\n      mstore\n      0x20\n      add\n      0x4554482c55534400000000000000000000000000000000000000000000000000\n      dup2\n      mstore\n      pop\n        /* \"contracts/aquo/AquoLink.sol\":2142:2145  req */\n      dup4\n        /* \"contracts/aquo/AquoLink.sol\":2142:2149  req.add */\n      tag_76\n      swap1\n        /* \"contracts/aquo/AquoLink.sol\":2142:2168  req.add('path', 'ETH,USD') */\n      swap3\n      swap2\n      swap1\n      0xffffffff\n      and\n      jump\t// in\n    tag_81:\n        /* \"contracts/aquo/AquoLink.sol\":2179:2213  req.addInt('multiplier', 10 ** 18) */\n      tag_82\n      mload(0x40)\n      dup1\n      0x40\n      add\n      0x40\n      mstore\n      dup1\n      0x0a\n      dup2\n      mstore\n      0x20\n      add\n      0x6d756c7469706c69657200000000000000000000000000000000000000000000\n      dup2\n      mstore\n      pop\n        /* \"contracts/aquo/AquoLink.sol\":2204:2212  10 ** 18 */\n      0x0de0b6b3a7640000\n        /* \"contracts/aquo/AquoLink.sol\":2179:2182  req */\n      dup4\n        /* \"contracts/aquo/AquoLink.sol\":2179:2189  req.addInt */\n      tag_83\n      swap1\n        /* \"contracts/aquo/AquoLink.sol\":2179:2213  req.addInt('multiplier', 10 ** 18) */\n      swap3\n      swap2\n      swap1\n      0xffffffff\n      and\n      jump\t// in\n    tag_82:\n        /* \"contracts/aquo/AquoLink.sol\":2287:2316  sendOperatorRequest(req, fee) */\n      tag_84\n        /* \"contracts/aquo/AquoLink.sol\":2307:2310  req */\n      dup2\n        /* \"contracts/aquo/AquoLink.sol\":2312:2315  fee */\n      sload(0x0a)\n        /* \"contracts/aquo/AquoLink.sol\":2287:2306  sendOperatorRequest */\n      tag_85\n        /* \"contracts/aquo/AquoLink.sol\":2287:2316  sendOperatorRequest(req, fee) */\n      jump\t// in\n    tag_84:\n      pop\n        /* \"contracts/aquo/AquoLink.sol\":1083:2324  {... */\n      pop\n        /* \"contracts/aquo/AquoLink.sol\":1057:2324  function request() public {... */\n      jump\t// out\n        /* \"contracts/aquo/AquoLink.sol\":2481:2905  function fulfill(bytes32 requestId, uint256 data) public recordChainlinkFulfillment(requestId) {... */\n    tag_29:\n        /* \"contracts/aquo/AquoLink.sol\":2565:2574  requestId */\n      dup2\n        /* \"@chainlink/contracts/src/v0.8/ChainlinkClient.sol\":11672:11689  s_pendingRequests */\n      0x05\n        /* \"@chainlink/contracts/src/v0.8/ChainlinkClient.sol\":11672:11700  s_pendingRequests[requestId] */\n      0x00\n        /* \"@chainlink/contracts/src/v0.8/ChainlinkClient.sol\":11690:11699  requestId */\n      dup3\n        /* \"@chainlink/contracts/src/v0.8/ChainlinkClient.sol\":11672:11700  s_pendingRequests[requestId] */\n      dup2\n      mstore\n      0x20\n      add\n      swap1\n      dup2\n      mstore\n      0x20\n      add\n      0x00\n      keccak256\n      0x00\n      swap1\n      sload\n      swap1\n      0x0100\n      exp\n      swap1\n      div\n      0xffffffffffffffffffffffffffffffffffffffff\n      and\n        /* \"@chainlink/contracts/src/v0.8/ChainlinkClient.sol\":11658:11700  msg.sender == s_pendingRequests[requestId] */\n      0xffffffffffffffffffffffffffffffffffffffff\n      and\n        /* \"@chainlink/contracts/src/v0.8/ChainlinkClient.sol\":11658:11668  msg.sender */\n      caller\n        /* \"@chainlink/contracts/src/v0.8/ChainlinkClient.sol\":11658:11700  msg.sender == s_pendingRequests[requestId] */\n      0xffffffffffffffffffffffffffffffffffffffff\n      and\n      eq\n        /* \"@chainlink/contracts/src/v0.8/ChainlinkClient.sol\":11650:11745  require(msg.sender == s_pendingRequests[requestId], \"Source must be the oracle of the request\") */\n      tag_87\n      jumpi\n      mload(0x40)\n      0x08c379a000000000000000000000000000000000000000000000000000000000\n      dup2\n      mstore\n      0x04\n      add\n      tag_88\n      swap1\n      tag_89\n      jump\t// in\n    tag_88:\n      mload(0x40)\n      dup1\n      swap2\n      sub\n      swap1\n      revert\n    tag_87:\n        /* \"@chainlink/contracts/src/v0.8/ChainlinkClient.sol\":11758:11775  s_pendingRequests */\n      0x05\n        /* \"@chainlink/contracts/src/v0.8/ChainlinkClient.sol\":11758:11786  s_pendingRequests[requestId] */\n      0x00\n        /* \"@chainlink/contracts/src/v0.8/ChainlinkClient.sol\":11776:11785  requestId */\n      dup3\n        /* \"@chainlink/contracts/src/v0.8/ChainlinkClient.sol\":11758:11786  s_pendingRequests[requestId] */\n      dup2\n      mstore\n      0x20\n      add\n      swap1\n      dup2\n      mstore\n      0x20\n      add\n      0x00\n      keccak256\n      0x00\n        /* \"@chainlink/contracts/src/v0.8/ChainlinkClient.sol\":11751:11786  delete s_pendingRequests[requestId] */\n      0x0100\n      exp\n      dup2\n      sload\n      swap1\n      0xffffffffffffffffffffffffffffffffffffffff\n      mul\n      not\n      and\n      swap1\n      sstore\n        /* \"@chainlink/contracts/src/v0.8/ChainlinkClient.sol\":11816:11825  requestId */\n      dup1\n        /* \"@chainlink/contracts/src/v0.8/ChainlinkClient.sol\":11797:11826  ChainlinkFulfilled(requestId) */\n      0x7cc135e0cebb02c3480ae5d74d377283180a2601f8f644edf7987b009316c63a\n      mload(0x40)\n      mload(0x40)\n      dup1\n      swap2\n      sub\n      swap1\n      log2\n        /* \"contracts/aquo/AquoLink.sol\":2807:2811  data */\n      dup2\n        /* \"contracts/aquo/AquoLink.sol\":2796:2804  response */\n      0x0b\n        /* \"contracts/aquo/AquoLink.sol\":2796:2811  response = data */\n      dup2\n      swap1\n      sstore\n      pop\n        /* \"contracts/aquo/AquoLink.sol\":2481:2905  function fulfill(bytes32 requestId, uint256 data) public recordChainlinkFulfillment(requestId) {... */\n      pop\n      pop\n      pop\n      jump\t// out\n        /* \"contracts/aquo/AquoLink.sol\":2943:3104  function setOracleAddress(address _oracleAddress) public onlyOwner {... */\n    tag_33:\n        /* \"@chainlink/contracts/src/v0.8/ConfirmedOwnerWithProposal.sol\":1956:1976  _validateOwnership() */\n      tag_92\n        /* \"@chainlink/contracts/src/v0.8/ConfirmedOwnerWithProposal.sol\":1956:1974  _validateOwnership */\n      tag_68\n        /* \"@chainlink/contracts/src/v0.8/ConfirmedOwnerWithProposal.sol\":1956:1976  _validateOwnership() */\n      jump\t// in\n    tag_92:\n        /* \"contracts/aquo/AquoLink.sol\":3037:3051  _oracleAddress */\n      dup1\n        /* \"contracts/aquo/AquoLink.sol\":3021:3034  oracleAddress */\n      0x08\n      0x00\n        /* \"contracts/aquo/AquoLink.sol\":3021:3051  oracleAddress = _oracleAddress */\n      0x0100\n      exp\n      dup2\n      sload\n      dup2\n      0xffffffffffffffffffffffffffffffffffffffff\n      mul\n      not\n      and\n      swap1\n      dup4\n      0xffffffffffffffffffffffffffffffffffffffff\n      and\n      mul\n      or\n      swap1\n      sstore\n      pop\n        /* \"contracts/aquo/AquoLink.sol\":3062:3096  setChainlinkOracle(_oracleAddress) */\n      tag_94\n        /* \"contracts/aquo/AquoLink.sol\":3081:3095  _oracleAddress */\n      dup2\n        /* \"contracts/aquo/AquoLink.sol\":3062:3080  setChainlinkOracle */\n      tag_95\n        /* \"contracts/aquo/AquoLink.sol\":3062:3096  setChainlinkOracle(_oracleAddress) */\n      jump\t// in\n    tag_94:\n        /* \"contracts/aquo/AquoLink.sol\":2943:3104  function setOracleAddress(address _oracleAddress) public onlyOwner {... */\n      pop\n      jump\t// out\n        /* \"contracts/aquo/AquoLink.sol\":3789:3922  function getFeeInHundredthsOfLink() public view onlyOwner returns (uint256) {... */\n    tag_35:\n        /* \"contracts/aquo/AquoLink.sol\":3856:3863  uint256 */\n      0x00\n        /* \"@chainlink/contracts/src/v0.8/ConfirmedOwnerWithProposal.sol\":1956:1976  _validateOwnership() */\n      tag_97\n        /* \"@chainlink/contracts/src/v0.8/ConfirmedOwnerWithProposal.sol\":1956:1974  _validateOwnership */\n      tag_68\n        /* \"@chainlink/contracts/src/v0.8/ConfirmedOwnerWithProposal.sol\":1956:1976  _validateOwnership() */\n      jump\t// in\n    tag_97:\n        /* \"@chainlink/contracts/src/v0.8/ChainlinkClient.sol\":682:690  10 ** 18 */\n      0x0de0b6b3a7640000\n        /* \"contracts/aquo/AquoLink.sol\":3890:3893  100 */\n      0x64\n        /* \"contracts/aquo/AquoLink.sol\":3884:3887  fee */\n      sload(0x0a)\n        /* \"contracts/aquo/AquoLink.sol\":3884:3893  fee * 100 */\n      tag_99\n      swap2\n      swap1\n      tag_100\n      jump\t// in\n    tag_99:\n        /* \"contracts/aquo/AquoLink.sol\":3883:3914  (fee * 100) / LINK_DIVISIBILITY */\n      tag_101\n      swap2\n      swap1\n      tag_102\n      jump\t// in\n    tag_101:\n        /* \"contracts/aquo/AquoLink.sol\":3876:3914  return (fee * 100) / LINK_DIVISIBILITY */\n      swap1\n      pop\n        /* \"contracts/aquo/AquoLink.sol\":3789:3922  function getFeeInHundredthsOfLink() public view onlyOwner returns (uint256) {... */\n      swap1\n      jump\t// out\n        /* \"@chainlink/contracts/src/v0.8/ConfirmedOwnerWithProposal.sol\":1016:1281  function acceptOwnership() external override {... */\n    tag_39:\n        /* \"@chainlink/contracts/src/v0.8/ConfirmedOwnerWithProposal.sol\":1089:1103  s_pendingOwner */\n      0x07\n      0x00\n      swap1\n      sload\n      swap1\n      0x0100\n      exp\n      swap1\n      div\n      0xffffffffffffffffffffffffffffffffffffffff\n      and\n        /* \"@chainlink/contracts/src/v0.8/ConfirmedOwnerWithProposal.sol\":1075:1103  msg.sender == s_pendingOwner */\n      0xffffffffffffffffffffffffffffffffffffffff\n      and\n        /* \"@chainlink/contracts/src/v0.8/ConfirmedOwnerWithProposal.sol\":1075:1085  msg.sender */\n      caller\n        /* \"@chainlink/contracts/src/v0.8/ConfirmedOwnerWithProposal.sol\":1075:1103  msg.sender == s_pendingOwner */\n      0xffffffffffffffffffffffffffffffffffffffff\n      and\n      eq\n        /* \"@chainlink/contracts/src/v0.8/ConfirmedOwnerWithProposal.sol\":1067:1130  require(msg.sender == s_pendingOwner, \"Must be proposed owner\") */\n      tag_104\n      jumpi\n      mload(0x40)\n      0x08c379a000000000000000000000000000000000000000000000000000000000\n      dup2\n      mstore\n      0x04\n      add\n      tag_105\n      swap1\n      tag_106\n      jump\t// in\n    tag_105:\n      mload(0x40)\n      dup1\n      swap2\n      sub\n      swap1\n      revert\n    tag_104:\n        /* \"@chainlink/contracts/src/v0.8/ConfirmedOwnerWithProposal.sol\":1137:1153  address oldOwner */\n      0x00\n        /* \"@chainlink/contracts/src/v0.8/ConfirmedOwnerWithProposal.sol\":1156:1163  s_owner */\n      0x06\n      0x00\n      swap1\n      sload\n      swap1\n      0x0100\n      exp\n      swap1\n      div\n      0xffffffffffffffffffffffffffffffffffffffff\n      and\n        /* \"@chainlink/contracts/src/v0.8/ConfirmedOwnerWithProposal.sol\":1137:1163  address oldOwner = s_owner */\n      swap1\n      pop\n        /* \"@chainlink/contracts/src/v0.8/ConfirmedOwnerWithProposal.sol\":1179:1189  msg.sender */\n      caller\n        /* \"@chainlink/contracts/src/v0.8/ConfirmedOwnerWithProposal.sol\":1169:1176  s_owner */\n      0x06\n      0x00\n        /* \"@chainlink/contracts/src/v0.8/ConfirmedOwnerWithProposal.sol\":1169:1189  s_owner = msg.sender */\n      0x0100\n      exp\n      dup2\n      sload\n      dup2\n      0xffffffffffffffffffffffffffffffffffffffff\n      mul\n      not\n      and\n      swap1\n      dup4\n      0xffffffffffffffffffffffffffffffffffffffff\n      and\n      mul\n      or\n      swap1\n      sstore\n      pop\n        /* \"@chainlink/contracts/src/v0.8/ConfirmedOwnerWithProposal.sol\":1220:1221  0 */\n      0x00\n        /* \"@chainlink/contracts/src/v0.8/ConfirmedOwnerWithProposal.sol\":1195:1209  s_pendingOwner */\n      0x07\n      0x00\n        /* \"@chainlink/contracts/src/v0.8/ConfirmedOwnerWithProposal.sol\":1195:1222  s_pendingOwner = address(0) */\n      0x0100\n      exp\n      dup2\n      sload\n      dup2\n      0xffffffffffffffffffffffffffffffffffffffff\n      mul\n      not\n      and\n      swap1\n      dup4\n      0xffffffffffffffffffffffffffffffffffffffff\n      and\n      mul\n      or\n      swap1\n      sstore\n      pop\n        /* \"@chainlink/contracts/src/v0.8/ConfirmedOwnerWithProposal.sol\":1265:1275  msg.sender */\n      caller\n        /* \"@chainlink/contracts/src/v0.8/ConfirmedOwnerWithProposal.sol\":1234:1276  OwnershipTransferred(oldOwner, msg.sender) */\n      0xffffffffffffffffffffffffffffffffffffffff\n      and\n        /* \"@chainlink/contracts/src/v0.8/ConfirmedOwnerWithProposal.sol\":1255:1263  oldOwner */\n      dup2\n        /* \"@chainlink/contracts/src/v0.8/ConfirmedOwnerWithProposal.sol\":1234:1276  OwnershipTransferred(oldOwner, msg.sender) */\n      0xffffffffffffffffffffffffffffffffffffffff\n      and\n      0x8be0079c531659141344cd1fd0a4f28419497f9722a3daafe3b4186f6b6457e0\n      mload(0x40)\n      mload(0x40)\n      dup1\n      swap2\n      sub\n      swap1\n      log3\n        /* \"@chainlink/contracts/src/v0.8/ConfirmedOwnerWithProposal.sol\":1061:1281  {... */\n      pop\n        /* \"@chainlink/contracts/src/v0.8/ConfirmedOwnerWithProposal.sol\":1016:1281  function acceptOwnership() external override {... */\n      jump\t// out\n        /* \"contracts/aquo/AquoLink.sol\":2332:2355  uint256 public response */\n    tag_41:\n      sload(0x0b)\n      dup2\n      jump\t// out\n        /* \"@chainlink/contracts/src/v0.8/ConfirmedOwnerWithProposal.sol\":1332:1413  function owner() public view override returns (address) {... */\n    tag_44:\n        /* \"@chainlink/contracts/src/v0.8/ConfirmedOwnerWithProposal.sol\":1379:1386  address */\n      0x00\n        /* \"@chainlink/contracts/src/v0.8/ConfirmedOwnerWithProposal.sol\":1401:1408  s_owner */\n      0x06\n      0x00\n      swap1\n      sload\n      swap1\n      0x0100\n      exp\n      swap1\n      div\n      0xffffffffffffffffffffffffffffffffffffffff\n      and\n        /* \"@chainlink/contracts/src/v0.8/ConfirmedOwnerWithProposal.sol\":1394:1408  return s_owner */\n      swap1\n      pop\n        /* \"@chainlink/contracts/src/v0.8/ConfirmedOwnerWithProposal.sol\":1332:1413  function owner() public view override returns (address) {... */\n      swap1\n      jump\t// out\n        /* \"contracts/aquo/AquoLink.sol\":3930:4194  function withdrawLink() public onlyOwner {... */\n    tag_48:\n        /* \"@chainlink/contracts/src/v0.8/ConfirmedOwnerWithProposal.sol\":1956:1976  _validateOwnership() */\n      tag_109\n        /* \"@chainlink/contracts/src/v0.8/ConfirmedOwnerWithProposal.sol\":1956:1974  _validateOwnership */\n      tag_68\n        /* \"@chainlink/contracts/src/v0.8/ConfirmedOwnerWithProposal.sol\":1956:1976  _validateOwnership() */\n      jump\t// in\n    tag_109:\n        /* \"contracts/aquo/AquoLink.sol\":3982:4005  LinkTokenInterface link */\n      0x00\n        /* \"contracts/aquo/AquoLink.sol\":4027:4050  chainlinkTokenAddress() */\n      tag_111\n        /* \"contracts/aquo/AquoLink.sol\":4027:4048  chainlinkTokenAddress */\n      tag_112\n        /* \"contracts/aquo/AquoLink.sol\":4027:4050  chainlinkTokenAddress() */\n      jump\t// in\n    tag_111:\n        /* \"contracts/aquo/AquoLink.sol\":3982:4051  LinkTokenInterface link = LinkTokenInterface(chainlinkTokenAddress()) */\n      swap1\n      pop\n        /* \"contracts/aquo/AquoLink.sol\":4084:4088  link */\n      dup1\n        /* \"contracts/aquo/AquoLink.sol\":4084:4097  link.transfer */\n      0xffffffffffffffffffffffffffffffffffffffff\n      and\n      0xa9059cbb\n        /* \"contracts/aquo/AquoLink.sol\":4098:4108  msg.sender */\n      caller\n        /* \"contracts/aquo/AquoLink.sol\":4110:4114  link */\n      dup4\n        /* \"contracts/aquo/AquoLink.sol\":4110:4124  link.balanceOf */\n      0xffffffffffffffffffffffffffffffffffffffff\n      and\n      0x70a08231\n        /* \"contracts/aquo/AquoLink.sol\":4133:4137  this */\n      address\n        /* \"contracts/aquo/AquoLink.sol\":4110:4139  link.balanceOf(address(this)) */\n      mload(0x40)\n      dup3\n      0xffffffff\n      and\n      0xe0\n      shl\n      dup2\n      mstore\n      0x04\n      add\n      tag_113\n      swap2\n      swap1\n      tag_46\n      jump\t// in\n    tag_113:\n      0x20\n      mload(0x40)\n      dup1\n      dup4\n      sub\n      dup2\n      dup7\n      gas\n      staticcall\n      iszero\n      dup1\n      iszero\n      tag_115\n      jumpi\n      returndatasize\n      0x00\n      dup1\n      returndatacopy\n      revert(0x00, returndatasize)\n    tag_115:\n      pop\n      pop\n      pop\n      pop\n      mload(0x40)\n      returndatasize\n      not(0x1f)\n      0x1f\n      dup3\n      add\n      and\n      dup3\n      add\n      dup1\n      0x40\n      mstore\n      pop\n      dup2\n      add\n      swap1\n      tag_116\n      swap2\n      swap1\n      tag_117\n      jump\t// in\n    tag_116:\n        /* \"contracts/aquo/AquoLink.sol\":4084:4140  link.transfer(msg.sender, link.balanceOf(address(this))) */\n      mload(0x40)\n      dup4\n      0xffffffff\n      and\n      0xe0\n      shl\n      dup2\n      mstore\n      0x04\n      add\n      tag_118\n      swap3\n      swap2\n      swap1\n      tag_119\n      jump\t// in\n    tag_118:\n      0x20\n      mload(0x40)\n      dup1\n      dup4\n      sub\n      dup2\n      0x00\n      dup8\n      gas\n      call\n      iszero\n      dup1\n      iszero\n      tag_121\n      jumpi\n      returndatasize\n      0x00\n      dup1\n      returndatacopy\n      revert(0x00, returndatasize)\n    tag_121:\n      pop\n      pop\n      pop\n      pop\n      mload(0x40)\n      returndatasize\n      not(0x1f)\n      0x1f\n      dup3\n      add\n      and\n      dup3\n      add\n      dup1\n      0x40\n      mstore\n      pop\n      dup2\n      add\n      swap1\n      tag_122\n      swap2\n      swap1\n      tag_123\n      jump\t// in\n    tag_122:\n        /* \"contracts/aquo/AquoLink.sol\":4062:4186  require(... */\n      tag_124\n      jumpi\n      mload(0x40)\n      0x08c379a000000000000000000000000000000000000000000000000000000000\n      dup2\n      mstore\n      0x04\n      add\n      tag_125\n      swap1\n      tag_126\n      jump\t// in\n    tag_125:\n      mload(0x40)\n      dup1\n      swap2\n      sub\n      swap1\n      revert\n    tag_124:\n        /* \"contracts/aquo/AquoLink.sol\":3971:4194  {... */\n      pop\n        /* \"contracts/aquo/AquoLink.sol\":3930:4194  function withdrawLink() public onlyOwner {... */\n      jump\t// out\n        /* \"contracts/aquo/AquoLink.sol\":3358:3481  function getJobId() public view onlyOwner returns (string memory) {... */\n    tag_50:\n        /* \"contracts/aquo/AquoLink.sol\":3409:3422  string memory */\n      0x60\n        /* \"@chainlink/contracts/src/v0.8/ConfirmedOwnerWithProposal.sol\":1956:1976  _validateOwnership() */\n      tag_128\n        /* \"@chainlink/contracts/src/v0.8/ConfirmedOwnerWithProposal.sol\":1956:1974  _validateOwnership */\n      tag_68\n        /* \"@chainlink/contracts/src/v0.8/ConfirmedOwnerWithProposal.sol\":1956:1976  _validateOwnership() */\n      jump\t// in\n    tag_128:\n        /* \"contracts/aquo/AquoLink.sol\":3466:3471  jobId */\n      sload(0x09)\n        /* \"contracts/aquo/AquoLink.sol\":3449:3472  abi.encodePacked(jobId) */\n      add(0x20, mload(0x40))\n      tag_130\n      swap2\n      swap1\n      tag_131\n      jump\t// in\n    tag_130:\n      mload(0x40)\n      0x20\n      dup2\n      dup4\n      sub\n      sub\n      dup2\n      mstore\n      swap1\n      0x40\n      mstore\n        /* \"contracts/aquo/AquoLink.sol\":3435:3473  return string(abi.encodePacked(jobId)) */\n      swap1\n      pop\n        /* \"contracts/aquo/AquoLink.sol\":3358:3481  function getJobId() public view onlyOwner returns (string memory) {... */\n      swap1\n      jump\t// out\n        /* \"contracts/aquo/AquoLink.sol\":3110:3217  function getOracleAddress() public view onlyOwner returns (address) {... */\n    tag_54:\n        /* \"contracts/aquo/AquoLink.sol\":3169:3176  address */\n      0x00\n        /* \"@chainlink/contracts/src/v0.8/ConfirmedOwnerWithProposal.sol\":1956:1976  _validateOwnership() */\n      tag_133\n        /* \"@chainlink/contracts/src/v0.8/ConfirmedOwnerWithProposal.sol\":1956:1974  _validateOwnership */\n      tag_68\n        /* \"@chainlink/contracts/src/v0.8/ConfirmedOwnerWithProposal.sol\":1956:1976  _validateOwnership() */\n      jump\t// in\n    tag_133:\n        /* \"contracts/aquo/AquoLink.sol\":3196:3209  oracleAddress */\n      0x08\n      0x00\n      swap1\n      sload\n      swap1\n      0x0100\n      exp\n      swap1\n      div\n      0xffffffffffffffffffffffffffffffffffffffff\n      and\n        /* \"contracts/aquo/AquoLink.sol\":3189:3209  return oracleAddress */\n      swap1\n      pop\n        /* \"contracts/aquo/AquoLink.sol\":3110:3217  function getOracleAddress() public view onlyOwner returns (address) {... */\n      swap1\n      jump\t// out\n        /* \"contracts/aquo/AquoLink.sol\":3513:3610  function setFeeInJuels(uint256 _feeInJuels) public onlyOwner {... */\n    tag_59:\n        /* \"@chainlink/contracts/src/v0.8/ConfirmedOwnerWithProposal.sol\":1956:1976  _validateOwnership() */\n      tag_136\n        /* \"@chainlink/contracts/src/v0.8/ConfirmedOwnerWithProposal.sol\":1956:1974  _validateOwnership */\n      tag_68\n        /* \"@chainlink/contracts/src/v0.8/ConfirmedOwnerWithProposal.sol\":1956:1976  _validateOwnership() */\n      jump\t// in\n    tag_136:\n        /* \"contracts/aquo/AquoLink.sol\":3591:3602  _feeInJuels */\n      dup1\n        /* \"contracts/aquo/AquoLink.sol\":3585:3588  fee */\n      0x0a\n        /* \"contracts/aquo/AquoLink.sol\":3585:3602  fee = _feeInJuels */\n      dup2\n      swap1\n      sstore\n      pop\n        /* \"contracts/aquo/AquoLink.sol\":3513:3610  function setFeeInJuels(uint256 _feeInJuels) public onlyOwner {... */\n      pop\n      jump\t// out\n        /* \"@chainlink/contracts/src/v0.8/ConfirmedOwnerWithProposal.sol\":826:924  function transferOwnership(address to) public override onlyOwner {... */\n    tag_62:\n        /* \"@chainlink/contracts/src/v0.8/ConfirmedOwnerWithProposal.sol\":1956:1976  _validateOwnership() */\n      tag_139\n        /* \"@chainlink/contracts/src/v0.8/ConfirmedOwnerWithProposal.sol\":1956:1974  _validateOwnership */\n      tag_68\n        /* \"@chainlink/contracts/src/v0.8/ConfirmedOwnerWithProposal.sol\":1956:1976  _validateOwnership() */\n      jump\t// in\n    tag_139:\n        /* \"@chainlink/contracts/src/v0.8/ConfirmedOwnerWithProposal.sol\":897:919  _transferOwnership(to) */\n      tag_141\n        /* \"@chainlink/contracts/src/v0.8/ConfirmedOwnerWithProposal.sol\":916:918  to */\n      dup2\n        /* \"@chainlink/contracts/src/v0.8/ConfirmedOwnerWithProposal.sol\":897:915  _transferOwnership */\n      tag_142\n        /* \"@chainlink/contracts/src/v0.8/ConfirmedOwnerWithProposal.sol\":897:919  _transferOwnership(to) */\n      jump\t// in\n    tag_141:\n        /* \"@chainlink/contracts/src/v0.8/ConfirmedOwnerWithProposal.sol\":826:924  function transferOwnership(address to) public override onlyOwner {... */\n      pop\n      jump\t// out\n        /* \"contracts/aquo/AquoLink.sol\":3616:3783  function setFeeInHundredthsOfLink(uint256 _feeInHundredthsOfLink) public onlyOwner {... */\n    tag_65:\n        /* \"@chainlink/contracts/src/v0.8/ConfirmedOwnerWithProposal.sol\":1956:1976  _validateOwnership() */\n      tag_144\n        /* \"@chainlink/contracts/src/v0.8/ConfirmedOwnerWithProposal.sol\":1956:1974  _validateOwnership */\n      tag_68\n        /* \"@chainlink/contracts/src/v0.8/ConfirmedOwnerWithProposal.sol\":1956:1976  _validateOwnership() */\n      jump\t// in\n    tag_144:\n        /* \"contracts/aquo/AquoLink.sol\":3710:3775  setFeeInJuels((_feeInHundredthsOfLink * LINK_DIVISIBILITY) / 100) */\n      tag_146\n        /* \"contracts/aquo/AquoLink.sol\":3771:3774  100 */\n      0x64\n        /* \"@chainlink/contracts/src/v0.8/ChainlinkClient.sol\":682:690  10 ** 18 */\n      0x0de0b6b3a7640000\n        /* \"contracts/aquo/AquoLink.sol\":3725:3747  _feeInHundredthsOfLink */\n      dup4\n        /* \"contracts/aquo/AquoLink.sol\":3725:3767  _feeInHundredthsOfLink * LINK_DIVISIBILITY */\n      tag_147\n      swap2\n      swap1\n      tag_100\n      jump\t// in\n    tag_147:\n        /* \"contracts/aquo/AquoLink.sol\":3724:3774  (_feeInHundredthsOfLink * LINK_DIVISIBILITY) / 100 */\n      tag_148\n      swap2\n      swap1\n      tag_102\n      jump\t// in\n    tag_148:\n        /* \"contracts/aquo/AquoLink.sol\":3710:3723  setFeeInJuels */\n      tag_59\n        /* \"contracts/aquo/AquoLink.sol\":3710:3775  setFeeInJuels((_feeInHundredthsOfLink * LINK_DIVISIBILITY) / 100) */\n      jump\t// in\n    tag_146:\n        /* \"contracts/aquo/AquoLink.sol\":3616:3783  function setFeeInHundredthsOfLink(uint256 _feeInHundredthsOfLink) public onlyOwner {... */\n      pop\n      jump\t// out\n        /* \"@chainlink/contracts/src/v0.8/ConfirmedOwnerWithProposal.sol\":1730:1841  function _validateOwnership() internal view {... */\n    tag_68:\n        /* \"@chainlink/contracts/src/v0.8/ConfirmedOwnerWithProposal.sol\":1802:1809  s_owner */\n      0x06\n      0x00\n      swap1\n      sload\n      swap1\n      0x0100\n      exp\n      swap1\n      div\n      0xffffffffffffffffffffffffffffffffffffffff\n      and\n        /* \"@chainlink/contracts/src/v0.8/ConfirmedOwnerWithProposal.sol\":1788:1809  msg.sender == s_owner */\n      0xffffffffffffffffffffffffffffffffffffffff\n      and\n        /* \"@chainlink/contracts/src/v0.8/ConfirmedOwnerWithProposal.sol\":1788:1798  msg.sender */\n      caller\n        /* \"@chainlink/contracts/src/v0.8/ConfirmedOwnerWithProposal.sol\":1788:1809  msg.sender == s_owner */\n      0xffffffffffffffffffffffffffffffffffffffff\n      and\n      eq\n        /* \"@chainlink/contracts/src/v0.8/ConfirmedOwnerWithProposal.sol\":1780:1836  require(msg.sender == s_owner, \"Only callable by owner\") */\n      tag_150\n      jumpi\n      mload(0x40)\n      0x08c379a000000000000000000000000000000000000000000000000000000000\n      dup2\n      mstore\n      0x04\n      add\n      tag_151\n      swap1\n      tag_152\n      jump\t// in\n    tag_151:\n      mload(0x40)\n      dup1\n      swap2\n      sub\n      swap1\n      revert\n    tag_150:\n        /* \"@chainlink/contracts/src/v0.8/ConfirmedOwnerWithProposal.sol\":1730:1841  function _validateOwnership() internal view {... */\n      jump\t// out\n        /* \"@chainlink/contracts/src/v0.8/ChainlinkClient.sol\":2437:2694  function buildOperatorRequest(... */\n    tag_74:\n        /* \"@chainlink/contracts/src/v0.8/ChainlinkClient.sol\":2552:2576  Chainlink.Request memory */\n      tag_153\n      tag_154\n      jump\t// in\n    tag_153:\n        /* \"@chainlink/contracts/src/v0.8/ChainlinkClient.sol\":2584:2612  Chainlink.Request memory req */\n      tag_156\n      tag_154\n      jump\t// in\n    tag_156:\n        /* \"@chainlink/contracts/src/v0.8/ChainlinkClient.sol\":2625:2689  req.initialize(specId, address(this), callbackFunctionSignature) */\n      tag_157\n        /* \"@chainlink/contracts/src/v0.8/ChainlinkClient.sol\":2640:2646  specId */\n      dup5\n        /* \"@chainlink/contracts/src/v0.8/ChainlinkClient.sol\":2656:2660  this */\n      address\n        /* \"@chainlink/contracts/src/v0.8/ChainlinkClient.sol\":2663:2688  callbackFunctionSignature */\n      dup6\n        /* \"@chainlink/contracts/src/v0.8/ChainlinkClient.sol\":2625:2628  req */\n      dup5\n        /* \"@chainlink/contracts/src/v0.8/ChainlinkClient.sol\":2625:2639  req.initialize */\n      tag_158\n      swap1\n        /* \"@chainlink/contracts/src/v0.8/ChainlinkClient.sol\":2625:2689  req.initialize(specId, address(this), callbackFunctionSignature) */\n      swap4\n      swap3\n      swap2\n      swap1\n      0xffffffff\n      and\n      jump\t// in\n    tag_157:\n        /* \"@chainlink/contracts/src/v0.8/ChainlinkClient.sol\":2618:2689  return req.initialize(specId, address(this), callbackFunctionSignature) */\n      swap2\n      pop\n      pop\n        /* \"@chainlink/contracts/src/v0.8/ChainlinkClient.sol\":2437:2694  function buildOperatorRequest(... */\n      swap3\n      swap2\n      pop\n      pop\n      jump\t// out\n        /* \"@chainlink/contracts/src/v0.8/Chainlink.sol\":1951:2110  function add(Request memory self, string memory key, string memory value) internal pure {... */\n    tag_76:\n        /* \"@chainlink/contracts/src/v0.8/Chainlink.sol\":2045:2071  self.buf.encodeString(key) */\n      tag_160\n        /* \"@chainlink/contracts/src/v0.8/Chainlink.sol\":2067:2070  key */\n      dup3\n        /* \"@chainlink/contracts/src/v0.8/Chainlink.sol\":2045:2049  self */\n      dup5\n        /* \"@chainlink/contracts/src/v0.8/Chainlink.sol\":2045:2053  self.buf */\n      0x80\n      add\n      mload\n        /* \"@chainlink/contracts/src/v0.8/Chainlink.sol\":2045:2066  self.buf.encodeString */\n      tag_161\n      swap1\n        /* \"@chainlink/contracts/src/v0.8/Chainlink.sol\":2045:2071  self.buf.encodeString(key) */\n      swap2\n      swap1\n      0xffffffff\n      and\n      jump\t// in\n    tag_160:\n        /* \"@chainlink/contracts/src/v0.8/Chainlink.sol\":2077:2105  self.buf.encodeString(value) */\n      tag_162\n        /* \"@chainlink/contracts/src/v0.8/Chainlink.sol\":2099:2104  value */\n      dup2\n        /* \"@chainlink/contracts/src/v0.8/Chainlink.sol\":2077:2081  self */\n      dup5\n        /* \"@chainlink/contracts/src/v0.8/Chainlink.sol\":2077:2085  self.buf */\n      0x80\n      add\n      mload\n        /* \"@chainlink/contracts/src/v0.8/Chainlink.sol\":2077:2098  self.buf.encodeString */\n      tag_161\n      swap1\n        /* \"@chainlink/contracts/src/v0.8/Chainlink.sol\":2077:2105  self.buf.encodeString(value) */\n      swap2\n      swap1\n      0xffffffff\n      and\n      jump\t// in\n    tag_162:\n        /* \"@chainlink/contracts/src/v0.8/Chainlink.sol\":1951:2110  function add(Request memory self, string memory key, string memory value) internal pure {... */\n      pop\n      pop\n      pop\n      jump\t// out\n        /* \"@chainlink/contracts/src/v0.8/Chainlink.sol\":2680:2832  function addInt(Request memory self, string memory key, int256 value) internal pure {... */\n    tag_83:\n        /* \"@chainlink/contracts/src/v0.8/Chainlink.sol\":2770:2796  self.buf.encodeString(key) */\n      tag_164\n        /* \"@chainlink/contracts/src/v0.8/Chainlink.sol\":2792:2795  key */\n      dup3\n        /* \"@chainlink/contracts/src/v0.8/Chainlink.sol\":2770:2774  self */\n      dup5\n        /* \"@chainlink/contracts/src/v0.8/Chainlink.sol\":2770:2778  self.buf */\n      0x80\n      add\n      mload\n        /* \"@chainlink/contracts/src/v0.8/Chainlink.sol\":2770:2791  self.buf.encodeString */\n      tag_161\n      swap1\n        /* \"@chainlink/contracts/src/v0.8/Chainlink.sol\":2770:2796  self.buf.encodeString(key) */\n      swap2\n      swap1\n      0xffffffff\n      and\n      jump\t// in\n    tag_164:\n        /* \"@chainlink/contracts/src/v0.8/Chainlink.sol\":2802:2827  self.buf.encodeInt(value) */\n      tag_165\n        /* \"@chainlink/contracts/src/v0.8/Chainlink.sol\":2821:2826  value */\n      dup2\n        /* \"@chainlink/contracts/src/v0.8/Chainlink.sol\":2802:2806  self */\n      dup5\n        /* \"@chainlink/contracts/src/v0.8/Chainlink.sol\":2802:2810  self.buf */\n      0x80\n      add\n      mload\n        /* \"@chainlink/contracts/src/v0.8/Chainlink.sol\":2802:2820  self.buf.encodeInt */\n      tag_166\n      swap1\n        /* \"@chainlink/contracts/src/v0.8/Chainlink.sol\":2802:2827  self.buf.encodeInt(value) */\n      swap2\n      swap1\n      0xffffffff\n      and\n      jump\t// in\n    tag_165:\n        /* \"@chainlink/contracts/src/v0.8/Chainlink.sol\":2680:2832  function addInt(Request memory self, string memory key, int256 value) internal pure {... */\n      pop\n      pop\n      pop\n      jump\t// out\n        /* \"@chainlink/contracts/src/v0.8/ChainlinkClient.sol\":4811:4986  function sendOperatorRequest(Chainlink.Request memory req, uint256 payment) internal returns (bytes32) {... */\n    tag_85:\n        /* \"@chainlink/contracts/src/v0.8/ChainlinkClient.sol\":4905:4912  bytes32 */\n      0x00\n        /* \"@chainlink/contracts/src/v0.8/ChainlinkClient.sol\":4927:4981  sendOperatorRequestTo(address(s_oracle), req, payment) */\n      tag_168\n        /* \"@chainlink/contracts/src/v0.8/ChainlinkClient.sol\":4957:4965  s_oracle */\n      0x03\n      0x00\n      swap1\n      sload\n      swap1\n      0x0100\n      exp\n      swap1\n      div\n      0xffffffffffffffffffffffffffffffffffffffff\n      and\n        /* \"@chainlink/contracts/src/v0.8/ChainlinkClient.sol\":4968:4971  req */\n      dup5\n        /* \"@chainlink/contracts/src/v0.8/ChainlinkClient.sol\":4973:4980  payment */\n      dup5\n        /* \"@chainlink/contracts/src/v0.8/ChainlinkClient.sol\":4927:4948  sendOperatorRequestTo */\n      tag_169\n        /* \"@chainlink/contracts/src/v0.8/ChainlinkClient.sol\":4927:4981  sendOperatorRequestTo(address(s_oracle), req, payment) */\n      jump\t// in\n    tag_168:\n        /* \"@chainlink/contracts/src/v0.8/ChainlinkClient.sol\":4920:4981  return sendOperatorRequestTo(address(s_oracle), req, payment) */\n      swap1\n      pop\n        /* \"@chainlink/contracts/src/v0.8/ChainlinkClient.sol\":4811:4986  function sendOperatorRequest(Chainlink.Request memory req, uint256 payment) internal returns (bytes32) {... */\n      swap3\n      swap2\n      pop\n      pop\n      jump\t// out\n        /* \"@chainlink/contracts/src/v0.8/ChainlinkClient.sol\":8398:8512  function setChainlinkOracle(address oracleAddress) internal {... */\n    tag_95:\n        /* \"@chainlink/contracts/src/v0.8/ChainlinkClient.sol\":8493:8506  oracleAddress */\n      dup1\n        /* \"@chainlink/contracts/src/v0.8/ChainlinkClient.sol\":8464:8472  s_oracle */\n      0x03\n      0x00\n        /* \"@chainlink/contracts/src/v0.8/ChainlinkClient.sol\":8464:8507  s_oracle = OperatorInterface(oracleAddress) */\n      0x0100\n      exp\n      dup2\n      sload\n      dup2\n      0xffffffffffffffffffffffffffffffffffffffff\n      mul\n      not\n      and\n      swap1\n      dup4\n      0xffffffffffffffffffffffffffffffffffffffff\n      and\n      mul\n      or\n      swap1\n      sstore\n      pop\n        /* \"@chainlink/contracts/src/v0.8/ChainlinkClient.sol\":8398:8512  function setChainlinkOracle(address oracleAddress) internal {... */\n      pop\n      jump\t// out\n        /* \"@chainlink/contracts/src/v0.8/ChainlinkClient.sol\":9105:9203  function chainlinkTokenAddress() internal view returns (address) {... */\n    tag_112:\n        /* \"@chainlink/contracts/src/v0.8/ChainlinkClient.sol\":9161:9168  address */\n      0x00\n        /* \"@chainlink/contracts/src/v0.8/ChainlinkClient.sol\":9191:9197  s_link */\n      0x02\n      0x00\n      swap1\n      sload\n      swap1\n      0x0100\n      exp\n      swap1\n      div\n      0xffffffffffffffffffffffffffffffffffffffff\n      and\n        /* \"@chainlink/contracts/src/v0.8/ChainlinkClient.sol\":9176:9198  return address(s_link) */\n      swap1\n      pop\n        /* \"@chainlink/contracts/src/v0.8/ChainlinkClient.sol\":9105:9203  function chainlinkTokenAddress() internal view returns (address) {... */\n      swap1\n      jump\t// out\n        /* \"@chainlink/contracts/src/v0.8/ConfirmedOwnerWithProposal.sol\":1497:1685  function _transferOwnership(address to) private {... */\n    tag_142:\n        /* \"@chainlink/contracts/src/v0.8/ConfirmedOwnerWithProposal.sol\":1565:1575  msg.sender */\n      caller\n        /* \"@chainlink/contracts/src/v0.8/ConfirmedOwnerWithProposal.sol\":1559:1575  to != msg.sender */\n      0xffffffffffffffffffffffffffffffffffffffff\n      and\n        /* \"@chainlink/contracts/src/v0.8/ConfirmedOwnerWithProposal.sol\":1559:1561  to */\n      dup2\n        /* \"@chainlink/contracts/src/v0.8/ConfirmedOwnerWithProposal.sol\":1559:1575  to != msg.sender */\n      0xffffffffffffffffffffffffffffffffffffffff\n      and\n      sub\n        /* \"@chainlink/contracts/src/v0.8/ConfirmedOwnerWithProposal.sol\":1551:1603  require(to != msg.sender, \"Cannot transfer to self\") */\n      tag_173\n      jumpi\n      mload(0x40)\n      0x08c379a000000000000000000000000000000000000000000000000000000000\n      dup2\n      mstore\n      0x04\n      add\n      tag_174\n      swap1\n      tag_175\n      jump\t// in\n    tag_174:\n      mload(0x40)\n      dup1\n      swap2\n      sub\n      swap1\n      revert\n    tag_173:\n        /* \"@chainlink/contracts/src/v0.8/ConfirmedOwnerWithProposal.sol\":1627:1629  to */\n      dup1\n        /* \"@chainlink/contracts/src/v0.8/ConfirmedOwnerWithProposal.sol\":1610:1624  s_pendingOwner */\n      0x07\n      0x00\n        /* \"@chainlink/contracts/src/v0.8/ConfirmedOwnerWithProposal.sol\":1610:1629  s_pendingOwner = to */\n      0x0100\n      exp\n      dup2\n      sload\n      dup2\n      0xffffffffffffffffffffffffffffffffffffffff\n      mul\n      not\n      and\n      swap1\n      dup4\n      0xffffffffffffffffffffffffffffffffffffffff\n      and\n      mul\n      or\n      swap1\n      sstore\n      pop\n        /* \"@chainlink/contracts/src/v0.8/ConfirmedOwnerWithProposal.sol\":1677:1679  to */\n      dup1\n        /* \"@chainlink/contracts/src/v0.8/ConfirmedOwnerWithProposal.sol\":1641:1680  OwnershipTransferRequested(s_owner, to) */\n      0xffffffffffffffffffffffffffffffffffffffff\n      and\n        /* \"@chainlink/contracts/src/v0.8/ConfirmedOwnerWithProposal.sol\":1668:1675  s_owner */\n      0x06\n      0x00\n      swap1\n      sload\n      swap1\n      0x0100\n      exp\n      swap1\n      div\n      0xffffffffffffffffffffffffffffffffffffffff\n      and\n        /* \"@chainlink/contracts/src/v0.8/ConfirmedOwnerWithProposal.sol\":1641:1680  OwnershipTransferRequested(s_owner, to) */\n      0xffffffffffffffffffffffffffffffffffffffff\n      and\n      0xed8889f560326eb138920d842192f0eb3dd22b4f139c87a2c57538e05bae1278\n      mload(0x40)\n      mload(0x40)\n      dup1\n      swap2\n      sub\n      swap1\n      log3\n        /* \"@chainlink/contracts/src/v0.8/ConfirmedOwnerWithProposal.sol\":1497:1685  function _transferOwnership(address to) private {... */\n      pop\n      jump\t// out\n        /* \"@chainlink/contracts/src/v0.8/Chainlink.sol\":987:1338  function initialize(... */\n    tag_158:\n        /* \"@chainlink/contracts/src/v0.8/Chainlink.sol\":1129:1153  Chainlink.Request memory */\n      tag_176\n      tag_154\n      jump\t// in\n    tag_176:\n        /* \"@chainlink/contracts/src/v0.8/Chainlink.sol\":1161:1210  BufferChainlink.init(self.buf, defaultBufferSize) */\n      tag_178\n        /* \"@chainlink/contracts/src/v0.8/Chainlink.sol\":1182:1186  self */\n      dup6\n        /* \"@chainlink/contracts/src/v0.8/Chainlink.sol\":1182:1190  self.buf */\n      0x80\n      add\n      mload\n        /* \"@chainlink/contracts/src/v0.8/Chainlink.sol\":361:364  256 */\n      0x0100\n        /* \"@chainlink/contracts/src/v0.8/Chainlink.sol\":1161:1181  BufferChainlink.init */\n      tag_179\n        /* \"@chainlink/contracts/src/v0.8/Chainlink.sol\":1161:1210  BufferChainlink.init(self.buf, defaultBufferSize) */\n      jump\t// in\n    tag_178:\n      pop\n        /* \"@chainlink/contracts/src/v0.8/Chainlink.sol\":1226:1231  jobId */\n      dup4\n        /* \"@chainlink/contracts/src/v0.8/Chainlink.sol\":1216:1220  self */\n      dup6\n        /* \"@chainlink/contracts/src/v0.8/Chainlink.sol\":1216:1223  self.id */\n      0x00\n      add\n        /* \"@chainlink/contracts/src/v0.8/Chainlink.sol\":1216:1231  self.id = jobId */\n      dup2\n      dup2\n      mstore\n      pop\n      pop\n        /* \"@chainlink/contracts/src/v0.8/Chainlink.sol\":1260:1272  callbackAddr */\n      dup3\n        /* \"@chainlink/contracts/src/v0.8/Chainlink.sol\":1237:1241  self */\n      dup6\n        /* \"@chainlink/contracts/src/v0.8/Chainlink.sol\":1237:1257  self.callbackAddress */\n      0x20\n      add\n        /* \"@chainlink/contracts/src/v0.8/Chainlink.sol\":1237:1272  self.callbackAddress = callbackAddr */\n      swap1\n      0xffffffffffffffffffffffffffffffffffffffff\n      and\n      swap1\n      dup2\n      0xffffffffffffffffffffffffffffffffffffffff\n      and\n      dup2\n      mstore\n      pop\n      pop\n        /* \"@chainlink/contracts/src/v0.8/Chainlink.sol\":1304:1316  callbackFunc */\n      dup2\n        /* \"@chainlink/contracts/src/v0.8/Chainlink.sol\":1278:1282  self */\n      dup6\n        /* \"@chainlink/contracts/src/v0.8/Chainlink.sol\":1278:1301  self.callbackFunctionId */\n      0x40\n      add\n        /* \"@chainlink/contracts/src/v0.8/Chainlink.sol\":1278:1316  self.callbackFunctionId = callbackFunc */\n      swap1\n      not(0xffffffffffffffffffffffffffffffffffffffffffffffffffffffff)\n      and\n      swap1\n      dup2\n      not(0xffffffffffffffffffffffffffffffffffffffffffffffffffffffff)\n      and\n      dup2\n      mstore\n      pop\n      pop\n        /* \"@chainlink/contracts/src/v0.8/Chainlink.sol\":1329:1333  self */\n      dup5\n        /* \"@chainlink/contracts/src/v0.8/Chainlink.sol\":1322:1333  return self */\n      swap1\n      pop\n        /* \"@chainlink/contracts/src/v0.8/Chainlink.sol\":987:1338  function initialize(... */\n      swap5\n      swap4\n      pop\n      pop\n      pop\n      pop\n      jump\t// out\n        /* \"@chainlink/contracts/src/v0.8/vendor/CBORChainlink.sol\":2777:2981  function encodeString(BufferChainlink.buffer memory buf, string memory value) internal pure {... */\n    tag_161:\n        /* \"@chainlink/contracts/src/v0.8/vendor/CBORChainlink.sol\":2875:2946  encodeFixedNumeric(buf, MAJOR_TYPE_STRING, uint64(bytes(value).length)) */\n      tag_181\n        /* \"@chainlink/contracts/src/v0.8/vendor/CBORChainlink.sol\":2894:2897  buf */\n      dup3\n        /* \"@chainlink/contracts/src/v0.8/vendor/CBORChainlink.sol\":383:384  3 */\n      0x03\n        /* \"@chainlink/contracts/src/v0.8/vendor/CBORChainlink.sol\":2931:2936  value */\n      dup4\n        /* \"@chainlink/contracts/src/v0.8/vendor/CBORChainlink.sol\":2925:2944  bytes(value).length */\n      mload\n        /* \"@chainlink/contracts/src/v0.8/vendor/CBORChainlink.sol\":2875:2893  encodeFixedNumeric */\n      tag_182\n        /* \"@chainlink/contracts/src/v0.8/vendor/CBORChainlink.sol\":2875:2946  encodeFixedNumeric(buf, MAJOR_TYPE_STRING, uint64(bytes(value).length)) */\n      jump\t// in\n    tag_181:\n        /* \"@chainlink/contracts/src/v0.8/vendor/CBORChainlink.sol\":2952:2976  buf.append(bytes(value)) */\n      tag_183\n        /* \"@chainlink/contracts/src/v0.8/vendor/CBORChainlink.sol\":2969:2974  value */\n      dup2\n        /* \"@chainlink/contracts/src/v0.8/vendor/CBORChainlink.sol\":2952:2955  buf */\n      dup4\n        /* \"@chainlink/contracts/src/v0.8/vendor/CBORChainlink.sol\":2952:2962  buf.append */\n      tag_184\n      swap1\n        /* \"@chainlink/contracts/src/v0.8/vendor/CBORChainlink.sol\":2952:2976  buf.append(bytes(value)) */\n      swap2\n      swap1\n      0xffffffff\n      and\n      jump\t// in\n    tag_183:\n      pop\n        /* \"@chainlink/contracts/src/v0.8/vendor/CBORChainlink.sol\":2777:2981  function encodeString(BufferChainlink.buffer memory buf, string memory value) internal pure {... */\n      pop\n      pop\n      jump\t// out\n        /* \"@chainlink/contracts/src/v0.8/vendor/CBORChainlink.sol\":1704:2150  function encodeInt(BufferChainlink.buffer memory buf, int value) internal pure {... */\n    tag_166:\n        /* \"@chainlink/contracts/src/v0.8/vendor/CBORChainlink.sol\":1800:1820  -0x10000000000000000 */\n      0xffffffffffffffffffffffffffffffffffffffffffffffff0000000000000000\n        /* \"@chainlink/contracts/src/v0.8/vendor/CBORChainlink.sol\":1792:1797  value */\n      dup2\n        /* \"@chainlink/contracts/src/v0.8/vendor/CBORChainlink.sol\":1792:1820  value < -0x10000000000000000 */\n      slt\n        /* \"@chainlink/contracts/src/v0.8/vendor/CBORChainlink.sol\":1789:2146  if(value < -0x10000000000000000) {... */\n      iszero\n      tag_186\n      jumpi\n        /* \"@chainlink/contracts/src/v0.8/vendor/CBORChainlink.sol\":1830:1860  encodeSignedBigNum(buf, value) */\n      tag_187\n        /* \"@chainlink/contracts/src/v0.8/vendor/CBORChainlink.sol\":1849:1852  buf */\n      dup3\n        /* \"@chainlink/contracts/src/v0.8/vendor/CBORChainlink.sol\":1854:1859  value */\n      dup3\n        /* \"@chainlink/contracts/src/v0.8/vendor/CBORChainlink.sol\":1830:1848  encodeSignedBigNum */\n      tag_188\n        /* \"@chainlink/contracts/src/v0.8/vendor/CBORChainlink.sol\":1830:1860  encodeSignedBigNum(buf, value) */\n      jump\t// in\n    tag_187:\n        /* \"@chainlink/contracts/src/v0.8/vendor/CBORChainlink.sol\":1789:2146  if(value < -0x10000000000000000) {... */\n      jump(tag_189)\n    tag_186:\n        /* \"@chainlink/contracts/src/v0.8/vendor/CBORChainlink.sol\":1884:1902  0xFFFFFFFFFFFFFFFF */\n      0xffffffffffffffff\n        /* \"@chainlink/contracts/src/v0.8/vendor/CBORChainlink.sol\":1876:1881  value */\n      dup2\n        /* \"@chainlink/contracts/src/v0.8/vendor/CBORChainlink.sol\":1876:1902  value > 0xFFFFFFFFFFFFFFFF */\n      sgt\n        /* \"@chainlink/contracts/src/v0.8/vendor/CBORChainlink.sol\":1873:2146  if(value > 0xFFFFFFFFFFFFFFFF) {... */\n      iszero\n      tag_190\n      jumpi\n        /* \"@chainlink/contracts/src/v0.8/vendor/CBORChainlink.sol\":1912:1942  encodeBigNum(buf, uint(value)) */\n      tag_191\n        /* \"@chainlink/contracts/src/v0.8/vendor/CBORChainlink.sol\":1925:1928  buf */\n      dup3\n        /* \"@chainlink/contracts/src/v0.8/vendor/CBORChainlink.sol\":1935:1940  value */\n      dup3\n        /* \"@chainlink/contracts/src/v0.8/vendor/CBORChainlink.sol\":1912:1924  encodeBigNum */\n      tag_192\n        /* \"@chainlink/contracts/src/v0.8/vendor/CBORChainlink.sol\":1912:1942  encodeBigNum(buf, uint(value)) */\n      jump\t// in\n    tag_191:\n        /* \"@chainlink/contracts/src/v0.8/vendor/CBORChainlink.sol\":1873:2146  if(value > 0xFFFFFFFFFFFFFFFF) {... */\n      jump(tag_193)\n    tag_190:\n        /* \"@chainlink/contracts/src/v0.8/vendor/CBORChainlink.sol\":1967:1968  0 */\n      0x00\n        /* \"@chainlink/contracts/src/v0.8/vendor/CBORChainlink.sol\":1958:1963  value */\n      dup2\n        /* \"@chainlink/contracts/src/v0.8/vendor/CBORChainlink.sol\":1958:1968  value >= 0 */\n      slt\n        /* \"@chainlink/contracts/src/v0.8/vendor/CBORChainlink.sol\":1955:2146  if(value >= 0) {... */\n      tag_194\n      jumpi\n        /* \"@chainlink/contracts/src/v0.8/vendor/CBORChainlink.sol\":1978:2041  encodeFixedNumeric(buf, MAJOR_TYPE_INT, uint64(uint256(value))) */\n      tag_195\n        /* \"@chainlink/contracts/src/v0.8/vendor/CBORChainlink.sol\":1997:2000  buf */\n      dup3\n        /* \"@chainlink/contracts/src/v0.8/vendor/CBORChainlink.sol\":234:235  0 */\n      0x00\n        /* \"@chainlink/contracts/src/v0.8/vendor/CBORChainlink.sol\":2033:2038  value */\n      dup4\n        /* \"@chainlink/contracts/src/v0.8/vendor/CBORChainlink.sol\":1978:1996  encodeFixedNumeric */\n      tag_182\n        /* \"@chainlink/contracts/src/v0.8/vendor/CBORChainlink.sol\":1978:2041  encodeFixedNumeric(buf, MAJOR_TYPE_INT, uint64(uint256(value))) */\n      jump\t// in\n    tag_195:\n        /* \"@chainlink/contracts/src/v0.8/vendor/CBORChainlink.sol\":1955:2146  if(value >= 0) {... */\n      jump(tag_196)\n    tag_194:\n        /* \"@chainlink/contracts/src/v0.8/vendor/CBORChainlink.sol\":2062:2139  encodeFixedNumeric(buf, MAJOR_TYPE_NEGATIVE_INT, uint64(uint256(-1 - value))) */\n      tag_197\n        /* \"@chainlink/contracts/src/v0.8/vendor/CBORChainlink.sol\":2081:2084  buf */\n      dup3\n        /* \"@chainlink/contracts/src/v0.8/vendor/CBORChainlink.sol\":288:289  1 */\n      0x01\n        /* \"@chainlink/contracts/src/v0.8/vendor/CBORChainlink.sol\":2131:2136  value */\n      dup4\n        /* \"@chainlink/contracts/src/v0.8/vendor/CBORChainlink.sol\":2126:2128  -1 */\n      0xffffffffffffffffffffffffffffffffffffffffffffffffffffffffffffffff\n        /* \"@chainlink/contracts/src/v0.8/vendor/CBORChainlink.sol\":2126:2136  -1 - value */\n      tag_198\n      swap2\n      swap1\n      tag_199\n      jump\t// in\n    tag_198:\n        /* \"@chainlink/contracts/src/v0.8/vendor/CBORChainlink.sol\":2062:2080  encodeFixedNumeric */\n      tag_182\n        /* \"@chainlink/contracts/src/v0.8/vendor/CBORChainlink.sol\":2062:2139  encodeFixedNumeric(buf, MAJOR_TYPE_NEGATIVE_INT, uint64(uint256(-1 - value))) */\n      jump\t// in\n    tag_197:\n        /* \"@chainlink/contracts/src/v0.8/vendor/CBORChainlink.sol\":1955:2146  if(value >= 0) {... */\n    tag_196:\n        /* \"@chainlink/contracts/src/v0.8/vendor/CBORChainlink.sol\":1873:2146  if(value > 0xFFFFFFFFFFFFFFFF) {... */\n    tag_193:\n        /* \"@chainlink/contracts/src/v0.8/vendor/CBORChainlink.sol\":1789:2146  if(value < -0x10000000000000000) {... */\n    tag_189:\n        /* \"@chainlink/contracts/src/v0.8/vendor/CBORChainlink.sol\":1704:2150  function encodeInt(BufferChainlink.buffer memory buf, int value) internal pure {... */\n      pop\n      pop\n      jump\t// out\n        /* \"@chainlink/contracts/src/v0.8/ChainlinkClient.sol\":5557:6287  function sendOperatorRequestTo(... */\n    tag_169:\n        /* \"@chainlink/contracts/src/v0.8/ChainlinkClient.sol\":5692:5709  bytes32 requestId */\n      0x00\n        /* \"@chainlink/contracts/src/v0.8/ChainlinkClient.sol\":5717:5730  uint256 nonce */\n      dup1\n        /* \"@chainlink/contracts/src/v0.8/ChainlinkClient.sol\":5733:5747  s_requestCount */\n      sload(0x04)\n        /* \"@chainlink/contracts/src/v0.8/ChainlinkClient.sol\":5717:5747  uint256 nonce = s_requestCount */\n      swap1\n      pop\n        /* \"@chainlink/contracts/src/v0.8/ChainlinkClient.sol\":5778:5779  1 */\n      0x01\n        /* \"@chainlink/contracts/src/v0.8/ChainlinkClient.sol\":5770:5775  nonce */\n      dup2\n        /* \"@chainlink/contracts/src/v0.8/ChainlinkClient.sol\":5770:5779  nonce + 1 */\n      tag_201\n      swap2\n      swap1\n      tag_202\n      jump\t// in\n    tag_201:\n        /* \"@chainlink/contracts/src/v0.8/ChainlinkClient.sol\":5753:5767  s_requestCount */\n      0x04\n        /* \"@chainlink/contracts/src/v0.8/ChainlinkClient.sol\":5753:5779  s_requestCount = nonce + 1 */\n      dup2\n      swap1\n      sstore\n      pop\n        /* \"@chainlink/contracts/src/v0.8/ChainlinkClient.sol\":5785:5812  bytes memory encodedRequest */\n      0x00\n        /* \"@chainlink/contracts/src/v0.8/ChainlinkClient.sol\":5845:5887  OperatorInterface.operatorRequest.selector */\n      shl(0xe0, 0x3c6d41b9)\n        /* \"@chainlink/contracts/src/v0.8/ChainlinkClient.sol\":793:794  0 */\n      0x00\n        /* \"@chainlink/contracts/src/v0.8/ChainlinkClient.sol\":737:738  0 */\n      dup1\n        /* \"@chainlink/contracts/src/v0.8/ChainlinkClient.sol\":6108:6111  req */\n      dup8\n        /* \"@chainlink/contracts/src/v0.8/ChainlinkClient.sol\":6108:6114  req.id */\n      0x00\n      add\n      mload\n        /* \"@chainlink/contracts/src/v0.8/ChainlinkClient.sol\":6122:6125  req */\n      dup9\n        /* \"@chainlink/contracts/src/v0.8/ChainlinkClient.sol\":6122:6144  req.callbackFunctionId */\n      0x40\n      add\n      mload\n        /* \"@chainlink/contracts/src/v0.8/ChainlinkClient.sol\":6152:6157  nonce */\n      dup7\n        /* \"@chainlink/contracts/src/v0.8/ChainlinkClient.sol\":900:901  2 */\n      0x02\n        /* \"@chainlink/contracts/src/v0.8/ChainlinkClient.sol\":6194:6197  req */\n      dup12\n        /* \"@chainlink/contracts/src/v0.8/ChainlinkClient.sol\":6194:6201  req.buf */\n      0x80\n      add\n      mload\n        /* \"@chainlink/contracts/src/v0.8/ChainlinkClient.sol\":6194:6205  req.buf.buf */\n      0x00\n      add\n      mload\n        /* \"@chainlink/contracts/src/v0.8/ChainlinkClient.sol\":5815:6211  abi.encodeWithSelector(... */\n      add(0x24, mload(0x40))\n      tag_203\n      swap8\n      swap7\n      swap6\n      swap5\n      swap4\n      swap3\n      swap2\n      swap1\n      tag_204\n      jump\t// in\n    tag_203:\n      mload(0x40)\n      0x20\n      dup2\n      dup4\n      sub\n      sub\n      dup2\n      mstore\n      swap1\n      0x40\n      mstore\n      swap1\n      not(0xffffffffffffffffffffffffffffffffffffffffffffffffffffffff)\n      and\n      0x20\n      dup3\n      add\n      dup1\n      mload\n      0xffffffffffffffffffffffffffffffffffffffffffffffffffffffff\n      dup4\n      dup2\n      dup4\n      and\n      or\n      dup4\n      mstore\n      pop\n      pop\n      pop\n      pop\n        /* \"@chainlink/contracts/src/v0.8/ChainlinkClient.sol\":5785:6211  bytes memory encodedRequest = abi.encodeWithSelector(... */\n      swap1\n      pop\n        /* \"@chainlink/contracts/src/v0.8/ChainlinkClient.sol\":6224:6282  _rawRequest(oracleAddress, nonce, payment, encodedRequest) */\n      tag_205\n        /* \"@chainlink/contracts/src/v0.8/ChainlinkClient.sol\":6236:6249  oracleAddress */\n      dup7\n        /* \"@chainlink/contracts/src/v0.8/ChainlinkClient.sol\":6251:6256  nonce */\n      dup4\n        /* \"@chainlink/contracts/src/v0.8/ChainlinkClient.sol\":6258:6265  payment */\n      dup7\n        /* \"@chainlink/contracts/src/v0.8/ChainlinkClient.sol\":6267:6281  encodedRequest */\n      dup5\n        /* \"@chainlink/contracts/src/v0.8/ChainlinkClient.sol\":6224:6235  _rawRequest */\n      tag_206\n        /* \"@chainlink/contracts/src/v0.8/ChainlinkClient.sol\":6224:6282  _rawRequest(oracleAddress, nonce, payment, encodedRequest) */\n      jump\t// in\n    tag_205:\n        /* \"@chainlink/contracts/src/v0.8/ChainlinkClient.sol\":6217:6282  return _rawRequest(oracleAddress, nonce, payment, encodedRequest) */\n      swap3\n      pop\n      pop\n      pop\n        /* \"@chainlink/contracts/src/v0.8/ChainlinkClient.sol\":5557:6287  function sendOperatorRequestTo(... */\n      swap4\n      swap3\n      pop\n      pop\n      pop\n      jump\t// out\n        /* \"@chainlink/contracts/src/v0.8/vendor/BufferChainlink.sol\":1001:1400  function init(buffer memory buf, uint256 capacity) internal pure returns (buffer memory) {... */\n    tag_179:\n        /* \"@chainlink/contracts/src/v0.8/vendor/BufferChainlink.sol\":1075:1088  buffer memory */\n      tag_207\n      tag_208\n      jump\t// in\n    tag_207:\n        /* \"@chainlink/contracts/src/v0.8/vendor/BufferChainlink.sol\":1117:1118  0 */\n      0x00\n        /* \"@chainlink/contracts/src/v0.8/vendor/BufferChainlink.sol\":1111:1113  32 */\n      0x20\n        /* \"@chainlink/contracts/src/v0.8/vendor/BufferChainlink.sol\":1100:1108  capacity */\n      dup4\n        /* \"@chainlink/contracts/src/v0.8/vendor/BufferChainlink.sol\":1100:1113  capacity % 32 */\n      tag_210\n      swap2\n      swap1\n      tag_211\n      jump\t// in\n    tag_210:\n        /* \"@chainlink/contracts/src/v0.8/vendor/BufferChainlink.sol\":1100:1118  capacity % 32 != 0 */\n      eq\n        /* \"@chainlink/contracts/src/v0.8/vendor/BufferChainlink.sol\":1096:1167  if (capacity % 32 != 0) {... */\n      tag_212\n      jumpi\n        /* \"@chainlink/contracts/src/v0.8/vendor/BufferChainlink.sol\":1157:1159  32 */\n      0x20\n        /* \"@chainlink/contracts/src/v0.8/vendor/BufferChainlink.sol\":1146:1154  capacity */\n      dup3\n        /* \"@chainlink/contracts/src/v0.8/vendor/BufferChainlink.sol\":1146:1159  capacity % 32 */\n      tag_213\n      swap2\n      swap1\n      tag_211\n      jump\t// in\n    tag_213:\n        /* \"@chainlink/contracts/src/v0.8/vendor/BufferChainlink.sol\":1140:1142  32 */\n      0x20\n        /* \"@chainlink/contracts/src/v0.8/vendor/BufferChainlink.sol\":1140:1160  32 - (capacity % 32) */\n      tag_214\n      swap2\n      swap1\n      tag_215\n      jump\t// in\n    tag_214:\n        /* \"@chainlink/contracts/src/v0.8/vendor/BufferChainlink.sol\":1128:1160  capacity += 32 - (capacity % 32) */\n      dup3\n      tag_216\n      swap2\n      swap1\n      tag_202\n      jump\t// in\n    tag_216:\n      swap2\n      pop\n        /* \"@chainlink/contracts/src/v0.8/vendor/BufferChainlink.sol\":1096:1167  if (capacity % 32 != 0) {... */\n    tag_212:\n        /* \"@chainlink/contracts/src/v0.8/vendor/BufferChainlink.sol\":1229:1237  capacity */\n      dup2\n        /* \"@chainlink/contracts/src/v0.8/vendor/BufferChainlink.sol\":1214:1217  buf */\n      dup4\n        /* \"@chainlink/contracts/src/v0.8/vendor/BufferChainlink.sol\":1214:1226  buf.capacity */\n      0x20\n      add\n        /* \"@chainlink/contracts/src/v0.8/vendor/BufferChainlink.sol\":1214:1237  buf.capacity = capacity */\n      dup2\n      dup2\n      mstore\n      pop\n      pop\n        /* \"@chainlink/contracts/src/v0.8/vendor/BufferChainlink.sol\":1277:1281  0x40 */\n      0x40\n        /* \"@chainlink/contracts/src/v0.8/vendor/BufferChainlink.sol\":1271:1282  mload(0x40) */\n      mload\n        /* \"@chainlink/contracts/src/v0.8/vendor/BufferChainlink.sol\":1301:1304  ptr */\n      dup1\n        /* \"@chainlink/contracts/src/v0.8/vendor/BufferChainlink.sol\":1296:1299  buf */\n      dup5\n        /* \"@chainlink/contracts/src/v0.8/vendor/BufferChainlink.sol\":1289:1305  mstore(buf, ptr) */\n      mstore\n        /* \"@chainlink/contracts/src/v0.8/vendor/BufferChainlink.sol\":1324:1325  0 */\n      0x00\n        /* \"@chainlink/contracts/src/v0.8/vendor/BufferChainlink.sol\":1319:1322  ptr */\n      dup2\n        /* \"@chainlink/contracts/src/v0.8/vendor/BufferChainlink.sol\":1312:1326  mstore(ptr, 0) */\n      mstore\n        /* \"@chainlink/contracts/src/v0.8/vendor/BufferChainlink.sol\":1363:1371  capacity */\n      dup3\n        /* \"@chainlink/contracts/src/v0.8/vendor/BufferChainlink.sol\":1358:1361  ptr */\n      dup2\n        /* \"@chainlink/contracts/src/v0.8/vendor/BufferChainlink.sol\":1354:1372  add(ptr, capacity) */\n      add\n        /* \"@chainlink/contracts/src/v0.8/vendor/BufferChainlink.sol\":1350:1352  32 */\n      0x20\n        /* \"@chainlink/contracts/src/v0.8/vendor/BufferChainlink.sol\":1346:1373  add(32, add(ptr, capacity)) */\n      add\n        /* \"@chainlink/contracts/src/v0.8/vendor/BufferChainlink.sol\":1340:1344  0x40 */\n      0x40\n        /* \"@chainlink/contracts/src/v0.8/vendor/BufferChainlink.sol\":1333:1374  mstore(0x40, add(32, add(ptr, capacity))) */\n      mstore\n        /* \"@chainlink/contracts/src/v0.8/vendor/BufferChainlink.sol\":1252:1380  {... */\n      pop\n        /* \"@chainlink/contracts/src/v0.8/vendor/BufferChainlink.sol\":1392:1395  buf */\n      dup3\n        /* \"@chainlink/contracts/src/v0.8/vendor/BufferChainlink.sol\":1385:1395  return buf */\n      swap1\n      pop\n        /* \"@chainlink/contracts/src/v0.8/vendor/BufferChainlink.sol\":1001:1400  function init(buffer memory buf, uint256 capacity) internal pure returns (buffer memory) {... */\n      swap3\n      swap2\n      pop\n      pop\n      jump\t// out\n        /* \"@chainlink/contracts/src/v0.8/vendor/CBORChainlink.sol\":682:1307  function encodeFixedNumeric(BufferChainlink.buffer memory buf, uint8 major, uint64 value) private pure {... */\n    tag_182:\n        /* \"@chainlink/contracts/src/v0.8/vendor/CBORChainlink.sol\":803:805  23 */\n      0x17\n        /* \"@chainlink/contracts/src/v0.8/vendor/CBORChainlink.sol\":794:799  value */\n      dup2\n        /* \"@chainlink/contracts/src/v0.8/vendor/CBORChainlink.sol\":794:805  value <= 23 */\n      0xffffffffffffffff\n      and\n      gt\n        /* \"@chainlink/contracts/src/v0.8/vendor/CBORChainlink.sol\":791:1303  if(value <= 23) {... */\n      tag_218\n      jumpi\n        /* \"@chainlink/contracts/src/v0.8/vendor/CBORChainlink.sol\":815:859  buf.appendUint8(uint8((major << 5) | value)) */\n      tag_219\n        /* \"@chainlink/contracts/src/v0.8/vendor/CBORChainlink.sol\":852:857  value */\n      dup2\n        /* \"@chainlink/contracts/src/v0.8/vendor/CBORChainlink.sol\":847:848  5 */\n      0x05\n        /* \"@chainlink/contracts/src/v0.8/vendor/CBORChainlink.sol\":838:843  major */\n      dup5\n        /* \"@chainlink/contracts/src/v0.8/vendor/CBORChainlink.sol\":838:848  major << 5 */\n      0xff\n      and\n      swap1\n      shl\n        /* \"@chainlink/contracts/src/v0.8/vendor/CBORChainlink.sol\":837:857  (major << 5) | value */\n      0xff\n      and\n      or\n        /* \"@chainlink/contracts/src/v0.8/vendor/CBORChainlink.sol\":815:818  buf */\n      dup5\n        /* \"@chainlink/contracts/src/v0.8/vendor/CBORChainlink.sol\":815:830  buf.appendUint8 */\n      tag_220\n      swap1\n        /* \"@chainlink/contracts/src/v0.8/vendor/CBORChainlink.sol\":815:859  buf.appendUint8(uint8((major << 5) | value)) */\n      swap2\n      swap1\n      0xffffffff\n      and\n      jump\t// in\n    tag_219:\n      pop\n        /* \"@chainlink/contracts/src/v0.8/vendor/CBORChainlink.sol\":791:1303  if(value <= 23) {... */\n      jump(tag_221)\n    tag_218:\n        /* \"@chainlink/contracts/src/v0.8/vendor/CBORChainlink.sol\":885:889  0xFF */\n      0xff\n        /* \"@chainlink/contracts/src/v0.8/vendor/CBORChainlink.sol\":876:881  value */\n      dup2\n        /* \"@chainlink/contracts/src/v0.8/vendor/CBORChainlink.sol\":876:889  value <= 0xFF */\n      0xffffffffffffffff\n      and\n      gt\n        /* \"@chainlink/contracts/src/v0.8/vendor/CBORChainlink.sol\":872:1303  if (value <= 0xFF) {... */\n      tag_222\n      jumpi\n        /* \"@chainlink/contracts/src/v0.8/vendor/CBORChainlink.sol\":899:940  buf.appendUint8(uint8((major << 5) | 24)) */\n      tag_223\n        /* \"@chainlink/contracts/src/v0.8/vendor/CBORChainlink.sol\":936:938  24 */\n      0x18\n        /* \"@chainlink/contracts/src/v0.8/vendor/CBORChainlink.sol\":931:932  5 */\n      0x05\n        /* \"@chainlink/contracts/src/v0.8/vendor/CBORChainlink.sol\":922:927  major */\n      dup5\n        /* \"@chainlink/contracts/src/v0.8/vendor/CBORChainlink.sol\":922:932  major << 5 */\n      0xff\n      and\n      swap1\n      shl\n        /* \"@chainlink/contracts/src/v0.8/vendor/CBORChainlink.sol\":921:938  (major << 5) | 24 */\n      or\n        /* \"@chainlink/contracts/src/v0.8/vendor/CBORChainlink.sol\":899:902  buf */\n      dup5\n        /* \"@chainlink/contracts/src/v0.8/vendor/CBORChainlink.sol\":899:914  buf.appendUint8 */\n      tag_220\n      swap1\n        /* \"@chainlink/contracts/src/v0.8/vendor/CBORChainlink.sol\":899:940  buf.appendUint8(uint8((major << 5) | 24)) */\n      swap2\n      swap1\n      0xffffffff\n      and\n      jump\t// in\n    tag_223:\n      pop\n        /* \"@chainlink/contracts/src/v0.8/vendor/CBORChainlink.sol\":948:971  buf.appendInt(value, 1) */\n      tag_224\n        /* \"@chainlink/contracts/src/v0.8/vendor/CBORChainlink.sol\":962:967  value */\n      dup2\n        /* \"@chainlink/contracts/src/v0.8/vendor/CBORChainlink.sol\":948:971  buf.appendInt(value, 1) */\n      0xffffffffffffffff\n      and\n        /* \"@chainlink/contracts/src/v0.8/vendor/CBORChainlink.sol\":969:970  1 */\n      0x01\n        /* \"@chainlink/contracts/src/v0.8/vendor/CBORChainlink.sol\":948:951  buf */\n      dup6\n        /* \"@chainlink/contracts/src/v0.8/vendor/CBORChainlink.sol\":948:961  buf.appendInt */\n      tag_225\n      swap1\n        /* \"@chainlink/contracts/src/v0.8/vendor/CBORChainlink.sol\":948:971  buf.appendInt(value, 1) */\n      swap3\n      swap2\n      swap1\n      0xffffffff\n      and\n      jump\t// in\n    tag_224:\n      pop\n        /* \"@chainlink/contracts/src/v0.8/vendor/CBORChainlink.sol\":872:1303  if (value <= 0xFF) {... */\n      jump(tag_226)\n    tag_222:\n        /* \"@chainlink/contracts/src/v0.8/vendor/CBORChainlink.sol\":997:1003  0xFFFF */\n      0xffff\n        /* \"@chainlink/contracts/src/v0.8/vendor/CBORChainlink.sol\":988:993  value */\n      dup2\n        /* \"@chainlink/contracts/src/v0.8/vendor/CBORChainlink.sol\":988:1003  value <= 0xFFFF */\n      0xffffffffffffffff\n      and\n      gt\n        /* \"@chainlink/contracts/src/v0.8/vendor/CBORChainlink.sol\":984:1303  if (value <= 0xFFFF) {... */\n      tag_227\n      jumpi\n        /* \"@chainlink/contracts/src/v0.8/vendor/CBORChainlink.sol\":1013:1054  buf.appendUint8(uint8((major << 5) | 25)) */\n      tag_228\n        /* \"@chainlink/contracts/src/v0.8/vendor/CBORChainlink.sol\":1050:1052  25 */\n      0x19\n        /* \"@chainlink/contracts/src/v0.8/vendor/CBORChainlink.sol\":1045:1046  5 */\n      0x05\n        /* \"@chainlink/contracts/src/v0.8/vendor/CBORChainlink.sol\":1036:1041  major */\n      dup5\n        /* \"@chainlink/contracts/src/v0.8/vendor/CBORChainlink.sol\":1036:1046  major << 5 */\n      0xff\n      and\n      swap1\n      shl\n        /* \"@chainlink/contracts/src/v0.8/vendor/CBORChainlink.sol\":1035:1052  (major << 5) | 25 */\n      or\n        /* \"@chainlink/contracts/src/v0.8/vendor/CBORChainlink.sol\":1013:1016  buf */\n      dup5\n        /* \"@chainlink/contracts/src/v0.8/vendor/CBORChainlink.sol\":1013:1028  buf.appendUint8 */\n      tag_220\n      swap1\n        /* \"@chainlink/contracts/src/v0.8/vendor/CBORChainlink.sol\":1013:1054  buf.appendUint8(uint8((major << 5) | 25)) */\n      swap2\n      swap1\n      0xffffffff\n      and\n      jump\t// in\n    tag_228:\n      pop\n        /* \"@chainlink/contracts/src/v0.8/vendor/CBORChainlink.sol\":1062:1085  buf.appendInt(value, 2) */\n      tag_229\n        /* \"@chainlink/contracts/src/v0.8/vendor/CBORChainlink.sol\":1076:1081  value */\n      dup2\n        /* \"@chainlink/contracts/src/v0.8/vendor/CBORChainlink.sol\":1062:1085  buf.appendInt(value, 2) */\n      0xffffffffffffffff\n      and\n        /* \"@chainlink/contracts/src/v0.8/vendor/CBORChainlink.sol\":1083:1084  2 */\n      0x02\n        /* \"@chainlink/contracts/src/v0.8/vendor/CBORChainlink.sol\":1062:1065  buf */\n      dup6\n        /* \"@chainlink/contracts/src/v0.8/vendor/CBORChainlink.sol\":1062:1075  buf.appendInt */\n      tag_225\n      swap1\n        /* \"@chainlink/contracts/src/v0.8/vendor/CBORChainlink.sol\":1062:1085  buf.appendInt(value, 2) */\n      swap3\n      swap2\n      swap1\n      0xffffffff\n      and\n      jump\t// in\n    tag_229:\n      pop\n        /* \"@chainlink/contracts/src/v0.8/vendor/CBORChainlink.sol\":984:1303  if (value <= 0xFFFF) {... */\n      jump(tag_230)\n    tag_227:\n        /* \"@chainlink/contracts/src/v0.8/vendor/CBORChainlink.sol\":1111:1121  0xFFFFFFFF */\n      0xffffffff\n        /* \"@chainlink/contracts/src/v0.8/vendor/CBORChainlink.sol\":1102:1107  value */\n      dup2\n        /* \"@chainlink/contracts/src/v0.8/vendor/CBORChainlink.sol\":1102:1121  value <= 0xFFFFFFFF */\n      0xffffffffffffffff\n      and\n      gt\n        /* \"@chainlink/contracts/src/v0.8/vendor/CBORChainlink.sol\":1098:1303  if (value <= 0xFFFFFFFF) {... */\n      tag_231\n      jumpi\n        /* \"@chainlink/contracts/src/v0.8/vendor/CBORChainlink.sol\":1131:1172  buf.appendUint8(uint8((major << 5) | 26)) */\n      tag_232\n        /* \"@chainlink/contracts/src/v0.8/vendor/CBORChainlink.sol\":1168:1170  26 */\n      0x1a\n        /* \"@chainlink/contracts/src/v0.8/vendor/CBORChainlink.sol\":1163:1164  5 */\n      0x05\n        /* \"@chainlink/contracts/src/v0.8/vendor/CBORChainlink.sol\":1154:1159  major */\n      dup5\n        /* \"@chainlink/contracts/src/v0.8/vendor/CBORChainlink.sol\":1154:1164  major << 5 */\n      0xff\n      and\n      swap1\n      shl\n        /* \"@chainlink/contracts/src/v0.8/vendor/CBORChainlink.sol\":1153:1170  (major << 5) | 26 */\n      or\n        /* \"@chainlink/contracts/src/v0.8/vendor/CBORChainlink.sol\":1131:1134  buf */\n      dup5\n        /* \"@chainlink/contracts/src/v0.8/vendor/CBORChainlink.sol\":1131:1146  buf.appendUint8 */\n      tag_220\n      swap1\n        /* \"@chainlink/contracts/src/v0.8/vendor/CBORChainlink.sol\":1131:1172  buf.appendUint8(uint8((major << 5) | 26)) */\n      swap2\n      swap1\n      0xffffffff\n      and\n      jump\t// in\n    tag_232:\n      pop\n        /* \"@chainlink/contracts/src/v0.8/vendor/CBORChainlink.sol\":1180:1203  buf.appendInt(value, 4) */\n      tag_233\n        /* \"@chainlink/contracts/src/v0.8/vendor/CBORChainlink.sol\":1194:1199  value */\n      dup2\n        /* \"@chainlink/contracts/src/v0.8/vendor/CBORChainlink.sol\":1180:1203  buf.appendInt(value, 4) */\n      0xffffffffffffffff\n      and\n        /* \"@chainlink/contracts/src/v0.8/vendor/CBORChainlink.sol\":1201:1202  4 */\n      0x04\n        /* \"@chainlink/contracts/src/v0.8/vendor/CBORChainlink.sol\":1180:1183  buf */\n      dup6\n        /* \"@chainlink/contracts/src/v0.8/vendor/CBORChainlink.sol\":1180:1193  buf.appendInt */\n      tag_225\n      swap1\n        /* \"@chainlink/contracts/src/v0.8/vendor/CBORChainlink.sol\":1180:1203  buf.appendInt(value, 4) */\n      swap3\n      swap2\n      swap1\n      0xffffffff\n      and\n      jump\t// in\n    tag_233:\n      pop\n        /* \"@chainlink/contracts/src/v0.8/vendor/CBORChainlink.sol\":1098:1303  if (value <= 0xFFFFFFFF) {... */\n      jump(tag_234)\n    tag_231:\n        /* \"@chainlink/contracts/src/v0.8/vendor/CBORChainlink.sol\":1224:1265  buf.appendUint8(uint8((major << 5) | 27)) */\n      tag_235\n        /* \"@chainlink/contracts/src/v0.8/vendor/CBORChainlink.sol\":1261:1263  27 */\n      0x1b\n        /* \"@chainlink/contracts/src/v0.8/vendor/CBORChainlink.sol\":1256:1257  5 */\n      0x05\n        /* \"@chainlink/contracts/src/v0.8/vendor/CBORChainlink.sol\":1247:1252  major */\n      dup5\n        /* \"@chainlink/contracts/src/v0.8/vendor/CBORChainlink.sol\":1247:1257  major << 5 */\n      0xff\n      and\n      swap1\n      shl\n        /* \"@chainlink/contracts/src/v0.8/vendor/CBORChainlink.sol\":1246:1263  (major << 5) | 27 */\n      or\n        /* \"@chainlink/contracts/src/v0.8/vendor/CBORChainlink.sol\":1224:1227  buf */\n      dup5\n        /* \"@chainlink/contracts/src/v0.8/vendor/CBORChainlink.sol\":1224:1239  buf.appendUint8 */\n      tag_220\n      swap1\n        /* \"@chainlink/contracts/src/v0.8/vendor/CBORChainlink.sol\":1224:1265  buf.appendUint8(uint8((major << 5) | 27)) */\n      swap2\n      swap1\n      0xffffffff\n      and\n      jump\t// in\n    tag_235:\n      pop\n        /* \"@chainlink/contracts/src/v0.8/vendor/CBORChainlink.sol\":1273:1296  buf.appendInt(value, 8) */\n      tag_236\n        /* \"@chainlink/contracts/src/v0.8/vendor/CBORChainlink.sol\":1287:1292  value */\n      dup2\n        /* \"@chainlink/contracts/src/v0.8/vendor/CBORChainlink.sol\":1273:1296  buf.appendInt(value, 8) */\n      0xffffffffffffffff\n      and\n        /* \"@chainlink/contracts/src/v0.8/vendor/CBORChainlink.sol\":1294:1295  8 */\n      0x08\n        /* \"@chainlink/contracts/src/v0.8/vendor/CBORChainlink.sol\":1273:1276  buf */\n      dup6\n        /* \"@chainlink/contracts/src/v0.8/vendor/CBORChainlink.sol\":1273:1286  buf.appendInt */\n      tag_225\n      swap1\n        /* \"@chainlink/contracts/src/v0.8/vendor/CBORChainlink.sol\":1273:1296  buf.appendInt(value, 8) */\n      swap3\n      swap2\n      swap1\n      0xffffffff\n      and\n      jump\t// in\n    tag_236:\n      pop\n        /* \"@chainlink/contracts/src/v0.8/vendor/CBORChainlink.sol\":1098:1303  if (value <= 0xFFFFFFFF) {... */\n    tag_234:\n        /* \"@chainlink/contracts/src/v0.8/vendor/CBORChainlink.sol\":984:1303  if (value <= 0xFFFF) {... */\n    tag_230:\n        /* \"@chainlink/contracts/src/v0.8/vendor/CBORChainlink.sol\":872:1303  if (value <= 0xFF) {... */\n    tag_226:\n        /* \"@chainlink/contracts/src/v0.8/vendor/CBORChainlink.sol\":791:1303  if(value <= 23) {... */\n    tag_221:\n        /* \"@chainlink/contracts/src/v0.8/vendor/CBORChainlink.sol\":682:1307  function encodeFixedNumeric(BufferChainlink.buffer memory buf, uint8 major, uint64 value) private pure {... */\n      pop\n      pop\n      pop\n      jump\t// out\n        /* \"@chainlink/contracts/src/v0.8/vendor/BufferChainlink.sol\":4692:4847  function append(buffer memory buf, bytes memory data) internal pure returns (buffer memory) {... */\n    tag_184:\n        /* \"@chainlink/contracts/src/v0.8/vendor/BufferChainlink.sol\":4769:4782  buffer memory */\n      tag_237\n      tag_208\n      jump\t// in\n    tag_237:\n        /* \"@chainlink/contracts/src/v0.8/vendor/BufferChainlink.sol\":4797:4842  write(buf, buf.buf.length, data, data.length) */\n      tag_239\n        /* \"@chainlink/contracts/src/v0.8/vendor/BufferChainlink.sol\":4803:4806  buf */\n      dup4\n        /* \"@chainlink/contracts/src/v0.8/vendor/BufferChainlink.sol\":4808:4811  buf */\n      dup5\n        /* \"@chainlink/contracts/src/v0.8/vendor/BufferChainlink.sol\":4808:4815  buf.buf */\n      0x00\n      add\n      mload\n        /* \"@chainlink/contracts/src/v0.8/vendor/BufferChainlink.sol\":4808:4822  buf.buf.length */\n      mload\n        /* \"@chainlink/contracts/src/v0.8/vendor/BufferChainlink.sol\":4824:4828  data */\n      dup5\n        /* \"@chainlink/contracts/src/v0.8/vendor/BufferChainlink.sol\":4830:4834  data */\n      dup6\n        /* \"@chainlink/contracts/src/v0.8/vendor/BufferChainlink.sol\":4830:4841  data.length */\n      mload\n        /* \"@chainlink/contracts/src/v0.8/vendor/BufferChainlink.sol\":4797:4802  write */\n      tag_240\n        /* \"@chainlink/contracts/src/v0.8/vendor/BufferChainlink.sol\":4797:4842  write(buf, buf.buf.length, data, data.length) */\n      jump\t// in\n    tag_239:\n        /* \"@chainlink/contracts/src/v0.8/vendor/BufferChainlink.sol\":4790:4842  return write(buf, buf.buf.length, data, data.length) */\n      swap1\n      pop\n        /* \"@chainlink/contracts/src/v0.8/vendor/BufferChainlink.sol\":4692:4847  function append(buffer memory buf, bytes memory data) internal pure returns (buffer memory) {... */\n      swap3\n      swap2\n      pop\n      pop\n      jump\t// out\n        /* \"@chainlink/contracts/src/v0.8/vendor/CBORChainlink.sol\":2547:2773  function encodeSignedBigNum(BufferChainlink.buffer memory buf, int input) internal pure {... */\n    tag_188:\n        /* \"@chainlink/contracts/src/v0.8/vendor/CBORChainlink.sol\":2641:2713  buf.appendUint8(uint8((MAJOR_TYPE_TAG << 5) | TAG_TYPE_NEGATIVE_BIGNUM)) */\n      tag_242\n        /* \"@chainlink/contracts/src/v0.8/vendor/CBORChainlink.sol\":676:677  3 */\n      0x03\n        /* \"@chainlink/contracts/src/v0.8/vendor/CBORChainlink.sol\":2682:2683  5 */\n      0x05\n        /* \"@chainlink/contracts/src/v0.8/vendor/CBORChainlink.sol\":520:521  6 */\n      0x06\n        /* \"@chainlink/contracts/src/v0.8/vendor/CBORChainlink.sol\":2664:2683  MAJOR_TYPE_TAG << 5 */\n      0xff\n      and\n      swap1\n      shl\n        /* \"@chainlink/contracts/src/v0.8/vendor/CBORChainlink.sol\":2663:2711  (MAJOR_TYPE_TAG << 5) | TAG_TYPE_NEGATIVE_BIGNUM */\n      or\n        /* \"@chainlink/contracts/src/v0.8/vendor/CBORChainlink.sol\":2641:2644  buf */\n      dup4\n        /* \"@chainlink/contracts/src/v0.8/vendor/CBORChainlink.sol\":2641:2656  buf.appendUint8 */\n      tag_220\n      swap1\n        /* \"@chainlink/contracts/src/v0.8/vendor/CBORChainlink.sol\":2641:2713  buf.appendUint8(uint8((MAJOR_TYPE_TAG << 5) | TAG_TYPE_NEGATIVE_BIGNUM)) */\n      swap2\n      swap1\n      0xffffffff\n      and\n      jump\t// in\n    tag_242:\n      pop\n        /* \"@chainlink/contracts/src/v0.8/vendor/CBORChainlink.sol\":2719:2768  encodeBytes(buf, abi.encode(uint256(-1 - input))) */\n      tag_243\n        /* \"@chainlink/contracts/src/v0.8/vendor/CBORChainlink.sol\":2731:2734  buf */\n      dup3\n        /* \"@chainlink/contracts/src/v0.8/vendor/CBORChainlink.sol\":2760:2765  input */\n      dup3\n        /* \"@chainlink/contracts/src/v0.8/vendor/CBORChainlink.sol\":2755:2757  -1 */\n      0xffffffffffffffffffffffffffffffffffffffffffffffffffffffffffffffff\n        /* \"@chainlink/contracts/src/v0.8/vendor/CBORChainlink.sol\":2755:2765  -1 - input */\n      tag_244\n      swap2\n      swap1\n      tag_199\n      jump\t// in\n    tag_244:\n        /* \"@chainlink/contracts/src/v0.8/vendor/CBORChainlink.sol\":2736:2767  abi.encode(uint256(-1 - input)) */\n      add(0x20, mload(0x40))\n      tag_245\n      swap2\n      swap1\n      tag_37\n      jump\t// in\n    tag_245:\n      mload(0x40)\n      0x20\n      dup2\n      dup4\n      sub\n      sub\n      dup2\n      mstore\n      swap1\n      0x40\n      mstore\n        /* \"@chainlink/contracts/src/v0.8/vendor/CBORChainlink.sol\":2719:2730  encodeBytes */\n      tag_246\n        /* \"@chainlink/contracts/src/v0.8/vendor/CBORChainlink.sol\":2719:2768  encodeBytes(buf, abi.encode(uint256(-1 - input))) */\n      jump\t// in\n    tag_243:\n        /* \"@chainlink/contracts/src/v0.8/vendor/CBORChainlink.sol\":2547:2773  function encodeSignedBigNum(BufferChainlink.buffer memory buf, int input) internal pure {... */\n      pop\n      pop\n      jump\t// out\n        /* \"@chainlink/contracts/src/v0.8/vendor/CBORChainlink.sol\":2345:2543  function encodeBigNum(BufferChainlink.buffer memory buf, uint value) internal pure {... */\n    tag_192:\n        /* \"@chainlink/contracts/src/v0.8/vendor/CBORChainlink.sol\":2434:2497  buf.appendUint8(uint8((MAJOR_TYPE_TAG << 5) | TAG_TYPE_BIGNUM)) */\n      tag_248\n        /* \"@chainlink/contracts/src/v0.8/vendor/CBORChainlink.sol\":621:622  2 */\n      0x02\n        /* \"@chainlink/contracts/src/v0.8/vendor/CBORChainlink.sol\":2475:2476  5 */\n      0x05\n        /* \"@chainlink/contracts/src/v0.8/vendor/CBORChainlink.sol\":520:521  6 */\n      0x06\n        /* \"@chainlink/contracts/src/v0.8/vendor/CBORChainlink.sol\":2457:2476  MAJOR_TYPE_TAG << 5 */\n      0xff\n      and\n      swap1\n      shl\n        /* \"@chainlink/contracts/src/v0.8/vendor/CBORChainlink.sol\":2456:2495  (MAJOR_TYPE_TAG << 5) | TAG_TYPE_BIGNUM */\n      or\n        /* \"@chainlink/contracts/src/v0.8/vendor/CBORChainlink.sol\":2434:2437  buf */\n      dup4\n        /* \"@chainlink/contracts/src/v0.8/vendor/CBORChainlink.sol\":2434:2449  buf.appendUint8 */\n      tag_220\n      swap1\n        /* \"@chainlink/contracts/src/v0.8/vendor/CBORChainlink.sol\":2434:2497  buf.appendUint8(uint8((MAJOR_TYPE_TAG << 5) | TAG_TYPE_BIGNUM)) */\n      swap2\n      swap1\n      0xffffffff\n      and\n      jump\t// in\n    tag_248:\n      pop\n        /* \"@chainlink/contracts/src/v0.8/vendor/CBORChainlink.sol\":2503:2538  encodeBytes(buf, abi.encode(value)) */\n      tag_249\n        /* \"@chainlink/contracts/src/v0.8/vendor/CBORChainlink.sol\":2515:2518  buf */\n      dup3\n        /* \"@chainlink/contracts/src/v0.8/vendor/CBORChainlink.sol\":2531:2536  value */\n      dup3\n        /* \"@chainlink/contracts/src/v0.8/vendor/CBORChainlink.sol\":2520:2537  abi.encode(value) */\n      add(0x20, mload(0x40))\n      tag_250\n      swap2\n      swap1\n      tag_37\n      jump\t// in\n    tag_250:\n      mload(0x40)\n      0x20\n      dup2\n      dup4\n      sub\n      sub\n      dup2\n      mstore\n      swap1\n      0x40\n      mstore\n        /* \"@chainlink/contracts/src/v0.8/vendor/CBORChainlink.sol\":2503:2514  encodeBytes */\n      tag_246\n        /* \"@chainlink/contracts/src/v0.8/vendor/CBORChainlink.sol\":2503:2538  encodeBytes(buf, abi.encode(value)) */\n      jump\t// in\n    tag_249:\n        /* \"@chainlink/contracts/src/v0.8/vendor/CBORChainlink.sol\":2345:2543  function encodeBigNum(BufferChainlink.buffer memory buf, uint value) internal pure {... */\n      pop\n      pop\n      jump\t// out\n        /* \"@chainlink/contracts/src/v0.8/ChainlinkClient.sol\":6636:7066  function _rawRequest(... */\n    tag_206:\n        /* \"@chainlink/contracts/src/v0.8/ChainlinkClient.sol\":6778:6795  bytes32 requestId */\n      0x00\n        /* \"@chainlink/contracts/src/v0.8/ChainlinkClient.sol\":6842:6846  this */\n      address\n        /* \"@chainlink/contracts/src/v0.8/ChainlinkClient.sol\":6848:6853  nonce */\n      dup5\n        /* \"@chainlink/contracts/src/v0.8/ChainlinkClient.sol\":6825:6854  abi.encodePacked(this, nonce) */\n      add(0x20, mload(0x40))\n      tag_252\n      swap3\n      swap2\n      swap1\n      tag_253\n      jump\t// in\n    tag_252:\n      mload(0x40)\n      0x20\n      dup2\n      dup4\n      sub\n      sub\n      dup2\n      mstore\n      swap1\n      0x40\n      mstore\n        /* \"@chainlink/contracts/src/v0.8/ChainlinkClient.sol\":6815:6855  keccak256(abi.encodePacked(this, nonce)) */\n      dup1\n      mload\n      swap1\n      0x20\n      add\n      keccak256\n        /* \"@chainlink/contracts/src/v0.8/ChainlinkClient.sol\":6803:6855  requestId = keccak256(abi.encodePacked(this, nonce)) */\n      swap1\n      pop\n        /* \"@chainlink/contracts/src/v0.8/ChainlinkClient.sol\":6892:6905  oracleAddress */\n      dup5\n        /* \"@chainlink/contracts/src/v0.8/ChainlinkClient.sol\":6861:6878  s_pendingRequests */\n      0x05\n        /* \"@chainlink/contracts/src/v0.8/ChainlinkClient.sol\":6861:6889  s_pendingRequests[requestId] */\n      0x00\n        /* \"@chainlink/contracts/src/v0.8/ChainlinkClient.sol\":6879:6888  requestId */\n      dup4\n        /* \"@chainlink/contracts/src/v0.8/ChainlinkClient.sol\":6861:6889  s_pendingRequests[requestId] */\n      dup2\n      mstore\n      0x20\n      add\n      swap1\n      dup2\n      mstore\n      0x20\n      add\n      0x00\n      keccak256\n      0x00\n        /* \"@chainlink/contracts/src/v0.8/ChainlinkClient.sol\":6861:6905  s_pendingRequests[requestId] = oracleAddress */\n      0x0100\n      exp\n      dup2\n      sload\n      dup2\n      0xffffffffffffffffffffffffffffffffffffffff\n      mul\n      not\n      and\n      swap1\n      dup4\n      0xffffffffffffffffffffffffffffffffffffffff\n      and\n      mul\n      or\n      swap1\n      sstore\n      pop\n        /* \"@chainlink/contracts/src/v0.8/ChainlinkClient.sol\":6935:6944  requestId */\n      dup1\n        /* \"@chainlink/contracts/src/v0.8/ChainlinkClient.sol\":6916:6945  ChainlinkRequested(requestId) */\n      0xb5e6e01e79f91267dc17b4e6314d5d4d03593d2ceee0fbb452b750bd70ea5af9\n      mload(0x40)\n      mload(0x40)\n      dup1\n      swap2\n      sub\n      swap1\n      log2\n        /* \"@chainlink/contracts/src/v0.8/ChainlinkClient.sol\":6959:6965  s_link */\n      0x02\n      0x00\n      swap1\n      sload\n      swap1\n      0x0100\n      exp\n      swap1\n      div\n      0xffffffffffffffffffffffffffffffffffffffff\n      and\n        /* \"@chainlink/contracts/src/v0.8/ChainlinkClient.sol\":6959:6981  s_link.transferAndCall */\n      0xffffffffffffffffffffffffffffffffffffffff\n      and\n      0x4000aea0\n        /* \"@chainlink/contracts/src/v0.8/ChainlinkClient.sol\":6982:6995  oracleAddress */\n      dup7\n        /* \"@chainlink/contracts/src/v0.8/ChainlinkClient.sol\":6997:7004  payment */\n      dup6\n        /* \"@chainlink/contracts/src/v0.8/ChainlinkClient.sol\":7006:7020  encodedRequest */\n      dup6\n        /* \"@chainlink/contracts/src/v0.8/ChainlinkClient.sol\":6959:7021  s_link.transferAndCall(oracleAddress, payment, encodedRequest) */\n      mload(0x40)\n      dup5\n      0xffffffff\n      and\n      0xe0\n      shl\n      dup2\n      mstore\n      0x04\n      add\n      tag_254\n      swap4\n      swap3\n      swap2\n      swap1\n      tag_255\n      jump\t// in\n    tag_254:\n      0x20\n      mload(0x40)\n      dup1\n      dup4\n      sub\n      dup2\n      0x00\n      dup8\n      gas\n      call\n      iszero\n      dup1\n      iszero\n      tag_257\n      jumpi\n      returndatasize\n      0x00\n      dup1\n      returndatacopy\n      revert(0x00, returndatasize)\n    tag_257:\n      pop\n      pop\n      pop\n      pop\n      mload(0x40)\n      returndatasize\n      not(0x1f)\n      0x1f\n      dup3\n      add\n      and\n      dup3\n      add\n      dup1\n      0x40\n      mstore\n      pop\n      dup2\n      add\n      swap1\n      tag_258\n      swap2\n      swap1\n      tag_123\n      jump\t// in\n    tag_258:\n        /* \"@chainlink/contracts/src/v0.8/ChainlinkClient.sol\":6951:7061  require(s_link.transferAndCall(oracleAddress, payment, encodedRequest), \"unable to transferAndCall to oracle\") */\n      tag_259\n      jumpi\n      mload(0x40)\n      0x08c379a000000000000000000000000000000000000000000000000000000000\n      dup2\n      mstore\n      0x04\n      add\n      tag_260\n      swap1\n      tag_261\n      jump\t// in\n    tag_260:\n      mload(0x40)\n      dup1\n      swap2\n      sub\n      swap1\n      revert\n    tag_259:\n        /* \"@chainlink/contracts/src/v0.8/ChainlinkClient.sol\":6636:7066  function _rawRequest(... */\n      swap5\n      swap4\n      pop\n      pop\n      pop\n      pop\n      jump\t// out\n        /* \"@chainlink/contracts/src/v0.8/vendor/BufferChainlink.sol\":6040:6185  function appendUint8(buffer memory buf, uint8 data) internal pure returns (buffer memory) {... */\n    tag_220:\n        /* \"@chainlink/contracts/src/v0.8/vendor/BufferChainlink.sol\":6115:6128  buffer memory */\n      tag_262\n      tag_208\n      jump\t// in\n    tag_262:\n        /* \"@chainlink/contracts/src/v0.8/vendor/BufferChainlink.sol\":6143:6180  writeUint8(buf, buf.buf.length, data) */\n      tag_264\n        /* \"@chainlink/contracts/src/v0.8/vendor/BufferChainlink.sol\":6154:6157  buf */\n      dup4\n        /* \"@chainlink/contracts/src/v0.8/vendor/BufferChainlink.sol\":6159:6162  buf */\n      dup5\n        /* \"@chainlink/contracts/src/v0.8/vendor/BufferChainlink.sol\":6159:6166  buf.buf */\n      0x00\n      add\n      mload\n        /* \"@chainlink/contracts/src/v0.8/vendor/BufferChainlink.sol\":6159:6173  buf.buf.length */\n      mload\n        /* \"@chainlink/contracts/src/v0.8/vendor/BufferChainlink.sol\":6175:6179  data */\n      dup5\n        /* \"@chainlink/contracts/src/v0.8/vendor/BufferChainlink.sol\":6143:6153  writeUint8 */\n      tag_265\n        /* \"@chainlink/contracts/src/v0.8/vendor/BufferChainlink.sol\":6143:6180  writeUint8(buf, buf.buf.length, data) */\n      jump\t// in\n    tag_264:\n        /* \"@chainlink/contracts/src/v0.8/vendor/BufferChainlink.sol\":6136:6180  return writeUint8(buf, buf.buf.length, data) */\n      swap1\n      pop\n        /* \"@chainlink/contracts/src/v0.8/vendor/BufferChainlink.sol\":6040:6185  function appendUint8(buffer memory buf, uint8 data) internal pure returns (buffer memory) {... */\n      swap3\n      swap2\n      pop\n      pop\n      jump\t// out\n        /* \"@chainlink/contracts/src/v0.8/vendor/BufferChainlink.sol\":9894:10071  function appendInt(... */\n    tag_225:\n        /* \"@chainlink/contracts/src/v0.8/vendor/BufferChainlink.sol\":9998:10011  buffer memory */\n      tag_266\n      tag_208\n      jump\t// in\n    tag_266:\n        /* \"@chainlink/contracts/src/v0.8/vendor/BufferChainlink.sol\":10026:10066  writeInt(buf, buf.buf.length, data, len) */\n      tag_268\n        /* \"@chainlink/contracts/src/v0.8/vendor/BufferChainlink.sol\":10035:10038  buf */\n      dup5\n        /* \"@chainlink/contracts/src/v0.8/vendor/BufferChainlink.sol\":10040:10043  buf */\n      dup6\n        /* \"@chainlink/contracts/src/v0.8/vendor/BufferChainlink.sol\":10040:10047  buf.buf */\n      0x00\n      add\n      mload\n        /* \"@chainlink/contracts/src/v0.8/vendor/BufferChainlink.sol\":10040:10054  buf.buf.length */\n      mload\n        /* \"@chainlink/contracts/src/v0.8/vendor/BufferChainlink.sol\":10056:10060  data */\n      dup6\n        /* \"@chainlink/contracts/src/v0.8/vendor/BufferChainlink.sol\":10062:10065  len */\n      dup6\n        /* \"@chainlink/contracts/src/v0.8/vendor/BufferChainlink.sol\":10026:10034  writeInt */\n      tag_269\n        /* \"@chainlink/contracts/src/v0.8/vendor/BufferChainlink.sol\":10026:10066  writeInt(buf, buf.buf.length, data, len) */\n      jump\t// in\n    tag_268:\n        /* \"@chainlink/contracts/src/v0.8/vendor/BufferChainlink.sol\":10019:10066  return writeInt(buf, buf.buf.length, data, len) */\n      swap1\n      pop\n        /* \"@chainlink/contracts/src/v0.8/vendor/BufferChainlink.sol\":9894:10071  function appendInt(... */\n      swap4\n      swap3\n      pop\n      pop\n      pop\n      jump\t// out\n        /* \"@chainlink/contracts/src/v0.8/vendor/BufferChainlink.sol\":2745:3955  function write(... */\n    tag_240:\n        /* \"@chainlink/contracts/src/v0.8/vendor/BufferChainlink.sol\":2867:2880  buffer memory */\n      tag_270\n      tag_208\n      jump\t// in\n    tag_270:\n        /* \"@chainlink/contracts/src/v0.8/vendor/BufferChainlink.sol\":2903:2907  data */\n      dup3\n        /* \"@chainlink/contracts/src/v0.8/vendor/BufferChainlink.sol\":2903:2914  data.length */\n      mload\n        /* \"@chainlink/contracts/src/v0.8/vendor/BufferChainlink.sol\":2896:2899  len */\n      dup3\n        /* \"@chainlink/contracts/src/v0.8/vendor/BufferChainlink.sol\":2896:2914  len <= data.length */\n      gt\n      iszero\n        /* \"@chainlink/contracts/src/v0.8/vendor/BufferChainlink.sol\":2888:2915  require(len <= data.length) */\n      tag_272\n      jumpi\n      0x00\n      dup1\n      revert\n    tag_272:\n        /* \"@chainlink/contracts/src/v0.8/vendor/BufferChainlink.sol\":2938:2941  buf */\n      dup5\n        /* \"@chainlink/contracts/src/v0.8/vendor/BufferChainlink.sol\":2938:2950  buf.capacity */\n      0x20\n      add\n      mload\n        /* \"@chainlink/contracts/src/v0.8/vendor/BufferChainlink.sol\":2932:2935  len */\n      dup3\n        /* \"@chainlink/contracts/src/v0.8/vendor/BufferChainlink.sol\":2926:2929  off */\n      dup6\n        /* \"@chainlink/contracts/src/v0.8/vendor/BufferChainlink.sol\":2926:2935  off + len */\n      tag_273\n      swap2\n      swap1\n      tag_202\n      jump\t// in\n    tag_273:\n        /* \"@chainlink/contracts/src/v0.8/vendor/BufferChainlink.sol\":2926:2950  off + len > buf.capacity */\n      gt\n        /* \"@chainlink/contracts/src/v0.8/vendor/BufferChainlink.sol\":2922:3012  if (off + len > buf.capacity) {... */\n      iszero\n      tag_274\n      jumpi\n        /* \"@chainlink/contracts/src/v0.8/vendor/BufferChainlink.sol\":2960:3005  resize(buf, max(buf.capacity, len + off) * 2) */\n      tag_275\n        /* \"@chainlink/contracts/src/v0.8/vendor/BufferChainlink.sol\":2967:2970  buf */\n      dup6\n        /* \"@chainlink/contracts/src/v0.8/vendor/BufferChainlink.sol\":3003:3004  2 */\n      0x02\n        /* \"@chainlink/contracts/src/v0.8/vendor/BufferChainlink.sol\":2972:3000  max(buf.capacity, len + off) */\n      tag_276\n        /* \"@chainlink/contracts/src/v0.8/vendor/BufferChainlink.sol\":2976:2979  buf */\n      dup9\n        /* \"@chainlink/contracts/src/v0.8/vendor/BufferChainlink.sol\":2976:2988  buf.capacity */\n      0x20\n      add\n      mload\n        /* \"@chainlink/contracts/src/v0.8/vendor/BufferChainlink.sol\":2996:2999  off */\n      dup9\n        /* \"@chainlink/contracts/src/v0.8/vendor/BufferChainlink.sol\":2990:2993  len */\n      dup8\n        /* \"@chainlink/contracts/src/v0.8/vendor/BufferChainlink.sol\":2990:2999  len + off */\n      tag_277\n      swap2\n      swap1\n      tag_202\n      jump\t// in\n    tag_277:\n        /* \"@chainlink/contracts/src/v0.8/vendor/BufferChainlink.sol\":2972:2975  max */\n      tag_278\n        /* \"@chainlink/contracts/src/v0.8/vendor/BufferChainlink.sol\":2972:3000  max(buf.capacity, len + off) */\n      jump\t// in\n    tag_276:\n        /* \"@chainlink/contracts/src/v0.8/vendor/BufferChainlink.sol\":2972:3004  max(buf.capacity, len + off) * 2 */\n      tag_279\n      swap2\n      swap1\n      tag_100\n      jump\t// in\n    tag_279:\n        /* \"@chainlink/contracts/src/v0.8/vendor/BufferChainlink.sol\":2960:2966  resize */\n      tag_280\n        /* \"@chainlink/contracts/src/v0.8/vendor/BufferChainlink.sol\":2960:3005  resize(buf, max(buf.capacity, len + off) * 2) */\n      jump\t// in\n    tag_275:\n        /* \"@chainlink/contracts/src/v0.8/vendor/BufferChainlink.sol\":2922:3012  if (off + len > buf.capacity) {... */\n    tag_274:\n        /* \"@chainlink/contracts/src/v0.8/vendor/BufferChainlink.sol\":3018:3030  uint256 dest */\n      0x00\n        /* \"@chainlink/contracts/src/v0.8/vendor/BufferChainlink.sol\":3036:3047  uint256 src */\n      dup1\n        /* \"@chainlink/contracts/src/v0.8/vendor/BufferChainlink.sol\":3133:3136  buf */\n      dup7\n        /* \"@chainlink/contracts/src/v0.8/vendor/BufferChainlink.sol\":3127:3137  mload(buf) */\n      mload\n        /* \"@chainlink/contracts/src/v0.8/vendor/BufferChainlink.sol\":3204:3210  bufptr */\n      dup1\n        /* \"@chainlink/contracts/src/v0.8/vendor/BufferChainlink.sol\":3198:3211  mload(bufptr) */\n      mload\n        /* \"@chainlink/contracts/src/v0.8/vendor/BufferChainlink.sol\":3320:3323  off */\n      dup8\n        /* \"@chainlink/contracts/src/v0.8/vendor/BufferChainlink.sol\":3315:3317  32 */\n      0x20\n        /* \"@chainlink/contracts/src/v0.8/vendor/BufferChainlink.sol\":3307:3313  bufptr */\n      dup4\n        /* \"@chainlink/contracts/src/v0.8/vendor/BufferChainlink.sol\":3303:3318  add(bufptr, 32) */\n      add\n        /* \"@chainlink/contracts/src/v0.8/vendor/BufferChainlink.sol\":3299:3324  add(add(bufptr, 32), off) */\n      add\n        /* \"@chainlink/contracts/src/v0.8/vendor/BufferChainlink.sol\":3291:3324  dest := add(add(bufptr, 32), off) */\n      swap4\n      pop\n        /* \"@chainlink/contracts/src/v0.8/vendor/BufferChainlink.sol\":3404:3410  buflen */\n      dup1\n        /* \"@chainlink/contracts/src/v0.8/vendor/BufferChainlink.sol\":3398:3401  off */\n      dup9\n        /* \"@chainlink/contracts/src/v0.8/vendor/BufferChainlink.sol\":3393:3396  len */\n      dup8\n        /* \"@chainlink/contracts/src/v0.8/vendor/BufferChainlink.sol\":3389:3402  add(len, off) */\n      add\n        /* \"@chainlink/contracts/src/v0.8/vendor/BufferChainlink.sol\":3386:3411  gt(add(len, off), buflen) */\n      gt\n        /* \"@chainlink/contracts/src/v0.8/vendor/BufferChainlink.sol\":3383:3459  if gt(add(len, off), buflen) {... */\n      iszero\n      tag_281\n      jumpi\n        /* \"@chainlink/contracts/src/v0.8/vendor/BufferChainlink.sol\":3446:3449  off */\n      dup8\n        /* \"@chainlink/contracts/src/v0.8/vendor/BufferChainlink.sol\":3441:3444  len */\n      dup7\n        /* \"@chainlink/contracts/src/v0.8/vendor/BufferChainlink.sol\":3437:3450  add(len, off) */\n      add\n        /* \"@chainlink/contracts/src/v0.8/vendor/BufferChainlink.sol\":3429:3435  bufptr */\n      dup3\n        /* \"@chainlink/contracts/src/v0.8/vendor/BufferChainlink.sol\":3422:3451  mstore(bufptr, add(len, off)) */\n      mstore\n        /* \"@chainlink/contracts/src/v0.8/vendor/BufferChainlink.sol\":3383:3459  if gt(add(len, off), buflen) {... */\n    tag_281:\n        /* \"@chainlink/contracts/src/v0.8/vendor/BufferChainlink.sol\":3483:3485  32 */\n      0x20\n        /* \"@chainlink/contracts/src/v0.8/vendor/BufferChainlink.sol\":3477:3481  data */\n      dup8\n        /* \"@chainlink/contracts/src/v0.8/vendor/BufferChainlink.sol\":3473:3486  add(data, 32) */\n      add\n        /* \"@chainlink/contracts/src/v0.8/vendor/BufferChainlink.sol\":3466:3486  src := add(data, 32) */\n      swap3\n      pop\n        /* \"@chainlink/contracts/src/v0.8/vendor/BufferChainlink.sol\":3062:3492  {... */\n      pop\n      pop\n        /* \"@chainlink/contracts/src/v0.8/vendor/BufferChainlink.sol\":3544:3673  for (; len >= 32; len -= 32) {... */\n    tag_282:\n        /* \"@chainlink/contracts/src/v0.8/vendor/BufferChainlink.sol\":3558:3560  32 */\n      0x20\n        /* \"@chainlink/contracts/src/v0.8/vendor/BufferChainlink.sol\":3551:3554  len */\n      dup5\n        /* \"@chainlink/contracts/src/v0.8/vendor/BufferChainlink.sol\":3551:3560  len >= 32 */\n      lt\n        /* \"@chainlink/contracts/src/v0.8/vendor/BufferChainlink.sol\":3544:3673  for (; len >= 32; len -= 32) {... */\n      tag_283\n      jumpi\n        /* \"@chainlink/contracts/src/v0.8/vendor/BufferChainlink.sol\":3619:3622  src */\n      dup1\n        /* \"@chainlink/contracts/src/v0.8/vendor/BufferChainlink.sol\":3613:3623  mload(src) */\n      mload\n        /* \"@chainlink/contracts/src/v0.8/vendor/BufferChainlink.sol\":3607:3611  dest */\n      dup3\n        /* \"@chainlink/contracts/src/v0.8/vendor/BufferChainlink.sol\":3600:3624  mstore(dest, mload(src)) */\n      mstore\n        /* \"@chainlink/contracts/src/v0.8/vendor/BufferChainlink.sol\":3647:3649  32 */\n      0x20\n        /* \"@chainlink/contracts/src/v0.8/vendor/BufferChainlink.sol\":3639:3649  dest += 32 */\n      dup3\n      tag_285\n      swap2\n      swap1\n      tag_202\n      jump\t// in\n    tag_285:\n      swap2\n      pop\n        /* \"@chainlink/contracts/src/v0.8/vendor/BufferChainlink.sol\":3664:3666  32 */\n      0x20\n        /* \"@chainlink/contracts/src/v0.8/vendor/BufferChainlink.sol\":3657:3666  src += 32 */\n      dup2\n      tag_286\n      swap2\n      swap1\n      tag_202\n      jump\t// in\n    tag_286:\n      swap1\n      pop\n        /* \"@chainlink/contracts/src/v0.8/vendor/BufferChainlink.sol\":3569:3571  32 */\n      0x20\n        /* \"@chainlink/contracts/src/v0.8/vendor/BufferChainlink.sol\":3562:3571  len -= 32 */\n      dup5\n      tag_287\n      swap2\n      swap1\n      tag_215\n      jump\t// in\n    tag_287:\n      swap4\n      pop\n        /* \"@chainlink/contracts/src/v0.8/vendor/BufferChainlink.sol\":3544:3673  for (; len >= 32; len -= 32) {... */\n      jump(tag_282)\n    tag_283:\n        /* \"@chainlink/contracts/src/v0.8/vendor/BufferChainlink.sol\":3725:3737  uint256 mask */\n      0x00\n        /* \"@chainlink/contracts/src/v0.8/vendor/BufferChainlink.sol\":3760:3761  1 */\n      0x01\n        /* \"@chainlink/contracts/src/v0.8/vendor/BufferChainlink.sol\":3752:3755  len */\n      dup6\n        /* \"@chainlink/contracts/src/v0.8/vendor/BufferChainlink.sol\":3747:3749  32 */\n      0x20\n        /* \"@chainlink/contracts/src/v0.8/vendor/BufferChainlink.sol\":3747:3755  32 - len */\n      sub\n        /* \"@chainlink/contracts/src/v0.8/vendor/BufferChainlink.sol\":3741:3744  256 */\n      0x0100\n        /* \"@chainlink/contracts/src/v0.8/vendor/BufferChainlink.sol\":3741:3756  256**(32 - len) */\n      exp\n        /* \"@chainlink/contracts/src/v0.8/vendor/BufferChainlink.sol\":3740:3761  (256**(32 - len)) - 1 */\n      sub\n        /* \"@chainlink/contracts/src/v0.8/vendor/BufferChainlink.sol\":3725:3761  uint256 mask = (256**(32 - len)) - 1 */\n      swap1\n      pop\n        /* \"@chainlink/contracts/src/v0.8/vendor/BufferChainlink.sol\":3823:3827  mask */\n      dup1\n        /* \"@chainlink/contracts/src/v0.8/vendor/BufferChainlink.sol\":3819:3828  not(mask) */\n      not\n        /* \"@chainlink/contracts/src/v0.8/vendor/BufferChainlink.sol\":3813:3816  src */\n      dup3\n        /* \"@chainlink/contracts/src/v0.8/vendor/BufferChainlink.sol\":3807:3817  mload(src) */\n      mload\n        /* \"@chainlink/contracts/src/v0.8/vendor/BufferChainlink.sol\":3803:3829  and(mload(src), not(mask)) */\n      and\n        /* \"@chainlink/contracts/src/v0.8/vendor/BufferChainlink.sol\":3871:3875  mask */\n      dup2\n        /* \"@chainlink/contracts/src/v0.8/vendor/BufferChainlink.sol\":3864:3868  dest */\n      dup5\n        /* \"@chainlink/contracts/src/v0.8/vendor/BufferChainlink.sol\":3858:3869  mload(dest) */\n      mload\n        /* \"@chainlink/contracts/src/v0.8/vendor/BufferChainlink.sol\":3854:3876  and(mload(dest), mask) */\n      and\n        /* \"@chainlink/contracts/src/v0.8/vendor/BufferChainlink.sol\":3911:3918  srcpart */\n      dup2\n        /* \"@chainlink/contracts/src/v0.8/vendor/BufferChainlink.sol\":3901:3909  destpart */\n      dup2\n        /* \"@chainlink/contracts/src/v0.8/vendor/BufferChainlink.sol\":3898:3919  or(destpart, srcpart) */\n      or\n        /* \"@chainlink/contracts/src/v0.8/vendor/BufferChainlink.sol\":3892:3896  dest */\n      dup6\n        /* \"@chainlink/contracts/src/v0.8/vendor/BufferChainlink.sol\":3885:3920  mstore(dest, or(destpart, srcpart)) */\n      mstore\n        /* \"@chainlink/contracts/src/v0.8/vendor/BufferChainlink.sol\":3778:3928  {... */\n      pop\n      pop\n      pop\n        /* \"@chainlink/contracts/src/v0.8/vendor/BufferChainlink.sol\":3947:3950  buf */\n      dup7\n        /* \"@chainlink/contracts/src/v0.8/vendor/BufferChainlink.sol\":3940:3950  return buf */\n      swap3\n      pop\n      pop\n      pop\n        /* \"@chainlink/contracts/src/v0.8/vendor/BufferChainlink.sol\":2745:3955  function write(... */\n      swap5\n      swap4\n      pop\n      pop\n      pop\n      pop\n      jump\t// out\n        /* \"@chainlink/contracts/src/v0.8/vendor/CBORChainlink.sol\":2154:2341  function encodeBytes(BufferChainlink.buffer memory buf, bytes memory value) internal pure {... */\n    tag_246:\n        /* \"@chainlink/contracts/src/v0.8/vendor/CBORChainlink.sol\":2250:2313  encodeFixedNumeric(buf, MAJOR_TYPE_BYTES, uint64(value.length)) */\n      tag_289\n        /* \"@chainlink/contracts/src/v0.8/vendor/CBORChainlink.sol\":2269:2272  buf */\n      dup3\n        /* \"@chainlink/contracts/src/v0.8/vendor/CBORChainlink.sol\":335:336  2 */\n      0x02\n        /* \"@chainlink/contracts/src/v0.8/vendor/CBORChainlink.sol\":2299:2304  value */\n      dup4\n        /* \"@chainlink/contracts/src/v0.8/vendor/CBORChainlink.sol\":2299:2311  value.length */\n      mload\n        /* \"@chainlink/contracts/src/v0.8/vendor/CBORChainlink.sol\":2250:2268  encodeFixedNumeric */\n      tag_182\n        /* \"@chainlink/contracts/src/v0.8/vendor/CBORChainlink.sol\":2250:2313  encodeFixedNumeric(buf, MAJOR_TYPE_BYTES, uint64(value.length)) */\n      jump\t// in\n    tag_289:\n        /* \"@chainlink/contracts/src/v0.8/vendor/CBORChainlink.sol\":2319:2336  buf.append(value) */\n      tag_290\n        /* \"@chainlink/contracts/src/v0.8/vendor/CBORChainlink.sol\":2330:2335  value */\n      dup2\n        /* \"@chainlink/contracts/src/v0.8/vendor/CBORChainlink.sol\":2319:2322  buf */\n      dup4\n        /* \"@chainlink/contracts/src/v0.8/vendor/CBORChainlink.sol\":2319:2329  buf.append */\n      tag_184\n      swap1\n        /* \"@chainlink/contracts/src/v0.8/vendor/CBORChainlink.sol\":2319:2336  buf.append(value) */\n      swap2\n      swap1\n      0xffffffff\n      and\n      jump\t// in\n    tag_290:\n      pop\n        /* \"@chainlink/contracts/src/v0.8/vendor/CBORChainlink.sol\":2154:2341  function encodeBytes(BufferChainlink.buffer memory buf, bytes memory value) internal pure {... */\n      pop\n      pop\n      jump\t// out\n        /* \"@chainlink/contracts/src/v0.8/vendor/BufferChainlink.sol\":5148:5787  function writeUint8(... */\n    tag_265:\n        /* \"@chainlink/contracts/src/v0.8/vendor/BufferChainlink.sol\":5251:5264  buffer memory */\n      tag_291\n      tag_208\n      jump\t// in\n    tag_291:\n        /* \"@chainlink/contracts/src/v0.8/vendor/BufferChainlink.sol\":5283:5286  buf */\n      dup4\n        /* \"@chainlink/contracts/src/v0.8/vendor/BufferChainlink.sol\":5283:5295  buf.capacity */\n      0x20\n      add\n      mload\n        /* \"@chainlink/contracts/src/v0.8/vendor/BufferChainlink.sol\":5276:5279  off */\n      dup4\n        /* \"@chainlink/contracts/src/v0.8/vendor/BufferChainlink.sol\":5276:5295  off >= buf.capacity */\n      lt\n        /* \"@chainlink/contracts/src/v0.8/vendor/BufferChainlink.sol\":5272:5341  if (off >= buf.capacity) {... */\n      tag_293\n      jumpi\n        /* \"@chainlink/contracts/src/v0.8/vendor/BufferChainlink.sol\":5305:5334  resize(buf, buf.capacity * 2) */\n      tag_294\n        /* \"@chainlink/contracts/src/v0.8/vendor/BufferChainlink.sol\":5312:5315  buf */\n      dup5\n        /* \"@chainlink/contracts/src/v0.8/vendor/BufferChainlink.sol\":5332:5333  2 */\n      0x02\n        /* \"@chainlink/contracts/src/v0.8/vendor/BufferChainlink.sol\":5317:5320  buf */\n      dup7\n        /* \"@chainlink/contracts/src/v0.8/vendor/BufferChainlink.sol\":5317:5329  buf.capacity */\n      0x20\n      add\n      mload\n        /* \"@chainlink/contracts/src/v0.8/vendor/BufferChainlink.sol\":5317:5333  buf.capacity * 2 */\n      tag_295\n      swap2\n      swap1\n      tag_100\n      jump\t// in\n    tag_295:\n        /* \"@chainlink/contracts/src/v0.8/vendor/BufferChainlink.sol\":5305:5311  resize */\n      tag_280\n        /* \"@chainlink/contracts/src/v0.8/vendor/BufferChainlink.sol\":5305:5334  resize(buf, buf.capacity * 2) */\n      jump\t// in\n    tag_294:\n        /* \"@chainlink/contracts/src/v0.8/vendor/BufferChainlink.sol\":5272:5341  if (off >= buf.capacity) {... */\n    tag_293:\n        /* \"@chainlink/contracts/src/v0.8/vendor/BufferChainlink.sol\":5427:5430  buf */\n      dup4\n        /* \"@chainlink/contracts/src/v0.8/vendor/BufferChainlink.sol\":5421:5431  mload(buf) */\n      mload\n        /* \"@chainlink/contracts/src/v0.8/vendor/BufferChainlink.sol\":5498:5504  bufptr */\n      dup1\n        /* \"@chainlink/contracts/src/v0.8/vendor/BufferChainlink.sol\":5492:5505  mload(bufptr) */\n      mload\n        /* \"@chainlink/contracts/src/v0.8/vendor/BufferChainlink.sol\":5610:5612  32 */\n      0x20\n        /* \"@chainlink/contracts/src/v0.8/vendor/BufferChainlink.sol\":5604:5607  off */\n      dup6\n        /* \"@chainlink/contracts/src/v0.8/vendor/BufferChainlink.sol\":5596:5602  bufptr */\n      dup4\n        /* \"@chainlink/contracts/src/v0.8/vendor/BufferChainlink.sol\":5592:5608  add(bufptr, off) */\n      add\n        /* \"@chainlink/contracts/src/v0.8/vendor/BufferChainlink.sol\":5588:5613  add(add(bufptr, off), 32) */\n      add\n        /* \"@chainlink/contracts/src/v0.8/vendor/BufferChainlink.sol\":5634:5638  data */\n      dup5\n        /* \"@chainlink/contracts/src/v0.8/vendor/BufferChainlink.sol\":5628:5632  dest */\n      dup2\n        /* \"@chainlink/contracts/src/v0.8/vendor/BufferChainlink.sol\":5620:5639  mstore8(dest, data) */\n      mstore8\n        /* \"@chainlink/contracts/src/v0.8/vendor/BufferChainlink.sol\":5705:5711  buflen */\n      dup2\n        /* \"@chainlink/contracts/src/v0.8/vendor/BufferChainlink.sol\":5700:5703  off */\n      dup7\n        /* \"@chainlink/contracts/src/v0.8/vendor/BufferChainlink.sol\":5697:5712  eq(off, buflen) */\n      sub\n        /* \"@chainlink/contracts/src/v0.8/vendor/BufferChainlink.sol\":5694:5761  if eq(off, buflen) {... */\n      tag_296\n      jumpi\n        /* \"@chainlink/contracts/src/v0.8/vendor/BufferChainlink.sol\":5750:5751  1 */\n      0x01\n        /* \"@chainlink/contracts/src/v0.8/vendor/BufferChainlink.sol\":5742:5748  buflen */\n      dup3\n        /* \"@chainlink/contracts/src/v0.8/vendor/BufferChainlink.sol\":5738:5752  add(buflen, 1) */\n      add\n        /* \"@chainlink/contracts/src/v0.8/vendor/BufferChainlink.sol\":5730:5736  bufptr */\n      dup4\n        /* \"@chainlink/contracts/src/v0.8/vendor/BufferChainlink.sol\":5723:5753  mstore(bufptr, add(buflen, 1)) */\n      mstore\n        /* \"@chainlink/contracts/src/v0.8/vendor/BufferChainlink.sol\":5694:5761  if eq(off, buflen) {... */\n    tag_296:\n        /* \"@chainlink/contracts/src/v0.8/vendor/BufferChainlink.sol\":5356:5767  {... */\n      pop\n      pop\n      pop\n        /* \"@chainlink/contracts/src/v0.8/vendor/BufferChainlink.sol\":5779:5782  buf */\n      dup4\n        /* \"@chainlink/contracts/src/v0.8/vendor/BufferChainlink.sol\":5772:5782  return buf */\n      swap1\n      pop\n        /* \"@chainlink/contracts/src/v0.8/vendor/BufferChainlink.sol\":5148:5787  function writeUint8(... */\n      swap4\n      swap3\n      pop\n      pop\n      pop\n      jump\t// out\n        /* \"@chainlink/contracts/src/v0.8/vendor/BufferChainlink.sol\":8974:9649  function writeInt(... */\n    tag_269:\n        /* \"@chainlink/contracts/src/v0.8/vendor/BufferChainlink.sol\":9093:9106  buffer memory */\n      tag_297\n      tag_208\n      jump\t// in\n    tag_297:\n        /* \"@chainlink/contracts/src/v0.8/vendor/BufferChainlink.sol\":9130:9133  buf */\n      dup5\n        /* \"@chainlink/contracts/src/v0.8/vendor/BufferChainlink.sol\":9130:9142  buf.capacity */\n      0x20\n      add\n      mload\n        /* \"@chainlink/contracts/src/v0.8/vendor/BufferChainlink.sol\":9124:9127  off */\n      dup5\n        /* \"@chainlink/contracts/src/v0.8/vendor/BufferChainlink.sol\":9118:9121  len */\n      dup4\n        /* \"@chainlink/contracts/src/v0.8/vendor/BufferChainlink.sol\":9118:9127  len + off */\n      tag_299\n      swap2\n      swap1\n      tag_202\n      jump\t// in\n    tag_299:\n        /* \"@chainlink/contracts/src/v0.8/vendor/BufferChainlink.sol\":9118:9142  len + off > buf.capacity */\n      gt\n        /* \"@chainlink/contracts/src/v0.8/vendor/BufferChainlink.sol\":9114:9187  if (len + off > buf.capacity) {... */\n      iszero\n      tag_300\n      jumpi\n        /* \"@chainlink/contracts/src/v0.8/vendor/BufferChainlink.sol\":9152:9180  resize(buf, (len + off) * 2) */\n      tag_301\n        /* \"@chainlink/contracts/src/v0.8/vendor/BufferChainlink.sol\":9159:9162  buf */\n      dup6\n        /* \"@chainlink/contracts/src/v0.8/vendor/BufferChainlink.sol\":9178:9179  2 */\n      0x02\n        /* \"@chainlink/contracts/src/v0.8/vendor/BufferChainlink.sol\":9171:9174  off */\n      dup7\n        /* \"@chainlink/contracts/src/v0.8/vendor/BufferChainlink.sol\":9165:9168  len */\n      dup6\n        /* \"@chainlink/contracts/src/v0.8/vendor/BufferChainlink.sol\":9165:9174  len + off */\n      tag_302\n      swap2\n      swap1\n      tag_202\n      jump\t// in\n    tag_302:\n        /* \"@chainlink/contracts/src/v0.8/vendor/BufferChainlink.sol\":9164:9179  (len + off) * 2 */\n      tag_303\n      swap2\n      swap1\n      tag_100\n      jump\t// in\n    tag_303:\n        /* \"@chainlink/contracts/src/v0.8/vendor/BufferChainlink.sol\":9152:9158  resize */\n      tag_280\n        /* \"@chainlink/contracts/src/v0.8/vendor/BufferChainlink.sol\":9152:9180  resize(buf, (len + off) * 2) */\n      jump\t// in\n    tag_301:\n        /* \"@chainlink/contracts/src/v0.8/vendor/BufferChainlink.sol\":9114:9187  if (len + off > buf.capacity) {... */\n    tag_300:\n        /* \"@chainlink/contracts/src/v0.8/vendor/BufferChainlink.sol\":9193:9205  uint256 mask */\n      0x00\n        /* \"@chainlink/contracts/src/v0.8/vendor/BufferChainlink.sol\":9221:9222  1 */\n      0x01\n        /* \"@chainlink/contracts/src/v0.8/vendor/BufferChainlink.sol\":9214:9217  len */\n      dup4\n        /* \"@chainlink/contracts/src/v0.8/vendor/BufferChainlink.sol\":9209:9212  256 */\n      0x0100\n        /* \"@chainlink/contracts/src/v0.8/vendor/BufferChainlink.sol\":9209:9217  256**len */\n      tag_304\n      swap2\n      swap1\n      tag_305\n      jump\t// in\n    tag_304:\n        /* \"@chainlink/contracts/src/v0.8/vendor/BufferChainlink.sol\":9208:9222  (256**len) - 1 */\n      tag_306\n      swap2\n      swap1\n      tag_215\n      jump\t// in\n    tag_306:\n        /* \"@chainlink/contracts/src/v0.8/vendor/BufferChainlink.sol\":9193:9222  uint256 mask = (256**len) - 1 */\n      swap1\n      pop\n        /* \"@chainlink/contracts/src/v0.8/vendor/BufferChainlink.sol\":9308:9311  buf */\n      dup6\n        /* \"@chainlink/contracts/src/v0.8/vendor/BufferChainlink.sol\":9302:9312  mload(buf) */\n      mload\n        /* \"@chainlink/contracts/src/v0.8/vendor/BufferChainlink.sol\":9423:9426  len */\n      dup4\n        /* \"@chainlink/contracts/src/v0.8/vendor/BufferChainlink.sol\":9417:9420  off */\n      dup7\n        /* \"@chainlink/contracts/src/v0.8/vendor/BufferChainlink.sol\":9409:9415  bufptr */\n      dup3\n        /* \"@chainlink/contracts/src/v0.8/vendor/BufferChainlink.sol\":9405:9421  add(bufptr, off) */\n      add\n        /* \"@chainlink/contracts/src/v0.8/vendor/BufferChainlink.sol\":9401:9427  add(add(bufptr, off), len) */\n      add\n        /* \"@chainlink/contracts/src/v0.8/vendor/BufferChainlink.sol\":9479:9483  data */\n      dup6\n        /* \"@chainlink/contracts/src/v0.8/vendor/BufferChainlink.sol\":9471:9475  mask */\n      dup4\n        /* \"@chainlink/contracts/src/v0.8/vendor/BufferChainlink.sol\":9467:9476  not(mask) */\n      not\n        /* \"@chainlink/contracts/src/v0.8/vendor/BufferChainlink.sol\":9460:9464  dest */\n      dup3\n        /* \"@chainlink/contracts/src/v0.8/vendor/BufferChainlink.sol\":9454:9465  mload(dest) */\n      mload\n        /* \"@chainlink/contracts/src/v0.8/vendor/BufferChainlink.sol\":9450:9477  and(mload(dest), not(mask)) */\n      and\n        /* \"@chainlink/contracts/src/v0.8/vendor/BufferChainlink.sol\":9447:9484  or(and(mload(dest), not(mask)), data) */\n      or\n        /* \"@chainlink/contracts/src/v0.8/vendor/BufferChainlink.sol\":9441:9445  dest */\n      dup2\n        /* \"@chainlink/contracts/src/v0.8/vendor/BufferChainlink.sol\":9434:9485  mstore(dest, or(and(mload(dest), not(mask)), data)) */\n      mstore\n        /* \"@chainlink/contracts/src/v0.8/vendor/BufferChainlink.sol\":9567:9573  bufptr */\n      dup2\n        /* \"@chainlink/contracts/src/v0.8/vendor/BufferChainlink.sol\":9561:9574  mload(bufptr) */\n      mload\n        /* \"@chainlink/contracts/src/v0.8/vendor/BufferChainlink.sol\":9555:9558  len */\n      dup6\n        /* \"@chainlink/contracts/src/v0.8/vendor/BufferChainlink.sol\":9550:9553  off */\n      dup9\n        /* \"@chainlink/contracts/src/v0.8/vendor/BufferChainlink.sol\":9546:9559  add(off, len) */\n      add\n        /* \"@chainlink/contracts/src/v0.8/vendor/BufferChainlink.sol\":9543:9575  gt(add(off, len), mload(bufptr)) */\n      gt\n        /* \"@chainlink/contracts/src/v0.8/vendor/BufferChainlink.sol\":9540:9623  if gt(add(off, len), mload(bufptr)) {... */\n      iszero\n      tag_307\n      jumpi\n        /* \"@chainlink/contracts/src/v0.8/vendor/BufferChainlink.sol\":9610:9613  len */\n      dup5\n        /* \"@chainlink/contracts/src/v0.8/vendor/BufferChainlink.sol\":9605:9608  off */\n      dup8\n        /* \"@chainlink/contracts/src/v0.8/vendor/BufferChainlink.sol\":9601:9614  add(off, len) */\n      add\n        /* \"@chainlink/contracts/src/v0.8/vendor/BufferChainlink.sol\":9593:9599  bufptr */\n      dup3\n        /* \"@chainlink/contracts/src/v0.8/vendor/BufferChainlink.sol\":9586:9615  mstore(bufptr, add(off, len)) */\n      mstore\n        /* \"@chainlink/contracts/src/v0.8/vendor/BufferChainlink.sol\":9540:9623  if gt(add(off, len), mload(bufptr)) {... */\n    tag_307:\n        /* \"@chainlink/contracts/src/v0.8/vendor/BufferChainlink.sol\":9237:9629  {... */\n      pop\n      pop\n        /* \"@chainlink/contracts/src/v0.8/vendor/BufferChainlink.sol\":9641:9644  buf */\n      dup6\n        /* \"@chainlink/contracts/src/v0.8/vendor/BufferChainlink.sol\":9634:9644  return buf */\n      swap2\n      pop\n      pop\n        /* \"@chainlink/contracts/src/v0.8/vendor/BufferChainlink.sol\":8974:9649  function writeInt(... */\n      swap5\n      swap4\n      pop\n      pop\n      pop\n      pop\n      jump\t// out\n        /* \"@chainlink/contracts/src/v0.8/vendor/BufferChainlink.sol\":1961:2085  function max(uint256 a, uint256 b) private pure returns (uint256) {... */\n    tag_278:\n        /* \"@chainlink/contracts/src/v0.8/vendor/BufferChainlink.sol\":2018:2025  uint256 */\n      0x00\n        /* \"@chainlink/contracts/src/v0.8/vendor/BufferChainlink.sol\":2041:2042  b */\n      dup2\n        /* \"@chainlink/contracts/src/v0.8/vendor/BufferChainlink.sol\":2037:2038  a */\n      dup4\n        /* \"@chainlink/contracts/src/v0.8/vendor/BufferChainlink.sol\":2037:2042  a > b */\n      gt\n        /* \"@chainlink/contracts/src/v0.8/vendor/BufferChainlink.sol\":2033:2067  if (a > b) {... */\n      iszero\n      tag_309\n      jumpi\n        /* \"@chainlink/contracts/src/v0.8/vendor/BufferChainlink.sol\":2059:2060  a */\n      dup3\n        /* \"@chainlink/contracts/src/v0.8/vendor/BufferChainlink.sol\":2052:2060  return a */\n      swap1\n      pop\n      jump(tag_308)\n        /* \"@chainlink/contracts/src/v0.8/vendor/BufferChainlink.sol\":2033:2067  if (a > b) {... */\n    tag_309:\n        /* \"@chainlink/contracts/src/v0.8/vendor/BufferChainlink.sol\":2079:2080  b */\n      dup2\n        /* \"@chainlink/contracts/src/v0.8/vendor/BufferChainlink.sol\":2072:2080  return b */\n      swap1\n      pop\n        /* \"@chainlink/contracts/src/v0.8/vendor/BufferChainlink.sol\":1961:2085  function max(uint256 a, uint256 b) private pure returns (uint256) {... */\n    tag_308:\n      swap3\n      swap2\n      pop\n      pop\n      jump\t// out\n        /* \"@chainlink/contracts/src/v0.8/vendor/BufferChainlink.sol\":1801:1957  function resize(buffer memory buf, uint256 capacity) private pure {... */\n    tag_280:\n        /* \"@chainlink/contracts/src/v0.8/vendor/BufferChainlink.sol\":1873:1892  bytes memory oldbuf */\n      0x00\n        /* \"@chainlink/contracts/src/v0.8/vendor/BufferChainlink.sol\":1895:1898  buf */\n      dup3\n        /* \"@chainlink/contracts/src/v0.8/vendor/BufferChainlink.sol\":1895:1902  buf.buf */\n      0x00\n      add\n      mload\n        /* \"@chainlink/contracts/src/v0.8/vendor/BufferChainlink.sol\":1873:1902  bytes memory oldbuf = buf.buf */\n      swap1\n      pop\n        /* \"@chainlink/contracts/src/v0.8/vendor/BufferChainlink.sol\":1908:1927  init(buf, capacity) */\n      tag_311\n        /* \"@chainlink/contracts/src/v0.8/vendor/BufferChainlink.sol\":1913:1916  buf */\n      dup4\n        /* \"@chainlink/contracts/src/v0.8/vendor/BufferChainlink.sol\":1918:1926  capacity */\n      dup4\n        /* \"@chainlink/contracts/src/v0.8/vendor/BufferChainlink.sol\":1908:1912  init */\n      tag_179\n        /* \"@chainlink/contracts/src/v0.8/vendor/BufferChainlink.sol\":1908:1927  init(buf, capacity) */\n      jump\t// in\n    tag_311:\n      pop\n        /* \"@chainlink/contracts/src/v0.8/vendor/BufferChainlink.sol\":1933:1952  append(buf, oldbuf) */\n      tag_312\n        /* \"@chainlink/contracts/src/v0.8/vendor/BufferChainlink.sol\":1940:1943  buf */\n      dup4\n        /* \"@chainlink/contracts/src/v0.8/vendor/BufferChainlink.sol\":1945:1951  oldbuf */\n      dup3\n        /* \"@chainlink/contracts/src/v0.8/vendor/BufferChainlink.sol\":1933:1939  append */\n      tag_184\n        /* \"@chainlink/contracts/src/v0.8/vendor/BufferChainlink.sol\":1933:1952  append(buf, oldbuf) */\n      jump\t// in\n    tag_312:\n      pop\n        /* \"@chainlink/contracts/src/v0.8/vendor/BufferChainlink.sol\":1867:1957  {... */\n      pop\n        /* \"@chainlink/contracts/src/v0.8/vendor/BufferChainlink.sol\":1801:1957  function resize(buffer memory buf, uint256 capacity) private pure {... */\n      pop\n      pop\n      jump\t// out\n    tag_154:\n      mload(0x40)\n      dup1\n      0xa0\n      add\n      0x40\n      mstore\n      dup1\n      0x00\n      dup1\n      not\n      and\n      dup2\n      mstore\n      0x20\n      add\n      and(0xffffffffffffffffffffffffffffffffffffffff, 0x00)\n      dup2\n      mstore\n      0x20\n      add\n      and(not(0xffffffffffffffffffffffffffffffffffffffffffffffffffffffff), 0x00)\n      dup2\n      mstore\n      0x20\n      add\n      0x00\n      dup2\n      mstore\n      0x20\n      add\n      tag_313\n      tag_208\n      jump\t// in\n    tag_313:\n      dup2\n      mstore\n      pop\n      swap1\n      jump\t// out\n    tag_208:\n      mload(0x40)\n      dup1\n      0x40\n      add\n      0x40\n      mstore\n      dup1\n      0x60\n      dup2\n      mstore\n      0x20\n      add\n      0x00\n      dup2\n      mstore\n      pop\n      swap1\n      jump\t// out\n        /* \"#utility.yul\":7:82   */\n    tag_314:\n        /* \"#utility.yul\":40:46   */\n      0x00\n        /* \"#utility.yul\":73:75   */\n      0x40\n        /* \"#utility.yul\":67:76   */\n      mload\n        /* \"#utility.yul\":57:76   */\n      swap1\n      pop\n        /* \"#utility.yul\":7:82   */\n      swap1\n      jump\t// out\n        /* \"#utility.yul\":88:205   */\n    tag_315:\n        /* \"#utility.yul\":197:198   */\n      0x00\n        /* \"#utility.yul\":194:195   */\n      dup1\n        /* \"#utility.yul\":187:199   */\n      revert\n        /* \"#utility.yul\":211:328   */\n    tag_316:\n        /* \"#utility.yul\":320:321   */\n      0x00\n        /* \"#utility.yul\":317:318   */\n      dup1\n        /* \"#utility.yul\":310:322   */\n      revert\n        /* \"#utility.yul\":334:451   */\n    tag_317:\n        /* \"#utility.yul\":443:444   */\n      0x00\n        /* \"#utility.yul\":440:441   */\n      dup1\n        /* \"#utility.yul\":433:445   */\n      revert\n        /* \"#utility.yul\":457:574   */\n    tag_318:\n        /* \"#utility.yul\":566:567   */\n      0x00\n        /* \"#utility.yul\":563:564   */\n      dup1\n        /* \"#utility.yul\":556:568   */\n      revert\n        /* \"#utility.yul\":580:682   */\n    tag_319:\n        /* \"#utility.yul\":621:627   */\n      0x00\n        /* \"#utility.yul\":672:674   */\n      0x1f\n        /* \"#utility.yul\":668:675   */\n      not\n        /* \"#utility.yul\":663:665   */\n      0x1f\n        /* \"#utility.yul\":656:661   */\n      dup4\n        /* \"#utility.yul\":652:666   */\n      add\n        /* \"#utility.yul\":648:676   */\n      and\n        /* \"#utility.yul\":638:676   */\n      swap1\n      pop\n        /* \"#utility.yul\":580:682   */\n      swap2\n      swap1\n      pop\n      jump\t// out\n        /* \"#utility.yul\":688:868   */\n    tag_320:\n        /* \"#utility.yul\":736:813   */\n      0x4e487b7100000000000000000000000000000000000000000000000000000000\n        /* \"#utility.yul\":733:734   */\n      0x00\n        /* \"#utility.yul\":726:814   */\n      mstore\n        /* \"#utility.yul\":833:837   */\n      0x41\n        /* \"#utility.yul\":830:831   */\n      0x04\n        /* \"#utility.yul\":823:838   */\n      mstore\n        /* \"#utility.yul\":857:861   */\n      0x24\n        /* \"#utility.yul\":854:855   */\n      0x00\n        /* \"#utility.yul\":847:862   */\n      revert\n        /* \"#utility.yul\":874:1155   */\n    tag_321:\n        /* \"#utility.yul\":957:984   */\n      tag_395\n        /* \"#utility.yul\":979:983   */\n      dup3\n        /* \"#utility.yul\":957:984   */\n      tag_319\n      jump\t// in\n    tag_395:\n        /* \"#utility.yul\":949:955   */\n      dup2\n        /* \"#utility.yul\":945:985   */\n      add\n        /* \"#utility.yul\":1087:1093   */\n      dup2\n        /* \"#utility.yul\":1075:1085   */\n      dup2\n        /* \"#utility.yul\":1072:1094   */\n      lt\n        /* \"#utility.yul\":1051:1069   */\n      0xffffffffffffffff\n        /* \"#utility.yul\":1039:1049   */\n      dup3\n        /* \"#utility.yul\":1036:1070   */\n      gt\n        /* \"#utility.yul\":1033:1095   */\n      or\n        /* \"#utility.yul\":1030:1118   */\n      iszero\n      tag_396\n      jumpi\n        /* \"#utility.yul\":1098:1116   */\n      tag_397\n      tag_320\n      jump\t// in\n    tag_397:\n        /* \"#utility.yul\":1030:1118   */\n    tag_396:\n        /* \"#utility.yul\":1138:1148   */\n      dup1\n        /* \"#utility.yul\":1134:1136   */\n      0x40\n        /* \"#utility.yul\":1127:1149   */\n      mstore\n        /* \"#utility.yul\":917:1155   */\n      pop\n        /* \"#utility.yul\":874:1155   */\n      pop\n      pop\n      jump\t// out\n        /* \"#utility.yul\":1161:1290   */\n    tag_322:\n        /* \"#utility.yul\":1195:1201   */\n      0x00\n        /* \"#utility.yul\":1222:1242   */\n      tag_399\n      tag_314\n      jump\t// in\n    tag_399:\n        /* \"#utility.yul\":1212:1242   */\n      swap1\n      pop\n        /* \"#utility.yul\":1251:1284   */\n      tag_400\n        /* \"#utility.yul\":1279:1283   */\n      dup3\n        /* \"#utility.yul\":1271:1277   */\n      dup3\n        /* \"#utility.yul\":1251:1284   */\n      tag_321\n      jump\t// in\n    tag_400:\n        /* \"#utility.yul\":1161:1290   */\n      swap2\n      swap1\n      pop\n      jump\t// out\n        /* \"#utility.yul\":1296:1604   */\n    tag_323:\n        /* \"#utility.yul\":1358:1362   */\n      0x00\n        /* \"#utility.yul\":1448:1466   */\n      0xffffffffffffffff\n        /* \"#utility.yul\":1440:1446   */\n      dup3\n        /* \"#utility.yul\":1437:1467   */\n      gt\n        /* \"#utility.yul\":1434:1490   */\n      iszero\n      tag_402\n      jumpi\n        /* \"#utility.yul\":1470:1488   */\n      tag_403\n      tag_320\n      jump\t// in\n    tag_403:\n        /* \"#utility.yul\":1434:1490   */\n    tag_402:\n        /* \"#utility.yul\":1508:1537   */\n      tag_404\n        /* \"#utility.yul\":1530:1536   */\n      dup3\n        /* \"#utility.yul\":1508:1537   */\n      tag_319\n      jump\t// in\n    tag_404:\n        /* \"#utility.yul\":1500:1537   */\n      swap1\n      pop\n        /* \"#utility.yul\":1592:1596   */\n      0x20\n        /* \"#utility.yul\":1586:1590   */\n      dup2\n        /* \"#utility.yul\":1582:1597   */\n      add\n        /* \"#utility.yul\":1574:1597   */\n      swap1\n      pop\n        /* \"#utility.yul\":1296:1604   */\n      swap2\n      swap1\n      pop\n      jump\t// out\n        /* \"#utility.yul\":1610:1756   */\n    tag_324:\n        /* \"#utility.yul\":1707:1713   */\n      dup3\n        /* \"#utility.yul\":1702:1705   */\n      dup2\n        /* \"#utility.yul\":1697:1700   */\n      dup4\n        /* \"#utility.yul\":1684:1714   */\n      calldatacopy\n        /* \"#utility.yul\":1748:1749   */\n      0x00\n        /* \"#utility.yul\":1739:1745   */\n      dup4\n        /* \"#utility.yul\":1734:1737   */\n      dup4\n        /* \"#utility.yul\":1730:1746   */\n      add\n        /* \"#utility.yul\":1723:1750   */\n      mstore\n        /* \"#utility.yul\":1610:1756   */\n      pop\n      pop\n      pop\n      jump\t// out\n        /* \"#utility.yul\":1762:2187   */\n    tag_325:\n        /* \"#utility.yul\":1840:1845   */\n      0x00\n        /* \"#utility.yul\":1865:1931   */\n      tag_407\n        /* \"#utility.yul\":1881:1930   */\n      tag_408\n        /* \"#utility.yul\":1923:1929   */\n      dup5\n        /* \"#utility.yul\":1881:1930   */\n      tag_323\n      jump\t// in\n    tag_408:\n        /* \"#utility.yul\":1865:1931   */\n      tag_322\n      jump\t// in\n    tag_407:\n        /* \"#utility.yul\":1856:1931   */\n      swap1\n      pop\n        /* \"#utility.yul\":1954:1960   */\n      dup3\n        /* \"#utility.yul\":1947:1952   */\n      dup2\n        /* \"#utility.yul\":1940:1961   */\n      mstore\n        /* \"#utility.yul\":1992:1996   */\n      0x20\n        /* \"#utility.yul\":1985:1990   */\n      dup2\n        /* \"#utility.yul\":1981:1997   */\n      add\n        /* \"#utility.yul\":2030:2033   */\n      dup5\n        /* \"#utility.yul\":2021:2027   */\n      dup5\n        /* \"#utility.yul\":2016:2019   */\n      dup5\n        /* \"#utility.yul\":2012:2028   */\n      add\n        /* \"#utility.yul\":2009:2034   */\n      gt\n        /* \"#utility.yul\":2006:2118   */\n      iszero\n      tag_409\n      jumpi\n        /* \"#utility.yul\":2037:2116   */\n      tag_410\n      tag_318\n      jump\t// in\n    tag_410:\n        /* \"#utility.yul\":2006:2118   */\n    tag_409:\n        /* \"#utility.yul\":2127:2181   */\n      tag_411\n        /* \"#utility.yul\":2174:2180   */\n      dup5\n        /* \"#utility.yul\":2169:2172   */\n      dup3\n        /* \"#utility.yul\":2164:2167   */\n      dup6\n        /* \"#utility.yul\":2127:2181   */\n      tag_324\n      jump\t// in\n    tag_411:\n        /* \"#utility.yul\":1846:2187   */\n      pop\n        /* \"#utility.yul\":1762:2187   */\n      swap4\n      swap3\n      pop\n      pop\n      pop\n      jump\t// out\n        /* \"#utility.yul\":2207:2547   */\n    tag_326:\n        /* \"#utility.yul\":2263:2268   */\n      0x00\n        /* \"#utility.yul\":2312:2315   */\n      dup3\n        /* \"#utility.yul\":2305:2309   */\n      0x1f\n        /* \"#utility.yul\":2297:2303   */\n      dup4\n        /* \"#utility.yul\":2293:2310   */\n      add\n        /* \"#utility.yul\":2289:2316   */\n      slt\n        /* \"#utility.yul\":2279:2401   */\n      tag_413\n      jumpi\n        /* \"#utility.yul\":2320:2399   */\n      tag_414\n      tag_317\n      jump\t// in\n    tag_414:\n        /* \"#utility.yul\":2279:2401   */\n    tag_413:\n        /* \"#utility.yul\":2437:2443   */\n      dup2\n        /* \"#utility.yul\":2424:2444   */\n      calldataload\n        /* \"#utility.yul\":2462:2541   */\n      tag_415\n        /* \"#utility.yul\":2537:2540   */\n      dup5\n        /* \"#utility.yul\":2529:2535   */\n      dup3\n        /* \"#utility.yul\":2522:2526   */\n      0x20\n        /* \"#utility.yul\":2514:2520   */\n      dup7\n        /* \"#utility.yul\":2510:2527   */\n      add\n        /* \"#utility.yul\":2462:2541   */\n      tag_325\n      jump\t// in\n    tag_415:\n        /* \"#utility.yul\":2453:2541   */\n      swap2\n      pop\n        /* \"#utility.yul\":2269:2547   */\n      pop\n        /* \"#utility.yul\":2207:2547   */\n      swap3\n      swap2\n      pop\n      pop\n      jump\t// out\n        /* \"#utility.yul\":2553:3062   */\n    tag_22:\n        /* \"#utility.yul\":2622:2628   */\n      0x00\n        /* \"#utility.yul\":2671:2673   */\n      0x20\n        /* \"#utility.yul\":2659:2668   */\n      dup3\n        /* \"#utility.yul\":2650:2657   */\n      dup5\n        /* \"#utility.yul\":2646:2669   */\n      sub\n        /* \"#utility.yul\":2642:2674   */\n      slt\n        /* \"#utility.yul\":2639:2758   */\n      iszero\n      tag_417\n      jumpi\n        /* \"#utility.yul\":2677:2756   */\n      tag_418\n      tag_315\n      jump\t// in\n    tag_418:\n        /* \"#utility.yul\":2639:2758   */\n    tag_417:\n        /* \"#utility.yul\":2825:2826   */\n      0x00\n        /* \"#utility.yul\":2814:2823   */\n      dup3\n        /* \"#utility.yul\":2810:2827   */\n      add\n        /* \"#utility.yul\":2797:2828   */\n      calldataload\n        /* \"#utility.yul\":2855:2873   */\n      0xffffffffffffffff\n        /* \"#utility.yul\":2847:2853   */\n      dup2\n        /* \"#utility.yul\":2844:2874   */\n      gt\n        /* \"#utility.yul\":2841:2958   */\n      iszero\n      tag_419\n      jumpi\n        /* \"#utility.yul\":2877:2956   */\n      tag_420\n      tag_316\n      jump\t// in\n    tag_420:\n        /* \"#utility.yul\":2841:2958   */\n    tag_419:\n        /* \"#utility.yul\":2982:3045   */\n      tag_421\n        /* \"#utility.yul\":3037:3044   */\n      dup5\n        /* \"#utility.yul\":3028:3034   */\n      dup3\n        /* \"#utility.yul\":3017:3026   */\n      dup6\n        /* \"#utility.yul\":3013:3035   */\n      add\n        /* \"#utility.yul\":2982:3045   */\n      tag_326\n      jump\t// in\n    tag_421:\n        /* \"#utility.yul\":2972:3045   */\n      swap2\n      pop\n        /* \"#utility.yul\":2768:3055   */\n      pop\n        /* \"#utility.yul\":2553:3062   */\n      swap3\n      swap2\n      pop\n      pop\n      jump\t// out\n        /* \"#utility.yul\":3068:3145   */\n    tag_327:\n        /* \"#utility.yul\":3105:3112   */\n      0x00\n        /* \"#utility.yul\":3134:3139   */\n      dup2\n        /* \"#utility.yul\":3123:3139   */\n      swap1\n      pop\n        /* \"#utility.yul\":3068:3145   */\n      swap2\n      swap1\n      pop\n      jump\t// out\n        /* \"#utility.yul\":3151:3273   */\n    tag_328:\n        /* \"#utility.yul\":3224:3248   */\n      tag_424\n        /* \"#utility.yul\":3242:3247   */\n      dup2\n        /* \"#utility.yul\":3224:3248   */\n      tag_327\n      jump\t// in\n    tag_424:\n        /* \"#utility.yul\":3217:3222   */\n      dup2\n        /* \"#utility.yul\":3214:3249   */\n      eq\n        /* \"#utility.yul\":3204:3267   */\n      tag_425\n      jumpi\n        /* \"#utility.yul\":3263:3264   */\n      0x00\n        /* \"#utility.yul\":3260:3261   */\n      dup1\n        /* \"#utility.yul\":3253:3265   */\n      revert\n        /* \"#utility.yul\":3204:3267   */\n    tag_425:\n        /* \"#utility.yul\":3151:3273   */\n      pop\n      jump\t// out\n        /* \"#utility.yul\":3279:3418   */\n    tag_329:\n        /* \"#utility.yul\":3325:3330   */\n      0x00\n        /* \"#utility.yul\":3363:3369   */\n      dup2\n        /* \"#utility.yul\":3350:3370   */\n      calldataload\n        /* \"#utility.yul\":3341:3370   */\n      swap1\n      pop\n        /* \"#utility.yul\":3379:3412   */\n      tag_427\n        /* \"#utility.yul\":3406:3411   */\n      dup2\n        /* \"#utility.yul\":3379:3412   */\n      tag_328\n      jump\t// in\n    tag_427:\n        /* \"#utility.yul\":3279:3418   */\n      swap3\n      swap2\n      pop\n      pop\n      jump\t// out\n        /* \"#utility.yul\":3424:3501   */\n    tag_330:\n        /* \"#utility.yul\":3461:3468   */\n      0x00\n        /* \"#utility.yul\":3490:3495   */\n      dup2\n        /* \"#utility.yul\":3479:3495   */\n      swap1\n      pop\n        /* \"#utility.yul\":3424:3501   */\n      swap2\n      swap1\n      pop\n      jump\t// out\n        /* \"#utility.yul\":3507:3629   */\n    tag_331:\n        /* \"#utility.yul\":3580:3604   */\n      tag_430\n        /* \"#utility.yul\":3598:3603   */\n      dup2\n        /* \"#utility.yul\":3580:3604   */\n      tag_330\n      jump\t// in\n    tag_430:\n        /* \"#utility.yul\":3573:3578   */\n      dup2\n        /* \"#utility.yul\":3570:3605   */\n      eq\n        /* \"#utility.yul\":3560:3623   */\n      tag_431\n      jumpi\n        /* \"#utility.yul\":3619:3620   */\n      0x00\n        /* \"#utility.yul\":3616:3617   */\n      dup1\n        /* \"#utility.yul\":3609:3621   */\n      revert\n        /* \"#utility.yul\":3560:3623   */\n    tag_431:\n        /* \"#utility.yul\":3507:3629   */\n      pop\n      jump\t// out\n        /* \"#utility.yul\":3635:3774   */\n    tag_332:\n        /* \"#utility.yul\":3681:3686   */\n      0x00\n        /* \"#utility.yul\":3719:3725   */\n      dup2\n        /* \"#utility.yul\":3706:3726   */\n      calldataload\n        /* \"#utility.yul\":3697:3726   */\n      swap1\n      pop\n        /* \"#utility.yul\":3735:3768   */\n      tag_433\n        /* \"#utility.yul\":3762:3767   */\n      dup2\n        /* \"#utility.yul\":3735:3768   */\n      tag_331\n      jump\t// in\n    tag_433:\n        /* \"#utility.yul\":3635:3774   */\n      swap3\n      swap2\n      pop\n      pop\n      jump\t// out\n        /* \"#utility.yul\":3780:4254   */\n    tag_28:\n        /* \"#utility.yul\":3848:3854   */\n      0x00\n        /* \"#utility.yul\":3856:3862   */\n      dup1\n        /* \"#utility.yul\":3905:3907   */\n      0x40\n        /* \"#utility.yul\":3893:3902   */\n      dup4\n        /* \"#utility.yul\":3884:3891   */\n      dup6\n        /* \"#utility.yul\":3880:3903   */\n      sub\n        /* \"#utility.yul\":3876:3908   */\n      slt\n        /* \"#utility.yul\":3873:3992   */\n      iszero\n      tag_435\n      jumpi\n        /* \"#utility.yul\":3911:3990   */\n      tag_436\n      tag_315\n      jump\t// in\n    tag_436:\n        /* \"#utility.yul\":3873:3992   */\n    tag_435:\n        /* \"#utility.yul\":4031:4032   */\n      0x00\n        /* \"#utility.yul\":4056:4109   */\n      tag_437\n        /* \"#utility.yul\":4101:4108   */\n      dup6\n        /* \"#utility.yul\":4092:4098   */\n      dup3\n        /* \"#utility.yul\":4081:4090   */\n      dup7\n        /* \"#utility.yul\":4077:4099   */\n      add\n        /* \"#utility.yul\":4056:4109   */\n      tag_329\n      jump\t// in\n    tag_437:\n        /* \"#utility.yul\":4046:4109   */\n      swap3\n      pop\n        /* \"#utility.yul\":4002:4119   */\n      pop\n        /* \"#utility.yul\":4158:4160   */\n      0x20\n        /* \"#utility.yul\":4184:4237   */\n      tag_438\n        /* \"#utility.yul\":4229:4236   */\n      dup6\n        /* \"#utility.yul\":4220:4226   */\n      dup3\n        /* \"#utility.yul\":4209:4218   */\n      dup7\n        /* \"#utility.yul\":4205:4227   */\n      add\n        /* \"#utility.yul\":4184:4237   */\n      tag_332\n      jump\t// in\n    tag_438:\n        /* \"#utility.yul\":4174:4237   */\n      swap2\n      pop\n        /* \"#utility.yul\":4129:4247   */\n      pop\n        /* \"#utility.yul\":3780:4254   */\n      swap3\n      pop\n      swap3\n      swap1\n      pop\n      jump\t// out\n        /* \"#utility.yul\":4260:4386   */\n    tag_333:\n        /* \"#utility.yul\":4297:4304   */\n      0x00\n        /* \"#utility.yul\":4337:4379   */\n      0xffffffffffffffffffffffffffffffffffffffff\n        /* \"#utility.yul\":4330:4335   */\n      dup3\n        /* \"#utility.yul\":4326:4380   */\n      and\n        /* \"#utility.yul\":4315:4380   */\n      swap1\n      pop\n        /* \"#utility.yul\":4260:4386   */\n      swap2\n      swap1\n      pop\n      jump\t// out\n        /* \"#utility.yul\":4392:4488   */\n    tag_334:\n        /* \"#utility.yul\":4429:4436   */\n      0x00\n        /* \"#utility.yul\":4458:4482   */\n      tag_441\n        /* \"#utility.yul\":4476:4481   */\n      dup3\n        /* \"#utility.yul\":4458:4482   */\n      tag_333\n      jump\t// in\n    tag_441:\n        /* \"#utility.yul\":4447:4482   */\n      swap1\n      pop\n        /* \"#utility.yul\":4392:4488   */\n      swap2\n      swap1\n      pop\n      jump\t// out\n        /* \"#utility.yul\":4494:4616   */\n    tag_335:\n        /* \"#utility.yul\":4567:4591   */\n      tag_443\n        /* \"#utility.yul\":4585:4590   */\n      dup2\n        /* \"#utility.yul\":4567:4591   */\n      tag_334\n      jump\t// in\n    tag_443:\n        /* \"#utility.yul\":4560:4565   */\n      dup2\n        /* \"#utility.yul\":4557:4592   */\n      eq\n        /* \"#utility.yul\":4547:4610   */\n      tag_444\n      jumpi\n        /* \"#utility.yul\":4606:4607   */\n      0x00\n        /* \"#utility.yul\":4603:4604   */\n      dup1\n        /* \"#utility.yul\":4596:4608   */\n      revert\n        /* \"#utility.yul\":4547:4610   */\n    tag_444:\n        /* \"#utility.yul\":4494:4616   */\n      pop\n      jump\t// out\n        /* \"#utility.yul\":4622:4761   */\n    tag_336:\n        /* \"#utility.yul\":4668:4673   */\n      0x00\n        /* \"#utility.yul\":4706:4712   */\n      dup2\n        /* \"#utility.yul\":4693:4713   */\n      calldataload\n        /* \"#utility.yul\":4684:4713   */\n      swap1\n      pop\n        /* \"#utility.yul\":4722:4755   */\n      tag_446\n        /* \"#utility.yul\":4749:4754   */\n      dup2\n        /* \"#utility.yul\":4722:4755   */\n      tag_335\n      jump\t// in\n    tag_446:\n        /* \"#utility.yul\":4622:4761   */\n      swap3\n      swap2\n      pop\n      pop\n      jump\t// out\n        /* \"#utility.yul\":4767:5096   */\n    tag_32:\n        /* \"#utility.yul\":4826:4832   */\n      0x00\n        /* \"#utility.yul\":4875:4877   */\n      0x20\n        /* \"#utility.yul\":4863:4872   */\n      dup3\n        /* \"#utility.yul\":4854:4861   */\n      dup5\n        /* \"#utility.yul\":4850:4873   */\n      sub\n        /* \"#utility.yul\":4846:4878   */\n      slt\n        /* \"#utility.yul\":4843:4962   */\n      iszero\n      tag_448\n      jumpi\n        /* \"#utility.yul\":4881:4960   */\n      tag_449\n      tag_315\n      jump\t// in\n    tag_449:\n        /* \"#utility.yul\":4843:4962   */\n    tag_448:\n        /* \"#utility.yul\":5001:5002   */\n      0x00\n        /* \"#utility.yul\":5026:5079   */\n      tag_450\n        /* \"#utility.yul\":5071:5078   */\n      dup5\n        /* \"#utility.yul\":5062:5068   */\n      dup3\n        /* \"#utility.yul\":5051:5060   */\n      dup6\n        /* \"#utility.yul\":5047:5069   */\n      add\n        /* \"#utility.yul\":5026:5079   */\n      tag_336\n      jump\t// in\n    tag_450:\n        /* \"#utility.yul\":5016:5079   */\n      swap2\n      pop\n        /* \"#utility.yul\":4972:5089   */\n      pop\n        /* \"#utility.yul\":4767:5096   */\n      swap3\n      swap2\n      pop\n      pop\n      jump\t// out\n        /* \"#utility.yul\":5102:5220   */\n    tag_337:\n        /* \"#utility.yul\":5189:5213   */\n      tag_452\n        /* \"#utility.yul\":5207:5212   */\n      dup2\n        /* \"#utility.yul\":5189:5213   */\n      tag_330\n      jump\t// in\n    tag_452:\n        /* \"#utility.yul\":5184:5187   */\n      dup3\n        /* \"#utility.yul\":5177:5214   */\n      mstore\n        /* \"#utility.yul\":5102:5220   */\n      pop\n      pop\n      jump\t// out\n        /* \"#utility.yul\":5226:5448   */\n    tag_37:\n        /* \"#utility.yul\":5319:5323   */\n      0x00\n        /* \"#utility.yul\":5357:5359   */\n      0x20\n        /* \"#utility.yul\":5346:5355   */\n      dup3\n        /* \"#utility.yul\":5342:5360   */\n      add\n        /* \"#utility.yul\":5334:5360   */\n      swap1\n      pop\n        /* \"#utility.yul\":5370:5441   */\n      tag_454\n        /* \"#utility.yul\":5438:5439   */\n      0x00\n        /* \"#utility.yul\":5427:5436   */\n      dup4\n        /* \"#utility.yul\":5423:5440   */\n      add\n        /* \"#utility.yul\":5414:5420   */\n      dup5\n        /* \"#utility.yul\":5370:5441   */\n      tag_337\n      jump\t// in\n    tag_454:\n        /* \"#utility.yul\":5226:5448   */\n      swap3\n      swap2\n      pop\n      pop\n      jump\t// out\n        /* \"#utility.yul\":5454:5572   */\n    tag_338:\n        /* \"#utility.yul\":5541:5565   */\n      tag_456\n        /* \"#utility.yul\":5559:5564   */\n      dup2\n        /* \"#utility.yul\":5541:5565   */\n      tag_334\n      jump\t// in\n    tag_456:\n        /* \"#utility.yul\":5536:5539   */\n      dup3\n        /* \"#utility.yul\":5529:5566   */\n      mstore\n        /* \"#utility.yul\":5454:5572   */\n      pop\n      pop\n      jump\t// out\n        /* \"#utility.yul\":5578:5800   */\n    tag_46:\n        /* \"#utility.yul\":5671:5675   */\n      0x00\n        /* \"#utility.yul\":5709:5711   */\n      0x20\n        /* \"#utility.yul\":5698:5707   */\n      dup3\n        /* \"#utility.yul\":5694:5712   */\n      add\n        /* \"#utility.yul\":5686:5712   */\n      swap1\n      pop\n        /* \"#utility.yul\":5722:5793   */\n      tag_458\n        /* \"#utility.yul\":5790:5791   */\n      0x00\n        /* \"#utility.yul\":5779:5788   */\n      dup4\n        /* \"#utility.yul\":5775:5792   */\n      add\n        /* \"#utility.yul\":5766:5772   */\n      dup5\n        /* \"#utility.yul\":5722:5793   */\n      tag_338\n      jump\t// in\n    tag_458:\n        /* \"#utility.yul\":5578:5800   */\n      swap3\n      swap2\n      pop\n      pop\n      jump\t// out\n        /* \"#utility.yul\":5806:5905   */\n    tag_339:\n        /* \"#utility.yul\":5858:5864   */\n      0x00\n        /* \"#utility.yul\":5892:5897   */\n      dup2\n        /* \"#utility.yul\":5886:5898   */\n      mload\n        /* \"#utility.yul\":5876:5898   */\n      swap1\n      pop\n        /* \"#utility.yul\":5806:5905   */\n      swap2\n      swap1\n      pop\n      jump\t// out\n        /* \"#utility.yul\":5911:6080   */\n    tag_340:\n        /* \"#utility.yul\":5995:6006   */\n      0x00\n        /* \"#utility.yul\":6029:6035   */\n      dup3\n        /* \"#utility.yul\":6024:6027   */\n      dup3\n        /* \"#utility.yul\":6017:6036   */\n      mstore\n        /* \"#utility.yul\":6069:6073   */\n      0x20\n        /* \"#utility.yul\":6064:6067   */\n      dup3\n        /* \"#utility.yul\":6060:6074   */\n      add\n        /* \"#utility.yul\":6045:6074   */\n      swap1\n      pop\n        /* \"#utility.yul\":5911:6080   */\n      swap3\n      swap2\n      pop\n      pop\n      jump\t// out\n        /* \"#utility.yul\":6086:6332   */\n    tag_341:\n        /* \"#utility.yul\":6167:6168   */\n      0x00\n        /* \"#utility.yul\":6177:6290   */\n    tag_462:\n        /* \"#utility.yul\":6191:6197   */\n      dup4\n        /* \"#utility.yul\":6188:6189   */\n      dup2\n        /* \"#utility.yul\":6185:6198   */\n      lt\n        /* \"#utility.yul\":6177:6290   */\n      iszero\n      tag_464\n      jumpi\n        /* \"#utility.yul\":6276:6277   */\n      dup1\n        /* \"#utility.yul\":6271:6274   */\n      dup3\n        /* \"#utility.yul\":6267:6278   */\n      add\n        /* \"#utility.yul\":6261:6279   */\n      mload\n        /* \"#utility.yul\":6257:6258   */\n      dup2\n        /* \"#utility.yul\":6252:6255   */\n      dup5\n        /* \"#utility.yul\":6248:6259   */\n      add\n        /* \"#utility.yul\":6241:6280   */\n      mstore\n        /* \"#utility.yul\":6213:6215   */\n      0x20\n        /* \"#utility.yul\":6210:6211   */\n      dup2\n        /* \"#utility.yul\":6206:6216   */\n      add\n        /* \"#utility.yul\":6201:6216   */\n      swap1\n      pop\n        /* \"#utility.yul\":6177:6290   */\n      jump(tag_462)\n    tag_464:\n        /* \"#utility.yul\":6324:6325   */\n      0x00\n        /* \"#utility.yul\":6315:6321   */\n      dup5\n        /* \"#utility.yul\":6310:6313   */\n      dup5\n        /* \"#utility.yul\":6306:6322   */\n      add\n        /* \"#utility.yul\":6299:6326   */\n      mstore\n        /* \"#utility.yul\":6148:6332   */\n      pop\n        /* \"#utility.yul\":6086:6332   */\n      pop\n      pop\n      pop\n      jump\t// out\n        /* \"#utility.yul\":6338:6715   */\n    tag_342:\n        /* \"#utility.yul\":6426:6429   */\n      0x00\n        /* \"#utility.yul\":6454:6493   */\n      tag_466\n        /* \"#utility.yul\":6487:6492   */\n      dup3\n        /* \"#utility.yul\":6454:6493   */\n      tag_339\n      jump\t// in\n    tag_466:\n        /* \"#utility.yul\":6509:6580   */\n      tag_467\n        /* \"#utility.yul\":6573:6579   */\n      dup2\n        /* \"#utility.yul\":6568:6571   */\n      dup6\n        /* \"#utility.yul\":6509:6580   */\n      tag_340\n      jump\t// in\n    tag_467:\n        /* \"#utility.yul\":6502:6580   */\n      swap4\n      pop\n        /* \"#utility.yul\":6589:6654   */\n      tag_468\n        /* \"#utility.yul\":6647:6653   */\n      dup2\n        /* \"#utility.yul\":6642:6645   */\n      dup6\n        /* \"#utility.yul\":6635:6639   */\n      0x20\n        /* \"#utility.yul\":6628:6633   */\n      dup7\n        /* \"#utility.yul\":6624:6640   */\n      add\n        /* \"#utility.yul\":6589:6654   */\n      tag_341\n      jump\t// in\n    tag_468:\n        /* \"#utility.yul\":6679:6708   */\n      tag_469\n        /* \"#utility.yul\":6701:6707   */\n      dup2\n        /* \"#utility.yul\":6679:6708   */\n      tag_319\n      jump\t// in\n    tag_469:\n        /* \"#utility.yul\":6674:6677   */\n      dup5\n        /* \"#utility.yul\":6670:6709   */\n      add\n        /* \"#utility.yul\":6663:6709   */\n      swap2\n      pop\n        /* \"#utility.yul\":6430:6715   */\n      pop\n        /* \"#utility.yul\":6338:6715   */\n      swap3\n      swap2\n      pop\n      pop\n      jump\t// out\n        /* \"#utility.yul\":6721:7034   */\n    tag_52:\n        /* \"#utility.yul\":6834:6838   */\n      0x00\n        /* \"#utility.yul\":6872:6874   */\n      0x20\n        /* \"#utility.yul\":6861:6870   */\n      dup3\n        /* \"#utility.yul\":6857:6875   */\n      add\n        /* \"#utility.yul\":6849:6875   */\n      swap1\n      pop\n        /* \"#utility.yul\":6921:6930   */\n      dup2\n        /* \"#utility.yul\":6915:6919   */\n      dup2\n        /* \"#utility.yul\":6911:6931   */\n      sub\n        /* \"#utility.yul\":6907:6908   */\n      0x00\n        /* \"#utility.yul\":6896:6905   */\n      dup4\n        /* \"#utility.yul\":6892:6909   */\n      add\n        /* \"#utility.yul\":6885:6932   */\n      mstore\n        /* \"#utility.yul\":6949:7027   */\n      tag_471\n        /* \"#utility.yul\":7022:7026   */\n      dup2\n        /* \"#utility.yul\":7013:7019   */\n      dup5\n        /* \"#utility.yul\":6949:7027   */\n      tag_342\n      jump\t// in\n    tag_471:\n        /* \"#utility.yul\":6941:7027   */\n      swap1\n      pop\n        /* \"#utility.yul\":6721:7034   */\n      swap3\n      swap2\n      pop\n      pop\n      jump\t// out\n        /* \"#utility.yul\":7040:7369   */\n    tag_58:\n        /* \"#utility.yul\":7099:7105   */\n      0x00\n        /* \"#utility.yul\":7148:7150   */\n      0x20\n        /* \"#utility.yul\":7136:7145   */\n      dup3\n        /* \"#utility.yul\":7127:7134   */\n      dup5\n        /* \"#utility.yul\":7123:7146   */\n      sub\n        /* \"#utility.yul\":7119:7151   */\n      slt\n        /* \"#utility.yul\":7116:7235   */\n      iszero\n      tag_473\n      jumpi\n        /* \"#utility.yul\":7154:7233   */\n      tag_474\n      tag_315\n      jump\t// in\n    tag_474:\n        /* \"#utility.yul\":7116:7235   */\n    tag_473:\n        /* \"#utility.yul\":7274:7275   */\n      0x00\n        /* \"#utility.yul\":7299:7352   */\n      tag_475\n        /* \"#utility.yul\":7344:7351   */\n      dup5\n        /* \"#utility.yul\":7335:7341   */\n      dup3\n        /* \"#utility.yul\":7324:7333   */\n      dup6\n        /* \"#utility.yul\":7320:7342   */\n      add\n        /* \"#utility.yul\":7299:7352   */\n      tag_332\n      jump\t// in\n    tag_475:\n        /* \"#utility.yul\":7289:7352   */\n      swap2\n      pop\n        /* \"#utility.yul\":7245:7362   */\n      pop\n        /* \"#utility.yul\":7040:7369   */\n      swap3\n      swap2\n      pop\n      pop\n      jump\t// out\n        /* \"#utility.yul\":7375:7473   */\n    tag_343:\n        /* \"#utility.yul\":7426:7432   */\n      0x00\n        /* \"#utility.yul\":7460:7465   */\n      dup2\n        /* \"#utility.yul\":7454:7466   */\n      mload\n        /* \"#utility.yul\":7444:7466   */\n      swap1\n      pop\n        /* \"#utility.yul\":7375:7473   */\n      swap2\n      swap1\n      pop\n      jump\t// out\n        /* \"#utility.yul\":7479:7595   */\n    tag_344:\n        /* \"#utility.yul\":7530:7534   */\n      0x00\n        /* \"#utility.yul\":7553:7556   */\n      dup2\n        /* \"#utility.yul\":7545:7556   */\n      swap1\n      pop\n        /* \"#utility.yul\":7583:7587   */\n      0x20\n        /* \"#utility.yul\":7578:7581   */\n      dup3\n        /* \"#utility.yul\":7574:7588   */\n      add\n        /* \"#utility.yul\":7566:7588   */\n      swap1\n      pop\n        /* \"#utility.yul\":7479:7595   */\n      swap2\n      swap1\n      pop\n      jump\t// out\n        /* \"#utility.yul\":7601:7755   */\n    tag_345:\n        /* \"#utility.yul\":7644:7655   */\n      0x00\n        /* \"#utility.yul\":7680:7709   */\n      tag_479\n        /* \"#utility.yul\":7704:7707   */\n      dup3\n        /* \"#utility.yul\":7698:7708   */\n      mload\n        /* \"#utility.yul\":7680:7709   */\n      tag_327\n      jump\t// in\n    tag_479:\n        /* \"#utility.yul\":7743:7748   */\n      dup1\n        /* \"#utility.yul\":7719:7748   */\n      swap2\n      pop\n        /* \"#utility.yul\":7656:7755   */\n      pop\n        /* \"#utility.yul\":7601:7755   */\n      swap2\n      swap1\n      pop\n      jump\t// out\n        /* \"#utility.yul\":7761:7868   */\n    tag_346:\n        /* \"#utility.yul\":7805:7813   */\n      0x00\n        /* \"#utility.yul\":7855:7860   */\n      dup3\n        /* \"#utility.yul\":7849:7853   */\n      dup3\n        /* \"#utility.yul\":7845:7861   */\n      shl\n        /* \"#utility.yul\":7824:7861   */\n      swap1\n      pop\n        /* \"#utility.yul\":7761:7868   */\n      swap3\n      swap2\n      pop\n      pop\n      jump\t// out\n        /* \"#utility.yul\":7874:8468   */\n    tag_71:\n        /* \"#utility.yul\":7958:7963   */\n      0x00\n        /* \"#utility.yul\":7989:8027   */\n      tag_482\n        /* \"#utility.yul\":8021:8026   */\n      dup3\n        /* \"#utility.yul\":7989:8027   */\n      tag_343\n      jump\t// in\n    tag_482:\n        /* \"#utility.yul\":8052:8057   */\n      dup3\n        /* \"#utility.yul\":8079:8119   */\n      tag_483\n        /* \"#utility.yul\":8113:8118   */\n      dup5\n        /* \"#utility.yul\":8079:8119   */\n      tag_344\n      jump\t// in\n    tag_483:\n        /* \"#utility.yul\":8067:8119   */\n      swap1\n      pop\n        /* \"#utility.yul\":8138:8173   */\n      tag_484\n        /* \"#utility.yul\":8164:8172   */\n      dup2\n        /* \"#utility.yul\":8138:8173   */\n      tag_345\n      jump\t// in\n    tag_484:\n        /* \"#utility.yul\":8129:8173   */\n      swap3\n      pop\n        /* \"#utility.yul\":8197:8199   */\n      0x20\n        /* \"#utility.yul\":8189:8195   */\n      dup3\n        /* \"#utility.yul\":8186:8200   */\n      lt\n        /* \"#utility.yul\":8183:8461   */\n      iszero\n      tag_485\n      jumpi\n        /* \"#utility.yul\":8268:8437   */\n      tag_486\n        /* \"#utility.yul\":8353:8419   */\n      0xffffffffffffffffffffffffffffffffffffffffffffffffffffffffffffffff\n        /* \"#utility.yul\":8323:8329   */\n      dup4\n        /* \"#utility.yul\":8319:8321   */\n      0x20\n        /* \"#utility.yul\":8315:8330   */\n      sub\n        /* \"#utility.yul\":8312:8313   */\n      0x08\n        /* \"#utility.yul\":8308:8331   */\n      mul\n        /* \"#utility.yul\":8268:8437   */\n      tag_346\n      jump\t// in\n    tag_486:\n        /* \"#utility.yul\":8245:8250   */\n      dup4\n        /* \"#utility.yul\":8224:8451   */\n      and\n        /* \"#utility.yul\":8215:8451   */\n      swap3\n      pop\n        /* \"#utility.yul\":8183:8461   */\n    tag_485:\n        /* \"#utility.yul\":7964:8468   */\n      pop\n      pop\n        /* \"#utility.yul\":7874:8468   */\n      swap2\n      swap1\n      pop\n      jump\t// out\n        /* \"#utility.yul\":8474:8701   */\n    tag_347:\n        /* \"#utility.yul\":8614:8648   */\n      0x536f75726365206d75737420626520746865206f7261636c65206f6620746865\n        /* \"#utility.yul\":8610:8611   */\n      0x00\n        /* \"#utility.yul\":8602:8608   */\n      dup3\n        /* \"#utility.yul\":8598:8612   */\n      add\n        /* \"#utility.yul\":8591:8649   */\n      mstore\n        /* \"#utility.yul\":8683:8693   */\n      0x2072657175657374000000000000000000000000000000000000000000000000\n        /* \"#utility.yul\":8678:8680   */\n      0x20\n        /* \"#utility.yul\":8670:8676   */\n      dup3\n        /* \"#utility.yul\":8666:8681   */\n      add\n        /* \"#utility.yul\":8659:8694   */\n      mstore\n        /* \"#utility.yul\":8474:8701   */\n      pop\n      jump\t// out\n        /* \"#utility.yul\":8707:9073   */\n    tag_348:\n        /* \"#utility.yul\":8849:8852   */\n      0x00\n        /* \"#utility.yul\":8870:8937   */\n      tag_489\n        /* \"#utility.yul\":8934:8936   */\n      0x28\n        /* \"#utility.yul\":8929:8932   */\n      dup4\n        /* \"#utility.yul\":8870:8937   */\n      tag_340\n      jump\t// in\n    tag_489:\n        /* \"#utility.yul\":8863:8937   */\n      swap2\n      pop\n        /* \"#utility.yul\":8946:9039   */\n      tag_490\n        /* \"#utility.yul\":9035:9038   */\n      dup3\n        /* \"#utility.yul\":8946:9039   */\n      tag_347\n      jump\t// in\n    tag_490:\n        /* \"#utility.yul\":9064:9066   */\n      0x40\n        /* \"#utility.yul\":9059:9062   */\n      dup3\n        /* \"#utility.yul\":9055:9067   */\n      add\n        /* \"#utility.yul\":9048:9067   */\n      swap1\n      pop\n        /* \"#utility.yul\":8707:9073   */\n      swap2\n      swap1\n      pop\n      jump\t// out\n        /* \"#utility.yul\":9079:9498   */\n    tag_89:\n        /* \"#utility.yul\":9245:9249   */\n      0x00\n        /* \"#utility.yul\":9283:9285   */\n      0x20\n        /* \"#utility.yul\":9272:9281   */\n      dup3\n        /* \"#utility.yul\":9268:9286   */\n      add\n        /* \"#utility.yul\":9260:9286   */\n      swap1\n      pop\n        /* \"#utility.yul\":9332:9341   */\n      dup2\n        /* \"#utility.yul\":9326:9330   */\n      dup2\n        /* \"#utility.yul\":9322:9342   */\n      sub\n        /* \"#utility.yul\":9318:9319   */\n      0x00\n        /* \"#utility.yul\":9307:9316   */\n      dup4\n        /* \"#utility.yul\":9303:9320   */\n      add\n        /* \"#utility.yul\":9296:9343   */\n      mstore\n        /* \"#utility.yul\":9360:9491   */\n      tag_492\n        /* \"#utility.yul\":9486:9490   */\n      dup2\n        /* \"#utility.yul\":9360:9491   */\n      tag_348\n      jump\t// in\n    tag_492:\n        /* \"#utility.yul\":9352:9491   */\n      swap1\n      pop\n        /* \"#utility.yul\":9079:9498   */\n      swap2\n      swap1\n      pop\n      jump\t// out\n        /* \"#utility.yul\":9504:9684   */\n    tag_349:\n        /* \"#utility.yul\":9552:9629   */\n      0x4e487b7100000000000000000000000000000000000000000000000000000000\n        /* \"#utility.yul\":9549:9550   */\n      0x00\n        /* \"#utility.yul\":9542:9630   */\n      mstore\n        /* \"#utility.yul\":9649:9653   */\n      0x11\n        /* \"#utility.yul\":9646:9647   */\n      0x04\n        /* \"#utility.yul\":9639:9654   */\n      mstore\n        /* \"#utility.yul\":9673:9677   */\n      0x24\n        /* \"#utility.yul\":9670:9671   */\n      0x00\n        /* \"#utility.yul\":9663:9678   */\n      revert\n        /* \"#utility.yul\":9690:10100   */\n    tag_100:\n        /* \"#utility.yul\":9730:9737   */\n      0x00\n        /* \"#utility.yul\":9753:9773   */\n      tag_495\n        /* \"#utility.yul\":9771:9772   */\n      dup3\n        /* \"#utility.yul\":9753:9773   */\n      tag_330\n      jump\t// in\n    tag_495:\n        /* \"#utility.yul\":9748:9773   */\n      swap2\n      pop\n        /* \"#utility.yul\":9787:9807   */\n      tag_496\n        /* \"#utility.yul\":9805:9806   */\n      dup4\n        /* \"#utility.yul\":9787:9807   */\n      tag_330\n      jump\t// in\n    tag_496:\n        /* \"#utility.yul\":9782:9807   */\n      swap3\n      pop\n        /* \"#utility.yul\":9842:9843   */\n      dup3\n        /* \"#utility.yul\":9839:9840   */\n      dup3\n        /* \"#utility.yul\":9835:9844   */\n      mul\n        /* \"#utility.yul\":9864:9894   */\n      tag_497\n        /* \"#utility.yul\":9882:9893   */\n      dup2\n        /* \"#utility.yul\":9864:9894   */\n      tag_330\n      jump\t// in\n    tag_497:\n        /* \"#utility.yul\":9853:9894   */\n      swap2\n      pop\n        /* \"#utility.yul\":10043:10044   */\n      dup3\n        /* \"#utility.yul\":10034:10041   */\n      dup3\n        /* \"#utility.yul\":10030:10045   */\n      div\n        /* \"#utility.yul\":10027:10028   */\n      dup5\n        /* \"#utility.yul\":10024:10046   */\n      eq\n        /* \"#utility.yul\":10004:10005   */\n      dup4\n        /* \"#utility.yul\":9997:10006   */\n      iszero\n        /* \"#utility.yul\":9977:10060   */\n      or\n        /* \"#utility.yul\":9954:10093   */\n      tag_498\n      jumpi\n        /* \"#utility.yul\":10073:10091   */\n      tag_499\n      tag_349\n      jump\t// in\n    tag_499:\n        /* \"#utility.yul\":9954:10093   */\n    tag_498:\n        /* \"#utility.yul\":9738:10100   */\n      pop\n        /* \"#utility.yul\":9690:10100   */\n      swap3\n      swap2\n      pop\n      pop\n      jump\t// out\n        /* \"#utility.yul\":10106:10286   */\n    tag_350:\n        /* \"#utility.yul\":10154:10231   */\n      0x4e487b7100000000000000000000000000000000000000000000000000000000\n        /* \"#utility.yul\":10151:10152   */\n      0x00\n        /* \"#utility.yul\":10144:10232   */\n      mstore\n        /* \"#utility.yul\":10251:10255   */\n      0x12\n        /* \"#utility.yul\":10248:10249   */\n      0x04\n        /* \"#utility.yul\":10241:10256   */\n      mstore\n        /* \"#utility.yul\":10275:10279   */\n      0x24\n        /* \"#utility.yul\":10272:10273   */\n      0x00\n        /* \"#utility.yul\":10265:10280   */\n      revert\n        /* \"#utility.yul\":10292:10477   */\n    tag_102:\n        /* \"#utility.yul\":10332:10333   */\n      0x00\n        /* \"#utility.yul\":10349:10369   */\n      tag_502\n        /* \"#utility.yul\":10367:10368   */\n      dup3\n        /* \"#utility.yul\":10349:10369   */\n      tag_330\n      jump\t// in\n    tag_502:\n        /* \"#utility.yul\":10344:10369   */\n      swap2\n      pop\n        /* \"#utility.yul\":10383:10403   */\n      tag_503\n        /* \"#utility.yul\":10401:10402   */\n      dup4\n        /* \"#utility.yul\":10383:10403   */\n      tag_330\n      jump\t// in\n    tag_503:\n        /* \"#utility.yul\":10378:10403   */\n      swap3\n      pop\n        /* \"#utility.yul\":10422:10423   */\n      dup3\n        /* \"#utility.yul\":10412:10447   */\n      tag_504\n      jumpi\n        /* \"#utility.yul\":10427:10445   */\n      tag_505\n      tag_350\n      jump\t// in\n    tag_505:\n        /* \"#utility.yul\":10412:10447   */\n    tag_504:\n        /* \"#utility.yul\":10469:10470   */\n      dup3\n        /* \"#utility.yul\":10466:10467   */\n      dup3\n        /* \"#utility.yul\":10462:10471   */\n      div\n        /* \"#utility.yul\":10457:10471   */\n      swap1\n      pop\n        /* \"#utility.yul\":10292:10477   */\n      swap3\n      swap2\n      pop\n      pop\n      jump\t// out\n        /* \"#utility.yul\":10483:10655   */\n    tag_351:\n        /* \"#utility.yul\":10623:10647   */\n      0x4d7573742062652070726f706f736564206f776e657200000000000000000000\n        /* \"#utility.yul\":10619:10620   */\n      0x00\n        /* \"#utility.yul\":10611:10617   */\n      dup3\n        /* \"#utility.yul\":10607:10621   */\n      add\n        /* \"#utility.yul\":10600:10648   */\n      mstore\n        /* \"#utility.yul\":10483:10655   */\n      pop\n      jump\t// out\n        /* \"#utility.yul\":10661:11027   */\n    tag_352:\n        /* \"#utility.yul\":10803:10806   */\n      0x00\n        /* \"#utility.yul\":10824:10891   */\n      tag_508\n        /* \"#utility.yul\":10888:10890   */\n      0x16\n        /* \"#utility.yul\":10883:10886   */\n      dup4\n        /* \"#utility.yul\":10824:10891   */\n      tag_340\n      jump\t// in\n    tag_508:\n        /* \"#utility.yul\":10817:10891   */\n      swap2\n      pop\n        /* \"#utility.yul\":10900:10993   */\n      tag_509\n        /* \"#utility.yul\":10989:10992   */\n      dup3\n        /* \"#utility.yul\":10900:10993   */\n      tag_351\n      jump\t// in\n    tag_509:\n        /* \"#utility.yul\":11018:11020   */\n      0x20\n        /* \"#utility.yul\":11013:11016   */\n      dup3\n        /* \"#utility.yul\":11009:11021   */\n      add\n        /* \"#utility.yul\":11002:11021   */\n      swap1\n      pop\n        /* \"#utility.yul\":10661:11027   */\n      swap2\n      swap1\n      pop\n      jump\t// out\n        /* \"#utility.yul\":11033:11452   */\n    tag_106:\n        /* \"#utility.yul\":11199:11203   */\n      0x00\n        /* \"#utility.yul\":11237:11239   */\n      0x20\n        /* \"#utility.yul\":11226:11235   */\n      dup3\n        /* \"#utility.yul\":11222:11240   */\n      add\n        /* \"#utility.yul\":11214:11240   */\n      swap1\n      pop\n        /* \"#utility.yul\":11286:11295   */\n      dup2\n        /* \"#utility.yul\":11280:11284   */\n      dup2\n        /* \"#utility.yul\":11276:11296   */\n      sub\n        /* \"#utility.yul\":11272:11273   */\n      0x00\n        /* \"#utility.yul\":11261:11270   */\n      dup4\n        /* \"#utility.yul\":11257:11274   */\n      add\n        /* \"#utility.yul\":11250:11297   */\n      mstore\n        /* \"#utility.yul\":11314:11445   */\n      tag_511\n        /* \"#utility.yul\":11440:11444   */\n      dup2\n        /* \"#utility.yul\":11314:11445   */\n      tag_352\n      jump\t// in\n    tag_511:\n        /* \"#utility.yul\":11306:11445   */\n      swap1\n      pop\n        /* \"#utility.yul\":11033:11452   */\n      swap2\n      swap1\n      pop\n      jump\t// out\n        /* \"#utility.yul\":11458:11601   */\n    tag_353:\n        /* \"#utility.yul\":11515:11520   */\n      0x00\n        /* \"#utility.yul\":11546:11552   */\n      dup2\n        /* \"#utility.yul\":11540:11553   */\n      mload\n        /* \"#utility.yul\":11531:11553   */\n      swap1\n      pop\n        /* \"#utility.yul\":11562:11595   */\n      tag_513\n        /* \"#utility.yul\":11589:11594   */\n      dup2\n        /* \"#utility.yul\":11562:11595   */\n      tag_331\n      jump\t// in\n    tag_513:\n        /* \"#utility.yul\":11458:11601   */\n      swap3\n      swap2\n      pop\n      pop\n      jump\t// out\n        /* \"#utility.yul\":11607:11958   */\n    tag_117:\n        /* \"#utility.yul\":11677:11683   */\n      0x00\n        /* \"#utility.yul\":11726:11728   */\n      0x20\n        /* \"#utility.yul\":11714:11723   */\n      dup3\n        /* \"#utility.yul\":11705:11712   */\n      dup5\n        /* \"#utility.yul\":11701:11724   */\n      sub\n        /* \"#utility.yul\":11697:11729   */\n      slt\n        /* \"#utility.yul\":11694:11813   */\n      iszero\n      tag_515\n      jumpi\n        /* \"#utility.yul\":11732:11811   */\n      tag_516\n      tag_315\n      jump\t// in\n    tag_516:\n        /* \"#utility.yul\":11694:11813   */\n    tag_515:\n        /* \"#utility.yul\":11852:11853   */\n      0x00\n        /* \"#utility.yul\":11877:11941   */\n      tag_517\n        /* \"#utility.yul\":11933:11940   */\n      dup5\n        /* \"#utility.yul\":11924:11930   */\n      dup3\n        /* \"#utility.yul\":11913:11922   */\n      dup6\n        /* \"#utility.yul\":11909:11931   */\n      add\n        /* \"#utility.yul\":11877:11941   */\n      tag_353\n      jump\t// in\n    tag_517:\n        /* \"#utility.yul\":11867:11941   */\n      swap2\n      pop\n        /* \"#utility.yul\":11823:11951   */\n      pop\n        /* \"#utility.yul\":11607:11958   */\n      swap3\n      swap2\n      pop\n      pop\n      jump\t// out\n        /* \"#utility.yul\":11964:12296   */\n    tag_119:\n        /* \"#utility.yul\":12085:12089   */\n      0x00\n        /* \"#utility.yul\":12123:12125   */\n      0x40\n        /* \"#utility.yul\":12112:12121   */\n      dup3\n        /* \"#utility.yul\":12108:12126   */\n      add\n        /* \"#utility.yul\":12100:12126   */\n      swap1\n      pop\n        /* \"#utility.yul\":12136:12207   */\n      tag_519\n        /* \"#utility.yul\":12204:12205   */\n      0x00\n        /* \"#utility.yul\":12193:12202   */\n      dup4\n        /* \"#utility.yul\":12189:12206   */\n      add\n        /* \"#utility.yul\":12180:12186   */\n      dup6\n        /* \"#utility.yul\":12136:12207   */\n      tag_338\n      jump\t// in\n    tag_519:\n        /* \"#utility.yul\":12217:12289   */\n      tag_520\n        /* \"#utility.yul\":12285:12287   */\n      0x20\n        /* \"#utility.yul\":12274:12283   */\n      dup4\n        /* \"#utility.yul\":12270:12288   */\n      add\n        /* \"#utility.yul\":12261:12267   */\n      dup5\n        /* \"#utility.yul\":12217:12289   */\n      tag_337\n      jump\t// in\n    tag_520:\n        /* \"#utility.yul\":11964:12296   */\n      swap4\n      swap3\n      pop\n      pop\n      pop\n      jump\t// out\n        /* \"#utility.yul\":12302:12392   */\n    tag_354:\n        /* \"#utility.yul\":12336:12343   */\n      0x00\n        /* \"#utility.yul\":12379:12384   */\n      dup2\n        /* \"#utility.yul\":12372:12385   */\n      iszero\n        /* \"#utility.yul\":12365:12386   */\n      iszero\n        /* \"#utility.yul\":12354:12386   */\n      swap1\n      pop\n        /* \"#utility.yul\":12302:12392   */\n      swap2\n      swap1\n      pop\n      jump\t// out\n        /* \"#utility.yul\":12398:12514   */\n    tag_355:\n        /* \"#utility.yul\":12468:12489   */\n      tag_523\n        /* \"#utility.yul\":12483:12488   */\n      dup2\n        /* \"#utility.yul\":12468:12489   */\n      tag_354\n      jump\t// in\n    tag_523:\n        /* \"#utility.yul\":12461:12466   */\n      dup2\n        /* \"#utility.yul\":12458:12490   */\n      eq\n        /* \"#utility.yul\":12448:12508   */\n      tag_524\n      jumpi\n        /* \"#utility.yul\":12504:12505   */\n      0x00\n        /* \"#utility.yul\":12501:12502   */\n      dup1\n        /* \"#utility.yul\":12494:12506   */\n      revert\n        /* \"#utility.yul\":12448:12508   */\n    tag_524:\n        /* \"#utility.yul\":12398:12514   */\n      pop\n      jump\t// out\n        /* \"#utility.yul\":12520:12657   */\n    tag_356:\n        /* \"#utility.yul\":12574:12579   */\n      0x00\n        /* \"#utility.yul\":12605:12611   */\n      dup2\n        /* \"#utility.yul\":12599:12612   */\n      mload\n        /* \"#utility.yul\":12590:12612   */\n      swap1\n      pop\n        /* \"#utility.yul\":12621:12651   */\n      tag_526\n        /* \"#utility.yul\":12645:12650   */\n      dup2\n        /* \"#utility.yul\":12621:12651   */\n      tag_355\n      jump\t// in\n    tag_526:\n        /* \"#utility.yul\":12520:12657   */\n      swap3\n      swap2\n      pop\n      pop\n      jump\t// out\n        /* \"#utility.yul\":12663:13008   */\n    tag_123:\n        /* \"#utility.yul\":12730:12736   */\n      0x00\n        /* \"#utility.yul\":12779:12781   */\n      0x20\n        /* \"#utility.yul\":12767:12776   */\n      dup3\n        /* \"#utility.yul\":12758:12765   */\n      dup5\n        /* \"#utility.yul\":12754:12777   */\n      sub\n        /* \"#utility.yul\":12750:12782   */\n      slt\n        /* \"#utility.yul\":12747:12866   */\n      iszero\n      tag_528\n      jumpi\n        /* \"#utility.yul\":12785:12864   */\n      tag_529\n      tag_315\n      jump\t// in\n    tag_529:\n        /* \"#utility.yul\":12747:12866   */\n    tag_528:\n        /* \"#utility.yul\":12905:12906   */\n      0x00\n        /* \"#utility.yul\":12930:12991   */\n      tag_530\n        /* \"#utility.yul\":12983:12990   */\n      dup5\n        /* \"#utility.yul\":12974:12980   */\n      dup3\n        /* \"#utility.yul\":12963:12972   */\n      dup6\n        /* \"#utility.yul\":12959:12981   */\n      add\n        /* \"#utility.yul\":12930:12991   */\n      tag_356\n      jump\t// in\n    tag_530:\n        /* \"#utility.yul\":12920:12991   */\n      swap2\n      pop\n        /* \"#utility.yul\":12876:13001   */\n      pop\n        /* \"#utility.yul\":12663:13008   */\n      swap3\n      swap2\n      pop\n      pop\n      jump\t// out\n        /* \"#utility.yul\":13014:13182   */\n    tag_357:\n        /* \"#utility.yul\":13154:13174   */\n      0x556e61626c6520746f207472616e736665720000000000000000000000000000\n        /* \"#utility.yul\":13150:13151   */\n      0x00\n        /* \"#utility.yul\":13142:13148   */\n      dup3\n        /* \"#utility.yul\":13138:13152   */\n      add\n        /* \"#utility.yul\":13131:13175   */\n      mstore\n        /* \"#utility.yul\":13014:13182   */\n      pop\n      jump\t// out\n        /* \"#utility.yul\":13188:13554   */\n    tag_358:\n        /* \"#utility.yul\":13330:13333   */\n      0x00\n        /* \"#utility.yul\":13351:13418   */\n      tag_533\n        /* \"#utility.yul\":13415:13417   */\n      0x12\n        /* \"#utility.yul\":13410:13413   */\n      dup4\n        /* \"#utility.yul\":13351:13418   */\n      tag_340\n      jump\t// in\n    tag_533:\n        /* \"#utility.yul\":13344:13418   */\n      swap2\n      pop\n        /* \"#utility.yul\":13427:13520   */\n      tag_534\n        /* \"#utility.yul\":13516:13519   */\n      dup3\n        /* \"#utility.yul\":13427:13520   */\n      tag_357\n      jump\t// in\n    tag_534:\n        /* \"#utility.yul\":13545:13547   */\n      0x20\n        /* \"#utility.yul\":13540:13543   */\n      dup3\n        /* \"#utility.yul\":13536:13548   */\n      add\n        /* \"#utility.yul\":13529:13548   */\n      swap1\n      pop\n        /* \"#utility.yul\":13188:13554   */\n      swap2\n      swap1\n      pop\n      jump\t// out\n        /* \"#utility.yul\":13560:13979   */\n    tag_126:\n        /* \"#utility.yul\":13726:13730   */\n      0x00\n        /* \"#utility.yul\":13764:13766   */\n      0x20\n        /* \"#utility.yul\":13753:13762   */\n      dup3\n        /* \"#utility.yul\":13749:13767   */\n      add\n        /* \"#utility.yul\":13741:13767   */\n      swap1\n      pop\n        /* \"#utility.yul\":13813:13822   */\n      dup2\n        /* \"#utility.yul\":13807:13811   */\n      dup2\n        /* \"#utility.yul\":13803:13823   */\n      sub\n        /* \"#utility.yul\":13799:13800   */\n      0x00\n        /* \"#utility.yul\":13788:13797   */\n      dup4\n        /* \"#utility.yul\":13784:13801   */\n      add\n        /* \"#utility.yul\":13777:13824   */\n      mstore\n        /* \"#utility.yul\":13841:13972   */\n      tag_536\n        /* \"#utility.yul\":13967:13971   */\n      dup2\n        /* \"#utility.yul\":13841:13972   */\n      tag_358\n      jump\t// in\n    tag_536:\n        /* \"#utility.yul\":13833:13972   */\n      swap1\n      pop\n        /* \"#utility.yul\":13560:13979   */\n      swap2\n      swap1\n      pop\n      jump\t// out\n        /* \"#utility.yul\":13985:14064   */\n    tag_359:\n        /* \"#utility.yul\":14024:14031   */\n      0x00\n        /* \"#utility.yul\":14053:14058   */\n      dup2\n        /* \"#utility.yul\":14042:14058   */\n      swap1\n      pop\n        /* \"#utility.yul\":13985:14064   */\n      swap2\n      swap1\n      pop\n      jump\t// out\n        /* \"#utility.yul\":14070:14227   */\n    tag_360:\n        /* \"#utility.yul\":14175:14220   */\n      tag_539\n        /* \"#utility.yul\":14195:14219   */\n      tag_540\n        /* \"#utility.yul\":14213:14218   */\n      dup3\n        /* \"#utility.yul\":14195:14219   */\n      tag_327\n      jump\t// in\n    tag_540:\n        /* \"#utility.yul\":14175:14220   */\n      tag_359\n      jump\t// in\n    tag_539:\n        /* \"#utility.yul\":14170:14173   */\n      dup3\n        /* \"#utility.yul\":14163:14221   */\n      mstore\n        /* \"#utility.yul\":14070:14227   */\n      pop\n      pop\n      jump\t// out\n        /* \"#utility.yul\":14233:14489   */\n    tag_131:\n        /* \"#utility.yul\":14345:14348   */\n      0x00\n        /* \"#utility.yul\":14360:14435   */\n      tag_542\n        /* \"#utility.yul\":14431:14434   */\n      dup3\n        /* \"#utility.yul\":14422:14428   */\n      dup5\n        /* \"#utility.yul\":14360:14435   */\n      tag_360\n      jump\t// in\n    tag_542:\n        /* \"#utility.yul\":14460:14462   */\n      0x20\n        /* \"#utility.yul\":14455:14458   */\n      dup3\n        /* \"#utility.yul\":14451:14463   */\n      add\n        /* \"#utility.yul\":14444:14463   */\n      swap2\n      pop\n        /* \"#utility.yul\":14480:14483   */\n      dup2\n        /* \"#utility.yul\":14473:14483   */\n      swap1\n      pop\n        /* \"#utility.yul\":14233:14489   */\n      swap3\n      swap2\n      pop\n      pop\n      jump\t// out\n        /* \"#utility.yul\":14495:14667   */\n    tag_361:\n        /* \"#utility.yul\":14635:14659   */\n      0x4f6e6c792063616c6c61626c65206279206f776e657200000000000000000000\n        /* \"#utility.yul\":14631:14632   */\n      0x00\n        /* \"#utility.yul\":14623:14629   */\n      dup3\n        /* \"#utility.yul\":14619:14633   */\n      add\n        /* \"#utility.yul\":14612:14660   */\n      mstore\n        /* \"#utility.yul\":14495:14667   */\n      pop\n      jump\t// out\n        /* \"#utility.yul\":14673:15039   */\n    tag_362:\n        /* \"#utility.yul\":14815:14818   */\n      0x00\n        /* \"#utility.yul\":14836:14903   */\n      tag_545\n        /* \"#utility.yul\":14900:14902   */\n      0x16\n        /* \"#utility.yul\":14895:14898   */\n      dup4\n        /* \"#utility.yul\":14836:14903   */\n      tag_340\n      jump\t// in\n    tag_545:\n        /* \"#utility.yul\":14829:14903   */\n      swap2\n      pop\n        /* \"#utility.yul\":14912:15005   */\n      tag_546\n        /* \"#utility.yul\":15001:15004   */\n      dup3\n        /* \"#utility.yul\":14912:15005   */\n      tag_361\n      jump\t// in\n    tag_546:\n        /* \"#utility.yul\":15030:15032   */\n      0x20\n        /* \"#utility.yul\":15025:15028   */\n      dup3\n        /* \"#utility.yul\":15021:15033   */\n      add\n        /* \"#utility.yul\":15014:15033   */\n      swap1\n      pop\n        /* \"#utility.yul\":14673:15039   */\n      swap2\n      swap1\n      pop\n      jump\t// out\n        /* \"#utility.yul\":15045:15464   */\n    tag_152:\n        /* \"#utility.yul\":15211:15215   */\n      0x00\n        /* \"#utility.yul\":15249:15251   */\n      0x20\n        /* \"#utility.yul\":15238:15247   */\n      dup3\n        /* \"#utility.yul\":15234:15252   */\n      add\n        /* \"#utility.yul\":15226:15252   */\n      swap1\n      pop\n        /* \"#utility.yul\":15298:15307   */\n      dup2\n        /* \"#utility.yul\":15292:15296   */\n      dup2\n        /* \"#utility.yul\":15288:15308   */\n      sub\n        /* \"#utility.yul\":15284:15285   */\n      0x00\n        /* \"#utility.yul\":15273:15282   */\n      dup4\n        /* \"#utility.yul\":15269:15286   */\n      add\n        /* \"#utility.yul\":15262:15309   */\n      mstore\n        /* \"#utility.yul\":15326:15457   */\n      tag_548\n        /* \"#utility.yul\":15452:15456   */\n      dup2\n        /* \"#utility.yul\":15326:15457   */\n      tag_362\n      jump\t// in\n    tag_548:\n        /* \"#utility.yul\":15318:15457   */\n      swap1\n      pop\n        /* \"#utility.yul\":15045:15464   */\n      swap2\n      swap1\n      pop\n      jump\t// out\n        /* \"#utility.yul\":15470:15643   */\n    tag_363:\n        /* \"#utility.yul\":15610:15635   */\n      0x43616e6e6f74207472616e7366657220746f2073656c66000000000000000000\n        /* \"#utility.yul\":15606:15607   */\n      0x00\n        /* \"#utility.yul\":15598:15604   */\n      dup3\n        /* \"#utility.yul\":15594:15608   */\n      add\n        /* \"#utility.yul\":15587:15636   */\n      mstore\n        /* \"#utility.yul\":15470:15643   */\n      pop\n      jump\t// out\n        /* \"#utility.yul\":15649:16015   */\n    tag_364:\n        /* \"#utility.yul\":15791:15794   */\n      0x00\n        /* \"#utility.yul\":15812:15879   */\n      tag_551\n        /* \"#utility.yul\":15876:15878   */\n      0x17\n        /* \"#utility.yul\":15871:15874   */\n      dup4\n        /* \"#utility.yul\":15812:15879   */\n      tag_340\n      jump\t// in\n    tag_551:\n        /* \"#utility.yul\":15805:15879   */\n      swap2\n      pop\n        /* \"#utility.yul\":15888:15981   */\n      tag_552\n        /* \"#utility.yul\":15977:15980   */\n      dup3\n        /* \"#utility.yul\":15888:15981   */\n      tag_363\n      jump\t// in\n    tag_552:\n        /* \"#utility.yul\":16006:16008   */\n      0x20\n        /* \"#utility.yul\":16001:16004   */\n      dup3\n        /* \"#utility.yul\":15997:16009   */\n      add\n        /* \"#utility.yul\":15990:16009   */\n      swap1\n      pop\n        /* \"#utility.yul\":15649:16015   */\n      swap2\n      swap1\n      pop\n      jump\t// out\n        /* \"#utility.yul\":16021:16440   */\n    tag_175:\n        /* \"#utility.yul\":16187:16191   */\n      0x00\n        /* \"#utility.yul\":16225:16227   */\n      0x20\n        /* \"#utility.yul\":16214:16223   */\n      dup3\n        /* \"#utility.yul\":16210:16228   */\n      add\n        /* \"#utility.yul\":16202:16228   */\n      swap1\n      pop\n        /* \"#utility.yul\":16274:16283   */\n      dup2\n        /* \"#utility.yul\":16268:16272   */\n      dup2\n        /* \"#utility.yul\":16264:16284   */\n      sub\n        /* \"#utility.yul\":16260:16261   */\n      0x00\n        /* \"#utility.yul\":16249:16258   */\n      dup4\n        /* \"#utility.yul\":16245:16262   */\n      add\n        /* \"#utility.yul\":16238:16285   */\n      mstore\n        /* \"#utility.yul\":16302:16433   */\n      tag_554\n        /* \"#utility.yul\":16428:16432   */\n      dup2\n        /* \"#utility.yul\":16302:16433   */\n      tag_364\n      jump\t// in\n    tag_554:\n        /* \"#utility.yul\":16294:16433   */\n      swap1\n      pop\n        /* \"#utility.yul\":16021:16440   */\n      swap2\n      swap1\n      pop\n      jump\t// out\n        /* \"#utility.yul\":16446:16522   */\n    tag_365:\n        /* \"#utility.yul\":16482:16489   */\n      0x00\n        /* \"#utility.yul\":16511:16516   */\n      dup2\n        /* \"#utility.yul\":16500:16516   */\n      swap1\n      pop\n        /* \"#utility.yul\":16446:16522   */\n      swap2\n      swap1\n      pop\n      jump\t// out\n        /* \"#utility.yul\":16528:16900   */\n    tag_199:\n        /* \"#utility.yul\":16567:16571   */\n      0x00\n        /* \"#utility.yul\":16587:16606   */\n      tag_557\n        /* \"#utility.yul\":16604:16605   */\n      dup3\n        /* \"#utility.yul\":16587:16606   */\n      tag_365\n      jump\t// in\n    tag_557:\n        /* \"#utility.yul\":16582:16606   */\n      swap2\n      pop\n        /* \"#utility.yul\":16620:16639   */\n      tag_558\n        /* \"#utility.yul\":16637:16638   */\n      dup4\n        /* \"#utility.yul\":16620:16639   */\n      tag_365\n      jump\t// in\n    tag_558:\n        /* \"#utility.yul\":16615:16639   */\n      swap3\n      pop\n        /* \"#utility.yul\":16663:16664   */\n      dup3\n        /* \"#utility.yul\":16660:16661   */\n      dup3\n        /* \"#utility.yul\":16656:16665   */\n      sub\n        /* \"#utility.yul\":16648:16665   */\n      swap1\n      pop\n        /* \"#utility.yul\":16857:16858   */\n      dup2\n        /* \"#utility.yul\":16851:16855   */\n      dup2\n        /* \"#utility.yul\":16847:16859   */\n      slt\n        /* \"#utility.yul\":16843:16844   */\n      0x00\n        /* \"#utility.yul\":16840:16841   */\n      dup5\n        /* \"#utility.yul\":16836:16845   */\n      slt\n        /* \"#utility.yul\":16832:16860   */\n      and\n        /* \"#utility.yul\":16815:16816   */\n      dup3\n        /* \"#utility.yul\":16809:16813   */\n      dup3\n        /* \"#utility.yul\":16805:16817   */\n      sgt\n        /* \"#utility.yul\":16800:16801   */\n      0x00\n        /* \"#utility.yul\":16797:16798   */\n      dup6\n        /* \"#utility.yul\":16793:16802   */\n      slt\n        /* \"#utility.yul\":16786:16803   */\n      iszero\n        /* \"#utility.yul\":16782:16818   */\n      and\n        /* \"#utility.yul\":16766:16870   */\n      or\n        /* \"#utility.yul\":16763:16893   */\n      iszero\n      tag_559\n      jumpi\n        /* \"#utility.yul\":16873:16891   */\n      tag_560\n      tag_349\n      jump\t// in\n    tag_560:\n        /* \"#utility.yul\":16763:16893   */\n    tag_559:\n        /* \"#utility.yul\":16528:16900   */\n      swap3\n      swap2\n      pop\n      pop\n      jump\t// out\n        /* \"#utility.yul\":16906:17097   */\n    tag_202:\n        /* \"#utility.yul\":16946:16949   */\n      0x00\n        /* \"#utility.yul\":16965:16985   */\n      tag_562\n        /* \"#utility.yul\":16983:16984   */\n      dup3\n        /* \"#utility.yul\":16965:16985   */\n      tag_330\n      jump\t// in\n    tag_562:\n        /* \"#utility.yul\":16960:16985   */\n      swap2\n      pop\n        /* \"#utility.yul\":16999:17019   */\n      tag_563\n        /* \"#utility.yul\":17017:17018   */\n      dup4\n        /* \"#utility.yul\":16999:17019   */\n      tag_330\n      jump\t// in\n    tag_563:\n        /* \"#utility.yul\":16994:17019   */\n      swap3\n      pop\n        /* \"#utility.yul\":17042:17043   */\n      dup3\n        /* \"#utility.yul\":17039:17040   */\n      dup3\n        /* \"#utility.yul\":17035:17044   */\n      add\n        /* \"#utility.yul\":17028:17044   */\n      swap1\n      pop\n        /* \"#utility.yul\":17063:17066   */\n      dup1\n        /* \"#utility.yul\":17060:17061   */\n      dup3\n        /* \"#utility.yul\":17057:17067   */\n      gt\n        /* \"#utility.yul\":17054:17090   */\n      iszero\n      tag_564\n      jumpi\n        /* \"#utility.yul\":17070:17088   */\n      tag_565\n      tag_349\n      jump\t// in\n    tag_565:\n        /* \"#utility.yul\":17054:17090   */\n    tag_564:\n        /* \"#utility.yul\":16906:17097   */\n      swap3\n      swap2\n      pop\n      pop\n      jump\t// out\n        /* \"#utility.yul\":17103:17221   */\n    tag_366:\n        /* \"#utility.yul\":17190:17214   */\n      tag_567\n        /* \"#utility.yul\":17208:17213   */\n      dup2\n        /* \"#utility.yul\":17190:17214   */\n      tag_327\n      jump\t// in\n    tag_567:\n        /* \"#utility.yul\":17185:17188   */\n      dup3\n        /* \"#utility.yul\":17178:17215   */\n      mstore\n        /* \"#utility.yul\":17103:17221   */\n      pop\n      pop\n      jump\t// out\n        /* \"#utility.yul\":17227:17376   */\n    tag_367:\n        /* \"#utility.yul\":17263:17270   */\n      0x00\n        /* \"#utility.yul\":17303:17369   */\n      0xffffffff00000000000000000000000000000000000000000000000000000000\n        /* \"#utility.yul\":17296:17301   */\n      dup3\n        /* \"#utility.yul\":17292:17370   */\n      and\n        /* \"#utility.yul\":17281:17370   */\n      swap1\n      pop\n        /* \"#utility.yul\":17227:17376   */\n      swap2\n      swap1\n      pop\n      jump\t// out\n        /* \"#utility.yul\":17382:17497   */\n    tag_368:\n        /* \"#utility.yul\":17467:17490   */\n      tag_570\n        /* \"#utility.yul\":17484:17489   */\n      dup2\n        /* \"#utility.yul\":17467:17490   */\n      tag_367\n      jump\t// in\n    tag_570:\n        /* \"#utility.yul\":17462:17465   */\n      dup3\n        /* \"#utility.yul\":17455:17491   */\n      mstore\n        /* \"#utility.yul\":17382:17497   */\n      pop\n      pop\n      jump\t// out\n        /* \"#utility.yul\":17503:17671   */\n    tag_369:\n        /* \"#utility.yul\":17586:17597   */\n      0x00\n        /* \"#utility.yul\":17620:17626   */\n      dup3\n        /* \"#utility.yul\":17615:17618   */\n      dup3\n        /* \"#utility.yul\":17608:17627   */\n      mstore\n        /* \"#utility.yul\":17660:17664   */\n      0x20\n        /* \"#utility.yul\":17655:17658   */\n      dup3\n        /* \"#utility.yul\":17651:17665   */\n      add\n        /* \"#utility.yul\":17636:17665   */\n      swap1\n      pop\n        /* \"#utility.yul\":17503:17671   */\n      swap3\n      swap2\n      pop\n      pop\n      jump\t// out\n        /* \"#utility.yul\":17677:18050   */\n    tag_370:\n        /* \"#utility.yul\":17763:17766   */\n      0x00\n        /* \"#utility.yul\":17791:17829   */\n      tag_573\n        /* \"#utility.yul\":17823:17828   */\n      dup3\n        /* \"#utility.yul\":17791:17829   */\n      tag_343\n      jump\t// in\n    tag_573:\n        /* \"#utility.yul\":17845:17915   */\n      tag_574\n        /* \"#utility.yul\":17908:17914   */\n      dup2\n        /* \"#utility.yul\":17903:17906   */\n      dup6\n        /* \"#utility.yul\":17845:17915   */\n      tag_369\n      jump\t// in\n    tag_574:\n        /* \"#utility.yul\":17838:17915   */\n      swap4\n      pop\n        /* \"#utility.yul\":17924:17989   */\n      tag_575\n        /* \"#utility.yul\":17982:17988   */\n      dup2\n        /* \"#utility.yul\":17977:17980   */\n      dup6\n        /* \"#utility.yul\":17970:17974   */\n      0x20\n        /* \"#utility.yul\":17963:17968   */\n      dup7\n        /* \"#utility.yul\":17959:17975   */\n      add\n        /* \"#utility.yul\":17924:17989   */\n      tag_341\n      jump\t// in\n    tag_575:\n        /* \"#utility.yul\":18014:18043   */\n      tag_576\n        /* \"#utility.yul\":18036:18042   */\n      dup2\n        /* \"#utility.yul\":18014:18043   */\n      tag_319\n      jump\t// in\n    tag_576:\n        /* \"#utility.yul\":18009:18012   */\n      dup5\n        /* \"#utility.yul\":18005:18044   */\n      add\n        /* \"#utility.yul\":17998:18044   */\n      swap2\n      pop\n        /* \"#utility.yul\":17767:18050   */\n      pop\n        /* \"#utility.yul\":17677:18050   */\n      swap3\n      swap2\n      pop\n      pop\n      jump\t// out\n        /* \"#utility.yul\":18056:19025   */\n    tag_204:\n        /* \"#utility.yul\":18333:18337   */\n      0x00\n        /* \"#utility.yul\":18371:18374   */\n      0xe0\n        /* \"#utility.yul\":18360:18369   */\n      dup3\n        /* \"#utility.yul\":18356:18375   */\n      add\n        /* \"#utility.yul\":18348:18375   */\n      swap1\n      pop\n        /* \"#utility.yul\":18385:18456   */\n      tag_578\n        /* \"#utility.yul\":18453:18454   */\n      0x00\n        /* \"#utility.yul\":18442:18451   */\n      dup4\n        /* \"#utility.yul\":18438:18455   */\n      add\n        /* \"#utility.yul\":18429:18435   */\n      dup11\n        /* \"#utility.yul\":18385:18456   */\n      tag_338\n      jump\t// in\n    tag_578:\n        /* \"#utility.yul\":18466:18538   */\n      tag_579\n        /* \"#utility.yul\":18534:18536   */\n      0x20\n        /* \"#utility.yul\":18523:18532   */\n      dup4\n        /* \"#utility.yul\":18519:18537   */\n      add\n        /* \"#utility.yul\":18510:18516   */\n      dup10\n        /* \"#utility.yul\":18466:18538   */\n      tag_337\n      jump\t// in\n    tag_579:\n        /* \"#utility.yul\":18548:18620   */\n      tag_580\n        /* \"#utility.yul\":18616:18618   */\n      0x40\n        /* \"#utility.yul\":18605:18614   */\n      dup4\n        /* \"#utility.yul\":18601:18619   */\n      add\n        /* \"#utility.yul\":18592:18598   */\n      dup9\n        /* \"#utility.yul\":18548:18620   */\n      tag_366\n      jump\t// in\n    tag_580:\n        /* \"#utility.yul\":18630:18700   */\n      tag_581\n        /* \"#utility.yul\":18696:18698   */\n      0x60\n        /* \"#utility.yul\":18685:18694   */\n      dup4\n        /* \"#utility.yul\":18681:18699   */\n      add\n        /* \"#utility.yul\":18672:18678   */\n      dup8\n        /* \"#utility.yul\":18630:18700   */\n      tag_368\n      jump\t// in\n    tag_581:\n        /* \"#utility.yul\":18710:18783   */\n      tag_582\n        /* \"#utility.yul\":18778:18781   */\n      0x80\n        /* \"#utility.yul\":18767:18776   */\n      dup4\n        /* \"#utility.yul\":18763:18782   */\n      add\n        /* \"#utility.yul\":18754:18760   */\n      dup7\n        /* \"#utility.yul\":18710:18783   */\n      tag_337\n      jump\t// in\n    tag_582:\n        /* \"#utility.yul\":18793:18866   */\n      tag_583\n        /* \"#utility.yul\":18861:18864   */\n      0xa0\n        /* \"#utility.yul\":18850:18859   */\n      dup4\n        /* \"#utility.yul\":18846:18865   */\n      add\n        /* \"#utility.yul\":18837:18843   */\n      dup6\n        /* \"#utility.yul\":18793:18866   */\n      tag_337\n      jump\t// in\n    tag_583:\n        /* \"#utility.yul\":18914:18923   */\n      dup2\n        /* \"#utility.yul\":18908:18912   */\n      dup2\n        /* \"#utility.yul\":18904:18924   */\n      sub\n        /* \"#utility.yul\":18898:18901   */\n      0xc0\n        /* \"#utility.yul\":18887:18896   */\n      dup4\n        /* \"#utility.yul\":18883:18902   */\n      add\n        /* \"#utility.yul\":18876:18925   */\n      mstore\n        /* \"#utility.yul\":18942:19018   */\n      tag_584\n        /* \"#utility.yul\":19013:19017   */\n      dup2\n        /* \"#utility.yul\":19004:19010   */\n      dup5\n        /* \"#utility.yul\":18942:19018   */\n      tag_370\n      jump\t// in\n    tag_584:\n        /* \"#utility.yul\":18934:19018   */\n      swap1\n      pop\n        /* \"#utility.yul\":18056:19025   */\n      swap9\n      swap8\n      pop\n      pop\n      pop\n      pop\n      pop\n      pop\n      pop\n      pop\n      jump\t// out\n        /* \"#utility.yul\":19031:19207   */\n    tag_211:\n        /* \"#utility.yul\":19063:19064   */\n      0x00\n        /* \"#utility.yul\":19080:19100   */\n      tag_586\n        /* \"#utility.yul\":19098:19099   */\n      dup3\n        /* \"#utility.yul\":19080:19100   */\n      tag_330\n      jump\t// in\n    tag_586:\n        /* \"#utility.yul\":19075:19100   */\n      swap2\n      pop\n        /* \"#utility.yul\":19114:19134   */\n      tag_587\n        /* \"#utility.yul\":19132:19133   */\n      dup4\n        /* \"#utility.yul\":19114:19134   */\n      tag_330\n      jump\t// in\n    tag_587:\n        /* \"#utility.yul\":19109:19134   */\n      swap3\n      pop\n        /* \"#utility.yul\":19153:19154   */\n      dup3\n        /* \"#utility.yul\":19143:19178   */\n      tag_588\n      jumpi\n        /* \"#utility.yul\":19158:19176   */\n      tag_589\n      tag_350\n      jump\t// in\n    tag_589:\n        /* \"#utility.yul\":19143:19178   */\n    tag_588:\n        /* \"#utility.yul\":19199:19200   */\n      dup3\n        /* \"#utility.yul\":19196:19197   */\n      dup3\n        /* \"#utility.yul\":19192:19201   */\n      mod\n        /* \"#utility.yul\":19187:19201   */\n      swap1\n      pop\n        /* \"#utility.yul\":19031:19207   */\n      swap3\n      swap2\n      pop\n      pop\n      jump\t// out\n        /* \"#utility.yul\":19213:19407   */\n    tag_215:\n        /* \"#utility.yul\":19253:19257   */\n      0x00\n        /* \"#utility.yul\":19273:19293   */\n      tag_591\n        /* \"#utility.yul\":19291:19292   */\n      dup3\n        /* \"#utility.yul\":19273:19293   */\n      tag_330\n      jump\t// in\n    tag_591:\n        /* \"#utility.yul\":19268:19293   */\n      swap2\n      pop\n        /* \"#utility.yul\":19307:19327   */\n      tag_592\n        /* \"#utility.yul\":19325:19326   */\n      dup4\n        /* \"#utility.yul\":19307:19327   */\n      tag_330\n      jump\t// in\n    tag_592:\n        /* \"#utility.yul\":19302:19327   */\n      swap3\n      pop\n        /* \"#utility.yul\":19351:19352   */\n      dup3\n        /* \"#utility.yul\":19348:19349   */\n      dup3\n        /* \"#utility.yul\":19344:19353   */\n      sub\n        /* \"#utility.yul\":19336:19353   */\n      swap1\n      pop\n        /* \"#utility.yul\":19375:19376   */\n      dup2\n        /* \"#utility.yul\":19369:19373   */\n      dup2\n        /* \"#utility.yul\":19366:19377   */\n      gt\n        /* \"#utility.yul\":19363:19400   */\n      iszero\n      tag_593\n      jumpi\n        /* \"#utility.yul\":19380:19398   */\n      tag_594\n      tag_349\n      jump\t// in\n    tag_594:\n        /* \"#utility.yul\":19363:19400   */\n    tag_593:\n        /* \"#utility.yul\":19213:19407   */\n      swap3\n      swap2\n      pop\n      pop\n      jump\t// out\n        /* \"#utility.yul\":19413:19473   */\n    tag_371:\n        /* \"#utility.yul\":19441:19444   */\n      0x00\n        /* \"#utility.yul\":19462:19467   */\n      dup2\n        /* \"#utility.yul\":19455:19467   */\n      swap1\n      pop\n        /* \"#utility.yul\":19413:19473   */\n      swap2\n      swap1\n      pop\n      jump\t// out\n        /* \"#utility.yul\":19479:19621   */\n    tag_372:\n        /* \"#utility.yul\":19529:19538   */\n      0x00\n        /* \"#utility.yul\":19562:19615   */\n      tag_597\n        /* \"#utility.yul\":19580:19614   */\n      tag_598\n        /* \"#utility.yul\":19589:19613   */\n      tag_599\n        /* \"#utility.yul\":19607:19612   */\n      dup5\n        /* \"#utility.yul\":19589:19613   */\n      tag_333\n      jump\t// in\n    tag_599:\n        /* \"#utility.yul\":19580:19614   */\n      tag_371\n      jump\t// in\n    tag_598:\n        /* \"#utility.yul\":19562:19615   */\n      tag_333\n      jump\t// in\n    tag_597:\n        /* \"#utility.yul\":19549:19615   */\n      swap1\n      pop\n        /* \"#utility.yul\":19479:19621   */\n      swap2\n      swap1\n      pop\n      jump\t// out\n        /* \"#utility.yul\":19627:19753   */\n    tag_373:\n        /* \"#utility.yul\":19677:19686   */\n      0x00\n        /* \"#utility.yul\":19710:19747   */\n      tag_601\n        /* \"#utility.yul\":19741:19746   */\n      dup3\n        /* \"#utility.yul\":19710:19747   */\n      tag_372\n      jump\t// in\n    tag_601:\n        /* \"#utility.yul\":19697:19747   */\n      swap1\n      pop\n        /* \"#utility.yul\":19627:19753   */\n      swap2\n      swap1\n      pop\n      jump\t// out\n        /* \"#utility.yul\":19759:19908   */\n    tag_374:\n        /* \"#utility.yul\":19832:19841   */\n      0x00\n        /* \"#utility.yul\":19865:19902   */\n      tag_603\n        /* \"#utility.yul\":19896:19901   */\n      dup3\n        /* \"#utility.yul\":19865:19902   */\n      tag_373\n      jump\t// in\n    tag_603:\n        /* \"#utility.yul\":19852:19902   */\n      swap1\n      pop\n        /* \"#utility.yul\":19759:19908   */\n      swap2\n      swap1\n      pop\n      jump\t// out\n        /* \"#utility.yul\":19914:20008   */\n    tag_375:\n        /* \"#utility.yul\":19947:19955   */\n      0x00\n        /* \"#utility.yul\":19995:20000   */\n      dup2\n        /* \"#utility.yul\":19991:19993   */\n      0x60\n        /* \"#utility.yul\":19987:20001   */\n      shl\n        /* \"#utility.yul\":19966:20001   */\n      swap1\n      pop\n        /* \"#utility.yul\":19914:20008   */\n      swap2\n      swap1\n      pop\n      jump\t// out\n        /* \"#utility.yul\":20014:20108   */\n    tag_376:\n        /* \"#utility.yul\":20053:20060   */\n      0x00\n        /* \"#utility.yul\":20082:20102   */\n      tag_606\n        /* \"#utility.yul\":20096:20101   */\n      dup3\n        /* \"#utility.yul\":20082:20102   */\n      tag_375\n      jump\t// in\n    tag_606:\n        /* \"#utility.yul\":20071:20102   */\n      swap1\n      pop\n        /* \"#utility.yul\":20014:20108   */\n      swap2\n      swap1\n      pop\n      jump\t// out\n        /* \"#utility.yul\":20114:20214   */\n    tag_377:\n        /* \"#utility.yul\":20153:20160   */\n      0x00\n        /* \"#utility.yul\":20182:20208   */\n      tag_608\n        /* \"#utility.yul\":20202:20207   */\n      dup3\n        /* \"#utility.yul\":20182:20208   */\n      tag_376\n      jump\t// in\n    tag_608:\n        /* \"#utility.yul\":20171:20208   */\n      swap1\n      pop\n        /* \"#utility.yul\":20114:20214   */\n      swap2\n      swap1\n      pop\n      jump\t// out\n        /* \"#utility.yul\":20220:20436   */\n    tag_378:\n        /* \"#utility.yul\":20348:20429   */\n      tag_610\n        /* \"#utility.yul\":20368:20428   */\n      tag_611\n        /* \"#utility.yul\":20422:20427   */\n      dup3\n        /* \"#utility.yul\":20368:20428   */\n      tag_374\n      jump\t// in\n    tag_611:\n        /* \"#utility.yul\":20348:20429   */\n      tag_377\n      jump\t// in\n    tag_610:\n        /* \"#utility.yul\":20343:20346   */\n      dup3\n        /* \"#utility.yul\":20336:20430   */\n      mstore\n        /* \"#utility.yul\":20220:20436   */\n      pop\n      pop\n      jump\t// out\n        /* \"#utility.yul\":20442:20521   */\n    tag_379:\n        /* \"#utility.yul\":20481:20488   */\n      0x00\n        /* \"#utility.yul\":20510:20515   */\n      dup2\n        /* \"#utility.yul\":20499:20515   */\n      swap1\n      pop\n        /* \"#utility.yul\":20442:20521   */\n      swap2\n      swap1\n      pop\n      jump\t// out\n        /* \"#utility.yul\":20527:20684   */\n    tag_380:\n        /* \"#utility.yul\":20632:20677   */\n      tag_614\n        /* \"#utility.yul\":20652:20676   */\n      tag_615\n        /* \"#utility.yul\":20670:20675   */\n      dup3\n        /* \"#utility.yul\":20652:20676   */\n      tag_330\n      jump\t// in\n    tag_615:\n        /* \"#utility.yul\":20632:20677   */\n      tag_379\n      jump\t// in\n    tag_614:\n        /* \"#utility.yul\":20627:20630   */\n      dup3\n        /* \"#utility.yul\":20620:20678   */\n      mstore\n        /* \"#utility.yul\":20527:20684   */\n      pop\n      pop\n      jump\t// out\n        /* \"#utility.yul\":20690:21133   */\n    tag_253:\n        /* \"#utility.yul\":20853:20856   */\n      0x00\n        /* \"#utility.yul\":20868:20966   */\n      tag_617\n        /* \"#utility.yul\":20962:20965   */\n      dup3\n        /* \"#utility.yul\":20953:20959   */\n      dup6\n        /* \"#utility.yul\":20868:20966   */\n      tag_378\n      jump\t// in\n    tag_617:\n        /* \"#utility.yul\":20991:20993   */\n      0x14\n        /* \"#utility.yul\":20986:20989   */\n      dup3\n        /* \"#utility.yul\":20982:20994   */\n      add\n        /* \"#utility.yul\":20975:20994   */\n      swap2\n      pop\n        /* \"#utility.yul\":21004:21079   */\n      tag_618\n        /* \"#utility.yul\":21075:21078   */\n      dup3\n        /* \"#utility.yul\":21066:21072   */\n      dup5\n        /* \"#utility.yul\":21004:21079   */\n      tag_380\n      jump\t// in\n    tag_618:\n        /* \"#utility.yul\":21104:21106   */\n      0x20\n        /* \"#utility.yul\":21099:21102   */\n      dup3\n        /* \"#utility.yul\":21095:21107   */\n      add\n        /* \"#utility.yul\":21088:21107   */\n      swap2\n      pop\n        /* \"#utility.yul\":21124:21127   */\n      dup2\n        /* \"#utility.yul\":21117:21127   */\n      swap1\n      pop\n        /* \"#utility.yul\":20690:21133   */\n      swap4\n      swap3\n      pop\n      pop\n      pop\n      jump\t// out\n        /* \"#utility.yul\":21139:21668   */\n    tag_255:\n        /* \"#utility.yul\":21306:21310   */\n      0x00\n        /* \"#utility.yul\":21344:21346   */\n      0x60\n        /* \"#utility.yul\":21333:21342   */\n      dup3\n        /* \"#utility.yul\":21329:21347   */\n      add\n        /* \"#utility.yul\":21321:21347   */\n      swap1\n      pop\n        /* \"#utility.yul\":21357:21428   */\n      tag_620\n        /* \"#utility.yul\":21425:21426   */\n      0x00\n        /* \"#utility.yul\":21414:21423   */\n      dup4\n        /* \"#utility.yul\":21410:21427   */\n      add\n        /* \"#utility.yul\":21401:21407   */\n      dup7\n        /* \"#utility.yul\":21357:21428   */\n      tag_338\n      jump\t// in\n    tag_620:\n        /* \"#utility.yul\":21438:21510   */\n      tag_621\n        /* \"#utility.yul\":21506:21508   */\n      0x20\n        /* \"#utility.yul\":21495:21504   */\n      dup4\n        /* \"#utility.yul\":21491:21509   */\n      add\n        /* \"#utility.yul\":21482:21488   */\n      dup6\n        /* \"#utility.yul\":21438:21510   */\n      tag_337\n      jump\t// in\n    tag_621:\n        /* \"#utility.yul\":21557:21566   */\n      dup2\n        /* \"#utility.yul\":21551:21555   */\n      dup2\n        /* \"#utility.yul\":21547:21567   */\n      sub\n        /* \"#utility.yul\":21542:21544   */\n      0x40\n        /* \"#utility.yul\":21531:21540   */\n      dup4\n        /* \"#utility.yul\":21527:21545   */\n      add\n        /* \"#utility.yul\":21520:21568   */\n      mstore\n        /* \"#utility.yul\":21585:21661   */\n      tag_622\n        /* \"#utility.yul\":21656:21660   */\n      dup2\n        /* \"#utility.yul\":21647:21653   */\n      dup5\n        /* \"#utility.yul\":21585:21661   */\n      tag_370\n      jump\t// in\n    tag_622:\n        /* \"#utility.yul\":21577:21661   */\n      swap1\n      pop\n        /* \"#utility.yul\":21139:21668   */\n      swap5\n      swap4\n      pop\n      pop\n      pop\n      pop\n      jump\t// out\n        /* \"#utility.yul\":21674:21896   */\n    tag_381:\n        /* \"#utility.yul\":21814:21848   */\n      0x756e61626c6520746f207472616e73666572416e6443616c6c20746f206f7261\n        /* \"#utility.yul\":21810:21811   */\n      0x00\n        /* \"#utility.yul\":21802:21808   */\n      dup3\n        /* \"#utility.yul\":21798:21812   */\n      add\n        /* \"#utility.yul\":21791:21849   */\n      mstore\n        /* \"#utility.yul\":21883:21888   */\n      0x636c650000000000000000000000000000000000000000000000000000000000\n        /* \"#utility.yul\":21878:21880   */\n      0x20\n        /* \"#utility.yul\":21870:21876   */\n      dup3\n        /* \"#utility.yul\":21866:21881   */\n      add\n        /* \"#utility.yul\":21859:21889   */\n      mstore\n        /* \"#utility.yul\":21674:21896   */\n      pop\n      jump\t// out\n        /* \"#utility.yul\":21902:22268   */\n    tag_382:\n        /* \"#utility.yul\":22044:22047   */\n      0x00\n        /* \"#utility.yul\":22065:22132   */\n      tag_625\n        /* \"#utility.yul\":22129:22131   */\n      0x23\n        /* \"#utility.yul\":22124:22127   */\n      dup4\n        /* \"#utility.yul\":22065:22132   */\n      tag_340\n      jump\t// in\n    tag_625:\n        /* \"#utility.yul\":22058:22132   */\n      swap2\n      pop\n        /* \"#utility.yul\":22141:22234   */\n      tag_626\n        /* \"#utility.yul\":22230:22233   */\n      dup3\n        /* \"#utility.yul\":22141:22234   */\n      tag_381\n      jump\t// in\n    tag_626:\n        /* \"#utility.yul\":22259:22261   */\n      0x40\n        /* \"#utility.yul\":22254:22257   */\n      dup3\n        /* \"#utility.yul\":22250:22262   */\n      add\n        /* \"#utility.yul\":22243:22262   */\n      swap1\n      pop\n        /* \"#utility.yul\":21902:22268   */\n      swap2\n      swap1\n      pop\n      jump\t// out\n        /* \"#utility.yul\":22274:22693   */\n    tag_261:\n        /* \"#utility.yul\":22440:22444   */\n      0x00\n        /* \"#utility.yul\":22478:22480   */\n      0x20\n        /* \"#utility.yul\":22467:22476   */\n      dup3\n        /* \"#utility.yul\":22463:22481   */\n      add\n        /* \"#utility.yul\":22455:22481   */\n      swap1\n      pop\n        /* \"#utility.yul\":22527:22536   */\n      dup2\n        /* \"#utility.yul\":22521:22525   */\n      dup2\n        /* \"#utility.yul\":22517:22537   */\n      sub\n        /* \"#utility.yul\":22513:22514   */\n      0x00\n        /* \"#utility.yul\":22502:22511   */\n      dup4\n        /* \"#utility.yul\":22498:22515   */\n      add\n        /* \"#utility.yul\":22491:22538   */\n      mstore\n        /* \"#utility.yul\":22555:22686   */\n      tag_628\n        /* \"#utility.yul\":22681:22685   */\n      dup2\n        /* \"#utility.yul\":22555:22686   */\n      tag_382\n      jump\t// in\n    tag_628:\n        /* \"#utility.yul\":22547:22686   */\n      swap1\n      pop\n        /* \"#utility.yul\":22274:22693   */\n      swap2\n      swap1\n      pop\n      jump\t// out\n        /* \"#utility.yul\":22699:22801   */\n    tag_383:\n        /* \"#utility.yul\":22741:22749   */\n      0x00\n        /* \"#utility.yul\":22788:22793   */\n      dup2\n        /* \"#utility.yul\":22785:22786   */\n      0x01\n        /* \"#utility.yul\":22781:22794   */\n      shr\n        /* \"#utility.yul\":22760:22794   */\n      swap1\n      pop\n        /* \"#utility.yul\":22699:22801   */\n      swap2\n      swap1\n      pop\n      jump\t// out\n        /* \"#utility.yul\":22807:23655   */\n    tag_384:\n        /* \"#utility.yul\":22868:22873   */\n      0x00\n        /* \"#utility.yul\":22875:22879   */\n      dup1\n        /* \"#utility.yul\":22899:22905   */\n      dup3\n        /* \"#utility.yul\":22890:22905   */\n      swap2\n      pop\n        /* \"#utility.yul\":22923:22928   */\n      dup4\n        /* \"#utility.yul\":22914:22928   */\n      swap1\n      pop\n        /* \"#utility.yul\":22937:23649   */\n    tag_631:\n        /* \"#utility.yul\":22958:22959   */\n      0x01\n        /* \"#utility.yul\":22948:22956   */\n      dup6\n        /* \"#utility.yul\":22945:22960   */\n      gt\n        /* \"#utility.yul\":22937:23649   */\n      iszero\n      tag_633\n      jumpi\n        /* \"#utility.yul\":23053:23057   */\n      dup1\n        /* \"#utility.yul\":23048:23051   */\n      dup7\n        /* \"#utility.yul\":23044:23058   */\n      div\n        /* \"#utility.yul\":23038:23042   */\n      dup2\n        /* \"#utility.yul\":23035:23059   */\n      gt\n        /* \"#utility.yul\":23032:23082   */\n      iszero\n      tag_634\n      jumpi\n        /* \"#utility.yul\":23062:23080   */\n      tag_635\n      tag_349\n      jump\t// in\n    tag_635:\n        /* \"#utility.yul\":23032:23082   */\n    tag_634:\n        /* \"#utility.yul\":23112:23113   */\n      0x01\n        /* \"#utility.yul\":23102:23110   */\n      dup6\n        /* \"#utility.yul\":23098:23114   */\n      and\n        /* \"#utility.yul\":23095:23546   */\n      iszero\n      tag_636\n      jumpi\n        /* \"#utility.yul\":23527:23531   */\n      dup1\n        /* \"#utility.yul\":23520:23525   */\n      dup3\n        /* \"#utility.yul\":23516:23532   */\n      mul\n        /* \"#utility.yul\":23507:23532   */\n      swap2\n      pop\n        /* \"#utility.yul\":23095:23546   */\n    tag_636:\n        /* \"#utility.yul\":23577:23581   */\n      dup1\n        /* \"#utility.yul\":23571:23575   */\n      dup2\n        /* \"#utility.yul\":23567:23582   */\n      mul\n        /* \"#utility.yul\":23559:23582   */\n      swap1\n      pop\n        /* \"#utility.yul\":23607:23639   */\n      tag_637\n        /* \"#utility.yul\":23630:23638   */\n      dup6\n        /* \"#utility.yul\":23607:23639   */\n      tag_383\n      jump\t// in\n    tag_637:\n        /* \"#utility.yul\":23595:23639   */\n      swap5\n      pop\n        /* \"#utility.yul\":22937:23649   */\n      jump(tag_631)\n    tag_633:\n        /* \"#utility.yul\":22807:23655   */\n      swap5\n      pop\n      swap5\n      swap3\n      pop\n      pop\n      pop\n      jump\t// out\n        /* \"#utility.yul\":23661:24734   */\n    tag_385:\n        /* \"#utility.yul\":23715:23720   */\n      0x00\n        /* \"#utility.yul\":23906:23914   */\n      dup3\n        /* \"#utility.yul\":23896:23936   */\n      tag_639\n      jumpi\n        /* \"#utility.yul\":23927:23928   */\n      0x01\n        /* \"#utility.yul\":23918:23928   */\n      swap1\n      pop\n        /* \"#utility.yul\":23929:23934   */\n      jump(tag_638)\n        /* \"#utility.yul\":23896:23936   */\n    tag_639:\n        /* \"#utility.yul\":23955:23959   */\n      dup2\n        /* \"#utility.yul\":23945:23981   */\n      tag_640\n      jumpi\n        /* \"#utility.yul\":23972:23973   */\n      0x00\n        /* \"#utility.yul\":23963:23973   */\n      swap1\n      pop\n        /* \"#utility.yul\":23974:23979   */\n      jump(tag_638)\n        /* \"#utility.yul\":23945:23981   */\n    tag_640:\n        /* \"#utility.yul\":24041:24045   */\n      dup2\n        /* \"#utility.yul\":24089:24090   */\n      0x01\n        /* \"#utility.yul\":24084:24111   */\n      dup2\n      eq\n      tag_642\n      jumpi\n        /* \"#utility.yul\":24125:24126   */\n      0x02\n        /* \"#utility.yul\":24120:24311   */\n      dup2\n      eq\n      tag_643\n      jumpi\n        /* \"#utility.yul\":24034:24311   */\n      jump(tag_641)\n        /* \"#utility.yul\":24084:24111   */\n    tag_642:\n        /* \"#utility.yul\":24102:24103   */\n      0x01\n        /* \"#utility.yul\":24093:24103   */\n      swap2\n      pop\n        /* \"#utility.yul\":24104:24109   */\n      pop\n      jump(tag_638)\n        /* \"#utility.yul\":24120:24311   */\n    tag_643:\n        /* \"#utility.yul\":24165:24168   */\n      0xff\n        /* \"#utility.yul\":24155:24163   */\n      dup5\n        /* \"#utility.yul\":24152:24169   */\n      gt\n        /* \"#utility.yul\":24149:24192   */\n      iszero\n      tag_644\n      jumpi\n        /* \"#utility.yul\":24172:24190   */\n      tag_645\n      tag_349\n      jump\t// in\n    tag_645:\n        /* \"#utility.yul\":24149:24192   */\n    tag_644:\n        /* \"#utility.yul\":24221:24229   */\n      dup4\n        /* \"#utility.yul\":24218:24219   */\n      0x02\n        /* \"#utility.yul\":24214:24230   */\n      exp\n        /* \"#utility.yul\":24205:24230   */\n      swap2\n      pop\n        /* \"#utility.yul\":24256:24259   */\n      dup5\n        /* \"#utility.yul\":24249:24254   */\n      dup3\n        /* \"#utility.yul\":24246:24260   */\n      gt\n        /* \"#utility.yul\":24243:24283   */\n      iszero\n      tag_646\n      jumpi\n        /* \"#utility.yul\":24263:24281   */\n      tag_647\n      tag_349\n      jump\t// in\n    tag_647:\n        /* \"#utility.yul\":24243:24283   */\n    tag_646:\n        /* \"#utility.yul\":24296:24301   */\n      pop\n      jump(tag_638)\n        /* \"#utility.yul\":24034:24311   */\n    tag_641:\n      pop\n        /* \"#utility.yul\":24420:24422   */\n      0x20\n        /* \"#utility.yul\":24410:24418   */\n      dup4\n        /* \"#utility.yul\":24407:24423   */\n      lt\n        /* \"#utility.yul\":24401:24404   */\n      0x0133\n        /* \"#utility.yul\":24395:24399   */\n      dup4\n        /* \"#utility.yul\":24392:24405   */\n      lt\n        /* \"#utility.yul\":24388:24424   */\n      and\n        /* \"#utility.yul\":24370:24372   */\n      0x4e\n        /* \"#utility.yul\":24360:24368   */\n      dup5\n        /* \"#utility.yul\":24357:24373   */\n      lt\n        /* \"#utility.yul\":24352:24354   */\n      0x0b\n        /* \"#utility.yul\":24346:24350   */\n      dup5\n        /* \"#utility.yul\":24343:24355   */\n      lt\n        /* \"#utility.yul\":24339:24374   */\n      and\n        /* \"#utility.yul\":24323:24434   */\n      or\n        /* \"#utility.yul\":24320:24566   */\n      iszero\n      tag_648\n      jumpi\n        /* \"#utility.yul\":24476:24484   */\n      dup3\n        /* \"#utility.yul\":24470:24474   */\n      dup3\n        /* \"#utility.yul\":24466:24485   */\n      exp\n        /* \"#utility.yul\":24457:24485   */\n      swap1\n      pop\n        /* \"#utility.yul\":24511:24514   */\n      dup4\n        /* \"#utility.yul\":24504:24509   */\n      dup2\n        /* \"#utility.yul\":24501:24515   */\n      gt\n        /* \"#utility.yul\":24498:24538   */\n      iszero\n      tag_649\n      jumpi\n        /* \"#utility.yul\":24518:24536   */\n      tag_650\n      tag_349\n      jump\t// in\n    tag_650:\n        /* \"#utility.yul\":24498:24538   */\n    tag_649:\n        /* \"#utility.yul\":24551:24556   */\n      jump(tag_638)\n        /* \"#utility.yul\":24320:24566   */\n    tag_648:\n        /* \"#utility.yul\":24591:24633   */\n      tag_651\n        /* \"#utility.yul\":24629:24632   */\n      dup5\n        /* \"#utility.yul\":24619:24627   */\n      dup5\n        /* \"#utility.yul\":24613:24617   */\n      dup5\n        /* \"#utility.yul\":24610:24611   */\n      0x01\n        /* \"#utility.yul\":24591:24633   */\n      tag_384\n      jump\t// in\n    tag_651:\n        /* \"#utility.yul\":24576:24633   */\n      swap3\n      pop\n      swap1\n      pop\n        /* \"#utility.yul\":24665:24669   */\n      dup2\n        /* \"#utility.yul\":24660:24663   */\n      dup5\n        /* \"#utility.yul\":24656:24670   */\n      div\n        /* \"#utility.yul\":24649:24654   */\n      dup2\n        /* \"#utility.yul\":24646:24671   */\n      gt\n        /* \"#utility.yul\":24643:24694   */\n      iszero\n      tag_652\n      jumpi\n        /* \"#utility.yul\":24674:24692   */\n      tag_653\n      tag_349\n      jump\t// in\n    tag_653:\n        /* \"#utility.yul\":24643:24694   */\n    tag_652:\n        /* \"#utility.yul\":24723:24727   */\n      dup2\n        /* \"#utility.yul\":24716:24721   */\n      dup2\n        /* \"#utility.yul\":24712:24728   */\n      mul\n        /* \"#utility.yul\":24703:24728   */\n      swap1\n      pop\n        /* \"#utility.yul\":23661:24734   */\n    tag_638:\n      swap4\n      swap3\n      pop\n      pop\n      pop\n      jump\t// out\n        /* \"#utility.yul\":24740:25025   */\n    tag_305:\n        /* \"#utility.yul\":24800:24805   */\n      0x00\n        /* \"#utility.yul\":24824:24847   */\n      tag_655\n        /* \"#utility.yul\":24842:24846   */\n      dup3\n        /* \"#utility.yul\":24824:24847   */\n      tag_330\n      jump\t// in\n    tag_655:\n        /* \"#utility.yul\":24816:24847   */\n      swap2\n      pop\n        /* \"#utility.yul\":24868:24895   */\n      tag_656\n        /* \"#utility.yul\":24886:24894   */\n      dup4\n        /* \"#utility.yul\":24868:24895   */\n      tag_330\n      jump\t// in\n    tag_656:\n        /* \"#utility.yul\":24856:24895   */\n      swap3\n      pop\n        /* \"#utility.yul\":24914:25018   */\n      tag_657\n        /* \"#utility.yul\":24951:25017   */\n      0xffffffffffffffffffffffffffffffffffffffffffffffffffffffffffffffff\n        /* \"#utility.yul\":24941:24949   */\n      dup5\n        /* \"#utility.yul\":24935:24939   */\n      dup5\n        /* \"#utility.yul\":24914:25018   */\n      tag_385\n      jump\t// in\n    tag_657:\n        /* \"#utility.yul\":24905:25018   */\n      swap1\n      pop\n        /* \"#utility.yul\":24740:25025   */\n      swap3\n      swap2\n      pop\n      pop\n      jump\t// out\n    stop\n    data_6d3e44bb624583aa251837d16e4131f753816d55bda731fd016d5c1caa4fce29 68747470733a2f2f6d696e2d6170692e63727970746f636f6d706172652e636f6d2f646174612f70726963656d756c74693f6673796d733d4254432c455448267473796d733d5553442c455552\n    data_e4aa5fa7723df6220ef57d812ce4054cd7493ed501c0550ebe67d0389237eb02 5b22636f6e74656e742d74797065222c20226170706c69636174696f6e2f6a736f6e222c20227365742d636f6f6b6965222c20227369643d3134413532225d\n\n    auxdata: 0xa264697066735822122027b52de6e433c9eb0fde73656f1d13dd01816b1758a6a48a3d7291a90c48ce2264736f6c63430008180033\n}\n",
				"bytecode": {
					"linkReferences": {},
					"object": "6080604052600160045534801562000015575f80fd5b5033805f8073ffffffffffffffffffffffffffffffffffffffff168273ffffffffffffffffffffffffffffffffffffffff16036200008a576040517f08c379a000000000000000000000000000000000000000000000000000000000815260040162000081906200054b565b60405180910390fd5b8160065f6101000a81548173ffffffffffffffffffffffffffffffffffffffff021916908373ffffffffffffffffffffffffffffffffffffffff1602179055505f73ffffffffffffffffffffffffffffffffffffffff168173ffffffffffffffffffffffffffffffffffffffff161462000110576200010f81620001ba60201b60201c565b5b5050506200013873326c977e6efc84e512bb9c30f76e30c160ed06fb620002e960201b60201c565b6200015d7312a3d7759f745f4cb8ee8a647038c040cb8862a56200032c60201b60201c565b620001a36040518060400160405280602081526020017f61383335366634383536396334333465616134616335666362346462356363308152506200039060201b60201c565b620001b45f620003b560201b60201c565b620007de565b3373ffffffffffffffffffffffffffffffffffffffff168173ffffffffffffffffffffffffffffffffffffffff16036200022b576040517f08c379a00000000000000000000000000000000000000000000000000000000081526004016200022290620005b9565b60405180910390fd5b8060075f6101000a81548173ffffffffffffffffffffffffffffffffffffffff021916908373ffffffffffffffffffffffffffffffffffffffff1602179055508073ffffffffffffffffffffffffffffffffffffffff1660065f9054906101000a900473ffffffffffffffffffffffffffffffffffffffff1673ffffffffffffffffffffffffffffffffffffffff167fed8889f560326eb138920d842192f0eb3dd22b4f139c87a2c57538e05bae127860405160405180910390a350565b8060025f6101000a81548173ffffffffffffffffffffffffffffffffffffffff021916908373ffffffffffffffffffffffffffffffffffffffff16021790555050565b6200033c620003fc60201b60201c565b8060085f6101000a81548173ffffffffffffffffffffffffffffffffffffffff021916908373ffffffffffffffffffffffffffffffffffffffff1602179055506200038d816200049060201b60201c565b50565b620003a0620003fc60201b60201c565b80620003ac906200061d565b60098190555050565b620003c5620003fc60201b60201c565b620003f96064670de0b6b3a764000083620003e19190620006c2565b620003ed919062000739565b620004d360201b60201c565b50565b60065f9054906101000a900473ffffffffffffffffffffffffffffffffffffffff1673ffffffffffffffffffffffffffffffffffffffff163373ffffffffffffffffffffffffffffffffffffffff16146200048e576040517f08c379a00000000000000000000000000000000000000000000000000000000081526004016200048590620007be565b60405180910390fd5b565b8060035f6101000a81548173ffffffffffffffffffffffffffffffffffffffff021916908373ffffffffffffffffffffffffffffffffffffffff16021790555050565b620004e3620003fc60201b60201c565b80600a8190555050565b5f82825260208201905092915050565b7f43616e6e6f7420736574206f776e657220746f207a65726f00000000000000005f82015250565b5f62000533601883620004ed565b91506200054082620004fd565b602082019050919050565b5f6020820190508181035f830152620005648162000525565b9050919050565b7f43616e6e6f74207472616e7366657220746f2073656c660000000000000000005f82015250565b5f620005a1601783620004ed565b9150620005ae826200056b565b602082019050919050565b5f6020820190508181035f830152620005d28162000593565b9050919050565b5f81519050919050565b5f819050602082019050919050565b5f819050919050565b5f620006088251620005f2565b80915050919050565b5f82821b905092915050565b5f6200062982620005d9565b826200063584620005e3565b90506200064281620005fb565b925060208210156200068557620006807fffffffffffffffffffffffffffffffffffffffffffffffffffffffffffffffff8360200360080262000611565b831692505b5050919050565b5f819050919050565b7f4e487b71000000000000000000000000000000000000000000000000000000005f52601160045260245ffd5b5f620006ce826200068c565b9150620006db836200068c565b9250828202620006eb816200068c565b9150828204841483151762000705576200070462000695565b5b5092915050565b7f4e487b71000000000000000000000000000000000000000000000000000000005f52601260045260245ffd5b5f62000745826200068c565b915062000752836200068c565b9250826200076557620007646200070c565b5b828204905092915050565b7f4f6e6c792063616c6c61626c65206279206f776e6572000000000000000000005f82015250565b5f620007a6601683620004ed565b9150620007b38262000770565b602082019050919050565b5f6020820190508181035f830152620007d78162000798565b9050919050565b61255380620007ec5f395ff3fe608060405234801561000f575f80fd5b50600436106100e8575f3560e01c80638da5cb5b1161008a578063b18b78dd11610064578063b18b78dd146101d6578063e3da201d146101f4578063f2fde38b14610210578063f34473a51461022c576100e8565b80638da5cb5b146101905780638dc654a2146101ae578063b02f7fe0146101b8576100e8565b80634c69c00f116100c65780634c69c00f1461012e578063562376821461014a57806379ba5097146101685780637a7f01a714610172576100e8565b8063129fc1c0146100ec578063338cdca1146101085780634357855e14610112575b5f80fd5b61010660048036038101906101019190611871565b610248565b005b610110610263565b005b61012c6004803603810190610127919061191e565b61054d565b005b610148600480360381019061014391906119b6565b610658565b005b6101526106ac565b60405161015f91906119f0565b60405180910390f35b6101706106dc565b005b61017a61086d565b60405161018791906119f0565b60405180910390f35b610198610873565b6040516101a59190611a18565b60405180910390f35b6101b661089b565b005b6101c06109e2565b6040516101cd9190611aab565b60405180910390f35b6101de610a13565b6040516101eb9190611a18565b60405180910390f35b61020e60048036038101906102099190611acb565b610a43565b005b61022a600480360381019061022591906119b6565b610a55565b005b61024660048036038101906102419190611acb565b610a69565b005b610250610a9c565b8061025a90611b2f565b60098190555050565b5f610277600954634357855e60e01b610b2d565b90506102f86040518060400160405280600681526020017f6d6574686f6400000000000000000000000000000000000000000000000000008152506040518060400160405280600381526020017f474554000000000000000000000000000000000000000000000000000000000081525083610b5d9092919063ffffffff16565b61035a6040518060400160405280600381526020017f75726c00000000000000000000000000000000000000000000000000000000008152506040518060800160405280604d8152602001612492604d913983610b5d9092919063ffffffff16565b6103bc6040518060400160405280600781526020017f68656164657273000000000000000000000000000000000000000000000000008152506040518060600160405280603f81526020016124df603f913983610b5d9092919063ffffffff16565b6104146040518060400160405280600481526020017f626f64790000000000000000000000000000000000000000000000000000000081525060405180602001604052805f81525083610b5d9092919063ffffffff16565b61046c6040518060400160405280600781526020017f636f6e746163740000000000000000000000000000000000000000000000000081525060405180602001604052805f81525083610b5d9092919063ffffffff16565b6104eb6040518060400160405280600481526020017f70617468000000000000000000000000000000000000000000000000000000008152506040518060400160405280600781526020017f4554482c5553440000000000000000000000000000000000000000000000000081525083610b5d9092919063ffffffff16565b61053d6040518060400160405280600a81526020017f6d756c7469706c69657200000000000000000000000000000000000000000000815250670de0b6b3a764000083610b909092919063ffffffff16565b61054981600a54610bc3565b5050565b8160055f8281526020019081526020015f205f9054906101000a900473ffffffffffffffffffffffffffffffffffffffff1673ffffffffffffffffffffffffffffffffffffffff163373ffffffffffffffffffffffffffffffffffffffff16146105ec576040517f08c379a00000000000000000000000000000000000000000000000000000000081526004016105e390611c05565b60405180910390fd5b60055f8281526020019081526020015f205f6101000a81549073ffffffffffffffffffffffffffffffffffffffff0219169055807f7cc135e0cebb02c3480ae5d74d377283180a2601f8f644edf7987b009316c63a60405160405180910390a281600b81905550505050565b610660610a9c565b8060085f6101000a81548173ffffffffffffffffffffffffffffffffffffffff021916908373ffffffffffffffffffffffffffffffffffffffff1602179055506106a981610bf8565b50565b5f6106b5610a9c565b670de0b6b3a76400006064600a546106cd9190611c50565b6106d79190611cbe565b905090565b60075f9054906101000a900473ffffffffffffffffffffffffffffffffffffffff1673ffffffffffffffffffffffffffffffffffffffff163373ffffffffffffffffffffffffffffffffffffffff161461076b576040517f08c379a000000000000000000000000000000000000000000000000000000000815260040161076290611d38565b60405180910390fd5b5f60065f9054906101000a900473ffffffffffffffffffffffffffffffffffffffff1690503360065f6101000a81548173ffffffffffffffffffffffffffffffffffffffff021916908373ffffffffffffffffffffffffffffffffffffffff1602179055505f60075f6101000a81548173ffffffffffffffffffffffffffffffffffffffff021916908373ffffffffffffffffffffffffffffffffffffffff1602179055503373ffffffffffffffffffffffffffffffffffffffff168173ffffffffffffffffffffffffffffffffffffffff167f8be0079c531659141344cd1fd0a4f28419497f9722a3daafe3b4186f6b6457e060405160405180910390a350565b600b5481565b5f60065f9054906101000a900473ffffffffffffffffffffffffffffffffffffffff16905090565b6108a3610a9c565b5f6108ac610c3b565b90508073ffffffffffffffffffffffffffffffffffffffff1663a9059cbb338373ffffffffffffffffffffffffffffffffffffffff166370a08231306040518263ffffffff1660e01b81526004016109049190611a18565b602060405180830381865afa15801561091f573d5f803e3d5ffd5b505050506040513d601f19601f820116820180604052508101906109439190611d6a565b6040518363ffffffff1660e01b8152600401610960929190611d95565b6020604051808303815f875af115801561097c573d5f803e3d5ffd5b505050506040513d601f19601f820116820180604052508101906109a09190611df1565b6109df576040517f08c379a00000000000000000000000000000000000000000000000000000000081526004016109d690611e66565b60405180910390fd5b50565b60606109ec610a9c565b6009546040516020016109ff9190611ea4565b604051602081830303815290604052905090565b5f610a1c610a9c565b60085f9054906101000a900473ffffffffffffffffffffffffffffffffffffffff16905090565b610a4b610a9c565b80600a8190555050565b610a5d610a9c565b610a6681610c63565b50565b610a71610a9c565b610a996064670de0b6b3a764000083610a8a9190611c50565b610a949190611cbe565b610a43565b50565b60065f9054906101000a900473ffffffffffffffffffffffffffffffffffffffff1673ffffffffffffffffffffffffffffffffffffffff163373ffffffffffffffffffffffffffffffffffffffff1614610b2b576040517f08c379a0000000000000000000000000000000000000000000000000000000008152600401610b2290611f08565b60405180910390fd5b565b610b356116a2565b610b3d6116a2565b610b5484308584610d8f909392919063ffffffff16565b91505092915050565b610b74828460800151610e3e90919063ffffffff16565b610b8b818460800151610e3e90919063ffffffff16565b505050565b610ba7828460800151610e3e90919063ffffffff16565b610bbe818460800151610e6390919063ffffffff16565b505050565b5f610bf060035f9054906101000a900473ffffffffffffffffffffffffffffffffffffffff168484610f0e565b905092915050565b8060035f6101000a81548173ffffffffffffffffffffffffffffffffffffffff021916908373ffffffffffffffffffffffffffffffffffffffff16021790555050565b5f60025f9054906101000a900473ffffffffffffffffffffffffffffffffffffffff16905090565b3373ffffffffffffffffffffffffffffffffffffffff168173ffffffffffffffffffffffffffffffffffffffff1603610cd1576040517f08c379a0000000000000000000000000000000000000000000000000000000008152600401610cc890611f70565b60405180910390fd5b8060075f6101000a81548173ffffffffffffffffffffffffffffffffffffffff021916908373ffffffffffffffffffffffffffffffffffffffff1602179055508073ffffffffffffffffffffffffffffffffffffffff1660065f9054906101000a900473ffffffffffffffffffffffffffffffffffffffff1673ffffffffffffffffffffffffffffffffffffffff167fed8889f560326eb138920d842192f0eb3dd22b4f139c87a2c57538e05bae127860405160405180910390a350565b610d976116a2565b610da78560800151610100610fd3565b5083855f01818152505082856020019073ffffffffffffffffffffffffffffffffffffffff16908173ffffffffffffffffffffffffffffffffffffffff16815250508185604001907bffffffffffffffffffffffffffffffffffffffffffffffffffffffff191690817bffffffffffffffffffffffffffffffffffffffffffffffffffffffff191681525050849050949350505050565b610e4b826003835161103b565b610e5e81836111c090919063ffffffff16565b505050565b7fffffffffffffffffffffffffffffffffffffffffffffffff0000000000000000811215610e9a57610e9582826111e1565b610f0a565b67ffffffffffffffff811315610eb957610eb48282611258565b610f09565b5f8112610ed057610ecb825f8361103b565b610f08565b610f07826001837fffffffffffffffffffffffffffffffffffffffffffffffffffffffffffffffff610f029190611f97565b61103b565b5b5b5b5050565b5f806004549050600181610f229190611fd7565b6004819055505f633c6d41b960e01b5f80875f015188604001518660028b608001515f0151604051602401610f5d979695949392919061209b565b604051602081830303815290604052907bffffffffffffffffffffffffffffffffffffffffffffffffffffffff19166020820180517bffffffffffffffffffffffffffffffffffffffffffffffffffffffff83818316178352505050509050610fc8868386846112a4565b925050509392505050565b610fdb61170b565b5f602083610fe9919061210f565b1461101557602082610ffb919061210f565b6020611007919061213f565b826110129190611fd7565b91505b818360200181815250506040518084525f81528281016020016040525082905092915050565b60178167ffffffffffffffff16116110725761106c8160058460ff16901b60ff16178461143190919063ffffffff16565b506111bb565b60ff8167ffffffffffffffff16116110c8576110a1601860058460ff16901b178461143190919063ffffffff16565b506110c28167ffffffffffffffff166001856114509092919063ffffffff16565b506111ba565b61ffff8167ffffffffffffffff161161111f576110f8601960058460ff16901b178461143190919063ffffffff16565b506111198167ffffffffffffffff166002856114509092919063ffffffff16565b506111b9565b63ffffffff8167ffffffffffffffff161161117857611151601a60058460ff16901b178461143190919063ffffffff16565b506111728167ffffffffffffffff166004856114509092919063ffffffff16565b506111b8565b611195601b60058460ff16901b178461143190919063ffffffff16565b506111b68167ffffffffffffffff166008856114509092919063ffffffff16565b505b5b5b5b505050565b6111c861170b565b6111d983845f015151848551611471565b905092915050565b6111ff60036005600660ff16901b178361143190919063ffffffff16565b5061125482827fffffffffffffffffffffffffffffffffffffffffffffffffffffffffffffffff6112309190611f97565b60405160200161124091906119f0565b60405160208183030381529060405261155d565b5050565b61127660026005600660ff16901b178361143190919063ffffffff16565b506112a0828260405160200161128c91906119f0565b60405160208183030381529060405261155d565b5050565b5f30846040516020016112b8929190612223565b6040516020818303038152906040528051906020012090508460055f8381526020019081526020015f205f6101000a81548173ffffffffffffffffffffffffffffffffffffffff021916908373ffffffffffffffffffffffffffffffffffffffff160217905550807fb5e6e01e79f91267dc17b4e6314d5d4d03593d2ceee0fbb452b750bd70ea5af960405160405180910390a260025f9054906101000a900473ffffffffffffffffffffffffffffffffffffffff1673ffffffffffffffffffffffffffffffffffffffff16634000aea08685856040518463ffffffff1660e01b81526004016113aa9392919061224e565b6020604051808303815f875af11580156113c6573d5f803e3d5ffd5b505050506040513d601f19601f820116820180604052508101906113ea9190611df1565b611429576040517f08c379a0000000000000000000000000000000000000000000000000000000008152600401611420906122fa565b60405180910390fd5b949350505050565b61143961170b565b61144883845f01515184611582565b905092915050565b61145861170b565b61146884855f01515185856115d8565b90509392505050565b61147961170b565b8251821115611486575f80fd5b846020015182856114979190611fd7565b11156114cc576114cb8560026114bc886020015188876114b79190611fd7565b611665565b6114c69190611c50565b611680565b5b5f808651805187602083010193508088870111156114ea5787860182525b60208701925050505b60208410611531578051825260208261150c9190611fd7565b915060208161151b9190611fd7565b905060208461152a919061213f565b93506114f3565b5f6001856020036101000a03905080198251168184511681811785525050508692505050949350505050565b61156a826002835161103b565b61157d81836111c090919063ffffffff16565b505050565b61158a61170b565b836020015183106115b0576115af84600286602001516115aa9190611c50565b611680565b5b835180516020858301018481538186036115cb576001820183525b5050508390509392505050565b6115e061170b565b846020015184836115f19190611fd7565b11156116195761161885600286856116099190611fd7565b6116139190611c50565b611680565b5b5f60018361010061162a9190612447565b611634919061213f565b905085518386820101858319825116178152815185880111156116575784870182525b505085915050949350505050565b5f818311156116765782905061167a565b8190505b92915050565b5f825f015190506116918383610fd3565b5061169c83826111c0565b50505050565b6040518060a001604052805f80191681526020015f73ffffffffffffffffffffffffffffffffffffffff1681526020015f7bffffffffffffffffffffffffffffffffffffffffffffffffffffffff191681526020015f815260200161170561170b565b81525090565b6040518060400160405280606081526020015f81525090565b5f604051905090565b5f80fd5b5f80fd5b5f80fd5b5f80fd5b5f601f19601f8301169050919050565b7f4e487b71000000000000000000000000000000000000000000000000000000005f52604160045260245ffd5b6117838261173d565b810181811067ffffffffffffffff821117156117a2576117a161174d565b5b80604052505050565b5f6117b4611724565b90506117c0828261177a565b919050565b5f67ffffffffffffffff8211156117df576117de61174d565b5b6117e88261173d565b9050602081019050919050565b828183375f83830152505050565b5f611815611810846117c5565b6117ab565b90508281526020810184848401111561183157611830611739565b5b61183c8482856117f5565b509392505050565b5f82601f83011261185857611857611735565b5b8135611868848260208601611803565b91505092915050565b5f602082840312156118865761188561172d565b5b5f82013567ffffffffffffffff8111156118a3576118a2611731565b5b6118af84828501611844565b91505092915050565b5f819050919050565b6118ca816118b8565b81146118d4575f80fd5b50565b5f813590506118e5816118c1565b92915050565b5f819050919050565b6118fd816118eb565b8114611907575f80fd5b50565b5f81359050611918816118f4565b92915050565b5f80604083850312156119345761193361172d565b5b5f611941858286016118d7565b92505060206119528582860161190a565b9150509250929050565b5f73ffffffffffffffffffffffffffffffffffffffff82169050919050565b5f6119858261195c565b9050919050565b6119958161197b565b811461199f575f80fd5b50565b5f813590506119b08161198c565b92915050565b5f602082840312156119cb576119ca61172d565b5b5f6119d8848285016119a2565b91505092915050565b6119ea816118eb565b82525050565b5f602082019050611a035f8301846119e1565b92915050565b611a128161197b565b82525050565b5f602082019050611a2b5f830184611a09565b92915050565b5f81519050919050565b5f82825260208201905092915050565b5f5b83811015611a68578082015181840152602081019050611a4d565b5f8484015250505050565b5f611a7d82611a31565b611a878185611a3b565b9350611a97818560208601611a4b565b611aa08161173d565b840191505092915050565b5f6020820190508181035f830152611ac38184611a73565b905092915050565b5f60208284031215611ae057611adf61172d565b5b5f611aed8482850161190a565b91505092915050565b5f81519050919050565b5f819050602082019050919050565b5f611b1a82516118b8565b80915050919050565b5f82821b905092915050565b5f611b3982611af6565b82611b4384611b00565b9050611b4e81611b0f565b92506020821015611b8e57611b897fffffffffffffffffffffffffffffffffffffffffffffffffffffffffffffffff83602003600802611b23565b831692505b5050919050565b7f536f75726365206d75737420626520746865206f7261636c65206f66207468655f8201527f2072657175657374000000000000000000000000000000000000000000000000602082015250565b5f611bef602883611a3b565b9150611bfa82611b95565b604082019050919050565b5f6020820190508181035f830152611c1c81611be3565b9050919050565b7f4e487b71000000000000000000000000000000000000000000000000000000005f52601160045260245ffd5b5f611c5a826118eb565b9150611c65836118eb565b9250828202611c73816118eb565b91508282048414831517611c8a57611c89611c23565b5b5092915050565b7f4e487b71000000000000000000000000000000000000000000000000000000005f52601260045260245ffd5b5f611cc8826118eb565b9150611cd3836118eb565b925082611ce357611ce2611c91565b5b828204905092915050565b7f4d7573742062652070726f706f736564206f776e6572000000000000000000005f82015250565b5f611d22601683611a3b565b9150611d2d82611cee565b602082019050919050565b5f6020820190508181035f830152611d4f81611d16565b9050919050565b5f81519050611d64816118f4565b92915050565b5f60208284031215611d7f57611d7e61172d565b5b5f611d8c84828501611d56565b91505092915050565b5f604082019050611da85f830185611a09565b611db560208301846119e1565b9392505050565b5f8115159050919050565b611dd081611dbc565b8114611dda575f80fd5b50565b5f81519050611deb81611dc7565b92915050565b5f60208284031215611e0657611e0561172d565b5b5f611e1384828501611ddd565b91505092915050565b7f556e61626c6520746f207472616e7366657200000000000000000000000000005f82015250565b5f611e50601283611a3b565b9150611e5b82611e1c565b602082019050919050565b5f6020820190508181035f830152611e7d81611e44565b9050919050565b5f819050919050565b611e9e611e99826118b8565b611e84565b82525050565b5f611eaf8284611e8d565b60208201915081905092915050565b7f4f6e6c792063616c6c61626c65206279206f776e6572000000000000000000005f82015250565b5f611ef2601683611a3b565b9150611efd82611ebe565b602082019050919050565b5f6020820190508181035f830152611f1f81611ee6565b9050919050565b7f43616e6e6f74207472616e7366657220746f2073656c660000000000000000005f82015250565b5f611f5a601783611a3b565b9150611f6582611f26565b602082019050919050565b5f6020820190508181035f830152611f8781611f4e565b9050919050565b5f819050919050565b5f611fa182611f8e565b9150611fac83611f8e565b925082820390508181125f8412168282135f851215161715611fd157611fd0611c23565b5b92915050565b5f611fe1826118eb565b9150611fec836118eb565b925082820190508082111561200457612003611c23565b5b92915050565b612013816118b8565b82525050565b5f7fffffffff0000000000000000000000000000000000000000000000000000000082169050919050565b61204d81612019565b82525050565b5f82825260208201905092915050565b5f61206d82611af6565b6120778185612053565b9350612087818560208601611a4b565b6120908161173d565b840191505092915050565b5f60e0820190506120ae5f83018a611a09565b6120bb60208301896119e1565b6120c8604083018861200a565b6120d56060830187612044565b6120e260808301866119e1565b6120ef60a08301856119e1565b81810360c08301526121018184612063565b905098975050505050505050565b5f612119826118eb565b9150612124836118eb565b92508261213457612133611c91565b5b828206905092915050565b5f612149826118eb565b9150612154836118eb565b925082820390508181111561216c5761216b611c23565b5b92915050565b5f819050919050565b5f61219561219061218b8461195c565b612172565b61195c565b9050919050565b5f6121a68261217b565b9050919050565b5f6121b78261219c565b9050919050565b5f8160601b9050919050565b5f6121d4826121be565b9050919050565b5f6121e5826121ca565b9050919050565b6121fd6121f8826121ad565b6121db565b82525050565b5f819050919050565b61221d612218826118eb565b612203565b82525050565b5f61222e82856121ec565b60148201915061223e828461220c565b6020820191508190509392505050565b5f6060820190506122615f830186611a09565b61226e60208301856119e1565b81810360408301526122808184612063565b9050949350505050565b7f756e61626c6520746f207472616e73666572416e6443616c6c20746f206f72615f8201527f636c650000000000000000000000000000000000000000000000000000000000602082015250565b5f6122e4602383611a3b565b91506122ef8261228a565b604082019050919050565b5f6020820190508181035f830152612311816122d8565b9050919050565b5f8160011c9050919050565b5f808291508390505b600185111561236d5780860481111561234957612348611c23565b5b60018516156123585780820291505b808102905061236685612318565b945061232d565b94509492505050565b5f826123855760019050612440565b81612392575f9050612440565b81600181146123a857600281146123b2576123e1565b6001915050612440565b60ff8411156123c4576123c3611c23565b5b8360020a9150848211156123db576123da611c23565b5b50612440565b5060208310610133831016604e8410600b84101617156124165782820a90508381111561241157612410611c23565b5b612440565b6124238484846001612324565b9250905081840481111561243a57612439611c23565b5b81810290505b9392505050565b5f612451826118eb565b915061245c836118eb565b92506124897fffffffffffffffffffffffffffffffffffffffffffffffffffffffffffffffff8484612376565b90509291505056fe68747470733a2f2f6d696e2d6170692e63727970746f636f6d706172652e636f6d2f646174612f70726963656d756c74693f6673796d733d4254432c455448267473796d733d5553442c4555525b22636f6e74656e742d74797065222c20226170706c69636174696f6e2f6a736f6e222c20227365742d636f6f6b6965222c20227369643d3134413532225da264697066735822122027b52de6e433c9eb0fde73656f1d13dd01816b1758a6a48a3d7291a90c48ce2264736f6c63430008180033",
					"opcodes": "PUSH1 0x80 PUSH1 0x40 MSTORE PUSH1 0x1 PUSH1 0x4 SSTORE CALLVALUE DUP1 ISZERO PUSH3 0x15 JUMPI PUSH0 DUP1 REVERT JUMPDEST POP CALLER DUP1 PUSH0 DUP1 PUSH20 0xFFFFFFFFFFFFFFFFFFFFFFFFFFFFFFFFFFFFFFFF AND DUP3 PUSH20 0xFFFFFFFFFFFFFFFFFFFFFFFFFFFFFFFFFFFFFFFF AND SUB PUSH3 0x8A JUMPI PUSH1 0x40 MLOAD PUSH32 0x8C379A000000000000000000000000000000000000000000000000000000000 DUP2 MSTORE PUSH1 0x4 ADD PUSH3 0x81 SWAP1 PUSH3 0x54B JUMP JUMPDEST PUSH1 0x40 MLOAD DUP1 SWAP2 SUB SWAP1 REVERT JUMPDEST DUP2 PUSH1 0x6 PUSH0 PUSH2 0x100 EXP DUP2 SLOAD DUP2 PUSH20 0xFFFFFFFFFFFFFFFFFFFFFFFFFFFFFFFFFFFFFFFF MUL NOT AND SWAP1 DUP4 PUSH20 0xFFFFFFFFFFFFFFFFFFFFFFFFFFFFFFFFFFFFFFFF AND MUL OR SWAP1 SSTORE POP PUSH0 PUSH20 0xFFFFFFFFFFFFFFFFFFFFFFFFFFFFFFFFFFFFFFFF AND DUP2 PUSH20 0xFFFFFFFFFFFFFFFFFFFFFFFFFFFFFFFFFFFFFFFF AND EQ PUSH3 0x110 JUMPI PUSH3 0x10F DUP2 PUSH3 0x1BA PUSH1 0x20 SHL PUSH1 0x20 SHR JUMP JUMPDEST JUMPDEST POP POP POP PUSH3 0x138 PUSH20 0x326C977E6EFC84E512BB9C30F76E30C160ED06FB PUSH3 0x2E9 PUSH1 0x20 SHL PUSH1 0x20 SHR JUMP JUMPDEST PUSH3 0x15D PUSH20 0x12A3D7759F745F4CB8EE8A647038C040CB8862A5 PUSH3 0x32C PUSH1 0x20 SHL PUSH1 0x20 SHR JUMP JUMPDEST PUSH3 0x1A3 PUSH1 0x40 MLOAD DUP1 PUSH1 0x40 ADD PUSH1 0x40 MSTORE DUP1 PUSH1 0x20 DUP2 MSTORE PUSH1 0x20 ADD PUSH32 0x6138333536663438353639633433346561613461633566636234646235636330 DUP2 MSTORE POP PUSH3 0x390 PUSH1 0x20 SHL PUSH1 0x20 SHR JUMP JUMPDEST PUSH3 0x1B4 PUSH0 PUSH3 0x3B5 PUSH1 0x20 SHL PUSH1 0x20 SHR JUMP JUMPDEST PUSH3 0x7DE JUMP JUMPDEST CALLER PUSH20 0xFFFFFFFFFFFFFFFFFFFFFFFFFFFFFFFFFFFFFFFF AND DUP2 PUSH20 0xFFFFFFFFFFFFFFFFFFFFFFFFFFFFFFFFFFFFFFFF AND SUB PUSH3 0x22B JUMPI PUSH1 0x40 MLOAD PUSH32 0x8C379A000000000000000000000000000000000000000000000000000000000 DUP2 MSTORE PUSH1 0x4 ADD PUSH3 0x222 SWAP1 PUSH3 0x5B9 JUMP JUMPDEST PUSH1 0x40 MLOAD DUP1 SWAP2 SUB SWAP1 REVERT JUMPDEST DUP1 PUSH1 0x7 PUSH0 PUSH2 0x100 EXP DUP2 SLOAD DUP2 PUSH20 0xFFFFFFFFFFFFFFFFFFFFFFFFFFFFFFFFFFFFFFFF MUL NOT AND SWAP1 DUP4 PUSH20 0xFFFFFFFFFFFFFFFFFFFFFFFFFFFFFFFFFFFFFFFF AND MUL OR SWAP1 SSTORE POP DUP1 PUSH20 0xFFFFFFFFFFFFFFFFFFFFFFFFFFFFFFFFFFFFFFFF AND PUSH1 0x6 PUSH0 SWAP1 SLOAD SWAP1 PUSH2 0x100 EXP SWAP1 DIV PUSH20 0xFFFFFFFFFFFFFFFFFFFFFFFFFFFFFFFFFFFFFFFF AND PUSH20 0xFFFFFFFFFFFFFFFFFFFFFFFFFFFFFFFFFFFFFFFF AND PUSH32 0xED8889F560326EB138920D842192F0EB3DD22B4F139C87A2C57538E05BAE1278 PUSH1 0x40 MLOAD PUSH1 0x40 MLOAD DUP1 SWAP2 SUB SWAP1 LOG3 POP JUMP JUMPDEST DUP1 PUSH1 0x2 PUSH0 PUSH2 0x100 EXP DUP2 SLOAD DUP2 PUSH20 0xFFFFFFFFFFFFFFFFFFFFFFFFFFFFFFFFFFFFFFFF MUL NOT AND SWAP1 DUP4 PUSH20 0xFFFFFFFFFFFFFFFFFFFFFFFFFFFFFFFFFFFFFFFF AND MUL OR SWAP1 SSTORE POP POP JUMP JUMPDEST PUSH3 0x33C PUSH3 0x3FC PUSH1 0x20 SHL PUSH1 0x20 SHR JUMP JUMPDEST DUP1 PUSH1 0x8 PUSH0 PUSH2 0x100 EXP DUP2 SLOAD DUP2 PUSH20 0xFFFFFFFFFFFFFFFFFFFFFFFFFFFFFFFFFFFFFFFF MUL NOT AND SWAP1 DUP4 PUSH20 0xFFFFFFFFFFFFFFFFFFFFFFFFFFFFFFFFFFFFFFFF AND MUL OR SWAP1 SSTORE POP PUSH3 0x38D DUP2 PUSH3 0x490 PUSH1 0x20 SHL PUSH1 0x20 SHR JUMP JUMPDEST POP JUMP JUMPDEST PUSH3 0x3A0 PUSH3 0x3FC PUSH1 0x20 SHL PUSH1 0x20 SHR JUMP JUMPDEST DUP1 PUSH3 0x3AC SWAP1 PUSH3 0x61D JUMP JUMPDEST PUSH1 0x9 DUP2 SWAP1 SSTORE POP POP JUMP JUMPDEST PUSH3 0x3C5 PUSH3 0x3FC PUSH1 0x20 SHL PUSH1 0x20 SHR JUMP JUMPDEST PUSH3 0x3F9 PUSH1 0x64 PUSH8 0xDE0B6B3A7640000 DUP4 PUSH3 0x3E1 SWAP2 SWAP1 PUSH3 0x6C2 JUMP JUMPDEST PUSH3 0x3ED SWAP2 SWAP1 PUSH3 0x739 JUMP JUMPDEST PUSH3 0x4D3 PUSH1 0x20 SHL PUSH1 0x20 SHR JUMP JUMPDEST POP JUMP JUMPDEST PUSH1 0x6 PUSH0 SWAP1 SLOAD SWAP1 PUSH2 0x100 EXP SWAP1 DIV PUSH20 0xFFFFFFFFFFFFFFFFFFFFFFFFFFFFFFFFFFFFFFFF AND PUSH20 0xFFFFFFFFFFFFFFFFFFFFFFFFFFFFFFFFFFFFFFFF AND CALLER PUSH20 0xFFFFFFFFFFFFFFFFFFFFFFFFFFFFFFFFFFFFFFFF AND EQ PUSH3 0x48E JUMPI PUSH1 0x40 MLOAD PUSH32 0x8C379A000000000000000000000000000000000000000000000000000000000 DUP2 MSTORE PUSH1 0x4 ADD PUSH3 0x485 SWAP1 PUSH3 0x7BE JUMP JUMPDEST PUSH1 0x40 MLOAD DUP1 SWAP2 SUB SWAP1 REVERT JUMPDEST JUMP JUMPDEST DUP1 PUSH1 0x3 PUSH0 PUSH2 0x100 EXP DUP2 SLOAD DUP2 PUSH20 0xFFFFFFFFFFFFFFFFFFFFFFFFFFFFFFFFFFFFFFFF MUL NOT AND SWAP1 DUP4 PUSH20 0xFFFFFFFFFFFFFFFFFFFFFFFFFFFFFFFFFFFFFFFF AND MUL OR SWAP1 SSTORE POP POP JUMP JUMPDEST PUSH3 0x4E3 PUSH3 0x3FC PUSH1 0x20 SHL PUSH1 0x20 SHR JUMP JUMPDEST DUP1 PUSH1 0xA DUP2 SWAP1 SSTORE POP POP JUMP JUMPDEST PUSH0 DUP3 DUP3 MSTORE PUSH1 0x20 DUP3 ADD SWAP1 POP SWAP3 SWAP2 POP POP JUMP JUMPDEST PUSH32 0x43616E6E6F7420736574206F776E657220746F207A65726F0000000000000000 PUSH0 DUP3 ADD MSTORE POP JUMP JUMPDEST PUSH0 PUSH3 0x533 PUSH1 0x18 DUP4 PUSH3 0x4ED JUMP JUMPDEST SWAP2 POP PUSH3 0x540 DUP3 PUSH3 0x4FD JUMP JUMPDEST PUSH1 0x20 DUP3 ADD SWAP1 POP SWAP2 SWAP1 POP JUMP JUMPDEST PUSH0 PUSH1 0x20 DUP3 ADD SWAP1 POP DUP2 DUP2 SUB PUSH0 DUP4 ADD MSTORE PUSH3 0x564 DUP2 PUSH3 0x525 JUMP JUMPDEST SWAP1 POP SWAP2 SWAP1 POP JUMP JUMPDEST PUSH32 0x43616E6E6F74207472616E7366657220746F2073656C66000000000000000000 PUSH0 DUP3 ADD MSTORE POP JUMP JUMPDEST PUSH0 PUSH3 0x5A1 PUSH1 0x17 DUP4 PUSH3 0x4ED JUMP JUMPDEST SWAP2 POP PUSH3 0x5AE DUP3 PUSH3 0x56B JUMP JUMPDEST PUSH1 0x20 DUP3 ADD SWAP1 POP SWAP2 SWAP1 POP JUMP JUMPDEST PUSH0 PUSH1 0x20 DUP3 ADD SWAP1 POP DUP2 DUP2 SUB PUSH0 DUP4 ADD MSTORE PUSH3 0x5D2 DUP2 PUSH3 0x593 JUMP JUMPDEST SWAP1 POP SWAP2 SWAP1 POP JUMP JUMPDEST PUSH0 DUP2 MLOAD SWAP1 POP SWAP2 SWAP1 POP JUMP JUMPDEST PUSH0 DUP2 SWAP1 POP PUSH1 0x20 DUP3 ADD SWAP1 POP SWAP2 SWAP1 POP JUMP JUMPDEST PUSH0 DUP2 SWAP1 POP SWAP2 SWAP1 POP JUMP JUMPDEST PUSH0 PUSH3 0x608 DUP3 MLOAD PUSH3 0x5F2 JUMP JUMPDEST DUP1 SWAP2 POP POP SWAP2 SWAP1 POP JUMP JUMPDEST PUSH0 DUP3 DUP3 SHL SWAP1 POP SWAP3 SWAP2 POP POP JUMP JUMPDEST PUSH0 PUSH3 0x629 DUP3 PUSH3 0x5D9 JUMP JUMPDEST DUP3 PUSH3 0x635 DUP5 PUSH3 0x5E3 JUMP JUMPDEST SWAP1 POP PUSH3 0x642 DUP2 PUSH3 0x5FB JUMP JUMPDEST SWAP3 POP PUSH1 0x20 DUP3 LT ISZERO PUSH3 0x685 JUMPI PUSH3 0x680 PUSH32 0xFFFFFFFFFFFFFFFFFFFFFFFFFFFFFFFFFFFFFFFFFFFFFFFFFFFFFFFFFFFFFFFF DUP4 PUSH1 0x20 SUB PUSH1 0x8 MUL PUSH3 0x611 JUMP JUMPDEST DUP4 AND SWAP3 POP JUMPDEST POP POP SWAP2 SWAP1 POP JUMP JUMPDEST PUSH0 DUP2 SWAP1 POP SWAP2 SWAP1 POP JUMP JUMPDEST PUSH32 0x4E487B7100000000000000000000000000000000000000000000000000000000 PUSH0 MSTORE PUSH1 0x11 PUSH1 0x4 MSTORE PUSH1 0x24 PUSH0 REVERT JUMPDEST PUSH0 PUSH3 0x6CE DUP3 PUSH3 0x68C JUMP JUMPDEST SWAP2 POP PUSH3 0x6DB DUP4 PUSH3 0x68C JUMP JUMPDEST SWAP3 POP DUP3 DUP3 MUL PUSH3 0x6EB DUP2 PUSH3 0x68C JUMP JUMPDEST SWAP2 POP DUP3 DUP3 DIV DUP5 EQ DUP4 ISZERO OR PUSH3 0x705 JUMPI PUSH3 0x704 PUSH3 0x695 JUMP JUMPDEST JUMPDEST POP SWAP3 SWAP2 POP POP JUMP JUMPDEST PUSH32 0x4E487B7100000000000000000000000000000000000000000000000000000000 PUSH0 MSTORE PUSH1 0x12 PUSH1 0x4 MSTORE PUSH1 0x24 PUSH0 REVERT JUMPDEST PUSH0 PUSH3 0x745 DUP3 PUSH3 0x68C JUMP JUMPDEST SWAP2 POP PUSH3 0x752 DUP4 PUSH3 0x68C JUMP JUMPDEST SWAP3 POP DUP3 PUSH3 0x765 JUMPI PUSH3 0x764 PUSH3 0x70C JUMP JUMPDEST JUMPDEST DUP3 DUP3 DIV SWAP1 POP SWAP3 SWAP2 POP POP JUMP JUMPDEST PUSH32 0x4F6E6C792063616C6C61626C65206279206F776E657200000000000000000000 PUSH0 DUP3 ADD MSTORE POP JUMP JUMPDEST PUSH0 PUSH3 0x7A6 PUSH1 0x16 DUP4 PUSH3 0x4ED JUMP JUMPDEST SWAP2 POP PUSH3 0x7B3 DUP3 PUSH3 0x770 JUMP JUMPDEST PUSH1 0x20 DUP3 ADD SWAP1 POP SWAP2 SWAP1 POP JUMP JUMPDEST PUSH0 PUSH1 0x20 DUP3 ADD SWAP1 POP DUP2 DUP2 SUB PUSH0 DUP4 ADD MSTORE PUSH3 0x7D7 DUP2 PUSH3 0x798 JUMP JUMPDEST SWAP1 POP SWAP2 SWAP1 POP JUMP JUMPDEST PUSH2 0x2553 DUP1 PUSH3 0x7EC PUSH0 CODECOPY PUSH0 RETURN INVALID PUSH1 0x80 PUSH1 0x40 MSTORE CALLVALUE DUP1 ISZERO PUSH2 0xF JUMPI PUSH0 DUP1 REVERT JUMPDEST POP PUSH1 0x4 CALLDATASIZE LT PUSH2 0xE8 JUMPI PUSH0 CALLDATALOAD PUSH1 0xE0 SHR DUP1 PUSH4 0x8DA5CB5B GT PUSH2 0x8A JUMPI DUP1 PUSH4 0xB18B78DD GT PUSH2 0x64 JUMPI DUP1 PUSH4 0xB18B78DD EQ PUSH2 0x1D6 JUMPI DUP1 PUSH4 0xE3DA201D EQ PUSH2 0x1F4 JUMPI DUP1 PUSH4 0xF2FDE38B EQ PUSH2 0x210 JUMPI DUP1 PUSH4 0xF34473A5 EQ PUSH2 0x22C JUMPI PUSH2 0xE8 JUMP JUMPDEST DUP1 PUSH4 0x8DA5CB5B EQ PUSH2 0x190 JUMPI DUP1 PUSH4 0x8DC654A2 EQ PUSH2 0x1AE JUMPI DUP1 PUSH4 0xB02F7FE0 EQ PUSH2 0x1B8 JUMPI PUSH2 0xE8 JUMP JUMPDEST DUP1 PUSH4 0x4C69C00F GT PUSH2 0xC6 JUMPI DUP1 PUSH4 0x4C69C00F EQ PUSH2 0x12E JUMPI DUP1 PUSH4 0x56237682 EQ PUSH2 0x14A JUMPI DUP1 PUSH4 0x79BA5097 EQ PUSH2 0x168 JUMPI DUP1 PUSH4 0x7A7F01A7 EQ PUSH2 0x172 JUMPI PUSH2 0xE8 JUMP JUMPDEST DUP1 PUSH4 0x129FC1C0 EQ PUSH2 0xEC JUMPI DUP1 PUSH4 0x338CDCA1 EQ PUSH2 0x108 JUMPI DUP1 PUSH4 0x4357855E EQ PUSH2 0x112 JUMPI JUMPDEST PUSH0 DUP1 REVERT JUMPDEST PUSH2 0x106 PUSH1 0x4 DUP1 CALLDATASIZE SUB DUP2 ADD SWAP1 PUSH2 0x101 SWAP2 SWAP1 PUSH2 0x1871 JUMP JUMPDEST PUSH2 0x248 JUMP JUMPDEST STOP JUMPDEST PUSH2 0x110 PUSH2 0x263 JUMP JUMPDEST STOP JUMPDEST PUSH2 0x12C PUSH1 0x4 DUP1 CALLDATASIZE SUB DUP2 ADD SWAP1 PUSH2 0x127 SWAP2 SWAP1 PUSH2 0x191E JUMP JUMPDEST PUSH2 0x54D JUMP JUMPDEST STOP JUMPDEST PUSH2 0x148 PUSH1 0x4 DUP1 CALLDATASIZE SUB DUP2 ADD SWAP1 PUSH2 0x143 SWAP2 SWAP1 PUSH2 0x19B6 JUMP JUMPDEST PUSH2 0x658 JUMP JUMPDEST STOP JUMPDEST PUSH2 0x152 PUSH2 0x6AC JUMP JUMPDEST PUSH1 0x40 MLOAD PUSH2 0x15F SWAP2 SWAP1 PUSH2 0x19F0 JUMP JUMPDEST PUSH1 0x40 MLOAD DUP1 SWAP2 SUB SWAP1 RETURN JUMPDEST PUSH2 0x170 PUSH2 0x6DC JUMP JUMPDEST STOP JUMPDEST PUSH2 0x17A PUSH2 0x86D JUMP JUMPDEST PUSH1 0x40 MLOAD PUSH2 0x187 SWAP2 SWAP1 PUSH2 0x19F0 JUMP JUMPDEST PUSH1 0x40 MLOAD DUP1 SWAP2 SUB SWAP1 RETURN JUMPDEST PUSH2 0x198 PUSH2 0x873 JUMP JUMPDEST PUSH1 0x40 MLOAD PUSH2 0x1A5 SWAP2 SWAP1 PUSH2 0x1A18 JUMP JUMPDEST PUSH1 0x40 MLOAD DUP1 SWAP2 SUB SWAP1 RETURN JUMPDEST PUSH2 0x1B6 PUSH2 0x89B JUMP JUMPDEST STOP JUMPDEST PUSH2 0x1C0 PUSH2 0x9E2 JUMP JUMPDEST PUSH1 0x40 MLOAD PUSH2 0x1CD SWAP2 SWAP1 PUSH2 0x1AAB JUMP JUMPDEST PUSH1 0x40 MLOAD DUP1 SWAP2 SUB SWAP1 RETURN JUMPDEST PUSH2 0x1DE PUSH2 0xA13 JUMP JUMPDEST PUSH1 0x40 MLOAD PUSH2 0x1EB SWAP2 SWAP1 PUSH2 0x1A18 JUMP JUMPDEST PUSH1 0x40 MLOAD DUP1 SWAP2 SUB SWAP1 RETURN JUMPDEST PUSH2 0x20E PUSH1 0x4 DUP1 CALLDATASIZE SUB DUP2 ADD SWAP1 PUSH2 0x209 SWAP2 SWAP1 PUSH2 0x1ACB JUMP JUMPDEST PUSH2 0xA43 JUMP JUMPDEST STOP JUMPDEST PUSH2 0x22A PUSH1 0x4 DUP1 CALLDATASIZE SUB DUP2 ADD SWAP1 PUSH2 0x225 SWAP2 SWAP1 PUSH2 0x19B6 JUMP JUMPDEST PUSH2 0xA55 JUMP JUMPDEST STOP JUMPDEST PUSH2 0x246 PUSH1 0x4 DUP1 CALLDATASIZE SUB DUP2 ADD SWAP1 PUSH2 0x241 SWAP2 SWAP1 PUSH2 0x1ACB JUMP JUMPDEST PUSH2 0xA69 JUMP JUMPDEST STOP JUMPDEST PUSH2 0x250 PUSH2 0xA9C JUMP JUMPDEST DUP1 PUSH2 0x25A SWAP1 PUSH2 0x1B2F JUMP JUMPDEST PUSH1 0x9 DUP2 SWAP1 SSTORE POP POP JUMP JUMPDEST PUSH0 PUSH2 0x277 PUSH1 0x9 SLOAD PUSH4 0x4357855E PUSH1 0xE0 SHL PUSH2 0xB2D JUMP JUMPDEST SWAP1 POP PUSH2 0x2F8 PUSH1 0x40 MLOAD DUP1 PUSH1 0x40 ADD PUSH1 0x40 MSTORE DUP1 PUSH1 0x6 DUP2 MSTORE PUSH1 0x20 ADD PUSH32 0x6D6574686F640000000000000000000000000000000000000000000000000000 DUP2 MSTORE POP PUSH1 0x40 MLOAD DUP1 PUSH1 0x40 ADD PUSH1 0x40 MSTORE DUP1 PUSH1 0x3 DUP2 MSTORE PUSH1 0x20 ADD PUSH32 0x4745540000000000000000000000000000000000000000000000000000000000 DUP2 MSTORE POP DUP4 PUSH2 0xB5D SWAP1 SWAP3 SWAP2 SWAP1 PUSH4 0xFFFFFFFF AND JUMP JUMPDEST PUSH2 0x35A PUSH1 0x40 MLOAD DUP1 PUSH1 0x40 ADD PUSH1 0x40 MSTORE DUP1 PUSH1 0x3 DUP2 MSTORE PUSH1 0x20 ADD PUSH32 0x75726C0000000000000000000000000000000000000000000000000000000000 DUP2 MSTORE POP PUSH1 0x40 MLOAD DUP1 PUSH1 0x80 ADD PUSH1 0x40 MSTORE DUP1 PUSH1 0x4D DUP2 MSTORE PUSH1 0x20 ADD PUSH2 0x2492 PUSH1 0x4D SWAP2 CODECOPY DUP4 PUSH2 0xB5D SWAP1 SWAP3 SWAP2 SWAP1 PUSH4 0xFFFFFFFF AND JUMP JUMPDEST PUSH2 0x3BC PUSH1 0x40 MLOAD DUP1 PUSH1 0x40 ADD PUSH1 0x40 MSTORE DUP1 PUSH1 0x7 DUP2 MSTORE PUSH1 0x20 ADD PUSH32 0x6865616465727300000000000000000000000000000000000000000000000000 DUP2 MSTORE POP PUSH1 0x40 MLOAD DUP1 PUSH1 0x60 ADD PUSH1 0x40 MSTORE DUP1 PUSH1 0x3F DUP2 MSTORE PUSH1 0x20 ADD PUSH2 0x24DF PUSH1 0x3F SWAP2 CODECOPY DUP4 PUSH2 0xB5D SWAP1 SWAP3 SWAP2 SWAP1 PUSH4 0xFFFFFFFF AND JUMP JUMPDEST PUSH2 0x414 PUSH1 0x40 MLOAD DUP1 PUSH1 0x40 ADD PUSH1 0x40 MSTORE DUP1 PUSH1 0x4 DUP2 MSTORE PUSH1 0x20 ADD PUSH32 0x626F647900000000000000000000000000000000000000000000000000000000 DUP2 MSTORE POP PUSH1 0x40 MLOAD DUP1 PUSH1 0x20 ADD PUSH1 0x40 MSTORE DUP1 PUSH0 DUP2 MSTORE POP DUP4 PUSH2 0xB5D SWAP1 SWAP3 SWAP2 SWAP1 PUSH4 0xFFFFFFFF AND JUMP JUMPDEST PUSH2 0x46C PUSH1 0x40 MLOAD DUP1 PUSH1 0x40 ADD PUSH1 0x40 MSTORE DUP1 PUSH1 0x7 DUP2 MSTORE PUSH1 0x20 ADD PUSH32 0x636F6E7461637400000000000000000000000000000000000000000000000000 DUP2 MSTORE POP PUSH1 0x40 MLOAD DUP1 PUSH1 0x20 ADD PUSH1 0x40 MSTORE DUP1 PUSH0 DUP2 MSTORE POP DUP4 PUSH2 0xB5D SWAP1 SWAP3 SWAP2 SWAP1 PUSH4 0xFFFFFFFF AND JUMP JUMPDEST PUSH2 0x4EB PUSH1 0x40 MLOAD DUP1 PUSH1 0x40 ADD PUSH1 0x40 MSTORE DUP1 PUSH1 0x4 DUP2 MSTORE PUSH1 0x20 ADD PUSH32 0x7061746800000000000000000000000000000000000000000000000000000000 DUP2 MSTORE POP PUSH1 0x40 MLOAD DUP1 PUSH1 0x40 ADD PUSH1 0x40 MSTORE DUP1 PUSH1 0x7 DUP2 MSTORE PUSH1 0x20 ADD PUSH32 0x4554482C55534400000000000000000000000000000000000000000000000000 DUP2 MSTORE POP DUP4 PUSH2 0xB5D SWAP1 SWAP3 SWAP2 SWAP1 PUSH4 0xFFFFFFFF AND JUMP JUMPDEST PUSH2 0x53D PUSH1 0x40 MLOAD DUP1 PUSH1 0x40 ADD PUSH1 0x40 MSTORE DUP1 PUSH1 0xA DUP2 MSTORE PUSH1 0x20 ADD PUSH32 0x6D756C7469706C69657200000000000000000000000000000000000000000000 DUP2 MSTORE POP PUSH8 0xDE0B6B3A7640000 DUP4 PUSH2 0xB90 SWAP1 SWAP3 SWAP2 SWAP1 PUSH4 0xFFFFFFFF AND JUMP JUMPDEST PUSH2 0x549 DUP2 PUSH1 0xA SLOAD PUSH2 0xBC3 JUMP JUMPDEST POP POP JUMP JUMPDEST DUP2 PUSH1 0x5 PUSH0 DUP3 DUP2 MSTORE PUSH1 0x20 ADD SWAP1 DUP2 MSTORE PUSH1 0x20 ADD PUSH0 KECCAK256 PUSH0 SWAP1 SLOAD SWAP1 PUSH2 0x100 EXP SWAP1 DIV PUSH20 0xFFFFFFFFFFFFFFFFFFFFFFFFFFFFFFFFFFFFFFFF AND PUSH20 0xFFFFFFFFFFFFFFFFFFFFFFFFFFFFFFFFFFFFFFFF AND CALLER PUSH20 0xFFFFFFFFFFFFFFFFFFFFFFFFFFFFFFFFFFFFFFFF AND EQ PUSH2 0x5EC JUMPI PUSH1 0x40 MLOAD PUSH32 0x8C379A000000000000000000000000000000000000000000000000000000000 DUP2 MSTORE PUSH1 0x4 ADD PUSH2 0x5E3 SWAP1 PUSH2 0x1C05 JUMP JUMPDEST PUSH1 0x40 MLOAD DUP1 SWAP2 SUB SWAP1 REVERT JUMPDEST PUSH1 0x5 PUSH0 DUP3 DUP2 MSTORE PUSH1 0x20 ADD SWAP1 DUP2 MSTORE PUSH1 0x20 ADD PUSH0 KECCAK256 PUSH0 PUSH2 0x100 EXP DUP2 SLOAD SWAP1 PUSH20 0xFFFFFFFFFFFFFFFFFFFFFFFFFFFFFFFFFFFFFFFF MUL NOT AND SWAP1 SSTORE DUP1 PUSH32 0x7CC135E0CEBB02C3480AE5D74D377283180A2601F8F644EDF7987B009316C63A PUSH1 0x40 MLOAD PUSH1 0x40 MLOAD DUP1 SWAP2 SUB SWAP1 LOG2 DUP2 PUSH1 0xB DUP2 SWAP1 SSTORE POP POP POP POP JUMP JUMPDEST PUSH2 0x660 PUSH2 0xA9C JUMP JUMPDEST DUP1 PUSH1 0x8 PUSH0 PUSH2 0x100 EXP DUP2 SLOAD DUP2 PUSH20 0xFFFFFFFFFFFFFFFFFFFFFFFFFFFFFFFFFFFFFFFF MUL NOT AND SWAP1 DUP4 PUSH20 0xFFFFFFFFFFFFFFFFFFFFFFFFFFFFFFFFFFFFFFFF AND MUL OR SWAP1 SSTORE POP PUSH2 0x6A9 DUP2 PUSH2 0xBF8 JUMP JUMPDEST POP JUMP JUMPDEST PUSH0 PUSH2 0x6B5 PUSH2 0xA9C JUMP JUMPDEST PUSH8 0xDE0B6B3A7640000 PUSH1 0x64 PUSH1 0xA SLOAD PUSH2 0x6CD SWAP2 SWAP1 PUSH2 0x1C50 JUMP JUMPDEST PUSH2 0x6D7 SWAP2 SWAP1 PUSH2 0x1CBE JUMP JUMPDEST SWAP1 POP SWAP1 JUMP JUMPDEST PUSH1 0x7 PUSH0 SWAP1 SLOAD SWAP1 PUSH2 0x100 EXP SWAP1 DIV PUSH20 0xFFFFFFFFFFFFFFFFFFFFFFFFFFFFFFFFFFFFFFFF AND PUSH20 0xFFFFFFFFFFFFFFFFFFFFFFFFFFFFFFFFFFFFFFFF AND CALLER PUSH20 0xFFFFFFFFFFFFFFFFFFFFFFFFFFFFFFFFFFFFFFFF AND EQ PUSH2 0x76B JUMPI PUSH1 0x40 MLOAD PUSH32 0x8C379A000000000000000000000000000000000000000000000000000000000 DUP2 MSTORE PUSH1 0x4 ADD PUSH2 0x762 SWAP1 PUSH2 0x1D38 JUMP JUMPDEST PUSH1 0x40 MLOAD DUP1 SWAP2 SUB SWAP1 REVERT JUMPDEST PUSH0 PUSH1 0x6 PUSH0 SWAP1 SLOAD SWAP1 PUSH2 0x100 EXP SWAP1 DIV PUSH20 0xFFFFFFFFFFFFFFFFFFFFFFFFFFFFFFFFFFFFFFFF AND SWAP1 POP CALLER PUSH1 0x6 PUSH0 PUSH2 0x100 EXP DUP2 SLOAD DUP2 PUSH20 0xFFFFFFFFFFFFFFFFFFFFFFFFFFFFFFFFFFFFFFFF MUL NOT AND SWAP1 DUP4 PUSH20 0xFFFFFFFFFFFFFFFFFFFFFFFFFFFFFFFFFFFFFFFF AND MUL OR SWAP1 SSTORE POP PUSH0 PUSH1 0x7 PUSH0 PUSH2 0x100 EXP DUP2 SLOAD DUP2 PUSH20 0xFFFFFFFFFFFFFFFFFFFFFFFFFFFFFFFFFFFFFFFF MUL NOT AND SWAP1 DUP4 PUSH20 0xFFFFFFFFFFFFFFFFFFFFFFFFFFFFFFFFFFFFFFFF AND MUL OR SWAP1 SSTORE POP CALLER PUSH20 0xFFFFFFFFFFFFFFFFFFFFFFFFFFFFFFFFFFFFFFFF AND DUP2 PUSH20 0xFFFFFFFFFFFFFFFFFFFFFFFFFFFFFFFFFFFFFFFF AND PUSH32 0x8BE0079C531659141344CD1FD0A4F28419497F9722A3DAAFE3B4186F6B6457E0 PUSH1 0x40 MLOAD PUSH1 0x40 MLOAD DUP1 SWAP2 SUB SWAP1 LOG3 POP JUMP JUMPDEST PUSH1 0xB SLOAD DUP2 JUMP JUMPDEST PUSH0 PUSH1 0x6 PUSH0 SWAP1 SLOAD SWAP1 PUSH2 0x100 EXP SWAP1 DIV PUSH20 0xFFFFFFFFFFFFFFFFFFFFFFFFFFFFFFFFFFFFFFFF AND SWAP1 POP SWAP1 JUMP JUMPDEST PUSH2 0x8A3 PUSH2 0xA9C JUMP JUMPDEST PUSH0 PUSH2 0x8AC PUSH2 0xC3B JUMP JUMPDEST SWAP1 POP DUP1 PUSH20 0xFFFFFFFFFFFFFFFFFFFFFFFFFFFFFFFFFFFFFFFF AND PUSH4 0xA9059CBB CALLER DUP4 PUSH20 0xFFFFFFFFFFFFFFFFFFFFFFFFFFFFFFFFFFFFFFFF AND PUSH4 0x70A08231 ADDRESS PUSH1 0x40 MLOAD DUP3 PUSH4 0xFFFFFFFF AND PUSH1 0xE0 SHL DUP2 MSTORE PUSH1 0x4 ADD PUSH2 0x904 SWAP2 SWAP1 PUSH2 0x1A18 JUMP JUMPDEST PUSH1 0x20 PUSH1 0x40 MLOAD DUP1 DUP4 SUB DUP2 DUP7 GAS STATICCALL ISZERO DUP1 ISZERO PUSH2 0x91F JUMPI RETURNDATASIZE PUSH0 DUP1 RETURNDATACOPY RETURNDATASIZE PUSH0 REVERT JUMPDEST POP POP POP POP PUSH1 0x40 MLOAD RETURNDATASIZE PUSH1 0x1F NOT PUSH1 0x1F DUP3 ADD AND DUP3 ADD DUP1 PUSH1 0x40 MSTORE POP DUP2 ADD SWAP1 PUSH2 0x943 SWAP2 SWAP1 PUSH2 0x1D6A JUMP JUMPDEST PUSH1 0x40 MLOAD DUP4 PUSH4 0xFFFFFFFF AND PUSH1 0xE0 SHL DUP2 MSTORE PUSH1 0x4 ADD PUSH2 0x960 SWAP3 SWAP2 SWAP1 PUSH2 0x1D95 JUMP JUMPDEST PUSH1 0x20 PUSH1 0x40 MLOAD DUP1 DUP4 SUB DUP2 PUSH0 DUP8 GAS CALL ISZERO DUP1 ISZERO PUSH2 0x97C JUMPI RETURNDATASIZE PUSH0 DUP1 RETURNDATACOPY RETURNDATASIZE PUSH0 REVERT JUMPDEST POP POP POP POP PUSH1 0x40 MLOAD RETURNDATASIZE PUSH1 0x1F NOT PUSH1 0x1F DUP3 ADD AND DUP3 ADD DUP1 PUSH1 0x40 MSTORE POP DUP2 ADD SWAP1 PUSH2 0x9A0 SWAP2 SWAP1 PUSH2 0x1DF1 JUMP JUMPDEST PUSH2 0x9DF JUMPI PUSH1 0x40 MLOAD PUSH32 0x8C379A000000000000000000000000000000000000000000000000000000000 DUP2 MSTORE PUSH1 0x4 ADD PUSH2 0x9D6 SWAP1 PUSH2 0x1E66 JUMP JUMPDEST PUSH1 0x40 MLOAD DUP1 SWAP2 SUB SWAP1 REVERT JUMPDEST POP JUMP JUMPDEST PUSH1 0x60 PUSH2 0x9EC PUSH2 0xA9C JUMP JUMPDEST PUSH1 0x9 SLOAD PUSH1 0x40 MLOAD PUSH1 0x20 ADD PUSH2 0x9FF SWAP2 SWAP1 PUSH2 0x1EA4 JUMP JUMPDEST PUSH1 0x40 MLOAD PUSH1 0x20 DUP2 DUP4 SUB SUB DUP2 MSTORE SWAP1 PUSH1 0x40 MSTORE SWAP1 POP SWAP1 JUMP JUMPDEST PUSH0 PUSH2 0xA1C PUSH2 0xA9C JUMP JUMPDEST PUSH1 0x8 PUSH0 SWAP1 SLOAD SWAP1 PUSH2 0x100 EXP SWAP1 DIV PUSH20 0xFFFFFFFFFFFFFFFFFFFFFFFFFFFFFFFFFFFFFFFF AND SWAP1 POP SWAP1 JUMP JUMPDEST PUSH2 0xA4B PUSH2 0xA9C JUMP JUMPDEST DUP1 PUSH1 0xA DUP2 SWAP1 SSTORE POP POP JUMP JUMPDEST PUSH2 0xA5D PUSH2 0xA9C JUMP JUMPDEST PUSH2 0xA66 DUP2 PUSH2 0xC63 JUMP JUMPDEST POP JUMP JUMPDEST PUSH2 0xA71 PUSH2 0xA9C JUMP JUMPDEST PUSH2 0xA99 PUSH1 0x64 PUSH8 0xDE0B6B3A7640000 DUP4 PUSH2 0xA8A SWAP2 SWAP1 PUSH2 0x1C50 JUMP JUMPDEST PUSH2 0xA94 SWAP2 SWAP1 PUSH2 0x1CBE JUMP JUMPDEST PUSH2 0xA43 JUMP JUMPDEST POP JUMP JUMPDEST PUSH1 0x6 PUSH0 SWAP1 SLOAD SWAP1 PUSH2 0x100 EXP SWAP1 DIV PUSH20 0xFFFFFFFFFFFFFFFFFFFFFFFFFFFFFFFFFFFFFFFF AND PUSH20 0xFFFFFFFFFFFFFFFFFFFFFFFFFFFFFFFFFFFFFFFF AND CALLER PUSH20 0xFFFFFFFFFFFFFFFFFFFFFFFFFFFFFFFFFFFFFFFF AND EQ PUSH2 0xB2B JUMPI PUSH1 0x40 MLOAD PUSH32 0x8C379A000000000000000000000000000000000000000000000000000000000 DUP2 MSTORE PUSH1 0x4 ADD PUSH2 0xB22 SWAP1 PUSH2 0x1F08 JUMP JUMPDEST PUSH1 0x40 MLOAD DUP1 SWAP2 SUB SWAP1 REVERT JUMPDEST JUMP JUMPDEST PUSH2 0xB35 PUSH2 0x16A2 JUMP JUMPDEST PUSH2 0xB3D PUSH2 0x16A2 JUMP JUMPDEST PUSH2 0xB54 DUP5 ADDRESS DUP6 DUP5 PUSH2 0xD8F SWAP1 SWAP4 SWAP3 SWAP2 SWAP1 PUSH4 0xFFFFFFFF AND JUMP JUMPDEST SWAP2 POP POP SWAP3 SWAP2 POP POP JUMP JUMPDEST PUSH2 0xB74 DUP3 DUP5 PUSH1 0x80 ADD MLOAD PUSH2 0xE3E SWAP1 SWAP2 SWAP1 PUSH4 0xFFFFFFFF AND JUMP JUMPDEST PUSH2 0xB8B DUP2 DUP5 PUSH1 0x80 ADD MLOAD PUSH2 0xE3E SWAP1 SWAP2 SWAP1 PUSH4 0xFFFFFFFF AND JUMP JUMPDEST POP POP POP JUMP JUMPDEST PUSH2 0xBA7 DUP3 DUP5 PUSH1 0x80 ADD MLOAD PUSH2 0xE3E SWAP1 SWAP2 SWAP1 PUSH4 0xFFFFFFFF AND JUMP JUMPDEST PUSH2 0xBBE DUP2 DUP5 PUSH1 0x80 ADD MLOAD PUSH2 0xE63 SWAP1 SWAP2 SWAP1 PUSH4 0xFFFFFFFF AND JUMP JUMPDEST POP POP POP JUMP JUMPDEST PUSH0 PUSH2 0xBF0 PUSH1 0x3 PUSH0 SWAP1 SLOAD SWAP1 PUSH2 0x100 EXP SWAP1 DIV PUSH20 0xFFFFFFFFFFFFFFFFFFFFFFFFFFFFFFFFFFFFFFFF AND DUP5 DUP5 PUSH2 0xF0E JUMP JUMPDEST SWAP1 POP SWAP3 SWAP2 POP POP JUMP JUMPDEST DUP1 PUSH1 0x3 PUSH0 PUSH2 0x100 EXP DUP2 SLOAD DUP2 PUSH20 0xFFFFFFFFFFFFFFFFFFFFFFFFFFFFFFFFFFFFFFFF MUL NOT AND SWAP1 DUP4 PUSH20 0xFFFFFFFFFFFFFFFFFFFFFFFFFFFFFFFFFFFFFFFF AND MUL OR SWAP1 SSTORE POP POP JUMP JUMPDEST PUSH0 PUSH1 0x2 PUSH0 SWAP1 SLOAD SWAP1 PUSH2 0x100 EXP SWAP1 DIV PUSH20 0xFFFFFFFFFFFFFFFFFFFFFFFFFFFFFFFFFFFFFFFF AND SWAP1 POP SWAP1 JUMP JUMPDEST CALLER PUSH20 0xFFFFFFFFFFFFFFFFFFFFFFFFFFFFFFFFFFFFFFFF AND DUP2 PUSH20 0xFFFFFFFFFFFFFFFFFFFFFFFFFFFFFFFFFFFFFFFF AND SUB PUSH2 0xCD1 JUMPI PUSH1 0x40 MLOAD PUSH32 0x8C379A000000000000000000000000000000000000000000000000000000000 DUP2 MSTORE PUSH1 0x4 ADD PUSH2 0xCC8 SWAP1 PUSH2 0x1F70 JUMP JUMPDEST PUSH1 0x40 MLOAD DUP1 SWAP2 SUB SWAP1 REVERT JUMPDEST DUP1 PUSH1 0x7 PUSH0 PUSH2 0x100 EXP DUP2 SLOAD DUP2 PUSH20 0xFFFFFFFFFFFFFFFFFFFFFFFFFFFFFFFFFFFFFFFF MUL NOT AND SWAP1 DUP4 PUSH20 0xFFFFFFFFFFFFFFFFFFFFFFFFFFFFFFFFFFFFFFFF AND MUL OR SWAP1 SSTORE POP DUP1 PUSH20 0xFFFFFFFFFFFFFFFFFFFFFFFFFFFFFFFFFFFFFFFF AND PUSH1 0x6 PUSH0 SWAP1 SLOAD SWAP1 PUSH2 0x100 EXP SWAP1 DIV PUSH20 0xFFFFFFFFFFFFFFFFFFFFFFFFFFFFFFFFFFFFFFFF AND PUSH20 0xFFFFFFFFFFFFFFFFFFFFFFFFFFFFFFFFFFFFFFFF AND PUSH32 0xED8889F560326EB138920D842192F0EB3DD22B4F139C87A2C57538E05BAE1278 PUSH1 0x40 MLOAD PUSH1 0x40 MLOAD DUP1 SWAP2 SUB SWAP1 LOG3 POP JUMP JUMPDEST PUSH2 0xD97 PUSH2 0x16A2 JUMP JUMPDEST PUSH2 0xDA7 DUP6 PUSH1 0x80 ADD MLOAD PUSH2 0x100 PUSH2 0xFD3 JUMP JUMPDEST POP DUP4 DUP6 PUSH0 ADD DUP2 DUP2 MSTORE POP POP DUP3 DUP6 PUSH1 0x20 ADD SWAP1 PUSH20 0xFFFFFFFFFFFFFFFFFFFFFFFFFFFFFFFFFFFFFFFF AND SWAP1 DUP2 PUSH20 0xFFFFFFFFFFFFFFFFFFFFFFFFFFFFFFFFFFFFFFFF AND DUP2 MSTORE POP POP DUP2 DUP6 PUSH1 0x40 ADD SWAP1 PUSH28 0xFFFFFFFFFFFFFFFFFFFFFFFFFFFFFFFFFFFFFFFFFFFFFFFFFFFFFFFF NOT AND SWAP1 DUP2 PUSH28 0xFFFFFFFFFFFFFFFFFFFFFFFFFFFFFFFFFFFFFFFFFFFFFFFFFFFFFFFF NOT AND DUP2 MSTORE POP POP DUP5 SWAP1 POP SWAP5 SWAP4 POP POP POP POP JUMP JUMPDEST PUSH2 0xE4B DUP3 PUSH1 0x3 DUP4 MLOAD PUSH2 0x103B JUMP JUMPDEST PUSH2 0xE5E DUP2 DUP4 PUSH2 0x11C0 SWAP1 SWAP2 SWAP1 PUSH4 0xFFFFFFFF AND JUMP JUMPDEST POP POP POP JUMP JUMPDEST PUSH32 0xFFFFFFFFFFFFFFFFFFFFFFFFFFFFFFFFFFFFFFFFFFFFFFFF0000000000000000 DUP2 SLT ISZERO PUSH2 0xE9A JUMPI PUSH2 0xE95 DUP3 DUP3 PUSH2 0x11E1 JUMP JUMPDEST PUSH2 0xF0A JUMP JUMPDEST PUSH8 0xFFFFFFFFFFFFFFFF DUP2 SGT ISZERO PUSH2 0xEB9 JUMPI PUSH2 0xEB4 DUP3 DUP3 PUSH2 0x1258 JUMP JUMPDEST PUSH2 0xF09 JUMP JUMPDEST PUSH0 DUP2 SLT PUSH2 0xED0 JUMPI PUSH2 0xECB DUP3 PUSH0 DUP4 PUSH2 0x103B JUMP JUMPDEST PUSH2 0xF08 JUMP JUMPDEST PUSH2 0xF07 DUP3 PUSH1 0x1 DUP4 PUSH32 0xFFFFFFFFFFFFFFFFFFFFFFFFFFFFFFFFFFFFFFFFFFFFFFFFFFFFFFFFFFFFFFFF PUSH2 0xF02 SWAP2 SWAP1 PUSH2 0x1F97 JUMP JUMPDEST PUSH2 0x103B JUMP JUMPDEST JUMPDEST JUMPDEST JUMPDEST POP POP JUMP JUMPDEST PUSH0 DUP1 PUSH1 0x4 SLOAD SWAP1 POP PUSH1 0x1 DUP2 PUSH2 0xF22 SWAP2 SWAP1 PUSH2 0x1FD7 JUMP JUMPDEST PUSH1 0x4 DUP2 SWAP1 SSTORE POP PUSH0 PUSH4 0x3C6D41B9 PUSH1 0xE0 SHL PUSH0 DUP1 DUP8 PUSH0 ADD MLOAD DUP9 PUSH1 0x40 ADD MLOAD DUP7 PUSH1 0x2 DUP12 PUSH1 0x80 ADD MLOAD PUSH0 ADD MLOAD PUSH1 0x40 MLOAD PUSH1 0x24 ADD PUSH2 0xF5D SWAP8 SWAP7 SWAP6 SWAP5 SWAP4 SWAP3 SWAP2 SWAP1 PUSH2 0x209B JUMP JUMPDEST PUSH1 0x40 MLOAD PUSH1 0x20 DUP2 DUP4 SUB SUB DUP2 MSTORE SWAP1 PUSH1 0x40 MSTORE SWAP1 PUSH28 0xFFFFFFFFFFFFFFFFFFFFFFFFFFFFFFFFFFFFFFFFFFFFFFFFFFFFFFFF NOT AND PUSH1 0x20 DUP3 ADD DUP1 MLOAD PUSH28 0xFFFFFFFFFFFFFFFFFFFFFFFFFFFFFFFFFFFFFFFFFFFFFFFFFFFFFFFF DUP4 DUP2 DUP4 AND OR DUP4 MSTORE POP POP POP POP SWAP1 POP PUSH2 0xFC8 DUP7 DUP4 DUP7 DUP5 PUSH2 0x12A4 JUMP JUMPDEST SWAP3 POP POP POP SWAP4 SWAP3 POP POP POP JUMP JUMPDEST PUSH2 0xFDB PUSH2 0x170B JUMP JUMPDEST PUSH0 PUSH1 0x20 DUP4 PUSH2 0xFE9 SWAP2 SWAP1 PUSH2 0x210F JUMP JUMPDEST EQ PUSH2 0x1015 JUMPI PUSH1 0x20 DUP3 PUSH2 0xFFB SWAP2 SWAP1 PUSH2 0x210F JUMP JUMPDEST PUSH1 0x20 PUSH2 0x1007 SWAP2 SWAP1 PUSH2 0x213F JUMP JUMPDEST DUP3 PUSH2 0x1012 SWAP2 SWAP1 PUSH2 0x1FD7 JUMP JUMPDEST SWAP2 POP JUMPDEST DUP2 DUP4 PUSH1 0x20 ADD DUP2 DUP2 MSTORE POP POP PUSH1 0x40 MLOAD DUP1 DUP5 MSTORE PUSH0 DUP2 MSTORE DUP3 DUP2 ADD PUSH1 0x20 ADD PUSH1 0x40 MSTORE POP DUP3 SWAP1 POP SWAP3 SWAP2 POP POP JUMP JUMPDEST PUSH1 0x17 DUP2 PUSH8 0xFFFFFFFFFFFFFFFF AND GT PUSH2 0x1072 JUMPI PUSH2 0x106C DUP2 PUSH1 0x5 DUP5 PUSH1 0xFF AND SWAP1 SHL PUSH1 0xFF AND OR DUP5 PUSH2 0x1431 SWAP1 SWAP2 SWAP1 PUSH4 0xFFFFFFFF AND JUMP JUMPDEST POP PUSH2 0x11BB JUMP JUMPDEST PUSH1 0xFF DUP2 PUSH8 0xFFFFFFFFFFFFFFFF AND GT PUSH2 0x10C8 JUMPI PUSH2 0x10A1 PUSH1 0x18 PUSH1 0x5 DUP5 PUSH1 0xFF AND SWAP1 SHL OR DUP5 PUSH2 0x1431 SWAP1 SWAP2 SWAP1 PUSH4 0xFFFFFFFF AND JUMP JUMPDEST POP PUSH2 0x10C2 DUP2 PUSH8 0xFFFFFFFFFFFFFFFF AND PUSH1 0x1 DUP6 PUSH2 0x1450 SWAP1 SWAP3 SWAP2 SWAP1 PUSH4 0xFFFFFFFF AND JUMP JUMPDEST POP PUSH2 0x11BA JUMP JUMPDEST PUSH2 0xFFFF DUP2 PUSH8 0xFFFFFFFFFFFFFFFF AND GT PUSH2 0x111F JUMPI PUSH2 0x10F8 PUSH1 0x19 PUSH1 0x5 DUP5 PUSH1 0xFF AND SWAP1 SHL OR DUP5 PUSH2 0x1431 SWAP1 SWAP2 SWAP1 PUSH4 0xFFFFFFFF AND JUMP JUMPDEST POP PUSH2 0x1119 DUP2 PUSH8 0xFFFFFFFFFFFFFFFF AND PUSH1 0x2 DUP6 PUSH2 0x1450 SWAP1 SWAP3 SWAP2 SWAP1 PUSH4 0xFFFFFFFF AND JUMP JUMPDEST POP PUSH2 0x11B9 JUMP JUMPDEST PUSH4 0xFFFFFFFF DUP2 PUSH8 0xFFFFFFFFFFFFFFFF AND GT PUSH2 0x1178 JUMPI PUSH2 0x1151 PUSH1 0x1A PUSH1 0x5 DUP5 PUSH1 0xFF AND SWAP1 SHL OR DUP5 PUSH2 0x1431 SWAP1 SWAP2 SWAP1 PUSH4 0xFFFFFFFF AND JUMP JUMPDEST POP PUSH2 0x1172 DUP2 PUSH8 0xFFFFFFFFFFFFFFFF AND PUSH1 0x4 DUP6 PUSH2 0x1450 SWAP1 SWAP3 SWAP2 SWAP1 PUSH4 0xFFFFFFFF AND JUMP JUMPDEST POP PUSH2 0x11B8 JUMP JUMPDEST PUSH2 0x1195 PUSH1 0x1B PUSH1 0x5 DUP5 PUSH1 0xFF AND SWAP1 SHL OR DUP5 PUSH2 0x1431 SWAP1 SWAP2 SWAP1 PUSH4 0xFFFFFFFF AND JUMP JUMPDEST POP PUSH2 0x11B6 DUP2 PUSH8 0xFFFFFFFFFFFFFFFF AND PUSH1 0x8 DUP6 PUSH2 0x1450 SWAP1 SWAP3 SWAP2 SWAP1 PUSH4 0xFFFFFFFF AND JUMP JUMPDEST POP JUMPDEST JUMPDEST JUMPDEST JUMPDEST POP POP POP JUMP JUMPDEST PUSH2 0x11C8 PUSH2 0x170B JUMP JUMPDEST PUSH2 0x11D9 DUP4 DUP5 PUSH0 ADD MLOAD MLOAD DUP5 DUP6 MLOAD PUSH2 0x1471 JUMP JUMPDEST SWAP1 POP SWAP3 SWAP2 POP POP JUMP JUMPDEST PUSH2 0x11FF PUSH1 0x3 PUSH1 0x5 PUSH1 0x6 PUSH1 0xFF AND SWAP1 SHL OR DUP4 PUSH2 0x1431 SWAP1 SWAP2 SWAP1 PUSH4 0xFFFFFFFF AND JUMP JUMPDEST POP PUSH2 0x1254 DUP3 DUP3 PUSH32 0xFFFFFFFFFFFFFFFFFFFFFFFFFFFFFFFFFFFFFFFFFFFFFFFFFFFFFFFFFFFFFFFF PUSH2 0x1230 SWAP2 SWAP1 PUSH2 0x1F97 JUMP JUMPDEST PUSH1 0x40 MLOAD PUSH1 0x20 ADD PUSH2 0x1240 SWAP2 SWAP1 PUSH2 0x19F0 JUMP JUMPDEST PUSH1 0x40 MLOAD PUSH1 0x20 DUP2 DUP4 SUB SUB DUP2 MSTORE SWAP1 PUSH1 0x40 MSTORE PUSH2 0x155D JUMP JUMPDEST POP POP JUMP JUMPDEST PUSH2 0x1276 PUSH1 0x2 PUSH1 0x5 PUSH1 0x6 PUSH1 0xFF AND SWAP1 SHL OR DUP4 PUSH2 0x1431 SWAP1 SWAP2 SWAP1 PUSH4 0xFFFFFFFF AND JUMP JUMPDEST POP PUSH2 0x12A0 DUP3 DUP3 PUSH1 0x40 MLOAD PUSH1 0x20 ADD PUSH2 0x128C SWAP2 SWAP1 PUSH2 0x19F0 JUMP JUMPDEST PUSH1 0x40 MLOAD PUSH1 0x20 DUP2 DUP4 SUB SUB DUP2 MSTORE SWAP1 PUSH1 0x40 MSTORE PUSH2 0x155D JUMP JUMPDEST POP POP JUMP JUMPDEST PUSH0 ADDRESS DUP5 PUSH1 0x40 MLOAD PUSH1 0x20 ADD PUSH2 0x12B8 SWAP3 SWAP2 SWAP1 PUSH2 0x2223 JUMP JUMPDEST PUSH1 0x40 MLOAD PUSH1 0x20 DUP2 DUP4 SUB SUB DUP2 MSTORE SWAP1 PUSH1 0x40 MSTORE DUP1 MLOAD SWAP1 PUSH1 0x20 ADD KECCAK256 SWAP1 POP DUP5 PUSH1 0x5 PUSH0 DUP4 DUP2 MSTORE PUSH1 0x20 ADD SWAP1 DUP2 MSTORE PUSH1 0x20 ADD PUSH0 KECCAK256 PUSH0 PUSH2 0x100 EXP DUP2 SLOAD DUP2 PUSH20 0xFFFFFFFFFFFFFFFFFFFFFFFFFFFFFFFFFFFFFFFF MUL NOT AND SWAP1 DUP4 PUSH20 0xFFFFFFFFFFFFFFFFFFFFFFFFFFFFFFFFFFFFFFFF AND MUL OR SWAP1 SSTORE POP DUP1 PUSH32 0xB5E6E01E79F91267DC17B4E6314D5D4D03593D2CEEE0FBB452B750BD70EA5AF9 PUSH1 0x40 MLOAD PUSH1 0x40 MLOAD DUP1 SWAP2 SUB SWAP1 LOG2 PUSH1 0x2 PUSH0 SWAP1 SLOAD SWAP1 PUSH2 0x100 EXP SWAP1 DIV PUSH20 0xFFFFFFFFFFFFFFFFFFFFFFFFFFFFFFFFFFFFFFFF AND PUSH20 0xFFFFFFFFFFFFFFFFFFFFFFFFFFFFFFFFFFFFFFFF AND PUSH4 0x4000AEA0 DUP7 DUP6 DUP6 PUSH1 0x40 MLOAD DUP5 PUSH4 0xFFFFFFFF AND PUSH1 0xE0 SHL DUP2 MSTORE PUSH1 0x4 ADD PUSH2 0x13AA SWAP4 SWAP3 SWAP2 SWAP1 PUSH2 0x224E JUMP JUMPDEST PUSH1 0x20 PUSH1 0x40 MLOAD DUP1 DUP4 SUB DUP2 PUSH0 DUP8 GAS CALL ISZERO DUP1 ISZERO PUSH2 0x13C6 JUMPI RETURNDATASIZE PUSH0 DUP1 RETURNDATACOPY RETURNDATASIZE PUSH0 REVERT JUMPDEST POP POP POP POP PUSH1 0x40 MLOAD RETURNDATASIZE PUSH1 0x1F NOT PUSH1 0x1F DUP3 ADD AND DUP3 ADD DUP1 PUSH1 0x40 MSTORE POP DUP2 ADD SWAP1 PUSH2 0x13EA SWAP2 SWAP1 PUSH2 0x1DF1 JUMP JUMPDEST PUSH2 0x1429 JUMPI PUSH1 0x40 MLOAD PUSH32 0x8C379A000000000000000000000000000000000000000000000000000000000 DUP2 MSTORE PUSH1 0x4 ADD PUSH2 0x1420 SWAP1 PUSH2 0x22FA JUMP JUMPDEST PUSH1 0x40 MLOAD DUP1 SWAP2 SUB SWAP1 REVERT JUMPDEST SWAP5 SWAP4 POP POP POP POP JUMP JUMPDEST PUSH2 0x1439 PUSH2 0x170B JUMP JUMPDEST PUSH2 0x1448 DUP4 DUP5 PUSH0 ADD MLOAD MLOAD DUP5 PUSH2 0x1582 JUMP JUMPDEST SWAP1 POP SWAP3 SWAP2 POP POP JUMP JUMPDEST PUSH2 0x1458 PUSH2 0x170B JUMP JUMPDEST PUSH2 0x1468 DUP5 DUP6 PUSH0 ADD MLOAD MLOAD DUP6 DUP6 PUSH2 0x15D8 JUMP JUMPDEST SWAP1 POP SWAP4 SWAP3 POP POP POP JUMP JUMPDEST PUSH2 0x1479 PUSH2 0x170B JUMP JUMPDEST DUP3 MLOAD DUP3 GT ISZERO PUSH2 0x1486 JUMPI PUSH0 DUP1 REVERT JUMPDEST DUP5 PUSH1 0x20 ADD MLOAD DUP3 DUP6 PUSH2 0x1497 SWAP2 SWAP1 PUSH2 0x1FD7 JUMP JUMPDEST GT ISZERO PUSH2 0x14CC JUMPI PUSH2 0x14CB DUP6 PUSH1 0x2 PUSH2 0x14BC DUP9 PUSH1 0x20 ADD MLOAD DUP9 DUP8 PUSH2 0x14B7 SWAP2 SWAP1 PUSH2 0x1FD7 JUMP JUMPDEST PUSH2 0x1665 JUMP JUMPDEST PUSH2 0x14C6 SWAP2 SWAP1 PUSH2 0x1C50 JUMP JUMPDEST PUSH2 0x1680 JUMP JUMPDEST JUMPDEST PUSH0 DUP1 DUP7 MLOAD DUP1 MLOAD DUP8 PUSH1 0x20 DUP4 ADD ADD SWAP4 POP DUP1 DUP9 DUP8 ADD GT ISZERO PUSH2 0x14EA JUMPI DUP8 DUP7 ADD DUP3 MSTORE JUMPDEST PUSH1 0x20 DUP8 ADD SWAP3 POP POP POP JUMPDEST PUSH1 0x20 DUP5 LT PUSH2 0x1531 JUMPI DUP1 MLOAD DUP3 MSTORE PUSH1 0x20 DUP3 PUSH2 0x150C SWAP2 SWAP1 PUSH2 0x1FD7 JUMP JUMPDEST SWAP2 POP PUSH1 0x20 DUP2 PUSH2 0x151B SWAP2 SWAP1 PUSH2 0x1FD7 JUMP JUMPDEST SWAP1 POP PUSH1 0x20 DUP5 PUSH2 0x152A SWAP2 SWAP1 PUSH2 0x213F JUMP JUMPDEST SWAP4 POP PUSH2 0x14F3 JUMP JUMPDEST PUSH0 PUSH1 0x1 DUP6 PUSH1 0x20 SUB PUSH2 0x100 EXP SUB SWAP1 POP DUP1 NOT DUP3 MLOAD AND DUP2 DUP5 MLOAD AND DUP2 DUP2 OR DUP6 MSTORE POP POP POP DUP7 SWAP3 POP POP POP SWAP5 SWAP4 POP POP POP POP JUMP JUMPDEST PUSH2 0x156A DUP3 PUSH1 0x2 DUP4 MLOAD PUSH2 0x103B JUMP JUMPDEST PUSH2 0x157D DUP2 DUP4 PUSH2 0x11C0 SWAP1 SWAP2 SWAP1 PUSH4 0xFFFFFFFF AND JUMP JUMPDEST POP POP POP JUMP JUMPDEST PUSH2 0x158A PUSH2 0x170B JUMP JUMPDEST DUP4 PUSH1 0x20 ADD MLOAD DUP4 LT PUSH2 0x15B0 JUMPI PUSH2 0x15AF DUP5 PUSH1 0x2 DUP7 PUSH1 0x20 ADD MLOAD PUSH2 0x15AA SWAP2 SWAP1 PUSH2 0x1C50 JUMP JUMPDEST PUSH2 0x1680 JUMP JUMPDEST JUMPDEST DUP4 MLOAD DUP1 MLOAD PUSH1 0x20 DUP6 DUP4 ADD ADD DUP5 DUP2 MSTORE8 DUP2 DUP7 SUB PUSH2 0x15CB JUMPI PUSH1 0x1 DUP3 ADD DUP4 MSTORE JUMPDEST POP POP POP DUP4 SWAP1 POP SWAP4 SWAP3 POP POP POP JUMP JUMPDEST PUSH2 0x15E0 PUSH2 0x170B JUMP JUMPDEST DUP5 PUSH1 0x20 ADD MLOAD DUP5 DUP4 PUSH2 0x15F1 SWAP2 SWAP1 PUSH2 0x1FD7 JUMP JUMPDEST GT ISZERO PUSH2 0x1619 JUMPI PUSH2 0x1618 DUP6 PUSH1 0x2 DUP7 DUP6 PUSH2 0x1609 SWAP2 SWAP1 PUSH2 0x1FD7 JUMP JUMPDEST PUSH2 0x1613 SWAP2 SWAP1 PUSH2 0x1C50 JUMP JUMPDEST PUSH2 0x1680 JUMP JUMPDEST JUMPDEST PUSH0 PUSH1 0x1 DUP4 PUSH2 0x100 PUSH2 0x162A SWAP2 SWAP1 PUSH2 0x2447 JUMP JUMPDEST PUSH2 0x1634 SWAP2 SWAP1 PUSH2 0x213F JUMP JUMPDEST SWAP1 POP DUP6 MLOAD DUP4 DUP7 DUP3 ADD ADD DUP6 DUP4 NOT DUP3 MLOAD AND OR DUP2 MSTORE DUP2 MLOAD DUP6 DUP9 ADD GT ISZERO PUSH2 0x1657 JUMPI DUP5 DUP8 ADD DUP3 MSTORE JUMPDEST POP POP DUP6 SWAP2 POP POP SWAP5 SWAP4 POP POP POP POP JUMP JUMPDEST PUSH0 DUP2 DUP4 GT ISZERO PUSH2 0x1676 JUMPI DUP3 SWAP1 POP PUSH2 0x167A JUMP JUMPDEST DUP2 SWAP1 POP JUMPDEST SWAP3 SWAP2 POP POP JUMP JUMPDEST PUSH0 DUP3 PUSH0 ADD MLOAD SWAP1 POP PUSH2 0x1691 DUP4 DUP4 PUSH2 0xFD3 JUMP JUMPDEST POP PUSH2 0x169C DUP4 DUP3 PUSH2 0x11C0 JUMP JUMPDEST POP POP POP POP JUMP JUMPDEST PUSH1 0x40 MLOAD DUP1 PUSH1 0xA0 ADD PUSH1 0x40 MSTORE DUP1 PUSH0 DUP1 NOT AND DUP2 MSTORE PUSH1 0x20 ADD PUSH0 PUSH20 0xFFFFFFFFFFFFFFFFFFFFFFFFFFFFFFFFFFFFFFFF AND DUP2 MSTORE PUSH1 0x20 ADD PUSH0 PUSH28 0xFFFFFFFFFFFFFFFFFFFFFFFFFFFFFFFFFFFFFFFFFFFFFFFFFFFFFFFF NOT AND DUP2 MSTORE PUSH1 0x20 ADD PUSH0 DUP2 MSTORE PUSH1 0x20 ADD PUSH2 0x1705 PUSH2 0x170B JUMP JUMPDEST DUP2 MSTORE POP SWAP1 JUMP JUMPDEST PUSH1 0x40 MLOAD DUP1 PUSH1 0x40 ADD PUSH1 0x40 MSTORE DUP1 PUSH1 0x60 DUP2 MSTORE PUSH1 0x20 ADD PUSH0 DUP2 MSTORE POP SWAP1 JUMP JUMPDEST PUSH0 PUSH1 0x40 MLOAD SWAP1 POP SWAP1 JUMP JUMPDEST PUSH0 DUP1 REVERT JUMPDEST PUSH0 DUP1 REVERT JUMPDEST PUSH0 DUP1 REVERT JUMPDEST PUSH0 DUP1 REVERT JUMPDEST PUSH0 PUSH1 0x1F NOT PUSH1 0x1F DUP4 ADD AND SWAP1 POP SWAP2 SWAP1 POP JUMP JUMPDEST PUSH32 0x4E487B7100000000000000000000000000000000000000000000000000000000 PUSH0 MSTORE PUSH1 0x41 PUSH1 0x4 MSTORE PUSH1 0x24 PUSH0 REVERT JUMPDEST PUSH2 0x1783 DUP3 PUSH2 0x173D JUMP JUMPDEST DUP2 ADD DUP2 DUP2 LT PUSH8 0xFFFFFFFFFFFFFFFF DUP3 GT OR ISZERO PUSH2 0x17A2 JUMPI PUSH2 0x17A1 PUSH2 0x174D JUMP JUMPDEST JUMPDEST DUP1 PUSH1 0x40 MSTORE POP POP POP JUMP JUMPDEST PUSH0 PUSH2 0x17B4 PUSH2 0x1724 JUMP JUMPDEST SWAP1 POP PUSH2 0x17C0 DUP3 DUP3 PUSH2 0x177A JUMP JUMPDEST SWAP2 SWAP1 POP JUMP JUMPDEST PUSH0 PUSH8 0xFFFFFFFFFFFFFFFF DUP3 GT ISZERO PUSH2 0x17DF JUMPI PUSH2 0x17DE PUSH2 0x174D JUMP JUMPDEST JUMPDEST PUSH2 0x17E8 DUP3 PUSH2 0x173D JUMP JUMPDEST SWAP1 POP PUSH1 0x20 DUP2 ADD SWAP1 POP SWAP2 SWAP1 POP JUMP JUMPDEST DUP3 DUP2 DUP4 CALLDATACOPY PUSH0 DUP4 DUP4 ADD MSTORE POP POP POP JUMP JUMPDEST PUSH0 PUSH2 0x1815 PUSH2 0x1810 DUP5 PUSH2 0x17C5 JUMP JUMPDEST PUSH2 0x17AB JUMP JUMPDEST SWAP1 POP DUP3 DUP2 MSTORE PUSH1 0x20 DUP2 ADD DUP5 DUP5 DUP5 ADD GT ISZERO PUSH2 0x1831 JUMPI PUSH2 0x1830 PUSH2 0x1739 JUMP JUMPDEST JUMPDEST PUSH2 0x183C DUP5 DUP3 DUP6 PUSH2 0x17F5 JUMP JUMPDEST POP SWAP4 SWAP3 POP POP POP JUMP JUMPDEST PUSH0 DUP3 PUSH1 0x1F DUP4 ADD SLT PUSH2 0x1858 JUMPI PUSH2 0x1857 PUSH2 0x1735 JUMP JUMPDEST JUMPDEST DUP2 CALLDATALOAD PUSH2 0x1868 DUP5 DUP3 PUSH1 0x20 DUP7 ADD PUSH2 0x1803 JUMP JUMPDEST SWAP2 POP POP SWAP3 SWAP2 POP POP JUMP JUMPDEST PUSH0 PUSH1 0x20 DUP3 DUP5 SUB SLT ISZERO PUSH2 0x1886 JUMPI PUSH2 0x1885 PUSH2 0x172D JUMP JUMPDEST JUMPDEST PUSH0 DUP3 ADD CALLDATALOAD PUSH8 0xFFFFFFFFFFFFFFFF DUP2 GT ISZERO PUSH2 0x18A3 JUMPI PUSH2 0x18A2 PUSH2 0x1731 JUMP JUMPDEST JUMPDEST PUSH2 0x18AF DUP5 DUP3 DUP6 ADD PUSH2 0x1844 JUMP JUMPDEST SWAP2 POP POP SWAP3 SWAP2 POP POP JUMP JUMPDEST PUSH0 DUP2 SWAP1 POP SWAP2 SWAP1 POP JUMP JUMPDEST PUSH2 0x18CA DUP2 PUSH2 0x18B8 JUMP JUMPDEST DUP2 EQ PUSH2 0x18D4 JUMPI PUSH0 DUP1 REVERT JUMPDEST POP JUMP JUMPDEST PUSH0 DUP2 CALLDATALOAD SWAP1 POP PUSH2 0x18E5 DUP2 PUSH2 0x18C1 JUMP JUMPDEST SWAP3 SWAP2 POP POP JUMP JUMPDEST PUSH0 DUP2 SWAP1 POP SWAP2 SWAP1 POP JUMP JUMPDEST PUSH2 0x18FD DUP2 PUSH2 0x18EB JUMP JUMPDEST DUP2 EQ PUSH2 0x1907 JUMPI PUSH0 DUP1 REVERT JUMPDEST POP JUMP JUMPDEST PUSH0 DUP2 CALLDATALOAD SWAP1 POP PUSH2 0x1918 DUP2 PUSH2 0x18F4 JUMP JUMPDEST SWAP3 SWAP2 POP POP JUMP JUMPDEST PUSH0 DUP1 PUSH1 0x40 DUP4 DUP6 SUB SLT ISZERO PUSH2 0x1934 JUMPI PUSH2 0x1933 PUSH2 0x172D JUMP JUMPDEST JUMPDEST PUSH0 PUSH2 0x1941 DUP6 DUP3 DUP7 ADD PUSH2 0x18D7 JUMP JUMPDEST SWAP3 POP POP PUSH1 0x20 PUSH2 0x1952 DUP6 DUP3 DUP7 ADD PUSH2 0x190A JUMP JUMPDEST SWAP2 POP POP SWAP3 POP SWAP3 SWAP1 POP JUMP JUMPDEST PUSH0 PUSH20 0xFFFFFFFFFFFFFFFFFFFFFFFFFFFFFFFFFFFFFFFF DUP3 AND SWAP1 POP SWAP2 SWAP1 POP JUMP JUMPDEST PUSH0 PUSH2 0x1985 DUP3 PUSH2 0x195C JUMP JUMPDEST SWAP1 POP SWAP2 SWAP1 POP JUMP JUMPDEST PUSH2 0x1995 DUP2 PUSH2 0x197B JUMP JUMPDEST DUP2 EQ PUSH2 0x199F JUMPI PUSH0 DUP1 REVERT JUMPDEST POP JUMP JUMPDEST PUSH0 DUP2 CALLDATALOAD SWAP1 POP PUSH2 0x19B0 DUP2 PUSH2 0x198C JUMP JUMPDEST SWAP3 SWAP2 POP POP JUMP JUMPDEST PUSH0 PUSH1 0x20 DUP3 DUP5 SUB SLT ISZERO PUSH2 0x19CB JUMPI PUSH2 0x19CA PUSH2 0x172D JUMP JUMPDEST JUMPDEST PUSH0 PUSH2 0x19D8 DUP5 DUP3 DUP6 ADD PUSH2 0x19A2 JUMP JUMPDEST SWAP2 POP POP SWAP3 SWAP2 POP POP JUMP JUMPDEST PUSH2 0x19EA DUP2 PUSH2 0x18EB JUMP JUMPDEST DUP3 MSTORE POP POP JUMP JUMPDEST PUSH0 PUSH1 0x20 DUP3 ADD SWAP1 POP PUSH2 0x1A03 PUSH0 DUP4 ADD DUP5 PUSH2 0x19E1 JUMP JUMPDEST SWAP3 SWAP2 POP POP JUMP JUMPDEST PUSH2 0x1A12 DUP2 PUSH2 0x197B JUMP JUMPDEST DUP3 MSTORE POP POP JUMP JUMPDEST PUSH0 PUSH1 0x20 DUP3 ADD SWAP1 POP PUSH2 0x1A2B PUSH0 DUP4 ADD DUP5 PUSH2 0x1A09 JUMP JUMPDEST SWAP3 SWAP2 POP POP JUMP JUMPDEST PUSH0 DUP2 MLOAD SWAP1 POP SWAP2 SWAP1 POP JUMP JUMPDEST PUSH0 DUP3 DUP3 MSTORE PUSH1 0x20 DUP3 ADD SWAP1 POP SWAP3 SWAP2 POP POP JUMP JUMPDEST PUSH0 JUMPDEST DUP4 DUP2 LT ISZERO PUSH2 0x1A68 JUMPI DUP1 DUP3 ADD MLOAD DUP2 DUP5 ADD MSTORE PUSH1 0x20 DUP2 ADD SWAP1 POP PUSH2 0x1A4D JUMP JUMPDEST PUSH0 DUP5 DUP5 ADD MSTORE POP POP POP POP JUMP JUMPDEST PUSH0 PUSH2 0x1A7D DUP3 PUSH2 0x1A31 JUMP JUMPDEST PUSH2 0x1A87 DUP2 DUP6 PUSH2 0x1A3B JUMP JUMPDEST SWAP4 POP PUSH2 0x1A97 DUP2 DUP6 PUSH1 0x20 DUP7 ADD PUSH2 0x1A4B JUMP JUMPDEST PUSH2 0x1AA0 DUP2 PUSH2 0x173D JUMP JUMPDEST DUP5 ADD SWAP2 POP POP SWAP3 SWAP2 POP POP JUMP JUMPDEST PUSH0 PUSH1 0x20 DUP3 ADD SWAP1 POP DUP2 DUP2 SUB PUSH0 DUP4 ADD MSTORE PUSH2 0x1AC3 DUP2 DUP5 PUSH2 0x1A73 JUMP JUMPDEST SWAP1 POP SWAP3 SWAP2 POP POP JUMP JUMPDEST PUSH0 PUSH1 0x20 DUP3 DUP5 SUB SLT ISZERO PUSH2 0x1AE0 JUMPI PUSH2 0x1ADF PUSH2 0x172D JUMP JUMPDEST JUMPDEST PUSH0 PUSH2 0x1AED DUP5 DUP3 DUP6 ADD PUSH2 0x190A JUMP JUMPDEST SWAP2 POP POP SWAP3 SWAP2 POP POP JUMP JUMPDEST PUSH0 DUP2 MLOAD SWAP1 POP SWAP2 SWAP1 POP JUMP JUMPDEST PUSH0 DUP2 SWAP1 POP PUSH1 0x20 DUP3 ADD SWAP1 POP SWAP2 SWAP1 POP JUMP JUMPDEST PUSH0 PUSH2 0x1B1A DUP3 MLOAD PUSH2 0x18B8 JUMP JUMPDEST DUP1 SWAP2 POP POP SWAP2 SWAP1 POP JUMP JUMPDEST PUSH0 DUP3 DUP3 SHL SWAP1 POP SWAP3 SWAP2 POP POP JUMP JUMPDEST PUSH0 PUSH2 0x1B39 DUP3 PUSH2 0x1AF6 JUMP JUMPDEST DUP3 PUSH2 0x1B43 DUP5 PUSH2 0x1B00 JUMP JUMPDEST SWAP1 POP PUSH2 0x1B4E DUP2 PUSH2 0x1B0F JUMP JUMPDEST SWAP3 POP PUSH1 0x20 DUP3 LT ISZERO PUSH2 0x1B8E JUMPI PUSH2 0x1B89 PUSH32 0xFFFFFFFFFFFFFFFFFFFFFFFFFFFFFFFFFFFFFFFFFFFFFFFFFFFFFFFFFFFFFFFF DUP4 PUSH1 0x20 SUB PUSH1 0x8 MUL PUSH2 0x1B23 JUMP JUMPDEST DUP4 AND SWAP3 POP JUMPDEST POP POP SWAP2 SWAP1 POP JUMP JUMPDEST PUSH32 0x536F75726365206D75737420626520746865206F7261636C65206F6620746865 PUSH0 DUP3 ADD MSTORE PUSH32 0x2072657175657374000000000000000000000000000000000000000000000000 PUSH1 0x20 DUP3 ADD MSTORE POP JUMP JUMPDEST PUSH0 PUSH2 0x1BEF PUSH1 0x28 DUP4 PUSH2 0x1A3B JUMP JUMPDEST SWAP2 POP PUSH2 0x1BFA DUP3 PUSH2 0x1B95 JUMP JUMPDEST PUSH1 0x40 DUP3 ADD SWAP1 POP SWAP2 SWAP1 POP JUMP JUMPDEST PUSH0 PUSH1 0x20 DUP3 ADD SWAP1 POP DUP2 DUP2 SUB PUSH0 DUP4 ADD MSTORE PUSH2 0x1C1C DUP2 PUSH2 0x1BE3 JUMP JUMPDEST SWAP1 POP SWAP2 SWAP1 POP JUMP JUMPDEST PUSH32 0x4E487B7100000000000000000000000000000000000000000000000000000000 PUSH0 MSTORE PUSH1 0x11 PUSH1 0x4 MSTORE PUSH1 0x24 PUSH0 REVERT JUMPDEST PUSH0 PUSH2 0x1C5A DUP3 PUSH2 0x18EB JUMP JUMPDEST SWAP2 POP PUSH2 0x1C65 DUP4 PUSH2 0x18EB JUMP JUMPDEST SWAP3 POP DUP3 DUP3 MUL PUSH2 0x1C73 DUP2 PUSH2 0x18EB JUMP JUMPDEST SWAP2 POP DUP3 DUP3 DIV DUP5 EQ DUP4 ISZERO OR PUSH2 0x1C8A JUMPI PUSH2 0x1C89 PUSH2 0x1C23 JUMP JUMPDEST JUMPDEST POP SWAP3 SWAP2 POP POP JUMP JUMPDEST PUSH32 0x4E487B7100000000000000000000000000000000000000000000000000000000 PUSH0 MSTORE PUSH1 0x12 PUSH1 0x4 MSTORE PUSH1 0x24 PUSH0 REVERT JUMPDEST PUSH0 PUSH2 0x1CC8 DUP3 PUSH2 0x18EB JUMP JUMPDEST SWAP2 POP PUSH2 0x1CD3 DUP4 PUSH2 0x18EB JUMP JUMPDEST SWAP3 POP DUP3 PUSH2 0x1CE3 JUMPI PUSH2 0x1CE2 PUSH2 0x1C91 JUMP JUMPDEST JUMPDEST DUP3 DUP3 DIV SWAP1 POP SWAP3 SWAP2 POP POP JUMP JUMPDEST PUSH32 0x4D7573742062652070726F706F736564206F776E657200000000000000000000 PUSH0 DUP3 ADD MSTORE POP JUMP JUMPDEST PUSH0 PUSH2 0x1D22 PUSH1 0x16 DUP4 PUSH2 0x1A3B JUMP JUMPDEST SWAP2 POP PUSH2 0x1D2D DUP3 PUSH2 0x1CEE JUMP JUMPDEST PUSH1 0x20 DUP3 ADD SWAP1 POP SWAP2 SWAP1 POP JUMP JUMPDEST PUSH0 PUSH1 0x20 DUP3 ADD SWAP1 POP DUP2 DUP2 SUB PUSH0 DUP4 ADD MSTORE PUSH2 0x1D4F DUP2 PUSH2 0x1D16 JUMP JUMPDEST SWAP1 POP SWAP2 SWAP1 POP JUMP JUMPDEST PUSH0 DUP2 MLOAD SWAP1 POP PUSH2 0x1D64 DUP2 PUSH2 0x18F4 JUMP JUMPDEST SWAP3 SWAP2 POP POP JUMP JUMPDEST PUSH0 PUSH1 0x20 DUP3 DUP5 SUB SLT ISZERO PUSH2 0x1D7F JUMPI PUSH2 0x1D7E PUSH2 0x172D JUMP JUMPDEST JUMPDEST PUSH0 PUSH2 0x1D8C DUP5 DUP3 DUP6 ADD PUSH2 0x1D56 JUMP JUMPDEST SWAP2 POP POP SWAP3 SWAP2 POP POP JUMP JUMPDEST PUSH0 PUSH1 0x40 DUP3 ADD SWAP1 POP PUSH2 0x1DA8 PUSH0 DUP4 ADD DUP6 PUSH2 0x1A09 JUMP JUMPDEST PUSH2 0x1DB5 PUSH1 0x20 DUP4 ADD DUP5 PUSH2 0x19E1 JUMP JUMPDEST SWAP4 SWAP3 POP POP POP JUMP JUMPDEST PUSH0 DUP2 ISZERO ISZERO SWAP1 POP SWAP2 SWAP1 POP JUMP JUMPDEST PUSH2 0x1DD0 DUP2 PUSH2 0x1DBC JUMP JUMPDEST DUP2 EQ PUSH2 0x1DDA JUMPI PUSH0 DUP1 REVERT JUMPDEST POP JUMP JUMPDEST PUSH0 DUP2 MLOAD SWAP1 POP PUSH2 0x1DEB DUP2 PUSH2 0x1DC7 JUMP JUMPDEST SWAP3 SWAP2 POP POP JUMP JUMPDEST PUSH0 PUSH1 0x20 DUP3 DUP5 SUB SLT ISZERO PUSH2 0x1E06 JUMPI PUSH2 0x1E05 PUSH2 0x172D JUMP JUMPDEST JUMPDEST PUSH0 PUSH2 0x1E13 DUP5 DUP3 DUP6 ADD PUSH2 0x1DDD JUMP JUMPDEST SWAP2 POP POP SWAP3 SWAP2 POP POP JUMP JUMPDEST PUSH32 0x556E61626C6520746F207472616E736665720000000000000000000000000000 PUSH0 DUP3 ADD MSTORE POP JUMP JUMPDEST PUSH0 PUSH2 0x1E50 PUSH1 0x12 DUP4 PUSH2 0x1A3B JUMP JUMPDEST SWAP2 POP PUSH2 0x1E5B DUP3 PUSH2 0x1E1C JUMP JUMPDEST PUSH1 0x20 DUP3 ADD SWAP1 POP SWAP2 SWAP1 POP JUMP JUMPDEST PUSH0 PUSH1 0x20 DUP3 ADD SWAP1 POP DUP2 DUP2 SUB PUSH0 DUP4 ADD MSTORE PUSH2 0x1E7D DUP2 PUSH2 0x1E44 JUMP JUMPDEST SWAP1 POP SWAP2 SWAP1 POP JUMP JUMPDEST PUSH0 DUP2 SWAP1 POP SWAP2 SWAP1 POP JUMP JUMPDEST PUSH2 0x1E9E PUSH2 0x1E99 DUP3 PUSH2 0x18B8 JUMP JUMPDEST PUSH2 0x1E84 JUMP JUMPDEST DUP3 MSTORE POP POP JUMP JUMPDEST PUSH0 PUSH2 0x1EAF DUP3 DUP5 PUSH2 0x1E8D JUMP JUMPDEST PUSH1 0x20 DUP3 ADD SWAP2 POP DUP2 SWAP1 POP SWAP3 SWAP2 POP POP JUMP JUMPDEST PUSH32 0x4F6E6C792063616C6C61626C65206279206F776E657200000000000000000000 PUSH0 DUP3 ADD MSTORE POP JUMP JUMPDEST PUSH0 PUSH2 0x1EF2 PUSH1 0x16 DUP4 PUSH2 0x1A3B JUMP JUMPDEST SWAP2 POP PUSH2 0x1EFD DUP3 PUSH2 0x1EBE JUMP JUMPDEST PUSH1 0x20 DUP3 ADD SWAP1 POP SWAP2 SWAP1 POP JUMP JUMPDEST PUSH0 PUSH1 0x20 DUP3 ADD SWAP1 POP DUP2 DUP2 SUB PUSH0 DUP4 ADD MSTORE PUSH2 0x1F1F DUP2 PUSH2 0x1EE6 JUMP JUMPDEST SWAP1 POP SWAP2 SWAP1 POP JUMP JUMPDEST PUSH32 0x43616E6E6F74207472616E7366657220746F2073656C66000000000000000000 PUSH0 DUP3 ADD MSTORE POP JUMP JUMPDEST PUSH0 PUSH2 0x1F5A PUSH1 0x17 DUP4 PUSH2 0x1A3B JUMP JUMPDEST SWAP2 POP PUSH2 0x1F65 DUP3 PUSH2 0x1F26 JUMP JUMPDEST PUSH1 0x20 DUP3 ADD SWAP1 POP SWAP2 SWAP1 POP JUMP JUMPDEST PUSH0 PUSH1 0x20 DUP3 ADD SWAP1 POP DUP2 DUP2 SUB PUSH0 DUP4 ADD MSTORE PUSH2 0x1F87 DUP2 PUSH2 0x1F4E JUMP JUMPDEST SWAP1 POP SWAP2 SWAP1 POP JUMP JUMPDEST PUSH0 DUP2 SWAP1 POP SWAP2 SWAP1 POP JUMP JUMPDEST PUSH0 PUSH2 0x1FA1 DUP3 PUSH2 0x1F8E JUMP JUMPDEST SWAP2 POP PUSH2 0x1FAC DUP4 PUSH2 0x1F8E JUMP JUMPDEST SWAP3 POP DUP3 DUP3 SUB SWAP1 POP DUP2 DUP2 SLT PUSH0 DUP5 SLT AND DUP3 DUP3 SGT PUSH0 DUP6 SLT ISZERO AND OR ISZERO PUSH2 0x1FD1 JUMPI PUSH2 0x1FD0 PUSH2 0x1C23 JUMP JUMPDEST JUMPDEST SWAP3 SWAP2 POP POP JUMP JUMPDEST PUSH0 PUSH2 0x1FE1 DUP3 PUSH2 0x18EB JUMP JUMPDEST SWAP2 POP PUSH2 0x1FEC DUP4 PUSH2 0x18EB JUMP JUMPDEST SWAP3 POP DUP3 DUP3 ADD SWAP1 POP DUP1 DUP3 GT ISZERO PUSH2 0x2004 JUMPI PUSH2 0x2003 PUSH2 0x1C23 JUMP JUMPDEST JUMPDEST SWAP3 SWAP2 POP POP JUMP JUMPDEST PUSH2 0x2013 DUP2 PUSH2 0x18B8 JUMP JUMPDEST DUP3 MSTORE POP POP JUMP JUMPDEST PUSH0 PUSH32 0xFFFFFFFF00000000000000000000000000000000000000000000000000000000 DUP3 AND SWAP1 POP SWAP2 SWAP1 POP JUMP JUMPDEST PUSH2 0x204D DUP2 PUSH2 0x2019 JUMP JUMPDEST DUP3 MSTORE POP POP JUMP JUMPDEST PUSH0 DUP3 DUP3 MSTORE PUSH1 0x20 DUP3 ADD SWAP1 POP SWAP3 SWAP2 POP POP JUMP JUMPDEST PUSH0 PUSH2 0x206D DUP3 PUSH2 0x1AF6 JUMP JUMPDEST PUSH2 0x2077 DUP2 DUP6 PUSH2 0x2053 JUMP JUMPDEST SWAP4 POP PUSH2 0x2087 DUP2 DUP6 PUSH1 0x20 DUP7 ADD PUSH2 0x1A4B JUMP JUMPDEST PUSH2 0x2090 DUP2 PUSH2 0x173D JUMP JUMPDEST DUP5 ADD SWAP2 POP POP SWAP3 SWAP2 POP POP JUMP JUMPDEST PUSH0 PUSH1 0xE0 DUP3 ADD SWAP1 POP PUSH2 0x20AE PUSH0 DUP4 ADD DUP11 PUSH2 0x1A09 JUMP JUMPDEST PUSH2 0x20BB PUSH1 0x20 DUP4 ADD DUP10 PUSH2 0x19E1 JUMP JUMPDEST PUSH2 0x20C8 PUSH1 0x40 DUP4 ADD DUP9 PUSH2 0x200A JUMP JUMPDEST PUSH2 0x20D5 PUSH1 0x60 DUP4 ADD DUP8 PUSH2 0x2044 JUMP JUMPDEST PUSH2 0x20E2 PUSH1 0x80 DUP4 ADD DUP7 PUSH2 0x19E1 JUMP JUMPDEST PUSH2 0x20EF PUSH1 0xA0 DUP4 ADD DUP6 PUSH2 0x19E1 JUMP JUMPDEST DUP2 DUP2 SUB PUSH1 0xC0 DUP4 ADD MSTORE PUSH2 0x2101 DUP2 DUP5 PUSH2 0x2063 JUMP JUMPDEST SWAP1 POP SWAP9 SWAP8 POP POP POP POP POP POP POP POP JUMP JUMPDEST PUSH0 PUSH2 0x2119 DUP3 PUSH2 0x18EB JUMP JUMPDEST SWAP2 POP PUSH2 0x2124 DUP4 PUSH2 0x18EB JUMP JUMPDEST SWAP3 POP DUP3 PUSH2 0x2134 JUMPI PUSH2 0x2133 PUSH2 0x1C91 JUMP JUMPDEST JUMPDEST DUP3 DUP3 MOD SWAP1 POP SWAP3 SWAP2 POP POP JUMP JUMPDEST PUSH0 PUSH2 0x2149 DUP3 PUSH2 0x18EB JUMP JUMPDEST SWAP2 POP PUSH2 0x2154 DUP4 PUSH2 0x18EB JUMP JUMPDEST SWAP3 POP DUP3 DUP3 SUB SWAP1 POP DUP2 DUP2 GT ISZERO PUSH2 0x216C JUMPI PUSH2 0x216B PUSH2 0x1C23 JUMP JUMPDEST JUMPDEST SWAP3 SWAP2 POP POP JUMP JUMPDEST PUSH0 DUP2 SWAP1 POP SWAP2 SWAP1 POP JUMP JUMPDEST PUSH0 PUSH2 0x2195 PUSH2 0x2190 PUSH2 0x218B DUP5 PUSH2 0x195C JUMP JUMPDEST PUSH2 0x2172 JUMP JUMPDEST PUSH2 0x195C JUMP JUMPDEST SWAP1 POP SWAP2 SWAP1 POP JUMP JUMPDEST PUSH0 PUSH2 0x21A6 DUP3 PUSH2 0x217B JUMP JUMPDEST SWAP1 POP SWAP2 SWAP1 POP JUMP JUMPDEST PUSH0 PUSH2 0x21B7 DUP3 PUSH2 0x219C JUMP JUMPDEST SWAP1 POP SWAP2 SWAP1 POP JUMP JUMPDEST PUSH0 DUP2 PUSH1 0x60 SHL SWAP1 POP SWAP2 SWAP1 POP JUMP JUMPDEST PUSH0 PUSH2 0x21D4 DUP3 PUSH2 0x21BE JUMP JUMPDEST SWAP1 POP SWAP2 SWAP1 POP JUMP JUMPDEST PUSH0 PUSH2 0x21E5 DUP3 PUSH2 0x21CA JUMP JUMPDEST SWAP1 POP SWAP2 SWAP1 POP JUMP JUMPDEST PUSH2 0x21FD PUSH2 0x21F8 DUP3 PUSH2 0x21AD JUMP JUMPDEST PUSH2 0x21DB JUMP JUMPDEST DUP3 MSTORE POP POP JUMP JUMPDEST PUSH0 DUP2 SWAP1 POP SWAP2 SWAP1 POP JUMP JUMPDEST PUSH2 0x221D PUSH2 0x2218 DUP3 PUSH2 0x18EB JUMP JUMPDEST PUSH2 0x2203 JUMP JUMPDEST DUP3 MSTORE POP POP JUMP JUMPDEST PUSH0 PUSH2 0x222E DUP3 DUP6 PUSH2 0x21EC JUMP JUMPDEST PUSH1 0x14 DUP3 ADD SWAP2 POP PUSH2 0x223E DUP3 DUP5 PUSH2 0x220C JUMP JUMPDEST PUSH1 0x20 DUP3 ADD SWAP2 POP DUP2 SWAP1 POP SWAP4 SWAP3 POP POP POP JUMP JUMPDEST PUSH0 PUSH1 0x60 DUP3 ADD SWAP1 POP PUSH2 0x2261 PUSH0 DUP4 ADD DUP7 PUSH2 0x1A09 JUMP JUMPDEST PUSH2 0x226E PUSH1 0x20 DUP4 ADD DUP6 PUSH2 0x19E1 JUMP JUMPDEST DUP2 DUP2 SUB PUSH1 0x40 DUP4 ADD MSTORE PUSH2 0x2280 DUP2 DUP5 PUSH2 0x2063 JUMP JUMPDEST SWAP1 POP SWAP5 SWAP4 POP POP POP POP JUMP JUMPDEST PUSH32 0x756E61626C6520746F207472616E73666572416E6443616C6C20746F206F7261 PUSH0 DUP3 ADD MSTORE PUSH32 0x636C650000000000000000000000000000000000000000000000000000000000 PUSH1 0x20 DUP3 ADD MSTORE POP JUMP JUMPDEST PUSH0 PUSH2 0x22E4 PUSH1 0x23 DUP4 PUSH2 0x1A3B JUMP JUMPDEST SWAP2 POP PUSH2 0x22EF DUP3 PUSH2 0x228A JUMP JUMPDEST PUSH1 0x40 DUP3 ADD SWAP1 POP SWAP2 SWAP1 POP JUMP JUMPDEST PUSH0 PUSH1 0x20 DUP3 ADD SWAP1 POP DUP2 DUP2 SUB PUSH0 DUP4 ADD MSTORE PUSH2 0x2311 DUP2 PUSH2 0x22D8 JUMP JUMPDEST SWAP1 POP SWAP2 SWAP1 POP JUMP JUMPDEST PUSH0 DUP2 PUSH1 0x1 SHR SWAP1 POP SWAP2 SWAP1 POP JUMP JUMPDEST PUSH0 DUP1 DUP3 SWAP2 POP DUP4 SWAP1 POP JUMPDEST PUSH1 0x1 DUP6 GT ISZERO PUSH2 0x236D JUMPI DUP1 DUP7 DIV DUP2 GT ISZERO PUSH2 0x2349 JUMPI PUSH2 0x2348 PUSH2 0x1C23 JUMP JUMPDEST JUMPDEST PUSH1 0x1 DUP6 AND ISZERO PUSH2 0x2358 JUMPI DUP1 DUP3 MUL SWAP2 POP JUMPDEST DUP1 DUP2 MUL SWAP1 POP PUSH2 0x2366 DUP6 PUSH2 0x2318 JUMP JUMPDEST SWAP5 POP PUSH2 0x232D JUMP JUMPDEST SWAP5 POP SWAP5 SWAP3 POP POP POP JUMP JUMPDEST PUSH0 DUP3 PUSH2 0x2385 JUMPI PUSH1 0x1 SWAP1 POP PUSH2 0x2440 JUMP JUMPDEST DUP2 PUSH2 0x2392 JUMPI PUSH0 SWAP1 POP PUSH2 0x2440 JUMP JUMPDEST DUP2 PUSH1 0x1 DUP2 EQ PUSH2 0x23A8 JUMPI PUSH1 0x2 DUP2 EQ PUSH2 0x23B2 JUMPI PUSH2 0x23E1 JUMP JUMPDEST PUSH1 0x1 SWAP2 POP POP PUSH2 0x2440 JUMP JUMPDEST PUSH1 0xFF DUP5 GT ISZERO PUSH2 0x23C4 JUMPI PUSH2 0x23C3 PUSH2 0x1C23 JUMP JUMPDEST JUMPDEST DUP4 PUSH1 0x2 EXP SWAP2 POP DUP5 DUP3 GT ISZERO PUSH2 0x23DB JUMPI PUSH2 0x23DA PUSH2 0x1C23 JUMP JUMPDEST JUMPDEST POP PUSH2 0x2440 JUMP JUMPDEST POP PUSH1 0x20 DUP4 LT PUSH2 0x133 DUP4 LT AND PUSH1 0x4E DUP5 LT PUSH1 0xB DUP5 LT AND OR ISZERO PUSH2 0x2416 JUMPI DUP3 DUP3 EXP SWAP1 POP DUP4 DUP2 GT ISZERO PUSH2 0x2411 JUMPI PUSH2 0x2410 PUSH2 0x1C23 JUMP JUMPDEST JUMPDEST PUSH2 0x2440 JUMP JUMPDEST PUSH2 0x2423 DUP5 DUP5 DUP5 PUSH1 0x1 PUSH2 0x2324 JUMP JUMPDEST SWAP3 POP SWAP1 POP DUP2 DUP5 DIV DUP2 GT ISZERO PUSH2 0x243A JUMPI PUSH2 0x2439 PUSH2 0x1C23 JUMP JUMPDEST JUMPDEST DUP2 DUP2 MUL SWAP1 POP JUMPDEST SWAP4 SWAP3 POP POP POP JUMP JUMPDEST PUSH0 PUSH2 0x2451 DUP3 PUSH2 0x18EB JUMP JUMPDEST SWAP2 POP PUSH2 0x245C DUP4 PUSH2 0x18EB JUMP JUMPDEST SWAP3 POP PUSH2 0x2489 PUSH32 0xFFFFFFFFFFFFFFFFFFFFFFFFFFFFFFFFFFFFFFFFFFFFFFFFFFFFFFFFFFFFFFFF DUP5 DUP5 PUSH2 0x2376 JUMP JUMPDEST SWAP1 POP SWAP3 SWAP2 POP POP JUMP INVALID PUSH9 0x747470733A2F2F6D69 PUSH15 0x2D6170692E63727970746F636F6D70 PUSH2 0x7265 0x2E PUSH4 0x6F6D2F64 PUSH2 0x7461 0x2F PUSH17 0x726963656D756C74693F6673796D733D42 SLOAD NUMBER 0x2C GASLIMIT SLOAD BASEFEE 0x26 PUSH21 0x73796D733D5553442C4555525B22636F6E74656E74 0x2D PUSH21 0x797065222C20226170706C69636174696F6E2F6A73 PUSH16 0x6E222C20227365742D636F6F6B696522 0x2C KECCAK256 0x22 PUSH20 0x69643D3134413532225DA2646970667358221220 0x27 0xB5 0x2D 0xE6 0xE4 CALLER 0xC9 0xEB 0xF 0xDE PUSH20 0x656F1D13DD01816B1758A6A48A3D7291A90C48CE 0x22 PUSH5 0x736F6C6343 STOP ADDMOD XOR STOP CALLER "
				},
				"gasEstimates": {
					"creation": {
						"codeDepositCost": "1911000",
						"executionCost": "infinite",
						"totalCost": "infinite"
					},
					"external": {
						"acceptOwnership()": "54600",
						"fulfill(bytes32,uint256)": "50476",
						"getFeeInHundredthsOfLink()": "infinite",
						"getJobId()": "infinite",
						"getOracleAddress()": "4730",
						"owner()": "2538",
						"request()": "infinite",
						"response()": "2514",
						"setFeeInHundredthsOfLink(uint256)": "infinite",
						"setFeeInJuels(uint256)": "24752",
						"setJobId(string)": "infinite",
						"setOracleAddress(address)": "51226",
						"transferOwnership(address)": "30717",
						"withdrawLink()": "infinite"
					}
				},
				"methodIdentifiers": {
					"acceptOwnership()": "79ba5097",
					"fulfill(bytes32,uint256)": "4357855e",
					"getFeeInHundredthsOfLink()": "56237682",
					"getJobId()": "b02f7fe0",
					"getOracleAddress()": "b18b78dd",
					"owner()": "8da5cb5b",
					"request()": "338cdca1",
					"response()": "7a7f01a7",
					"setFeeInHundredthsOfLink(uint256)": "f34473a5",
					"setFeeInJuels(uint256)": "e3da201d",
					"setJobId(string)": "129fc1c0",
					"setOracleAddress(address)": "4c69c00f",
					"transferOwnership(address)": "f2fde38b",
					"withdrawLink()": "8dc654a2"
				}
			},
			"storageLayout": {
				"storage": [
					{
						"astId": 319,
						"contract": "contracts/aquo/AquoLink.sol:LinkWellUint256ConsumerContractExample",
						"label": "s_ens",
						"offset": 0,
						"slot": "0",
						"type": "t_contract(ENSInterface)1156"
					},
					{
						"astId": 321,
						"contract": "contracts/aquo/AquoLink.sol:LinkWellUint256ConsumerContractExample",
						"label": "s_ensNode",
						"offset": 0,
						"slot": "1",
						"type": "t_bytes32"
					},
					{
						"astId": 324,
						"contract": "contracts/aquo/AquoLink.sol:LinkWellUint256ConsumerContractExample",
						"label": "s_link",
						"offset": 0,
						"slot": "2",
						"type": "t_contract(LinkTokenInterface)1394"
					},
					{
						"astId": 327,
						"contract": "contracts/aquo/AquoLink.sol:LinkWellUint256ConsumerContractExample",
						"label": "s_oracle",
						"offset": 0,
						"slot": "3",
						"type": "t_contract(OperatorInterface)1236"
					},
					{
						"astId": 330,
						"contract": "contracts/aquo/AquoLink.sol:LinkWellUint256ConsumerContractExample",
						"label": "s_requestCount",
						"offset": 0,
						"slot": "4",
						"type": "t_uint256"
					},
					{
						"astId": 334,
						"contract": "contracts/aquo/AquoLink.sol:LinkWellUint256ConsumerContractExample",
						"label": "s_pendingRequests",
						"offset": 0,
						"slot": "5",
						"type": "t_mapping(t_bytes32,t_address)"
					},
					{
						"astId": 889,
						"contract": "contracts/aquo/AquoLink.sol:LinkWellUint256ConsumerContractExample",
						"label": "s_owner",
						"offset": 0,
						"slot": "6",
						"type": "t_address"
					},
					{
						"astId": 891,
						"contract": "contracts/aquo/AquoLink.sol:LinkWellUint256ConsumerContractExample",
						"label": "s_pendingOwner",
						"offset": 0,
						"slot": "7",
						"type": "t_address"
					},
					{
						"astId": 2389,
						"contract": "contracts/aquo/AquoLink.sol:LinkWellUint256ConsumerContractExample",
						"label": "oracleAddress",
						"offset": 0,
						"slot": "8",
						"type": "t_address"
					},
					{
						"astId": 2391,
						"contract": "contracts/aquo/AquoLink.sol:LinkWellUint256ConsumerContractExample",
						"label": "jobId",
						"offset": 0,
						"slot": "9",
						"type": "t_bytes32"
					},
					{
						"astId": 2393,
						"contract": "contracts/aquo/AquoLink.sol:LinkWellUint256ConsumerContractExample",
						"label": "fee",
						"offset": 0,
						"slot": "10",
						"type": "t_uint256"
					},
					{
						"astId": 2491,
						"contract": "contracts/aquo/AquoLink.sol:LinkWellUint256ConsumerContractExample",
						"label": "response",
						"offset": 0,
						"slot": "11",
						"type": "t_uint256"
					}
				],
				"types": {
					"t_address": {
						"encoding": "inplace",
						"label": "address",
						"numberOfBytes": "20"
					},
					"t_bytes32": {
						"encoding": "inplace",
						"label": "bytes32",
						"numberOfBytes": "32"
					},
					"t_contract(ENSInterface)1156": {
						"encoding": "inplace",
						"label": "contract ENSInterface",
						"numberOfBytes": "20"
					},
					"t_contract(LinkTokenInterface)1394": {
						"encoding": "inplace",
						"label": "contract LinkTokenInterface",
						"numberOfBytes": "20"
					},
					"t_contract(OperatorInterface)1236": {
						"encoding": "inplace",
						"label": "contract OperatorInterface",
						"numberOfBytes": "20"
					},
					"t_mapping(t_bytes32,t_address)": {
						"encoding": "mapping",
						"key": "t_bytes32",
						"label": "mapping(bytes32 => address)",
						"numberOfBytes": "32",
						"value": "t_address"
					},
					"t_uint256": {
						"encoding": "inplace",
						"label": "uint256",
						"numberOfBytes": "32"
					}
				}
			},
			"userdoc": {
				"kind": "user",
				"methods": {
					"acceptOwnership()": {
						"notice": "Allows an ownership transfer to be completed by the recipient."
					},
					"owner()": {
						"notice": "Get the current owner"
					},
					"transferOwnership(address)": {
						"notice": "Allows an owner to begin transferring ownership to a new address, pending."
					}
				},
				"notice": "THIS IS AN EXAMPLE CONTRACT THAT USES UN-AUDITED CODE.",
				"version": 1
			}
		}
	}
}